{
	"contracts/Defly/NFTStakingStart.sol": {
		"NFTStaking": {
			"abi": [
				{
					"inputs": [
						{
							"internalType": "address",
							"name": "_ERC721address",
							"type": "address"
						},
						{
							"internalType": "address",
							"name": "_ERC20Address",
							"type": "address"
						}
					],
					"stateMutability": "nonpayable",
					"type": "constructor"
				},
				{
					"anonymous": false,
					"inputs": [
						{
							"indexed": true,
							"internalType": "address",
							"name": "previousOwner",
							"type": "address"
						},
						{
							"indexed": true,
							"internalType": "address",
							"name": "newOwner",
							"type": "address"
						}
					],
					"name": "OwnershipTransferred",
					"type": "event"
				},
				{
					"inputs": [
						{
							"internalType": "uint256",
							"name": "_amount",
							"type": "uint256"
						}
					],
					"name": "AdminAddToken",
					"outputs": [],
					"stateMutability": "nonpayable",
					"type": "function"
				},
				{
					"inputs": [],
					"name": "ERC20Address",
					"outputs": [
						{
							"internalType": "address",
							"name": "",
							"type": "address"
						}
					],
					"stateMutability": "view",
					"type": "function"
				},
				{
					"inputs": [],
					"name": "ERC721address",
					"outputs": [
						{
							"internalType": "address",
							"name": "",
							"type": "address"
						}
					],
					"stateMutability": "view",
					"type": "function"
				},
				{
					"inputs": [
						{
							"internalType": "address",
							"name": "",
							"type": "address"
						}
					],
					"name": "Staker",
					"outputs": [
						{
							"internalType": "uint256",
							"name": "tokens",
							"type": "uint256"
						},
						{
							"internalType": "uint256",
							"name": "day",
							"type": "uint256"
						},
						{
							"internalType": "uint256",
							"name": "StartTime",
							"type": "uint256"
						},
						{
							"internalType": "uint256",
							"name": "NFT",
							"type": "uint256"
						},
						{
							"internalType": "bool",
							"name": "DepositToken",
							"type": "bool"
						}
					],
					"stateMutability": "view",
					"type": "function"
				},
				{
					"inputs": [],
					"name": "TotalRemaningToken",
					"outputs": [
						{
							"internalType": "uint256",
							"name": "",
							"type": "uint256"
						}
					],
					"stateMutability": "view",
					"type": "function"
				},
				{
					"inputs": [],
					"name": "category1",
					"outputs": [
						{
							"internalType": "uint256",
							"name": "_value",
							"type": "uint256"
						}
					],
					"stateMutability": "view",
					"type": "function"
				},
				{
					"inputs": [],
					"name": "category2",
					"outputs": [
						{
							"internalType": "uint256",
							"name": "_value",
							"type": "uint256"
						}
					],
					"stateMutability": "view",
					"type": "function"
				},
				{
					"inputs": [],
					"name": "category3",
					"outputs": [
						{
							"internalType": "uint256",
							"name": "_value",
							"type": "uint256"
						}
					],
					"stateMutability": "view",
					"type": "function"
				},
				{
					"inputs": [],
					"name": "category4",
					"outputs": [
						{
							"internalType": "uint256",
							"name": "_value",
							"type": "uint256"
						}
					],
					"stateMutability": "view",
					"type": "function"
				},
				{
					"inputs": [
						{
							"internalType": "uint256",
							"name": "TokenId",
							"type": "uint256"
						},
						{
							"internalType": "uint256",
							"name": "Days",
							"type": "uint256"
						}
					],
					"name": "deposit",
					"outputs": [],
					"stateMutability": "nonpayable",
					"type": "function"
				},
				{
					"inputs": [
						{
							"internalType": "address",
							"name": "",
							"type": "address"
						},
						{
							"internalType": "address",
							"name": "",
							"type": "address"
						},
						{
							"internalType": "uint256",
							"name": "",
							"type": "uint256"
						},
						{
							"internalType": "bytes",
							"name": "",
							"type": "bytes"
						}
					],
					"name": "onERC721Received",
					"outputs": [
						{
							"internalType": "bytes4",
							"name": "",
							"type": "bytes4"
						}
					],
					"stateMutability": "pure",
					"type": "function"
				},
				{
					"inputs": [],
					"name": "owner",
					"outputs": [
						{
							"internalType": "address",
							"name": "",
							"type": "address"
						}
					],
					"stateMutability": "view",
					"type": "function"
				},
				{
					"inputs": [],
					"name": "renounceOwnership",
					"outputs": [],
					"stateMutability": "nonpayable",
					"type": "function"
				},
				{
					"inputs": [
						{
							"internalType": "address",
							"name": "newOwner",
							"type": "address"
						}
					],
					"name": "transferOwnership",
					"outputs": [],
					"stateMutability": "nonpayable",
					"type": "function"
				},
				{
					"inputs": [
						{
							"internalType": "address",
							"name": "_to",
							"type": "address"
						}
					],
					"name": "withdraw",
					"outputs": [],
					"stateMutability": "nonpayable",
					"type": "function"
				}
			],
			"devdoc": {
				"kind": "dev",
				"methods": {
					"owner()": {
						"details": "Returns the address of the current owner."
					},
					"renounceOwnership()": {
						"details": "Leaves the contract without owner. It will not be possible to call `onlyOwner` functions anymore. Can only be called by the current owner. NOTE: Renouncing ownership will leave the contract without an owner, thereby removing any functionality that is only available to the owner."
					},
					"transferOwnership(address)": {
						"details": "Transfers ownership of the contract to a new account (`newOwner`). Can only be called by the current owner."
					}
				},
				"version": 1
			},
			"evm": {
				"assembly": "    /* \"contracts/Defly/NFTStakingStart.sol\":402:5142  contract NFTStaking is Ownable,IERC721Receiver{... */\n  mstore(0x40, 0x80)\n    /* \"contracts/Defly/NFTStakingStart.sol\":1213:1357  constructor(address _ERC721address, address _ERC20Address) {... */\n  callvalue\n  dup1\n  iszero\n  tag_1\n  jumpi\n  0x00\n  dup1\n  revert\ntag_1:\n  pop\n  mload(0x40)\n  sub(codesize, bytecodeSize)\n  dup1\n  bytecodeSize\n  dup4\n  codecopy\n  dup2\n  dup2\n  add\n  0x40\n  mstore\n  dup2\n  add\n  swap1\n  tag_2\n  swap2\n  swap1\n  tag_3\n  jump\t// in\ntag_2:\n    /* \"@openzeppelin/contracts/access/Ownable.sol\":936:968  _transferOwnership(_msgSender()) */\n  tag_7\n    /* \"@openzeppelin/contracts/access/Ownable.sol\":955:967  _msgSender() */\n  tag_8\n    /* \"@openzeppelin/contracts/access/Ownable.sol\":955:965  _msgSender */\n  shl(0x20, tag_9)\n    /* \"@openzeppelin/contracts/access/Ownable.sol\":955:967  _msgSender() */\n  0x20\n  shr\n  jump\t// in\ntag_8:\n    /* \"@openzeppelin/contracts/access/Ownable.sol\":936:954  _transferOwnership */\n  shl(0x20, tag_10)\n    /* \"@openzeppelin/contracts/access/Ownable.sol\":936:968  _transferOwnership(_msgSender()) */\n  0x20\n  shr\n  jump\t// in\ntag_7:\n    /* \"contracts/Defly/NFTStakingStart.sol\":1298:1312  _ERC721address */\n  dup2\n    /* \"contracts/Defly/NFTStakingStart.sol\":1282:1295  ERC721address */\n  0x05\n  0x00\n    /* \"contracts/Defly/NFTStakingStart.sol\":1282:1312  ERC721address = _ERC721address */\n  0x0100\n  exp\n  dup2\n  sload\n  dup2\n  0xffffffffffffffffffffffffffffffffffffffff\n  mul\n  not\n  and\n  swap1\n  dup4\n  0xffffffffffffffffffffffffffffffffffffffff\n  and\n  mul\n  or\n  swap1\n  sstore\n  pop\n    /* \"contracts/Defly/NFTStakingStart.sol\":1337:1350  _ERC20Address */\n  dup1\n    /* \"contracts/Defly/NFTStakingStart.sol\":1322:1334  ERC20Address */\n  0x06\n  0x00\n    /* \"contracts/Defly/NFTStakingStart.sol\":1322:1350  ERC20Address = _ERC20Address */\n  0x0100\n  exp\n  dup2\n  sload\n  dup2\n  0xffffffffffffffffffffffffffffffffffffffff\n  mul\n  not\n  and\n  swap1\n  dup4\n  0xffffffffffffffffffffffffffffffffffffffff\n  and\n  mul\n  or\n  swap1\n  sstore\n  pop\n    /* \"contracts/Defly/NFTStakingStart.sol\":1213:1357  constructor(address _ERC721address, address _ERC20Address) {... */\n  pop\n  pop\n    /* \"contracts/Defly/NFTStakingStart.sol\":402:5142  contract NFTStaking is Ownable,IERC721Receiver{... */\n  jump(tag_12)\n    /* \"@openzeppelin/contracts/utils/Context.sol\":640:736  function _msgSender() internal view virtual returns (address) {... */\ntag_9:\n    /* \"@openzeppelin/contracts/utils/Context.sol\":693:700  address */\n  0x00\n    /* \"@openzeppelin/contracts/utils/Context.sol\":719:729  msg.sender */\n  caller\n    /* \"@openzeppelin/contracts/utils/Context.sol\":712:729  return msg.sender */\n  swap1\n  pop\n    /* \"@openzeppelin/contracts/utils/Context.sol\":640:736  function _msgSender() internal view virtual returns (address) {... */\n  swap1\n  jump\t// out\n    /* \"@openzeppelin/contracts/access/Ownable.sol\":2433:2620  function _transferOwnership(address newOwner) internal virtual {... */\ntag_10:\n    /* \"@openzeppelin/contracts/access/Ownable.sol\":2506:2522  address oldOwner */\n  0x00\n    /* \"@openzeppelin/contracts/access/Ownable.sol\":2525:2531  _owner */\n  dup1\n  0x00\n  swap1\n  sload\n  swap1\n  0x0100\n  exp\n  swap1\n  div\n  0xffffffffffffffffffffffffffffffffffffffff\n  and\n    /* \"@openzeppelin/contracts/access/Ownable.sol\":2506:2531  address oldOwner = _owner */\n  swap1\n  pop\n    /* \"@openzeppelin/contracts/access/Ownable.sol\":2550:2558  newOwner */\n  dup2\n    /* \"@openzeppelin/contracts/access/Ownable.sol\":2541:2547  _owner */\n  0x00\n  dup1\n    /* \"@openzeppelin/contracts/access/Ownable.sol\":2541:2558  _owner = newOwner */\n  0x0100\n  exp\n  dup2\n  sload\n  dup2\n  0xffffffffffffffffffffffffffffffffffffffff\n  mul\n  not\n  and\n  swap1\n  dup4\n  0xffffffffffffffffffffffffffffffffffffffff\n  and\n  mul\n  or\n  swap1\n  sstore\n  pop\n    /* \"@openzeppelin/contracts/access/Ownable.sol\":2604:2612  newOwner */\n  dup2\n    /* \"@openzeppelin/contracts/access/Ownable.sol\":2573:2613  OwnershipTransferred(oldOwner, newOwner) */\n  0xffffffffffffffffffffffffffffffffffffffff\n  and\n    /* \"@openzeppelin/contracts/access/Ownable.sol\":2594:2602  oldOwner */\n  dup2\n    /* \"@openzeppelin/contracts/access/Ownable.sol\":2573:2613  OwnershipTransferred(oldOwner, newOwner) */\n  0xffffffffffffffffffffffffffffffffffffffff\n  and\n  0x8be0079c531659141344cd1fd0a4f28419497f9722a3daafe3b4186f6b6457e0\n  mload(0x40)\n  mload(0x40)\n  dup1\n  swap2\n  sub\n  swap1\n  log3\n    /* \"@openzeppelin/contracts/access/Ownable.sol\":2496:2620  {... */\n  pop\n    /* \"@openzeppelin/contracts/access/Ownable.sol\":2433:2620  function _transferOwnership(address newOwner) internal virtual {... */\n  pop\n  jump\t// out\n    /* \"#utility.yul\":88:205   */\ntag_16:\n    /* \"#utility.yul\":197:198   */\n  0x00\n    /* \"#utility.yul\":194:195   */\n  dup1\n    /* \"#utility.yul\":187:199   */\n  revert\n    /* \"#utility.yul\":334:460   */\ntag_18:\n    /* \"#utility.yul\":371:378   */\n  0x00\n    /* \"#utility.yul\":411:453   */\n  0xffffffffffffffffffffffffffffffffffffffff\n    /* \"#utility.yul\":404:409   */\n  dup3\n    /* \"#utility.yul\":400:454   */\n  and\n    /* \"#utility.yul\":389:454   */\n  swap1\n  pop\n    /* \"#utility.yul\":334:460   */\n  swap2\n  swap1\n  pop\n  jump\t// out\n    /* \"#utility.yul\":466:562   */\ntag_19:\n    /* \"#utility.yul\":503:510   */\n  0x00\n    /* \"#utility.yul\":532:556   */\n  tag_28\n    /* \"#utility.yul\":550:555   */\n  dup3\n    /* \"#utility.yul\":532:556   */\n  tag_18\n  jump\t// in\ntag_28:\n    /* \"#utility.yul\":521:556   */\n  swap1\n  pop\n    /* \"#utility.yul\":466:562   */\n  swap2\n  swap1\n  pop\n  jump\t// out\n    /* \"#utility.yul\":568:690   */\ntag_20:\n    /* \"#utility.yul\":641:665   */\n  tag_30\n    /* \"#utility.yul\":659:664   */\n  dup2\n    /* \"#utility.yul\":641:665   */\n  tag_19\n  jump\t// in\ntag_30:\n    /* \"#utility.yul\":634:639   */\n  dup2\n    /* \"#utility.yul\":631:666   */\n  eq\n    /* \"#utility.yul\":621:684   */\n  tag_31\n  jumpi\n    /* \"#utility.yul\":680:681   */\n  0x00\n    /* \"#utility.yul\":677:678   */\n  dup1\n    /* \"#utility.yul\":670:682   */\n  revert\n    /* \"#utility.yul\":621:684   */\ntag_31:\n    /* \"#utility.yul\":568:690   */\n  pop\n  jump\t// out\n    /* \"#utility.yul\":696:839   */\ntag_21:\n    /* \"#utility.yul\":753:758   */\n  0x00\n    /* \"#utility.yul\":784:790   */\n  dup2\n    /* \"#utility.yul\":778:791   */\n  mload\n    /* \"#utility.yul\":769:791   */\n  swap1\n  pop\n    /* \"#utility.yul\":800:833   */\n  tag_33\n    /* \"#utility.yul\":827:832   */\n  dup2\n    /* \"#utility.yul\":800:833   */\n  tag_20\n  jump\t// in\ntag_33:\n    /* \"#utility.yul\":696:839   */\n  swap3\n  swap2\n  pop\n  pop\n  jump\t// out\n    /* \"#utility.yul\":845:1352   */\ntag_3:\n    /* \"#utility.yul\":924:930   */\n  0x00\n    /* \"#utility.yul\":932:938   */\n  dup1\n    /* \"#utility.yul\":981:983   */\n  0x40\n    /* \"#utility.yul\":969:978   */\n  dup4\n    /* \"#utility.yul\":960:967   */\n  dup6\n    /* \"#utility.yul\":956:979   */\n  sub\n    /* \"#utility.yul\":952:984   */\n  slt\n    /* \"#utility.yul\":949:1068   */\n  iszero\n  tag_35\n  jumpi\n    /* \"#utility.yul\":987:1066   */\n  tag_36\n  tag_16\n  jump\t// in\ntag_36:\n    /* \"#utility.yul\":949:1068   */\ntag_35:\n    /* \"#utility.yul\":1107:1108   */\n  0x00\n    /* \"#utility.yul\":1132:1196   */\n  tag_37\n    /* \"#utility.yul\":1188:1195   */\n  dup6\n    /* \"#utility.yul\":1179:1185   */\n  dup3\n    /* \"#utility.yul\":1168:1177   */\n  dup7\n    /* \"#utility.yul\":1164:1186   */\n  add\n    /* \"#utility.yul\":1132:1196   */\n  tag_21\n  jump\t// in\ntag_37:\n    /* \"#utility.yul\":1122:1196   */\n  swap3\n  pop\n    /* \"#utility.yul\":1078:1206   */\n  pop\n    /* \"#utility.yul\":1245:1247   */\n  0x20\n    /* \"#utility.yul\":1271:1335   */\n  tag_38\n    /* \"#utility.yul\":1327:1334   */\n  dup6\n    /* \"#utility.yul\":1318:1324   */\n  dup3\n    /* \"#utility.yul\":1307:1316   */\n  dup7\n    /* \"#utility.yul\":1303:1325   */\n  add\n    /* \"#utility.yul\":1271:1335   */\n  tag_21\n  jump\t// in\ntag_38:\n    /* \"#utility.yul\":1261:1335   */\n  swap2\n  pop\n    /* \"#utility.yul\":1216:1345   */\n  pop\n    /* \"#utility.yul\":845:1352   */\n  swap3\n  pop\n  swap3\n  swap1\n  pop\n  jump\t// out\n    /* \"contracts/Defly/NFTStakingStart.sol\":402:5142  contract NFTStaking is Ownable,IERC721Receiver{... */\ntag_12:\n  dataSize(sub_0)\n  dup1\n  dataOffset(sub_0)\n  0x00\n  codecopy\n  0x00\n  return\nstop\n\nsub_0: assembly {\n        /* \"contracts/Defly/NFTStakingStart.sol\":402:5142  contract NFTStaking is Ownable,IERC721Receiver{... */\n      mstore(0x40, 0x80)\n      callvalue\n      dup1\n      iszero\n      tag_1\n      jumpi\n      0x00\n      dup1\n      revert\n    tag_1:\n      pop\n      jumpi(tag_2, lt(calldatasize, 0x04))\n      shr(0xe0, calldataload(0x00))\n      dup1\n      0xa6021ace\n      gt\n      tag_18\n      jumpi\n      dup1\n      0xc0cd40ee\n      gt\n      tag_19\n      jumpi\n      dup1\n      0xc0cd40ee\n      eq\n      tag_14\n      jumpi\n      dup1\n      0xe2bbb158\n      eq\n      tag_15\n      jumpi\n      dup1\n      0xf2fde38b\n      eq\n      tag_16\n      jumpi\n      dup1\n      0xf7d252f4\n      eq\n      tag_17\n      jumpi\n      jump(tag_2)\n    tag_19:\n      dup1\n      0xa6021ace\n      eq\n      tag_10\n      jumpi\n      dup1\n      0xb10558ab\n      eq\n      tag_11\n      jumpi\n      dup1\n      0xb4e929d4\n      eq\n      tag_12\n      jumpi\n      dup1\n      0xb7171a2e\n      eq\n      tag_13\n      jumpi\n      jump(tag_2)\n    tag_18:\n      dup1\n      0x4930e5d1\n      gt\n      tag_20\n      jumpi\n      dup1\n      0x4930e5d1\n      eq\n      tag_6\n      jumpi\n      dup1\n      0x51cff8d9\n      eq\n      tag_7\n      jumpi\n      dup1\n      0x715018a6\n      eq\n      tag_8\n      jumpi\n      dup1\n      0x8da5cb5b\n      eq\n      tag_9\n      jumpi\n      jump(tag_2)\n    tag_20:\n      dup1\n      0x150b7a02\n      eq\n      tag_3\n      jumpi\n      dup1\n      0x3f431230\n      eq\n      tag_4\n      jumpi\n      dup1\n      0x41fcd29a\n      eq\n      tag_5\n      jumpi\n    tag_2:\n      0x00\n      dup1\n      revert\n        /* \"contracts/Defly/NFTStakingStart.sol\":4969:5140  function onERC721Received(address,address,uint256,bytes calldata) external pure override returns (bytes4) {... */\n    tag_3:\n      tag_21\n      0x04\n      dup1\n      calldatasize\n      sub\n      dup2\n      add\n      swap1\n      tag_22\n      swap2\n      swap1\n      tag_23\n      jump\t// in\n    tag_22:\n      tag_24\n      jump\t// in\n    tag_21:\n      mload(0x40)\n      tag_25\n      swap2\n      swap1\n      tag_26\n      jump\t// in\n    tag_25:\n      mload(0x40)\n      dup1\n      swap2\n      sub\n      swap1\n      return\n        /* \"contracts/Defly/NFTStakingStart.sol\":528:561  Counters.Counter public category1 */\n    tag_4:\n      tag_27\n      tag_28\n      jump\t// in\n    tag_27:\n      mload(0x40)\n      tag_29\n      swap2\n      swap1\n      tag_30\n      jump\t// in\n    tag_29:\n      mload(0x40)\n      dup1\n      swap2\n      sub\n      swap1\n      return\n        /* \"contracts/Defly/NFTStakingStart.sol\":645:678  Counters.Counter public category4 */\n    tag_5:\n      tag_31\n      tag_32\n      jump\t// in\n    tag_31:\n      mload(0x40)\n      tag_33\n      swap2\n      swap1\n      tag_30\n      jump\t// in\n    tag_33:\n      mload(0x40)\n      dup1\n      swap2\n      sub\n      swap1\n      return\n        /* \"contracts/Defly/NFTStakingStart.sol\":751:784  uint256 public TotalRemaningToken */\n    tag_6:\n      tag_34\n      tag_35\n      jump\t// in\n    tag_34:\n      mload(0x40)\n      tag_36\n      swap2\n      swap1\n      tag_30\n      jump\t// in\n    tag_36:\n      mload(0x40)\n      dup1\n      swap2\n      sub\n      swap1\n      return\n        /* \"contracts/Defly/NFTStakingStart.sol\":3210:4525  function withdraw (address _to) public {... */\n    tag_7:\n      tag_37\n      0x04\n      dup1\n      calldatasize\n      sub\n      dup2\n      add\n      swap1\n      tag_38\n      swap2\n      swap1\n      tag_39\n      jump\t// in\n    tag_38:\n      tag_40\n      jump\t// in\n    tag_37:\n      stop\n        /* \"@openzeppelin/contracts/access/Ownable.sol\":1831:1932  function renounceOwnership() public virtual onlyOwner {... */\n    tag_8:\n      tag_41\n      tag_42\n      jump\t// in\n    tag_41:\n      stop\n        /* \"@openzeppelin/contracts/access/Ownable.sol\":1201:1286  function owner() public view virtual returns (address) {... */\n    tag_9:\n      tag_43\n      tag_44\n      jump\t// in\n    tag_43:\n      mload(0x40)\n      tag_45\n      swap2\n      swap1\n      tag_46\n      jump\t// in\n    tag_45:\n      mload(0x40)\n      dup1\n      swap2\n      sub\n      swap1\n      return\n        /* \"contracts/Defly/NFTStakingStart.sol\":718:745  address public ERC20Address */\n    tag_10:\n      tag_47\n      tag_48\n      jump\t// in\n    tag_47:\n      mload(0x40)\n      tag_49\n      swap2\n      swap1\n      tag_46\n      jump\t// in\n    tag_49:\n      mload(0x40)\n      dup1\n      swap2\n      sub\n      swap1\n      return\n        /* \"contracts/Defly/NFTStakingStart.sol\":567:600  Counters.Counter public category2 */\n    tag_11:\n      tag_50\n      tag_51\n      jump\t// in\n    tag_50:\n      mload(0x40)\n      tag_52\n      swap2\n      swap1\n      tag_30\n      jump\t// in\n    tag_52:\n      mload(0x40)\n      dup1\n      swap2\n      sub\n      swap1\n      return\n        /* \"contracts/Defly/NFTStakingStart.sol\":923:964  mapping (address => Detail) public Staker */\n    tag_12:\n      tag_53\n      0x04\n      dup1\n      calldatasize\n      sub\n      dup2\n      add\n      swap1\n      tag_54\n      swap2\n      swap1\n      tag_39\n      jump\t// in\n    tag_54:\n      tag_55\n      jump\t// in\n    tag_53:\n      mload(0x40)\n      tag_56\n      swap6\n      swap5\n      swap4\n      swap3\n      swap2\n      swap1\n      tag_57\n      jump\t// in\n    tag_56:\n      mload(0x40)\n      dup1\n      swap2\n      sub\n      swap1\n      return\n        /* \"contracts/Defly/NFTStakingStart.sol\":684:712  address public ERC721address */\n    tag_13:\n      tag_58\n      tag_59\n      jump\t// in\n    tag_58:\n      mload(0x40)\n      tag_60\n      swap2\n      swap1\n      tag_46\n      jump\t// in\n    tag_60:\n      mload(0x40)\n      dup1\n      swap2\n      sub\n      swap1\n      return\n        /* \"contracts/Defly/NFTStakingStart.sol\":4782:4964  function AdminAddToken(uint _amount) public onlyOwner{... */\n    tag_14:\n      tag_61\n      0x04\n      dup1\n      calldatasize\n      sub\n      dup2\n      add\n      swap1\n      tag_62\n      swap2\n      swap1\n      tag_63\n      jump\t// in\n    tag_62:\n      tag_64\n      jump\t// in\n    tag_61:\n      stop\n        /* \"contracts/Defly/NFTStakingStart.sol\":1516:3023  function deposit(uint TokenId,uint Days) public {... */\n    tag_15:\n      tag_65\n      0x04\n      dup1\n      calldatasize\n      sub\n      dup2\n      add\n      swap1\n      tag_66\n      swap2\n      swap1\n      tag_67\n      jump\t// in\n    tag_66:\n      tag_68\n      jump\t// in\n    tag_65:\n      stop\n        /* \"@openzeppelin/contracts/access/Ownable.sol\":2081:2279  function transferOwnership(address newOwner) public virtual onlyOwner {... */\n    tag_16:\n      tag_69\n      0x04\n      dup1\n      calldatasize\n      sub\n      dup2\n      add\n      swap1\n      tag_70\n      swap2\n      swap1\n      tag_39\n      jump\t// in\n    tag_70:\n      tag_71\n      jump\t// in\n    tag_69:\n      stop\n        /* \"contracts/Defly/NFTStakingStart.sol\":606:639  Counters.Counter public category3 */\n    tag_17:\n      tag_72\n      tag_73\n      jump\t// in\n    tag_72:\n      mload(0x40)\n      tag_74\n      swap2\n      swap1\n      tag_30\n      jump\t// in\n    tag_74:\n      mload(0x40)\n      dup1\n      swap2\n      sub\n      swap1\n      return\n        /* \"contracts/Defly/NFTStakingStart.sol\":4969:5140  function onERC721Received(address,address,uint256,bytes calldata) external pure override returns (bytes4) {... */\n    tag_24:\n        /* \"contracts/Defly/NFTStakingStart.sol\":5067:5073  bytes4 */\n      0x00\n        /* \"contracts/Defly/NFTStakingStart.sol\":5092:5133  IERC721Receiver.onERC721Received.selector */\n      shl(0xe0, 0x150b7a02)\n        /* \"contracts/Defly/NFTStakingStart.sol\":5085:5133  return IERC721Receiver.onERC721Received.selector */\n      swap1\n      pop\n        /* \"contracts/Defly/NFTStakingStart.sol\":4969:5140  function onERC721Received(address,address,uint256,bytes calldata) external pure override returns (bytes4) {... */\n      swap6\n      swap5\n      pop\n      pop\n      pop\n      pop\n      pop\n      jump\t// out\n        /* \"contracts/Defly/NFTStakingStart.sol\":528:561  Counters.Counter public category1 */\n    tag_28:\n      0x01\n      dup1\n      0x00\n      add\n      sload\n      swap1\n      pop\n      dup2\n      jump\t// out\n        /* \"contracts/Defly/NFTStakingStart.sol\":645:678  Counters.Counter public category4 */\n    tag_32:\n      0x04\n      dup1\n      0x00\n      add\n      sload\n      swap1\n      pop\n      dup2\n      jump\t// out\n        /* \"contracts/Defly/NFTStakingStart.sol\":751:784  uint256 public TotalRemaningToken */\n    tag_35:\n      sload(0x07)\n      dup2\n      jump\t// out\n        /* \"contracts/Defly/NFTStakingStart.sol\":3210:4525  function withdraw (address _to) public {... */\n    tag_40:\n        /* \"contracts/Defly/NFTStakingStart.sol\":3268:3274  Staker */\n      0x08\n        /* \"contracts/Defly/NFTStakingStart.sol\":3268:3279  Staker[_to] */\n      0x00\n        /* \"contracts/Defly/NFTStakingStart.sol\":3275:3278  _to */\n      dup3\n        /* \"contracts/Defly/NFTStakingStart.sol\":3268:3279  Staker[_to] */\n      0xffffffffffffffffffffffffffffffffffffffff\n      and\n      0xffffffffffffffffffffffffffffffffffffffff\n      and\n      dup2\n      mstore\n      0x20\n      add\n      swap1\n      dup2\n      mstore\n      0x20\n      add\n      0x00\n      keccak256\n        /* \"contracts/Defly/NFTStakingStart.sol\":3268:3292  Staker[_to].DepositToken */\n      0x04\n      add\n      0x00\n      swap1\n      sload\n      swap1\n      0x0100\n      exp\n      swap1\n      div\n      0xff\n      and\n        /* \"contracts/Defly/NFTStakingStart.sol\":3259:3324  require (Staker[_to].DepositToken,\"Please First Deposit NFT !!!\") */\n      tag_77\n      jumpi\n      mload(0x40)\n      0x08c379a000000000000000000000000000000000000000000000000000000000\n      dup2\n      mstore\n      0x04\n      add\n      tag_78\n      swap1\n      tag_79\n      jump\t// in\n    tag_78:\n      mload(0x40)\n      dup1\n      swap2\n      sub\n      swap1\n      revert\n    tag_77:\n        /* \"contracts/Defly/NFTStakingStart.sol\":3334:3343  uint Time */\n      0x00\n        /* \"contracts/Defly/NFTStakingStart.sol\":3390:3398  24*60*60 */\n      0x015180\n        /* \"contracts/Defly/NFTStakingStart.sol\":3366:3372  Staker */\n      0x08\n        /* \"contracts/Defly/NFTStakingStart.sol\":3366:3377  Staker[_to] */\n      0x00\n        /* \"contracts/Defly/NFTStakingStart.sol\":3373:3376  _to */\n      dup5\n        /* \"contracts/Defly/NFTStakingStart.sol\":3366:3377  Staker[_to] */\n      0xffffffffffffffffffffffffffffffffffffffff\n      and\n      0xffffffffffffffffffffffffffffffffffffffff\n      and\n      dup2\n      mstore\n      0x20\n      add\n      swap1\n      dup2\n      mstore\n      0x20\n      add\n      0x00\n      keccak256\n        /* \"contracts/Defly/NFTStakingStart.sol\":3366:3387  Staker[_to].StartTime */\n      0x02\n      add\n      sload\n        /* \"contracts/Defly/NFTStakingStart.sol\":3348:3363  block.timestamp */\n      timestamp\n        /* \"contracts/Defly/NFTStakingStart.sol\":3348:3387  block.timestamp - Staker[_to].StartTime */\n      tag_80\n      swap2\n      swap1\n      tag_81\n      jump\t// in\n    tag_80:\n        /* \"contracts/Defly/NFTStakingStart.sol\":3347:3399  (block.timestamp - Staker[_to].StartTime)/(24*60*60) */\n      tag_82\n      swap2\n      swap1\n      tag_83\n      jump\t// in\n    tag_82:\n        /* \"contracts/Defly/NFTStakingStart.sol\":3334:3400  uint Time = ((block.timestamp - Staker[_to].StartTime)/(24*60*60)) */\n      swap1\n      pop\n        /* \"contracts/Defly/NFTStakingStart.sol\":3420:3426  Staker */\n      0x08\n        /* \"contracts/Defly/NFTStakingStart.sol\":3420:3431  Staker[_to] */\n      0x00\n        /* \"contracts/Defly/NFTStakingStart.sol\":3427:3430  _to */\n      dup4\n        /* \"contracts/Defly/NFTStakingStart.sol\":3420:3431  Staker[_to] */\n      0xffffffffffffffffffffffffffffffffffffffff\n      and\n      0xffffffffffffffffffffffffffffffffffffffff\n      and\n      dup2\n      mstore\n      0x20\n      add\n      swap1\n      dup2\n      mstore\n      0x20\n      add\n      0x00\n      keccak256\n        /* \"contracts/Defly/NFTStakingStart.sol\":3420:3435  Staker[_to].day */\n      0x01\n      add\n      sload\n        /* \"contracts/Defly/NFTStakingStart.sol\":3413:3417  Time */\n      dup2\n        /* \"contracts/Defly/NFTStakingStart.sol\":3413:3435  Time < Staker[_to].day */\n      lt\n        /* \"contracts/Defly/NFTStakingStart.sol\":3410:4172  if(Time < Staker[_to].day){... */\n      iszero\n      tag_84\n      jumpi\n        /* \"contracts/Defly/NFTStakingStart.sol\":3450:3464  uint TokenDays */\n      0x00\n        /* \"contracts/Defly/NFTStakingStart.sol\":3492:3498  Staker */\n      0x08\n        /* \"contracts/Defly/NFTStakingStart.sol\":3492:3503  Staker[_to] */\n      0x00\n        /* \"contracts/Defly/NFTStakingStart.sol\":3499:3502  _to */\n      dup5\n        /* \"contracts/Defly/NFTStakingStart.sol\":3492:3503  Staker[_to] */\n      0xffffffffffffffffffffffffffffffffffffffff\n      and\n      0xffffffffffffffffffffffffffffffffffffffff\n      and\n      dup2\n      mstore\n      0x20\n      add\n      swap1\n      dup2\n      mstore\n      0x20\n      add\n      0x00\n      keccak256\n        /* \"contracts/Defly/NFTStakingStart.sol\":3492:3507  Staker[_to].day */\n      0x01\n      add\n      sload\n        /* \"contracts/Defly/NFTStakingStart.sol\":3473:3479  Staker */\n      0x08\n        /* \"contracts/Defly/NFTStakingStart.sol\":3473:3484  Staker[_to] */\n      0x00\n        /* \"contracts/Defly/NFTStakingStart.sol\":3480:3483  _to */\n      dup6\n        /* \"contracts/Defly/NFTStakingStart.sol\":3473:3484  Staker[_to] */\n      0xffffffffffffffffffffffffffffffffffffffff\n      and\n      0xffffffffffffffffffffffffffffffffffffffff\n      and\n      dup2\n      mstore\n      0x20\n      add\n      swap1\n      dup2\n      mstore\n      0x20\n      add\n      0x00\n      keccak256\n        /* \"contracts/Defly/NFTStakingStart.sol\":3473:3491  Staker[_to].tokens */\n      0x00\n      add\n      sload\n        /* \"contracts/Defly/NFTStakingStart.sol\":3473:3507  Staker[_to].tokens/Staker[_to].day */\n      tag_85\n      swap2\n      swap1\n      tag_83\n      jump\t// in\n    tag_85:\n        /* \"contracts/Defly/NFTStakingStart.sol\":3467:3471  Time */\n      dup3\n        /* \"contracts/Defly/NFTStakingStart.sol\":3467:3508  Time*(Staker[_to].tokens/Staker[_to].day) */\n      tag_86\n      swap2\n      swap1\n      tag_87\n      jump\t// in\n    tag_86:\n        /* \"contracts/Defly/NFTStakingStart.sol\":3450:3508  uint TokenDays = Time*(Staker[_to].tokens/Staker[_to].day) */\n      swap1\n      pop\n        /* \"contracts/Defly/NFTStakingStart.sol\":3522:3531  uint fine */\n      0x00\n        /* \"contracts/Defly/NFTStakingStart.sol\":3548:3551  100 */\n      0x64\n        /* \"contracts/Defly/NFTStakingStart.sol\":3537:3546  TokenDays */\n      dup3\n        /* \"contracts/Defly/NFTStakingStart.sol\":3535:3536  2 */\n      0x02\n        /* \"contracts/Defly/NFTStakingStart.sol\":3535:3546  2*TokenDays */\n      tag_88\n      swap2\n      swap1\n      tag_87\n      jump\t// in\n    tag_88:\n        /* \"contracts/Defly/NFTStakingStart.sol\":3534:3551  (2*TokenDays)/100 */\n      tag_89\n      swap2\n      swap1\n      tag_83\n      jump\t// in\n    tag_89:\n        /* \"contracts/Defly/NFTStakingStart.sol\":3522:3551  uint fine = (2*TokenDays)/100 */\n      swap1\n      pop\n        /* \"contracts/Defly/NFTStakingStart.sol\":3565:3621  IERC20(ERC20Address).safeTransfer(_to, TokenDays - fine) */\n      tag_90\n        /* \"contracts/Defly/NFTStakingStart.sol\":3599:3602  _to */\n      dup5\n        /* \"contracts/Defly/NFTStakingStart.sol\":3616:3620  fine */\n      dup3\n        /* \"contracts/Defly/NFTStakingStart.sol\":3604:3613  TokenDays */\n      dup5\n        /* \"contracts/Defly/NFTStakingStart.sol\":3604:3620  TokenDays - fine */\n      tag_91\n      swap2\n      swap1\n      tag_81\n      jump\t// in\n    tag_91:\n        /* \"contracts/Defly/NFTStakingStart.sol\":3572:3584  ERC20Address */\n      0x06\n      0x00\n      swap1\n      sload\n      swap1\n      0x0100\n      exp\n      swap1\n      div\n      0xffffffffffffffffffffffffffffffffffffffff\n      and\n        /* \"contracts/Defly/NFTStakingStart.sol\":3565:3598  IERC20(ERC20Address).safeTransfer */\n      0xffffffffffffffffffffffffffffffffffffffff\n      and\n      tag_92\n      swap1\n        /* \"contracts/Defly/NFTStakingStart.sol\":3565:3621  IERC20(ERC20Address).safeTransfer(_to, TokenDays - fine) */\n      swap3\n      swap2\n      swap1\n      0xffffffff\n      and\n      jump\t// in\n    tag_90:\n        /* \"contracts/Defly/NFTStakingStart.sol\":3635:3718  IERC20(ERC20Address).safeTransfer(0x000000000000000000000000000000000000dEaD, fine) */\n      tag_93\n        /* \"contracts/Defly/NFTStakingStart.sol\":3669:3711  0x000000000000000000000000000000000000dEaD */\n      0xdead\n        /* \"contracts/Defly/NFTStakingStart.sol\":3713:3717  fine */\n      dup3\n        /* \"contracts/Defly/NFTStakingStart.sol\":3642:3654  ERC20Address */\n      0x06\n      0x00\n      swap1\n      sload\n      swap1\n      0x0100\n      exp\n      swap1\n      div\n      0xffffffffffffffffffffffffffffffffffffffff\n      and\n        /* \"contracts/Defly/NFTStakingStart.sol\":3635:3668  IERC20(ERC20Address).safeTransfer */\n      0xffffffffffffffffffffffffffffffffffffffff\n      and\n      tag_92\n      swap1\n        /* \"contracts/Defly/NFTStakingStart.sol\":3635:3718  IERC20(ERC20Address).safeTransfer(0x000000000000000000000000000000000000dEaD, fine) */\n      swap3\n      swap2\n      swap1\n      0xffffffff\n      and\n      jump\t// in\n    tag_93:\n        /* \"contracts/Defly/NFTStakingStart.sol\":3740:3753  ERC721address */\n      0x05\n      0x00\n      swap1\n      sload\n      swap1\n      0x0100\n      exp\n      swap1\n      div\n      0xffffffffffffffffffffffffffffffffffffffff\n      and\n        /* \"contracts/Defly/NFTStakingStart.sol\":3732:3771  IERC721(ERC721address).safeTransferFrom */\n      0xffffffffffffffffffffffffffffffffffffffff\n      and\n      0xb88d4fde\n        /* \"contracts/Defly/NFTStakingStart.sol\":3780:3784  this */\n      address\n        /* \"contracts/Defly/NFTStakingStart.sol\":3787:3790  _to */\n      dup7\n        /* \"contracts/Defly/NFTStakingStart.sol\":3791:3797  Staker */\n      0x08\n        /* \"contracts/Defly/NFTStakingStart.sol\":3791:3802  Staker[_to] */\n      0x00\n        /* \"contracts/Defly/NFTStakingStart.sol\":3798:3801  _to */\n      dup10\n        /* \"contracts/Defly/NFTStakingStart.sol\":3791:3802  Staker[_to] */\n      0xffffffffffffffffffffffffffffffffffffffff\n      and\n      0xffffffffffffffffffffffffffffffffffffffff\n      and\n      dup2\n      mstore\n      0x20\n      add\n      swap1\n      dup2\n      mstore\n      0x20\n      add\n      0x00\n      keccak256\n        /* \"contracts/Defly/NFTStakingStart.sol\":3791:3806  Staker[_to].NFT */\n      0x03\n      add\n      sload\n        /* \"contracts/Defly/NFTStakingStart.sol\":3732:3810  IERC721(ERC721address).safeTransferFrom(address(this), _to,Staker[_to].NFT,\"\") */\n      mload(0x40)\n      dup5\n      0xffffffff\n      and\n      0xe0\n      shl\n      dup2\n      mstore\n      0x04\n      add\n      tag_94\n      swap4\n      swap3\n      swap2\n      swap1\n      tag_95\n      jump\t// in\n    tag_94:\n      0x00\n      mload(0x40)\n      dup1\n      dup4\n      sub\n      dup2\n      0x00\n      dup8\n      dup1\n      extcodesize\n      iszero\n      dup1\n      iszero\n      tag_96\n      jumpi\n      0x00\n      dup1\n      revert\n    tag_96:\n      pop\n      gas\n      call\n      iszero\n      dup1\n      iszero\n      tag_98\n      jumpi\n      returndatasize\n      0x00\n      dup1\n      returndatacopy\n      revert(0x00, returndatasize)\n    tag_98:\n      pop\n      pop\n      pop\n      pop\n        /* \"contracts/Defly/NFTStakingStart.sol\":3846:3855  TokenDays */\n      dup2\n        /* \"contracts/Defly/NFTStakingStart.sol\":3824:3842  TotalRemaningToken */\n      0x07\n      0x00\n        /* \"contracts/Defly/NFTStakingStart.sol\":3824:3855  TotalRemaningToken -= TokenDays */\n      dup3\n      dup3\n      sload\n      tag_99\n      swap2\n      swap1\n      tag_81\n      jump\t// in\n    tag_99:\n      swap3\n      pop\n      pop\n      dup2\n      swap1\n      sstore\n      pop\n        /* \"contracts/Defly/NFTStakingStart.sol\":3876:3882  Staker */\n      0x08\n        /* \"contracts/Defly/NFTStakingStart.sol\":3876:3887  Staker[_to] */\n      0x00\n        /* \"contracts/Defly/NFTStakingStart.sol\":3883:3886  _to */\n      dup6\n        /* \"contracts/Defly/NFTStakingStart.sol\":3876:3887  Staker[_to] */\n      0xffffffffffffffffffffffffffffffffffffffff\n      and\n      0xffffffffffffffffffffffffffffffffffffffff\n      and\n      dup2\n      mstore\n      0x20\n      add\n      swap1\n      dup2\n      mstore\n      0x20\n      add\n      0x00\n      keccak256\n      0x00\n        /* \"contracts/Defly/NFTStakingStart.sol\":3869:3887  delete Staker[_to] */\n      dup1\n      dup3\n      add\n      0x00\n      swap1\n      sstore\n      0x01\n      dup3\n      add\n      0x00\n      swap1\n      sstore\n      0x02\n      dup3\n      add\n      0x00\n      swap1\n      sstore\n      0x03\n      dup3\n      add\n      0x00\n      swap1\n      sstore\n      0x04\n      dup3\n      add\n      exp(0x0100, 0x00)\n      dup2\n      sload\n      swap1\n      0xff\n      mul\n      not\n      and\n      swap1\n      sstore\n      pop\n      pop\n        /* \"contracts/Defly/NFTStakingStart.sol\":3436:3898  {... */\n      pop\n      pop\n        /* \"contracts/Defly/NFTStakingStart.sol\":3410:4172  if(Time < Staker[_to].day){... */\n      jump(tag_100)\n    tag_84:\n        /* \"contracts/Defly/NFTStakingStart.sol\":3925:3983  IERC20(ERC20Address).safeTransfer(_to, Staker[_to].tokens) */\n      tag_101\n        /* \"contracts/Defly/NFTStakingStart.sol\":3959:3962  _to */\n      dup3\n        /* \"contracts/Defly/NFTStakingStart.sol\":3964:3970  Staker */\n      0x08\n        /* \"contracts/Defly/NFTStakingStart.sol\":3964:3975  Staker[_to] */\n      0x00\n        /* \"contracts/Defly/NFTStakingStart.sol\":3971:3974  _to */\n      dup6\n        /* \"contracts/Defly/NFTStakingStart.sol\":3964:3975  Staker[_to] */\n      0xffffffffffffffffffffffffffffffffffffffff\n      and\n      0xffffffffffffffffffffffffffffffffffffffff\n      and\n      dup2\n      mstore\n      0x20\n      add\n      swap1\n      dup2\n      mstore\n      0x20\n      add\n      0x00\n      keccak256\n        /* \"contracts/Defly/NFTStakingStart.sol\":3964:3982  Staker[_to].tokens */\n      0x00\n      add\n      sload\n        /* \"contracts/Defly/NFTStakingStart.sol\":3932:3944  ERC20Address */\n      0x06\n      0x00\n      swap1\n      sload\n      swap1\n      0x0100\n      exp\n      swap1\n      div\n      0xffffffffffffffffffffffffffffffffffffffff\n      and\n        /* \"contracts/Defly/NFTStakingStart.sol\":3925:3958  IERC20(ERC20Address).safeTransfer */\n      0xffffffffffffffffffffffffffffffffffffffff\n      and\n      tag_92\n      swap1\n        /* \"contracts/Defly/NFTStakingStart.sol\":3925:3983  IERC20(ERC20Address).safeTransfer(_to, Staker[_to].tokens) */\n      swap3\n      swap2\n      swap1\n      0xffffffff\n      and\n      jump\t// in\n    tag_101:\n        /* \"contracts/Defly/NFTStakingStart.sol\":4005:4018  ERC721address */\n      0x05\n      0x00\n      swap1\n      sload\n      swap1\n      0x0100\n      exp\n      swap1\n      div\n      0xffffffffffffffffffffffffffffffffffffffff\n      and\n        /* \"contracts/Defly/NFTStakingStart.sol\":3997:4036  IERC721(ERC721address).safeTransferFrom */\n      0xffffffffffffffffffffffffffffffffffffffff\n      and\n      0xb88d4fde\n        /* \"contracts/Defly/NFTStakingStart.sol\":4045:4049  this */\n      address\n        /* \"contracts/Defly/NFTStakingStart.sol\":4052:4055  _to */\n      dup5\n        /* \"contracts/Defly/NFTStakingStart.sol\":4056:4062  Staker */\n      0x08\n        /* \"contracts/Defly/NFTStakingStart.sol\":4056:4067  Staker[_to] */\n      0x00\n        /* \"contracts/Defly/NFTStakingStart.sol\":4063:4066  _to */\n      dup8\n        /* \"contracts/Defly/NFTStakingStart.sol\":4056:4067  Staker[_to] */\n      0xffffffffffffffffffffffffffffffffffffffff\n      and\n      0xffffffffffffffffffffffffffffffffffffffff\n      and\n      dup2\n      mstore\n      0x20\n      add\n      swap1\n      dup2\n      mstore\n      0x20\n      add\n      0x00\n      keccak256\n        /* \"contracts/Defly/NFTStakingStart.sol\":4056:4071  Staker[_to].NFT */\n      0x03\n      add\n      sload\n        /* \"contracts/Defly/NFTStakingStart.sol\":3997:4075  IERC721(ERC721address).safeTransferFrom(address(this), _to,Staker[_to].NFT,\"\") */\n      mload(0x40)\n      dup5\n      0xffffffff\n      and\n      0xe0\n      shl\n      dup2\n      mstore\n      0x04\n      add\n      tag_102\n      swap4\n      swap3\n      swap2\n      swap1\n      tag_95\n      jump\t// in\n    tag_102:\n      0x00\n      mload(0x40)\n      dup1\n      dup4\n      sub\n      dup2\n      0x00\n      dup8\n      dup1\n      extcodesize\n      iszero\n      dup1\n      iszero\n      tag_103\n      jumpi\n      0x00\n      dup1\n      revert\n    tag_103:\n      pop\n      gas\n      call\n      iszero\n      dup1\n      iszero\n      tag_105\n      jumpi\n      returndatasize\n      0x00\n      dup1\n      returndatacopy\n      revert(0x00, returndatasize)\n    tag_105:\n      pop\n      pop\n      pop\n      pop\n        /* \"contracts/Defly/NFTStakingStart.sol\":4111:4117  Staker */\n      0x08\n        /* \"contracts/Defly/NFTStakingStart.sol\":4111:4122  Staker[_to] */\n      0x00\n        /* \"contracts/Defly/NFTStakingStart.sol\":4118:4121  _to */\n      dup4\n        /* \"contracts/Defly/NFTStakingStart.sol\":4111:4122  Staker[_to] */\n      0xffffffffffffffffffffffffffffffffffffffff\n      and\n      0xffffffffffffffffffffffffffffffffffffffff\n      and\n      dup2\n      mstore\n      0x20\n      add\n      swap1\n      dup2\n      mstore\n      0x20\n      add\n      0x00\n      keccak256\n        /* \"contracts/Defly/NFTStakingStart.sol\":4111:4129  Staker[_to].tokens */\n      0x00\n      add\n      sload\n        /* \"contracts/Defly/NFTStakingStart.sol\":4089:4107  TotalRemaningToken */\n      0x07\n      0x00\n        /* \"contracts/Defly/NFTStakingStart.sol\":4089:4129  TotalRemaningToken -= Staker[_to].tokens */\n      dup3\n      dup3\n      sload\n      tag_106\n      swap2\n      swap1\n      tag_81\n      jump\t// in\n    tag_106:\n      swap3\n      pop\n      pop\n      dup2\n      swap1\n      sstore\n      pop\n        /* \"contracts/Defly/NFTStakingStart.sol\":4150:4156  Staker */\n      0x08\n        /* \"contracts/Defly/NFTStakingStart.sol\":4150:4161  Staker[_to] */\n      0x00\n        /* \"contracts/Defly/NFTStakingStart.sol\":4157:4160  _to */\n      dup4\n        /* \"contracts/Defly/NFTStakingStart.sol\":4150:4161  Staker[_to] */\n      0xffffffffffffffffffffffffffffffffffffffff\n      and\n      0xffffffffffffffffffffffffffffffffffffffff\n      and\n      dup2\n      mstore\n      0x20\n      add\n      swap1\n      dup2\n      mstore\n      0x20\n      add\n      0x00\n      keccak256\n      0x00\n        /* \"contracts/Defly/NFTStakingStart.sol\":4143:4161  delete Staker[_to] */\n      dup1\n      dup3\n      add\n      0x00\n      swap1\n      sstore\n      0x01\n      dup3\n      add\n      0x00\n      swap1\n      sstore\n      0x02\n      dup3\n      add\n      0x00\n      swap1\n      sstore\n      0x03\n      dup3\n      add\n      0x00\n      swap1\n      sstore\n      0x04\n      dup3\n      add\n      exp(0x0100, 0x00)\n      dup2\n      sload\n      swap1\n      0xff\n      mul\n      not\n      and\n      swap1\n      sstore\n      pop\n      pop\n        /* \"contracts/Defly/NFTStakingStart.sol\":3410:4172  if(Time < Staker[_to].day){... */\n    tag_100:\n        /* \"contracts/Defly/NFTStakingStart.sol\":4204:4206  15 */\n      0x0f\n        /* \"contracts/Defly/NFTStakingStart.sol\":4185:4191  Staker */\n      0x08\n        /* \"contracts/Defly/NFTStakingStart.sol\":4185:4196  Staker[_to] */\n      0x00\n        /* \"contracts/Defly/NFTStakingStart.sol\":4192:4195  _to */\n      dup5\n        /* \"contracts/Defly/NFTStakingStart.sol\":4185:4196  Staker[_to] */\n      0xffffffffffffffffffffffffffffffffffffffff\n      and\n      0xffffffffffffffffffffffffffffffffffffffff\n      and\n      dup2\n      mstore\n      0x20\n      add\n      swap1\n      dup2\n      mstore\n      0x20\n      add\n      0x00\n      keccak256\n        /* \"contracts/Defly/NFTStakingStart.sol\":4185:4200  Staker[_to].day */\n      0x01\n      add\n      sload\n        /* \"contracts/Defly/NFTStakingStart.sol\":4185:4206  Staker[_to].day == 15 */\n      sub\n        /* \"contracts/Defly/NFTStakingStart.sol\":4182:4517  if(Staker[_to].day == 15){... */\n      tag_107\n      jumpi\n        /* \"contracts/Defly/NFTStakingStart.sol\":4221:4242  category1.decrement() */\n      tag_108\n        /* \"contracts/Defly/NFTStakingStart.sol\":4221:4230  category1 */\n      0x01\n        /* \"contracts/Defly/NFTStakingStart.sol\":4221:4240  category1.decrement */\n      tag_109\n        /* \"contracts/Defly/NFTStakingStart.sol\":4221:4242  category1.decrement() */\n      jump\t// in\n    tag_108:\n        /* \"contracts/Defly/NFTStakingStart.sol\":4182:4517  if(Staker[_to].day == 15){... */\n      jump(tag_110)\n    tag_107:\n        /* \"contracts/Defly/NFTStakingStart.sol\":4289:4291  30 */\n      0x1e\n        /* \"contracts/Defly/NFTStakingStart.sol\":4270:4276  Staker */\n      0x08\n        /* \"contracts/Defly/NFTStakingStart.sol\":4270:4281  Staker[_to] */\n      0x00\n        /* \"contracts/Defly/NFTStakingStart.sol\":4277:4280  _to */\n      dup5\n        /* \"contracts/Defly/NFTStakingStart.sol\":4270:4281  Staker[_to] */\n      0xffffffffffffffffffffffffffffffffffffffff\n      and\n      0xffffffffffffffffffffffffffffffffffffffff\n      and\n      dup2\n      mstore\n      0x20\n      add\n      swap1\n      dup2\n      mstore\n      0x20\n      add\n      0x00\n      keccak256\n        /* \"contracts/Defly/NFTStakingStart.sol\":4270:4285  Staker[_to].day */\n      0x01\n      add\n      sload\n        /* \"contracts/Defly/NFTStakingStart.sol\":4270:4291  Staker[_to].day == 30 */\n      sub\n        /* \"contracts/Defly/NFTStakingStart.sol\":4267:4517  if(Staker[_to].day == 30){... */\n      tag_111\n      jumpi\n        /* \"contracts/Defly/NFTStakingStart.sol\":4306:4327  category2.decrement() */\n      tag_112\n        /* \"contracts/Defly/NFTStakingStart.sol\":4306:4315  category2 */\n      0x02\n        /* \"contracts/Defly/NFTStakingStart.sol\":4306:4325  category2.decrement */\n      tag_109\n        /* \"contracts/Defly/NFTStakingStart.sol\":4306:4327  category2.decrement() */\n      jump\t// in\n    tag_112:\n        /* \"contracts/Defly/NFTStakingStart.sol\":4267:4517  if(Staker[_to].day == 30){... */\n      jump(tag_113)\n    tag_111:\n        /* \"contracts/Defly/NFTStakingStart.sol\":4377:4379  60 */\n      0x3c\n        /* \"contracts/Defly/NFTStakingStart.sol\":4358:4364  Staker */\n      0x08\n        /* \"contracts/Defly/NFTStakingStart.sol\":4358:4369  Staker[_to] */\n      0x00\n        /* \"contracts/Defly/NFTStakingStart.sol\":4365:4368  _to */\n      dup5\n        /* \"contracts/Defly/NFTStakingStart.sol\":4358:4369  Staker[_to] */\n      0xffffffffffffffffffffffffffffffffffffffff\n      and\n      0xffffffffffffffffffffffffffffffffffffffff\n      and\n      dup2\n      mstore\n      0x20\n      add\n      swap1\n      dup2\n      mstore\n      0x20\n      add\n      0x00\n      keccak256\n        /* \"contracts/Defly/NFTStakingStart.sol\":4358:4373  Staker[_to].day */\n      0x01\n      add\n      sload\n        /* \"contracts/Defly/NFTStakingStart.sol\":4358:4379  Staker[_to].day == 60 */\n      sub\n        /* \"contracts/Defly/NFTStakingStart.sol\":4355:4517  if(Staker[_to].day == 60){... */\n      tag_114\n      jumpi\n        /* \"contracts/Defly/NFTStakingStart.sol\":4394:4415  category3.decrement() */\n      tag_115\n        /* \"contracts/Defly/NFTStakingStart.sol\":4394:4403  category3 */\n      0x03\n        /* \"contracts/Defly/NFTStakingStart.sol\":4394:4413  category3.decrement */\n      tag_109\n        /* \"contracts/Defly/NFTStakingStart.sol\":4394:4415  category3.decrement() */\n      jump\t// in\n    tag_115:\n        /* \"contracts/Defly/NFTStakingStart.sol\":4355:4517  if(Staker[_to].day == 60){... */\n      jump(tag_116)\n    tag_114:\n        /* \"contracts/Defly/NFTStakingStart.sol\":4465:4467  90 */\n      0x5a\n        /* \"contracts/Defly/NFTStakingStart.sol\":4446:4452  Staker */\n      0x08\n        /* \"contracts/Defly/NFTStakingStart.sol\":4446:4457  Staker[_to] */\n      0x00\n        /* \"contracts/Defly/NFTStakingStart.sol\":4453:4456  _to */\n      dup5\n        /* \"contracts/Defly/NFTStakingStart.sol\":4446:4457  Staker[_to] */\n      0xffffffffffffffffffffffffffffffffffffffff\n      and\n      0xffffffffffffffffffffffffffffffffffffffff\n      and\n      dup2\n      mstore\n      0x20\n      add\n      swap1\n      dup2\n      mstore\n      0x20\n      add\n      0x00\n      keccak256\n        /* \"contracts/Defly/NFTStakingStart.sol\":4446:4461  Staker[_to].day */\n      0x01\n      add\n      sload\n        /* \"contracts/Defly/NFTStakingStart.sol\":4446:4467  Staker[_to].day == 90 */\n      sub\n        /* \"contracts/Defly/NFTStakingStart.sol\":4443:4517  if(Staker[_to].day == 90){... */\n      tag_117\n      jumpi\n        /* \"contracts/Defly/NFTStakingStart.sol\":4482:4503  category4.decrement() */\n      tag_118\n        /* \"contracts/Defly/NFTStakingStart.sol\":4482:4491  category4 */\n      0x04\n        /* \"contracts/Defly/NFTStakingStart.sol\":4482:4501  category4.decrement */\n      tag_109\n        /* \"contracts/Defly/NFTStakingStart.sol\":4482:4503  category4.decrement() */\n      jump\t// in\n    tag_118:\n        /* \"contracts/Defly/NFTStakingStart.sol\":4443:4517  if(Staker[_to].day == 90){... */\n    tag_117:\n        /* \"contracts/Defly/NFTStakingStart.sol\":4355:4517  if(Staker[_to].day == 60){... */\n    tag_116:\n        /* \"contracts/Defly/NFTStakingStart.sol\":4267:4517  if(Staker[_to].day == 30){... */\n    tag_113:\n        /* \"contracts/Defly/NFTStakingStart.sol\":4182:4517  if(Staker[_to].day == 15){... */\n    tag_110:\n        /* \"contracts/Defly/NFTStakingStart.sol\":3249:4525  {... */\n      pop\n        /* \"contracts/Defly/NFTStakingStart.sol\":3210:4525  function withdraw (address _to) public {... */\n      pop\n      jump\t// out\n        /* \"@openzeppelin/contracts/access/Ownable.sol\":1831:1932  function renounceOwnership() public virtual onlyOwner {... */\n    tag_42:\n        /* \"@openzeppelin/contracts/access/Ownable.sol\":1094:1107  _checkOwner() */\n      tag_120\n        /* \"@openzeppelin/contracts/access/Ownable.sol\":1094:1105  _checkOwner */\n      tag_121\n        /* \"@openzeppelin/contracts/access/Ownable.sol\":1094:1107  _checkOwner() */\n      jump\t// in\n    tag_120:\n        /* \"@openzeppelin/contracts/access/Ownable.sol\":1895:1925  _transferOwnership(address(0)) */\n      tag_123\n        /* \"@openzeppelin/contracts/access/Ownable.sol\":1922:1923  0 */\n      0x00\n        /* \"@openzeppelin/contracts/access/Ownable.sol\":1895:1913  _transferOwnership */\n      tag_124\n        /* \"@openzeppelin/contracts/access/Ownable.sol\":1895:1925  _transferOwnership(address(0)) */\n      jump\t// in\n    tag_123:\n        /* \"@openzeppelin/contracts/access/Ownable.sol\":1831:1932  function renounceOwnership() public virtual onlyOwner {... */\n      jump\t// out\n        /* \"@openzeppelin/contracts/access/Ownable.sol\":1201:1286  function owner() public view virtual returns (address) {... */\n    tag_44:\n        /* \"@openzeppelin/contracts/access/Ownable.sol\":1247:1254  address */\n      0x00\n        /* \"@openzeppelin/contracts/access/Ownable.sol\":1273:1279  _owner */\n      dup1\n      0x00\n      swap1\n      sload\n      swap1\n      0x0100\n      exp\n      swap1\n      div\n      0xffffffffffffffffffffffffffffffffffffffff\n      and\n        /* \"@openzeppelin/contracts/access/Ownable.sol\":1266:1279  return _owner */\n      swap1\n      pop\n        /* \"@openzeppelin/contracts/access/Ownable.sol\":1201:1286  function owner() public view virtual returns (address) {... */\n      swap1\n      jump\t// out\n        /* \"contracts/Defly/NFTStakingStart.sol\":718:745  address public ERC20Address */\n    tag_48:\n      0x06\n      0x00\n      swap1\n      sload\n      swap1\n      0x0100\n      exp\n      swap1\n      div\n      0xffffffffffffffffffffffffffffffffffffffff\n      and\n      dup2\n      jump\t// out\n        /* \"contracts/Defly/NFTStakingStart.sol\":567:600  Counters.Counter public category2 */\n    tag_51:\n      0x02\n      dup1\n      0x00\n      add\n      sload\n      swap1\n      pop\n      dup2\n      jump\t// out\n        /* \"contracts/Defly/NFTStakingStart.sol\":923:964  mapping (address => Detail) public Staker */\n    tag_55:\n      mstore(0x20, 0x08)\n      dup1\n      0x00\n      mstore\n      keccak256(0x00, 0x40)\n      0x00\n      swap2\n      pop\n      swap1\n      pop\n      dup1\n      0x00\n      add\n      sload\n      swap1\n      dup1\n      0x01\n      add\n      sload\n      swap1\n      dup1\n      0x02\n      add\n      sload\n      swap1\n      dup1\n      0x03\n      add\n      sload\n      swap1\n      dup1\n      0x04\n      add\n      0x00\n      swap1\n      sload\n      swap1\n      0x0100\n      exp\n      swap1\n      div\n      0xff\n      and\n      swap1\n      pop\n      dup6\n      jump\t// out\n        /* \"contracts/Defly/NFTStakingStart.sol\":684:712  address public ERC721address */\n    tag_59:\n      0x05\n      0x00\n      swap1\n      sload\n      swap1\n      0x0100\n      exp\n      swap1\n      div\n      0xffffffffffffffffffffffffffffffffffffffff\n      and\n      dup2\n      jump\t// out\n        /* \"contracts/Defly/NFTStakingStart.sol\":4782:4964  function AdminAddToken(uint _amount) public onlyOwner{... */\n    tag_64:\n        /* \"@openzeppelin/contracts/access/Ownable.sol\":1094:1107  _checkOwner() */\n      tag_127\n        /* \"@openzeppelin/contracts/access/Ownable.sol\":1094:1105  _checkOwner */\n      tag_121\n        /* \"@openzeppelin/contracts/access/Ownable.sol\":1094:1107  _checkOwner() */\n      jump\t// in\n    tag_127:\n        /* \"contracts/Defly/NFTStakingStart.sol\":4867:4874  _amount */\n      dup1\n        /* \"contracts/Defly/NFTStakingStart.sol\":4845:4863  TotalRemaningToken */\n      0x07\n      0x00\n        /* \"contracts/Defly/NFTStakingStart.sol\":4845:4874  TotalRemaningToken += _amount */\n      dup3\n      dup3\n      sload\n      tag_129\n      swap2\n      swap1\n      tag_130\n      jump\t// in\n    tag_129:\n      swap3\n      pop\n      pop\n      dup2\n      swap1\n      sstore\n      pop\n        /* \"contracts/Defly/NFTStakingStart.sol\":4884:4957  IERC20(ERC20Address).safeTransferFrom(msg.sender, address(this) ,_amount) */\n      tag_131\n        /* \"contracts/Defly/NFTStakingStart.sol\":4922:4932  msg.sender */\n      caller\n        /* \"contracts/Defly/NFTStakingStart.sol\":4942:4946  this */\n      address\n        /* \"contracts/Defly/NFTStakingStart.sol\":4949:4956  _amount */\n      dup4\n        /* \"contracts/Defly/NFTStakingStart.sol\":4891:4903  ERC20Address */\n      0x06\n      0x00\n      swap1\n      sload\n      swap1\n      0x0100\n      exp\n      swap1\n      div\n      0xffffffffffffffffffffffffffffffffffffffff\n      and\n        /* \"contracts/Defly/NFTStakingStart.sol\":4884:4921  IERC20(ERC20Address).safeTransferFrom */\n      0xffffffffffffffffffffffffffffffffffffffff\n      and\n      tag_132\n      swap1\n        /* \"contracts/Defly/NFTStakingStart.sol\":4884:4957  IERC20(ERC20Address).safeTransferFrom(msg.sender, address(this) ,_amount) */\n      swap4\n      swap3\n      swap2\n      swap1\n      0xffffffff\n      and\n      jump\t// in\n    tag_131:\n        /* \"contracts/Defly/NFTStakingStart.sol\":4782:4964  function AdminAddToken(uint _amount) public onlyOwner{... */\n      pop\n      jump\t// out\n        /* \"contracts/Defly/NFTStakingStart.sol\":1516:3023  function deposit(uint TokenId,uint Days) public {... */\n    tag_68:\n        /* \"contracts/Defly/NFTStakingStart.sol\":1584:1590  Staker */\n      0x08\n        /* \"contracts/Defly/NFTStakingStart.sol\":1584:1602  Staker[msg.sender] */\n      0x00\n        /* \"contracts/Defly/NFTStakingStart.sol\":1591:1601  msg.sender */\n      caller\n        /* \"contracts/Defly/NFTStakingStart.sol\":1584:1602  Staker[msg.sender] */\n      0xffffffffffffffffffffffffffffffffffffffff\n      and\n      0xffffffffffffffffffffffffffffffffffffffff\n      and\n      dup2\n      mstore\n      0x20\n      add\n      swap1\n      dup2\n      mstore\n      0x20\n      add\n      0x00\n      keccak256\n        /* \"contracts/Defly/NFTStakingStart.sol\":1584:1615  Staker[msg.sender].DepositToken */\n      0x04\n      add\n      0x00\n      swap1\n      sload\n      swap1\n      0x0100\n      exp\n      swap1\n      div\n      0xff\n      and\n        /* \"contracts/Defly/NFTStakingStart.sol\":1583:1615  !Staker[msg.sender].DepositToken */\n      iszero\n        /* \"contracts/Defly/NFTStakingStart.sol\":1574:1642  require (!Staker[msg.sender].DepositToken,\"You Already Deposit NFT\") */\n      tag_134\n      jumpi\n      mload(0x40)\n      0x08c379a000000000000000000000000000000000000000000000000000000000\n      dup2\n      mstore\n      0x04\n      add\n      tag_135\n      swap1\n      tag_136\n      jump\t// in\n    tag_135:\n      mload(0x40)\n      dup1\n      swap2\n      sub\n      swap1\n      revert\n    tag_134:\n        /* \"contracts/Defly/NFTStakingStart.sol\":1663:1665  15 */\n      0x0f\n        /* \"contracts/Defly/NFTStakingStart.sol\":1655:1659  Days */\n      dup2\n        /* \"contracts/Defly/NFTStakingStart.sol\":1655:1665  Days == 15 */\n      sub\n        /* \"contracts/Defly/NFTStakingStart.sol\":1652:3013  if(Days == 15){... */\n      tag_137\n      jumpi\n        /* \"contracts/Defly/NFTStakingStart.sol\":1680:1701  category1.increment() */\n      tag_138\n        /* \"contracts/Defly/NFTStakingStart.sol\":1680:1689  category1 */\n      0x01\n        /* \"contracts/Defly/NFTStakingStart.sol\":1680:1699  category1.increment */\n      tag_139\n        /* \"contracts/Defly/NFTStakingStart.sol\":1680:1701  category1.increment() */\n      jump\t// in\n    tag_138:\n        /* \"contracts/Defly/NFTStakingStart.sol\":1745:1749  1000 */\n      0x03e8\n        /* \"contracts/Defly/NFTStakingStart.sol\":1723:1742  category1.current() */\n      tag_140\n        /* \"contracts/Defly/NFTStakingStart.sol\":1723:1732  category1 */\n      0x01\n        /* \"contracts/Defly/NFTStakingStart.sol\":1723:1740  category1.current */\n      tag_141\n        /* \"contracts/Defly/NFTStakingStart.sol\":1723:1742  category1.current() */\n      jump\t// in\n    tag_140:\n        /* \"contracts/Defly/NFTStakingStart.sol\":1723:1749  category1.current() <=1000 */\n      gt\n      iszero\n        /* \"contracts/Defly/NFTStakingStart.sol\":1715:1781  require(category1.current() <=1000,\"15 Days Category is Full !!!\") */\n      tag_142\n      jumpi\n      mload(0x40)\n      0x08c379a000000000000000000000000000000000000000000000000000000000\n      dup2\n      mstore\n      0x04\n      add\n      tag_143\n      swap1\n      tag_144\n      jump\t// in\n    tag_143:\n      mload(0x40)\n      dup1\n      swap2\n      sub\n      swap1\n      revert\n    tag_142:\n        /* \"contracts/Defly/NFTStakingStart.sol\":1816:1862  Detail(5000,Days,block.timestamp,TokenId,true) */\n      mload(0x40)\n      dup1\n      0xa0\n      add\n      0x40\n      mstore\n      dup1\n        /* \"contracts/Defly/NFTStakingStart.sol\":1823:1827  5000 */\n      0x1388\n        /* \"contracts/Defly/NFTStakingStart.sol\":1816:1862  Detail(5000,Days,block.timestamp,TokenId,true) */\n      dup2\n      mstore\n      0x20\n      add\n        /* \"contracts/Defly/NFTStakingStart.sol\":1828:1832  Days */\n      dup3\n        /* \"contracts/Defly/NFTStakingStart.sol\":1816:1862  Detail(5000,Days,block.timestamp,TokenId,true) */\n      dup2\n      mstore\n      0x20\n      add\n        /* \"contracts/Defly/NFTStakingStart.sol\":1833:1848  block.timestamp */\n      timestamp\n        /* \"contracts/Defly/NFTStakingStart.sol\":1816:1862  Detail(5000,Days,block.timestamp,TokenId,true) */\n      dup2\n      mstore\n      0x20\n      add\n        /* \"contracts/Defly/NFTStakingStart.sol\":1849:1856  TokenId */\n      dup4\n        /* \"contracts/Defly/NFTStakingStart.sol\":1816:1862  Detail(5000,Days,block.timestamp,TokenId,true) */\n      dup2\n      mstore\n      0x20\n      add\n        /* \"contracts/Defly/NFTStakingStart.sol\":1857:1861  true */\n      0x01\n        /* \"contracts/Defly/NFTStakingStart.sol\":1816:1862  Detail(5000,Days,block.timestamp,TokenId,true) */\n      iszero\n      iszero\n      dup2\n      mstore\n      pop\n        /* \"contracts/Defly/NFTStakingStart.sol\":1795:1801  Staker */\n      0x08\n        /* \"contracts/Defly/NFTStakingStart.sol\":1795:1813  Staker[msg.sender] */\n      0x00\n        /* \"contracts/Defly/NFTStakingStart.sol\":1802:1812  msg.sender */\n      caller\n        /* \"contracts/Defly/NFTStakingStart.sol\":1795:1813  Staker[msg.sender] */\n      0xffffffffffffffffffffffffffffffffffffffff\n      and\n      0xffffffffffffffffffffffffffffffffffffffff\n      and\n      dup2\n      mstore\n      0x20\n      add\n      swap1\n      dup2\n      mstore\n      0x20\n      add\n      0x00\n      keccak256\n        /* \"contracts/Defly/NFTStakingStart.sol\":1795:1862  Staker[msg.sender] = Detail(5000,Days,block.timestamp,TokenId,true) */\n      0x00\n      dup3\n      add\n      mload\n      dup2\n      0x00\n      add\n      sstore\n      0x20\n      dup3\n      add\n      mload\n      dup2\n      0x01\n      add\n      sstore\n      0x40\n      dup3\n      add\n      mload\n      dup2\n      0x02\n      add\n      sstore\n      0x60\n      dup3\n      add\n      mload\n      dup2\n      0x03\n      add\n      sstore\n      0x80\n      dup3\n      add\n      mload\n      dup2\n      0x04\n      add\n      exp(0x0100, 0x00)\n      dup2\n      sload\n      dup2\n      0xff\n      mul\n      not\n      and\n      swap1\n      dup4\n      iszero\n      iszero\n      mul\n      or\n      swap1\n      sstore\n      pop\n      swap1\n      pop\n      pop\n        /* \"contracts/Defly/NFTStakingStart.sol\":1884:1897  ERC721address */\n      0x05\n      0x00\n      swap1\n      sload\n      swap1\n      0x0100\n      exp\n      swap1\n      div\n      0xffffffffffffffffffffffffffffffffffffffff\n      and\n        /* \"contracts/Defly/NFTStakingStart.sol\":1876:1915  IERC721(ERC721address).safeTransferFrom */\n      0xffffffffffffffffffffffffffffffffffffffff\n      and\n      0xb88d4fde\n        /* \"contracts/Defly/NFTStakingStart.sol\":1916:1926  msg.sender */\n      caller\n        /* \"contracts/Defly/NFTStakingStart.sol\":1935:1939  this */\n      address\n        /* \"contracts/Defly/NFTStakingStart.sol\":1941:1948  TokenId */\n      dup6\n        /* \"contracts/Defly/NFTStakingStart.sol\":1876:1952  IERC721(ERC721address).safeTransferFrom(msg.sender,address(this),TokenId,\"\") */\n      mload(0x40)\n      dup5\n      0xffffffff\n      and\n      0xe0\n      shl\n      dup2\n      mstore\n      0x04\n      add\n      tag_145\n      swap4\n      swap3\n      swap2\n      swap1\n      tag_95\n      jump\t// in\n    tag_145:\n      0x00\n      mload(0x40)\n      dup1\n      dup4\n      sub\n      dup2\n      0x00\n      dup8\n      dup1\n      extcodesize\n      iszero\n      dup1\n      iszero\n      tag_146\n      jumpi\n      0x00\n      dup1\n      revert\n    tag_146:\n      pop\n      gas\n      call\n      iszero\n      dup1\n      iszero\n      tag_148\n      jumpi\n      returndatasize\n      0x00\n      dup1\n      returndatacopy\n      revert(0x00, returndatasize)\n    tag_148:\n      pop\n      pop\n      pop\n      pop\n        /* \"contracts/Defly/NFTStakingStart.sol\":1652:3013  if(Days == 15){... */\n      jump(tag_149)\n    tag_137:\n        /* \"contracts/Defly/NFTStakingStart.sol\":1988:1990  30 */\n      0x1e\n        /* \"contracts/Defly/NFTStakingStart.sol\":1980:1984  Days */\n      dup2\n        /* \"contracts/Defly/NFTStakingStart.sol\":1980:1990  Days == 30 */\n      sub\n        /* \"contracts/Defly/NFTStakingStart.sol\":1977:3013  if(Days == 30){... */\n      tag_150\n      jumpi\n        /* \"contracts/Defly/NFTStakingStart.sol\":2005:2026  category2.increment() */\n      tag_151\n        /* \"contracts/Defly/NFTStakingStart.sol\":2005:2014  category2 */\n      0x02\n        /* \"contracts/Defly/NFTStakingStart.sol\":2005:2024  category2.increment */\n      tag_139\n        /* \"contracts/Defly/NFTStakingStart.sol\":2005:2026  category2.increment() */\n      jump\t// in\n    tag_151:\n        /* \"contracts/Defly/NFTStakingStart.sol\":2070:2073  750 */\n      0x02ee\n        /* \"contracts/Defly/NFTStakingStart.sol\":2048:2067  category2.current() */\n      tag_152\n        /* \"contracts/Defly/NFTStakingStart.sol\":2048:2057  category2 */\n      0x02\n        /* \"contracts/Defly/NFTStakingStart.sol\":2048:2065  category2.current */\n      tag_141\n        /* \"contracts/Defly/NFTStakingStart.sol\":2048:2067  category2.current() */\n      jump\t// in\n    tag_152:\n        /* \"contracts/Defly/NFTStakingStart.sol\":2048:2073  category2.current() <=750 */\n      gt\n      iszero\n        /* \"contracts/Defly/NFTStakingStart.sol\":2040:2105  require(category2.current() <=750,\"30 Days Category is Full !!!\") */\n      tag_153\n      jumpi\n      mload(0x40)\n      0x08c379a000000000000000000000000000000000000000000000000000000000\n      dup2\n      mstore\n      0x04\n      add\n      tag_154\n      swap1\n      tag_155\n      jump\t// in\n    tag_154:\n      mload(0x40)\n      dup1\n      swap2\n      sub\n      swap1\n      revert\n    tag_153:\n        /* \"contracts/Defly/NFTStakingStart.sol\":2140:2186  Detail(7500,Days,block.timestamp,TokenId,true) */\n      mload(0x40)\n      dup1\n      0xa0\n      add\n      0x40\n      mstore\n      dup1\n        /* \"contracts/Defly/NFTStakingStart.sol\":2147:2151  7500 */\n      0x1d4c\n        /* \"contracts/Defly/NFTStakingStart.sol\":2140:2186  Detail(7500,Days,block.timestamp,TokenId,true) */\n      dup2\n      mstore\n      0x20\n      add\n        /* \"contracts/Defly/NFTStakingStart.sol\":2152:2156  Days */\n      dup3\n        /* \"contracts/Defly/NFTStakingStart.sol\":2140:2186  Detail(7500,Days,block.timestamp,TokenId,true) */\n      dup2\n      mstore\n      0x20\n      add\n        /* \"contracts/Defly/NFTStakingStart.sol\":2157:2172  block.timestamp */\n      timestamp\n        /* \"contracts/Defly/NFTStakingStart.sol\":2140:2186  Detail(7500,Days,block.timestamp,TokenId,true) */\n      dup2\n      mstore\n      0x20\n      add\n        /* \"contracts/Defly/NFTStakingStart.sol\":2173:2180  TokenId */\n      dup4\n        /* \"contracts/Defly/NFTStakingStart.sol\":2140:2186  Detail(7500,Days,block.timestamp,TokenId,true) */\n      dup2\n      mstore\n      0x20\n      add\n        /* \"contracts/Defly/NFTStakingStart.sol\":2181:2185  true */\n      0x01\n        /* \"contracts/Defly/NFTStakingStart.sol\":2140:2186  Detail(7500,Days,block.timestamp,TokenId,true) */\n      iszero\n      iszero\n      dup2\n      mstore\n      pop\n        /* \"contracts/Defly/NFTStakingStart.sol\":2119:2125  Staker */\n      0x08\n        /* \"contracts/Defly/NFTStakingStart.sol\":2119:2137  Staker[msg.sender] */\n      0x00\n        /* \"contracts/Defly/NFTStakingStart.sol\":2126:2136  msg.sender */\n      caller\n        /* \"contracts/Defly/NFTStakingStart.sol\":2119:2137  Staker[msg.sender] */\n      0xffffffffffffffffffffffffffffffffffffffff\n      and\n      0xffffffffffffffffffffffffffffffffffffffff\n      and\n      dup2\n      mstore\n      0x20\n      add\n      swap1\n      dup2\n      mstore\n      0x20\n      add\n      0x00\n      keccak256\n        /* \"contracts/Defly/NFTStakingStart.sol\":2119:2186  Staker[msg.sender] = Detail(7500,Days,block.timestamp,TokenId,true) */\n      0x00\n      dup3\n      add\n      mload\n      dup2\n      0x00\n      add\n      sstore\n      0x20\n      dup3\n      add\n      mload\n      dup2\n      0x01\n      add\n      sstore\n      0x40\n      dup3\n      add\n      mload\n      dup2\n      0x02\n      add\n      sstore\n      0x60\n      dup3\n      add\n      mload\n      dup2\n      0x03\n      add\n      sstore\n      0x80\n      dup3\n      add\n      mload\n      dup2\n      0x04\n      add\n      exp(0x0100, 0x00)\n      dup2\n      sload\n      dup2\n      0xff\n      mul\n      not\n      and\n      swap1\n      dup4\n      iszero\n      iszero\n      mul\n      or\n      swap1\n      sstore\n      pop\n      swap1\n      pop\n      pop\n        /* \"contracts/Defly/NFTStakingStart.sol\":2208:2221  ERC721address */\n      0x05\n      0x00\n      swap1\n      sload\n      swap1\n      0x0100\n      exp\n      swap1\n      div\n      0xffffffffffffffffffffffffffffffffffffffff\n      and\n        /* \"contracts/Defly/NFTStakingStart.sol\":2200:2239  IERC721(ERC721address).safeTransferFrom */\n      0xffffffffffffffffffffffffffffffffffffffff\n      and\n      0xb88d4fde\n        /* \"contracts/Defly/NFTStakingStart.sol\":2240:2250  msg.sender */\n      caller\n        /* \"contracts/Defly/NFTStakingStart.sol\":2259:2263  this */\n      address\n        /* \"contracts/Defly/NFTStakingStart.sol\":2265:2272  TokenId */\n      dup6\n        /* \"contracts/Defly/NFTStakingStart.sol\":2200:2276  IERC721(ERC721address).safeTransferFrom(msg.sender,address(this),TokenId,\"\") */\n      mload(0x40)\n      dup5\n      0xffffffff\n      and\n      0xe0\n      shl\n      dup2\n      mstore\n      0x04\n      add\n      tag_156\n      swap4\n      swap3\n      swap2\n      swap1\n      tag_95\n      jump\t// in\n    tag_156:\n      0x00\n      mload(0x40)\n      dup1\n      dup4\n      sub\n      dup2\n      0x00\n      dup8\n      dup1\n      extcodesize\n      iszero\n      dup1\n      iszero\n      tag_157\n      jumpi\n      0x00\n      dup1\n      revert\n    tag_157:\n      pop\n      gas\n      call\n      iszero\n      dup1\n      iszero\n      tag_159\n      jumpi\n      returndatasize\n      0x00\n      dup1\n      returndatacopy\n      revert(0x00, returndatasize)\n    tag_159:\n      pop\n      pop\n      pop\n      pop\n        /* \"contracts/Defly/NFTStakingStart.sol\":1977:3013  if(Days == 30){... */\n      jump(tag_160)\n    tag_150:\n        /* \"contracts/Defly/NFTStakingStart.sol\":2312:2314  60 */\n      0x3c\n        /* \"contracts/Defly/NFTStakingStart.sol\":2304:2308  Days */\n      dup2\n        /* \"contracts/Defly/NFTStakingStart.sol\":2304:2314  Days == 60 */\n      sub\n        /* \"contracts/Defly/NFTStakingStart.sol\":2301:3013  if(Days == 60){... */\n      tag_161\n      jumpi\n        /* \"contracts/Defly/NFTStakingStart.sol\":2329:2350  category3.increment() */\n      tag_162\n        /* \"contracts/Defly/NFTStakingStart.sol\":2329:2338  category3 */\n      0x03\n        /* \"contracts/Defly/NFTStakingStart.sol\":2329:2348  category3.increment */\n      tag_139\n        /* \"contracts/Defly/NFTStakingStart.sol\":2329:2350  category3.increment() */\n      jump\t// in\n    tag_162:\n        /* \"contracts/Defly/NFTStakingStart.sol\":2394:2397  500 */\n      0x01f4\n        /* \"contracts/Defly/NFTStakingStart.sol\":2372:2391  category3.current() */\n      tag_163\n        /* \"contracts/Defly/NFTStakingStart.sol\":2372:2381  category3 */\n      0x03\n        /* \"contracts/Defly/NFTStakingStart.sol\":2372:2389  category3.current */\n      tag_141\n        /* \"contracts/Defly/NFTStakingStart.sol\":2372:2391  category3.current() */\n      jump\t// in\n    tag_163:\n        /* \"contracts/Defly/NFTStakingStart.sol\":2372:2397  category3.current() <=500 */\n      gt\n      iszero\n        /* \"contracts/Defly/NFTStakingStart.sol\":2364:2429  require(category3.current() <=500,\"60 Days Category is Full !!!\") */\n      tag_164\n      jumpi\n      mload(0x40)\n      0x08c379a000000000000000000000000000000000000000000000000000000000\n      dup2\n      mstore\n      0x04\n      add\n      tag_165\n      swap1\n      tag_166\n      jump\t// in\n    tag_165:\n      mload(0x40)\n      dup1\n      swap2\n      sub\n      swap1\n      revert\n    tag_164:\n        /* \"contracts/Defly/NFTStakingStart.sol\":2464:2511  Detail(12500,Days,block.timestamp,TokenId,true) */\n      mload(0x40)\n      dup1\n      0xa0\n      add\n      0x40\n      mstore\n      dup1\n        /* \"contracts/Defly/NFTStakingStart.sol\":2471:2476  12500 */\n      0x30d4\n        /* \"contracts/Defly/NFTStakingStart.sol\":2464:2511  Detail(12500,Days,block.timestamp,TokenId,true) */\n      dup2\n      mstore\n      0x20\n      add\n        /* \"contracts/Defly/NFTStakingStart.sol\":2477:2481  Days */\n      dup3\n        /* \"contracts/Defly/NFTStakingStart.sol\":2464:2511  Detail(12500,Days,block.timestamp,TokenId,true) */\n      dup2\n      mstore\n      0x20\n      add\n        /* \"contracts/Defly/NFTStakingStart.sol\":2482:2497  block.timestamp */\n      timestamp\n        /* \"contracts/Defly/NFTStakingStart.sol\":2464:2511  Detail(12500,Days,block.timestamp,TokenId,true) */\n      dup2\n      mstore\n      0x20\n      add\n        /* \"contracts/Defly/NFTStakingStart.sol\":2498:2505  TokenId */\n      dup4\n        /* \"contracts/Defly/NFTStakingStart.sol\":2464:2511  Detail(12500,Days,block.timestamp,TokenId,true) */\n      dup2\n      mstore\n      0x20\n      add\n        /* \"contracts/Defly/NFTStakingStart.sol\":2506:2510  true */\n      0x01\n        /* \"contracts/Defly/NFTStakingStart.sol\":2464:2511  Detail(12500,Days,block.timestamp,TokenId,true) */\n      iszero\n      iszero\n      dup2\n      mstore\n      pop\n        /* \"contracts/Defly/NFTStakingStart.sol\":2443:2449  Staker */\n      0x08\n        /* \"contracts/Defly/NFTStakingStart.sol\":2443:2461  Staker[msg.sender] */\n      0x00\n        /* \"contracts/Defly/NFTStakingStart.sol\":2450:2460  msg.sender */\n      caller\n        /* \"contracts/Defly/NFTStakingStart.sol\":2443:2461  Staker[msg.sender] */\n      0xffffffffffffffffffffffffffffffffffffffff\n      and\n      0xffffffffffffffffffffffffffffffffffffffff\n      and\n      dup2\n      mstore\n      0x20\n      add\n      swap1\n      dup2\n      mstore\n      0x20\n      add\n      0x00\n      keccak256\n        /* \"contracts/Defly/NFTStakingStart.sol\":2443:2511  Staker[msg.sender] = Detail(12500,Days,block.timestamp,TokenId,true) */\n      0x00\n      dup3\n      add\n      mload\n      dup2\n      0x00\n      add\n      sstore\n      0x20\n      dup3\n      add\n      mload\n      dup2\n      0x01\n      add\n      sstore\n      0x40\n      dup3\n      add\n      mload\n      dup2\n      0x02\n      add\n      sstore\n      0x60\n      dup3\n      add\n      mload\n      dup2\n      0x03\n      add\n      sstore\n      0x80\n      dup3\n      add\n      mload\n      dup2\n      0x04\n      add\n      exp(0x0100, 0x00)\n      dup2\n      sload\n      dup2\n      0xff\n      mul\n      not\n      and\n      swap1\n      dup4\n      iszero\n      iszero\n      mul\n      or\n      swap1\n      sstore\n      pop\n      swap1\n      pop\n      pop\n        /* \"contracts/Defly/NFTStakingStart.sol\":2533:2546  ERC721address */\n      0x05\n      0x00\n      swap1\n      sload\n      swap1\n      0x0100\n      exp\n      swap1\n      div\n      0xffffffffffffffffffffffffffffffffffffffff\n      and\n        /* \"contracts/Defly/NFTStakingStart.sol\":2525:2564  IERC721(ERC721address).safeTransferFrom */\n      0xffffffffffffffffffffffffffffffffffffffff\n      and\n      0xb88d4fde\n        /* \"contracts/Defly/NFTStakingStart.sol\":2565:2575  msg.sender */\n      caller\n        /* \"contracts/Defly/NFTStakingStart.sol\":2584:2588  this */\n      address\n        /* \"contracts/Defly/NFTStakingStart.sol\":2590:2597  TokenId */\n      dup6\n        /* \"contracts/Defly/NFTStakingStart.sol\":2525:2601  IERC721(ERC721address).safeTransferFrom(msg.sender,address(this),TokenId,\"\") */\n      mload(0x40)\n      dup5\n      0xffffffff\n      and\n      0xe0\n      shl\n      dup2\n      mstore\n      0x04\n      add\n      tag_167\n      swap4\n      swap3\n      swap2\n      swap1\n      tag_95\n      jump\t// in\n    tag_167:\n      0x00\n      mload(0x40)\n      dup1\n      dup4\n      sub\n      dup2\n      0x00\n      dup8\n      dup1\n      extcodesize\n      iszero\n      dup1\n      iszero\n      tag_168\n      jumpi\n      0x00\n      dup1\n      revert\n    tag_168:\n      pop\n      gas\n      call\n      iszero\n      dup1\n      iszero\n      tag_170\n      jumpi\n      returndatasize\n      0x00\n      dup1\n      returndatacopy\n      revert(0x00, returndatasize)\n    tag_170:\n      pop\n      pop\n      pop\n      pop\n        /* \"contracts/Defly/NFTStakingStart.sol\":2301:3013  if(Days == 60){... */\n      jump(tag_171)\n    tag_161:\n        /* \"contracts/Defly/NFTStakingStart.sol\":2637:2639  90 */\n      0x5a\n        /* \"contracts/Defly/NFTStakingStart.sol\":2629:2633  Days */\n      dup2\n        /* \"contracts/Defly/NFTStakingStart.sol\":2629:2639  Days == 90 */\n      sub\n        /* \"contracts/Defly/NFTStakingStart.sol\":2626:3013  if(Days == 90){... */\n      tag_172\n      jumpi\n        /* \"contracts/Defly/NFTStakingStart.sol\":2654:2675  category4.increment() */\n      tag_173\n        /* \"contracts/Defly/NFTStakingStart.sol\":2654:2663  category4 */\n      0x04\n        /* \"contracts/Defly/NFTStakingStart.sol\":2654:2673  category4.increment */\n      tag_139\n        /* \"contracts/Defly/NFTStakingStart.sol\":2654:2675  category4.increment() */\n      jump\t// in\n    tag_173:\n        /* \"contracts/Defly/NFTStakingStart.sol\":2719:2722  250 */\n      0xfa\n        /* \"contracts/Defly/NFTStakingStart.sol\":2697:2716  category4.current() */\n      tag_174\n        /* \"contracts/Defly/NFTStakingStart.sol\":2697:2706  category4 */\n      0x04\n        /* \"contracts/Defly/NFTStakingStart.sol\":2697:2714  category4.current */\n      tag_141\n        /* \"contracts/Defly/NFTStakingStart.sol\":2697:2716  category4.current() */\n      jump\t// in\n    tag_174:\n        /* \"contracts/Defly/NFTStakingStart.sol\":2697:2722  category4.current() <=250 */\n      gt\n      iszero\n        /* \"contracts/Defly/NFTStakingStart.sol\":2689:2754  require(category4.current() <=250,\"90 Days Category is Full !!!\") */\n      tag_175\n      jumpi\n      mload(0x40)\n      0x08c379a000000000000000000000000000000000000000000000000000000000\n      dup2\n      mstore\n      0x04\n      add\n      tag_176\n      swap1\n      tag_177\n      jump\t// in\n    tag_176:\n      mload(0x40)\n      dup1\n      swap2\n      sub\n      swap1\n      revert\n    tag_175:\n        /* \"contracts/Defly/NFTStakingStart.sol\":2789:2836  Detail(17500,Days,block.timestamp,TokenId,true) */\n      mload(0x40)\n      dup1\n      0xa0\n      add\n      0x40\n      mstore\n      dup1\n        /* \"contracts/Defly/NFTStakingStart.sol\":2796:2801  17500 */\n      0x445c\n        /* \"contracts/Defly/NFTStakingStart.sol\":2789:2836  Detail(17500,Days,block.timestamp,TokenId,true) */\n      dup2\n      mstore\n      0x20\n      add\n        /* \"contracts/Defly/NFTStakingStart.sol\":2802:2806  Days */\n      dup3\n        /* \"contracts/Defly/NFTStakingStart.sol\":2789:2836  Detail(17500,Days,block.timestamp,TokenId,true) */\n      dup2\n      mstore\n      0x20\n      add\n        /* \"contracts/Defly/NFTStakingStart.sol\":2807:2822  block.timestamp */\n      timestamp\n        /* \"contracts/Defly/NFTStakingStart.sol\":2789:2836  Detail(17500,Days,block.timestamp,TokenId,true) */\n      dup2\n      mstore\n      0x20\n      add\n        /* \"contracts/Defly/NFTStakingStart.sol\":2823:2830  TokenId */\n      dup4\n        /* \"contracts/Defly/NFTStakingStart.sol\":2789:2836  Detail(17500,Days,block.timestamp,TokenId,true) */\n      dup2\n      mstore\n      0x20\n      add\n        /* \"contracts/Defly/NFTStakingStart.sol\":2831:2835  true */\n      0x01\n        /* \"contracts/Defly/NFTStakingStart.sol\":2789:2836  Detail(17500,Days,block.timestamp,TokenId,true) */\n      iszero\n      iszero\n      dup2\n      mstore\n      pop\n        /* \"contracts/Defly/NFTStakingStart.sol\":2768:2774  Staker */\n      0x08\n        /* \"contracts/Defly/NFTStakingStart.sol\":2768:2786  Staker[msg.sender] */\n      0x00\n        /* \"contracts/Defly/NFTStakingStart.sol\":2775:2785  msg.sender */\n      caller\n        /* \"contracts/Defly/NFTStakingStart.sol\":2768:2786  Staker[msg.sender] */\n      0xffffffffffffffffffffffffffffffffffffffff\n      and\n      0xffffffffffffffffffffffffffffffffffffffff\n      and\n      dup2\n      mstore\n      0x20\n      add\n      swap1\n      dup2\n      mstore\n      0x20\n      add\n      0x00\n      keccak256\n        /* \"contracts/Defly/NFTStakingStart.sol\":2768:2836  Staker[msg.sender] = Detail(17500,Days,block.timestamp,TokenId,true) */\n      0x00\n      dup3\n      add\n      mload\n      dup2\n      0x00\n      add\n      sstore\n      0x20\n      dup3\n      add\n      mload\n      dup2\n      0x01\n      add\n      sstore\n      0x40\n      dup3\n      add\n      mload\n      dup2\n      0x02\n      add\n      sstore\n      0x60\n      dup3\n      add\n      mload\n      dup2\n      0x03\n      add\n      sstore\n      0x80\n      dup3\n      add\n      mload\n      dup2\n      0x04\n      add\n      exp(0x0100, 0x00)\n      dup2\n      sload\n      dup2\n      0xff\n      mul\n      not\n      and\n      swap1\n      dup4\n      iszero\n      iszero\n      mul\n      or\n      swap1\n      sstore\n      pop\n      swap1\n      pop\n      pop\n        /* \"contracts/Defly/NFTStakingStart.sol\":2858:2871  ERC721address */\n      0x05\n      0x00\n      swap1\n      sload\n      swap1\n      0x0100\n      exp\n      swap1\n      div\n      0xffffffffffffffffffffffffffffffffffffffff\n      and\n        /* \"contracts/Defly/NFTStakingStart.sol\":2850:2889  IERC721(ERC721address).safeTransferFrom */\n      0xffffffffffffffffffffffffffffffffffffffff\n      and\n      0xb88d4fde\n        /* \"contracts/Defly/NFTStakingStart.sol\":2890:2900  msg.sender */\n      caller\n        /* \"contracts/Defly/NFTStakingStart.sol\":2909:2913  this */\n      address\n        /* \"contracts/Defly/NFTStakingStart.sol\":2915:2922  TokenId */\n      dup6\n        /* \"contracts/Defly/NFTStakingStart.sol\":2850:2926  IERC721(ERC721address).safeTransferFrom(msg.sender,address(this),TokenId,\"\") */\n      mload(0x40)\n      dup5\n      0xffffffff\n      and\n      0xe0\n      shl\n      dup2\n      mstore\n      0x04\n      add\n      tag_178\n      swap4\n      swap3\n      swap2\n      swap1\n      tag_95\n      jump\t// in\n    tag_178:\n      0x00\n      mload(0x40)\n      dup1\n      dup4\n      sub\n      dup2\n      0x00\n      dup8\n      dup1\n      extcodesize\n      iszero\n      dup1\n      iszero\n      tag_179\n      jumpi\n      0x00\n      dup1\n      revert\n    tag_179:\n      pop\n      gas\n      call\n      iszero\n      dup1\n      iszero\n      tag_181\n      jumpi\n      returndatasize\n      0x00\n      dup1\n      returndatacopy\n      revert(0x00, returndatasize)\n    tag_181:\n      pop\n      pop\n      pop\n      pop\n        /* \"contracts/Defly/NFTStakingStart.sol\":2626:3013  if(Days == 90){... */\n      jump(tag_182)\n    tag_172:\n        /* \"contracts/Defly/NFTStakingStart.sol\":2964:3002  revert(\"Sellect Days 15,30,60,90 !!!\") */\n      mload(0x40)\n      0x08c379a000000000000000000000000000000000000000000000000000000000\n      dup2\n      mstore\n      0x04\n      add\n      tag_183\n      swap1\n      tag_184\n      jump\t// in\n    tag_183:\n      mload(0x40)\n      dup1\n      swap2\n      sub\n      swap1\n      revert\n        /* \"contracts/Defly/NFTStakingStart.sol\":2626:3013  if(Days == 90){... */\n    tag_182:\n        /* \"contracts/Defly/NFTStakingStart.sol\":2301:3013  if(Days == 60){... */\n    tag_171:\n        /* \"contracts/Defly/NFTStakingStart.sol\":1977:3013  if(Days == 30){... */\n    tag_160:\n        /* \"contracts/Defly/NFTStakingStart.sol\":1652:3013  if(Days == 15){... */\n    tag_149:\n        /* \"contracts/Defly/NFTStakingStart.sol\":1516:3023  function deposit(uint TokenId,uint Days) public {... */\n      pop\n      pop\n      jump\t// out\n        /* \"@openzeppelin/contracts/access/Ownable.sol\":2081:2279  function transferOwnership(address newOwner) public virtual onlyOwner {... */\n    tag_71:\n        /* \"@openzeppelin/contracts/access/Ownable.sol\":1094:1107  _checkOwner() */\n      tag_186\n        /* \"@openzeppelin/contracts/access/Ownable.sol\":1094:1105  _checkOwner */\n      tag_121\n        /* \"@openzeppelin/contracts/access/Ownable.sol\":1094:1107  _checkOwner() */\n      jump\t// in\n    tag_186:\n        /* \"@openzeppelin/contracts/access/Ownable.sol\":2189:2190  0 */\n      0x00\n        /* \"@openzeppelin/contracts/access/Ownable.sol\":2169:2191  newOwner != address(0) */\n      0xffffffffffffffffffffffffffffffffffffffff\n      and\n        /* \"@openzeppelin/contracts/access/Ownable.sol\":2169:2177  newOwner */\n      dup2\n        /* \"@openzeppelin/contracts/access/Ownable.sol\":2169:2191  newOwner != address(0) */\n      0xffffffffffffffffffffffffffffffffffffffff\n      and\n      sub\n        /* \"@openzeppelin/contracts/access/Ownable.sol\":2161:2234  require(newOwner != address(0), \"Ownable: new owner is the zero address\") */\n      tag_188\n      jumpi\n      mload(0x40)\n      0x08c379a000000000000000000000000000000000000000000000000000000000\n      dup2\n      mstore\n      0x04\n      add\n      tag_189\n      swap1\n      tag_190\n      jump\t// in\n    tag_189:\n      mload(0x40)\n      dup1\n      swap2\n      sub\n      swap1\n      revert\n    tag_188:\n        /* \"@openzeppelin/contracts/access/Ownable.sol\":2244:2272  _transferOwnership(newOwner) */\n      tag_191\n        /* \"@openzeppelin/contracts/access/Ownable.sol\":2263:2271  newOwner */\n      dup2\n        /* \"@openzeppelin/contracts/access/Ownable.sol\":2244:2262  _transferOwnership */\n      tag_124\n        /* \"@openzeppelin/contracts/access/Ownable.sol\":2244:2272  _transferOwnership(newOwner) */\n      jump\t// in\n    tag_191:\n        /* \"@openzeppelin/contracts/access/Ownable.sol\":2081:2279  function transferOwnership(address newOwner) public virtual onlyOwner {... */\n      pop\n      jump\t// out\n        /* \"contracts/Defly/NFTStakingStart.sol\":606:639  Counters.Counter public category3 */\n    tag_73:\n      0x03\n      dup1\n      0x00\n      add\n      sload\n      swap1\n      pop\n      dup2\n      jump\t// out\n        /* \"@openzeppelin/contracts/token/ERC20/utils/SafeERC20.sol\":763:968  function safeTransfer(... */\n    tag_92:\n        /* \"@openzeppelin/contracts/token/ERC20/utils/SafeERC20.sol\":875:961  _callOptionalReturn(token, abi.encodeWithSelector(token.transfer.selector, to, value)) */\n      tag_193\n        /* \"@openzeppelin/contracts/token/ERC20/utils/SafeERC20.sol\":895:900  token */\n      dup4\n        /* \"@openzeppelin/contracts/token/ERC20/utils/SafeERC20.sol\":925:948  token.transfer.selector */\n      shl(0xe0, 0xa9059cbb)\n        /* \"@openzeppelin/contracts/token/ERC20/utils/SafeERC20.sol\":950:952  to */\n      dup5\n        /* \"@openzeppelin/contracts/token/ERC20/utils/SafeERC20.sol\":954:959  value */\n      dup5\n        /* \"@openzeppelin/contracts/token/ERC20/utils/SafeERC20.sol\":902:960  abi.encodeWithSelector(token.transfer.selector, to, value) */\n      add(0x24, mload(0x40))\n      tag_194\n      swap3\n      swap2\n      swap1\n      tag_195\n      jump\t// in\n    tag_194:\n      mload(0x40)\n      0x20\n      dup2\n      dup4\n      sub\n      sub\n      dup2\n      mstore\n      swap1\n      0x40\n      mstore\n      swap1\n      not(0xffffffffffffffffffffffffffffffffffffffffffffffffffffffff)\n      and\n      0x20\n      dup3\n      add\n      dup1\n      mload\n      0xffffffffffffffffffffffffffffffffffffffffffffffffffffffff\n      dup4\n      dup2\n      dup4\n      and\n      or\n      dup4\n      mstore\n      pop\n      pop\n      pop\n      pop\n        /* \"@openzeppelin/contracts/token/ERC20/utils/SafeERC20.sol\":875:894  _callOptionalReturn */\n      tag_196\n        /* \"@openzeppelin/contracts/token/ERC20/utils/SafeERC20.sol\":875:961  _callOptionalReturn(token, abi.encodeWithSelector(token.transfer.selector, to, value)) */\n      jump\t// in\n    tag_193:\n        /* \"@openzeppelin/contracts/token/ERC20/utils/SafeERC20.sol\":763:968  function safeTransfer(... */\n      pop\n      pop\n      pop\n      jump\t// out\n        /* \"@openzeppelin/contracts/utils/Counters.sol\":1074:1303  function decrement(Counter storage counter) internal {... */\n    tag_109:\n        /* \"@openzeppelin/contracts/utils/Counters.sol\":1137:1150  uint256 value */\n      0x00\n        /* \"@openzeppelin/contracts/utils/Counters.sol\":1153:1160  counter */\n      dup2\n        /* \"@openzeppelin/contracts/utils/Counters.sol\":1153:1167  counter._value */\n      0x00\n      add\n      sload\n        /* \"@openzeppelin/contracts/utils/Counters.sol\":1137:1167  uint256 value = counter._value */\n      swap1\n      pop\n        /* \"@openzeppelin/contracts/utils/Counters.sol\":1193:1194  0 */\n      0x00\n        /* \"@openzeppelin/contracts/utils/Counters.sol\":1185:1190  value */\n      dup2\n        /* \"@openzeppelin/contracts/utils/Counters.sol\":1185:1194  value > 0 */\n      gt\n        /* \"@openzeppelin/contracts/utils/Counters.sol\":1177:1226  require(value > 0, \"Counter: decrement overflow\") */\n      tag_198\n      jumpi\n      mload(0x40)\n      0x08c379a000000000000000000000000000000000000000000000000000000000\n      dup2\n      mstore\n      0x04\n      add\n      tag_199\n      swap1\n      tag_200\n      jump\t// in\n    tag_199:\n      mload(0x40)\n      dup1\n      swap2\n      sub\n      swap1\n      revert\n    tag_198:\n        /* \"@openzeppelin/contracts/utils/Counters.sol\":1285:1286  1 */\n      0x01\n        /* \"@openzeppelin/contracts/utils/Counters.sol\":1277:1282  value */\n      dup2\n        /* \"@openzeppelin/contracts/utils/Counters.sol\":1277:1286  value - 1 */\n      sub\n        /* \"@openzeppelin/contracts/utils/Counters.sol\":1260:1267  counter */\n      dup3\n        /* \"@openzeppelin/contracts/utils/Counters.sol\":1260:1274  counter._value */\n      0x00\n      add\n        /* \"@openzeppelin/contracts/utils/Counters.sol\":1260:1286  counter._value = value - 1 */\n      dup2\n      swap1\n      sstore\n      pop\n        /* \"@openzeppelin/contracts/utils/Counters.sol\":1127:1303  {... */\n      pop\n        /* \"@openzeppelin/contracts/utils/Counters.sol\":1074:1303  function decrement(Counter storage counter) internal {... */\n      pop\n      jump\t// out\n        /* \"@openzeppelin/contracts/access/Ownable.sol\":1359:1489  function _checkOwner() internal view virtual {... */\n    tag_121:\n        /* \"@openzeppelin/contracts/access/Ownable.sol\":1433:1445  _msgSender() */\n      tag_202\n        /* \"@openzeppelin/contracts/access/Ownable.sol\":1433:1443  _msgSender */\n      tag_203\n        /* \"@openzeppelin/contracts/access/Ownable.sol\":1433:1445  _msgSender() */\n      jump\t// in\n    tag_202:\n        /* \"@openzeppelin/contracts/access/Ownable.sol\":1422:1445  owner() == _msgSender() */\n      0xffffffffffffffffffffffffffffffffffffffff\n      and\n        /* \"@openzeppelin/contracts/access/Ownable.sol\":1422:1429  owner() */\n      tag_204\n        /* \"@openzeppelin/contracts/access/Ownable.sol\":1422:1427  owner */\n      tag_44\n        /* \"@openzeppelin/contracts/access/Ownable.sol\":1422:1429  owner() */\n      jump\t// in\n    tag_204:\n        /* \"@openzeppelin/contracts/access/Ownable.sol\":1422:1445  owner() == _msgSender() */\n      0xffffffffffffffffffffffffffffffffffffffff\n      and\n      eq\n        /* \"@openzeppelin/contracts/access/Ownable.sol\":1414:1482  require(owner() == _msgSender(), \"Ownable: caller is not the owner\") */\n      tag_205\n      jumpi\n      mload(0x40)\n      0x08c379a000000000000000000000000000000000000000000000000000000000\n      dup2\n      mstore\n      0x04\n      add\n      tag_206\n      swap1\n      tag_207\n      jump\t// in\n    tag_206:\n      mload(0x40)\n      dup1\n      swap2\n      sub\n      swap1\n      revert\n    tag_205:\n        /* \"@openzeppelin/contracts/access/Ownable.sol\":1359:1489  function _checkOwner() internal view virtual {... */\n      jump\t// out\n        /* \"@openzeppelin/contracts/access/Ownable.sol\":2433:2620  function _transferOwnership(address newOwner) internal virtual {... */\n    tag_124:\n        /* \"@openzeppelin/contracts/access/Ownable.sol\":2506:2522  address oldOwner */\n      0x00\n        /* \"@openzeppelin/contracts/access/Ownable.sol\":2525:2531  _owner */\n      dup1\n      0x00\n      swap1\n      sload\n      swap1\n      0x0100\n      exp\n      swap1\n      div\n      0xffffffffffffffffffffffffffffffffffffffff\n      and\n        /* \"@openzeppelin/contracts/access/Ownable.sol\":2506:2531  address oldOwner = _owner */\n      swap1\n      pop\n        /* \"@openzeppelin/contracts/access/Ownable.sol\":2550:2558  newOwner */\n      dup2\n        /* \"@openzeppelin/contracts/access/Ownable.sol\":2541:2547  _owner */\n      0x00\n      dup1\n        /* \"@openzeppelin/contracts/access/Ownable.sol\":2541:2558  _owner = newOwner */\n      0x0100\n      exp\n      dup2\n      sload\n      dup2\n      0xffffffffffffffffffffffffffffffffffffffff\n      mul\n      not\n      and\n      swap1\n      dup4\n      0xffffffffffffffffffffffffffffffffffffffff\n      and\n      mul\n      or\n      swap1\n      sstore\n      pop\n        /* \"@openzeppelin/contracts/access/Ownable.sol\":2604:2612  newOwner */\n      dup2\n        /* \"@openzeppelin/contracts/access/Ownable.sol\":2573:2613  OwnershipTransferred(oldOwner, newOwner) */\n      0xffffffffffffffffffffffffffffffffffffffff\n      and\n        /* \"@openzeppelin/contracts/access/Ownable.sol\":2594:2602  oldOwner */\n      dup2\n        /* \"@openzeppelin/contracts/access/Ownable.sol\":2573:2613  OwnershipTransferred(oldOwner, newOwner) */\n      0xffffffffffffffffffffffffffffffffffffffff\n      and\n      0x8be0079c531659141344cd1fd0a4f28419497f9722a3daafe3b4186f6b6457e0\n      mload(0x40)\n      mload(0x40)\n      dup1\n      swap2\n      sub\n      swap1\n      log3\n        /* \"@openzeppelin/contracts/access/Ownable.sol\":2496:2620  {... */\n      pop\n        /* \"@openzeppelin/contracts/access/Ownable.sol\":2433:2620  function _transferOwnership(address newOwner) internal virtual {... */\n      pop\n      jump\t// out\n        /* \"@openzeppelin/contracts/token/ERC20/utils/SafeERC20.sol\":974:1215  function safeTransferFrom(... */\n    tag_132:\n        /* \"@openzeppelin/contracts/token/ERC20/utils/SafeERC20.sol\":1112:1208  _callOptionalReturn(token, abi.encodeWithSelector(token.transferFrom.selector, from, to, value)) */\n      tag_210\n        /* \"@openzeppelin/contracts/token/ERC20/utils/SafeERC20.sol\":1132:1137  token */\n      dup5\n        /* \"@openzeppelin/contracts/token/ERC20/utils/SafeERC20.sol\":1162:1189  token.transferFrom.selector */\n      shl(0xe0, 0x23b872dd)\n        /* \"@openzeppelin/contracts/token/ERC20/utils/SafeERC20.sol\":1191:1195  from */\n      dup6\n        /* \"@openzeppelin/contracts/token/ERC20/utils/SafeERC20.sol\":1197:1199  to */\n      dup6\n        /* \"@openzeppelin/contracts/token/ERC20/utils/SafeERC20.sol\":1201:1206  value */\n      dup6\n        /* \"@openzeppelin/contracts/token/ERC20/utils/SafeERC20.sol\":1139:1207  abi.encodeWithSelector(token.transferFrom.selector, from, to, value) */\n      add(0x24, mload(0x40))\n      tag_211\n      swap4\n      swap3\n      swap2\n      swap1\n      tag_212\n      jump\t// in\n    tag_211:\n      mload(0x40)\n      0x20\n      dup2\n      dup4\n      sub\n      sub\n      dup2\n      mstore\n      swap1\n      0x40\n      mstore\n      swap1\n      not(0xffffffffffffffffffffffffffffffffffffffffffffffffffffffff)\n      and\n      0x20\n      dup3\n      add\n      dup1\n      mload\n      0xffffffffffffffffffffffffffffffffffffffffffffffffffffffff\n      dup4\n      dup2\n      dup4\n      and\n      or\n      dup4\n      mstore\n      pop\n      pop\n      pop\n      pop\n        /* \"@openzeppelin/contracts/token/ERC20/utils/SafeERC20.sol\":1112:1131  _callOptionalReturn */\n      tag_196\n        /* \"@openzeppelin/contracts/token/ERC20/utils/SafeERC20.sol\":1112:1208  _callOptionalReturn(token, abi.encodeWithSelector(token.transferFrom.selector, from, to, value)) */\n      jump\t// in\n    tag_210:\n        /* \"@openzeppelin/contracts/token/ERC20/utils/SafeERC20.sol\":974:1215  function safeTransferFrom(... */\n      pop\n      pop\n      pop\n      pop\n      jump\t// out\n        /* \"@openzeppelin/contracts/utils/Counters.sol\":945:1068  function increment(Counter storage counter) internal {... */\n    tag_139:\n        /* \"@openzeppelin/contracts/utils/Counters.sol\":1050:1051  1 */\n      0x01\n        /* \"@openzeppelin/contracts/utils/Counters.sol\":1032:1039  counter */\n      dup2\n        /* \"@openzeppelin/contracts/utils/Counters.sol\":1032:1046  counter._value */\n      0x00\n      add\n      0x00\n        /* \"@openzeppelin/contracts/utils/Counters.sol\":1032:1051  counter._value += 1 */\n      dup3\n      dup3\n      sload\n      add\n      swap3\n      pop\n      pop\n      dup2\n      swap1\n      sstore\n      pop\n        /* \"@openzeppelin/contracts/utils/Counters.sol\":945:1068  function increment(Counter storage counter) internal {... */\n      pop\n      jump\t// out\n        /* \"@openzeppelin/contracts/utils/Counters.sol\":827:939  function current(Counter storage counter) internal view returns (uint256) {... */\n    tag_141:\n        /* \"@openzeppelin/contracts/utils/Counters.sol\":892:899  uint256 */\n      0x00\n        /* \"@openzeppelin/contracts/utils/Counters.sol\":918:925  counter */\n      dup2\n        /* \"@openzeppelin/contracts/utils/Counters.sol\":918:932  counter._value */\n      0x00\n      add\n      sload\n        /* \"@openzeppelin/contracts/utils/Counters.sol\":911:932  return counter._value */\n      swap1\n      pop\n        /* \"@openzeppelin/contracts/utils/Counters.sol\":827:939  function current(Counter storage counter) internal view returns (uint256) {... */\n      swap2\n      swap1\n      pop\n      jump\t// out\n        /* \"@openzeppelin/contracts/token/ERC20/utils/SafeERC20.sol\":3747:4453  function _callOptionalReturn(IERC20 token, bytes memory data) private {... */\n    tag_196:\n        /* \"@openzeppelin/contracts/token/ERC20/utils/SafeERC20.sol\":4166:4189  bytes memory returndata */\n      0x00\n        /* \"@openzeppelin/contracts/token/ERC20/utils/SafeERC20.sol\":4192:4261  address(token).functionCall(data, \"SafeERC20: low-level call failed\") */\n      tag_216\n        /* \"@openzeppelin/contracts/token/ERC20/utils/SafeERC20.sol\":4220:4224  data */\n      dup3\n        /* \"@openzeppelin/contracts/token/ERC20/utils/SafeERC20.sol\":4192:4261  address(token).functionCall(data, \"SafeERC20: low-level call failed\") */\n      mload(0x40)\n      dup1\n      0x40\n      add\n      0x40\n      mstore\n      dup1\n      0x20\n      dup2\n      mstore\n      0x20\n      add\n      0x5361666545524332303a206c6f772d6c6576656c2063616c6c206661696c6564\n      dup2\n      mstore\n      pop\n        /* \"@openzeppelin/contracts/token/ERC20/utils/SafeERC20.sol\":4200:4205  token */\n      dup6\n        /* \"@openzeppelin/contracts/token/ERC20/utils/SafeERC20.sol\":4192:4219  address(token).functionCall */\n      0xffffffffffffffffffffffffffffffffffffffff\n      and\n      tag_217\n      swap1\n        /* \"@openzeppelin/contracts/token/ERC20/utils/SafeERC20.sol\":4192:4261  address(token).functionCall(data, \"SafeERC20: low-level call failed\") */\n      swap3\n      swap2\n      swap1\n      0xffffffff\n      and\n      jump\t// in\n    tag_216:\n        /* \"@openzeppelin/contracts/token/ERC20/utils/SafeERC20.sol\":4166:4261  bytes memory returndata = address(token).functionCall(data, \"SafeERC20: low-level call failed\") */\n      swap1\n      pop\n        /* \"@openzeppelin/contracts/token/ERC20/utils/SafeERC20.sol\":4295:4296  0 */\n      0x00\n        /* \"@openzeppelin/contracts/token/ERC20/utils/SafeERC20.sol\":4275:4285  returndata */\n      dup2\n        /* \"@openzeppelin/contracts/token/ERC20/utils/SafeERC20.sol\":4275:4292  returndata.length */\n      mload\n        /* \"@openzeppelin/contracts/token/ERC20/utils/SafeERC20.sol\":4275:4296  returndata.length > 0 */\n      gt\n        /* \"@openzeppelin/contracts/token/ERC20/utils/SafeERC20.sol\":4271:4447  if (returndata.length > 0) {... */\n      iszero\n      tag_218\n      jumpi\n        /* \"@openzeppelin/contracts/token/ERC20/utils/SafeERC20.sol\":4370:4380  returndata */\n      dup1\n        /* \"@openzeppelin/contracts/token/ERC20/utils/SafeERC20.sol\":4359:4389  abi.decode(returndata, (bool)) */\n      dup1\n      0x20\n      add\n      swap1\n      mload\n      dup2\n      add\n      swap1\n      tag_219\n      swap2\n      swap1\n      tag_220\n      jump\t// in\n    tag_219:\n        /* \"@openzeppelin/contracts/token/ERC20/utils/SafeERC20.sol\":4351:4436  require(abi.decode(returndata, (bool)), \"SafeERC20: ERC20 operation did not succeed\") */\n      tag_221\n      jumpi\n      mload(0x40)\n      0x08c379a000000000000000000000000000000000000000000000000000000000\n      dup2\n      mstore\n      0x04\n      add\n      tag_222\n      swap1\n      tag_223\n      jump\t// in\n    tag_222:\n      mload(0x40)\n      dup1\n      swap2\n      sub\n      swap1\n      revert\n    tag_221:\n        /* \"@openzeppelin/contracts/token/ERC20/utils/SafeERC20.sol\":4271:4447  if (returndata.length > 0) {... */\n    tag_218:\n        /* \"@openzeppelin/contracts/token/ERC20/utils/SafeERC20.sol\":3817:4453  {... */\n      pop\n        /* \"@openzeppelin/contracts/token/ERC20/utils/SafeERC20.sol\":3747:4453  function _callOptionalReturn(IERC20 token, bytes memory data) private {... */\n      pop\n      pop\n      jump\t// out\n        /* \"@openzeppelin/contracts/utils/Context.sol\":640:736  function _msgSender() internal view virtual returns (address) {... */\n    tag_203:\n        /* \"@openzeppelin/contracts/utils/Context.sol\":693:700  address */\n      0x00\n        /* \"@openzeppelin/contracts/utils/Context.sol\":719:729  msg.sender */\n      caller\n        /* \"@openzeppelin/contracts/utils/Context.sol\":712:729  return msg.sender */\n      swap1\n      pop\n        /* \"@openzeppelin/contracts/utils/Context.sol\":640:736  function _msgSender() internal view virtual returns (address) {... */\n      swap1\n      jump\t// out\n        /* \"@openzeppelin/contracts/utils/Address.sol\":3873:4096  function functionCall(... */\n    tag_217:\n        /* \"@openzeppelin/contracts/utils/Address.sol\":4006:4018  bytes memory */\n      0x60\n        /* \"@openzeppelin/contracts/utils/Address.sol\":4037:4089  functionCallWithValue(target, data, 0, errorMessage) */\n      tag_226\n        /* \"@openzeppelin/contracts/utils/Address.sol\":4059:4065  target */\n      dup5\n        /* \"@openzeppelin/contracts/utils/Address.sol\":4067:4071  data */\n      dup5\n        /* \"@openzeppelin/contracts/utils/Address.sol\":4073:4074  0 */\n      0x00\n        /* \"@openzeppelin/contracts/utils/Address.sol\":4076:4088  errorMessage */\n      dup6\n        /* \"@openzeppelin/contracts/utils/Address.sol\":4037:4058  functionCallWithValue */\n      tag_227\n        /* \"@openzeppelin/contracts/utils/Address.sol\":4037:4089  functionCallWithValue(target, data, 0, errorMessage) */\n      jump\t// in\n    tag_226:\n        /* \"@openzeppelin/contracts/utils/Address.sol\":4030:4089  return functionCallWithValue(target, data, 0, errorMessage) */\n      swap1\n      pop\n        /* \"@openzeppelin/contracts/utils/Address.sol\":3873:4096  function functionCall(... */\n      swap4\n      swap3\n      pop\n      pop\n      pop\n      jump\t// out\n        /* \"@openzeppelin/contracts/utils/Address.sol\":4960:5406  function functionCallWithValue(... */\n    tag_227:\n        /* \"@openzeppelin/contracts/utils/Address.sol\":5125:5137  bytes memory */\n      0x60\n        /* \"@openzeppelin/contracts/utils/Address.sol\":5182:5187  value */\n      dup3\n        /* \"@openzeppelin/contracts/utils/Address.sol\":5157:5178  address(this).balance */\n      selfbalance\n        /* \"@openzeppelin/contracts/utils/Address.sol\":5157:5187  address(this).balance >= value */\n      lt\n      iszero\n        /* \"@openzeppelin/contracts/utils/Address.sol\":5149:5230  require(address(this).balance >= value, \"Address: insufficient balance for call\") */\n      tag_229\n      jumpi\n      mload(0x40)\n      0x08c379a000000000000000000000000000000000000000000000000000000000\n      dup2\n      mstore\n      0x04\n      add\n      tag_230\n      swap1\n      tag_231\n      jump\t// in\n    tag_230:\n      mload(0x40)\n      dup1\n      swap2\n      sub\n      swap1\n      revert\n    tag_229:\n        /* \"@openzeppelin/contracts/utils/Address.sol\":5241:5253  bool success */\n      0x00\n        /* \"@openzeppelin/contracts/utils/Address.sol\":5255:5278  bytes memory returndata */\n      dup1\n        /* \"@openzeppelin/contracts/utils/Address.sol\":5282:5288  target */\n      dup7\n        /* \"@openzeppelin/contracts/utils/Address.sol\":5282:5293  target.call */\n      0xffffffffffffffffffffffffffffffffffffffff\n      and\n        /* \"@openzeppelin/contracts/utils/Address.sol\":5301:5306  value */\n      dup6\n        /* \"@openzeppelin/contracts/utils/Address.sol\":5308:5312  data */\n      dup8\n        /* \"@openzeppelin/contracts/utils/Address.sol\":5282:5313  target.call{value: value}(data) */\n      mload(0x40)\n      tag_232\n      swap2\n      swap1\n      tag_233\n      jump\t// in\n    tag_232:\n      0x00\n      mload(0x40)\n      dup1\n      dup4\n      sub\n      dup2\n      dup6\n      dup8\n      gas\n      call\n      swap3\n      pop\n      pop\n      pop\n      returndatasize\n      dup1\n      0x00\n      dup2\n      eq\n      tag_236\n      jumpi\n      mload(0x40)\n      swap2\n      pop\n      and(add(returndatasize, 0x3f), not(0x1f))\n      dup3\n      add\n      0x40\n      mstore\n      returndatasize\n      dup3\n      mstore\n      returndatasize\n      0x00\n      0x20\n      dup5\n      add\n      returndatacopy\n      jump(tag_235)\n    tag_236:\n      0x60\n      swap2\n      pop\n    tag_235:\n      pop\n        /* \"@openzeppelin/contracts/utils/Address.sol\":5240:5313  (bool success, bytes memory returndata) = target.call{value: value}(data) */\n      swap2\n      pop\n      swap2\n      pop\n        /* \"@openzeppelin/contracts/utils/Address.sol\":5330:5399  verifyCallResultFromTarget(target, success, returndata, errorMessage) */\n      tag_237\n        /* \"@openzeppelin/contracts/utils/Address.sol\":5357:5363  target */\n      dup8\n        /* \"@openzeppelin/contracts/utils/Address.sol\":5365:5372  success */\n      dup4\n        /* \"@openzeppelin/contracts/utils/Address.sol\":5374:5384  returndata */\n      dup4\n        /* \"@openzeppelin/contracts/utils/Address.sol\":5386:5398  errorMessage */\n      dup8\n        /* \"@openzeppelin/contracts/utils/Address.sol\":5330:5356  verifyCallResultFromTarget */\n      tag_238\n        /* \"@openzeppelin/contracts/utils/Address.sol\":5330:5399  verifyCallResultFromTarget(target, success, returndata, errorMessage) */\n      jump\t// in\n    tag_237:\n        /* \"@openzeppelin/contracts/utils/Address.sol\":5323:5399  return verifyCallResultFromTarget(target, success, returndata, errorMessage) */\n      swap3\n      pop\n      pop\n      pop\n        /* \"@openzeppelin/contracts/utils/Address.sol\":4960:5406  function functionCallWithValue(... */\n      swap5\n      swap4\n      pop\n      pop\n      pop\n      pop\n      jump\t// out\n        /* \"@openzeppelin/contracts/utils/Address.sol\":7466:8094  function verifyCallResultFromTarget(... */\n    tag_238:\n        /* \"@openzeppelin/contracts/utils/Address.sol\":7646:7658  bytes memory */\n      0x60\n        /* \"@openzeppelin/contracts/utils/Address.sol\":7674:7681  success */\n      dup4\n        /* \"@openzeppelin/contracts/utils/Address.sol\":7670:8088  if (success) {... */\n      iszero\n      tag_240\n      jumpi\n        /* \"@openzeppelin/contracts/utils/Address.sol\":7722:7723  0 */\n      0x00\n        /* \"@openzeppelin/contracts/utils/Address.sol\":7701:7711  returndata */\n      dup4\n        /* \"@openzeppelin/contracts/utils/Address.sol\":7701:7718  returndata.length */\n      mload\n        /* \"@openzeppelin/contracts/utils/Address.sol\":7701:7723  returndata.length == 0 */\n      sub\n        /* \"@openzeppelin/contracts/utils/Address.sol\":7697:7983  if (returndata.length == 0) {... */\n      tag_241\n      jumpi\n        /* \"@openzeppelin/contracts/utils/Address.sol\":7916:7934  isContract(target) */\n      tag_242\n        /* \"@openzeppelin/contracts/utils/Address.sol\":7927:7933  target */\n      dup6\n        /* \"@openzeppelin/contracts/utils/Address.sol\":7916:7926  isContract */\n      tag_243\n        /* \"@openzeppelin/contracts/utils/Address.sol\":7916:7934  isContract(target) */\n      jump\t// in\n    tag_242:\n        /* \"@openzeppelin/contracts/utils/Address.sol\":7908:7968  require(isContract(target), \"Address: call to non-contract\") */\n      tag_244\n      jumpi\n      mload(0x40)\n      0x08c379a000000000000000000000000000000000000000000000000000000000\n      dup2\n      mstore\n      0x04\n      add\n      tag_245\n      swap1\n      tag_246\n      jump\t// in\n    tag_245:\n      mload(0x40)\n      dup1\n      swap2\n      sub\n      swap1\n      revert\n    tag_244:\n        /* \"@openzeppelin/contracts/utils/Address.sol\":7697:7983  if (returndata.length == 0) {... */\n    tag_241:\n        /* \"@openzeppelin/contracts/utils/Address.sol\":8003:8013  returndata */\n      dup3\n        /* \"@openzeppelin/contracts/utils/Address.sol\":7996:8013  return returndata */\n      swap1\n      pop\n      jump(tag_239)\n        /* \"@openzeppelin/contracts/utils/Address.sol\":7670:8088  if (success) {... */\n    tag_240:\n        /* \"@openzeppelin/contracts/utils/Address.sol\":8044:8077  _revert(returndata, errorMessage) */\n      tag_248\n        /* \"@openzeppelin/contracts/utils/Address.sol\":8052:8062  returndata */\n      dup4\n        /* \"@openzeppelin/contracts/utils/Address.sol\":8064:8076  errorMessage */\n      dup4\n        /* \"@openzeppelin/contracts/utils/Address.sol\":8044:8051  _revert */\n      tag_249\n        /* \"@openzeppelin/contracts/utils/Address.sol\":8044:8077  _revert(returndata, errorMessage) */\n      jump\t// in\n    tag_248:\n        /* \"@openzeppelin/contracts/utils/Address.sol\":7466:8094  function verifyCallResultFromTarget(... */\n    tag_239:\n      swap5\n      swap4\n      pop\n      pop\n      pop\n      pop\n      jump\t// out\n        /* \"@openzeppelin/contracts/utils/Address.sol\":1175:1495  function isContract(address account) internal view returns (bool) {... */\n    tag_243:\n        /* \"@openzeppelin/contracts/utils/Address.sol\":1235:1239  bool */\n      0x00\n        /* \"@openzeppelin/contracts/utils/Address.sol\":1487:1488  0 */\n      dup1\n        /* \"@openzeppelin/contracts/utils/Address.sol\":1465:1472  account */\n      dup3\n        /* \"@openzeppelin/contracts/utils/Address.sol\":1465:1484  account.code.length */\n      0xffffffffffffffffffffffffffffffffffffffff\n      and\n      extcodesize\n        /* \"@openzeppelin/contracts/utils/Address.sol\":1465:1488  account.code.length > 0 */\n      gt\n        /* \"@openzeppelin/contracts/utils/Address.sol\":1458:1488  return account.code.length > 0 */\n      swap1\n      pop\n        /* \"@openzeppelin/contracts/utils/Address.sol\":1175:1495  function isContract(address account) internal view returns (bool) {... */\n      swap2\n      swap1\n      pop\n      jump\t// out\n        /* \"@openzeppelin/contracts/utils/Address.sol\":8616:9156  function _revert(bytes memory returndata, string memory errorMessage) private pure {... */\n    tag_249:\n        /* \"@openzeppelin/contracts/utils/Address.sol\":8795:8796  0 */\n      0x00\n        /* \"@openzeppelin/contracts/utils/Address.sol\":8775:8785  returndata */\n      dup3\n        /* \"@openzeppelin/contracts/utils/Address.sol\":8775:8792  returndata.length */\n      mload\n        /* \"@openzeppelin/contracts/utils/Address.sol\":8775:8796  returndata.length > 0 */\n      gt\n        /* \"@openzeppelin/contracts/utils/Address.sol\":8771:9150  if (returndata.length > 0) {... */\n      iszero\n      tag_252\n      jumpi\n        /* \"@openzeppelin/contracts/utils/Address.sol\":9003:9013  returndata */\n      dup2\n        /* \"@openzeppelin/contracts/utils/Address.sol\":8997:9014  mload(returndata) */\n      mload\n        /* \"@openzeppelin/contracts/utils/Address.sol\":9059:9074  returndata_size */\n      dup1\n        /* \"@openzeppelin/contracts/utils/Address.sol\":9046:9056  returndata */\n      dup4\n        /* \"@openzeppelin/contracts/utils/Address.sol\":9042:9044  32 */\n      0x20\n        /* \"@openzeppelin/contracts/utils/Address.sol\":9038:9057  add(32, returndata) */\n      add\n        /* \"@openzeppelin/contracts/utils/Address.sol\":9031:9075  revert(add(32, returndata), returndata_size) */\n      revert\n        /* \"@openzeppelin/contracts/utils/Address.sol\":8771:9150  if (returndata.length > 0) {... */\n    tag_252:\n        /* \"@openzeppelin/contracts/utils/Address.sol\":9126:9138  errorMessage */\n      dup1\n        /* \"@openzeppelin/contracts/utils/Address.sol\":9119:9139  revert(errorMessage) */\n      mload(0x40)\n      0x08c379a000000000000000000000000000000000000000000000000000000000\n      dup2\n      mstore\n      0x04\n      add\n      tag_254\n      swap2\n      swap1\n      tag_255\n      jump\t// in\n    tag_254:\n      mload(0x40)\n      dup1\n      swap2\n      sub\n      swap1\n      revert\n        /* \"#utility.yul\":88:205   */\n    tag_257:\n        /* \"#utility.yul\":197:198   */\n      0x00\n        /* \"#utility.yul\":194:195   */\n      dup1\n        /* \"#utility.yul\":187:199   */\n      revert\n        /* \"#utility.yul\":211:328   */\n    tag_258:\n        /* \"#utility.yul\":320:321   */\n      0x00\n        /* \"#utility.yul\":317:318   */\n      dup1\n        /* \"#utility.yul\":310:322   */\n      revert\n        /* \"#utility.yul\":334:460   */\n    tag_259:\n        /* \"#utility.yul\":371:378   */\n      0x00\n        /* \"#utility.yul\":411:453   */\n      0xffffffffffffffffffffffffffffffffffffffff\n        /* \"#utility.yul\":404:409   */\n      dup3\n        /* \"#utility.yul\":400:454   */\n      and\n        /* \"#utility.yul\":389:454   */\n      swap1\n      pop\n        /* \"#utility.yul\":334:460   */\n      swap2\n      swap1\n      pop\n      jump\t// out\n        /* \"#utility.yul\":466:562   */\n    tag_260:\n        /* \"#utility.yul\":503:510   */\n      0x00\n        /* \"#utility.yul\":532:556   */\n      tag_323\n        /* \"#utility.yul\":550:555   */\n      dup3\n        /* \"#utility.yul\":532:556   */\n      tag_259\n      jump\t// in\n    tag_323:\n        /* \"#utility.yul\":521:556   */\n      swap1\n      pop\n        /* \"#utility.yul\":466:562   */\n      swap2\n      swap1\n      pop\n      jump\t// out\n        /* \"#utility.yul\":568:690   */\n    tag_261:\n        /* \"#utility.yul\":641:665   */\n      tag_325\n        /* \"#utility.yul\":659:664   */\n      dup2\n        /* \"#utility.yul\":641:665   */\n      tag_260\n      jump\t// in\n    tag_325:\n        /* \"#utility.yul\":634:639   */\n      dup2\n        /* \"#utility.yul\":631:666   */\n      eq\n        /* \"#utility.yul\":621:684   */\n      tag_326\n      jumpi\n        /* \"#utility.yul\":680:681   */\n      0x00\n        /* \"#utility.yul\":677:678   */\n      dup1\n        /* \"#utility.yul\":670:682   */\n      revert\n        /* \"#utility.yul\":621:684   */\n    tag_326:\n        /* \"#utility.yul\":568:690   */\n      pop\n      jump\t// out\n        /* \"#utility.yul\":696:835   */\n    tag_262:\n        /* \"#utility.yul\":742:747   */\n      0x00\n        /* \"#utility.yul\":780:786   */\n      dup2\n        /* \"#utility.yul\":767:787   */\n      calldataload\n        /* \"#utility.yul\":758:787   */\n      swap1\n      pop\n        /* \"#utility.yul\":796:829   */\n      tag_328\n        /* \"#utility.yul\":823:828   */\n      dup2\n        /* \"#utility.yul\":796:829   */\n      tag_261\n      jump\t// in\n    tag_328:\n        /* \"#utility.yul\":696:835   */\n      swap3\n      swap2\n      pop\n      pop\n      jump\t// out\n        /* \"#utility.yul\":841:918   */\n    tag_263:\n        /* \"#utility.yul\":878:885   */\n      0x00\n        /* \"#utility.yul\":907:912   */\n      dup2\n        /* \"#utility.yul\":896:912   */\n      swap1\n      pop\n        /* \"#utility.yul\":841:918   */\n      swap2\n      swap1\n      pop\n      jump\t// out\n        /* \"#utility.yul\":924:1046   */\n    tag_264:\n        /* \"#utility.yul\":997:1021   */\n      tag_331\n        /* \"#utility.yul\":1015:1020   */\n      dup2\n        /* \"#utility.yul\":997:1021   */\n      tag_263\n      jump\t// in\n    tag_331:\n        /* \"#utility.yul\":990:995   */\n      dup2\n        /* \"#utility.yul\":987:1022   */\n      eq\n        /* \"#utility.yul\":977:1040   */\n      tag_332\n      jumpi\n        /* \"#utility.yul\":1036:1037   */\n      0x00\n        /* \"#utility.yul\":1033:1034   */\n      dup1\n        /* \"#utility.yul\":1026:1038   */\n      revert\n        /* \"#utility.yul\":977:1040   */\n    tag_332:\n        /* \"#utility.yul\":924:1046   */\n      pop\n      jump\t// out\n        /* \"#utility.yul\":1052:1191   */\n    tag_265:\n        /* \"#utility.yul\":1098:1103   */\n      0x00\n        /* \"#utility.yul\":1136:1142   */\n      dup2\n        /* \"#utility.yul\":1123:1143   */\n      calldataload\n        /* \"#utility.yul\":1114:1143   */\n      swap1\n      pop\n        /* \"#utility.yul\":1152:1185   */\n      tag_334\n        /* \"#utility.yul\":1179:1184   */\n      dup2\n        /* \"#utility.yul\":1152:1185   */\n      tag_264\n      jump\t// in\n    tag_334:\n        /* \"#utility.yul\":1052:1191   */\n      swap3\n      swap2\n      pop\n      pop\n      jump\t// out\n        /* \"#utility.yul\":1197:1314   */\n    tag_266:\n        /* \"#utility.yul\":1306:1307   */\n      0x00\n        /* \"#utility.yul\":1303:1304   */\n      dup1\n        /* \"#utility.yul\":1296:1308   */\n      revert\n        /* \"#utility.yul\":1320:1437   */\n    tag_267:\n        /* \"#utility.yul\":1429:1430   */\n      0x00\n        /* \"#utility.yul\":1426:1427   */\n      dup1\n        /* \"#utility.yul\":1419:1431   */\n      revert\n        /* \"#utility.yul\":1443:1560   */\n    tag_268:\n        /* \"#utility.yul\":1552:1553   */\n      0x00\n        /* \"#utility.yul\":1549:1550   */\n      dup1\n        /* \"#utility.yul\":1542:1554   */\n      revert\n        /* \"#utility.yul\":1579:2131   */\n    tag_269:\n        /* \"#utility.yul\":1636:1644   */\n      0x00\n        /* \"#utility.yul\":1646:1652   */\n      dup1\n        /* \"#utility.yul\":1696:1699   */\n      dup4\n        /* \"#utility.yul\":1689:1693   */\n      0x1f\n        /* \"#utility.yul\":1681:1687   */\n      dup5\n        /* \"#utility.yul\":1677:1694   */\n      add\n        /* \"#utility.yul\":1673:1700   */\n      slt\n        /* \"#utility.yul\":1663:1785   */\n      tag_339\n      jumpi\n        /* \"#utility.yul\":1704:1783   */\n      tag_340\n      tag_266\n      jump\t// in\n    tag_340:\n        /* \"#utility.yul\":1663:1785   */\n    tag_339:\n        /* \"#utility.yul\":1817:1823   */\n      dup3\n        /* \"#utility.yul\":1804:1824   */\n      calldataload\n        /* \"#utility.yul\":1794:1824   */\n      swap1\n      pop\n        /* \"#utility.yul\":1847:1865   */\n      0xffffffffffffffff\n        /* \"#utility.yul\":1839:1845   */\n      dup2\n        /* \"#utility.yul\":1836:1866   */\n      gt\n        /* \"#utility.yul\":1833:1950   */\n      iszero\n      tag_341\n      jumpi\n        /* \"#utility.yul\":1869:1948   */\n      tag_342\n      tag_267\n      jump\t// in\n    tag_342:\n        /* \"#utility.yul\":1833:1950   */\n    tag_341:\n        /* \"#utility.yul\":1983:1987   */\n      0x20\n        /* \"#utility.yul\":1975:1981   */\n      dup4\n        /* \"#utility.yul\":1971:1988   */\n      add\n        /* \"#utility.yul\":1959:1988   */\n      swap2\n      pop\n        /* \"#utility.yul\":2037:2040   */\n      dup4\n        /* \"#utility.yul\":2029:2033   */\n      0x01\n        /* \"#utility.yul\":2021:2027   */\n      dup3\n        /* \"#utility.yul\":2017:2034   */\n      mul\n        /* \"#utility.yul\":2007:2015   */\n      dup4\n        /* \"#utility.yul\":2003:2035   */\n      add\n        /* \"#utility.yul\":2000:2041   */\n      gt\n        /* \"#utility.yul\":1997:2125   */\n      iszero\n      tag_343\n      jumpi\n        /* \"#utility.yul\":2044:2123   */\n      tag_344\n      tag_268\n      jump\t// in\n    tag_344:\n        /* \"#utility.yul\":1997:2125   */\n    tag_343:\n        /* \"#utility.yul\":1579:2131   */\n      swap3\n      pop\n      swap3\n      swap1\n      pop\n      jump\t// out\n        /* \"#utility.yul\":2137:3100   */\n    tag_23:\n        /* \"#utility.yul\":2234:2240   */\n      0x00\n        /* \"#utility.yul\":2242:2248   */\n      dup1\n        /* \"#utility.yul\":2250:2256   */\n      0x00\n        /* \"#utility.yul\":2258:2264   */\n      dup1\n        /* \"#utility.yul\":2266:2272   */\n      0x00\n        /* \"#utility.yul\":2315:2318   */\n      0x80\n        /* \"#utility.yul\":2303:2312   */\n      dup7\n        /* \"#utility.yul\":2294:2301   */\n      dup9\n        /* \"#utility.yul\":2290:2313   */\n      sub\n        /* \"#utility.yul\":2286:2319   */\n      slt\n        /* \"#utility.yul\":2283:2403   */\n      iszero\n      tag_346\n      jumpi\n        /* \"#utility.yul\":2322:2401   */\n      tag_347\n      tag_257\n      jump\t// in\n    tag_347:\n        /* \"#utility.yul\":2283:2403   */\n    tag_346:\n        /* \"#utility.yul\":2442:2443   */\n      0x00\n        /* \"#utility.yul\":2467:2520   */\n      tag_348\n        /* \"#utility.yul\":2512:2519   */\n      dup9\n        /* \"#utility.yul\":2503:2509   */\n      dup3\n        /* \"#utility.yul\":2492:2501   */\n      dup10\n        /* \"#utility.yul\":2488:2510   */\n      add\n        /* \"#utility.yul\":2467:2520   */\n      tag_262\n      jump\t// in\n    tag_348:\n        /* \"#utility.yul\":2457:2520   */\n      swap6\n      pop\n        /* \"#utility.yul\":2413:2530   */\n      pop\n        /* \"#utility.yul\":2569:2571   */\n      0x20\n        /* \"#utility.yul\":2595:2648   */\n      tag_349\n        /* \"#utility.yul\":2640:2647   */\n      dup9\n        /* \"#utility.yul\":2631:2637   */\n      dup3\n        /* \"#utility.yul\":2620:2629   */\n      dup10\n        /* \"#utility.yul\":2616:2638   */\n      add\n        /* \"#utility.yul\":2595:2648   */\n      tag_262\n      jump\t// in\n    tag_349:\n        /* \"#utility.yul\":2585:2648   */\n      swap5\n      pop\n        /* \"#utility.yul\":2540:2658   */\n      pop\n        /* \"#utility.yul\":2697:2699   */\n      0x40\n        /* \"#utility.yul\":2723:2776   */\n      tag_350\n        /* \"#utility.yul\":2768:2775   */\n      dup9\n        /* \"#utility.yul\":2759:2765   */\n      dup3\n        /* \"#utility.yul\":2748:2757   */\n      dup10\n        /* \"#utility.yul\":2744:2766   */\n      add\n        /* \"#utility.yul\":2723:2776   */\n      tag_265\n      jump\t// in\n    tag_350:\n        /* \"#utility.yul\":2713:2776   */\n      swap4\n      pop\n        /* \"#utility.yul\":2668:2786   */\n      pop\n        /* \"#utility.yul\":2853:2855   */\n      0x60\n        /* \"#utility.yul\":2842:2851   */\n      dup7\n        /* \"#utility.yul\":2838:2856   */\n      add\n        /* \"#utility.yul\":2825:2857   */\n      calldataload\n        /* \"#utility.yul\":2884:2902   */\n      0xffffffffffffffff\n        /* \"#utility.yul\":2876:2882   */\n      dup2\n        /* \"#utility.yul\":2873:2903   */\n      gt\n        /* \"#utility.yul\":2870:2987   */\n      iszero\n      tag_351\n      jumpi\n        /* \"#utility.yul\":2906:2985   */\n      tag_352\n      tag_258\n      jump\t// in\n    tag_352:\n        /* \"#utility.yul\":2870:2987   */\n    tag_351:\n        /* \"#utility.yul\":3019:3083   */\n      tag_353\n        /* \"#utility.yul\":3075:3082   */\n      dup9\n        /* \"#utility.yul\":3066:3072   */\n      dup3\n        /* \"#utility.yul\":3055:3064   */\n      dup10\n        /* \"#utility.yul\":3051:3073   */\n      add\n        /* \"#utility.yul\":3019:3083   */\n      tag_269\n      jump\t// in\n    tag_353:\n        /* \"#utility.yul\":3001:3083   */\n      swap3\n      pop\n      swap3\n      pop\n        /* \"#utility.yul\":2796:3093   */\n      pop\n        /* \"#utility.yul\":2137:3100   */\n      swap3\n      swap6\n      pop\n      swap3\n      swap6\n      swap1\n      swap4\n      pop\n      jump\t// out\n        /* \"#utility.yul\":3106:3255   */\n    tag_270:\n        /* \"#utility.yul\":3142:3149   */\n      0x00\n        /* \"#utility.yul\":3182:3248   */\n      0xffffffff00000000000000000000000000000000000000000000000000000000\n        /* \"#utility.yul\":3175:3180   */\n      dup3\n        /* \"#utility.yul\":3171:3249   */\n      and\n        /* \"#utility.yul\":3160:3249   */\n      swap1\n      pop\n        /* \"#utility.yul\":3106:3255   */\n      swap2\n      swap1\n      pop\n      jump\t// out\n        /* \"#utility.yul\":3261:3376   */\n    tag_271:\n        /* \"#utility.yul\":3346:3369   */\n      tag_356\n        /* \"#utility.yul\":3363:3368   */\n      dup2\n        /* \"#utility.yul\":3346:3369   */\n      tag_270\n      jump\t// in\n    tag_356:\n        /* \"#utility.yul\":3341:3344   */\n      dup3\n        /* \"#utility.yul\":3334:3370   */\n      mstore\n        /* \"#utility.yul\":3261:3376   */\n      pop\n      pop\n      jump\t// out\n        /* \"#utility.yul\":3382:3600   */\n    tag_26:\n        /* \"#utility.yul\":3473:3477   */\n      0x00\n        /* \"#utility.yul\":3511:3513   */\n      0x20\n        /* \"#utility.yul\":3500:3509   */\n      dup3\n        /* \"#utility.yul\":3496:3514   */\n      add\n        /* \"#utility.yul\":3488:3514   */\n      swap1\n      pop\n        /* \"#utility.yul\":3524:3593   */\n      tag_358\n        /* \"#utility.yul\":3590:3591   */\n      0x00\n        /* \"#utility.yul\":3579:3588   */\n      dup4\n        /* \"#utility.yul\":3575:3592   */\n      add\n        /* \"#utility.yul\":3566:3572   */\n      dup5\n        /* \"#utility.yul\":3524:3593   */\n      tag_271\n      jump\t// in\n    tag_358:\n        /* \"#utility.yul\":3382:3600   */\n      swap3\n      swap2\n      pop\n      pop\n      jump\t// out\n        /* \"#utility.yul\":3606:3724   */\n    tag_272:\n        /* \"#utility.yul\":3693:3717   */\n      tag_360\n        /* \"#utility.yul\":3711:3716   */\n      dup2\n        /* \"#utility.yul\":3693:3717   */\n      tag_263\n      jump\t// in\n    tag_360:\n        /* \"#utility.yul\":3688:3691   */\n      dup3\n        /* \"#utility.yul\":3681:3718   */\n      mstore\n        /* \"#utility.yul\":3606:3724   */\n      pop\n      pop\n      jump\t// out\n        /* \"#utility.yul\":3730:3952   */\n    tag_30:\n        /* \"#utility.yul\":3823:3827   */\n      0x00\n        /* \"#utility.yul\":3861:3863   */\n      0x20\n        /* \"#utility.yul\":3850:3859   */\n      dup3\n        /* \"#utility.yul\":3846:3864   */\n      add\n        /* \"#utility.yul\":3838:3864   */\n      swap1\n      pop\n        /* \"#utility.yul\":3874:3945   */\n      tag_362\n        /* \"#utility.yul\":3942:3943   */\n      0x00\n        /* \"#utility.yul\":3931:3940   */\n      dup4\n        /* \"#utility.yul\":3927:3944   */\n      add\n        /* \"#utility.yul\":3918:3924   */\n      dup5\n        /* \"#utility.yul\":3874:3945   */\n      tag_272\n      jump\t// in\n    tag_362:\n        /* \"#utility.yul\":3730:3952   */\n      swap3\n      swap2\n      pop\n      pop\n      jump\t// out\n        /* \"#utility.yul\":3958:4287   */\n    tag_39:\n        /* \"#utility.yul\":4017:4023   */\n      0x00\n        /* \"#utility.yul\":4066:4068   */\n      0x20\n        /* \"#utility.yul\":4054:4063   */\n      dup3\n        /* \"#utility.yul\":4045:4052   */\n      dup5\n        /* \"#utility.yul\":4041:4064   */\n      sub\n        /* \"#utility.yul\":4037:4069   */\n      slt\n        /* \"#utility.yul\":4034:4153   */\n      iszero\n      tag_364\n      jumpi\n        /* \"#utility.yul\":4072:4151   */\n      tag_365\n      tag_257\n      jump\t// in\n    tag_365:\n        /* \"#utility.yul\":4034:4153   */\n    tag_364:\n        /* \"#utility.yul\":4192:4193   */\n      0x00\n        /* \"#utility.yul\":4217:4270   */\n      tag_366\n        /* \"#utility.yul\":4262:4269   */\n      dup5\n        /* \"#utility.yul\":4253:4259   */\n      dup3\n        /* \"#utility.yul\":4242:4251   */\n      dup6\n        /* \"#utility.yul\":4238:4260   */\n      add\n        /* \"#utility.yul\":4217:4270   */\n      tag_262\n      jump\t// in\n    tag_366:\n        /* \"#utility.yul\":4207:4270   */\n      swap2\n      pop\n        /* \"#utility.yul\":4163:4280   */\n      pop\n        /* \"#utility.yul\":3958:4287   */\n      swap3\n      swap2\n      pop\n      pop\n      jump\t// out\n        /* \"#utility.yul\":4293:4411   */\n    tag_273:\n        /* \"#utility.yul\":4380:4404   */\n      tag_368\n        /* \"#utility.yul\":4398:4403   */\n      dup2\n        /* \"#utility.yul\":4380:4404   */\n      tag_260\n      jump\t// in\n    tag_368:\n        /* \"#utility.yul\":4375:4378   */\n      dup3\n        /* \"#utility.yul\":4368:4405   */\n      mstore\n        /* \"#utility.yul\":4293:4411   */\n      pop\n      pop\n      jump\t// out\n        /* \"#utility.yul\":4417:4639   */\n    tag_46:\n        /* \"#utility.yul\":4510:4514   */\n      0x00\n        /* \"#utility.yul\":4548:4550   */\n      0x20\n        /* \"#utility.yul\":4537:4546   */\n      dup3\n        /* \"#utility.yul\":4533:4551   */\n      add\n        /* \"#utility.yul\":4525:4551   */\n      swap1\n      pop\n        /* \"#utility.yul\":4561:4632   */\n      tag_370\n        /* \"#utility.yul\":4629:4630   */\n      0x00\n        /* \"#utility.yul\":4618:4627   */\n      dup4\n        /* \"#utility.yul\":4614:4631   */\n      add\n        /* \"#utility.yul\":4605:4611   */\n      dup5\n        /* \"#utility.yul\":4561:4632   */\n      tag_273\n      jump\t// in\n    tag_370:\n        /* \"#utility.yul\":4417:4639   */\n      swap3\n      swap2\n      pop\n      pop\n      jump\t// out\n        /* \"#utility.yul\":4645:4735   */\n    tag_274:\n        /* \"#utility.yul\":4679:4686   */\n      0x00\n        /* \"#utility.yul\":4722:4727   */\n      dup2\n        /* \"#utility.yul\":4715:4728   */\n      iszero\n        /* \"#utility.yul\":4708:4729   */\n      iszero\n        /* \"#utility.yul\":4697:4729   */\n      swap1\n      pop\n        /* \"#utility.yul\":4645:4735   */\n      swap2\n      swap1\n      pop\n      jump\t// out\n        /* \"#utility.yul\":4741:4850   */\n    tag_275:\n        /* \"#utility.yul\":4822:4843   */\n      tag_373\n        /* \"#utility.yul\":4837:4842   */\n      dup2\n        /* \"#utility.yul\":4822:4843   */\n      tag_274\n      jump\t// in\n    tag_373:\n        /* \"#utility.yul\":4817:4820   */\n      dup3\n        /* \"#utility.yul\":4810:4844   */\n      mstore\n        /* \"#utility.yul\":4741:4850   */\n      pop\n      pop\n      jump\t// out\n        /* \"#utility.yul\":4856:5508   */\n    tag_57:\n        /* \"#utility.yul\":5055:5059   */\n      0x00\n        /* \"#utility.yul\":5093:5096   */\n      0xa0\n        /* \"#utility.yul\":5082:5091   */\n      dup3\n        /* \"#utility.yul\":5078:5097   */\n      add\n        /* \"#utility.yul\":5070:5097   */\n      swap1\n      pop\n        /* \"#utility.yul\":5107:5178   */\n      tag_375\n        /* \"#utility.yul\":5175:5176   */\n      0x00\n        /* \"#utility.yul\":5164:5173   */\n      dup4\n        /* \"#utility.yul\":5160:5177   */\n      add\n        /* \"#utility.yul\":5151:5157   */\n      dup9\n        /* \"#utility.yul\":5107:5178   */\n      tag_272\n      jump\t// in\n    tag_375:\n        /* \"#utility.yul\":5188:5260   */\n      tag_376\n        /* \"#utility.yul\":5256:5258   */\n      0x20\n        /* \"#utility.yul\":5245:5254   */\n      dup4\n        /* \"#utility.yul\":5241:5259   */\n      add\n        /* \"#utility.yul\":5232:5238   */\n      dup8\n        /* \"#utility.yul\":5188:5260   */\n      tag_272\n      jump\t// in\n    tag_376:\n        /* \"#utility.yul\":5270:5342   */\n      tag_377\n        /* \"#utility.yul\":5338:5340   */\n      0x40\n        /* \"#utility.yul\":5327:5336   */\n      dup4\n        /* \"#utility.yul\":5323:5341   */\n      add\n        /* \"#utility.yul\":5314:5320   */\n      dup7\n        /* \"#utility.yul\":5270:5342   */\n      tag_272\n      jump\t// in\n    tag_377:\n        /* \"#utility.yul\":5352:5424   */\n      tag_378\n        /* \"#utility.yul\":5420:5422   */\n      0x60\n        /* \"#utility.yul\":5409:5418   */\n      dup4\n        /* \"#utility.yul\":5405:5423   */\n      add\n        /* \"#utility.yul\":5396:5402   */\n      dup6\n        /* \"#utility.yul\":5352:5424   */\n      tag_272\n      jump\t// in\n    tag_378:\n        /* \"#utility.yul\":5434:5501   */\n      tag_379\n        /* \"#utility.yul\":5496:5499   */\n      0x80\n        /* \"#utility.yul\":5485:5494   */\n      dup4\n        /* \"#utility.yul\":5481:5500   */\n      add\n        /* \"#utility.yul\":5472:5478   */\n      dup5\n        /* \"#utility.yul\":5434:5501   */\n      tag_275\n      jump\t// in\n    tag_379:\n        /* \"#utility.yul\":4856:5508   */\n      swap7\n      swap6\n      pop\n      pop\n      pop\n      pop\n      pop\n      pop\n      jump\t// out\n        /* \"#utility.yul\":5514:5843   */\n    tag_63:\n        /* \"#utility.yul\":5573:5579   */\n      0x00\n        /* \"#utility.yul\":5622:5624   */\n      0x20\n        /* \"#utility.yul\":5610:5619   */\n      dup3\n        /* \"#utility.yul\":5601:5608   */\n      dup5\n        /* \"#utility.yul\":5597:5620   */\n      sub\n        /* \"#utility.yul\":5593:5625   */\n      slt\n        /* \"#utility.yul\":5590:5709   */\n      iszero\n      tag_381\n      jumpi\n        /* \"#utility.yul\":5628:5707   */\n      tag_382\n      tag_257\n      jump\t// in\n    tag_382:\n        /* \"#utility.yul\":5590:5709   */\n    tag_381:\n        /* \"#utility.yul\":5748:5749   */\n      0x00\n        /* \"#utility.yul\":5773:5826   */\n      tag_383\n        /* \"#utility.yul\":5818:5825   */\n      dup5\n        /* \"#utility.yul\":5809:5815   */\n      dup3\n        /* \"#utility.yul\":5798:5807   */\n      dup6\n        /* \"#utility.yul\":5794:5816   */\n      add\n        /* \"#utility.yul\":5773:5826   */\n      tag_265\n      jump\t// in\n    tag_383:\n        /* \"#utility.yul\":5763:5826   */\n      swap2\n      pop\n        /* \"#utility.yul\":5719:5836   */\n      pop\n        /* \"#utility.yul\":5514:5843   */\n      swap3\n      swap2\n      pop\n      pop\n      jump\t// out\n        /* \"#utility.yul\":5849:6323   */\n    tag_67:\n        /* \"#utility.yul\":5917:5923   */\n      0x00\n        /* \"#utility.yul\":5925:5931   */\n      dup1\n        /* \"#utility.yul\":5974:5976   */\n      0x40\n        /* \"#utility.yul\":5962:5971   */\n      dup4\n        /* \"#utility.yul\":5953:5960   */\n      dup6\n        /* \"#utility.yul\":5949:5972   */\n      sub\n        /* \"#utility.yul\":5945:5977   */\n      slt\n        /* \"#utility.yul\":5942:6061   */\n      iszero\n      tag_385\n      jumpi\n        /* \"#utility.yul\":5980:6059   */\n      tag_386\n      tag_257\n      jump\t// in\n    tag_386:\n        /* \"#utility.yul\":5942:6061   */\n    tag_385:\n        /* \"#utility.yul\":6100:6101   */\n      0x00\n        /* \"#utility.yul\":6125:6178   */\n      tag_387\n        /* \"#utility.yul\":6170:6177   */\n      dup6\n        /* \"#utility.yul\":6161:6167   */\n      dup3\n        /* \"#utility.yul\":6150:6159   */\n      dup7\n        /* \"#utility.yul\":6146:6168   */\n      add\n        /* \"#utility.yul\":6125:6178   */\n      tag_265\n      jump\t// in\n    tag_387:\n        /* \"#utility.yul\":6115:6178   */\n      swap3\n      pop\n        /* \"#utility.yul\":6071:6188   */\n      pop\n        /* \"#utility.yul\":6227:6229   */\n      0x20\n        /* \"#utility.yul\":6253:6306   */\n      tag_388\n        /* \"#utility.yul\":6298:6305   */\n      dup6\n        /* \"#utility.yul\":6289:6295   */\n      dup3\n        /* \"#utility.yul\":6278:6287   */\n      dup7\n        /* \"#utility.yul\":6274:6296   */\n      add\n        /* \"#utility.yul\":6253:6306   */\n      tag_265\n      jump\t// in\n    tag_388:\n        /* \"#utility.yul\":6243:6306   */\n      swap2\n      pop\n        /* \"#utility.yul\":6198:6316   */\n      pop\n        /* \"#utility.yul\":5849:6323   */\n      swap3\n      pop\n      swap3\n      swap1\n      pop\n      jump\t// out\n        /* \"#utility.yul\":6329:6498   */\n    tag_276:\n        /* \"#utility.yul\":6413:6424   */\n      0x00\n        /* \"#utility.yul\":6447:6453   */\n      dup3\n        /* \"#utility.yul\":6442:6445   */\n      dup3\n        /* \"#utility.yul\":6435:6454   */\n      mstore\n        /* \"#utility.yul\":6487:6491   */\n      0x20\n        /* \"#utility.yul\":6482:6485   */\n      dup3\n        /* \"#utility.yul\":6478:6492   */\n      add\n        /* \"#utility.yul\":6463:6492   */\n      swap1\n      pop\n        /* \"#utility.yul\":6329:6498   */\n      swap3\n      swap2\n      pop\n      pop\n      jump\t// out\n        /* \"#utility.yul\":6504:6682   */\n    tag_277:\n        /* \"#utility.yul\":6644:6674   */\n      0x506c65617365204669727374204465706f736974204e46542021212100000000\n        /* \"#utility.yul\":6640:6641   */\n      0x00\n        /* \"#utility.yul\":6632:6638   */\n      dup3\n        /* \"#utility.yul\":6628:6642   */\n      add\n        /* \"#utility.yul\":6621:6675   */\n      mstore\n        /* \"#utility.yul\":6504:6682   */\n      pop\n      jump\t// out\n        /* \"#utility.yul\":6688:7054   */\n    tag_278:\n        /* \"#utility.yul\":6830:6833   */\n      0x00\n        /* \"#utility.yul\":6851:6918   */\n      tag_392\n        /* \"#utility.yul\":6915:6917   */\n      0x1c\n        /* \"#utility.yul\":6910:6913   */\n      dup4\n        /* \"#utility.yul\":6851:6918   */\n      tag_276\n      jump\t// in\n    tag_392:\n        /* \"#utility.yul\":6844:6918   */\n      swap2\n      pop\n        /* \"#utility.yul\":6927:7020   */\n      tag_393\n        /* \"#utility.yul\":7016:7019   */\n      dup3\n        /* \"#utility.yul\":6927:7020   */\n      tag_277\n      jump\t// in\n    tag_393:\n        /* \"#utility.yul\":7045:7047   */\n      0x20\n        /* \"#utility.yul\":7040:7043   */\n      dup3\n        /* \"#utility.yul\":7036:7048   */\n      add\n        /* \"#utility.yul\":7029:7048   */\n      swap1\n      pop\n        /* \"#utility.yul\":6688:7054   */\n      swap2\n      swap1\n      pop\n      jump\t// out\n        /* \"#utility.yul\":7060:7479   */\n    tag_79:\n        /* \"#utility.yul\":7226:7230   */\n      0x00\n        /* \"#utility.yul\":7264:7266   */\n      0x20\n        /* \"#utility.yul\":7253:7262   */\n      dup3\n        /* \"#utility.yul\":7249:7267   */\n      add\n        /* \"#utility.yul\":7241:7267   */\n      swap1\n      pop\n        /* \"#utility.yul\":7313:7322   */\n      dup2\n        /* \"#utility.yul\":7307:7311   */\n      dup2\n        /* \"#utility.yul\":7303:7323   */\n      sub\n        /* \"#utility.yul\":7299:7300   */\n      0x00\n        /* \"#utility.yul\":7288:7297   */\n      dup4\n        /* \"#utility.yul\":7284:7301   */\n      add\n        /* \"#utility.yul\":7277:7324   */\n      mstore\n        /* \"#utility.yul\":7341:7472   */\n      tag_395\n        /* \"#utility.yul\":7467:7471   */\n      dup2\n        /* \"#utility.yul\":7341:7472   */\n      tag_278\n      jump\t// in\n    tag_395:\n        /* \"#utility.yul\":7333:7472   */\n      swap1\n      pop\n        /* \"#utility.yul\":7060:7479   */\n      swap2\n      swap1\n      pop\n      jump\t// out\n        /* \"#utility.yul\":7485:7665   */\n    tag_279:\n        /* \"#utility.yul\":7533:7610   */\n      0x4e487b7100000000000000000000000000000000000000000000000000000000\n        /* \"#utility.yul\":7530:7531   */\n      0x00\n        /* \"#utility.yul\":7523:7611   */\n      mstore\n        /* \"#utility.yul\":7630:7634   */\n      0x11\n        /* \"#utility.yul\":7627:7628   */\n      0x04\n        /* \"#utility.yul\":7620:7635   */\n      mstore\n        /* \"#utility.yul\":7654:7658   */\n      0x24\n        /* \"#utility.yul\":7651:7652   */\n      0x00\n        /* \"#utility.yul\":7644:7659   */\n      revert\n        /* \"#utility.yul\":7671:7865   */\n    tag_81:\n        /* \"#utility.yul\":7711:7715   */\n      0x00\n        /* \"#utility.yul\":7731:7751   */\n      tag_398\n        /* \"#utility.yul\":7749:7750   */\n      dup3\n        /* \"#utility.yul\":7731:7751   */\n      tag_263\n      jump\t// in\n    tag_398:\n        /* \"#utility.yul\":7726:7751   */\n      swap2\n      pop\n        /* \"#utility.yul\":7765:7785   */\n      tag_399\n        /* \"#utility.yul\":7783:7784   */\n      dup4\n        /* \"#utility.yul\":7765:7785   */\n      tag_263\n      jump\t// in\n    tag_399:\n        /* \"#utility.yul\":7760:7785   */\n      swap3\n      pop\n        /* \"#utility.yul\":7809:7810   */\n      dup3\n        /* \"#utility.yul\":7806:7807   */\n      dup3\n        /* \"#utility.yul\":7802:7811   */\n      sub\n        /* \"#utility.yul\":7794:7811   */\n      swap1\n      pop\n        /* \"#utility.yul\":7833:7834   */\n      dup2\n        /* \"#utility.yul\":7827:7831   */\n      dup2\n        /* \"#utility.yul\":7824:7835   */\n      gt\n        /* \"#utility.yul\":7821:7858   */\n      iszero\n      tag_400\n      jumpi\n        /* \"#utility.yul\":7838:7856   */\n      tag_401\n      tag_279\n      jump\t// in\n    tag_401:\n        /* \"#utility.yul\":7821:7858   */\n    tag_400:\n        /* \"#utility.yul\":7671:7865   */\n      swap3\n      swap2\n      pop\n      pop\n      jump\t// out\n        /* \"#utility.yul\":7871:8051   */\n    tag_280:\n        /* \"#utility.yul\":7919:7996   */\n      0x4e487b7100000000000000000000000000000000000000000000000000000000\n        /* \"#utility.yul\":7916:7917   */\n      0x00\n        /* \"#utility.yul\":7909:7997   */\n      mstore\n        /* \"#utility.yul\":8016:8020   */\n      0x12\n        /* \"#utility.yul\":8013:8014   */\n      0x04\n        /* \"#utility.yul\":8006:8021   */\n      mstore\n        /* \"#utility.yul\":8040:8044   */\n      0x24\n        /* \"#utility.yul\":8037:8038   */\n      0x00\n        /* \"#utility.yul\":8030:8045   */\n      revert\n        /* \"#utility.yul\":8057:8242   */\n    tag_83:\n        /* \"#utility.yul\":8097:8098   */\n      0x00\n        /* \"#utility.yul\":8114:8134   */\n      tag_404\n        /* \"#utility.yul\":8132:8133   */\n      dup3\n        /* \"#utility.yul\":8114:8134   */\n      tag_263\n      jump\t// in\n    tag_404:\n        /* \"#utility.yul\":8109:8134   */\n      swap2\n      pop\n        /* \"#utility.yul\":8148:8168   */\n      tag_405\n        /* \"#utility.yul\":8166:8167   */\n      dup4\n        /* \"#utility.yul\":8148:8168   */\n      tag_263\n      jump\t// in\n    tag_405:\n        /* \"#utility.yul\":8143:8168   */\n      swap3\n      pop\n        /* \"#utility.yul\":8187:8188   */\n      dup3\n        /* \"#utility.yul\":8177:8212   */\n      tag_406\n      jumpi\n        /* \"#utility.yul\":8192:8210   */\n      tag_407\n      tag_280\n      jump\t// in\n    tag_407:\n        /* \"#utility.yul\":8177:8212   */\n    tag_406:\n        /* \"#utility.yul\":8234:8235   */\n      dup3\n        /* \"#utility.yul\":8231:8232   */\n      dup3\n        /* \"#utility.yul\":8227:8236   */\n      div\n        /* \"#utility.yul\":8222:8236   */\n      swap1\n      pop\n        /* \"#utility.yul\":8057:8242   */\n      swap3\n      swap2\n      pop\n      pop\n      jump\t// out\n        /* \"#utility.yul\":8248:8658   */\n    tag_87:\n        /* \"#utility.yul\":8288:8295   */\n      0x00\n        /* \"#utility.yul\":8311:8331   */\n      tag_409\n        /* \"#utility.yul\":8329:8330   */\n      dup3\n        /* \"#utility.yul\":8311:8331   */\n      tag_263\n      jump\t// in\n    tag_409:\n        /* \"#utility.yul\":8306:8331   */\n      swap2\n      pop\n        /* \"#utility.yul\":8345:8365   */\n      tag_410\n        /* \"#utility.yul\":8363:8364   */\n      dup4\n        /* \"#utility.yul\":8345:8365   */\n      tag_263\n      jump\t// in\n    tag_410:\n        /* \"#utility.yul\":8340:8365   */\n      swap3\n      pop\n        /* \"#utility.yul\":8400:8401   */\n      dup3\n        /* \"#utility.yul\":8397:8398   */\n      dup3\n        /* \"#utility.yul\":8393:8402   */\n      mul\n        /* \"#utility.yul\":8422:8452   */\n      tag_411\n        /* \"#utility.yul\":8440:8451   */\n      dup2\n        /* \"#utility.yul\":8422:8452   */\n      tag_263\n      jump\t// in\n    tag_411:\n        /* \"#utility.yul\":8411:8452   */\n      swap2\n      pop\n        /* \"#utility.yul\":8601:8602   */\n      dup3\n        /* \"#utility.yul\":8592:8599   */\n      dup3\n        /* \"#utility.yul\":8588:8603   */\n      div\n        /* \"#utility.yul\":8585:8586   */\n      dup5\n        /* \"#utility.yul\":8582:8604   */\n      eq\n        /* \"#utility.yul\":8562:8563   */\n      dup4\n        /* \"#utility.yul\":8555:8564   */\n      iszero\n        /* \"#utility.yul\":8535:8618   */\n      or\n        /* \"#utility.yul\":8512:8651   */\n      tag_412\n      jumpi\n        /* \"#utility.yul\":8631:8649   */\n      tag_413\n      tag_279\n      jump\t// in\n    tag_413:\n        /* \"#utility.yul\":8512:8651   */\n    tag_412:\n        /* \"#utility.yul\":8296:8658   */\n      pop\n        /* \"#utility.yul\":8248:8658   */\n      swap3\n      swap2\n      pop\n      pop\n      jump\t// out\n        /* \"#utility.yul\":8664:8832   */\n    tag_281:\n        /* \"#utility.yul\":8747:8758   */\n      0x00\n        /* \"#utility.yul\":8781:8787   */\n      dup3\n        /* \"#utility.yul\":8776:8779   */\n      dup3\n        /* \"#utility.yul\":8769:8788   */\n      mstore\n        /* \"#utility.yul\":8821:8825   */\n      0x20\n        /* \"#utility.yul\":8816:8819   */\n      dup3\n        /* \"#utility.yul\":8812:8826   */\n      add\n        /* \"#utility.yul\":8797:8826   */\n      swap1\n      pop\n        /* \"#utility.yul\":8664:8832   */\n      swap3\n      swap2\n      pop\n      pop\n      jump\t// out\n        /* \"#utility.yul\":8838:8952   */\n    tag_282:\n      pop\n      jump\t// out\n        /* \"#utility.yul\":8958:9320   */\n    tag_283:\n        /* \"#utility.yul\":9099:9102   */\n      0x00\n        /* \"#utility.yul\":9120:9185   */\n      tag_417\n        /* \"#utility.yul\":9183:9184   */\n      0x00\n        /* \"#utility.yul\":9178:9181   */\n      dup4\n        /* \"#utility.yul\":9120:9185   */\n      tag_281\n      jump\t// in\n    tag_417:\n        /* \"#utility.yul\":9113:9185   */\n      swap2\n      pop\n        /* \"#utility.yul\":9194:9287   */\n      tag_418\n        /* \"#utility.yul\":9283:9286   */\n      dup3\n        /* \"#utility.yul\":9194:9287   */\n      tag_282\n      jump\t// in\n    tag_418:\n        /* \"#utility.yul\":9312:9313   */\n      0x00\n        /* \"#utility.yul\":9307:9310   */\n      dup3\n        /* \"#utility.yul\":9303:9314   */\n      add\n        /* \"#utility.yul\":9296:9314   */\n      swap1\n      pop\n        /* \"#utility.yul\":8958:9320   */\n      swap2\n      swap1\n      pop\n      jump\t// out\n        /* \"#utility.yul\":9326:10074   */\n    tag_95:\n        /* \"#utility.yul\":9575:9579   */\n      0x00\n        /* \"#utility.yul\":9613:9616   */\n      0x80\n        /* \"#utility.yul\":9602:9611   */\n      dup3\n        /* \"#utility.yul\":9598:9617   */\n      add\n        /* \"#utility.yul\":9590:9617   */\n      swap1\n      pop\n        /* \"#utility.yul\":9627:9698   */\n      tag_420\n        /* \"#utility.yul\":9695:9696   */\n      0x00\n        /* \"#utility.yul\":9684:9693   */\n      dup4\n        /* \"#utility.yul\":9680:9697   */\n      add\n        /* \"#utility.yul\":9671:9677   */\n      dup7\n        /* \"#utility.yul\":9627:9698   */\n      tag_273\n      jump\t// in\n    tag_420:\n        /* \"#utility.yul\":9708:9780   */\n      tag_421\n        /* \"#utility.yul\":9776:9778   */\n      0x20\n        /* \"#utility.yul\":9765:9774   */\n      dup4\n        /* \"#utility.yul\":9761:9779   */\n      add\n        /* \"#utility.yul\":9752:9758   */\n      dup6\n        /* \"#utility.yul\":9708:9780   */\n      tag_273\n      jump\t// in\n    tag_421:\n        /* \"#utility.yul\":9790:9862   */\n      tag_422\n        /* \"#utility.yul\":9858:9860   */\n      0x40\n        /* \"#utility.yul\":9847:9856   */\n      dup4\n        /* \"#utility.yul\":9843:9861   */\n      add\n        /* \"#utility.yul\":9834:9840   */\n      dup5\n        /* \"#utility.yul\":9790:9862   */\n      tag_272\n      jump\t// in\n    tag_422:\n        /* \"#utility.yul\":9909:9918   */\n      dup2\n        /* \"#utility.yul\":9903:9907   */\n      dup2\n        /* \"#utility.yul\":9899:9919   */\n      sub\n        /* \"#utility.yul\":9894:9896   */\n      0x60\n        /* \"#utility.yul\":9883:9892   */\n      dup4\n        /* \"#utility.yul\":9879:9897   */\n      add\n        /* \"#utility.yul\":9872:9920   */\n      mstore\n        /* \"#utility.yul\":9937:10067   */\n      tag_423\n        /* \"#utility.yul\":10062:10066   */\n      dup2\n        /* \"#utility.yul\":9937:10067   */\n      tag_283\n      jump\t// in\n    tag_423:\n        /* \"#utility.yul\":9929:10067   */\n      swap1\n      pop\n        /* \"#utility.yul\":9326:10074   */\n      swap5\n      swap4\n      pop\n      pop\n      pop\n      pop\n      jump\t// out\n        /* \"#utility.yul\":10080:10271   */\n    tag_130:\n        /* \"#utility.yul\":10120:10123   */\n      0x00\n        /* \"#utility.yul\":10139:10159   */\n      tag_425\n        /* \"#utility.yul\":10157:10158   */\n      dup3\n        /* \"#utility.yul\":10139:10159   */\n      tag_263\n      jump\t// in\n    tag_425:\n        /* \"#utility.yul\":10134:10159   */\n      swap2\n      pop\n        /* \"#utility.yul\":10173:10193   */\n      tag_426\n        /* \"#utility.yul\":10191:10192   */\n      dup4\n        /* \"#utility.yul\":10173:10193   */\n      tag_263\n      jump\t// in\n    tag_426:\n        /* \"#utility.yul\":10168:10193   */\n      swap3\n      pop\n        /* \"#utility.yul\":10216:10217   */\n      dup3\n        /* \"#utility.yul\":10213:10214   */\n      dup3\n        /* \"#utility.yul\":10209:10218   */\n      add\n        /* \"#utility.yul\":10202:10218   */\n      swap1\n      pop\n        /* \"#utility.yul\":10237:10240   */\n      dup1\n        /* \"#utility.yul\":10234:10235   */\n      dup3\n        /* \"#utility.yul\":10231:10241   */\n      gt\n        /* \"#utility.yul\":10228:10264   */\n      iszero\n      tag_427\n      jumpi\n        /* \"#utility.yul\":10244:10262   */\n      tag_428\n      tag_279\n      jump\t// in\n    tag_428:\n        /* \"#utility.yul\":10228:10264   */\n    tag_427:\n        /* \"#utility.yul\":10080:10271   */\n      swap3\n      swap2\n      pop\n      pop\n      jump\t// out\n        /* \"#utility.yul\":10277:10450   */\n    tag_284:\n        /* \"#utility.yul\":10417:10442   */\n      0x596f7520416c7265616479204465706f736974204e4654000000000000000000\n        /* \"#utility.yul\":10413:10414   */\n      0x00\n        /* \"#utility.yul\":10405:10411   */\n      dup3\n        /* \"#utility.yul\":10401:10415   */\n      add\n        /* \"#utility.yul\":10394:10443   */\n      mstore\n        /* \"#utility.yul\":10277:10450   */\n      pop\n      jump\t// out\n        /* \"#utility.yul\":10456:10822   */\n    tag_285:\n        /* \"#utility.yul\":10598:10601   */\n      0x00\n        /* \"#utility.yul\":10619:10686   */\n      tag_431\n        /* \"#utility.yul\":10683:10685   */\n      0x17\n        /* \"#utility.yul\":10678:10681   */\n      dup4\n        /* \"#utility.yul\":10619:10686   */\n      tag_276\n      jump\t// in\n    tag_431:\n        /* \"#utility.yul\":10612:10686   */\n      swap2\n      pop\n        /* \"#utility.yul\":10695:10788   */\n      tag_432\n        /* \"#utility.yul\":10784:10787   */\n      dup3\n        /* \"#utility.yul\":10695:10788   */\n      tag_284\n      jump\t// in\n    tag_432:\n        /* \"#utility.yul\":10813:10815   */\n      0x20\n        /* \"#utility.yul\":10808:10811   */\n      dup3\n        /* \"#utility.yul\":10804:10816   */\n      add\n        /* \"#utility.yul\":10797:10816   */\n      swap1\n      pop\n        /* \"#utility.yul\":10456:10822   */\n      swap2\n      swap1\n      pop\n      jump\t// out\n        /* \"#utility.yul\":10828:11247   */\n    tag_136:\n        /* \"#utility.yul\":10994:10998   */\n      0x00\n        /* \"#utility.yul\":11032:11034   */\n      0x20\n        /* \"#utility.yul\":11021:11030   */\n      dup3\n        /* \"#utility.yul\":11017:11035   */\n      add\n        /* \"#utility.yul\":11009:11035   */\n      swap1\n      pop\n        /* \"#utility.yul\":11081:11090   */\n      dup2\n        /* \"#utility.yul\":11075:11079   */\n      dup2\n        /* \"#utility.yul\":11071:11091   */\n      sub\n        /* \"#utility.yul\":11067:11068   */\n      0x00\n        /* \"#utility.yul\":11056:11065   */\n      dup4\n        /* \"#utility.yul\":11052:11069   */\n      add\n        /* \"#utility.yul\":11045:11092   */\n      mstore\n        /* \"#utility.yul\":11109:11240   */\n      tag_434\n        /* \"#utility.yul\":11235:11239   */\n      dup2\n        /* \"#utility.yul\":11109:11240   */\n      tag_285\n      jump\t// in\n    tag_434:\n        /* \"#utility.yul\":11101:11240   */\n      swap1\n      pop\n        /* \"#utility.yul\":10828:11247   */\n      swap2\n      swap1\n      pop\n      jump\t// out\n        /* \"#utility.yul\":11253:11431   */\n    tag_286:\n        /* \"#utility.yul\":11393:11423   */\n      0x313520446179732043617465676f72792069732046756c6c2021212100000000\n        /* \"#utility.yul\":11389:11390   */\n      0x00\n        /* \"#utility.yul\":11381:11387   */\n      dup3\n        /* \"#utility.yul\":11377:11391   */\n      add\n        /* \"#utility.yul\":11370:11424   */\n      mstore\n        /* \"#utility.yul\":11253:11431   */\n      pop\n      jump\t// out\n        /* \"#utility.yul\":11437:11803   */\n    tag_287:\n        /* \"#utility.yul\":11579:11582   */\n      0x00\n        /* \"#utility.yul\":11600:11667   */\n      tag_437\n        /* \"#utility.yul\":11664:11666   */\n      0x1c\n        /* \"#utility.yul\":11659:11662   */\n      dup4\n        /* \"#utility.yul\":11600:11667   */\n      tag_276\n      jump\t// in\n    tag_437:\n        /* \"#utility.yul\":11593:11667   */\n      swap2\n      pop\n        /* \"#utility.yul\":11676:11769   */\n      tag_438\n        /* \"#utility.yul\":11765:11768   */\n      dup3\n        /* \"#utility.yul\":11676:11769   */\n      tag_286\n      jump\t// in\n    tag_438:\n        /* \"#utility.yul\":11794:11796   */\n      0x20\n        /* \"#utility.yul\":11789:11792   */\n      dup3\n        /* \"#utility.yul\":11785:11797   */\n      add\n        /* \"#utility.yul\":11778:11797   */\n      swap1\n      pop\n        /* \"#utility.yul\":11437:11803   */\n      swap2\n      swap1\n      pop\n      jump\t// out\n        /* \"#utility.yul\":11809:12228   */\n    tag_144:\n        /* \"#utility.yul\":11975:11979   */\n      0x00\n        /* \"#utility.yul\":12013:12015   */\n      0x20\n        /* \"#utility.yul\":12002:12011   */\n      dup3\n        /* \"#utility.yul\":11998:12016   */\n      add\n        /* \"#utility.yul\":11990:12016   */\n      swap1\n      pop\n        /* \"#utility.yul\":12062:12071   */\n      dup2\n        /* \"#utility.yul\":12056:12060   */\n      dup2\n        /* \"#utility.yul\":12052:12072   */\n      sub\n        /* \"#utility.yul\":12048:12049   */\n      0x00\n        /* \"#utility.yul\":12037:12046   */\n      dup4\n        /* \"#utility.yul\":12033:12050   */\n      add\n        /* \"#utility.yul\":12026:12073   */\n      mstore\n        /* \"#utility.yul\":12090:12221   */\n      tag_440\n        /* \"#utility.yul\":12216:12220   */\n      dup2\n        /* \"#utility.yul\":12090:12221   */\n      tag_287\n      jump\t// in\n    tag_440:\n        /* \"#utility.yul\":12082:12221   */\n      swap1\n      pop\n        /* \"#utility.yul\":11809:12228   */\n      swap2\n      swap1\n      pop\n      jump\t// out\n        /* \"#utility.yul\":12234:12412   */\n    tag_288:\n        /* \"#utility.yul\":12374:12404   */\n      0x333020446179732043617465676f72792069732046756c6c2021212100000000\n        /* \"#utility.yul\":12370:12371   */\n      0x00\n        /* \"#utility.yul\":12362:12368   */\n      dup3\n        /* \"#utility.yul\":12358:12372   */\n      add\n        /* \"#utility.yul\":12351:12405   */\n      mstore\n        /* \"#utility.yul\":12234:12412   */\n      pop\n      jump\t// out\n        /* \"#utility.yul\":12418:12784   */\n    tag_289:\n        /* \"#utility.yul\":12560:12563   */\n      0x00\n        /* \"#utility.yul\":12581:12648   */\n      tag_443\n        /* \"#utility.yul\":12645:12647   */\n      0x1c\n        /* \"#utility.yul\":12640:12643   */\n      dup4\n        /* \"#utility.yul\":12581:12648   */\n      tag_276\n      jump\t// in\n    tag_443:\n        /* \"#utility.yul\":12574:12648   */\n      swap2\n      pop\n        /* \"#utility.yul\":12657:12750   */\n      tag_444\n        /* \"#utility.yul\":12746:12749   */\n      dup3\n        /* \"#utility.yul\":12657:12750   */\n      tag_288\n      jump\t// in\n    tag_444:\n        /* \"#utility.yul\":12775:12777   */\n      0x20\n        /* \"#utility.yul\":12770:12773   */\n      dup3\n        /* \"#utility.yul\":12766:12778   */\n      add\n        /* \"#utility.yul\":12759:12778   */\n      swap1\n      pop\n        /* \"#utility.yul\":12418:12784   */\n      swap2\n      swap1\n      pop\n      jump\t// out\n        /* \"#utility.yul\":12790:13209   */\n    tag_155:\n        /* \"#utility.yul\":12956:12960   */\n      0x00\n        /* \"#utility.yul\":12994:12996   */\n      0x20\n        /* \"#utility.yul\":12983:12992   */\n      dup3\n        /* \"#utility.yul\":12979:12997   */\n      add\n        /* \"#utility.yul\":12971:12997   */\n      swap1\n      pop\n        /* \"#utility.yul\":13043:13052   */\n      dup2\n        /* \"#utility.yul\":13037:13041   */\n      dup2\n        /* \"#utility.yul\":13033:13053   */\n      sub\n        /* \"#utility.yul\":13029:13030   */\n      0x00\n        /* \"#utility.yul\":13018:13027   */\n      dup4\n        /* \"#utility.yul\":13014:13031   */\n      add\n        /* \"#utility.yul\":13007:13054   */\n      mstore\n        /* \"#utility.yul\":13071:13202   */\n      tag_446\n        /* \"#utility.yul\":13197:13201   */\n      dup2\n        /* \"#utility.yul\":13071:13202   */\n      tag_289\n      jump\t// in\n    tag_446:\n        /* \"#utility.yul\":13063:13202   */\n      swap1\n      pop\n        /* \"#utility.yul\":12790:13209   */\n      swap2\n      swap1\n      pop\n      jump\t// out\n        /* \"#utility.yul\":13215:13393   */\n    tag_290:\n        /* \"#utility.yul\":13355:13385   */\n      0x363020446179732043617465676f72792069732046756c6c2021212100000000\n        /* \"#utility.yul\":13351:13352   */\n      0x00\n        /* \"#utility.yul\":13343:13349   */\n      dup3\n        /* \"#utility.yul\":13339:13353   */\n      add\n        /* \"#utility.yul\":13332:13386   */\n      mstore\n        /* \"#utility.yul\":13215:13393   */\n      pop\n      jump\t// out\n        /* \"#utility.yul\":13399:13765   */\n    tag_291:\n        /* \"#utility.yul\":13541:13544   */\n      0x00\n        /* \"#utility.yul\":13562:13629   */\n      tag_449\n        /* \"#utility.yul\":13626:13628   */\n      0x1c\n        /* \"#utility.yul\":13621:13624   */\n      dup4\n        /* \"#utility.yul\":13562:13629   */\n      tag_276\n      jump\t// in\n    tag_449:\n        /* \"#utility.yul\":13555:13629   */\n      swap2\n      pop\n        /* \"#utility.yul\":13638:13731   */\n      tag_450\n        /* \"#utility.yul\":13727:13730   */\n      dup3\n        /* \"#utility.yul\":13638:13731   */\n      tag_290\n      jump\t// in\n    tag_450:\n        /* \"#utility.yul\":13756:13758   */\n      0x20\n        /* \"#utility.yul\":13751:13754   */\n      dup3\n        /* \"#utility.yul\":13747:13759   */\n      add\n        /* \"#utility.yul\":13740:13759   */\n      swap1\n      pop\n        /* \"#utility.yul\":13399:13765   */\n      swap2\n      swap1\n      pop\n      jump\t// out\n        /* \"#utility.yul\":13771:14190   */\n    tag_166:\n        /* \"#utility.yul\":13937:13941   */\n      0x00\n        /* \"#utility.yul\":13975:13977   */\n      0x20\n        /* \"#utility.yul\":13964:13973   */\n      dup3\n        /* \"#utility.yul\":13960:13978   */\n      add\n        /* \"#utility.yul\":13952:13978   */\n      swap1\n      pop\n        /* \"#utility.yul\":14024:14033   */\n      dup2\n        /* \"#utility.yul\":14018:14022   */\n      dup2\n        /* \"#utility.yul\":14014:14034   */\n      sub\n        /* \"#utility.yul\":14010:14011   */\n      0x00\n        /* \"#utility.yul\":13999:14008   */\n      dup4\n        /* \"#utility.yul\":13995:14012   */\n      add\n        /* \"#utility.yul\":13988:14035   */\n      mstore\n        /* \"#utility.yul\":14052:14183   */\n      tag_452\n        /* \"#utility.yul\":14178:14182   */\n      dup2\n        /* \"#utility.yul\":14052:14183   */\n      tag_291\n      jump\t// in\n    tag_452:\n        /* \"#utility.yul\":14044:14183   */\n      swap1\n      pop\n        /* \"#utility.yul\":13771:14190   */\n      swap2\n      swap1\n      pop\n      jump\t// out\n        /* \"#utility.yul\":14196:14374   */\n    tag_292:\n        /* \"#utility.yul\":14336:14366   */\n      0x393020446179732043617465676f72792069732046756c6c2021212100000000\n        /* \"#utility.yul\":14332:14333   */\n      0x00\n        /* \"#utility.yul\":14324:14330   */\n      dup3\n        /* \"#utility.yul\":14320:14334   */\n      add\n        /* \"#utility.yul\":14313:14367   */\n      mstore\n        /* \"#utility.yul\":14196:14374   */\n      pop\n      jump\t// out\n        /* \"#utility.yul\":14380:14746   */\n    tag_293:\n        /* \"#utility.yul\":14522:14525   */\n      0x00\n        /* \"#utility.yul\":14543:14610   */\n      tag_455\n        /* \"#utility.yul\":14607:14609   */\n      0x1c\n        /* \"#utility.yul\":14602:14605   */\n      dup4\n        /* \"#utility.yul\":14543:14610   */\n      tag_276\n      jump\t// in\n    tag_455:\n        /* \"#utility.yul\":14536:14610   */\n      swap2\n      pop\n        /* \"#utility.yul\":14619:14712   */\n      tag_456\n        /* \"#utility.yul\":14708:14711   */\n      dup3\n        /* \"#utility.yul\":14619:14712   */\n      tag_292\n      jump\t// in\n    tag_456:\n        /* \"#utility.yul\":14737:14739   */\n      0x20\n        /* \"#utility.yul\":14732:14735   */\n      dup3\n        /* \"#utility.yul\":14728:14740   */\n      add\n        /* \"#utility.yul\":14721:14740   */\n      swap1\n      pop\n        /* \"#utility.yul\":14380:14746   */\n      swap2\n      swap1\n      pop\n      jump\t// out\n        /* \"#utility.yul\":14752:15171   */\n    tag_177:\n        /* \"#utility.yul\":14918:14922   */\n      0x00\n        /* \"#utility.yul\":14956:14958   */\n      0x20\n        /* \"#utility.yul\":14945:14954   */\n      dup3\n        /* \"#utility.yul\":14941:14959   */\n      add\n        /* \"#utility.yul\":14933:14959   */\n      swap1\n      pop\n        /* \"#utility.yul\":15005:15014   */\n      dup2\n        /* \"#utility.yul\":14999:15003   */\n      dup2\n        /* \"#utility.yul\":14995:15015   */\n      sub\n        /* \"#utility.yul\":14991:14992   */\n      0x00\n        /* \"#utility.yul\":14980:14989   */\n      dup4\n        /* \"#utility.yul\":14976:14993   */\n      add\n        /* \"#utility.yul\":14969:15016   */\n      mstore\n        /* \"#utility.yul\":15033:15164   */\n      tag_458\n        /* \"#utility.yul\":15159:15163   */\n      dup2\n        /* \"#utility.yul\":15033:15164   */\n      tag_293\n      jump\t// in\n    tag_458:\n        /* \"#utility.yul\":15025:15164   */\n      swap1\n      pop\n        /* \"#utility.yul\":14752:15171   */\n      swap2\n      swap1\n      pop\n      jump\t// out\n        /* \"#utility.yul\":15177:15355   */\n    tag_294:\n        /* \"#utility.yul\":15317:15347   */\n      0x53656c6c65637420446179732031352c33302c36302c39302021212100000000\n        /* \"#utility.yul\":15313:15314   */\n      0x00\n        /* \"#utility.yul\":15305:15311   */\n      dup3\n        /* \"#utility.yul\":15301:15315   */\n      add\n        /* \"#utility.yul\":15294:15348   */\n      mstore\n        /* \"#utility.yul\":15177:15355   */\n      pop\n      jump\t// out\n        /* \"#utility.yul\":15361:15727   */\n    tag_295:\n        /* \"#utility.yul\":15503:15506   */\n      0x00\n        /* \"#utility.yul\":15524:15591   */\n      tag_461\n        /* \"#utility.yul\":15588:15590   */\n      0x1c\n        /* \"#utility.yul\":15583:15586   */\n      dup4\n        /* \"#utility.yul\":15524:15591   */\n      tag_276\n      jump\t// in\n    tag_461:\n        /* \"#utility.yul\":15517:15591   */\n      swap2\n      pop\n        /* \"#utility.yul\":15600:15693   */\n      tag_462\n        /* \"#utility.yul\":15689:15692   */\n      dup3\n        /* \"#utility.yul\":15600:15693   */\n      tag_294\n      jump\t// in\n    tag_462:\n        /* \"#utility.yul\":15718:15720   */\n      0x20\n        /* \"#utility.yul\":15713:15716   */\n      dup3\n        /* \"#utility.yul\":15709:15721   */\n      add\n        /* \"#utility.yul\":15702:15721   */\n      swap1\n      pop\n        /* \"#utility.yul\":15361:15727   */\n      swap2\n      swap1\n      pop\n      jump\t// out\n        /* \"#utility.yul\":15733:16152   */\n    tag_184:\n        /* \"#utility.yul\":15899:15903   */\n      0x00\n        /* \"#utility.yul\":15937:15939   */\n      0x20\n        /* \"#utility.yul\":15926:15935   */\n      dup3\n        /* \"#utility.yul\":15922:15940   */\n      add\n        /* \"#utility.yul\":15914:15940   */\n      swap1\n      pop\n        /* \"#utility.yul\":15986:15995   */\n      dup2\n        /* \"#utility.yul\":15980:15984   */\n      dup2\n        /* \"#utility.yul\":15976:15996   */\n      sub\n        /* \"#utility.yul\":15972:15973   */\n      0x00\n        /* \"#utility.yul\":15961:15970   */\n      dup4\n        /* \"#utility.yul\":15957:15974   */\n      add\n        /* \"#utility.yul\":15950:15997   */\n      mstore\n        /* \"#utility.yul\":16014:16145   */\n      tag_464\n        /* \"#utility.yul\":16140:16144   */\n      dup2\n        /* \"#utility.yul\":16014:16145   */\n      tag_295\n      jump\t// in\n    tag_464:\n        /* \"#utility.yul\":16006:16145   */\n      swap1\n      pop\n        /* \"#utility.yul\":15733:16152   */\n      swap2\n      swap1\n      pop\n      jump\t// out\n        /* \"#utility.yul\":16158:16383   */\n    tag_296:\n        /* \"#utility.yul\":16298:16332   */\n      0x4f776e61626c653a206e6577206f776e657220697320746865207a65726f2061\n        /* \"#utility.yul\":16294:16295   */\n      0x00\n        /* \"#utility.yul\":16286:16292   */\n      dup3\n        /* \"#utility.yul\":16282:16296   */\n      add\n        /* \"#utility.yul\":16275:16333   */\n      mstore\n        /* \"#utility.yul\":16367:16375   */\n      0x6464726573730000000000000000000000000000000000000000000000000000\n        /* \"#utility.yul\":16362:16364   */\n      0x20\n        /* \"#utility.yul\":16354:16360   */\n      dup3\n        /* \"#utility.yul\":16350:16365   */\n      add\n        /* \"#utility.yul\":16343:16376   */\n      mstore\n        /* \"#utility.yul\":16158:16383   */\n      pop\n      jump\t// out\n        /* \"#utility.yul\":16389:16755   */\n    tag_297:\n        /* \"#utility.yul\":16531:16534   */\n      0x00\n        /* \"#utility.yul\":16552:16619   */\n      tag_467\n        /* \"#utility.yul\":16616:16618   */\n      0x26\n        /* \"#utility.yul\":16611:16614   */\n      dup4\n        /* \"#utility.yul\":16552:16619   */\n      tag_276\n      jump\t// in\n    tag_467:\n        /* \"#utility.yul\":16545:16619   */\n      swap2\n      pop\n        /* \"#utility.yul\":16628:16721   */\n      tag_468\n        /* \"#utility.yul\":16717:16720   */\n      dup3\n        /* \"#utility.yul\":16628:16721   */\n      tag_296\n      jump\t// in\n    tag_468:\n        /* \"#utility.yul\":16746:16748   */\n      0x40\n        /* \"#utility.yul\":16741:16744   */\n      dup3\n        /* \"#utility.yul\":16737:16749   */\n      add\n        /* \"#utility.yul\":16730:16749   */\n      swap1\n      pop\n        /* \"#utility.yul\":16389:16755   */\n      swap2\n      swap1\n      pop\n      jump\t// out\n        /* \"#utility.yul\":16761:17180   */\n    tag_190:\n        /* \"#utility.yul\":16927:16931   */\n      0x00\n        /* \"#utility.yul\":16965:16967   */\n      0x20\n        /* \"#utility.yul\":16954:16963   */\n      dup3\n        /* \"#utility.yul\":16950:16968   */\n      add\n        /* \"#utility.yul\":16942:16968   */\n      swap1\n      pop\n        /* \"#utility.yul\":17014:17023   */\n      dup2\n        /* \"#utility.yul\":17008:17012   */\n      dup2\n        /* \"#utility.yul\":17004:17024   */\n      sub\n        /* \"#utility.yul\":17000:17001   */\n      0x00\n        /* \"#utility.yul\":16989:16998   */\n      dup4\n        /* \"#utility.yul\":16985:17002   */\n      add\n        /* \"#utility.yul\":16978:17025   */\n      mstore\n        /* \"#utility.yul\":17042:17173   */\n      tag_470\n        /* \"#utility.yul\":17168:17172   */\n      dup2\n        /* \"#utility.yul\":17042:17173   */\n      tag_297\n      jump\t// in\n    tag_470:\n        /* \"#utility.yul\":17034:17173   */\n      swap1\n      pop\n        /* \"#utility.yul\":16761:17180   */\n      swap2\n      swap1\n      pop\n      jump\t// out\n        /* \"#utility.yul\":17186:17518   */\n    tag_195:\n        /* \"#utility.yul\":17307:17311   */\n      0x00\n        /* \"#utility.yul\":17345:17347   */\n      0x40\n        /* \"#utility.yul\":17334:17343   */\n      dup3\n        /* \"#utility.yul\":17330:17348   */\n      add\n        /* \"#utility.yul\":17322:17348   */\n      swap1\n      pop\n        /* \"#utility.yul\":17358:17429   */\n      tag_472\n        /* \"#utility.yul\":17426:17427   */\n      0x00\n        /* \"#utility.yul\":17415:17424   */\n      dup4\n        /* \"#utility.yul\":17411:17428   */\n      add\n        /* \"#utility.yul\":17402:17408   */\n      dup6\n        /* \"#utility.yul\":17358:17429   */\n      tag_273\n      jump\t// in\n    tag_472:\n        /* \"#utility.yul\":17439:17511   */\n      tag_473\n        /* \"#utility.yul\":17507:17509   */\n      0x20\n        /* \"#utility.yul\":17496:17505   */\n      dup4\n        /* \"#utility.yul\":17492:17510   */\n      add\n        /* \"#utility.yul\":17483:17489   */\n      dup5\n        /* \"#utility.yul\":17439:17511   */\n      tag_272\n      jump\t// in\n    tag_473:\n        /* \"#utility.yul\":17186:17518   */\n      swap4\n      swap3\n      pop\n      pop\n      pop\n      jump\t// out\n        /* \"#utility.yul\":17524:17701   */\n    tag_298:\n        /* \"#utility.yul\":17664:17693   */\n      0x436f756e7465723a2064656372656d656e74206f766572666c6f770000000000\n        /* \"#utility.yul\":17660:17661   */\n      0x00\n        /* \"#utility.yul\":17652:17658   */\n      dup3\n        /* \"#utility.yul\":17648:17662   */\n      add\n        /* \"#utility.yul\":17641:17694   */\n      mstore\n        /* \"#utility.yul\":17524:17701   */\n      pop\n      jump\t// out\n        /* \"#utility.yul\":17707:18073   */\n    tag_299:\n        /* \"#utility.yul\":17849:17852   */\n      0x00\n        /* \"#utility.yul\":17870:17937   */\n      tag_476\n        /* \"#utility.yul\":17934:17936   */\n      0x1b\n        /* \"#utility.yul\":17929:17932   */\n      dup4\n        /* \"#utility.yul\":17870:17937   */\n      tag_276\n      jump\t// in\n    tag_476:\n        /* \"#utility.yul\":17863:17937   */\n      swap2\n      pop\n        /* \"#utility.yul\":17946:18039   */\n      tag_477\n        /* \"#utility.yul\":18035:18038   */\n      dup3\n        /* \"#utility.yul\":17946:18039   */\n      tag_298\n      jump\t// in\n    tag_477:\n        /* \"#utility.yul\":18064:18066   */\n      0x20\n        /* \"#utility.yul\":18059:18062   */\n      dup3\n        /* \"#utility.yul\":18055:18067   */\n      add\n        /* \"#utility.yul\":18048:18067   */\n      swap1\n      pop\n        /* \"#utility.yul\":17707:18073   */\n      swap2\n      swap1\n      pop\n      jump\t// out\n        /* \"#utility.yul\":18079:18498   */\n    tag_200:\n        /* \"#utility.yul\":18245:18249   */\n      0x00\n        /* \"#utility.yul\":18283:18285   */\n      0x20\n        /* \"#utility.yul\":18272:18281   */\n      dup3\n        /* \"#utility.yul\":18268:18286   */\n      add\n        /* \"#utility.yul\":18260:18286   */\n      swap1\n      pop\n        /* \"#utility.yul\":18332:18341   */\n      dup2\n        /* \"#utility.yul\":18326:18330   */\n      dup2\n        /* \"#utility.yul\":18322:18342   */\n      sub\n        /* \"#utility.yul\":18318:18319   */\n      0x00\n        /* \"#utility.yul\":18307:18316   */\n      dup4\n        /* \"#utility.yul\":18303:18320   */\n      add\n        /* \"#utility.yul\":18296:18343   */\n      mstore\n        /* \"#utility.yul\":18360:18491   */\n      tag_479\n        /* \"#utility.yul\":18486:18490   */\n      dup2\n        /* \"#utility.yul\":18360:18491   */\n      tag_299\n      jump\t// in\n    tag_479:\n        /* \"#utility.yul\":18352:18491   */\n      swap1\n      pop\n        /* \"#utility.yul\":18079:18498   */\n      swap2\n      swap1\n      pop\n      jump\t// out\n        /* \"#utility.yul\":18504:18686   */\n    tag_300:\n        /* \"#utility.yul\":18644:18678   */\n      0x4f776e61626c653a2063616c6c6572206973206e6f7420746865206f776e6572\n        /* \"#utility.yul\":18640:18641   */\n      0x00\n        /* \"#utility.yul\":18632:18638   */\n      dup3\n        /* \"#utility.yul\":18628:18642   */\n      add\n        /* \"#utility.yul\":18621:18679   */\n      mstore\n        /* \"#utility.yul\":18504:18686   */\n      pop\n      jump\t// out\n        /* \"#utility.yul\":18692:19058   */\n    tag_301:\n        /* \"#utility.yul\":18834:18837   */\n      0x00\n        /* \"#utility.yul\":18855:18922   */\n      tag_482\n        /* \"#utility.yul\":18919:18921   */\n      0x20\n        /* \"#utility.yul\":18914:18917   */\n      dup4\n        /* \"#utility.yul\":18855:18922   */\n      tag_276\n      jump\t// in\n    tag_482:\n        /* \"#utility.yul\":18848:18922   */\n      swap2\n      pop\n        /* \"#utility.yul\":18931:19024   */\n      tag_483\n        /* \"#utility.yul\":19020:19023   */\n      dup3\n        /* \"#utility.yul\":18931:19024   */\n      tag_300\n      jump\t// in\n    tag_483:\n        /* \"#utility.yul\":19049:19051   */\n      0x20\n        /* \"#utility.yul\":19044:19047   */\n      dup3\n        /* \"#utility.yul\":19040:19052   */\n      add\n        /* \"#utility.yul\":19033:19052   */\n      swap1\n      pop\n        /* \"#utility.yul\":18692:19058   */\n      swap2\n      swap1\n      pop\n      jump\t// out\n        /* \"#utility.yul\":19064:19483   */\n    tag_207:\n        /* \"#utility.yul\":19230:19234   */\n      0x00\n        /* \"#utility.yul\":19268:19270   */\n      0x20\n        /* \"#utility.yul\":19257:19266   */\n      dup3\n        /* \"#utility.yul\":19253:19271   */\n      add\n        /* \"#utility.yul\":19245:19271   */\n      swap1\n      pop\n        /* \"#utility.yul\":19317:19326   */\n      dup2\n        /* \"#utility.yul\":19311:19315   */\n      dup2\n        /* \"#utility.yul\":19307:19327   */\n      sub\n        /* \"#utility.yul\":19303:19304   */\n      0x00\n        /* \"#utility.yul\":19292:19301   */\n      dup4\n        /* \"#utility.yul\":19288:19305   */\n      add\n        /* \"#utility.yul\":19281:19328   */\n      mstore\n        /* \"#utility.yul\":19345:19476   */\n      tag_485\n        /* \"#utility.yul\":19471:19475   */\n      dup2\n        /* \"#utility.yul\":19345:19476   */\n      tag_301\n      jump\t// in\n    tag_485:\n        /* \"#utility.yul\":19337:19476   */\n      swap1\n      pop\n        /* \"#utility.yul\":19064:19483   */\n      swap2\n      swap1\n      pop\n      jump\t// out\n        /* \"#utility.yul\":19489:19931   */\n    tag_212:\n        /* \"#utility.yul\":19638:19642   */\n      0x00\n        /* \"#utility.yul\":19676:19678   */\n      0x60\n        /* \"#utility.yul\":19665:19674   */\n      dup3\n        /* \"#utility.yul\":19661:19679   */\n      add\n        /* \"#utility.yul\":19653:19679   */\n      swap1\n      pop\n        /* \"#utility.yul\":19689:19760   */\n      tag_487\n        /* \"#utility.yul\":19757:19758   */\n      0x00\n        /* \"#utility.yul\":19746:19755   */\n      dup4\n        /* \"#utility.yul\":19742:19759   */\n      add\n        /* \"#utility.yul\":19733:19739   */\n      dup7\n        /* \"#utility.yul\":19689:19760   */\n      tag_273\n      jump\t// in\n    tag_487:\n        /* \"#utility.yul\":19770:19842   */\n      tag_488\n        /* \"#utility.yul\":19838:19840   */\n      0x20\n        /* \"#utility.yul\":19827:19836   */\n      dup4\n        /* \"#utility.yul\":19823:19841   */\n      add\n        /* \"#utility.yul\":19814:19820   */\n      dup6\n        /* \"#utility.yul\":19770:19842   */\n      tag_273\n      jump\t// in\n    tag_488:\n        /* \"#utility.yul\":19852:19924   */\n      tag_489\n        /* \"#utility.yul\":19920:19922   */\n      0x40\n        /* \"#utility.yul\":19909:19918   */\n      dup4\n        /* \"#utility.yul\":19905:19923   */\n      add\n        /* \"#utility.yul\":19896:19902   */\n      dup5\n        /* \"#utility.yul\":19852:19924   */\n      tag_272\n      jump\t// in\n    tag_489:\n        /* \"#utility.yul\":19489:19931   */\n      swap5\n      swap4\n      pop\n      pop\n      pop\n      pop\n      jump\t// out\n        /* \"#utility.yul\":19937:20053   */\n    tag_302:\n        /* \"#utility.yul\":20007:20028   */\n      tag_491\n        /* \"#utility.yul\":20022:20027   */\n      dup2\n        /* \"#utility.yul\":20007:20028   */\n      tag_274\n      jump\t// in\n    tag_491:\n        /* \"#utility.yul\":20000:20005   */\n      dup2\n        /* \"#utility.yul\":19997:20029   */\n      eq\n        /* \"#utility.yul\":19987:20047   */\n      tag_492\n      jumpi\n        /* \"#utility.yul\":20043:20044   */\n      0x00\n        /* \"#utility.yul\":20040:20041   */\n      dup1\n        /* \"#utility.yul\":20033:20045   */\n      revert\n        /* \"#utility.yul\":19987:20047   */\n    tag_492:\n        /* \"#utility.yul\":19937:20053   */\n      pop\n      jump\t// out\n        /* \"#utility.yul\":20059:20196   */\n    tag_303:\n        /* \"#utility.yul\":20113:20118   */\n      0x00\n        /* \"#utility.yul\":20144:20150   */\n      dup2\n        /* \"#utility.yul\":20138:20151   */\n      mload\n        /* \"#utility.yul\":20129:20151   */\n      swap1\n      pop\n        /* \"#utility.yul\":20160:20190   */\n      tag_494\n        /* \"#utility.yul\":20184:20189   */\n      dup2\n        /* \"#utility.yul\":20160:20190   */\n      tag_302\n      jump\t// in\n    tag_494:\n        /* \"#utility.yul\":20059:20196   */\n      swap3\n      swap2\n      pop\n      pop\n      jump\t// out\n        /* \"#utility.yul\":20202:20547   */\n    tag_220:\n        /* \"#utility.yul\":20269:20275   */\n      0x00\n        /* \"#utility.yul\":20318:20320   */\n      0x20\n        /* \"#utility.yul\":20306:20315   */\n      dup3\n        /* \"#utility.yul\":20297:20304   */\n      dup5\n        /* \"#utility.yul\":20293:20316   */\n      sub\n        /* \"#utility.yul\":20289:20321   */\n      slt\n        /* \"#utility.yul\":20286:20405   */\n      iszero\n      tag_496\n      jumpi\n        /* \"#utility.yul\":20324:20403   */\n      tag_497\n      tag_257\n      jump\t// in\n    tag_497:\n        /* \"#utility.yul\":20286:20405   */\n    tag_496:\n        /* \"#utility.yul\":20444:20445   */\n      0x00\n        /* \"#utility.yul\":20469:20530   */\n      tag_498\n        /* \"#utility.yul\":20522:20529   */\n      dup5\n        /* \"#utility.yul\":20513:20519   */\n      dup3\n        /* \"#utility.yul\":20502:20511   */\n      dup6\n        /* \"#utility.yul\":20498:20520   */\n      add\n        /* \"#utility.yul\":20469:20530   */\n      tag_303\n      jump\t// in\n    tag_498:\n        /* \"#utility.yul\":20459:20530   */\n      swap2\n      pop\n        /* \"#utility.yul\":20415:20540   */\n      pop\n        /* \"#utility.yul\":20202:20547   */\n      swap3\n      swap2\n      pop\n      pop\n      jump\t// out\n        /* \"#utility.yul\":20553:20782   */\n    tag_304:\n        /* \"#utility.yul\":20693:20727   */\n      0x5361666545524332303a204552433230206f7065726174696f6e20646964206e\n        /* \"#utility.yul\":20689:20690   */\n      0x00\n        /* \"#utility.yul\":20681:20687   */\n      dup3\n        /* \"#utility.yul\":20677:20691   */\n      add\n        /* \"#utility.yul\":20670:20728   */\n      mstore\n        /* \"#utility.yul\":20762:20774   */\n      0x6f74207375636365656400000000000000000000000000000000000000000000\n        /* \"#utility.yul\":20757:20759   */\n      0x20\n        /* \"#utility.yul\":20749:20755   */\n      dup3\n        /* \"#utility.yul\":20745:20760   */\n      add\n        /* \"#utility.yul\":20738:20775   */\n      mstore\n        /* \"#utility.yul\":20553:20782   */\n      pop\n      jump\t// out\n        /* \"#utility.yul\":20788:21154   */\n    tag_305:\n        /* \"#utility.yul\":20930:20933   */\n      0x00\n        /* \"#utility.yul\":20951:21018   */\n      tag_501\n        /* \"#utility.yul\":21015:21017   */\n      0x2a\n        /* \"#utility.yul\":21010:21013   */\n      dup4\n        /* \"#utility.yul\":20951:21018   */\n      tag_276\n      jump\t// in\n    tag_501:\n        /* \"#utility.yul\":20944:21018   */\n      swap2\n      pop\n        /* \"#utility.yul\":21027:21120   */\n      tag_502\n        /* \"#utility.yul\":21116:21119   */\n      dup3\n        /* \"#utility.yul\":21027:21120   */\n      tag_304\n      jump\t// in\n    tag_502:\n        /* \"#utility.yul\":21145:21147   */\n      0x40\n        /* \"#utility.yul\":21140:21143   */\n      dup3\n        /* \"#utility.yul\":21136:21148   */\n      add\n        /* \"#utility.yul\":21129:21148   */\n      swap1\n      pop\n        /* \"#utility.yul\":20788:21154   */\n      swap2\n      swap1\n      pop\n      jump\t// out\n        /* \"#utility.yul\":21160:21579   */\n    tag_223:\n        /* \"#utility.yul\":21326:21330   */\n      0x00\n        /* \"#utility.yul\":21364:21366   */\n      0x20\n        /* \"#utility.yul\":21353:21362   */\n      dup3\n        /* \"#utility.yul\":21349:21367   */\n      add\n        /* \"#utility.yul\":21341:21367   */\n      swap1\n      pop\n        /* \"#utility.yul\":21413:21422   */\n      dup2\n        /* \"#utility.yul\":21407:21411   */\n      dup2\n        /* \"#utility.yul\":21403:21423   */\n      sub\n        /* \"#utility.yul\":21399:21400   */\n      0x00\n        /* \"#utility.yul\":21388:21397   */\n      dup4\n        /* \"#utility.yul\":21384:21401   */\n      add\n        /* \"#utility.yul\":21377:21424   */\n      mstore\n        /* \"#utility.yul\":21441:21572   */\n      tag_504\n        /* \"#utility.yul\":21567:21571   */\n      dup2\n        /* \"#utility.yul\":21441:21572   */\n      tag_305\n      jump\t// in\n    tag_504:\n        /* \"#utility.yul\":21433:21572   */\n      swap1\n      pop\n        /* \"#utility.yul\":21160:21579   */\n      swap2\n      swap1\n      pop\n      jump\t// out\n        /* \"#utility.yul\":21585:21810   */\n    tag_306:\n        /* \"#utility.yul\":21725:21759   */\n      0x416464726573733a20696e73756666696369656e742062616c616e636520666f\n        /* \"#utility.yul\":21721:21722   */\n      0x00\n        /* \"#utility.yul\":21713:21719   */\n      dup3\n        /* \"#utility.yul\":21709:21723   */\n      add\n        /* \"#utility.yul\":21702:21760   */\n      mstore\n        /* \"#utility.yul\":21794:21802   */\n      0x722063616c6c0000000000000000000000000000000000000000000000000000\n        /* \"#utility.yul\":21789:21791   */\n      0x20\n        /* \"#utility.yul\":21781:21787   */\n      dup3\n        /* \"#utility.yul\":21777:21792   */\n      add\n        /* \"#utility.yul\":21770:21803   */\n      mstore\n        /* \"#utility.yul\":21585:21810   */\n      pop\n      jump\t// out\n        /* \"#utility.yul\":21816:22182   */\n    tag_307:\n        /* \"#utility.yul\":21958:21961   */\n      0x00\n        /* \"#utility.yul\":21979:22046   */\n      tag_507\n        /* \"#utility.yul\":22043:22045   */\n      0x26\n        /* \"#utility.yul\":22038:22041   */\n      dup4\n        /* \"#utility.yul\":21979:22046   */\n      tag_276\n      jump\t// in\n    tag_507:\n        /* \"#utility.yul\":21972:22046   */\n      swap2\n      pop\n        /* \"#utility.yul\":22055:22148   */\n      tag_508\n        /* \"#utility.yul\":22144:22147   */\n      dup3\n        /* \"#utility.yul\":22055:22148   */\n      tag_306\n      jump\t// in\n    tag_508:\n        /* \"#utility.yul\":22173:22175   */\n      0x40\n        /* \"#utility.yul\":22168:22171   */\n      dup3\n        /* \"#utility.yul\":22164:22176   */\n      add\n        /* \"#utility.yul\":22157:22176   */\n      swap1\n      pop\n        /* \"#utility.yul\":21816:22182   */\n      swap2\n      swap1\n      pop\n      jump\t// out\n        /* \"#utility.yul\":22188:22607   */\n    tag_231:\n        /* \"#utility.yul\":22354:22358   */\n      0x00\n        /* \"#utility.yul\":22392:22394   */\n      0x20\n        /* \"#utility.yul\":22381:22390   */\n      dup3\n        /* \"#utility.yul\":22377:22395   */\n      add\n        /* \"#utility.yul\":22369:22395   */\n      swap1\n      pop\n        /* \"#utility.yul\":22441:22450   */\n      dup2\n        /* \"#utility.yul\":22435:22439   */\n      dup2\n        /* \"#utility.yul\":22431:22451   */\n      sub\n        /* \"#utility.yul\":22427:22428   */\n      0x00\n        /* \"#utility.yul\":22416:22425   */\n      dup4\n        /* \"#utility.yul\":22412:22429   */\n      add\n        /* \"#utility.yul\":22405:22452   */\n      mstore\n        /* \"#utility.yul\":22469:22600   */\n      tag_510\n        /* \"#utility.yul\":22595:22599   */\n      dup2\n        /* \"#utility.yul\":22469:22600   */\n      tag_307\n      jump\t// in\n    tag_510:\n        /* \"#utility.yul\":22461:22600   */\n      swap1\n      pop\n        /* \"#utility.yul\":22188:22607   */\n      swap2\n      swap1\n      pop\n      jump\t// out\n        /* \"#utility.yul\":22613:22711   */\n    tag_308:\n        /* \"#utility.yul\":22664:22670   */\n      0x00\n        /* \"#utility.yul\":22698:22703   */\n      dup2\n        /* \"#utility.yul\":22692:22704   */\n      mload\n        /* \"#utility.yul\":22682:22704   */\n      swap1\n      pop\n        /* \"#utility.yul\":22613:22711   */\n      swap2\n      swap1\n      pop\n      jump\t// out\n        /* \"#utility.yul\":22717:22864   */\n    tag_309:\n        /* \"#utility.yul\":22818:22829   */\n      0x00\n        /* \"#utility.yul\":22855:22858   */\n      dup2\n        /* \"#utility.yul\":22840:22858   */\n      swap1\n      pop\n        /* \"#utility.yul\":22717:22864   */\n      swap3\n      swap2\n      pop\n      pop\n      jump\t// out\n        /* \"#utility.yul\":22870:23116   */\n    tag_310:\n        /* \"#utility.yul\":22951:22952   */\n      0x00\n        /* \"#utility.yul\":22961:23074   */\n    tag_514:\n        /* \"#utility.yul\":22975:22981   */\n      dup4\n        /* \"#utility.yul\":22972:22973   */\n      dup2\n        /* \"#utility.yul\":22969:22982   */\n      lt\n        /* \"#utility.yul\":22961:23074   */\n      iszero\n      tag_516\n      jumpi\n        /* \"#utility.yul\":23060:23061   */\n      dup1\n        /* \"#utility.yul\":23055:23058   */\n      dup3\n        /* \"#utility.yul\":23051:23062   */\n      add\n        /* \"#utility.yul\":23045:23063   */\n      mload\n        /* \"#utility.yul\":23041:23042   */\n      dup2\n        /* \"#utility.yul\":23036:23039   */\n      dup5\n        /* \"#utility.yul\":23032:23043   */\n      add\n        /* \"#utility.yul\":23025:23064   */\n      mstore\n        /* \"#utility.yul\":22997:22999   */\n      0x20\n        /* \"#utility.yul\":22994:22995   */\n      dup2\n        /* \"#utility.yul\":22990:23000   */\n      add\n        /* \"#utility.yul\":22985:23000   */\n      swap1\n      pop\n        /* \"#utility.yul\":22961:23074   */\n      jump(tag_514)\n    tag_516:\n        /* \"#utility.yul\":23108:23109   */\n      0x00\n        /* \"#utility.yul\":23099:23105   */\n      dup5\n        /* \"#utility.yul\":23094:23097   */\n      dup5\n        /* \"#utility.yul\":23090:23106   */\n      add\n        /* \"#utility.yul\":23083:23110   */\n      mstore\n        /* \"#utility.yul\":22932:23116   */\n      pop\n        /* \"#utility.yul\":22870:23116   */\n      pop\n      pop\n      pop\n      jump\t// out\n        /* \"#utility.yul\":23122:23508   */\n    tag_311:\n        /* \"#utility.yul\":23226:23229   */\n      0x00\n        /* \"#utility.yul\":23254:23292   */\n      tag_518\n        /* \"#utility.yul\":23286:23291   */\n      dup3\n        /* \"#utility.yul\":23254:23292   */\n      tag_308\n      jump\t// in\n    tag_518:\n        /* \"#utility.yul\":23308:23396   */\n      tag_519\n        /* \"#utility.yul\":23389:23395   */\n      dup2\n        /* \"#utility.yul\":23384:23387   */\n      dup6\n        /* \"#utility.yul\":23308:23396   */\n      tag_309\n      jump\t// in\n    tag_519:\n        /* \"#utility.yul\":23301:23396   */\n      swap4\n      pop\n        /* \"#utility.yul\":23405:23470   */\n      tag_520\n        /* \"#utility.yul\":23463:23469   */\n      dup2\n        /* \"#utility.yul\":23458:23461   */\n      dup6\n        /* \"#utility.yul\":23451:23455   */\n      0x20\n        /* \"#utility.yul\":23444:23449   */\n      dup7\n        /* \"#utility.yul\":23440:23456   */\n      add\n        /* \"#utility.yul\":23405:23470   */\n      tag_310\n      jump\t// in\n    tag_520:\n        /* \"#utility.yul\":23495:23501   */\n      dup1\n        /* \"#utility.yul\":23490:23493   */\n      dup5\n        /* \"#utility.yul\":23486:23502   */\n      add\n        /* \"#utility.yul\":23479:23502   */\n      swap2\n      pop\n        /* \"#utility.yul\":23230:23508   */\n      pop\n        /* \"#utility.yul\":23122:23508   */\n      swap3\n      swap2\n      pop\n      pop\n      jump\t// out\n        /* \"#utility.yul\":23514:23785   */\n    tag_233:\n        /* \"#utility.yul\":23644:23647   */\n      0x00\n        /* \"#utility.yul\":23666:23759   */\n      tag_522\n        /* \"#utility.yul\":23755:23758   */\n      dup3\n        /* \"#utility.yul\":23746:23752   */\n      dup5\n        /* \"#utility.yul\":23666:23759   */\n      tag_311\n      jump\t// in\n    tag_522:\n        /* \"#utility.yul\":23659:23759   */\n      swap2\n      pop\n        /* \"#utility.yul\":23776:23779   */\n      dup2\n        /* \"#utility.yul\":23769:23779   */\n      swap1\n      pop\n        /* \"#utility.yul\":23514:23785   */\n      swap3\n      swap2\n      pop\n      pop\n      jump\t// out\n        /* \"#utility.yul\":23791:23970   */\n    tag_312:\n        /* \"#utility.yul\":23931:23962   */\n      0x416464726573733a2063616c6c20746f206e6f6e2d636f6e7472616374000000\n        /* \"#utility.yul\":23927:23928   */\n      0x00\n        /* \"#utility.yul\":23919:23925   */\n      dup3\n        /* \"#utility.yul\":23915:23929   */\n      add\n        /* \"#utility.yul\":23908:23963   */\n      mstore\n        /* \"#utility.yul\":23791:23970   */\n      pop\n      jump\t// out\n        /* \"#utility.yul\":23976:24342   */\n    tag_313:\n        /* \"#utility.yul\":24118:24121   */\n      0x00\n        /* \"#utility.yul\":24139:24206   */\n      tag_525\n        /* \"#utility.yul\":24203:24205   */\n      0x1d\n        /* \"#utility.yul\":24198:24201   */\n      dup4\n        /* \"#utility.yul\":24139:24206   */\n      tag_276\n      jump\t// in\n    tag_525:\n        /* \"#utility.yul\":24132:24206   */\n      swap2\n      pop\n        /* \"#utility.yul\":24215:24308   */\n      tag_526\n        /* \"#utility.yul\":24304:24307   */\n      dup3\n        /* \"#utility.yul\":24215:24308   */\n      tag_312\n      jump\t// in\n    tag_526:\n        /* \"#utility.yul\":24333:24335   */\n      0x20\n        /* \"#utility.yul\":24328:24331   */\n      dup3\n        /* \"#utility.yul\":24324:24336   */\n      add\n        /* \"#utility.yul\":24317:24336   */\n      swap1\n      pop\n        /* \"#utility.yul\":23976:24342   */\n      swap2\n      swap1\n      pop\n      jump\t// out\n        /* \"#utility.yul\":24348:24767   */\n    tag_246:\n        /* \"#utility.yul\":24514:24518   */\n      0x00\n        /* \"#utility.yul\":24552:24554   */\n      0x20\n        /* \"#utility.yul\":24541:24550   */\n      dup3\n        /* \"#utility.yul\":24537:24555   */\n      add\n        /* \"#utility.yul\":24529:24555   */\n      swap1\n      pop\n        /* \"#utility.yul\":24601:24610   */\n      dup2\n        /* \"#utility.yul\":24595:24599   */\n      dup2\n        /* \"#utility.yul\":24591:24611   */\n      sub\n        /* \"#utility.yul\":24587:24588   */\n      0x00\n        /* \"#utility.yul\":24576:24585   */\n      dup4\n        /* \"#utility.yul\":24572:24589   */\n      add\n        /* \"#utility.yul\":24565:24612   */\n      mstore\n        /* \"#utility.yul\":24629:24760   */\n      tag_528\n        /* \"#utility.yul\":24755:24759   */\n      dup2\n        /* \"#utility.yul\":24629:24760   */\n      tag_313\n      jump\t// in\n    tag_528:\n        /* \"#utility.yul\":24621:24760   */\n      swap1\n      pop\n        /* \"#utility.yul\":24348:24767   */\n      swap2\n      swap1\n      pop\n      jump\t// out\n        /* \"#utility.yul\":24773:24872   */\n    tag_314:\n        /* \"#utility.yul\":24825:24831   */\n      0x00\n        /* \"#utility.yul\":24859:24864   */\n      dup2\n        /* \"#utility.yul\":24853:24865   */\n      mload\n        /* \"#utility.yul\":24843:24865   */\n      swap1\n      pop\n        /* \"#utility.yul\":24773:24872   */\n      swap2\n      swap1\n      pop\n      jump\t// out\n        /* \"#utility.yul\":24878:24980   */\n    tag_315:\n        /* \"#utility.yul\":24919:24925   */\n      0x00\n        /* \"#utility.yul\":24970:24972   */\n      0x1f\n        /* \"#utility.yul\":24966:24973   */\n      not\n        /* \"#utility.yul\":24961:24963   */\n      0x1f\n        /* \"#utility.yul\":24954:24959   */\n      dup4\n        /* \"#utility.yul\":24950:24964   */\n      add\n        /* \"#utility.yul\":24946:24974   */\n      and\n        /* \"#utility.yul\":24936:24974   */\n      swap1\n      pop\n        /* \"#utility.yul\":24878:24980   */\n      swap2\n      swap1\n      pop\n      jump\t// out\n        /* \"#utility.yul\":24986:25363   */\n    tag_316:\n        /* \"#utility.yul\":25074:25077   */\n      0x00\n        /* \"#utility.yul\":25102:25141   */\n      tag_532\n        /* \"#utility.yul\":25135:25140   */\n      dup3\n        /* \"#utility.yul\":25102:25141   */\n      tag_314\n      jump\t// in\n    tag_532:\n        /* \"#utility.yul\":25157:25228   */\n      tag_533\n        /* \"#utility.yul\":25221:25227   */\n      dup2\n        /* \"#utility.yul\":25216:25219   */\n      dup6\n        /* \"#utility.yul\":25157:25228   */\n      tag_276\n      jump\t// in\n    tag_533:\n        /* \"#utility.yul\":25150:25228   */\n      swap4\n      pop\n        /* \"#utility.yul\":25237:25302   */\n      tag_534\n        /* \"#utility.yul\":25295:25301   */\n      dup2\n        /* \"#utility.yul\":25290:25293   */\n      dup6\n        /* \"#utility.yul\":25283:25287   */\n      0x20\n        /* \"#utility.yul\":25276:25281   */\n      dup7\n        /* \"#utility.yul\":25272:25288   */\n      add\n        /* \"#utility.yul\":25237:25302   */\n      tag_310\n      jump\t// in\n    tag_534:\n        /* \"#utility.yul\":25327:25356   */\n      tag_535\n        /* \"#utility.yul\":25349:25355   */\n      dup2\n        /* \"#utility.yul\":25327:25356   */\n      tag_315\n      jump\t// in\n    tag_535:\n        /* \"#utility.yul\":25322:25325   */\n      dup5\n        /* \"#utility.yul\":25318:25357   */\n      add\n        /* \"#utility.yul\":25311:25357   */\n      swap2\n      pop\n        /* \"#utility.yul\":25078:25363   */\n      pop\n        /* \"#utility.yul\":24986:25363   */\n      swap3\n      swap2\n      pop\n      pop\n      jump\t// out\n        /* \"#utility.yul\":25369:25682   */\n    tag_255:\n        /* \"#utility.yul\":25482:25486   */\n      0x00\n        /* \"#utility.yul\":25520:25522   */\n      0x20\n        /* \"#utility.yul\":25509:25518   */\n      dup3\n        /* \"#utility.yul\":25505:25523   */\n      add\n        /* \"#utility.yul\":25497:25523   */\n      swap1\n      pop\n        /* \"#utility.yul\":25569:25578   */\n      dup2\n        /* \"#utility.yul\":25563:25567   */\n      dup2\n        /* \"#utility.yul\":25559:25579   */\n      sub\n        /* \"#utility.yul\":25555:25556   */\n      0x00\n        /* \"#utility.yul\":25544:25553   */\n      dup4\n        /* \"#utility.yul\":25540:25557   */\n      add\n        /* \"#utility.yul\":25533:25580   */\n      mstore\n        /* \"#utility.yul\":25597:25675   */\n      tag_537\n        /* \"#utility.yul\":25670:25674   */\n      dup2\n        /* \"#utility.yul\":25661:25667   */\n      dup5\n        /* \"#utility.yul\":25597:25675   */\n      tag_316\n      jump\t// in\n    tag_537:\n        /* \"#utility.yul\":25589:25675   */\n      swap1\n      pop\n        /* \"#utility.yul\":25369:25682   */\n      swap3\n      swap2\n      pop\n      pop\n      jump\t// out\n\n    auxdata: 0xa26469706673582212202049bc9a5b69517536687fda545c92da771290920a01f642fb2b3047f57ea6bb64736f6c63430008150033\n}\n",
				"bytecode": {
					"linkReferences": {},
					"object": "608060405234801562000010575f80fd5b50604051620027923803806200279283398181016040528101906200003691906200020b565b620000566200004a620000de60201b60201c565b620000e560201b60201c565b8160055f6101000a81548173ffffffffffffffffffffffffffffffffffffffff021916908373ffffffffffffffffffffffffffffffffffffffff1602179055508060065f6101000a81548173ffffffffffffffffffffffffffffffffffffffff021916908373ffffffffffffffffffffffffffffffffffffffff160217905550505062000250565b5f33905090565b5f805f9054906101000a900473ffffffffffffffffffffffffffffffffffffffff169050815f806101000a81548173ffffffffffffffffffffffffffffffffffffffff021916908373ffffffffffffffffffffffffffffffffffffffff1602179055508173ffffffffffffffffffffffffffffffffffffffff168173ffffffffffffffffffffffffffffffffffffffff167f8be0079c531659141344cd1fd0a4f28419497f9722a3daafe3b4186f6b6457e060405160405180910390a35050565b5f80fd5b5f73ffffffffffffffffffffffffffffffffffffffff82169050919050565b5f620001d582620001aa565b9050919050565b620001e781620001c9565b8114620001f2575f80fd5b50565b5f815190506200020581620001dc565b92915050565b5f8060408385031215620002245762000223620001a6565b5b5f6200023385828601620001f5565b92505060206200024685828601620001f5565b9150509250929050565b612534806200025e5f395ff3fe608060405234801561000f575f80fd5b50600436106100f3575f3560e01c8063a6021ace11610095578063c0cd40ee11610064578063c0cd40ee14610253578063e2bbb1581461026f578063f2fde38b1461028b578063f7d252f4146102a7576100f3565b8063a6021ace146101c5578063b10558ab146101e3578063b4e929d414610201578063b7171a2e14610235576100f3565b80634930e5d1116100d15780634930e5d11461016357806351cff8d914610181578063715018a61461019d5780638da5cb5b146101a7576100f3565b8063150b7a02146100f75780633f4312301461012757806341fcd29a14610145575b5f80fd5b610111600480360381019061010c91906119bd565b6102c5565b60405161011e9190611a7b565b60405180910390f35b61012f6102d9565b60405161013c9190611aa3565b60405180910390f35b61014d6102e4565b60405161015a9190611aa3565b60405180910390f35b61016b6102ef565b6040516101789190611aa3565b60405180910390f35b61019b60048036038101906101969190611abc565b6102f5565b005b6101a5610a53565b005b6101af610a66565b6040516101bc9190611af6565b60405180910390f35b6101cd610a8d565b6040516101da9190611af6565b60405180910390f35b6101eb610ab2565b6040516101f89190611aa3565b60405180910390f35b61021b60048036038101906102169190611abc565b610abd565b60405161022c959493929190611b29565b60405180910390f35b61023d610afb565b60405161024a9190611af6565b60405180910390f35b61026d60048036038101906102689190611b7a565b610b20565b005b61028960048036038101906102849190611ba5565b610b91565b005b6102a560048036038101906102a09190611abc565b6112e3565b005b6102af611365565b6040516102bc9190611aa3565b60405180910390f35b5f63150b7a0260e01b905095945050505050565b6001805f0154905081565b6004805f0154905081565b60075481565b60085f8273ffffffffffffffffffffffffffffffffffffffff1673ffffffffffffffffffffffffffffffffffffffff1681526020019081526020015f206004015f9054906101000a900460ff16610381576040517f08c379a000000000000000000000000000000000000000000000000000000000815260040161037890611c3d565b60405180910390fd5b5f6201518060085f8473ffffffffffffffffffffffffffffffffffffffff1673ffffffffffffffffffffffffffffffffffffffff1681526020019081526020015f2060020154426103d29190611c88565b6103dc9190611ce8565b905060085f8373ffffffffffffffffffffffffffffffffffffffff1673ffffffffffffffffffffffffffffffffffffffff1681526020019081526020015f20600101548110156106d8575f60085f8473ffffffffffffffffffffffffffffffffffffffff1673ffffffffffffffffffffffffffffffffffffffff1681526020019081526020015f206001015460085f8573ffffffffffffffffffffffffffffffffffffffff1673ffffffffffffffffffffffffffffffffffffffff1681526020019081526020015f205f01546104b29190611ce8565b826104bd9190611d18565b90505f60648260026104cf9190611d18565b6104d99190611ce8565b90506105328482846104eb9190611c88565b60065f9054906101000a900473ffffffffffffffffffffffffffffffffffffffff1673ffffffffffffffffffffffffffffffffffffffff166113709092919063ffffffff16565b61058061dead8260065f9054906101000a900473ffffffffffffffffffffffffffffffffffffffff1673ffffffffffffffffffffffffffffffffffffffff166113709092919063ffffffff16565b60055f9054906101000a900473ffffffffffffffffffffffffffffffffffffffff1673ffffffffffffffffffffffffffffffffffffffff1663b88d4fde308660085f8973ffffffffffffffffffffffffffffffffffffffff1673ffffffffffffffffffffffffffffffffffffffff1681526020019081526020015f20600301546040518463ffffffff1660e01b815260040161061e93929190611d8c565b5f604051808303815f87803b158015610635575f80fd5b505af1158015610647573d5f803e3d5ffd5b505050508160075f82825461065c9190611c88565b9250508190555060085f8573ffffffffffffffffffffffffffffffffffffffff1673ffffffffffffffffffffffffffffffffffffffff1681526020019081526020015f205f8082015f9055600182015f9055600282015f9055600382015f9055600482015f6101000a81549060ff0219169055505050506108f4565b6107638260085f8573ffffffffffffffffffffffffffffffffffffffff1673ffffffffffffffffffffffffffffffffffffffff1681526020019081526020015f205f015460065f9054906101000a900473ffffffffffffffffffffffffffffffffffffffff1673ffffffffffffffffffffffffffffffffffffffff166113709092919063ffffffff16565b60055f9054906101000a900473ffffffffffffffffffffffffffffffffffffffff1673ffffffffffffffffffffffffffffffffffffffff1663b88d4fde308460085f8773ffffffffffffffffffffffffffffffffffffffff1673ffffffffffffffffffffffffffffffffffffffff1681526020019081526020015f20600301546040518463ffffffff1660e01b815260040161080193929190611d8c565b5f604051808303815f87803b158015610818575f80fd5b505af115801561082a573d5f803e3d5ffd5b5050505060085f8373ffffffffffffffffffffffffffffffffffffffff1673ffffffffffffffffffffffffffffffffffffffff1681526020019081526020015f205f015460075f82825461087e9190611c88565b9250508190555060085f8373ffffffffffffffffffffffffffffffffffffffff1673ffffffffffffffffffffffffffffffffffffffff1681526020019081526020015f205f8082015f9055600182015f9055600282015f9055600382015f9055600482015f6101000a81549060ff021916905550505b600f60085f8473ffffffffffffffffffffffffffffffffffffffff1673ffffffffffffffffffffffffffffffffffffffff1681526020019081526020015f20600101540361094b5761094660016113f6565b610a4f565b601e60085f8473ffffffffffffffffffffffffffffffffffffffff1673ffffffffffffffffffffffffffffffffffffffff1681526020019081526020015f2060010154036109a25761099d60026113f6565b610a4e565b603c60085f8473ffffffffffffffffffffffffffffffffffffffff1673ffffffffffffffffffffffffffffffffffffffff1681526020019081526020015f2060010154036109f9576109f460036113f6565b610a4d565b605a60085f8473ffffffffffffffffffffffffffffffffffffffff1673ffffffffffffffffffffffffffffffffffffffff1681526020019081526020015f206001015403610a4c57610a4b60046113f6565b5b5b5b5b5050565b610a5b61144e565b610a645f6114cc565b565b5f805f9054906101000a900473ffffffffffffffffffffffffffffffffffffffff16905090565b60065f9054906101000a900473ffffffffffffffffffffffffffffffffffffffff1681565b6002805f0154905081565b6008602052805f5260405f205f91509050805f015490806001015490806002015490806003015490806004015f9054906101000a900460ff16905085565b60055f9054906101000a900473ffffffffffffffffffffffffffffffffffffffff1681565b610b2861144e565b8060075f828254610b399190611dd4565b92505081905550610b8e33308360065f9054906101000a900473ffffffffffffffffffffffffffffffffffffffff1673ffffffffffffffffffffffffffffffffffffffff1661158d909392919063ffffffff16565b50565b60085f3373ffffffffffffffffffffffffffffffffffffffff1673ffffffffffffffffffffffffffffffffffffffff1681526020019081526020015f206004015f9054906101000a900460ff1615610c1e576040517f08c379a0000000000000000000000000000000000000000000000000000000008152600401610c1590611e51565b60405180910390fd5b600f8103610dbf57610c306001611616565b6103e8610c3d600161162a565b1115610c7e576040517f08c379a0000000000000000000000000000000000000000000000000000000008152600401610c7590611eb9565b60405180910390fd5b6040518060a0016040528061138881526020018281526020014281526020018381526020016001151581525060085f3373ffffffffffffffffffffffffffffffffffffffff1673ffffffffffffffffffffffffffffffffffffffff1681526020019081526020015f205f820151815f01556020820151816001015560408201518160020155606082015181600301556080820151816004015f6101000a81548160ff02191690831515021790555090505060055f9054906101000a900473ffffffffffffffffffffffffffffffffffffffff1673ffffffffffffffffffffffffffffffffffffffff1663b88d4fde3330856040518463ffffffff1660e01b8152600401610d8d93929190611d8c565b5f604051808303815f87803b158015610da4575f80fd5b505af1158015610db6573d5f803e3d5ffd5b505050506112df565b601e8103610f6057610dd16002611616565b6102ee610dde600261162a565b1115610e1f576040517f08c379a0000000000000000000000000000000000000000000000000000000008152600401610e1690611f21565b60405180910390fd5b6040518060a00160405280611d4c81526020018281526020014281526020018381526020016001151581525060085f3373ffffffffffffffffffffffffffffffffffffffff1673ffffffffffffffffffffffffffffffffffffffff1681526020019081526020015f205f820151815f01556020820151816001015560408201518160020155606082015181600301556080820151816004015f6101000a81548160ff02191690831515021790555090505060055f9054906101000a900473ffffffffffffffffffffffffffffffffffffffff1673ffffffffffffffffffffffffffffffffffffffff1663b88d4fde3330856040518463ffffffff1660e01b8152600401610f2e93929190611d8c565b5f604051808303815f87803b158015610f45575f80fd5b505af1158015610f57573d5f803e3d5ffd5b505050506112de565b603c810361110157610f726003611616565b6101f4610f7f600361162a565b1115610fc0576040517f08c379a0000000000000000000000000000000000000000000000000000000008152600401610fb790611f89565b60405180910390fd5b6040518060a001604052806130d481526020018281526020014281526020018381526020016001151581525060085f3373ffffffffffffffffffffffffffffffffffffffff1673ffffffffffffffffffffffffffffffffffffffff1681526020019081526020015f205f820151815f01556020820151816001015560408201518160020155606082015181600301556080820151816004015f6101000a81548160ff02191690831515021790555090505060055f9054906101000a900473ffffffffffffffffffffffffffffffffffffffff1673ffffffffffffffffffffffffffffffffffffffff1663b88d4fde3330856040518463ffffffff1660e01b81526004016110cf93929190611d8c565b5f604051808303815f87803b1580156110e6575f80fd5b505af11580156110f8573d5f803e3d5ffd5b505050506112dd565b605a81036112a1576111136004611616565b60fa61111f600461162a565b1115611160576040517f08c379a000000000000000000000000000000000000000000000000000000000815260040161115790611ff1565b60405180910390fd5b6040518060a0016040528061445c81526020018281526020014281526020018381526020016001151581525060085f3373ffffffffffffffffffffffffffffffffffffffff1673ffffffffffffffffffffffffffffffffffffffff1681526020019081526020015f205f820151815f01556020820151816001015560408201518160020155606082015181600301556080820151816004015f6101000a81548160ff02191690831515021790555090505060055f9054906101000a900473ffffffffffffffffffffffffffffffffffffffff1673ffffffffffffffffffffffffffffffffffffffff1663b88d4fde3330856040518463ffffffff1660e01b815260040161126f93929190611d8c565b5f604051808303815f87803b158015611286575f80fd5b505af1158015611298573d5f803e3d5ffd5b505050506112dc565b6040517f08c379a00000000000000000000000000000000000000000000000000000000081526004016112d390612059565b60405180910390fd5b5b5b5b5050565b6112eb61144e565b5f73ffffffffffffffffffffffffffffffffffffffff168173ffffffffffffffffffffffffffffffffffffffff1603611359576040517f08c379a0000000000000000000000000000000000000000000000000000000008152600401611350906120e7565b60405180910390fd5b611362816114cc565b50565b6003805f0154905081565b6113f18363a9059cbb60e01b848460405160240161138f929190612105565b604051602081830303815290604052907bffffffffffffffffffffffffffffffffffffffffffffffffffffffff19166020820180517bffffffffffffffffffffffffffffffffffffffffffffffffffffffff8381831617835250505050611636565b505050565b5f815f015490505f811161143f576040517f08c379a000000000000000000000000000000000000000000000000000000000815260040161143690612176565b60405180910390fd5b60018103825f01819055505050565b6114566116fb565b73ffffffffffffffffffffffffffffffffffffffff16611474610a66565b73ffffffffffffffffffffffffffffffffffffffff16146114ca576040517f08c379a00000000000000000000000000000000000000000000000000000000081526004016114c1906121de565b60405180910390fd5b565b5f805f9054906101000a900473ffffffffffffffffffffffffffffffffffffffff169050815f806101000a81548173ffffffffffffffffffffffffffffffffffffffff021916908373ffffffffffffffffffffffffffffffffffffffff1602179055508173ffffffffffffffffffffffffffffffffffffffff168173ffffffffffffffffffffffffffffffffffffffff167f8be0079c531659141344cd1fd0a4f28419497f9722a3daafe3b4186f6b6457e060405160405180910390a35050565b611610846323b872dd60e01b8585856040516024016115ae939291906121fc565b604051602081830303815290604052907bffffffffffffffffffffffffffffffffffffffffffffffffffffffff19166020820180517bffffffffffffffffffffffffffffffffffffffffffffffffffffffff8381831617835250505050611636565b50505050565b6001815f015f828254019250508190555050565b5f815f01549050919050565b5f611697826040518060400160405280602081526020017f5361666545524332303a206c6f772d6c6576656c2063616c6c206661696c65648152508573ffffffffffffffffffffffffffffffffffffffff166117029092919063ffffffff16565b90505f815111156116f657808060200190518101906116b6919061225b565b6116f5576040517f08c379a00000000000000000000000000000000000000000000000000000000081526004016116ec906122f6565b60405180910390fd5b5b505050565b5f33905090565b606061171084845f85611719565b90509392505050565b60608247101561175e576040517f08c379a000000000000000000000000000000000000000000000000000000000815260040161175590612384565b60405180910390fd5b5f808673ffffffffffffffffffffffffffffffffffffffff168587604051611786919061240e565b5f6040518083038185875af1925050503d805f81146117c0576040519150601f19603f3d011682016040523d82523d5f602084013e6117c5565b606091505b50915091506117d6878383876117e2565b92505050949350505050565b60608315611843575f83510361183b576117fb85611856565b61183a576040517f08c379a00000000000000000000000000000000000000000000000000000000081526004016118319061246e565b60405180910390fd5b5b82905061184e565b61184d8383611878565b5b949350505050565b5f808273ffffffffffffffffffffffffffffffffffffffff163b119050919050565b5f8251111561188a5781518083602001fd5b806040517f08c379a00000000000000000000000000000000000000000000000000000000081526004016118be91906124de565b60405180910390fd5b5f80fd5b5f80fd5b5f73ffffffffffffffffffffffffffffffffffffffff82169050919050565b5f6118f8826118cf565b9050919050565b611908816118ee565b8114611912575f80fd5b50565b5f81359050611923816118ff565b92915050565b5f819050919050565b61193b81611929565b8114611945575f80fd5b50565b5f8135905061195681611932565b92915050565b5f80fd5b5f80fd5b5f80fd5b5f8083601f84011261197d5761197c61195c565b5b8235905067ffffffffffffffff81111561199a57611999611960565b5b6020830191508360018202830111156119b6576119b5611964565b5b9250929050565b5f805f805f608086880312156119d6576119d56118c7565b5b5f6119e388828901611915565b95505060206119f488828901611915565b9450506040611a0588828901611948565b935050606086013567ffffffffffffffff811115611a2657611a256118cb565b5b611a3288828901611968565b92509250509295509295909350565b5f7fffffffff0000000000000000000000000000000000000000000000000000000082169050919050565b611a7581611a41565b82525050565b5f602082019050611a8e5f830184611a6c565b92915050565b611a9d81611929565b82525050565b5f602082019050611ab65f830184611a94565b92915050565b5f60208284031215611ad157611ad06118c7565b5b5f611ade84828501611915565b91505092915050565b611af0816118ee565b82525050565b5f602082019050611b095f830184611ae7565b92915050565b5f8115159050919050565b611b2381611b0f565b82525050565b5f60a082019050611b3c5f830188611a94565b611b496020830187611a94565b611b566040830186611a94565b611b636060830185611a94565b611b706080830184611b1a565b9695505050505050565b5f60208284031215611b8f57611b8e6118c7565b5b5f611b9c84828501611948565b91505092915050565b5f8060408385031215611bbb57611bba6118c7565b5b5f611bc885828601611948565b9250506020611bd985828601611948565b9150509250929050565b5f82825260208201905092915050565b7f506c65617365204669727374204465706f736974204e465420212121000000005f82015250565b5f611c27601c83611be3565b9150611c3282611bf3565b602082019050919050565b5f6020820190508181035f830152611c5481611c1b565b9050919050565b7f4e487b71000000000000000000000000000000000000000000000000000000005f52601160045260245ffd5b5f611c9282611929565b9150611c9d83611929565b9250828203905081811115611cb557611cb4611c5b565b5b92915050565b7f4e487b71000000000000000000000000000000000000000000000000000000005f52601260045260245ffd5b5f611cf282611929565b9150611cfd83611929565b925082611d0d57611d0c611cbb565b5b828204905092915050565b5f611d2282611929565b9150611d2d83611929565b9250828202611d3b81611929565b91508282048414831517611d5257611d51611c5b565b5b5092915050565b5f82825260208201905092915050565b50565b5f611d775f83611d59565b9150611d8282611d69565b5f82019050919050565b5f608082019050611d9f5f830186611ae7565b611dac6020830185611ae7565b611db96040830184611a94565b8181036060830152611dca81611d6c565b9050949350505050565b5f611dde82611929565b9150611de983611929565b9250828201905080821115611e0157611e00611c5b565b5b92915050565b7f596f7520416c7265616479204465706f736974204e46540000000000000000005f82015250565b5f611e3b601783611be3565b9150611e4682611e07565b602082019050919050565b5f6020820190508181035f830152611e6881611e2f565b9050919050565b7f313520446179732043617465676f72792069732046756c6c20212121000000005f82015250565b5f611ea3601c83611be3565b9150611eae82611e6f565b602082019050919050565b5f6020820190508181035f830152611ed081611e97565b9050919050565b7f333020446179732043617465676f72792069732046756c6c20212121000000005f82015250565b5f611f0b601c83611be3565b9150611f1682611ed7565b602082019050919050565b5f6020820190508181035f830152611f3881611eff565b9050919050565b7f363020446179732043617465676f72792069732046756c6c20212121000000005f82015250565b5f611f73601c83611be3565b9150611f7e82611f3f565b602082019050919050565b5f6020820190508181035f830152611fa081611f67565b9050919050565b7f393020446179732043617465676f72792069732046756c6c20212121000000005f82015250565b5f611fdb601c83611be3565b9150611fe682611fa7565b602082019050919050565b5f6020820190508181035f83015261200881611fcf565b9050919050565b7f53656c6c65637420446179732031352c33302c36302c393020212121000000005f82015250565b5f612043601c83611be3565b915061204e8261200f565b602082019050919050565b5f6020820190508181035f83015261207081612037565b9050919050565b7f4f776e61626c653a206e6577206f776e657220697320746865207a65726f20615f8201527f6464726573730000000000000000000000000000000000000000000000000000602082015250565b5f6120d1602683611be3565b91506120dc82612077565b604082019050919050565b5f6020820190508181035f8301526120fe816120c5565b9050919050565b5f6040820190506121185f830185611ae7565b6121256020830184611a94565b9392505050565b7f436f756e7465723a2064656372656d656e74206f766572666c6f7700000000005f82015250565b5f612160601b83611be3565b915061216b8261212c565b602082019050919050565b5f6020820190508181035f83015261218d81612154565b9050919050565b7f4f776e61626c653a2063616c6c6572206973206e6f7420746865206f776e65725f82015250565b5f6121c8602083611be3565b91506121d382612194565b602082019050919050565b5f6020820190508181035f8301526121f5816121bc565b9050919050565b5f60608201905061220f5f830186611ae7565b61221c6020830185611ae7565b6122296040830184611a94565b949350505050565b61223a81611b0f565b8114612244575f80fd5b50565b5f8151905061225581612231565b92915050565b5f602082840312156122705761226f6118c7565b5b5f61227d84828501612247565b91505092915050565b7f5361666545524332303a204552433230206f7065726174696f6e20646964206e5f8201527f6f74207375636365656400000000000000000000000000000000000000000000602082015250565b5f6122e0602a83611be3565b91506122eb82612286565b604082019050919050565b5f6020820190508181035f83015261230d816122d4565b9050919050565b7f416464726573733a20696e73756666696369656e742062616c616e636520666f5f8201527f722063616c6c0000000000000000000000000000000000000000000000000000602082015250565b5f61236e602683611be3565b915061237982612314565b604082019050919050565b5f6020820190508181035f83015261239b81612362565b9050919050565b5f81519050919050565b5f81905092915050565b5f5b838110156123d35780820151818401526020810190506123b8565b5f8484015250505050565b5f6123e8826123a2565b6123f281856123ac565b93506124028185602086016123b6565b80840191505092915050565b5f61241982846123de565b915081905092915050565b7f416464726573733a2063616c6c20746f206e6f6e2d636f6e74726163740000005f82015250565b5f612458601d83611be3565b915061246382612424565b602082019050919050565b5f6020820190508181035f8301526124858161244c565b9050919050565b5f81519050919050565b5f601f19601f8301169050919050565b5f6124b08261248c565b6124ba8185611be3565b93506124ca8185602086016123b6565b6124d381612496565b840191505092915050565b5f6020820190508181035f8301526124f681846124a6565b90509291505056fea26469706673582212202049bc9a5b69517536687fda545c92da771290920a01f642fb2b3047f57ea6bb64736f6c63430008150033",
					"opcodes": "PUSH1 0x80 PUSH1 0x40 MSTORE CALLVALUE DUP1 ISZERO PUSH3 0x10 JUMPI PUSH0 DUP1 REVERT JUMPDEST POP PUSH1 0x40 MLOAD PUSH3 0x2792 CODESIZE SUB DUP1 PUSH3 0x2792 DUP4 CODECOPY DUP2 DUP2 ADD PUSH1 0x40 MSTORE DUP2 ADD SWAP1 PUSH3 0x36 SWAP2 SWAP1 PUSH3 0x20B JUMP JUMPDEST PUSH3 0x56 PUSH3 0x4A PUSH3 0xDE PUSH1 0x20 SHL PUSH1 0x20 SHR JUMP JUMPDEST PUSH3 0xE5 PUSH1 0x20 SHL PUSH1 0x20 SHR JUMP JUMPDEST DUP2 PUSH1 0x5 PUSH0 PUSH2 0x100 EXP DUP2 SLOAD DUP2 PUSH20 0xFFFFFFFFFFFFFFFFFFFFFFFFFFFFFFFFFFFFFFFF MUL NOT AND SWAP1 DUP4 PUSH20 0xFFFFFFFFFFFFFFFFFFFFFFFFFFFFFFFFFFFFFFFF AND MUL OR SWAP1 SSTORE POP DUP1 PUSH1 0x6 PUSH0 PUSH2 0x100 EXP DUP2 SLOAD DUP2 PUSH20 0xFFFFFFFFFFFFFFFFFFFFFFFFFFFFFFFFFFFFFFFF MUL NOT AND SWAP1 DUP4 PUSH20 0xFFFFFFFFFFFFFFFFFFFFFFFFFFFFFFFFFFFFFFFF AND MUL OR SWAP1 SSTORE POP POP POP PUSH3 0x250 JUMP JUMPDEST PUSH0 CALLER SWAP1 POP SWAP1 JUMP JUMPDEST PUSH0 DUP1 PUSH0 SWAP1 SLOAD SWAP1 PUSH2 0x100 EXP SWAP1 DIV PUSH20 0xFFFFFFFFFFFFFFFFFFFFFFFFFFFFFFFFFFFFFFFF AND SWAP1 POP DUP2 PUSH0 DUP1 PUSH2 0x100 EXP DUP2 SLOAD DUP2 PUSH20 0xFFFFFFFFFFFFFFFFFFFFFFFFFFFFFFFFFFFFFFFF MUL NOT AND SWAP1 DUP4 PUSH20 0xFFFFFFFFFFFFFFFFFFFFFFFFFFFFFFFFFFFFFFFF AND MUL OR SWAP1 SSTORE POP DUP2 PUSH20 0xFFFFFFFFFFFFFFFFFFFFFFFFFFFFFFFFFFFFFFFF AND DUP2 PUSH20 0xFFFFFFFFFFFFFFFFFFFFFFFFFFFFFFFFFFFFFFFF AND PUSH32 0x8BE0079C531659141344CD1FD0A4F28419497F9722A3DAAFE3B4186F6B6457E0 PUSH1 0x40 MLOAD PUSH1 0x40 MLOAD DUP1 SWAP2 SUB SWAP1 LOG3 POP POP JUMP JUMPDEST PUSH0 DUP1 REVERT JUMPDEST PUSH0 PUSH20 0xFFFFFFFFFFFFFFFFFFFFFFFFFFFFFFFFFFFFFFFF DUP3 AND SWAP1 POP SWAP2 SWAP1 POP JUMP JUMPDEST PUSH0 PUSH3 0x1D5 DUP3 PUSH3 0x1AA JUMP JUMPDEST SWAP1 POP SWAP2 SWAP1 POP JUMP JUMPDEST PUSH3 0x1E7 DUP2 PUSH3 0x1C9 JUMP JUMPDEST DUP2 EQ PUSH3 0x1F2 JUMPI PUSH0 DUP1 REVERT JUMPDEST POP JUMP JUMPDEST PUSH0 DUP2 MLOAD SWAP1 POP PUSH3 0x205 DUP2 PUSH3 0x1DC JUMP JUMPDEST SWAP3 SWAP2 POP POP JUMP JUMPDEST PUSH0 DUP1 PUSH1 0x40 DUP4 DUP6 SUB SLT ISZERO PUSH3 0x224 JUMPI PUSH3 0x223 PUSH3 0x1A6 JUMP JUMPDEST JUMPDEST PUSH0 PUSH3 0x233 DUP6 DUP3 DUP7 ADD PUSH3 0x1F5 JUMP JUMPDEST SWAP3 POP POP PUSH1 0x20 PUSH3 0x246 DUP6 DUP3 DUP7 ADD PUSH3 0x1F5 JUMP JUMPDEST SWAP2 POP POP SWAP3 POP SWAP3 SWAP1 POP JUMP JUMPDEST PUSH2 0x2534 DUP1 PUSH3 0x25E PUSH0 CODECOPY PUSH0 RETURN INVALID PUSH1 0x80 PUSH1 0x40 MSTORE CALLVALUE DUP1 ISZERO PUSH2 0xF JUMPI PUSH0 DUP1 REVERT JUMPDEST POP PUSH1 0x4 CALLDATASIZE LT PUSH2 0xF3 JUMPI PUSH0 CALLDATALOAD PUSH1 0xE0 SHR DUP1 PUSH4 0xA6021ACE GT PUSH2 0x95 JUMPI DUP1 PUSH4 0xC0CD40EE GT PUSH2 0x64 JUMPI DUP1 PUSH4 0xC0CD40EE EQ PUSH2 0x253 JUMPI DUP1 PUSH4 0xE2BBB158 EQ PUSH2 0x26F JUMPI DUP1 PUSH4 0xF2FDE38B EQ PUSH2 0x28B JUMPI DUP1 PUSH4 0xF7D252F4 EQ PUSH2 0x2A7 JUMPI PUSH2 0xF3 JUMP JUMPDEST DUP1 PUSH4 0xA6021ACE EQ PUSH2 0x1C5 JUMPI DUP1 PUSH4 0xB10558AB EQ PUSH2 0x1E3 JUMPI DUP1 PUSH4 0xB4E929D4 EQ PUSH2 0x201 JUMPI DUP1 PUSH4 0xB7171A2E EQ PUSH2 0x235 JUMPI PUSH2 0xF3 JUMP JUMPDEST DUP1 PUSH4 0x4930E5D1 GT PUSH2 0xD1 JUMPI DUP1 PUSH4 0x4930E5D1 EQ PUSH2 0x163 JUMPI DUP1 PUSH4 0x51CFF8D9 EQ PUSH2 0x181 JUMPI DUP1 PUSH4 0x715018A6 EQ PUSH2 0x19D JUMPI DUP1 PUSH4 0x8DA5CB5B EQ PUSH2 0x1A7 JUMPI PUSH2 0xF3 JUMP JUMPDEST DUP1 PUSH4 0x150B7A02 EQ PUSH2 0xF7 JUMPI DUP1 PUSH4 0x3F431230 EQ PUSH2 0x127 JUMPI DUP1 PUSH4 0x41FCD29A EQ PUSH2 0x145 JUMPI JUMPDEST PUSH0 DUP1 REVERT JUMPDEST PUSH2 0x111 PUSH1 0x4 DUP1 CALLDATASIZE SUB DUP2 ADD SWAP1 PUSH2 0x10C SWAP2 SWAP1 PUSH2 0x19BD JUMP JUMPDEST PUSH2 0x2C5 JUMP JUMPDEST PUSH1 0x40 MLOAD PUSH2 0x11E SWAP2 SWAP1 PUSH2 0x1A7B JUMP JUMPDEST PUSH1 0x40 MLOAD DUP1 SWAP2 SUB SWAP1 RETURN JUMPDEST PUSH2 0x12F PUSH2 0x2D9 JUMP JUMPDEST PUSH1 0x40 MLOAD PUSH2 0x13C SWAP2 SWAP1 PUSH2 0x1AA3 JUMP JUMPDEST PUSH1 0x40 MLOAD DUP1 SWAP2 SUB SWAP1 RETURN JUMPDEST PUSH2 0x14D PUSH2 0x2E4 JUMP JUMPDEST PUSH1 0x40 MLOAD PUSH2 0x15A SWAP2 SWAP1 PUSH2 0x1AA3 JUMP JUMPDEST PUSH1 0x40 MLOAD DUP1 SWAP2 SUB SWAP1 RETURN JUMPDEST PUSH2 0x16B PUSH2 0x2EF JUMP JUMPDEST PUSH1 0x40 MLOAD PUSH2 0x178 SWAP2 SWAP1 PUSH2 0x1AA3 JUMP JUMPDEST PUSH1 0x40 MLOAD DUP1 SWAP2 SUB SWAP1 RETURN JUMPDEST PUSH2 0x19B PUSH1 0x4 DUP1 CALLDATASIZE SUB DUP2 ADD SWAP1 PUSH2 0x196 SWAP2 SWAP1 PUSH2 0x1ABC JUMP JUMPDEST PUSH2 0x2F5 JUMP JUMPDEST STOP JUMPDEST PUSH2 0x1A5 PUSH2 0xA53 JUMP JUMPDEST STOP JUMPDEST PUSH2 0x1AF PUSH2 0xA66 JUMP JUMPDEST PUSH1 0x40 MLOAD PUSH2 0x1BC SWAP2 SWAP1 PUSH2 0x1AF6 JUMP JUMPDEST PUSH1 0x40 MLOAD DUP1 SWAP2 SUB SWAP1 RETURN JUMPDEST PUSH2 0x1CD PUSH2 0xA8D JUMP JUMPDEST PUSH1 0x40 MLOAD PUSH2 0x1DA SWAP2 SWAP1 PUSH2 0x1AF6 JUMP JUMPDEST PUSH1 0x40 MLOAD DUP1 SWAP2 SUB SWAP1 RETURN JUMPDEST PUSH2 0x1EB PUSH2 0xAB2 JUMP JUMPDEST PUSH1 0x40 MLOAD PUSH2 0x1F8 SWAP2 SWAP1 PUSH2 0x1AA3 JUMP JUMPDEST PUSH1 0x40 MLOAD DUP1 SWAP2 SUB SWAP1 RETURN JUMPDEST PUSH2 0x21B PUSH1 0x4 DUP1 CALLDATASIZE SUB DUP2 ADD SWAP1 PUSH2 0x216 SWAP2 SWAP1 PUSH2 0x1ABC JUMP JUMPDEST PUSH2 0xABD JUMP JUMPDEST PUSH1 0x40 MLOAD PUSH2 0x22C SWAP6 SWAP5 SWAP4 SWAP3 SWAP2 SWAP1 PUSH2 0x1B29 JUMP JUMPDEST PUSH1 0x40 MLOAD DUP1 SWAP2 SUB SWAP1 RETURN JUMPDEST PUSH2 0x23D PUSH2 0xAFB JUMP JUMPDEST PUSH1 0x40 MLOAD PUSH2 0x24A SWAP2 SWAP1 PUSH2 0x1AF6 JUMP JUMPDEST PUSH1 0x40 MLOAD DUP1 SWAP2 SUB SWAP1 RETURN JUMPDEST PUSH2 0x26D PUSH1 0x4 DUP1 CALLDATASIZE SUB DUP2 ADD SWAP1 PUSH2 0x268 SWAP2 SWAP1 PUSH2 0x1B7A JUMP JUMPDEST PUSH2 0xB20 JUMP JUMPDEST STOP JUMPDEST PUSH2 0x289 PUSH1 0x4 DUP1 CALLDATASIZE SUB DUP2 ADD SWAP1 PUSH2 0x284 SWAP2 SWAP1 PUSH2 0x1BA5 JUMP JUMPDEST PUSH2 0xB91 JUMP JUMPDEST STOP JUMPDEST PUSH2 0x2A5 PUSH1 0x4 DUP1 CALLDATASIZE SUB DUP2 ADD SWAP1 PUSH2 0x2A0 SWAP2 SWAP1 PUSH2 0x1ABC JUMP JUMPDEST PUSH2 0x12E3 JUMP JUMPDEST STOP JUMPDEST PUSH2 0x2AF PUSH2 0x1365 JUMP JUMPDEST PUSH1 0x40 MLOAD PUSH2 0x2BC SWAP2 SWAP1 PUSH2 0x1AA3 JUMP JUMPDEST PUSH1 0x40 MLOAD DUP1 SWAP2 SUB SWAP1 RETURN JUMPDEST PUSH0 PUSH4 0x150B7A02 PUSH1 0xE0 SHL SWAP1 POP SWAP6 SWAP5 POP POP POP POP POP JUMP JUMPDEST PUSH1 0x1 DUP1 PUSH0 ADD SLOAD SWAP1 POP DUP2 JUMP JUMPDEST PUSH1 0x4 DUP1 PUSH0 ADD SLOAD SWAP1 POP DUP2 JUMP JUMPDEST PUSH1 0x7 SLOAD DUP2 JUMP JUMPDEST PUSH1 0x8 PUSH0 DUP3 PUSH20 0xFFFFFFFFFFFFFFFFFFFFFFFFFFFFFFFFFFFFFFFF AND PUSH20 0xFFFFFFFFFFFFFFFFFFFFFFFFFFFFFFFFFFFFFFFF AND DUP2 MSTORE PUSH1 0x20 ADD SWAP1 DUP2 MSTORE PUSH1 0x20 ADD PUSH0 KECCAK256 PUSH1 0x4 ADD PUSH0 SWAP1 SLOAD SWAP1 PUSH2 0x100 EXP SWAP1 DIV PUSH1 0xFF AND PUSH2 0x381 JUMPI PUSH1 0x40 MLOAD PUSH32 0x8C379A000000000000000000000000000000000000000000000000000000000 DUP2 MSTORE PUSH1 0x4 ADD PUSH2 0x378 SWAP1 PUSH2 0x1C3D JUMP JUMPDEST PUSH1 0x40 MLOAD DUP1 SWAP2 SUB SWAP1 REVERT JUMPDEST PUSH0 PUSH3 0x15180 PUSH1 0x8 PUSH0 DUP5 PUSH20 0xFFFFFFFFFFFFFFFFFFFFFFFFFFFFFFFFFFFFFFFF AND PUSH20 0xFFFFFFFFFFFFFFFFFFFFFFFFFFFFFFFFFFFFFFFF AND DUP2 MSTORE PUSH1 0x20 ADD SWAP1 DUP2 MSTORE PUSH1 0x20 ADD PUSH0 KECCAK256 PUSH1 0x2 ADD SLOAD TIMESTAMP PUSH2 0x3D2 SWAP2 SWAP1 PUSH2 0x1C88 JUMP JUMPDEST PUSH2 0x3DC SWAP2 SWAP1 PUSH2 0x1CE8 JUMP JUMPDEST SWAP1 POP PUSH1 0x8 PUSH0 DUP4 PUSH20 0xFFFFFFFFFFFFFFFFFFFFFFFFFFFFFFFFFFFFFFFF AND PUSH20 0xFFFFFFFFFFFFFFFFFFFFFFFFFFFFFFFFFFFFFFFF AND DUP2 MSTORE PUSH1 0x20 ADD SWAP1 DUP2 MSTORE PUSH1 0x20 ADD PUSH0 KECCAK256 PUSH1 0x1 ADD SLOAD DUP2 LT ISZERO PUSH2 0x6D8 JUMPI PUSH0 PUSH1 0x8 PUSH0 DUP5 PUSH20 0xFFFFFFFFFFFFFFFFFFFFFFFFFFFFFFFFFFFFFFFF AND PUSH20 0xFFFFFFFFFFFFFFFFFFFFFFFFFFFFFFFFFFFFFFFF AND DUP2 MSTORE PUSH1 0x20 ADD SWAP1 DUP2 MSTORE PUSH1 0x20 ADD PUSH0 KECCAK256 PUSH1 0x1 ADD SLOAD PUSH1 0x8 PUSH0 DUP6 PUSH20 0xFFFFFFFFFFFFFFFFFFFFFFFFFFFFFFFFFFFFFFFF AND PUSH20 0xFFFFFFFFFFFFFFFFFFFFFFFFFFFFFFFFFFFFFFFF AND DUP2 MSTORE PUSH1 0x20 ADD SWAP1 DUP2 MSTORE PUSH1 0x20 ADD PUSH0 KECCAK256 PUSH0 ADD SLOAD PUSH2 0x4B2 SWAP2 SWAP1 PUSH2 0x1CE8 JUMP JUMPDEST DUP3 PUSH2 0x4BD SWAP2 SWAP1 PUSH2 0x1D18 JUMP JUMPDEST SWAP1 POP PUSH0 PUSH1 0x64 DUP3 PUSH1 0x2 PUSH2 0x4CF SWAP2 SWAP1 PUSH2 0x1D18 JUMP JUMPDEST PUSH2 0x4D9 SWAP2 SWAP1 PUSH2 0x1CE8 JUMP JUMPDEST SWAP1 POP PUSH2 0x532 DUP5 DUP3 DUP5 PUSH2 0x4EB SWAP2 SWAP1 PUSH2 0x1C88 JUMP JUMPDEST PUSH1 0x6 PUSH0 SWAP1 SLOAD SWAP1 PUSH2 0x100 EXP SWAP1 DIV PUSH20 0xFFFFFFFFFFFFFFFFFFFFFFFFFFFFFFFFFFFFFFFF AND PUSH20 0xFFFFFFFFFFFFFFFFFFFFFFFFFFFFFFFFFFFFFFFF AND PUSH2 0x1370 SWAP1 SWAP3 SWAP2 SWAP1 PUSH4 0xFFFFFFFF AND JUMP JUMPDEST PUSH2 0x580 PUSH2 0xDEAD DUP3 PUSH1 0x6 PUSH0 SWAP1 SLOAD SWAP1 PUSH2 0x100 EXP SWAP1 DIV PUSH20 0xFFFFFFFFFFFFFFFFFFFFFFFFFFFFFFFFFFFFFFFF AND PUSH20 0xFFFFFFFFFFFFFFFFFFFFFFFFFFFFFFFFFFFFFFFF AND PUSH2 0x1370 SWAP1 SWAP3 SWAP2 SWAP1 PUSH4 0xFFFFFFFF AND JUMP JUMPDEST PUSH1 0x5 PUSH0 SWAP1 SLOAD SWAP1 PUSH2 0x100 EXP SWAP1 DIV PUSH20 0xFFFFFFFFFFFFFFFFFFFFFFFFFFFFFFFFFFFFFFFF AND PUSH20 0xFFFFFFFFFFFFFFFFFFFFFFFFFFFFFFFFFFFFFFFF AND PUSH4 0xB88D4FDE ADDRESS DUP7 PUSH1 0x8 PUSH0 DUP10 PUSH20 0xFFFFFFFFFFFFFFFFFFFFFFFFFFFFFFFFFFFFFFFF AND PUSH20 0xFFFFFFFFFFFFFFFFFFFFFFFFFFFFFFFFFFFFFFFF AND DUP2 MSTORE PUSH1 0x20 ADD SWAP1 DUP2 MSTORE PUSH1 0x20 ADD PUSH0 KECCAK256 PUSH1 0x3 ADD SLOAD PUSH1 0x40 MLOAD DUP5 PUSH4 0xFFFFFFFF AND PUSH1 0xE0 SHL DUP2 MSTORE PUSH1 0x4 ADD PUSH2 0x61E SWAP4 SWAP3 SWAP2 SWAP1 PUSH2 0x1D8C JUMP JUMPDEST PUSH0 PUSH1 0x40 MLOAD DUP1 DUP4 SUB DUP2 PUSH0 DUP8 DUP1 EXTCODESIZE ISZERO DUP1 ISZERO PUSH2 0x635 JUMPI PUSH0 DUP1 REVERT JUMPDEST POP GAS CALL ISZERO DUP1 ISZERO PUSH2 0x647 JUMPI RETURNDATASIZE PUSH0 DUP1 RETURNDATACOPY RETURNDATASIZE PUSH0 REVERT JUMPDEST POP POP POP POP DUP2 PUSH1 0x7 PUSH0 DUP3 DUP3 SLOAD PUSH2 0x65C SWAP2 SWAP1 PUSH2 0x1C88 JUMP JUMPDEST SWAP3 POP POP DUP2 SWAP1 SSTORE POP PUSH1 0x8 PUSH0 DUP6 PUSH20 0xFFFFFFFFFFFFFFFFFFFFFFFFFFFFFFFFFFFFFFFF AND PUSH20 0xFFFFFFFFFFFFFFFFFFFFFFFFFFFFFFFFFFFFFFFF AND DUP2 MSTORE PUSH1 0x20 ADD SWAP1 DUP2 MSTORE PUSH1 0x20 ADD PUSH0 KECCAK256 PUSH0 DUP1 DUP3 ADD PUSH0 SWAP1 SSTORE PUSH1 0x1 DUP3 ADD PUSH0 SWAP1 SSTORE PUSH1 0x2 DUP3 ADD PUSH0 SWAP1 SSTORE PUSH1 0x3 DUP3 ADD PUSH0 SWAP1 SSTORE PUSH1 0x4 DUP3 ADD PUSH0 PUSH2 0x100 EXP DUP2 SLOAD SWAP1 PUSH1 0xFF MUL NOT AND SWAP1 SSTORE POP POP POP POP PUSH2 0x8F4 JUMP JUMPDEST PUSH2 0x763 DUP3 PUSH1 0x8 PUSH0 DUP6 PUSH20 0xFFFFFFFFFFFFFFFFFFFFFFFFFFFFFFFFFFFFFFFF AND PUSH20 0xFFFFFFFFFFFFFFFFFFFFFFFFFFFFFFFFFFFFFFFF AND DUP2 MSTORE PUSH1 0x20 ADD SWAP1 DUP2 MSTORE PUSH1 0x20 ADD PUSH0 KECCAK256 PUSH0 ADD SLOAD PUSH1 0x6 PUSH0 SWAP1 SLOAD SWAP1 PUSH2 0x100 EXP SWAP1 DIV PUSH20 0xFFFFFFFFFFFFFFFFFFFFFFFFFFFFFFFFFFFFFFFF AND PUSH20 0xFFFFFFFFFFFFFFFFFFFFFFFFFFFFFFFFFFFFFFFF AND PUSH2 0x1370 SWAP1 SWAP3 SWAP2 SWAP1 PUSH4 0xFFFFFFFF AND JUMP JUMPDEST PUSH1 0x5 PUSH0 SWAP1 SLOAD SWAP1 PUSH2 0x100 EXP SWAP1 DIV PUSH20 0xFFFFFFFFFFFFFFFFFFFFFFFFFFFFFFFFFFFFFFFF AND PUSH20 0xFFFFFFFFFFFFFFFFFFFFFFFFFFFFFFFFFFFFFFFF AND PUSH4 0xB88D4FDE ADDRESS DUP5 PUSH1 0x8 PUSH0 DUP8 PUSH20 0xFFFFFFFFFFFFFFFFFFFFFFFFFFFFFFFFFFFFFFFF AND PUSH20 0xFFFFFFFFFFFFFFFFFFFFFFFFFFFFFFFFFFFFFFFF AND DUP2 MSTORE PUSH1 0x20 ADD SWAP1 DUP2 MSTORE PUSH1 0x20 ADD PUSH0 KECCAK256 PUSH1 0x3 ADD SLOAD PUSH1 0x40 MLOAD DUP5 PUSH4 0xFFFFFFFF AND PUSH1 0xE0 SHL DUP2 MSTORE PUSH1 0x4 ADD PUSH2 0x801 SWAP4 SWAP3 SWAP2 SWAP1 PUSH2 0x1D8C JUMP JUMPDEST PUSH0 PUSH1 0x40 MLOAD DUP1 DUP4 SUB DUP2 PUSH0 DUP8 DUP1 EXTCODESIZE ISZERO DUP1 ISZERO PUSH2 0x818 JUMPI PUSH0 DUP1 REVERT JUMPDEST POP GAS CALL ISZERO DUP1 ISZERO PUSH2 0x82A JUMPI RETURNDATASIZE PUSH0 DUP1 RETURNDATACOPY RETURNDATASIZE PUSH0 REVERT JUMPDEST POP POP POP POP PUSH1 0x8 PUSH0 DUP4 PUSH20 0xFFFFFFFFFFFFFFFFFFFFFFFFFFFFFFFFFFFFFFFF AND PUSH20 0xFFFFFFFFFFFFFFFFFFFFFFFFFFFFFFFFFFFFFFFF AND DUP2 MSTORE PUSH1 0x20 ADD SWAP1 DUP2 MSTORE PUSH1 0x20 ADD PUSH0 KECCAK256 PUSH0 ADD SLOAD PUSH1 0x7 PUSH0 DUP3 DUP3 SLOAD PUSH2 0x87E SWAP2 SWAP1 PUSH2 0x1C88 JUMP JUMPDEST SWAP3 POP POP DUP2 SWAP1 SSTORE POP PUSH1 0x8 PUSH0 DUP4 PUSH20 0xFFFFFFFFFFFFFFFFFFFFFFFFFFFFFFFFFFFFFFFF AND PUSH20 0xFFFFFFFFFFFFFFFFFFFFFFFFFFFFFFFFFFFFFFFF AND DUP2 MSTORE PUSH1 0x20 ADD SWAP1 DUP2 MSTORE PUSH1 0x20 ADD PUSH0 KECCAK256 PUSH0 DUP1 DUP3 ADD PUSH0 SWAP1 SSTORE PUSH1 0x1 DUP3 ADD PUSH0 SWAP1 SSTORE PUSH1 0x2 DUP3 ADD PUSH0 SWAP1 SSTORE PUSH1 0x3 DUP3 ADD PUSH0 SWAP1 SSTORE PUSH1 0x4 DUP3 ADD PUSH0 PUSH2 0x100 EXP DUP2 SLOAD SWAP1 PUSH1 0xFF MUL NOT AND SWAP1 SSTORE POP POP JUMPDEST PUSH1 0xF PUSH1 0x8 PUSH0 DUP5 PUSH20 0xFFFFFFFFFFFFFFFFFFFFFFFFFFFFFFFFFFFFFFFF AND PUSH20 0xFFFFFFFFFFFFFFFFFFFFFFFFFFFFFFFFFFFFFFFF AND DUP2 MSTORE PUSH1 0x20 ADD SWAP1 DUP2 MSTORE PUSH1 0x20 ADD PUSH0 KECCAK256 PUSH1 0x1 ADD SLOAD SUB PUSH2 0x94B JUMPI PUSH2 0x946 PUSH1 0x1 PUSH2 0x13F6 JUMP JUMPDEST PUSH2 0xA4F JUMP JUMPDEST PUSH1 0x1E PUSH1 0x8 PUSH0 DUP5 PUSH20 0xFFFFFFFFFFFFFFFFFFFFFFFFFFFFFFFFFFFFFFFF AND PUSH20 0xFFFFFFFFFFFFFFFFFFFFFFFFFFFFFFFFFFFFFFFF AND DUP2 MSTORE PUSH1 0x20 ADD SWAP1 DUP2 MSTORE PUSH1 0x20 ADD PUSH0 KECCAK256 PUSH1 0x1 ADD SLOAD SUB PUSH2 0x9A2 JUMPI PUSH2 0x99D PUSH1 0x2 PUSH2 0x13F6 JUMP JUMPDEST PUSH2 0xA4E JUMP JUMPDEST PUSH1 0x3C PUSH1 0x8 PUSH0 DUP5 PUSH20 0xFFFFFFFFFFFFFFFFFFFFFFFFFFFFFFFFFFFFFFFF AND PUSH20 0xFFFFFFFFFFFFFFFFFFFFFFFFFFFFFFFFFFFFFFFF AND DUP2 MSTORE PUSH1 0x20 ADD SWAP1 DUP2 MSTORE PUSH1 0x20 ADD PUSH0 KECCAK256 PUSH1 0x1 ADD SLOAD SUB PUSH2 0x9F9 JUMPI PUSH2 0x9F4 PUSH1 0x3 PUSH2 0x13F6 JUMP JUMPDEST PUSH2 0xA4D JUMP JUMPDEST PUSH1 0x5A PUSH1 0x8 PUSH0 DUP5 PUSH20 0xFFFFFFFFFFFFFFFFFFFFFFFFFFFFFFFFFFFFFFFF AND PUSH20 0xFFFFFFFFFFFFFFFFFFFFFFFFFFFFFFFFFFFFFFFF AND DUP2 MSTORE PUSH1 0x20 ADD SWAP1 DUP2 MSTORE PUSH1 0x20 ADD PUSH0 KECCAK256 PUSH1 0x1 ADD SLOAD SUB PUSH2 0xA4C JUMPI PUSH2 0xA4B PUSH1 0x4 PUSH2 0x13F6 JUMP JUMPDEST JUMPDEST JUMPDEST JUMPDEST JUMPDEST POP POP JUMP JUMPDEST PUSH2 0xA5B PUSH2 0x144E JUMP JUMPDEST PUSH2 0xA64 PUSH0 PUSH2 0x14CC JUMP JUMPDEST JUMP JUMPDEST PUSH0 DUP1 PUSH0 SWAP1 SLOAD SWAP1 PUSH2 0x100 EXP SWAP1 DIV PUSH20 0xFFFFFFFFFFFFFFFFFFFFFFFFFFFFFFFFFFFFFFFF AND SWAP1 POP SWAP1 JUMP JUMPDEST PUSH1 0x6 PUSH0 SWAP1 SLOAD SWAP1 PUSH2 0x100 EXP SWAP1 DIV PUSH20 0xFFFFFFFFFFFFFFFFFFFFFFFFFFFFFFFFFFFFFFFF AND DUP2 JUMP JUMPDEST PUSH1 0x2 DUP1 PUSH0 ADD SLOAD SWAP1 POP DUP2 JUMP JUMPDEST PUSH1 0x8 PUSH1 0x20 MSTORE DUP1 PUSH0 MSTORE PUSH1 0x40 PUSH0 KECCAK256 PUSH0 SWAP2 POP SWAP1 POP DUP1 PUSH0 ADD SLOAD SWAP1 DUP1 PUSH1 0x1 ADD SLOAD SWAP1 DUP1 PUSH1 0x2 ADD SLOAD SWAP1 DUP1 PUSH1 0x3 ADD SLOAD SWAP1 DUP1 PUSH1 0x4 ADD PUSH0 SWAP1 SLOAD SWAP1 PUSH2 0x100 EXP SWAP1 DIV PUSH1 0xFF AND SWAP1 POP DUP6 JUMP JUMPDEST PUSH1 0x5 PUSH0 SWAP1 SLOAD SWAP1 PUSH2 0x100 EXP SWAP1 DIV PUSH20 0xFFFFFFFFFFFFFFFFFFFFFFFFFFFFFFFFFFFFFFFF AND DUP2 JUMP JUMPDEST PUSH2 0xB28 PUSH2 0x144E JUMP JUMPDEST DUP1 PUSH1 0x7 PUSH0 DUP3 DUP3 SLOAD PUSH2 0xB39 SWAP2 SWAP1 PUSH2 0x1DD4 JUMP JUMPDEST SWAP3 POP POP DUP2 SWAP1 SSTORE POP PUSH2 0xB8E CALLER ADDRESS DUP4 PUSH1 0x6 PUSH0 SWAP1 SLOAD SWAP1 PUSH2 0x100 EXP SWAP1 DIV PUSH20 0xFFFFFFFFFFFFFFFFFFFFFFFFFFFFFFFFFFFFFFFF AND PUSH20 0xFFFFFFFFFFFFFFFFFFFFFFFFFFFFFFFFFFFFFFFF AND PUSH2 0x158D SWAP1 SWAP4 SWAP3 SWAP2 SWAP1 PUSH4 0xFFFFFFFF AND JUMP JUMPDEST POP JUMP JUMPDEST PUSH1 0x8 PUSH0 CALLER PUSH20 0xFFFFFFFFFFFFFFFFFFFFFFFFFFFFFFFFFFFFFFFF AND PUSH20 0xFFFFFFFFFFFFFFFFFFFFFFFFFFFFFFFFFFFFFFFF AND DUP2 MSTORE PUSH1 0x20 ADD SWAP1 DUP2 MSTORE PUSH1 0x20 ADD PUSH0 KECCAK256 PUSH1 0x4 ADD PUSH0 SWAP1 SLOAD SWAP1 PUSH2 0x100 EXP SWAP1 DIV PUSH1 0xFF AND ISZERO PUSH2 0xC1E JUMPI PUSH1 0x40 MLOAD PUSH32 0x8C379A000000000000000000000000000000000000000000000000000000000 DUP2 MSTORE PUSH1 0x4 ADD PUSH2 0xC15 SWAP1 PUSH2 0x1E51 JUMP JUMPDEST PUSH1 0x40 MLOAD DUP1 SWAP2 SUB SWAP1 REVERT JUMPDEST PUSH1 0xF DUP2 SUB PUSH2 0xDBF JUMPI PUSH2 0xC30 PUSH1 0x1 PUSH2 0x1616 JUMP JUMPDEST PUSH2 0x3E8 PUSH2 0xC3D PUSH1 0x1 PUSH2 0x162A JUMP JUMPDEST GT ISZERO PUSH2 0xC7E JUMPI PUSH1 0x40 MLOAD PUSH32 0x8C379A000000000000000000000000000000000000000000000000000000000 DUP2 MSTORE PUSH1 0x4 ADD PUSH2 0xC75 SWAP1 PUSH2 0x1EB9 JUMP JUMPDEST PUSH1 0x40 MLOAD DUP1 SWAP2 SUB SWAP1 REVERT JUMPDEST PUSH1 0x40 MLOAD DUP1 PUSH1 0xA0 ADD PUSH1 0x40 MSTORE DUP1 PUSH2 0x1388 DUP2 MSTORE PUSH1 0x20 ADD DUP3 DUP2 MSTORE PUSH1 0x20 ADD TIMESTAMP DUP2 MSTORE PUSH1 0x20 ADD DUP4 DUP2 MSTORE PUSH1 0x20 ADD PUSH1 0x1 ISZERO ISZERO DUP2 MSTORE POP PUSH1 0x8 PUSH0 CALLER PUSH20 0xFFFFFFFFFFFFFFFFFFFFFFFFFFFFFFFFFFFFFFFF AND PUSH20 0xFFFFFFFFFFFFFFFFFFFFFFFFFFFFFFFFFFFFFFFF AND DUP2 MSTORE PUSH1 0x20 ADD SWAP1 DUP2 MSTORE PUSH1 0x20 ADD PUSH0 KECCAK256 PUSH0 DUP3 ADD MLOAD DUP2 PUSH0 ADD SSTORE PUSH1 0x20 DUP3 ADD MLOAD DUP2 PUSH1 0x1 ADD SSTORE PUSH1 0x40 DUP3 ADD MLOAD DUP2 PUSH1 0x2 ADD SSTORE PUSH1 0x60 DUP3 ADD MLOAD DUP2 PUSH1 0x3 ADD SSTORE PUSH1 0x80 DUP3 ADD MLOAD DUP2 PUSH1 0x4 ADD PUSH0 PUSH2 0x100 EXP DUP2 SLOAD DUP2 PUSH1 0xFF MUL NOT AND SWAP1 DUP4 ISZERO ISZERO MUL OR SWAP1 SSTORE POP SWAP1 POP POP PUSH1 0x5 PUSH0 SWAP1 SLOAD SWAP1 PUSH2 0x100 EXP SWAP1 DIV PUSH20 0xFFFFFFFFFFFFFFFFFFFFFFFFFFFFFFFFFFFFFFFF AND PUSH20 0xFFFFFFFFFFFFFFFFFFFFFFFFFFFFFFFFFFFFFFFF AND PUSH4 0xB88D4FDE CALLER ADDRESS DUP6 PUSH1 0x40 MLOAD DUP5 PUSH4 0xFFFFFFFF AND PUSH1 0xE0 SHL DUP2 MSTORE PUSH1 0x4 ADD PUSH2 0xD8D SWAP4 SWAP3 SWAP2 SWAP1 PUSH2 0x1D8C JUMP JUMPDEST PUSH0 PUSH1 0x40 MLOAD DUP1 DUP4 SUB DUP2 PUSH0 DUP8 DUP1 EXTCODESIZE ISZERO DUP1 ISZERO PUSH2 0xDA4 JUMPI PUSH0 DUP1 REVERT JUMPDEST POP GAS CALL ISZERO DUP1 ISZERO PUSH2 0xDB6 JUMPI RETURNDATASIZE PUSH0 DUP1 RETURNDATACOPY RETURNDATASIZE PUSH0 REVERT JUMPDEST POP POP POP POP PUSH2 0x12DF JUMP JUMPDEST PUSH1 0x1E DUP2 SUB PUSH2 0xF60 JUMPI PUSH2 0xDD1 PUSH1 0x2 PUSH2 0x1616 JUMP JUMPDEST PUSH2 0x2EE PUSH2 0xDDE PUSH1 0x2 PUSH2 0x162A JUMP JUMPDEST GT ISZERO PUSH2 0xE1F JUMPI PUSH1 0x40 MLOAD PUSH32 0x8C379A000000000000000000000000000000000000000000000000000000000 DUP2 MSTORE PUSH1 0x4 ADD PUSH2 0xE16 SWAP1 PUSH2 0x1F21 JUMP JUMPDEST PUSH1 0x40 MLOAD DUP1 SWAP2 SUB SWAP1 REVERT JUMPDEST PUSH1 0x40 MLOAD DUP1 PUSH1 0xA0 ADD PUSH1 0x40 MSTORE DUP1 PUSH2 0x1D4C DUP2 MSTORE PUSH1 0x20 ADD DUP3 DUP2 MSTORE PUSH1 0x20 ADD TIMESTAMP DUP2 MSTORE PUSH1 0x20 ADD DUP4 DUP2 MSTORE PUSH1 0x20 ADD PUSH1 0x1 ISZERO ISZERO DUP2 MSTORE POP PUSH1 0x8 PUSH0 CALLER PUSH20 0xFFFFFFFFFFFFFFFFFFFFFFFFFFFFFFFFFFFFFFFF AND PUSH20 0xFFFFFFFFFFFFFFFFFFFFFFFFFFFFFFFFFFFFFFFF AND DUP2 MSTORE PUSH1 0x20 ADD SWAP1 DUP2 MSTORE PUSH1 0x20 ADD PUSH0 KECCAK256 PUSH0 DUP3 ADD MLOAD DUP2 PUSH0 ADD SSTORE PUSH1 0x20 DUP3 ADD MLOAD DUP2 PUSH1 0x1 ADD SSTORE PUSH1 0x40 DUP3 ADD MLOAD DUP2 PUSH1 0x2 ADD SSTORE PUSH1 0x60 DUP3 ADD MLOAD DUP2 PUSH1 0x3 ADD SSTORE PUSH1 0x80 DUP3 ADD MLOAD DUP2 PUSH1 0x4 ADD PUSH0 PUSH2 0x100 EXP DUP2 SLOAD DUP2 PUSH1 0xFF MUL NOT AND SWAP1 DUP4 ISZERO ISZERO MUL OR SWAP1 SSTORE POP SWAP1 POP POP PUSH1 0x5 PUSH0 SWAP1 SLOAD SWAP1 PUSH2 0x100 EXP SWAP1 DIV PUSH20 0xFFFFFFFFFFFFFFFFFFFFFFFFFFFFFFFFFFFFFFFF AND PUSH20 0xFFFFFFFFFFFFFFFFFFFFFFFFFFFFFFFFFFFFFFFF AND PUSH4 0xB88D4FDE CALLER ADDRESS DUP6 PUSH1 0x40 MLOAD DUP5 PUSH4 0xFFFFFFFF AND PUSH1 0xE0 SHL DUP2 MSTORE PUSH1 0x4 ADD PUSH2 0xF2E SWAP4 SWAP3 SWAP2 SWAP1 PUSH2 0x1D8C JUMP JUMPDEST PUSH0 PUSH1 0x40 MLOAD DUP1 DUP4 SUB DUP2 PUSH0 DUP8 DUP1 EXTCODESIZE ISZERO DUP1 ISZERO PUSH2 0xF45 JUMPI PUSH0 DUP1 REVERT JUMPDEST POP GAS CALL ISZERO DUP1 ISZERO PUSH2 0xF57 JUMPI RETURNDATASIZE PUSH0 DUP1 RETURNDATACOPY RETURNDATASIZE PUSH0 REVERT JUMPDEST POP POP POP POP PUSH2 0x12DE JUMP JUMPDEST PUSH1 0x3C DUP2 SUB PUSH2 0x1101 JUMPI PUSH2 0xF72 PUSH1 0x3 PUSH2 0x1616 JUMP JUMPDEST PUSH2 0x1F4 PUSH2 0xF7F PUSH1 0x3 PUSH2 0x162A JUMP JUMPDEST GT ISZERO PUSH2 0xFC0 JUMPI PUSH1 0x40 MLOAD PUSH32 0x8C379A000000000000000000000000000000000000000000000000000000000 DUP2 MSTORE PUSH1 0x4 ADD PUSH2 0xFB7 SWAP1 PUSH2 0x1F89 JUMP JUMPDEST PUSH1 0x40 MLOAD DUP1 SWAP2 SUB SWAP1 REVERT JUMPDEST PUSH1 0x40 MLOAD DUP1 PUSH1 0xA0 ADD PUSH1 0x40 MSTORE DUP1 PUSH2 0x30D4 DUP2 MSTORE PUSH1 0x20 ADD DUP3 DUP2 MSTORE PUSH1 0x20 ADD TIMESTAMP DUP2 MSTORE PUSH1 0x20 ADD DUP4 DUP2 MSTORE PUSH1 0x20 ADD PUSH1 0x1 ISZERO ISZERO DUP2 MSTORE POP PUSH1 0x8 PUSH0 CALLER PUSH20 0xFFFFFFFFFFFFFFFFFFFFFFFFFFFFFFFFFFFFFFFF AND PUSH20 0xFFFFFFFFFFFFFFFFFFFFFFFFFFFFFFFFFFFFFFFF AND DUP2 MSTORE PUSH1 0x20 ADD SWAP1 DUP2 MSTORE PUSH1 0x20 ADD PUSH0 KECCAK256 PUSH0 DUP3 ADD MLOAD DUP2 PUSH0 ADD SSTORE PUSH1 0x20 DUP3 ADD MLOAD DUP2 PUSH1 0x1 ADD SSTORE PUSH1 0x40 DUP3 ADD MLOAD DUP2 PUSH1 0x2 ADD SSTORE PUSH1 0x60 DUP3 ADD MLOAD DUP2 PUSH1 0x3 ADD SSTORE PUSH1 0x80 DUP3 ADD MLOAD DUP2 PUSH1 0x4 ADD PUSH0 PUSH2 0x100 EXP DUP2 SLOAD DUP2 PUSH1 0xFF MUL NOT AND SWAP1 DUP4 ISZERO ISZERO MUL OR SWAP1 SSTORE POP SWAP1 POP POP PUSH1 0x5 PUSH0 SWAP1 SLOAD SWAP1 PUSH2 0x100 EXP SWAP1 DIV PUSH20 0xFFFFFFFFFFFFFFFFFFFFFFFFFFFFFFFFFFFFFFFF AND PUSH20 0xFFFFFFFFFFFFFFFFFFFFFFFFFFFFFFFFFFFFFFFF AND PUSH4 0xB88D4FDE CALLER ADDRESS DUP6 PUSH1 0x40 MLOAD DUP5 PUSH4 0xFFFFFFFF AND PUSH1 0xE0 SHL DUP2 MSTORE PUSH1 0x4 ADD PUSH2 0x10CF SWAP4 SWAP3 SWAP2 SWAP1 PUSH2 0x1D8C JUMP JUMPDEST PUSH0 PUSH1 0x40 MLOAD DUP1 DUP4 SUB DUP2 PUSH0 DUP8 DUP1 EXTCODESIZE ISZERO DUP1 ISZERO PUSH2 0x10E6 JUMPI PUSH0 DUP1 REVERT JUMPDEST POP GAS CALL ISZERO DUP1 ISZERO PUSH2 0x10F8 JUMPI RETURNDATASIZE PUSH0 DUP1 RETURNDATACOPY RETURNDATASIZE PUSH0 REVERT JUMPDEST POP POP POP POP PUSH2 0x12DD JUMP JUMPDEST PUSH1 0x5A DUP2 SUB PUSH2 0x12A1 JUMPI PUSH2 0x1113 PUSH1 0x4 PUSH2 0x1616 JUMP JUMPDEST PUSH1 0xFA PUSH2 0x111F PUSH1 0x4 PUSH2 0x162A JUMP JUMPDEST GT ISZERO PUSH2 0x1160 JUMPI PUSH1 0x40 MLOAD PUSH32 0x8C379A000000000000000000000000000000000000000000000000000000000 DUP2 MSTORE PUSH1 0x4 ADD PUSH2 0x1157 SWAP1 PUSH2 0x1FF1 JUMP JUMPDEST PUSH1 0x40 MLOAD DUP1 SWAP2 SUB SWAP1 REVERT JUMPDEST PUSH1 0x40 MLOAD DUP1 PUSH1 0xA0 ADD PUSH1 0x40 MSTORE DUP1 PUSH2 0x445C DUP2 MSTORE PUSH1 0x20 ADD DUP3 DUP2 MSTORE PUSH1 0x20 ADD TIMESTAMP DUP2 MSTORE PUSH1 0x20 ADD DUP4 DUP2 MSTORE PUSH1 0x20 ADD PUSH1 0x1 ISZERO ISZERO DUP2 MSTORE POP PUSH1 0x8 PUSH0 CALLER PUSH20 0xFFFFFFFFFFFFFFFFFFFFFFFFFFFFFFFFFFFFFFFF AND PUSH20 0xFFFFFFFFFFFFFFFFFFFFFFFFFFFFFFFFFFFFFFFF AND DUP2 MSTORE PUSH1 0x20 ADD SWAP1 DUP2 MSTORE PUSH1 0x20 ADD PUSH0 KECCAK256 PUSH0 DUP3 ADD MLOAD DUP2 PUSH0 ADD SSTORE PUSH1 0x20 DUP3 ADD MLOAD DUP2 PUSH1 0x1 ADD SSTORE PUSH1 0x40 DUP3 ADD MLOAD DUP2 PUSH1 0x2 ADD SSTORE PUSH1 0x60 DUP3 ADD MLOAD DUP2 PUSH1 0x3 ADD SSTORE PUSH1 0x80 DUP3 ADD MLOAD DUP2 PUSH1 0x4 ADD PUSH0 PUSH2 0x100 EXP DUP2 SLOAD DUP2 PUSH1 0xFF MUL NOT AND SWAP1 DUP4 ISZERO ISZERO MUL OR SWAP1 SSTORE POP SWAP1 POP POP PUSH1 0x5 PUSH0 SWAP1 SLOAD SWAP1 PUSH2 0x100 EXP SWAP1 DIV PUSH20 0xFFFFFFFFFFFFFFFFFFFFFFFFFFFFFFFFFFFFFFFF AND PUSH20 0xFFFFFFFFFFFFFFFFFFFFFFFFFFFFFFFFFFFFFFFF AND PUSH4 0xB88D4FDE CALLER ADDRESS DUP6 PUSH1 0x40 MLOAD DUP5 PUSH4 0xFFFFFFFF AND PUSH1 0xE0 SHL DUP2 MSTORE PUSH1 0x4 ADD PUSH2 0x126F SWAP4 SWAP3 SWAP2 SWAP1 PUSH2 0x1D8C JUMP JUMPDEST PUSH0 PUSH1 0x40 MLOAD DUP1 DUP4 SUB DUP2 PUSH0 DUP8 DUP1 EXTCODESIZE ISZERO DUP1 ISZERO PUSH2 0x1286 JUMPI PUSH0 DUP1 REVERT JUMPDEST POP GAS CALL ISZERO DUP1 ISZERO PUSH2 0x1298 JUMPI RETURNDATASIZE PUSH0 DUP1 RETURNDATACOPY RETURNDATASIZE PUSH0 REVERT JUMPDEST POP POP POP POP PUSH2 0x12DC JUMP JUMPDEST PUSH1 0x40 MLOAD PUSH32 0x8C379A000000000000000000000000000000000000000000000000000000000 DUP2 MSTORE PUSH1 0x4 ADD PUSH2 0x12D3 SWAP1 PUSH2 0x2059 JUMP JUMPDEST PUSH1 0x40 MLOAD DUP1 SWAP2 SUB SWAP1 REVERT JUMPDEST JUMPDEST JUMPDEST JUMPDEST POP POP JUMP JUMPDEST PUSH2 0x12EB PUSH2 0x144E JUMP JUMPDEST PUSH0 PUSH20 0xFFFFFFFFFFFFFFFFFFFFFFFFFFFFFFFFFFFFFFFF AND DUP2 PUSH20 0xFFFFFFFFFFFFFFFFFFFFFFFFFFFFFFFFFFFFFFFF AND SUB PUSH2 0x1359 JUMPI PUSH1 0x40 MLOAD PUSH32 0x8C379A000000000000000000000000000000000000000000000000000000000 DUP2 MSTORE PUSH1 0x4 ADD PUSH2 0x1350 SWAP1 PUSH2 0x20E7 JUMP JUMPDEST PUSH1 0x40 MLOAD DUP1 SWAP2 SUB SWAP1 REVERT JUMPDEST PUSH2 0x1362 DUP2 PUSH2 0x14CC JUMP JUMPDEST POP JUMP JUMPDEST PUSH1 0x3 DUP1 PUSH0 ADD SLOAD SWAP1 POP DUP2 JUMP JUMPDEST PUSH2 0x13F1 DUP4 PUSH4 0xA9059CBB PUSH1 0xE0 SHL DUP5 DUP5 PUSH1 0x40 MLOAD PUSH1 0x24 ADD PUSH2 0x138F SWAP3 SWAP2 SWAP1 PUSH2 0x2105 JUMP JUMPDEST PUSH1 0x40 MLOAD PUSH1 0x20 DUP2 DUP4 SUB SUB DUP2 MSTORE SWAP1 PUSH1 0x40 MSTORE SWAP1 PUSH28 0xFFFFFFFFFFFFFFFFFFFFFFFFFFFFFFFFFFFFFFFFFFFFFFFFFFFFFFFF NOT AND PUSH1 0x20 DUP3 ADD DUP1 MLOAD PUSH28 0xFFFFFFFFFFFFFFFFFFFFFFFFFFFFFFFFFFFFFFFFFFFFFFFFFFFFFFFF DUP4 DUP2 DUP4 AND OR DUP4 MSTORE POP POP POP POP PUSH2 0x1636 JUMP JUMPDEST POP POP POP JUMP JUMPDEST PUSH0 DUP2 PUSH0 ADD SLOAD SWAP1 POP PUSH0 DUP2 GT PUSH2 0x143F JUMPI PUSH1 0x40 MLOAD PUSH32 0x8C379A000000000000000000000000000000000000000000000000000000000 DUP2 MSTORE PUSH1 0x4 ADD PUSH2 0x1436 SWAP1 PUSH2 0x2176 JUMP JUMPDEST PUSH1 0x40 MLOAD DUP1 SWAP2 SUB SWAP1 REVERT JUMPDEST PUSH1 0x1 DUP2 SUB DUP3 PUSH0 ADD DUP2 SWAP1 SSTORE POP POP POP JUMP JUMPDEST PUSH2 0x1456 PUSH2 0x16FB JUMP JUMPDEST PUSH20 0xFFFFFFFFFFFFFFFFFFFFFFFFFFFFFFFFFFFFFFFF AND PUSH2 0x1474 PUSH2 0xA66 JUMP JUMPDEST PUSH20 0xFFFFFFFFFFFFFFFFFFFFFFFFFFFFFFFFFFFFFFFF AND EQ PUSH2 0x14CA JUMPI PUSH1 0x40 MLOAD PUSH32 0x8C379A000000000000000000000000000000000000000000000000000000000 DUP2 MSTORE PUSH1 0x4 ADD PUSH2 0x14C1 SWAP1 PUSH2 0x21DE JUMP JUMPDEST PUSH1 0x40 MLOAD DUP1 SWAP2 SUB SWAP1 REVERT JUMPDEST JUMP JUMPDEST PUSH0 DUP1 PUSH0 SWAP1 SLOAD SWAP1 PUSH2 0x100 EXP SWAP1 DIV PUSH20 0xFFFFFFFFFFFFFFFFFFFFFFFFFFFFFFFFFFFFFFFF AND SWAP1 POP DUP2 PUSH0 DUP1 PUSH2 0x100 EXP DUP2 SLOAD DUP2 PUSH20 0xFFFFFFFFFFFFFFFFFFFFFFFFFFFFFFFFFFFFFFFF MUL NOT AND SWAP1 DUP4 PUSH20 0xFFFFFFFFFFFFFFFFFFFFFFFFFFFFFFFFFFFFFFFF AND MUL OR SWAP1 SSTORE POP DUP2 PUSH20 0xFFFFFFFFFFFFFFFFFFFFFFFFFFFFFFFFFFFFFFFF AND DUP2 PUSH20 0xFFFFFFFFFFFFFFFFFFFFFFFFFFFFFFFFFFFFFFFF AND PUSH32 0x8BE0079C531659141344CD1FD0A4F28419497F9722A3DAAFE3B4186F6B6457E0 PUSH1 0x40 MLOAD PUSH1 0x40 MLOAD DUP1 SWAP2 SUB SWAP1 LOG3 POP POP JUMP JUMPDEST PUSH2 0x1610 DUP5 PUSH4 0x23B872DD PUSH1 0xE0 SHL DUP6 DUP6 DUP6 PUSH1 0x40 MLOAD PUSH1 0x24 ADD PUSH2 0x15AE SWAP4 SWAP3 SWAP2 SWAP1 PUSH2 0x21FC JUMP JUMPDEST PUSH1 0x40 MLOAD PUSH1 0x20 DUP2 DUP4 SUB SUB DUP2 MSTORE SWAP1 PUSH1 0x40 MSTORE SWAP1 PUSH28 0xFFFFFFFFFFFFFFFFFFFFFFFFFFFFFFFFFFFFFFFFFFFFFFFFFFFFFFFF NOT AND PUSH1 0x20 DUP3 ADD DUP1 MLOAD PUSH28 0xFFFFFFFFFFFFFFFFFFFFFFFFFFFFFFFFFFFFFFFFFFFFFFFFFFFFFFFF DUP4 DUP2 DUP4 AND OR DUP4 MSTORE POP POP POP POP PUSH2 0x1636 JUMP JUMPDEST POP POP POP POP JUMP JUMPDEST PUSH1 0x1 DUP2 PUSH0 ADD PUSH0 DUP3 DUP3 SLOAD ADD SWAP3 POP POP DUP2 SWAP1 SSTORE POP POP JUMP JUMPDEST PUSH0 DUP2 PUSH0 ADD SLOAD SWAP1 POP SWAP2 SWAP1 POP JUMP JUMPDEST PUSH0 PUSH2 0x1697 DUP3 PUSH1 0x40 MLOAD DUP1 PUSH1 0x40 ADD PUSH1 0x40 MSTORE DUP1 PUSH1 0x20 DUP2 MSTORE PUSH1 0x20 ADD PUSH32 0x5361666545524332303A206C6F772D6C6576656C2063616C6C206661696C6564 DUP2 MSTORE POP DUP6 PUSH20 0xFFFFFFFFFFFFFFFFFFFFFFFFFFFFFFFFFFFFFFFF AND PUSH2 0x1702 SWAP1 SWAP3 SWAP2 SWAP1 PUSH4 0xFFFFFFFF AND JUMP JUMPDEST SWAP1 POP PUSH0 DUP2 MLOAD GT ISZERO PUSH2 0x16F6 JUMPI DUP1 DUP1 PUSH1 0x20 ADD SWAP1 MLOAD DUP2 ADD SWAP1 PUSH2 0x16B6 SWAP2 SWAP1 PUSH2 0x225B JUMP JUMPDEST PUSH2 0x16F5 JUMPI PUSH1 0x40 MLOAD PUSH32 0x8C379A000000000000000000000000000000000000000000000000000000000 DUP2 MSTORE PUSH1 0x4 ADD PUSH2 0x16EC SWAP1 PUSH2 0x22F6 JUMP JUMPDEST PUSH1 0x40 MLOAD DUP1 SWAP2 SUB SWAP1 REVERT JUMPDEST JUMPDEST POP POP POP JUMP JUMPDEST PUSH0 CALLER SWAP1 POP SWAP1 JUMP JUMPDEST PUSH1 0x60 PUSH2 0x1710 DUP5 DUP5 PUSH0 DUP6 PUSH2 0x1719 JUMP JUMPDEST SWAP1 POP SWAP4 SWAP3 POP POP POP JUMP JUMPDEST PUSH1 0x60 DUP3 SELFBALANCE LT ISZERO PUSH2 0x175E JUMPI PUSH1 0x40 MLOAD PUSH32 0x8C379A000000000000000000000000000000000000000000000000000000000 DUP2 MSTORE PUSH1 0x4 ADD PUSH2 0x1755 SWAP1 PUSH2 0x2384 JUMP JUMPDEST PUSH1 0x40 MLOAD DUP1 SWAP2 SUB SWAP1 REVERT JUMPDEST PUSH0 DUP1 DUP7 PUSH20 0xFFFFFFFFFFFFFFFFFFFFFFFFFFFFFFFFFFFFFFFF AND DUP6 DUP8 PUSH1 0x40 MLOAD PUSH2 0x1786 SWAP2 SWAP1 PUSH2 0x240E JUMP JUMPDEST PUSH0 PUSH1 0x40 MLOAD DUP1 DUP4 SUB DUP2 DUP6 DUP8 GAS CALL SWAP3 POP POP POP RETURNDATASIZE DUP1 PUSH0 DUP2 EQ PUSH2 0x17C0 JUMPI PUSH1 0x40 MLOAD SWAP2 POP PUSH1 0x1F NOT PUSH1 0x3F RETURNDATASIZE ADD AND DUP3 ADD PUSH1 0x40 MSTORE RETURNDATASIZE DUP3 MSTORE RETURNDATASIZE PUSH0 PUSH1 0x20 DUP5 ADD RETURNDATACOPY PUSH2 0x17C5 JUMP JUMPDEST PUSH1 0x60 SWAP2 POP JUMPDEST POP SWAP2 POP SWAP2 POP PUSH2 0x17D6 DUP8 DUP4 DUP4 DUP8 PUSH2 0x17E2 JUMP JUMPDEST SWAP3 POP POP POP SWAP5 SWAP4 POP POP POP POP JUMP JUMPDEST PUSH1 0x60 DUP4 ISZERO PUSH2 0x1843 JUMPI PUSH0 DUP4 MLOAD SUB PUSH2 0x183B JUMPI PUSH2 0x17FB DUP6 PUSH2 0x1856 JUMP JUMPDEST PUSH2 0x183A JUMPI PUSH1 0x40 MLOAD PUSH32 0x8C379A000000000000000000000000000000000000000000000000000000000 DUP2 MSTORE PUSH1 0x4 ADD PUSH2 0x1831 SWAP1 PUSH2 0x246E JUMP JUMPDEST PUSH1 0x40 MLOAD DUP1 SWAP2 SUB SWAP1 REVERT JUMPDEST JUMPDEST DUP3 SWAP1 POP PUSH2 0x184E JUMP JUMPDEST PUSH2 0x184D DUP4 DUP4 PUSH2 0x1878 JUMP JUMPDEST JUMPDEST SWAP5 SWAP4 POP POP POP POP JUMP JUMPDEST PUSH0 DUP1 DUP3 PUSH20 0xFFFFFFFFFFFFFFFFFFFFFFFFFFFFFFFFFFFFFFFF AND EXTCODESIZE GT SWAP1 POP SWAP2 SWAP1 POP JUMP JUMPDEST PUSH0 DUP3 MLOAD GT ISZERO PUSH2 0x188A JUMPI DUP2 MLOAD DUP1 DUP4 PUSH1 0x20 ADD REVERT JUMPDEST DUP1 PUSH1 0x40 MLOAD PUSH32 0x8C379A000000000000000000000000000000000000000000000000000000000 DUP2 MSTORE PUSH1 0x4 ADD PUSH2 0x18BE SWAP2 SWAP1 PUSH2 0x24DE JUMP JUMPDEST PUSH1 0x40 MLOAD DUP1 SWAP2 SUB SWAP1 REVERT JUMPDEST PUSH0 DUP1 REVERT JUMPDEST PUSH0 DUP1 REVERT JUMPDEST PUSH0 PUSH20 0xFFFFFFFFFFFFFFFFFFFFFFFFFFFFFFFFFFFFFFFF DUP3 AND SWAP1 POP SWAP2 SWAP1 POP JUMP JUMPDEST PUSH0 PUSH2 0x18F8 DUP3 PUSH2 0x18CF JUMP JUMPDEST SWAP1 POP SWAP2 SWAP1 POP JUMP JUMPDEST PUSH2 0x1908 DUP2 PUSH2 0x18EE JUMP JUMPDEST DUP2 EQ PUSH2 0x1912 JUMPI PUSH0 DUP1 REVERT JUMPDEST POP JUMP JUMPDEST PUSH0 DUP2 CALLDATALOAD SWAP1 POP PUSH2 0x1923 DUP2 PUSH2 0x18FF JUMP JUMPDEST SWAP3 SWAP2 POP POP JUMP JUMPDEST PUSH0 DUP2 SWAP1 POP SWAP2 SWAP1 POP JUMP JUMPDEST PUSH2 0x193B DUP2 PUSH2 0x1929 JUMP JUMPDEST DUP2 EQ PUSH2 0x1945 JUMPI PUSH0 DUP1 REVERT JUMPDEST POP JUMP JUMPDEST PUSH0 DUP2 CALLDATALOAD SWAP1 POP PUSH2 0x1956 DUP2 PUSH2 0x1932 JUMP JUMPDEST SWAP3 SWAP2 POP POP JUMP JUMPDEST PUSH0 DUP1 REVERT JUMPDEST PUSH0 DUP1 REVERT JUMPDEST PUSH0 DUP1 REVERT JUMPDEST PUSH0 DUP1 DUP4 PUSH1 0x1F DUP5 ADD SLT PUSH2 0x197D JUMPI PUSH2 0x197C PUSH2 0x195C JUMP JUMPDEST JUMPDEST DUP3 CALLDATALOAD SWAP1 POP PUSH8 0xFFFFFFFFFFFFFFFF DUP2 GT ISZERO PUSH2 0x199A JUMPI PUSH2 0x1999 PUSH2 0x1960 JUMP JUMPDEST JUMPDEST PUSH1 0x20 DUP4 ADD SWAP2 POP DUP4 PUSH1 0x1 DUP3 MUL DUP4 ADD GT ISZERO PUSH2 0x19B6 JUMPI PUSH2 0x19B5 PUSH2 0x1964 JUMP JUMPDEST JUMPDEST SWAP3 POP SWAP3 SWAP1 POP JUMP JUMPDEST PUSH0 DUP1 PUSH0 DUP1 PUSH0 PUSH1 0x80 DUP7 DUP9 SUB SLT ISZERO PUSH2 0x19D6 JUMPI PUSH2 0x19D5 PUSH2 0x18C7 JUMP JUMPDEST JUMPDEST PUSH0 PUSH2 0x19E3 DUP9 DUP3 DUP10 ADD PUSH2 0x1915 JUMP JUMPDEST SWAP6 POP POP PUSH1 0x20 PUSH2 0x19F4 DUP9 DUP3 DUP10 ADD PUSH2 0x1915 JUMP JUMPDEST SWAP5 POP POP PUSH1 0x40 PUSH2 0x1A05 DUP9 DUP3 DUP10 ADD PUSH2 0x1948 JUMP JUMPDEST SWAP4 POP POP PUSH1 0x60 DUP7 ADD CALLDATALOAD PUSH8 0xFFFFFFFFFFFFFFFF DUP2 GT ISZERO PUSH2 0x1A26 JUMPI PUSH2 0x1A25 PUSH2 0x18CB JUMP JUMPDEST JUMPDEST PUSH2 0x1A32 DUP9 DUP3 DUP10 ADD PUSH2 0x1968 JUMP JUMPDEST SWAP3 POP SWAP3 POP POP SWAP3 SWAP6 POP SWAP3 SWAP6 SWAP1 SWAP4 POP JUMP JUMPDEST PUSH0 PUSH32 0xFFFFFFFF00000000000000000000000000000000000000000000000000000000 DUP3 AND SWAP1 POP SWAP2 SWAP1 POP JUMP JUMPDEST PUSH2 0x1A75 DUP2 PUSH2 0x1A41 JUMP JUMPDEST DUP3 MSTORE POP POP JUMP JUMPDEST PUSH0 PUSH1 0x20 DUP3 ADD SWAP1 POP PUSH2 0x1A8E PUSH0 DUP4 ADD DUP5 PUSH2 0x1A6C JUMP JUMPDEST SWAP3 SWAP2 POP POP JUMP JUMPDEST PUSH2 0x1A9D DUP2 PUSH2 0x1929 JUMP JUMPDEST DUP3 MSTORE POP POP JUMP JUMPDEST PUSH0 PUSH1 0x20 DUP3 ADD SWAP1 POP PUSH2 0x1AB6 PUSH0 DUP4 ADD DUP5 PUSH2 0x1A94 JUMP JUMPDEST SWAP3 SWAP2 POP POP JUMP JUMPDEST PUSH0 PUSH1 0x20 DUP3 DUP5 SUB SLT ISZERO PUSH2 0x1AD1 JUMPI PUSH2 0x1AD0 PUSH2 0x18C7 JUMP JUMPDEST JUMPDEST PUSH0 PUSH2 0x1ADE DUP5 DUP3 DUP6 ADD PUSH2 0x1915 JUMP JUMPDEST SWAP2 POP POP SWAP3 SWAP2 POP POP JUMP JUMPDEST PUSH2 0x1AF0 DUP2 PUSH2 0x18EE JUMP JUMPDEST DUP3 MSTORE POP POP JUMP JUMPDEST PUSH0 PUSH1 0x20 DUP3 ADD SWAP1 POP PUSH2 0x1B09 PUSH0 DUP4 ADD DUP5 PUSH2 0x1AE7 JUMP JUMPDEST SWAP3 SWAP2 POP POP JUMP JUMPDEST PUSH0 DUP2 ISZERO ISZERO SWAP1 POP SWAP2 SWAP1 POP JUMP JUMPDEST PUSH2 0x1B23 DUP2 PUSH2 0x1B0F JUMP JUMPDEST DUP3 MSTORE POP POP JUMP JUMPDEST PUSH0 PUSH1 0xA0 DUP3 ADD SWAP1 POP PUSH2 0x1B3C PUSH0 DUP4 ADD DUP9 PUSH2 0x1A94 JUMP JUMPDEST PUSH2 0x1B49 PUSH1 0x20 DUP4 ADD DUP8 PUSH2 0x1A94 JUMP JUMPDEST PUSH2 0x1B56 PUSH1 0x40 DUP4 ADD DUP7 PUSH2 0x1A94 JUMP JUMPDEST PUSH2 0x1B63 PUSH1 0x60 DUP4 ADD DUP6 PUSH2 0x1A94 JUMP JUMPDEST PUSH2 0x1B70 PUSH1 0x80 DUP4 ADD DUP5 PUSH2 0x1B1A JUMP JUMPDEST SWAP7 SWAP6 POP POP POP POP POP POP JUMP JUMPDEST PUSH0 PUSH1 0x20 DUP3 DUP5 SUB SLT ISZERO PUSH2 0x1B8F JUMPI PUSH2 0x1B8E PUSH2 0x18C7 JUMP JUMPDEST JUMPDEST PUSH0 PUSH2 0x1B9C DUP5 DUP3 DUP6 ADD PUSH2 0x1948 JUMP JUMPDEST SWAP2 POP POP SWAP3 SWAP2 POP POP JUMP JUMPDEST PUSH0 DUP1 PUSH1 0x40 DUP4 DUP6 SUB SLT ISZERO PUSH2 0x1BBB JUMPI PUSH2 0x1BBA PUSH2 0x18C7 JUMP JUMPDEST JUMPDEST PUSH0 PUSH2 0x1BC8 DUP6 DUP3 DUP7 ADD PUSH2 0x1948 JUMP JUMPDEST SWAP3 POP POP PUSH1 0x20 PUSH2 0x1BD9 DUP6 DUP3 DUP7 ADD PUSH2 0x1948 JUMP JUMPDEST SWAP2 POP POP SWAP3 POP SWAP3 SWAP1 POP JUMP JUMPDEST PUSH0 DUP3 DUP3 MSTORE PUSH1 0x20 DUP3 ADD SWAP1 POP SWAP3 SWAP2 POP POP JUMP JUMPDEST PUSH32 0x506C65617365204669727374204465706F736974204E46542021212100000000 PUSH0 DUP3 ADD MSTORE POP JUMP JUMPDEST PUSH0 PUSH2 0x1C27 PUSH1 0x1C DUP4 PUSH2 0x1BE3 JUMP JUMPDEST SWAP2 POP PUSH2 0x1C32 DUP3 PUSH2 0x1BF3 JUMP JUMPDEST PUSH1 0x20 DUP3 ADD SWAP1 POP SWAP2 SWAP1 POP JUMP JUMPDEST PUSH0 PUSH1 0x20 DUP3 ADD SWAP1 POP DUP2 DUP2 SUB PUSH0 DUP4 ADD MSTORE PUSH2 0x1C54 DUP2 PUSH2 0x1C1B JUMP JUMPDEST SWAP1 POP SWAP2 SWAP1 POP JUMP JUMPDEST PUSH32 0x4E487B7100000000000000000000000000000000000000000000000000000000 PUSH0 MSTORE PUSH1 0x11 PUSH1 0x4 MSTORE PUSH1 0x24 PUSH0 REVERT JUMPDEST PUSH0 PUSH2 0x1C92 DUP3 PUSH2 0x1929 JUMP JUMPDEST SWAP2 POP PUSH2 0x1C9D DUP4 PUSH2 0x1929 JUMP JUMPDEST SWAP3 POP DUP3 DUP3 SUB SWAP1 POP DUP2 DUP2 GT ISZERO PUSH2 0x1CB5 JUMPI PUSH2 0x1CB4 PUSH2 0x1C5B JUMP JUMPDEST JUMPDEST SWAP3 SWAP2 POP POP JUMP JUMPDEST PUSH32 0x4E487B7100000000000000000000000000000000000000000000000000000000 PUSH0 MSTORE PUSH1 0x12 PUSH1 0x4 MSTORE PUSH1 0x24 PUSH0 REVERT JUMPDEST PUSH0 PUSH2 0x1CF2 DUP3 PUSH2 0x1929 JUMP JUMPDEST SWAP2 POP PUSH2 0x1CFD DUP4 PUSH2 0x1929 JUMP JUMPDEST SWAP3 POP DUP3 PUSH2 0x1D0D JUMPI PUSH2 0x1D0C PUSH2 0x1CBB JUMP JUMPDEST JUMPDEST DUP3 DUP3 DIV SWAP1 POP SWAP3 SWAP2 POP POP JUMP JUMPDEST PUSH0 PUSH2 0x1D22 DUP3 PUSH2 0x1929 JUMP JUMPDEST SWAP2 POP PUSH2 0x1D2D DUP4 PUSH2 0x1929 JUMP JUMPDEST SWAP3 POP DUP3 DUP3 MUL PUSH2 0x1D3B DUP2 PUSH2 0x1929 JUMP JUMPDEST SWAP2 POP DUP3 DUP3 DIV DUP5 EQ DUP4 ISZERO OR PUSH2 0x1D52 JUMPI PUSH2 0x1D51 PUSH2 0x1C5B JUMP JUMPDEST JUMPDEST POP SWAP3 SWAP2 POP POP JUMP JUMPDEST PUSH0 DUP3 DUP3 MSTORE PUSH1 0x20 DUP3 ADD SWAP1 POP SWAP3 SWAP2 POP POP JUMP JUMPDEST POP JUMP JUMPDEST PUSH0 PUSH2 0x1D77 PUSH0 DUP4 PUSH2 0x1D59 JUMP JUMPDEST SWAP2 POP PUSH2 0x1D82 DUP3 PUSH2 0x1D69 JUMP JUMPDEST PUSH0 DUP3 ADD SWAP1 POP SWAP2 SWAP1 POP JUMP JUMPDEST PUSH0 PUSH1 0x80 DUP3 ADD SWAP1 POP PUSH2 0x1D9F PUSH0 DUP4 ADD DUP7 PUSH2 0x1AE7 JUMP JUMPDEST PUSH2 0x1DAC PUSH1 0x20 DUP4 ADD DUP6 PUSH2 0x1AE7 JUMP JUMPDEST PUSH2 0x1DB9 PUSH1 0x40 DUP4 ADD DUP5 PUSH2 0x1A94 JUMP JUMPDEST DUP2 DUP2 SUB PUSH1 0x60 DUP4 ADD MSTORE PUSH2 0x1DCA DUP2 PUSH2 0x1D6C JUMP JUMPDEST SWAP1 POP SWAP5 SWAP4 POP POP POP POP JUMP JUMPDEST PUSH0 PUSH2 0x1DDE DUP3 PUSH2 0x1929 JUMP JUMPDEST SWAP2 POP PUSH2 0x1DE9 DUP4 PUSH2 0x1929 JUMP JUMPDEST SWAP3 POP DUP3 DUP3 ADD SWAP1 POP DUP1 DUP3 GT ISZERO PUSH2 0x1E01 JUMPI PUSH2 0x1E00 PUSH2 0x1C5B JUMP JUMPDEST JUMPDEST SWAP3 SWAP2 POP POP JUMP JUMPDEST PUSH32 0x596F7520416C7265616479204465706F736974204E4654000000000000000000 PUSH0 DUP3 ADD MSTORE POP JUMP JUMPDEST PUSH0 PUSH2 0x1E3B PUSH1 0x17 DUP4 PUSH2 0x1BE3 JUMP JUMPDEST SWAP2 POP PUSH2 0x1E46 DUP3 PUSH2 0x1E07 JUMP JUMPDEST PUSH1 0x20 DUP3 ADD SWAP1 POP SWAP2 SWAP1 POP JUMP JUMPDEST PUSH0 PUSH1 0x20 DUP3 ADD SWAP1 POP DUP2 DUP2 SUB PUSH0 DUP4 ADD MSTORE PUSH2 0x1E68 DUP2 PUSH2 0x1E2F JUMP JUMPDEST SWAP1 POP SWAP2 SWAP1 POP JUMP JUMPDEST PUSH32 0x313520446179732043617465676F72792069732046756C6C2021212100000000 PUSH0 DUP3 ADD MSTORE POP JUMP JUMPDEST PUSH0 PUSH2 0x1EA3 PUSH1 0x1C DUP4 PUSH2 0x1BE3 JUMP JUMPDEST SWAP2 POP PUSH2 0x1EAE DUP3 PUSH2 0x1E6F JUMP JUMPDEST PUSH1 0x20 DUP3 ADD SWAP1 POP SWAP2 SWAP1 POP JUMP JUMPDEST PUSH0 PUSH1 0x20 DUP3 ADD SWAP1 POP DUP2 DUP2 SUB PUSH0 DUP4 ADD MSTORE PUSH2 0x1ED0 DUP2 PUSH2 0x1E97 JUMP JUMPDEST SWAP1 POP SWAP2 SWAP1 POP JUMP JUMPDEST PUSH32 0x333020446179732043617465676F72792069732046756C6C2021212100000000 PUSH0 DUP3 ADD MSTORE POP JUMP JUMPDEST PUSH0 PUSH2 0x1F0B PUSH1 0x1C DUP4 PUSH2 0x1BE3 JUMP JUMPDEST SWAP2 POP PUSH2 0x1F16 DUP3 PUSH2 0x1ED7 JUMP JUMPDEST PUSH1 0x20 DUP3 ADD SWAP1 POP SWAP2 SWAP1 POP JUMP JUMPDEST PUSH0 PUSH1 0x20 DUP3 ADD SWAP1 POP DUP2 DUP2 SUB PUSH0 DUP4 ADD MSTORE PUSH2 0x1F38 DUP2 PUSH2 0x1EFF JUMP JUMPDEST SWAP1 POP SWAP2 SWAP1 POP JUMP JUMPDEST PUSH32 0x363020446179732043617465676F72792069732046756C6C2021212100000000 PUSH0 DUP3 ADD MSTORE POP JUMP JUMPDEST PUSH0 PUSH2 0x1F73 PUSH1 0x1C DUP4 PUSH2 0x1BE3 JUMP JUMPDEST SWAP2 POP PUSH2 0x1F7E DUP3 PUSH2 0x1F3F JUMP JUMPDEST PUSH1 0x20 DUP3 ADD SWAP1 POP SWAP2 SWAP1 POP JUMP JUMPDEST PUSH0 PUSH1 0x20 DUP3 ADD SWAP1 POP DUP2 DUP2 SUB PUSH0 DUP4 ADD MSTORE PUSH2 0x1FA0 DUP2 PUSH2 0x1F67 JUMP JUMPDEST SWAP1 POP SWAP2 SWAP1 POP JUMP JUMPDEST PUSH32 0x393020446179732043617465676F72792069732046756C6C2021212100000000 PUSH0 DUP3 ADD MSTORE POP JUMP JUMPDEST PUSH0 PUSH2 0x1FDB PUSH1 0x1C DUP4 PUSH2 0x1BE3 JUMP JUMPDEST SWAP2 POP PUSH2 0x1FE6 DUP3 PUSH2 0x1FA7 JUMP JUMPDEST PUSH1 0x20 DUP3 ADD SWAP1 POP SWAP2 SWAP1 POP JUMP JUMPDEST PUSH0 PUSH1 0x20 DUP3 ADD SWAP1 POP DUP2 DUP2 SUB PUSH0 DUP4 ADD MSTORE PUSH2 0x2008 DUP2 PUSH2 0x1FCF JUMP JUMPDEST SWAP1 POP SWAP2 SWAP1 POP JUMP JUMPDEST PUSH32 0x53656C6C65637420446179732031352C33302C36302C39302021212100000000 PUSH0 DUP3 ADD MSTORE POP JUMP JUMPDEST PUSH0 PUSH2 0x2043 PUSH1 0x1C DUP4 PUSH2 0x1BE3 JUMP JUMPDEST SWAP2 POP PUSH2 0x204E DUP3 PUSH2 0x200F JUMP JUMPDEST PUSH1 0x20 DUP3 ADD SWAP1 POP SWAP2 SWAP1 POP JUMP JUMPDEST PUSH0 PUSH1 0x20 DUP3 ADD SWAP1 POP DUP2 DUP2 SUB PUSH0 DUP4 ADD MSTORE PUSH2 0x2070 DUP2 PUSH2 0x2037 JUMP JUMPDEST SWAP1 POP SWAP2 SWAP1 POP JUMP JUMPDEST PUSH32 0x4F776E61626C653A206E6577206F776E657220697320746865207A65726F2061 PUSH0 DUP3 ADD MSTORE PUSH32 0x6464726573730000000000000000000000000000000000000000000000000000 PUSH1 0x20 DUP3 ADD MSTORE POP JUMP JUMPDEST PUSH0 PUSH2 0x20D1 PUSH1 0x26 DUP4 PUSH2 0x1BE3 JUMP JUMPDEST SWAP2 POP PUSH2 0x20DC DUP3 PUSH2 0x2077 JUMP JUMPDEST PUSH1 0x40 DUP3 ADD SWAP1 POP SWAP2 SWAP1 POP JUMP JUMPDEST PUSH0 PUSH1 0x20 DUP3 ADD SWAP1 POP DUP2 DUP2 SUB PUSH0 DUP4 ADD MSTORE PUSH2 0x20FE DUP2 PUSH2 0x20C5 JUMP JUMPDEST SWAP1 POP SWAP2 SWAP1 POP JUMP JUMPDEST PUSH0 PUSH1 0x40 DUP3 ADD SWAP1 POP PUSH2 0x2118 PUSH0 DUP4 ADD DUP6 PUSH2 0x1AE7 JUMP JUMPDEST PUSH2 0x2125 PUSH1 0x20 DUP4 ADD DUP5 PUSH2 0x1A94 JUMP JUMPDEST SWAP4 SWAP3 POP POP POP JUMP JUMPDEST PUSH32 0x436F756E7465723A2064656372656D656E74206F766572666C6F770000000000 PUSH0 DUP3 ADD MSTORE POP JUMP JUMPDEST PUSH0 PUSH2 0x2160 PUSH1 0x1B DUP4 PUSH2 0x1BE3 JUMP JUMPDEST SWAP2 POP PUSH2 0x216B DUP3 PUSH2 0x212C JUMP JUMPDEST PUSH1 0x20 DUP3 ADD SWAP1 POP SWAP2 SWAP1 POP JUMP JUMPDEST PUSH0 PUSH1 0x20 DUP3 ADD SWAP1 POP DUP2 DUP2 SUB PUSH0 DUP4 ADD MSTORE PUSH2 0x218D DUP2 PUSH2 0x2154 JUMP JUMPDEST SWAP1 POP SWAP2 SWAP1 POP JUMP JUMPDEST PUSH32 0x4F776E61626C653A2063616C6C6572206973206E6F7420746865206F776E6572 PUSH0 DUP3 ADD MSTORE POP JUMP JUMPDEST PUSH0 PUSH2 0x21C8 PUSH1 0x20 DUP4 PUSH2 0x1BE3 JUMP JUMPDEST SWAP2 POP PUSH2 0x21D3 DUP3 PUSH2 0x2194 JUMP JUMPDEST PUSH1 0x20 DUP3 ADD SWAP1 POP SWAP2 SWAP1 POP JUMP JUMPDEST PUSH0 PUSH1 0x20 DUP3 ADD SWAP1 POP DUP2 DUP2 SUB PUSH0 DUP4 ADD MSTORE PUSH2 0x21F5 DUP2 PUSH2 0x21BC JUMP JUMPDEST SWAP1 POP SWAP2 SWAP1 POP JUMP JUMPDEST PUSH0 PUSH1 0x60 DUP3 ADD SWAP1 POP PUSH2 0x220F PUSH0 DUP4 ADD DUP7 PUSH2 0x1AE7 JUMP JUMPDEST PUSH2 0x221C PUSH1 0x20 DUP4 ADD DUP6 PUSH2 0x1AE7 JUMP JUMPDEST PUSH2 0x2229 PUSH1 0x40 DUP4 ADD DUP5 PUSH2 0x1A94 JUMP JUMPDEST SWAP5 SWAP4 POP POP POP POP JUMP JUMPDEST PUSH2 0x223A DUP2 PUSH2 0x1B0F JUMP JUMPDEST DUP2 EQ PUSH2 0x2244 JUMPI PUSH0 DUP1 REVERT JUMPDEST POP JUMP JUMPDEST PUSH0 DUP2 MLOAD SWAP1 POP PUSH2 0x2255 DUP2 PUSH2 0x2231 JUMP JUMPDEST SWAP3 SWAP2 POP POP JUMP JUMPDEST PUSH0 PUSH1 0x20 DUP3 DUP5 SUB SLT ISZERO PUSH2 0x2270 JUMPI PUSH2 0x226F PUSH2 0x18C7 JUMP JUMPDEST JUMPDEST PUSH0 PUSH2 0x227D DUP5 DUP3 DUP6 ADD PUSH2 0x2247 JUMP JUMPDEST SWAP2 POP POP SWAP3 SWAP2 POP POP JUMP JUMPDEST PUSH32 0x5361666545524332303A204552433230206F7065726174696F6E20646964206E PUSH0 DUP3 ADD MSTORE PUSH32 0x6F74207375636365656400000000000000000000000000000000000000000000 PUSH1 0x20 DUP3 ADD MSTORE POP JUMP JUMPDEST PUSH0 PUSH2 0x22E0 PUSH1 0x2A DUP4 PUSH2 0x1BE3 JUMP JUMPDEST SWAP2 POP PUSH2 0x22EB DUP3 PUSH2 0x2286 JUMP JUMPDEST PUSH1 0x40 DUP3 ADD SWAP1 POP SWAP2 SWAP1 POP JUMP JUMPDEST PUSH0 PUSH1 0x20 DUP3 ADD SWAP1 POP DUP2 DUP2 SUB PUSH0 DUP4 ADD MSTORE PUSH2 0x230D DUP2 PUSH2 0x22D4 JUMP JUMPDEST SWAP1 POP SWAP2 SWAP1 POP JUMP JUMPDEST PUSH32 0x416464726573733A20696E73756666696369656E742062616C616E636520666F PUSH0 DUP3 ADD MSTORE PUSH32 0x722063616C6C0000000000000000000000000000000000000000000000000000 PUSH1 0x20 DUP3 ADD MSTORE POP JUMP JUMPDEST PUSH0 PUSH2 0x236E PUSH1 0x26 DUP4 PUSH2 0x1BE3 JUMP JUMPDEST SWAP2 POP PUSH2 0x2379 DUP3 PUSH2 0x2314 JUMP JUMPDEST PUSH1 0x40 DUP3 ADD SWAP1 POP SWAP2 SWAP1 POP JUMP JUMPDEST PUSH0 PUSH1 0x20 DUP3 ADD SWAP1 POP DUP2 DUP2 SUB PUSH0 DUP4 ADD MSTORE PUSH2 0x239B DUP2 PUSH2 0x2362 JUMP JUMPDEST SWAP1 POP SWAP2 SWAP1 POP JUMP JUMPDEST PUSH0 DUP2 MLOAD SWAP1 POP SWAP2 SWAP1 POP JUMP JUMPDEST PUSH0 DUP2 SWAP1 POP SWAP3 SWAP2 POP POP JUMP JUMPDEST PUSH0 JUMPDEST DUP4 DUP2 LT ISZERO PUSH2 0x23D3 JUMPI DUP1 DUP3 ADD MLOAD DUP2 DUP5 ADD MSTORE PUSH1 0x20 DUP2 ADD SWAP1 POP PUSH2 0x23B8 JUMP JUMPDEST PUSH0 DUP5 DUP5 ADD MSTORE POP POP POP POP JUMP JUMPDEST PUSH0 PUSH2 0x23E8 DUP3 PUSH2 0x23A2 JUMP JUMPDEST PUSH2 0x23F2 DUP2 DUP6 PUSH2 0x23AC JUMP JUMPDEST SWAP4 POP PUSH2 0x2402 DUP2 DUP6 PUSH1 0x20 DUP7 ADD PUSH2 0x23B6 JUMP JUMPDEST DUP1 DUP5 ADD SWAP2 POP POP SWAP3 SWAP2 POP POP JUMP JUMPDEST PUSH0 PUSH2 0x2419 DUP3 DUP5 PUSH2 0x23DE JUMP JUMPDEST SWAP2 POP DUP2 SWAP1 POP SWAP3 SWAP2 POP POP JUMP JUMPDEST PUSH32 0x416464726573733A2063616C6C20746F206E6F6E2D636F6E7472616374000000 PUSH0 DUP3 ADD MSTORE POP JUMP JUMPDEST PUSH0 PUSH2 0x2458 PUSH1 0x1D DUP4 PUSH2 0x1BE3 JUMP JUMPDEST SWAP2 POP PUSH2 0x2463 DUP3 PUSH2 0x2424 JUMP JUMPDEST PUSH1 0x20 DUP3 ADD SWAP1 POP SWAP2 SWAP1 POP JUMP JUMPDEST PUSH0 PUSH1 0x20 DUP3 ADD SWAP1 POP DUP2 DUP2 SUB PUSH0 DUP4 ADD MSTORE PUSH2 0x2485 DUP2 PUSH2 0x244C JUMP JUMPDEST SWAP1 POP SWAP2 SWAP1 POP JUMP JUMPDEST PUSH0 DUP2 MLOAD SWAP1 POP SWAP2 SWAP1 POP JUMP JUMPDEST PUSH0 PUSH1 0x1F NOT PUSH1 0x1F DUP4 ADD AND SWAP1 POP SWAP2 SWAP1 POP JUMP JUMPDEST PUSH0 PUSH2 0x24B0 DUP3 PUSH2 0x248C JUMP JUMPDEST PUSH2 0x24BA DUP2 DUP6 PUSH2 0x1BE3 JUMP JUMPDEST SWAP4 POP PUSH2 0x24CA DUP2 DUP6 PUSH1 0x20 DUP7 ADD PUSH2 0x23B6 JUMP JUMPDEST PUSH2 0x24D3 DUP2 PUSH2 0x2496 JUMP JUMPDEST DUP5 ADD SWAP2 POP POP SWAP3 SWAP2 POP POP JUMP JUMPDEST PUSH0 PUSH1 0x20 DUP3 ADD SWAP1 POP DUP2 DUP2 SUB PUSH0 DUP4 ADD MSTORE PUSH2 0x24F6 DUP2 DUP5 PUSH2 0x24A6 JUMP JUMPDEST SWAP1 POP SWAP3 SWAP2 POP POP JUMP INVALID LOG2 PUSH5 0x6970667358 0x22 SLT KECCAK256 KECCAK256 0x49 0xBC SWAP11 JUMPDEST PUSH10 0x517536687FDA545C92DA PUSH24 0x1290920A01F642FB2B3047F57EA6BB64736F6C6343000815 STOP CALLER "
				},
				"gasEstimates": {
					"creation": {
						"codeDepositCost": "1904800",
						"executionCost": "infinite",
						"totalCost": "infinite"
					},
					"external": {
						"AdminAddToken(uint256)": "infinite",
						"ERC20Address()": "2531",
						"ERC721address()": "2597",
						"Staker(address)": "infinite",
						"TotalRemaningToken()": "2448",
						"category1()": "2484",
						"category2()": "2483",
						"category3()": "2526",
						"category4()": "2506",
						"deposit(uint256,uint256)": "infinite",
						"onERC721Received(address,address,uint256,bytes)": "infinite",
						"owner()": "2604",
						"renounceOwnership()": "30457",
						"transferOwnership(address)": "30797",
						"withdraw(address)": "infinite"
					}
				},
				"methodIdentifiers": {
					"AdminAddToken(uint256)": "c0cd40ee",
					"ERC20Address()": "a6021ace",
					"ERC721address()": "b7171a2e",
					"Staker(address)": "b4e929d4",
					"TotalRemaningToken()": "4930e5d1",
					"category1()": "3f431230",
					"category2()": "b10558ab",
					"category3()": "f7d252f4",
					"category4()": "41fcd29a",
					"deposit(uint256,uint256)": "e2bbb158",
					"onERC721Received(address,address,uint256,bytes)": "150b7a02",
					"owner()": "8da5cb5b",
					"renounceOwnership()": "715018a6",
					"transferOwnership(address)": "f2fde38b",
					"withdraw(address)": "51cff8d9"
				}
			},
			"storageLayout": {
				"storage": [
					{
						"astId": 7,
						"contract": "contracts/Defly/NFTStakingStart.sol:NFTStaking",
						"label": "_owner",
						"offset": 0,
						"slot": "0",
						"type": "t_address"
					},
					{
						"astId": 1149,
						"contract": "contracts/Defly/NFTStakingStart.sol:NFTStaking",
						"label": "category1",
						"offset": 0,
						"slot": "1",
						"type": "t_struct(Counter)1030_storage"
					},
					{
						"astId": 1152,
						"contract": "contracts/Defly/NFTStakingStart.sol:NFTStaking",
						"label": "category2",
						"offset": 0,
						"slot": "2",
						"type": "t_struct(Counter)1030_storage"
					},
					{
						"astId": 1155,
						"contract": "contracts/Defly/NFTStakingStart.sol:NFTStaking",
						"label": "category3",
						"offset": 0,
						"slot": "3",
						"type": "t_struct(Counter)1030_storage"
					},
					{
						"astId": 1158,
						"contract": "contracts/Defly/NFTStakingStart.sol:NFTStaking",
						"label": "category4",
						"offset": 0,
						"slot": "4",
						"type": "t_struct(Counter)1030_storage"
					},
					{
						"astId": 1160,
						"contract": "contracts/Defly/NFTStakingStart.sol:NFTStaking",
						"label": "ERC721address",
						"offset": 0,
						"slot": "5",
						"type": "t_address"
					},
					{
						"astId": 1162,
						"contract": "contracts/Defly/NFTStakingStart.sol:NFTStaking",
						"label": "ERC20Address",
						"offset": 0,
						"slot": "6",
						"type": "t_address"
					},
					{
						"astId": 1164,
						"contract": "contracts/Defly/NFTStakingStart.sol:NFTStaking",
						"label": "TotalRemaningToken",
						"offset": 0,
						"slot": "7",
						"type": "t_uint256"
					},
					{
						"astId": 1180,
						"contract": "contracts/Defly/NFTStakingStart.sol:NFTStaking",
						"label": "Staker",
						"offset": 0,
						"slot": "8",
						"type": "t_mapping(t_address,t_struct(Detail)1175_storage)"
					}
				],
				"types": {
					"t_address": {
						"encoding": "inplace",
						"label": "address",
						"numberOfBytes": "20"
					},
					"t_bool": {
						"encoding": "inplace",
						"label": "bool",
						"numberOfBytes": "1"
					},
					"t_mapping(t_address,t_struct(Detail)1175_storage)": {
						"encoding": "mapping",
						"key": "t_address",
						"label": "mapping(address => struct NFTStaking.Detail)",
						"numberOfBytes": "32",
						"value": "t_struct(Detail)1175_storage"
					},
					"t_struct(Counter)1030_storage": {
						"encoding": "inplace",
						"label": "struct Counters.Counter",
						"members": [
							{
								"astId": 1029,
								"contract": "contracts/Defly/NFTStakingStart.sol:NFTStaking",
								"label": "_value",
								"offset": 0,
								"slot": "0",
								"type": "t_uint256"
							}
						],
						"numberOfBytes": "32"
					},
					"t_struct(Detail)1175_storage": {
						"encoding": "inplace",
						"label": "struct NFTStaking.Detail",
						"members": [
							{
								"astId": 1166,
								"contract": "contracts/Defly/NFTStakingStart.sol:NFTStaking",
								"label": "tokens",
								"offset": 0,
								"slot": "0",
								"type": "t_uint256"
							},
							{
								"astId": 1168,
								"contract": "contracts/Defly/NFTStakingStart.sol:NFTStaking",
								"label": "day",
								"offset": 0,
								"slot": "1",
								"type": "t_uint256"
							},
							{
								"astId": 1170,
								"contract": "contracts/Defly/NFTStakingStart.sol:NFTStaking",
								"label": "StartTime",
								"offset": 0,
								"slot": "2",
								"type": "t_uint256"
							},
							{
								"astId": 1172,
								"contract": "contracts/Defly/NFTStakingStart.sol:NFTStaking",
								"label": "NFT",
								"offset": 0,
								"slot": "3",
								"type": "t_uint256"
							},
							{
								"astId": 1174,
								"contract": "contracts/Defly/NFTStakingStart.sol:NFTStaking",
								"label": "DepositToken",
								"offset": 0,
								"slot": "4",
								"type": "t_bool"
							}
						],
						"numberOfBytes": "160"
					},
					"t_uint256": {
						"encoding": "inplace",
						"label": "uint256",
						"numberOfBytes": "32"
					}
				}
			},
			"userdoc": {
				"kind": "user",
				"methods": {},
				"version": 1
			}
		}
	}
}