{
	"contracts/Defly/NFTtesting.sol": {
		"NFTstaking": {
			"abi": [
				{
					"inputs": [
						{
							"internalType": "address",
							"name": "_ERC20Address",
							"type": "address"
						}
					],
					"stateMutability": "nonpayable",
					"type": "constructor"
				},
				{
					"anonymous": false,
					"inputs": [
						{
							"indexed": true,
							"internalType": "address",
							"name": "previousOwner",
							"type": "address"
						},
						{
							"indexed": true,
							"internalType": "address",
							"name": "newOwner",
							"type": "address"
						}
					],
					"name": "OwnershipTransferred",
					"type": "event"
				},
				{
					"inputs": [
						{
							"internalType": "uint256",
							"name": "Amount",
							"type": "uint256"
						}
					],
					"name": "AdminAddToken",
					"outputs": [],
					"stateMutability": "nonpayable",
					"type": "function"
				},
				{
					"inputs": [
						{
							"internalType": "address",
							"name": "",
							"type": "address"
						},
						{
							"internalType": "uint256",
							"name": "",
							"type": "uint256"
						}
					],
					"name": "Count",
					"outputs": [
						{
							"internalType": "uint256",
							"name": "",
							"type": "uint256"
						}
					],
					"stateMutability": "view",
					"type": "function"
				},
				{
					"inputs": [],
					"name": "ERC20Address",
					"outputs": [
						{
							"internalType": "address",
							"name": "",
							"type": "address"
						}
					],
					"stateMutability": "view",
					"type": "function"
				},
				{
					"inputs": [],
					"name": "ERC721address",
					"outputs": [
						{
							"internalType": "address",
							"name": "",
							"type": "address"
						}
					],
					"stateMutability": "view",
					"type": "function"
				},
				{
					"inputs": [
						{
							"internalType": "address",
							"name": "",
							"type": "address"
						},
						{
							"internalType": "uint256",
							"name": "",
							"type": "uint256"
						}
					],
					"name": "ERCDetail",
					"outputs": [
						{
							"internalType": "uint256",
							"name": "tokenId",
							"type": "uint256"
						},
						{
							"internalType": "address",
							"name": "mintContract",
							"type": "address"
						}
					],
					"stateMutability": "view",
					"type": "function"
				},
				{
					"inputs": [
						{
							"internalType": "address",
							"name": "",
							"type": "address"
						},
						{
							"internalType": "address",
							"name": "",
							"type": "address"
						},
						{
							"internalType": "uint256",
							"name": "",
							"type": "uint256"
						}
					],
					"name": "Staker",
					"outputs": [
						{
							"internalType": "address",
							"name": "mint721",
							"type": "address"
						},
						{
							"internalType": "uint256",
							"name": "tokens",
							"type": "uint256"
						},
						{
							"internalType": "uint256",
							"name": "day",
							"type": "uint256"
						},
						{
							"internalType": "uint256",
							"name": "StartTime",
							"type": "uint256"
						},
						{
							"internalType": "uint256",
							"name": "NFT",
							"type": "uint256"
						},
						{
							"internalType": "uint256",
							"name": "count",
							"type": "uint256"
						},
						{
							"internalType": "bool",
							"name": "DepositToken",
							"type": "bool"
						}
					],
					"stateMutability": "view",
					"type": "function"
				},
				{
					"inputs": [],
					"name": "TotalRemaningToken",
					"outputs": [
						{
							"internalType": "uint256",
							"name": "",
							"type": "uint256"
						}
					],
					"stateMutability": "view",
					"type": "function"
				},
				{
					"inputs": [],
					"name": "category1",
					"outputs": [
						{
							"internalType": "uint256",
							"name": "_value",
							"type": "uint256"
						}
					],
					"stateMutability": "view",
					"type": "function"
				},
				{
					"inputs": [],
					"name": "category2",
					"outputs": [
						{
							"internalType": "uint256",
							"name": "_value",
							"type": "uint256"
						}
					],
					"stateMutability": "view",
					"type": "function"
				},
				{
					"inputs": [],
					"name": "category3",
					"outputs": [
						{
							"internalType": "uint256",
							"name": "_value",
							"type": "uint256"
						}
					],
					"stateMutability": "view",
					"type": "function"
				},
				{
					"inputs": [],
					"name": "category4",
					"outputs": [
						{
							"internalType": "uint256",
							"name": "_value",
							"type": "uint256"
						}
					],
					"stateMutability": "view",
					"type": "function"
				},
				{
					"inputs": [
						{
							"internalType": "address",
							"name": "",
							"type": "address"
						}
					],
					"name": "countDeposit",
					"outputs": [
						{
							"internalType": "uint256",
							"name": "",
							"type": "uint256"
						}
					],
					"stateMutability": "view",
					"type": "function"
				},
				{
					"inputs": [
						{
							"internalType": "uint256",
							"name": "TokenId",
							"type": "uint256"
						},
						{
							"internalType": "uint256",
							"name": "Days",
							"type": "uint256"
						},
						{
							"internalType": "address",
							"name": "_to",
							"type": "address"
						},
						{
							"internalType": "address",
							"name": "_mintAddress",
							"type": "address"
						}
					],
					"name": "deposit",
					"outputs": [],
					"stateMutability": "nonpayable",
					"type": "function"
				},
				{
					"inputs": [
						{
							"internalType": "address",
							"name": "",
							"type": "address"
						},
						{
							"internalType": "address",
							"name": "",
							"type": "address"
						},
						{
							"internalType": "uint256",
							"name": "",
							"type": "uint256"
						},
						{
							"internalType": "bytes",
							"name": "",
							"type": "bytes"
						}
					],
					"name": "onERC721Received",
					"outputs": [
						{
							"internalType": "bytes4",
							"name": "",
							"type": "bytes4"
						}
					],
					"stateMutability": "pure",
					"type": "function"
				},
				{
					"inputs": [],
					"name": "owner",
					"outputs": [
						{
							"internalType": "address",
							"name": "",
							"type": "address"
						}
					],
					"stateMutability": "view",
					"type": "function"
				},
				{
					"inputs": [],
					"name": "renounceOwnership",
					"outputs": [],
					"stateMutability": "nonpayable",
					"type": "function"
				},
				{
					"inputs": [
						{
							"internalType": "address",
							"name": "newOwner",
							"type": "address"
						}
					],
					"name": "transferOwnership",
					"outputs": [],
					"stateMutability": "nonpayable",
					"type": "function"
				},
				{
					"inputs": [
						{
							"internalType": "uint256",
							"name": "TokenId",
							"type": "uint256"
						},
						{
							"internalType": "address",
							"name": "_to",
							"type": "address"
						},
						{
							"internalType": "address",
							"name": "_mintAddress",
							"type": "address"
						}
					],
					"name": "withdraw",
					"outputs": [],
					"stateMutability": "nonpayable",
					"type": "function"
				}
			],
			"devdoc": {
				"kind": "dev",
				"methods": {
					"owner()": {
						"details": "Returns the address of the current owner."
					},
					"renounceOwnership()": {
						"details": "Leaves the contract without owner. It will not be possible to call `onlyOwner` functions anymore. Can only be called by the current owner. NOTE: Renouncing ownership will leave the contract without an owner, thereby removing any functionality that is only available to the owner."
					},
					"transferOwnership(address)": {
						"details": "Transfers ownership of the contract to a new account (`newOwner`). Can only be called by the current owner."
					}
				},
				"version": 1
			},
			"evm": {
				"assembly": "    /* \"contracts/Defly/NFTtesting.sol\":402:8076  contract NFTstaking is Ownable,IERC721Receiver{... */\n  mstore(0x40, 0x80)\n    /* \"contracts/Defly/NFTtesting.sol\":1066:1085  1000000000000000000 */\n  0x0de0b6b3a7640000\n    /* \"contracts/Defly/NFTtesting.sol\":1048:1085  uint256 _amount = 1000000000000000000 */\n  0x08\n  sstore\n    /* \"contracts/Defly/NFTtesting.sol\":1694:1817  constructor(address _ERC20Address) {... */\n  callvalue\n  dup1\n  iszero\n  tag_1\n  jumpi\n  0x00\n  dup1\n  revert\ntag_1:\n  pop\n  mload(0x40)\n  sub(codesize, bytecodeSize)\n  dup1\n  bytecodeSize\n  dup4\n  codecopy\n  dup2\n  dup2\n  add\n  0x40\n  mstore\n  dup2\n  add\n  swap1\n  tag_2\n  swap2\n  swap1\n  tag_3\n  jump\t// in\ntag_2:\n    /* \"@openzeppelin/contracts/access/Ownable.sol\":936:968  _transferOwnership(_msgSender()) */\n  tag_7\n    /* \"@openzeppelin/contracts/access/Ownable.sol\":955:967  _msgSender() */\n  tag_8\n    /* \"@openzeppelin/contracts/access/Ownable.sol\":955:965  _msgSender */\n  shl(0x20, tag_9)\n    /* \"@openzeppelin/contracts/access/Ownable.sol\":955:967  _msgSender() */\n  0x20\n  shr\n  jump\t// in\ntag_8:\n    /* \"@openzeppelin/contracts/access/Ownable.sol\":936:954  _transferOwnership */\n  shl(0x20, tag_10)\n    /* \"@openzeppelin/contracts/access/Ownable.sol\":936:968  _transferOwnership(_msgSender()) */\n  0x20\n  shr\n  jump\t// in\ntag_7:\n    /* \"contracts/Defly/NFTtesting.sol\":1797:1810  _ERC20Address */\n  dup1\n    /* \"contracts/Defly/NFTtesting.sol\":1782:1794  ERC20Address */\n  0x06\n  0x00\n    /* \"contracts/Defly/NFTtesting.sol\":1782:1810  ERC20Address = _ERC20Address */\n  0x0100\n  exp\n  dup2\n  sload\n  dup2\n  0xffffffffffffffffffffffffffffffffffffffff\n  mul\n  not\n  and\n  swap1\n  dup4\n  0xffffffffffffffffffffffffffffffffffffffff\n  and\n  mul\n  or\n  swap1\n  sstore\n  pop\n    /* \"contracts/Defly/NFTtesting.sol\":1694:1817  constructor(address _ERC20Address) {... */\n  pop\n    /* \"contracts/Defly/NFTtesting.sol\":402:8076  contract NFTstaking is Ownable,IERC721Receiver{... */\n  jump(tag_12)\n    /* \"@openzeppelin/contracts/utils/Context.sol\":640:736  function _msgSender() internal view virtual returns (address) {... */\ntag_9:\n    /* \"@openzeppelin/contracts/utils/Context.sol\":693:700  address */\n  0x00\n    /* \"@openzeppelin/contracts/utils/Context.sol\":719:729  msg.sender */\n  caller\n    /* \"@openzeppelin/contracts/utils/Context.sol\":712:729  return msg.sender */\n  swap1\n  pop\n    /* \"@openzeppelin/contracts/utils/Context.sol\":640:736  function _msgSender() internal view virtual returns (address) {... */\n  swap1\n  jump\t// out\n    /* \"@openzeppelin/contracts/access/Ownable.sol\":2433:2620  function _transferOwnership(address newOwner) internal virtual {... */\ntag_10:\n    /* \"@openzeppelin/contracts/access/Ownable.sol\":2506:2522  address oldOwner */\n  0x00\n    /* \"@openzeppelin/contracts/access/Ownable.sol\":2525:2531  _owner */\n  dup1\n  0x00\n  swap1\n  sload\n  swap1\n  0x0100\n  exp\n  swap1\n  div\n  0xffffffffffffffffffffffffffffffffffffffff\n  and\n    /* \"@openzeppelin/contracts/access/Ownable.sol\":2506:2531  address oldOwner = _owner */\n  swap1\n  pop\n    /* \"@openzeppelin/contracts/access/Ownable.sol\":2550:2558  newOwner */\n  dup2\n    /* \"@openzeppelin/contracts/access/Ownable.sol\":2541:2547  _owner */\n  0x00\n  dup1\n    /* \"@openzeppelin/contracts/access/Ownable.sol\":2541:2558  _owner = newOwner */\n  0x0100\n  exp\n  dup2\n  sload\n  dup2\n  0xffffffffffffffffffffffffffffffffffffffff\n  mul\n  not\n  and\n  swap1\n  dup4\n  0xffffffffffffffffffffffffffffffffffffffff\n  and\n  mul\n  or\n  swap1\n  sstore\n  pop\n    /* \"@openzeppelin/contracts/access/Ownable.sol\":2604:2612  newOwner */\n  dup2\n    /* \"@openzeppelin/contracts/access/Ownable.sol\":2573:2613  OwnershipTransferred(oldOwner, newOwner) */\n  0xffffffffffffffffffffffffffffffffffffffff\n  and\n    /* \"@openzeppelin/contracts/access/Ownable.sol\":2594:2602  oldOwner */\n  dup2\n    /* \"@openzeppelin/contracts/access/Ownable.sol\":2573:2613  OwnershipTransferred(oldOwner, newOwner) */\n  0xffffffffffffffffffffffffffffffffffffffff\n  and\n  0x8be0079c531659141344cd1fd0a4f28419497f9722a3daafe3b4186f6b6457e0\n  mload(0x40)\n  mload(0x40)\n  dup1\n  swap2\n  sub\n  swap1\n  log3\n    /* \"@openzeppelin/contracts/access/Ownable.sol\":2496:2620  {... */\n  pop\n    /* \"@openzeppelin/contracts/access/Ownable.sol\":2433:2620  function _transferOwnership(address newOwner) internal virtual {... */\n  pop\n  jump\t// out\n    /* \"#utility.yul\":88:205   */\ntag_16:\n    /* \"#utility.yul\":197:198   */\n  0x00\n    /* \"#utility.yul\":194:195   */\n  dup1\n    /* \"#utility.yul\":187:199   */\n  revert\n    /* \"#utility.yul\":334:460   */\ntag_18:\n    /* \"#utility.yul\":371:378   */\n  0x00\n    /* \"#utility.yul\":411:453   */\n  0xffffffffffffffffffffffffffffffffffffffff\n    /* \"#utility.yul\":404:409   */\n  dup3\n    /* \"#utility.yul\":400:454   */\n  and\n    /* \"#utility.yul\":389:454   */\n  swap1\n  pop\n    /* \"#utility.yul\":334:460   */\n  swap2\n  swap1\n  pop\n  jump\t// out\n    /* \"#utility.yul\":466:562   */\ntag_19:\n    /* \"#utility.yul\":503:510   */\n  0x00\n    /* \"#utility.yul\":532:556   */\n  tag_28\n    /* \"#utility.yul\":550:555   */\n  dup3\n    /* \"#utility.yul\":532:556   */\n  tag_18\n  jump\t// in\ntag_28:\n    /* \"#utility.yul\":521:556   */\n  swap1\n  pop\n    /* \"#utility.yul\":466:562   */\n  swap2\n  swap1\n  pop\n  jump\t// out\n    /* \"#utility.yul\":568:690   */\ntag_20:\n    /* \"#utility.yul\":641:665   */\n  tag_30\n    /* \"#utility.yul\":659:664   */\n  dup2\n    /* \"#utility.yul\":641:665   */\n  tag_19\n  jump\t// in\ntag_30:\n    /* \"#utility.yul\":634:639   */\n  dup2\n    /* \"#utility.yul\":631:666   */\n  eq\n    /* \"#utility.yul\":621:684   */\n  tag_31\n  jumpi\n    /* \"#utility.yul\":680:681   */\n  0x00\n    /* \"#utility.yul\":677:678   */\n  dup1\n    /* \"#utility.yul\":670:682   */\n  revert\n    /* \"#utility.yul\":621:684   */\ntag_31:\n    /* \"#utility.yul\":568:690   */\n  pop\n  jump\t// out\n    /* \"#utility.yul\":696:839   */\ntag_21:\n    /* \"#utility.yul\":753:758   */\n  0x00\n    /* \"#utility.yul\":784:790   */\n  dup2\n    /* \"#utility.yul\":778:791   */\n  mload\n    /* \"#utility.yul\":769:791   */\n  swap1\n  pop\n    /* \"#utility.yul\":800:833   */\n  tag_33\n    /* \"#utility.yul\":827:832   */\n  dup2\n    /* \"#utility.yul\":800:833   */\n  tag_20\n  jump\t// in\ntag_33:\n    /* \"#utility.yul\":696:839   */\n  swap3\n  swap2\n  pop\n  pop\n  jump\t// out\n    /* \"#utility.yul\":845:1196   */\ntag_3:\n    /* \"#utility.yul\":915:921   */\n  0x00\n    /* \"#utility.yul\":964:966   */\n  0x20\n    /* \"#utility.yul\":952:961   */\n  dup3\n    /* \"#utility.yul\":943:950   */\n  dup5\n    /* \"#utility.yul\":939:962   */\n  sub\n    /* \"#utility.yul\":935:967   */\n  slt\n    /* \"#utility.yul\":932:1051   */\n  iszero\n  tag_35\n  jumpi\n    /* \"#utility.yul\":970:1049   */\n  tag_36\n  tag_16\n  jump\t// in\ntag_36:\n    /* \"#utility.yul\":932:1051   */\ntag_35:\n    /* \"#utility.yul\":1090:1091   */\n  0x00\n    /* \"#utility.yul\":1115:1179   */\n  tag_37\n    /* \"#utility.yul\":1171:1178   */\n  dup5\n    /* \"#utility.yul\":1162:1168   */\n  dup3\n    /* \"#utility.yul\":1151:1160   */\n  dup6\n    /* \"#utility.yul\":1147:1169   */\n  add\n    /* \"#utility.yul\":1115:1179   */\n  tag_21\n  jump\t// in\ntag_37:\n    /* \"#utility.yul\":1105:1179   */\n  swap2\n  pop\n    /* \"#utility.yul\":1061:1189   */\n  pop\n    /* \"#utility.yul\":845:1196   */\n  swap3\n  swap2\n  pop\n  pop\n  jump\t// out\n    /* \"contracts/Defly/NFTtesting.sol\":402:8076  contract NFTstaking is Ownable,IERC721Receiver{... */\ntag_12:\n  dataSize(sub_0)\n  dup1\n  dataOffset(sub_0)\n  0x00\n  codecopy\n  0x00\n  return\nstop\n\nsub_0: assembly {\n        /* \"contracts/Defly/NFTtesting.sol\":402:8076  contract NFTstaking is Ownable,IERC721Receiver{... */\n      mstore(0x40, 0x80)\n      callvalue\n      dup1\n      iszero\n      tag_1\n      jumpi\n      0x00\n      dup1\n      revert\n    tag_1:\n      pop\n      jumpi(tag_2, lt(calldatasize, 0x04))\n      shr(0xe0, calldataload(0x00))\n      dup1\n      0xa6021ace\n      gt\n      tag_21\n      jumpi\n      dup1\n      0xc0cd40ee\n      gt\n      tag_22\n      jumpi\n      dup1\n      0xc0cd40ee\n      eq\n      tag_16\n      jumpi\n      dup1\n      0xc1876b67\n      eq\n      tag_17\n      jumpi\n      dup1\n      0xd9dcb60a\n      eq\n      tag_18\n      jumpi\n      dup1\n      0xf2fde38b\n      eq\n      tag_19\n      jumpi\n      dup1\n      0xf7d252f4\n      eq\n      tag_20\n      jumpi\n      jump(tag_2)\n    tag_22:\n      dup1\n      0xa6021ace\n      eq\n      tag_12\n      jumpi\n      dup1\n      0xb10558ab\n      eq\n      tag_13\n      jumpi\n      dup1\n      0xb460af94\n      eq\n      tag_14\n      jumpi\n      dup1\n      0xb7171a2e\n      eq\n      tag_15\n      jumpi\n      jump(tag_2)\n    tag_21:\n      dup1\n      0x4930e5d1\n      gt\n      tag_23\n      jumpi\n      dup1\n      0x4930e5d1\n      eq\n      tag_7\n      jumpi\n      dup1\n      0x715018a6\n      eq\n      tag_8\n      jumpi\n      dup1\n      0x7628c720\n      eq\n      tag_9\n      jumpi\n      dup1\n      0x84715b11\n      eq\n      tag_10\n      jumpi\n      dup1\n      0x8da5cb5b\n      eq\n      tag_11\n      jumpi\n      jump(tag_2)\n    tag_23:\n      dup1\n      0x09e3e410\n      eq\n      tag_3\n      jumpi\n      dup1\n      0x150b7a02\n      eq\n      tag_4\n      jumpi\n      dup1\n      0x3f431230\n      eq\n      tag_5\n      jumpi\n      dup1\n      0x41fcd29a\n      eq\n      tag_6\n      jumpi\n    tag_2:\n      0x00\n      dup1\n      revert\n        /* \"contracts/Defly/NFTtesting.sol\":1270:1333  mapping (address => mapping(uint => ERCCount)) public ERCDetail */\n    tag_3:\n      tag_24\n      0x04\n      dup1\n      calldatasize\n      sub\n      dup2\n      add\n      swap1\n      tag_25\n      swap2\n      swap1\n      tag_26\n      jump\t// in\n    tag_25:\n      tag_27\n      jump\t// in\n    tag_24:\n      mload(0x40)\n      tag_28\n      swap3\n      swap2\n      swap1\n      tag_29\n      jump\t// in\n    tag_28:\n      mload(0x40)\n      dup1\n      swap2\n      sub\n      swap1\n      return\n        /* \"contracts/Defly/NFTtesting.sol\":7903:8074  function onERC721Received(address,address,uint256,bytes calldata) external pure override returns (bytes4) {... */\n    tag_4:\n      tag_30\n      0x04\n      dup1\n      calldatasize\n      sub\n      dup2\n      add\n      swap1\n      tag_31\n      swap2\n      swap1\n      tag_32\n      jump\t// in\n    tag_31:\n      tag_33\n      jump\t// in\n    tag_30:\n      mload(0x40)\n      tag_34\n      swap2\n      swap1\n      tag_35\n      jump\t// in\n    tag_34:\n      mload(0x40)\n      dup1\n      swap2\n      sub\n      swap1\n      return\n        /* \"contracts/Defly/NFTtesting.sol\":528:561  Counters.Counter public category1 */\n    tag_5:\n      tag_36\n      tag_37\n      jump\t// in\n    tag_36:\n      mload(0x40)\n      tag_38\n      swap2\n      swap1\n      tag_39\n      jump\t// in\n    tag_38:\n      mload(0x40)\n      dup1\n      swap2\n      sub\n      swap1\n      return\n        /* \"contracts/Defly/NFTtesting.sol\":645:678  Counters.Counter public category4 */\n    tag_6:\n      tag_40\n      tag_41\n      jump\t// in\n    tag_40:\n      mload(0x40)\n      tag_42\n      swap2\n      swap1\n      tag_39\n      jump\t// in\n    tag_42:\n      mload(0x40)\n      dup1\n      swap2\n      sub\n      swap1\n      return\n        /* \"contracts/Defly/NFTtesting.sol\":751:784  uint256 public TotalRemaningToken */\n    tag_7:\n      tag_43\n      tag_44\n      jump\t// in\n    tag_43:\n      mload(0x40)\n      tag_45\n      swap2\n      swap1\n      tag_39\n      jump\t// in\n    tag_45:\n      mload(0x40)\n      dup1\n      swap2\n      sub\n      swap1\n      return\n        /* \"@openzeppelin/contracts/access/Ownable.sol\":1831:1932  function renounceOwnership() public virtual onlyOwner {... */\n    tag_8:\n      tag_46\n      tag_47\n      jump\t// in\n    tag_46:\n      stop\n        /* \"contracts/Defly/NFTtesting.sol\":1400:1445  mapping (address => uint) public countDeposit */\n    tag_9:\n      tag_48\n      0x04\n      dup1\n      calldatasize\n      sub\n      dup2\n      add\n      swap1\n      tag_49\n      swap2\n      swap1\n      tag_50\n      jump\t// in\n    tag_49:\n      tag_51\n      jump\t// in\n    tag_48:\n      mload(0x40)\n      tag_52\n      swap2\n      swap1\n      tag_39\n      jump\t// in\n    tag_52:\n      mload(0x40)\n      dup1\n      swap2\n      sub\n      swap1\n      return\n        /* \"contracts/Defly/NFTtesting.sol\":1976:5550  function deposit(uint TokenId,uint Days,address _to,address _mintAddress) public {... */\n    tag_10:\n      tag_53\n      0x04\n      dup1\n      calldatasize\n      sub\n      dup2\n      add\n      swap1\n      tag_54\n      swap2\n      swap1\n      tag_55\n      jump\t// in\n    tag_54:\n      tag_56\n      jump\t// in\n    tag_53:\n      stop\n        /* \"@openzeppelin/contracts/access/Ownable.sol\":1201:1286  function owner() public view virtual returns (address) {... */\n    tag_11:\n      tag_57\n      tag_58\n      jump\t// in\n    tag_57:\n      mload(0x40)\n      tag_59\n      swap2\n      swap1\n      tag_60\n      jump\t// in\n    tag_59:\n      mload(0x40)\n      dup1\n      swap2\n      sub\n      swap1\n      return\n        /* \"contracts/Defly/NFTtesting.sol\":718:745  address public ERC20Address */\n    tag_12:\n      tag_61\n      tag_62\n      jump\t// in\n    tag_61:\n      mload(0x40)\n      tag_63\n      swap2\n      swap1\n      tag_60\n      jump\t// in\n    tag_63:\n      mload(0x40)\n      dup1\n      swap2\n      sub\n      swap1\n      return\n        /* \"contracts/Defly/NFTtesting.sol\":567:600  Counters.Counter public category2 */\n    tag_13:\n      tag_64\n      tag_65\n      jump\t// in\n    tag_64:\n      mload(0x40)\n      tag_66\n      swap2\n      swap1\n      tag_39\n      jump\t// in\n    tag_66:\n      mload(0x40)\n      dup1\n      swap2\n      sub\n      swap1\n      return\n        /* \"contracts/Defly/NFTtesting.sol\":5737:7462  function withdraw (uint TokenId,address _to,address _mintAddress) public {... */\n    tag_14:\n      tag_67\n      0x04\n      dup1\n      calldatasize\n      sub\n      dup2\n      add\n      swap1\n      tag_68\n      swap2\n      swap1\n      tag_69\n      jump\t// in\n    tag_68:\n      tag_70\n      jump\t// in\n    tag_67:\n      stop\n        /* \"contracts/Defly/NFTtesting.sol\":684:712  address public ERC721address */\n    tag_15:\n      tag_71\n      tag_72\n      jump\t// in\n    tag_71:\n      mload(0x40)\n      tag_73\n      swap2\n      swap1\n      tag_60\n      jump\t// in\n    tag_73:\n      mload(0x40)\n      dup1\n      swap2\n      sub\n      swap1\n      return\n        /* \"contracts/Defly/NFTtesting.sol\":7719:7898  function AdminAddToken(uint Amount) public onlyOwner{... */\n    tag_16:\n      tag_74\n      0x04\n      dup1\n      calldatasize\n      sub\n      dup2\n      add\n      swap1\n      tag_75\n      swap2\n      swap1\n      tag_76\n      jump\t// in\n    tag_75:\n      tag_77\n      jump\t// in\n    tag_74:\n      stop\n        /* \"contracts/Defly/NFTtesting.sol\":1092:1170  mapping (address => mapping(address => mapping(uint => Detail))) public Staker */\n    tag_17:\n      tag_78\n      0x04\n      dup1\n      calldatasize\n      sub\n      dup2\n      add\n      swap1\n      tag_79\n      swap2\n      swap1\n      tag_80\n      jump\t// in\n    tag_79:\n      tag_81\n      jump\t// in\n    tag_78:\n      mload(0x40)\n      tag_82\n      swap8\n      swap7\n      swap6\n      swap5\n      swap4\n      swap3\n      swap2\n      swap1\n      tag_83\n      jump\t// in\n    tag_82:\n      mload(0x40)\n      dup1\n      swap2\n      sub\n      swap1\n      return\n        /* \"contracts/Defly/NFTtesting.sol\":1339:1394  mapping (address => mapping(uint => uint)) public Count */\n    tag_18:\n      tag_84\n      0x04\n      dup1\n      calldatasize\n      sub\n      dup2\n      add\n      swap1\n      tag_85\n      swap2\n      swap1\n      tag_26\n      jump\t// in\n    tag_85:\n      tag_86\n      jump\t// in\n    tag_84:\n      mload(0x40)\n      tag_87\n      swap2\n      swap1\n      tag_39\n      jump\t// in\n    tag_87:\n      mload(0x40)\n      dup1\n      swap2\n      sub\n      swap1\n      return\n        /* \"@openzeppelin/contracts/access/Ownable.sol\":2081:2279  function transferOwnership(address newOwner) public virtual onlyOwner {... */\n    tag_19:\n      tag_88\n      0x04\n      dup1\n      calldatasize\n      sub\n      dup2\n      add\n      swap1\n      tag_89\n      swap2\n      swap1\n      tag_50\n      jump\t// in\n    tag_89:\n      tag_90\n      jump\t// in\n    tag_88:\n      stop\n        /* \"contracts/Defly/NFTtesting.sol\":606:639  Counters.Counter public category3 */\n    tag_20:\n      tag_91\n      tag_92\n      jump\t// in\n    tag_91:\n      mload(0x40)\n      tag_93\n      swap2\n      swap1\n      tag_39\n      jump\t// in\n    tag_93:\n      mload(0x40)\n      dup1\n      swap2\n      sub\n      swap1\n      return\n        /* \"contracts/Defly/NFTtesting.sol\":1270:1333  mapping (address => mapping(uint => ERCCount)) public ERCDetail */\n    tag_27:\n      mstore(0x20, 0x0a)\n      dup2\n      0x00\n      mstore\n      mstore(0x20, keccak256(0x00, 0x40))\n      dup1\n      0x00\n      mstore\n      keccak256(0x00, 0x40)\n      0x00\n      swap2\n      pop\n      swap2\n      pop\n      pop\n      dup1\n      0x00\n      add\n      sload\n      swap1\n      dup1\n      0x01\n      add\n      0x00\n      swap1\n      sload\n      swap1\n      0x0100\n      exp\n      swap1\n      div\n      0xffffffffffffffffffffffffffffffffffffffff\n      and\n      swap1\n      pop\n      dup3\n      jump\t// out\n        /* \"contracts/Defly/NFTtesting.sol\":7903:8074  function onERC721Received(address,address,uint256,bytes calldata) external pure override returns (bytes4) {... */\n    tag_33:\n        /* \"contracts/Defly/NFTtesting.sol\":8001:8007  bytes4 */\n      0x00\n        /* \"contracts/Defly/NFTtesting.sol\":8026:8067  IERC721Receiver.onERC721Received.selector */\n      shl(0xe0, 0x150b7a02)\n        /* \"contracts/Defly/NFTtesting.sol\":8019:8067  return IERC721Receiver.onERC721Received.selector */\n      swap1\n      pop\n        /* \"contracts/Defly/NFTtesting.sol\":7903:8074  function onERC721Received(address,address,uint256,bytes calldata) external pure override returns (bytes4) {... */\n      swap6\n      swap5\n      pop\n      pop\n      pop\n      pop\n      pop\n      jump\t// out\n        /* \"contracts/Defly/NFTtesting.sol\":528:561  Counters.Counter public category1 */\n    tag_37:\n      0x01\n      dup1\n      0x00\n      add\n      sload\n      swap1\n      pop\n      dup2\n      jump\t// out\n        /* \"contracts/Defly/NFTtesting.sol\":645:678  Counters.Counter public category4 */\n    tag_41:\n      0x04\n      dup1\n      0x00\n      add\n      sload\n      swap1\n      pop\n      dup2\n      jump\t// out\n        /* \"contracts/Defly/NFTtesting.sol\":751:784  uint256 public TotalRemaningToken */\n    tag_44:\n      sload(0x07)\n      dup2\n      jump\t// out\n        /* \"@openzeppelin/contracts/access/Ownable.sol\":1831:1932  function renounceOwnership() public virtual onlyOwner {... */\n    tag_47:\n        /* \"@openzeppelin/contracts/access/Ownable.sol\":1094:1107  _checkOwner() */\n      tag_96\n        /* \"@openzeppelin/contracts/access/Ownable.sol\":1094:1105  _checkOwner */\n      tag_97\n        /* \"@openzeppelin/contracts/access/Ownable.sol\":1094:1107  _checkOwner() */\n      jump\t// in\n    tag_96:\n        /* \"@openzeppelin/contracts/access/Ownable.sol\":1895:1925  _transferOwnership(address(0)) */\n      tag_99\n        /* \"@openzeppelin/contracts/access/Ownable.sol\":1922:1923  0 */\n      0x00\n        /* \"@openzeppelin/contracts/access/Ownable.sol\":1895:1913  _transferOwnership */\n      tag_100\n        /* \"@openzeppelin/contracts/access/Ownable.sol\":1895:1925  _transferOwnership(address(0)) */\n      jump\t// in\n    tag_99:\n        /* \"@openzeppelin/contracts/access/Ownable.sol\":1831:1932  function renounceOwnership() public virtual onlyOwner {... */\n      jump\t// out\n        /* \"contracts/Defly/NFTtesting.sol\":1400:1445  mapping (address => uint) public countDeposit */\n    tag_51:\n      mstore(0x20, 0x0c)\n      dup1\n      0x00\n      mstore\n      keccak256(0x00, 0x40)\n      0x00\n      swap2\n      pop\n      swap1\n      pop\n      sload\n      dup2\n      jump\t// out\n        /* \"contracts/Defly/NFTtesting.sol\":1976:5550  function deposit(uint TokenId,uint Days,address _to,address _mintAddress) public {... */\n    tag_56:\n        /* \"contracts/Defly/NFTtesting.sol\":2077:2083  Staker */\n      0x09\n        /* \"contracts/Defly/NFTtesting.sol\":2077:2088  Staker[_to] */\n      0x00\n        /* \"contracts/Defly/NFTtesting.sol\":2084:2087  _to */\n      dup4\n        /* \"contracts/Defly/NFTtesting.sol\":2077:2088  Staker[_to] */\n      0xffffffffffffffffffffffffffffffffffffffff\n      and\n      0xffffffffffffffffffffffffffffffffffffffff\n      and\n      dup2\n      mstore\n      0x20\n      add\n      swap1\n      dup2\n      mstore\n      0x20\n      add\n      0x00\n      keccak256\n        /* \"contracts/Defly/NFTtesting.sol\":2077:2102  Staker[_to][_mintAddress] */\n      0x00\n        /* \"contracts/Defly/NFTtesting.sol\":2089:2101  _mintAddress */\n      dup3\n        /* \"contracts/Defly/NFTtesting.sol\":2077:2102  Staker[_to][_mintAddress] */\n      0xffffffffffffffffffffffffffffffffffffffff\n      and\n      0xffffffffffffffffffffffffffffffffffffffff\n      and\n      dup2\n      mstore\n      0x20\n      add\n      swap1\n      dup2\n      mstore\n      0x20\n      add\n      0x00\n      keccak256\n        /* \"contracts/Defly/NFTtesting.sol\":2077:2111  Staker[_to][_mintAddress][TokenId] */\n      0x00\n        /* \"contracts/Defly/NFTtesting.sol\":2103:2110  TokenId */\n      dup6\n        /* \"contracts/Defly/NFTtesting.sol\":2077:2111  Staker[_to][_mintAddress][TokenId] */\n      dup2\n      mstore\n      0x20\n      add\n      swap1\n      dup2\n      mstore\n      0x20\n      add\n      0x00\n      keccak256\n        /* \"contracts/Defly/NFTtesting.sol\":2077:2124  Staker[_to][_mintAddress][TokenId].DepositToken */\n      0x06\n      add\n      0x00\n      swap1\n      sload\n      swap1\n      0x0100\n      exp\n      swap1\n      div\n      0xff\n      and\n        /* \"contracts/Defly/NFTtesting.sol\":2076:2124  !Staker[_to][_mintAddress][TokenId].DepositToken */\n      iszero\n        /* \"contracts/Defly/NFTtesting.sol\":2067:2151  require (!Staker[_to][_mintAddress][TokenId].DepositToken,\"You Already Deposit NFT\") */\n      tag_102\n      jumpi\n      mload(0x40)\n      0x08c379a000000000000000000000000000000000000000000000000000000000\n      dup2\n      mstore\n      0x04\n      add\n      tag_103\n      swap1\n      tag_104\n      jump\t// in\n    tag_103:\n      mload(0x40)\n      dup1\n      swap2\n      sub\n      swap1\n      revert\n    tag_102:\n        /* \"contracts/Defly/NFTtesting.sol\":2172:2174  15 */\n      0x0f\n        /* \"contracts/Defly/NFTtesting.sol\":2164:2168  Days */\n      dup4\n        /* \"contracts/Defly/NFTtesting.sol\":2164:2174  Days == 15 */\n      sub\n        /* \"contracts/Defly/NFTtesting.sol\":2161:5540  if(Days == 15){... */\n      tag_105\n      jumpi\n        /* \"contracts/Defly/NFTtesting.sol\":2189:2210  category1.increment() */\n      tag_106\n        /* \"contracts/Defly/NFTtesting.sol\":2189:2198  category1 */\n      0x01\n        /* \"contracts/Defly/NFTtesting.sol\":2189:2208  category1.increment */\n      tag_107\n        /* \"contracts/Defly/NFTtesting.sol\":2189:2210  category1.increment() */\n      jump\t// in\n    tag_106:\n        /* \"contracts/Defly/NFTtesting.sol\":2254:2258  1000 */\n      0x03e8\n        /* \"contracts/Defly/NFTtesting.sol\":2232:2251  category1.current() */\n      tag_108\n        /* \"contracts/Defly/NFTtesting.sol\":2232:2241  category1 */\n      0x01\n        /* \"contracts/Defly/NFTtesting.sol\":2232:2249  category1.current */\n      tag_109\n        /* \"contracts/Defly/NFTtesting.sol\":2232:2251  category1.current() */\n      jump\t// in\n    tag_108:\n        /* \"contracts/Defly/NFTtesting.sol\":2232:2258  category1.current() <=1000 */\n      gt\n      iszero\n        /* \"contracts/Defly/NFTtesting.sol\":2224:2290  require(category1.current() <=1000,\"15 Days Category is Full !!!\") */\n      tag_110\n      jumpi\n      mload(0x40)\n      0x08c379a000000000000000000000000000000000000000000000000000000000\n      dup2\n      mstore\n      0x04\n      add\n      tag_111\n      swap1\n      tag_112\n      jump\t// in\n    tag_111:\n      mload(0x40)\n      dup1\n      swap2\n      sub\n      swap1\n      revert\n    tag_110:\n        /* \"contracts/Defly/NFTtesting.sol\":2349:2350  0 */\n      0x00\n        /* \"contracts/Defly/NFTtesting.sol\":2307:2313  Staker */\n      0x09\n        /* \"contracts/Defly/NFTtesting.sol\":2307:2318  Staker[_to] */\n      0x00\n        /* \"contracts/Defly/NFTtesting.sol\":2314:2317  _to */\n      dup5\n        /* \"contracts/Defly/NFTtesting.sol\":2307:2318  Staker[_to] */\n      0xffffffffffffffffffffffffffffffffffffffff\n      and\n      0xffffffffffffffffffffffffffffffffffffffff\n      and\n      dup2\n      mstore\n      0x20\n      add\n      swap1\n      dup2\n      mstore\n      0x20\n      add\n      0x00\n      keccak256\n        /* \"contracts/Defly/NFTtesting.sol\":2307:2332  Staker[_to][_mintAddress] */\n      0x00\n        /* \"contracts/Defly/NFTtesting.sol\":2319:2331  _mintAddress */\n      dup4\n        /* \"contracts/Defly/NFTtesting.sol\":2307:2332  Staker[_to][_mintAddress] */\n      0xffffffffffffffffffffffffffffffffffffffff\n      and\n      0xffffffffffffffffffffffffffffffffffffffff\n      and\n      dup2\n      mstore\n      0x20\n      add\n      swap1\n      dup2\n      mstore\n      0x20\n      add\n      0x00\n      keccak256\n        /* \"contracts/Defly/NFTtesting.sol\":2307:2341  Staker[_to][_mintAddress][TokenId] */\n      0x00\n        /* \"contracts/Defly/NFTtesting.sol\":2333:2340  TokenId */\n      dup7\n        /* \"contracts/Defly/NFTtesting.sol\":2307:2341  Staker[_to][_mintAddress][TokenId] */\n      dup2\n      mstore\n      0x20\n      add\n      swap1\n      dup2\n      mstore\n      0x20\n      add\n      0x00\n      keccak256\n        /* \"contracts/Defly/NFTtesting.sol\":2307:2345  Staker[_to][_mintAddress][TokenId].NFT */\n      0x04\n      add\n      sload\n        /* \"contracts/Defly/NFTtesting.sol\":2307:2350  Staker[_to][_mintAddress][TokenId].NFT == 0 */\n      sub\n        /* \"contracts/Defly/NFTtesting.sol\":2304:2884  if(Staker[_to][_mintAddress][TokenId].NFT == 0 ){... */\n      tag_113\n      jumpi\n        /* \"contracts/Defly/NFTtesting.sol\":2407:2494  Detail(_mintAddress,(5000*_amount),Days,block.timestamp,TokenId,countDeposit[_to],true) */\n      mload(0x40)\n      dup1\n      0xe0\n      add\n      0x40\n      mstore\n      dup1\n        /* \"contracts/Defly/NFTtesting.sol\":2414:2426  _mintAddress */\n      dup3\n        /* \"contracts/Defly/NFTtesting.sol\":2407:2494  Detail(_mintAddress,(5000*_amount),Days,block.timestamp,TokenId,countDeposit[_to],true) */\n      0xffffffffffffffffffffffffffffffffffffffff\n      and\n      dup2\n      mstore\n      0x20\n      add\n        /* \"contracts/Defly/NFTtesting.sol\":2433:2440  _amount */\n      sload(0x08)\n        /* \"contracts/Defly/NFTtesting.sol\":2428:2432  5000 */\n      0x1388\n        /* \"contracts/Defly/NFTtesting.sol\":2428:2440  5000*_amount */\n      tag_114\n      swap2\n      swap1\n      tag_115\n      jump\t// in\n    tag_114:\n        /* \"contracts/Defly/NFTtesting.sol\":2407:2494  Detail(_mintAddress,(5000*_amount),Days,block.timestamp,TokenId,countDeposit[_to],true) */\n      dup2\n      mstore\n      0x20\n      add\n        /* \"contracts/Defly/NFTtesting.sol\":2442:2446  Days */\n      dup5\n        /* \"contracts/Defly/NFTtesting.sol\":2407:2494  Detail(_mintAddress,(5000*_amount),Days,block.timestamp,TokenId,countDeposit[_to],true) */\n      dup2\n      mstore\n      0x20\n      add\n        /* \"contracts/Defly/NFTtesting.sol\":2447:2462  block.timestamp */\n      timestamp\n        /* \"contracts/Defly/NFTtesting.sol\":2407:2494  Detail(_mintAddress,(5000*_amount),Days,block.timestamp,TokenId,countDeposit[_to],true) */\n      dup2\n      mstore\n      0x20\n      add\n        /* \"contracts/Defly/NFTtesting.sol\":2463:2470  TokenId */\n      dup6\n        /* \"contracts/Defly/NFTtesting.sol\":2407:2494  Detail(_mintAddress,(5000*_amount),Days,block.timestamp,TokenId,countDeposit[_to],true) */\n      dup2\n      mstore\n      0x20\n      add\n        /* \"contracts/Defly/NFTtesting.sol\":2471:2483  countDeposit */\n      0x0c\n        /* \"contracts/Defly/NFTtesting.sol\":2471:2488  countDeposit[_to] */\n      0x00\n        /* \"contracts/Defly/NFTtesting.sol\":2484:2487  _to */\n      dup6\n        /* \"contracts/Defly/NFTtesting.sol\":2471:2488  countDeposit[_to] */\n      0xffffffffffffffffffffffffffffffffffffffff\n      and\n      0xffffffffffffffffffffffffffffffffffffffff\n      and\n      dup2\n      mstore\n      0x20\n      add\n      swap1\n      dup2\n      mstore\n      0x20\n      add\n      0x00\n      keccak256\n      sload\n        /* \"contracts/Defly/NFTtesting.sol\":2407:2494  Detail(_mintAddress,(5000*_amount),Days,block.timestamp,TokenId,countDeposit[_to],true) */\n      dup2\n      mstore\n      0x20\n      add\n        /* \"contracts/Defly/NFTtesting.sol\":2489:2493  true */\n      0x01\n        /* \"contracts/Defly/NFTtesting.sol\":2407:2494  Detail(_mintAddress,(5000*_amount),Days,block.timestamp,TokenId,countDeposit[_to],true) */\n      iszero\n      iszero\n      dup2\n      mstore\n      pop\n        /* \"contracts/Defly/NFTtesting.sol\":2370:2376  Staker */\n      0x09\n        /* \"contracts/Defly/NFTtesting.sol\":2370:2381  Staker[_to] */\n      0x00\n        /* \"contracts/Defly/NFTtesting.sol\":2377:2380  _to */\n      dup5\n        /* \"contracts/Defly/NFTtesting.sol\":2370:2381  Staker[_to] */\n      0xffffffffffffffffffffffffffffffffffffffff\n      and\n      0xffffffffffffffffffffffffffffffffffffffff\n      and\n      dup2\n      mstore\n      0x20\n      add\n      swap1\n      dup2\n      mstore\n      0x20\n      add\n      0x00\n      keccak256\n        /* \"contracts/Defly/NFTtesting.sol\":2370:2395  Staker[_to][_mintAddress] */\n      0x00\n        /* \"contracts/Defly/NFTtesting.sol\":2382:2394  _mintAddress */\n      dup4\n        /* \"contracts/Defly/NFTtesting.sol\":2370:2395  Staker[_to][_mintAddress] */\n      0xffffffffffffffffffffffffffffffffffffffff\n      and\n      0xffffffffffffffffffffffffffffffffffffffff\n      and\n      dup2\n      mstore\n      0x20\n      add\n      swap1\n      dup2\n      mstore\n      0x20\n      add\n      0x00\n      keccak256\n        /* \"contracts/Defly/NFTtesting.sol\":2370:2404  Staker[_to][_mintAddress][TokenId] */\n      0x00\n        /* \"contracts/Defly/NFTtesting.sol\":2396:2403  TokenId */\n      dup7\n        /* \"contracts/Defly/NFTtesting.sol\":2370:2404  Staker[_to][_mintAddress][TokenId] */\n      dup2\n      mstore\n      0x20\n      add\n      swap1\n      dup2\n      mstore\n      0x20\n      add\n      0x00\n      keccak256\n        /* \"contracts/Defly/NFTtesting.sol\":2370:2494  Staker[_to][_mintAddress][TokenId] = Detail(_mintAddress,(5000*_amount),Days,block.timestamp,TokenId,countDeposit[_to],true) */\n      0x00\n      dup3\n      add\n      mload\n      dup2\n      0x00\n      add\n      exp(0x0100, 0x00)\n      dup2\n      sload\n      dup2\n      0xffffffffffffffffffffffffffffffffffffffff\n      mul\n      not\n      and\n      swap1\n      dup4\n      0xffffffffffffffffffffffffffffffffffffffff\n      and\n      mul\n      or\n      swap1\n      sstore\n      pop\n      0x20\n      dup3\n      add\n      mload\n      dup2\n      0x01\n      add\n      sstore\n      0x40\n      dup3\n      add\n      mload\n      dup2\n      0x02\n      add\n      sstore\n      0x60\n      dup3\n      add\n      mload\n      dup2\n      0x03\n      add\n      sstore\n      0x80\n      dup3\n      add\n      mload\n      dup2\n      0x04\n      add\n      sstore\n      0xa0\n      dup3\n      add\n      mload\n      dup2\n      0x05\n      add\n      sstore\n      0xc0\n      dup3\n      add\n      mload\n      dup2\n      0x06\n      add\n      exp(0x0100, 0x00)\n      dup2\n      sload\n      dup2\n      0xff\n      mul\n      not\n      and\n      swap1\n      dup4\n      iszero\n      iszero\n      mul\n      or\n      swap1\n      sstore\n      pop\n      swap1\n      pop\n      pop\n        /* \"contracts/Defly/NFTtesting.sol\":2548:2578  ERCCount(TokenId,_mintAddress) */\n      mload(0x40)\n      dup1\n      0x40\n      add\n      0x40\n      mstore\n      dup1\n        /* \"contracts/Defly/NFTtesting.sol\":2557:2564  TokenId */\n      dup6\n        /* \"contracts/Defly/NFTtesting.sol\":2548:2578  ERCCount(TokenId,_mintAddress) */\n      dup2\n      mstore\n      0x20\n      add\n        /* \"contracts/Defly/NFTtesting.sol\":2565:2577  _mintAddress */\n      dup3\n        /* \"contracts/Defly/NFTtesting.sol\":2548:2578  ERCCount(TokenId,_mintAddress) */\n      0xffffffffffffffffffffffffffffffffffffffff\n      and\n      dup2\n      mstore\n      pop\n        /* \"contracts/Defly/NFTtesting.sol\":2512:2521  ERCDetail */\n      0x0a\n        /* \"contracts/Defly/NFTtesting.sol\":2512:2526  ERCDetail[_to] */\n      0x00\n        /* \"contracts/Defly/NFTtesting.sol\":2522:2525  _to */\n      dup5\n        /* \"contracts/Defly/NFTtesting.sol\":2512:2526  ERCDetail[_to] */\n      0xffffffffffffffffffffffffffffffffffffffff\n      and\n      0xffffffffffffffffffffffffffffffffffffffff\n      and\n      dup2\n      mstore\n      0x20\n      add\n      swap1\n      dup2\n      mstore\n      0x20\n      add\n      0x00\n      keccak256\n        /* \"contracts/Defly/NFTtesting.sol\":2512:2545  ERCDetail[_to][countDeposit[_to]] */\n      0x00\n        /* \"contracts/Defly/NFTtesting.sol\":2527:2539  countDeposit */\n      0x0c\n        /* \"contracts/Defly/NFTtesting.sol\":2527:2544  countDeposit[_to] */\n      0x00\n        /* \"contracts/Defly/NFTtesting.sol\":2540:2543  _to */\n      dup7\n        /* \"contracts/Defly/NFTtesting.sol\":2527:2544  countDeposit[_to] */\n      0xffffffffffffffffffffffffffffffffffffffff\n      and\n      0xffffffffffffffffffffffffffffffffffffffff\n      and\n      dup2\n      mstore\n      0x20\n      add\n      swap1\n      dup2\n      mstore\n      0x20\n      add\n      0x00\n      keccak256\n      sload\n        /* \"contracts/Defly/NFTtesting.sol\":2512:2545  ERCDetail[_to][countDeposit[_to]] */\n      dup2\n      mstore\n      0x20\n      add\n      swap1\n      dup2\n      mstore\n      0x20\n      add\n      0x00\n      keccak256\n        /* \"contracts/Defly/NFTtesting.sol\":2512:2578  ERCDetail[_to][countDeposit[_to]] = ERCCount(TokenId,_mintAddress) */\n      0x00\n      dup3\n      add\n      mload\n      dup2\n      0x00\n      add\n      sstore\n      0x20\n      dup3\n      add\n      mload\n      dup2\n      0x01\n      add\n      exp(0x0100, 0x00)\n      dup2\n      sload\n      dup2\n      0xffffffffffffffffffffffffffffffffffffffff\n      mul\n      not\n      and\n      swap1\n      dup4\n      0xffffffffffffffffffffffffffffffffffffffff\n      and\n      mul\n      or\n      swap1\n      sstore\n      pop\n      swap1\n      pop\n      pop\n        /* \"contracts/Defly/NFTtesting.sol\":2627:2639  countDeposit */\n      0x0c\n        /* \"contracts/Defly/NFTtesting.sol\":2627:2644  countDeposit[_to] */\n      0x00\n        /* \"contracts/Defly/NFTtesting.sol\":2640:2643  _to */\n      dup4\n        /* \"contracts/Defly/NFTtesting.sol\":2627:2644  countDeposit[_to] */\n      0xffffffffffffffffffffffffffffffffffffffff\n      and\n      0xffffffffffffffffffffffffffffffffffffffff\n      and\n      dup2\n      mstore\n      0x20\n      add\n      swap1\n      dup2\n      mstore\n      0x20\n      add\n      0x00\n      keccak256\n      sload\n        /* \"contracts/Defly/NFTtesting.sol\":2596:2601  Count */\n      0x0b\n        /* \"contracts/Defly/NFTtesting.sol\":2596:2615  Count[_mintAddress] */\n      0x00\n        /* \"contracts/Defly/NFTtesting.sol\":2602:2614  _mintAddress */\n      dup4\n        /* \"contracts/Defly/NFTtesting.sol\":2596:2615  Count[_mintAddress] */\n      0xffffffffffffffffffffffffffffffffffffffff\n      and\n      0xffffffffffffffffffffffffffffffffffffffff\n      and\n      dup2\n      mstore\n      0x20\n      add\n      swap1\n      dup2\n      mstore\n      0x20\n      add\n      0x00\n      keccak256\n        /* \"contracts/Defly/NFTtesting.sol\":2596:2624  Count[_mintAddress][TokenId] */\n      0x00\n        /* \"contracts/Defly/NFTtesting.sol\":2616:2623  TokenId */\n      dup7\n        /* \"contracts/Defly/NFTtesting.sol\":2596:2624  Count[_mintAddress][TokenId] */\n      dup2\n      mstore\n      0x20\n      add\n      swap1\n      dup2\n      mstore\n      0x20\n      add\n      0x00\n      keccak256\n        /* \"contracts/Defly/NFTtesting.sol\":2596:2644  Count[_mintAddress][TokenId] = countDeposit[_to] */\n      dup2\n      swap1\n      sstore\n      pop\n        /* \"contracts/Defly/NFTtesting.sol\":2684:2685  1 */\n      0x01\n        /* \"contracts/Defly/NFTtesting.sol\":2663:2675  countDeposit */\n      0x0c\n        /* \"contracts/Defly/NFTtesting.sol\":2663:2680  countDeposit[_to] */\n      0x00\n        /* \"contracts/Defly/NFTtesting.sol\":2676:2679  _to */\n      dup5\n        /* \"contracts/Defly/NFTtesting.sol\":2663:2680  countDeposit[_to] */\n      0xffffffffffffffffffffffffffffffffffffffff\n      and\n      0xffffffffffffffffffffffffffffffffffffffff\n      and\n      dup2\n      mstore\n      0x20\n      add\n      swap1\n      dup2\n      mstore\n      0x20\n      add\n      0x00\n      keccak256\n      0x00\n        /* \"contracts/Defly/NFTtesting.sol\":2663:2685  countDeposit[_to] += 1 */\n      dup3\n      dup3\n      sload\n      tag_116\n      swap2\n      swap1\n      tag_117\n      jump\t// in\n    tag_116:\n      swap3\n      pop\n      pop\n      dup2\n      swap1\n      sstore\n      pop\n        /* \"contracts/Defly/NFTtesting.sol\":2304:2884  if(Staker[_to][_mintAddress][TokenId].NFT == 0 ){... */\n      jump(tag_118)\n    tag_113:\n        /* \"contracts/Defly/NFTtesting.sol\":2759:2869  Detail(_mintAddress,(5000*_amount),Days,block.timestamp,TokenId,Staker[_to][_mintAddress][TokenId].count,true) */\n      mload(0x40)\n      dup1\n      0xe0\n      add\n      0x40\n      mstore\n      dup1\n        /* \"contracts/Defly/NFTtesting.sol\":2766:2778  _mintAddress */\n      dup3\n        /* \"contracts/Defly/NFTtesting.sol\":2759:2869  Detail(_mintAddress,(5000*_amount),Days,block.timestamp,TokenId,Staker[_to][_mintAddress][TokenId].count,true) */\n      0xffffffffffffffffffffffffffffffffffffffff\n      and\n      dup2\n      mstore\n      0x20\n      add\n        /* \"contracts/Defly/NFTtesting.sol\":2785:2792  _amount */\n      sload(0x08)\n        /* \"contracts/Defly/NFTtesting.sol\":2780:2784  5000 */\n      0x1388\n        /* \"contracts/Defly/NFTtesting.sol\":2780:2792  5000*_amount */\n      tag_119\n      swap2\n      swap1\n      tag_115\n      jump\t// in\n    tag_119:\n        /* \"contracts/Defly/NFTtesting.sol\":2759:2869  Detail(_mintAddress,(5000*_amount),Days,block.timestamp,TokenId,Staker[_to][_mintAddress][TokenId].count,true) */\n      dup2\n      mstore\n      0x20\n      add\n        /* \"contracts/Defly/NFTtesting.sol\":2794:2798  Days */\n      dup5\n        /* \"contracts/Defly/NFTtesting.sol\":2759:2869  Detail(_mintAddress,(5000*_amount),Days,block.timestamp,TokenId,Staker[_to][_mintAddress][TokenId].count,true) */\n      dup2\n      mstore\n      0x20\n      add\n        /* \"contracts/Defly/NFTtesting.sol\":2799:2814  block.timestamp */\n      timestamp\n        /* \"contracts/Defly/NFTtesting.sol\":2759:2869  Detail(_mintAddress,(5000*_amount),Days,block.timestamp,TokenId,Staker[_to][_mintAddress][TokenId].count,true) */\n      dup2\n      mstore\n      0x20\n      add\n        /* \"contracts/Defly/NFTtesting.sol\":2815:2822  TokenId */\n      dup6\n        /* \"contracts/Defly/NFTtesting.sol\":2759:2869  Detail(_mintAddress,(5000*_amount),Days,block.timestamp,TokenId,Staker[_to][_mintAddress][TokenId].count,true) */\n      dup2\n      mstore\n      0x20\n      add\n        /* \"contracts/Defly/NFTtesting.sol\":2823:2829  Staker */\n      0x09\n        /* \"contracts/Defly/NFTtesting.sol\":2823:2834  Staker[_to] */\n      0x00\n        /* \"contracts/Defly/NFTtesting.sol\":2830:2833  _to */\n      dup6\n        /* \"contracts/Defly/NFTtesting.sol\":2823:2834  Staker[_to] */\n      0xffffffffffffffffffffffffffffffffffffffff\n      and\n      0xffffffffffffffffffffffffffffffffffffffff\n      and\n      dup2\n      mstore\n      0x20\n      add\n      swap1\n      dup2\n      mstore\n      0x20\n      add\n      0x00\n      keccak256\n        /* \"contracts/Defly/NFTtesting.sol\":2823:2848  Staker[_to][_mintAddress] */\n      0x00\n        /* \"contracts/Defly/NFTtesting.sol\":2835:2847  _mintAddress */\n      dup5\n        /* \"contracts/Defly/NFTtesting.sol\":2823:2848  Staker[_to][_mintAddress] */\n      0xffffffffffffffffffffffffffffffffffffffff\n      and\n      0xffffffffffffffffffffffffffffffffffffffff\n      and\n      dup2\n      mstore\n      0x20\n      add\n      swap1\n      dup2\n      mstore\n      0x20\n      add\n      0x00\n      keccak256\n        /* \"contracts/Defly/NFTtesting.sol\":2823:2857  Staker[_to][_mintAddress][TokenId] */\n      0x00\n        /* \"contracts/Defly/NFTtesting.sol\":2849:2856  TokenId */\n      dup8\n        /* \"contracts/Defly/NFTtesting.sol\":2823:2857  Staker[_to][_mintAddress][TokenId] */\n      dup2\n      mstore\n      0x20\n      add\n      swap1\n      dup2\n      mstore\n      0x20\n      add\n      0x00\n      keccak256\n        /* \"contracts/Defly/NFTtesting.sol\":2823:2863  Staker[_to][_mintAddress][TokenId].count */\n      0x05\n      add\n      sload\n        /* \"contracts/Defly/NFTtesting.sol\":2759:2869  Detail(_mintAddress,(5000*_amount),Days,block.timestamp,TokenId,Staker[_to][_mintAddress][TokenId].count,true) */\n      dup2\n      mstore\n      0x20\n      add\n        /* \"contracts/Defly/NFTtesting.sol\":2864:2868  true */\n      0x01\n        /* \"contracts/Defly/NFTtesting.sol\":2759:2869  Detail(_mintAddress,(5000*_amount),Days,block.timestamp,TokenId,Staker[_to][_mintAddress][TokenId].count,true) */\n      iszero\n      iszero\n      dup2\n      mstore\n      pop\n        /* \"contracts/Defly/NFTtesting.sol\":2722:2728  Staker */\n      0x09\n        /* \"contracts/Defly/NFTtesting.sol\":2722:2733  Staker[_to] */\n      0x00\n        /* \"contracts/Defly/NFTtesting.sol\":2729:2732  _to */\n      dup5\n        /* \"contracts/Defly/NFTtesting.sol\":2722:2733  Staker[_to] */\n      0xffffffffffffffffffffffffffffffffffffffff\n      and\n      0xffffffffffffffffffffffffffffffffffffffff\n      and\n      dup2\n      mstore\n      0x20\n      add\n      swap1\n      dup2\n      mstore\n      0x20\n      add\n      0x00\n      keccak256\n        /* \"contracts/Defly/NFTtesting.sol\":2722:2747  Staker[_to][_mintAddress] */\n      0x00\n        /* \"contracts/Defly/NFTtesting.sol\":2734:2746  _mintAddress */\n      dup4\n        /* \"contracts/Defly/NFTtesting.sol\":2722:2747  Staker[_to][_mintAddress] */\n      0xffffffffffffffffffffffffffffffffffffffff\n      and\n      0xffffffffffffffffffffffffffffffffffffffff\n      and\n      dup2\n      mstore\n      0x20\n      add\n      swap1\n      dup2\n      mstore\n      0x20\n      add\n      0x00\n      keccak256\n        /* \"contracts/Defly/NFTtesting.sol\":2722:2756  Staker[_to][_mintAddress][TokenId] */\n      0x00\n        /* \"contracts/Defly/NFTtesting.sol\":2748:2755  TokenId */\n      dup7\n        /* \"contracts/Defly/NFTtesting.sol\":2722:2756  Staker[_to][_mintAddress][TokenId] */\n      dup2\n      mstore\n      0x20\n      add\n      swap1\n      dup2\n      mstore\n      0x20\n      add\n      0x00\n      keccak256\n        /* \"contracts/Defly/NFTtesting.sol\":2722:2869  Staker[_to][_mintAddress][TokenId] = Detail(_mintAddress,(5000*_amount),Days,block.timestamp,TokenId,Staker[_to][_mintAddress][TokenId].count,true) */\n      0x00\n      dup3\n      add\n      mload\n      dup2\n      0x00\n      add\n      exp(0x0100, 0x00)\n      dup2\n      sload\n      dup2\n      0xffffffffffffffffffffffffffffffffffffffff\n      mul\n      not\n      and\n      swap1\n      dup4\n      0xffffffffffffffffffffffffffffffffffffffff\n      and\n      mul\n      or\n      swap1\n      sstore\n      pop\n      0x20\n      dup3\n      add\n      mload\n      dup2\n      0x01\n      add\n      sstore\n      0x40\n      dup3\n      add\n      mload\n      dup2\n      0x02\n      add\n      sstore\n      0x60\n      dup3\n      add\n      mload\n      dup2\n      0x03\n      add\n      sstore\n      0x80\n      dup3\n      add\n      mload\n      dup2\n      0x04\n      add\n      sstore\n      0xa0\n      dup3\n      add\n      mload\n      dup2\n      0x05\n      add\n      sstore\n      0xc0\n      dup3\n      add\n      mload\n      dup2\n      0x06\n      add\n      exp(0x0100, 0x00)\n      dup2\n      sload\n      dup2\n      0xff\n      mul\n      not\n      and\n      swap1\n      dup4\n      iszero\n      iszero\n      mul\n      or\n      swap1\n      sstore\n      pop\n      swap1\n      pop\n      pop\n        /* \"contracts/Defly/NFTtesting.sol\":2304:2884  if(Staker[_to][_mintAddress][TokenId].NFT == 0 ){... */\n    tag_118:\n        /* \"contracts/Defly/NFTtesting.sol\":2905:2917  _mintAddress */\n      dup1\n        /* \"contracts/Defly/NFTtesting.sol\":2897:2935  IERC721(_mintAddress).safeTransferFrom */\n      0xffffffffffffffffffffffffffffffffffffffff\n      and\n      0xb88d4fde\n        /* \"contracts/Defly/NFTtesting.sol\":2936:2939  _to */\n      dup4\n        /* \"contracts/Defly/NFTtesting.sol\":2948:2952  this */\n      address\n        /* \"contracts/Defly/NFTtesting.sol\":2954:2961  TokenId */\n      dup8\n        /* \"contracts/Defly/NFTtesting.sol\":2897:2965  IERC721(_mintAddress).safeTransferFrom(_to,address(this),TokenId,\"\") */\n      mload(0x40)\n      dup5\n      0xffffffff\n      and\n      0xe0\n      shl\n      dup2\n      mstore\n      0x04\n      add\n      tag_120\n      swap4\n      swap3\n      swap2\n      swap1\n      tag_121\n      jump\t// in\n    tag_120:\n      0x00\n      mload(0x40)\n      dup1\n      dup4\n      sub\n      dup2\n      0x00\n      dup8\n      dup1\n      extcodesize\n      iszero\n      dup1\n      iszero\n      tag_122\n      jumpi\n      0x00\n      dup1\n      revert\n    tag_122:\n      pop\n      gas\n      call\n      iszero\n      dup1\n      iszero\n      tag_124\n      jumpi\n      returndatasize\n      0x00\n      dup1\n      returndatacopy\n      revert(0x00, returndatasize)\n    tag_124:\n      pop\n      pop\n      pop\n      pop\n        /* \"contracts/Defly/NFTtesting.sol\":2161:5540  if(Days == 15){... */\n      jump(tag_125)\n    tag_105:\n        /* \"contracts/Defly/NFTtesting.sol\":3001:3003  30 */\n      0x1e\n        /* \"contracts/Defly/NFTtesting.sol\":2993:2997  Days */\n      dup4\n        /* \"contracts/Defly/NFTtesting.sol\":2993:3003  Days == 30 */\n      sub\n        /* \"contracts/Defly/NFTtesting.sol\":2990:5540  if(Days == 30){... */\n      tag_126\n      jumpi\n        /* \"contracts/Defly/NFTtesting.sol\":3018:3039  category2.increment() */\n      tag_127\n        /* \"contracts/Defly/NFTtesting.sol\":3018:3027  category2 */\n      0x02\n        /* \"contracts/Defly/NFTtesting.sol\":3018:3037  category2.increment */\n      tag_107\n        /* \"contracts/Defly/NFTtesting.sol\":3018:3039  category2.increment() */\n      jump\t// in\n    tag_127:\n        /* \"contracts/Defly/NFTtesting.sol\":3083:3086  750 */\n      0x02ee\n        /* \"contracts/Defly/NFTtesting.sol\":3061:3080  category2.current() */\n      tag_128\n        /* \"contracts/Defly/NFTtesting.sol\":3061:3070  category2 */\n      0x02\n        /* \"contracts/Defly/NFTtesting.sol\":3061:3078  category2.current */\n      tag_109\n        /* \"contracts/Defly/NFTtesting.sol\":3061:3080  category2.current() */\n      jump\t// in\n    tag_128:\n        /* \"contracts/Defly/NFTtesting.sol\":3061:3086  category2.current() <=750 */\n      gt\n      iszero\n        /* \"contracts/Defly/NFTtesting.sol\":3053:3118  require(category2.current() <=750,\"30 Days Category is Full !!!\") */\n      tag_129\n      jumpi\n      mload(0x40)\n      0x08c379a000000000000000000000000000000000000000000000000000000000\n      dup2\n      mstore\n      0x04\n      add\n      tag_130\n      swap1\n      tag_131\n      jump\t// in\n    tag_130:\n      mload(0x40)\n      dup1\n      swap2\n      sub\n      swap1\n      revert\n    tag_129:\n        /* \"contracts/Defly/NFTtesting.sol\":3177:3178  0 */\n      0x00\n        /* \"contracts/Defly/NFTtesting.sol\":3135:3141  Staker */\n      0x09\n        /* \"contracts/Defly/NFTtesting.sol\":3135:3146  Staker[_to] */\n      0x00\n        /* \"contracts/Defly/NFTtesting.sol\":3142:3145  _to */\n      dup5\n        /* \"contracts/Defly/NFTtesting.sol\":3135:3146  Staker[_to] */\n      0xffffffffffffffffffffffffffffffffffffffff\n      and\n      0xffffffffffffffffffffffffffffffffffffffff\n      and\n      dup2\n      mstore\n      0x20\n      add\n      swap1\n      dup2\n      mstore\n      0x20\n      add\n      0x00\n      keccak256\n        /* \"contracts/Defly/NFTtesting.sol\":3135:3160  Staker[_to][_mintAddress] */\n      0x00\n        /* \"contracts/Defly/NFTtesting.sol\":3147:3159  _mintAddress */\n      dup4\n        /* \"contracts/Defly/NFTtesting.sol\":3135:3160  Staker[_to][_mintAddress] */\n      0xffffffffffffffffffffffffffffffffffffffff\n      and\n      0xffffffffffffffffffffffffffffffffffffffff\n      and\n      dup2\n      mstore\n      0x20\n      add\n      swap1\n      dup2\n      mstore\n      0x20\n      add\n      0x00\n      keccak256\n        /* \"contracts/Defly/NFTtesting.sol\":3135:3169  Staker[_to][_mintAddress][TokenId] */\n      0x00\n        /* \"contracts/Defly/NFTtesting.sol\":3161:3168  TokenId */\n      dup7\n        /* \"contracts/Defly/NFTtesting.sol\":3135:3169  Staker[_to][_mintAddress][TokenId] */\n      dup2\n      mstore\n      0x20\n      add\n      swap1\n      dup2\n      mstore\n      0x20\n      add\n      0x00\n      keccak256\n        /* \"contracts/Defly/NFTtesting.sol\":3135:3173  Staker[_to][_mintAddress][TokenId].NFT */\n      0x04\n      add\n      sload\n        /* \"contracts/Defly/NFTtesting.sol\":3135:3178  Staker[_to][_mintAddress][TokenId].NFT == 0 */\n      sub\n        /* \"contracts/Defly/NFTtesting.sol\":3132:3712  if(Staker[_to][_mintAddress][TokenId].NFT == 0 ){... */\n      tag_132\n      jumpi\n        /* \"contracts/Defly/NFTtesting.sol\":3235:3322  Detail(_mintAddress,(7500*_amount),Days,block.timestamp,TokenId,countDeposit[_to],true) */\n      mload(0x40)\n      dup1\n      0xe0\n      add\n      0x40\n      mstore\n      dup1\n        /* \"contracts/Defly/NFTtesting.sol\":3242:3254  _mintAddress */\n      dup3\n        /* \"contracts/Defly/NFTtesting.sol\":3235:3322  Detail(_mintAddress,(7500*_amount),Days,block.timestamp,TokenId,countDeposit[_to],true) */\n      0xffffffffffffffffffffffffffffffffffffffff\n      and\n      dup2\n      mstore\n      0x20\n      add\n        /* \"contracts/Defly/NFTtesting.sol\":3261:3268  _amount */\n      sload(0x08)\n        /* \"contracts/Defly/NFTtesting.sol\":3256:3260  7500 */\n      0x1d4c\n        /* \"contracts/Defly/NFTtesting.sol\":3256:3268  7500*_amount */\n      tag_133\n      swap2\n      swap1\n      tag_115\n      jump\t// in\n    tag_133:\n        /* \"contracts/Defly/NFTtesting.sol\":3235:3322  Detail(_mintAddress,(7500*_amount),Days,block.timestamp,TokenId,countDeposit[_to],true) */\n      dup2\n      mstore\n      0x20\n      add\n        /* \"contracts/Defly/NFTtesting.sol\":3270:3274  Days */\n      dup5\n        /* \"contracts/Defly/NFTtesting.sol\":3235:3322  Detail(_mintAddress,(7500*_amount),Days,block.timestamp,TokenId,countDeposit[_to],true) */\n      dup2\n      mstore\n      0x20\n      add\n        /* \"contracts/Defly/NFTtesting.sol\":3275:3290  block.timestamp */\n      timestamp\n        /* \"contracts/Defly/NFTtesting.sol\":3235:3322  Detail(_mintAddress,(7500*_amount),Days,block.timestamp,TokenId,countDeposit[_to],true) */\n      dup2\n      mstore\n      0x20\n      add\n        /* \"contracts/Defly/NFTtesting.sol\":3291:3298  TokenId */\n      dup6\n        /* \"contracts/Defly/NFTtesting.sol\":3235:3322  Detail(_mintAddress,(7500*_amount),Days,block.timestamp,TokenId,countDeposit[_to],true) */\n      dup2\n      mstore\n      0x20\n      add\n        /* \"contracts/Defly/NFTtesting.sol\":3299:3311  countDeposit */\n      0x0c\n        /* \"contracts/Defly/NFTtesting.sol\":3299:3316  countDeposit[_to] */\n      0x00\n        /* \"contracts/Defly/NFTtesting.sol\":3312:3315  _to */\n      dup6\n        /* \"contracts/Defly/NFTtesting.sol\":3299:3316  countDeposit[_to] */\n      0xffffffffffffffffffffffffffffffffffffffff\n      and\n      0xffffffffffffffffffffffffffffffffffffffff\n      and\n      dup2\n      mstore\n      0x20\n      add\n      swap1\n      dup2\n      mstore\n      0x20\n      add\n      0x00\n      keccak256\n      sload\n        /* \"contracts/Defly/NFTtesting.sol\":3235:3322  Detail(_mintAddress,(7500*_amount),Days,block.timestamp,TokenId,countDeposit[_to],true) */\n      dup2\n      mstore\n      0x20\n      add\n        /* \"contracts/Defly/NFTtesting.sol\":3317:3321  true */\n      0x01\n        /* \"contracts/Defly/NFTtesting.sol\":3235:3322  Detail(_mintAddress,(7500*_amount),Days,block.timestamp,TokenId,countDeposit[_to],true) */\n      iszero\n      iszero\n      dup2\n      mstore\n      pop\n        /* \"contracts/Defly/NFTtesting.sol\":3198:3204  Staker */\n      0x09\n        /* \"contracts/Defly/NFTtesting.sol\":3198:3209  Staker[_to] */\n      0x00\n        /* \"contracts/Defly/NFTtesting.sol\":3205:3208  _to */\n      dup5\n        /* \"contracts/Defly/NFTtesting.sol\":3198:3209  Staker[_to] */\n      0xffffffffffffffffffffffffffffffffffffffff\n      and\n      0xffffffffffffffffffffffffffffffffffffffff\n      and\n      dup2\n      mstore\n      0x20\n      add\n      swap1\n      dup2\n      mstore\n      0x20\n      add\n      0x00\n      keccak256\n        /* \"contracts/Defly/NFTtesting.sol\":3198:3223  Staker[_to][_mintAddress] */\n      0x00\n        /* \"contracts/Defly/NFTtesting.sol\":3210:3222  _mintAddress */\n      dup4\n        /* \"contracts/Defly/NFTtesting.sol\":3198:3223  Staker[_to][_mintAddress] */\n      0xffffffffffffffffffffffffffffffffffffffff\n      and\n      0xffffffffffffffffffffffffffffffffffffffff\n      and\n      dup2\n      mstore\n      0x20\n      add\n      swap1\n      dup2\n      mstore\n      0x20\n      add\n      0x00\n      keccak256\n        /* \"contracts/Defly/NFTtesting.sol\":3198:3232  Staker[_to][_mintAddress][TokenId] */\n      0x00\n        /* \"contracts/Defly/NFTtesting.sol\":3224:3231  TokenId */\n      dup7\n        /* \"contracts/Defly/NFTtesting.sol\":3198:3232  Staker[_to][_mintAddress][TokenId] */\n      dup2\n      mstore\n      0x20\n      add\n      swap1\n      dup2\n      mstore\n      0x20\n      add\n      0x00\n      keccak256\n        /* \"contracts/Defly/NFTtesting.sol\":3198:3322  Staker[_to][_mintAddress][TokenId] = Detail(_mintAddress,(7500*_amount),Days,block.timestamp,TokenId,countDeposit[_to],true) */\n      0x00\n      dup3\n      add\n      mload\n      dup2\n      0x00\n      add\n      exp(0x0100, 0x00)\n      dup2\n      sload\n      dup2\n      0xffffffffffffffffffffffffffffffffffffffff\n      mul\n      not\n      and\n      swap1\n      dup4\n      0xffffffffffffffffffffffffffffffffffffffff\n      and\n      mul\n      or\n      swap1\n      sstore\n      pop\n      0x20\n      dup3\n      add\n      mload\n      dup2\n      0x01\n      add\n      sstore\n      0x40\n      dup3\n      add\n      mload\n      dup2\n      0x02\n      add\n      sstore\n      0x60\n      dup3\n      add\n      mload\n      dup2\n      0x03\n      add\n      sstore\n      0x80\n      dup3\n      add\n      mload\n      dup2\n      0x04\n      add\n      sstore\n      0xa0\n      dup3\n      add\n      mload\n      dup2\n      0x05\n      add\n      sstore\n      0xc0\n      dup3\n      add\n      mload\n      dup2\n      0x06\n      add\n      exp(0x0100, 0x00)\n      dup2\n      sload\n      dup2\n      0xff\n      mul\n      not\n      and\n      swap1\n      dup4\n      iszero\n      iszero\n      mul\n      or\n      swap1\n      sstore\n      pop\n      swap1\n      pop\n      pop\n        /* \"contracts/Defly/NFTtesting.sol\":3376:3406  ERCCount(TokenId,_mintAddress) */\n      mload(0x40)\n      dup1\n      0x40\n      add\n      0x40\n      mstore\n      dup1\n        /* \"contracts/Defly/NFTtesting.sol\":3385:3392  TokenId */\n      dup6\n        /* \"contracts/Defly/NFTtesting.sol\":3376:3406  ERCCount(TokenId,_mintAddress) */\n      dup2\n      mstore\n      0x20\n      add\n        /* \"contracts/Defly/NFTtesting.sol\":3393:3405  _mintAddress */\n      dup3\n        /* \"contracts/Defly/NFTtesting.sol\":3376:3406  ERCCount(TokenId,_mintAddress) */\n      0xffffffffffffffffffffffffffffffffffffffff\n      and\n      dup2\n      mstore\n      pop\n        /* \"contracts/Defly/NFTtesting.sol\":3340:3349  ERCDetail */\n      0x0a\n        /* \"contracts/Defly/NFTtesting.sol\":3340:3354  ERCDetail[_to] */\n      0x00\n        /* \"contracts/Defly/NFTtesting.sol\":3350:3353  _to */\n      dup5\n        /* \"contracts/Defly/NFTtesting.sol\":3340:3354  ERCDetail[_to] */\n      0xffffffffffffffffffffffffffffffffffffffff\n      and\n      0xffffffffffffffffffffffffffffffffffffffff\n      and\n      dup2\n      mstore\n      0x20\n      add\n      swap1\n      dup2\n      mstore\n      0x20\n      add\n      0x00\n      keccak256\n        /* \"contracts/Defly/NFTtesting.sol\":3340:3373  ERCDetail[_to][countDeposit[_to]] */\n      0x00\n        /* \"contracts/Defly/NFTtesting.sol\":3355:3367  countDeposit */\n      0x0c\n        /* \"contracts/Defly/NFTtesting.sol\":3355:3372  countDeposit[_to] */\n      0x00\n        /* \"contracts/Defly/NFTtesting.sol\":3368:3371  _to */\n      dup7\n        /* \"contracts/Defly/NFTtesting.sol\":3355:3372  countDeposit[_to] */\n      0xffffffffffffffffffffffffffffffffffffffff\n      and\n      0xffffffffffffffffffffffffffffffffffffffff\n      and\n      dup2\n      mstore\n      0x20\n      add\n      swap1\n      dup2\n      mstore\n      0x20\n      add\n      0x00\n      keccak256\n      sload\n        /* \"contracts/Defly/NFTtesting.sol\":3340:3373  ERCDetail[_to][countDeposit[_to]] */\n      dup2\n      mstore\n      0x20\n      add\n      swap1\n      dup2\n      mstore\n      0x20\n      add\n      0x00\n      keccak256\n        /* \"contracts/Defly/NFTtesting.sol\":3340:3406  ERCDetail[_to][countDeposit[_to]] = ERCCount(TokenId,_mintAddress) */\n      0x00\n      dup3\n      add\n      mload\n      dup2\n      0x00\n      add\n      sstore\n      0x20\n      dup3\n      add\n      mload\n      dup2\n      0x01\n      add\n      exp(0x0100, 0x00)\n      dup2\n      sload\n      dup2\n      0xffffffffffffffffffffffffffffffffffffffff\n      mul\n      not\n      and\n      swap1\n      dup4\n      0xffffffffffffffffffffffffffffffffffffffff\n      and\n      mul\n      or\n      swap1\n      sstore\n      pop\n      swap1\n      pop\n      pop\n        /* \"contracts/Defly/NFTtesting.sol\":3455:3467  countDeposit */\n      0x0c\n        /* \"contracts/Defly/NFTtesting.sol\":3455:3472  countDeposit[_to] */\n      0x00\n        /* \"contracts/Defly/NFTtesting.sol\":3468:3471  _to */\n      dup4\n        /* \"contracts/Defly/NFTtesting.sol\":3455:3472  countDeposit[_to] */\n      0xffffffffffffffffffffffffffffffffffffffff\n      and\n      0xffffffffffffffffffffffffffffffffffffffff\n      and\n      dup2\n      mstore\n      0x20\n      add\n      swap1\n      dup2\n      mstore\n      0x20\n      add\n      0x00\n      keccak256\n      sload\n        /* \"contracts/Defly/NFTtesting.sol\":3424:3429  Count */\n      0x0b\n        /* \"contracts/Defly/NFTtesting.sol\":3424:3443  Count[_mintAddress] */\n      0x00\n        /* \"contracts/Defly/NFTtesting.sol\":3430:3442  _mintAddress */\n      dup4\n        /* \"contracts/Defly/NFTtesting.sol\":3424:3443  Count[_mintAddress] */\n      0xffffffffffffffffffffffffffffffffffffffff\n      and\n      0xffffffffffffffffffffffffffffffffffffffff\n      and\n      dup2\n      mstore\n      0x20\n      add\n      swap1\n      dup2\n      mstore\n      0x20\n      add\n      0x00\n      keccak256\n        /* \"contracts/Defly/NFTtesting.sol\":3424:3452  Count[_mintAddress][TokenId] */\n      0x00\n        /* \"contracts/Defly/NFTtesting.sol\":3444:3451  TokenId */\n      dup7\n        /* \"contracts/Defly/NFTtesting.sol\":3424:3452  Count[_mintAddress][TokenId] */\n      dup2\n      mstore\n      0x20\n      add\n      swap1\n      dup2\n      mstore\n      0x20\n      add\n      0x00\n      keccak256\n        /* \"contracts/Defly/NFTtesting.sol\":3424:3472  Count[_mintAddress][TokenId] = countDeposit[_to] */\n      dup2\n      swap1\n      sstore\n      pop\n        /* \"contracts/Defly/NFTtesting.sol\":3512:3513  1 */\n      0x01\n        /* \"contracts/Defly/NFTtesting.sol\":3491:3503  countDeposit */\n      0x0c\n        /* \"contracts/Defly/NFTtesting.sol\":3491:3508  countDeposit[_to] */\n      0x00\n        /* \"contracts/Defly/NFTtesting.sol\":3504:3507  _to */\n      dup5\n        /* \"contracts/Defly/NFTtesting.sol\":3491:3508  countDeposit[_to] */\n      0xffffffffffffffffffffffffffffffffffffffff\n      and\n      0xffffffffffffffffffffffffffffffffffffffff\n      and\n      dup2\n      mstore\n      0x20\n      add\n      swap1\n      dup2\n      mstore\n      0x20\n      add\n      0x00\n      keccak256\n      0x00\n        /* \"contracts/Defly/NFTtesting.sol\":3491:3513  countDeposit[_to] += 1 */\n      dup3\n      dup3\n      sload\n      tag_134\n      swap2\n      swap1\n      tag_117\n      jump\t// in\n    tag_134:\n      swap3\n      pop\n      pop\n      dup2\n      swap1\n      sstore\n      pop\n        /* \"contracts/Defly/NFTtesting.sol\":3132:3712  if(Staker[_to][_mintAddress][TokenId].NFT == 0 ){... */\n      jump(tag_135)\n    tag_132:\n        /* \"contracts/Defly/NFTtesting.sol\":3587:3697  Detail(_mintAddress,(7500*_amount),Days,block.timestamp,TokenId,Staker[_to][_mintAddress][TokenId].count,true) */\n      mload(0x40)\n      dup1\n      0xe0\n      add\n      0x40\n      mstore\n      dup1\n        /* \"contracts/Defly/NFTtesting.sol\":3594:3606  _mintAddress */\n      dup3\n        /* \"contracts/Defly/NFTtesting.sol\":3587:3697  Detail(_mintAddress,(7500*_amount),Days,block.timestamp,TokenId,Staker[_to][_mintAddress][TokenId].count,true) */\n      0xffffffffffffffffffffffffffffffffffffffff\n      and\n      dup2\n      mstore\n      0x20\n      add\n        /* \"contracts/Defly/NFTtesting.sol\":3613:3620  _amount */\n      sload(0x08)\n        /* \"contracts/Defly/NFTtesting.sol\":3608:3612  7500 */\n      0x1d4c\n        /* \"contracts/Defly/NFTtesting.sol\":3608:3620  7500*_amount */\n      tag_136\n      swap2\n      swap1\n      tag_115\n      jump\t// in\n    tag_136:\n        /* \"contracts/Defly/NFTtesting.sol\":3587:3697  Detail(_mintAddress,(7500*_amount),Days,block.timestamp,TokenId,Staker[_to][_mintAddress][TokenId].count,true) */\n      dup2\n      mstore\n      0x20\n      add\n        /* \"contracts/Defly/NFTtesting.sol\":3622:3626  Days */\n      dup5\n        /* \"contracts/Defly/NFTtesting.sol\":3587:3697  Detail(_mintAddress,(7500*_amount),Days,block.timestamp,TokenId,Staker[_to][_mintAddress][TokenId].count,true) */\n      dup2\n      mstore\n      0x20\n      add\n        /* \"contracts/Defly/NFTtesting.sol\":3627:3642  block.timestamp */\n      timestamp\n        /* \"contracts/Defly/NFTtesting.sol\":3587:3697  Detail(_mintAddress,(7500*_amount),Days,block.timestamp,TokenId,Staker[_to][_mintAddress][TokenId].count,true) */\n      dup2\n      mstore\n      0x20\n      add\n        /* \"contracts/Defly/NFTtesting.sol\":3643:3650  TokenId */\n      dup6\n        /* \"contracts/Defly/NFTtesting.sol\":3587:3697  Detail(_mintAddress,(7500*_amount),Days,block.timestamp,TokenId,Staker[_to][_mintAddress][TokenId].count,true) */\n      dup2\n      mstore\n      0x20\n      add\n        /* \"contracts/Defly/NFTtesting.sol\":3651:3657  Staker */\n      0x09\n        /* \"contracts/Defly/NFTtesting.sol\":3651:3662  Staker[_to] */\n      0x00\n        /* \"contracts/Defly/NFTtesting.sol\":3658:3661  _to */\n      dup6\n        /* \"contracts/Defly/NFTtesting.sol\":3651:3662  Staker[_to] */\n      0xffffffffffffffffffffffffffffffffffffffff\n      and\n      0xffffffffffffffffffffffffffffffffffffffff\n      and\n      dup2\n      mstore\n      0x20\n      add\n      swap1\n      dup2\n      mstore\n      0x20\n      add\n      0x00\n      keccak256\n        /* \"contracts/Defly/NFTtesting.sol\":3651:3676  Staker[_to][_mintAddress] */\n      0x00\n        /* \"contracts/Defly/NFTtesting.sol\":3663:3675  _mintAddress */\n      dup5\n        /* \"contracts/Defly/NFTtesting.sol\":3651:3676  Staker[_to][_mintAddress] */\n      0xffffffffffffffffffffffffffffffffffffffff\n      and\n      0xffffffffffffffffffffffffffffffffffffffff\n      and\n      dup2\n      mstore\n      0x20\n      add\n      swap1\n      dup2\n      mstore\n      0x20\n      add\n      0x00\n      keccak256\n        /* \"contracts/Defly/NFTtesting.sol\":3651:3685  Staker[_to][_mintAddress][TokenId] */\n      0x00\n        /* \"contracts/Defly/NFTtesting.sol\":3677:3684  TokenId */\n      dup8\n        /* \"contracts/Defly/NFTtesting.sol\":3651:3685  Staker[_to][_mintAddress][TokenId] */\n      dup2\n      mstore\n      0x20\n      add\n      swap1\n      dup2\n      mstore\n      0x20\n      add\n      0x00\n      keccak256\n        /* \"contracts/Defly/NFTtesting.sol\":3651:3691  Staker[_to][_mintAddress][TokenId].count */\n      0x05\n      add\n      sload\n        /* \"contracts/Defly/NFTtesting.sol\":3587:3697  Detail(_mintAddress,(7500*_amount),Days,block.timestamp,TokenId,Staker[_to][_mintAddress][TokenId].count,true) */\n      dup2\n      mstore\n      0x20\n      add\n        /* \"contracts/Defly/NFTtesting.sol\":3692:3696  true */\n      0x01\n        /* \"contracts/Defly/NFTtesting.sol\":3587:3697  Detail(_mintAddress,(7500*_amount),Days,block.timestamp,TokenId,Staker[_to][_mintAddress][TokenId].count,true) */\n      iszero\n      iszero\n      dup2\n      mstore\n      pop\n        /* \"contracts/Defly/NFTtesting.sol\":3550:3556  Staker */\n      0x09\n        /* \"contracts/Defly/NFTtesting.sol\":3550:3561  Staker[_to] */\n      0x00\n        /* \"contracts/Defly/NFTtesting.sol\":3557:3560  _to */\n      dup5\n        /* \"contracts/Defly/NFTtesting.sol\":3550:3561  Staker[_to] */\n      0xffffffffffffffffffffffffffffffffffffffff\n      and\n      0xffffffffffffffffffffffffffffffffffffffff\n      and\n      dup2\n      mstore\n      0x20\n      add\n      swap1\n      dup2\n      mstore\n      0x20\n      add\n      0x00\n      keccak256\n        /* \"contracts/Defly/NFTtesting.sol\":3550:3575  Staker[_to][_mintAddress] */\n      0x00\n        /* \"contracts/Defly/NFTtesting.sol\":3562:3574  _mintAddress */\n      dup4\n        /* \"contracts/Defly/NFTtesting.sol\":3550:3575  Staker[_to][_mintAddress] */\n      0xffffffffffffffffffffffffffffffffffffffff\n      and\n      0xffffffffffffffffffffffffffffffffffffffff\n      and\n      dup2\n      mstore\n      0x20\n      add\n      swap1\n      dup2\n      mstore\n      0x20\n      add\n      0x00\n      keccak256\n        /* \"contracts/Defly/NFTtesting.sol\":3550:3584  Staker[_to][_mintAddress][TokenId] */\n      0x00\n        /* \"contracts/Defly/NFTtesting.sol\":3576:3583  TokenId */\n      dup7\n        /* \"contracts/Defly/NFTtesting.sol\":3550:3584  Staker[_to][_mintAddress][TokenId] */\n      dup2\n      mstore\n      0x20\n      add\n      swap1\n      dup2\n      mstore\n      0x20\n      add\n      0x00\n      keccak256\n        /* \"contracts/Defly/NFTtesting.sol\":3550:3697  Staker[_to][_mintAddress][TokenId] = Detail(_mintAddress,(7500*_amount),Days,block.timestamp,TokenId,Staker[_to][_mintAddress][TokenId].count,true) */\n      0x00\n      dup3\n      add\n      mload\n      dup2\n      0x00\n      add\n      exp(0x0100, 0x00)\n      dup2\n      sload\n      dup2\n      0xffffffffffffffffffffffffffffffffffffffff\n      mul\n      not\n      and\n      swap1\n      dup4\n      0xffffffffffffffffffffffffffffffffffffffff\n      and\n      mul\n      or\n      swap1\n      sstore\n      pop\n      0x20\n      dup3\n      add\n      mload\n      dup2\n      0x01\n      add\n      sstore\n      0x40\n      dup3\n      add\n      mload\n      dup2\n      0x02\n      add\n      sstore\n      0x60\n      dup3\n      add\n      mload\n      dup2\n      0x03\n      add\n      sstore\n      0x80\n      dup3\n      add\n      mload\n      dup2\n      0x04\n      add\n      sstore\n      0xa0\n      dup3\n      add\n      mload\n      dup2\n      0x05\n      add\n      sstore\n      0xc0\n      dup3\n      add\n      mload\n      dup2\n      0x06\n      add\n      exp(0x0100, 0x00)\n      dup2\n      sload\n      dup2\n      0xff\n      mul\n      not\n      and\n      swap1\n      dup4\n      iszero\n      iszero\n      mul\n      or\n      swap1\n      sstore\n      pop\n      swap1\n      pop\n      pop\n        /* \"contracts/Defly/NFTtesting.sol\":3132:3712  if(Staker[_to][_mintAddress][TokenId].NFT == 0 ){... */\n    tag_135:\n        /* \"contracts/Defly/NFTtesting.sol\":3733:3745  _mintAddress */\n      dup1\n        /* \"contracts/Defly/NFTtesting.sol\":3725:3763  IERC721(_mintAddress).safeTransferFrom */\n      0xffffffffffffffffffffffffffffffffffffffff\n      and\n      0xb88d4fde\n        /* \"contracts/Defly/NFTtesting.sol\":3764:3767  _to */\n      dup4\n        /* \"contracts/Defly/NFTtesting.sol\":3776:3780  this */\n      address\n        /* \"contracts/Defly/NFTtesting.sol\":3782:3789  TokenId */\n      dup8\n        /* \"contracts/Defly/NFTtesting.sol\":3725:3793  IERC721(_mintAddress).safeTransferFrom(_to,address(this),TokenId,\"\") */\n      mload(0x40)\n      dup5\n      0xffffffff\n      and\n      0xe0\n      shl\n      dup2\n      mstore\n      0x04\n      add\n      tag_137\n      swap4\n      swap3\n      swap2\n      swap1\n      tag_121\n      jump\t// in\n    tag_137:\n      0x00\n      mload(0x40)\n      dup1\n      dup4\n      sub\n      dup2\n      0x00\n      dup8\n      dup1\n      extcodesize\n      iszero\n      dup1\n      iszero\n      tag_138\n      jumpi\n      0x00\n      dup1\n      revert\n    tag_138:\n      pop\n      gas\n      call\n      iszero\n      dup1\n      iszero\n      tag_140\n      jumpi\n      returndatasize\n      0x00\n      dup1\n      returndatacopy\n      revert(0x00, returndatasize)\n    tag_140:\n      pop\n      pop\n      pop\n      pop\n        /* \"contracts/Defly/NFTtesting.sol\":2990:5540  if(Days == 30){... */\n      jump(tag_141)\n    tag_126:\n        /* \"contracts/Defly/NFTtesting.sol\":3829:3831  60 */\n      0x3c\n        /* \"contracts/Defly/NFTtesting.sol\":3821:3825  Days */\n      dup4\n        /* \"contracts/Defly/NFTtesting.sol\":3821:3831  Days == 60 */\n      sub\n        /* \"contracts/Defly/NFTtesting.sol\":3818:5540  if(Days == 60){... */\n      tag_142\n      jumpi\n        /* \"contracts/Defly/NFTtesting.sol\":3846:3867  category3.increment() */\n      tag_143\n        /* \"contracts/Defly/NFTtesting.sol\":3846:3855  category3 */\n      0x03\n        /* \"contracts/Defly/NFTtesting.sol\":3846:3865  category3.increment */\n      tag_107\n        /* \"contracts/Defly/NFTtesting.sol\":3846:3867  category3.increment() */\n      jump\t// in\n    tag_143:\n        /* \"contracts/Defly/NFTtesting.sol\":3911:3914  500 */\n      0x01f4\n        /* \"contracts/Defly/NFTtesting.sol\":3889:3908  category3.current() */\n      tag_144\n        /* \"contracts/Defly/NFTtesting.sol\":3889:3898  category3 */\n      0x03\n        /* \"contracts/Defly/NFTtesting.sol\":3889:3906  category3.current */\n      tag_109\n        /* \"contracts/Defly/NFTtesting.sol\":3889:3908  category3.current() */\n      jump\t// in\n    tag_144:\n        /* \"contracts/Defly/NFTtesting.sol\":3889:3914  category3.current() <=500 */\n      gt\n      iszero\n        /* \"contracts/Defly/NFTtesting.sol\":3881:3946  require(category3.current() <=500,\"60 Days Category is Full !!!\") */\n      tag_145\n      jumpi\n      mload(0x40)\n      0x08c379a000000000000000000000000000000000000000000000000000000000\n      dup2\n      mstore\n      0x04\n      add\n      tag_146\n      swap1\n      tag_147\n      jump\t// in\n    tag_146:\n      mload(0x40)\n      dup1\n      swap2\n      sub\n      swap1\n      revert\n    tag_145:\n        /* \"contracts/Defly/NFTtesting.sol\":4005:4006  0 */\n      0x00\n        /* \"contracts/Defly/NFTtesting.sol\":3963:3969  Staker */\n      0x09\n        /* \"contracts/Defly/NFTtesting.sol\":3963:3974  Staker[_to] */\n      0x00\n        /* \"contracts/Defly/NFTtesting.sol\":3970:3973  _to */\n      dup5\n        /* \"contracts/Defly/NFTtesting.sol\":3963:3974  Staker[_to] */\n      0xffffffffffffffffffffffffffffffffffffffff\n      and\n      0xffffffffffffffffffffffffffffffffffffffff\n      and\n      dup2\n      mstore\n      0x20\n      add\n      swap1\n      dup2\n      mstore\n      0x20\n      add\n      0x00\n      keccak256\n        /* \"contracts/Defly/NFTtesting.sol\":3963:3988  Staker[_to][_mintAddress] */\n      0x00\n        /* \"contracts/Defly/NFTtesting.sol\":3975:3987  _mintAddress */\n      dup4\n        /* \"contracts/Defly/NFTtesting.sol\":3963:3988  Staker[_to][_mintAddress] */\n      0xffffffffffffffffffffffffffffffffffffffff\n      and\n      0xffffffffffffffffffffffffffffffffffffffff\n      and\n      dup2\n      mstore\n      0x20\n      add\n      swap1\n      dup2\n      mstore\n      0x20\n      add\n      0x00\n      keccak256\n        /* \"contracts/Defly/NFTtesting.sol\":3963:3997  Staker[_to][_mintAddress][TokenId] */\n      0x00\n        /* \"contracts/Defly/NFTtesting.sol\":3989:3996  TokenId */\n      dup7\n        /* \"contracts/Defly/NFTtesting.sol\":3963:3997  Staker[_to][_mintAddress][TokenId] */\n      dup2\n      mstore\n      0x20\n      add\n      swap1\n      dup2\n      mstore\n      0x20\n      add\n      0x00\n      keccak256\n        /* \"contracts/Defly/NFTtesting.sol\":3963:4001  Staker[_to][_mintAddress][TokenId].NFT */\n      0x04\n      add\n      sload\n        /* \"contracts/Defly/NFTtesting.sol\":3963:4006  Staker[_to][_mintAddress][TokenId].NFT == 0 */\n      sub\n        /* \"contracts/Defly/NFTtesting.sol\":3960:4542  if(Staker[_to][_mintAddress][TokenId].NFT == 0 ){... */\n      tag_148\n      jumpi\n        /* \"contracts/Defly/NFTtesting.sol\":4063:4151  Detail(_mintAddress,(12500*_amount),Days,block.timestamp,TokenId,countDeposit[_to],true) */\n      mload(0x40)\n      dup1\n      0xe0\n      add\n      0x40\n      mstore\n      dup1\n        /* \"contracts/Defly/NFTtesting.sol\":4070:4082  _mintAddress */\n      dup3\n        /* \"contracts/Defly/NFTtesting.sol\":4063:4151  Detail(_mintAddress,(12500*_amount),Days,block.timestamp,TokenId,countDeposit[_to],true) */\n      0xffffffffffffffffffffffffffffffffffffffff\n      and\n      dup2\n      mstore\n      0x20\n      add\n        /* \"contracts/Defly/NFTtesting.sol\":4090:4097  _amount */\n      sload(0x08)\n        /* \"contracts/Defly/NFTtesting.sol\":4084:4089  12500 */\n      0x30d4\n        /* \"contracts/Defly/NFTtesting.sol\":4084:4097  12500*_amount */\n      tag_149\n      swap2\n      swap1\n      tag_115\n      jump\t// in\n    tag_149:\n        /* \"contracts/Defly/NFTtesting.sol\":4063:4151  Detail(_mintAddress,(12500*_amount),Days,block.timestamp,TokenId,countDeposit[_to],true) */\n      dup2\n      mstore\n      0x20\n      add\n        /* \"contracts/Defly/NFTtesting.sol\":4099:4103  Days */\n      dup5\n        /* \"contracts/Defly/NFTtesting.sol\":4063:4151  Detail(_mintAddress,(12500*_amount),Days,block.timestamp,TokenId,countDeposit[_to],true) */\n      dup2\n      mstore\n      0x20\n      add\n        /* \"contracts/Defly/NFTtesting.sol\":4104:4119  block.timestamp */\n      timestamp\n        /* \"contracts/Defly/NFTtesting.sol\":4063:4151  Detail(_mintAddress,(12500*_amount),Days,block.timestamp,TokenId,countDeposit[_to],true) */\n      dup2\n      mstore\n      0x20\n      add\n        /* \"contracts/Defly/NFTtesting.sol\":4120:4127  TokenId */\n      dup6\n        /* \"contracts/Defly/NFTtesting.sol\":4063:4151  Detail(_mintAddress,(12500*_amount),Days,block.timestamp,TokenId,countDeposit[_to],true) */\n      dup2\n      mstore\n      0x20\n      add\n        /* \"contracts/Defly/NFTtesting.sol\":4128:4140  countDeposit */\n      0x0c\n        /* \"contracts/Defly/NFTtesting.sol\":4128:4145  countDeposit[_to] */\n      0x00\n        /* \"contracts/Defly/NFTtesting.sol\":4141:4144  _to */\n      dup6\n        /* \"contracts/Defly/NFTtesting.sol\":4128:4145  countDeposit[_to] */\n      0xffffffffffffffffffffffffffffffffffffffff\n      and\n      0xffffffffffffffffffffffffffffffffffffffff\n      and\n      dup2\n      mstore\n      0x20\n      add\n      swap1\n      dup2\n      mstore\n      0x20\n      add\n      0x00\n      keccak256\n      sload\n        /* \"contracts/Defly/NFTtesting.sol\":4063:4151  Detail(_mintAddress,(12500*_amount),Days,block.timestamp,TokenId,countDeposit[_to],true) */\n      dup2\n      mstore\n      0x20\n      add\n        /* \"contracts/Defly/NFTtesting.sol\":4146:4150  true */\n      0x01\n        /* \"contracts/Defly/NFTtesting.sol\":4063:4151  Detail(_mintAddress,(12500*_amount),Days,block.timestamp,TokenId,countDeposit[_to],true) */\n      iszero\n      iszero\n      dup2\n      mstore\n      pop\n        /* \"contracts/Defly/NFTtesting.sol\":4026:4032  Staker */\n      0x09\n        /* \"contracts/Defly/NFTtesting.sol\":4026:4037  Staker[_to] */\n      0x00\n        /* \"contracts/Defly/NFTtesting.sol\":4033:4036  _to */\n      dup5\n        /* \"contracts/Defly/NFTtesting.sol\":4026:4037  Staker[_to] */\n      0xffffffffffffffffffffffffffffffffffffffff\n      and\n      0xffffffffffffffffffffffffffffffffffffffff\n      and\n      dup2\n      mstore\n      0x20\n      add\n      swap1\n      dup2\n      mstore\n      0x20\n      add\n      0x00\n      keccak256\n        /* \"contracts/Defly/NFTtesting.sol\":4026:4051  Staker[_to][_mintAddress] */\n      0x00\n        /* \"contracts/Defly/NFTtesting.sol\":4038:4050  _mintAddress */\n      dup4\n        /* \"contracts/Defly/NFTtesting.sol\":4026:4051  Staker[_to][_mintAddress] */\n      0xffffffffffffffffffffffffffffffffffffffff\n      and\n      0xffffffffffffffffffffffffffffffffffffffff\n      and\n      dup2\n      mstore\n      0x20\n      add\n      swap1\n      dup2\n      mstore\n      0x20\n      add\n      0x00\n      keccak256\n        /* \"contracts/Defly/NFTtesting.sol\":4026:4060  Staker[_to][_mintAddress][TokenId] */\n      0x00\n        /* \"contracts/Defly/NFTtesting.sol\":4052:4059  TokenId */\n      dup7\n        /* \"contracts/Defly/NFTtesting.sol\":4026:4060  Staker[_to][_mintAddress][TokenId] */\n      dup2\n      mstore\n      0x20\n      add\n      swap1\n      dup2\n      mstore\n      0x20\n      add\n      0x00\n      keccak256\n        /* \"contracts/Defly/NFTtesting.sol\":4026:4151  Staker[_to][_mintAddress][TokenId] = Detail(_mintAddress,(12500*_amount),Days,block.timestamp,TokenId,countDeposit[_to],true) */\n      0x00\n      dup3\n      add\n      mload\n      dup2\n      0x00\n      add\n      exp(0x0100, 0x00)\n      dup2\n      sload\n      dup2\n      0xffffffffffffffffffffffffffffffffffffffff\n      mul\n      not\n      and\n      swap1\n      dup4\n      0xffffffffffffffffffffffffffffffffffffffff\n      and\n      mul\n      or\n      swap1\n      sstore\n      pop\n      0x20\n      dup3\n      add\n      mload\n      dup2\n      0x01\n      add\n      sstore\n      0x40\n      dup3\n      add\n      mload\n      dup2\n      0x02\n      add\n      sstore\n      0x60\n      dup3\n      add\n      mload\n      dup2\n      0x03\n      add\n      sstore\n      0x80\n      dup3\n      add\n      mload\n      dup2\n      0x04\n      add\n      sstore\n      0xa0\n      dup3\n      add\n      mload\n      dup2\n      0x05\n      add\n      sstore\n      0xc0\n      dup3\n      add\n      mload\n      dup2\n      0x06\n      add\n      exp(0x0100, 0x00)\n      dup2\n      sload\n      dup2\n      0xff\n      mul\n      not\n      and\n      swap1\n      dup4\n      iszero\n      iszero\n      mul\n      or\n      swap1\n      sstore\n      pop\n      swap1\n      pop\n      pop\n        /* \"contracts/Defly/NFTtesting.sol\":4205:4235  ERCCount(TokenId,_mintAddress) */\n      mload(0x40)\n      dup1\n      0x40\n      add\n      0x40\n      mstore\n      dup1\n        /* \"contracts/Defly/NFTtesting.sol\":4214:4221  TokenId */\n      dup6\n        /* \"contracts/Defly/NFTtesting.sol\":4205:4235  ERCCount(TokenId,_mintAddress) */\n      dup2\n      mstore\n      0x20\n      add\n        /* \"contracts/Defly/NFTtesting.sol\":4222:4234  _mintAddress */\n      dup3\n        /* \"contracts/Defly/NFTtesting.sol\":4205:4235  ERCCount(TokenId,_mintAddress) */\n      0xffffffffffffffffffffffffffffffffffffffff\n      and\n      dup2\n      mstore\n      pop\n        /* \"contracts/Defly/NFTtesting.sol\":4169:4178  ERCDetail */\n      0x0a\n        /* \"contracts/Defly/NFTtesting.sol\":4169:4183  ERCDetail[_to] */\n      0x00\n        /* \"contracts/Defly/NFTtesting.sol\":4179:4182  _to */\n      dup5\n        /* \"contracts/Defly/NFTtesting.sol\":4169:4183  ERCDetail[_to] */\n      0xffffffffffffffffffffffffffffffffffffffff\n      and\n      0xffffffffffffffffffffffffffffffffffffffff\n      and\n      dup2\n      mstore\n      0x20\n      add\n      swap1\n      dup2\n      mstore\n      0x20\n      add\n      0x00\n      keccak256\n        /* \"contracts/Defly/NFTtesting.sol\":4169:4202  ERCDetail[_to][countDeposit[_to]] */\n      0x00\n        /* \"contracts/Defly/NFTtesting.sol\":4184:4196  countDeposit */\n      0x0c\n        /* \"contracts/Defly/NFTtesting.sol\":4184:4201  countDeposit[_to] */\n      0x00\n        /* \"contracts/Defly/NFTtesting.sol\":4197:4200  _to */\n      dup7\n        /* \"contracts/Defly/NFTtesting.sol\":4184:4201  countDeposit[_to] */\n      0xffffffffffffffffffffffffffffffffffffffff\n      and\n      0xffffffffffffffffffffffffffffffffffffffff\n      and\n      dup2\n      mstore\n      0x20\n      add\n      swap1\n      dup2\n      mstore\n      0x20\n      add\n      0x00\n      keccak256\n      sload\n        /* \"contracts/Defly/NFTtesting.sol\":4169:4202  ERCDetail[_to][countDeposit[_to]] */\n      dup2\n      mstore\n      0x20\n      add\n      swap1\n      dup2\n      mstore\n      0x20\n      add\n      0x00\n      keccak256\n        /* \"contracts/Defly/NFTtesting.sol\":4169:4235  ERCDetail[_to][countDeposit[_to]] = ERCCount(TokenId,_mintAddress) */\n      0x00\n      dup3\n      add\n      mload\n      dup2\n      0x00\n      add\n      sstore\n      0x20\n      dup3\n      add\n      mload\n      dup2\n      0x01\n      add\n      exp(0x0100, 0x00)\n      dup2\n      sload\n      dup2\n      0xffffffffffffffffffffffffffffffffffffffff\n      mul\n      not\n      and\n      swap1\n      dup4\n      0xffffffffffffffffffffffffffffffffffffffff\n      and\n      mul\n      or\n      swap1\n      sstore\n      pop\n      swap1\n      pop\n      pop\n        /* \"contracts/Defly/NFTtesting.sol\":4284:4296  countDeposit */\n      0x0c\n        /* \"contracts/Defly/NFTtesting.sol\":4284:4301  countDeposit[_to] */\n      0x00\n        /* \"contracts/Defly/NFTtesting.sol\":4297:4300  _to */\n      dup4\n        /* \"contracts/Defly/NFTtesting.sol\":4284:4301  countDeposit[_to] */\n      0xffffffffffffffffffffffffffffffffffffffff\n      and\n      0xffffffffffffffffffffffffffffffffffffffff\n      and\n      dup2\n      mstore\n      0x20\n      add\n      swap1\n      dup2\n      mstore\n      0x20\n      add\n      0x00\n      keccak256\n      sload\n        /* \"contracts/Defly/NFTtesting.sol\":4253:4258  Count */\n      0x0b\n        /* \"contracts/Defly/NFTtesting.sol\":4253:4272  Count[_mintAddress] */\n      0x00\n        /* \"contracts/Defly/NFTtesting.sol\":4259:4271  _mintAddress */\n      dup4\n        /* \"contracts/Defly/NFTtesting.sol\":4253:4272  Count[_mintAddress] */\n      0xffffffffffffffffffffffffffffffffffffffff\n      and\n      0xffffffffffffffffffffffffffffffffffffffff\n      and\n      dup2\n      mstore\n      0x20\n      add\n      swap1\n      dup2\n      mstore\n      0x20\n      add\n      0x00\n      keccak256\n        /* \"contracts/Defly/NFTtesting.sol\":4253:4281  Count[_mintAddress][TokenId] */\n      0x00\n        /* \"contracts/Defly/NFTtesting.sol\":4273:4280  TokenId */\n      dup7\n        /* \"contracts/Defly/NFTtesting.sol\":4253:4281  Count[_mintAddress][TokenId] */\n      dup2\n      mstore\n      0x20\n      add\n      swap1\n      dup2\n      mstore\n      0x20\n      add\n      0x00\n      keccak256\n        /* \"contracts/Defly/NFTtesting.sol\":4253:4301  Count[_mintAddress][TokenId] = countDeposit[_to] */\n      dup2\n      swap1\n      sstore\n      pop\n        /* \"contracts/Defly/NFTtesting.sol\":4341:4342  1 */\n      0x01\n        /* \"contracts/Defly/NFTtesting.sol\":4320:4332  countDeposit */\n      0x0c\n        /* \"contracts/Defly/NFTtesting.sol\":4320:4337  countDeposit[_to] */\n      0x00\n        /* \"contracts/Defly/NFTtesting.sol\":4333:4336  _to */\n      dup5\n        /* \"contracts/Defly/NFTtesting.sol\":4320:4337  countDeposit[_to] */\n      0xffffffffffffffffffffffffffffffffffffffff\n      and\n      0xffffffffffffffffffffffffffffffffffffffff\n      and\n      dup2\n      mstore\n      0x20\n      add\n      swap1\n      dup2\n      mstore\n      0x20\n      add\n      0x00\n      keccak256\n      0x00\n        /* \"contracts/Defly/NFTtesting.sol\":4320:4342  countDeposit[_to] += 1 */\n      dup3\n      dup3\n      sload\n      tag_150\n      swap2\n      swap1\n      tag_117\n      jump\t// in\n    tag_150:\n      swap3\n      pop\n      pop\n      dup2\n      swap1\n      sstore\n      pop\n        /* \"contracts/Defly/NFTtesting.sol\":3960:4542  if(Staker[_to][_mintAddress][TokenId].NFT == 0 ){... */\n      jump(tag_151)\n    tag_148:\n        /* \"contracts/Defly/NFTtesting.sol\":4416:4527  Detail(_mintAddress,(12500*_amount),Days,block.timestamp,TokenId,Staker[_to][_mintAddress][TokenId].count,true) */\n      mload(0x40)\n      dup1\n      0xe0\n      add\n      0x40\n      mstore\n      dup1\n        /* \"contracts/Defly/NFTtesting.sol\":4423:4435  _mintAddress */\n      dup3\n        /* \"contracts/Defly/NFTtesting.sol\":4416:4527  Detail(_mintAddress,(12500*_amount),Days,block.timestamp,TokenId,Staker[_to][_mintAddress][TokenId].count,true) */\n      0xffffffffffffffffffffffffffffffffffffffff\n      and\n      dup2\n      mstore\n      0x20\n      add\n        /* \"contracts/Defly/NFTtesting.sol\":4443:4450  _amount */\n      sload(0x08)\n        /* \"contracts/Defly/NFTtesting.sol\":4437:4442  12500 */\n      0x30d4\n        /* \"contracts/Defly/NFTtesting.sol\":4437:4450  12500*_amount */\n      tag_152\n      swap2\n      swap1\n      tag_115\n      jump\t// in\n    tag_152:\n        /* \"contracts/Defly/NFTtesting.sol\":4416:4527  Detail(_mintAddress,(12500*_amount),Days,block.timestamp,TokenId,Staker[_to][_mintAddress][TokenId].count,true) */\n      dup2\n      mstore\n      0x20\n      add\n        /* \"contracts/Defly/NFTtesting.sol\":4452:4456  Days */\n      dup5\n        /* \"contracts/Defly/NFTtesting.sol\":4416:4527  Detail(_mintAddress,(12500*_amount),Days,block.timestamp,TokenId,Staker[_to][_mintAddress][TokenId].count,true) */\n      dup2\n      mstore\n      0x20\n      add\n        /* \"contracts/Defly/NFTtesting.sol\":4457:4472  block.timestamp */\n      timestamp\n        /* \"contracts/Defly/NFTtesting.sol\":4416:4527  Detail(_mintAddress,(12500*_amount),Days,block.timestamp,TokenId,Staker[_to][_mintAddress][TokenId].count,true) */\n      dup2\n      mstore\n      0x20\n      add\n        /* \"contracts/Defly/NFTtesting.sol\":4473:4480  TokenId */\n      dup6\n        /* \"contracts/Defly/NFTtesting.sol\":4416:4527  Detail(_mintAddress,(12500*_amount),Days,block.timestamp,TokenId,Staker[_to][_mintAddress][TokenId].count,true) */\n      dup2\n      mstore\n      0x20\n      add\n        /* \"contracts/Defly/NFTtesting.sol\":4481:4487  Staker */\n      0x09\n        /* \"contracts/Defly/NFTtesting.sol\":4481:4492  Staker[_to] */\n      0x00\n        /* \"contracts/Defly/NFTtesting.sol\":4488:4491  _to */\n      dup6\n        /* \"contracts/Defly/NFTtesting.sol\":4481:4492  Staker[_to] */\n      0xffffffffffffffffffffffffffffffffffffffff\n      and\n      0xffffffffffffffffffffffffffffffffffffffff\n      and\n      dup2\n      mstore\n      0x20\n      add\n      swap1\n      dup2\n      mstore\n      0x20\n      add\n      0x00\n      keccak256\n        /* \"contracts/Defly/NFTtesting.sol\":4481:4506  Staker[_to][_mintAddress] */\n      0x00\n        /* \"contracts/Defly/NFTtesting.sol\":4493:4505  _mintAddress */\n      dup5\n        /* \"contracts/Defly/NFTtesting.sol\":4481:4506  Staker[_to][_mintAddress] */\n      0xffffffffffffffffffffffffffffffffffffffff\n      and\n      0xffffffffffffffffffffffffffffffffffffffff\n      and\n      dup2\n      mstore\n      0x20\n      add\n      swap1\n      dup2\n      mstore\n      0x20\n      add\n      0x00\n      keccak256\n        /* \"contracts/Defly/NFTtesting.sol\":4481:4515  Staker[_to][_mintAddress][TokenId] */\n      0x00\n        /* \"contracts/Defly/NFTtesting.sol\":4507:4514  TokenId */\n      dup8\n        /* \"contracts/Defly/NFTtesting.sol\":4481:4515  Staker[_to][_mintAddress][TokenId] */\n      dup2\n      mstore\n      0x20\n      add\n      swap1\n      dup2\n      mstore\n      0x20\n      add\n      0x00\n      keccak256\n        /* \"contracts/Defly/NFTtesting.sol\":4481:4521  Staker[_to][_mintAddress][TokenId].count */\n      0x05\n      add\n      sload\n        /* \"contracts/Defly/NFTtesting.sol\":4416:4527  Detail(_mintAddress,(12500*_amount),Days,block.timestamp,TokenId,Staker[_to][_mintAddress][TokenId].count,true) */\n      dup2\n      mstore\n      0x20\n      add\n        /* \"contracts/Defly/NFTtesting.sol\":4522:4526  true */\n      0x01\n        /* \"contracts/Defly/NFTtesting.sol\":4416:4527  Detail(_mintAddress,(12500*_amount),Days,block.timestamp,TokenId,Staker[_to][_mintAddress][TokenId].count,true) */\n      iszero\n      iszero\n      dup2\n      mstore\n      pop\n        /* \"contracts/Defly/NFTtesting.sol\":4379:4385  Staker */\n      0x09\n        /* \"contracts/Defly/NFTtesting.sol\":4379:4390  Staker[_to] */\n      0x00\n        /* \"contracts/Defly/NFTtesting.sol\":4386:4389  _to */\n      dup5\n        /* \"contracts/Defly/NFTtesting.sol\":4379:4390  Staker[_to] */\n      0xffffffffffffffffffffffffffffffffffffffff\n      and\n      0xffffffffffffffffffffffffffffffffffffffff\n      and\n      dup2\n      mstore\n      0x20\n      add\n      swap1\n      dup2\n      mstore\n      0x20\n      add\n      0x00\n      keccak256\n        /* \"contracts/Defly/NFTtesting.sol\":4379:4404  Staker[_to][_mintAddress] */\n      0x00\n        /* \"contracts/Defly/NFTtesting.sol\":4391:4403  _mintAddress */\n      dup4\n        /* \"contracts/Defly/NFTtesting.sol\":4379:4404  Staker[_to][_mintAddress] */\n      0xffffffffffffffffffffffffffffffffffffffff\n      and\n      0xffffffffffffffffffffffffffffffffffffffff\n      and\n      dup2\n      mstore\n      0x20\n      add\n      swap1\n      dup2\n      mstore\n      0x20\n      add\n      0x00\n      keccak256\n        /* \"contracts/Defly/NFTtesting.sol\":4379:4413  Staker[_to][_mintAddress][TokenId] */\n      0x00\n        /* \"contracts/Defly/NFTtesting.sol\":4405:4412  TokenId */\n      dup7\n        /* \"contracts/Defly/NFTtesting.sol\":4379:4413  Staker[_to][_mintAddress][TokenId] */\n      dup2\n      mstore\n      0x20\n      add\n      swap1\n      dup2\n      mstore\n      0x20\n      add\n      0x00\n      keccak256\n        /* \"contracts/Defly/NFTtesting.sol\":4379:4527  Staker[_to][_mintAddress][TokenId] = Detail(_mintAddress,(12500*_amount),Days,block.timestamp,TokenId,Staker[_to][_mintAddress][TokenId].count,true) */\n      0x00\n      dup3\n      add\n      mload\n      dup2\n      0x00\n      add\n      exp(0x0100, 0x00)\n      dup2\n      sload\n      dup2\n      0xffffffffffffffffffffffffffffffffffffffff\n      mul\n      not\n      and\n      swap1\n      dup4\n      0xffffffffffffffffffffffffffffffffffffffff\n      and\n      mul\n      or\n      swap1\n      sstore\n      pop\n      0x20\n      dup3\n      add\n      mload\n      dup2\n      0x01\n      add\n      sstore\n      0x40\n      dup3\n      add\n      mload\n      dup2\n      0x02\n      add\n      sstore\n      0x60\n      dup3\n      add\n      mload\n      dup2\n      0x03\n      add\n      sstore\n      0x80\n      dup3\n      add\n      mload\n      dup2\n      0x04\n      add\n      sstore\n      0xa0\n      dup3\n      add\n      mload\n      dup2\n      0x05\n      add\n      sstore\n      0xc0\n      dup3\n      add\n      mload\n      dup2\n      0x06\n      add\n      exp(0x0100, 0x00)\n      dup2\n      sload\n      dup2\n      0xff\n      mul\n      not\n      and\n      swap1\n      dup4\n      iszero\n      iszero\n      mul\n      or\n      swap1\n      sstore\n      pop\n      swap1\n      pop\n      pop\n        /* \"contracts/Defly/NFTtesting.sol\":3960:4542  if(Staker[_to][_mintAddress][TokenId].NFT == 0 ){... */\n    tag_151:\n        /* \"contracts/Defly/NFTtesting.sol\":4563:4575  _mintAddress */\n      dup1\n        /* \"contracts/Defly/NFTtesting.sol\":4555:4593  IERC721(_mintAddress).safeTransferFrom */\n      0xffffffffffffffffffffffffffffffffffffffff\n      and\n      0xb88d4fde\n        /* \"contracts/Defly/NFTtesting.sol\":4594:4597  _to */\n      dup4\n        /* \"contracts/Defly/NFTtesting.sol\":4606:4610  this */\n      address\n        /* \"contracts/Defly/NFTtesting.sol\":4612:4619  TokenId */\n      dup8\n        /* \"contracts/Defly/NFTtesting.sol\":4555:4623  IERC721(_mintAddress).safeTransferFrom(_to,address(this),TokenId,\"\") */\n      mload(0x40)\n      dup5\n      0xffffffff\n      and\n      0xe0\n      shl\n      dup2\n      mstore\n      0x04\n      add\n      tag_153\n      swap4\n      swap3\n      swap2\n      swap1\n      tag_121\n      jump\t// in\n    tag_153:\n      0x00\n      mload(0x40)\n      dup1\n      dup4\n      sub\n      dup2\n      0x00\n      dup8\n      dup1\n      extcodesize\n      iszero\n      dup1\n      iszero\n      tag_154\n      jumpi\n      0x00\n      dup1\n      revert\n    tag_154:\n      pop\n      gas\n      call\n      iszero\n      dup1\n      iszero\n      tag_156\n      jumpi\n      returndatasize\n      0x00\n      dup1\n      returndatacopy\n      revert(0x00, returndatasize)\n    tag_156:\n      pop\n      pop\n      pop\n      pop\n        /* \"contracts/Defly/NFTtesting.sol\":3818:5540  if(Days == 60){... */\n      jump(tag_157)\n    tag_142:\n        /* \"contracts/Defly/NFTtesting.sol\":4659:4661  90 */\n      0x5a\n        /* \"contracts/Defly/NFTtesting.sol\":4651:4655  Days */\n      dup4\n        /* \"contracts/Defly/NFTtesting.sol\":4651:4661  Days == 90 */\n      sub\n        /* \"contracts/Defly/NFTtesting.sol\":4648:5540  if(Days == 90){... */\n      tag_158\n      jumpi\n        /* \"contracts/Defly/NFTtesting.sol\":4676:4697  category4.increment() */\n      tag_159\n        /* \"contracts/Defly/NFTtesting.sol\":4676:4685  category4 */\n      0x04\n        /* \"contracts/Defly/NFTtesting.sol\":4676:4695  category4.increment */\n      tag_107\n        /* \"contracts/Defly/NFTtesting.sol\":4676:4697  category4.increment() */\n      jump\t// in\n    tag_159:\n        /* \"contracts/Defly/NFTtesting.sol\":4741:4744  250 */\n      0xfa\n        /* \"contracts/Defly/NFTtesting.sol\":4719:4738  category4.current() */\n      tag_160\n        /* \"contracts/Defly/NFTtesting.sol\":4719:4728  category4 */\n      0x04\n        /* \"contracts/Defly/NFTtesting.sol\":4719:4736  category4.current */\n      tag_109\n        /* \"contracts/Defly/NFTtesting.sol\":4719:4738  category4.current() */\n      jump\t// in\n    tag_160:\n        /* \"contracts/Defly/NFTtesting.sol\":4719:4744  category4.current() <=250 */\n      gt\n      iszero\n        /* \"contracts/Defly/NFTtesting.sol\":4711:4776  require(category4.current() <=250,\"90 Days Category is Full !!!\") */\n      tag_161\n      jumpi\n      mload(0x40)\n      0x08c379a000000000000000000000000000000000000000000000000000000000\n      dup2\n      mstore\n      0x04\n      add\n      tag_162\n      swap1\n      tag_163\n      jump\t// in\n    tag_162:\n      mload(0x40)\n      dup1\n      swap2\n      sub\n      swap1\n      revert\n    tag_161:\n        /* \"contracts/Defly/NFTtesting.sol\":4835:4836  0 */\n      0x00\n        /* \"contracts/Defly/NFTtesting.sol\":4793:4799  Staker */\n      0x09\n        /* \"contracts/Defly/NFTtesting.sol\":4793:4804  Staker[_to] */\n      0x00\n        /* \"contracts/Defly/NFTtesting.sol\":4800:4803  _to */\n      dup5\n        /* \"contracts/Defly/NFTtesting.sol\":4793:4804  Staker[_to] */\n      0xffffffffffffffffffffffffffffffffffffffff\n      and\n      0xffffffffffffffffffffffffffffffffffffffff\n      and\n      dup2\n      mstore\n      0x20\n      add\n      swap1\n      dup2\n      mstore\n      0x20\n      add\n      0x00\n      keccak256\n        /* \"contracts/Defly/NFTtesting.sol\":4793:4818  Staker[_to][_mintAddress] */\n      0x00\n        /* \"contracts/Defly/NFTtesting.sol\":4805:4817  _mintAddress */\n      dup4\n        /* \"contracts/Defly/NFTtesting.sol\":4793:4818  Staker[_to][_mintAddress] */\n      0xffffffffffffffffffffffffffffffffffffffff\n      and\n      0xffffffffffffffffffffffffffffffffffffffff\n      and\n      dup2\n      mstore\n      0x20\n      add\n      swap1\n      dup2\n      mstore\n      0x20\n      add\n      0x00\n      keccak256\n        /* \"contracts/Defly/NFTtesting.sol\":4793:4827  Staker[_to][_mintAddress][TokenId] */\n      0x00\n        /* \"contracts/Defly/NFTtesting.sol\":4819:4826  TokenId */\n      dup7\n        /* \"contracts/Defly/NFTtesting.sol\":4793:4827  Staker[_to][_mintAddress][TokenId] */\n      dup2\n      mstore\n      0x20\n      add\n      swap1\n      dup2\n      mstore\n      0x20\n      add\n      0x00\n      keccak256\n        /* \"contracts/Defly/NFTtesting.sol\":4793:4831  Staker[_to][_mintAddress][TokenId].NFT */\n      0x04\n      add\n      sload\n        /* \"contracts/Defly/NFTtesting.sol\":4793:4836  Staker[_to][_mintAddress][TokenId].NFT == 0 */\n      sub\n        /* \"contracts/Defly/NFTtesting.sol\":4790:5372  if(Staker[_to][_mintAddress][TokenId].NFT == 0 ){... */\n      tag_164\n      jumpi\n        /* \"contracts/Defly/NFTtesting.sol\":4893:4981  Detail(_mintAddress,(17500*_amount),Days,block.timestamp,TokenId,countDeposit[_to],true) */\n      mload(0x40)\n      dup1\n      0xe0\n      add\n      0x40\n      mstore\n      dup1\n        /* \"contracts/Defly/NFTtesting.sol\":4900:4912  _mintAddress */\n      dup3\n        /* \"contracts/Defly/NFTtesting.sol\":4893:4981  Detail(_mintAddress,(17500*_amount),Days,block.timestamp,TokenId,countDeposit[_to],true) */\n      0xffffffffffffffffffffffffffffffffffffffff\n      and\n      dup2\n      mstore\n      0x20\n      add\n        /* \"contracts/Defly/NFTtesting.sol\":4920:4927  _amount */\n      sload(0x08)\n        /* \"contracts/Defly/NFTtesting.sol\":4914:4919  17500 */\n      0x445c\n        /* \"contracts/Defly/NFTtesting.sol\":4914:4927  17500*_amount */\n      tag_165\n      swap2\n      swap1\n      tag_115\n      jump\t// in\n    tag_165:\n        /* \"contracts/Defly/NFTtesting.sol\":4893:4981  Detail(_mintAddress,(17500*_amount),Days,block.timestamp,TokenId,countDeposit[_to],true) */\n      dup2\n      mstore\n      0x20\n      add\n        /* \"contracts/Defly/NFTtesting.sol\":4929:4933  Days */\n      dup5\n        /* \"contracts/Defly/NFTtesting.sol\":4893:4981  Detail(_mintAddress,(17500*_amount),Days,block.timestamp,TokenId,countDeposit[_to],true) */\n      dup2\n      mstore\n      0x20\n      add\n        /* \"contracts/Defly/NFTtesting.sol\":4934:4949  block.timestamp */\n      timestamp\n        /* \"contracts/Defly/NFTtesting.sol\":4893:4981  Detail(_mintAddress,(17500*_amount),Days,block.timestamp,TokenId,countDeposit[_to],true) */\n      dup2\n      mstore\n      0x20\n      add\n        /* \"contracts/Defly/NFTtesting.sol\":4950:4957  TokenId */\n      dup6\n        /* \"contracts/Defly/NFTtesting.sol\":4893:4981  Detail(_mintAddress,(17500*_amount),Days,block.timestamp,TokenId,countDeposit[_to],true) */\n      dup2\n      mstore\n      0x20\n      add\n        /* \"contracts/Defly/NFTtesting.sol\":4958:4970  countDeposit */\n      0x0c\n        /* \"contracts/Defly/NFTtesting.sol\":4958:4975  countDeposit[_to] */\n      0x00\n        /* \"contracts/Defly/NFTtesting.sol\":4971:4974  _to */\n      dup6\n        /* \"contracts/Defly/NFTtesting.sol\":4958:4975  countDeposit[_to] */\n      0xffffffffffffffffffffffffffffffffffffffff\n      and\n      0xffffffffffffffffffffffffffffffffffffffff\n      and\n      dup2\n      mstore\n      0x20\n      add\n      swap1\n      dup2\n      mstore\n      0x20\n      add\n      0x00\n      keccak256\n      sload\n        /* \"contracts/Defly/NFTtesting.sol\":4893:4981  Detail(_mintAddress,(17500*_amount),Days,block.timestamp,TokenId,countDeposit[_to],true) */\n      dup2\n      mstore\n      0x20\n      add\n        /* \"contracts/Defly/NFTtesting.sol\":4976:4980  true */\n      0x01\n        /* \"contracts/Defly/NFTtesting.sol\":4893:4981  Detail(_mintAddress,(17500*_amount),Days,block.timestamp,TokenId,countDeposit[_to],true) */\n      iszero\n      iszero\n      dup2\n      mstore\n      pop\n        /* \"contracts/Defly/NFTtesting.sol\":4856:4862  Staker */\n      0x09\n        /* \"contracts/Defly/NFTtesting.sol\":4856:4867  Staker[_to] */\n      0x00\n        /* \"contracts/Defly/NFTtesting.sol\":4863:4866  _to */\n      dup5\n        /* \"contracts/Defly/NFTtesting.sol\":4856:4867  Staker[_to] */\n      0xffffffffffffffffffffffffffffffffffffffff\n      and\n      0xffffffffffffffffffffffffffffffffffffffff\n      and\n      dup2\n      mstore\n      0x20\n      add\n      swap1\n      dup2\n      mstore\n      0x20\n      add\n      0x00\n      keccak256\n        /* \"contracts/Defly/NFTtesting.sol\":4856:4881  Staker[_to][_mintAddress] */\n      0x00\n        /* \"contracts/Defly/NFTtesting.sol\":4868:4880  _mintAddress */\n      dup4\n        /* \"contracts/Defly/NFTtesting.sol\":4856:4881  Staker[_to][_mintAddress] */\n      0xffffffffffffffffffffffffffffffffffffffff\n      and\n      0xffffffffffffffffffffffffffffffffffffffff\n      and\n      dup2\n      mstore\n      0x20\n      add\n      swap1\n      dup2\n      mstore\n      0x20\n      add\n      0x00\n      keccak256\n        /* \"contracts/Defly/NFTtesting.sol\":4856:4890  Staker[_to][_mintAddress][TokenId] */\n      0x00\n        /* \"contracts/Defly/NFTtesting.sol\":4882:4889  TokenId */\n      dup7\n        /* \"contracts/Defly/NFTtesting.sol\":4856:4890  Staker[_to][_mintAddress][TokenId] */\n      dup2\n      mstore\n      0x20\n      add\n      swap1\n      dup2\n      mstore\n      0x20\n      add\n      0x00\n      keccak256\n        /* \"contracts/Defly/NFTtesting.sol\":4856:4981  Staker[_to][_mintAddress][TokenId] = Detail(_mintAddress,(17500*_amount),Days,block.timestamp,TokenId,countDeposit[_to],true) */\n      0x00\n      dup3\n      add\n      mload\n      dup2\n      0x00\n      add\n      exp(0x0100, 0x00)\n      dup2\n      sload\n      dup2\n      0xffffffffffffffffffffffffffffffffffffffff\n      mul\n      not\n      and\n      swap1\n      dup4\n      0xffffffffffffffffffffffffffffffffffffffff\n      and\n      mul\n      or\n      swap1\n      sstore\n      pop\n      0x20\n      dup3\n      add\n      mload\n      dup2\n      0x01\n      add\n      sstore\n      0x40\n      dup3\n      add\n      mload\n      dup2\n      0x02\n      add\n      sstore\n      0x60\n      dup3\n      add\n      mload\n      dup2\n      0x03\n      add\n      sstore\n      0x80\n      dup3\n      add\n      mload\n      dup2\n      0x04\n      add\n      sstore\n      0xa0\n      dup3\n      add\n      mload\n      dup2\n      0x05\n      add\n      sstore\n      0xc0\n      dup3\n      add\n      mload\n      dup2\n      0x06\n      add\n      exp(0x0100, 0x00)\n      dup2\n      sload\n      dup2\n      0xff\n      mul\n      not\n      and\n      swap1\n      dup4\n      iszero\n      iszero\n      mul\n      or\n      swap1\n      sstore\n      pop\n      swap1\n      pop\n      pop\n        /* \"contracts/Defly/NFTtesting.sol\":5035:5065  ERCCount(TokenId,_mintAddress) */\n      mload(0x40)\n      dup1\n      0x40\n      add\n      0x40\n      mstore\n      dup1\n        /* \"contracts/Defly/NFTtesting.sol\":5044:5051  TokenId */\n      dup6\n        /* \"contracts/Defly/NFTtesting.sol\":5035:5065  ERCCount(TokenId,_mintAddress) */\n      dup2\n      mstore\n      0x20\n      add\n        /* \"contracts/Defly/NFTtesting.sol\":5052:5064  _mintAddress */\n      dup3\n        /* \"contracts/Defly/NFTtesting.sol\":5035:5065  ERCCount(TokenId,_mintAddress) */\n      0xffffffffffffffffffffffffffffffffffffffff\n      and\n      dup2\n      mstore\n      pop\n        /* \"contracts/Defly/NFTtesting.sol\":4999:5008  ERCDetail */\n      0x0a\n        /* \"contracts/Defly/NFTtesting.sol\":4999:5013  ERCDetail[_to] */\n      0x00\n        /* \"contracts/Defly/NFTtesting.sol\":5009:5012  _to */\n      dup5\n        /* \"contracts/Defly/NFTtesting.sol\":4999:5013  ERCDetail[_to] */\n      0xffffffffffffffffffffffffffffffffffffffff\n      and\n      0xffffffffffffffffffffffffffffffffffffffff\n      and\n      dup2\n      mstore\n      0x20\n      add\n      swap1\n      dup2\n      mstore\n      0x20\n      add\n      0x00\n      keccak256\n        /* \"contracts/Defly/NFTtesting.sol\":4999:5032  ERCDetail[_to][countDeposit[_to]] */\n      0x00\n        /* \"contracts/Defly/NFTtesting.sol\":5014:5026  countDeposit */\n      0x0c\n        /* \"contracts/Defly/NFTtesting.sol\":5014:5031  countDeposit[_to] */\n      0x00\n        /* \"contracts/Defly/NFTtesting.sol\":5027:5030  _to */\n      dup7\n        /* \"contracts/Defly/NFTtesting.sol\":5014:5031  countDeposit[_to] */\n      0xffffffffffffffffffffffffffffffffffffffff\n      and\n      0xffffffffffffffffffffffffffffffffffffffff\n      and\n      dup2\n      mstore\n      0x20\n      add\n      swap1\n      dup2\n      mstore\n      0x20\n      add\n      0x00\n      keccak256\n      sload\n        /* \"contracts/Defly/NFTtesting.sol\":4999:5032  ERCDetail[_to][countDeposit[_to]] */\n      dup2\n      mstore\n      0x20\n      add\n      swap1\n      dup2\n      mstore\n      0x20\n      add\n      0x00\n      keccak256\n        /* \"contracts/Defly/NFTtesting.sol\":4999:5065  ERCDetail[_to][countDeposit[_to]] = ERCCount(TokenId,_mintAddress) */\n      0x00\n      dup3\n      add\n      mload\n      dup2\n      0x00\n      add\n      sstore\n      0x20\n      dup3\n      add\n      mload\n      dup2\n      0x01\n      add\n      exp(0x0100, 0x00)\n      dup2\n      sload\n      dup2\n      0xffffffffffffffffffffffffffffffffffffffff\n      mul\n      not\n      and\n      swap1\n      dup4\n      0xffffffffffffffffffffffffffffffffffffffff\n      and\n      mul\n      or\n      swap1\n      sstore\n      pop\n      swap1\n      pop\n      pop\n        /* \"contracts/Defly/NFTtesting.sol\":5114:5126  countDeposit */\n      0x0c\n        /* \"contracts/Defly/NFTtesting.sol\":5114:5131  countDeposit[_to] */\n      0x00\n        /* \"contracts/Defly/NFTtesting.sol\":5127:5130  _to */\n      dup4\n        /* \"contracts/Defly/NFTtesting.sol\":5114:5131  countDeposit[_to] */\n      0xffffffffffffffffffffffffffffffffffffffff\n      and\n      0xffffffffffffffffffffffffffffffffffffffff\n      and\n      dup2\n      mstore\n      0x20\n      add\n      swap1\n      dup2\n      mstore\n      0x20\n      add\n      0x00\n      keccak256\n      sload\n        /* \"contracts/Defly/NFTtesting.sol\":5083:5088  Count */\n      0x0b\n        /* \"contracts/Defly/NFTtesting.sol\":5083:5102  Count[_mintAddress] */\n      0x00\n        /* \"contracts/Defly/NFTtesting.sol\":5089:5101  _mintAddress */\n      dup4\n        /* \"contracts/Defly/NFTtesting.sol\":5083:5102  Count[_mintAddress] */\n      0xffffffffffffffffffffffffffffffffffffffff\n      and\n      0xffffffffffffffffffffffffffffffffffffffff\n      and\n      dup2\n      mstore\n      0x20\n      add\n      swap1\n      dup2\n      mstore\n      0x20\n      add\n      0x00\n      keccak256\n        /* \"contracts/Defly/NFTtesting.sol\":5083:5111  Count[_mintAddress][TokenId] */\n      0x00\n        /* \"contracts/Defly/NFTtesting.sol\":5103:5110  TokenId */\n      dup7\n        /* \"contracts/Defly/NFTtesting.sol\":5083:5111  Count[_mintAddress][TokenId] */\n      dup2\n      mstore\n      0x20\n      add\n      swap1\n      dup2\n      mstore\n      0x20\n      add\n      0x00\n      keccak256\n        /* \"contracts/Defly/NFTtesting.sol\":5083:5131  Count[_mintAddress][TokenId] = countDeposit[_to] */\n      dup2\n      swap1\n      sstore\n      pop\n        /* \"contracts/Defly/NFTtesting.sol\":5171:5172  1 */\n      0x01\n        /* \"contracts/Defly/NFTtesting.sol\":5150:5162  countDeposit */\n      0x0c\n        /* \"contracts/Defly/NFTtesting.sol\":5150:5167  countDeposit[_to] */\n      0x00\n        /* \"contracts/Defly/NFTtesting.sol\":5163:5166  _to */\n      dup5\n        /* \"contracts/Defly/NFTtesting.sol\":5150:5167  countDeposit[_to] */\n      0xffffffffffffffffffffffffffffffffffffffff\n      and\n      0xffffffffffffffffffffffffffffffffffffffff\n      and\n      dup2\n      mstore\n      0x20\n      add\n      swap1\n      dup2\n      mstore\n      0x20\n      add\n      0x00\n      keccak256\n      0x00\n        /* \"contracts/Defly/NFTtesting.sol\":5150:5172  countDeposit[_to] += 1 */\n      dup3\n      dup3\n      sload\n      tag_166\n      swap2\n      swap1\n      tag_117\n      jump\t// in\n    tag_166:\n      swap3\n      pop\n      pop\n      dup2\n      swap1\n      sstore\n      pop\n        /* \"contracts/Defly/NFTtesting.sol\":4790:5372  if(Staker[_to][_mintAddress][TokenId].NFT == 0 ){... */\n      jump(tag_167)\n    tag_164:\n        /* \"contracts/Defly/NFTtesting.sol\":5246:5357  Detail(_mintAddress,(17500*_amount),Days,block.timestamp,TokenId,Staker[_to][_mintAddress][TokenId].count,true) */\n      mload(0x40)\n      dup1\n      0xe0\n      add\n      0x40\n      mstore\n      dup1\n        /* \"contracts/Defly/NFTtesting.sol\":5253:5265  _mintAddress */\n      dup3\n        /* \"contracts/Defly/NFTtesting.sol\":5246:5357  Detail(_mintAddress,(17500*_amount),Days,block.timestamp,TokenId,Staker[_to][_mintAddress][TokenId].count,true) */\n      0xffffffffffffffffffffffffffffffffffffffff\n      and\n      dup2\n      mstore\n      0x20\n      add\n        /* \"contracts/Defly/NFTtesting.sol\":5273:5280  _amount */\n      sload(0x08)\n        /* \"contracts/Defly/NFTtesting.sol\":5267:5272  17500 */\n      0x445c\n        /* \"contracts/Defly/NFTtesting.sol\":5267:5280  17500*_amount */\n      tag_168\n      swap2\n      swap1\n      tag_115\n      jump\t// in\n    tag_168:\n        /* \"contracts/Defly/NFTtesting.sol\":5246:5357  Detail(_mintAddress,(17500*_amount),Days,block.timestamp,TokenId,Staker[_to][_mintAddress][TokenId].count,true) */\n      dup2\n      mstore\n      0x20\n      add\n        /* \"contracts/Defly/NFTtesting.sol\":5282:5286  Days */\n      dup5\n        /* \"contracts/Defly/NFTtesting.sol\":5246:5357  Detail(_mintAddress,(17500*_amount),Days,block.timestamp,TokenId,Staker[_to][_mintAddress][TokenId].count,true) */\n      dup2\n      mstore\n      0x20\n      add\n        /* \"contracts/Defly/NFTtesting.sol\":5287:5302  block.timestamp */\n      timestamp\n        /* \"contracts/Defly/NFTtesting.sol\":5246:5357  Detail(_mintAddress,(17500*_amount),Days,block.timestamp,TokenId,Staker[_to][_mintAddress][TokenId].count,true) */\n      dup2\n      mstore\n      0x20\n      add\n        /* \"contracts/Defly/NFTtesting.sol\":5303:5310  TokenId */\n      dup6\n        /* \"contracts/Defly/NFTtesting.sol\":5246:5357  Detail(_mintAddress,(17500*_amount),Days,block.timestamp,TokenId,Staker[_to][_mintAddress][TokenId].count,true) */\n      dup2\n      mstore\n      0x20\n      add\n        /* \"contracts/Defly/NFTtesting.sol\":5311:5317  Staker */\n      0x09\n        /* \"contracts/Defly/NFTtesting.sol\":5311:5322  Staker[_to] */\n      0x00\n        /* \"contracts/Defly/NFTtesting.sol\":5318:5321  _to */\n      dup6\n        /* \"contracts/Defly/NFTtesting.sol\":5311:5322  Staker[_to] */\n      0xffffffffffffffffffffffffffffffffffffffff\n      and\n      0xffffffffffffffffffffffffffffffffffffffff\n      and\n      dup2\n      mstore\n      0x20\n      add\n      swap1\n      dup2\n      mstore\n      0x20\n      add\n      0x00\n      keccak256\n        /* \"contracts/Defly/NFTtesting.sol\":5311:5336  Staker[_to][_mintAddress] */\n      0x00\n        /* \"contracts/Defly/NFTtesting.sol\":5323:5335  _mintAddress */\n      dup5\n        /* \"contracts/Defly/NFTtesting.sol\":5311:5336  Staker[_to][_mintAddress] */\n      0xffffffffffffffffffffffffffffffffffffffff\n      and\n      0xffffffffffffffffffffffffffffffffffffffff\n      and\n      dup2\n      mstore\n      0x20\n      add\n      swap1\n      dup2\n      mstore\n      0x20\n      add\n      0x00\n      keccak256\n        /* \"contracts/Defly/NFTtesting.sol\":5311:5345  Staker[_to][_mintAddress][TokenId] */\n      0x00\n        /* \"contracts/Defly/NFTtesting.sol\":5337:5344  TokenId */\n      dup8\n        /* \"contracts/Defly/NFTtesting.sol\":5311:5345  Staker[_to][_mintAddress][TokenId] */\n      dup2\n      mstore\n      0x20\n      add\n      swap1\n      dup2\n      mstore\n      0x20\n      add\n      0x00\n      keccak256\n        /* \"contracts/Defly/NFTtesting.sol\":5311:5351  Staker[_to][_mintAddress][TokenId].count */\n      0x05\n      add\n      sload\n        /* \"contracts/Defly/NFTtesting.sol\":5246:5357  Detail(_mintAddress,(17500*_amount),Days,block.timestamp,TokenId,Staker[_to][_mintAddress][TokenId].count,true) */\n      dup2\n      mstore\n      0x20\n      add\n        /* \"contracts/Defly/NFTtesting.sol\":5352:5356  true */\n      0x01\n        /* \"contracts/Defly/NFTtesting.sol\":5246:5357  Detail(_mintAddress,(17500*_amount),Days,block.timestamp,TokenId,Staker[_to][_mintAddress][TokenId].count,true) */\n      iszero\n      iszero\n      dup2\n      mstore\n      pop\n        /* \"contracts/Defly/NFTtesting.sol\":5209:5215  Staker */\n      0x09\n        /* \"contracts/Defly/NFTtesting.sol\":5209:5220  Staker[_to] */\n      0x00\n        /* \"contracts/Defly/NFTtesting.sol\":5216:5219  _to */\n      dup5\n        /* \"contracts/Defly/NFTtesting.sol\":5209:5220  Staker[_to] */\n      0xffffffffffffffffffffffffffffffffffffffff\n      and\n      0xffffffffffffffffffffffffffffffffffffffff\n      and\n      dup2\n      mstore\n      0x20\n      add\n      swap1\n      dup2\n      mstore\n      0x20\n      add\n      0x00\n      keccak256\n        /* \"contracts/Defly/NFTtesting.sol\":5209:5234  Staker[_to][_mintAddress] */\n      0x00\n        /* \"contracts/Defly/NFTtesting.sol\":5221:5233  _mintAddress */\n      dup4\n        /* \"contracts/Defly/NFTtesting.sol\":5209:5234  Staker[_to][_mintAddress] */\n      0xffffffffffffffffffffffffffffffffffffffff\n      and\n      0xffffffffffffffffffffffffffffffffffffffff\n      and\n      dup2\n      mstore\n      0x20\n      add\n      swap1\n      dup2\n      mstore\n      0x20\n      add\n      0x00\n      keccak256\n        /* \"contracts/Defly/NFTtesting.sol\":5209:5243  Staker[_to][_mintAddress][TokenId] */\n      0x00\n        /* \"contracts/Defly/NFTtesting.sol\":5235:5242  TokenId */\n      dup7\n        /* \"contracts/Defly/NFTtesting.sol\":5209:5243  Staker[_to][_mintAddress][TokenId] */\n      dup2\n      mstore\n      0x20\n      add\n      swap1\n      dup2\n      mstore\n      0x20\n      add\n      0x00\n      keccak256\n        /* \"contracts/Defly/NFTtesting.sol\":5209:5357  Staker[_to][_mintAddress][TokenId] = Detail(_mintAddress,(17500*_amount),Days,block.timestamp,TokenId,Staker[_to][_mintAddress][TokenId].count,true) */\n      0x00\n      dup3\n      add\n      mload\n      dup2\n      0x00\n      add\n      exp(0x0100, 0x00)\n      dup2\n      sload\n      dup2\n      0xffffffffffffffffffffffffffffffffffffffff\n      mul\n      not\n      and\n      swap1\n      dup4\n      0xffffffffffffffffffffffffffffffffffffffff\n      and\n      mul\n      or\n      swap1\n      sstore\n      pop\n      0x20\n      dup3\n      add\n      mload\n      dup2\n      0x01\n      add\n      sstore\n      0x40\n      dup3\n      add\n      mload\n      dup2\n      0x02\n      add\n      sstore\n      0x60\n      dup3\n      add\n      mload\n      dup2\n      0x03\n      add\n      sstore\n      0x80\n      dup3\n      add\n      mload\n      dup2\n      0x04\n      add\n      sstore\n      0xa0\n      dup3\n      add\n      mload\n      dup2\n      0x05\n      add\n      sstore\n      0xc0\n      dup3\n      add\n      mload\n      dup2\n      0x06\n      add\n      exp(0x0100, 0x00)\n      dup2\n      sload\n      dup2\n      0xff\n      mul\n      not\n      and\n      swap1\n      dup4\n      iszero\n      iszero\n      mul\n      or\n      swap1\n      sstore\n      pop\n      swap1\n      pop\n      pop\n        /* \"contracts/Defly/NFTtesting.sol\":4790:5372  if(Staker[_to][_mintAddress][TokenId].NFT == 0 ){... */\n    tag_167:\n        /* \"contracts/Defly/NFTtesting.sol\":5393:5405  _mintAddress */\n      dup1\n        /* \"contracts/Defly/NFTtesting.sol\":5385:5423  IERC721(_mintAddress).safeTransferFrom */\n      0xffffffffffffffffffffffffffffffffffffffff\n      and\n      0xb88d4fde\n        /* \"contracts/Defly/NFTtesting.sol\":5424:5427  _to */\n      dup4\n        /* \"contracts/Defly/NFTtesting.sol\":5436:5440  this */\n      address\n        /* \"contracts/Defly/NFTtesting.sol\":5442:5449  TokenId */\n      dup8\n        /* \"contracts/Defly/NFTtesting.sol\":5385:5453  IERC721(_mintAddress).safeTransferFrom(_to,address(this),TokenId,\"\") */\n      mload(0x40)\n      dup5\n      0xffffffff\n      and\n      0xe0\n      shl\n      dup2\n      mstore\n      0x04\n      add\n      tag_169\n      swap4\n      swap3\n      swap2\n      swap1\n      tag_121\n      jump\t// in\n    tag_169:\n      0x00\n      mload(0x40)\n      dup1\n      dup4\n      sub\n      dup2\n      0x00\n      dup8\n      dup1\n      extcodesize\n      iszero\n      dup1\n      iszero\n      tag_170\n      jumpi\n      0x00\n      dup1\n      revert\n    tag_170:\n      pop\n      gas\n      call\n      iszero\n      dup1\n      iszero\n      tag_172\n      jumpi\n      returndatasize\n      0x00\n      dup1\n      returndatacopy\n      revert(0x00, returndatasize)\n    tag_172:\n      pop\n      pop\n      pop\n      pop\n        /* \"contracts/Defly/NFTtesting.sol\":4648:5540  if(Days == 90){... */\n      jump(tag_173)\n    tag_158:\n        /* \"contracts/Defly/NFTtesting.sol\":5491:5529  revert(\"Sellect Days 15,30,60,90 !!!\") */\n      mload(0x40)\n      0x08c379a000000000000000000000000000000000000000000000000000000000\n      dup2\n      mstore\n      0x04\n      add\n      tag_174\n      swap1\n      tag_175\n      jump\t// in\n    tag_174:\n      mload(0x40)\n      dup1\n      swap2\n      sub\n      swap1\n      revert\n        /* \"contracts/Defly/NFTtesting.sol\":4648:5540  if(Days == 90){... */\n    tag_173:\n        /* \"contracts/Defly/NFTtesting.sol\":3818:5540  if(Days == 60){... */\n    tag_157:\n        /* \"contracts/Defly/NFTtesting.sol\":2990:5540  if(Days == 30){... */\n    tag_141:\n        /* \"contracts/Defly/NFTtesting.sol\":2161:5540  if(Days == 15){... */\n    tag_125:\n        /* \"contracts/Defly/NFTtesting.sol\":1976:5550  function deposit(uint TokenId,uint Days,address _to,address _mintAddress) public {... */\n      pop\n      pop\n      pop\n      pop\n      jump\t// out\n        /* \"@openzeppelin/contracts/access/Ownable.sol\":1201:1286  function owner() public view virtual returns (address) {... */\n    tag_58:\n        /* \"@openzeppelin/contracts/access/Ownable.sol\":1247:1254  address */\n      0x00\n        /* \"@openzeppelin/contracts/access/Ownable.sol\":1273:1279  _owner */\n      dup1\n      0x00\n      swap1\n      sload\n      swap1\n      0x0100\n      exp\n      swap1\n      div\n      0xffffffffffffffffffffffffffffffffffffffff\n      and\n        /* \"@openzeppelin/contracts/access/Ownable.sol\":1266:1279  return _owner */\n      swap1\n      pop\n        /* \"@openzeppelin/contracts/access/Ownable.sol\":1201:1286  function owner() public view virtual returns (address) {... */\n      swap1\n      jump\t// out\n        /* \"contracts/Defly/NFTtesting.sol\":718:745  address public ERC20Address */\n    tag_62:\n      0x06\n      0x00\n      swap1\n      sload\n      swap1\n      0x0100\n      exp\n      swap1\n      div\n      0xffffffffffffffffffffffffffffffffffffffff\n      and\n      dup2\n      jump\t// out\n        /* \"contracts/Defly/NFTtesting.sol\":567:600  Counters.Counter public category2 */\n    tag_65:\n      0x02\n      dup1\n      0x00\n      add\n      sload\n      swap1\n      pop\n      dup2\n      jump\t// out\n        /* \"contracts/Defly/NFTtesting.sol\":5737:7462  function withdraw (uint TokenId,address _to,address _mintAddress) public {... */\n    tag_70:\n        /* \"contracts/Defly/NFTtesting.sol\":5829:5835  Staker */\n      0x09\n        /* \"contracts/Defly/NFTtesting.sol\":5829:5840  Staker[_to] */\n      0x00\n        /* \"contracts/Defly/NFTtesting.sol\":5836:5839  _to */\n      dup4\n        /* \"contracts/Defly/NFTtesting.sol\":5829:5840  Staker[_to] */\n      0xffffffffffffffffffffffffffffffffffffffff\n      and\n      0xffffffffffffffffffffffffffffffffffffffff\n      and\n      dup2\n      mstore\n      0x20\n      add\n      swap1\n      dup2\n      mstore\n      0x20\n      add\n      0x00\n      keccak256\n        /* \"contracts/Defly/NFTtesting.sol\":5829:5854  Staker[_to][_mintAddress] */\n      0x00\n        /* \"contracts/Defly/NFTtesting.sol\":5841:5853  _mintAddress */\n      dup3\n        /* \"contracts/Defly/NFTtesting.sol\":5829:5854  Staker[_to][_mintAddress] */\n      0xffffffffffffffffffffffffffffffffffffffff\n      and\n      0xffffffffffffffffffffffffffffffffffffffff\n      and\n      dup2\n      mstore\n      0x20\n      add\n      swap1\n      dup2\n      mstore\n      0x20\n      add\n      0x00\n      keccak256\n        /* \"contracts/Defly/NFTtesting.sol\":5829:5863  Staker[_to][_mintAddress][TokenId] */\n      0x00\n        /* \"contracts/Defly/NFTtesting.sol\":5855:5862  TokenId */\n      dup5\n        /* \"contracts/Defly/NFTtesting.sol\":5829:5863  Staker[_to][_mintAddress][TokenId] */\n      dup2\n      mstore\n      0x20\n      add\n      swap1\n      dup2\n      mstore\n      0x20\n      add\n      0x00\n      keccak256\n        /* \"contracts/Defly/NFTtesting.sol\":5829:5876  Staker[_to][_mintAddress][TokenId].DepositToken */\n      0x06\n      add\n      0x00\n      swap1\n      sload\n      swap1\n      0x0100\n      exp\n      swap1\n      div\n      0xff\n      and\n        /* \"contracts/Defly/NFTtesting.sol\":5820:5908  require (Staker[_to][_mintAddress][TokenId].DepositToken,\"Please First Deposit NFT !!!\") */\n      tag_178\n      jumpi\n      mload(0x40)\n      0x08c379a000000000000000000000000000000000000000000000000000000000\n      dup2\n      mstore\n      0x04\n      add\n      tag_179\n      swap1\n      tag_180\n      jump\t// in\n    tag_179:\n      mload(0x40)\n      dup1\n      swap2\n      sub\n      swap1\n      revert\n    tag_178:\n        /* \"contracts/Defly/NFTtesting.sol\":5918:5927  uint Time */\n      0x00\n        /* \"contracts/Defly/NFTtesting.sol\":5997:5999  60 */\n      0x3c\n        /* \"contracts/Defly/NFTtesting.sol\":5950:5956  Staker */\n      0x09\n        /* \"contracts/Defly/NFTtesting.sol\":5950:5961  Staker[_to] */\n      0x00\n        /* \"contracts/Defly/NFTtesting.sol\":5957:5960  _to */\n      dup6\n        /* \"contracts/Defly/NFTtesting.sol\":5950:5961  Staker[_to] */\n      0xffffffffffffffffffffffffffffffffffffffff\n      and\n      0xffffffffffffffffffffffffffffffffffffffff\n      and\n      dup2\n      mstore\n      0x20\n      add\n      swap1\n      dup2\n      mstore\n      0x20\n      add\n      0x00\n      keccak256\n        /* \"contracts/Defly/NFTtesting.sol\":5950:5975  Staker[_to][_mintAddress] */\n      0x00\n        /* \"contracts/Defly/NFTtesting.sol\":5962:5974  _mintAddress */\n      dup5\n        /* \"contracts/Defly/NFTtesting.sol\":5950:5975  Staker[_to][_mintAddress] */\n      0xffffffffffffffffffffffffffffffffffffffff\n      and\n      0xffffffffffffffffffffffffffffffffffffffff\n      and\n      dup2\n      mstore\n      0x20\n      add\n      swap1\n      dup2\n      mstore\n      0x20\n      add\n      0x00\n      keccak256\n        /* \"contracts/Defly/NFTtesting.sol\":5950:5984  Staker[_to][_mintAddress][TokenId] */\n      0x00\n        /* \"contracts/Defly/NFTtesting.sol\":5976:5983  TokenId */\n      dup7\n        /* \"contracts/Defly/NFTtesting.sol\":5950:5984  Staker[_to][_mintAddress][TokenId] */\n      dup2\n      mstore\n      0x20\n      add\n      swap1\n      dup2\n      mstore\n      0x20\n      add\n      0x00\n      keccak256\n        /* \"contracts/Defly/NFTtesting.sol\":5950:5994  Staker[_to][_mintAddress][TokenId].StartTime */\n      0x03\n      add\n      sload\n        /* \"contracts/Defly/NFTtesting.sol\":5932:5947  block.timestamp */\n      timestamp\n        /* \"contracts/Defly/NFTtesting.sol\":5932:5994  block.timestamp - Staker[_to][_mintAddress][TokenId].StartTime */\n      tag_181\n      swap2\n      swap1\n      tag_182\n      jump\t// in\n    tag_181:\n        /* \"contracts/Defly/NFTtesting.sol\":5931:6000  (block.timestamp - Staker[_to][_mintAddress][TokenId].StartTime)/(60) */\n      tag_183\n      swap2\n      swap1\n      tag_184\n      jump\t// in\n    tag_183:\n        /* \"contracts/Defly/NFTtesting.sol\":5918:6001  uint Time = ((block.timestamp - Staker[_to][_mintAddress][TokenId].StartTime)/(60)) */\n      swap1\n      pop\n        /* \"contracts/Defly/NFTtesting.sol\":6021:6027  Staker */\n      0x09\n        /* \"contracts/Defly/NFTtesting.sol\":6021:6032  Staker[_to] */\n      0x00\n        /* \"contracts/Defly/NFTtesting.sol\":6028:6031  _to */\n      dup5\n        /* \"contracts/Defly/NFTtesting.sol\":6021:6032  Staker[_to] */\n      0xffffffffffffffffffffffffffffffffffffffff\n      and\n      0xffffffffffffffffffffffffffffffffffffffff\n      and\n      dup2\n      mstore\n      0x20\n      add\n      swap1\n      dup2\n      mstore\n      0x20\n      add\n      0x00\n      keccak256\n        /* \"contracts/Defly/NFTtesting.sol\":6021:6046  Staker[_to][_mintAddress] */\n      0x00\n        /* \"contracts/Defly/NFTtesting.sol\":6033:6045  _mintAddress */\n      dup4\n        /* \"contracts/Defly/NFTtesting.sol\":6021:6046  Staker[_to][_mintAddress] */\n      0xffffffffffffffffffffffffffffffffffffffff\n      and\n      0xffffffffffffffffffffffffffffffffffffffff\n      and\n      dup2\n      mstore\n      0x20\n      add\n      swap1\n      dup2\n      mstore\n      0x20\n      add\n      0x00\n      keccak256\n        /* \"contracts/Defly/NFTtesting.sol\":6021:6055  Staker[_to][_mintAddress][TokenId] */\n      0x00\n        /* \"contracts/Defly/NFTtesting.sol\":6047:6054  TokenId */\n      dup6\n        /* \"contracts/Defly/NFTtesting.sol\":6021:6055  Staker[_to][_mintAddress][TokenId] */\n      dup2\n      mstore\n      0x20\n      add\n      swap1\n      dup2\n      mstore\n      0x20\n      add\n      0x00\n      keccak256\n        /* \"contracts/Defly/NFTtesting.sol\":6021:6059  Staker[_to][_mintAddress][TokenId].day */\n      0x02\n      add\n      sload\n        /* \"contracts/Defly/NFTtesting.sol\":6014:6018  Time */\n      dup2\n        /* \"contracts/Defly/NFTtesting.sol\":6014:6059  Time < Staker[_to][_mintAddress][TokenId].day */\n      lt\n        /* \"contracts/Defly/NFTtesting.sol\":6011:7017  if(Time < Staker[_to][_mintAddress][TokenId].day){... */\n      iszero\n      tag_185\n      jumpi\n        /* \"contracts/Defly/NFTtesting.sol\":6074:6088  uint TokenDays */\n      0x00\n        /* \"contracts/Defly/NFTtesting.sol\":6139:6145  Staker */\n      0x09\n        /* \"contracts/Defly/NFTtesting.sol\":6139:6150  Staker[_to] */\n      0x00\n        /* \"contracts/Defly/NFTtesting.sol\":6146:6149  _to */\n      dup6\n        /* \"contracts/Defly/NFTtesting.sol\":6139:6150  Staker[_to] */\n      0xffffffffffffffffffffffffffffffffffffffff\n      and\n      0xffffffffffffffffffffffffffffffffffffffff\n      and\n      dup2\n      mstore\n      0x20\n      add\n      swap1\n      dup2\n      mstore\n      0x20\n      add\n      0x00\n      keccak256\n        /* \"contracts/Defly/NFTtesting.sol\":6139:6164  Staker[_to][_mintAddress] */\n      0x00\n        /* \"contracts/Defly/NFTtesting.sol\":6151:6163  _mintAddress */\n      dup5\n        /* \"contracts/Defly/NFTtesting.sol\":6139:6164  Staker[_to][_mintAddress] */\n      0xffffffffffffffffffffffffffffffffffffffff\n      and\n      0xffffffffffffffffffffffffffffffffffffffff\n      and\n      dup2\n      mstore\n      0x20\n      add\n      swap1\n      dup2\n      mstore\n      0x20\n      add\n      0x00\n      keccak256\n        /* \"contracts/Defly/NFTtesting.sol\":6139:6173  Staker[_to][_mintAddress][TokenId] */\n      0x00\n        /* \"contracts/Defly/NFTtesting.sol\":6165:6172  TokenId */\n      dup7\n        /* \"contracts/Defly/NFTtesting.sol\":6139:6173  Staker[_to][_mintAddress][TokenId] */\n      dup2\n      mstore\n      0x20\n      add\n      swap1\n      dup2\n      mstore\n      0x20\n      add\n      0x00\n      keccak256\n        /* \"contracts/Defly/NFTtesting.sol\":6139:6177  Staker[_to][_mintAddress][TokenId].day */\n      0x02\n      add\n      sload\n        /* \"contracts/Defly/NFTtesting.sol\":6097:6103  Staker */\n      0x09\n        /* \"contracts/Defly/NFTtesting.sol\":6097:6108  Staker[_to] */\n      0x00\n        /* \"contracts/Defly/NFTtesting.sol\":6104:6107  _to */\n      dup7\n        /* \"contracts/Defly/NFTtesting.sol\":6097:6108  Staker[_to] */\n      0xffffffffffffffffffffffffffffffffffffffff\n      and\n      0xffffffffffffffffffffffffffffffffffffffff\n      and\n      dup2\n      mstore\n      0x20\n      add\n      swap1\n      dup2\n      mstore\n      0x20\n      add\n      0x00\n      keccak256\n        /* \"contracts/Defly/NFTtesting.sol\":6097:6122  Staker[_to][_mintAddress] */\n      0x00\n        /* \"contracts/Defly/NFTtesting.sol\":6109:6121  _mintAddress */\n      dup6\n        /* \"contracts/Defly/NFTtesting.sol\":6097:6122  Staker[_to][_mintAddress] */\n      0xffffffffffffffffffffffffffffffffffffffff\n      and\n      0xffffffffffffffffffffffffffffffffffffffff\n      and\n      dup2\n      mstore\n      0x20\n      add\n      swap1\n      dup2\n      mstore\n      0x20\n      add\n      0x00\n      keccak256\n        /* \"contracts/Defly/NFTtesting.sol\":6097:6131  Staker[_to][_mintAddress][TokenId] */\n      0x00\n        /* \"contracts/Defly/NFTtesting.sol\":6123:6130  TokenId */\n      dup8\n        /* \"contracts/Defly/NFTtesting.sol\":6097:6131  Staker[_to][_mintAddress][TokenId] */\n      dup2\n      mstore\n      0x20\n      add\n      swap1\n      dup2\n      mstore\n      0x20\n      add\n      0x00\n      keccak256\n        /* \"contracts/Defly/NFTtesting.sol\":6097:6138  Staker[_to][_mintAddress][TokenId].tokens */\n      0x01\n      add\n      sload\n        /* \"contracts/Defly/NFTtesting.sol\":6097:6177  Staker[_to][_mintAddress][TokenId].tokens/Staker[_to][_mintAddress][TokenId].day */\n      tag_186\n      swap2\n      swap1\n      tag_184\n      jump\t// in\n    tag_186:\n        /* \"contracts/Defly/NFTtesting.sol\":6091:6095  Time */\n      dup3\n        /* \"contracts/Defly/NFTtesting.sol\":6091:6178  Time*(Staker[_to][_mintAddress][TokenId].tokens/Staker[_to][_mintAddress][TokenId].day) */\n      tag_187\n      swap2\n      swap1\n      tag_115\n      jump\t// in\n    tag_187:\n        /* \"contracts/Defly/NFTtesting.sol\":6074:6178  uint TokenDays = Time*(Staker[_to][_mintAddress][TokenId].tokens/Staker[_to][_mintAddress][TokenId].day) */\n      swap1\n      pop\n        /* \"contracts/Defly/NFTtesting.sol\":6192:6201  uint fine */\n      0x00\n        /* \"contracts/Defly/NFTtesting.sol\":6218:6221  100 */\n      0x64\n        /* \"contracts/Defly/NFTtesting.sol\":6207:6216  TokenDays */\n      dup3\n        /* \"contracts/Defly/NFTtesting.sol\":6205:6206  2 */\n      0x02\n        /* \"contracts/Defly/NFTtesting.sol\":6205:6216  2*TokenDays */\n      tag_188\n      swap2\n      swap1\n      tag_115\n      jump\t// in\n    tag_188:\n        /* \"contracts/Defly/NFTtesting.sol\":6204:6221  (2*TokenDays)/100 */\n      tag_189\n      swap2\n      swap1\n      tag_184\n      jump\t// in\n    tag_189:\n        /* \"contracts/Defly/NFTtesting.sol\":6192:6221  uint fine = (2*TokenDays)/100 */\n      swap1\n      pop\n        /* \"contracts/Defly/NFTtesting.sol\":6235:6291  IERC20(ERC20Address).safeTransfer(_to, TokenDays - fine) */\n      tag_190\n        /* \"contracts/Defly/NFTtesting.sol\":6269:6272  _to */\n      dup6\n        /* \"contracts/Defly/NFTtesting.sol\":6286:6290  fine */\n      dup3\n        /* \"contracts/Defly/NFTtesting.sol\":6274:6283  TokenDays */\n      dup5\n        /* \"contracts/Defly/NFTtesting.sol\":6274:6290  TokenDays - fine */\n      tag_191\n      swap2\n      swap1\n      tag_182\n      jump\t// in\n    tag_191:\n        /* \"contracts/Defly/NFTtesting.sol\":6242:6254  ERC20Address */\n      0x06\n      0x00\n      swap1\n      sload\n      swap1\n      0x0100\n      exp\n      swap1\n      div\n      0xffffffffffffffffffffffffffffffffffffffff\n      and\n        /* \"contracts/Defly/NFTtesting.sol\":6235:6268  IERC20(ERC20Address).safeTransfer */\n      0xffffffffffffffffffffffffffffffffffffffff\n      and\n      tag_192\n      swap1\n        /* \"contracts/Defly/NFTtesting.sol\":6235:6291  IERC20(ERC20Address).safeTransfer(_to, TokenDays - fine) */\n      swap3\n      swap2\n      swap1\n      0xffffffff\n      and\n      jump\t// in\n    tag_190:\n        /* \"contracts/Defly/NFTtesting.sol\":6305:6388  IERC20(ERC20Address).safeTransfer(0x000000000000000000000000000000000000dEaD, fine) */\n      tag_193\n        /* \"contracts/Defly/NFTtesting.sol\":6339:6381  0x000000000000000000000000000000000000dEaD */\n      0xdead\n        /* \"contracts/Defly/NFTtesting.sol\":6383:6387  fine */\n      dup3\n        /* \"contracts/Defly/NFTtesting.sol\":6312:6324  ERC20Address */\n      0x06\n      0x00\n      swap1\n      sload\n      swap1\n      0x0100\n      exp\n      swap1\n      div\n      0xffffffffffffffffffffffffffffffffffffffff\n      and\n        /* \"contracts/Defly/NFTtesting.sol\":6305:6338  IERC20(ERC20Address).safeTransfer */\n      0xffffffffffffffffffffffffffffffffffffffff\n      and\n      tag_192\n      swap1\n        /* \"contracts/Defly/NFTtesting.sol\":6305:6388  IERC20(ERC20Address).safeTransfer(0x000000000000000000000000000000000000dEaD, fine) */\n      swap3\n      swap2\n      swap1\n      0xffffffff\n      and\n      jump\t// in\n    tag_193:\n        /* \"contracts/Defly/NFTtesting.sol\":6410:6422  _mintAddress */\n      dup4\n        /* \"contracts/Defly/NFTtesting.sol\":6402:6440  IERC721(_mintAddress).safeTransferFrom */\n      0xffffffffffffffffffffffffffffffffffffffff\n      and\n      0xb88d4fde\n        /* \"contracts/Defly/NFTtesting.sol\":6449:6453  this */\n      address\n        /* \"contracts/Defly/NFTtesting.sol\":6456:6459  _to */\n      dup8\n        /* \"contracts/Defly/NFTtesting.sol\":6460:6466  Staker */\n      0x09\n        /* \"contracts/Defly/NFTtesting.sol\":6460:6471  Staker[_to] */\n      0x00\n        /* \"contracts/Defly/NFTtesting.sol\":6467:6470  _to */\n      dup11\n        /* \"contracts/Defly/NFTtesting.sol\":6460:6471  Staker[_to] */\n      0xffffffffffffffffffffffffffffffffffffffff\n      and\n      0xffffffffffffffffffffffffffffffffffffffff\n      and\n      dup2\n      mstore\n      0x20\n      add\n      swap1\n      dup2\n      mstore\n      0x20\n      add\n      0x00\n      keccak256\n        /* \"contracts/Defly/NFTtesting.sol\":6460:6485  Staker[_to][_mintAddress] */\n      0x00\n        /* \"contracts/Defly/NFTtesting.sol\":6472:6484  _mintAddress */\n      dup10\n        /* \"contracts/Defly/NFTtesting.sol\":6460:6485  Staker[_to][_mintAddress] */\n      0xffffffffffffffffffffffffffffffffffffffff\n      and\n      0xffffffffffffffffffffffffffffffffffffffff\n      and\n      dup2\n      mstore\n      0x20\n      add\n      swap1\n      dup2\n      mstore\n      0x20\n      add\n      0x00\n      keccak256\n        /* \"contracts/Defly/NFTtesting.sol\":6460:6494  Staker[_to][_mintAddress][TokenId] */\n      0x00\n        /* \"contracts/Defly/NFTtesting.sol\":6486:6493  TokenId */\n      dup12\n        /* \"contracts/Defly/NFTtesting.sol\":6460:6494  Staker[_to][_mintAddress][TokenId] */\n      dup2\n      mstore\n      0x20\n      add\n      swap1\n      dup2\n      mstore\n      0x20\n      add\n      0x00\n      keccak256\n        /* \"contracts/Defly/NFTtesting.sol\":6460:6498  Staker[_to][_mintAddress][TokenId].NFT */\n      0x04\n      add\n      sload\n        /* \"contracts/Defly/NFTtesting.sol\":6402:6502  IERC721(_mintAddress).safeTransferFrom(address(this), _to,Staker[_to][_mintAddress][TokenId].NFT,\"\") */\n      mload(0x40)\n      dup5\n      0xffffffff\n      and\n      0xe0\n      shl\n      dup2\n      mstore\n      0x04\n      add\n      tag_194\n      swap4\n      swap3\n      swap2\n      swap1\n      tag_121\n      jump\t// in\n    tag_194:\n      0x00\n      mload(0x40)\n      dup1\n      dup4\n      sub\n      dup2\n      0x00\n      dup8\n      dup1\n      extcodesize\n      iszero\n      dup1\n      iszero\n      tag_195\n      jumpi\n      0x00\n      dup1\n      revert\n    tag_195:\n      pop\n      gas\n      call\n      iszero\n      dup1\n      iszero\n      tag_197\n      jumpi\n      returndatasize\n      0x00\n      dup1\n      returndatacopy\n      revert(0x00, returndatasize)\n    tag_197:\n      pop\n      pop\n      pop\n      pop\n        /* \"contracts/Defly/NFTtesting.sol\":6538:6547  TokenDays */\n      dup2\n        /* \"contracts/Defly/NFTtesting.sol\":6516:6534  TotalRemaningToken */\n      0x07\n      0x00\n        /* \"contracts/Defly/NFTtesting.sol\":6516:6547  TotalRemaningToken -= TokenDays */\n      dup3\n      dup3\n      sload\n      tag_198\n      swap2\n      swap1\n      tag_182\n      jump\t// in\n    tag_198:\n      swap3\n      pop\n      pop\n      dup2\n      swap1\n      sstore\n      pop\n        /* \"contracts/Defly/NFTtesting.sol\":6613:6618  false */\n      0x00\n        /* \"contracts/Defly/NFTtesting.sol\":6563:6569  Staker */\n      0x09\n        /* \"contracts/Defly/NFTtesting.sol\":6563:6574  Staker[_to] */\n      0x00\n        /* \"contracts/Defly/NFTtesting.sol\":6570:6573  _to */\n      dup8\n        /* \"contracts/Defly/NFTtesting.sol\":6563:6574  Staker[_to] */\n      0xffffffffffffffffffffffffffffffffffffffff\n      and\n      0xffffffffffffffffffffffffffffffffffffffff\n      and\n      dup2\n      mstore\n      0x20\n      add\n      swap1\n      dup2\n      mstore\n      0x20\n      add\n      0x00\n      keccak256\n        /* \"contracts/Defly/NFTtesting.sol\":6563:6588  Staker[_to][_mintAddress] */\n      0x00\n        /* \"contracts/Defly/NFTtesting.sol\":6575:6587  _mintAddress */\n      dup7\n        /* \"contracts/Defly/NFTtesting.sol\":6563:6588  Staker[_to][_mintAddress] */\n      0xffffffffffffffffffffffffffffffffffffffff\n      and\n      0xffffffffffffffffffffffffffffffffffffffff\n      and\n      dup2\n      mstore\n      0x20\n      add\n      swap1\n      dup2\n      mstore\n      0x20\n      add\n      0x00\n      keccak256\n        /* \"contracts/Defly/NFTtesting.sol\":6563:6597  Staker[_to][_mintAddress][TokenId] */\n      0x00\n        /* \"contracts/Defly/NFTtesting.sol\":6589:6596  TokenId */\n      dup9\n        /* \"contracts/Defly/NFTtesting.sol\":6563:6597  Staker[_to][_mintAddress][TokenId] */\n      dup2\n      mstore\n      0x20\n      add\n      swap1\n      dup2\n      mstore\n      0x20\n      add\n      0x00\n      keccak256\n        /* \"contracts/Defly/NFTtesting.sol\":6563:6610  Staker[_to][_mintAddress][TokenId].DepositToken */\n      0x06\n      add\n      0x00\n        /* \"contracts/Defly/NFTtesting.sol\":6563:6618  Staker[_to][_mintAddress][TokenId].DepositToken = false */\n      0x0100\n      exp\n      dup2\n      sload\n      dup2\n      0xff\n      mul\n      not\n      and\n      swap1\n      dup4\n      iszero\n      iszero\n      mul\n      or\n      swap1\n      sstore\n      pop\n        /* \"contracts/Defly/NFTtesting.sol\":6060:6636  {... */\n      pop\n      pop\n        /* \"contracts/Defly/NFTtesting.sol\":6011:7017  if(Time < Staker[_to][_mintAddress][TokenId].day){... */\n      jump(tag_199)\n    tag_185:\n        /* \"contracts/Defly/NFTtesting.sol\":6663:6744  IERC20(ERC20Address).safeTransfer(_to, Staker[_to][_mintAddress][TokenId].tokens) */\n      tag_200\n        /* \"contracts/Defly/NFTtesting.sol\":6697:6700  _to */\n      dup4\n        /* \"contracts/Defly/NFTtesting.sol\":6702:6708  Staker */\n      0x09\n        /* \"contracts/Defly/NFTtesting.sol\":6702:6713  Staker[_to] */\n      0x00\n        /* \"contracts/Defly/NFTtesting.sol\":6709:6712  _to */\n      dup7\n        /* \"contracts/Defly/NFTtesting.sol\":6702:6713  Staker[_to] */\n      0xffffffffffffffffffffffffffffffffffffffff\n      and\n      0xffffffffffffffffffffffffffffffffffffffff\n      and\n      dup2\n      mstore\n      0x20\n      add\n      swap1\n      dup2\n      mstore\n      0x20\n      add\n      0x00\n      keccak256\n        /* \"contracts/Defly/NFTtesting.sol\":6702:6727  Staker[_to][_mintAddress] */\n      0x00\n        /* \"contracts/Defly/NFTtesting.sol\":6714:6726  _mintAddress */\n      dup6\n        /* \"contracts/Defly/NFTtesting.sol\":6702:6727  Staker[_to][_mintAddress] */\n      0xffffffffffffffffffffffffffffffffffffffff\n      and\n      0xffffffffffffffffffffffffffffffffffffffff\n      and\n      dup2\n      mstore\n      0x20\n      add\n      swap1\n      dup2\n      mstore\n      0x20\n      add\n      0x00\n      keccak256\n        /* \"contracts/Defly/NFTtesting.sol\":6702:6736  Staker[_to][_mintAddress][TokenId] */\n      0x00\n        /* \"contracts/Defly/NFTtesting.sol\":6728:6735  TokenId */\n      dup8\n        /* \"contracts/Defly/NFTtesting.sol\":6702:6736  Staker[_to][_mintAddress][TokenId] */\n      dup2\n      mstore\n      0x20\n      add\n      swap1\n      dup2\n      mstore\n      0x20\n      add\n      0x00\n      keccak256\n        /* \"contracts/Defly/NFTtesting.sol\":6702:6743  Staker[_to][_mintAddress][TokenId].tokens */\n      0x01\n      add\n      sload\n        /* \"contracts/Defly/NFTtesting.sol\":6670:6682  ERC20Address */\n      0x06\n      0x00\n      swap1\n      sload\n      swap1\n      0x0100\n      exp\n      swap1\n      div\n      0xffffffffffffffffffffffffffffffffffffffff\n      and\n        /* \"contracts/Defly/NFTtesting.sol\":6663:6696  IERC20(ERC20Address).safeTransfer */\n      0xffffffffffffffffffffffffffffffffffffffff\n      and\n      tag_192\n      swap1\n        /* \"contracts/Defly/NFTtesting.sol\":6663:6744  IERC20(ERC20Address).safeTransfer(_to, Staker[_to][_mintAddress][TokenId].tokens) */\n      swap3\n      swap2\n      swap1\n      0xffffffff\n      and\n      jump\t// in\n    tag_200:\n        /* \"contracts/Defly/NFTtesting.sol\":6766:6778  _mintAddress */\n      dup2\n        /* \"contracts/Defly/NFTtesting.sol\":6758:6796  IERC721(_mintAddress).safeTransferFrom */\n      0xffffffffffffffffffffffffffffffffffffffff\n      and\n      0xb88d4fde\n        /* \"contracts/Defly/NFTtesting.sol\":6805:6809  this */\n      address\n        /* \"contracts/Defly/NFTtesting.sol\":6812:6815  _to */\n      dup6\n        /* \"contracts/Defly/NFTtesting.sol\":6816:6822  Staker */\n      0x09\n        /* \"contracts/Defly/NFTtesting.sol\":6816:6827  Staker[_to] */\n      0x00\n        /* \"contracts/Defly/NFTtesting.sol\":6823:6826  _to */\n      dup9\n        /* \"contracts/Defly/NFTtesting.sol\":6816:6827  Staker[_to] */\n      0xffffffffffffffffffffffffffffffffffffffff\n      and\n      0xffffffffffffffffffffffffffffffffffffffff\n      and\n      dup2\n      mstore\n      0x20\n      add\n      swap1\n      dup2\n      mstore\n      0x20\n      add\n      0x00\n      keccak256\n        /* \"contracts/Defly/NFTtesting.sol\":6816:6841  Staker[_to][_mintAddress] */\n      0x00\n        /* \"contracts/Defly/NFTtesting.sol\":6828:6840  _mintAddress */\n      dup8\n        /* \"contracts/Defly/NFTtesting.sol\":6816:6841  Staker[_to][_mintAddress] */\n      0xffffffffffffffffffffffffffffffffffffffff\n      and\n      0xffffffffffffffffffffffffffffffffffffffff\n      and\n      dup2\n      mstore\n      0x20\n      add\n      swap1\n      dup2\n      mstore\n      0x20\n      add\n      0x00\n      keccak256\n        /* \"contracts/Defly/NFTtesting.sol\":6816:6850  Staker[_to][_mintAddress][TokenId] */\n      0x00\n        /* \"contracts/Defly/NFTtesting.sol\":6842:6849  TokenId */\n      dup10\n        /* \"contracts/Defly/NFTtesting.sol\":6816:6850  Staker[_to][_mintAddress][TokenId] */\n      dup2\n      mstore\n      0x20\n      add\n      swap1\n      dup2\n      mstore\n      0x20\n      add\n      0x00\n      keccak256\n        /* \"contracts/Defly/NFTtesting.sol\":6816:6854  Staker[_to][_mintAddress][TokenId].NFT */\n      0x04\n      add\n      sload\n        /* \"contracts/Defly/NFTtesting.sol\":6758:6858  IERC721(_mintAddress).safeTransferFrom(address(this), _to,Staker[_to][_mintAddress][TokenId].NFT,\"\") */\n      mload(0x40)\n      dup5\n      0xffffffff\n      and\n      0xe0\n      shl\n      dup2\n      mstore\n      0x04\n      add\n      tag_201\n      swap4\n      swap3\n      swap2\n      swap1\n      tag_121\n      jump\t// in\n    tag_201:\n      0x00\n      mload(0x40)\n      dup1\n      dup4\n      sub\n      dup2\n      0x00\n      dup8\n      dup1\n      extcodesize\n      iszero\n      dup1\n      iszero\n      tag_202\n      jumpi\n      0x00\n      dup1\n      revert\n    tag_202:\n      pop\n      gas\n      call\n      iszero\n      dup1\n      iszero\n      tag_204\n      jumpi\n      returndatasize\n      0x00\n      dup1\n      returndatacopy\n      revert(0x00, returndatasize)\n    tag_204:\n      pop\n      pop\n      pop\n      pop\n        /* \"contracts/Defly/NFTtesting.sol\":6894:6900  Staker */\n      0x09\n        /* \"contracts/Defly/NFTtesting.sol\":6894:6905  Staker[_to] */\n      0x00\n        /* \"contracts/Defly/NFTtesting.sol\":6901:6904  _to */\n      dup5\n        /* \"contracts/Defly/NFTtesting.sol\":6894:6905  Staker[_to] */\n      0xffffffffffffffffffffffffffffffffffffffff\n      and\n      0xffffffffffffffffffffffffffffffffffffffff\n      and\n      dup2\n      mstore\n      0x20\n      add\n      swap1\n      dup2\n      mstore\n      0x20\n      add\n      0x00\n      keccak256\n        /* \"contracts/Defly/NFTtesting.sol\":6894:6919  Staker[_to][_mintAddress] */\n      0x00\n        /* \"contracts/Defly/NFTtesting.sol\":6906:6918  _mintAddress */\n      dup4\n        /* \"contracts/Defly/NFTtesting.sol\":6894:6919  Staker[_to][_mintAddress] */\n      0xffffffffffffffffffffffffffffffffffffffff\n      and\n      0xffffffffffffffffffffffffffffffffffffffff\n      and\n      dup2\n      mstore\n      0x20\n      add\n      swap1\n      dup2\n      mstore\n      0x20\n      add\n      0x00\n      keccak256\n        /* \"contracts/Defly/NFTtesting.sol\":6894:6928  Staker[_to][_mintAddress][TokenId] */\n      0x00\n        /* \"contracts/Defly/NFTtesting.sol\":6920:6927  TokenId */\n      dup6\n        /* \"contracts/Defly/NFTtesting.sol\":6894:6928  Staker[_to][_mintAddress][TokenId] */\n      dup2\n      mstore\n      0x20\n      add\n      swap1\n      dup2\n      mstore\n      0x20\n      add\n      0x00\n      keccak256\n        /* \"contracts/Defly/NFTtesting.sol\":6894:6935  Staker[_to][_mintAddress][TokenId].tokens */\n      0x01\n      add\n      sload\n        /* \"contracts/Defly/NFTtesting.sol\":6872:6890  TotalRemaningToken */\n      0x07\n      0x00\n        /* \"contracts/Defly/NFTtesting.sol\":6872:6935  TotalRemaningToken -= Staker[_to][_mintAddress][TokenId].tokens */\n      dup3\n      dup3\n      sload\n      tag_205\n      swap2\n      swap1\n      tag_182\n      jump\t// in\n    tag_205:\n      swap3\n      pop\n      pop\n      dup2\n      swap1\n      sstore\n      pop\n        /* \"contracts/Defly/NFTtesting.sol\":6999:7004  false */\n      0x00\n        /* \"contracts/Defly/NFTtesting.sol\":6949:6955  Staker */\n      0x09\n        /* \"contracts/Defly/NFTtesting.sol\":6949:6960  Staker[_to] */\n      0x00\n        /* \"contracts/Defly/NFTtesting.sol\":6956:6959  _to */\n      dup6\n        /* \"contracts/Defly/NFTtesting.sol\":6949:6960  Staker[_to] */\n      0xffffffffffffffffffffffffffffffffffffffff\n      and\n      0xffffffffffffffffffffffffffffffffffffffff\n      and\n      dup2\n      mstore\n      0x20\n      add\n      swap1\n      dup2\n      mstore\n      0x20\n      add\n      0x00\n      keccak256\n        /* \"contracts/Defly/NFTtesting.sol\":6949:6974  Staker[_to][_mintAddress] */\n      0x00\n        /* \"contracts/Defly/NFTtesting.sol\":6961:6973  _mintAddress */\n      dup5\n        /* \"contracts/Defly/NFTtesting.sol\":6949:6974  Staker[_to][_mintAddress] */\n      0xffffffffffffffffffffffffffffffffffffffff\n      and\n      0xffffffffffffffffffffffffffffffffffffffff\n      and\n      dup2\n      mstore\n      0x20\n      add\n      swap1\n      dup2\n      mstore\n      0x20\n      add\n      0x00\n      keccak256\n        /* \"contracts/Defly/NFTtesting.sol\":6949:6983  Staker[_to][_mintAddress][TokenId] */\n      0x00\n        /* \"contracts/Defly/NFTtesting.sol\":6975:6982  TokenId */\n      dup7\n        /* \"contracts/Defly/NFTtesting.sol\":6949:6983  Staker[_to][_mintAddress][TokenId] */\n      dup2\n      mstore\n      0x20\n      add\n      swap1\n      dup2\n      mstore\n      0x20\n      add\n      0x00\n      keccak256\n        /* \"contracts/Defly/NFTtesting.sol\":6949:6996  Staker[_to][_mintAddress][TokenId].DepositToken */\n      0x06\n      add\n      0x00\n        /* \"contracts/Defly/NFTtesting.sol\":6949:7004  Staker[_to][_mintAddress][TokenId].DepositToken = false */\n      0x0100\n      exp\n      dup2\n      sload\n      dup2\n      0xff\n      mul\n      not\n      and\n      swap1\n      dup4\n      iszero\n      iszero\n      mul\n      or\n      swap1\n      sstore\n      pop\n        /* \"contracts/Defly/NFTtesting.sol\":6011:7017  if(Time < Staker[_to][_mintAddress][TokenId].day){... */\n    tag_199:\n        /* \"contracts/Defly/NFTtesting.sol\":7072:7074  15 */\n      0x0f\n        /* \"contracts/Defly/NFTtesting.sol\":7030:7036  Staker */\n      0x09\n        /* \"contracts/Defly/NFTtesting.sol\":7030:7041  Staker[_to] */\n      0x00\n        /* \"contracts/Defly/NFTtesting.sol\":7037:7040  _to */\n      dup6\n        /* \"contracts/Defly/NFTtesting.sol\":7030:7041  Staker[_to] */\n      0xffffffffffffffffffffffffffffffffffffffff\n      and\n      0xffffffffffffffffffffffffffffffffffffffff\n      and\n      dup2\n      mstore\n      0x20\n      add\n      swap1\n      dup2\n      mstore\n      0x20\n      add\n      0x00\n      keccak256\n        /* \"contracts/Defly/NFTtesting.sol\":7030:7055  Staker[_to][_mintAddress] */\n      0x00\n        /* \"contracts/Defly/NFTtesting.sol\":7042:7054  _mintAddress */\n      dup5\n        /* \"contracts/Defly/NFTtesting.sol\":7030:7055  Staker[_to][_mintAddress] */\n      0xffffffffffffffffffffffffffffffffffffffff\n      and\n      0xffffffffffffffffffffffffffffffffffffffff\n      and\n      dup2\n      mstore\n      0x20\n      add\n      swap1\n      dup2\n      mstore\n      0x20\n      add\n      0x00\n      keccak256\n        /* \"contracts/Defly/NFTtesting.sol\":7030:7064  Staker[_to][_mintAddress][TokenId] */\n      0x00\n        /* \"contracts/Defly/NFTtesting.sol\":7056:7063  TokenId */\n      dup7\n        /* \"contracts/Defly/NFTtesting.sol\":7030:7064  Staker[_to][_mintAddress][TokenId] */\n      dup2\n      mstore\n      0x20\n      add\n      swap1\n      dup2\n      mstore\n      0x20\n      add\n      0x00\n      keccak256\n        /* \"contracts/Defly/NFTtesting.sol\":7030:7068  Staker[_to][_mintAddress][TokenId].day */\n      0x02\n      add\n      sload\n        /* \"contracts/Defly/NFTtesting.sol\":7030:7074  Staker[_to][_mintAddress][TokenId].day == 15 */\n      sub\n        /* \"contracts/Defly/NFTtesting.sol\":7027:7454  if(Staker[_to][_mintAddress][TokenId].day == 15){... */\n      tag_206\n      jumpi\n        /* \"contracts/Defly/NFTtesting.sol\":7089:7110  category1.decrement() */\n      tag_207\n        /* \"contracts/Defly/NFTtesting.sol\":7089:7098  category1 */\n      0x01\n        /* \"contracts/Defly/NFTtesting.sol\":7089:7108  category1.decrement */\n      tag_208\n        /* \"contracts/Defly/NFTtesting.sol\":7089:7110  category1.decrement() */\n      jump\t// in\n    tag_207:\n        /* \"contracts/Defly/NFTtesting.sol\":7027:7454  if(Staker[_to][_mintAddress][TokenId].day == 15){... */\n      jump(tag_209)\n    tag_206:\n        /* \"contracts/Defly/NFTtesting.sol\":7180:7182  30 */\n      0x1e\n        /* \"contracts/Defly/NFTtesting.sol\":7138:7144  Staker */\n      0x09\n        /* \"contracts/Defly/NFTtesting.sol\":7138:7149  Staker[_to] */\n      0x00\n        /* \"contracts/Defly/NFTtesting.sol\":7145:7148  _to */\n      dup6\n        /* \"contracts/Defly/NFTtesting.sol\":7138:7149  Staker[_to] */\n      0xffffffffffffffffffffffffffffffffffffffff\n      and\n      0xffffffffffffffffffffffffffffffffffffffff\n      and\n      dup2\n      mstore\n      0x20\n      add\n      swap1\n      dup2\n      mstore\n      0x20\n      add\n      0x00\n      keccak256\n        /* \"contracts/Defly/NFTtesting.sol\":7138:7163  Staker[_to][_mintAddress] */\n      0x00\n        /* \"contracts/Defly/NFTtesting.sol\":7150:7162  _mintAddress */\n      dup5\n        /* \"contracts/Defly/NFTtesting.sol\":7138:7163  Staker[_to][_mintAddress] */\n      0xffffffffffffffffffffffffffffffffffffffff\n      and\n      0xffffffffffffffffffffffffffffffffffffffff\n      and\n      dup2\n      mstore\n      0x20\n      add\n      swap1\n      dup2\n      mstore\n      0x20\n      add\n      0x00\n      keccak256\n        /* \"contracts/Defly/NFTtesting.sol\":7138:7172  Staker[_to][_mintAddress][TokenId] */\n      0x00\n        /* \"contracts/Defly/NFTtesting.sol\":7164:7171  TokenId */\n      dup7\n        /* \"contracts/Defly/NFTtesting.sol\":7138:7172  Staker[_to][_mintAddress][TokenId] */\n      dup2\n      mstore\n      0x20\n      add\n      swap1\n      dup2\n      mstore\n      0x20\n      add\n      0x00\n      keccak256\n        /* \"contracts/Defly/NFTtesting.sol\":7138:7176  Staker[_to][_mintAddress][TokenId].day */\n      0x02\n      add\n      sload\n        /* \"contracts/Defly/NFTtesting.sol\":7138:7182  Staker[_to][_mintAddress][TokenId].day == 30 */\n      sub\n        /* \"contracts/Defly/NFTtesting.sol\":7135:7454  if(Staker[_to][_mintAddress][TokenId].day == 30){... */\n      tag_210\n      jumpi\n        /* \"contracts/Defly/NFTtesting.sol\":7197:7218  category2.decrement() */\n      tag_211\n        /* \"contracts/Defly/NFTtesting.sol\":7197:7206  category2 */\n      0x02\n        /* \"contracts/Defly/NFTtesting.sol\":7197:7216  category2.decrement */\n      tag_208\n        /* \"contracts/Defly/NFTtesting.sol\":7197:7218  category2.decrement() */\n      jump\t// in\n    tag_211:\n        /* \"contracts/Defly/NFTtesting.sol\":7135:7454  if(Staker[_to][_mintAddress][TokenId].day == 30){... */\n      jump(tag_212)\n    tag_210:\n        /* \"contracts/Defly/NFTtesting.sol\":7291:7293  60 */\n      0x3c\n        /* \"contracts/Defly/NFTtesting.sol\":7249:7255  Staker */\n      0x09\n        /* \"contracts/Defly/NFTtesting.sol\":7249:7260  Staker[_to] */\n      0x00\n        /* \"contracts/Defly/NFTtesting.sol\":7256:7259  _to */\n      dup6\n        /* \"contracts/Defly/NFTtesting.sol\":7249:7260  Staker[_to] */\n      0xffffffffffffffffffffffffffffffffffffffff\n      and\n      0xffffffffffffffffffffffffffffffffffffffff\n      and\n      dup2\n      mstore\n      0x20\n      add\n      swap1\n      dup2\n      mstore\n      0x20\n      add\n      0x00\n      keccak256\n        /* \"contracts/Defly/NFTtesting.sol\":7249:7274  Staker[_to][_mintAddress] */\n      0x00\n        /* \"contracts/Defly/NFTtesting.sol\":7261:7273  _mintAddress */\n      dup5\n        /* \"contracts/Defly/NFTtesting.sol\":7249:7274  Staker[_to][_mintAddress] */\n      0xffffffffffffffffffffffffffffffffffffffff\n      and\n      0xffffffffffffffffffffffffffffffffffffffff\n      and\n      dup2\n      mstore\n      0x20\n      add\n      swap1\n      dup2\n      mstore\n      0x20\n      add\n      0x00\n      keccak256\n        /* \"contracts/Defly/NFTtesting.sol\":7249:7283  Staker[_to][_mintAddress][TokenId] */\n      0x00\n        /* \"contracts/Defly/NFTtesting.sol\":7275:7282  TokenId */\n      dup7\n        /* \"contracts/Defly/NFTtesting.sol\":7249:7283  Staker[_to][_mintAddress][TokenId] */\n      dup2\n      mstore\n      0x20\n      add\n      swap1\n      dup2\n      mstore\n      0x20\n      add\n      0x00\n      keccak256\n        /* \"contracts/Defly/NFTtesting.sol\":7249:7287  Staker[_to][_mintAddress][TokenId].day */\n      0x02\n      add\n      sload\n        /* \"contracts/Defly/NFTtesting.sol\":7249:7293  Staker[_to][_mintAddress][TokenId].day == 60 */\n      sub\n        /* \"contracts/Defly/NFTtesting.sol\":7246:7454  if(Staker[_to][_mintAddress][TokenId].day == 60){... */\n      tag_213\n      jumpi\n        /* \"contracts/Defly/NFTtesting.sol\":7308:7329  category3.decrement() */\n      tag_214\n        /* \"contracts/Defly/NFTtesting.sol\":7308:7317  category3 */\n      0x03\n        /* \"contracts/Defly/NFTtesting.sol\":7308:7327  category3.decrement */\n      tag_208\n        /* \"contracts/Defly/NFTtesting.sol\":7308:7329  category3.decrement() */\n      jump\t// in\n    tag_214:\n        /* \"contracts/Defly/NFTtesting.sol\":7246:7454  if(Staker[_to][_mintAddress][TokenId].day == 60){... */\n      jump(tag_215)\n    tag_213:\n        /* \"contracts/Defly/NFTtesting.sol\":7402:7404  90 */\n      0x5a\n        /* \"contracts/Defly/NFTtesting.sol\":7360:7366  Staker */\n      0x09\n        /* \"contracts/Defly/NFTtesting.sol\":7360:7371  Staker[_to] */\n      0x00\n        /* \"contracts/Defly/NFTtesting.sol\":7367:7370  _to */\n      dup6\n        /* \"contracts/Defly/NFTtesting.sol\":7360:7371  Staker[_to] */\n      0xffffffffffffffffffffffffffffffffffffffff\n      and\n      0xffffffffffffffffffffffffffffffffffffffff\n      and\n      dup2\n      mstore\n      0x20\n      add\n      swap1\n      dup2\n      mstore\n      0x20\n      add\n      0x00\n      keccak256\n        /* \"contracts/Defly/NFTtesting.sol\":7360:7385  Staker[_to][_mintAddress] */\n      0x00\n        /* \"contracts/Defly/NFTtesting.sol\":7372:7384  _mintAddress */\n      dup5\n        /* \"contracts/Defly/NFTtesting.sol\":7360:7385  Staker[_to][_mintAddress] */\n      0xffffffffffffffffffffffffffffffffffffffff\n      and\n      0xffffffffffffffffffffffffffffffffffffffff\n      and\n      dup2\n      mstore\n      0x20\n      add\n      swap1\n      dup2\n      mstore\n      0x20\n      add\n      0x00\n      keccak256\n        /* \"contracts/Defly/NFTtesting.sol\":7360:7394  Staker[_to][_mintAddress][TokenId] */\n      0x00\n        /* \"contracts/Defly/NFTtesting.sol\":7386:7393  TokenId */\n      dup7\n        /* \"contracts/Defly/NFTtesting.sol\":7360:7394  Staker[_to][_mintAddress][TokenId] */\n      dup2\n      mstore\n      0x20\n      add\n      swap1\n      dup2\n      mstore\n      0x20\n      add\n      0x00\n      keccak256\n        /* \"contracts/Defly/NFTtesting.sol\":7360:7398  Staker[_to][_mintAddress][TokenId].day */\n      0x02\n      add\n      sload\n        /* \"contracts/Defly/NFTtesting.sol\":7360:7404  Staker[_to][_mintAddress][TokenId].day == 90 */\n      sub\n        /* \"contracts/Defly/NFTtesting.sol\":7357:7454  if(Staker[_to][_mintAddress][TokenId].day == 90){... */\n      tag_216\n      jumpi\n        /* \"contracts/Defly/NFTtesting.sol\":7419:7440  category4.decrement() */\n      tag_217\n        /* \"contracts/Defly/NFTtesting.sol\":7419:7428  category4 */\n      0x04\n        /* \"contracts/Defly/NFTtesting.sol\":7419:7438  category4.decrement */\n      tag_208\n        /* \"contracts/Defly/NFTtesting.sol\":7419:7440  category4.decrement() */\n      jump\t// in\n    tag_217:\n        /* \"contracts/Defly/NFTtesting.sol\":7357:7454  if(Staker[_to][_mintAddress][TokenId].day == 90){... */\n    tag_216:\n        /* \"contracts/Defly/NFTtesting.sol\":7246:7454  if(Staker[_to][_mintAddress][TokenId].day == 60){... */\n    tag_215:\n        /* \"contracts/Defly/NFTtesting.sol\":7135:7454  if(Staker[_to][_mintAddress][TokenId].day == 30){... */\n    tag_212:\n        /* \"contracts/Defly/NFTtesting.sol\":7027:7454  if(Staker[_to][_mintAddress][TokenId].day == 15){... */\n    tag_209:\n        /* \"contracts/Defly/NFTtesting.sol\":5810:7462  {... */\n      pop\n        /* \"contracts/Defly/NFTtesting.sol\":5737:7462  function withdraw (uint TokenId,address _to,address _mintAddress) public {... */\n      pop\n      pop\n      pop\n      jump\t// out\n        /* \"contracts/Defly/NFTtesting.sol\":684:712  address public ERC721address */\n    tag_72:\n      0x05\n      0x00\n      swap1\n      sload\n      swap1\n      0x0100\n      exp\n      swap1\n      div\n      0xffffffffffffffffffffffffffffffffffffffff\n      and\n      dup2\n      jump\t// out\n        /* \"contracts/Defly/NFTtesting.sol\":7719:7898  function AdminAddToken(uint Amount) public onlyOwner{... */\n    tag_77:\n        /* \"@openzeppelin/contracts/access/Ownable.sol\":1094:1107  _checkOwner() */\n      tag_219\n        /* \"@openzeppelin/contracts/access/Ownable.sol\":1094:1105  _checkOwner */\n      tag_97\n        /* \"@openzeppelin/contracts/access/Ownable.sol\":1094:1107  _checkOwner() */\n      jump\t// in\n    tag_219:\n        /* \"contracts/Defly/NFTtesting.sol\":7803:7809  Amount */\n      dup1\n        /* \"contracts/Defly/NFTtesting.sol\":7781:7799  TotalRemaningToken */\n      0x07\n      0x00\n        /* \"contracts/Defly/NFTtesting.sol\":7781:7809  TotalRemaningToken += Amount */\n      dup3\n      dup3\n      sload\n      tag_221\n      swap2\n      swap1\n      tag_117\n      jump\t// in\n    tag_221:\n      swap3\n      pop\n      pop\n      dup2\n      swap1\n      sstore\n      pop\n        /* \"contracts/Defly/NFTtesting.sol\":7819:7891  IERC20(ERC20Address).safeTransferFrom(msg.sender, address(this) ,Amount) */\n      tag_222\n        /* \"contracts/Defly/NFTtesting.sol\":7857:7867  msg.sender */\n      caller\n        /* \"contracts/Defly/NFTtesting.sol\":7877:7881  this */\n      address\n        /* \"contracts/Defly/NFTtesting.sol\":7884:7890  Amount */\n      dup4\n        /* \"contracts/Defly/NFTtesting.sol\":7826:7838  ERC20Address */\n      0x06\n      0x00\n      swap1\n      sload\n      swap1\n      0x0100\n      exp\n      swap1\n      div\n      0xffffffffffffffffffffffffffffffffffffffff\n      and\n        /* \"contracts/Defly/NFTtesting.sol\":7819:7856  IERC20(ERC20Address).safeTransferFrom */\n      0xffffffffffffffffffffffffffffffffffffffff\n      and\n      tag_223\n      swap1\n        /* \"contracts/Defly/NFTtesting.sol\":7819:7891  IERC20(ERC20Address).safeTransferFrom(msg.sender, address(this) ,Amount) */\n      swap4\n      swap3\n      swap2\n      swap1\n      0xffffffff\n      and\n      jump\t// in\n    tag_222:\n        /* \"contracts/Defly/NFTtesting.sol\":7719:7898  function AdminAddToken(uint Amount) public onlyOwner{... */\n      pop\n      jump\t// out\n        /* \"contracts/Defly/NFTtesting.sol\":1092:1170  mapping (address => mapping(address => mapping(uint => Detail))) public Staker */\n    tag_81:\n      mstore(0x20, 0x09)\n      dup3\n      0x00\n      mstore\n      mstore(0x20, keccak256(0x00, 0x40))\n      dup2\n      0x00\n      mstore\n      mstore(0x20, keccak256(0x00, 0x40))\n      dup1\n      0x00\n      mstore\n      keccak256(0x00, 0x40)\n      0x00\n      swap3\n      pop\n      swap3\n      pop\n      pop\n      pop\n      dup1\n      0x00\n      add\n      0x00\n      swap1\n      sload\n      swap1\n      0x0100\n      exp\n      swap1\n      div\n      0xffffffffffffffffffffffffffffffffffffffff\n      and\n      swap1\n      dup1\n      0x01\n      add\n      sload\n      swap1\n      dup1\n      0x02\n      add\n      sload\n      swap1\n      dup1\n      0x03\n      add\n      sload\n      swap1\n      dup1\n      0x04\n      add\n      sload\n      swap1\n      dup1\n      0x05\n      add\n      sload\n      swap1\n      dup1\n      0x06\n      add\n      0x00\n      swap1\n      sload\n      swap1\n      0x0100\n      exp\n      swap1\n      div\n      0xff\n      and\n      swap1\n      pop\n      dup8\n      jump\t// out\n        /* \"contracts/Defly/NFTtesting.sol\":1339:1394  mapping (address => mapping(uint => uint)) public Count */\n    tag_86:\n      mstore(0x20, 0x0b)\n      dup2\n      0x00\n      mstore\n      mstore(0x20, keccak256(0x00, 0x40))\n      dup1\n      0x00\n      mstore\n      keccak256(0x00, 0x40)\n      0x00\n      swap2\n      pop\n      swap2\n      pop\n      pop\n      sload\n      dup2\n      jump\t// out\n        /* \"@openzeppelin/contracts/access/Ownable.sol\":2081:2279  function transferOwnership(address newOwner) public virtual onlyOwner {... */\n    tag_90:\n        /* \"@openzeppelin/contracts/access/Ownable.sol\":1094:1107  _checkOwner() */\n      tag_225\n        /* \"@openzeppelin/contracts/access/Ownable.sol\":1094:1105  _checkOwner */\n      tag_97\n        /* \"@openzeppelin/contracts/access/Ownable.sol\":1094:1107  _checkOwner() */\n      jump\t// in\n    tag_225:\n        /* \"@openzeppelin/contracts/access/Ownable.sol\":2189:2190  0 */\n      0x00\n        /* \"@openzeppelin/contracts/access/Ownable.sol\":2169:2191  newOwner != address(0) */\n      0xffffffffffffffffffffffffffffffffffffffff\n      and\n        /* \"@openzeppelin/contracts/access/Ownable.sol\":2169:2177  newOwner */\n      dup2\n        /* \"@openzeppelin/contracts/access/Ownable.sol\":2169:2191  newOwner != address(0) */\n      0xffffffffffffffffffffffffffffffffffffffff\n      and\n      sub\n        /* \"@openzeppelin/contracts/access/Ownable.sol\":2161:2234  require(newOwner != address(0), \"Ownable: new owner is the zero address\") */\n      tag_227\n      jumpi\n      mload(0x40)\n      0x08c379a000000000000000000000000000000000000000000000000000000000\n      dup2\n      mstore\n      0x04\n      add\n      tag_228\n      swap1\n      tag_229\n      jump\t// in\n    tag_228:\n      mload(0x40)\n      dup1\n      swap2\n      sub\n      swap1\n      revert\n    tag_227:\n        /* \"@openzeppelin/contracts/access/Ownable.sol\":2244:2272  _transferOwnership(newOwner) */\n      tag_230\n        /* \"@openzeppelin/contracts/access/Ownable.sol\":2263:2271  newOwner */\n      dup2\n        /* \"@openzeppelin/contracts/access/Ownable.sol\":2244:2262  _transferOwnership */\n      tag_100\n        /* \"@openzeppelin/contracts/access/Ownable.sol\":2244:2272  _transferOwnership(newOwner) */\n      jump\t// in\n    tag_230:\n        /* \"@openzeppelin/contracts/access/Ownable.sol\":2081:2279  function transferOwnership(address newOwner) public virtual onlyOwner {... */\n      pop\n      jump\t// out\n        /* \"contracts/Defly/NFTtesting.sol\":606:639  Counters.Counter public category3 */\n    tag_92:\n      0x03\n      dup1\n      0x00\n      add\n      sload\n      swap1\n      pop\n      dup2\n      jump\t// out\n        /* \"@openzeppelin/contracts/access/Ownable.sol\":1359:1489  function _checkOwner() internal view virtual {... */\n    tag_97:\n        /* \"@openzeppelin/contracts/access/Ownable.sol\":1433:1445  _msgSender() */\n      tag_232\n        /* \"@openzeppelin/contracts/access/Ownable.sol\":1433:1443  _msgSender */\n      tag_233\n        /* \"@openzeppelin/contracts/access/Ownable.sol\":1433:1445  _msgSender() */\n      jump\t// in\n    tag_232:\n        /* \"@openzeppelin/contracts/access/Ownable.sol\":1422:1445  owner() == _msgSender() */\n      0xffffffffffffffffffffffffffffffffffffffff\n      and\n        /* \"@openzeppelin/contracts/access/Ownable.sol\":1422:1429  owner() */\n      tag_234\n        /* \"@openzeppelin/contracts/access/Ownable.sol\":1422:1427  owner */\n      tag_58\n        /* \"@openzeppelin/contracts/access/Ownable.sol\":1422:1429  owner() */\n      jump\t// in\n    tag_234:\n        /* \"@openzeppelin/contracts/access/Ownable.sol\":1422:1445  owner() == _msgSender() */\n      0xffffffffffffffffffffffffffffffffffffffff\n      and\n      eq\n        /* \"@openzeppelin/contracts/access/Ownable.sol\":1414:1482  require(owner() == _msgSender(), \"Ownable: caller is not the owner\") */\n      tag_235\n      jumpi\n      mload(0x40)\n      0x08c379a000000000000000000000000000000000000000000000000000000000\n      dup2\n      mstore\n      0x04\n      add\n      tag_236\n      swap1\n      tag_237\n      jump\t// in\n    tag_236:\n      mload(0x40)\n      dup1\n      swap2\n      sub\n      swap1\n      revert\n    tag_235:\n        /* \"@openzeppelin/contracts/access/Ownable.sol\":1359:1489  function _checkOwner() internal view virtual {... */\n      jump\t// out\n        /* \"@openzeppelin/contracts/access/Ownable.sol\":2433:2620  function _transferOwnership(address newOwner) internal virtual {... */\n    tag_100:\n        /* \"@openzeppelin/contracts/access/Ownable.sol\":2506:2522  address oldOwner */\n      0x00\n        /* \"@openzeppelin/contracts/access/Ownable.sol\":2525:2531  _owner */\n      dup1\n      0x00\n      swap1\n      sload\n      swap1\n      0x0100\n      exp\n      swap1\n      div\n      0xffffffffffffffffffffffffffffffffffffffff\n      and\n        /* \"@openzeppelin/contracts/access/Ownable.sol\":2506:2531  address oldOwner = _owner */\n      swap1\n      pop\n        /* \"@openzeppelin/contracts/access/Ownable.sol\":2550:2558  newOwner */\n      dup2\n        /* \"@openzeppelin/contracts/access/Ownable.sol\":2541:2547  _owner */\n      0x00\n      dup1\n        /* \"@openzeppelin/contracts/access/Ownable.sol\":2541:2558  _owner = newOwner */\n      0x0100\n      exp\n      dup2\n      sload\n      dup2\n      0xffffffffffffffffffffffffffffffffffffffff\n      mul\n      not\n      and\n      swap1\n      dup4\n      0xffffffffffffffffffffffffffffffffffffffff\n      and\n      mul\n      or\n      swap1\n      sstore\n      pop\n        /* \"@openzeppelin/contracts/access/Ownable.sol\":2604:2612  newOwner */\n      dup2\n        /* \"@openzeppelin/contracts/access/Ownable.sol\":2573:2613  OwnershipTransferred(oldOwner, newOwner) */\n      0xffffffffffffffffffffffffffffffffffffffff\n      and\n        /* \"@openzeppelin/contracts/access/Ownable.sol\":2594:2602  oldOwner */\n      dup2\n        /* \"@openzeppelin/contracts/access/Ownable.sol\":2573:2613  OwnershipTransferred(oldOwner, newOwner) */\n      0xffffffffffffffffffffffffffffffffffffffff\n      and\n      0x8be0079c531659141344cd1fd0a4f28419497f9722a3daafe3b4186f6b6457e0\n      mload(0x40)\n      mload(0x40)\n      dup1\n      swap2\n      sub\n      swap1\n      log3\n        /* \"@openzeppelin/contracts/access/Ownable.sol\":2496:2620  {... */\n      pop\n        /* \"@openzeppelin/contracts/access/Ownable.sol\":2433:2620  function _transferOwnership(address newOwner) internal virtual {... */\n      pop\n      jump\t// out\n        /* \"@openzeppelin/contracts/utils/Counters.sol\":945:1068  function increment(Counter storage counter) internal {... */\n    tag_107:\n        /* \"@openzeppelin/contracts/utils/Counters.sol\":1050:1051  1 */\n      0x01\n        /* \"@openzeppelin/contracts/utils/Counters.sol\":1032:1039  counter */\n      dup2\n        /* \"@openzeppelin/contracts/utils/Counters.sol\":1032:1046  counter._value */\n      0x00\n      add\n      0x00\n        /* \"@openzeppelin/contracts/utils/Counters.sol\":1032:1051  counter._value += 1 */\n      dup3\n      dup3\n      sload\n      add\n      swap3\n      pop\n      pop\n      dup2\n      swap1\n      sstore\n      pop\n        /* \"@openzeppelin/contracts/utils/Counters.sol\":945:1068  function increment(Counter storage counter) internal {... */\n      pop\n      jump\t// out\n        /* \"@openzeppelin/contracts/utils/Counters.sol\":827:939  function current(Counter storage counter) internal view returns (uint256) {... */\n    tag_109:\n        /* \"@openzeppelin/contracts/utils/Counters.sol\":892:899  uint256 */\n      0x00\n        /* \"@openzeppelin/contracts/utils/Counters.sol\":918:925  counter */\n      dup2\n        /* \"@openzeppelin/contracts/utils/Counters.sol\":918:932  counter._value */\n      0x00\n      add\n      sload\n        /* \"@openzeppelin/contracts/utils/Counters.sol\":911:932  return counter._value */\n      swap1\n      pop\n        /* \"@openzeppelin/contracts/utils/Counters.sol\":827:939  function current(Counter storage counter) internal view returns (uint256) {... */\n      swap2\n      swap1\n      pop\n      jump\t// out\n        /* \"@openzeppelin/contracts/token/ERC20/utils/SafeERC20.sol\":763:968  function safeTransfer(... */\n    tag_192:\n        /* \"@openzeppelin/contracts/token/ERC20/utils/SafeERC20.sol\":875:961  _callOptionalReturn(token, abi.encodeWithSelector(token.transfer.selector, to, value)) */\n      tag_242\n        /* \"@openzeppelin/contracts/token/ERC20/utils/SafeERC20.sol\":895:900  token */\n      dup4\n        /* \"@openzeppelin/contracts/token/ERC20/utils/SafeERC20.sol\":925:948  token.transfer.selector */\n      shl(0xe0, 0xa9059cbb)\n        /* \"@openzeppelin/contracts/token/ERC20/utils/SafeERC20.sol\":950:952  to */\n      dup5\n        /* \"@openzeppelin/contracts/token/ERC20/utils/SafeERC20.sol\":954:959  value */\n      dup5\n        /* \"@openzeppelin/contracts/token/ERC20/utils/SafeERC20.sol\":902:960  abi.encodeWithSelector(token.transfer.selector, to, value) */\n      add(0x24, mload(0x40))\n      tag_243\n      swap3\n      swap2\n      swap1\n      tag_244\n      jump\t// in\n    tag_243:\n      mload(0x40)\n      0x20\n      dup2\n      dup4\n      sub\n      sub\n      dup2\n      mstore\n      swap1\n      0x40\n      mstore\n      swap1\n      not(0xffffffffffffffffffffffffffffffffffffffffffffffffffffffff)\n      and\n      0x20\n      dup3\n      add\n      dup1\n      mload\n      0xffffffffffffffffffffffffffffffffffffffffffffffffffffffff\n      dup4\n      dup2\n      dup4\n      and\n      or\n      dup4\n      mstore\n      pop\n      pop\n      pop\n      pop\n        /* \"@openzeppelin/contracts/token/ERC20/utils/SafeERC20.sol\":875:894  _callOptionalReturn */\n      tag_245\n        /* \"@openzeppelin/contracts/token/ERC20/utils/SafeERC20.sol\":875:961  _callOptionalReturn(token, abi.encodeWithSelector(token.transfer.selector, to, value)) */\n      jump\t// in\n    tag_242:\n        /* \"@openzeppelin/contracts/token/ERC20/utils/SafeERC20.sol\":763:968  function safeTransfer(... */\n      pop\n      pop\n      pop\n      jump\t// out\n        /* \"@openzeppelin/contracts/utils/Counters.sol\":1074:1303  function decrement(Counter storage counter) internal {... */\n    tag_208:\n        /* \"@openzeppelin/contracts/utils/Counters.sol\":1137:1150  uint256 value */\n      0x00\n        /* \"@openzeppelin/contracts/utils/Counters.sol\":1153:1160  counter */\n      dup2\n        /* \"@openzeppelin/contracts/utils/Counters.sol\":1153:1167  counter._value */\n      0x00\n      add\n      sload\n        /* \"@openzeppelin/contracts/utils/Counters.sol\":1137:1167  uint256 value = counter._value */\n      swap1\n      pop\n        /* \"@openzeppelin/contracts/utils/Counters.sol\":1193:1194  0 */\n      0x00\n        /* \"@openzeppelin/contracts/utils/Counters.sol\":1185:1190  value */\n      dup2\n        /* \"@openzeppelin/contracts/utils/Counters.sol\":1185:1194  value > 0 */\n      gt\n        /* \"@openzeppelin/contracts/utils/Counters.sol\":1177:1226  require(value > 0, \"Counter: decrement overflow\") */\n      tag_247\n      jumpi\n      mload(0x40)\n      0x08c379a000000000000000000000000000000000000000000000000000000000\n      dup2\n      mstore\n      0x04\n      add\n      tag_248\n      swap1\n      tag_249\n      jump\t// in\n    tag_248:\n      mload(0x40)\n      dup1\n      swap2\n      sub\n      swap1\n      revert\n    tag_247:\n        /* \"@openzeppelin/contracts/utils/Counters.sol\":1285:1286  1 */\n      0x01\n        /* \"@openzeppelin/contracts/utils/Counters.sol\":1277:1282  value */\n      dup2\n        /* \"@openzeppelin/contracts/utils/Counters.sol\":1277:1286  value - 1 */\n      sub\n        /* \"@openzeppelin/contracts/utils/Counters.sol\":1260:1267  counter */\n      dup3\n        /* \"@openzeppelin/contracts/utils/Counters.sol\":1260:1274  counter._value */\n      0x00\n      add\n        /* \"@openzeppelin/contracts/utils/Counters.sol\":1260:1286  counter._value = value - 1 */\n      dup2\n      swap1\n      sstore\n      pop\n        /* \"@openzeppelin/contracts/utils/Counters.sol\":1127:1303  {... */\n      pop\n        /* \"@openzeppelin/contracts/utils/Counters.sol\":1074:1303  function decrement(Counter storage counter) internal {... */\n      pop\n      jump\t// out\n        /* \"@openzeppelin/contracts/token/ERC20/utils/SafeERC20.sol\":974:1215  function safeTransferFrom(... */\n    tag_223:\n        /* \"@openzeppelin/contracts/token/ERC20/utils/SafeERC20.sol\":1112:1208  _callOptionalReturn(token, abi.encodeWithSelector(token.transferFrom.selector, from, to, value)) */\n      tag_251\n        /* \"@openzeppelin/contracts/token/ERC20/utils/SafeERC20.sol\":1132:1137  token */\n      dup5\n        /* \"@openzeppelin/contracts/token/ERC20/utils/SafeERC20.sol\":1162:1189  token.transferFrom.selector */\n      shl(0xe0, 0x23b872dd)\n        /* \"@openzeppelin/contracts/token/ERC20/utils/SafeERC20.sol\":1191:1195  from */\n      dup6\n        /* \"@openzeppelin/contracts/token/ERC20/utils/SafeERC20.sol\":1197:1199  to */\n      dup6\n        /* \"@openzeppelin/contracts/token/ERC20/utils/SafeERC20.sol\":1201:1206  value */\n      dup6\n        /* \"@openzeppelin/contracts/token/ERC20/utils/SafeERC20.sol\":1139:1207  abi.encodeWithSelector(token.transferFrom.selector, from, to, value) */\n      add(0x24, mload(0x40))\n      tag_252\n      swap4\n      swap3\n      swap2\n      swap1\n      tag_253\n      jump\t// in\n    tag_252:\n      mload(0x40)\n      0x20\n      dup2\n      dup4\n      sub\n      sub\n      dup2\n      mstore\n      swap1\n      0x40\n      mstore\n      swap1\n      not(0xffffffffffffffffffffffffffffffffffffffffffffffffffffffff)\n      and\n      0x20\n      dup3\n      add\n      dup1\n      mload\n      0xffffffffffffffffffffffffffffffffffffffffffffffffffffffff\n      dup4\n      dup2\n      dup4\n      and\n      or\n      dup4\n      mstore\n      pop\n      pop\n      pop\n      pop\n        /* \"@openzeppelin/contracts/token/ERC20/utils/SafeERC20.sol\":1112:1131  _callOptionalReturn */\n      tag_245\n        /* \"@openzeppelin/contracts/token/ERC20/utils/SafeERC20.sol\":1112:1208  _callOptionalReturn(token, abi.encodeWithSelector(token.transferFrom.selector, from, to, value)) */\n      jump\t// in\n    tag_251:\n        /* \"@openzeppelin/contracts/token/ERC20/utils/SafeERC20.sol\":974:1215  function safeTransferFrom(... */\n      pop\n      pop\n      pop\n      pop\n      jump\t// out\n        /* \"@openzeppelin/contracts/utils/Context.sol\":640:736  function _msgSender() internal view virtual returns (address) {... */\n    tag_233:\n        /* \"@openzeppelin/contracts/utils/Context.sol\":693:700  address */\n      0x00\n        /* \"@openzeppelin/contracts/utils/Context.sol\":719:729  msg.sender */\n      caller\n        /* \"@openzeppelin/contracts/utils/Context.sol\":712:729  return msg.sender */\n      swap1\n      pop\n        /* \"@openzeppelin/contracts/utils/Context.sol\":640:736  function _msgSender() internal view virtual returns (address) {... */\n      swap1\n      jump\t// out\n        /* \"@openzeppelin/contracts/token/ERC20/utils/SafeERC20.sol\":3747:4453  function _callOptionalReturn(IERC20 token, bytes memory data) private {... */\n    tag_245:\n        /* \"@openzeppelin/contracts/token/ERC20/utils/SafeERC20.sol\":4166:4189  bytes memory returndata */\n      0x00\n        /* \"@openzeppelin/contracts/token/ERC20/utils/SafeERC20.sol\":4192:4261  address(token).functionCall(data, \"SafeERC20: low-level call failed\") */\n      tag_256\n        /* \"@openzeppelin/contracts/token/ERC20/utils/SafeERC20.sol\":4220:4224  data */\n      dup3\n        /* \"@openzeppelin/contracts/token/ERC20/utils/SafeERC20.sol\":4192:4261  address(token).functionCall(data, \"SafeERC20: low-level call failed\") */\n      mload(0x40)\n      dup1\n      0x40\n      add\n      0x40\n      mstore\n      dup1\n      0x20\n      dup2\n      mstore\n      0x20\n      add\n      0x5361666545524332303a206c6f772d6c6576656c2063616c6c206661696c6564\n      dup2\n      mstore\n      pop\n        /* \"@openzeppelin/contracts/token/ERC20/utils/SafeERC20.sol\":4200:4205  token */\n      dup6\n        /* \"@openzeppelin/contracts/token/ERC20/utils/SafeERC20.sol\":4192:4219  address(token).functionCall */\n      0xffffffffffffffffffffffffffffffffffffffff\n      and\n      tag_257\n      swap1\n        /* \"@openzeppelin/contracts/token/ERC20/utils/SafeERC20.sol\":4192:4261  address(token).functionCall(data, \"SafeERC20: low-level call failed\") */\n      swap3\n      swap2\n      swap1\n      0xffffffff\n      and\n      jump\t// in\n    tag_256:\n        /* \"@openzeppelin/contracts/token/ERC20/utils/SafeERC20.sol\":4166:4261  bytes memory returndata = address(token).functionCall(data, \"SafeERC20: low-level call failed\") */\n      swap1\n      pop\n        /* \"@openzeppelin/contracts/token/ERC20/utils/SafeERC20.sol\":4295:4296  0 */\n      0x00\n        /* \"@openzeppelin/contracts/token/ERC20/utils/SafeERC20.sol\":4275:4285  returndata */\n      dup2\n        /* \"@openzeppelin/contracts/token/ERC20/utils/SafeERC20.sol\":4275:4292  returndata.length */\n      mload\n        /* \"@openzeppelin/contracts/token/ERC20/utils/SafeERC20.sol\":4275:4296  returndata.length > 0 */\n      gt\n        /* \"@openzeppelin/contracts/token/ERC20/utils/SafeERC20.sol\":4271:4447  if (returndata.length > 0) {... */\n      iszero\n      tag_258\n      jumpi\n        /* \"@openzeppelin/contracts/token/ERC20/utils/SafeERC20.sol\":4370:4380  returndata */\n      dup1\n        /* \"@openzeppelin/contracts/token/ERC20/utils/SafeERC20.sol\":4359:4389  abi.decode(returndata, (bool)) */\n      dup1\n      0x20\n      add\n      swap1\n      mload\n      dup2\n      add\n      swap1\n      tag_259\n      swap2\n      swap1\n      tag_260\n      jump\t// in\n    tag_259:\n        /* \"@openzeppelin/contracts/token/ERC20/utils/SafeERC20.sol\":4351:4436  require(abi.decode(returndata, (bool)), \"SafeERC20: ERC20 operation did not succeed\") */\n      tag_261\n      jumpi\n      mload(0x40)\n      0x08c379a000000000000000000000000000000000000000000000000000000000\n      dup2\n      mstore\n      0x04\n      add\n      tag_262\n      swap1\n      tag_263\n      jump\t// in\n    tag_262:\n      mload(0x40)\n      dup1\n      swap2\n      sub\n      swap1\n      revert\n    tag_261:\n        /* \"@openzeppelin/contracts/token/ERC20/utils/SafeERC20.sol\":4271:4447  if (returndata.length > 0) {... */\n    tag_258:\n        /* \"@openzeppelin/contracts/token/ERC20/utils/SafeERC20.sol\":3817:4453  {... */\n      pop\n        /* \"@openzeppelin/contracts/token/ERC20/utils/SafeERC20.sol\":3747:4453  function _callOptionalReturn(IERC20 token, bytes memory data) private {... */\n      pop\n      pop\n      jump\t// out\n        /* \"@openzeppelin/contracts/utils/Address.sol\":3873:4096  function functionCall(... */\n    tag_257:\n        /* \"@openzeppelin/contracts/utils/Address.sol\":4006:4018  bytes memory */\n      0x60\n        /* \"@openzeppelin/contracts/utils/Address.sol\":4037:4089  functionCallWithValue(target, data, 0, errorMessage) */\n      tag_265\n        /* \"@openzeppelin/contracts/utils/Address.sol\":4059:4065  target */\n      dup5\n        /* \"@openzeppelin/contracts/utils/Address.sol\":4067:4071  data */\n      dup5\n        /* \"@openzeppelin/contracts/utils/Address.sol\":4073:4074  0 */\n      0x00\n        /* \"@openzeppelin/contracts/utils/Address.sol\":4076:4088  errorMessage */\n      dup6\n        /* \"@openzeppelin/contracts/utils/Address.sol\":4037:4058  functionCallWithValue */\n      tag_266\n        /* \"@openzeppelin/contracts/utils/Address.sol\":4037:4089  functionCallWithValue(target, data, 0, errorMessage) */\n      jump\t// in\n    tag_265:\n        /* \"@openzeppelin/contracts/utils/Address.sol\":4030:4089  return functionCallWithValue(target, data, 0, errorMessage) */\n      swap1\n      pop\n        /* \"@openzeppelin/contracts/utils/Address.sol\":3873:4096  function functionCall(... */\n      swap4\n      swap3\n      pop\n      pop\n      pop\n      jump\t// out\n        /* \"@openzeppelin/contracts/utils/Address.sol\":4960:5406  function functionCallWithValue(... */\n    tag_266:\n        /* \"@openzeppelin/contracts/utils/Address.sol\":5125:5137  bytes memory */\n      0x60\n        /* \"@openzeppelin/contracts/utils/Address.sol\":5182:5187  value */\n      dup3\n        /* \"@openzeppelin/contracts/utils/Address.sol\":5157:5178  address(this).balance */\n      selfbalance\n        /* \"@openzeppelin/contracts/utils/Address.sol\":5157:5187  address(this).balance >= value */\n      lt\n      iszero\n        /* \"@openzeppelin/contracts/utils/Address.sol\":5149:5230  require(address(this).balance >= value, \"Address: insufficient balance for call\") */\n      tag_268\n      jumpi\n      mload(0x40)\n      0x08c379a000000000000000000000000000000000000000000000000000000000\n      dup2\n      mstore\n      0x04\n      add\n      tag_269\n      swap1\n      tag_270\n      jump\t// in\n    tag_269:\n      mload(0x40)\n      dup1\n      swap2\n      sub\n      swap1\n      revert\n    tag_268:\n        /* \"@openzeppelin/contracts/utils/Address.sol\":5241:5253  bool success */\n      0x00\n        /* \"@openzeppelin/contracts/utils/Address.sol\":5255:5278  bytes memory returndata */\n      dup1\n        /* \"@openzeppelin/contracts/utils/Address.sol\":5282:5288  target */\n      dup7\n        /* \"@openzeppelin/contracts/utils/Address.sol\":5282:5293  target.call */\n      0xffffffffffffffffffffffffffffffffffffffff\n      and\n        /* \"@openzeppelin/contracts/utils/Address.sol\":5301:5306  value */\n      dup6\n        /* \"@openzeppelin/contracts/utils/Address.sol\":5308:5312  data */\n      dup8\n        /* \"@openzeppelin/contracts/utils/Address.sol\":5282:5313  target.call{value: value}(data) */\n      mload(0x40)\n      tag_271\n      swap2\n      swap1\n      tag_272\n      jump\t// in\n    tag_271:\n      0x00\n      mload(0x40)\n      dup1\n      dup4\n      sub\n      dup2\n      dup6\n      dup8\n      gas\n      call\n      swap3\n      pop\n      pop\n      pop\n      returndatasize\n      dup1\n      0x00\n      dup2\n      eq\n      tag_275\n      jumpi\n      mload(0x40)\n      swap2\n      pop\n      and(add(returndatasize, 0x3f), not(0x1f))\n      dup3\n      add\n      0x40\n      mstore\n      returndatasize\n      dup3\n      mstore\n      returndatasize\n      0x00\n      0x20\n      dup5\n      add\n      returndatacopy\n      jump(tag_274)\n    tag_275:\n      0x60\n      swap2\n      pop\n    tag_274:\n      pop\n        /* \"@openzeppelin/contracts/utils/Address.sol\":5240:5313  (bool success, bytes memory returndata) = target.call{value: value}(data) */\n      swap2\n      pop\n      swap2\n      pop\n        /* \"@openzeppelin/contracts/utils/Address.sol\":5330:5399  verifyCallResultFromTarget(target, success, returndata, errorMessage) */\n      tag_276\n        /* \"@openzeppelin/contracts/utils/Address.sol\":5357:5363  target */\n      dup8\n        /* \"@openzeppelin/contracts/utils/Address.sol\":5365:5372  success */\n      dup4\n        /* \"@openzeppelin/contracts/utils/Address.sol\":5374:5384  returndata */\n      dup4\n        /* \"@openzeppelin/contracts/utils/Address.sol\":5386:5398  errorMessage */\n      dup8\n        /* \"@openzeppelin/contracts/utils/Address.sol\":5330:5356  verifyCallResultFromTarget */\n      tag_277\n        /* \"@openzeppelin/contracts/utils/Address.sol\":5330:5399  verifyCallResultFromTarget(target, success, returndata, errorMessage) */\n      jump\t// in\n    tag_276:\n        /* \"@openzeppelin/contracts/utils/Address.sol\":5323:5399  return verifyCallResultFromTarget(target, success, returndata, errorMessage) */\n      swap3\n      pop\n      pop\n      pop\n        /* \"@openzeppelin/contracts/utils/Address.sol\":4960:5406  function functionCallWithValue(... */\n      swap5\n      swap4\n      pop\n      pop\n      pop\n      pop\n      jump\t// out\n        /* \"@openzeppelin/contracts/utils/Address.sol\":7466:8094  function verifyCallResultFromTarget(... */\n    tag_277:\n        /* \"@openzeppelin/contracts/utils/Address.sol\":7646:7658  bytes memory */\n      0x60\n        /* \"@openzeppelin/contracts/utils/Address.sol\":7674:7681  success */\n      dup4\n        /* \"@openzeppelin/contracts/utils/Address.sol\":7670:8088  if (success) {... */\n      iszero\n      tag_279\n      jumpi\n        /* \"@openzeppelin/contracts/utils/Address.sol\":7722:7723  0 */\n      0x00\n        /* \"@openzeppelin/contracts/utils/Address.sol\":7701:7711  returndata */\n      dup4\n        /* \"@openzeppelin/contracts/utils/Address.sol\":7701:7718  returndata.length */\n      mload\n        /* \"@openzeppelin/contracts/utils/Address.sol\":7701:7723  returndata.length == 0 */\n      sub\n        /* \"@openzeppelin/contracts/utils/Address.sol\":7697:7983  if (returndata.length == 0) {... */\n      tag_280\n      jumpi\n        /* \"@openzeppelin/contracts/utils/Address.sol\":7916:7934  isContract(target) */\n      tag_281\n        /* \"@openzeppelin/contracts/utils/Address.sol\":7927:7933  target */\n      dup6\n        /* \"@openzeppelin/contracts/utils/Address.sol\":7916:7926  isContract */\n      tag_282\n        /* \"@openzeppelin/contracts/utils/Address.sol\":7916:7934  isContract(target) */\n      jump\t// in\n    tag_281:\n        /* \"@openzeppelin/contracts/utils/Address.sol\":7908:7968  require(isContract(target), \"Address: call to non-contract\") */\n      tag_283\n      jumpi\n      mload(0x40)\n      0x08c379a000000000000000000000000000000000000000000000000000000000\n      dup2\n      mstore\n      0x04\n      add\n      tag_284\n      swap1\n      tag_285\n      jump\t// in\n    tag_284:\n      mload(0x40)\n      dup1\n      swap2\n      sub\n      swap1\n      revert\n    tag_283:\n        /* \"@openzeppelin/contracts/utils/Address.sol\":7697:7983  if (returndata.length == 0) {... */\n    tag_280:\n        /* \"@openzeppelin/contracts/utils/Address.sol\":8003:8013  returndata */\n      dup3\n        /* \"@openzeppelin/contracts/utils/Address.sol\":7996:8013  return returndata */\n      swap1\n      pop\n      jump(tag_278)\n        /* \"@openzeppelin/contracts/utils/Address.sol\":7670:8088  if (success) {... */\n    tag_279:\n        /* \"@openzeppelin/contracts/utils/Address.sol\":8044:8077  _revert(returndata, errorMessage) */\n      tag_287\n        /* \"@openzeppelin/contracts/utils/Address.sol\":8052:8062  returndata */\n      dup4\n        /* \"@openzeppelin/contracts/utils/Address.sol\":8064:8076  errorMessage */\n      dup4\n        /* \"@openzeppelin/contracts/utils/Address.sol\":8044:8051  _revert */\n      tag_288\n        /* \"@openzeppelin/contracts/utils/Address.sol\":8044:8077  _revert(returndata, errorMessage) */\n      jump\t// in\n    tag_287:\n        /* \"@openzeppelin/contracts/utils/Address.sol\":7466:8094  function verifyCallResultFromTarget(... */\n    tag_278:\n      swap5\n      swap4\n      pop\n      pop\n      pop\n      pop\n      jump\t// out\n        /* \"@openzeppelin/contracts/utils/Address.sol\":1175:1495  function isContract(address account) internal view returns (bool) {... */\n    tag_282:\n        /* \"@openzeppelin/contracts/utils/Address.sol\":1235:1239  bool */\n      0x00\n        /* \"@openzeppelin/contracts/utils/Address.sol\":1487:1488  0 */\n      dup1\n        /* \"@openzeppelin/contracts/utils/Address.sol\":1465:1472  account */\n      dup3\n        /* \"@openzeppelin/contracts/utils/Address.sol\":1465:1484  account.code.length */\n      0xffffffffffffffffffffffffffffffffffffffff\n      and\n      extcodesize\n        /* \"@openzeppelin/contracts/utils/Address.sol\":1465:1488  account.code.length > 0 */\n      gt\n        /* \"@openzeppelin/contracts/utils/Address.sol\":1458:1488  return account.code.length > 0 */\n      swap1\n      pop\n        /* \"@openzeppelin/contracts/utils/Address.sol\":1175:1495  function isContract(address account) internal view returns (bool) {... */\n      swap2\n      swap1\n      pop\n      jump\t// out\n        /* \"@openzeppelin/contracts/utils/Address.sol\":8616:9156  function _revert(bytes memory returndata, string memory errorMessage) private pure {... */\n    tag_288:\n        /* \"@openzeppelin/contracts/utils/Address.sol\":8795:8796  0 */\n      0x00\n        /* \"@openzeppelin/contracts/utils/Address.sol\":8775:8785  returndata */\n      dup3\n        /* \"@openzeppelin/contracts/utils/Address.sol\":8775:8792  returndata.length */\n      mload\n        /* \"@openzeppelin/contracts/utils/Address.sol\":8775:8796  returndata.length > 0 */\n      gt\n        /* \"@openzeppelin/contracts/utils/Address.sol\":8771:9150  if (returndata.length > 0) {... */\n      iszero\n      tag_291\n      jumpi\n        /* \"@openzeppelin/contracts/utils/Address.sol\":9003:9013  returndata */\n      dup2\n        /* \"@openzeppelin/contracts/utils/Address.sol\":8997:9014  mload(returndata) */\n      mload\n        /* \"@openzeppelin/contracts/utils/Address.sol\":9059:9074  returndata_size */\n      dup1\n        /* \"@openzeppelin/contracts/utils/Address.sol\":9046:9056  returndata */\n      dup4\n        /* \"@openzeppelin/contracts/utils/Address.sol\":9042:9044  32 */\n      0x20\n        /* \"@openzeppelin/contracts/utils/Address.sol\":9038:9057  add(32, returndata) */\n      add\n        /* \"@openzeppelin/contracts/utils/Address.sol\":9031:9075  revert(add(32, returndata), returndata_size) */\n      revert\n        /* \"@openzeppelin/contracts/utils/Address.sol\":8771:9150  if (returndata.length > 0) {... */\n    tag_291:\n        /* \"@openzeppelin/contracts/utils/Address.sol\":9126:9138  errorMessage */\n      dup1\n        /* \"@openzeppelin/contracts/utils/Address.sol\":9119:9139  revert(errorMessage) */\n      mload(0x40)\n      0x08c379a000000000000000000000000000000000000000000000000000000000\n      dup2\n      mstore\n      0x04\n      add\n      tag_293\n      swap2\n      swap1\n      tag_294\n      jump\t// in\n    tag_293:\n      mload(0x40)\n      dup1\n      swap2\n      sub\n      swap1\n      revert\n        /* \"#utility.yul\":88:205   */\n    tag_296:\n        /* \"#utility.yul\":197:198   */\n      0x00\n        /* \"#utility.yul\":194:195   */\n      dup1\n        /* \"#utility.yul\":187:199   */\n      revert\n        /* \"#utility.yul\":211:328   */\n    tag_297:\n        /* \"#utility.yul\":320:321   */\n      0x00\n        /* \"#utility.yul\":317:318   */\n      dup1\n        /* \"#utility.yul\":310:322   */\n      revert\n        /* \"#utility.yul\":334:460   */\n    tag_298:\n        /* \"#utility.yul\":371:378   */\n      0x00\n        /* \"#utility.yul\":411:453   */\n      0xffffffffffffffffffffffffffffffffffffffff\n        /* \"#utility.yul\":404:409   */\n      dup3\n        /* \"#utility.yul\":400:454   */\n      and\n        /* \"#utility.yul\":389:454   */\n      swap1\n      pop\n        /* \"#utility.yul\":334:460   */\n      swap2\n      swap1\n      pop\n      jump\t// out\n        /* \"#utility.yul\":466:562   */\n    tag_299:\n        /* \"#utility.yul\":503:510   */\n      0x00\n        /* \"#utility.yul\":532:556   */\n      tag_362\n        /* \"#utility.yul\":550:555   */\n      dup3\n        /* \"#utility.yul\":532:556   */\n      tag_298\n      jump\t// in\n    tag_362:\n        /* \"#utility.yul\":521:556   */\n      swap1\n      pop\n        /* \"#utility.yul\":466:562   */\n      swap2\n      swap1\n      pop\n      jump\t// out\n        /* \"#utility.yul\":568:690   */\n    tag_300:\n        /* \"#utility.yul\":641:665   */\n      tag_364\n        /* \"#utility.yul\":659:664   */\n      dup2\n        /* \"#utility.yul\":641:665   */\n      tag_299\n      jump\t// in\n    tag_364:\n        /* \"#utility.yul\":634:639   */\n      dup2\n        /* \"#utility.yul\":631:666   */\n      eq\n        /* \"#utility.yul\":621:684   */\n      tag_365\n      jumpi\n        /* \"#utility.yul\":680:681   */\n      0x00\n        /* \"#utility.yul\":677:678   */\n      dup1\n        /* \"#utility.yul\":670:682   */\n      revert\n        /* \"#utility.yul\":621:684   */\n    tag_365:\n        /* \"#utility.yul\":568:690   */\n      pop\n      jump\t// out\n        /* \"#utility.yul\":696:835   */\n    tag_301:\n        /* \"#utility.yul\":742:747   */\n      0x00\n        /* \"#utility.yul\":780:786   */\n      dup2\n        /* \"#utility.yul\":767:787   */\n      calldataload\n        /* \"#utility.yul\":758:787   */\n      swap1\n      pop\n        /* \"#utility.yul\":796:829   */\n      tag_367\n        /* \"#utility.yul\":823:828   */\n      dup2\n        /* \"#utility.yul\":796:829   */\n      tag_300\n      jump\t// in\n    tag_367:\n        /* \"#utility.yul\":696:835   */\n      swap3\n      swap2\n      pop\n      pop\n      jump\t// out\n        /* \"#utility.yul\":841:918   */\n    tag_302:\n        /* \"#utility.yul\":878:885   */\n      0x00\n        /* \"#utility.yul\":907:912   */\n      dup2\n        /* \"#utility.yul\":896:912   */\n      swap1\n      pop\n        /* \"#utility.yul\":841:918   */\n      swap2\n      swap1\n      pop\n      jump\t// out\n        /* \"#utility.yul\":924:1046   */\n    tag_303:\n        /* \"#utility.yul\":997:1021   */\n      tag_370\n        /* \"#utility.yul\":1015:1020   */\n      dup2\n        /* \"#utility.yul\":997:1021   */\n      tag_302\n      jump\t// in\n    tag_370:\n        /* \"#utility.yul\":990:995   */\n      dup2\n        /* \"#utility.yul\":987:1022   */\n      eq\n        /* \"#utility.yul\":977:1040   */\n      tag_371\n      jumpi\n        /* \"#utility.yul\":1036:1037   */\n      0x00\n        /* \"#utility.yul\":1033:1034   */\n      dup1\n        /* \"#utility.yul\":1026:1038   */\n      revert\n        /* \"#utility.yul\":977:1040   */\n    tag_371:\n        /* \"#utility.yul\":924:1046   */\n      pop\n      jump\t// out\n        /* \"#utility.yul\":1052:1191   */\n    tag_304:\n        /* \"#utility.yul\":1098:1103   */\n      0x00\n        /* \"#utility.yul\":1136:1142   */\n      dup2\n        /* \"#utility.yul\":1123:1143   */\n      calldataload\n        /* \"#utility.yul\":1114:1143   */\n      swap1\n      pop\n        /* \"#utility.yul\":1152:1185   */\n      tag_373\n        /* \"#utility.yul\":1179:1184   */\n      dup2\n        /* \"#utility.yul\":1152:1185   */\n      tag_303\n      jump\t// in\n    tag_373:\n        /* \"#utility.yul\":1052:1191   */\n      swap3\n      swap2\n      pop\n      pop\n      jump\t// out\n        /* \"#utility.yul\":1197:1671   */\n    tag_26:\n        /* \"#utility.yul\":1265:1271   */\n      0x00\n        /* \"#utility.yul\":1273:1279   */\n      dup1\n        /* \"#utility.yul\":1322:1324   */\n      0x40\n        /* \"#utility.yul\":1310:1319   */\n      dup4\n        /* \"#utility.yul\":1301:1308   */\n      dup6\n        /* \"#utility.yul\":1297:1320   */\n      sub\n        /* \"#utility.yul\":1293:1325   */\n      slt\n        /* \"#utility.yul\":1290:1409   */\n      iszero\n      tag_375\n      jumpi\n        /* \"#utility.yul\":1328:1407   */\n      tag_376\n      tag_296\n      jump\t// in\n    tag_376:\n        /* \"#utility.yul\":1290:1409   */\n    tag_375:\n        /* \"#utility.yul\":1448:1449   */\n      0x00\n        /* \"#utility.yul\":1473:1526   */\n      tag_377\n        /* \"#utility.yul\":1518:1525   */\n      dup6\n        /* \"#utility.yul\":1509:1515   */\n      dup3\n        /* \"#utility.yul\":1498:1507   */\n      dup7\n        /* \"#utility.yul\":1494:1516   */\n      add\n        /* \"#utility.yul\":1473:1526   */\n      tag_301\n      jump\t// in\n    tag_377:\n        /* \"#utility.yul\":1463:1526   */\n      swap3\n      pop\n        /* \"#utility.yul\":1419:1536   */\n      pop\n        /* \"#utility.yul\":1575:1577   */\n      0x20\n        /* \"#utility.yul\":1601:1654   */\n      tag_378\n        /* \"#utility.yul\":1646:1653   */\n      dup6\n        /* \"#utility.yul\":1637:1643   */\n      dup3\n        /* \"#utility.yul\":1626:1635   */\n      dup7\n        /* \"#utility.yul\":1622:1644   */\n      add\n        /* \"#utility.yul\":1601:1654   */\n      tag_304\n      jump\t// in\n    tag_378:\n        /* \"#utility.yul\":1591:1654   */\n      swap2\n      pop\n        /* \"#utility.yul\":1546:1664   */\n      pop\n        /* \"#utility.yul\":1197:1671   */\n      swap3\n      pop\n      swap3\n      swap1\n      pop\n      jump\t// out\n        /* \"#utility.yul\":1677:1795   */\n    tag_305:\n        /* \"#utility.yul\":1764:1788   */\n      tag_380\n        /* \"#utility.yul\":1782:1787   */\n      dup2\n        /* \"#utility.yul\":1764:1788   */\n      tag_302\n      jump\t// in\n    tag_380:\n        /* \"#utility.yul\":1759:1762   */\n      dup3\n        /* \"#utility.yul\":1752:1789   */\n      mstore\n        /* \"#utility.yul\":1677:1795   */\n      pop\n      pop\n      jump\t// out\n        /* \"#utility.yul\":1801:1919   */\n    tag_306:\n        /* \"#utility.yul\":1888:1912   */\n      tag_382\n        /* \"#utility.yul\":1906:1911   */\n      dup2\n        /* \"#utility.yul\":1888:1912   */\n      tag_299\n      jump\t// in\n    tag_382:\n        /* \"#utility.yul\":1883:1886   */\n      dup3\n        /* \"#utility.yul\":1876:1913   */\n      mstore\n        /* \"#utility.yul\":1801:1919   */\n      pop\n      pop\n      jump\t// out\n        /* \"#utility.yul\":1925:2257   */\n    tag_29:\n        /* \"#utility.yul\":2046:2050   */\n      0x00\n        /* \"#utility.yul\":2084:2086   */\n      0x40\n        /* \"#utility.yul\":2073:2082   */\n      dup3\n        /* \"#utility.yul\":2069:2087   */\n      add\n        /* \"#utility.yul\":2061:2087   */\n      swap1\n      pop\n        /* \"#utility.yul\":2097:2168   */\n      tag_384\n        /* \"#utility.yul\":2165:2166   */\n      0x00\n        /* \"#utility.yul\":2154:2163   */\n      dup4\n        /* \"#utility.yul\":2150:2167   */\n      add\n        /* \"#utility.yul\":2141:2147   */\n      dup6\n        /* \"#utility.yul\":2097:2168   */\n      tag_305\n      jump\t// in\n    tag_384:\n        /* \"#utility.yul\":2178:2250   */\n      tag_385\n        /* \"#utility.yul\":2246:2248   */\n      0x20\n        /* \"#utility.yul\":2235:2244   */\n      dup4\n        /* \"#utility.yul\":2231:2249   */\n      add\n        /* \"#utility.yul\":2222:2228   */\n      dup5\n        /* \"#utility.yul\":2178:2250   */\n      tag_306\n      jump\t// in\n    tag_385:\n        /* \"#utility.yul\":1925:2257   */\n      swap4\n      swap3\n      pop\n      pop\n      pop\n      jump\t// out\n        /* \"#utility.yul\":2263:2380   */\n    tag_307:\n        /* \"#utility.yul\":2372:2373   */\n      0x00\n        /* \"#utility.yul\":2369:2370   */\n      dup1\n        /* \"#utility.yul\":2362:2374   */\n      revert\n        /* \"#utility.yul\":2386:2503   */\n    tag_308:\n        /* \"#utility.yul\":2495:2496   */\n      0x00\n        /* \"#utility.yul\":2492:2493   */\n      dup1\n        /* \"#utility.yul\":2485:2497   */\n      revert\n        /* \"#utility.yul\":2509:2626   */\n    tag_309:\n        /* \"#utility.yul\":2618:2619   */\n      0x00\n        /* \"#utility.yul\":2615:2616   */\n      dup1\n        /* \"#utility.yul\":2608:2620   */\n      revert\n        /* \"#utility.yul\":2645:3197   */\n    tag_310:\n        /* \"#utility.yul\":2702:2710   */\n      0x00\n        /* \"#utility.yul\":2712:2718   */\n      dup1\n        /* \"#utility.yul\":2762:2765   */\n      dup4\n        /* \"#utility.yul\":2755:2759   */\n      0x1f\n        /* \"#utility.yul\":2747:2753   */\n      dup5\n        /* \"#utility.yul\":2743:2760   */\n      add\n        /* \"#utility.yul\":2739:2766   */\n      slt\n        /* \"#utility.yul\":2729:2851   */\n      tag_390\n      jumpi\n        /* \"#utility.yul\":2770:2849   */\n      tag_391\n      tag_307\n      jump\t// in\n    tag_391:\n        /* \"#utility.yul\":2729:2851   */\n    tag_390:\n        /* \"#utility.yul\":2883:2889   */\n      dup3\n        /* \"#utility.yul\":2870:2890   */\n      calldataload\n        /* \"#utility.yul\":2860:2890   */\n      swap1\n      pop\n        /* \"#utility.yul\":2913:2931   */\n      0xffffffffffffffff\n        /* \"#utility.yul\":2905:2911   */\n      dup2\n        /* \"#utility.yul\":2902:2932   */\n      gt\n        /* \"#utility.yul\":2899:3016   */\n      iszero\n      tag_392\n      jumpi\n        /* \"#utility.yul\":2935:3014   */\n      tag_393\n      tag_308\n      jump\t// in\n    tag_393:\n        /* \"#utility.yul\":2899:3016   */\n    tag_392:\n        /* \"#utility.yul\":3049:3053   */\n      0x20\n        /* \"#utility.yul\":3041:3047   */\n      dup4\n        /* \"#utility.yul\":3037:3054   */\n      add\n        /* \"#utility.yul\":3025:3054   */\n      swap2\n      pop\n        /* \"#utility.yul\":3103:3106   */\n      dup4\n        /* \"#utility.yul\":3095:3099   */\n      0x01\n        /* \"#utility.yul\":3087:3093   */\n      dup3\n        /* \"#utility.yul\":3083:3100   */\n      mul\n        /* \"#utility.yul\":3073:3081   */\n      dup4\n        /* \"#utility.yul\":3069:3101   */\n      add\n        /* \"#utility.yul\":3066:3107   */\n      gt\n        /* \"#utility.yul\":3063:3191   */\n      iszero\n      tag_394\n      jumpi\n        /* \"#utility.yul\":3110:3189   */\n      tag_395\n      tag_309\n      jump\t// in\n    tag_395:\n        /* \"#utility.yul\":3063:3191   */\n    tag_394:\n        /* \"#utility.yul\":2645:3197   */\n      swap3\n      pop\n      swap3\n      swap1\n      pop\n      jump\t// out\n        /* \"#utility.yul\":3203:4166   */\n    tag_32:\n        /* \"#utility.yul\":3300:3306   */\n      0x00\n        /* \"#utility.yul\":3308:3314   */\n      dup1\n        /* \"#utility.yul\":3316:3322   */\n      0x00\n        /* \"#utility.yul\":3324:3330   */\n      dup1\n        /* \"#utility.yul\":3332:3338   */\n      0x00\n        /* \"#utility.yul\":3381:3384   */\n      0x80\n        /* \"#utility.yul\":3369:3378   */\n      dup7\n        /* \"#utility.yul\":3360:3367   */\n      dup9\n        /* \"#utility.yul\":3356:3379   */\n      sub\n        /* \"#utility.yul\":3352:3385   */\n      slt\n        /* \"#utility.yul\":3349:3469   */\n      iszero\n      tag_397\n      jumpi\n        /* \"#utility.yul\":3388:3467   */\n      tag_398\n      tag_296\n      jump\t// in\n    tag_398:\n        /* \"#utility.yul\":3349:3469   */\n    tag_397:\n        /* \"#utility.yul\":3508:3509   */\n      0x00\n        /* \"#utility.yul\":3533:3586   */\n      tag_399\n        /* \"#utility.yul\":3578:3585   */\n      dup9\n        /* \"#utility.yul\":3569:3575   */\n      dup3\n        /* \"#utility.yul\":3558:3567   */\n      dup10\n        /* \"#utility.yul\":3554:3576   */\n      add\n        /* \"#utility.yul\":3533:3586   */\n      tag_301\n      jump\t// in\n    tag_399:\n        /* \"#utility.yul\":3523:3586   */\n      swap6\n      pop\n        /* \"#utility.yul\":3479:3596   */\n      pop\n        /* \"#utility.yul\":3635:3637   */\n      0x20\n        /* \"#utility.yul\":3661:3714   */\n      tag_400\n        /* \"#utility.yul\":3706:3713   */\n      dup9\n        /* \"#utility.yul\":3697:3703   */\n      dup3\n        /* \"#utility.yul\":3686:3695   */\n      dup10\n        /* \"#utility.yul\":3682:3704   */\n      add\n        /* \"#utility.yul\":3661:3714   */\n      tag_301\n      jump\t// in\n    tag_400:\n        /* \"#utility.yul\":3651:3714   */\n      swap5\n      pop\n        /* \"#utility.yul\":3606:3724   */\n      pop\n        /* \"#utility.yul\":3763:3765   */\n      0x40\n        /* \"#utility.yul\":3789:3842   */\n      tag_401\n        /* \"#utility.yul\":3834:3841   */\n      dup9\n        /* \"#utility.yul\":3825:3831   */\n      dup3\n        /* \"#utility.yul\":3814:3823   */\n      dup10\n        /* \"#utility.yul\":3810:3832   */\n      add\n        /* \"#utility.yul\":3789:3842   */\n      tag_304\n      jump\t// in\n    tag_401:\n        /* \"#utility.yul\":3779:3842   */\n      swap4\n      pop\n        /* \"#utility.yul\":3734:3852   */\n      pop\n        /* \"#utility.yul\":3919:3921   */\n      0x60\n        /* \"#utility.yul\":3908:3917   */\n      dup7\n        /* \"#utility.yul\":3904:3922   */\n      add\n        /* \"#utility.yul\":3891:3923   */\n      calldataload\n        /* \"#utility.yul\":3950:3968   */\n      0xffffffffffffffff\n        /* \"#utility.yul\":3942:3948   */\n      dup2\n        /* \"#utility.yul\":3939:3969   */\n      gt\n        /* \"#utility.yul\":3936:4053   */\n      iszero\n      tag_402\n      jumpi\n        /* \"#utility.yul\":3972:4051   */\n      tag_403\n      tag_297\n      jump\t// in\n    tag_403:\n        /* \"#utility.yul\":3936:4053   */\n    tag_402:\n        /* \"#utility.yul\":4085:4149   */\n      tag_404\n        /* \"#utility.yul\":4141:4148   */\n      dup9\n        /* \"#utility.yul\":4132:4138   */\n      dup3\n        /* \"#utility.yul\":4121:4130   */\n      dup10\n        /* \"#utility.yul\":4117:4139   */\n      add\n        /* \"#utility.yul\":4085:4149   */\n      tag_310\n      jump\t// in\n    tag_404:\n        /* \"#utility.yul\":4067:4149   */\n      swap3\n      pop\n      swap3\n      pop\n        /* \"#utility.yul\":3862:4159   */\n      pop\n        /* \"#utility.yul\":3203:4166   */\n      swap3\n      swap6\n      pop\n      swap3\n      swap6\n      swap1\n      swap4\n      pop\n      jump\t// out\n        /* \"#utility.yul\":4172:4321   */\n    tag_311:\n        /* \"#utility.yul\":4208:4215   */\n      0x00\n        /* \"#utility.yul\":4248:4314   */\n      0xffffffff00000000000000000000000000000000000000000000000000000000\n        /* \"#utility.yul\":4241:4246   */\n      dup3\n        /* \"#utility.yul\":4237:4315   */\n      and\n        /* \"#utility.yul\":4226:4315   */\n      swap1\n      pop\n        /* \"#utility.yul\":4172:4321   */\n      swap2\n      swap1\n      pop\n      jump\t// out\n        /* \"#utility.yul\":4327:4442   */\n    tag_312:\n        /* \"#utility.yul\":4412:4435   */\n      tag_407\n        /* \"#utility.yul\":4429:4434   */\n      dup2\n        /* \"#utility.yul\":4412:4435   */\n      tag_311\n      jump\t// in\n    tag_407:\n        /* \"#utility.yul\":4407:4410   */\n      dup3\n        /* \"#utility.yul\":4400:4436   */\n      mstore\n        /* \"#utility.yul\":4327:4442   */\n      pop\n      pop\n      jump\t// out\n        /* \"#utility.yul\":4448:4666   */\n    tag_35:\n        /* \"#utility.yul\":4539:4543   */\n      0x00\n        /* \"#utility.yul\":4577:4579   */\n      0x20\n        /* \"#utility.yul\":4566:4575   */\n      dup3\n        /* \"#utility.yul\":4562:4580   */\n      add\n        /* \"#utility.yul\":4554:4580   */\n      swap1\n      pop\n        /* \"#utility.yul\":4590:4659   */\n      tag_409\n        /* \"#utility.yul\":4656:4657   */\n      0x00\n        /* \"#utility.yul\":4645:4654   */\n      dup4\n        /* \"#utility.yul\":4641:4658   */\n      add\n        /* \"#utility.yul\":4632:4638   */\n      dup5\n        /* \"#utility.yul\":4590:4659   */\n      tag_312\n      jump\t// in\n    tag_409:\n        /* \"#utility.yul\":4448:4666   */\n      swap3\n      swap2\n      pop\n      pop\n      jump\t// out\n        /* \"#utility.yul\":4672:4894   */\n    tag_39:\n        /* \"#utility.yul\":4765:4769   */\n      0x00\n        /* \"#utility.yul\":4803:4805   */\n      0x20\n        /* \"#utility.yul\":4792:4801   */\n      dup3\n        /* \"#utility.yul\":4788:4806   */\n      add\n        /* \"#utility.yul\":4780:4806   */\n      swap1\n      pop\n        /* \"#utility.yul\":4816:4887   */\n      tag_411\n        /* \"#utility.yul\":4884:4885   */\n      0x00\n        /* \"#utility.yul\":4873:4882   */\n      dup4\n        /* \"#utility.yul\":4869:4886   */\n      add\n        /* \"#utility.yul\":4860:4866   */\n      dup5\n        /* \"#utility.yul\":4816:4887   */\n      tag_305\n      jump\t// in\n    tag_411:\n        /* \"#utility.yul\":4672:4894   */\n      swap3\n      swap2\n      pop\n      pop\n      jump\t// out\n        /* \"#utility.yul\":4900:5229   */\n    tag_50:\n        /* \"#utility.yul\":4959:4965   */\n      0x00\n        /* \"#utility.yul\":5008:5010   */\n      0x20\n        /* \"#utility.yul\":4996:5005   */\n      dup3\n        /* \"#utility.yul\":4987:4994   */\n      dup5\n        /* \"#utility.yul\":4983:5006   */\n      sub\n        /* \"#utility.yul\":4979:5011   */\n      slt\n        /* \"#utility.yul\":4976:5095   */\n      iszero\n      tag_413\n      jumpi\n        /* \"#utility.yul\":5014:5093   */\n      tag_414\n      tag_296\n      jump\t// in\n    tag_414:\n        /* \"#utility.yul\":4976:5095   */\n    tag_413:\n        /* \"#utility.yul\":5134:5135   */\n      0x00\n        /* \"#utility.yul\":5159:5212   */\n      tag_415\n        /* \"#utility.yul\":5204:5211   */\n      dup5\n        /* \"#utility.yul\":5195:5201   */\n      dup3\n        /* \"#utility.yul\":5184:5193   */\n      dup6\n        /* \"#utility.yul\":5180:5202   */\n      add\n        /* \"#utility.yul\":5159:5212   */\n      tag_301\n      jump\t// in\n    tag_415:\n        /* \"#utility.yul\":5149:5212   */\n      swap2\n      pop\n        /* \"#utility.yul\":5105:5222   */\n      pop\n        /* \"#utility.yul\":4900:5229   */\n      swap3\n      swap2\n      pop\n      pop\n      jump\t// out\n        /* \"#utility.yul\":5235:6000   */\n    tag_55:\n        /* \"#utility.yul\":5321:5327   */\n      0x00\n        /* \"#utility.yul\":5329:5335   */\n      dup1\n        /* \"#utility.yul\":5337:5343   */\n      0x00\n        /* \"#utility.yul\":5345:5351   */\n      dup1\n        /* \"#utility.yul\":5394:5397   */\n      0x80\n        /* \"#utility.yul\":5382:5391   */\n      dup6\n        /* \"#utility.yul\":5373:5380   */\n      dup8\n        /* \"#utility.yul\":5369:5392   */\n      sub\n        /* \"#utility.yul\":5365:5398   */\n      slt\n        /* \"#utility.yul\":5362:5482   */\n      iszero\n      tag_417\n      jumpi\n        /* \"#utility.yul\":5401:5480   */\n      tag_418\n      tag_296\n      jump\t// in\n    tag_418:\n        /* \"#utility.yul\":5362:5482   */\n    tag_417:\n        /* \"#utility.yul\":5521:5522   */\n      0x00\n        /* \"#utility.yul\":5546:5599   */\n      tag_419\n        /* \"#utility.yul\":5591:5598   */\n      dup8\n        /* \"#utility.yul\":5582:5588   */\n      dup3\n        /* \"#utility.yul\":5571:5580   */\n      dup9\n        /* \"#utility.yul\":5567:5589   */\n      add\n        /* \"#utility.yul\":5546:5599   */\n      tag_304\n      jump\t// in\n    tag_419:\n        /* \"#utility.yul\":5536:5599   */\n      swap5\n      pop\n        /* \"#utility.yul\":5492:5609   */\n      pop\n        /* \"#utility.yul\":5648:5650   */\n      0x20\n        /* \"#utility.yul\":5674:5727   */\n      tag_420\n        /* \"#utility.yul\":5719:5726   */\n      dup8\n        /* \"#utility.yul\":5710:5716   */\n      dup3\n        /* \"#utility.yul\":5699:5708   */\n      dup9\n        /* \"#utility.yul\":5695:5717   */\n      add\n        /* \"#utility.yul\":5674:5727   */\n      tag_304\n      jump\t// in\n    tag_420:\n        /* \"#utility.yul\":5664:5727   */\n      swap4\n      pop\n        /* \"#utility.yul\":5619:5737   */\n      pop\n        /* \"#utility.yul\":5776:5778   */\n      0x40\n        /* \"#utility.yul\":5802:5855   */\n      tag_421\n        /* \"#utility.yul\":5847:5854   */\n      dup8\n        /* \"#utility.yul\":5838:5844   */\n      dup3\n        /* \"#utility.yul\":5827:5836   */\n      dup9\n        /* \"#utility.yul\":5823:5845   */\n      add\n        /* \"#utility.yul\":5802:5855   */\n      tag_301\n      jump\t// in\n    tag_421:\n        /* \"#utility.yul\":5792:5855   */\n      swap3\n      pop\n        /* \"#utility.yul\":5747:5865   */\n      pop\n        /* \"#utility.yul\":5904:5906   */\n      0x60\n        /* \"#utility.yul\":5930:5983   */\n      tag_422\n        /* \"#utility.yul\":5975:5982   */\n      dup8\n        /* \"#utility.yul\":5966:5972   */\n      dup3\n        /* \"#utility.yul\":5955:5964   */\n      dup9\n        /* \"#utility.yul\":5951:5973   */\n      add\n        /* \"#utility.yul\":5930:5983   */\n      tag_301\n      jump\t// in\n    tag_422:\n        /* \"#utility.yul\":5920:5983   */\n      swap2\n      pop\n        /* \"#utility.yul\":5875:5993   */\n      pop\n        /* \"#utility.yul\":5235:6000   */\n      swap3\n      swap6\n      swap2\n      swap5\n      pop\n      swap3\n      pop\n      jump\t// out\n        /* \"#utility.yul\":6006:6228   */\n    tag_60:\n        /* \"#utility.yul\":6099:6103   */\n      0x00\n        /* \"#utility.yul\":6137:6139   */\n      0x20\n        /* \"#utility.yul\":6126:6135   */\n      dup3\n        /* \"#utility.yul\":6122:6140   */\n      add\n        /* \"#utility.yul\":6114:6140   */\n      swap1\n      pop\n        /* \"#utility.yul\":6150:6221   */\n      tag_424\n        /* \"#utility.yul\":6218:6219   */\n      0x00\n        /* \"#utility.yul\":6207:6216   */\n      dup4\n        /* \"#utility.yul\":6203:6220   */\n      add\n        /* \"#utility.yul\":6194:6200   */\n      dup5\n        /* \"#utility.yul\":6150:6221   */\n      tag_306\n      jump\t// in\n    tag_424:\n        /* \"#utility.yul\":6006:6228   */\n      swap3\n      swap2\n      pop\n      pop\n      jump\t// out\n        /* \"#utility.yul\":6234:6853   */\n    tag_69:\n        /* \"#utility.yul\":6311:6317   */\n      0x00\n        /* \"#utility.yul\":6319:6325   */\n      dup1\n        /* \"#utility.yul\":6327:6333   */\n      0x00\n        /* \"#utility.yul\":6376:6378   */\n      0x60\n        /* \"#utility.yul\":6364:6373   */\n      dup5\n        /* \"#utility.yul\":6355:6362   */\n      dup7\n        /* \"#utility.yul\":6351:6374   */\n      sub\n        /* \"#utility.yul\":6347:6379   */\n      slt\n        /* \"#utility.yul\":6344:6463   */\n      iszero\n      tag_426\n      jumpi\n        /* \"#utility.yul\":6382:6461   */\n      tag_427\n      tag_296\n      jump\t// in\n    tag_427:\n        /* \"#utility.yul\":6344:6463   */\n    tag_426:\n        /* \"#utility.yul\":6502:6503   */\n      0x00\n        /* \"#utility.yul\":6527:6580   */\n      tag_428\n        /* \"#utility.yul\":6572:6579   */\n      dup7\n        /* \"#utility.yul\":6563:6569   */\n      dup3\n        /* \"#utility.yul\":6552:6561   */\n      dup8\n        /* \"#utility.yul\":6548:6570   */\n      add\n        /* \"#utility.yul\":6527:6580   */\n      tag_304\n      jump\t// in\n    tag_428:\n        /* \"#utility.yul\":6517:6580   */\n      swap4\n      pop\n        /* \"#utility.yul\":6473:6590   */\n      pop\n        /* \"#utility.yul\":6629:6631   */\n      0x20\n        /* \"#utility.yul\":6655:6708   */\n      tag_429\n        /* \"#utility.yul\":6700:6707   */\n      dup7\n        /* \"#utility.yul\":6691:6697   */\n      dup3\n        /* \"#utility.yul\":6680:6689   */\n      dup8\n        /* \"#utility.yul\":6676:6698   */\n      add\n        /* \"#utility.yul\":6655:6708   */\n      tag_301\n      jump\t// in\n    tag_429:\n        /* \"#utility.yul\":6645:6708   */\n      swap3\n      pop\n        /* \"#utility.yul\":6600:6718   */\n      pop\n        /* \"#utility.yul\":6757:6759   */\n      0x40\n        /* \"#utility.yul\":6783:6836   */\n      tag_430\n        /* \"#utility.yul\":6828:6835   */\n      dup7\n        /* \"#utility.yul\":6819:6825   */\n      dup3\n        /* \"#utility.yul\":6808:6817   */\n      dup8\n        /* \"#utility.yul\":6804:6826   */\n      add\n        /* \"#utility.yul\":6783:6836   */\n      tag_301\n      jump\t// in\n    tag_430:\n        /* \"#utility.yul\":6773:6836   */\n      swap2\n      pop\n        /* \"#utility.yul\":6728:6846   */\n      pop\n        /* \"#utility.yul\":6234:6853   */\n      swap3\n      pop\n      swap3\n      pop\n      swap3\n      jump\t// out\n        /* \"#utility.yul\":6859:7188   */\n    tag_76:\n        /* \"#utility.yul\":6918:6924   */\n      0x00\n        /* \"#utility.yul\":6967:6969   */\n      0x20\n        /* \"#utility.yul\":6955:6964   */\n      dup3\n        /* \"#utility.yul\":6946:6953   */\n      dup5\n        /* \"#utility.yul\":6942:6965   */\n      sub\n        /* \"#utility.yul\":6938:6970   */\n      slt\n        /* \"#utility.yul\":6935:7054   */\n      iszero\n      tag_432\n      jumpi\n        /* \"#utility.yul\":6973:7052   */\n      tag_433\n      tag_296\n      jump\t// in\n    tag_433:\n        /* \"#utility.yul\":6935:7054   */\n    tag_432:\n        /* \"#utility.yul\":7093:7094   */\n      0x00\n        /* \"#utility.yul\":7118:7171   */\n      tag_434\n        /* \"#utility.yul\":7163:7170   */\n      dup5\n        /* \"#utility.yul\":7154:7160   */\n      dup3\n        /* \"#utility.yul\":7143:7152   */\n      dup6\n        /* \"#utility.yul\":7139:7161   */\n      add\n        /* \"#utility.yul\":7118:7171   */\n      tag_304\n      jump\t// in\n    tag_434:\n        /* \"#utility.yul\":7108:7171   */\n      swap2\n      pop\n        /* \"#utility.yul\":7064:7181   */\n      pop\n        /* \"#utility.yul\":6859:7188   */\n      swap3\n      swap2\n      pop\n      pop\n      jump\t// out\n        /* \"#utility.yul\":7194:7813   */\n    tag_80:\n        /* \"#utility.yul\":7271:7277   */\n      0x00\n        /* \"#utility.yul\":7279:7285   */\n      dup1\n        /* \"#utility.yul\":7287:7293   */\n      0x00\n        /* \"#utility.yul\":7336:7338   */\n      0x60\n        /* \"#utility.yul\":7324:7333   */\n      dup5\n        /* \"#utility.yul\":7315:7322   */\n      dup7\n        /* \"#utility.yul\":7311:7334   */\n      sub\n        /* \"#utility.yul\":7307:7339   */\n      slt\n        /* \"#utility.yul\":7304:7423   */\n      iszero\n      tag_436\n      jumpi\n        /* \"#utility.yul\":7342:7421   */\n      tag_437\n      tag_296\n      jump\t// in\n    tag_437:\n        /* \"#utility.yul\":7304:7423   */\n    tag_436:\n        /* \"#utility.yul\":7462:7463   */\n      0x00\n        /* \"#utility.yul\":7487:7540   */\n      tag_438\n        /* \"#utility.yul\":7532:7539   */\n      dup7\n        /* \"#utility.yul\":7523:7529   */\n      dup3\n        /* \"#utility.yul\":7512:7521   */\n      dup8\n        /* \"#utility.yul\":7508:7530   */\n      add\n        /* \"#utility.yul\":7487:7540   */\n      tag_301\n      jump\t// in\n    tag_438:\n        /* \"#utility.yul\":7477:7540   */\n      swap4\n      pop\n        /* \"#utility.yul\":7433:7550   */\n      pop\n        /* \"#utility.yul\":7589:7591   */\n      0x20\n        /* \"#utility.yul\":7615:7668   */\n      tag_439\n        /* \"#utility.yul\":7660:7667   */\n      dup7\n        /* \"#utility.yul\":7651:7657   */\n      dup3\n        /* \"#utility.yul\":7640:7649   */\n      dup8\n        /* \"#utility.yul\":7636:7658   */\n      add\n        /* \"#utility.yul\":7615:7668   */\n      tag_301\n      jump\t// in\n    tag_439:\n        /* \"#utility.yul\":7605:7668   */\n      swap3\n      pop\n        /* \"#utility.yul\":7560:7678   */\n      pop\n        /* \"#utility.yul\":7717:7719   */\n      0x40\n        /* \"#utility.yul\":7743:7796   */\n      tag_440\n        /* \"#utility.yul\":7788:7795   */\n      dup7\n        /* \"#utility.yul\":7779:7785   */\n      dup3\n        /* \"#utility.yul\":7768:7777   */\n      dup8\n        /* \"#utility.yul\":7764:7786   */\n      add\n        /* \"#utility.yul\":7743:7796   */\n      tag_304\n      jump\t// in\n    tag_440:\n        /* \"#utility.yul\":7733:7796   */\n      swap2\n      pop\n        /* \"#utility.yul\":7688:7806   */\n      pop\n        /* \"#utility.yul\":7194:7813   */\n      swap3\n      pop\n      swap3\n      pop\n      swap3\n      jump\t// out\n        /* \"#utility.yul\":7819:7909   */\n    tag_313:\n        /* \"#utility.yul\":7853:7860   */\n      0x00\n        /* \"#utility.yul\":7896:7901   */\n      dup2\n        /* \"#utility.yul\":7889:7902   */\n      iszero\n        /* \"#utility.yul\":7882:7903   */\n      iszero\n        /* \"#utility.yul\":7871:7903   */\n      swap1\n      pop\n        /* \"#utility.yul\":7819:7909   */\n      swap2\n      swap1\n      pop\n      jump\t// out\n        /* \"#utility.yul\":7915:8024   */\n    tag_314:\n        /* \"#utility.yul\":7996:8017   */\n      tag_443\n        /* \"#utility.yul\":8011:8016   */\n      dup2\n        /* \"#utility.yul\":7996:8017   */\n      tag_313\n      jump\t// in\n    tag_443:\n        /* \"#utility.yul\":7991:7994   */\n      dup3\n        /* \"#utility.yul\":7984:8018   */\n      mstore\n        /* \"#utility.yul\":7915:8024   */\n      pop\n      pop\n      jump\t// out\n        /* \"#utility.yul\":8030:8904   */\n    tag_83:\n        /* \"#utility.yul\":8285:8289   */\n      0x00\n        /* \"#utility.yul\":8323:8326   */\n      0xe0\n        /* \"#utility.yul\":8312:8321   */\n      dup3\n        /* \"#utility.yul\":8308:8327   */\n      add\n        /* \"#utility.yul\":8300:8327   */\n      swap1\n      pop\n        /* \"#utility.yul\":8337:8408   */\n      tag_445\n        /* \"#utility.yul\":8405:8406   */\n      0x00\n        /* \"#utility.yul\":8394:8403   */\n      dup4\n        /* \"#utility.yul\":8390:8407   */\n      add\n        /* \"#utility.yul\":8381:8387   */\n      dup11\n        /* \"#utility.yul\":8337:8408   */\n      tag_306\n      jump\t// in\n    tag_445:\n        /* \"#utility.yul\":8418:8490   */\n      tag_446\n        /* \"#utility.yul\":8486:8488   */\n      0x20\n        /* \"#utility.yul\":8475:8484   */\n      dup4\n        /* \"#utility.yul\":8471:8489   */\n      add\n        /* \"#utility.yul\":8462:8468   */\n      dup10\n        /* \"#utility.yul\":8418:8490   */\n      tag_305\n      jump\t// in\n    tag_446:\n        /* \"#utility.yul\":8500:8572   */\n      tag_447\n        /* \"#utility.yul\":8568:8570   */\n      0x40\n        /* \"#utility.yul\":8557:8566   */\n      dup4\n        /* \"#utility.yul\":8553:8571   */\n      add\n        /* \"#utility.yul\":8544:8550   */\n      dup9\n        /* \"#utility.yul\":8500:8572   */\n      tag_305\n      jump\t// in\n    tag_447:\n        /* \"#utility.yul\":8582:8654   */\n      tag_448\n        /* \"#utility.yul\":8650:8652   */\n      0x60\n        /* \"#utility.yul\":8639:8648   */\n      dup4\n        /* \"#utility.yul\":8635:8653   */\n      add\n        /* \"#utility.yul\":8626:8632   */\n      dup8\n        /* \"#utility.yul\":8582:8654   */\n      tag_305\n      jump\t// in\n    tag_448:\n        /* \"#utility.yul\":8664:8737   */\n      tag_449\n        /* \"#utility.yul\":8732:8735   */\n      0x80\n        /* \"#utility.yul\":8721:8730   */\n      dup4\n        /* \"#utility.yul\":8717:8736   */\n      add\n        /* \"#utility.yul\":8708:8714   */\n      dup7\n        /* \"#utility.yul\":8664:8737   */\n      tag_305\n      jump\t// in\n    tag_449:\n        /* \"#utility.yul\":8747:8820   */\n      tag_450\n        /* \"#utility.yul\":8815:8818   */\n      0xa0\n        /* \"#utility.yul\":8804:8813   */\n      dup4\n        /* \"#utility.yul\":8800:8819   */\n      add\n        /* \"#utility.yul\":8791:8797   */\n      dup6\n        /* \"#utility.yul\":8747:8820   */\n      tag_305\n      jump\t// in\n    tag_450:\n        /* \"#utility.yul\":8830:8897   */\n      tag_451\n        /* \"#utility.yul\":8892:8895   */\n      0xc0\n        /* \"#utility.yul\":8881:8890   */\n      dup4\n        /* \"#utility.yul\":8877:8896   */\n      add\n        /* \"#utility.yul\":8868:8874   */\n      dup5\n        /* \"#utility.yul\":8830:8897   */\n      tag_314\n      jump\t// in\n    tag_451:\n        /* \"#utility.yul\":8030:8904   */\n      swap9\n      swap8\n      pop\n      pop\n      pop\n      pop\n      pop\n      pop\n      pop\n      pop\n      jump\t// out\n        /* \"#utility.yul\":8910:9079   */\n    tag_315:\n        /* \"#utility.yul\":8994:9005   */\n      0x00\n        /* \"#utility.yul\":9028:9034   */\n      dup3\n        /* \"#utility.yul\":9023:9026   */\n      dup3\n        /* \"#utility.yul\":9016:9035   */\n      mstore\n        /* \"#utility.yul\":9068:9072   */\n      0x20\n        /* \"#utility.yul\":9063:9066   */\n      dup3\n        /* \"#utility.yul\":9059:9073   */\n      add\n        /* \"#utility.yul\":9044:9073   */\n      swap1\n      pop\n        /* \"#utility.yul\":8910:9079   */\n      swap3\n      swap2\n      pop\n      pop\n      jump\t// out\n        /* \"#utility.yul\":9085:9258   */\n    tag_316:\n        /* \"#utility.yul\":9225:9250   */\n      0x596f7520416c7265616479204465706f736974204e4654000000000000000000\n        /* \"#utility.yul\":9221:9222   */\n      0x00\n        /* \"#utility.yul\":9213:9219   */\n      dup3\n        /* \"#utility.yul\":9209:9223   */\n      add\n        /* \"#utility.yul\":9202:9251   */\n      mstore\n        /* \"#utility.yul\":9085:9258   */\n      pop\n      jump\t// out\n        /* \"#utility.yul\":9264:9630   */\n    tag_317:\n        /* \"#utility.yul\":9406:9409   */\n      0x00\n        /* \"#utility.yul\":9427:9494   */\n      tag_455\n        /* \"#utility.yul\":9491:9493   */\n      0x17\n        /* \"#utility.yul\":9486:9489   */\n      dup4\n        /* \"#utility.yul\":9427:9494   */\n      tag_315\n      jump\t// in\n    tag_455:\n        /* \"#utility.yul\":9420:9494   */\n      swap2\n      pop\n        /* \"#utility.yul\":9503:9596   */\n      tag_456\n        /* \"#utility.yul\":9592:9595   */\n      dup3\n        /* \"#utility.yul\":9503:9596   */\n      tag_316\n      jump\t// in\n    tag_456:\n        /* \"#utility.yul\":9621:9623   */\n      0x20\n        /* \"#utility.yul\":9616:9619   */\n      dup3\n        /* \"#utility.yul\":9612:9624   */\n      add\n        /* \"#utility.yul\":9605:9624   */\n      swap1\n      pop\n        /* \"#utility.yul\":9264:9630   */\n      swap2\n      swap1\n      pop\n      jump\t// out\n        /* \"#utility.yul\":9636:10055   */\n    tag_104:\n        /* \"#utility.yul\":9802:9806   */\n      0x00\n        /* \"#utility.yul\":9840:9842   */\n      0x20\n        /* \"#utility.yul\":9829:9838   */\n      dup3\n        /* \"#utility.yul\":9825:9843   */\n      add\n        /* \"#utility.yul\":9817:9843   */\n      swap1\n      pop\n        /* \"#utility.yul\":9889:9898   */\n      dup2\n        /* \"#utility.yul\":9883:9887   */\n      dup2\n        /* \"#utility.yul\":9879:9899   */\n      sub\n        /* \"#utility.yul\":9875:9876   */\n      0x00\n        /* \"#utility.yul\":9864:9873   */\n      dup4\n        /* \"#utility.yul\":9860:9877   */\n      add\n        /* \"#utility.yul\":9853:9900   */\n      mstore\n        /* \"#utility.yul\":9917:10048   */\n      tag_458\n        /* \"#utility.yul\":10043:10047   */\n      dup2\n        /* \"#utility.yul\":9917:10048   */\n      tag_317\n      jump\t// in\n    tag_458:\n        /* \"#utility.yul\":9909:10048   */\n      swap1\n      pop\n        /* \"#utility.yul\":9636:10055   */\n      swap2\n      swap1\n      pop\n      jump\t// out\n        /* \"#utility.yul\":10061:10239   */\n    tag_318:\n        /* \"#utility.yul\":10201:10231   */\n      0x313520446179732043617465676f72792069732046756c6c2021212100000000\n        /* \"#utility.yul\":10197:10198   */\n      0x00\n        /* \"#utility.yul\":10189:10195   */\n      dup3\n        /* \"#utility.yul\":10185:10199   */\n      add\n        /* \"#utility.yul\":10178:10232   */\n      mstore\n        /* \"#utility.yul\":10061:10239   */\n      pop\n      jump\t// out\n        /* \"#utility.yul\":10245:10611   */\n    tag_319:\n        /* \"#utility.yul\":10387:10390   */\n      0x00\n        /* \"#utility.yul\":10408:10475   */\n      tag_461\n        /* \"#utility.yul\":10472:10474   */\n      0x1c\n        /* \"#utility.yul\":10467:10470   */\n      dup4\n        /* \"#utility.yul\":10408:10475   */\n      tag_315\n      jump\t// in\n    tag_461:\n        /* \"#utility.yul\":10401:10475   */\n      swap2\n      pop\n        /* \"#utility.yul\":10484:10577   */\n      tag_462\n        /* \"#utility.yul\":10573:10576   */\n      dup3\n        /* \"#utility.yul\":10484:10577   */\n      tag_318\n      jump\t// in\n    tag_462:\n        /* \"#utility.yul\":10602:10604   */\n      0x20\n        /* \"#utility.yul\":10597:10600   */\n      dup3\n        /* \"#utility.yul\":10593:10605   */\n      add\n        /* \"#utility.yul\":10586:10605   */\n      swap1\n      pop\n        /* \"#utility.yul\":10245:10611   */\n      swap2\n      swap1\n      pop\n      jump\t// out\n        /* \"#utility.yul\":10617:11036   */\n    tag_112:\n        /* \"#utility.yul\":10783:10787   */\n      0x00\n        /* \"#utility.yul\":10821:10823   */\n      0x20\n        /* \"#utility.yul\":10810:10819   */\n      dup3\n        /* \"#utility.yul\":10806:10824   */\n      add\n        /* \"#utility.yul\":10798:10824   */\n      swap1\n      pop\n        /* \"#utility.yul\":10870:10879   */\n      dup2\n        /* \"#utility.yul\":10864:10868   */\n      dup2\n        /* \"#utility.yul\":10860:10880   */\n      sub\n        /* \"#utility.yul\":10856:10857   */\n      0x00\n        /* \"#utility.yul\":10845:10854   */\n      dup4\n        /* \"#utility.yul\":10841:10858   */\n      add\n        /* \"#utility.yul\":10834:10881   */\n      mstore\n        /* \"#utility.yul\":10898:11029   */\n      tag_464\n        /* \"#utility.yul\":11024:11028   */\n      dup2\n        /* \"#utility.yul\":10898:11029   */\n      tag_319\n      jump\t// in\n    tag_464:\n        /* \"#utility.yul\":10890:11029   */\n      swap1\n      pop\n        /* \"#utility.yul\":10617:11036   */\n      swap2\n      swap1\n      pop\n      jump\t// out\n        /* \"#utility.yul\":11042:11222   */\n    tag_320:\n        /* \"#utility.yul\":11090:11167   */\n      0x4e487b7100000000000000000000000000000000000000000000000000000000\n        /* \"#utility.yul\":11087:11088   */\n      0x00\n        /* \"#utility.yul\":11080:11168   */\n      mstore\n        /* \"#utility.yul\":11187:11191   */\n      0x11\n        /* \"#utility.yul\":11184:11185   */\n      0x04\n        /* \"#utility.yul\":11177:11192   */\n      mstore\n        /* \"#utility.yul\":11211:11215   */\n      0x24\n        /* \"#utility.yul\":11208:11209   */\n      0x00\n        /* \"#utility.yul\":11201:11216   */\n      revert\n        /* \"#utility.yul\":11228:11638   */\n    tag_115:\n        /* \"#utility.yul\":11268:11275   */\n      0x00\n        /* \"#utility.yul\":11291:11311   */\n      tag_467\n        /* \"#utility.yul\":11309:11310   */\n      dup3\n        /* \"#utility.yul\":11291:11311   */\n      tag_302\n      jump\t// in\n    tag_467:\n        /* \"#utility.yul\":11286:11311   */\n      swap2\n      pop\n        /* \"#utility.yul\":11325:11345   */\n      tag_468\n        /* \"#utility.yul\":11343:11344   */\n      dup4\n        /* \"#utility.yul\":11325:11345   */\n      tag_302\n      jump\t// in\n    tag_468:\n        /* \"#utility.yul\":11320:11345   */\n      swap3\n      pop\n        /* \"#utility.yul\":11380:11381   */\n      dup3\n        /* \"#utility.yul\":11377:11378   */\n      dup3\n        /* \"#utility.yul\":11373:11382   */\n      mul\n        /* \"#utility.yul\":11402:11432   */\n      tag_469\n        /* \"#utility.yul\":11420:11431   */\n      dup2\n        /* \"#utility.yul\":11402:11432   */\n      tag_302\n      jump\t// in\n    tag_469:\n        /* \"#utility.yul\":11391:11432   */\n      swap2\n      pop\n        /* \"#utility.yul\":11581:11582   */\n      dup3\n        /* \"#utility.yul\":11572:11579   */\n      dup3\n        /* \"#utility.yul\":11568:11583   */\n      div\n        /* \"#utility.yul\":11565:11566   */\n      dup5\n        /* \"#utility.yul\":11562:11584   */\n      eq\n        /* \"#utility.yul\":11542:11543   */\n      dup4\n        /* \"#utility.yul\":11535:11544   */\n      iszero\n        /* \"#utility.yul\":11515:11598   */\n      or\n        /* \"#utility.yul\":11492:11631   */\n      tag_470\n      jumpi\n        /* \"#utility.yul\":11611:11629   */\n      tag_471\n      tag_320\n      jump\t// in\n    tag_471:\n        /* \"#utility.yul\":11492:11631   */\n    tag_470:\n        /* \"#utility.yul\":11276:11638   */\n      pop\n        /* \"#utility.yul\":11228:11638   */\n      swap3\n      swap2\n      pop\n      pop\n      jump\t// out\n        /* \"#utility.yul\":11644:11835   */\n    tag_117:\n        /* \"#utility.yul\":11684:11687   */\n      0x00\n        /* \"#utility.yul\":11703:11723   */\n      tag_473\n        /* \"#utility.yul\":11721:11722   */\n      dup3\n        /* \"#utility.yul\":11703:11723   */\n      tag_302\n      jump\t// in\n    tag_473:\n        /* \"#utility.yul\":11698:11723   */\n      swap2\n      pop\n        /* \"#utility.yul\":11737:11757   */\n      tag_474\n        /* \"#utility.yul\":11755:11756   */\n      dup4\n        /* \"#utility.yul\":11737:11757   */\n      tag_302\n      jump\t// in\n    tag_474:\n        /* \"#utility.yul\":11732:11757   */\n      swap3\n      pop\n        /* \"#utility.yul\":11780:11781   */\n      dup3\n        /* \"#utility.yul\":11777:11778   */\n      dup3\n        /* \"#utility.yul\":11773:11782   */\n      add\n        /* \"#utility.yul\":11766:11782   */\n      swap1\n      pop\n        /* \"#utility.yul\":11801:11804   */\n      dup1\n        /* \"#utility.yul\":11798:11799   */\n      dup3\n        /* \"#utility.yul\":11795:11805   */\n      gt\n        /* \"#utility.yul\":11792:11828   */\n      iszero\n      tag_475\n      jumpi\n        /* \"#utility.yul\":11808:11826   */\n      tag_476\n      tag_320\n      jump\t// in\n    tag_476:\n        /* \"#utility.yul\":11792:11828   */\n    tag_475:\n        /* \"#utility.yul\":11644:11835   */\n      swap3\n      swap2\n      pop\n      pop\n      jump\t// out\n        /* \"#utility.yul\":11841:12009   */\n    tag_321:\n        /* \"#utility.yul\":11924:11935   */\n      0x00\n        /* \"#utility.yul\":11958:11964   */\n      dup3\n        /* \"#utility.yul\":11953:11956   */\n      dup3\n        /* \"#utility.yul\":11946:11965   */\n      mstore\n        /* \"#utility.yul\":11998:12002   */\n      0x20\n        /* \"#utility.yul\":11993:11996   */\n      dup3\n        /* \"#utility.yul\":11989:12003   */\n      add\n        /* \"#utility.yul\":11974:12003   */\n      swap1\n      pop\n        /* \"#utility.yul\":11841:12009   */\n      swap3\n      swap2\n      pop\n      pop\n      jump\t// out\n        /* \"#utility.yul\":12015:12129   */\n    tag_322:\n      pop\n      jump\t// out\n        /* \"#utility.yul\":12135:12497   */\n    tag_323:\n        /* \"#utility.yul\":12276:12279   */\n      0x00\n        /* \"#utility.yul\":12297:12362   */\n      tag_480\n        /* \"#utility.yul\":12360:12361   */\n      0x00\n        /* \"#utility.yul\":12355:12358   */\n      dup4\n        /* \"#utility.yul\":12297:12362   */\n      tag_321\n      jump\t// in\n    tag_480:\n        /* \"#utility.yul\":12290:12362   */\n      swap2\n      pop\n        /* \"#utility.yul\":12371:12464   */\n      tag_481\n        /* \"#utility.yul\":12460:12463   */\n      dup3\n        /* \"#utility.yul\":12371:12464   */\n      tag_322\n      jump\t// in\n    tag_481:\n        /* \"#utility.yul\":12489:12490   */\n      0x00\n        /* \"#utility.yul\":12484:12487   */\n      dup3\n        /* \"#utility.yul\":12480:12491   */\n      add\n        /* \"#utility.yul\":12473:12491   */\n      swap1\n      pop\n        /* \"#utility.yul\":12135:12497   */\n      swap2\n      swap1\n      pop\n      jump\t// out\n        /* \"#utility.yul\":12503:13251   */\n    tag_121:\n        /* \"#utility.yul\":12752:12756   */\n      0x00\n        /* \"#utility.yul\":12790:12793   */\n      0x80\n        /* \"#utility.yul\":12779:12788   */\n      dup3\n        /* \"#utility.yul\":12775:12794   */\n      add\n        /* \"#utility.yul\":12767:12794   */\n      swap1\n      pop\n        /* \"#utility.yul\":12804:12875   */\n      tag_483\n        /* \"#utility.yul\":12872:12873   */\n      0x00\n        /* \"#utility.yul\":12861:12870   */\n      dup4\n        /* \"#utility.yul\":12857:12874   */\n      add\n        /* \"#utility.yul\":12848:12854   */\n      dup7\n        /* \"#utility.yul\":12804:12875   */\n      tag_306\n      jump\t// in\n    tag_483:\n        /* \"#utility.yul\":12885:12957   */\n      tag_484\n        /* \"#utility.yul\":12953:12955   */\n      0x20\n        /* \"#utility.yul\":12942:12951   */\n      dup4\n        /* \"#utility.yul\":12938:12956   */\n      add\n        /* \"#utility.yul\":12929:12935   */\n      dup6\n        /* \"#utility.yul\":12885:12957   */\n      tag_306\n      jump\t// in\n    tag_484:\n        /* \"#utility.yul\":12967:13039   */\n      tag_485\n        /* \"#utility.yul\":13035:13037   */\n      0x40\n        /* \"#utility.yul\":13024:13033   */\n      dup4\n        /* \"#utility.yul\":13020:13038   */\n      add\n        /* \"#utility.yul\":13011:13017   */\n      dup5\n        /* \"#utility.yul\":12967:13039   */\n      tag_305\n      jump\t// in\n    tag_485:\n        /* \"#utility.yul\":13086:13095   */\n      dup2\n        /* \"#utility.yul\":13080:13084   */\n      dup2\n        /* \"#utility.yul\":13076:13096   */\n      sub\n        /* \"#utility.yul\":13071:13073   */\n      0x60\n        /* \"#utility.yul\":13060:13069   */\n      dup4\n        /* \"#utility.yul\":13056:13074   */\n      add\n        /* \"#utility.yul\":13049:13097   */\n      mstore\n        /* \"#utility.yul\":13114:13244   */\n      tag_486\n        /* \"#utility.yul\":13239:13243   */\n      dup2\n        /* \"#utility.yul\":13114:13244   */\n      tag_323\n      jump\t// in\n    tag_486:\n        /* \"#utility.yul\":13106:13244   */\n      swap1\n      pop\n        /* \"#utility.yul\":12503:13251   */\n      swap5\n      swap4\n      pop\n      pop\n      pop\n      pop\n      jump\t// out\n        /* \"#utility.yul\":13257:13435   */\n    tag_324:\n        /* \"#utility.yul\":13397:13427   */\n      0x333020446179732043617465676f72792069732046756c6c2021212100000000\n        /* \"#utility.yul\":13393:13394   */\n      0x00\n        /* \"#utility.yul\":13385:13391   */\n      dup3\n        /* \"#utility.yul\":13381:13395   */\n      add\n        /* \"#utility.yul\":13374:13428   */\n      mstore\n        /* \"#utility.yul\":13257:13435   */\n      pop\n      jump\t// out\n        /* \"#utility.yul\":13441:13807   */\n    tag_325:\n        /* \"#utility.yul\":13583:13586   */\n      0x00\n        /* \"#utility.yul\":13604:13671   */\n      tag_489\n        /* \"#utility.yul\":13668:13670   */\n      0x1c\n        /* \"#utility.yul\":13663:13666   */\n      dup4\n        /* \"#utility.yul\":13604:13671   */\n      tag_315\n      jump\t// in\n    tag_489:\n        /* \"#utility.yul\":13597:13671   */\n      swap2\n      pop\n        /* \"#utility.yul\":13680:13773   */\n      tag_490\n        /* \"#utility.yul\":13769:13772   */\n      dup3\n        /* \"#utility.yul\":13680:13773   */\n      tag_324\n      jump\t// in\n    tag_490:\n        /* \"#utility.yul\":13798:13800   */\n      0x20\n        /* \"#utility.yul\":13793:13796   */\n      dup3\n        /* \"#utility.yul\":13789:13801   */\n      add\n        /* \"#utility.yul\":13782:13801   */\n      swap1\n      pop\n        /* \"#utility.yul\":13441:13807   */\n      swap2\n      swap1\n      pop\n      jump\t// out\n        /* \"#utility.yul\":13813:14232   */\n    tag_131:\n        /* \"#utility.yul\":13979:13983   */\n      0x00\n        /* \"#utility.yul\":14017:14019   */\n      0x20\n        /* \"#utility.yul\":14006:14015   */\n      dup3\n        /* \"#utility.yul\":14002:14020   */\n      add\n        /* \"#utility.yul\":13994:14020   */\n      swap1\n      pop\n        /* \"#utility.yul\":14066:14075   */\n      dup2\n        /* \"#utility.yul\":14060:14064   */\n      dup2\n        /* \"#utility.yul\":14056:14076   */\n      sub\n        /* \"#utility.yul\":14052:14053   */\n      0x00\n        /* \"#utility.yul\":14041:14050   */\n      dup4\n        /* \"#utility.yul\":14037:14054   */\n      add\n        /* \"#utility.yul\":14030:14077   */\n      mstore\n        /* \"#utility.yul\":14094:14225   */\n      tag_492\n        /* \"#utility.yul\":14220:14224   */\n      dup2\n        /* \"#utility.yul\":14094:14225   */\n      tag_325\n      jump\t// in\n    tag_492:\n        /* \"#utility.yul\":14086:14225   */\n      swap1\n      pop\n        /* \"#utility.yul\":13813:14232   */\n      swap2\n      swap1\n      pop\n      jump\t// out\n        /* \"#utility.yul\":14238:14416   */\n    tag_326:\n        /* \"#utility.yul\":14378:14408   */\n      0x363020446179732043617465676f72792069732046756c6c2021212100000000\n        /* \"#utility.yul\":14374:14375   */\n      0x00\n        /* \"#utility.yul\":14366:14372   */\n      dup3\n        /* \"#utility.yul\":14362:14376   */\n      add\n        /* \"#utility.yul\":14355:14409   */\n      mstore\n        /* \"#utility.yul\":14238:14416   */\n      pop\n      jump\t// out\n        /* \"#utility.yul\":14422:14788   */\n    tag_327:\n        /* \"#utility.yul\":14564:14567   */\n      0x00\n        /* \"#utility.yul\":14585:14652   */\n      tag_495\n        /* \"#utility.yul\":14649:14651   */\n      0x1c\n        /* \"#utility.yul\":14644:14647   */\n      dup4\n        /* \"#utility.yul\":14585:14652   */\n      tag_315\n      jump\t// in\n    tag_495:\n        /* \"#utility.yul\":14578:14652   */\n      swap2\n      pop\n        /* \"#utility.yul\":14661:14754   */\n      tag_496\n        /* \"#utility.yul\":14750:14753   */\n      dup3\n        /* \"#utility.yul\":14661:14754   */\n      tag_326\n      jump\t// in\n    tag_496:\n        /* \"#utility.yul\":14779:14781   */\n      0x20\n        /* \"#utility.yul\":14774:14777   */\n      dup3\n        /* \"#utility.yul\":14770:14782   */\n      add\n        /* \"#utility.yul\":14763:14782   */\n      swap1\n      pop\n        /* \"#utility.yul\":14422:14788   */\n      swap2\n      swap1\n      pop\n      jump\t// out\n        /* \"#utility.yul\":14794:15213   */\n    tag_147:\n        /* \"#utility.yul\":14960:14964   */\n      0x00\n        /* \"#utility.yul\":14998:15000   */\n      0x20\n        /* \"#utility.yul\":14987:14996   */\n      dup3\n        /* \"#utility.yul\":14983:15001   */\n      add\n        /* \"#utility.yul\":14975:15001   */\n      swap1\n      pop\n        /* \"#utility.yul\":15047:15056   */\n      dup2\n        /* \"#utility.yul\":15041:15045   */\n      dup2\n        /* \"#utility.yul\":15037:15057   */\n      sub\n        /* \"#utility.yul\":15033:15034   */\n      0x00\n        /* \"#utility.yul\":15022:15031   */\n      dup4\n        /* \"#utility.yul\":15018:15035   */\n      add\n        /* \"#utility.yul\":15011:15058   */\n      mstore\n        /* \"#utility.yul\":15075:15206   */\n      tag_498\n        /* \"#utility.yul\":15201:15205   */\n      dup2\n        /* \"#utility.yul\":15075:15206   */\n      tag_327\n      jump\t// in\n    tag_498:\n        /* \"#utility.yul\":15067:15206   */\n      swap1\n      pop\n        /* \"#utility.yul\":14794:15213   */\n      swap2\n      swap1\n      pop\n      jump\t// out\n        /* \"#utility.yul\":15219:15397   */\n    tag_328:\n        /* \"#utility.yul\":15359:15389   */\n      0x393020446179732043617465676f72792069732046756c6c2021212100000000\n        /* \"#utility.yul\":15355:15356   */\n      0x00\n        /* \"#utility.yul\":15347:15353   */\n      dup3\n        /* \"#utility.yul\":15343:15357   */\n      add\n        /* \"#utility.yul\":15336:15390   */\n      mstore\n        /* \"#utility.yul\":15219:15397   */\n      pop\n      jump\t// out\n        /* \"#utility.yul\":15403:15769   */\n    tag_329:\n        /* \"#utility.yul\":15545:15548   */\n      0x00\n        /* \"#utility.yul\":15566:15633   */\n      tag_501\n        /* \"#utility.yul\":15630:15632   */\n      0x1c\n        /* \"#utility.yul\":15625:15628   */\n      dup4\n        /* \"#utility.yul\":15566:15633   */\n      tag_315\n      jump\t// in\n    tag_501:\n        /* \"#utility.yul\":15559:15633   */\n      swap2\n      pop\n        /* \"#utility.yul\":15642:15735   */\n      tag_502\n        /* \"#utility.yul\":15731:15734   */\n      dup3\n        /* \"#utility.yul\":15642:15735   */\n      tag_328\n      jump\t// in\n    tag_502:\n        /* \"#utility.yul\":15760:15762   */\n      0x20\n        /* \"#utility.yul\":15755:15758   */\n      dup3\n        /* \"#utility.yul\":15751:15763   */\n      add\n        /* \"#utility.yul\":15744:15763   */\n      swap1\n      pop\n        /* \"#utility.yul\":15403:15769   */\n      swap2\n      swap1\n      pop\n      jump\t// out\n        /* \"#utility.yul\":15775:16194   */\n    tag_163:\n        /* \"#utility.yul\":15941:15945   */\n      0x00\n        /* \"#utility.yul\":15979:15981   */\n      0x20\n        /* \"#utility.yul\":15968:15977   */\n      dup3\n        /* \"#utility.yul\":15964:15982   */\n      add\n        /* \"#utility.yul\":15956:15982   */\n      swap1\n      pop\n        /* \"#utility.yul\":16028:16037   */\n      dup2\n        /* \"#utility.yul\":16022:16026   */\n      dup2\n        /* \"#utility.yul\":16018:16038   */\n      sub\n        /* \"#utility.yul\":16014:16015   */\n      0x00\n        /* \"#utility.yul\":16003:16012   */\n      dup4\n        /* \"#utility.yul\":15999:16016   */\n      add\n        /* \"#utility.yul\":15992:16039   */\n      mstore\n        /* \"#utility.yul\":16056:16187   */\n      tag_504\n        /* \"#utility.yul\":16182:16186   */\n      dup2\n        /* \"#utility.yul\":16056:16187   */\n      tag_329\n      jump\t// in\n    tag_504:\n        /* \"#utility.yul\":16048:16187   */\n      swap1\n      pop\n        /* \"#utility.yul\":15775:16194   */\n      swap2\n      swap1\n      pop\n      jump\t// out\n        /* \"#utility.yul\":16200:16378   */\n    tag_330:\n        /* \"#utility.yul\":16340:16370   */\n      0x53656c6c65637420446179732031352c33302c36302c39302021212100000000\n        /* \"#utility.yul\":16336:16337   */\n      0x00\n        /* \"#utility.yul\":16328:16334   */\n      dup3\n        /* \"#utility.yul\":16324:16338   */\n      add\n        /* \"#utility.yul\":16317:16371   */\n      mstore\n        /* \"#utility.yul\":16200:16378   */\n      pop\n      jump\t// out\n        /* \"#utility.yul\":16384:16750   */\n    tag_331:\n        /* \"#utility.yul\":16526:16529   */\n      0x00\n        /* \"#utility.yul\":16547:16614   */\n      tag_507\n        /* \"#utility.yul\":16611:16613   */\n      0x1c\n        /* \"#utility.yul\":16606:16609   */\n      dup4\n        /* \"#utility.yul\":16547:16614   */\n      tag_315\n      jump\t// in\n    tag_507:\n        /* \"#utility.yul\":16540:16614   */\n      swap2\n      pop\n        /* \"#utility.yul\":16623:16716   */\n      tag_508\n        /* \"#utility.yul\":16712:16715   */\n      dup3\n        /* \"#utility.yul\":16623:16716   */\n      tag_330\n      jump\t// in\n    tag_508:\n        /* \"#utility.yul\":16741:16743   */\n      0x20\n        /* \"#utility.yul\":16736:16739   */\n      dup3\n        /* \"#utility.yul\":16732:16744   */\n      add\n        /* \"#utility.yul\":16725:16744   */\n      swap1\n      pop\n        /* \"#utility.yul\":16384:16750   */\n      swap2\n      swap1\n      pop\n      jump\t// out\n        /* \"#utility.yul\":16756:17175   */\n    tag_175:\n        /* \"#utility.yul\":16922:16926   */\n      0x00\n        /* \"#utility.yul\":16960:16962   */\n      0x20\n        /* \"#utility.yul\":16949:16958   */\n      dup3\n        /* \"#utility.yul\":16945:16963   */\n      add\n        /* \"#utility.yul\":16937:16963   */\n      swap1\n      pop\n        /* \"#utility.yul\":17009:17018   */\n      dup2\n        /* \"#utility.yul\":17003:17007   */\n      dup2\n        /* \"#utility.yul\":16999:17019   */\n      sub\n        /* \"#utility.yul\":16995:16996   */\n      0x00\n        /* \"#utility.yul\":16984:16993   */\n      dup4\n        /* \"#utility.yul\":16980:16997   */\n      add\n        /* \"#utility.yul\":16973:17020   */\n      mstore\n        /* \"#utility.yul\":17037:17168   */\n      tag_510\n        /* \"#utility.yul\":17163:17167   */\n      dup2\n        /* \"#utility.yul\":17037:17168   */\n      tag_331\n      jump\t// in\n    tag_510:\n        /* \"#utility.yul\":17029:17168   */\n      swap1\n      pop\n        /* \"#utility.yul\":16756:17175   */\n      swap2\n      swap1\n      pop\n      jump\t// out\n        /* \"#utility.yul\":17181:17359   */\n    tag_332:\n        /* \"#utility.yul\":17321:17351   */\n      0x506c65617365204669727374204465706f736974204e46542021212100000000\n        /* \"#utility.yul\":17317:17318   */\n      0x00\n        /* \"#utility.yul\":17309:17315   */\n      dup3\n        /* \"#utility.yul\":17305:17319   */\n      add\n        /* \"#utility.yul\":17298:17352   */\n      mstore\n        /* \"#utility.yul\":17181:17359   */\n      pop\n      jump\t// out\n        /* \"#utility.yul\":17365:17731   */\n    tag_333:\n        /* \"#utility.yul\":17507:17510   */\n      0x00\n        /* \"#utility.yul\":17528:17595   */\n      tag_513\n        /* \"#utility.yul\":17592:17594   */\n      0x1c\n        /* \"#utility.yul\":17587:17590   */\n      dup4\n        /* \"#utility.yul\":17528:17595   */\n      tag_315\n      jump\t// in\n    tag_513:\n        /* \"#utility.yul\":17521:17595   */\n      swap2\n      pop\n        /* \"#utility.yul\":17604:17697   */\n      tag_514\n        /* \"#utility.yul\":17693:17696   */\n      dup3\n        /* \"#utility.yul\":17604:17697   */\n      tag_332\n      jump\t// in\n    tag_514:\n        /* \"#utility.yul\":17722:17724   */\n      0x20\n        /* \"#utility.yul\":17717:17720   */\n      dup3\n        /* \"#utility.yul\":17713:17725   */\n      add\n        /* \"#utility.yul\":17706:17725   */\n      swap1\n      pop\n        /* \"#utility.yul\":17365:17731   */\n      swap2\n      swap1\n      pop\n      jump\t// out\n        /* \"#utility.yul\":17737:18156   */\n    tag_180:\n        /* \"#utility.yul\":17903:17907   */\n      0x00\n        /* \"#utility.yul\":17941:17943   */\n      0x20\n        /* \"#utility.yul\":17930:17939   */\n      dup3\n        /* \"#utility.yul\":17926:17944   */\n      add\n        /* \"#utility.yul\":17918:17944   */\n      swap1\n      pop\n        /* \"#utility.yul\":17990:17999   */\n      dup2\n        /* \"#utility.yul\":17984:17988   */\n      dup2\n        /* \"#utility.yul\":17980:18000   */\n      sub\n        /* \"#utility.yul\":17976:17977   */\n      0x00\n        /* \"#utility.yul\":17965:17974   */\n      dup4\n        /* \"#utility.yul\":17961:17978   */\n      add\n        /* \"#utility.yul\":17954:18001   */\n      mstore\n        /* \"#utility.yul\":18018:18149   */\n      tag_516\n        /* \"#utility.yul\":18144:18148   */\n      dup2\n        /* \"#utility.yul\":18018:18149   */\n      tag_333\n      jump\t// in\n    tag_516:\n        /* \"#utility.yul\":18010:18149   */\n      swap1\n      pop\n        /* \"#utility.yul\":17737:18156   */\n      swap2\n      swap1\n      pop\n      jump\t// out\n        /* \"#utility.yul\":18162:18356   */\n    tag_182:\n        /* \"#utility.yul\":18202:18206   */\n      0x00\n        /* \"#utility.yul\":18222:18242   */\n      tag_518\n        /* \"#utility.yul\":18240:18241   */\n      dup3\n        /* \"#utility.yul\":18222:18242   */\n      tag_302\n      jump\t// in\n    tag_518:\n        /* \"#utility.yul\":18217:18242   */\n      swap2\n      pop\n        /* \"#utility.yul\":18256:18276   */\n      tag_519\n        /* \"#utility.yul\":18274:18275   */\n      dup4\n        /* \"#utility.yul\":18256:18276   */\n      tag_302\n      jump\t// in\n    tag_519:\n        /* \"#utility.yul\":18251:18276   */\n      swap3\n      pop\n        /* \"#utility.yul\":18300:18301   */\n      dup3\n        /* \"#utility.yul\":18297:18298   */\n      dup3\n        /* \"#utility.yul\":18293:18302   */\n      sub\n        /* \"#utility.yul\":18285:18302   */\n      swap1\n      pop\n        /* \"#utility.yul\":18324:18325   */\n      dup2\n        /* \"#utility.yul\":18318:18322   */\n      dup2\n        /* \"#utility.yul\":18315:18326   */\n      gt\n        /* \"#utility.yul\":18312:18349   */\n      iszero\n      tag_520\n      jumpi\n        /* \"#utility.yul\":18329:18347   */\n      tag_521\n      tag_320\n      jump\t// in\n    tag_521:\n        /* \"#utility.yul\":18312:18349   */\n    tag_520:\n        /* \"#utility.yul\":18162:18356   */\n      swap3\n      swap2\n      pop\n      pop\n      jump\t// out\n        /* \"#utility.yul\":18362:18542   */\n    tag_334:\n        /* \"#utility.yul\":18410:18487   */\n      0x4e487b7100000000000000000000000000000000000000000000000000000000\n        /* \"#utility.yul\":18407:18408   */\n      0x00\n        /* \"#utility.yul\":18400:18488   */\n      mstore\n        /* \"#utility.yul\":18507:18511   */\n      0x12\n        /* \"#utility.yul\":18504:18505   */\n      0x04\n        /* \"#utility.yul\":18497:18512   */\n      mstore\n        /* \"#utility.yul\":18531:18535   */\n      0x24\n        /* \"#utility.yul\":18528:18529   */\n      0x00\n        /* \"#utility.yul\":18521:18536   */\n      revert\n        /* \"#utility.yul\":18548:18733   */\n    tag_184:\n        /* \"#utility.yul\":18588:18589   */\n      0x00\n        /* \"#utility.yul\":18605:18625   */\n      tag_524\n        /* \"#utility.yul\":18623:18624   */\n      dup3\n        /* \"#utility.yul\":18605:18625   */\n      tag_302\n      jump\t// in\n    tag_524:\n        /* \"#utility.yul\":18600:18625   */\n      swap2\n      pop\n        /* \"#utility.yul\":18639:18659   */\n      tag_525\n        /* \"#utility.yul\":18657:18658   */\n      dup4\n        /* \"#utility.yul\":18639:18659   */\n      tag_302\n      jump\t// in\n    tag_525:\n        /* \"#utility.yul\":18634:18659   */\n      swap3\n      pop\n        /* \"#utility.yul\":18678:18679   */\n      dup3\n        /* \"#utility.yul\":18668:18703   */\n      tag_526\n      jumpi\n        /* \"#utility.yul\":18683:18701   */\n      tag_527\n      tag_334\n      jump\t// in\n    tag_527:\n        /* \"#utility.yul\":18668:18703   */\n    tag_526:\n        /* \"#utility.yul\":18725:18726   */\n      dup3\n        /* \"#utility.yul\":18722:18723   */\n      dup3\n        /* \"#utility.yul\":18718:18727   */\n      div\n        /* \"#utility.yul\":18713:18727   */\n      swap1\n      pop\n        /* \"#utility.yul\":18548:18733   */\n      swap3\n      swap2\n      pop\n      pop\n      jump\t// out\n        /* \"#utility.yul\":18739:18964   */\n    tag_335:\n        /* \"#utility.yul\":18879:18913   */\n      0x4f776e61626c653a206e6577206f776e657220697320746865207a65726f2061\n        /* \"#utility.yul\":18875:18876   */\n      0x00\n        /* \"#utility.yul\":18867:18873   */\n      dup3\n        /* \"#utility.yul\":18863:18877   */\n      add\n        /* \"#utility.yul\":18856:18914   */\n      mstore\n        /* \"#utility.yul\":18948:18956   */\n      0x6464726573730000000000000000000000000000000000000000000000000000\n        /* \"#utility.yul\":18943:18945   */\n      0x20\n        /* \"#utility.yul\":18935:18941   */\n      dup3\n        /* \"#utility.yul\":18931:18946   */\n      add\n        /* \"#utility.yul\":18924:18957   */\n      mstore\n        /* \"#utility.yul\":18739:18964   */\n      pop\n      jump\t// out\n        /* \"#utility.yul\":18970:19336   */\n    tag_336:\n        /* \"#utility.yul\":19112:19115   */\n      0x00\n        /* \"#utility.yul\":19133:19200   */\n      tag_530\n        /* \"#utility.yul\":19197:19199   */\n      0x26\n        /* \"#utility.yul\":19192:19195   */\n      dup4\n        /* \"#utility.yul\":19133:19200   */\n      tag_315\n      jump\t// in\n    tag_530:\n        /* \"#utility.yul\":19126:19200   */\n      swap2\n      pop\n        /* \"#utility.yul\":19209:19302   */\n      tag_531\n        /* \"#utility.yul\":19298:19301   */\n      dup3\n        /* \"#utility.yul\":19209:19302   */\n      tag_335\n      jump\t// in\n    tag_531:\n        /* \"#utility.yul\":19327:19329   */\n      0x40\n        /* \"#utility.yul\":19322:19325   */\n      dup3\n        /* \"#utility.yul\":19318:19330   */\n      add\n        /* \"#utility.yul\":19311:19330   */\n      swap1\n      pop\n        /* \"#utility.yul\":18970:19336   */\n      swap2\n      swap1\n      pop\n      jump\t// out\n        /* \"#utility.yul\":19342:19761   */\n    tag_229:\n        /* \"#utility.yul\":19508:19512   */\n      0x00\n        /* \"#utility.yul\":19546:19548   */\n      0x20\n        /* \"#utility.yul\":19535:19544   */\n      dup3\n        /* \"#utility.yul\":19531:19549   */\n      add\n        /* \"#utility.yul\":19523:19549   */\n      swap1\n      pop\n        /* \"#utility.yul\":19595:19604   */\n      dup2\n        /* \"#utility.yul\":19589:19593   */\n      dup2\n        /* \"#utility.yul\":19585:19605   */\n      sub\n        /* \"#utility.yul\":19581:19582   */\n      0x00\n        /* \"#utility.yul\":19570:19579   */\n      dup4\n        /* \"#utility.yul\":19566:19583   */\n      add\n        /* \"#utility.yul\":19559:19606   */\n      mstore\n        /* \"#utility.yul\":19623:19754   */\n      tag_533\n        /* \"#utility.yul\":19749:19753   */\n      dup2\n        /* \"#utility.yul\":19623:19754   */\n      tag_336\n      jump\t// in\n    tag_533:\n        /* \"#utility.yul\":19615:19754   */\n      swap1\n      pop\n        /* \"#utility.yul\":19342:19761   */\n      swap2\n      swap1\n      pop\n      jump\t// out\n        /* \"#utility.yul\":19767:19949   */\n    tag_337:\n        /* \"#utility.yul\":19907:19941   */\n      0x4f776e61626c653a2063616c6c6572206973206e6f7420746865206f776e6572\n        /* \"#utility.yul\":19903:19904   */\n      0x00\n        /* \"#utility.yul\":19895:19901   */\n      dup3\n        /* \"#utility.yul\":19891:19905   */\n      add\n        /* \"#utility.yul\":19884:19942   */\n      mstore\n        /* \"#utility.yul\":19767:19949   */\n      pop\n      jump\t// out\n        /* \"#utility.yul\":19955:20321   */\n    tag_338:\n        /* \"#utility.yul\":20097:20100   */\n      0x00\n        /* \"#utility.yul\":20118:20185   */\n      tag_536\n        /* \"#utility.yul\":20182:20184   */\n      0x20\n        /* \"#utility.yul\":20177:20180   */\n      dup4\n        /* \"#utility.yul\":20118:20185   */\n      tag_315\n      jump\t// in\n    tag_536:\n        /* \"#utility.yul\":20111:20185   */\n      swap2\n      pop\n        /* \"#utility.yul\":20194:20287   */\n      tag_537\n        /* \"#utility.yul\":20283:20286   */\n      dup3\n        /* \"#utility.yul\":20194:20287   */\n      tag_337\n      jump\t// in\n    tag_537:\n        /* \"#utility.yul\":20312:20314   */\n      0x20\n        /* \"#utility.yul\":20307:20310   */\n      dup3\n        /* \"#utility.yul\":20303:20315   */\n      add\n        /* \"#utility.yul\":20296:20315   */\n      swap1\n      pop\n        /* \"#utility.yul\":19955:20321   */\n      swap2\n      swap1\n      pop\n      jump\t// out\n        /* \"#utility.yul\":20327:20746   */\n    tag_237:\n        /* \"#utility.yul\":20493:20497   */\n      0x00\n        /* \"#utility.yul\":20531:20533   */\n      0x20\n        /* \"#utility.yul\":20520:20529   */\n      dup3\n        /* \"#utility.yul\":20516:20534   */\n      add\n        /* \"#utility.yul\":20508:20534   */\n      swap1\n      pop\n        /* \"#utility.yul\":20580:20589   */\n      dup2\n        /* \"#utility.yul\":20574:20578   */\n      dup2\n        /* \"#utility.yul\":20570:20590   */\n      sub\n        /* \"#utility.yul\":20566:20567   */\n      0x00\n        /* \"#utility.yul\":20555:20564   */\n      dup4\n        /* \"#utility.yul\":20551:20568   */\n      add\n        /* \"#utility.yul\":20544:20591   */\n      mstore\n        /* \"#utility.yul\":20608:20739   */\n      tag_539\n        /* \"#utility.yul\":20734:20738   */\n      dup2\n        /* \"#utility.yul\":20608:20739   */\n      tag_338\n      jump\t// in\n    tag_539:\n        /* \"#utility.yul\":20600:20739   */\n      swap1\n      pop\n        /* \"#utility.yul\":20327:20746   */\n      swap2\n      swap1\n      pop\n      jump\t// out\n        /* \"#utility.yul\":20752:21084   */\n    tag_244:\n        /* \"#utility.yul\":20873:20877   */\n      0x00\n        /* \"#utility.yul\":20911:20913   */\n      0x40\n        /* \"#utility.yul\":20900:20909   */\n      dup3\n        /* \"#utility.yul\":20896:20914   */\n      add\n        /* \"#utility.yul\":20888:20914   */\n      swap1\n      pop\n        /* \"#utility.yul\":20924:20995   */\n      tag_541\n        /* \"#utility.yul\":20992:20993   */\n      0x00\n        /* \"#utility.yul\":20981:20990   */\n      dup4\n        /* \"#utility.yul\":20977:20994   */\n      add\n        /* \"#utility.yul\":20968:20974   */\n      dup6\n        /* \"#utility.yul\":20924:20995   */\n      tag_306\n      jump\t// in\n    tag_541:\n        /* \"#utility.yul\":21005:21077   */\n      tag_542\n        /* \"#utility.yul\":21073:21075   */\n      0x20\n        /* \"#utility.yul\":21062:21071   */\n      dup4\n        /* \"#utility.yul\":21058:21076   */\n      add\n        /* \"#utility.yul\":21049:21055   */\n      dup5\n        /* \"#utility.yul\":21005:21077   */\n      tag_305\n      jump\t// in\n    tag_542:\n        /* \"#utility.yul\":20752:21084   */\n      swap4\n      swap3\n      pop\n      pop\n      pop\n      jump\t// out\n        /* \"#utility.yul\":21090:21267   */\n    tag_339:\n        /* \"#utility.yul\":21230:21259   */\n      0x436f756e7465723a2064656372656d656e74206f766572666c6f770000000000\n        /* \"#utility.yul\":21226:21227   */\n      0x00\n        /* \"#utility.yul\":21218:21224   */\n      dup3\n        /* \"#utility.yul\":21214:21228   */\n      add\n        /* \"#utility.yul\":21207:21260   */\n      mstore\n        /* \"#utility.yul\":21090:21267   */\n      pop\n      jump\t// out\n        /* \"#utility.yul\":21273:21639   */\n    tag_340:\n        /* \"#utility.yul\":21415:21418   */\n      0x00\n        /* \"#utility.yul\":21436:21503   */\n      tag_545\n        /* \"#utility.yul\":21500:21502   */\n      0x1b\n        /* \"#utility.yul\":21495:21498   */\n      dup4\n        /* \"#utility.yul\":21436:21503   */\n      tag_315\n      jump\t// in\n    tag_545:\n        /* \"#utility.yul\":21429:21503   */\n      swap2\n      pop\n        /* \"#utility.yul\":21512:21605   */\n      tag_546\n        /* \"#utility.yul\":21601:21604   */\n      dup3\n        /* \"#utility.yul\":21512:21605   */\n      tag_339\n      jump\t// in\n    tag_546:\n        /* \"#utility.yul\":21630:21632   */\n      0x20\n        /* \"#utility.yul\":21625:21628   */\n      dup3\n        /* \"#utility.yul\":21621:21633   */\n      add\n        /* \"#utility.yul\":21614:21633   */\n      swap1\n      pop\n        /* \"#utility.yul\":21273:21639   */\n      swap2\n      swap1\n      pop\n      jump\t// out\n        /* \"#utility.yul\":21645:22064   */\n    tag_249:\n        /* \"#utility.yul\":21811:21815   */\n      0x00\n        /* \"#utility.yul\":21849:21851   */\n      0x20\n        /* \"#utility.yul\":21838:21847   */\n      dup3\n        /* \"#utility.yul\":21834:21852   */\n      add\n        /* \"#utility.yul\":21826:21852   */\n      swap1\n      pop\n        /* \"#utility.yul\":21898:21907   */\n      dup2\n        /* \"#utility.yul\":21892:21896   */\n      dup2\n        /* \"#utility.yul\":21888:21908   */\n      sub\n        /* \"#utility.yul\":21884:21885   */\n      0x00\n        /* \"#utility.yul\":21873:21882   */\n      dup4\n        /* \"#utility.yul\":21869:21886   */\n      add\n        /* \"#utility.yul\":21862:21909   */\n      mstore\n        /* \"#utility.yul\":21926:22057   */\n      tag_548\n        /* \"#utility.yul\":22052:22056   */\n      dup2\n        /* \"#utility.yul\":21926:22057   */\n      tag_340\n      jump\t// in\n    tag_548:\n        /* \"#utility.yul\":21918:22057   */\n      swap1\n      pop\n        /* \"#utility.yul\":21645:22064   */\n      swap2\n      swap1\n      pop\n      jump\t// out\n        /* \"#utility.yul\":22070:22512   */\n    tag_253:\n        /* \"#utility.yul\":22219:22223   */\n      0x00\n        /* \"#utility.yul\":22257:22259   */\n      0x60\n        /* \"#utility.yul\":22246:22255   */\n      dup3\n        /* \"#utility.yul\":22242:22260   */\n      add\n        /* \"#utility.yul\":22234:22260   */\n      swap1\n      pop\n        /* \"#utility.yul\":22270:22341   */\n      tag_550\n        /* \"#utility.yul\":22338:22339   */\n      0x00\n        /* \"#utility.yul\":22327:22336   */\n      dup4\n        /* \"#utility.yul\":22323:22340   */\n      add\n        /* \"#utility.yul\":22314:22320   */\n      dup7\n        /* \"#utility.yul\":22270:22341   */\n      tag_306\n      jump\t// in\n    tag_550:\n        /* \"#utility.yul\":22351:22423   */\n      tag_551\n        /* \"#utility.yul\":22419:22421   */\n      0x20\n        /* \"#utility.yul\":22408:22417   */\n      dup4\n        /* \"#utility.yul\":22404:22422   */\n      add\n        /* \"#utility.yul\":22395:22401   */\n      dup6\n        /* \"#utility.yul\":22351:22423   */\n      tag_306\n      jump\t// in\n    tag_551:\n        /* \"#utility.yul\":22433:22505   */\n      tag_552\n        /* \"#utility.yul\":22501:22503   */\n      0x40\n        /* \"#utility.yul\":22490:22499   */\n      dup4\n        /* \"#utility.yul\":22486:22504   */\n      add\n        /* \"#utility.yul\":22477:22483   */\n      dup5\n        /* \"#utility.yul\":22433:22505   */\n      tag_305\n      jump\t// in\n    tag_552:\n        /* \"#utility.yul\":22070:22512   */\n      swap5\n      swap4\n      pop\n      pop\n      pop\n      pop\n      jump\t// out\n        /* \"#utility.yul\":22518:22634   */\n    tag_341:\n        /* \"#utility.yul\":22588:22609   */\n      tag_554\n        /* \"#utility.yul\":22603:22608   */\n      dup2\n        /* \"#utility.yul\":22588:22609   */\n      tag_313\n      jump\t// in\n    tag_554:\n        /* \"#utility.yul\":22581:22586   */\n      dup2\n        /* \"#utility.yul\":22578:22610   */\n      eq\n        /* \"#utility.yul\":22568:22628   */\n      tag_555\n      jumpi\n        /* \"#utility.yul\":22624:22625   */\n      0x00\n        /* \"#utility.yul\":22621:22622   */\n      dup1\n        /* \"#utility.yul\":22614:22626   */\n      revert\n        /* \"#utility.yul\":22568:22628   */\n    tag_555:\n        /* \"#utility.yul\":22518:22634   */\n      pop\n      jump\t// out\n        /* \"#utility.yul\":22640:22777   */\n    tag_342:\n        /* \"#utility.yul\":22694:22699   */\n      0x00\n        /* \"#utility.yul\":22725:22731   */\n      dup2\n        /* \"#utility.yul\":22719:22732   */\n      mload\n        /* \"#utility.yul\":22710:22732   */\n      swap1\n      pop\n        /* \"#utility.yul\":22741:22771   */\n      tag_557\n        /* \"#utility.yul\":22765:22770   */\n      dup2\n        /* \"#utility.yul\":22741:22771   */\n      tag_341\n      jump\t// in\n    tag_557:\n        /* \"#utility.yul\":22640:22777   */\n      swap3\n      swap2\n      pop\n      pop\n      jump\t// out\n        /* \"#utility.yul\":22783:23128   */\n    tag_260:\n        /* \"#utility.yul\":22850:22856   */\n      0x00\n        /* \"#utility.yul\":22899:22901   */\n      0x20\n        /* \"#utility.yul\":22887:22896   */\n      dup3\n        /* \"#utility.yul\":22878:22885   */\n      dup5\n        /* \"#utility.yul\":22874:22897   */\n      sub\n        /* \"#utility.yul\":22870:22902   */\n      slt\n        /* \"#utility.yul\":22867:22986   */\n      iszero\n      tag_559\n      jumpi\n        /* \"#utility.yul\":22905:22984   */\n      tag_560\n      tag_296\n      jump\t// in\n    tag_560:\n        /* \"#utility.yul\":22867:22986   */\n    tag_559:\n        /* \"#utility.yul\":23025:23026   */\n      0x00\n        /* \"#utility.yul\":23050:23111   */\n      tag_561\n        /* \"#utility.yul\":23103:23110   */\n      dup5\n        /* \"#utility.yul\":23094:23100   */\n      dup3\n        /* \"#utility.yul\":23083:23092   */\n      dup6\n        /* \"#utility.yul\":23079:23101   */\n      add\n        /* \"#utility.yul\":23050:23111   */\n      tag_342\n      jump\t// in\n    tag_561:\n        /* \"#utility.yul\":23040:23111   */\n      swap2\n      pop\n        /* \"#utility.yul\":22996:23121   */\n      pop\n        /* \"#utility.yul\":22783:23128   */\n      swap3\n      swap2\n      pop\n      pop\n      jump\t// out\n        /* \"#utility.yul\":23134:23363   */\n    tag_343:\n        /* \"#utility.yul\":23274:23308   */\n      0x5361666545524332303a204552433230206f7065726174696f6e20646964206e\n        /* \"#utility.yul\":23270:23271   */\n      0x00\n        /* \"#utility.yul\":23262:23268   */\n      dup3\n        /* \"#utility.yul\":23258:23272   */\n      add\n        /* \"#utility.yul\":23251:23309   */\n      mstore\n        /* \"#utility.yul\":23343:23355   */\n      0x6f74207375636365656400000000000000000000000000000000000000000000\n        /* \"#utility.yul\":23338:23340   */\n      0x20\n        /* \"#utility.yul\":23330:23336   */\n      dup3\n        /* \"#utility.yul\":23326:23341   */\n      add\n        /* \"#utility.yul\":23319:23356   */\n      mstore\n        /* \"#utility.yul\":23134:23363   */\n      pop\n      jump\t// out\n        /* \"#utility.yul\":23369:23735   */\n    tag_344:\n        /* \"#utility.yul\":23511:23514   */\n      0x00\n        /* \"#utility.yul\":23532:23599   */\n      tag_564\n        /* \"#utility.yul\":23596:23598   */\n      0x2a\n        /* \"#utility.yul\":23591:23594   */\n      dup4\n        /* \"#utility.yul\":23532:23599   */\n      tag_315\n      jump\t// in\n    tag_564:\n        /* \"#utility.yul\":23525:23599   */\n      swap2\n      pop\n        /* \"#utility.yul\":23608:23701   */\n      tag_565\n        /* \"#utility.yul\":23697:23700   */\n      dup3\n        /* \"#utility.yul\":23608:23701   */\n      tag_343\n      jump\t// in\n    tag_565:\n        /* \"#utility.yul\":23726:23728   */\n      0x40\n        /* \"#utility.yul\":23721:23724   */\n      dup3\n        /* \"#utility.yul\":23717:23729   */\n      add\n        /* \"#utility.yul\":23710:23729   */\n      swap1\n      pop\n        /* \"#utility.yul\":23369:23735   */\n      swap2\n      swap1\n      pop\n      jump\t// out\n        /* \"#utility.yul\":23741:24160   */\n    tag_263:\n        /* \"#utility.yul\":23907:23911   */\n      0x00\n        /* \"#utility.yul\":23945:23947   */\n      0x20\n        /* \"#utility.yul\":23934:23943   */\n      dup3\n        /* \"#utility.yul\":23930:23948   */\n      add\n        /* \"#utility.yul\":23922:23948   */\n      swap1\n      pop\n        /* \"#utility.yul\":23994:24003   */\n      dup2\n        /* \"#utility.yul\":23988:23992   */\n      dup2\n        /* \"#utility.yul\":23984:24004   */\n      sub\n        /* \"#utility.yul\":23980:23981   */\n      0x00\n        /* \"#utility.yul\":23969:23978   */\n      dup4\n        /* \"#utility.yul\":23965:23982   */\n      add\n        /* \"#utility.yul\":23958:24005   */\n      mstore\n        /* \"#utility.yul\":24022:24153   */\n      tag_567\n        /* \"#utility.yul\":24148:24152   */\n      dup2\n        /* \"#utility.yul\":24022:24153   */\n      tag_344\n      jump\t// in\n    tag_567:\n        /* \"#utility.yul\":24014:24153   */\n      swap1\n      pop\n        /* \"#utility.yul\":23741:24160   */\n      swap2\n      swap1\n      pop\n      jump\t// out\n        /* \"#utility.yul\":24166:24391   */\n    tag_345:\n        /* \"#utility.yul\":24306:24340   */\n      0x416464726573733a20696e73756666696369656e742062616c616e636520666f\n        /* \"#utility.yul\":24302:24303   */\n      0x00\n        /* \"#utility.yul\":24294:24300   */\n      dup3\n        /* \"#utility.yul\":24290:24304   */\n      add\n        /* \"#utility.yul\":24283:24341   */\n      mstore\n        /* \"#utility.yul\":24375:24383   */\n      0x722063616c6c0000000000000000000000000000000000000000000000000000\n        /* \"#utility.yul\":24370:24372   */\n      0x20\n        /* \"#utility.yul\":24362:24368   */\n      dup3\n        /* \"#utility.yul\":24358:24373   */\n      add\n        /* \"#utility.yul\":24351:24384   */\n      mstore\n        /* \"#utility.yul\":24166:24391   */\n      pop\n      jump\t// out\n        /* \"#utility.yul\":24397:24763   */\n    tag_346:\n        /* \"#utility.yul\":24539:24542   */\n      0x00\n        /* \"#utility.yul\":24560:24627   */\n      tag_570\n        /* \"#utility.yul\":24624:24626   */\n      0x26\n        /* \"#utility.yul\":24619:24622   */\n      dup4\n        /* \"#utility.yul\":24560:24627   */\n      tag_315\n      jump\t// in\n    tag_570:\n        /* \"#utility.yul\":24553:24627   */\n      swap2\n      pop\n        /* \"#utility.yul\":24636:24729   */\n      tag_571\n        /* \"#utility.yul\":24725:24728   */\n      dup3\n        /* \"#utility.yul\":24636:24729   */\n      tag_345\n      jump\t// in\n    tag_571:\n        /* \"#utility.yul\":24754:24756   */\n      0x40\n        /* \"#utility.yul\":24749:24752   */\n      dup3\n        /* \"#utility.yul\":24745:24757   */\n      add\n        /* \"#utility.yul\":24738:24757   */\n      swap1\n      pop\n        /* \"#utility.yul\":24397:24763   */\n      swap2\n      swap1\n      pop\n      jump\t// out\n        /* \"#utility.yul\":24769:25188   */\n    tag_270:\n        /* \"#utility.yul\":24935:24939   */\n      0x00\n        /* \"#utility.yul\":24973:24975   */\n      0x20\n        /* \"#utility.yul\":24962:24971   */\n      dup3\n        /* \"#utility.yul\":24958:24976   */\n      add\n        /* \"#utility.yul\":24950:24976   */\n      swap1\n      pop\n        /* \"#utility.yul\":25022:25031   */\n      dup2\n        /* \"#utility.yul\":25016:25020   */\n      dup2\n        /* \"#utility.yul\":25012:25032   */\n      sub\n        /* \"#utility.yul\":25008:25009   */\n      0x00\n        /* \"#utility.yul\":24997:25006   */\n      dup4\n        /* \"#utility.yul\":24993:25010   */\n      add\n        /* \"#utility.yul\":24986:25033   */\n      mstore\n        /* \"#utility.yul\":25050:25181   */\n      tag_573\n        /* \"#utility.yul\":25176:25180   */\n      dup2\n        /* \"#utility.yul\":25050:25181   */\n      tag_346\n      jump\t// in\n    tag_573:\n        /* \"#utility.yul\":25042:25181   */\n      swap1\n      pop\n        /* \"#utility.yul\":24769:25188   */\n      swap2\n      swap1\n      pop\n      jump\t// out\n        /* \"#utility.yul\":25194:25292   */\n    tag_347:\n        /* \"#utility.yul\":25245:25251   */\n      0x00\n        /* \"#utility.yul\":25279:25284   */\n      dup2\n        /* \"#utility.yul\":25273:25285   */\n      mload\n        /* \"#utility.yul\":25263:25285   */\n      swap1\n      pop\n        /* \"#utility.yul\":25194:25292   */\n      swap2\n      swap1\n      pop\n      jump\t// out\n        /* \"#utility.yul\":25298:25445   */\n    tag_348:\n        /* \"#utility.yul\":25399:25410   */\n      0x00\n        /* \"#utility.yul\":25436:25439   */\n      dup2\n        /* \"#utility.yul\":25421:25439   */\n      swap1\n      pop\n        /* \"#utility.yul\":25298:25445   */\n      swap3\n      swap2\n      pop\n      pop\n      jump\t// out\n        /* \"#utility.yul\":25451:25697   */\n    tag_349:\n        /* \"#utility.yul\":25532:25533   */\n      0x00\n        /* \"#utility.yul\":25542:25655   */\n    tag_577:\n        /* \"#utility.yul\":25556:25562   */\n      dup4\n        /* \"#utility.yul\":25553:25554   */\n      dup2\n        /* \"#utility.yul\":25550:25563   */\n      lt\n        /* \"#utility.yul\":25542:25655   */\n      iszero\n      tag_579\n      jumpi\n        /* \"#utility.yul\":25641:25642   */\n      dup1\n        /* \"#utility.yul\":25636:25639   */\n      dup3\n        /* \"#utility.yul\":25632:25643   */\n      add\n        /* \"#utility.yul\":25626:25644   */\n      mload\n        /* \"#utility.yul\":25622:25623   */\n      dup2\n        /* \"#utility.yul\":25617:25620   */\n      dup5\n        /* \"#utility.yul\":25613:25624   */\n      add\n        /* \"#utility.yul\":25606:25645   */\n      mstore\n        /* \"#utility.yul\":25578:25580   */\n      0x20\n        /* \"#utility.yul\":25575:25576   */\n      dup2\n        /* \"#utility.yul\":25571:25581   */\n      add\n        /* \"#utility.yul\":25566:25581   */\n      swap1\n      pop\n        /* \"#utility.yul\":25542:25655   */\n      jump(tag_577)\n    tag_579:\n        /* \"#utility.yul\":25689:25690   */\n      0x00\n        /* \"#utility.yul\":25680:25686   */\n      dup5\n        /* \"#utility.yul\":25675:25678   */\n      dup5\n        /* \"#utility.yul\":25671:25687   */\n      add\n        /* \"#utility.yul\":25664:25691   */\n      mstore\n        /* \"#utility.yul\":25513:25697   */\n      pop\n        /* \"#utility.yul\":25451:25697   */\n      pop\n      pop\n      pop\n      jump\t// out\n        /* \"#utility.yul\":25703:26089   */\n    tag_350:\n        /* \"#utility.yul\":25807:25810   */\n      0x00\n        /* \"#utility.yul\":25835:25873   */\n      tag_581\n        /* \"#utility.yul\":25867:25872   */\n      dup3\n        /* \"#utility.yul\":25835:25873   */\n      tag_347\n      jump\t// in\n    tag_581:\n        /* \"#utility.yul\":25889:25977   */\n      tag_582\n        /* \"#utility.yul\":25970:25976   */\n      dup2\n        /* \"#utility.yul\":25965:25968   */\n      dup6\n        /* \"#utility.yul\":25889:25977   */\n      tag_348\n      jump\t// in\n    tag_582:\n        /* \"#utility.yul\":25882:25977   */\n      swap4\n      pop\n        /* \"#utility.yul\":25986:26051   */\n      tag_583\n        /* \"#utility.yul\":26044:26050   */\n      dup2\n        /* \"#utility.yul\":26039:26042   */\n      dup6\n        /* \"#utility.yul\":26032:26036   */\n      0x20\n        /* \"#utility.yul\":26025:26030   */\n      dup7\n        /* \"#utility.yul\":26021:26037   */\n      add\n        /* \"#utility.yul\":25986:26051   */\n      tag_349\n      jump\t// in\n    tag_583:\n        /* \"#utility.yul\":26076:26082   */\n      dup1\n        /* \"#utility.yul\":26071:26074   */\n      dup5\n        /* \"#utility.yul\":26067:26083   */\n      add\n        /* \"#utility.yul\":26060:26083   */\n      swap2\n      pop\n        /* \"#utility.yul\":25811:26089   */\n      pop\n        /* \"#utility.yul\":25703:26089   */\n      swap3\n      swap2\n      pop\n      pop\n      jump\t// out\n        /* \"#utility.yul\":26095:26366   */\n    tag_272:\n        /* \"#utility.yul\":26225:26228   */\n      0x00\n        /* \"#utility.yul\":26247:26340   */\n      tag_585\n        /* \"#utility.yul\":26336:26339   */\n      dup3\n        /* \"#utility.yul\":26327:26333   */\n      dup5\n        /* \"#utility.yul\":26247:26340   */\n      tag_350\n      jump\t// in\n    tag_585:\n        /* \"#utility.yul\":26240:26340   */\n      swap2\n      pop\n        /* \"#utility.yul\":26357:26360   */\n      dup2\n        /* \"#utility.yul\":26350:26360   */\n      swap1\n      pop\n        /* \"#utility.yul\":26095:26366   */\n      swap3\n      swap2\n      pop\n      pop\n      jump\t// out\n        /* \"#utility.yul\":26372:26551   */\n    tag_351:\n        /* \"#utility.yul\":26512:26543   */\n      0x416464726573733a2063616c6c20746f206e6f6e2d636f6e7472616374000000\n        /* \"#utility.yul\":26508:26509   */\n      0x00\n        /* \"#utility.yul\":26500:26506   */\n      dup3\n        /* \"#utility.yul\":26496:26510   */\n      add\n        /* \"#utility.yul\":26489:26544   */\n      mstore\n        /* \"#utility.yul\":26372:26551   */\n      pop\n      jump\t// out\n        /* \"#utility.yul\":26557:26923   */\n    tag_352:\n        /* \"#utility.yul\":26699:26702   */\n      0x00\n        /* \"#utility.yul\":26720:26787   */\n      tag_588\n        /* \"#utility.yul\":26784:26786   */\n      0x1d\n        /* \"#utility.yul\":26779:26782   */\n      dup4\n        /* \"#utility.yul\":26720:26787   */\n      tag_315\n      jump\t// in\n    tag_588:\n        /* \"#utility.yul\":26713:26787   */\n      swap2\n      pop\n        /* \"#utility.yul\":26796:26889   */\n      tag_589\n        /* \"#utility.yul\":26885:26888   */\n      dup3\n        /* \"#utility.yul\":26796:26889   */\n      tag_351\n      jump\t// in\n    tag_589:\n        /* \"#utility.yul\":26914:26916   */\n      0x20\n        /* \"#utility.yul\":26909:26912   */\n      dup3\n        /* \"#utility.yul\":26905:26917   */\n      add\n        /* \"#utility.yul\":26898:26917   */\n      swap1\n      pop\n        /* \"#utility.yul\":26557:26923   */\n      swap2\n      swap1\n      pop\n      jump\t// out\n        /* \"#utility.yul\":26929:27348   */\n    tag_285:\n        /* \"#utility.yul\":27095:27099   */\n      0x00\n        /* \"#utility.yul\":27133:27135   */\n      0x20\n        /* \"#utility.yul\":27122:27131   */\n      dup3\n        /* \"#utility.yul\":27118:27136   */\n      add\n        /* \"#utility.yul\":27110:27136   */\n      swap1\n      pop\n        /* \"#utility.yul\":27182:27191   */\n      dup2\n        /* \"#utility.yul\":27176:27180   */\n      dup2\n        /* \"#utility.yul\":27172:27192   */\n      sub\n        /* \"#utility.yul\":27168:27169   */\n      0x00\n        /* \"#utility.yul\":27157:27166   */\n      dup4\n        /* \"#utility.yul\":27153:27170   */\n      add\n        /* \"#utility.yul\":27146:27193   */\n      mstore\n        /* \"#utility.yul\":27210:27341   */\n      tag_591\n        /* \"#utility.yul\":27336:27340   */\n      dup2\n        /* \"#utility.yul\":27210:27341   */\n      tag_352\n      jump\t// in\n    tag_591:\n        /* \"#utility.yul\":27202:27341   */\n      swap1\n      pop\n        /* \"#utility.yul\":26929:27348   */\n      swap2\n      swap1\n      pop\n      jump\t// out\n        /* \"#utility.yul\":27354:27453   */\n    tag_353:\n        /* \"#utility.yul\":27406:27412   */\n      0x00\n        /* \"#utility.yul\":27440:27445   */\n      dup2\n        /* \"#utility.yul\":27434:27446   */\n      mload\n        /* \"#utility.yul\":27424:27446   */\n      swap1\n      pop\n        /* \"#utility.yul\":27354:27453   */\n      swap2\n      swap1\n      pop\n      jump\t// out\n        /* \"#utility.yul\":27459:27561   */\n    tag_354:\n        /* \"#utility.yul\":27500:27506   */\n      0x00\n        /* \"#utility.yul\":27551:27553   */\n      0x1f\n        /* \"#utility.yul\":27547:27554   */\n      not\n        /* \"#utility.yul\":27542:27544   */\n      0x1f\n        /* \"#utility.yul\":27535:27540   */\n      dup4\n        /* \"#utility.yul\":27531:27545   */\n      add\n        /* \"#utility.yul\":27527:27555   */\n      and\n        /* \"#utility.yul\":27517:27555   */\n      swap1\n      pop\n        /* \"#utility.yul\":27459:27561   */\n      swap2\n      swap1\n      pop\n      jump\t// out\n        /* \"#utility.yul\":27567:27944   */\n    tag_355:\n        /* \"#utility.yul\":27655:27658   */\n      0x00\n        /* \"#utility.yul\":27683:27722   */\n      tag_595\n        /* \"#utility.yul\":27716:27721   */\n      dup3\n        /* \"#utility.yul\":27683:27722   */\n      tag_353\n      jump\t// in\n    tag_595:\n        /* \"#utility.yul\":27738:27809   */\n      tag_596\n        /* \"#utility.yul\":27802:27808   */\n      dup2\n        /* \"#utility.yul\":27797:27800   */\n      dup6\n        /* \"#utility.yul\":27738:27809   */\n      tag_315\n      jump\t// in\n    tag_596:\n        /* \"#utility.yul\":27731:27809   */\n      swap4\n      pop\n        /* \"#utility.yul\":27818:27883   */\n      tag_597\n        /* \"#utility.yul\":27876:27882   */\n      dup2\n        /* \"#utility.yul\":27871:27874   */\n      dup6\n        /* \"#utility.yul\":27864:27868   */\n      0x20\n        /* \"#utility.yul\":27857:27862   */\n      dup7\n        /* \"#utility.yul\":27853:27869   */\n      add\n        /* \"#utility.yul\":27818:27883   */\n      tag_349\n      jump\t// in\n    tag_597:\n        /* \"#utility.yul\":27908:27937   */\n      tag_598\n        /* \"#utility.yul\":27930:27936   */\n      dup2\n        /* \"#utility.yul\":27908:27937   */\n      tag_354\n      jump\t// in\n    tag_598:\n        /* \"#utility.yul\":27903:27906   */\n      dup5\n        /* \"#utility.yul\":27899:27938   */\n      add\n        /* \"#utility.yul\":27892:27938   */\n      swap2\n      pop\n        /* \"#utility.yul\":27659:27944   */\n      pop\n        /* \"#utility.yul\":27567:27944   */\n      swap3\n      swap2\n      pop\n      pop\n      jump\t// out\n        /* \"#utility.yul\":27950:28263   */\n    tag_294:\n        /* \"#utility.yul\":28063:28067   */\n      0x00\n        /* \"#utility.yul\":28101:28103   */\n      0x20\n        /* \"#utility.yul\":28090:28099   */\n      dup3\n        /* \"#utility.yul\":28086:28104   */\n      add\n        /* \"#utility.yul\":28078:28104   */\n      swap1\n      pop\n        /* \"#utility.yul\":28150:28159   */\n      dup2\n        /* \"#utility.yul\":28144:28148   */\n      dup2\n        /* \"#utility.yul\":28140:28160   */\n      sub\n        /* \"#utility.yul\":28136:28137   */\n      0x00\n        /* \"#utility.yul\":28125:28134   */\n      dup4\n        /* \"#utility.yul\":28121:28138   */\n      add\n        /* \"#utility.yul\":28114:28161   */\n      mstore\n        /* \"#utility.yul\":28178:28256   */\n      tag_600\n        /* \"#utility.yul\":28251:28255   */\n      dup2\n        /* \"#utility.yul\":28242:28248   */\n      dup5\n        /* \"#utility.yul\":28178:28256   */\n      tag_355\n      jump\t// in\n    tag_600:\n        /* \"#utility.yul\":28170:28256   */\n      swap1\n      pop\n        /* \"#utility.yul\":27950:28263   */\n      swap3\n      swap2\n      pop\n      pop\n      jump\t// out\n\n    auxdata: 0xa26469706673582212203d85bee8d223d660068a036998a7956f23d6e3b44ba20a3850a9c0bae03b747f64736f6c63430008120033\n}\n",
				"bytecode": {
					"linkReferences": {},
					"object": "6080604052670de0b6b3a76400006008553480156200001d57600080fd5b5060405162004604380380620046048339818101604052810190620000439190620001e1565b6200006362000057620000ab60201b60201c565b620000b360201b60201c565b80600660006101000a81548173ffffffffffffffffffffffffffffffffffffffff021916908373ffffffffffffffffffffffffffffffffffffffff1602179055505062000213565b600033905090565b60008060009054906101000a900473ffffffffffffffffffffffffffffffffffffffff169050816000806101000a81548173ffffffffffffffffffffffffffffffffffffffff021916908373ffffffffffffffffffffffffffffffffffffffff1602179055508173ffffffffffffffffffffffffffffffffffffffff168173ffffffffffffffffffffffffffffffffffffffff167f8be0079c531659141344cd1fd0a4f28419497f9722a3daafe3b4186f6b6457e060405160405180910390a35050565b600080fd5b600073ffffffffffffffffffffffffffffffffffffffff82169050919050565b6000620001a9826200017c565b9050919050565b620001bb816200019c565b8114620001c757600080fd5b50565b600081519050620001db81620001b0565b92915050565b600060208284031215620001fa57620001f962000177565b5b60006200020a84828501620001ca565b91505092915050565b6143e180620002236000396000f3fe608060405234801561001057600080fd5b50600436106101165760003560e01c8063a6021ace116100a2578063c0cd40ee11610071578063c0cd40ee146102c0578063c1876b67146102dc578063d9dcb60a14610312578063f2fde38b14610342578063f7d252f41461035e57610116565b8063a6021ace1461024a578063b10558ab14610268578063b460af9414610286578063b7171a2e146102a257610116565b80634930e5d1116100e95780634930e5d1146101b8578063715018a6146101d65780637628c720146101e057806384715b11146102105780638da5cb5b1461022c57610116565b806309e3e4101461011b578063150b7a021461014c5780633f4312301461017c57806341fcd29a1461019a575b600080fd5b61013560048036038101906101309190613649565b61037c565b6040516101439291906136a7565b60405180910390f35b61016660048036038101906101619190613735565b6103cd565b60405161017391906137f8565b60405180910390f35b6101846103e2565b6040516101919190613813565b60405180910390f35b6101a26103ee565b6040516101af9190613813565b60405180910390f35b6101c06103fa565b6040516101cd9190613813565b60405180910390f35b6101de610400565b005b6101fa60048036038101906101f5919061382e565b610414565b6040516102079190613813565b60405180910390f35b61022a6004803603810190610225919061385b565b61042c565b005b610234612255565b60405161024191906138c2565b60405180910390f35b61025261227e565b60405161025f91906138c2565b60405180910390f35b6102706122a4565b60405161027d9190613813565b60405180910390f35b6102a0600480360381019061029b91906138dd565b6122b0565b005b6102aa612e68565b6040516102b791906138c2565b60405180910390f35b6102da60048036038101906102d59190613930565b612e8e565b005b6102f660048036038101906102f1919061395d565b612f01565b60405161030997969594939291906139cb565b60405180910390f35b61032c60048036038101906103279190613649565b612f8a565b6040516103399190613813565b60405180910390f35b61035c6004803603810190610357919061382e565b612faf565b005b610366613032565b6040516103739190613813565b60405180910390f35b600a602052816000526040600020602052806000526040600020600091509150508060000154908060010160009054906101000a900473ffffffffffffffffffffffffffffffffffffffff16905082565b600063150b7a0260e01b905095945050505050565b60018060000154905081565b60048060000154905081565b60075481565b61040861303e565b61041260006130bc565b565b600c6020528060005260406000206000915090505481565b600960008373ffffffffffffffffffffffffffffffffffffffff1673ffffffffffffffffffffffffffffffffffffffff16815260200190815260200160002060008273ffffffffffffffffffffffffffffffffffffffff1673ffffffffffffffffffffffffffffffffffffffff168152602001908152602001600020600085815260200190815260200160002060060160009054906101000a900460ff161561050a576040517f08c379a000000000000000000000000000000000000000000000000000000000815260040161050190613a97565b60405180910390fd5b600f8303610c4c5761051c6001613180565b6103e86105296001613196565b111561056a576040517f08c379a000000000000000000000000000000000000000000000000000000000815260040161056190613b03565b60405180910390fd5b6000600960008473ffffffffffffffffffffffffffffffffffffffff1673ffffffffffffffffffffffffffffffffffffffff16815260200190815260200160002060008373ffffffffffffffffffffffffffffffffffffffff1673ffffffffffffffffffffffffffffffffffffffff168152602001908152602001600020600086815260200190815260200160002060040154036109c3576040518060e001604052808273ffffffffffffffffffffffffffffffffffffffff1681526020016008546113886106399190613b52565b8152602001848152602001428152602001858152602001600c60008573ffffffffffffffffffffffffffffffffffffffff1673ffffffffffffffffffffffffffffffffffffffff16815260200190815260200160002054815260200160011515815250600960008473ffffffffffffffffffffffffffffffffffffffff1673ffffffffffffffffffffffffffffffffffffffff16815260200190815260200160002060008373ffffffffffffffffffffffffffffffffffffffff1673ffffffffffffffffffffffffffffffffffffffff168152602001908152602001600020600086815260200190815260200160002060008201518160000160006101000a81548173ffffffffffffffffffffffffffffffffffffffff021916908373ffffffffffffffffffffffffffffffffffffffff1602179055506020820151816001015560408201518160020155606082015181600301556080820151816004015560a0820151816005015560c08201518160060160006101000a81548160ff02191690831515021790555090505060405180604001604052808581526020018273ffffffffffffffffffffffffffffffffffffffff16815250600a60008473ffffffffffffffffffffffffffffffffffffffff1673ffffffffffffffffffffffffffffffffffffffff1681526020019081526020016000206000600c60008673ffffffffffffffffffffffffffffffffffffffff1673ffffffffffffffffffffffffffffffffffffffff1681526020019081526020016000205481526020019081526020016000206000820151816000015560208201518160010160006101000a81548173ffffffffffffffffffffffffffffffffffffffff021916908373ffffffffffffffffffffffffffffffffffffffff160217905550905050600c60008373ffffffffffffffffffffffffffffffffffffffff1673ffffffffffffffffffffffffffffffffffffffff16815260200190815260200160002054600b60008373ffffffffffffffffffffffffffffffffffffffff1673ffffffffffffffffffffffffffffffffffffffff1681526020019081526020016000206000868152602001908152602001600020819055506001600c60008473ffffffffffffffffffffffffffffffffffffffff1673ffffffffffffffffffffffffffffffffffffffff16815260200190815260200160002060008282546109b79190613b94565b92505081905550610bd8565b6040518060e001604052808273ffffffffffffffffffffffffffffffffffffffff1681526020016008546113886109fa9190613b52565b8152602001848152602001428152602001858152602001600960008573ffffffffffffffffffffffffffffffffffffffff1673ffffffffffffffffffffffffffffffffffffffff16815260200190815260200160002060008473ffffffffffffffffffffffffffffffffffffffff1673ffffffffffffffffffffffffffffffffffffffff168152602001908152602001600020600087815260200190815260200160002060050154815260200160011515815250600960008473ffffffffffffffffffffffffffffffffffffffff1673ffffffffffffffffffffffffffffffffffffffff16815260200190815260200160002060008373ffffffffffffffffffffffffffffffffffffffff1673ffffffffffffffffffffffffffffffffffffffff168152602001908152602001600020600086815260200190815260200160002060008201518160000160006101000a81548173ffffffffffffffffffffffffffffffffffffffff021916908373ffffffffffffffffffffffffffffffffffffffff1602179055506020820151816001015560408201518160020155606082015181600301556080820151816004015560a0820151816005015560c08201518160060160006101000a81548160ff0219169083151502179055509050505b8073ffffffffffffffffffffffffffffffffffffffff1663b88d4fde8330876040518463ffffffff1660e01b8152600401610c1593929190613bff565b600060405180830381600087803b158015610c2f57600080fd5b505af1158015610c43573d6000803e3d6000fd5b5050505061224f565b601e830361138e57610c5e6002613180565b6102ee610c6b6002613196565b1115610cac576040517f08c379a0000000000000000000000000000000000000000000000000000000008152600401610ca390613c95565b60405180910390fd5b6000600960008473ffffffffffffffffffffffffffffffffffffffff1673ffffffffffffffffffffffffffffffffffffffff16815260200190815260200160002060008373ffffffffffffffffffffffffffffffffffffffff1673ffffffffffffffffffffffffffffffffffffffff16815260200190815260200160002060008681526020019081526020016000206004015403611105576040518060e001604052808273ffffffffffffffffffffffffffffffffffffffff168152602001600854611d4c610d7b9190613b52565b8152602001848152602001428152602001858152602001600c60008573ffffffffffffffffffffffffffffffffffffffff1673ffffffffffffffffffffffffffffffffffffffff16815260200190815260200160002054815260200160011515815250600960008473ffffffffffffffffffffffffffffffffffffffff1673ffffffffffffffffffffffffffffffffffffffff16815260200190815260200160002060008373ffffffffffffffffffffffffffffffffffffffff1673ffffffffffffffffffffffffffffffffffffffff168152602001908152602001600020600086815260200190815260200160002060008201518160000160006101000a81548173ffffffffffffffffffffffffffffffffffffffff021916908373ffffffffffffffffffffffffffffffffffffffff1602179055506020820151816001015560408201518160020155606082015181600301556080820151816004015560a0820151816005015560c08201518160060160006101000a81548160ff02191690831515021790555090505060405180604001604052808581526020018273ffffffffffffffffffffffffffffffffffffffff16815250600a60008473ffffffffffffffffffffffffffffffffffffffff1673ffffffffffffffffffffffffffffffffffffffff1681526020019081526020016000206000600c60008673ffffffffffffffffffffffffffffffffffffffff1673ffffffffffffffffffffffffffffffffffffffff1681526020019081526020016000205481526020019081526020016000206000820151816000015560208201518160010160006101000a81548173ffffffffffffffffffffffffffffffffffffffff021916908373ffffffffffffffffffffffffffffffffffffffff160217905550905050600c60008373ffffffffffffffffffffffffffffffffffffffff1673ffffffffffffffffffffffffffffffffffffffff16815260200190815260200160002054600b60008373ffffffffffffffffffffffffffffffffffffffff1673ffffffffffffffffffffffffffffffffffffffff1681526020019081526020016000206000868152602001908152602001600020819055506001600c60008473ffffffffffffffffffffffffffffffffffffffff1673ffffffffffffffffffffffffffffffffffffffff16815260200190815260200160002060008282546110f99190613b94565b9250508190555061131a565b6040518060e001604052808273ffffffffffffffffffffffffffffffffffffffff168152602001600854611d4c61113c9190613b52565b8152602001848152602001428152602001858152602001600960008573ffffffffffffffffffffffffffffffffffffffff1673ffffffffffffffffffffffffffffffffffffffff16815260200190815260200160002060008473ffffffffffffffffffffffffffffffffffffffff1673ffffffffffffffffffffffffffffffffffffffff168152602001908152602001600020600087815260200190815260200160002060050154815260200160011515815250600960008473ffffffffffffffffffffffffffffffffffffffff1673ffffffffffffffffffffffffffffffffffffffff16815260200190815260200160002060008373ffffffffffffffffffffffffffffffffffffffff1673ffffffffffffffffffffffffffffffffffffffff168152602001908152602001600020600086815260200190815260200160002060008201518160000160006101000a81548173ffffffffffffffffffffffffffffffffffffffff021916908373ffffffffffffffffffffffffffffffffffffffff1602179055506020820151816001015560408201518160020155606082015181600301556080820151816004015560a0820151816005015560c08201518160060160006101000a81548160ff0219169083151502179055509050505b8073ffffffffffffffffffffffffffffffffffffffff1663b88d4fde8330876040518463ffffffff1660e01b815260040161135793929190613bff565b600060405180830381600087803b15801561137157600080fd5b505af1158015611385573d6000803e3d6000fd5b5050505061224e565b603c8303611ad0576113a06003613180565b6101f46113ad6003613196565b11156113ee576040517f08c379a00000000000000000000000000000000000000000000000000000000081526004016113e590613d01565b60405180910390fd5b6000600960008473ffffffffffffffffffffffffffffffffffffffff1673ffffffffffffffffffffffffffffffffffffffff16815260200190815260200160002060008373ffffffffffffffffffffffffffffffffffffffff1673ffffffffffffffffffffffffffffffffffffffff16815260200190815260200160002060008681526020019081526020016000206004015403611847576040518060e001604052808273ffffffffffffffffffffffffffffffffffffffff1681526020016008546130d46114bd9190613b52565b8152602001848152602001428152602001858152602001600c60008573ffffffffffffffffffffffffffffffffffffffff1673ffffffffffffffffffffffffffffffffffffffff16815260200190815260200160002054815260200160011515815250600960008473ffffffffffffffffffffffffffffffffffffffff1673ffffffffffffffffffffffffffffffffffffffff16815260200190815260200160002060008373ffffffffffffffffffffffffffffffffffffffff1673ffffffffffffffffffffffffffffffffffffffff168152602001908152602001600020600086815260200190815260200160002060008201518160000160006101000a81548173ffffffffffffffffffffffffffffffffffffffff021916908373ffffffffffffffffffffffffffffffffffffffff1602179055506020820151816001015560408201518160020155606082015181600301556080820151816004015560a0820151816005015560c08201518160060160006101000a81548160ff02191690831515021790555090505060405180604001604052808581526020018273ffffffffffffffffffffffffffffffffffffffff16815250600a60008473ffffffffffffffffffffffffffffffffffffffff1673ffffffffffffffffffffffffffffffffffffffff1681526020019081526020016000206000600c60008673ffffffffffffffffffffffffffffffffffffffff1673ffffffffffffffffffffffffffffffffffffffff1681526020019081526020016000205481526020019081526020016000206000820151816000015560208201518160010160006101000a81548173ffffffffffffffffffffffffffffffffffffffff021916908373ffffffffffffffffffffffffffffffffffffffff160217905550905050600c60008373ffffffffffffffffffffffffffffffffffffffff1673ffffffffffffffffffffffffffffffffffffffff16815260200190815260200160002054600b60008373ffffffffffffffffffffffffffffffffffffffff1673ffffffffffffffffffffffffffffffffffffffff1681526020019081526020016000206000868152602001908152602001600020819055506001600c60008473ffffffffffffffffffffffffffffffffffffffff1673ffffffffffffffffffffffffffffffffffffffff168152602001908152602001600020600082825461183b9190613b94565b92505081905550611a5c565b6040518060e001604052808273ffffffffffffffffffffffffffffffffffffffff1681526020016008546130d461187e9190613b52565b8152602001848152602001428152602001858152602001600960008573ffffffffffffffffffffffffffffffffffffffff1673ffffffffffffffffffffffffffffffffffffffff16815260200190815260200160002060008473ffffffffffffffffffffffffffffffffffffffff1673ffffffffffffffffffffffffffffffffffffffff168152602001908152602001600020600087815260200190815260200160002060050154815260200160011515815250600960008473ffffffffffffffffffffffffffffffffffffffff1673ffffffffffffffffffffffffffffffffffffffff16815260200190815260200160002060008373ffffffffffffffffffffffffffffffffffffffff1673ffffffffffffffffffffffffffffffffffffffff168152602001908152602001600020600086815260200190815260200160002060008201518160000160006101000a81548173ffffffffffffffffffffffffffffffffffffffff021916908373ffffffffffffffffffffffffffffffffffffffff1602179055506020820151816001015560408201518160020155606082015181600301556080820151816004015560a0820151816005015560c08201518160060160006101000a81548160ff0219169083151502179055509050505b8073ffffffffffffffffffffffffffffffffffffffff1663b88d4fde8330876040518463ffffffff1660e01b8152600401611a9993929190613bff565b600060405180830381600087803b158015611ab357600080fd5b505af1158015611ac7573d6000803e3d6000fd5b5050505061224d565b605a830361221157611ae26004613180565b60fa611aee6004613196565b1115611b2f576040517f08c379a0000000000000000000000000000000000000000000000000000000008152600401611b2690613d6d565b60405180910390fd5b6000600960008473ffffffffffffffffffffffffffffffffffffffff1673ffffffffffffffffffffffffffffffffffffffff16815260200190815260200160002060008373ffffffffffffffffffffffffffffffffffffffff1673ffffffffffffffffffffffffffffffffffffffff16815260200190815260200160002060008681526020019081526020016000206004015403611f88576040518060e001604052808273ffffffffffffffffffffffffffffffffffffffff16815260200160085461445c611bfe9190613b52565b8152602001848152602001428152602001858152602001600c60008573ffffffffffffffffffffffffffffffffffffffff1673ffffffffffffffffffffffffffffffffffffffff16815260200190815260200160002054815260200160011515815250600960008473ffffffffffffffffffffffffffffffffffffffff1673ffffffffffffffffffffffffffffffffffffffff16815260200190815260200160002060008373ffffffffffffffffffffffffffffffffffffffff1673ffffffffffffffffffffffffffffffffffffffff168152602001908152602001600020600086815260200190815260200160002060008201518160000160006101000a81548173ffffffffffffffffffffffffffffffffffffffff021916908373ffffffffffffffffffffffffffffffffffffffff1602179055506020820151816001015560408201518160020155606082015181600301556080820151816004015560a0820151816005015560c08201518160060160006101000a81548160ff02191690831515021790555090505060405180604001604052808581526020018273ffffffffffffffffffffffffffffffffffffffff16815250600a60008473ffffffffffffffffffffffffffffffffffffffff1673ffffffffffffffffffffffffffffffffffffffff1681526020019081526020016000206000600c60008673ffffffffffffffffffffffffffffffffffffffff1673ffffffffffffffffffffffffffffffffffffffff1681526020019081526020016000205481526020019081526020016000206000820151816000015560208201518160010160006101000a81548173ffffffffffffffffffffffffffffffffffffffff021916908373ffffffffffffffffffffffffffffffffffffffff160217905550905050600c60008373ffffffffffffffffffffffffffffffffffffffff1673ffffffffffffffffffffffffffffffffffffffff16815260200190815260200160002054600b60008373ffffffffffffffffffffffffffffffffffffffff1673ffffffffffffffffffffffffffffffffffffffff1681526020019081526020016000206000868152602001908152602001600020819055506001600c60008473ffffffffffffffffffffffffffffffffffffffff1673ffffffffffffffffffffffffffffffffffffffff1681526020019081526020016000206000828254611f7c9190613b94565b9250508190555061219d565b6040518060e001604052808273ffffffffffffffffffffffffffffffffffffffff16815260200160085461445c611fbf9190613b52565b8152602001848152602001428152602001858152602001600960008573ffffffffffffffffffffffffffffffffffffffff1673ffffffffffffffffffffffffffffffffffffffff16815260200190815260200160002060008473ffffffffffffffffffffffffffffffffffffffff1673ffffffffffffffffffffffffffffffffffffffff168152602001908152602001600020600087815260200190815260200160002060050154815260200160011515815250600960008473ffffffffffffffffffffffffffffffffffffffff1673ffffffffffffffffffffffffffffffffffffffff16815260200190815260200160002060008373ffffffffffffffffffffffffffffffffffffffff1673ffffffffffffffffffffffffffffffffffffffff168152602001908152602001600020600086815260200190815260200160002060008201518160000160006101000a81548173ffffffffffffffffffffffffffffffffffffffff021916908373ffffffffffffffffffffffffffffffffffffffff1602179055506020820151816001015560408201518160020155606082015181600301556080820151816004015560a0820151816005015560c08201518160060160006101000a81548160ff0219169083151502179055509050505b8073ffffffffffffffffffffffffffffffffffffffff1663b88d4fde8330876040518463ffffffff1660e01b81526004016121da93929190613bff565b600060405180830381600087803b1580156121f457600080fd5b505af1158015612208573d6000803e3d6000fd5b5050505061224c565b6040517f08c379a000000000000000000000000000000000000000000000000000000000815260040161224390613dd9565b60405180910390fd5b5b5b5b50505050565b60008060009054906101000a900473ffffffffffffffffffffffffffffffffffffffff16905090565b600660009054906101000a900473ffffffffffffffffffffffffffffffffffffffff1681565b60028060000154905081565b600960008373ffffffffffffffffffffffffffffffffffffffff1673ffffffffffffffffffffffffffffffffffffffff16815260200190815260200160002060008273ffffffffffffffffffffffffffffffffffffffff1673ffffffffffffffffffffffffffffffffffffffff168152602001908152602001600020600084815260200190815260200160002060060160009054906101000a900460ff1661238d576040517f08c379a000000000000000000000000000000000000000000000000000000000815260040161238490613e45565b60405180910390fd5b6000603c600960008573ffffffffffffffffffffffffffffffffffffffff1673ffffffffffffffffffffffffffffffffffffffff16815260200190815260200160002060008473ffffffffffffffffffffffffffffffffffffffff1673ffffffffffffffffffffffffffffffffffffffff1681526020019081526020016000206000868152602001908152602001600020600301544261242d9190613e65565b6124379190613ec8565b9050600960008473ffffffffffffffffffffffffffffffffffffffff1673ffffffffffffffffffffffffffffffffffffffff16815260200190815260200160002060008373ffffffffffffffffffffffffffffffffffffffff1673ffffffffffffffffffffffffffffffffffffffff168152602001908152602001600020600085815260200190815260200160002060020154811015612898576000600960008573ffffffffffffffffffffffffffffffffffffffff1673ffffffffffffffffffffffffffffffffffffffff16815260200190815260200160002060008473ffffffffffffffffffffffffffffffffffffffff1673ffffffffffffffffffffffffffffffffffffffff168152602001908152602001600020600086815260200190815260200160002060020154600960008673ffffffffffffffffffffffffffffffffffffffff1673ffffffffffffffffffffffffffffffffffffffff16815260200190815260200160002060008573ffffffffffffffffffffffffffffffffffffffff1673ffffffffffffffffffffffffffffffffffffffff1681526020019081526020016000206000878152602001908152602001600020600101546125ff9190613ec8565b8261260a9190613b52565b90506000606482600261261d9190613b52565b6126279190613ec8565b90506126818582846126399190613e65565b600660009054906101000a900473ffffffffffffffffffffffffffffffffffffffff1673ffffffffffffffffffffffffffffffffffffffff166131a49092919063ffffffff16565b6126d061dead82600660009054906101000a900473ffffffffffffffffffffffffffffffffffffffff1673ffffffffffffffffffffffffffffffffffffffff166131a49092919063ffffffff16565b8373ffffffffffffffffffffffffffffffffffffffff1663b88d4fde3087600960008a73ffffffffffffffffffffffffffffffffffffffff1673ffffffffffffffffffffffffffffffffffffffff16815260200190815260200160002060008973ffffffffffffffffffffffffffffffffffffffff1673ffffffffffffffffffffffffffffffffffffffff16815260200190815260200160002060008b8152602001908152602001600020600401546040518463ffffffff1660e01b815260040161279d93929190613bff565b600060405180830381600087803b1580156127b757600080fd5b505af11580156127cb573d6000803e3d6000fd5b5050505081600760008282546127e19190613e65565b925050819055506000600960008773ffffffffffffffffffffffffffffffffffffffff1673ffffffffffffffffffffffffffffffffffffffff16815260200190815260200160002060008673ffffffffffffffffffffffffffffffffffffffff1673ffffffffffffffffffffffffffffffffffffffff168152602001908152602001600020600088815260200190815260200160002060060160006101000a81548160ff0219169083151502179055505050612bc7565b61297583600960008673ffffffffffffffffffffffffffffffffffffffff1673ffffffffffffffffffffffffffffffffffffffff16815260200190815260200160002060008573ffffffffffffffffffffffffffffffffffffffff1673ffffffffffffffffffffffffffffffffffffffff168152602001908152602001600020600087815260200190815260200160002060010154600660009054906101000a900473ffffffffffffffffffffffffffffffffffffffff1673ffffffffffffffffffffffffffffffffffffffff166131a49092919063ffffffff16565b8173ffffffffffffffffffffffffffffffffffffffff1663b88d4fde3085600960008873ffffffffffffffffffffffffffffffffffffffff1673ffffffffffffffffffffffffffffffffffffffff16815260200190815260200160002060008773ffffffffffffffffffffffffffffffffffffffff1673ffffffffffffffffffffffffffffffffffffffff1681526020019081526020016000206000898152602001908152602001600020600401546040518463ffffffff1660e01b8152600401612a4293929190613bff565b600060405180830381600087803b158015612a5c57600080fd5b505af1158015612a70573d6000803e3d6000fd5b50505050600960008473ffffffffffffffffffffffffffffffffffffffff1673ffffffffffffffffffffffffffffffffffffffff16815260200190815260200160002060008373ffffffffffffffffffffffffffffffffffffffff1673ffffffffffffffffffffffffffffffffffffffff16815260200190815260200160002060008581526020019081526020016000206001015460076000828254612b169190613e65565b925050819055506000600960008573ffffffffffffffffffffffffffffffffffffffff1673ffffffffffffffffffffffffffffffffffffffff16815260200190815260200160002060008473ffffffffffffffffffffffffffffffffffffffff1673ffffffffffffffffffffffffffffffffffffffff168152602001908152602001600020600086815260200190815260200160002060060160006101000a81548160ff0219169083151502179055505b600f600960008573ffffffffffffffffffffffffffffffffffffffff1673ffffffffffffffffffffffffffffffffffffffff16815260200190815260200160002060008473ffffffffffffffffffffffffffffffffffffffff1673ffffffffffffffffffffffffffffffffffffffff16815260200190815260200160002060008681526020019081526020016000206002015403612c6e57612c69600161322a565b612e62565b601e600960008573ffffffffffffffffffffffffffffffffffffffff1673ffffffffffffffffffffffffffffffffffffffff16815260200190815260200160002060008473ffffffffffffffffffffffffffffffffffffffff1673ffffffffffffffffffffffffffffffffffffffff16815260200190815260200160002060008681526020019081526020016000206002015403612d1557612d10600261322a565b612e61565b603c600960008573ffffffffffffffffffffffffffffffffffffffff1673ffffffffffffffffffffffffffffffffffffffff16815260200190815260200160002060008473ffffffffffffffffffffffffffffffffffffffff1673ffffffffffffffffffffffffffffffffffffffff16815260200190815260200160002060008681526020019081526020016000206002015403612dbc57612db7600361322a565b612e60565b605a600960008573ffffffffffffffffffffffffffffffffffffffff1673ffffffffffffffffffffffffffffffffffffffff16815260200190815260200160002060008473ffffffffffffffffffffffffffffffffffffffff1673ffffffffffffffffffffffffffffffffffffffff16815260200190815260200160002060008681526020019081526020016000206002015403612e5f57612e5e600461322a565b5b5b5b5b50505050565b600560009054906101000a900473ffffffffffffffffffffffffffffffffffffffff1681565b612e9661303e565b8060076000828254612ea89190613b94565b92505081905550612efe333083600660009054906101000a900473ffffffffffffffffffffffffffffffffffffffff1673ffffffffffffffffffffffffffffffffffffffff16613286909392919063ffffffff16565b50565b600960205282600052604060002060205281600052604060002060205280600052604060002060009250925050508060000160009054906101000a900473ffffffffffffffffffffffffffffffffffffffff16908060010154908060020154908060030154908060040154908060050154908060060160009054906101000a900460ff16905087565b600b602052816000526040600020602052806000526040600020600091509150505481565b612fb761303e565b600073ffffffffffffffffffffffffffffffffffffffff168173ffffffffffffffffffffffffffffffffffffffff1603613026576040517f08c379a000000000000000000000000000000000000000000000000000000000815260040161301d90613f6b565b60405180910390fd5b61302f816130bc565b50565b60038060000154905081565b61304661330f565b73ffffffffffffffffffffffffffffffffffffffff16613064612255565b73ffffffffffffffffffffffffffffffffffffffff16146130ba576040517f08c379a00000000000000000000000000000000000000000000000000000000081526004016130b190613fd7565b60405180910390fd5b565b60008060009054906101000a900473ffffffffffffffffffffffffffffffffffffffff169050816000806101000a81548173ffffffffffffffffffffffffffffffffffffffff021916908373ffffffffffffffffffffffffffffffffffffffff1602179055508173ffffffffffffffffffffffffffffffffffffffff168173ffffffffffffffffffffffffffffffffffffffff167f8be0079c531659141344cd1fd0a4f28419497f9722a3daafe3b4186f6b6457e060405160405180910390a35050565b6001816000016000828254019250508190555050565b600081600001549050919050565b6132258363a9059cbb60e01b84846040516024016131c3929190613ff7565b604051602081830303815290604052907bffffffffffffffffffffffffffffffffffffffffffffffffffffffff19166020820180517bffffffffffffffffffffffffffffffffffffffffffffffffffffffff8381831617835250505050613317565b505050565b60008160000154905060008111613276576040517f08c379a000000000000000000000000000000000000000000000000000000000815260040161326d9061406c565b60405180910390fd5b6001810382600001819055505050565b613309846323b872dd60e01b8585856040516024016132a79392919061408c565b604051602081830303815290604052907bffffffffffffffffffffffffffffffffffffffffffffffffffffffff19166020820180517bffffffffffffffffffffffffffffffffffffffffffffffffffffffff8381831617835250505050613317565b50505050565b600033905090565b6000613379826040518060400160405280602081526020017f5361666545524332303a206c6f772d6c6576656c2063616c6c206661696c65648152508573ffffffffffffffffffffffffffffffffffffffff166133de9092919063ffffffff16565b90506000815111156133d9578080602001905181019061339991906140ef565b6133d8576040517f08c379a00000000000000000000000000000000000000000000000000000000081526004016133cf9061418e565b60405180910390fd5b5b505050565b60606133ed84846000856133f6565b90509392505050565b60608247101561343b576040517f08c379a000000000000000000000000000000000000000000000000000000000815260040161343290614220565b60405180910390fd5b6000808673ffffffffffffffffffffffffffffffffffffffff16858760405161346491906142b1565b60006040518083038185875af1925050503d80600081146134a1576040519150601f19603f3d011682016040523d82523d6000602084013e6134a6565b606091505b50915091506134b7878383876134c3565b92505050949350505050565b6060831561352557600083510361351d576134dd85613538565b61351c576040517f08c379a000000000000000000000000000000000000000000000000000000000815260040161351390614314565b60405180910390fd5b5b829050613530565b61352f838361355b565b5b949350505050565b6000808273ffffffffffffffffffffffffffffffffffffffff163b119050919050565b60008251111561356e5781518083602001fd5b806040517f08c379a00000000000000000000000000000000000000000000000000000000081526004016135a29190614389565b60405180910390fd5b600080fd5b600080fd5b600073ffffffffffffffffffffffffffffffffffffffff82169050919050565b60006135e0826135b5565b9050919050565b6135f0816135d5565b81146135fb57600080fd5b50565b60008135905061360d816135e7565b92915050565b6000819050919050565b61362681613613565b811461363157600080fd5b50565b6000813590506136438161361d565b92915050565b600080604083850312156136605761365f6135ab565b5b600061366e858286016135fe565b925050602061367f85828601613634565b9150509250929050565b61369281613613565b82525050565b6136a1816135d5565b82525050565b60006040820190506136bc6000830185613689565b6136c96020830184613698565b9392505050565b600080fd5b600080fd5b600080fd5b60008083601f8401126136f5576136f46136d0565b5b8235905067ffffffffffffffff811115613712576137116136d5565b5b60208301915083600182028301111561372e5761372d6136da565b5b9250929050565b600080600080600060808688031215613751576137506135ab565b5b600061375f888289016135fe565b9550506020613770888289016135fe565b945050604061378188828901613634565b935050606086013567ffffffffffffffff8111156137a2576137a16135b0565b5b6137ae888289016136df565b92509250509295509295909350565b60007fffffffff0000000000000000000000000000000000000000000000000000000082169050919050565b6137f2816137bd565b82525050565b600060208201905061380d60008301846137e9565b92915050565b60006020820190506138286000830184613689565b92915050565b600060208284031215613844576138436135ab565b5b6000613852848285016135fe565b91505092915050565b60008060008060808587031215613875576138746135ab565b5b600061388387828801613634565b945050602061389487828801613634565b93505060406138a5878288016135fe565b92505060606138b6878288016135fe565b91505092959194509250565b60006020820190506138d76000830184613698565b92915050565b6000806000606084860312156138f6576138f56135ab565b5b600061390486828701613634565b9350506020613915868287016135fe565b9250506040613926868287016135fe565b9150509250925092565b600060208284031215613946576139456135ab565b5b600061395484828501613634565b91505092915050565b600080600060608486031215613976576139756135ab565b5b6000613984868287016135fe565b9350506020613995868287016135fe565b92505060406139a686828701613634565b9150509250925092565b60008115159050919050565b6139c5816139b0565b82525050565b600060e0820190506139e0600083018a613698565b6139ed6020830189613689565b6139fa6040830188613689565b613a076060830187613689565b613a146080830186613689565b613a2160a0830185613689565b613a2e60c08301846139bc565b98975050505050505050565b600082825260208201905092915050565b7f596f7520416c7265616479204465706f736974204e4654000000000000000000600082015250565b6000613a81601783613a3a565b9150613a8c82613a4b565b602082019050919050565b60006020820190508181036000830152613ab081613a74565b9050919050565b7f313520446179732043617465676f72792069732046756c6c2021212100000000600082015250565b6000613aed601c83613a3a565b9150613af882613ab7565b602082019050919050565b60006020820190508181036000830152613b1c81613ae0565b9050919050565b7f4e487b7100000000000000000000000000000000000000000000000000000000600052601160045260246000fd5b6000613b5d82613613565b9150613b6883613613565b9250828202613b7681613613565b91508282048414831517613b8d57613b8c613b23565b5b5092915050565b6000613b9f82613613565b9150613baa83613613565b9250828201905080821115613bc257613bc1613b23565b5b92915050565b600082825260208201905092915050565b50565b6000613be9600083613bc8565b9150613bf482613bd9565b600082019050919050565b6000608082019050613c146000830186613698565b613c216020830185613698565b613c2e6040830184613689565b8181036060830152613c3f81613bdc565b9050949350505050565b7f333020446179732043617465676f72792069732046756c6c2021212100000000600082015250565b6000613c7f601c83613a3a565b9150613c8a82613c49565b602082019050919050565b60006020820190508181036000830152613cae81613c72565b9050919050565b7f363020446179732043617465676f72792069732046756c6c2021212100000000600082015250565b6000613ceb601c83613a3a565b9150613cf682613cb5565b602082019050919050565b60006020820190508181036000830152613d1a81613cde565b9050919050565b7f393020446179732043617465676f72792069732046756c6c2021212100000000600082015250565b6000613d57601c83613a3a565b9150613d6282613d21565b602082019050919050565b60006020820190508181036000830152613d8681613d4a565b9050919050565b7f53656c6c65637420446179732031352c33302c36302c39302021212100000000600082015250565b6000613dc3601c83613a3a565b9150613dce82613d8d565b602082019050919050565b60006020820190508181036000830152613df281613db6565b9050919050565b7f506c65617365204669727374204465706f736974204e46542021212100000000600082015250565b6000613e2f601c83613a3a565b9150613e3a82613df9565b602082019050919050565b60006020820190508181036000830152613e5e81613e22565b9050919050565b6000613e7082613613565b9150613e7b83613613565b9250828203905081811115613e9357613e92613b23565b5b92915050565b7f4e487b7100000000000000000000000000000000000000000000000000000000600052601260045260246000fd5b6000613ed382613613565b9150613ede83613613565b925082613eee57613eed613e99565b5b828204905092915050565b7f4f776e61626c653a206e6577206f776e657220697320746865207a65726f206160008201527f6464726573730000000000000000000000000000000000000000000000000000602082015250565b6000613f55602683613a3a565b9150613f6082613ef9565b604082019050919050565b60006020820190508181036000830152613f8481613f48565b9050919050565b7f4f776e61626c653a2063616c6c6572206973206e6f7420746865206f776e6572600082015250565b6000613fc1602083613a3a565b9150613fcc82613f8b565b602082019050919050565b60006020820190508181036000830152613ff081613fb4565b9050919050565b600060408201905061400c6000830185613698565b6140196020830184613689565b9392505050565b7f436f756e7465723a2064656372656d656e74206f766572666c6f770000000000600082015250565b6000614056601b83613a3a565b915061406182614020565b602082019050919050565b6000602082019050818103600083015261408581614049565b9050919050565b60006060820190506140a16000830186613698565b6140ae6020830185613698565b6140bb6040830184613689565b949350505050565b6140cc816139b0565b81146140d757600080fd5b50565b6000815190506140e9816140c3565b92915050565b600060208284031215614105576141046135ab565b5b6000614113848285016140da565b91505092915050565b7f5361666545524332303a204552433230206f7065726174696f6e20646964206e60008201527f6f74207375636365656400000000000000000000000000000000000000000000602082015250565b6000614178602a83613a3a565b91506141838261411c565b604082019050919050565b600060208201905081810360008301526141a78161416b565b9050919050565b7f416464726573733a20696e73756666696369656e742062616c616e636520666f60008201527f722063616c6c0000000000000000000000000000000000000000000000000000602082015250565b600061420a602683613a3a565b9150614215826141ae565b604082019050919050565b60006020820190508181036000830152614239816141fd565b9050919050565b600081519050919050565b600081905092915050565b60005b83811015614274578082015181840152602081019050614259565b60008484015250505050565b600061428b82614240565b614295818561424b565b93506142a5818560208601614256565b80840191505092915050565b60006142bd8284614280565b915081905092915050565b7f416464726573733a2063616c6c20746f206e6f6e2d636f6e7472616374000000600082015250565b60006142fe601d83613a3a565b9150614309826142c8565b602082019050919050565b6000602082019050818103600083015261432d816142f1565b9050919050565b600081519050919050565b6000601f19601f8301169050919050565b600061435b82614334565b6143658185613a3a565b9350614375818560208601614256565b61437e8161433f565b840191505092915050565b600060208201905081810360008301526143a38184614350565b90509291505056fea26469706673582212203d85bee8d223d660068a036998a7956f23d6e3b44ba20a3850a9c0bae03b747f64736f6c63430008120033",
					"opcodes": "PUSH1 0x80 PUSH1 0x40 MSTORE PUSH8 0xDE0B6B3A7640000 PUSH1 0x8 SSTORE CALLVALUE DUP1 ISZERO PUSH3 0x1D JUMPI PUSH1 0x0 DUP1 REVERT JUMPDEST POP PUSH1 0x40 MLOAD PUSH3 0x4604 CODESIZE SUB DUP1 PUSH3 0x4604 DUP4 CODECOPY DUP2 DUP2 ADD PUSH1 0x40 MSTORE DUP2 ADD SWAP1 PUSH3 0x43 SWAP2 SWAP1 PUSH3 0x1E1 JUMP JUMPDEST PUSH3 0x63 PUSH3 0x57 PUSH3 0xAB PUSH1 0x20 SHL PUSH1 0x20 SHR JUMP JUMPDEST PUSH3 0xB3 PUSH1 0x20 SHL PUSH1 0x20 SHR JUMP JUMPDEST DUP1 PUSH1 0x6 PUSH1 0x0 PUSH2 0x100 EXP DUP2 SLOAD DUP2 PUSH20 0xFFFFFFFFFFFFFFFFFFFFFFFFFFFFFFFFFFFFFFFF MUL NOT AND SWAP1 DUP4 PUSH20 0xFFFFFFFFFFFFFFFFFFFFFFFFFFFFFFFFFFFFFFFF AND MUL OR SWAP1 SSTORE POP POP PUSH3 0x213 JUMP JUMPDEST PUSH1 0x0 CALLER SWAP1 POP SWAP1 JUMP JUMPDEST PUSH1 0x0 DUP1 PUSH1 0x0 SWAP1 SLOAD SWAP1 PUSH2 0x100 EXP SWAP1 DIV PUSH20 0xFFFFFFFFFFFFFFFFFFFFFFFFFFFFFFFFFFFFFFFF AND SWAP1 POP DUP2 PUSH1 0x0 DUP1 PUSH2 0x100 EXP DUP2 SLOAD DUP2 PUSH20 0xFFFFFFFFFFFFFFFFFFFFFFFFFFFFFFFFFFFFFFFF MUL NOT AND SWAP1 DUP4 PUSH20 0xFFFFFFFFFFFFFFFFFFFFFFFFFFFFFFFFFFFFFFFF AND MUL OR SWAP1 SSTORE POP DUP2 PUSH20 0xFFFFFFFFFFFFFFFFFFFFFFFFFFFFFFFFFFFFFFFF AND DUP2 PUSH20 0xFFFFFFFFFFFFFFFFFFFFFFFFFFFFFFFFFFFFFFFF AND PUSH32 0x8BE0079C531659141344CD1FD0A4F28419497F9722A3DAAFE3B4186F6B6457E0 PUSH1 0x40 MLOAD PUSH1 0x40 MLOAD DUP1 SWAP2 SUB SWAP1 LOG3 POP POP JUMP JUMPDEST PUSH1 0x0 DUP1 REVERT JUMPDEST PUSH1 0x0 PUSH20 0xFFFFFFFFFFFFFFFFFFFFFFFFFFFFFFFFFFFFFFFF DUP3 AND SWAP1 POP SWAP2 SWAP1 POP JUMP JUMPDEST PUSH1 0x0 PUSH3 0x1A9 DUP3 PUSH3 0x17C JUMP JUMPDEST SWAP1 POP SWAP2 SWAP1 POP JUMP JUMPDEST PUSH3 0x1BB DUP2 PUSH3 0x19C JUMP JUMPDEST DUP2 EQ PUSH3 0x1C7 JUMPI PUSH1 0x0 DUP1 REVERT JUMPDEST POP JUMP JUMPDEST PUSH1 0x0 DUP2 MLOAD SWAP1 POP PUSH3 0x1DB DUP2 PUSH3 0x1B0 JUMP JUMPDEST SWAP3 SWAP2 POP POP JUMP JUMPDEST PUSH1 0x0 PUSH1 0x20 DUP3 DUP5 SUB SLT ISZERO PUSH3 0x1FA JUMPI PUSH3 0x1F9 PUSH3 0x177 JUMP JUMPDEST JUMPDEST PUSH1 0x0 PUSH3 0x20A DUP5 DUP3 DUP6 ADD PUSH3 0x1CA JUMP JUMPDEST SWAP2 POP POP SWAP3 SWAP2 POP POP JUMP JUMPDEST PUSH2 0x43E1 DUP1 PUSH3 0x223 PUSH1 0x0 CODECOPY PUSH1 0x0 RETURN INVALID PUSH1 0x80 PUSH1 0x40 MSTORE CALLVALUE DUP1 ISZERO PUSH2 0x10 JUMPI PUSH1 0x0 DUP1 REVERT JUMPDEST POP PUSH1 0x4 CALLDATASIZE LT PUSH2 0x116 JUMPI PUSH1 0x0 CALLDATALOAD PUSH1 0xE0 SHR DUP1 PUSH4 0xA6021ACE GT PUSH2 0xA2 JUMPI DUP1 PUSH4 0xC0CD40EE GT PUSH2 0x71 JUMPI DUP1 PUSH4 0xC0CD40EE EQ PUSH2 0x2C0 JUMPI DUP1 PUSH4 0xC1876B67 EQ PUSH2 0x2DC JUMPI DUP1 PUSH4 0xD9DCB60A EQ PUSH2 0x312 JUMPI DUP1 PUSH4 0xF2FDE38B EQ PUSH2 0x342 JUMPI DUP1 PUSH4 0xF7D252F4 EQ PUSH2 0x35E JUMPI PUSH2 0x116 JUMP JUMPDEST DUP1 PUSH4 0xA6021ACE EQ PUSH2 0x24A JUMPI DUP1 PUSH4 0xB10558AB EQ PUSH2 0x268 JUMPI DUP1 PUSH4 0xB460AF94 EQ PUSH2 0x286 JUMPI DUP1 PUSH4 0xB7171A2E EQ PUSH2 0x2A2 JUMPI PUSH2 0x116 JUMP JUMPDEST DUP1 PUSH4 0x4930E5D1 GT PUSH2 0xE9 JUMPI DUP1 PUSH4 0x4930E5D1 EQ PUSH2 0x1B8 JUMPI DUP1 PUSH4 0x715018A6 EQ PUSH2 0x1D6 JUMPI DUP1 PUSH4 0x7628C720 EQ PUSH2 0x1E0 JUMPI DUP1 PUSH4 0x84715B11 EQ PUSH2 0x210 JUMPI DUP1 PUSH4 0x8DA5CB5B EQ PUSH2 0x22C JUMPI PUSH2 0x116 JUMP JUMPDEST DUP1 PUSH4 0x9E3E410 EQ PUSH2 0x11B JUMPI DUP1 PUSH4 0x150B7A02 EQ PUSH2 0x14C JUMPI DUP1 PUSH4 0x3F431230 EQ PUSH2 0x17C JUMPI DUP1 PUSH4 0x41FCD29A EQ PUSH2 0x19A JUMPI JUMPDEST PUSH1 0x0 DUP1 REVERT JUMPDEST PUSH2 0x135 PUSH1 0x4 DUP1 CALLDATASIZE SUB DUP2 ADD SWAP1 PUSH2 0x130 SWAP2 SWAP1 PUSH2 0x3649 JUMP JUMPDEST PUSH2 0x37C JUMP JUMPDEST PUSH1 0x40 MLOAD PUSH2 0x143 SWAP3 SWAP2 SWAP1 PUSH2 0x36A7 JUMP JUMPDEST PUSH1 0x40 MLOAD DUP1 SWAP2 SUB SWAP1 RETURN JUMPDEST PUSH2 0x166 PUSH1 0x4 DUP1 CALLDATASIZE SUB DUP2 ADD SWAP1 PUSH2 0x161 SWAP2 SWAP1 PUSH2 0x3735 JUMP JUMPDEST PUSH2 0x3CD JUMP JUMPDEST PUSH1 0x40 MLOAD PUSH2 0x173 SWAP2 SWAP1 PUSH2 0x37F8 JUMP JUMPDEST PUSH1 0x40 MLOAD DUP1 SWAP2 SUB SWAP1 RETURN JUMPDEST PUSH2 0x184 PUSH2 0x3E2 JUMP JUMPDEST PUSH1 0x40 MLOAD PUSH2 0x191 SWAP2 SWAP1 PUSH2 0x3813 JUMP JUMPDEST PUSH1 0x40 MLOAD DUP1 SWAP2 SUB SWAP1 RETURN JUMPDEST PUSH2 0x1A2 PUSH2 0x3EE JUMP JUMPDEST PUSH1 0x40 MLOAD PUSH2 0x1AF SWAP2 SWAP1 PUSH2 0x3813 JUMP JUMPDEST PUSH1 0x40 MLOAD DUP1 SWAP2 SUB SWAP1 RETURN JUMPDEST PUSH2 0x1C0 PUSH2 0x3FA JUMP JUMPDEST PUSH1 0x40 MLOAD PUSH2 0x1CD SWAP2 SWAP1 PUSH2 0x3813 JUMP JUMPDEST PUSH1 0x40 MLOAD DUP1 SWAP2 SUB SWAP1 RETURN JUMPDEST PUSH2 0x1DE PUSH2 0x400 JUMP JUMPDEST STOP JUMPDEST PUSH2 0x1FA PUSH1 0x4 DUP1 CALLDATASIZE SUB DUP2 ADD SWAP1 PUSH2 0x1F5 SWAP2 SWAP1 PUSH2 0x382E JUMP JUMPDEST PUSH2 0x414 JUMP JUMPDEST PUSH1 0x40 MLOAD PUSH2 0x207 SWAP2 SWAP1 PUSH2 0x3813 JUMP JUMPDEST PUSH1 0x40 MLOAD DUP1 SWAP2 SUB SWAP1 RETURN JUMPDEST PUSH2 0x22A PUSH1 0x4 DUP1 CALLDATASIZE SUB DUP2 ADD SWAP1 PUSH2 0x225 SWAP2 SWAP1 PUSH2 0x385B JUMP JUMPDEST PUSH2 0x42C JUMP JUMPDEST STOP JUMPDEST PUSH2 0x234 PUSH2 0x2255 JUMP JUMPDEST PUSH1 0x40 MLOAD PUSH2 0x241 SWAP2 SWAP1 PUSH2 0x38C2 JUMP JUMPDEST PUSH1 0x40 MLOAD DUP1 SWAP2 SUB SWAP1 RETURN JUMPDEST PUSH2 0x252 PUSH2 0x227E JUMP JUMPDEST PUSH1 0x40 MLOAD PUSH2 0x25F SWAP2 SWAP1 PUSH2 0x38C2 JUMP JUMPDEST PUSH1 0x40 MLOAD DUP1 SWAP2 SUB SWAP1 RETURN JUMPDEST PUSH2 0x270 PUSH2 0x22A4 JUMP JUMPDEST PUSH1 0x40 MLOAD PUSH2 0x27D SWAP2 SWAP1 PUSH2 0x3813 JUMP JUMPDEST PUSH1 0x40 MLOAD DUP1 SWAP2 SUB SWAP1 RETURN JUMPDEST PUSH2 0x2A0 PUSH1 0x4 DUP1 CALLDATASIZE SUB DUP2 ADD SWAP1 PUSH2 0x29B SWAP2 SWAP1 PUSH2 0x38DD JUMP JUMPDEST PUSH2 0x22B0 JUMP JUMPDEST STOP JUMPDEST PUSH2 0x2AA PUSH2 0x2E68 JUMP JUMPDEST PUSH1 0x40 MLOAD PUSH2 0x2B7 SWAP2 SWAP1 PUSH2 0x38C2 JUMP JUMPDEST PUSH1 0x40 MLOAD DUP1 SWAP2 SUB SWAP1 RETURN JUMPDEST PUSH2 0x2DA PUSH1 0x4 DUP1 CALLDATASIZE SUB DUP2 ADD SWAP1 PUSH2 0x2D5 SWAP2 SWAP1 PUSH2 0x3930 JUMP JUMPDEST PUSH2 0x2E8E JUMP JUMPDEST STOP JUMPDEST PUSH2 0x2F6 PUSH1 0x4 DUP1 CALLDATASIZE SUB DUP2 ADD SWAP1 PUSH2 0x2F1 SWAP2 SWAP1 PUSH2 0x395D JUMP JUMPDEST PUSH2 0x2F01 JUMP JUMPDEST PUSH1 0x40 MLOAD PUSH2 0x309 SWAP8 SWAP7 SWAP6 SWAP5 SWAP4 SWAP3 SWAP2 SWAP1 PUSH2 0x39CB JUMP JUMPDEST PUSH1 0x40 MLOAD DUP1 SWAP2 SUB SWAP1 RETURN JUMPDEST PUSH2 0x32C PUSH1 0x4 DUP1 CALLDATASIZE SUB DUP2 ADD SWAP1 PUSH2 0x327 SWAP2 SWAP1 PUSH2 0x3649 JUMP JUMPDEST PUSH2 0x2F8A JUMP JUMPDEST PUSH1 0x40 MLOAD PUSH2 0x339 SWAP2 SWAP1 PUSH2 0x3813 JUMP JUMPDEST PUSH1 0x40 MLOAD DUP1 SWAP2 SUB SWAP1 RETURN JUMPDEST PUSH2 0x35C PUSH1 0x4 DUP1 CALLDATASIZE SUB DUP2 ADD SWAP1 PUSH2 0x357 SWAP2 SWAP1 PUSH2 0x382E JUMP JUMPDEST PUSH2 0x2FAF JUMP JUMPDEST STOP JUMPDEST PUSH2 0x366 PUSH2 0x3032 JUMP JUMPDEST PUSH1 0x40 MLOAD PUSH2 0x373 SWAP2 SWAP1 PUSH2 0x3813 JUMP JUMPDEST PUSH1 0x40 MLOAD DUP1 SWAP2 SUB SWAP1 RETURN JUMPDEST PUSH1 0xA PUSH1 0x20 MSTORE DUP2 PUSH1 0x0 MSTORE PUSH1 0x40 PUSH1 0x0 KECCAK256 PUSH1 0x20 MSTORE DUP1 PUSH1 0x0 MSTORE PUSH1 0x40 PUSH1 0x0 KECCAK256 PUSH1 0x0 SWAP2 POP SWAP2 POP POP DUP1 PUSH1 0x0 ADD SLOAD SWAP1 DUP1 PUSH1 0x1 ADD PUSH1 0x0 SWAP1 SLOAD SWAP1 PUSH2 0x100 EXP SWAP1 DIV PUSH20 0xFFFFFFFFFFFFFFFFFFFFFFFFFFFFFFFFFFFFFFFF AND SWAP1 POP DUP3 JUMP JUMPDEST PUSH1 0x0 PUSH4 0x150B7A02 PUSH1 0xE0 SHL SWAP1 POP SWAP6 SWAP5 POP POP POP POP POP JUMP JUMPDEST PUSH1 0x1 DUP1 PUSH1 0x0 ADD SLOAD SWAP1 POP DUP2 JUMP JUMPDEST PUSH1 0x4 DUP1 PUSH1 0x0 ADD SLOAD SWAP1 POP DUP2 JUMP JUMPDEST PUSH1 0x7 SLOAD DUP2 JUMP JUMPDEST PUSH2 0x408 PUSH2 0x303E JUMP JUMPDEST PUSH2 0x412 PUSH1 0x0 PUSH2 0x30BC JUMP JUMPDEST JUMP JUMPDEST PUSH1 0xC PUSH1 0x20 MSTORE DUP1 PUSH1 0x0 MSTORE PUSH1 0x40 PUSH1 0x0 KECCAK256 PUSH1 0x0 SWAP2 POP SWAP1 POP SLOAD DUP2 JUMP JUMPDEST PUSH1 0x9 PUSH1 0x0 DUP4 PUSH20 0xFFFFFFFFFFFFFFFFFFFFFFFFFFFFFFFFFFFFFFFF AND PUSH20 0xFFFFFFFFFFFFFFFFFFFFFFFFFFFFFFFFFFFFFFFF AND DUP2 MSTORE PUSH1 0x20 ADD SWAP1 DUP2 MSTORE PUSH1 0x20 ADD PUSH1 0x0 KECCAK256 PUSH1 0x0 DUP3 PUSH20 0xFFFFFFFFFFFFFFFFFFFFFFFFFFFFFFFFFFFFFFFF AND PUSH20 0xFFFFFFFFFFFFFFFFFFFFFFFFFFFFFFFFFFFFFFFF AND DUP2 MSTORE PUSH1 0x20 ADD SWAP1 DUP2 MSTORE PUSH1 0x20 ADD PUSH1 0x0 KECCAK256 PUSH1 0x0 DUP6 DUP2 MSTORE PUSH1 0x20 ADD SWAP1 DUP2 MSTORE PUSH1 0x20 ADD PUSH1 0x0 KECCAK256 PUSH1 0x6 ADD PUSH1 0x0 SWAP1 SLOAD SWAP1 PUSH2 0x100 EXP SWAP1 DIV PUSH1 0xFF AND ISZERO PUSH2 0x50A JUMPI PUSH1 0x40 MLOAD PUSH32 0x8C379A000000000000000000000000000000000000000000000000000000000 DUP2 MSTORE PUSH1 0x4 ADD PUSH2 0x501 SWAP1 PUSH2 0x3A97 JUMP JUMPDEST PUSH1 0x40 MLOAD DUP1 SWAP2 SUB SWAP1 REVERT JUMPDEST PUSH1 0xF DUP4 SUB PUSH2 0xC4C JUMPI PUSH2 0x51C PUSH1 0x1 PUSH2 0x3180 JUMP JUMPDEST PUSH2 0x3E8 PUSH2 0x529 PUSH1 0x1 PUSH2 0x3196 JUMP JUMPDEST GT ISZERO PUSH2 0x56A JUMPI PUSH1 0x40 MLOAD PUSH32 0x8C379A000000000000000000000000000000000000000000000000000000000 DUP2 MSTORE PUSH1 0x4 ADD PUSH2 0x561 SWAP1 PUSH2 0x3B03 JUMP JUMPDEST PUSH1 0x40 MLOAD DUP1 SWAP2 SUB SWAP1 REVERT JUMPDEST PUSH1 0x0 PUSH1 0x9 PUSH1 0x0 DUP5 PUSH20 0xFFFFFFFFFFFFFFFFFFFFFFFFFFFFFFFFFFFFFFFF AND PUSH20 0xFFFFFFFFFFFFFFFFFFFFFFFFFFFFFFFFFFFFFFFF AND DUP2 MSTORE PUSH1 0x20 ADD SWAP1 DUP2 MSTORE PUSH1 0x20 ADD PUSH1 0x0 KECCAK256 PUSH1 0x0 DUP4 PUSH20 0xFFFFFFFFFFFFFFFFFFFFFFFFFFFFFFFFFFFFFFFF AND PUSH20 0xFFFFFFFFFFFFFFFFFFFFFFFFFFFFFFFFFFFFFFFF AND DUP2 MSTORE PUSH1 0x20 ADD SWAP1 DUP2 MSTORE PUSH1 0x20 ADD PUSH1 0x0 KECCAK256 PUSH1 0x0 DUP7 DUP2 MSTORE PUSH1 0x20 ADD SWAP1 DUP2 MSTORE PUSH1 0x20 ADD PUSH1 0x0 KECCAK256 PUSH1 0x4 ADD SLOAD SUB PUSH2 0x9C3 JUMPI PUSH1 0x40 MLOAD DUP1 PUSH1 0xE0 ADD PUSH1 0x40 MSTORE DUP1 DUP3 PUSH20 0xFFFFFFFFFFFFFFFFFFFFFFFFFFFFFFFFFFFFFFFF AND DUP2 MSTORE PUSH1 0x20 ADD PUSH1 0x8 SLOAD PUSH2 0x1388 PUSH2 0x639 SWAP2 SWAP1 PUSH2 0x3B52 JUMP JUMPDEST DUP2 MSTORE PUSH1 0x20 ADD DUP5 DUP2 MSTORE PUSH1 0x20 ADD TIMESTAMP DUP2 MSTORE PUSH1 0x20 ADD DUP6 DUP2 MSTORE PUSH1 0x20 ADD PUSH1 0xC PUSH1 0x0 DUP6 PUSH20 0xFFFFFFFFFFFFFFFFFFFFFFFFFFFFFFFFFFFFFFFF AND PUSH20 0xFFFFFFFFFFFFFFFFFFFFFFFFFFFFFFFFFFFFFFFF AND DUP2 MSTORE PUSH1 0x20 ADD SWAP1 DUP2 MSTORE PUSH1 0x20 ADD PUSH1 0x0 KECCAK256 SLOAD DUP2 MSTORE PUSH1 0x20 ADD PUSH1 0x1 ISZERO ISZERO DUP2 MSTORE POP PUSH1 0x9 PUSH1 0x0 DUP5 PUSH20 0xFFFFFFFFFFFFFFFFFFFFFFFFFFFFFFFFFFFFFFFF AND PUSH20 0xFFFFFFFFFFFFFFFFFFFFFFFFFFFFFFFFFFFFFFFF AND DUP2 MSTORE PUSH1 0x20 ADD SWAP1 DUP2 MSTORE PUSH1 0x20 ADD PUSH1 0x0 KECCAK256 PUSH1 0x0 DUP4 PUSH20 0xFFFFFFFFFFFFFFFFFFFFFFFFFFFFFFFFFFFFFFFF AND PUSH20 0xFFFFFFFFFFFFFFFFFFFFFFFFFFFFFFFFFFFFFFFF AND DUP2 MSTORE PUSH1 0x20 ADD SWAP1 DUP2 MSTORE PUSH1 0x20 ADD PUSH1 0x0 KECCAK256 PUSH1 0x0 DUP7 DUP2 MSTORE PUSH1 0x20 ADD SWAP1 DUP2 MSTORE PUSH1 0x20 ADD PUSH1 0x0 KECCAK256 PUSH1 0x0 DUP3 ADD MLOAD DUP2 PUSH1 0x0 ADD PUSH1 0x0 PUSH2 0x100 EXP DUP2 SLOAD DUP2 PUSH20 0xFFFFFFFFFFFFFFFFFFFFFFFFFFFFFFFFFFFFFFFF MUL NOT AND SWAP1 DUP4 PUSH20 0xFFFFFFFFFFFFFFFFFFFFFFFFFFFFFFFFFFFFFFFF AND MUL OR SWAP1 SSTORE POP PUSH1 0x20 DUP3 ADD MLOAD DUP2 PUSH1 0x1 ADD SSTORE PUSH1 0x40 DUP3 ADD MLOAD DUP2 PUSH1 0x2 ADD SSTORE PUSH1 0x60 DUP3 ADD MLOAD DUP2 PUSH1 0x3 ADD SSTORE PUSH1 0x80 DUP3 ADD MLOAD DUP2 PUSH1 0x4 ADD SSTORE PUSH1 0xA0 DUP3 ADD MLOAD DUP2 PUSH1 0x5 ADD SSTORE PUSH1 0xC0 DUP3 ADD MLOAD DUP2 PUSH1 0x6 ADD PUSH1 0x0 PUSH2 0x100 EXP DUP2 SLOAD DUP2 PUSH1 0xFF MUL NOT AND SWAP1 DUP4 ISZERO ISZERO MUL OR SWAP1 SSTORE POP SWAP1 POP POP PUSH1 0x40 MLOAD DUP1 PUSH1 0x40 ADD PUSH1 0x40 MSTORE DUP1 DUP6 DUP2 MSTORE PUSH1 0x20 ADD DUP3 PUSH20 0xFFFFFFFFFFFFFFFFFFFFFFFFFFFFFFFFFFFFFFFF AND DUP2 MSTORE POP PUSH1 0xA PUSH1 0x0 DUP5 PUSH20 0xFFFFFFFFFFFFFFFFFFFFFFFFFFFFFFFFFFFFFFFF AND PUSH20 0xFFFFFFFFFFFFFFFFFFFFFFFFFFFFFFFFFFFFFFFF AND DUP2 MSTORE PUSH1 0x20 ADD SWAP1 DUP2 MSTORE PUSH1 0x20 ADD PUSH1 0x0 KECCAK256 PUSH1 0x0 PUSH1 0xC PUSH1 0x0 DUP7 PUSH20 0xFFFFFFFFFFFFFFFFFFFFFFFFFFFFFFFFFFFFFFFF AND PUSH20 0xFFFFFFFFFFFFFFFFFFFFFFFFFFFFFFFFFFFFFFFF AND DUP2 MSTORE PUSH1 0x20 ADD SWAP1 DUP2 MSTORE PUSH1 0x20 ADD PUSH1 0x0 KECCAK256 SLOAD DUP2 MSTORE PUSH1 0x20 ADD SWAP1 DUP2 MSTORE PUSH1 0x20 ADD PUSH1 0x0 KECCAK256 PUSH1 0x0 DUP3 ADD MLOAD DUP2 PUSH1 0x0 ADD SSTORE PUSH1 0x20 DUP3 ADD MLOAD DUP2 PUSH1 0x1 ADD PUSH1 0x0 PUSH2 0x100 EXP DUP2 SLOAD DUP2 PUSH20 0xFFFFFFFFFFFFFFFFFFFFFFFFFFFFFFFFFFFFFFFF MUL NOT AND SWAP1 DUP4 PUSH20 0xFFFFFFFFFFFFFFFFFFFFFFFFFFFFFFFFFFFFFFFF AND MUL OR SWAP1 SSTORE POP SWAP1 POP POP PUSH1 0xC PUSH1 0x0 DUP4 PUSH20 0xFFFFFFFFFFFFFFFFFFFFFFFFFFFFFFFFFFFFFFFF AND PUSH20 0xFFFFFFFFFFFFFFFFFFFFFFFFFFFFFFFFFFFFFFFF AND DUP2 MSTORE PUSH1 0x20 ADD SWAP1 DUP2 MSTORE PUSH1 0x20 ADD PUSH1 0x0 KECCAK256 SLOAD PUSH1 0xB PUSH1 0x0 DUP4 PUSH20 0xFFFFFFFFFFFFFFFFFFFFFFFFFFFFFFFFFFFFFFFF AND PUSH20 0xFFFFFFFFFFFFFFFFFFFFFFFFFFFFFFFFFFFFFFFF AND DUP2 MSTORE PUSH1 0x20 ADD SWAP1 DUP2 MSTORE PUSH1 0x20 ADD PUSH1 0x0 KECCAK256 PUSH1 0x0 DUP7 DUP2 MSTORE PUSH1 0x20 ADD SWAP1 DUP2 MSTORE PUSH1 0x20 ADD PUSH1 0x0 KECCAK256 DUP2 SWAP1 SSTORE POP PUSH1 0x1 PUSH1 0xC PUSH1 0x0 DUP5 PUSH20 0xFFFFFFFFFFFFFFFFFFFFFFFFFFFFFFFFFFFFFFFF AND PUSH20 0xFFFFFFFFFFFFFFFFFFFFFFFFFFFFFFFFFFFFFFFF AND DUP2 MSTORE PUSH1 0x20 ADD SWAP1 DUP2 MSTORE PUSH1 0x20 ADD PUSH1 0x0 KECCAK256 PUSH1 0x0 DUP3 DUP3 SLOAD PUSH2 0x9B7 SWAP2 SWAP1 PUSH2 0x3B94 JUMP JUMPDEST SWAP3 POP POP DUP2 SWAP1 SSTORE POP PUSH2 0xBD8 JUMP JUMPDEST PUSH1 0x40 MLOAD DUP1 PUSH1 0xE0 ADD PUSH1 0x40 MSTORE DUP1 DUP3 PUSH20 0xFFFFFFFFFFFFFFFFFFFFFFFFFFFFFFFFFFFFFFFF AND DUP2 MSTORE PUSH1 0x20 ADD PUSH1 0x8 SLOAD PUSH2 0x1388 PUSH2 0x9FA SWAP2 SWAP1 PUSH2 0x3B52 JUMP JUMPDEST DUP2 MSTORE PUSH1 0x20 ADD DUP5 DUP2 MSTORE PUSH1 0x20 ADD TIMESTAMP DUP2 MSTORE PUSH1 0x20 ADD DUP6 DUP2 MSTORE PUSH1 0x20 ADD PUSH1 0x9 PUSH1 0x0 DUP6 PUSH20 0xFFFFFFFFFFFFFFFFFFFFFFFFFFFFFFFFFFFFFFFF AND PUSH20 0xFFFFFFFFFFFFFFFFFFFFFFFFFFFFFFFFFFFFFFFF AND DUP2 MSTORE PUSH1 0x20 ADD SWAP1 DUP2 MSTORE PUSH1 0x20 ADD PUSH1 0x0 KECCAK256 PUSH1 0x0 DUP5 PUSH20 0xFFFFFFFFFFFFFFFFFFFFFFFFFFFFFFFFFFFFFFFF AND PUSH20 0xFFFFFFFFFFFFFFFFFFFFFFFFFFFFFFFFFFFFFFFF AND DUP2 MSTORE PUSH1 0x20 ADD SWAP1 DUP2 MSTORE PUSH1 0x20 ADD PUSH1 0x0 KECCAK256 PUSH1 0x0 DUP8 DUP2 MSTORE PUSH1 0x20 ADD SWAP1 DUP2 MSTORE PUSH1 0x20 ADD PUSH1 0x0 KECCAK256 PUSH1 0x5 ADD SLOAD DUP2 MSTORE PUSH1 0x20 ADD PUSH1 0x1 ISZERO ISZERO DUP2 MSTORE POP PUSH1 0x9 PUSH1 0x0 DUP5 PUSH20 0xFFFFFFFFFFFFFFFFFFFFFFFFFFFFFFFFFFFFFFFF AND PUSH20 0xFFFFFFFFFFFFFFFFFFFFFFFFFFFFFFFFFFFFFFFF AND DUP2 MSTORE PUSH1 0x20 ADD SWAP1 DUP2 MSTORE PUSH1 0x20 ADD PUSH1 0x0 KECCAK256 PUSH1 0x0 DUP4 PUSH20 0xFFFFFFFFFFFFFFFFFFFFFFFFFFFFFFFFFFFFFFFF AND PUSH20 0xFFFFFFFFFFFFFFFFFFFFFFFFFFFFFFFFFFFFFFFF AND DUP2 MSTORE PUSH1 0x20 ADD SWAP1 DUP2 MSTORE PUSH1 0x20 ADD PUSH1 0x0 KECCAK256 PUSH1 0x0 DUP7 DUP2 MSTORE PUSH1 0x20 ADD SWAP1 DUP2 MSTORE PUSH1 0x20 ADD PUSH1 0x0 KECCAK256 PUSH1 0x0 DUP3 ADD MLOAD DUP2 PUSH1 0x0 ADD PUSH1 0x0 PUSH2 0x100 EXP DUP2 SLOAD DUP2 PUSH20 0xFFFFFFFFFFFFFFFFFFFFFFFFFFFFFFFFFFFFFFFF MUL NOT AND SWAP1 DUP4 PUSH20 0xFFFFFFFFFFFFFFFFFFFFFFFFFFFFFFFFFFFFFFFF AND MUL OR SWAP1 SSTORE POP PUSH1 0x20 DUP3 ADD MLOAD DUP2 PUSH1 0x1 ADD SSTORE PUSH1 0x40 DUP3 ADD MLOAD DUP2 PUSH1 0x2 ADD SSTORE PUSH1 0x60 DUP3 ADD MLOAD DUP2 PUSH1 0x3 ADD SSTORE PUSH1 0x80 DUP3 ADD MLOAD DUP2 PUSH1 0x4 ADD SSTORE PUSH1 0xA0 DUP3 ADD MLOAD DUP2 PUSH1 0x5 ADD SSTORE PUSH1 0xC0 DUP3 ADD MLOAD DUP2 PUSH1 0x6 ADD PUSH1 0x0 PUSH2 0x100 EXP DUP2 SLOAD DUP2 PUSH1 0xFF MUL NOT AND SWAP1 DUP4 ISZERO ISZERO MUL OR SWAP1 SSTORE POP SWAP1 POP POP JUMPDEST DUP1 PUSH20 0xFFFFFFFFFFFFFFFFFFFFFFFFFFFFFFFFFFFFFFFF AND PUSH4 0xB88D4FDE DUP4 ADDRESS DUP8 PUSH1 0x40 MLOAD DUP5 PUSH4 0xFFFFFFFF AND PUSH1 0xE0 SHL DUP2 MSTORE PUSH1 0x4 ADD PUSH2 0xC15 SWAP4 SWAP3 SWAP2 SWAP1 PUSH2 0x3BFF JUMP JUMPDEST PUSH1 0x0 PUSH1 0x40 MLOAD DUP1 DUP4 SUB DUP2 PUSH1 0x0 DUP8 DUP1 EXTCODESIZE ISZERO DUP1 ISZERO PUSH2 0xC2F JUMPI PUSH1 0x0 DUP1 REVERT JUMPDEST POP GAS CALL ISZERO DUP1 ISZERO PUSH2 0xC43 JUMPI RETURNDATASIZE PUSH1 0x0 DUP1 RETURNDATACOPY RETURNDATASIZE PUSH1 0x0 REVERT JUMPDEST POP POP POP POP PUSH2 0x224F JUMP JUMPDEST PUSH1 0x1E DUP4 SUB PUSH2 0x138E JUMPI PUSH2 0xC5E PUSH1 0x2 PUSH2 0x3180 JUMP JUMPDEST PUSH2 0x2EE PUSH2 0xC6B PUSH1 0x2 PUSH2 0x3196 JUMP JUMPDEST GT ISZERO PUSH2 0xCAC JUMPI PUSH1 0x40 MLOAD PUSH32 0x8C379A000000000000000000000000000000000000000000000000000000000 DUP2 MSTORE PUSH1 0x4 ADD PUSH2 0xCA3 SWAP1 PUSH2 0x3C95 JUMP JUMPDEST PUSH1 0x40 MLOAD DUP1 SWAP2 SUB SWAP1 REVERT JUMPDEST PUSH1 0x0 PUSH1 0x9 PUSH1 0x0 DUP5 PUSH20 0xFFFFFFFFFFFFFFFFFFFFFFFFFFFFFFFFFFFFFFFF AND PUSH20 0xFFFFFFFFFFFFFFFFFFFFFFFFFFFFFFFFFFFFFFFF AND DUP2 MSTORE PUSH1 0x20 ADD SWAP1 DUP2 MSTORE PUSH1 0x20 ADD PUSH1 0x0 KECCAK256 PUSH1 0x0 DUP4 PUSH20 0xFFFFFFFFFFFFFFFFFFFFFFFFFFFFFFFFFFFFFFFF AND PUSH20 0xFFFFFFFFFFFFFFFFFFFFFFFFFFFFFFFFFFFFFFFF AND DUP2 MSTORE PUSH1 0x20 ADD SWAP1 DUP2 MSTORE PUSH1 0x20 ADD PUSH1 0x0 KECCAK256 PUSH1 0x0 DUP7 DUP2 MSTORE PUSH1 0x20 ADD SWAP1 DUP2 MSTORE PUSH1 0x20 ADD PUSH1 0x0 KECCAK256 PUSH1 0x4 ADD SLOAD SUB PUSH2 0x1105 JUMPI PUSH1 0x40 MLOAD DUP1 PUSH1 0xE0 ADD PUSH1 0x40 MSTORE DUP1 DUP3 PUSH20 0xFFFFFFFFFFFFFFFFFFFFFFFFFFFFFFFFFFFFFFFF AND DUP2 MSTORE PUSH1 0x20 ADD PUSH1 0x8 SLOAD PUSH2 0x1D4C PUSH2 0xD7B SWAP2 SWAP1 PUSH2 0x3B52 JUMP JUMPDEST DUP2 MSTORE PUSH1 0x20 ADD DUP5 DUP2 MSTORE PUSH1 0x20 ADD TIMESTAMP DUP2 MSTORE PUSH1 0x20 ADD DUP6 DUP2 MSTORE PUSH1 0x20 ADD PUSH1 0xC PUSH1 0x0 DUP6 PUSH20 0xFFFFFFFFFFFFFFFFFFFFFFFFFFFFFFFFFFFFFFFF AND PUSH20 0xFFFFFFFFFFFFFFFFFFFFFFFFFFFFFFFFFFFFFFFF AND DUP2 MSTORE PUSH1 0x20 ADD SWAP1 DUP2 MSTORE PUSH1 0x20 ADD PUSH1 0x0 KECCAK256 SLOAD DUP2 MSTORE PUSH1 0x20 ADD PUSH1 0x1 ISZERO ISZERO DUP2 MSTORE POP PUSH1 0x9 PUSH1 0x0 DUP5 PUSH20 0xFFFFFFFFFFFFFFFFFFFFFFFFFFFFFFFFFFFFFFFF AND PUSH20 0xFFFFFFFFFFFFFFFFFFFFFFFFFFFFFFFFFFFFFFFF AND DUP2 MSTORE PUSH1 0x20 ADD SWAP1 DUP2 MSTORE PUSH1 0x20 ADD PUSH1 0x0 KECCAK256 PUSH1 0x0 DUP4 PUSH20 0xFFFFFFFFFFFFFFFFFFFFFFFFFFFFFFFFFFFFFFFF AND PUSH20 0xFFFFFFFFFFFFFFFFFFFFFFFFFFFFFFFFFFFFFFFF AND DUP2 MSTORE PUSH1 0x20 ADD SWAP1 DUP2 MSTORE PUSH1 0x20 ADD PUSH1 0x0 KECCAK256 PUSH1 0x0 DUP7 DUP2 MSTORE PUSH1 0x20 ADD SWAP1 DUP2 MSTORE PUSH1 0x20 ADD PUSH1 0x0 KECCAK256 PUSH1 0x0 DUP3 ADD MLOAD DUP2 PUSH1 0x0 ADD PUSH1 0x0 PUSH2 0x100 EXP DUP2 SLOAD DUP2 PUSH20 0xFFFFFFFFFFFFFFFFFFFFFFFFFFFFFFFFFFFFFFFF MUL NOT AND SWAP1 DUP4 PUSH20 0xFFFFFFFFFFFFFFFFFFFFFFFFFFFFFFFFFFFFFFFF AND MUL OR SWAP1 SSTORE POP PUSH1 0x20 DUP3 ADD MLOAD DUP2 PUSH1 0x1 ADD SSTORE PUSH1 0x40 DUP3 ADD MLOAD DUP2 PUSH1 0x2 ADD SSTORE PUSH1 0x60 DUP3 ADD MLOAD DUP2 PUSH1 0x3 ADD SSTORE PUSH1 0x80 DUP3 ADD MLOAD DUP2 PUSH1 0x4 ADD SSTORE PUSH1 0xA0 DUP3 ADD MLOAD DUP2 PUSH1 0x5 ADD SSTORE PUSH1 0xC0 DUP3 ADD MLOAD DUP2 PUSH1 0x6 ADD PUSH1 0x0 PUSH2 0x100 EXP DUP2 SLOAD DUP2 PUSH1 0xFF MUL NOT AND SWAP1 DUP4 ISZERO ISZERO MUL OR SWAP1 SSTORE POP SWAP1 POP POP PUSH1 0x40 MLOAD DUP1 PUSH1 0x40 ADD PUSH1 0x40 MSTORE DUP1 DUP6 DUP2 MSTORE PUSH1 0x20 ADD DUP3 PUSH20 0xFFFFFFFFFFFFFFFFFFFFFFFFFFFFFFFFFFFFFFFF AND DUP2 MSTORE POP PUSH1 0xA PUSH1 0x0 DUP5 PUSH20 0xFFFFFFFFFFFFFFFFFFFFFFFFFFFFFFFFFFFFFFFF AND PUSH20 0xFFFFFFFFFFFFFFFFFFFFFFFFFFFFFFFFFFFFFFFF AND DUP2 MSTORE PUSH1 0x20 ADD SWAP1 DUP2 MSTORE PUSH1 0x20 ADD PUSH1 0x0 KECCAK256 PUSH1 0x0 PUSH1 0xC PUSH1 0x0 DUP7 PUSH20 0xFFFFFFFFFFFFFFFFFFFFFFFFFFFFFFFFFFFFFFFF AND PUSH20 0xFFFFFFFFFFFFFFFFFFFFFFFFFFFFFFFFFFFFFFFF AND DUP2 MSTORE PUSH1 0x20 ADD SWAP1 DUP2 MSTORE PUSH1 0x20 ADD PUSH1 0x0 KECCAK256 SLOAD DUP2 MSTORE PUSH1 0x20 ADD SWAP1 DUP2 MSTORE PUSH1 0x20 ADD PUSH1 0x0 KECCAK256 PUSH1 0x0 DUP3 ADD MLOAD DUP2 PUSH1 0x0 ADD SSTORE PUSH1 0x20 DUP3 ADD MLOAD DUP2 PUSH1 0x1 ADD PUSH1 0x0 PUSH2 0x100 EXP DUP2 SLOAD DUP2 PUSH20 0xFFFFFFFFFFFFFFFFFFFFFFFFFFFFFFFFFFFFFFFF MUL NOT AND SWAP1 DUP4 PUSH20 0xFFFFFFFFFFFFFFFFFFFFFFFFFFFFFFFFFFFFFFFF AND MUL OR SWAP1 SSTORE POP SWAP1 POP POP PUSH1 0xC PUSH1 0x0 DUP4 PUSH20 0xFFFFFFFFFFFFFFFFFFFFFFFFFFFFFFFFFFFFFFFF AND PUSH20 0xFFFFFFFFFFFFFFFFFFFFFFFFFFFFFFFFFFFFFFFF AND DUP2 MSTORE PUSH1 0x20 ADD SWAP1 DUP2 MSTORE PUSH1 0x20 ADD PUSH1 0x0 KECCAK256 SLOAD PUSH1 0xB PUSH1 0x0 DUP4 PUSH20 0xFFFFFFFFFFFFFFFFFFFFFFFFFFFFFFFFFFFFFFFF AND PUSH20 0xFFFFFFFFFFFFFFFFFFFFFFFFFFFFFFFFFFFFFFFF AND DUP2 MSTORE PUSH1 0x20 ADD SWAP1 DUP2 MSTORE PUSH1 0x20 ADD PUSH1 0x0 KECCAK256 PUSH1 0x0 DUP7 DUP2 MSTORE PUSH1 0x20 ADD SWAP1 DUP2 MSTORE PUSH1 0x20 ADD PUSH1 0x0 KECCAK256 DUP2 SWAP1 SSTORE POP PUSH1 0x1 PUSH1 0xC PUSH1 0x0 DUP5 PUSH20 0xFFFFFFFFFFFFFFFFFFFFFFFFFFFFFFFFFFFFFFFF AND PUSH20 0xFFFFFFFFFFFFFFFFFFFFFFFFFFFFFFFFFFFFFFFF AND DUP2 MSTORE PUSH1 0x20 ADD SWAP1 DUP2 MSTORE PUSH1 0x20 ADD PUSH1 0x0 KECCAK256 PUSH1 0x0 DUP3 DUP3 SLOAD PUSH2 0x10F9 SWAP2 SWAP1 PUSH2 0x3B94 JUMP JUMPDEST SWAP3 POP POP DUP2 SWAP1 SSTORE POP PUSH2 0x131A JUMP JUMPDEST PUSH1 0x40 MLOAD DUP1 PUSH1 0xE0 ADD PUSH1 0x40 MSTORE DUP1 DUP3 PUSH20 0xFFFFFFFFFFFFFFFFFFFFFFFFFFFFFFFFFFFFFFFF AND DUP2 MSTORE PUSH1 0x20 ADD PUSH1 0x8 SLOAD PUSH2 0x1D4C PUSH2 0x113C SWAP2 SWAP1 PUSH2 0x3B52 JUMP JUMPDEST DUP2 MSTORE PUSH1 0x20 ADD DUP5 DUP2 MSTORE PUSH1 0x20 ADD TIMESTAMP DUP2 MSTORE PUSH1 0x20 ADD DUP6 DUP2 MSTORE PUSH1 0x20 ADD PUSH1 0x9 PUSH1 0x0 DUP6 PUSH20 0xFFFFFFFFFFFFFFFFFFFFFFFFFFFFFFFFFFFFFFFF AND PUSH20 0xFFFFFFFFFFFFFFFFFFFFFFFFFFFFFFFFFFFFFFFF AND DUP2 MSTORE PUSH1 0x20 ADD SWAP1 DUP2 MSTORE PUSH1 0x20 ADD PUSH1 0x0 KECCAK256 PUSH1 0x0 DUP5 PUSH20 0xFFFFFFFFFFFFFFFFFFFFFFFFFFFFFFFFFFFFFFFF AND PUSH20 0xFFFFFFFFFFFFFFFFFFFFFFFFFFFFFFFFFFFFFFFF AND DUP2 MSTORE PUSH1 0x20 ADD SWAP1 DUP2 MSTORE PUSH1 0x20 ADD PUSH1 0x0 KECCAK256 PUSH1 0x0 DUP8 DUP2 MSTORE PUSH1 0x20 ADD SWAP1 DUP2 MSTORE PUSH1 0x20 ADD PUSH1 0x0 KECCAK256 PUSH1 0x5 ADD SLOAD DUP2 MSTORE PUSH1 0x20 ADD PUSH1 0x1 ISZERO ISZERO DUP2 MSTORE POP PUSH1 0x9 PUSH1 0x0 DUP5 PUSH20 0xFFFFFFFFFFFFFFFFFFFFFFFFFFFFFFFFFFFFFFFF AND PUSH20 0xFFFFFFFFFFFFFFFFFFFFFFFFFFFFFFFFFFFFFFFF AND DUP2 MSTORE PUSH1 0x20 ADD SWAP1 DUP2 MSTORE PUSH1 0x20 ADD PUSH1 0x0 KECCAK256 PUSH1 0x0 DUP4 PUSH20 0xFFFFFFFFFFFFFFFFFFFFFFFFFFFFFFFFFFFFFFFF AND PUSH20 0xFFFFFFFFFFFFFFFFFFFFFFFFFFFFFFFFFFFFFFFF AND DUP2 MSTORE PUSH1 0x20 ADD SWAP1 DUP2 MSTORE PUSH1 0x20 ADD PUSH1 0x0 KECCAK256 PUSH1 0x0 DUP7 DUP2 MSTORE PUSH1 0x20 ADD SWAP1 DUP2 MSTORE PUSH1 0x20 ADD PUSH1 0x0 KECCAK256 PUSH1 0x0 DUP3 ADD MLOAD DUP2 PUSH1 0x0 ADD PUSH1 0x0 PUSH2 0x100 EXP DUP2 SLOAD DUP2 PUSH20 0xFFFFFFFFFFFFFFFFFFFFFFFFFFFFFFFFFFFFFFFF MUL NOT AND SWAP1 DUP4 PUSH20 0xFFFFFFFFFFFFFFFFFFFFFFFFFFFFFFFFFFFFFFFF AND MUL OR SWAP1 SSTORE POP PUSH1 0x20 DUP3 ADD MLOAD DUP2 PUSH1 0x1 ADD SSTORE PUSH1 0x40 DUP3 ADD MLOAD DUP2 PUSH1 0x2 ADD SSTORE PUSH1 0x60 DUP3 ADD MLOAD DUP2 PUSH1 0x3 ADD SSTORE PUSH1 0x80 DUP3 ADD MLOAD DUP2 PUSH1 0x4 ADD SSTORE PUSH1 0xA0 DUP3 ADD MLOAD DUP2 PUSH1 0x5 ADD SSTORE PUSH1 0xC0 DUP3 ADD MLOAD DUP2 PUSH1 0x6 ADD PUSH1 0x0 PUSH2 0x100 EXP DUP2 SLOAD DUP2 PUSH1 0xFF MUL NOT AND SWAP1 DUP4 ISZERO ISZERO MUL OR SWAP1 SSTORE POP SWAP1 POP POP JUMPDEST DUP1 PUSH20 0xFFFFFFFFFFFFFFFFFFFFFFFFFFFFFFFFFFFFFFFF AND PUSH4 0xB88D4FDE DUP4 ADDRESS DUP8 PUSH1 0x40 MLOAD DUP5 PUSH4 0xFFFFFFFF AND PUSH1 0xE0 SHL DUP2 MSTORE PUSH1 0x4 ADD PUSH2 0x1357 SWAP4 SWAP3 SWAP2 SWAP1 PUSH2 0x3BFF JUMP JUMPDEST PUSH1 0x0 PUSH1 0x40 MLOAD DUP1 DUP4 SUB DUP2 PUSH1 0x0 DUP8 DUP1 EXTCODESIZE ISZERO DUP1 ISZERO PUSH2 0x1371 JUMPI PUSH1 0x0 DUP1 REVERT JUMPDEST POP GAS CALL ISZERO DUP1 ISZERO PUSH2 0x1385 JUMPI RETURNDATASIZE PUSH1 0x0 DUP1 RETURNDATACOPY RETURNDATASIZE PUSH1 0x0 REVERT JUMPDEST POP POP POP POP PUSH2 0x224E JUMP JUMPDEST PUSH1 0x3C DUP4 SUB PUSH2 0x1AD0 JUMPI PUSH2 0x13A0 PUSH1 0x3 PUSH2 0x3180 JUMP JUMPDEST PUSH2 0x1F4 PUSH2 0x13AD PUSH1 0x3 PUSH2 0x3196 JUMP JUMPDEST GT ISZERO PUSH2 0x13EE JUMPI PUSH1 0x40 MLOAD PUSH32 0x8C379A000000000000000000000000000000000000000000000000000000000 DUP2 MSTORE PUSH1 0x4 ADD PUSH2 0x13E5 SWAP1 PUSH2 0x3D01 JUMP JUMPDEST PUSH1 0x40 MLOAD DUP1 SWAP2 SUB SWAP1 REVERT JUMPDEST PUSH1 0x0 PUSH1 0x9 PUSH1 0x0 DUP5 PUSH20 0xFFFFFFFFFFFFFFFFFFFFFFFFFFFFFFFFFFFFFFFF AND PUSH20 0xFFFFFFFFFFFFFFFFFFFFFFFFFFFFFFFFFFFFFFFF AND DUP2 MSTORE PUSH1 0x20 ADD SWAP1 DUP2 MSTORE PUSH1 0x20 ADD PUSH1 0x0 KECCAK256 PUSH1 0x0 DUP4 PUSH20 0xFFFFFFFFFFFFFFFFFFFFFFFFFFFFFFFFFFFFFFFF AND PUSH20 0xFFFFFFFFFFFFFFFFFFFFFFFFFFFFFFFFFFFFFFFF AND DUP2 MSTORE PUSH1 0x20 ADD SWAP1 DUP2 MSTORE PUSH1 0x20 ADD PUSH1 0x0 KECCAK256 PUSH1 0x0 DUP7 DUP2 MSTORE PUSH1 0x20 ADD SWAP1 DUP2 MSTORE PUSH1 0x20 ADD PUSH1 0x0 KECCAK256 PUSH1 0x4 ADD SLOAD SUB PUSH2 0x1847 JUMPI PUSH1 0x40 MLOAD DUP1 PUSH1 0xE0 ADD PUSH1 0x40 MSTORE DUP1 DUP3 PUSH20 0xFFFFFFFFFFFFFFFFFFFFFFFFFFFFFFFFFFFFFFFF AND DUP2 MSTORE PUSH1 0x20 ADD PUSH1 0x8 SLOAD PUSH2 0x30D4 PUSH2 0x14BD SWAP2 SWAP1 PUSH2 0x3B52 JUMP JUMPDEST DUP2 MSTORE PUSH1 0x20 ADD DUP5 DUP2 MSTORE PUSH1 0x20 ADD TIMESTAMP DUP2 MSTORE PUSH1 0x20 ADD DUP6 DUP2 MSTORE PUSH1 0x20 ADD PUSH1 0xC PUSH1 0x0 DUP6 PUSH20 0xFFFFFFFFFFFFFFFFFFFFFFFFFFFFFFFFFFFFFFFF AND PUSH20 0xFFFFFFFFFFFFFFFFFFFFFFFFFFFFFFFFFFFFFFFF AND DUP2 MSTORE PUSH1 0x20 ADD SWAP1 DUP2 MSTORE PUSH1 0x20 ADD PUSH1 0x0 KECCAK256 SLOAD DUP2 MSTORE PUSH1 0x20 ADD PUSH1 0x1 ISZERO ISZERO DUP2 MSTORE POP PUSH1 0x9 PUSH1 0x0 DUP5 PUSH20 0xFFFFFFFFFFFFFFFFFFFFFFFFFFFFFFFFFFFFFFFF AND PUSH20 0xFFFFFFFFFFFFFFFFFFFFFFFFFFFFFFFFFFFFFFFF AND DUP2 MSTORE PUSH1 0x20 ADD SWAP1 DUP2 MSTORE PUSH1 0x20 ADD PUSH1 0x0 KECCAK256 PUSH1 0x0 DUP4 PUSH20 0xFFFFFFFFFFFFFFFFFFFFFFFFFFFFFFFFFFFFFFFF AND PUSH20 0xFFFFFFFFFFFFFFFFFFFFFFFFFFFFFFFFFFFFFFFF AND DUP2 MSTORE PUSH1 0x20 ADD SWAP1 DUP2 MSTORE PUSH1 0x20 ADD PUSH1 0x0 KECCAK256 PUSH1 0x0 DUP7 DUP2 MSTORE PUSH1 0x20 ADD SWAP1 DUP2 MSTORE PUSH1 0x20 ADD PUSH1 0x0 KECCAK256 PUSH1 0x0 DUP3 ADD MLOAD DUP2 PUSH1 0x0 ADD PUSH1 0x0 PUSH2 0x100 EXP DUP2 SLOAD DUP2 PUSH20 0xFFFFFFFFFFFFFFFFFFFFFFFFFFFFFFFFFFFFFFFF MUL NOT AND SWAP1 DUP4 PUSH20 0xFFFFFFFFFFFFFFFFFFFFFFFFFFFFFFFFFFFFFFFF AND MUL OR SWAP1 SSTORE POP PUSH1 0x20 DUP3 ADD MLOAD DUP2 PUSH1 0x1 ADD SSTORE PUSH1 0x40 DUP3 ADD MLOAD DUP2 PUSH1 0x2 ADD SSTORE PUSH1 0x60 DUP3 ADD MLOAD DUP2 PUSH1 0x3 ADD SSTORE PUSH1 0x80 DUP3 ADD MLOAD DUP2 PUSH1 0x4 ADD SSTORE PUSH1 0xA0 DUP3 ADD MLOAD DUP2 PUSH1 0x5 ADD SSTORE PUSH1 0xC0 DUP3 ADD MLOAD DUP2 PUSH1 0x6 ADD PUSH1 0x0 PUSH2 0x100 EXP DUP2 SLOAD DUP2 PUSH1 0xFF MUL NOT AND SWAP1 DUP4 ISZERO ISZERO MUL OR SWAP1 SSTORE POP SWAP1 POP POP PUSH1 0x40 MLOAD DUP1 PUSH1 0x40 ADD PUSH1 0x40 MSTORE DUP1 DUP6 DUP2 MSTORE PUSH1 0x20 ADD DUP3 PUSH20 0xFFFFFFFFFFFFFFFFFFFFFFFFFFFFFFFFFFFFFFFF AND DUP2 MSTORE POP PUSH1 0xA PUSH1 0x0 DUP5 PUSH20 0xFFFFFFFFFFFFFFFFFFFFFFFFFFFFFFFFFFFFFFFF AND PUSH20 0xFFFFFFFFFFFFFFFFFFFFFFFFFFFFFFFFFFFFFFFF AND DUP2 MSTORE PUSH1 0x20 ADD SWAP1 DUP2 MSTORE PUSH1 0x20 ADD PUSH1 0x0 KECCAK256 PUSH1 0x0 PUSH1 0xC PUSH1 0x0 DUP7 PUSH20 0xFFFFFFFFFFFFFFFFFFFFFFFFFFFFFFFFFFFFFFFF AND PUSH20 0xFFFFFFFFFFFFFFFFFFFFFFFFFFFFFFFFFFFFFFFF AND DUP2 MSTORE PUSH1 0x20 ADD SWAP1 DUP2 MSTORE PUSH1 0x20 ADD PUSH1 0x0 KECCAK256 SLOAD DUP2 MSTORE PUSH1 0x20 ADD SWAP1 DUP2 MSTORE PUSH1 0x20 ADD PUSH1 0x0 KECCAK256 PUSH1 0x0 DUP3 ADD MLOAD DUP2 PUSH1 0x0 ADD SSTORE PUSH1 0x20 DUP3 ADD MLOAD DUP2 PUSH1 0x1 ADD PUSH1 0x0 PUSH2 0x100 EXP DUP2 SLOAD DUP2 PUSH20 0xFFFFFFFFFFFFFFFFFFFFFFFFFFFFFFFFFFFFFFFF MUL NOT AND SWAP1 DUP4 PUSH20 0xFFFFFFFFFFFFFFFFFFFFFFFFFFFFFFFFFFFFFFFF AND MUL OR SWAP1 SSTORE POP SWAP1 POP POP PUSH1 0xC PUSH1 0x0 DUP4 PUSH20 0xFFFFFFFFFFFFFFFFFFFFFFFFFFFFFFFFFFFFFFFF AND PUSH20 0xFFFFFFFFFFFFFFFFFFFFFFFFFFFFFFFFFFFFFFFF AND DUP2 MSTORE PUSH1 0x20 ADD SWAP1 DUP2 MSTORE PUSH1 0x20 ADD PUSH1 0x0 KECCAK256 SLOAD PUSH1 0xB PUSH1 0x0 DUP4 PUSH20 0xFFFFFFFFFFFFFFFFFFFFFFFFFFFFFFFFFFFFFFFF AND PUSH20 0xFFFFFFFFFFFFFFFFFFFFFFFFFFFFFFFFFFFFFFFF AND DUP2 MSTORE PUSH1 0x20 ADD SWAP1 DUP2 MSTORE PUSH1 0x20 ADD PUSH1 0x0 KECCAK256 PUSH1 0x0 DUP7 DUP2 MSTORE PUSH1 0x20 ADD SWAP1 DUP2 MSTORE PUSH1 0x20 ADD PUSH1 0x0 KECCAK256 DUP2 SWAP1 SSTORE POP PUSH1 0x1 PUSH1 0xC PUSH1 0x0 DUP5 PUSH20 0xFFFFFFFFFFFFFFFFFFFFFFFFFFFFFFFFFFFFFFFF AND PUSH20 0xFFFFFFFFFFFFFFFFFFFFFFFFFFFFFFFFFFFFFFFF AND DUP2 MSTORE PUSH1 0x20 ADD SWAP1 DUP2 MSTORE PUSH1 0x20 ADD PUSH1 0x0 KECCAK256 PUSH1 0x0 DUP3 DUP3 SLOAD PUSH2 0x183B SWAP2 SWAP1 PUSH2 0x3B94 JUMP JUMPDEST SWAP3 POP POP DUP2 SWAP1 SSTORE POP PUSH2 0x1A5C JUMP JUMPDEST PUSH1 0x40 MLOAD DUP1 PUSH1 0xE0 ADD PUSH1 0x40 MSTORE DUP1 DUP3 PUSH20 0xFFFFFFFFFFFFFFFFFFFFFFFFFFFFFFFFFFFFFFFF AND DUP2 MSTORE PUSH1 0x20 ADD PUSH1 0x8 SLOAD PUSH2 0x30D4 PUSH2 0x187E SWAP2 SWAP1 PUSH2 0x3B52 JUMP JUMPDEST DUP2 MSTORE PUSH1 0x20 ADD DUP5 DUP2 MSTORE PUSH1 0x20 ADD TIMESTAMP DUP2 MSTORE PUSH1 0x20 ADD DUP6 DUP2 MSTORE PUSH1 0x20 ADD PUSH1 0x9 PUSH1 0x0 DUP6 PUSH20 0xFFFFFFFFFFFFFFFFFFFFFFFFFFFFFFFFFFFFFFFF AND PUSH20 0xFFFFFFFFFFFFFFFFFFFFFFFFFFFFFFFFFFFFFFFF AND DUP2 MSTORE PUSH1 0x20 ADD SWAP1 DUP2 MSTORE PUSH1 0x20 ADD PUSH1 0x0 KECCAK256 PUSH1 0x0 DUP5 PUSH20 0xFFFFFFFFFFFFFFFFFFFFFFFFFFFFFFFFFFFFFFFF AND PUSH20 0xFFFFFFFFFFFFFFFFFFFFFFFFFFFFFFFFFFFFFFFF AND DUP2 MSTORE PUSH1 0x20 ADD SWAP1 DUP2 MSTORE PUSH1 0x20 ADD PUSH1 0x0 KECCAK256 PUSH1 0x0 DUP8 DUP2 MSTORE PUSH1 0x20 ADD SWAP1 DUP2 MSTORE PUSH1 0x20 ADD PUSH1 0x0 KECCAK256 PUSH1 0x5 ADD SLOAD DUP2 MSTORE PUSH1 0x20 ADD PUSH1 0x1 ISZERO ISZERO DUP2 MSTORE POP PUSH1 0x9 PUSH1 0x0 DUP5 PUSH20 0xFFFFFFFFFFFFFFFFFFFFFFFFFFFFFFFFFFFFFFFF AND PUSH20 0xFFFFFFFFFFFFFFFFFFFFFFFFFFFFFFFFFFFFFFFF AND DUP2 MSTORE PUSH1 0x20 ADD SWAP1 DUP2 MSTORE PUSH1 0x20 ADD PUSH1 0x0 KECCAK256 PUSH1 0x0 DUP4 PUSH20 0xFFFFFFFFFFFFFFFFFFFFFFFFFFFFFFFFFFFFFFFF AND PUSH20 0xFFFFFFFFFFFFFFFFFFFFFFFFFFFFFFFFFFFFFFFF AND DUP2 MSTORE PUSH1 0x20 ADD SWAP1 DUP2 MSTORE PUSH1 0x20 ADD PUSH1 0x0 KECCAK256 PUSH1 0x0 DUP7 DUP2 MSTORE PUSH1 0x20 ADD SWAP1 DUP2 MSTORE PUSH1 0x20 ADD PUSH1 0x0 KECCAK256 PUSH1 0x0 DUP3 ADD MLOAD DUP2 PUSH1 0x0 ADD PUSH1 0x0 PUSH2 0x100 EXP DUP2 SLOAD DUP2 PUSH20 0xFFFFFFFFFFFFFFFFFFFFFFFFFFFFFFFFFFFFFFFF MUL NOT AND SWAP1 DUP4 PUSH20 0xFFFFFFFFFFFFFFFFFFFFFFFFFFFFFFFFFFFFFFFF AND MUL OR SWAP1 SSTORE POP PUSH1 0x20 DUP3 ADD MLOAD DUP2 PUSH1 0x1 ADD SSTORE PUSH1 0x40 DUP3 ADD MLOAD DUP2 PUSH1 0x2 ADD SSTORE PUSH1 0x60 DUP3 ADD MLOAD DUP2 PUSH1 0x3 ADD SSTORE PUSH1 0x80 DUP3 ADD MLOAD DUP2 PUSH1 0x4 ADD SSTORE PUSH1 0xA0 DUP3 ADD MLOAD DUP2 PUSH1 0x5 ADD SSTORE PUSH1 0xC0 DUP3 ADD MLOAD DUP2 PUSH1 0x6 ADD PUSH1 0x0 PUSH2 0x100 EXP DUP2 SLOAD DUP2 PUSH1 0xFF MUL NOT AND SWAP1 DUP4 ISZERO ISZERO MUL OR SWAP1 SSTORE POP SWAP1 POP POP JUMPDEST DUP1 PUSH20 0xFFFFFFFFFFFFFFFFFFFFFFFFFFFFFFFFFFFFFFFF AND PUSH4 0xB88D4FDE DUP4 ADDRESS DUP8 PUSH1 0x40 MLOAD DUP5 PUSH4 0xFFFFFFFF AND PUSH1 0xE0 SHL DUP2 MSTORE PUSH1 0x4 ADD PUSH2 0x1A99 SWAP4 SWAP3 SWAP2 SWAP1 PUSH2 0x3BFF JUMP JUMPDEST PUSH1 0x0 PUSH1 0x40 MLOAD DUP1 DUP4 SUB DUP2 PUSH1 0x0 DUP8 DUP1 EXTCODESIZE ISZERO DUP1 ISZERO PUSH2 0x1AB3 JUMPI PUSH1 0x0 DUP1 REVERT JUMPDEST POP GAS CALL ISZERO DUP1 ISZERO PUSH2 0x1AC7 JUMPI RETURNDATASIZE PUSH1 0x0 DUP1 RETURNDATACOPY RETURNDATASIZE PUSH1 0x0 REVERT JUMPDEST POP POP POP POP PUSH2 0x224D JUMP JUMPDEST PUSH1 0x5A DUP4 SUB PUSH2 0x2211 JUMPI PUSH2 0x1AE2 PUSH1 0x4 PUSH2 0x3180 JUMP JUMPDEST PUSH1 0xFA PUSH2 0x1AEE PUSH1 0x4 PUSH2 0x3196 JUMP JUMPDEST GT ISZERO PUSH2 0x1B2F JUMPI PUSH1 0x40 MLOAD PUSH32 0x8C379A000000000000000000000000000000000000000000000000000000000 DUP2 MSTORE PUSH1 0x4 ADD PUSH2 0x1B26 SWAP1 PUSH2 0x3D6D JUMP JUMPDEST PUSH1 0x40 MLOAD DUP1 SWAP2 SUB SWAP1 REVERT JUMPDEST PUSH1 0x0 PUSH1 0x9 PUSH1 0x0 DUP5 PUSH20 0xFFFFFFFFFFFFFFFFFFFFFFFFFFFFFFFFFFFFFFFF AND PUSH20 0xFFFFFFFFFFFFFFFFFFFFFFFFFFFFFFFFFFFFFFFF AND DUP2 MSTORE PUSH1 0x20 ADD SWAP1 DUP2 MSTORE PUSH1 0x20 ADD PUSH1 0x0 KECCAK256 PUSH1 0x0 DUP4 PUSH20 0xFFFFFFFFFFFFFFFFFFFFFFFFFFFFFFFFFFFFFFFF AND PUSH20 0xFFFFFFFFFFFFFFFFFFFFFFFFFFFFFFFFFFFFFFFF AND DUP2 MSTORE PUSH1 0x20 ADD SWAP1 DUP2 MSTORE PUSH1 0x20 ADD PUSH1 0x0 KECCAK256 PUSH1 0x0 DUP7 DUP2 MSTORE PUSH1 0x20 ADD SWAP1 DUP2 MSTORE PUSH1 0x20 ADD PUSH1 0x0 KECCAK256 PUSH1 0x4 ADD SLOAD SUB PUSH2 0x1F88 JUMPI PUSH1 0x40 MLOAD DUP1 PUSH1 0xE0 ADD PUSH1 0x40 MSTORE DUP1 DUP3 PUSH20 0xFFFFFFFFFFFFFFFFFFFFFFFFFFFFFFFFFFFFFFFF AND DUP2 MSTORE PUSH1 0x20 ADD PUSH1 0x8 SLOAD PUSH2 0x445C PUSH2 0x1BFE SWAP2 SWAP1 PUSH2 0x3B52 JUMP JUMPDEST DUP2 MSTORE PUSH1 0x20 ADD DUP5 DUP2 MSTORE PUSH1 0x20 ADD TIMESTAMP DUP2 MSTORE PUSH1 0x20 ADD DUP6 DUP2 MSTORE PUSH1 0x20 ADD PUSH1 0xC PUSH1 0x0 DUP6 PUSH20 0xFFFFFFFFFFFFFFFFFFFFFFFFFFFFFFFFFFFFFFFF AND PUSH20 0xFFFFFFFFFFFFFFFFFFFFFFFFFFFFFFFFFFFFFFFF AND DUP2 MSTORE PUSH1 0x20 ADD SWAP1 DUP2 MSTORE PUSH1 0x20 ADD PUSH1 0x0 KECCAK256 SLOAD DUP2 MSTORE PUSH1 0x20 ADD PUSH1 0x1 ISZERO ISZERO DUP2 MSTORE POP PUSH1 0x9 PUSH1 0x0 DUP5 PUSH20 0xFFFFFFFFFFFFFFFFFFFFFFFFFFFFFFFFFFFFFFFF AND PUSH20 0xFFFFFFFFFFFFFFFFFFFFFFFFFFFFFFFFFFFFFFFF AND DUP2 MSTORE PUSH1 0x20 ADD SWAP1 DUP2 MSTORE PUSH1 0x20 ADD PUSH1 0x0 KECCAK256 PUSH1 0x0 DUP4 PUSH20 0xFFFFFFFFFFFFFFFFFFFFFFFFFFFFFFFFFFFFFFFF AND PUSH20 0xFFFFFFFFFFFFFFFFFFFFFFFFFFFFFFFFFFFFFFFF AND DUP2 MSTORE PUSH1 0x20 ADD SWAP1 DUP2 MSTORE PUSH1 0x20 ADD PUSH1 0x0 KECCAK256 PUSH1 0x0 DUP7 DUP2 MSTORE PUSH1 0x20 ADD SWAP1 DUP2 MSTORE PUSH1 0x20 ADD PUSH1 0x0 KECCAK256 PUSH1 0x0 DUP3 ADD MLOAD DUP2 PUSH1 0x0 ADD PUSH1 0x0 PUSH2 0x100 EXP DUP2 SLOAD DUP2 PUSH20 0xFFFFFFFFFFFFFFFFFFFFFFFFFFFFFFFFFFFFFFFF MUL NOT AND SWAP1 DUP4 PUSH20 0xFFFFFFFFFFFFFFFFFFFFFFFFFFFFFFFFFFFFFFFF AND MUL OR SWAP1 SSTORE POP PUSH1 0x20 DUP3 ADD MLOAD DUP2 PUSH1 0x1 ADD SSTORE PUSH1 0x40 DUP3 ADD MLOAD DUP2 PUSH1 0x2 ADD SSTORE PUSH1 0x60 DUP3 ADD MLOAD DUP2 PUSH1 0x3 ADD SSTORE PUSH1 0x80 DUP3 ADD MLOAD DUP2 PUSH1 0x4 ADD SSTORE PUSH1 0xA0 DUP3 ADD MLOAD DUP2 PUSH1 0x5 ADD SSTORE PUSH1 0xC0 DUP3 ADD MLOAD DUP2 PUSH1 0x6 ADD PUSH1 0x0 PUSH2 0x100 EXP DUP2 SLOAD DUP2 PUSH1 0xFF MUL NOT AND SWAP1 DUP4 ISZERO ISZERO MUL OR SWAP1 SSTORE POP SWAP1 POP POP PUSH1 0x40 MLOAD DUP1 PUSH1 0x40 ADD PUSH1 0x40 MSTORE DUP1 DUP6 DUP2 MSTORE PUSH1 0x20 ADD DUP3 PUSH20 0xFFFFFFFFFFFFFFFFFFFFFFFFFFFFFFFFFFFFFFFF AND DUP2 MSTORE POP PUSH1 0xA PUSH1 0x0 DUP5 PUSH20 0xFFFFFFFFFFFFFFFFFFFFFFFFFFFFFFFFFFFFFFFF AND PUSH20 0xFFFFFFFFFFFFFFFFFFFFFFFFFFFFFFFFFFFFFFFF AND DUP2 MSTORE PUSH1 0x20 ADD SWAP1 DUP2 MSTORE PUSH1 0x20 ADD PUSH1 0x0 KECCAK256 PUSH1 0x0 PUSH1 0xC PUSH1 0x0 DUP7 PUSH20 0xFFFFFFFFFFFFFFFFFFFFFFFFFFFFFFFFFFFFFFFF AND PUSH20 0xFFFFFFFFFFFFFFFFFFFFFFFFFFFFFFFFFFFFFFFF AND DUP2 MSTORE PUSH1 0x20 ADD SWAP1 DUP2 MSTORE PUSH1 0x20 ADD PUSH1 0x0 KECCAK256 SLOAD DUP2 MSTORE PUSH1 0x20 ADD SWAP1 DUP2 MSTORE PUSH1 0x20 ADD PUSH1 0x0 KECCAK256 PUSH1 0x0 DUP3 ADD MLOAD DUP2 PUSH1 0x0 ADD SSTORE PUSH1 0x20 DUP3 ADD MLOAD DUP2 PUSH1 0x1 ADD PUSH1 0x0 PUSH2 0x100 EXP DUP2 SLOAD DUP2 PUSH20 0xFFFFFFFFFFFFFFFFFFFFFFFFFFFFFFFFFFFFFFFF MUL NOT AND SWAP1 DUP4 PUSH20 0xFFFFFFFFFFFFFFFFFFFFFFFFFFFFFFFFFFFFFFFF AND MUL OR SWAP1 SSTORE POP SWAP1 POP POP PUSH1 0xC PUSH1 0x0 DUP4 PUSH20 0xFFFFFFFFFFFFFFFFFFFFFFFFFFFFFFFFFFFFFFFF AND PUSH20 0xFFFFFFFFFFFFFFFFFFFFFFFFFFFFFFFFFFFFFFFF AND DUP2 MSTORE PUSH1 0x20 ADD SWAP1 DUP2 MSTORE PUSH1 0x20 ADD PUSH1 0x0 KECCAK256 SLOAD PUSH1 0xB PUSH1 0x0 DUP4 PUSH20 0xFFFFFFFFFFFFFFFFFFFFFFFFFFFFFFFFFFFFFFFF AND PUSH20 0xFFFFFFFFFFFFFFFFFFFFFFFFFFFFFFFFFFFFFFFF AND DUP2 MSTORE PUSH1 0x20 ADD SWAP1 DUP2 MSTORE PUSH1 0x20 ADD PUSH1 0x0 KECCAK256 PUSH1 0x0 DUP7 DUP2 MSTORE PUSH1 0x20 ADD SWAP1 DUP2 MSTORE PUSH1 0x20 ADD PUSH1 0x0 KECCAK256 DUP2 SWAP1 SSTORE POP PUSH1 0x1 PUSH1 0xC PUSH1 0x0 DUP5 PUSH20 0xFFFFFFFFFFFFFFFFFFFFFFFFFFFFFFFFFFFFFFFF AND PUSH20 0xFFFFFFFFFFFFFFFFFFFFFFFFFFFFFFFFFFFFFFFF AND DUP2 MSTORE PUSH1 0x20 ADD SWAP1 DUP2 MSTORE PUSH1 0x20 ADD PUSH1 0x0 KECCAK256 PUSH1 0x0 DUP3 DUP3 SLOAD PUSH2 0x1F7C SWAP2 SWAP1 PUSH2 0x3B94 JUMP JUMPDEST SWAP3 POP POP DUP2 SWAP1 SSTORE POP PUSH2 0x219D JUMP JUMPDEST PUSH1 0x40 MLOAD DUP1 PUSH1 0xE0 ADD PUSH1 0x40 MSTORE DUP1 DUP3 PUSH20 0xFFFFFFFFFFFFFFFFFFFFFFFFFFFFFFFFFFFFFFFF AND DUP2 MSTORE PUSH1 0x20 ADD PUSH1 0x8 SLOAD PUSH2 0x445C PUSH2 0x1FBF SWAP2 SWAP1 PUSH2 0x3B52 JUMP JUMPDEST DUP2 MSTORE PUSH1 0x20 ADD DUP5 DUP2 MSTORE PUSH1 0x20 ADD TIMESTAMP DUP2 MSTORE PUSH1 0x20 ADD DUP6 DUP2 MSTORE PUSH1 0x20 ADD PUSH1 0x9 PUSH1 0x0 DUP6 PUSH20 0xFFFFFFFFFFFFFFFFFFFFFFFFFFFFFFFFFFFFFFFF AND PUSH20 0xFFFFFFFFFFFFFFFFFFFFFFFFFFFFFFFFFFFFFFFF AND DUP2 MSTORE PUSH1 0x20 ADD SWAP1 DUP2 MSTORE PUSH1 0x20 ADD PUSH1 0x0 KECCAK256 PUSH1 0x0 DUP5 PUSH20 0xFFFFFFFFFFFFFFFFFFFFFFFFFFFFFFFFFFFFFFFF AND PUSH20 0xFFFFFFFFFFFFFFFFFFFFFFFFFFFFFFFFFFFFFFFF AND DUP2 MSTORE PUSH1 0x20 ADD SWAP1 DUP2 MSTORE PUSH1 0x20 ADD PUSH1 0x0 KECCAK256 PUSH1 0x0 DUP8 DUP2 MSTORE PUSH1 0x20 ADD SWAP1 DUP2 MSTORE PUSH1 0x20 ADD PUSH1 0x0 KECCAK256 PUSH1 0x5 ADD SLOAD DUP2 MSTORE PUSH1 0x20 ADD PUSH1 0x1 ISZERO ISZERO DUP2 MSTORE POP PUSH1 0x9 PUSH1 0x0 DUP5 PUSH20 0xFFFFFFFFFFFFFFFFFFFFFFFFFFFFFFFFFFFFFFFF AND PUSH20 0xFFFFFFFFFFFFFFFFFFFFFFFFFFFFFFFFFFFFFFFF AND DUP2 MSTORE PUSH1 0x20 ADD SWAP1 DUP2 MSTORE PUSH1 0x20 ADD PUSH1 0x0 KECCAK256 PUSH1 0x0 DUP4 PUSH20 0xFFFFFFFFFFFFFFFFFFFFFFFFFFFFFFFFFFFFFFFF AND PUSH20 0xFFFFFFFFFFFFFFFFFFFFFFFFFFFFFFFFFFFFFFFF AND DUP2 MSTORE PUSH1 0x20 ADD SWAP1 DUP2 MSTORE PUSH1 0x20 ADD PUSH1 0x0 KECCAK256 PUSH1 0x0 DUP7 DUP2 MSTORE PUSH1 0x20 ADD SWAP1 DUP2 MSTORE PUSH1 0x20 ADD PUSH1 0x0 KECCAK256 PUSH1 0x0 DUP3 ADD MLOAD DUP2 PUSH1 0x0 ADD PUSH1 0x0 PUSH2 0x100 EXP DUP2 SLOAD DUP2 PUSH20 0xFFFFFFFFFFFFFFFFFFFFFFFFFFFFFFFFFFFFFFFF MUL NOT AND SWAP1 DUP4 PUSH20 0xFFFFFFFFFFFFFFFFFFFFFFFFFFFFFFFFFFFFFFFF AND MUL OR SWAP1 SSTORE POP PUSH1 0x20 DUP3 ADD MLOAD DUP2 PUSH1 0x1 ADD SSTORE PUSH1 0x40 DUP3 ADD MLOAD DUP2 PUSH1 0x2 ADD SSTORE PUSH1 0x60 DUP3 ADD MLOAD DUP2 PUSH1 0x3 ADD SSTORE PUSH1 0x80 DUP3 ADD MLOAD DUP2 PUSH1 0x4 ADD SSTORE PUSH1 0xA0 DUP3 ADD MLOAD DUP2 PUSH1 0x5 ADD SSTORE PUSH1 0xC0 DUP3 ADD MLOAD DUP2 PUSH1 0x6 ADD PUSH1 0x0 PUSH2 0x100 EXP DUP2 SLOAD DUP2 PUSH1 0xFF MUL NOT AND SWAP1 DUP4 ISZERO ISZERO MUL OR SWAP1 SSTORE POP SWAP1 POP POP JUMPDEST DUP1 PUSH20 0xFFFFFFFFFFFFFFFFFFFFFFFFFFFFFFFFFFFFFFFF AND PUSH4 0xB88D4FDE DUP4 ADDRESS DUP8 PUSH1 0x40 MLOAD DUP5 PUSH4 0xFFFFFFFF AND PUSH1 0xE0 SHL DUP2 MSTORE PUSH1 0x4 ADD PUSH2 0x21DA SWAP4 SWAP3 SWAP2 SWAP1 PUSH2 0x3BFF JUMP JUMPDEST PUSH1 0x0 PUSH1 0x40 MLOAD DUP1 DUP4 SUB DUP2 PUSH1 0x0 DUP8 DUP1 EXTCODESIZE ISZERO DUP1 ISZERO PUSH2 0x21F4 JUMPI PUSH1 0x0 DUP1 REVERT JUMPDEST POP GAS CALL ISZERO DUP1 ISZERO PUSH2 0x2208 JUMPI RETURNDATASIZE PUSH1 0x0 DUP1 RETURNDATACOPY RETURNDATASIZE PUSH1 0x0 REVERT JUMPDEST POP POP POP POP PUSH2 0x224C JUMP JUMPDEST PUSH1 0x40 MLOAD PUSH32 0x8C379A000000000000000000000000000000000000000000000000000000000 DUP2 MSTORE PUSH1 0x4 ADD PUSH2 0x2243 SWAP1 PUSH2 0x3DD9 JUMP JUMPDEST PUSH1 0x40 MLOAD DUP1 SWAP2 SUB SWAP1 REVERT JUMPDEST JUMPDEST JUMPDEST JUMPDEST POP POP POP POP JUMP JUMPDEST PUSH1 0x0 DUP1 PUSH1 0x0 SWAP1 SLOAD SWAP1 PUSH2 0x100 EXP SWAP1 DIV PUSH20 0xFFFFFFFFFFFFFFFFFFFFFFFFFFFFFFFFFFFFFFFF AND SWAP1 POP SWAP1 JUMP JUMPDEST PUSH1 0x6 PUSH1 0x0 SWAP1 SLOAD SWAP1 PUSH2 0x100 EXP SWAP1 DIV PUSH20 0xFFFFFFFFFFFFFFFFFFFFFFFFFFFFFFFFFFFFFFFF AND DUP2 JUMP JUMPDEST PUSH1 0x2 DUP1 PUSH1 0x0 ADD SLOAD SWAP1 POP DUP2 JUMP JUMPDEST PUSH1 0x9 PUSH1 0x0 DUP4 PUSH20 0xFFFFFFFFFFFFFFFFFFFFFFFFFFFFFFFFFFFFFFFF AND PUSH20 0xFFFFFFFFFFFFFFFFFFFFFFFFFFFFFFFFFFFFFFFF AND DUP2 MSTORE PUSH1 0x20 ADD SWAP1 DUP2 MSTORE PUSH1 0x20 ADD PUSH1 0x0 KECCAK256 PUSH1 0x0 DUP3 PUSH20 0xFFFFFFFFFFFFFFFFFFFFFFFFFFFFFFFFFFFFFFFF AND PUSH20 0xFFFFFFFFFFFFFFFFFFFFFFFFFFFFFFFFFFFFFFFF AND DUP2 MSTORE PUSH1 0x20 ADD SWAP1 DUP2 MSTORE PUSH1 0x20 ADD PUSH1 0x0 KECCAK256 PUSH1 0x0 DUP5 DUP2 MSTORE PUSH1 0x20 ADD SWAP1 DUP2 MSTORE PUSH1 0x20 ADD PUSH1 0x0 KECCAK256 PUSH1 0x6 ADD PUSH1 0x0 SWAP1 SLOAD SWAP1 PUSH2 0x100 EXP SWAP1 DIV PUSH1 0xFF AND PUSH2 0x238D JUMPI PUSH1 0x40 MLOAD PUSH32 0x8C379A000000000000000000000000000000000000000000000000000000000 DUP2 MSTORE PUSH1 0x4 ADD PUSH2 0x2384 SWAP1 PUSH2 0x3E45 JUMP JUMPDEST PUSH1 0x40 MLOAD DUP1 SWAP2 SUB SWAP1 REVERT JUMPDEST PUSH1 0x0 PUSH1 0x3C PUSH1 0x9 PUSH1 0x0 DUP6 PUSH20 0xFFFFFFFFFFFFFFFFFFFFFFFFFFFFFFFFFFFFFFFF AND PUSH20 0xFFFFFFFFFFFFFFFFFFFFFFFFFFFFFFFFFFFFFFFF AND DUP2 MSTORE PUSH1 0x20 ADD SWAP1 DUP2 MSTORE PUSH1 0x20 ADD PUSH1 0x0 KECCAK256 PUSH1 0x0 DUP5 PUSH20 0xFFFFFFFFFFFFFFFFFFFFFFFFFFFFFFFFFFFFFFFF AND PUSH20 0xFFFFFFFFFFFFFFFFFFFFFFFFFFFFFFFFFFFFFFFF AND DUP2 MSTORE PUSH1 0x20 ADD SWAP1 DUP2 MSTORE PUSH1 0x20 ADD PUSH1 0x0 KECCAK256 PUSH1 0x0 DUP7 DUP2 MSTORE PUSH1 0x20 ADD SWAP1 DUP2 MSTORE PUSH1 0x20 ADD PUSH1 0x0 KECCAK256 PUSH1 0x3 ADD SLOAD TIMESTAMP PUSH2 0x242D SWAP2 SWAP1 PUSH2 0x3E65 JUMP JUMPDEST PUSH2 0x2437 SWAP2 SWAP1 PUSH2 0x3EC8 JUMP JUMPDEST SWAP1 POP PUSH1 0x9 PUSH1 0x0 DUP5 PUSH20 0xFFFFFFFFFFFFFFFFFFFFFFFFFFFFFFFFFFFFFFFF AND PUSH20 0xFFFFFFFFFFFFFFFFFFFFFFFFFFFFFFFFFFFFFFFF AND DUP2 MSTORE PUSH1 0x20 ADD SWAP1 DUP2 MSTORE PUSH1 0x20 ADD PUSH1 0x0 KECCAK256 PUSH1 0x0 DUP4 PUSH20 0xFFFFFFFFFFFFFFFFFFFFFFFFFFFFFFFFFFFFFFFF AND PUSH20 0xFFFFFFFFFFFFFFFFFFFFFFFFFFFFFFFFFFFFFFFF AND DUP2 MSTORE PUSH1 0x20 ADD SWAP1 DUP2 MSTORE PUSH1 0x20 ADD PUSH1 0x0 KECCAK256 PUSH1 0x0 DUP6 DUP2 MSTORE PUSH1 0x20 ADD SWAP1 DUP2 MSTORE PUSH1 0x20 ADD PUSH1 0x0 KECCAK256 PUSH1 0x2 ADD SLOAD DUP2 LT ISZERO PUSH2 0x2898 JUMPI PUSH1 0x0 PUSH1 0x9 PUSH1 0x0 DUP6 PUSH20 0xFFFFFFFFFFFFFFFFFFFFFFFFFFFFFFFFFFFFFFFF AND PUSH20 0xFFFFFFFFFFFFFFFFFFFFFFFFFFFFFFFFFFFFFFFF AND DUP2 MSTORE PUSH1 0x20 ADD SWAP1 DUP2 MSTORE PUSH1 0x20 ADD PUSH1 0x0 KECCAK256 PUSH1 0x0 DUP5 PUSH20 0xFFFFFFFFFFFFFFFFFFFFFFFFFFFFFFFFFFFFFFFF AND PUSH20 0xFFFFFFFFFFFFFFFFFFFFFFFFFFFFFFFFFFFFFFFF AND DUP2 MSTORE PUSH1 0x20 ADD SWAP1 DUP2 MSTORE PUSH1 0x20 ADD PUSH1 0x0 KECCAK256 PUSH1 0x0 DUP7 DUP2 MSTORE PUSH1 0x20 ADD SWAP1 DUP2 MSTORE PUSH1 0x20 ADD PUSH1 0x0 KECCAK256 PUSH1 0x2 ADD SLOAD PUSH1 0x9 PUSH1 0x0 DUP7 PUSH20 0xFFFFFFFFFFFFFFFFFFFFFFFFFFFFFFFFFFFFFFFF AND PUSH20 0xFFFFFFFFFFFFFFFFFFFFFFFFFFFFFFFFFFFFFFFF AND DUP2 MSTORE PUSH1 0x20 ADD SWAP1 DUP2 MSTORE PUSH1 0x20 ADD PUSH1 0x0 KECCAK256 PUSH1 0x0 DUP6 PUSH20 0xFFFFFFFFFFFFFFFFFFFFFFFFFFFFFFFFFFFFFFFF AND PUSH20 0xFFFFFFFFFFFFFFFFFFFFFFFFFFFFFFFFFFFFFFFF AND DUP2 MSTORE PUSH1 0x20 ADD SWAP1 DUP2 MSTORE PUSH1 0x20 ADD PUSH1 0x0 KECCAK256 PUSH1 0x0 DUP8 DUP2 MSTORE PUSH1 0x20 ADD SWAP1 DUP2 MSTORE PUSH1 0x20 ADD PUSH1 0x0 KECCAK256 PUSH1 0x1 ADD SLOAD PUSH2 0x25FF SWAP2 SWAP1 PUSH2 0x3EC8 JUMP JUMPDEST DUP3 PUSH2 0x260A SWAP2 SWAP1 PUSH2 0x3B52 JUMP JUMPDEST SWAP1 POP PUSH1 0x0 PUSH1 0x64 DUP3 PUSH1 0x2 PUSH2 0x261D SWAP2 SWAP1 PUSH2 0x3B52 JUMP JUMPDEST PUSH2 0x2627 SWAP2 SWAP1 PUSH2 0x3EC8 JUMP JUMPDEST SWAP1 POP PUSH2 0x2681 DUP6 DUP3 DUP5 PUSH2 0x2639 SWAP2 SWAP1 PUSH2 0x3E65 JUMP JUMPDEST PUSH1 0x6 PUSH1 0x0 SWAP1 SLOAD SWAP1 PUSH2 0x100 EXP SWAP1 DIV PUSH20 0xFFFFFFFFFFFFFFFFFFFFFFFFFFFFFFFFFFFFFFFF AND PUSH20 0xFFFFFFFFFFFFFFFFFFFFFFFFFFFFFFFFFFFFFFFF AND PUSH2 0x31A4 SWAP1 SWAP3 SWAP2 SWAP1 PUSH4 0xFFFFFFFF AND JUMP JUMPDEST PUSH2 0x26D0 PUSH2 0xDEAD DUP3 PUSH1 0x6 PUSH1 0x0 SWAP1 SLOAD SWAP1 PUSH2 0x100 EXP SWAP1 DIV PUSH20 0xFFFFFFFFFFFFFFFFFFFFFFFFFFFFFFFFFFFFFFFF AND PUSH20 0xFFFFFFFFFFFFFFFFFFFFFFFFFFFFFFFFFFFFFFFF AND PUSH2 0x31A4 SWAP1 SWAP3 SWAP2 SWAP1 PUSH4 0xFFFFFFFF AND JUMP JUMPDEST DUP4 PUSH20 0xFFFFFFFFFFFFFFFFFFFFFFFFFFFFFFFFFFFFFFFF AND PUSH4 0xB88D4FDE ADDRESS DUP8 PUSH1 0x9 PUSH1 0x0 DUP11 PUSH20 0xFFFFFFFFFFFFFFFFFFFFFFFFFFFFFFFFFFFFFFFF AND PUSH20 0xFFFFFFFFFFFFFFFFFFFFFFFFFFFFFFFFFFFFFFFF AND DUP2 MSTORE PUSH1 0x20 ADD SWAP1 DUP2 MSTORE PUSH1 0x20 ADD PUSH1 0x0 KECCAK256 PUSH1 0x0 DUP10 PUSH20 0xFFFFFFFFFFFFFFFFFFFFFFFFFFFFFFFFFFFFFFFF AND PUSH20 0xFFFFFFFFFFFFFFFFFFFFFFFFFFFFFFFFFFFFFFFF AND DUP2 MSTORE PUSH1 0x20 ADD SWAP1 DUP2 MSTORE PUSH1 0x20 ADD PUSH1 0x0 KECCAK256 PUSH1 0x0 DUP12 DUP2 MSTORE PUSH1 0x20 ADD SWAP1 DUP2 MSTORE PUSH1 0x20 ADD PUSH1 0x0 KECCAK256 PUSH1 0x4 ADD SLOAD PUSH1 0x40 MLOAD DUP5 PUSH4 0xFFFFFFFF AND PUSH1 0xE0 SHL DUP2 MSTORE PUSH1 0x4 ADD PUSH2 0x279D SWAP4 SWAP3 SWAP2 SWAP1 PUSH2 0x3BFF JUMP JUMPDEST PUSH1 0x0 PUSH1 0x40 MLOAD DUP1 DUP4 SUB DUP2 PUSH1 0x0 DUP8 DUP1 EXTCODESIZE ISZERO DUP1 ISZERO PUSH2 0x27B7 JUMPI PUSH1 0x0 DUP1 REVERT JUMPDEST POP GAS CALL ISZERO DUP1 ISZERO PUSH2 0x27CB JUMPI RETURNDATASIZE PUSH1 0x0 DUP1 RETURNDATACOPY RETURNDATASIZE PUSH1 0x0 REVERT JUMPDEST POP POP POP POP DUP2 PUSH1 0x7 PUSH1 0x0 DUP3 DUP3 SLOAD PUSH2 0x27E1 SWAP2 SWAP1 PUSH2 0x3E65 JUMP JUMPDEST SWAP3 POP POP DUP2 SWAP1 SSTORE POP PUSH1 0x0 PUSH1 0x9 PUSH1 0x0 DUP8 PUSH20 0xFFFFFFFFFFFFFFFFFFFFFFFFFFFFFFFFFFFFFFFF AND PUSH20 0xFFFFFFFFFFFFFFFFFFFFFFFFFFFFFFFFFFFFFFFF AND DUP2 MSTORE PUSH1 0x20 ADD SWAP1 DUP2 MSTORE PUSH1 0x20 ADD PUSH1 0x0 KECCAK256 PUSH1 0x0 DUP7 PUSH20 0xFFFFFFFFFFFFFFFFFFFFFFFFFFFFFFFFFFFFFFFF AND PUSH20 0xFFFFFFFFFFFFFFFFFFFFFFFFFFFFFFFFFFFFFFFF AND DUP2 MSTORE PUSH1 0x20 ADD SWAP1 DUP2 MSTORE PUSH1 0x20 ADD PUSH1 0x0 KECCAK256 PUSH1 0x0 DUP9 DUP2 MSTORE PUSH1 0x20 ADD SWAP1 DUP2 MSTORE PUSH1 0x20 ADD PUSH1 0x0 KECCAK256 PUSH1 0x6 ADD PUSH1 0x0 PUSH2 0x100 EXP DUP2 SLOAD DUP2 PUSH1 0xFF MUL NOT AND SWAP1 DUP4 ISZERO ISZERO MUL OR SWAP1 SSTORE POP POP POP PUSH2 0x2BC7 JUMP JUMPDEST PUSH2 0x2975 DUP4 PUSH1 0x9 PUSH1 0x0 DUP7 PUSH20 0xFFFFFFFFFFFFFFFFFFFFFFFFFFFFFFFFFFFFFFFF AND PUSH20 0xFFFFFFFFFFFFFFFFFFFFFFFFFFFFFFFFFFFFFFFF AND DUP2 MSTORE PUSH1 0x20 ADD SWAP1 DUP2 MSTORE PUSH1 0x20 ADD PUSH1 0x0 KECCAK256 PUSH1 0x0 DUP6 PUSH20 0xFFFFFFFFFFFFFFFFFFFFFFFFFFFFFFFFFFFFFFFF AND PUSH20 0xFFFFFFFFFFFFFFFFFFFFFFFFFFFFFFFFFFFFFFFF AND DUP2 MSTORE PUSH1 0x20 ADD SWAP1 DUP2 MSTORE PUSH1 0x20 ADD PUSH1 0x0 KECCAK256 PUSH1 0x0 DUP8 DUP2 MSTORE PUSH1 0x20 ADD SWAP1 DUP2 MSTORE PUSH1 0x20 ADD PUSH1 0x0 KECCAK256 PUSH1 0x1 ADD SLOAD PUSH1 0x6 PUSH1 0x0 SWAP1 SLOAD SWAP1 PUSH2 0x100 EXP SWAP1 DIV PUSH20 0xFFFFFFFFFFFFFFFFFFFFFFFFFFFFFFFFFFFFFFFF AND PUSH20 0xFFFFFFFFFFFFFFFFFFFFFFFFFFFFFFFFFFFFFFFF AND PUSH2 0x31A4 SWAP1 SWAP3 SWAP2 SWAP1 PUSH4 0xFFFFFFFF AND JUMP JUMPDEST DUP2 PUSH20 0xFFFFFFFFFFFFFFFFFFFFFFFFFFFFFFFFFFFFFFFF AND PUSH4 0xB88D4FDE ADDRESS DUP6 PUSH1 0x9 PUSH1 0x0 DUP9 PUSH20 0xFFFFFFFFFFFFFFFFFFFFFFFFFFFFFFFFFFFFFFFF AND PUSH20 0xFFFFFFFFFFFFFFFFFFFFFFFFFFFFFFFFFFFFFFFF AND DUP2 MSTORE PUSH1 0x20 ADD SWAP1 DUP2 MSTORE PUSH1 0x20 ADD PUSH1 0x0 KECCAK256 PUSH1 0x0 DUP8 PUSH20 0xFFFFFFFFFFFFFFFFFFFFFFFFFFFFFFFFFFFFFFFF AND PUSH20 0xFFFFFFFFFFFFFFFFFFFFFFFFFFFFFFFFFFFFFFFF AND DUP2 MSTORE PUSH1 0x20 ADD SWAP1 DUP2 MSTORE PUSH1 0x20 ADD PUSH1 0x0 KECCAK256 PUSH1 0x0 DUP10 DUP2 MSTORE PUSH1 0x20 ADD SWAP1 DUP2 MSTORE PUSH1 0x20 ADD PUSH1 0x0 KECCAK256 PUSH1 0x4 ADD SLOAD PUSH1 0x40 MLOAD DUP5 PUSH4 0xFFFFFFFF AND PUSH1 0xE0 SHL DUP2 MSTORE PUSH1 0x4 ADD PUSH2 0x2A42 SWAP4 SWAP3 SWAP2 SWAP1 PUSH2 0x3BFF JUMP JUMPDEST PUSH1 0x0 PUSH1 0x40 MLOAD DUP1 DUP4 SUB DUP2 PUSH1 0x0 DUP8 DUP1 EXTCODESIZE ISZERO DUP1 ISZERO PUSH2 0x2A5C JUMPI PUSH1 0x0 DUP1 REVERT JUMPDEST POP GAS CALL ISZERO DUP1 ISZERO PUSH2 0x2A70 JUMPI RETURNDATASIZE PUSH1 0x0 DUP1 RETURNDATACOPY RETURNDATASIZE PUSH1 0x0 REVERT JUMPDEST POP POP POP POP PUSH1 0x9 PUSH1 0x0 DUP5 PUSH20 0xFFFFFFFFFFFFFFFFFFFFFFFFFFFFFFFFFFFFFFFF AND PUSH20 0xFFFFFFFFFFFFFFFFFFFFFFFFFFFFFFFFFFFFFFFF AND DUP2 MSTORE PUSH1 0x20 ADD SWAP1 DUP2 MSTORE PUSH1 0x20 ADD PUSH1 0x0 KECCAK256 PUSH1 0x0 DUP4 PUSH20 0xFFFFFFFFFFFFFFFFFFFFFFFFFFFFFFFFFFFFFFFF AND PUSH20 0xFFFFFFFFFFFFFFFFFFFFFFFFFFFFFFFFFFFFFFFF AND DUP2 MSTORE PUSH1 0x20 ADD SWAP1 DUP2 MSTORE PUSH1 0x20 ADD PUSH1 0x0 KECCAK256 PUSH1 0x0 DUP6 DUP2 MSTORE PUSH1 0x20 ADD SWAP1 DUP2 MSTORE PUSH1 0x20 ADD PUSH1 0x0 KECCAK256 PUSH1 0x1 ADD SLOAD PUSH1 0x7 PUSH1 0x0 DUP3 DUP3 SLOAD PUSH2 0x2B16 SWAP2 SWAP1 PUSH2 0x3E65 JUMP JUMPDEST SWAP3 POP POP DUP2 SWAP1 SSTORE POP PUSH1 0x0 PUSH1 0x9 PUSH1 0x0 DUP6 PUSH20 0xFFFFFFFFFFFFFFFFFFFFFFFFFFFFFFFFFFFFFFFF AND PUSH20 0xFFFFFFFFFFFFFFFFFFFFFFFFFFFFFFFFFFFFFFFF AND DUP2 MSTORE PUSH1 0x20 ADD SWAP1 DUP2 MSTORE PUSH1 0x20 ADD PUSH1 0x0 KECCAK256 PUSH1 0x0 DUP5 PUSH20 0xFFFFFFFFFFFFFFFFFFFFFFFFFFFFFFFFFFFFFFFF AND PUSH20 0xFFFFFFFFFFFFFFFFFFFFFFFFFFFFFFFFFFFFFFFF AND DUP2 MSTORE PUSH1 0x20 ADD SWAP1 DUP2 MSTORE PUSH1 0x20 ADD PUSH1 0x0 KECCAK256 PUSH1 0x0 DUP7 DUP2 MSTORE PUSH1 0x20 ADD SWAP1 DUP2 MSTORE PUSH1 0x20 ADD PUSH1 0x0 KECCAK256 PUSH1 0x6 ADD PUSH1 0x0 PUSH2 0x100 EXP DUP2 SLOAD DUP2 PUSH1 0xFF MUL NOT AND SWAP1 DUP4 ISZERO ISZERO MUL OR SWAP1 SSTORE POP JUMPDEST PUSH1 0xF PUSH1 0x9 PUSH1 0x0 DUP6 PUSH20 0xFFFFFFFFFFFFFFFFFFFFFFFFFFFFFFFFFFFFFFFF AND PUSH20 0xFFFFFFFFFFFFFFFFFFFFFFFFFFFFFFFFFFFFFFFF AND DUP2 MSTORE PUSH1 0x20 ADD SWAP1 DUP2 MSTORE PUSH1 0x20 ADD PUSH1 0x0 KECCAK256 PUSH1 0x0 DUP5 PUSH20 0xFFFFFFFFFFFFFFFFFFFFFFFFFFFFFFFFFFFFFFFF AND PUSH20 0xFFFFFFFFFFFFFFFFFFFFFFFFFFFFFFFFFFFFFFFF AND DUP2 MSTORE PUSH1 0x20 ADD SWAP1 DUP2 MSTORE PUSH1 0x20 ADD PUSH1 0x0 KECCAK256 PUSH1 0x0 DUP7 DUP2 MSTORE PUSH1 0x20 ADD SWAP1 DUP2 MSTORE PUSH1 0x20 ADD PUSH1 0x0 KECCAK256 PUSH1 0x2 ADD SLOAD SUB PUSH2 0x2C6E JUMPI PUSH2 0x2C69 PUSH1 0x1 PUSH2 0x322A JUMP JUMPDEST PUSH2 0x2E62 JUMP JUMPDEST PUSH1 0x1E PUSH1 0x9 PUSH1 0x0 DUP6 PUSH20 0xFFFFFFFFFFFFFFFFFFFFFFFFFFFFFFFFFFFFFFFF AND PUSH20 0xFFFFFFFFFFFFFFFFFFFFFFFFFFFFFFFFFFFFFFFF AND DUP2 MSTORE PUSH1 0x20 ADD SWAP1 DUP2 MSTORE PUSH1 0x20 ADD PUSH1 0x0 KECCAK256 PUSH1 0x0 DUP5 PUSH20 0xFFFFFFFFFFFFFFFFFFFFFFFFFFFFFFFFFFFFFFFF AND PUSH20 0xFFFFFFFFFFFFFFFFFFFFFFFFFFFFFFFFFFFFFFFF AND DUP2 MSTORE PUSH1 0x20 ADD SWAP1 DUP2 MSTORE PUSH1 0x20 ADD PUSH1 0x0 KECCAK256 PUSH1 0x0 DUP7 DUP2 MSTORE PUSH1 0x20 ADD SWAP1 DUP2 MSTORE PUSH1 0x20 ADD PUSH1 0x0 KECCAK256 PUSH1 0x2 ADD SLOAD SUB PUSH2 0x2D15 JUMPI PUSH2 0x2D10 PUSH1 0x2 PUSH2 0x322A JUMP JUMPDEST PUSH2 0x2E61 JUMP JUMPDEST PUSH1 0x3C PUSH1 0x9 PUSH1 0x0 DUP6 PUSH20 0xFFFFFFFFFFFFFFFFFFFFFFFFFFFFFFFFFFFFFFFF AND PUSH20 0xFFFFFFFFFFFFFFFFFFFFFFFFFFFFFFFFFFFFFFFF AND DUP2 MSTORE PUSH1 0x20 ADD SWAP1 DUP2 MSTORE PUSH1 0x20 ADD PUSH1 0x0 KECCAK256 PUSH1 0x0 DUP5 PUSH20 0xFFFFFFFFFFFFFFFFFFFFFFFFFFFFFFFFFFFFFFFF AND PUSH20 0xFFFFFFFFFFFFFFFFFFFFFFFFFFFFFFFFFFFFFFFF AND DUP2 MSTORE PUSH1 0x20 ADD SWAP1 DUP2 MSTORE PUSH1 0x20 ADD PUSH1 0x0 KECCAK256 PUSH1 0x0 DUP7 DUP2 MSTORE PUSH1 0x20 ADD SWAP1 DUP2 MSTORE PUSH1 0x20 ADD PUSH1 0x0 KECCAK256 PUSH1 0x2 ADD SLOAD SUB PUSH2 0x2DBC JUMPI PUSH2 0x2DB7 PUSH1 0x3 PUSH2 0x322A JUMP JUMPDEST PUSH2 0x2E60 JUMP JUMPDEST PUSH1 0x5A PUSH1 0x9 PUSH1 0x0 DUP6 PUSH20 0xFFFFFFFFFFFFFFFFFFFFFFFFFFFFFFFFFFFFFFFF AND PUSH20 0xFFFFFFFFFFFFFFFFFFFFFFFFFFFFFFFFFFFFFFFF AND DUP2 MSTORE PUSH1 0x20 ADD SWAP1 DUP2 MSTORE PUSH1 0x20 ADD PUSH1 0x0 KECCAK256 PUSH1 0x0 DUP5 PUSH20 0xFFFFFFFFFFFFFFFFFFFFFFFFFFFFFFFFFFFFFFFF AND PUSH20 0xFFFFFFFFFFFFFFFFFFFFFFFFFFFFFFFFFFFFFFFF AND DUP2 MSTORE PUSH1 0x20 ADD SWAP1 DUP2 MSTORE PUSH1 0x20 ADD PUSH1 0x0 KECCAK256 PUSH1 0x0 DUP7 DUP2 MSTORE PUSH1 0x20 ADD SWAP1 DUP2 MSTORE PUSH1 0x20 ADD PUSH1 0x0 KECCAK256 PUSH1 0x2 ADD SLOAD SUB PUSH2 0x2E5F JUMPI PUSH2 0x2E5E PUSH1 0x4 PUSH2 0x322A JUMP JUMPDEST JUMPDEST JUMPDEST JUMPDEST JUMPDEST POP POP POP POP JUMP JUMPDEST PUSH1 0x5 PUSH1 0x0 SWAP1 SLOAD SWAP1 PUSH2 0x100 EXP SWAP1 DIV PUSH20 0xFFFFFFFFFFFFFFFFFFFFFFFFFFFFFFFFFFFFFFFF AND DUP2 JUMP JUMPDEST PUSH2 0x2E96 PUSH2 0x303E JUMP JUMPDEST DUP1 PUSH1 0x7 PUSH1 0x0 DUP3 DUP3 SLOAD PUSH2 0x2EA8 SWAP2 SWAP1 PUSH2 0x3B94 JUMP JUMPDEST SWAP3 POP POP DUP2 SWAP1 SSTORE POP PUSH2 0x2EFE CALLER ADDRESS DUP4 PUSH1 0x6 PUSH1 0x0 SWAP1 SLOAD SWAP1 PUSH2 0x100 EXP SWAP1 DIV PUSH20 0xFFFFFFFFFFFFFFFFFFFFFFFFFFFFFFFFFFFFFFFF AND PUSH20 0xFFFFFFFFFFFFFFFFFFFFFFFFFFFFFFFFFFFFFFFF AND PUSH2 0x3286 SWAP1 SWAP4 SWAP3 SWAP2 SWAP1 PUSH4 0xFFFFFFFF AND JUMP JUMPDEST POP JUMP JUMPDEST PUSH1 0x9 PUSH1 0x20 MSTORE DUP3 PUSH1 0x0 MSTORE PUSH1 0x40 PUSH1 0x0 KECCAK256 PUSH1 0x20 MSTORE DUP2 PUSH1 0x0 MSTORE PUSH1 0x40 PUSH1 0x0 KECCAK256 PUSH1 0x20 MSTORE DUP1 PUSH1 0x0 MSTORE PUSH1 0x40 PUSH1 0x0 KECCAK256 PUSH1 0x0 SWAP3 POP SWAP3 POP POP POP DUP1 PUSH1 0x0 ADD PUSH1 0x0 SWAP1 SLOAD SWAP1 PUSH2 0x100 EXP SWAP1 DIV PUSH20 0xFFFFFFFFFFFFFFFFFFFFFFFFFFFFFFFFFFFFFFFF AND SWAP1 DUP1 PUSH1 0x1 ADD SLOAD SWAP1 DUP1 PUSH1 0x2 ADD SLOAD SWAP1 DUP1 PUSH1 0x3 ADD SLOAD SWAP1 DUP1 PUSH1 0x4 ADD SLOAD SWAP1 DUP1 PUSH1 0x5 ADD SLOAD SWAP1 DUP1 PUSH1 0x6 ADD PUSH1 0x0 SWAP1 SLOAD SWAP1 PUSH2 0x100 EXP SWAP1 DIV PUSH1 0xFF AND SWAP1 POP DUP8 JUMP JUMPDEST PUSH1 0xB PUSH1 0x20 MSTORE DUP2 PUSH1 0x0 MSTORE PUSH1 0x40 PUSH1 0x0 KECCAK256 PUSH1 0x20 MSTORE DUP1 PUSH1 0x0 MSTORE PUSH1 0x40 PUSH1 0x0 KECCAK256 PUSH1 0x0 SWAP2 POP SWAP2 POP POP SLOAD DUP2 JUMP JUMPDEST PUSH2 0x2FB7 PUSH2 0x303E JUMP JUMPDEST PUSH1 0x0 PUSH20 0xFFFFFFFFFFFFFFFFFFFFFFFFFFFFFFFFFFFFFFFF AND DUP2 PUSH20 0xFFFFFFFFFFFFFFFFFFFFFFFFFFFFFFFFFFFFFFFF AND SUB PUSH2 0x3026 JUMPI PUSH1 0x40 MLOAD PUSH32 0x8C379A000000000000000000000000000000000000000000000000000000000 DUP2 MSTORE PUSH1 0x4 ADD PUSH2 0x301D SWAP1 PUSH2 0x3F6B JUMP JUMPDEST PUSH1 0x40 MLOAD DUP1 SWAP2 SUB SWAP1 REVERT JUMPDEST PUSH2 0x302F DUP2 PUSH2 0x30BC JUMP JUMPDEST POP JUMP JUMPDEST PUSH1 0x3 DUP1 PUSH1 0x0 ADD SLOAD SWAP1 POP DUP2 JUMP JUMPDEST PUSH2 0x3046 PUSH2 0x330F JUMP JUMPDEST PUSH20 0xFFFFFFFFFFFFFFFFFFFFFFFFFFFFFFFFFFFFFFFF AND PUSH2 0x3064 PUSH2 0x2255 JUMP JUMPDEST PUSH20 0xFFFFFFFFFFFFFFFFFFFFFFFFFFFFFFFFFFFFFFFF AND EQ PUSH2 0x30BA JUMPI PUSH1 0x40 MLOAD PUSH32 0x8C379A000000000000000000000000000000000000000000000000000000000 DUP2 MSTORE PUSH1 0x4 ADD PUSH2 0x30B1 SWAP1 PUSH2 0x3FD7 JUMP JUMPDEST PUSH1 0x40 MLOAD DUP1 SWAP2 SUB SWAP1 REVERT JUMPDEST JUMP JUMPDEST PUSH1 0x0 DUP1 PUSH1 0x0 SWAP1 SLOAD SWAP1 PUSH2 0x100 EXP SWAP1 DIV PUSH20 0xFFFFFFFFFFFFFFFFFFFFFFFFFFFFFFFFFFFFFFFF AND SWAP1 POP DUP2 PUSH1 0x0 DUP1 PUSH2 0x100 EXP DUP2 SLOAD DUP2 PUSH20 0xFFFFFFFFFFFFFFFFFFFFFFFFFFFFFFFFFFFFFFFF MUL NOT AND SWAP1 DUP4 PUSH20 0xFFFFFFFFFFFFFFFFFFFFFFFFFFFFFFFFFFFFFFFF AND MUL OR SWAP1 SSTORE POP DUP2 PUSH20 0xFFFFFFFFFFFFFFFFFFFFFFFFFFFFFFFFFFFFFFFF AND DUP2 PUSH20 0xFFFFFFFFFFFFFFFFFFFFFFFFFFFFFFFFFFFFFFFF AND PUSH32 0x8BE0079C531659141344CD1FD0A4F28419497F9722A3DAAFE3B4186F6B6457E0 PUSH1 0x40 MLOAD PUSH1 0x40 MLOAD DUP1 SWAP2 SUB SWAP1 LOG3 POP POP JUMP JUMPDEST PUSH1 0x1 DUP2 PUSH1 0x0 ADD PUSH1 0x0 DUP3 DUP3 SLOAD ADD SWAP3 POP POP DUP2 SWAP1 SSTORE POP POP JUMP JUMPDEST PUSH1 0x0 DUP2 PUSH1 0x0 ADD SLOAD SWAP1 POP SWAP2 SWAP1 POP JUMP JUMPDEST PUSH2 0x3225 DUP4 PUSH4 0xA9059CBB PUSH1 0xE0 SHL DUP5 DUP5 PUSH1 0x40 MLOAD PUSH1 0x24 ADD PUSH2 0x31C3 SWAP3 SWAP2 SWAP1 PUSH2 0x3FF7 JUMP JUMPDEST PUSH1 0x40 MLOAD PUSH1 0x20 DUP2 DUP4 SUB SUB DUP2 MSTORE SWAP1 PUSH1 0x40 MSTORE SWAP1 PUSH28 0xFFFFFFFFFFFFFFFFFFFFFFFFFFFFFFFFFFFFFFFFFFFFFFFFFFFFFFFF NOT AND PUSH1 0x20 DUP3 ADD DUP1 MLOAD PUSH28 0xFFFFFFFFFFFFFFFFFFFFFFFFFFFFFFFFFFFFFFFFFFFFFFFFFFFFFFFF DUP4 DUP2 DUP4 AND OR DUP4 MSTORE POP POP POP POP PUSH2 0x3317 JUMP JUMPDEST POP POP POP JUMP JUMPDEST PUSH1 0x0 DUP2 PUSH1 0x0 ADD SLOAD SWAP1 POP PUSH1 0x0 DUP2 GT PUSH2 0x3276 JUMPI PUSH1 0x40 MLOAD PUSH32 0x8C379A000000000000000000000000000000000000000000000000000000000 DUP2 MSTORE PUSH1 0x4 ADD PUSH2 0x326D SWAP1 PUSH2 0x406C JUMP JUMPDEST PUSH1 0x40 MLOAD DUP1 SWAP2 SUB SWAP1 REVERT JUMPDEST PUSH1 0x1 DUP2 SUB DUP3 PUSH1 0x0 ADD DUP2 SWAP1 SSTORE POP POP POP JUMP JUMPDEST PUSH2 0x3309 DUP5 PUSH4 0x23B872DD PUSH1 0xE0 SHL DUP6 DUP6 DUP6 PUSH1 0x40 MLOAD PUSH1 0x24 ADD PUSH2 0x32A7 SWAP4 SWAP3 SWAP2 SWAP1 PUSH2 0x408C JUMP JUMPDEST PUSH1 0x40 MLOAD PUSH1 0x20 DUP2 DUP4 SUB SUB DUP2 MSTORE SWAP1 PUSH1 0x40 MSTORE SWAP1 PUSH28 0xFFFFFFFFFFFFFFFFFFFFFFFFFFFFFFFFFFFFFFFFFFFFFFFFFFFFFFFF NOT AND PUSH1 0x20 DUP3 ADD DUP1 MLOAD PUSH28 0xFFFFFFFFFFFFFFFFFFFFFFFFFFFFFFFFFFFFFFFFFFFFFFFFFFFFFFFF DUP4 DUP2 DUP4 AND OR DUP4 MSTORE POP POP POP POP PUSH2 0x3317 JUMP JUMPDEST POP POP POP POP JUMP JUMPDEST PUSH1 0x0 CALLER SWAP1 POP SWAP1 JUMP JUMPDEST PUSH1 0x0 PUSH2 0x3379 DUP3 PUSH1 0x40 MLOAD DUP1 PUSH1 0x40 ADD PUSH1 0x40 MSTORE DUP1 PUSH1 0x20 DUP2 MSTORE PUSH1 0x20 ADD PUSH32 0x5361666545524332303A206C6F772D6C6576656C2063616C6C206661696C6564 DUP2 MSTORE POP DUP6 PUSH20 0xFFFFFFFFFFFFFFFFFFFFFFFFFFFFFFFFFFFFFFFF AND PUSH2 0x33DE SWAP1 SWAP3 SWAP2 SWAP1 PUSH4 0xFFFFFFFF AND JUMP JUMPDEST SWAP1 POP PUSH1 0x0 DUP2 MLOAD GT ISZERO PUSH2 0x33D9 JUMPI DUP1 DUP1 PUSH1 0x20 ADD SWAP1 MLOAD DUP2 ADD SWAP1 PUSH2 0x3399 SWAP2 SWAP1 PUSH2 0x40EF JUMP JUMPDEST PUSH2 0x33D8 JUMPI PUSH1 0x40 MLOAD PUSH32 0x8C379A000000000000000000000000000000000000000000000000000000000 DUP2 MSTORE PUSH1 0x4 ADD PUSH2 0x33CF SWAP1 PUSH2 0x418E JUMP JUMPDEST PUSH1 0x40 MLOAD DUP1 SWAP2 SUB SWAP1 REVERT JUMPDEST JUMPDEST POP POP POP JUMP JUMPDEST PUSH1 0x60 PUSH2 0x33ED DUP5 DUP5 PUSH1 0x0 DUP6 PUSH2 0x33F6 JUMP JUMPDEST SWAP1 POP SWAP4 SWAP3 POP POP POP JUMP JUMPDEST PUSH1 0x60 DUP3 SELFBALANCE LT ISZERO PUSH2 0x343B JUMPI PUSH1 0x40 MLOAD PUSH32 0x8C379A000000000000000000000000000000000000000000000000000000000 DUP2 MSTORE PUSH1 0x4 ADD PUSH2 0x3432 SWAP1 PUSH2 0x4220 JUMP JUMPDEST PUSH1 0x40 MLOAD DUP1 SWAP2 SUB SWAP1 REVERT JUMPDEST PUSH1 0x0 DUP1 DUP7 PUSH20 0xFFFFFFFFFFFFFFFFFFFFFFFFFFFFFFFFFFFFFFFF AND DUP6 DUP8 PUSH1 0x40 MLOAD PUSH2 0x3464 SWAP2 SWAP1 PUSH2 0x42B1 JUMP JUMPDEST PUSH1 0x0 PUSH1 0x40 MLOAD DUP1 DUP4 SUB DUP2 DUP6 DUP8 GAS CALL SWAP3 POP POP POP RETURNDATASIZE DUP1 PUSH1 0x0 DUP2 EQ PUSH2 0x34A1 JUMPI PUSH1 0x40 MLOAD SWAP2 POP PUSH1 0x1F NOT PUSH1 0x3F RETURNDATASIZE ADD AND DUP3 ADD PUSH1 0x40 MSTORE RETURNDATASIZE DUP3 MSTORE RETURNDATASIZE PUSH1 0x0 PUSH1 0x20 DUP5 ADD RETURNDATACOPY PUSH2 0x34A6 JUMP JUMPDEST PUSH1 0x60 SWAP2 POP JUMPDEST POP SWAP2 POP SWAP2 POP PUSH2 0x34B7 DUP8 DUP4 DUP4 DUP8 PUSH2 0x34C3 JUMP JUMPDEST SWAP3 POP POP POP SWAP5 SWAP4 POP POP POP POP JUMP JUMPDEST PUSH1 0x60 DUP4 ISZERO PUSH2 0x3525 JUMPI PUSH1 0x0 DUP4 MLOAD SUB PUSH2 0x351D JUMPI PUSH2 0x34DD DUP6 PUSH2 0x3538 JUMP JUMPDEST PUSH2 0x351C JUMPI PUSH1 0x40 MLOAD PUSH32 0x8C379A000000000000000000000000000000000000000000000000000000000 DUP2 MSTORE PUSH1 0x4 ADD PUSH2 0x3513 SWAP1 PUSH2 0x4314 JUMP JUMPDEST PUSH1 0x40 MLOAD DUP1 SWAP2 SUB SWAP1 REVERT JUMPDEST JUMPDEST DUP3 SWAP1 POP PUSH2 0x3530 JUMP JUMPDEST PUSH2 0x352F DUP4 DUP4 PUSH2 0x355B JUMP JUMPDEST JUMPDEST SWAP5 SWAP4 POP POP POP POP JUMP JUMPDEST PUSH1 0x0 DUP1 DUP3 PUSH20 0xFFFFFFFFFFFFFFFFFFFFFFFFFFFFFFFFFFFFFFFF AND EXTCODESIZE GT SWAP1 POP SWAP2 SWAP1 POP JUMP JUMPDEST PUSH1 0x0 DUP3 MLOAD GT ISZERO PUSH2 0x356E JUMPI DUP2 MLOAD DUP1 DUP4 PUSH1 0x20 ADD REVERT JUMPDEST DUP1 PUSH1 0x40 MLOAD PUSH32 0x8C379A000000000000000000000000000000000000000000000000000000000 DUP2 MSTORE PUSH1 0x4 ADD PUSH2 0x35A2 SWAP2 SWAP1 PUSH2 0x4389 JUMP JUMPDEST PUSH1 0x40 MLOAD DUP1 SWAP2 SUB SWAP1 REVERT JUMPDEST PUSH1 0x0 DUP1 REVERT JUMPDEST PUSH1 0x0 DUP1 REVERT JUMPDEST PUSH1 0x0 PUSH20 0xFFFFFFFFFFFFFFFFFFFFFFFFFFFFFFFFFFFFFFFF DUP3 AND SWAP1 POP SWAP2 SWAP1 POP JUMP JUMPDEST PUSH1 0x0 PUSH2 0x35E0 DUP3 PUSH2 0x35B5 JUMP JUMPDEST SWAP1 POP SWAP2 SWAP1 POP JUMP JUMPDEST PUSH2 0x35F0 DUP2 PUSH2 0x35D5 JUMP JUMPDEST DUP2 EQ PUSH2 0x35FB JUMPI PUSH1 0x0 DUP1 REVERT JUMPDEST POP JUMP JUMPDEST PUSH1 0x0 DUP2 CALLDATALOAD SWAP1 POP PUSH2 0x360D DUP2 PUSH2 0x35E7 JUMP JUMPDEST SWAP3 SWAP2 POP POP JUMP JUMPDEST PUSH1 0x0 DUP2 SWAP1 POP SWAP2 SWAP1 POP JUMP JUMPDEST PUSH2 0x3626 DUP2 PUSH2 0x3613 JUMP JUMPDEST DUP2 EQ PUSH2 0x3631 JUMPI PUSH1 0x0 DUP1 REVERT JUMPDEST POP JUMP JUMPDEST PUSH1 0x0 DUP2 CALLDATALOAD SWAP1 POP PUSH2 0x3643 DUP2 PUSH2 0x361D JUMP JUMPDEST SWAP3 SWAP2 POP POP JUMP JUMPDEST PUSH1 0x0 DUP1 PUSH1 0x40 DUP4 DUP6 SUB SLT ISZERO PUSH2 0x3660 JUMPI PUSH2 0x365F PUSH2 0x35AB JUMP JUMPDEST JUMPDEST PUSH1 0x0 PUSH2 0x366E DUP6 DUP3 DUP7 ADD PUSH2 0x35FE JUMP JUMPDEST SWAP3 POP POP PUSH1 0x20 PUSH2 0x367F DUP6 DUP3 DUP7 ADD PUSH2 0x3634 JUMP JUMPDEST SWAP2 POP POP SWAP3 POP SWAP3 SWAP1 POP JUMP JUMPDEST PUSH2 0x3692 DUP2 PUSH2 0x3613 JUMP JUMPDEST DUP3 MSTORE POP POP JUMP JUMPDEST PUSH2 0x36A1 DUP2 PUSH2 0x35D5 JUMP JUMPDEST DUP3 MSTORE POP POP JUMP JUMPDEST PUSH1 0x0 PUSH1 0x40 DUP3 ADD SWAP1 POP PUSH2 0x36BC PUSH1 0x0 DUP4 ADD DUP6 PUSH2 0x3689 JUMP JUMPDEST PUSH2 0x36C9 PUSH1 0x20 DUP4 ADD DUP5 PUSH2 0x3698 JUMP JUMPDEST SWAP4 SWAP3 POP POP POP JUMP JUMPDEST PUSH1 0x0 DUP1 REVERT JUMPDEST PUSH1 0x0 DUP1 REVERT JUMPDEST PUSH1 0x0 DUP1 REVERT JUMPDEST PUSH1 0x0 DUP1 DUP4 PUSH1 0x1F DUP5 ADD SLT PUSH2 0x36F5 JUMPI PUSH2 0x36F4 PUSH2 0x36D0 JUMP JUMPDEST JUMPDEST DUP3 CALLDATALOAD SWAP1 POP PUSH8 0xFFFFFFFFFFFFFFFF DUP2 GT ISZERO PUSH2 0x3712 JUMPI PUSH2 0x3711 PUSH2 0x36D5 JUMP JUMPDEST JUMPDEST PUSH1 0x20 DUP4 ADD SWAP2 POP DUP4 PUSH1 0x1 DUP3 MUL DUP4 ADD GT ISZERO PUSH2 0x372E JUMPI PUSH2 0x372D PUSH2 0x36DA JUMP JUMPDEST JUMPDEST SWAP3 POP SWAP3 SWAP1 POP JUMP JUMPDEST PUSH1 0x0 DUP1 PUSH1 0x0 DUP1 PUSH1 0x0 PUSH1 0x80 DUP7 DUP9 SUB SLT ISZERO PUSH2 0x3751 JUMPI PUSH2 0x3750 PUSH2 0x35AB JUMP JUMPDEST JUMPDEST PUSH1 0x0 PUSH2 0x375F DUP9 DUP3 DUP10 ADD PUSH2 0x35FE JUMP JUMPDEST SWAP6 POP POP PUSH1 0x20 PUSH2 0x3770 DUP9 DUP3 DUP10 ADD PUSH2 0x35FE JUMP JUMPDEST SWAP5 POP POP PUSH1 0x40 PUSH2 0x3781 DUP9 DUP3 DUP10 ADD PUSH2 0x3634 JUMP JUMPDEST SWAP4 POP POP PUSH1 0x60 DUP7 ADD CALLDATALOAD PUSH8 0xFFFFFFFFFFFFFFFF DUP2 GT ISZERO PUSH2 0x37A2 JUMPI PUSH2 0x37A1 PUSH2 0x35B0 JUMP JUMPDEST JUMPDEST PUSH2 0x37AE DUP9 DUP3 DUP10 ADD PUSH2 0x36DF JUMP JUMPDEST SWAP3 POP SWAP3 POP POP SWAP3 SWAP6 POP SWAP3 SWAP6 SWAP1 SWAP4 POP JUMP JUMPDEST PUSH1 0x0 PUSH32 0xFFFFFFFF00000000000000000000000000000000000000000000000000000000 DUP3 AND SWAP1 POP SWAP2 SWAP1 POP JUMP JUMPDEST PUSH2 0x37F2 DUP2 PUSH2 0x37BD JUMP JUMPDEST DUP3 MSTORE POP POP JUMP JUMPDEST PUSH1 0x0 PUSH1 0x20 DUP3 ADD SWAP1 POP PUSH2 0x380D PUSH1 0x0 DUP4 ADD DUP5 PUSH2 0x37E9 JUMP JUMPDEST SWAP3 SWAP2 POP POP JUMP JUMPDEST PUSH1 0x0 PUSH1 0x20 DUP3 ADD SWAP1 POP PUSH2 0x3828 PUSH1 0x0 DUP4 ADD DUP5 PUSH2 0x3689 JUMP JUMPDEST SWAP3 SWAP2 POP POP JUMP JUMPDEST PUSH1 0x0 PUSH1 0x20 DUP3 DUP5 SUB SLT ISZERO PUSH2 0x3844 JUMPI PUSH2 0x3843 PUSH2 0x35AB JUMP JUMPDEST JUMPDEST PUSH1 0x0 PUSH2 0x3852 DUP5 DUP3 DUP6 ADD PUSH2 0x35FE JUMP JUMPDEST SWAP2 POP POP SWAP3 SWAP2 POP POP JUMP JUMPDEST PUSH1 0x0 DUP1 PUSH1 0x0 DUP1 PUSH1 0x80 DUP6 DUP8 SUB SLT ISZERO PUSH2 0x3875 JUMPI PUSH2 0x3874 PUSH2 0x35AB JUMP JUMPDEST JUMPDEST PUSH1 0x0 PUSH2 0x3883 DUP8 DUP3 DUP9 ADD PUSH2 0x3634 JUMP JUMPDEST SWAP5 POP POP PUSH1 0x20 PUSH2 0x3894 DUP8 DUP3 DUP9 ADD PUSH2 0x3634 JUMP JUMPDEST SWAP4 POP POP PUSH1 0x40 PUSH2 0x38A5 DUP8 DUP3 DUP9 ADD PUSH2 0x35FE JUMP JUMPDEST SWAP3 POP POP PUSH1 0x60 PUSH2 0x38B6 DUP8 DUP3 DUP9 ADD PUSH2 0x35FE JUMP JUMPDEST SWAP2 POP POP SWAP3 SWAP6 SWAP2 SWAP5 POP SWAP3 POP JUMP JUMPDEST PUSH1 0x0 PUSH1 0x20 DUP3 ADD SWAP1 POP PUSH2 0x38D7 PUSH1 0x0 DUP4 ADD DUP5 PUSH2 0x3698 JUMP JUMPDEST SWAP3 SWAP2 POP POP JUMP JUMPDEST PUSH1 0x0 DUP1 PUSH1 0x0 PUSH1 0x60 DUP5 DUP7 SUB SLT ISZERO PUSH2 0x38F6 JUMPI PUSH2 0x38F5 PUSH2 0x35AB JUMP JUMPDEST JUMPDEST PUSH1 0x0 PUSH2 0x3904 DUP7 DUP3 DUP8 ADD PUSH2 0x3634 JUMP JUMPDEST SWAP4 POP POP PUSH1 0x20 PUSH2 0x3915 DUP7 DUP3 DUP8 ADD PUSH2 0x35FE JUMP JUMPDEST SWAP3 POP POP PUSH1 0x40 PUSH2 0x3926 DUP7 DUP3 DUP8 ADD PUSH2 0x35FE JUMP JUMPDEST SWAP2 POP POP SWAP3 POP SWAP3 POP SWAP3 JUMP JUMPDEST PUSH1 0x0 PUSH1 0x20 DUP3 DUP5 SUB SLT ISZERO PUSH2 0x3946 JUMPI PUSH2 0x3945 PUSH2 0x35AB JUMP JUMPDEST JUMPDEST PUSH1 0x0 PUSH2 0x3954 DUP5 DUP3 DUP6 ADD PUSH2 0x3634 JUMP JUMPDEST SWAP2 POP POP SWAP3 SWAP2 POP POP JUMP JUMPDEST PUSH1 0x0 DUP1 PUSH1 0x0 PUSH1 0x60 DUP5 DUP7 SUB SLT ISZERO PUSH2 0x3976 JUMPI PUSH2 0x3975 PUSH2 0x35AB JUMP JUMPDEST JUMPDEST PUSH1 0x0 PUSH2 0x3984 DUP7 DUP3 DUP8 ADD PUSH2 0x35FE JUMP JUMPDEST SWAP4 POP POP PUSH1 0x20 PUSH2 0x3995 DUP7 DUP3 DUP8 ADD PUSH2 0x35FE JUMP JUMPDEST SWAP3 POP POP PUSH1 0x40 PUSH2 0x39A6 DUP7 DUP3 DUP8 ADD PUSH2 0x3634 JUMP JUMPDEST SWAP2 POP POP SWAP3 POP SWAP3 POP SWAP3 JUMP JUMPDEST PUSH1 0x0 DUP2 ISZERO ISZERO SWAP1 POP SWAP2 SWAP1 POP JUMP JUMPDEST PUSH2 0x39C5 DUP2 PUSH2 0x39B0 JUMP JUMPDEST DUP3 MSTORE POP POP JUMP JUMPDEST PUSH1 0x0 PUSH1 0xE0 DUP3 ADD SWAP1 POP PUSH2 0x39E0 PUSH1 0x0 DUP4 ADD DUP11 PUSH2 0x3698 JUMP JUMPDEST PUSH2 0x39ED PUSH1 0x20 DUP4 ADD DUP10 PUSH2 0x3689 JUMP JUMPDEST PUSH2 0x39FA PUSH1 0x40 DUP4 ADD DUP9 PUSH2 0x3689 JUMP JUMPDEST PUSH2 0x3A07 PUSH1 0x60 DUP4 ADD DUP8 PUSH2 0x3689 JUMP JUMPDEST PUSH2 0x3A14 PUSH1 0x80 DUP4 ADD DUP7 PUSH2 0x3689 JUMP JUMPDEST PUSH2 0x3A21 PUSH1 0xA0 DUP4 ADD DUP6 PUSH2 0x3689 JUMP JUMPDEST PUSH2 0x3A2E PUSH1 0xC0 DUP4 ADD DUP5 PUSH2 0x39BC JUMP JUMPDEST SWAP9 SWAP8 POP POP POP POP POP POP POP POP JUMP JUMPDEST PUSH1 0x0 DUP3 DUP3 MSTORE PUSH1 0x20 DUP3 ADD SWAP1 POP SWAP3 SWAP2 POP POP JUMP JUMPDEST PUSH32 0x596F7520416C7265616479204465706F736974204E4654000000000000000000 PUSH1 0x0 DUP3 ADD MSTORE POP JUMP JUMPDEST PUSH1 0x0 PUSH2 0x3A81 PUSH1 0x17 DUP4 PUSH2 0x3A3A JUMP JUMPDEST SWAP2 POP PUSH2 0x3A8C DUP3 PUSH2 0x3A4B JUMP JUMPDEST PUSH1 0x20 DUP3 ADD SWAP1 POP SWAP2 SWAP1 POP JUMP JUMPDEST PUSH1 0x0 PUSH1 0x20 DUP3 ADD SWAP1 POP DUP2 DUP2 SUB PUSH1 0x0 DUP4 ADD MSTORE PUSH2 0x3AB0 DUP2 PUSH2 0x3A74 JUMP JUMPDEST SWAP1 POP SWAP2 SWAP1 POP JUMP JUMPDEST PUSH32 0x313520446179732043617465676F72792069732046756C6C2021212100000000 PUSH1 0x0 DUP3 ADD MSTORE POP JUMP JUMPDEST PUSH1 0x0 PUSH2 0x3AED PUSH1 0x1C DUP4 PUSH2 0x3A3A JUMP JUMPDEST SWAP2 POP PUSH2 0x3AF8 DUP3 PUSH2 0x3AB7 JUMP JUMPDEST PUSH1 0x20 DUP3 ADD SWAP1 POP SWAP2 SWAP1 POP JUMP JUMPDEST PUSH1 0x0 PUSH1 0x20 DUP3 ADD SWAP1 POP DUP2 DUP2 SUB PUSH1 0x0 DUP4 ADD MSTORE PUSH2 0x3B1C DUP2 PUSH2 0x3AE0 JUMP JUMPDEST SWAP1 POP SWAP2 SWAP1 POP JUMP JUMPDEST PUSH32 0x4E487B7100000000000000000000000000000000000000000000000000000000 PUSH1 0x0 MSTORE PUSH1 0x11 PUSH1 0x4 MSTORE PUSH1 0x24 PUSH1 0x0 REVERT JUMPDEST PUSH1 0x0 PUSH2 0x3B5D DUP3 PUSH2 0x3613 JUMP JUMPDEST SWAP2 POP PUSH2 0x3B68 DUP4 PUSH2 0x3613 JUMP JUMPDEST SWAP3 POP DUP3 DUP3 MUL PUSH2 0x3B76 DUP2 PUSH2 0x3613 JUMP JUMPDEST SWAP2 POP DUP3 DUP3 DIV DUP5 EQ DUP4 ISZERO OR PUSH2 0x3B8D JUMPI PUSH2 0x3B8C PUSH2 0x3B23 JUMP JUMPDEST JUMPDEST POP SWAP3 SWAP2 POP POP JUMP JUMPDEST PUSH1 0x0 PUSH2 0x3B9F DUP3 PUSH2 0x3613 JUMP JUMPDEST SWAP2 POP PUSH2 0x3BAA DUP4 PUSH2 0x3613 JUMP JUMPDEST SWAP3 POP DUP3 DUP3 ADD SWAP1 POP DUP1 DUP3 GT ISZERO PUSH2 0x3BC2 JUMPI PUSH2 0x3BC1 PUSH2 0x3B23 JUMP JUMPDEST JUMPDEST SWAP3 SWAP2 POP POP JUMP JUMPDEST PUSH1 0x0 DUP3 DUP3 MSTORE PUSH1 0x20 DUP3 ADD SWAP1 POP SWAP3 SWAP2 POP POP JUMP JUMPDEST POP JUMP JUMPDEST PUSH1 0x0 PUSH2 0x3BE9 PUSH1 0x0 DUP4 PUSH2 0x3BC8 JUMP JUMPDEST SWAP2 POP PUSH2 0x3BF4 DUP3 PUSH2 0x3BD9 JUMP JUMPDEST PUSH1 0x0 DUP3 ADD SWAP1 POP SWAP2 SWAP1 POP JUMP JUMPDEST PUSH1 0x0 PUSH1 0x80 DUP3 ADD SWAP1 POP PUSH2 0x3C14 PUSH1 0x0 DUP4 ADD DUP7 PUSH2 0x3698 JUMP JUMPDEST PUSH2 0x3C21 PUSH1 0x20 DUP4 ADD DUP6 PUSH2 0x3698 JUMP JUMPDEST PUSH2 0x3C2E PUSH1 0x40 DUP4 ADD DUP5 PUSH2 0x3689 JUMP JUMPDEST DUP2 DUP2 SUB PUSH1 0x60 DUP4 ADD MSTORE PUSH2 0x3C3F DUP2 PUSH2 0x3BDC JUMP JUMPDEST SWAP1 POP SWAP5 SWAP4 POP POP POP POP JUMP JUMPDEST PUSH32 0x333020446179732043617465676F72792069732046756C6C2021212100000000 PUSH1 0x0 DUP3 ADD MSTORE POP JUMP JUMPDEST PUSH1 0x0 PUSH2 0x3C7F PUSH1 0x1C DUP4 PUSH2 0x3A3A JUMP JUMPDEST SWAP2 POP PUSH2 0x3C8A DUP3 PUSH2 0x3C49 JUMP JUMPDEST PUSH1 0x20 DUP3 ADD SWAP1 POP SWAP2 SWAP1 POP JUMP JUMPDEST PUSH1 0x0 PUSH1 0x20 DUP3 ADD SWAP1 POP DUP2 DUP2 SUB PUSH1 0x0 DUP4 ADD MSTORE PUSH2 0x3CAE DUP2 PUSH2 0x3C72 JUMP JUMPDEST SWAP1 POP SWAP2 SWAP1 POP JUMP JUMPDEST PUSH32 0x363020446179732043617465676F72792069732046756C6C2021212100000000 PUSH1 0x0 DUP3 ADD MSTORE POP JUMP JUMPDEST PUSH1 0x0 PUSH2 0x3CEB PUSH1 0x1C DUP4 PUSH2 0x3A3A JUMP JUMPDEST SWAP2 POP PUSH2 0x3CF6 DUP3 PUSH2 0x3CB5 JUMP JUMPDEST PUSH1 0x20 DUP3 ADD SWAP1 POP SWAP2 SWAP1 POP JUMP JUMPDEST PUSH1 0x0 PUSH1 0x20 DUP3 ADD SWAP1 POP DUP2 DUP2 SUB PUSH1 0x0 DUP4 ADD MSTORE PUSH2 0x3D1A DUP2 PUSH2 0x3CDE JUMP JUMPDEST SWAP1 POP SWAP2 SWAP1 POP JUMP JUMPDEST PUSH32 0x393020446179732043617465676F72792069732046756C6C2021212100000000 PUSH1 0x0 DUP3 ADD MSTORE POP JUMP JUMPDEST PUSH1 0x0 PUSH2 0x3D57 PUSH1 0x1C DUP4 PUSH2 0x3A3A JUMP JUMPDEST SWAP2 POP PUSH2 0x3D62 DUP3 PUSH2 0x3D21 JUMP JUMPDEST PUSH1 0x20 DUP3 ADD SWAP1 POP SWAP2 SWAP1 POP JUMP JUMPDEST PUSH1 0x0 PUSH1 0x20 DUP3 ADD SWAP1 POP DUP2 DUP2 SUB PUSH1 0x0 DUP4 ADD MSTORE PUSH2 0x3D86 DUP2 PUSH2 0x3D4A JUMP JUMPDEST SWAP1 POP SWAP2 SWAP1 POP JUMP JUMPDEST PUSH32 0x53656C6C65637420446179732031352C33302C36302C39302021212100000000 PUSH1 0x0 DUP3 ADD MSTORE POP JUMP JUMPDEST PUSH1 0x0 PUSH2 0x3DC3 PUSH1 0x1C DUP4 PUSH2 0x3A3A JUMP JUMPDEST SWAP2 POP PUSH2 0x3DCE DUP3 PUSH2 0x3D8D JUMP JUMPDEST PUSH1 0x20 DUP3 ADD SWAP1 POP SWAP2 SWAP1 POP JUMP JUMPDEST PUSH1 0x0 PUSH1 0x20 DUP3 ADD SWAP1 POP DUP2 DUP2 SUB PUSH1 0x0 DUP4 ADD MSTORE PUSH2 0x3DF2 DUP2 PUSH2 0x3DB6 JUMP JUMPDEST SWAP1 POP SWAP2 SWAP1 POP JUMP JUMPDEST PUSH32 0x506C65617365204669727374204465706F736974204E46542021212100000000 PUSH1 0x0 DUP3 ADD MSTORE POP JUMP JUMPDEST PUSH1 0x0 PUSH2 0x3E2F PUSH1 0x1C DUP4 PUSH2 0x3A3A JUMP JUMPDEST SWAP2 POP PUSH2 0x3E3A DUP3 PUSH2 0x3DF9 JUMP JUMPDEST PUSH1 0x20 DUP3 ADD SWAP1 POP SWAP2 SWAP1 POP JUMP JUMPDEST PUSH1 0x0 PUSH1 0x20 DUP3 ADD SWAP1 POP DUP2 DUP2 SUB PUSH1 0x0 DUP4 ADD MSTORE PUSH2 0x3E5E DUP2 PUSH2 0x3E22 JUMP JUMPDEST SWAP1 POP SWAP2 SWAP1 POP JUMP JUMPDEST PUSH1 0x0 PUSH2 0x3E70 DUP3 PUSH2 0x3613 JUMP JUMPDEST SWAP2 POP PUSH2 0x3E7B DUP4 PUSH2 0x3613 JUMP JUMPDEST SWAP3 POP DUP3 DUP3 SUB SWAP1 POP DUP2 DUP2 GT ISZERO PUSH2 0x3E93 JUMPI PUSH2 0x3E92 PUSH2 0x3B23 JUMP JUMPDEST JUMPDEST SWAP3 SWAP2 POP POP JUMP JUMPDEST PUSH32 0x4E487B7100000000000000000000000000000000000000000000000000000000 PUSH1 0x0 MSTORE PUSH1 0x12 PUSH1 0x4 MSTORE PUSH1 0x24 PUSH1 0x0 REVERT JUMPDEST PUSH1 0x0 PUSH2 0x3ED3 DUP3 PUSH2 0x3613 JUMP JUMPDEST SWAP2 POP PUSH2 0x3EDE DUP4 PUSH2 0x3613 JUMP JUMPDEST SWAP3 POP DUP3 PUSH2 0x3EEE JUMPI PUSH2 0x3EED PUSH2 0x3E99 JUMP JUMPDEST JUMPDEST DUP3 DUP3 DIV SWAP1 POP SWAP3 SWAP2 POP POP JUMP JUMPDEST PUSH32 0x4F776E61626C653A206E6577206F776E657220697320746865207A65726F2061 PUSH1 0x0 DUP3 ADD MSTORE PUSH32 0x6464726573730000000000000000000000000000000000000000000000000000 PUSH1 0x20 DUP3 ADD MSTORE POP JUMP JUMPDEST PUSH1 0x0 PUSH2 0x3F55 PUSH1 0x26 DUP4 PUSH2 0x3A3A JUMP JUMPDEST SWAP2 POP PUSH2 0x3F60 DUP3 PUSH2 0x3EF9 JUMP JUMPDEST PUSH1 0x40 DUP3 ADD SWAP1 POP SWAP2 SWAP1 POP JUMP JUMPDEST PUSH1 0x0 PUSH1 0x20 DUP3 ADD SWAP1 POP DUP2 DUP2 SUB PUSH1 0x0 DUP4 ADD MSTORE PUSH2 0x3F84 DUP2 PUSH2 0x3F48 JUMP JUMPDEST SWAP1 POP SWAP2 SWAP1 POP JUMP JUMPDEST PUSH32 0x4F776E61626C653A2063616C6C6572206973206E6F7420746865206F776E6572 PUSH1 0x0 DUP3 ADD MSTORE POP JUMP JUMPDEST PUSH1 0x0 PUSH2 0x3FC1 PUSH1 0x20 DUP4 PUSH2 0x3A3A JUMP JUMPDEST SWAP2 POP PUSH2 0x3FCC DUP3 PUSH2 0x3F8B JUMP JUMPDEST PUSH1 0x20 DUP3 ADD SWAP1 POP SWAP2 SWAP1 POP JUMP JUMPDEST PUSH1 0x0 PUSH1 0x20 DUP3 ADD SWAP1 POP DUP2 DUP2 SUB PUSH1 0x0 DUP4 ADD MSTORE PUSH2 0x3FF0 DUP2 PUSH2 0x3FB4 JUMP JUMPDEST SWAP1 POP SWAP2 SWAP1 POP JUMP JUMPDEST PUSH1 0x0 PUSH1 0x40 DUP3 ADD SWAP1 POP PUSH2 0x400C PUSH1 0x0 DUP4 ADD DUP6 PUSH2 0x3698 JUMP JUMPDEST PUSH2 0x4019 PUSH1 0x20 DUP4 ADD DUP5 PUSH2 0x3689 JUMP JUMPDEST SWAP4 SWAP3 POP POP POP JUMP JUMPDEST PUSH32 0x436F756E7465723A2064656372656D656E74206F766572666C6F770000000000 PUSH1 0x0 DUP3 ADD MSTORE POP JUMP JUMPDEST PUSH1 0x0 PUSH2 0x4056 PUSH1 0x1B DUP4 PUSH2 0x3A3A JUMP JUMPDEST SWAP2 POP PUSH2 0x4061 DUP3 PUSH2 0x4020 JUMP JUMPDEST PUSH1 0x20 DUP3 ADD SWAP1 POP SWAP2 SWAP1 POP JUMP JUMPDEST PUSH1 0x0 PUSH1 0x20 DUP3 ADD SWAP1 POP DUP2 DUP2 SUB PUSH1 0x0 DUP4 ADD MSTORE PUSH2 0x4085 DUP2 PUSH2 0x4049 JUMP JUMPDEST SWAP1 POP SWAP2 SWAP1 POP JUMP JUMPDEST PUSH1 0x0 PUSH1 0x60 DUP3 ADD SWAP1 POP PUSH2 0x40A1 PUSH1 0x0 DUP4 ADD DUP7 PUSH2 0x3698 JUMP JUMPDEST PUSH2 0x40AE PUSH1 0x20 DUP4 ADD DUP6 PUSH2 0x3698 JUMP JUMPDEST PUSH2 0x40BB PUSH1 0x40 DUP4 ADD DUP5 PUSH2 0x3689 JUMP JUMPDEST SWAP5 SWAP4 POP POP POP POP JUMP JUMPDEST PUSH2 0x40CC DUP2 PUSH2 0x39B0 JUMP JUMPDEST DUP2 EQ PUSH2 0x40D7 JUMPI PUSH1 0x0 DUP1 REVERT JUMPDEST POP JUMP JUMPDEST PUSH1 0x0 DUP2 MLOAD SWAP1 POP PUSH2 0x40E9 DUP2 PUSH2 0x40C3 JUMP JUMPDEST SWAP3 SWAP2 POP POP JUMP JUMPDEST PUSH1 0x0 PUSH1 0x20 DUP3 DUP5 SUB SLT ISZERO PUSH2 0x4105 JUMPI PUSH2 0x4104 PUSH2 0x35AB JUMP JUMPDEST JUMPDEST PUSH1 0x0 PUSH2 0x4113 DUP5 DUP3 DUP6 ADD PUSH2 0x40DA JUMP JUMPDEST SWAP2 POP POP SWAP3 SWAP2 POP POP JUMP JUMPDEST PUSH32 0x5361666545524332303A204552433230206F7065726174696F6E20646964206E PUSH1 0x0 DUP3 ADD MSTORE PUSH32 0x6F74207375636365656400000000000000000000000000000000000000000000 PUSH1 0x20 DUP3 ADD MSTORE POP JUMP JUMPDEST PUSH1 0x0 PUSH2 0x4178 PUSH1 0x2A DUP4 PUSH2 0x3A3A JUMP JUMPDEST SWAP2 POP PUSH2 0x4183 DUP3 PUSH2 0x411C JUMP JUMPDEST PUSH1 0x40 DUP3 ADD SWAP1 POP SWAP2 SWAP1 POP JUMP JUMPDEST PUSH1 0x0 PUSH1 0x20 DUP3 ADD SWAP1 POP DUP2 DUP2 SUB PUSH1 0x0 DUP4 ADD MSTORE PUSH2 0x41A7 DUP2 PUSH2 0x416B JUMP JUMPDEST SWAP1 POP SWAP2 SWAP1 POP JUMP JUMPDEST PUSH32 0x416464726573733A20696E73756666696369656E742062616C616E636520666F PUSH1 0x0 DUP3 ADD MSTORE PUSH32 0x722063616C6C0000000000000000000000000000000000000000000000000000 PUSH1 0x20 DUP3 ADD MSTORE POP JUMP JUMPDEST PUSH1 0x0 PUSH2 0x420A PUSH1 0x26 DUP4 PUSH2 0x3A3A JUMP JUMPDEST SWAP2 POP PUSH2 0x4215 DUP3 PUSH2 0x41AE JUMP JUMPDEST PUSH1 0x40 DUP3 ADD SWAP1 POP SWAP2 SWAP1 POP JUMP JUMPDEST PUSH1 0x0 PUSH1 0x20 DUP3 ADD SWAP1 POP DUP2 DUP2 SUB PUSH1 0x0 DUP4 ADD MSTORE PUSH2 0x4239 DUP2 PUSH2 0x41FD JUMP JUMPDEST SWAP1 POP SWAP2 SWAP1 POP JUMP JUMPDEST PUSH1 0x0 DUP2 MLOAD SWAP1 POP SWAP2 SWAP1 POP JUMP JUMPDEST PUSH1 0x0 DUP2 SWAP1 POP SWAP3 SWAP2 POP POP JUMP JUMPDEST PUSH1 0x0 JUMPDEST DUP4 DUP2 LT ISZERO PUSH2 0x4274 JUMPI DUP1 DUP3 ADD MLOAD DUP2 DUP5 ADD MSTORE PUSH1 0x20 DUP2 ADD SWAP1 POP PUSH2 0x4259 JUMP JUMPDEST PUSH1 0x0 DUP5 DUP5 ADD MSTORE POP POP POP POP JUMP JUMPDEST PUSH1 0x0 PUSH2 0x428B DUP3 PUSH2 0x4240 JUMP JUMPDEST PUSH2 0x4295 DUP2 DUP6 PUSH2 0x424B JUMP JUMPDEST SWAP4 POP PUSH2 0x42A5 DUP2 DUP6 PUSH1 0x20 DUP7 ADD PUSH2 0x4256 JUMP JUMPDEST DUP1 DUP5 ADD SWAP2 POP POP SWAP3 SWAP2 POP POP JUMP JUMPDEST PUSH1 0x0 PUSH2 0x42BD DUP3 DUP5 PUSH2 0x4280 JUMP JUMPDEST SWAP2 POP DUP2 SWAP1 POP SWAP3 SWAP2 POP POP JUMP JUMPDEST PUSH32 0x416464726573733A2063616C6C20746F206E6F6E2D636F6E7472616374000000 PUSH1 0x0 DUP3 ADD MSTORE POP JUMP JUMPDEST PUSH1 0x0 PUSH2 0x42FE PUSH1 0x1D DUP4 PUSH2 0x3A3A JUMP JUMPDEST SWAP2 POP PUSH2 0x4309 DUP3 PUSH2 0x42C8 JUMP JUMPDEST PUSH1 0x20 DUP3 ADD SWAP1 POP SWAP2 SWAP1 POP JUMP JUMPDEST PUSH1 0x0 PUSH1 0x20 DUP3 ADD SWAP1 POP DUP2 DUP2 SUB PUSH1 0x0 DUP4 ADD MSTORE PUSH2 0x432D DUP2 PUSH2 0x42F1 JUMP JUMPDEST SWAP1 POP SWAP2 SWAP1 POP JUMP JUMPDEST PUSH1 0x0 DUP2 MLOAD SWAP1 POP SWAP2 SWAP1 POP JUMP JUMPDEST PUSH1 0x0 PUSH1 0x1F NOT PUSH1 0x1F DUP4 ADD AND SWAP1 POP SWAP2 SWAP1 POP JUMP JUMPDEST PUSH1 0x0 PUSH2 0x435B DUP3 PUSH2 0x4334 JUMP JUMPDEST PUSH2 0x4365 DUP2 DUP6 PUSH2 0x3A3A JUMP JUMPDEST SWAP4 POP PUSH2 0x4375 DUP2 DUP6 PUSH1 0x20 DUP7 ADD PUSH2 0x4256 JUMP JUMPDEST PUSH2 0x437E DUP2 PUSH2 0x433F JUMP JUMPDEST DUP5 ADD SWAP2 POP POP SWAP3 SWAP2 POP POP JUMP JUMPDEST PUSH1 0x0 PUSH1 0x20 DUP3 ADD SWAP1 POP DUP2 DUP2 SUB PUSH1 0x0 DUP4 ADD MSTORE PUSH2 0x43A3 DUP2 DUP5 PUSH2 0x4350 JUMP JUMPDEST SWAP1 POP SWAP3 SWAP2 POP POP JUMP INVALID LOG2 PUSH5 0x6970667358 0x22 SLT KECCAK256 RETURNDATASIZE DUP6 0xBE 0xE8 0xD2 0x23 0xD6 PUSH1 0x6 DUP11 SUB PUSH10 0x98A7956F23D6E3B44BA2 EXP CODESIZE POP 0xA9 0xC0 0xBA 0xE0 EXTCODESIZE PUSH21 0x7F64736F6C63430008120033000000000000000000 "
				},
				"gasEstimates": {
					"creation": {
						"codeDepositCost": "3475400",
						"executionCost": "infinite",
						"totalCost": "infinite"
					},
					"external": {
						"AdminAddToken(uint256)": "infinite",
						"Count(address,uint256)": "infinite",
						"ERC20Address()": "2537",
						"ERC721address()": "2603",
						"ERCDetail(address,uint256)": "infinite",
						"Staker(address,address,uint256)": "infinite",
						"TotalRemaningToken()": "2452",
						"category1()": "2511",
						"category2()": "2488",
						"category3()": "2553",
						"category4()": "2533",
						"countDeposit(address)": "2881",
						"deposit(uint256,uint256,address,address)": "infinite",
						"onERC721Received(address,address,uint256,bytes)": "infinite",
						"owner()": "2633",
						"renounceOwnership()": "30443",
						"transferOwnership(address)": "30832",
						"withdraw(uint256,address,address)": "infinite"
					}
				},
				"methodIdentifiers": {
					"AdminAddToken(uint256)": "c0cd40ee",
					"Count(address,uint256)": "d9dcb60a",
					"ERC20Address()": "a6021ace",
					"ERC721address()": "b7171a2e",
					"ERCDetail(address,uint256)": "09e3e410",
					"Staker(address,address,uint256)": "c1876b67",
					"TotalRemaningToken()": "4930e5d1",
					"category1()": "3f431230",
					"category2()": "b10558ab",
					"category3()": "f7d252f4",
					"category4()": "41fcd29a",
					"countDeposit(address)": "7628c720",
					"deposit(uint256,uint256,address,address)": "84715b11",
					"onERC721Received(address,address,uint256,bytes)": "150b7a02",
					"owner()": "8da5cb5b",
					"renounceOwnership()": "715018a6",
					"transferOwnership(address)": "f2fde38b",
					"withdraw(uint256,address,address)": "b460af94"
				}
			},
			"storageLayout": {
				"storage": [
					{
						"astId": 7,
						"contract": "contracts/Defly/NFTtesting.sol:NFTstaking",
						"label": "_owner",
						"offset": 0,
						"slot": "0",
						"type": "t_address"
					},
					{
						"astId": 1149,
						"contract": "contracts/Defly/NFTtesting.sol:NFTstaking",
						"label": "category1",
						"offset": 0,
						"slot": "1",
						"type": "t_struct(Counter)1030_storage"
					},
					{
						"astId": 1152,
						"contract": "contracts/Defly/NFTtesting.sol:NFTstaking",
						"label": "category2",
						"offset": 0,
						"slot": "2",
						"type": "t_struct(Counter)1030_storage"
					},
					{
						"astId": 1155,
						"contract": "contracts/Defly/NFTtesting.sol:NFTstaking",
						"label": "category3",
						"offset": 0,
						"slot": "3",
						"type": "t_struct(Counter)1030_storage"
					},
					{
						"astId": 1158,
						"contract": "contracts/Defly/NFTtesting.sol:NFTstaking",
						"label": "category4",
						"offset": 0,
						"slot": "4",
						"type": "t_struct(Counter)1030_storage"
					},
					{
						"astId": 1160,
						"contract": "contracts/Defly/NFTtesting.sol:NFTstaking",
						"label": "ERC721address",
						"offset": 0,
						"slot": "5",
						"type": "t_address"
					},
					{
						"astId": 1162,
						"contract": "contracts/Defly/NFTtesting.sol:NFTstaking",
						"label": "ERC20Address",
						"offset": 0,
						"slot": "6",
						"type": "t_address"
					},
					{
						"astId": 1164,
						"contract": "contracts/Defly/NFTtesting.sol:NFTstaking",
						"label": "TotalRemaningToken",
						"offset": 0,
						"slot": "7",
						"type": "t_uint256"
					},
					{
						"astId": 1187,
						"contract": "contracts/Defly/NFTtesting.sol:NFTstaking",
						"label": "_amount",
						"offset": 0,
						"slot": "8",
						"type": "t_uint256"
					},
					{
						"astId": 1196,
						"contract": "contracts/Defly/NFTtesting.sol:NFTstaking",
						"label": "Staker",
						"offset": 0,
						"slot": "9",
						"type": "t_mapping(t_address,t_mapping(t_address,t_mapping(t_uint256,t_struct(Detail)1179_storage)))"
					},
					{
						"astId": 1203,
						"contract": "contracts/Defly/NFTtesting.sol:NFTstaking",
						"label": "ERCDetail",
						"offset": 0,
						"slot": "10",
						"type": "t_mapping(t_address,t_mapping(t_uint256,t_struct(ERCCount)1184_storage))"
					},
					{
						"astId": 1209,
						"contract": "contracts/Defly/NFTtesting.sol:NFTstaking",
						"label": "Count",
						"offset": 0,
						"slot": "11",
						"type": "t_mapping(t_address,t_mapping(t_uint256,t_uint256))"
					},
					{
						"astId": 1213,
						"contract": "contracts/Defly/NFTtesting.sol:NFTstaking",
						"label": "countDeposit",
						"offset": 0,
						"slot": "12",
						"type": "t_mapping(t_address,t_uint256)"
					}
				],
				"types": {
					"t_address": {
						"encoding": "inplace",
						"label": "address",
						"numberOfBytes": "20"
					},
					"t_bool": {
						"encoding": "inplace",
						"label": "bool",
						"numberOfBytes": "1"
					},
					"t_mapping(t_address,t_mapping(t_address,t_mapping(t_uint256,t_struct(Detail)1179_storage)))": {
						"encoding": "mapping",
						"key": "t_address",
						"label": "mapping(address => mapping(address => mapping(uint256 => struct NFTstaking.Detail)))",
						"numberOfBytes": "32",
						"value": "t_mapping(t_address,t_mapping(t_uint256,t_struct(Detail)1179_storage))"
					},
					"t_mapping(t_address,t_mapping(t_uint256,t_struct(Detail)1179_storage))": {
						"encoding": "mapping",
						"key": "t_address",
						"label": "mapping(address => mapping(uint256 => struct NFTstaking.Detail))",
						"numberOfBytes": "32",
						"value": "t_mapping(t_uint256,t_struct(Detail)1179_storage)"
					},
					"t_mapping(t_address,t_mapping(t_uint256,t_struct(ERCCount)1184_storage))": {
						"encoding": "mapping",
						"key": "t_address",
						"label": "mapping(address => mapping(uint256 => struct NFTstaking.ERCCount))",
						"numberOfBytes": "32",
						"value": "t_mapping(t_uint256,t_struct(ERCCount)1184_storage)"
					},
					"t_mapping(t_address,t_mapping(t_uint256,t_uint256))": {
						"encoding": "mapping",
						"key": "t_address",
						"label": "mapping(address => mapping(uint256 => uint256))",
						"numberOfBytes": "32",
						"value": "t_mapping(t_uint256,t_uint256)"
					},
					"t_mapping(t_address,t_uint256)": {
						"encoding": "mapping",
						"key": "t_address",
						"label": "mapping(address => uint256)",
						"numberOfBytes": "32",
						"value": "t_uint256"
					},
					"t_mapping(t_uint256,t_struct(Detail)1179_storage)": {
						"encoding": "mapping",
						"key": "t_uint256",
						"label": "mapping(uint256 => struct NFTstaking.Detail)",
						"numberOfBytes": "32",
						"value": "t_struct(Detail)1179_storage"
					},
					"t_mapping(t_uint256,t_struct(ERCCount)1184_storage)": {
						"encoding": "mapping",
						"key": "t_uint256",
						"label": "mapping(uint256 => struct NFTstaking.ERCCount)",
						"numberOfBytes": "32",
						"value": "t_struct(ERCCount)1184_storage"
					},
					"t_mapping(t_uint256,t_uint256)": {
						"encoding": "mapping",
						"key": "t_uint256",
						"label": "mapping(uint256 => uint256)",
						"numberOfBytes": "32",
						"value": "t_uint256"
					},
					"t_struct(Counter)1030_storage": {
						"encoding": "inplace",
						"label": "struct Counters.Counter",
						"members": [
							{
								"astId": 1029,
								"contract": "contracts/Defly/NFTtesting.sol:NFTstaking",
								"label": "_value",
								"offset": 0,
								"slot": "0",
								"type": "t_uint256"
							}
						],
						"numberOfBytes": "32"
					},
					"t_struct(Detail)1179_storage": {
						"encoding": "inplace",
						"label": "struct NFTstaking.Detail",
						"members": [
							{
								"astId": 1166,
								"contract": "contracts/Defly/NFTtesting.sol:NFTstaking",
								"label": "mint721",
								"offset": 0,
								"slot": "0",
								"type": "t_address"
							},
							{
								"astId": 1168,
								"contract": "contracts/Defly/NFTtesting.sol:NFTstaking",
								"label": "tokens",
								"offset": 0,
								"slot": "1",
								"type": "t_uint256"
							},
							{
								"astId": 1170,
								"contract": "contracts/Defly/NFTtesting.sol:NFTstaking",
								"label": "day",
								"offset": 0,
								"slot": "2",
								"type": "t_uint256"
							},
							{
								"astId": 1172,
								"contract": "contracts/Defly/NFTtesting.sol:NFTstaking",
								"label": "StartTime",
								"offset": 0,
								"slot": "3",
								"type": "t_uint256"
							},
							{
								"astId": 1174,
								"contract": "contracts/Defly/NFTtesting.sol:NFTstaking",
								"label": "NFT",
								"offset": 0,
								"slot": "4",
								"type": "t_uint256"
							},
							{
								"astId": 1176,
								"contract": "contracts/Defly/NFTtesting.sol:NFTstaking",
								"label": "count",
								"offset": 0,
								"slot": "5",
								"type": "t_uint256"
							},
							{
								"astId": 1178,
								"contract": "contracts/Defly/NFTtesting.sol:NFTstaking",
								"label": "DepositToken",
								"offset": 0,
								"slot": "6",
								"type": "t_bool"
							}
						],
						"numberOfBytes": "224"
					},
					"t_struct(ERCCount)1184_storage": {
						"encoding": "inplace",
						"label": "struct NFTstaking.ERCCount",
						"members": [
							{
								"astId": 1181,
								"contract": "contracts/Defly/NFTtesting.sol:NFTstaking",
								"label": "tokenId",
								"offset": 0,
								"slot": "0",
								"type": "t_uint256"
							},
							{
								"astId": 1183,
								"contract": "contracts/Defly/NFTtesting.sol:NFTstaking",
								"label": "mintContract",
								"offset": 0,
								"slot": "1",
								"type": "t_address"
							}
						],
						"numberOfBytes": "64"
					},
					"t_uint256": {
						"encoding": "inplace",
						"label": "uint256",
						"numberOfBytes": "32"
					}
				}
			},
			"userdoc": {
				"kind": "user",
				"methods": {},
				"version": 1
			}
		}
	}
}