{
	"data": {
		"bytecode": {
			"linkReferences": {},
			"object": "60806040523480156200001157600080fd5b50604051620022c9380380620022c98339810160408190526200003491620000be565b6200003f336200006e565b600180546001600160a01b039092166001600160a01b03199283161790556002805490911633179055620000f0565b600080546001600160a01b038381166001600160a01b0319831681178455604051919092169283917f8be0079c531659141344cd1fd0a4f28419497f9722a3daafe3b4186f6b6457e09190a35050565b600060208284031215620000d157600080fd5b81516001600160a01b0381168114620000e957600080fd5b9392505050565b6121c980620001006000396000f3fe608060405234801561001057600080fd5b50600436106101425760003560e01c8063715018a6116100b8578063a6021ace1161007c578063a6021ace146102e5578063c0cd40ee146102f8578063d6f80a251461030b578063da40ef801461031e578063e88cc2be14610331578063f2fde38b1461039b57600080fd5b8063715018a614610265578063777b4cd81461026d578063897b3a681461028d5780638da5cb5b146102ad5780639131a05a146102d257600080fd5b8063217366651161010a57806321736665146101d557806322b72666146101e8578063264b4af6146102085780632e886f1f146102215780633ae732591461023c578063662b12c91461024557600080fd5b80630178be5f14610147578063032ad8fb1461015c5780630deef63a1461018257806310c404da146101a2578063186cb65b146101b5575b600080fd5b61015a610155366004611f35565b6103ae565b005b61016f61016a366004611f35565b61063b565b6040519081526020015b60405180910390f35b61016f610190366004611f35565b600b6020526000908152604090205481565b61015a6101b0366004611f57565b6106c7565b61016f6101c3366004611f90565b60096020526000908152604090205481565b61015a6101e3366004611fa9565b610e6e565b61016f6101f6366004611f35565b600d6020526000908152604090205481565b61015a610216366004611fd5565b600591909155600655565b60055460065460408051928352602083019190915201610179565b61016f60035481565b61016f610253366004611f35565b60086020526000908152604090205481565b61015a610eb5565b61016f61027b366004611f35565b600c6020526000908152604090205481565b61016f61029b366004611f90565b600a6020526000908152604090205481565b6000546001600160a01b03165b6040516001600160a01b039091168152602001610179565b61015a6102e0366004611f35565b610ec9565b6001546102ba906001600160a01b031681565b61015a610306366004611f90565b611938565b61015a610319366004611fa9565b61197f565b61016f61032c366004611f35565b6119fc565b61037161033f366004611f35565b600760205260009081526040902080546001820154600283015460038401546004909401549293919290919060ff1685565b6040805195865260208601949094529284019190915260608301521515608082015260a001610179565b61015a6103a9366004611f35565b611b37565b6001600160a01b038116600090815260076020526040902060018101546002909101544291906103df90601e61200d565b6103ea90601861200d565b6103f590603c61200d565b61040090603c61200d565b61040a919061202c565b116104825760405162461bcd60e51b815260206004820152603960248201527f596f7572205374616b652054696d6520436f6d706c6574652c20506c6561736560448201527f2043616c6c2057697468647261772046756e6374696f6e20210000000000000060648201526084015b60405180910390fd5b6001600160a01b03811660009081526007602052604081206001015462015180906104ad9042612044565b6104b7919061205b565b6001600160a01b038316600090815260076020526040812060020154919250906104e290601e61200d565b6001600160a01b038416600090815260086020526040902054610505919061205b565b90506000610513838361200d565b90506000811161056f5760405162461bcd60e51b815260206004820152602160248201527f526577617264206d7573742062652067726561746572207468616e207a65726f6044820152601760f91b6064820152608401610479565b6001600160a01b0384166000908152600c60205260409020546105929082612044565b6001600160a01b0385166000908152600c6020526040812080549091906105ba90849061202c565b909155505060015460405163a9059cbb60e01b81526001600160a01b039091169063a9059cbb906105f1908790859060040161207d565b6020604051808303816000875af1158015610610573d6000803e3d6000fd5b505050506040513d601f19601f820116820180604052508101906106349190612096565b5050505050565b6001600160a01b03811660009081526007602052604081206003015460640361066657506000919050565b6001600160a01b03821660009081526007602052604090206003015460649061068f9082612044565b6001600160a01b0384166000908152600860205260409020546106b2919061200d565b6106bc919061205b565b92915050565b919050565b6002546001600160a01b03166000908152600b60205260409020546107205760405162461bcd60e51b815260206004820152600f60248201526e506c6561736520576169742021212160881b6044820152606401610479565b600061073084633b9aca0061200d565b6001600160a01b03861660009081526007602052604090206004015490915060ff1615610ac9576001600160a01b0385166000908152600760205260409020600181015460029091015442919061078890601e61200d565b61079390601861200d565b61079e90603c61200d565b6107a990603c61200d565b6107b3919061202c565b116108005760405162461bcd60e51b815260206004820152601a60248201527f596f75722054696d6520506572696f6420436f6d706c6574652e0000000000006044820152606401610479565b6001600160a01b03851660009081526007602052604090206002015483146108635760405162461bcd60e51b815260206004820152601660248201527508adce8cae440a4d2ced0e840a6e8c2d6ca9adedce8d60531b6044820152606401610479565b6001600160a01b03851660009081526007602052604090206003015482146108cd5760405162461bcd60e51b815260206004820152601a60248201527f456e746572205269676874204561726e50657273656e746167650000000000006044820152606401610479565b6001600160a01b0385166000908152600760205260409020546108f190829061202c565b6001600160a01b0386166000908152600760205260409020908155600080516020612174833981519152546002909101540361099e576001600052600a6020527fbbc70db1b6c7afd11e79c0fb0051300458f1a3acb8ee9789d9b6b26c61ad9bc7546103e890610961908361200d565b61096b919061205b565b6001600160a01b0386166000908152600860205260408120805490919061099390849061202c565b90915550610aac9050565b600080516020612134833981519152546001600160a01b03861660009081526007602052604090206002015403610a09576002600052600a6020527fbff4442b8ed600beeb8e26b1279a0f0d14c6edfaec26d968ee13c86f7d4c2ba8546103e890610961908361200d565b600080516020612154833981519152546001600160a01b03861660009081526007602052604090206002015403610aac576003600052600a6020527fa856840544dc26124927add067d799967eac11be13e14d82cc281ea46fa39759546103e890610a74908361200d565b610a7e919061205b565b6001600160a01b03861660009081526008602052604081208054909190610aa690849061202c565b90915550505b600154610ac4906001600160a01b0316863084611bad565b610e21565b6001600052600960205260008051602061217483398151915254831480610b085750600260005260096020526000805160206121348339815191525483145b80610b2b5750600360005260096020526000805160206121548339815191525483145b610b705760405162461bcd60e51b815260206004820152601660248201527508adce8cae440a4d2ced0e840a6e8c2d6ca9adedce8d60531b6044820152606401610479565b8160641480610b7f575081604b145b80610b8a5750816032145b610bd65760405162461bcd60e51b815260206004820152601a60248201527f456e746572205269676874204561726e50657273656e746167650000000000006044820152606401610479565b60006103e860055483610be9919061200d565b610bf3919061205b565b90506040518060a001604052808284610c0c9190612044565b81524260208083019190915260408083018890526060808401889052600160809485018190526001600160a01b038c16600090815260078552839020865181559386015190840155908401516002830181905590840151600383015592909101516004909101805460ff1916911515919091179055600080516020612174833981519152549003610d03576001600052600a6020527fbbc70db1b6c7afd11e79c0fb0051300458f1a3acb8ee9789d9b6b26c61ad9bc7546103e890610cd18385612044565b610cdb919061200d565b610ce5919061205b565b6001600160a01b038716600090815260086020526040902055610e07565b600080516020612134833981519152546001600160a01b03871660009081526007602052604090206002015403610d6e576002600052600a6020527fbff4442b8ed600beeb8e26b1279a0f0d14c6edfaec26d968ee13c86f7d4c2ba8546103e890610cd18385612044565b600080516020612154833981519152546001600160a01b03871660009081526007602052604090206002015403610e07576003600052600a6020527fa856840544dc26124927add067d799967eac11be13e14d82cc281ea46fa39759546103e890610dd98385612044565b610de3919061200d565b610ded919061205b565b6001600160a01b0387166000908152600860205260409020555b600154610e1f906001600160a01b0316873085611bad565b505b6001600160a01b0385166000908152600b602052604081208054839290610e4990849061202c565b925050819055508060036000828254610e62919061202c565b90915550505050505050565b610e76611c0d565b60096020526000805160206121748339815191529290925560008051602061213483398151915255600360005260008051602061215483398151915255565b610ebd611c0d565b610ec76000611c67565b565b6001600160a01b03811660009081526007602052604090206004015460ff16610f295760405162461bcd60e51b81526020600482015260126024820152714669727374205374616b6520546f6b656e7360701b6044820152606401610479565b6001600160a01b0381166000908152600760205260408120600181015460029091015482914291610f5b90601e61200d565b610f6690601861200d565b610f7190603c61200d565b610f7c90603c61200d565b610f86919061202c565b1015611346576001600160a01b038316600090815260076020526040902060030154606403611077576001546001600160a01b038481166000908152600c6020908152604080832054600890925290912054919092169163a9059cbb918691610fee91612044565b6001600160a01b038716600090815260076020526040902054611011919061202c565b6040518363ffffffff1660e01b815260040161102e92919061207d565b6020604051808303816000875af115801561104d573d6000803e3d6000fd5b505050506040513d601f19601f820116820180604052508101906110719190612096565b506118a9565b6001600160a01b038316600090815260076020526040902060030154604b03611206576001600160a01b0383166000908152600c60209081526040808320546008909252909120546064916110cb91612044565b6110d690604b61200d565b6110e0919061205b565b6001546001600160a01b03858116600090815260076020526040902054929450169063a9059cbb90859061111590869061202c565b6040518363ffffffff1660e01b815260040161113292919061207d565b6020604051808303816000875af1158015611151573d6000803e3d6000fd5b505050506040513d601f19601f820116820180604052508101906111759190612096565b506001600160a01b0383166000908152600c60209081526040808320546008909252909120546064916111a791612044565b6111b290601961200d565b6111bc919061205b565b6001600160a01b038085166000908152600d602052604090819020839055600154905163a9059cbb60e01b8152929350169063a9059cbb9061102e9061dead90859060040161207d565b6001600160a01b038316600090815260076020526040902060030154603203611341576001600160a01b0383166000908152600c602090815260408083205460089092529091205460649161125a91612044565b61126590603261200d565b61126f919061205b565b6001546001600160a01b03858116600090815260076020526040902054929450169063a9059cbb9085906112a490869061202c565b6040518363ffffffff1660e01b81526004016112c192919061207d565b6020604051808303816000875af11580156112e0573d6000803e3d6000fd5b505050506040513d601f19601f820116820180604052508101906113049190612096565b506001600160a01b0383166000908152600c602090815260408083205460089092529091205460649161133691612044565b6111b290603261200d565b6118a9565b6001600160a01b03831660009081526007602052604081206001015481908190819062015180906113779042612044565b611381919061205b565b6001600160a01b0388166000908152600760205260409020600201549091506113ab90601e61200d565b6001600160a01b0388166000908152600860205260409020546113ce919061205b565b6001600160a01b0388166000908152600760205260409020600301549094506064036114e9576113fe818561200d565b6001600160a01b0388166000908152600c60205260409020549096506114249087612044565b6001600160a01b038816600090815260076020526040902054611447919061202c565b92506103e86006548461145a919061200d565b611464919061205b565b6001549092506001600160a01b031663a9059cbb886114838587612044565b6040518363ffffffff1660e01b81526004016114a092919061207d565b6020604051808303816000875af11580156114bf573d6000803e3d6000fd5b505050506040513d601f19601f820116820180604052508101906114e39190612096565b506118a4565b6001600160a01b038716600090815260076020526040902060030154604b036116a4576001600160a01b0387166000908152600c6020526040902054606490611532838761200d565b61153c9190612044565b61154790604b61200d565b611551919061205b565b6001600160a01b03881660009081526007602052604090205490965061157890879061202c565b92506103e86006548461158b919061200d565b611595919061205b565b6001549092506001600160a01b031663a9059cbb886115b48587612044565b6040518363ffffffff1660e01b81526004016115d192919061207d565b6020604051808303816000875af11580156115f0573d6000803e3d6000fd5b505050506040513d601f19601f820116820180604052508101906116149190612096565b506001600160a01b0387166000908152600c602052604090205460649061163b838761200d565b6116459190612044565b61165090601961200d565b61165a919061205b565b6001600160a01b038089166000908152600d602052604090819020839055600154905163a9059cbb60e01b8152929750169063a9059cbb906114a09061dead90899060040161207d565b6001600160a01b0387166000908152600760205260409020600301546032036118a4576001600160a01b0387166000908152600c60205260409020546064906116ed838761200d565b6116f79190612044565b61170290603261200d565b61170c919061205b565b6001600160a01b03881660009081526007602052604090205490965061173390879061202c565b92506103e860065484611746919061200d565b611750919061205b565b6001549092506001600160a01b031663a9059cbb8861176f8587612044565b6040518363ffffffff1660e01b815260040161178c92919061207d565b6020604051808303816000875af11580156117ab573d6000803e3d6000fd5b505050506040513d601f19601f820116820180604052508101906117cf9190612096565b506001600160a01b0387166000908152600c60205260409020546064906117f6838761200d565b6118009190612044565b61180b90603261200d565b611815919061205b565b6001600160a01b038089166000908152600d602052604090819020839055600154905163a9059cbb60e01b8152929750169063a9059cbb9061185f9061dead90899060040161207d565b6020604051808303816000875af115801561187e573d6000803e3d6000fd5b505050506040513d601f19601f820116820180604052508101906118a29190612096565b505b505050505b6001600160a01b038316600090815260076020908152604080832060048101805460ff19169055600c83528184208490556008835281842084905554600b90925282208054919290916118fd908490612044565b90915550506001600160a01b038316600090815260076020526040812054600380549192909161192e908490612044565b9091555050505050565b611940611c0d565b336000908152600b60205260408120805483929061195f90849061202c565b909155505060015461197c906001600160a01b0316333084611bad565b50565b611987611c0d565b600a6020527fbbc70db1b6c7afd11e79c0fb0051300458f1a3acb8ee9789d9b6b26c61ad9bc7929092557fbff4442b8ed600beeb8e26b1279a0f0d14c6edfaec26d968ee13c86f7d4c2ba85560036000527fa856840544dc26124927add067d799967eac11be13e14d82cc281ea46fa3975955565b6001600160a01b03811660009081526007602052604081206001810154600290910154429190611a2d90601e61200d565b611a3890601861200d565b611a4390603c61200d565b611a4e90603c61200d565b611a58919061202c565b1015611a7a57506001600160a01b031660009081526008602052604090205490565b6001600160a01b0382166000908152600760205260408120600101546201518090611aa59042612044565b611aaf919061205b565b6001600160a01b03841660009081526007602052604081206002015491925090611ada90601e61200d565b6001600160a01b038516600090815260086020526040902054611afd919061205b565b6001600160a01b0385166000908152600c602052604081205491925090611b24848461200d565b611b2e9190612044565b95945050505050565b611b3f611c0d565b6001600160a01b038116611ba45760405162461bcd60e51b815260206004820152602660248201527f4f776e61626c653a206e6577206f776e657220697320746865207a65726f206160448201526564647265737360d01b6064820152608401610479565b61197c81611c67565b604080516001600160a01b0385811660248301528416604482015260648082018490528251808303909101815260849091019091526020810180516001600160e01b03166323b872dd60e01b179052611c07908590611cb7565b50505050565b6000546001600160a01b03163314610ec75760405162461bcd60e51b815260206004820181905260248201527f4f776e61626c653a2063616c6c6572206973206e6f7420746865206f776e65726044820152606401610479565b600080546001600160a01b038381166001600160a01b0319831681178455604051919092169283917f8be0079c531659141344cd1fd0a4f28419497f9722a3daafe3b4186f6b6457e09190a35050565b6000611d0c826040518060400160405280602081526020017f5361666545524332303a206c6f772d6c6576656c2063616c6c206661696c6564815250856001600160a01b0316611d8e9092919063ffffffff16565b805190915015611d895780806020019051810190611d2a9190612096565b611d895760405162461bcd60e51b815260206004820152602a60248201527f5361666545524332303a204552433230206f7065726174696f6e20646964206e6044820152691bdd081cdd58d8d9595960b21b6064820152608401610479565b505050565b6060611d9d8484600085611da5565b949350505050565b606082471015611e065760405162461bcd60e51b815260206004820152602660248201527f416464726573733a20696e73756666696369656e742062616c616e636520666f6044820152651c8818d85b1b60d21b6064820152608401610479565b600080866001600160a01b03168587604051611e2291906120e4565b60006040518083038185875af1925050503d8060008114611e5f576040519150601f19603f3d011682016040523d82523d6000602084013e611e64565b606091505b5091509150611e7587838387611e80565b979650505050505050565b60608315611eef578251600003611ee8576001600160a01b0385163b611ee85760405162461bcd60e51b815260206004820152601d60248201527f416464726573733a2063616c6c20746f206e6f6e2d636f6e74726163740000006044820152606401610479565b5081611d9d565b611d9d8383815115611f045781518083602001fd5b8060405162461bcd60e51b81526004016104799190612100565b80356001600160a01b03811681146106c257600080fd5b600060208284031215611f4757600080fd5b611f5082611f1e565b9392505050565b60008060008060808587031215611f6d57600080fd5b611f7685611f1e565b966020860135965060408601359560600135945092505050565b600060208284031215611fa257600080fd5b5035919050565b600080600060608486031215611fbe57600080fd5b505081359360208301359350604090920135919050565b60008060408385031215611fe857600080fd5b50508035926020909101359150565b634e487b7160e01b600052601160045260246000fd5b600081600019048311821515161561202757612027611ff7565b500290565b6000821982111561203f5761203f611ff7565b500190565b60008282101561205657612056611ff7565b500390565b60008261207857634e487b7160e01b600052601260045260246000fd5b500490565b6001600160a01b03929092168252602082015260400190565b6000602082840312156120a857600080fd5b81518015158114611f5057600080fd5b60005b838110156120d35781810151838201526020016120bb565b83811115611c075750506000910152565b600082516120f68184602087016120b8565b9190910192915050565b602081526000825180602084015261211f8160408501602087016120b8565b601f01601f1916919091016040019291505056fe6cde3cea4b3a3fb2488b2808bae7556f4a405e50f65e1794383bc026131b13c3c575c31fea594a6eb97c8e9d3f9caee4c16218c6ef37e923234c0fe9014a61e792e85d02570a8092d09a6e3a57665bc3815a2699a4074001bf1ccabf660f5a36a26469706673582212204176c5387f98ce649db477dd21dc0ac4370bb46c7b3b50d75533537794a4832364736f6c634300080d0033",
			"opcodes": "PUSH1 0x80 PUSH1 0x40 MSTORE CALLVALUE DUP1 ISZERO PUSH3 0x11 JUMPI PUSH1 0x0 DUP1 REVERT JUMPDEST POP PUSH1 0x40 MLOAD PUSH3 0x22C9 CODESIZE SUB DUP1 PUSH3 0x22C9 DUP4 CODECOPY DUP2 ADD PUSH1 0x40 DUP2 SWAP1 MSTORE PUSH3 0x34 SWAP2 PUSH3 0xBE JUMP JUMPDEST PUSH3 0x3F CALLER PUSH3 0x6E JUMP JUMPDEST PUSH1 0x1 DUP1 SLOAD PUSH1 0x1 PUSH1 0x1 PUSH1 0xA0 SHL SUB SWAP1 SWAP3 AND PUSH1 0x1 PUSH1 0x1 PUSH1 0xA0 SHL SUB NOT SWAP3 DUP4 AND OR SWAP1 SSTORE PUSH1 0x2 DUP1 SLOAD SWAP1 SWAP2 AND CALLER OR SWAP1 SSTORE PUSH3 0xF0 JUMP JUMPDEST PUSH1 0x0 DUP1 SLOAD PUSH1 0x1 PUSH1 0x1 PUSH1 0xA0 SHL SUB DUP4 DUP2 AND PUSH1 0x1 PUSH1 0x1 PUSH1 0xA0 SHL SUB NOT DUP4 AND DUP2 OR DUP5 SSTORE PUSH1 0x40 MLOAD SWAP2 SWAP1 SWAP3 AND SWAP3 DUP4 SWAP2 PUSH32 0x8BE0079C531659141344CD1FD0A4F28419497F9722A3DAAFE3B4186F6B6457E0 SWAP2 SWAP1 LOG3 POP POP JUMP JUMPDEST PUSH1 0x0 PUSH1 0x20 DUP3 DUP5 SUB SLT ISZERO PUSH3 0xD1 JUMPI PUSH1 0x0 DUP1 REVERT JUMPDEST DUP2 MLOAD PUSH1 0x1 PUSH1 0x1 PUSH1 0xA0 SHL SUB DUP2 AND DUP2 EQ PUSH3 0xE9 JUMPI PUSH1 0x0 DUP1 REVERT JUMPDEST SWAP4 SWAP3 POP POP POP JUMP JUMPDEST PUSH2 0x21C9 DUP1 PUSH3 0x100 PUSH1 0x0 CODECOPY PUSH1 0x0 RETURN INVALID PUSH1 0x80 PUSH1 0x40 MSTORE CALLVALUE DUP1 ISZERO PUSH2 0x10 JUMPI PUSH1 0x0 DUP1 REVERT JUMPDEST POP PUSH1 0x4 CALLDATASIZE LT PUSH2 0x142 JUMPI PUSH1 0x0 CALLDATALOAD PUSH1 0xE0 SHR DUP1 PUSH4 0x715018A6 GT PUSH2 0xB8 JUMPI DUP1 PUSH4 0xA6021ACE GT PUSH2 0x7C JUMPI DUP1 PUSH4 0xA6021ACE EQ PUSH2 0x2E5 JUMPI DUP1 PUSH4 0xC0CD40EE EQ PUSH2 0x2F8 JUMPI DUP1 PUSH4 0xD6F80A25 EQ PUSH2 0x30B JUMPI DUP1 PUSH4 0xDA40EF80 EQ PUSH2 0x31E JUMPI DUP1 PUSH4 0xE88CC2BE EQ PUSH2 0x331 JUMPI DUP1 PUSH4 0xF2FDE38B EQ PUSH2 0x39B JUMPI PUSH1 0x0 DUP1 REVERT JUMPDEST DUP1 PUSH4 0x715018A6 EQ PUSH2 0x265 JUMPI DUP1 PUSH4 0x777B4CD8 EQ PUSH2 0x26D JUMPI DUP1 PUSH4 0x897B3A68 EQ PUSH2 0x28D JUMPI DUP1 PUSH4 0x8DA5CB5B EQ PUSH2 0x2AD JUMPI DUP1 PUSH4 0x9131A05A EQ PUSH2 0x2D2 JUMPI PUSH1 0x0 DUP1 REVERT JUMPDEST DUP1 PUSH4 0x21736665 GT PUSH2 0x10A JUMPI DUP1 PUSH4 0x21736665 EQ PUSH2 0x1D5 JUMPI DUP1 PUSH4 0x22B72666 EQ PUSH2 0x1E8 JUMPI DUP1 PUSH4 0x264B4AF6 EQ PUSH2 0x208 JUMPI DUP1 PUSH4 0x2E886F1F EQ PUSH2 0x221 JUMPI DUP1 PUSH4 0x3AE73259 EQ PUSH2 0x23C JUMPI DUP1 PUSH4 0x662B12C9 EQ PUSH2 0x245 JUMPI PUSH1 0x0 DUP1 REVERT JUMPDEST DUP1 PUSH4 0x178BE5F EQ PUSH2 0x147 JUMPI DUP1 PUSH4 0x32AD8FB EQ PUSH2 0x15C JUMPI DUP1 PUSH4 0xDEEF63A EQ PUSH2 0x182 JUMPI DUP1 PUSH4 0x10C404DA EQ PUSH2 0x1A2 JUMPI DUP1 PUSH4 0x186CB65B EQ PUSH2 0x1B5 JUMPI JUMPDEST PUSH1 0x0 DUP1 REVERT JUMPDEST PUSH2 0x15A PUSH2 0x155 CALLDATASIZE PUSH1 0x4 PUSH2 0x1F35 JUMP JUMPDEST PUSH2 0x3AE JUMP JUMPDEST STOP JUMPDEST PUSH2 0x16F PUSH2 0x16A CALLDATASIZE PUSH1 0x4 PUSH2 0x1F35 JUMP JUMPDEST PUSH2 0x63B JUMP JUMPDEST PUSH1 0x40 MLOAD SWAP1 DUP2 MSTORE PUSH1 0x20 ADD JUMPDEST PUSH1 0x40 MLOAD DUP1 SWAP2 SUB SWAP1 RETURN JUMPDEST PUSH2 0x16F PUSH2 0x190 CALLDATASIZE PUSH1 0x4 PUSH2 0x1F35 JUMP JUMPDEST PUSH1 0xB PUSH1 0x20 MSTORE PUSH1 0x0 SWAP1 DUP2 MSTORE PUSH1 0x40 SWAP1 KECCAK256 SLOAD DUP2 JUMP JUMPDEST PUSH2 0x15A PUSH2 0x1B0 CALLDATASIZE PUSH1 0x4 PUSH2 0x1F57 JUMP JUMPDEST PUSH2 0x6C7 JUMP JUMPDEST PUSH2 0x16F PUSH2 0x1C3 CALLDATASIZE PUSH1 0x4 PUSH2 0x1F90 JUMP JUMPDEST PUSH1 0x9 PUSH1 0x20 MSTORE PUSH1 0x0 SWAP1 DUP2 MSTORE PUSH1 0x40 SWAP1 KECCAK256 SLOAD DUP2 JUMP JUMPDEST PUSH2 0x15A PUSH2 0x1E3 CALLDATASIZE PUSH1 0x4 PUSH2 0x1FA9 JUMP JUMPDEST PUSH2 0xE6E JUMP JUMPDEST PUSH2 0x16F PUSH2 0x1F6 CALLDATASIZE PUSH1 0x4 PUSH2 0x1F35 JUMP JUMPDEST PUSH1 0xD PUSH1 0x20 MSTORE PUSH1 0x0 SWAP1 DUP2 MSTORE PUSH1 0x40 SWAP1 KECCAK256 SLOAD DUP2 JUMP JUMPDEST PUSH2 0x15A PUSH2 0x216 CALLDATASIZE PUSH1 0x4 PUSH2 0x1FD5 JUMP JUMPDEST PUSH1 0x5 SWAP2 SWAP1 SWAP2 SSTORE PUSH1 0x6 SSTORE JUMP JUMPDEST PUSH1 0x5 SLOAD PUSH1 0x6 SLOAD PUSH1 0x40 DUP1 MLOAD SWAP3 DUP4 MSTORE PUSH1 0x20 DUP4 ADD SWAP2 SWAP1 SWAP2 MSTORE ADD PUSH2 0x179 JUMP JUMPDEST PUSH2 0x16F PUSH1 0x3 SLOAD DUP2 JUMP JUMPDEST PUSH2 0x16F PUSH2 0x253 CALLDATASIZE PUSH1 0x4 PUSH2 0x1F35 JUMP JUMPDEST PUSH1 0x8 PUSH1 0x20 MSTORE PUSH1 0x0 SWAP1 DUP2 MSTORE PUSH1 0x40 SWAP1 KECCAK256 SLOAD DUP2 JUMP JUMPDEST PUSH2 0x15A PUSH2 0xEB5 JUMP JUMPDEST PUSH2 0x16F PUSH2 0x27B CALLDATASIZE PUSH1 0x4 PUSH2 0x1F35 JUMP JUMPDEST PUSH1 0xC PUSH1 0x20 MSTORE PUSH1 0x0 SWAP1 DUP2 MSTORE PUSH1 0x40 SWAP1 KECCAK256 SLOAD DUP2 JUMP JUMPDEST PUSH2 0x16F PUSH2 0x29B CALLDATASIZE PUSH1 0x4 PUSH2 0x1F90 JUMP JUMPDEST PUSH1 0xA PUSH1 0x20 MSTORE PUSH1 0x0 SWAP1 DUP2 MSTORE PUSH1 0x40 SWAP1 KECCAK256 SLOAD DUP2 JUMP JUMPDEST PUSH1 0x0 SLOAD PUSH1 0x1 PUSH1 0x1 PUSH1 0xA0 SHL SUB AND JUMPDEST PUSH1 0x40 MLOAD PUSH1 0x1 PUSH1 0x1 PUSH1 0xA0 SHL SUB SWAP1 SWAP2 AND DUP2 MSTORE PUSH1 0x20 ADD PUSH2 0x179 JUMP JUMPDEST PUSH2 0x15A PUSH2 0x2E0 CALLDATASIZE PUSH1 0x4 PUSH2 0x1F35 JUMP JUMPDEST PUSH2 0xEC9 JUMP JUMPDEST PUSH1 0x1 SLOAD PUSH2 0x2BA SWAP1 PUSH1 0x1 PUSH1 0x1 PUSH1 0xA0 SHL SUB AND DUP2 JUMP JUMPDEST PUSH2 0x15A PUSH2 0x306 CALLDATASIZE PUSH1 0x4 PUSH2 0x1F90 JUMP JUMPDEST PUSH2 0x1938 JUMP JUMPDEST PUSH2 0x15A PUSH2 0x319 CALLDATASIZE PUSH1 0x4 PUSH2 0x1FA9 JUMP JUMPDEST PUSH2 0x197F JUMP JUMPDEST PUSH2 0x16F PUSH2 0x32C CALLDATASIZE PUSH1 0x4 PUSH2 0x1F35 JUMP JUMPDEST PUSH2 0x19FC JUMP JUMPDEST PUSH2 0x371 PUSH2 0x33F CALLDATASIZE PUSH1 0x4 PUSH2 0x1F35 JUMP JUMPDEST PUSH1 0x7 PUSH1 0x20 MSTORE PUSH1 0x0 SWAP1 DUP2 MSTORE PUSH1 0x40 SWAP1 KECCAK256 DUP1 SLOAD PUSH1 0x1 DUP3 ADD SLOAD PUSH1 0x2 DUP4 ADD SLOAD PUSH1 0x3 DUP5 ADD SLOAD PUSH1 0x4 SWAP1 SWAP5 ADD SLOAD SWAP3 SWAP4 SWAP2 SWAP3 SWAP1 SWAP2 SWAP1 PUSH1 0xFF AND DUP6 JUMP JUMPDEST PUSH1 0x40 DUP1 MLOAD SWAP6 DUP7 MSTORE PUSH1 0x20 DUP7 ADD SWAP5 SWAP1 SWAP5 MSTORE SWAP3 DUP5 ADD SWAP2 SWAP1 SWAP2 MSTORE PUSH1 0x60 DUP4 ADD MSTORE ISZERO ISZERO PUSH1 0x80 DUP3 ADD MSTORE PUSH1 0xA0 ADD PUSH2 0x179 JUMP JUMPDEST PUSH2 0x15A PUSH2 0x3A9 CALLDATASIZE PUSH1 0x4 PUSH2 0x1F35 JUMP JUMPDEST PUSH2 0x1B37 JUMP JUMPDEST PUSH1 0x1 PUSH1 0x1 PUSH1 0xA0 SHL SUB DUP2 AND PUSH1 0x0 SWAP1 DUP2 MSTORE PUSH1 0x7 PUSH1 0x20 MSTORE PUSH1 0x40 SWAP1 KECCAK256 PUSH1 0x1 DUP2 ADD SLOAD PUSH1 0x2 SWAP1 SWAP2 ADD SLOAD TIMESTAMP SWAP2 SWAP1 PUSH2 0x3DF SWAP1 PUSH1 0x1E PUSH2 0x200D JUMP JUMPDEST PUSH2 0x3EA SWAP1 PUSH1 0x18 PUSH2 0x200D JUMP JUMPDEST PUSH2 0x3F5 SWAP1 PUSH1 0x3C PUSH2 0x200D JUMP JUMPDEST PUSH2 0x400 SWAP1 PUSH1 0x3C PUSH2 0x200D JUMP JUMPDEST PUSH2 0x40A SWAP2 SWAP1 PUSH2 0x202C JUMP JUMPDEST GT PUSH2 0x482 JUMPI PUSH1 0x40 MLOAD PUSH3 0x461BCD PUSH1 0xE5 SHL DUP2 MSTORE PUSH1 0x20 PUSH1 0x4 DUP3 ADD MSTORE PUSH1 0x39 PUSH1 0x24 DUP3 ADD MSTORE PUSH32 0x596F7572205374616B652054696D6520436F6D706C6574652C20506C65617365 PUSH1 0x44 DUP3 ADD MSTORE PUSH32 0x2043616C6C2057697468647261772046756E6374696F6E202100000000000000 PUSH1 0x64 DUP3 ADD MSTORE PUSH1 0x84 ADD JUMPDEST PUSH1 0x40 MLOAD DUP1 SWAP2 SUB SWAP1 REVERT JUMPDEST PUSH1 0x1 PUSH1 0x1 PUSH1 0xA0 SHL SUB DUP2 AND PUSH1 0x0 SWAP1 DUP2 MSTORE PUSH1 0x7 PUSH1 0x20 MSTORE PUSH1 0x40 DUP2 KECCAK256 PUSH1 0x1 ADD SLOAD PUSH3 0x15180 SWAP1 PUSH2 0x4AD SWAP1 TIMESTAMP PUSH2 0x2044 JUMP JUMPDEST PUSH2 0x4B7 SWAP2 SWAP1 PUSH2 0x205B JUMP JUMPDEST PUSH1 0x1 PUSH1 0x1 PUSH1 0xA0 SHL SUB DUP4 AND PUSH1 0x0 SWAP1 DUP2 MSTORE PUSH1 0x7 PUSH1 0x20 MSTORE PUSH1 0x40 DUP2 KECCAK256 PUSH1 0x2 ADD SLOAD SWAP2 SWAP3 POP SWAP1 PUSH2 0x4E2 SWAP1 PUSH1 0x1E PUSH2 0x200D JUMP JUMPDEST PUSH1 0x1 PUSH1 0x1 PUSH1 0xA0 SHL SUB DUP5 AND PUSH1 0x0 SWAP1 DUP2 MSTORE PUSH1 0x8 PUSH1 0x20 MSTORE PUSH1 0x40 SWAP1 KECCAK256 SLOAD PUSH2 0x505 SWAP2 SWAP1 PUSH2 0x205B JUMP JUMPDEST SWAP1 POP PUSH1 0x0 PUSH2 0x513 DUP4 DUP4 PUSH2 0x200D JUMP JUMPDEST SWAP1 POP PUSH1 0x0 DUP2 GT PUSH2 0x56F JUMPI PUSH1 0x40 MLOAD PUSH3 0x461BCD PUSH1 0xE5 SHL DUP2 MSTORE PUSH1 0x20 PUSH1 0x4 DUP3 ADD MSTORE PUSH1 0x21 PUSH1 0x24 DUP3 ADD MSTORE PUSH32 0x526577617264206D7573742062652067726561746572207468616E207A65726F PUSH1 0x44 DUP3 ADD MSTORE PUSH1 0x17 PUSH1 0xF9 SHL PUSH1 0x64 DUP3 ADD MSTORE PUSH1 0x84 ADD PUSH2 0x479 JUMP JUMPDEST PUSH1 0x1 PUSH1 0x1 PUSH1 0xA0 SHL SUB DUP5 AND PUSH1 0x0 SWAP1 DUP2 MSTORE PUSH1 0xC PUSH1 0x20 MSTORE PUSH1 0x40 SWAP1 KECCAK256 SLOAD PUSH2 0x592 SWAP1 DUP3 PUSH2 0x2044 JUMP JUMPDEST PUSH1 0x1 PUSH1 0x1 PUSH1 0xA0 SHL SUB DUP6 AND PUSH1 0x0 SWAP1 DUP2 MSTORE PUSH1 0xC PUSH1 0x20 MSTORE PUSH1 0x40 DUP2 KECCAK256 DUP1 SLOAD SWAP1 SWAP2 SWAP1 PUSH2 0x5BA SWAP1 DUP5 SWAP1 PUSH2 0x202C JUMP JUMPDEST SWAP1 SWAP2 SSTORE POP POP PUSH1 0x1 SLOAD PUSH1 0x40 MLOAD PUSH4 0xA9059CBB PUSH1 0xE0 SHL DUP2 MSTORE PUSH1 0x1 PUSH1 0x1 PUSH1 0xA0 SHL SUB SWAP1 SWAP2 AND SWAP1 PUSH4 0xA9059CBB SWAP1 PUSH2 0x5F1 SWAP1 DUP8 SWAP1 DUP6 SWAP1 PUSH1 0x4 ADD PUSH2 0x207D JUMP JUMPDEST PUSH1 0x20 PUSH1 0x40 MLOAD DUP1 DUP4 SUB DUP2 PUSH1 0x0 DUP8 GAS CALL ISZERO DUP1 ISZERO PUSH2 0x610 JUMPI RETURNDATASIZE PUSH1 0x0 DUP1 RETURNDATACOPY RETURNDATASIZE PUSH1 0x0 REVERT JUMPDEST POP POP POP POP PUSH1 0x40 MLOAD RETURNDATASIZE PUSH1 0x1F NOT PUSH1 0x1F DUP3 ADD AND DUP3 ADD DUP1 PUSH1 0x40 MSTORE POP DUP2 ADD SWAP1 PUSH2 0x634 SWAP2 SWAP1 PUSH2 0x2096 JUMP JUMPDEST POP POP POP POP POP JUMP JUMPDEST PUSH1 0x1 PUSH1 0x1 PUSH1 0xA0 SHL SUB DUP2 AND PUSH1 0x0 SWAP1 DUP2 MSTORE PUSH1 0x7 PUSH1 0x20 MSTORE PUSH1 0x40 DUP2 KECCAK256 PUSH1 0x3 ADD SLOAD PUSH1 0x64 SUB PUSH2 0x666 JUMPI POP PUSH1 0x0 SWAP2 SWAP1 POP JUMP JUMPDEST PUSH1 0x1 PUSH1 0x1 PUSH1 0xA0 SHL SUB DUP3 AND PUSH1 0x0 SWAP1 DUP2 MSTORE PUSH1 0x7 PUSH1 0x20 MSTORE PUSH1 0x40 SWAP1 KECCAK256 PUSH1 0x3 ADD SLOAD PUSH1 0x64 SWAP1 PUSH2 0x68F SWAP1 DUP3 PUSH2 0x2044 JUMP JUMPDEST PUSH1 0x1 PUSH1 0x1 PUSH1 0xA0 SHL SUB DUP5 AND PUSH1 0x0 SWAP1 DUP2 MSTORE PUSH1 0x8 PUSH1 0x20 MSTORE PUSH1 0x40 SWAP1 KECCAK256 SLOAD PUSH2 0x6B2 SWAP2 SWAP1 PUSH2 0x200D JUMP JUMPDEST PUSH2 0x6BC SWAP2 SWAP1 PUSH2 0x205B JUMP JUMPDEST SWAP3 SWAP2 POP POP JUMP JUMPDEST SWAP2 SWAP1 POP JUMP JUMPDEST PUSH1 0x2 SLOAD PUSH1 0x1 PUSH1 0x1 PUSH1 0xA0 SHL SUB AND PUSH1 0x0 SWAP1 DUP2 MSTORE PUSH1 0xB PUSH1 0x20 MSTORE PUSH1 0x40 SWAP1 KECCAK256 SLOAD PUSH2 0x720 JUMPI PUSH1 0x40 MLOAD PUSH3 0x461BCD PUSH1 0xE5 SHL DUP2 MSTORE PUSH1 0x20 PUSH1 0x4 DUP3 ADD MSTORE PUSH1 0xF PUSH1 0x24 DUP3 ADD MSTORE PUSH15 0x506C65617365205761697420212121 PUSH1 0x88 SHL PUSH1 0x44 DUP3 ADD MSTORE PUSH1 0x64 ADD PUSH2 0x479 JUMP JUMPDEST PUSH1 0x0 PUSH2 0x730 DUP5 PUSH4 0x3B9ACA00 PUSH2 0x200D JUMP JUMPDEST PUSH1 0x1 PUSH1 0x1 PUSH1 0xA0 SHL SUB DUP7 AND PUSH1 0x0 SWAP1 DUP2 MSTORE PUSH1 0x7 PUSH1 0x20 MSTORE PUSH1 0x40 SWAP1 KECCAK256 PUSH1 0x4 ADD SLOAD SWAP1 SWAP2 POP PUSH1 0xFF AND ISZERO PUSH2 0xAC9 JUMPI PUSH1 0x1 PUSH1 0x1 PUSH1 0xA0 SHL SUB DUP6 AND PUSH1 0x0 SWAP1 DUP2 MSTORE PUSH1 0x7 PUSH1 0x20 MSTORE PUSH1 0x40 SWAP1 KECCAK256 PUSH1 0x1 DUP2 ADD SLOAD PUSH1 0x2 SWAP1 SWAP2 ADD SLOAD TIMESTAMP SWAP2 SWAP1 PUSH2 0x788 SWAP1 PUSH1 0x1E PUSH2 0x200D JUMP JUMPDEST PUSH2 0x793 SWAP1 PUSH1 0x18 PUSH2 0x200D JUMP JUMPDEST PUSH2 0x79E SWAP1 PUSH1 0x3C PUSH2 0x200D JUMP JUMPDEST PUSH2 0x7A9 SWAP1 PUSH1 0x3C PUSH2 0x200D JUMP JUMPDEST PUSH2 0x7B3 SWAP2 SWAP1 PUSH2 0x202C JUMP JUMPDEST GT PUSH2 0x800 JUMPI PUSH1 0x40 MLOAD PUSH3 0x461BCD PUSH1 0xE5 SHL DUP2 MSTORE PUSH1 0x20 PUSH1 0x4 DUP3 ADD MSTORE PUSH1 0x1A PUSH1 0x24 DUP3 ADD MSTORE PUSH32 0x596F75722054696D6520506572696F6420436F6D706C6574652E000000000000 PUSH1 0x44 DUP3 ADD MSTORE PUSH1 0x64 ADD PUSH2 0x479 JUMP JUMPDEST PUSH1 0x1 PUSH1 0x1 PUSH1 0xA0 SHL SUB DUP6 AND PUSH1 0x0 SWAP1 DUP2 MSTORE PUSH1 0x7 PUSH1 0x20 MSTORE PUSH1 0x40 SWAP1 KECCAK256 PUSH1 0x2 ADD SLOAD DUP4 EQ PUSH2 0x863 JUMPI PUSH1 0x40 MLOAD PUSH3 0x461BCD PUSH1 0xE5 SHL DUP2 MSTORE PUSH1 0x20 PUSH1 0x4 DUP3 ADD MSTORE PUSH1 0x16 PUSH1 0x24 DUP3 ADD MSTORE PUSH22 0x8ADCE8CAE440A4D2CED0E840A6E8C2D6CA9ADEDCE8D PUSH1 0x53 SHL PUSH1 0x44 DUP3 ADD MSTORE PUSH1 0x64 ADD PUSH2 0x479 JUMP JUMPDEST PUSH1 0x1 PUSH1 0x1 PUSH1 0xA0 SHL SUB DUP6 AND PUSH1 0x0 SWAP1 DUP2 MSTORE PUSH1 0x7 PUSH1 0x20 MSTORE PUSH1 0x40 SWAP1 KECCAK256 PUSH1 0x3 ADD SLOAD DUP3 EQ PUSH2 0x8CD JUMPI PUSH1 0x40 MLOAD PUSH3 0x461BCD PUSH1 0xE5 SHL DUP2 MSTORE PUSH1 0x20 PUSH1 0x4 DUP3 ADD MSTORE PUSH1 0x1A PUSH1 0x24 DUP3 ADD MSTORE PUSH32 0x456E746572205269676874204561726E50657273656E74616765000000000000 PUSH1 0x44 DUP3 ADD MSTORE PUSH1 0x64 ADD PUSH2 0x479 JUMP JUMPDEST PUSH1 0x1 PUSH1 0x1 PUSH1 0xA0 SHL SUB DUP6 AND PUSH1 0x0 SWAP1 DUP2 MSTORE PUSH1 0x7 PUSH1 0x20 MSTORE PUSH1 0x40 SWAP1 KECCAK256 SLOAD PUSH2 0x8F1 SWAP1 DUP3 SWAP1 PUSH2 0x202C JUMP JUMPDEST PUSH1 0x1 PUSH1 0x1 PUSH1 0xA0 SHL SUB DUP7 AND PUSH1 0x0 SWAP1 DUP2 MSTORE PUSH1 0x7 PUSH1 0x20 MSTORE PUSH1 0x40 SWAP1 KECCAK256 SWAP1 DUP2 SSTORE PUSH1 0x0 DUP1 MLOAD PUSH1 0x20 PUSH2 0x2174 DUP4 CODECOPY DUP2 MLOAD SWAP2 MSTORE SLOAD PUSH1 0x2 SWAP1 SWAP2 ADD SLOAD SUB PUSH2 0x99E JUMPI PUSH1 0x1 PUSH1 0x0 MSTORE PUSH1 0xA PUSH1 0x20 MSTORE PUSH32 0xBBC70DB1B6C7AFD11E79C0FB0051300458F1A3ACB8EE9789D9B6B26C61AD9BC7 SLOAD PUSH2 0x3E8 SWAP1 PUSH2 0x961 SWAP1 DUP4 PUSH2 0x200D JUMP JUMPDEST PUSH2 0x96B SWAP2 SWAP1 PUSH2 0x205B JUMP JUMPDEST PUSH1 0x1 PUSH1 0x1 PUSH1 0xA0 SHL SUB DUP7 AND PUSH1 0x0 SWAP1 DUP2 MSTORE PUSH1 0x8 PUSH1 0x20 MSTORE PUSH1 0x40 DUP2 KECCAK256 DUP1 SLOAD SWAP1 SWAP2 SWAP1 PUSH2 0x993 SWAP1 DUP5 SWAP1 PUSH2 0x202C JUMP JUMPDEST SWAP1 SWAP2 SSTORE POP PUSH2 0xAAC SWAP1 POP JUMP JUMPDEST PUSH1 0x0 DUP1 MLOAD PUSH1 0x20 PUSH2 0x2134 DUP4 CODECOPY DUP2 MLOAD SWAP2 MSTORE SLOAD PUSH1 0x1 PUSH1 0x1 PUSH1 0xA0 SHL SUB DUP7 AND PUSH1 0x0 SWAP1 DUP2 MSTORE PUSH1 0x7 PUSH1 0x20 MSTORE PUSH1 0x40 SWAP1 KECCAK256 PUSH1 0x2 ADD SLOAD SUB PUSH2 0xA09 JUMPI PUSH1 0x2 PUSH1 0x0 MSTORE PUSH1 0xA PUSH1 0x20 MSTORE PUSH32 0xBFF4442B8ED600BEEB8E26B1279A0F0D14C6EDFAEC26D968EE13C86F7D4C2BA8 SLOAD PUSH2 0x3E8 SWAP1 PUSH2 0x961 SWAP1 DUP4 PUSH2 0x200D JUMP JUMPDEST PUSH1 0x0 DUP1 MLOAD PUSH1 0x20 PUSH2 0x2154 DUP4 CODECOPY DUP2 MLOAD SWAP2 MSTORE SLOAD PUSH1 0x1 PUSH1 0x1 PUSH1 0xA0 SHL SUB DUP7 AND PUSH1 0x0 SWAP1 DUP2 MSTORE PUSH1 0x7 PUSH1 0x20 MSTORE PUSH1 0x40 SWAP1 KECCAK256 PUSH1 0x2 ADD SLOAD SUB PUSH2 0xAAC JUMPI PUSH1 0x3 PUSH1 0x0 MSTORE PUSH1 0xA PUSH1 0x20 MSTORE PUSH32 0xA856840544DC26124927ADD067D799967EAC11BE13E14D82CC281EA46FA39759 SLOAD PUSH2 0x3E8 SWAP1 PUSH2 0xA74 SWAP1 DUP4 PUSH2 0x200D JUMP JUMPDEST PUSH2 0xA7E SWAP2 SWAP1 PUSH2 0x205B JUMP JUMPDEST PUSH1 0x1 PUSH1 0x1 PUSH1 0xA0 SHL SUB DUP7 AND PUSH1 0x0 SWAP1 DUP2 MSTORE PUSH1 0x8 PUSH1 0x20 MSTORE PUSH1 0x40 DUP2 KECCAK256 DUP1 SLOAD SWAP1 SWAP2 SWAP1 PUSH2 0xAA6 SWAP1 DUP5 SWAP1 PUSH2 0x202C JUMP JUMPDEST SWAP1 SWAP2 SSTORE POP POP JUMPDEST PUSH1 0x1 SLOAD PUSH2 0xAC4 SWAP1 PUSH1 0x1 PUSH1 0x1 PUSH1 0xA0 SHL SUB AND DUP7 ADDRESS DUP5 PUSH2 0x1BAD JUMP JUMPDEST PUSH2 0xE21 JUMP JUMPDEST PUSH1 0x1 PUSH1 0x0 MSTORE PUSH1 0x9 PUSH1 0x20 MSTORE PUSH1 0x0 DUP1 MLOAD PUSH1 0x20 PUSH2 0x2174 DUP4 CODECOPY DUP2 MLOAD SWAP2 MSTORE SLOAD DUP4 EQ DUP1 PUSH2 0xB08 JUMPI POP PUSH1 0x2 PUSH1 0x0 MSTORE PUSH1 0x9 PUSH1 0x20 MSTORE PUSH1 0x0 DUP1 MLOAD PUSH1 0x20 PUSH2 0x2134 DUP4 CODECOPY DUP2 MLOAD SWAP2 MSTORE SLOAD DUP4 EQ JUMPDEST DUP1 PUSH2 0xB2B JUMPI POP PUSH1 0x3 PUSH1 0x0 MSTORE PUSH1 0x9 PUSH1 0x20 MSTORE PUSH1 0x0 DUP1 MLOAD PUSH1 0x20 PUSH2 0x2154 DUP4 CODECOPY DUP2 MLOAD SWAP2 MSTORE SLOAD DUP4 EQ JUMPDEST PUSH2 0xB70 JUMPI PUSH1 0x40 MLOAD PUSH3 0x461BCD PUSH1 0xE5 SHL DUP2 MSTORE PUSH1 0x20 PUSH1 0x4 DUP3 ADD MSTORE PUSH1 0x16 PUSH1 0x24 DUP3 ADD MSTORE PUSH22 0x8ADCE8CAE440A4D2CED0E840A6E8C2D6CA9ADEDCE8D PUSH1 0x53 SHL PUSH1 0x44 DUP3 ADD MSTORE PUSH1 0x64 ADD PUSH2 0x479 JUMP JUMPDEST DUP2 PUSH1 0x64 EQ DUP1 PUSH2 0xB7F JUMPI POP DUP2 PUSH1 0x4B EQ JUMPDEST DUP1 PUSH2 0xB8A JUMPI POP DUP2 PUSH1 0x32 EQ JUMPDEST PUSH2 0xBD6 JUMPI PUSH1 0x40 MLOAD PUSH3 0x461BCD PUSH1 0xE5 SHL DUP2 MSTORE PUSH1 0x20 PUSH1 0x4 DUP3 ADD MSTORE PUSH1 0x1A PUSH1 0x24 DUP3 ADD MSTORE PUSH32 0x456E746572205269676874204561726E50657273656E74616765000000000000 PUSH1 0x44 DUP3 ADD MSTORE PUSH1 0x64 ADD PUSH2 0x479 JUMP JUMPDEST PUSH1 0x0 PUSH2 0x3E8 PUSH1 0x5 SLOAD DUP4 PUSH2 0xBE9 SWAP2 SWAP1 PUSH2 0x200D JUMP JUMPDEST PUSH2 0xBF3 SWAP2 SWAP1 PUSH2 0x205B JUMP JUMPDEST SWAP1 POP PUSH1 0x40 MLOAD DUP1 PUSH1 0xA0 ADD PUSH1 0x40 MSTORE DUP1 DUP3 DUP5 PUSH2 0xC0C SWAP2 SWAP1 PUSH2 0x2044 JUMP JUMPDEST DUP2 MSTORE TIMESTAMP PUSH1 0x20 DUP1 DUP4 ADD SWAP2 SWAP1 SWAP2 MSTORE PUSH1 0x40 DUP1 DUP4 ADD DUP9 SWAP1 MSTORE PUSH1 0x60 DUP1 DUP5 ADD DUP9 SWAP1 MSTORE PUSH1 0x1 PUSH1 0x80 SWAP5 DUP6 ADD DUP2 SWAP1 MSTORE PUSH1 0x1 PUSH1 0x1 PUSH1 0xA0 SHL SUB DUP13 AND PUSH1 0x0 SWAP1 DUP2 MSTORE PUSH1 0x7 DUP6 MSTORE DUP4 SWAP1 KECCAK256 DUP7 MLOAD DUP2 SSTORE SWAP4 DUP7 ADD MLOAD SWAP1 DUP5 ADD SSTORE SWAP1 DUP5 ADD MLOAD PUSH1 0x2 DUP4 ADD DUP2 SWAP1 SSTORE SWAP1 DUP5 ADD MLOAD PUSH1 0x3 DUP4 ADD SSTORE SWAP3 SWAP1 SWAP2 ADD MLOAD PUSH1 0x4 SWAP1 SWAP2 ADD DUP1 SLOAD PUSH1 0xFF NOT AND SWAP2 ISZERO ISZERO SWAP2 SWAP1 SWAP2 OR SWAP1 SSTORE PUSH1 0x0 DUP1 MLOAD PUSH1 0x20 PUSH2 0x2174 DUP4 CODECOPY DUP2 MLOAD SWAP2 MSTORE SLOAD SWAP1 SUB PUSH2 0xD03 JUMPI PUSH1 0x1 PUSH1 0x0 MSTORE PUSH1 0xA PUSH1 0x20 MSTORE PUSH32 0xBBC70DB1B6C7AFD11E79C0FB0051300458F1A3ACB8EE9789D9B6B26C61AD9BC7 SLOAD PUSH2 0x3E8 SWAP1 PUSH2 0xCD1 DUP4 DUP6 PUSH2 0x2044 JUMP JUMPDEST PUSH2 0xCDB SWAP2 SWAP1 PUSH2 0x200D JUMP JUMPDEST PUSH2 0xCE5 SWAP2 SWAP1 PUSH2 0x205B JUMP JUMPDEST PUSH1 0x1 PUSH1 0x1 PUSH1 0xA0 SHL SUB DUP8 AND PUSH1 0x0 SWAP1 DUP2 MSTORE PUSH1 0x8 PUSH1 0x20 MSTORE PUSH1 0x40 SWAP1 KECCAK256 SSTORE PUSH2 0xE07 JUMP JUMPDEST PUSH1 0x0 DUP1 MLOAD PUSH1 0x20 PUSH2 0x2134 DUP4 CODECOPY DUP2 MLOAD SWAP2 MSTORE SLOAD PUSH1 0x1 PUSH1 0x1 PUSH1 0xA0 SHL SUB DUP8 AND PUSH1 0x0 SWAP1 DUP2 MSTORE PUSH1 0x7 PUSH1 0x20 MSTORE PUSH1 0x40 SWAP1 KECCAK256 PUSH1 0x2 ADD SLOAD SUB PUSH2 0xD6E JUMPI PUSH1 0x2 PUSH1 0x0 MSTORE PUSH1 0xA PUSH1 0x20 MSTORE PUSH32 0xBFF4442B8ED600BEEB8E26B1279A0F0D14C6EDFAEC26D968EE13C86F7D4C2BA8 SLOAD PUSH2 0x3E8 SWAP1 PUSH2 0xCD1 DUP4 DUP6 PUSH2 0x2044 JUMP JUMPDEST PUSH1 0x0 DUP1 MLOAD PUSH1 0x20 PUSH2 0x2154 DUP4 CODECOPY DUP2 MLOAD SWAP2 MSTORE SLOAD PUSH1 0x1 PUSH1 0x1 PUSH1 0xA0 SHL SUB DUP8 AND PUSH1 0x0 SWAP1 DUP2 MSTORE PUSH1 0x7 PUSH1 0x20 MSTORE PUSH1 0x40 SWAP1 KECCAK256 PUSH1 0x2 ADD SLOAD SUB PUSH2 0xE07 JUMPI PUSH1 0x3 PUSH1 0x0 MSTORE PUSH1 0xA PUSH1 0x20 MSTORE PUSH32 0xA856840544DC26124927ADD067D799967EAC11BE13E14D82CC281EA46FA39759 SLOAD PUSH2 0x3E8 SWAP1 PUSH2 0xDD9 DUP4 DUP6 PUSH2 0x2044 JUMP JUMPDEST PUSH2 0xDE3 SWAP2 SWAP1 PUSH2 0x200D JUMP JUMPDEST PUSH2 0xDED SWAP2 SWAP1 PUSH2 0x205B JUMP JUMPDEST PUSH1 0x1 PUSH1 0x1 PUSH1 0xA0 SHL SUB DUP8 AND PUSH1 0x0 SWAP1 DUP2 MSTORE PUSH1 0x8 PUSH1 0x20 MSTORE PUSH1 0x40 SWAP1 KECCAK256 SSTORE JUMPDEST PUSH1 0x1 SLOAD PUSH2 0xE1F SWAP1 PUSH1 0x1 PUSH1 0x1 PUSH1 0xA0 SHL SUB AND DUP8 ADDRESS DUP6 PUSH2 0x1BAD JUMP JUMPDEST POP JUMPDEST PUSH1 0x1 PUSH1 0x1 PUSH1 0xA0 SHL SUB DUP6 AND PUSH1 0x0 SWAP1 DUP2 MSTORE PUSH1 0xB PUSH1 0x20 MSTORE PUSH1 0x40 DUP2 KECCAK256 DUP1 SLOAD DUP4 SWAP3 SWAP1 PUSH2 0xE49 SWAP1 DUP5 SWAP1 PUSH2 0x202C JUMP JUMPDEST SWAP3 POP POP DUP2 SWAP1 SSTORE POP DUP1 PUSH1 0x3 PUSH1 0x0 DUP3 DUP3 SLOAD PUSH2 0xE62 SWAP2 SWAP1 PUSH2 0x202C JUMP JUMPDEST SWAP1 SWAP2 SSTORE POP POP POP POP POP POP POP JUMP JUMPDEST PUSH2 0xE76 PUSH2 0x1C0D JUMP JUMPDEST PUSH1 0x9 PUSH1 0x20 MSTORE PUSH1 0x0 DUP1 MLOAD PUSH1 0x20 PUSH2 0x2174 DUP4 CODECOPY DUP2 MLOAD SWAP2 MSTORE SWAP3 SWAP1 SWAP3 SSTORE PUSH1 0x0 DUP1 MLOAD PUSH1 0x20 PUSH2 0x2134 DUP4 CODECOPY DUP2 MLOAD SWAP2 MSTORE SSTORE PUSH1 0x3 PUSH1 0x0 MSTORE PUSH1 0x0 DUP1 MLOAD PUSH1 0x20 PUSH2 0x2154 DUP4 CODECOPY DUP2 MLOAD SWAP2 MSTORE SSTORE JUMP JUMPDEST PUSH2 0xEBD PUSH2 0x1C0D JUMP JUMPDEST PUSH2 0xEC7 PUSH1 0x0 PUSH2 0x1C67 JUMP JUMPDEST JUMP JUMPDEST PUSH1 0x1 PUSH1 0x1 PUSH1 0xA0 SHL SUB DUP2 AND PUSH1 0x0 SWAP1 DUP2 MSTORE PUSH1 0x7 PUSH1 0x20 MSTORE PUSH1 0x40 SWAP1 KECCAK256 PUSH1 0x4 ADD SLOAD PUSH1 0xFF AND PUSH2 0xF29 JUMPI PUSH1 0x40 MLOAD PUSH3 0x461BCD PUSH1 0xE5 SHL DUP2 MSTORE PUSH1 0x20 PUSH1 0x4 DUP3 ADD MSTORE PUSH1 0x12 PUSH1 0x24 DUP3 ADD MSTORE PUSH18 0x4669727374205374616B6520546F6B656E73 PUSH1 0x70 SHL PUSH1 0x44 DUP3 ADD MSTORE PUSH1 0x64 ADD PUSH2 0x479 JUMP JUMPDEST PUSH1 0x1 PUSH1 0x1 PUSH1 0xA0 SHL SUB DUP2 AND PUSH1 0x0 SWAP1 DUP2 MSTORE PUSH1 0x7 PUSH1 0x20 MSTORE PUSH1 0x40 DUP2 KECCAK256 PUSH1 0x1 DUP2 ADD SLOAD PUSH1 0x2 SWAP1 SWAP2 ADD SLOAD DUP3 SWAP2 TIMESTAMP SWAP2 PUSH2 0xF5B SWAP1 PUSH1 0x1E PUSH2 0x200D JUMP JUMPDEST PUSH2 0xF66 SWAP1 PUSH1 0x18 PUSH2 0x200D JUMP JUMPDEST PUSH2 0xF71 SWAP1 PUSH1 0x3C PUSH2 0x200D JUMP JUMPDEST PUSH2 0xF7C SWAP1 PUSH1 0x3C PUSH2 0x200D JUMP JUMPDEST PUSH2 0xF86 SWAP2 SWAP1 PUSH2 0x202C JUMP JUMPDEST LT ISZERO PUSH2 0x1346 JUMPI PUSH1 0x1 PUSH1 0x1 PUSH1 0xA0 SHL SUB DUP4 AND PUSH1 0x0 SWAP1 DUP2 MSTORE PUSH1 0x7 PUSH1 0x20 MSTORE PUSH1 0x40 SWAP1 KECCAK256 PUSH1 0x3 ADD SLOAD PUSH1 0x64 SUB PUSH2 0x1077 JUMPI PUSH1 0x1 SLOAD PUSH1 0x1 PUSH1 0x1 PUSH1 0xA0 SHL SUB DUP5 DUP2 AND PUSH1 0x0 SWAP1 DUP2 MSTORE PUSH1 0xC PUSH1 0x20 SWAP1 DUP2 MSTORE PUSH1 0x40 DUP1 DUP4 KECCAK256 SLOAD PUSH1 0x8 SWAP1 SWAP3 MSTORE SWAP1 SWAP2 KECCAK256 SLOAD SWAP2 SWAP1 SWAP3 AND SWAP2 PUSH4 0xA9059CBB SWAP2 DUP7 SWAP2 PUSH2 0xFEE SWAP2 PUSH2 0x2044 JUMP JUMPDEST PUSH1 0x1 PUSH1 0x1 PUSH1 0xA0 SHL SUB DUP8 AND PUSH1 0x0 SWAP1 DUP2 MSTORE PUSH1 0x7 PUSH1 0x20 MSTORE PUSH1 0x40 SWAP1 KECCAK256 SLOAD PUSH2 0x1011 SWAP2 SWAP1 PUSH2 0x202C JUMP JUMPDEST PUSH1 0x40 MLOAD DUP4 PUSH4 0xFFFFFFFF AND PUSH1 0xE0 SHL DUP2 MSTORE PUSH1 0x4 ADD PUSH2 0x102E SWAP3 SWAP2 SWAP1 PUSH2 0x207D JUMP JUMPDEST PUSH1 0x20 PUSH1 0x40 MLOAD DUP1 DUP4 SUB DUP2 PUSH1 0x0 DUP8 GAS CALL ISZERO DUP1 ISZERO PUSH2 0x104D JUMPI RETURNDATASIZE PUSH1 0x0 DUP1 RETURNDATACOPY RETURNDATASIZE PUSH1 0x0 REVERT JUMPDEST POP POP POP POP PUSH1 0x40 MLOAD RETURNDATASIZE PUSH1 0x1F NOT PUSH1 0x1F DUP3 ADD AND DUP3 ADD DUP1 PUSH1 0x40 MSTORE POP DUP2 ADD SWAP1 PUSH2 0x1071 SWAP2 SWAP1 PUSH2 0x2096 JUMP JUMPDEST POP PUSH2 0x18A9 JUMP JUMPDEST PUSH1 0x1 PUSH1 0x1 PUSH1 0xA0 SHL SUB DUP4 AND PUSH1 0x0 SWAP1 DUP2 MSTORE PUSH1 0x7 PUSH1 0x20 MSTORE PUSH1 0x40 SWAP1 KECCAK256 PUSH1 0x3 ADD SLOAD PUSH1 0x4B SUB PUSH2 0x1206 JUMPI PUSH1 0x1 PUSH1 0x1 PUSH1 0xA0 SHL SUB DUP4 AND PUSH1 0x0 SWAP1 DUP2 MSTORE PUSH1 0xC PUSH1 0x20 SWAP1 DUP2 MSTORE PUSH1 0x40 DUP1 DUP4 KECCAK256 SLOAD PUSH1 0x8 SWAP1 SWAP3 MSTORE SWAP1 SWAP2 KECCAK256 SLOAD PUSH1 0x64 SWAP2 PUSH2 0x10CB SWAP2 PUSH2 0x2044 JUMP JUMPDEST PUSH2 0x10D6 SWAP1 PUSH1 0x4B PUSH2 0x200D JUMP JUMPDEST PUSH2 0x10E0 SWAP2 SWAP1 PUSH2 0x205B JUMP JUMPDEST PUSH1 0x1 SLOAD PUSH1 0x1 PUSH1 0x1 PUSH1 0xA0 SHL SUB DUP6 DUP2 AND PUSH1 0x0 SWAP1 DUP2 MSTORE PUSH1 0x7 PUSH1 0x20 MSTORE PUSH1 0x40 SWAP1 KECCAK256 SLOAD SWAP3 SWAP5 POP AND SWAP1 PUSH4 0xA9059CBB SWAP1 DUP6 SWAP1 PUSH2 0x1115 SWAP1 DUP7 SWAP1 PUSH2 0x202C JUMP JUMPDEST PUSH1 0x40 MLOAD DUP4 PUSH4 0xFFFFFFFF AND PUSH1 0xE0 SHL DUP2 MSTORE PUSH1 0x4 ADD PUSH2 0x1132 SWAP3 SWAP2 SWAP1 PUSH2 0x207D JUMP JUMPDEST PUSH1 0x20 PUSH1 0x40 MLOAD DUP1 DUP4 SUB DUP2 PUSH1 0x0 DUP8 GAS CALL ISZERO DUP1 ISZERO PUSH2 0x1151 JUMPI RETURNDATASIZE PUSH1 0x0 DUP1 RETURNDATACOPY RETURNDATASIZE PUSH1 0x0 REVERT JUMPDEST POP POP POP POP PUSH1 0x40 MLOAD RETURNDATASIZE PUSH1 0x1F NOT PUSH1 0x1F DUP3 ADD AND DUP3 ADD DUP1 PUSH1 0x40 MSTORE POP DUP2 ADD SWAP1 PUSH2 0x1175 SWAP2 SWAP1 PUSH2 0x2096 JUMP JUMPDEST POP PUSH1 0x1 PUSH1 0x1 PUSH1 0xA0 SHL SUB DUP4 AND PUSH1 0x0 SWAP1 DUP2 MSTORE PUSH1 0xC PUSH1 0x20 SWAP1 DUP2 MSTORE PUSH1 0x40 DUP1 DUP4 KECCAK256 SLOAD PUSH1 0x8 SWAP1 SWAP3 MSTORE SWAP1 SWAP2 KECCAK256 SLOAD PUSH1 0x64 SWAP2 PUSH2 0x11A7 SWAP2 PUSH2 0x2044 JUMP JUMPDEST PUSH2 0x11B2 SWAP1 PUSH1 0x19 PUSH2 0x200D JUMP JUMPDEST PUSH2 0x11BC SWAP2 SWAP1 PUSH2 0x205B JUMP JUMPDEST PUSH1 0x1 PUSH1 0x1 PUSH1 0xA0 SHL SUB DUP1 DUP6 AND PUSH1 0x0 SWAP1 DUP2 MSTORE PUSH1 0xD PUSH1 0x20 MSTORE PUSH1 0x40 SWAP1 DUP2 SWAP1 KECCAK256 DUP4 SWAP1 SSTORE PUSH1 0x1 SLOAD SWAP1 MLOAD PUSH4 0xA9059CBB PUSH1 0xE0 SHL DUP2 MSTORE SWAP3 SWAP4 POP AND SWAP1 PUSH4 0xA9059CBB SWAP1 PUSH2 0x102E SWAP1 PUSH2 0xDEAD SWAP1 DUP6 SWAP1 PUSH1 0x4 ADD PUSH2 0x207D JUMP JUMPDEST PUSH1 0x1 PUSH1 0x1 PUSH1 0xA0 SHL SUB DUP4 AND PUSH1 0x0 SWAP1 DUP2 MSTORE PUSH1 0x7 PUSH1 0x20 MSTORE PUSH1 0x40 SWAP1 KECCAK256 PUSH1 0x3 ADD SLOAD PUSH1 0x32 SUB PUSH2 0x1341 JUMPI PUSH1 0x1 PUSH1 0x1 PUSH1 0xA0 SHL SUB DUP4 AND PUSH1 0x0 SWAP1 DUP2 MSTORE PUSH1 0xC PUSH1 0x20 SWAP1 DUP2 MSTORE PUSH1 0x40 DUP1 DUP4 KECCAK256 SLOAD PUSH1 0x8 SWAP1 SWAP3 MSTORE SWAP1 SWAP2 KECCAK256 SLOAD PUSH1 0x64 SWAP2 PUSH2 0x125A SWAP2 PUSH2 0x2044 JUMP JUMPDEST PUSH2 0x1265 SWAP1 PUSH1 0x32 PUSH2 0x200D JUMP JUMPDEST PUSH2 0x126F SWAP2 SWAP1 PUSH2 0x205B JUMP JUMPDEST PUSH1 0x1 SLOAD PUSH1 0x1 PUSH1 0x1 PUSH1 0xA0 SHL SUB DUP6 DUP2 AND PUSH1 0x0 SWAP1 DUP2 MSTORE PUSH1 0x7 PUSH1 0x20 MSTORE PUSH1 0x40 SWAP1 KECCAK256 SLOAD SWAP3 SWAP5 POP AND SWAP1 PUSH4 0xA9059CBB SWAP1 DUP6 SWAP1 PUSH2 0x12A4 SWAP1 DUP7 SWAP1 PUSH2 0x202C JUMP JUMPDEST PUSH1 0x40 MLOAD DUP4 PUSH4 0xFFFFFFFF AND PUSH1 0xE0 SHL DUP2 MSTORE PUSH1 0x4 ADD PUSH2 0x12C1 SWAP3 SWAP2 SWAP1 PUSH2 0x207D JUMP JUMPDEST PUSH1 0x20 PUSH1 0x40 MLOAD DUP1 DUP4 SUB DUP2 PUSH1 0x0 DUP8 GAS CALL ISZERO DUP1 ISZERO PUSH2 0x12E0 JUMPI RETURNDATASIZE PUSH1 0x0 DUP1 RETURNDATACOPY RETURNDATASIZE PUSH1 0x0 REVERT JUMPDEST POP POP POP POP PUSH1 0x40 MLOAD RETURNDATASIZE PUSH1 0x1F NOT PUSH1 0x1F DUP3 ADD AND DUP3 ADD DUP1 PUSH1 0x40 MSTORE POP DUP2 ADD SWAP1 PUSH2 0x1304 SWAP2 SWAP1 PUSH2 0x2096 JUMP JUMPDEST POP PUSH1 0x1 PUSH1 0x1 PUSH1 0xA0 SHL SUB DUP4 AND PUSH1 0x0 SWAP1 DUP2 MSTORE PUSH1 0xC PUSH1 0x20 SWAP1 DUP2 MSTORE PUSH1 0x40 DUP1 DUP4 KECCAK256 SLOAD PUSH1 0x8 SWAP1 SWAP3 MSTORE SWAP1 SWAP2 KECCAK256 SLOAD PUSH1 0x64 SWAP2 PUSH2 0x1336 SWAP2 PUSH2 0x2044 JUMP JUMPDEST PUSH2 0x11B2 SWAP1 PUSH1 0x32 PUSH2 0x200D JUMP JUMPDEST PUSH2 0x18A9 JUMP JUMPDEST PUSH1 0x1 PUSH1 0x1 PUSH1 0xA0 SHL SUB DUP4 AND PUSH1 0x0 SWAP1 DUP2 MSTORE PUSH1 0x7 PUSH1 0x20 MSTORE PUSH1 0x40 DUP2 KECCAK256 PUSH1 0x1 ADD SLOAD DUP2 SWAP1 DUP2 SWAP1 DUP2 SWAP1 PUSH3 0x15180 SWAP1 PUSH2 0x1377 SWAP1 TIMESTAMP PUSH2 0x2044 JUMP JUMPDEST PUSH2 0x1381 SWAP2 SWAP1 PUSH2 0x205B JUMP JUMPDEST PUSH1 0x1 PUSH1 0x1 PUSH1 0xA0 SHL SUB DUP9 AND PUSH1 0x0 SWAP1 DUP2 MSTORE PUSH1 0x7 PUSH1 0x20 MSTORE PUSH1 0x40 SWAP1 KECCAK256 PUSH1 0x2 ADD SLOAD SWAP1 SWAP2 POP PUSH2 0x13AB SWAP1 PUSH1 0x1E PUSH2 0x200D JUMP JUMPDEST PUSH1 0x1 PUSH1 0x1 PUSH1 0xA0 SHL SUB DUP9 AND PUSH1 0x0 SWAP1 DUP2 MSTORE PUSH1 0x8 PUSH1 0x20 MSTORE PUSH1 0x40 SWAP1 KECCAK256 SLOAD PUSH2 0x13CE SWAP2 SWAP1 PUSH2 0x205B JUMP JUMPDEST PUSH1 0x1 PUSH1 0x1 PUSH1 0xA0 SHL SUB DUP9 AND PUSH1 0x0 SWAP1 DUP2 MSTORE PUSH1 0x7 PUSH1 0x20 MSTORE PUSH1 0x40 SWAP1 KECCAK256 PUSH1 0x3 ADD SLOAD SWAP1 SWAP5 POP PUSH1 0x64 SUB PUSH2 0x14E9 JUMPI PUSH2 0x13FE DUP2 DUP6 PUSH2 0x200D JUMP JUMPDEST PUSH1 0x1 PUSH1 0x1 PUSH1 0xA0 SHL SUB DUP9 AND PUSH1 0x0 SWAP1 DUP2 MSTORE PUSH1 0xC PUSH1 0x20 MSTORE PUSH1 0x40 SWAP1 KECCAK256 SLOAD SWAP1 SWAP7 POP PUSH2 0x1424 SWAP1 DUP8 PUSH2 0x2044 JUMP JUMPDEST PUSH1 0x1 PUSH1 0x1 PUSH1 0xA0 SHL SUB DUP9 AND PUSH1 0x0 SWAP1 DUP2 MSTORE PUSH1 0x7 PUSH1 0x20 MSTORE PUSH1 0x40 SWAP1 KECCAK256 SLOAD PUSH2 0x1447 SWAP2 SWAP1 PUSH2 0x202C JUMP JUMPDEST SWAP3 POP PUSH2 0x3E8 PUSH1 0x6 SLOAD DUP5 PUSH2 0x145A SWAP2 SWAP1 PUSH2 0x200D JUMP JUMPDEST PUSH2 0x1464 SWAP2 SWAP1 PUSH2 0x205B JUMP JUMPDEST PUSH1 0x1 SLOAD SWAP1 SWAP3 POP PUSH1 0x1 PUSH1 0x1 PUSH1 0xA0 SHL SUB AND PUSH4 0xA9059CBB DUP9 PUSH2 0x1483 DUP6 DUP8 PUSH2 0x2044 JUMP JUMPDEST PUSH1 0x40 MLOAD DUP4 PUSH4 0xFFFFFFFF AND PUSH1 0xE0 SHL DUP2 MSTORE PUSH1 0x4 ADD PUSH2 0x14A0 SWAP3 SWAP2 SWAP1 PUSH2 0x207D JUMP JUMPDEST PUSH1 0x20 PUSH1 0x40 MLOAD DUP1 DUP4 SUB DUP2 PUSH1 0x0 DUP8 GAS CALL ISZERO DUP1 ISZERO PUSH2 0x14BF JUMPI RETURNDATASIZE PUSH1 0x0 DUP1 RETURNDATACOPY RETURNDATASIZE PUSH1 0x0 REVERT JUMPDEST POP POP POP POP PUSH1 0x40 MLOAD RETURNDATASIZE PUSH1 0x1F NOT PUSH1 0x1F DUP3 ADD AND DUP3 ADD DUP1 PUSH1 0x40 MSTORE POP DUP2 ADD SWAP1 PUSH2 0x14E3 SWAP2 SWAP1 PUSH2 0x2096 JUMP JUMPDEST POP PUSH2 0x18A4 JUMP JUMPDEST PUSH1 0x1 PUSH1 0x1 PUSH1 0xA0 SHL SUB DUP8 AND PUSH1 0x0 SWAP1 DUP2 MSTORE PUSH1 0x7 PUSH1 0x20 MSTORE PUSH1 0x40 SWAP1 KECCAK256 PUSH1 0x3 ADD SLOAD PUSH1 0x4B SUB PUSH2 0x16A4 JUMPI PUSH1 0x1 PUSH1 0x1 PUSH1 0xA0 SHL SUB DUP8 AND PUSH1 0x0 SWAP1 DUP2 MSTORE PUSH1 0xC PUSH1 0x20 MSTORE PUSH1 0x40 SWAP1 KECCAK256 SLOAD PUSH1 0x64 SWAP1 PUSH2 0x1532 DUP4 DUP8 PUSH2 0x200D JUMP JUMPDEST PUSH2 0x153C SWAP2 SWAP1 PUSH2 0x2044 JUMP JUMPDEST PUSH2 0x1547 SWAP1 PUSH1 0x4B PUSH2 0x200D JUMP JUMPDEST PUSH2 0x1551 SWAP2 SWAP1 PUSH2 0x205B JUMP JUMPDEST PUSH1 0x1 PUSH1 0x1 PUSH1 0xA0 SHL SUB DUP9 AND PUSH1 0x0 SWAP1 DUP2 MSTORE PUSH1 0x7 PUSH1 0x20 MSTORE PUSH1 0x40 SWAP1 KECCAK256 SLOAD SWAP1 SWAP7 POP PUSH2 0x1578 SWAP1 DUP8 SWAP1 PUSH2 0x202C JUMP JUMPDEST SWAP3 POP PUSH2 0x3E8 PUSH1 0x6 SLOAD DUP5 PUSH2 0x158B SWAP2 SWAP1 PUSH2 0x200D JUMP JUMPDEST PUSH2 0x1595 SWAP2 SWAP1 PUSH2 0x205B JUMP JUMPDEST PUSH1 0x1 SLOAD SWAP1 SWAP3 POP PUSH1 0x1 PUSH1 0x1 PUSH1 0xA0 SHL SUB AND PUSH4 0xA9059CBB DUP9 PUSH2 0x15B4 DUP6 DUP8 PUSH2 0x2044 JUMP JUMPDEST PUSH1 0x40 MLOAD DUP4 PUSH4 0xFFFFFFFF AND PUSH1 0xE0 SHL DUP2 MSTORE PUSH1 0x4 ADD PUSH2 0x15D1 SWAP3 SWAP2 SWAP1 PUSH2 0x207D JUMP JUMPDEST PUSH1 0x20 PUSH1 0x40 MLOAD DUP1 DUP4 SUB DUP2 PUSH1 0x0 DUP8 GAS CALL ISZERO DUP1 ISZERO PUSH2 0x15F0 JUMPI RETURNDATASIZE PUSH1 0x0 DUP1 RETURNDATACOPY RETURNDATASIZE PUSH1 0x0 REVERT JUMPDEST POP POP POP POP PUSH1 0x40 MLOAD RETURNDATASIZE PUSH1 0x1F NOT PUSH1 0x1F DUP3 ADD AND DUP3 ADD DUP1 PUSH1 0x40 MSTORE POP DUP2 ADD SWAP1 PUSH2 0x1614 SWAP2 SWAP1 PUSH2 0x2096 JUMP JUMPDEST POP PUSH1 0x1 PUSH1 0x1 PUSH1 0xA0 SHL SUB DUP8 AND PUSH1 0x0 SWAP1 DUP2 MSTORE PUSH1 0xC PUSH1 0x20 MSTORE PUSH1 0x40 SWAP1 KECCAK256 SLOAD PUSH1 0x64 SWAP1 PUSH2 0x163B DUP4 DUP8 PUSH2 0x200D JUMP JUMPDEST PUSH2 0x1645 SWAP2 SWAP1 PUSH2 0x2044 JUMP JUMPDEST PUSH2 0x1650 SWAP1 PUSH1 0x19 PUSH2 0x200D JUMP JUMPDEST PUSH2 0x165A SWAP2 SWAP1 PUSH2 0x205B JUMP JUMPDEST PUSH1 0x1 PUSH1 0x1 PUSH1 0xA0 SHL SUB DUP1 DUP10 AND PUSH1 0x0 SWAP1 DUP2 MSTORE PUSH1 0xD PUSH1 0x20 MSTORE PUSH1 0x40 SWAP1 DUP2 SWAP1 KECCAK256 DUP4 SWAP1 SSTORE PUSH1 0x1 SLOAD SWAP1 MLOAD PUSH4 0xA9059CBB PUSH1 0xE0 SHL DUP2 MSTORE SWAP3 SWAP8 POP AND SWAP1 PUSH4 0xA9059CBB SWAP1 PUSH2 0x14A0 SWAP1 PUSH2 0xDEAD SWAP1 DUP10 SWAP1 PUSH1 0x4 ADD PUSH2 0x207D JUMP JUMPDEST PUSH1 0x1 PUSH1 0x1 PUSH1 0xA0 SHL SUB DUP8 AND PUSH1 0x0 SWAP1 DUP2 MSTORE PUSH1 0x7 PUSH1 0x20 MSTORE PUSH1 0x40 SWAP1 KECCAK256 PUSH1 0x3 ADD SLOAD PUSH1 0x32 SUB PUSH2 0x18A4 JUMPI PUSH1 0x1 PUSH1 0x1 PUSH1 0xA0 SHL SUB DUP8 AND PUSH1 0x0 SWAP1 DUP2 MSTORE PUSH1 0xC PUSH1 0x20 MSTORE PUSH1 0x40 SWAP1 KECCAK256 SLOAD PUSH1 0x64 SWAP1 PUSH2 0x16ED DUP4 DUP8 PUSH2 0x200D JUMP JUMPDEST PUSH2 0x16F7 SWAP2 SWAP1 PUSH2 0x2044 JUMP JUMPDEST PUSH2 0x1702 SWAP1 PUSH1 0x32 PUSH2 0x200D JUMP JUMPDEST PUSH2 0x170C SWAP2 SWAP1 PUSH2 0x205B JUMP JUMPDEST PUSH1 0x1 PUSH1 0x1 PUSH1 0xA0 SHL SUB DUP9 AND PUSH1 0x0 SWAP1 DUP2 MSTORE PUSH1 0x7 PUSH1 0x20 MSTORE PUSH1 0x40 SWAP1 KECCAK256 SLOAD SWAP1 SWAP7 POP PUSH2 0x1733 SWAP1 DUP8 SWAP1 PUSH2 0x202C JUMP JUMPDEST SWAP3 POP PUSH2 0x3E8 PUSH1 0x6 SLOAD DUP5 PUSH2 0x1746 SWAP2 SWAP1 PUSH2 0x200D JUMP JUMPDEST PUSH2 0x1750 SWAP2 SWAP1 PUSH2 0x205B JUMP JUMPDEST PUSH1 0x1 SLOAD SWAP1 SWAP3 POP PUSH1 0x1 PUSH1 0x1 PUSH1 0xA0 SHL SUB AND PUSH4 0xA9059CBB DUP9 PUSH2 0x176F DUP6 DUP8 PUSH2 0x2044 JUMP JUMPDEST PUSH1 0x40 MLOAD DUP4 PUSH4 0xFFFFFFFF AND PUSH1 0xE0 SHL DUP2 MSTORE PUSH1 0x4 ADD PUSH2 0x178C SWAP3 SWAP2 SWAP1 PUSH2 0x207D JUMP JUMPDEST PUSH1 0x20 PUSH1 0x40 MLOAD DUP1 DUP4 SUB DUP2 PUSH1 0x0 DUP8 GAS CALL ISZERO DUP1 ISZERO PUSH2 0x17AB JUMPI RETURNDATASIZE PUSH1 0x0 DUP1 RETURNDATACOPY RETURNDATASIZE PUSH1 0x0 REVERT JUMPDEST POP POP POP POP PUSH1 0x40 MLOAD RETURNDATASIZE PUSH1 0x1F NOT PUSH1 0x1F DUP3 ADD AND DUP3 ADD DUP1 PUSH1 0x40 MSTORE POP DUP2 ADD SWAP1 PUSH2 0x17CF SWAP2 SWAP1 PUSH2 0x2096 JUMP JUMPDEST POP PUSH1 0x1 PUSH1 0x1 PUSH1 0xA0 SHL SUB DUP8 AND PUSH1 0x0 SWAP1 DUP2 MSTORE PUSH1 0xC PUSH1 0x20 MSTORE PUSH1 0x40 SWAP1 KECCAK256 SLOAD PUSH1 0x64 SWAP1 PUSH2 0x17F6 DUP4 DUP8 PUSH2 0x200D JUMP JUMPDEST PUSH2 0x1800 SWAP2 SWAP1 PUSH2 0x2044 JUMP JUMPDEST PUSH2 0x180B SWAP1 PUSH1 0x32 PUSH2 0x200D JUMP JUMPDEST PUSH2 0x1815 SWAP2 SWAP1 PUSH2 0x205B JUMP JUMPDEST PUSH1 0x1 PUSH1 0x1 PUSH1 0xA0 SHL SUB DUP1 DUP10 AND PUSH1 0x0 SWAP1 DUP2 MSTORE PUSH1 0xD PUSH1 0x20 MSTORE PUSH1 0x40 SWAP1 DUP2 SWAP1 KECCAK256 DUP4 SWAP1 SSTORE PUSH1 0x1 SLOAD SWAP1 MLOAD PUSH4 0xA9059CBB PUSH1 0xE0 SHL DUP2 MSTORE SWAP3 SWAP8 POP AND SWAP1 PUSH4 0xA9059CBB SWAP1 PUSH2 0x185F SWAP1 PUSH2 0xDEAD SWAP1 DUP10 SWAP1 PUSH1 0x4 ADD PUSH2 0x207D JUMP JUMPDEST PUSH1 0x20 PUSH1 0x40 MLOAD DUP1 DUP4 SUB DUP2 PUSH1 0x0 DUP8 GAS CALL ISZERO DUP1 ISZERO PUSH2 0x187E JUMPI RETURNDATASIZE PUSH1 0x0 DUP1 RETURNDATACOPY RETURNDATASIZE PUSH1 0x0 REVERT JUMPDEST POP POP POP POP PUSH1 0x40 MLOAD RETURNDATASIZE PUSH1 0x1F NOT PUSH1 0x1F DUP3 ADD AND DUP3 ADD DUP1 PUSH1 0x40 MSTORE POP DUP2 ADD SWAP1 PUSH2 0x18A2 SWAP2 SWAP1 PUSH2 0x2096 JUMP JUMPDEST POP JUMPDEST POP POP POP POP JUMPDEST PUSH1 0x1 PUSH1 0x1 PUSH1 0xA0 SHL SUB DUP4 AND PUSH1 0x0 SWAP1 DUP2 MSTORE PUSH1 0x7 PUSH1 0x20 SWAP1 DUP2 MSTORE PUSH1 0x40 DUP1 DUP4 KECCAK256 PUSH1 0x4 DUP2 ADD DUP1 SLOAD PUSH1 0xFF NOT AND SWAP1 SSTORE PUSH1 0xC DUP4 MSTORE DUP2 DUP5 KECCAK256 DUP5 SWAP1 SSTORE PUSH1 0x8 DUP4 MSTORE DUP2 DUP5 KECCAK256 DUP5 SWAP1 SSTORE SLOAD PUSH1 0xB SWAP1 SWAP3 MSTORE DUP3 KECCAK256 DUP1 SLOAD SWAP2 SWAP3 SWAP1 SWAP2 PUSH2 0x18FD SWAP1 DUP5 SWAP1 PUSH2 0x2044 JUMP JUMPDEST SWAP1 SWAP2 SSTORE POP POP PUSH1 0x1 PUSH1 0x1 PUSH1 0xA0 SHL SUB DUP4 AND PUSH1 0x0 SWAP1 DUP2 MSTORE PUSH1 0x7 PUSH1 0x20 MSTORE PUSH1 0x40 DUP2 KECCAK256 SLOAD PUSH1 0x3 DUP1 SLOAD SWAP2 SWAP3 SWAP1 SWAP2 PUSH2 0x192E SWAP1 DUP5 SWAP1 PUSH2 0x2044 JUMP JUMPDEST SWAP1 SWAP2 SSTORE POP POP POP POP POP JUMP JUMPDEST PUSH2 0x1940 PUSH2 0x1C0D JUMP JUMPDEST CALLER PUSH1 0x0 SWAP1 DUP2 MSTORE PUSH1 0xB PUSH1 0x20 MSTORE PUSH1 0x40 DUP2 KECCAK256 DUP1 SLOAD DUP4 SWAP3 SWAP1 PUSH2 0x195F SWAP1 DUP5 SWAP1 PUSH2 0x202C JUMP JUMPDEST SWAP1 SWAP2 SSTORE POP POP PUSH1 0x1 SLOAD PUSH2 0x197C SWAP1 PUSH1 0x1 PUSH1 0x1 PUSH1 0xA0 SHL SUB AND CALLER ADDRESS DUP5 PUSH2 0x1BAD JUMP JUMPDEST POP JUMP JUMPDEST PUSH2 0x1987 PUSH2 0x1C0D JUMP JUMPDEST PUSH1 0xA PUSH1 0x20 MSTORE PUSH32 0xBBC70DB1B6C7AFD11E79C0FB0051300458F1A3ACB8EE9789D9B6B26C61AD9BC7 SWAP3 SWAP1 SWAP3 SSTORE PUSH32 0xBFF4442B8ED600BEEB8E26B1279A0F0D14C6EDFAEC26D968EE13C86F7D4C2BA8 SSTORE PUSH1 0x3 PUSH1 0x0 MSTORE PUSH32 0xA856840544DC26124927ADD067D799967EAC11BE13E14D82CC281EA46FA39759 SSTORE JUMP JUMPDEST PUSH1 0x1 PUSH1 0x1 PUSH1 0xA0 SHL SUB DUP2 AND PUSH1 0x0 SWAP1 DUP2 MSTORE PUSH1 0x7 PUSH1 0x20 MSTORE PUSH1 0x40 DUP2 KECCAK256 PUSH1 0x1 DUP2 ADD SLOAD PUSH1 0x2 SWAP1 SWAP2 ADD SLOAD TIMESTAMP SWAP2 SWAP1 PUSH2 0x1A2D SWAP1 PUSH1 0x1E PUSH2 0x200D JUMP JUMPDEST PUSH2 0x1A38 SWAP1 PUSH1 0x18 PUSH2 0x200D JUMP JUMPDEST PUSH2 0x1A43 SWAP1 PUSH1 0x3C PUSH2 0x200D JUMP JUMPDEST PUSH2 0x1A4E SWAP1 PUSH1 0x3C PUSH2 0x200D JUMP JUMPDEST PUSH2 0x1A58 SWAP2 SWAP1 PUSH2 0x202C JUMP JUMPDEST LT ISZERO PUSH2 0x1A7A JUMPI POP PUSH1 0x1 PUSH1 0x1 PUSH1 0xA0 SHL SUB AND PUSH1 0x0 SWAP1 DUP2 MSTORE PUSH1 0x8 PUSH1 0x20 MSTORE PUSH1 0x40 SWAP1 KECCAK256 SLOAD SWAP1 JUMP JUMPDEST PUSH1 0x1 PUSH1 0x1 PUSH1 0xA0 SHL SUB DUP3 AND PUSH1 0x0 SWAP1 DUP2 MSTORE PUSH1 0x7 PUSH1 0x20 MSTORE PUSH1 0x40 DUP2 KECCAK256 PUSH1 0x1 ADD SLOAD PUSH3 0x15180 SWAP1 PUSH2 0x1AA5 SWAP1 TIMESTAMP PUSH2 0x2044 JUMP JUMPDEST PUSH2 0x1AAF SWAP2 SWAP1 PUSH2 0x205B JUMP JUMPDEST PUSH1 0x1 PUSH1 0x1 PUSH1 0xA0 SHL SUB DUP5 AND PUSH1 0x0 SWAP1 DUP2 MSTORE PUSH1 0x7 PUSH1 0x20 MSTORE PUSH1 0x40 DUP2 KECCAK256 PUSH1 0x2 ADD SLOAD SWAP2 SWAP3 POP SWAP1 PUSH2 0x1ADA SWAP1 PUSH1 0x1E PUSH2 0x200D JUMP JUMPDEST PUSH1 0x1 PUSH1 0x1 PUSH1 0xA0 SHL SUB DUP6 AND PUSH1 0x0 SWAP1 DUP2 MSTORE PUSH1 0x8 PUSH1 0x20 MSTORE PUSH1 0x40 SWAP1 KECCAK256 SLOAD PUSH2 0x1AFD SWAP2 SWAP1 PUSH2 0x205B JUMP JUMPDEST PUSH1 0x1 PUSH1 0x1 PUSH1 0xA0 SHL SUB DUP6 AND PUSH1 0x0 SWAP1 DUP2 MSTORE PUSH1 0xC PUSH1 0x20 MSTORE PUSH1 0x40 DUP2 KECCAK256 SLOAD SWAP2 SWAP3 POP SWAP1 PUSH2 0x1B24 DUP5 DUP5 PUSH2 0x200D JUMP JUMPDEST PUSH2 0x1B2E SWAP2 SWAP1 PUSH2 0x2044 JUMP JUMPDEST SWAP6 SWAP5 POP POP POP POP POP JUMP JUMPDEST PUSH2 0x1B3F PUSH2 0x1C0D JUMP JUMPDEST PUSH1 0x1 PUSH1 0x1 PUSH1 0xA0 SHL SUB DUP2 AND PUSH2 0x1BA4 JUMPI PUSH1 0x40 MLOAD PUSH3 0x461BCD PUSH1 0xE5 SHL DUP2 MSTORE PUSH1 0x20 PUSH1 0x4 DUP3 ADD MSTORE PUSH1 0x26 PUSH1 0x24 DUP3 ADD MSTORE PUSH32 0x4F776E61626C653A206E6577206F776E657220697320746865207A65726F2061 PUSH1 0x44 DUP3 ADD MSTORE PUSH6 0x646472657373 PUSH1 0xD0 SHL PUSH1 0x64 DUP3 ADD MSTORE PUSH1 0x84 ADD PUSH2 0x479 JUMP JUMPDEST PUSH2 0x197C DUP2 PUSH2 0x1C67 JUMP JUMPDEST PUSH1 0x40 DUP1 MLOAD PUSH1 0x1 PUSH1 0x1 PUSH1 0xA0 SHL SUB DUP6 DUP2 AND PUSH1 0x24 DUP4 ADD MSTORE DUP5 AND PUSH1 0x44 DUP3 ADD MSTORE PUSH1 0x64 DUP1 DUP3 ADD DUP5 SWAP1 MSTORE DUP3 MLOAD DUP1 DUP4 SUB SWAP1 SWAP2 ADD DUP2 MSTORE PUSH1 0x84 SWAP1 SWAP2 ADD SWAP1 SWAP2 MSTORE PUSH1 0x20 DUP2 ADD DUP1 MLOAD PUSH1 0x1 PUSH1 0x1 PUSH1 0xE0 SHL SUB AND PUSH4 0x23B872DD PUSH1 0xE0 SHL OR SWAP1 MSTORE PUSH2 0x1C07 SWAP1 DUP6 SWAP1 PUSH2 0x1CB7 JUMP JUMPDEST POP POP POP POP JUMP JUMPDEST PUSH1 0x0 SLOAD PUSH1 0x1 PUSH1 0x1 PUSH1 0xA0 SHL SUB AND CALLER EQ PUSH2 0xEC7 JUMPI PUSH1 0x40 MLOAD PUSH3 0x461BCD PUSH1 0xE5 SHL DUP2 MSTORE PUSH1 0x20 PUSH1 0x4 DUP3 ADD DUP2 SWAP1 MSTORE PUSH1 0x24 DUP3 ADD MSTORE PUSH32 0x4F776E61626C653A2063616C6C6572206973206E6F7420746865206F776E6572 PUSH1 0x44 DUP3 ADD MSTORE PUSH1 0x64 ADD PUSH2 0x479 JUMP JUMPDEST PUSH1 0x0 DUP1 SLOAD PUSH1 0x1 PUSH1 0x1 PUSH1 0xA0 SHL SUB DUP4 DUP2 AND PUSH1 0x1 PUSH1 0x1 PUSH1 0xA0 SHL SUB NOT DUP4 AND DUP2 OR DUP5 SSTORE PUSH1 0x40 MLOAD SWAP2 SWAP1 SWAP3 AND SWAP3 DUP4 SWAP2 PUSH32 0x8BE0079C531659141344CD1FD0A4F28419497F9722A3DAAFE3B4186F6B6457E0 SWAP2 SWAP1 LOG3 POP POP JUMP JUMPDEST PUSH1 0x0 PUSH2 0x1D0C DUP3 PUSH1 0x40 MLOAD DUP1 PUSH1 0x40 ADD PUSH1 0x40 MSTORE DUP1 PUSH1 0x20 DUP2 MSTORE PUSH1 0x20 ADD PUSH32 0x5361666545524332303A206C6F772D6C6576656C2063616C6C206661696C6564 DUP2 MSTORE POP DUP6 PUSH1 0x1 PUSH1 0x1 PUSH1 0xA0 SHL SUB AND PUSH2 0x1D8E SWAP1 SWAP3 SWAP2 SWAP1 PUSH4 0xFFFFFFFF AND JUMP JUMPDEST DUP1 MLOAD SWAP1 SWAP2 POP ISZERO PUSH2 0x1D89 JUMPI DUP1 DUP1 PUSH1 0x20 ADD SWAP1 MLOAD DUP2 ADD SWAP1 PUSH2 0x1D2A SWAP2 SWAP1 PUSH2 0x2096 JUMP JUMPDEST PUSH2 0x1D89 JUMPI PUSH1 0x40 MLOAD PUSH3 0x461BCD PUSH1 0xE5 SHL DUP2 MSTORE PUSH1 0x20 PUSH1 0x4 DUP3 ADD MSTORE PUSH1 0x2A PUSH1 0x24 DUP3 ADD MSTORE PUSH32 0x5361666545524332303A204552433230206F7065726174696F6E20646964206E PUSH1 0x44 DUP3 ADD MSTORE PUSH10 0x1BDD081CDD58D8D95959 PUSH1 0xB2 SHL PUSH1 0x64 DUP3 ADD MSTORE PUSH1 0x84 ADD PUSH2 0x479 JUMP JUMPDEST POP POP POP JUMP JUMPDEST PUSH1 0x60 PUSH2 0x1D9D DUP5 DUP5 PUSH1 0x0 DUP6 PUSH2 0x1DA5 JUMP JUMPDEST SWAP5 SWAP4 POP POP POP POP JUMP JUMPDEST PUSH1 0x60 DUP3 SELFBALANCE LT ISZERO PUSH2 0x1E06 JUMPI PUSH1 0x40 MLOAD PUSH3 0x461BCD PUSH1 0xE5 SHL DUP2 MSTORE PUSH1 0x20 PUSH1 0x4 DUP3 ADD MSTORE PUSH1 0x26 PUSH1 0x24 DUP3 ADD MSTORE PUSH32 0x416464726573733A20696E73756666696369656E742062616C616E636520666F PUSH1 0x44 DUP3 ADD MSTORE PUSH6 0x1C8818D85B1B PUSH1 0xD2 SHL PUSH1 0x64 DUP3 ADD MSTORE PUSH1 0x84 ADD PUSH2 0x479 JUMP JUMPDEST PUSH1 0x0 DUP1 DUP7 PUSH1 0x1 PUSH1 0x1 PUSH1 0xA0 SHL SUB AND DUP6 DUP8 PUSH1 0x40 MLOAD PUSH2 0x1E22 SWAP2 SWAP1 PUSH2 0x20E4 JUMP JUMPDEST PUSH1 0x0 PUSH1 0x40 MLOAD DUP1 DUP4 SUB DUP2 DUP6 DUP8 GAS CALL SWAP3 POP POP POP RETURNDATASIZE DUP1 PUSH1 0x0 DUP2 EQ PUSH2 0x1E5F JUMPI PUSH1 0x40 MLOAD SWAP2 POP PUSH1 0x1F NOT PUSH1 0x3F RETURNDATASIZE ADD AND DUP3 ADD PUSH1 0x40 MSTORE RETURNDATASIZE DUP3 MSTORE RETURNDATASIZE PUSH1 0x0 PUSH1 0x20 DUP5 ADD RETURNDATACOPY PUSH2 0x1E64 JUMP JUMPDEST PUSH1 0x60 SWAP2 POP JUMPDEST POP SWAP2 POP SWAP2 POP PUSH2 0x1E75 DUP8 DUP4 DUP4 DUP8 PUSH2 0x1E80 JUMP JUMPDEST SWAP8 SWAP7 POP POP POP POP POP POP POP JUMP JUMPDEST PUSH1 0x60 DUP4 ISZERO PUSH2 0x1EEF JUMPI DUP3 MLOAD PUSH1 0x0 SUB PUSH2 0x1EE8 JUMPI PUSH1 0x1 PUSH1 0x1 PUSH1 0xA0 SHL SUB DUP6 AND EXTCODESIZE PUSH2 0x1EE8 JUMPI PUSH1 0x40 MLOAD PUSH3 0x461BCD PUSH1 0xE5 SHL DUP2 MSTORE PUSH1 0x20 PUSH1 0x4 DUP3 ADD MSTORE PUSH1 0x1D PUSH1 0x24 DUP3 ADD MSTORE PUSH32 0x416464726573733A2063616C6C20746F206E6F6E2D636F6E7472616374000000 PUSH1 0x44 DUP3 ADD MSTORE PUSH1 0x64 ADD PUSH2 0x479 JUMP JUMPDEST POP DUP2 PUSH2 0x1D9D JUMP JUMPDEST PUSH2 0x1D9D DUP4 DUP4 DUP2 MLOAD ISZERO PUSH2 0x1F04 JUMPI DUP2 MLOAD DUP1 DUP4 PUSH1 0x20 ADD REVERT JUMPDEST DUP1 PUSH1 0x40 MLOAD PUSH3 0x461BCD PUSH1 0xE5 SHL DUP2 MSTORE PUSH1 0x4 ADD PUSH2 0x479 SWAP2 SWAP1 PUSH2 0x2100 JUMP JUMPDEST DUP1 CALLDATALOAD PUSH1 0x1 PUSH1 0x1 PUSH1 0xA0 SHL SUB DUP2 AND DUP2 EQ PUSH2 0x6C2 JUMPI PUSH1 0x0 DUP1 REVERT JUMPDEST PUSH1 0x0 PUSH1 0x20 DUP3 DUP5 SUB SLT ISZERO PUSH2 0x1F47 JUMPI PUSH1 0x0 DUP1 REVERT JUMPDEST PUSH2 0x1F50 DUP3 PUSH2 0x1F1E JUMP JUMPDEST SWAP4 SWAP3 POP POP POP JUMP JUMPDEST PUSH1 0x0 DUP1 PUSH1 0x0 DUP1 PUSH1 0x80 DUP6 DUP8 SUB SLT ISZERO PUSH2 0x1F6D JUMPI PUSH1 0x0 DUP1 REVERT JUMPDEST PUSH2 0x1F76 DUP6 PUSH2 0x1F1E JUMP JUMPDEST SWAP7 PUSH1 0x20 DUP7 ADD CALLDATALOAD SWAP7 POP PUSH1 0x40 DUP7 ADD CALLDATALOAD SWAP6 PUSH1 0x60 ADD CALLDATALOAD SWAP5 POP SWAP3 POP POP POP JUMP JUMPDEST PUSH1 0x0 PUSH1 0x20 DUP3 DUP5 SUB SLT ISZERO PUSH2 0x1FA2 JUMPI PUSH1 0x0 DUP1 REVERT JUMPDEST POP CALLDATALOAD SWAP2 SWAP1 POP JUMP JUMPDEST PUSH1 0x0 DUP1 PUSH1 0x0 PUSH1 0x60 DUP5 DUP7 SUB SLT ISZERO PUSH2 0x1FBE JUMPI PUSH1 0x0 DUP1 REVERT JUMPDEST POP POP DUP2 CALLDATALOAD SWAP4 PUSH1 0x20 DUP4 ADD CALLDATALOAD SWAP4 POP PUSH1 0x40 SWAP1 SWAP3 ADD CALLDATALOAD SWAP2 SWAP1 POP JUMP JUMPDEST PUSH1 0x0 DUP1 PUSH1 0x40 DUP4 DUP6 SUB SLT ISZERO PUSH2 0x1FE8 JUMPI PUSH1 0x0 DUP1 REVERT JUMPDEST POP POP DUP1 CALLDATALOAD SWAP3 PUSH1 0x20 SWAP1 SWAP2 ADD CALLDATALOAD SWAP2 POP JUMP JUMPDEST PUSH4 0x4E487B71 PUSH1 0xE0 SHL PUSH1 0x0 MSTORE PUSH1 0x11 PUSH1 0x4 MSTORE PUSH1 0x24 PUSH1 0x0 REVERT JUMPDEST PUSH1 0x0 DUP2 PUSH1 0x0 NOT DIV DUP4 GT DUP3 ISZERO ISZERO AND ISZERO PUSH2 0x2027 JUMPI PUSH2 0x2027 PUSH2 0x1FF7 JUMP JUMPDEST POP MUL SWAP1 JUMP JUMPDEST PUSH1 0x0 DUP3 NOT DUP3 GT ISZERO PUSH2 0x203F JUMPI PUSH2 0x203F PUSH2 0x1FF7 JUMP JUMPDEST POP ADD SWAP1 JUMP JUMPDEST PUSH1 0x0 DUP3 DUP3 LT ISZERO PUSH2 0x2056 JUMPI PUSH2 0x2056 PUSH2 0x1FF7 JUMP JUMPDEST POP SUB SWAP1 JUMP JUMPDEST PUSH1 0x0 DUP3 PUSH2 0x2078 JUMPI PUSH4 0x4E487B71 PUSH1 0xE0 SHL PUSH1 0x0 MSTORE PUSH1 0x12 PUSH1 0x4 MSTORE PUSH1 0x24 PUSH1 0x0 REVERT JUMPDEST POP DIV SWAP1 JUMP JUMPDEST PUSH1 0x1 PUSH1 0x1 PUSH1 0xA0 SHL SUB SWAP3 SWAP1 SWAP3 AND DUP3 MSTORE PUSH1 0x20 DUP3 ADD MSTORE PUSH1 0x40 ADD SWAP1 JUMP JUMPDEST PUSH1 0x0 PUSH1 0x20 DUP3 DUP5 SUB SLT ISZERO PUSH2 0x20A8 JUMPI PUSH1 0x0 DUP1 REVERT JUMPDEST DUP2 MLOAD DUP1 ISZERO ISZERO DUP2 EQ PUSH2 0x1F50 JUMPI PUSH1 0x0 DUP1 REVERT JUMPDEST PUSH1 0x0 JUMPDEST DUP4 DUP2 LT ISZERO PUSH2 0x20D3 JUMPI DUP2 DUP2 ADD MLOAD DUP4 DUP3 ADD MSTORE PUSH1 0x20 ADD PUSH2 0x20BB JUMP JUMPDEST DUP4 DUP2 GT ISZERO PUSH2 0x1C07 JUMPI POP POP PUSH1 0x0 SWAP2 ADD MSTORE JUMP JUMPDEST PUSH1 0x0 DUP3 MLOAD PUSH2 0x20F6 DUP2 DUP5 PUSH1 0x20 DUP8 ADD PUSH2 0x20B8 JUMP JUMPDEST SWAP2 SWAP1 SWAP2 ADD SWAP3 SWAP2 POP POP JUMP JUMPDEST PUSH1 0x20 DUP2 MSTORE PUSH1 0x0 DUP3 MLOAD DUP1 PUSH1 0x20 DUP5 ADD MSTORE PUSH2 0x211F DUP2 PUSH1 0x40 DUP6 ADD PUSH1 0x20 DUP8 ADD PUSH2 0x20B8 JUMP JUMPDEST PUSH1 0x1F ADD PUSH1 0x1F NOT AND SWAP2 SWAP1 SWAP2 ADD PUSH1 0x40 ADD SWAP3 SWAP2 POP POP JUMP INVALID PUSH13 0xDE3CEA4B3A3FB2488B2808BAE7 SSTORE PUSH16 0x4A405E50F65E1794383BC026131B13C3 0xC5 PUSH22 0xC31FEA594A6EB97C8E9D3F9CAEE4C16218C6EF37E923 0x23 0x4C 0xF 0xE9 ADD 0x4A PUSH2 0xE792 0xE8 0x5D MUL JUMPI EXP DUP1 SWAP3 0xD0 SWAP11 PUSH15 0x3A57665BC3815A2699A4074001BF1C 0xCA 0xBF PUSH7 0xF5A36A2646970 PUSH7 0x73582212204176 0xC5 CODESIZE PUSH32 0x98CE649DB477DD21DC0AC4370BB46C7B3B50D75533537794A4832364736F6C63 NUMBER STOP ADDMOD 0xD STOP CALLER "
		},
		"gasEstimates": {
			"creation": {
				"codeDepositCost": "1729800",
				"executionCost": "infinite",
				"totalCost": "infinite"
			},
			"external": {
				"APY(uint256)": "2539",
				"APYPer(uint256)": "2494",
				"AdminAddToken(uint256)": "infinite",
				"BurnAmount(address)": "2553",
				"ClaimRewards(address)": "infinite",
				"DepositTokens(address,uint256,uint256,uint256)": "infinite",
				"Details(address)": "11185",
				"ERC20Address()": "2359",
				"InterestAmount(address)": "2641",
				"RewardAmount(address)": "2553",
				"SetAPY(uint256,uint256,uint256)": "68889",
				"SetRewardPersentage(uint256,uint256,uint256)": "68833",
				"Tokens(address)": "2576",
				"WithdrawTokens(address)": "infinite",
				"getTaxPenalty()": "4496",
				"owner()": "2409",
				"renounceOwnership()": "infinite",
				"setTexAndPenalty(uint256,uint256)": "44514",
				"totalStakedTokens()": "2395",
				"transferOwnership(address)": "28465",
				"viewBurnRewards(address)": "7231",
				"viewRewards(address)": "infinite"
			}
		},
		"methodIdentifiers": {
			"APY(uint256)": "186cb65b",
			"APYPer(uint256)": "897b3a68",
			"AdminAddToken(uint256)": "c0cd40ee",
			"BurnAmount(address)": "22b72666",
			"ClaimRewards(address)": "0178be5f",
			"DepositTokens(address,uint256,uint256,uint256)": "10c404da",
			"Details(address)": "e88cc2be",
			"ERC20Address()": "a6021ace",
			"InterestAmount(address)": "662b12c9",
			"RewardAmount(address)": "777b4cd8",
			"SetAPY(uint256,uint256,uint256)": "21736665",
			"SetRewardPersentage(uint256,uint256,uint256)": "d6f80a25",
			"Tokens(address)": "0deef63a",
			"WithdrawTokens(address)": "9131a05a",
			"getTaxPenalty()": "2e886f1f",
			"owner()": "8da5cb5b",
			"renounceOwnership()": "715018a6",
			"setTexAndPenalty(uint256,uint256)": "264b4af6",
			"totalStakedTokens()": "3ae73259",
			"transferOwnership(address)": "f2fde38b",
			"viewBurnRewards(address)": "032ad8fb",
			"viewRewards(address)": "da40ef80"
		}
	},
	"abi": [
		{
			"inputs": [
				{
					"internalType": "address",
					"name": "_ERC20Address",
					"type": "address"
				}
			],
			"stateMutability": "nonpayable",
			"type": "constructor"
		},
		{
			"anonymous": false,
			"inputs": [
				{
					"indexed": true,
					"internalType": "address",
					"name": "previousOwner",
					"type": "address"
				},
				{
					"indexed": true,
					"internalType": "address",
					"name": "newOwner",
					"type": "address"
				}
			],
			"name": "OwnershipTransferred",
			"type": "event"
		},
		{
			"inputs": [
				{
					"internalType": "uint256",
					"name": "",
					"type": "uint256"
				}
			],
			"name": "APY",
			"outputs": [
				{
					"internalType": "uint256",
					"name": "",
					"type": "uint256"
				}
			],
			"stateMutability": "view",
			"type": "function"
		},
		{
			"inputs": [
				{
					"internalType": "uint256",
					"name": "",
					"type": "uint256"
				}
			],
			"name": "APYPer",
			"outputs": [
				{
					"internalType": "uint256",
					"name": "",
					"type": "uint256"
				}
			],
			"stateMutability": "view",
			"type": "function"
		},
		{
			"inputs": [
				{
					"internalType": "uint256",
					"name": "_amount",
					"type": "uint256"
				}
			],
			"name": "AdminAddToken",
			"outputs": [],
			"stateMutability": "nonpayable",
			"type": "function"
		},
		{
			"inputs": [
				{
					"internalType": "address",
					"name": "",
					"type": "address"
				}
			],
			"name": "BurnAmount",
			"outputs": [
				{
					"internalType": "uint256",
					"name": "",
					"type": "uint256"
				}
			],
			"stateMutability": "view",
			"type": "function"
		},
		{
			"inputs": [
				{
					"internalType": "address",
					"name": "to",
					"type": "address"
				}
			],
			"name": "ClaimRewards",
			"outputs": [],
			"stateMutability": "nonpayable",
			"type": "function"
		},
		{
			"inputs": [
				{
					"internalType": "address",
					"name": "to",
					"type": "address"
				},
				{
					"internalType": "uint256",
					"name": "_payment",
					"type": "uint256"
				},
				{
					"internalType": "uint256",
					"name": "StakeMonth",
					"type": "uint256"
				},
				{
					"internalType": "uint256",
					"name": "EarnPersentage",
					"type": "uint256"
				}
			],
			"name": "DepositTokens",
			"outputs": [],
			"stateMutability": "nonpayable",
			"type": "function"
		},
		{
			"inputs": [
				{
					"internalType": "address",
					"name": "",
					"type": "address"
				}
			],
			"name": "Details",
			"outputs": [
				{
					"internalType": "uint256",
					"name": "depositTokens",
					"type": "uint256"
				},
				{
					"internalType": "uint256",
					"name": "stakeTime",
					"type": "uint256"
				},
				{
					"internalType": "uint256",
					"name": "StakeMonth",
					"type": "uint256"
				},
				{
					"internalType": "uint256",
					"name": "EarnPersentage",
					"type": "uint256"
				},
				{
					"internalType": "bool",
					"name": "check",
					"type": "bool"
				}
			],
			"stateMutability": "view",
			"type": "function"
		},
		{
			"inputs": [],
			"name": "ERC20Address",
			"outputs": [
				{
					"internalType": "address",
					"name": "",
					"type": "address"
				}
			],
			"stateMutability": "view",
			"type": "function"
		},
		{
			"inputs": [
				{
					"internalType": "address",
					"name": "",
					"type": "address"
				}
			],
			"name": "InterestAmount",
			"outputs": [
				{
					"internalType": "uint256",
					"name": "",
					"type": "uint256"
				}
			],
			"stateMutability": "view",
			"type": "function"
		},
		{
			"inputs": [
				{
					"internalType": "address",
					"name": "",
					"type": "address"
				}
			],
			"name": "RewardAmount",
			"outputs": [
				{
					"internalType": "uint256",
					"name": "",
					"type": "uint256"
				}
			],
			"stateMutability": "view",
			"type": "function"
		},
		{
			"inputs": [
				{
					"internalType": "uint256",
					"name": "Month1",
					"type": "uint256"
				},
				{
					"internalType": "uint256",
					"name": "Month2",
					"type": "uint256"
				},
				{
					"internalType": "uint256",
					"name": "Month3",
					"type": "uint256"
				}
			],
			"name": "SetAPY",
			"outputs": [],
			"stateMutability": "nonpayable",
			"type": "function"
		},
		{
			"inputs": [
				{
					"internalType": "uint256",
					"name": "Month1Per",
					"type": "uint256"
				},
				{
					"internalType": "uint256",
					"name": "Month2Per",
					"type": "uint256"
				},
				{
					"internalType": "uint256",
					"name": "Month3Per",
					"type": "uint256"
				}
			],
			"name": "SetRewardPersentage",
			"outputs": [],
			"stateMutability": "nonpayable",
			"type": "function"
		},
		{
			"inputs": [
				{
					"internalType": "address",
					"name": "",
					"type": "address"
				}
			],
			"name": "Tokens",
			"outputs": [
				{
					"internalType": "uint256",
					"name": "",
					"type": "uint256"
				}
			],
			"stateMutability": "view",
			"type": "function"
		},
		{
			"inputs": [
				{
					"internalType": "address",
					"name": "to",
					"type": "address"
				}
			],
			"name": "WithdrawTokens",
			"outputs": [],
			"stateMutability": "nonpayable",
			"type": "function"
		},
		{
			"inputs": [],
			"name": "getTaxPenalty",
			"outputs": [
				{
					"internalType": "uint256",
					"name": "tax",
					"type": "uint256"
				},
				{
					"internalType": "uint256",
					"name": "pen",
					"type": "uint256"
				}
			],
			"stateMutability": "view",
			"type": "function"
		},
		{
			"inputs": [],
			"name": "owner",
			"outputs": [
				{
					"internalType": "address",
					"name": "",
					"type": "address"
				}
			],
			"stateMutability": "view",
			"type": "function"
		},
		{
			"inputs": [],
			"name": "renounceOwnership",
			"outputs": [],
			"stateMutability": "nonpayable",
			"type": "function"
		},
		{
			"inputs": [
				{
					"internalType": "uint256",
					"name": "taxFee",
					"type": "uint256"
				},
				{
					"internalType": "uint256",
					"name": "_penalty",
					"type": "uint256"
				}
			],
			"name": "setTexAndPenalty",
			"outputs": [],
			"stateMutability": "nonpayable",
			"type": "function"
		},
		{
			"inputs": [],
			"name": "totalStakedTokens",
			"outputs": [
				{
					"internalType": "uint256",
					"name": "",
					"type": "uint256"
				}
			],
			"stateMutability": "view",
			"type": "function"
		},
		{
			"inputs": [
				{
					"internalType": "address",
					"name": "newOwner",
					"type": "address"
				}
			],
			"name": "transferOwnership",
			"outputs": [],
			"stateMutability": "nonpayable",
			"type": "function"
		},
		{
			"inputs": [
				{
					"internalType": "address",
					"name": "to",
					"type": "address"
				}
			],
			"name": "viewBurnRewards",
			"outputs": [
				{
					"internalType": "uint256",
					"name": "reward",
					"type": "uint256"
				}
			],
			"stateMutability": "view",
			"type": "function"
		},
		{
			"inputs": [
				{
					"internalType": "address",
					"name": "to",
					"type": "address"
				}
			],
			"name": "viewRewards",
			"outputs": [
				{
					"internalType": "uint256",
					"name": "reward",
					"type": "uint256"
				}
			],
			"stateMutability": "view",
			"type": "function"
		}
	]
}