{
	"data": {
		"bytecode": {
			"linkReferences": {},
			"object": "60a060405273e592427a0aece92de3edee1f18e0157c0586156473ffffffffffffffffffffffffffffffffffffffff1660809073ffffffffffffffffffffffffffffffffffffffff1681525034801562000057575f80fd5b506040518060400160405280600e81526020017f46726f676769657320546f6b656e0000000000000000000000000000000000008152506040518060400160405280600581526020017f46524753540000000000000000000000000000000000000000000000000000008152508160039081620000d59190620006d9565b508060049081620000e79190620006d9565b5050506200010a620000fe6200023460201b60201c565b6200023b60201b60201c565b6200014c336200011f620002fe60201b60201c565b600a6200012d919062000946565b655af3107a400062000140919062000996565b6200030660201b60201c565b600960039054906101000a900473ffffffffffffffffffffffffffffffffffffffff16600e5f6101000a81548173ffffffffffffffffffffffffffffffffffffffff021916908373ffffffffffffffffffffffffffffffffffffffff1602179055503060065f6101000a81548173ffffffffffffffffffffffffffffffffffffffff021916908373ffffffffffffffffffffffffffffffffffffffff16021790555030600d5f6101000a81548173ffffffffffffffffffffffffffffffffffffffff021916908373ffffffffffffffffffffffffffffffffffffffff16021790555062000ac4565b5f33905090565b5f60055f9054906101000a900473ffffffffffffffffffffffffffffffffffffffff1690508160055f6101000a81548173ffffffffffffffffffffffffffffffffffffffff021916908373ffffffffffffffffffffffffffffffffffffffff1602179055508173ffffffffffffffffffffffffffffffffffffffff168173ffffffffffffffffffffffffffffffffffffffff167f8be0079c531659141344cd1fd0a4f28419497f9722a3daafe3b4186f6b6457e060405160405180910390a35050565b5f6012905090565b5f73ffffffffffffffffffffffffffffffffffffffff168273ffffffffffffffffffffffffffffffffffffffff160362000377576040517f08c379a00000000000000000000000000000000000000000000000000000000081526004016200036e9062000a3e565b60405180910390fd5b6200038a5f83836200046b60201b60201c565b8060025f8282546200039d919062000a5e565b92505081905550805f808473ffffffffffffffffffffffffffffffffffffffff1673ffffffffffffffffffffffffffffffffffffffff1681526020019081526020015f205f82825401925050819055508173ffffffffffffffffffffffffffffffffffffffff165f73ffffffffffffffffffffffffffffffffffffffff167fddf252ad1be2c89b69c2b068fc378daa952ba7f163c4a11628f55a4df523b3ef836040516200044c919062000aa9565b60405180910390a3620004675f83836200047060201b60201c565b5050565b505050565b505050565b5f81519050919050565b7f4e487b71000000000000000000000000000000000000000000000000000000005f52604160045260245ffd5b7f4e487b71000000000000000000000000000000000000000000000000000000005f52602260045260245ffd5b5f6002820490506001821680620004f157607f821691505b602082108103620005075762000506620004ac565b5b50919050565b5f819050815f5260205f209050919050565b5f6020601f8301049050919050565b5f82821b905092915050565b5f600883026200056b7fffffffffffffffffffffffffffffffffffffffffffffffffffffffffffffffff826200052e565b6200057786836200052e565b95508019841693508086168417925050509392505050565b5f819050919050565b5f819050919050565b5f620005c1620005bb620005b5846200058f565b62000598565b6200058f565b9050919050565b5f819050919050565b620005dc83620005a1565b620005f4620005eb82620005c8565b8484546200053a565b825550505050565b5f90565b6200060a620005fc565b62000617818484620005d1565b505050565b5b818110156200063e57620006325f8262000600565b6001810190506200061d565b5050565b601f8211156200068d5762000657816200050d565b62000662846200051f565b8101602085101562000672578190505b6200068a62000681856200051f565b8301826200061c565b50505b505050565b5f82821c905092915050565b5f620006af5f198460080262000692565b1980831691505092915050565b5f620006c983836200069e565b9150826002028217905092915050565b620006e48262000475565b67ffffffffffffffff8111156200070057620006ff6200047f565b5b6200070c8254620004d9565b6200071982828562000642565b5f60209050601f8311600181146200074f575f84156200073a578287015190505b620007468582620006bc565b865550620007b5565b601f1984166200075f866200050d565b5f5b82811015620007885784890151825560018201915060208501945060208101905062000761565b86831015620007a85784890151620007a4601f8916826200069e565b8355505b6001600288020188555050505b505050505050565b7f4e487b71000000000000000000000000000000000000000000000000000000005f52601160045260245ffd5b5f8160011c9050919050565b5f808291508390505b600185111562000847578086048111156200081f576200081e620007bd565b5b60018516156200082f5780820291505b80810290506200083f85620007ea565b9450620007ff565b94509492505050565b5f8262000861576001905062000933565b8162000870575f905062000933565b81600181146200088957600281146200089457620008ca565b600191505062000933565b60ff841115620008a957620008a8620007bd565b5b8360020a915084821115620008c357620008c2620007bd565b5b5062000933565b5060208310610133831016604e8410600b8410161715620009045782820a905083811115620008fe57620008fd620007bd565b5b62000933565b620009138484846001620007f6565b925090508184048111156200092d576200092c620007bd565b5b81810290505b9392505050565b5f60ff82169050919050565b5f62000952826200058f565b91506200095f836200093a565b92506200098e7fffffffffffffffffffffffffffffffffffffffffffffffffffffffffffffffff848462000850565b905092915050565b5f620009a2826200058f565b9150620009af836200058f565b9250828202620009bf816200058f565b91508282048414831517620009d957620009d8620007bd565b5b5092915050565b5f82825260208201905092915050565b7f45524332303a206d696e7420746f20746865207a65726f2061646472657373005f82015250565b5f62000a26601f83620009e0565b915062000a3382620009f0565b602082019050919050565b5f6020820190508181035f83015262000a578162000a18565b9050919050565b5f62000a6a826200058f565b915062000a77836200058f565b925082820190508082111562000a925762000a91620007bd565b5b92915050565b62000aa3816200058f565b82525050565b5f60208201905062000abe5f83018462000a98565b92915050565b6080516142f862000aeb5f395f81816113f70152818161154301526124c901526142f85ff3fe608060405234801561000f575f80fd5b5060043610610292575f3560e01c8063715018a611610165578063b73f8007116100cc578063dd62ed3e11610085578063dd62ed3e146107fc578063e319c2ce1461082c578063e465d64d1461084a578063e67d692114610866578063ea173a3914610882578063f2fde38b1461089e57610292565b8063b73f800714610726578063b9e43eee14610757578063c31c9c0714610773578063c90880c114610791578063ca5fb573146107ad578063ccbd73e7146107c957610292565b80638dd950021161011e5780638dd950021461065257806395d89b41146106705780639c42ac131461068e578063a457c2d7146106aa578063a9059cbb146106da578063afe2ddd71461070a57610292565b8063715018a614610590578063793ea8d11461059a57806379cc6790146105ca57806382fab2ad146105e65780638568b3a5146106045780638da5cb5b1461063457610292565b806324e2a33e1161020957806342966c68116101c257806342966c68146104d2578063446b5d5f146104ee57806357970e931461050a578063680f2e4f146105285780636bc201571461054457806370a082311461056057610292565b806324e2a33e146103fe578063313ce5671461041a5780633268cc561461043857806336eab31614610456578063372c12b11461047257806339509351146104a257610292565b80630e1b39fb1161025b5780630e1b39fb1461033a578063172cc5a71461035857806318160ddd14610374578063196fd4be146103925780631d4140e1146103b057806323b872dd146103ce57610292565b806212d61a146102965780630445a103146102b257806306fdde03146102ce578063089fe6aa146102ec578063095ea7b31461030a575b5f80fd5b6102b060048036038101906102ab919061335d565b6108ba565b005b6102cc60048036038101906102c791906133bb565b610b0d565b005b6102d6610c52565b6040516102e39190613470565b60405180910390f35b6102f4610ce2565b60405161030191906134ad565b60405180910390f35b610324600480360381019061031f91906134c6565b610cf6565b604051610331919061351e565b60405180910390f35b610342610d18565b60405161034f9190613546565b60405180910390f35b610372600480360381019061036d91906133bb565b610d3d565b005b61037c610e82565b604051610389919061356e565b60405180910390f35b61039a610e8b565b6040516103a79190613546565b60405180910390f35b6103b8610eb0565b6040516103c5919061356e565b60405180910390f35b6103e860048036038101906103e39190613587565b610eb6565b6040516103f5919061351e565b60405180910390f35b61041860048036038101906104139190613601565b610ee4565b005b610422610f09565b60405161042f9190613647565b60405180910390f35b610440610f11565b60405161044d9190613546565b60405180910390f35b610470600480360381019061046b91906133bb565b610f29565b005b61048c6004803603810190610487919061335d565b61106e565b604051610499919061351e565b60405180910390f35b6104bc60048036038101906104b791906134c6565b61108b565b6040516104c9919061351e565b60405180910390f35b6104ec60048036038101906104e791906133bb565b6110c1565b005b610508600480360381019061050391906133bb565b6110d5565b005b610512611239565b60405161051f91906136bb565b60405180910390f35b610542600480360381019061053d91906134c6565b61125e565b005b61055e6004803603810190610559919061335d565b611307565b005b61057a6004803603810190610575919061335d565b61135f565b604051610587919061356e565b60405180910390f35b6105986113a4565b005b6105b460048036038101906105af91906136d4565b6113b7565b6040516105c1919061356e565b60405180910390f35b6105e460048036038101906105df91906134c6565b6115e3565b005b6105ee611603565b6040516105fb91906136bb565b60405180910390f35b61061e6004803603810190610619919061335d565b611628565b60405161062b919061356e565b60405180910390f35b61063c6116c9565b6040516106499190613546565b60405180910390f35b61065a6116f1565b6040516106679190613546565b60405180910390f35b610678611717565b6040516106859190613470565b60405180910390f35b6106a860048036038101906106a391906133bb565b6117a7565b005b6106c460048036038101906106bf91906134c6565b6117cc565b6040516106d1919061351e565b60405180910390f35b6106f460048036038101906106ef91906134c6565b611841565b604051610701919061351e565b60405180910390f35b610724600480360381019061071f91906133bb565b6122a1565b005b610740600480360381019061073b919061335d565b6123e6565b60405161074e929190613712565b60405180910390f35b610771600480360381019061076c91906134c6565b61241e565b005b61077b6124c7565b6040516107889190613759565b60405180910390f35b6107ab60048036038101906107a691906133bb565b6124eb565b005b6107c760048036038101906107c2919061379c565b612630565b005b6107e360048036038101906107de91906133bb565b61271c565b6040516107f394939291906137ec565b60405180910390f35b6108166004803603810190610811919061382f565b612748565b604051610823919061356e565b60405180910390f35b6108346127ca565b604051610841919061351e565b60405180910390f35b610864600480360381019061085f91906133bb565b6127dd565b005b610880600480360381019061087b91906133bb565b612802565b005b61089c600480360381019061089791906133bb565b612947565b005b6108b860048036038101906108b3919061335d565b612a8c565b005b600b5f8273ffffffffffffffffffffffffffffffffffffffff1673ffffffffffffffffffffffffffffffffffffffff1681526020019081526020015f205f0160019054906101000a900460ff16610946576040517f08c379a000000000000000000000000000000000000000000000000000000000815260040161093d906138b7565b60405180910390fd5b600b5f8273ffffffffffffffffffffffffffffffffffffffff1673ffffffffffffffffffffffffffffffffffffffff1681526020019081526020015f205f015f9054906101000a900460ff16156109d2576040517f08c379a00000000000000000000000000000000000000000000000000000000081526004016109c99061391f565b60405180910390fd5b5f6109db610e82565b6008546109e78461135f565b6109f1919061396a565b6109fb91906139d8565b90506001600b5f8473ffffffffffffffffffffffffffffffffffffffff1673ffffffffffffffffffffffffffffffffffffffff1681526020019081526020015f205f015f6101000a81548160ff0219169083151502179055508060085f828254610a659190613a08565b92505081905550600d5f9054906101000a900473ffffffffffffffffffffffffffffffffffffffff1673ffffffffffffffffffffffffffffffffffffffff1663a9059cbb83836040518363ffffffff1660e01b8152600401610ac8929190613a3b565b6020604051808303815f875af1158015610ae4573d5f803e3d5ffd5b505050506040513d601f19601f82011682018060405250810190610b089190613a76565b505050565b610b15612b0e565b600f81600c5f600481526020019081526020015f205f0154600c5f600381526020019081526020015f205f0154600c5f600281526020019081526020015f205f0154600c5f600181526020019081526020015f205f0154600c5f600481526020019081526020015f2060010154600c5f600381526020019081526020015f2060010154600c5f600181526020019081526020015f2060010154610bb89190613aa1565b610bc29190613aa1565b610bcc9190613aa1565b610bd69190613aa1565b610be09190613aa1565b610bea9190613aa1565b610bf49190613aa1565b1115610c35576040517f08c379a0000000000000000000000000000000000000000000000000000000008152600401610c2c90613b44565b60405180910390fd5b80600c5f600281526020019081526020015f206001018190555050565b606060038054610c6190613b8f565b80601f0160208091040260200160405190810160405280929190818152602001828054610c8d90613b8f565b8015610cd85780601f10610caf57610100808354040283529160200191610cd8565b820191905f5260205f20905b815481529060010190602001808311610cbb57829003601f168201915b5050505050905090565b60095f9054906101000a900462ffffff1681565b5f80610d00612b8c565b9050610d0d818585612b93565b600191505092915050565b60065f9054906101000a900473ffffffffffffffffffffffffffffffffffffffff1681565b610d45612b0e565b600f81600c5f600481526020019081526020015f205f0154600c5f600381526020019081526020015f205f0154600c5f600181526020019081526020015f205f0154600c5f600481526020019081526020015f2060010154600c5f600381526020019081526020015f2060010154600c5f600281526020019081526020015f2060010154600c5f600181526020019081526020015f2060010154610de99190613aa1565b610df39190613aa1565b610dfd9190613aa1565b610e079190613aa1565b610e119190613aa1565b610e1b9190613aa1565b610e259190613aa1565b1115610e66576040517f08c379a0000000000000000000000000000000000000000000000000000000008152600401610e5d90613b44565b60405180910390fd5b80600c5f600281526020019081526020015f205f018190555050565b5f600254905090565b60075f9054906101000a900473ffffffffffffffffffffffffffffffffffffffff1681565b60085481565b5f80610ec0612b8c565b9050610ecd858285612d56565b610ed8858585612de1565b60019150509392505050565b610eec612b0e565b80600660146101000a81548160ff02191690831515021790555050565b5f6012905090565b73e592427a0aece92de3edee1f18e0157c0586156481565b610f31612b0e565b600f81600c5f600481526020019081526020015f205f0154600c5f600381526020019081526020015f205f0154600c5f600281526020019081526020015f205f0154600c5f600181526020019081526020015f205f0154600c5f600481526020019081526020015f2060010154600c5f600381526020019081526020015f2060010154600c5f600281526020019081526020015f2060010154610fd49190613aa1565b610fde9190613aa1565b610fe89190613aa1565b610ff29190613aa1565b610ffc9190613aa1565b6110069190613aa1565b6110109190613aa1565b1115611051576040517f08c379a000000000000000000000000000000000000000000000000000000000815260040161104890613b44565b60405180910390fd5b80600c5f600181526020019081526020015f206001018190555050565b600a602052805f5260405f205f915054906101000a900460ff1681565b5f80611095612b8c565b90506110b68185856110a78589612748565b6110b19190613aa1565b612b93565b600191505092915050565b6110d26110cc612b8c565b8261304d565b50565b6110dd612b0e565b600f81600c5f600481526020019081526020015f205f0154600c5f600381526020019081526020015f205f0154600c5f600281526020019081526020015f205f0154600c5f600181526020019081526020015f205f0154600c5f600481526020019081526020015f2060010154600c5f600381526020019081526020015f2060010154600c5f600281526020019081526020015f2060010154600c5f600181526020019081526020015f20600101546111969190613aa1565b6111a09190613aa1565b6111aa9190613aa1565b6111b49190613aa1565b6111be9190613aa1565b6111c89190613aa1565b6111d29190613aa1565b6111dc9190613aa1565b111561121d576040517f08c379a000000000000000000000000000000000000000000000000000000000815260040161121490613b44565b60405180910390fd5b80600c5f600181526020019081526020015f205f018190555050565b600d5f9054906101000a900473ffffffffffffffffffffffffffffffffffffffff1681565b611266612b0e565b600d5f9054906101000a900473ffffffffffffffffffffffffffffffffffffffff1673ffffffffffffffffffffffffffffffffffffffff1663a9059cbb83836040518363ffffffff1660e01b81526004016112c2929190613a3b565b6020604051808303815f875af11580156112de573d5f803e3d5ffd5b505050506040513d601f19601f820116820180604052508101906113029190613a76565b505050565b6001600a5f8373ffffffffffffffffffffffffffffffffffffffff1673ffffffffffffffffffffffffffffffffffffffff1681526020019081526020015f205f6101000a81548160ff02191690831515021790555050565b5f805f8373ffffffffffffffffffffffffffffffffffffffff1673ffffffffffffffffffffffffffffffffffffffff1681526020019081526020015f20549050919050565b6113ac612b0e565b6113b55f613210565b565b5f600d5f9054906101000a900473ffffffffffffffffffffffffffffffffffffffff1673ffffffffffffffffffffffffffffffffffffffff1663095ea7b37f0000000000000000000000000000000000000000000000000000000000000000856040518363ffffffff1660e01b8152600401611434929190613a3b565b6020604051808303815f875af1158015611450573d5f803e3d5ffd5b505050506040513d601f19601f820116820180604052508101906114749190613a76565b505f6040518061010001604052803073ffffffffffffffffffffffffffffffffffffffff168152602001600960039054906101000a900473ffffffffffffffffffffffffffffffffffffffff1673ffffffffffffffffffffffffffffffffffffffff16815260200160095f9054906101000a900462ffffff1662ffffff1681526020018473ffffffffffffffffffffffffffffffffffffffff1681526020014281526020018581526020015f81526020015f73ffffffffffffffffffffffffffffffffffffffff1681525090507f000000000000000000000000000000000000000000000000000000000000000073ffffffffffffffffffffffffffffffffffffffff1663414bf389826040518263ffffffff1660e01b815260040161159a9190613c9b565b6020604051808303815f875af11580156115b6573d5f803e3d5ffd5b505050506040513d601f19601f820116820180604052508101906115da9190613cc9565b91505092915050565b6115f5826115ef612b8c565b83612d56565b6115ff828261304d565b5050565b600e5f9054906101000a900473ffffffffffffffffffffffffffffffffffffffff1681565b5f600e5f9054906101000a900473ffffffffffffffffffffffffffffffffffffffff1673ffffffffffffffffffffffffffffffffffffffff166370a08231836040518263ffffffff1660e01b81526004016116839190613546565b602060405180830381865afa15801561169e573d5f803e3d5ffd5b505050506040513d601f19601f820116820180604052508101906116c29190613cc9565b9050919050565b5f60055f9054906101000a900473ffffffffffffffffffffffffffffffffffffffff16905090565b600960039054906101000a900473ffffffffffffffffffffffffffffffffffffffff1681565b60606004805461172690613b8f565b80601f016020809104026020016040519081016040528092919081815260200182805461175290613b8f565b801561179d5780601f106117745761010080835404028352916020019161179d565b820191905f5260205f20905b81548152906001019060200180831161178057829003601f168201915b5050505050905090565b6117af612b0e565b80600c5f600481526020019081526020015f206002018190555050565b5f806117d6612b8c565b90505f6117e38286612748565b905083811015611828576040517f08c379a000000000000000000000000000000000000000000000000000000000815260040161181f90613d64565b60405180910390fd5b6118358286868403612b93565b60019250505092915050565b5f600a5f3373ffffffffffffffffffffffffffffffffffffffff1673ffffffffffffffffffffffffffffffffffffffff1681526020019081526020015f205f9054906101000a900460ff16156118a25761189b83836132d3565b905061229b565b60075f9054906101000a900473ffffffffffffffffffffffffffffffffffffffff1673ffffffffffffffffffffffffffffffffffffffff163373ffffffffffffffffffffffffffffffffffffffff1603611d9a575f6064600c5f600181526020019081526020015f20600101548461191a919061396a565b61192491906139d8565b90505f6064600c5f600281526020019081526020015f20600101548561194a919061396a565b61195491906139d8565b90505f6064600c5f600381526020019081526020015f20600101548661197a919061396a565b61198491906139d8565b90505f6064600c5f600481526020019081526020015f2060010154876119aa919061396a565b6119b491906139d8565b90508360085f8282546119c79190613aa1565b925050819055506001600b5f3373ffffffffffffffffffffffffffffffffffffffff1673ffffffffffffffffffffffffffffffffffffffff1681526020019081526020015f205f0160016101000a81548160ff021916908315150217905550600c5f600281526020019081526020015f206002015483600c5f600281526020019081526020015f2060030154611a5d9190613aa1565b10158015611a8057505f600c5f600281526020019081526020015f206002015414155b15611b7e57611ad160075f9054906101000a900473ffffffffffffffffffffffffffffffffffffffff166002600c5f600281526020019081526020015f2060020154611acc91906139d8565b6132d3565b50611b1e6002600c5f600281526020019081526020015f2060020154611af791906139d8565b60075f9054906101000a900473ffffffffffffffffffffffffffffffffffffffff166113b7565b50600c5f600281526020019081526020015f206002015483600c5f600281526020019081526020015f2060030154611b569190613aa1565b611b609190613a08565b600c5f600281526020019081526020015f2060030181905550611baa565b82600c5f600281526020019081526020015f206003015f828254611ba29190613aa1565b925050819055505b600c5f600481526020019081526020015f206002015481600c5f600481526020019081526020015f2060030154611be19190613aa1565b10158015611bfb5750600660149054906101000a900460ff165b8015611c1c57505f600c5f600481526020019081526020015f206002015414155b15611ca057611c40600c5f600481526020019081526020015f2060020154306113b7565b50600c5f600481526020019081526020015f206002015481600c5f600481526020019081526020015f2060030154611c789190613aa1565b611c829190613a08565b600c5f600481526020019081526020015f2060030181905550611ccc565b80600c5f600481526020019081526020015f206003015f828254611cc49190613aa1565b925050819055505b611cf760065f9054906101000a900473ffffffffffffffffffffffffffffffffffffffff16856132d3565b50611d2360065f9054906101000a900473ffffffffffffffffffffffffffffffffffffffff16846132d3565b50611d2d826110c1565b611d5860065f9054906101000a900473ffffffffffffffffffffffffffffffffffffffff16826132d3565b50611d8f8782848688611d6b9190613aa1565b611d759190613aa1565b611d7f9190613aa1565b88611d8a9190613a08565b6132d3565b94505050505061229b565b60075f9054906101000a900473ffffffffffffffffffffffffffffffffffffffff1673ffffffffffffffffffffffffffffffffffffffff168373ffffffffffffffffffffffffffffffffffffffff160361228e575f6064600c5f600181526020019081526020015f205f015484611e11919061396a565b611e1b91906139d8565b90505f6064600c5f600281526020019081526020015f205f015485611e40919061396a565b611e4a91906139d8565b90505f6064600c5f600381526020019081526020015f205f015486611e6f919061396a565b611e7991906139d8565b90505f6064600c5f600481526020019081526020015f205f015487611e9e919061396a565b611ea891906139d8565b90508360085f828254611ebb9190613aa1565b925050819055506001600b5f3373ffffffffffffffffffffffffffffffffffffffff1673ffffffffffffffffffffffffffffffffffffffff1681526020019081526020015f205f0160016101000a81548160ff021916908315150217905550600c5f600281526020019081526020015f206002015483600c5f600281526020019081526020015f2060030154611f519190613aa1565b10158015611f7457505f600c5f600281526020019081526020015f206002015414155b1561207257611fc560075f9054906101000a900473ffffffffffffffffffffffffffffffffffffffff166002600c5f600281526020019081526020015f2060020154611fc091906139d8565b6132d3565b506120126002600c5f600281526020019081526020015f2060020154611feb91906139d8565b60075f9054906101000a900473ffffffffffffffffffffffffffffffffffffffff166113b7565b50600c5f600281526020019081526020015f206002015483600c5f600281526020019081526020015f206003015461204a9190613aa1565b6120549190613a08565b600c5f600281526020019081526020015f206003018190555061209e565b82600c5f600281526020019081526020015f206003015f8282546120969190613aa1565b925050819055505b600c5f600481526020019081526020015f206002015481600c5f600481526020019081526020015f20600301546120d59190613aa1565b101580156120ef5750600660149054906101000a900460ff165b801561211057505f600c5f600481526020019081526020015f206002015414155b1561219457612134600c5f600481526020019081526020015f2060020154306113b7565b50600c5f600481526020019081526020015f206002015481600c5f600481526020019081526020015f206003015461216c9190613aa1565b6121769190613a08565b600c5f600481526020019081526020015f20600301819055506121c0565b80600c5f600481526020019081526020015f206003015f8282546121b89190613aa1565b925050819055505b6121eb60065f9054906101000a900473ffffffffffffffffffffffffffffffffffffffff16856132d3565b5061221760065f9054906101000a900473ffffffffffffffffffffffffffffffffffffffff16846132d3565b50612221826110c1565b61224c60065f9054906101000a900473ffffffffffffffffffffffffffffffffffffffff16826132d3565b50612283878284868861225f9190613aa1565b6122699190613aa1565b6122739190613aa1565b8861227e9190613a08565b6132d3565b94505050505061229b565b61229883836132d3565b90505b92915050565b6122a9612b0e565b600f81600c5f600381526020019081526020015f205f0154600c5f600281526020019081526020015f205f0154600c5f600181526020019081526020015f205f0154600c5f600481526020019081526020015f2060010154600c5f600381526020019081526020015f2060010154600c5f600281526020019081526020015f2060010154600c5f600181526020019081526020015f206001015461234d9190613aa1565b6123579190613aa1565b6123619190613aa1565b61236b9190613aa1565b6123759190613aa1565b61237f9190613aa1565b6123899190613aa1565b11156123ca576040517f08c379a00000000000000000000000000000000000000000000000000000000081526004016123c190613b44565b60405180910390fd5b80600c5f600481526020019081526020015f205f018190555050565b600b602052805f5260405f205f91509050805f015f9054906101000a900460ff1690805f0160019054906101000a900460ff16905082565b612426612b0e565b600e5f9054906101000a900473ffffffffffffffffffffffffffffffffffffffff1673ffffffffffffffffffffffffffffffffffffffff1663a9059cbb83836040518363ffffffff1660e01b8152600401612482929190613a3b565b6020604051808303815f875af115801561249e573d5f803e3d5ffd5b505050506040513d601f19601f820116820180604052508101906124c29190613a76565b505050565b7f000000000000000000000000000000000000000000000000000000000000000081565b6124f3612b0e565b600f81600c5f600481526020019081526020015f205f0154600c5f600381526020019081526020015f205f0154600c5f600281526020019081526020015f205f0154600c5f600181526020019081526020015f205f0154600c5f600381526020019081526020015f2060010154600c5f600281526020019081526020015f2060010154600c5f600181526020019081526020015f20600101546125969190613aa1565b6125a09190613aa1565b6125aa9190613aa1565b6125b49190613aa1565b6125be9190613aa1565b6125c89190613aa1565b6125d29190613aa1565b1115612613576040517f08c379a000000000000000000000000000000000000000000000000000000000815260040161260a90613b44565b60405180910390fd5b80600c5f600481526020019081526020015f206001018190555050565b612638612b0e565b8260075f6101000a81548173ffffffffffffffffffffffffffffffffffffffff021916908373ffffffffffffffffffffffffffffffffffffffff16021790555081600e5f6101000a81548173ffffffffffffffffffffffffffffffffffffffff021916908373ffffffffffffffffffffffffffffffffffffffff16021790555081600960036101000a81548173ffffffffffffffffffffffffffffffffffffffff021916908373ffffffffffffffffffffffffffffffffffffffff1602179055508060095f6101000a81548162ffffff021916908362ffffff160217905550505050565b600c602052805f5260405f205f91509050805f0154908060010154908060020154908060030154905084565b5f60015f8473ffffffffffffffffffffffffffffffffffffffff1673ffffffffffffffffffffffffffffffffffffffff1681526020019081526020015f205f8373ffffffffffffffffffffffffffffffffffffffff1673ffffffffffffffffffffffffffffffffffffffff1681526020019081526020015f2054905092915050565b600660149054906101000a900460ff1681565b6127e5612b0e565b80600c5f600281526020019081526020015f206002018190555050565b61280a612b0e565b600f81600c5f600481526020019081526020015f205f0154600c5f600381526020019081526020015f205f0154600c5f600281526020019081526020015f205f0154600c5f600181526020019081526020015f205f0154600c5f600481526020019081526020015f2060010154600c5f600281526020019081526020015f2060010154600c5f600181526020019081526020015f20600101546128ad9190613aa1565b6128b79190613aa1565b6128c19190613aa1565b6128cb9190613aa1565b6128d59190613aa1565b6128df9190613aa1565b6128e99190613aa1565b111561292a576040517f08c379a000000000000000000000000000000000000000000000000000000000815260040161292190613b44565b60405180910390fd5b80600c5f600381526020019081526020015f206001018190555050565b61294f612b0e565b600f81600c5f600481526020019081526020015f205f0154600c5f600281526020019081526020015f205f0154600c5f600181526020019081526020015f205f0154600c5f600481526020019081526020015f2060010154600c5f600381526020019081526020015f2060010154600c5f600281526020019081526020015f2060010154600c5f600181526020019081526020015f20600101546129f39190613aa1565b6129fd9190613aa1565b612a079190613aa1565b612a119190613aa1565b612a1b9190613aa1565b612a259190613aa1565b612a2f9190613aa1565b1115612a70576040517f08c379a0000000000000000000000000000000000000000000000000000000008152600401612a6790613b44565b60405180910390fd5b80600c5f600381526020019081526020015f205f018190555050565b612a94612b0e565b5f73ffffffffffffffffffffffffffffffffffffffff168173ffffffffffffffffffffffffffffffffffffffff1603612b02576040517f08c379a0000000000000000000000000000000000000000000000000000000008152600401612af990613df2565b60405180910390fd5b612b0b81613210565b50565b612b16612b8c565b73ffffffffffffffffffffffffffffffffffffffff16612b346116c9565b73ffffffffffffffffffffffffffffffffffffffff1614612b8a576040517f08c379a0000000000000000000000000000000000000000000000000000000008152600401612b8190613e5a565b60405180910390fd5b565b5f33905090565b5f73ffffffffffffffffffffffffffffffffffffffff168373ffffffffffffffffffffffffffffffffffffffff1603612c01576040517f08c379a0000000000000000000000000000000000000000000000000000000008152600401612bf890613ee8565b60405180910390fd5b5f73ffffffffffffffffffffffffffffffffffffffff168273ffffffffffffffffffffffffffffffffffffffff1603612c6f576040517f08c379a0000000000000000000000000000000000000000000000000000000008152600401612c6690613f76565b60405180910390fd5b8060015f8573ffffffffffffffffffffffffffffffffffffffff1673ffffffffffffffffffffffffffffffffffffffff1681526020019081526020015f205f8473ffffffffffffffffffffffffffffffffffffffff1673ffffffffffffffffffffffffffffffffffffffff1681526020019081526020015f20819055508173ffffffffffffffffffffffffffffffffffffffff168373ffffffffffffffffffffffffffffffffffffffff167f8c5be1e5ebec7d5bd14f71427d1e84f3dd0314c0f7b2291e5b200ac8c7c3b92583604051612d49919061356e565b60405180910390a3505050565b5f612d618484612748565b90507fffffffffffffffffffffffffffffffffffffffffffffffffffffffffffffffff8114612ddb5781811015612dcd576040517f08c379a0000000000000000000000000000000000000000000000000000000008152600401612dc490613fde565b60405180910390fd5b612dda8484848403612b93565b5b50505050565b5f73ffffffffffffffffffffffffffffffffffffffff168373ffffffffffffffffffffffffffffffffffffffff1603612e4f576040517f08c379a0000000000000000000000000000000000000000000000000000000008152600401612e469061406c565b60405180910390fd5b5f73ffffffffffffffffffffffffffffffffffffffff168273ffffffffffffffffffffffffffffffffffffffff1603612ebd576040517f08c379a0000000000000000000000000000000000000000000000000000000008152600401612eb4906140fa565b60405180910390fd5b612ec88383836132f5565b5f805f8573ffffffffffffffffffffffffffffffffffffffff1673ffffffffffffffffffffffffffffffffffffffff1681526020019081526020015f2054905081811015612f4b576040517f08c379a0000000000000000000000000000000000000000000000000000000008152600401612f4290614188565b60405180910390fd5b8181035f808673ffffffffffffffffffffffffffffffffffffffff1673ffffffffffffffffffffffffffffffffffffffff1681526020019081526020015f2081905550815f808573ffffffffffffffffffffffffffffffffffffffff1673ffffffffffffffffffffffffffffffffffffffff1681526020019081526020015f205f82825401925050819055508273ffffffffffffffffffffffffffffffffffffffff168473ffffffffffffffffffffffffffffffffffffffff167fddf252ad1be2c89b69c2b068fc378daa952ba7f163c4a11628f55a4df523b3ef84604051613034919061356e565b60405180910390a36130478484846132fa565b50505050565b5f73ffffffffffffffffffffffffffffffffffffffff168273ffffffffffffffffffffffffffffffffffffffff16036130bb576040517f08c379a00000000000000000000000000000000000000000000000000000000081526004016130b290614216565b60405180910390fd5b6130c6825f836132f5565b5f805f8473ffffffffffffffffffffffffffffffffffffffff1673ffffffffffffffffffffffffffffffffffffffff1681526020019081526020015f2054905081811015613149576040517f08c379a0000000000000000000000000000000000000000000000000000000008152600401613140906142a4565b60405180910390fd5b8181035f808573ffffffffffffffffffffffffffffffffffffffff1673ffffffffffffffffffffffffffffffffffffffff1681526020019081526020015f20819055508160025f82825403925050819055505f73ffffffffffffffffffffffffffffffffffffffff168373ffffffffffffffffffffffffffffffffffffffff167fddf252ad1be2c89b69c2b068fc378daa952ba7f163c4a11628f55a4df523b3ef846040516131f8919061356e565b60405180910390a361320b835f846132fa565b505050565b5f60055f9054906101000a900473ffffffffffffffffffffffffffffffffffffffff1690508160055f6101000a81548173ffffffffffffffffffffffffffffffffffffffff021916908373ffffffffffffffffffffffffffffffffffffffff1602179055508173ffffffffffffffffffffffffffffffffffffffff168173ffffffffffffffffffffffffffffffffffffffff167f8be0079c531659141344cd1fd0a4f28419497f9722a3daafe3b4186f6b6457e060405160405180910390a35050565b5f806132dd612b8c565b90506132ea818585612de1565b600191505092915050565b505050565b505050565b5f80fd5b5f73ffffffffffffffffffffffffffffffffffffffff82169050919050565b5f61332c82613303565b9050919050565b61333c81613322565b8114613346575f80fd5b50565b5f8135905061335781613333565b92915050565b5f60208284031215613372576133716132ff565b5b5f61337f84828501613349565b91505092915050565b5f819050919050565b61339a81613388565b81146133a4575f80fd5b50565b5f813590506133b581613391565b92915050565b5f602082840312156133d0576133cf6132ff565b5b5f6133dd848285016133a7565b91505092915050565b5f81519050919050565b5f82825260208201905092915050565b5f5b8381101561341d578082015181840152602081019050613402565b5f8484015250505050565b5f601f19601f8301169050919050565b5f613442826133e6565b61344c81856133f0565b935061345c818560208601613400565b61346581613428565b840191505092915050565b5f6020820190508181035f8301526134888184613438565b905092915050565b5f62ffffff82169050919050565b6134a781613490565b82525050565b5f6020820190506134c05f83018461349e565b92915050565b5f80604083850312156134dc576134db6132ff565b5b5f6134e985828601613349565b92505060206134fa858286016133a7565b9150509250929050565b5f8115159050919050565b61351881613504565b82525050565b5f6020820190506135315f83018461350f565b92915050565b61354081613322565b82525050565b5f6020820190506135595f830184613537565b92915050565b61356881613388565b82525050565b5f6020820190506135815f83018461355f565b92915050565b5f805f6060848603121561359e5761359d6132ff565b5b5f6135ab86828701613349565b93505060206135bc86828701613349565b92505060406135cd868287016133a7565b9150509250925092565b6135e081613504565b81146135ea575f80fd5b50565b5f813590506135fb816135d7565b92915050565b5f60208284031215613616576136156132ff565b5b5f613623848285016135ed565b91505092915050565b5f60ff82169050919050565b6136418161362c565b82525050565b5f60208201905061365a5f830184613638565b92915050565b5f819050919050565b5f61368361367e61367984613303565b613660565b613303565b9050919050565b5f61369482613669565b9050919050565b5f6136a58261368a565b9050919050565b6136b58161369b565b82525050565b5f6020820190506136ce5f8301846136ac565b92915050565b5f80604083850312156136ea576136e96132ff565b5b5f6136f7858286016133a7565b925050602061370885828601613349565b9150509250929050565b5f6040820190506137255f83018561350f565b613732602083018461350f565b9392505050565b5f6137438261368a565b9050919050565b61375381613739565b82525050565b5f60208201905061376c5f83018461374a565b92915050565b61377b81613490565b8114613785575f80fd5b50565b5f8135905061379681613772565b92915050565b5f805f606084860312156137b3576137b26132ff565b5b5f6137c086828701613349565b93505060206137d186828701613349565b92505060406137e286828701613788565b9150509250925092565b5f6080820190506137ff5f83018761355f565b61380c602083018661355f565b613819604083018561355f565b613826606083018461355f565b95945050505050565b5f8060408385031215613845576138446132ff565b5b5f61385285828601613349565b925050602061386385828601613349565b9150509250929050565b7f4669727374205472616e7366657220546f6b656e7300000000000000000000005f82015250565b5f6138a16015836133f0565b91506138ac8261386d565b602082019050919050565b5f6020820190508181035f8301526138ce81613895565b9050919050565b7f596f7520416c72656164792057697468647261770000000000000000000000005f82015250565b5f6139096014836133f0565b9150613914826138d5565b602082019050919050565b5f6020820190508181035f830152613936816138fd565b9050919050565b7f4e487b71000000000000000000000000000000000000000000000000000000005f52601160045260245ffd5b5f61397482613388565b915061397f83613388565b925082820261398d81613388565b915082820484148315176139a4576139a361393d565b5b5092915050565b7f4e487b71000000000000000000000000000000000000000000000000000000005f52601260045260245ffd5b5f6139e282613388565b91506139ed83613388565b9250826139fd576139fc6139ab565b5b828204905092915050565b5f613a1282613388565b9150613a1d83613388565b9250828203905081811115613a3557613a3461393d565b5b92915050565b5f604082019050613a4e5f830185613537565b613a5b602083018461355f565b9392505050565b5f81519050613a70816135d7565b92915050565b5f60208284031215613a8b57613a8a6132ff565b5b5f613a9884828501613a62565b91505092915050565b5f613aab82613388565b9150613ab683613388565b9250828201905080821115613ace57613acd61393d565b5b92915050565b7f53756d206f66205461782050657273656e74616765206d7573742062652030205f8201527f746f203135000000000000000000000000000000000000000000000000000000602082015250565b5f613b2e6025836133f0565b9150613b3982613ad4565b604082019050919050565b5f6020820190508181035f830152613b5b81613b22565b9050919050565b7f4e487b71000000000000000000000000000000000000000000000000000000005f52602260045260245ffd5b5f6002820490506001821680613ba657607f821691505b602082108103613bb957613bb8613b62565b5b50919050565b613bc881613322565b82525050565b613bd781613490565b82525050565b613be681613388565b82525050565b613bf581613303565b82525050565b61010082015f820151613c105f850182613bbf565b506020820151613c236020850182613bbf565b506040820151613c366040850182613bce565b506060820151613c496060850182613bbf565b506080820151613c5c6080850182613bdd565b5060a0820151613c6f60a0850182613bdd565b5060c0820151613c8260c0850182613bdd565b5060e0820151613c9560e0850182613bec565b50505050565b5f61010082019050613caf5f830184613bfb565b92915050565b5f81519050613cc381613391565b92915050565b5f60208284031215613cde57613cdd6132ff565b5b5f613ceb84828501613cb5565b91505092915050565b7f45524332303a2064656372656173656420616c6c6f77616e63652062656c6f775f8201527f207a65726f000000000000000000000000000000000000000000000000000000602082015250565b5f613d4e6025836133f0565b9150613d5982613cf4565b604082019050919050565b5f6020820190508181035f830152613d7b81613d42565b9050919050565b7f4f776e61626c653a206e6577206f776e657220697320746865207a65726f20615f8201527f6464726573730000000000000000000000000000000000000000000000000000602082015250565b5f613ddc6026836133f0565b9150613de782613d82565b604082019050919050565b5f6020820190508181035f830152613e0981613dd0565b9050919050565b7f4f776e61626c653a2063616c6c6572206973206e6f7420746865206f776e65725f82015250565b5f613e446020836133f0565b9150613e4f82613e10565b602082019050919050565b5f6020820190508181035f830152613e7181613e38565b9050919050565b7f45524332303a20617070726f76652066726f6d20746865207a65726f206164645f8201527f7265737300000000000000000000000000000000000000000000000000000000602082015250565b5f613ed26024836133f0565b9150613edd82613e78565b604082019050919050565b5f6020820190508181035f830152613eff81613ec6565b9050919050565b7f45524332303a20617070726f766520746f20746865207a65726f2061646472655f8201527f7373000000000000000000000000000000000000000000000000000000000000602082015250565b5f613f606022836133f0565b9150613f6b82613f06565b604082019050919050565b5f6020820190508181035f830152613f8d81613f54565b9050919050565b7f45524332303a20696e73756666696369656e7420616c6c6f77616e63650000005f82015250565b5f613fc8601d836133f0565b9150613fd382613f94565b602082019050919050565b5f6020820190508181035f830152613ff581613fbc565b9050919050565b7f45524332303a207472616e736665722066726f6d20746865207a65726f2061645f8201527f6472657373000000000000000000000000000000000000000000000000000000602082015250565b5f6140566025836133f0565b915061406182613ffc565b604082019050919050565b5f6020820190508181035f8301526140838161404a565b9050919050565b7f45524332303a207472616e7366657220746f20746865207a65726f20616464725f8201527f6573730000000000000000000000000000000000000000000000000000000000602082015250565b5f6140e46023836133f0565b91506140ef8261408a565b604082019050919050565b5f6020820190508181035f830152614111816140d8565b9050919050565b7f45524332303a207472616e7366657220616d6f756e74206578636565647320625f8201527f616c616e63650000000000000000000000000000000000000000000000000000602082015250565b5f6141726026836133f0565b915061417d82614118565b604082019050919050565b5f6020820190508181035f83015261419f81614166565b9050919050565b7f45524332303a206275726e2066726f6d20746865207a65726f206164647265735f8201527f7300000000000000000000000000000000000000000000000000000000000000602082015250565b5f6142006021836133f0565b915061420b826141a6565b604082019050919050565b5f6020820190508181035f83015261422d816141f4565b9050919050565b7f45524332303a206275726e20616d6f756e7420657863656564732062616c616e5f8201527f6365000000000000000000000000000000000000000000000000000000000000602082015250565b5f61428e6022836133f0565b915061429982614234565b604082019050919050565b5f6020820190508181035f8301526142bb81614282565b905091905056fea2646970667358221220f8fb815a7b41472cfa5c105a6ad161f7d276fe740ecc355a73ba27da97fba30c64736f6c63430008150033",
			"opcodes": "PUSH1 0xA0 PUSH1 0x40 MSTORE PUSH20 0xE592427A0AECE92DE3EDEE1F18E0157C05861564 PUSH20 0xFFFFFFFFFFFFFFFFFFFFFFFFFFFFFFFFFFFFFFFF AND PUSH1 0x80 SWAP1 PUSH20 0xFFFFFFFFFFFFFFFFFFFFFFFFFFFFFFFFFFFFFFFF AND DUP2 MSTORE POP CALLVALUE DUP1 ISZERO PUSH3 0x57 JUMPI PUSH0 DUP1 REVERT JUMPDEST POP PUSH1 0x40 MLOAD DUP1 PUSH1 0x40 ADD PUSH1 0x40 MSTORE DUP1 PUSH1 0xE DUP2 MSTORE PUSH1 0x20 ADD PUSH32 0x46726F676769657320546F6B656E000000000000000000000000000000000000 DUP2 MSTORE POP PUSH1 0x40 MLOAD DUP1 PUSH1 0x40 ADD PUSH1 0x40 MSTORE DUP1 PUSH1 0x5 DUP2 MSTORE PUSH1 0x20 ADD PUSH32 0x4652475354000000000000000000000000000000000000000000000000000000 DUP2 MSTORE POP DUP2 PUSH1 0x3 SWAP1 DUP2 PUSH3 0xD5 SWAP2 SWAP1 PUSH3 0x6D9 JUMP JUMPDEST POP DUP1 PUSH1 0x4 SWAP1 DUP2 PUSH3 0xE7 SWAP2 SWAP1 PUSH3 0x6D9 JUMP JUMPDEST POP POP POP PUSH3 0x10A PUSH3 0xFE PUSH3 0x234 PUSH1 0x20 SHL PUSH1 0x20 SHR JUMP JUMPDEST PUSH3 0x23B PUSH1 0x20 SHL PUSH1 0x20 SHR JUMP JUMPDEST PUSH3 0x14C CALLER PUSH3 0x11F PUSH3 0x2FE PUSH1 0x20 SHL PUSH1 0x20 SHR JUMP JUMPDEST PUSH1 0xA PUSH3 0x12D SWAP2 SWAP1 PUSH3 0x946 JUMP JUMPDEST PUSH6 0x5AF3107A4000 PUSH3 0x140 SWAP2 SWAP1 PUSH3 0x996 JUMP JUMPDEST PUSH3 0x306 PUSH1 0x20 SHL PUSH1 0x20 SHR JUMP JUMPDEST PUSH1 0x9 PUSH1 0x3 SWAP1 SLOAD SWAP1 PUSH2 0x100 EXP SWAP1 DIV PUSH20 0xFFFFFFFFFFFFFFFFFFFFFFFFFFFFFFFFFFFFFFFF AND PUSH1 0xE PUSH0 PUSH2 0x100 EXP DUP2 SLOAD DUP2 PUSH20 0xFFFFFFFFFFFFFFFFFFFFFFFFFFFFFFFFFFFFFFFF MUL NOT AND SWAP1 DUP4 PUSH20 0xFFFFFFFFFFFFFFFFFFFFFFFFFFFFFFFFFFFFFFFF AND MUL OR SWAP1 SSTORE POP ADDRESS PUSH1 0x6 PUSH0 PUSH2 0x100 EXP DUP2 SLOAD DUP2 PUSH20 0xFFFFFFFFFFFFFFFFFFFFFFFFFFFFFFFFFFFFFFFF MUL NOT AND SWAP1 DUP4 PUSH20 0xFFFFFFFFFFFFFFFFFFFFFFFFFFFFFFFFFFFFFFFF AND MUL OR SWAP1 SSTORE POP ADDRESS PUSH1 0xD PUSH0 PUSH2 0x100 EXP DUP2 SLOAD DUP2 PUSH20 0xFFFFFFFFFFFFFFFFFFFFFFFFFFFFFFFFFFFFFFFF MUL NOT AND SWAP1 DUP4 PUSH20 0xFFFFFFFFFFFFFFFFFFFFFFFFFFFFFFFFFFFFFFFF AND MUL OR SWAP1 SSTORE POP PUSH3 0xAC4 JUMP JUMPDEST PUSH0 CALLER SWAP1 POP SWAP1 JUMP JUMPDEST PUSH0 PUSH1 0x5 PUSH0 SWAP1 SLOAD SWAP1 PUSH2 0x100 EXP SWAP1 DIV PUSH20 0xFFFFFFFFFFFFFFFFFFFFFFFFFFFFFFFFFFFFFFFF AND SWAP1 POP DUP2 PUSH1 0x5 PUSH0 PUSH2 0x100 EXP DUP2 SLOAD DUP2 PUSH20 0xFFFFFFFFFFFFFFFFFFFFFFFFFFFFFFFFFFFFFFFF MUL NOT AND SWAP1 DUP4 PUSH20 0xFFFFFFFFFFFFFFFFFFFFFFFFFFFFFFFFFFFFFFFF AND MUL OR SWAP1 SSTORE POP DUP2 PUSH20 0xFFFFFFFFFFFFFFFFFFFFFFFFFFFFFFFFFFFFFFFF AND DUP2 PUSH20 0xFFFFFFFFFFFFFFFFFFFFFFFFFFFFFFFFFFFFFFFF AND PUSH32 0x8BE0079C531659141344CD1FD0A4F28419497F9722A3DAAFE3B4186F6B6457E0 PUSH1 0x40 MLOAD PUSH1 0x40 MLOAD DUP1 SWAP2 SUB SWAP1 LOG3 POP POP JUMP JUMPDEST PUSH0 PUSH1 0x12 SWAP1 POP SWAP1 JUMP JUMPDEST PUSH0 PUSH20 0xFFFFFFFFFFFFFFFFFFFFFFFFFFFFFFFFFFFFFFFF AND DUP3 PUSH20 0xFFFFFFFFFFFFFFFFFFFFFFFFFFFFFFFFFFFFFFFF AND SUB PUSH3 0x377 JUMPI PUSH1 0x40 MLOAD PUSH32 0x8C379A000000000000000000000000000000000000000000000000000000000 DUP2 MSTORE PUSH1 0x4 ADD PUSH3 0x36E SWAP1 PUSH3 0xA3E JUMP JUMPDEST PUSH1 0x40 MLOAD DUP1 SWAP2 SUB SWAP1 REVERT JUMPDEST PUSH3 0x38A PUSH0 DUP4 DUP4 PUSH3 0x46B PUSH1 0x20 SHL PUSH1 0x20 SHR JUMP JUMPDEST DUP1 PUSH1 0x2 PUSH0 DUP3 DUP3 SLOAD PUSH3 0x39D SWAP2 SWAP1 PUSH3 0xA5E JUMP JUMPDEST SWAP3 POP POP DUP2 SWAP1 SSTORE POP DUP1 PUSH0 DUP1 DUP5 PUSH20 0xFFFFFFFFFFFFFFFFFFFFFFFFFFFFFFFFFFFFFFFF AND PUSH20 0xFFFFFFFFFFFFFFFFFFFFFFFFFFFFFFFFFFFFFFFF AND DUP2 MSTORE PUSH1 0x20 ADD SWAP1 DUP2 MSTORE PUSH1 0x20 ADD PUSH0 KECCAK256 PUSH0 DUP3 DUP3 SLOAD ADD SWAP3 POP POP DUP2 SWAP1 SSTORE POP DUP2 PUSH20 0xFFFFFFFFFFFFFFFFFFFFFFFFFFFFFFFFFFFFFFFF AND PUSH0 PUSH20 0xFFFFFFFFFFFFFFFFFFFFFFFFFFFFFFFFFFFFFFFF AND PUSH32 0xDDF252AD1BE2C89B69C2B068FC378DAA952BA7F163C4A11628F55A4DF523B3EF DUP4 PUSH1 0x40 MLOAD PUSH3 0x44C SWAP2 SWAP1 PUSH3 0xAA9 JUMP JUMPDEST PUSH1 0x40 MLOAD DUP1 SWAP2 SUB SWAP1 LOG3 PUSH3 0x467 PUSH0 DUP4 DUP4 PUSH3 0x470 PUSH1 0x20 SHL PUSH1 0x20 SHR JUMP JUMPDEST POP POP JUMP JUMPDEST POP POP POP JUMP JUMPDEST POP POP POP JUMP JUMPDEST PUSH0 DUP2 MLOAD SWAP1 POP SWAP2 SWAP1 POP JUMP JUMPDEST PUSH32 0x4E487B7100000000000000000000000000000000000000000000000000000000 PUSH0 MSTORE PUSH1 0x41 PUSH1 0x4 MSTORE PUSH1 0x24 PUSH0 REVERT JUMPDEST PUSH32 0x4E487B7100000000000000000000000000000000000000000000000000000000 PUSH0 MSTORE PUSH1 0x22 PUSH1 0x4 MSTORE PUSH1 0x24 PUSH0 REVERT JUMPDEST PUSH0 PUSH1 0x2 DUP3 DIV SWAP1 POP PUSH1 0x1 DUP3 AND DUP1 PUSH3 0x4F1 JUMPI PUSH1 0x7F DUP3 AND SWAP2 POP JUMPDEST PUSH1 0x20 DUP3 LT DUP2 SUB PUSH3 0x507 JUMPI PUSH3 0x506 PUSH3 0x4AC JUMP JUMPDEST JUMPDEST POP SWAP2 SWAP1 POP JUMP JUMPDEST PUSH0 DUP2 SWAP1 POP DUP2 PUSH0 MSTORE PUSH1 0x20 PUSH0 KECCAK256 SWAP1 POP SWAP2 SWAP1 POP JUMP JUMPDEST PUSH0 PUSH1 0x20 PUSH1 0x1F DUP4 ADD DIV SWAP1 POP SWAP2 SWAP1 POP JUMP JUMPDEST PUSH0 DUP3 DUP3 SHL SWAP1 POP SWAP3 SWAP2 POP POP JUMP JUMPDEST PUSH0 PUSH1 0x8 DUP4 MUL PUSH3 0x56B PUSH32 0xFFFFFFFFFFFFFFFFFFFFFFFFFFFFFFFFFFFFFFFFFFFFFFFFFFFFFFFFFFFFFFFF DUP3 PUSH3 0x52E JUMP JUMPDEST PUSH3 0x577 DUP7 DUP4 PUSH3 0x52E JUMP JUMPDEST SWAP6 POP DUP1 NOT DUP5 AND SWAP4 POP DUP1 DUP7 AND DUP5 OR SWAP3 POP POP POP SWAP4 SWAP3 POP POP POP JUMP JUMPDEST PUSH0 DUP2 SWAP1 POP SWAP2 SWAP1 POP JUMP JUMPDEST PUSH0 DUP2 SWAP1 POP SWAP2 SWAP1 POP JUMP JUMPDEST PUSH0 PUSH3 0x5C1 PUSH3 0x5BB PUSH3 0x5B5 DUP5 PUSH3 0x58F JUMP JUMPDEST PUSH3 0x598 JUMP JUMPDEST PUSH3 0x58F JUMP JUMPDEST SWAP1 POP SWAP2 SWAP1 POP JUMP JUMPDEST PUSH0 DUP2 SWAP1 POP SWAP2 SWAP1 POP JUMP JUMPDEST PUSH3 0x5DC DUP4 PUSH3 0x5A1 JUMP JUMPDEST PUSH3 0x5F4 PUSH3 0x5EB DUP3 PUSH3 0x5C8 JUMP JUMPDEST DUP5 DUP5 SLOAD PUSH3 0x53A JUMP JUMPDEST DUP3 SSTORE POP POP POP POP JUMP JUMPDEST PUSH0 SWAP1 JUMP JUMPDEST PUSH3 0x60A PUSH3 0x5FC JUMP JUMPDEST PUSH3 0x617 DUP2 DUP5 DUP5 PUSH3 0x5D1 JUMP JUMPDEST POP POP POP JUMP JUMPDEST JUMPDEST DUP2 DUP2 LT ISZERO PUSH3 0x63E JUMPI PUSH3 0x632 PUSH0 DUP3 PUSH3 0x600 JUMP JUMPDEST PUSH1 0x1 DUP2 ADD SWAP1 POP PUSH3 0x61D JUMP JUMPDEST POP POP JUMP JUMPDEST PUSH1 0x1F DUP3 GT ISZERO PUSH3 0x68D JUMPI PUSH3 0x657 DUP2 PUSH3 0x50D JUMP JUMPDEST PUSH3 0x662 DUP5 PUSH3 0x51F JUMP JUMPDEST DUP2 ADD PUSH1 0x20 DUP6 LT ISZERO PUSH3 0x672 JUMPI DUP2 SWAP1 POP JUMPDEST PUSH3 0x68A PUSH3 0x681 DUP6 PUSH3 0x51F JUMP JUMPDEST DUP4 ADD DUP3 PUSH3 0x61C JUMP JUMPDEST POP POP JUMPDEST POP POP POP JUMP JUMPDEST PUSH0 DUP3 DUP3 SHR SWAP1 POP SWAP3 SWAP2 POP POP JUMP JUMPDEST PUSH0 PUSH3 0x6AF PUSH0 NOT DUP5 PUSH1 0x8 MUL PUSH3 0x692 JUMP JUMPDEST NOT DUP1 DUP4 AND SWAP2 POP POP SWAP3 SWAP2 POP POP JUMP JUMPDEST PUSH0 PUSH3 0x6C9 DUP4 DUP4 PUSH3 0x69E JUMP JUMPDEST SWAP2 POP DUP3 PUSH1 0x2 MUL DUP3 OR SWAP1 POP SWAP3 SWAP2 POP POP JUMP JUMPDEST PUSH3 0x6E4 DUP3 PUSH3 0x475 JUMP JUMPDEST PUSH8 0xFFFFFFFFFFFFFFFF DUP2 GT ISZERO PUSH3 0x700 JUMPI PUSH3 0x6FF PUSH3 0x47F JUMP JUMPDEST JUMPDEST PUSH3 0x70C DUP3 SLOAD PUSH3 0x4D9 JUMP JUMPDEST PUSH3 0x719 DUP3 DUP3 DUP6 PUSH3 0x642 JUMP JUMPDEST PUSH0 PUSH1 0x20 SWAP1 POP PUSH1 0x1F DUP4 GT PUSH1 0x1 DUP2 EQ PUSH3 0x74F JUMPI PUSH0 DUP5 ISZERO PUSH3 0x73A JUMPI DUP3 DUP8 ADD MLOAD SWAP1 POP JUMPDEST PUSH3 0x746 DUP6 DUP3 PUSH3 0x6BC JUMP JUMPDEST DUP7 SSTORE POP PUSH3 0x7B5 JUMP JUMPDEST PUSH1 0x1F NOT DUP5 AND PUSH3 0x75F DUP7 PUSH3 0x50D JUMP JUMPDEST PUSH0 JUMPDEST DUP3 DUP2 LT ISZERO PUSH3 0x788 JUMPI DUP5 DUP10 ADD MLOAD DUP3 SSTORE PUSH1 0x1 DUP3 ADD SWAP2 POP PUSH1 0x20 DUP6 ADD SWAP5 POP PUSH1 0x20 DUP2 ADD SWAP1 POP PUSH3 0x761 JUMP JUMPDEST DUP7 DUP4 LT ISZERO PUSH3 0x7A8 JUMPI DUP5 DUP10 ADD MLOAD PUSH3 0x7A4 PUSH1 0x1F DUP10 AND DUP3 PUSH3 0x69E JUMP JUMPDEST DUP4 SSTORE POP JUMPDEST PUSH1 0x1 PUSH1 0x2 DUP9 MUL ADD DUP9 SSTORE POP POP POP JUMPDEST POP POP POP POP POP POP JUMP JUMPDEST PUSH32 0x4E487B7100000000000000000000000000000000000000000000000000000000 PUSH0 MSTORE PUSH1 0x11 PUSH1 0x4 MSTORE PUSH1 0x24 PUSH0 REVERT JUMPDEST PUSH0 DUP2 PUSH1 0x1 SHR SWAP1 POP SWAP2 SWAP1 POP JUMP JUMPDEST PUSH0 DUP1 DUP3 SWAP2 POP DUP4 SWAP1 POP JUMPDEST PUSH1 0x1 DUP6 GT ISZERO PUSH3 0x847 JUMPI DUP1 DUP7 DIV DUP2 GT ISZERO PUSH3 0x81F JUMPI PUSH3 0x81E PUSH3 0x7BD JUMP JUMPDEST JUMPDEST PUSH1 0x1 DUP6 AND ISZERO PUSH3 0x82F JUMPI DUP1 DUP3 MUL SWAP2 POP JUMPDEST DUP1 DUP2 MUL SWAP1 POP PUSH3 0x83F DUP6 PUSH3 0x7EA JUMP JUMPDEST SWAP5 POP PUSH3 0x7FF JUMP JUMPDEST SWAP5 POP SWAP5 SWAP3 POP POP POP JUMP JUMPDEST PUSH0 DUP3 PUSH3 0x861 JUMPI PUSH1 0x1 SWAP1 POP PUSH3 0x933 JUMP JUMPDEST DUP2 PUSH3 0x870 JUMPI PUSH0 SWAP1 POP PUSH3 0x933 JUMP JUMPDEST DUP2 PUSH1 0x1 DUP2 EQ PUSH3 0x889 JUMPI PUSH1 0x2 DUP2 EQ PUSH3 0x894 JUMPI PUSH3 0x8CA JUMP JUMPDEST PUSH1 0x1 SWAP2 POP POP PUSH3 0x933 JUMP JUMPDEST PUSH1 0xFF DUP5 GT ISZERO PUSH3 0x8A9 JUMPI PUSH3 0x8A8 PUSH3 0x7BD JUMP JUMPDEST JUMPDEST DUP4 PUSH1 0x2 EXP SWAP2 POP DUP5 DUP3 GT ISZERO PUSH3 0x8C3 JUMPI PUSH3 0x8C2 PUSH3 0x7BD JUMP JUMPDEST JUMPDEST POP PUSH3 0x933 JUMP JUMPDEST POP PUSH1 0x20 DUP4 LT PUSH2 0x133 DUP4 LT AND PUSH1 0x4E DUP5 LT PUSH1 0xB DUP5 LT AND OR ISZERO PUSH3 0x904 JUMPI DUP3 DUP3 EXP SWAP1 POP DUP4 DUP2 GT ISZERO PUSH3 0x8FE JUMPI PUSH3 0x8FD PUSH3 0x7BD JUMP JUMPDEST JUMPDEST PUSH3 0x933 JUMP JUMPDEST PUSH3 0x913 DUP5 DUP5 DUP5 PUSH1 0x1 PUSH3 0x7F6 JUMP JUMPDEST SWAP3 POP SWAP1 POP DUP2 DUP5 DIV DUP2 GT ISZERO PUSH3 0x92D JUMPI PUSH3 0x92C PUSH3 0x7BD JUMP JUMPDEST JUMPDEST DUP2 DUP2 MUL SWAP1 POP JUMPDEST SWAP4 SWAP3 POP POP POP JUMP JUMPDEST PUSH0 PUSH1 0xFF DUP3 AND SWAP1 POP SWAP2 SWAP1 POP JUMP JUMPDEST PUSH0 PUSH3 0x952 DUP3 PUSH3 0x58F JUMP JUMPDEST SWAP2 POP PUSH3 0x95F DUP4 PUSH3 0x93A JUMP JUMPDEST SWAP3 POP PUSH3 0x98E PUSH32 0xFFFFFFFFFFFFFFFFFFFFFFFFFFFFFFFFFFFFFFFFFFFFFFFFFFFFFFFFFFFFFFFF DUP5 DUP5 PUSH3 0x850 JUMP JUMPDEST SWAP1 POP SWAP3 SWAP2 POP POP JUMP JUMPDEST PUSH0 PUSH3 0x9A2 DUP3 PUSH3 0x58F JUMP JUMPDEST SWAP2 POP PUSH3 0x9AF DUP4 PUSH3 0x58F JUMP JUMPDEST SWAP3 POP DUP3 DUP3 MUL PUSH3 0x9BF DUP2 PUSH3 0x58F JUMP JUMPDEST SWAP2 POP DUP3 DUP3 DIV DUP5 EQ DUP4 ISZERO OR PUSH3 0x9D9 JUMPI PUSH3 0x9D8 PUSH3 0x7BD JUMP JUMPDEST JUMPDEST POP SWAP3 SWAP2 POP POP JUMP JUMPDEST PUSH0 DUP3 DUP3 MSTORE PUSH1 0x20 DUP3 ADD SWAP1 POP SWAP3 SWAP2 POP POP JUMP JUMPDEST PUSH32 0x45524332303A206D696E7420746F20746865207A65726F206164647265737300 PUSH0 DUP3 ADD MSTORE POP JUMP JUMPDEST PUSH0 PUSH3 0xA26 PUSH1 0x1F DUP4 PUSH3 0x9E0 JUMP JUMPDEST SWAP2 POP PUSH3 0xA33 DUP3 PUSH3 0x9F0 JUMP JUMPDEST PUSH1 0x20 DUP3 ADD SWAP1 POP SWAP2 SWAP1 POP JUMP JUMPDEST PUSH0 PUSH1 0x20 DUP3 ADD SWAP1 POP DUP2 DUP2 SUB PUSH0 DUP4 ADD MSTORE PUSH3 0xA57 DUP2 PUSH3 0xA18 JUMP JUMPDEST SWAP1 POP SWAP2 SWAP1 POP JUMP JUMPDEST PUSH0 PUSH3 0xA6A DUP3 PUSH3 0x58F JUMP JUMPDEST SWAP2 POP PUSH3 0xA77 DUP4 PUSH3 0x58F JUMP JUMPDEST SWAP3 POP DUP3 DUP3 ADD SWAP1 POP DUP1 DUP3 GT ISZERO PUSH3 0xA92 JUMPI PUSH3 0xA91 PUSH3 0x7BD JUMP JUMPDEST JUMPDEST SWAP3 SWAP2 POP POP JUMP JUMPDEST PUSH3 0xAA3 DUP2 PUSH3 0x58F JUMP JUMPDEST DUP3 MSTORE POP POP JUMP JUMPDEST PUSH0 PUSH1 0x20 DUP3 ADD SWAP1 POP PUSH3 0xABE PUSH0 DUP4 ADD DUP5 PUSH3 0xA98 JUMP JUMPDEST SWAP3 SWAP2 POP POP JUMP JUMPDEST PUSH1 0x80 MLOAD PUSH2 0x42F8 PUSH3 0xAEB PUSH0 CODECOPY PUSH0 DUP2 DUP2 PUSH2 0x13F7 ADD MSTORE DUP2 DUP2 PUSH2 0x1543 ADD MSTORE PUSH2 0x24C9 ADD MSTORE PUSH2 0x42F8 PUSH0 RETURN INVALID PUSH1 0x80 PUSH1 0x40 MSTORE CALLVALUE DUP1 ISZERO PUSH2 0xF JUMPI PUSH0 DUP1 REVERT JUMPDEST POP PUSH1 0x4 CALLDATASIZE LT PUSH2 0x292 JUMPI PUSH0 CALLDATALOAD PUSH1 0xE0 SHR DUP1 PUSH4 0x715018A6 GT PUSH2 0x165 JUMPI DUP1 PUSH4 0xB73F8007 GT PUSH2 0xCC JUMPI DUP1 PUSH4 0xDD62ED3E GT PUSH2 0x85 JUMPI DUP1 PUSH4 0xDD62ED3E EQ PUSH2 0x7FC JUMPI DUP1 PUSH4 0xE319C2CE EQ PUSH2 0x82C JUMPI DUP1 PUSH4 0xE465D64D EQ PUSH2 0x84A JUMPI DUP1 PUSH4 0xE67D6921 EQ PUSH2 0x866 JUMPI DUP1 PUSH4 0xEA173A39 EQ PUSH2 0x882 JUMPI DUP1 PUSH4 0xF2FDE38B EQ PUSH2 0x89E JUMPI PUSH2 0x292 JUMP JUMPDEST DUP1 PUSH4 0xB73F8007 EQ PUSH2 0x726 JUMPI DUP1 PUSH4 0xB9E43EEE EQ PUSH2 0x757 JUMPI DUP1 PUSH4 0xC31C9C07 EQ PUSH2 0x773 JUMPI DUP1 PUSH4 0xC90880C1 EQ PUSH2 0x791 JUMPI DUP1 PUSH4 0xCA5FB573 EQ PUSH2 0x7AD JUMPI DUP1 PUSH4 0xCCBD73E7 EQ PUSH2 0x7C9 JUMPI PUSH2 0x292 JUMP JUMPDEST DUP1 PUSH4 0x8DD95002 GT PUSH2 0x11E JUMPI DUP1 PUSH4 0x8DD95002 EQ PUSH2 0x652 JUMPI DUP1 PUSH4 0x95D89B41 EQ PUSH2 0x670 JUMPI DUP1 PUSH4 0x9C42AC13 EQ PUSH2 0x68E JUMPI DUP1 PUSH4 0xA457C2D7 EQ PUSH2 0x6AA JUMPI DUP1 PUSH4 0xA9059CBB EQ PUSH2 0x6DA JUMPI DUP1 PUSH4 0xAFE2DDD7 EQ PUSH2 0x70A JUMPI PUSH2 0x292 JUMP JUMPDEST DUP1 PUSH4 0x715018A6 EQ PUSH2 0x590 JUMPI DUP1 PUSH4 0x793EA8D1 EQ PUSH2 0x59A JUMPI DUP1 PUSH4 0x79CC6790 EQ PUSH2 0x5CA JUMPI DUP1 PUSH4 0x82FAB2AD EQ PUSH2 0x5E6 JUMPI DUP1 PUSH4 0x8568B3A5 EQ PUSH2 0x604 JUMPI DUP1 PUSH4 0x8DA5CB5B EQ PUSH2 0x634 JUMPI PUSH2 0x292 JUMP JUMPDEST DUP1 PUSH4 0x24E2A33E GT PUSH2 0x209 JUMPI DUP1 PUSH4 0x42966C68 GT PUSH2 0x1C2 JUMPI DUP1 PUSH4 0x42966C68 EQ PUSH2 0x4D2 JUMPI DUP1 PUSH4 0x446B5D5F EQ PUSH2 0x4EE JUMPI DUP1 PUSH4 0x57970E93 EQ PUSH2 0x50A JUMPI DUP1 PUSH4 0x680F2E4F EQ PUSH2 0x528 JUMPI DUP1 PUSH4 0x6BC20157 EQ PUSH2 0x544 JUMPI DUP1 PUSH4 0x70A08231 EQ PUSH2 0x560 JUMPI PUSH2 0x292 JUMP JUMPDEST DUP1 PUSH4 0x24E2A33E EQ PUSH2 0x3FE JUMPI DUP1 PUSH4 0x313CE567 EQ PUSH2 0x41A JUMPI DUP1 PUSH4 0x3268CC56 EQ PUSH2 0x438 JUMPI DUP1 PUSH4 0x36EAB316 EQ PUSH2 0x456 JUMPI DUP1 PUSH4 0x372C12B1 EQ PUSH2 0x472 JUMPI DUP1 PUSH4 0x39509351 EQ PUSH2 0x4A2 JUMPI PUSH2 0x292 JUMP JUMPDEST DUP1 PUSH4 0xE1B39FB GT PUSH2 0x25B JUMPI DUP1 PUSH4 0xE1B39FB EQ PUSH2 0x33A JUMPI DUP1 PUSH4 0x172CC5A7 EQ PUSH2 0x358 JUMPI DUP1 PUSH4 0x18160DDD EQ PUSH2 0x374 JUMPI DUP1 PUSH4 0x196FD4BE EQ PUSH2 0x392 JUMPI DUP1 PUSH4 0x1D4140E1 EQ PUSH2 0x3B0 JUMPI DUP1 PUSH4 0x23B872DD EQ PUSH2 0x3CE JUMPI PUSH2 0x292 JUMP JUMPDEST DUP1 PUSH3 0x12D61A EQ PUSH2 0x296 JUMPI DUP1 PUSH4 0x445A103 EQ PUSH2 0x2B2 JUMPI DUP1 PUSH4 0x6FDDE03 EQ PUSH2 0x2CE JUMPI DUP1 PUSH4 0x89FE6AA EQ PUSH2 0x2EC JUMPI DUP1 PUSH4 0x95EA7B3 EQ PUSH2 0x30A JUMPI JUMPDEST PUSH0 DUP1 REVERT JUMPDEST PUSH2 0x2B0 PUSH1 0x4 DUP1 CALLDATASIZE SUB DUP2 ADD SWAP1 PUSH2 0x2AB SWAP2 SWAP1 PUSH2 0x335D JUMP JUMPDEST PUSH2 0x8BA JUMP JUMPDEST STOP JUMPDEST PUSH2 0x2CC PUSH1 0x4 DUP1 CALLDATASIZE SUB DUP2 ADD SWAP1 PUSH2 0x2C7 SWAP2 SWAP1 PUSH2 0x33BB JUMP JUMPDEST PUSH2 0xB0D JUMP JUMPDEST STOP JUMPDEST PUSH2 0x2D6 PUSH2 0xC52 JUMP JUMPDEST PUSH1 0x40 MLOAD PUSH2 0x2E3 SWAP2 SWAP1 PUSH2 0x3470 JUMP JUMPDEST PUSH1 0x40 MLOAD DUP1 SWAP2 SUB SWAP1 RETURN JUMPDEST PUSH2 0x2F4 PUSH2 0xCE2 JUMP JUMPDEST PUSH1 0x40 MLOAD PUSH2 0x301 SWAP2 SWAP1 PUSH2 0x34AD JUMP JUMPDEST PUSH1 0x40 MLOAD DUP1 SWAP2 SUB SWAP1 RETURN JUMPDEST PUSH2 0x324 PUSH1 0x4 DUP1 CALLDATASIZE SUB DUP2 ADD SWAP1 PUSH2 0x31F SWAP2 SWAP1 PUSH2 0x34C6 JUMP JUMPDEST PUSH2 0xCF6 JUMP JUMPDEST PUSH1 0x40 MLOAD PUSH2 0x331 SWAP2 SWAP1 PUSH2 0x351E JUMP JUMPDEST PUSH1 0x40 MLOAD DUP1 SWAP2 SUB SWAP1 RETURN JUMPDEST PUSH2 0x342 PUSH2 0xD18 JUMP JUMPDEST PUSH1 0x40 MLOAD PUSH2 0x34F SWAP2 SWAP1 PUSH2 0x3546 JUMP JUMPDEST PUSH1 0x40 MLOAD DUP1 SWAP2 SUB SWAP1 RETURN JUMPDEST PUSH2 0x372 PUSH1 0x4 DUP1 CALLDATASIZE SUB DUP2 ADD SWAP1 PUSH2 0x36D SWAP2 SWAP1 PUSH2 0x33BB JUMP JUMPDEST PUSH2 0xD3D JUMP JUMPDEST STOP JUMPDEST PUSH2 0x37C PUSH2 0xE82 JUMP JUMPDEST PUSH1 0x40 MLOAD PUSH2 0x389 SWAP2 SWAP1 PUSH2 0x356E JUMP JUMPDEST PUSH1 0x40 MLOAD DUP1 SWAP2 SUB SWAP1 RETURN JUMPDEST PUSH2 0x39A PUSH2 0xE8B JUMP JUMPDEST PUSH1 0x40 MLOAD PUSH2 0x3A7 SWAP2 SWAP1 PUSH2 0x3546 JUMP JUMPDEST PUSH1 0x40 MLOAD DUP1 SWAP2 SUB SWAP1 RETURN JUMPDEST PUSH2 0x3B8 PUSH2 0xEB0 JUMP JUMPDEST PUSH1 0x40 MLOAD PUSH2 0x3C5 SWAP2 SWAP1 PUSH2 0x356E JUMP JUMPDEST PUSH1 0x40 MLOAD DUP1 SWAP2 SUB SWAP1 RETURN JUMPDEST PUSH2 0x3E8 PUSH1 0x4 DUP1 CALLDATASIZE SUB DUP2 ADD SWAP1 PUSH2 0x3E3 SWAP2 SWAP1 PUSH2 0x3587 JUMP JUMPDEST PUSH2 0xEB6 JUMP JUMPDEST PUSH1 0x40 MLOAD PUSH2 0x3F5 SWAP2 SWAP1 PUSH2 0x351E JUMP JUMPDEST PUSH1 0x40 MLOAD DUP1 SWAP2 SUB SWAP1 RETURN JUMPDEST PUSH2 0x418 PUSH1 0x4 DUP1 CALLDATASIZE SUB DUP2 ADD SWAP1 PUSH2 0x413 SWAP2 SWAP1 PUSH2 0x3601 JUMP JUMPDEST PUSH2 0xEE4 JUMP JUMPDEST STOP JUMPDEST PUSH2 0x422 PUSH2 0xF09 JUMP JUMPDEST PUSH1 0x40 MLOAD PUSH2 0x42F SWAP2 SWAP1 PUSH2 0x3647 JUMP JUMPDEST PUSH1 0x40 MLOAD DUP1 SWAP2 SUB SWAP1 RETURN JUMPDEST PUSH2 0x440 PUSH2 0xF11 JUMP JUMPDEST PUSH1 0x40 MLOAD PUSH2 0x44D SWAP2 SWAP1 PUSH2 0x3546 JUMP JUMPDEST PUSH1 0x40 MLOAD DUP1 SWAP2 SUB SWAP1 RETURN JUMPDEST PUSH2 0x470 PUSH1 0x4 DUP1 CALLDATASIZE SUB DUP2 ADD SWAP1 PUSH2 0x46B SWAP2 SWAP1 PUSH2 0x33BB JUMP JUMPDEST PUSH2 0xF29 JUMP JUMPDEST STOP JUMPDEST PUSH2 0x48C PUSH1 0x4 DUP1 CALLDATASIZE SUB DUP2 ADD SWAP1 PUSH2 0x487 SWAP2 SWAP1 PUSH2 0x335D JUMP JUMPDEST PUSH2 0x106E JUMP JUMPDEST PUSH1 0x40 MLOAD PUSH2 0x499 SWAP2 SWAP1 PUSH2 0x351E JUMP JUMPDEST PUSH1 0x40 MLOAD DUP1 SWAP2 SUB SWAP1 RETURN JUMPDEST PUSH2 0x4BC PUSH1 0x4 DUP1 CALLDATASIZE SUB DUP2 ADD SWAP1 PUSH2 0x4B7 SWAP2 SWAP1 PUSH2 0x34C6 JUMP JUMPDEST PUSH2 0x108B JUMP JUMPDEST PUSH1 0x40 MLOAD PUSH2 0x4C9 SWAP2 SWAP1 PUSH2 0x351E JUMP JUMPDEST PUSH1 0x40 MLOAD DUP1 SWAP2 SUB SWAP1 RETURN JUMPDEST PUSH2 0x4EC PUSH1 0x4 DUP1 CALLDATASIZE SUB DUP2 ADD SWAP1 PUSH2 0x4E7 SWAP2 SWAP1 PUSH2 0x33BB JUMP JUMPDEST PUSH2 0x10C1 JUMP JUMPDEST STOP JUMPDEST PUSH2 0x508 PUSH1 0x4 DUP1 CALLDATASIZE SUB DUP2 ADD SWAP1 PUSH2 0x503 SWAP2 SWAP1 PUSH2 0x33BB JUMP JUMPDEST PUSH2 0x10D5 JUMP JUMPDEST STOP JUMPDEST PUSH2 0x512 PUSH2 0x1239 JUMP JUMPDEST PUSH1 0x40 MLOAD PUSH2 0x51F SWAP2 SWAP1 PUSH2 0x36BB JUMP JUMPDEST PUSH1 0x40 MLOAD DUP1 SWAP2 SUB SWAP1 RETURN JUMPDEST PUSH2 0x542 PUSH1 0x4 DUP1 CALLDATASIZE SUB DUP2 ADD SWAP1 PUSH2 0x53D SWAP2 SWAP1 PUSH2 0x34C6 JUMP JUMPDEST PUSH2 0x125E JUMP JUMPDEST STOP JUMPDEST PUSH2 0x55E PUSH1 0x4 DUP1 CALLDATASIZE SUB DUP2 ADD SWAP1 PUSH2 0x559 SWAP2 SWAP1 PUSH2 0x335D JUMP JUMPDEST PUSH2 0x1307 JUMP JUMPDEST STOP JUMPDEST PUSH2 0x57A PUSH1 0x4 DUP1 CALLDATASIZE SUB DUP2 ADD SWAP1 PUSH2 0x575 SWAP2 SWAP1 PUSH2 0x335D JUMP JUMPDEST PUSH2 0x135F JUMP JUMPDEST PUSH1 0x40 MLOAD PUSH2 0x587 SWAP2 SWAP1 PUSH2 0x356E JUMP JUMPDEST PUSH1 0x40 MLOAD DUP1 SWAP2 SUB SWAP1 RETURN JUMPDEST PUSH2 0x598 PUSH2 0x13A4 JUMP JUMPDEST STOP JUMPDEST PUSH2 0x5B4 PUSH1 0x4 DUP1 CALLDATASIZE SUB DUP2 ADD SWAP1 PUSH2 0x5AF SWAP2 SWAP1 PUSH2 0x36D4 JUMP JUMPDEST PUSH2 0x13B7 JUMP JUMPDEST PUSH1 0x40 MLOAD PUSH2 0x5C1 SWAP2 SWAP1 PUSH2 0x356E JUMP JUMPDEST PUSH1 0x40 MLOAD DUP1 SWAP2 SUB SWAP1 RETURN JUMPDEST PUSH2 0x5E4 PUSH1 0x4 DUP1 CALLDATASIZE SUB DUP2 ADD SWAP1 PUSH2 0x5DF SWAP2 SWAP1 PUSH2 0x34C6 JUMP JUMPDEST PUSH2 0x15E3 JUMP JUMPDEST STOP JUMPDEST PUSH2 0x5EE PUSH2 0x1603 JUMP JUMPDEST PUSH1 0x40 MLOAD PUSH2 0x5FB SWAP2 SWAP1 PUSH2 0x36BB JUMP JUMPDEST PUSH1 0x40 MLOAD DUP1 SWAP2 SUB SWAP1 RETURN JUMPDEST PUSH2 0x61E PUSH1 0x4 DUP1 CALLDATASIZE SUB DUP2 ADD SWAP1 PUSH2 0x619 SWAP2 SWAP1 PUSH2 0x335D JUMP JUMPDEST PUSH2 0x1628 JUMP JUMPDEST PUSH1 0x40 MLOAD PUSH2 0x62B SWAP2 SWAP1 PUSH2 0x356E JUMP JUMPDEST PUSH1 0x40 MLOAD DUP1 SWAP2 SUB SWAP1 RETURN JUMPDEST PUSH2 0x63C PUSH2 0x16C9 JUMP JUMPDEST PUSH1 0x40 MLOAD PUSH2 0x649 SWAP2 SWAP1 PUSH2 0x3546 JUMP JUMPDEST PUSH1 0x40 MLOAD DUP1 SWAP2 SUB SWAP1 RETURN JUMPDEST PUSH2 0x65A PUSH2 0x16F1 JUMP JUMPDEST PUSH1 0x40 MLOAD PUSH2 0x667 SWAP2 SWAP1 PUSH2 0x3546 JUMP JUMPDEST PUSH1 0x40 MLOAD DUP1 SWAP2 SUB SWAP1 RETURN JUMPDEST PUSH2 0x678 PUSH2 0x1717 JUMP JUMPDEST PUSH1 0x40 MLOAD PUSH2 0x685 SWAP2 SWAP1 PUSH2 0x3470 JUMP JUMPDEST PUSH1 0x40 MLOAD DUP1 SWAP2 SUB SWAP1 RETURN JUMPDEST PUSH2 0x6A8 PUSH1 0x4 DUP1 CALLDATASIZE SUB DUP2 ADD SWAP1 PUSH2 0x6A3 SWAP2 SWAP1 PUSH2 0x33BB JUMP JUMPDEST PUSH2 0x17A7 JUMP JUMPDEST STOP JUMPDEST PUSH2 0x6C4 PUSH1 0x4 DUP1 CALLDATASIZE SUB DUP2 ADD SWAP1 PUSH2 0x6BF SWAP2 SWAP1 PUSH2 0x34C6 JUMP JUMPDEST PUSH2 0x17CC JUMP JUMPDEST PUSH1 0x40 MLOAD PUSH2 0x6D1 SWAP2 SWAP1 PUSH2 0x351E JUMP JUMPDEST PUSH1 0x40 MLOAD DUP1 SWAP2 SUB SWAP1 RETURN JUMPDEST PUSH2 0x6F4 PUSH1 0x4 DUP1 CALLDATASIZE SUB DUP2 ADD SWAP1 PUSH2 0x6EF SWAP2 SWAP1 PUSH2 0x34C6 JUMP JUMPDEST PUSH2 0x1841 JUMP JUMPDEST PUSH1 0x40 MLOAD PUSH2 0x701 SWAP2 SWAP1 PUSH2 0x351E JUMP JUMPDEST PUSH1 0x40 MLOAD DUP1 SWAP2 SUB SWAP1 RETURN JUMPDEST PUSH2 0x724 PUSH1 0x4 DUP1 CALLDATASIZE SUB DUP2 ADD SWAP1 PUSH2 0x71F SWAP2 SWAP1 PUSH2 0x33BB JUMP JUMPDEST PUSH2 0x22A1 JUMP JUMPDEST STOP JUMPDEST PUSH2 0x740 PUSH1 0x4 DUP1 CALLDATASIZE SUB DUP2 ADD SWAP1 PUSH2 0x73B SWAP2 SWAP1 PUSH2 0x335D JUMP JUMPDEST PUSH2 0x23E6 JUMP JUMPDEST PUSH1 0x40 MLOAD PUSH2 0x74E SWAP3 SWAP2 SWAP1 PUSH2 0x3712 JUMP JUMPDEST PUSH1 0x40 MLOAD DUP1 SWAP2 SUB SWAP1 RETURN JUMPDEST PUSH2 0x771 PUSH1 0x4 DUP1 CALLDATASIZE SUB DUP2 ADD SWAP1 PUSH2 0x76C SWAP2 SWAP1 PUSH2 0x34C6 JUMP JUMPDEST PUSH2 0x241E JUMP JUMPDEST STOP JUMPDEST PUSH2 0x77B PUSH2 0x24C7 JUMP JUMPDEST PUSH1 0x40 MLOAD PUSH2 0x788 SWAP2 SWAP1 PUSH2 0x3759 JUMP JUMPDEST PUSH1 0x40 MLOAD DUP1 SWAP2 SUB SWAP1 RETURN JUMPDEST PUSH2 0x7AB PUSH1 0x4 DUP1 CALLDATASIZE SUB DUP2 ADD SWAP1 PUSH2 0x7A6 SWAP2 SWAP1 PUSH2 0x33BB JUMP JUMPDEST PUSH2 0x24EB JUMP JUMPDEST STOP JUMPDEST PUSH2 0x7C7 PUSH1 0x4 DUP1 CALLDATASIZE SUB DUP2 ADD SWAP1 PUSH2 0x7C2 SWAP2 SWAP1 PUSH2 0x379C JUMP JUMPDEST PUSH2 0x2630 JUMP JUMPDEST STOP JUMPDEST PUSH2 0x7E3 PUSH1 0x4 DUP1 CALLDATASIZE SUB DUP2 ADD SWAP1 PUSH2 0x7DE SWAP2 SWAP1 PUSH2 0x33BB JUMP JUMPDEST PUSH2 0x271C JUMP JUMPDEST PUSH1 0x40 MLOAD PUSH2 0x7F3 SWAP5 SWAP4 SWAP3 SWAP2 SWAP1 PUSH2 0x37EC JUMP JUMPDEST PUSH1 0x40 MLOAD DUP1 SWAP2 SUB SWAP1 RETURN JUMPDEST PUSH2 0x816 PUSH1 0x4 DUP1 CALLDATASIZE SUB DUP2 ADD SWAP1 PUSH2 0x811 SWAP2 SWAP1 PUSH2 0x382F JUMP JUMPDEST PUSH2 0x2748 JUMP JUMPDEST PUSH1 0x40 MLOAD PUSH2 0x823 SWAP2 SWAP1 PUSH2 0x356E JUMP JUMPDEST PUSH1 0x40 MLOAD DUP1 SWAP2 SUB SWAP1 RETURN JUMPDEST PUSH2 0x834 PUSH2 0x27CA JUMP JUMPDEST PUSH1 0x40 MLOAD PUSH2 0x841 SWAP2 SWAP1 PUSH2 0x351E JUMP JUMPDEST PUSH1 0x40 MLOAD DUP1 SWAP2 SUB SWAP1 RETURN JUMPDEST PUSH2 0x864 PUSH1 0x4 DUP1 CALLDATASIZE SUB DUP2 ADD SWAP1 PUSH2 0x85F SWAP2 SWAP1 PUSH2 0x33BB JUMP JUMPDEST PUSH2 0x27DD JUMP JUMPDEST STOP JUMPDEST PUSH2 0x880 PUSH1 0x4 DUP1 CALLDATASIZE SUB DUP2 ADD SWAP1 PUSH2 0x87B SWAP2 SWAP1 PUSH2 0x33BB JUMP JUMPDEST PUSH2 0x2802 JUMP JUMPDEST STOP JUMPDEST PUSH2 0x89C PUSH1 0x4 DUP1 CALLDATASIZE SUB DUP2 ADD SWAP1 PUSH2 0x897 SWAP2 SWAP1 PUSH2 0x33BB JUMP JUMPDEST PUSH2 0x2947 JUMP JUMPDEST STOP JUMPDEST PUSH2 0x8B8 PUSH1 0x4 DUP1 CALLDATASIZE SUB DUP2 ADD SWAP1 PUSH2 0x8B3 SWAP2 SWAP1 PUSH2 0x335D JUMP JUMPDEST PUSH2 0x2A8C JUMP JUMPDEST STOP JUMPDEST PUSH1 0xB PUSH0 DUP3 PUSH20 0xFFFFFFFFFFFFFFFFFFFFFFFFFFFFFFFFFFFFFFFF AND PUSH20 0xFFFFFFFFFFFFFFFFFFFFFFFFFFFFFFFFFFFFFFFF AND DUP2 MSTORE PUSH1 0x20 ADD SWAP1 DUP2 MSTORE PUSH1 0x20 ADD PUSH0 KECCAK256 PUSH0 ADD PUSH1 0x1 SWAP1 SLOAD SWAP1 PUSH2 0x100 EXP SWAP1 DIV PUSH1 0xFF AND PUSH2 0x946 JUMPI PUSH1 0x40 MLOAD PUSH32 0x8C379A000000000000000000000000000000000000000000000000000000000 DUP2 MSTORE PUSH1 0x4 ADD PUSH2 0x93D SWAP1 PUSH2 0x38B7 JUMP JUMPDEST PUSH1 0x40 MLOAD DUP1 SWAP2 SUB SWAP1 REVERT JUMPDEST PUSH1 0xB PUSH0 DUP3 PUSH20 0xFFFFFFFFFFFFFFFFFFFFFFFFFFFFFFFFFFFFFFFF AND PUSH20 0xFFFFFFFFFFFFFFFFFFFFFFFFFFFFFFFFFFFFFFFF AND DUP2 MSTORE PUSH1 0x20 ADD SWAP1 DUP2 MSTORE PUSH1 0x20 ADD PUSH0 KECCAK256 PUSH0 ADD PUSH0 SWAP1 SLOAD SWAP1 PUSH2 0x100 EXP SWAP1 DIV PUSH1 0xFF AND ISZERO PUSH2 0x9D2 JUMPI PUSH1 0x40 MLOAD PUSH32 0x8C379A000000000000000000000000000000000000000000000000000000000 DUP2 MSTORE PUSH1 0x4 ADD PUSH2 0x9C9 SWAP1 PUSH2 0x391F JUMP JUMPDEST PUSH1 0x40 MLOAD DUP1 SWAP2 SUB SWAP1 REVERT JUMPDEST PUSH0 PUSH2 0x9DB PUSH2 0xE82 JUMP JUMPDEST PUSH1 0x8 SLOAD PUSH2 0x9E7 DUP5 PUSH2 0x135F JUMP JUMPDEST PUSH2 0x9F1 SWAP2 SWAP1 PUSH2 0x396A JUMP JUMPDEST PUSH2 0x9FB SWAP2 SWAP1 PUSH2 0x39D8 JUMP JUMPDEST SWAP1 POP PUSH1 0x1 PUSH1 0xB PUSH0 DUP5 PUSH20 0xFFFFFFFFFFFFFFFFFFFFFFFFFFFFFFFFFFFFFFFF AND PUSH20 0xFFFFFFFFFFFFFFFFFFFFFFFFFFFFFFFFFFFFFFFF AND DUP2 MSTORE PUSH1 0x20 ADD SWAP1 DUP2 MSTORE PUSH1 0x20 ADD PUSH0 KECCAK256 PUSH0 ADD PUSH0 PUSH2 0x100 EXP DUP2 SLOAD DUP2 PUSH1 0xFF MUL NOT AND SWAP1 DUP4 ISZERO ISZERO MUL OR SWAP1 SSTORE POP DUP1 PUSH1 0x8 PUSH0 DUP3 DUP3 SLOAD PUSH2 0xA65 SWAP2 SWAP1 PUSH2 0x3A08 JUMP JUMPDEST SWAP3 POP POP DUP2 SWAP1 SSTORE POP PUSH1 0xD PUSH0 SWAP1 SLOAD SWAP1 PUSH2 0x100 EXP SWAP1 DIV PUSH20 0xFFFFFFFFFFFFFFFFFFFFFFFFFFFFFFFFFFFFFFFF AND PUSH20 0xFFFFFFFFFFFFFFFFFFFFFFFFFFFFFFFFFFFFFFFF AND PUSH4 0xA9059CBB DUP4 DUP4 PUSH1 0x40 MLOAD DUP4 PUSH4 0xFFFFFFFF AND PUSH1 0xE0 SHL DUP2 MSTORE PUSH1 0x4 ADD PUSH2 0xAC8 SWAP3 SWAP2 SWAP1 PUSH2 0x3A3B JUMP JUMPDEST PUSH1 0x20 PUSH1 0x40 MLOAD DUP1 DUP4 SUB DUP2 PUSH0 DUP8 GAS CALL ISZERO DUP1 ISZERO PUSH2 0xAE4 JUMPI RETURNDATASIZE PUSH0 DUP1 RETURNDATACOPY RETURNDATASIZE PUSH0 REVERT JUMPDEST POP POP POP POP PUSH1 0x40 MLOAD RETURNDATASIZE PUSH1 0x1F NOT PUSH1 0x1F DUP3 ADD AND DUP3 ADD DUP1 PUSH1 0x40 MSTORE POP DUP2 ADD SWAP1 PUSH2 0xB08 SWAP2 SWAP1 PUSH2 0x3A76 JUMP JUMPDEST POP POP POP JUMP JUMPDEST PUSH2 0xB15 PUSH2 0x2B0E JUMP JUMPDEST PUSH1 0xF DUP2 PUSH1 0xC PUSH0 PUSH1 0x4 DUP2 MSTORE PUSH1 0x20 ADD SWAP1 DUP2 MSTORE PUSH1 0x20 ADD PUSH0 KECCAK256 PUSH0 ADD SLOAD PUSH1 0xC PUSH0 PUSH1 0x3 DUP2 MSTORE PUSH1 0x20 ADD SWAP1 DUP2 MSTORE PUSH1 0x20 ADD PUSH0 KECCAK256 PUSH0 ADD SLOAD PUSH1 0xC PUSH0 PUSH1 0x2 DUP2 MSTORE PUSH1 0x20 ADD SWAP1 DUP2 MSTORE PUSH1 0x20 ADD PUSH0 KECCAK256 PUSH0 ADD SLOAD PUSH1 0xC PUSH0 PUSH1 0x1 DUP2 MSTORE PUSH1 0x20 ADD SWAP1 DUP2 MSTORE PUSH1 0x20 ADD PUSH0 KECCAK256 PUSH0 ADD SLOAD PUSH1 0xC PUSH0 PUSH1 0x4 DUP2 MSTORE PUSH1 0x20 ADD SWAP1 DUP2 MSTORE PUSH1 0x20 ADD PUSH0 KECCAK256 PUSH1 0x1 ADD SLOAD PUSH1 0xC PUSH0 PUSH1 0x3 DUP2 MSTORE PUSH1 0x20 ADD SWAP1 DUP2 MSTORE PUSH1 0x20 ADD PUSH0 KECCAK256 PUSH1 0x1 ADD SLOAD PUSH1 0xC PUSH0 PUSH1 0x1 DUP2 MSTORE PUSH1 0x20 ADD SWAP1 DUP2 MSTORE PUSH1 0x20 ADD PUSH0 KECCAK256 PUSH1 0x1 ADD SLOAD PUSH2 0xBB8 SWAP2 SWAP1 PUSH2 0x3AA1 JUMP JUMPDEST PUSH2 0xBC2 SWAP2 SWAP1 PUSH2 0x3AA1 JUMP JUMPDEST PUSH2 0xBCC SWAP2 SWAP1 PUSH2 0x3AA1 JUMP JUMPDEST PUSH2 0xBD6 SWAP2 SWAP1 PUSH2 0x3AA1 JUMP JUMPDEST PUSH2 0xBE0 SWAP2 SWAP1 PUSH2 0x3AA1 JUMP JUMPDEST PUSH2 0xBEA SWAP2 SWAP1 PUSH2 0x3AA1 JUMP JUMPDEST PUSH2 0xBF4 SWAP2 SWAP1 PUSH2 0x3AA1 JUMP JUMPDEST GT ISZERO PUSH2 0xC35 JUMPI PUSH1 0x40 MLOAD PUSH32 0x8C379A000000000000000000000000000000000000000000000000000000000 DUP2 MSTORE PUSH1 0x4 ADD PUSH2 0xC2C SWAP1 PUSH2 0x3B44 JUMP JUMPDEST PUSH1 0x40 MLOAD DUP1 SWAP2 SUB SWAP1 REVERT JUMPDEST DUP1 PUSH1 0xC PUSH0 PUSH1 0x2 DUP2 MSTORE PUSH1 0x20 ADD SWAP1 DUP2 MSTORE PUSH1 0x20 ADD PUSH0 KECCAK256 PUSH1 0x1 ADD DUP2 SWAP1 SSTORE POP POP JUMP JUMPDEST PUSH1 0x60 PUSH1 0x3 DUP1 SLOAD PUSH2 0xC61 SWAP1 PUSH2 0x3B8F JUMP JUMPDEST DUP1 PUSH1 0x1F ADD PUSH1 0x20 DUP1 SWAP2 DIV MUL PUSH1 0x20 ADD PUSH1 0x40 MLOAD SWAP1 DUP2 ADD PUSH1 0x40 MSTORE DUP1 SWAP3 SWAP2 SWAP1 DUP2 DUP2 MSTORE PUSH1 0x20 ADD DUP3 DUP1 SLOAD PUSH2 0xC8D SWAP1 PUSH2 0x3B8F JUMP JUMPDEST DUP1 ISZERO PUSH2 0xCD8 JUMPI DUP1 PUSH1 0x1F LT PUSH2 0xCAF JUMPI PUSH2 0x100 DUP1 DUP4 SLOAD DIV MUL DUP4 MSTORE SWAP2 PUSH1 0x20 ADD SWAP2 PUSH2 0xCD8 JUMP JUMPDEST DUP3 ADD SWAP2 SWAP1 PUSH0 MSTORE PUSH1 0x20 PUSH0 KECCAK256 SWAP1 JUMPDEST DUP2 SLOAD DUP2 MSTORE SWAP1 PUSH1 0x1 ADD SWAP1 PUSH1 0x20 ADD DUP1 DUP4 GT PUSH2 0xCBB JUMPI DUP3 SWAP1 SUB PUSH1 0x1F AND DUP3 ADD SWAP2 JUMPDEST POP POP POP POP POP SWAP1 POP SWAP1 JUMP JUMPDEST PUSH1 0x9 PUSH0 SWAP1 SLOAD SWAP1 PUSH2 0x100 EXP SWAP1 DIV PUSH3 0xFFFFFF AND DUP2 JUMP JUMPDEST PUSH0 DUP1 PUSH2 0xD00 PUSH2 0x2B8C JUMP JUMPDEST SWAP1 POP PUSH2 0xD0D DUP2 DUP6 DUP6 PUSH2 0x2B93 JUMP JUMPDEST PUSH1 0x1 SWAP2 POP POP SWAP3 SWAP2 POP POP JUMP JUMPDEST PUSH1 0x6 PUSH0 SWAP1 SLOAD SWAP1 PUSH2 0x100 EXP SWAP1 DIV PUSH20 0xFFFFFFFFFFFFFFFFFFFFFFFFFFFFFFFFFFFFFFFF AND DUP2 JUMP JUMPDEST PUSH2 0xD45 PUSH2 0x2B0E JUMP JUMPDEST PUSH1 0xF DUP2 PUSH1 0xC PUSH0 PUSH1 0x4 DUP2 MSTORE PUSH1 0x20 ADD SWAP1 DUP2 MSTORE PUSH1 0x20 ADD PUSH0 KECCAK256 PUSH0 ADD SLOAD PUSH1 0xC PUSH0 PUSH1 0x3 DUP2 MSTORE PUSH1 0x20 ADD SWAP1 DUP2 MSTORE PUSH1 0x20 ADD PUSH0 KECCAK256 PUSH0 ADD SLOAD PUSH1 0xC PUSH0 PUSH1 0x1 DUP2 MSTORE PUSH1 0x20 ADD SWAP1 DUP2 MSTORE PUSH1 0x20 ADD PUSH0 KECCAK256 PUSH0 ADD SLOAD PUSH1 0xC PUSH0 PUSH1 0x4 DUP2 MSTORE PUSH1 0x20 ADD SWAP1 DUP2 MSTORE PUSH1 0x20 ADD PUSH0 KECCAK256 PUSH1 0x1 ADD SLOAD PUSH1 0xC PUSH0 PUSH1 0x3 DUP2 MSTORE PUSH1 0x20 ADD SWAP1 DUP2 MSTORE PUSH1 0x20 ADD PUSH0 KECCAK256 PUSH1 0x1 ADD SLOAD PUSH1 0xC PUSH0 PUSH1 0x2 DUP2 MSTORE PUSH1 0x20 ADD SWAP1 DUP2 MSTORE PUSH1 0x20 ADD PUSH0 KECCAK256 PUSH1 0x1 ADD SLOAD PUSH1 0xC PUSH0 PUSH1 0x1 DUP2 MSTORE PUSH1 0x20 ADD SWAP1 DUP2 MSTORE PUSH1 0x20 ADD PUSH0 KECCAK256 PUSH1 0x1 ADD SLOAD PUSH2 0xDE9 SWAP2 SWAP1 PUSH2 0x3AA1 JUMP JUMPDEST PUSH2 0xDF3 SWAP2 SWAP1 PUSH2 0x3AA1 JUMP JUMPDEST PUSH2 0xDFD SWAP2 SWAP1 PUSH2 0x3AA1 JUMP JUMPDEST PUSH2 0xE07 SWAP2 SWAP1 PUSH2 0x3AA1 JUMP JUMPDEST PUSH2 0xE11 SWAP2 SWAP1 PUSH2 0x3AA1 JUMP JUMPDEST PUSH2 0xE1B SWAP2 SWAP1 PUSH2 0x3AA1 JUMP JUMPDEST PUSH2 0xE25 SWAP2 SWAP1 PUSH2 0x3AA1 JUMP JUMPDEST GT ISZERO PUSH2 0xE66 JUMPI PUSH1 0x40 MLOAD PUSH32 0x8C379A000000000000000000000000000000000000000000000000000000000 DUP2 MSTORE PUSH1 0x4 ADD PUSH2 0xE5D SWAP1 PUSH2 0x3B44 JUMP JUMPDEST PUSH1 0x40 MLOAD DUP1 SWAP2 SUB SWAP1 REVERT JUMPDEST DUP1 PUSH1 0xC PUSH0 PUSH1 0x2 DUP2 MSTORE PUSH1 0x20 ADD SWAP1 DUP2 MSTORE PUSH1 0x20 ADD PUSH0 KECCAK256 PUSH0 ADD DUP2 SWAP1 SSTORE POP POP JUMP JUMPDEST PUSH0 PUSH1 0x2 SLOAD SWAP1 POP SWAP1 JUMP JUMPDEST PUSH1 0x7 PUSH0 SWAP1 SLOAD SWAP1 PUSH2 0x100 EXP SWAP1 DIV PUSH20 0xFFFFFFFFFFFFFFFFFFFFFFFFFFFFFFFFFFFFFFFF AND DUP2 JUMP JUMPDEST PUSH1 0x8 SLOAD DUP2 JUMP JUMPDEST PUSH0 DUP1 PUSH2 0xEC0 PUSH2 0x2B8C JUMP JUMPDEST SWAP1 POP PUSH2 0xECD DUP6 DUP3 DUP6 PUSH2 0x2D56 JUMP JUMPDEST PUSH2 0xED8 DUP6 DUP6 DUP6 PUSH2 0x2DE1 JUMP JUMPDEST PUSH1 0x1 SWAP2 POP POP SWAP4 SWAP3 POP POP POP JUMP JUMPDEST PUSH2 0xEEC PUSH2 0x2B0E JUMP JUMPDEST DUP1 PUSH1 0x6 PUSH1 0x14 PUSH2 0x100 EXP DUP2 SLOAD DUP2 PUSH1 0xFF MUL NOT AND SWAP1 DUP4 ISZERO ISZERO MUL OR SWAP1 SSTORE POP POP JUMP JUMPDEST PUSH0 PUSH1 0x12 SWAP1 POP SWAP1 JUMP JUMPDEST PUSH20 0xE592427A0AECE92DE3EDEE1F18E0157C05861564 DUP2 JUMP JUMPDEST PUSH2 0xF31 PUSH2 0x2B0E JUMP JUMPDEST PUSH1 0xF DUP2 PUSH1 0xC PUSH0 PUSH1 0x4 DUP2 MSTORE PUSH1 0x20 ADD SWAP1 DUP2 MSTORE PUSH1 0x20 ADD PUSH0 KECCAK256 PUSH0 ADD SLOAD PUSH1 0xC PUSH0 PUSH1 0x3 DUP2 MSTORE PUSH1 0x20 ADD SWAP1 DUP2 MSTORE PUSH1 0x20 ADD PUSH0 KECCAK256 PUSH0 ADD SLOAD PUSH1 0xC PUSH0 PUSH1 0x2 DUP2 MSTORE PUSH1 0x20 ADD SWAP1 DUP2 MSTORE PUSH1 0x20 ADD PUSH0 KECCAK256 PUSH0 ADD SLOAD PUSH1 0xC PUSH0 PUSH1 0x1 DUP2 MSTORE PUSH1 0x20 ADD SWAP1 DUP2 MSTORE PUSH1 0x20 ADD PUSH0 KECCAK256 PUSH0 ADD SLOAD PUSH1 0xC PUSH0 PUSH1 0x4 DUP2 MSTORE PUSH1 0x20 ADD SWAP1 DUP2 MSTORE PUSH1 0x20 ADD PUSH0 KECCAK256 PUSH1 0x1 ADD SLOAD PUSH1 0xC PUSH0 PUSH1 0x3 DUP2 MSTORE PUSH1 0x20 ADD SWAP1 DUP2 MSTORE PUSH1 0x20 ADD PUSH0 KECCAK256 PUSH1 0x1 ADD SLOAD PUSH1 0xC PUSH0 PUSH1 0x2 DUP2 MSTORE PUSH1 0x20 ADD SWAP1 DUP2 MSTORE PUSH1 0x20 ADD PUSH0 KECCAK256 PUSH1 0x1 ADD SLOAD PUSH2 0xFD4 SWAP2 SWAP1 PUSH2 0x3AA1 JUMP JUMPDEST PUSH2 0xFDE SWAP2 SWAP1 PUSH2 0x3AA1 JUMP JUMPDEST PUSH2 0xFE8 SWAP2 SWAP1 PUSH2 0x3AA1 JUMP JUMPDEST PUSH2 0xFF2 SWAP2 SWAP1 PUSH2 0x3AA1 JUMP JUMPDEST PUSH2 0xFFC SWAP2 SWAP1 PUSH2 0x3AA1 JUMP JUMPDEST PUSH2 0x1006 SWAP2 SWAP1 PUSH2 0x3AA1 JUMP JUMPDEST PUSH2 0x1010 SWAP2 SWAP1 PUSH2 0x3AA1 JUMP JUMPDEST GT ISZERO PUSH2 0x1051 JUMPI PUSH1 0x40 MLOAD PUSH32 0x8C379A000000000000000000000000000000000000000000000000000000000 DUP2 MSTORE PUSH1 0x4 ADD PUSH2 0x1048 SWAP1 PUSH2 0x3B44 JUMP JUMPDEST PUSH1 0x40 MLOAD DUP1 SWAP2 SUB SWAP1 REVERT JUMPDEST DUP1 PUSH1 0xC PUSH0 PUSH1 0x1 DUP2 MSTORE PUSH1 0x20 ADD SWAP1 DUP2 MSTORE PUSH1 0x20 ADD PUSH0 KECCAK256 PUSH1 0x1 ADD DUP2 SWAP1 SSTORE POP POP JUMP JUMPDEST PUSH1 0xA PUSH1 0x20 MSTORE DUP1 PUSH0 MSTORE PUSH1 0x40 PUSH0 KECCAK256 PUSH0 SWAP2 POP SLOAD SWAP1 PUSH2 0x100 EXP SWAP1 DIV PUSH1 0xFF AND DUP2 JUMP JUMPDEST PUSH0 DUP1 PUSH2 0x1095 PUSH2 0x2B8C JUMP JUMPDEST SWAP1 POP PUSH2 0x10B6 DUP2 DUP6 DUP6 PUSH2 0x10A7 DUP6 DUP10 PUSH2 0x2748 JUMP JUMPDEST PUSH2 0x10B1 SWAP2 SWAP1 PUSH2 0x3AA1 JUMP JUMPDEST PUSH2 0x2B93 JUMP JUMPDEST PUSH1 0x1 SWAP2 POP POP SWAP3 SWAP2 POP POP JUMP JUMPDEST PUSH2 0x10D2 PUSH2 0x10CC PUSH2 0x2B8C JUMP JUMPDEST DUP3 PUSH2 0x304D JUMP JUMPDEST POP JUMP JUMPDEST PUSH2 0x10DD PUSH2 0x2B0E JUMP JUMPDEST PUSH1 0xF DUP2 PUSH1 0xC PUSH0 PUSH1 0x4 DUP2 MSTORE PUSH1 0x20 ADD SWAP1 DUP2 MSTORE PUSH1 0x20 ADD PUSH0 KECCAK256 PUSH0 ADD SLOAD PUSH1 0xC PUSH0 PUSH1 0x3 DUP2 MSTORE PUSH1 0x20 ADD SWAP1 DUP2 MSTORE PUSH1 0x20 ADD PUSH0 KECCAK256 PUSH0 ADD SLOAD PUSH1 0xC PUSH0 PUSH1 0x2 DUP2 MSTORE PUSH1 0x20 ADD SWAP1 DUP2 MSTORE PUSH1 0x20 ADD PUSH0 KECCAK256 PUSH0 ADD SLOAD PUSH1 0xC PUSH0 PUSH1 0x1 DUP2 MSTORE PUSH1 0x20 ADD SWAP1 DUP2 MSTORE PUSH1 0x20 ADD PUSH0 KECCAK256 PUSH0 ADD SLOAD PUSH1 0xC PUSH0 PUSH1 0x4 DUP2 MSTORE PUSH1 0x20 ADD SWAP1 DUP2 MSTORE PUSH1 0x20 ADD PUSH0 KECCAK256 PUSH1 0x1 ADD SLOAD PUSH1 0xC PUSH0 PUSH1 0x3 DUP2 MSTORE PUSH1 0x20 ADD SWAP1 DUP2 MSTORE PUSH1 0x20 ADD PUSH0 KECCAK256 PUSH1 0x1 ADD SLOAD PUSH1 0xC PUSH0 PUSH1 0x2 DUP2 MSTORE PUSH1 0x20 ADD SWAP1 DUP2 MSTORE PUSH1 0x20 ADD PUSH0 KECCAK256 PUSH1 0x1 ADD SLOAD PUSH1 0xC PUSH0 PUSH1 0x1 DUP2 MSTORE PUSH1 0x20 ADD SWAP1 DUP2 MSTORE PUSH1 0x20 ADD PUSH0 KECCAK256 PUSH1 0x1 ADD SLOAD PUSH2 0x1196 SWAP2 SWAP1 PUSH2 0x3AA1 JUMP JUMPDEST PUSH2 0x11A0 SWAP2 SWAP1 PUSH2 0x3AA1 JUMP JUMPDEST PUSH2 0x11AA SWAP2 SWAP1 PUSH2 0x3AA1 JUMP JUMPDEST PUSH2 0x11B4 SWAP2 SWAP1 PUSH2 0x3AA1 JUMP JUMPDEST PUSH2 0x11BE SWAP2 SWAP1 PUSH2 0x3AA1 JUMP JUMPDEST PUSH2 0x11C8 SWAP2 SWAP1 PUSH2 0x3AA1 JUMP JUMPDEST PUSH2 0x11D2 SWAP2 SWAP1 PUSH2 0x3AA1 JUMP JUMPDEST PUSH2 0x11DC SWAP2 SWAP1 PUSH2 0x3AA1 JUMP JUMPDEST GT ISZERO PUSH2 0x121D JUMPI PUSH1 0x40 MLOAD PUSH32 0x8C379A000000000000000000000000000000000000000000000000000000000 DUP2 MSTORE PUSH1 0x4 ADD PUSH2 0x1214 SWAP1 PUSH2 0x3B44 JUMP JUMPDEST PUSH1 0x40 MLOAD DUP1 SWAP2 SUB SWAP1 REVERT JUMPDEST DUP1 PUSH1 0xC PUSH0 PUSH1 0x1 DUP2 MSTORE PUSH1 0x20 ADD SWAP1 DUP2 MSTORE PUSH1 0x20 ADD PUSH0 KECCAK256 PUSH0 ADD DUP2 SWAP1 SSTORE POP POP JUMP JUMPDEST PUSH1 0xD PUSH0 SWAP1 SLOAD SWAP1 PUSH2 0x100 EXP SWAP1 DIV PUSH20 0xFFFFFFFFFFFFFFFFFFFFFFFFFFFFFFFFFFFFFFFF AND DUP2 JUMP JUMPDEST PUSH2 0x1266 PUSH2 0x2B0E JUMP JUMPDEST PUSH1 0xD PUSH0 SWAP1 SLOAD SWAP1 PUSH2 0x100 EXP SWAP1 DIV PUSH20 0xFFFFFFFFFFFFFFFFFFFFFFFFFFFFFFFFFFFFFFFF AND PUSH20 0xFFFFFFFFFFFFFFFFFFFFFFFFFFFFFFFFFFFFFFFF AND PUSH4 0xA9059CBB DUP4 DUP4 PUSH1 0x40 MLOAD DUP4 PUSH4 0xFFFFFFFF AND PUSH1 0xE0 SHL DUP2 MSTORE PUSH1 0x4 ADD PUSH2 0x12C2 SWAP3 SWAP2 SWAP1 PUSH2 0x3A3B JUMP JUMPDEST PUSH1 0x20 PUSH1 0x40 MLOAD DUP1 DUP4 SUB DUP2 PUSH0 DUP8 GAS CALL ISZERO DUP1 ISZERO PUSH2 0x12DE JUMPI RETURNDATASIZE PUSH0 DUP1 RETURNDATACOPY RETURNDATASIZE PUSH0 REVERT JUMPDEST POP POP POP POP PUSH1 0x40 MLOAD RETURNDATASIZE PUSH1 0x1F NOT PUSH1 0x1F DUP3 ADD AND DUP3 ADD DUP1 PUSH1 0x40 MSTORE POP DUP2 ADD SWAP1 PUSH2 0x1302 SWAP2 SWAP1 PUSH2 0x3A76 JUMP JUMPDEST POP POP POP JUMP JUMPDEST PUSH1 0x1 PUSH1 0xA PUSH0 DUP4 PUSH20 0xFFFFFFFFFFFFFFFFFFFFFFFFFFFFFFFFFFFFFFFF AND PUSH20 0xFFFFFFFFFFFFFFFFFFFFFFFFFFFFFFFFFFFFFFFF AND DUP2 MSTORE PUSH1 0x20 ADD SWAP1 DUP2 MSTORE PUSH1 0x20 ADD PUSH0 KECCAK256 PUSH0 PUSH2 0x100 EXP DUP2 SLOAD DUP2 PUSH1 0xFF MUL NOT AND SWAP1 DUP4 ISZERO ISZERO MUL OR SWAP1 SSTORE POP POP JUMP JUMPDEST PUSH0 DUP1 PUSH0 DUP4 PUSH20 0xFFFFFFFFFFFFFFFFFFFFFFFFFFFFFFFFFFFFFFFF AND PUSH20 0xFFFFFFFFFFFFFFFFFFFFFFFFFFFFFFFFFFFFFFFF AND DUP2 MSTORE PUSH1 0x20 ADD SWAP1 DUP2 MSTORE PUSH1 0x20 ADD PUSH0 KECCAK256 SLOAD SWAP1 POP SWAP2 SWAP1 POP JUMP JUMPDEST PUSH2 0x13AC PUSH2 0x2B0E JUMP JUMPDEST PUSH2 0x13B5 PUSH0 PUSH2 0x3210 JUMP JUMPDEST JUMP JUMPDEST PUSH0 PUSH1 0xD PUSH0 SWAP1 SLOAD SWAP1 PUSH2 0x100 EXP SWAP1 DIV PUSH20 0xFFFFFFFFFFFFFFFFFFFFFFFFFFFFFFFFFFFFFFFF AND PUSH20 0xFFFFFFFFFFFFFFFFFFFFFFFFFFFFFFFFFFFFFFFF AND PUSH4 0x95EA7B3 PUSH32 0x0 DUP6 PUSH1 0x40 MLOAD DUP4 PUSH4 0xFFFFFFFF AND PUSH1 0xE0 SHL DUP2 MSTORE PUSH1 0x4 ADD PUSH2 0x1434 SWAP3 SWAP2 SWAP1 PUSH2 0x3A3B JUMP JUMPDEST PUSH1 0x20 PUSH1 0x40 MLOAD DUP1 DUP4 SUB DUP2 PUSH0 DUP8 GAS CALL ISZERO DUP1 ISZERO PUSH2 0x1450 JUMPI RETURNDATASIZE PUSH0 DUP1 RETURNDATACOPY RETURNDATASIZE PUSH0 REVERT JUMPDEST POP POP POP POP PUSH1 0x40 MLOAD RETURNDATASIZE PUSH1 0x1F NOT PUSH1 0x1F DUP3 ADD AND DUP3 ADD DUP1 PUSH1 0x40 MSTORE POP DUP2 ADD SWAP1 PUSH2 0x1474 SWAP2 SWAP1 PUSH2 0x3A76 JUMP JUMPDEST POP PUSH0 PUSH1 0x40 MLOAD DUP1 PUSH2 0x100 ADD PUSH1 0x40 MSTORE DUP1 ADDRESS PUSH20 0xFFFFFFFFFFFFFFFFFFFFFFFFFFFFFFFFFFFFFFFF AND DUP2 MSTORE PUSH1 0x20 ADD PUSH1 0x9 PUSH1 0x3 SWAP1 SLOAD SWAP1 PUSH2 0x100 EXP SWAP1 DIV PUSH20 0xFFFFFFFFFFFFFFFFFFFFFFFFFFFFFFFFFFFFFFFF AND PUSH20 0xFFFFFFFFFFFFFFFFFFFFFFFFFFFFFFFFFFFFFFFF AND DUP2 MSTORE PUSH1 0x20 ADD PUSH1 0x9 PUSH0 SWAP1 SLOAD SWAP1 PUSH2 0x100 EXP SWAP1 DIV PUSH3 0xFFFFFF AND PUSH3 0xFFFFFF AND DUP2 MSTORE PUSH1 0x20 ADD DUP5 PUSH20 0xFFFFFFFFFFFFFFFFFFFFFFFFFFFFFFFFFFFFFFFF AND DUP2 MSTORE PUSH1 0x20 ADD TIMESTAMP DUP2 MSTORE PUSH1 0x20 ADD DUP6 DUP2 MSTORE PUSH1 0x20 ADD PUSH0 DUP2 MSTORE PUSH1 0x20 ADD PUSH0 PUSH20 0xFFFFFFFFFFFFFFFFFFFFFFFFFFFFFFFFFFFFFFFF AND DUP2 MSTORE POP SWAP1 POP PUSH32 0x0 PUSH20 0xFFFFFFFFFFFFFFFFFFFFFFFFFFFFFFFFFFFFFFFF AND PUSH4 0x414BF389 DUP3 PUSH1 0x40 MLOAD DUP3 PUSH4 0xFFFFFFFF AND PUSH1 0xE0 SHL DUP2 MSTORE PUSH1 0x4 ADD PUSH2 0x159A SWAP2 SWAP1 PUSH2 0x3C9B JUMP JUMPDEST PUSH1 0x20 PUSH1 0x40 MLOAD DUP1 DUP4 SUB DUP2 PUSH0 DUP8 GAS CALL ISZERO DUP1 ISZERO PUSH2 0x15B6 JUMPI RETURNDATASIZE PUSH0 DUP1 RETURNDATACOPY RETURNDATASIZE PUSH0 REVERT JUMPDEST POP POP POP POP PUSH1 0x40 MLOAD RETURNDATASIZE PUSH1 0x1F NOT PUSH1 0x1F DUP3 ADD AND DUP3 ADD DUP1 PUSH1 0x40 MSTORE POP DUP2 ADD SWAP1 PUSH2 0x15DA SWAP2 SWAP1 PUSH2 0x3CC9 JUMP JUMPDEST SWAP2 POP POP SWAP3 SWAP2 POP POP JUMP JUMPDEST PUSH2 0x15F5 DUP3 PUSH2 0x15EF PUSH2 0x2B8C JUMP JUMPDEST DUP4 PUSH2 0x2D56 JUMP JUMPDEST PUSH2 0x15FF DUP3 DUP3 PUSH2 0x304D JUMP JUMPDEST POP POP JUMP JUMPDEST PUSH1 0xE PUSH0 SWAP1 SLOAD SWAP1 PUSH2 0x100 EXP SWAP1 DIV PUSH20 0xFFFFFFFFFFFFFFFFFFFFFFFFFFFFFFFFFFFFFFFF AND DUP2 JUMP JUMPDEST PUSH0 PUSH1 0xE PUSH0 SWAP1 SLOAD SWAP1 PUSH2 0x100 EXP SWAP1 DIV PUSH20 0xFFFFFFFFFFFFFFFFFFFFFFFFFFFFFFFFFFFFFFFF AND PUSH20 0xFFFFFFFFFFFFFFFFFFFFFFFFFFFFFFFFFFFFFFFF AND PUSH4 0x70A08231 DUP4 PUSH1 0x40 MLOAD DUP3 PUSH4 0xFFFFFFFF AND PUSH1 0xE0 SHL DUP2 MSTORE PUSH1 0x4 ADD PUSH2 0x1683 SWAP2 SWAP1 PUSH2 0x3546 JUMP JUMPDEST PUSH1 0x20 PUSH1 0x40 MLOAD DUP1 DUP4 SUB DUP2 DUP7 GAS STATICCALL ISZERO DUP1 ISZERO PUSH2 0x169E JUMPI RETURNDATASIZE PUSH0 DUP1 RETURNDATACOPY RETURNDATASIZE PUSH0 REVERT JUMPDEST POP POP POP POP PUSH1 0x40 MLOAD RETURNDATASIZE PUSH1 0x1F NOT PUSH1 0x1F DUP3 ADD AND DUP3 ADD DUP1 PUSH1 0x40 MSTORE POP DUP2 ADD SWAP1 PUSH2 0x16C2 SWAP2 SWAP1 PUSH2 0x3CC9 JUMP JUMPDEST SWAP1 POP SWAP2 SWAP1 POP JUMP JUMPDEST PUSH0 PUSH1 0x5 PUSH0 SWAP1 SLOAD SWAP1 PUSH2 0x100 EXP SWAP1 DIV PUSH20 0xFFFFFFFFFFFFFFFFFFFFFFFFFFFFFFFFFFFFFFFF AND SWAP1 POP SWAP1 JUMP JUMPDEST PUSH1 0x9 PUSH1 0x3 SWAP1 SLOAD SWAP1 PUSH2 0x100 EXP SWAP1 DIV PUSH20 0xFFFFFFFFFFFFFFFFFFFFFFFFFFFFFFFFFFFFFFFF AND DUP2 JUMP JUMPDEST PUSH1 0x60 PUSH1 0x4 DUP1 SLOAD PUSH2 0x1726 SWAP1 PUSH2 0x3B8F JUMP JUMPDEST DUP1 PUSH1 0x1F ADD PUSH1 0x20 DUP1 SWAP2 DIV MUL PUSH1 0x20 ADD PUSH1 0x40 MLOAD SWAP1 DUP2 ADD PUSH1 0x40 MSTORE DUP1 SWAP3 SWAP2 SWAP1 DUP2 DUP2 MSTORE PUSH1 0x20 ADD DUP3 DUP1 SLOAD PUSH2 0x1752 SWAP1 PUSH2 0x3B8F JUMP JUMPDEST DUP1 ISZERO PUSH2 0x179D JUMPI DUP1 PUSH1 0x1F LT PUSH2 0x1774 JUMPI PUSH2 0x100 DUP1 DUP4 SLOAD DIV MUL DUP4 MSTORE SWAP2 PUSH1 0x20 ADD SWAP2 PUSH2 0x179D JUMP JUMPDEST DUP3 ADD SWAP2 SWAP1 PUSH0 MSTORE PUSH1 0x20 PUSH0 KECCAK256 SWAP1 JUMPDEST DUP2 SLOAD DUP2 MSTORE SWAP1 PUSH1 0x1 ADD SWAP1 PUSH1 0x20 ADD DUP1 DUP4 GT PUSH2 0x1780 JUMPI DUP3 SWAP1 SUB PUSH1 0x1F AND DUP3 ADD SWAP2 JUMPDEST POP POP POP POP POP SWAP1 POP SWAP1 JUMP JUMPDEST PUSH2 0x17AF PUSH2 0x2B0E JUMP JUMPDEST DUP1 PUSH1 0xC PUSH0 PUSH1 0x4 DUP2 MSTORE PUSH1 0x20 ADD SWAP1 DUP2 MSTORE PUSH1 0x20 ADD PUSH0 KECCAK256 PUSH1 0x2 ADD DUP2 SWAP1 SSTORE POP POP JUMP JUMPDEST PUSH0 DUP1 PUSH2 0x17D6 PUSH2 0x2B8C JUMP JUMPDEST SWAP1 POP PUSH0 PUSH2 0x17E3 DUP3 DUP7 PUSH2 0x2748 JUMP JUMPDEST SWAP1 POP DUP4 DUP2 LT ISZERO PUSH2 0x1828 JUMPI PUSH1 0x40 MLOAD PUSH32 0x8C379A000000000000000000000000000000000000000000000000000000000 DUP2 MSTORE PUSH1 0x4 ADD PUSH2 0x181F SWAP1 PUSH2 0x3D64 JUMP JUMPDEST PUSH1 0x40 MLOAD DUP1 SWAP2 SUB SWAP1 REVERT JUMPDEST PUSH2 0x1835 DUP3 DUP7 DUP7 DUP5 SUB PUSH2 0x2B93 JUMP JUMPDEST PUSH1 0x1 SWAP3 POP POP POP SWAP3 SWAP2 POP POP JUMP JUMPDEST PUSH0 PUSH1 0xA PUSH0 CALLER PUSH20 0xFFFFFFFFFFFFFFFFFFFFFFFFFFFFFFFFFFFFFFFF AND PUSH20 0xFFFFFFFFFFFFFFFFFFFFFFFFFFFFFFFFFFFFFFFF AND DUP2 MSTORE PUSH1 0x20 ADD SWAP1 DUP2 MSTORE PUSH1 0x20 ADD PUSH0 KECCAK256 PUSH0 SWAP1 SLOAD SWAP1 PUSH2 0x100 EXP SWAP1 DIV PUSH1 0xFF AND ISZERO PUSH2 0x18A2 JUMPI PUSH2 0x189B DUP4 DUP4 PUSH2 0x32D3 JUMP JUMPDEST SWAP1 POP PUSH2 0x229B JUMP JUMPDEST PUSH1 0x7 PUSH0 SWAP1 SLOAD SWAP1 PUSH2 0x100 EXP SWAP1 DIV PUSH20 0xFFFFFFFFFFFFFFFFFFFFFFFFFFFFFFFFFFFFFFFF AND PUSH20 0xFFFFFFFFFFFFFFFFFFFFFFFFFFFFFFFFFFFFFFFF AND CALLER PUSH20 0xFFFFFFFFFFFFFFFFFFFFFFFFFFFFFFFFFFFFFFFF AND SUB PUSH2 0x1D9A JUMPI PUSH0 PUSH1 0x64 PUSH1 0xC PUSH0 PUSH1 0x1 DUP2 MSTORE PUSH1 0x20 ADD SWAP1 DUP2 MSTORE PUSH1 0x20 ADD PUSH0 KECCAK256 PUSH1 0x1 ADD SLOAD DUP5 PUSH2 0x191A SWAP2 SWAP1 PUSH2 0x396A JUMP JUMPDEST PUSH2 0x1924 SWAP2 SWAP1 PUSH2 0x39D8 JUMP JUMPDEST SWAP1 POP PUSH0 PUSH1 0x64 PUSH1 0xC PUSH0 PUSH1 0x2 DUP2 MSTORE PUSH1 0x20 ADD SWAP1 DUP2 MSTORE PUSH1 0x20 ADD PUSH0 KECCAK256 PUSH1 0x1 ADD SLOAD DUP6 PUSH2 0x194A SWAP2 SWAP1 PUSH2 0x396A JUMP JUMPDEST PUSH2 0x1954 SWAP2 SWAP1 PUSH2 0x39D8 JUMP JUMPDEST SWAP1 POP PUSH0 PUSH1 0x64 PUSH1 0xC PUSH0 PUSH1 0x3 DUP2 MSTORE PUSH1 0x20 ADD SWAP1 DUP2 MSTORE PUSH1 0x20 ADD PUSH0 KECCAK256 PUSH1 0x1 ADD SLOAD DUP7 PUSH2 0x197A SWAP2 SWAP1 PUSH2 0x396A JUMP JUMPDEST PUSH2 0x1984 SWAP2 SWAP1 PUSH2 0x39D8 JUMP JUMPDEST SWAP1 POP PUSH0 PUSH1 0x64 PUSH1 0xC PUSH0 PUSH1 0x4 DUP2 MSTORE PUSH1 0x20 ADD SWAP1 DUP2 MSTORE PUSH1 0x20 ADD PUSH0 KECCAK256 PUSH1 0x1 ADD SLOAD DUP8 PUSH2 0x19AA SWAP2 SWAP1 PUSH2 0x396A JUMP JUMPDEST PUSH2 0x19B4 SWAP2 SWAP1 PUSH2 0x39D8 JUMP JUMPDEST SWAP1 POP DUP4 PUSH1 0x8 PUSH0 DUP3 DUP3 SLOAD PUSH2 0x19C7 SWAP2 SWAP1 PUSH2 0x3AA1 JUMP JUMPDEST SWAP3 POP POP DUP2 SWAP1 SSTORE POP PUSH1 0x1 PUSH1 0xB PUSH0 CALLER PUSH20 0xFFFFFFFFFFFFFFFFFFFFFFFFFFFFFFFFFFFFFFFF AND PUSH20 0xFFFFFFFFFFFFFFFFFFFFFFFFFFFFFFFFFFFFFFFF AND DUP2 MSTORE PUSH1 0x20 ADD SWAP1 DUP2 MSTORE PUSH1 0x20 ADD PUSH0 KECCAK256 PUSH0 ADD PUSH1 0x1 PUSH2 0x100 EXP DUP2 SLOAD DUP2 PUSH1 0xFF MUL NOT AND SWAP1 DUP4 ISZERO ISZERO MUL OR SWAP1 SSTORE POP PUSH1 0xC PUSH0 PUSH1 0x2 DUP2 MSTORE PUSH1 0x20 ADD SWAP1 DUP2 MSTORE PUSH1 0x20 ADD PUSH0 KECCAK256 PUSH1 0x2 ADD SLOAD DUP4 PUSH1 0xC PUSH0 PUSH1 0x2 DUP2 MSTORE PUSH1 0x20 ADD SWAP1 DUP2 MSTORE PUSH1 0x20 ADD PUSH0 KECCAK256 PUSH1 0x3 ADD SLOAD PUSH2 0x1A5D SWAP2 SWAP1 PUSH2 0x3AA1 JUMP JUMPDEST LT ISZERO DUP1 ISZERO PUSH2 0x1A80 JUMPI POP PUSH0 PUSH1 0xC PUSH0 PUSH1 0x2 DUP2 MSTORE PUSH1 0x20 ADD SWAP1 DUP2 MSTORE PUSH1 0x20 ADD PUSH0 KECCAK256 PUSH1 0x2 ADD SLOAD EQ ISZERO JUMPDEST ISZERO PUSH2 0x1B7E JUMPI PUSH2 0x1AD1 PUSH1 0x7 PUSH0 SWAP1 SLOAD SWAP1 PUSH2 0x100 EXP SWAP1 DIV PUSH20 0xFFFFFFFFFFFFFFFFFFFFFFFFFFFFFFFFFFFFFFFF AND PUSH1 0x2 PUSH1 0xC PUSH0 PUSH1 0x2 DUP2 MSTORE PUSH1 0x20 ADD SWAP1 DUP2 MSTORE PUSH1 0x20 ADD PUSH0 KECCAK256 PUSH1 0x2 ADD SLOAD PUSH2 0x1ACC SWAP2 SWAP1 PUSH2 0x39D8 JUMP JUMPDEST PUSH2 0x32D3 JUMP JUMPDEST POP PUSH2 0x1B1E PUSH1 0x2 PUSH1 0xC PUSH0 PUSH1 0x2 DUP2 MSTORE PUSH1 0x20 ADD SWAP1 DUP2 MSTORE PUSH1 0x20 ADD PUSH0 KECCAK256 PUSH1 0x2 ADD SLOAD PUSH2 0x1AF7 SWAP2 SWAP1 PUSH2 0x39D8 JUMP JUMPDEST PUSH1 0x7 PUSH0 SWAP1 SLOAD SWAP1 PUSH2 0x100 EXP SWAP1 DIV PUSH20 0xFFFFFFFFFFFFFFFFFFFFFFFFFFFFFFFFFFFFFFFF AND PUSH2 0x13B7 JUMP JUMPDEST POP PUSH1 0xC PUSH0 PUSH1 0x2 DUP2 MSTORE PUSH1 0x20 ADD SWAP1 DUP2 MSTORE PUSH1 0x20 ADD PUSH0 KECCAK256 PUSH1 0x2 ADD SLOAD DUP4 PUSH1 0xC PUSH0 PUSH1 0x2 DUP2 MSTORE PUSH1 0x20 ADD SWAP1 DUP2 MSTORE PUSH1 0x20 ADD PUSH0 KECCAK256 PUSH1 0x3 ADD SLOAD PUSH2 0x1B56 SWAP2 SWAP1 PUSH2 0x3AA1 JUMP JUMPDEST PUSH2 0x1B60 SWAP2 SWAP1 PUSH2 0x3A08 JUMP JUMPDEST PUSH1 0xC PUSH0 PUSH1 0x2 DUP2 MSTORE PUSH1 0x20 ADD SWAP1 DUP2 MSTORE PUSH1 0x20 ADD PUSH0 KECCAK256 PUSH1 0x3 ADD DUP2 SWAP1 SSTORE POP PUSH2 0x1BAA JUMP JUMPDEST DUP3 PUSH1 0xC PUSH0 PUSH1 0x2 DUP2 MSTORE PUSH1 0x20 ADD SWAP1 DUP2 MSTORE PUSH1 0x20 ADD PUSH0 KECCAK256 PUSH1 0x3 ADD PUSH0 DUP3 DUP3 SLOAD PUSH2 0x1BA2 SWAP2 SWAP1 PUSH2 0x3AA1 JUMP JUMPDEST SWAP3 POP POP DUP2 SWAP1 SSTORE POP JUMPDEST PUSH1 0xC PUSH0 PUSH1 0x4 DUP2 MSTORE PUSH1 0x20 ADD SWAP1 DUP2 MSTORE PUSH1 0x20 ADD PUSH0 KECCAK256 PUSH1 0x2 ADD SLOAD DUP2 PUSH1 0xC PUSH0 PUSH1 0x4 DUP2 MSTORE PUSH1 0x20 ADD SWAP1 DUP2 MSTORE PUSH1 0x20 ADD PUSH0 KECCAK256 PUSH1 0x3 ADD SLOAD PUSH2 0x1BE1 SWAP2 SWAP1 PUSH2 0x3AA1 JUMP JUMPDEST LT ISZERO DUP1 ISZERO PUSH2 0x1BFB JUMPI POP PUSH1 0x6 PUSH1 0x14 SWAP1 SLOAD SWAP1 PUSH2 0x100 EXP SWAP1 DIV PUSH1 0xFF AND JUMPDEST DUP1 ISZERO PUSH2 0x1C1C JUMPI POP PUSH0 PUSH1 0xC PUSH0 PUSH1 0x4 DUP2 MSTORE PUSH1 0x20 ADD SWAP1 DUP2 MSTORE PUSH1 0x20 ADD PUSH0 KECCAK256 PUSH1 0x2 ADD SLOAD EQ ISZERO JUMPDEST ISZERO PUSH2 0x1CA0 JUMPI PUSH2 0x1C40 PUSH1 0xC PUSH0 PUSH1 0x4 DUP2 MSTORE PUSH1 0x20 ADD SWAP1 DUP2 MSTORE PUSH1 0x20 ADD PUSH0 KECCAK256 PUSH1 0x2 ADD SLOAD ADDRESS PUSH2 0x13B7 JUMP JUMPDEST POP PUSH1 0xC PUSH0 PUSH1 0x4 DUP2 MSTORE PUSH1 0x20 ADD SWAP1 DUP2 MSTORE PUSH1 0x20 ADD PUSH0 KECCAK256 PUSH1 0x2 ADD SLOAD DUP2 PUSH1 0xC PUSH0 PUSH1 0x4 DUP2 MSTORE PUSH1 0x20 ADD SWAP1 DUP2 MSTORE PUSH1 0x20 ADD PUSH0 KECCAK256 PUSH1 0x3 ADD SLOAD PUSH2 0x1C78 SWAP2 SWAP1 PUSH2 0x3AA1 JUMP JUMPDEST PUSH2 0x1C82 SWAP2 SWAP1 PUSH2 0x3A08 JUMP JUMPDEST PUSH1 0xC PUSH0 PUSH1 0x4 DUP2 MSTORE PUSH1 0x20 ADD SWAP1 DUP2 MSTORE PUSH1 0x20 ADD PUSH0 KECCAK256 PUSH1 0x3 ADD DUP2 SWAP1 SSTORE POP PUSH2 0x1CCC JUMP JUMPDEST DUP1 PUSH1 0xC PUSH0 PUSH1 0x4 DUP2 MSTORE PUSH1 0x20 ADD SWAP1 DUP2 MSTORE PUSH1 0x20 ADD PUSH0 KECCAK256 PUSH1 0x3 ADD PUSH0 DUP3 DUP3 SLOAD PUSH2 0x1CC4 SWAP2 SWAP1 PUSH2 0x3AA1 JUMP JUMPDEST SWAP3 POP POP DUP2 SWAP1 SSTORE POP JUMPDEST PUSH2 0x1CF7 PUSH1 0x6 PUSH0 SWAP1 SLOAD SWAP1 PUSH2 0x100 EXP SWAP1 DIV PUSH20 0xFFFFFFFFFFFFFFFFFFFFFFFFFFFFFFFFFFFFFFFF AND DUP6 PUSH2 0x32D3 JUMP JUMPDEST POP PUSH2 0x1D23 PUSH1 0x6 PUSH0 SWAP1 SLOAD SWAP1 PUSH2 0x100 EXP SWAP1 DIV PUSH20 0xFFFFFFFFFFFFFFFFFFFFFFFFFFFFFFFFFFFFFFFF AND DUP5 PUSH2 0x32D3 JUMP JUMPDEST POP PUSH2 0x1D2D DUP3 PUSH2 0x10C1 JUMP JUMPDEST PUSH2 0x1D58 PUSH1 0x6 PUSH0 SWAP1 SLOAD SWAP1 PUSH2 0x100 EXP SWAP1 DIV PUSH20 0xFFFFFFFFFFFFFFFFFFFFFFFFFFFFFFFFFFFFFFFF AND DUP3 PUSH2 0x32D3 JUMP JUMPDEST POP PUSH2 0x1D8F DUP8 DUP3 DUP5 DUP7 DUP9 PUSH2 0x1D6B SWAP2 SWAP1 PUSH2 0x3AA1 JUMP JUMPDEST PUSH2 0x1D75 SWAP2 SWAP1 PUSH2 0x3AA1 JUMP JUMPDEST PUSH2 0x1D7F SWAP2 SWAP1 PUSH2 0x3AA1 JUMP JUMPDEST DUP9 PUSH2 0x1D8A SWAP2 SWAP1 PUSH2 0x3A08 JUMP JUMPDEST PUSH2 0x32D3 JUMP JUMPDEST SWAP5 POP POP POP POP POP PUSH2 0x229B JUMP JUMPDEST PUSH1 0x7 PUSH0 SWAP1 SLOAD SWAP1 PUSH2 0x100 EXP SWAP1 DIV PUSH20 0xFFFFFFFFFFFFFFFFFFFFFFFFFFFFFFFFFFFFFFFF AND PUSH20 0xFFFFFFFFFFFFFFFFFFFFFFFFFFFFFFFFFFFFFFFF AND DUP4 PUSH20 0xFFFFFFFFFFFFFFFFFFFFFFFFFFFFFFFFFFFFFFFF AND SUB PUSH2 0x228E JUMPI PUSH0 PUSH1 0x64 PUSH1 0xC PUSH0 PUSH1 0x1 DUP2 MSTORE PUSH1 0x20 ADD SWAP1 DUP2 MSTORE PUSH1 0x20 ADD PUSH0 KECCAK256 PUSH0 ADD SLOAD DUP5 PUSH2 0x1E11 SWAP2 SWAP1 PUSH2 0x396A JUMP JUMPDEST PUSH2 0x1E1B SWAP2 SWAP1 PUSH2 0x39D8 JUMP JUMPDEST SWAP1 POP PUSH0 PUSH1 0x64 PUSH1 0xC PUSH0 PUSH1 0x2 DUP2 MSTORE PUSH1 0x20 ADD SWAP1 DUP2 MSTORE PUSH1 0x20 ADD PUSH0 KECCAK256 PUSH0 ADD SLOAD DUP6 PUSH2 0x1E40 SWAP2 SWAP1 PUSH2 0x396A JUMP JUMPDEST PUSH2 0x1E4A SWAP2 SWAP1 PUSH2 0x39D8 JUMP JUMPDEST SWAP1 POP PUSH0 PUSH1 0x64 PUSH1 0xC PUSH0 PUSH1 0x3 DUP2 MSTORE PUSH1 0x20 ADD SWAP1 DUP2 MSTORE PUSH1 0x20 ADD PUSH0 KECCAK256 PUSH0 ADD SLOAD DUP7 PUSH2 0x1E6F SWAP2 SWAP1 PUSH2 0x396A JUMP JUMPDEST PUSH2 0x1E79 SWAP2 SWAP1 PUSH2 0x39D8 JUMP JUMPDEST SWAP1 POP PUSH0 PUSH1 0x64 PUSH1 0xC PUSH0 PUSH1 0x4 DUP2 MSTORE PUSH1 0x20 ADD SWAP1 DUP2 MSTORE PUSH1 0x20 ADD PUSH0 KECCAK256 PUSH0 ADD SLOAD DUP8 PUSH2 0x1E9E SWAP2 SWAP1 PUSH2 0x396A JUMP JUMPDEST PUSH2 0x1EA8 SWAP2 SWAP1 PUSH2 0x39D8 JUMP JUMPDEST SWAP1 POP DUP4 PUSH1 0x8 PUSH0 DUP3 DUP3 SLOAD PUSH2 0x1EBB SWAP2 SWAP1 PUSH2 0x3AA1 JUMP JUMPDEST SWAP3 POP POP DUP2 SWAP1 SSTORE POP PUSH1 0x1 PUSH1 0xB PUSH0 CALLER PUSH20 0xFFFFFFFFFFFFFFFFFFFFFFFFFFFFFFFFFFFFFFFF AND PUSH20 0xFFFFFFFFFFFFFFFFFFFFFFFFFFFFFFFFFFFFFFFF AND DUP2 MSTORE PUSH1 0x20 ADD SWAP1 DUP2 MSTORE PUSH1 0x20 ADD PUSH0 KECCAK256 PUSH0 ADD PUSH1 0x1 PUSH2 0x100 EXP DUP2 SLOAD DUP2 PUSH1 0xFF MUL NOT AND SWAP1 DUP4 ISZERO ISZERO MUL OR SWAP1 SSTORE POP PUSH1 0xC PUSH0 PUSH1 0x2 DUP2 MSTORE PUSH1 0x20 ADD SWAP1 DUP2 MSTORE PUSH1 0x20 ADD PUSH0 KECCAK256 PUSH1 0x2 ADD SLOAD DUP4 PUSH1 0xC PUSH0 PUSH1 0x2 DUP2 MSTORE PUSH1 0x20 ADD SWAP1 DUP2 MSTORE PUSH1 0x20 ADD PUSH0 KECCAK256 PUSH1 0x3 ADD SLOAD PUSH2 0x1F51 SWAP2 SWAP1 PUSH2 0x3AA1 JUMP JUMPDEST LT ISZERO DUP1 ISZERO PUSH2 0x1F74 JUMPI POP PUSH0 PUSH1 0xC PUSH0 PUSH1 0x2 DUP2 MSTORE PUSH1 0x20 ADD SWAP1 DUP2 MSTORE PUSH1 0x20 ADD PUSH0 KECCAK256 PUSH1 0x2 ADD SLOAD EQ ISZERO JUMPDEST ISZERO PUSH2 0x2072 JUMPI PUSH2 0x1FC5 PUSH1 0x7 PUSH0 SWAP1 SLOAD SWAP1 PUSH2 0x100 EXP SWAP1 DIV PUSH20 0xFFFFFFFFFFFFFFFFFFFFFFFFFFFFFFFFFFFFFFFF AND PUSH1 0x2 PUSH1 0xC PUSH0 PUSH1 0x2 DUP2 MSTORE PUSH1 0x20 ADD SWAP1 DUP2 MSTORE PUSH1 0x20 ADD PUSH0 KECCAK256 PUSH1 0x2 ADD SLOAD PUSH2 0x1FC0 SWAP2 SWAP1 PUSH2 0x39D8 JUMP JUMPDEST PUSH2 0x32D3 JUMP JUMPDEST POP PUSH2 0x2012 PUSH1 0x2 PUSH1 0xC PUSH0 PUSH1 0x2 DUP2 MSTORE PUSH1 0x20 ADD SWAP1 DUP2 MSTORE PUSH1 0x20 ADD PUSH0 KECCAK256 PUSH1 0x2 ADD SLOAD PUSH2 0x1FEB SWAP2 SWAP1 PUSH2 0x39D8 JUMP JUMPDEST PUSH1 0x7 PUSH0 SWAP1 SLOAD SWAP1 PUSH2 0x100 EXP SWAP1 DIV PUSH20 0xFFFFFFFFFFFFFFFFFFFFFFFFFFFFFFFFFFFFFFFF AND PUSH2 0x13B7 JUMP JUMPDEST POP PUSH1 0xC PUSH0 PUSH1 0x2 DUP2 MSTORE PUSH1 0x20 ADD SWAP1 DUP2 MSTORE PUSH1 0x20 ADD PUSH0 KECCAK256 PUSH1 0x2 ADD SLOAD DUP4 PUSH1 0xC PUSH0 PUSH1 0x2 DUP2 MSTORE PUSH1 0x20 ADD SWAP1 DUP2 MSTORE PUSH1 0x20 ADD PUSH0 KECCAK256 PUSH1 0x3 ADD SLOAD PUSH2 0x204A SWAP2 SWAP1 PUSH2 0x3AA1 JUMP JUMPDEST PUSH2 0x2054 SWAP2 SWAP1 PUSH2 0x3A08 JUMP JUMPDEST PUSH1 0xC PUSH0 PUSH1 0x2 DUP2 MSTORE PUSH1 0x20 ADD SWAP1 DUP2 MSTORE PUSH1 0x20 ADD PUSH0 KECCAK256 PUSH1 0x3 ADD DUP2 SWAP1 SSTORE POP PUSH2 0x209E JUMP JUMPDEST DUP3 PUSH1 0xC PUSH0 PUSH1 0x2 DUP2 MSTORE PUSH1 0x20 ADD SWAP1 DUP2 MSTORE PUSH1 0x20 ADD PUSH0 KECCAK256 PUSH1 0x3 ADD PUSH0 DUP3 DUP3 SLOAD PUSH2 0x2096 SWAP2 SWAP1 PUSH2 0x3AA1 JUMP JUMPDEST SWAP3 POP POP DUP2 SWAP1 SSTORE POP JUMPDEST PUSH1 0xC PUSH0 PUSH1 0x4 DUP2 MSTORE PUSH1 0x20 ADD SWAP1 DUP2 MSTORE PUSH1 0x20 ADD PUSH0 KECCAK256 PUSH1 0x2 ADD SLOAD DUP2 PUSH1 0xC PUSH0 PUSH1 0x4 DUP2 MSTORE PUSH1 0x20 ADD SWAP1 DUP2 MSTORE PUSH1 0x20 ADD PUSH0 KECCAK256 PUSH1 0x3 ADD SLOAD PUSH2 0x20D5 SWAP2 SWAP1 PUSH2 0x3AA1 JUMP JUMPDEST LT ISZERO DUP1 ISZERO PUSH2 0x20EF JUMPI POP PUSH1 0x6 PUSH1 0x14 SWAP1 SLOAD SWAP1 PUSH2 0x100 EXP SWAP1 DIV PUSH1 0xFF AND JUMPDEST DUP1 ISZERO PUSH2 0x2110 JUMPI POP PUSH0 PUSH1 0xC PUSH0 PUSH1 0x4 DUP2 MSTORE PUSH1 0x20 ADD SWAP1 DUP2 MSTORE PUSH1 0x20 ADD PUSH0 KECCAK256 PUSH1 0x2 ADD SLOAD EQ ISZERO JUMPDEST ISZERO PUSH2 0x2194 JUMPI PUSH2 0x2134 PUSH1 0xC PUSH0 PUSH1 0x4 DUP2 MSTORE PUSH1 0x20 ADD SWAP1 DUP2 MSTORE PUSH1 0x20 ADD PUSH0 KECCAK256 PUSH1 0x2 ADD SLOAD ADDRESS PUSH2 0x13B7 JUMP JUMPDEST POP PUSH1 0xC PUSH0 PUSH1 0x4 DUP2 MSTORE PUSH1 0x20 ADD SWAP1 DUP2 MSTORE PUSH1 0x20 ADD PUSH0 KECCAK256 PUSH1 0x2 ADD SLOAD DUP2 PUSH1 0xC PUSH0 PUSH1 0x4 DUP2 MSTORE PUSH1 0x20 ADD SWAP1 DUP2 MSTORE PUSH1 0x20 ADD PUSH0 KECCAK256 PUSH1 0x3 ADD SLOAD PUSH2 0x216C SWAP2 SWAP1 PUSH2 0x3AA1 JUMP JUMPDEST PUSH2 0x2176 SWAP2 SWAP1 PUSH2 0x3A08 JUMP JUMPDEST PUSH1 0xC PUSH0 PUSH1 0x4 DUP2 MSTORE PUSH1 0x20 ADD SWAP1 DUP2 MSTORE PUSH1 0x20 ADD PUSH0 KECCAK256 PUSH1 0x3 ADD DUP2 SWAP1 SSTORE POP PUSH2 0x21C0 JUMP JUMPDEST DUP1 PUSH1 0xC PUSH0 PUSH1 0x4 DUP2 MSTORE PUSH1 0x20 ADD SWAP1 DUP2 MSTORE PUSH1 0x20 ADD PUSH0 KECCAK256 PUSH1 0x3 ADD PUSH0 DUP3 DUP3 SLOAD PUSH2 0x21B8 SWAP2 SWAP1 PUSH2 0x3AA1 JUMP JUMPDEST SWAP3 POP POP DUP2 SWAP1 SSTORE POP JUMPDEST PUSH2 0x21EB PUSH1 0x6 PUSH0 SWAP1 SLOAD SWAP1 PUSH2 0x100 EXP SWAP1 DIV PUSH20 0xFFFFFFFFFFFFFFFFFFFFFFFFFFFFFFFFFFFFFFFF AND DUP6 PUSH2 0x32D3 JUMP JUMPDEST POP PUSH2 0x2217 PUSH1 0x6 PUSH0 SWAP1 SLOAD SWAP1 PUSH2 0x100 EXP SWAP1 DIV PUSH20 0xFFFFFFFFFFFFFFFFFFFFFFFFFFFFFFFFFFFFFFFF AND DUP5 PUSH2 0x32D3 JUMP JUMPDEST POP PUSH2 0x2221 DUP3 PUSH2 0x10C1 JUMP JUMPDEST PUSH2 0x224C PUSH1 0x6 PUSH0 SWAP1 SLOAD SWAP1 PUSH2 0x100 EXP SWAP1 DIV PUSH20 0xFFFFFFFFFFFFFFFFFFFFFFFFFFFFFFFFFFFFFFFF AND DUP3 PUSH2 0x32D3 JUMP JUMPDEST POP PUSH2 0x2283 DUP8 DUP3 DUP5 DUP7 DUP9 PUSH2 0x225F SWAP2 SWAP1 PUSH2 0x3AA1 JUMP JUMPDEST PUSH2 0x2269 SWAP2 SWAP1 PUSH2 0x3AA1 JUMP JUMPDEST PUSH2 0x2273 SWAP2 SWAP1 PUSH2 0x3AA1 JUMP JUMPDEST DUP9 PUSH2 0x227E SWAP2 SWAP1 PUSH2 0x3A08 JUMP JUMPDEST PUSH2 0x32D3 JUMP JUMPDEST SWAP5 POP POP POP POP POP PUSH2 0x229B JUMP JUMPDEST PUSH2 0x2298 DUP4 DUP4 PUSH2 0x32D3 JUMP JUMPDEST SWAP1 POP JUMPDEST SWAP3 SWAP2 POP POP JUMP JUMPDEST PUSH2 0x22A9 PUSH2 0x2B0E JUMP JUMPDEST PUSH1 0xF DUP2 PUSH1 0xC PUSH0 PUSH1 0x3 DUP2 MSTORE PUSH1 0x20 ADD SWAP1 DUP2 MSTORE PUSH1 0x20 ADD PUSH0 KECCAK256 PUSH0 ADD SLOAD PUSH1 0xC PUSH0 PUSH1 0x2 DUP2 MSTORE PUSH1 0x20 ADD SWAP1 DUP2 MSTORE PUSH1 0x20 ADD PUSH0 KECCAK256 PUSH0 ADD SLOAD PUSH1 0xC PUSH0 PUSH1 0x1 DUP2 MSTORE PUSH1 0x20 ADD SWAP1 DUP2 MSTORE PUSH1 0x20 ADD PUSH0 KECCAK256 PUSH0 ADD SLOAD PUSH1 0xC PUSH0 PUSH1 0x4 DUP2 MSTORE PUSH1 0x20 ADD SWAP1 DUP2 MSTORE PUSH1 0x20 ADD PUSH0 KECCAK256 PUSH1 0x1 ADD SLOAD PUSH1 0xC PUSH0 PUSH1 0x3 DUP2 MSTORE PUSH1 0x20 ADD SWAP1 DUP2 MSTORE PUSH1 0x20 ADD PUSH0 KECCAK256 PUSH1 0x1 ADD SLOAD PUSH1 0xC PUSH0 PUSH1 0x2 DUP2 MSTORE PUSH1 0x20 ADD SWAP1 DUP2 MSTORE PUSH1 0x20 ADD PUSH0 KECCAK256 PUSH1 0x1 ADD SLOAD PUSH1 0xC PUSH0 PUSH1 0x1 DUP2 MSTORE PUSH1 0x20 ADD SWAP1 DUP2 MSTORE PUSH1 0x20 ADD PUSH0 KECCAK256 PUSH1 0x1 ADD SLOAD PUSH2 0x234D SWAP2 SWAP1 PUSH2 0x3AA1 JUMP JUMPDEST PUSH2 0x2357 SWAP2 SWAP1 PUSH2 0x3AA1 JUMP JUMPDEST PUSH2 0x2361 SWAP2 SWAP1 PUSH2 0x3AA1 JUMP JUMPDEST PUSH2 0x236B SWAP2 SWAP1 PUSH2 0x3AA1 JUMP JUMPDEST PUSH2 0x2375 SWAP2 SWAP1 PUSH2 0x3AA1 JUMP JUMPDEST PUSH2 0x237F SWAP2 SWAP1 PUSH2 0x3AA1 JUMP JUMPDEST PUSH2 0x2389 SWAP2 SWAP1 PUSH2 0x3AA1 JUMP JUMPDEST GT ISZERO PUSH2 0x23CA JUMPI PUSH1 0x40 MLOAD PUSH32 0x8C379A000000000000000000000000000000000000000000000000000000000 DUP2 MSTORE PUSH1 0x4 ADD PUSH2 0x23C1 SWAP1 PUSH2 0x3B44 JUMP JUMPDEST PUSH1 0x40 MLOAD DUP1 SWAP2 SUB SWAP1 REVERT JUMPDEST DUP1 PUSH1 0xC PUSH0 PUSH1 0x4 DUP2 MSTORE PUSH1 0x20 ADD SWAP1 DUP2 MSTORE PUSH1 0x20 ADD PUSH0 KECCAK256 PUSH0 ADD DUP2 SWAP1 SSTORE POP POP JUMP JUMPDEST PUSH1 0xB PUSH1 0x20 MSTORE DUP1 PUSH0 MSTORE PUSH1 0x40 PUSH0 KECCAK256 PUSH0 SWAP2 POP SWAP1 POP DUP1 PUSH0 ADD PUSH0 SWAP1 SLOAD SWAP1 PUSH2 0x100 EXP SWAP1 DIV PUSH1 0xFF AND SWAP1 DUP1 PUSH0 ADD PUSH1 0x1 SWAP1 SLOAD SWAP1 PUSH2 0x100 EXP SWAP1 DIV PUSH1 0xFF AND SWAP1 POP DUP3 JUMP JUMPDEST PUSH2 0x2426 PUSH2 0x2B0E JUMP JUMPDEST PUSH1 0xE PUSH0 SWAP1 SLOAD SWAP1 PUSH2 0x100 EXP SWAP1 DIV PUSH20 0xFFFFFFFFFFFFFFFFFFFFFFFFFFFFFFFFFFFFFFFF AND PUSH20 0xFFFFFFFFFFFFFFFFFFFFFFFFFFFFFFFFFFFFFFFF AND PUSH4 0xA9059CBB DUP4 DUP4 PUSH1 0x40 MLOAD DUP4 PUSH4 0xFFFFFFFF AND PUSH1 0xE0 SHL DUP2 MSTORE PUSH1 0x4 ADD PUSH2 0x2482 SWAP3 SWAP2 SWAP1 PUSH2 0x3A3B JUMP JUMPDEST PUSH1 0x20 PUSH1 0x40 MLOAD DUP1 DUP4 SUB DUP2 PUSH0 DUP8 GAS CALL ISZERO DUP1 ISZERO PUSH2 0x249E JUMPI RETURNDATASIZE PUSH0 DUP1 RETURNDATACOPY RETURNDATASIZE PUSH0 REVERT JUMPDEST POP POP POP POP PUSH1 0x40 MLOAD RETURNDATASIZE PUSH1 0x1F NOT PUSH1 0x1F DUP3 ADD AND DUP3 ADD DUP1 PUSH1 0x40 MSTORE POP DUP2 ADD SWAP1 PUSH2 0x24C2 SWAP2 SWAP1 PUSH2 0x3A76 JUMP JUMPDEST POP POP POP JUMP JUMPDEST PUSH32 0x0 DUP2 JUMP JUMPDEST PUSH2 0x24F3 PUSH2 0x2B0E JUMP JUMPDEST PUSH1 0xF DUP2 PUSH1 0xC PUSH0 PUSH1 0x4 DUP2 MSTORE PUSH1 0x20 ADD SWAP1 DUP2 MSTORE PUSH1 0x20 ADD PUSH0 KECCAK256 PUSH0 ADD SLOAD PUSH1 0xC PUSH0 PUSH1 0x3 DUP2 MSTORE PUSH1 0x20 ADD SWAP1 DUP2 MSTORE PUSH1 0x20 ADD PUSH0 KECCAK256 PUSH0 ADD SLOAD PUSH1 0xC PUSH0 PUSH1 0x2 DUP2 MSTORE PUSH1 0x20 ADD SWAP1 DUP2 MSTORE PUSH1 0x20 ADD PUSH0 KECCAK256 PUSH0 ADD SLOAD PUSH1 0xC PUSH0 PUSH1 0x1 DUP2 MSTORE PUSH1 0x20 ADD SWAP1 DUP2 MSTORE PUSH1 0x20 ADD PUSH0 KECCAK256 PUSH0 ADD SLOAD PUSH1 0xC PUSH0 PUSH1 0x3 DUP2 MSTORE PUSH1 0x20 ADD SWAP1 DUP2 MSTORE PUSH1 0x20 ADD PUSH0 KECCAK256 PUSH1 0x1 ADD SLOAD PUSH1 0xC PUSH0 PUSH1 0x2 DUP2 MSTORE PUSH1 0x20 ADD SWAP1 DUP2 MSTORE PUSH1 0x20 ADD PUSH0 KECCAK256 PUSH1 0x1 ADD SLOAD PUSH1 0xC PUSH0 PUSH1 0x1 DUP2 MSTORE PUSH1 0x20 ADD SWAP1 DUP2 MSTORE PUSH1 0x20 ADD PUSH0 KECCAK256 PUSH1 0x1 ADD SLOAD PUSH2 0x2596 SWAP2 SWAP1 PUSH2 0x3AA1 JUMP JUMPDEST PUSH2 0x25A0 SWAP2 SWAP1 PUSH2 0x3AA1 JUMP JUMPDEST PUSH2 0x25AA SWAP2 SWAP1 PUSH2 0x3AA1 JUMP JUMPDEST PUSH2 0x25B4 SWAP2 SWAP1 PUSH2 0x3AA1 JUMP JUMPDEST PUSH2 0x25BE SWAP2 SWAP1 PUSH2 0x3AA1 JUMP JUMPDEST PUSH2 0x25C8 SWAP2 SWAP1 PUSH2 0x3AA1 JUMP JUMPDEST PUSH2 0x25D2 SWAP2 SWAP1 PUSH2 0x3AA1 JUMP JUMPDEST GT ISZERO PUSH2 0x2613 JUMPI PUSH1 0x40 MLOAD PUSH32 0x8C379A000000000000000000000000000000000000000000000000000000000 DUP2 MSTORE PUSH1 0x4 ADD PUSH2 0x260A SWAP1 PUSH2 0x3B44 JUMP JUMPDEST PUSH1 0x40 MLOAD DUP1 SWAP2 SUB SWAP1 REVERT JUMPDEST DUP1 PUSH1 0xC PUSH0 PUSH1 0x4 DUP2 MSTORE PUSH1 0x20 ADD SWAP1 DUP2 MSTORE PUSH1 0x20 ADD PUSH0 KECCAK256 PUSH1 0x1 ADD DUP2 SWAP1 SSTORE POP POP JUMP JUMPDEST PUSH2 0x2638 PUSH2 0x2B0E JUMP JUMPDEST DUP3 PUSH1 0x7 PUSH0 PUSH2 0x100 EXP DUP2 SLOAD DUP2 PUSH20 0xFFFFFFFFFFFFFFFFFFFFFFFFFFFFFFFFFFFFFFFF MUL NOT AND SWAP1 DUP4 PUSH20 0xFFFFFFFFFFFFFFFFFFFFFFFFFFFFFFFFFFFFFFFF AND MUL OR SWAP1 SSTORE POP DUP2 PUSH1 0xE PUSH0 PUSH2 0x100 EXP DUP2 SLOAD DUP2 PUSH20 0xFFFFFFFFFFFFFFFFFFFFFFFFFFFFFFFFFFFFFFFF MUL NOT AND SWAP1 DUP4 PUSH20 0xFFFFFFFFFFFFFFFFFFFFFFFFFFFFFFFFFFFFFFFF AND MUL OR SWAP1 SSTORE POP DUP2 PUSH1 0x9 PUSH1 0x3 PUSH2 0x100 EXP DUP2 SLOAD DUP2 PUSH20 0xFFFFFFFFFFFFFFFFFFFFFFFFFFFFFFFFFFFFFFFF MUL NOT AND SWAP1 DUP4 PUSH20 0xFFFFFFFFFFFFFFFFFFFFFFFFFFFFFFFFFFFFFFFF AND MUL OR SWAP1 SSTORE POP DUP1 PUSH1 0x9 PUSH0 PUSH2 0x100 EXP DUP2 SLOAD DUP2 PUSH3 0xFFFFFF MUL NOT AND SWAP1 DUP4 PUSH3 0xFFFFFF AND MUL OR SWAP1 SSTORE POP POP POP POP JUMP JUMPDEST PUSH1 0xC PUSH1 0x20 MSTORE DUP1 PUSH0 MSTORE PUSH1 0x40 PUSH0 KECCAK256 PUSH0 SWAP2 POP SWAP1 POP DUP1 PUSH0 ADD SLOAD SWAP1 DUP1 PUSH1 0x1 ADD SLOAD SWAP1 DUP1 PUSH1 0x2 ADD SLOAD SWAP1 DUP1 PUSH1 0x3 ADD SLOAD SWAP1 POP DUP5 JUMP JUMPDEST PUSH0 PUSH1 0x1 PUSH0 DUP5 PUSH20 0xFFFFFFFFFFFFFFFFFFFFFFFFFFFFFFFFFFFFFFFF AND PUSH20 0xFFFFFFFFFFFFFFFFFFFFFFFFFFFFFFFFFFFFFFFF AND DUP2 MSTORE PUSH1 0x20 ADD SWAP1 DUP2 MSTORE PUSH1 0x20 ADD PUSH0 KECCAK256 PUSH0 DUP4 PUSH20 0xFFFFFFFFFFFFFFFFFFFFFFFFFFFFFFFFFFFFFFFF AND PUSH20 0xFFFFFFFFFFFFFFFFFFFFFFFFFFFFFFFFFFFFFFFF AND DUP2 MSTORE PUSH1 0x20 ADD SWAP1 DUP2 MSTORE PUSH1 0x20 ADD PUSH0 KECCAK256 SLOAD SWAP1 POP SWAP3 SWAP2 POP POP JUMP JUMPDEST PUSH1 0x6 PUSH1 0x14 SWAP1 SLOAD SWAP1 PUSH2 0x100 EXP SWAP1 DIV PUSH1 0xFF AND DUP2 JUMP JUMPDEST PUSH2 0x27E5 PUSH2 0x2B0E JUMP JUMPDEST DUP1 PUSH1 0xC PUSH0 PUSH1 0x2 DUP2 MSTORE PUSH1 0x20 ADD SWAP1 DUP2 MSTORE PUSH1 0x20 ADD PUSH0 KECCAK256 PUSH1 0x2 ADD DUP2 SWAP1 SSTORE POP POP JUMP JUMPDEST PUSH2 0x280A PUSH2 0x2B0E JUMP JUMPDEST PUSH1 0xF DUP2 PUSH1 0xC PUSH0 PUSH1 0x4 DUP2 MSTORE PUSH1 0x20 ADD SWAP1 DUP2 MSTORE PUSH1 0x20 ADD PUSH0 KECCAK256 PUSH0 ADD SLOAD PUSH1 0xC PUSH0 PUSH1 0x3 DUP2 MSTORE PUSH1 0x20 ADD SWAP1 DUP2 MSTORE PUSH1 0x20 ADD PUSH0 KECCAK256 PUSH0 ADD SLOAD PUSH1 0xC PUSH0 PUSH1 0x2 DUP2 MSTORE PUSH1 0x20 ADD SWAP1 DUP2 MSTORE PUSH1 0x20 ADD PUSH0 KECCAK256 PUSH0 ADD SLOAD PUSH1 0xC PUSH0 PUSH1 0x1 DUP2 MSTORE PUSH1 0x20 ADD SWAP1 DUP2 MSTORE PUSH1 0x20 ADD PUSH0 KECCAK256 PUSH0 ADD SLOAD PUSH1 0xC PUSH0 PUSH1 0x4 DUP2 MSTORE PUSH1 0x20 ADD SWAP1 DUP2 MSTORE PUSH1 0x20 ADD PUSH0 KECCAK256 PUSH1 0x1 ADD SLOAD PUSH1 0xC PUSH0 PUSH1 0x2 DUP2 MSTORE PUSH1 0x20 ADD SWAP1 DUP2 MSTORE PUSH1 0x20 ADD PUSH0 KECCAK256 PUSH1 0x1 ADD SLOAD PUSH1 0xC PUSH0 PUSH1 0x1 DUP2 MSTORE PUSH1 0x20 ADD SWAP1 DUP2 MSTORE PUSH1 0x20 ADD PUSH0 KECCAK256 PUSH1 0x1 ADD SLOAD PUSH2 0x28AD SWAP2 SWAP1 PUSH2 0x3AA1 JUMP JUMPDEST PUSH2 0x28B7 SWAP2 SWAP1 PUSH2 0x3AA1 JUMP JUMPDEST PUSH2 0x28C1 SWAP2 SWAP1 PUSH2 0x3AA1 JUMP JUMPDEST PUSH2 0x28CB SWAP2 SWAP1 PUSH2 0x3AA1 JUMP JUMPDEST PUSH2 0x28D5 SWAP2 SWAP1 PUSH2 0x3AA1 JUMP JUMPDEST PUSH2 0x28DF SWAP2 SWAP1 PUSH2 0x3AA1 JUMP JUMPDEST PUSH2 0x28E9 SWAP2 SWAP1 PUSH2 0x3AA1 JUMP JUMPDEST GT ISZERO PUSH2 0x292A JUMPI PUSH1 0x40 MLOAD PUSH32 0x8C379A000000000000000000000000000000000000000000000000000000000 DUP2 MSTORE PUSH1 0x4 ADD PUSH2 0x2921 SWAP1 PUSH2 0x3B44 JUMP JUMPDEST PUSH1 0x40 MLOAD DUP1 SWAP2 SUB SWAP1 REVERT JUMPDEST DUP1 PUSH1 0xC PUSH0 PUSH1 0x3 DUP2 MSTORE PUSH1 0x20 ADD SWAP1 DUP2 MSTORE PUSH1 0x20 ADD PUSH0 KECCAK256 PUSH1 0x1 ADD DUP2 SWAP1 SSTORE POP POP JUMP JUMPDEST PUSH2 0x294F PUSH2 0x2B0E JUMP JUMPDEST PUSH1 0xF DUP2 PUSH1 0xC PUSH0 PUSH1 0x4 DUP2 MSTORE PUSH1 0x20 ADD SWAP1 DUP2 MSTORE PUSH1 0x20 ADD PUSH0 KECCAK256 PUSH0 ADD SLOAD PUSH1 0xC PUSH0 PUSH1 0x2 DUP2 MSTORE PUSH1 0x20 ADD SWAP1 DUP2 MSTORE PUSH1 0x20 ADD PUSH0 KECCAK256 PUSH0 ADD SLOAD PUSH1 0xC PUSH0 PUSH1 0x1 DUP2 MSTORE PUSH1 0x20 ADD SWAP1 DUP2 MSTORE PUSH1 0x20 ADD PUSH0 KECCAK256 PUSH0 ADD SLOAD PUSH1 0xC PUSH0 PUSH1 0x4 DUP2 MSTORE PUSH1 0x20 ADD SWAP1 DUP2 MSTORE PUSH1 0x20 ADD PUSH0 KECCAK256 PUSH1 0x1 ADD SLOAD PUSH1 0xC PUSH0 PUSH1 0x3 DUP2 MSTORE PUSH1 0x20 ADD SWAP1 DUP2 MSTORE PUSH1 0x20 ADD PUSH0 KECCAK256 PUSH1 0x1 ADD SLOAD PUSH1 0xC PUSH0 PUSH1 0x2 DUP2 MSTORE PUSH1 0x20 ADD SWAP1 DUP2 MSTORE PUSH1 0x20 ADD PUSH0 KECCAK256 PUSH1 0x1 ADD SLOAD PUSH1 0xC PUSH0 PUSH1 0x1 DUP2 MSTORE PUSH1 0x20 ADD SWAP1 DUP2 MSTORE PUSH1 0x20 ADD PUSH0 KECCAK256 PUSH1 0x1 ADD SLOAD PUSH2 0x29F3 SWAP2 SWAP1 PUSH2 0x3AA1 JUMP JUMPDEST PUSH2 0x29FD SWAP2 SWAP1 PUSH2 0x3AA1 JUMP JUMPDEST PUSH2 0x2A07 SWAP2 SWAP1 PUSH2 0x3AA1 JUMP JUMPDEST PUSH2 0x2A11 SWAP2 SWAP1 PUSH2 0x3AA1 JUMP JUMPDEST PUSH2 0x2A1B SWAP2 SWAP1 PUSH2 0x3AA1 JUMP JUMPDEST PUSH2 0x2A25 SWAP2 SWAP1 PUSH2 0x3AA1 JUMP JUMPDEST PUSH2 0x2A2F SWAP2 SWAP1 PUSH2 0x3AA1 JUMP JUMPDEST GT ISZERO PUSH2 0x2A70 JUMPI PUSH1 0x40 MLOAD PUSH32 0x8C379A000000000000000000000000000000000000000000000000000000000 DUP2 MSTORE PUSH1 0x4 ADD PUSH2 0x2A67 SWAP1 PUSH2 0x3B44 JUMP JUMPDEST PUSH1 0x40 MLOAD DUP1 SWAP2 SUB SWAP1 REVERT JUMPDEST DUP1 PUSH1 0xC PUSH0 PUSH1 0x3 DUP2 MSTORE PUSH1 0x20 ADD SWAP1 DUP2 MSTORE PUSH1 0x20 ADD PUSH0 KECCAK256 PUSH0 ADD DUP2 SWAP1 SSTORE POP POP JUMP JUMPDEST PUSH2 0x2A94 PUSH2 0x2B0E JUMP JUMPDEST PUSH0 PUSH20 0xFFFFFFFFFFFFFFFFFFFFFFFFFFFFFFFFFFFFFFFF AND DUP2 PUSH20 0xFFFFFFFFFFFFFFFFFFFFFFFFFFFFFFFFFFFFFFFF AND SUB PUSH2 0x2B02 JUMPI PUSH1 0x40 MLOAD PUSH32 0x8C379A000000000000000000000000000000000000000000000000000000000 DUP2 MSTORE PUSH1 0x4 ADD PUSH2 0x2AF9 SWAP1 PUSH2 0x3DF2 JUMP JUMPDEST PUSH1 0x40 MLOAD DUP1 SWAP2 SUB SWAP1 REVERT JUMPDEST PUSH2 0x2B0B DUP2 PUSH2 0x3210 JUMP JUMPDEST POP JUMP JUMPDEST PUSH2 0x2B16 PUSH2 0x2B8C JUMP JUMPDEST PUSH20 0xFFFFFFFFFFFFFFFFFFFFFFFFFFFFFFFFFFFFFFFF AND PUSH2 0x2B34 PUSH2 0x16C9 JUMP JUMPDEST PUSH20 0xFFFFFFFFFFFFFFFFFFFFFFFFFFFFFFFFFFFFFFFF AND EQ PUSH2 0x2B8A JUMPI PUSH1 0x40 MLOAD PUSH32 0x8C379A000000000000000000000000000000000000000000000000000000000 DUP2 MSTORE PUSH1 0x4 ADD PUSH2 0x2B81 SWAP1 PUSH2 0x3E5A JUMP JUMPDEST PUSH1 0x40 MLOAD DUP1 SWAP2 SUB SWAP1 REVERT JUMPDEST JUMP JUMPDEST PUSH0 CALLER SWAP1 POP SWAP1 JUMP JUMPDEST PUSH0 PUSH20 0xFFFFFFFFFFFFFFFFFFFFFFFFFFFFFFFFFFFFFFFF AND DUP4 PUSH20 0xFFFFFFFFFFFFFFFFFFFFFFFFFFFFFFFFFFFFFFFF AND SUB PUSH2 0x2C01 JUMPI PUSH1 0x40 MLOAD PUSH32 0x8C379A000000000000000000000000000000000000000000000000000000000 DUP2 MSTORE PUSH1 0x4 ADD PUSH2 0x2BF8 SWAP1 PUSH2 0x3EE8 JUMP JUMPDEST PUSH1 0x40 MLOAD DUP1 SWAP2 SUB SWAP1 REVERT JUMPDEST PUSH0 PUSH20 0xFFFFFFFFFFFFFFFFFFFFFFFFFFFFFFFFFFFFFFFF AND DUP3 PUSH20 0xFFFFFFFFFFFFFFFFFFFFFFFFFFFFFFFFFFFFFFFF AND SUB PUSH2 0x2C6F JUMPI PUSH1 0x40 MLOAD PUSH32 0x8C379A000000000000000000000000000000000000000000000000000000000 DUP2 MSTORE PUSH1 0x4 ADD PUSH2 0x2C66 SWAP1 PUSH2 0x3F76 JUMP JUMPDEST PUSH1 0x40 MLOAD DUP1 SWAP2 SUB SWAP1 REVERT JUMPDEST DUP1 PUSH1 0x1 PUSH0 DUP6 PUSH20 0xFFFFFFFFFFFFFFFFFFFFFFFFFFFFFFFFFFFFFFFF AND PUSH20 0xFFFFFFFFFFFFFFFFFFFFFFFFFFFFFFFFFFFFFFFF AND DUP2 MSTORE PUSH1 0x20 ADD SWAP1 DUP2 MSTORE PUSH1 0x20 ADD PUSH0 KECCAK256 PUSH0 DUP5 PUSH20 0xFFFFFFFFFFFFFFFFFFFFFFFFFFFFFFFFFFFFFFFF AND PUSH20 0xFFFFFFFFFFFFFFFFFFFFFFFFFFFFFFFFFFFFFFFF AND DUP2 MSTORE PUSH1 0x20 ADD SWAP1 DUP2 MSTORE PUSH1 0x20 ADD PUSH0 KECCAK256 DUP2 SWAP1 SSTORE POP DUP2 PUSH20 0xFFFFFFFFFFFFFFFFFFFFFFFFFFFFFFFFFFFFFFFF AND DUP4 PUSH20 0xFFFFFFFFFFFFFFFFFFFFFFFFFFFFFFFFFFFFFFFF AND PUSH32 0x8C5BE1E5EBEC7D5BD14F71427D1E84F3DD0314C0F7B2291E5B200AC8C7C3B925 DUP4 PUSH1 0x40 MLOAD PUSH2 0x2D49 SWAP2 SWAP1 PUSH2 0x356E JUMP JUMPDEST PUSH1 0x40 MLOAD DUP1 SWAP2 SUB SWAP1 LOG3 POP POP POP JUMP JUMPDEST PUSH0 PUSH2 0x2D61 DUP5 DUP5 PUSH2 0x2748 JUMP JUMPDEST SWAP1 POP PUSH32 0xFFFFFFFFFFFFFFFFFFFFFFFFFFFFFFFFFFFFFFFFFFFFFFFFFFFFFFFFFFFFFFFF DUP2 EQ PUSH2 0x2DDB JUMPI DUP2 DUP2 LT ISZERO PUSH2 0x2DCD JUMPI PUSH1 0x40 MLOAD PUSH32 0x8C379A000000000000000000000000000000000000000000000000000000000 DUP2 MSTORE PUSH1 0x4 ADD PUSH2 0x2DC4 SWAP1 PUSH2 0x3FDE JUMP JUMPDEST PUSH1 0x40 MLOAD DUP1 SWAP2 SUB SWAP1 REVERT JUMPDEST PUSH2 0x2DDA DUP5 DUP5 DUP5 DUP5 SUB PUSH2 0x2B93 JUMP JUMPDEST JUMPDEST POP POP POP POP JUMP JUMPDEST PUSH0 PUSH20 0xFFFFFFFFFFFFFFFFFFFFFFFFFFFFFFFFFFFFFFFF AND DUP4 PUSH20 0xFFFFFFFFFFFFFFFFFFFFFFFFFFFFFFFFFFFFFFFF AND SUB PUSH2 0x2E4F JUMPI PUSH1 0x40 MLOAD PUSH32 0x8C379A000000000000000000000000000000000000000000000000000000000 DUP2 MSTORE PUSH1 0x4 ADD PUSH2 0x2E46 SWAP1 PUSH2 0x406C JUMP JUMPDEST PUSH1 0x40 MLOAD DUP1 SWAP2 SUB SWAP1 REVERT JUMPDEST PUSH0 PUSH20 0xFFFFFFFFFFFFFFFFFFFFFFFFFFFFFFFFFFFFFFFF AND DUP3 PUSH20 0xFFFFFFFFFFFFFFFFFFFFFFFFFFFFFFFFFFFFFFFF AND SUB PUSH2 0x2EBD JUMPI PUSH1 0x40 MLOAD PUSH32 0x8C379A000000000000000000000000000000000000000000000000000000000 DUP2 MSTORE PUSH1 0x4 ADD PUSH2 0x2EB4 SWAP1 PUSH2 0x40FA JUMP JUMPDEST PUSH1 0x40 MLOAD DUP1 SWAP2 SUB SWAP1 REVERT JUMPDEST PUSH2 0x2EC8 DUP4 DUP4 DUP4 PUSH2 0x32F5 JUMP JUMPDEST PUSH0 DUP1 PUSH0 DUP6 PUSH20 0xFFFFFFFFFFFFFFFFFFFFFFFFFFFFFFFFFFFFFFFF AND PUSH20 0xFFFFFFFFFFFFFFFFFFFFFFFFFFFFFFFFFFFFFFFF AND DUP2 MSTORE PUSH1 0x20 ADD SWAP1 DUP2 MSTORE PUSH1 0x20 ADD PUSH0 KECCAK256 SLOAD SWAP1 POP DUP2 DUP2 LT ISZERO PUSH2 0x2F4B JUMPI PUSH1 0x40 MLOAD PUSH32 0x8C379A000000000000000000000000000000000000000000000000000000000 DUP2 MSTORE PUSH1 0x4 ADD PUSH2 0x2F42 SWAP1 PUSH2 0x4188 JUMP JUMPDEST PUSH1 0x40 MLOAD DUP1 SWAP2 SUB SWAP1 REVERT JUMPDEST DUP2 DUP2 SUB PUSH0 DUP1 DUP7 PUSH20 0xFFFFFFFFFFFFFFFFFFFFFFFFFFFFFFFFFFFFFFFF AND PUSH20 0xFFFFFFFFFFFFFFFFFFFFFFFFFFFFFFFFFFFFFFFF AND DUP2 MSTORE PUSH1 0x20 ADD SWAP1 DUP2 MSTORE PUSH1 0x20 ADD PUSH0 KECCAK256 DUP2 SWAP1 SSTORE POP DUP2 PUSH0 DUP1 DUP6 PUSH20 0xFFFFFFFFFFFFFFFFFFFFFFFFFFFFFFFFFFFFFFFF AND PUSH20 0xFFFFFFFFFFFFFFFFFFFFFFFFFFFFFFFFFFFFFFFF AND DUP2 MSTORE PUSH1 0x20 ADD SWAP1 DUP2 MSTORE PUSH1 0x20 ADD PUSH0 KECCAK256 PUSH0 DUP3 DUP3 SLOAD ADD SWAP3 POP POP DUP2 SWAP1 SSTORE POP DUP3 PUSH20 0xFFFFFFFFFFFFFFFFFFFFFFFFFFFFFFFFFFFFFFFF AND DUP5 PUSH20 0xFFFFFFFFFFFFFFFFFFFFFFFFFFFFFFFFFFFFFFFF AND PUSH32 0xDDF252AD1BE2C89B69C2B068FC378DAA952BA7F163C4A11628F55A4DF523B3EF DUP5 PUSH1 0x40 MLOAD PUSH2 0x3034 SWAP2 SWAP1 PUSH2 0x356E JUMP JUMPDEST PUSH1 0x40 MLOAD DUP1 SWAP2 SUB SWAP1 LOG3 PUSH2 0x3047 DUP5 DUP5 DUP5 PUSH2 0x32FA JUMP JUMPDEST POP POP POP POP JUMP JUMPDEST PUSH0 PUSH20 0xFFFFFFFFFFFFFFFFFFFFFFFFFFFFFFFFFFFFFFFF AND DUP3 PUSH20 0xFFFFFFFFFFFFFFFFFFFFFFFFFFFFFFFFFFFFFFFF AND SUB PUSH2 0x30BB JUMPI PUSH1 0x40 MLOAD PUSH32 0x8C379A000000000000000000000000000000000000000000000000000000000 DUP2 MSTORE PUSH1 0x4 ADD PUSH2 0x30B2 SWAP1 PUSH2 0x4216 JUMP JUMPDEST PUSH1 0x40 MLOAD DUP1 SWAP2 SUB SWAP1 REVERT JUMPDEST PUSH2 0x30C6 DUP3 PUSH0 DUP4 PUSH2 0x32F5 JUMP JUMPDEST PUSH0 DUP1 PUSH0 DUP5 PUSH20 0xFFFFFFFFFFFFFFFFFFFFFFFFFFFFFFFFFFFFFFFF AND PUSH20 0xFFFFFFFFFFFFFFFFFFFFFFFFFFFFFFFFFFFFFFFF AND DUP2 MSTORE PUSH1 0x20 ADD SWAP1 DUP2 MSTORE PUSH1 0x20 ADD PUSH0 KECCAK256 SLOAD SWAP1 POP DUP2 DUP2 LT ISZERO PUSH2 0x3149 JUMPI PUSH1 0x40 MLOAD PUSH32 0x8C379A000000000000000000000000000000000000000000000000000000000 DUP2 MSTORE PUSH1 0x4 ADD PUSH2 0x3140 SWAP1 PUSH2 0x42A4 JUMP JUMPDEST PUSH1 0x40 MLOAD DUP1 SWAP2 SUB SWAP1 REVERT JUMPDEST DUP2 DUP2 SUB PUSH0 DUP1 DUP6 PUSH20 0xFFFFFFFFFFFFFFFFFFFFFFFFFFFFFFFFFFFFFFFF AND PUSH20 0xFFFFFFFFFFFFFFFFFFFFFFFFFFFFFFFFFFFFFFFF AND DUP2 MSTORE PUSH1 0x20 ADD SWAP1 DUP2 MSTORE PUSH1 0x20 ADD PUSH0 KECCAK256 DUP2 SWAP1 SSTORE POP DUP2 PUSH1 0x2 PUSH0 DUP3 DUP3 SLOAD SUB SWAP3 POP POP DUP2 SWAP1 SSTORE POP PUSH0 PUSH20 0xFFFFFFFFFFFFFFFFFFFFFFFFFFFFFFFFFFFFFFFF AND DUP4 PUSH20 0xFFFFFFFFFFFFFFFFFFFFFFFFFFFFFFFFFFFFFFFF AND PUSH32 0xDDF252AD1BE2C89B69C2B068FC378DAA952BA7F163C4A11628F55A4DF523B3EF DUP5 PUSH1 0x40 MLOAD PUSH2 0x31F8 SWAP2 SWAP1 PUSH2 0x356E JUMP JUMPDEST PUSH1 0x40 MLOAD DUP1 SWAP2 SUB SWAP1 LOG3 PUSH2 0x320B DUP4 PUSH0 DUP5 PUSH2 0x32FA JUMP JUMPDEST POP POP POP JUMP JUMPDEST PUSH0 PUSH1 0x5 PUSH0 SWAP1 SLOAD SWAP1 PUSH2 0x100 EXP SWAP1 DIV PUSH20 0xFFFFFFFFFFFFFFFFFFFFFFFFFFFFFFFFFFFFFFFF AND SWAP1 POP DUP2 PUSH1 0x5 PUSH0 PUSH2 0x100 EXP DUP2 SLOAD DUP2 PUSH20 0xFFFFFFFFFFFFFFFFFFFFFFFFFFFFFFFFFFFFFFFF MUL NOT AND SWAP1 DUP4 PUSH20 0xFFFFFFFFFFFFFFFFFFFFFFFFFFFFFFFFFFFFFFFF AND MUL OR SWAP1 SSTORE POP DUP2 PUSH20 0xFFFFFFFFFFFFFFFFFFFFFFFFFFFFFFFFFFFFFFFF AND DUP2 PUSH20 0xFFFFFFFFFFFFFFFFFFFFFFFFFFFFFFFFFFFFFFFF AND PUSH32 0x8BE0079C531659141344CD1FD0A4F28419497F9722A3DAAFE3B4186F6B6457E0 PUSH1 0x40 MLOAD PUSH1 0x40 MLOAD DUP1 SWAP2 SUB SWAP1 LOG3 POP POP JUMP JUMPDEST PUSH0 DUP1 PUSH2 0x32DD PUSH2 0x2B8C JUMP JUMPDEST SWAP1 POP PUSH2 0x32EA DUP2 DUP6 DUP6 PUSH2 0x2DE1 JUMP JUMPDEST PUSH1 0x1 SWAP2 POP POP SWAP3 SWAP2 POP POP JUMP JUMPDEST POP POP POP JUMP JUMPDEST POP POP POP JUMP JUMPDEST PUSH0 DUP1 REVERT JUMPDEST PUSH0 PUSH20 0xFFFFFFFFFFFFFFFFFFFFFFFFFFFFFFFFFFFFFFFF DUP3 AND SWAP1 POP SWAP2 SWAP1 POP JUMP JUMPDEST PUSH0 PUSH2 0x332C DUP3 PUSH2 0x3303 JUMP JUMPDEST SWAP1 POP SWAP2 SWAP1 POP JUMP JUMPDEST PUSH2 0x333C DUP2 PUSH2 0x3322 JUMP JUMPDEST DUP2 EQ PUSH2 0x3346 JUMPI PUSH0 DUP1 REVERT JUMPDEST POP JUMP JUMPDEST PUSH0 DUP2 CALLDATALOAD SWAP1 POP PUSH2 0x3357 DUP2 PUSH2 0x3333 JUMP JUMPDEST SWAP3 SWAP2 POP POP JUMP JUMPDEST PUSH0 PUSH1 0x20 DUP3 DUP5 SUB SLT ISZERO PUSH2 0x3372 JUMPI PUSH2 0x3371 PUSH2 0x32FF JUMP JUMPDEST JUMPDEST PUSH0 PUSH2 0x337F DUP5 DUP3 DUP6 ADD PUSH2 0x3349 JUMP JUMPDEST SWAP2 POP POP SWAP3 SWAP2 POP POP JUMP JUMPDEST PUSH0 DUP2 SWAP1 POP SWAP2 SWAP1 POP JUMP JUMPDEST PUSH2 0x339A DUP2 PUSH2 0x3388 JUMP JUMPDEST DUP2 EQ PUSH2 0x33A4 JUMPI PUSH0 DUP1 REVERT JUMPDEST POP JUMP JUMPDEST PUSH0 DUP2 CALLDATALOAD SWAP1 POP PUSH2 0x33B5 DUP2 PUSH2 0x3391 JUMP JUMPDEST SWAP3 SWAP2 POP POP JUMP JUMPDEST PUSH0 PUSH1 0x20 DUP3 DUP5 SUB SLT ISZERO PUSH2 0x33D0 JUMPI PUSH2 0x33CF PUSH2 0x32FF JUMP JUMPDEST JUMPDEST PUSH0 PUSH2 0x33DD DUP5 DUP3 DUP6 ADD PUSH2 0x33A7 JUMP JUMPDEST SWAP2 POP POP SWAP3 SWAP2 POP POP JUMP JUMPDEST PUSH0 DUP2 MLOAD SWAP1 POP SWAP2 SWAP1 POP JUMP JUMPDEST PUSH0 DUP3 DUP3 MSTORE PUSH1 0x20 DUP3 ADD SWAP1 POP SWAP3 SWAP2 POP POP JUMP JUMPDEST PUSH0 JUMPDEST DUP4 DUP2 LT ISZERO PUSH2 0x341D JUMPI DUP1 DUP3 ADD MLOAD DUP2 DUP5 ADD MSTORE PUSH1 0x20 DUP2 ADD SWAP1 POP PUSH2 0x3402 JUMP JUMPDEST PUSH0 DUP5 DUP5 ADD MSTORE POP POP POP POP JUMP JUMPDEST PUSH0 PUSH1 0x1F NOT PUSH1 0x1F DUP4 ADD AND SWAP1 POP SWAP2 SWAP1 POP JUMP JUMPDEST PUSH0 PUSH2 0x3442 DUP3 PUSH2 0x33E6 JUMP JUMPDEST PUSH2 0x344C DUP2 DUP6 PUSH2 0x33F0 JUMP JUMPDEST SWAP4 POP PUSH2 0x345C DUP2 DUP6 PUSH1 0x20 DUP7 ADD PUSH2 0x3400 JUMP JUMPDEST PUSH2 0x3465 DUP2 PUSH2 0x3428 JUMP JUMPDEST DUP5 ADD SWAP2 POP POP SWAP3 SWAP2 POP POP JUMP JUMPDEST PUSH0 PUSH1 0x20 DUP3 ADD SWAP1 POP DUP2 DUP2 SUB PUSH0 DUP4 ADD MSTORE PUSH2 0x3488 DUP2 DUP5 PUSH2 0x3438 JUMP JUMPDEST SWAP1 POP SWAP3 SWAP2 POP POP JUMP JUMPDEST PUSH0 PUSH3 0xFFFFFF DUP3 AND SWAP1 POP SWAP2 SWAP1 POP JUMP JUMPDEST PUSH2 0x34A7 DUP2 PUSH2 0x3490 JUMP JUMPDEST DUP3 MSTORE POP POP JUMP JUMPDEST PUSH0 PUSH1 0x20 DUP3 ADD SWAP1 POP PUSH2 0x34C0 PUSH0 DUP4 ADD DUP5 PUSH2 0x349E JUMP JUMPDEST SWAP3 SWAP2 POP POP JUMP JUMPDEST PUSH0 DUP1 PUSH1 0x40 DUP4 DUP6 SUB SLT ISZERO PUSH2 0x34DC JUMPI PUSH2 0x34DB PUSH2 0x32FF JUMP JUMPDEST JUMPDEST PUSH0 PUSH2 0x34E9 DUP6 DUP3 DUP7 ADD PUSH2 0x3349 JUMP JUMPDEST SWAP3 POP POP PUSH1 0x20 PUSH2 0x34FA DUP6 DUP3 DUP7 ADD PUSH2 0x33A7 JUMP JUMPDEST SWAP2 POP POP SWAP3 POP SWAP3 SWAP1 POP JUMP JUMPDEST PUSH0 DUP2 ISZERO ISZERO SWAP1 POP SWAP2 SWAP1 POP JUMP JUMPDEST PUSH2 0x3518 DUP2 PUSH2 0x3504 JUMP JUMPDEST DUP3 MSTORE POP POP JUMP JUMPDEST PUSH0 PUSH1 0x20 DUP3 ADD SWAP1 POP PUSH2 0x3531 PUSH0 DUP4 ADD DUP5 PUSH2 0x350F JUMP JUMPDEST SWAP3 SWAP2 POP POP JUMP JUMPDEST PUSH2 0x3540 DUP2 PUSH2 0x3322 JUMP JUMPDEST DUP3 MSTORE POP POP JUMP JUMPDEST PUSH0 PUSH1 0x20 DUP3 ADD SWAP1 POP PUSH2 0x3559 PUSH0 DUP4 ADD DUP5 PUSH2 0x3537 JUMP JUMPDEST SWAP3 SWAP2 POP POP JUMP JUMPDEST PUSH2 0x3568 DUP2 PUSH2 0x3388 JUMP JUMPDEST DUP3 MSTORE POP POP JUMP JUMPDEST PUSH0 PUSH1 0x20 DUP3 ADD SWAP1 POP PUSH2 0x3581 PUSH0 DUP4 ADD DUP5 PUSH2 0x355F JUMP JUMPDEST SWAP3 SWAP2 POP POP JUMP JUMPDEST PUSH0 DUP1 PUSH0 PUSH1 0x60 DUP5 DUP7 SUB SLT ISZERO PUSH2 0x359E JUMPI PUSH2 0x359D PUSH2 0x32FF JUMP JUMPDEST JUMPDEST PUSH0 PUSH2 0x35AB DUP7 DUP3 DUP8 ADD PUSH2 0x3349 JUMP JUMPDEST SWAP4 POP POP PUSH1 0x20 PUSH2 0x35BC DUP7 DUP3 DUP8 ADD PUSH2 0x3349 JUMP JUMPDEST SWAP3 POP POP PUSH1 0x40 PUSH2 0x35CD DUP7 DUP3 DUP8 ADD PUSH2 0x33A7 JUMP JUMPDEST SWAP2 POP POP SWAP3 POP SWAP3 POP SWAP3 JUMP JUMPDEST PUSH2 0x35E0 DUP2 PUSH2 0x3504 JUMP JUMPDEST DUP2 EQ PUSH2 0x35EA JUMPI PUSH0 DUP1 REVERT JUMPDEST POP JUMP JUMPDEST PUSH0 DUP2 CALLDATALOAD SWAP1 POP PUSH2 0x35FB DUP2 PUSH2 0x35D7 JUMP JUMPDEST SWAP3 SWAP2 POP POP JUMP JUMPDEST PUSH0 PUSH1 0x20 DUP3 DUP5 SUB SLT ISZERO PUSH2 0x3616 JUMPI PUSH2 0x3615 PUSH2 0x32FF JUMP JUMPDEST JUMPDEST PUSH0 PUSH2 0x3623 DUP5 DUP3 DUP6 ADD PUSH2 0x35ED JUMP JUMPDEST SWAP2 POP POP SWAP3 SWAP2 POP POP JUMP JUMPDEST PUSH0 PUSH1 0xFF DUP3 AND SWAP1 POP SWAP2 SWAP1 POP JUMP JUMPDEST PUSH2 0x3641 DUP2 PUSH2 0x362C JUMP JUMPDEST DUP3 MSTORE POP POP JUMP JUMPDEST PUSH0 PUSH1 0x20 DUP3 ADD SWAP1 POP PUSH2 0x365A PUSH0 DUP4 ADD DUP5 PUSH2 0x3638 JUMP JUMPDEST SWAP3 SWAP2 POP POP JUMP JUMPDEST PUSH0 DUP2 SWAP1 POP SWAP2 SWAP1 POP JUMP JUMPDEST PUSH0 PUSH2 0x3683 PUSH2 0x367E PUSH2 0x3679 DUP5 PUSH2 0x3303 JUMP JUMPDEST PUSH2 0x3660 JUMP JUMPDEST PUSH2 0x3303 JUMP JUMPDEST SWAP1 POP SWAP2 SWAP1 POP JUMP JUMPDEST PUSH0 PUSH2 0x3694 DUP3 PUSH2 0x3669 JUMP JUMPDEST SWAP1 POP SWAP2 SWAP1 POP JUMP JUMPDEST PUSH0 PUSH2 0x36A5 DUP3 PUSH2 0x368A JUMP JUMPDEST SWAP1 POP SWAP2 SWAP1 POP JUMP JUMPDEST PUSH2 0x36B5 DUP2 PUSH2 0x369B JUMP JUMPDEST DUP3 MSTORE POP POP JUMP JUMPDEST PUSH0 PUSH1 0x20 DUP3 ADD SWAP1 POP PUSH2 0x36CE PUSH0 DUP4 ADD DUP5 PUSH2 0x36AC JUMP JUMPDEST SWAP3 SWAP2 POP POP JUMP JUMPDEST PUSH0 DUP1 PUSH1 0x40 DUP4 DUP6 SUB SLT ISZERO PUSH2 0x36EA JUMPI PUSH2 0x36E9 PUSH2 0x32FF JUMP JUMPDEST JUMPDEST PUSH0 PUSH2 0x36F7 DUP6 DUP3 DUP7 ADD PUSH2 0x33A7 JUMP JUMPDEST SWAP3 POP POP PUSH1 0x20 PUSH2 0x3708 DUP6 DUP3 DUP7 ADD PUSH2 0x3349 JUMP JUMPDEST SWAP2 POP POP SWAP3 POP SWAP3 SWAP1 POP JUMP JUMPDEST PUSH0 PUSH1 0x40 DUP3 ADD SWAP1 POP PUSH2 0x3725 PUSH0 DUP4 ADD DUP6 PUSH2 0x350F JUMP JUMPDEST PUSH2 0x3732 PUSH1 0x20 DUP4 ADD DUP5 PUSH2 0x350F JUMP JUMPDEST SWAP4 SWAP3 POP POP POP JUMP JUMPDEST PUSH0 PUSH2 0x3743 DUP3 PUSH2 0x368A JUMP JUMPDEST SWAP1 POP SWAP2 SWAP1 POP JUMP JUMPDEST PUSH2 0x3753 DUP2 PUSH2 0x3739 JUMP JUMPDEST DUP3 MSTORE POP POP JUMP JUMPDEST PUSH0 PUSH1 0x20 DUP3 ADD SWAP1 POP PUSH2 0x376C PUSH0 DUP4 ADD DUP5 PUSH2 0x374A JUMP JUMPDEST SWAP3 SWAP2 POP POP JUMP JUMPDEST PUSH2 0x377B DUP2 PUSH2 0x3490 JUMP JUMPDEST DUP2 EQ PUSH2 0x3785 JUMPI PUSH0 DUP1 REVERT JUMPDEST POP JUMP JUMPDEST PUSH0 DUP2 CALLDATALOAD SWAP1 POP PUSH2 0x3796 DUP2 PUSH2 0x3772 JUMP JUMPDEST SWAP3 SWAP2 POP POP JUMP JUMPDEST PUSH0 DUP1 PUSH0 PUSH1 0x60 DUP5 DUP7 SUB SLT ISZERO PUSH2 0x37B3 JUMPI PUSH2 0x37B2 PUSH2 0x32FF JUMP JUMPDEST JUMPDEST PUSH0 PUSH2 0x37C0 DUP7 DUP3 DUP8 ADD PUSH2 0x3349 JUMP JUMPDEST SWAP4 POP POP PUSH1 0x20 PUSH2 0x37D1 DUP7 DUP3 DUP8 ADD PUSH2 0x3349 JUMP JUMPDEST SWAP3 POP POP PUSH1 0x40 PUSH2 0x37E2 DUP7 DUP3 DUP8 ADD PUSH2 0x3788 JUMP JUMPDEST SWAP2 POP POP SWAP3 POP SWAP3 POP SWAP3 JUMP JUMPDEST PUSH0 PUSH1 0x80 DUP3 ADD SWAP1 POP PUSH2 0x37FF PUSH0 DUP4 ADD DUP8 PUSH2 0x355F JUMP JUMPDEST PUSH2 0x380C PUSH1 0x20 DUP4 ADD DUP7 PUSH2 0x355F JUMP JUMPDEST PUSH2 0x3819 PUSH1 0x40 DUP4 ADD DUP6 PUSH2 0x355F JUMP JUMPDEST PUSH2 0x3826 PUSH1 0x60 DUP4 ADD DUP5 PUSH2 0x355F JUMP JUMPDEST SWAP6 SWAP5 POP POP POP POP POP JUMP JUMPDEST PUSH0 DUP1 PUSH1 0x40 DUP4 DUP6 SUB SLT ISZERO PUSH2 0x3845 JUMPI PUSH2 0x3844 PUSH2 0x32FF JUMP JUMPDEST JUMPDEST PUSH0 PUSH2 0x3852 DUP6 DUP3 DUP7 ADD PUSH2 0x3349 JUMP JUMPDEST SWAP3 POP POP PUSH1 0x20 PUSH2 0x3863 DUP6 DUP3 DUP7 ADD PUSH2 0x3349 JUMP JUMPDEST SWAP2 POP POP SWAP3 POP SWAP3 SWAP1 POP JUMP JUMPDEST PUSH32 0x4669727374205472616E7366657220546F6B656E730000000000000000000000 PUSH0 DUP3 ADD MSTORE POP JUMP JUMPDEST PUSH0 PUSH2 0x38A1 PUSH1 0x15 DUP4 PUSH2 0x33F0 JUMP JUMPDEST SWAP2 POP PUSH2 0x38AC DUP3 PUSH2 0x386D JUMP JUMPDEST PUSH1 0x20 DUP3 ADD SWAP1 POP SWAP2 SWAP1 POP JUMP JUMPDEST PUSH0 PUSH1 0x20 DUP3 ADD SWAP1 POP DUP2 DUP2 SUB PUSH0 DUP4 ADD MSTORE PUSH2 0x38CE DUP2 PUSH2 0x3895 JUMP JUMPDEST SWAP1 POP SWAP2 SWAP1 POP JUMP JUMPDEST PUSH32 0x596F7520416C7265616479205769746864726177000000000000000000000000 PUSH0 DUP3 ADD MSTORE POP JUMP JUMPDEST PUSH0 PUSH2 0x3909 PUSH1 0x14 DUP4 PUSH2 0x33F0 JUMP JUMPDEST SWAP2 POP PUSH2 0x3914 DUP3 PUSH2 0x38D5 JUMP JUMPDEST PUSH1 0x20 DUP3 ADD SWAP1 POP SWAP2 SWAP1 POP JUMP JUMPDEST PUSH0 PUSH1 0x20 DUP3 ADD SWAP1 POP DUP2 DUP2 SUB PUSH0 DUP4 ADD MSTORE PUSH2 0x3936 DUP2 PUSH2 0x38FD JUMP JUMPDEST SWAP1 POP SWAP2 SWAP1 POP JUMP JUMPDEST PUSH32 0x4E487B7100000000000000000000000000000000000000000000000000000000 PUSH0 MSTORE PUSH1 0x11 PUSH1 0x4 MSTORE PUSH1 0x24 PUSH0 REVERT JUMPDEST PUSH0 PUSH2 0x3974 DUP3 PUSH2 0x3388 JUMP JUMPDEST SWAP2 POP PUSH2 0x397F DUP4 PUSH2 0x3388 JUMP JUMPDEST SWAP3 POP DUP3 DUP3 MUL PUSH2 0x398D DUP2 PUSH2 0x3388 JUMP JUMPDEST SWAP2 POP DUP3 DUP3 DIV DUP5 EQ DUP4 ISZERO OR PUSH2 0x39A4 JUMPI PUSH2 0x39A3 PUSH2 0x393D JUMP JUMPDEST JUMPDEST POP SWAP3 SWAP2 POP POP JUMP JUMPDEST PUSH32 0x4E487B7100000000000000000000000000000000000000000000000000000000 PUSH0 MSTORE PUSH1 0x12 PUSH1 0x4 MSTORE PUSH1 0x24 PUSH0 REVERT JUMPDEST PUSH0 PUSH2 0x39E2 DUP3 PUSH2 0x3388 JUMP JUMPDEST SWAP2 POP PUSH2 0x39ED DUP4 PUSH2 0x3388 JUMP JUMPDEST SWAP3 POP DUP3 PUSH2 0x39FD JUMPI PUSH2 0x39FC PUSH2 0x39AB JUMP JUMPDEST JUMPDEST DUP3 DUP3 DIV SWAP1 POP SWAP3 SWAP2 POP POP JUMP JUMPDEST PUSH0 PUSH2 0x3A12 DUP3 PUSH2 0x3388 JUMP JUMPDEST SWAP2 POP PUSH2 0x3A1D DUP4 PUSH2 0x3388 JUMP JUMPDEST SWAP3 POP DUP3 DUP3 SUB SWAP1 POP DUP2 DUP2 GT ISZERO PUSH2 0x3A35 JUMPI PUSH2 0x3A34 PUSH2 0x393D JUMP JUMPDEST JUMPDEST SWAP3 SWAP2 POP POP JUMP JUMPDEST PUSH0 PUSH1 0x40 DUP3 ADD SWAP1 POP PUSH2 0x3A4E PUSH0 DUP4 ADD DUP6 PUSH2 0x3537 JUMP JUMPDEST PUSH2 0x3A5B PUSH1 0x20 DUP4 ADD DUP5 PUSH2 0x355F JUMP JUMPDEST SWAP4 SWAP3 POP POP POP JUMP JUMPDEST PUSH0 DUP2 MLOAD SWAP1 POP PUSH2 0x3A70 DUP2 PUSH2 0x35D7 JUMP JUMPDEST SWAP3 SWAP2 POP POP JUMP JUMPDEST PUSH0 PUSH1 0x20 DUP3 DUP5 SUB SLT ISZERO PUSH2 0x3A8B JUMPI PUSH2 0x3A8A PUSH2 0x32FF JUMP JUMPDEST JUMPDEST PUSH0 PUSH2 0x3A98 DUP5 DUP3 DUP6 ADD PUSH2 0x3A62 JUMP JUMPDEST SWAP2 POP POP SWAP3 SWAP2 POP POP JUMP JUMPDEST PUSH0 PUSH2 0x3AAB DUP3 PUSH2 0x3388 JUMP JUMPDEST SWAP2 POP PUSH2 0x3AB6 DUP4 PUSH2 0x3388 JUMP JUMPDEST SWAP3 POP DUP3 DUP3 ADD SWAP1 POP DUP1 DUP3 GT ISZERO PUSH2 0x3ACE JUMPI PUSH2 0x3ACD PUSH2 0x393D JUMP JUMPDEST JUMPDEST SWAP3 SWAP2 POP POP JUMP JUMPDEST PUSH32 0x53756D206F66205461782050657273656E74616765206D757374206265203020 PUSH0 DUP3 ADD MSTORE PUSH32 0x746F203135000000000000000000000000000000000000000000000000000000 PUSH1 0x20 DUP3 ADD MSTORE POP JUMP JUMPDEST PUSH0 PUSH2 0x3B2E PUSH1 0x25 DUP4 PUSH2 0x33F0 JUMP JUMPDEST SWAP2 POP PUSH2 0x3B39 DUP3 PUSH2 0x3AD4 JUMP JUMPDEST PUSH1 0x40 DUP3 ADD SWAP1 POP SWAP2 SWAP1 POP JUMP JUMPDEST PUSH0 PUSH1 0x20 DUP3 ADD SWAP1 POP DUP2 DUP2 SUB PUSH0 DUP4 ADD MSTORE PUSH2 0x3B5B DUP2 PUSH2 0x3B22 JUMP JUMPDEST SWAP1 POP SWAP2 SWAP1 POP JUMP JUMPDEST PUSH32 0x4E487B7100000000000000000000000000000000000000000000000000000000 PUSH0 MSTORE PUSH1 0x22 PUSH1 0x4 MSTORE PUSH1 0x24 PUSH0 REVERT JUMPDEST PUSH0 PUSH1 0x2 DUP3 DIV SWAP1 POP PUSH1 0x1 DUP3 AND DUP1 PUSH2 0x3BA6 JUMPI PUSH1 0x7F DUP3 AND SWAP2 POP JUMPDEST PUSH1 0x20 DUP3 LT DUP2 SUB PUSH2 0x3BB9 JUMPI PUSH2 0x3BB8 PUSH2 0x3B62 JUMP JUMPDEST JUMPDEST POP SWAP2 SWAP1 POP JUMP JUMPDEST PUSH2 0x3BC8 DUP2 PUSH2 0x3322 JUMP JUMPDEST DUP3 MSTORE POP POP JUMP JUMPDEST PUSH2 0x3BD7 DUP2 PUSH2 0x3490 JUMP JUMPDEST DUP3 MSTORE POP POP JUMP JUMPDEST PUSH2 0x3BE6 DUP2 PUSH2 0x3388 JUMP JUMPDEST DUP3 MSTORE POP POP JUMP JUMPDEST PUSH2 0x3BF5 DUP2 PUSH2 0x3303 JUMP JUMPDEST DUP3 MSTORE POP POP JUMP JUMPDEST PUSH2 0x100 DUP3 ADD PUSH0 DUP3 ADD MLOAD PUSH2 0x3C10 PUSH0 DUP6 ADD DUP3 PUSH2 0x3BBF JUMP JUMPDEST POP PUSH1 0x20 DUP3 ADD MLOAD PUSH2 0x3C23 PUSH1 0x20 DUP6 ADD DUP3 PUSH2 0x3BBF JUMP JUMPDEST POP PUSH1 0x40 DUP3 ADD MLOAD PUSH2 0x3C36 PUSH1 0x40 DUP6 ADD DUP3 PUSH2 0x3BCE JUMP JUMPDEST POP PUSH1 0x60 DUP3 ADD MLOAD PUSH2 0x3C49 PUSH1 0x60 DUP6 ADD DUP3 PUSH2 0x3BBF JUMP JUMPDEST POP PUSH1 0x80 DUP3 ADD MLOAD PUSH2 0x3C5C PUSH1 0x80 DUP6 ADD DUP3 PUSH2 0x3BDD JUMP JUMPDEST POP PUSH1 0xA0 DUP3 ADD MLOAD PUSH2 0x3C6F PUSH1 0xA0 DUP6 ADD DUP3 PUSH2 0x3BDD JUMP JUMPDEST POP PUSH1 0xC0 DUP3 ADD MLOAD PUSH2 0x3C82 PUSH1 0xC0 DUP6 ADD DUP3 PUSH2 0x3BDD JUMP JUMPDEST POP PUSH1 0xE0 DUP3 ADD MLOAD PUSH2 0x3C95 PUSH1 0xE0 DUP6 ADD DUP3 PUSH2 0x3BEC JUMP JUMPDEST POP POP POP POP JUMP JUMPDEST PUSH0 PUSH2 0x100 DUP3 ADD SWAP1 POP PUSH2 0x3CAF PUSH0 DUP4 ADD DUP5 PUSH2 0x3BFB JUMP JUMPDEST SWAP3 SWAP2 POP POP JUMP JUMPDEST PUSH0 DUP2 MLOAD SWAP1 POP PUSH2 0x3CC3 DUP2 PUSH2 0x3391 JUMP JUMPDEST SWAP3 SWAP2 POP POP JUMP JUMPDEST PUSH0 PUSH1 0x20 DUP3 DUP5 SUB SLT ISZERO PUSH2 0x3CDE JUMPI PUSH2 0x3CDD PUSH2 0x32FF JUMP JUMPDEST JUMPDEST PUSH0 PUSH2 0x3CEB DUP5 DUP3 DUP6 ADD PUSH2 0x3CB5 JUMP JUMPDEST SWAP2 POP POP SWAP3 SWAP2 POP POP JUMP JUMPDEST PUSH32 0x45524332303A2064656372656173656420616C6C6F77616E63652062656C6F77 PUSH0 DUP3 ADD MSTORE PUSH32 0x207A65726F000000000000000000000000000000000000000000000000000000 PUSH1 0x20 DUP3 ADD MSTORE POP JUMP JUMPDEST PUSH0 PUSH2 0x3D4E PUSH1 0x25 DUP4 PUSH2 0x33F0 JUMP JUMPDEST SWAP2 POP PUSH2 0x3D59 DUP3 PUSH2 0x3CF4 JUMP JUMPDEST PUSH1 0x40 DUP3 ADD SWAP1 POP SWAP2 SWAP1 POP JUMP JUMPDEST PUSH0 PUSH1 0x20 DUP3 ADD SWAP1 POP DUP2 DUP2 SUB PUSH0 DUP4 ADD MSTORE PUSH2 0x3D7B DUP2 PUSH2 0x3D42 JUMP JUMPDEST SWAP1 POP SWAP2 SWAP1 POP JUMP JUMPDEST PUSH32 0x4F776E61626C653A206E6577206F776E657220697320746865207A65726F2061 PUSH0 DUP3 ADD MSTORE PUSH32 0x6464726573730000000000000000000000000000000000000000000000000000 PUSH1 0x20 DUP3 ADD MSTORE POP JUMP JUMPDEST PUSH0 PUSH2 0x3DDC PUSH1 0x26 DUP4 PUSH2 0x33F0 JUMP JUMPDEST SWAP2 POP PUSH2 0x3DE7 DUP3 PUSH2 0x3D82 JUMP JUMPDEST PUSH1 0x40 DUP3 ADD SWAP1 POP SWAP2 SWAP1 POP JUMP JUMPDEST PUSH0 PUSH1 0x20 DUP3 ADD SWAP1 POP DUP2 DUP2 SUB PUSH0 DUP4 ADD MSTORE PUSH2 0x3E09 DUP2 PUSH2 0x3DD0 JUMP JUMPDEST SWAP1 POP SWAP2 SWAP1 POP JUMP JUMPDEST PUSH32 0x4F776E61626C653A2063616C6C6572206973206E6F7420746865206F776E6572 PUSH0 DUP3 ADD MSTORE POP JUMP JUMPDEST PUSH0 PUSH2 0x3E44 PUSH1 0x20 DUP4 PUSH2 0x33F0 JUMP JUMPDEST SWAP2 POP PUSH2 0x3E4F DUP3 PUSH2 0x3E10 JUMP JUMPDEST PUSH1 0x20 DUP3 ADD SWAP1 POP SWAP2 SWAP1 POP JUMP JUMPDEST PUSH0 PUSH1 0x20 DUP3 ADD SWAP1 POP DUP2 DUP2 SUB PUSH0 DUP4 ADD MSTORE PUSH2 0x3E71 DUP2 PUSH2 0x3E38 JUMP JUMPDEST SWAP1 POP SWAP2 SWAP1 POP JUMP JUMPDEST PUSH32 0x45524332303A20617070726F76652066726F6D20746865207A65726F20616464 PUSH0 DUP3 ADD MSTORE PUSH32 0x7265737300000000000000000000000000000000000000000000000000000000 PUSH1 0x20 DUP3 ADD MSTORE POP JUMP JUMPDEST PUSH0 PUSH2 0x3ED2 PUSH1 0x24 DUP4 PUSH2 0x33F0 JUMP JUMPDEST SWAP2 POP PUSH2 0x3EDD DUP3 PUSH2 0x3E78 JUMP JUMPDEST PUSH1 0x40 DUP3 ADD SWAP1 POP SWAP2 SWAP1 POP JUMP JUMPDEST PUSH0 PUSH1 0x20 DUP3 ADD SWAP1 POP DUP2 DUP2 SUB PUSH0 DUP4 ADD MSTORE PUSH2 0x3EFF DUP2 PUSH2 0x3EC6 JUMP JUMPDEST SWAP1 POP SWAP2 SWAP1 POP JUMP JUMPDEST PUSH32 0x45524332303A20617070726F766520746F20746865207A65726F206164647265 PUSH0 DUP3 ADD MSTORE PUSH32 0x7373000000000000000000000000000000000000000000000000000000000000 PUSH1 0x20 DUP3 ADD MSTORE POP JUMP JUMPDEST PUSH0 PUSH2 0x3F60 PUSH1 0x22 DUP4 PUSH2 0x33F0 JUMP JUMPDEST SWAP2 POP PUSH2 0x3F6B DUP3 PUSH2 0x3F06 JUMP JUMPDEST PUSH1 0x40 DUP3 ADD SWAP1 POP SWAP2 SWAP1 POP JUMP JUMPDEST PUSH0 PUSH1 0x20 DUP3 ADD SWAP1 POP DUP2 DUP2 SUB PUSH0 DUP4 ADD MSTORE PUSH2 0x3F8D DUP2 PUSH2 0x3F54 JUMP JUMPDEST SWAP1 POP SWAP2 SWAP1 POP JUMP JUMPDEST PUSH32 0x45524332303A20696E73756666696369656E7420616C6C6F77616E6365000000 PUSH0 DUP3 ADD MSTORE POP JUMP JUMPDEST PUSH0 PUSH2 0x3FC8 PUSH1 0x1D DUP4 PUSH2 0x33F0 JUMP JUMPDEST SWAP2 POP PUSH2 0x3FD3 DUP3 PUSH2 0x3F94 JUMP JUMPDEST PUSH1 0x20 DUP3 ADD SWAP1 POP SWAP2 SWAP1 POP JUMP JUMPDEST PUSH0 PUSH1 0x20 DUP3 ADD SWAP1 POP DUP2 DUP2 SUB PUSH0 DUP4 ADD MSTORE PUSH2 0x3FF5 DUP2 PUSH2 0x3FBC JUMP JUMPDEST SWAP1 POP SWAP2 SWAP1 POP JUMP JUMPDEST PUSH32 0x45524332303A207472616E736665722066726F6D20746865207A65726F206164 PUSH0 DUP3 ADD MSTORE PUSH32 0x6472657373000000000000000000000000000000000000000000000000000000 PUSH1 0x20 DUP3 ADD MSTORE POP JUMP JUMPDEST PUSH0 PUSH2 0x4056 PUSH1 0x25 DUP4 PUSH2 0x33F0 JUMP JUMPDEST SWAP2 POP PUSH2 0x4061 DUP3 PUSH2 0x3FFC JUMP JUMPDEST PUSH1 0x40 DUP3 ADD SWAP1 POP SWAP2 SWAP1 POP JUMP JUMPDEST PUSH0 PUSH1 0x20 DUP3 ADD SWAP1 POP DUP2 DUP2 SUB PUSH0 DUP4 ADD MSTORE PUSH2 0x4083 DUP2 PUSH2 0x404A JUMP JUMPDEST SWAP1 POP SWAP2 SWAP1 POP JUMP JUMPDEST PUSH32 0x45524332303A207472616E7366657220746F20746865207A65726F2061646472 PUSH0 DUP3 ADD MSTORE PUSH32 0x6573730000000000000000000000000000000000000000000000000000000000 PUSH1 0x20 DUP3 ADD MSTORE POP JUMP JUMPDEST PUSH0 PUSH2 0x40E4 PUSH1 0x23 DUP4 PUSH2 0x33F0 JUMP JUMPDEST SWAP2 POP PUSH2 0x40EF DUP3 PUSH2 0x408A JUMP JUMPDEST PUSH1 0x40 DUP3 ADD SWAP1 POP SWAP2 SWAP1 POP JUMP JUMPDEST PUSH0 PUSH1 0x20 DUP3 ADD SWAP1 POP DUP2 DUP2 SUB PUSH0 DUP4 ADD MSTORE PUSH2 0x4111 DUP2 PUSH2 0x40D8 JUMP JUMPDEST SWAP1 POP SWAP2 SWAP1 POP JUMP JUMPDEST PUSH32 0x45524332303A207472616E7366657220616D6F756E7420657863656564732062 PUSH0 DUP3 ADD MSTORE PUSH32 0x616C616E63650000000000000000000000000000000000000000000000000000 PUSH1 0x20 DUP3 ADD MSTORE POP JUMP JUMPDEST PUSH0 PUSH2 0x4172 PUSH1 0x26 DUP4 PUSH2 0x33F0 JUMP JUMPDEST SWAP2 POP PUSH2 0x417D DUP3 PUSH2 0x4118 JUMP JUMPDEST PUSH1 0x40 DUP3 ADD SWAP1 POP SWAP2 SWAP1 POP JUMP JUMPDEST PUSH0 PUSH1 0x20 DUP3 ADD SWAP1 POP DUP2 DUP2 SUB PUSH0 DUP4 ADD MSTORE PUSH2 0x419F DUP2 PUSH2 0x4166 JUMP JUMPDEST SWAP1 POP SWAP2 SWAP1 POP JUMP JUMPDEST PUSH32 0x45524332303A206275726E2066726F6D20746865207A65726F20616464726573 PUSH0 DUP3 ADD MSTORE PUSH32 0x7300000000000000000000000000000000000000000000000000000000000000 PUSH1 0x20 DUP3 ADD MSTORE POP JUMP JUMPDEST PUSH0 PUSH2 0x4200 PUSH1 0x21 DUP4 PUSH2 0x33F0 JUMP JUMPDEST SWAP2 POP PUSH2 0x420B DUP3 PUSH2 0x41A6 JUMP JUMPDEST PUSH1 0x40 DUP3 ADD SWAP1 POP SWAP2 SWAP1 POP JUMP JUMPDEST PUSH0 PUSH1 0x20 DUP3 ADD SWAP1 POP DUP2 DUP2 SUB PUSH0 DUP4 ADD MSTORE PUSH2 0x422D DUP2 PUSH2 0x41F4 JUMP JUMPDEST SWAP1 POP SWAP2 SWAP1 POP JUMP JUMPDEST PUSH32 0x45524332303A206275726E20616D6F756E7420657863656564732062616C616E PUSH0 DUP3 ADD MSTORE PUSH32 0x6365000000000000000000000000000000000000000000000000000000000000 PUSH1 0x20 DUP3 ADD MSTORE POP JUMP JUMPDEST PUSH0 PUSH2 0x428E PUSH1 0x22 DUP4 PUSH2 0x33F0 JUMP JUMPDEST SWAP2 POP PUSH2 0x4299 DUP3 PUSH2 0x4234 JUMP JUMPDEST PUSH1 0x40 DUP3 ADD SWAP1 POP SWAP2 SWAP1 POP JUMP JUMPDEST PUSH0 PUSH1 0x20 DUP3 ADD SWAP1 POP DUP2 DUP2 SUB PUSH0 DUP4 ADD MSTORE PUSH2 0x42BB DUP2 PUSH2 0x4282 JUMP JUMPDEST SWAP1 POP SWAP2 SWAP1 POP JUMP INVALID LOG2 PUSH5 0x6970667358 0x22 SLT KECCAK256 0xF8 0xFB DUP2 GAS PUSH28 0x41472CFA5C105A6AD161F7D276FE740ECC355A73BA27DA97FBA30C64 PUSH20 0x6F6C634300081500330000000000000000000000 "
		},
		"gasEstimates": {
			"creation": {
				"codeDepositCost": "3428800",
				"executionCost": "infinite",
				"totalCost": "infinite"
			},
			"external": {
				"PancakeSwap()": "2620",
				"ReflectionTaxAmount()": "2559",
				"Taxs(uint256)": "infinite",
				"WBNB()": "2604",
				"WBNBToken()": "infinite",
				"Wallet()": "2554",
				"WhiteList(address)": "24936",
				"WithdrawReflectionTaxPersentage(address)": "infinite",
				"WithdrawTokens(address,uint256)": "infinite",
				"WithdrawWBNB(address,uint256)": "infinite",
				"allowance(address,address)": "infinite",
				"approve(address,uint256)": "infinite",
				"balanceOf(address)": "2984",
				"burn(uint256)": "infinite",
				"burnFrom(address,uint256)": "infinite",
				"decimals()": "406",
				"decreaseAllowance(address,uint256)": "infinite",
				"getBalanceWBNB(address)": "infinite",
				"increaseAllowance(address,uint256)": "infinite",
				"isSwap()": "2583",
				"linkToken()": "infinite",
				"name()": "infinite",
				"owner()": "2671",
				"poolFee()": "2579",
				"reflectionUserDetail(address)": "infinite",
				"renounceOwnership()": "30436",
				"routerAddress()": "463",
				"setAddressFee(address,address,uint24)": "infinite",
				"setInvestmentBuyTax(uint256)": "infinite",
				"setInvestmentSellTax(uint256)": "infinite",
				"setLPBuyTax(uint256)": "infinite",
				"setLPSellTax(uint256)": "infinite",
				"setLPXAmount(uint256)": "24946",
				"setMarkettingBuyTax(uint256)": "infinite",
				"setMarkettingSellTax(uint256)": "infinite",
				"setMarkettingSwap(bool)": "27031",
				"setMarkettingXAmount(uint256)": "24947",
				"setReflectionBuyTax(uint256)": "infinite",
				"setReflectionSellTax(uint256)": "infinite",
				"swapExactInputSingle(uint256,address)": "infinite",
				"swapRouter()": "infinite",
				"symbol()": "infinite",
				"totalSupply()": "2522",
				"transfer(address,uint256)": "infinite",
				"transferFrom(address,address,uint256)": "infinite",
				"transferOwnership(address)": "30885",
				"whiteList(address)": "2967"
			}
		},
		"methodIdentifiers": {
			"PancakeSwap()": "196fd4be",
			"ReflectionTaxAmount()": "1d4140e1",
			"Taxs(uint256)": "ccbd73e7",
			"WBNB()": "8dd95002",
			"WBNBToken()": "82fab2ad",
			"Wallet()": "0e1b39fb",
			"WhiteList(address)": "6bc20157",
			"WithdrawReflectionTaxPersentage(address)": "0012d61a",
			"WithdrawTokens(address,uint256)": "680f2e4f",
			"WithdrawWBNB(address,uint256)": "b9e43eee",
			"allowance(address,address)": "dd62ed3e",
			"approve(address,uint256)": "095ea7b3",
			"balanceOf(address)": "70a08231",
			"burn(uint256)": "42966c68",
			"burnFrom(address,uint256)": "79cc6790",
			"decimals()": "313ce567",
			"decreaseAllowance(address,uint256)": "a457c2d7",
			"getBalanceWBNB(address)": "8568b3a5",
			"increaseAllowance(address,uint256)": "39509351",
			"isSwap()": "e319c2ce",
			"linkToken()": "57970e93",
			"name()": "06fdde03",
			"owner()": "8da5cb5b",
			"poolFee()": "089fe6aa",
			"reflectionUserDetail(address)": "b73f8007",
			"renounceOwnership()": "715018a6",
			"routerAddress()": "3268cc56",
			"setAddressFee(address,address,uint24)": "ca5fb573",
			"setInvestmentBuyTax(uint256)": "e67d6921",
			"setInvestmentSellTax(uint256)": "ea173a39",
			"setLPBuyTax(uint256)": "0445a103",
			"setLPSellTax(uint256)": "172cc5a7",
			"setLPXAmount(uint256)": "e465d64d",
			"setMarkettingBuyTax(uint256)": "c90880c1",
			"setMarkettingSellTax(uint256)": "afe2ddd7",
			"setMarkettingSwap(bool)": "24e2a33e",
			"setMarkettingXAmount(uint256)": "9c42ac13",
			"setReflectionBuyTax(uint256)": "36eab316",
			"setReflectionSellTax(uint256)": "446b5d5f",
			"swapExactInputSingle(uint256,address)": "793ea8d1",
			"swapRouter()": "c31c9c07",
			"symbol()": "95d89b41",
			"totalSupply()": "18160ddd",
			"transfer(address,uint256)": "a9059cbb",
			"transferFrom(address,address,uint256)": "23b872dd",
			"transferOwnership(address)": "f2fde38b",
			"whiteList(address)": "372c12b1"
		}
	},
	"abi": [
		{
			"inputs": [],
			"stateMutability": "nonpayable",
			"type": "constructor"
		},
		{
			"anonymous": false,
			"inputs": [
				{
					"indexed": true,
					"internalType": "address",
					"name": "owner",
					"type": "address"
				},
				{
					"indexed": true,
					"internalType": "address",
					"name": "spender",
					"type": "address"
				},
				{
					"indexed": false,
					"internalType": "uint256",
					"name": "value",
					"type": "uint256"
				}
			],
			"name": "Approval",
			"type": "event"
		},
		{
			"anonymous": false,
			"inputs": [
				{
					"indexed": true,
					"internalType": "address",
					"name": "previousOwner",
					"type": "address"
				},
				{
					"indexed": true,
					"internalType": "address",
					"name": "newOwner",
					"type": "address"
				}
			],
			"name": "OwnershipTransferred",
			"type": "event"
		},
		{
			"anonymous": false,
			"inputs": [
				{
					"indexed": true,
					"internalType": "address",
					"name": "from",
					"type": "address"
				},
				{
					"indexed": true,
					"internalType": "address",
					"name": "to",
					"type": "address"
				},
				{
					"indexed": false,
					"internalType": "uint256",
					"name": "value",
					"type": "uint256"
				}
			],
			"name": "Transfer",
			"type": "event"
		},
		{
			"inputs": [],
			"name": "PancakeSwap",
			"outputs": [
				{
					"internalType": "address",
					"name": "",
					"type": "address"
				}
			],
			"stateMutability": "view",
			"type": "function"
		},
		{
			"inputs": [],
			"name": "ReflectionTaxAmount",
			"outputs": [
				{
					"internalType": "uint256",
					"name": "",
					"type": "uint256"
				}
			],
			"stateMutability": "view",
			"type": "function"
		},
		{
			"inputs": [
				{
					"internalType": "uint256",
					"name": "",
					"type": "uint256"
				}
			],
			"name": "Taxs",
			"outputs": [
				{
					"internalType": "uint256",
					"name": "SellTax",
					"type": "uint256"
				},
				{
					"internalType": "uint256",
					"name": "BuyTax",
					"type": "uint256"
				},
				{
					"internalType": "uint256",
					"name": "XAmount",
					"type": "uint256"
				},
				{
					"internalType": "uint256",
					"name": "currentAmount",
					"type": "uint256"
				}
			],
			"stateMutability": "view",
			"type": "function"
		},
		{
			"inputs": [],
			"name": "WBNB",
			"outputs": [
				{
					"internalType": "address",
					"name": "",
					"type": "address"
				}
			],
			"stateMutability": "view",
			"type": "function"
		},
		{
			"inputs": [],
			"name": "WBNBToken",
			"outputs": [
				{
					"internalType": "contract IERC20",
					"name": "",
					"type": "address"
				}
			],
			"stateMutability": "view",
			"type": "function"
		},
		{
			"inputs": [],
			"name": "Wallet",
			"outputs": [
				{
					"internalType": "address",
					"name": "",
					"type": "address"
				}
			],
			"stateMutability": "view",
			"type": "function"
		},
		{
			"inputs": [
				{
					"internalType": "address",
					"name": "_address",
					"type": "address"
				}
			],
			"name": "WhiteList",
			"outputs": [],
			"stateMutability": "nonpayable",
			"type": "function"
		},
		{
			"inputs": [
				{
					"internalType": "address",
					"name": "from",
					"type": "address"
				}
			],
			"name": "WithdrawReflectionTaxPersentage",
			"outputs": [],
			"stateMutability": "nonpayable",
			"type": "function"
		},
		{
			"inputs": [
				{
					"internalType": "address",
					"name": "to",
					"type": "address"
				},
				{
					"internalType": "uint256",
					"name": "amount",
					"type": "uint256"
				}
			],
			"name": "WithdrawTokens",
			"outputs": [],
			"stateMutability": "nonpayable",
			"type": "function"
		},
		{
			"inputs": [
				{
					"internalType": "address",
					"name": "to",
					"type": "address"
				},
				{
					"internalType": "uint256",
					"name": "amount",
					"type": "uint256"
				}
			],
			"name": "WithdrawWBNB",
			"outputs": [],
			"stateMutability": "nonpayable",
			"type": "function"
		},
		{
			"inputs": [
				{
					"internalType": "address",
					"name": "owner",
					"type": "address"
				},
				{
					"internalType": "address",
					"name": "spender",
					"type": "address"
				}
			],
			"name": "allowance",
			"outputs": [
				{
					"internalType": "uint256",
					"name": "",
					"type": "uint256"
				}
			],
			"stateMutability": "view",
			"type": "function"
		},
		{
			"inputs": [
				{
					"internalType": "address",
					"name": "spender",
					"type": "address"
				},
				{
					"internalType": "uint256",
					"name": "amount",
					"type": "uint256"
				}
			],
			"name": "approve",
			"outputs": [
				{
					"internalType": "bool",
					"name": "",
					"type": "bool"
				}
			],
			"stateMutability": "nonpayable",
			"type": "function"
		},
		{
			"inputs": [
				{
					"internalType": "address",
					"name": "account",
					"type": "address"
				}
			],
			"name": "balanceOf",
			"outputs": [
				{
					"internalType": "uint256",
					"name": "",
					"type": "uint256"
				}
			],
			"stateMutability": "view",
			"type": "function"
		},
		{
			"inputs": [
				{
					"internalType": "uint256",
					"name": "amount",
					"type": "uint256"
				}
			],
			"name": "burn",
			"outputs": [],
			"stateMutability": "nonpayable",
			"type": "function"
		},
		{
			"inputs": [
				{
					"internalType": "address",
					"name": "account",
					"type": "address"
				},
				{
					"internalType": "uint256",
					"name": "amount",
					"type": "uint256"
				}
			],
			"name": "burnFrom",
			"outputs": [],
			"stateMutability": "nonpayable",
			"type": "function"
		},
		{
			"inputs": [],
			"name": "decimals",
			"outputs": [
				{
					"internalType": "uint8",
					"name": "",
					"type": "uint8"
				}
			],
			"stateMutability": "view",
			"type": "function"
		},
		{
			"inputs": [
				{
					"internalType": "address",
					"name": "spender",
					"type": "address"
				},
				{
					"internalType": "uint256",
					"name": "subtractedValue",
					"type": "uint256"
				}
			],
			"name": "decreaseAllowance",
			"outputs": [
				{
					"internalType": "bool",
					"name": "",
					"type": "bool"
				}
			],
			"stateMutability": "nonpayable",
			"type": "function"
		},
		{
			"inputs": [
				{
					"internalType": "address",
					"name": "contractAddress",
					"type": "address"
				}
			],
			"name": "getBalanceWBNB",
			"outputs": [
				{
					"internalType": "uint256",
					"name": "Balance",
					"type": "uint256"
				}
			],
			"stateMutability": "view",
			"type": "function"
		},
		{
			"inputs": [
				{
					"internalType": "address",
					"name": "spender",
					"type": "address"
				},
				{
					"internalType": "uint256",
					"name": "addedValue",
					"type": "uint256"
				}
			],
			"name": "increaseAllowance",
			"outputs": [
				{
					"internalType": "bool",
					"name": "",
					"type": "bool"
				}
			],
			"stateMutability": "nonpayable",
			"type": "function"
		},
		{
			"inputs": [],
			"name": "isSwap",
			"outputs": [
				{
					"internalType": "bool",
					"name": "",
					"type": "bool"
				}
			],
			"stateMutability": "view",
			"type": "function"
		},
		{
			"inputs": [],
			"name": "linkToken",
			"outputs": [
				{
					"internalType": "contract IERC20",
					"name": "",
					"type": "address"
				}
			],
			"stateMutability": "view",
			"type": "function"
		},
		{
			"inputs": [],
			"name": "name",
			"outputs": [
				{
					"internalType": "string",
					"name": "",
					"type": "string"
				}
			],
			"stateMutability": "view",
			"type": "function"
		},
		{
			"inputs": [],
			"name": "owner",
			"outputs": [
				{
					"internalType": "address",
					"name": "",
					"type": "address"
				}
			],
			"stateMutability": "view",
			"type": "function"
		},
		{
			"inputs": [],
			"name": "poolFee",
			"outputs": [
				{
					"internalType": "uint24",
					"name": "",
					"type": "uint24"
				}
			],
			"stateMutability": "view",
			"type": "function"
		},
		{
			"inputs": [
				{
					"internalType": "address",
					"name": "",
					"type": "address"
				}
			],
			"name": "reflectionUserDetail",
			"outputs": [
				{
					"internalType": "bool",
					"name": "withdraw",
					"type": "bool"
				},
				{
					"internalType": "bool",
					"name": "TAmount",
					"type": "bool"
				}
			],
			"stateMutability": "view",
			"type": "function"
		},
		{
			"inputs": [],
			"name": "renounceOwnership",
			"outputs": [],
			"stateMutability": "nonpayable",
			"type": "function"
		},
		{
			"inputs": [],
			"name": "routerAddress",
			"outputs": [
				{
					"internalType": "address",
					"name": "",
					"type": "address"
				}
			],
			"stateMutability": "view",
			"type": "function"
		},
		{
			"inputs": [
				{
					"internalType": "address",
					"name": "_PancakeSwapAddress",
					"type": "address"
				},
				{
					"internalType": "address",
					"name": "_WBNBAddress",
					"type": "address"
				},
				{
					"internalType": "uint24",
					"name": "_poolFee",
					"type": "uint24"
				}
			],
			"name": "setAddressFee",
			"outputs": [],
			"stateMutability": "nonpayable",
			"type": "function"
		},
		{
			"inputs": [
				{
					"internalType": "uint256",
					"name": "Tax",
					"type": "uint256"
				}
			],
			"name": "setInvestmentBuyTax",
			"outputs": [],
			"stateMutability": "nonpayable",
			"type": "function"
		},
		{
			"inputs": [
				{
					"internalType": "uint256",
					"name": "Tax",
					"type": "uint256"
				}
			],
			"name": "setInvestmentSellTax",
			"outputs": [],
			"stateMutability": "nonpayable",
			"type": "function"
		},
		{
			"inputs": [
				{
					"internalType": "uint256",
					"name": "Tax",
					"type": "uint256"
				}
			],
			"name": "setLPBuyTax",
			"outputs": [],
			"stateMutability": "nonpayable",
			"type": "function"
		},
		{
			"inputs": [
				{
					"internalType": "uint256",
					"name": "Tax",
					"type": "uint256"
				}
			],
			"name": "setLPSellTax",
			"outputs": [],
			"stateMutability": "nonpayable",
			"type": "function"
		},
		{
			"inputs": [
				{
					"internalType": "uint256",
					"name": "Amount",
					"type": "uint256"
				}
			],
			"name": "setLPXAmount",
			"outputs": [],
			"stateMutability": "nonpayable",
			"type": "function"
		},
		{
			"inputs": [
				{
					"internalType": "uint256",
					"name": "Tax",
					"type": "uint256"
				}
			],
			"name": "setMarkettingBuyTax",
			"outputs": [],
			"stateMutability": "nonpayable",
			"type": "function"
		},
		{
			"inputs": [
				{
					"internalType": "uint256",
					"name": "Tax",
					"type": "uint256"
				}
			],
			"name": "setMarkettingSellTax",
			"outputs": [],
			"stateMutability": "nonpayable",
			"type": "function"
		},
		{
			"inputs": [
				{
					"internalType": "bool",
					"name": "check",
					"type": "bool"
				}
			],
			"name": "setMarkettingSwap",
			"outputs": [],
			"stateMutability": "nonpayable",
			"type": "function"
		},
		{
			"inputs": [
				{
					"internalType": "uint256",
					"name": "Amount",
					"type": "uint256"
				}
			],
			"name": "setMarkettingXAmount",
			"outputs": [],
			"stateMutability": "nonpayable",
			"type": "function"
		},
		{
			"inputs": [
				{
					"internalType": "uint256",
					"name": "Tax",
					"type": "uint256"
				}
			],
			"name": "setReflectionBuyTax",
			"outputs": [],
			"stateMutability": "nonpayable",
			"type": "function"
		},
		{
			"inputs": [
				{
					"internalType": "uint256",
					"name": "Tax",
					"type": "uint256"
				}
			],
			"name": "setReflectionSellTax",
			"outputs": [],
			"stateMutability": "nonpayable",
			"type": "function"
		},
		{
			"inputs": [
				{
					"internalType": "uint256",
					"name": "amountIn",
					"type": "uint256"
				},
				{
					"internalType": "address",
					"name": "recipientAddresss",
					"type": "address"
				}
			],
			"name": "swapExactInputSingle",
			"outputs": [
				{
					"internalType": "uint256",
					"name": "amountOut",
					"type": "uint256"
				}
			],
			"stateMutability": "nonpayable",
			"type": "function"
		},
		{
			"inputs": [],
			"name": "swapRouter",
			"outputs": [
				{
					"internalType": "contract ISwapRouter",
					"name": "",
					"type": "address"
				}
			],
			"stateMutability": "view",
			"type": "function"
		},
		{
			"inputs": [],
			"name": "symbol",
			"outputs": [
				{
					"internalType": "string",
					"name": "",
					"type": "string"
				}
			],
			"stateMutability": "view",
			"type": "function"
		},
		{
			"inputs": [],
			"name": "totalSupply",
			"outputs": [
				{
					"internalType": "uint256",
					"name": "",
					"type": "uint256"
				}
			],
			"stateMutability": "view",
			"type": "function"
		},
		{
			"inputs": [
				{
					"internalType": "address",
					"name": "to",
					"type": "address"
				},
				{
					"internalType": "uint256",
					"name": "amount",
					"type": "uint256"
				}
			],
			"name": "transfer",
			"outputs": [
				{
					"internalType": "bool",
					"name": "",
					"type": "bool"
				}
			],
			"stateMutability": "nonpayable",
			"type": "function"
		},
		{
			"inputs": [
				{
					"internalType": "address",
					"name": "from",
					"type": "address"
				},
				{
					"internalType": "address",
					"name": "to",
					"type": "address"
				},
				{
					"internalType": "uint256",
					"name": "amount",
					"type": "uint256"
				}
			],
			"name": "transferFrom",
			"outputs": [
				{
					"internalType": "bool",
					"name": "",
					"type": "bool"
				}
			],
			"stateMutability": "nonpayable",
			"type": "function"
		},
		{
			"inputs": [
				{
					"internalType": "address",
					"name": "newOwner",
					"type": "address"
				}
			],
			"name": "transferOwnership",
			"outputs": [],
			"stateMutability": "nonpayable",
			"type": "function"
		},
		{
			"inputs": [
				{
					"internalType": "address",
					"name": "",
					"type": "address"
				}
			],
			"name": "whiteList",
			"outputs": [
				{
					"internalType": "bool",
					"name": "",
					"type": "bool"
				}
			],
			"stateMutability": "view",
			"type": "function"
		}
	]
}