{
	"data": {
		"bytecode": {
			"linkReferences": {},
			"object": "60a060405273e592427a0aece92de3edee1f18e0157c0586156473ffffffffffffffffffffffffffffffffffffffff1660809073ffffffffffffffffffffffffffffffffffffffff168152503480156200005857600080fd5b506040518060400160405280600e81526020017f46726f676769657320546f6b656e0000000000000000000000000000000000008152506040518060400160405280600581526020017f46524753540000000000000000000000000000000000000000000000000000008152508160039081620000d6919062000700565b508060049081620000e8919062000700565b5050506200010b620000ff6200023860201b60201c565b6200024060201b60201c565b6200014d33620001206200030660201b60201c565b600a6200012e919062000977565b655af3107a4000620001419190620009c8565b6200030f60201b60201c565b600960039054906101000a900473ffffffffffffffffffffffffffffffffffffffff16600e60006101000a81548173ffffffffffffffffffffffffffffffffffffffff021916908373ffffffffffffffffffffffffffffffffffffffff16021790555030600660006101000a81548173ffffffffffffffffffffffffffffffffffffffff021916908373ffffffffffffffffffffffffffffffffffffffff16021790555030600d60006101000a81548173ffffffffffffffffffffffffffffffffffffffff021916908373ffffffffffffffffffffffffffffffffffffffff16021790555062000aff565b600033905090565b6000600560009054906101000a900473ffffffffffffffffffffffffffffffffffffffff16905081600560006101000a81548173ffffffffffffffffffffffffffffffffffffffff021916908373ffffffffffffffffffffffffffffffffffffffff1602179055508173ffffffffffffffffffffffffffffffffffffffff168173ffffffffffffffffffffffffffffffffffffffff167f8be0079c531659141344cd1fd0a4f28419497f9722a3daafe3b4186f6b6457e060405160405180910390a35050565b60006012905090565b600073ffffffffffffffffffffffffffffffffffffffff168273ffffffffffffffffffffffffffffffffffffffff160362000381576040517f08c379a0000000000000000000000000000000000000000000000000000000008152600401620003789062000a74565b60405180910390fd5b62000395600083836200047c60201b60201c565b8060026000828254620003a9919062000a96565b92505081905550806000808473ffffffffffffffffffffffffffffffffffffffff1673ffffffffffffffffffffffffffffffffffffffff168152602001908152602001600020600082825401925050819055508173ffffffffffffffffffffffffffffffffffffffff16600073ffffffffffffffffffffffffffffffffffffffff167fddf252ad1be2c89b69c2b068fc378daa952ba7f163c4a11628f55a4df523b3ef836040516200045c919062000ae2565b60405180910390a362000478600083836200048160201b60201c565b5050565b505050565b505050565b600081519050919050565b7f4e487b7100000000000000000000000000000000000000000000000000000000600052604160045260246000fd5b7f4e487b7100000000000000000000000000000000000000000000000000000000600052602260045260246000fd5b600060028204905060018216806200050857607f821691505b6020821081036200051e576200051d620004c0565b5b50919050565b60008190508160005260206000209050919050565b60006020601f8301049050919050565b600082821b905092915050565b600060088302620005887fffffffffffffffffffffffffffffffffffffffffffffffffffffffffffffffff8262000549565b62000594868362000549565b95508019841693508086168417925050509392505050565b6000819050919050565b6000819050919050565b6000620005e1620005db620005d584620005ac565b620005b6565b620005ac565b9050919050565b6000819050919050565b620005fd83620005c0565b620006156200060c82620005e8565b84845462000556565b825550505050565b600090565b6200062c6200061d565b62000639818484620005f2565b505050565b5b8181101562000661576200065560008262000622565b6001810190506200063f565b5050565b601f821115620006b0576200067a8162000524565b620006858462000539565b8101602085101562000695578190505b620006ad620006a48562000539565b8301826200063e565b50505b505050565b600082821c905092915050565b6000620006d560001984600802620006b5565b1980831691505092915050565b6000620006f08383620006c2565b9150826002028217905092915050565b6200070b8262000486565b67ffffffffffffffff81111562000727576200072662000491565b5b620007338254620004ef565b6200074082828562000665565b600060209050601f83116001811462000778576000841562000763578287015190505b6200076f8582620006e2565b865550620007df565b601f198416620007888662000524565b60005b82811015620007b2578489015182556001820191506020850194506020810190506200078b565b86831015620007d25784890151620007ce601f891682620006c2565b8355505b6001600288020188555050505b505050505050565b7f4e487b7100000000000000000000000000000000000000000000000000000000600052601160045260246000fd5b60008160011c9050919050565b6000808291508390505b600185111562000875578086048111156200084d576200084c620007e7565b5b60018516156200085d5780820291505b80810290506200086d8562000816565b94506200082d565b94509492505050565b60008262000890576001905062000963565b81620008a0576000905062000963565b8160018114620008b95760028114620008c457620008fa565b600191505062000963565b60ff841115620008d957620008d8620007e7565b5b8360020a915084821115620008f357620008f2620007e7565b5b5062000963565b5060208310610133831016604e8410600b8410161715620009345782820a9050838111156200092e576200092d620007e7565b5b62000963565b62000943848484600162000823565b925090508184048111156200095d576200095c620007e7565b5b81810290505b9392505050565b600060ff82169050919050565b60006200098482620005ac565b915062000991836200096a565b9250620009c07fffffffffffffffffffffffffffffffffffffffffffffffffffffffffffffffff84846200087e565b905092915050565b6000620009d582620005ac565b9150620009e283620005ac565b9250828202620009f281620005ac565b9150828204841483151762000a0c5762000a0b620007e7565b5b5092915050565b600082825260208201905092915050565b7f45524332303a206d696e7420746f20746865207a65726f206164647265737300600082015250565b600062000a5c601f8362000a13565b915062000a698262000a24565b602082019050919050565b6000602082019050818103600083015262000a8f8162000a4d565b9050919050565b600062000aa382620005ac565b915062000ab083620005ac565b925082820190508082111562000acb5762000aca620007e7565b5b92915050565b62000adc81620005ac565b82525050565b600060208201905062000af9600083018462000ad1565b92915050565b60805161452962000b2960003960008181611479015281816115cc015261260001526145296000f3fe608060405234801561001057600080fd5b50600436106102945760003560e01c8063715018a611610167578063b73f8007116100ce578063dd62ed3e11610087578063dd62ed3e146107ff578063e319c2ce1461082f578063e465d64d1461084d578063e67d692114610869578063ea173a3914610885578063f2fde38b146108a157610294565b8063b73f800714610729578063b9e43eee1461075a578063c31c9c0714610776578063c90880c114610794578063ca5fb573146107b0578063ccbd73e7146107cc57610294565b80638dd95002116101205780638dd950021461065557806395d89b41146106735780639c42ac1314610691578063a457c2d7146106ad578063a9059cbb146106dd578063afe2ddd71461070d57610294565b8063715018a614610593578063793ea8d11461059d57806379cc6790146105cd57806382fab2ad146105e95780638568b3a5146106075780638da5cb5b1461063757610294565b806324e2a33e1161020b57806342966c68116101c457806342966c68146104d5578063446b5d5f146104f157806357970e931461050d578063680f2e4f1461052b5780636bc201571461054757806370a082311461056357610294565b806324e2a33e14610401578063313ce5671461041d5780633268cc561461043b57806336eab31614610459578063372c12b11461047557806339509351146104a557610294565b80630e1b39fb1161025d5780630e1b39fb1461033d578063172cc5a71461035b57806318160ddd14610377578063196fd4be146103955780631d4140e1146103b357806323b872dd146103d157610294565b806212d61a146102995780630445a103146102b557806306fdde03146102d1578063089fe6aa146102ef578063095ea7b31461030d575b600080fd5b6102b360048036038101906102ae9190613504565b6108bd565b005b6102cf60048036038101906102ca9190613567565b610b21565b005b6102d9610c7a565b6040516102e69190613624565b60405180910390f35b6102f7610d0c565b6040516103049190613664565b60405180910390f35b6103276004803603810190610322919061367f565b610d21565b60405161033491906136da565b60405180910390f35b610345610d44565b6040516103529190613704565b60405180910390f35b61037560048036038101906103709190613567565b610d6a565b005b61037f610ec3565b60405161038c919061372e565b60405180910390f35b61039d610ecd565b6040516103aa9190613704565b60405180910390f35b6103bb610ef3565b6040516103c8919061372e565b60405180910390f35b6103eb60048036038101906103e69190613749565b610ef9565b6040516103f891906136da565b60405180910390f35b61041b600480360381019061041691906137c8565b610f28565b005b610425610f4d565b6040516104329190613811565b60405180910390f35b610443610f56565b6040516104509190613704565b60405180910390f35b610473600480360381019061046e9190613567565b610f6e565b005b61048f600480360381019061048a9190613504565b6110c7565b60405161049c91906136da565b60405180910390f35b6104bf60048036038101906104ba919061367f565b6110e7565b6040516104cc91906136da565b60405180910390f35b6104ef60048036038101906104ea9190613567565b61111e565b005b61050b60048036038101906105069190613567565b611132565b005b6105156112ad565b604051610522919061388b565b60405180910390f35b6105456004803603810190610540919061367f565b6112d3565b005b610561600480360381019061055c9190613504565b611380565b005b61057d60048036038101906105789190613504565b6113db565b60405161058a919061372e565b60405180910390f35b61059b611423565b005b6105b760048036038101906105b291906138a6565b611437565b6040516105c4919061372e565b60405180910390f35b6105e760048036038101906105e2919061367f565b61166f565b005b6105f161168f565b6040516105fe919061388b565b60405180910390f35b610621600480360381019061061c9190613504565b6116b5565b60405161062e919061372e565b60405180910390f35b61063f61175a565b60405161064c9190613704565b60405180910390f35b61065d611784565b60405161066a9190613704565b60405180910390f35b61067b6117aa565b6040516106889190613624565b60405180910390f35b6106ab60048036038101906106a69190613567565b61183c565b005b6106c760048036038101906106c2919061367f565b611863565b6040516106d491906136da565b60405180910390f35b6106f760048036038101906106f2919061367f565b6118da565b60405161070491906136da565b60405180910390f35b61072760048036038101906107229190613567565b6123ba565b005b610743600480360381019061073e9190613504565b612513565b6040516107519291906138e6565b60405180910390f35b610774600480360381019061076f919061367f565b612551565b005b61077e6125fe565b60405161078b9190613930565b60405180910390f35b6107ae60048036038101906107a99190613567565b612622565b005b6107ca60048036038101906107c59190613977565b61277b565b005b6107e660048036038101906107e19190613567565b61286a565b6040516107f694939291906139ca565b60405180910390f35b61081960048036038101906108149190613a0f565b61289a565b604051610826919061372e565b60405180910390f35b610837612921565b60405161084491906136da565b60405180910390f35b61086760048036038101906108629190613567565b612934565b005b610883600480360381019061087e9190613567565b61295b565b005b61089f600480360381019061089a9190613567565b612ab4565b005b6108bb60048036038101906108b69190613504565b612c0d565b005b600b60008273ffffffffffffffffffffffffffffffffffffffff1673ffffffffffffffffffffffffffffffffffffffff16815260200190815260200160002060000160019054906101000a900460ff1661094c576040517f08c379a000000000000000000000000000000000000000000000000000000000815260040161094390613a9b565b60405180910390fd5b600b60008273ffffffffffffffffffffffffffffffffffffffff1673ffffffffffffffffffffffffffffffffffffffff16815260200190815260200160002060000160009054906101000a900460ff16156109dc576040517f08c379a00000000000000000000000000000000000000000000000000000000081526004016109d390613b07565b60405180910390fd5b60006109e6610ec3565b6008546109f2846113db565b6109fc9190613b56565b610a069190613bc7565b90506001600b60008473ffffffffffffffffffffffffffffffffffffffff1673ffffffffffffffffffffffffffffffffffffffff16815260200190815260200160002060000160006101000a81548160ff0219169083151502179055508060086000828254610a759190613bf8565b92505081905550600d60009054906101000a900473ffffffffffffffffffffffffffffffffffffffff1673ffffffffffffffffffffffffffffffffffffffff1663a9059cbb83836040518363ffffffff1660e01b8152600401610ad9929190613c2c565b6020604051808303816000875af1158015610af8573d6000803e3d6000fd5b505050506040513d601f19601f82011682018060405250810190610b1c9190613c6a565b505050565b610b29612c90565b600f81600c60006004815260200190815260200160002060000154600c60006003815260200190815260200160002060000154600c60006002815260200190815260200160002060000154600c60006001815260200190815260200160002060000154600c60006004815260200190815260200160002060010154600c60006003815260200190815260200160002060010154600c60006001815260200190815260200160002060010154610bde9190613c97565b610be89190613c97565b610bf29190613c97565b610bfc9190613c97565b610c069190613c97565b610c109190613c97565b610c1a9190613c97565b1115610c5b576040517f08c379a0000000000000000000000000000000000000000000000000000000008152600401610c5290613d3d565b60405180910390fd5b80600c6000600281526020019081526020016000206001018190555050565b606060038054610c8990613d8c565b80601f0160208091040260200160405190810160405280929190818152602001828054610cb590613d8c565b8015610d025780601f10610cd757610100808354040283529160200191610d02565b820191906000526020600020905b815481529060010190602001808311610ce557829003601f168201915b5050505050905090565b600960009054906101000a900462ffffff1681565b600080610d2c612d0e565b9050610d39818585612d16565b600191505092915050565b600660009054906101000a900473ffffffffffffffffffffffffffffffffffffffff1681565b610d72612c90565b600f81600c60006004815260200190815260200160002060000154600c60006003815260200190815260200160002060000154600c60006001815260200190815260200160002060000154600c60006004815260200190815260200160002060010154600c60006003815260200190815260200160002060010154600c60006002815260200190815260200160002060010154600c60006001815260200190815260200160002060010154610e279190613c97565b610e319190613c97565b610e3b9190613c97565b610e459190613c97565b610e4f9190613c97565b610e599190613c97565b610e639190613c97565b1115610ea4576040517f08c379a0000000000000000000000000000000000000000000000000000000008152600401610e9b90613d3d565b60405180910390fd5b80600c6000600281526020019081526020016000206000018190555050565b6000600254905090565b600760009054906101000a900473ffffffffffffffffffffffffffffffffffffffff1681565b60085481565b600080610f04612d0e565b9050610f11858285612edf565b610f1c858585612f6b565b60019150509392505050565b610f30612c90565b80600660146101000a81548160ff02191690831515021790555050565b60006012905090565b73e592427a0aece92de3edee1f18e0157c0586156481565b610f76612c90565b600f81600c60006004815260200190815260200160002060000154600c60006003815260200190815260200160002060000154600c60006002815260200190815260200160002060000154600c60006001815260200190815260200160002060000154600c60006004815260200190815260200160002060010154600c60006003815260200190815260200160002060010154600c6000600281526020019081526020016000206001015461102b9190613c97565b6110359190613c97565b61103f9190613c97565b6110499190613c97565b6110539190613c97565b61105d9190613c97565b6110679190613c97565b11156110a8576040517f08c379a000000000000000000000000000000000000000000000000000000000815260040161109f90613d3d565b60405180910390fd5b80600c6000600181526020019081526020016000206001018190555050565b600a6020528060005260406000206000915054906101000a900460ff1681565b6000806110f2612d0e565b9050611113818585611104858961289a565b61110e9190613c97565b612d16565b600191505092915050565b61112f611129612d0e565b826131e1565b50565b61113a612c90565b600f81600c60006004815260200190815260200160002060000154600c60006003815260200190815260200160002060000154600c60006002815260200190815260200160002060000154600c60006001815260200190815260200160002060000154600c60006004815260200190815260200160002060010154600c60006003815260200190815260200160002060010154600c60006002815260200190815260200160002060010154600c600060018152602001908152602001600020600101546112079190613c97565b6112119190613c97565b61121b9190613c97565b6112259190613c97565b61122f9190613c97565b6112399190613c97565b6112439190613c97565b61124d9190613c97565b111561128e576040517f08c379a000000000000000000000000000000000000000000000000000000000815260040161128590613d3d565b60405180910390fd5b80600c6000600181526020019081526020016000206000018190555050565b600d60009054906101000a900473ffffffffffffffffffffffffffffffffffffffff1681565b6112db612c90565b600d60009054906101000a900473ffffffffffffffffffffffffffffffffffffffff1673ffffffffffffffffffffffffffffffffffffffff1663a9059cbb83836040518363ffffffff1660e01b8152600401611338929190613c2c565b6020604051808303816000875af1158015611357573d6000803e3d6000fd5b505050506040513d601f19601f8201168201806040525081019061137b9190613c6a565b505050565b6001600a60008373ffffffffffffffffffffffffffffffffffffffff1673ffffffffffffffffffffffffffffffffffffffff16815260200190815260200160002060006101000a81548160ff02191690831515021790555050565b60008060008373ffffffffffffffffffffffffffffffffffffffff1673ffffffffffffffffffffffffffffffffffffffff168152602001908152602001600020549050919050565b61142b612c90565b61143560006133ae565b565b6000600d60009054906101000a900473ffffffffffffffffffffffffffffffffffffffff1673ffffffffffffffffffffffffffffffffffffffff1663095ea7b37f0000000000000000000000000000000000000000000000000000000000000000856040518363ffffffff1660e01b81526004016114b6929190613c2c565b6020604051808303816000875af11580156114d5573d6000803e3d6000fd5b505050506040513d601f19601f820116820180604052508101906114f99190613c6a565b5060006040518061010001604052803073ffffffffffffffffffffffffffffffffffffffff168152602001600960039054906101000a900473ffffffffffffffffffffffffffffffffffffffff1673ffffffffffffffffffffffffffffffffffffffff168152602001600960009054906101000a900462ffffff1662ffffff1681526020018473ffffffffffffffffffffffffffffffffffffffff16815260200142815260200185815260200160008152602001600073ffffffffffffffffffffffffffffffffffffffff1681525090507f000000000000000000000000000000000000000000000000000000000000000073ffffffffffffffffffffffffffffffffffffffff1663414bf389826040518263ffffffff1660e01b81526004016116239190613e9b565b6020604051808303816000875af1158015611642573d6000803e3d6000fd5b505050506040513d601f19601f820116820180604052508101906116669190613ecc565b91505092915050565b6116818261167b612d0e565b83612edf565b61168b82826131e1565b5050565b600e60009054906101000a900473ffffffffffffffffffffffffffffffffffffffff1681565b6000600e60009054906101000a900473ffffffffffffffffffffffffffffffffffffffff1673ffffffffffffffffffffffffffffffffffffffff166370a08231836040518263ffffffff1660e01b81526004016117129190613704565b602060405180830381865afa15801561172f573d6000803e3d6000fd5b505050506040513d601f19601f820116820180604052508101906117539190613ecc565b9050919050565b6000600560009054906101000a900473ffffffffffffffffffffffffffffffffffffffff16905090565b600960039054906101000a900473ffffffffffffffffffffffffffffffffffffffff1681565b6060600480546117b990613d8c565b80601f01602080910402602001604051908101604052809291908181526020018280546117e590613d8c565b80156118325780601f1061180757610100808354040283529160200191611832565b820191906000526020600020905b81548152906001019060200180831161181557829003601f168201915b5050505050905090565b611844612c90565b80600c6000600481526020019081526020016000206002018190555050565b60008061186e612d0e565b9050600061187c828661289a565b9050838110156118c1576040517f08c379a00000000000000000000000000000000000000000000000000000000081526004016118b890613f6b565b60405180910390fd5b6118ce8286868403612d16565b60019250505092915050565b6000600a60003373ffffffffffffffffffffffffffffffffffffffff1673ffffffffffffffffffffffffffffffffffffffff16815260200190815260200160002060009054906101000a900460ff161561193f576119388383613474565b90506123b4565b600760009054906101000a900473ffffffffffffffffffffffffffffffffffffffff1673ffffffffffffffffffffffffffffffffffffffff163373ffffffffffffffffffffffffffffffffffffffff1603611e735760006064600c60006001815260200190815260200160002060010154846119bb9190613b56565b6119c59190613bc7565b905060006064600c60006002815260200190815260200160002060010154856119ee9190613b56565b6119f89190613bc7565b905060006064600c6000600381526020019081526020016000206001015486611a219190613b56565b611a2b9190613bc7565b905060006064600c6000600481526020019081526020016000206001015487611a549190613b56565b611a5e9190613bc7565b90508360086000828254611a729190613c97565b925050819055506001600b60003373ffffffffffffffffffffffffffffffffffffffff1673ffffffffffffffffffffffffffffffffffffffff16815260200190815260200160002060000160016101000a81548160ff021916908315150217905550600c6000600281526020019081526020016000206002015483600c60006002815260200190815260200160002060030154611b0f9190613c97565b10158015611b3557506000600c6000600281526020019081526020016000206002015414155b15611c3f57611b89600760009054906101000a900473ffffffffffffffffffffffffffffffffffffffff166002600c60006002815260200190815260200160002060020154611b849190613bc7565b613474565b50611bd96002600c60006002815260200190815260200160002060020154611bb19190613bc7565b600760009054906101000a900473ffffffffffffffffffffffffffffffffffffffff16611437565b50600c6000600281526020019081526020016000206002015483600c60006002815260200190815260200160002060030154611c159190613c97565b611c1f9190613bf8565b600c60006002815260200190815260200160002060030181905550611c6e565b82600c6000600281526020019081526020016000206003016000828254611c669190613c97565b925050819055505b600c6000600481526020019081526020016000206002015481600c60006004815260200190815260200160002060030154611ca99190613c97565b10158015611cc35750600660149054906101000a900460ff165b8015611ce757506000600c6000600481526020019081526020016000206002015414155b15611d7357611d0d600c6000600481526020019081526020016000206002015430611437565b50600c6000600481526020019081526020016000206002015481600c60006004815260200190815260200160002060030154611d499190613c97565b611d539190613bf8565b600c60006004815260200190815260200160002060030181905550611da2565b80600c6000600481526020019081526020016000206003016000828254611d9a9190613c97565b925050819055505b611dce600660009054906101000a900473ffffffffffffffffffffffffffffffffffffffff1685613474565b50611dfb600660009054906101000a900473ffffffffffffffffffffffffffffffffffffffff1684613474565b50611e058261111e565b611e31600660009054906101000a900473ffffffffffffffffffffffffffffffffffffffff1682613474565b50611e688782848688611e449190613c97565b611e4e9190613c97565b611e589190613c97565b88611e639190613bf8565b613474565b9450505050506123b4565b600760009054906101000a900473ffffffffffffffffffffffffffffffffffffffff1673ffffffffffffffffffffffffffffffffffffffff168373ffffffffffffffffffffffffffffffffffffffff16036123a75760006064600c6000600181526020019081526020016000206000015484611eef9190613b56565b611ef99190613bc7565b905060006064600c6000600281526020019081526020016000206000015485611f229190613b56565b611f2c9190613bc7565b905060006064600c6000600381526020019081526020016000206000015486611f559190613b56565b611f5f9190613bc7565b905060006064600c6000600481526020019081526020016000206000015487611f889190613b56565b611f929190613bc7565b90508360086000828254611fa69190613c97565b925050819055506001600b60003373ffffffffffffffffffffffffffffffffffffffff1673ffffffffffffffffffffffffffffffffffffffff16815260200190815260200160002060000160016101000a81548160ff021916908315150217905550600c6000600281526020019081526020016000206002015483600c600060028152602001908152602001600020600301546120439190613c97565b1015801561206957506000600c6000600281526020019081526020016000206002015414155b15612173576120bd600760009054906101000a900473ffffffffffffffffffffffffffffffffffffffff166002600c600060028152602001908152602001600020600201546120b89190613bc7565b613474565b5061210d6002600c600060028152602001908152602001600020600201546120e59190613bc7565b600760009054906101000a900473ffffffffffffffffffffffffffffffffffffffff16611437565b50600c6000600281526020019081526020016000206002015483600c600060028152602001908152602001600020600301546121499190613c97565b6121539190613bf8565b600c600060028152602001908152602001600020600301819055506121a2565b82600c600060028152602001908152602001600020600301600082825461219a9190613c97565b925050819055505b600c6000600481526020019081526020016000206002015481600c600060048152602001908152602001600020600301546121dd9190613c97565b101580156121f75750600660149054906101000a900460ff165b801561221b57506000600c6000600481526020019081526020016000206002015414155b156122a757612241600c6000600481526020019081526020016000206002015430611437565b50600c6000600481526020019081526020016000206002015481600c6000600481526020019081526020016000206003015461227d9190613c97565b6122879190613bf8565b600c600060048152602001908152602001600020600301819055506122d6565b80600c60006004815260200190815260200160002060030160008282546122ce9190613c97565b925050819055505b612302600660009054906101000a900473ffffffffffffffffffffffffffffffffffffffff1685613474565b5061232f600660009054906101000a900473ffffffffffffffffffffffffffffffffffffffff1684613474565b506123398261111e565b612365600660009054906101000a900473ffffffffffffffffffffffffffffffffffffffff1682613474565b5061239c87828486886123789190613c97565b6123829190613c97565b61238c9190613c97565b886123979190613bf8565b613474565b9450505050506123b4565b6123b18383613474565b90505b92915050565b6123c2612c90565b600f81600c60006003815260200190815260200160002060000154600c60006002815260200190815260200160002060000154600c60006001815260200190815260200160002060000154600c60006004815260200190815260200160002060010154600c60006003815260200190815260200160002060010154600c60006002815260200190815260200160002060010154600c600060018152602001908152602001600020600101546124779190613c97565b6124819190613c97565b61248b9190613c97565b6124959190613c97565b61249f9190613c97565b6124a99190613c97565b6124b39190613c97565b11156124f4576040517f08c379a00000000000000000000000000000000000000000000000000000000081526004016124eb90613d3d565b60405180910390fd5b80600c6000600481526020019081526020016000206000018190555050565b600b6020528060005260406000206000915090508060000160009054906101000a900460ff16908060000160019054906101000a900460ff16905082565b612559612c90565b600e60009054906101000a900473ffffffffffffffffffffffffffffffffffffffff1673ffffffffffffffffffffffffffffffffffffffff1663a9059cbb83836040518363ffffffff1660e01b81526004016125b6929190613c2c565b6020604051808303816000875af11580156125d5573d6000803e3d6000fd5b505050506040513d601f19601f820116820180604052508101906125f99190613c6a565b505050565b7f000000000000000000000000000000000000000000000000000000000000000081565b61262a612c90565b600f81600c60006004815260200190815260200160002060000154600c60006003815260200190815260200160002060000154600c60006002815260200190815260200160002060000154600c60006001815260200190815260200160002060000154600c60006003815260200190815260200160002060010154600c60006002815260200190815260200160002060010154600c600060018152602001908152602001600020600101546126df9190613c97565b6126e99190613c97565b6126f39190613c97565b6126fd9190613c97565b6127079190613c97565b6127119190613c97565b61271b9190613c97565b111561275c576040517f08c379a000000000000000000000000000000000000000000000000000000000815260040161275390613d3d565b60405180910390fd5b80600c6000600481526020019081526020016000206001018190555050565b612783612c90565b82600760006101000a81548173ffffffffffffffffffffffffffffffffffffffff021916908373ffffffffffffffffffffffffffffffffffffffff16021790555081600e60006101000a81548173ffffffffffffffffffffffffffffffffffffffff021916908373ffffffffffffffffffffffffffffffffffffffff16021790555081600960036101000a81548173ffffffffffffffffffffffffffffffffffffffff021916908373ffffffffffffffffffffffffffffffffffffffff16021790555080600960006101000a81548162ffffff021916908362ffffff160217905550505050565b600c6020528060005260406000206000915090508060000154908060010154908060020154908060030154905084565b6000600160008473ffffffffffffffffffffffffffffffffffffffff1673ffffffffffffffffffffffffffffffffffffffff16815260200190815260200160002060008373ffffffffffffffffffffffffffffffffffffffff1673ffffffffffffffffffffffffffffffffffffffff16815260200190815260200160002054905092915050565b600660149054906101000a900460ff1681565b61293c612c90565b80600c6000600281526020019081526020016000206002018190555050565b612963612c90565b600f81600c60006004815260200190815260200160002060000154600c60006003815260200190815260200160002060000154600c60006002815260200190815260200160002060000154600c60006001815260200190815260200160002060000154600c60006004815260200190815260200160002060010154600c60006002815260200190815260200160002060010154600c60006001815260200190815260200160002060010154612a189190613c97565b612a229190613c97565b612a2c9190613c97565b612a369190613c97565b612a409190613c97565b612a4a9190613c97565b612a549190613c97565b1115612a95576040517f08c379a0000000000000000000000000000000000000000000000000000000008152600401612a8c90613d3d565b60405180910390fd5b80600c6000600381526020019081526020016000206001018190555050565b612abc612c90565b600f81600c60006004815260200190815260200160002060000154600c60006002815260200190815260200160002060000154600c60006001815260200190815260200160002060000154600c60006004815260200190815260200160002060010154600c60006003815260200190815260200160002060010154600c60006002815260200190815260200160002060010154600c60006001815260200190815260200160002060010154612b719190613c97565b612b7b9190613c97565b612b859190613c97565b612b8f9190613c97565b612b999190613c97565b612ba39190613c97565b612bad9190613c97565b1115612bee576040517f08c379a0000000000000000000000000000000000000000000000000000000008152600401612be590613d3d565b60405180910390fd5b80600c6000600381526020019081526020016000206000018190555050565b612c15612c90565b600073ffffffffffffffffffffffffffffffffffffffff168173ffffffffffffffffffffffffffffffffffffffff1603612c84576040517f08c379a0000000000000000000000000000000000000000000000000000000008152600401612c7b90613ffd565b60405180910390fd5b612c8d816133ae565b50565b612c98612d0e565b73ffffffffffffffffffffffffffffffffffffffff16612cb661175a565b73ffffffffffffffffffffffffffffffffffffffff1614612d0c576040517f08c379a0000000000000000000000000000000000000000000000000000000008152600401612d0390614069565b60405180910390fd5b565b600033905090565b600073ffffffffffffffffffffffffffffffffffffffff168373ffffffffffffffffffffffffffffffffffffffff1603612d85576040517f08c379a0000000000000000000000000000000000000000000000000000000008152600401612d7c906140fb565b60405180910390fd5b600073ffffffffffffffffffffffffffffffffffffffff168273ffffffffffffffffffffffffffffffffffffffff1603612df4576040517f08c379a0000000000000000000000000000000000000000000000000000000008152600401612deb9061418d565b60405180910390fd5b80600160008573ffffffffffffffffffffffffffffffffffffffff1673ffffffffffffffffffffffffffffffffffffffff16815260200190815260200160002060008473ffffffffffffffffffffffffffffffffffffffff1673ffffffffffffffffffffffffffffffffffffffff168152602001908152602001600020819055508173ffffffffffffffffffffffffffffffffffffffff168373ffffffffffffffffffffffffffffffffffffffff167f8c5be1e5ebec7d5bd14f71427d1e84f3dd0314c0f7b2291e5b200ac8c7c3b92583604051612ed2919061372e565b60405180910390a3505050565b6000612eeb848461289a565b90507fffffffffffffffffffffffffffffffffffffffffffffffffffffffffffffffff8114612f655781811015612f57576040517f08c379a0000000000000000000000000000000000000000000000000000000008152600401612f4e906141f9565b60405180910390fd5b612f648484848403612d16565b5b50505050565b600073ffffffffffffffffffffffffffffffffffffffff168373ffffffffffffffffffffffffffffffffffffffff1603612fda576040517f08c379a0000000000000000000000000000000000000000000000000000000008152600401612fd19061428b565b60405180910390fd5b600073ffffffffffffffffffffffffffffffffffffffff168273ffffffffffffffffffffffffffffffffffffffff1603613049576040517f08c379a00000000000000000000000000000000000000000000000000000000081526004016130409061431d565b60405180910390fd5b613054838383613497565b60008060008573ffffffffffffffffffffffffffffffffffffffff1673ffffffffffffffffffffffffffffffffffffffff168152602001908152602001600020549050818110156130da576040517f08c379a00000000000000000000000000000000000000000000000000000000081526004016130d1906143af565b60405180910390fd5b8181036000808673ffffffffffffffffffffffffffffffffffffffff1673ffffffffffffffffffffffffffffffffffffffff16815260200190815260200160002081905550816000808573ffffffffffffffffffffffffffffffffffffffff1673ffffffffffffffffffffffffffffffffffffffff168152602001908152602001600020600082825401925050819055508273ffffffffffffffffffffffffffffffffffffffff168473ffffffffffffffffffffffffffffffffffffffff167fddf252ad1be2c89b69c2b068fc378daa952ba7f163c4a11628f55a4df523b3ef846040516131c8919061372e565b60405180910390a36131db84848461349c565b50505050565b600073ffffffffffffffffffffffffffffffffffffffff168273ffffffffffffffffffffffffffffffffffffffff1603613250576040517f08c379a000000000000000000000000000000000000000000000000000000000815260040161324790614441565b60405180910390fd5b61325c82600083613497565b60008060008473ffffffffffffffffffffffffffffffffffffffff1673ffffffffffffffffffffffffffffffffffffffff168152602001908152602001600020549050818110156132e2576040517f08c379a00000000000000000000000000000000000000000000000000000000081526004016132d9906144d3565b60405180910390fd5b8181036000808573ffffffffffffffffffffffffffffffffffffffff1673ffffffffffffffffffffffffffffffffffffffff1681526020019081526020016000208190555081600260008282540392505081905550600073ffffffffffffffffffffffffffffffffffffffff168373ffffffffffffffffffffffffffffffffffffffff167fddf252ad1be2c89b69c2b068fc378daa952ba7f163c4a11628f55a4df523b3ef84604051613395919061372e565b60405180910390a36133a98360008461349c565b505050565b6000600560009054906101000a900473ffffffffffffffffffffffffffffffffffffffff16905081600560006101000a81548173ffffffffffffffffffffffffffffffffffffffff021916908373ffffffffffffffffffffffffffffffffffffffff1602179055508173ffffffffffffffffffffffffffffffffffffffff168173ffffffffffffffffffffffffffffffffffffffff167f8be0079c531659141344cd1fd0a4f28419497f9722a3daafe3b4186f6b6457e060405160405180910390a35050565b60008061347f612d0e565b905061348c818585612f6b565b600191505092915050565b505050565b505050565b600080fd5b600073ffffffffffffffffffffffffffffffffffffffff82169050919050565b60006134d1826134a6565b9050919050565b6134e1816134c6565b81146134ec57600080fd5b50565b6000813590506134fe816134d8565b92915050565b60006020828403121561351a576135196134a1565b5b6000613528848285016134ef565b91505092915050565b6000819050919050565b61354481613531565b811461354f57600080fd5b50565b6000813590506135618161353b565b92915050565b60006020828403121561357d5761357c6134a1565b5b600061358b84828501613552565b91505092915050565b600081519050919050565b600082825260208201905092915050565b60005b838110156135ce5780820151818401526020810190506135b3565b60008484015250505050565b6000601f19601f8301169050919050565b60006135f682613594565b613600818561359f565b93506136108185602086016135b0565b613619816135da565b840191505092915050565b6000602082019050818103600083015261363e81846135eb565b905092915050565b600062ffffff82169050919050565b61365e81613646565b82525050565b60006020820190506136796000830184613655565b92915050565b60008060408385031215613696576136956134a1565b5b60006136a4858286016134ef565b92505060206136b585828601613552565b9150509250929050565b60008115159050919050565b6136d4816136bf565b82525050565b60006020820190506136ef60008301846136cb565b92915050565b6136fe816134c6565b82525050565b600060208201905061371960008301846136f5565b92915050565b61372881613531565b82525050565b6000602082019050613743600083018461371f565b92915050565b600080600060608486031215613762576137616134a1565b5b6000613770868287016134ef565b9350506020613781868287016134ef565b925050604061379286828701613552565b9150509250925092565b6137a5816136bf565b81146137b057600080fd5b50565b6000813590506137c28161379c565b92915050565b6000602082840312156137de576137dd6134a1565b5b60006137ec848285016137b3565b91505092915050565b600060ff82169050919050565b61380b816137f5565b82525050565b60006020820190506138266000830184613802565b92915050565b6000819050919050565b600061385161384c613847846134a6565b61382c565b6134a6565b9050919050565b600061386382613836565b9050919050565b600061387582613858565b9050919050565b6138858161386a565b82525050565b60006020820190506138a0600083018461387c565b92915050565b600080604083850312156138bd576138bc6134a1565b5b60006138cb85828601613552565b92505060206138dc858286016134ef565b9150509250929050565b60006040820190506138fb60008301856136cb565b61390860208301846136cb565b9392505050565b600061391a82613858565b9050919050565b61392a8161390f565b82525050565b60006020820190506139456000830184613921565b92915050565b61395481613646565b811461395f57600080fd5b50565b6000813590506139718161394b565b92915050565b6000806000606084860312156139905761398f6134a1565b5b600061399e868287016134ef565b93505060206139af868287016134ef565b92505060406139c086828701613962565b9150509250925092565b60006080820190506139df600083018761371f565b6139ec602083018661371f565b6139f9604083018561371f565b613a06606083018461371f565b95945050505050565b60008060408385031215613a2657613a256134a1565b5b6000613a34858286016134ef565b9250506020613a45858286016134ef565b9150509250929050565b7f4669727374205472616e7366657220546f6b656e730000000000000000000000600082015250565b6000613a8560158361359f565b9150613a9082613a4f565b602082019050919050565b60006020820190508181036000830152613ab481613a78565b9050919050565b7f596f7520416c7265616479205769746864726177000000000000000000000000600082015250565b6000613af160148361359f565b9150613afc82613abb565b602082019050919050565b60006020820190508181036000830152613b2081613ae4565b9050919050565b7f4e487b7100000000000000000000000000000000000000000000000000000000600052601160045260246000fd5b6000613b6182613531565b9150613b6c83613531565b9250828202613b7a81613531565b91508282048414831517613b9157613b90613b27565b5b5092915050565b7f4e487b7100000000000000000000000000000000000000000000000000000000600052601260045260246000fd5b6000613bd282613531565b9150613bdd83613531565b925082613bed57613bec613b98565b5b828204905092915050565b6000613c0382613531565b9150613c0e83613531565b9250828203905081811115613c2657613c25613b27565b5b92915050565b6000604082019050613c4160008301856136f5565b613c4e602083018461371f565b9392505050565b600081519050613c648161379c565b92915050565b600060208284031215613c8057613c7f6134a1565b5b6000613c8e84828501613c55565b91505092915050565b6000613ca282613531565b9150613cad83613531565b9250828201905080821115613cc557613cc4613b27565b5b92915050565b7f53756d206f66205461782050657273656e74616765206d75737420626520302060008201527f746f203135000000000000000000000000000000000000000000000000000000602082015250565b6000613d2760258361359f565b9150613d3282613ccb565b604082019050919050565b60006020820190508181036000830152613d5681613d1a565b9050919050565b7f4e487b7100000000000000000000000000000000000000000000000000000000600052602260045260246000fd5b60006002820490506001821680613da457607f821691505b602082108103613db757613db6613d5d565b5b50919050565b613dc6816134c6565b82525050565b613dd581613646565b82525050565b613de481613531565b82525050565b613df3816134a6565b82525050565b61010082016000820151613e106000850182613dbd565b506020820151613e236020850182613dbd565b506040820151613e366040850182613dcc565b506060820151613e496060850182613dbd565b506080820151613e5c6080850182613ddb565b5060a0820151613e6f60a0850182613ddb565b5060c0820151613e8260c0850182613ddb565b5060e0820151613e9560e0850182613dea565b50505050565b600061010082019050613eb16000830184613df9565b92915050565b600081519050613ec68161353b565b92915050565b600060208284031215613ee257613ee16134a1565b5b6000613ef084828501613eb7565b91505092915050565b7f45524332303a2064656372656173656420616c6c6f77616e63652062656c6f7760008201527f207a65726f000000000000000000000000000000000000000000000000000000602082015250565b6000613f5560258361359f565b9150613f6082613ef9565b604082019050919050565b60006020820190508181036000830152613f8481613f48565b9050919050565b7f4f776e61626c653a206e6577206f776e657220697320746865207a65726f206160008201527f6464726573730000000000000000000000000000000000000000000000000000602082015250565b6000613fe760268361359f565b9150613ff282613f8b565b604082019050919050565b6000602082019050818103600083015261401681613fda565b9050919050565b7f4f776e61626c653a2063616c6c6572206973206e6f7420746865206f776e6572600082015250565b600061405360208361359f565b915061405e8261401d565b602082019050919050565b6000602082019050818103600083015261408281614046565b9050919050565b7f45524332303a20617070726f76652066726f6d20746865207a65726f2061646460008201527f7265737300000000000000000000000000000000000000000000000000000000602082015250565b60006140e560248361359f565b91506140f082614089565b604082019050919050565b60006020820190508181036000830152614114816140d8565b9050919050565b7f45524332303a20617070726f766520746f20746865207a65726f20616464726560008201527f7373000000000000000000000000000000000000000000000000000000000000602082015250565b600061417760228361359f565b91506141828261411b565b604082019050919050565b600060208201905081810360008301526141a68161416a565b9050919050565b7f45524332303a20696e73756666696369656e7420616c6c6f77616e6365000000600082015250565b60006141e3601d8361359f565b91506141ee826141ad565b602082019050919050565b60006020820190508181036000830152614212816141d6565b9050919050565b7f45524332303a207472616e736665722066726f6d20746865207a65726f20616460008201527f6472657373000000000000000000000000000000000000000000000000000000602082015250565b600061427560258361359f565b915061428082614219565b604082019050919050565b600060208201905081810360008301526142a481614268565b9050919050565b7f45524332303a207472616e7366657220746f20746865207a65726f206164647260008201527f6573730000000000000000000000000000000000000000000000000000000000602082015250565b600061430760238361359f565b9150614312826142ab565b604082019050919050565b60006020820190508181036000830152614336816142fa565b9050919050565b7f45524332303a207472616e7366657220616d6f756e742065786365656473206260008201527f616c616e63650000000000000000000000000000000000000000000000000000602082015250565b600061439960268361359f565b91506143a48261433d565b604082019050919050565b600060208201905081810360008301526143c88161438c565b9050919050565b7f45524332303a206275726e2066726f6d20746865207a65726f2061646472657360008201527f7300000000000000000000000000000000000000000000000000000000000000602082015250565b600061442b60218361359f565b9150614436826143cf565b604082019050919050565b6000602082019050818103600083015261445a8161441e565b9050919050565b7f45524332303a206275726e20616d6f756e7420657863656564732062616c616e60008201527f6365000000000000000000000000000000000000000000000000000000000000602082015250565b60006144bd60228361359f565b91506144c882614461565b604082019050919050565b600060208201905081810360008301526144ec816144b0565b905091905056fea2646970667358221220e7202b2bc714547f2e400d5ac1b6964acc843619cb10bb3be87842a4aa84120764736f6c63430008130033",
			"opcodes": "PUSH1 0xA0 PUSH1 0x40 MSTORE PUSH20 0xE592427A0AECE92DE3EDEE1F18E0157C05861564 PUSH20 0xFFFFFFFFFFFFFFFFFFFFFFFFFFFFFFFFFFFFFFFF AND PUSH1 0x80 SWAP1 PUSH20 0xFFFFFFFFFFFFFFFFFFFFFFFFFFFFFFFFFFFFFFFF AND DUP2 MSTORE POP CALLVALUE DUP1 ISZERO PUSH3 0x58 JUMPI PUSH1 0x0 DUP1 REVERT JUMPDEST POP PUSH1 0x40 MLOAD DUP1 PUSH1 0x40 ADD PUSH1 0x40 MSTORE DUP1 PUSH1 0xE DUP2 MSTORE PUSH1 0x20 ADD PUSH32 0x46726F676769657320546F6B656E000000000000000000000000000000000000 DUP2 MSTORE POP PUSH1 0x40 MLOAD DUP1 PUSH1 0x40 ADD PUSH1 0x40 MSTORE DUP1 PUSH1 0x5 DUP2 MSTORE PUSH1 0x20 ADD PUSH32 0x4652475354000000000000000000000000000000000000000000000000000000 DUP2 MSTORE POP DUP2 PUSH1 0x3 SWAP1 DUP2 PUSH3 0xD6 SWAP2 SWAP1 PUSH3 0x700 JUMP JUMPDEST POP DUP1 PUSH1 0x4 SWAP1 DUP2 PUSH3 0xE8 SWAP2 SWAP1 PUSH3 0x700 JUMP JUMPDEST POP POP POP PUSH3 0x10B PUSH3 0xFF PUSH3 0x238 PUSH1 0x20 SHL PUSH1 0x20 SHR JUMP JUMPDEST PUSH3 0x240 PUSH1 0x20 SHL PUSH1 0x20 SHR JUMP JUMPDEST PUSH3 0x14D CALLER PUSH3 0x120 PUSH3 0x306 PUSH1 0x20 SHL PUSH1 0x20 SHR JUMP JUMPDEST PUSH1 0xA PUSH3 0x12E SWAP2 SWAP1 PUSH3 0x977 JUMP JUMPDEST PUSH6 0x5AF3107A4000 PUSH3 0x141 SWAP2 SWAP1 PUSH3 0x9C8 JUMP JUMPDEST PUSH3 0x30F PUSH1 0x20 SHL PUSH1 0x20 SHR JUMP JUMPDEST PUSH1 0x9 PUSH1 0x3 SWAP1 SLOAD SWAP1 PUSH2 0x100 EXP SWAP1 DIV PUSH20 0xFFFFFFFFFFFFFFFFFFFFFFFFFFFFFFFFFFFFFFFF AND PUSH1 0xE PUSH1 0x0 PUSH2 0x100 EXP DUP2 SLOAD DUP2 PUSH20 0xFFFFFFFFFFFFFFFFFFFFFFFFFFFFFFFFFFFFFFFF MUL NOT AND SWAP1 DUP4 PUSH20 0xFFFFFFFFFFFFFFFFFFFFFFFFFFFFFFFFFFFFFFFF AND MUL OR SWAP1 SSTORE POP ADDRESS PUSH1 0x6 PUSH1 0x0 PUSH2 0x100 EXP DUP2 SLOAD DUP2 PUSH20 0xFFFFFFFFFFFFFFFFFFFFFFFFFFFFFFFFFFFFFFFF MUL NOT AND SWAP1 DUP4 PUSH20 0xFFFFFFFFFFFFFFFFFFFFFFFFFFFFFFFFFFFFFFFF AND MUL OR SWAP1 SSTORE POP ADDRESS PUSH1 0xD PUSH1 0x0 PUSH2 0x100 EXP DUP2 SLOAD DUP2 PUSH20 0xFFFFFFFFFFFFFFFFFFFFFFFFFFFFFFFFFFFFFFFF MUL NOT AND SWAP1 DUP4 PUSH20 0xFFFFFFFFFFFFFFFFFFFFFFFFFFFFFFFFFFFFFFFF AND MUL OR SWAP1 SSTORE POP PUSH3 0xAFF JUMP JUMPDEST PUSH1 0x0 CALLER SWAP1 POP SWAP1 JUMP JUMPDEST PUSH1 0x0 PUSH1 0x5 PUSH1 0x0 SWAP1 SLOAD SWAP1 PUSH2 0x100 EXP SWAP1 DIV PUSH20 0xFFFFFFFFFFFFFFFFFFFFFFFFFFFFFFFFFFFFFFFF AND SWAP1 POP DUP2 PUSH1 0x5 PUSH1 0x0 PUSH2 0x100 EXP DUP2 SLOAD DUP2 PUSH20 0xFFFFFFFFFFFFFFFFFFFFFFFFFFFFFFFFFFFFFFFF MUL NOT AND SWAP1 DUP4 PUSH20 0xFFFFFFFFFFFFFFFFFFFFFFFFFFFFFFFFFFFFFFFF AND MUL OR SWAP1 SSTORE POP DUP2 PUSH20 0xFFFFFFFFFFFFFFFFFFFFFFFFFFFFFFFFFFFFFFFF AND DUP2 PUSH20 0xFFFFFFFFFFFFFFFFFFFFFFFFFFFFFFFFFFFFFFFF AND PUSH32 0x8BE0079C531659141344CD1FD0A4F28419497F9722A3DAAFE3B4186F6B6457E0 PUSH1 0x40 MLOAD PUSH1 0x40 MLOAD DUP1 SWAP2 SUB SWAP1 LOG3 POP POP JUMP JUMPDEST PUSH1 0x0 PUSH1 0x12 SWAP1 POP SWAP1 JUMP JUMPDEST PUSH1 0x0 PUSH20 0xFFFFFFFFFFFFFFFFFFFFFFFFFFFFFFFFFFFFFFFF AND DUP3 PUSH20 0xFFFFFFFFFFFFFFFFFFFFFFFFFFFFFFFFFFFFFFFF AND SUB PUSH3 0x381 JUMPI PUSH1 0x40 MLOAD PUSH32 0x8C379A000000000000000000000000000000000000000000000000000000000 DUP2 MSTORE PUSH1 0x4 ADD PUSH3 0x378 SWAP1 PUSH3 0xA74 JUMP JUMPDEST PUSH1 0x40 MLOAD DUP1 SWAP2 SUB SWAP1 REVERT JUMPDEST PUSH3 0x395 PUSH1 0x0 DUP4 DUP4 PUSH3 0x47C PUSH1 0x20 SHL PUSH1 0x20 SHR JUMP JUMPDEST DUP1 PUSH1 0x2 PUSH1 0x0 DUP3 DUP3 SLOAD PUSH3 0x3A9 SWAP2 SWAP1 PUSH3 0xA96 JUMP JUMPDEST SWAP3 POP POP DUP2 SWAP1 SSTORE POP DUP1 PUSH1 0x0 DUP1 DUP5 PUSH20 0xFFFFFFFFFFFFFFFFFFFFFFFFFFFFFFFFFFFFFFFF AND PUSH20 0xFFFFFFFFFFFFFFFFFFFFFFFFFFFFFFFFFFFFFFFF AND DUP2 MSTORE PUSH1 0x20 ADD SWAP1 DUP2 MSTORE PUSH1 0x20 ADD PUSH1 0x0 KECCAK256 PUSH1 0x0 DUP3 DUP3 SLOAD ADD SWAP3 POP POP DUP2 SWAP1 SSTORE POP DUP2 PUSH20 0xFFFFFFFFFFFFFFFFFFFFFFFFFFFFFFFFFFFFFFFF AND PUSH1 0x0 PUSH20 0xFFFFFFFFFFFFFFFFFFFFFFFFFFFFFFFFFFFFFFFF AND PUSH32 0xDDF252AD1BE2C89B69C2B068FC378DAA952BA7F163C4A11628F55A4DF523B3EF DUP4 PUSH1 0x40 MLOAD PUSH3 0x45C SWAP2 SWAP1 PUSH3 0xAE2 JUMP JUMPDEST PUSH1 0x40 MLOAD DUP1 SWAP2 SUB SWAP1 LOG3 PUSH3 0x478 PUSH1 0x0 DUP4 DUP4 PUSH3 0x481 PUSH1 0x20 SHL PUSH1 0x20 SHR JUMP JUMPDEST POP POP JUMP JUMPDEST POP POP POP JUMP JUMPDEST POP POP POP JUMP JUMPDEST PUSH1 0x0 DUP2 MLOAD SWAP1 POP SWAP2 SWAP1 POP JUMP JUMPDEST PUSH32 0x4E487B7100000000000000000000000000000000000000000000000000000000 PUSH1 0x0 MSTORE PUSH1 0x41 PUSH1 0x4 MSTORE PUSH1 0x24 PUSH1 0x0 REVERT JUMPDEST PUSH32 0x4E487B7100000000000000000000000000000000000000000000000000000000 PUSH1 0x0 MSTORE PUSH1 0x22 PUSH1 0x4 MSTORE PUSH1 0x24 PUSH1 0x0 REVERT JUMPDEST PUSH1 0x0 PUSH1 0x2 DUP3 DIV SWAP1 POP PUSH1 0x1 DUP3 AND DUP1 PUSH3 0x508 JUMPI PUSH1 0x7F DUP3 AND SWAP2 POP JUMPDEST PUSH1 0x20 DUP3 LT DUP2 SUB PUSH3 0x51E JUMPI PUSH3 0x51D PUSH3 0x4C0 JUMP JUMPDEST JUMPDEST POP SWAP2 SWAP1 POP JUMP JUMPDEST PUSH1 0x0 DUP2 SWAP1 POP DUP2 PUSH1 0x0 MSTORE PUSH1 0x20 PUSH1 0x0 KECCAK256 SWAP1 POP SWAP2 SWAP1 POP JUMP JUMPDEST PUSH1 0x0 PUSH1 0x20 PUSH1 0x1F DUP4 ADD DIV SWAP1 POP SWAP2 SWAP1 POP JUMP JUMPDEST PUSH1 0x0 DUP3 DUP3 SHL SWAP1 POP SWAP3 SWAP2 POP POP JUMP JUMPDEST PUSH1 0x0 PUSH1 0x8 DUP4 MUL PUSH3 0x588 PUSH32 0xFFFFFFFFFFFFFFFFFFFFFFFFFFFFFFFFFFFFFFFFFFFFFFFFFFFFFFFFFFFFFFFF DUP3 PUSH3 0x549 JUMP JUMPDEST PUSH3 0x594 DUP7 DUP4 PUSH3 0x549 JUMP JUMPDEST SWAP6 POP DUP1 NOT DUP5 AND SWAP4 POP DUP1 DUP7 AND DUP5 OR SWAP3 POP POP POP SWAP4 SWAP3 POP POP POP JUMP JUMPDEST PUSH1 0x0 DUP2 SWAP1 POP SWAP2 SWAP1 POP JUMP JUMPDEST PUSH1 0x0 DUP2 SWAP1 POP SWAP2 SWAP1 POP JUMP JUMPDEST PUSH1 0x0 PUSH3 0x5E1 PUSH3 0x5DB PUSH3 0x5D5 DUP5 PUSH3 0x5AC JUMP JUMPDEST PUSH3 0x5B6 JUMP JUMPDEST PUSH3 0x5AC JUMP JUMPDEST SWAP1 POP SWAP2 SWAP1 POP JUMP JUMPDEST PUSH1 0x0 DUP2 SWAP1 POP SWAP2 SWAP1 POP JUMP JUMPDEST PUSH3 0x5FD DUP4 PUSH3 0x5C0 JUMP JUMPDEST PUSH3 0x615 PUSH3 0x60C DUP3 PUSH3 0x5E8 JUMP JUMPDEST DUP5 DUP5 SLOAD PUSH3 0x556 JUMP JUMPDEST DUP3 SSTORE POP POP POP POP JUMP JUMPDEST PUSH1 0x0 SWAP1 JUMP JUMPDEST PUSH3 0x62C PUSH3 0x61D JUMP JUMPDEST PUSH3 0x639 DUP2 DUP5 DUP5 PUSH3 0x5F2 JUMP JUMPDEST POP POP POP JUMP JUMPDEST JUMPDEST DUP2 DUP2 LT ISZERO PUSH3 0x661 JUMPI PUSH3 0x655 PUSH1 0x0 DUP3 PUSH3 0x622 JUMP JUMPDEST PUSH1 0x1 DUP2 ADD SWAP1 POP PUSH3 0x63F JUMP JUMPDEST POP POP JUMP JUMPDEST PUSH1 0x1F DUP3 GT ISZERO PUSH3 0x6B0 JUMPI PUSH3 0x67A DUP2 PUSH3 0x524 JUMP JUMPDEST PUSH3 0x685 DUP5 PUSH3 0x539 JUMP JUMPDEST DUP2 ADD PUSH1 0x20 DUP6 LT ISZERO PUSH3 0x695 JUMPI DUP2 SWAP1 POP JUMPDEST PUSH3 0x6AD PUSH3 0x6A4 DUP6 PUSH3 0x539 JUMP JUMPDEST DUP4 ADD DUP3 PUSH3 0x63E JUMP JUMPDEST POP POP JUMPDEST POP POP POP JUMP JUMPDEST PUSH1 0x0 DUP3 DUP3 SHR SWAP1 POP SWAP3 SWAP2 POP POP JUMP JUMPDEST PUSH1 0x0 PUSH3 0x6D5 PUSH1 0x0 NOT DUP5 PUSH1 0x8 MUL PUSH3 0x6B5 JUMP JUMPDEST NOT DUP1 DUP4 AND SWAP2 POP POP SWAP3 SWAP2 POP POP JUMP JUMPDEST PUSH1 0x0 PUSH3 0x6F0 DUP4 DUP4 PUSH3 0x6C2 JUMP JUMPDEST SWAP2 POP DUP3 PUSH1 0x2 MUL DUP3 OR SWAP1 POP SWAP3 SWAP2 POP POP JUMP JUMPDEST PUSH3 0x70B DUP3 PUSH3 0x486 JUMP JUMPDEST PUSH8 0xFFFFFFFFFFFFFFFF DUP2 GT ISZERO PUSH3 0x727 JUMPI PUSH3 0x726 PUSH3 0x491 JUMP JUMPDEST JUMPDEST PUSH3 0x733 DUP3 SLOAD PUSH3 0x4EF JUMP JUMPDEST PUSH3 0x740 DUP3 DUP3 DUP6 PUSH3 0x665 JUMP JUMPDEST PUSH1 0x0 PUSH1 0x20 SWAP1 POP PUSH1 0x1F DUP4 GT PUSH1 0x1 DUP2 EQ PUSH3 0x778 JUMPI PUSH1 0x0 DUP5 ISZERO PUSH3 0x763 JUMPI DUP3 DUP8 ADD MLOAD SWAP1 POP JUMPDEST PUSH3 0x76F DUP6 DUP3 PUSH3 0x6E2 JUMP JUMPDEST DUP7 SSTORE POP PUSH3 0x7DF JUMP JUMPDEST PUSH1 0x1F NOT DUP5 AND PUSH3 0x788 DUP7 PUSH3 0x524 JUMP JUMPDEST PUSH1 0x0 JUMPDEST DUP3 DUP2 LT ISZERO PUSH3 0x7B2 JUMPI DUP5 DUP10 ADD MLOAD DUP3 SSTORE PUSH1 0x1 DUP3 ADD SWAP2 POP PUSH1 0x20 DUP6 ADD SWAP5 POP PUSH1 0x20 DUP2 ADD SWAP1 POP PUSH3 0x78B JUMP JUMPDEST DUP7 DUP4 LT ISZERO PUSH3 0x7D2 JUMPI DUP5 DUP10 ADD MLOAD PUSH3 0x7CE PUSH1 0x1F DUP10 AND DUP3 PUSH3 0x6C2 JUMP JUMPDEST DUP4 SSTORE POP JUMPDEST PUSH1 0x1 PUSH1 0x2 DUP9 MUL ADD DUP9 SSTORE POP POP POP JUMPDEST POP POP POP POP POP POP JUMP JUMPDEST PUSH32 0x4E487B7100000000000000000000000000000000000000000000000000000000 PUSH1 0x0 MSTORE PUSH1 0x11 PUSH1 0x4 MSTORE PUSH1 0x24 PUSH1 0x0 REVERT JUMPDEST PUSH1 0x0 DUP2 PUSH1 0x1 SHR SWAP1 POP SWAP2 SWAP1 POP JUMP JUMPDEST PUSH1 0x0 DUP1 DUP3 SWAP2 POP DUP4 SWAP1 POP JUMPDEST PUSH1 0x1 DUP6 GT ISZERO PUSH3 0x875 JUMPI DUP1 DUP7 DIV DUP2 GT ISZERO PUSH3 0x84D JUMPI PUSH3 0x84C PUSH3 0x7E7 JUMP JUMPDEST JUMPDEST PUSH1 0x1 DUP6 AND ISZERO PUSH3 0x85D JUMPI DUP1 DUP3 MUL SWAP2 POP JUMPDEST DUP1 DUP2 MUL SWAP1 POP PUSH3 0x86D DUP6 PUSH3 0x816 JUMP JUMPDEST SWAP5 POP PUSH3 0x82D JUMP JUMPDEST SWAP5 POP SWAP5 SWAP3 POP POP POP JUMP JUMPDEST PUSH1 0x0 DUP3 PUSH3 0x890 JUMPI PUSH1 0x1 SWAP1 POP PUSH3 0x963 JUMP JUMPDEST DUP2 PUSH3 0x8A0 JUMPI PUSH1 0x0 SWAP1 POP PUSH3 0x963 JUMP JUMPDEST DUP2 PUSH1 0x1 DUP2 EQ PUSH3 0x8B9 JUMPI PUSH1 0x2 DUP2 EQ PUSH3 0x8C4 JUMPI PUSH3 0x8FA JUMP JUMPDEST PUSH1 0x1 SWAP2 POP POP PUSH3 0x963 JUMP JUMPDEST PUSH1 0xFF DUP5 GT ISZERO PUSH3 0x8D9 JUMPI PUSH3 0x8D8 PUSH3 0x7E7 JUMP JUMPDEST JUMPDEST DUP4 PUSH1 0x2 EXP SWAP2 POP DUP5 DUP3 GT ISZERO PUSH3 0x8F3 JUMPI PUSH3 0x8F2 PUSH3 0x7E7 JUMP JUMPDEST JUMPDEST POP PUSH3 0x963 JUMP JUMPDEST POP PUSH1 0x20 DUP4 LT PUSH2 0x133 DUP4 LT AND PUSH1 0x4E DUP5 LT PUSH1 0xB DUP5 LT AND OR ISZERO PUSH3 0x934 JUMPI DUP3 DUP3 EXP SWAP1 POP DUP4 DUP2 GT ISZERO PUSH3 0x92E JUMPI PUSH3 0x92D PUSH3 0x7E7 JUMP JUMPDEST JUMPDEST PUSH3 0x963 JUMP JUMPDEST PUSH3 0x943 DUP5 DUP5 DUP5 PUSH1 0x1 PUSH3 0x823 JUMP JUMPDEST SWAP3 POP SWAP1 POP DUP2 DUP5 DIV DUP2 GT ISZERO PUSH3 0x95D JUMPI PUSH3 0x95C PUSH3 0x7E7 JUMP JUMPDEST JUMPDEST DUP2 DUP2 MUL SWAP1 POP JUMPDEST SWAP4 SWAP3 POP POP POP JUMP JUMPDEST PUSH1 0x0 PUSH1 0xFF DUP3 AND SWAP1 POP SWAP2 SWAP1 POP JUMP JUMPDEST PUSH1 0x0 PUSH3 0x984 DUP3 PUSH3 0x5AC JUMP JUMPDEST SWAP2 POP PUSH3 0x991 DUP4 PUSH3 0x96A JUMP JUMPDEST SWAP3 POP PUSH3 0x9C0 PUSH32 0xFFFFFFFFFFFFFFFFFFFFFFFFFFFFFFFFFFFFFFFFFFFFFFFFFFFFFFFFFFFFFFFF DUP5 DUP5 PUSH3 0x87E JUMP JUMPDEST SWAP1 POP SWAP3 SWAP2 POP POP JUMP JUMPDEST PUSH1 0x0 PUSH3 0x9D5 DUP3 PUSH3 0x5AC JUMP JUMPDEST SWAP2 POP PUSH3 0x9E2 DUP4 PUSH3 0x5AC JUMP JUMPDEST SWAP3 POP DUP3 DUP3 MUL PUSH3 0x9F2 DUP2 PUSH3 0x5AC JUMP JUMPDEST SWAP2 POP DUP3 DUP3 DIV DUP5 EQ DUP4 ISZERO OR PUSH3 0xA0C JUMPI PUSH3 0xA0B PUSH3 0x7E7 JUMP JUMPDEST JUMPDEST POP SWAP3 SWAP2 POP POP JUMP JUMPDEST PUSH1 0x0 DUP3 DUP3 MSTORE PUSH1 0x20 DUP3 ADD SWAP1 POP SWAP3 SWAP2 POP POP JUMP JUMPDEST PUSH32 0x45524332303A206D696E7420746F20746865207A65726F206164647265737300 PUSH1 0x0 DUP3 ADD MSTORE POP JUMP JUMPDEST PUSH1 0x0 PUSH3 0xA5C PUSH1 0x1F DUP4 PUSH3 0xA13 JUMP JUMPDEST SWAP2 POP PUSH3 0xA69 DUP3 PUSH3 0xA24 JUMP JUMPDEST PUSH1 0x20 DUP3 ADD SWAP1 POP SWAP2 SWAP1 POP JUMP JUMPDEST PUSH1 0x0 PUSH1 0x20 DUP3 ADD SWAP1 POP DUP2 DUP2 SUB PUSH1 0x0 DUP4 ADD MSTORE PUSH3 0xA8F DUP2 PUSH3 0xA4D JUMP JUMPDEST SWAP1 POP SWAP2 SWAP1 POP JUMP JUMPDEST PUSH1 0x0 PUSH3 0xAA3 DUP3 PUSH3 0x5AC JUMP JUMPDEST SWAP2 POP PUSH3 0xAB0 DUP4 PUSH3 0x5AC JUMP JUMPDEST SWAP3 POP DUP3 DUP3 ADD SWAP1 POP DUP1 DUP3 GT ISZERO PUSH3 0xACB JUMPI PUSH3 0xACA PUSH3 0x7E7 JUMP JUMPDEST JUMPDEST SWAP3 SWAP2 POP POP JUMP JUMPDEST PUSH3 0xADC DUP2 PUSH3 0x5AC JUMP JUMPDEST DUP3 MSTORE POP POP JUMP JUMPDEST PUSH1 0x0 PUSH1 0x20 DUP3 ADD SWAP1 POP PUSH3 0xAF9 PUSH1 0x0 DUP4 ADD DUP5 PUSH3 0xAD1 JUMP JUMPDEST SWAP3 SWAP2 POP POP JUMP JUMPDEST PUSH1 0x80 MLOAD PUSH2 0x4529 PUSH3 0xB29 PUSH1 0x0 CODECOPY PUSH1 0x0 DUP2 DUP2 PUSH2 0x1479 ADD MSTORE DUP2 DUP2 PUSH2 0x15CC ADD MSTORE PUSH2 0x2600 ADD MSTORE PUSH2 0x4529 PUSH1 0x0 RETURN INVALID PUSH1 0x80 PUSH1 0x40 MSTORE CALLVALUE DUP1 ISZERO PUSH2 0x10 JUMPI PUSH1 0x0 DUP1 REVERT JUMPDEST POP PUSH1 0x4 CALLDATASIZE LT PUSH2 0x294 JUMPI PUSH1 0x0 CALLDATALOAD PUSH1 0xE0 SHR DUP1 PUSH4 0x715018A6 GT PUSH2 0x167 JUMPI DUP1 PUSH4 0xB73F8007 GT PUSH2 0xCE JUMPI DUP1 PUSH4 0xDD62ED3E GT PUSH2 0x87 JUMPI DUP1 PUSH4 0xDD62ED3E EQ PUSH2 0x7FF JUMPI DUP1 PUSH4 0xE319C2CE EQ PUSH2 0x82F JUMPI DUP1 PUSH4 0xE465D64D EQ PUSH2 0x84D JUMPI DUP1 PUSH4 0xE67D6921 EQ PUSH2 0x869 JUMPI DUP1 PUSH4 0xEA173A39 EQ PUSH2 0x885 JUMPI DUP1 PUSH4 0xF2FDE38B EQ PUSH2 0x8A1 JUMPI PUSH2 0x294 JUMP JUMPDEST DUP1 PUSH4 0xB73F8007 EQ PUSH2 0x729 JUMPI DUP1 PUSH4 0xB9E43EEE EQ PUSH2 0x75A JUMPI DUP1 PUSH4 0xC31C9C07 EQ PUSH2 0x776 JUMPI DUP1 PUSH4 0xC90880C1 EQ PUSH2 0x794 JUMPI DUP1 PUSH4 0xCA5FB573 EQ PUSH2 0x7B0 JUMPI DUP1 PUSH4 0xCCBD73E7 EQ PUSH2 0x7CC JUMPI PUSH2 0x294 JUMP JUMPDEST DUP1 PUSH4 0x8DD95002 GT PUSH2 0x120 JUMPI DUP1 PUSH4 0x8DD95002 EQ PUSH2 0x655 JUMPI DUP1 PUSH4 0x95D89B41 EQ PUSH2 0x673 JUMPI DUP1 PUSH4 0x9C42AC13 EQ PUSH2 0x691 JUMPI DUP1 PUSH4 0xA457C2D7 EQ PUSH2 0x6AD JUMPI DUP1 PUSH4 0xA9059CBB EQ PUSH2 0x6DD JUMPI DUP1 PUSH4 0xAFE2DDD7 EQ PUSH2 0x70D JUMPI PUSH2 0x294 JUMP JUMPDEST DUP1 PUSH4 0x715018A6 EQ PUSH2 0x593 JUMPI DUP1 PUSH4 0x793EA8D1 EQ PUSH2 0x59D JUMPI DUP1 PUSH4 0x79CC6790 EQ PUSH2 0x5CD JUMPI DUP1 PUSH4 0x82FAB2AD EQ PUSH2 0x5E9 JUMPI DUP1 PUSH4 0x8568B3A5 EQ PUSH2 0x607 JUMPI DUP1 PUSH4 0x8DA5CB5B EQ PUSH2 0x637 JUMPI PUSH2 0x294 JUMP JUMPDEST DUP1 PUSH4 0x24E2A33E GT PUSH2 0x20B JUMPI DUP1 PUSH4 0x42966C68 GT PUSH2 0x1C4 JUMPI DUP1 PUSH4 0x42966C68 EQ PUSH2 0x4D5 JUMPI DUP1 PUSH4 0x446B5D5F EQ PUSH2 0x4F1 JUMPI DUP1 PUSH4 0x57970E93 EQ PUSH2 0x50D JUMPI DUP1 PUSH4 0x680F2E4F EQ PUSH2 0x52B JUMPI DUP1 PUSH4 0x6BC20157 EQ PUSH2 0x547 JUMPI DUP1 PUSH4 0x70A08231 EQ PUSH2 0x563 JUMPI PUSH2 0x294 JUMP JUMPDEST DUP1 PUSH4 0x24E2A33E EQ PUSH2 0x401 JUMPI DUP1 PUSH4 0x313CE567 EQ PUSH2 0x41D JUMPI DUP1 PUSH4 0x3268CC56 EQ PUSH2 0x43B JUMPI DUP1 PUSH4 0x36EAB316 EQ PUSH2 0x459 JUMPI DUP1 PUSH4 0x372C12B1 EQ PUSH2 0x475 JUMPI DUP1 PUSH4 0x39509351 EQ PUSH2 0x4A5 JUMPI PUSH2 0x294 JUMP JUMPDEST DUP1 PUSH4 0xE1B39FB GT PUSH2 0x25D JUMPI DUP1 PUSH4 0xE1B39FB EQ PUSH2 0x33D JUMPI DUP1 PUSH4 0x172CC5A7 EQ PUSH2 0x35B JUMPI DUP1 PUSH4 0x18160DDD EQ PUSH2 0x377 JUMPI DUP1 PUSH4 0x196FD4BE EQ PUSH2 0x395 JUMPI DUP1 PUSH4 0x1D4140E1 EQ PUSH2 0x3B3 JUMPI DUP1 PUSH4 0x23B872DD EQ PUSH2 0x3D1 JUMPI PUSH2 0x294 JUMP JUMPDEST DUP1 PUSH3 0x12D61A EQ PUSH2 0x299 JUMPI DUP1 PUSH4 0x445A103 EQ PUSH2 0x2B5 JUMPI DUP1 PUSH4 0x6FDDE03 EQ PUSH2 0x2D1 JUMPI DUP1 PUSH4 0x89FE6AA EQ PUSH2 0x2EF JUMPI DUP1 PUSH4 0x95EA7B3 EQ PUSH2 0x30D JUMPI JUMPDEST PUSH1 0x0 DUP1 REVERT JUMPDEST PUSH2 0x2B3 PUSH1 0x4 DUP1 CALLDATASIZE SUB DUP2 ADD SWAP1 PUSH2 0x2AE SWAP2 SWAP1 PUSH2 0x3504 JUMP JUMPDEST PUSH2 0x8BD JUMP JUMPDEST STOP JUMPDEST PUSH2 0x2CF PUSH1 0x4 DUP1 CALLDATASIZE SUB DUP2 ADD SWAP1 PUSH2 0x2CA SWAP2 SWAP1 PUSH2 0x3567 JUMP JUMPDEST PUSH2 0xB21 JUMP JUMPDEST STOP JUMPDEST PUSH2 0x2D9 PUSH2 0xC7A JUMP JUMPDEST PUSH1 0x40 MLOAD PUSH2 0x2E6 SWAP2 SWAP1 PUSH2 0x3624 JUMP JUMPDEST PUSH1 0x40 MLOAD DUP1 SWAP2 SUB SWAP1 RETURN JUMPDEST PUSH2 0x2F7 PUSH2 0xD0C JUMP JUMPDEST PUSH1 0x40 MLOAD PUSH2 0x304 SWAP2 SWAP1 PUSH2 0x3664 JUMP JUMPDEST PUSH1 0x40 MLOAD DUP1 SWAP2 SUB SWAP1 RETURN JUMPDEST PUSH2 0x327 PUSH1 0x4 DUP1 CALLDATASIZE SUB DUP2 ADD SWAP1 PUSH2 0x322 SWAP2 SWAP1 PUSH2 0x367F JUMP JUMPDEST PUSH2 0xD21 JUMP JUMPDEST PUSH1 0x40 MLOAD PUSH2 0x334 SWAP2 SWAP1 PUSH2 0x36DA JUMP JUMPDEST PUSH1 0x40 MLOAD DUP1 SWAP2 SUB SWAP1 RETURN JUMPDEST PUSH2 0x345 PUSH2 0xD44 JUMP JUMPDEST PUSH1 0x40 MLOAD PUSH2 0x352 SWAP2 SWAP1 PUSH2 0x3704 JUMP JUMPDEST PUSH1 0x40 MLOAD DUP1 SWAP2 SUB SWAP1 RETURN JUMPDEST PUSH2 0x375 PUSH1 0x4 DUP1 CALLDATASIZE SUB DUP2 ADD SWAP1 PUSH2 0x370 SWAP2 SWAP1 PUSH2 0x3567 JUMP JUMPDEST PUSH2 0xD6A JUMP JUMPDEST STOP JUMPDEST PUSH2 0x37F PUSH2 0xEC3 JUMP JUMPDEST PUSH1 0x40 MLOAD PUSH2 0x38C SWAP2 SWAP1 PUSH2 0x372E JUMP JUMPDEST PUSH1 0x40 MLOAD DUP1 SWAP2 SUB SWAP1 RETURN JUMPDEST PUSH2 0x39D PUSH2 0xECD JUMP JUMPDEST PUSH1 0x40 MLOAD PUSH2 0x3AA SWAP2 SWAP1 PUSH2 0x3704 JUMP JUMPDEST PUSH1 0x40 MLOAD DUP1 SWAP2 SUB SWAP1 RETURN JUMPDEST PUSH2 0x3BB PUSH2 0xEF3 JUMP JUMPDEST PUSH1 0x40 MLOAD PUSH2 0x3C8 SWAP2 SWAP1 PUSH2 0x372E JUMP JUMPDEST PUSH1 0x40 MLOAD DUP1 SWAP2 SUB SWAP1 RETURN JUMPDEST PUSH2 0x3EB PUSH1 0x4 DUP1 CALLDATASIZE SUB DUP2 ADD SWAP1 PUSH2 0x3E6 SWAP2 SWAP1 PUSH2 0x3749 JUMP JUMPDEST PUSH2 0xEF9 JUMP JUMPDEST PUSH1 0x40 MLOAD PUSH2 0x3F8 SWAP2 SWAP1 PUSH2 0x36DA JUMP JUMPDEST PUSH1 0x40 MLOAD DUP1 SWAP2 SUB SWAP1 RETURN JUMPDEST PUSH2 0x41B PUSH1 0x4 DUP1 CALLDATASIZE SUB DUP2 ADD SWAP1 PUSH2 0x416 SWAP2 SWAP1 PUSH2 0x37C8 JUMP JUMPDEST PUSH2 0xF28 JUMP JUMPDEST STOP JUMPDEST PUSH2 0x425 PUSH2 0xF4D JUMP JUMPDEST PUSH1 0x40 MLOAD PUSH2 0x432 SWAP2 SWAP1 PUSH2 0x3811 JUMP JUMPDEST PUSH1 0x40 MLOAD DUP1 SWAP2 SUB SWAP1 RETURN JUMPDEST PUSH2 0x443 PUSH2 0xF56 JUMP JUMPDEST PUSH1 0x40 MLOAD PUSH2 0x450 SWAP2 SWAP1 PUSH2 0x3704 JUMP JUMPDEST PUSH1 0x40 MLOAD DUP1 SWAP2 SUB SWAP1 RETURN JUMPDEST PUSH2 0x473 PUSH1 0x4 DUP1 CALLDATASIZE SUB DUP2 ADD SWAP1 PUSH2 0x46E SWAP2 SWAP1 PUSH2 0x3567 JUMP JUMPDEST PUSH2 0xF6E JUMP JUMPDEST STOP JUMPDEST PUSH2 0x48F PUSH1 0x4 DUP1 CALLDATASIZE SUB DUP2 ADD SWAP1 PUSH2 0x48A SWAP2 SWAP1 PUSH2 0x3504 JUMP JUMPDEST PUSH2 0x10C7 JUMP JUMPDEST PUSH1 0x40 MLOAD PUSH2 0x49C SWAP2 SWAP1 PUSH2 0x36DA JUMP JUMPDEST PUSH1 0x40 MLOAD DUP1 SWAP2 SUB SWAP1 RETURN JUMPDEST PUSH2 0x4BF PUSH1 0x4 DUP1 CALLDATASIZE SUB DUP2 ADD SWAP1 PUSH2 0x4BA SWAP2 SWAP1 PUSH2 0x367F JUMP JUMPDEST PUSH2 0x10E7 JUMP JUMPDEST PUSH1 0x40 MLOAD PUSH2 0x4CC SWAP2 SWAP1 PUSH2 0x36DA JUMP JUMPDEST PUSH1 0x40 MLOAD DUP1 SWAP2 SUB SWAP1 RETURN JUMPDEST PUSH2 0x4EF PUSH1 0x4 DUP1 CALLDATASIZE SUB DUP2 ADD SWAP1 PUSH2 0x4EA SWAP2 SWAP1 PUSH2 0x3567 JUMP JUMPDEST PUSH2 0x111E JUMP JUMPDEST STOP JUMPDEST PUSH2 0x50B PUSH1 0x4 DUP1 CALLDATASIZE SUB DUP2 ADD SWAP1 PUSH2 0x506 SWAP2 SWAP1 PUSH2 0x3567 JUMP JUMPDEST PUSH2 0x1132 JUMP JUMPDEST STOP JUMPDEST PUSH2 0x515 PUSH2 0x12AD JUMP JUMPDEST PUSH1 0x40 MLOAD PUSH2 0x522 SWAP2 SWAP1 PUSH2 0x388B JUMP JUMPDEST PUSH1 0x40 MLOAD DUP1 SWAP2 SUB SWAP1 RETURN JUMPDEST PUSH2 0x545 PUSH1 0x4 DUP1 CALLDATASIZE SUB DUP2 ADD SWAP1 PUSH2 0x540 SWAP2 SWAP1 PUSH2 0x367F JUMP JUMPDEST PUSH2 0x12D3 JUMP JUMPDEST STOP JUMPDEST PUSH2 0x561 PUSH1 0x4 DUP1 CALLDATASIZE SUB DUP2 ADD SWAP1 PUSH2 0x55C SWAP2 SWAP1 PUSH2 0x3504 JUMP JUMPDEST PUSH2 0x1380 JUMP JUMPDEST STOP JUMPDEST PUSH2 0x57D PUSH1 0x4 DUP1 CALLDATASIZE SUB DUP2 ADD SWAP1 PUSH2 0x578 SWAP2 SWAP1 PUSH2 0x3504 JUMP JUMPDEST PUSH2 0x13DB JUMP JUMPDEST PUSH1 0x40 MLOAD PUSH2 0x58A SWAP2 SWAP1 PUSH2 0x372E JUMP JUMPDEST PUSH1 0x40 MLOAD DUP1 SWAP2 SUB SWAP1 RETURN JUMPDEST PUSH2 0x59B PUSH2 0x1423 JUMP JUMPDEST STOP JUMPDEST PUSH2 0x5B7 PUSH1 0x4 DUP1 CALLDATASIZE SUB DUP2 ADD SWAP1 PUSH2 0x5B2 SWAP2 SWAP1 PUSH2 0x38A6 JUMP JUMPDEST PUSH2 0x1437 JUMP JUMPDEST PUSH1 0x40 MLOAD PUSH2 0x5C4 SWAP2 SWAP1 PUSH2 0x372E JUMP JUMPDEST PUSH1 0x40 MLOAD DUP1 SWAP2 SUB SWAP1 RETURN JUMPDEST PUSH2 0x5E7 PUSH1 0x4 DUP1 CALLDATASIZE SUB DUP2 ADD SWAP1 PUSH2 0x5E2 SWAP2 SWAP1 PUSH2 0x367F JUMP JUMPDEST PUSH2 0x166F JUMP JUMPDEST STOP JUMPDEST PUSH2 0x5F1 PUSH2 0x168F JUMP JUMPDEST PUSH1 0x40 MLOAD PUSH2 0x5FE SWAP2 SWAP1 PUSH2 0x388B JUMP JUMPDEST PUSH1 0x40 MLOAD DUP1 SWAP2 SUB SWAP1 RETURN JUMPDEST PUSH2 0x621 PUSH1 0x4 DUP1 CALLDATASIZE SUB DUP2 ADD SWAP1 PUSH2 0x61C SWAP2 SWAP1 PUSH2 0x3504 JUMP JUMPDEST PUSH2 0x16B5 JUMP JUMPDEST PUSH1 0x40 MLOAD PUSH2 0x62E SWAP2 SWAP1 PUSH2 0x372E JUMP JUMPDEST PUSH1 0x40 MLOAD DUP1 SWAP2 SUB SWAP1 RETURN JUMPDEST PUSH2 0x63F PUSH2 0x175A JUMP JUMPDEST PUSH1 0x40 MLOAD PUSH2 0x64C SWAP2 SWAP1 PUSH2 0x3704 JUMP JUMPDEST PUSH1 0x40 MLOAD DUP1 SWAP2 SUB SWAP1 RETURN JUMPDEST PUSH2 0x65D PUSH2 0x1784 JUMP JUMPDEST PUSH1 0x40 MLOAD PUSH2 0x66A SWAP2 SWAP1 PUSH2 0x3704 JUMP JUMPDEST PUSH1 0x40 MLOAD DUP1 SWAP2 SUB SWAP1 RETURN JUMPDEST PUSH2 0x67B PUSH2 0x17AA JUMP JUMPDEST PUSH1 0x40 MLOAD PUSH2 0x688 SWAP2 SWAP1 PUSH2 0x3624 JUMP JUMPDEST PUSH1 0x40 MLOAD DUP1 SWAP2 SUB SWAP1 RETURN JUMPDEST PUSH2 0x6AB PUSH1 0x4 DUP1 CALLDATASIZE SUB DUP2 ADD SWAP1 PUSH2 0x6A6 SWAP2 SWAP1 PUSH2 0x3567 JUMP JUMPDEST PUSH2 0x183C JUMP JUMPDEST STOP JUMPDEST PUSH2 0x6C7 PUSH1 0x4 DUP1 CALLDATASIZE SUB DUP2 ADD SWAP1 PUSH2 0x6C2 SWAP2 SWAP1 PUSH2 0x367F JUMP JUMPDEST PUSH2 0x1863 JUMP JUMPDEST PUSH1 0x40 MLOAD PUSH2 0x6D4 SWAP2 SWAP1 PUSH2 0x36DA JUMP JUMPDEST PUSH1 0x40 MLOAD DUP1 SWAP2 SUB SWAP1 RETURN JUMPDEST PUSH2 0x6F7 PUSH1 0x4 DUP1 CALLDATASIZE SUB DUP2 ADD SWAP1 PUSH2 0x6F2 SWAP2 SWAP1 PUSH2 0x367F JUMP JUMPDEST PUSH2 0x18DA JUMP JUMPDEST PUSH1 0x40 MLOAD PUSH2 0x704 SWAP2 SWAP1 PUSH2 0x36DA JUMP JUMPDEST PUSH1 0x40 MLOAD DUP1 SWAP2 SUB SWAP1 RETURN JUMPDEST PUSH2 0x727 PUSH1 0x4 DUP1 CALLDATASIZE SUB DUP2 ADD SWAP1 PUSH2 0x722 SWAP2 SWAP1 PUSH2 0x3567 JUMP JUMPDEST PUSH2 0x23BA JUMP JUMPDEST STOP JUMPDEST PUSH2 0x743 PUSH1 0x4 DUP1 CALLDATASIZE SUB DUP2 ADD SWAP1 PUSH2 0x73E SWAP2 SWAP1 PUSH2 0x3504 JUMP JUMPDEST PUSH2 0x2513 JUMP JUMPDEST PUSH1 0x40 MLOAD PUSH2 0x751 SWAP3 SWAP2 SWAP1 PUSH2 0x38E6 JUMP JUMPDEST PUSH1 0x40 MLOAD DUP1 SWAP2 SUB SWAP1 RETURN JUMPDEST PUSH2 0x774 PUSH1 0x4 DUP1 CALLDATASIZE SUB DUP2 ADD SWAP1 PUSH2 0x76F SWAP2 SWAP1 PUSH2 0x367F JUMP JUMPDEST PUSH2 0x2551 JUMP JUMPDEST STOP JUMPDEST PUSH2 0x77E PUSH2 0x25FE JUMP JUMPDEST PUSH1 0x40 MLOAD PUSH2 0x78B SWAP2 SWAP1 PUSH2 0x3930 JUMP JUMPDEST PUSH1 0x40 MLOAD DUP1 SWAP2 SUB SWAP1 RETURN JUMPDEST PUSH2 0x7AE PUSH1 0x4 DUP1 CALLDATASIZE SUB DUP2 ADD SWAP1 PUSH2 0x7A9 SWAP2 SWAP1 PUSH2 0x3567 JUMP JUMPDEST PUSH2 0x2622 JUMP JUMPDEST STOP JUMPDEST PUSH2 0x7CA PUSH1 0x4 DUP1 CALLDATASIZE SUB DUP2 ADD SWAP1 PUSH2 0x7C5 SWAP2 SWAP1 PUSH2 0x3977 JUMP JUMPDEST PUSH2 0x277B JUMP JUMPDEST STOP JUMPDEST PUSH2 0x7E6 PUSH1 0x4 DUP1 CALLDATASIZE SUB DUP2 ADD SWAP1 PUSH2 0x7E1 SWAP2 SWAP1 PUSH2 0x3567 JUMP JUMPDEST PUSH2 0x286A JUMP JUMPDEST PUSH1 0x40 MLOAD PUSH2 0x7F6 SWAP5 SWAP4 SWAP3 SWAP2 SWAP1 PUSH2 0x39CA JUMP JUMPDEST PUSH1 0x40 MLOAD DUP1 SWAP2 SUB SWAP1 RETURN JUMPDEST PUSH2 0x819 PUSH1 0x4 DUP1 CALLDATASIZE SUB DUP2 ADD SWAP1 PUSH2 0x814 SWAP2 SWAP1 PUSH2 0x3A0F JUMP JUMPDEST PUSH2 0x289A JUMP JUMPDEST PUSH1 0x40 MLOAD PUSH2 0x826 SWAP2 SWAP1 PUSH2 0x372E JUMP JUMPDEST PUSH1 0x40 MLOAD DUP1 SWAP2 SUB SWAP1 RETURN JUMPDEST PUSH2 0x837 PUSH2 0x2921 JUMP JUMPDEST PUSH1 0x40 MLOAD PUSH2 0x844 SWAP2 SWAP1 PUSH2 0x36DA JUMP JUMPDEST PUSH1 0x40 MLOAD DUP1 SWAP2 SUB SWAP1 RETURN JUMPDEST PUSH2 0x867 PUSH1 0x4 DUP1 CALLDATASIZE SUB DUP2 ADD SWAP1 PUSH2 0x862 SWAP2 SWAP1 PUSH2 0x3567 JUMP JUMPDEST PUSH2 0x2934 JUMP JUMPDEST STOP JUMPDEST PUSH2 0x883 PUSH1 0x4 DUP1 CALLDATASIZE SUB DUP2 ADD SWAP1 PUSH2 0x87E SWAP2 SWAP1 PUSH2 0x3567 JUMP JUMPDEST PUSH2 0x295B JUMP JUMPDEST STOP JUMPDEST PUSH2 0x89F PUSH1 0x4 DUP1 CALLDATASIZE SUB DUP2 ADD SWAP1 PUSH2 0x89A SWAP2 SWAP1 PUSH2 0x3567 JUMP JUMPDEST PUSH2 0x2AB4 JUMP JUMPDEST STOP JUMPDEST PUSH2 0x8BB PUSH1 0x4 DUP1 CALLDATASIZE SUB DUP2 ADD SWAP1 PUSH2 0x8B6 SWAP2 SWAP1 PUSH2 0x3504 JUMP JUMPDEST PUSH2 0x2C0D JUMP JUMPDEST STOP JUMPDEST PUSH1 0xB PUSH1 0x0 DUP3 PUSH20 0xFFFFFFFFFFFFFFFFFFFFFFFFFFFFFFFFFFFFFFFF AND PUSH20 0xFFFFFFFFFFFFFFFFFFFFFFFFFFFFFFFFFFFFFFFF AND DUP2 MSTORE PUSH1 0x20 ADD SWAP1 DUP2 MSTORE PUSH1 0x20 ADD PUSH1 0x0 KECCAK256 PUSH1 0x0 ADD PUSH1 0x1 SWAP1 SLOAD SWAP1 PUSH2 0x100 EXP SWAP1 DIV PUSH1 0xFF AND PUSH2 0x94C JUMPI PUSH1 0x40 MLOAD PUSH32 0x8C379A000000000000000000000000000000000000000000000000000000000 DUP2 MSTORE PUSH1 0x4 ADD PUSH2 0x943 SWAP1 PUSH2 0x3A9B JUMP JUMPDEST PUSH1 0x40 MLOAD DUP1 SWAP2 SUB SWAP1 REVERT JUMPDEST PUSH1 0xB PUSH1 0x0 DUP3 PUSH20 0xFFFFFFFFFFFFFFFFFFFFFFFFFFFFFFFFFFFFFFFF AND PUSH20 0xFFFFFFFFFFFFFFFFFFFFFFFFFFFFFFFFFFFFFFFF AND DUP2 MSTORE PUSH1 0x20 ADD SWAP1 DUP2 MSTORE PUSH1 0x20 ADD PUSH1 0x0 KECCAK256 PUSH1 0x0 ADD PUSH1 0x0 SWAP1 SLOAD SWAP1 PUSH2 0x100 EXP SWAP1 DIV PUSH1 0xFF AND ISZERO PUSH2 0x9DC JUMPI PUSH1 0x40 MLOAD PUSH32 0x8C379A000000000000000000000000000000000000000000000000000000000 DUP2 MSTORE PUSH1 0x4 ADD PUSH2 0x9D3 SWAP1 PUSH2 0x3B07 JUMP JUMPDEST PUSH1 0x40 MLOAD DUP1 SWAP2 SUB SWAP1 REVERT JUMPDEST PUSH1 0x0 PUSH2 0x9E6 PUSH2 0xEC3 JUMP JUMPDEST PUSH1 0x8 SLOAD PUSH2 0x9F2 DUP5 PUSH2 0x13DB JUMP JUMPDEST PUSH2 0x9FC SWAP2 SWAP1 PUSH2 0x3B56 JUMP JUMPDEST PUSH2 0xA06 SWAP2 SWAP1 PUSH2 0x3BC7 JUMP JUMPDEST SWAP1 POP PUSH1 0x1 PUSH1 0xB PUSH1 0x0 DUP5 PUSH20 0xFFFFFFFFFFFFFFFFFFFFFFFFFFFFFFFFFFFFFFFF AND PUSH20 0xFFFFFFFFFFFFFFFFFFFFFFFFFFFFFFFFFFFFFFFF AND DUP2 MSTORE PUSH1 0x20 ADD SWAP1 DUP2 MSTORE PUSH1 0x20 ADD PUSH1 0x0 KECCAK256 PUSH1 0x0 ADD PUSH1 0x0 PUSH2 0x100 EXP DUP2 SLOAD DUP2 PUSH1 0xFF MUL NOT AND SWAP1 DUP4 ISZERO ISZERO MUL OR SWAP1 SSTORE POP DUP1 PUSH1 0x8 PUSH1 0x0 DUP3 DUP3 SLOAD PUSH2 0xA75 SWAP2 SWAP1 PUSH2 0x3BF8 JUMP JUMPDEST SWAP3 POP POP DUP2 SWAP1 SSTORE POP PUSH1 0xD PUSH1 0x0 SWAP1 SLOAD SWAP1 PUSH2 0x100 EXP SWAP1 DIV PUSH20 0xFFFFFFFFFFFFFFFFFFFFFFFFFFFFFFFFFFFFFFFF AND PUSH20 0xFFFFFFFFFFFFFFFFFFFFFFFFFFFFFFFFFFFFFFFF AND PUSH4 0xA9059CBB DUP4 DUP4 PUSH1 0x40 MLOAD DUP4 PUSH4 0xFFFFFFFF AND PUSH1 0xE0 SHL DUP2 MSTORE PUSH1 0x4 ADD PUSH2 0xAD9 SWAP3 SWAP2 SWAP1 PUSH2 0x3C2C JUMP JUMPDEST PUSH1 0x20 PUSH1 0x40 MLOAD DUP1 DUP4 SUB DUP2 PUSH1 0x0 DUP8 GAS CALL ISZERO DUP1 ISZERO PUSH2 0xAF8 JUMPI RETURNDATASIZE PUSH1 0x0 DUP1 RETURNDATACOPY RETURNDATASIZE PUSH1 0x0 REVERT JUMPDEST POP POP POP POP PUSH1 0x40 MLOAD RETURNDATASIZE PUSH1 0x1F NOT PUSH1 0x1F DUP3 ADD AND DUP3 ADD DUP1 PUSH1 0x40 MSTORE POP DUP2 ADD SWAP1 PUSH2 0xB1C SWAP2 SWAP1 PUSH2 0x3C6A JUMP JUMPDEST POP POP POP JUMP JUMPDEST PUSH2 0xB29 PUSH2 0x2C90 JUMP JUMPDEST PUSH1 0xF DUP2 PUSH1 0xC PUSH1 0x0 PUSH1 0x4 DUP2 MSTORE PUSH1 0x20 ADD SWAP1 DUP2 MSTORE PUSH1 0x20 ADD PUSH1 0x0 KECCAK256 PUSH1 0x0 ADD SLOAD PUSH1 0xC PUSH1 0x0 PUSH1 0x3 DUP2 MSTORE PUSH1 0x20 ADD SWAP1 DUP2 MSTORE PUSH1 0x20 ADD PUSH1 0x0 KECCAK256 PUSH1 0x0 ADD SLOAD PUSH1 0xC PUSH1 0x0 PUSH1 0x2 DUP2 MSTORE PUSH1 0x20 ADD SWAP1 DUP2 MSTORE PUSH1 0x20 ADD PUSH1 0x0 KECCAK256 PUSH1 0x0 ADD SLOAD PUSH1 0xC PUSH1 0x0 PUSH1 0x1 DUP2 MSTORE PUSH1 0x20 ADD SWAP1 DUP2 MSTORE PUSH1 0x20 ADD PUSH1 0x0 KECCAK256 PUSH1 0x0 ADD SLOAD PUSH1 0xC PUSH1 0x0 PUSH1 0x4 DUP2 MSTORE PUSH1 0x20 ADD SWAP1 DUP2 MSTORE PUSH1 0x20 ADD PUSH1 0x0 KECCAK256 PUSH1 0x1 ADD SLOAD PUSH1 0xC PUSH1 0x0 PUSH1 0x3 DUP2 MSTORE PUSH1 0x20 ADD SWAP1 DUP2 MSTORE PUSH1 0x20 ADD PUSH1 0x0 KECCAK256 PUSH1 0x1 ADD SLOAD PUSH1 0xC PUSH1 0x0 PUSH1 0x1 DUP2 MSTORE PUSH1 0x20 ADD SWAP1 DUP2 MSTORE PUSH1 0x20 ADD PUSH1 0x0 KECCAK256 PUSH1 0x1 ADD SLOAD PUSH2 0xBDE SWAP2 SWAP1 PUSH2 0x3C97 JUMP JUMPDEST PUSH2 0xBE8 SWAP2 SWAP1 PUSH2 0x3C97 JUMP JUMPDEST PUSH2 0xBF2 SWAP2 SWAP1 PUSH2 0x3C97 JUMP JUMPDEST PUSH2 0xBFC SWAP2 SWAP1 PUSH2 0x3C97 JUMP JUMPDEST PUSH2 0xC06 SWAP2 SWAP1 PUSH2 0x3C97 JUMP JUMPDEST PUSH2 0xC10 SWAP2 SWAP1 PUSH2 0x3C97 JUMP JUMPDEST PUSH2 0xC1A SWAP2 SWAP1 PUSH2 0x3C97 JUMP JUMPDEST GT ISZERO PUSH2 0xC5B JUMPI PUSH1 0x40 MLOAD PUSH32 0x8C379A000000000000000000000000000000000000000000000000000000000 DUP2 MSTORE PUSH1 0x4 ADD PUSH2 0xC52 SWAP1 PUSH2 0x3D3D JUMP JUMPDEST PUSH1 0x40 MLOAD DUP1 SWAP2 SUB SWAP1 REVERT JUMPDEST DUP1 PUSH1 0xC PUSH1 0x0 PUSH1 0x2 DUP2 MSTORE PUSH1 0x20 ADD SWAP1 DUP2 MSTORE PUSH1 0x20 ADD PUSH1 0x0 KECCAK256 PUSH1 0x1 ADD DUP2 SWAP1 SSTORE POP POP JUMP JUMPDEST PUSH1 0x60 PUSH1 0x3 DUP1 SLOAD PUSH2 0xC89 SWAP1 PUSH2 0x3D8C JUMP JUMPDEST DUP1 PUSH1 0x1F ADD PUSH1 0x20 DUP1 SWAP2 DIV MUL PUSH1 0x20 ADD PUSH1 0x40 MLOAD SWAP1 DUP2 ADD PUSH1 0x40 MSTORE DUP1 SWAP3 SWAP2 SWAP1 DUP2 DUP2 MSTORE PUSH1 0x20 ADD DUP3 DUP1 SLOAD PUSH2 0xCB5 SWAP1 PUSH2 0x3D8C JUMP JUMPDEST DUP1 ISZERO PUSH2 0xD02 JUMPI DUP1 PUSH1 0x1F LT PUSH2 0xCD7 JUMPI PUSH2 0x100 DUP1 DUP4 SLOAD DIV MUL DUP4 MSTORE SWAP2 PUSH1 0x20 ADD SWAP2 PUSH2 0xD02 JUMP JUMPDEST DUP3 ADD SWAP2 SWAP1 PUSH1 0x0 MSTORE PUSH1 0x20 PUSH1 0x0 KECCAK256 SWAP1 JUMPDEST DUP2 SLOAD DUP2 MSTORE SWAP1 PUSH1 0x1 ADD SWAP1 PUSH1 0x20 ADD DUP1 DUP4 GT PUSH2 0xCE5 JUMPI DUP3 SWAP1 SUB PUSH1 0x1F AND DUP3 ADD SWAP2 JUMPDEST POP POP POP POP POP SWAP1 POP SWAP1 JUMP JUMPDEST PUSH1 0x9 PUSH1 0x0 SWAP1 SLOAD SWAP1 PUSH2 0x100 EXP SWAP1 DIV PUSH3 0xFFFFFF AND DUP2 JUMP JUMPDEST PUSH1 0x0 DUP1 PUSH2 0xD2C PUSH2 0x2D0E JUMP JUMPDEST SWAP1 POP PUSH2 0xD39 DUP2 DUP6 DUP6 PUSH2 0x2D16 JUMP JUMPDEST PUSH1 0x1 SWAP2 POP POP SWAP3 SWAP2 POP POP JUMP JUMPDEST PUSH1 0x6 PUSH1 0x0 SWAP1 SLOAD SWAP1 PUSH2 0x100 EXP SWAP1 DIV PUSH20 0xFFFFFFFFFFFFFFFFFFFFFFFFFFFFFFFFFFFFFFFF AND DUP2 JUMP JUMPDEST PUSH2 0xD72 PUSH2 0x2C90 JUMP JUMPDEST PUSH1 0xF DUP2 PUSH1 0xC PUSH1 0x0 PUSH1 0x4 DUP2 MSTORE PUSH1 0x20 ADD SWAP1 DUP2 MSTORE PUSH1 0x20 ADD PUSH1 0x0 KECCAK256 PUSH1 0x0 ADD SLOAD PUSH1 0xC PUSH1 0x0 PUSH1 0x3 DUP2 MSTORE PUSH1 0x20 ADD SWAP1 DUP2 MSTORE PUSH1 0x20 ADD PUSH1 0x0 KECCAK256 PUSH1 0x0 ADD SLOAD PUSH1 0xC PUSH1 0x0 PUSH1 0x1 DUP2 MSTORE PUSH1 0x20 ADD SWAP1 DUP2 MSTORE PUSH1 0x20 ADD PUSH1 0x0 KECCAK256 PUSH1 0x0 ADD SLOAD PUSH1 0xC PUSH1 0x0 PUSH1 0x4 DUP2 MSTORE PUSH1 0x20 ADD SWAP1 DUP2 MSTORE PUSH1 0x20 ADD PUSH1 0x0 KECCAK256 PUSH1 0x1 ADD SLOAD PUSH1 0xC PUSH1 0x0 PUSH1 0x3 DUP2 MSTORE PUSH1 0x20 ADD SWAP1 DUP2 MSTORE PUSH1 0x20 ADD PUSH1 0x0 KECCAK256 PUSH1 0x1 ADD SLOAD PUSH1 0xC PUSH1 0x0 PUSH1 0x2 DUP2 MSTORE PUSH1 0x20 ADD SWAP1 DUP2 MSTORE PUSH1 0x20 ADD PUSH1 0x0 KECCAK256 PUSH1 0x1 ADD SLOAD PUSH1 0xC PUSH1 0x0 PUSH1 0x1 DUP2 MSTORE PUSH1 0x20 ADD SWAP1 DUP2 MSTORE PUSH1 0x20 ADD PUSH1 0x0 KECCAK256 PUSH1 0x1 ADD SLOAD PUSH2 0xE27 SWAP2 SWAP1 PUSH2 0x3C97 JUMP JUMPDEST PUSH2 0xE31 SWAP2 SWAP1 PUSH2 0x3C97 JUMP JUMPDEST PUSH2 0xE3B SWAP2 SWAP1 PUSH2 0x3C97 JUMP JUMPDEST PUSH2 0xE45 SWAP2 SWAP1 PUSH2 0x3C97 JUMP JUMPDEST PUSH2 0xE4F SWAP2 SWAP1 PUSH2 0x3C97 JUMP JUMPDEST PUSH2 0xE59 SWAP2 SWAP1 PUSH2 0x3C97 JUMP JUMPDEST PUSH2 0xE63 SWAP2 SWAP1 PUSH2 0x3C97 JUMP JUMPDEST GT ISZERO PUSH2 0xEA4 JUMPI PUSH1 0x40 MLOAD PUSH32 0x8C379A000000000000000000000000000000000000000000000000000000000 DUP2 MSTORE PUSH1 0x4 ADD PUSH2 0xE9B SWAP1 PUSH2 0x3D3D JUMP JUMPDEST PUSH1 0x40 MLOAD DUP1 SWAP2 SUB SWAP1 REVERT JUMPDEST DUP1 PUSH1 0xC PUSH1 0x0 PUSH1 0x2 DUP2 MSTORE PUSH1 0x20 ADD SWAP1 DUP2 MSTORE PUSH1 0x20 ADD PUSH1 0x0 KECCAK256 PUSH1 0x0 ADD DUP2 SWAP1 SSTORE POP POP JUMP JUMPDEST PUSH1 0x0 PUSH1 0x2 SLOAD SWAP1 POP SWAP1 JUMP JUMPDEST PUSH1 0x7 PUSH1 0x0 SWAP1 SLOAD SWAP1 PUSH2 0x100 EXP SWAP1 DIV PUSH20 0xFFFFFFFFFFFFFFFFFFFFFFFFFFFFFFFFFFFFFFFF AND DUP2 JUMP JUMPDEST PUSH1 0x8 SLOAD DUP2 JUMP JUMPDEST PUSH1 0x0 DUP1 PUSH2 0xF04 PUSH2 0x2D0E JUMP JUMPDEST SWAP1 POP PUSH2 0xF11 DUP6 DUP3 DUP6 PUSH2 0x2EDF JUMP JUMPDEST PUSH2 0xF1C DUP6 DUP6 DUP6 PUSH2 0x2F6B JUMP JUMPDEST PUSH1 0x1 SWAP2 POP POP SWAP4 SWAP3 POP POP POP JUMP JUMPDEST PUSH2 0xF30 PUSH2 0x2C90 JUMP JUMPDEST DUP1 PUSH1 0x6 PUSH1 0x14 PUSH2 0x100 EXP DUP2 SLOAD DUP2 PUSH1 0xFF MUL NOT AND SWAP1 DUP4 ISZERO ISZERO MUL OR SWAP1 SSTORE POP POP JUMP JUMPDEST PUSH1 0x0 PUSH1 0x12 SWAP1 POP SWAP1 JUMP JUMPDEST PUSH20 0xE592427A0AECE92DE3EDEE1F18E0157C05861564 DUP2 JUMP JUMPDEST PUSH2 0xF76 PUSH2 0x2C90 JUMP JUMPDEST PUSH1 0xF DUP2 PUSH1 0xC PUSH1 0x0 PUSH1 0x4 DUP2 MSTORE PUSH1 0x20 ADD SWAP1 DUP2 MSTORE PUSH1 0x20 ADD PUSH1 0x0 KECCAK256 PUSH1 0x0 ADD SLOAD PUSH1 0xC PUSH1 0x0 PUSH1 0x3 DUP2 MSTORE PUSH1 0x20 ADD SWAP1 DUP2 MSTORE PUSH1 0x20 ADD PUSH1 0x0 KECCAK256 PUSH1 0x0 ADD SLOAD PUSH1 0xC PUSH1 0x0 PUSH1 0x2 DUP2 MSTORE PUSH1 0x20 ADD SWAP1 DUP2 MSTORE PUSH1 0x20 ADD PUSH1 0x0 KECCAK256 PUSH1 0x0 ADD SLOAD PUSH1 0xC PUSH1 0x0 PUSH1 0x1 DUP2 MSTORE PUSH1 0x20 ADD SWAP1 DUP2 MSTORE PUSH1 0x20 ADD PUSH1 0x0 KECCAK256 PUSH1 0x0 ADD SLOAD PUSH1 0xC PUSH1 0x0 PUSH1 0x4 DUP2 MSTORE PUSH1 0x20 ADD SWAP1 DUP2 MSTORE PUSH1 0x20 ADD PUSH1 0x0 KECCAK256 PUSH1 0x1 ADD SLOAD PUSH1 0xC PUSH1 0x0 PUSH1 0x3 DUP2 MSTORE PUSH1 0x20 ADD SWAP1 DUP2 MSTORE PUSH1 0x20 ADD PUSH1 0x0 KECCAK256 PUSH1 0x1 ADD SLOAD PUSH1 0xC PUSH1 0x0 PUSH1 0x2 DUP2 MSTORE PUSH1 0x20 ADD SWAP1 DUP2 MSTORE PUSH1 0x20 ADD PUSH1 0x0 KECCAK256 PUSH1 0x1 ADD SLOAD PUSH2 0x102B SWAP2 SWAP1 PUSH2 0x3C97 JUMP JUMPDEST PUSH2 0x1035 SWAP2 SWAP1 PUSH2 0x3C97 JUMP JUMPDEST PUSH2 0x103F SWAP2 SWAP1 PUSH2 0x3C97 JUMP JUMPDEST PUSH2 0x1049 SWAP2 SWAP1 PUSH2 0x3C97 JUMP JUMPDEST PUSH2 0x1053 SWAP2 SWAP1 PUSH2 0x3C97 JUMP JUMPDEST PUSH2 0x105D SWAP2 SWAP1 PUSH2 0x3C97 JUMP JUMPDEST PUSH2 0x1067 SWAP2 SWAP1 PUSH2 0x3C97 JUMP JUMPDEST GT ISZERO PUSH2 0x10A8 JUMPI PUSH1 0x40 MLOAD PUSH32 0x8C379A000000000000000000000000000000000000000000000000000000000 DUP2 MSTORE PUSH1 0x4 ADD PUSH2 0x109F SWAP1 PUSH2 0x3D3D JUMP JUMPDEST PUSH1 0x40 MLOAD DUP1 SWAP2 SUB SWAP1 REVERT JUMPDEST DUP1 PUSH1 0xC PUSH1 0x0 PUSH1 0x1 DUP2 MSTORE PUSH1 0x20 ADD SWAP1 DUP2 MSTORE PUSH1 0x20 ADD PUSH1 0x0 KECCAK256 PUSH1 0x1 ADD DUP2 SWAP1 SSTORE POP POP JUMP JUMPDEST PUSH1 0xA PUSH1 0x20 MSTORE DUP1 PUSH1 0x0 MSTORE PUSH1 0x40 PUSH1 0x0 KECCAK256 PUSH1 0x0 SWAP2 POP SLOAD SWAP1 PUSH2 0x100 EXP SWAP1 DIV PUSH1 0xFF AND DUP2 JUMP JUMPDEST PUSH1 0x0 DUP1 PUSH2 0x10F2 PUSH2 0x2D0E JUMP JUMPDEST SWAP1 POP PUSH2 0x1113 DUP2 DUP6 DUP6 PUSH2 0x1104 DUP6 DUP10 PUSH2 0x289A JUMP JUMPDEST PUSH2 0x110E SWAP2 SWAP1 PUSH2 0x3C97 JUMP JUMPDEST PUSH2 0x2D16 JUMP JUMPDEST PUSH1 0x1 SWAP2 POP POP SWAP3 SWAP2 POP POP JUMP JUMPDEST PUSH2 0x112F PUSH2 0x1129 PUSH2 0x2D0E JUMP JUMPDEST DUP3 PUSH2 0x31E1 JUMP JUMPDEST POP JUMP JUMPDEST PUSH2 0x113A PUSH2 0x2C90 JUMP JUMPDEST PUSH1 0xF DUP2 PUSH1 0xC PUSH1 0x0 PUSH1 0x4 DUP2 MSTORE PUSH1 0x20 ADD SWAP1 DUP2 MSTORE PUSH1 0x20 ADD PUSH1 0x0 KECCAK256 PUSH1 0x0 ADD SLOAD PUSH1 0xC PUSH1 0x0 PUSH1 0x3 DUP2 MSTORE PUSH1 0x20 ADD SWAP1 DUP2 MSTORE PUSH1 0x20 ADD PUSH1 0x0 KECCAK256 PUSH1 0x0 ADD SLOAD PUSH1 0xC PUSH1 0x0 PUSH1 0x2 DUP2 MSTORE PUSH1 0x20 ADD SWAP1 DUP2 MSTORE PUSH1 0x20 ADD PUSH1 0x0 KECCAK256 PUSH1 0x0 ADD SLOAD PUSH1 0xC PUSH1 0x0 PUSH1 0x1 DUP2 MSTORE PUSH1 0x20 ADD SWAP1 DUP2 MSTORE PUSH1 0x20 ADD PUSH1 0x0 KECCAK256 PUSH1 0x0 ADD SLOAD PUSH1 0xC PUSH1 0x0 PUSH1 0x4 DUP2 MSTORE PUSH1 0x20 ADD SWAP1 DUP2 MSTORE PUSH1 0x20 ADD PUSH1 0x0 KECCAK256 PUSH1 0x1 ADD SLOAD PUSH1 0xC PUSH1 0x0 PUSH1 0x3 DUP2 MSTORE PUSH1 0x20 ADD SWAP1 DUP2 MSTORE PUSH1 0x20 ADD PUSH1 0x0 KECCAK256 PUSH1 0x1 ADD SLOAD PUSH1 0xC PUSH1 0x0 PUSH1 0x2 DUP2 MSTORE PUSH1 0x20 ADD SWAP1 DUP2 MSTORE PUSH1 0x20 ADD PUSH1 0x0 KECCAK256 PUSH1 0x1 ADD SLOAD PUSH1 0xC PUSH1 0x0 PUSH1 0x1 DUP2 MSTORE PUSH1 0x20 ADD SWAP1 DUP2 MSTORE PUSH1 0x20 ADD PUSH1 0x0 KECCAK256 PUSH1 0x1 ADD SLOAD PUSH2 0x1207 SWAP2 SWAP1 PUSH2 0x3C97 JUMP JUMPDEST PUSH2 0x1211 SWAP2 SWAP1 PUSH2 0x3C97 JUMP JUMPDEST PUSH2 0x121B SWAP2 SWAP1 PUSH2 0x3C97 JUMP JUMPDEST PUSH2 0x1225 SWAP2 SWAP1 PUSH2 0x3C97 JUMP JUMPDEST PUSH2 0x122F SWAP2 SWAP1 PUSH2 0x3C97 JUMP JUMPDEST PUSH2 0x1239 SWAP2 SWAP1 PUSH2 0x3C97 JUMP JUMPDEST PUSH2 0x1243 SWAP2 SWAP1 PUSH2 0x3C97 JUMP JUMPDEST PUSH2 0x124D SWAP2 SWAP1 PUSH2 0x3C97 JUMP JUMPDEST GT ISZERO PUSH2 0x128E JUMPI PUSH1 0x40 MLOAD PUSH32 0x8C379A000000000000000000000000000000000000000000000000000000000 DUP2 MSTORE PUSH1 0x4 ADD PUSH2 0x1285 SWAP1 PUSH2 0x3D3D JUMP JUMPDEST PUSH1 0x40 MLOAD DUP1 SWAP2 SUB SWAP1 REVERT JUMPDEST DUP1 PUSH1 0xC PUSH1 0x0 PUSH1 0x1 DUP2 MSTORE PUSH1 0x20 ADD SWAP1 DUP2 MSTORE PUSH1 0x20 ADD PUSH1 0x0 KECCAK256 PUSH1 0x0 ADD DUP2 SWAP1 SSTORE POP POP JUMP JUMPDEST PUSH1 0xD PUSH1 0x0 SWAP1 SLOAD SWAP1 PUSH2 0x100 EXP SWAP1 DIV PUSH20 0xFFFFFFFFFFFFFFFFFFFFFFFFFFFFFFFFFFFFFFFF AND DUP2 JUMP JUMPDEST PUSH2 0x12DB PUSH2 0x2C90 JUMP JUMPDEST PUSH1 0xD PUSH1 0x0 SWAP1 SLOAD SWAP1 PUSH2 0x100 EXP SWAP1 DIV PUSH20 0xFFFFFFFFFFFFFFFFFFFFFFFFFFFFFFFFFFFFFFFF AND PUSH20 0xFFFFFFFFFFFFFFFFFFFFFFFFFFFFFFFFFFFFFFFF AND PUSH4 0xA9059CBB DUP4 DUP4 PUSH1 0x40 MLOAD DUP4 PUSH4 0xFFFFFFFF AND PUSH1 0xE0 SHL DUP2 MSTORE PUSH1 0x4 ADD PUSH2 0x1338 SWAP3 SWAP2 SWAP1 PUSH2 0x3C2C JUMP JUMPDEST PUSH1 0x20 PUSH1 0x40 MLOAD DUP1 DUP4 SUB DUP2 PUSH1 0x0 DUP8 GAS CALL ISZERO DUP1 ISZERO PUSH2 0x1357 JUMPI RETURNDATASIZE PUSH1 0x0 DUP1 RETURNDATACOPY RETURNDATASIZE PUSH1 0x0 REVERT JUMPDEST POP POP POP POP PUSH1 0x40 MLOAD RETURNDATASIZE PUSH1 0x1F NOT PUSH1 0x1F DUP3 ADD AND DUP3 ADD DUP1 PUSH1 0x40 MSTORE POP DUP2 ADD SWAP1 PUSH2 0x137B SWAP2 SWAP1 PUSH2 0x3C6A JUMP JUMPDEST POP POP POP JUMP JUMPDEST PUSH1 0x1 PUSH1 0xA PUSH1 0x0 DUP4 PUSH20 0xFFFFFFFFFFFFFFFFFFFFFFFFFFFFFFFFFFFFFFFF AND PUSH20 0xFFFFFFFFFFFFFFFFFFFFFFFFFFFFFFFFFFFFFFFF AND DUP2 MSTORE PUSH1 0x20 ADD SWAP1 DUP2 MSTORE PUSH1 0x20 ADD PUSH1 0x0 KECCAK256 PUSH1 0x0 PUSH2 0x100 EXP DUP2 SLOAD DUP2 PUSH1 0xFF MUL NOT AND SWAP1 DUP4 ISZERO ISZERO MUL OR SWAP1 SSTORE POP POP JUMP JUMPDEST PUSH1 0x0 DUP1 PUSH1 0x0 DUP4 PUSH20 0xFFFFFFFFFFFFFFFFFFFFFFFFFFFFFFFFFFFFFFFF AND PUSH20 0xFFFFFFFFFFFFFFFFFFFFFFFFFFFFFFFFFFFFFFFF AND DUP2 MSTORE PUSH1 0x20 ADD SWAP1 DUP2 MSTORE PUSH1 0x20 ADD PUSH1 0x0 KECCAK256 SLOAD SWAP1 POP SWAP2 SWAP1 POP JUMP JUMPDEST PUSH2 0x142B PUSH2 0x2C90 JUMP JUMPDEST PUSH2 0x1435 PUSH1 0x0 PUSH2 0x33AE JUMP JUMPDEST JUMP JUMPDEST PUSH1 0x0 PUSH1 0xD PUSH1 0x0 SWAP1 SLOAD SWAP1 PUSH2 0x100 EXP SWAP1 DIV PUSH20 0xFFFFFFFFFFFFFFFFFFFFFFFFFFFFFFFFFFFFFFFF AND PUSH20 0xFFFFFFFFFFFFFFFFFFFFFFFFFFFFFFFFFFFFFFFF AND PUSH4 0x95EA7B3 PUSH32 0x0 DUP6 PUSH1 0x40 MLOAD DUP4 PUSH4 0xFFFFFFFF AND PUSH1 0xE0 SHL DUP2 MSTORE PUSH1 0x4 ADD PUSH2 0x14B6 SWAP3 SWAP2 SWAP1 PUSH2 0x3C2C JUMP JUMPDEST PUSH1 0x20 PUSH1 0x40 MLOAD DUP1 DUP4 SUB DUP2 PUSH1 0x0 DUP8 GAS CALL ISZERO DUP1 ISZERO PUSH2 0x14D5 JUMPI RETURNDATASIZE PUSH1 0x0 DUP1 RETURNDATACOPY RETURNDATASIZE PUSH1 0x0 REVERT JUMPDEST POP POP POP POP PUSH1 0x40 MLOAD RETURNDATASIZE PUSH1 0x1F NOT PUSH1 0x1F DUP3 ADD AND DUP3 ADD DUP1 PUSH1 0x40 MSTORE POP DUP2 ADD SWAP1 PUSH2 0x14F9 SWAP2 SWAP1 PUSH2 0x3C6A JUMP JUMPDEST POP PUSH1 0x0 PUSH1 0x40 MLOAD DUP1 PUSH2 0x100 ADD PUSH1 0x40 MSTORE DUP1 ADDRESS PUSH20 0xFFFFFFFFFFFFFFFFFFFFFFFFFFFFFFFFFFFFFFFF AND DUP2 MSTORE PUSH1 0x20 ADD PUSH1 0x9 PUSH1 0x3 SWAP1 SLOAD SWAP1 PUSH2 0x100 EXP SWAP1 DIV PUSH20 0xFFFFFFFFFFFFFFFFFFFFFFFFFFFFFFFFFFFFFFFF AND PUSH20 0xFFFFFFFFFFFFFFFFFFFFFFFFFFFFFFFFFFFFFFFF AND DUP2 MSTORE PUSH1 0x20 ADD PUSH1 0x9 PUSH1 0x0 SWAP1 SLOAD SWAP1 PUSH2 0x100 EXP SWAP1 DIV PUSH3 0xFFFFFF AND PUSH3 0xFFFFFF AND DUP2 MSTORE PUSH1 0x20 ADD DUP5 PUSH20 0xFFFFFFFFFFFFFFFFFFFFFFFFFFFFFFFFFFFFFFFF AND DUP2 MSTORE PUSH1 0x20 ADD TIMESTAMP DUP2 MSTORE PUSH1 0x20 ADD DUP6 DUP2 MSTORE PUSH1 0x20 ADD PUSH1 0x0 DUP2 MSTORE PUSH1 0x20 ADD PUSH1 0x0 PUSH20 0xFFFFFFFFFFFFFFFFFFFFFFFFFFFFFFFFFFFFFFFF AND DUP2 MSTORE POP SWAP1 POP PUSH32 0x0 PUSH20 0xFFFFFFFFFFFFFFFFFFFFFFFFFFFFFFFFFFFFFFFF AND PUSH4 0x414BF389 DUP3 PUSH1 0x40 MLOAD DUP3 PUSH4 0xFFFFFFFF AND PUSH1 0xE0 SHL DUP2 MSTORE PUSH1 0x4 ADD PUSH2 0x1623 SWAP2 SWAP1 PUSH2 0x3E9B JUMP JUMPDEST PUSH1 0x20 PUSH1 0x40 MLOAD DUP1 DUP4 SUB DUP2 PUSH1 0x0 DUP8 GAS CALL ISZERO DUP1 ISZERO PUSH2 0x1642 JUMPI RETURNDATASIZE PUSH1 0x0 DUP1 RETURNDATACOPY RETURNDATASIZE PUSH1 0x0 REVERT JUMPDEST POP POP POP POP PUSH1 0x40 MLOAD RETURNDATASIZE PUSH1 0x1F NOT PUSH1 0x1F DUP3 ADD AND DUP3 ADD DUP1 PUSH1 0x40 MSTORE POP DUP2 ADD SWAP1 PUSH2 0x1666 SWAP2 SWAP1 PUSH2 0x3ECC JUMP JUMPDEST SWAP2 POP POP SWAP3 SWAP2 POP POP JUMP JUMPDEST PUSH2 0x1681 DUP3 PUSH2 0x167B PUSH2 0x2D0E JUMP JUMPDEST DUP4 PUSH2 0x2EDF JUMP JUMPDEST PUSH2 0x168B DUP3 DUP3 PUSH2 0x31E1 JUMP JUMPDEST POP POP JUMP JUMPDEST PUSH1 0xE PUSH1 0x0 SWAP1 SLOAD SWAP1 PUSH2 0x100 EXP SWAP1 DIV PUSH20 0xFFFFFFFFFFFFFFFFFFFFFFFFFFFFFFFFFFFFFFFF AND DUP2 JUMP JUMPDEST PUSH1 0x0 PUSH1 0xE PUSH1 0x0 SWAP1 SLOAD SWAP1 PUSH2 0x100 EXP SWAP1 DIV PUSH20 0xFFFFFFFFFFFFFFFFFFFFFFFFFFFFFFFFFFFFFFFF AND PUSH20 0xFFFFFFFFFFFFFFFFFFFFFFFFFFFFFFFFFFFFFFFF AND PUSH4 0x70A08231 DUP4 PUSH1 0x40 MLOAD DUP3 PUSH4 0xFFFFFFFF AND PUSH1 0xE0 SHL DUP2 MSTORE PUSH1 0x4 ADD PUSH2 0x1712 SWAP2 SWAP1 PUSH2 0x3704 JUMP JUMPDEST PUSH1 0x20 PUSH1 0x40 MLOAD DUP1 DUP4 SUB DUP2 DUP7 GAS STATICCALL ISZERO DUP1 ISZERO PUSH2 0x172F JUMPI RETURNDATASIZE PUSH1 0x0 DUP1 RETURNDATACOPY RETURNDATASIZE PUSH1 0x0 REVERT JUMPDEST POP POP POP POP PUSH1 0x40 MLOAD RETURNDATASIZE PUSH1 0x1F NOT PUSH1 0x1F DUP3 ADD AND DUP3 ADD DUP1 PUSH1 0x40 MSTORE POP DUP2 ADD SWAP1 PUSH2 0x1753 SWAP2 SWAP1 PUSH2 0x3ECC JUMP JUMPDEST SWAP1 POP SWAP2 SWAP1 POP JUMP JUMPDEST PUSH1 0x0 PUSH1 0x5 PUSH1 0x0 SWAP1 SLOAD SWAP1 PUSH2 0x100 EXP SWAP1 DIV PUSH20 0xFFFFFFFFFFFFFFFFFFFFFFFFFFFFFFFFFFFFFFFF AND SWAP1 POP SWAP1 JUMP JUMPDEST PUSH1 0x9 PUSH1 0x3 SWAP1 SLOAD SWAP1 PUSH2 0x100 EXP SWAP1 DIV PUSH20 0xFFFFFFFFFFFFFFFFFFFFFFFFFFFFFFFFFFFFFFFF AND DUP2 JUMP JUMPDEST PUSH1 0x60 PUSH1 0x4 DUP1 SLOAD PUSH2 0x17B9 SWAP1 PUSH2 0x3D8C JUMP JUMPDEST DUP1 PUSH1 0x1F ADD PUSH1 0x20 DUP1 SWAP2 DIV MUL PUSH1 0x20 ADD PUSH1 0x40 MLOAD SWAP1 DUP2 ADD PUSH1 0x40 MSTORE DUP1 SWAP3 SWAP2 SWAP1 DUP2 DUP2 MSTORE PUSH1 0x20 ADD DUP3 DUP1 SLOAD PUSH2 0x17E5 SWAP1 PUSH2 0x3D8C JUMP JUMPDEST DUP1 ISZERO PUSH2 0x1832 JUMPI DUP1 PUSH1 0x1F LT PUSH2 0x1807 JUMPI PUSH2 0x100 DUP1 DUP4 SLOAD DIV MUL DUP4 MSTORE SWAP2 PUSH1 0x20 ADD SWAP2 PUSH2 0x1832 JUMP JUMPDEST DUP3 ADD SWAP2 SWAP1 PUSH1 0x0 MSTORE PUSH1 0x20 PUSH1 0x0 KECCAK256 SWAP1 JUMPDEST DUP2 SLOAD DUP2 MSTORE SWAP1 PUSH1 0x1 ADD SWAP1 PUSH1 0x20 ADD DUP1 DUP4 GT PUSH2 0x1815 JUMPI DUP3 SWAP1 SUB PUSH1 0x1F AND DUP3 ADD SWAP2 JUMPDEST POP POP POP POP POP SWAP1 POP SWAP1 JUMP JUMPDEST PUSH2 0x1844 PUSH2 0x2C90 JUMP JUMPDEST DUP1 PUSH1 0xC PUSH1 0x0 PUSH1 0x4 DUP2 MSTORE PUSH1 0x20 ADD SWAP1 DUP2 MSTORE PUSH1 0x20 ADD PUSH1 0x0 KECCAK256 PUSH1 0x2 ADD DUP2 SWAP1 SSTORE POP POP JUMP JUMPDEST PUSH1 0x0 DUP1 PUSH2 0x186E PUSH2 0x2D0E JUMP JUMPDEST SWAP1 POP PUSH1 0x0 PUSH2 0x187C DUP3 DUP7 PUSH2 0x289A JUMP JUMPDEST SWAP1 POP DUP4 DUP2 LT ISZERO PUSH2 0x18C1 JUMPI PUSH1 0x40 MLOAD PUSH32 0x8C379A000000000000000000000000000000000000000000000000000000000 DUP2 MSTORE PUSH1 0x4 ADD PUSH2 0x18B8 SWAP1 PUSH2 0x3F6B JUMP JUMPDEST PUSH1 0x40 MLOAD DUP1 SWAP2 SUB SWAP1 REVERT JUMPDEST PUSH2 0x18CE DUP3 DUP7 DUP7 DUP5 SUB PUSH2 0x2D16 JUMP JUMPDEST PUSH1 0x1 SWAP3 POP POP POP SWAP3 SWAP2 POP POP JUMP JUMPDEST PUSH1 0x0 PUSH1 0xA PUSH1 0x0 CALLER PUSH20 0xFFFFFFFFFFFFFFFFFFFFFFFFFFFFFFFFFFFFFFFF AND PUSH20 0xFFFFFFFFFFFFFFFFFFFFFFFFFFFFFFFFFFFFFFFF AND DUP2 MSTORE PUSH1 0x20 ADD SWAP1 DUP2 MSTORE PUSH1 0x20 ADD PUSH1 0x0 KECCAK256 PUSH1 0x0 SWAP1 SLOAD SWAP1 PUSH2 0x100 EXP SWAP1 DIV PUSH1 0xFF AND ISZERO PUSH2 0x193F JUMPI PUSH2 0x1938 DUP4 DUP4 PUSH2 0x3474 JUMP JUMPDEST SWAP1 POP PUSH2 0x23B4 JUMP JUMPDEST PUSH1 0x7 PUSH1 0x0 SWAP1 SLOAD SWAP1 PUSH2 0x100 EXP SWAP1 DIV PUSH20 0xFFFFFFFFFFFFFFFFFFFFFFFFFFFFFFFFFFFFFFFF AND PUSH20 0xFFFFFFFFFFFFFFFFFFFFFFFFFFFFFFFFFFFFFFFF AND CALLER PUSH20 0xFFFFFFFFFFFFFFFFFFFFFFFFFFFFFFFFFFFFFFFF AND SUB PUSH2 0x1E73 JUMPI PUSH1 0x0 PUSH1 0x64 PUSH1 0xC PUSH1 0x0 PUSH1 0x1 DUP2 MSTORE PUSH1 0x20 ADD SWAP1 DUP2 MSTORE PUSH1 0x20 ADD PUSH1 0x0 KECCAK256 PUSH1 0x1 ADD SLOAD DUP5 PUSH2 0x19BB SWAP2 SWAP1 PUSH2 0x3B56 JUMP JUMPDEST PUSH2 0x19C5 SWAP2 SWAP1 PUSH2 0x3BC7 JUMP JUMPDEST SWAP1 POP PUSH1 0x0 PUSH1 0x64 PUSH1 0xC PUSH1 0x0 PUSH1 0x2 DUP2 MSTORE PUSH1 0x20 ADD SWAP1 DUP2 MSTORE PUSH1 0x20 ADD PUSH1 0x0 KECCAK256 PUSH1 0x1 ADD SLOAD DUP6 PUSH2 0x19EE SWAP2 SWAP1 PUSH2 0x3B56 JUMP JUMPDEST PUSH2 0x19F8 SWAP2 SWAP1 PUSH2 0x3BC7 JUMP JUMPDEST SWAP1 POP PUSH1 0x0 PUSH1 0x64 PUSH1 0xC PUSH1 0x0 PUSH1 0x3 DUP2 MSTORE PUSH1 0x20 ADD SWAP1 DUP2 MSTORE PUSH1 0x20 ADD PUSH1 0x0 KECCAK256 PUSH1 0x1 ADD SLOAD DUP7 PUSH2 0x1A21 SWAP2 SWAP1 PUSH2 0x3B56 JUMP JUMPDEST PUSH2 0x1A2B SWAP2 SWAP1 PUSH2 0x3BC7 JUMP JUMPDEST SWAP1 POP PUSH1 0x0 PUSH1 0x64 PUSH1 0xC PUSH1 0x0 PUSH1 0x4 DUP2 MSTORE PUSH1 0x20 ADD SWAP1 DUP2 MSTORE PUSH1 0x20 ADD PUSH1 0x0 KECCAK256 PUSH1 0x1 ADD SLOAD DUP8 PUSH2 0x1A54 SWAP2 SWAP1 PUSH2 0x3B56 JUMP JUMPDEST PUSH2 0x1A5E SWAP2 SWAP1 PUSH2 0x3BC7 JUMP JUMPDEST SWAP1 POP DUP4 PUSH1 0x8 PUSH1 0x0 DUP3 DUP3 SLOAD PUSH2 0x1A72 SWAP2 SWAP1 PUSH2 0x3C97 JUMP JUMPDEST SWAP3 POP POP DUP2 SWAP1 SSTORE POP PUSH1 0x1 PUSH1 0xB PUSH1 0x0 CALLER PUSH20 0xFFFFFFFFFFFFFFFFFFFFFFFFFFFFFFFFFFFFFFFF AND PUSH20 0xFFFFFFFFFFFFFFFFFFFFFFFFFFFFFFFFFFFFFFFF AND DUP2 MSTORE PUSH1 0x20 ADD SWAP1 DUP2 MSTORE PUSH1 0x20 ADD PUSH1 0x0 KECCAK256 PUSH1 0x0 ADD PUSH1 0x1 PUSH2 0x100 EXP DUP2 SLOAD DUP2 PUSH1 0xFF MUL NOT AND SWAP1 DUP4 ISZERO ISZERO MUL OR SWAP1 SSTORE POP PUSH1 0xC PUSH1 0x0 PUSH1 0x2 DUP2 MSTORE PUSH1 0x20 ADD SWAP1 DUP2 MSTORE PUSH1 0x20 ADD PUSH1 0x0 KECCAK256 PUSH1 0x2 ADD SLOAD DUP4 PUSH1 0xC PUSH1 0x0 PUSH1 0x2 DUP2 MSTORE PUSH1 0x20 ADD SWAP1 DUP2 MSTORE PUSH1 0x20 ADD PUSH1 0x0 KECCAK256 PUSH1 0x3 ADD SLOAD PUSH2 0x1B0F SWAP2 SWAP1 PUSH2 0x3C97 JUMP JUMPDEST LT ISZERO DUP1 ISZERO PUSH2 0x1B35 JUMPI POP PUSH1 0x0 PUSH1 0xC PUSH1 0x0 PUSH1 0x2 DUP2 MSTORE PUSH1 0x20 ADD SWAP1 DUP2 MSTORE PUSH1 0x20 ADD PUSH1 0x0 KECCAK256 PUSH1 0x2 ADD SLOAD EQ ISZERO JUMPDEST ISZERO PUSH2 0x1C3F JUMPI PUSH2 0x1B89 PUSH1 0x7 PUSH1 0x0 SWAP1 SLOAD SWAP1 PUSH2 0x100 EXP SWAP1 DIV PUSH20 0xFFFFFFFFFFFFFFFFFFFFFFFFFFFFFFFFFFFFFFFF AND PUSH1 0x2 PUSH1 0xC PUSH1 0x0 PUSH1 0x2 DUP2 MSTORE PUSH1 0x20 ADD SWAP1 DUP2 MSTORE PUSH1 0x20 ADD PUSH1 0x0 KECCAK256 PUSH1 0x2 ADD SLOAD PUSH2 0x1B84 SWAP2 SWAP1 PUSH2 0x3BC7 JUMP JUMPDEST PUSH2 0x3474 JUMP JUMPDEST POP PUSH2 0x1BD9 PUSH1 0x2 PUSH1 0xC PUSH1 0x0 PUSH1 0x2 DUP2 MSTORE PUSH1 0x20 ADD SWAP1 DUP2 MSTORE PUSH1 0x20 ADD PUSH1 0x0 KECCAK256 PUSH1 0x2 ADD SLOAD PUSH2 0x1BB1 SWAP2 SWAP1 PUSH2 0x3BC7 JUMP JUMPDEST PUSH1 0x7 PUSH1 0x0 SWAP1 SLOAD SWAP1 PUSH2 0x100 EXP SWAP1 DIV PUSH20 0xFFFFFFFFFFFFFFFFFFFFFFFFFFFFFFFFFFFFFFFF AND PUSH2 0x1437 JUMP JUMPDEST POP PUSH1 0xC PUSH1 0x0 PUSH1 0x2 DUP2 MSTORE PUSH1 0x20 ADD SWAP1 DUP2 MSTORE PUSH1 0x20 ADD PUSH1 0x0 KECCAK256 PUSH1 0x2 ADD SLOAD DUP4 PUSH1 0xC PUSH1 0x0 PUSH1 0x2 DUP2 MSTORE PUSH1 0x20 ADD SWAP1 DUP2 MSTORE PUSH1 0x20 ADD PUSH1 0x0 KECCAK256 PUSH1 0x3 ADD SLOAD PUSH2 0x1C15 SWAP2 SWAP1 PUSH2 0x3C97 JUMP JUMPDEST PUSH2 0x1C1F SWAP2 SWAP1 PUSH2 0x3BF8 JUMP JUMPDEST PUSH1 0xC PUSH1 0x0 PUSH1 0x2 DUP2 MSTORE PUSH1 0x20 ADD SWAP1 DUP2 MSTORE PUSH1 0x20 ADD PUSH1 0x0 KECCAK256 PUSH1 0x3 ADD DUP2 SWAP1 SSTORE POP PUSH2 0x1C6E JUMP JUMPDEST DUP3 PUSH1 0xC PUSH1 0x0 PUSH1 0x2 DUP2 MSTORE PUSH1 0x20 ADD SWAP1 DUP2 MSTORE PUSH1 0x20 ADD PUSH1 0x0 KECCAK256 PUSH1 0x3 ADD PUSH1 0x0 DUP3 DUP3 SLOAD PUSH2 0x1C66 SWAP2 SWAP1 PUSH2 0x3C97 JUMP JUMPDEST SWAP3 POP POP DUP2 SWAP1 SSTORE POP JUMPDEST PUSH1 0xC PUSH1 0x0 PUSH1 0x4 DUP2 MSTORE PUSH1 0x20 ADD SWAP1 DUP2 MSTORE PUSH1 0x20 ADD PUSH1 0x0 KECCAK256 PUSH1 0x2 ADD SLOAD DUP2 PUSH1 0xC PUSH1 0x0 PUSH1 0x4 DUP2 MSTORE PUSH1 0x20 ADD SWAP1 DUP2 MSTORE PUSH1 0x20 ADD PUSH1 0x0 KECCAK256 PUSH1 0x3 ADD SLOAD PUSH2 0x1CA9 SWAP2 SWAP1 PUSH2 0x3C97 JUMP JUMPDEST LT ISZERO DUP1 ISZERO PUSH2 0x1CC3 JUMPI POP PUSH1 0x6 PUSH1 0x14 SWAP1 SLOAD SWAP1 PUSH2 0x100 EXP SWAP1 DIV PUSH1 0xFF AND JUMPDEST DUP1 ISZERO PUSH2 0x1CE7 JUMPI POP PUSH1 0x0 PUSH1 0xC PUSH1 0x0 PUSH1 0x4 DUP2 MSTORE PUSH1 0x20 ADD SWAP1 DUP2 MSTORE PUSH1 0x20 ADD PUSH1 0x0 KECCAK256 PUSH1 0x2 ADD SLOAD EQ ISZERO JUMPDEST ISZERO PUSH2 0x1D73 JUMPI PUSH2 0x1D0D PUSH1 0xC PUSH1 0x0 PUSH1 0x4 DUP2 MSTORE PUSH1 0x20 ADD SWAP1 DUP2 MSTORE PUSH1 0x20 ADD PUSH1 0x0 KECCAK256 PUSH1 0x2 ADD SLOAD ADDRESS PUSH2 0x1437 JUMP JUMPDEST POP PUSH1 0xC PUSH1 0x0 PUSH1 0x4 DUP2 MSTORE PUSH1 0x20 ADD SWAP1 DUP2 MSTORE PUSH1 0x20 ADD PUSH1 0x0 KECCAK256 PUSH1 0x2 ADD SLOAD DUP2 PUSH1 0xC PUSH1 0x0 PUSH1 0x4 DUP2 MSTORE PUSH1 0x20 ADD SWAP1 DUP2 MSTORE PUSH1 0x20 ADD PUSH1 0x0 KECCAK256 PUSH1 0x3 ADD SLOAD PUSH2 0x1D49 SWAP2 SWAP1 PUSH2 0x3C97 JUMP JUMPDEST PUSH2 0x1D53 SWAP2 SWAP1 PUSH2 0x3BF8 JUMP JUMPDEST PUSH1 0xC PUSH1 0x0 PUSH1 0x4 DUP2 MSTORE PUSH1 0x20 ADD SWAP1 DUP2 MSTORE PUSH1 0x20 ADD PUSH1 0x0 KECCAK256 PUSH1 0x3 ADD DUP2 SWAP1 SSTORE POP PUSH2 0x1DA2 JUMP JUMPDEST DUP1 PUSH1 0xC PUSH1 0x0 PUSH1 0x4 DUP2 MSTORE PUSH1 0x20 ADD SWAP1 DUP2 MSTORE PUSH1 0x20 ADD PUSH1 0x0 KECCAK256 PUSH1 0x3 ADD PUSH1 0x0 DUP3 DUP3 SLOAD PUSH2 0x1D9A SWAP2 SWAP1 PUSH2 0x3C97 JUMP JUMPDEST SWAP3 POP POP DUP2 SWAP1 SSTORE POP JUMPDEST PUSH2 0x1DCE PUSH1 0x6 PUSH1 0x0 SWAP1 SLOAD SWAP1 PUSH2 0x100 EXP SWAP1 DIV PUSH20 0xFFFFFFFFFFFFFFFFFFFFFFFFFFFFFFFFFFFFFFFF AND DUP6 PUSH2 0x3474 JUMP JUMPDEST POP PUSH2 0x1DFB PUSH1 0x6 PUSH1 0x0 SWAP1 SLOAD SWAP1 PUSH2 0x100 EXP SWAP1 DIV PUSH20 0xFFFFFFFFFFFFFFFFFFFFFFFFFFFFFFFFFFFFFFFF AND DUP5 PUSH2 0x3474 JUMP JUMPDEST POP PUSH2 0x1E05 DUP3 PUSH2 0x111E JUMP JUMPDEST PUSH2 0x1E31 PUSH1 0x6 PUSH1 0x0 SWAP1 SLOAD SWAP1 PUSH2 0x100 EXP SWAP1 DIV PUSH20 0xFFFFFFFFFFFFFFFFFFFFFFFFFFFFFFFFFFFFFFFF AND DUP3 PUSH2 0x3474 JUMP JUMPDEST POP PUSH2 0x1E68 DUP8 DUP3 DUP5 DUP7 DUP9 PUSH2 0x1E44 SWAP2 SWAP1 PUSH2 0x3C97 JUMP JUMPDEST PUSH2 0x1E4E SWAP2 SWAP1 PUSH2 0x3C97 JUMP JUMPDEST PUSH2 0x1E58 SWAP2 SWAP1 PUSH2 0x3C97 JUMP JUMPDEST DUP9 PUSH2 0x1E63 SWAP2 SWAP1 PUSH2 0x3BF8 JUMP JUMPDEST PUSH2 0x3474 JUMP JUMPDEST SWAP5 POP POP POP POP POP PUSH2 0x23B4 JUMP JUMPDEST PUSH1 0x7 PUSH1 0x0 SWAP1 SLOAD SWAP1 PUSH2 0x100 EXP SWAP1 DIV PUSH20 0xFFFFFFFFFFFFFFFFFFFFFFFFFFFFFFFFFFFFFFFF AND PUSH20 0xFFFFFFFFFFFFFFFFFFFFFFFFFFFFFFFFFFFFFFFF AND DUP4 PUSH20 0xFFFFFFFFFFFFFFFFFFFFFFFFFFFFFFFFFFFFFFFF AND SUB PUSH2 0x23A7 JUMPI PUSH1 0x0 PUSH1 0x64 PUSH1 0xC PUSH1 0x0 PUSH1 0x1 DUP2 MSTORE PUSH1 0x20 ADD SWAP1 DUP2 MSTORE PUSH1 0x20 ADD PUSH1 0x0 KECCAK256 PUSH1 0x0 ADD SLOAD DUP5 PUSH2 0x1EEF SWAP2 SWAP1 PUSH2 0x3B56 JUMP JUMPDEST PUSH2 0x1EF9 SWAP2 SWAP1 PUSH2 0x3BC7 JUMP JUMPDEST SWAP1 POP PUSH1 0x0 PUSH1 0x64 PUSH1 0xC PUSH1 0x0 PUSH1 0x2 DUP2 MSTORE PUSH1 0x20 ADD SWAP1 DUP2 MSTORE PUSH1 0x20 ADD PUSH1 0x0 KECCAK256 PUSH1 0x0 ADD SLOAD DUP6 PUSH2 0x1F22 SWAP2 SWAP1 PUSH2 0x3B56 JUMP JUMPDEST PUSH2 0x1F2C SWAP2 SWAP1 PUSH2 0x3BC7 JUMP JUMPDEST SWAP1 POP PUSH1 0x0 PUSH1 0x64 PUSH1 0xC PUSH1 0x0 PUSH1 0x3 DUP2 MSTORE PUSH1 0x20 ADD SWAP1 DUP2 MSTORE PUSH1 0x20 ADD PUSH1 0x0 KECCAK256 PUSH1 0x0 ADD SLOAD DUP7 PUSH2 0x1F55 SWAP2 SWAP1 PUSH2 0x3B56 JUMP JUMPDEST PUSH2 0x1F5F SWAP2 SWAP1 PUSH2 0x3BC7 JUMP JUMPDEST SWAP1 POP PUSH1 0x0 PUSH1 0x64 PUSH1 0xC PUSH1 0x0 PUSH1 0x4 DUP2 MSTORE PUSH1 0x20 ADD SWAP1 DUP2 MSTORE PUSH1 0x20 ADD PUSH1 0x0 KECCAK256 PUSH1 0x0 ADD SLOAD DUP8 PUSH2 0x1F88 SWAP2 SWAP1 PUSH2 0x3B56 JUMP JUMPDEST PUSH2 0x1F92 SWAP2 SWAP1 PUSH2 0x3BC7 JUMP JUMPDEST SWAP1 POP DUP4 PUSH1 0x8 PUSH1 0x0 DUP3 DUP3 SLOAD PUSH2 0x1FA6 SWAP2 SWAP1 PUSH2 0x3C97 JUMP JUMPDEST SWAP3 POP POP DUP2 SWAP1 SSTORE POP PUSH1 0x1 PUSH1 0xB PUSH1 0x0 CALLER PUSH20 0xFFFFFFFFFFFFFFFFFFFFFFFFFFFFFFFFFFFFFFFF AND PUSH20 0xFFFFFFFFFFFFFFFFFFFFFFFFFFFFFFFFFFFFFFFF AND DUP2 MSTORE PUSH1 0x20 ADD SWAP1 DUP2 MSTORE PUSH1 0x20 ADD PUSH1 0x0 KECCAK256 PUSH1 0x0 ADD PUSH1 0x1 PUSH2 0x100 EXP DUP2 SLOAD DUP2 PUSH1 0xFF MUL NOT AND SWAP1 DUP4 ISZERO ISZERO MUL OR SWAP1 SSTORE POP PUSH1 0xC PUSH1 0x0 PUSH1 0x2 DUP2 MSTORE PUSH1 0x20 ADD SWAP1 DUP2 MSTORE PUSH1 0x20 ADD PUSH1 0x0 KECCAK256 PUSH1 0x2 ADD SLOAD DUP4 PUSH1 0xC PUSH1 0x0 PUSH1 0x2 DUP2 MSTORE PUSH1 0x20 ADD SWAP1 DUP2 MSTORE PUSH1 0x20 ADD PUSH1 0x0 KECCAK256 PUSH1 0x3 ADD SLOAD PUSH2 0x2043 SWAP2 SWAP1 PUSH2 0x3C97 JUMP JUMPDEST LT ISZERO DUP1 ISZERO PUSH2 0x2069 JUMPI POP PUSH1 0x0 PUSH1 0xC PUSH1 0x0 PUSH1 0x2 DUP2 MSTORE PUSH1 0x20 ADD SWAP1 DUP2 MSTORE PUSH1 0x20 ADD PUSH1 0x0 KECCAK256 PUSH1 0x2 ADD SLOAD EQ ISZERO JUMPDEST ISZERO PUSH2 0x2173 JUMPI PUSH2 0x20BD PUSH1 0x7 PUSH1 0x0 SWAP1 SLOAD SWAP1 PUSH2 0x100 EXP SWAP1 DIV PUSH20 0xFFFFFFFFFFFFFFFFFFFFFFFFFFFFFFFFFFFFFFFF AND PUSH1 0x2 PUSH1 0xC PUSH1 0x0 PUSH1 0x2 DUP2 MSTORE PUSH1 0x20 ADD SWAP1 DUP2 MSTORE PUSH1 0x20 ADD PUSH1 0x0 KECCAK256 PUSH1 0x2 ADD SLOAD PUSH2 0x20B8 SWAP2 SWAP1 PUSH2 0x3BC7 JUMP JUMPDEST PUSH2 0x3474 JUMP JUMPDEST POP PUSH2 0x210D PUSH1 0x2 PUSH1 0xC PUSH1 0x0 PUSH1 0x2 DUP2 MSTORE PUSH1 0x20 ADD SWAP1 DUP2 MSTORE PUSH1 0x20 ADD PUSH1 0x0 KECCAK256 PUSH1 0x2 ADD SLOAD PUSH2 0x20E5 SWAP2 SWAP1 PUSH2 0x3BC7 JUMP JUMPDEST PUSH1 0x7 PUSH1 0x0 SWAP1 SLOAD SWAP1 PUSH2 0x100 EXP SWAP1 DIV PUSH20 0xFFFFFFFFFFFFFFFFFFFFFFFFFFFFFFFFFFFFFFFF AND PUSH2 0x1437 JUMP JUMPDEST POP PUSH1 0xC PUSH1 0x0 PUSH1 0x2 DUP2 MSTORE PUSH1 0x20 ADD SWAP1 DUP2 MSTORE PUSH1 0x20 ADD PUSH1 0x0 KECCAK256 PUSH1 0x2 ADD SLOAD DUP4 PUSH1 0xC PUSH1 0x0 PUSH1 0x2 DUP2 MSTORE PUSH1 0x20 ADD SWAP1 DUP2 MSTORE PUSH1 0x20 ADD PUSH1 0x0 KECCAK256 PUSH1 0x3 ADD SLOAD PUSH2 0x2149 SWAP2 SWAP1 PUSH2 0x3C97 JUMP JUMPDEST PUSH2 0x2153 SWAP2 SWAP1 PUSH2 0x3BF8 JUMP JUMPDEST PUSH1 0xC PUSH1 0x0 PUSH1 0x2 DUP2 MSTORE PUSH1 0x20 ADD SWAP1 DUP2 MSTORE PUSH1 0x20 ADD PUSH1 0x0 KECCAK256 PUSH1 0x3 ADD DUP2 SWAP1 SSTORE POP PUSH2 0x21A2 JUMP JUMPDEST DUP3 PUSH1 0xC PUSH1 0x0 PUSH1 0x2 DUP2 MSTORE PUSH1 0x20 ADD SWAP1 DUP2 MSTORE PUSH1 0x20 ADD PUSH1 0x0 KECCAK256 PUSH1 0x3 ADD PUSH1 0x0 DUP3 DUP3 SLOAD PUSH2 0x219A SWAP2 SWAP1 PUSH2 0x3C97 JUMP JUMPDEST SWAP3 POP POP DUP2 SWAP1 SSTORE POP JUMPDEST PUSH1 0xC PUSH1 0x0 PUSH1 0x4 DUP2 MSTORE PUSH1 0x20 ADD SWAP1 DUP2 MSTORE PUSH1 0x20 ADD PUSH1 0x0 KECCAK256 PUSH1 0x2 ADD SLOAD DUP2 PUSH1 0xC PUSH1 0x0 PUSH1 0x4 DUP2 MSTORE PUSH1 0x20 ADD SWAP1 DUP2 MSTORE PUSH1 0x20 ADD PUSH1 0x0 KECCAK256 PUSH1 0x3 ADD SLOAD PUSH2 0x21DD SWAP2 SWAP1 PUSH2 0x3C97 JUMP JUMPDEST LT ISZERO DUP1 ISZERO PUSH2 0x21F7 JUMPI POP PUSH1 0x6 PUSH1 0x14 SWAP1 SLOAD SWAP1 PUSH2 0x100 EXP SWAP1 DIV PUSH1 0xFF AND JUMPDEST DUP1 ISZERO PUSH2 0x221B JUMPI POP PUSH1 0x0 PUSH1 0xC PUSH1 0x0 PUSH1 0x4 DUP2 MSTORE PUSH1 0x20 ADD SWAP1 DUP2 MSTORE PUSH1 0x20 ADD PUSH1 0x0 KECCAK256 PUSH1 0x2 ADD SLOAD EQ ISZERO JUMPDEST ISZERO PUSH2 0x22A7 JUMPI PUSH2 0x2241 PUSH1 0xC PUSH1 0x0 PUSH1 0x4 DUP2 MSTORE PUSH1 0x20 ADD SWAP1 DUP2 MSTORE PUSH1 0x20 ADD PUSH1 0x0 KECCAK256 PUSH1 0x2 ADD SLOAD ADDRESS PUSH2 0x1437 JUMP JUMPDEST POP PUSH1 0xC PUSH1 0x0 PUSH1 0x4 DUP2 MSTORE PUSH1 0x20 ADD SWAP1 DUP2 MSTORE PUSH1 0x20 ADD PUSH1 0x0 KECCAK256 PUSH1 0x2 ADD SLOAD DUP2 PUSH1 0xC PUSH1 0x0 PUSH1 0x4 DUP2 MSTORE PUSH1 0x20 ADD SWAP1 DUP2 MSTORE PUSH1 0x20 ADD PUSH1 0x0 KECCAK256 PUSH1 0x3 ADD SLOAD PUSH2 0x227D SWAP2 SWAP1 PUSH2 0x3C97 JUMP JUMPDEST PUSH2 0x2287 SWAP2 SWAP1 PUSH2 0x3BF8 JUMP JUMPDEST PUSH1 0xC PUSH1 0x0 PUSH1 0x4 DUP2 MSTORE PUSH1 0x20 ADD SWAP1 DUP2 MSTORE PUSH1 0x20 ADD PUSH1 0x0 KECCAK256 PUSH1 0x3 ADD DUP2 SWAP1 SSTORE POP PUSH2 0x22D6 JUMP JUMPDEST DUP1 PUSH1 0xC PUSH1 0x0 PUSH1 0x4 DUP2 MSTORE PUSH1 0x20 ADD SWAP1 DUP2 MSTORE PUSH1 0x20 ADD PUSH1 0x0 KECCAK256 PUSH1 0x3 ADD PUSH1 0x0 DUP3 DUP3 SLOAD PUSH2 0x22CE SWAP2 SWAP1 PUSH2 0x3C97 JUMP JUMPDEST SWAP3 POP POP DUP2 SWAP1 SSTORE POP JUMPDEST PUSH2 0x2302 PUSH1 0x6 PUSH1 0x0 SWAP1 SLOAD SWAP1 PUSH2 0x100 EXP SWAP1 DIV PUSH20 0xFFFFFFFFFFFFFFFFFFFFFFFFFFFFFFFFFFFFFFFF AND DUP6 PUSH2 0x3474 JUMP JUMPDEST POP PUSH2 0x232F PUSH1 0x6 PUSH1 0x0 SWAP1 SLOAD SWAP1 PUSH2 0x100 EXP SWAP1 DIV PUSH20 0xFFFFFFFFFFFFFFFFFFFFFFFFFFFFFFFFFFFFFFFF AND DUP5 PUSH2 0x3474 JUMP JUMPDEST POP PUSH2 0x2339 DUP3 PUSH2 0x111E JUMP JUMPDEST PUSH2 0x2365 PUSH1 0x6 PUSH1 0x0 SWAP1 SLOAD SWAP1 PUSH2 0x100 EXP SWAP1 DIV PUSH20 0xFFFFFFFFFFFFFFFFFFFFFFFFFFFFFFFFFFFFFFFF AND DUP3 PUSH2 0x3474 JUMP JUMPDEST POP PUSH2 0x239C DUP8 DUP3 DUP5 DUP7 DUP9 PUSH2 0x2378 SWAP2 SWAP1 PUSH2 0x3C97 JUMP JUMPDEST PUSH2 0x2382 SWAP2 SWAP1 PUSH2 0x3C97 JUMP JUMPDEST PUSH2 0x238C SWAP2 SWAP1 PUSH2 0x3C97 JUMP JUMPDEST DUP9 PUSH2 0x2397 SWAP2 SWAP1 PUSH2 0x3BF8 JUMP JUMPDEST PUSH2 0x3474 JUMP JUMPDEST SWAP5 POP POP POP POP POP PUSH2 0x23B4 JUMP JUMPDEST PUSH2 0x23B1 DUP4 DUP4 PUSH2 0x3474 JUMP JUMPDEST SWAP1 POP JUMPDEST SWAP3 SWAP2 POP POP JUMP JUMPDEST PUSH2 0x23C2 PUSH2 0x2C90 JUMP JUMPDEST PUSH1 0xF DUP2 PUSH1 0xC PUSH1 0x0 PUSH1 0x3 DUP2 MSTORE PUSH1 0x20 ADD SWAP1 DUP2 MSTORE PUSH1 0x20 ADD PUSH1 0x0 KECCAK256 PUSH1 0x0 ADD SLOAD PUSH1 0xC PUSH1 0x0 PUSH1 0x2 DUP2 MSTORE PUSH1 0x20 ADD SWAP1 DUP2 MSTORE PUSH1 0x20 ADD PUSH1 0x0 KECCAK256 PUSH1 0x0 ADD SLOAD PUSH1 0xC PUSH1 0x0 PUSH1 0x1 DUP2 MSTORE PUSH1 0x20 ADD SWAP1 DUP2 MSTORE PUSH1 0x20 ADD PUSH1 0x0 KECCAK256 PUSH1 0x0 ADD SLOAD PUSH1 0xC PUSH1 0x0 PUSH1 0x4 DUP2 MSTORE PUSH1 0x20 ADD SWAP1 DUP2 MSTORE PUSH1 0x20 ADD PUSH1 0x0 KECCAK256 PUSH1 0x1 ADD SLOAD PUSH1 0xC PUSH1 0x0 PUSH1 0x3 DUP2 MSTORE PUSH1 0x20 ADD SWAP1 DUP2 MSTORE PUSH1 0x20 ADD PUSH1 0x0 KECCAK256 PUSH1 0x1 ADD SLOAD PUSH1 0xC PUSH1 0x0 PUSH1 0x2 DUP2 MSTORE PUSH1 0x20 ADD SWAP1 DUP2 MSTORE PUSH1 0x20 ADD PUSH1 0x0 KECCAK256 PUSH1 0x1 ADD SLOAD PUSH1 0xC PUSH1 0x0 PUSH1 0x1 DUP2 MSTORE PUSH1 0x20 ADD SWAP1 DUP2 MSTORE PUSH1 0x20 ADD PUSH1 0x0 KECCAK256 PUSH1 0x1 ADD SLOAD PUSH2 0x2477 SWAP2 SWAP1 PUSH2 0x3C97 JUMP JUMPDEST PUSH2 0x2481 SWAP2 SWAP1 PUSH2 0x3C97 JUMP JUMPDEST PUSH2 0x248B SWAP2 SWAP1 PUSH2 0x3C97 JUMP JUMPDEST PUSH2 0x2495 SWAP2 SWAP1 PUSH2 0x3C97 JUMP JUMPDEST PUSH2 0x249F SWAP2 SWAP1 PUSH2 0x3C97 JUMP JUMPDEST PUSH2 0x24A9 SWAP2 SWAP1 PUSH2 0x3C97 JUMP JUMPDEST PUSH2 0x24B3 SWAP2 SWAP1 PUSH2 0x3C97 JUMP JUMPDEST GT ISZERO PUSH2 0x24F4 JUMPI PUSH1 0x40 MLOAD PUSH32 0x8C379A000000000000000000000000000000000000000000000000000000000 DUP2 MSTORE PUSH1 0x4 ADD PUSH2 0x24EB SWAP1 PUSH2 0x3D3D JUMP JUMPDEST PUSH1 0x40 MLOAD DUP1 SWAP2 SUB SWAP1 REVERT JUMPDEST DUP1 PUSH1 0xC PUSH1 0x0 PUSH1 0x4 DUP2 MSTORE PUSH1 0x20 ADD SWAP1 DUP2 MSTORE PUSH1 0x20 ADD PUSH1 0x0 KECCAK256 PUSH1 0x0 ADD DUP2 SWAP1 SSTORE POP POP JUMP JUMPDEST PUSH1 0xB PUSH1 0x20 MSTORE DUP1 PUSH1 0x0 MSTORE PUSH1 0x40 PUSH1 0x0 KECCAK256 PUSH1 0x0 SWAP2 POP SWAP1 POP DUP1 PUSH1 0x0 ADD PUSH1 0x0 SWAP1 SLOAD SWAP1 PUSH2 0x100 EXP SWAP1 DIV PUSH1 0xFF AND SWAP1 DUP1 PUSH1 0x0 ADD PUSH1 0x1 SWAP1 SLOAD SWAP1 PUSH2 0x100 EXP SWAP1 DIV PUSH1 0xFF AND SWAP1 POP DUP3 JUMP JUMPDEST PUSH2 0x2559 PUSH2 0x2C90 JUMP JUMPDEST PUSH1 0xE PUSH1 0x0 SWAP1 SLOAD SWAP1 PUSH2 0x100 EXP SWAP1 DIV PUSH20 0xFFFFFFFFFFFFFFFFFFFFFFFFFFFFFFFFFFFFFFFF AND PUSH20 0xFFFFFFFFFFFFFFFFFFFFFFFFFFFFFFFFFFFFFFFF AND PUSH4 0xA9059CBB DUP4 DUP4 PUSH1 0x40 MLOAD DUP4 PUSH4 0xFFFFFFFF AND PUSH1 0xE0 SHL DUP2 MSTORE PUSH1 0x4 ADD PUSH2 0x25B6 SWAP3 SWAP2 SWAP1 PUSH2 0x3C2C JUMP JUMPDEST PUSH1 0x20 PUSH1 0x40 MLOAD DUP1 DUP4 SUB DUP2 PUSH1 0x0 DUP8 GAS CALL ISZERO DUP1 ISZERO PUSH2 0x25D5 JUMPI RETURNDATASIZE PUSH1 0x0 DUP1 RETURNDATACOPY RETURNDATASIZE PUSH1 0x0 REVERT JUMPDEST POP POP POP POP PUSH1 0x40 MLOAD RETURNDATASIZE PUSH1 0x1F NOT PUSH1 0x1F DUP3 ADD AND DUP3 ADD DUP1 PUSH1 0x40 MSTORE POP DUP2 ADD SWAP1 PUSH2 0x25F9 SWAP2 SWAP1 PUSH2 0x3C6A JUMP JUMPDEST POP POP POP JUMP JUMPDEST PUSH32 0x0 DUP2 JUMP JUMPDEST PUSH2 0x262A PUSH2 0x2C90 JUMP JUMPDEST PUSH1 0xF DUP2 PUSH1 0xC PUSH1 0x0 PUSH1 0x4 DUP2 MSTORE PUSH1 0x20 ADD SWAP1 DUP2 MSTORE PUSH1 0x20 ADD PUSH1 0x0 KECCAK256 PUSH1 0x0 ADD SLOAD PUSH1 0xC PUSH1 0x0 PUSH1 0x3 DUP2 MSTORE PUSH1 0x20 ADD SWAP1 DUP2 MSTORE PUSH1 0x20 ADD PUSH1 0x0 KECCAK256 PUSH1 0x0 ADD SLOAD PUSH1 0xC PUSH1 0x0 PUSH1 0x2 DUP2 MSTORE PUSH1 0x20 ADD SWAP1 DUP2 MSTORE PUSH1 0x20 ADD PUSH1 0x0 KECCAK256 PUSH1 0x0 ADD SLOAD PUSH1 0xC PUSH1 0x0 PUSH1 0x1 DUP2 MSTORE PUSH1 0x20 ADD SWAP1 DUP2 MSTORE PUSH1 0x20 ADD PUSH1 0x0 KECCAK256 PUSH1 0x0 ADD SLOAD PUSH1 0xC PUSH1 0x0 PUSH1 0x3 DUP2 MSTORE PUSH1 0x20 ADD SWAP1 DUP2 MSTORE PUSH1 0x20 ADD PUSH1 0x0 KECCAK256 PUSH1 0x1 ADD SLOAD PUSH1 0xC PUSH1 0x0 PUSH1 0x2 DUP2 MSTORE PUSH1 0x20 ADD SWAP1 DUP2 MSTORE PUSH1 0x20 ADD PUSH1 0x0 KECCAK256 PUSH1 0x1 ADD SLOAD PUSH1 0xC PUSH1 0x0 PUSH1 0x1 DUP2 MSTORE PUSH1 0x20 ADD SWAP1 DUP2 MSTORE PUSH1 0x20 ADD PUSH1 0x0 KECCAK256 PUSH1 0x1 ADD SLOAD PUSH2 0x26DF SWAP2 SWAP1 PUSH2 0x3C97 JUMP JUMPDEST PUSH2 0x26E9 SWAP2 SWAP1 PUSH2 0x3C97 JUMP JUMPDEST PUSH2 0x26F3 SWAP2 SWAP1 PUSH2 0x3C97 JUMP JUMPDEST PUSH2 0x26FD SWAP2 SWAP1 PUSH2 0x3C97 JUMP JUMPDEST PUSH2 0x2707 SWAP2 SWAP1 PUSH2 0x3C97 JUMP JUMPDEST PUSH2 0x2711 SWAP2 SWAP1 PUSH2 0x3C97 JUMP JUMPDEST PUSH2 0x271B SWAP2 SWAP1 PUSH2 0x3C97 JUMP JUMPDEST GT ISZERO PUSH2 0x275C JUMPI PUSH1 0x40 MLOAD PUSH32 0x8C379A000000000000000000000000000000000000000000000000000000000 DUP2 MSTORE PUSH1 0x4 ADD PUSH2 0x2753 SWAP1 PUSH2 0x3D3D JUMP JUMPDEST PUSH1 0x40 MLOAD DUP1 SWAP2 SUB SWAP1 REVERT JUMPDEST DUP1 PUSH1 0xC PUSH1 0x0 PUSH1 0x4 DUP2 MSTORE PUSH1 0x20 ADD SWAP1 DUP2 MSTORE PUSH1 0x20 ADD PUSH1 0x0 KECCAK256 PUSH1 0x1 ADD DUP2 SWAP1 SSTORE POP POP JUMP JUMPDEST PUSH2 0x2783 PUSH2 0x2C90 JUMP JUMPDEST DUP3 PUSH1 0x7 PUSH1 0x0 PUSH2 0x100 EXP DUP2 SLOAD DUP2 PUSH20 0xFFFFFFFFFFFFFFFFFFFFFFFFFFFFFFFFFFFFFFFF MUL NOT AND SWAP1 DUP4 PUSH20 0xFFFFFFFFFFFFFFFFFFFFFFFFFFFFFFFFFFFFFFFF AND MUL OR SWAP1 SSTORE POP DUP2 PUSH1 0xE PUSH1 0x0 PUSH2 0x100 EXP DUP2 SLOAD DUP2 PUSH20 0xFFFFFFFFFFFFFFFFFFFFFFFFFFFFFFFFFFFFFFFF MUL NOT AND SWAP1 DUP4 PUSH20 0xFFFFFFFFFFFFFFFFFFFFFFFFFFFFFFFFFFFFFFFF AND MUL OR SWAP1 SSTORE POP DUP2 PUSH1 0x9 PUSH1 0x3 PUSH2 0x100 EXP DUP2 SLOAD DUP2 PUSH20 0xFFFFFFFFFFFFFFFFFFFFFFFFFFFFFFFFFFFFFFFF MUL NOT AND SWAP1 DUP4 PUSH20 0xFFFFFFFFFFFFFFFFFFFFFFFFFFFFFFFFFFFFFFFF AND MUL OR SWAP1 SSTORE POP DUP1 PUSH1 0x9 PUSH1 0x0 PUSH2 0x100 EXP DUP2 SLOAD DUP2 PUSH3 0xFFFFFF MUL NOT AND SWAP1 DUP4 PUSH3 0xFFFFFF AND MUL OR SWAP1 SSTORE POP POP POP POP JUMP JUMPDEST PUSH1 0xC PUSH1 0x20 MSTORE DUP1 PUSH1 0x0 MSTORE PUSH1 0x40 PUSH1 0x0 KECCAK256 PUSH1 0x0 SWAP2 POP SWAP1 POP DUP1 PUSH1 0x0 ADD SLOAD SWAP1 DUP1 PUSH1 0x1 ADD SLOAD SWAP1 DUP1 PUSH1 0x2 ADD SLOAD SWAP1 DUP1 PUSH1 0x3 ADD SLOAD SWAP1 POP DUP5 JUMP JUMPDEST PUSH1 0x0 PUSH1 0x1 PUSH1 0x0 DUP5 PUSH20 0xFFFFFFFFFFFFFFFFFFFFFFFFFFFFFFFFFFFFFFFF AND PUSH20 0xFFFFFFFFFFFFFFFFFFFFFFFFFFFFFFFFFFFFFFFF AND DUP2 MSTORE PUSH1 0x20 ADD SWAP1 DUP2 MSTORE PUSH1 0x20 ADD PUSH1 0x0 KECCAK256 PUSH1 0x0 DUP4 PUSH20 0xFFFFFFFFFFFFFFFFFFFFFFFFFFFFFFFFFFFFFFFF AND PUSH20 0xFFFFFFFFFFFFFFFFFFFFFFFFFFFFFFFFFFFFFFFF AND DUP2 MSTORE PUSH1 0x20 ADD SWAP1 DUP2 MSTORE PUSH1 0x20 ADD PUSH1 0x0 KECCAK256 SLOAD SWAP1 POP SWAP3 SWAP2 POP POP JUMP JUMPDEST PUSH1 0x6 PUSH1 0x14 SWAP1 SLOAD SWAP1 PUSH2 0x100 EXP SWAP1 DIV PUSH1 0xFF AND DUP2 JUMP JUMPDEST PUSH2 0x293C PUSH2 0x2C90 JUMP JUMPDEST DUP1 PUSH1 0xC PUSH1 0x0 PUSH1 0x2 DUP2 MSTORE PUSH1 0x20 ADD SWAP1 DUP2 MSTORE PUSH1 0x20 ADD PUSH1 0x0 KECCAK256 PUSH1 0x2 ADD DUP2 SWAP1 SSTORE POP POP JUMP JUMPDEST PUSH2 0x2963 PUSH2 0x2C90 JUMP JUMPDEST PUSH1 0xF DUP2 PUSH1 0xC PUSH1 0x0 PUSH1 0x4 DUP2 MSTORE PUSH1 0x20 ADD SWAP1 DUP2 MSTORE PUSH1 0x20 ADD PUSH1 0x0 KECCAK256 PUSH1 0x0 ADD SLOAD PUSH1 0xC PUSH1 0x0 PUSH1 0x3 DUP2 MSTORE PUSH1 0x20 ADD SWAP1 DUP2 MSTORE PUSH1 0x20 ADD PUSH1 0x0 KECCAK256 PUSH1 0x0 ADD SLOAD PUSH1 0xC PUSH1 0x0 PUSH1 0x2 DUP2 MSTORE PUSH1 0x20 ADD SWAP1 DUP2 MSTORE PUSH1 0x20 ADD PUSH1 0x0 KECCAK256 PUSH1 0x0 ADD SLOAD PUSH1 0xC PUSH1 0x0 PUSH1 0x1 DUP2 MSTORE PUSH1 0x20 ADD SWAP1 DUP2 MSTORE PUSH1 0x20 ADD PUSH1 0x0 KECCAK256 PUSH1 0x0 ADD SLOAD PUSH1 0xC PUSH1 0x0 PUSH1 0x4 DUP2 MSTORE PUSH1 0x20 ADD SWAP1 DUP2 MSTORE PUSH1 0x20 ADD PUSH1 0x0 KECCAK256 PUSH1 0x1 ADD SLOAD PUSH1 0xC PUSH1 0x0 PUSH1 0x2 DUP2 MSTORE PUSH1 0x20 ADD SWAP1 DUP2 MSTORE PUSH1 0x20 ADD PUSH1 0x0 KECCAK256 PUSH1 0x1 ADD SLOAD PUSH1 0xC PUSH1 0x0 PUSH1 0x1 DUP2 MSTORE PUSH1 0x20 ADD SWAP1 DUP2 MSTORE PUSH1 0x20 ADD PUSH1 0x0 KECCAK256 PUSH1 0x1 ADD SLOAD PUSH2 0x2A18 SWAP2 SWAP1 PUSH2 0x3C97 JUMP JUMPDEST PUSH2 0x2A22 SWAP2 SWAP1 PUSH2 0x3C97 JUMP JUMPDEST PUSH2 0x2A2C SWAP2 SWAP1 PUSH2 0x3C97 JUMP JUMPDEST PUSH2 0x2A36 SWAP2 SWAP1 PUSH2 0x3C97 JUMP JUMPDEST PUSH2 0x2A40 SWAP2 SWAP1 PUSH2 0x3C97 JUMP JUMPDEST PUSH2 0x2A4A SWAP2 SWAP1 PUSH2 0x3C97 JUMP JUMPDEST PUSH2 0x2A54 SWAP2 SWAP1 PUSH2 0x3C97 JUMP JUMPDEST GT ISZERO PUSH2 0x2A95 JUMPI PUSH1 0x40 MLOAD PUSH32 0x8C379A000000000000000000000000000000000000000000000000000000000 DUP2 MSTORE PUSH1 0x4 ADD PUSH2 0x2A8C SWAP1 PUSH2 0x3D3D JUMP JUMPDEST PUSH1 0x40 MLOAD DUP1 SWAP2 SUB SWAP1 REVERT JUMPDEST DUP1 PUSH1 0xC PUSH1 0x0 PUSH1 0x3 DUP2 MSTORE PUSH1 0x20 ADD SWAP1 DUP2 MSTORE PUSH1 0x20 ADD PUSH1 0x0 KECCAK256 PUSH1 0x1 ADD DUP2 SWAP1 SSTORE POP POP JUMP JUMPDEST PUSH2 0x2ABC PUSH2 0x2C90 JUMP JUMPDEST PUSH1 0xF DUP2 PUSH1 0xC PUSH1 0x0 PUSH1 0x4 DUP2 MSTORE PUSH1 0x20 ADD SWAP1 DUP2 MSTORE PUSH1 0x20 ADD PUSH1 0x0 KECCAK256 PUSH1 0x0 ADD SLOAD PUSH1 0xC PUSH1 0x0 PUSH1 0x2 DUP2 MSTORE PUSH1 0x20 ADD SWAP1 DUP2 MSTORE PUSH1 0x20 ADD PUSH1 0x0 KECCAK256 PUSH1 0x0 ADD SLOAD PUSH1 0xC PUSH1 0x0 PUSH1 0x1 DUP2 MSTORE PUSH1 0x20 ADD SWAP1 DUP2 MSTORE PUSH1 0x20 ADD PUSH1 0x0 KECCAK256 PUSH1 0x0 ADD SLOAD PUSH1 0xC PUSH1 0x0 PUSH1 0x4 DUP2 MSTORE PUSH1 0x20 ADD SWAP1 DUP2 MSTORE PUSH1 0x20 ADD PUSH1 0x0 KECCAK256 PUSH1 0x1 ADD SLOAD PUSH1 0xC PUSH1 0x0 PUSH1 0x3 DUP2 MSTORE PUSH1 0x20 ADD SWAP1 DUP2 MSTORE PUSH1 0x20 ADD PUSH1 0x0 KECCAK256 PUSH1 0x1 ADD SLOAD PUSH1 0xC PUSH1 0x0 PUSH1 0x2 DUP2 MSTORE PUSH1 0x20 ADD SWAP1 DUP2 MSTORE PUSH1 0x20 ADD PUSH1 0x0 KECCAK256 PUSH1 0x1 ADD SLOAD PUSH1 0xC PUSH1 0x0 PUSH1 0x1 DUP2 MSTORE PUSH1 0x20 ADD SWAP1 DUP2 MSTORE PUSH1 0x20 ADD PUSH1 0x0 KECCAK256 PUSH1 0x1 ADD SLOAD PUSH2 0x2B71 SWAP2 SWAP1 PUSH2 0x3C97 JUMP JUMPDEST PUSH2 0x2B7B SWAP2 SWAP1 PUSH2 0x3C97 JUMP JUMPDEST PUSH2 0x2B85 SWAP2 SWAP1 PUSH2 0x3C97 JUMP JUMPDEST PUSH2 0x2B8F SWAP2 SWAP1 PUSH2 0x3C97 JUMP JUMPDEST PUSH2 0x2B99 SWAP2 SWAP1 PUSH2 0x3C97 JUMP JUMPDEST PUSH2 0x2BA3 SWAP2 SWAP1 PUSH2 0x3C97 JUMP JUMPDEST PUSH2 0x2BAD SWAP2 SWAP1 PUSH2 0x3C97 JUMP JUMPDEST GT ISZERO PUSH2 0x2BEE JUMPI PUSH1 0x40 MLOAD PUSH32 0x8C379A000000000000000000000000000000000000000000000000000000000 DUP2 MSTORE PUSH1 0x4 ADD PUSH2 0x2BE5 SWAP1 PUSH2 0x3D3D JUMP JUMPDEST PUSH1 0x40 MLOAD DUP1 SWAP2 SUB SWAP1 REVERT JUMPDEST DUP1 PUSH1 0xC PUSH1 0x0 PUSH1 0x3 DUP2 MSTORE PUSH1 0x20 ADD SWAP1 DUP2 MSTORE PUSH1 0x20 ADD PUSH1 0x0 KECCAK256 PUSH1 0x0 ADD DUP2 SWAP1 SSTORE POP POP JUMP JUMPDEST PUSH2 0x2C15 PUSH2 0x2C90 JUMP JUMPDEST PUSH1 0x0 PUSH20 0xFFFFFFFFFFFFFFFFFFFFFFFFFFFFFFFFFFFFFFFF AND DUP2 PUSH20 0xFFFFFFFFFFFFFFFFFFFFFFFFFFFFFFFFFFFFFFFF AND SUB PUSH2 0x2C84 JUMPI PUSH1 0x40 MLOAD PUSH32 0x8C379A000000000000000000000000000000000000000000000000000000000 DUP2 MSTORE PUSH1 0x4 ADD PUSH2 0x2C7B SWAP1 PUSH2 0x3FFD JUMP JUMPDEST PUSH1 0x40 MLOAD DUP1 SWAP2 SUB SWAP1 REVERT JUMPDEST PUSH2 0x2C8D DUP2 PUSH2 0x33AE JUMP JUMPDEST POP JUMP JUMPDEST PUSH2 0x2C98 PUSH2 0x2D0E JUMP JUMPDEST PUSH20 0xFFFFFFFFFFFFFFFFFFFFFFFFFFFFFFFFFFFFFFFF AND PUSH2 0x2CB6 PUSH2 0x175A JUMP JUMPDEST PUSH20 0xFFFFFFFFFFFFFFFFFFFFFFFFFFFFFFFFFFFFFFFF AND EQ PUSH2 0x2D0C JUMPI PUSH1 0x40 MLOAD PUSH32 0x8C379A000000000000000000000000000000000000000000000000000000000 DUP2 MSTORE PUSH1 0x4 ADD PUSH2 0x2D03 SWAP1 PUSH2 0x4069 JUMP JUMPDEST PUSH1 0x40 MLOAD DUP1 SWAP2 SUB SWAP1 REVERT JUMPDEST JUMP JUMPDEST PUSH1 0x0 CALLER SWAP1 POP SWAP1 JUMP JUMPDEST PUSH1 0x0 PUSH20 0xFFFFFFFFFFFFFFFFFFFFFFFFFFFFFFFFFFFFFFFF AND DUP4 PUSH20 0xFFFFFFFFFFFFFFFFFFFFFFFFFFFFFFFFFFFFFFFF AND SUB PUSH2 0x2D85 JUMPI PUSH1 0x40 MLOAD PUSH32 0x8C379A000000000000000000000000000000000000000000000000000000000 DUP2 MSTORE PUSH1 0x4 ADD PUSH2 0x2D7C SWAP1 PUSH2 0x40FB JUMP JUMPDEST PUSH1 0x40 MLOAD DUP1 SWAP2 SUB SWAP1 REVERT JUMPDEST PUSH1 0x0 PUSH20 0xFFFFFFFFFFFFFFFFFFFFFFFFFFFFFFFFFFFFFFFF AND DUP3 PUSH20 0xFFFFFFFFFFFFFFFFFFFFFFFFFFFFFFFFFFFFFFFF AND SUB PUSH2 0x2DF4 JUMPI PUSH1 0x40 MLOAD PUSH32 0x8C379A000000000000000000000000000000000000000000000000000000000 DUP2 MSTORE PUSH1 0x4 ADD PUSH2 0x2DEB SWAP1 PUSH2 0x418D JUMP JUMPDEST PUSH1 0x40 MLOAD DUP1 SWAP2 SUB SWAP1 REVERT JUMPDEST DUP1 PUSH1 0x1 PUSH1 0x0 DUP6 PUSH20 0xFFFFFFFFFFFFFFFFFFFFFFFFFFFFFFFFFFFFFFFF AND PUSH20 0xFFFFFFFFFFFFFFFFFFFFFFFFFFFFFFFFFFFFFFFF AND DUP2 MSTORE PUSH1 0x20 ADD SWAP1 DUP2 MSTORE PUSH1 0x20 ADD PUSH1 0x0 KECCAK256 PUSH1 0x0 DUP5 PUSH20 0xFFFFFFFFFFFFFFFFFFFFFFFFFFFFFFFFFFFFFFFF AND PUSH20 0xFFFFFFFFFFFFFFFFFFFFFFFFFFFFFFFFFFFFFFFF AND DUP2 MSTORE PUSH1 0x20 ADD SWAP1 DUP2 MSTORE PUSH1 0x20 ADD PUSH1 0x0 KECCAK256 DUP2 SWAP1 SSTORE POP DUP2 PUSH20 0xFFFFFFFFFFFFFFFFFFFFFFFFFFFFFFFFFFFFFFFF AND DUP4 PUSH20 0xFFFFFFFFFFFFFFFFFFFFFFFFFFFFFFFFFFFFFFFF AND PUSH32 0x8C5BE1E5EBEC7D5BD14F71427D1E84F3DD0314C0F7B2291E5B200AC8C7C3B925 DUP4 PUSH1 0x40 MLOAD PUSH2 0x2ED2 SWAP2 SWAP1 PUSH2 0x372E JUMP JUMPDEST PUSH1 0x40 MLOAD DUP1 SWAP2 SUB SWAP1 LOG3 POP POP POP JUMP JUMPDEST PUSH1 0x0 PUSH2 0x2EEB DUP5 DUP5 PUSH2 0x289A JUMP JUMPDEST SWAP1 POP PUSH32 0xFFFFFFFFFFFFFFFFFFFFFFFFFFFFFFFFFFFFFFFFFFFFFFFFFFFFFFFFFFFFFFFF DUP2 EQ PUSH2 0x2F65 JUMPI DUP2 DUP2 LT ISZERO PUSH2 0x2F57 JUMPI PUSH1 0x40 MLOAD PUSH32 0x8C379A000000000000000000000000000000000000000000000000000000000 DUP2 MSTORE PUSH1 0x4 ADD PUSH2 0x2F4E SWAP1 PUSH2 0x41F9 JUMP JUMPDEST PUSH1 0x40 MLOAD DUP1 SWAP2 SUB SWAP1 REVERT JUMPDEST PUSH2 0x2F64 DUP5 DUP5 DUP5 DUP5 SUB PUSH2 0x2D16 JUMP JUMPDEST JUMPDEST POP POP POP POP JUMP JUMPDEST PUSH1 0x0 PUSH20 0xFFFFFFFFFFFFFFFFFFFFFFFFFFFFFFFFFFFFFFFF AND DUP4 PUSH20 0xFFFFFFFFFFFFFFFFFFFFFFFFFFFFFFFFFFFFFFFF AND SUB PUSH2 0x2FDA JUMPI PUSH1 0x40 MLOAD PUSH32 0x8C379A000000000000000000000000000000000000000000000000000000000 DUP2 MSTORE PUSH1 0x4 ADD PUSH2 0x2FD1 SWAP1 PUSH2 0x428B JUMP JUMPDEST PUSH1 0x40 MLOAD DUP1 SWAP2 SUB SWAP1 REVERT JUMPDEST PUSH1 0x0 PUSH20 0xFFFFFFFFFFFFFFFFFFFFFFFFFFFFFFFFFFFFFFFF AND DUP3 PUSH20 0xFFFFFFFFFFFFFFFFFFFFFFFFFFFFFFFFFFFFFFFF AND SUB PUSH2 0x3049 JUMPI PUSH1 0x40 MLOAD PUSH32 0x8C379A000000000000000000000000000000000000000000000000000000000 DUP2 MSTORE PUSH1 0x4 ADD PUSH2 0x3040 SWAP1 PUSH2 0x431D JUMP JUMPDEST PUSH1 0x40 MLOAD DUP1 SWAP2 SUB SWAP1 REVERT JUMPDEST PUSH2 0x3054 DUP4 DUP4 DUP4 PUSH2 0x3497 JUMP JUMPDEST PUSH1 0x0 DUP1 PUSH1 0x0 DUP6 PUSH20 0xFFFFFFFFFFFFFFFFFFFFFFFFFFFFFFFFFFFFFFFF AND PUSH20 0xFFFFFFFFFFFFFFFFFFFFFFFFFFFFFFFFFFFFFFFF AND DUP2 MSTORE PUSH1 0x20 ADD SWAP1 DUP2 MSTORE PUSH1 0x20 ADD PUSH1 0x0 KECCAK256 SLOAD SWAP1 POP DUP2 DUP2 LT ISZERO PUSH2 0x30DA JUMPI PUSH1 0x40 MLOAD PUSH32 0x8C379A000000000000000000000000000000000000000000000000000000000 DUP2 MSTORE PUSH1 0x4 ADD PUSH2 0x30D1 SWAP1 PUSH2 0x43AF JUMP JUMPDEST PUSH1 0x40 MLOAD DUP1 SWAP2 SUB SWAP1 REVERT JUMPDEST DUP2 DUP2 SUB PUSH1 0x0 DUP1 DUP7 PUSH20 0xFFFFFFFFFFFFFFFFFFFFFFFFFFFFFFFFFFFFFFFF AND PUSH20 0xFFFFFFFFFFFFFFFFFFFFFFFFFFFFFFFFFFFFFFFF AND DUP2 MSTORE PUSH1 0x20 ADD SWAP1 DUP2 MSTORE PUSH1 0x20 ADD PUSH1 0x0 KECCAK256 DUP2 SWAP1 SSTORE POP DUP2 PUSH1 0x0 DUP1 DUP6 PUSH20 0xFFFFFFFFFFFFFFFFFFFFFFFFFFFFFFFFFFFFFFFF AND PUSH20 0xFFFFFFFFFFFFFFFFFFFFFFFFFFFFFFFFFFFFFFFF AND DUP2 MSTORE PUSH1 0x20 ADD SWAP1 DUP2 MSTORE PUSH1 0x20 ADD PUSH1 0x0 KECCAK256 PUSH1 0x0 DUP3 DUP3 SLOAD ADD SWAP3 POP POP DUP2 SWAP1 SSTORE POP DUP3 PUSH20 0xFFFFFFFFFFFFFFFFFFFFFFFFFFFFFFFFFFFFFFFF AND DUP5 PUSH20 0xFFFFFFFFFFFFFFFFFFFFFFFFFFFFFFFFFFFFFFFF AND PUSH32 0xDDF252AD1BE2C89B69C2B068FC378DAA952BA7F163C4A11628F55A4DF523B3EF DUP5 PUSH1 0x40 MLOAD PUSH2 0x31C8 SWAP2 SWAP1 PUSH2 0x372E JUMP JUMPDEST PUSH1 0x40 MLOAD DUP1 SWAP2 SUB SWAP1 LOG3 PUSH2 0x31DB DUP5 DUP5 DUP5 PUSH2 0x349C JUMP JUMPDEST POP POP POP POP JUMP JUMPDEST PUSH1 0x0 PUSH20 0xFFFFFFFFFFFFFFFFFFFFFFFFFFFFFFFFFFFFFFFF AND DUP3 PUSH20 0xFFFFFFFFFFFFFFFFFFFFFFFFFFFFFFFFFFFFFFFF AND SUB PUSH2 0x3250 JUMPI PUSH1 0x40 MLOAD PUSH32 0x8C379A000000000000000000000000000000000000000000000000000000000 DUP2 MSTORE PUSH1 0x4 ADD PUSH2 0x3247 SWAP1 PUSH2 0x4441 JUMP JUMPDEST PUSH1 0x40 MLOAD DUP1 SWAP2 SUB SWAP1 REVERT JUMPDEST PUSH2 0x325C DUP3 PUSH1 0x0 DUP4 PUSH2 0x3497 JUMP JUMPDEST PUSH1 0x0 DUP1 PUSH1 0x0 DUP5 PUSH20 0xFFFFFFFFFFFFFFFFFFFFFFFFFFFFFFFFFFFFFFFF AND PUSH20 0xFFFFFFFFFFFFFFFFFFFFFFFFFFFFFFFFFFFFFFFF AND DUP2 MSTORE PUSH1 0x20 ADD SWAP1 DUP2 MSTORE PUSH1 0x20 ADD PUSH1 0x0 KECCAK256 SLOAD SWAP1 POP DUP2 DUP2 LT ISZERO PUSH2 0x32E2 JUMPI PUSH1 0x40 MLOAD PUSH32 0x8C379A000000000000000000000000000000000000000000000000000000000 DUP2 MSTORE PUSH1 0x4 ADD PUSH2 0x32D9 SWAP1 PUSH2 0x44D3 JUMP JUMPDEST PUSH1 0x40 MLOAD DUP1 SWAP2 SUB SWAP1 REVERT JUMPDEST DUP2 DUP2 SUB PUSH1 0x0 DUP1 DUP6 PUSH20 0xFFFFFFFFFFFFFFFFFFFFFFFFFFFFFFFFFFFFFFFF AND PUSH20 0xFFFFFFFFFFFFFFFFFFFFFFFFFFFFFFFFFFFFFFFF AND DUP2 MSTORE PUSH1 0x20 ADD SWAP1 DUP2 MSTORE PUSH1 0x20 ADD PUSH1 0x0 KECCAK256 DUP2 SWAP1 SSTORE POP DUP2 PUSH1 0x2 PUSH1 0x0 DUP3 DUP3 SLOAD SUB SWAP3 POP POP DUP2 SWAP1 SSTORE POP PUSH1 0x0 PUSH20 0xFFFFFFFFFFFFFFFFFFFFFFFFFFFFFFFFFFFFFFFF AND DUP4 PUSH20 0xFFFFFFFFFFFFFFFFFFFFFFFFFFFFFFFFFFFFFFFF AND PUSH32 0xDDF252AD1BE2C89B69C2B068FC378DAA952BA7F163C4A11628F55A4DF523B3EF DUP5 PUSH1 0x40 MLOAD PUSH2 0x3395 SWAP2 SWAP1 PUSH2 0x372E JUMP JUMPDEST PUSH1 0x40 MLOAD DUP1 SWAP2 SUB SWAP1 LOG3 PUSH2 0x33A9 DUP4 PUSH1 0x0 DUP5 PUSH2 0x349C JUMP JUMPDEST POP POP POP JUMP JUMPDEST PUSH1 0x0 PUSH1 0x5 PUSH1 0x0 SWAP1 SLOAD SWAP1 PUSH2 0x100 EXP SWAP1 DIV PUSH20 0xFFFFFFFFFFFFFFFFFFFFFFFFFFFFFFFFFFFFFFFF AND SWAP1 POP DUP2 PUSH1 0x5 PUSH1 0x0 PUSH2 0x100 EXP DUP2 SLOAD DUP2 PUSH20 0xFFFFFFFFFFFFFFFFFFFFFFFFFFFFFFFFFFFFFFFF MUL NOT AND SWAP1 DUP4 PUSH20 0xFFFFFFFFFFFFFFFFFFFFFFFFFFFFFFFFFFFFFFFF AND MUL OR SWAP1 SSTORE POP DUP2 PUSH20 0xFFFFFFFFFFFFFFFFFFFFFFFFFFFFFFFFFFFFFFFF AND DUP2 PUSH20 0xFFFFFFFFFFFFFFFFFFFFFFFFFFFFFFFFFFFFFFFF AND PUSH32 0x8BE0079C531659141344CD1FD0A4F28419497F9722A3DAAFE3B4186F6B6457E0 PUSH1 0x40 MLOAD PUSH1 0x40 MLOAD DUP1 SWAP2 SUB SWAP1 LOG3 POP POP JUMP JUMPDEST PUSH1 0x0 DUP1 PUSH2 0x347F PUSH2 0x2D0E JUMP JUMPDEST SWAP1 POP PUSH2 0x348C DUP2 DUP6 DUP6 PUSH2 0x2F6B JUMP JUMPDEST PUSH1 0x1 SWAP2 POP POP SWAP3 SWAP2 POP POP JUMP JUMPDEST POP POP POP JUMP JUMPDEST POP POP POP JUMP JUMPDEST PUSH1 0x0 DUP1 REVERT JUMPDEST PUSH1 0x0 PUSH20 0xFFFFFFFFFFFFFFFFFFFFFFFFFFFFFFFFFFFFFFFF DUP3 AND SWAP1 POP SWAP2 SWAP1 POP JUMP JUMPDEST PUSH1 0x0 PUSH2 0x34D1 DUP3 PUSH2 0x34A6 JUMP JUMPDEST SWAP1 POP SWAP2 SWAP1 POP JUMP JUMPDEST PUSH2 0x34E1 DUP2 PUSH2 0x34C6 JUMP JUMPDEST DUP2 EQ PUSH2 0x34EC JUMPI PUSH1 0x0 DUP1 REVERT JUMPDEST POP JUMP JUMPDEST PUSH1 0x0 DUP2 CALLDATALOAD SWAP1 POP PUSH2 0x34FE DUP2 PUSH2 0x34D8 JUMP JUMPDEST SWAP3 SWAP2 POP POP JUMP JUMPDEST PUSH1 0x0 PUSH1 0x20 DUP3 DUP5 SUB SLT ISZERO PUSH2 0x351A JUMPI PUSH2 0x3519 PUSH2 0x34A1 JUMP JUMPDEST JUMPDEST PUSH1 0x0 PUSH2 0x3528 DUP5 DUP3 DUP6 ADD PUSH2 0x34EF JUMP JUMPDEST SWAP2 POP POP SWAP3 SWAP2 POP POP JUMP JUMPDEST PUSH1 0x0 DUP2 SWAP1 POP SWAP2 SWAP1 POP JUMP JUMPDEST PUSH2 0x3544 DUP2 PUSH2 0x3531 JUMP JUMPDEST DUP2 EQ PUSH2 0x354F JUMPI PUSH1 0x0 DUP1 REVERT JUMPDEST POP JUMP JUMPDEST PUSH1 0x0 DUP2 CALLDATALOAD SWAP1 POP PUSH2 0x3561 DUP2 PUSH2 0x353B JUMP JUMPDEST SWAP3 SWAP2 POP POP JUMP JUMPDEST PUSH1 0x0 PUSH1 0x20 DUP3 DUP5 SUB SLT ISZERO PUSH2 0x357D JUMPI PUSH2 0x357C PUSH2 0x34A1 JUMP JUMPDEST JUMPDEST PUSH1 0x0 PUSH2 0x358B DUP5 DUP3 DUP6 ADD PUSH2 0x3552 JUMP JUMPDEST SWAP2 POP POP SWAP3 SWAP2 POP POP JUMP JUMPDEST PUSH1 0x0 DUP2 MLOAD SWAP1 POP SWAP2 SWAP1 POP JUMP JUMPDEST PUSH1 0x0 DUP3 DUP3 MSTORE PUSH1 0x20 DUP3 ADD SWAP1 POP SWAP3 SWAP2 POP POP JUMP JUMPDEST PUSH1 0x0 JUMPDEST DUP4 DUP2 LT ISZERO PUSH2 0x35CE JUMPI DUP1 DUP3 ADD MLOAD DUP2 DUP5 ADD MSTORE PUSH1 0x20 DUP2 ADD SWAP1 POP PUSH2 0x35B3 JUMP JUMPDEST PUSH1 0x0 DUP5 DUP5 ADD MSTORE POP POP POP POP JUMP JUMPDEST PUSH1 0x0 PUSH1 0x1F NOT PUSH1 0x1F DUP4 ADD AND SWAP1 POP SWAP2 SWAP1 POP JUMP JUMPDEST PUSH1 0x0 PUSH2 0x35F6 DUP3 PUSH2 0x3594 JUMP JUMPDEST PUSH2 0x3600 DUP2 DUP6 PUSH2 0x359F JUMP JUMPDEST SWAP4 POP PUSH2 0x3610 DUP2 DUP6 PUSH1 0x20 DUP7 ADD PUSH2 0x35B0 JUMP JUMPDEST PUSH2 0x3619 DUP2 PUSH2 0x35DA JUMP JUMPDEST DUP5 ADD SWAP2 POP POP SWAP3 SWAP2 POP POP JUMP JUMPDEST PUSH1 0x0 PUSH1 0x20 DUP3 ADD SWAP1 POP DUP2 DUP2 SUB PUSH1 0x0 DUP4 ADD MSTORE PUSH2 0x363E DUP2 DUP5 PUSH2 0x35EB JUMP JUMPDEST SWAP1 POP SWAP3 SWAP2 POP POP JUMP JUMPDEST PUSH1 0x0 PUSH3 0xFFFFFF DUP3 AND SWAP1 POP SWAP2 SWAP1 POP JUMP JUMPDEST PUSH2 0x365E DUP2 PUSH2 0x3646 JUMP JUMPDEST DUP3 MSTORE POP POP JUMP JUMPDEST PUSH1 0x0 PUSH1 0x20 DUP3 ADD SWAP1 POP PUSH2 0x3679 PUSH1 0x0 DUP4 ADD DUP5 PUSH2 0x3655 JUMP JUMPDEST SWAP3 SWAP2 POP POP JUMP JUMPDEST PUSH1 0x0 DUP1 PUSH1 0x40 DUP4 DUP6 SUB SLT ISZERO PUSH2 0x3696 JUMPI PUSH2 0x3695 PUSH2 0x34A1 JUMP JUMPDEST JUMPDEST PUSH1 0x0 PUSH2 0x36A4 DUP6 DUP3 DUP7 ADD PUSH2 0x34EF JUMP JUMPDEST SWAP3 POP POP PUSH1 0x20 PUSH2 0x36B5 DUP6 DUP3 DUP7 ADD PUSH2 0x3552 JUMP JUMPDEST SWAP2 POP POP SWAP3 POP SWAP3 SWAP1 POP JUMP JUMPDEST PUSH1 0x0 DUP2 ISZERO ISZERO SWAP1 POP SWAP2 SWAP1 POP JUMP JUMPDEST PUSH2 0x36D4 DUP2 PUSH2 0x36BF JUMP JUMPDEST DUP3 MSTORE POP POP JUMP JUMPDEST PUSH1 0x0 PUSH1 0x20 DUP3 ADD SWAP1 POP PUSH2 0x36EF PUSH1 0x0 DUP4 ADD DUP5 PUSH2 0x36CB JUMP JUMPDEST SWAP3 SWAP2 POP POP JUMP JUMPDEST PUSH2 0x36FE DUP2 PUSH2 0x34C6 JUMP JUMPDEST DUP3 MSTORE POP POP JUMP JUMPDEST PUSH1 0x0 PUSH1 0x20 DUP3 ADD SWAP1 POP PUSH2 0x3719 PUSH1 0x0 DUP4 ADD DUP5 PUSH2 0x36F5 JUMP JUMPDEST SWAP3 SWAP2 POP POP JUMP JUMPDEST PUSH2 0x3728 DUP2 PUSH2 0x3531 JUMP JUMPDEST DUP3 MSTORE POP POP JUMP JUMPDEST PUSH1 0x0 PUSH1 0x20 DUP3 ADD SWAP1 POP PUSH2 0x3743 PUSH1 0x0 DUP4 ADD DUP5 PUSH2 0x371F JUMP JUMPDEST SWAP3 SWAP2 POP POP JUMP JUMPDEST PUSH1 0x0 DUP1 PUSH1 0x0 PUSH1 0x60 DUP5 DUP7 SUB SLT ISZERO PUSH2 0x3762 JUMPI PUSH2 0x3761 PUSH2 0x34A1 JUMP JUMPDEST JUMPDEST PUSH1 0x0 PUSH2 0x3770 DUP7 DUP3 DUP8 ADD PUSH2 0x34EF JUMP JUMPDEST SWAP4 POP POP PUSH1 0x20 PUSH2 0x3781 DUP7 DUP3 DUP8 ADD PUSH2 0x34EF JUMP JUMPDEST SWAP3 POP POP PUSH1 0x40 PUSH2 0x3792 DUP7 DUP3 DUP8 ADD PUSH2 0x3552 JUMP JUMPDEST SWAP2 POP POP SWAP3 POP SWAP3 POP SWAP3 JUMP JUMPDEST PUSH2 0x37A5 DUP2 PUSH2 0x36BF JUMP JUMPDEST DUP2 EQ PUSH2 0x37B0 JUMPI PUSH1 0x0 DUP1 REVERT JUMPDEST POP JUMP JUMPDEST PUSH1 0x0 DUP2 CALLDATALOAD SWAP1 POP PUSH2 0x37C2 DUP2 PUSH2 0x379C JUMP JUMPDEST SWAP3 SWAP2 POP POP JUMP JUMPDEST PUSH1 0x0 PUSH1 0x20 DUP3 DUP5 SUB SLT ISZERO PUSH2 0x37DE JUMPI PUSH2 0x37DD PUSH2 0x34A1 JUMP JUMPDEST JUMPDEST PUSH1 0x0 PUSH2 0x37EC DUP5 DUP3 DUP6 ADD PUSH2 0x37B3 JUMP JUMPDEST SWAP2 POP POP SWAP3 SWAP2 POP POP JUMP JUMPDEST PUSH1 0x0 PUSH1 0xFF DUP3 AND SWAP1 POP SWAP2 SWAP1 POP JUMP JUMPDEST PUSH2 0x380B DUP2 PUSH2 0x37F5 JUMP JUMPDEST DUP3 MSTORE POP POP JUMP JUMPDEST PUSH1 0x0 PUSH1 0x20 DUP3 ADD SWAP1 POP PUSH2 0x3826 PUSH1 0x0 DUP4 ADD DUP5 PUSH2 0x3802 JUMP JUMPDEST SWAP3 SWAP2 POP POP JUMP JUMPDEST PUSH1 0x0 DUP2 SWAP1 POP SWAP2 SWAP1 POP JUMP JUMPDEST PUSH1 0x0 PUSH2 0x3851 PUSH2 0x384C PUSH2 0x3847 DUP5 PUSH2 0x34A6 JUMP JUMPDEST PUSH2 0x382C JUMP JUMPDEST PUSH2 0x34A6 JUMP JUMPDEST SWAP1 POP SWAP2 SWAP1 POP JUMP JUMPDEST PUSH1 0x0 PUSH2 0x3863 DUP3 PUSH2 0x3836 JUMP JUMPDEST SWAP1 POP SWAP2 SWAP1 POP JUMP JUMPDEST PUSH1 0x0 PUSH2 0x3875 DUP3 PUSH2 0x3858 JUMP JUMPDEST SWAP1 POP SWAP2 SWAP1 POP JUMP JUMPDEST PUSH2 0x3885 DUP2 PUSH2 0x386A JUMP JUMPDEST DUP3 MSTORE POP POP JUMP JUMPDEST PUSH1 0x0 PUSH1 0x20 DUP3 ADD SWAP1 POP PUSH2 0x38A0 PUSH1 0x0 DUP4 ADD DUP5 PUSH2 0x387C JUMP JUMPDEST SWAP3 SWAP2 POP POP JUMP JUMPDEST PUSH1 0x0 DUP1 PUSH1 0x40 DUP4 DUP6 SUB SLT ISZERO PUSH2 0x38BD JUMPI PUSH2 0x38BC PUSH2 0x34A1 JUMP JUMPDEST JUMPDEST PUSH1 0x0 PUSH2 0x38CB DUP6 DUP3 DUP7 ADD PUSH2 0x3552 JUMP JUMPDEST SWAP3 POP POP PUSH1 0x20 PUSH2 0x38DC DUP6 DUP3 DUP7 ADD PUSH2 0x34EF JUMP JUMPDEST SWAP2 POP POP SWAP3 POP SWAP3 SWAP1 POP JUMP JUMPDEST PUSH1 0x0 PUSH1 0x40 DUP3 ADD SWAP1 POP PUSH2 0x38FB PUSH1 0x0 DUP4 ADD DUP6 PUSH2 0x36CB JUMP JUMPDEST PUSH2 0x3908 PUSH1 0x20 DUP4 ADD DUP5 PUSH2 0x36CB JUMP JUMPDEST SWAP4 SWAP3 POP POP POP JUMP JUMPDEST PUSH1 0x0 PUSH2 0x391A DUP3 PUSH2 0x3858 JUMP JUMPDEST SWAP1 POP SWAP2 SWAP1 POP JUMP JUMPDEST PUSH2 0x392A DUP2 PUSH2 0x390F JUMP JUMPDEST DUP3 MSTORE POP POP JUMP JUMPDEST PUSH1 0x0 PUSH1 0x20 DUP3 ADD SWAP1 POP PUSH2 0x3945 PUSH1 0x0 DUP4 ADD DUP5 PUSH2 0x3921 JUMP JUMPDEST SWAP3 SWAP2 POP POP JUMP JUMPDEST PUSH2 0x3954 DUP2 PUSH2 0x3646 JUMP JUMPDEST DUP2 EQ PUSH2 0x395F JUMPI PUSH1 0x0 DUP1 REVERT JUMPDEST POP JUMP JUMPDEST PUSH1 0x0 DUP2 CALLDATALOAD SWAP1 POP PUSH2 0x3971 DUP2 PUSH2 0x394B JUMP JUMPDEST SWAP3 SWAP2 POP POP JUMP JUMPDEST PUSH1 0x0 DUP1 PUSH1 0x0 PUSH1 0x60 DUP5 DUP7 SUB SLT ISZERO PUSH2 0x3990 JUMPI PUSH2 0x398F PUSH2 0x34A1 JUMP JUMPDEST JUMPDEST PUSH1 0x0 PUSH2 0x399E DUP7 DUP3 DUP8 ADD PUSH2 0x34EF JUMP JUMPDEST SWAP4 POP POP PUSH1 0x20 PUSH2 0x39AF DUP7 DUP3 DUP8 ADD PUSH2 0x34EF JUMP JUMPDEST SWAP3 POP POP PUSH1 0x40 PUSH2 0x39C0 DUP7 DUP3 DUP8 ADD PUSH2 0x3962 JUMP JUMPDEST SWAP2 POP POP SWAP3 POP SWAP3 POP SWAP3 JUMP JUMPDEST PUSH1 0x0 PUSH1 0x80 DUP3 ADD SWAP1 POP PUSH2 0x39DF PUSH1 0x0 DUP4 ADD DUP8 PUSH2 0x371F JUMP JUMPDEST PUSH2 0x39EC PUSH1 0x20 DUP4 ADD DUP7 PUSH2 0x371F JUMP JUMPDEST PUSH2 0x39F9 PUSH1 0x40 DUP4 ADD DUP6 PUSH2 0x371F JUMP JUMPDEST PUSH2 0x3A06 PUSH1 0x60 DUP4 ADD DUP5 PUSH2 0x371F JUMP JUMPDEST SWAP6 SWAP5 POP POP POP POP POP JUMP JUMPDEST PUSH1 0x0 DUP1 PUSH1 0x40 DUP4 DUP6 SUB SLT ISZERO PUSH2 0x3A26 JUMPI PUSH2 0x3A25 PUSH2 0x34A1 JUMP JUMPDEST JUMPDEST PUSH1 0x0 PUSH2 0x3A34 DUP6 DUP3 DUP7 ADD PUSH2 0x34EF JUMP JUMPDEST SWAP3 POP POP PUSH1 0x20 PUSH2 0x3A45 DUP6 DUP3 DUP7 ADD PUSH2 0x34EF JUMP JUMPDEST SWAP2 POP POP SWAP3 POP SWAP3 SWAP1 POP JUMP JUMPDEST PUSH32 0x4669727374205472616E7366657220546F6B656E730000000000000000000000 PUSH1 0x0 DUP3 ADD MSTORE POP JUMP JUMPDEST PUSH1 0x0 PUSH2 0x3A85 PUSH1 0x15 DUP4 PUSH2 0x359F JUMP JUMPDEST SWAP2 POP PUSH2 0x3A90 DUP3 PUSH2 0x3A4F JUMP JUMPDEST PUSH1 0x20 DUP3 ADD SWAP1 POP SWAP2 SWAP1 POP JUMP JUMPDEST PUSH1 0x0 PUSH1 0x20 DUP3 ADD SWAP1 POP DUP2 DUP2 SUB PUSH1 0x0 DUP4 ADD MSTORE PUSH2 0x3AB4 DUP2 PUSH2 0x3A78 JUMP JUMPDEST SWAP1 POP SWAP2 SWAP1 POP JUMP JUMPDEST PUSH32 0x596F7520416C7265616479205769746864726177000000000000000000000000 PUSH1 0x0 DUP3 ADD MSTORE POP JUMP JUMPDEST PUSH1 0x0 PUSH2 0x3AF1 PUSH1 0x14 DUP4 PUSH2 0x359F JUMP JUMPDEST SWAP2 POP PUSH2 0x3AFC DUP3 PUSH2 0x3ABB JUMP JUMPDEST PUSH1 0x20 DUP3 ADD SWAP1 POP SWAP2 SWAP1 POP JUMP JUMPDEST PUSH1 0x0 PUSH1 0x20 DUP3 ADD SWAP1 POP DUP2 DUP2 SUB PUSH1 0x0 DUP4 ADD MSTORE PUSH2 0x3B20 DUP2 PUSH2 0x3AE4 JUMP JUMPDEST SWAP1 POP SWAP2 SWAP1 POP JUMP JUMPDEST PUSH32 0x4E487B7100000000000000000000000000000000000000000000000000000000 PUSH1 0x0 MSTORE PUSH1 0x11 PUSH1 0x4 MSTORE PUSH1 0x24 PUSH1 0x0 REVERT JUMPDEST PUSH1 0x0 PUSH2 0x3B61 DUP3 PUSH2 0x3531 JUMP JUMPDEST SWAP2 POP PUSH2 0x3B6C DUP4 PUSH2 0x3531 JUMP JUMPDEST SWAP3 POP DUP3 DUP3 MUL PUSH2 0x3B7A DUP2 PUSH2 0x3531 JUMP JUMPDEST SWAP2 POP DUP3 DUP3 DIV DUP5 EQ DUP4 ISZERO OR PUSH2 0x3B91 JUMPI PUSH2 0x3B90 PUSH2 0x3B27 JUMP JUMPDEST JUMPDEST POP SWAP3 SWAP2 POP POP JUMP JUMPDEST PUSH32 0x4E487B7100000000000000000000000000000000000000000000000000000000 PUSH1 0x0 MSTORE PUSH1 0x12 PUSH1 0x4 MSTORE PUSH1 0x24 PUSH1 0x0 REVERT JUMPDEST PUSH1 0x0 PUSH2 0x3BD2 DUP3 PUSH2 0x3531 JUMP JUMPDEST SWAP2 POP PUSH2 0x3BDD DUP4 PUSH2 0x3531 JUMP JUMPDEST SWAP3 POP DUP3 PUSH2 0x3BED JUMPI PUSH2 0x3BEC PUSH2 0x3B98 JUMP JUMPDEST JUMPDEST DUP3 DUP3 DIV SWAP1 POP SWAP3 SWAP2 POP POP JUMP JUMPDEST PUSH1 0x0 PUSH2 0x3C03 DUP3 PUSH2 0x3531 JUMP JUMPDEST SWAP2 POP PUSH2 0x3C0E DUP4 PUSH2 0x3531 JUMP JUMPDEST SWAP3 POP DUP3 DUP3 SUB SWAP1 POP DUP2 DUP2 GT ISZERO PUSH2 0x3C26 JUMPI PUSH2 0x3C25 PUSH2 0x3B27 JUMP JUMPDEST JUMPDEST SWAP3 SWAP2 POP POP JUMP JUMPDEST PUSH1 0x0 PUSH1 0x40 DUP3 ADD SWAP1 POP PUSH2 0x3C41 PUSH1 0x0 DUP4 ADD DUP6 PUSH2 0x36F5 JUMP JUMPDEST PUSH2 0x3C4E PUSH1 0x20 DUP4 ADD DUP5 PUSH2 0x371F JUMP JUMPDEST SWAP4 SWAP3 POP POP POP JUMP JUMPDEST PUSH1 0x0 DUP2 MLOAD SWAP1 POP PUSH2 0x3C64 DUP2 PUSH2 0x379C JUMP JUMPDEST SWAP3 SWAP2 POP POP JUMP JUMPDEST PUSH1 0x0 PUSH1 0x20 DUP3 DUP5 SUB SLT ISZERO PUSH2 0x3C80 JUMPI PUSH2 0x3C7F PUSH2 0x34A1 JUMP JUMPDEST JUMPDEST PUSH1 0x0 PUSH2 0x3C8E DUP5 DUP3 DUP6 ADD PUSH2 0x3C55 JUMP JUMPDEST SWAP2 POP POP SWAP3 SWAP2 POP POP JUMP JUMPDEST PUSH1 0x0 PUSH2 0x3CA2 DUP3 PUSH2 0x3531 JUMP JUMPDEST SWAP2 POP PUSH2 0x3CAD DUP4 PUSH2 0x3531 JUMP JUMPDEST SWAP3 POP DUP3 DUP3 ADD SWAP1 POP DUP1 DUP3 GT ISZERO PUSH2 0x3CC5 JUMPI PUSH2 0x3CC4 PUSH2 0x3B27 JUMP JUMPDEST JUMPDEST SWAP3 SWAP2 POP POP JUMP JUMPDEST PUSH32 0x53756D206F66205461782050657273656E74616765206D757374206265203020 PUSH1 0x0 DUP3 ADD MSTORE PUSH32 0x746F203135000000000000000000000000000000000000000000000000000000 PUSH1 0x20 DUP3 ADD MSTORE POP JUMP JUMPDEST PUSH1 0x0 PUSH2 0x3D27 PUSH1 0x25 DUP4 PUSH2 0x359F JUMP JUMPDEST SWAP2 POP PUSH2 0x3D32 DUP3 PUSH2 0x3CCB JUMP JUMPDEST PUSH1 0x40 DUP3 ADD SWAP1 POP SWAP2 SWAP1 POP JUMP JUMPDEST PUSH1 0x0 PUSH1 0x20 DUP3 ADD SWAP1 POP DUP2 DUP2 SUB PUSH1 0x0 DUP4 ADD MSTORE PUSH2 0x3D56 DUP2 PUSH2 0x3D1A JUMP JUMPDEST SWAP1 POP SWAP2 SWAP1 POP JUMP JUMPDEST PUSH32 0x4E487B7100000000000000000000000000000000000000000000000000000000 PUSH1 0x0 MSTORE PUSH1 0x22 PUSH1 0x4 MSTORE PUSH1 0x24 PUSH1 0x0 REVERT JUMPDEST PUSH1 0x0 PUSH1 0x2 DUP3 DIV SWAP1 POP PUSH1 0x1 DUP3 AND DUP1 PUSH2 0x3DA4 JUMPI PUSH1 0x7F DUP3 AND SWAP2 POP JUMPDEST PUSH1 0x20 DUP3 LT DUP2 SUB PUSH2 0x3DB7 JUMPI PUSH2 0x3DB6 PUSH2 0x3D5D JUMP JUMPDEST JUMPDEST POP SWAP2 SWAP1 POP JUMP JUMPDEST PUSH2 0x3DC6 DUP2 PUSH2 0x34C6 JUMP JUMPDEST DUP3 MSTORE POP POP JUMP JUMPDEST PUSH2 0x3DD5 DUP2 PUSH2 0x3646 JUMP JUMPDEST DUP3 MSTORE POP POP JUMP JUMPDEST PUSH2 0x3DE4 DUP2 PUSH2 0x3531 JUMP JUMPDEST DUP3 MSTORE POP POP JUMP JUMPDEST PUSH2 0x3DF3 DUP2 PUSH2 0x34A6 JUMP JUMPDEST DUP3 MSTORE POP POP JUMP JUMPDEST PUSH2 0x100 DUP3 ADD PUSH1 0x0 DUP3 ADD MLOAD PUSH2 0x3E10 PUSH1 0x0 DUP6 ADD DUP3 PUSH2 0x3DBD JUMP JUMPDEST POP PUSH1 0x20 DUP3 ADD MLOAD PUSH2 0x3E23 PUSH1 0x20 DUP6 ADD DUP3 PUSH2 0x3DBD JUMP JUMPDEST POP PUSH1 0x40 DUP3 ADD MLOAD PUSH2 0x3E36 PUSH1 0x40 DUP6 ADD DUP3 PUSH2 0x3DCC JUMP JUMPDEST POP PUSH1 0x60 DUP3 ADD MLOAD PUSH2 0x3E49 PUSH1 0x60 DUP6 ADD DUP3 PUSH2 0x3DBD JUMP JUMPDEST POP PUSH1 0x80 DUP3 ADD MLOAD PUSH2 0x3E5C PUSH1 0x80 DUP6 ADD DUP3 PUSH2 0x3DDB JUMP JUMPDEST POP PUSH1 0xA0 DUP3 ADD MLOAD PUSH2 0x3E6F PUSH1 0xA0 DUP6 ADD DUP3 PUSH2 0x3DDB JUMP JUMPDEST POP PUSH1 0xC0 DUP3 ADD MLOAD PUSH2 0x3E82 PUSH1 0xC0 DUP6 ADD DUP3 PUSH2 0x3DDB JUMP JUMPDEST POP PUSH1 0xE0 DUP3 ADD MLOAD PUSH2 0x3E95 PUSH1 0xE0 DUP6 ADD DUP3 PUSH2 0x3DEA JUMP JUMPDEST POP POP POP POP JUMP JUMPDEST PUSH1 0x0 PUSH2 0x100 DUP3 ADD SWAP1 POP PUSH2 0x3EB1 PUSH1 0x0 DUP4 ADD DUP5 PUSH2 0x3DF9 JUMP JUMPDEST SWAP3 SWAP2 POP POP JUMP JUMPDEST PUSH1 0x0 DUP2 MLOAD SWAP1 POP PUSH2 0x3EC6 DUP2 PUSH2 0x353B JUMP JUMPDEST SWAP3 SWAP2 POP POP JUMP JUMPDEST PUSH1 0x0 PUSH1 0x20 DUP3 DUP5 SUB SLT ISZERO PUSH2 0x3EE2 JUMPI PUSH2 0x3EE1 PUSH2 0x34A1 JUMP JUMPDEST JUMPDEST PUSH1 0x0 PUSH2 0x3EF0 DUP5 DUP3 DUP6 ADD PUSH2 0x3EB7 JUMP JUMPDEST SWAP2 POP POP SWAP3 SWAP2 POP POP JUMP JUMPDEST PUSH32 0x45524332303A2064656372656173656420616C6C6F77616E63652062656C6F77 PUSH1 0x0 DUP3 ADD MSTORE PUSH32 0x207A65726F000000000000000000000000000000000000000000000000000000 PUSH1 0x20 DUP3 ADD MSTORE POP JUMP JUMPDEST PUSH1 0x0 PUSH2 0x3F55 PUSH1 0x25 DUP4 PUSH2 0x359F JUMP JUMPDEST SWAP2 POP PUSH2 0x3F60 DUP3 PUSH2 0x3EF9 JUMP JUMPDEST PUSH1 0x40 DUP3 ADD SWAP1 POP SWAP2 SWAP1 POP JUMP JUMPDEST PUSH1 0x0 PUSH1 0x20 DUP3 ADD SWAP1 POP DUP2 DUP2 SUB PUSH1 0x0 DUP4 ADD MSTORE PUSH2 0x3F84 DUP2 PUSH2 0x3F48 JUMP JUMPDEST SWAP1 POP SWAP2 SWAP1 POP JUMP JUMPDEST PUSH32 0x4F776E61626C653A206E6577206F776E657220697320746865207A65726F2061 PUSH1 0x0 DUP3 ADD MSTORE PUSH32 0x6464726573730000000000000000000000000000000000000000000000000000 PUSH1 0x20 DUP3 ADD MSTORE POP JUMP JUMPDEST PUSH1 0x0 PUSH2 0x3FE7 PUSH1 0x26 DUP4 PUSH2 0x359F JUMP JUMPDEST SWAP2 POP PUSH2 0x3FF2 DUP3 PUSH2 0x3F8B JUMP JUMPDEST PUSH1 0x40 DUP3 ADD SWAP1 POP SWAP2 SWAP1 POP JUMP JUMPDEST PUSH1 0x0 PUSH1 0x20 DUP3 ADD SWAP1 POP DUP2 DUP2 SUB PUSH1 0x0 DUP4 ADD MSTORE PUSH2 0x4016 DUP2 PUSH2 0x3FDA JUMP JUMPDEST SWAP1 POP SWAP2 SWAP1 POP JUMP JUMPDEST PUSH32 0x4F776E61626C653A2063616C6C6572206973206E6F7420746865206F776E6572 PUSH1 0x0 DUP3 ADD MSTORE POP JUMP JUMPDEST PUSH1 0x0 PUSH2 0x4053 PUSH1 0x20 DUP4 PUSH2 0x359F JUMP JUMPDEST SWAP2 POP PUSH2 0x405E DUP3 PUSH2 0x401D JUMP JUMPDEST PUSH1 0x20 DUP3 ADD SWAP1 POP SWAP2 SWAP1 POP JUMP JUMPDEST PUSH1 0x0 PUSH1 0x20 DUP3 ADD SWAP1 POP DUP2 DUP2 SUB PUSH1 0x0 DUP4 ADD MSTORE PUSH2 0x4082 DUP2 PUSH2 0x4046 JUMP JUMPDEST SWAP1 POP SWAP2 SWAP1 POP JUMP JUMPDEST PUSH32 0x45524332303A20617070726F76652066726F6D20746865207A65726F20616464 PUSH1 0x0 DUP3 ADD MSTORE PUSH32 0x7265737300000000000000000000000000000000000000000000000000000000 PUSH1 0x20 DUP3 ADD MSTORE POP JUMP JUMPDEST PUSH1 0x0 PUSH2 0x40E5 PUSH1 0x24 DUP4 PUSH2 0x359F JUMP JUMPDEST SWAP2 POP PUSH2 0x40F0 DUP3 PUSH2 0x4089 JUMP JUMPDEST PUSH1 0x40 DUP3 ADD SWAP1 POP SWAP2 SWAP1 POP JUMP JUMPDEST PUSH1 0x0 PUSH1 0x20 DUP3 ADD SWAP1 POP DUP2 DUP2 SUB PUSH1 0x0 DUP4 ADD MSTORE PUSH2 0x4114 DUP2 PUSH2 0x40D8 JUMP JUMPDEST SWAP1 POP SWAP2 SWAP1 POP JUMP JUMPDEST PUSH32 0x45524332303A20617070726F766520746F20746865207A65726F206164647265 PUSH1 0x0 DUP3 ADD MSTORE PUSH32 0x7373000000000000000000000000000000000000000000000000000000000000 PUSH1 0x20 DUP3 ADD MSTORE POP JUMP JUMPDEST PUSH1 0x0 PUSH2 0x4177 PUSH1 0x22 DUP4 PUSH2 0x359F JUMP JUMPDEST SWAP2 POP PUSH2 0x4182 DUP3 PUSH2 0x411B JUMP JUMPDEST PUSH1 0x40 DUP3 ADD SWAP1 POP SWAP2 SWAP1 POP JUMP JUMPDEST PUSH1 0x0 PUSH1 0x20 DUP3 ADD SWAP1 POP DUP2 DUP2 SUB PUSH1 0x0 DUP4 ADD MSTORE PUSH2 0x41A6 DUP2 PUSH2 0x416A JUMP JUMPDEST SWAP1 POP SWAP2 SWAP1 POP JUMP JUMPDEST PUSH32 0x45524332303A20696E73756666696369656E7420616C6C6F77616E6365000000 PUSH1 0x0 DUP3 ADD MSTORE POP JUMP JUMPDEST PUSH1 0x0 PUSH2 0x41E3 PUSH1 0x1D DUP4 PUSH2 0x359F JUMP JUMPDEST SWAP2 POP PUSH2 0x41EE DUP3 PUSH2 0x41AD JUMP JUMPDEST PUSH1 0x20 DUP3 ADD SWAP1 POP SWAP2 SWAP1 POP JUMP JUMPDEST PUSH1 0x0 PUSH1 0x20 DUP3 ADD SWAP1 POP DUP2 DUP2 SUB PUSH1 0x0 DUP4 ADD MSTORE PUSH2 0x4212 DUP2 PUSH2 0x41D6 JUMP JUMPDEST SWAP1 POP SWAP2 SWAP1 POP JUMP JUMPDEST PUSH32 0x45524332303A207472616E736665722066726F6D20746865207A65726F206164 PUSH1 0x0 DUP3 ADD MSTORE PUSH32 0x6472657373000000000000000000000000000000000000000000000000000000 PUSH1 0x20 DUP3 ADD MSTORE POP JUMP JUMPDEST PUSH1 0x0 PUSH2 0x4275 PUSH1 0x25 DUP4 PUSH2 0x359F JUMP JUMPDEST SWAP2 POP PUSH2 0x4280 DUP3 PUSH2 0x4219 JUMP JUMPDEST PUSH1 0x40 DUP3 ADD SWAP1 POP SWAP2 SWAP1 POP JUMP JUMPDEST PUSH1 0x0 PUSH1 0x20 DUP3 ADD SWAP1 POP DUP2 DUP2 SUB PUSH1 0x0 DUP4 ADD MSTORE PUSH2 0x42A4 DUP2 PUSH2 0x4268 JUMP JUMPDEST SWAP1 POP SWAP2 SWAP1 POP JUMP JUMPDEST PUSH32 0x45524332303A207472616E7366657220746F20746865207A65726F2061646472 PUSH1 0x0 DUP3 ADD MSTORE PUSH32 0x6573730000000000000000000000000000000000000000000000000000000000 PUSH1 0x20 DUP3 ADD MSTORE POP JUMP JUMPDEST PUSH1 0x0 PUSH2 0x4307 PUSH1 0x23 DUP4 PUSH2 0x359F JUMP JUMPDEST SWAP2 POP PUSH2 0x4312 DUP3 PUSH2 0x42AB JUMP JUMPDEST PUSH1 0x40 DUP3 ADD SWAP1 POP SWAP2 SWAP1 POP JUMP JUMPDEST PUSH1 0x0 PUSH1 0x20 DUP3 ADD SWAP1 POP DUP2 DUP2 SUB PUSH1 0x0 DUP4 ADD MSTORE PUSH2 0x4336 DUP2 PUSH2 0x42FA JUMP JUMPDEST SWAP1 POP SWAP2 SWAP1 POP JUMP JUMPDEST PUSH32 0x45524332303A207472616E7366657220616D6F756E7420657863656564732062 PUSH1 0x0 DUP3 ADD MSTORE PUSH32 0x616C616E63650000000000000000000000000000000000000000000000000000 PUSH1 0x20 DUP3 ADD MSTORE POP JUMP JUMPDEST PUSH1 0x0 PUSH2 0x4399 PUSH1 0x26 DUP4 PUSH2 0x359F JUMP JUMPDEST SWAP2 POP PUSH2 0x43A4 DUP3 PUSH2 0x433D JUMP JUMPDEST PUSH1 0x40 DUP3 ADD SWAP1 POP SWAP2 SWAP1 POP JUMP JUMPDEST PUSH1 0x0 PUSH1 0x20 DUP3 ADD SWAP1 POP DUP2 DUP2 SUB PUSH1 0x0 DUP4 ADD MSTORE PUSH2 0x43C8 DUP2 PUSH2 0x438C JUMP JUMPDEST SWAP1 POP SWAP2 SWAP1 POP JUMP JUMPDEST PUSH32 0x45524332303A206275726E2066726F6D20746865207A65726F20616464726573 PUSH1 0x0 DUP3 ADD MSTORE PUSH32 0x7300000000000000000000000000000000000000000000000000000000000000 PUSH1 0x20 DUP3 ADD MSTORE POP JUMP JUMPDEST PUSH1 0x0 PUSH2 0x442B PUSH1 0x21 DUP4 PUSH2 0x359F JUMP JUMPDEST SWAP2 POP PUSH2 0x4436 DUP3 PUSH2 0x43CF JUMP JUMPDEST PUSH1 0x40 DUP3 ADD SWAP1 POP SWAP2 SWAP1 POP JUMP JUMPDEST PUSH1 0x0 PUSH1 0x20 DUP3 ADD SWAP1 POP DUP2 DUP2 SUB PUSH1 0x0 DUP4 ADD MSTORE PUSH2 0x445A DUP2 PUSH2 0x441E JUMP JUMPDEST SWAP1 POP SWAP2 SWAP1 POP JUMP JUMPDEST PUSH32 0x45524332303A206275726E20616D6F756E7420657863656564732062616C616E PUSH1 0x0 DUP3 ADD MSTORE PUSH32 0x6365000000000000000000000000000000000000000000000000000000000000 PUSH1 0x20 DUP3 ADD MSTORE POP JUMP JUMPDEST PUSH1 0x0 PUSH2 0x44BD PUSH1 0x22 DUP4 PUSH2 0x359F JUMP JUMPDEST SWAP2 POP PUSH2 0x44C8 DUP3 PUSH2 0x4461 JUMP JUMPDEST PUSH1 0x40 DUP3 ADD SWAP1 POP SWAP2 SWAP1 POP JUMP JUMPDEST PUSH1 0x0 PUSH1 0x20 DUP3 ADD SWAP1 POP DUP2 DUP2 SUB PUSH1 0x0 DUP4 ADD MSTORE PUSH2 0x44EC DUP2 PUSH2 0x44B0 JUMP JUMPDEST SWAP1 POP SWAP2 SWAP1 POP JUMP INVALID LOG2 PUSH5 0x6970667358 0x22 SLT KECCAK256 0xE7 KECCAK256 0x2B 0x2B 0xC7 EQ SLOAD PUSH32 0x2E400D5AC1B6964ACC843619CB10BB3BE87842A4AA84120764736F6C63430008 SGT STOP CALLER "
		},
		"gasEstimates": {
			"creation": {
				"codeDepositCost": "3541000",
				"executionCost": "infinite",
				"totalCost": "infinite"
			},
			"external": {
				"PancakeSwap()": "2626",
				"ReflectionTaxAmount()": "2563",
				"Taxs(uint256)": "infinite",
				"WBNB()": "2609",
				"WBNBToken()": "infinite",
				"Wallet()": "2560",
				"WhiteList(address)": "24945",
				"WithdrawReflectionTaxPersentage(address)": "infinite",
				"WithdrawTokens(address,uint256)": "infinite",
				"WithdrawWBNB(address,uint256)": "infinite",
				"allowance(address,address)": "infinite",
				"approve(address,uint256)": "infinite",
				"balanceOf(address)": "2996",
				"burn(uint256)": "infinite",
				"burnFrom(address,uint256)": "infinite",
				"decimals()": "411",
				"decreaseAllowance(address,uint256)": "infinite",
				"getBalanceWBNB(address)": "infinite",
				"increaseAllowance(address,uint256)": "infinite",
				"isSwap()": "2587",
				"linkToken()": "infinite",
				"name()": "infinite",
				"owner()": "2678",
				"poolFee()": "2584",
				"reflectionUserDetail(address)": "infinite",
				"renounceOwnership()": "30444",
				"routerAddress()": "468",
				"setAddressFee(address,address,uint24)": "infinite",
				"setInvestmentBuyTax(uint256)": "infinite",
				"setInvestmentSellTax(uint256)": "infinite",
				"setLPBuyTax(uint256)": "infinite",
				"setLPSellTax(uint256)": "infinite",
				"setLPXAmount(uint256)": "24956",
				"setMarkettingBuyTax(uint256)": "infinite",
				"setMarkettingSellTax(uint256)": "infinite",
				"setMarkettingSwap(bool)": "27039",
				"setMarkettingXAmount(uint256)": "24957",
				"setReflectionBuyTax(uint256)": "infinite",
				"setReflectionSellTax(uint256)": "infinite",
				"swapExactInputSingle(uint256,address)": "infinite",
				"swapRouter()": "infinite",
				"symbol()": "infinite",
				"totalSupply()": "2527",
				"transfer(address,uint256)": "infinite",
				"transferFrom(address,address,uint256)": "infinite",
				"transferOwnership(address)": "30898",
				"whiteList(address)": "2979"
			}
		},
		"methodIdentifiers": {
			"PancakeSwap()": "196fd4be",
			"ReflectionTaxAmount()": "1d4140e1",
			"Taxs(uint256)": "ccbd73e7",
			"WBNB()": "8dd95002",
			"WBNBToken()": "82fab2ad",
			"Wallet()": "0e1b39fb",
			"WhiteList(address)": "6bc20157",
			"WithdrawReflectionTaxPersentage(address)": "0012d61a",
			"WithdrawTokens(address,uint256)": "680f2e4f",
			"WithdrawWBNB(address,uint256)": "b9e43eee",
			"allowance(address,address)": "dd62ed3e",
			"approve(address,uint256)": "095ea7b3",
			"balanceOf(address)": "70a08231",
			"burn(uint256)": "42966c68",
			"burnFrom(address,uint256)": "79cc6790",
			"decimals()": "313ce567",
			"decreaseAllowance(address,uint256)": "a457c2d7",
			"getBalanceWBNB(address)": "8568b3a5",
			"increaseAllowance(address,uint256)": "39509351",
			"isSwap()": "e319c2ce",
			"linkToken()": "57970e93",
			"name()": "06fdde03",
			"owner()": "8da5cb5b",
			"poolFee()": "089fe6aa",
			"reflectionUserDetail(address)": "b73f8007",
			"renounceOwnership()": "715018a6",
			"routerAddress()": "3268cc56",
			"setAddressFee(address,address,uint24)": "ca5fb573",
			"setInvestmentBuyTax(uint256)": "e67d6921",
			"setInvestmentSellTax(uint256)": "ea173a39",
			"setLPBuyTax(uint256)": "0445a103",
			"setLPSellTax(uint256)": "172cc5a7",
			"setLPXAmount(uint256)": "e465d64d",
			"setMarkettingBuyTax(uint256)": "c90880c1",
			"setMarkettingSellTax(uint256)": "afe2ddd7",
			"setMarkettingSwap(bool)": "24e2a33e",
			"setMarkettingXAmount(uint256)": "9c42ac13",
			"setReflectionBuyTax(uint256)": "36eab316",
			"setReflectionSellTax(uint256)": "446b5d5f",
			"swapExactInputSingle(uint256,address)": "793ea8d1",
			"swapRouter()": "c31c9c07",
			"symbol()": "95d89b41",
			"totalSupply()": "18160ddd",
			"transfer(address,uint256)": "a9059cbb",
			"transferFrom(address,address,uint256)": "23b872dd",
			"transferOwnership(address)": "f2fde38b",
			"whiteList(address)": "372c12b1"
		}
	},
	"abi": [
		{
			"inputs": [],
			"stateMutability": "nonpayable",
			"type": "constructor"
		},
		{
			"anonymous": false,
			"inputs": [
				{
					"indexed": true,
					"internalType": "address",
					"name": "owner",
					"type": "address"
				},
				{
					"indexed": true,
					"internalType": "address",
					"name": "spender",
					"type": "address"
				},
				{
					"indexed": false,
					"internalType": "uint256",
					"name": "value",
					"type": "uint256"
				}
			],
			"name": "Approval",
			"type": "event"
		},
		{
			"anonymous": false,
			"inputs": [
				{
					"indexed": true,
					"internalType": "address",
					"name": "previousOwner",
					"type": "address"
				},
				{
					"indexed": true,
					"internalType": "address",
					"name": "newOwner",
					"type": "address"
				}
			],
			"name": "OwnershipTransferred",
			"type": "event"
		},
		{
			"anonymous": false,
			"inputs": [
				{
					"indexed": true,
					"internalType": "address",
					"name": "from",
					"type": "address"
				},
				{
					"indexed": true,
					"internalType": "address",
					"name": "to",
					"type": "address"
				},
				{
					"indexed": false,
					"internalType": "uint256",
					"name": "value",
					"type": "uint256"
				}
			],
			"name": "Transfer",
			"type": "event"
		},
		{
			"inputs": [],
			"name": "PancakeSwap",
			"outputs": [
				{
					"internalType": "address",
					"name": "",
					"type": "address"
				}
			],
			"stateMutability": "view",
			"type": "function"
		},
		{
			"inputs": [],
			"name": "ReflectionTaxAmount",
			"outputs": [
				{
					"internalType": "uint256",
					"name": "",
					"type": "uint256"
				}
			],
			"stateMutability": "view",
			"type": "function"
		},
		{
			"inputs": [
				{
					"internalType": "uint256",
					"name": "",
					"type": "uint256"
				}
			],
			"name": "Taxs",
			"outputs": [
				{
					"internalType": "uint256",
					"name": "SellTax",
					"type": "uint256"
				},
				{
					"internalType": "uint256",
					"name": "BuyTax",
					"type": "uint256"
				},
				{
					"internalType": "uint256",
					"name": "XAmount",
					"type": "uint256"
				},
				{
					"internalType": "uint256",
					"name": "currentAmount",
					"type": "uint256"
				}
			],
			"stateMutability": "view",
			"type": "function"
		},
		{
			"inputs": [],
			"name": "WBNB",
			"outputs": [
				{
					"internalType": "address",
					"name": "",
					"type": "address"
				}
			],
			"stateMutability": "view",
			"type": "function"
		},
		{
			"inputs": [],
			"name": "WBNBToken",
			"outputs": [
				{
					"internalType": "contract IERC20",
					"name": "",
					"type": "address"
				}
			],
			"stateMutability": "view",
			"type": "function"
		},
		{
			"inputs": [],
			"name": "Wallet",
			"outputs": [
				{
					"internalType": "address",
					"name": "",
					"type": "address"
				}
			],
			"stateMutability": "view",
			"type": "function"
		},
		{
			"inputs": [
				{
					"internalType": "address",
					"name": "_address",
					"type": "address"
				}
			],
			"name": "WhiteList",
			"outputs": [],
			"stateMutability": "nonpayable",
			"type": "function"
		},
		{
			"inputs": [
				{
					"internalType": "address",
					"name": "from",
					"type": "address"
				}
			],
			"name": "WithdrawReflectionTaxPersentage",
			"outputs": [],
			"stateMutability": "nonpayable",
			"type": "function"
		},
		{
			"inputs": [
				{
					"internalType": "address",
					"name": "to",
					"type": "address"
				},
				{
					"internalType": "uint256",
					"name": "amount",
					"type": "uint256"
				}
			],
			"name": "WithdrawTokens",
			"outputs": [],
			"stateMutability": "nonpayable",
			"type": "function"
		},
		{
			"inputs": [
				{
					"internalType": "address",
					"name": "to",
					"type": "address"
				},
				{
					"internalType": "uint256",
					"name": "amount",
					"type": "uint256"
				}
			],
			"name": "WithdrawWBNB",
			"outputs": [],
			"stateMutability": "nonpayable",
			"type": "function"
		},
		{
			"inputs": [
				{
					"internalType": "address",
					"name": "owner",
					"type": "address"
				},
				{
					"internalType": "address",
					"name": "spender",
					"type": "address"
				}
			],
			"name": "allowance",
			"outputs": [
				{
					"internalType": "uint256",
					"name": "",
					"type": "uint256"
				}
			],
			"stateMutability": "view",
			"type": "function"
		},
		{
			"inputs": [
				{
					"internalType": "address",
					"name": "spender",
					"type": "address"
				},
				{
					"internalType": "uint256",
					"name": "amount",
					"type": "uint256"
				}
			],
			"name": "approve",
			"outputs": [
				{
					"internalType": "bool",
					"name": "",
					"type": "bool"
				}
			],
			"stateMutability": "nonpayable",
			"type": "function"
		},
		{
			"inputs": [
				{
					"internalType": "address",
					"name": "account",
					"type": "address"
				}
			],
			"name": "balanceOf",
			"outputs": [
				{
					"internalType": "uint256",
					"name": "",
					"type": "uint256"
				}
			],
			"stateMutability": "view",
			"type": "function"
		},
		{
			"inputs": [
				{
					"internalType": "uint256",
					"name": "amount",
					"type": "uint256"
				}
			],
			"name": "burn",
			"outputs": [],
			"stateMutability": "nonpayable",
			"type": "function"
		},
		{
			"inputs": [
				{
					"internalType": "address",
					"name": "account",
					"type": "address"
				},
				{
					"internalType": "uint256",
					"name": "amount",
					"type": "uint256"
				}
			],
			"name": "burnFrom",
			"outputs": [],
			"stateMutability": "nonpayable",
			"type": "function"
		},
		{
			"inputs": [],
			"name": "decimals",
			"outputs": [
				{
					"internalType": "uint8",
					"name": "",
					"type": "uint8"
				}
			],
			"stateMutability": "view",
			"type": "function"
		},
		{
			"inputs": [
				{
					"internalType": "address",
					"name": "spender",
					"type": "address"
				},
				{
					"internalType": "uint256",
					"name": "subtractedValue",
					"type": "uint256"
				}
			],
			"name": "decreaseAllowance",
			"outputs": [
				{
					"internalType": "bool",
					"name": "",
					"type": "bool"
				}
			],
			"stateMutability": "nonpayable",
			"type": "function"
		},
		{
			"inputs": [
				{
					"internalType": "address",
					"name": "contractAddress",
					"type": "address"
				}
			],
			"name": "getBalanceWBNB",
			"outputs": [
				{
					"internalType": "uint256",
					"name": "Balance",
					"type": "uint256"
				}
			],
			"stateMutability": "view",
			"type": "function"
		},
		{
			"inputs": [
				{
					"internalType": "address",
					"name": "spender",
					"type": "address"
				},
				{
					"internalType": "uint256",
					"name": "addedValue",
					"type": "uint256"
				}
			],
			"name": "increaseAllowance",
			"outputs": [
				{
					"internalType": "bool",
					"name": "",
					"type": "bool"
				}
			],
			"stateMutability": "nonpayable",
			"type": "function"
		},
		{
			"inputs": [],
			"name": "isSwap",
			"outputs": [
				{
					"internalType": "bool",
					"name": "",
					"type": "bool"
				}
			],
			"stateMutability": "view",
			"type": "function"
		},
		{
			"inputs": [],
			"name": "linkToken",
			"outputs": [
				{
					"internalType": "contract IERC20",
					"name": "",
					"type": "address"
				}
			],
			"stateMutability": "view",
			"type": "function"
		},
		{
			"inputs": [],
			"name": "name",
			"outputs": [
				{
					"internalType": "string",
					"name": "",
					"type": "string"
				}
			],
			"stateMutability": "view",
			"type": "function"
		},
		{
			"inputs": [],
			"name": "owner",
			"outputs": [
				{
					"internalType": "address",
					"name": "",
					"type": "address"
				}
			],
			"stateMutability": "view",
			"type": "function"
		},
		{
			"inputs": [],
			"name": "poolFee",
			"outputs": [
				{
					"internalType": "uint24",
					"name": "",
					"type": "uint24"
				}
			],
			"stateMutability": "view",
			"type": "function"
		},
		{
			"inputs": [
				{
					"internalType": "address",
					"name": "",
					"type": "address"
				}
			],
			"name": "reflectionUserDetail",
			"outputs": [
				{
					"internalType": "bool",
					"name": "withdraw",
					"type": "bool"
				},
				{
					"internalType": "bool",
					"name": "TAmount",
					"type": "bool"
				}
			],
			"stateMutability": "view",
			"type": "function"
		},
		{
			"inputs": [],
			"name": "renounceOwnership",
			"outputs": [],
			"stateMutability": "nonpayable",
			"type": "function"
		},
		{
			"inputs": [],
			"name": "routerAddress",
			"outputs": [
				{
					"internalType": "address",
					"name": "",
					"type": "address"
				}
			],
			"stateMutability": "view",
			"type": "function"
		},
		{
			"inputs": [
				{
					"internalType": "address",
					"name": "_PancakeSwapAddress",
					"type": "address"
				},
				{
					"internalType": "address",
					"name": "_WBNBAddress",
					"type": "address"
				},
				{
					"internalType": "uint24",
					"name": "_poolFee",
					"type": "uint24"
				}
			],
			"name": "setAddressFee",
			"outputs": [],
			"stateMutability": "nonpayable",
			"type": "function"
		},
		{
			"inputs": [
				{
					"internalType": "uint256",
					"name": "Tax",
					"type": "uint256"
				}
			],
			"name": "setInvestmentBuyTax",
			"outputs": [],
			"stateMutability": "nonpayable",
			"type": "function"
		},
		{
			"inputs": [
				{
					"internalType": "uint256",
					"name": "Tax",
					"type": "uint256"
				}
			],
			"name": "setInvestmentSellTax",
			"outputs": [],
			"stateMutability": "nonpayable",
			"type": "function"
		},
		{
			"inputs": [
				{
					"internalType": "uint256",
					"name": "Tax",
					"type": "uint256"
				}
			],
			"name": "setLPBuyTax",
			"outputs": [],
			"stateMutability": "nonpayable",
			"type": "function"
		},
		{
			"inputs": [
				{
					"internalType": "uint256",
					"name": "Tax",
					"type": "uint256"
				}
			],
			"name": "setLPSellTax",
			"outputs": [],
			"stateMutability": "nonpayable",
			"type": "function"
		},
		{
			"inputs": [
				{
					"internalType": "uint256",
					"name": "Amount",
					"type": "uint256"
				}
			],
			"name": "setLPXAmount",
			"outputs": [],
			"stateMutability": "nonpayable",
			"type": "function"
		},
		{
			"inputs": [
				{
					"internalType": "uint256",
					"name": "Tax",
					"type": "uint256"
				}
			],
			"name": "setMarkettingBuyTax",
			"outputs": [],
			"stateMutability": "nonpayable",
			"type": "function"
		},
		{
			"inputs": [
				{
					"internalType": "uint256",
					"name": "Tax",
					"type": "uint256"
				}
			],
			"name": "setMarkettingSellTax",
			"outputs": [],
			"stateMutability": "nonpayable",
			"type": "function"
		},
		{
			"inputs": [
				{
					"internalType": "bool",
					"name": "check",
					"type": "bool"
				}
			],
			"name": "setMarkettingSwap",
			"outputs": [],
			"stateMutability": "nonpayable",
			"type": "function"
		},
		{
			"inputs": [
				{
					"internalType": "uint256",
					"name": "Amount",
					"type": "uint256"
				}
			],
			"name": "setMarkettingXAmount",
			"outputs": [],
			"stateMutability": "nonpayable",
			"type": "function"
		},
		{
			"inputs": [
				{
					"internalType": "uint256",
					"name": "Tax",
					"type": "uint256"
				}
			],
			"name": "setReflectionBuyTax",
			"outputs": [],
			"stateMutability": "nonpayable",
			"type": "function"
		},
		{
			"inputs": [
				{
					"internalType": "uint256",
					"name": "Tax",
					"type": "uint256"
				}
			],
			"name": "setReflectionSellTax",
			"outputs": [],
			"stateMutability": "nonpayable",
			"type": "function"
		},
		{
			"inputs": [
				{
					"internalType": "uint256",
					"name": "amountIn",
					"type": "uint256"
				},
				{
					"internalType": "address",
					"name": "recipientAddresss",
					"type": "address"
				}
			],
			"name": "swapExactInputSingle",
			"outputs": [
				{
					"internalType": "uint256",
					"name": "amountOut",
					"type": "uint256"
				}
			],
			"stateMutability": "nonpayable",
			"type": "function"
		},
		{
			"inputs": [],
			"name": "swapRouter",
			"outputs": [
				{
					"internalType": "contract ISwapRouter",
					"name": "",
					"type": "address"
				}
			],
			"stateMutability": "view",
			"type": "function"
		},
		{
			"inputs": [],
			"name": "symbol",
			"outputs": [
				{
					"internalType": "string",
					"name": "",
					"type": "string"
				}
			],
			"stateMutability": "view",
			"type": "function"
		},
		{
			"inputs": [],
			"name": "totalSupply",
			"outputs": [
				{
					"internalType": "uint256",
					"name": "",
					"type": "uint256"
				}
			],
			"stateMutability": "view",
			"type": "function"
		},
		{
			"inputs": [
				{
					"internalType": "address",
					"name": "to",
					"type": "address"
				},
				{
					"internalType": "uint256",
					"name": "amount",
					"type": "uint256"
				}
			],
			"name": "transfer",
			"outputs": [
				{
					"internalType": "bool",
					"name": "",
					"type": "bool"
				}
			],
			"stateMutability": "nonpayable",
			"type": "function"
		},
		{
			"inputs": [
				{
					"internalType": "address",
					"name": "from",
					"type": "address"
				},
				{
					"internalType": "address",
					"name": "to",
					"type": "address"
				},
				{
					"internalType": "uint256",
					"name": "amount",
					"type": "uint256"
				}
			],
			"name": "transferFrom",
			"outputs": [
				{
					"internalType": "bool",
					"name": "",
					"type": "bool"
				}
			],
			"stateMutability": "nonpayable",
			"type": "function"
		},
		{
			"inputs": [
				{
					"internalType": "address",
					"name": "newOwner",
					"type": "address"
				}
			],
			"name": "transferOwnership",
			"outputs": [],
			"stateMutability": "nonpayable",
			"type": "function"
		},
		{
			"inputs": [
				{
					"internalType": "address",
					"name": "",
					"type": "address"
				}
			],
			"name": "whiteList",
			"outputs": [
				{
					"internalType": "bool",
					"name": "",
					"type": "bool"
				}
			],
			"stateMutability": "view",
			"type": "function"
		}
	]
}