{
	"contracts/OnChain/EncodeGenerate.sol": {
		"EncodeGenerate": {
			"abi": [
				{
					"inputs": [
						{
							"internalType": "string",
							"name": "deposited",
							"type": "string"
						},
						{
							"internalType": "string",
							"name": "MaturityTime",
							"type": "string"
						},
						{
							"internalType": "string",
							"name": "Persentage",
							"type": "string"
						},
						{
							"internalType": "string",
							"name": "ERC20ContractAddress",
							"type": "string"
						},
						{
							"internalType": "string",
							"name": "NFTContractAddress",
							"type": "string"
						},
						{
							"internalType": "string",
							"name": "ContractName",
							"type": "string"
						},
						{
							"internalType": "string",
							"name": "ContractSymbol",
							"type": "string"
						},
						{
							"internalType": "string",
							"name": "TotalClaim",
							"type": "string"
						}
					],
					"name": "GetImageUrl",
					"outputs": [
						{
							"internalType": "string",
							"name": "",
							"type": "string"
						}
					],
					"stateMutability": "pure",
					"type": "function"
				},
				{
					"inputs": [
						{
							"internalType": "string",
							"name": "deposited",
							"type": "string"
						},
						{
							"internalType": "string",
							"name": "MaturityTime",
							"type": "string"
						},
						{
							"internalType": "string",
							"name": "Persentage",
							"type": "string"
						},
						{
							"internalType": "string",
							"name": "ERC20ContractAddress",
							"type": "string"
						},
						{
							"internalType": "string",
							"name": "NFTContractAddress",
							"type": "string"
						},
						{
							"internalType": "string",
							"name": "ContractName",
							"type": "string"
						},
						{
							"internalType": "string",
							"name": "ContractSymbol",
							"type": "string"
						},
						{
							"internalType": "string",
							"name": "TotalClaim",
							"type": "string"
						},
						{
							"internalType": "string",
							"name": "iUrl",
							"type": "string"
						}
					],
					"name": "GetUrl",
					"outputs": [
						{
							"internalType": "string",
							"name": "",
							"type": "string"
						}
					],
					"stateMutability": "pure",
					"type": "function"
				},
				{
					"inputs": [
						{
							"internalType": "bytes",
							"name": "data",
							"type": "bytes"
						}
					],
					"name": "encode",
					"outputs": [
						{
							"internalType": "string",
							"name": "",
							"type": "string"
						}
					],
					"stateMutability": "pure",
					"type": "function"
				}
			],
			"devdoc": {
				"author": "Brecht Devos <brecht@loopring.org>",
				"kind": "dev",
				"methods": {},
				"title": "Base64",
				"version": 1
			},
			"evm": {
				"assembly": "    /* \"contracts/OnChain/EncodeGenerate.sol\":275:5765  contract EncodeGenerate {... */\n  mstore(0x40, 0x80)\n  callvalue\n  dup1\n  iszero\n  tag_1\n  jumpi\n  0x00\n  dup1\n  revert\ntag_1:\n  pop\n  dataSize(sub_0)\n  dup1\n  dataOffset(sub_0)\n  0x00\n  codecopy\n  0x00\n  return\nstop\n\nsub_0: assembly {\n        /* \"contracts/OnChain/EncodeGenerate.sol\":275:5765  contract EncodeGenerate {... */\n      mstore(0x40, 0x80)\n      callvalue\n      dup1\n      iszero\n      tag_1\n      jumpi\n      0x00\n      dup1\n      revert\n    tag_1:\n      pop\n      jumpi(tag_2, lt(calldatasize, 0x04))\n      shr(0xe0, calldataload(0x00))\n      dup1\n      0x058a6be5\n      eq\n      tag_3\n      jumpi\n      dup1\n      0x0a767490\n      eq\n      tag_4\n      jumpi\n      dup1\n      0x12496a1b\n      eq\n      tag_5\n      jumpi\n    tag_2:\n      0x00\n      dup1\n      revert\n        /* \"contracts/OnChain/EncodeGenerate.sol\":4509:5763  function GetUrl( string memory deposited, string memory MaturityTime, string memory Persentage, string memory ERC20ContractAddress, string memory NFTContractAddress, string memory ContractName, string memory ContractSymbol, string memory TotalClaim, string memory iUrl) public pure returns (string memory) {... */\n    tag_3:\n      tag_6\n      0x04\n      dup1\n      calldatasize\n      sub\n      dup2\n      add\n      swap1\n      tag_7\n      swap2\n      swap1\n      tag_8\n      jump\t// in\n    tag_7:\n      tag_9\n      jump\t// in\n    tag_6:\n      mload(0x40)\n      tag_10\n      swap2\n      swap1\n      tag_11\n      jump\t// in\n    tag_10:\n      mload(0x40)\n      dup1\n      swap2\n      sub\n      swap1\n      return\n        /* \"contracts/OnChain/EncodeGenerate.sol\":2217:4503  function GetImageUrl( string memory deposited, string memory MaturityTime, string memory Persentage, string memory ERC20ContractAddress, string memory NFTContractAddress, string memory ContractName, string memory ContractSymbol, string memory TotalClaim) public pure returns (string memory) {... */\n    tag_4:\n      tag_12\n      0x04\n      dup1\n      calldatasize\n      sub\n      dup2\n      add\n      swap1\n      tag_13\n      swap2\n      swap1\n      tag_14\n      jump\t// in\n    tag_13:\n      tag_15\n      jump\t// in\n    tag_12:\n      mload(0x40)\n      tag_16\n      swap2\n      swap1\n      tag_11\n      jump\t// in\n    tag_16:\n      mload(0x40)\n      dup1\n      swap2\n      sub\n      swap1\n      return\n        /* \"contracts/OnChain/EncodeGenerate.sol\":482:2211  function encode(bytes memory data) public pure returns (string memory) {... */\n    tag_5:\n      tag_17\n      0x04\n      dup1\n      calldatasize\n      sub\n      dup2\n      add\n      swap1\n      tag_18\n      swap2\n      swap1\n      tag_19\n      jump\t// in\n    tag_18:\n      tag_20\n      jump\t// in\n    tag_17:\n      mload(0x40)\n      tag_21\n      swap2\n      swap1\n      tag_11\n      jump\t// in\n    tag_21:\n      mload(0x40)\n      dup1\n      swap2\n      sub\n      swap1\n      return\n        /* \"contracts/OnChain/EncodeGenerate.sol\":4509:5763  function GetUrl( string memory deposited, string memory MaturityTime, string memory Persentage, string memory ERC20ContractAddress, string memory NFTContractAddress, string memory ContractName, string memory ContractSymbol, string memory TotalClaim, string memory iUrl) public pure returns (string memory) {... */\n    tag_9:\n        /* \"contracts/OnChain/EncodeGenerate.sol\":4800:4813  string memory */\n      0x60\n        /* \"contracts/OnChain/EncodeGenerate.sol\":4955:5724  encode(... */\n      tag_23\n        /* \"contracts/OnChain/EncodeGenerate.sol\":5075:5079  iUrl */\n      dup3\n        /* \"contracts/OnChain/EncodeGenerate.sol\":5195:5204  deposited */\n      dup12\n        /* \"contracts/OnChain/EncodeGenerate.sol\":5247:5259  MaturityTime */\n      dup12\n        /* \"contracts/OnChain/EncodeGenerate.sol\":5304:5314  Persentage */\n      dup12\n        /* \"contracts/OnChain/EncodeGenerate.sol\":5370:5390  ERC20ContractAddress */\n      dup12\n        /* \"contracts/OnChain/EncodeGenerate.sol\":5443:5461  NFTContractAddress */\n      dup12\n        /* \"contracts/OnChain/EncodeGenerate.sol\":5508:5520  ContractName */\n      dup12\n        /* \"contracts/OnChain/EncodeGenerate.sol\":5570:5584  ContractSymbol */\n      dup12\n        /* \"contracts/OnChain/EncodeGenerate.sol\":5629:5639  TotalClaim */\n      dup12\n        /* \"contracts/OnChain/EncodeGenerate.sol\":5022:5676  abi.encodePacked('{\"name\": \"My Contract\",\"image\": \"',iUrl,'\" ,\"description\": \"This is deposit and withdraw contract\", \"attributes\": [{ \"trait_type\": \"deposited\",\"value\": \"',deposited,'\"},{\"trait_type\": \"maturity\",\"value\": \"',MaturityTime,'\"},{\"trait_type\": \"percentage\",\"value\": \"',Persentage,'\"},{ \"trait_type\": \"ERC20ContractAddress\",\"value\": \"',ERC20ContractAddress,'\"},{\"trait_type\": \"NFTContractAddress\",\"value\": \"',NFTContractAddress,'\"},{\"trait_type\": \"ContractName\",\"value\": \"',ContractName,'\"},{ \"trait_type\": \"ContractSymbol\",\"value\": \"',ContractSymbol,'\"},{\"trait_type\": \"TotalClaim\",\"value\": \"',TotalClaim,'\"}]}'... */\n      add(0x20, mload(0x40))\n      tag_24\n      swap10\n      swap9\n      swap8\n      swap7\n      swap6\n      swap5\n      swap4\n      swap3\n      swap2\n      swap1\n      tag_25\n      jump\t// in\n    tag_24:\n      mload(0x40)\n      0x20\n      dup2\n      dup4\n      sub\n      sub\n      dup2\n      mstore\n      swap1\n      0x40\n      mstore\n        /* \"contracts/OnChain/EncodeGenerate.sol\":4955:4961  encode */\n      tag_20\n        /* \"contracts/OnChain/EncodeGenerate.sol\":4955:5724  encode(... */\n      jump\t// in\n    tag_23:\n        /* \"contracts/OnChain/EncodeGenerate.sol\":4864:5742  abi.encodePacked(... */\n      add(0x20, mload(0x40))\n      tag_26\n      swap2\n      swap1\n      tag_27\n      jump\t// in\n    tag_26:\n      mload(0x40)\n      0x20\n      dup2\n      dup4\n      sub\n      sub\n      dup2\n      mstore\n      swap1\n      0x40\n      mstore\n        /* \"contracts/OnChain/EncodeGenerate.sol\":4833:5756  return string(... */\n      swap1\n      pop\n        /* \"contracts/OnChain/EncodeGenerate.sol\":4509:5763  function GetUrl( string memory deposited, string memory MaturityTime, string memory Persentage, string memory ERC20ContractAddress, string memory NFTContractAddress, string memory ContractName, string memory ContractSymbol, string memory TotalClaim, string memory iUrl) public pure returns (string memory) {... */\n      swap10\n      swap9\n      pop\n      pop\n      pop\n      pop\n      pop\n      pop\n      pop\n      pop\n      pop\n      jump\t// out\n        /* \"contracts/OnChain/EncodeGenerate.sol\":2217:4503  function GetImageUrl( string memory deposited, string memory MaturityTime, string memory Persentage, string memory ERC20ContractAddress, string memory NFTContractAddress, string memory ContractName, string memory ContractSymbol, string memory TotalClaim) public pure returns (string memory) {... */\n    tag_15:\n        /* \"contracts/OnChain/EncodeGenerate.sol\":2493:2506  string memory */\n      0x60\n        /* \"contracts/OnChain/EncodeGenerate.sol\":2518:2534  bytes memory svg */\n      0x00\n        /* \"contracts/OnChain/EncodeGenerate.sol\":3246:3255  deposited */\n      dup10\n        /* \"contracts/OnChain/EncodeGenerate.sol\":3383:3395  MaturityTime */\n      dup10\n        /* \"contracts/OnChain/EncodeGenerate.sol\":3525:3535  Persentage */\n      dup10\n        /* \"contracts/OnChain/EncodeGenerate.sol\":3675:3695  ERC20ContractAddress */\n      dup10\n        /* \"contracts/OnChain/EncodeGenerate.sol\":3833:3851  NFTContractAddress */\n      dup10\n        /* \"contracts/OnChain/EncodeGenerate.sol\":3983:3995  ContractName */\n      dup10\n        /* \"contracts/OnChain/EncodeGenerate.sol\":4129:4143  ContractSymbol */\n      dup10\n        /* \"contracts/OnChain/EncodeGenerate.sol\":4273:4283  TotalClaim */\n      dup10\n        /* \"contracts/OnChain/EncodeGenerate.sol\":2552:4320  abi.encodePacked(... */\n      add(0x20, mload(0x40))\n      tag_29\n      swap9\n      swap8\n      swap7\n      swap6\n      swap5\n      swap4\n      swap3\n      swap2\n      swap1\n      tag_30\n      jump\t// in\n    tag_29:\n      mload(0x40)\n      0x20\n      dup2\n      dup4\n      sub\n      sub\n      dup2\n      mstore\n      swap1\n      0x40\n      mstore\n        /* \"contracts/OnChain/EncodeGenerate.sol\":2518:4320  bytes memory svg =   ... */\n      swap1\n      pop\n        /* \"contracts/OnChain/EncodeGenerate.sol\":4449:4460  encode(svg) */\n      tag_31\n        /* \"contracts/OnChain/EncodeGenerate.sol\":4456:4459  svg */\n      dup2\n        /* \"contracts/OnChain/EncodeGenerate.sol\":4449:4455  encode */\n      tag_20\n        /* \"contracts/OnChain/EncodeGenerate.sol\":4449:4460  encode(svg) */\n      jump\t// in\n    tag_31:\n        /* \"contracts/OnChain/EncodeGenerate.sol\":4361:4478  abi.encodePacked(... */\n      add(0x20, mload(0x40))\n      tag_32\n      swap2\n      swap1\n      tag_33\n      jump\t// in\n    tag_32:\n      mload(0x40)\n      0x20\n      dup2\n      dup4\n      sub\n      sub\n      dup2\n      mstore\n      swap1\n      0x40\n      mstore\n        /* \"contracts/OnChain/EncodeGenerate.sol\":4330:4496  return string(... */\n      swap2\n      pop\n      pop\n        /* \"contracts/OnChain/EncodeGenerate.sol\":2217:4503  function GetImageUrl( string memory deposited, string memory MaturityTime, string memory Persentage, string memory ERC20ContractAddress, string memory NFTContractAddress, string memory ContractName, string memory ContractSymbol, string memory TotalClaim) public pure returns (string memory) {... */\n      swap9\n      swap8\n      pop\n      pop\n      pop\n      pop\n      pop\n      pop\n      pop\n      pop\n      jump\t// out\n        /* \"contracts/OnChain/EncodeGenerate.sol\":482:2211  function encode(bytes memory data) public pure returns (string memory) {... */\n    tag_20:\n        /* \"contracts/OnChain/EncodeGenerate.sol\":538:551  string memory */\n      0x60\n        /* \"contracts/OnChain/EncodeGenerate.sol\":563:574  uint256 len */\n      0x00\n        /* \"contracts/OnChain/EncodeGenerate.sol\":577:581  data */\n      dup3\n        /* \"contracts/OnChain/EncodeGenerate.sol\":577:588  data.length */\n      mload\n        /* \"contracts/OnChain/EncodeGenerate.sol\":563:588  uint256 len = data.length */\n      swap1\n      pop\n        /* \"contracts/OnChain/EncodeGenerate.sol\":609:610  0 */\n      0x00\n        /* \"contracts/OnChain/EncodeGenerate.sol\":602:605  len */\n      dup2\n        /* \"contracts/OnChain/EncodeGenerate.sol\":602:610  len == 0 */\n      eq\n        /* \"contracts/OnChain/EncodeGenerate.sol\":598:621  if (len == 0) return \"\" */\n      iszero\n      tag_35\n      jumpi\n        /* \"contracts/OnChain/EncodeGenerate.sol\":612:621  return \"\" */\n      mload(0x40)\n      dup1\n      0x20\n      add\n      0x40\n      mstore\n      dup1\n      0x00\n      dup2\n      mstore\n      pop\n      swap2\n      pop\n      pop\n      jump(tag_34)\n        /* \"contracts/OnChain/EncodeGenerate.sol\":598:621  if (len == 0) return \"\" */\n    tag_35:\n        /* \"contracts/OnChain/EncodeGenerate.sol\":670:688  uint256 encodedLen */\n      0x00\n        /* \"contracts/OnChain/EncodeGenerate.sol\":708:709  3 */\n      0x03\n        /* \"contracts/OnChain/EncodeGenerate.sol\":703:704  2 */\n      0x02\n        /* \"contracts/OnChain/EncodeGenerate.sol\":697:700  len */\n      dup4\n        /* \"contracts/OnChain/EncodeGenerate.sol\":697:704  len + 2 */\n      tag_36\n      swap2\n      swap1\n      tag_37\n      jump\t// in\n    tag_36:\n        /* \"contracts/OnChain/EncodeGenerate.sol\":696:709  (len + 2) / 3 */\n      tag_38\n      swap2\n      swap1\n      tag_39\n      jump\t// in\n    tag_38:\n        /* \"contracts/OnChain/EncodeGenerate.sol\":691:692  4 */\n      0x04\n        /* \"contracts/OnChain/EncodeGenerate.sol\":691:710  4 * ((len + 2) / 3) */\n      tag_40\n      swap2\n      swap1\n      tag_41\n      jump\t// in\n    tag_40:\n        /* \"contracts/OnChain/EncodeGenerate.sol\":670:710  uint256 encodedLen = 4 * ((len + 2) / 3) */\n      swap1\n      pop\n        /* \"contracts/OnChain/EncodeGenerate.sol\":765:784  bytes memory result */\n      0x00\n        /* \"contracts/OnChain/EncodeGenerate.sol\":810:812  32 */\n      0x20\n        /* \"contracts/OnChain/EncodeGenerate.sol\":797:807  encodedLen */\n      dup3\n        /* \"contracts/OnChain/EncodeGenerate.sol\":797:812  encodedLen + 32 */\n      tag_42\n      swap2\n      swap1\n      tag_37\n      jump\t// in\n    tag_42:\n        /* \"contracts/OnChain/EncodeGenerate.sol\":787:813  new bytes(encodedLen + 32) */\n      0xffffffffffffffff\n      dup2\n      gt\n      iszero\n      tag_43\n      jumpi\n      tag_44\n      tag_45\n      jump\t// in\n    tag_44:\n    tag_43:\n      mload(0x40)\n      swap1\n      dup1\n      dup3\n      mstore\n      dup1\n      0x1f\n      add\n      not(0x1f)\n      and\n      0x20\n      add\n      dup3\n      add\n      0x40\n      mstore\n      dup1\n      iszero\n      tag_46\n      jumpi\n      dup2\n      0x20\n      add\n      0x01\n      dup3\n      mul\n      dup1\n      calldatasize\n      dup4\n      calldatacopy\n      dup1\n      dup3\n      add\n      swap2\n      pop\n      pop\n      swap1\n      pop\n    tag_46:\n      pop\n        /* \"contracts/OnChain/EncodeGenerate.sol\":765:813  bytes memory result = new bytes(encodedLen + 32) */\n      swap1\n      pop\n        /* \"contracts/OnChain/EncodeGenerate.sol\":824:842  bytes memory table */\n      0x00\n        /* \"contracts/OnChain/EncodeGenerate.sol\":845:850  TABLE */\n      mload(0x40)\n      dup1\n      0x60\n      add\n      0x40\n      mstore\n      dup1\n      0x40\n      dup2\n      mstore\n      0x20\n      add\n      data_84d8a590de33e00cbdc16e1f28c3506f5ec15c599fab9a6a4bcd575cc2f110ce\n      0x40\n      swap2\n      codecopy\n        /* \"contracts/OnChain/EncodeGenerate.sol\":824:850  bytes memory table = TABLE */\n      swap1\n      pop\n        /* \"contracts/OnChain/EncodeGenerate.sol\":911:912  1 */\n      0x01\n        /* \"contracts/OnChain/EncodeGenerate.sol\":904:909  table */\n      dup2\n        /* \"contracts/OnChain/EncodeGenerate.sol\":900:913  add(table, 1) */\n      add\n        /* \"contracts/OnChain/EncodeGenerate.sol\":955:957  32 */\n      0x20\n        /* \"contracts/OnChain/EncodeGenerate.sol\":947:953  result */\n      dup4\n        /* \"contracts/OnChain/EncodeGenerate.sol\":943:958  add(result, 32) */\n      add\n        /* \"contracts/OnChain/EncodeGenerate.sol\":1003:1004  0 */\n      0x00\n        /* \"contracts/OnChain/EncodeGenerate.sol\":972:1903  for {... */\n    tag_47:\n        /* \"contracts/OnChain/EncodeGenerate.sol\":1025:1028  len */\n      dup7\n        /* \"contracts/OnChain/EncodeGenerate.sol\":1022:1023  i */\n      dup2\n        /* \"contracts/OnChain/EncodeGenerate.sol\":1019:1029  lt(i, len) */\n      lt\n        /* \"contracts/OnChain/EncodeGenerate.sol\":972:1903  for {... */\n      iszero\n      tag_49\n      jumpi\n        /* \"contracts/OnChain/EncodeGenerate.sol\":1077:1078  3 */\n      0x03\n        /* \"contracts/OnChain/EncodeGenerate.sol\":1074:1075  i */\n      dup2\n        /* \"contracts/OnChain/EncodeGenerate.sol\":1070:1079  add(i, 3) */\n      add\n        /* \"contracts/OnChain/EncodeGenerate.sol\":1065:1079  i := add(i, 3) */\n      swap1\n      pop\n        /* \"contracts/OnChain/EncodeGenerate.sol\":1134:1142  0xffffff */\n      0xffffff\n        /* \"contracts/OnChain/EncodeGenerate.sol\":1129:1130  i */\n      dup2\n        /* \"contracts/OnChain/EncodeGenerate.sol\":1123:1127  data */\n      dup11\n        /* \"contracts/OnChain/EncodeGenerate.sol\":1119:1131  add(data, i) */\n      add\n        /* \"contracts/OnChain/EncodeGenerate.sol\":1113:1132  mload(add(data, i)) */\n      mload\n        /* \"contracts/OnChain/EncodeGenerate.sol\":1109:1143  and(mload(add(data, i)), 0xffffff) */\n      and\n        /* \"contracts/OnChain/EncodeGenerate.sol\":1212:1216  0x3F */\n      0x3f\n        /* \"contracts/OnChain/EncodeGenerate.sol\":1204:1209  input */\n      dup2\n        /* \"contracts/OnChain/EncodeGenerate.sol\":1200:1202  18 */\n      0x12\n        /* \"contracts/OnChain/EncodeGenerate.sol\":1196:1210  shr(18, input) */\n      shr\n        /* \"contracts/OnChain/EncodeGenerate.sol\":1192:1217  and(shr(18, input), 0x3F) */\n      and\n        /* \"contracts/OnChain/EncodeGenerate.sol\":1182:1190  tablePtr */\n      dup5\n        /* \"contracts/OnChain/EncodeGenerate.sol\":1178:1218  add(tablePtr, and(shr(18, input), 0x3F)) */\n      add\n        /* \"contracts/OnChain/EncodeGenerate.sol\":1172:1219  mload(add(tablePtr, and(shr(18, input), 0x3F))) */\n      mload\n        /* \"contracts/OnChain/EncodeGenerate.sol\":1250:1253  out */\n      dup1\n        /* \"contracts/OnChain/EncodeGenerate.sol\":1247:1248  8 */\n      0x08\n        /* \"contracts/OnChain/EncodeGenerate.sol\":1243:1254  shl(8, out) */\n      shl\n        /* \"contracts/OnChain/EncodeGenerate.sol\":1236:1254  out := shl(8, out) */\n      swap1\n      pop\n        /* \"contracts/OnChain/EncodeGenerate.sol\":1381:1385  0xFF */\n      0xff\n        /* \"contracts/OnChain/EncodeGenerate.sol\":1372:1376  0x3F */\n      0x3f\n        /* \"contracts/OnChain/EncodeGenerate.sol\":1364:1369  input */\n      dup4\n        /* \"contracts/OnChain/EncodeGenerate.sol\":1360:1362  12 */\n      0x0c\n        /* \"contracts/OnChain/EncodeGenerate.sol\":1356:1370  shr(12, input) */\n      shr\n        /* \"contracts/OnChain/EncodeGenerate.sol\":1352:1377  and(shr(12, input), 0x3F) */\n      and\n        /* \"contracts/OnChain/EncodeGenerate.sol\":1342:1350  tablePtr */\n      dup7\n        /* \"contracts/OnChain/EncodeGenerate.sol\":1338:1378  add(tablePtr, and(shr(12, input), 0x3F)) */\n      add\n        /* \"contracts/OnChain/EncodeGenerate.sol\":1332:1379  mload(add(tablePtr, and(shr(12, input), 0x3F))) */\n      mload\n        /* \"contracts/OnChain/EncodeGenerate.sol\":1328:1386  and(mload(add(tablePtr, and(shr(12, input), 0x3F))), 0xFF) */\n      and\n        /* \"contracts/OnChain/EncodeGenerate.sol\":1303:1306  out */\n      dup2\n        /* \"contracts/OnChain/EncodeGenerate.sol\":1278:1404  add(... */\n      add\n        /* \"contracts/OnChain/EncodeGenerate.sol\":1271:1404  out := add(... */\n      swap1\n      pop\n        /* \"contracts/OnChain/EncodeGenerate.sol\":1435:1438  out */\n      dup1\n        /* \"contracts/OnChain/EncodeGenerate.sol\":1432:1433  8 */\n      0x08\n        /* \"contracts/OnChain/EncodeGenerate.sol\":1428:1439  shl(8, out) */\n      shl\n        /* \"contracts/OnChain/EncodeGenerate.sol\":1421:1439  out := shl(8, out) */\n      swap1\n      pop\n        /* \"contracts/OnChain/EncodeGenerate.sol\":1565:1569  0xFF */\n      0xff\n        /* \"contracts/OnChain/EncodeGenerate.sol\":1556:1560  0x3F */\n      0x3f\n        /* \"contracts/OnChain/EncodeGenerate.sol\":1548:1553  input */\n      dup4\n        /* \"contracts/OnChain/EncodeGenerate.sol\":1545:1546  6 */\n      0x06\n        /* \"contracts/OnChain/EncodeGenerate.sol\":1541:1554  shr(6, input) */\n      shr\n        /* \"contracts/OnChain/EncodeGenerate.sol\":1537:1561  and(shr(6, input), 0x3F) */\n      and\n        /* \"contracts/OnChain/EncodeGenerate.sol\":1527:1535  tablePtr */\n      dup7\n        /* \"contracts/OnChain/EncodeGenerate.sol\":1523:1562  add(tablePtr, and(shr(6, input), 0x3F)) */\n      add\n        /* \"contracts/OnChain/EncodeGenerate.sol\":1517:1563  mload(add(tablePtr, and(shr(6, input), 0x3F))) */\n      mload\n        /* \"contracts/OnChain/EncodeGenerate.sol\":1513:1570  and(mload(add(tablePtr, and(shr(6, input), 0x3F))), 0xFF) */\n      and\n        /* \"contracts/OnChain/EncodeGenerate.sol\":1488:1491  out */\n      dup2\n        /* \"contracts/OnChain/EncodeGenerate.sol\":1463:1588  add(... */\n      add\n        /* \"contracts/OnChain/EncodeGenerate.sol\":1456:1588  out := add(... */\n      swap1\n      pop\n        /* \"contracts/OnChain/EncodeGenerate.sol\":1619:1622  out */\n      dup1\n        /* \"contracts/OnChain/EncodeGenerate.sol\":1616:1617  8 */\n      0x08\n        /* \"contracts/OnChain/EncodeGenerate.sol\":1612:1623  shl(8, out) */\n      shl\n        /* \"contracts/OnChain/EncodeGenerate.sol\":1605:1623  out := shl(8, out) */\n      swap1\n      pop\n        /* \"contracts/OnChain/EncodeGenerate.sol\":1741:1745  0xFF */\n      0xff\n        /* \"contracts/OnChain/EncodeGenerate.sol\":1732:1736  0x3F */\n      0x3f\n        /* \"contracts/OnChain/EncodeGenerate.sol\":1725:1730  input */\n      dup4\n        /* \"contracts/OnChain/EncodeGenerate.sol\":1721:1737  and(input, 0x3F) */\n      and\n        /* \"contracts/OnChain/EncodeGenerate.sol\":1711:1719  tablePtr */\n      dup7\n        /* \"contracts/OnChain/EncodeGenerate.sol\":1707:1738  add(tablePtr, and(input, 0x3F)) */\n      add\n        /* \"contracts/OnChain/EncodeGenerate.sol\":1701:1739  mload(add(tablePtr, and(input, 0x3F))) */\n      mload\n        /* \"contracts/OnChain/EncodeGenerate.sol\":1697:1746  and(mload(add(tablePtr, and(input, 0x3F))), 0xFF) */\n      and\n        /* \"contracts/OnChain/EncodeGenerate.sol\":1672:1675  out */\n      dup2\n        /* \"contracts/OnChain/EncodeGenerate.sol\":1647:1764  add(... */\n      add\n        /* \"contracts/OnChain/EncodeGenerate.sol\":1640:1764  out := add(... */\n      swap1\n      pop\n        /* \"contracts/OnChain/EncodeGenerate.sol\":1797:1800  out */\n      dup1\n        /* \"contracts/OnChain/EncodeGenerate.sol\":1792:1795  224 */\n      0xe0\n        /* \"contracts/OnChain/EncodeGenerate.sol\":1788:1801  shl(224, out) */\n      shl\n        /* \"contracts/OnChain/EncodeGenerate.sol\":1781:1801  out := shl(224, out) */\n      swap1\n      pop\n        /* \"contracts/OnChain/EncodeGenerate.sol\":1837:1840  out */\n      dup1\n        /* \"contracts/OnChain/EncodeGenerate.sol\":1826:1835  resultPtr */\n      dup5\n        /* \"contracts/OnChain/EncodeGenerate.sol\":1819:1841  mstore(resultPtr, out) */\n      mstore\n        /* \"contracts/OnChain/EncodeGenerate.sol\":1887:1888  4 */\n      0x04\n        /* \"contracts/OnChain/EncodeGenerate.sol\":1876:1885  resultPtr */\n      dup5\n        /* \"contracts/OnChain/EncodeGenerate.sol\":1872:1889  add(resultPtr, 4) */\n      add\n        /* \"contracts/OnChain/EncodeGenerate.sol\":1859:1889  resultPtr := add(resultPtr, 4) */\n      swap4\n      pop\n        /* \"contracts/OnChain/EncodeGenerate.sol\":1047:1903  {... */\n      pop\n      pop\n        /* \"contracts/OnChain/EncodeGenerate.sol\":972:1903  for {... */\n      jump(tag_47)\n    tag_49:\n        /* \"contracts/OnChain/EncodeGenerate.sol\":976:1018  {... */\n      pop\n        /* \"contracts/OnChain/EncodeGenerate.sol\":1933:1934  3 */\n      0x03\n        /* \"contracts/OnChain/EncodeGenerate.sol\":1928:1931  len */\n      dup7\n        /* \"contracts/OnChain/EncodeGenerate.sol\":1924:1935  mod(len, 3) */\n      mod\n        /* \"contracts/OnChain/EncodeGenerate.sol\":1953:1954  1 */\n      0x01\n        /* \"contracts/OnChain/EncodeGenerate.sol\":1948:2030  case 1 {... */\n      dup2\n      eq\n      tag_51\n      jumpi\n        /* \"contracts/OnChain/EncodeGenerate.sol\":2048:2049  2 */\n      0x02\n        /* \"contracts/OnChain/EncodeGenerate.sol\":2043:2123  case 2 {... */\n      dup2\n      eq\n      tag_52\n      jumpi\n        /* \"contracts/OnChain/EncodeGenerate.sol\":1917:2123  switch mod(len, 3)... */\n      jump(tag_50)\n        /* \"contracts/OnChain/EncodeGenerate.sol\":1948:2030  case 1 {... */\n    tag_51:\n        /* \"contracts/OnChain/EncodeGenerate.sol\":2008:2014  0x3d3d */\n      0x3d3d\n        /* \"contracts/OnChain/EncodeGenerate.sol\":2003:2006  240 */\n      0xf0\n        /* \"contracts/OnChain/EncodeGenerate.sol\":1999:2015  shl(240, 0x3d3d) */\n      shl\n        /* \"contracts/OnChain/EncodeGenerate.sol\":1995:1996  2 */\n      0x02\n        /* \"contracts/OnChain/EncodeGenerate.sol\":1984:1993  resultPtr */\n      dup4\n        /* \"contracts/OnChain/EncodeGenerate.sol\":1980:1997  sub(resultPtr, 2) */\n      sub\n        /* \"contracts/OnChain/EncodeGenerate.sol\":1973:2016  mstore(sub(resultPtr, 2), shl(240, 0x3d3d)) */\n      mstore\n        /* \"contracts/OnChain/EncodeGenerate.sol\":1948:2030  case 1 {... */\n      jump(tag_50)\n        /* \"contracts/OnChain/EncodeGenerate.sol\":2043:2123  case 2 {... */\n    tag_52:\n        /* \"contracts/OnChain/EncodeGenerate.sol\":2103:2107  0x3d */\n      0x3d\n        /* \"contracts/OnChain/EncodeGenerate.sol\":2098:2101  248 */\n      0xf8\n        /* \"contracts/OnChain/EncodeGenerate.sol\":2094:2108  shl(248, 0x3d) */\n      shl\n        /* \"contracts/OnChain/EncodeGenerate.sol\":2090:2091  1 */\n      0x01\n        /* \"contracts/OnChain/EncodeGenerate.sol\":2079:2088  resultPtr */\n      dup4\n        /* \"contracts/OnChain/EncodeGenerate.sol\":2075:2092  sub(resultPtr, 1) */\n      sub\n        /* \"contracts/OnChain/EncodeGenerate.sol\":2068:2109  mstore(sub(resultPtr, 1), shl(248, 0x3d)) */\n      mstore\n        /* \"contracts/OnChain/EncodeGenerate.sol\":1917:2123  switch mod(len, 3)... */\n    tag_50:\n      pop\n        /* \"contracts/OnChain/EncodeGenerate.sol\":2152:2162  encodedLen */\n      dup5\n        /* \"contracts/OnChain/EncodeGenerate.sol\":2144:2150  result */\n      dup5\n        /* \"contracts/OnChain/EncodeGenerate.sol\":2137:2163  mstore(result, encodedLen) */\n      mstore\n        /* \"contracts/OnChain/EncodeGenerate.sol\":870:2173  {... */\n      pop\n      pop\n        /* \"contracts/OnChain/EncodeGenerate.sol\":2197:2203  result */\n      dup2\n        /* \"contracts/OnChain/EncodeGenerate.sol\":2183:2204  return string(result) */\n      swap5\n      pop\n      pop\n      pop\n      pop\n      pop\n        /* \"contracts/OnChain/EncodeGenerate.sol\":482:2211  function encode(bytes memory data) public pure returns (string memory) {... */\n    tag_34:\n      swap2\n      swap1\n      pop\n      jump\t// out\n        /* \"#utility.yul\":7:417   */\n    tag_54:\n        /* \"#utility.yul\":84:89   */\n      0x00\n        /* \"#utility.yul\":109:174   */\n      tag_56\n        /* \"#utility.yul\":125:173   */\n      tag_57\n        /* \"#utility.yul\":166:172   */\n      dup5\n        /* \"#utility.yul\":125:173   */\n      tag_58\n      jump\t// in\n    tag_57:\n        /* \"#utility.yul\":109:174   */\n      tag_59\n      jump\t// in\n    tag_56:\n        /* \"#utility.yul\":100:174   */\n      swap1\n      pop\n        /* \"#utility.yul\":197:203   */\n      dup3\n        /* \"#utility.yul\":190:195   */\n      dup2\n        /* \"#utility.yul\":183:204   */\n      mstore\n        /* \"#utility.yul\":235:239   */\n      0x20\n        /* \"#utility.yul\":228:233   */\n      dup2\n        /* \"#utility.yul\":224:240   */\n      add\n        /* \"#utility.yul\":273:276   */\n      dup5\n        /* \"#utility.yul\":264:270   */\n      dup5\n        /* \"#utility.yul\":259:262   */\n      dup5\n        /* \"#utility.yul\":255:271   */\n      add\n        /* \"#utility.yul\":252:277   */\n      gt\n        /* \"#utility.yul\":249:361   */\n      iszero\n      tag_60\n      jumpi\n        /* \"#utility.yul\":280:359   */\n      tag_61\n      tag_62\n      jump\t// in\n    tag_61:\n        /* \"#utility.yul\":249:361   */\n    tag_60:\n        /* \"#utility.yul\":370:411   */\n      tag_63\n        /* \"#utility.yul\":404:410   */\n      dup5\n        /* \"#utility.yul\":399:402   */\n      dup3\n        /* \"#utility.yul\":394:397   */\n      dup6\n        /* \"#utility.yul\":370:411   */\n      tag_64\n      jump\t// in\n    tag_63:\n        /* \"#utility.yul\":90:417   */\n      pop\n        /* \"#utility.yul\":7:417   */\n      swap4\n      swap3\n      pop\n      pop\n      pop\n      jump\t// out\n        /* \"#utility.yul\":423:835   */\n    tag_65:\n        /* \"#utility.yul\":501:506   */\n      0x00\n        /* \"#utility.yul\":526:592   */\n      tag_67\n        /* \"#utility.yul\":542:591   */\n      tag_68\n        /* \"#utility.yul\":584:590   */\n      dup5\n        /* \"#utility.yul\":542:591   */\n      tag_69\n      jump\t// in\n    tag_68:\n        /* \"#utility.yul\":526:592   */\n      tag_59\n      jump\t// in\n    tag_67:\n        /* \"#utility.yul\":517:592   */\n      swap1\n      pop\n        /* \"#utility.yul\":615:621   */\n      dup3\n        /* \"#utility.yul\":608:613   */\n      dup2\n        /* \"#utility.yul\":601:622   */\n      mstore\n        /* \"#utility.yul\":653:657   */\n      0x20\n        /* \"#utility.yul\":646:651   */\n      dup2\n        /* \"#utility.yul\":642:658   */\n      add\n        /* \"#utility.yul\":691:694   */\n      dup5\n        /* \"#utility.yul\":682:688   */\n      dup5\n        /* \"#utility.yul\":677:680   */\n      dup5\n        /* \"#utility.yul\":673:689   */\n      add\n        /* \"#utility.yul\":670:695   */\n      gt\n        /* \"#utility.yul\":667:779   */\n      iszero\n      tag_70\n      jumpi\n        /* \"#utility.yul\":698:777   */\n      tag_71\n      tag_62\n      jump\t// in\n    tag_71:\n        /* \"#utility.yul\":667:779   */\n    tag_70:\n        /* \"#utility.yul\":788:829   */\n      tag_72\n        /* \"#utility.yul\":822:828   */\n      dup5\n        /* \"#utility.yul\":817:820   */\n      dup3\n        /* \"#utility.yul\":812:815   */\n      dup6\n        /* \"#utility.yul\":788:829   */\n      tag_64\n      jump\t// in\n    tag_72:\n        /* \"#utility.yul\":507:835   */\n      pop\n        /* \"#utility.yul\":423:835   */\n      swap4\n      swap3\n      pop\n      pop\n      pop\n      jump\t// out\n        /* \"#utility.yul\":854:1192   */\n    tag_73:\n        /* \"#utility.yul\":909:914   */\n      0x00\n        /* \"#utility.yul\":958:961   */\n      dup3\n        /* \"#utility.yul\":951:955   */\n      0x1f\n        /* \"#utility.yul\":943:949   */\n      dup4\n        /* \"#utility.yul\":939:956   */\n      add\n        /* \"#utility.yul\":935:962   */\n      slt\n        /* \"#utility.yul\":925:1047   */\n      tag_75\n      jumpi\n        /* \"#utility.yul\":966:1045   */\n      tag_76\n      tag_77\n      jump\t// in\n    tag_76:\n        /* \"#utility.yul\":925:1047   */\n    tag_75:\n        /* \"#utility.yul\":1083:1089   */\n      dup2\n        /* \"#utility.yul\":1070:1090   */\n      calldataload\n        /* \"#utility.yul\":1108:1186   */\n      tag_78\n        /* \"#utility.yul\":1182:1185   */\n      dup5\n        /* \"#utility.yul\":1174:1180   */\n      dup3\n        /* \"#utility.yul\":1167:1171   */\n      0x20\n        /* \"#utility.yul\":1159:1165   */\n      dup7\n        /* \"#utility.yul\":1155:1172   */\n      add\n        /* \"#utility.yul\":1108:1186   */\n      tag_54\n      jump\t// in\n    tag_78:\n        /* \"#utility.yul\":1099:1186   */\n      swap2\n      pop\n        /* \"#utility.yul\":915:1192   */\n      pop\n        /* \"#utility.yul\":854:1192   */\n      swap3\n      swap2\n      pop\n      pop\n      jump\t// out\n        /* \"#utility.yul\":1212:1552   */\n    tag_79:\n        /* \"#utility.yul\":1268:1273   */\n      0x00\n        /* \"#utility.yul\":1317:1320   */\n      dup3\n        /* \"#utility.yul\":1310:1314   */\n      0x1f\n        /* \"#utility.yul\":1302:1308   */\n      dup4\n        /* \"#utility.yul\":1298:1315   */\n      add\n        /* \"#utility.yul\":1294:1321   */\n      slt\n        /* \"#utility.yul\":1284:1406   */\n      tag_81\n      jumpi\n        /* \"#utility.yul\":1325:1404   */\n      tag_82\n      tag_77\n      jump\t// in\n    tag_82:\n        /* \"#utility.yul\":1284:1406   */\n    tag_81:\n        /* \"#utility.yul\":1442:1448   */\n      dup2\n        /* \"#utility.yul\":1429:1449   */\n      calldataload\n        /* \"#utility.yul\":1467:1546   */\n      tag_83\n        /* \"#utility.yul\":1542:1545   */\n      dup5\n        /* \"#utility.yul\":1534:1540   */\n      dup3\n        /* \"#utility.yul\":1527:1531   */\n      0x20\n        /* \"#utility.yul\":1519:1525   */\n      dup7\n        /* \"#utility.yul\":1515:1532   */\n      add\n        /* \"#utility.yul\":1467:1546   */\n      tag_65\n      jump\t// in\n    tag_83:\n        /* \"#utility.yul\":1458:1546   */\n      swap2\n      pop\n        /* \"#utility.yul\":1274:1552   */\n      pop\n        /* \"#utility.yul\":1212:1552   */\n      swap3\n      swap2\n      pop\n      pop\n      jump\t// out\n        /* \"#utility.yul\":1558:2065   */\n    tag_19:\n        /* \"#utility.yul\":1626:1632   */\n      0x00\n        /* \"#utility.yul\":1675:1677   */\n      0x20\n        /* \"#utility.yul\":1663:1672   */\n      dup3\n        /* \"#utility.yul\":1654:1661   */\n      dup5\n        /* \"#utility.yul\":1650:1673   */\n      sub\n        /* \"#utility.yul\":1646:1678   */\n      slt\n        /* \"#utility.yul\":1643:1762   */\n      iszero\n      tag_85\n      jumpi\n        /* \"#utility.yul\":1681:1760   */\n      tag_86\n      tag_87\n      jump\t// in\n    tag_86:\n        /* \"#utility.yul\":1643:1762   */\n    tag_85:\n        /* \"#utility.yul\":1829:1830   */\n      0x00\n        /* \"#utility.yul\":1818:1827   */\n      dup3\n        /* \"#utility.yul\":1814:1831   */\n      add\n        /* \"#utility.yul\":1801:1832   */\n      calldataload\n        /* \"#utility.yul\":1859:1877   */\n      0xffffffffffffffff\n        /* \"#utility.yul\":1851:1857   */\n      dup2\n        /* \"#utility.yul\":1848:1878   */\n      gt\n        /* \"#utility.yul\":1845:1962   */\n      iszero\n      tag_88\n      jumpi\n        /* \"#utility.yul\":1881:1960   */\n      tag_89\n      tag_90\n      jump\t// in\n    tag_89:\n        /* \"#utility.yul\":1845:1962   */\n    tag_88:\n        /* \"#utility.yul\":1986:2048   */\n      tag_91\n        /* \"#utility.yul\":2040:2047   */\n      dup5\n        /* \"#utility.yul\":2031:2037   */\n      dup3\n        /* \"#utility.yul\":2020:2029   */\n      dup6\n        /* \"#utility.yul\":2016:2038   */\n      add\n        /* \"#utility.yul\":1986:2048   */\n      tag_73\n      jump\t// in\n    tag_91:\n        /* \"#utility.yul\":1976:2048   */\n      swap2\n      pop\n        /* \"#utility.yul\":1772:2058   */\n      pop\n        /* \"#utility.yul\":1558:2065   */\n      swap3\n      swap2\n      pop\n      pop\n      jump\t// out\n        /* \"#utility.yul\":2071:4860   */\n    tag_14:\n        /* \"#utility.yul\":2273:2279   */\n      0x00\n        /* \"#utility.yul\":2281:2287   */\n      dup1\n        /* \"#utility.yul\":2289:2295   */\n      0x00\n        /* \"#utility.yul\":2297:2303   */\n      dup1\n        /* \"#utility.yul\":2305:2311   */\n      0x00\n        /* \"#utility.yul\":2313:2319   */\n      dup1\n        /* \"#utility.yul\":2321:2327   */\n      0x00\n        /* \"#utility.yul\":2329:2335   */\n      dup1\n        /* \"#utility.yul\":2378:2381   */\n      0x0100\n        /* \"#utility.yul\":2366:2375   */\n      dup10\n        /* \"#utility.yul\":2357:2364   */\n      dup12\n        /* \"#utility.yul\":2353:2376   */\n      sub\n        /* \"#utility.yul\":2349:2382   */\n      slt\n        /* \"#utility.yul\":2346:2466   */\n      iszero\n      tag_93\n      jumpi\n        /* \"#utility.yul\":2385:2464   */\n      tag_94\n      tag_87\n      jump\t// in\n    tag_94:\n        /* \"#utility.yul\":2346:2466   */\n    tag_93:\n        /* \"#utility.yul\":2533:2534   */\n      0x00\n        /* \"#utility.yul\":2522:2531   */\n      dup10\n        /* \"#utility.yul\":2518:2535   */\n      add\n        /* \"#utility.yul\":2505:2536   */\n      calldataload\n        /* \"#utility.yul\":2563:2581   */\n      0xffffffffffffffff\n        /* \"#utility.yul\":2555:2561   */\n      dup2\n        /* \"#utility.yul\":2552:2582   */\n      gt\n        /* \"#utility.yul\":2549:2666   */\n      iszero\n      tag_95\n      jumpi\n        /* \"#utility.yul\":2585:2664   */\n      tag_96\n      tag_90\n      jump\t// in\n    tag_96:\n        /* \"#utility.yul\":2549:2666   */\n    tag_95:\n        /* \"#utility.yul\":2690:2753   */\n      tag_97\n        /* \"#utility.yul\":2745:2752   */\n      dup12\n        /* \"#utility.yul\":2736:2742   */\n      dup3\n        /* \"#utility.yul\":2725:2734   */\n      dup13\n        /* \"#utility.yul\":2721:2743   */\n      add\n        /* \"#utility.yul\":2690:2753   */\n      tag_79\n      jump\t// in\n    tag_97:\n        /* \"#utility.yul\":2680:2753   */\n      swap9\n      pop\n        /* \"#utility.yul\":2476:2763   */\n      pop\n        /* \"#utility.yul\":2830:2832   */\n      0x20\n        /* \"#utility.yul\":2819:2828   */\n      dup10\n        /* \"#utility.yul\":2815:2833   */\n      add\n        /* \"#utility.yul\":2802:2834   */\n      calldataload\n        /* \"#utility.yul\":2861:2879   */\n      0xffffffffffffffff\n        /* \"#utility.yul\":2853:2859   */\n      dup2\n        /* \"#utility.yul\":2850:2880   */\n      gt\n        /* \"#utility.yul\":2847:2964   */\n      iszero\n      tag_98\n      jumpi\n        /* \"#utility.yul\":2883:2962   */\n      tag_99\n      tag_90\n      jump\t// in\n    tag_99:\n        /* \"#utility.yul\":2847:2964   */\n    tag_98:\n        /* \"#utility.yul\":2988:3051   */\n      tag_100\n        /* \"#utility.yul\":3043:3050   */\n      dup12\n        /* \"#utility.yul\":3034:3040   */\n      dup3\n        /* \"#utility.yul\":3023:3032   */\n      dup13\n        /* \"#utility.yul\":3019:3041   */\n      add\n        /* \"#utility.yul\":2988:3051   */\n      tag_79\n      jump\t// in\n    tag_100:\n        /* \"#utility.yul\":2978:3051   */\n      swap8\n      pop\n        /* \"#utility.yul\":2773:3061   */\n      pop\n        /* \"#utility.yul\":3128:3130   */\n      0x40\n        /* \"#utility.yul\":3117:3126   */\n      dup10\n        /* \"#utility.yul\":3113:3131   */\n      add\n        /* \"#utility.yul\":3100:3132   */\n      calldataload\n        /* \"#utility.yul\":3159:3177   */\n      0xffffffffffffffff\n        /* \"#utility.yul\":3151:3157   */\n      dup2\n        /* \"#utility.yul\":3148:3178   */\n      gt\n        /* \"#utility.yul\":3145:3262   */\n      iszero\n      tag_101\n      jumpi\n        /* \"#utility.yul\":3181:3260   */\n      tag_102\n      tag_90\n      jump\t// in\n    tag_102:\n        /* \"#utility.yul\":3145:3262   */\n    tag_101:\n        /* \"#utility.yul\":3286:3349   */\n      tag_103\n        /* \"#utility.yul\":3341:3348   */\n      dup12\n        /* \"#utility.yul\":3332:3338   */\n      dup3\n        /* \"#utility.yul\":3321:3330   */\n      dup13\n        /* \"#utility.yul\":3317:3339   */\n      add\n        /* \"#utility.yul\":3286:3349   */\n      tag_79\n      jump\t// in\n    tag_103:\n        /* \"#utility.yul\":3276:3349   */\n      swap7\n      pop\n        /* \"#utility.yul\":3071:3359   */\n      pop\n        /* \"#utility.yul\":3426:3428   */\n      0x60\n        /* \"#utility.yul\":3415:3424   */\n      dup10\n        /* \"#utility.yul\":3411:3429   */\n      add\n        /* \"#utility.yul\":3398:3430   */\n      calldataload\n        /* \"#utility.yul\":3457:3475   */\n      0xffffffffffffffff\n        /* \"#utility.yul\":3449:3455   */\n      dup2\n        /* \"#utility.yul\":3446:3476   */\n      gt\n        /* \"#utility.yul\":3443:3560   */\n      iszero\n      tag_104\n      jumpi\n        /* \"#utility.yul\":3479:3558   */\n      tag_105\n      tag_90\n      jump\t// in\n    tag_105:\n        /* \"#utility.yul\":3443:3560   */\n    tag_104:\n        /* \"#utility.yul\":3584:3647   */\n      tag_106\n        /* \"#utility.yul\":3639:3646   */\n      dup12\n        /* \"#utility.yul\":3630:3636   */\n      dup3\n        /* \"#utility.yul\":3619:3628   */\n      dup13\n        /* \"#utility.yul\":3615:3637   */\n      add\n        /* \"#utility.yul\":3584:3647   */\n      tag_79\n      jump\t// in\n    tag_106:\n        /* \"#utility.yul\":3574:3647   */\n      swap6\n      pop\n        /* \"#utility.yul\":3369:3657   */\n      pop\n        /* \"#utility.yul\":3724:3727   */\n      0x80\n        /* \"#utility.yul\":3713:3722   */\n      dup10\n        /* \"#utility.yul\":3709:3728   */\n      add\n        /* \"#utility.yul\":3696:3729   */\n      calldataload\n        /* \"#utility.yul\":3756:3774   */\n      0xffffffffffffffff\n        /* \"#utility.yul\":3748:3754   */\n      dup2\n        /* \"#utility.yul\":3745:3775   */\n      gt\n        /* \"#utility.yul\":3742:3859   */\n      iszero\n      tag_107\n      jumpi\n        /* \"#utility.yul\":3778:3857   */\n      tag_108\n      tag_90\n      jump\t// in\n    tag_108:\n        /* \"#utility.yul\":3742:3859   */\n    tag_107:\n        /* \"#utility.yul\":3883:3946   */\n      tag_109\n        /* \"#utility.yul\":3938:3945   */\n      dup12\n        /* \"#utility.yul\":3929:3935   */\n      dup3\n        /* \"#utility.yul\":3918:3927   */\n      dup13\n        /* \"#utility.yul\":3914:3936   */\n      add\n        /* \"#utility.yul\":3883:3946   */\n      tag_79\n      jump\t// in\n    tag_109:\n        /* \"#utility.yul\":3873:3946   */\n      swap5\n      pop\n        /* \"#utility.yul\":3667:3956   */\n      pop\n        /* \"#utility.yul\":4023:4026   */\n      0xa0\n        /* \"#utility.yul\":4012:4021   */\n      dup10\n        /* \"#utility.yul\":4008:4027   */\n      add\n        /* \"#utility.yul\":3995:4028   */\n      calldataload\n        /* \"#utility.yul\":4055:4073   */\n      0xffffffffffffffff\n        /* \"#utility.yul\":4047:4053   */\n      dup2\n        /* \"#utility.yul\":4044:4074   */\n      gt\n        /* \"#utility.yul\":4041:4158   */\n      iszero\n      tag_110\n      jumpi\n        /* \"#utility.yul\":4077:4156   */\n      tag_111\n      tag_90\n      jump\t// in\n    tag_111:\n        /* \"#utility.yul\":4041:4158   */\n    tag_110:\n        /* \"#utility.yul\":4182:4245   */\n      tag_112\n        /* \"#utility.yul\":4237:4244   */\n      dup12\n        /* \"#utility.yul\":4228:4234   */\n      dup3\n        /* \"#utility.yul\":4217:4226   */\n      dup13\n        /* \"#utility.yul\":4213:4235   */\n      add\n        /* \"#utility.yul\":4182:4245   */\n      tag_79\n      jump\t// in\n    tag_112:\n        /* \"#utility.yul\":4172:4245   */\n      swap4\n      pop\n        /* \"#utility.yul\":3966:4255   */\n      pop\n        /* \"#utility.yul\":4322:4325   */\n      0xc0\n        /* \"#utility.yul\":4311:4320   */\n      dup10\n        /* \"#utility.yul\":4307:4326   */\n      add\n        /* \"#utility.yul\":4294:4327   */\n      calldataload\n        /* \"#utility.yul\":4354:4372   */\n      0xffffffffffffffff\n        /* \"#utility.yul\":4346:4352   */\n      dup2\n        /* \"#utility.yul\":4343:4373   */\n      gt\n        /* \"#utility.yul\":4340:4457   */\n      iszero\n      tag_113\n      jumpi\n        /* \"#utility.yul\":4376:4455   */\n      tag_114\n      tag_90\n      jump\t// in\n    tag_114:\n        /* \"#utility.yul\":4340:4457   */\n    tag_113:\n        /* \"#utility.yul\":4481:4544   */\n      tag_115\n        /* \"#utility.yul\":4536:4543   */\n      dup12\n        /* \"#utility.yul\":4527:4533   */\n      dup3\n        /* \"#utility.yul\":4516:4525   */\n      dup13\n        /* \"#utility.yul\":4512:4534   */\n      add\n        /* \"#utility.yul\":4481:4544   */\n      tag_79\n      jump\t// in\n    tag_115:\n        /* \"#utility.yul\":4471:4544   */\n      swap3\n      pop\n        /* \"#utility.yul\":4265:4554   */\n      pop\n        /* \"#utility.yul\":4621:4624   */\n      0xe0\n        /* \"#utility.yul\":4610:4619   */\n      dup10\n        /* \"#utility.yul\":4606:4625   */\n      add\n        /* \"#utility.yul\":4593:4626   */\n      calldataload\n        /* \"#utility.yul\":4653:4671   */\n      0xffffffffffffffff\n        /* \"#utility.yul\":4645:4651   */\n      dup2\n        /* \"#utility.yul\":4642:4672   */\n      gt\n        /* \"#utility.yul\":4639:4756   */\n      iszero\n      tag_116\n      jumpi\n        /* \"#utility.yul\":4675:4754   */\n      tag_117\n      tag_90\n      jump\t// in\n    tag_117:\n        /* \"#utility.yul\":4639:4756   */\n    tag_116:\n        /* \"#utility.yul\":4780:4843   */\n      tag_118\n        /* \"#utility.yul\":4835:4842   */\n      dup12\n        /* \"#utility.yul\":4826:4832   */\n      dup3\n        /* \"#utility.yul\":4815:4824   */\n      dup13\n        /* \"#utility.yul\":4811:4833   */\n      add\n        /* \"#utility.yul\":4780:4843   */\n      tag_79\n      jump\t// in\n    tag_118:\n        /* \"#utility.yul\":4770:4843   */\n      swap2\n      pop\n        /* \"#utility.yul\":4564:4853   */\n      pop\n        /* \"#utility.yul\":2071:4860   */\n      swap3\n      swap6\n      swap9\n      pop\n      swap3\n      swap6\n      swap9\n      swap1\n      swap4\n      swap7\n      pop\n      jump\t// out\n        /* \"#utility.yul\":4866:7981   */\n    tag_8:\n        /* \"#utility.yul\":5087:5093   */\n      0x00\n        /* \"#utility.yul\":5095:5101   */\n      dup1\n        /* \"#utility.yul\":5103:5109   */\n      0x00\n        /* \"#utility.yul\":5111:5117   */\n      dup1\n        /* \"#utility.yul\":5119:5125   */\n      0x00\n        /* \"#utility.yul\":5127:5133   */\n      dup1\n        /* \"#utility.yul\":5135:5141   */\n      0x00\n        /* \"#utility.yul\":5143:5149   */\n      dup1\n        /* \"#utility.yul\":5151:5157   */\n      0x00\n        /* \"#utility.yul\":5200:5203   */\n      0x0120\n        /* \"#utility.yul\":5188:5197   */\n      dup11\n        /* \"#utility.yul\":5179:5186   */\n      dup13\n        /* \"#utility.yul\":5175:5198   */\n      sub\n        /* \"#utility.yul\":5171:5204   */\n      slt\n        /* \"#utility.yul\":5168:5288   */\n      iszero\n      tag_120\n      jumpi\n        /* \"#utility.yul\":5207:5286   */\n      tag_121\n      tag_87\n      jump\t// in\n    tag_121:\n        /* \"#utility.yul\":5168:5288   */\n    tag_120:\n        /* \"#utility.yul\":5355:5356   */\n      0x00\n        /* \"#utility.yul\":5344:5353   */\n      dup11\n        /* \"#utility.yul\":5340:5357   */\n      add\n        /* \"#utility.yul\":5327:5358   */\n      calldataload\n        /* \"#utility.yul\":5385:5403   */\n      0xffffffffffffffff\n        /* \"#utility.yul\":5377:5383   */\n      dup2\n        /* \"#utility.yul\":5374:5404   */\n      gt\n        /* \"#utility.yul\":5371:5488   */\n      iszero\n      tag_122\n      jumpi\n        /* \"#utility.yul\":5407:5486   */\n      tag_123\n      tag_90\n      jump\t// in\n    tag_123:\n        /* \"#utility.yul\":5371:5488   */\n    tag_122:\n        /* \"#utility.yul\":5512:5575   */\n      tag_124\n        /* \"#utility.yul\":5567:5574   */\n      dup13\n        /* \"#utility.yul\":5558:5564   */\n      dup3\n        /* \"#utility.yul\":5547:5556   */\n      dup14\n        /* \"#utility.yul\":5543:5565   */\n      add\n        /* \"#utility.yul\":5512:5575   */\n      tag_79\n      jump\t// in\n    tag_124:\n        /* \"#utility.yul\":5502:5575   */\n      swap10\n      pop\n        /* \"#utility.yul\":5298:5585   */\n      pop\n        /* \"#utility.yul\":5652:5654   */\n      0x20\n        /* \"#utility.yul\":5641:5650   */\n      dup11\n        /* \"#utility.yul\":5637:5655   */\n      add\n        /* \"#utility.yul\":5624:5656   */\n      calldataload\n        /* \"#utility.yul\":5683:5701   */\n      0xffffffffffffffff\n        /* \"#utility.yul\":5675:5681   */\n      dup2\n        /* \"#utility.yul\":5672:5702   */\n      gt\n        /* \"#utility.yul\":5669:5786   */\n      iszero\n      tag_125\n      jumpi\n        /* \"#utility.yul\":5705:5784   */\n      tag_126\n      tag_90\n      jump\t// in\n    tag_126:\n        /* \"#utility.yul\":5669:5786   */\n    tag_125:\n        /* \"#utility.yul\":5810:5873   */\n      tag_127\n        /* \"#utility.yul\":5865:5872   */\n      dup13\n        /* \"#utility.yul\":5856:5862   */\n      dup3\n        /* \"#utility.yul\":5845:5854   */\n      dup14\n        /* \"#utility.yul\":5841:5863   */\n      add\n        /* \"#utility.yul\":5810:5873   */\n      tag_79\n      jump\t// in\n    tag_127:\n        /* \"#utility.yul\":5800:5873   */\n      swap9\n      pop\n        /* \"#utility.yul\":5595:5883   */\n      pop\n        /* \"#utility.yul\":5950:5952   */\n      0x40\n        /* \"#utility.yul\":5939:5948   */\n      dup11\n        /* \"#utility.yul\":5935:5953   */\n      add\n        /* \"#utility.yul\":5922:5954   */\n      calldataload\n        /* \"#utility.yul\":5981:5999   */\n      0xffffffffffffffff\n        /* \"#utility.yul\":5973:5979   */\n      dup2\n        /* \"#utility.yul\":5970:6000   */\n      gt\n        /* \"#utility.yul\":5967:6084   */\n      iszero\n      tag_128\n      jumpi\n        /* \"#utility.yul\":6003:6082   */\n      tag_129\n      tag_90\n      jump\t// in\n    tag_129:\n        /* \"#utility.yul\":5967:6084   */\n    tag_128:\n        /* \"#utility.yul\":6108:6171   */\n      tag_130\n        /* \"#utility.yul\":6163:6170   */\n      dup13\n        /* \"#utility.yul\":6154:6160   */\n      dup3\n        /* \"#utility.yul\":6143:6152   */\n      dup14\n        /* \"#utility.yul\":6139:6161   */\n      add\n        /* \"#utility.yul\":6108:6171   */\n      tag_79\n      jump\t// in\n    tag_130:\n        /* \"#utility.yul\":6098:6171   */\n      swap8\n      pop\n        /* \"#utility.yul\":5893:6181   */\n      pop\n        /* \"#utility.yul\":6248:6250   */\n      0x60\n        /* \"#utility.yul\":6237:6246   */\n      dup11\n        /* \"#utility.yul\":6233:6251   */\n      add\n        /* \"#utility.yul\":6220:6252   */\n      calldataload\n        /* \"#utility.yul\":6279:6297   */\n      0xffffffffffffffff\n        /* \"#utility.yul\":6271:6277   */\n      dup2\n        /* \"#utility.yul\":6268:6298   */\n      gt\n        /* \"#utility.yul\":6265:6382   */\n      iszero\n      tag_131\n      jumpi\n        /* \"#utility.yul\":6301:6380   */\n      tag_132\n      tag_90\n      jump\t// in\n    tag_132:\n        /* \"#utility.yul\":6265:6382   */\n    tag_131:\n        /* \"#utility.yul\":6406:6469   */\n      tag_133\n        /* \"#utility.yul\":6461:6468   */\n      dup13\n        /* \"#utility.yul\":6452:6458   */\n      dup3\n        /* \"#utility.yul\":6441:6450   */\n      dup14\n        /* \"#utility.yul\":6437:6459   */\n      add\n        /* \"#utility.yul\":6406:6469   */\n      tag_79\n      jump\t// in\n    tag_133:\n        /* \"#utility.yul\":6396:6469   */\n      swap7\n      pop\n        /* \"#utility.yul\":6191:6479   */\n      pop\n        /* \"#utility.yul\":6546:6549   */\n      0x80\n        /* \"#utility.yul\":6535:6544   */\n      dup11\n        /* \"#utility.yul\":6531:6550   */\n      add\n        /* \"#utility.yul\":6518:6551   */\n      calldataload\n        /* \"#utility.yul\":6578:6596   */\n      0xffffffffffffffff\n        /* \"#utility.yul\":6570:6576   */\n      dup2\n        /* \"#utility.yul\":6567:6597   */\n      gt\n        /* \"#utility.yul\":6564:6681   */\n      iszero\n      tag_134\n      jumpi\n        /* \"#utility.yul\":6600:6679   */\n      tag_135\n      tag_90\n      jump\t// in\n    tag_135:\n        /* \"#utility.yul\":6564:6681   */\n    tag_134:\n        /* \"#utility.yul\":6705:6768   */\n      tag_136\n        /* \"#utility.yul\":6760:6767   */\n      dup13\n        /* \"#utility.yul\":6751:6757   */\n      dup3\n        /* \"#utility.yul\":6740:6749   */\n      dup14\n        /* \"#utility.yul\":6736:6758   */\n      add\n        /* \"#utility.yul\":6705:6768   */\n      tag_79\n      jump\t// in\n    tag_136:\n        /* \"#utility.yul\":6695:6768   */\n      swap6\n      pop\n        /* \"#utility.yul\":6489:6778   */\n      pop\n        /* \"#utility.yul\":6845:6848   */\n      0xa0\n        /* \"#utility.yul\":6834:6843   */\n      dup11\n        /* \"#utility.yul\":6830:6849   */\n      add\n        /* \"#utility.yul\":6817:6850   */\n      calldataload\n        /* \"#utility.yul\":6877:6895   */\n      0xffffffffffffffff\n        /* \"#utility.yul\":6869:6875   */\n      dup2\n        /* \"#utility.yul\":6866:6896   */\n      gt\n        /* \"#utility.yul\":6863:6980   */\n      iszero\n      tag_137\n      jumpi\n        /* \"#utility.yul\":6899:6978   */\n      tag_138\n      tag_90\n      jump\t// in\n    tag_138:\n        /* \"#utility.yul\":6863:6980   */\n    tag_137:\n        /* \"#utility.yul\":7004:7067   */\n      tag_139\n        /* \"#utility.yul\":7059:7066   */\n      dup13\n        /* \"#utility.yul\":7050:7056   */\n      dup3\n        /* \"#utility.yul\":7039:7048   */\n      dup14\n        /* \"#utility.yul\":7035:7057   */\n      add\n        /* \"#utility.yul\":7004:7067   */\n      tag_79\n      jump\t// in\n    tag_139:\n        /* \"#utility.yul\":6994:7067   */\n      swap5\n      pop\n        /* \"#utility.yul\":6788:7077   */\n      pop\n        /* \"#utility.yul\":7144:7147   */\n      0xc0\n        /* \"#utility.yul\":7133:7142   */\n      dup11\n        /* \"#utility.yul\":7129:7148   */\n      add\n        /* \"#utility.yul\":7116:7149   */\n      calldataload\n        /* \"#utility.yul\":7176:7194   */\n      0xffffffffffffffff\n        /* \"#utility.yul\":7168:7174   */\n      dup2\n        /* \"#utility.yul\":7165:7195   */\n      gt\n        /* \"#utility.yul\":7162:7279   */\n      iszero\n      tag_140\n      jumpi\n        /* \"#utility.yul\":7198:7277   */\n      tag_141\n      tag_90\n      jump\t// in\n    tag_141:\n        /* \"#utility.yul\":7162:7279   */\n    tag_140:\n        /* \"#utility.yul\":7303:7366   */\n      tag_142\n        /* \"#utility.yul\":7358:7365   */\n      dup13\n        /* \"#utility.yul\":7349:7355   */\n      dup3\n        /* \"#utility.yul\":7338:7347   */\n      dup14\n        /* \"#utility.yul\":7334:7356   */\n      add\n        /* \"#utility.yul\":7303:7366   */\n      tag_79\n      jump\t// in\n    tag_142:\n        /* \"#utility.yul\":7293:7366   */\n      swap4\n      pop\n        /* \"#utility.yul\":7087:7376   */\n      pop\n        /* \"#utility.yul\":7443:7446   */\n      0xe0\n        /* \"#utility.yul\":7432:7441   */\n      dup11\n        /* \"#utility.yul\":7428:7447   */\n      add\n        /* \"#utility.yul\":7415:7448   */\n      calldataload\n        /* \"#utility.yul\":7475:7493   */\n      0xffffffffffffffff\n        /* \"#utility.yul\":7467:7473   */\n      dup2\n        /* \"#utility.yul\":7464:7494   */\n      gt\n        /* \"#utility.yul\":7461:7578   */\n      iszero\n      tag_143\n      jumpi\n        /* \"#utility.yul\":7497:7576   */\n      tag_144\n      tag_90\n      jump\t// in\n    tag_144:\n        /* \"#utility.yul\":7461:7578   */\n    tag_143:\n        /* \"#utility.yul\":7602:7665   */\n      tag_145\n        /* \"#utility.yul\":7657:7664   */\n      dup13\n        /* \"#utility.yul\":7648:7654   */\n      dup3\n        /* \"#utility.yul\":7637:7646   */\n      dup14\n        /* \"#utility.yul\":7633:7655   */\n      add\n        /* \"#utility.yul\":7602:7665   */\n      tag_79\n      jump\t// in\n    tag_145:\n        /* \"#utility.yul\":7592:7665   */\n      swap3\n      pop\n        /* \"#utility.yul\":7386:7675   */\n      pop\n        /* \"#utility.yul\":7742:7745   */\n      0x0100\n        /* \"#utility.yul\":7731:7740   */\n      dup11\n        /* \"#utility.yul\":7727:7746   */\n      add\n        /* \"#utility.yul\":7714:7747   */\n      calldataload\n        /* \"#utility.yul\":7774:7792   */\n      0xffffffffffffffff\n        /* \"#utility.yul\":7766:7772   */\n      dup2\n        /* \"#utility.yul\":7763:7793   */\n      gt\n        /* \"#utility.yul\":7760:7877   */\n      iszero\n      tag_146\n      jumpi\n        /* \"#utility.yul\":7796:7875   */\n      tag_147\n      tag_90\n      jump\t// in\n    tag_147:\n        /* \"#utility.yul\":7760:7877   */\n    tag_146:\n        /* \"#utility.yul\":7901:7964   */\n      tag_148\n        /* \"#utility.yul\":7956:7963   */\n      dup13\n        /* \"#utility.yul\":7947:7953   */\n      dup3\n        /* \"#utility.yul\":7936:7945   */\n      dup14\n        /* \"#utility.yul\":7932:7954   */\n      add\n        /* \"#utility.yul\":7901:7964   */\n      tag_79\n      jump\t// in\n    tag_148:\n        /* \"#utility.yul\":7891:7964   */\n      swap2\n      pop\n        /* \"#utility.yul\":7685:7974   */\n      pop\n        /* \"#utility.yul\":4866:7981   */\n      swap3\n      swap6\n      swap9\n      pop\n      swap3\n      swap6\n      swap9\n      pop\n      swap3\n      swap6\n      swap9\n      jump\t// out\n        /* \"#utility.yul\":7987:8351   */\n    tag_149:\n        /* \"#utility.yul\":8075:8078   */\n      0x00\n        /* \"#utility.yul\":8103:8142   */\n      tag_151\n        /* \"#utility.yul\":8136:8141   */\n      dup3\n        /* \"#utility.yul\":8103:8142   */\n      tag_152\n      jump\t// in\n    tag_151:\n        /* \"#utility.yul\":8158:8229   */\n      tag_153\n        /* \"#utility.yul\":8222:8228   */\n      dup2\n        /* \"#utility.yul\":8217:8220   */\n      dup6\n        /* \"#utility.yul\":8158:8229   */\n      tag_154\n      jump\t// in\n    tag_153:\n        /* \"#utility.yul\":8151:8229   */\n      swap4\n      pop\n        /* \"#utility.yul\":8238:8290   */\n      tag_155\n        /* \"#utility.yul\":8283:8289   */\n      dup2\n        /* \"#utility.yul\":8278:8281   */\n      dup6\n        /* \"#utility.yul\":8271:8275   */\n      0x20\n        /* \"#utility.yul\":8264:8269   */\n      dup7\n        /* \"#utility.yul\":8260:8276   */\n      add\n        /* \"#utility.yul\":8238:8290   */\n      tag_156\n      jump\t// in\n    tag_155:\n        /* \"#utility.yul\":8315:8344   */\n      tag_157\n        /* \"#utility.yul\":8337:8343   */\n      dup2\n        /* \"#utility.yul\":8315:8344   */\n      tag_158\n      jump\t// in\n    tag_157:\n        /* \"#utility.yul\":8310:8313   */\n      dup5\n        /* \"#utility.yul\":8306:8345   */\n      add\n        /* \"#utility.yul\":8299:8345   */\n      swap2\n      pop\n        /* \"#utility.yul\":8079:8351   */\n      pop\n        /* \"#utility.yul\":7987:8351   */\n      swap3\n      swap2\n      pop\n      pop\n      jump\t// out\n        /* \"#utility.yul\":8357:8734   */\n    tag_159:\n        /* \"#utility.yul\":8463:8466   */\n      0x00\n        /* \"#utility.yul\":8491:8530   */\n      tag_161\n        /* \"#utility.yul\":8524:8529   */\n      dup3\n        /* \"#utility.yul\":8491:8530   */\n      tag_152\n      jump\t// in\n    tag_161:\n        /* \"#utility.yul\":8546:8635   */\n      tag_162\n        /* \"#utility.yul\":8628:8634   */\n      dup2\n        /* \"#utility.yul\":8623:8626   */\n      dup6\n        /* \"#utility.yul\":8546:8635   */\n      tag_163\n      jump\t// in\n    tag_162:\n        /* \"#utility.yul\":8539:8635   */\n      swap4\n      pop\n        /* \"#utility.yul\":8644:8696   */\n      tag_164\n        /* \"#utility.yul\":8689:8695   */\n      dup2\n        /* \"#utility.yul\":8684:8687   */\n      dup6\n        /* \"#utility.yul\":8677:8681   */\n      0x20\n        /* \"#utility.yul\":8670:8675   */\n      dup7\n        /* \"#utility.yul\":8666:8682   */\n      add\n        /* \"#utility.yul\":8644:8696   */\n      tag_156\n      jump\t// in\n    tag_164:\n        /* \"#utility.yul\":8721:8727   */\n      dup1\n        /* \"#utility.yul\":8716:8719   */\n      dup5\n        /* \"#utility.yul\":8712:8728   */\n      add\n        /* \"#utility.yul\":8705:8728   */\n      swap2\n      pop\n        /* \"#utility.yul\":8467:8734   */\n      pop\n        /* \"#utility.yul\":8357:8734   */\n      swap3\n      swap2\n      pop\n      pop\n      jump\t// out\n        /* \"#utility.yul\":8740:9142   */\n    tag_165:\n        /* \"#utility.yul\":8900:8903   */\n      0x00\n        /* \"#utility.yul\":8921:9006   */\n      tag_167\n        /* \"#utility.yul\":9003:9005   */\n      0x0c\n        /* \"#utility.yul\":8998:9001   */\n      dup4\n        /* \"#utility.yul\":8921:9006   */\n      tag_163\n      jump\t// in\n    tag_167:\n        /* \"#utility.yul\":8914:9006   */\n      swap2\n      pop\n        /* \"#utility.yul\":9015:9108   */\n      tag_168\n        /* \"#utility.yul\":9104:9107   */\n      dup3\n        /* \"#utility.yul\":9015:9108   */\n      tag_169\n      jump\t// in\n    tag_168:\n        /* \"#utility.yul\":9133:9135   */\n      0x0c\n        /* \"#utility.yul\":9128:9131   */\n      dup3\n        /* \"#utility.yul\":9124:9136   */\n      add\n        /* \"#utility.yul\":9117:9136   */\n      swap1\n      pop\n        /* \"#utility.yul\":8740:9142   */\n      swap2\n      swap1\n      pop\n      jump\t// out\n        /* \"#utility.yul\":9148:9550   */\n    tag_170:\n        /* \"#utility.yul\":9308:9311   */\n      0x00\n        /* \"#utility.yul\":9329:9414   */\n      tag_172\n        /* \"#utility.yul\":9411:9413   */\n      0x27\n        /* \"#utility.yul\":9406:9409   */\n      dup4\n        /* \"#utility.yul\":9329:9414   */\n      tag_163\n      jump\t// in\n    tag_172:\n        /* \"#utility.yul\":9322:9414   */\n      swap2\n      pop\n        /* \"#utility.yul\":9423:9516   */\n      tag_173\n        /* \"#utility.yul\":9512:9515   */\n      dup3\n        /* \"#utility.yul\":9423:9516   */\n      tag_174\n      jump\t// in\n    tag_173:\n        /* \"#utility.yul\":9541:9543   */\n      0x27\n        /* \"#utility.yul\":9536:9539   */\n      dup3\n        /* \"#utility.yul\":9532:9544   */\n      add\n        /* \"#utility.yul\":9525:9544   */\n      swap1\n      pop\n        /* \"#utility.yul\":9148:9550   */\n      swap2\n      swap1\n      pop\n      jump\t// out\n        /* \"#utility.yul\":9556:9958   */\n    tag_175:\n        /* \"#utility.yul\":9716:9719   */\n      0x00\n        /* \"#utility.yul\":9737:9822   */\n      tag_177\n        /* \"#utility.yul\":9819:9821   */\n      0x53\n        /* \"#utility.yul\":9814:9817   */\n      dup4\n        /* \"#utility.yul\":9737:9822   */\n      tag_163\n      jump\t// in\n    tag_177:\n        /* \"#utility.yul\":9730:9822   */\n      swap2\n      pop\n        /* \"#utility.yul\":9831:9924   */\n      tag_178\n        /* \"#utility.yul\":9920:9923   */\n      dup3\n        /* \"#utility.yul\":9831:9924   */\n      tag_179\n      jump\t// in\n    tag_178:\n        /* \"#utility.yul\":9949:9951   */\n      0x53\n        /* \"#utility.yul\":9944:9947   */\n      dup3\n        /* \"#utility.yul\":9940:9952   */\n      add\n        /* \"#utility.yul\":9933:9952   */\n      swap1\n      pop\n        /* \"#utility.yul\":9556:9958   */\n      swap2\n      swap1\n      pop\n      jump\t// out\n        /* \"#utility.yul\":9964:10366   */\n    tag_180:\n        /* \"#utility.yul\":10124:10127   */\n      0x00\n        /* \"#utility.yul\":10145:10230   */\n      tag_182\n        /* \"#utility.yul\":10227:10229   */\n      0x53\n        /* \"#utility.yul\":10222:10225   */\n      dup4\n        /* \"#utility.yul\":10145:10230   */\n      tag_163\n      jump\t// in\n    tag_182:\n        /* \"#utility.yul\":10138:10230   */\n      swap2\n      pop\n        /* \"#utility.yul\":10239:10332   */\n      tag_183\n        /* \"#utility.yul\":10328:10331   */\n      dup3\n        /* \"#utility.yul\":10239:10332   */\n      tag_184\n      jump\t// in\n    tag_183:\n        /* \"#utility.yul\":10357:10359   */\n      0x53\n        /* \"#utility.yul\":10352:10355   */\n      dup3\n        /* \"#utility.yul\":10348:10360   */\n      add\n        /* \"#utility.yul\":10341:10360   */\n      swap1\n      pop\n        /* \"#utility.yul\":9964:10366   */\n      swap2\n      swap1\n      pop\n      jump\t// out\n        /* \"#utility.yul\":10372:10774   */\n    tag_185:\n        /* \"#utility.yul\":10532:10535   */\n      0x00\n        /* \"#utility.yul\":10553:10638   */\n      tag_187\n        /* \"#utility.yul\":10635:10637   */\n      0x53\n        /* \"#utility.yul\":10630:10633   */\n      dup4\n        /* \"#utility.yul\":10553:10638   */\n      tag_163\n      jump\t// in\n    tag_187:\n        /* \"#utility.yul\":10546:10638   */\n      swap2\n      pop\n        /* \"#utility.yul\":10647:10740   */\n      tag_188\n        /* \"#utility.yul\":10736:10739   */\n      dup3\n        /* \"#utility.yul\":10647:10740   */\n      tag_189\n      jump\t// in\n    tag_188:\n        /* \"#utility.yul\":10765:10767   */\n      0x53\n        /* \"#utility.yul\":10760:10763   */\n      dup3\n        /* \"#utility.yul\":10756:10768   */\n      add\n        /* \"#utility.yul\":10749:10768   */\n      swap1\n      pop\n        /* \"#utility.yul\":10372:10774   */\n      swap2\n      swap1\n      pop\n      jump\t// out\n        /* \"#utility.yul\":10780:11182   */\n    tag_190:\n        /* \"#utility.yul\":10940:10943   */\n      0x00\n        /* \"#utility.yul\":10961:11046   */\n      tag_192\n        /* \"#utility.yul\":11043:11045   */\n      0x16\n        /* \"#utility.yul\":11038:11041   */\n      dup4\n        /* \"#utility.yul\":10961:11046   */\n      tag_163\n      jump\t// in\n    tag_192:\n        /* \"#utility.yul\":10954:11046   */\n      swap2\n      pop\n        /* \"#utility.yul\":11055:11148   */\n      tag_193\n        /* \"#utility.yul\":11144:11147   */\n      dup3\n        /* \"#utility.yul\":11055:11148   */\n      tag_194\n      jump\t// in\n    tag_193:\n        /* \"#utility.yul\":11173:11175   */\n      0x16\n        /* \"#utility.yul\":11168:11171   */\n      dup3\n        /* \"#utility.yul\":11164:11176   */\n      add\n        /* \"#utility.yul\":11157:11176   */\n      swap1\n      pop\n        /* \"#utility.yul\":10780:11182   */\n      swap2\n      swap1\n      pop\n      jump\t// out\n        /* \"#utility.yul\":11188:11590   */\n    tag_195:\n        /* \"#utility.yul\":11348:11351   */\n      0x00\n        /* \"#utility.yul\":11369:11454   */\n      tag_197\n        /* \"#utility.yul\":11451:11453   */\n      0x53\n        /* \"#utility.yul\":11446:11449   */\n      dup4\n        /* \"#utility.yul\":11369:11454   */\n      tag_163\n      jump\t// in\n    tag_197:\n        /* \"#utility.yul\":11362:11454   */\n      swap2\n      pop\n        /* \"#utility.yul\":11463:11556   */\n      tag_198\n        /* \"#utility.yul\":11552:11555   */\n      dup3\n        /* \"#utility.yul\":11463:11556   */\n      tag_199\n      jump\t// in\n    tag_198:\n        /* \"#utility.yul\":11581:11583   */\n      0x53\n        /* \"#utility.yul\":11576:11579   */\n      dup3\n        /* \"#utility.yul\":11572:11584   */\n      add\n        /* \"#utility.yul\":11565:11584   */\n      swap1\n      pop\n        /* \"#utility.yul\":11188:11590   */\n      swap2\n      swap1\n      pop\n      jump\t// out\n        /* \"#utility.yul\":11596:11998   */\n    tag_200:\n        /* \"#utility.yul\":11756:11759   */\n      0x00\n        /* \"#utility.yul\":11777:11862   */\n      tag_202\n        /* \"#utility.yul\":11859:11861   */\n      0x0c\n        /* \"#utility.yul\":11854:11857   */\n      dup4\n        /* \"#utility.yul\":11777:11862   */\n      tag_163\n      jump\t// in\n    tag_202:\n        /* \"#utility.yul\":11770:11862   */\n      swap2\n      pop\n        /* \"#utility.yul\":11871:11964   */\n      tag_203\n        /* \"#utility.yul\":11960:11963   */\n      dup3\n        /* \"#utility.yul\":11871:11964   */\n      tag_204\n      jump\t// in\n    tag_203:\n        /* \"#utility.yul\":11989:11991   */\n      0x0c\n        /* \"#utility.yul\":11984:11987   */\n      dup3\n        /* \"#utility.yul\":11980:11992   */\n      add\n        /* \"#utility.yul\":11973:11992   */\n      swap1\n      pop\n        /* \"#utility.yul\":11596:11998   */\n      swap2\n      swap1\n      pop\n      jump\t// out\n        /* \"#utility.yul\":12004:12406   */\n    tag_205:\n        /* \"#utility.yul\":12164:12167   */\n      0x00\n        /* \"#utility.yul\":12185:12270   */\n      tag_207\n        /* \"#utility.yul\":12267:12269   */\n      0x21\n        /* \"#utility.yul\":12262:12265   */\n      dup4\n        /* \"#utility.yul\":12185:12270   */\n      tag_163\n      jump\t// in\n    tag_207:\n        /* \"#utility.yul\":12178:12270   */\n      swap2\n      pop\n        /* \"#utility.yul\":12279:12372   */\n      tag_208\n        /* \"#utility.yul\":12368:12371   */\n      dup3\n        /* \"#utility.yul\":12279:12372   */\n      tag_209\n      jump\t// in\n    tag_208:\n        /* \"#utility.yul\":12397:12399   */\n      0x21\n        /* \"#utility.yul\":12392:12395   */\n      dup3\n        /* \"#utility.yul\":12388:12400   */\n      add\n        /* \"#utility.yul\":12381:12400   */\n      swap1\n      pop\n        /* \"#utility.yul\":12004:12406   */\n      swap2\n      swap1\n      pop\n      jump\t// out\n        /* \"#utility.yul\":12412:12814   */\n    tag_210:\n        /* \"#utility.yul\":12572:12575   */\n      0x00\n        /* \"#utility.yul\":12593:12678   */\n      tag_212\n        /* \"#utility.yul\":12675:12677   */\n      0x53\n        /* \"#utility.yul\":12670:12673   */\n      dup4\n        /* \"#utility.yul\":12593:12678   */\n      tag_163\n      jump\t// in\n    tag_212:\n        /* \"#utility.yul\":12586:12678   */\n      swap2\n      pop\n        /* \"#utility.yul\":12687:12780   */\n      tag_213\n        /* \"#utility.yul\":12776:12779   */\n      dup3\n        /* \"#utility.yul\":12687:12780   */\n      tag_214\n      jump\t// in\n    tag_213:\n        /* \"#utility.yul\":12805:12807   */\n      0x53\n        /* \"#utility.yul\":12800:12803   */\n      dup3\n        /* \"#utility.yul\":12796:12808   */\n      add\n        /* \"#utility.yul\":12789:12808   */\n      swap1\n      pop\n        /* \"#utility.yul\":12412:12814   */\n      swap2\n      swap1\n      pop\n      jump\t// out\n        /* \"#utility.yul\":12820:13222   */\n    tag_215:\n        /* \"#utility.yul\":12980:12983   */\n      0x00\n        /* \"#utility.yul\":13001:13086   */\n      tag_217\n        /* \"#utility.yul\":13083:13085   */\n      0x29\n        /* \"#utility.yul\":13078:13081   */\n      dup4\n        /* \"#utility.yul\":13001:13086   */\n      tag_163\n      jump\t// in\n    tag_217:\n        /* \"#utility.yul\":12994:13086   */\n      swap2\n      pop\n        /* \"#utility.yul\":13095:13188   */\n      tag_218\n        /* \"#utility.yul\":13184:13187   */\n      dup3\n        /* \"#utility.yul\":13095:13188   */\n      tag_219\n      jump\t// in\n    tag_218:\n        /* \"#utility.yul\":13213:13215   */\n      0x29\n        /* \"#utility.yul\":13208:13211   */\n      dup3\n        /* \"#utility.yul\":13204:13216   */\n      add\n        /* \"#utility.yul\":13197:13216   */\n      swap1\n      pop\n        /* \"#utility.yul\":12820:13222   */\n      swap2\n      swap1\n      pop\n      jump\t// out\n        /* \"#utility.yul\":13228:13630   */\n    tag_220:\n        /* \"#utility.yul\":13388:13391   */\n      0x00\n        /* \"#utility.yul\":13409:13494   */\n      tag_222\n        /* \"#utility.yul\":13491:13493   */\n      0x0e\n        /* \"#utility.yul\":13486:13489   */\n      dup4\n        /* \"#utility.yul\":13409:13494   */\n      tag_163\n      jump\t// in\n    tag_222:\n        /* \"#utility.yul\":13402:13494   */\n      swap2\n      pop\n        /* \"#utility.yul\":13503:13596   */\n      tag_223\n        /* \"#utility.yul\":13592:13595   */\n      dup3\n        /* \"#utility.yul\":13503:13596   */\n      tag_224\n      jump\t// in\n    tag_223:\n        /* \"#utility.yul\":13621:13623   */\n      0x0e\n        /* \"#utility.yul\":13616:13619   */\n      dup3\n        /* \"#utility.yul\":13612:13624   */\n      add\n        /* \"#utility.yul\":13605:13624   */\n      swap1\n      pop\n        /* \"#utility.yul\":13228:13630   */\n      swap2\n      swap1\n      pop\n      jump\t// out\n        /* \"#utility.yul\":13636:14038   */\n    tag_225:\n        /* \"#utility.yul\":13796:13799   */\n      0x00\n        /* \"#utility.yul\":13817:13902   */\n      tag_227\n        /* \"#utility.yul\":13899:13901   */\n      0x31\n        /* \"#utility.yul\":13894:13897   */\n      dup4\n        /* \"#utility.yul\":13817:13902   */\n      tag_163\n      jump\t// in\n    tag_227:\n        /* \"#utility.yul\":13810:13902   */\n      swap2\n      pop\n        /* \"#utility.yul\":13911:14004   */\n      tag_228\n        /* \"#utility.yul\":14000:14003   */\n      dup3\n        /* \"#utility.yul\":13911:14004   */\n      tag_229\n      jump\t// in\n    tag_228:\n        /* \"#utility.yul\":14029:14031   */\n      0x31\n        /* \"#utility.yul\":14024:14027   */\n      dup3\n        /* \"#utility.yul\":14020:14032   */\n      add\n        /* \"#utility.yul\":14013:14032   */\n      swap1\n      pop\n        /* \"#utility.yul\":13636:14038   */\n      swap2\n      swap1\n      pop\n      jump\t// out\n        /* \"#utility.yul\":14044:14446   */\n    tag_230:\n        /* \"#utility.yul\":14204:14207   */\n      0x00\n        /* \"#utility.yul\":14225:14310   */\n      tag_232\n        /* \"#utility.yul\":14307:14309   */\n      0x53\n        /* \"#utility.yul\":14302:14305   */\n      dup4\n        /* \"#utility.yul\":14225:14310   */\n      tag_163\n      jump\t// in\n    tag_232:\n        /* \"#utility.yul\":14218:14310   */\n      swap2\n      pop\n        /* \"#utility.yul\":14319:14412   */\n      tag_233\n        /* \"#utility.yul\":14408:14411   */\n      dup3\n        /* \"#utility.yul\":14319:14412   */\n      tag_234\n      jump\t// in\n    tag_233:\n        /* \"#utility.yul\":14437:14439   */\n      0x53\n        /* \"#utility.yul\":14432:14435   */\n      dup3\n        /* \"#utility.yul\":14428:14440   */\n      add\n        /* \"#utility.yul\":14421:14440   */\n      swap1\n      pop\n        /* \"#utility.yul\":14044:14446   */\n      swap2\n      swap1\n      pop\n      jump\t// out\n        /* \"#utility.yul\":14452:14852   */\n    tag_235:\n        /* \"#utility.yul\":14612:14615   */\n      0x00\n        /* \"#utility.yul\":14633:14717   */\n      tag_237\n        /* \"#utility.yul\":14715:14716   */\n      0x07\n        /* \"#utility.yul\":14710:14713   */\n      dup4\n        /* \"#utility.yul\":14633:14717   */\n      tag_163\n      jump\t// in\n    tag_237:\n        /* \"#utility.yul\":14626:14717   */\n      swap2\n      pop\n        /* \"#utility.yul\":14726:14819   */\n      tag_238\n        /* \"#utility.yul\":14815:14818   */\n      dup3\n        /* \"#utility.yul\":14726:14819   */\n      tag_239\n      jump\t// in\n    tag_238:\n        /* \"#utility.yul\":14844:14845   */\n      0x07\n        /* \"#utility.yul\":14839:14842   */\n      dup3\n        /* \"#utility.yul\":14835:14846   */\n      add\n        /* \"#utility.yul\":14828:14846   */\n      swap1\n      pop\n        /* \"#utility.yul\":14452:14852   */\n      swap2\n      swap1\n      pop\n      jump\t// out\n        /* \"#utility.yul\":14858:15260   */\n    tag_240:\n        /* \"#utility.yul\":15018:15021   */\n      0x00\n        /* \"#utility.yul\":15039:15124   */\n      tag_242\n        /* \"#utility.yul\":15121:15123   */\n      0x14\n        /* \"#utility.yul\":15116:15119   */\n      dup4\n        /* \"#utility.yul\":15039:15124   */\n      tag_163\n      jump\t// in\n    tag_242:\n        /* \"#utility.yul\":15032:15124   */\n      swap2\n      pop\n        /* \"#utility.yul\":15133:15226   */\n      tag_243\n        /* \"#utility.yul\":15222:15225   */\n      dup3\n        /* \"#utility.yul\":15133:15226   */\n      tag_244\n      jump\t// in\n    tag_243:\n        /* \"#utility.yul\":15251:15253   */\n      0x14\n        /* \"#utility.yul\":15246:15249   */\n      dup3\n        /* \"#utility.yul\":15242:15254   */\n      add\n        /* \"#utility.yul\":15235:15254   */\n      swap1\n      pop\n        /* \"#utility.yul\":14858:15260   */\n      swap2\n      swap1\n      pop\n      jump\t// out\n        /* \"#utility.yul\":15266:15668   */\n    tag_245:\n        /* \"#utility.yul\":15426:15429   */\n      0x00\n        /* \"#utility.yul\":15447:15532   */\n      tag_247\n        /* \"#utility.yul\":15529:15531   */\n      0x53\n        /* \"#utility.yul\":15524:15527   */\n      dup4\n        /* \"#utility.yul\":15447:15532   */\n      tag_163\n      jump\t// in\n    tag_247:\n        /* \"#utility.yul\":15440:15532   */\n      swap2\n      pop\n        /* \"#utility.yul\":15541:15634   */\n      tag_248\n        /* \"#utility.yul\":15630:15633   */\n      dup3\n        /* \"#utility.yul\":15541:15634   */\n      tag_249\n      jump\t// in\n    tag_248:\n        /* \"#utility.yul\":15659:15661   */\n      0x53\n        /* \"#utility.yul\":15654:15657   */\n      dup3\n        /* \"#utility.yul\":15650:15662   */\n      add\n        /* \"#utility.yul\":15643:15662   */\n      swap1\n      pop\n        /* \"#utility.yul\":15266:15668   */\n      swap2\n      swap1\n      pop\n      jump\t// out\n        /* \"#utility.yul\":15674:16076   */\n    tag_250:\n        /* \"#utility.yul\":15834:15837   */\n      0x00\n        /* \"#utility.yul\":15855:15940   */\n      tag_252\n        /* \"#utility.yul\":15937:15939   */\n      0x10\n        /* \"#utility.yul\":15932:15935   */\n      dup4\n        /* \"#utility.yul\":15855:15940   */\n      tag_163\n      jump\t// in\n    tag_252:\n        /* \"#utility.yul\":15848:15940   */\n      swap2\n      pop\n        /* \"#utility.yul\":15949:16042   */\n      tag_253\n        /* \"#utility.yul\":16038:16041   */\n      dup3\n        /* \"#utility.yul\":15949:16042   */\n      tag_254\n      jump\t// in\n    tag_253:\n        /* \"#utility.yul\":16067:16069   */\n      0x10\n        /* \"#utility.yul\":16062:16065   */\n      dup3\n        /* \"#utility.yul\":16058:16070   */\n      add\n        /* \"#utility.yul\":16051:16070   */\n      swap1\n      pop\n        /* \"#utility.yul\":15674:16076   */\n      swap2\n      swap1\n      pop\n      jump\t// out\n        /* \"#utility.yul\":16082:16484   */\n    tag_255:\n        /* \"#utility.yul\":16242:16245   */\n      0x00\n        /* \"#utility.yul\":16263:16348   */\n      tag_257\n        /* \"#utility.yul\":16345:16347   */\n      0x29\n        /* \"#utility.yul\":16340:16343   */\n      dup4\n        /* \"#utility.yul\":16263:16348   */\n      tag_163\n      jump\t// in\n    tag_257:\n        /* \"#utility.yul\":16256:16348   */\n      swap2\n      pop\n        /* \"#utility.yul\":16357:16450   */\n      tag_258\n        /* \"#utility.yul\":16446:16449   */\n      dup3\n        /* \"#utility.yul\":16357:16450   */\n      tag_259\n      jump\t// in\n    tag_258:\n        /* \"#utility.yul\":16475:16477   */\n      0x29\n        /* \"#utility.yul\":16470:16473   */\n      dup3\n        /* \"#utility.yul\":16466:16478   */\n      add\n        /* \"#utility.yul\":16459:16478   */\n      swap1\n      pop\n        /* \"#utility.yul\":16082:16484   */\n      swap2\n      swap1\n      pop\n      jump\t// out\n        /* \"#utility.yul\":16490:16892   */\n    tag_260:\n        /* \"#utility.yul\":16650:16653   */\n      0x00\n        /* \"#utility.yul\":16671:16756   */\n      tag_262\n        /* \"#utility.yul\":16753:16755   */\n      0x4a\n        /* \"#utility.yul\":16748:16751   */\n      dup4\n        /* \"#utility.yul\":16671:16756   */\n      tag_163\n      jump\t// in\n    tag_262:\n        /* \"#utility.yul\":16664:16756   */\n      swap2\n      pop\n        /* \"#utility.yul\":16765:16858   */\n      tag_263\n        /* \"#utility.yul\":16854:16857   */\n      dup3\n        /* \"#utility.yul\":16765:16858   */\n      tag_264\n      jump\t// in\n    tag_263:\n        /* \"#utility.yul\":16883:16885   */\n      0x4a\n        /* \"#utility.yul\":16878:16881   */\n      dup3\n        /* \"#utility.yul\":16874:16886   */\n      add\n        /* \"#utility.yul\":16867:16886   */\n      swap1\n      pop\n        /* \"#utility.yul\":16490:16892   */\n      swap2\n      swap1\n      pop\n      jump\t// out\n        /* \"#utility.yul\":16898:17300   */\n    tag_265:\n        /* \"#utility.yul\":17058:17061   */\n      0x00\n        /* \"#utility.yul\":17079:17164   */\n      tag_267\n        /* \"#utility.yul\":17161:17163   */\n      0x1d\n        /* \"#utility.yul\":17156:17159   */\n      dup4\n        /* \"#utility.yul\":17079:17164   */\n      tag_163\n      jump\t// in\n    tag_267:\n        /* \"#utility.yul\":17072:17164   */\n      swap2\n      pop\n        /* \"#utility.yul\":17173:17266   */\n      tag_268\n        /* \"#utility.yul\":17262:17265   */\n      dup3\n        /* \"#utility.yul\":17173:17266   */\n      tag_269\n      jump\t// in\n    tag_268:\n        /* \"#utility.yul\":17291:17293   */\n      0x1d\n        /* \"#utility.yul\":17286:17289   */\n      dup3\n        /* \"#utility.yul\":17282:17294   */\n      add\n        /* \"#utility.yul\":17275:17294   */\n      swap1\n      pop\n        /* \"#utility.yul\":16898:17300   */\n      swap2\n      swap1\n      pop\n      jump\t// out\n        /* \"#utility.yul\":17306:17708   */\n    tag_270:\n        /* \"#utility.yul\":17466:17469   */\n      0x00\n        /* \"#utility.yul\":17487:17572   */\n      tag_272\n        /* \"#utility.yul\":17569:17571   */\n      0x2f\n        /* \"#utility.yul\":17564:17567   */\n      dup4\n        /* \"#utility.yul\":17487:17572   */\n      tag_163\n      jump\t// in\n    tag_272:\n        /* \"#utility.yul\":17480:17572   */\n      swap2\n      pop\n        /* \"#utility.yul\":17581:17674   */\n      tag_273\n        /* \"#utility.yul\":17670:17673   */\n      dup3\n        /* \"#utility.yul\":17581:17674   */\n      tag_274\n      jump\t// in\n    tag_273:\n        /* \"#utility.yul\":17699:17701   */\n      0x2f\n        /* \"#utility.yul\":17694:17697   */\n      dup3\n        /* \"#utility.yul\":17690:17702   */\n      add\n        /* \"#utility.yul\":17683:17702   */\n      swap1\n      pop\n        /* \"#utility.yul\":17306:17708   */\n      swap2\n      swap1\n      pop\n      jump\t// out\n        /* \"#utility.yul\":17714:18116   */\n    tag_275:\n        /* \"#utility.yul\":17874:17877   */\n      0x00\n        /* \"#utility.yul\":17895:17980   */\n      tag_277\n        /* \"#utility.yul\":17977:17979   */\n      0x53\n        /* \"#utility.yul\":17972:17975   */\n      dup4\n        /* \"#utility.yul\":17895:17980   */\n      tag_163\n      jump\t// in\n    tag_277:\n        /* \"#utility.yul\":17888:17980   */\n      swap2\n      pop\n        /* \"#utility.yul\":17989:18082   */\n      tag_278\n        /* \"#utility.yul\":18078:18081   */\n      dup3\n        /* \"#utility.yul\":17989:18082   */\n      tag_279\n      jump\t// in\n    tag_278:\n        /* \"#utility.yul\":18107:18109   */\n      0x53\n        /* \"#utility.yul\":18102:18105   */\n      dup3\n        /* \"#utility.yul\":18098:18110   */\n      add\n        /* \"#utility.yul\":18091:18110   */\n      swap1\n      pop\n        /* \"#utility.yul\":17714:18116   */\n      swap2\n      swap1\n      pop\n      jump\t// out\n        /* \"#utility.yul\":18122:18524   */\n    tag_280:\n        /* \"#utility.yul\":18282:18285   */\n      0x00\n        /* \"#utility.yul\":18303:18388   */\n      tag_282\n        /* \"#utility.yul\":18385:18387   */\n      0x53\n        /* \"#utility.yul\":18380:18383   */\n      dup4\n        /* \"#utility.yul\":18303:18388   */\n      tag_163\n      jump\t// in\n    tag_282:\n        /* \"#utility.yul\":18296:18388   */\n      swap2\n      pop\n        /* \"#utility.yul\":18397:18490   */\n      tag_283\n        /* \"#utility.yul\":18486:18489   */\n      dup3\n        /* \"#utility.yul\":18397:18490   */\n      tag_284\n      jump\t// in\n    tag_283:\n        /* \"#utility.yul\":18515:18517   */\n      0x53\n        /* \"#utility.yul\":18510:18513   */\n      dup3\n        /* \"#utility.yul\":18506:18518   */\n      add\n        /* \"#utility.yul\":18499:18518   */\n      swap1\n      pop\n        /* \"#utility.yul\":18122:18524   */\n      swap2\n      swap1\n      pop\n      jump\t// out\n        /* \"#utility.yul\":18530:18932   */\n    tag_285:\n        /* \"#utility.yul\":18690:18693   */\n      0x00\n        /* \"#utility.yul\":18711:18796   */\n      tag_287\n        /* \"#utility.yul\":18793:18795   */\n      0x34\n        /* \"#utility.yul\":18788:18791   */\n      dup4\n        /* \"#utility.yul\":18711:18796   */\n      tag_163\n      jump\t// in\n    tag_287:\n        /* \"#utility.yul\":18704:18796   */\n      swap2\n      pop\n        /* \"#utility.yul\":18805:18898   */\n      tag_288\n        /* \"#utility.yul\":18894:18897   */\n      dup3\n        /* \"#utility.yul\":18805:18898   */\n      tag_289\n      jump\t// in\n    tag_288:\n        /* \"#utility.yul\":18923:18925   */\n      0x34\n        /* \"#utility.yul\":18918:18921   */\n      dup3\n        /* \"#utility.yul\":18914:18926   */\n      add\n        /* \"#utility.yul\":18907:18926   */\n      swap1\n      pop\n        /* \"#utility.yul\":18530:18932   */\n      swap2\n      swap1\n      pop\n      jump\t// out\n        /* \"#utility.yul\":18938:19340   */\n    tag_290:\n        /* \"#utility.yul\":19098:19101   */\n      0x00\n        /* \"#utility.yul\":19119:19204   */\n      tag_292\n        /* \"#utility.yul\":19201:19203   */\n      0x62\n        /* \"#utility.yul\":19196:19199   */\n      dup4\n        /* \"#utility.yul\":19119:19204   */\n      tag_163\n      jump\t// in\n    tag_292:\n        /* \"#utility.yul\":19112:19204   */\n      swap2\n      pop\n        /* \"#utility.yul\":19213:19306   */\n      tag_293\n        /* \"#utility.yul\":19302:19305   */\n      dup3\n        /* \"#utility.yul\":19213:19306   */\n      tag_294\n      jump\t// in\n    tag_293:\n        /* \"#utility.yul\":19331:19333   */\n      0x62\n        /* \"#utility.yul\":19326:19329   */\n      dup3\n        /* \"#utility.yul\":19322:19334   */\n      add\n        /* \"#utility.yul\":19315:19334   */\n      swap1\n      pop\n        /* \"#utility.yul\":18938:19340   */\n      swap2\n      swap1\n      pop\n      jump\t// out\n        /* \"#utility.yul\":19346:19748   */\n    tag_295:\n        /* \"#utility.yul\":19506:19509   */\n      0x00\n        /* \"#utility.yul\":19527:19612   */\n      tag_297\n        /* \"#utility.yul\":19609:19611   */\n      0x0b\n        /* \"#utility.yul\":19604:19607   */\n      dup4\n        /* \"#utility.yul\":19527:19612   */\n      tag_163\n      jump\t// in\n    tag_297:\n        /* \"#utility.yul\":19520:19612   */\n      swap2\n      pop\n        /* \"#utility.yul\":19621:19714   */\n      tag_298\n        /* \"#utility.yul\":19710:19713   */\n      dup3\n        /* \"#utility.yul\":19621:19714   */\n      tag_299\n      jump\t// in\n    tag_298:\n        /* \"#utility.yul\":19739:19741   */\n      0x0b\n        /* \"#utility.yul\":19734:19737   */\n      dup3\n        /* \"#utility.yul\":19730:19742   */\n      add\n        /* \"#utility.yul\":19723:19742   */\n      swap1\n      pop\n        /* \"#utility.yul\":19346:19748   */\n      swap2\n      swap1\n      pop\n      jump\t// out\n        /* \"#utility.yul\":19754:20156   */\n    tag_300:\n        /* \"#utility.yul\":19914:19917   */\n      0x00\n        /* \"#utility.yul\":19935:20020   */\n      tag_302\n        /* \"#utility.yul\":20017:20019   */\n      0x53\n        /* \"#utility.yul\":20012:20015   */\n      dup4\n        /* \"#utility.yul\":19935:20020   */\n      tag_163\n      jump\t// in\n    tag_302:\n        /* \"#utility.yul\":19928:20020   */\n      swap2\n      pop\n        /* \"#utility.yul\":20029:20122   */\n      tag_303\n        /* \"#utility.yul\":20118:20121   */\n      dup3\n        /* \"#utility.yul\":20029:20122   */\n      tag_304\n      jump\t// in\n    tag_303:\n        /* \"#utility.yul\":20147:20149   */\n      0x53\n        /* \"#utility.yul\":20142:20145   */\n      dup3\n        /* \"#utility.yul\":20138:20150   */\n      add\n        /* \"#utility.yul\":20131:20150   */\n      swap1\n      pop\n        /* \"#utility.yul\":19754:20156   */\n      swap2\n      swap1\n      pop\n      jump\t// out\n        /* \"#utility.yul\":20162:20566   */\n    tag_305:\n        /* \"#utility.yul\":20322:20325   */\n      0x00\n        /* \"#utility.yul\":20343:20429   */\n      tag_307\n        /* \"#utility.yul\":20425:20428   */\n      0x70\n        /* \"#utility.yul\":20420:20423   */\n      dup4\n        /* \"#utility.yul\":20343:20429   */\n      tag_163\n      jump\t// in\n    tag_307:\n        /* \"#utility.yul\":20336:20429   */\n      swap2\n      pop\n        /* \"#utility.yul\":20438:20531   */\n      tag_308\n        /* \"#utility.yul\":20527:20530   */\n      dup3\n        /* \"#utility.yul\":20438:20531   */\n      tag_309\n      jump\t// in\n    tag_308:\n        /* \"#utility.yul\":20556:20559   */\n      0x70\n        /* \"#utility.yul\":20551:20554   */\n      dup3\n        /* \"#utility.yul\":20547:20560   */\n      add\n        /* \"#utility.yul\":20540:20560   */\n      swap1\n      pop\n        /* \"#utility.yul\":20162:20566   */\n      swap2\n      swap1\n      pop\n      jump\t// out\n        /* \"#utility.yul\":20572:20972   */\n    tag_310:\n        /* \"#utility.yul\":20732:20735   */\n      0x00\n        /* \"#utility.yul\":20753:20837   */\n      tag_312\n        /* \"#utility.yul\":20835:20836   */\n      0x06\n        /* \"#utility.yul\":20830:20833   */\n      dup4\n        /* \"#utility.yul\":20753:20837   */\n      tag_163\n      jump\t// in\n    tag_312:\n        /* \"#utility.yul\":20746:20837   */\n      swap2\n      pop\n        /* \"#utility.yul\":20846:20939   */\n      tag_313\n        /* \"#utility.yul\":20935:20938   */\n      dup3\n        /* \"#utility.yul\":20846:20939   */\n      tag_314\n      jump\t// in\n    tag_313:\n        /* \"#utility.yul\":20964:20965   */\n      0x06\n        /* \"#utility.yul\":20959:20962   */\n      dup3\n        /* \"#utility.yul\":20955:20966   */\n      add\n        /* \"#utility.yul\":20948:20966   */\n      swap1\n      pop\n        /* \"#utility.yul\":20572:20972   */\n      swap2\n      swap1\n      pop\n      jump\t// out\n        /* \"#utility.yul\":20978:21380   */\n    tag_315:\n        /* \"#utility.yul\":21138:21141   */\n      0x00\n        /* \"#utility.yul\":21159:21244   */\n      tag_317\n        /* \"#utility.yul\":21241:21243   */\n      0x0a\n        /* \"#utility.yul\":21236:21239   */\n      dup4\n        /* \"#utility.yul\":21159:21244   */\n      tag_163\n      jump\t// in\n    tag_317:\n        /* \"#utility.yul\":21152:21244   */\n      swap2\n      pop\n        /* \"#utility.yul\":21253:21346   */\n      tag_318\n        /* \"#utility.yul\":21342:21345   */\n      dup3\n        /* \"#utility.yul\":21253:21346   */\n      tag_319\n      jump\t// in\n    tag_318:\n        /* \"#utility.yul\":21371:21373   */\n      0x0a\n        /* \"#utility.yul\":21366:21369   */\n      dup3\n        /* \"#utility.yul\":21362:21374   */\n      add\n        /* \"#utility.yul\":21355:21374   */\n      swap1\n      pop\n        /* \"#utility.yul\":20978:21380   */\n      swap2\n      swap1\n      pop\n      jump\t// out\n        /* \"#utility.yul\":21386:21788   */\n    tag_320:\n        /* \"#utility.yul\":21546:21549   */\n      0x00\n        /* \"#utility.yul\":21567:21652   */\n      tag_322\n        /* \"#utility.yul\":21649:21651   */\n      0x2e\n        /* \"#utility.yul\":21644:21647   */\n      dup4\n        /* \"#utility.yul\":21567:21652   */\n      tag_163\n      jump\t// in\n    tag_322:\n        /* \"#utility.yul\":21560:21652   */\n      swap2\n      pop\n        /* \"#utility.yul\":21661:21754   */\n      tag_323\n        /* \"#utility.yul\":21750:21753   */\n      dup3\n        /* \"#utility.yul\":21661:21754   */\n      tag_324\n      jump\t// in\n    tag_323:\n        /* \"#utility.yul\":21779:21781   */\n      0x2e\n        /* \"#utility.yul\":21774:21777   */\n      dup3\n        /* \"#utility.yul\":21770:21782   */\n      add\n        /* \"#utility.yul\":21763:21782   */\n      swap1\n      pop\n        /* \"#utility.yul\":21386:21788   */\n      swap2\n      swap1\n      pop\n      jump\t// out\n        /* \"#utility.yul\":21794:22194   */\n    tag_325:\n        /* \"#utility.yul\":21954:21957   */\n      0x00\n        /* \"#utility.yul\":21975:22059   */\n      tag_327\n        /* \"#utility.yul\":22057:22058   */\n      0x04\n        /* \"#utility.yul\":22052:22055   */\n      dup4\n        /* \"#utility.yul\":21975:22059   */\n      tag_163\n      jump\t// in\n    tag_327:\n        /* \"#utility.yul\":21968:22059   */\n      swap2\n      pop\n        /* \"#utility.yul\":22068:22161   */\n      tag_328\n        /* \"#utility.yul\":22157:22160   */\n      dup3\n        /* \"#utility.yul\":22068:22161   */\n      tag_329\n      jump\t// in\n    tag_328:\n        /* \"#utility.yul\":22186:22187   */\n      0x04\n        /* \"#utility.yul\":22181:22184   */\n      dup3\n        /* \"#utility.yul\":22177:22188   */\n      add\n        /* \"#utility.yul\":22170:22188   */\n      swap1\n      pop\n        /* \"#utility.yul\":21794:22194   */\n      swap2\n      swap1\n      pop\n      jump\t// out\n        /* \"#utility.yul\":22200:22602   */\n    tag_330:\n        /* \"#utility.yul\":22360:22363   */\n      0x00\n        /* \"#utility.yul\":22381:22466   */\n      tag_332\n        /* \"#utility.yul\":22463:22465   */\n      0x1a\n        /* \"#utility.yul\":22458:22461   */\n      dup4\n        /* \"#utility.yul\":22381:22466   */\n      tag_163\n      jump\t// in\n    tag_332:\n        /* \"#utility.yul\":22374:22466   */\n      swap2\n      pop\n        /* \"#utility.yul\":22475:22568   */\n      tag_333\n        /* \"#utility.yul\":22564:22567   */\n      dup3\n        /* \"#utility.yul\":22475:22568   */\n      tag_334\n      jump\t// in\n    tag_333:\n        /* \"#utility.yul\":22593:22595   */\n      0x1a\n        /* \"#utility.yul\":22588:22591   */\n      dup3\n        /* \"#utility.yul\":22584:22596   */\n      add\n        /* \"#utility.yul\":22577:22596   */\n      swap1\n      pop\n        /* \"#utility.yul\":22200:22602   */\n      swap2\n      swap1\n      pop\n      jump\t// out\n        /* \"#utility.yul\":22608:23010   */\n    tag_335:\n        /* \"#utility.yul\":22768:22771   */\n      0x00\n        /* \"#utility.yul\":22789:22874   */\n      tag_337\n        /* \"#utility.yul\":22871:22873   */\n      0x2b\n        /* \"#utility.yul\":22866:22869   */\n      dup4\n        /* \"#utility.yul\":22789:22874   */\n      tag_163\n      jump\t// in\n    tag_337:\n        /* \"#utility.yul\":22782:22874   */\n      swap2\n      pop\n        /* \"#utility.yul\":22883:22976   */\n      tag_338\n        /* \"#utility.yul\":22972:22975   */\n      dup3\n        /* \"#utility.yul\":22883:22976   */\n      tag_339\n      jump\t// in\n    tag_338:\n        /* \"#utility.yul\":23001:23003   */\n      0x2b\n        /* \"#utility.yul\":22996:22999   */\n      dup3\n        /* \"#utility.yul\":22992:23004   */\n      add\n        /* \"#utility.yul\":22985:23004   */\n      swap1\n      pop\n        /* \"#utility.yul\":22608:23010   */\n      swap2\n      swap1\n      pop\n      jump\t// out\n        /* \"#utility.yul\":23016:23418   */\n    tag_340:\n        /* \"#utility.yul\":23176:23179   */\n      0x00\n        /* \"#utility.yul\":23197:23282   */\n      tag_342\n        /* \"#utility.yul\":23279:23281   */\n      0x25\n        /* \"#utility.yul\":23274:23277   */\n      dup4\n        /* \"#utility.yul\":23197:23282   */\n      tag_163\n      jump\t// in\n    tag_342:\n        /* \"#utility.yul\":23190:23282   */\n      swap2\n      pop\n        /* \"#utility.yul\":23291:23384   */\n      tag_343\n        /* \"#utility.yul\":23380:23383   */\n      dup3\n        /* \"#utility.yul\":23291:23384   */\n      tag_344\n      jump\t// in\n    tag_343:\n        /* \"#utility.yul\":23409:23411   */\n      0x25\n        /* \"#utility.yul\":23404:23407   */\n      dup3\n        /* \"#utility.yul\":23400:23412   */\n      add\n        /* \"#utility.yul\":23393:23412   */\n      swap1\n      pop\n        /* \"#utility.yul\":23016:23418   */\n      swap2\n      swap1\n      pop\n      jump\t// out\n        /* \"#utility.yul\":23424:23826   */\n    tag_345:\n        /* \"#utility.yul\":23584:23587   */\n      0x00\n        /* \"#utility.yul\":23605:23690   */\n      tag_347\n        /* \"#utility.yul\":23687:23689   */\n      0x0b\n        /* \"#utility.yul\":23682:23685   */\n      dup4\n        /* \"#utility.yul\":23605:23690   */\n      tag_163\n      jump\t// in\n    tag_347:\n        /* \"#utility.yul\":23598:23690   */\n      swap2\n      pop\n        /* \"#utility.yul\":23699:23792   */\n      tag_348\n        /* \"#utility.yul\":23788:23791   */\n      dup3\n        /* \"#utility.yul\":23699:23792   */\n      tag_349\n      jump\t// in\n    tag_348:\n        /* \"#utility.yul\":23817:23819   */\n      0x0b\n        /* \"#utility.yul\":23812:23815   */\n      dup3\n        /* \"#utility.yul\":23808:23820   */\n      add\n        /* \"#utility.yul\":23801:23820   */\n      swap1\n      pop\n        /* \"#utility.yul\":23424:23826   */\n      swap2\n      swap1\n      pop\n      jump\t// out\n        /* \"#utility.yul\":23832:28047   */\n    tag_25:\n        /* \"#utility.yul\":25358:25361   */\n      0x00\n        /* \"#utility.yul\":25380:25528   */\n      tag_351\n        /* \"#utility.yul\":25524:25527   */\n      dup3\n        /* \"#utility.yul\":25380:25528   */\n      tag_205\n      jump\t// in\n    tag_351:\n        /* \"#utility.yul\":25373:25528   */\n      swap2\n      pop\n        /* \"#utility.yul\":25545:25640   */\n      tag_352\n        /* \"#utility.yul\":25636:25639   */\n      dup3\n        /* \"#utility.yul\":25627:25633   */\n      dup13\n        /* \"#utility.yul\":25545:25640   */\n      tag_159\n      jump\t// in\n    tag_352:\n        /* \"#utility.yul\":25538:25640   */\n      swap2\n      pop\n        /* \"#utility.yul\":25657:25805   */\n      tag_353\n        /* \"#utility.yul\":25801:25804   */\n      dup3\n        /* \"#utility.yul\":25657:25805   */\n      tag_305\n      jump\t// in\n    tag_353:\n        /* \"#utility.yul\":25650:25805   */\n      swap2\n      pop\n        /* \"#utility.yul\":25822:25917   */\n      tag_354\n        /* \"#utility.yul\":25913:25916   */\n      dup3\n        /* \"#utility.yul\":25904:25910   */\n      dup12\n        /* \"#utility.yul\":25822:25917   */\n      tag_159\n      jump\t// in\n    tag_354:\n        /* \"#utility.yul\":25815:25917   */\n      swap2\n      pop\n        /* \"#utility.yul\":25934:26082   */\n      tag_355\n        /* \"#utility.yul\":26078:26081   */\n      dup3\n        /* \"#utility.yul\":25934:26082   */\n      tag_170\n      jump\t// in\n    tag_355:\n        /* \"#utility.yul\":25927:26082   */\n      swap2\n      pop\n        /* \"#utility.yul\":26099:26194   */\n      tag_356\n        /* \"#utility.yul\":26190:26193   */\n      dup3\n        /* \"#utility.yul\":26181:26187   */\n      dup11\n        /* \"#utility.yul\":26099:26194   */\n      tag_159\n      jump\t// in\n    tag_356:\n        /* \"#utility.yul\":26092:26194   */\n      swap2\n      pop\n        /* \"#utility.yul\":26211:26359   */\n      tag_357\n        /* \"#utility.yul\":26355:26358   */\n      dup3\n        /* \"#utility.yul\":26211:26359   */\n      tag_215\n      jump\t// in\n    tag_357:\n        /* \"#utility.yul\":26204:26359   */\n      swap2\n      pop\n        /* \"#utility.yul\":26376:26471   */\n      tag_358\n        /* \"#utility.yul\":26467:26470   */\n      dup3\n        /* \"#utility.yul\":26458:26464   */\n      dup10\n        /* \"#utility.yul\":26376:26471   */\n      tag_159\n      jump\t// in\n    tag_358:\n        /* \"#utility.yul\":26369:26471   */\n      swap2\n      pop\n        /* \"#utility.yul\":26488:26636   */\n      tag_359\n        /* \"#utility.yul\":26632:26635   */\n      dup3\n        /* \"#utility.yul\":26488:26636   */\n      tag_285\n      jump\t// in\n    tag_359:\n        /* \"#utility.yul\":26481:26636   */\n      swap2\n      pop\n        /* \"#utility.yul\":26653:26748   */\n      tag_360\n        /* \"#utility.yul\":26744:26747   */\n      dup3\n        /* \"#utility.yul\":26735:26741   */\n      dup9\n        /* \"#utility.yul\":26653:26748   */\n      tag_159\n      jump\t// in\n    tag_360:\n        /* \"#utility.yul\":26646:26748   */\n      swap2\n      pop\n        /* \"#utility.yul\":26765:26913   */\n      tag_361\n        /* \"#utility.yul\":26909:26912   */\n      dup3\n        /* \"#utility.yul\":26765:26913   */\n      tag_225\n      jump\t// in\n    tag_361:\n        /* \"#utility.yul\":26758:26913   */\n      swap2\n      pop\n        /* \"#utility.yul\":26930:27025   */\n      tag_362\n        /* \"#utility.yul\":27021:27024   */\n      dup3\n        /* \"#utility.yul\":27012:27018   */\n      dup8\n        /* \"#utility.yul\":26930:27025   */\n      tag_159\n      jump\t// in\n    tag_362:\n        /* \"#utility.yul\":26923:27025   */\n      swap2\n      pop\n        /* \"#utility.yul\":27042:27190   */\n      tag_363\n        /* \"#utility.yul\":27186:27189   */\n      dup3\n        /* \"#utility.yul\":27042:27190   */\n      tag_335\n      jump\t// in\n    tag_363:\n        /* \"#utility.yul\":27035:27190   */\n      swap2\n      pop\n        /* \"#utility.yul\":27207:27302   */\n      tag_364\n        /* \"#utility.yul\":27298:27301   */\n      dup3\n        /* \"#utility.yul\":27289:27295   */\n      dup7\n        /* \"#utility.yul\":27207:27302   */\n      tag_159\n      jump\t// in\n    tag_364:\n        /* \"#utility.yul\":27200:27302   */\n      swap2\n      pop\n        /* \"#utility.yul\":27319:27467   */\n      tag_365\n        /* \"#utility.yul\":27463:27466   */\n      dup3\n        /* \"#utility.yul\":27319:27467   */\n      tag_320\n      jump\t// in\n    tag_365:\n        /* \"#utility.yul\":27312:27467   */\n      swap2\n      pop\n        /* \"#utility.yul\":27484:27579   */\n      tag_366\n        /* \"#utility.yul\":27575:27578   */\n      dup3\n        /* \"#utility.yul\":27566:27572   */\n      dup6\n        /* \"#utility.yul\":27484:27579   */\n      tag_159\n      jump\t// in\n    tag_366:\n        /* \"#utility.yul\":27477:27579   */\n      swap2\n      pop\n        /* \"#utility.yul\":27596:27744   */\n      tag_367\n        /* \"#utility.yul\":27740:27743   */\n      dup3\n        /* \"#utility.yul\":27596:27744   */\n      tag_255\n      jump\t// in\n    tag_367:\n        /* \"#utility.yul\":27589:27744   */\n      swap2\n      pop\n        /* \"#utility.yul\":27761:27856   */\n      tag_368\n        /* \"#utility.yul\":27852:27855   */\n      dup3\n        /* \"#utility.yul\":27843:27849   */\n      dup5\n        /* \"#utility.yul\":27761:27856   */\n      tag_159\n      jump\t// in\n    tag_368:\n        /* \"#utility.yul\":27754:27856   */\n      swap2\n      pop\n        /* \"#utility.yul\":27873:28021   */\n      tag_369\n        /* \"#utility.yul\":28017:28020   */\n      dup3\n        /* \"#utility.yul\":27873:28021   */\n      tag_325\n      jump\t// in\n    tag_369:\n        /* \"#utility.yul\":27866:28021   */\n      swap2\n      pop\n        /* \"#utility.yul\":28038:28041   */\n      dup2\n        /* \"#utility.yul\":28031:28041   */\n      swap1\n      pop\n        /* \"#utility.yul\":23832:28047   */\n      swap11\n      swap10\n      pop\n      pop\n      pop\n      pop\n      pop\n      pop\n      pop\n      pop\n      pop\n      pop\n      jump\t// out\n        /* \"#utility.yul\":28053:28594   */\n    tag_27:\n        /* \"#utility.yul\":28286:28289   */\n      0x00\n        /* \"#utility.yul\":28308:28456   */\n      tag_371\n        /* \"#utility.yul\":28452:28455   */\n      dup3\n        /* \"#utility.yul\":28308:28456   */\n      tag_265\n      jump\t// in\n    tag_371:\n        /* \"#utility.yul\":28301:28456   */\n      swap2\n      pop\n        /* \"#utility.yul\":28473:28568   */\n      tag_372\n        /* \"#utility.yul\":28564:28567   */\n      dup3\n        /* \"#utility.yul\":28555:28561   */\n      dup5\n        /* \"#utility.yul\":28473:28568   */\n      tag_159\n      jump\t// in\n    tag_372:\n        /* \"#utility.yul\":28466:28568   */\n      swap2\n      pop\n        /* \"#utility.yul\":28585:28588   */\n      dup2\n        /* \"#utility.yul\":28578:28588   */\n      swap1\n      pop\n        /* \"#utility.yul\":28053:28594   */\n      swap3\n      swap2\n      pop\n      pop\n      jump\t// out\n        /* \"#utility.yul\":28600:39039   */\n    tag_30:\n        /* \"#utility.yul\":32502:32505   */\n      0x00\n        /* \"#utility.yul\":32524:32672   */\n      tag_374\n        /* \"#utility.yul\":32668:32671   */\n      dup3\n        /* \"#utility.yul\":32524:32672   */\n      tag_290\n      jump\t// in\n    tag_374:\n        /* \"#utility.yul\":32517:32672   */\n      swap2\n      pop\n        /* \"#utility.yul\":32689:32837   */\n      tag_375\n        /* \"#utility.yul\":32833:32836   */\n      dup3\n        /* \"#utility.yul\":32689:32837   */\n      tag_260\n      jump\t// in\n    tag_375:\n        /* \"#utility.yul\":32682:32837   */\n      swap2\n      pop\n        /* \"#utility.yul\":32854:33002   */\n      tag_376\n        /* \"#utility.yul\":32998:33001   */\n      dup3\n        /* \"#utility.yul\":32854:33002   */\n      tag_270\n      jump\t// in\n    tag_376:\n        /* \"#utility.yul\":32847:33002   */\n      swap2\n      pop\n        /* \"#utility.yul\":33019:33167   */\n      tag_377\n        /* \"#utility.yul\":33163:33166   */\n      dup3\n        /* \"#utility.yul\":33019:33167   */\n      tag_210\n      jump\t// in\n    tag_377:\n        /* \"#utility.yul\":33012:33167   */\n      swap2\n      pop\n        /* \"#utility.yul\":33184:33332   */\n      tag_378\n        /* \"#utility.yul\":33328:33331   */\n      dup3\n        /* \"#utility.yul\":33184:33332   */\n      tag_345\n      jump\t// in\n    tag_378:\n        /* \"#utility.yul\":33177:33332   */\n      swap2\n      pop\n        /* \"#utility.yul\":33349:33497   */\n      tag_379\n        /* \"#utility.yul\":33493:33496   */\n      dup3\n        /* \"#utility.yul\":33349:33497   */\n      tag_235\n      jump\t// in\n    tag_379:\n        /* \"#utility.yul\":33342:33497   */\n      swap2\n      pop\n        /* \"#utility.yul\":33514:33662   */\n      tag_380\n        /* \"#utility.yul\":33658:33661   */\n      dup3\n        /* \"#utility.yul\":33514:33662   */\n      tag_245\n      jump\t// in\n    tag_380:\n        /* \"#utility.yul\":33507:33662   */\n      swap2\n      pop\n        /* \"#utility.yul\":33679:33827   */\n      tag_381\n        /* \"#utility.yul\":33823:33826   */\n      dup3\n        /* \"#utility.yul\":33679:33827   */\n      tag_340\n      jump\t// in\n    tag_381:\n        /* \"#utility.yul\":33672:33827   */\n      swap2\n      pop\n        /* \"#utility.yul\":33844:33992   */\n      tag_382\n        /* \"#utility.yul\":33988:33991   */\n      dup3\n        /* \"#utility.yul\":33844:33992   */\n      tag_235\n      jump\t// in\n    tag_382:\n        /* \"#utility.yul\":33837:33992   */\n      swap2\n      pop\n        /* \"#utility.yul\":34009:34157   */\n      tag_383\n        /* \"#utility.yul\":34153:34156   */\n      dup3\n        /* \"#utility.yul\":34009:34157   */\n      tag_195\n      jump\t// in\n    tag_383:\n        /* \"#utility.yul\":34002:34157   */\n      swap2\n      pop\n        /* \"#utility.yul\":34174:34322   */\n      tag_384\n        /* \"#utility.yul\":34318:34321   */\n      dup3\n        /* \"#utility.yul\":34174:34322   */\n      tag_295\n      jump\t// in\n    tag_384:\n        /* \"#utility.yul\":34167:34322   */\n      swap2\n      pop\n        /* \"#utility.yul\":34339:34434   */\n      tag_385\n        /* \"#utility.yul\":34430:34433   */\n      dup3\n        /* \"#utility.yul\":34421:34427   */\n      dup12\n        /* \"#utility.yul\":34339:34434   */\n      tag_159\n      jump\t// in\n    tag_385:\n        /* \"#utility.yul\":34332:34434   */\n      swap2\n      pop\n        /* \"#utility.yul\":34451:34599   */\n      tag_386\n        /* \"#utility.yul\":34595:34598   */\n      dup3\n        /* \"#utility.yul\":34451:34599   */\n      tag_235\n      jump\t// in\n    tag_386:\n        /* \"#utility.yul\":34444:34599   */\n      swap2\n      pop\n        /* \"#utility.yul\":34616:34764   */\n      tag_387\n        /* \"#utility.yul\":34760:34763   */\n      dup3\n        /* \"#utility.yul\":34616:34764   */\n      tag_175\n      jump\t// in\n    tag_387:\n        /* \"#utility.yul\":34609:34764   */\n      swap2\n      pop\n        /* \"#utility.yul\":34781:34929   */\n      tag_388\n        /* \"#utility.yul\":34925:34928   */\n      dup3\n        /* \"#utility.yul\":34781:34929   */\n      tag_315\n      jump\t// in\n    tag_388:\n        /* \"#utility.yul\":34774:34929   */\n      swap2\n      pop\n        /* \"#utility.yul\":34946:35041   */\n      tag_389\n        /* \"#utility.yul\":35037:35040   */\n      dup3\n        /* \"#utility.yul\":35028:35034   */\n      dup11\n        /* \"#utility.yul\":34946:35041   */\n      tag_159\n      jump\t// in\n    tag_389:\n        /* \"#utility.yul\":34939:35041   */\n      swap2\n      pop\n        /* \"#utility.yul\":35058:35206   */\n      tag_390\n        /* \"#utility.yul\":35202:35205   */\n      dup3\n        /* \"#utility.yul\":35058:35206   */\n      tag_235\n      jump\t// in\n    tag_390:\n        /* \"#utility.yul\":35051:35206   */\n      swap2\n      pop\n        /* \"#utility.yul\":35223:35371   */\n      tag_391\n        /* \"#utility.yul\":35367:35370   */\n      dup3\n        /* \"#utility.yul\":35223:35371   */\n      tag_275\n      jump\t// in\n    tag_391:\n        /* \"#utility.yul\":35216:35371   */\n      swap2\n      pop\n        /* \"#utility.yul\":35388:35536   */\n      tag_392\n        /* \"#utility.yul\":35532:35535   */\n      dup3\n        /* \"#utility.yul\":35388:35536   */\n      tag_165\n      jump\t// in\n    tag_392:\n        /* \"#utility.yul\":35381:35536   */\n      swap2\n      pop\n        /* \"#utility.yul\":35553:35648   */\n      tag_393\n        /* \"#utility.yul\":35644:35647   */\n      dup3\n        /* \"#utility.yul\":35635:35641   */\n      dup10\n        /* \"#utility.yul\":35553:35648   */\n      tag_159\n      jump\t// in\n    tag_393:\n        /* \"#utility.yul\":35546:35648   */\n      swap2\n      pop\n        /* \"#utility.yul\":35665:35813   */\n      tag_394\n        /* \"#utility.yul\":35809:35812   */\n      dup3\n        /* \"#utility.yul\":35665:35813   */\n      tag_235\n      jump\t// in\n    tag_394:\n        /* \"#utility.yul\":35658:35813   */\n      swap2\n      pop\n        /* \"#utility.yul\":35830:35978   */\n      tag_395\n        /* \"#utility.yul\":35974:35977   */\n      dup3\n        /* \"#utility.yul\":35830:35978   */\n      tag_180\n      jump\t// in\n    tag_395:\n        /* \"#utility.yul\":35823:35978   */\n      swap2\n      pop\n        /* \"#utility.yul\":35995:36143   */\n      tag_396\n        /* \"#utility.yul\":36139:36142   */\n      dup3\n        /* \"#utility.yul\":35995:36143   */\n      tag_190\n      jump\t// in\n    tag_396:\n        /* \"#utility.yul\":35988:36143   */\n      swap2\n      pop\n        /* \"#utility.yul\":36160:36255   */\n      tag_397\n        /* \"#utility.yul\":36251:36254   */\n      dup3\n        /* \"#utility.yul\":36242:36248   */\n      dup9\n        /* \"#utility.yul\":36160:36255   */\n      tag_159\n      jump\t// in\n    tag_397:\n        /* \"#utility.yul\":36153:36255   */\n      swap2\n      pop\n        /* \"#utility.yul\":36272:36420   */\n      tag_398\n        /* \"#utility.yul\":36416:36419   */\n      dup3\n        /* \"#utility.yul\":36272:36420   */\n      tag_235\n      jump\t// in\n    tag_398:\n        /* \"#utility.yul\":36265:36420   */\n      swap2\n      pop\n        /* \"#utility.yul\":36437:36585   */\n      tag_399\n        /* \"#utility.yul\":36581:36584   */\n      dup3\n        /* \"#utility.yul\":36437:36585   */\n      tag_300\n      jump\t// in\n    tag_399:\n        /* \"#utility.yul\":36430:36585   */\n      swap2\n      pop\n        /* \"#utility.yul\":36602:36750   */\n      tag_400\n        /* \"#utility.yul\":36746:36749   */\n      dup3\n        /* \"#utility.yul\":36602:36750   */\n      tag_240\n      jump\t// in\n    tag_400:\n        /* \"#utility.yul\":36595:36750   */\n      swap2\n      pop\n        /* \"#utility.yul\":36767:36862   */\n      tag_401\n        /* \"#utility.yul\":36858:36861   */\n      dup3\n        /* \"#utility.yul\":36849:36855   */\n      dup8\n        /* \"#utility.yul\":36767:36862   */\n      tag_159\n      jump\t// in\n    tag_401:\n        /* \"#utility.yul\":36760:36862   */\n      swap2\n      pop\n        /* \"#utility.yul\":36879:37027   */\n      tag_402\n        /* \"#utility.yul\":37023:37026   */\n      dup3\n        /* \"#utility.yul\":36879:37027   */\n      tag_235\n      jump\t// in\n    tag_402:\n        /* \"#utility.yul\":36872:37027   */\n      swap2\n      pop\n        /* \"#utility.yul\":37044:37192   */\n      tag_403\n        /* \"#utility.yul\":37188:37191   */\n      dup3\n        /* \"#utility.yul\":37044:37192   */\n      tag_185\n      jump\t// in\n    tag_403:\n        /* \"#utility.yul\":37037:37192   */\n      swap2\n      pop\n        /* \"#utility.yul\":37209:37357   */\n      tag_404\n        /* \"#utility.yul\":37353:37356   */\n      dup3\n        /* \"#utility.yul\":37209:37357   */\n      tag_220\n      jump\t// in\n    tag_404:\n        /* \"#utility.yul\":37202:37357   */\n      swap2\n      pop\n        /* \"#utility.yul\":37374:37469   */\n      tag_405\n        /* \"#utility.yul\":37465:37468   */\n      dup3\n        /* \"#utility.yul\":37456:37462   */\n      dup7\n        /* \"#utility.yul\":37374:37469   */\n      tag_159\n      jump\t// in\n    tag_405:\n        /* \"#utility.yul\":37367:37469   */\n      swap2\n      pop\n        /* \"#utility.yul\":37486:37634   */\n      tag_406\n        /* \"#utility.yul\":37630:37633   */\n      dup3\n        /* \"#utility.yul\":37486:37634   */\n      tag_235\n      jump\t// in\n    tag_406:\n        /* \"#utility.yul\":37479:37634   */\n      swap2\n      pop\n        /* \"#utility.yul\":37651:37799   */\n      tag_407\n        /* \"#utility.yul\":37795:37798   */\n      dup3\n        /* \"#utility.yul\":37651:37799   */\n      tag_230\n      jump\t// in\n    tag_407:\n        /* \"#utility.yul\":37644:37799   */\n      swap2\n      pop\n        /* \"#utility.yul\":37816:37964   */\n      tag_408\n        /* \"#utility.yul\":37960:37963   */\n      dup3\n        /* \"#utility.yul\":37816:37964   */\n      tag_250\n      jump\t// in\n    tag_408:\n        /* \"#utility.yul\":37809:37964   */\n      swap2\n      pop\n        /* \"#utility.yul\":37981:38076   */\n      tag_409\n        /* \"#utility.yul\":38072:38075   */\n      dup3\n        /* \"#utility.yul\":38063:38069   */\n      dup6\n        /* \"#utility.yul\":37981:38076   */\n      tag_159\n      jump\t// in\n    tag_409:\n        /* \"#utility.yul\":37974:38076   */\n      swap2\n      pop\n        /* \"#utility.yul\":38093:38241   */\n      tag_410\n        /* \"#utility.yul\":38237:38240   */\n      dup3\n        /* \"#utility.yul\":38093:38241   */\n      tag_235\n      jump\t// in\n    tag_410:\n        /* \"#utility.yul\":38086:38241   */\n      swap2\n      pop\n        /* \"#utility.yul\":38258:38406   */\n      tag_411\n        /* \"#utility.yul\":38402:38405   */\n      dup3\n        /* \"#utility.yul\":38258:38406   */\n      tag_280\n      jump\t// in\n    tag_411:\n        /* \"#utility.yul\":38251:38406   */\n      swap2\n      pop\n        /* \"#utility.yul\":38423:38571   */\n      tag_412\n        /* \"#utility.yul\":38567:38570   */\n      dup3\n        /* \"#utility.yul\":38423:38571   */\n      tag_200\n      jump\t// in\n    tag_412:\n        /* \"#utility.yul\":38416:38571   */\n      swap2\n      pop\n        /* \"#utility.yul\":38588:38683   */\n      tag_413\n        /* \"#utility.yul\":38679:38682   */\n      dup3\n        /* \"#utility.yul\":38670:38676   */\n      dup5\n        /* \"#utility.yul\":38588:38683   */\n      tag_159\n      jump\t// in\n    tag_413:\n        /* \"#utility.yul\":38581:38683   */\n      swap2\n      pop\n        /* \"#utility.yul\":38700:38848   */\n      tag_414\n        /* \"#utility.yul\":38844:38847   */\n      dup3\n        /* \"#utility.yul\":38700:38848   */\n      tag_235\n      jump\t// in\n    tag_414:\n        /* \"#utility.yul\":38693:38848   */\n      swap2\n      pop\n        /* \"#utility.yul\":38865:39013   */\n      tag_415\n        /* \"#utility.yul\":39009:39012   */\n      dup3\n        /* \"#utility.yul\":38865:39013   */\n      tag_310\n      jump\t// in\n    tag_415:\n        /* \"#utility.yul\":38858:39013   */\n      swap2\n      pop\n        /* \"#utility.yul\":39030:39033   */\n      dup2\n        /* \"#utility.yul\":39023:39033   */\n      swap1\n      pop\n        /* \"#utility.yul\":28600:39039   */\n      swap10\n      swap9\n      pop\n      pop\n      pop\n      pop\n      pop\n      pop\n      pop\n      pop\n      pop\n      jump\t// out\n        /* \"#utility.yul\":39045:39586   */\n    tag_33:\n        /* \"#utility.yul\":39278:39281   */\n      0x00\n        /* \"#utility.yul\":39300:39448   */\n      tag_417\n        /* \"#utility.yul\":39444:39447   */\n      dup3\n        /* \"#utility.yul\":39300:39448   */\n      tag_330\n      jump\t// in\n    tag_417:\n        /* \"#utility.yul\":39293:39448   */\n      swap2\n      pop\n        /* \"#utility.yul\":39465:39560   */\n      tag_418\n        /* \"#utility.yul\":39556:39559   */\n      dup3\n        /* \"#utility.yul\":39547:39553   */\n      dup5\n        /* \"#utility.yul\":39465:39560   */\n      tag_159\n      jump\t// in\n    tag_418:\n        /* \"#utility.yul\":39458:39560   */\n      swap2\n      pop\n        /* \"#utility.yul\":39577:39580   */\n      dup2\n        /* \"#utility.yul\":39570:39580   */\n      swap1\n      pop\n        /* \"#utility.yul\":39045:39586   */\n      swap3\n      swap2\n      pop\n      pop\n      jump\t// out\n        /* \"#utility.yul\":39592:39905   */\n    tag_11:\n        /* \"#utility.yul\":39705:39709   */\n      0x00\n        /* \"#utility.yul\":39743:39745   */\n      0x20\n        /* \"#utility.yul\":39732:39741   */\n      dup3\n        /* \"#utility.yul\":39728:39746   */\n      add\n        /* \"#utility.yul\":39720:39746   */\n      swap1\n      pop\n        /* \"#utility.yul\":39792:39801   */\n      dup2\n        /* \"#utility.yul\":39786:39790   */\n      dup2\n        /* \"#utility.yul\":39782:39802   */\n      sub\n        /* \"#utility.yul\":39778:39779   */\n      0x00\n        /* \"#utility.yul\":39767:39776   */\n      dup4\n        /* \"#utility.yul\":39763:39780   */\n      add\n        /* \"#utility.yul\":39756:39803   */\n      mstore\n        /* \"#utility.yul\":39820:39898   */\n      tag_420\n        /* \"#utility.yul\":39893:39897   */\n      dup2\n        /* \"#utility.yul\":39884:39890   */\n      dup5\n        /* \"#utility.yul\":39820:39898   */\n      tag_149\n      jump\t// in\n    tag_420:\n        /* \"#utility.yul\":39812:39898   */\n      swap1\n      pop\n        /* \"#utility.yul\":39592:39905   */\n      swap3\n      swap2\n      pop\n      pop\n      jump\t// out\n        /* \"#utility.yul\":39911:40040   */\n    tag_59:\n        /* \"#utility.yul\":39945:39951   */\n      0x00\n        /* \"#utility.yul\":39972:39992   */\n      tag_422\n      tag_423\n      jump\t// in\n    tag_422:\n        /* \"#utility.yul\":39962:39992   */\n      swap1\n      pop\n        /* \"#utility.yul\":40001:40034   */\n      tag_424\n        /* \"#utility.yul\":40029:40033   */\n      dup3\n        /* \"#utility.yul\":40021:40027   */\n      dup3\n        /* \"#utility.yul\":40001:40034   */\n      tag_425\n      jump\t// in\n    tag_424:\n        /* \"#utility.yul\":39911:40040   */\n      swap2\n      swap1\n      pop\n      jump\t// out\n        /* \"#utility.yul\":40046:40121   */\n    tag_423:\n        /* \"#utility.yul\":40079:40085   */\n      0x00\n        /* \"#utility.yul\":40112:40114   */\n      0x40\n        /* \"#utility.yul\":40106:40115   */\n      mload\n        /* \"#utility.yul\":40096:40115   */\n      swap1\n      pop\n        /* \"#utility.yul\":40046:40121   */\n      swap1\n      jump\t// out\n        /* \"#utility.yul\":40127:40434   */\n    tag_58:\n        /* \"#utility.yul\":40188:40192   */\n      0x00\n        /* \"#utility.yul\":40278:40296   */\n      0xffffffffffffffff\n        /* \"#utility.yul\":40270:40276   */\n      dup3\n        /* \"#utility.yul\":40267:40297   */\n      gt\n        /* \"#utility.yul\":40264:40320   */\n      iszero\n      tag_428\n      jumpi\n        /* \"#utility.yul\":40300:40318   */\n      tag_429\n      tag_45\n      jump\t// in\n    tag_429:\n        /* \"#utility.yul\":40264:40320   */\n    tag_428:\n        /* \"#utility.yul\":40338:40367   */\n      tag_430\n        /* \"#utility.yul\":40360:40366   */\n      dup3\n        /* \"#utility.yul\":40338:40367   */\n      tag_158\n      jump\t// in\n    tag_430:\n        /* \"#utility.yul\":40330:40367   */\n      swap1\n      pop\n        /* \"#utility.yul\":40422:40426   */\n      0x20\n        /* \"#utility.yul\":40416:40420   */\n      dup2\n        /* \"#utility.yul\":40412:40427   */\n      add\n        /* \"#utility.yul\":40404:40427   */\n      swap1\n      pop\n        /* \"#utility.yul\":40127:40434   */\n      swap2\n      swap1\n      pop\n      jump\t// out\n        /* \"#utility.yul\":40440:40748   */\n    tag_69:\n        /* \"#utility.yul\":40502:40506   */\n      0x00\n        /* \"#utility.yul\":40592:40610   */\n      0xffffffffffffffff\n        /* \"#utility.yul\":40584:40590   */\n      dup3\n        /* \"#utility.yul\":40581:40611   */\n      gt\n        /* \"#utility.yul\":40578:40634   */\n      iszero\n      tag_432\n      jumpi\n        /* \"#utility.yul\":40614:40632   */\n      tag_433\n      tag_45\n      jump\t// in\n    tag_433:\n        /* \"#utility.yul\":40578:40634   */\n    tag_432:\n        /* \"#utility.yul\":40652:40681   */\n      tag_434\n        /* \"#utility.yul\":40674:40680   */\n      dup3\n        /* \"#utility.yul\":40652:40681   */\n      tag_158\n      jump\t// in\n    tag_434:\n        /* \"#utility.yul\":40644:40681   */\n      swap1\n      pop\n        /* \"#utility.yul\":40736:40740   */\n      0x20\n        /* \"#utility.yul\":40730:40734   */\n      dup2\n        /* \"#utility.yul\":40726:40741   */\n      add\n        /* \"#utility.yul\":40718:40741   */\n      swap1\n      pop\n        /* \"#utility.yul\":40440:40748   */\n      swap2\n      swap1\n      pop\n      jump\t// out\n        /* \"#utility.yul\":40754:40853   */\n    tag_152:\n        /* \"#utility.yul\":40806:40812   */\n      0x00\n        /* \"#utility.yul\":40840:40845   */\n      dup2\n        /* \"#utility.yul\":40834:40846   */\n      mload\n        /* \"#utility.yul\":40824:40846   */\n      swap1\n      pop\n        /* \"#utility.yul\":40754:40853   */\n      swap2\n      swap1\n      pop\n      jump\t// out\n        /* \"#utility.yul\":40859:41028   */\n    tag_154:\n        /* \"#utility.yul\":40943:40954   */\n      0x00\n        /* \"#utility.yul\":40977:40983   */\n      dup3\n        /* \"#utility.yul\":40972:40975   */\n      dup3\n        /* \"#utility.yul\":40965:40984   */\n      mstore\n        /* \"#utility.yul\":41017:41021   */\n      0x20\n        /* \"#utility.yul\":41012:41015   */\n      dup3\n        /* \"#utility.yul\":41008:41022   */\n      add\n        /* \"#utility.yul\":40993:41022   */\n      swap1\n      pop\n        /* \"#utility.yul\":40859:41028   */\n      swap3\n      swap2\n      pop\n      pop\n      jump\t// out\n        /* \"#utility.yul\":41034:41182   */\n    tag_163:\n        /* \"#utility.yul\":41136:41147   */\n      0x00\n        /* \"#utility.yul\":41173:41176   */\n      dup2\n        /* \"#utility.yul\":41158:41176   */\n      swap1\n      pop\n        /* \"#utility.yul\":41034:41182   */\n      swap3\n      swap2\n      pop\n      pop\n      jump\t// out\n        /* \"#utility.yul\":41188:41493   */\n    tag_37:\n        /* \"#utility.yul\":41228:41231   */\n      0x00\n        /* \"#utility.yul\":41247:41267   */\n      tag_439\n        /* \"#utility.yul\":41265:41266   */\n      dup3\n        /* \"#utility.yul\":41247:41267   */\n      tag_440\n      jump\t// in\n    tag_439:\n        /* \"#utility.yul\":41242:41267   */\n      swap2\n      pop\n        /* \"#utility.yul\":41281:41301   */\n      tag_441\n        /* \"#utility.yul\":41299:41300   */\n      dup4\n        /* \"#utility.yul\":41281:41301   */\n      tag_440\n      jump\t// in\n    tag_441:\n        /* \"#utility.yul\":41276:41301   */\n      swap3\n      pop\n        /* \"#utility.yul\":41435:41436   */\n      dup3\n        /* \"#utility.yul\":41367:41433   */\n      0xffffffffffffffffffffffffffffffffffffffffffffffffffffffffffffffff\n        /* \"#utility.yul\":41363:41437   */\n      sub\n        /* \"#utility.yul\":41360:41361   */\n      dup3\n        /* \"#utility.yul\":41357:41438   */\n      gt\n        /* \"#utility.yul\":41354:41461   */\n      iszero\n      tag_442\n      jumpi\n        /* \"#utility.yul\":41441:41459   */\n      tag_443\n      tag_444\n      jump\t// in\n    tag_443:\n        /* \"#utility.yul\":41354:41461   */\n    tag_442:\n        /* \"#utility.yul\":41485:41486   */\n      dup3\n        /* \"#utility.yul\":41482:41483   */\n      dup3\n        /* \"#utility.yul\":41478:41487   */\n      add\n        /* \"#utility.yul\":41471:41487   */\n      swap1\n      pop\n        /* \"#utility.yul\":41188:41493   */\n      swap3\n      swap2\n      pop\n      pop\n      jump\t// out\n        /* \"#utility.yul\":41499:41684   */\n    tag_39:\n        /* \"#utility.yul\":41539:41540   */\n      0x00\n        /* \"#utility.yul\":41556:41576   */\n      tag_446\n        /* \"#utility.yul\":41574:41575   */\n      dup3\n        /* \"#utility.yul\":41556:41576   */\n      tag_440\n      jump\t// in\n    tag_446:\n        /* \"#utility.yul\":41551:41576   */\n      swap2\n      pop\n        /* \"#utility.yul\":41590:41610   */\n      tag_447\n        /* \"#utility.yul\":41608:41609   */\n      dup4\n        /* \"#utility.yul\":41590:41610   */\n      tag_440\n      jump\t// in\n    tag_447:\n        /* \"#utility.yul\":41585:41610   */\n      swap3\n      pop\n        /* \"#utility.yul\":41629:41630   */\n      dup3\n        /* \"#utility.yul\":41619:41654   */\n      tag_448\n      jumpi\n        /* \"#utility.yul\":41634:41652   */\n      tag_449\n      tag_450\n      jump\t// in\n    tag_449:\n        /* \"#utility.yul\":41619:41654   */\n    tag_448:\n        /* \"#utility.yul\":41676:41677   */\n      dup3\n        /* \"#utility.yul\":41673:41674   */\n      dup3\n        /* \"#utility.yul\":41669:41678   */\n      div\n        /* \"#utility.yul\":41664:41678   */\n      swap1\n      pop\n        /* \"#utility.yul\":41499:41684   */\n      swap3\n      swap2\n      pop\n      pop\n      jump\t// out\n        /* \"#utility.yul\":41690:42038   */\n    tag_41:\n        /* \"#utility.yul\":41730:41737   */\n      0x00\n        /* \"#utility.yul\":41753:41773   */\n      tag_452\n        /* \"#utility.yul\":41771:41772   */\n      dup3\n        /* \"#utility.yul\":41753:41773   */\n      tag_440\n      jump\t// in\n    tag_452:\n        /* \"#utility.yul\":41748:41773   */\n      swap2\n      pop\n        /* \"#utility.yul\":41787:41807   */\n      tag_453\n        /* \"#utility.yul\":41805:41806   */\n      dup4\n        /* \"#utility.yul\":41787:41807   */\n      tag_440\n      jump\t// in\n    tag_453:\n        /* \"#utility.yul\":41782:41807   */\n      swap3\n      pop\n        /* \"#utility.yul\":41975:41976   */\n      dup2\n        /* \"#utility.yul\":41907:41973   */\n      0xffffffffffffffffffffffffffffffffffffffffffffffffffffffffffffffff\n        /* \"#utility.yul\":41903:41977   */\n      div\n        /* \"#utility.yul\":41900:41901   */\n      dup4\n        /* \"#utility.yul\":41897:41978   */\n      gt\n        /* \"#utility.yul\":41892:41893   */\n      dup3\n        /* \"#utility.yul\":41885:41894   */\n      iszero\n        /* \"#utility.yul\":41878:41895   */\n      iszero\n        /* \"#utility.yul\":41874:41979   */\n      and\n        /* \"#utility.yul\":41871:42002   */\n      iszero\n      tag_454\n      jumpi\n        /* \"#utility.yul\":41982:42000   */\n      tag_455\n      tag_444\n      jump\t// in\n    tag_455:\n        /* \"#utility.yul\":41871:42002   */\n    tag_454:\n        /* \"#utility.yul\":42030:42031   */\n      dup3\n        /* \"#utility.yul\":42027:42028   */\n      dup3\n        /* \"#utility.yul\":42023:42032   */\n      mul\n        /* \"#utility.yul\":42012:42032   */\n      swap1\n      pop\n        /* \"#utility.yul\":41690:42038   */\n      swap3\n      swap2\n      pop\n      pop\n      jump\t// out\n        /* \"#utility.yul\":42044:42121   */\n    tag_440:\n        /* \"#utility.yul\":42081:42088   */\n      0x00\n        /* \"#utility.yul\":42110:42115   */\n      dup2\n        /* \"#utility.yul\":42099:42115   */\n      swap1\n      pop\n        /* \"#utility.yul\":42044:42121   */\n      swap2\n      swap1\n      pop\n      jump\t// out\n        /* \"#utility.yul\":42127:42281   */\n    tag_64:\n        /* \"#utility.yul\":42211:42217   */\n      dup3\n        /* \"#utility.yul\":42206:42209   */\n      dup2\n        /* \"#utility.yul\":42201:42204   */\n      dup4\n        /* \"#utility.yul\":42188:42218   */\n      calldatacopy\n        /* \"#utility.yul\":42273:42274   */\n      0x00\n        /* \"#utility.yul\":42264:42270   */\n      dup4\n        /* \"#utility.yul\":42259:42262   */\n      dup4\n        /* \"#utility.yul\":42255:42271   */\n      add\n        /* \"#utility.yul\":42248:42275   */\n      mstore\n        /* \"#utility.yul\":42127:42281   */\n      pop\n      pop\n      pop\n      jump\t// out\n        /* \"#utility.yul\":42287:42594   */\n    tag_156:\n        /* \"#utility.yul\":42355:42356   */\n      0x00\n        /* \"#utility.yul\":42365:42478   */\n    tag_459:\n        /* \"#utility.yul\":42379:42385   */\n      dup4\n        /* \"#utility.yul\":42376:42377   */\n      dup2\n        /* \"#utility.yul\":42373:42386   */\n      lt\n        /* \"#utility.yul\":42365:42478   */\n      iszero\n      tag_461\n      jumpi\n        /* \"#utility.yul\":42464:42465   */\n      dup1\n        /* \"#utility.yul\":42459:42462   */\n      dup3\n        /* \"#utility.yul\":42455:42466   */\n      add\n        /* \"#utility.yul\":42449:42467   */\n      mload\n        /* \"#utility.yul\":42445:42446   */\n      dup2\n        /* \"#utility.yul\":42440:42443   */\n      dup5\n        /* \"#utility.yul\":42436:42447   */\n      add\n        /* \"#utility.yul\":42429:42468   */\n      mstore\n        /* \"#utility.yul\":42401:42403   */\n      0x20\n        /* \"#utility.yul\":42398:42399   */\n      dup2\n        /* \"#utility.yul\":42394:42404   */\n      add\n        /* \"#utility.yul\":42389:42404   */\n      swap1\n      pop\n        /* \"#utility.yul\":42365:42478   */\n      jump(tag_459)\n    tag_461:\n        /* \"#utility.yul\":42496:42502   */\n      dup4\n        /* \"#utility.yul\":42493:42494   */\n      dup2\n        /* \"#utility.yul\":42490:42503   */\n      gt\n        /* \"#utility.yul\":42487:42588   */\n      iszero\n      tag_462\n      jumpi\n        /* \"#utility.yul\":42576:42577   */\n      0x00\n        /* \"#utility.yul\":42567:42573   */\n      dup5\n        /* \"#utility.yul\":42562:42565   */\n      dup5\n        /* \"#utility.yul\":42558:42574   */\n      add\n        /* \"#utility.yul\":42551:42578   */\n      mstore\n        /* \"#utility.yul\":42487:42588   */\n    tag_462:\n        /* \"#utility.yul\":42336:42594   */\n      pop\n        /* \"#utility.yul\":42287:42594   */\n      pop\n      pop\n      pop\n      jump\t// out\n        /* \"#utility.yul\":42600:42881   */\n    tag_425:\n        /* \"#utility.yul\":42683:42710   */\n      tag_464\n        /* \"#utility.yul\":42705:42709   */\n      dup3\n        /* \"#utility.yul\":42683:42710   */\n      tag_158\n      jump\t// in\n    tag_464:\n        /* \"#utility.yul\":42675:42681   */\n      dup2\n        /* \"#utility.yul\":42671:42711   */\n      add\n        /* \"#utility.yul\":42813:42819   */\n      dup2\n        /* \"#utility.yul\":42801:42811   */\n      dup2\n        /* \"#utility.yul\":42798:42820   */\n      lt\n        /* \"#utility.yul\":42777:42795   */\n      0xffffffffffffffff\n        /* \"#utility.yul\":42765:42775   */\n      dup3\n        /* \"#utility.yul\":42762:42796   */\n      gt\n        /* \"#utility.yul\":42759:42821   */\n      or\n        /* \"#utility.yul\":42756:42844   */\n      iszero\n      tag_465\n      jumpi\n        /* \"#utility.yul\":42824:42842   */\n      tag_466\n      tag_45\n      jump\t// in\n    tag_466:\n        /* \"#utility.yul\":42756:42844   */\n    tag_465:\n        /* \"#utility.yul\":42864:42874   */\n      dup1\n        /* \"#utility.yul\":42860:42862   */\n      0x40\n        /* \"#utility.yul\":42853:42875   */\n      mstore\n        /* \"#utility.yul\":42643:42881   */\n      pop\n        /* \"#utility.yul\":42600:42881   */\n      pop\n      pop\n      jump\t// out\n        /* \"#utility.yul\":42887:43067   */\n    tag_444:\n        /* \"#utility.yul\":42935:43012   */\n      0x4e487b7100000000000000000000000000000000000000000000000000000000\n        /* \"#utility.yul\":42932:42933   */\n      0x00\n        /* \"#utility.yul\":42925:43013   */\n      mstore\n        /* \"#utility.yul\":43032:43036   */\n      0x11\n        /* \"#utility.yul\":43029:43030   */\n      0x04\n        /* \"#utility.yul\":43022:43037   */\n      mstore\n        /* \"#utility.yul\":43056:43060   */\n      0x24\n        /* \"#utility.yul\":43053:43054   */\n      0x00\n        /* \"#utility.yul\":43046:43061   */\n      revert\n        /* \"#utility.yul\":43073:43253   */\n    tag_450:\n        /* \"#utility.yul\":43121:43198   */\n      0x4e487b7100000000000000000000000000000000000000000000000000000000\n        /* \"#utility.yul\":43118:43119   */\n      0x00\n        /* \"#utility.yul\":43111:43199   */\n      mstore\n        /* \"#utility.yul\":43218:43222   */\n      0x12\n        /* \"#utility.yul\":43215:43216   */\n      0x04\n        /* \"#utility.yul\":43208:43223   */\n      mstore\n        /* \"#utility.yul\":43242:43246   */\n      0x24\n        /* \"#utility.yul\":43239:43240   */\n      0x00\n        /* \"#utility.yul\":43232:43247   */\n      revert\n        /* \"#utility.yul\":43259:43439   */\n    tag_45:\n        /* \"#utility.yul\":43307:43384   */\n      0x4e487b7100000000000000000000000000000000000000000000000000000000\n        /* \"#utility.yul\":43304:43305   */\n      0x00\n        /* \"#utility.yul\":43297:43385   */\n      mstore\n        /* \"#utility.yul\":43404:43408   */\n      0x41\n        /* \"#utility.yul\":43401:43402   */\n      0x04\n        /* \"#utility.yul\":43394:43409   */\n      mstore\n        /* \"#utility.yul\":43428:43432   */\n      0x24\n        /* \"#utility.yul\":43425:43426   */\n      0x00\n        /* \"#utility.yul\":43418:43433   */\n      revert\n        /* \"#utility.yul\":43445:43562   */\n    tag_77:\n        /* \"#utility.yul\":43554:43555   */\n      0x00\n        /* \"#utility.yul\":43551:43552   */\n      dup1\n        /* \"#utility.yul\":43544:43556   */\n      revert\n        /* \"#utility.yul\":43568:43685   */\n    tag_62:\n        /* \"#utility.yul\":43677:43678   */\n      0x00\n        /* \"#utility.yul\":43674:43675   */\n      dup1\n        /* \"#utility.yul\":43667:43679   */\n      revert\n        /* \"#utility.yul\":43691:43808   */\n    tag_90:\n        /* \"#utility.yul\":43800:43801   */\n      0x00\n        /* \"#utility.yul\":43797:43798   */\n      dup1\n        /* \"#utility.yul\":43790:43802   */\n      revert\n        /* \"#utility.yul\":43814:43931   */\n    tag_87:\n        /* \"#utility.yul\":43923:43924   */\n      0x00\n        /* \"#utility.yul\":43920:43921   */\n      dup1\n        /* \"#utility.yul\":43913:43925   */\n      revert\n        /* \"#utility.yul\":43937:44039   */\n    tag_158:\n        /* \"#utility.yul\":43978:43984   */\n      0x00\n        /* \"#utility.yul\":44029:44031   */\n      0x1f\n        /* \"#utility.yul\":44025:44032   */\n      not\n        /* \"#utility.yul\":44020:44022   */\n      0x1f\n        /* \"#utility.yul\":44013:44018   */\n      dup4\n        /* \"#utility.yul\":44009:44023   */\n      add\n        /* \"#utility.yul\":44005:44033   */\n      and\n        /* \"#utility.yul\":43995:44033   */\n      swap1\n      pop\n        /* \"#utility.yul\":43937:44039   */\n      swap2\n      swap1\n      pop\n      jump\t// out\n        /* \"#utility.yul\":44045:44207   */\n    tag_169:\n        /* \"#utility.yul\":44185:44199   */\n      0x50657263656e746167653a200000000000000000000000000000000000000000\n        /* \"#utility.yul\":44181:44182   */\n      0x00\n        /* \"#utility.yul\":44173:44179   */\n      dup3\n        /* \"#utility.yul\":44169:44183   */\n      add\n        /* \"#utility.yul\":44162:44200   */\n      mstore\n        /* \"#utility.yul\":44045:44207   */\n      pop\n      jump\t// out\n        /* \"#utility.yul\":44213:44528   */\n    tag_174:\n        /* \"#utility.yul\":44353:44419   */\n      0x227d2c7b2274726169745f74797065223a20226d61747572697479222c227661\n        /* \"#utility.yul\":44349:44350   */\n      0x00\n        /* \"#utility.yul\":44341:44347   */\n      dup3\n        /* \"#utility.yul\":44337:44351   */\n      add\n        /* \"#utility.yul\":44330:44420   */\n      mstore\n        /* \"#utility.yul\":44454:44520   */\n      0x6c7565223a202200000000000000000000000000000000000000000000000000\n        /* \"#utility.yul\":44449:44451   */\n      0x20\n        /* \"#utility.yul\":44441:44447   */\n      dup3\n        /* \"#utility.yul\":44437:44452   */\n      add\n        /* \"#utility.yul\":44430:44521   */\n      mstore\n        /* \"#utility.yul\":44213:44528   */\n      pop\n      jump\t// out\n        /* \"#utility.yul\":44534:44950   */\n    tag_179:\n        /* \"#utility.yul\":44674:44740   */\n      0x3c7465787420783d223530252220793d223435252220636c6173733d22626173\n        /* \"#utility.yul\":44670:44671   */\n      0x00\n        /* \"#utility.yul\":44662:44668   */\n      dup3\n        /* \"#utility.yul\":44658:44672   */\n      add\n        /* \"#utility.yul\":44651:44741   */\n      mstore\n        /* \"#utility.yul\":44775:44841   */\n      0x652220646f6d696e616e742d626173656c696e653d226d6964646c6522207465\n        /* \"#utility.yul\":44770:44772   */\n      0x20\n        /* \"#utility.yul\":44762:44768   */\n      dup3\n        /* \"#utility.yul\":44758:44773   */\n      add\n        /* \"#utility.yul\":44751:44842   */\n      mstore\n        /* \"#utility.yul\":44876:44942   */\n      0x78742d616e63686f723d226d6964646c65223e00000000000000000000000000\n        /* \"#utility.yul\":44871:44873   */\n      0x40\n        /* \"#utility.yul\":44863:44869   */\n      dup3\n        /* \"#utility.yul\":44859:44874   */\n      add\n        /* \"#utility.yul\":44852:44943   */\n      mstore\n        /* \"#utility.yul\":44534:44950   */\n      pop\n      jump\t// out\n        /* \"#utility.yul\":44956:45372   */\n    tag_184:\n        /* \"#utility.yul\":45096:45162   */\n      0x3c7465787420783d223530252220793d223535252220636c6173733d22626173\n        /* \"#utility.yul\":45092:45093   */\n      0x00\n        /* \"#utility.yul\":45084:45090   */\n      dup3\n        /* \"#utility.yul\":45080:45094   */\n      add\n        /* \"#utility.yul\":45073:45163   */\n      mstore\n        /* \"#utility.yul\":45197:45263   */\n      0x652220646f6d696e616e742d626173656c696e653d226d6964646c6522207465\n        /* \"#utility.yul\":45192:45194   */\n      0x20\n        /* \"#utility.yul\":45184:45190   */\n      dup3\n        /* \"#utility.yul\":45180:45195   */\n      add\n        /* \"#utility.yul\":45173:45264   */\n      mstore\n        /* \"#utility.yul\":45298:45364   */\n      0x78742d616e63686f723d226d6964646c65223e00000000000000000000000000\n        /* \"#utility.yul\":45293:45295   */\n      0x40\n        /* \"#utility.yul\":45285:45291   */\n      dup3\n        /* \"#utility.yul\":45281:45296   */\n      add\n        /* \"#utility.yul\":45274:45365   */\n      mstore\n        /* \"#utility.yul\":44956:45372   */\n      pop\n      jump\t// out\n        /* \"#utility.yul\":45378:45794   */\n    tag_189:\n        /* \"#utility.yul\":45518:45584   */\n      0x3c7465787420783d223530252220793d223635252220636c6173733d22626173\n        /* \"#utility.yul\":45514:45515   */\n      0x00\n        /* \"#utility.yul\":45506:45512   */\n      dup3\n        /* \"#utility.yul\":45502:45516   */\n      add\n        /* \"#utility.yul\":45495:45585   */\n      mstore\n        /* \"#utility.yul\":45619:45685   */\n      0x652220646f6d696e616e742d626173656c696e653d226d6964646c6522207465\n        /* \"#utility.yul\":45614:45616   */\n      0x20\n        /* \"#utility.yul\":45606:45612   */\n      dup3\n        /* \"#utility.yul\":45602:45617   */\n      add\n        /* \"#utility.yul\":45595:45686   */\n      mstore\n        /* \"#utility.yul\":45720:45786   */\n      0x78742d616e63686f723d226d6964646c65223e00000000000000000000000000\n        /* \"#utility.yul\":45715:45717   */\n      0x40\n        /* \"#utility.yul\":45707:45713   */\n      dup3\n        /* \"#utility.yul\":45703:45718   */\n      add\n        /* \"#utility.yul\":45696:45787   */\n      mstore\n        /* \"#utility.yul\":45378:45794   */\n      pop\n      jump\t// out\n        /* \"#utility.yul\":45800:45972   */\n    tag_194:\n        /* \"#utility.yul\":45940:45964   */\n      0x4552433230436f6e7472616374416464726573733a2000000000000000000000\n        /* \"#utility.yul\":45936:45937   */\n      0x00\n        /* \"#utility.yul\":45928:45934   */\n      dup3\n        /* \"#utility.yul\":45924:45938   */\n      add\n        /* \"#utility.yul\":45917:45965   */\n      mstore\n        /* \"#utility.yul\":45800:45972   */\n      pop\n      jump\t// out\n        /* \"#utility.yul\":45978:46394   */\n    tag_199:\n        /* \"#utility.yul\":46118:46184   */\n      0x3c7465787420783d223530252220793d223430252220636c6173733d22626173\n        /* \"#utility.yul\":46114:46115   */\n      0x00\n        /* \"#utility.yul\":46106:46112   */\n      dup3\n        /* \"#utility.yul\":46102:46116   */\n      add\n        /* \"#utility.yul\":46095:46185   */\n      mstore\n        /* \"#utility.yul\":46219:46285   */\n      0x652220646f6d696e616e742d626173656c696e653d226d6964646c6522207465\n        /* \"#utility.yul\":46214:46216   */\n      0x20\n        /* \"#utility.yul\":46206:46212   */\n      dup3\n        /* \"#utility.yul\":46202:46217   */\n      add\n        /* \"#utility.yul\":46195:46286   */\n      mstore\n        /* \"#utility.yul\":46320:46386   */\n      0x78742d616e63686f723d226d6964646c65223e00000000000000000000000000\n        /* \"#utility.yul\":46315:46317   */\n      0x40\n        /* \"#utility.yul\":46307:46313   */\n      dup3\n        /* \"#utility.yul\":46303:46318   */\n      add\n        /* \"#utility.yul\":46296:46387   */\n      mstore\n        /* \"#utility.yul\":45978:46394   */\n      pop\n      jump\t// out\n        /* \"#utility.yul\":46400:46562   */\n    tag_204:\n        /* \"#utility.yul\":46540:46554   */\n      0x546f74616c436c61696d3a200000000000000000000000000000000000000000\n        /* \"#utility.yul\":46536:46537   */\n      0x00\n        /* \"#utility.yul\":46528:46534   */\n      dup3\n        /* \"#utility.yul\":46524:46538   */\n      add\n        /* \"#utility.yul\":46517:46555   */\n      mstore\n        /* \"#utility.yul\":46400:46562   */\n      pop\n      jump\t// out\n        /* \"#utility.yul\":46568:46883   */\n    tag_209:\n        /* \"#utility.yul\":46708:46774   */\n      0x7b226e616d65223a20224d7920436f6e7472616374222c22696d616765223a20\n        /* \"#utility.yul\":46704:46705   */\n      0x00\n        /* \"#utility.yul\":46696:46702   */\n      dup3\n        /* \"#utility.yul\":46692:46706   */\n      add\n        /* \"#utility.yul\":46685:46775   */\n      mstore\n        /* \"#utility.yul\":46809:46875   */\n      0x2200000000000000000000000000000000000000000000000000000000000000\n        /* \"#utility.yul\":46804:46806   */\n      0x20\n        /* \"#utility.yul\":46796:46802   */\n      dup3\n        /* \"#utility.yul\":46792:46807   */\n      add\n        /* \"#utility.yul\":46785:46876   */\n      mstore\n        /* \"#utility.yul\":46568:46883   */\n      pop\n      jump\t// out\n        /* \"#utility.yul\":46889:47305   */\n    tag_214:\n        /* \"#utility.yul\":47029:47095   */\n      0x3c7465787420783d223530252220793d223330252220636c6173733d22626173\n        /* \"#utility.yul\":47025:47026   */\n      0x00\n        /* \"#utility.yul\":47017:47023   */\n      dup3\n        /* \"#utility.yul\":47013:47027   */\n      add\n        /* \"#utility.yul\":47006:47096   */\n      mstore\n        /* \"#utility.yul\":47130:47196   */\n      0x652220646f6d696e616e742d626173656c696e653d226d6964646c6522207465\n        /* \"#utility.yul\":47125:47127   */\n      0x20\n        /* \"#utility.yul\":47117:47123   */\n      dup3\n        /* \"#utility.yul\":47113:47128   */\n      add\n        /* \"#utility.yul\":47106:47197   */\n      mstore\n        /* \"#utility.yul\":47231:47297   */\n      0x78742d616e63686f723d226d6964646c65223e00000000000000000000000000\n        /* \"#utility.yul\":47226:47228   */\n      0x40\n        /* \"#utility.yul\":47218:47224   */\n      dup3\n        /* \"#utility.yul\":47214:47229   */\n      add\n        /* \"#utility.yul\":47207:47298   */\n      mstore\n        /* \"#utility.yul\":46889:47305   */\n      pop\n      jump\t// out\n        /* \"#utility.yul\":47311:47626   */\n    tag_219:\n        /* \"#utility.yul\":47451:47517   */\n      0x227d2c7b2274726169745f74797065223a202270657263656e74616765222c22\n        /* \"#utility.yul\":47447:47448   */\n      0x00\n        /* \"#utility.yul\":47439:47445   */\n      dup3\n        /* \"#utility.yul\":47435:47449   */\n      add\n        /* \"#utility.yul\":47428:47518   */\n      mstore\n        /* \"#utility.yul\":47552:47618   */\n      0x76616c7565223a20220000000000000000000000000000000000000000000000\n        /* \"#utility.yul\":47547:47549   */\n      0x20\n        /* \"#utility.yul\":47539:47545   */\n      dup3\n        /* \"#utility.yul\":47535:47550   */\n      add\n        /* \"#utility.yul\":47528:47619   */\n      mstore\n        /* \"#utility.yul\":47311:47626   */\n      pop\n      jump\t// out\n        /* \"#utility.yul\":47632:47796   */\n    tag_224:\n        /* \"#utility.yul\":47772:47788   */\n      0x436f6e74726163744e616d653a20000000000000000000000000000000000000\n        /* \"#utility.yul\":47768:47769   */\n      0x00\n        /* \"#utility.yul\":47760:47766   */\n      dup3\n        /* \"#utility.yul\":47756:47770   */\n      add\n        /* \"#utility.yul\":47749:47789   */\n      mstore\n        /* \"#utility.yul\":47632:47796   */\n      pop\n      jump\t// out\n        /* \"#utility.yul\":47802:48117   */\n    tag_229:\n        /* \"#utility.yul\":47942:48008   */\n      0x227d2c7b2274726169745f74797065223a20224e4654436f6e74726163744164\n        /* \"#utility.yul\":47938:47939   */\n      0x00\n        /* \"#utility.yul\":47930:47936   */\n      dup3\n        /* \"#utility.yul\":47926:47940   */\n      add\n        /* \"#utility.yul\":47919:48009   */\n      mstore\n        /* \"#utility.yul\":48043:48109   */\n      0x6472657373222c2276616c7565223a2022000000000000000000000000000000\n        /* \"#utility.yul\":48038:48040   */\n      0x20\n        /* \"#utility.yul\":48030:48036   */\n      dup3\n        /* \"#utility.yul\":48026:48041   */\n      add\n        /* \"#utility.yul\":48019:48110   */\n      mstore\n        /* \"#utility.yul\":47802:48117   */\n      pop\n      jump\t// out\n        /* \"#utility.yul\":48123:48539   */\n    tag_234:\n        /* \"#utility.yul\":48263:48329   */\n      0x3c7465787420783d223530252220793d223730252220636c6173733d22626173\n        /* \"#utility.yul\":48259:48260   */\n      0x00\n        /* \"#utility.yul\":48251:48257   */\n      dup3\n        /* \"#utility.yul\":48247:48261   */\n      add\n        /* \"#utility.yul\":48240:48330   */\n      mstore\n        /* \"#utility.yul\":48364:48430   */\n      0x652220646f6d696e616e742d626173656c696e653d226d6964646c6522207465\n        /* \"#utility.yul\":48359:48361   */\n      0x20\n        /* \"#utility.yul\":48351:48357   */\n      dup3\n        /* \"#utility.yul\":48347:48362   */\n      add\n        /* \"#utility.yul\":48340:48431   */\n      mstore\n        /* \"#utility.yul\":48465:48531   */\n      0x78742d616e63686f723d226d6964646c65223e00000000000000000000000000\n        /* \"#utility.yul\":48460:48462   */\n      0x40\n        /* \"#utility.yul\":48452:48458   */\n      dup3\n        /* \"#utility.yul\":48448:48463   */\n      add\n        /* \"#utility.yul\":48441:48532   */\n      mstore\n        /* \"#utility.yul\":48123:48539   */\n      pop\n      jump\t// out\n        /* \"#utility.yul\":48545:48702   */\n    tag_239:\n        /* \"#utility.yul\":48685:48694   */\n      0x3c2f746578743e00000000000000000000000000000000000000000000000000\n        /* \"#utility.yul\":48681:48682   */\n      0x00\n        /* \"#utility.yul\":48673:48679   */\n      dup3\n        /* \"#utility.yul\":48669:48683   */\n      add\n        /* \"#utility.yul\":48662:48695   */\n      mstore\n        /* \"#utility.yul\":48545:48702   */\n      pop\n      jump\t// out\n        /* \"#utility.yul\":48708:48878   */\n    tag_244:\n        /* \"#utility.yul\":48848:48870   */\n      0x4e4654436f6e7472616374416464726573733a20000000000000000000000000\n        /* \"#utility.yul\":48844:48845   */\n      0x00\n        /* \"#utility.yul\":48836:48842   */\n      dup3\n        /* \"#utility.yul\":48832:48846   */\n      add\n        /* \"#utility.yul\":48825:48871   */\n      mstore\n        /* \"#utility.yul\":48708:48878   */\n      pop\n      jump\t// out\n        /* \"#utility.yul\":48884:49300   */\n    tag_249:\n        /* \"#utility.yul\":49024:49090   */\n      0x3c7465787420783d223530252220793d223335252220636c6173733d22626173\n        /* \"#utility.yul\":49020:49021   */\n      0x00\n        /* \"#utility.yul\":49012:49018   */\n      dup3\n        /* \"#utility.yul\":49008:49022   */\n      add\n        /* \"#utility.yul\":49001:49091   */\n      mstore\n        /* \"#utility.yul\":49125:49191   */\n      0x652220646f6d696e616e742d626173656c696e653d226d6964646c6522207465\n        /* \"#utility.yul\":49120:49122   */\n      0x20\n        /* \"#utility.yul\":49112:49118   */\n      dup3\n        /* \"#utility.yul\":49108:49123   */\n      add\n        /* \"#utility.yul\":49101:49192   */\n      mstore\n        /* \"#utility.yul\":49226:49292   */\n      0x78742d616e63686f723d226d6964646c65223e00000000000000000000000000\n        /* \"#utility.yul\":49221:49223   */\n      0x40\n        /* \"#utility.yul\":49213:49219   */\n      dup3\n        /* \"#utility.yul\":49209:49224   */\n      add\n        /* \"#utility.yul\":49202:49293   */\n      mstore\n        /* \"#utility.yul\":48884:49300   */\n      pop\n      jump\t// out\n        /* \"#utility.yul\":49306:49472   */\n    tag_254:\n        /* \"#utility.yul\":49446:49464   */\n      0x436f6e747261637453796d626f6c3a2000000000000000000000000000000000\n        /* \"#utility.yul\":49442:49443   */\n      0x00\n        /* \"#utility.yul\":49434:49440   */\n      dup3\n        /* \"#utility.yul\":49430:49444   */\n      add\n        /* \"#utility.yul\":49423:49465   */\n      mstore\n        /* \"#utility.yul\":49306:49472   */\n      pop\n      jump\t// out\n        /* \"#utility.yul\":49478:49793   */\n    tag_259:\n        /* \"#utility.yul\":49618:49684   */\n      0x227d2c7b2274726169745f74797065223a2022546f74616c436c61696d222c22\n        /* \"#utility.yul\":49614:49615   */\n      0x00\n        /* \"#utility.yul\":49606:49612   */\n      dup3\n        /* \"#utility.yul\":49602:49616   */\n      add\n        /* \"#utility.yul\":49595:49685   */\n      mstore\n        /* \"#utility.yul\":49719:49785   */\n      0x76616c7565223a20220000000000000000000000000000000000000000000000\n        /* \"#utility.yul\":49714:49716   */\n      0x20\n        /* \"#utility.yul\":49706:49712   */\n      dup3\n        /* \"#utility.yul\":49702:49717   */\n      add\n        /* \"#utility.yul\":49695:49786   */\n      mstore\n        /* \"#utility.yul\":49478:49793   */\n      pop\n      jump\t// out\n        /* \"#utility.yul\":49799:50101   */\n    tag_264:\n        /* \"#utility.yul\":49939:49973   */\n      0x3c7374796c653e2e62617365207b2066696c6c3a2077686974653b20666f6e74\n        /* \"#utility.yul\":49935:49936   */\n      0x00\n        /* \"#utility.yul\":49927:49933   */\n      dup3\n        /* \"#utility.yul\":49923:49937   */\n      add\n        /* \"#utility.yul\":49916:49974   */\n      mstore\n        /* \"#utility.yul\":50012:50046   */\n      0x2d66616d696c793a2073657269663b20666f6e742d73697a653a20313470783b\n        /* \"#utility.yul\":50007:50009   */\n      0x20\n        /* \"#utility.yul\":49999:50005   */\n      dup3\n        /* \"#utility.yul\":49995:50010   */\n      add\n        /* \"#utility.yul\":49988:50047   */\n      mstore\n        /* \"#utility.yul\":50081:50093   */\n      0x207d3c2f7374796c653e00000000000000000000000000000000000000000000\n        /* \"#utility.yul\":50076:50078   */\n      0x40\n        /* \"#utility.yul\":50068:50074   */\n      dup3\n        /* \"#utility.yul\":50064:50079   */\n      add\n        /* \"#utility.yul\":50057:50094   */\n      mstore\n        /* \"#utility.yul\":49799:50101   */\n      pop\n      jump\t// out\n        /* \"#utility.yul\":50107:50286   */\n    tag_269:\n        /* \"#utility.yul\":50247:50278   */\n      0x646174613a6170706c69636174696f6e2f6a736f6e3b6261736536342c000000\n        /* \"#utility.yul\":50243:50244   */\n      0x00\n        /* \"#utility.yul\":50235:50241   */\n      dup3\n        /* \"#utility.yul\":50231:50245   */\n      add\n        /* \"#utility.yul\":50224:50279   */\n      mstore\n        /* \"#utility.yul\":50107:50286   */\n      pop\n      jump\t// out\n        /* \"#utility.yul\":50292:50607   */\n    tag_274:\n        /* \"#utility.yul\":50432:50498   */\n      0x3c726563742077696474683d223130302522206865696768743d223130302522\n        /* \"#utility.yul\":50428:50429   */\n      0x00\n        /* \"#utility.yul\":50420:50426   */\n      dup3\n        /* \"#utility.yul\":50416:50430   */\n      add\n        /* \"#utility.yul\":50409:50499   */\n      mstore\n        /* \"#utility.yul\":50533:50599   */\n      0x2066696c6c3d22626c756522202f3e0000000000000000000000000000000000\n        /* \"#utility.yul\":50528:50530   */\n      0x20\n        /* \"#utility.yul\":50520:50526   */\n      dup3\n        /* \"#utility.yul\":50516:50531   */\n      add\n        /* \"#utility.yul\":50509:50600   */\n      mstore\n        /* \"#utility.yul\":50292:50607   */\n      pop\n      jump\t// out\n        /* \"#utility.yul\":50613:51029   */\n    tag_279:\n        /* \"#utility.yul\":50753:50819   */\n      0x3c7465787420783d223530252220793d223530252220636c6173733d22626173\n        /* \"#utility.yul\":50749:50750   */\n      0x00\n        /* \"#utility.yul\":50741:50747   */\n      dup3\n        /* \"#utility.yul\":50737:50751   */\n      add\n        /* \"#utility.yul\":50730:50820   */\n      mstore\n        /* \"#utility.yul\":50854:50920   */\n      0x652220646f6d696e616e742d626173656c696e653d226d6964646c6522207465\n        /* \"#utility.yul\":50849:50851   */\n      0x20\n        /* \"#utility.yul\":50841:50847   */\n      dup3\n        /* \"#utility.yul\":50837:50852   */\n      add\n        /* \"#utility.yul\":50830:50921   */\n      mstore\n        /* \"#utility.yul\":50955:51021   */\n      0x78742d616e63686f723d226d6964646c65223e00000000000000000000000000\n        /* \"#utility.yul\":50950:50952   */\n      0x40\n        /* \"#utility.yul\":50942:50948   */\n      dup3\n        /* \"#utility.yul\":50938:50953   */\n      add\n        /* \"#utility.yul\":50931:51022   */\n      mstore\n        /* \"#utility.yul\":50613:51029   */\n      pop\n      jump\t// out\n        /* \"#utility.yul\":51035:51451   */\n    tag_284:\n        /* \"#utility.yul\":51175:51241   */\n      0x3c7465787420783d223530252220793d223735252220636c6173733d22626173\n        /* \"#utility.yul\":51171:51172   */\n      0x00\n        /* \"#utility.yul\":51163:51169   */\n      dup3\n        /* \"#utility.yul\":51159:51173   */\n      add\n        /* \"#utility.yul\":51152:51242   */\n      mstore\n        /* \"#utility.yul\":51276:51342   */\n      0x652220646f6d696e616e742d626173656c696e653d226d6964646c6522207465\n        /* \"#utility.yul\":51271:51273   */\n      0x20\n        /* \"#utility.yul\":51263:51269   */\n      dup3\n        /* \"#utility.yul\":51259:51274   */\n      add\n        /* \"#utility.yul\":51252:51343   */\n      mstore\n        /* \"#utility.yul\":51377:51443   */\n      0x78742d616e63686f723d226d6964646c65223e00000000000000000000000000\n        /* \"#utility.yul\":51372:51374   */\n      0x40\n        /* \"#utility.yul\":51364:51370   */\n      dup3\n        /* \"#utility.yul\":51360:51375   */\n      add\n        /* \"#utility.yul\":51353:51444   */\n      mstore\n        /* \"#utility.yul\":51035:51451   */\n      pop\n      jump\t// out\n        /* \"#utility.yul\":51457:51772   */\n    tag_289:\n        /* \"#utility.yul\":51597:51663   */\n      0x227d2c7b202274726169745f74797065223a20224552433230436f6e74726163\n        /* \"#utility.yul\":51593:51594   */\n      0x00\n        /* \"#utility.yul\":51585:51591   */\n      dup3\n        /* \"#utility.yul\":51581:51595   */\n      add\n        /* \"#utility.yul\":51574:51664   */\n      mstore\n        /* \"#utility.yul\":51698:51764   */\n      0x7441646472657373222c2276616c7565223a2022000000000000000000000000\n        /* \"#utility.yul\":51693:51695   */\n      0x20\n        /* \"#utility.yul\":51685:51691   */\n      dup3\n        /* \"#utility.yul\":51681:51696   */\n      add\n        /* \"#utility.yul\":51674:51765   */\n      mstore\n        /* \"#utility.yul\":51457:51772   */\n      pop\n      jump\t// out\n        /* \"#utility.yul\":51778:52295   */\n    tag_294:\n        /* \"#utility.yul\":51918:51984   */\n      0x3c73766720786d6c6e733d22687474703a2f2f7777772e77332e6f72672f3230\n        /* \"#utility.yul\":51914:51915   */\n      0x00\n        /* \"#utility.yul\":51906:51912   */\n      dup3\n        /* \"#utility.yul\":51902:51916   */\n      add\n        /* \"#utility.yul\":51895:51985   */\n      mstore\n        /* \"#utility.yul\":52019:52085   */\n      0x30302f73766722207072657365727665417370656374526174696f3d22784d69\n        /* \"#utility.yul\":52014:52016   */\n      0x20\n        /* \"#utility.yul\":52006:52012   */\n      dup3\n        /* \"#utility.yul\":52002:52017   */\n      add\n        /* \"#utility.yul\":51995:52086   */\n      mstore\n        /* \"#utility.yul\":52120:52186   */\n      0x6e594d696e206d656574222076696577426f783d223020302035303020353030\n        /* \"#utility.yul\":52115:52117   */\n      0x40\n        /* \"#utility.yul\":52107:52113   */\n      dup3\n        /* \"#utility.yul\":52103:52118   */\n      add\n        /* \"#utility.yul\":52096:52187   */\n      mstore\n        /* \"#utility.yul\":52221:52287   */\n      0x223e000000000000000000000000000000000000000000000000000000000000\n        /* \"#utility.yul\":52216:52218   */\n      0x60\n        /* \"#utility.yul\":52208:52214   */\n      dup3\n        /* \"#utility.yul\":52204:52219   */\n      add\n        /* \"#utility.yul\":52197:52288   */\n      mstore\n        /* \"#utility.yul\":51778:52295   */\n      pop\n      jump\t// out\n        /* \"#utility.yul\":52301:52462   */\n    tag_299:\n        /* \"#utility.yul\":52441:52454   */\n      0x4465706f73697465643a20000000000000000000000000000000000000000000\n        /* \"#utility.yul\":52437:52438   */\n      0x00\n        /* \"#utility.yul\":52429:52435   */\n      dup3\n        /* \"#utility.yul\":52425:52439   */\n      add\n        /* \"#utility.yul\":52418:52455   */\n      mstore\n        /* \"#utility.yul\":52301:52462   */\n      pop\n      jump\t// out\n        /* \"#utility.yul\":52468:52884   */\n    tag_304:\n        /* \"#utility.yul\":52608:52674   */\n      0x3c7465787420783d223530252220793d223630252220636c6173733d22626173\n        /* \"#utility.yul\":52604:52605   */\n      0x00\n        /* \"#utility.yul\":52596:52602   */\n      dup3\n        /* \"#utility.yul\":52592:52606   */\n      add\n        /* \"#utility.yul\":52585:52675   */\n      mstore\n        /* \"#utility.yul\":52709:52775   */\n      0x652220646f6d696e616e742d626173656c696e653d226d6964646c6522207465\n        /* \"#utility.yul\":52704:52706   */\n      0x20\n        /* \"#utility.yul\":52696:52702   */\n      dup3\n        /* \"#utility.yul\":52692:52707   */\n      add\n        /* \"#utility.yul\":52685:52776   */\n      mstore\n        /* \"#utility.yul\":52810:52876   */\n      0x78742d616e63686f723d226d6964646c65223e00000000000000000000000000\n        /* \"#utility.yul\":52805:52807   */\n      0x40\n        /* \"#utility.yul\":52797:52803   */\n      dup3\n        /* \"#utility.yul\":52793:52808   */\n      add\n        /* \"#utility.yul\":52786:52877   */\n      mstore\n        /* \"#utility.yul\":52468:52884   */\n      pop\n      jump\t// out\n        /* \"#utility.yul\":52890:53407   */\n    tag_309:\n        /* \"#utility.yul\":53030:53096   */\n      0x22202c226465736372697074696f6e223a202254686973206973206465706f73\n        /* \"#utility.yul\":53026:53027   */\n      0x00\n        /* \"#utility.yul\":53018:53024   */\n      dup3\n        /* \"#utility.yul\":53014:53028   */\n      add\n        /* \"#utility.yul\":53007:53097   */\n      mstore\n        /* \"#utility.yul\":53131:53197   */\n      0x697420616e6420776974686472617720636f6e7472616374222c202261747472\n        /* \"#utility.yul\":53126:53128   */\n      0x20\n        /* \"#utility.yul\":53118:53124   */\n      dup3\n        /* \"#utility.yul\":53114:53129   */\n      add\n        /* \"#utility.yul\":53107:53198   */\n      mstore\n        /* \"#utility.yul\":53232:53298   */\n      0x696275746573223a205b7b202274726169745f74797065223a20226465706f73\n        /* \"#utility.yul\":53227:53229   */\n      0x40\n        /* \"#utility.yul\":53219:53225   */\n      dup3\n        /* \"#utility.yul\":53215:53230   */\n      add\n        /* \"#utility.yul\":53208:53299   */\n      mstore\n        /* \"#utility.yul\":53333:53399   */\n      0x69746564222c2276616c7565223a202200000000000000000000000000000000\n        /* \"#utility.yul\":53328:53330   */\n      0x60\n        /* \"#utility.yul\":53320:53326   */\n      dup3\n        /* \"#utility.yul\":53316:53331   */\n      add\n        /* \"#utility.yul\":53309:53400   */\n      mstore\n        /* \"#utility.yul\":52890:53407   */\n      pop\n      jump\t// out\n        /* \"#utility.yul\":53413:53569   */\n    tag_314:\n        /* \"#utility.yul\":53553:53561   */\n      0x3c2f7376673e0000000000000000000000000000000000000000000000000000\n        /* \"#utility.yul\":53549:53550   */\n      0x00\n        /* \"#utility.yul\":53541:53547   */\n      dup3\n        /* \"#utility.yul\":53537:53551   */\n      add\n        /* \"#utility.yul\":53530:53562   */\n      mstore\n        /* \"#utility.yul\":53413:53569   */\n      pop\n      jump\t// out\n        /* \"#utility.yul\":53575:53735   */\n    tag_319:\n        /* \"#utility.yul\":53715:53727   */\n      0x4d617475726974793a2000000000000000000000000000000000000000000000\n        /* \"#utility.yul\":53711:53712   */\n      0x00\n        /* \"#utility.yul\":53703:53709   */\n      dup3\n        /* \"#utility.yul\":53699:53713   */\n      add\n        /* \"#utility.yul\":53692:53728   */\n      mstore\n        /* \"#utility.yul\":53575:53735   */\n      pop\n      jump\t// out\n        /* \"#utility.yul\":53741:54056   */\n    tag_324:\n        /* \"#utility.yul\":53881:53947   */\n      0x227d2c7b202274726169745f74797065223a2022436f6e747261637453796d62\n        /* \"#utility.yul\":53877:53878   */\n      0x00\n        /* \"#utility.yul\":53869:53875   */\n      dup3\n        /* \"#utility.yul\":53865:53879   */\n      add\n        /* \"#utility.yul\":53858:53948   */\n      mstore\n        /* \"#utility.yul\":53982:54048   */\n      0x6f6c222c2276616c7565223a2022000000000000000000000000000000000000\n        /* \"#utility.yul\":53977:53979   */\n      0x20\n        /* \"#utility.yul\":53969:53975   */\n      dup3\n        /* \"#utility.yul\":53965:53980   */\n      add\n        /* \"#utility.yul\":53958:54049   */\n      mstore\n        /* \"#utility.yul\":53741:54056   */\n      pop\n      jump\t// out\n        /* \"#utility.yul\":54062:54276   */\n    tag_329:\n        /* \"#utility.yul\":54202:54268   */\n      0x227d5d7d00000000000000000000000000000000000000000000000000000000\n        /* \"#utility.yul\":54198:54199   */\n      0x00\n        /* \"#utility.yul\":54190:54196   */\n      dup3\n        /* \"#utility.yul\":54186:54200   */\n      add\n        /* \"#utility.yul\":54179:54269   */\n      mstore\n        /* \"#utility.yul\":54062:54276   */\n      pop\n      jump\t// out\n        /* \"#utility.yul\":54282:54458   */\n    tag_334:\n        /* \"#utility.yul\":54422:54450   */\n      0x646174613a696d6167652f7376672b786d6c3b6261736536342c000000000000\n        /* \"#utility.yul\":54418:54419   */\n      0x00\n        /* \"#utility.yul\":54410:54416   */\n      dup3\n        /* \"#utility.yul\":54406:54420   */\n      add\n        /* \"#utility.yul\":54399:54451   */\n      mstore\n        /* \"#utility.yul\":54282:54458   */\n      pop\n      jump\t// out\n        /* \"#utility.yul\":54464:54779   */\n    tag_339:\n        /* \"#utility.yul\":54604:54670   */\n      0x227d2c7b2274726169745f74797065223a2022436f6e74726163744e616d6522\n        /* \"#utility.yul\":54600:54601   */\n      0x00\n        /* \"#utility.yul\":54592:54598   */\n      dup3\n        /* \"#utility.yul\":54588:54602   */\n      add\n        /* \"#utility.yul\":54581:54671   */\n      mstore\n        /* \"#utility.yul\":54705:54771   */\n      0x2c2276616c7565223a2022000000000000000000000000000000000000000000\n        /* \"#utility.yul\":54700:54702   */\n      0x20\n        /* \"#utility.yul\":54692:54698   */\n      dup3\n        /* \"#utility.yul\":54688:54703   */\n      add\n        /* \"#utility.yul\":54681:54772   */\n      mstore\n        /* \"#utility.yul\":54464:54779   */\n      pop\n      jump\t// out\n        /* \"#utility.yul\":54785:55009   */\n    tag_344:\n        /* \"#utility.yul\":54925:54959   */\n      0x54686973206973206465706f73697420616e6420776974686472617720636f6e\n        /* \"#utility.yul\":54921:54922   */\n      0x00\n        /* \"#utility.yul\":54913:54919   */\n      dup3\n        /* \"#utility.yul\":54909:54923   */\n      add\n        /* \"#utility.yul\":54902:54960   */\n      mstore\n        /* \"#utility.yul\":54994:55001   */\n      0x7472616374000000000000000000000000000000000000000000000000000000\n        /* \"#utility.yul\":54989:54991   */\n      0x20\n        /* \"#utility.yul\":54981:54987   */\n      dup3\n        /* \"#utility.yul\":54977:54992   */\n      add\n        /* \"#utility.yul\":54970:55002   */\n      mstore\n        /* \"#utility.yul\":54785:55009   */\n      pop\n      jump\t// out\n        /* \"#utility.yul\":55015:55176   */\n    tag_349:\n        /* \"#utility.yul\":55155:55168   */\n      0x4d7920436f6e7472616374000000000000000000000000000000000000000000\n        /* \"#utility.yul\":55151:55152   */\n      0x00\n        /* \"#utility.yul\":55143:55149   */\n      dup3\n        /* \"#utility.yul\":55139:55153   */\n      add\n        /* \"#utility.yul\":55132:55169   */\n      mstore\n        /* \"#utility.yul\":55015:55176   */\n      pop\n      jump\t// out\n    stop\n    data_84d8a590de33e00cbdc16e1f28c3506f5ec15c599fab9a6a4bcd575cc2f110ce 4142434445464748494a4b4c4d4e4f505152535455565758595a6162636465666768696a6b6c6d6e6f707172737475767778797a303132333435363738392b2f\n\n    auxdata: 0xa264697066735822122066808dadc27272d7935ff847c4ad8adc13f10110b7a5af6d54870ffdc1c2b7e264736f6c63430008070033\n}\n",
				"bytecode": {
					"linkReferences": {},
					"object": "608060405234801561001057600080fd5b50611f3f806100206000396000f3fe608060405234801561001057600080fd5b50600436106100415760003560e01c8063058a6be5146100465780630a7674901461007657806312496a1b146100a6575b600080fd5b610060600480360381019061005b9190610600565b6100d6565b60405161006d9190611058565b60405180910390f35b610090600480360381019061008b919061046a565b61013e565b60405161009d9190611058565b60405180910390f35b6100c060048036038101906100bb9190610421565b6101a9565b6040516100cd9190611058565b60405180910390f35b6060610110828b8b8b8b8b8b8b8b6040516020016100fc99989796959493929190610d3f565b6040516020818303038152906040526101a9565b6040516020016101209190610e2c565b60405160208183030381529060405290509998505050505050505050565b606060008989898989898989604051602001610161989796959493929190610e4e565b604051602081830303815290604052905061017b816101a9565b60405160200161018b9190611036565b60405160208183030381529060405291505098975050505050505050565b606060008251905060008114156101d2576040518060200160405280600081525091505061033c565b600060036002836101e39190611128565b6101ed919061117e565b60046101f991906111af565b9050600060208261020a9190611128565b67ffffffffffffffff811115610223576102226112e4565b5b6040519080825280601f01601f1916602001820160405280156102555781602001600182028036833780820191505090505b5090506000604051806060016040528060408152602001611eca604091399050600181016020830160005b868110156102f95760038101905062ffffff818a015116603f8160121c168401518060081b905060ff603f83600c1c1686015116810190508060081b905060ff603f8360061c1686015116810190508060081b905060ff603f831686015116810190508060e01b90508084526004840193505050610280565b50600386066001811461031357600281146103235761032e565b613d3d60f01b600283035261032e565b603d60f81b60018303525b508484525050819450505050505b919050565b600061035461034f8461109f565b61107a565b9050828152602081018484840111156103705761036f611318565b5b61037b848285611213565b509392505050565b6000610396610391846110d0565b61107a565b9050828152602081018484840111156103b2576103b1611318565b5b6103bd848285611213565b509392505050565b600082601f8301126103da576103d9611313565b5b81356103ea848260208601610341565b91505092915050565b600082601f83011261040857610407611313565b5b8135610418848260208601610383565b91505092915050565b60006020828403121561043757610436611322565b5b600082013567ffffffffffffffff8111156104555761045461131d565b5b610461848285016103c5565b91505092915050565b600080600080600080600080610100898b03121561048b5761048a611322565b5b600089013567ffffffffffffffff8111156104a9576104a861131d565b5b6104b58b828c016103f3565b985050602089013567ffffffffffffffff8111156104d6576104d561131d565b5b6104e28b828c016103f3565b975050604089013567ffffffffffffffff8111156105035761050261131d565b5b61050f8b828c016103f3565b965050606089013567ffffffffffffffff8111156105305761052f61131d565b5b61053c8b828c016103f3565b955050608089013567ffffffffffffffff81111561055d5761055c61131d565b5b6105698b828c016103f3565b94505060a089013567ffffffffffffffff81111561058a5761058961131d565b5b6105968b828c016103f3565b93505060c089013567ffffffffffffffff8111156105b7576105b661131d565b5b6105c38b828c016103f3565b92505060e089013567ffffffffffffffff8111156105e4576105e361131d565b5b6105f08b828c016103f3565b9150509295985092959890939650565b60008060008060008060008060006101208a8c03121561062357610622611322565b5b60008a013567ffffffffffffffff8111156106415761064061131d565b5b61064d8c828d016103f3565b99505060208a013567ffffffffffffffff81111561066e5761066d61131d565b5b61067a8c828d016103f3565b98505060408a013567ffffffffffffffff81111561069b5761069a61131d565b5b6106a78c828d016103f3565b97505060608a013567ffffffffffffffff8111156106c8576106c761131d565b5b6106d48c828d016103f3565b96505060808a013567ffffffffffffffff8111156106f5576106f461131d565b5b6107018c828d016103f3565b95505060a08a013567ffffffffffffffff8111156107225761072161131d565b5b61072e8c828d016103f3565b94505060c08a013567ffffffffffffffff81111561074f5761074e61131d565b5b61075b8c828d016103f3565b93505060e08a013567ffffffffffffffff81111561077c5761077b61131d565b5b6107888c828d016103f3565b9250506101008a013567ffffffffffffffff8111156107aa576107a961131d565b5b6107b68c828d016103f3565b9150509295985092959850929598565b60006107d182611101565b6107db818561110c565b93506107eb818560208601611222565b6107f481611327565b840191505092915050565b600061080a82611101565b610814818561111d565b9350610824818560208601611222565b80840191505092915050565b600061083d600c8361111d565b915061084882611338565b600c82019050919050565b600061086060278361111d565b915061086b82611361565b602782019050919050565b600061088360538361111d565b915061088e826113b0565b605382019050919050565b60006108a660538361111d565b91506108b182611425565b605382019050919050565b60006108c960538361111d565b91506108d48261149a565b605382019050919050565b60006108ec60168361111d565b91506108f78261150f565b601682019050919050565b600061090f60538361111d565b915061091a82611538565b605382019050919050565b6000610932600c8361111d565b915061093d826115ad565b600c82019050919050565b600061095560218361111d565b9150610960826115d6565b602182019050919050565b600061097860538361111d565b915061098382611625565b605382019050919050565b600061099b60298361111d565b91506109a68261169a565b602982019050919050565b60006109be600e8361111d565b91506109c9826116e9565b600e82019050919050565b60006109e160318361111d565b91506109ec82611712565b603182019050919050565b6000610a0460538361111d565b9150610a0f82611761565b605382019050919050565b6000610a2760078361111d565b9150610a32826117d6565b600782019050919050565b6000610a4a60148361111d565b9150610a55826117ff565b601482019050919050565b6000610a6d60538361111d565b9150610a7882611828565b605382019050919050565b6000610a9060108361111d565b9150610a9b8261189d565b601082019050919050565b6000610ab360298361111d565b9150610abe826118c6565b602982019050919050565b6000610ad6604a8361111d565b9150610ae182611915565b604a82019050919050565b6000610af9601d8361111d565b9150610b048261198a565b601d82019050919050565b6000610b1c602f8361111d565b9150610b27826119b3565b602f82019050919050565b6000610b3f60538361111d565b9150610b4a82611a02565b605382019050919050565b6000610b6260538361111d565b9150610b6d82611a77565b605382019050919050565b6000610b8560348361111d565b9150610b9082611aec565b603482019050919050565b6000610ba860628361111d565b9150610bb382611b3b565b606282019050919050565b6000610bcb600b8361111d565b9150610bd682611bd6565b600b82019050919050565b6000610bee60538361111d565b9150610bf982611bff565b605382019050919050565b6000610c1160708361111d565b9150610c1c82611c74565b607082019050919050565b6000610c3460068361111d565b9150610c3f82611d0f565b600682019050919050565b6000610c57600a8361111d565b9150610c6282611d38565b600a82019050919050565b6000610c7a602e8361111d565b9150610c8582611d61565b602e82019050919050565b6000610c9d60048361111d565b9150610ca882611db0565b600482019050919050565b6000610cc0601a8361111d565b9150610ccb82611dd9565b601a82019050919050565b6000610ce3602b8361111d565b9150610cee82611e02565b602b82019050919050565b6000610d0660258361111d565b9150610d1182611e51565b602582019050919050565b6000610d29600b8361111d565b9150610d3482611ea0565b600b82019050919050565b6000610d4a82610948565b9150610d56828c6107ff565b9150610d6182610c04565b9150610d6d828b6107ff565b9150610d7882610853565b9150610d84828a6107ff565b9150610d8f8261098e565b9150610d9b82896107ff565b9150610da682610b78565b9150610db282886107ff565b9150610dbd826109d4565b9150610dc982876107ff565b9150610dd482610cd6565b9150610de082866107ff565b9150610deb82610c6d565b9150610df782856107ff565b9150610e0282610aa6565b9150610e0e82846107ff565b9150610e1982610c90565b91508190509a9950505050505050505050565b6000610e3782610aec565b9150610e4382846107ff565b915081905092915050565b6000610e5982610b9b565b9150610e6482610ac9565b9150610e6f82610b0f565b9150610e7a8261096b565b9150610e8582610d1c565b9150610e9082610a1a565b9150610e9b82610a60565b9150610ea682610cf9565b9150610eb182610a1a565b9150610ebc82610902565b9150610ec782610bbe565b9150610ed3828b6107ff565b9150610ede82610a1a565b9150610ee982610876565b9150610ef482610c4a565b9150610f00828a6107ff565b9150610f0b82610a1a565b9150610f1682610b32565b9150610f2182610830565b9150610f2d82896107ff565b9150610f3882610a1a565b9150610f4382610899565b9150610f4e826108df565b9150610f5a82886107ff565b9150610f6582610a1a565b9150610f7082610be1565b9150610f7b82610a3d565b9150610f8782876107ff565b9150610f9282610a1a565b9150610f9d826108bc565b9150610fa8826109b1565b9150610fb482866107ff565b9150610fbf82610a1a565b9150610fca826109f7565b9150610fd582610a83565b9150610fe182856107ff565b9150610fec82610a1a565b9150610ff782610b55565b915061100282610925565b915061100e82846107ff565b915061101982610a1a565b915061102482610c27565b91508190509998505050505050505050565b600061104182610cb3565b915061104d82846107ff565b915081905092915050565b6000602082019050818103600083015261107281846107c6565b905092915050565b6000611084611095565b90506110908282611255565b919050565b6000604051905090565b600067ffffffffffffffff8211156110ba576110b96112e4565b5b6110c382611327565b9050602081019050919050565b600067ffffffffffffffff8211156110eb576110ea6112e4565b5b6110f482611327565b9050602081019050919050565b600081519050919050565b600082825260208201905092915050565b600081905092915050565b600061113382611209565b915061113e83611209565b9250827fffffffffffffffffffffffffffffffffffffffffffffffffffffffffffffffff0382111561117357611172611286565b5b828201905092915050565b600061118982611209565b915061119483611209565b9250826111a4576111a36112b5565b5b828204905092915050565b60006111ba82611209565b91506111c583611209565b9250817fffffffffffffffffffffffffffffffffffffffffffffffffffffffffffffffff04831182151516156111fe576111fd611286565b5b828202905092915050565b6000819050919050565b82818337600083830152505050565b60005b83811015611240578082015181840152602081019050611225565b8381111561124f576000848401525b50505050565b61125e82611327565b810181811067ffffffffffffffff8211171561127d5761127c6112e4565b5b80604052505050565b7f4e487b7100000000000000000000000000000000000000000000000000000000600052601160045260246000fd5b7f4e487b7100000000000000000000000000000000000000000000000000000000600052601260045260246000fd5b7f4e487b7100000000000000000000000000000000000000000000000000000000600052604160045260246000fd5b600080fd5b600080fd5b600080fd5b600080fd5b6000601f19601f8301169050919050565b7f50657263656e746167653a200000000000000000000000000000000000000000600082015250565b7f227d2c7b2274726169745f74797065223a20226d61747572697479222c22766160008201527f6c7565223a202200000000000000000000000000000000000000000000000000602082015250565b7f3c7465787420783d223530252220793d223435252220636c6173733d2262617360008201527f652220646f6d696e616e742d626173656c696e653d226d6964646c652220746560208201527f78742d616e63686f723d226d6964646c65223e00000000000000000000000000604082015250565b7f3c7465787420783d223530252220793d223535252220636c6173733d2262617360008201527f652220646f6d696e616e742d626173656c696e653d226d6964646c652220746560208201527f78742d616e63686f723d226d6964646c65223e00000000000000000000000000604082015250565b7f3c7465787420783d223530252220793d223635252220636c6173733d2262617360008201527f652220646f6d696e616e742d626173656c696e653d226d6964646c652220746560208201527f78742d616e63686f723d226d6964646c65223e00000000000000000000000000604082015250565b7f4552433230436f6e7472616374416464726573733a2000000000000000000000600082015250565b7f3c7465787420783d223530252220793d223430252220636c6173733d2262617360008201527f652220646f6d696e616e742d626173656c696e653d226d6964646c652220746560208201527f78742d616e63686f723d226d6964646c65223e00000000000000000000000000604082015250565b7f546f74616c436c61696d3a200000000000000000000000000000000000000000600082015250565b7f7b226e616d65223a20224d7920436f6e7472616374222c22696d616765223a2060008201527f2200000000000000000000000000000000000000000000000000000000000000602082015250565b7f3c7465787420783d223530252220793d223330252220636c6173733d2262617360008201527f652220646f6d696e616e742d626173656c696e653d226d6964646c652220746560208201527f78742d616e63686f723d226d6964646c65223e00000000000000000000000000604082015250565b7f227d2c7b2274726169745f74797065223a202270657263656e74616765222c2260008201527f76616c7565223a20220000000000000000000000000000000000000000000000602082015250565b7f436f6e74726163744e616d653a20000000000000000000000000000000000000600082015250565b7f227d2c7b2274726169745f74797065223a20224e4654436f6e7472616374416460008201527f6472657373222c2276616c7565223a2022000000000000000000000000000000602082015250565b7f3c7465787420783d223530252220793d223730252220636c6173733d2262617360008201527f652220646f6d696e616e742d626173656c696e653d226d6964646c652220746560208201527f78742d616e63686f723d226d6964646c65223e00000000000000000000000000604082015250565b7f3c2f746578743e00000000000000000000000000000000000000000000000000600082015250565b7f4e4654436f6e7472616374416464726573733a20000000000000000000000000600082015250565b7f3c7465787420783d223530252220793d223335252220636c6173733d2262617360008201527f652220646f6d696e616e742d626173656c696e653d226d6964646c652220746560208201527f78742d616e63686f723d226d6964646c65223e00000000000000000000000000604082015250565b7f436f6e747261637453796d626f6c3a2000000000000000000000000000000000600082015250565b7f227d2c7b2274726169745f74797065223a2022546f74616c436c61696d222c2260008201527f76616c7565223a20220000000000000000000000000000000000000000000000602082015250565b7f3c7374796c653e2e62617365207b2066696c6c3a2077686974653b20666f6e7460008201527f2d66616d696c793a2073657269663b20666f6e742d73697a653a20313470783b60208201527f207d3c2f7374796c653e00000000000000000000000000000000000000000000604082015250565b7f646174613a6170706c69636174696f6e2f6a736f6e3b6261736536342c000000600082015250565b7f3c726563742077696474683d223130302522206865696768743d22313030252260008201527f2066696c6c3d22626c756522202f3e0000000000000000000000000000000000602082015250565b7f3c7465787420783d223530252220793d223530252220636c6173733d2262617360008201527f652220646f6d696e616e742d626173656c696e653d226d6964646c652220746560208201527f78742d616e63686f723d226d6964646c65223e00000000000000000000000000604082015250565b7f3c7465787420783d223530252220793d223735252220636c6173733d2262617360008201527f652220646f6d696e616e742d626173656c696e653d226d6964646c652220746560208201527f78742d616e63686f723d226d6964646c65223e00000000000000000000000000604082015250565b7f227d2c7b202274726169745f74797065223a20224552433230436f6e7472616360008201527f7441646472657373222c2276616c7565223a2022000000000000000000000000602082015250565b7f3c73766720786d6c6e733d22687474703a2f2f7777772e77332e6f72672f323060008201527f30302f73766722207072657365727665417370656374526174696f3d22784d6960208201527f6e594d696e206d656574222076696577426f783d22302030203530302035303060408201527f223e000000000000000000000000000000000000000000000000000000000000606082015250565b7f4465706f73697465643a20000000000000000000000000000000000000000000600082015250565b7f3c7465787420783d223530252220793d223630252220636c6173733d2262617360008201527f652220646f6d696e616e742d626173656c696e653d226d6964646c652220746560208201527f78742d616e63686f723d226d6964646c65223e00000000000000000000000000604082015250565b7f22202c226465736372697074696f6e223a202254686973206973206465706f7360008201527f697420616e6420776974686472617720636f6e7472616374222c20226174747260208201527f696275746573223a205b7b202274726169745f74797065223a20226465706f7360408201527f69746564222c2276616c7565223a202200000000000000000000000000000000606082015250565b7f3c2f7376673e0000000000000000000000000000000000000000000000000000600082015250565b7f4d617475726974793a2000000000000000000000000000000000000000000000600082015250565b7f227d2c7b202274726169745f74797065223a2022436f6e747261637453796d6260008201527f6f6c222c2276616c7565223a2022000000000000000000000000000000000000602082015250565b7f227d5d7d00000000000000000000000000000000000000000000000000000000600082015250565b7f646174613a696d6167652f7376672b786d6c3b6261736536342c000000000000600082015250565b7f227d2c7b2274726169745f74797065223a2022436f6e74726163744e616d652260008201527f2c2276616c7565223a2022000000000000000000000000000000000000000000602082015250565b7f54686973206973206465706f73697420616e6420776974686472617720636f6e60008201527f7472616374000000000000000000000000000000000000000000000000000000602082015250565b7f4d7920436f6e747261637400000000000000000000000000000000000000000060008201525056fe4142434445464748494a4b4c4d4e4f505152535455565758595a6162636465666768696a6b6c6d6e6f707172737475767778797a303132333435363738392b2fa264697066735822122066808dadc27272d7935ff847c4ad8adc13f10110b7a5af6d54870ffdc1c2b7e264736f6c63430008070033",
					"opcodes": "PUSH1 0x80 PUSH1 0x40 MSTORE CALLVALUE DUP1 ISZERO PUSH2 0x10 JUMPI PUSH1 0x0 DUP1 REVERT JUMPDEST POP PUSH2 0x1F3F DUP1 PUSH2 0x20 PUSH1 0x0 CODECOPY PUSH1 0x0 RETURN INVALID PUSH1 0x80 PUSH1 0x40 MSTORE CALLVALUE DUP1 ISZERO PUSH2 0x10 JUMPI PUSH1 0x0 DUP1 REVERT JUMPDEST POP PUSH1 0x4 CALLDATASIZE LT PUSH2 0x41 JUMPI PUSH1 0x0 CALLDATALOAD PUSH1 0xE0 SHR DUP1 PUSH4 0x58A6BE5 EQ PUSH2 0x46 JUMPI DUP1 PUSH4 0xA767490 EQ PUSH2 0x76 JUMPI DUP1 PUSH4 0x12496A1B EQ PUSH2 0xA6 JUMPI JUMPDEST PUSH1 0x0 DUP1 REVERT JUMPDEST PUSH2 0x60 PUSH1 0x4 DUP1 CALLDATASIZE SUB DUP2 ADD SWAP1 PUSH2 0x5B SWAP2 SWAP1 PUSH2 0x600 JUMP JUMPDEST PUSH2 0xD6 JUMP JUMPDEST PUSH1 0x40 MLOAD PUSH2 0x6D SWAP2 SWAP1 PUSH2 0x1058 JUMP JUMPDEST PUSH1 0x40 MLOAD DUP1 SWAP2 SUB SWAP1 RETURN JUMPDEST PUSH2 0x90 PUSH1 0x4 DUP1 CALLDATASIZE SUB DUP2 ADD SWAP1 PUSH2 0x8B SWAP2 SWAP1 PUSH2 0x46A JUMP JUMPDEST PUSH2 0x13E JUMP JUMPDEST PUSH1 0x40 MLOAD PUSH2 0x9D SWAP2 SWAP1 PUSH2 0x1058 JUMP JUMPDEST PUSH1 0x40 MLOAD DUP1 SWAP2 SUB SWAP1 RETURN JUMPDEST PUSH2 0xC0 PUSH1 0x4 DUP1 CALLDATASIZE SUB DUP2 ADD SWAP1 PUSH2 0xBB SWAP2 SWAP1 PUSH2 0x421 JUMP JUMPDEST PUSH2 0x1A9 JUMP JUMPDEST PUSH1 0x40 MLOAD PUSH2 0xCD SWAP2 SWAP1 PUSH2 0x1058 JUMP JUMPDEST PUSH1 0x40 MLOAD DUP1 SWAP2 SUB SWAP1 RETURN JUMPDEST PUSH1 0x60 PUSH2 0x110 DUP3 DUP12 DUP12 DUP12 DUP12 DUP12 DUP12 DUP12 DUP12 PUSH1 0x40 MLOAD PUSH1 0x20 ADD PUSH2 0xFC SWAP10 SWAP9 SWAP8 SWAP7 SWAP6 SWAP5 SWAP4 SWAP3 SWAP2 SWAP1 PUSH2 0xD3F JUMP JUMPDEST PUSH1 0x40 MLOAD PUSH1 0x20 DUP2 DUP4 SUB SUB DUP2 MSTORE SWAP1 PUSH1 0x40 MSTORE PUSH2 0x1A9 JUMP JUMPDEST PUSH1 0x40 MLOAD PUSH1 0x20 ADD PUSH2 0x120 SWAP2 SWAP1 PUSH2 0xE2C JUMP JUMPDEST PUSH1 0x40 MLOAD PUSH1 0x20 DUP2 DUP4 SUB SUB DUP2 MSTORE SWAP1 PUSH1 0x40 MSTORE SWAP1 POP SWAP10 SWAP9 POP POP POP POP POP POP POP POP POP JUMP JUMPDEST PUSH1 0x60 PUSH1 0x0 DUP10 DUP10 DUP10 DUP10 DUP10 DUP10 DUP10 DUP10 PUSH1 0x40 MLOAD PUSH1 0x20 ADD PUSH2 0x161 SWAP9 SWAP8 SWAP7 SWAP6 SWAP5 SWAP4 SWAP3 SWAP2 SWAP1 PUSH2 0xE4E JUMP JUMPDEST PUSH1 0x40 MLOAD PUSH1 0x20 DUP2 DUP4 SUB SUB DUP2 MSTORE SWAP1 PUSH1 0x40 MSTORE SWAP1 POP PUSH2 0x17B DUP2 PUSH2 0x1A9 JUMP JUMPDEST PUSH1 0x40 MLOAD PUSH1 0x20 ADD PUSH2 0x18B SWAP2 SWAP1 PUSH2 0x1036 JUMP JUMPDEST PUSH1 0x40 MLOAD PUSH1 0x20 DUP2 DUP4 SUB SUB DUP2 MSTORE SWAP1 PUSH1 0x40 MSTORE SWAP2 POP POP SWAP9 SWAP8 POP POP POP POP POP POP POP POP JUMP JUMPDEST PUSH1 0x60 PUSH1 0x0 DUP3 MLOAD SWAP1 POP PUSH1 0x0 DUP2 EQ ISZERO PUSH2 0x1D2 JUMPI PUSH1 0x40 MLOAD DUP1 PUSH1 0x20 ADD PUSH1 0x40 MSTORE DUP1 PUSH1 0x0 DUP2 MSTORE POP SWAP2 POP POP PUSH2 0x33C JUMP JUMPDEST PUSH1 0x0 PUSH1 0x3 PUSH1 0x2 DUP4 PUSH2 0x1E3 SWAP2 SWAP1 PUSH2 0x1128 JUMP JUMPDEST PUSH2 0x1ED SWAP2 SWAP1 PUSH2 0x117E JUMP JUMPDEST PUSH1 0x4 PUSH2 0x1F9 SWAP2 SWAP1 PUSH2 0x11AF JUMP JUMPDEST SWAP1 POP PUSH1 0x0 PUSH1 0x20 DUP3 PUSH2 0x20A SWAP2 SWAP1 PUSH2 0x1128 JUMP JUMPDEST PUSH8 0xFFFFFFFFFFFFFFFF DUP2 GT ISZERO PUSH2 0x223 JUMPI PUSH2 0x222 PUSH2 0x12E4 JUMP JUMPDEST JUMPDEST PUSH1 0x40 MLOAD SWAP1 DUP1 DUP3 MSTORE DUP1 PUSH1 0x1F ADD PUSH1 0x1F NOT AND PUSH1 0x20 ADD DUP3 ADD PUSH1 0x40 MSTORE DUP1 ISZERO PUSH2 0x255 JUMPI DUP2 PUSH1 0x20 ADD PUSH1 0x1 DUP3 MUL DUP1 CALLDATASIZE DUP4 CALLDATACOPY DUP1 DUP3 ADD SWAP2 POP POP SWAP1 POP JUMPDEST POP SWAP1 POP PUSH1 0x0 PUSH1 0x40 MLOAD DUP1 PUSH1 0x60 ADD PUSH1 0x40 MSTORE DUP1 PUSH1 0x40 DUP2 MSTORE PUSH1 0x20 ADD PUSH2 0x1ECA PUSH1 0x40 SWAP2 CODECOPY SWAP1 POP PUSH1 0x1 DUP2 ADD PUSH1 0x20 DUP4 ADD PUSH1 0x0 JUMPDEST DUP7 DUP2 LT ISZERO PUSH2 0x2F9 JUMPI PUSH1 0x3 DUP2 ADD SWAP1 POP PUSH3 0xFFFFFF DUP2 DUP11 ADD MLOAD AND PUSH1 0x3F DUP2 PUSH1 0x12 SHR AND DUP5 ADD MLOAD DUP1 PUSH1 0x8 SHL SWAP1 POP PUSH1 0xFF PUSH1 0x3F DUP4 PUSH1 0xC SHR AND DUP7 ADD MLOAD AND DUP2 ADD SWAP1 POP DUP1 PUSH1 0x8 SHL SWAP1 POP PUSH1 0xFF PUSH1 0x3F DUP4 PUSH1 0x6 SHR AND DUP7 ADD MLOAD AND DUP2 ADD SWAP1 POP DUP1 PUSH1 0x8 SHL SWAP1 POP PUSH1 0xFF PUSH1 0x3F DUP4 AND DUP7 ADD MLOAD AND DUP2 ADD SWAP1 POP DUP1 PUSH1 0xE0 SHL SWAP1 POP DUP1 DUP5 MSTORE PUSH1 0x4 DUP5 ADD SWAP4 POP POP POP PUSH2 0x280 JUMP JUMPDEST POP PUSH1 0x3 DUP7 MOD PUSH1 0x1 DUP2 EQ PUSH2 0x313 JUMPI PUSH1 0x2 DUP2 EQ PUSH2 0x323 JUMPI PUSH2 0x32E JUMP JUMPDEST PUSH2 0x3D3D PUSH1 0xF0 SHL PUSH1 0x2 DUP4 SUB MSTORE PUSH2 0x32E JUMP JUMPDEST PUSH1 0x3D PUSH1 0xF8 SHL PUSH1 0x1 DUP4 SUB MSTORE JUMPDEST POP DUP5 DUP5 MSTORE POP POP DUP2 SWAP5 POP POP POP POP POP JUMPDEST SWAP2 SWAP1 POP JUMP JUMPDEST PUSH1 0x0 PUSH2 0x354 PUSH2 0x34F DUP5 PUSH2 0x109F JUMP JUMPDEST PUSH2 0x107A JUMP JUMPDEST SWAP1 POP DUP3 DUP2 MSTORE PUSH1 0x20 DUP2 ADD DUP5 DUP5 DUP5 ADD GT ISZERO PUSH2 0x370 JUMPI PUSH2 0x36F PUSH2 0x1318 JUMP JUMPDEST JUMPDEST PUSH2 0x37B DUP5 DUP3 DUP6 PUSH2 0x1213 JUMP JUMPDEST POP SWAP4 SWAP3 POP POP POP JUMP JUMPDEST PUSH1 0x0 PUSH2 0x396 PUSH2 0x391 DUP5 PUSH2 0x10D0 JUMP JUMPDEST PUSH2 0x107A JUMP JUMPDEST SWAP1 POP DUP3 DUP2 MSTORE PUSH1 0x20 DUP2 ADD DUP5 DUP5 DUP5 ADD GT ISZERO PUSH2 0x3B2 JUMPI PUSH2 0x3B1 PUSH2 0x1318 JUMP JUMPDEST JUMPDEST PUSH2 0x3BD DUP5 DUP3 DUP6 PUSH2 0x1213 JUMP JUMPDEST POP SWAP4 SWAP3 POP POP POP JUMP JUMPDEST PUSH1 0x0 DUP3 PUSH1 0x1F DUP4 ADD SLT PUSH2 0x3DA JUMPI PUSH2 0x3D9 PUSH2 0x1313 JUMP JUMPDEST JUMPDEST DUP2 CALLDATALOAD PUSH2 0x3EA DUP5 DUP3 PUSH1 0x20 DUP7 ADD PUSH2 0x341 JUMP JUMPDEST SWAP2 POP POP SWAP3 SWAP2 POP POP JUMP JUMPDEST PUSH1 0x0 DUP3 PUSH1 0x1F DUP4 ADD SLT PUSH2 0x408 JUMPI PUSH2 0x407 PUSH2 0x1313 JUMP JUMPDEST JUMPDEST DUP2 CALLDATALOAD PUSH2 0x418 DUP5 DUP3 PUSH1 0x20 DUP7 ADD PUSH2 0x383 JUMP JUMPDEST SWAP2 POP POP SWAP3 SWAP2 POP POP JUMP JUMPDEST PUSH1 0x0 PUSH1 0x20 DUP3 DUP5 SUB SLT ISZERO PUSH2 0x437 JUMPI PUSH2 0x436 PUSH2 0x1322 JUMP JUMPDEST JUMPDEST PUSH1 0x0 DUP3 ADD CALLDATALOAD PUSH8 0xFFFFFFFFFFFFFFFF DUP2 GT ISZERO PUSH2 0x455 JUMPI PUSH2 0x454 PUSH2 0x131D JUMP JUMPDEST JUMPDEST PUSH2 0x461 DUP5 DUP3 DUP6 ADD PUSH2 0x3C5 JUMP JUMPDEST SWAP2 POP POP SWAP3 SWAP2 POP POP JUMP JUMPDEST PUSH1 0x0 DUP1 PUSH1 0x0 DUP1 PUSH1 0x0 DUP1 PUSH1 0x0 DUP1 PUSH2 0x100 DUP10 DUP12 SUB SLT ISZERO PUSH2 0x48B JUMPI PUSH2 0x48A PUSH2 0x1322 JUMP JUMPDEST JUMPDEST PUSH1 0x0 DUP10 ADD CALLDATALOAD PUSH8 0xFFFFFFFFFFFFFFFF DUP2 GT ISZERO PUSH2 0x4A9 JUMPI PUSH2 0x4A8 PUSH2 0x131D JUMP JUMPDEST JUMPDEST PUSH2 0x4B5 DUP12 DUP3 DUP13 ADD PUSH2 0x3F3 JUMP JUMPDEST SWAP9 POP POP PUSH1 0x20 DUP10 ADD CALLDATALOAD PUSH8 0xFFFFFFFFFFFFFFFF DUP2 GT ISZERO PUSH2 0x4D6 JUMPI PUSH2 0x4D5 PUSH2 0x131D JUMP JUMPDEST JUMPDEST PUSH2 0x4E2 DUP12 DUP3 DUP13 ADD PUSH2 0x3F3 JUMP JUMPDEST SWAP8 POP POP PUSH1 0x40 DUP10 ADD CALLDATALOAD PUSH8 0xFFFFFFFFFFFFFFFF DUP2 GT ISZERO PUSH2 0x503 JUMPI PUSH2 0x502 PUSH2 0x131D JUMP JUMPDEST JUMPDEST PUSH2 0x50F DUP12 DUP3 DUP13 ADD PUSH2 0x3F3 JUMP JUMPDEST SWAP7 POP POP PUSH1 0x60 DUP10 ADD CALLDATALOAD PUSH8 0xFFFFFFFFFFFFFFFF DUP2 GT ISZERO PUSH2 0x530 JUMPI PUSH2 0x52F PUSH2 0x131D JUMP JUMPDEST JUMPDEST PUSH2 0x53C DUP12 DUP3 DUP13 ADD PUSH2 0x3F3 JUMP JUMPDEST SWAP6 POP POP PUSH1 0x80 DUP10 ADD CALLDATALOAD PUSH8 0xFFFFFFFFFFFFFFFF DUP2 GT ISZERO PUSH2 0x55D JUMPI PUSH2 0x55C PUSH2 0x131D JUMP JUMPDEST JUMPDEST PUSH2 0x569 DUP12 DUP3 DUP13 ADD PUSH2 0x3F3 JUMP JUMPDEST SWAP5 POP POP PUSH1 0xA0 DUP10 ADD CALLDATALOAD PUSH8 0xFFFFFFFFFFFFFFFF DUP2 GT ISZERO PUSH2 0x58A JUMPI PUSH2 0x589 PUSH2 0x131D JUMP JUMPDEST JUMPDEST PUSH2 0x596 DUP12 DUP3 DUP13 ADD PUSH2 0x3F3 JUMP JUMPDEST SWAP4 POP POP PUSH1 0xC0 DUP10 ADD CALLDATALOAD PUSH8 0xFFFFFFFFFFFFFFFF DUP2 GT ISZERO PUSH2 0x5B7 JUMPI PUSH2 0x5B6 PUSH2 0x131D JUMP JUMPDEST JUMPDEST PUSH2 0x5C3 DUP12 DUP3 DUP13 ADD PUSH2 0x3F3 JUMP JUMPDEST SWAP3 POP POP PUSH1 0xE0 DUP10 ADD CALLDATALOAD PUSH8 0xFFFFFFFFFFFFFFFF DUP2 GT ISZERO PUSH2 0x5E4 JUMPI PUSH2 0x5E3 PUSH2 0x131D JUMP JUMPDEST JUMPDEST PUSH2 0x5F0 DUP12 DUP3 DUP13 ADD PUSH2 0x3F3 JUMP JUMPDEST SWAP2 POP POP SWAP3 SWAP6 SWAP9 POP SWAP3 SWAP6 SWAP9 SWAP1 SWAP4 SWAP7 POP JUMP JUMPDEST PUSH1 0x0 DUP1 PUSH1 0x0 DUP1 PUSH1 0x0 DUP1 PUSH1 0x0 DUP1 PUSH1 0x0 PUSH2 0x120 DUP11 DUP13 SUB SLT ISZERO PUSH2 0x623 JUMPI PUSH2 0x622 PUSH2 0x1322 JUMP JUMPDEST JUMPDEST PUSH1 0x0 DUP11 ADD CALLDATALOAD PUSH8 0xFFFFFFFFFFFFFFFF DUP2 GT ISZERO PUSH2 0x641 JUMPI PUSH2 0x640 PUSH2 0x131D JUMP JUMPDEST JUMPDEST PUSH2 0x64D DUP13 DUP3 DUP14 ADD PUSH2 0x3F3 JUMP JUMPDEST SWAP10 POP POP PUSH1 0x20 DUP11 ADD CALLDATALOAD PUSH8 0xFFFFFFFFFFFFFFFF DUP2 GT ISZERO PUSH2 0x66E JUMPI PUSH2 0x66D PUSH2 0x131D JUMP JUMPDEST JUMPDEST PUSH2 0x67A DUP13 DUP3 DUP14 ADD PUSH2 0x3F3 JUMP JUMPDEST SWAP9 POP POP PUSH1 0x40 DUP11 ADD CALLDATALOAD PUSH8 0xFFFFFFFFFFFFFFFF DUP2 GT ISZERO PUSH2 0x69B JUMPI PUSH2 0x69A PUSH2 0x131D JUMP JUMPDEST JUMPDEST PUSH2 0x6A7 DUP13 DUP3 DUP14 ADD PUSH2 0x3F3 JUMP JUMPDEST SWAP8 POP POP PUSH1 0x60 DUP11 ADD CALLDATALOAD PUSH8 0xFFFFFFFFFFFFFFFF DUP2 GT ISZERO PUSH2 0x6C8 JUMPI PUSH2 0x6C7 PUSH2 0x131D JUMP JUMPDEST JUMPDEST PUSH2 0x6D4 DUP13 DUP3 DUP14 ADD PUSH2 0x3F3 JUMP JUMPDEST SWAP7 POP POP PUSH1 0x80 DUP11 ADD CALLDATALOAD PUSH8 0xFFFFFFFFFFFFFFFF DUP2 GT ISZERO PUSH2 0x6F5 JUMPI PUSH2 0x6F4 PUSH2 0x131D JUMP JUMPDEST JUMPDEST PUSH2 0x701 DUP13 DUP3 DUP14 ADD PUSH2 0x3F3 JUMP JUMPDEST SWAP6 POP POP PUSH1 0xA0 DUP11 ADD CALLDATALOAD PUSH8 0xFFFFFFFFFFFFFFFF DUP2 GT ISZERO PUSH2 0x722 JUMPI PUSH2 0x721 PUSH2 0x131D JUMP JUMPDEST JUMPDEST PUSH2 0x72E DUP13 DUP3 DUP14 ADD PUSH2 0x3F3 JUMP JUMPDEST SWAP5 POP POP PUSH1 0xC0 DUP11 ADD CALLDATALOAD PUSH8 0xFFFFFFFFFFFFFFFF DUP2 GT ISZERO PUSH2 0x74F JUMPI PUSH2 0x74E PUSH2 0x131D JUMP JUMPDEST JUMPDEST PUSH2 0x75B DUP13 DUP3 DUP14 ADD PUSH2 0x3F3 JUMP JUMPDEST SWAP4 POP POP PUSH1 0xE0 DUP11 ADD CALLDATALOAD PUSH8 0xFFFFFFFFFFFFFFFF DUP2 GT ISZERO PUSH2 0x77C JUMPI PUSH2 0x77B PUSH2 0x131D JUMP JUMPDEST JUMPDEST PUSH2 0x788 DUP13 DUP3 DUP14 ADD PUSH2 0x3F3 JUMP JUMPDEST SWAP3 POP POP PUSH2 0x100 DUP11 ADD CALLDATALOAD PUSH8 0xFFFFFFFFFFFFFFFF DUP2 GT ISZERO PUSH2 0x7AA JUMPI PUSH2 0x7A9 PUSH2 0x131D JUMP JUMPDEST JUMPDEST PUSH2 0x7B6 DUP13 DUP3 DUP14 ADD PUSH2 0x3F3 JUMP JUMPDEST SWAP2 POP POP SWAP3 SWAP6 SWAP9 POP SWAP3 SWAP6 SWAP9 POP SWAP3 SWAP6 SWAP9 JUMP JUMPDEST PUSH1 0x0 PUSH2 0x7D1 DUP3 PUSH2 0x1101 JUMP JUMPDEST PUSH2 0x7DB DUP2 DUP6 PUSH2 0x110C JUMP JUMPDEST SWAP4 POP PUSH2 0x7EB DUP2 DUP6 PUSH1 0x20 DUP7 ADD PUSH2 0x1222 JUMP JUMPDEST PUSH2 0x7F4 DUP2 PUSH2 0x1327 JUMP JUMPDEST DUP5 ADD SWAP2 POP POP SWAP3 SWAP2 POP POP JUMP JUMPDEST PUSH1 0x0 PUSH2 0x80A DUP3 PUSH2 0x1101 JUMP JUMPDEST PUSH2 0x814 DUP2 DUP6 PUSH2 0x111D JUMP JUMPDEST SWAP4 POP PUSH2 0x824 DUP2 DUP6 PUSH1 0x20 DUP7 ADD PUSH2 0x1222 JUMP JUMPDEST DUP1 DUP5 ADD SWAP2 POP POP SWAP3 SWAP2 POP POP JUMP JUMPDEST PUSH1 0x0 PUSH2 0x83D PUSH1 0xC DUP4 PUSH2 0x111D JUMP JUMPDEST SWAP2 POP PUSH2 0x848 DUP3 PUSH2 0x1338 JUMP JUMPDEST PUSH1 0xC DUP3 ADD SWAP1 POP SWAP2 SWAP1 POP JUMP JUMPDEST PUSH1 0x0 PUSH2 0x860 PUSH1 0x27 DUP4 PUSH2 0x111D JUMP JUMPDEST SWAP2 POP PUSH2 0x86B DUP3 PUSH2 0x1361 JUMP JUMPDEST PUSH1 0x27 DUP3 ADD SWAP1 POP SWAP2 SWAP1 POP JUMP JUMPDEST PUSH1 0x0 PUSH2 0x883 PUSH1 0x53 DUP4 PUSH2 0x111D JUMP JUMPDEST SWAP2 POP PUSH2 0x88E DUP3 PUSH2 0x13B0 JUMP JUMPDEST PUSH1 0x53 DUP3 ADD SWAP1 POP SWAP2 SWAP1 POP JUMP JUMPDEST PUSH1 0x0 PUSH2 0x8A6 PUSH1 0x53 DUP4 PUSH2 0x111D JUMP JUMPDEST SWAP2 POP PUSH2 0x8B1 DUP3 PUSH2 0x1425 JUMP JUMPDEST PUSH1 0x53 DUP3 ADD SWAP1 POP SWAP2 SWAP1 POP JUMP JUMPDEST PUSH1 0x0 PUSH2 0x8C9 PUSH1 0x53 DUP4 PUSH2 0x111D JUMP JUMPDEST SWAP2 POP PUSH2 0x8D4 DUP3 PUSH2 0x149A JUMP JUMPDEST PUSH1 0x53 DUP3 ADD SWAP1 POP SWAP2 SWAP1 POP JUMP JUMPDEST PUSH1 0x0 PUSH2 0x8EC PUSH1 0x16 DUP4 PUSH2 0x111D JUMP JUMPDEST SWAP2 POP PUSH2 0x8F7 DUP3 PUSH2 0x150F JUMP JUMPDEST PUSH1 0x16 DUP3 ADD SWAP1 POP SWAP2 SWAP1 POP JUMP JUMPDEST PUSH1 0x0 PUSH2 0x90F PUSH1 0x53 DUP4 PUSH2 0x111D JUMP JUMPDEST SWAP2 POP PUSH2 0x91A DUP3 PUSH2 0x1538 JUMP JUMPDEST PUSH1 0x53 DUP3 ADD SWAP1 POP SWAP2 SWAP1 POP JUMP JUMPDEST PUSH1 0x0 PUSH2 0x932 PUSH1 0xC DUP4 PUSH2 0x111D JUMP JUMPDEST SWAP2 POP PUSH2 0x93D DUP3 PUSH2 0x15AD JUMP JUMPDEST PUSH1 0xC DUP3 ADD SWAP1 POP SWAP2 SWAP1 POP JUMP JUMPDEST PUSH1 0x0 PUSH2 0x955 PUSH1 0x21 DUP4 PUSH2 0x111D JUMP JUMPDEST SWAP2 POP PUSH2 0x960 DUP3 PUSH2 0x15D6 JUMP JUMPDEST PUSH1 0x21 DUP3 ADD SWAP1 POP SWAP2 SWAP1 POP JUMP JUMPDEST PUSH1 0x0 PUSH2 0x978 PUSH1 0x53 DUP4 PUSH2 0x111D JUMP JUMPDEST SWAP2 POP PUSH2 0x983 DUP3 PUSH2 0x1625 JUMP JUMPDEST PUSH1 0x53 DUP3 ADD SWAP1 POP SWAP2 SWAP1 POP JUMP JUMPDEST PUSH1 0x0 PUSH2 0x99B PUSH1 0x29 DUP4 PUSH2 0x111D JUMP JUMPDEST SWAP2 POP PUSH2 0x9A6 DUP3 PUSH2 0x169A JUMP JUMPDEST PUSH1 0x29 DUP3 ADD SWAP1 POP SWAP2 SWAP1 POP JUMP JUMPDEST PUSH1 0x0 PUSH2 0x9BE PUSH1 0xE DUP4 PUSH2 0x111D JUMP JUMPDEST SWAP2 POP PUSH2 0x9C9 DUP3 PUSH2 0x16E9 JUMP JUMPDEST PUSH1 0xE DUP3 ADD SWAP1 POP SWAP2 SWAP1 POP JUMP JUMPDEST PUSH1 0x0 PUSH2 0x9E1 PUSH1 0x31 DUP4 PUSH2 0x111D JUMP JUMPDEST SWAP2 POP PUSH2 0x9EC DUP3 PUSH2 0x1712 JUMP JUMPDEST PUSH1 0x31 DUP3 ADD SWAP1 POP SWAP2 SWAP1 POP JUMP JUMPDEST PUSH1 0x0 PUSH2 0xA04 PUSH1 0x53 DUP4 PUSH2 0x111D JUMP JUMPDEST SWAP2 POP PUSH2 0xA0F DUP3 PUSH2 0x1761 JUMP JUMPDEST PUSH1 0x53 DUP3 ADD SWAP1 POP SWAP2 SWAP1 POP JUMP JUMPDEST PUSH1 0x0 PUSH2 0xA27 PUSH1 0x7 DUP4 PUSH2 0x111D JUMP JUMPDEST SWAP2 POP PUSH2 0xA32 DUP3 PUSH2 0x17D6 JUMP JUMPDEST PUSH1 0x7 DUP3 ADD SWAP1 POP SWAP2 SWAP1 POP JUMP JUMPDEST PUSH1 0x0 PUSH2 0xA4A PUSH1 0x14 DUP4 PUSH2 0x111D JUMP JUMPDEST SWAP2 POP PUSH2 0xA55 DUP3 PUSH2 0x17FF JUMP JUMPDEST PUSH1 0x14 DUP3 ADD SWAP1 POP SWAP2 SWAP1 POP JUMP JUMPDEST PUSH1 0x0 PUSH2 0xA6D PUSH1 0x53 DUP4 PUSH2 0x111D JUMP JUMPDEST SWAP2 POP PUSH2 0xA78 DUP3 PUSH2 0x1828 JUMP JUMPDEST PUSH1 0x53 DUP3 ADD SWAP1 POP SWAP2 SWAP1 POP JUMP JUMPDEST PUSH1 0x0 PUSH2 0xA90 PUSH1 0x10 DUP4 PUSH2 0x111D JUMP JUMPDEST SWAP2 POP PUSH2 0xA9B DUP3 PUSH2 0x189D JUMP JUMPDEST PUSH1 0x10 DUP3 ADD SWAP1 POP SWAP2 SWAP1 POP JUMP JUMPDEST PUSH1 0x0 PUSH2 0xAB3 PUSH1 0x29 DUP4 PUSH2 0x111D JUMP JUMPDEST SWAP2 POP PUSH2 0xABE DUP3 PUSH2 0x18C6 JUMP JUMPDEST PUSH1 0x29 DUP3 ADD SWAP1 POP SWAP2 SWAP1 POP JUMP JUMPDEST PUSH1 0x0 PUSH2 0xAD6 PUSH1 0x4A DUP4 PUSH2 0x111D JUMP JUMPDEST SWAP2 POP PUSH2 0xAE1 DUP3 PUSH2 0x1915 JUMP JUMPDEST PUSH1 0x4A DUP3 ADD SWAP1 POP SWAP2 SWAP1 POP JUMP JUMPDEST PUSH1 0x0 PUSH2 0xAF9 PUSH1 0x1D DUP4 PUSH2 0x111D JUMP JUMPDEST SWAP2 POP PUSH2 0xB04 DUP3 PUSH2 0x198A JUMP JUMPDEST PUSH1 0x1D DUP3 ADD SWAP1 POP SWAP2 SWAP1 POP JUMP JUMPDEST PUSH1 0x0 PUSH2 0xB1C PUSH1 0x2F DUP4 PUSH2 0x111D JUMP JUMPDEST SWAP2 POP PUSH2 0xB27 DUP3 PUSH2 0x19B3 JUMP JUMPDEST PUSH1 0x2F DUP3 ADD SWAP1 POP SWAP2 SWAP1 POP JUMP JUMPDEST PUSH1 0x0 PUSH2 0xB3F PUSH1 0x53 DUP4 PUSH2 0x111D JUMP JUMPDEST SWAP2 POP PUSH2 0xB4A DUP3 PUSH2 0x1A02 JUMP JUMPDEST PUSH1 0x53 DUP3 ADD SWAP1 POP SWAP2 SWAP1 POP JUMP JUMPDEST PUSH1 0x0 PUSH2 0xB62 PUSH1 0x53 DUP4 PUSH2 0x111D JUMP JUMPDEST SWAP2 POP PUSH2 0xB6D DUP3 PUSH2 0x1A77 JUMP JUMPDEST PUSH1 0x53 DUP3 ADD SWAP1 POP SWAP2 SWAP1 POP JUMP JUMPDEST PUSH1 0x0 PUSH2 0xB85 PUSH1 0x34 DUP4 PUSH2 0x111D JUMP JUMPDEST SWAP2 POP PUSH2 0xB90 DUP3 PUSH2 0x1AEC JUMP JUMPDEST PUSH1 0x34 DUP3 ADD SWAP1 POP SWAP2 SWAP1 POP JUMP JUMPDEST PUSH1 0x0 PUSH2 0xBA8 PUSH1 0x62 DUP4 PUSH2 0x111D JUMP JUMPDEST SWAP2 POP PUSH2 0xBB3 DUP3 PUSH2 0x1B3B JUMP JUMPDEST PUSH1 0x62 DUP3 ADD SWAP1 POP SWAP2 SWAP1 POP JUMP JUMPDEST PUSH1 0x0 PUSH2 0xBCB PUSH1 0xB DUP4 PUSH2 0x111D JUMP JUMPDEST SWAP2 POP PUSH2 0xBD6 DUP3 PUSH2 0x1BD6 JUMP JUMPDEST PUSH1 0xB DUP3 ADD SWAP1 POP SWAP2 SWAP1 POP JUMP JUMPDEST PUSH1 0x0 PUSH2 0xBEE PUSH1 0x53 DUP4 PUSH2 0x111D JUMP JUMPDEST SWAP2 POP PUSH2 0xBF9 DUP3 PUSH2 0x1BFF JUMP JUMPDEST PUSH1 0x53 DUP3 ADD SWAP1 POP SWAP2 SWAP1 POP JUMP JUMPDEST PUSH1 0x0 PUSH2 0xC11 PUSH1 0x70 DUP4 PUSH2 0x111D JUMP JUMPDEST SWAP2 POP PUSH2 0xC1C DUP3 PUSH2 0x1C74 JUMP JUMPDEST PUSH1 0x70 DUP3 ADD SWAP1 POP SWAP2 SWAP1 POP JUMP JUMPDEST PUSH1 0x0 PUSH2 0xC34 PUSH1 0x6 DUP4 PUSH2 0x111D JUMP JUMPDEST SWAP2 POP PUSH2 0xC3F DUP3 PUSH2 0x1D0F JUMP JUMPDEST PUSH1 0x6 DUP3 ADD SWAP1 POP SWAP2 SWAP1 POP JUMP JUMPDEST PUSH1 0x0 PUSH2 0xC57 PUSH1 0xA DUP4 PUSH2 0x111D JUMP JUMPDEST SWAP2 POP PUSH2 0xC62 DUP3 PUSH2 0x1D38 JUMP JUMPDEST PUSH1 0xA DUP3 ADD SWAP1 POP SWAP2 SWAP1 POP JUMP JUMPDEST PUSH1 0x0 PUSH2 0xC7A PUSH1 0x2E DUP4 PUSH2 0x111D JUMP JUMPDEST SWAP2 POP PUSH2 0xC85 DUP3 PUSH2 0x1D61 JUMP JUMPDEST PUSH1 0x2E DUP3 ADD SWAP1 POP SWAP2 SWAP1 POP JUMP JUMPDEST PUSH1 0x0 PUSH2 0xC9D PUSH1 0x4 DUP4 PUSH2 0x111D JUMP JUMPDEST SWAP2 POP PUSH2 0xCA8 DUP3 PUSH2 0x1DB0 JUMP JUMPDEST PUSH1 0x4 DUP3 ADD SWAP1 POP SWAP2 SWAP1 POP JUMP JUMPDEST PUSH1 0x0 PUSH2 0xCC0 PUSH1 0x1A DUP4 PUSH2 0x111D JUMP JUMPDEST SWAP2 POP PUSH2 0xCCB DUP3 PUSH2 0x1DD9 JUMP JUMPDEST PUSH1 0x1A DUP3 ADD SWAP1 POP SWAP2 SWAP1 POP JUMP JUMPDEST PUSH1 0x0 PUSH2 0xCE3 PUSH1 0x2B DUP4 PUSH2 0x111D JUMP JUMPDEST SWAP2 POP PUSH2 0xCEE DUP3 PUSH2 0x1E02 JUMP JUMPDEST PUSH1 0x2B DUP3 ADD SWAP1 POP SWAP2 SWAP1 POP JUMP JUMPDEST PUSH1 0x0 PUSH2 0xD06 PUSH1 0x25 DUP4 PUSH2 0x111D JUMP JUMPDEST SWAP2 POP PUSH2 0xD11 DUP3 PUSH2 0x1E51 JUMP JUMPDEST PUSH1 0x25 DUP3 ADD SWAP1 POP SWAP2 SWAP1 POP JUMP JUMPDEST PUSH1 0x0 PUSH2 0xD29 PUSH1 0xB DUP4 PUSH2 0x111D JUMP JUMPDEST SWAP2 POP PUSH2 0xD34 DUP3 PUSH2 0x1EA0 JUMP JUMPDEST PUSH1 0xB DUP3 ADD SWAP1 POP SWAP2 SWAP1 POP JUMP JUMPDEST PUSH1 0x0 PUSH2 0xD4A DUP3 PUSH2 0x948 JUMP JUMPDEST SWAP2 POP PUSH2 0xD56 DUP3 DUP13 PUSH2 0x7FF JUMP JUMPDEST SWAP2 POP PUSH2 0xD61 DUP3 PUSH2 0xC04 JUMP JUMPDEST SWAP2 POP PUSH2 0xD6D DUP3 DUP12 PUSH2 0x7FF JUMP JUMPDEST SWAP2 POP PUSH2 0xD78 DUP3 PUSH2 0x853 JUMP JUMPDEST SWAP2 POP PUSH2 0xD84 DUP3 DUP11 PUSH2 0x7FF JUMP JUMPDEST SWAP2 POP PUSH2 0xD8F DUP3 PUSH2 0x98E JUMP JUMPDEST SWAP2 POP PUSH2 0xD9B DUP3 DUP10 PUSH2 0x7FF JUMP JUMPDEST SWAP2 POP PUSH2 0xDA6 DUP3 PUSH2 0xB78 JUMP JUMPDEST SWAP2 POP PUSH2 0xDB2 DUP3 DUP9 PUSH2 0x7FF JUMP JUMPDEST SWAP2 POP PUSH2 0xDBD DUP3 PUSH2 0x9D4 JUMP JUMPDEST SWAP2 POP PUSH2 0xDC9 DUP3 DUP8 PUSH2 0x7FF JUMP JUMPDEST SWAP2 POP PUSH2 0xDD4 DUP3 PUSH2 0xCD6 JUMP JUMPDEST SWAP2 POP PUSH2 0xDE0 DUP3 DUP7 PUSH2 0x7FF JUMP JUMPDEST SWAP2 POP PUSH2 0xDEB DUP3 PUSH2 0xC6D JUMP JUMPDEST SWAP2 POP PUSH2 0xDF7 DUP3 DUP6 PUSH2 0x7FF JUMP JUMPDEST SWAP2 POP PUSH2 0xE02 DUP3 PUSH2 0xAA6 JUMP JUMPDEST SWAP2 POP PUSH2 0xE0E DUP3 DUP5 PUSH2 0x7FF JUMP JUMPDEST SWAP2 POP PUSH2 0xE19 DUP3 PUSH2 0xC90 JUMP JUMPDEST SWAP2 POP DUP2 SWAP1 POP SWAP11 SWAP10 POP POP POP POP POP POP POP POP POP POP JUMP JUMPDEST PUSH1 0x0 PUSH2 0xE37 DUP3 PUSH2 0xAEC JUMP JUMPDEST SWAP2 POP PUSH2 0xE43 DUP3 DUP5 PUSH2 0x7FF JUMP JUMPDEST SWAP2 POP DUP2 SWAP1 POP SWAP3 SWAP2 POP POP JUMP JUMPDEST PUSH1 0x0 PUSH2 0xE59 DUP3 PUSH2 0xB9B JUMP JUMPDEST SWAP2 POP PUSH2 0xE64 DUP3 PUSH2 0xAC9 JUMP JUMPDEST SWAP2 POP PUSH2 0xE6F DUP3 PUSH2 0xB0F JUMP JUMPDEST SWAP2 POP PUSH2 0xE7A DUP3 PUSH2 0x96B JUMP JUMPDEST SWAP2 POP PUSH2 0xE85 DUP3 PUSH2 0xD1C JUMP JUMPDEST SWAP2 POP PUSH2 0xE90 DUP3 PUSH2 0xA1A JUMP JUMPDEST SWAP2 POP PUSH2 0xE9B DUP3 PUSH2 0xA60 JUMP JUMPDEST SWAP2 POP PUSH2 0xEA6 DUP3 PUSH2 0xCF9 JUMP JUMPDEST SWAP2 POP PUSH2 0xEB1 DUP3 PUSH2 0xA1A JUMP JUMPDEST SWAP2 POP PUSH2 0xEBC DUP3 PUSH2 0x902 JUMP JUMPDEST SWAP2 POP PUSH2 0xEC7 DUP3 PUSH2 0xBBE JUMP JUMPDEST SWAP2 POP PUSH2 0xED3 DUP3 DUP12 PUSH2 0x7FF JUMP JUMPDEST SWAP2 POP PUSH2 0xEDE DUP3 PUSH2 0xA1A JUMP JUMPDEST SWAP2 POP PUSH2 0xEE9 DUP3 PUSH2 0x876 JUMP JUMPDEST SWAP2 POP PUSH2 0xEF4 DUP3 PUSH2 0xC4A JUMP JUMPDEST SWAP2 POP PUSH2 0xF00 DUP3 DUP11 PUSH2 0x7FF JUMP JUMPDEST SWAP2 POP PUSH2 0xF0B DUP3 PUSH2 0xA1A JUMP JUMPDEST SWAP2 POP PUSH2 0xF16 DUP3 PUSH2 0xB32 JUMP JUMPDEST SWAP2 POP PUSH2 0xF21 DUP3 PUSH2 0x830 JUMP JUMPDEST SWAP2 POP PUSH2 0xF2D DUP3 DUP10 PUSH2 0x7FF JUMP JUMPDEST SWAP2 POP PUSH2 0xF38 DUP3 PUSH2 0xA1A JUMP JUMPDEST SWAP2 POP PUSH2 0xF43 DUP3 PUSH2 0x899 JUMP JUMPDEST SWAP2 POP PUSH2 0xF4E DUP3 PUSH2 0x8DF JUMP JUMPDEST SWAP2 POP PUSH2 0xF5A DUP3 DUP9 PUSH2 0x7FF JUMP JUMPDEST SWAP2 POP PUSH2 0xF65 DUP3 PUSH2 0xA1A JUMP JUMPDEST SWAP2 POP PUSH2 0xF70 DUP3 PUSH2 0xBE1 JUMP JUMPDEST SWAP2 POP PUSH2 0xF7B DUP3 PUSH2 0xA3D JUMP JUMPDEST SWAP2 POP PUSH2 0xF87 DUP3 DUP8 PUSH2 0x7FF JUMP JUMPDEST SWAP2 POP PUSH2 0xF92 DUP3 PUSH2 0xA1A JUMP JUMPDEST SWAP2 POP PUSH2 0xF9D DUP3 PUSH2 0x8BC JUMP JUMPDEST SWAP2 POP PUSH2 0xFA8 DUP3 PUSH2 0x9B1 JUMP JUMPDEST SWAP2 POP PUSH2 0xFB4 DUP3 DUP7 PUSH2 0x7FF JUMP JUMPDEST SWAP2 POP PUSH2 0xFBF DUP3 PUSH2 0xA1A JUMP JUMPDEST SWAP2 POP PUSH2 0xFCA DUP3 PUSH2 0x9F7 JUMP JUMPDEST SWAP2 POP PUSH2 0xFD5 DUP3 PUSH2 0xA83 JUMP JUMPDEST SWAP2 POP PUSH2 0xFE1 DUP3 DUP6 PUSH2 0x7FF JUMP JUMPDEST SWAP2 POP PUSH2 0xFEC DUP3 PUSH2 0xA1A JUMP JUMPDEST SWAP2 POP PUSH2 0xFF7 DUP3 PUSH2 0xB55 JUMP JUMPDEST SWAP2 POP PUSH2 0x1002 DUP3 PUSH2 0x925 JUMP JUMPDEST SWAP2 POP PUSH2 0x100E DUP3 DUP5 PUSH2 0x7FF JUMP JUMPDEST SWAP2 POP PUSH2 0x1019 DUP3 PUSH2 0xA1A JUMP JUMPDEST SWAP2 POP PUSH2 0x1024 DUP3 PUSH2 0xC27 JUMP JUMPDEST SWAP2 POP DUP2 SWAP1 POP SWAP10 SWAP9 POP POP POP POP POP POP POP POP POP JUMP JUMPDEST PUSH1 0x0 PUSH2 0x1041 DUP3 PUSH2 0xCB3 JUMP JUMPDEST SWAP2 POP PUSH2 0x104D DUP3 DUP5 PUSH2 0x7FF JUMP JUMPDEST SWAP2 POP DUP2 SWAP1 POP SWAP3 SWAP2 POP POP JUMP JUMPDEST PUSH1 0x0 PUSH1 0x20 DUP3 ADD SWAP1 POP DUP2 DUP2 SUB PUSH1 0x0 DUP4 ADD MSTORE PUSH2 0x1072 DUP2 DUP5 PUSH2 0x7C6 JUMP JUMPDEST SWAP1 POP SWAP3 SWAP2 POP POP JUMP JUMPDEST PUSH1 0x0 PUSH2 0x1084 PUSH2 0x1095 JUMP JUMPDEST SWAP1 POP PUSH2 0x1090 DUP3 DUP3 PUSH2 0x1255 JUMP JUMPDEST SWAP2 SWAP1 POP JUMP JUMPDEST PUSH1 0x0 PUSH1 0x40 MLOAD SWAP1 POP SWAP1 JUMP JUMPDEST PUSH1 0x0 PUSH8 0xFFFFFFFFFFFFFFFF DUP3 GT ISZERO PUSH2 0x10BA JUMPI PUSH2 0x10B9 PUSH2 0x12E4 JUMP JUMPDEST JUMPDEST PUSH2 0x10C3 DUP3 PUSH2 0x1327 JUMP JUMPDEST SWAP1 POP PUSH1 0x20 DUP2 ADD SWAP1 POP SWAP2 SWAP1 POP JUMP JUMPDEST PUSH1 0x0 PUSH8 0xFFFFFFFFFFFFFFFF DUP3 GT ISZERO PUSH2 0x10EB JUMPI PUSH2 0x10EA PUSH2 0x12E4 JUMP JUMPDEST JUMPDEST PUSH2 0x10F4 DUP3 PUSH2 0x1327 JUMP JUMPDEST SWAP1 POP PUSH1 0x20 DUP2 ADD SWAP1 POP SWAP2 SWAP1 POP JUMP JUMPDEST PUSH1 0x0 DUP2 MLOAD SWAP1 POP SWAP2 SWAP1 POP JUMP JUMPDEST PUSH1 0x0 DUP3 DUP3 MSTORE PUSH1 0x20 DUP3 ADD SWAP1 POP SWAP3 SWAP2 POP POP JUMP JUMPDEST PUSH1 0x0 DUP2 SWAP1 POP SWAP3 SWAP2 POP POP JUMP JUMPDEST PUSH1 0x0 PUSH2 0x1133 DUP3 PUSH2 0x1209 JUMP JUMPDEST SWAP2 POP PUSH2 0x113E DUP4 PUSH2 0x1209 JUMP JUMPDEST SWAP3 POP DUP3 PUSH32 0xFFFFFFFFFFFFFFFFFFFFFFFFFFFFFFFFFFFFFFFFFFFFFFFFFFFFFFFFFFFFFFFF SUB DUP3 GT ISZERO PUSH2 0x1173 JUMPI PUSH2 0x1172 PUSH2 0x1286 JUMP JUMPDEST JUMPDEST DUP3 DUP3 ADD SWAP1 POP SWAP3 SWAP2 POP POP JUMP JUMPDEST PUSH1 0x0 PUSH2 0x1189 DUP3 PUSH2 0x1209 JUMP JUMPDEST SWAP2 POP PUSH2 0x1194 DUP4 PUSH2 0x1209 JUMP JUMPDEST SWAP3 POP DUP3 PUSH2 0x11A4 JUMPI PUSH2 0x11A3 PUSH2 0x12B5 JUMP JUMPDEST JUMPDEST DUP3 DUP3 DIV SWAP1 POP SWAP3 SWAP2 POP POP JUMP JUMPDEST PUSH1 0x0 PUSH2 0x11BA DUP3 PUSH2 0x1209 JUMP JUMPDEST SWAP2 POP PUSH2 0x11C5 DUP4 PUSH2 0x1209 JUMP JUMPDEST SWAP3 POP DUP2 PUSH32 0xFFFFFFFFFFFFFFFFFFFFFFFFFFFFFFFFFFFFFFFFFFFFFFFFFFFFFFFFFFFFFFFF DIV DUP4 GT DUP3 ISZERO ISZERO AND ISZERO PUSH2 0x11FE JUMPI PUSH2 0x11FD PUSH2 0x1286 JUMP JUMPDEST JUMPDEST DUP3 DUP3 MUL SWAP1 POP SWAP3 SWAP2 POP POP JUMP JUMPDEST PUSH1 0x0 DUP2 SWAP1 POP SWAP2 SWAP1 POP JUMP JUMPDEST DUP3 DUP2 DUP4 CALLDATACOPY PUSH1 0x0 DUP4 DUP4 ADD MSTORE POP POP POP JUMP JUMPDEST PUSH1 0x0 JUMPDEST DUP4 DUP2 LT ISZERO PUSH2 0x1240 JUMPI DUP1 DUP3 ADD MLOAD DUP2 DUP5 ADD MSTORE PUSH1 0x20 DUP2 ADD SWAP1 POP PUSH2 0x1225 JUMP JUMPDEST DUP4 DUP2 GT ISZERO PUSH2 0x124F JUMPI PUSH1 0x0 DUP5 DUP5 ADD MSTORE JUMPDEST POP POP POP POP JUMP JUMPDEST PUSH2 0x125E DUP3 PUSH2 0x1327 JUMP JUMPDEST DUP2 ADD DUP2 DUP2 LT PUSH8 0xFFFFFFFFFFFFFFFF DUP3 GT OR ISZERO PUSH2 0x127D JUMPI PUSH2 0x127C PUSH2 0x12E4 JUMP JUMPDEST JUMPDEST DUP1 PUSH1 0x40 MSTORE POP POP POP JUMP JUMPDEST PUSH32 0x4E487B7100000000000000000000000000000000000000000000000000000000 PUSH1 0x0 MSTORE PUSH1 0x11 PUSH1 0x4 MSTORE PUSH1 0x24 PUSH1 0x0 REVERT JUMPDEST PUSH32 0x4E487B7100000000000000000000000000000000000000000000000000000000 PUSH1 0x0 MSTORE PUSH1 0x12 PUSH1 0x4 MSTORE PUSH1 0x24 PUSH1 0x0 REVERT JUMPDEST PUSH32 0x4E487B7100000000000000000000000000000000000000000000000000000000 PUSH1 0x0 MSTORE PUSH1 0x41 PUSH1 0x4 MSTORE PUSH1 0x24 PUSH1 0x0 REVERT JUMPDEST PUSH1 0x0 DUP1 REVERT JUMPDEST PUSH1 0x0 DUP1 REVERT JUMPDEST PUSH1 0x0 DUP1 REVERT JUMPDEST PUSH1 0x0 DUP1 REVERT JUMPDEST PUSH1 0x0 PUSH1 0x1F NOT PUSH1 0x1F DUP4 ADD AND SWAP1 POP SWAP2 SWAP1 POP JUMP JUMPDEST PUSH32 0x50657263656E746167653A200000000000000000000000000000000000000000 PUSH1 0x0 DUP3 ADD MSTORE POP JUMP JUMPDEST PUSH32 0x227D2C7B2274726169745F74797065223A20226D61747572697479222C227661 PUSH1 0x0 DUP3 ADD MSTORE PUSH32 0x6C7565223A202200000000000000000000000000000000000000000000000000 PUSH1 0x20 DUP3 ADD MSTORE POP JUMP JUMPDEST PUSH32 0x3C7465787420783D223530252220793D223435252220636C6173733D22626173 PUSH1 0x0 DUP3 ADD MSTORE PUSH32 0x652220646F6D696E616E742D626173656C696E653D226D6964646C6522207465 PUSH1 0x20 DUP3 ADD MSTORE PUSH32 0x78742D616E63686F723D226D6964646C65223E00000000000000000000000000 PUSH1 0x40 DUP3 ADD MSTORE POP JUMP JUMPDEST PUSH32 0x3C7465787420783D223530252220793D223535252220636C6173733D22626173 PUSH1 0x0 DUP3 ADD MSTORE PUSH32 0x652220646F6D696E616E742D626173656C696E653D226D6964646C6522207465 PUSH1 0x20 DUP3 ADD MSTORE PUSH32 0x78742D616E63686F723D226D6964646C65223E00000000000000000000000000 PUSH1 0x40 DUP3 ADD MSTORE POP JUMP JUMPDEST PUSH32 0x3C7465787420783D223530252220793D223635252220636C6173733D22626173 PUSH1 0x0 DUP3 ADD MSTORE PUSH32 0x652220646F6D696E616E742D626173656C696E653D226D6964646C6522207465 PUSH1 0x20 DUP3 ADD MSTORE PUSH32 0x78742D616E63686F723D226D6964646C65223E00000000000000000000000000 PUSH1 0x40 DUP3 ADD MSTORE POP JUMP JUMPDEST PUSH32 0x4552433230436F6E7472616374416464726573733A2000000000000000000000 PUSH1 0x0 DUP3 ADD MSTORE POP JUMP JUMPDEST PUSH32 0x3C7465787420783D223530252220793D223430252220636C6173733D22626173 PUSH1 0x0 DUP3 ADD MSTORE PUSH32 0x652220646F6D696E616E742D626173656C696E653D226D6964646C6522207465 PUSH1 0x20 DUP3 ADD MSTORE PUSH32 0x78742D616E63686F723D226D6964646C65223E00000000000000000000000000 PUSH1 0x40 DUP3 ADD MSTORE POP JUMP JUMPDEST PUSH32 0x546F74616C436C61696D3A200000000000000000000000000000000000000000 PUSH1 0x0 DUP3 ADD MSTORE POP JUMP JUMPDEST PUSH32 0x7B226E616D65223A20224D7920436F6E7472616374222C22696D616765223A20 PUSH1 0x0 DUP3 ADD MSTORE PUSH32 0x2200000000000000000000000000000000000000000000000000000000000000 PUSH1 0x20 DUP3 ADD MSTORE POP JUMP JUMPDEST PUSH32 0x3C7465787420783D223530252220793D223330252220636C6173733D22626173 PUSH1 0x0 DUP3 ADD MSTORE PUSH32 0x652220646F6D696E616E742D626173656C696E653D226D6964646C6522207465 PUSH1 0x20 DUP3 ADD MSTORE PUSH32 0x78742D616E63686F723D226D6964646C65223E00000000000000000000000000 PUSH1 0x40 DUP3 ADD MSTORE POP JUMP JUMPDEST PUSH32 0x227D2C7B2274726169745F74797065223A202270657263656E74616765222C22 PUSH1 0x0 DUP3 ADD MSTORE PUSH32 0x76616C7565223A20220000000000000000000000000000000000000000000000 PUSH1 0x20 DUP3 ADD MSTORE POP JUMP JUMPDEST PUSH32 0x436F6E74726163744E616D653A20000000000000000000000000000000000000 PUSH1 0x0 DUP3 ADD MSTORE POP JUMP JUMPDEST PUSH32 0x227D2C7B2274726169745F74797065223A20224E4654436F6E74726163744164 PUSH1 0x0 DUP3 ADD MSTORE PUSH32 0x6472657373222C2276616C7565223A2022000000000000000000000000000000 PUSH1 0x20 DUP3 ADD MSTORE POP JUMP JUMPDEST PUSH32 0x3C7465787420783D223530252220793D223730252220636C6173733D22626173 PUSH1 0x0 DUP3 ADD MSTORE PUSH32 0x652220646F6D696E616E742D626173656C696E653D226D6964646C6522207465 PUSH1 0x20 DUP3 ADD MSTORE PUSH32 0x78742D616E63686F723D226D6964646C65223E00000000000000000000000000 PUSH1 0x40 DUP3 ADD MSTORE POP JUMP JUMPDEST PUSH32 0x3C2F746578743E00000000000000000000000000000000000000000000000000 PUSH1 0x0 DUP3 ADD MSTORE POP JUMP JUMPDEST PUSH32 0x4E4654436F6E7472616374416464726573733A20000000000000000000000000 PUSH1 0x0 DUP3 ADD MSTORE POP JUMP JUMPDEST PUSH32 0x3C7465787420783D223530252220793D223335252220636C6173733D22626173 PUSH1 0x0 DUP3 ADD MSTORE PUSH32 0x652220646F6D696E616E742D626173656C696E653D226D6964646C6522207465 PUSH1 0x20 DUP3 ADD MSTORE PUSH32 0x78742D616E63686F723D226D6964646C65223E00000000000000000000000000 PUSH1 0x40 DUP3 ADD MSTORE POP JUMP JUMPDEST PUSH32 0x436F6E747261637453796D626F6C3A2000000000000000000000000000000000 PUSH1 0x0 DUP3 ADD MSTORE POP JUMP JUMPDEST PUSH32 0x227D2C7B2274726169745F74797065223A2022546F74616C436C61696D222C22 PUSH1 0x0 DUP3 ADD MSTORE PUSH32 0x76616C7565223A20220000000000000000000000000000000000000000000000 PUSH1 0x20 DUP3 ADD MSTORE POP JUMP JUMPDEST PUSH32 0x3C7374796C653E2E62617365207B2066696C6C3A2077686974653B20666F6E74 PUSH1 0x0 DUP3 ADD MSTORE PUSH32 0x2D66616D696C793A2073657269663B20666F6E742D73697A653A20313470783B PUSH1 0x20 DUP3 ADD MSTORE PUSH32 0x207D3C2F7374796C653E00000000000000000000000000000000000000000000 PUSH1 0x40 DUP3 ADD MSTORE POP JUMP JUMPDEST PUSH32 0x646174613A6170706C69636174696F6E2F6A736F6E3B6261736536342C000000 PUSH1 0x0 DUP3 ADD MSTORE POP JUMP JUMPDEST PUSH32 0x3C726563742077696474683D223130302522206865696768743D223130302522 PUSH1 0x0 DUP3 ADD MSTORE PUSH32 0x2066696C6C3D22626C756522202F3E0000000000000000000000000000000000 PUSH1 0x20 DUP3 ADD MSTORE POP JUMP JUMPDEST PUSH32 0x3C7465787420783D223530252220793D223530252220636C6173733D22626173 PUSH1 0x0 DUP3 ADD MSTORE PUSH32 0x652220646F6D696E616E742D626173656C696E653D226D6964646C6522207465 PUSH1 0x20 DUP3 ADD MSTORE PUSH32 0x78742D616E63686F723D226D6964646C65223E00000000000000000000000000 PUSH1 0x40 DUP3 ADD MSTORE POP JUMP JUMPDEST PUSH32 0x3C7465787420783D223530252220793D223735252220636C6173733D22626173 PUSH1 0x0 DUP3 ADD MSTORE PUSH32 0x652220646F6D696E616E742D626173656C696E653D226D6964646C6522207465 PUSH1 0x20 DUP3 ADD MSTORE PUSH32 0x78742D616E63686F723D226D6964646C65223E00000000000000000000000000 PUSH1 0x40 DUP3 ADD MSTORE POP JUMP JUMPDEST PUSH32 0x227D2C7B202274726169745F74797065223A20224552433230436F6E74726163 PUSH1 0x0 DUP3 ADD MSTORE PUSH32 0x7441646472657373222C2276616C7565223A2022000000000000000000000000 PUSH1 0x20 DUP3 ADD MSTORE POP JUMP JUMPDEST PUSH32 0x3C73766720786D6C6E733D22687474703A2F2F7777772E77332E6F72672F3230 PUSH1 0x0 DUP3 ADD MSTORE PUSH32 0x30302F73766722207072657365727665417370656374526174696F3D22784D69 PUSH1 0x20 DUP3 ADD MSTORE PUSH32 0x6E594D696E206D656574222076696577426F783D223020302035303020353030 PUSH1 0x40 DUP3 ADD MSTORE PUSH32 0x223E000000000000000000000000000000000000000000000000000000000000 PUSH1 0x60 DUP3 ADD MSTORE POP JUMP JUMPDEST PUSH32 0x4465706F73697465643A20000000000000000000000000000000000000000000 PUSH1 0x0 DUP3 ADD MSTORE POP JUMP JUMPDEST PUSH32 0x3C7465787420783D223530252220793D223630252220636C6173733D22626173 PUSH1 0x0 DUP3 ADD MSTORE PUSH32 0x652220646F6D696E616E742D626173656C696E653D226D6964646C6522207465 PUSH1 0x20 DUP3 ADD MSTORE PUSH32 0x78742D616E63686F723D226D6964646C65223E00000000000000000000000000 PUSH1 0x40 DUP3 ADD MSTORE POP JUMP JUMPDEST PUSH32 0x22202C226465736372697074696F6E223A202254686973206973206465706F73 PUSH1 0x0 DUP3 ADD MSTORE PUSH32 0x697420616E6420776974686472617720636F6E7472616374222C202261747472 PUSH1 0x20 DUP3 ADD MSTORE PUSH32 0x696275746573223A205B7B202274726169745F74797065223A20226465706F73 PUSH1 0x40 DUP3 ADD MSTORE PUSH32 0x69746564222C2276616C7565223A202200000000000000000000000000000000 PUSH1 0x60 DUP3 ADD MSTORE POP JUMP JUMPDEST PUSH32 0x3C2F7376673E0000000000000000000000000000000000000000000000000000 PUSH1 0x0 DUP3 ADD MSTORE POP JUMP JUMPDEST PUSH32 0x4D617475726974793A2000000000000000000000000000000000000000000000 PUSH1 0x0 DUP3 ADD MSTORE POP JUMP JUMPDEST PUSH32 0x227D2C7B202274726169745F74797065223A2022436F6E747261637453796D62 PUSH1 0x0 DUP3 ADD MSTORE PUSH32 0x6F6C222C2276616C7565223A2022000000000000000000000000000000000000 PUSH1 0x20 DUP3 ADD MSTORE POP JUMP JUMPDEST PUSH32 0x227D5D7D00000000000000000000000000000000000000000000000000000000 PUSH1 0x0 DUP3 ADD MSTORE POP JUMP JUMPDEST PUSH32 0x646174613A696D6167652F7376672B786D6C3B6261736536342C000000000000 PUSH1 0x0 DUP3 ADD MSTORE POP JUMP JUMPDEST PUSH32 0x227D2C7B2274726169745F74797065223A2022436F6E74726163744E616D6522 PUSH1 0x0 DUP3 ADD MSTORE PUSH32 0x2C2276616C7565223A2022000000000000000000000000000000000000000000 PUSH1 0x20 DUP3 ADD MSTORE POP JUMP JUMPDEST PUSH32 0x54686973206973206465706F73697420616E6420776974686472617720636F6E PUSH1 0x0 DUP3 ADD MSTORE PUSH32 0x7472616374000000000000000000000000000000000000000000000000000000 PUSH1 0x20 DUP3 ADD MSTORE POP JUMP JUMPDEST PUSH32 0x4D7920436F6E7472616374000000000000000000000000000000000000000000 PUSH1 0x0 DUP3 ADD MSTORE POP JUMP INVALID COINBASE TIMESTAMP NUMBER DIFFICULTY GASLIMIT CHAINID SELFBALANCE BASEFEE 0x49 0x4A 0x4B 0x4C 0x4D 0x4E 0x4F POP MLOAD MSTORE MSTORE8 SLOAD SSTORE JUMP JUMPI PC MSIZE GAS PUSH2 0x6263 PUSH5 0x6566676869 PUSH11 0x6B6C6D6E6F707172737475 PUSH23 0x7778797A303132333435363738392B2FA2646970667358 0x22 SLT KECCAK256 PUSH7 0x808DADC27272D7 SWAP4 0x5F 0xF8 SELFBALANCE 0xC4 0xAD DUP11 0xDC SGT CALL ADD LT 0xB7 0xA5 0xAF PUSH14 0x54870FFDC1C2B7E264736F6C6343 STOP ADDMOD SMOD STOP CALLER "
				},
				"gasEstimates": {
					"creation": {
						"codeDepositCost": "1599800",
						"executionCost": "1673",
						"totalCost": "1601473"
					},
					"external": {
						"GetImageUrl(string,string,string,string,string,string,string,string)": "infinite",
						"GetUrl(string,string,string,string,string,string,string,string,string)": "infinite",
						"encode(bytes)": "infinite"
					}
				},
				"methodIdentifiers": {
					"GetImageUrl(string,string,string,string,string,string,string,string)": "0a767490",
					"GetUrl(string,string,string,string,string,string,string,string,string)": "058a6be5",
					"encode(bytes)": "12496a1b"
				}
			},
			"storageLayout": {
				"storage": [],
				"types": null
			},
			"userdoc": {
				"kind": "user",
				"methods": {
					"encode(bytes)": {
						"notice": "Encodes some bytes to the base64 representation"
					}
				},
				"notice": "[MIT License]Provides a function for encoding some bytes in base64",
				"version": 1
			}
		}
	}
}