{
	"contracts/OnChain/EncodeGenerate.sol": {
		"EncodeGenerate": {
			"abi": [
				{
					"inputs": [
						{
							"internalType": "string",
							"name": "deposited",
							"type": "string"
						},
						{
							"internalType": "string",
							"name": "MaturityTime",
							"type": "string"
						},
						{
							"internalType": "string",
							"name": "Persentage",
							"type": "string"
						},
						{
							"internalType": "string",
							"name": "ERC20ContractAddress",
							"type": "string"
						},
						{
							"internalType": "string",
							"name": "NFTContractAddress",
							"type": "string"
						},
						{
							"internalType": "string",
							"name": "ContractName",
							"type": "string"
						},
						{
							"internalType": "string",
							"name": "ContractSymbol",
							"type": "string"
						},
						{
							"internalType": "string",
							"name": "TotalClaim",
							"type": "string"
						}
					],
					"name": "GetImageUrl",
					"outputs": [
						{
							"internalType": "string",
							"name": "",
							"type": "string"
						}
					],
					"stateMutability": "pure",
					"type": "function"
				},
				{
					"inputs": [
						{
							"internalType": "string",
							"name": "deposited",
							"type": "string"
						},
						{
							"internalType": "string",
							"name": "MaturityTime",
							"type": "string"
						},
						{
							"internalType": "string",
							"name": "Persentage",
							"type": "string"
						},
						{
							"internalType": "string",
							"name": "ERC20ContractAddress",
							"type": "string"
						},
						{
							"internalType": "string",
							"name": "NFTContractAddress",
							"type": "string"
						},
						{
							"internalType": "string",
							"name": "ContractName",
							"type": "string"
						},
						{
							"internalType": "string",
							"name": "ContractSymbol",
							"type": "string"
						},
						{
							"internalType": "string",
							"name": "TotalClaim",
							"type": "string"
						},
						{
							"internalType": "string",
							"name": "iUrl",
							"type": "string"
						}
					],
					"name": "GetUrl",
					"outputs": [
						{
							"internalType": "string",
							"name": "",
							"type": "string"
						}
					],
					"stateMutability": "pure",
					"type": "function"
				},
				{
					"inputs": [
						{
							"internalType": "bytes",
							"name": "data",
							"type": "bytes"
						}
					],
					"name": "encode",
					"outputs": [
						{
							"internalType": "string",
							"name": "",
							"type": "string"
						}
					],
					"stateMutability": "pure",
					"type": "function"
				}
			],
			"devdoc": {
				"author": "Brecht Devos <brecht@loopring.org>",
				"kind": "dev",
				"methods": {},
				"title": "Base64",
				"version": 1
			},
			"evm": {
				"assembly": "    /* \"contracts/OnChain/EncodeGenerate.sol\":275:5765  contract EncodeGenerate {... */\n  mstore(0x40, 0x80)\n  callvalue\n  dup1\n  iszero\n  tag_1\n  jumpi\n  0x00\n  dup1\n  revert\ntag_1:\n  pop\n  dataSize(sub_0)\n  dup1\n  dataOffset(sub_0)\n  0x00\n  codecopy\n  0x00\n  return\nstop\n\nsub_0: assembly {\n        /* \"contracts/OnChain/EncodeGenerate.sol\":275:5765  contract EncodeGenerate {... */\n      mstore(0x40, 0x80)\n      callvalue\n      dup1\n      iszero\n      tag_1\n      jumpi\n      0x00\n      dup1\n      revert\n    tag_1:\n      pop\n      jumpi(tag_2, lt(calldatasize, 0x04))\n      shr(0xe0, calldataload(0x00))\n      dup1\n      0x058a6be5\n      eq\n      tag_3\n      jumpi\n      dup1\n      0x0a767490\n      eq\n      tag_4\n      jumpi\n      dup1\n      0x12496a1b\n      eq\n      tag_5\n      jumpi\n    tag_2:\n      0x00\n      dup1\n      revert\n        /* \"contracts/OnChain/EncodeGenerate.sol\":4509:5763  function GetUrl( string memory deposited, string memory MaturityTime, string memory Persentage, string memory ERC20ContractAddress, string memory NFTContractAddress, string memory ContractName, string memory ContractSymbol, string memory TotalClaim, string memory iUrl) public pure returns (string memory) {... */\n    tag_3:\n      tag_6\n      0x04\n      dup1\n      calldatasize\n      sub\n      dup2\n      add\n      swap1\n      tag_7\n      swap2\n      swap1\n      tag_8\n      jump\t// in\n    tag_7:\n      tag_9\n      jump\t// in\n    tag_6:\n      mload(0x40)\n      tag_10\n      swap2\n      swap1\n      tag_11\n      jump\t// in\n    tag_10:\n      mload(0x40)\n      dup1\n      swap2\n      sub\n      swap1\n      return\n        /* \"contracts/OnChain/EncodeGenerate.sol\":2217:4503  function GetImageUrl( string memory deposited, string memory MaturityTime, string memory Persentage, string memory ERC20ContractAddress, string memory NFTContractAddress, string memory ContractName, string memory ContractSymbol, string memory TotalClaim) public pure returns (string memory) {... */\n    tag_4:\n      tag_12\n      0x04\n      dup1\n      calldatasize\n      sub\n      dup2\n      add\n      swap1\n      tag_13\n      swap2\n      swap1\n      tag_14\n      jump\t// in\n    tag_13:\n      tag_15\n      jump\t// in\n    tag_12:\n      mload(0x40)\n      tag_16\n      swap2\n      swap1\n      tag_11\n      jump\t// in\n    tag_16:\n      mload(0x40)\n      dup1\n      swap2\n      sub\n      swap1\n      return\n        /* \"contracts/OnChain/EncodeGenerate.sol\":482:2211  function encode(bytes memory data) public pure returns (string memory) {... */\n    tag_5:\n      tag_17\n      0x04\n      dup1\n      calldatasize\n      sub\n      dup2\n      add\n      swap1\n      tag_18\n      swap2\n      swap1\n      tag_19\n      jump\t// in\n    tag_18:\n      tag_20\n      jump\t// in\n    tag_17:\n      mload(0x40)\n      tag_21\n      swap2\n      swap1\n      tag_11\n      jump\t// in\n    tag_21:\n      mload(0x40)\n      dup1\n      swap2\n      sub\n      swap1\n      return\n        /* \"contracts/OnChain/EncodeGenerate.sol\":4509:5763  function GetUrl( string memory deposited, string memory MaturityTime, string memory Persentage, string memory ERC20ContractAddress, string memory NFTContractAddress, string memory ContractName, string memory ContractSymbol, string memory TotalClaim, string memory iUrl) public pure returns (string memory) {... */\n    tag_9:\n        /* \"contracts/OnChain/EncodeGenerate.sol\":4800:4813  string memory */\n      0x60\n        /* \"contracts/OnChain/EncodeGenerate.sol\":4955:5724  encode(... */\n      tag_23\n        /* \"contracts/OnChain/EncodeGenerate.sol\":5075:5079  iUrl */\n      dup3\n        /* \"contracts/OnChain/EncodeGenerate.sol\":5195:5204  deposited */\n      dup12\n        /* \"contracts/OnChain/EncodeGenerate.sol\":5247:5259  MaturityTime */\n      dup12\n        /* \"contracts/OnChain/EncodeGenerate.sol\":5304:5314  Persentage */\n      dup12\n        /* \"contracts/OnChain/EncodeGenerate.sol\":5370:5390  ERC20ContractAddress */\n      dup12\n        /* \"contracts/OnChain/EncodeGenerate.sol\":5443:5461  NFTContractAddress */\n      dup12\n        /* \"contracts/OnChain/EncodeGenerate.sol\":5508:5520  ContractName */\n      dup12\n        /* \"contracts/OnChain/EncodeGenerate.sol\":5570:5584  ContractSymbol */\n      dup12\n        /* \"contracts/OnChain/EncodeGenerate.sol\":5629:5639  TotalClaim */\n      dup12\n        /* \"contracts/OnChain/EncodeGenerate.sol\":5022:5676  abi.encodePacked('{\"name\": \"My Contract\",\"image\": \"',iUrl,'\" ,\"description\": \"This is deposit and withdraw contract\", \"attributes\": [{ \"trait_type\": \"deposited\",\"value\": \"',deposited,'\"},{\"trait_type\": \"maturity\",\"value\": \"',MaturityTime,'\"},{\"trait_type\": \"percentage\",\"value\": \"',Persentage,'\"},{ \"trait_type\": \"ERC20ContractAddress\",\"value\": \"',ERC20ContractAddress,'\"},{\"trait_type\": \"NFTContractAddress\",\"value\": \"',NFTContractAddress,'\"},{\"trait_type\": \"ContractName\",\"value\": \"',ContractName,'\"},{ \"trait_type\": \"ContractSymbol\",\"value\": \"',ContractSymbol,'\"},{\"trait_type\": \"TotalClaim\",\"value\": \"',TotalClaim,'\"}]}'... */\n      add(0x20, mload(0x40))\n      tag_24\n      swap10\n      swap9\n      swap8\n      swap7\n      swap6\n      swap5\n      swap4\n      swap3\n      swap2\n      swap1\n      tag_25\n      jump\t// in\n    tag_24:\n      mload(0x40)\n      0x20\n      dup2\n      dup4\n      sub\n      sub\n      dup2\n      mstore\n      swap1\n      0x40\n      mstore\n        /* \"contracts/OnChain/EncodeGenerate.sol\":4955:4961  encode */\n      tag_20\n        /* \"contracts/OnChain/EncodeGenerate.sol\":4955:5724  encode(... */\n      jump\t// in\n    tag_23:\n        /* \"contracts/OnChain/EncodeGenerate.sol\":4864:5742  abi.encodePacked(... */\n      add(0x20, mload(0x40))\n      tag_26\n      swap2\n      swap1\n      tag_27\n      jump\t// in\n    tag_26:\n      mload(0x40)\n      0x20\n      dup2\n      dup4\n      sub\n      sub\n      dup2\n      mstore\n      swap1\n      0x40\n      mstore\n        /* \"contracts/OnChain/EncodeGenerate.sol\":4833:5756  return string(... */\n      swap1\n      pop\n        /* \"contracts/OnChain/EncodeGenerate.sol\":4509:5763  function GetUrl( string memory deposited, string memory MaturityTime, string memory Persentage, string memory ERC20ContractAddress, string memory NFTContractAddress, string memory ContractName, string memory ContractSymbol, string memory TotalClaim, string memory iUrl) public pure returns (string memory) {... */\n      swap10\n      swap9\n      pop\n      pop\n      pop\n      pop\n      pop\n      pop\n      pop\n      pop\n      pop\n      jump\t// out\n        /* \"contracts/OnChain/EncodeGenerate.sol\":2217:4503  function GetImageUrl( string memory deposited, string memory MaturityTime, string memory Persentage, string memory ERC20ContractAddress, string memory NFTContractAddress, string memory ContractName, string memory ContractSymbol, string memory TotalClaim) public pure returns (string memory) {... */\n    tag_15:\n        /* \"contracts/OnChain/EncodeGenerate.sol\":2493:2506  string memory */\n      0x60\n        /* \"contracts/OnChain/EncodeGenerate.sol\":2518:2534  bytes memory svg */\n      0x00\n        /* \"contracts/OnChain/EncodeGenerate.sol\":3246:3255  deposited */\n      dup10\n        /* \"contracts/OnChain/EncodeGenerate.sol\":3383:3395  MaturityTime */\n      dup10\n        /* \"contracts/OnChain/EncodeGenerate.sol\":3525:3535  Persentage */\n      dup10\n        /* \"contracts/OnChain/EncodeGenerate.sol\":3675:3695  ERC20ContractAddress */\n      dup10\n        /* \"contracts/OnChain/EncodeGenerate.sol\":3833:3851  NFTContractAddress */\n      dup10\n        /* \"contracts/OnChain/EncodeGenerate.sol\":3983:3995  ContractName */\n      dup10\n        /* \"contracts/OnChain/EncodeGenerate.sol\":4129:4143  ContractSymbol */\n      dup10\n        /* \"contracts/OnChain/EncodeGenerate.sol\":4273:4283  TotalClaim */\n      dup10\n        /* \"contracts/OnChain/EncodeGenerate.sol\":2552:4320  abi.encodePacked(... */\n      add(0x20, mload(0x40))\n      tag_29\n      swap9\n      swap8\n      swap7\n      swap6\n      swap5\n      swap4\n      swap3\n      swap2\n      swap1\n      tag_30\n      jump\t// in\n    tag_29:\n      mload(0x40)\n      0x20\n      dup2\n      dup4\n      sub\n      sub\n      dup2\n      mstore\n      swap1\n      0x40\n      mstore\n        /* \"contracts/OnChain/EncodeGenerate.sol\":2518:4320  bytes memory svg =   ... */\n      swap1\n      pop\n        /* \"contracts/OnChain/EncodeGenerate.sol\":4449:4460  encode(svg) */\n      tag_31\n        /* \"contracts/OnChain/EncodeGenerate.sol\":4456:4459  svg */\n      dup2\n        /* \"contracts/OnChain/EncodeGenerate.sol\":4449:4455  encode */\n      tag_20\n        /* \"contracts/OnChain/EncodeGenerate.sol\":4449:4460  encode(svg) */\n      jump\t// in\n    tag_31:\n        /* \"contracts/OnChain/EncodeGenerate.sol\":4361:4478  abi.encodePacked(... */\n      add(0x20, mload(0x40))\n      tag_32\n      swap2\n      swap1\n      tag_33\n      jump\t// in\n    tag_32:\n      mload(0x40)\n      0x20\n      dup2\n      dup4\n      sub\n      sub\n      dup2\n      mstore\n      swap1\n      0x40\n      mstore\n        /* \"contracts/OnChain/EncodeGenerate.sol\":4330:4496  return string(... */\n      swap2\n      pop\n      pop\n        /* \"contracts/OnChain/EncodeGenerate.sol\":2217:4503  function GetImageUrl( string memory deposited, string memory MaturityTime, string memory Persentage, string memory ERC20ContractAddress, string memory NFTContractAddress, string memory ContractName, string memory ContractSymbol, string memory TotalClaim) public pure returns (string memory) {... */\n      swap9\n      swap8\n      pop\n      pop\n      pop\n      pop\n      pop\n      pop\n      pop\n      pop\n      jump\t// out\n        /* \"contracts/OnChain/EncodeGenerate.sol\":482:2211  function encode(bytes memory data) public pure returns (string memory) {... */\n    tag_20:\n        /* \"contracts/OnChain/EncodeGenerate.sol\":538:551  string memory */\n      0x60\n        /* \"contracts/OnChain/EncodeGenerate.sol\":563:574  uint256 len */\n      0x00\n        /* \"contracts/OnChain/EncodeGenerate.sol\":577:581  data */\n      dup3\n        /* \"contracts/OnChain/EncodeGenerate.sol\":577:588  data.length */\n      mload\n        /* \"contracts/OnChain/EncodeGenerate.sol\":563:588  uint256 len = data.length */\n      swap1\n      pop\n        /* \"contracts/OnChain/EncodeGenerate.sol\":609:610  0 */\n      0x00\n        /* \"contracts/OnChain/EncodeGenerate.sol\":602:605  len */\n      dup2\n        /* \"contracts/OnChain/EncodeGenerate.sol\":602:610  len == 0 */\n      sub\n        /* \"contracts/OnChain/EncodeGenerate.sol\":598:621  if (len == 0) return \"\" */\n      tag_35\n      jumpi\n        /* \"contracts/OnChain/EncodeGenerate.sol\":612:621  return \"\" */\n      mload(0x40)\n      dup1\n      0x20\n      add\n      0x40\n      mstore\n      dup1\n      0x00\n      dup2\n      mstore\n      pop\n      swap2\n      pop\n      pop\n      jump(tag_34)\n        /* \"contracts/OnChain/EncodeGenerate.sol\":598:621  if (len == 0) return \"\" */\n    tag_35:\n        /* \"contracts/OnChain/EncodeGenerate.sol\":670:688  uint256 encodedLen */\n      0x00\n        /* \"contracts/OnChain/EncodeGenerate.sol\":708:709  3 */\n      0x03\n        /* \"contracts/OnChain/EncodeGenerate.sol\":703:704  2 */\n      0x02\n        /* \"contracts/OnChain/EncodeGenerate.sol\":697:700  len */\n      dup4\n        /* \"contracts/OnChain/EncodeGenerate.sol\":697:704  len + 2 */\n      tag_36\n      swap2\n      swap1\n      tag_37\n      jump\t// in\n    tag_36:\n        /* \"contracts/OnChain/EncodeGenerate.sol\":696:709  (len + 2) / 3 */\n      tag_38\n      swap2\n      swap1\n      tag_39\n      jump\t// in\n    tag_38:\n        /* \"contracts/OnChain/EncodeGenerate.sol\":691:692  4 */\n      0x04\n        /* \"contracts/OnChain/EncodeGenerate.sol\":691:710  4 * ((len + 2) / 3) */\n      tag_40\n      swap2\n      swap1\n      tag_41\n      jump\t// in\n    tag_40:\n        /* \"contracts/OnChain/EncodeGenerate.sol\":670:710  uint256 encodedLen = 4 * ((len + 2) / 3) */\n      swap1\n      pop\n        /* \"contracts/OnChain/EncodeGenerate.sol\":765:784  bytes memory result */\n      0x00\n        /* \"contracts/OnChain/EncodeGenerate.sol\":810:812  32 */\n      0x20\n        /* \"contracts/OnChain/EncodeGenerate.sol\":797:807  encodedLen */\n      dup3\n        /* \"contracts/OnChain/EncodeGenerate.sol\":797:812  encodedLen + 32 */\n      tag_42\n      swap2\n      swap1\n      tag_37\n      jump\t// in\n    tag_42:\n        /* \"contracts/OnChain/EncodeGenerate.sol\":787:813  new bytes(encodedLen + 32) */\n      0xffffffffffffffff\n      dup2\n      gt\n      iszero\n      tag_43\n      jumpi\n      tag_44\n      tag_45\n      jump\t// in\n    tag_44:\n    tag_43:\n      mload(0x40)\n      swap1\n      dup1\n      dup3\n      mstore\n      dup1\n      0x1f\n      add\n      not(0x1f)\n      and\n      0x20\n      add\n      dup3\n      add\n      0x40\n      mstore\n      dup1\n      iszero\n      tag_46\n      jumpi\n      dup2\n      0x20\n      add\n      0x01\n      dup3\n      mul\n      dup1\n      calldatasize\n      dup4\n      calldatacopy\n      dup1\n      dup3\n      add\n      swap2\n      pop\n      pop\n      swap1\n      pop\n    tag_46:\n      pop\n        /* \"contracts/OnChain/EncodeGenerate.sol\":765:813  bytes memory result = new bytes(encodedLen + 32) */\n      swap1\n      pop\n        /* \"contracts/OnChain/EncodeGenerate.sol\":824:842  bytes memory table */\n      0x00\n        /* \"contracts/OnChain/EncodeGenerate.sol\":845:850  TABLE */\n      mload(0x40)\n      dup1\n      0x60\n      add\n      0x40\n      mstore\n      dup1\n      0x40\n      dup2\n      mstore\n      0x20\n      add\n      data_84d8a590de33e00cbdc16e1f28c3506f5ec15c599fab9a6a4bcd575cc2f110ce\n      0x40\n      swap2\n      codecopy\n        /* \"contracts/OnChain/EncodeGenerate.sol\":824:850  bytes memory table = TABLE */\n      swap1\n      pop\n        /* \"contracts/OnChain/EncodeGenerate.sol\":911:912  1 */\n      0x01\n        /* \"contracts/OnChain/EncodeGenerate.sol\":904:909  table */\n      dup2\n        /* \"contracts/OnChain/EncodeGenerate.sol\":900:913  add(table, 1) */\n      add\n        /* \"contracts/OnChain/EncodeGenerate.sol\":955:957  32 */\n      0x20\n        /* \"contracts/OnChain/EncodeGenerate.sol\":947:953  result */\n      dup4\n        /* \"contracts/OnChain/EncodeGenerate.sol\":943:958  add(result, 32) */\n      add\n        /* \"contracts/OnChain/EncodeGenerate.sol\":1003:1004  0 */\n      0x00\n        /* \"contracts/OnChain/EncodeGenerate.sol\":972:1903  for {... */\n    tag_47:\n        /* \"contracts/OnChain/EncodeGenerate.sol\":1025:1028  len */\n      dup7\n        /* \"contracts/OnChain/EncodeGenerate.sol\":1022:1023  i */\n      dup2\n        /* \"contracts/OnChain/EncodeGenerate.sol\":1019:1029  lt(i, len) */\n      lt\n        /* \"contracts/OnChain/EncodeGenerate.sol\":972:1903  for {... */\n      iszero\n      tag_49\n      jumpi\n        /* \"contracts/OnChain/EncodeGenerate.sol\":1077:1078  3 */\n      0x03\n        /* \"contracts/OnChain/EncodeGenerate.sol\":1074:1075  i */\n      dup2\n        /* \"contracts/OnChain/EncodeGenerate.sol\":1070:1079  add(i, 3) */\n      add\n        /* \"contracts/OnChain/EncodeGenerate.sol\":1065:1079  i := add(i, 3) */\n      swap1\n      pop\n        /* \"contracts/OnChain/EncodeGenerate.sol\":1134:1142  0xffffff */\n      0xffffff\n        /* \"contracts/OnChain/EncodeGenerate.sol\":1129:1130  i */\n      dup2\n        /* \"contracts/OnChain/EncodeGenerate.sol\":1123:1127  data */\n      dup11\n        /* \"contracts/OnChain/EncodeGenerate.sol\":1119:1131  add(data, i) */\n      add\n        /* \"contracts/OnChain/EncodeGenerate.sol\":1113:1132  mload(add(data, i)) */\n      mload\n        /* \"contracts/OnChain/EncodeGenerate.sol\":1109:1143  and(mload(add(data, i)), 0xffffff) */\n      and\n        /* \"contracts/OnChain/EncodeGenerate.sol\":1212:1216  0x3F */\n      0x3f\n        /* \"contracts/OnChain/EncodeGenerate.sol\":1204:1209  input */\n      dup2\n        /* \"contracts/OnChain/EncodeGenerate.sol\":1200:1202  18 */\n      0x12\n        /* \"contracts/OnChain/EncodeGenerate.sol\":1196:1210  shr(18, input) */\n      shr\n        /* \"contracts/OnChain/EncodeGenerate.sol\":1192:1217  and(shr(18, input), 0x3F) */\n      and\n        /* \"contracts/OnChain/EncodeGenerate.sol\":1182:1190  tablePtr */\n      dup5\n        /* \"contracts/OnChain/EncodeGenerate.sol\":1178:1218  add(tablePtr, and(shr(18, input), 0x3F)) */\n      add\n        /* \"contracts/OnChain/EncodeGenerate.sol\":1172:1219  mload(add(tablePtr, and(shr(18, input), 0x3F))) */\n      mload\n        /* \"contracts/OnChain/EncodeGenerate.sol\":1250:1253  out */\n      dup1\n        /* \"contracts/OnChain/EncodeGenerate.sol\":1247:1248  8 */\n      0x08\n        /* \"contracts/OnChain/EncodeGenerate.sol\":1243:1254  shl(8, out) */\n      shl\n        /* \"contracts/OnChain/EncodeGenerate.sol\":1236:1254  out := shl(8, out) */\n      swap1\n      pop\n        /* \"contracts/OnChain/EncodeGenerate.sol\":1381:1385  0xFF */\n      0xff\n        /* \"contracts/OnChain/EncodeGenerate.sol\":1372:1376  0x3F */\n      0x3f\n        /* \"contracts/OnChain/EncodeGenerate.sol\":1364:1369  input */\n      dup4\n        /* \"contracts/OnChain/EncodeGenerate.sol\":1360:1362  12 */\n      0x0c\n        /* \"contracts/OnChain/EncodeGenerate.sol\":1356:1370  shr(12, input) */\n      shr\n        /* \"contracts/OnChain/EncodeGenerate.sol\":1352:1377  and(shr(12, input), 0x3F) */\n      and\n        /* \"contracts/OnChain/EncodeGenerate.sol\":1342:1350  tablePtr */\n      dup7\n        /* \"contracts/OnChain/EncodeGenerate.sol\":1338:1378  add(tablePtr, and(shr(12, input), 0x3F)) */\n      add\n        /* \"contracts/OnChain/EncodeGenerate.sol\":1332:1379  mload(add(tablePtr, and(shr(12, input), 0x3F))) */\n      mload\n        /* \"contracts/OnChain/EncodeGenerate.sol\":1328:1386  and(mload(add(tablePtr, and(shr(12, input), 0x3F))), 0xFF) */\n      and\n        /* \"contracts/OnChain/EncodeGenerate.sol\":1303:1306  out */\n      dup2\n        /* \"contracts/OnChain/EncodeGenerate.sol\":1278:1404  add(... */\n      add\n        /* \"contracts/OnChain/EncodeGenerate.sol\":1271:1404  out := add(... */\n      swap1\n      pop\n        /* \"contracts/OnChain/EncodeGenerate.sol\":1435:1438  out */\n      dup1\n        /* \"contracts/OnChain/EncodeGenerate.sol\":1432:1433  8 */\n      0x08\n        /* \"contracts/OnChain/EncodeGenerate.sol\":1428:1439  shl(8, out) */\n      shl\n        /* \"contracts/OnChain/EncodeGenerate.sol\":1421:1439  out := shl(8, out) */\n      swap1\n      pop\n        /* \"contracts/OnChain/EncodeGenerate.sol\":1565:1569  0xFF */\n      0xff\n        /* \"contracts/OnChain/EncodeGenerate.sol\":1556:1560  0x3F */\n      0x3f\n        /* \"contracts/OnChain/EncodeGenerate.sol\":1548:1553  input */\n      dup4\n        /* \"contracts/OnChain/EncodeGenerate.sol\":1545:1546  6 */\n      0x06\n        /* \"contracts/OnChain/EncodeGenerate.sol\":1541:1554  shr(6, input) */\n      shr\n        /* \"contracts/OnChain/EncodeGenerate.sol\":1537:1561  and(shr(6, input), 0x3F) */\n      and\n        /* \"contracts/OnChain/EncodeGenerate.sol\":1527:1535  tablePtr */\n      dup7\n        /* \"contracts/OnChain/EncodeGenerate.sol\":1523:1562  add(tablePtr, and(shr(6, input), 0x3F)) */\n      add\n        /* \"contracts/OnChain/EncodeGenerate.sol\":1517:1563  mload(add(tablePtr, and(shr(6, input), 0x3F))) */\n      mload\n        /* \"contracts/OnChain/EncodeGenerate.sol\":1513:1570  and(mload(add(tablePtr, and(shr(6, input), 0x3F))), 0xFF) */\n      and\n        /* \"contracts/OnChain/EncodeGenerate.sol\":1488:1491  out */\n      dup2\n        /* \"contracts/OnChain/EncodeGenerate.sol\":1463:1588  add(... */\n      add\n        /* \"contracts/OnChain/EncodeGenerate.sol\":1456:1588  out := add(... */\n      swap1\n      pop\n        /* \"contracts/OnChain/EncodeGenerate.sol\":1619:1622  out */\n      dup1\n        /* \"contracts/OnChain/EncodeGenerate.sol\":1616:1617  8 */\n      0x08\n        /* \"contracts/OnChain/EncodeGenerate.sol\":1612:1623  shl(8, out) */\n      shl\n        /* \"contracts/OnChain/EncodeGenerate.sol\":1605:1623  out := shl(8, out) */\n      swap1\n      pop\n        /* \"contracts/OnChain/EncodeGenerate.sol\":1741:1745  0xFF */\n      0xff\n        /* \"contracts/OnChain/EncodeGenerate.sol\":1732:1736  0x3F */\n      0x3f\n        /* \"contracts/OnChain/EncodeGenerate.sol\":1725:1730  input */\n      dup4\n        /* \"contracts/OnChain/EncodeGenerate.sol\":1721:1737  and(input, 0x3F) */\n      and\n        /* \"contracts/OnChain/EncodeGenerate.sol\":1711:1719  tablePtr */\n      dup7\n        /* \"contracts/OnChain/EncodeGenerate.sol\":1707:1738  add(tablePtr, and(input, 0x3F)) */\n      add\n        /* \"contracts/OnChain/EncodeGenerate.sol\":1701:1739  mload(add(tablePtr, and(input, 0x3F))) */\n      mload\n        /* \"contracts/OnChain/EncodeGenerate.sol\":1697:1746  and(mload(add(tablePtr, and(input, 0x3F))), 0xFF) */\n      and\n        /* \"contracts/OnChain/EncodeGenerate.sol\":1672:1675  out */\n      dup2\n        /* \"contracts/OnChain/EncodeGenerate.sol\":1647:1764  add(... */\n      add\n        /* \"contracts/OnChain/EncodeGenerate.sol\":1640:1764  out := add(... */\n      swap1\n      pop\n        /* \"contracts/OnChain/EncodeGenerate.sol\":1797:1800  out */\n      dup1\n        /* \"contracts/OnChain/EncodeGenerate.sol\":1792:1795  224 */\n      0xe0\n        /* \"contracts/OnChain/EncodeGenerate.sol\":1788:1801  shl(224, out) */\n      shl\n        /* \"contracts/OnChain/EncodeGenerate.sol\":1781:1801  out := shl(224, out) */\n      swap1\n      pop\n        /* \"contracts/OnChain/EncodeGenerate.sol\":1837:1840  out */\n      dup1\n        /* \"contracts/OnChain/EncodeGenerate.sol\":1826:1835  resultPtr */\n      dup5\n        /* \"contracts/OnChain/EncodeGenerate.sol\":1819:1841  mstore(resultPtr, out) */\n      mstore\n        /* \"contracts/OnChain/EncodeGenerate.sol\":1887:1888  4 */\n      0x04\n        /* \"contracts/OnChain/EncodeGenerate.sol\":1876:1885  resultPtr */\n      dup5\n        /* \"contracts/OnChain/EncodeGenerate.sol\":1872:1889  add(resultPtr, 4) */\n      add\n        /* \"contracts/OnChain/EncodeGenerate.sol\":1859:1889  resultPtr := add(resultPtr, 4) */\n      swap4\n      pop\n        /* \"contracts/OnChain/EncodeGenerate.sol\":1047:1903  {... */\n      pop\n      pop\n        /* \"contracts/OnChain/EncodeGenerate.sol\":972:1903  for {... */\n      jump(tag_47)\n    tag_49:\n        /* \"contracts/OnChain/EncodeGenerate.sol\":976:1018  {... */\n      pop\n        /* \"contracts/OnChain/EncodeGenerate.sol\":1933:1934  3 */\n      0x03\n        /* \"contracts/OnChain/EncodeGenerate.sol\":1928:1931  len */\n      dup7\n        /* \"contracts/OnChain/EncodeGenerate.sol\":1924:1935  mod(len, 3) */\n      mod\n        /* \"contracts/OnChain/EncodeGenerate.sol\":1953:1954  1 */\n      0x01\n        /* \"contracts/OnChain/EncodeGenerate.sol\":1948:2030  case 1 {... */\n      dup2\n      eq\n      tag_51\n      jumpi\n        /* \"contracts/OnChain/EncodeGenerate.sol\":2048:2049  2 */\n      0x02\n        /* \"contracts/OnChain/EncodeGenerate.sol\":2043:2123  case 2 {... */\n      dup2\n      eq\n      tag_52\n      jumpi\n        /* \"contracts/OnChain/EncodeGenerate.sol\":1917:2123  switch mod(len, 3)... */\n      jump(tag_50)\n        /* \"contracts/OnChain/EncodeGenerate.sol\":1948:2030  case 1 {... */\n    tag_51:\n        /* \"contracts/OnChain/EncodeGenerate.sol\":2008:2014  0x3d3d */\n      0x3d3d\n        /* \"contracts/OnChain/EncodeGenerate.sol\":2003:2006  240 */\n      0xf0\n        /* \"contracts/OnChain/EncodeGenerate.sol\":1999:2015  shl(240, 0x3d3d) */\n      shl\n        /* \"contracts/OnChain/EncodeGenerate.sol\":1995:1996  2 */\n      0x02\n        /* \"contracts/OnChain/EncodeGenerate.sol\":1984:1993  resultPtr */\n      dup4\n        /* \"contracts/OnChain/EncodeGenerate.sol\":1980:1997  sub(resultPtr, 2) */\n      sub\n        /* \"contracts/OnChain/EncodeGenerate.sol\":1973:2016  mstore(sub(resultPtr, 2), shl(240, 0x3d3d)) */\n      mstore\n        /* \"contracts/OnChain/EncodeGenerate.sol\":1948:2030  case 1 {... */\n      jump(tag_50)\n        /* \"contracts/OnChain/EncodeGenerate.sol\":2043:2123  case 2 {... */\n    tag_52:\n        /* \"contracts/OnChain/EncodeGenerate.sol\":2103:2107  0x3d */\n      0x3d\n        /* \"contracts/OnChain/EncodeGenerate.sol\":2098:2101  248 */\n      0xf8\n        /* \"contracts/OnChain/EncodeGenerate.sol\":2094:2108  shl(248, 0x3d) */\n      shl\n        /* \"contracts/OnChain/EncodeGenerate.sol\":2090:2091  1 */\n      0x01\n        /* \"contracts/OnChain/EncodeGenerate.sol\":2079:2088  resultPtr */\n      dup4\n        /* \"contracts/OnChain/EncodeGenerate.sol\":2075:2092  sub(resultPtr, 1) */\n      sub\n        /* \"contracts/OnChain/EncodeGenerate.sol\":2068:2109  mstore(sub(resultPtr, 1), shl(248, 0x3d)) */\n      mstore\n        /* \"contracts/OnChain/EncodeGenerate.sol\":1917:2123  switch mod(len, 3)... */\n    tag_50:\n      pop\n        /* \"contracts/OnChain/EncodeGenerate.sol\":2152:2162  encodedLen */\n      dup5\n        /* \"contracts/OnChain/EncodeGenerate.sol\":2144:2150  result */\n      dup5\n        /* \"contracts/OnChain/EncodeGenerate.sol\":2137:2163  mstore(result, encodedLen) */\n      mstore\n        /* \"contracts/OnChain/EncodeGenerate.sol\":870:2173  {... */\n      pop\n      pop\n        /* \"contracts/OnChain/EncodeGenerate.sol\":2197:2203  result */\n      dup2\n        /* \"contracts/OnChain/EncodeGenerate.sol\":2183:2204  return string(result) */\n      swap5\n      pop\n      pop\n      pop\n      pop\n      pop\n        /* \"contracts/OnChain/EncodeGenerate.sol\":482:2211  function encode(bytes memory data) public pure returns (string memory) {... */\n    tag_34:\n      swap2\n      swap1\n      pop\n      jump\t// out\n        /* \"#utility.yul\":7:82   */\n    tag_53:\n        /* \"#utility.yul\":40:46   */\n      0x00\n        /* \"#utility.yul\":73:75   */\n      0x40\n        /* \"#utility.yul\":67:76   */\n      mload\n        /* \"#utility.yul\":57:76   */\n      swap1\n      pop\n        /* \"#utility.yul\":7:82   */\n      swap1\n      jump\t// out\n        /* \"#utility.yul\":88:205   */\n    tag_54:\n        /* \"#utility.yul\":197:198   */\n      0x00\n        /* \"#utility.yul\":194:195   */\n      dup1\n        /* \"#utility.yul\":187:199   */\n      revert\n        /* \"#utility.yul\":211:328   */\n    tag_55:\n        /* \"#utility.yul\":320:321   */\n      0x00\n        /* \"#utility.yul\":317:318   */\n      dup1\n        /* \"#utility.yul\":310:322   */\n      revert\n        /* \"#utility.yul\":334:451   */\n    tag_56:\n        /* \"#utility.yul\":443:444   */\n      0x00\n        /* \"#utility.yul\":440:441   */\n      dup1\n        /* \"#utility.yul\":433:445   */\n      revert\n        /* \"#utility.yul\":457:574   */\n    tag_57:\n        /* \"#utility.yul\":566:567   */\n      0x00\n        /* \"#utility.yul\":563:564   */\n      dup1\n        /* \"#utility.yul\":556:568   */\n      revert\n        /* \"#utility.yul\":580:682   */\n    tag_58:\n        /* \"#utility.yul\":621:627   */\n      0x00\n        /* \"#utility.yul\":672:674   */\n      0x1f\n        /* \"#utility.yul\":668:675   */\n      not\n        /* \"#utility.yul\":663:665   */\n      0x1f\n        /* \"#utility.yul\":656:661   */\n      dup4\n        /* \"#utility.yul\":652:666   */\n      add\n        /* \"#utility.yul\":648:676   */\n      and\n        /* \"#utility.yul\":638:676   */\n      swap1\n      pop\n        /* \"#utility.yul\":580:682   */\n      swap2\n      swap1\n      pop\n      jump\t// out\n        /* \"#utility.yul\":688:868   */\n    tag_45:\n        /* \"#utility.yul\":736:813   */\n      0x4e487b7100000000000000000000000000000000000000000000000000000000\n        /* \"#utility.yul\":733:734   */\n      0x00\n        /* \"#utility.yul\":726:814   */\n      mstore\n        /* \"#utility.yul\":833:837   */\n      0x41\n        /* \"#utility.yul\":830:831   */\n      0x04\n        /* \"#utility.yul\":823:838   */\n      mstore\n        /* \"#utility.yul\":857:861   */\n      0x24\n        /* \"#utility.yul\":854:855   */\n      0x00\n        /* \"#utility.yul\":847:862   */\n      revert\n        /* \"#utility.yul\":874:1155   */\n    tag_59:\n        /* \"#utility.yul\":957:984   */\n      tag_160\n        /* \"#utility.yul\":979:983   */\n      dup3\n        /* \"#utility.yul\":957:984   */\n      tag_58\n      jump\t// in\n    tag_160:\n        /* \"#utility.yul\":949:955   */\n      dup2\n        /* \"#utility.yul\":945:985   */\n      add\n        /* \"#utility.yul\":1087:1093   */\n      dup2\n        /* \"#utility.yul\":1075:1085   */\n      dup2\n        /* \"#utility.yul\":1072:1094   */\n      lt\n        /* \"#utility.yul\":1051:1069   */\n      0xffffffffffffffff\n        /* \"#utility.yul\":1039:1049   */\n      dup3\n        /* \"#utility.yul\":1036:1070   */\n      gt\n        /* \"#utility.yul\":1033:1095   */\n      or\n        /* \"#utility.yul\":1030:1118   */\n      iszero\n      tag_161\n      jumpi\n        /* \"#utility.yul\":1098:1116   */\n      tag_162\n      tag_45\n      jump\t// in\n    tag_162:\n        /* \"#utility.yul\":1030:1118   */\n    tag_161:\n        /* \"#utility.yul\":1138:1148   */\n      dup1\n        /* \"#utility.yul\":1134:1136   */\n      0x40\n        /* \"#utility.yul\":1127:1149   */\n      mstore\n        /* \"#utility.yul\":917:1155   */\n      pop\n        /* \"#utility.yul\":874:1155   */\n      pop\n      pop\n      jump\t// out\n        /* \"#utility.yul\":1161:1290   */\n    tag_60:\n        /* \"#utility.yul\":1195:1201   */\n      0x00\n        /* \"#utility.yul\":1222:1242   */\n      tag_164\n      tag_53\n      jump\t// in\n    tag_164:\n        /* \"#utility.yul\":1212:1242   */\n      swap1\n      pop\n        /* \"#utility.yul\":1251:1284   */\n      tag_165\n        /* \"#utility.yul\":1279:1283   */\n      dup3\n        /* \"#utility.yul\":1271:1277   */\n      dup3\n        /* \"#utility.yul\":1251:1284   */\n      tag_59\n      jump\t// in\n    tag_165:\n        /* \"#utility.yul\":1161:1290   */\n      swap2\n      swap1\n      pop\n      jump\t// out\n        /* \"#utility.yul\":1296:1604   */\n    tag_61:\n        /* \"#utility.yul\":1358:1362   */\n      0x00\n        /* \"#utility.yul\":1448:1466   */\n      0xffffffffffffffff\n        /* \"#utility.yul\":1440:1446   */\n      dup3\n        /* \"#utility.yul\":1437:1467   */\n      gt\n        /* \"#utility.yul\":1434:1490   */\n      iszero\n      tag_167\n      jumpi\n        /* \"#utility.yul\":1470:1488   */\n      tag_168\n      tag_45\n      jump\t// in\n    tag_168:\n        /* \"#utility.yul\":1434:1490   */\n    tag_167:\n        /* \"#utility.yul\":1508:1537   */\n      tag_169\n        /* \"#utility.yul\":1530:1536   */\n      dup3\n        /* \"#utility.yul\":1508:1537   */\n      tag_58\n      jump\t// in\n    tag_169:\n        /* \"#utility.yul\":1500:1537   */\n      swap1\n      pop\n        /* \"#utility.yul\":1592:1596   */\n      0x20\n        /* \"#utility.yul\":1586:1590   */\n      dup2\n        /* \"#utility.yul\":1582:1597   */\n      add\n        /* \"#utility.yul\":1574:1597   */\n      swap1\n      pop\n        /* \"#utility.yul\":1296:1604   */\n      swap2\n      swap1\n      pop\n      jump\t// out\n        /* \"#utility.yul\":1610:1756   */\n    tag_62:\n        /* \"#utility.yul\":1707:1713   */\n      dup3\n        /* \"#utility.yul\":1702:1705   */\n      dup2\n        /* \"#utility.yul\":1697:1700   */\n      dup4\n        /* \"#utility.yul\":1684:1714   */\n      calldatacopy\n        /* \"#utility.yul\":1748:1749   */\n      0x00\n        /* \"#utility.yul\":1739:1745   */\n      dup4\n        /* \"#utility.yul\":1734:1737   */\n      dup4\n        /* \"#utility.yul\":1730:1746   */\n      add\n        /* \"#utility.yul\":1723:1750   */\n      mstore\n        /* \"#utility.yul\":1610:1756   */\n      pop\n      pop\n      pop\n      jump\t// out\n        /* \"#utility.yul\":1762:2187   */\n    tag_63:\n        /* \"#utility.yul\":1840:1845   */\n      0x00\n        /* \"#utility.yul\":1865:1931   */\n      tag_172\n        /* \"#utility.yul\":1881:1930   */\n      tag_173\n        /* \"#utility.yul\":1923:1929   */\n      dup5\n        /* \"#utility.yul\":1881:1930   */\n      tag_61\n      jump\t// in\n    tag_173:\n        /* \"#utility.yul\":1865:1931   */\n      tag_60\n      jump\t// in\n    tag_172:\n        /* \"#utility.yul\":1856:1931   */\n      swap1\n      pop\n        /* \"#utility.yul\":1954:1960   */\n      dup3\n        /* \"#utility.yul\":1947:1952   */\n      dup2\n        /* \"#utility.yul\":1940:1961   */\n      mstore\n        /* \"#utility.yul\":1992:1996   */\n      0x20\n        /* \"#utility.yul\":1985:1990   */\n      dup2\n        /* \"#utility.yul\":1981:1997   */\n      add\n        /* \"#utility.yul\":2030:2033   */\n      dup5\n        /* \"#utility.yul\":2021:2027   */\n      dup5\n        /* \"#utility.yul\":2016:2019   */\n      dup5\n        /* \"#utility.yul\":2012:2028   */\n      add\n        /* \"#utility.yul\":2009:2034   */\n      gt\n        /* \"#utility.yul\":2006:2118   */\n      iszero\n      tag_174\n      jumpi\n        /* \"#utility.yul\":2037:2116   */\n      tag_175\n      tag_57\n      jump\t// in\n    tag_175:\n        /* \"#utility.yul\":2006:2118   */\n    tag_174:\n        /* \"#utility.yul\":2127:2181   */\n      tag_176\n        /* \"#utility.yul\":2174:2180   */\n      dup5\n        /* \"#utility.yul\":2169:2172   */\n      dup3\n        /* \"#utility.yul\":2164:2167   */\n      dup6\n        /* \"#utility.yul\":2127:2181   */\n      tag_62\n      jump\t// in\n    tag_176:\n        /* \"#utility.yul\":1846:2187   */\n      pop\n        /* \"#utility.yul\":1762:2187   */\n      swap4\n      swap3\n      pop\n      pop\n      pop\n      jump\t// out\n        /* \"#utility.yul\":2207:2547   */\n    tag_64:\n        /* \"#utility.yul\":2263:2268   */\n      0x00\n        /* \"#utility.yul\":2312:2315   */\n      dup3\n        /* \"#utility.yul\":2305:2309   */\n      0x1f\n        /* \"#utility.yul\":2297:2303   */\n      dup4\n        /* \"#utility.yul\":2293:2310   */\n      add\n        /* \"#utility.yul\":2289:2316   */\n      slt\n        /* \"#utility.yul\":2279:2401   */\n      tag_178\n      jumpi\n        /* \"#utility.yul\":2320:2399   */\n      tag_179\n      tag_56\n      jump\t// in\n    tag_179:\n        /* \"#utility.yul\":2279:2401   */\n    tag_178:\n        /* \"#utility.yul\":2437:2443   */\n      dup2\n        /* \"#utility.yul\":2424:2444   */\n      calldataload\n        /* \"#utility.yul\":2462:2541   */\n      tag_180\n        /* \"#utility.yul\":2537:2540   */\n      dup5\n        /* \"#utility.yul\":2529:2535   */\n      dup3\n        /* \"#utility.yul\":2522:2526   */\n      0x20\n        /* \"#utility.yul\":2514:2520   */\n      dup7\n        /* \"#utility.yul\":2510:2527   */\n      add\n        /* \"#utility.yul\":2462:2541   */\n      tag_63\n      jump\t// in\n    tag_180:\n        /* \"#utility.yul\":2453:2541   */\n      swap2\n      pop\n        /* \"#utility.yul\":2269:2547   */\n      pop\n        /* \"#utility.yul\":2207:2547   */\n      swap3\n      swap2\n      pop\n      pop\n      jump\t// out\n        /* \"#utility.yul\":2553:5668   */\n    tag_8:\n        /* \"#utility.yul\":2774:2780   */\n      0x00\n        /* \"#utility.yul\":2782:2788   */\n      dup1\n        /* \"#utility.yul\":2790:2796   */\n      0x00\n        /* \"#utility.yul\":2798:2804   */\n      dup1\n        /* \"#utility.yul\":2806:2812   */\n      0x00\n        /* \"#utility.yul\":2814:2820   */\n      dup1\n        /* \"#utility.yul\":2822:2828   */\n      0x00\n        /* \"#utility.yul\":2830:2836   */\n      dup1\n        /* \"#utility.yul\":2838:2844   */\n      0x00\n        /* \"#utility.yul\":2887:2890   */\n      0x0120\n        /* \"#utility.yul\":2875:2884   */\n      dup11\n        /* \"#utility.yul\":2866:2873   */\n      dup13\n        /* \"#utility.yul\":2862:2885   */\n      sub\n        /* \"#utility.yul\":2858:2891   */\n      slt\n        /* \"#utility.yul\":2855:2975   */\n      iszero\n      tag_182\n      jumpi\n        /* \"#utility.yul\":2894:2973   */\n      tag_183\n      tag_54\n      jump\t// in\n    tag_183:\n        /* \"#utility.yul\":2855:2975   */\n    tag_182:\n        /* \"#utility.yul\":3042:3043   */\n      0x00\n        /* \"#utility.yul\":3031:3040   */\n      dup11\n        /* \"#utility.yul\":3027:3044   */\n      add\n        /* \"#utility.yul\":3014:3045   */\n      calldataload\n        /* \"#utility.yul\":3072:3090   */\n      0xffffffffffffffff\n        /* \"#utility.yul\":3064:3070   */\n      dup2\n        /* \"#utility.yul\":3061:3091   */\n      gt\n        /* \"#utility.yul\":3058:3175   */\n      iszero\n      tag_184\n      jumpi\n        /* \"#utility.yul\":3094:3173   */\n      tag_185\n      tag_55\n      jump\t// in\n    tag_185:\n        /* \"#utility.yul\":3058:3175   */\n    tag_184:\n        /* \"#utility.yul\":3199:3262   */\n      tag_186\n        /* \"#utility.yul\":3254:3261   */\n      dup13\n        /* \"#utility.yul\":3245:3251   */\n      dup3\n        /* \"#utility.yul\":3234:3243   */\n      dup14\n        /* \"#utility.yul\":3230:3252   */\n      add\n        /* \"#utility.yul\":3199:3262   */\n      tag_64\n      jump\t// in\n    tag_186:\n        /* \"#utility.yul\":3189:3262   */\n      swap10\n      pop\n        /* \"#utility.yul\":2985:3272   */\n      pop\n        /* \"#utility.yul\":3339:3341   */\n      0x20\n        /* \"#utility.yul\":3328:3337   */\n      dup11\n        /* \"#utility.yul\":3324:3342   */\n      add\n        /* \"#utility.yul\":3311:3343   */\n      calldataload\n        /* \"#utility.yul\":3370:3388   */\n      0xffffffffffffffff\n        /* \"#utility.yul\":3362:3368   */\n      dup2\n        /* \"#utility.yul\":3359:3389   */\n      gt\n        /* \"#utility.yul\":3356:3473   */\n      iszero\n      tag_187\n      jumpi\n        /* \"#utility.yul\":3392:3471   */\n      tag_188\n      tag_55\n      jump\t// in\n    tag_188:\n        /* \"#utility.yul\":3356:3473   */\n    tag_187:\n        /* \"#utility.yul\":3497:3560   */\n      tag_189\n        /* \"#utility.yul\":3552:3559   */\n      dup13\n        /* \"#utility.yul\":3543:3549   */\n      dup3\n        /* \"#utility.yul\":3532:3541   */\n      dup14\n        /* \"#utility.yul\":3528:3550   */\n      add\n        /* \"#utility.yul\":3497:3560   */\n      tag_64\n      jump\t// in\n    tag_189:\n        /* \"#utility.yul\":3487:3560   */\n      swap9\n      pop\n        /* \"#utility.yul\":3282:3570   */\n      pop\n        /* \"#utility.yul\":3637:3639   */\n      0x40\n        /* \"#utility.yul\":3626:3635   */\n      dup11\n        /* \"#utility.yul\":3622:3640   */\n      add\n        /* \"#utility.yul\":3609:3641   */\n      calldataload\n        /* \"#utility.yul\":3668:3686   */\n      0xffffffffffffffff\n        /* \"#utility.yul\":3660:3666   */\n      dup2\n        /* \"#utility.yul\":3657:3687   */\n      gt\n        /* \"#utility.yul\":3654:3771   */\n      iszero\n      tag_190\n      jumpi\n        /* \"#utility.yul\":3690:3769   */\n      tag_191\n      tag_55\n      jump\t// in\n    tag_191:\n        /* \"#utility.yul\":3654:3771   */\n    tag_190:\n        /* \"#utility.yul\":3795:3858   */\n      tag_192\n        /* \"#utility.yul\":3850:3857   */\n      dup13\n        /* \"#utility.yul\":3841:3847   */\n      dup3\n        /* \"#utility.yul\":3830:3839   */\n      dup14\n        /* \"#utility.yul\":3826:3848   */\n      add\n        /* \"#utility.yul\":3795:3858   */\n      tag_64\n      jump\t// in\n    tag_192:\n        /* \"#utility.yul\":3785:3858   */\n      swap8\n      pop\n        /* \"#utility.yul\":3580:3868   */\n      pop\n        /* \"#utility.yul\":3935:3937   */\n      0x60\n        /* \"#utility.yul\":3924:3933   */\n      dup11\n        /* \"#utility.yul\":3920:3938   */\n      add\n        /* \"#utility.yul\":3907:3939   */\n      calldataload\n        /* \"#utility.yul\":3966:3984   */\n      0xffffffffffffffff\n        /* \"#utility.yul\":3958:3964   */\n      dup2\n        /* \"#utility.yul\":3955:3985   */\n      gt\n        /* \"#utility.yul\":3952:4069   */\n      iszero\n      tag_193\n      jumpi\n        /* \"#utility.yul\":3988:4067   */\n      tag_194\n      tag_55\n      jump\t// in\n    tag_194:\n        /* \"#utility.yul\":3952:4069   */\n    tag_193:\n        /* \"#utility.yul\":4093:4156   */\n      tag_195\n        /* \"#utility.yul\":4148:4155   */\n      dup13\n        /* \"#utility.yul\":4139:4145   */\n      dup3\n        /* \"#utility.yul\":4128:4137   */\n      dup14\n        /* \"#utility.yul\":4124:4146   */\n      add\n        /* \"#utility.yul\":4093:4156   */\n      tag_64\n      jump\t// in\n    tag_195:\n        /* \"#utility.yul\":4083:4156   */\n      swap7\n      pop\n        /* \"#utility.yul\":3878:4166   */\n      pop\n        /* \"#utility.yul\":4233:4236   */\n      0x80\n        /* \"#utility.yul\":4222:4231   */\n      dup11\n        /* \"#utility.yul\":4218:4237   */\n      add\n        /* \"#utility.yul\":4205:4238   */\n      calldataload\n        /* \"#utility.yul\":4265:4283   */\n      0xffffffffffffffff\n        /* \"#utility.yul\":4257:4263   */\n      dup2\n        /* \"#utility.yul\":4254:4284   */\n      gt\n        /* \"#utility.yul\":4251:4368   */\n      iszero\n      tag_196\n      jumpi\n        /* \"#utility.yul\":4287:4366   */\n      tag_197\n      tag_55\n      jump\t// in\n    tag_197:\n        /* \"#utility.yul\":4251:4368   */\n    tag_196:\n        /* \"#utility.yul\":4392:4455   */\n      tag_198\n        /* \"#utility.yul\":4447:4454   */\n      dup13\n        /* \"#utility.yul\":4438:4444   */\n      dup3\n        /* \"#utility.yul\":4427:4436   */\n      dup14\n        /* \"#utility.yul\":4423:4445   */\n      add\n        /* \"#utility.yul\":4392:4455   */\n      tag_64\n      jump\t// in\n    tag_198:\n        /* \"#utility.yul\":4382:4455   */\n      swap6\n      pop\n        /* \"#utility.yul\":4176:4465   */\n      pop\n        /* \"#utility.yul\":4532:4535   */\n      0xa0\n        /* \"#utility.yul\":4521:4530   */\n      dup11\n        /* \"#utility.yul\":4517:4536   */\n      add\n        /* \"#utility.yul\":4504:4537   */\n      calldataload\n        /* \"#utility.yul\":4564:4582   */\n      0xffffffffffffffff\n        /* \"#utility.yul\":4556:4562   */\n      dup2\n        /* \"#utility.yul\":4553:4583   */\n      gt\n        /* \"#utility.yul\":4550:4667   */\n      iszero\n      tag_199\n      jumpi\n        /* \"#utility.yul\":4586:4665   */\n      tag_200\n      tag_55\n      jump\t// in\n    tag_200:\n        /* \"#utility.yul\":4550:4667   */\n    tag_199:\n        /* \"#utility.yul\":4691:4754   */\n      tag_201\n        /* \"#utility.yul\":4746:4753   */\n      dup13\n        /* \"#utility.yul\":4737:4743   */\n      dup3\n        /* \"#utility.yul\":4726:4735   */\n      dup14\n        /* \"#utility.yul\":4722:4744   */\n      add\n        /* \"#utility.yul\":4691:4754   */\n      tag_64\n      jump\t// in\n    tag_201:\n        /* \"#utility.yul\":4681:4754   */\n      swap5\n      pop\n        /* \"#utility.yul\":4475:4764   */\n      pop\n        /* \"#utility.yul\":4831:4834   */\n      0xc0\n        /* \"#utility.yul\":4820:4829   */\n      dup11\n        /* \"#utility.yul\":4816:4835   */\n      add\n        /* \"#utility.yul\":4803:4836   */\n      calldataload\n        /* \"#utility.yul\":4863:4881   */\n      0xffffffffffffffff\n        /* \"#utility.yul\":4855:4861   */\n      dup2\n        /* \"#utility.yul\":4852:4882   */\n      gt\n        /* \"#utility.yul\":4849:4966   */\n      iszero\n      tag_202\n      jumpi\n        /* \"#utility.yul\":4885:4964   */\n      tag_203\n      tag_55\n      jump\t// in\n    tag_203:\n        /* \"#utility.yul\":4849:4966   */\n    tag_202:\n        /* \"#utility.yul\":4990:5053   */\n      tag_204\n        /* \"#utility.yul\":5045:5052   */\n      dup13\n        /* \"#utility.yul\":5036:5042   */\n      dup3\n        /* \"#utility.yul\":5025:5034   */\n      dup14\n        /* \"#utility.yul\":5021:5043   */\n      add\n        /* \"#utility.yul\":4990:5053   */\n      tag_64\n      jump\t// in\n    tag_204:\n        /* \"#utility.yul\":4980:5053   */\n      swap4\n      pop\n        /* \"#utility.yul\":4774:5063   */\n      pop\n        /* \"#utility.yul\":5130:5133   */\n      0xe0\n        /* \"#utility.yul\":5119:5128   */\n      dup11\n        /* \"#utility.yul\":5115:5134   */\n      add\n        /* \"#utility.yul\":5102:5135   */\n      calldataload\n        /* \"#utility.yul\":5162:5180   */\n      0xffffffffffffffff\n        /* \"#utility.yul\":5154:5160   */\n      dup2\n        /* \"#utility.yul\":5151:5181   */\n      gt\n        /* \"#utility.yul\":5148:5265   */\n      iszero\n      tag_205\n      jumpi\n        /* \"#utility.yul\":5184:5263   */\n      tag_206\n      tag_55\n      jump\t// in\n    tag_206:\n        /* \"#utility.yul\":5148:5265   */\n    tag_205:\n        /* \"#utility.yul\":5289:5352   */\n      tag_207\n        /* \"#utility.yul\":5344:5351   */\n      dup13\n        /* \"#utility.yul\":5335:5341   */\n      dup3\n        /* \"#utility.yul\":5324:5333   */\n      dup14\n        /* \"#utility.yul\":5320:5342   */\n      add\n        /* \"#utility.yul\":5289:5352   */\n      tag_64\n      jump\t// in\n    tag_207:\n        /* \"#utility.yul\":5279:5352   */\n      swap3\n      pop\n        /* \"#utility.yul\":5073:5362   */\n      pop\n        /* \"#utility.yul\":5429:5432   */\n      0x0100\n        /* \"#utility.yul\":5418:5427   */\n      dup11\n        /* \"#utility.yul\":5414:5433   */\n      add\n        /* \"#utility.yul\":5401:5434   */\n      calldataload\n        /* \"#utility.yul\":5461:5479   */\n      0xffffffffffffffff\n        /* \"#utility.yul\":5453:5459   */\n      dup2\n        /* \"#utility.yul\":5450:5480   */\n      gt\n        /* \"#utility.yul\":5447:5564   */\n      iszero\n      tag_208\n      jumpi\n        /* \"#utility.yul\":5483:5562   */\n      tag_209\n      tag_55\n      jump\t// in\n    tag_209:\n        /* \"#utility.yul\":5447:5564   */\n    tag_208:\n        /* \"#utility.yul\":5588:5651   */\n      tag_210\n        /* \"#utility.yul\":5643:5650   */\n      dup13\n        /* \"#utility.yul\":5634:5640   */\n      dup3\n        /* \"#utility.yul\":5623:5632   */\n      dup14\n        /* \"#utility.yul\":5619:5641   */\n      add\n        /* \"#utility.yul\":5588:5651   */\n      tag_64\n      jump\t// in\n    tag_210:\n        /* \"#utility.yul\":5578:5651   */\n      swap2\n      pop\n        /* \"#utility.yul\":5372:5661   */\n      pop\n        /* \"#utility.yul\":2553:5668   */\n      swap3\n      swap6\n      swap9\n      pop\n      swap3\n      swap6\n      swap9\n      pop\n      swap3\n      swap6\n      swap9\n      jump\t// out\n        /* \"#utility.yul\":5674:5773   */\n    tag_65:\n        /* \"#utility.yul\":5726:5732   */\n      0x00\n        /* \"#utility.yul\":5760:5765   */\n      dup2\n        /* \"#utility.yul\":5754:5766   */\n      mload\n        /* \"#utility.yul\":5744:5766   */\n      swap1\n      pop\n        /* \"#utility.yul\":5674:5773   */\n      swap2\n      swap1\n      pop\n      jump\t// out\n        /* \"#utility.yul\":5779:5948   */\n    tag_66:\n        /* \"#utility.yul\":5863:5874   */\n      0x00\n        /* \"#utility.yul\":5897:5903   */\n      dup3\n        /* \"#utility.yul\":5892:5895   */\n      dup3\n        /* \"#utility.yul\":5885:5904   */\n      mstore\n        /* \"#utility.yul\":5937:5941   */\n      0x20\n        /* \"#utility.yul\":5932:5935   */\n      dup3\n        /* \"#utility.yul\":5928:5942   */\n      add\n        /* \"#utility.yul\":5913:5942   */\n      swap1\n      pop\n        /* \"#utility.yul\":5779:5948   */\n      swap3\n      swap2\n      pop\n      pop\n      jump\t// out\n        /* \"#utility.yul\":5954:6200   */\n    tag_67:\n        /* \"#utility.yul\":6035:6036   */\n      0x00\n        /* \"#utility.yul\":6045:6158   */\n    tag_214:\n        /* \"#utility.yul\":6059:6065   */\n      dup4\n        /* \"#utility.yul\":6056:6057   */\n      dup2\n        /* \"#utility.yul\":6053:6066   */\n      lt\n        /* \"#utility.yul\":6045:6158   */\n      iszero\n      tag_216\n      jumpi\n        /* \"#utility.yul\":6144:6145   */\n      dup1\n        /* \"#utility.yul\":6139:6142   */\n      dup3\n        /* \"#utility.yul\":6135:6146   */\n      add\n        /* \"#utility.yul\":6129:6147   */\n      mload\n        /* \"#utility.yul\":6125:6126   */\n      dup2\n        /* \"#utility.yul\":6120:6123   */\n      dup5\n        /* \"#utility.yul\":6116:6127   */\n      add\n        /* \"#utility.yul\":6109:6148   */\n      mstore\n        /* \"#utility.yul\":6081:6083   */\n      0x20\n        /* \"#utility.yul\":6078:6079   */\n      dup2\n        /* \"#utility.yul\":6074:6084   */\n      add\n        /* \"#utility.yul\":6069:6084   */\n      swap1\n      pop\n        /* \"#utility.yul\":6045:6158   */\n      jump(tag_214)\n    tag_216:\n        /* \"#utility.yul\":6192:6193   */\n      0x00\n        /* \"#utility.yul\":6183:6189   */\n      dup5\n        /* \"#utility.yul\":6178:6181   */\n      dup5\n        /* \"#utility.yul\":6174:6190   */\n      add\n        /* \"#utility.yul\":6167:6194   */\n      mstore\n        /* \"#utility.yul\":6016:6200   */\n      pop\n        /* \"#utility.yul\":5954:6200   */\n      pop\n      pop\n      pop\n      jump\t// out\n        /* \"#utility.yul\":6206:6583   */\n    tag_68:\n        /* \"#utility.yul\":6294:6297   */\n      0x00\n        /* \"#utility.yul\":6322:6361   */\n      tag_218\n        /* \"#utility.yul\":6355:6360   */\n      dup3\n        /* \"#utility.yul\":6322:6361   */\n      tag_65\n      jump\t// in\n    tag_218:\n        /* \"#utility.yul\":6377:6448   */\n      tag_219\n        /* \"#utility.yul\":6441:6447   */\n      dup2\n        /* \"#utility.yul\":6436:6439   */\n      dup6\n        /* \"#utility.yul\":6377:6448   */\n      tag_66\n      jump\t// in\n    tag_219:\n        /* \"#utility.yul\":6370:6448   */\n      swap4\n      pop\n        /* \"#utility.yul\":6457:6522   */\n      tag_220\n        /* \"#utility.yul\":6515:6521   */\n      dup2\n        /* \"#utility.yul\":6510:6513   */\n      dup6\n        /* \"#utility.yul\":6503:6507   */\n      0x20\n        /* \"#utility.yul\":6496:6501   */\n      dup7\n        /* \"#utility.yul\":6492:6508   */\n      add\n        /* \"#utility.yul\":6457:6522   */\n      tag_67\n      jump\t// in\n    tag_220:\n        /* \"#utility.yul\":6547:6576   */\n      tag_221\n        /* \"#utility.yul\":6569:6575   */\n      dup2\n        /* \"#utility.yul\":6547:6576   */\n      tag_58\n      jump\t// in\n    tag_221:\n        /* \"#utility.yul\":6542:6545   */\n      dup5\n        /* \"#utility.yul\":6538:6577   */\n      add\n        /* \"#utility.yul\":6531:6577   */\n      swap2\n      pop\n        /* \"#utility.yul\":6298:6583   */\n      pop\n        /* \"#utility.yul\":6206:6583   */\n      swap3\n      swap2\n      pop\n      pop\n      jump\t// out\n        /* \"#utility.yul\":6589:6902   */\n    tag_11:\n        /* \"#utility.yul\":6702:6706   */\n      0x00\n        /* \"#utility.yul\":6740:6742   */\n      0x20\n        /* \"#utility.yul\":6729:6738   */\n      dup3\n        /* \"#utility.yul\":6725:6743   */\n      add\n        /* \"#utility.yul\":6717:6743   */\n      swap1\n      pop\n        /* \"#utility.yul\":6789:6798   */\n      dup2\n        /* \"#utility.yul\":6783:6787   */\n      dup2\n        /* \"#utility.yul\":6779:6799   */\n      sub\n        /* \"#utility.yul\":6775:6776   */\n      0x00\n        /* \"#utility.yul\":6764:6773   */\n      dup4\n        /* \"#utility.yul\":6760:6777   */\n      add\n        /* \"#utility.yul\":6753:6800   */\n      mstore\n        /* \"#utility.yul\":6817:6895   */\n      tag_223\n        /* \"#utility.yul\":6890:6894   */\n      dup2\n        /* \"#utility.yul\":6881:6887   */\n      dup5\n        /* \"#utility.yul\":6817:6895   */\n      tag_68\n      jump\t// in\n    tag_223:\n        /* \"#utility.yul\":6809:6895   */\n      swap1\n      pop\n        /* \"#utility.yul\":6589:6902   */\n      swap3\n      swap2\n      pop\n      pop\n      jump\t// out\n        /* \"#utility.yul\":6908:9697   */\n    tag_14:\n        /* \"#utility.yul\":7110:7116   */\n      0x00\n        /* \"#utility.yul\":7118:7124   */\n      dup1\n        /* \"#utility.yul\":7126:7132   */\n      0x00\n        /* \"#utility.yul\":7134:7140   */\n      dup1\n        /* \"#utility.yul\":7142:7148   */\n      0x00\n        /* \"#utility.yul\":7150:7156   */\n      dup1\n        /* \"#utility.yul\":7158:7164   */\n      0x00\n        /* \"#utility.yul\":7166:7172   */\n      dup1\n        /* \"#utility.yul\":7215:7218   */\n      0x0100\n        /* \"#utility.yul\":7203:7212   */\n      dup10\n        /* \"#utility.yul\":7194:7201   */\n      dup12\n        /* \"#utility.yul\":7190:7213   */\n      sub\n        /* \"#utility.yul\":7186:7219   */\n      slt\n        /* \"#utility.yul\":7183:7303   */\n      iszero\n      tag_225\n      jumpi\n        /* \"#utility.yul\":7222:7301   */\n      tag_226\n      tag_54\n      jump\t// in\n    tag_226:\n        /* \"#utility.yul\":7183:7303   */\n    tag_225:\n        /* \"#utility.yul\":7370:7371   */\n      0x00\n        /* \"#utility.yul\":7359:7368   */\n      dup10\n        /* \"#utility.yul\":7355:7372   */\n      add\n        /* \"#utility.yul\":7342:7373   */\n      calldataload\n        /* \"#utility.yul\":7400:7418   */\n      0xffffffffffffffff\n        /* \"#utility.yul\":7392:7398   */\n      dup2\n        /* \"#utility.yul\":7389:7419   */\n      gt\n        /* \"#utility.yul\":7386:7503   */\n      iszero\n      tag_227\n      jumpi\n        /* \"#utility.yul\":7422:7501   */\n      tag_228\n      tag_55\n      jump\t// in\n    tag_228:\n        /* \"#utility.yul\":7386:7503   */\n    tag_227:\n        /* \"#utility.yul\":7527:7590   */\n      tag_229\n        /* \"#utility.yul\":7582:7589   */\n      dup12\n        /* \"#utility.yul\":7573:7579   */\n      dup3\n        /* \"#utility.yul\":7562:7571   */\n      dup13\n        /* \"#utility.yul\":7558:7580   */\n      add\n        /* \"#utility.yul\":7527:7590   */\n      tag_64\n      jump\t// in\n    tag_229:\n        /* \"#utility.yul\":7517:7590   */\n      swap9\n      pop\n        /* \"#utility.yul\":7313:7600   */\n      pop\n        /* \"#utility.yul\":7667:7669   */\n      0x20\n        /* \"#utility.yul\":7656:7665   */\n      dup10\n        /* \"#utility.yul\":7652:7670   */\n      add\n        /* \"#utility.yul\":7639:7671   */\n      calldataload\n        /* \"#utility.yul\":7698:7716   */\n      0xffffffffffffffff\n        /* \"#utility.yul\":7690:7696   */\n      dup2\n        /* \"#utility.yul\":7687:7717   */\n      gt\n        /* \"#utility.yul\":7684:7801   */\n      iszero\n      tag_230\n      jumpi\n        /* \"#utility.yul\":7720:7799   */\n      tag_231\n      tag_55\n      jump\t// in\n    tag_231:\n        /* \"#utility.yul\":7684:7801   */\n    tag_230:\n        /* \"#utility.yul\":7825:7888   */\n      tag_232\n        /* \"#utility.yul\":7880:7887   */\n      dup12\n        /* \"#utility.yul\":7871:7877   */\n      dup3\n        /* \"#utility.yul\":7860:7869   */\n      dup13\n        /* \"#utility.yul\":7856:7878   */\n      add\n        /* \"#utility.yul\":7825:7888   */\n      tag_64\n      jump\t// in\n    tag_232:\n        /* \"#utility.yul\":7815:7888   */\n      swap8\n      pop\n        /* \"#utility.yul\":7610:7898   */\n      pop\n        /* \"#utility.yul\":7965:7967   */\n      0x40\n        /* \"#utility.yul\":7954:7963   */\n      dup10\n        /* \"#utility.yul\":7950:7968   */\n      add\n        /* \"#utility.yul\":7937:7969   */\n      calldataload\n        /* \"#utility.yul\":7996:8014   */\n      0xffffffffffffffff\n        /* \"#utility.yul\":7988:7994   */\n      dup2\n        /* \"#utility.yul\":7985:8015   */\n      gt\n        /* \"#utility.yul\":7982:8099   */\n      iszero\n      tag_233\n      jumpi\n        /* \"#utility.yul\":8018:8097   */\n      tag_234\n      tag_55\n      jump\t// in\n    tag_234:\n        /* \"#utility.yul\":7982:8099   */\n    tag_233:\n        /* \"#utility.yul\":8123:8186   */\n      tag_235\n        /* \"#utility.yul\":8178:8185   */\n      dup12\n        /* \"#utility.yul\":8169:8175   */\n      dup3\n        /* \"#utility.yul\":8158:8167   */\n      dup13\n        /* \"#utility.yul\":8154:8176   */\n      add\n        /* \"#utility.yul\":8123:8186   */\n      tag_64\n      jump\t// in\n    tag_235:\n        /* \"#utility.yul\":8113:8186   */\n      swap7\n      pop\n        /* \"#utility.yul\":7908:8196   */\n      pop\n        /* \"#utility.yul\":8263:8265   */\n      0x60\n        /* \"#utility.yul\":8252:8261   */\n      dup10\n        /* \"#utility.yul\":8248:8266   */\n      add\n        /* \"#utility.yul\":8235:8267   */\n      calldataload\n        /* \"#utility.yul\":8294:8312   */\n      0xffffffffffffffff\n        /* \"#utility.yul\":8286:8292   */\n      dup2\n        /* \"#utility.yul\":8283:8313   */\n      gt\n        /* \"#utility.yul\":8280:8397   */\n      iszero\n      tag_236\n      jumpi\n        /* \"#utility.yul\":8316:8395   */\n      tag_237\n      tag_55\n      jump\t// in\n    tag_237:\n        /* \"#utility.yul\":8280:8397   */\n    tag_236:\n        /* \"#utility.yul\":8421:8484   */\n      tag_238\n        /* \"#utility.yul\":8476:8483   */\n      dup12\n        /* \"#utility.yul\":8467:8473   */\n      dup3\n        /* \"#utility.yul\":8456:8465   */\n      dup13\n        /* \"#utility.yul\":8452:8474   */\n      add\n        /* \"#utility.yul\":8421:8484   */\n      tag_64\n      jump\t// in\n    tag_238:\n        /* \"#utility.yul\":8411:8484   */\n      swap6\n      pop\n        /* \"#utility.yul\":8206:8494   */\n      pop\n        /* \"#utility.yul\":8561:8564   */\n      0x80\n        /* \"#utility.yul\":8550:8559   */\n      dup10\n        /* \"#utility.yul\":8546:8565   */\n      add\n        /* \"#utility.yul\":8533:8566   */\n      calldataload\n        /* \"#utility.yul\":8593:8611   */\n      0xffffffffffffffff\n        /* \"#utility.yul\":8585:8591   */\n      dup2\n        /* \"#utility.yul\":8582:8612   */\n      gt\n        /* \"#utility.yul\":8579:8696   */\n      iszero\n      tag_239\n      jumpi\n        /* \"#utility.yul\":8615:8694   */\n      tag_240\n      tag_55\n      jump\t// in\n    tag_240:\n        /* \"#utility.yul\":8579:8696   */\n    tag_239:\n        /* \"#utility.yul\":8720:8783   */\n      tag_241\n        /* \"#utility.yul\":8775:8782   */\n      dup12\n        /* \"#utility.yul\":8766:8772   */\n      dup3\n        /* \"#utility.yul\":8755:8764   */\n      dup13\n        /* \"#utility.yul\":8751:8773   */\n      add\n        /* \"#utility.yul\":8720:8783   */\n      tag_64\n      jump\t// in\n    tag_241:\n        /* \"#utility.yul\":8710:8783   */\n      swap5\n      pop\n        /* \"#utility.yul\":8504:8793   */\n      pop\n        /* \"#utility.yul\":8860:8863   */\n      0xa0\n        /* \"#utility.yul\":8849:8858   */\n      dup10\n        /* \"#utility.yul\":8845:8864   */\n      add\n        /* \"#utility.yul\":8832:8865   */\n      calldataload\n        /* \"#utility.yul\":8892:8910   */\n      0xffffffffffffffff\n        /* \"#utility.yul\":8884:8890   */\n      dup2\n        /* \"#utility.yul\":8881:8911   */\n      gt\n        /* \"#utility.yul\":8878:8995   */\n      iszero\n      tag_242\n      jumpi\n        /* \"#utility.yul\":8914:8993   */\n      tag_243\n      tag_55\n      jump\t// in\n    tag_243:\n        /* \"#utility.yul\":8878:8995   */\n    tag_242:\n        /* \"#utility.yul\":9019:9082   */\n      tag_244\n        /* \"#utility.yul\":9074:9081   */\n      dup12\n        /* \"#utility.yul\":9065:9071   */\n      dup3\n        /* \"#utility.yul\":9054:9063   */\n      dup13\n        /* \"#utility.yul\":9050:9072   */\n      add\n        /* \"#utility.yul\":9019:9082   */\n      tag_64\n      jump\t// in\n    tag_244:\n        /* \"#utility.yul\":9009:9082   */\n      swap4\n      pop\n        /* \"#utility.yul\":8803:9092   */\n      pop\n        /* \"#utility.yul\":9159:9162   */\n      0xc0\n        /* \"#utility.yul\":9148:9157   */\n      dup10\n        /* \"#utility.yul\":9144:9163   */\n      add\n        /* \"#utility.yul\":9131:9164   */\n      calldataload\n        /* \"#utility.yul\":9191:9209   */\n      0xffffffffffffffff\n        /* \"#utility.yul\":9183:9189   */\n      dup2\n        /* \"#utility.yul\":9180:9210   */\n      gt\n        /* \"#utility.yul\":9177:9294   */\n      iszero\n      tag_245\n      jumpi\n        /* \"#utility.yul\":9213:9292   */\n      tag_246\n      tag_55\n      jump\t// in\n    tag_246:\n        /* \"#utility.yul\":9177:9294   */\n    tag_245:\n        /* \"#utility.yul\":9318:9381   */\n      tag_247\n        /* \"#utility.yul\":9373:9380   */\n      dup12\n        /* \"#utility.yul\":9364:9370   */\n      dup3\n        /* \"#utility.yul\":9353:9362   */\n      dup13\n        /* \"#utility.yul\":9349:9371   */\n      add\n        /* \"#utility.yul\":9318:9381   */\n      tag_64\n      jump\t// in\n    tag_247:\n        /* \"#utility.yul\":9308:9381   */\n      swap3\n      pop\n        /* \"#utility.yul\":9102:9391   */\n      pop\n        /* \"#utility.yul\":9458:9461   */\n      0xe0\n        /* \"#utility.yul\":9447:9456   */\n      dup10\n        /* \"#utility.yul\":9443:9462   */\n      add\n        /* \"#utility.yul\":9430:9463   */\n      calldataload\n        /* \"#utility.yul\":9490:9508   */\n      0xffffffffffffffff\n        /* \"#utility.yul\":9482:9488   */\n      dup2\n        /* \"#utility.yul\":9479:9509   */\n      gt\n        /* \"#utility.yul\":9476:9593   */\n      iszero\n      tag_248\n      jumpi\n        /* \"#utility.yul\":9512:9591   */\n      tag_249\n      tag_55\n      jump\t// in\n    tag_249:\n        /* \"#utility.yul\":9476:9593   */\n    tag_248:\n        /* \"#utility.yul\":9617:9680   */\n      tag_250\n        /* \"#utility.yul\":9672:9679   */\n      dup12\n        /* \"#utility.yul\":9663:9669   */\n      dup3\n        /* \"#utility.yul\":9652:9661   */\n      dup13\n        /* \"#utility.yul\":9648:9670   */\n      add\n        /* \"#utility.yul\":9617:9680   */\n      tag_64\n      jump\t// in\n    tag_250:\n        /* \"#utility.yul\":9607:9680   */\n      swap2\n      pop\n        /* \"#utility.yul\":9401:9690   */\n      pop\n        /* \"#utility.yul\":6908:9697   */\n      swap3\n      swap6\n      swap9\n      pop\n      swap3\n      swap6\n      swap9\n      swap1\n      swap4\n      swap7\n      pop\n      jump\t// out\n        /* \"#utility.yul\":9703:10010   */\n    tag_69:\n        /* \"#utility.yul\":9764:9768   */\n      0x00\n        /* \"#utility.yul\":9854:9872   */\n      0xffffffffffffffff\n        /* \"#utility.yul\":9846:9852   */\n      dup3\n        /* \"#utility.yul\":9843:9873   */\n      gt\n        /* \"#utility.yul\":9840:9896   */\n      iszero\n      tag_252\n      jumpi\n        /* \"#utility.yul\":9876:9894   */\n      tag_253\n      tag_45\n      jump\t// in\n    tag_253:\n        /* \"#utility.yul\":9840:9896   */\n    tag_252:\n        /* \"#utility.yul\":9914:9943   */\n      tag_254\n        /* \"#utility.yul\":9936:9942   */\n      dup3\n        /* \"#utility.yul\":9914:9943   */\n      tag_58\n      jump\t// in\n    tag_254:\n        /* \"#utility.yul\":9906:9943   */\n      swap1\n      pop\n        /* \"#utility.yul\":9998:10002   */\n      0x20\n        /* \"#utility.yul\":9992:9996   */\n      dup2\n        /* \"#utility.yul\":9988:10003   */\n      add\n        /* \"#utility.yul\":9980:10003   */\n      swap1\n      pop\n        /* \"#utility.yul\":9703:10010   */\n      swap2\n      swap1\n      pop\n      jump\t// out\n        /* \"#utility.yul\":10016:10439   */\n    tag_70:\n        /* \"#utility.yul\":10093:10098   */\n      0x00\n        /* \"#utility.yul\":10118:10183   */\n      tag_256\n        /* \"#utility.yul\":10134:10182   */\n      tag_257\n        /* \"#utility.yul\":10175:10181   */\n      dup5\n        /* \"#utility.yul\":10134:10182   */\n      tag_69\n      jump\t// in\n    tag_257:\n        /* \"#utility.yul\":10118:10183   */\n      tag_60\n      jump\t// in\n    tag_256:\n        /* \"#utility.yul\":10109:10183   */\n      swap1\n      pop\n        /* \"#utility.yul\":10206:10212   */\n      dup3\n        /* \"#utility.yul\":10199:10204   */\n      dup2\n        /* \"#utility.yul\":10192:10213   */\n      mstore\n        /* \"#utility.yul\":10244:10248   */\n      0x20\n        /* \"#utility.yul\":10237:10242   */\n      dup2\n        /* \"#utility.yul\":10233:10249   */\n      add\n        /* \"#utility.yul\":10282:10285   */\n      dup5\n        /* \"#utility.yul\":10273:10279   */\n      dup5\n        /* \"#utility.yul\":10268:10271   */\n      dup5\n        /* \"#utility.yul\":10264:10280   */\n      add\n        /* \"#utility.yul\":10261:10286   */\n      gt\n        /* \"#utility.yul\":10258:10370   */\n      iszero\n      tag_258\n      jumpi\n        /* \"#utility.yul\":10289:10368   */\n      tag_259\n      tag_57\n      jump\t// in\n    tag_259:\n        /* \"#utility.yul\":10258:10370   */\n    tag_258:\n        /* \"#utility.yul\":10379:10433   */\n      tag_260\n        /* \"#utility.yul\":10426:10432   */\n      dup5\n        /* \"#utility.yul\":10421:10424   */\n      dup3\n        /* \"#utility.yul\":10416:10419   */\n      dup6\n        /* \"#utility.yul\":10379:10433   */\n      tag_62\n      jump\t// in\n    tag_260:\n        /* \"#utility.yul\":10099:10439   */\n      pop\n        /* \"#utility.yul\":10016:10439   */\n      swap4\n      swap3\n      pop\n      pop\n      pop\n      jump\t// out\n        /* \"#utility.yul\":10458:10796   */\n    tag_71:\n        /* \"#utility.yul\":10513:10518   */\n      0x00\n        /* \"#utility.yul\":10562:10565   */\n      dup3\n        /* \"#utility.yul\":10555:10559   */\n      0x1f\n        /* \"#utility.yul\":10547:10553   */\n      dup4\n        /* \"#utility.yul\":10543:10560   */\n      add\n        /* \"#utility.yul\":10539:10566   */\n      slt\n        /* \"#utility.yul\":10529:10651   */\n      tag_262\n      jumpi\n        /* \"#utility.yul\":10570:10649   */\n      tag_263\n      tag_56\n      jump\t// in\n    tag_263:\n        /* \"#utility.yul\":10529:10651   */\n    tag_262:\n        /* \"#utility.yul\":10687:10693   */\n      dup2\n        /* \"#utility.yul\":10674:10694   */\n      calldataload\n        /* \"#utility.yul\":10712:10790   */\n      tag_264\n        /* \"#utility.yul\":10786:10789   */\n      dup5\n        /* \"#utility.yul\":10778:10784   */\n      dup3\n        /* \"#utility.yul\":10771:10775   */\n      0x20\n        /* \"#utility.yul\":10763:10769   */\n      dup7\n        /* \"#utility.yul\":10759:10776   */\n      add\n        /* \"#utility.yul\":10712:10790   */\n      tag_70\n      jump\t// in\n    tag_264:\n        /* \"#utility.yul\":10703:10790   */\n      swap2\n      pop\n        /* \"#utility.yul\":10519:10796   */\n      pop\n        /* \"#utility.yul\":10458:10796   */\n      swap3\n      swap2\n      pop\n      pop\n      jump\t// out\n        /* \"#utility.yul\":10802:11309   */\n    tag_19:\n        /* \"#utility.yul\":10870:10876   */\n      0x00\n        /* \"#utility.yul\":10919:10921   */\n      0x20\n        /* \"#utility.yul\":10907:10916   */\n      dup3\n        /* \"#utility.yul\":10898:10905   */\n      dup5\n        /* \"#utility.yul\":10894:10917   */\n      sub\n        /* \"#utility.yul\":10890:10922   */\n      slt\n        /* \"#utility.yul\":10887:11006   */\n      iszero\n      tag_266\n      jumpi\n        /* \"#utility.yul\":10925:11004   */\n      tag_267\n      tag_54\n      jump\t// in\n    tag_267:\n        /* \"#utility.yul\":10887:11006   */\n    tag_266:\n        /* \"#utility.yul\":11073:11074   */\n      0x00\n        /* \"#utility.yul\":11062:11071   */\n      dup3\n        /* \"#utility.yul\":11058:11075   */\n      add\n        /* \"#utility.yul\":11045:11076   */\n      calldataload\n        /* \"#utility.yul\":11103:11121   */\n      0xffffffffffffffff\n        /* \"#utility.yul\":11095:11101   */\n      dup2\n        /* \"#utility.yul\":11092:11122   */\n      gt\n        /* \"#utility.yul\":11089:11206   */\n      iszero\n      tag_268\n      jumpi\n        /* \"#utility.yul\":11125:11204   */\n      tag_269\n      tag_55\n      jump\t// in\n    tag_269:\n        /* \"#utility.yul\":11089:11206   */\n    tag_268:\n        /* \"#utility.yul\":11230:11292   */\n      tag_270\n        /* \"#utility.yul\":11284:11291   */\n      dup5\n        /* \"#utility.yul\":11275:11281   */\n      dup3\n        /* \"#utility.yul\":11264:11273   */\n      dup6\n        /* \"#utility.yul\":11260:11282   */\n      add\n        /* \"#utility.yul\":11230:11292   */\n      tag_71\n      jump\t// in\n    tag_270:\n        /* \"#utility.yul\":11220:11292   */\n      swap2\n      pop\n        /* \"#utility.yul\":11016:11302   */\n      pop\n        /* \"#utility.yul\":10802:11309   */\n      swap3\n      swap2\n      pop\n      pop\n      jump\t// out\n        /* \"#utility.yul\":11315:11463   */\n    tag_72:\n        /* \"#utility.yul\":11417:11428   */\n      0x00\n        /* \"#utility.yul\":11454:11457   */\n      dup2\n        /* \"#utility.yul\":11439:11457   */\n      swap1\n      pop\n        /* \"#utility.yul\":11315:11463   */\n      swap3\n      swap2\n      pop\n      pop\n      jump\t// out\n        /* \"#utility.yul\":11469:11784   */\n    tag_73:\n        /* \"#utility.yul\":11609:11675   */\n      0x7b226e616d65223a20224d7920436f6e7472616374222c22696d616765223a20\n        /* \"#utility.yul\":11605:11606   */\n      0x00\n        /* \"#utility.yul\":11597:11603   */\n      dup3\n        /* \"#utility.yul\":11593:11607   */\n      add\n        /* \"#utility.yul\":11586:11676   */\n      mstore\n        /* \"#utility.yul\":11710:11776   */\n      0x2200000000000000000000000000000000000000000000000000000000000000\n        /* \"#utility.yul\":11705:11707   */\n      0x20\n        /* \"#utility.yul\":11697:11703   */\n      dup3\n        /* \"#utility.yul\":11693:11708   */\n      add\n        /* \"#utility.yul\":11686:11777   */\n      mstore\n        /* \"#utility.yul\":11469:11784   */\n      pop\n      jump\t// out\n        /* \"#utility.yul\":11790:12192   */\n    tag_74:\n        /* \"#utility.yul\":11950:11953   */\n      0x00\n        /* \"#utility.yul\":11971:12056   */\n      tag_274\n        /* \"#utility.yul\":12053:12055   */\n      0x21\n        /* \"#utility.yul\":12048:12051   */\n      dup4\n        /* \"#utility.yul\":11971:12056   */\n      tag_72\n      jump\t// in\n    tag_274:\n        /* \"#utility.yul\":11964:12056   */\n      swap2\n      pop\n        /* \"#utility.yul\":12065:12158   */\n      tag_275\n        /* \"#utility.yul\":12154:12157   */\n      dup3\n        /* \"#utility.yul\":12065:12158   */\n      tag_73\n      jump\t// in\n    tag_275:\n        /* \"#utility.yul\":12183:12185   */\n      0x21\n        /* \"#utility.yul\":12178:12181   */\n      dup3\n        /* \"#utility.yul\":12174:12186   */\n      add\n        /* \"#utility.yul\":12167:12186   */\n      swap1\n      pop\n        /* \"#utility.yul\":11790:12192   */\n      swap2\n      swap1\n      pop\n      jump\t// out\n        /* \"#utility.yul\":12198:12588   */\n    tag_75:\n        /* \"#utility.yul\":12304:12307   */\n      0x00\n        /* \"#utility.yul\":12332:12371   */\n      tag_277\n        /* \"#utility.yul\":12365:12370   */\n      dup3\n        /* \"#utility.yul\":12332:12371   */\n      tag_65\n      jump\t// in\n    tag_277:\n        /* \"#utility.yul\":12387:12476   */\n      tag_278\n        /* \"#utility.yul\":12469:12475   */\n      dup2\n        /* \"#utility.yul\":12464:12467   */\n      dup6\n        /* \"#utility.yul\":12387:12476   */\n      tag_72\n      jump\t// in\n    tag_278:\n        /* \"#utility.yul\":12380:12476   */\n      swap4\n      pop\n        /* \"#utility.yul\":12485:12550   */\n      tag_279\n        /* \"#utility.yul\":12543:12549   */\n      dup2\n        /* \"#utility.yul\":12538:12541   */\n      dup6\n        /* \"#utility.yul\":12531:12535   */\n      0x20\n        /* \"#utility.yul\":12524:12529   */\n      dup7\n        /* \"#utility.yul\":12520:12536   */\n      add\n        /* \"#utility.yul\":12485:12550   */\n      tag_67\n      jump\t// in\n    tag_279:\n        /* \"#utility.yul\":12575:12581   */\n      dup1\n        /* \"#utility.yul\":12570:12573   */\n      dup5\n        /* \"#utility.yul\":12566:12582   */\n      add\n        /* \"#utility.yul\":12559:12582   */\n      swap2\n      pop\n        /* \"#utility.yul\":12308:12588   */\n      pop\n        /* \"#utility.yul\":12198:12588   */\n      swap3\n      swap2\n      pop\n      pop\n      jump\t// out\n        /* \"#utility.yul\":12594:13111   */\n    tag_76:\n        /* \"#utility.yul\":12734:12800   */\n      0x22202c226465736372697074696f6e223a202254686973206973206465706f73\n        /* \"#utility.yul\":12730:12731   */\n      0x00\n        /* \"#utility.yul\":12722:12728   */\n      dup3\n        /* \"#utility.yul\":12718:12732   */\n      add\n        /* \"#utility.yul\":12711:12801   */\n      mstore\n        /* \"#utility.yul\":12835:12901   */\n      0x697420616e6420776974686472617720636f6e7472616374222c202261747472\n        /* \"#utility.yul\":12830:12832   */\n      0x20\n        /* \"#utility.yul\":12822:12828   */\n      dup3\n        /* \"#utility.yul\":12818:12833   */\n      add\n        /* \"#utility.yul\":12811:12902   */\n      mstore\n        /* \"#utility.yul\":12936:13002   */\n      0x696275746573223a205b7b202274726169745f74797065223a20226465706f73\n        /* \"#utility.yul\":12931:12933   */\n      0x40\n        /* \"#utility.yul\":12923:12929   */\n      dup3\n        /* \"#utility.yul\":12919:12934   */\n      add\n        /* \"#utility.yul\":12912:13003   */\n      mstore\n        /* \"#utility.yul\":13037:13103   */\n      0x69746564222c2276616c7565223a202200000000000000000000000000000000\n        /* \"#utility.yul\":13032:13034   */\n      0x60\n        /* \"#utility.yul\":13024:13030   */\n      dup3\n        /* \"#utility.yul\":13020:13035   */\n      add\n        /* \"#utility.yul\":13013:13104   */\n      mstore\n        /* \"#utility.yul\":12594:13111   */\n      pop\n      jump\t// out\n        /* \"#utility.yul\":13117:13521   */\n    tag_77:\n        /* \"#utility.yul\":13277:13280   */\n      0x00\n        /* \"#utility.yul\":13298:13384   */\n      tag_282\n        /* \"#utility.yul\":13380:13383   */\n      0x70\n        /* \"#utility.yul\":13375:13378   */\n      dup4\n        /* \"#utility.yul\":13298:13384   */\n      tag_72\n      jump\t// in\n    tag_282:\n        /* \"#utility.yul\":13291:13384   */\n      swap2\n      pop\n        /* \"#utility.yul\":13393:13486   */\n      tag_283\n        /* \"#utility.yul\":13482:13485   */\n      dup3\n        /* \"#utility.yul\":13393:13486   */\n      tag_76\n      jump\t// in\n    tag_283:\n        /* \"#utility.yul\":13511:13514   */\n      0x70\n        /* \"#utility.yul\":13506:13509   */\n      dup3\n        /* \"#utility.yul\":13502:13515   */\n      add\n        /* \"#utility.yul\":13495:13515   */\n      swap1\n      pop\n        /* \"#utility.yul\":13117:13521   */\n      swap2\n      swap1\n      pop\n      jump\t// out\n        /* \"#utility.yul\":13527:13842   */\n    tag_78:\n        /* \"#utility.yul\":13667:13733   */\n      0x227d2c7b2274726169745f74797065223a20226d61747572697479222c227661\n        /* \"#utility.yul\":13663:13664   */\n      0x00\n        /* \"#utility.yul\":13655:13661   */\n      dup3\n        /* \"#utility.yul\":13651:13665   */\n      add\n        /* \"#utility.yul\":13644:13734   */\n      mstore\n        /* \"#utility.yul\":13768:13834   */\n      0x6c7565223a202200000000000000000000000000000000000000000000000000\n        /* \"#utility.yul\":13763:13765   */\n      0x20\n        /* \"#utility.yul\":13755:13761   */\n      dup3\n        /* \"#utility.yul\":13751:13766   */\n      add\n        /* \"#utility.yul\":13744:13835   */\n      mstore\n        /* \"#utility.yul\":13527:13842   */\n      pop\n      jump\t// out\n        /* \"#utility.yul\":13848:14250   */\n    tag_79:\n        /* \"#utility.yul\":14008:14011   */\n      0x00\n        /* \"#utility.yul\":14029:14114   */\n      tag_286\n        /* \"#utility.yul\":14111:14113   */\n      0x27\n        /* \"#utility.yul\":14106:14109   */\n      dup4\n        /* \"#utility.yul\":14029:14114   */\n      tag_72\n      jump\t// in\n    tag_286:\n        /* \"#utility.yul\":14022:14114   */\n      swap2\n      pop\n        /* \"#utility.yul\":14123:14216   */\n      tag_287\n        /* \"#utility.yul\":14212:14215   */\n      dup3\n        /* \"#utility.yul\":14123:14216   */\n      tag_78\n      jump\t// in\n    tag_287:\n        /* \"#utility.yul\":14241:14243   */\n      0x27\n        /* \"#utility.yul\":14236:14239   */\n      dup3\n        /* \"#utility.yul\":14232:14244   */\n      add\n        /* \"#utility.yul\":14225:14244   */\n      swap1\n      pop\n        /* \"#utility.yul\":13848:14250   */\n      swap2\n      swap1\n      pop\n      jump\t// out\n        /* \"#utility.yul\":14256:14571   */\n    tag_80:\n        /* \"#utility.yul\":14396:14462   */\n      0x227d2c7b2274726169745f74797065223a202270657263656e74616765222c22\n        /* \"#utility.yul\":14392:14393   */\n      0x00\n        /* \"#utility.yul\":14384:14390   */\n      dup3\n        /* \"#utility.yul\":14380:14394   */\n      add\n        /* \"#utility.yul\":14373:14463   */\n      mstore\n        /* \"#utility.yul\":14497:14563   */\n      0x76616c7565223a20220000000000000000000000000000000000000000000000\n        /* \"#utility.yul\":14492:14494   */\n      0x20\n        /* \"#utility.yul\":14484:14490   */\n      dup3\n        /* \"#utility.yul\":14480:14495   */\n      add\n        /* \"#utility.yul\":14473:14564   */\n      mstore\n        /* \"#utility.yul\":14256:14571   */\n      pop\n      jump\t// out\n        /* \"#utility.yul\":14577:14979   */\n    tag_81:\n        /* \"#utility.yul\":14737:14740   */\n      0x00\n        /* \"#utility.yul\":14758:14843   */\n      tag_290\n        /* \"#utility.yul\":14840:14842   */\n      0x29\n        /* \"#utility.yul\":14835:14838   */\n      dup4\n        /* \"#utility.yul\":14758:14843   */\n      tag_72\n      jump\t// in\n    tag_290:\n        /* \"#utility.yul\":14751:14843   */\n      swap2\n      pop\n        /* \"#utility.yul\":14852:14945   */\n      tag_291\n        /* \"#utility.yul\":14941:14944   */\n      dup3\n        /* \"#utility.yul\":14852:14945   */\n      tag_80\n      jump\t// in\n    tag_291:\n        /* \"#utility.yul\":14970:14972   */\n      0x29\n        /* \"#utility.yul\":14965:14968   */\n      dup3\n        /* \"#utility.yul\":14961:14973   */\n      add\n        /* \"#utility.yul\":14954:14973   */\n      swap1\n      pop\n        /* \"#utility.yul\":14577:14979   */\n      swap2\n      swap1\n      pop\n      jump\t// out\n        /* \"#utility.yul\":14985:15300   */\n    tag_82:\n        /* \"#utility.yul\":15125:15191   */\n      0x227d2c7b202274726169745f74797065223a20224552433230436f6e74726163\n        /* \"#utility.yul\":15121:15122   */\n      0x00\n        /* \"#utility.yul\":15113:15119   */\n      dup3\n        /* \"#utility.yul\":15109:15123   */\n      add\n        /* \"#utility.yul\":15102:15192   */\n      mstore\n        /* \"#utility.yul\":15226:15292   */\n      0x7441646472657373222c2276616c7565223a2022000000000000000000000000\n        /* \"#utility.yul\":15221:15223   */\n      0x20\n        /* \"#utility.yul\":15213:15219   */\n      dup3\n        /* \"#utility.yul\":15209:15224   */\n      add\n        /* \"#utility.yul\":15202:15293   */\n      mstore\n        /* \"#utility.yul\":14985:15300   */\n      pop\n      jump\t// out\n        /* \"#utility.yul\":15306:15708   */\n    tag_83:\n        /* \"#utility.yul\":15466:15469   */\n      0x00\n        /* \"#utility.yul\":15487:15572   */\n      tag_294\n        /* \"#utility.yul\":15569:15571   */\n      0x34\n        /* \"#utility.yul\":15564:15567   */\n      dup4\n        /* \"#utility.yul\":15487:15572   */\n      tag_72\n      jump\t// in\n    tag_294:\n        /* \"#utility.yul\":15480:15572   */\n      swap2\n      pop\n        /* \"#utility.yul\":15581:15674   */\n      tag_295\n        /* \"#utility.yul\":15670:15673   */\n      dup3\n        /* \"#utility.yul\":15581:15674   */\n      tag_82\n      jump\t// in\n    tag_295:\n        /* \"#utility.yul\":15699:15701   */\n      0x34\n        /* \"#utility.yul\":15694:15697   */\n      dup3\n        /* \"#utility.yul\":15690:15702   */\n      add\n        /* \"#utility.yul\":15683:15702   */\n      swap1\n      pop\n        /* \"#utility.yul\":15306:15708   */\n      swap2\n      swap1\n      pop\n      jump\t// out\n        /* \"#utility.yul\":15714:16029   */\n    tag_84:\n        /* \"#utility.yul\":15854:15920   */\n      0x227d2c7b2274726169745f74797065223a20224e4654436f6e74726163744164\n        /* \"#utility.yul\":15850:15851   */\n      0x00\n        /* \"#utility.yul\":15842:15848   */\n      dup3\n        /* \"#utility.yul\":15838:15852   */\n      add\n        /* \"#utility.yul\":15831:15921   */\n      mstore\n        /* \"#utility.yul\":15955:16021   */\n      0x6472657373222c2276616c7565223a2022000000000000000000000000000000\n        /* \"#utility.yul\":15950:15952   */\n      0x20\n        /* \"#utility.yul\":15942:15948   */\n      dup3\n        /* \"#utility.yul\":15938:15953   */\n      add\n        /* \"#utility.yul\":15931:16022   */\n      mstore\n        /* \"#utility.yul\":15714:16029   */\n      pop\n      jump\t// out\n        /* \"#utility.yul\":16035:16437   */\n    tag_85:\n        /* \"#utility.yul\":16195:16198   */\n      0x00\n        /* \"#utility.yul\":16216:16301   */\n      tag_298\n        /* \"#utility.yul\":16298:16300   */\n      0x31\n        /* \"#utility.yul\":16293:16296   */\n      dup4\n        /* \"#utility.yul\":16216:16301   */\n      tag_72\n      jump\t// in\n    tag_298:\n        /* \"#utility.yul\":16209:16301   */\n      swap2\n      pop\n        /* \"#utility.yul\":16310:16403   */\n      tag_299\n        /* \"#utility.yul\":16399:16402   */\n      dup3\n        /* \"#utility.yul\":16310:16403   */\n      tag_84\n      jump\t// in\n    tag_299:\n        /* \"#utility.yul\":16428:16430   */\n      0x31\n        /* \"#utility.yul\":16423:16426   */\n      dup3\n        /* \"#utility.yul\":16419:16431   */\n      add\n        /* \"#utility.yul\":16412:16431   */\n      swap1\n      pop\n        /* \"#utility.yul\":16035:16437   */\n      swap2\n      swap1\n      pop\n      jump\t// out\n        /* \"#utility.yul\":16443:16758   */\n    tag_86:\n        /* \"#utility.yul\":16583:16649   */\n      0x227d2c7b2274726169745f74797065223a2022436f6e74726163744e616d6522\n        /* \"#utility.yul\":16579:16580   */\n      0x00\n        /* \"#utility.yul\":16571:16577   */\n      dup3\n        /* \"#utility.yul\":16567:16581   */\n      add\n        /* \"#utility.yul\":16560:16650   */\n      mstore\n        /* \"#utility.yul\":16684:16750   */\n      0x2c2276616c7565223a2022000000000000000000000000000000000000000000\n        /* \"#utility.yul\":16679:16681   */\n      0x20\n        /* \"#utility.yul\":16671:16677   */\n      dup3\n        /* \"#utility.yul\":16667:16682   */\n      add\n        /* \"#utility.yul\":16660:16751   */\n      mstore\n        /* \"#utility.yul\":16443:16758   */\n      pop\n      jump\t// out\n        /* \"#utility.yul\":16764:17166   */\n    tag_87:\n        /* \"#utility.yul\":16924:16927   */\n      0x00\n        /* \"#utility.yul\":16945:17030   */\n      tag_302\n        /* \"#utility.yul\":17027:17029   */\n      0x2b\n        /* \"#utility.yul\":17022:17025   */\n      dup4\n        /* \"#utility.yul\":16945:17030   */\n      tag_72\n      jump\t// in\n    tag_302:\n        /* \"#utility.yul\":16938:17030   */\n      swap2\n      pop\n        /* \"#utility.yul\":17039:17132   */\n      tag_303\n        /* \"#utility.yul\":17128:17131   */\n      dup3\n        /* \"#utility.yul\":17039:17132   */\n      tag_86\n      jump\t// in\n    tag_303:\n        /* \"#utility.yul\":17157:17159   */\n      0x2b\n        /* \"#utility.yul\":17152:17155   */\n      dup3\n        /* \"#utility.yul\":17148:17160   */\n      add\n        /* \"#utility.yul\":17141:17160   */\n      swap1\n      pop\n        /* \"#utility.yul\":16764:17166   */\n      swap2\n      swap1\n      pop\n      jump\t// out\n        /* \"#utility.yul\":17172:17487   */\n    tag_88:\n        /* \"#utility.yul\":17312:17378   */\n      0x227d2c7b202274726169745f74797065223a2022436f6e747261637453796d62\n        /* \"#utility.yul\":17308:17309   */\n      0x00\n        /* \"#utility.yul\":17300:17306   */\n      dup3\n        /* \"#utility.yul\":17296:17310   */\n      add\n        /* \"#utility.yul\":17289:17379   */\n      mstore\n        /* \"#utility.yul\":17413:17479   */\n      0x6f6c222c2276616c7565223a2022000000000000000000000000000000000000\n        /* \"#utility.yul\":17408:17410   */\n      0x20\n        /* \"#utility.yul\":17400:17406   */\n      dup3\n        /* \"#utility.yul\":17396:17411   */\n      add\n        /* \"#utility.yul\":17389:17480   */\n      mstore\n        /* \"#utility.yul\":17172:17487   */\n      pop\n      jump\t// out\n        /* \"#utility.yul\":17493:17895   */\n    tag_89:\n        /* \"#utility.yul\":17653:17656   */\n      0x00\n        /* \"#utility.yul\":17674:17759   */\n      tag_306\n        /* \"#utility.yul\":17756:17758   */\n      0x2e\n        /* \"#utility.yul\":17751:17754   */\n      dup4\n        /* \"#utility.yul\":17674:17759   */\n      tag_72\n      jump\t// in\n    tag_306:\n        /* \"#utility.yul\":17667:17759   */\n      swap2\n      pop\n        /* \"#utility.yul\":17768:17861   */\n      tag_307\n        /* \"#utility.yul\":17857:17860   */\n      dup3\n        /* \"#utility.yul\":17768:17861   */\n      tag_88\n      jump\t// in\n    tag_307:\n        /* \"#utility.yul\":17886:17888   */\n      0x2e\n        /* \"#utility.yul\":17881:17884   */\n      dup3\n        /* \"#utility.yul\":17877:17889   */\n      add\n        /* \"#utility.yul\":17870:17889   */\n      swap1\n      pop\n        /* \"#utility.yul\":17493:17895   */\n      swap2\n      swap1\n      pop\n      jump\t// out\n        /* \"#utility.yul\":17901:18216   */\n    tag_90:\n        /* \"#utility.yul\":18041:18107   */\n      0x227d2c7b2274726169745f74797065223a2022546f74616c436c61696d222c22\n        /* \"#utility.yul\":18037:18038   */\n      0x00\n        /* \"#utility.yul\":18029:18035   */\n      dup3\n        /* \"#utility.yul\":18025:18039   */\n      add\n        /* \"#utility.yul\":18018:18108   */\n      mstore\n        /* \"#utility.yul\":18142:18208   */\n      0x76616c7565223a20220000000000000000000000000000000000000000000000\n        /* \"#utility.yul\":18137:18139   */\n      0x20\n        /* \"#utility.yul\":18129:18135   */\n      dup3\n        /* \"#utility.yul\":18125:18140   */\n      add\n        /* \"#utility.yul\":18118:18209   */\n      mstore\n        /* \"#utility.yul\":17901:18216   */\n      pop\n      jump\t// out\n        /* \"#utility.yul\":18222:18624   */\n    tag_91:\n        /* \"#utility.yul\":18382:18385   */\n      0x00\n        /* \"#utility.yul\":18403:18488   */\n      tag_310\n        /* \"#utility.yul\":18485:18487   */\n      0x29\n        /* \"#utility.yul\":18480:18483   */\n      dup4\n        /* \"#utility.yul\":18403:18488   */\n      tag_72\n      jump\t// in\n    tag_310:\n        /* \"#utility.yul\":18396:18488   */\n      swap2\n      pop\n        /* \"#utility.yul\":18497:18590   */\n      tag_311\n        /* \"#utility.yul\":18586:18589   */\n      dup3\n        /* \"#utility.yul\":18497:18590   */\n      tag_90\n      jump\t// in\n    tag_311:\n        /* \"#utility.yul\":18615:18617   */\n      0x29\n        /* \"#utility.yul\":18610:18613   */\n      dup3\n        /* \"#utility.yul\":18606:18618   */\n      add\n        /* \"#utility.yul\":18599:18618   */\n      swap1\n      pop\n        /* \"#utility.yul\":18222:18624   */\n      swap2\n      swap1\n      pop\n      jump\t// out\n        /* \"#utility.yul\":18630:18844   */\n    tag_92:\n        /* \"#utility.yul\":18770:18836   */\n      0x227d5d7d00000000000000000000000000000000000000000000000000000000\n        /* \"#utility.yul\":18766:18767   */\n      0x00\n        /* \"#utility.yul\":18758:18764   */\n      dup3\n        /* \"#utility.yul\":18754:18768   */\n      add\n        /* \"#utility.yul\":18747:18837   */\n      mstore\n        /* \"#utility.yul\":18630:18844   */\n      pop\n      jump\t// out\n        /* \"#utility.yul\":18850:19250   */\n    tag_93:\n        /* \"#utility.yul\":19010:19013   */\n      0x00\n        /* \"#utility.yul\":19031:19115   */\n      tag_314\n        /* \"#utility.yul\":19113:19114   */\n      0x04\n        /* \"#utility.yul\":19108:19111   */\n      dup4\n        /* \"#utility.yul\":19031:19115   */\n      tag_72\n      jump\t// in\n    tag_314:\n        /* \"#utility.yul\":19024:19115   */\n      swap2\n      pop\n        /* \"#utility.yul\":19124:19217   */\n      tag_315\n        /* \"#utility.yul\":19213:19216   */\n      dup3\n        /* \"#utility.yul\":19124:19217   */\n      tag_92\n      jump\t// in\n    tag_315:\n        /* \"#utility.yul\":19242:19243   */\n      0x04\n        /* \"#utility.yul\":19237:19240   */\n      dup3\n        /* \"#utility.yul\":19233:19244   */\n      add\n        /* \"#utility.yul\":19226:19244   */\n      swap1\n      pop\n        /* \"#utility.yul\":18850:19250   */\n      swap2\n      swap1\n      pop\n      jump\t// out\n        /* \"#utility.yul\":19256:23471   */\n    tag_25:\n        /* \"#utility.yul\":20782:20785   */\n      0x00\n        /* \"#utility.yul\":20804:20952   */\n      tag_317\n        /* \"#utility.yul\":20948:20951   */\n      dup3\n        /* \"#utility.yul\":20804:20952   */\n      tag_74\n      jump\t// in\n    tag_317:\n        /* \"#utility.yul\":20797:20952   */\n      swap2\n      pop\n        /* \"#utility.yul\":20969:21064   */\n      tag_318\n        /* \"#utility.yul\":21060:21063   */\n      dup3\n        /* \"#utility.yul\":21051:21057   */\n      dup13\n        /* \"#utility.yul\":20969:21064   */\n      tag_75\n      jump\t// in\n    tag_318:\n        /* \"#utility.yul\":20962:21064   */\n      swap2\n      pop\n        /* \"#utility.yul\":21081:21229   */\n      tag_319\n        /* \"#utility.yul\":21225:21228   */\n      dup3\n        /* \"#utility.yul\":21081:21229   */\n      tag_77\n      jump\t// in\n    tag_319:\n        /* \"#utility.yul\":21074:21229   */\n      swap2\n      pop\n        /* \"#utility.yul\":21246:21341   */\n      tag_320\n        /* \"#utility.yul\":21337:21340   */\n      dup3\n        /* \"#utility.yul\":21328:21334   */\n      dup12\n        /* \"#utility.yul\":21246:21341   */\n      tag_75\n      jump\t// in\n    tag_320:\n        /* \"#utility.yul\":21239:21341   */\n      swap2\n      pop\n        /* \"#utility.yul\":21358:21506   */\n      tag_321\n        /* \"#utility.yul\":21502:21505   */\n      dup3\n        /* \"#utility.yul\":21358:21506   */\n      tag_79\n      jump\t// in\n    tag_321:\n        /* \"#utility.yul\":21351:21506   */\n      swap2\n      pop\n        /* \"#utility.yul\":21523:21618   */\n      tag_322\n        /* \"#utility.yul\":21614:21617   */\n      dup3\n        /* \"#utility.yul\":21605:21611   */\n      dup11\n        /* \"#utility.yul\":21523:21618   */\n      tag_75\n      jump\t// in\n    tag_322:\n        /* \"#utility.yul\":21516:21618   */\n      swap2\n      pop\n        /* \"#utility.yul\":21635:21783   */\n      tag_323\n        /* \"#utility.yul\":21779:21782   */\n      dup3\n        /* \"#utility.yul\":21635:21783   */\n      tag_81\n      jump\t// in\n    tag_323:\n        /* \"#utility.yul\":21628:21783   */\n      swap2\n      pop\n        /* \"#utility.yul\":21800:21895   */\n      tag_324\n        /* \"#utility.yul\":21891:21894   */\n      dup3\n        /* \"#utility.yul\":21882:21888   */\n      dup10\n        /* \"#utility.yul\":21800:21895   */\n      tag_75\n      jump\t// in\n    tag_324:\n        /* \"#utility.yul\":21793:21895   */\n      swap2\n      pop\n        /* \"#utility.yul\":21912:22060   */\n      tag_325\n        /* \"#utility.yul\":22056:22059   */\n      dup3\n        /* \"#utility.yul\":21912:22060   */\n      tag_83\n      jump\t// in\n    tag_325:\n        /* \"#utility.yul\":21905:22060   */\n      swap2\n      pop\n        /* \"#utility.yul\":22077:22172   */\n      tag_326\n        /* \"#utility.yul\":22168:22171   */\n      dup3\n        /* \"#utility.yul\":22159:22165   */\n      dup9\n        /* \"#utility.yul\":22077:22172   */\n      tag_75\n      jump\t// in\n    tag_326:\n        /* \"#utility.yul\":22070:22172   */\n      swap2\n      pop\n        /* \"#utility.yul\":22189:22337   */\n      tag_327\n        /* \"#utility.yul\":22333:22336   */\n      dup3\n        /* \"#utility.yul\":22189:22337   */\n      tag_85\n      jump\t// in\n    tag_327:\n        /* \"#utility.yul\":22182:22337   */\n      swap2\n      pop\n        /* \"#utility.yul\":22354:22449   */\n      tag_328\n        /* \"#utility.yul\":22445:22448   */\n      dup3\n        /* \"#utility.yul\":22436:22442   */\n      dup8\n        /* \"#utility.yul\":22354:22449   */\n      tag_75\n      jump\t// in\n    tag_328:\n        /* \"#utility.yul\":22347:22449   */\n      swap2\n      pop\n        /* \"#utility.yul\":22466:22614   */\n      tag_329\n        /* \"#utility.yul\":22610:22613   */\n      dup3\n        /* \"#utility.yul\":22466:22614   */\n      tag_87\n      jump\t// in\n    tag_329:\n        /* \"#utility.yul\":22459:22614   */\n      swap2\n      pop\n        /* \"#utility.yul\":22631:22726   */\n      tag_330\n        /* \"#utility.yul\":22722:22725   */\n      dup3\n        /* \"#utility.yul\":22713:22719   */\n      dup7\n        /* \"#utility.yul\":22631:22726   */\n      tag_75\n      jump\t// in\n    tag_330:\n        /* \"#utility.yul\":22624:22726   */\n      swap2\n      pop\n        /* \"#utility.yul\":22743:22891   */\n      tag_331\n        /* \"#utility.yul\":22887:22890   */\n      dup3\n        /* \"#utility.yul\":22743:22891   */\n      tag_89\n      jump\t// in\n    tag_331:\n        /* \"#utility.yul\":22736:22891   */\n      swap2\n      pop\n        /* \"#utility.yul\":22908:23003   */\n      tag_332\n        /* \"#utility.yul\":22999:23002   */\n      dup3\n        /* \"#utility.yul\":22990:22996   */\n      dup6\n        /* \"#utility.yul\":22908:23003   */\n      tag_75\n      jump\t// in\n    tag_332:\n        /* \"#utility.yul\":22901:23003   */\n      swap2\n      pop\n        /* \"#utility.yul\":23020:23168   */\n      tag_333\n        /* \"#utility.yul\":23164:23167   */\n      dup3\n        /* \"#utility.yul\":23020:23168   */\n      tag_91\n      jump\t// in\n    tag_333:\n        /* \"#utility.yul\":23013:23168   */\n      swap2\n      pop\n        /* \"#utility.yul\":23185:23280   */\n      tag_334\n        /* \"#utility.yul\":23276:23279   */\n      dup3\n        /* \"#utility.yul\":23267:23273   */\n      dup5\n        /* \"#utility.yul\":23185:23280   */\n      tag_75\n      jump\t// in\n    tag_334:\n        /* \"#utility.yul\":23178:23280   */\n      swap2\n      pop\n        /* \"#utility.yul\":23297:23445   */\n      tag_335\n        /* \"#utility.yul\":23441:23444   */\n      dup3\n        /* \"#utility.yul\":23297:23445   */\n      tag_93\n      jump\t// in\n    tag_335:\n        /* \"#utility.yul\":23290:23445   */\n      swap2\n      pop\n        /* \"#utility.yul\":23462:23465   */\n      dup2\n        /* \"#utility.yul\":23455:23465   */\n      swap1\n      pop\n        /* \"#utility.yul\":19256:23471   */\n      swap11\n      swap10\n      pop\n      pop\n      pop\n      pop\n      pop\n      pop\n      pop\n      pop\n      pop\n      pop\n      jump\t// out\n        /* \"#utility.yul\":23477:23656   */\n    tag_94:\n        /* \"#utility.yul\":23617:23648   */\n      0x646174613a6170706c69636174696f6e2f6a736f6e3b6261736536342c000000\n        /* \"#utility.yul\":23613:23614   */\n      0x00\n        /* \"#utility.yul\":23605:23611   */\n      dup3\n        /* \"#utility.yul\":23601:23615   */\n      add\n        /* \"#utility.yul\":23594:23649   */\n      mstore\n        /* \"#utility.yul\":23477:23656   */\n      pop\n      jump\t// out\n        /* \"#utility.yul\":23662:24064   */\n    tag_95:\n        /* \"#utility.yul\":23822:23825   */\n      0x00\n        /* \"#utility.yul\":23843:23928   */\n      tag_338\n        /* \"#utility.yul\":23925:23927   */\n      0x1d\n        /* \"#utility.yul\":23920:23923   */\n      dup4\n        /* \"#utility.yul\":23843:23928   */\n      tag_72\n      jump\t// in\n    tag_338:\n        /* \"#utility.yul\":23836:23928   */\n      swap2\n      pop\n        /* \"#utility.yul\":23937:24030   */\n      tag_339\n        /* \"#utility.yul\":24026:24029   */\n      dup3\n        /* \"#utility.yul\":23937:24030   */\n      tag_94\n      jump\t// in\n    tag_339:\n        /* \"#utility.yul\":24055:24057   */\n      0x1d\n        /* \"#utility.yul\":24050:24053   */\n      dup3\n        /* \"#utility.yul\":24046:24058   */\n      add\n        /* \"#utility.yul\":24039:24058   */\n      swap1\n      pop\n        /* \"#utility.yul\":23662:24064   */\n      swap2\n      swap1\n      pop\n      jump\t// out\n        /* \"#utility.yul\":24070:24611   */\n    tag_27:\n        /* \"#utility.yul\":24303:24306   */\n      0x00\n        /* \"#utility.yul\":24325:24473   */\n      tag_341\n        /* \"#utility.yul\":24469:24472   */\n      dup3\n        /* \"#utility.yul\":24325:24473   */\n      tag_95\n      jump\t// in\n    tag_341:\n        /* \"#utility.yul\":24318:24473   */\n      swap2\n      pop\n        /* \"#utility.yul\":24490:24585   */\n      tag_342\n        /* \"#utility.yul\":24581:24584   */\n      dup3\n        /* \"#utility.yul\":24572:24578   */\n      dup5\n        /* \"#utility.yul\":24490:24585   */\n      tag_75\n      jump\t// in\n    tag_342:\n        /* \"#utility.yul\":24483:24585   */\n      swap2\n      pop\n        /* \"#utility.yul\":24602:24605   */\n      dup2\n        /* \"#utility.yul\":24595:24605   */\n      swap1\n      pop\n        /* \"#utility.yul\":24070:24611   */\n      swap3\n      swap2\n      pop\n      pop\n      jump\t// out\n        /* \"#utility.yul\":24617:25134   */\n    tag_96:\n        /* \"#utility.yul\":24757:24823   */\n      0x3c73766720786d6c6e733d22687474703a2f2f7777772e77332e6f72672f3230\n        /* \"#utility.yul\":24753:24754   */\n      0x00\n        /* \"#utility.yul\":24745:24751   */\n      dup3\n        /* \"#utility.yul\":24741:24755   */\n      add\n        /* \"#utility.yul\":24734:24824   */\n      mstore\n        /* \"#utility.yul\":24858:24924   */\n      0x30302f73766722207072657365727665417370656374526174696f3d22784d69\n        /* \"#utility.yul\":24853:24855   */\n      0x20\n        /* \"#utility.yul\":24845:24851   */\n      dup3\n        /* \"#utility.yul\":24841:24856   */\n      add\n        /* \"#utility.yul\":24834:24925   */\n      mstore\n        /* \"#utility.yul\":24959:25025   */\n      0x6e594d696e206d656574222076696577426f783d223020302035303020353030\n        /* \"#utility.yul\":24954:24956   */\n      0x40\n        /* \"#utility.yul\":24946:24952   */\n      dup3\n        /* \"#utility.yul\":24942:24957   */\n      add\n        /* \"#utility.yul\":24935:25026   */\n      mstore\n        /* \"#utility.yul\":25060:25126   */\n      0x223e000000000000000000000000000000000000000000000000000000000000\n        /* \"#utility.yul\":25055:25057   */\n      0x60\n        /* \"#utility.yul\":25047:25053   */\n      dup3\n        /* \"#utility.yul\":25043:25058   */\n      add\n        /* \"#utility.yul\":25036:25127   */\n      mstore\n        /* \"#utility.yul\":24617:25134   */\n      pop\n      jump\t// out\n        /* \"#utility.yul\":25140:25542   */\n    tag_97:\n        /* \"#utility.yul\":25300:25303   */\n      0x00\n        /* \"#utility.yul\":25321:25406   */\n      tag_345\n        /* \"#utility.yul\":25403:25405   */\n      0x62\n        /* \"#utility.yul\":25398:25401   */\n      dup4\n        /* \"#utility.yul\":25321:25406   */\n      tag_72\n      jump\t// in\n    tag_345:\n        /* \"#utility.yul\":25314:25406   */\n      swap2\n      pop\n        /* \"#utility.yul\":25415:25508   */\n      tag_346\n        /* \"#utility.yul\":25504:25507   */\n      dup3\n        /* \"#utility.yul\":25415:25508   */\n      tag_96\n      jump\t// in\n    tag_346:\n        /* \"#utility.yul\":25533:25535   */\n      0x62\n        /* \"#utility.yul\":25528:25531   */\n      dup3\n        /* \"#utility.yul\":25524:25536   */\n      add\n        /* \"#utility.yul\":25517:25536   */\n      swap1\n      pop\n        /* \"#utility.yul\":25140:25542   */\n      swap2\n      swap1\n      pop\n      jump\t// out\n        /* \"#utility.yul\":25548:25850   */\n    tag_98:\n        /* \"#utility.yul\":25688:25722   */\n      0x3c7374796c653e2e62617365207b2066696c6c3a2077686974653b20666f6e74\n        /* \"#utility.yul\":25684:25685   */\n      0x00\n        /* \"#utility.yul\":25676:25682   */\n      dup3\n        /* \"#utility.yul\":25672:25686   */\n      add\n        /* \"#utility.yul\":25665:25723   */\n      mstore\n        /* \"#utility.yul\":25761:25795   */\n      0x2d66616d696c793a2073657269663b20666f6e742d73697a653a20313470783b\n        /* \"#utility.yul\":25756:25758   */\n      0x20\n        /* \"#utility.yul\":25748:25754   */\n      dup3\n        /* \"#utility.yul\":25744:25759   */\n      add\n        /* \"#utility.yul\":25737:25796   */\n      mstore\n        /* \"#utility.yul\":25830:25842   */\n      0x207d3c2f7374796c653e00000000000000000000000000000000000000000000\n        /* \"#utility.yul\":25825:25827   */\n      0x40\n        /* \"#utility.yul\":25817:25823   */\n      dup3\n        /* \"#utility.yul\":25813:25828   */\n      add\n        /* \"#utility.yul\":25806:25843   */\n      mstore\n        /* \"#utility.yul\":25548:25850   */\n      pop\n      jump\t// out\n        /* \"#utility.yul\":25856:26258   */\n    tag_99:\n        /* \"#utility.yul\":26016:26019   */\n      0x00\n        /* \"#utility.yul\":26037:26122   */\n      tag_349\n        /* \"#utility.yul\":26119:26121   */\n      0x4a\n        /* \"#utility.yul\":26114:26117   */\n      dup4\n        /* \"#utility.yul\":26037:26122   */\n      tag_72\n      jump\t// in\n    tag_349:\n        /* \"#utility.yul\":26030:26122   */\n      swap2\n      pop\n        /* \"#utility.yul\":26131:26224   */\n      tag_350\n        /* \"#utility.yul\":26220:26223   */\n      dup3\n        /* \"#utility.yul\":26131:26224   */\n      tag_98\n      jump\t// in\n    tag_350:\n        /* \"#utility.yul\":26249:26251   */\n      0x4a\n        /* \"#utility.yul\":26244:26247   */\n      dup3\n        /* \"#utility.yul\":26240:26252   */\n      add\n        /* \"#utility.yul\":26233:26252   */\n      swap1\n      pop\n        /* \"#utility.yul\":25856:26258   */\n      swap2\n      swap1\n      pop\n      jump\t// out\n        /* \"#utility.yul\":26264:26579   */\n    tag_100:\n        /* \"#utility.yul\":26404:26470   */\n      0x3c726563742077696474683d223130302522206865696768743d223130302522\n        /* \"#utility.yul\":26400:26401   */\n      0x00\n        /* \"#utility.yul\":26392:26398   */\n      dup3\n        /* \"#utility.yul\":26388:26402   */\n      add\n        /* \"#utility.yul\":26381:26471   */\n      mstore\n        /* \"#utility.yul\":26505:26571   */\n      0x2066696c6c3d22626c756522202f3e0000000000000000000000000000000000\n        /* \"#utility.yul\":26500:26502   */\n      0x20\n        /* \"#utility.yul\":26492:26498   */\n      dup3\n        /* \"#utility.yul\":26488:26503   */\n      add\n        /* \"#utility.yul\":26481:26572   */\n      mstore\n        /* \"#utility.yul\":26264:26579   */\n      pop\n      jump\t// out\n        /* \"#utility.yul\":26585:26987   */\n    tag_101:\n        /* \"#utility.yul\":26745:26748   */\n      0x00\n        /* \"#utility.yul\":26766:26851   */\n      tag_353\n        /* \"#utility.yul\":26848:26850   */\n      0x2f\n        /* \"#utility.yul\":26843:26846   */\n      dup4\n        /* \"#utility.yul\":26766:26851   */\n      tag_72\n      jump\t// in\n    tag_353:\n        /* \"#utility.yul\":26759:26851   */\n      swap2\n      pop\n        /* \"#utility.yul\":26860:26953   */\n      tag_354\n        /* \"#utility.yul\":26949:26952   */\n      dup3\n        /* \"#utility.yul\":26860:26953   */\n      tag_100\n      jump\t// in\n    tag_354:\n        /* \"#utility.yul\":26978:26980   */\n      0x2f\n        /* \"#utility.yul\":26973:26976   */\n      dup3\n        /* \"#utility.yul\":26969:26981   */\n      add\n        /* \"#utility.yul\":26962:26981   */\n      swap1\n      pop\n        /* \"#utility.yul\":26585:26987   */\n      swap2\n      swap1\n      pop\n      jump\t// out\n        /* \"#utility.yul\":26993:27409   */\n    tag_102:\n        /* \"#utility.yul\":27133:27199   */\n      0x3c7465787420783d223530252220793d223330252220636c6173733d22626173\n        /* \"#utility.yul\":27129:27130   */\n      0x00\n        /* \"#utility.yul\":27121:27127   */\n      dup3\n        /* \"#utility.yul\":27117:27131   */\n      add\n        /* \"#utility.yul\":27110:27200   */\n      mstore\n        /* \"#utility.yul\":27234:27300   */\n      0x652220646f6d696e616e742d626173656c696e653d226d6964646c6522207465\n        /* \"#utility.yul\":27229:27231   */\n      0x20\n        /* \"#utility.yul\":27221:27227   */\n      dup3\n        /* \"#utility.yul\":27217:27232   */\n      add\n        /* \"#utility.yul\":27210:27301   */\n      mstore\n        /* \"#utility.yul\":27335:27401   */\n      0x78742d616e63686f723d226d6964646c65223e00000000000000000000000000\n        /* \"#utility.yul\":27330:27332   */\n      0x40\n        /* \"#utility.yul\":27322:27328   */\n      dup3\n        /* \"#utility.yul\":27318:27333   */\n      add\n        /* \"#utility.yul\":27311:27402   */\n      mstore\n        /* \"#utility.yul\":26993:27409   */\n      pop\n      jump\t// out\n        /* \"#utility.yul\":27415:27817   */\n    tag_103:\n        /* \"#utility.yul\":27575:27578   */\n      0x00\n        /* \"#utility.yul\":27596:27681   */\n      tag_357\n        /* \"#utility.yul\":27678:27680   */\n      0x53\n        /* \"#utility.yul\":27673:27676   */\n      dup4\n        /* \"#utility.yul\":27596:27681   */\n      tag_72\n      jump\t// in\n    tag_357:\n        /* \"#utility.yul\":27589:27681   */\n      swap2\n      pop\n        /* \"#utility.yul\":27690:27783   */\n      tag_358\n        /* \"#utility.yul\":27779:27782   */\n      dup3\n        /* \"#utility.yul\":27690:27783   */\n      tag_102\n      jump\t// in\n    tag_358:\n        /* \"#utility.yul\":27808:27810   */\n      0x53\n        /* \"#utility.yul\":27803:27806   */\n      dup3\n        /* \"#utility.yul\":27799:27811   */\n      add\n        /* \"#utility.yul\":27792:27811   */\n      swap1\n      pop\n        /* \"#utility.yul\":27415:27817   */\n      swap2\n      swap1\n      pop\n      jump\t// out\n        /* \"#utility.yul\":27823:27984   */\n    tag_104:\n        /* \"#utility.yul\":27963:27976   */\n      0x4d7920436f6e7472616374000000000000000000000000000000000000000000\n        /* \"#utility.yul\":27959:27960   */\n      0x00\n        /* \"#utility.yul\":27951:27957   */\n      dup3\n        /* \"#utility.yul\":27947:27961   */\n      add\n        /* \"#utility.yul\":27940:27977   */\n      mstore\n        /* \"#utility.yul\":27823:27984   */\n      pop\n      jump\t// out\n        /* \"#utility.yul\":27990:28392   */\n    tag_105:\n        /* \"#utility.yul\":28150:28153   */\n      0x00\n        /* \"#utility.yul\":28171:28256   */\n      tag_361\n        /* \"#utility.yul\":28253:28255   */\n      0x0b\n        /* \"#utility.yul\":28248:28251   */\n      dup4\n        /* \"#utility.yul\":28171:28256   */\n      tag_72\n      jump\t// in\n    tag_361:\n        /* \"#utility.yul\":28164:28256   */\n      swap2\n      pop\n        /* \"#utility.yul\":28265:28358   */\n      tag_362\n        /* \"#utility.yul\":28354:28357   */\n      dup3\n        /* \"#utility.yul\":28265:28358   */\n      tag_104\n      jump\t// in\n    tag_362:\n        /* \"#utility.yul\":28383:28385   */\n      0x0b\n        /* \"#utility.yul\":28378:28381   */\n      dup3\n        /* \"#utility.yul\":28374:28386   */\n      add\n        /* \"#utility.yul\":28367:28386   */\n      swap1\n      pop\n        /* \"#utility.yul\":27990:28392   */\n      swap2\n      swap1\n      pop\n      jump\t// out\n        /* \"#utility.yul\":28398:28555   */\n    tag_106:\n        /* \"#utility.yul\":28538:28547   */\n      0x3c2f746578743e00000000000000000000000000000000000000000000000000\n        /* \"#utility.yul\":28534:28535   */\n      0x00\n        /* \"#utility.yul\":28526:28532   */\n      dup3\n        /* \"#utility.yul\":28522:28536   */\n      add\n        /* \"#utility.yul\":28515:28548   */\n      mstore\n        /* \"#utility.yul\":28398:28555   */\n      pop\n      jump\t// out\n        /* \"#utility.yul\":28561:28961   */\n    tag_107:\n        /* \"#utility.yul\":28721:28724   */\n      0x00\n        /* \"#utility.yul\":28742:28826   */\n      tag_365\n        /* \"#utility.yul\":28824:28825   */\n      0x07\n        /* \"#utility.yul\":28819:28822   */\n      dup4\n        /* \"#utility.yul\":28742:28826   */\n      tag_72\n      jump\t// in\n    tag_365:\n        /* \"#utility.yul\":28735:28826   */\n      swap2\n      pop\n        /* \"#utility.yul\":28835:28928   */\n      tag_366\n        /* \"#utility.yul\":28924:28927   */\n      dup3\n        /* \"#utility.yul\":28835:28928   */\n      tag_106\n      jump\t// in\n    tag_366:\n        /* \"#utility.yul\":28953:28954   */\n      0x07\n        /* \"#utility.yul\":28948:28951   */\n      dup3\n        /* \"#utility.yul\":28944:28955   */\n      add\n        /* \"#utility.yul\":28937:28955   */\n      swap1\n      pop\n        /* \"#utility.yul\":28561:28961   */\n      swap2\n      swap1\n      pop\n      jump\t// out\n        /* \"#utility.yul\":28967:29383   */\n    tag_108:\n        /* \"#utility.yul\":29107:29173   */\n      0x3c7465787420783d223530252220793d223335252220636c6173733d22626173\n        /* \"#utility.yul\":29103:29104   */\n      0x00\n        /* \"#utility.yul\":29095:29101   */\n      dup3\n        /* \"#utility.yul\":29091:29105   */\n      add\n        /* \"#utility.yul\":29084:29174   */\n      mstore\n        /* \"#utility.yul\":29208:29274   */\n      0x652220646f6d696e616e742d626173656c696e653d226d6964646c6522207465\n        /* \"#utility.yul\":29203:29205   */\n      0x20\n        /* \"#utility.yul\":29195:29201   */\n      dup3\n        /* \"#utility.yul\":29191:29206   */\n      add\n        /* \"#utility.yul\":29184:29275   */\n      mstore\n        /* \"#utility.yul\":29309:29375   */\n      0x78742d616e63686f723d226d6964646c65223e00000000000000000000000000\n        /* \"#utility.yul\":29304:29306   */\n      0x40\n        /* \"#utility.yul\":29296:29302   */\n      dup3\n        /* \"#utility.yul\":29292:29307   */\n      add\n        /* \"#utility.yul\":29285:29376   */\n      mstore\n        /* \"#utility.yul\":28967:29383   */\n      pop\n      jump\t// out\n        /* \"#utility.yul\":29389:29791   */\n    tag_109:\n        /* \"#utility.yul\":29549:29552   */\n      0x00\n        /* \"#utility.yul\":29570:29655   */\n      tag_369\n        /* \"#utility.yul\":29652:29654   */\n      0x53\n        /* \"#utility.yul\":29647:29650   */\n      dup4\n        /* \"#utility.yul\":29570:29655   */\n      tag_72\n      jump\t// in\n    tag_369:\n        /* \"#utility.yul\":29563:29655   */\n      swap2\n      pop\n        /* \"#utility.yul\":29664:29757   */\n      tag_370\n        /* \"#utility.yul\":29753:29756   */\n      dup3\n        /* \"#utility.yul\":29664:29757   */\n      tag_108\n      jump\t// in\n    tag_370:\n        /* \"#utility.yul\":29782:29784   */\n      0x53\n        /* \"#utility.yul\":29777:29780   */\n      dup3\n        /* \"#utility.yul\":29773:29785   */\n      add\n        /* \"#utility.yul\":29766:29785   */\n      swap1\n      pop\n        /* \"#utility.yul\":29389:29791   */\n      swap2\n      swap1\n      pop\n      jump\t// out\n        /* \"#utility.yul\":29797:30021   */\n    tag_110:\n        /* \"#utility.yul\":29937:29971   */\n      0x54686973206973206465706f73697420616e6420776974686472617720636f6e\n        /* \"#utility.yul\":29933:29934   */\n      0x00\n        /* \"#utility.yul\":29925:29931   */\n      dup3\n        /* \"#utility.yul\":29921:29935   */\n      add\n        /* \"#utility.yul\":29914:29972   */\n      mstore\n        /* \"#utility.yul\":30006:30013   */\n      0x7472616374000000000000000000000000000000000000000000000000000000\n        /* \"#utility.yul\":30001:30003   */\n      0x20\n        /* \"#utility.yul\":29993:29999   */\n      dup3\n        /* \"#utility.yul\":29989:30004   */\n      add\n        /* \"#utility.yul\":29982:30014   */\n      mstore\n        /* \"#utility.yul\":29797:30021   */\n      pop\n      jump\t// out\n        /* \"#utility.yul\":30027:30429   */\n    tag_111:\n        /* \"#utility.yul\":30187:30190   */\n      0x00\n        /* \"#utility.yul\":30208:30293   */\n      tag_373\n        /* \"#utility.yul\":30290:30292   */\n      0x25\n        /* \"#utility.yul\":30285:30288   */\n      dup4\n        /* \"#utility.yul\":30208:30293   */\n      tag_72\n      jump\t// in\n    tag_373:\n        /* \"#utility.yul\":30201:30293   */\n      swap2\n      pop\n        /* \"#utility.yul\":30302:30395   */\n      tag_374\n        /* \"#utility.yul\":30391:30394   */\n      dup3\n        /* \"#utility.yul\":30302:30395   */\n      tag_110\n      jump\t// in\n    tag_374:\n        /* \"#utility.yul\":30420:30422   */\n      0x25\n        /* \"#utility.yul\":30415:30418   */\n      dup3\n        /* \"#utility.yul\":30411:30423   */\n      add\n        /* \"#utility.yul\":30404:30423   */\n      swap1\n      pop\n        /* \"#utility.yul\":30027:30429   */\n      swap2\n      swap1\n      pop\n      jump\t// out\n        /* \"#utility.yul\":30435:30851   */\n    tag_112:\n        /* \"#utility.yul\":30575:30641   */\n      0x3c7465787420783d223530252220793d223430252220636c6173733d22626173\n        /* \"#utility.yul\":30571:30572   */\n      0x00\n        /* \"#utility.yul\":30563:30569   */\n      dup3\n        /* \"#utility.yul\":30559:30573   */\n      add\n        /* \"#utility.yul\":30552:30642   */\n      mstore\n        /* \"#utility.yul\":30676:30742   */\n      0x652220646f6d696e616e742d626173656c696e653d226d6964646c6522207465\n        /* \"#utility.yul\":30671:30673   */\n      0x20\n        /* \"#utility.yul\":30663:30669   */\n      dup3\n        /* \"#utility.yul\":30659:30674   */\n      add\n        /* \"#utility.yul\":30652:30743   */\n      mstore\n        /* \"#utility.yul\":30777:30843   */\n      0x78742d616e63686f723d226d6964646c65223e00000000000000000000000000\n        /* \"#utility.yul\":30772:30774   */\n      0x40\n        /* \"#utility.yul\":30764:30770   */\n      dup3\n        /* \"#utility.yul\":30760:30775   */\n      add\n        /* \"#utility.yul\":30753:30844   */\n      mstore\n        /* \"#utility.yul\":30435:30851   */\n      pop\n      jump\t// out\n        /* \"#utility.yul\":30857:31259   */\n    tag_113:\n        /* \"#utility.yul\":31017:31020   */\n      0x00\n        /* \"#utility.yul\":31038:31123   */\n      tag_377\n        /* \"#utility.yul\":31120:31122   */\n      0x53\n        /* \"#utility.yul\":31115:31118   */\n      dup4\n        /* \"#utility.yul\":31038:31123   */\n      tag_72\n      jump\t// in\n    tag_377:\n        /* \"#utility.yul\":31031:31123   */\n      swap2\n      pop\n        /* \"#utility.yul\":31132:31225   */\n      tag_378\n        /* \"#utility.yul\":31221:31224   */\n      dup3\n        /* \"#utility.yul\":31132:31225   */\n      tag_112\n      jump\t// in\n    tag_378:\n        /* \"#utility.yul\":31250:31252   */\n      0x53\n        /* \"#utility.yul\":31245:31248   */\n      dup3\n        /* \"#utility.yul\":31241:31253   */\n      add\n        /* \"#utility.yul\":31234:31253   */\n      swap1\n      pop\n        /* \"#utility.yul\":30857:31259   */\n      swap2\n      swap1\n      pop\n      jump\t// out\n        /* \"#utility.yul\":31265:31426   */\n    tag_114:\n        /* \"#utility.yul\":31405:31418   */\n      0x4465706f73697465643a20000000000000000000000000000000000000000000\n        /* \"#utility.yul\":31401:31402   */\n      0x00\n        /* \"#utility.yul\":31393:31399   */\n      dup3\n        /* \"#utility.yul\":31389:31403   */\n      add\n        /* \"#utility.yul\":31382:31419   */\n      mstore\n        /* \"#utility.yul\":31265:31426   */\n      pop\n      jump\t// out\n        /* \"#utility.yul\":31432:31834   */\n    tag_115:\n        /* \"#utility.yul\":31592:31595   */\n      0x00\n        /* \"#utility.yul\":31613:31698   */\n      tag_381\n        /* \"#utility.yul\":31695:31697   */\n      0x0b\n        /* \"#utility.yul\":31690:31693   */\n      dup4\n        /* \"#utility.yul\":31613:31698   */\n      tag_72\n      jump\t// in\n    tag_381:\n        /* \"#utility.yul\":31606:31698   */\n      swap2\n      pop\n        /* \"#utility.yul\":31707:31800   */\n      tag_382\n        /* \"#utility.yul\":31796:31799   */\n      dup3\n        /* \"#utility.yul\":31707:31800   */\n      tag_114\n      jump\t// in\n    tag_382:\n        /* \"#utility.yul\":31825:31827   */\n      0x0b\n        /* \"#utility.yul\":31820:31823   */\n      dup3\n        /* \"#utility.yul\":31816:31828   */\n      add\n        /* \"#utility.yul\":31809:31828   */\n      swap1\n      pop\n        /* \"#utility.yul\":31432:31834   */\n      swap2\n      swap1\n      pop\n      jump\t// out\n        /* \"#utility.yul\":31840:32256   */\n    tag_116:\n        /* \"#utility.yul\":31980:32046   */\n      0x3c7465787420783d223530252220793d223435252220636c6173733d22626173\n        /* \"#utility.yul\":31976:31977   */\n      0x00\n        /* \"#utility.yul\":31968:31974   */\n      dup3\n        /* \"#utility.yul\":31964:31978   */\n      add\n        /* \"#utility.yul\":31957:32047   */\n      mstore\n        /* \"#utility.yul\":32081:32147   */\n      0x652220646f6d696e616e742d626173656c696e653d226d6964646c6522207465\n        /* \"#utility.yul\":32076:32078   */\n      0x20\n        /* \"#utility.yul\":32068:32074   */\n      dup3\n        /* \"#utility.yul\":32064:32079   */\n      add\n        /* \"#utility.yul\":32057:32148   */\n      mstore\n        /* \"#utility.yul\":32182:32248   */\n      0x78742d616e63686f723d226d6964646c65223e00000000000000000000000000\n        /* \"#utility.yul\":32177:32179   */\n      0x40\n        /* \"#utility.yul\":32169:32175   */\n      dup3\n        /* \"#utility.yul\":32165:32180   */\n      add\n        /* \"#utility.yul\":32158:32249   */\n      mstore\n        /* \"#utility.yul\":31840:32256   */\n      pop\n      jump\t// out\n        /* \"#utility.yul\":32262:32664   */\n    tag_117:\n        /* \"#utility.yul\":32422:32425   */\n      0x00\n        /* \"#utility.yul\":32443:32528   */\n      tag_385\n        /* \"#utility.yul\":32525:32527   */\n      0x53\n        /* \"#utility.yul\":32520:32523   */\n      dup4\n        /* \"#utility.yul\":32443:32528   */\n      tag_72\n      jump\t// in\n    tag_385:\n        /* \"#utility.yul\":32436:32528   */\n      swap2\n      pop\n        /* \"#utility.yul\":32537:32630   */\n      tag_386\n        /* \"#utility.yul\":32626:32629   */\n      dup3\n        /* \"#utility.yul\":32537:32630   */\n      tag_116\n      jump\t// in\n    tag_386:\n        /* \"#utility.yul\":32655:32657   */\n      0x53\n        /* \"#utility.yul\":32650:32653   */\n      dup3\n        /* \"#utility.yul\":32646:32658   */\n      add\n        /* \"#utility.yul\":32639:32658   */\n      swap1\n      pop\n        /* \"#utility.yul\":32262:32664   */\n      swap2\n      swap1\n      pop\n      jump\t// out\n        /* \"#utility.yul\":32670:32830   */\n    tag_118:\n        /* \"#utility.yul\":32810:32822   */\n      0x4d617475726974793a2000000000000000000000000000000000000000000000\n        /* \"#utility.yul\":32806:32807   */\n      0x00\n        /* \"#utility.yul\":32798:32804   */\n      dup3\n        /* \"#utility.yul\":32794:32808   */\n      add\n        /* \"#utility.yul\":32787:32823   */\n      mstore\n        /* \"#utility.yul\":32670:32830   */\n      pop\n      jump\t// out\n        /* \"#utility.yul\":32836:33238   */\n    tag_119:\n        /* \"#utility.yul\":32996:32999   */\n      0x00\n        /* \"#utility.yul\":33017:33102   */\n      tag_389\n        /* \"#utility.yul\":33099:33101   */\n      0x0a\n        /* \"#utility.yul\":33094:33097   */\n      dup4\n        /* \"#utility.yul\":33017:33102   */\n      tag_72\n      jump\t// in\n    tag_389:\n        /* \"#utility.yul\":33010:33102   */\n      swap2\n      pop\n        /* \"#utility.yul\":33111:33204   */\n      tag_390\n        /* \"#utility.yul\":33200:33203   */\n      dup3\n        /* \"#utility.yul\":33111:33204   */\n      tag_118\n      jump\t// in\n    tag_390:\n        /* \"#utility.yul\":33229:33231   */\n      0x0a\n        /* \"#utility.yul\":33224:33227   */\n      dup3\n        /* \"#utility.yul\":33220:33232   */\n      add\n        /* \"#utility.yul\":33213:33232   */\n      swap1\n      pop\n        /* \"#utility.yul\":32836:33238   */\n      swap2\n      swap1\n      pop\n      jump\t// out\n        /* \"#utility.yul\":33244:33660   */\n    tag_120:\n        /* \"#utility.yul\":33384:33450   */\n      0x3c7465787420783d223530252220793d223530252220636c6173733d22626173\n        /* \"#utility.yul\":33380:33381   */\n      0x00\n        /* \"#utility.yul\":33372:33378   */\n      dup3\n        /* \"#utility.yul\":33368:33382   */\n      add\n        /* \"#utility.yul\":33361:33451   */\n      mstore\n        /* \"#utility.yul\":33485:33551   */\n      0x652220646f6d696e616e742d626173656c696e653d226d6964646c6522207465\n        /* \"#utility.yul\":33480:33482   */\n      0x20\n        /* \"#utility.yul\":33472:33478   */\n      dup3\n        /* \"#utility.yul\":33468:33483   */\n      add\n        /* \"#utility.yul\":33461:33552   */\n      mstore\n        /* \"#utility.yul\":33586:33652   */\n      0x78742d616e63686f723d226d6964646c65223e00000000000000000000000000\n        /* \"#utility.yul\":33581:33583   */\n      0x40\n        /* \"#utility.yul\":33573:33579   */\n      dup3\n        /* \"#utility.yul\":33569:33584   */\n      add\n        /* \"#utility.yul\":33562:33653   */\n      mstore\n        /* \"#utility.yul\":33244:33660   */\n      pop\n      jump\t// out\n        /* \"#utility.yul\":33666:34068   */\n    tag_121:\n        /* \"#utility.yul\":33826:33829   */\n      0x00\n        /* \"#utility.yul\":33847:33932   */\n      tag_393\n        /* \"#utility.yul\":33929:33931   */\n      0x53\n        /* \"#utility.yul\":33924:33927   */\n      dup4\n        /* \"#utility.yul\":33847:33932   */\n      tag_72\n      jump\t// in\n    tag_393:\n        /* \"#utility.yul\":33840:33932   */\n      swap2\n      pop\n        /* \"#utility.yul\":33941:34034   */\n      tag_394\n        /* \"#utility.yul\":34030:34033   */\n      dup3\n        /* \"#utility.yul\":33941:34034   */\n      tag_120\n      jump\t// in\n    tag_394:\n        /* \"#utility.yul\":34059:34061   */\n      0x53\n        /* \"#utility.yul\":34054:34057   */\n      dup3\n        /* \"#utility.yul\":34050:34062   */\n      add\n        /* \"#utility.yul\":34043:34062   */\n      swap1\n      pop\n        /* \"#utility.yul\":33666:34068   */\n      swap2\n      swap1\n      pop\n      jump\t// out\n        /* \"#utility.yul\":34074:34236   */\n    tag_122:\n        /* \"#utility.yul\":34214:34228   */\n      0x50657263656e746167653a200000000000000000000000000000000000000000\n        /* \"#utility.yul\":34210:34211   */\n      0x00\n        /* \"#utility.yul\":34202:34208   */\n      dup3\n        /* \"#utility.yul\":34198:34212   */\n      add\n        /* \"#utility.yul\":34191:34229   */\n      mstore\n        /* \"#utility.yul\":34074:34236   */\n      pop\n      jump\t// out\n        /* \"#utility.yul\":34242:34644   */\n    tag_123:\n        /* \"#utility.yul\":34402:34405   */\n      0x00\n        /* \"#utility.yul\":34423:34508   */\n      tag_397\n        /* \"#utility.yul\":34505:34507   */\n      0x0c\n        /* \"#utility.yul\":34500:34503   */\n      dup4\n        /* \"#utility.yul\":34423:34508   */\n      tag_72\n      jump\t// in\n    tag_397:\n        /* \"#utility.yul\":34416:34508   */\n      swap2\n      pop\n        /* \"#utility.yul\":34517:34610   */\n      tag_398\n        /* \"#utility.yul\":34606:34609   */\n      dup3\n        /* \"#utility.yul\":34517:34610   */\n      tag_122\n      jump\t// in\n    tag_398:\n        /* \"#utility.yul\":34635:34637   */\n      0x0c\n        /* \"#utility.yul\":34630:34633   */\n      dup3\n        /* \"#utility.yul\":34626:34638   */\n      add\n        /* \"#utility.yul\":34619:34638   */\n      swap1\n      pop\n        /* \"#utility.yul\":34242:34644   */\n      swap2\n      swap1\n      pop\n      jump\t// out\n        /* \"#utility.yul\":34650:35066   */\n    tag_124:\n        /* \"#utility.yul\":34790:34856   */\n      0x3c7465787420783d223530252220793d223535252220636c6173733d22626173\n        /* \"#utility.yul\":34786:34787   */\n      0x00\n        /* \"#utility.yul\":34778:34784   */\n      dup3\n        /* \"#utility.yul\":34774:34788   */\n      add\n        /* \"#utility.yul\":34767:34857   */\n      mstore\n        /* \"#utility.yul\":34891:34957   */\n      0x652220646f6d696e616e742d626173656c696e653d226d6964646c6522207465\n        /* \"#utility.yul\":34886:34888   */\n      0x20\n        /* \"#utility.yul\":34878:34884   */\n      dup3\n        /* \"#utility.yul\":34874:34889   */\n      add\n        /* \"#utility.yul\":34867:34958   */\n      mstore\n        /* \"#utility.yul\":34992:35058   */\n      0x78742d616e63686f723d226d6964646c65223e00000000000000000000000000\n        /* \"#utility.yul\":34987:34989   */\n      0x40\n        /* \"#utility.yul\":34979:34985   */\n      dup3\n        /* \"#utility.yul\":34975:34990   */\n      add\n        /* \"#utility.yul\":34968:35059   */\n      mstore\n        /* \"#utility.yul\":34650:35066   */\n      pop\n      jump\t// out\n        /* \"#utility.yul\":35072:35474   */\n    tag_125:\n        /* \"#utility.yul\":35232:35235   */\n      0x00\n        /* \"#utility.yul\":35253:35338   */\n      tag_401\n        /* \"#utility.yul\":35335:35337   */\n      0x53\n        /* \"#utility.yul\":35330:35333   */\n      dup4\n        /* \"#utility.yul\":35253:35338   */\n      tag_72\n      jump\t// in\n    tag_401:\n        /* \"#utility.yul\":35246:35338   */\n      swap2\n      pop\n        /* \"#utility.yul\":35347:35440   */\n      tag_402\n        /* \"#utility.yul\":35436:35439   */\n      dup3\n        /* \"#utility.yul\":35347:35440   */\n      tag_124\n      jump\t// in\n    tag_402:\n        /* \"#utility.yul\":35465:35467   */\n      0x53\n        /* \"#utility.yul\":35460:35463   */\n      dup3\n        /* \"#utility.yul\":35456:35468   */\n      add\n        /* \"#utility.yul\":35449:35468   */\n      swap1\n      pop\n        /* \"#utility.yul\":35072:35474   */\n      swap2\n      swap1\n      pop\n      jump\t// out\n        /* \"#utility.yul\":35480:35652   */\n    tag_126:\n        /* \"#utility.yul\":35620:35644   */\n      0x4552433230436f6e7472616374416464726573733a2000000000000000000000\n        /* \"#utility.yul\":35616:35617   */\n      0x00\n        /* \"#utility.yul\":35608:35614   */\n      dup3\n        /* \"#utility.yul\":35604:35618   */\n      add\n        /* \"#utility.yul\":35597:35645   */\n      mstore\n        /* \"#utility.yul\":35480:35652   */\n      pop\n      jump\t// out\n        /* \"#utility.yul\":35658:36060   */\n    tag_127:\n        /* \"#utility.yul\":35818:35821   */\n      0x00\n        /* \"#utility.yul\":35839:35924   */\n      tag_405\n        /* \"#utility.yul\":35921:35923   */\n      0x16\n        /* \"#utility.yul\":35916:35919   */\n      dup4\n        /* \"#utility.yul\":35839:35924   */\n      tag_72\n      jump\t// in\n    tag_405:\n        /* \"#utility.yul\":35832:35924   */\n      swap2\n      pop\n        /* \"#utility.yul\":35933:36026   */\n      tag_406\n        /* \"#utility.yul\":36022:36025   */\n      dup3\n        /* \"#utility.yul\":35933:36026   */\n      tag_126\n      jump\t// in\n    tag_406:\n        /* \"#utility.yul\":36051:36053   */\n      0x16\n        /* \"#utility.yul\":36046:36049   */\n      dup3\n        /* \"#utility.yul\":36042:36054   */\n      add\n        /* \"#utility.yul\":36035:36054   */\n      swap1\n      pop\n        /* \"#utility.yul\":35658:36060   */\n      swap2\n      swap1\n      pop\n      jump\t// out\n        /* \"#utility.yul\":36066:36482   */\n    tag_128:\n        /* \"#utility.yul\":36206:36272   */\n      0x3c7465787420783d223530252220793d223630252220636c6173733d22626173\n        /* \"#utility.yul\":36202:36203   */\n      0x00\n        /* \"#utility.yul\":36194:36200   */\n      dup3\n        /* \"#utility.yul\":36190:36204   */\n      add\n        /* \"#utility.yul\":36183:36273   */\n      mstore\n        /* \"#utility.yul\":36307:36373   */\n      0x652220646f6d696e616e742d626173656c696e653d226d6964646c6522207465\n        /* \"#utility.yul\":36302:36304   */\n      0x20\n        /* \"#utility.yul\":36294:36300   */\n      dup3\n        /* \"#utility.yul\":36290:36305   */\n      add\n        /* \"#utility.yul\":36283:36374   */\n      mstore\n        /* \"#utility.yul\":36408:36474   */\n      0x78742d616e63686f723d226d6964646c65223e00000000000000000000000000\n        /* \"#utility.yul\":36403:36405   */\n      0x40\n        /* \"#utility.yul\":36395:36401   */\n      dup3\n        /* \"#utility.yul\":36391:36406   */\n      add\n        /* \"#utility.yul\":36384:36475   */\n      mstore\n        /* \"#utility.yul\":36066:36482   */\n      pop\n      jump\t// out\n        /* \"#utility.yul\":36488:36890   */\n    tag_129:\n        /* \"#utility.yul\":36648:36651   */\n      0x00\n        /* \"#utility.yul\":36669:36754   */\n      tag_409\n        /* \"#utility.yul\":36751:36753   */\n      0x53\n        /* \"#utility.yul\":36746:36749   */\n      dup4\n        /* \"#utility.yul\":36669:36754   */\n      tag_72\n      jump\t// in\n    tag_409:\n        /* \"#utility.yul\":36662:36754   */\n      swap2\n      pop\n        /* \"#utility.yul\":36763:36856   */\n      tag_410\n        /* \"#utility.yul\":36852:36855   */\n      dup3\n        /* \"#utility.yul\":36763:36856   */\n      tag_128\n      jump\t// in\n    tag_410:\n        /* \"#utility.yul\":36881:36883   */\n      0x53\n        /* \"#utility.yul\":36876:36879   */\n      dup3\n        /* \"#utility.yul\":36872:36884   */\n      add\n        /* \"#utility.yul\":36865:36884   */\n      swap1\n      pop\n        /* \"#utility.yul\":36488:36890   */\n      swap2\n      swap1\n      pop\n      jump\t// out\n        /* \"#utility.yul\":36896:37066   */\n    tag_130:\n        /* \"#utility.yul\":37036:37058   */\n      0x4e4654436f6e7472616374416464726573733a20000000000000000000000000\n        /* \"#utility.yul\":37032:37033   */\n      0x00\n        /* \"#utility.yul\":37024:37030   */\n      dup3\n        /* \"#utility.yul\":37020:37034   */\n      add\n        /* \"#utility.yul\":37013:37059   */\n      mstore\n        /* \"#utility.yul\":36896:37066   */\n      pop\n      jump\t// out\n        /* \"#utility.yul\":37072:37474   */\n    tag_131:\n        /* \"#utility.yul\":37232:37235   */\n      0x00\n        /* \"#utility.yul\":37253:37338   */\n      tag_413\n        /* \"#utility.yul\":37335:37337   */\n      0x14\n        /* \"#utility.yul\":37330:37333   */\n      dup4\n        /* \"#utility.yul\":37253:37338   */\n      tag_72\n      jump\t// in\n    tag_413:\n        /* \"#utility.yul\":37246:37338   */\n      swap2\n      pop\n        /* \"#utility.yul\":37347:37440   */\n      tag_414\n        /* \"#utility.yul\":37436:37439   */\n      dup3\n        /* \"#utility.yul\":37347:37440   */\n      tag_130\n      jump\t// in\n    tag_414:\n        /* \"#utility.yul\":37465:37467   */\n      0x14\n        /* \"#utility.yul\":37460:37463   */\n      dup3\n        /* \"#utility.yul\":37456:37468   */\n      add\n        /* \"#utility.yul\":37449:37468   */\n      swap1\n      pop\n        /* \"#utility.yul\":37072:37474   */\n      swap2\n      swap1\n      pop\n      jump\t// out\n        /* \"#utility.yul\":37480:37896   */\n    tag_132:\n        /* \"#utility.yul\":37620:37686   */\n      0x3c7465787420783d223530252220793d223635252220636c6173733d22626173\n        /* \"#utility.yul\":37616:37617   */\n      0x00\n        /* \"#utility.yul\":37608:37614   */\n      dup3\n        /* \"#utility.yul\":37604:37618   */\n      add\n        /* \"#utility.yul\":37597:37687   */\n      mstore\n        /* \"#utility.yul\":37721:37787   */\n      0x652220646f6d696e616e742d626173656c696e653d226d6964646c6522207465\n        /* \"#utility.yul\":37716:37718   */\n      0x20\n        /* \"#utility.yul\":37708:37714   */\n      dup3\n        /* \"#utility.yul\":37704:37719   */\n      add\n        /* \"#utility.yul\":37697:37788   */\n      mstore\n        /* \"#utility.yul\":37822:37888   */\n      0x78742d616e63686f723d226d6964646c65223e00000000000000000000000000\n        /* \"#utility.yul\":37817:37819   */\n      0x40\n        /* \"#utility.yul\":37809:37815   */\n      dup3\n        /* \"#utility.yul\":37805:37820   */\n      add\n        /* \"#utility.yul\":37798:37889   */\n      mstore\n        /* \"#utility.yul\":37480:37896   */\n      pop\n      jump\t// out\n        /* \"#utility.yul\":37902:38304   */\n    tag_133:\n        /* \"#utility.yul\":38062:38065   */\n      0x00\n        /* \"#utility.yul\":38083:38168   */\n      tag_417\n        /* \"#utility.yul\":38165:38167   */\n      0x53\n        /* \"#utility.yul\":38160:38163   */\n      dup4\n        /* \"#utility.yul\":38083:38168   */\n      tag_72\n      jump\t// in\n    tag_417:\n        /* \"#utility.yul\":38076:38168   */\n      swap2\n      pop\n        /* \"#utility.yul\":38177:38270   */\n      tag_418\n        /* \"#utility.yul\":38266:38269   */\n      dup3\n        /* \"#utility.yul\":38177:38270   */\n      tag_132\n      jump\t// in\n    tag_418:\n        /* \"#utility.yul\":38295:38297   */\n      0x53\n        /* \"#utility.yul\":38290:38293   */\n      dup3\n        /* \"#utility.yul\":38286:38298   */\n      add\n        /* \"#utility.yul\":38279:38298   */\n      swap1\n      pop\n        /* \"#utility.yul\":37902:38304   */\n      swap2\n      swap1\n      pop\n      jump\t// out\n        /* \"#utility.yul\":38310:38474   */\n    tag_134:\n        /* \"#utility.yul\":38450:38466   */\n      0x436f6e74726163744e616d653a20000000000000000000000000000000000000\n        /* \"#utility.yul\":38446:38447   */\n      0x00\n        /* \"#utility.yul\":38438:38444   */\n      dup3\n        /* \"#utility.yul\":38434:38448   */\n      add\n        /* \"#utility.yul\":38427:38467   */\n      mstore\n        /* \"#utility.yul\":38310:38474   */\n      pop\n      jump\t// out\n        /* \"#utility.yul\":38480:38882   */\n    tag_135:\n        /* \"#utility.yul\":38640:38643   */\n      0x00\n        /* \"#utility.yul\":38661:38746   */\n      tag_421\n        /* \"#utility.yul\":38743:38745   */\n      0x0e\n        /* \"#utility.yul\":38738:38741   */\n      dup4\n        /* \"#utility.yul\":38661:38746   */\n      tag_72\n      jump\t// in\n    tag_421:\n        /* \"#utility.yul\":38654:38746   */\n      swap2\n      pop\n        /* \"#utility.yul\":38755:38848   */\n      tag_422\n        /* \"#utility.yul\":38844:38847   */\n      dup3\n        /* \"#utility.yul\":38755:38848   */\n      tag_134\n      jump\t// in\n    tag_422:\n        /* \"#utility.yul\":38873:38875   */\n      0x0e\n        /* \"#utility.yul\":38868:38871   */\n      dup3\n        /* \"#utility.yul\":38864:38876   */\n      add\n        /* \"#utility.yul\":38857:38876   */\n      swap1\n      pop\n        /* \"#utility.yul\":38480:38882   */\n      swap2\n      swap1\n      pop\n      jump\t// out\n        /* \"#utility.yul\":38888:39304   */\n    tag_136:\n        /* \"#utility.yul\":39028:39094   */\n      0x3c7465787420783d223530252220793d223730252220636c6173733d22626173\n        /* \"#utility.yul\":39024:39025   */\n      0x00\n        /* \"#utility.yul\":39016:39022   */\n      dup3\n        /* \"#utility.yul\":39012:39026   */\n      add\n        /* \"#utility.yul\":39005:39095   */\n      mstore\n        /* \"#utility.yul\":39129:39195   */\n      0x652220646f6d696e616e742d626173656c696e653d226d6964646c6522207465\n        /* \"#utility.yul\":39124:39126   */\n      0x20\n        /* \"#utility.yul\":39116:39122   */\n      dup3\n        /* \"#utility.yul\":39112:39127   */\n      add\n        /* \"#utility.yul\":39105:39196   */\n      mstore\n        /* \"#utility.yul\":39230:39296   */\n      0x78742d616e63686f723d226d6964646c65223e00000000000000000000000000\n        /* \"#utility.yul\":39225:39227   */\n      0x40\n        /* \"#utility.yul\":39217:39223   */\n      dup3\n        /* \"#utility.yul\":39213:39228   */\n      add\n        /* \"#utility.yul\":39206:39297   */\n      mstore\n        /* \"#utility.yul\":38888:39304   */\n      pop\n      jump\t// out\n        /* \"#utility.yul\":39310:39712   */\n    tag_137:\n        /* \"#utility.yul\":39470:39473   */\n      0x00\n        /* \"#utility.yul\":39491:39576   */\n      tag_425\n        /* \"#utility.yul\":39573:39575   */\n      0x53\n        /* \"#utility.yul\":39568:39571   */\n      dup4\n        /* \"#utility.yul\":39491:39576   */\n      tag_72\n      jump\t// in\n    tag_425:\n        /* \"#utility.yul\":39484:39576   */\n      swap2\n      pop\n        /* \"#utility.yul\":39585:39678   */\n      tag_426\n        /* \"#utility.yul\":39674:39677   */\n      dup3\n        /* \"#utility.yul\":39585:39678   */\n      tag_136\n      jump\t// in\n    tag_426:\n        /* \"#utility.yul\":39703:39705   */\n      0x53\n        /* \"#utility.yul\":39698:39701   */\n      dup3\n        /* \"#utility.yul\":39694:39706   */\n      add\n        /* \"#utility.yul\":39687:39706   */\n      swap1\n      pop\n        /* \"#utility.yul\":39310:39712   */\n      swap2\n      swap1\n      pop\n      jump\t// out\n        /* \"#utility.yul\":39718:39884   */\n    tag_138:\n        /* \"#utility.yul\":39858:39876   */\n      0x436f6e747261637453796d626f6c3a2000000000000000000000000000000000\n        /* \"#utility.yul\":39854:39855   */\n      0x00\n        /* \"#utility.yul\":39846:39852   */\n      dup3\n        /* \"#utility.yul\":39842:39856   */\n      add\n        /* \"#utility.yul\":39835:39877   */\n      mstore\n        /* \"#utility.yul\":39718:39884   */\n      pop\n      jump\t// out\n        /* \"#utility.yul\":39890:40292   */\n    tag_139:\n        /* \"#utility.yul\":40050:40053   */\n      0x00\n        /* \"#utility.yul\":40071:40156   */\n      tag_429\n        /* \"#utility.yul\":40153:40155   */\n      0x10\n        /* \"#utility.yul\":40148:40151   */\n      dup4\n        /* \"#utility.yul\":40071:40156   */\n      tag_72\n      jump\t// in\n    tag_429:\n        /* \"#utility.yul\":40064:40156   */\n      swap2\n      pop\n        /* \"#utility.yul\":40165:40258   */\n      tag_430\n        /* \"#utility.yul\":40254:40257   */\n      dup3\n        /* \"#utility.yul\":40165:40258   */\n      tag_138\n      jump\t// in\n    tag_430:\n        /* \"#utility.yul\":40283:40285   */\n      0x10\n        /* \"#utility.yul\":40278:40281   */\n      dup3\n        /* \"#utility.yul\":40274:40286   */\n      add\n        /* \"#utility.yul\":40267:40286   */\n      swap1\n      pop\n        /* \"#utility.yul\":39890:40292   */\n      swap2\n      swap1\n      pop\n      jump\t// out\n        /* \"#utility.yul\":40298:40714   */\n    tag_140:\n        /* \"#utility.yul\":40438:40504   */\n      0x3c7465787420783d223530252220793d223735252220636c6173733d22626173\n        /* \"#utility.yul\":40434:40435   */\n      0x00\n        /* \"#utility.yul\":40426:40432   */\n      dup3\n        /* \"#utility.yul\":40422:40436   */\n      add\n        /* \"#utility.yul\":40415:40505   */\n      mstore\n        /* \"#utility.yul\":40539:40605   */\n      0x652220646f6d696e616e742d626173656c696e653d226d6964646c6522207465\n        /* \"#utility.yul\":40534:40536   */\n      0x20\n        /* \"#utility.yul\":40526:40532   */\n      dup3\n        /* \"#utility.yul\":40522:40537   */\n      add\n        /* \"#utility.yul\":40515:40606   */\n      mstore\n        /* \"#utility.yul\":40640:40706   */\n      0x78742d616e63686f723d226d6964646c65223e00000000000000000000000000\n        /* \"#utility.yul\":40635:40637   */\n      0x40\n        /* \"#utility.yul\":40627:40633   */\n      dup3\n        /* \"#utility.yul\":40623:40638   */\n      add\n        /* \"#utility.yul\":40616:40707   */\n      mstore\n        /* \"#utility.yul\":40298:40714   */\n      pop\n      jump\t// out\n        /* \"#utility.yul\":40720:41122   */\n    tag_141:\n        /* \"#utility.yul\":40880:40883   */\n      0x00\n        /* \"#utility.yul\":40901:40986   */\n      tag_433\n        /* \"#utility.yul\":40983:40985   */\n      0x53\n        /* \"#utility.yul\":40978:40981   */\n      dup4\n        /* \"#utility.yul\":40901:40986   */\n      tag_72\n      jump\t// in\n    tag_433:\n        /* \"#utility.yul\":40894:40986   */\n      swap2\n      pop\n        /* \"#utility.yul\":40995:41088   */\n      tag_434\n        /* \"#utility.yul\":41084:41087   */\n      dup3\n        /* \"#utility.yul\":40995:41088   */\n      tag_140\n      jump\t// in\n    tag_434:\n        /* \"#utility.yul\":41113:41115   */\n      0x53\n        /* \"#utility.yul\":41108:41111   */\n      dup3\n        /* \"#utility.yul\":41104:41116   */\n      add\n        /* \"#utility.yul\":41097:41116   */\n      swap1\n      pop\n        /* \"#utility.yul\":40720:41122   */\n      swap2\n      swap1\n      pop\n      jump\t// out\n        /* \"#utility.yul\":41128:41290   */\n    tag_142:\n        /* \"#utility.yul\":41268:41282   */\n      0x546f74616c436c61696d3a200000000000000000000000000000000000000000\n        /* \"#utility.yul\":41264:41265   */\n      0x00\n        /* \"#utility.yul\":41256:41262   */\n      dup3\n        /* \"#utility.yul\":41252:41266   */\n      add\n        /* \"#utility.yul\":41245:41283   */\n      mstore\n        /* \"#utility.yul\":41128:41290   */\n      pop\n      jump\t// out\n        /* \"#utility.yul\":41296:41698   */\n    tag_143:\n        /* \"#utility.yul\":41456:41459   */\n      0x00\n        /* \"#utility.yul\":41477:41562   */\n      tag_437\n        /* \"#utility.yul\":41559:41561   */\n      0x0c\n        /* \"#utility.yul\":41554:41557   */\n      dup4\n        /* \"#utility.yul\":41477:41562   */\n      tag_72\n      jump\t// in\n    tag_437:\n        /* \"#utility.yul\":41470:41562   */\n      swap2\n      pop\n        /* \"#utility.yul\":41571:41664   */\n      tag_438\n        /* \"#utility.yul\":41660:41663   */\n      dup3\n        /* \"#utility.yul\":41571:41664   */\n      tag_142\n      jump\t// in\n    tag_438:\n        /* \"#utility.yul\":41689:41691   */\n      0x0c\n        /* \"#utility.yul\":41684:41687   */\n      dup3\n        /* \"#utility.yul\":41680:41692   */\n      add\n        /* \"#utility.yul\":41673:41692   */\n      swap1\n      pop\n        /* \"#utility.yul\":41296:41698   */\n      swap2\n      swap1\n      pop\n      jump\t// out\n        /* \"#utility.yul\":41704:41860   */\n    tag_144:\n        /* \"#utility.yul\":41844:41852   */\n      0x3c2f7376673e0000000000000000000000000000000000000000000000000000\n        /* \"#utility.yul\":41840:41841   */\n      0x00\n        /* \"#utility.yul\":41832:41838   */\n      dup3\n        /* \"#utility.yul\":41828:41842   */\n      add\n        /* \"#utility.yul\":41821:41853   */\n      mstore\n        /* \"#utility.yul\":41704:41860   */\n      pop\n      jump\t// out\n        /* \"#utility.yul\":41866:42266   */\n    tag_145:\n        /* \"#utility.yul\":42026:42029   */\n      0x00\n        /* \"#utility.yul\":42047:42131   */\n      tag_441\n        /* \"#utility.yul\":42129:42130   */\n      0x06\n        /* \"#utility.yul\":42124:42127   */\n      dup4\n        /* \"#utility.yul\":42047:42131   */\n      tag_72\n      jump\t// in\n    tag_441:\n        /* \"#utility.yul\":42040:42131   */\n      swap2\n      pop\n        /* \"#utility.yul\":42140:42233   */\n      tag_442\n        /* \"#utility.yul\":42229:42232   */\n      dup3\n        /* \"#utility.yul\":42140:42233   */\n      tag_144\n      jump\t// in\n    tag_442:\n        /* \"#utility.yul\":42258:42259   */\n      0x06\n        /* \"#utility.yul\":42253:42256   */\n      dup3\n        /* \"#utility.yul\":42249:42260   */\n      add\n        /* \"#utility.yul\":42242:42260   */\n      swap1\n      pop\n        /* \"#utility.yul\":41866:42266   */\n      swap2\n      swap1\n      pop\n      jump\t// out\n        /* \"#utility.yul\":42272:52711   */\n    tag_30:\n        /* \"#utility.yul\":46174:46177   */\n      0x00\n        /* \"#utility.yul\":46196:46344   */\n      tag_444\n        /* \"#utility.yul\":46340:46343   */\n      dup3\n        /* \"#utility.yul\":46196:46344   */\n      tag_97\n      jump\t// in\n    tag_444:\n        /* \"#utility.yul\":46189:46344   */\n      swap2\n      pop\n        /* \"#utility.yul\":46361:46509   */\n      tag_445\n        /* \"#utility.yul\":46505:46508   */\n      dup3\n        /* \"#utility.yul\":46361:46509   */\n      tag_99\n      jump\t// in\n    tag_445:\n        /* \"#utility.yul\":46354:46509   */\n      swap2\n      pop\n        /* \"#utility.yul\":46526:46674   */\n      tag_446\n        /* \"#utility.yul\":46670:46673   */\n      dup3\n        /* \"#utility.yul\":46526:46674   */\n      tag_101\n      jump\t// in\n    tag_446:\n        /* \"#utility.yul\":46519:46674   */\n      swap2\n      pop\n        /* \"#utility.yul\":46691:46839   */\n      tag_447\n        /* \"#utility.yul\":46835:46838   */\n      dup3\n        /* \"#utility.yul\":46691:46839   */\n      tag_103\n      jump\t// in\n    tag_447:\n        /* \"#utility.yul\":46684:46839   */\n      swap2\n      pop\n        /* \"#utility.yul\":46856:47004   */\n      tag_448\n        /* \"#utility.yul\":47000:47003   */\n      dup3\n        /* \"#utility.yul\":46856:47004   */\n      tag_105\n      jump\t// in\n    tag_448:\n        /* \"#utility.yul\":46849:47004   */\n      swap2\n      pop\n        /* \"#utility.yul\":47021:47169   */\n      tag_449\n        /* \"#utility.yul\":47165:47168   */\n      dup3\n        /* \"#utility.yul\":47021:47169   */\n      tag_107\n      jump\t// in\n    tag_449:\n        /* \"#utility.yul\":47014:47169   */\n      swap2\n      pop\n        /* \"#utility.yul\":47186:47334   */\n      tag_450\n        /* \"#utility.yul\":47330:47333   */\n      dup3\n        /* \"#utility.yul\":47186:47334   */\n      tag_109\n      jump\t// in\n    tag_450:\n        /* \"#utility.yul\":47179:47334   */\n      swap2\n      pop\n        /* \"#utility.yul\":47351:47499   */\n      tag_451\n        /* \"#utility.yul\":47495:47498   */\n      dup3\n        /* \"#utility.yul\":47351:47499   */\n      tag_111\n      jump\t// in\n    tag_451:\n        /* \"#utility.yul\":47344:47499   */\n      swap2\n      pop\n        /* \"#utility.yul\":47516:47664   */\n      tag_452\n        /* \"#utility.yul\":47660:47663   */\n      dup3\n        /* \"#utility.yul\":47516:47664   */\n      tag_107\n      jump\t// in\n    tag_452:\n        /* \"#utility.yul\":47509:47664   */\n      swap2\n      pop\n        /* \"#utility.yul\":47681:47829   */\n      tag_453\n        /* \"#utility.yul\":47825:47828   */\n      dup3\n        /* \"#utility.yul\":47681:47829   */\n      tag_113\n      jump\t// in\n    tag_453:\n        /* \"#utility.yul\":47674:47829   */\n      swap2\n      pop\n        /* \"#utility.yul\":47846:47994   */\n      tag_454\n        /* \"#utility.yul\":47990:47993   */\n      dup3\n        /* \"#utility.yul\":47846:47994   */\n      tag_115\n      jump\t// in\n    tag_454:\n        /* \"#utility.yul\":47839:47994   */\n      swap2\n      pop\n        /* \"#utility.yul\":48011:48106   */\n      tag_455\n        /* \"#utility.yul\":48102:48105   */\n      dup3\n        /* \"#utility.yul\":48093:48099   */\n      dup12\n        /* \"#utility.yul\":48011:48106   */\n      tag_75\n      jump\t// in\n    tag_455:\n        /* \"#utility.yul\":48004:48106   */\n      swap2\n      pop\n        /* \"#utility.yul\":48123:48271   */\n      tag_456\n        /* \"#utility.yul\":48267:48270   */\n      dup3\n        /* \"#utility.yul\":48123:48271   */\n      tag_107\n      jump\t// in\n    tag_456:\n        /* \"#utility.yul\":48116:48271   */\n      swap2\n      pop\n        /* \"#utility.yul\":48288:48436   */\n      tag_457\n        /* \"#utility.yul\":48432:48435   */\n      dup3\n        /* \"#utility.yul\":48288:48436   */\n      tag_117\n      jump\t// in\n    tag_457:\n        /* \"#utility.yul\":48281:48436   */\n      swap2\n      pop\n        /* \"#utility.yul\":48453:48601   */\n      tag_458\n        /* \"#utility.yul\":48597:48600   */\n      dup3\n        /* \"#utility.yul\":48453:48601   */\n      tag_119\n      jump\t// in\n    tag_458:\n        /* \"#utility.yul\":48446:48601   */\n      swap2\n      pop\n        /* \"#utility.yul\":48618:48713   */\n      tag_459\n        /* \"#utility.yul\":48709:48712   */\n      dup3\n        /* \"#utility.yul\":48700:48706   */\n      dup11\n        /* \"#utility.yul\":48618:48713   */\n      tag_75\n      jump\t// in\n    tag_459:\n        /* \"#utility.yul\":48611:48713   */\n      swap2\n      pop\n        /* \"#utility.yul\":48730:48878   */\n      tag_460\n        /* \"#utility.yul\":48874:48877   */\n      dup3\n        /* \"#utility.yul\":48730:48878   */\n      tag_107\n      jump\t// in\n    tag_460:\n        /* \"#utility.yul\":48723:48878   */\n      swap2\n      pop\n        /* \"#utility.yul\":48895:49043   */\n      tag_461\n        /* \"#utility.yul\":49039:49042   */\n      dup3\n        /* \"#utility.yul\":48895:49043   */\n      tag_121\n      jump\t// in\n    tag_461:\n        /* \"#utility.yul\":48888:49043   */\n      swap2\n      pop\n        /* \"#utility.yul\":49060:49208   */\n      tag_462\n        /* \"#utility.yul\":49204:49207   */\n      dup3\n        /* \"#utility.yul\":49060:49208   */\n      tag_123\n      jump\t// in\n    tag_462:\n        /* \"#utility.yul\":49053:49208   */\n      swap2\n      pop\n        /* \"#utility.yul\":49225:49320   */\n      tag_463\n        /* \"#utility.yul\":49316:49319   */\n      dup3\n        /* \"#utility.yul\":49307:49313   */\n      dup10\n        /* \"#utility.yul\":49225:49320   */\n      tag_75\n      jump\t// in\n    tag_463:\n        /* \"#utility.yul\":49218:49320   */\n      swap2\n      pop\n        /* \"#utility.yul\":49337:49485   */\n      tag_464\n        /* \"#utility.yul\":49481:49484   */\n      dup3\n        /* \"#utility.yul\":49337:49485   */\n      tag_107\n      jump\t// in\n    tag_464:\n        /* \"#utility.yul\":49330:49485   */\n      swap2\n      pop\n        /* \"#utility.yul\":49502:49650   */\n      tag_465\n        /* \"#utility.yul\":49646:49649   */\n      dup3\n        /* \"#utility.yul\":49502:49650   */\n      tag_125\n      jump\t// in\n    tag_465:\n        /* \"#utility.yul\":49495:49650   */\n      swap2\n      pop\n        /* \"#utility.yul\":49667:49815   */\n      tag_466\n        /* \"#utility.yul\":49811:49814   */\n      dup3\n        /* \"#utility.yul\":49667:49815   */\n      tag_127\n      jump\t// in\n    tag_466:\n        /* \"#utility.yul\":49660:49815   */\n      swap2\n      pop\n        /* \"#utility.yul\":49832:49927   */\n      tag_467\n        /* \"#utility.yul\":49923:49926   */\n      dup3\n        /* \"#utility.yul\":49914:49920   */\n      dup9\n        /* \"#utility.yul\":49832:49927   */\n      tag_75\n      jump\t// in\n    tag_467:\n        /* \"#utility.yul\":49825:49927   */\n      swap2\n      pop\n        /* \"#utility.yul\":49944:50092   */\n      tag_468\n        /* \"#utility.yul\":50088:50091   */\n      dup3\n        /* \"#utility.yul\":49944:50092   */\n      tag_107\n      jump\t// in\n    tag_468:\n        /* \"#utility.yul\":49937:50092   */\n      swap2\n      pop\n        /* \"#utility.yul\":50109:50257   */\n      tag_469\n        /* \"#utility.yul\":50253:50256   */\n      dup3\n        /* \"#utility.yul\":50109:50257   */\n      tag_129\n      jump\t// in\n    tag_469:\n        /* \"#utility.yul\":50102:50257   */\n      swap2\n      pop\n        /* \"#utility.yul\":50274:50422   */\n      tag_470\n        /* \"#utility.yul\":50418:50421   */\n      dup3\n        /* \"#utility.yul\":50274:50422   */\n      tag_131\n      jump\t// in\n    tag_470:\n        /* \"#utility.yul\":50267:50422   */\n      swap2\n      pop\n        /* \"#utility.yul\":50439:50534   */\n      tag_471\n        /* \"#utility.yul\":50530:50533   */\n      dup3\n        /* \"#utility.yul\":50521:50527   */\n      dup8\n        /* \"#utility.yul\":50439:50534   */\n      tag_75\n      jump\t// in\n    tag_471:\n        /* \"#utility.yul\":50432:50534   */\n      swap2\n      pop\n        /* \"#utility.yul\":50551:50699   */\n      tag_472\n        /* \"#utility.yul\":50695:50698   */\n      dup3\n        /* \"#utility.yul\":50551:50699   */\n      tag_107\n      jump\t// in\n    tag_472:\n        /* \"#utility.yul\":50544:50699   */\n      swap2\n      pop\n        /* \"#utility.yul\":50716:50864   */\n      tag_473\n        /* \"#utility.yul\":50860:50863   */\n      dup3\n        /* \"#utility.yul\":50716:50864   */\n      tag_133\n      jump\t// in\n    tag_473:\n        /* \"#utility.yul\":50709:50864   */\n      swap2\n      pop\n        /* \"#utility.yul\":50881:51029   */\n      tag_474\n        /* \"#utility.yul\":51025:51028   */\n      dup3\n        /* \"#utility.yul\":50881:51029   */\n      tag_135\n      jump\t// in\n    tag_474:\n        /* \"#utility.yul\":50874:51029   */\n      swap2\n      pop\n        /* \"#utility.yul\":51046:51141   */\n      tag_475\n        /* \"#utility.yul\":51137:51140   */\n      dup3\n        /* \"#utility.yul\":51128:51134   */\n      dup7\n        /* \"#utility.yul\":51046:51141   */\n      tag_75\n      jump\t// in\n    tag_475:\n        /* \"#utility.yul\":51039:51141   */\n      swap2\n      pop\n        /* \"#utility.yul\":51158:51306   */\n      tag_476\n        /* \"#utility.yul\":51302:51305   */\n      dup3\n        /* \"#utility.yul\":51158:51306   */\n      tag_107\n      jump\t// in\n    tag_476:\n        /* \"#utility.yul\":51151:51306   */\n      swap2\n      pop\n        /* \"#utility.yul\":51323:51471   */\n      tag_477\n        /* \"#utility.yul\":51467:51470   */\n      dup3\n        /* \"#utility.yul\":51323:51471   */\n      tag_137\n      jump\t// in\n    tag_477:\n        /* \"#utility.yul\":51316:51471   */\n      swap2\n      pop\n        /* \"#utility.yul\":51488:51636   */\n      tag_478\n        /* \"#utility.yul\":51632:51635   */\n      dup3\n        /* \"#utility.yul\":51488:51636   */\n      tag_139\n      jump\t// in\n    tag_478:\n        /* \"#utility.yul\":51481:51636   */\n      swap2\n      pop\n        /* \"#utility.yul\":51653:51748   */\n      tag_479\n        /* \"#utility.yul\":51744:51747   */\n      dup3\n        /* \"#utility.yul\":51735:51741   */\n      dup6\n        /* \"#utility.yul\":51653:51748   */\n      tag_75\n      jump\t// in\n    tag_479:\n        /* \"#utility.yul\":51646:51748   */\n      swap2\n      pop\n        /* \"#utility.yul\":51765:51913   */\n      tag_480\n        /* \"#utility.yul\":51909:51912   */\n      dup3\n        /* \"#utility.yul\":51765:51913   */\n      tag_107\n      jump\t// in\n    tag_480:\n        /* \"#utility.yul\":51758:51913   */\n      swap2\n      pop\n        /* \"#utility.yul\":51930:52078   */\n      tag_481\n        /* \"#utility.yul\":52074:52077   */\n      dup3\n        /* \"#utility.yul\":51930:52078   */\n      tag_141\n      jump\t// in\n    tag_481:\n        /* \"#utility.yul\":51923:52078   */\n      swap2\n      pop\n        /* \"#utility.yul\":52095:52243   */\n      tag_482\n        /* \"#utility.yul\":52239:52242   */\n      dup3\n        /* \"#utility.yul\":52095:52243   */\n      tag_143\n      jump\t// in\n    tag_482:\n        /* \"#utility.yul\":52088:52243   */\n      swap2\n      pop\n        /* \"#utility.yul\":52260:52355   */\n      tag_483\n        /* \"#utility.yul\":52351:52354   */\n      dup3\n        /* \"#utility.yul\":52342:52348   */\n      dup5\n        /* \"#utility.yul\":52260:52355   */\n      tag_75\n      jump\t// in\n    tag_483:\n        /* \"#utility.yul\":52253:52355   */\n      swap2\n      pop\n        /* \"#utility.yul\":52372:52520   */\n      tag_484\n        /* \"#utility.yul\":52516:52519   */\n      dup3\n        /* \"#utility.yul\":52372:52520   */\n      tag_107\n      jump\t// in\n    tag_484:\n        /* \"#utility.yul\":52365:52520   */\n      swap2\n      pop\n        /* \"#utility.yul\":52537:52685   */\n      tag_485\n        /* \"#utility.yul\":52681:52684   */\n      dup3\n        /* \"#utility.yul\":52537:52685   */\n      tag_145\n      jump\t// in\n    tag_485:\n        /* \"#utility.yul\":52530:52685   */\n      swap2\n      pop\n        /* \"#utility.yul\":52702:52705   */\n      dup2\n        /* \"#utility.yul\":52695:52705   */\n      swap1\n      pop\n        /* \"#utility.yul\":42272:52711   */\n      swap10\n      swap9\n      pop\n      pop\n      pop\n      pop\n      pop\n      pop\n      pop\n      pop\n      pop\n      jump\t// out\n        /* \"#utility.yul\":52717:52893   */\n    tag_146:\n        /* \"#utility.yul\":52857:52885   */\n      0x646174613a696d6167652f7376672b786d6c3b6261736536342c000000000000\n        /* \"#utility.yul\":52853:52854   */\n      0x00\n        /* \"#utility.yul\":52845:52851   */\n      dup3\n        /* \"#utility.yul\":52841:52855   */\n      add\n        /* \"#utility.yul\":52834:52886   */\n      mstore\n        /* \"#utility.yul\":52717:52893   */\n      pop\n      jump\t// out\n        /* \"#utility.yul\":52899:53301   */\n    tag_147:\n        /* \"#utility.yul\":53059:53062   */\n      0x00\n        /* \"#utility.yul\":53080:53165   */\n      tag_488\n        /* \"#utility.yul\":53162:53164   */\n      0x1a\n        /* \"#utility.yul\":53157:53160   */\n      dup4\n        /* \"#utility.yul\":53080:53165   */\n      tag_72\n      jump\t// in\n    tag_488:\n        /* \"#utility.yul\":53073:53165   */\n      swap2\n      pop\n        /* \"#utility.yul\":53174:53267   */\n      tag_489\n        /* \"#utility.yul\":53263:53266   */\n      dup3\n        /* \"#utility.yul\":53174:53267   */\n      tag_146\n      jump\t// in\n    tag_489:\n        /* \"#utility.yul\":53292:53294   */\n      0x1a\n        /* \"#utility.yul\":53287:53290   */\n      dup3\n        /* \"#utility.yul\":53283:53295   */\n      add\n        /* \"#utility.yul\":53276:53295   */\n      swap1\n      pop\n        /* \"#utility.yul\":52899:53301   */\n      swap2\n      swap1\n      pop\n      jump\t// out\n        /* \"#utility.yul\":53307:53848   */\n    tag_33:\n        /* \"#utility.yul\":53540:53543   */\n      0x00\n        /* \"#utility.yul\":53562:53710   */\n      tag_491\n        /* \"#utility.yul\":53706:53709   */\n      dup3\n        /* \"#utility.yul\":53562:53710   */\n      tag_147\n      jump\t// in\n    tag_491:\n        /* \"#utility.yul\":53555:53710   */\n      swap2\n      pop\n        /* \"#utility.yul\":53727:53822   */\n      tag_492\n        /* \"#utility.yul\":53818:53821   */\n      dup3\n        /* \"#utility.yul\":53809:53815   */\n      dup5\n        /* \"#utility.yul\":53727:53822   */\n      tag_75\n      jump\t// in\n    tag_492:\n        /* \"#utility.yul\":53720:53822   */\n      swap2\n      pop\n        /* \"#utility.yul\":53839:53842   */\n      dup2\n        /* \"#utility.yul\":53832:53842   */\n      swap1\n      pop\n        /* \"#utility.yul\":53307:53848   */\n      swap3\n      swap2\n      pop\n      pop\n      jump\t// out\n        /* \"#utility.yul\":53854:53931   */\n    tag_148:\n        /* \"#utility.yul\":53891:53898   */\n      0x00\n        /* \"#utility.yul\":53920:53925   */\n      dup2\n        /* \"#utility.yul\":53909:53925   */\n      swap1\n      pop\n        /* \"#utility.yul\":53854:53931   */\n      swap2\n      swap1\n      pop\n      jump\t// out\n        /* \"#utility.yul\":53937:54117   */\n    tag_149:\n        /* \"#utility.yul\":53985:54062   */\n      0x4e487b7100000000000000000000000000000000000000000000000000000000\n        /* \"#utility.yul\":53982:53983   */\n      0x00\n        /* \"#utility.yul\":53975:54063   */\n      mstore\n        /* \"#utility.yul\":54082:54086   */\n      0x11\n        /* \"#utility.yul\":54079:54080   */\n      0x04\n        /* \"#utility.yul\":54072:54087   */\n      mstore\n        /* \"#utility.yul\":54106:54110   */\n      0x24\n        /* \"#utility.yul\":54103:54104   */\n      0x00\n        /* \"#utility.yul\":54096:54111   */\n      revert\n        /* \"#utility.yul\":54123:54314   */\n    tag_37:\n        /* \"#utility.yul\":54163:54166   */\n      0x00\n        /* \"#utility.yul\":54182:54202   */\n      tag_496\n        /* \"#utility.yul\":54200:54201   */\n      dup3\n        /* \"#utility.yul\":54182:54202   */\n      tag_148\n      jump\t// in\n    tag_496:\n        /* \"#utility.yul\":54177:54202   */\n      swap2\n      pop\n        /* \"#utility.yul\":54216:54236   */\n      tag_497\n        /* \"#utility.yul\":54234:54235   */\n      dup4\n        /* \"#utility.yul\":54216:54236   */\n      tag_148\n      jump\t// in\n    tag_497:\n        /* \"#utility.yul\":54211:54236   */\n      swap3\n      pop\n        /* \"#utility.yul\":54259:54260   */\n      dup3\n        /* \"#utility.yul\":54256:54257   */\n      dup3\n        /* \"#utility.yul\":54252:54261   */\n      add\n        /* \"#utility.yul\":54245:54261   */\n      swap1\n      pop\n        /* \"#utility.yul\":54280:54283   */\n      dup1\n        /* \"#utility.yul\":54277:54278   */\n      dup3\n        /* \"#utility.yul\":54274:54284   */\n      gt\n        /* \"#utility.yul\":54271:54307   */\n      iszero\n      tag_498\n      jumpi\n        /* \"#utility.yul\":54287:54305   */\n      tag_499\n      tag_149\n      jump\t// in\n    tag_499:\n        /* \"#utility.yul\":54271:54307   */\n    tag_498:\n        /* \"#utility.yul\":54123:54314   */\n      swap3\n      swap2\n      pop\n      pop\n      jump\t// out\n        /* \"#utility.yul\":54320:54500   */\n    tag_150:\n        /* \"#utility.yul\":54368:54445   */\n      0x4e487b7100000000000000000000000000000000000000000000000000000000\n        /* \"#utility.yul\":54365:54366   */\n      0x00\n        /* \"#utility.yul\":54358:54446   */\n      mstore\n        /* \"#utility.yul\":54465:54469   */\n      0x12\n        /* \"#utility.yul\":54462:54463   */\n      0x04\n        /* \"#utility.yul\":54455:54470   */\n      mstore\n        /* \"#utility.yul\":54489:54493   */\n      0x24\n        /* \"#utility.yul\":54486:54487   */\n      0x00\n        /* \"#utility.yul\":54479:54494   */\n      revert\n        /* \"#utility.yul\":54506:54691   */\n    tag_39:\n        /* \"#utility.yul\":54546:54547   */\n      0x00\n        /* \"#utility.yul\":54563:54583   */\n      tag_502\n        /* \"#utility.yul\":54581:54582   */\n      dup3\n        /* \"#utility.yul\":54563:54583   */\n      tag_148\n      jump\t// in\n    tag_502:\n        /* \"#utility.yul\":54558:54583   */\n      swap2\n      pop\n        /* \"#utility.yul\":54597:54617   */\n      tag_503\n        /* \"#utility.yul\":54615:54616   */\n      dup4\n        /* \"#utility.yul\":54597:54617   */\n      tag_148\n      jump\t// in\n    tag_503:\n        /* \"#utility.yul\":54592:54617   */\n      swap3\n      pop\n        /* \"#utility.yul\":54636:54637   */\n      dup3\n        /* \"#utility.yul\":54626:54661   */\n      tag_504\n      jumpi\n        /* \"#utility.yul\":54641:54659   */\n      tag_505\n      tag_150\n      jump\t// in\n    tag_505:\n        /* \"#utility.yul\":54626:54661   */\n    tag_504:\n        /* \"#utility.yul\":54683:54684   */\n      dup3\n        /* \"#utility.yul\":54680:54681   */\n      dup3\n        /* \"#utility.yul\":54676:54685   */\n      div\n        /* \"#utility.yul\":54671:54685   */\n      swap1\n      pop\n        /* \"#utility.yul\":54506:54691   */\n      swap3\n      swap2\n      pop\n      pop\n      jump\t// out\n        /* \"#utility.yul\":54697:55107   */\n    tag_41:\n        /* \"#utility.yul\":54737:54744   */\n      0x00\n        /* \"#utility.yul\":54760:54780   */\n      tag_507\n        /* \"#utility.yul\":54778:54779   */\n      dup3\n        /* \"#utility.yul\":54760:54780   */\n      tag_148\n      jump\t// in\n    tag_507:\n        /* \"#utility.yul\":54755:54780   */\n      swap2\n      pop\n        /* \"#utility.yul\":54794:54814   */\n      tag_508\n        /* \"#utility.yul\":54812:54813   */\n      dup4\n        /* \"#utility.yul\":54794:54814   */\n      tag_148\n      jump\t// in\n    tag_508:\n        /* \"#utility.yul\":54789:54814   */\n      swap3\n      pop\n        /* \"#utility.yul\":54849:54850   */\n      dup3\n        /* \"#utility.yul\":54846:54847   */\n      dup3\n        /* \"#utility.yul\":54842:54851   */\n      mul\n        /* \"#utility.yul\":54871:54901   */\n      tag_509\n        /* \"#utility.yul\":54889:54900   */\n      dup2\n        /* \"#utility.yul\":54871:54901   */\n      tag_148\n      jump\t// in\n    tag_509:\n        /* \"#utility.yul\":54860:54901   */\n      swap2\n      pop\n        /* \"#utility.yul\":55050:55051   */\n      dup3\n        /* \"#utility.yul\":55041:55048   */\n      dup3\n        /* \"#utility.yul\":55037:55052   */\n      div\n        /* \"#utility.yul\":55034:55035   */\n      dup5\n        /* \"#utility.yul\":55031:55053   */\n      eq\n        /* \"#utility.yul\":55011:55012   */\n      dup4\n        /* \"#utility.yul\":55004:55013   */\n      iszero\n        /* \"#utility.yul\":54984:55067   */\n      or\n        /* \"#utility.yul\":54961:55100   */\n      tag_510\n      jumpi\n        /* \"#utility.yul\":55080:55098   */\n      tag_511\n      tag_149\n      jump\t// in\n    tag_511:\n        /* \"#utility.yul\":54961:55100   */\n    tag_510:\n        /* \"#utility.yul\":54745:55107   */\n      pop\n        /* \"#utility.yul\":54697:55107   */\n      swap3\n      swap2\n      pop\n      pop\n      jump\t// out\n    stop\n    data_84d8a590de33e00cbdc16e1f28c3506f5ec15c599fab9a6a4bcd575cc2f110ce 4142434445464748494a4b4c4d4e4f505152535455565758595a6162636465666768696a6b6c6d6e6f707172737475767778797a303132333435363738392b2f\n\n    auxdata: 0xa2646970667358221220531d54de8252dda94e4b52ac6a2cf3c8acd63d9cc819d5d0fc7ef2a20073dbdb64736f6c63430008120033\n}\n",
				"bytecode": {
					"linkReferences": {},
					"object": "608060405234801561001057600080fd5b50611efb806100206000396000f3fe608060405234801561001057600080fd5b50600436106100415760003560e01c8063058a6be5146100465780630a7674901461007657806312496a1b146100a6575b600080fd5b610060600480360381019061005b919061049a565b6100d6565b60405161006d91906106df565b60405180910390f35b610090600480360381019061008b9190610701565b61013e565b60405161009d91906106df565b60405180910390f35b6100c060048036038101906100bb9190610938565b6101a9565b6040516100cd91906106df565b60405180910390f35b6060610110828b8b8b8b8b8b8b8b6040516020016100fc99989796959493929190610e57565b6040516020818303038152906040526101a9565b6040516020016101209190610f90565b60405160208183030381529060405290509998505050505050505050565b606060008989898989898989604051602001610161989796959493929190611b20565b604051602081830303815290604052905061017b816101a9565b60405160200161018b9190611d54565b60405160208183030381529060405291505098975050505050505050565b6060600082519050600081036101d1576040518060200160405280600081525091505061033b565b600060036002836101e29190611daf565b6101ec9190611e12565b60046101f89190611e43565b905060006020826102099190611daf565b67ffffffffffffffff8111156102225761022161036f565b5b6040519080825280601f01601f1916602001820160405280156102545781602001600182028036833780820191505090505b5090506000604051806060016040528060408152602001611e86604091399050600181016020830160005b868110156102f85760038101905062ffffff818a015116603f8160121c168401518060081b905060ff603f83600c1c1686015116810190508060081b905060ff603f8360061c1686015116810190508060081b905060ff603f831686015116810190508060e01b9050808452600484019350505061027f565b50600386066001811461031257600281146103225761032d565b613d3d60f01b600283035261032d565b603d60f81b60018303525b508484525050819450505050505b919050565b6000604051905090565b600080fd5b600080fd5b600080fd5b600080fd5b6000601f19601f8301169050919050565b7f4e487b7100000000000000000000000000000000000000000000000000000000600052604160045260246000fd5b6103a78261035e565b810181811067ffffffffffffffff821117156103c6576103c561036f565b5b80604052505050565b60006103d9610340565b90506103e5828261039e565b919050565b600067ffffffffffffffff8211156104055761040461036f565b5b61040e8261035e565b9050602081019050919050565b82818337600083830152505050565b600061043d610438846103ea565b6103cf565b90508281526020810184848401111561045957610458610359565b5b61046484828561041b565b509392505050565b600082601f83011261048157610480610354565b5b813561049184826020860161042a565b91505092915050565b60008060008060008060008060006101208a8c0312156104bd576104bc61034a565b5b60008a013567ffffffffffffffff8111156104db576104da61034f565b5b6104e78c828d0161046c565b99505060208a013567ffffffffffffffff8111156105085761050761034f565b5b6105148c828d0161046c565b98505060408a013567ffffffffffffffff8111156105355761053461034f565b5b6105418c828d0161046c565b97505060608a013567ffffffffffffffff8111156105625761056161034f565b5b61056e8c828d0161046c565b96505060808a013567ffffffffffffffff81111561058f5761058e61034f565b5b61059b8c828d0161046c565b95505060a08a013567ffffffffffffffff8111156105bc576105bb61034f565b5b6105c88c828d0161046c565b94505060c08a013567ffffffffffffffff8111156105e9576105e861034f565b5b6105f58c828d0161046c565b93505060e08a013567ffffffffffffffff8111156106165761061561034f565b5b6106228c828d0161046c565b9250506101008a013567ffffffffffffffff8111156106445761064361034f565b5b6106508c828d0161046c565b9150509295985092959850929598565b600081519050919050565b600082825260208201905092915050565b60005b8381101561069a57808201518184015260208101905061067f565b60008484015250505050565b60006106b182610660565b6106bb818561066b565b93506106cb81856020860161067c565b6106d48161035e565b840191505092915050565b600060208201905081810360008301526106f981846106a6565b905092915050565b600080600080600080600080610100898b0312156107225761072161034a565b5b600089013567ffffffffffffffff8111156107405761073f61034f565b5b61074c8b828c0161046c565b985050602089013567ffffffffffffffff81111561076d5761076c61034f565b5b6107798b828c0161046c565b975050604089013567ffffffffffffffff81111561079a5761079961034f565b5b6107a68b828c0161046c565b965050606089013567ffffffffffffffff8111156107c7576107c661034f565b5b6107d38b828c0161046c565b955050608089013567ffffffffffffffff8111156107f4576107f361034f565b5b6108008b828c0161046c565b94505060a089013567ffffffffffffffff8111156108215761082061034f565b5b61082d8b828c0161046c565b93505060c089013567ffffffffffffffff81111561084e5761084d61034f565b5b61085a8b828c0161046c565b92505060e089013567ffffffffffffffff81111561087b5761087a61034f565b5b6108878b828c0161046c565b9150509295985092959890939650565b600067ffffffffffffffff8211156108b2576108b161036f565b5b6108bb8261035e565b9050602081019050919050565b60006108db6108d684610897565b6103cf565b9050828152602081018484840111156108f7576108f6610359565b5b61090284828561041b565b509392505050565b600082601f83011261091f5761091e610354565b5b813561092f8482602086016108c8565b91505092915050565b60006020828403121561094e5761094d61034a565b5b600082013567ffffffffffffffff81111561096c5761096b61034f565b5b6109788482850161090a565b91505092915050565b600081905092915050565b7f7b226e616d65223a20224d7920436f6e7472616374222c22696d616765223a2060008201527f2200000000000000000000000000000000000000000000000000000000000000602082015250565b60006109e8602183610981565b91506109f38261098c565b602182019050919050565b6000610a0982610660565b610a138185610981565b9350610a2381856020860161067c565b80840191505092915050565b7f22202c226465736372697074696f6e223a202254686973206973206465706f7360008201527f697420616e6420776974686472617720636f6e7472616374222c20226174747260208201527f696275746573223a205b7b202274726169745f74797065223a20226465706f7360408201527f69746564222c2276616c7565223a202200000000000000000000000000000000606082015250565b6000610ad7607083610981565b9150610ae282610a2f565b607082019050919050565b7f227d2c7b2274726169745f74797065223a20226d61747572697479222c22766160008201527f6c7565223a202200000000000000000000000000000000000000000000000000602082015250565b6000610b49602783610981565b9150610b5482610aed565b602782019050919050565b7f227d2c7b2274726169745f74797065223a202270657263656e74616765222c2260008201527f76616c7565223a20220000000000000000000000000000000000000000000000602082015250565b6000610bbb602983610981565b9150610bc682610b5f565b602982019050919050565b7f227d2c7b202274726169745f74797065223a20224552433230436f6e7472616360008201527f7441646472657373222c2276616c7565223a2022000000000000000000000000602082015250565b6000610c2d603483610981565b9150610c3882610bd1565b603482019050919050565b7f227d2c7b2274726169745f74797065223a20224e4654436f6e7472616374416460008201527f6472657373222c2276616c7565223a2022000000000000000000000000000000602082015250565b6000610c9f603183610981565b9150610caa82610c43565b603182019050919050565b7f227d2c7b2274726169745f74797065223a2022436f6e74726163744e616d652260008201527f2c2276616c7565223a2022000000000000000000000000000000000000000000602082015250565b6000610d11602b83610981565b9150610d1c82610cb5565b602b82019050919050565b7f227d2c7b202274726169745f74797065223a2022436f6e747261637453796d6260008201527f6f6c222c2276616c7565223a2022000000000000000000000000000000000000602082015250565b6000610d83602e83610981565b9150610d8e82610d27565b602e82019050919050565b7f227d2c7b2274726169745f74797065223a2022546f74616c436c61696d222c2260008201527f76616c7565223a20220000000000000000000000000000000000000000000000602082015250565b6000610df5602983610981565b9150610e0082610d99565b602982019050919050565b7f227d5d7d00000000000000000000000000000000000000000000000000000000600082015250565b6000610e41600483610981565b9150610e4c82610e0b565b600482019050919050565b6000610e62826109db565b9150610e6e828c6109fe565b9150610e7982610aca565b9150610e85828b6109fe565b9150610e9082610b3c565b9150610e9c828a6109fe565b9150610ea782610bae565b9150610eb382896109fe565b9150610ebe82610c20565b9150610eca82886109fe565b9150610ed582610c92565b9150610ee182876109fe565b9150610eec82610d04565b9150610ef882866109fe565b9150610f0382610d76565b9150610f0f82856109fe565b9150610f1a82610de8565b9150610f2682846109fe565b9150610f3182610e34565b91508190509a9950505050505050505050565b7f646174613a6170706c69636174696f6e2f6a736f6e3b6261736536342c000000600082015250565b6000610f7a601d83610981565b9150610f8582610f44565b601d82019050919050565b6000610f9b82610f6d565b9150610fa782846109fe565b915081905092915050565b7f3c73766720786d6c6e733d22687474703a2f2f7777772e77332e6f72672f323060008201527f30302f73766722207072657365727665417370656374526174696f3d22784d6960208201527f6e594d696e206d656574222076696577426f783d22302030203530302035303060408201527f223e000000000000000000000000000000000000000000000000000000000000606082015250565b600061105a606283610981565b915061106582610fb2565b606282019050919050565b7f3c7374796c653e2e62617365207b2066696c6c3a2077686974653b20666f6e7460008201527f2d66616d696c793a2073657269663b20666f6e742d73697a653a20313470783b60208201527f207d3c2f7374796c653e00000000000000000000000000000000000000000000604082015250565b60006110f2604a83610981565b91506110fd82611070565b604a82019050919050565b7f3c726563742077696474683d223130302522206865696768743d22313030252260008201527f2066696c6c3d22626c756522202f3e0000000000000000000000000000000000602082015250565b6000611164602f83610981565b915061116f82611108565b602f82019050919050565b7f3c7465787420783d223530252220793d223330252220636c6173733d2262617360008201527f652220646f6d696e616e742d626173656c696e653d226d6964646c652220746560208201527f78742d616e63686f723d226d6964646c65223e00000000000000000000000000604082015250565b60006111fc605383610981565b91506112078261117a565b605382019050919050565b7f4d7920436f6e7472616374000000000000000000000000000000000000000000600082015250565b6000611248600b83610981565b915061125382611212565b600b82019050919050565b7f3c2f746578743e00000000000000000000000000000000000000000000000000600082015250565b6000611294600783610981565b915061129f8261125e565b600782019050919050565b7f3c7465787420783d223530252220793d223335252220636c6173733d2262617360008201527f652220646f6d696e616e742d626173656c696e653d226d6964646c652220746560208201527f78742d616e63686f723d226d6964646c65223e00000000000000000000000000604082015250565b600061132c605383610981565b9150611337826112aa565b605382019050919050565b7f54686973206973206465706f73697420616e6420776974686472617720636f6e60008201527f7472616374000000000000000000000000000000000000000000000000000000602082015250565b600061139e602583610981565b91506113a982611342565b602582019050919050565b7f3c7465787420783d223530252220793d223430252220636c6173733d2262617360008201527f652220646f6d696e616e742d626173656c696e653d226d6964646c652220746560208201527f78742d616e63686f723d226d6964646c65223e00000000000000000000000000604082015250565b6000611436605383610981565b9150611441826113b4565b605382019050919050565b7f4465706f73697465643a20000000000000000000000000000000000000000000600082015250565b6000611482600b83610981565b915061148d8261144c565b600b82019050919050565b7f3c7465787420783d223530252220793d223435252220636c6173733d2262617360008201527f652220646f6d696e616e742d626173656c696e653d226d6964646c652220746560208201527f78742d616e63686f723d226d6964646c65223e00000000000000000000000000604082015250565b600061151a605383610981565b915061152582611498565b605382019050919050565b7f4d617475726974793a2000000000000000000000000000000000000000000000600082015250565b6000611566600a83610981565b915061157182611530565b600a82019050919050565b7f3c7465787420783d223530252220793d223530252220636c6173733d2262617360008201527f652220646f6d696e616e742d626173656c696e653d226d6964646c652220746560208201527f78742d616e63686f723d226d6964646c65223e00000000000000000000000000604082015250565b60006115fe605383610981565b91506116098261157c565b605382019050919050565b7f50657263656e746167653a200000000000000000000000000000000000000000600082015250565b600061164a600c83610981565b915061165582611614565b600c82019050919050565b7f3c7465787420783d223530252220793d223535252220636c6173733d2262617360008201527f652220646f6d696e616e742d626173656c696e653d226d6964646c652220746560208201527f78742d616e63686f723d226d6964646c65223e00000000000000000000000000604082015250565b60006116e2605383610981565b91506116ed82611660565b605382019050919050565b7f4552433230436f6e7472616374416464726573733a2000000000000000000000600082015250565b600061172e601683610981565b9150611739826116f8565b601682019050919050565b7f3c7465787420783d223530252220793d223630252220636c6173733d2262617360008201527f652220646f6d696e616e742d626173656c696e653d226d6964646c652220746560208201527f78742d616e63686f723d226d6964646c65223e00000000000000000000000000604082015250565b60006117c6605383610981565b91506117d182611744565b605382019050919050565b7f4e4654436f6e7472616374416464726573733a20000000000000000000000000600082015250565b6000611812601483610981565b915061181d826117dc565b601482019050919050565b7f3c7465787420783d223530252220793d223635252220636c6173733d2262617360008201527f652220646f6d696e616e742d626173656c696e653d226d6964646c652220746560208201527f78742d616e63686f723d226d6964646c65223e00000000000000000000000000604082015250565b60006118aa605383610981565b91506118b582611828565b605382019050919050565b7f436f6e74726163744e616d653a20000000000000000000000000000000000000600082015250565b60006118f6600e83610981565b9150611901826118c0565b600e82019050919050565b7f3c7465787420783d223530252220793d223730252220636c6173733d2262617360008201527f652220646f6d696e616e742d626173656c696e653d226d6964646c652220746560208201527f78742d616e63686f723d226d6964646c65223e00000000000000000000000000604082015250565b600061198e605383610981565b91506119998261190c565b605382019050919050565b7f436f6e747261637453796d626f6c3a2000000000000000000000000000000000600082015250565b60006119da601083610981565b91506119e5826119a4565b601082019050919050565b7f3c7465787420783d223530252220793d223735252220636c6173733d2262617360008201527f652220646f6d696e616e742d626173656c696e653d226d6964646c652220746560208201527f78742d616e63686f723d226d6964646c65223e00000000000000000000000000604082015250565b6000611a72605383610981565b9150611a7d826119f0565b605382019050919050565b7f546f74616c436c61696d3a200000000000000000000000000000000000000000600082015250565b6000611abe600c83610981565b9150611ac982611a88565b600c82019050919050565b7f3c2f7376673e0000000000000000000000000000000000000000000000000000600082015250565b6000611b0a600683610981565b9150611b1582611ad4565b600682019050919050565b6000611b2b8261104d565b9150611b36826110e5565b9150611b4182611157565b9150611b4c826111ef565b9150611b578261123b565b9150611b6282611287565b9150611b6d8261131f565b9150611b7882611391565b9150611b8382611287565b9150611b8e82611429565b9150611b9982611475565b9150611ba5828b6109fe565b9150611bb082611287565b9150611bbb8261150d565b9150611bc682611559565b9150611bd2828a6109fe565b9150611bdd82611287565b9150611be8826115f1565b9150611bf38261163d565b9150611bff82896109fe565b9150611c0a82611287565b9150611c15826116d5565b9150611c2082611721565b9150611c2c82886109fe565b9150611c3782611287565b9150611c42826117b9565b9150611c4d82611805565b9150611c5982876109fe565b9150611c6482611287565b9150611c6f8261189d565b9150611c7a826118e9565b9150611c8682866109fe565b9150611c9182611287565b9150611c9c82611981565b9150611ca7826119cd565b9150611cb382856109fe565b9150611cbe82611287565b9150611cc982611a65565b9150611cd482611ab1565b9150611ce082846109fe565b9150611ceb82611287565b9150611cf682611afd565b91508190509998505050505050505050565b7f646174613a696d6167652f7376672b786d6c3b6261736536342c000000000000600082015250565b6000611d3e601a83610981565b9150611d4982611d08565b601a82019050919050565b6000611d5f82611d31565b9150611d6b82846109fe565b915081905092915050565b6000819050919050565b7f4e487b7100000000000000000000000000000000000000000000000000000000600052601160045260246000fd5b6000611dba82611d76565b9150611dc583611d76565b9250828201905080821115611ddd57611ddc611d80565b5b92915050565b7f4e487b7100000000000000000000000000000000000000000000000000000000600052601260045260246000fd5b6000611e1d82611d76565b9150611e2883611d76565b925082611e3857611e37611de3565b5b828204905092915050565b6000611e4e82611d76565b9150611e5983611d76565b9250828202611e6781611d76565b91508282048414831517611e7e57611e7d611d80565b5b509291505056fe4142434445464748494a4b4c4d4e4f505152535455565758595a6162636465666768696a6b6c6d6e6f707172737475767778797a303132333435363738392b2fa2646970667358221220531d54de8252dda94e4b52ac6a2cf3c8acd63d9cc819d5d0fc7ef2a20073dbdb64736f6c63430008120033",
					"opcodes": "PUSH1 0x80 PUSH1 0x40 MSTORE CALLVALUE DUP1 ISZERO PUSH2 0x10 JUMPI PUSH1 0x0 DUP1 REVERT JUMPDEST POP PUSH2 0x1EFB DUP1 PUSH2 0x20 PUSH1 0x0 CODECOPY PUSH1 0x0 RETURN INVALID PUSH1 0x80 PUSH1 0x40 MSTORE CALLVALUE DUP1 ISZERO PUSH2 0x10 JUMPI PUSH1 0x0 DUP1 REVERT JUMPDEST POP PUSH1 0x4 CALLDATASIZE LT PUSH2 0x41 JUMPI PUSH1 0x0 CALLDATALOAD PUSH1 0xE0 SHR DUP1 PUSH4 0x58A6BE5 EQ PUSH2 0x46 JUMPI DUP1 PUSH4 0xA767490 EQ PUSH2 0x76 JUMPI DUP1 PUSH4 0x12496A1B EQ PUSH2 0xA6 JUMPI JUMPDEST PUSH1 0x0 DUP1 REVERT JUMPDEST PUSH2 0x60 PUSH1 0x4 DUP1 CALLDATASIZE SUB DUP2 ADD SWAP1 PUSH2 0x5B SWAP2 SWAP1 PUSH2 0x49A JUMP JUMPDEST PUSH2 0xD6 JUMP JUMPDEST PUSH1 0x40 MLOAD PUSH2 0x6D SWAP2 SWAP1 PUSH2 0x6DF JUMP JUMPDEST PUSH1 0x40 MLOAD DUP1 SWAP2 SUB SWAP1 RETURN JUMPDEST PUSH2 0x90 PUSH1 0x4 DUP1 CALLDATASIZE SUB DUP2 ADD SWAP1 PUSH2 0x8B SWAP2 SWAP1 PUSH2 0x701 JUMP JUMPDEST PUSH2 0x13E JUMP JUMPDEST PUSH1 0x40 MLOAD PUSH2 0x9D SWAP2 SWAP1 PUSH2 0x6DF JUMP JUMPDEST PUSH1 0x40 MLOAD DUP1 SWAP2 SUB SWAP1 RETURN JUMPDEST PUSH2 0xC0 PUSH1 0x4 DUP1 CALLDATASIZE SUB DUP2 ADD SWAP1 PUSH2 0xBB SWAP2 SWAP1 PUSH2 0x938 JUMP JUMPDEST PUSH2 0x1A9 JUMP JUMPDEST PUSH1 0x40 MLOAD PUSH2 0xCD SWAP2 SWAP1 PUSH2 0x6DF JUMP JUMPDEST PUSH1 0x40 MLOAD DUP1 SWAP2 SUB SWAP1 RETURN JUMPDEST PUSH1 0x60 PUSH2 0x110 DUP3 DUP12 DUP12 DUP12 DUP12 DUP12 DUP12 DUP12 DUP12 PUSH1 0x40 MLOAD PUSH1 0x20 ADD PUSH2 0xFC SWAP10 SWAP9 SWAP8 SWAP7 SWAP6 SWAP5 SWAP4 SWAP3 SWAP2 SWAP1 PUSH2 0xE57 JUMP JUMPDEST PUSH1 0x40 MLOAD PUSH1 0x20 DUP2 DUP4 SUB SUB DUP2 MSTORE SWAP1 PUSH1 0x40 MSTORE PUSH2 0x1A9 JUMP JUMPDEST PUSH1 0x40 MLOAD PUSH1 0x20 ADD PUSH2 0x120 SWAP2 SWAP1 PUSH2 0xF90 JUMP JUMPDEST PUSH1 0x40 MLOAD PUSH1 0x20 DUP2 DUP4 SUB SUB DUP2 MSTORE SWAP1 PUSH1 0x40 MSTORE SWAP1 POP SWAP10 SWAP9 POP POP POP POP POP POP POP POP POP JUMP JUMPDEST PUSH1 0x60 PUSH1 0x0 DUP10 DUP10 DUP10 DUP10 DUP10 DUP10 DUP10 DUP10 PUSH1 0x40 MLOAD PUSH1 0x20 ADD PUSH2 0x161 SWAP9 SWAP8 SWAP7 SWAP6 SWAP5 SWAP4 SWAP3 SWAP2 SWAP1 PUSH2 0x1B20 JUMP JUMPDEST PUSH1 0x40 MLOAD PUSH1 0x20 DUP2 DUP4 SUB SUB DUP2 MSTORE SWAP1 PUSH1 0x40 MSTORE SWAP1 POP PUSH2 0x17B DUP2 PUSH2 0x1A9 JUMP JUMPDEST PUSH1 0x40 MLOAD PUSH1 0x20 ADD PUSH2 0x18B SWAP2 SWAP1 PUSH2 0x1D54 JUMP JUMPDEST PUSH1 0x40 MLOAD PUSH1 0x20 DUP2 DUP4 SUB SUB DUP2 MSTORE SWAP1 PUSH1 0x40 MSTORE SWAP2 POP POP SWAP9 SWAP8 POP POP POP POP POP POP POP POP JUMP JUMPDEST PUSH1 0x60 PUSH1 0x0 DUP3 MLOAD SWAP1 POP PUSH1 0x0 DUP2 SUB PUSH2 0x1D1 JUMPI PUSH1 0x40 MLOAD DUP1 PUSH1 0x20 ADD PUSH1 0x40 MSTORE DUP1 PUSH1 0x0 DUP2 MSTORE POP SWAP2 POP POP PUSH2 0x33B JUMP JUMPDEST PUSH1 0x0 PUSH1 0x3 PUSH1 0x2 DUP4 PUSH2 0x1E2 SWAP2 SWAP1 PUSH2 0x1DAF JUMP JUMPDEST PUSH2 0x1EC SWAP2 SWAP1 PUSH2 0x1E12 JUMP JUMPDEST PUSH1 0x4 PUSH2 0x1F8 SWAP2 SWAP1 PUSH2 0x1E43 JUMP JUMPDEST SWAP1 POP PUSH1 0x0 PUSH1 0x20 DUP3 PUSH2 0x209 SWAP2 SWAP1 PUSH2 0x1DAF JUMP JUMPDEST PUSH8 0xFFFFFFFFFFFFFFFF DUP2 GT ISZERO PUSH2 0x222 JUMPI PUSH2 0x221 PUSH2 0x36F JUMP JUMPDEST JUMPDEST PUSH1 0x40 MLOAD SWAP1 DUP1 DUP3 MSTORE DUP1 PUSH1 0x1F ADD PUSH1 0x1F NOT AND PUSH1 0x20 ADD DUP3 ADD PUSH1 0x40 MSTORE DUP1 ISZERO PUSH2 0x254 JUMPI DUP2 PUSH1 0x20 ADD PUSH1 0x1 DUP3 MUL DUP1 CALLDATASIZE DUP4 CALLDATACOPY DUP1 DUP3 ADD SWAP2 POP POP SWAP1 POP JUMPDEST POP SWAP1 POP PUSH1 0x0 PUSH1 0x40 MLOAD DUP1 PUSH1 0x60 ADD PUSH1 0x40 MSTORE DUP1 PUSH1 0x40 DUP2 MSTORE PUSH1 0x20 ADD PUSH2 0x1E86 PUSH1 0x40 SWAP2 CODECOPY SWAP1 POP PUSH1 0x1 DUP2 ADD PUSH1 0x20 DUP4 ADD PUSH1 0x0 JUMPDEST DUP7 DUP2 LT ISZERO PUSH2 0x2F8 JUMPI PUSH1 0x3 DUP2 ADD SWAP1 POP PUSH3 0xFFFFFF DUP2 DUP11 ADD MLOAD AND PUSH1 0x3F DUP2 PUSH1 0x12 SHR AND DUP5 ADD MLOAD DUP1 PUSH1 0x8 SHL SWAP1 POP PUSH1 0xFF PUSH1 0x3F DUP4 PUSH1 0xC SHR AND DUP7 ADD MLOAD AND DUP2 ADD SWAP1 POP DUP1 PUSH1 0x8 SHL SWAP1 POP PUSH1 0xFF PUSH1 0x3F DUP4 PUSH1 0x6 SHR AND DUP7 ADD MLOAD AND DUP2 ADD SWAP1 POP DUP1 PUSH1 0x8 SHL SWAP1 POP PUSH1 0xFF PUSH1 0x3F DUP4 AND DUP7 ADD MLOAD AND DUP2 ADD SWAP1 POP DUP1 PUSH1 0xE0 SHL SWAP1 POP DUP1 DUP5 MSTORE PUSH1 0x4 DUP5 ADD SWAP4 POP POP POP PUSH2 0x27F JUMP JUMPDEST POP PUSH1 0x3 DUP7 MOD PUSH1 0x1 DUP2 EQ PUSH2 0x312 JUMPI PUSH1 0x2 DUP2 EQ PUSH2 0x322 JUMPI PUSH2 0x32D JUMP JUMPDEST PUSH2 0x3D3D PUSH1 0xF0 SHL PUSH1 0x2 DUP4 SUB MSTORE PUSH2 0x32D JUMP JUMPDEST PUSH1 0x3D PUSH1 0xF8 SHL PUSH1 0x1 DUP4 SUB MSTORE JUMPDEST POP DUP5 DUP5 MSTORE POP POP DUP2 SWAP5 POP POP POP POP POP JUMPDEST SWAP2 SWAP1 POP JUMP JUMPDEST PUSH1 0x0 PUSH1 0x40 MLOAD SWAP1 POP SWAP1 JUMP JUMPDEST PUSH1 0x0 DUP1 REVERT JUMPDEST PUSH1 0x0 DUP1 REVERT JUMPDEST PUSH1 0x0 DUP1 REVERT JUMPDEST PUSH1 0x0 DUP1 REVERT JUMPDEST PUSH1 0x0 PUSH1 0x1F NOT PUSH1 0x1F DUP4 ADD AND SWAP1 POP SWAP2 SWAP1 POP JUMP JUMPDEST PUSH32 0x4E487B7100000000000000000000000000000000000000000000000000000000 PUSH1 0x0 MSTORE PUSH1 0x41 PUSH1 0x4 MSTORE PUSH1 0x24 PUSH1 0x0 REVERT JUMPDEST PUSH2 0x3A7 DUP3 PUSH2 0x35E JUMP JUMPDEST DUP2 ADD DUP2 DUP2 LT PUSH8 0xFFFFFFFFFFFFFFFF DUP3 GT OR ISZERO PUSH2 0x3C6 JUMPI PUSH2 0x3C5 PUSH2 0x36F JUMP JUMPDEST JUMPDEST DUP1 PUSH1 0x40 MSTORE POP POP POP JUMP JUMPDEST PUSH1 0x0 PUSH2 0x3D9 PUSH2 0x340 JUMP JUMPDEST SWAP1 POP PUSH2 0x3E5 DUP3 DUP3 PUSH2 0x39E JUMP JUMPDEST SWAP2 SWAP1 POP JUMP JUMPDEST PUSH1 0x0 PUSH8 0xFFFFFFFFFFFFFFFF DUP3 GT ISZERO PUSH2 0x405 JUMPI PUSH2 0x404 PUSH2 0x36F JUMP JUMPDEST JUMPDEST PUSH2 0x40E DUP3 PUSH2 0x35E JUMP JUMPDEST SWAP1 POP PUSH1 0x20 DUP2 ADD SWAP1 POP SWAP2 SWAP1 POP JUMP JUMPDEST DUP3 DUP2 DUP4 CALLDATACOPY PUSH1 0x0 DUP4 DUP4 ADD MSTORE POP POP POP JUMP JUMPDEST PUSH1 0x0 PUSH2 0x43D PUSH2 0x438 DUP5 PUSH2 0x3EA JUMP JUMPDEST PUSH2 0x3CF JUMP JUMPDEST SWAP1 POP DUP3 DUP2 MSTORE PUSH1 0x20 DUP2 ADD DUP5 DUP5 DUP5 ADD GT ISZERO PUSH2 0x459 JUMPI PUSH2 0x458 PUSH2 0x359 JUMP JUMPDEST JUMPDEST PUSH2 0x464 DUP5 DUP3 DUP6 PUSH2 0x41B JUMP JUMPDEST POP SWAP4 SWAP3 POP POP POP JUMP JUMPDEST PUSH1 0x0 DUP3 PUSH1 0x1F DUP4 ADD SLT PUSH2 0x481 JUMPI PUSH2 0x480 PUSH2 0x354 JUMP JUMPDEST JUMPDEST DUP2 CALLDATALOAD PUSH2 0x491 DUP5 DUP3 PUSH1 0x20 DUP7 ADD PUSH2 0x42A JUMP JUMPDEST SWAP2 POP POP SWAP3 SWAP2 POP POP JUMP JUMPDEST PUSH1 0x0 DUP1 PUSH1 0x0 DUP1 PUSH1 0x0 DUP1 PUSH1 0x0 DUP1 PUSH1 0x0 PUSH2 0x120 DUP11 DUP13 SUB SLT ISZERO PUSH2 0x4BD JUMPI PUSH2 0x4BC PUSH2 0x34A JUMP JUMPDEST JUMPDEST PUSH1 0x0 DUP11 ADD CALLDATALOAD PUSH8 0xFFFFFFFFFFFFFFFF DUP2 GT ISZERO PUSH2 0x4DB JUMPI PUSH2 0x4DA PUSH2 0x34F JUMP JUMPDEST JUMPDEST PUSH2 0x4E7 DUP13 DUP3 DUP14 ADD PUSH2 0x46C JUMP JUMPDEST SWAP10 POP POP PUSH1 0x20 DUP11 ADD CALLDATALOAD PUSH8 0xFFFFFFFFFFFFFFFF DUP2 GT ISZERO PUSH2 0x508 JUMPI PUSH2 0x507 PUSH2 0x34F JUMP JUMPDEST JUMPDEST PUSH2 0x514 DUP13 DUP3 DUP14 ADD PUSH2 0x46C JUMP JUMPDEST SWAP9 POP POP PUSH1 0x40 DUP11 ADD CALLDATALOAD PUSH8 0xFFFFFFFFFFFFFFFF DUP2 GT ISZERO PUSH2 0x535 JUMPI PUSH2 0x534 PUSH2 0x34F JUMP JUMPDEST JUMPDEST PUSH2 0x541 DUP13 DUP3 DUP14 ADD PUSH2 0x46C JUMP JUMPDEST SWAP8 POP POP PUSH1 0x60 DUP11 ADD CALLDATALOAD PUSH8 0xFFFFFFFFFFFFFFFF DUP2 GT ISZERO PUSH2 0x562 JUMPI PUSH2 0x561 PUSH2 0x34F JUMP JUMPDEST JUMPDEST PUSH2 0x56E DUP13 DUP3 DUP14 ADD PUSH2 0x46C JUMP JUMPDEST SWAP7 POP POP PUSH1 0x80 DUP11 ADD CALLDATALOAD PUSH8 0xFFFFFFFFFFFFFFFF DUP2 GT ISZERO PUSH2 0x58F JUMPI PUSH2 0x58E PUSH2 0x34F JUMP JUMPDEST JUMPDEST PUSH2 0x59B DUP13 DUP3 DUP14 ADD PUSH2 0x46C JUMP JUMPDEST SWAP6 POP POP PUSH1 0xA0 DUP11 ADD CALLDATALOAD PUSH8 0xFFFFFFFFFFFFFFFF DUP2 GT ISZERO PUSH2 0x5BC JUMPI PUSH2 0x5BB PUSH2 0x34F JUMP JUMPDEST JUMPDEST PUSH2 0x5C8 DUP13 DUP3 DUP14 ADD PUSH2 0x46C JUMP JUMPDEST SWAP5 POP POP PUSH1 0xC0 DUP11 ADD CALLDATALOAD PUSH8 0xFFFFFFFFFFFFFFFF DUP2 GT ISZERO PUSH2 0x5E9 JUMPI PUSH2 0x5E8 PUSH2 0x34F JUMP JUMPDEST JUMPDEST PUSH2 0x5F5 DUP13 DUP3 DUP14 ADD PUSH2 0x46C JUMP JUMPDEST SWAP4 POP POP PUSH1 0xE0 DUP11 ADD CALLDATALOAD PUSH8 0xFFFFFFFFFFFFFFFF DUP2 GT ISZERO PUSH2 0x616 JUMPI PUSH2 0x615 PUSH2 0x34F JUMP JUMPDEST JUMPDEST PUSH2 0x622 DUP13 DUP3 DUP14 ADD PUSH2 0x46C JUMP JUMPDEST SWAP3 POP POP PUSH2 0x100 DUP11 ADD CALLDATALOAD PUSH8 0xFFFFFFFFFFFFFFFF DUP2 GT ISZERO PUSH2 0x644 JUMPI PUSH2 0x643 PUSH2 0x34F JUMP JUMPDEST JUMPDEST PUSH2 0x650 DUP13 DUP3 DUP14 ADD PUSH2 0x46C JUMP JUMPDEST SWAP2 POP POP SWAP3 SWAP6 SWAP9 POP SWAP3 SWAP6 SWAP9 POP SWAP3 SWAP6 SWAP9 JUMP JUMPDEST PUSH1 0x0 DUP2 MLOAD SWAP1 POP SWAP2 SWAP1 POP JUMP JUMPDEST PUSH1 0x0 DUP3 DUP3 MSTORE PUSH1 0x20 DUP3 ADD SWAP1 POP SWAP3 SWAP2 POP POP JUMP JUMPDEST PUSH1 0x0 JUMPDEST DUP4 DUP2 LT ISZERO PUSH2 0x69A JUMPI DUP1 DUP3 ADD MLOAD DUP2 DUP5 ADD MSTORE PUSH1 0x20 DUP2 ADD SWAP1 POP PUSH2 0x67F JUMP JUMPDEST PUSH1 0x0 DUP5 DUP5 ADD MSTORE POP POP POP POP JUMP JUMPDEST PUSH1 0x0 PUSH2 0x6B1 DUP3 PUSH2 0x660 JUMP JUMPDEST PUSH2 0x6BB DUP2 DUP6 PUSH2 0x66B JUMP JUMPDEST SWAP4 POP PUSH2 0x6CB DUP2 DUP6 PUSH1 0x20 DUP7 ADD PUSH2 0x67C JUMP JUMPDEST PUSH2 0x6D4 DUP2 PUSH2 0x35E JUMP JUMPDEST DUP5 ADD SWAP2 POP POP SWAP3 SWAP2 POP POP JUMP JUMPDEST PUSH1 0x0 PUSH1 0x20 DUP3 ADD SWAP1 POP DUP2 DUP2 SUB PUSH1 0x0 DUP4 ADD MSTORE PUSH2 0x6F9 DUP2 DUP5 PUSH2 0x6A6 JUMP JUMPDEST SWAP1 POP SWAP3 SWAP2 POP POP JUMP JUMPDEST PUSH1 0x0 DUP1 PUSH1 0x0 DUP1 PUSH1 0x0 DUP1 PUSH1 0x0 DUP1 PUSH2 0x100 DUP10 DUP12 SUB SLT ISZERO PUSH2 0x722 JUMPI PUSH2 0x721 PUSH2 0x34A JUMP JUMPDEST JUMPDEST PUSH1 0x0 DUP10 ADD CALLDATALOAD PUSH8 0xFFFFFFFFFFFFFFFF DUP2 GT ISZERO PUSH2 0x740 JUMPI PUSH2 0x73F PUSH2 0x34F JUMP JUMPDEST JUMPDEST PUSH2 0x74C DUP12 DUP3 DUP13 ADD PUSH2 0x46C JUMP JUMPDEST SWAP9 POP POP PUSH1 0x20 DUP10 ADD CALLDATALOAD PUSH8 0xFFFFFFFFFFFFFFFF DUP2 GT ISZERO PUSH2 0x76D JUMPI PUSH2 0x76C PUSH2 0x34F JUMP JUMPDEST JUMPDEST PUSH2 0x779 DUP12 DUP3 DUP13 ADD PUSH2 0x46C JUMP JUMPDEST SWAP8 POP POP PUSH1 0x40 DUP10 ADD CALLDATALOAD PUSH8 0xFFFFFFFFFFFFFFFF DUP2 GT ISZERO PUSH2 0x79A JUMPI PUSH2 0x799 PUSH2 0x34F JUMP JUMPDEST JUMPDEST PUSH2 0x7A6 DUP12 DUP3 DUP13 ADD PUSH2 0x46C JUMP JUMPDEST SWAP7 POP POP PUSH1 0x60 DUP10 ADD CALLDATALOAD PUSH8 0xFFFFFFFFFFFFFFFF DUP2 GT ISZERO PUSH2 0x7C7 JUMPI PUSH2 0x7C6 PUSH2 0x34F JUMP JUMPDEST JUMPDEST PUSH2 0x7D3 DUP12 DUP3 DUP13 ADD PUSH2 0x46C JUMP JUMPDEST SWAP6 POP POP PUSH1 0x80 DUP10 ADD CALLDATALOAD PUSH8 0xFFFFFFFFFFFFFFFF DUP2 GT ISZERO PUSH2 0x7F4 JUMPI PUSH2 0x7F3 PUSH2 0x34F JUMP JUMPDEST JUMPDEST PUSH2 0x800 DUP12 DUP3 DUP13 ADD PUSH2 0x46C JUMP JUMPDEST SWAP5 POP POP PUSH1 0xA0 DUP10 ADD CALLDATALOAD PUSH8 0xFFFFFFFFFFFFFFFF DUP2 GT ISZERO PUSH2 0x821 JUMPI PUSH2 0x820 PUSH2 0x34F JUMP JUMPDEST JUMPDEST PUSH2 0x82D DUP12 DUP3 DUP13 ADD PUSH2 0x46C JUMP JUMPDEST SWAP4 POP POP PUSH1 0xC0 DUP10 ADD CALLDATALOAD PUSH8 0xFFFFFFFFFFFFFFFF DUP2 GT ISZERO PUSH2 0x84E JUMPI PUSH2 0x84D PUSH2 0x34F JUMP JUMPDEST JUMPDEST PUSH2 0x85A DUP12 DUP3 DUP13 ADD PUSH2 0x46C JUMP JUMPDEST SWAP3 POP POP PUSH1 0xE0 DUP10 ADD CALLDATALOAD PUSH8 0xFFFFFFFFFFFFFFFF DUP2 GT ISZERO PUSH2 0x87B JUMPI PUSH2 0x87A PUSH2 0x34F JUMP JUMPDEST JUMPDEST PUSH2 0x887 DUP12 DUP3 DUP13 ADD PUSH2 0x46C JUMP JUMPDEST SWAP2 POP POP SWAP3 SWAP6 SWAP9 POP SWAP3 SWAP6 SWAP9 SWAP1 SWAP4 SWAP7 POP JUMP JUMPDEST PUSH1 0x0 PUSH8 0xFFFFFFFFFFFFFFFF DUP3 GT ISZERO PUSH2 0x8B2 JUMPI PUSH2 0x8B1 PUSH2 0x36F JUMP JUMPDEST JUMPDEST PUSH2 0x8BB DUP3 PUSH2 0x35E JUMP JUMPDEST SWAP1 POP PUSH1 0x20 DUP2 ADD SWAP1 POP SWAP2 SWAP1 POP JUMP JUMPDEST PUSH1 0x0 PUSH2 0x8DB PUSH2 0x8D6 DUP5 PUSH2 0x897 JUMP JUMPDEST PUSH2 0x3CF JUMP JUMPDEST SWAP1 POP DUP3 DUP2 MSTORE PUSH1 0x20 DUP2 ADD DUP5 DUP5 DUP5 ADD GT ISZERO PUSH2 0x8F7 JUMPI PUSH2 0x8F6 PUSH2 0x359 JUMP JUMPDEST JUMPDEST PUSH2 0x902 DUP5 DUP3 DUP6 PUSH2 0x41B JUMP JUMPDEST POP SWAP4 SWAP3 POP POP POP JUMP JUMPDEST PUSH1 0x0 DUP3 PUSH1 0x1F DUP4 ADD SLT PUSH2 0x91F JUMPI PUSH2 0x91E PUSH2 0x354 JUMP JUMPDEST JUMPDEST DUP2 CALLDATALOAD PUSH2 0x92F DUP5 DUP3 PUSH1 0x20 DUP7 ADD PUSH2 0x8C8 JUMP JUMPDEST SWAP2 POP POP SWAP3 SWAP2 POP POP JUMP JUMPDEST PUSH1 0x0 PUSH1 0x20 DUP3 DUP5 SUB SLT ISZERO PUSH2 0x94E JUMPI PUSH2 0x94D PUSH2 0x34A JUMP JUMPDEST JUMPDEST PUSH1 0x0 DUP3 ADD CALLDATALOAD PUSH8 0xFFFFFFFFFFFFFFFF DUP2 GT ISZERO PUSH2 0x96C JUMPI PUSH2 0x96B PUSH2 0x34F JUMP JUMPDEST JUMPDEST PUSH2 0x978 DUP5 DUP3 DUP6 ADD PUSH2 0x90A JUMP JUMPDEST SWAP2 POP POP SWAP3 SWAP2 POP POP JUMP JUMPDEST PUSH1 0x0 DUP2 SWAP1 POP SWAP3 SWAP2 POP POP JUMP JUMPDEST PUSH32 0x7B226E616D65223A20224D7920436F6E7472616374222C22696D616765223A20 PUSH1 0x0 DUP3 ADD MSTORE PUSH32 0x2200000000000000000000000000000000000000000000000000000000000000 PUSH1 0x20 DUP3 ADD MSTORE POP JUMP JUMPDEST PUSH1 0x0 PUSH2 0x9E8 PUSH1 0x21 DUP4 PUSH2 0x981 JUMP JUMPDEST SWAP2 POP PUSH2 0x9F3 DUP3 PUSH2 0x98C JUMP JUMPDEST PUSH1 0x21 DUP3 ADD SWAP1 POP SWAP2 SWAP1 POP JUMP JUMPDEST PUSH1 0x0 PUSH2 0xA09 DUP3 PUSH2 0x660 JUMP JUMPDEST PUSH2 0xA13 DUP2 DUP6 PUSH2 0x981 JUMP JUMPDEST SWAP4 POP PUSH2 0xA23 DUP2 DUP6 PUSH1 0x20 DUP7 ADD PUSH2 0x67C JUMP JUMPDEST DUP1 DUP5 ADD SWAP2 POP POP SWAP3 SWAP2 POP POP JUMP JUMPDEST PUSH32 0x22202C226465736372697074696F6E223A202254686973206973206465706F73 PUSH1 0x0 DUP3 ADD MSTORE PUSH32 0x697420616E6420776974686472617720636F6E7472616374222C202261747472 PUSH1 0x20 DUP3 ADD MSTORE PUSH32 0x696275746573223A205B7B202274726169745F74797065223A20226465706F73 PUSH1 0x40 DUP3 ADD MSTORE PUSH32 0x69746564222C2276616C7565223A202200000000000000000000000000000000 PUSH1 0x60 DUP3 ADD MSTORE POP JUMP JUMPDEST PUSH1 0x0 PUSH2 0xAD7 PUSH1 0x70 DUP4 PUSH2 0x981 JUMP JUMPDEST SWAP2 POP PUSH2 0xAE2 DUP3 PUSH2 0xA2F JUMP JUMPDEST PUSH1 0x70 DUP3 ADD SWAP1 POP SWAP2 SWAP1 POP JUMP JUMPDEST PUSH32 0x227D2C7B2274726169745F74797065223A20226D61747572697479222C227661 PUSH1 0x0 DUP3 ADD MSTORE PUSH32 0x6C7565223A202200000000000000000000000000000000000000000000000000 PUSH1 0x20 DUP3 ADD MSTORE POP JUMP JUMPDEST PUSH1 0x0 PUSH2 0xB49 PUSH1 0x27 DUP4 PUSH2 0x981 JUMP JUMPDEST SWAP2 POP PUSH2 0xB54 DUP3 PUSH2 0xAED JUMP JUMPDEST PUSH1 0x27 DUP3 ADD SWAP1 POP SWAP2 SWAP1 POP JUMP JUMPDEST PUSH32 0x227D2C7B2274726169745F74797065223A202270657263656E74616765222C22 PUSH1 0x0 DUP3 ADD MSTORE PUSH32 0x76616C7565223A20220000000000000000000000000000000000000000000000 PUSH1 0x20 DUP3 ADD MSTORE POP JUMP JUMPDEST PUSH1 0x0 PUSH2 0xBBB PUSH1 0x29 DUP4 PUSH2 0x981 JUMP JUMPDEST SWAP2 POP PUSH2 0xBC6 DUP3 PUSH2 0xB5F JUMP JUMPDEST PUSH1 0x29 DUP3 ADD SWAP1 POP SWAP2 SWAP1 POP JUMP JUMPDEST PUSH32 0x227D2C7B202274726169745F74797065223A20224552433230436F6E74726163 PUSH1 0x0 DUP3 ADD MSTORE PUSH32 0x7441646472657373222C2276616C7565223A2022000000000000000000000000 PUSH1 0x20 DUP3 ADD MSTORE POP JUMP JUMPDEST PUSH1 0x0 PUSH2 0xC2D PUSH1 0x34 DUP4 PUSH2 0x981 JUMP JUMPDEST SWAP2 POP PUSH2 0xC38 DUP3 PUSH2 0xBD1 JUMP JUMPDEST PUSH1 0x34 DUP3 ADD SWAP1 POP SWAP2 SWAP1 POP JUMP JUMPDEST PUSH32 0x227D2C7B2274726169745F74797065223A20224E4654436F6E74726163744164 PUSH1 0x0 DUP3 ADD MSTORE PUSH32 0x6472657373222C2276616C7565223A2022000000000000000000000000000000 PUSH1 0x20 DUP3 ADD MSTORE POP JUMP JUMPDEST PUSH1 0x0 PUSH2 0xC9F PUSH1 0x31 DUP4 PUSH2 0x981 JUMP JUMPDEST SWAP2 POP PUSH2 0xCAA DUP3 PUSH2 0xC43 JUMP JUMPDEST PUSH1 0x31 DUP3 ADD SWAP1 POP SWAP2 SWAP1 POP JUMP JUMPDEST PUSH32 0x227D2C7B2274726169745F74797065223A2022436F6E74726163744E616D6522 PUSH1 0x0 DUP3 ADD MSTORE PUSH32 0x2C2276616C7565223A2022000000000000000000000000000000000000000000 PUSH1 0x20 DUP3 ADD MSTORE POP JUMP JUMPDEST PUSH1 0x0 PUSH2 0xD11 PUSH1 0x2B DUP4 PUSH2 0x981 JUMP JUMPDEST SWAP2 POP PUSH2 0xD1C DUP3 PUSH2 0xCB5 JUMP JUMPDEST PUSH1 0x2B DUP3 ADD SWAP1 POP SWAP2 SWAP1 POP JUMP JUMPDEST PUSH32 0x227D2C7B202274726169745F74797065223A2022436F6E747261637453796D62 PUSH1 0x0 DUP3 ADD MSTORE PUSH32 0x6F6C222C2276616C7565223A2022000000000000000000000000000000000000 PUSH1 0x20 DUP3 ADD MSTORE POP JUMP JUMPDEST PUSH1 0x0 PUSH2 0xD83 PUSH1 0x2E DUP4 PUSH2 0x981 JUMP JUMPDEST SWAP2 POP PUSH2 0xD8E DUP3 PUSH2 0xD27 JUMP JUMPDEST PUSH1 0x2E DUP3 ADD SWAP1 POP SWAP2 SWAP1 POP JUMP JUMPDEST PUSH32 0x227D2C7B2274726169745F74797065223A2022546F74616C436C61696D222C22 PUSH1 0x0 DUP3 ADD MSTORE PUSH32 0x76616C7565223A20220000000000000000000000000000000000000000000000 PUSH1 0x20 DUP3 ADD MSTORE POP JUMP JUMPDEST PUSH1 0x0 PUSH2 0xDF5 PUSH1 0x29 DUP4 PUSH2 0x981 JUMP JUMPDEST SWAP2 POP PUSH2 0xE00 DUP3 PUSH2 0xD99 JUMP JUMPDEST PUSH1 0x29 DUP3 ADD SWAP1 POP SWAP2 SWAP1 POP JUMP JUMPDEST PUSH32 0x227D5D7D00000000000000000000000000000000000000000000000000000000 PUSH1 0x0 DUP3 ADD MSTORE POP JUMP JUMPDEST PUSH1 0x0 PUSH2 0xE41 PUSH1 0x4 DUP4 PUSH2 0x981 JUMP JUMPDEST SWAP2 POP PUSH2 0xE4C DUP3 PUSH2 0xE0B JUMP JUMPDEST PUSH1 0x4 DUP3 ADD SWAP1 POP SWAP2 SWAP1 POP JUMP JUMPDEST PUSH1 0x0 PUSH2 0xE62 DUP3 PUSH2 0x9DB JUMP JUMPDEST SWAP2 POP PUSH2 0xE6E DUP3 DUP13 PUSH2 0x9FE JUMP JUMPDEST SWAP2 POP PUSH2 0xE79 DUP3 PUSH2 0xACA JUMP JUMPDEST SWAP2 POP PUSH2 0xE85 DUP3 DUP12 PUSH2 0x9FE JUMP JUMPDEST SWAP2 POP PUSH2 0xE90 DUP3 PUSH2 0xB3C JUMP JUMPDEST SWAP2 POP PUSH2 0xE9C DUP3 DUP11 PUSH2 0x9FE JUMP JUMPDEST SWAP2 POP PUSH2 0xEA7 DUP3 PUSH2 0xBAE JUMP JUMPDEST SWAP2 POP PUSH2 0xEB3 DUP3 DUP10 PUSH2 0x9FE JUMP JUMPDEST SWAP2 POP PUSH2 0xEBE DUP3 PUSH2 0xC20 JUMP JUMPDEST SWAP2 POP PUSH2 0xECA DUP3 DUP9 PUSH2 0x9FE JUMP JUMPDEST SWAP2 POP PUSH2 0xED5 DUP3 PUSH2 0xC92 JUMP JUMPDEST SWAP2 POP PUSH2 0xEE1 DUP3 DUP8 PUSH2 0x9FE JUMP JUMPDEST SWAP2 POP PUSH2 0xEEC DUP3 PUSH2 0xD04 JUMP JUMPDEST SWAP2 POP PUSH2 0xEF8 DUP3 DUP7 PUSH2 0x9FE JUMP JUMPDEST SWAP2 POP PUSH2 0xF03 DUP3 PUSH2 0xD76 JUMP JUMPDEST SWAP2 POP PUSH2 0xF0F DUP3 DUP6 PUSH2 0x9FE JUMP JUMPDEST SWAP2 POP PUSH2 0xF1A DUP3 PUSH2 0xDE8 JUMP JUMPDEST SWAP2 POP PUSH2 0xF26 DUP3 DUP5 PUSH2 0x9FE JUMP JUMPDEST SWAP2 POP PUSH2 0xF31 DUP3 PUSH2 0xE34 JUMP JUMPDEST SWAP2 POP DUP2 SWAP1 POP SWAP11 SWAP10 POP POP POP POP POP POP POP POP POP POP JUMP JUMPDEST PUSH32 0x646174613A6170706C69636174696F6E2F6A736F6E3B6261736536342C000000 PUSH1 0x0 DUP3 ADD MSTORE POP JUMP JUMPDEST PUSH1 0x0 PUSH2 0xF7A PUSH1 0x1D DUP4 PUSH2 0x981 JUMP JUMPDEST SWAP2 POP PUSH2 0xF85 DUP3 PUSH2 0xF44 JUMP JUMPDEST PUSH1 0x1D DUP3 ADD SWAP1 POP SWAP2 SWAP1 POP JUMP JUMPDEST PUSH1 0x0 PUSH2 0xF9B DUP3 PUSH2 0xF6D JUMP JUMPDEST SWAP2 POP PUSH2 0xFA7 DUP3 DUP5 PUSH2 0x9FE JUMP JUMPDEST SWAP2 POP DUP2 SWAP1 POP SWAP3 SWAP2 POP POP JUMP JUMPDEST PUSH32 0x3C73766720786D6C6E733D22687474703A2F2F7777772E77332E6F72672F3230 PUSH1 0x0 DUP3 ADD MSTORE PUSH32 0x30302F73766722207072657365727665417370656374526174696F3D22784D69 PUSH1 0x20 DUP3 ADD MSTORE PUSH32 0x6E594D696E206D656574222076696577426F783D223020302035303020353030 PUSH1 0x40 DUP3 ADD MSTORE PUSH32 0x223E000000000000000000000000000000000000000000000000000000000000 PUSH1 0x60 DUP3 ADD MSTORE POP JUMP JUMPDEST PUSH1 0x0 PUSH2 0x105A PUSH1 0x62 DUP4 PUSH2 0x981 JUMP JUMPDEST SWAP2 POP PUSH2 0x1065 DUP3 PUSH2 0xFB2 JUMP JUMPDEST PUSH1 0x62 DUP3 ADD SWAP1 POP SWAP2 SWAP1 POP JUMP JUMPDEST PUSH32 0x3C7374796C653E2E62617365207B2066696C6C3A2077686974653B20666F6E74 PUSH1 0x0 DUP3 ADD MSTORE PUSH32 0x2D66616D696C793A2073657269663B20666F6E742D73697A653A20313470783B PUSH1 0x20 DUP3 ADD MSTORE PUSH32 0x207D3C2F7374796C653E00000000000000000000000000000000000000000000 PUSH1 0x40 DUP3 ADD MSTORE POP JUMP JUMPDEST PUSH1 0x0 PUSH2 0x10F2 PUSH1 0x4A DUP4 PUSH2 0x981 JUMP JUMPDEST SWAP2 POP PUSH2 0x10FD DUP3 PUSH2 0x1070 JUMP JUMPDEST PUSH1 0x4A DUP3 ADD SWAP1 POP SWAP2 SWAP1 POP JUMP JUMPDEST PUSH32 0x3C726563742077696474683D223130302522206865696768743D223130302522 PUSH1 0x0 DUP3 ADD MSTORE PUSH32 0x2066696C6C3D22626C756522202F3E0000000000000000000000000000000000 PUSH1 0x20 DUP3 ADD MSTORE POP JUMP JUMPDEST PUSH1 0x0 PUSH2 0x1164 PUSH1 0x2F DUP4 PUSH2 0x981 JUMP JUMPDEST SWAP2 POP PUSH2 0x116F DUP3 PUSH2 0x1108 JUMP JUMPDEST PUSH1 0x2F DUP3 ADD SWAP1 POP SWAP2 SWAP1 POP JUMP JUMPDEST PUSH32 0x3C7465787420783D223530252220793D223330252220636C6173733D22626173 PUSH1 0x0 DUP3 ADD MSTORE PUSH32 0x652220646F6D696E616E742D626173656C696E653D226D6964646C6522207465 PUSH1 0x20 DUP3 ADD MSTORE PUSH32 0x78742D616E63686F723D226D6964646C65223E00000000000000000000000000 PUSH1 0x40 DUP3 ADD MSTORE POP JUMP JUMPDEST PUSH1 0x0 PUSH2 0x11FC PUSH1 0x53 DUP4 PUSH2 0x981 JUMP JUMPDEST SWAP2 POP PUSH2 0x1207 DUP3 PUSH2 0x117A JUMP JUMPDEST PUSH1 0x53 DUP3 ADD SWAP1 POP SWAP2 SWAP1 POP JUMP JUMPDEST PUSH32 0x4D7920436F6E7472616374000000000000000000000000000000000000000000 PUSH1 0x0 DUP3 ADD MSTORE POP JUMP JUMPDEST PUSH1 0x0 PUSH2 0x1248 PUSH1 0xB DUP4 PUSH2 0x981 JUMP JUMPDEST SWAP2 POP PUSH2 0x1253 DUP3 PUSH2 0x1212 JUMP JUMPDEST PUSH1 0xB DUP3 ADD SWAP1 POP SWAP2 SWAP1 POP JUMP JUMPDEST PUSH32 0x3C2F746578743E00000000000000000000000000000000000000000000000000 PUSH1 0x0 DUP3 ADD MSTORE POP JUMP JUMPDEST PUSH1 0x0 PUSH2 0x1294 PUSH1 0x7 DUP4 PUSH2 0x981 JUMP JUMPDEST SWAP2 POP PUSH2 0x129F DUP3 PUSH2 0x125E JUMP JUMPDEST PUSH1 0x7 DUP3 ADD SWAP1 POP SWAP2 SWAP1 POP JUMP JUMPDEST PUSH32 0x3C7465787420783D223530252220793D223335252220636C6173733D22626173 PUSH1 0x0 DUP3 ADD MSTORE PUSH32 0x652220646F6D696E616E742D626173656C696E653D226D6964646C6522207465 PUSH1 0x20 DUP3 ADD MSTORE PUSH32 0x78742D616E63686F723D226D6964646C65223E00000000000000000000000000 PUSH1 0x40 DUP3 ADD MSTORE POP JUMP JUMPDEST PUSH1 0x0 PUSH2 0x132C PUSH1 0x53 DUP4 PUSH2 0x981 JUMP JUMPDEST SWAP2 POP PUSH2 0x1337 DUP3 PUSH2 0x12AA JUMP JUMPDEST PUSH1 0x53 DUP3 ADD SWAP1 POP SWAP2 SWAP1 POP JUMP JUMPDEST PUSH32 0x54686973206973206465706F73697420616E6420776974686472617720636F6E PUSH1 0x0 DUP3 ADD MSTORE PUSH32 0x7472616374000000000000000000000000000000000000000000000000000000 PUSH1 0x20 DUP3 ADD MSTORE POP JUMP JUMPDEST PUSH1 0x0 PUSH2 0x139E PUSH1 0x25 DUP4 PUSH2 0x981 JUMP JUMPDEST SWAP2 POP PUSH2 0x13A9 DUP3 PUSH2 0x1342 JUMP JUMPDEST PUSH1 0x25 DUP3 ADD SWAP1 POP SWAP2 SWAP1 POP JUMP JUMPDEST PUSH32 0x3C7465787420783D223530252220793D223430252220636C6173733D22626173 PUSH1 0x0 DUP3 ADD MSTORE PUSH32 0x652220646F6D696E616E742D626173656C696E653D226D6964646C6522207465 PUSH1 0x20 DUP3 ADD MSTORE PUSH32 0x78742D616E63686F723D226D6964646C65223E00000000000000000000000000 PUSH1 0x40 DUP3 ADD MSTORE POP JUMP JUMPDEST PUSH1 0x0 PUSH2 0x1436 PUSH1 0x53 DUP4 PUSH2 0x981 JUMP JUMPDEST SWAP2 POP PUSH2 0x1441 DUP3 PUSH2 0x13B4 JUMP JUMPDEST PUSH1 0x53 DUP3 ADD SWAP1 POP SWAP2 SWAP1 POP JUMP JUMPDEST PUSH32 0x4465706F73697465643A20000000000000000000000000000000000000000000 PUSH1 0x0 DUP3 ADD MSTORE POP JUMP JUMPDEST PUSH1 0x0 PUSH2 0x1482 PUSH1 0xB DUP4 PUSH2 0x981 JUMP JUMPDEST SWAP2 POP PUSH2 0x148D DUP3 PUSH2 0x144C JUMP JUMPDEST PUSH1 0xB DUP3 ADD SWAP1 POP SWAP2 SWAP1 POP JUMP JUMPDEST PUSH32 0x3C7465787420783D223530252220793D223435252220636C6173733D22626173 PUSH1 0x0 DUP3 ADD MSTORE PUSH32 0x652220646F6D696E616E742D626173656C696E653D226D6964646C6522207465 PUSH1 0x20 DUP3 ADD MSTORE PUSH32 0x78742D616E63686F723D226D6964646C65223E00000000000000000000000000 PUSH1 0x40 DUP3 ADD MSTORE POP JUMP JUMPDEST PUSH1 0x0 PUSH2 0x151A PUSH1 0x53 DUP4 PUSH2 0x981 JUMP JUMPDEST SWAP2 POP PUSH2 0x1525 DUP3 PUSH2 0x1498 JUMP JUMPDEST PUSH1 0x53 DUP3 ADD SWAP1 POP SWAP2 SWAP1 POP JUMP JUMPDEST PUSH32 0x4D617475726974793A2000000000000000000000000000000000000000000000 PUSH1 0x0 DUP3 ADD MSTORE POP JUMP JUMPDEST PUSH1 0x0 PUSH2 0x1566 PUSH1 0xA DUP4 PUSH2 0x981 JUMP JUMPDEST SWAP2 POP PUSH2 0x1571 DUP3 PUSH2 0x1530 JUMP JUMPDEST PUSH1 0xA DUP3 ADD SWAP1 POP SWAP2 SWAP1 POP JUMP JUMPDEST PUSH32 0x3C7465787420783D223530252220793D223530252220636C6173733D22626173 PUSH1 0x0 DUP3 ADD MSTORE PUSH32 0x652220646F6D696E616E742D626173656C696E653D226D6964646C6522207465 PUSH1 0x20 DUP3 ADD MSTORE PUSH32 0x78742D616E63686F723D226D6964646C65223E00000000000000000000000000 PUSH1 0x40 DUP3 ADD MSTORE POP JUMP JUMPDEST PUSH1 0x0 PUSH2 0x15FE PUSH1 0x53 DUP4 PUSH2 0x981 JUMP JUMPDEST SWAP2 POP PUSH2 0x1609 DUP3 PUSH2 0x157C JUMP JUMPDEST PUSH1 0x53 DUP3 ADD SWAP1 POP SWAP2 SWAP1 POP JUMP JUMPDEST PUSH32 0x50657263656E746167653A200000000000000000000000000000000000000000 PUSH1 0x0 DUP3 ADD MSTORE POP JUMP JUMPDEST PUSH1 0x0 PUSH2 0x164A PUSH1 0xC DUP4 PUSH2 0x981 JUMP JUMPDEST SWAP2 POP PUSH2 0x1655 DUP3 PUSH2 0x1614 JUMP JUMPDEST PUSH1 0xC DUP3 ADD SWAP1 POP SWAP2 SWAP1 POP JUMP JUMPDEST PUSH32 0x3C7465787420783D223530252220793D223535252220636C6173733D22626173 PUSH1 0x0 DUP3 ADD MSTORE PUSH32 0x652220646F6D696E616E742D626173656C696E653D226D6964646C6522207465 PUSH1 0x20 DUP3 ADD MSTORE PUSH32 0x78742D616E63686F723D226D6964646C65223E00000000000000000000000000 PUSH1 0x40 DUP3 ADD MSTORE POP JUMP JUMPDEST PUSH1 0x0 PUSH2 0x16E2 PUSH1 0x53 DUP4 PUSH2 0x981 JUMP JUMPDEST SWAP2 POP PUSH2 0x16ED DUP3 PUSH2 0x1660 JUMP JUMPDEST PUSH1 0x53 DUP3 ADD SWAP1 POP SWAP2 SWAP1 POP JUMP JUMPDEST PUSH32 0x4552433230436F6E7472616374416464726573733A2000000000000000000000 PUSH1 0x0 DUP3 ADD MSTORE POP JUMP JUMPDEST PUSH1 0x0 PUSH2 0x172E PUSH1 0x16 DUP4 PUSH2 0x981 JUMP JUMPDEST SWAP2 POP PUSH2 0x1739 DUP3 PUSH2 0x16F8 JUMP JUMPDEST PUSH1 0x16 DUP3 ADD SWAP1 POP SWAP2 SWAP1 POP JUMP JUMPDEST PUSH32 0x3C7465787420783D223530252220793D223630252220636C6173733D22626173 PUSH1 0x0 DUP3 ADD MSTORE PUSH32 0x652220646F6D696E616E742D626173656C696E653D226D6964646C6522207465 PUSH1 0x20 DUP3 ADD MSTORE PUSH32 0x78742D616E63686F723D226D6964646C65223E00000000000000000000000000 PUSH1 0x40 DUP3 ADD MSTORE POP JUMP JUMPDEST PUSH1 0x0 PUSH2 0x17C6 PUSH1 0x53 DUP4 PUSH2 0x981 JUMP JUMPDEST SWAP2 POP PUSH2 0x17D1 DUP3 PUSH2 0x1744 JUMP JUMPDEST PUSH1 0x53 DUP3 ADD SWAP1 POP SWAP2 SWAP1 POP JUMP JUMPDEST PUSH32 0x4E4654436F6E7472616374416464726573733A20000000000000000000000000 PUSH1 0x0 DUP3 ADD MSTORE POP JUMP JUMPDEST PUSH1 0x0 PUSH2 0x1812 PUSH1 0x14 DUP4 PUSH2 0x981 JUMP JUMPDEST SWAP2 POP PUSH2 0x181D DUP3 PUSH2 0x17DC JUMP JUMPDEST PUSH1 0x14 DUP3 ADD SWAP1 POP SWAP2 SWAP1 POP JUMP JUMPDEST PUSH32 0x3C7465787420783D223530252220793D223635252220636C6173733D22626173 PUSH1 0x0 DUP3 ADD MSTORE PUSH32 0x652220646F6D696E616E742D626173656C696E653D226D6964646C6522207465 PUSH1 0x20 DUP3 ADD MSTORE PUSH32 0x78742D616E63686F723D226D6964646C65223E00000000000000000000000000 PUSH1 0x40 DUP3 ADD MSTORE POP JUMP JUMPDEST PUSH1 0x0 PUSH2 0x18AA PUSH1 0x53 DUP4 PUSH2 0x981 JUMP JUMPDEST SWAP2 POP PUSH2 0x18B5 DUP3 PUSH2 0x1828 JUMP JUMPDEST PUSH1 0x53 DUP3 ADD SWAP1 POP SWAP2 SWAP1 POP JUMP JUMPDEST PUSH32 0x436F6E74726163744E616D653A20000000000000000000000000000000000000 PUSH1 0x0 DUP3 ADD MSTORE POP JUMP JUMPDEST PUSH1 0x0 PUSH2 0x18F6 PUSH1 0xE DUP4 PUSH2 0x981 JUMP JUMPDEST SWAP2 POP PUSH2 0x1901 DUP3 PUSH2 0x18C0 JUMP JUMPDEST PUSH1 0xE DUP3 ADD SWAP1 POP SWAP2 SWAP1 POP JUMP JUMPDEST PUSH32 0x3C7465787420783D223530252220793D223730252220636C6173733D22626173 PUSH1 0x0 DUP3 ADD MSTORE PUSH32 0x652220646F6D696E616E742D626173656C696E653D226D6964646C6522207465 PUSH1 0x20 DUP3 ADD MSTORE PUSH32 0x78742D616E63686F723D226D6964646C65223E00000000000000000000000000 PUSH1 0x40 DUP3 ADD MSTORE POP JUMP JUMPDEST PUSH1 0x0 PUSH2 0x198E PUSH1 0x53 DUP4 PUSH2 0x981 JUMP JUMPDEST SWAP2 POP PUSH2 0x1999 DUP3 PUSH2 0x190C JUMP JUMPDEST PUSH1 0x53 DUP3 ADD SWAP1 POP SWAP2 SWAP1 POP JUMP JUMPDEST PUSH32 0x436F6E747261637453796D626F6C3A2000000000000000000000000000000000 PUSH1 0x0 DUP3 ADD MSTORE POP JUMP JUMPDEST PUSH1 0x0 PUSH2 0x19DA PUSH1 0x10 DUP4 PUSH2 0x981 JUMP JUMPDEST SWAP2 POP PUSH2 0x19E5 DUP3 PUSH2 0x19A4 JUMP JUMPDEST PUSH1 0x10 DUP3 ADD SWAP1 POP SWAP2 SWAP1 POP JUMP JUMPDEST PUSH32 0x3C7465787420783D223530252220793D223735252220636C6173733D22626173 PUSH1 0x0 DUP3 ADD MSTORE PUSH32 0x652220646F6D696E616E742D626173656C696E653D226D6964646C6522207465 PUSH1 0x20 DUP3 ADD MSTORE PUSH32 0x78742D616E63686F723D226D6964646C65223E00000000000000000000000000 PUSH1 0x40 DUP3 ADD MSTORE POP JUMP JUMPDEST PUSH1 0x0 PUSH2 0x1A72 PUSH1 0x53 DUP4 PUSH2 0x981 JUMP JUMPDEST SWAP2 POP PUSH2 0x1A7D DUP3 PUSH2 0x19F0 JUMP JUMPDEST PUSH1 0x53 DUP3 ADD SWAP1 POP SWAP2 SWAP1 POP JUMP JUMPDEST PUSH32 0x546F74616C436C61696D3A200000000000000000000000000000000000000000 PUSH1 0x0 DUP3 ADD MSTORE POP JUMP JUMPDEST PUSH1 0x0 PUSH2 0x1ABE PUSH1 0xC DUP4 PUSH2 0x981 JUMP JUMPDEST SWAP2 POP PUSH2 0x1AC9 DUP3 PUSH2 0x1A88 JUMP JUMPDEST PUSH1 0xC DUP3 ADD SWAP1 POP SWAP2 SWAP1 POP JUMP JUMPDEST PUSH32 0x3C2F7376673E0000000000000000000000000000000000000000000000000000 PUSH1 0x0 DUP3 ADD MSTORE POP JUMP JUMPDEST PUSH1 0x0 PUSH2 0x1B0A PUSH1 0x6 DUP4 PUSH2 0x981 JUMP JUMPDEST SWAP2 POP PUSH2 0x1B15 DUP3 PUSH2 0x1AD4 JUMP JUMPDEST PUSH1 0x6 DUP3 ADD SWAP1 POP SWAP2 SWAP1 POP JUMP JUMPDEST PUSH1 0x0 PUSH2 0x1B2B DUP3 PUSH2 0x104D JUMP JUMPDEST SWAP2 POP PUSH2 0x1B36 DUP3 PUSH2 0x10E5 JUMP JUMPDEST SWAP2 POP PUSH2 0x1B41 DUP3 PUSH2 0x1157 JUMP JUMPDEST SWAP2 POP PUSH2 0x1B4C DUP3 PUSH2 0x11EF JUMP JUMPDEST SWAP2 POP PUSH2 0x1B57 DUP3 PUSH2 0x123B JUMP JUMPDEST SWAP2 POP PUSH2 0x1B62 DUP3 PUSH2 0x1287 JUMP JUMPDEST SWAP2 POP PUSH2 0x1B6D DUP3 PUSH2 0x131F JUMP JUMPDEST SWAP2 POP PUSH2 0x1B78 DUP3 PUSH2 0x1391 JUMP JUMPDEST SWAP2 POP PUSH2 0x1B83 DUP3 PUSH2 0x1287 JUMP JUMPDEST SWAP2 POP PUSH2 0x1B8E DUP3 PUSH2 0x1429 JUMP JUMPDEST SWAP2 POP PUSH2 0x1B99 DUP3 PUSH2 0x1475 JUMP JUMPDEST SWAP2 POP PUSH2 0x1BA5 DUP3 DUP12 PUSH2 0x9FE JUMP JUMPDEST SWAP2 POP PUSH2 0x1BB0 DUP3 PUSH2 0x1287 JUMP JUMPDEST SWAP2 POP PUSH2 0x1BBB DUP3 PUSH2 0x150D JUMP JUMPDEST SWAP2 POP PUSH2 0x1BC6 DUP3 PUSH2 0x1559 JUMP JUMPDEST SWAP2 POP PUSH2 0x1BD2 DUP3 DUP11 PUSH2 0x9FE JUMP JUMPDEST SWAP2 POP PUSH2 0x1BDD DUP3 PUSH2 0x1287 JUMP JUMPDEST SWAP2 POP PUSH2 0x1BE8 DUP3 PUSH2 0x15F1 JUMP JUMPDEST SWAP2 POP PUSH2 0x1BF3 DUP3 PUSH2 0x163D JUMP JUMPDEST SWAP2 POP PUSH2 0x1BFF DUP3 DUP10 PUSH2 0x9FE JUMP JUMPDEST SWAP2 POP PUSH2 0x1C0A DUP3 PUSH2 0x1287 JUMP JUMPDEST SWAP2 POP PUSH2 0x1C15 DUP3 PUSH2 0x16D5 JUMP JUMPDEST SWAP2 POP PUSH2 0x1C20 DUP3 PUSH2 0x1721 JUMP JUMPDEST SWAP2 POP PUSH2 0x1C2C DUP3 DUP9 PUSH2 0x9FE JUMP JUMPDEST SWAP2 POP PUSH2 0x1C37 DUP3 PUSH2 0x1287 JUMP JUMPDEST SWAP2 POP PUSH2 0x1C42 DUP3 PUSH2 0x17B9 JUMP JUMPDEST SWAP2 POP PUSH2 0x1C4D DUP3 PUSH2 0x1805 JUMP JUMPDEST SWAP2 POP PUSH2 0x1C59 DUP3 DUP8 PUSH2 0x9FE JUMP JUMPDEST SWAP2 POP PUSH2 0x1C64 DUP3 PUSH2 0x1287 JUMP JUMPDEST SWAP2 POP PUSH2 0x1C6F DUP3 PUSH2 0x189D JUMP JUMPDEST SWAP2 POP PUSH2 0x1C7A DUP3 PUSH2 0x18E9 JUMP JUMPDEST SWAP2 POP PUSH2 0x1C86 DUP3 DUP7 PUSH2 0x9FE JUMP JUMPDEST SWAP2 POP PUSH2 0x1C91 DUP3 PUSH2 0x1287 JUMP JUMPDEST SWAP2 POP PUSH2 0x1C9C DUP3 PUSH2 0x1981 JUMP JUMPDEST SWAP2 POP PUSH2 0x1CA7 DUP3 PUSH2 0x19CD JUMP JUMPDEST SWAP2 POP PUSH2 0x1CB3 DUP3 DUP6 PUSH2 0x9FE JUMP JUMPDEST SWAP2 POP PUSH2 0x1CBE DUP3 PUSH2 0x1287 JUMP JUMPDEST SWAP2 POP PUSH2 0x1CC9 DUP3 PUSH2 0x1A65 JUMP JUMPDEST SWAP2 POP PUSH2 0x1CD4 DUP3 PUSH2 0x1AB1 JUMP JUMPDEST SWAP2 POP PUSH2 0x1CE0 DUP3 DUP5 PUSH2 0x9FE JUMP JUMPDEST SWAP2 POP PUSH2 0x1CEB DUP3 PUSH2 0x1287 JUMP JUMPDEST SWAP2 POP PUSH2 0x1CF6 DUP3 PUSH2 0x1AFD JUMP JUMPDEST SWAP2 POP DUP2 SWAP1 POP SWAP10 SWAP9 POP POP POP POP POP POP POP POP POP JUMP JUMPDEST PUSH32 0x646174613A696D6167652F7376672B786D6C3B6261736536342C000000000000 PUSH1 0x0 DUP3 ADD MSTORE POP JUMP JUMPDEST PUSH1 0x0 PUSH2 0x1D3E PUSH1 0x1A DUP4 PUSH2 0x981 JUMP JUMPDEST SWAP2 POP PUSH2 0x1D49 DUP3 PUSH2 0x1D08 JUMP JUMPDEST PUSH1 0x1A DUP3 ADD SWAP1 POP SWAP2 SWAP1 POP JUMP JUMPDEST PUSH1 0x0 PUSH2 0x1D5F DUP3 PUSH2 0x1D31 JUMP JUMPDEST SWAP2 POP PUSH2 0x1D6B DUP3 DUP5 PUSH2 0x9FE JUMP JUMPDEST SWAP2 POP DUP2 SWAP1 POP SWAP3 SWAP2 POP POP JUMP JUMPDEST PUSH1 0x0 DUP2 SWAP1 POP SWAP2 SWAP1 POP JUMP JUMPDEST PUSH32 0x4E487B7100000000000000000000000000000000000000000000000000000000 PUSH1 0x0 MSTORE PUSH1 0x11 PUSH1 0x4 MSTORE PUSH1 0x24 PUSH1 0x0 REVERT JUMPDEST PUSH1 0x0 PUSH2 0x1DBA DUP3 PUSH2 0x1D76 JUMP JUMPDEST SWAP2 POP PUSH2 0x1DC5 DUP4 PUSH2 0x1D76 JUMP JUMPDEST SWAP3 POP DUP3 DUP3 ADD SWAP1 POP DUP1 DUP3 GT ISZERO PUSH2 0x1DDD JUMPI PUSH2 0x1DDC PUSH2 0x1D80 JUMP JUMPDEST JUMPDEST SWAP3 SWAP2 POP POP JUMP JUMPDEST PUSH32 0x4E487B7100000000000000000000000000000000000000000000000000000000 PUSH1 0x0 MSTORE PUSH1 0x12 PUSH1 0x4 MSTORE PUSH1 0x24 PUSH1 0x0 REVERT JUMPDEST PUSH1 0x0 PUSH2 0x1E1D DUP3 PUSH2 0x1D76 JUMP JUMPDEST SWAP2 POP PUSH2 0x1E28 DUP4 PUSH2 0x1D76 JUMP JUMPDEST SWAP3 POP DUP3 PUSH2 0x1E38 JUMPI PUSH2 0x1E37 PUSH2 0x1DE3 JUMP JUMPDEST JUMPDEST DUP3 DUP3 DIV SWAP1 POP SWAP3 SWAP2 POP POP JUMP JUMPDEST PUSH1 0x0 PUSH2 0x1E4E DUP3 PUSH2 0x1D76 JUMP JUMPDEST SWAP2 POP PUSH2 0x1E59 DUP4 PUSH2 0x1D76 JUMP JUMPDEST SWAP3 POP DUP3 DUP3 MUL PUSH2 0x1E67 DUP2 PUSH2 0x1D76 JUMP JUMPDEST SWAP2 POP DUP3 DUP3 DIV DUP5 EQ DUP4 ISZERO OR PUSH2 0x1E7E JUMPI PUSH2 0x1E7D PUSH2 0x1D80 JUMP JUMPDEST JUMPDEST POP SWAP3 SWAP2 POP POP JUMP INVALID COINBASE TIMESTAMP NUMBER PREVRANDAO GASLIMIT CHAINID SELFBALANCE BASEFEE 0x49 0x4A 0x4B 0x4C 0x4D 0x4E 0x4F POP MLOAD MSTORE MSTORE8 SLOAD SSTORE JUMP JUMPI PC MSIZE GAS PUSH2 0x6263 PUSH5 0x6566676869 PUSH11 0x6B6C6D6E6F707172737475 PUSH23 0x7778797A303132333435363738392B2FA2646970667358 0x22 SLT KECCAK256 MSTORE8 SAR SLOAD 0xDE DUP3 MSTORE 0xDD 0xA9 0x4E 0x4B MSTORE 0xAC PUSH11 0x2CF3C8ACD63D9CC819D5D0 0xFC PUSH31 0xF2A20073DBDB64736F6C634300081200330000000000000000000000000000 "
				},
				"gasEstimates": {
					"creation": {
						"codeDepositCost": "1586200",
						"executionCost": "1659",
						"totalCost": "1587859"
					},
					"external": {
						"GetImageUrl(string,string,string,string,string,string,string,string)": "infinite",
						"GetUrl(string,string,string,string,string,string,string,string,string)": "infinite",
						"encode(bytes)": "infinite"
					}
				},
				"methodIdentifiers": {
					"GetImageUrl(string,string,string,string,string,string,string,string)": "0a767490",
					"GetUrl(string,string,string,string,string,string,string,string,string)": "058a6be5",
					"encode(bytes)": "12496a1b"
				}
			},
			"storageLayout": {
				"storage": [],
				"types": null
			},
			"userdoc": {
				"kind": "user",
				"methods": {
					"encode(bytes)": {
						"notice": "Encodes some bytes to the base64 representation"
					}
				},
				"notice": "[MIT License]Provides a function for encoding some bytes in base64",
				"version": 1
			}
		}
	}
}