{
	"contracts/Token&NFTStaking/Contract.sol": {
		"ERC20Stakeable": {
			"abi": [
				{
					"inputs": [
						{
							"internalType": "address",
							"name": "_ERC721address",
							"type": "address"
						},
						{
							"internalType": "uint256",
							"name": "_ratePersentage",
							"type": "uint256"
						},
						{
							"internalType": "address",
							"name": "_ERC20Address",
							"type": "address"
						}
					],
					"stateMutability": "nonpayable",
					"type": "constructor"
				},
				{
					"anonymous": false,
					"inputs": [
						{
							"indexed": true,
							"internalType": "address",
							"name": "previousOwner",
							"type": "address"
						},
						{
							"indexed": true,
							"internalType": "address",
							"name": "newOwner",
							"type": "address"
						}
					],
					"name": "OwnershipTransferred",
					"type": "event"
				},
				{
					"inputs": [
						{
							"internalType": "uint256",
							"name": "_amount",
							"type": "uint256"
						}
					],
					"name": "AdminAddToken",
					"outputs": [],
					"stateMutability": "nonpayable",
					"type": "function"
				},
				{
					"inputs": [
						{
							"internalType": "uint256",
							"name": "amount",
							"type": "uint256"
						}
					],
					"name": "AdminWithDrawToken",
					"outputs": [],
					"stateMutability": "nonpayable",
					"type": "function"
				},
				{
					"inputs": [
						{
							"internalType": "uint256",
							"name": "_amount",
							"type": "uint256"
						}
					],
					"name": "Deposit",
					"outputs": [],
					"stateMutability": "nonpayable",
					"type": "function"
				},
				{
					"inputs": [
						{
							"internalType": "uint256",
							"name": "tokenIds",
							"type": "uint256"
						},
						{
							"internalType": "uint256",
							"name": "_rate",
							"type": "uint256"
						}
					],
					"name": "DepositNFT",
					"outputs": [],
					"stateMutability": "nonpayable",
					"type": "function"
				},
				{
					"inputs": [
						{
							"internalType": "address",
							"name": "",
							"type": "address"
						}
					],
					"name": "Details",
					"outputs": [
						{
							"internalType": "uint256",
							"name": "deposited",
							"type": "uint256"
						},
						{
							"internalType": "uint256",
							"name": "timestake",
							"type": "uint256"
						},
						{
							"internalType": "bool",
							"name": "check",
							"type": "bool"
						}
					],
					"stateMutability": "view",
					"type": "function"
				},
				{
					"inputs": [],
					"name": "ERC20Address",
					"outputs": [
						{
							"internalType": "address",
							"name": "",
							"type": "address"
						}
					],
					"stateMutability": "view",
					"type": "function"
				},
				{
					"inputs": [],
					"name": "ERC721address",
					"outputs": [
						{
							"internalType": "address",
							"name": "",
							"type": "address"
						}
					],
					"stateMutability": "view",
					"type": "function"
				},
				{
					"inputs": [
						{
							"internalType": "address",
							"name": "",
							"type": "address"
						}
					],
					"name": "OwnerTokens",
					"outputs": [
						{
							"internalType": "uint256",
							"name": "",
							"type": "uint256"
						}
					],
					"stateMutability": "view",
					"type": "function"
				},
				{
					"inputs": [
						{
							"internalType": "address",
							"name": "",
							"type": "address"
						}
					],
					"name": "Reward",
					"outputs": [
						{
							"internalType": "uint256",
							"name": "",
							"type": "uint256"
						}
					],
					"stateMutability": "view",
					"type": "function"
				},
				{
					"inputs": [
						{
							"internalType": "address",
							"name": "_ERC20Address",
							"type": "address"
						}
					],
					"name": "UpdateERC20",
					"outputs": [],
					"stateMutability": "nonpayable",
					"type": "function"
				},
				{
					"inputs": [
						{
							"internalType": "address",
							"name": "_ERC721address",
							"type": "address"
						}
					],
					"name": "UpdateERC721",
					"outputs": [],
					"stateMutability": "nonpayable",
					"type": "function"
				},
				{
					"inputs": [
						{
							"internalType": "uint256",
							"name": "_ratePersentage",
							"type": "uint256"
						}
					],
					"name": "UpdateRatePersentage",
					"outputs": [],
					"stateMutability": "nonpayable",
					"type": "function"
				},
				{
					"inputs": [
						{
							"internalType": "address",
							"name": "",
							"type": "address"
						}
					],
					"name": "UserRate",
					"outputs": [
						{
							"internalType": "uint256",
							"name": "userRate",
							"type": "uint256"
						},
						{
							"internalType": "uint256",
							"name": "tokenId",
							"type": "uint256"
						},
						{
							"internalType": "bool",
							"name": "check",
							"type": "bool"
						}
					],
					"stateMutability": "view",
					"type": "function"
				},
				{
					"inputs": [],
					"name": "Utilization",
					"outputs": [
						{
							"internalType": "uint256",
							"name": "",
							"type": "uint256"
						}
					],
					"stateMutability": "view",
					"type": "function"
				},
				{
					"inputs": [],
					"name": "Withdraw",
					"outputs": [],
					"stateMutability": "nonpayable",
					"type": "function"
				},
				{
					"inputs": [
						{
							"internalType": "address",
							"name": "_to",
							"type": "address"
						}
					],
					"name": "calculateIntrest",
					"outputs": [
						{
							"internalType": "uint256",
							"name": "",
							"type": "uint256"
						}
					],
					"stateMutability": "view",
					"type": "function"
				},
				{
					"inputs": [
						{
							"internalType": "address",
							"name": "",
							"type": "address"
						},
						{
							"internalType": "address",
							"name": "",
							"type": "address"
						},
						{
							"internalType": "uint256",
							"name": "",
							"type": "uint256"
						},
						{
							"internalType": "bytes",
							"name": "",
							"type": "bytes"
						}
					],
					"name": "onERC721Received",
					"outputs": [
						{
							"internalType": "bytes4",
							"name": "",
							"type": "bytes4"
						}
					],
					"stateMutability": "pure",
					"type": "function"
				},
				{
					"inputs": [],
					"name": "owenerERC20",
					"outputs": [
						{
							"internalType": "address",
							"name": "",
							"type": "address"
						}
					],
					"stateMutability": "view",
					"type": "function"
				},
				{
					"inputs": [],
					"name": "owner",
					"outputs": [
						{
							"internalType": "address",
							"name": "",
							"type": "address"
						}
					],
					"stateMutability": "view",
					"type": "function"
				},
				{
					"inputs": [],
					"name": "renounceOwnership",
					"outputs": [],
					"stateMutability": "nonpayable",
					"type": "function"
				},
				{
					"inputs": [
						{
							"internalType": "address",
							"name": "_to",
							"type": "address"
						}
					],
					"name": "showReward",
					"outputs": [
						{
							"internalType": "uint256",
							"name": "result",
							"type": "uint256"
						}
					],
					"stateMutability": "view",
					"type": "function"
				},
				{
					"inputs": [],
					"name": "totalOwnerToken",
					"outputs": [
						{
							"internalType": "uint256",
							"name": "",
							"type": "uint256"
						}
					],
					"stateMutability": "view",
					"type": "function"
				},
				{
					"inputs": [
						{
							"internalType": "address",
							"name": "newOwner",
							"type": "address"
						}
					],
					"name": "transferOwnership",
					"outputs": [],
					"stateMutability": "nonpayable",
					"type": "function"
				},
				{
					"inputs": [
						{
							"internalType": "uint256",
							"name": "tokenIds",
							"type": "uint256"
						}
					],
					"name": "withdrawNFT",
					"outputs": [],
					"stateMutability": "nonpayable",
					"type": "function"
				}
			],
			"devdoc": {
				"kind": "dev",
				"methods": {
					"owner()": {
						"details": "Returns the address of the current owner."
					},
					"renounceOwnership()": {
						"details": "Leaves the contract without owner. It will not be possible to call `onlyOwner` functions anymore. Can only be called by the current owner. NOTE: Renouncing ownership will leave the contract without an owner, thereby removing any functionality that is only available to the owner."
					},
					"transferOwnership(address)": {
						"details": "Transfers ownership of the contract to a new account (`newOwner`). Can only be called by the current owner."
					}
				},
				"version": 1
			},
			"evm": {
				"assembly": "    /* \"contracts/Token&NFTStaking/Contract.sol\":348:8362  contract ERC20Stakeable is Ownable,IERC721Receiver{... */\n  mstore(0x40, 0x80)\n    /* \"contracts/Token&NFTStaking/Contract.sol\":1357:1592  constructor(address _ERC721address, uint256 _ratePersentage, address _ERC20Address) {... */\n  callvalue\n  dup1\n  iszero\n  tag_1\n  jumpi\n  0x00\n  dup1\n  revert\ntag_1:\n  pop\n  mload(0x40)\n  sub(codesize, bytecodeSize)\n  dup1\n  bytecodeSize\n  dup4\n  codecopy\n  dup2\n  add\n  0x40\n  dup2\n  swap1\n  mstore\n  tag_2\n  swap2\n  tag_3\n  jump\t// in\ntag_2:\n    /* \"@openzeppelin/contracts/access/Ownable.sol\":936:968  _transferOwnership(_msgSender()) */\n  tag_7\n    /* \"@openzeppelin/contracts/utils/Context.sol\":719:729  msg.sender */\n  caller\n    /* \"@openzeppelin/contracts/access/Ownable.sol\":936:954  _transferOwnership */\n  tag_10\n    /* \"@openzeppelin/contracts/access/Ownable.sol\":936:968  _transferOwnership(_msgSender()) */\n  jump\t// in\ntag_7:\n    /* \"contracts/Token&NFTStaking/Contract.sol\":1451:1464  ERC721address */\n  0x01\n    /* \"contracts/Token&NFTStaking/Contract.sol\":1451:1481  ERC721address = _ERC721address */\n  dup1\n  sload\n  sub(shl(0xa0, 0x01), 0x01)\n  swap5\n  dup6\n  and\n  not(sub(shl(0xa0, 0x01), 0x01))\n  swap2\n  dup3\n  and\n  or\n  swap1\n  swap2\n  sstore\n    /* \"contracts/Token&NFTStaking/Contract.sol\":1491:1495  rate */\n  0x05\n    /* \"contracts/Token&NFTStaking/Contract.sol\":1491:1513  rate = _ratePersentage */\n  swap3\n  swap1\n  swap3\n  sstore\n    /* \"contracts/Token&NFTStaking/Contract.sol\":1523:1535  ERC20Address */\n  0x03\n    /* \"contracts/Token&NFTStaking/Contract.sol\":1523:1551  ERC20Address = _ERC20Address */\n  dup1\n  sload\n  swap2\n  swap1\n  swap4\n  and\n  swap1\n  dup3\n  and\n  or\n  swap1\n  swap2\n  sstore\n  0x02\n    /* \"contracts/Token&NFTStaking/Contract.sol\":1561:1585  owenerERC20 = msg.sender */\n  dup1\n  sload\n  swap1\n  swap2\n  and\n    /* \"contracts/Token&NFTStaking/Contract.sol\":1575:1585  msg.sender */\n  caller\n    /* \"contracts/Token&NFTStaking/Contract.sol\":1561:1585  owenerERC20 = msg.sender */\n  or\n  swap1\n  sstore\n    /* \"contracts/Token&NFTStaking/Contract.sol\":348:8362  contract ERC20Stakeable is Ownable,IERC721Receiver{... */\n  jump(tag_16)\n    /* \"@openzeppelin/contracts/access/Ownable.sol\":2433:2620  function _transferOwnership(address newOwner) internal virtual {... */\ntag_10:\n    /* \"@openzeppelin/contracts/access/Ownable.sol\":2506:2522  address oldOwner */\n  0x00\n    /* \"@openzeppelin/contracts/access/Ownable.sol\":2525:2531  _owner */\n  dup1\n  sload\n  sub(shl(0xa0, 0x01), 0x01)\n    /* \"@openzeppelin/contracts/access/Ownable.sol\":2541:2558  _owner = newOwner */\n  dup4\n  dup2\n  and\n  not(sub(shl(0xa0, 0x01), 0x01))\n  dup4\n  and\n  dup2\n  or\n  dup5\n  sstore\n    /* \"@openzeppelin/contracts/access/Ownable.sol\":2573:2613  OwnershipTransferred(oldOwner, newOwner) */\n  mload(0x40)\n    /* \"@openzeppelin/contracts/access/Ownable.sol\":2525:2531  _owner */\n  swap2\n  swap1\n  swap3\n  and\n  swap3\n  dup4\n  swap2\n    /* \"@openzeppelin/contracts/access/Ownable.sol\":2573:2613  OwnershipTransferred(oldOwner, newOwner) */\n  0x8be0079c531659141344cd1fd0a4f28419497f9722a3daafe3b4186f6b6457e0\n  swap2\n    /* \"@openzeppelin/contracts/access/Ownable.sol\":2506:2522  address oldOwner */\n  swap1\n    /* \"@openzeppelin/contracts/access/Ownable.sol\":2573:2613  OwnershipTransferred(oldOwner, newOwner) */\n  log3\n    /* \"@openzeppelin/contracts/access/Ownable.sol\":2496:2620  {... */\n  pop\n    /* \"@openzeppelin/contracts/access/Ownable.sol\":2433:2620  function _transferOwnership(address newOwner) internal virtual {... */\n  pop\n  jump\t// out\n    /* \"#utility.yul\":14:191   */\ntag_15:\n    /* \"#utility.yul\":93:106   */\n  dup1\n  mload\n  sub(shl(0xa0, 0x01), 0x01)\n    /* \"#utility.yul\":135:166   */\n  dup2\n  and\n    /* \"#utility.yul\":125:167   */\n  dup2\n  eq\n    /* \"#utility.yul\":115:185   */\n  tag_18\n  jumpi\n    /* \"#utility.yul\":181:182   */\n  0x00\n    /* \"#utility.yul\":178:179   */\n  dup1\n    /* \"#utility.yul\":171:183   */\n  revert\n    /* \"#utility.yul\":115:185   */\ntag_18:\n    /* \"#utility.yul\":14:191   */\n  swap2\n  swap1\n  pop\n  jump\t// out\n    /* \"#utility.yul\":196:550   */\ntag_3:\n    /* \"#utility.yul\":284:290   */\n  0x00\n    /* \"#utility.yul\":292:298   */\n  dup1\n    /* \"#utility.yul\":300:306   */\n  0x00\n    /* \"#utility.yul\":353:355   */\n  0x60\n    /* \"#utility.yul\":341:350   */\n  dup5\n    /* \"#utility.yul\":332:339   */\n  dup7\n    /* \"#utility.yul\":328:351   */\n  sub\n    /* \"#utility.yul\":324:356   */\n  slt\n    /* \"#utility.yul\":321:373   */\n  iszero\n  tag_20\n  jumpi\n    /* \"#utility.yul\":369:370   */\n  0x00\n    /* \"#utility.yul\":366:367   */\n  dup1\n    /* \"#utility.yul\":359:371   */\n  revert\n    /* \"#utility.yul\":321:373   */\ntag_20:\n    /* \"#utility.yul\":392:432   */\n  tag_21\n    /* \"#utility.yul\":422:431   */\n  dup5\n    /* \"#utility.yul\":392:432   */\n  tag_15\n  jump\t// in\ntag_21:\n    /* \"#utility.yul\":382:432   */\n  swap3\n  pop\n    /* \"#utility.yul\":472:474   */\n  0x20\n    /* \"#utility.yul\":461:470   */\n  dup5\n    /* \"#utility.yul\":457:475   */\n  add\n    /* \"#utility.yul\":451:476   */\n  mload\n    /* \"#utility.yul\":441:476   */\n  swap2\n  pop\n    /* \"#utility.yul\":495:544   */\n  tag_22\n    /* \"#utility.yul\":540:542   */\n  0x40\n    /* \"#utility.yul\":529:538   */\n  dup6\n    /* \"#utility.yul\":525:543   */\n  add\n    /* \"#utility.yul\":495:544   */\n  tag_15\n  jump\t// in\ntag_22:\n    /* \"#utility.yul\":485:544   */\n  swap1\n  pop\n    /* \"#utility.yul\":196:550   */\n  swap3\n  pop\n  swap3\n  pop\n  swap3\n  jump\t// out\ntag_16:\n    /* \"contracts/Token&NFTStaking/Contract.sol\":348:8362  contract ERC20Stakeable is Ownable,IERC721Receiver{... */\n  dataSize(sub_0)\n  dup1\n  dataOffset(sub_0)\n  0x00\n  codecopy\n  0x00\n  return\nstop\n\nsub_0: assembly {\n        /* \"contracts/Token&NFTStaking/Contract.sol\":348:8362  contract ERC20Stakeable is Ownable,IERC721Receiver{... */\n      mstore(0x40, 0x80)\n      callvalue\n      dup1\n      iszero\n      tag_1\n      jumpi\n      0x00\n      dup1\n      revert\n    tag_1:\n      pop\n      jumpi(tag_2, lt(calldatasize, 0x04))\n      shr(0xe0, calldataload(0x00))\n      dup1\n      0x8da5cb5b\n      gt\n      tag_27\n      jumpi\n      dup1\n      0xc45af5d8\n      gt\n      tag_28\n      jumpi\n      dup1\n      0xc45af5d8\n      eq\n      tag_21\n      jumpi\n      dup1\n      0xe4458b30\n      eq\n      tag_22\n      jumpi\n      dup1\n      0xe88cc2be\n      eq\n      tag_23\n      jumpi\n      dup1\n      0xee0106d2\n      eq\n      tag_24\n      jumpi\n      dup1\n      0xf2fde38b\n      eq\n      tag_25\n      jumpi\n      dup1\n      0xf89d832f\n      eq\n      tag_26\n      jumpi\n      0x00\n      dup1\n      revert\n    tag_28:\n      dup1\n      0x8da5cb5b\n      eq\n      tag_15\n      jumpi\n      dup1\n      0x934ed772\n      eq\n      tag_16\n      jumpi\n      dup1\n      0xa6021ace\n      eq\n      tag_17\n      jumpi\n      dup1\n      0xa88e132f\n      eq\n      tag_18\n      jumpi\n      dup1\n      0xb7171a2e\n      eq\n      tag_19\n      jumpi\n      dup1\n      0xc0cd40ee\n      eq\n      tag_20\n      jumpi\n      0x00\n      dup1\n      revert\n    tag_27:\n      dup1\n      0x4d6ce1e5\n      gt\n      tag_29\n      jumpi\n      dup1\n      0x4d6ce1e5\n      eq\n      tag_9\n      jumpi\n      dup1\n      0x57488064\n      eq\n      tag_10\n      jumpi\n      dup1\n      0x57ea89b6\n      eq\n      tag_11\n      jumpi\n      dup1\n      0x715018a6\n      eq\n      tag_12\n      jumpi\n      dup1\n      0x7b2f247f\n      eq\n      tag_13\n      jumpi\n      dup1\n      0x8b73e331\n      eq\n      tag_14\n      jumpi\n      0x00\n      dup1\n      revert\n    tag_29:\n      dup1\n      0x023245d7\n      eq\n      tag_3\n      jumpi\n      dup1\n      0x0ccff6e9\n      eq\n      tag_4\n      jumpi\n      dup1\n      0x10fd4fba\n      eq\n      tag_5\n      jumpi\n      dup1\n      0x150b7a02\n      eq\n      tag_6\n      jumpi\n      dup1\n      0x275bd33f\n      eq\n      tag_7\n      jumpi\n      dup1\n      0x2ffce210\n      eq\n      tag_8\n      jumpi\n    tag_2:\n      0x00\n      dup1\n      revert\n        /* \"contracts/Token&NFTStaking/Contract.sol\":7935:8184  function withdrawNFT(uint256 tokenIds) public {... */\n    tag_3:\n      tag_30\n      tag_31\n      calldatasize\n      0x04\n      tag_32\n      jump\t// in\n    tag_31:\n      tag_33\n      jump\t// in\n    tag_30:\n      stop\n        /* \"contracts/Token&NFTStaking/Contract.sol\":535:562  uint public totalOwnerToken */\n    tag_4:\n      tag_34\n      sload(0x04)\n      dup2\n      jump\n    tag_34:\n      mload(0x40)\n        /* \"#utility.yul\":345:370   */\n      swap1\n      dup2\n      mstore\n        /* \"#utility.yul\":333:335   */\n      0x20\n        /* \"#utility.yul\":318:336   */\n      add\n        /* \"contracts/Token&NFTStaking/Contract.sol\":535:562  uint public totalOwnerToken */\n    tag_36:\n      mload(0x40)\n      dup1\n      swap2\n      sub\n      swap1\n      return\n        /* \"contracts/Token&NFTStaking/Contract.sol\":470:496  address public owenerERC20 */\n    tag_5:\n      sload(0x02)\n      tag_38\n      swap1\n      sub(shl(0xa0, 0x01), 0x01)\n      and\n      dup2\n      jump\n    tag_38:\n      mload(0x40)\n      sub(shl(0xa0, 0x01), 0x01)\n        /* \"#utility.yul\":545:577   */\n      swap1\n      swap2\n      and\n        /* \"#utility.yul\":527:578   */\n      dup2\n      mstore\n        /* \"#utility.yul\":515:517   */\n      0x20\n        /* \"#utility.yul\":500:518   */\n      add\n        /* \"contracts/Token&NFTStaking/Contract.sol\":470:496  address public owenerERC20 */\n      tag_36\n        /* \"#utility.yul\":381:584   */\n      jump\n        /* \"contracts/Token&NFTStaking/Contract.sol\":8189:8360  function onERC721Received(address,address,uint256,bytes calldata) external pure override returns (bytes4) {... */\n    tag_6:\n      tag_42\n      tag_43\n      calldatasize\n      0x04\n      tag_44\n      jump\t// in\n    tag_43:\n      shl(0xe1, 0x0a85bd01)\n      swap6\n      swap5\n      pop\n      pop\n      pop\n      pop\n      pop\n      jump\n    tag_42:\n      mload(0x40)\n      not(sub(shl(0xe0, 0x01), 0x01))\n        /* \"#utility.yul\":1742:1775   */\n      swap1\n      swap2\n      and\n        /* \"#utility.yul\":1724:1776   */\n      dup2\n      mstore\n        /* \"#utility.yul\":1712:1714   */\n      0x20\n        /* \"#utility.yul\":1697:1715   */\n      add\n        /* \"contracts/Token&NFTStaking/Contract.sol\":8189:8360  function onERC721Received(address,address,uint256,bytes calldata) external pure override returns (bytes4) {... */\n      tag_36\n        /* \"#utility.yul\":1580:1782   */\n      jump\n        /* \"contracts/Token&NFTStaking/Contract.sol\":6719:6826  function UpdateERC20 ( address _ERC20Address) public onlyOwner{... */\n    tag_7:\n      tag_30\n      tag_49\n      calldatasize\n      0x04\n      tag_50\n      jump\t// in\n    tag_49:\n      tag_51\n      jump\t// in\n        /* \"contracts/Token&NFTStaking/Contract.sol\":878:923  mapping (address => uint ) public OwnerTokens */\n    tag_8:\n      tag_34\n      tag_53\n      calldatasize\n      0x04\n      tag_50\n      jump\t// in\n    tag_53:\n      mstore(0x20, 0x08)\n      0x00\n      swap1\n      dup2\n      mstore\n      0x40\n      swap1\n      keccak256\n      sload\n      dup2\n      jump\n        /* \"contracts/Token&NFTStaking/Contract.sol\":3168:3437  function Deposit(uint256 _amount) public {... */\n    tag_9:\n      tag_30\n      tag_57\n      calldatasize\n      0x04\n      tag_32\n      jump\t// in\n    tag_57:\n      tag_58\n      jump\t// in\n        /* \"contracts/Token&NFTStaking/Contract.sol\":833:872  mapping (address => uint) public Reward */\n    tag_10:\n      tag_34\n      tag_60\n      calldatasize\n      0x04\n      tag_50\n      jump\t// in\n    tag_60:\n      mstore(0x20, 0x07)\n      0x00\n      swap1\n      dup2\n      mstore\n      0x40\n      swap1\n      keccak256\n      sload\n      dup2\n      jump\n        /* \"contracts/Token&NFTStaking/Contract.sol\":3632:4509  function Withdraw() public {... */\n    tag_11:\n      tag_30\n      tag_64\n      jump\t// in\n        /* \"@openzeppelin/contracts/access/Ownable.sol\":1831:1932  function renounceOwnership() public virtual onlyOwner {... */\n    tag_12:\n      tag_30\n      tag_66\n      jump\t// in\n        /* \"contracts/Token&NFTStaking/Contract.sol\":2713:2875  function Utilization() public view returns(uint256) {... */\n    tag_13:\n      tag_34\n      tag_68\n      jump\t// in\n        /* \"contracts/Token&NFTStaking/Contract.sol\":5689:6251  function calculateIntrest(address _to) public view returns(uint256){... */\n    tag_14:\n      tag_34\n      tag_71\n      calldatasize\n      0x04\n      tag_50\n      jump\t// in\n    tag_71:\n      tag_72\n      jump\t// in\n        /* \"@openzeppelin/contracts/access/Ownable.sol\":1201:1286  function owner() public view virtual returns (address) {... */\n    tag_15:\n        /* \"@openzeppelin/contracts/access/Ownable.sol\":1247:1254  address */\n      0x00\n        /* \"@openzeppelin/contracts/access/Ownable.sol\":1273:1279  _owner */\n      sload\n      sub(shl(0xa0, 0x01), 0x01)\n      and\n        /* \"@openzeppelin/contracts/access/Ownable.sol\":1201:1286  function owner() public view virtual returns (address) {... */\n      jump(tag_38)\n        /* \"contracts/Token&NFTStaking/Contract.sol\":7361:7723  function DepositNFT(uint256 tokenIds,uint _rate) public {... */\n    tag_16:\n      tag_30\n      tag_78\n      calldatasize\n      0x04\n      tag_79\n      jump\t// in\n    tag_78:\n      tag_80\n      jump\t// in\n        /* \"contracts/Token&NFTStaking/Contract.sol\":502:529  address public ERC20Address */\n    tag_17:\n      sload(0x03)\n      tag_38\n      swap1\n      sub(shl(0xa0, 0x01), 0x01)\n      and\n      dup2\n      jump\n        /* \"contracts/Token&NFTStaking/Contract.sol\":2300:2505  function AdminWithDrawToken(uint amount) public onlyOwner{... */\n    tag_18:\n      tag_30\n      tag_85\n      calldatasize\n      0x04\n      tag_32\n      jump\t// in\n    tag_85:\n      tag_86\n      jump\t// in\n        /* \"contracts/Token&NFTStaking/Contract.sol\":436:464  address public ERC721address */\n    tag_19:\n      sload(0x01)\n      tag_38\n      swap1\n      sub(shl(0xa0, 0x01), 0x01)\n      and\n      dup2\n      jump\n        /* \"contracts/Token&NFTStaking/Contract.sol\":1818:2108  function AdminAddToken(uint _amount) public onlyOwner{... */\n    tag_20:\n      tag_30\n      tag_91\n      calldatasize\n      0x04\n      tag_32\n      jump\t// in\n    tag_91:\n      tag_92\n      jump\t// in\n        /* \"contracts/Token&NFTStaking/Contract.sol\":4702:5425  function showReward(address _to) public view returns(uint result)... */\n    tag_21:\n      tag_34\n      tag_94\n      calldatasize\n      0x04\n      tag_50\n      jump\t// in\n    tag_94:\n      tag_95\n      jump\t// in\n        /* \"contracts/Token&NFTStaking/Contract.sol\":929:976  mapping (address => StakerNFT ) public UserRate */\n    tag_22:\n      tag_97\n      tag_98\n      calldatasize\n      0x04\n      tag_50\n      jump\t// in\n    tag_98:\n      mstore(0x20, 0x09)\n      0x00\n      swap1\n      dup2\n      mstore\n      0x40\n      swap1\n      keccak256\n      dup1\n      sload\n      0x01\n      dup3\n      add\n      sload\n      0x02\n      swap1\n      swap3\n      add\n      sload\n      swap1\n      swap2\n      swap1\n      0xff\n      and\n      dup4\n      jump\n    tag_97:\n      0x40\n      dup1\n      mload\n        /* \"#utility.yul\":2427:2452   */\n      swap4\n      dup5\n      mstore\n        /* \"#utility.yul\":2483:2485   */\n      0x20\n        /* \"#utility.yul\":2468:2486   */\n      dup5\n      add\n        /* \"#utility.yul\":2461:2495   */\n      swap3\n      swap1\n      swap3\n      mstore\n        /* \"#utility.yul\":2538:2552   */\n      iszero\n        /* \"#utility.yul\":2531:2553   */\n      iszero\n        /* \"#utility.yul\":2511:2529   */\n      swap1\n      dup3\n      add\n        /* \"#utility.yul\":2504:2554   */\n      mstore\n        /* \"#utility.yul\":2415:2417   */\n      0x60\n        /* \"#utility.yul\":2400:2418   */\n      add\n        /* \"contracts/Token&NFTStaking/Contract.sol\":929:976  mapping (address => StakerNFT ) public UserRate */\n      tag_36\n        /* \"#utility.yul\":2231:2560   */\n      jump\n        /* \"contracts/Token&NFTStaking/Contract.sol\":785:827  mapping (address => Staker) public Details */\n    tag_23:\n      tag_97\n      tag_103\n      calldatasize\n      0x04\n      tag_50\n      jump\t// in\n    tag_103:\n      mstore(0x20, 0x06)\n      0x00\n      swap1\n      dup2\n      mstore\n      0x40\n      swap1\n      keccak256\n      dup1\n      sload\n      0x01\n      dup3\n      add\n      sload\n      0x02\n      swap1\n      swap3\n      add\n      sload\n      swap1\n      swap2\n      swap1\n      0xff\n      and\n      dup4\n      jump\n        /* \"contracts/Token&NFTStaking/Contract.sol\":6433:6542  function UpdateERC721(address _ERC721address) public onlyOwner{... */\n    tag_24:\n      tag_30\n      tag_107\n      calldatasize\n      0x04\n      tag_50\n      jump\t// in\n    tag_107:\n      tag_108\n      jump\t// in\n        /* \"@openzeppelin/contracts/access/Ownable.sol\":2081:2279  function transferOwnership(address newOwner) public virtual onlyOwner {... */\n    tag_25:\n      tag_30\n      tag_110\n      calldatasize\n      0x04\n      tag_50\n      jump\t// in\n    tag_110:\n      tag_111\n      jump\t// in\n        /* \"contracts/Token&NFTStaking/Contract.sol\":7008:7118  function UpdateRatePersentage(uint256 _ratePersentage) public onlyOwner{... */\n    tag_26:\n      tag_30\n      tag_113\n      calldatasize\n      0x04\n      tag_32\n      jump\t// in\n    tag_113:\n      tag_114\n      jump\t// in\n        /* \"contracts/Token&NFTStaking/Contract.sol\":7935:8184  function withdrawNFT(uint256 tokenIds) public {... */\n    tag_33:\n        /* \"contracts/Token&NFTStaking/Contract.sol\":8008:8018  msg.sender */\n      caller\n        /* \"contracts/Token&NFTStaking/Contract.sol\":7999:8019  UserRate[msg.sender] */\n      0x00\n      swap1\n      dup2\n      mstore\n        /* \"contracts/Token&NFTStaking/Contract.sol\":7999:8007  UserRate */\n      0x09\n        /* \"contracts/Token&NFTStaking/Contract.sol\":7999:8019  UserRate[msg.sender] */\n      0x20\n      mstore\n      0x40\n      swap1\n      keccak256\n        /* \"contracts/Token&NFTStaking/Contract.sol\":7999:8025  UserRate[msg.sender].check */\n      0x02\n      add\n      sload\n      0xff\n      and\n        /* \"contracts/Token&NFTStaking/Contract.sol\":7991:8052  require(UserRate[msg.sender].check,\"Please First Stake NFTs\") */\n      tag_116\n      jumpi\n      mload(0x40)\n      shl(0xe5, 0x461bcd)\n      dup2\n      mstore\n        /* \"#utility.yul\":2767:2769   */\n      0x20\n        /* \"contracts/Token&NFTStaking/Contract.sol\":7991:8052  require(UserRate[msg.sender].check,\"Please First Stake NFTs\") */\n      0x04\n      dup3\n      add\n        /* \"#utility.yul\":2749:2770   */\n      mstore\n        /* \"#utility.yul\":2806:2808   */\n      0x17\n        /* \"#utility.yul\":2786:2804   */\n      0x24\n      dup3\n      add\n        /* \"#utility.yul\":2779:2809   */\n      mstore\n        /* \"#utility.yul\":2845:2870   */\n      0x506c65617365204669727374205374616b65204e465473000000000000000000\n        /* \"#utility.yul\":2825:2843   */\n      0x44\n      dup3\n      add\n        /* \"#utility.yul\":2818:2871   */\n      mstore\n        /* \"#utility.yul\":2888:2906   */\n      0x64\n      add\n        /* \"contracts/Token&NFTStaking/Contract.sol\":7991:8052  require(UserRate[msg.sender].check,\"Please First Stake NFTs\") */\n    tag_117:\n      mload(0x40)\n      dup1\n      swap2\n      sub\n      swap1\n      revert\n    tag_116:\n        /* \"contracts/Token&NFTStaking/Contract.sol\":8070:8083  ERC721address */\n      sload(0x01)\n        /* \"contracts/Token&NFTStaking/Contract.sol\":8062:8140  IERC721(ERC721address).safeTransferFrom(address(this), msg.sender,tokenIds,\"\") */\n      mload(0x40)\n      shl(0xe1, 0x5c46a7ef)\n      dup2\n      mstore\n      sub(shl(0xa0, 0x01), 0x01)\n        /* \"contracts/Token&NFTStaking/Contract.sol\":8070:8083  ERC721address */\n      swap1\n      swap2\n      and\n      swap1\n        /* \"contracts/Token&NFTStaking/Contract.sol\":8062:8101  IERC721(ERC721address).safeTransferFrom */\n      0xb88d4fde\n      swap1\n        /* \"contracts/Token&NFTStaking/Contract.sol\":8062:8140  IERC721(ERC721address).safeTransferFrom(address(this), msg.sender,tokenIds,\"\") */\n      tag_119\n      swap1\n        /* \"contracts/Token&NFTStaking/Contract.sol\":8110:8114  this */\n      address\n      swap1\n        /* \"contracts/Token&NFTStaking/Contract.sol\":8117:8127  msg.sender */\n      caller\n      swap1\n        /* \"contracts/Token&NFTStaking/Contract.sol\":8128:8136  tokenIds */\n      dup7\n      swap1\n        /* \"contracts/Token&NFTStaking/Contract.sol\":8062:8140  IERC721(ERC721address).safeTransferFrom(address(this), msg.sender,tokenIds,\"\") */\n      0x04\n      add\n      tag_120\n      jump\t// in\n    tag_119:\n      0x00\n      mload(0x40)\n      dup1\n      dup4\n      sub\n      dup2\n      0x00\n      dup8\n      dup1\n      extcodesize\n      iszero\n      dup1\n      iszero\n      tag_121\n      jumpi\n      0x00\n      dup1\n      revert\n    tag_121:\n      pop\n      gas\n      call\n      iszero\n      dup1\n      iszero\n      tag_123\n      jumpi\n      returndatasize\n      0x00\n      dup1\n      returndatacopy\n      revert(0x00, returndatasize)\n    tag_123:\n      pop\n      pop\n        /* \"contracts/Token&NFTStaking/Contract.sol\":8166:8176  msg.sender */\n      caller\n        /* \"contracts/Token&NFTStaking/Contract.sol\":8157:8177  UserRate[msg.sender] */\n      0x00\n      swap1\n      dup2\n      mstore\n        /* \"contracts/Token&NFTStaking/Contract.sol\":8157:8165  UserRate */\n      0x09\n        /* \"contracts/Token&NFTStaking/Contract.sol\":8157:8177  UserRate[msg.sender] */\n      0x20\n      mstore\n      0x40\n      dup2\n      keccak256\n        /* \"contracts/Token&NFTStaking/Contract.sol\":8150:8177  delete UserRate[msg.sender] */\n      dup2\n      dup2\n      sstore\n      0x01\n      dup2\n      add\n      swap2\n      swap1\n      swap2\n      sstore\n      0x02\n      add\n      dup1\n      sload\n      not(0xff)\n      and\n      swap1\n      sstore\n      pop\n      pop\n      pop\n        /* \"contracts/Token&NFTStaking/Contract.sol\":7935:8184  function withdrawNFT(uint256 tokenIds) public {... */\n      jump\t// out\n        /* \"contracts/Token&NFTStaking/Contract.sol\":6719:6826  function UpdateERC20 ( address _ERC20Address) public onlyOwner{... */\n    tag_51:\n        /* \"@openzeppelin/contracts/access/Ownable.sol\":1094:1107  _checkOwner() */\n      tag_126\n        /* \"@openzeppelin/contracts/access/Ownable.sol\":1094:1105  _checkOwner */\n      tag_127\n        /* \"@openzeppelin/contracts/access/Ownable.sol\":1094:1107  _checkOwner() */\n      jump\t// in\n    tag_126:\n        /* \"contracts/Token&NFTStaking/Contract.sol\":6791:6803  ERC20Address */\n      0x03\n        /* \"contracts/Token&NFTStaking/Contract.sol\":6791:6819  ERC20Address = _ERC20Address */\n      dup1\n      sload\n      not(sub(shl(0xa0, 0x01), 0x01))\n      and\n      sub(shl(0xa0, 0x01), 0x01)\n      swap3\n      swap1\n      swap3\n      and\n      swap2\n      swap1\n      swap2\n      or\n      swap1\n      sstore\n        /* \"contracts/Token&NFTStaking/Contract.sol\":6719:6826  function UpdateERC20 ( address _ERC20Address) public onlyOwner{... */\n      jump\t// out\n        /* \"contracts/Token&NFTStaking/Contract.sol\":3168:3437  function Deposit(uint256 _amount) public {... */\n    tag_58:\n        /* \"contracts/Token&NFTStaking/Contract.sol\":3236:3246  msg.sender */\n      caller\n        /* \"contracts/Token&NFTStaking/Contract.sol\":3228:3247  Details[msg.sender] */\n      0x00\n      swap1\n      dup2\n      mstore\n        /* \"contracts/Token&NFTStaking/Contract.sol\":3228:3235  Details */\n      0x06\n        /* \"contracts/Token&NFTStaking/Contract.sol\":3228:3247  Details[msg.sender] */\n      0x20\n      mstore\n      0x40\n      swap1\n      keccak256\n        /* \"contracts/Token&NFTStaking/Contract.sol\":3228:3253  Details[msg.sender].check */\n      0x02\n      add\n      sload\n      0xff\n      and\n        /* \"contracts/Token&NFTStaking/Contract.sol\":3227:3253  !Details[msg.sender].check */\n      iszero\n        /* \"contracts/Token&NFTStaking/Contract.sol\":3219:3278  require(!Details[msg.sender].check,\"Please First WithDraw\") */\n      tag_130\n      jumpi\n      mload(0x40)\n      shl(0xe5, 0x461bcd)\n      dup2\n      mstore\n        /* \"#utility.yul\":3679:3681   */\n      0x20\n        /* \"contracts/Token&NFTStaking/Contract.sol\":3219:3278  require(!Details[msg.sender].check,\"Please First WithDraw\") */\n      0x04\n      dup3\n      add\n        /* \"#utility.yul\":3661:3682   */\n      mstore\n        /* \"#utility.yul\":3718:3720   */\n      0x15\n        /* \"#utility.yul\":3698:3716   */\n      0x24\n      dup3\n      add\n        /* \"#utility.yul\":3691:3721   */\n      mstore\n      shl(0x58, 0x506c65617365204669727374205769746844726177)\n        /* \"#utility.yul\":3737:3755   */\n      0x44\n      dup3\n      add\n        /* \"#utility.yul\":3730:3781   */\n      mstore\n        /* \"#utility.yul\":3798:3816   */\n      0x64\n      add\n        /* \"contracts/Token&NFTStaking/Contract.sol\":3219:3278  require(!Details[msg.sender].check,\"Please First WithDraw\") */\n      tag_117\n        /* \"#utility.yul\":3477:3822   */\n      jump\n        /* \"contracts/Token&NFTStaking/Contract.sol\":3219:3278  require(!Details[msg.sender].check,\"Please First WithDraw\") */\n    tag_130:\n        /* \"contracts/Token&NFTStaking/Contract.sol\":3310:3346  Staker(_amount,block.timestamp,true) */\n      0x40\n      dup1\n      mload\n      0x60\n      dup2\n      add\n      dup3\n      mstore\n      dup3\n      dup2\n      mstore\n        /* \"contracts/Token&NFTStaking/Contract.sol\":3325:3340  block.timestamp */\n      timestamp\n        /* \"contracts/Token&NFTStaking/Contract.sol\":3310:3346  Staker(_amount,block.timestamp,true) */\n      0x20\n      dup1\n      dup4\n      add\n      swap2\n      dup3\n      mstore\n        /* \"contracts/Token&NFTStaking/Contract.sol\":3341:3345  true */\n      0x01\n        /* \"contracts/Token&NFTStaking/Contract.sol\":3310:3346  Staker(_amount,block.timestamp,true) */\n      dup4\n      dup6\n      add\n      dup2\n      dup2\n      mstore\n        /* \"contracts/Token&NFTStaking/Contract.sol\":3296:3306  msg.sender */\n      caller\n      0x00\n        /* \"contracts/Token&NFTStaking/Contract.sol\":3288:3307  Details[msg.sender] */\n      dup2\n      dup2\n      mstore\n        /* \"contracts/Token&NFTStaking/Contract.sol\":3288:3295  Details */\n      0x06\n        /* \"contracts/Token&NFTStaking/Contract.sol\":3288:3307  Details[msg.sender] */\n      swap1\n      swap5\n      mstore\n      swap6\n      swap1\n      swap3\n      keccak256\n        /* \"contracts/Token&NFTStaking/Contract.sol\":3288:3346  Details[msg.sender] = Staker(_amount,block.timestamp,true) */\n      swap4\n      mload\n      dup5\n      sstore\n      swap2\n      mload\n      swap2\n      dup4\n      add\n      swap2\n      swap1\n      swap2\n      sstore\n      mload\n      0x02\n      swap1\n      swap2\n      add\n      dup1\n      sload\n      not(0xff)\n      and\n      swap2\n      iszero\n      iszero\n      swap2\n      swap1\n      swap2\n      or\n      swap1\n      sstore\n        /* \"contracts/Token&NFTStaking/Contract.sol\":3363:3375  ERC20Address */\n      sload(0x03)\n        /* \"contracts/Token&NFTStaking/Contract.sol\":3356:3430  IERC20(ERC20Address).safeTransferFrom(msg.sender, address(this) , _amount) */\n      tag_133\n      swap2\n      sub(shl(0xa0, 0x01), 0x01)\n        /* \"contracts/Token&NFTStaking/Contract.sol\":3363:3375  ERC20Address */\n      swap1\n      swap2\n      and\n      swap1\n        /* \"contracts/Token&NFTStaking/Contract.sol\":3414:3418  this */\n      address\n        /* \"contracts/Token&NFTStaking/Contract.sol\":3310:3346  Staker(_amount,block.timestamp,true) */\n      dup5\n        /* \"contracts/Token&NFTStaking/Contract.sol\":3356:3393  IERC20(ERC20Address).safeTransferFrom */\n      tag_134\n        /* \"contracts/Token&NFTStaking/Contract.sol\":3356:3430  IERC20(ERC20Address).safeTransferFrom(msg.sender, address(this) , _amount) */\n      jump\t// in\n    tag_133:\n        /* \"contracts/Token&NFTStaking/Contract.sol\":3168:3437  function Deposit(uint256 _amount) public {... */\n      pop\n      jump\t// out\n        /* \"contracts/Token&NFTStaking/Contract.sol\":3632:4509  function Withdraw() public {... */\n    tag_64:\n        /* \"contracts/Token&NFTStaking/Contract.sol\":3685:3695  msg.sender */\n      caller\n        /* \"contracts/Token&NFTStaking/Contract.sol\":3677:3696  Details[msg.sender] */\n      0x00\n      swap1\n      dup2\n      mstore\n        /* \"contracts/Token&NFTStaking/Contract.sol\":3677:3684  Details */\n      0x06\n        /* \"contracts/Token&NFTStaking/Contract.sol\":3677:3696  Details[msg.sender] */\n      0x20\n      mstore\n      0x40\n      swap1\n      keccak256\n        /* \"contracts/Token&NFTStaking/Contract.sol\":3677:3702  Details[msg.sender].check */\n      0x02\n      add\n      sload\n      0xff\n      and\n        /* \"contracts/Token&NFTStaking/Contract.sol\":3669:3724  require(Details[msg.sender].check,\"Please First Stake\") */\n      tag_136\n      jumpi\n      mload(0x40)\n      shl(0xe5, 0x461bcd)\n      dup2\n      mstore\n        /* \"#utility.yul\":4029:4031   */\n      0x20\n        /* \"contracts/Token&NFTStaking/Contract.sol\":3669:3724  require(Details[msg.sender].check,\"Please First Stake\") */\n      0x04\n      dup3\n      add\n        /* \"#utility.yul\":4011:4032   */\n      mstore\n        /* \"#utility.yul\":4068:4070   */\n      0x12\n        /* \"#utility.yul\":4048:4066   */\n      0x24\n      dup3\n      add\n        /* \"#utility.yul\":4041:4071   */\n      mstore\n      shl(0x70, 0x506c65617365204669727374205374616b65)\n        /* \"#utility.yul\":4087:4105   */\n      0x44\n      dup3\n      add\n        /* \"#utility.yul\":4080:4128   */\n      mstore\n        /* \"#utility.yul\":4145:4163   */\n      0x64\n      add\n        /* \"contracts/Token&NFTStaking/Contract.sol\":3669:3724  require(Details[msg.sender].check,\"Please First Stake\") */\n      tag_117\n        /* \"#utility.yul\":3827:4169   */\n      jump\n        /* \"contracts/Token&NFTStaking/Contract.sol\":3669:3724  require(Details[msg.sender].check,\"Please First Stake\") */\n    tag_136:\n        /* \"contracts/Token&NFTStaking/Contract.sol\":3747:3757  msg.sender */\n      caller\n        /* \"contracts/Token&NFTStaking/Contract.sol\":3738:3758  UserRate[msg.sender] */\n      0x00\n      swap1\n      dup2\n      mstore\n        /* \"contracts/Token&NFTStaking/Contract.sol\":3738:3746  UserRate */\n      0x09\n        /* \"contracts/Token&NFTStaking/Contract.sol\":3738:3758  UserRate[msg.sender] */\n      0x20\n      mstore\n      0x40\n      swap1\n      keccak256\n        /* \"contracts/Token&NFTStaking/Contract.sol\":3738:3764  UserRate[msg.sender].check */\n      0x02\n      add\n      sload\n      0xff\n      and\n        /* \"contracts/Token&NFTStaking/Contract.sol\":3734:4499  if (UserRate[msg.sender].check){... */\n      iszero\n      tag_139\n      jumpi\n        /* \"contracts/Token&NFTStaking/Contract.sol\":3801:3811  msg.sender */\n      caller\n        /* \"contracts/Token&NFTStaking/Contract.sol\":3779:3790  uint amount */\n      0x00\n        /* \"contracts/Token&NFTStaking/Contract.sol\":3793:3812  Details[msg.sender] */\n      dup2\n      dup2\n      mstore\n        /* \"contracts/Token&NFTStaking/Contract.sol\":3793:3800  Details */\n      0x06\n        /* \"contracts/Token&NFTStaking/Contract.sol\":3793:3812  Details[msg.sender] */\n      0x20\n      mstore\n      0x40\n      dup2\n      keccak256\n        /* \"contracts/Token&NFTStaking/Contract.sol\":3793:3822  Details[msg.sender].deposited */\n      sload\n      swap2\n        /* \"contracts/Token&NFTStaking/Contract.sol\":3850:3878  calculateIntrest(msg.sender) */\n      tag_140\n      swap1\n        /* \"contracts/Token&NFTStaking/Contract.sol\":3850:3866  calculateIntrest */\n      tag_72\n        /* \"contracts/Token&NFTStaking/Contract.sol\":3850:3878  calculateIntrest(msg.sender) */\n      jump\t// in\n    tag_140:\n        /* \"contracts/Token&NFTStaking/Contract.sol\":3900:3913  ERC721address */\n      0x01\n      dup1\n      sload\n        /* \"contracts/Token&NFTStaking/Contract.sol\":3947:3957  msg.sender */\n      caller\n        /* \"contracts/Token&NFTStaking/Contract.sol\":3900:3913  ERC721address */\n      0x00\n        /* \"contracts/Token&NFTStaking/Contract.sol\":3958:3978  UserRate[msg.sender] */\n      dup2\n      dup2\n      mstore\n        /* \"contracts/Token&NFTStaking/Contract.sol\":3958:3966  UserRate */\n      0x09\n        /* \"contracts/Token&NFTStaking/Contract.sol\":3958:3978  UserRate[msg.sender] */\n      0x20\n      mstore\n      0x40\n      swap1\n      dup2\n      swap1\n      keccak256\n        /* \"contracts/Token&NFTStaking/Contract.sol\":3958:3986  UserRate[msg.sender].tokenId */\n      swap1\n      swap4\n      add\n      sload\n        /* \"contracts/Token&NFTStaking/Contract.sol\":3892:3990  IERC721(ERC721address).safeTransferFrom(address(this), msg.sender,UserRate[msg.sender].tokenId,\"\") */\n      swap3\n      mload\n      shl(0xe1, 0x5c46a7ef)\n      dup2\n      mstore\n        /* \"contracts/Token&NFTStaking/Contract.sol\":3836:3878  uint newval = calculateIntrest(msg.sender) */\n      swap4\n      swap5\n      pop\n      sub(shl(0xa0, 0x01), 0x01)\n        /* \"contracts/Token&NFTStaking/Contract.sol\":3900:3913  ERC721address */\n      swap1\n      swap2\n      and\n      swap3\n        /* \"contracts/Token&NFTStaking/Contract.sol\":3892:3931  IERC721(ERC721address).safeTransferFrom */\n      0xb88d4fde\n      swap3\n        /* \"contracts/Token&NFTStaking/Contract.sol\":3892:3990  IERC721(ERC721address).safeTransferFrom(address(this), msg.sender,UserRate[msg.sender].tokenId,\"\") */\n      tag_141\n      swap3\n        /* \"contracts/Token&NFTStaking/Contract.sol\":3940:3944  this */\n      address\n      swap3\n        /* \"contracts/Token&NFTStaking/Contract.sol\":3947:3957  msg.sender */\n      swap1\n      swap2\n        /* \"contracts/Token&NFTStaking/Contract.sol\":3958:3986  UserRate[msg.sender].tokenId */\n      swap1\n        /* \"contracts/Token&NFTStaking/Contract.sol\":3892:3990  IERC721(ERC721address).safeTransferFrom(address(this), msg.sender,UserRate[msg.sender].tokenId,\"\") */\n      0x04\n      add\n      tag_120\n      jump\t// in\n    tag_141:\n      0x00\n      mload(0x40)\n      dup1\n      dup4\n      sub\n      dup2\n      0x00\n      dup8\n      dup1\n      extcodesize\n      iszero\n      dup1\n      iszero\n      tag_142\n      jumpi\n      0x00\n      dup1\n      revert\n    tag_142:\n      pop\n      gas\n      call\n      iszero\n      dup1\n      iszero\n      tag_144\n      jumpi\n      returndatasize\n      0x00\n      dup1\n      returndatacopy\n      revert(0x00, returndatasize)\n    tag_144:\n      pop\n      pop\n        /* \"contracts/Token&NFTStaking/Contract.sol\":4011:4023  ERC20Address */\n      and(sub(shl(0xa0, 0x01), 0x01), sload(0x03))\n      swap2\n      pop\n        /* \"contracts/Token&NFTStaking/Contract.sol\":4004:4033  IERC20(ERC20Address).transfer */\n      0xa9059cbb\n      swap1\n      pop\n        /* \"contracts/Token&NFTStaking/Contract.sol\":4034:4044  msg.sender */\n      caller\n        /* \"contracts/Token&NFTStaking/Contract.sol\":4046:4061  amount + newval */\n      tag_145\n        /* \"contracts/Token&NFTStaking/Contract.sol\":4055:4061  newval */\n      dup5\n        /* \"contracts/Token&NFTStaking/Contract.sol\":4046:4052  amount */\n      dup7\n        /* \"contracts/Token&NFTStaking/Contract.sol\":4046:4061  amount + newval */\n      tag_146\n      jump\t// in\n    tag_145:\n        /* \"contracts/Token&NFTStaking/Contract.sol\":4004:4062  IERC20(ERC20Address).transfer(msg.sender, amount + newval) */\n      mload(0x40)\n      not(sub(shl(0xe0, 0x01), 0x01))\n      0xe0\n      dup6\n      swap1\n      shl\n      and\n      dup2\n      mstore\n      sub(shl(0xa0, 0x01), 0x01)\n        /* \"#utility.yul\":4631:4663   */\n      swap1\n      swap3\n      and\n        /* \"contracts/Token&NFTStaking/Contract.sol\":4004:4062  IERC20(ERC20Address).transfer(msg.sender, amount + newval) */\n      0x04\n      dup4\n      add\n        /* \"#utility.yul\":4613:4664   */\n      mstore\n        /* \"#utility.yul\":4680:4698   */\n      0x24\n      dup3\n      add\n        /* \"#utility.yul\":4673:4707   */\n      mstore\n        /* \"#utility.yul\":4586:4604   */\n      0x44\n      add\n        /* \"contracts/Token&NFTStaking/Contract.sol\":4004:4062  IERC20(ERC20Address).transfer(msg.sender, amount + newval) */\n      0x20\n      mload(0x40)\n      dup1\n      dup4\n      sub\n      dup2\n      0x00\n      dup8\n      gas\n      call\n      iszero\n      dup1\n      iszero\n      tag_150\n      jumpi\n      returndatasize\n      0x00\n      dup1\n      returndatacopy\n      revert(0x00, returndatasize)\n    tag_150:\n      pop\n      pop\n      pop\n      pop\n      mload(0x40)\n      returndatasize\n      not(0x1f)\n      0x1f\n      dup3\n      add\n      and\n      dup3\n      add\n      dup1\n      0x40\n      mstore\n      pop\n      dup2\n      add\n      swap1\n      tag_151\n      swap2\n      swap1\n      tag_152\n      jump\t// in\n    tag_151:\n      pop\n        /* \"contracts/Token&NFTStaking/Contract.sol\":4088:4099  owenerERC20 */\n      and(sub(shl(0xa0, 0x01), 0x01), sload(0x02))\n        /* \"contracts/Token&NFTStaking/Contract.sol\":4076:4100  OwnerTokens[owenerERC20] */\n      0x00\n      swap1\n      dup2\n      mstore\n        /* \"contracts/Token&NFTStaking/Contract.sol\":4076:4087  OwnerTokens */\n      0x08\n        /* \"contracts/Token&NFTStaking/Contract.sol\":4076:4100  OwnerTokens[owenerERC20] */\n      0x20\n      mstore\n      0x40\n      dup2\n      keccak256\n        /* \"contracts/Token&NFTStaking/Contract.sol\":4076:4110  OwnerTokens[owenerERC20] -= newval */\n      dup1\n      sload\n        /* \"contracts/Token&NFTStaking/Contract.sol\":4104:4110  newval */\n      dup4\n      swap3\n        /* \"contracts/Token&NFTStaking/Contract.sol\":4076:4100  OwnerTokens[owenerERC20] */\n      swap1\n        /* \"contracts/Token&NFTStaking/Contract.sol\":4076:4110  OwnerTokens[owenerERC20] -= newval */\n      tag_153\n      swap1\n        /* \"contracts/Token&NFTStaking/Contract.sol\":4104:4110  newval */\n      dup5\n      swap1\n        /* \"contracts/Token&NFTStaking/Contract.sol\":4076:4110  OwnerTokens[owenerERC20] -= newval */\n      tag_154\n      jump\t// in\n    tag_153:\n      swap1\n      swap2\n      sstore\n      pop\n      pop\n        /* \"contracts/Token&NFTStaking/Contract.sol\":4140:4150  msg.sender */\n      caller\n        /* \"contracts/Token&NFTStaking/Contract.sol\":4131:4151  UserRate[msg.sender] */\n      0x00\n      swap1\n      dup2\n      mstore\n        /* \"contracts/Token&NFTStaking/Contract.sol\":4131:4139  UserRate */\n      0x09\n        /* \"contracts/Token&NFTStaking/Contract.sol\":4131:4151  UserRate[msg.sender] */\n      0x20\n      swap1\n      dup2\n      mstore\n      0x40\n      dup1\n      dup4\n      keccak256\n        /* \"contracts/Token&NFTStaking/Contract.sol\":4124:4151  delete UserRate[msg.sender] */\n      dup4\n      dup2\n      sstore\n      0x01\n      dup1\n      dup3\n      add\n      dup6\n      swap1\n      sstore\n      0x02\n      swap2\n      dup3\n      add\n      dup1\n      sload\n      not(0xff)\n      swap1\n      dup2\n      and\n      swap1\n      swap2\n      sstore\n        /* \"contracts/Token&NFTStaking/Contract.sol\":4172:4179  Details */\n      0x06\n        /* \"contracts/Token&NFTStaking/Contract.sol\":4172:4191  Details[msg.sender] */\n      swap1\n      swap5\n      mstore\n      swap2\n      dup5\n      keccak256\n        /* \"contracts/Token&NFTStaking/Contract.sol\":4165:4191  delete Details[msg.sender] */\n      dup5\n      dup2\n      sstore\n      swap2\n      dup3\n      add\n      swap4\n      swap1\n      swap4\n      sstore\n      swap1\n      swap2\n      add\n      dup1\n      sload\n      swap1\n      swap2\n      and\n      swap1\n      sstore\n      pop\n        /* \"contracts/Token&NFTStaking/Contract.sol\":3734:4499  if (UserRate[msg.sender].check){... */\n      tag_155\n      swap1\n      pop\n      jump\n    tag_139:\n        /* \"contracts/Token&NFTStaking/Contract.sol\":4251:4261  msg.sender */\n      caller\n        /* \"contracts/Token&NFTStaking/Contract.sol\":4229:4240  uint amount */\n      0x00\n        /* \"contracts/Token&NFTStaking/Contract.sol\":4243:4262  Details[msg.sender] */\n      dup2\n      dup2\n      mstore\n        /* \"contracts/Token&NFTStaking/Contract.sol\":4243:4250  Details */\n      0x06\n        /* \"contracts/Token&NFTStaking/Contract.sol\":4243:4262  Details[msg.sender] */\n      0x20\n      mstore\n      0x40\n      dup2\n      keccak256\n        /* \"contracts/Token&NFTStaking/Contract.sol\":4243:4272  Details[msg.sender].deposited */\n      sload\n      swap2\n        /* \"contracts/Token&NFTStaking/Contract.sol\":4300:4328  calculateIntrest(msg.sender) */\n      tag_156\n      swap1\n        /* \"contracts/Token&NFTStaking/Contract.sol\":4300:4316  calculateIntrest */\n      tag_72\n        /* \"contracts/Token&NFTStaking/Contract.sol\":4300:4328  calculateIntrest(msg.sender) */\n      jump\t// in\n    tag_156:\n        /* \"contracts/Token&NFTStaking/Contract.sol\":4349:4361  ERC20Address */\n      sload(0x03)\n        /* \"contracts/Token&NFTStaking/Contract.sol\":4286:4328  uint newval = calculateIntrest(msg.sender) */\n      swap1\n      swap2\n      pop\n      sub(shl(0xa0, 0x01), 0x01)\n        /* \"contracts/Token&NFTStaking/Contract.sol\":4349:4361  ERC20Address */\n      and\n        /* \"contracts/Token&NFTStaking/Contract.sol\":4342:4371  IERC20(ERC20Address).transfer */\n      0xa9059cbb\n        /* \"contracts/Token&NFTStaking/Contract.sol\":4372:4382  msg.sender */\n      caller\n        /* \"contracts/Token&NFTStaking/Contract.sol\":4384:4399  amount + newval */\n      tag_157\n        /* \"contracts/Token&NFTStaking/Contract.sol\":4286:4328  uint newval = calculateIntrest(msg.sender) */\n      dup5\n        /* \"contracts/Token&NFTStaking/Contract.sol\":4384:4390  amount */\n      dup7\n        /* \"contracts/Token&NFTStaking/Contract.sol\":4384:4399  amount + newval */\n      tag_146\n      jump\t// in\n    tag_157:\n        /* \"contracts/Token&NFTStaking/Contract.sol\":4342:4400  IERC20(ERC20Address).transfer(msg.sender, amount + newval) */\n      mload(0x40)\n      not(sub(shl(0xe0, 0x01), 0x01))\n      0xe0\n      dup6\n      swap1\n      shl\n      and\n      dup2\n      mstore\n      sub(shl(0xa0, 0x01), 0x01)\n        /* \"#utility.yul\":4631:4663   */\n      swap1\n      swap3\n      and\n        /* \"contracts/Token&NFTStaking/Contract.sol\":4342:4400  IERC20(ERC20Address).transfer(msg.sender, amount + newval) */\n      0x04\n      dup4\n      add\n        /* \"#utility.yul\":4613:4664   */\n      mstore\n        /* \"#utility.yul\":4680:4698   */\n      0x24\n      dup3\n      add\n        /* \"#utility.yul\":4673:4707   */\n      mstore\n        /* \"#utility.yul\":4586:4604   */\n      0x44\n      add\n        /* \"contracts/Token&NFTStaking/Contract.sol\":4342:4400  IERC20(ERC20Address).transfer(msg.sender, amount + newval) */\n      0x20\n      mload(0x40)\n      dup1\n      dup4\n      sub\n      dup2\n      0x00\n      dup8\n      gas\n      call\n      iszero\n      dup1\n      iszero\n      tag_160\n      jumpi\n      returndatasize\n      0x00\n      dup1\n      returndatacopy\n      revert(0x00, returndatasize)\n    tag_160:\n      pop\n      pop\n      pop\n      pop\n      mload(0x40)\n      returndatasize\n      not(0x1f)\n      0x1f\n      dup3\n      add\n      and\n      dup3\n      add\n      dup1\n      0x40\n      mstore\n      pop\n      dup2\n      add\n      swap1\n      tag_161\n      swap2\n      swap1\n      tag_152\n      jump\t// in\n    tag_161:\n      pop\n        /* \"contracts/Token&NFTStaking/Contract.sol\":4426:4437  owenerERC20 */\n      and(sub(shl(0xa0, 0x01), 0x01), sload(0x02))\n        /* \"contracts/Token&NFTStaking/Contract.sol\":4414:4438  OwnerTokens[owenerERC20] */\n      0x00\n      swap1\n      dup2\n      mstore\n        /* \"contracts/Token&NFTStaking/Contract.sol\":4414:4425  OwnerTokens */\n      0x08\n        /* \"contracts/Token&NFTStaking/Contract.sol\":4414:4438  OwnerTokens[owenerERC20] */\n      0x20\n      mstore\n      0x40\n      dup2\n      keccak256\n        /* \"contracts/Token&NFTStaking/Contract.sol\":4414:4448  OwnerTokens[owenerERC20] -= newval */\n      dup1\n      sload\n        /* \"contracts/Token&NFTStaking/Contract.sol\":4442:4448  newval */\n      dup4\n      swap3\n        /* \"contracts/Token&NFTStaking/Contract.sol\":4414:4438  OwnerTokens[owenerERC20] */\n      swap1\n        /* \"contracts/Token&NFTStaking/Contract.sol\":4414:4448  OwnerTokens[owenerERC20] -= newval */\n      tag_162\n      swap1\n        /* \"contracts/Token&NFTStaking/Contract.sol\":4442:4448  newval */\n      dup5\n      swap1\n        /* \"contracts/Token&NFTStaking/Contract.sol\":4414:4448  OwnerTokens[owenerERC20] -= newval */\n      tag_154\n      jump\t// in\n    tag_162:\n      swap1\n      swap2\n      sstore\n      pop\n      pop\n        /* \"contracts/Token&NFTStaking/Contract.sol\":4477:4487  msg.sender */\n      caller\n        /* \"contracts/Token&NFTStaking/Contract.sol\":4469:4488  Details[msg.sender] */\n      0x00\n      swap1\n      dup2\n      mstore\n        /* \"contracts/Token&NFTStaking/Contract.sol\":4469:4476  Details */\n      0x06\n        /* \"contracts/Token&NFTStaking/Contract.sol\":4469:4488  Details[msg.sender] */\n      0x20\n      mstore\n      0x40\n      dup2\n      keccak256\n        /* \"contracts/Token&NFTStaking/Contract.sol\":4462:4488  delete Details[msg.sender] */\n      dup2\n      dup2\n      sstore\n      0x01\n      dup2\n      add\n      swap2\n      swap1\n      swap2\n      sstore\n      0x02\n      add\n      dup1\n      sload\n      not(0xff)\n      and\n      swap1\n      sstore\n      pop\n      pop\n        /* \"contracts/Token&NFTStaking/Contract.sol\":3734:4499  if (UserRate[msg.sender].check){... */\n    tag_155:\n        /* \"contracts/Token&NFTStaking/Contract.sol\":3632:4509  function Withdraw() public {... */\n      jump\t// out\n        /* \"@openzeppelin/contracts/access/Ownable.sol\":1831:1932  function renounceOwnership() public virtual onlyOwner {... */\n    tag_66:\n        /* \"@openzeppelin/contracts/access/Ownable.sol\":1094:1107  _checkOwner() */\n      tag_164\n        /* \"@openzeppelin/contracts/access/Ownable.sol\":1094:1105  _checkOwner */\n      tag_127\n        /* \"@openzeppelin/contracts/access/Ownable.sol\":1094:1107  _checkOwner() */\n      jump\t// in\n    tag_164:\n        /* \"@openzeppelin/contracts/access/Ownable.sol\":1895:1925  _transferOwnership(address(0)) */\n      tag_155\n        /* \"@openzeppelin/contracts/access/Ownable.sol\":1922:1923  0 */\n      0x00\n        /* \"@openzeppelin/contracts/access/Ownable.sol\":1895:1913  _transferOwnership */\n      tag_167\n        /* \"@openzeppelin/contracts/access/Ownable.sol\":1895:1925  _transferOwnership(address(0)) */\n      jump\t// in\n        /* \"contracts/Token&NFTStaking/Contract.sol\":2713:2875  function Utilization() public view returns(uint256) {... */\n    tag_68:\n        /* \"contracts/Token&NFTStaking/Contract.sol\":2826:2841  totalOwnerToken */\n      sload(0x04)\n        /* \"contracts/Token&NFTStaking/Contract.sol\":2806:2817  owenerERC20 */\n      and(sub(shl(0xa0, 0x01), 0x01), sload(0x02))\n        /* \"contracts/Token&NFTStaking/Contract.sol\":2756:2763  uint256 */\n      0x00\n        /* \"contracts/Token&NFTStaking/Contract.sol\":2794:2818  OwnerTokens[owenerERC20] */\n      swap1\n      dup2\n      mstore\n        /* \"contracts/Token&NFTStaking/Contract.sol\":2794:2805  OwnerTokens */\n      0x08\n        /* \"contracts/Token&NFTStaking/Contract.sol\":2794:2818  OwnerTokens[owenerERC20] */\n      0x20\n      mstore\n      0x40\n      dup2\n      keccak256\n      sload\n        /* \"contracts/Token&NFTStaking/Contract.sol\":2756:2763  uint256 */\n      swap1\n      swap2\n      dup3\n      swap2\n        /* \"contracts/Token&NFTStaking/Contract.sol\":2794:2824  OwnerTokens[owenerERC20] * 100 */\n      tag_169\n      swap1\n        /* \"contracts/Token&NFTStaking/Contract.sol\":2821:2824  100 */\n      0x64\n        /* \"contracts/Token&NFTStaking/Contract.sol\":2794:2824  OwnerTokens[owenerERC20] * 100 */\n      tag_170\n      jump\t// in\n    tag_169:\n        /* \"contracts/Token&NFTStaking/Contract.sol\":2793:2841  (OwnerTokens[owenerERC20] * 100)/totalOwnerToken */\n      tag_171\n      swap2\n      swap1\n      tag_172\n      jump\t// in\n    tag_171:\n        /* \"contracts/Token&NFTStaking/Contract.sol\":2775:2841  uint Persentage = (OwnerTokens[owenerERC20] * 100)/totalOwnerToken */\n      swap3\n        /* \"contracts/Token&NFTStaking/Contract.sol\":2713:2875  function Utilization() public view returns(uint256) {... */\n      swap2\n      pop\n      pop\n      jump\t// out\n        /* \"contracts/Token&NFTStaking/Contract.sol\":5689:6251  function calculateIntrest(address _to) public view returns(uint256){... */\n    tag_72:\n      sub(shl(0xa0, 0x01), 0x01)\n        /* \"contracts/Token&NFTStaking/Contract.sol\":5770:5783  UserRate[_to] */\n      dup2\n      and\n        /* \"contracts/Token&NFTStaking/Contract.sol\":5748:5755  uint256 */\n      0x00\n        /* \"contracts/Token&NFTStaking/Contract.sol\":5770:5783  UserRate[_to] */\n      swap1\n      dup2\n      mstore\n        /* \"contracts/Token&NFTStaking/Contract.sol\":5770:5778  UserRate */\n      0x09\n        /* \"contracts/Token&NFTStaking/Contract.sol\":5770:5783  UserRate[_to] */\n      0x20\n      mstore\n      0x40\n      dup2\n      keccak256\n        /* \"contracts/Token&NFTStaking/Contract.sol\":5770:5789  UserRate[_to].check */\n      0x02\n      add\n      sload\n      0xff\n      and\n        /* \"contracts/Token&NFTStaking/Contract.sol\":5766:6245  if (UserRate[_to].check)... */\n      iszero\n      tag_174\n      jumpi\n      sub(shl(0xa0, 0x01), 0x01)\n        /* \"contracts/Token&NFTStaking/Contract.sol\":5902:5914  Details[_to] */\n      dup3\n      and\n        /* \"contracts/Token&NFTStaking/Contract.sol\":5813:5827  uint RewardEst */\n      0x00\n        /* \"contracts/Token&NFTStaking/Contract.sol\":5902:5914  Details[_to] */\n      swap1\n      dup2\n      mstore\n        /* \"contracts/Token&NFTStaking/Contract.sol\":5902:5909  Details */\n      0x06\n        /* \"contracts/Token&NFTStaking/Contract.sol\":5902:5914  Details[_to] */\n      0x20\n      mstore\n      0x40\n      dup2\n      keccak256\n        /* \"contracts/Token&NFTStaking/Contract.sol\":5902:5924  Details[_to].timestake */\n      0x01\n      add\n      sload\n        /* \"contracts/Token&NFTStaking/Contract.sol\":5926:5928  60 */\n      0x3c\n      swap1\n        /* \"contracts/Token&NFTStaking/Contract.sol\":5884:5924  block.timestamp - Details[_to].timestake */\n      tag_175\n      swap1\n        /* \"contracts/Token&NFTStaking/Contract.sol\":5884:5899  block.timestamp */\n      timestamp\n        /* \"contracts/Token&NFTStaking/Contract.sol\":5884:5924  block.timestamp - Details[_to].timestake */\n      tag_154\n      jump\t// in\n    tag_175:\n        /* \"contracts/Token&NFTStaking/Contract.sol\":5883:5928  (block.timestamp - Details[_to].timestake)/60 */\n      tag_176\n      swap2\n      swap1\n      tag_172\n      jump\t// in\n    tag_176:\n      sub(shl(0xa0, 0x01), 0x01)\n        /* \"contracts/Token&NFTStaking/Contract.sol\":5856:5869  UserRate[_to] */\n      dup5\n      and\n      0x00\n      swap1\n      dup2\n      mstore\n        /* \"contracts/Token&NFTStaking/Contract.sol\":5856:5864  UserRate */\n      0x09\n        /* \"contracts/Token&NFTStaking/Contract.sol\":5856:5869  UserRate[_to] */\n      0x20\n      swap1\n      dup2\n      mstore\n      0x40\n      dup1\n      dup4\n      keccak256\n        /* \"contracts/Token&NFTStaking/Contract.sol\":5856:5878  UserRate[_to].userRate */\n      sload\n        /* \"contracts/Token&NFTStaking/Contract.sol\":5831:5838  Details */\n      0x06\n        /* \"contracts/Token&NFTStaking/Contract.sol\":5831:5843  Details[_to] */\n      swap1\n      swap3\n      mstore\n      swap1\n      swap2\n      keccak256\n        /* \"contracts/Token&NFTStaking/Contract.sol\":5831:5853  Details[_to].deposited */\n      sload\n        /* \"contracts/Token&NFTStaking/Contract.sol\":5831:5878  Details[_to].deposited * UserRate[_to].userRate */\n      tag_177\n      swap2\n        /* \"contracts/Token&NFTStaking/Contract.sol\":5856:5878  UserRate[_to].userRate */\n      swap1\n        /* \"contracts/Token&NFTStaking/Contract.sol\":5831:5878  Details[_to].deposited * UserRate[_to].userRate */\n      tag_170\n      jump\t// in\n    tag_177:\n        /* \"contracts/Token&NFTStaking/Contract.sol\":5830:5929  (Details[_to].deposited * UserRate[_to].userRate) * ((block.timestamp - Details[_to].timestake)/60) */\n      tag_178\n      swap2\n      swap1\n      tag_170\n      jump\t// in\n    tag_178:\n        /* \"contracts/Token&NFTStaking/Contract.sol\":5813:5929  uint RewardEst = (Details[_to].deposited * UserRate[_to].userRate) * ((block.timestamp - Details[_to].timestake)/60) */\n      swap1\n      pop\n        /* \"contracts/Token&NFTStaking/Contract.sol\":5943:5959  uint TotalReward */\n      0x00\n        /* \"contracts/Token&NFTStaking/Contract.sol\":5962:5977  RewardEst / 100 */\n      tag_179\n        /* \"contracts/Token&NFTStaking/Contract.sol\":5974:5977  100 */\n      0x64\n        /* \"contracts/Token&NFTStaking/Contract.sol\":5813:5929  uint RewardEst = (Details[_to].deposited * UserRate[_to].userRate) * ((block.timestamp - Details[_to].timestake)/60) */\n      dup4\n        /* \"contracts/Token&NFTStaking/Contract.sol\":5962:5977  RewardEst / 100 */\n      tag_172\n      jump\t// in\n    tag_179:\n        /* \"contracts/Token&NFTStaking/Contract.sol\":5943:5977  uint TotalReward = RewardEst / 100 */\n      swap5\n        /* \"contracts/Token&NFTStaking/Contract.sol\":5689:6251  function calculateIntrest(address _to) public view returns(uint256){... */\n      swap4\n      pop\n      pop\n      pop\n      pop\n      jump\t// out\n        /* \"contracts/Token&NFTStaking/Contract.sol\":5766:6245  if (UserRate[_to].check)... */\n    tag_174:\n      sub(shl(0xa0, 0x01), 0x01)\n        /* \"contracts/Token&NFTStaking/Contract.sol\":6127:6139  Details[_to] */\n      dup3\n      and\n        /* \"contracts/Token&NFTStaking/Contract.sol\":6056:6070  uint RewardEst */\n      0x00\n        /* \"contracts/Token&NFTStaking/Contract.sol\":6127:6139  Details[_to] */\n      swap1\n      dup2\n      mstore\n        /* \"contracts/Token&NFTStaking/Contract.sol\":6127:6134  Details */\n      0x06\n        /* \"contracts/Token&NFTStaking/Contract.sol\":6127:6139  Details[_to] */\n      0x20\n      mstore\n      0x40\n      dup2\n      keccak256\n        /* \"contracts/Token&NFTStaking/Contract.sol\":6127:6149  Details[_to].timestake */\n      0x01\n      add\n      sload\n        /* \"contracts/Token&NFTStaking/Contract.sol\":6151:6153  60 */\n      0x3c\n      swap1\n        /* \"contracts/Token&NFTStaking/Contract.sol\":6109:6149  block.timestamp - Details[_to].timestake */\n      tag_181\n      swap1\n        /* \"contracts/Token&NFTStaking/Contract.sol\":6109:6124  block.timestamp */\n      timestamp\n        /* \"contracts/Token&NFTStaking/Contract.sol\":6109:6149  block.timestamp - Details[_to].timestake */\n      tag_154\n      jump\t// in\n    tag_181:\n        /* \"contracts/Token&NFTStaking/Contract.sol\":6108:6153  (block.timestamp - Details[_to].timestake)/60 */\n      tag_182\n      swap2\n      swap1\n      tag_172\n      jump\t// in\n    tag_182:\n        /* \"contracts/Token&NFTStaking/Contract.sol\":6099:6103  rate */\n      sload(0x05)\n      sub(shl(0xa0, 0x01), 0x01)\n        /* \"contracts/Token&NFTStaking/Contract.sol\":6074:6086  Details[_to] */\n      dup6\n      and\n      0x00\n      swap1\n      dup2\n      mstore\n        /* \"contracts/Token&NFTStaking/Contract.sol\":6074:6081  Details */\n      0x06\n        /* \"contracts/Token&NFTStaking/Contract.sol\":6074:6086  Details[_to] */\n      0x20\n      mstore\n      0x40\n      swap1\n      keccak256\n        /* \"contracts/Token&NFTStaking/Contract.sol\":6074:6096  Details[_to].deposited */\n      sload\n        /* \"contracts/Token&NFTStaking/Contract.sol\":6074:6103  Details[_to].deposited * rate */\n      tag_177\n      swap2\n        /* \"contracts/Token&NFTStaking/Contract.sol\":6099:6103  rate */\n      swap1\n        /* \"contracts/Token&NFTStaking/Contract.sol\":6074:6103  Details[_to].deposited * rate */\n      tag_170\n      jump\t// in\n        /* \"contracts/Token&NFTStaking/Contract.sol\":5766:6245  if (UserRate[_to].check)... */\n    tag_180:\n        /* \"contracts/Token&NFTStaking/Contract.sol\":5689:6251  function calculateIntrest(address _to) public view returns(uint256){... */\n      swap2\n      swap1\n      pop\n      jump\t// out\n        /* \"contracts/Token&NFTStaking/Contract.sol\":7361:7723  function DepositNFT(uint256 tokenIds,uint _rate) public {... */\n    tag_80:\n        /* \"contracts/Token&NFTStaking/Contract.sol\":7443:7453  msg.sender */\n      caller\n        /* \"contracts/Token&NFTStaking/Contract.sol\":7435:7454  Details[msg.sender] */\n      0x00\n      swap1\n      dup2\n      mstore\n        /* \"contracts/Token&NFTStaking/Contract.sol\":7435:7442  Details */\n      0x06\n        /* \"contracts/Token&NFTStaking/Contract.sol\":7435:7454  Details[msg.sender] */\n      0x20\n      mstore\n      0x40\n      swap1\n      keccak256\n        /* \"contracts/Token&NFTStaking/Contract.sol\":7435:7460  Details[msg.sender].check */\n      0x02\n      add\n      sload\n      0xff\n      and\n        /* \"contracts/Token&NFTStaking/Contract.sol\":7427:7484  require(Details[msg.sender].check,\"First Deposit Tokens\") */\n      tag_188\n      jumpi\n      mload(0x40)\n      shl(0xe5, 0x461bcd)\n      dup2\n      mstore\n        /* \"#utility.yul\":5727:5729   */\n      0x20\n        /* \"contracts/Token&NFTStaking/Contract.sol\":7427:7484  require(Details[msg.sender].check,\"First Deposit Tokens\") */\n      0x04\n      dup3\n      add\n        /* \"#utility.yul\":5709:5730   */\n      mstore\n        /* \"#utility.yul\":5766:5768   */\n      0x14\n        /* \"#utility.yul\":5746:5764   */\n      0x24\n      dup3\n      add\n        /* \"#utility.yul\":5739:5769   */\n      mstore\n      shl(0x60, 0x4669727374204465706f73697420546f6b656e73)\n        /* \"#utility.yul\":5785:5803   */\n      0x44\n      dup3\n      add\n        /* \"#utility.yul\":5778:5828   */\n      mstore\n        /* \"#utility.yul\":5845:5863   */\n      0x64\n      add\n        /* \"contracts/Token&NFTStaking/Contract.sol\":7427:7484  require(Details[msg.sender].check,\"First Deposit Tokens\") */\n      tag_117\n        /* \"#utility.yul\":5525:5869   */\n      jump\n        /* \"contracts/Token&NFTStaking/Contract.sol\":7427:7484  require(Details[msg.sender].check,\"First Deposit Tokens\") */\n    tag_188:\n        /* \"contracts/Token&NFTStaking/Contract.sol\":7511:7521  msg.sender */\n      caller\n        /* \"contracts/Token&NFTStaking/Contract.sol\":7502:7522  UserRate[msg.sender] */\n      0x00\n      swap1\n      dup2\n      mstore\n        /* \"contracts/Token&NFTStaking/Contract.sol\":7502:7510  UserRate */\n      0x09\n        /* \"contracts/Token&NFTStaking/Contract.sol\":7502:7522  UserRate[msg.sender] */\n      0x20\n      mstore\n      0x40\n      swap1\n      keccak256\n        /* \"contracts/Token&NFTStaking/Contract.sol\":7502:7528  UserRate[msg.sender].check */\n      0x02\n      add\n      sload\n      0xff\n      and\n        /* \"contracts/Token&NFTStaking/Contract.sol\":7494:7565  require(UserRate[msg.sender].check,\"Please Unstake your deposited NFT\") */\n      tag_191\n      jumpi\n      mload(0x40)\n      shl(0xe5, 0x461bcd)\n      dup2\n      mstore\n        /* \"#utility.yul\":6076:6078   */\n      0x20\n        /* \"contracts/Token&NFTStaking/Contract.sol\":7494:7565  require(UserRate[msg.sender].check,\"Please Unstake your deposited NFT\") */\n      0x04\n      dup3\n      add\n        /* \"#utility.yul\":6058:6079   */\n      mstore\n        /* \"#utility.yul\":6115:6117   */\n      0x21\n        /* \"#utility.yul\":6095:6113   */\n      0x24\n      dup3\n      add\n        /* \"#utility.yul\":6088:6118   */\n      mstore\n        /* \"#utility.yul\":6154:6188   */\n      0x506c6561736520556e7374616b6520796f7572206465706f7369746564204e46\n        /* \"#utility.yul\":6134:6152   */\n      0x44\n      dup3\n      add\n        /* \"#utility.yul\":6127:6189   */\n      mstore\n      shl(0xfa, 0x15)\n        /* \"#utility.yul\":6205:6223   */\n      0x64\n      dup3\n      add\n        /* \"#utility.yul\":6198:6229   */\n      mstore\n        /* \"#utility.yul\":6246:6265   */\n      0x84\n      add\n        /* \"contracts/Token&NFTStaking/Contract.sol\":7494:7565  require(UserRate[msg.sender].check,\"Please Unstake your deposited NFT\") */\n      tag_117\n        /* \"#utility.yul\":5874:6271   */\n      jump\n        /* \"contracts/Token&NFTStaking/Contract.sol\":7494:7565  require(UserRate[msg.sender].check,\"Please Unstake your deposited NFT\") */\n    tag_191:\n        /* \"contracts/Token&NFTStaking/Contract.sol\":7598:7628  StakerNFT(_rate,tokenIds,true) */\n      0x40\n      dup1\n      mload\n      0x60\n      dup2\n      add\n      dup3\n      mstore\n      dup3\n      dup2\n      mstore\n      0x20\n      dup1\n      dup3\n      add\n      dup6\n      dup2\n      mstore\n        /* \"contracts/Token&NFTStaking/Contract.sol\":7623:7627  true */\n      0x01\n        /* \"contracts/Token&NFTStaking/Contract.sol\":7598:7628  StakerNFT(_rate,tokenIds,true) */\n      dup4\n      dup6\n      add\n      dup2\n      dup2\n      mstore\n        /* \"contracts/Token&NFTStaking/Contract.sol\":7584:7594  msg.sender */\n      caller\n      0x00\n        /* \"contracts/Token&NFTStaking/Contract.sol\":7575:7595  UserRate[msg.sender] */\n      dup2\n      dup2\n      mstore\n        /* \"contracts/Token&NFTStaking/Contract.sol\":7575:7583  UserRate */\n      0x09\n        /* \"contracts/Token&NFTStaking/Contract.sol\":7575:7595  UserRate[msg.sender] */\n      swap1\n      swap6\n      mstore\n      swap4\n      dup7\n      swap1\n      keccak256\n        /* \"contracts/Token&NFTStaking/Contract.sol\":7575:7628  UserRate[msg.sender] = StakerNFT(_rate,tokenIds,true) */\n      swap5\n      mload\n      dup6\n      sstore\n      swap2\n      mload\n      dup5\n      dup3\n      add\n      sstore\n      swap1\n      mload\n      0x02\n      swap1\n      swap4\n      add\n      dup1\n      sload\n      not(0xff)\n      and\n      swap4\n      iszero\n      iszero\n      swap4\n      swap1\n      swap4\n      or\n      swap1\n      swap3\n      sstore\n        /* \"contracts/Token&NFTStaking/Contract.sol\":7647:7660  ERC721address */\n      swap1\n      sload\n        /* \"contracts/Token&NFTStaking/Contract.sol\":7639:7716  IERC721(ERC721address).safeTransferFrom(msg.sender,address(this),tokenIds,\"\") */\n      swap2\n      mload\n      shl(0xe1, 0x5c46a7ef)\n      dup2\n      mstore\n      sub(shl(0xa0, 0x01), 0x01)\n        /* \"contracts/Token&NFTStaking/Contract.sol\":7647:7660  ERC721address */\n      swap1\n      swap3\n      and\n      swap2\n        /* \"contracts/Token&NFTStaking/Contract.sol\":7639:7678  IERC721(ERC721address).safeTransferFrom */\n      0xb88d4fde\n      swap2\n        /* \"contracts/Token&NFTStaking/Contract.sol\":7639:7716  IERC721(ERC721address).safeTransferFrom(msg.sender,address(this),tokenIds,\"\") */\n      tag_194\n      swap2\n        /* \"contracts/Token&NFTStaking/Contract.sol\":7698:7702  this */\n      address\n      swap1\n        /* \"contracts/Token&NFTStaking/Contract.sol\":7598:7628  StakerNFT(_rate,tokenIds,true) */\n      dup8\n      swap1\n        /* \"contracts/Token&NFTStaking/Contract.sol\":7639:7716  IERC721(ERC721address).safeTransferFrom(msg.sender,address(this),tokenIds,\"\") */\n      0x04\n      add\n      tag_120\n      jump\t// in\n    tag_194:\n      0x00\n      mload(0x40)\n      dup1\n      dup4\n      sub\n      dup2\n      0x00\n      dup8\n      dup1\n      extcodesize\n      iszero\n      dup1\n      iszero\n      tag_195\n      jumpi\n      0x00\n      dup1\n      revert\n    tag_195:\n      pop\n      gas\n      call\n      iszero\n      dup1\n      iszero\n      tag_197\n      jumpi\n      returndatasize\n      0x00\n      dup1\n      returndatacopy\n      revert(0x00, returndatasize)\n    tag_197:\n      pop\n      pop\n      pop\n      pop\n        /* \"contracts/Token&NFTStaking/Contract.sol\":7361:7723  function DepositNFT(uint256 tokenIds,uint _rate) public {... */\n      pop\n      pop\n      jump\t// out\n        /* \"contracts/Token&NFTStaking/Contract.sol\":2300:2505  function AdminWithDrawToken(uint amount) public onlyOwner{... */\n    tag_86:\n        /* \"@openzeppelin/contracts/access/Ownable.sol\":1094:1107  _checkOwner() */\n      tag_199\n        /* \"@openzeppelin/contracts/access/Ownable.sol\":1094:1105  _checkOwner */\n      tag_127\n        /* \"@openzeppelin/contracts/access/Ownable.sol\":1094:1107  _checkOwner() */\n      jump\t// in\n    tag_199:\n        /* \"contracts/Token&NFTStaking/Contract.sol\":2379:2389  msg.sender */\n      caller\n        /* \"contracts/Token&NFTStaking/Contract.sol\":2367:2390  OwnerTokens[msg.sender] */\n      0x00\n      swap1\n      dup2\n      mstore\n        /* \"contracts/Token&NFTStaking/Contract.sol\":2367:2378  OwnerTokens */\n      0x08\n        /* \"contracts/Token&NFTStaking/Contract.sol\":2367:2390  OwnerTokens[msg.sender] */\n      0x20\n      mstore\n      0x40\n      dup2\n      keccak256\n        /* \"contracts/Token&NFTStaking/Contract.sol\":2367:2400  OwnerTokens[msg.sender] -= amount */\n      dup1\n      sload\n        /* \"contracts/Token&NFTStaking/Contract.sol\":2394:2400  amount */\n      dup4\n      swap3\n        /* \"contracts/Token&NFTStaking/Contract.sol\":2367:2390  OwnerTokens[msg.sender] */\n      swap1\n        /* \"contracts/Token&NFTStaking/Contract.sol\":2367:2400  OwnerTokens[msg.sender] -= amount */\n      tag_201\n      swap1\n        /* \"contracts/Token&NFTStaking/Contract.sol\":2394:2400  amount */\n      dup5\n      swap1\n        /* \"contracts/Token&NFTStaking/Contract.sol\":2367:2400  OwnerTokens[msg.sender] -= amount */\n      tag_154\n      jump\t// in\n    tag_201:\n      swap3\n      pop\n      pop\n      dup2\n      swap1\n      sstore\n      pop\n        /* \"contracts/Token&NFTStaking/Contract.sol\":2429:2435  amount */\n      dup1\n        /* \"contracts/Token&NFTStaking/Contract.sol\":2410:2425  totalOwnerToken */\n      0x04\n      0x00\n        /* \"contracts/Token&NFTStaking/Contract.sol\":2410:2435  totalOwnerToken -= amount */\n      dup3\n      dup3\n      sload\n      tag_202\n      swap2\n      swap1\n      tag_154\n      jump\t// in\n    tag_202:\n      swap1\n      swap2\n      sstore\n      pop\n      pop\n        /* \"contracts/Token&NFTStaking/Contract.sol\":2452:2464  ERC20Address */\n      sload(0x03)\n        /* \"contracts/Token&NFTStaking/Contract.sol\":2445:2498  IERC20(ERC20Address).safeTransfer(msg.sender, amount) */\n      tag_133\n      swap1\n      sub(shl(0xa0, 0x01), 0x01)\n        /* \"contracts/Token&NFTStaking/Contract.sol\":2452:2464  ERC20Address */\n      and\n        /* \"contracts/Token&NFTStaking/Contract.sol\":2479:2489  msg.sender */\n      caller\n        /* \"contracts/Token&NFTStaking/Contract.sol\":2491:2497  amount */\n      dup4\n        /* \"contracts/Token&NFTStaking/Contract.sol\":2445:2478  IERC20(ERC20Address).safeTransfer */\n      tag_204\n        /* \"contracts/Token&NFTStaking/Contract.sol\":2445:2498  IERC20(ERC20Address).safeTransfer(msg.sender, amount) */\n      jump\t// in\n        /* \"contracts/Token&NFTStaking/Contract.sol\":1818:2108  function AdminAddToken(uint _amount) public onlyOwner{... */\n    tag_92:\n        /* \"@openzeppelin/contracts/access/Ownable.sol\":1094:1107  _checkOwner() */\n      tag_206\n        /* \"@openzeppelin/contracts/access/Ownable.sol\":1094:1105  _checkOwner */\n      tag_127\n        /* \"@openzeppelin/contracts/access/Ownable.sol\":1094:1107  _checkOwner() */\n      jump\t// in\n    tag_206:\n        /* \"contracts/Token&NFTStaking/Contract.sol\":1901:1912  owenerERC20 */\n      and(sub(shl(0xa0, 0x01), 0x01), sload(0x02))\n        /* \"contracts/Token&NFTStaking/Contract.sol\":1889:1899  msg.sender */\n      caller\n        /* \"contracts/Token&NFTStaking/Contract.sol\":1889:1912  msg.sender==owenerERC20 */\n      eq\n        /* \"contracts/Token&NFTStaking/Contract.sol\":1881:1939  require(msg.sender==owenerERC20,\"Only Owner can transfer\") */\n      tag_208\n      jumpi\n      mload(0x40)\n      shl(0xe5, 0x461bcd)\n      dup2\n      mstore\n        /* \"#utility.yul\":6478:6480   */\n      0x20\n        /* \"contracts/Token&NFTStaking/Contract.sol\":1881:1939  require(msg.sender==owenerERC20,\"Only Owner can transfer\") */\n      0x04\n      dup3\n      add\n        /* \"#utility.yul\":6460:6481   */\n      mstore\n        /* \"#utility.yul\":6517:6519   */\n      0x17\n        /* \"#utility.yul\":6497:6515   */\n      0x24\n      dup3\n      add\n        /* \"#utility.yul\":6490:6520   */\n      mstore\n        /* \"#utility.yul\":6556:6581   */\n      0x4f6e6c79204f776e65722063616e207472616e73666572000000000000000000\n        /* \"#utility.yul\":6536:6554   */\n      0x44\n      dup3\n      add\n        /* \"#utility.yul\":6529:6582   */\n      mstore\n        /* \"#utility.yul\":6599:6617   */\n      0x64\n      add\n        /* \"contracts/Token&NFTStaking/Contract.sol\":1881:1939  require(msg.sender==owenerERC20,\"Only Owner can transfer\") */\n      tag_117\n        /* \"#utility.yul\":6276:6623   */\n      jump\n        /* \"contracts/Token&NFTStaking/Contract.sol\":1881:1939  require(msg.sender==owenerERC20,\"Only Owner can transfer\") */\n    tag_208:\n        /* \"contracts/Token&NFTStaking/Contract.sol\":1961:1971  msg.sender */\n      caller\n        /* \"contracts/Token&NFTStaking/Contract.sol\":1949:1972  OwnerTokens[msg.sender] */\n      0x00\n      swap1\n      dup2\n      mstore\n        /* \"contracts/Token&NFTStaking/Contract.sol\":1949:1960  OwnerTokens */\n      0x08\n        /* \"contracts/Token&NFTStaking/Contract.sol\":1949:1972  OwnerTokens[msg.sender] */\n      0x20\n      mstore\n      0x40\n      dup2\n      keccak256\n        /* \"contracts/Token&NFTStaking/Contract.sol\":1949:1982  OwnerTokens[msg.sender] +=_amount */\n      dup1\n      sload\n        /* \"contracts/Token&NFTStaking/Contract.sol\":1975:1982  _amount */\n      dup4\n      swap3\n        /* \"contracts/Token&NFTStaking/Contract.sol\":1949:1972  OwnerTokens[msg.sender] */\n      swap1\n        /* \"contracts/Token&NFTStaking/Contract.sol\":1949:1982  OwnerTokens[msg.sender] +=_amount */\n      tag_211\n      swap1\n        /* \"contracts/Token&NFTStaking/Contract.sol\":1975:1982  _amount */\n      dup5\n      swap1\n        /* \"contracts/Token&NFTStaking/Contract.sol\":1949:1982  OwnerTokens[msg.sender] +=_amount */\n      tag_146\n      jump\t// in\n    tag_211:\n      swap3\n      pop\n      pop\n      dup2\n      swap1\n      sstore\n      pop\n        /* \"contracts/Token&NFTStaking/Contract.sol\":2011:2018  _amount */\n      dup1\n        /* \"contracts/Token&NFTStaking/Contract.sol\":1992:2007  totalOwnerToken */\n      0x04\n      0x00\n        /* \"contracts/Token&NFTStaking/Contract.sol\":1992:2018  totalOwnerToken += _amount */\n      dup3\n      dup3\n      sload\n      tag_212\n      swap2\n      swap1\n      tag_146\n      jump\t// in\n    tag_212:\n      swap1\n      swap2\n      sstore\n      pop\n      pop\n        /* \"contracts/Token&NFTStaking/Contract.sol\":2035:2047  ERC20Address */\n      sload(0x03)\n        /* \"contracts/Token&NFTStaking/Contract.sol\":2028:2101  IERC20(ERC20Address).safeTransferFrom(msg.sender, address(this) ,_amount) */\n      tag_133\n      swap1\n      sub(shl(0xa0, 0x01), 0x01)\n        /* \"contracts/Token&NFTStaking/Contract.sol\":2035:2047  ERC20Address */\n      and\n        /* \"contracts/Token&NFTStaking/Contract.sol\":2066:2076  msg.sender */\n      caller\n        /* \"contracts/Token&NFTStaking/Contract.sol\":2086:2090  this */\n      address\n        /* \"contracts/Token&NFTStaking/Contract.sol\":2093:2100  _amount */\n      dup5\n        /* \"contracts/Token&NFTStaking/Contract.sol\":2028:2065  IERC20(ERC20Address).safeTransferFrom */\n      tag_134\n        /* \"contracts/Token&NFTStaking/Contract.sol\":2028:2101  IERC20(ERC20Address).safeTransferFrom(msg.sender, address(this) ,_amount) */\n      jump\t// in\n        /* \"contracts/Token&NFTStaking/Contract.sol\":4702:5425  function showReward(address _to) public view returns(uint result)... */\n    tag_95:\n      sub(shl(0xa0, 0x01), 0x01)\n        /* \"contracts/Token&NFTStaking/Contract.sol\":4786:4799  UserRate[_to] */\n      dup2\n      and\n        /* \"contracts/Token&NFTStaking/Contract.sol\":4755:4766  uint result */\n      0x00\n        /* \"contracts/Token&NFTStaking/Contract.sol\":4786:4799  UserRate[_to] */\n      swap1\n      dup2\n      mstore\n        /* \"contracts/Token&NFTStaking/Contract.sol\":4786:4794  UserRate */\n      0x09\n        /* \"contracts/Token&NFTStaking/Contract.sol\":4786:4799  UserRate[_to] */\n      0x20\n      mstore\n      0x40\n      dup2\n      keccak256\n        /* \"contracts/Token&NFTStaking/Contract.sol\":4786:4805  UserRate[_to].check */\n      0x02\n      add\n      sload\n      0xff\n      and\n        /* \"contracts/Token&NFTStaking/Contract.sol\":4782:5410  if (UserRate[_to].check)... */\n      iszero\n      tag_215\n      jumpi\n      sub(shl(0xa0, 0x01), 0x01)\n        /* \"contracts/Token&NFTStaking/Contract.sol\":4918:4930  Details[_to] */\n      dup3\n      and\n        /* \"contracts/Token&NFTStaking/Contract.sol\":4829:4843  uint RewardEst */\n      0x00\n        /* \"contracts/Token&NFTStaking/Contract.sol\":4918:4930  Details[_to] */\n      swap1\n      dup2\n      mstore\n        /* \"contracts/Token&NFTStaking/Contract.sol\":4918:4925  Details */\n      0x06\n        /* \"contracts/Token&NFTStaking/Contract.sol\":4918:4930  Details[_to] */\n      0x20\n      mstore\n      0x40\n      dup2\n      keccak256\n        /* \"contracts/Token&NFTStaking/Contract.sol\":4918:4940  Details[_to].timestake */\n      0x01\n      add\n      sload\n        /* \"contracts/Token&NFTStaking/Contract.sol\":4942:4944  60 */\n      0x3c\n      swap1\n        /* \"contracts/Token&NFTStaking/Contract.sol\":4900:4940  block.timestamp - Details[_to].timestake */\n      tag_216\n      swap1\n        /* \"contracts/Token&NFTStaking/Contract.sol\":4900:4915  block.timestamp */\n      timestamp\n        /* \"contracts/Token&NFTStaking/Contract.sol\":4900:4940  block.timestamp - Details[_to].timestake */\n      tag_154\n      jump\t// in\n    tag_216:\n        /* \"contracts/Token&NFTStaking/Contract.sol\":4899:4944  (block.timestamp - Details[_to].timestake)/60 */\n      tag_217\n      swap2\n      swap1\n      tag_172\n      jump\t// in\n    tag_217:\n      sub(shl(0xa0, 0x01), 0x01)\n        /* \"contracts/Token&NFTStaking/Contract.sol\":4872:4885  UserRate[_to] */\n      dup5\n      and\n      0x00\n      swap1\n      dup2\n      mstore\n        /* \"contracts/Token&NFTStaking/Contract.sol\":4872:4880  UserRate */\n      0x09\n        /* \"contracts/Token&NFTStaking/Contract.sol\":4872:4885  UserRate[_to] */\n      0x20\n      swap1\n      dup2\n      mstore\n      0x40\n      dup1\n      dup4\n      keccak256\n        /* \"contracts/Token&NFTStaking/Contract.sol\":4872:4894  UserRate[_to].userRate */\n      sload\n        /* \"contracts/Token&NFTStaking/Contract.sol\":4847:4854  Details */\n      0x06\n        /* \"contracts/Token&NFTStaking/Contract.sol\":4847:4859  Details[_to] */\n      swap1\n      swap3\n      mstore\n      swap1\n      swap2\n      keccak256\n        /* \"contracts/Token&NFTStaking/Contract.sol\":4847:4869  Details[_to].deposited */\n      sload\n        /* \"contracts/Token&NFTStaking/Contract.sol\":4847:4894  Details[_to].deposited * UserRate[_to].userRate */\n      tag_218\n      swap2\n        /* \"contracts/Token&NFTStaking/Contract.sol\":4872:4894  UserRate[_to].userRate */\n      swap1\n        /* \"contracts/Token&NFTStaking/Contract.sol\":4847:4894  Details[_to].deposited * UserRate[_to].userRate */\n      tag_170\n      jump\t// in\n    tag_218:\n        /* \"contracts/Token&NFTStaking/Contract.sol\":4846:4945  (Details[_to].deposited * UserRate[_to].userRate) * ((block.timestamp - Details[_to].timestake)/60) */\n      tag_219\n      swap2\n      swap1\n      tag_170\n      jump\t// in\n    tag_219:\n        /* \"contracts/Token&NFTStaking/Contract.sol\":4829:4945  uint RewardEst = (Details[_to].deposited * UserRate[_to].userRate) * ((block.timestamp - Details[_to].timestake)/60) */\n      swap1\n      pop\n        /* \"contracts/Token&NFTStaking/Contract.sol\":4959:4975  uint TotalReward */\n      0x00\n        /* \"contracts/Token&NFTStaking/Contract.sol\":4978:4993  RewardEst / 100 */\n      tag_220\n        /* \"contracts/Token&NFTStaking/Contract.sol\":4990:4993  100 */\n      0x64\n        /* \"contracts/Token&NFTStaking/Contract.sol\":4829:4945  uint RewardEst = (Details[_to].deposited * UserRate[_to].userRate) * ((block.timestamp - Details[_to].timestake)/60) */\n      dup4\n        /* \"contracts/Token&NFTStaking/Contract.sol\":4978:4993  RewardEst / 100 */\n      tag_172\n      jump\t// in\n    tag_220:\n      sub(shl(0xa0, 0x01), 0x01)\n        /* \"contracts/Token&NFTStaking/Contract.sol\":5030:5042  Details[_to] */\n      dup6\n      and\n      0x00\n      swap1\n      dup2\n      mstore\n        /* \"contracts/Token&NFTStaking/Contract.sol\":5030:5037  Details */\n      0x06\n        /* \"contracts/Token&NFTStaking/Contract.sol\":5030:5042  Details[_to] */\n      0x20\n      mstore\n      0x40\n      swap1\n      keccak256\n        /* \"contracts/Token&NFTStaking/Contract.sol\":5030:5052  Details[_to].deposited */\n      sload\n        /* \"contracts/Token&NFTStaking/Contract.sol\":4959:4993  uint TotalReward = RewardEst / 100 */\n      swap1\n      swap2\n      pop\n        /* \"contracts/Token&NFTStaking/Contract.sol\":5016:5052  TotalReward + Details[_to].deposited */\n      tag_221\n      swap1\n        /* \"contracts/Token&NFTStaking/Contract.sol\":4959:4993  uint TotalReward = RewardEst / 100 */\n      dup3\n        /* \"contracts/Token&NFTStaking/Contract.sol\":5016:5052  TotalReward + Details[_to].deposited */\n      tag_146\n      jump\t// in\n    tag_221:\n        /* \"contracts/Token&NFTStaking/Contract.sol\":5007:5052  result = TotalReward + Details[_to].deposited */\n      swap3\n      pop\n        /* \"contracts/Token&NFTStaking/Contract.sol\":5073:5099  result/1000000000000000000 */\n      tag_179\n        /* \"contracts/Token&NFTStaking/Contract.sol\":5080:5099  1000000000000000000 */\n      0x0de0b6b3a7640000\n        /* \"contracts/Token&NFTStaking/Contract.sol\":5007:5052  result = TotalReward + Details[_to].deposited */\n      dup5\n        /* \"contracts/Token&NFTStaking/Contract.sol\":5073:5099  result/1000000000000000000 */\n      tag_172\n      jump\t// in\n        /* \"contracts/Token&NFTStaking/Contract.sol\":4782:5410  if (UserRate[_to].check)... */\n    tag_215:\n      sub(shl(0xa0, 0x01), 0x01)\n        /* \"contracts/Token&NFTStaking/Contract.sol\":5218:5230  Details[_to] */\n      dup3\n      and\n        /* \"contracts/Token&NFTStaking/Contract.sol\":5147:5161  uint RewardEst */\n      0x00\n        /* \"contracts/Token&NFTStaking/Contract.sol\":5218:5230  Details[_to] */\n      swap1\n      dup2\n      mstore\n        /* \"contracts/Token&NFTStaking/Contract.sol\":5218:5225  Details */\n      0x06\n        /* \"contracts/Token&NFTStaking/Contract.sol\":5218:5230  Details[_to] */\n      0x20\n      mstore\n      0x40\n      dup2\n      keccak256\n        /* \"contracts/Token&NFTStaking/Contract.sol\":5218:5240  Details[_to].timestake */\n      0x01\n      add\n      sload\n        /* \"contracts/Token&NFTStaking/Contract.sol\":5242:5244  60 */\n      0x3c\n      swap1\n        /* \"contracts/Token&NFTStaking/Contract.sol\":5200:5240  block.timestamp - Details[_to].timestake */\n      tag_224\n      swap1\n        /* \"contracts/Token&NFTStaking/Contract.sol\":5200:5215  block.timestamp */\n      timestamp\n        /* \"contracts/Token&NFTStaking/Contract.sol\":5200:5240  block.timestamp - Details[_to].timestake */\n      tag_154\n      jump\t// in\n    tag_224:\n        /* \"contracts/Token&NFTStaking/Contract.sol\":5199:5244  (block.timestamp - Details[_to].timestake)/60 */\n      tag_225\n      swap2\n      swap1\n      tag_172\n      jump\t// in\n    tag_225:\n        /* \"contracts/Token&NFTStaking/Contract.sol\":5190:5194  rate */\n      sload(0x05)\n      sub(shl(0xa0, 0x01), 0x01)\n        /* \"contracts/Token&NFTStaking/Contract.sol\":5165:5177  Details[_to] */\n      dup6\n      and\n      0x00\n      swap1\n      dup2\n      mstore\n        /* \"contracts/Token&NFTStaking/Contract.sol\":5165:5172  Details */\n      0x06\n        /* \"contracts/Token&NFTStaking/Contract.sol\":5165:5177  Details[_to] */\n      0x20\n      mstore\n      0x40\n      swap1\n      keccak256\n        /* \"contracts/Token&NFTStaking/Contract.sol\":5165:5187  Details[_to].deposited */\n      sload\n        /* \"contracts/Token&NFTStaking/Contract.sol\":5165:5194  Details[_to].deposited * rate */\n      tag_218\n      swap2\n        /* \"contracts/Token&NFTStaking/Contract.sol\":5190:5194  rate */\n      swap1\n        /* \"contracts/Token&NFTStaking/Contract.sol\":5165:5194  Details[_to].deposited * rate */\n      tag_170\n      jump\t// in\n        /* \"contracts/Token&NFTStaking/Contract.sol\":6433:6542  function UpdateERC721(address _ERC721address) public onlyOwner{... */\n    tag_108:\n        /* \"@openzeppelin/contracts/access/Ownable.sol\":1094:1107  _checkOwner() */\n      tag_232\n        /* \"@openzeppelin/contracts/access/Ownable.sol\":1094:1105  _checkOwner */\n      tag_127\n        /* \"@openzeppelin/contracts/access/Ownable.sol\":1094:1107  _checkOwner() */\n      jump\t// in\n    tag_232:\n        /* \"contracts/Token&NFTStaking/Contract.sol\":6505:6518  ERC721address */\n      0x01\n        /* \"contracts/Token&NFTStaking/Contract.sol\":6505:6535  ERC721address = _ERC721address */\n      dup1\n      sload\n      not(sub(shl(0xa0, 0x01), 0x01))\n      and\n      sub(shl(0xa0, 0x01), 0x01)\n      swap3\n      swap1\n      swap3\n      and\n      swap2\n      swap1\n      swap2\n      or\n      swap1\n      sstore\n        /* \"contracts/Token&NFTStaking/Contract.sol\":6433:6542  function UpdateERC721(address _ERC721address) public onlyOwner{... */\n      jump\t// out\n        /* \"@openzeppelin/contracts/access/Ownable.sol\":2081:2279  function transferOwnership(address newOwner) public virtual onlyOwner {... */\n    tag_111:\n        /* \"@openzeppelin/contracts/access/Ownable.sol\":1094:1107  _checkOwner() */\n      tag_235\n        /* \"@openzeppelin/contracts/access/Ownable.sol\":1094:1105  _checkOwner */\n      tag_127\n        /* \"@openzeppelin/contracts/access/Ownable.sol\":1094:1107  _checkOwner() */\n      jump\t// in\n    tag_235:\n      sub(shl(0xa0, 0x01), 0x01)\n        /* \"@openzeppelin/contracts/access/Ownable.sol\":2169:2191  newOwner != address(0) */\n      dup2\n      and\n        /* \"@openzeppelin/contracts/access/Ownable.sol\":2161:2234  require(newOwner != address(0), \"Ownable: new owner is the zero address\") */\n      tag_237\n      jumpi\n      mload(0x40)\n      shl(0xe5, 0x461bcd)\n      dup2\n      mstore\n        /* \"#utility.yul\":6830:6832   */\n      0x20\n        /* \"@openzeppelin/contracts/access/Ownable.sol\":2161:2234  require(newOwner != address(0), \"Ownable: new owner is the zero address\") */\n      0x04\n      dup3\n      add\n        /* \"#utility.yul\":6812:6833   */\n      mstore\n        /* \"#utility.yul\":6869:6871   */\n      0x26\n        /* \"#utility.yul\":6849:6867   */\n      0x24\n      dup3\n      add\n        /* \"#utility.yul\":6842:6872   */\n      mstore\n        /* \"#utility.yul\":6908:6942   */\n      0x4f776e61626c653a206e6577206f776e657220697320746865207a65726f2061\n        /* \"#utility.yul\":6888:6906   */\n      0x44\n      dup3\n      add\n        /* \"#utility.yul\":6881:6943   */\n      mstore\n      shl(0xd0, 0x646472657373)\n        /* \"#utility.yul\":6959:6977   */\n      0x64\n      dup3\n      add\n        /* \"#utility.yul\":6952:6988   */\n      mstore\n        /* \"#utility.yul\":7005:7024   */\n      0x84\n      add\n        /* \"@openzeppelin/contracts/access/Ownable.sol\":2161:2234  require(newOwner != address(0), \"Ownable: new owner is the zero address\") */\n      tag_117\n        /* \"#utility.yul\":6628:7030   */\n      jump\n        /* \"@openzeppelin/contracts/access/Ownable.sol\":2161:2234  require(newOwner != address(0), \"Ownable: new owner is the zero address\") */\n    tag_237:\n        /* \"@openzeppelin/contracts/access/Ownable.sol\":2244:2272  _transferOwnership(newOwner) */\n      tag_133\n        /* \"@openzeppelin/contracts/access/Ownable.sol\":2263:2271  newOwner */\n      dup2\n        /* \"@openzeppelin/contracts/access/Ownable.sol\":2244:2262  _transferOwnership */\n      tag_167\n        /* \"@openzeppelin/contracts/access/Ownable.sol\":2244:2272  _transferOwnership(newOwner) */\n      jump\t// in\n        /* \"contracts/Token&NFTStaking/Contract.sol\":7008:7118  function UpdateRatePersentage(uint256 _ratePersentage) public onlyOwner{... */\n    tag_114:\n        /* \"@openzeppelin/contracts/access/Ownable.sol\":1094:1107  _checkOwner() */\n      tag_242\n        /* \"@openzeppelin/contracts/access/Ownable.sol\":1094:1105  _checkOwner */\n      tag_127\n        /* \"@openzeppelin/contracts/access/Ownable.sol\":1094:1107  _checkOwner() */\n      jump\t// in\n    tag_242:\n        /* \"contracts/Token&NFTStaking/Contract.sol\":7089:7093  rate */\n      0x05\n        /* \"contracts/Token&NFTStaking/Contract.sol\":7089:7111  rate = _ratePersentage */\n      sstore\n        /* \"contracts/Token&NFTStaking/Contract.sol\":7008:7118  function UpdateRatePersentage(uint256 _ratePersentage) public onlyOwner{... */\n      jump\t// out\n        /* \"@openzeppelin/contracts/access/Ownable.sol\":1359:1489  function _checkOwner() internal view virtual {... */\n    tag_127:\n        /* \"@openzeppelin/contracts/access/Ownable.sol\":1247:1254  address */\n      0x00\n        /* \"@openzeppelin/contracts/access/Ownable.sol\":1273:1279  _owner */\n      sload\n      sub(shl(0xa0, 0x01), 0x01)\n      and\n        /* \"@openzeppelin/contracts/utils/Context.sol\":719:729  msg.sender */\n      caller\n        /* \"@openzeppelin/contracts/access/Ownable.sol\":1422:1445  owner() == _msgSender() */\n      eq\n        /* \"@openzeppelin/contracts/access/Ownable.sol\":1414:1482  require(owner() == _msgSender(), \"Ownable: caller is not the owner\") */\n      tag_155\n      jumpi\n      mload(0x40)\n      shl(0xe5, 0x461bcd)\n      dup2\n      mstore\n        /* \"#utility.yul\":7237:7239   */\n      0x20\n        /* \"@openzeppelin/contracts/access/Ownable.sol\":1414:1482  require(owner() == _msgSender(), \"Ownable: caller is not the owner\") */\n      0x04\n      dup3\n      add\n        /* \"#utility.yul\":7219:7240   */\n      dup2\n      swap1\n      mstore\n        /* \"#utility.yul\":7256:7274   */\n      0x24\n      dup3\n      add\n        /* \"#utility.yul\":7249:7279   */\n      mstore\n        /* \"#utility.yul\":7315:7349   */\n      0x4f776e61626c653a2063616c6c6572206973206e6f7420746865206f776e6572\n        /* \"#utility.yul\":7295:7313   */\n      0x44\n      dup3\n      add\n        /* \"#utility.yul\":7288:7350   */\n      mstore\n        /* \"#utility.yul\":7367:7385   */\n      0x64\n      add\n        /* \"@openzeppelin/contracts/access/Ownable.sol\":1414:1482  require(owner() == _msgSender(), \"Ownable: caller is not the owner\") */\n      tag_117\n        /* \"#utility.yul\":7035:7391   */\n      jump\n        /* \"@openzeppelin/contracts/token/ERC20/utils/SafeERC20.sol\":974:1215  function safeTransferFrom(... */\n    tag_134:\n        /* \"@openzeppelin/contracts/token/ERC20/utils/SafeERC20.sol\":1139:1207  abi.encodeWithSelector(token.transferFrom.selector, from, to, value) */\n      mload(0x40)\n      sub(shl(0xa0, 0x01), 0x01)\n        /* \"#utility.yul\":7654:7669   */\n      dup1\n      dup6\n      and\n        /* \"@openzeppelin/contracts/token/ERC20/utils/SafeERC20.sol\":1139:1207  abi.encodeWithSelector(token.transferFrom.selector, from, to, value) */\n      0x24\n      dup4\n      add\n        /* \"#utility.yul\":7636:7670   */\n      mstore\n        /* \"#utility.yul\":7706:7721   */\n      dup4\n      and\n        /* \"#utility.yul\":7686:7704   */\n      0x44\n      dup3\n      add\n        /* \"#utility.yul\":7679:7722   */\n      mstore\n        /* \"#utility.yul\":7738:7756   */\n      0x64\n      dup2\n      add\n        /* \"#utility.yul\":7731:7765   */\n      dup3\n      swap1\n      mstore\n        /* \"@openzeppelin/contracts/token/ERC20/utils/SafeERC20.sol\":1112:1208  _callOptionalReturn(token, abi.encodeWithSelector(token.transferFrom.selector, from, to, value)) */\n      tag_252\n      swap1\n        /* \"@openzeppelin/contracts/token/ERC20/utils/SafeERC20.sol\":1132:1137  token */\n      dup6\n      swap1\n      shl(0xe0, 0x23b872dd)\n        /* \"@openzeppelin/contracts/token/ERC20/utils/SafeERC20.sol\":1162:1189  token.transferFrom.selector */\n      swap1\n        /* \"#utility.yul\":7571:7589   */\n      0x84\n      add\n        /* \"@openzeppelin/contracts/token/ERC20/utils/SafeERC20.sol\":1139:1207  abi.encodeWithSelector(token.transferFrom.selector, from, to, value) */\n    tag_253:\n      0x40\n      dup1\n      mload\n      not(0x1f)\n      dup2\n      dup5\n      sub\n      add\n      dup2\n      mstore\n      swap2\n      swap1\n      mstore\n      0x20\n      dup2\n      add\n      dup1\n      mload\n      sub(shl(0xe0, 0x01), 0x01)\n      and\n      not(sub(shl(0xe0, 0x01), 0x01))\n      swap1\n      swap4\n      and\n      swap3\n      swap1\n      swap3\n      or\n      swap1\n      swap2\n      mstore\n        /* \"@openzeppelin/contracts/token/ERC20/utils/SafeERC20.sol\":1112:1131  _callOptionalReturn */\n      tag_255\n        /* \"@openzeppelin/contracts/token/ERC20/utils/SafeERC20.sol\":1112:1208  _callOptionalReturn(token, abi.encodeWithSelector(token.transferFrom.selector, from, to, value)) */\n      jump\t// in\n    tag_252:\n        /* \"@openzeppelin/contracts/token/ERC20/utils/SafeERC20.sol\":974:1215  function safeTransferFrom(... */\n      pop\n      pop\n      pop\n      pop\n      jump\t// out\n        /* \"@openzeppelin/contracts/access/Ownable.sol\":2433:2620  function _transferOwnership(address newOwner) internal virtual {... */\n    tag_167:\n        /* \"@openzeppelin/contracts/access/Ownable.sol\":2506:2522  address oldOwner */\n      0x00\n        /* \"@openzeppelin/contracts/access/Ownable.sol\":2525:2531  _owner */\n      dup1\n      sload\n      sub(shl(0xa0, 0x01), 0x01)\n        /* \"@openzeppelin/contracts/access/Ownable.sol\":2541:2558  _owner = newOwner */\n      dup4\n      dup2\n      and\n      not(sub(shl(0xa0, 0x01), 0x01))\n      dup4\n      and\n      dup2\n      or\n      dup5\n      sstore\n        /* \"@openzeppelin/contracts/access/Ownable.sol\":2573:2613  OwnershipTransferred(oldOwner, newOwner) */\n      mload(0x40)\n        /* \"@openzeppelin/contracts/access/Ownable.sol\":2525:2531  _owner */\n      swap2\n      swap1\n      swap3\n      and\n      swap3\n      dup4\n      swap2\n        /* \"@openzeppelin/contracts/access/Ownable.sol\":2573:2613  OwnershipTransferred(oldOwner, newOwner) */\n      0x8be0079c531659141344cd1fd0a4f28419497f9722a3daafe3b4186f6b6457e0\n      swap2\n        /* \"@openzeppelin/contracts/access/Ownable.sol\":2506:2522  address oldOwner */\n      swap1\n        /* \"@openzeppelin/contracts/access/Ownable.sol\":2573:2613  OwnershipTransferred(oldOwner, newOwner) */\n      log3\n        /* \"@openzeppelin/contracts/access/Ownable.sol\":2496:2620  {... */\n      pop\n        /* \"@openzeppelin/contracts/access/Ownable.sol\":2433:2620  function _transferOwnership(address newOwner) internal virtual {... */\n      pop\n      jump\t// out\n        /* \"@openzeppelin/contracts/token/ERC20/utils/SafeERC20.sol\":763:968  function safeTransfer(... */\n    tag_204:\n        /* \"@openzeppelin/contracts/token/ERC20/utils/SafeERC20.sol\":902:960  abi.encodeWithSelector(token.transfer.selector, to, value) */\n      mload(0x40)\n      sub(shl(0xa0, 0x01), 0x01)\n        /* \"#utility.yul\":4631:4663   */\n      dup4\n      and\n        /* \"@openzeppelin/contracts/token/ERC20/utils/SafeERC20.sol\":902:960  abi.encodeWithSelector(token.transfer.selector, to, value) */\n      0x24\n      dup3\n      add\n        /* \"#utility.yul\":4613:4664   */\n      mstore\n        /* \"#utility.yul\":4680:4698   */\n      0x44\n      dup2\n      add\n        /* \"#utility.yul\":4673:4707   */\n      dup3\n      swap1\n      mstore\n        /* \"@openzeppelin/contracts/token/ERC20/utils/SafeERC20.sol\":875:961  _callOptionalReturn(token, abi.encodeWithSelector(token.transfer.selector, to, value)) */\n      tag_258\n      swap1\n        /* \"@openzeppelin/contracts/token/ERC20/utils/SafeERC20.sol\":895:900  token */\n      dup5\n      swap1\n      shl(0xe0, 0xa9059cbb)\n        /* \"@openzeppelin/contracts/token/ERC20/utils/SafeERC20.sol\":925:948  token.transfer.selector */\n      swap1\n        /* \"#utility.yul\":4586:4604   */\n      0x64\n      add\n        /* \"@openzeppelin/contracts/token/ERC20/utils/SafeERC20.sol\":902:960  abi.encodeWithSelector(token.transfer.selector, to, value) */\n      tag_253\n        /* \"#utility.yul\":4439:4713   */\n      jump\n        /* \"@openzeppelin/contracts/token/ERC20/utils/SafeERC20.sol\":875:961  _callOptionalReturn(token, abi.encodeWithSelector(token.transfer.selector, to, value)) */\n    tag_258:\n        /* \"@openzeppelin/contracts/token/ERC20/utils/SafeERC20.sol\":763:968  function safeTransfer(... */\n      pop\n      pop\n      pop\n      jump\t// out\n        /* \"@openzeppelin/contracts/token/ERC20/utils/SafeERC20.sol\":3747:4453  function _callOptionalReturn(IERC20 token, bytes memory data) private {... */\n    tag_255:\n        /* \"@openzeppelin/contracts/token/ERC20/utils/SafeERC20.sol\":4166:4189  bytes memory returndata */\n      0x00\n        /* \"@openzeppelin/contracts/token/ERC20/utils/SafeERC20.sol\":4192:4261  address(token).functionCall(data, \"SafeERC20: low-level call failed\") */\n      tag_262\n        /* \"@openzeppelin/contracts/token/ERC20/utils/SafeERC20.sol\":4220:4224  data */\n      dup3\n        /* \"@openzeppelin/contracts/token/ERC20/utils/SafeERC20.sol\":4192:4261  address(token).functionCall(data, \"SafeERC20: low-level call failed\") */\n      mload(0x40)\n      dup1\n      0x40\n      add\n      0x40\n      mstore\n      dup1\n      0x20\n      dup2\n      mstore\n      0x20\n      add\n      0x5361666545524332303a206c6f772d6c6576656c2063616c6c206661696c6564\n      dup2\n      mstore\n      pop\n        /* \"@openzeppelin/contracts/token/ERC20/utils/SafeERC20.sol\":4200:4205  token */\n      dup6\n      sub(shl(0xa0, 0x01), 0x01)\n        /* \"@openzeppelin/contracts/token/ERC20/utils/SafeERC20.sol\":4192:4219  address(token).functionCall */\n      and\n      tag_263\n      swap1\n        /* \"@openzeppelin/contracts/token/ERC20/utils/SafeERC20.sol\":4192:4261  address(token).functionCall(data, \"SafeERC20: low-level call failed\") */\n      swap3\n      swap2\n      swap1\n      0xffffffff\n      and\n      jump\t// in\n    tag_262:\n        /* \"@openzeppelin/contracts/token/ERC20/utils/SafeERC20.sol\":4275:4292  returndata.length */\n      dup1\n      mload\n        /* \"@openzeppelin/contracts/token/ERC20/utils/SafeERC20.sol\":4166:4261  bytes memory returndata = address(token).functionCall(data, \"SafeERC20: low-level call failed\") */\n      swap1\n      swap2\n      pop\n        /* \"@openzeppelin/contracts/token/ERC20/utils/SafeERC20.sol\":4275:4296  returndata.length > 0 */\n      iszero\n        /* \"@openzeppelin/contracts/token/ERC20/utils/SafeERC20.sol\":4271:4447  if (returndata.length > 0) {... */\n      tag_258\n      jumpi\n        /* \"@openzeppelin/contracts/token/ERC20/utils/SafeERC20.sol\":4370:4380  returndata */\n      dup1\n        /* \"@openzeppelin/contracts/token/ERC20/utils/SafeERC20.sol\":4359:4389  abi.decode(returndata, (bool)) */\n      dup1\n      0x20\n      add\n      swap1\n      mload\n      dup2\n      add\n      swap1\n      tag_265\n      swap2\n      swap1\n      tag_152\n      jump\t// in\n    tag_265:\n        /* \"@openzeppelin/contracts/token/ERC20/utils/SafeERC20.sol\":4351:4436  require(abi.decode(returndata, (bool)), \"SafeERC20: ERC20 operation did not succeed\") */\n      tag_258\n      jumpi\n      mload(0x40)\n      shl(0xe5, 0x461bcd)\n      dup2\n      mstore\n        /* \"#utility.yul\":7978:7980   */\n      0x20\n        /* \"@openzeppelin/contracts/token/ERC20/utils/SafeERC20.sol\":4351:4436  require(abi.decode(returndata, (bool)), \"SafeERC20: ERC20 operation did not succeed\") */\n      0x04\n      dup3\n      add\n        /* \"#utility.yul\":7960:7981   */\n      mstore\n        /* \"#utility.yul\":8017:8019   */\n      0x2a\n        /* \"#utility.yul\":7997:8015   */\n      0x24\n      dup3\n      add\n        /* \"#utility.yul\":7990:8020   */\n      mstore\n        /* \"#utility.yul\":8056:8090   */\n      0x5361666545524332303a204552433230206f7065726174696f6e20646964206e\n        /* \"#utility.yul\":8036:8054   */\n      0x44\n      dup3\n      add\n        /* \"#utility.yul\":8029:8091   */\n      mstore\n      shl(0xb2, 0x1bdd081cdd58d8d95959)\n        /* \"#utility.yul\":8107:8125   */\n      0x64\n      dup3\n      add\n        /* \"#utility.yul\":8100:8140   */\n      mstore\n        /* \"#utility.yul\":8157:8176   */\n      0x84\n      add\n        /* \"@openzeppelin/contracts/token/ERC20/utils/SafeERC20.sol\":4351:4436  require(abi.decode(returndata, (bool)), \"SafeERC20: ERC20 operation did not succeed\") */\n      tag_117\n        /* \"#utility.yul\":7776:8182   */\n      jump\n        /* \"@openzeppelin/contracts/utils/Address.sol\":3873:4096  function functionCall(... */\n    tag_263:\n        /* \"@openzeppelin/contracts/utils/Address.sol\":4006:4018  bytes memory */\n      0x60\n        /* \"@openzeppelin/contracts/utils/Address.sol\":4037:4089  functionCallWithValue(target, data, 0, errorMessage) */\n      tag_179\n        /* \"@openzeppelin/contracts/utils/Address.sol\":4059:4065  target */\n      dup5\n        /* \"@openzeppelin/contracts/utils/Address.sol\":4067:4071  data */\n      dup5\n        /* \"@openzeppelin/contracts/utils/Address.sol\":4073:4074  0 */\n      0x00\n        /* \"@openzeppelin/contracts/utils/Address.sol\":4076:4088  errorMessage */\n      dup6\n        /* \"@openzeppelin/contracts/utils/Address.sol\":4006:4018  bytes memory */\n      dup6\n        /* \"@openzeppelin/contracts/utils/Address.sol\":5241:5253  bool success */\n      0x00\n        /* \"@openzeppelin/contracts/utils/Address.sol\":5255:5278  bytes memory returndata */\n      dup1\n        /* \"@openzeppelin/contracts/utils/Address.sol\":5282:5288  target */\n      dup7\n      sub(shl(0xa0, 0x01), 0x01)\n        /* \"@openzeppelin/contracts/utils/Address.sol\":5282:5293  target.call */\n      and\n        /* \"@openzeppelin/contracts/utils/Address.sol\":5301:5306  value */\n      dup6\n        /* \"@openzeppelin/contracts/utils/Address.sol\":5308:5312  data */\n      dup8\n        /* \"@openzeppelin/contracts/utils/Address.sol\":5282:5313  target.call{value: value}(data) */\n      mload(0x40)\n      tag_276\n      swap2\n      swap1\n      tag_277\n      jump\t// in\n    tag_276:\n      0x00\n      mload(0x40)\n      dup1\n      dup4\n      sub\n      dup2\n      dup6\n      dup8\n      gas\n      call\n      swap3\n      pop\n      pop\n      pop\n      returndatasize\n      dup1\n      0x00\n      dup2\n      eq\n      tag_280\n      jumpi\n      mload(0x40)\n      swap2\n      pop\n      and(add(returndatasize, 0x3f), not(0x1f))\n      dup3\n      add\n      0x40\n      mstore\n      returndatasize\n      dup3\n      mstore\n      returndatasize\n      0x00\n      0x20\n      dup5\n      add\n      returndatacopy\n      jump(tag_279)\n    tag_280:\n      0x60\n      swap2\n      pop\n    tag_279:\n      pop\n        /* \"@openzeppelin/contracts/utils/Address.sol\":5240:5313  (bool success, bytes memory returndata) = target.call{value: value}(data) */\n      swap2\n      pop\n      swap2\n      pop\n        /* \"@openzeppelin/contracts/utils/Address.sol\":5330:5399  verifyCallResultFromTarget(target, success, returndata, errorMessage) */\n      tag_281\n        /* \"@openzeppelin/contracts/utils/Address.sol\":5357:5363  target */\n      dup8\n        /* \"@openzeppelin/contracts/utils/Address.sol\":5365:5372  success */\n      dup4\n        /* \"@openzeppelin/contracts/utils/Address.sol\":5374:5384  returndata */\n      dup4\n        /* \"@openzeppelin/contracts/utils/Address.sol\":5386:5398  errorMessage */\n      dup8\n        /* \"@openzeppelin/contracts/utils/Address.sol\":5330:5356  verifyCallResultFromTarget */\n      tag_282\n        /* \"@openzeppelin/contracts/utils/Address.sol\":5330:5399  verifyCallResultFromTarget(target, success, returndata, errorMessage) */\n      jump\t// in\n    tag_281:\n        /* \"@openzeppelin/contracts/utils/Address.sol\":5323:5399  return verifyCallResultFromTarget(target, success, returndata, errorMessage) */\n      swap8\n        /* \"@openzeppelin/contracts/utils/Address.sol\":4960:5406  function functionCallWithValue(... */\n      swap7\n      pop\n      pop\n      pop\n      pop\n      pop\n      pop\n      pop\n      jump\t// out\n        /* \"@openzeppelin/contracts/utils/Address.sol\":7466:8094  function verifyCallResultFromTarget(... */\n    tag_282:\n        /* \"@openzeppelin/contracts/utils/Address.sol\":7646:7658  bytes memory */\n      0x60\n        /* \"@openzeppelin/contracts/utils/Address.sol\":7674:7681  success */\n      dup4\n        /* \"@openzeppelin/contracts/utils/Address.sol\":7670:8088  if (success) {... */\n      iszero\n      tag_284\n      jumpi\n        /* \"@openzeppelin/contracts/utils/Address.sol\":7701:7711  returndata */\n      dup3\n        /* \"@openzeppelin/contracts/utils/Address.sol\":7701:7718  returndata.length */\n      mload\n        /* \"@openzeppelin/contracts/utils/Address.sol\":7722:7723  0 */\n      0x00\n        /* \"@openzeppelin/contracts/utils/Address.sol\":7701:7723  returndata.length == 0 */\n      sub\n        /* \"@openzeppelin/contracts/utils/Address.sol\":7697:7983  if (returndata.length == 0) {... */\n      tag_288\n      jumpi\n      sub(shl(0xa0, 0x01), 0x01)\n        /* \"@openzeppelin/contracts/utils/Address.sol\":1465:1484  account.code.length */\n      dup6\n      and\n      extcodesize\n        /* \"@openzeppelin/contracts/utils/Address.sol\":7908:7968  require(isContract(target), \"Address: call to non-contract\") */\n      tag_288\n      jumpi\n      mload(0x40)\n      shl(0xe5, 0x461bcd)\n      dup2\n      mstore\n        /* \"#utility.yul\":9338:9340   */\n      0x20\n        /* \"@openzeppelin/contracts/utils/Address.sol\":7908:7968  require(isContract(target), \"Address: call to non-contract\") */\n      0x04\n      dup3\n      add\n        /* \"#utility.yul\":9320:9341   */\n      mstore\n        /* \"#utility.yul\":9377:9379   */\n      0x1d\n        /* \"#utility.yul\":9357:9375   */\n      0x24\n      dup3\n      add\n        /* \"#utility.yul\":9350:9380   */\n      mstore\n        /* \"#utility.yul\":9416:9447   */\n      0x416464726573733a2063616c6c20746f206e6f6e2d636f6e7472616374000000\n        /* \"#utility.yul\":9396:9414   */\n      0x44\n      dup3\n      add\n        /* \"#utility.yul\":9389:9448   */\n      mstore\n        /* \"#utility.yul\":9465:9483   */\n      0x64\n      add\n        /* \"@openzeppelin/contracts/utils/Address.sol\":7908:7968  require(isContract(target), \"Address: call to non-contract\") */\n      tag_117\n        /* \"#utility.yul\":9136:9489   */\n      jump\n        /* \"@openzeppelin/contracts/utils/Address.sol\":7908:7968  require(isContract(target), \"Address: call to non-contract\") */\n    tag_288:\n      pop\n        /* \"@openzeppelin/contracts/utils/Address.sol\":8003:8013  returndata */\n      dup2\n        /* \"@openzeppelin/contracts/utils/Address.sol\":7996:8013  return returndata */\n      jump(tag_179)\n        /* \"@openzeppelin/contracts/utils/Address.sol\":7670:8088  if (success) {... */\n    tag_284:\n        /* \"@openzeppelin/contracts/utils/Address.sol\":8044:8077  _revert(returndata, errorMessage) */\n      tag_179\n        /* \"@openzeppelin/contracts/utils/Address.sol\":8052:8062  returndata */\n      dup4\n        /* \"@openzeppelin/contracts/utils/Address.sol\":8064:8076  errorMessage */\n      dup4\n        /* \"@openzeppelin/contracts/utils/Address.sol\":8775:8792  returndata.length */\n      dup2\n      mload\n        /* \"@openzeppelin/contracts/utils/Address.sol\":8775:8796  returndata.length > 0 */\n      iszero\n        /* \"@openzeppelin/contracts/utils/Address.sol\":8771:9150  if (returndata.length > 0) {... */\n      tag_296\n      jumpi\n        /* \"@openzeppelin/contracts/utils/Address.sol\":9003:9013  returndata */\n      dup2\n        /* \"@openzeppelin/contracts/utils/Address.sol\":8997:9014  mload(returndata) */\n      mload\n        /* \"@openzeppelin/contracts/utils/Address.sol\":9059:9074  returndata_size */\n      dup1\n        /* \"@openzeppelin/contracts/utils/Address.sol\":9046:9056  returndata */\n      dup4\n        /* \"@openzeppelin/contracts/utils/Address.sol\":9042:9044  32 */\n      0x20\n        /* \"@openzeppelin/contracts/utils/Address.sol\":9038:9057  add(32, returndata) */\n      add\n        /* \"@openzeppelin/contracts/utils/Address.sol\":9031:9075  revert(add(32, returndata), returndata_size) */\n      revert\n        /* \"@openzeppelin/contracts/utils/Address.sol\":8771:9150  if (returndata.length > 0) {... */\n    tag_296:\n        /* \"@openzeppelin/contracts/utils/Address.sol\":9126:9138  errorMessage */\n      dup1\n        /* \"@openzeppelin/contracts/utils/Address.sol\":9119:9139  revert(errorMessage) */\n      mload(0x40)\n      shl(0xe5, 0x461bcd)\n      dup2\n      mstore\n      0x04\n      add\n      tag_117\n      swap2\n      swap1\n      tag_299\n      jump\t// in\n        /* \"#utility.yul\":14:194   */\n    tag_32:\n        /* \"#utility.yul\":73:79   */\n      0x00\n        /* \"#utility.yul\":126:128   */\n      0x20\n        /* \"#utility.yul\":114:123   */\n      dup3\n        /* \"#utility.yul\":105:112   */\n      dup5\n        /* \"#utility.yul\":101:124   */\n      sub\n        /* \"#utility.yul\":97:129   */\n      slt\n        /* \"#utility.yul\":94:146   */\n      iszero\n      tag_305\n      jumpi\n        /* \"#utility.yul\":142:143   */\n      0x00\n        /* \"#utility.yul\":139:140   */\n      dup1\n        /* \"#utility.yul\":132:144   */\n      revert\n        /* \"#utility.yul\":94:146   */\n    tag_305:\n      pop\n        /* \"#utility.yul\":165:188   */\n      calldataload\n      swap2\n        /* \"#utility.yul\":14:194   */\n      swap1\n      pop\n      jump\t// out\n        /* \"#utility.yul\":589:762   */\n    tag_300:\n        /* \"#utility.yul\":657:677   */\n      dup1\n      calldataload\n      sub(shl(0xa0, 0x01), 0x01)\n        /* \"#utility.yul\":706:737   */\n      dup2\n      and\n        /* \"#utility.yul\":696:738   */\n      dup2\n      eq\n        /* \"#utility.yul\":686:756   */\n      tag_180\n      jumpi\n        /* \"#utility.yul\":752:753   */\n      0x00\n        /* \"#utility.yul\":749:750   */\n      dup1\n        /* \"#utility.yul\":742:754   */\n      revert\n        /* \"#utility.yul\":767:1575   */\n    tag_44:\n        /* \"#utility.yul\":864:870   */\n      0x00\n        /* \"#utility.yul\":872:878   */\n      dup1\n        /* \"#utility.yul\":880:886   */\n      0x00\n        /* \"#utility.yul\":888:894   */\n      dup1\n        /* \"#utility.yul\":896:902   */\n      0x00\n        /* \"#utility.yul\":949:952   */\n      0x80\n        /* \"#utility.yul\":937:946   */\n      dup7\n        /* \"#utility.yul\":928:935   */\n      dup9\n        /* \"#utility.yul\":924:947   */\n      sub\n        /* \"#utility.yul\":920:953   */\n      slt\n        /* \"#utility.yul\":917:970   */\n      iszero\n      tag_311\n      jumpi\n        /* \"#utility.yul\":966:967   */\n      0x00\n        /* \"#utility.yul\":963:964   */\n      dup1\n        /* \"#utility.yul\":956:968   */\n      revert\n        /* \"#utility.yul\":917:970   */\n    tag_311:\n        /* \"#utility.yul\":989:1018   */\n      tag_312\n        /* \"#utility.yul\":1008:1017   */\n      dup7\n        /* \"#utility.yul\":989:1018   */\n      tag_300\n      jump\t// in\n    tag_312:\n        /* \"#utility.yul\":979:1018   */\n      swap5\n      pop\n        /* \"#utility.yul\":1037:1075   */\n      tag_313\n        /* \"#utility.yul\":1071:1073   */\n      0x20\n        /* \"#utility.yul\":1060:1069   */\n      dup8\n        /* \"#utility.yul\":1056:1074   */\n      add\n        /* \"#utility.yul\":1037:1075   */\n      tag_300\n      jump\t// in\n    tag_313:\n        /* \"#utility.yul\":1027:1075   */\n      swap4\n      pop\n        /* \"#utility.yul\":1122:1124   */\n      0x40\n        /* \"#utility.yul\":1111:1120   */\n      dup7\n        /* \"#utility.yul\":1107:1125   */\n      add\n        /* \"#utility.yul\":1094:1126   */\n      calldataload\n        /* \"#utility.yul\":1084:1126   */\n      swap3\n      pop\n        /* \"#utility.yul\":1177:1179   */\n      0x60\n        /* \"#utility.yul\":1166:1175   */\n      dup7\n        /* \"#utility.yul\":1162:1180   */\n      add\n        /* \"#utility.yul\":1149:1181   */\n      calldataload\n        /* \"#utility.yul\":1200:1218   */\n      0xffffffffffffffff\n        /* \"#utility.yul\":1241:1243   */\n      dup1\n        /* \"#utility.yul\":1233:1239   */\n      dup3\n        /* \"#utility.yul\":1230:1244   */\n      gt\n        /* \"#utility.yul\":1227:1261   */\n      iszero\n      tag_314\n      jumpi\n        /* \"#utility.yul\":1257:1258   */\n      0x00\n        /* \"#utility.yul\":1254:1255   */\n      dup1\n        /* \"#utility.yul\":1247:1259   */\n      revert\n        /* \"#utility.yul\":1227:1261   */\n    tag_314:\n        /* \"#utility.yul\":1295:1301   */\n      dup2\n        /* \"#utility.yul\":1284:1293   */\n      dup9\n        /* \"#utility.yul\":1280:1302   */\n      add\n        /* \"#utility.yul\":1270:1302   */\n      swap2\n      pop\n        /* \"#utility.yul\":1340:1347   */\n      dup9\n        /* \"#utility.yul\":1333:1337   */\n      0x1f\n        /* \"#utility.yul\":1329:1331   */\n      dup4\n        /* \"#utility.yul\":1325:1338   */\n      add\n        /* \"#utility.yul\":1321:1348   */\n      slt\n        /* \"#utility.yul\":1311:1366   */\n      tag_315\n      jumpi\n        /* \"#utility.yul\":1362:1363   */\n      0x00\n        /* \"#utility.yul\":1359:1360   */\n      dup1\n        /* \"#utility.yul\":1352:1364   */\n      revert\n        /* \"#utility.yul\":1311:1366   */\n    tag_315:\n        /* \"#utility.yul\":1402:1404   */\n      dup2\n        /* \"#utility.yul\":1389:1405   */\n      calldataload\n        /* \"#utility.yul\":1428:1430   */\n      dup2\n        /* \"#utility.yul\":1420:1426   */\n      dup2\n        /* \"#utility.yul\":1417:1431   */\n      gt\n        /* \"#utility.yul\":1414:1448   */\n      iszero\n      tag_316\n      jumpi\n        /* \"#utility.yul\":1444:1445   */\n      0x00\n        /* \"#utility.yul\":1441:1442   */\n      dup1\n        /* \"#utility.yul\":1434:1446   */\n      revert\n        /* \"#utility.yul\":1414:1448   */\n    tag_316:\n        /* \"#utility.yul\":1489:1496   */\n      dup10\n        /* \"#utility.yul\":1484:1486   */\n      0x20\n        /* \"#utility.yul\":1475:1481   */\n      dup3\n        /* \"#utility.yul\":1471:1473   */\n      dup6\n        /* \"#utility.yul\":1467:1482   */\n      add\n        /* \"#utility.yul\":1463:1487   */\n      add\n        /* \"#utility.yul\":1460:1497   */\n      gt\n        /* \"#utility.yul\":1457:1514   */\n      iszero\n      tag_317\n      jumpi\n        /* \"#utility.yul\":1510:1511   */\n      0x00\n        /* \"#utility.yul\":1507:1508   */\n      dup1\n        /* \"#utility.yul\":1500:1512   */\n      revert\n        /* \"#utility.yul\":1457:1514   */\n    tag_317:\n        /* \"#utility.yul\":767:1575   */\n      swap7\n      swap10\n      swap6\n      swap9\n      pop\n      swap4\n      swap7\n      pop\n        /* \"#utility.yul\":1541:1543   */\n      0x20\n        /* \"#utility.yul\":1533:1544   */\n      add\n      swap5\n        /* \"#utility.yul\":1563:1569   */\n      swap4\n        /* \"#utility.yul\":767:1575   */\n      swap3\n      pop\n      pop\n      pop\n      jump\t// out\n        /* \"#utility.yul\":1787:1973   */\n    tag_50:\n        /* \"#utility.yul\":1846:1852   */\n      0x00\n        /* \"#utility.yul\":1899:1901   */\n      0x20\n        /* \"#utility.yul\":1887:1896   */\n      dup3\n        /* \"#utility.yul\":1878:1885   */\n      dup5\n        /* \"#utility.yul\":1874:1897   */\n      sub\n        /* \"#utility.yul\":1870:1902   */\n      slt\n        /* \"#utility.yul\":1867:1919   */\n      iszero\n      tag_320\n      jumpi\n        /* \"#utility.yul\":1915:1916   */\n      0x00\n        /* \"#utility.yul\":1912:1913   */\n      dup1\n        /* \"#utility.yul\":1905:1917   */\n      revert\n        /* \"#utility.yul\":1867:1919   */\n    tag_320:\n        /* \"#utility.yul\":1938:1967   */\n      tag_321\n        /* \"#utility.yul\":1957:1966   */\n      dup3\n        /* \"#utility.yul\":1938:1967   */\n      tag_300\n      jump\t// in\n    tag_321:\n        /* \"#utility.yul\":1928:1967   */\n      swap4\n        /* \"#utility.yul\":1787:1973   */\n      swap3\n      pop\n      pop\n      pop\n      jump\t// out\n        /* \"#utility.yul\":1978:2226   */\n    tag_79:\n        /* \"#utility.yul\":2046:2052   */\n      0x00\n        /* \"#utility.yul\":2054:2060   */\n      dup1\n        /* \"#utility.yul\":2107:2109   */\n      0x40\n        /* \"#utility.yul\":2095:2104   */\n      dup4\n        /* \"#utility.yul\":2086:2093   */\n      dup6\n        /* \"#utility.yul\":2082:2105   */\n      sub\n        /* \"#utility.yul\":2078:2110   */\n      slt\n        /* \"#utility.yul\":2075:2127   */\n      iszero\n      tag_323\n      jumpi\n        /* \"#utility.yul\":2123:2124   */\n      0x00\n        /* \"#utility.yul\":2120:2121   */\n      dup1\n        /* \"#utility.yul\":2113:2125   */\n      revert\n        /* \"#utility.yul\":2075:2127   */\n    tag_323:\n      pop\n      pop\n        /* \"#utility.yul\":2146:2169   */\n      dup1\n      calldataload\n      swap3\n        /* \"#utility.yul\":2216:2218   */\n      0x20\n        /* \"#utility.yul\":2201:2219   */\n      swap1\n      swap2\n      add\n        /* \"#utility.yul\":2188:2220   */\n      calldataload\n      swap2\n      pop\n        /* \"#utility.yul\":1978:2226   */\n      jump\t// out\n        /* \"#utility.yul\":2917:3472   */\n    tag_120:\n      sub(shl(0xa0, 0x01), 0x01)\n        /* \"#utility.yul\":3240:3255   */\n      swap4\n      dup5\n      and\n        /* \"#utility.yul\":3222:3256   */\n      dup2\n      mstore\n        /* \"#utility.yul\":3292:3307   */\n      swap2\n      swap1\n      swap3\n      and\n        /* \"#utility.yul\":3287:3289   */\n      0x20\n        /* \"#utility.yul\":3272:3290   */\n      dup3\n      add\n        /* \"#utility.yul\":3265:3308   */\n      mstore\n        /* \"#utility.yul\":3339:3341   */\n      0x40\n        /* \"#utility.yul\":3324:3342   */\n      dup2\n      add\n        /* \"#utility.yul\":3317:3351   */\n      swap2\n      swap1\n      swap2\n      mstore\n        /* \"#utility.yul\":3387:3390   */\n      0x80\n        /* \"#utility.yul\":3382:3384   */\n      0x60\n        /* \"#utility.yul\":3367:3385   */\n      dup3\n      add\n        /* \"#utility.yul\":3360:3391   */\n      dup2\n      swap1\n      mstore\n        /* \"#utility.yul\":3165:3169   */\n      0x00\n        /* \"#utility.yul\":3407:3426   */\n      swap1\n      dup3\n      add\n        /* \"#utility.yul\":3400:3430   */\n      mstore\n        /* \"#utility.yul\":3202:3205   */\n      0xa0\n        /* \"#utility.yul\":3447:3466   */\n      add\n      swap1\n        /* \"#utility.yul\":2917:3472   */\n      jump\t// out\n        /* \"#utility.yul\":4174:4301   */\n    tag_301:\n        /* \"#utility.yul\":4235:4245   */\n      0x4e487b71\n        /* \"#utility.yul\":4230:4233   */\n      0xe0\n        /* \"#utility.yul\":4226:4246   */\n      shl\n        /* \"#utility.yul\":4223:4224   */\n      0x00\n        /* \"#utility.yul\":4216:4247   */\n      mstore\n        /* \"#utility.yul\":4266:4270   */\n      0x11\n        /* \"#utility.yul\":4263:4264   */\n      0x04\n        /* \"#utility.yul\":4256:4271   */\n      mstore\n        /* \"#utility.yul\":4290:4294   */\n      0x24\n        /* \"#utility.yul\":4287:4288   */\n      0x00\n        /* \"#utility.yul\":4280:4295   */\n      revert\n        /* \"#utility.yul\":4306:4434   */\n    tag_146:\n        /* \"#utility.yul\":4346:4349   */\n      0x00\n        /* \"#utility.yul\":4377:4378   */\n      dup3\n        /* \"#utility.yul\":4373:4379   */\n      not\n        /* \"#utility.yul\":4370:4371   */\n      dup3\n        /* \"#utility.yul\":4367:4380   */\n      gt\n        /* \"#utility.yul\":4364:4403   */\n      iszero\n      tag_332\n      jumpi\n        /* \"#utility.yul\":4383:4401   */\n      tag_332\n      tag_301\n      jump\t// in\n    tag_332:\n      pop\n        /* \"#utility.yul\":4419:4428   */\n      add\n      swap1\n        /* \"#utility.yul\":4306:4434   */\n      jump\t// out\n        /* \"#utility.yul\":4718:4995   */\n    tag_152:\n        /* \"#utility.yul\":4785:4791   */\n      0x00\n        /* \"#utility.yul\":4838:4840   */\n      0x20\n        /* \"#utility.yul\":4826:4835   */\n      dup3\n        /* \"#utility.yul\":4817:4824   */\n      dup5\n        /* \"#utility.yul\":4813:4836   */\n      sub\n        /* \"#utility.yul\":4809:4841   */\n      slt\n        /* \"#utility.yul\":4806:4858   */\n      iszero\n      tag_335\n      jumpi\n        /* \"#utility.yul\":4854:4855   */\n      0x00\n        /* \"#utility.yul\":4851:4852   */\n      dup1\n        /* \"#utility.yul\":4844:4856   */\n      revert\n        /* \"#utility.yul\":4806:4858   */\n    tag_335:\n        /* \"#utility.yul\":4886:4895   */\n      dup2\n        /* \"#utility.yul\":4880:4896   */\n      mload\n        /* \"#utility.yul\":4939:4944   */\n      dup1\n        /* \"#utility.yul\":4932:4945   */\n      iszero\n        /* \"#utility.yul\":4925:4946   */\n      iszero\n        /* \"#utility.yul\":4918:4923   */\n      dup2\n        /* \"#utility.yul\":4915:4947   */\n      eq\n        /* \"#utility.yul\":4905:4965   */\n      tag_321\n      jumpi\n        /* \"#utility.yul\":4961:4962   */\n      0x00\n        /* \"#utility.yul\":4958:4959   */\n      dup1\n        /* \"#utility.yul\":4951:4963   */\n      revert\n        /* \"#utility.yul\":5000:5125   */\n    tag_154:\n        /* \"#utility.yul\":5040:5044   */\n      0x00\n        /* \"#utility.yul\":5068:5069   */\n      dup3\n        /* \"#utility.yul\":5065:5066   */\n      dup3\n        /* \"#utility.yul\":5062:5070   */\n      lt\n        /* \"#utility.yul\":5059:5093   */\n      iszero\n      tag_339\n      jumpi\n        /* \"#utility.yul\":5073:5091   */\n      tag_339\n      tag_301\n      jump\t// in\n    tag_339:\n      pop\n        /* \"#utility.yul\":5110:5119   */\n      sub\n      swap1\n        /* \"#utility.yul\":5000:5125   */\n      jump\t// out\n        /* \"#utility.yul\":5130:5298   */\n    tag_170:\n        /* \"#utility.yul\":5170:5177   */\n      0x00\n        /* \"#utility.yul\":5236:5237   */\n      dup2\n        /* \"#utility.yul\":5232:5233   */\n      0x00\n        /* \"#utility.yul\":5228:5234   */\n      not\n        /* \"#utility.yul\":5224:5238   */\n      div\n        /* \"#utility.yul\":5221:5222   */\n      dup4\n        /* \"#utility.yul\":5218:5239   */\n      gt\n        /* \"#utility.yul\":5213:5214   */\n      dup3\n        /* \"#utility.yul\":5206:5215   */\n      iszero\n        /* \"#utility.yul\":5199:5216   */\n      iszero\n        /* \"#utility.yul\":5195:5240   */\n      and\n        /* \"#utility.yul\":5192:5263   */\n      iszero\n      tag_342\n      jumpi\n        /* \"#utility.yul\":5243:5261   */\n      tag_342\n      tag_301\n      jump\t// in\n    tag_342:\n      pop\n        /* \"#utility.yul\":5283:5292   */\n      mul\n      swap1\n        /* \"#utility.yul\":5130:5298   */\n      jump\t// out\n        /* \"#utility.yul\":5303:5520   */\n    tag_172:\n        /* \"#utility.yul\":5343:5344   */\n      0x00\n        /* \"#utility.yul\":5369:5370   */\n      dup3\n        /* \"#utility.yul\":5359:5491   */\n      tag_344\n      jumpi\n        /* \"#utility.yul\":5413:5423   */\n      0x4e487b71\n        /* \"#utility.yul\":5408:5411   */\n      0xe0\n        /* \"#utility.yul\":5404:5424   */\n      shl\n        /* \"#utility.yul\":5401:5402   */\n      0x00\n        /* \"#utility.yul\":5394:5425   */\n      mstore\n        /* \"#utility.yul\":5448:5452   */\n      0x12\n        /* \"#utility.yul\":5445:5446   */\n      0x04\n        /* \"#utility.yul\":5438:5453   */\n      mstore\n        /* \"#utility.yul\":5476:5480   */\n      0x24\n        /* \"#utility.yul\":5473:5474   */\n      0x00\n        /* \"#utility.yul\":5466:5481   */\n      revert\n        /* \"#utility.yul\":5359:5491   */\n    tag_344:\n      pop\n        /* \"#utility.yul\":5505:5514   */\n      div\n      swap1\n        /* \"#utility.yul\":5303:5520   */\n      jump\t// out\n        /* \"#utility.yul\":8594:8852   */\n    tag_302:\n        /* \"#utility.yul\":8666:8667   */\n      0x00\n        /* \"#utility.yul\":8676:8789   */\n    tag_354:\n        /* \"#utility.yul\":8690:8696   */\n      dup4\n        /* \"#utility.yul\":8687:8688   */\n      dup2\n        /* \"#utility.yul\":8684:8697   */\n      lt\n        /* \"#utility.yul\":8676:8789   */\n      iszero\n      tag_356\n      jumpi\n        /* \"#utility.yul\":8766:8777   */\n      dup2\n      dup2\n      add\n        /* \"#utility.yul\":8760:8778   */\n      mload\n        /* \"#utility.yul\":8747:8758   */\n      dup4\n      dup3\n      add\n        /* \"#utility.yul\":8740:8779   */\n      mstore\n        /* \"#utility.yul\":8712:8714   */\n      0x20\n        /* \"#utility.yul\":8705:8715   */\n      add\n        /* \"#utility.yul\":8676:8789   */\n      jump(tag_354)\n    tag_356:\n        /* \"#utility.yul\":8807:8813   */\n      dup4\n        /* \"#utility.yul\":8804:8805   */\n      dup2\n        /* \"#utility.yul\":8801:8814   */\n      gt\n        /* \"#utility.yul\":8798:8846   */\n      iszero\n      tag_252\n      jumpi\n      pop\n      pop\n        /* \"#utility.yul\":8842:8843   */\n      0x00\n        /* \"#utility.yul\":8824:8840   */\n      swap2\n      add\n        /* \"#utility.yul\":8817:8844   */\n      mstore\n        /* \"#utility.yul\":8594:8852   */\n      jump\t// out\n        /* \"#utility.yul\":8857:9131   */\n    tag_277:\n        /* \"#utility.yul\":8986:8989   */\n      0x00\n        /* \"#utility.yul\":9024:9030   */\n      dup3\n        /* \"#utility.yul\":9018:9031   */\n      mload\n        /* \"#utility.yul\":9040:9093   */\n      tag_359\n        /* \"#utility.yul\":9086:9092   */\n      dup2\n        /* \"#utility.yul\":9081:9084   */\n      dup5\n        /* \"#utility.yul\":9074:9078   */\n      0x20\n        /* \"#utility.yul\":9066:9072   */\n      dup8\n        /* \"#utility.yul\":9062:9079   */\n      add\n        /* \"#utility.yul\":9040:9093   */\n      tag_302\n      jump\t// in\n    tag_359:\n        /* \"#utility.yul\":9109:9125   */\n      swap2\n      swap1\n      swap2\n      add\n      swap3\n        /* \"#utility.yul\":8857:9131   */\n      swap2\n      pop\n      pop\n      jump\t// out\n        /* \"#utility.yul\":9494:9877   */\n    tag_299:\n        /* \"#utility.yul\":9643:9645   */\n      0x20\n        /* \"#utility.yul\":9632:9641   */\n      dup2\n        /* \"#utility.yul\":9625:9646   */\n      mstore\n        /* \"#utility.yul\":9606:9610   */\n      0x00\n        /* \"#utility.yul\":9675:9681   */\n      dup3\n        /* \"#utility.yul\":9669:9682   */\n      mload\n        /* \"#utility.yul\":9718:9724   */\n      dup1\n        /* \"#utility.yul\":9713:9715   */\n      0x20\n        /* \"#utility.yul\":9702:9711   */\n      dup5\n        /* \"#utility.yul\":9698:9716   */\n      add\n        /* \"#utility.yul\":9691:9725   */\n      mstore\n        /* \"#utility.yul\":9734:9800   */\n      tag_362\n        /* \"#utility.yul\":9793:9799   */\n      dup2\n        /* \"#utility.yul\":9788:9790   */\n      0x40\n        /* \"#utility.yul\":9777:9786   */\n      dup6\n        /* \"#utility.yul\":9773:9791   */\n      add\n        /* \"#utility.yul\":9768:9770   */\n      0x20\n        /* \"#utility.yul\":9760:9766   */\n      dup8\n        /* \"#utility.yul\":9756:9771   */\n      add\n        /* \"#utility.yul\":9734:9800   */\n      tag_302\n      jump\t// in\n    tag_362:\n        /* \"#utility.yul\":9861:9863   */\n      0x1f\n        /* \"#utility.yul\":9840:9855   */\n      add\n      not(0x1f)\n        /* \"#utility.yul\":9836:9865   */\n      and\n        /* \"#utility.yul\":9821:9866   */\n      swap2\n      swap1\n      swap2\n      add\n        /* \"#utility.yul\":9868:9870   */\n      0x40\n        /* \"#utility.yul\":9817:9871   */\n      add\n      swap3\n        /* \"#utility.yul\":9494:9877   */\n      swap2\n      pop\n      pop\n      jump\t// out\n\n    auxdata: 0xa2646970667358221220d922bfa8be0079fc66cec85ae0658e582aa31e35b5a16532f5666b0f8c60393564736f6c634300080d0033\n}\n",
				"bytecode": {
					"linkReferences": {},
					"object": "60806040523480156200001157600080fd5b506040516200159e3803806200159e8339810160408190526200003491620000f1565b6200003f3362000084565b600180546001600160a01b039485166001600160a01b031991821617909155600592909255600380549190931690821617909155600280549091163317905562000132565b600080546001600160a01b038381166001600160a01b0319831681178455604051919092169283917f8be0079c531659141344cd1fd0a4f28419497f9722a3daafe3b4186f6b6457e09190a35050565b80516001600160a01b0381168114620000ec57600080fd5b919050565b6000806000606084860312156200010757600080fd5b6200011284620000d4565b9250602084015191506200012960408501620000d4565b90509250925092565b61145c80620001426000396000f3fe608060405234801561001057600080fd5b50600436106101585760003560e01c80638da5cb5b116100c3578063c45af5d81161007c578063c45af5d8146102f2578063e4458b3014610305578063e88cc2be14610354578063ee0106d214610386578063f2fde38b14610399578063f89d832f146103ac57600080fd5b80638da5cb5b14610282578063934ed77214610293578063a6021ace146102a6578063a88e132f146102b9578063b7171a2e146102cc578063c0cd40ee146102df57600080fd5b80634d6ce1e5116101155780634d6ce1e514610224578063574880641461023757806357ea89b614610257578063715018a61461025f5780637b2f247f146102675780638b73e3311461026f57600080fd5b8063023245d71461015d5780630ccff6e91461017257806310fd4fba1461018e578063150b7a02146101b9578063275bd33f146101f15780632ffce21014610204575b600080fd5b61017061016b3660046111c1565b6103bf565b005b61017b60045481565b6040519081526020015b60405180910390f35b6002546101a1906001600160a01b031681565b6040516001600160a01b039091168152602001610185565b6101d86101c73660046111f1565b630a85bd0160e11b95945050505050565b6040516001600160e01b03199091168152602001610185565b6101706101ff36600461128c565b6104b4565b61017b61021236600461128c565b60086020526000908152604090205481565b6101706102323660046111c1565b6104de565b61017b61024536600461128c565b60076020526000908152604090205481565b6101706105a5565b6101706108be565b61017b6108d0565b61017b61027d36600461128c565b61090d565b6000546001600160a01b03166101a1565b6101706102a13660046112ae565b610a12565b6003546101a1906001600160a01b031681565b6101706102c73660046111c1565b610b8a565b6001546101a1906001600160a01b031681565b6101706102ed3660046111c1565b610be6565b61017b61030036600461128c565b610c9d565b61033761031336600461128c565b60096020526000908152604090208054600182015460029092015490919060ff1683565b604080519384526020840192909252151590820152606001610185565b61033761036236600461128c565b60066020526000908152604090208054600182015460029092015490919060ff1683565b61017061039436600461128c565b610dcf565b6101706103a736600461128c565b610df9565b6101706103ba3660046111c1565b610e6f565b3360009081526009602052604090206002015460ff166104265760405162461bcd60e51b815260206004820152601760248201527f506c65617365204669727374205374616b65204e46547300000000000000000060448201526064015b60405180910390fd5b600154604051635c46a7ef60e11b81526001600160a01b039091169063b88d4fde9061045a903090339086906004016112d0565b600060405180830381600087803b15801561047457600080fd5b505af1158015610488573d6000803e3d6000fd5b50503360009081526009602052604081208181556001810191909155600201805460ff19169055505050565b6104bc610e7c565b600380546001600160a01b0319166001600160a01b0392909216919091179055565b3360009081526006602052604090206002015460ff16156105395760405162461bcd60e51b8152602060048201526015602482015274506c6561736520466972737420576974684472617760581b604482015260640161041d565b60408051606081018252828152426020808301918252600183850181815233600081815260069094529590922093518455915191830191909155516002909101805460ff19169115159190911790556003546105a2916001600160a01b03909116903084610ed6565b50565b3360009081526006602052604090206002015460ff166105fc5760405162461bcd60e51b8152602060048201526012602482015271506c65617365204669727374205374616b6560701b604482015260640161041d565b3360009081526009602052604090206002015460ff16156107bc5733600081815260066020526040812054916106319061090d565b600180543360008181526009602052604090819020909301549251635c46a7ef60e11b81529394506001600160a01b039091169263b88d4fde9261067c9230929091906004016112d0565b600060405180830381600087803b15801561069657600080fd5b505af11580156106aa573d6000803e3d6000fd5b50506003546001600160a01b0316915063a9059cbb9050336106cc8486611319565b6040516001600160e01b031960e085901b1681526001600160a01b03909216600483015260248201526044016020604051808303816000875af1158015610717573d6000803e3d6000fd5b505050506040513d601f19601f8201168201806040525081019061073b9190611331565b506002546001600160a01b031660009081526008602052604081208054839290610766908490611353565b909155505033600090815260096020908152604080832083815560018082018590556002918201805460ff1990811690915560069094529184208481559182019390935590910180549091169055506108bc9050565b33600081815260066020526040812054916107d69061090d565b6003549091506001600160a01b031663a9059cbb336107f58486611319565b6040516001600160e01b031960e085901b1681526001600160a01b03909216600483015260248201526044016020604051808303816000875af1158015610840573d6000803e3d6000fd5b505050506040513d601f19601f820116820180604052508101906108649190611331565b506002546001600160a01b03166000908152600860205260408120805483929061088f908490611353565b90915550503360009081526006602052604081208181556001810191909155600201805460ff1916905550505b565b6108c6610e7c565b6108bc6000610f47565b6004546002546001600160a01b0316600090815260086020526040812054909182916108fd90606461136a565b6109079190611389565b92915050565b6001600160a01b03811660009081526009602052604081206002015460ff16156109b4576001600160a01b038216600090815260066020526040812060010154603c9061095a9042611353565b6109649190611389565b6001600160a01b038416600090815260096020908152604080832054600690925290912054610993919061136a565b61099d919061136a565b905060006109ac606483611389565b949350505050565b6001600160a01b038216600090815260066020526040812060010154603c906109dd9042611353565b6109e79190611389565b6005546001600160a01b038516600090815260066020526040902054610993919061136a565b919050565b3360009081526006602052604090206002015460ff16610a6b5760405162461bcd60e51b81526020600482015260146024820152734669727374204465706f73697420546f6b656e7360601b604482015260640161041d565b3360009081526009602052604090206002015460ff16610ad75760405162461bcd60e51b815260206004820152602160248201527f506c6561736520556e7374616b6520796f7572206465706f7369746564204e466044820152601560fa1b606482015260840161041d565b60408051606081018252828152602080820185815260018385018181523360008181526009909552938690209451855591518482015590516002909301805460ff19169315159390931790925590549151635c46a7ef60e11b81526001600160a01b039092169163b88d4fde91610b5491309087906004016112d0565b600060405180830381600087803b158015610b6e57600080fd5b505af1158015610b82573d6000803e3d6000fd5b505050505050565b610b92610e7c565b3360009081526008602052604081208054839290610bb1908490611353565b925050819055508060046000828254610bca9190611353565b90915550506003546105a2906001600160a01b03163383610f97565b610bee610e7c565b6002546001600160a01b03163314610c485760405162461bcd60e51b815260206004820152601760248201527f4f6e6c79204f776e65722063616e207472616e73666572000000000000000000604482015260640161041d565b3360009081526008602052604081208054839290610c67908490611319565b925050819055508060046000828254610c809190611319565b90915550506003546105a2906001600160a01b0316333084610ed6565b6001600160a01b03811660009081526009602052604081206002015460ff1615610d76576001600160a01b038216600090815260066020526040812060010154603c90610cea9042611353565b610cf49190611389565b6001600160a01b038416600090815260096020908152604080832054600690925290912054610d23919061136a565b610d2d919061136a565b90506000610d3c606483611389565b6001600160a01b038516600090815260066020526040902054909150610d629082611319565b92506109ac670de0b6b3a764000084611389565b6001600160a01b038216600090815260066020526040812060010154603c90610d9f9042611353565b610da99190611389565b6005546001600160a01b038516600090815260066020526040902054610d23919061136a565b610dd7610e7c565b600180546001600160a01b0319166001600160a01b0392909216919091179055565b610e01610e7c565b6001600160a01b038116610e665760405162461bcd60e51b815260206004820152602660248201527f4f776e61626c653a206e6577206f776e657220697320746865207a65726f206160448201526564647265737360d01b606482015260840161041d565b6105a281610f47565b610e77610e7c565b600555565b6000546001600160a01b031633146108bc5760405162461bcd60e51b815260206004820181905260248201527f4f776e61626c653a2063616c6c6572206973206e6f7420746865206f776e6572604482015260640161041d565b6040516001600160a01b0380851660248301528316604482015260648101829052610f419085906323b872dd60e01b906084015b60408051601f198184030181529190526020810180516001600160e01b03166001600160e01b031990931692909217909152610fcc565b50505050565b600080546001600160a01b038381166001600160a01b0319831681178455604051919092169283917f8be0079c531659141344cd1fd0a4f28419497f9722a3daafe3b4186f6b6457e09190a35050565b6040516001600160a01b038316602482015260448101829052610fc790849063a9059cbb60e01b90606401610f0a565b505050565b6000611021826040518060400160405280602081526020017f5361666545524332303a206c6f772d6c6576656c2063616c6c206661696c6564815250856001600160a01b031661109e9092919063ffffffff16565b805190915015610fc7578080602001905181019061103f9190611331565b610fc75760405162461bcd60e51b815260206004820152602a60248201527f5361666545524332303a204552433230206f7065726174696f6e20646964206e6044820152691bdd081cdd58d8d9595960b21b606482015260840161041d565b60606109ac848460008585600080866001600160a01b031685876040516110c591906113d7565b60006040518083038185875af1925050503d8060008114611102576040519150601f19603f3d011682016040523d82523d6000602084013e611107565b606091505b509150915061111887838387611123565b979650505050505050565b6060831561119257825160000361118b576001600160a01b0385163b61118b5760405162461bcd60e51b815260206004820152601d60248201527f416464726573733a2063616c6c20746f206e6f6e2d636f6e7472616374000000604482015260640161041d565b50816109ac565b6109ac83838151156111a75781518083602001fd5b8060405162461bcd60e51b815260040161041d91906113f3565b6000602082840312156111d357600080fd5b5035919050565b80356001600160a01b0381168114610a0d57600080fd5b60008060008060006080868803121561120957600080fd5b611212866111da565b9450611220602087016111da565b935060408601359250606086013567ffffffffffffffff8082111561124457600080fd5b818801915088601f83011261125857600080fd5b81358181111561126757600080fd5b89602082850101111561127957600080fd5b9699959850939650602001949392505050565b60006020828403121561129e57600080fd5b6112a7826111da565b9392505050565b600080604083850312156112c157600080fd5b50508035926020909101359150565b6001600160a01b039384168152919092166020820152604081019190915260806060820181905260009082015260a00190565b634e487b7160e01b600052601160045260246000fd5b6000821982111561132c5761132c611303565b500190565b60006020828403121561134357600080fd5b815180151581146112a757600080fd5b60008282101561136557611365611303565b500390565b600081600019048311821515161561138457611384611303565b500290565b6000826113a657634e487b7160e01b600052601260045260246000fd5b500490565b60005b838110156113c65781810151838201526020016113ae565b83811115610f415750506000910152565b600082516113e98184602087016113ab565b9190910192915050565b60208152600082518060208401526114128160408501602087016113ab565b601f01601f1916919091016040019291505056fea2646970667358221220d922bfa8be0079fc66cec85ae0658e582aa31e35b5a16532f5666b0f8c60393564736f6c634300080d0033",
					"opcodes": "PUSH1 0x80 PUSH1 0x40 MSTORE CALLVALUE DUP1 ISZERO PUSH3 0x11 JUMPI PUSH1 0x0 DUP1 REVERT JUMPDEST POP PUSH1 0x40 MLOAD PUSH3 0x159E CODESIZE SUB DUP1 PUSH3 0x159E DUP4 CODECOPY DUP2 ADD PUSH1 0x40 DUP2 SWAP1 MSTORE PUSH3 0x34 SWAP2 PUSH3 0xF1 JUMP JUMPDEST PUSH3 0x3F CALLER PUSH3 0x84 JUMP JUMPDEST PUSH1 0x1 DUP1 SLOAD PUSH1 0x1 PUSH1 0x1 PUSH1 0xA0 SHL SUB SWAP5 DUP6 AND PUSH1 0x1 PUSH1 0x1 PUSH1 0xA0 SHL SUB NOT SWAP2 DUP3 AND OR SWAP1 SWAP2 SSTORE PUSH1 0x5 SWAP3 SWAP1 SWAP3 SSTORE PUSH1 0x3 DUP1 SLOAD SWAP2 SWAP1 SWAP4 AND SWAP1 DUP3 AND OR SWAP1 SWAP2 SSTORE PUSH1 0x2 DUP1 SLOAD SWAP1 SWAP2 AND CALLER OR SWAP1 SSTORE PUSH3 0x132 JUMP JUMPDEST PUSH1 0x0 DUP1 SLOAD PUSH1 0x1 PUSH1 0x1 PUSH1 0xA0 SHL SUB DUP4 DUP2 AND PUSH1 0x1 PUSH1 0x1 PUSH1 0xA0 SHL SUB NOT DUP4 AND DUP2 OR DUP5 SSTORE PUSH1 0x40 MLOAD SWAP2 SWAP1 SWAP3 AND SWAP3 DUP4 SWAP2 PUSH32 0x8BE0079C531659141344CD1FD0A4F28419497F9722A3DAAFE3B4186F6B6457E0 SWAP2 SWAP1 LOG3 POP POP JUMP JUMPDEST DUP1 MLOAD PUSH1 0x1 PUSH1 0x1 PUSH1 0xA0 SHL SUB DUP2 AND DUP2 EQ PUSH3 0xEC JUMPI PUSH1 0x0 DUP1 REVERT JUMPDEST SWAP2 SWAP1 POP JUMP JUMPDEST PUSH1 0x0 DUP1 PUSH1 0x0 PUSH1 0x60 DUP5 DUP7 SUB SLT ISZERO PUSH3 0x107 JUMPI PUSH1 0x0 DUP1 REVERT JUMPDEST PUSH3 0x112 DUP5 PUSH3 0xD4 JUMP JUMPDEST SWAP3 POP PUSH1 0x20 DUP5 ADD MLOAD SWAP2 POP PUSH3 0x129 PUSH1 0x40 DUP6 ADD PUSH3 0xD4 JUMP JUMPDEST SWAP1 POP SWAP3 POP SWAP3 POP SWAP3 JUMP JUMPDEST PUSH2 0x145C DUP1 PUSH3 0x142 PUSH1 0x0 CODECOPY PUSH1 0x0 RETURN INVALID PUSH1 0x80 PUSH1 0x40 MSTORE CALLVALUE DUP1 ISZERO PUSH2 0x10 JUMPI PUSH1 0x0 DUP1 REVERT JUMPDEST POP PUSH1 0x4 CALLDATASIZE LT PUSH2 0x158 JUMPI PUSH1 0x0 CALLDATALOAD PUSH1 0xE0 SHR DUP1 PUSH4 0x8DA5CB5B GT PUSH2 0xC3 JUMPI DUP1 PUSH4 0xC45AF5D8 GT PUSH2 0x7C JUMPI DUP1 PUSH4 0xC45AF5D8 EQ PUSH2 0x2F2 JUMPI DUP1 PUSH4 0xE4458B30 EQ PUSH2 0x305 JUMPI DUP1 PUSH4 0xE88CC2BE EQ PUSH2 0x354 JUMPI DUP1 PUSH4 0xEE0106D2 EQ PUSH2 0x386 JUMPI DUP1 PUSH4 0xF2FDE38B EQ PUSH2 0x399 JUMPI DUP1 PUSH4 0xF89D832F EQ PUSH2 0x3AC JUMPI PUSH1 0x0 DUP1 REVERT JUMPDEST DUP1 PUSH4 0x8DA5CB5B EQ PUSH2 0x282 JUMPI DUP1 PUSH4 0x934ED772 EQ PUSH2 0x293 JUMPI DUP1 PUSH4 0xA6021ACE EQ PUSH2 0x2A6 JUMPI DUP1 PUSH4 0xA88E132F EQ PUSH2 0x2B9 JUMPI DUP1 PUSH4 0xB7171A2E EQ PUSH2 0x2CC JUMPI DUP1 PUSH4 0xC0CD40EE EQ PUSH2 0x2DF JUMPI PUSH1 0x0 DUP1 REVERT JUMPDEST DUP1 PUSH4 0x4D6CE1E5 GT PUSH2 0x115 JUMPI DUP1 PUSH4 0x4D6CE1E5 EQ PUSH2 0x224 JUMPI DUP1 PUSH4 0x57488064 EQ PUSH2 0x237 JUMPI DUP1 PUSH4 0x57EA89B6 EQ PUSH2 0x257 JUMPI DUP1 PUSH4 0x715018A6 EQ PUSH2 0x25F JUMPI DUP1 PUSH4 0x7B2F247F EQ PUSH2 0x267 JUMPI DUP1 PUSH4 0x8B73E331 EQ PUSH2 0x26F JUMPI PUSH1 0x0 DUP1 REVERT JUMPDEST DUP1 PUSH4 0x23245D7 EQ PUSH2 0x15D JUMPI DUP1 PUSH4 0xCCFF6E9 EQ PUSH2 0x172 JUMPI DUP1 PUSH4 0x10FD4FBA EQ PUSH2 0x18E JUMPI DUP1 PUSH4 0x150B7A02 EQ PUSH2 0x1B9 JUMPI DUP1 PUSH4 0x275BD33F EQ PUSH2 0x1F1 JUMPI DUP1 PUSH4 0x2FFCE210 EQ PUSH2 0x204 JUMPI JUMPDEST PUSH1 0x0 DUP1 REVERT JUMPDEST PUSH2 0x170 PUSH2 0x16B CALLDATASIZE PUSH1 0x4 PUSH2 0x11C1 JUMP JUMPDEST PUSH2 0x3BF JUMP JUMPDEST STOP JUMPDEST PUSH2 0x17B PUSH1 0x4 SLOAD DUP2 JUMP JUMPDEST PUSH1 0x40 MLOAD SWAP1 DUP2 MSTORE PUSH1 0x20 ADD JUMPDEST PUSH1 0x40 MLOAD DUP1 SWAP2 SUB SWAP1 RETURN JUMPDEST PUSH1 0x2 SLOAD PUSH2 0x1A1 SWAP1 PUSH1 0x1 PUSH1 0x1 PUSH1 0xA0 SHL SUB AND DUP2 JUMP JUMPDEST PUSH1 0x40 MLOAD PUSH1 0x1 PUSH1 0x1 PUSH1 0xA0 SHL SUB SWAP1 SWAP2 AND DUP2 MSTORE PUSH1 0x20 ADD PUSH2 0x185 JUMP JUMPDEST PUSH2 0x1D8 PUSH2 0x1C7 CALLDATASIZE PUSH1 0x4 PUSH2 0x11F1 JUMP JUMPDEST PUSH4 0xA85BD01 PUSH1 0xE1 SHL SWAP6 SWAP5 POP POP POP POP POP JUMP JUMPDEST PUSH1 0x40 MLOAD PUSH1 0x1 PUSH1 0x1 PUSH1 0xE0 SHL SUB NOT SWAP1 SWAP2 AND DUP2 MSTORE PUSH1 0x20 ADD PUSH2 0x185 JUMP JUMPDEST PUSH2 0x170 PUSH2 0x1FF CALLDATASIZE PUSH1 0x4 PUSH2 0x128C JUMP JUMPDEST PUSH2 0x4B4 JUMP JUMPDEST PUSH2 0x17B PUSH2 0x212 CALLDATASIZE PUSH1 0x4 PUSH2 0x128C JUMP JUMPDEST PUSH1 0x8 PUSH1 0x20 MSTORE PUSH1 0x0 SWAP1 DUP2 MSTORE PUSH1 0x40 SWAP1 KECCAK256 SLOAD DUP2 JUMP JUMPDEST PUSH2 0x170 PUSH2 0x232 CALLDATASIZE PUSH1 0x4 PUSH2 0x11C1 JUMP JUMPDEST PUSH2 0x4DE JUMP JUMPDEST PUSH2 0x17B PUSH2 0x245 CALLDATASIZE PUSH1 0x4 PUSH2 0x128C JUMP JUMPDEST PUSH1 0x7 PUSH1 0x20 MSTORE PUSH1 0x0 SWAP1 DUP2 MSTORE PUSH1 0x40 SWAP1 KECCAK256 SLOAD DUP2 JUMP JUMPDEST PUSH2 0x170 PUSH2 0x5A5 JUMP JUMPDEST PUSH2 0x170 PUSH2 0x8BE JUMP JUMPDEST PUSH2 0x17B PUSH2 0x8D0 JUMP JUMPDEST PUSH2 0x17B PUSH2 0x27D CALLDATASIZE PUSH1 0x4 PUSH2 0x128C JUMP JUMPDEST PUSH2 0x90D JUMP JUMPDEST PUSH1 0x0 SLOAD PUSH1 0x1 PUSH1 0x1 PUSH1 0xA0 SHL SUB AND PUSH2 0x1A1 JUMP JUMPDEST PUSH2 0x170 PUSH2 0x2A1 CALLDATASIZE PUSH1 0x4 PUSH2 0x12AE JUMP JUMPDEST PUSH2 0xA12 JUMP JUMPDEST PUSH1 0x3 SLOAD PUSH2 0x1A1 SWAP1 PUSH1 0x1 PUSH1 0x1 PUSH1 0xA0 SHL SUB AND DUP2 JUMP JUMPDEST PUSH2 0x170 PUSH2 0x2C7 CALLDATASIZE PUSH1 0x4 PUSH2 0x11C1 JUMP JUMPDEST PUSH2 0xB8A JUMP JUMPDEST PUSH1 0x1 SLOAD PUSH2 0x1A1 SWAP1 PUSH1 0x1 PUSH1 0x1 PUSH1 0xA0 SHL SUB AND DUP2 JUMP JUMPDEST PUSH2 0x170 PUSH2 0x2ED CALLDATASIZE PUSH1 0x4 PUSH2 0x11C1 JUMP JUMPDEST PUSH2 0xBE6 JUMP JUMPDEST PUSH2 0x17B PUSH2 0x300 CALLDATASIZE PUSH1 0x4 PUSH2 0x128C JUMP JUMPDEST PUSH2 0xC9D JUMP JUMPDEST PUSH2 0x337 PUSH2 0x313 CALLDATASIZE PUSH1 0x4 PUSH2 0x128C JUMP JUMPDEST PUSH1 0x9 PUSH1 0x20 MSTORE PUSH1 0x0 SWAP1 DUP2 MSTORE PUSH1 0x40 SWAP1 KECCAK256 DUP1 SLOAD PUSH1 0x1 DUP3 ADD SLOAD PUSH1 0x2 SWAP1 SWAP3 ADD SLOAD SWAP1 SWAP2 SWAP1 PUSH1 0xFF AND DUP4 JUMP JUMPDEST PUSH1 0x40 DUP1 MLOAD SWAP4 DUP5 MSTORE PUSH1 0x20 DUP5 ADD SWAP3 SWAP1 SWAP3 MSTORE ISZERO ISZERO SWAP1 DUP3 ADD MSTORE PUSH1 0x60 ADD PUSH2 0x185 JUMP JUMPDEST PUSH2 0x337 PUSH2 0x362 CALLDATASIZE PUSH1 0x4 PUSH2 0x128C JUMP JUMPDEST PUSH1 0x6 PUSH1 0x20 MSTORE PUSH1 0x0 SWAP1 DUP2 MSTORE PUSH1 0x40 SWAP1 KECCAK256 DUP1 SLOAD PUSH1 0x1 DUP3 ADD SLOAD PUSH1 0x2 SWAP1 SWAP3 ADD SLOAD SWAP1 SWAP2 SWAP1 PUSH1 0xFF AND DUP4 JUMP JUMPDEST PUSH2 0x170 PUSH2 0x394 CALLDATASIZE PUSH1 0x4 PUSH2 0x128C JUMP JUMPDEST PUSH2 0xDCF JUMP JUMPDEST PUSH2 0x170 PUSH2 0x3A7 CALLDATASIZE PUSH1 0x4 PUSH2 0x128C JUMP JUMPDEST PUSH2 0xDF9 JUMP JUMPDEST PUSH2 0x170 PUSH2 0x3BA CALLDATASIZE PUSH1 0x4 PUSH2 0x11C1 JUMP JUMPDEST PUSH2 0xE6F JUMP JUMPDEST CALLER PUSH1 0x0 SWAP1 DUP2 MSTORE PUSH1 0x9 PUSH1 0x20 MSTORE PUSH1 0x40 SWAP1 KECCAK256 PUSH1 0x2 ADD SLOAD PUSH1 0xFF AND PUSH2 0x426 JUMPI PUSH1 0x40 MLOAD PUSH3 0x461BCD PUSH1 0xE5 SHL DUP2 MSTORE PUSH1 0x20 PUSH1 0x4 DUP3 ADD MSTORE PUSH1 0x17 PUSH1 0x24 DUP3 ADD MSTORE PUSH32 0x506C65617365204669727374205374616B65204E465473000000000000000000 PUSH1 0x44 DUP3 ADD MSTORE PUSH1 0x64 ADD JUMPDEST PUSH1 0x40 MLOAD DUP1 SWAP2 SUB SWAP1 REVERT JUMPDEST PUSH1 0x1 SLOAD PUSH1 0x40 MLOAD PUSH4 0x5C46A7EF PUSH1 0xE1 SHL DUP2 MSTORE PUSH1 0x1 PUSH1 0x1 PUSH1 0xA0 SHL SUB SWAP1 SWAP2 AND SWAP1 PUSH4 0xB88D4FDE SWAP1 PUSH2 0x45A SWAP1 ADDRESS SWAP1 CALLER SWAP1 DUP7 SWAP1 PUSH1 0x4 ADD PUSH2 0x12D0 JUMP JUMPDEST PUSH1 0x0 PUSH1 0x40 MLOAD DUP1 DUP4 SUB DUP2 PUSH1 0x0 DUP8 DUP1 EXTCODESIZE ISZERO DUP1 ISZERO PUSH2 0x474 JUMPI PUSH1 0x0 DUP1 REVERT JUMPDEST POP GAS CALL ISZERO DUP1 ISZERO PUSH2 0x488 JUMPI RETURNDATASIZE PUSH1 0x0 DUP1 RETURNDATACOPY RETURNDATASIZE PUSH1 0x0 REVERT JUMPDEST POP POP CALLER PUSH1 0x0 SWAP1 DUP2 MSTORE PUSH1 0x9 PUSH1 0x20 MSTORE PUSH1 0x40 DUP2 KECCAK256 DUP2 DUP2 SSTORE PUSH1 0x1 DUP2 ADD SWAP2 SWAP1 SWAP2 SSTORE PUSH1 0x2 ADD DUP1 SLOAD PUSH1 0xFF NOT AND SWAP1 SSTORE POP POP POP JUMP JUMPDEST PUSH2 0x4BC PUSH2 0xE7C JUMP JUMPDEST PUSH1 0x3 DUP1 SLOAD PUSH1 0x1 PUSH1 0x1 PUSH1 0xA0 SHL SUB NOT AND PUSH1 0x1 PUSH1 0x1 PUSH1 0xA0 SHL SUB SWAP3 SWAP1 SWAP3 AND SWAP2 SWAP1 SWAP2 OR SWAP1 SSTORE JUMP JUMPDEST CALLER PUSH1 0x0 SWAP1 DUP2 MSTORE PUSH1 0x6 PUSH1 0x20 MSTORE PUSH1 0x40 SWAP1 KECCAK256 PUSH1 0x2 ADD SLOAD PUSH1 0xFF AND ISZERO PUSH2 0x539 JUMPI PUSH1 0x40 MLOAD PUSH3 0x461BCD PUSH1 0xE5 SHL DUP2 MSTORE PUSH1 0x20 PUSH1 0x4 DUP3 ADD MSTORE PUSH1 0x15 PUSH1 0x24 DUP3 ADD MSTORE PUSH21 0x506C65617365204669727374205769746844726177 PUSH1 0x58 SHL PUSH1 0x44 DUP3 ADD MSTORE PUSH1 0x64 ADD PUSH2 0x41D JUMP JUMPDEST PUSH1 0x40 DUP1 MLOAD PUSH1 0x60 DUP2 ADD DUP3 MSTORE DUP3 DUP2 MSTORE TIMESTAMP PUSH1 0x20 DUP1 DUP4 ADD SWAP2 DUP3 MSTORE PUSH1 0x1 DUP4 DUP6 ADD DUP2 DUP2 MSTORE CALLER PUSH1 0x0 DUP2 DUP2 MSTORE PUSH1 0x6 SWAP1 SWAP5 MSTORE SWAP6 SWAP1 SWAP3 KECCAK256 SWAP4 MLOAD DUP5 SSTORE SWAP2 MLOAD SWAP2 DUP4 ADD SWAP2 SWAP1 SWAP2 SSTORE MLOAD PUSH1 0x2 SWAP1 SWAP2 ADD DUP1 SLOAD PUSH1 0xFF NOT AND SWAP2 ISZERO ISZERO SWAP2 SWAP1 SWAP2 OR SWAP1 SSTORE PUSH1 0x3 SLOAD PUSH2 0x5A2 SWAP2 PUSH1 0x1 PUSH1 0x1 PUSH1 0xA0 SHL SUB SWAP1 SWAP2 AND SWAP1 ADDRESS DUP5 PUSH2 0xED6 JUMP JUMPDEST POP JUMP JUMPDEST CALLER PUSH1 0x0 SWAP1 DUP2 MSTORE PUSH1 0x6 PUSH1 0x20 MSTORE PUSH1 0x40 SWAP1 KECCAK256 PUSH1 0x2 ADD SLOAD PUSH1 0xFF AND PUSH2 0x5FC JUMPI PUSH1 0x40 MLOAD PUSH3 0x461BCD PUSH1 0xE5 SHL DUP2 MSTORE PUSH1 0x20 PUSH1 0x4 DUP3 ADD MSTORE PUSH1 0x12 PUSH1 0x24 DUP3 ADD MSTORE PUSH18 0x506C65617365204669727374205374616B65 PUSH1 0x70 SHL PUSH1 0x44 DUP3 ADD MSTORE PUSH1 0x64 ADD PUSH2 0x41D JUMP JUMPDEST CALLER PUSH1 0x0 SWAP1 DUP2 MSTORE PUSH1 0x9 PUSH1 0x20 MSTORE PUSH1 0x40 SWAP1 KECCAK256 PUSH1 0x2 ADD SLOAD PUSH1 0xFF AND ISZERO PUSH2 0x7BC JUMPI CALLER PUSH1 0x0 DUP2 DUP2 MSTORE PUSH1 0x6 PUSH1 0x20 MSTORE PUSH1 0x40 DUP2 KECCAK256 SLOAD SWAP2 PUSH2 0x631 SWAP1 PUSH2 0x90D JUMP JUMPDEST PUSH1 0x1 DUP1 SLOAD CALLER PUSH1 0x0 DUP2 DUP2 MSTORE PUSH1 0x9 PUSH1 0x20 MSTORE PUSH1 0x40 SWAP1 DUP2 SWAP1 KECCAK256 SWAP1 SWAP4 ADD SLOAD SWAP3 MLOAD PUSH4 0x5C46A7EF PUSH1 0xE1 SHL DUP2 MSTORE SWAP4 SWAP5 POP PUSH1 0x1 PUSH1 0x1 PUSH1 0xA0 SHL SUB SWAP1 SWAP2 AND SWAP3 PUSH4 0xB88D4FDE SWAP3 PUSH2 0x67C SWAP3 ADDRESS SWAP3 SWAP1 SWAP2 SWAP1 PUSH1 0x4 ADD PUSH2 0x12D0 JUMP JUMPDEST PUSH1 0x0 PUSH1 0x40 MLOAD DUP1 DUP4 SUB DUP2 PUSH1 0x0 DUP8 DUP1 EXTCODESIZE ISZERO DUP1 ISZERO PUSH2 0x696 JUMPI PUSH1 0x0 DUP1 REVERT JUMPDEST POP GAS CALL ISZERO DUP1 ISZERO PUSH2 0x6AA JUMPI RETURNDATASIZE PUSH1 0x0 DUP1 RETURNDATACOPY RETURNDATASIZE PUSH1 0x0 REVERT JUMPDEST POP POP PUSH1 0x3 SLOAD PUSH1 0x1 PUSH1 0x1 PUSH1 0xA0 SHL SUB AND SWAP2 POP PUSH4 0xA9059CBB SWAP1 POP CALLER PUSH2 0x6CC DUP5 DUP7 PUSH2 0x1319 JUMP JUMPDEST PUSH1 0x40 MLOAD PUSH1 0x1 PUSH1 0x1 PUSH1 0xE0 SHL SUB NOT PUSH1 0xE0 DUP6 SWAP1 SHL AND DUP2 MSTORE PUSH1 0x1 PUSH1 0x1 PUSH1 0xA0 SHL SUB SWAP1 SWAP3 AND PUSH1 0x4 DUP4 ADD MSTORE PUSH1 0x24 DUP3 ADD MSTORE PUSH1 0x44 ADD PUSH1 0x20 PUSH1 0x40 MLOAD DUP1 DUP4 SUB DUP2 PUSH1 0x0 DUP8 GAS CALL ISZERO DUP1 ISZERO PUSH2 0x717 JUMPI RETURNDATASIZE PUSH1 0x0 DUP1 RETURNDATACOPY RETURNDATASIZE PUSH1 0x0 REVERT JUMPDEST POP POP POP POP PUSH1 0x40 MLOAD RETURNDATASIZE PUSH1 0x1F NOT PUSH1 0x1F DUP3 ADD AND DUP3 ADD DUP1 PUSH1 0x40 MSTORE POP DUP2 ADD SWAP1 PUSH2 0x73B SWAP2 SWAP1 PUSH2 0x1331 JUMP JUMPDEST POP PUSH1 0x2 SLOAD PUSH1 0x1 PUSH1 0x1 PUSH1 0xA0 SHL SUB AND PUSH1 0x0 SWAP1 DUP2 MSTORE PUSH1 0x8 PUSH1 0x20 MSTORE PUSH1 0x40 DUP2 KECCAK256 DUP1 SLOAD DUP4 SWAP3 SWAP1 PUSH2 0x766 SWAP1 DUP5 SWAP1 PUSH2 0x1353 JUMP JUMPDEST SWAP1 SWAP2 SSTORE POP POP CALLER PUSH1 0x0 SWAP1 DUP2 MSTORE PUSH1 0x9 PUSH1 0x20 SWAP1 DUP2 MSTORE PUSH1 0x40 DUP1 DUP4 KECCAK256 DUP4 DUP2 SSTORE PUSH1 0x1 DUP1 DUP3 ADD DUP6 SWAP1 SSTORE PUSH1 0x2 SWAP2 DUP3 ADD DUP1 SLOAD PUSH1 0xFF NOT SWAP1 DUP2 AND SWAP1 SWAP2 SSTORE PUSH1 0x6 SWAP1 SWAP5 MSTORE SWAP2 DUP5 KECCAK256 DUP5 DUP2 SSTORE SWAP2 DUP3 ADD SWAP4 SWAP1 SWAP4 SSTORE SWAP1 SWAP2 ADD DUP1 SLOAD SWAP1 SWAP2 AND SWAP1 SSTORE POP PUSH2 0x8BC SWAP1 POP JUMP JUMPDEST CALLER PUSH1 0x0 DUP2 DUP2 MSTORE PUSH1 0x6 PUSH1 0x20 MSTORE PUSH1 0x40 DUP2 KECCAK256 SLOAD SWAP2 PUSH2 0x7D6 SWAP1 PUSH2 0x90D JUMP JUMPDEST PUSH1 0x3 SLOAD SWAP1 SWAP2 POP PUSH1 0x1 PUSH1 0x1 PUSH1 0xA0 SHL SUB AND PUSH4 0xA9059CBB CALLER PUSH2 0x7F5 DUP5 DUP7 PUSH2 0x1319 JUMP JUMPDEST PUSH1 0x40 MLOAD PUSH1 0x1 PUSH1 0x1 PUSH1 0xE0 SHL SUB NOT PUSH1 0xE0 DUP6 SWAP1 SHL AND DUP2 MSTORE PUSH1 0x1 PUSH1 0x1 PUSH1 0xA0 SHL SUB SWAP1 SWAP3 AND PUSH1 0x4 DUP4 ADD MSTORE PUSH1 0x24 DUP3 ADD MSTORE PUSH1 0x44 ADD PUSH1 0x20 PUSH1 0x40 MLOAD DUP1 DUP4 SUB DUP2 PUSH1 0x0 DUP8 GAS CALL ISZERO DUP1 ISZERO PUSH2 0x840 JUMPI RETURNDATASIZE PUSH1 0x0 DUP1 RETURNDATACOPY RETURNDATASIZE PUSH1 0x0 REVERT JUMPDEST POP POP POP POP PUSH1 0x40 MLOAD RETURNDATASIZE PUSH1 0x1F NOT PUSH1 0x1F DUP3 ADD AND DUP3 ADD DUP1 PUSH1 0x40 MSTORE POP DUP2 ADD SWAP1 PUSH2 0x864 SWAP2 SWAP1 PUSH2 0x1331 JUMP JUMPDEST POP PUSH1 0x2 SLOAD PUSH1 0x1 PUSH1 0x1 PUSH1 0xA0 SHL SUB AND PUSH1 0x0 SWAP1 DUP2 MSTORE PUSH1 0x8 PUSH1 0x20 MSTORE PUSH1 0x40 DUP2 KECCAK256 DUP1 SLOAD DUP4 SWAP3 SWAP1 PUSH2 0x88F SWAP1 DUP5 SWAP1 PUSH2 0x1353 JUMP JUMPDEST SWAP1 SWAP2 SSTORE POP POP CALLER PUSH1 0x0 SWAP1 DUP2 MSTORE PUSH1 0x6 PUSH1 0x20 MSTORE PUSH1 0x40 DUP2 KECCAK256 DUP2 DUP2 SSTORE PUSH1 0x1 DUP2 ADD SWAP2 SWAP1 SWAP2 SSTORE PUSH1 0x2 ADD DUP1 SLOAD PUSH1 0xFF NOT AND SWAP1 SSTORE POP POP JUMPDEST JUMP JUMPDEST PUSH2 0x8C6 PUSH2 0xE7C JUMP JUMPDEST PUSH2 0x8BC PUSH1 0x0 PUSH2 0xF47 JUMP JUMPDEST PUSH1 0x4 SLOAD PUSH1 0x2 SLOAD PUSH1 0x1 PUSH1 0x1 PUSH1 0xA0 SHL SUB AND PUSH1 0x0 SWAP1 DUP2 MSTORE PUSH1 0x8 PUSH1 0x20 MSTORE PUSH1 0x40 DUP2 KECCAK256 SLOAD SWAP1 SWAP2 DUP3 SWAP2 PUSH2 0x8FD SWAP1 PUSH1 0x64 PUSH2 0x136A JUMP JUMPDEST PUSH2 0x907 SWAP2 SWAP1 PUSH2 0x1389 JUMP JUMPDEST SWAP3 SWAP2 POP POP JUMP JUMPDEST PUSH1 0x1 PUSH1 0x1 PUSH1 0xA0 SHL SUB DUP2 AND PUSH1 0x0 SWAP1 DUP2 MSTORE PUSH1 0x9 PUSH1 0x20 MSTORE PUSH1 0x40 DUP2 KECCAK256 PUSH1 0x2 ADD SLOAD PUSH1 0xFF AND ISZERO PUSH2 0x9B4 JUMPI PUSH1 0x1 PUSH1 0x1 PUSH1 0xA0 SHL SUB DUP3 AND PUSH1 0x0 SWAP1 DUP2 MSTORE PUSH1 0x6 PUSH1 0x20 MSTORE PUSH1 0x40 DUP2 KECCAK256 PUSH1 0x1 ADD SLOAD PUSH1 0x3C SWAP1 PUSH2 0x95A SWAP1 TIMESTAMP PUSH2 0x1353 JUMP JUMPDEST PUSH2 0x964 SWAP2 SWAP1 PUSH2 0x1389 JUMP JUMPDEST PUSH1 0x1 PUSH1 0x1 PUSH1 0xA0 SHL SUB DUP5 AND PUSH1 0x0 SWAP1 DUP2 MSTORE PUSH1 0x9 PUSH1 0x20 SWAP1 DUP2 MSTORE PUSH1 0x40 DUP1 DUP4 KECCAK256 SLOAD PUSH1 0x6 SWAP1 SWAP3 MSTORE SWAP1 SWAP2 KECCAK256 SLOAD PUSH2 0x993 SWAP2 SWAP1 PUSH2 0x136A JUMP JUMPDEST PUSH2 0x99D SWAP2 SWAP1 PUSH2 0x136A JUMP JUMPDEST SWAP1 POP PUSH1 0x0 PUSH2 0x9AC PUSH1 0x64 DUP4 PUSH2 0x1389 JUMP JUMPDEST SWAP5 SWAP4 POP POP POP POP JUMP JUMPDEST PUSH1 0x1 PUSH1 0x1 PUSH1 0xA0 SHL SUB DUP3 AND PUSH1 0x0 SWAP1 DUP2 MSTORE PUSH1 0x6 PUSH1 0x20 MSTORE PUSH1 0x40 DUP2 KECCAK256 PUSH1 0x1 ADD SLOAD PUSH1 0x3C SWAP1 PUSH2 0x9DD SWAP1 TIMESTAMP PUSH2 0x1353 JUMP JUMPDEST PUSH2 0x9E7 SWAP2 SWAP1 PUSH2 0x1389 JUMP JUMPDEST PUSH1 0x5 SLOAD PUSH1 0x1 PUSH1 0x1 PUSH1 0xA0 SHL SUB DUP6 AND PUSH1 0x0 SWAP1 DUP2 MSTORE PUSH1 0x6 PUSH1 0x20 MSTORE PUSH1 0x40 SWAP1 KECCAK256 SLOAD PUSH2 0x993 SWAP2 SWAP1 PUSH2 0x136A JUMP JUMPDEST SWAP2 SWAP1 POP JUMP JUMPDEST CALLER PUSH1 0x0 SWAP1 DUP2 MSTORE PUSH1 0x6 PUSH1 0x20 MSTORE PUSH1 0x40 SWAP1 KECCAK256 PUSH1 0x2 ADD SLOAD PUSH1 0xFF AND PUSH2 0xA6B JUMPI PUSH1 0x40 MLOAD PUSH3 0x461BCD PUSH1 0xE5 SHL DUP2 MSTORE PUSH1 0x20 PUSH1 0x4 DUP3 ADD MSTORE PUSH1 0x14 PUSH1 0x24 DUP3 ADD MSTORE PUSH20 0x4669727374204465706F73697420546F6B656E73 PUSH1 0x60 SHL PUSH1 0x44 DUP3 ADD MSTORE PUSH1 0x64 ADD PUSH2 0x41D JUMP JUMPDEST CALLER PUSH1 0x0 SWAP1 DUP2 MSTORE PUSH1 0x9 PUSH1 0x20 MSTORE PUSH1 0x40 SWAP1 KECCAK256 PUSH1 0x2 ADD SLOAD PUSH1 0xFF AND PUSH2 0xAD7 JUMPI PUSH1 0x40 MLOAD PUSH3 0x461BCD PUSH1 0xE5 SHL DUP2 MSTORE PUSH1 0x20 PUSH1 0x4 DUP3 ADD MSTORE PUSH1 0x21 PUSH1 0x24 DUP3 ADD MSTORE PUSH32 0x506C6561736520556E7374616B6520796F7572206465706F7369746564204E46 PUSH1 0x44 DUP3 ADD MSTORE PUSH1 0x15 PUSH1 0xFA SHL PUSH1 0x64 DUP3 ADD MSTORE PUSH1 0x84 ADD PUSH2 0x41D JUMP JUMPDEST PUSH1 0x40 DUP1 MLOAD PUSH1 0x60 DUP2 ADD DUP3 MSTORE DUP3 DUP2 MSTORE PUSH1 0x20 DUP1 DUP3 ADD DUP6 DUP2 MSTORE PUSH1 0x1 DUP4 DUP6 ADD DUP2 DUP2 MSTORE CALLER PUSH1 0x0 DUP2 DUP2 MSTORE PUSH1 0x9 SWAP1 SWAP6 MSTORE SWAP4 DUP7 SWAP1 KECCAK256 SWAP5 MLOAD DUP6 SSTORE SWAP2 MLOAD DUP5 DUP3 ADD SSTORE SWAP1 MLOAD PUSH1 0x2 SWAP1 SWAP4 ADD DUP1 SLOAD PUSH1 0xFF NOT AND SWAP4 ISZERO ISZERO SWAP4 SWAP1 SWAP4 OR SWAP1 SWAP3 SSTORE SWAP1 SLOAD SWAP2 MLOAD PUSH4 0x5C46A7EF PUSH1 0xE1 SHL DUP2 MSTORE PUSH1 0x1 PUSH1 0x1 PUSH1 0xA0 SHL SUB SWAP1 SWAP3 AND SWAP2 PUSH4 0xB88D4FDE SWAP2 PUSH2 0xB54 SWAP2 ADDRESS SWAP1 DUP8 SWAP1 PUSH1 0x4 ADD PUSH2 0x12D0 JUMP JUMPDEST PUSH1 0x0 PUSH1 0x40 MLOAD DUP1 DUP4 SUB DUP2 PUSH1 0x0 DUP8 DUP1 EXTCODESIZE ISZERO DUP1 ISZERO PUSH2 0xB6E JUMPI PUSH1 0x0 DUP1 REVERT JUMPDEST POP GAS CALL ISZERO DUP1 ISZERO PUSH2 0xB82 JUMPI RETURNDATASIZE PUSH1 0x0 DUP1 RETURNDATACOPY RETURNDATASIZE PUSH1 0x0 REVERT JUMPDEST POP POP POP POP POP POP JUMP JUMPDEST PUSH2 0xB92 PUSH2 0xE7C JUMP JUMPDEST CALLER PUSH1 0x0 SWAP1 DUP2 MSTORE PUSH1 0x8 PUSH1 0x20 MSTORE PUSH1 0x40 DUP2 KECCAK256 DUP1 SLOAD DUP4 SWAP3 SWAP1 PUSH2 0xBB1 SWAP1 DUP5 SWAP1 PUSH2 0x1353 JUMP JUMPDEST SWAP3 POP POP DUP2 SWAP1 SSTORE POP DUP1 PUSH1 0x4 PUSH1 0x0 DUP3 DUP3 SLOAD PUSH2 0xBCA SWAP2 SWAP1 PUSH2 0x1353 JUMP JUMPDEST SWAP1 SWAP2 SSTORE POP POP PUSH1 0x3 SLOAD PUSH2 0x5A2 SWAP1 PUSH1 0x1 PUSH1 0x1 PUSH1 0xA0 SHL SUB AND CALLER DUP4 PUSH2 0xF97 JUMP JUMPDEST PUSH2 0xBEE PUSH2 0xE7C JUMP JUMPDEST PUSH1 0x2 SLOAD PUSH1 0x1 PUSH1 0x1 PUSH1 0xA0 SHL SUB AND CALLER EQ PUSH2 0xC48 JUMPI PUSH1 0x40 MLOAD PUSH3 0x461BCD PUSH1 0xE5 SHL DUP2 MSTORE PUSH1 0x20 PUSH1 0x4 DUP3 ADD MSTORE PUSH1 0x17 PUSH1 0x24 DUP3 ADD MSTORE PUSH32 0x4F6E6C79204F776E65722063616E207472616E73666572000000000000000000 PUSH1 0x44 DUP3 ADD MSTORE PUSH1 0x64 ADD PUSH2 0x41D JUMP JUMPDEST CALLER PUSH1 0x0 SWAP1 DUP2 MSTORE PUSH1 0x8 PUSH1 0x20 MSTORE PUSH1 0x40 DUP2 KECCAK256 DUP1 SLOAD DUP4 SWAP3 SWAP1 PUSH2 0xC67 SWAP1 DUP5 SWAP1 PUSH2 0x1319 JUMP JUMPDEST SWAP3 POP POP DUP2 SWAP1 SSTORE POP DUP1 PUSH1 0x4 PUSH1 0x0 DUP3 DUP3 SLOAD PUSH2 0xC80 SWAP2 SWAP1 PUSH2 0x1319 JUMP JUMPDEST SWAP1 SWAP2 SSTORE POP POP PUSH1 0x3 SLOAD PUSH2 0x5A2 SWAP1 PUSH1 0x1 PUSH1 0x1 PUSH1 0xA0 SHL SUB AND CALLER ADDRESS DUP5 PUSH2 0xED6 JUMP JUMPDEST PUSH1 0x1 PUSH1 0x1 PUSH1 0xA0 SHL SUB DUP2 AND PUSH1 0x0 SWAP1 DUP2 MSTORE PUSH1 0x9 PUSH1 0x20 MSTORE PUSH1 0x40 DUP2 KECCAK256 PUSH1 0x2 ADD SLOAD PUSH1 0xFF AND ISZERO PUSH2 0xD76 JUMPI PUSH1 0x1 PUSH1 0x1 PUSH1 0xA0 SHL SUB DUP3 AND PUSH1 0x0 SWAP1 DUP2 MSTORE PUSH1 0x6 PUSH1 0x20 MSTORE PUSH1 0x40 DUP2 KECCAK256 PUSH1 0x1 ADD SLOAD PUSH1 0x3C SWAP1 PUSH2 0xCEA SWAP1 TIMESTAMP PUSH2 0x1353 JUMP JUMPDEST PUSH2 0xCF4 SWAP2 SWAP1 PUSH2 0x1389 JUMP JUMPDEST PUSH1 0x1 PUSH1 0x1 PUSH1 0xA0 SHL SUB DUP5 AND PUSH1 0x0 SWAP1 DUP2 MSTORE PUSH1 0x9 PUSH1 0x20 SWAP1 DUP2 MSTORE PUSH1 0x40 DUP1 DUP4 KECCAK256 SLOAD PUSH1 0x6 SWAP1 SWAP3 MSTORE SWAP1 SWAP2 KECCAK256 SLOAD PUSH2 0xD23 SWAP2 SWAP1 PUSH2 0x136A JUMP JUMPDEST PUSH2 0xD2D SWAP2 SWAP1 PUSH2 0x136A JUMP JUMPDEST SWAP1 POP PUSH1 0x0 PUSH2 0xD3C PUSH1 0x64 DUP4 PUSH2 0x1389 JUMP JUMPDEST PUSH1 0x1 PUSH1 0x1 PUSH1 0xA0 SHL SUB DUP6 AND PUSH1 0x0 SWAP1 DUP2 MSTORE PUSH1 0x6 PUSH1 0x20 MSTORE PUSH1 0x40 SWAP1 KECCAK256 SLOAD SWAP1 SWAP2 POP PUSH2 0xD62 SWAP1 DUP3 PUSH2 0x1319 JUMP JUMPDEST SWAP3 POP PUSH2 0x9AC PUSH8 0xDE0B6B3A7640000 DUP5 PUSH2 0x1389 JUMP JUMPDEST PUSH1 0x1 PUSH1 0x1 PUSH1 0xA0 SHL SUB DUP3 AND PUSH1 0x0 SWAP1 DUP2 MSTORE PUSH1 0x6 PUSH1 0x20 MSTORE PUSH1 0x40 DUP2 KECCAK256 PUSH1 0x1 ADD SLOAD PUSH1 0x3C SWAP1 PUSH2 0xD9F SWAP1 TIMESTAMP PUSH2 0x1353 JUMP JUMPDEST PUSH2 0xDA9 SWAP2 SWAP1 PUSH2 0x1389 JUMP JUMPDEST PUSH1 0x5 SLOAD PUSH1 0x1 PUSH1 0x1 PUSH1 0xA0 SHL SUB DUP6 AND PUSH1 0x0 SWAP1 DUP2 MSTORE PUSH1 0x6 PUSH1 0x20 MSTORE PUSH1 0x40 SWAP1 KECCAK256 SLOAD PUSH2 0xD23 SWAP2 SWAP1 PUSH2 0x136A JUMP JUMPDEST PUSH2 0xDD7 PUSH2 0xE7C JUMP JUMPDEST PUSH1 0x1 DUP1 SLOAD PUSH1 0x1 PUSH1 0x1 PUSH1 0xA0 SHL SUB NOT AND PUSH1 0x1 PUSH1 0x1 PUSH1 0xA0 SHL SUB SWAP3 SWAP1 SWAP3 AND SWAP2 SWAP1 SWAP2 OR SWAP1 SSTORE JUMP JUMPDEST PUSH2 0xE01 PUSH2 0xE7C JUMP JUMPDEST PUSH1 0x1 PUSH1 0x1 PUSH1 0xA0 SHL SUB DUP2 AND PUSH2 0xE66 JUMPI PUSH1 0x40 MLOAD PUSH3 0x461BCD PUSH1 0xE5 SHL DUP2 MSTORE PUSH1 0x20 PUSH1 0x4 DUP3 ADD MSTORE PUSH1 0x26 PUSH1 0x24 DUP3 ADD MSTORE PUSH32 0x4F776E61626C653A206E6577206F776E657220697320746865207A65726F2061 PUSH1 0x44 DUP3 ADD MSTORE PUSH6 0x646472657373 PUSH1 0xD0 SHL PUSH1 0x64 DUP3 ADD MSTORE PUSH1 0x84 ADD PUSH2 0x41D JUMP JUMPDEST PUSH2 0x5A2 DUP2 PUSH2 0xF47 JUMP JUMPDEST PUSH2 0xE77 PUSH2 0xE7C JUMP JUMPDEST PUSH1 0x5 SSTORE JUMP JUMPDEST PUSH1 0x0 SLOAD PUSH1 0x1 PUSH1 0x1 PUSH1 0xA0 SHL SUB AND CALLER EQ PUSH2 0x8BC JUMPI PUSH1 0x40 MLOAD PUSH3 0x461BCD PUSH1 0xE5 SHL DUP2 MSTORE PUSH1 0x20 PUSH1 0x4 DUP3 ADD DUP2 SWAP1 MSTORE PUSH1 0x24 DUP3 ADD MSTORE PUSH32 0x4F776E61626C653A2063616C6C6572206973206E6F7420746865206F776E6572 PUSH1 0x44 DUP3 ADD MSTORE PUSH1 0x64 ADD PUSH2 0x41D JUMP JUMPDEST PUSH1 0x40 MLOAD PUSH1 0x1 PUSH1 0x1 PUSH1 0xA0 SHL SUB DUP1 DUP6 AND PUSH1 0x24 DUP4 ADD MSTORE DUP4 AND PUSH1 0x44 DUP3 ADD MSTORE PUSH1 0x64 DUP2 ADD DUP3 SWAP1 MSTORE PUSH2 0xF41 SWAP1 DUP6 SWAP1 PUSH4 0x23B872DD PUSH1 0xE0 SHL SWAP1 PUSH1 0x84 ADD JUMPDEST PUSH1 0x40 DUP1 MLOAD PUSH1 0x1F NOT DUP2 DUP5 SUB ADD DUP2 MSTORE SWAP2 SWAP1 MSTORE PUSH1 0x20 DUP2 ADD DUP1 MLOAD PUSH1 0x1 PUSH1 0x1 PUSH1 0xE0 SHL SUB AND PUSH1 0x1 PUSH1 0x1 PUSH1 0xE0 SHL SUB NOT SWAP1 SWAP4 AND SWAP3 SWAP1 SWAP3 OR SWAP1 SWAP2 MSTORE PUSH2 0xFCC JUMP JUMPDEST POP POP POP POP JUMP JUMPDEST PUSH1 0x0 DUP1 SLOAD PUSH1 0x1 PUSH1 0x1 PUSH1 0xA0 SHL SUB DUP4 DUP2 AND PUSH1 0x1 PUSH1 0x1 PUSH1 0xA0 SHL SUB NOT DUP4 AND DUP2 OR DUP5 SSTORE PUSH1 0x40 MLOAD SWAP2 SWAP1 SWAP3 AND SWAP3 DUP4 SWAP2 PUSH32 0x8BE0079C531659141344CD1FD0A4F28419497F9722A3DAAFE3B4186F6B6457E0 SWAP2 SWAP1 LOG3 POP POP JUMP JUMPDEST PUSH1 0x40 MLOAD PUSH1 0x1 PUSH1 0x1 PUSH1 0xA0 SHL SUB DUP4 AND PUSH1 0x24 DUP3 ADD MSTORE PUSH1 0x44 DUP2 ADD DUP3 SWAP1 MSTORE PUSH2 0xFC7 SWAP1 DUP5 SWAP1 PUSH4 0xA9059CBB PUSH1 0xE0 SHL SWAP1 PUSH1 0x64 ADD PUSH2 0xF0A JUMP JUMPDEST POP POP POP JUMP JUMPDEST PUSH1 0x0 PUSH2 0x1021 DUP3 PUSH1 0x40 MLOAD DUP1 PUSH1 0x40 ADD PUSH1 0x40 MSTORE DUP1 PUSH1 0x20 DUP2 MSTORE PUSH1 0x20 ADD PUSH32 0x5361666545524332303A206C6F772D6C6576656C2063616C6C206661696C6564 DUP2 MSTORE POP DUP6 PUSH1 0x1 PUSH1 0x1 PUSH1 0xA0 SHL SUB AND PUSH2 0x109E SWAP1 SWAP3 SWAP2 SWAP1 PUSH4 0xFFFFFFFF AND JUMP JUMPDEST DUP1 MLOAD SWAP1 SWAP2 POP ISZERO PUSH2 0xFC7 JUMPI DUP1 DUP1 PUSH1 0x20 ADD SWAP1 MLOAD DUP2 ADD SWAP1 PUSH2 0x103F SWAP2 SWAP1 PUSH2 0x1331 JUMP JUMPDEST PUSH2 0xFC7 JUMPI PUSH1 0x40 MLOAD PUSH3 0x461BCD PUSH1 0xE5 SHL DUP2 MSTORE PUSH1 0x20 PUSH1 0x4 DUP3 ADD MSTORE PUSH1 0x2A PUSH1 0x24 DUP3 ADD MSTORE PUSH32 0x5361666545524332303A204552433230206F7065726174696F6E20646964206E PUSH1 0x44 DUP3 ADD MSTORE PUSH10 0x1BDD081CDD58D8D95959 PUSH1 0xB2 SHL PUSH1 0x64 DUP3 ADD MSTORE PUSH1 0x84 ADD PUSH2 0x41D JUMP JUMPDEST PUSH1 0x60 PUSH2 0x9AC DUP5 DUP5 PUSH1 0x0 DUP6 DUP6 PUSH1 0x0 DUP1 DUP7 PUSH1 0x1 PUSH1 0x1 PUSH1 0xA0 SHL SUB AND DUP6 DUP8 PUSH1 0x40 MLOAD PUSH2 0x10C5 SWAP2 SWAP1 PUSH2 0x13D7 JUMP JUMPDEST PUSH1 0x0 PUSH1 0x40 MLOAD DUP1 DUP4 SUB DUP2 DUP6 DUP8 GAS CALL SWAP3 POP POP POP RETURNDATASIZE DUP1 PUSH1 0x0 DUP2 EQ PUSH2 0x1102 JUMPI PUSH1 0x40 MLOAD SWAP2 POP PUSH1 0x1F NOT PUSH1 0x3F RETURNDATASIZE ADD AND DUP3 ADD PUSH1 0x40 MSTORE RETURNDATASIZE DUP3 MSTORE RETURNDATASIZE PUSH1 0x0 PUSH1 0x20 DUP5 ADD RETURNDATACOPY PUSH2 0x1107 JUMP JUMPDEST PUSH1 0x60 SWAP2 POP JUMPDEST POP SWAP2 POP SWAP2 POP PUSH2 0x1118 DUP8 DUP4 DUP4 DUP8 PUSH2 0x1123 JUMP JUMPDEST SWAP8 SWAP7 POP POP POP POP POP POP POP JUMP JUMPDEST PUSH1 0x60 DUP4 ISZERO PUSH2 0x1192 JUMPI DUP3 MLOAD PUSH1 0x0 SUB PUSH2 0x118B JUMPI PUSH1 0x1 PUSH1 0x1 PUSH1 0xA0 SHL SUB DUP6 AND EXTCODESIZE PUSH2 0x118B JUMPI PUSH1 0x40 MLOAD PUSH3 0x461BCD PUSH1 0xE5 SHL DUP2 MSTORE PUSH1 0x20 PUSH1 0x4 DUP3 ADD MSTORE PUSH1 0x1D PUSH1 0x24 DUP3 ADD MSTORE PUSH32 0x416464726573733A2063616C6C20746F206E6F6E2D636F6E7472616374000000 PUSH1 0x44 DUP3 ADD MSTORE PUSH1 0x64 ADD PUSH2 0x41D JUMP JUMPDEST POP DUP2 PUSH2 0x9AC JUMP JUMPDEST PUSH2 0x9AC DUP4 DUP4 DUP2 MLOAD ISZERO PUSH2 0x11A7 JUMPI DUP2 MLOAD DUP1 DUP4 PUSH1 0x20 ADD REVERT JUMPDEST DUP1 PUSH1 0x40 MLOAD PUSH3 0x461BCD PUSH1 0xE5 SHL DUP2 MSTORE PUSH1 0x4 ADD PUSH2 0x41D SWAP2 SWAP1 PUSH2 0x13F3 JUMP JUMPDEST PUSH1 0x0 PUSH1 0x20 DUP3 DUP5 SUB SLT ISZERO PUSH2 0x11D3 JUMPI PUSH1 0x0 DUP1 REVERT JUMPDEST POP CALLDATALOAD SWAP2 SWAP1 POP JUMP JUMPDEST DUP1 CALLDATALOAD PUSH1 0x1 PUSH1 0x1 PUSH1 0xA0 SHL SUB DUP2 AND DUP2 EQ PUSH2 0xA0D JUMPI PUSH1 0x0 DUP1 REVERT JUMPDEST PUSH1 0x0 DUP1 PUSH1 0x0 DUP1 PUSH1 0x0 PUSH1 0x80 DUP7 DUP9 SUB SLT ISZERO PUSH2 0x1209 JUMPI PUSH1 0x0 DUP1 REVERT JUMPDEST PUSH2 0x1212 DUP7 PUSH2 0x11DA JUMP JUMPDEST SWAP5 POP PUSH2 0x1220 PUSH1 0x20 DUP8 ADD PUSH2 0x11DA JUMP JUMPDEST SWAP4 POP PUSH1 0x40 DUP7 ADD CALLDATALOAD SWAP3 POP PUSH1 0x60 DUP7 ADD CALLDATALOAD PUSH8 0xFFFFFFFFFFFFFFFF DUP1 DUP3 GT ISZERO PUSH2 0x1244 JUMPI PUSH1 0x0 DUP1 REVERT JUMPDEST DUP2 DUP9 ADD SWAP2 POP DUP9 PUSH1 0x1F DUP4 ADD SLT PUSH2 0x1258 JUMPI PUSH1 0x0 DUP1 REVERT JUMPDEST DUP2 CALLDATALOAD DUP2 DUP2 GT ISZERO PUSH2 0x1267 JUMPI PUSH1 0x0 DUP1 REVERT JUMPDEST DUP10 PUSH1 0x20 DUP3 DUP6 ADD ADD GT ISZERO PUSH2 0x1279 JUMPI PUSH1 0x0 DUP1 REVERT JUMPDEST SWAP7 SWAP10 SWAP6 SWAP9 POP SWAP4 SWAP7 POP PUSH1 0x20 ADD SWAP5 SWAP4 SWAP3 POP POP POP JUMP JUMPDEST PUSH1 0x0 PUSH1 0x20 DUP3 DUP5 SUB SLT ISZERO PUSH2 0x129E JUMPI PUSH1 0x0 DUP1 REVERT JUMPDEST PUSH2 0x12A7 DUP3 PUSH2 0x11DA JUMP JUMPDEST SWAP4 SWAP3 POP POP POP JUMP JUMPDEST PUSH1 0x0 DUP1 PUSH1 0x40 DUP4 DUP6 SUB SLT ISZERO PUSH2 0x12C1 JUMPI PUSH1 0x0 DUP1 REVERT JUMPDEST POP POP DUP1 CALLDATALOAD SWAP3 PUSH1 0x20 SWAP1 SWAP2 ADD CALLDATALOAD SWAP2 POP JUMP JUMPDEST PUSH1 0x1 PUSH1 0x1 PUSH1 0xA0 SHL SUB SWAP4 DUP5 AND DUP2 MSTORE SWAP2 SWAP1 SWAP3 AND PUSH1 0x20 DUP3 ADD MSTORE PUSH1 0x40 DUP2 ADD SWAP2 SWAP1 SWAP2 MSTORE PUSH1 0x80 PUSH1 0x60 DUP3 ADD DUP2 SWAP1 MSTORE PUSH1 0x0 SWAP1 DUP3 ADD MSTORE PUSH1 0xA0 ADD SWAP1 JUMP JUMPDEST PUSH4 0x4E487B71 PUSH1 0xE0 SHL PUSH1 0x0 MSTORE PUSH1 0x11 PUSH1 0x4 MSTORE PUSH1 0x24 PUSH1 0x0 REVERT JUMPDEST PUSH1 0x0 DUP3 NOT DUP3 GT ISZERO PUSH2 0x132C JUMPI PUSH2 0x132C PUSH2 0x1303 JUMP JUMPDEST POP ADD SWAP1 JUMP JUMPDEST PUSH1 0x0 PUSH1 0x20 DUP3 DUP5 SUB SLT ISZERO PUSH2 0x1343 JUMPI PUSH1 0x0 DUP1 REVERT JUMPDEST DUP2 MLOAD DUP1 ISZERO ISZERO DUP2 EQ PUSH2 0x12A7 JUMPI PUSH1 0x0 DUP1 REVERT JUMPDEST PUSH1 0x0 DUP3 DUP3 LT ISZERO PUSH2 0x1365 JUMPI PUSH2 0x1365 PUSH2 0x1303 JUMP JUMPDEST POP SUB SWAP1 JUMP JUMPDEST PUSH1 0x0 DUP2 PUSH1 0x0 NOT DIV DUP4 GT DUP3 ISZERO ISZERO AND ISZERO PUSH2 0x1384 JUMPI PUSH2 0x1384 PUSH2 0x1303 JUMP JUMPDEST POP MUL SWAP1 JUMP JUMPDEST PUSH1 0x0 DUP3 PUSH2 0x13A6 JUMPI PUSH4 0x4E487B71 PUSH1 0xE0 SHL PUSH1 0x0 MSTORE PUSH1 0x12 PUSH1 0x4 MSTORE PUSH1 0x24 PUSH1 0x0 REVERT JUMPDEST POP DIV SWAP1 JUMP JUMPDEST PUSH1 0x0 JUMPDEST DUP4 DUP2 LT ISZERO PUSH2 0x13C6 JUMPI DUP2 DUP2 ADD MLOAD DUP4 DUP3 ADD MSTORE PUSH1 0x20 ADD PUSH2 0x13AE JUMP JUMPDEST DUP4 DUP2 GT ISZERO PUSH2 0xF41 JUMPI POP POP PUSH1 0x0 SWAP2 ADD MSTORE JUMP JUMPDEST PUSH1 0x0 DUP3 MLOAD PUSH2 0x13E9 DUP2 DUP5 PUSH1 0x20 DUP8 ADD PUSH2 0x13AB JUMP JUMPDEST SWAP2 SWAP1 SWAP2 ADD SWAP3 SWAP2 POP POP JUMP JUMPDEST PUSH1 0x20 DUP2 MSTORE PUSH1 0x0 DUP3 MLOAD DUP1 PUSH1 0x20 DUP5 ADD MSTORE PUSH2 0x1412 DUP2 PUSH1 0x40 DUP6 ADD PUSH1 0x20 DUP8 ADD PUSH2 0x13AB JUMP JUMPDEST PUSH1 0x1F ADD PUSH1 0x1F NOT AND SWAP2 SWAP1 SWAP2 ADD PUSH1 0x40 ADD SWAP3 SWAP2 POP POP JUMP INVALID LOG2 PUSH5 0x6970667358 0x22 SLT KECCAK256 0xD9 0x22 0xBF 0xA8 0xBE STOP PUSH26 0xFC66CEC85AE0658E582AA31E35B5A16532F5666B0F8C60393564 PUSH20 0x6F6C634300080D00330000000000000000000000 "
				},
				"gasEstimates": {
					"creation": {
						"codeDepositCost": "1042400",
						"executionCost": "infinite",
						"totalCost": "infinite"
					},
					"external": {
						"AdminAddToken(uint256)": "infinite",
						"AdminWithDrawToken(uint256)": "infinite",
						"Deposit(uint256)": "infinite",
						"DepositNFT(uint256,uint256)": "infinite",
						"Details(address)": "6872",
						"ERC20Address()": "2404",
						"ERC721address()": "2448",
						"OwnerTokens(address)": "2642",
						"Reward(address)": "2553",
						"UpdateERC20(address)": "26847",
						"UpdateERC721(address)": "26823",
						"UpdateRatePersentage(uint256)": "24620",
						"UserRate(address)": "6850",
						"Utilization()": "6868",
						"Withdraw()": "infinite",
						"calculateIntrest(address)": "infinite",
						"onERC721Received(address,address,uint256,bytes)": "infinite",
						"owenerERC20()": "2405",
						"owner()": "2354",
						"renounceOwnership()": "infinite",
						"showReward(address)": "infinite",
						"totalOwnerToken()": "2330",
						"transferOwnership(address)": "28443",
						"withdrawNFT(uint256)": "infinite"
					}
				},
				"methodIdentifiers": {
					"AdminAddToken(uint256)": "c0cd40ee",
					"AdminWithDrawToken(uint256)": "a88e132f",
					"Deposit(uint256)": "4d6ce1e5",
					"DepositNFT(uint256,uint256)": "934ed772",
					"Details(address)": "e88cc2be",
					"ERC20Address()": "a6021ace",
					"ERC721address()": "b7171a2e",
					"OwnerTokens(address)": "2ffce210",
					"Reward(address)": "57488064",
					"UpdateERC20(address)": "275bd33f",
					"UpdateERC721(address)": "ee0106d2",
					"UpdateRatePersentage(uint256)": "f89d832f",
					"UserRate(address)": "e4458b30",
					"Utilization()": "7b2f247f",
					"Withdraw()": "57ea89b6",
					"calculateIntrest(address)": "8b73e331",
					"onERC721Received(address,address,uint256,bytes)": "150b7a02",
					"owenerERC20()": "10fd4fba",
					"owner()": "8da5cb5b",
					"renounceOwnership()": "715018a6",
					"showReward(address)": "c45af5d8",
					"totalOwnerToken()": "0ccff6e9",
					"transferOwnership(address)": "f2fde38b",
					"withdrawNFT(uint256)": "023245d7"
				}
			},
			"storageLayout": {
				"storage": [
					{
						"astId": 7,
						"contract": "contracts/Token&NFTStaking/Contract.sol:ERC20Stakeable",
						"label": "_owner",
						"offset": 0,
						"slot": "0",
						"type": "t_address"
					},
					{
						"astId": 1052,
						"contract": "contracts/Token&NFTStaking/Contract.sol:ERC20Stakeable",
						"label": "ERC721address",
						"offset": 0,
						"slot": "1",
						"type": "t_address"
					},
					{
						"astId": 1054,
						"contract": "contracts/Token&NFTStaking/Contract.sol:ERC20Stakeable",
						"label": "owenerERC20",
						"offset": 0,
						"slot": "2",
						"type": "t_address"
					},
					{
						"astId": 1056,
						"contract": "contracts/Token&NFTStaking/Contract.sol:ERC20Stakeable",
						"label": "ERC20Address",
						"offset": 0,
						"slot": "3",
						"type": "t_address"
					},
					{
						"astId": 1058,
						"contract": "contracts/Token&NFTStaking/Contract.sol:ERC20Stakeable",
						"label": "totalOwnerToken",
						"offset": 0,
						"slot": "4",
						"type": "t_uint256"
					},
					{
						"astId": 1060,
						"contract": "contracts/Token&NFTStaking/Contract.sol:ERC20Stakeable",
						"label": "rate",
						"offset": 0,
						"slot": "5",
						"type": "t_uint256"
					},
					{
						"astId": 1079,
						"contract": "contracts/Token&NFTStaking/Contract.sol:ERC20Stakeable",
						"label": "Details",
						"offset": 0,
						"slot": "6",
						"type": "t_mapping(t_address,t_struct(Staker)1067_storage)"
					},
					{
						"astId": 1083,
						"contract": "contracts/Token&NFTStaking/Contract.sol:ERC20Stakeable",
						"label": "Reward",
						"offset": 0,
						"slot": "7",
						"type": "t_mapping(t_address,t_uint256)"
					},
					{
						"astId": 1087,
						"contract": "contracts/Token&NFTStaking/Contract.sol:ERC20Stakeable",
						"label": "OwnerTokens",
						"offset": 0,
						"slot": "8",
						"type": "t_mapping(t_address,t_uint256)"
					},
					{
						"astId": 1092,
						"contract": "contracts/Token&NFTStaking/Contract.sol:ERC20Stakeable",
						"label": "UserRate",
						"offset": 0,
						"slot": "9",
						"type": "t_mapping(t_address,t_struct(StakerNFT)1074_storage)"
					}
				],
				"types": {
					"t_address": {
						"encoding": "inplace",
						"label": "address",
						"numberOfBytes": "20"
					},
					"t_bool": {
						"encoding": "inplace",
						"label": "bool",
						"numberOfBytes": "1"
					},
					"t_mapping(t_address,t_struct(Staker)1067_storage)": {
						"encoding": "mapping",
						"key": "t_address",
						"label": "mapping(address => struct ERC20Stakeable.Staker)",
						"numberOfBytes": "32",
						"value": "t_struct(Staker)1067_storage"
					},
					"t_mapping(t_address,t_struct(StakerNFT)1074_storage)": {
						"encoding": "mapping",
						"key": "t_address",
						"label": "mapping(address => struct ERC20Stakeable.StakerNFT)",
						"numberOfBytes": "32",
						"value": "t_struct(StakerNFT)1074_storage"
					},
					"t_mapping(t_address,t_uint256)": {
						"encoding": "mapping",
						"key": "t_address",
						"label": "mapping(address => uint256)",
						"numberOfBytes": "32",
						"value": "t_uint256"
					},
					"t_struct(Staker)1067_storage": {
						"encoding": "inplace",
						"label": "struct ERC20Stakeable.Staker",
						"members": [
							{
								"astId": 1062,
								"contract": "contracts/Token&NFTStaking/Contract.sol:ERC20Stakeable",
								"label": "deposited",
								"offset": 0,
								"slot": "0",
								"type": "t_uint256"
							},
							{
								"astId": 1064,
								"contract": "contracts/Token&NFTStaking/Contract.sol:ERC20Stakeable",
								"label": "timestake",
								"offset": 0,
								"slot": "1",
								"type": "t_uint256"
							},
							{
								"astId": 1066,
								"contract": "contracts/Token&NFTStaking/Contract.sol:ERC20Stakeable",
								"label": "check",
								"offset": 0,
								"slot": "2",
								"type": "t_bool"
							}
						],
						"numberOfBytes": "96"
					},
					"t_struct(StakerNFT)1074_storage": {
						"encoding": "inplace",
						"label": "struct ERC20Stakeable.StakerNFT",
						"members": [
							{
								"astId": 1069,
								"contract": "contracts/Token&NFTStaking/Contract.sol:ERC20Stakeable",
								"label": "userRate",
								"offset": 0,
								"slot": "0",
								"type": "t_uint256"
							},
							{
								"astId": 1071,
								"contract": "contracts/Token&NFTStaking/Contract.sol:ERC20Stakeable",
								"label": "tokenId",
								"offset": 0,
								"slot": "1",
								"type": "t_uint256"
							},
							{
								"astId": 1073,
								"contract": "contracts/Token&NFTStaking/Contract.sol:ERC20Stakeable",
								"label": "check",
								"offset": 0,
								"slot": "2",
								"type": "t_bool"
							}
						],
						"numberOfBytes": "96"
					},
					"t_uint256": {
						"encoding": "inplace",
						"label": "uint256",
						"numberOfBytes": "32"
					}
				}
			},
			"userdoc": {
				"kind": "user",
				"methods": {},
				"version": 1
			}
		}
	}
}