{
	"data": {
		"bytecode": {
			"linkReferences": {},
			"object": "608060405262278d00600b553480156200001857600080fd5b5060405162005f8f38038062005f8f83398181016040528101906200003e919062000338565b6040518060400160405280600881526020017f4f637461204e46540000000000000000000000000000000000000000000000008152506040518060400160405280600481526020017f4f43544100000000000000000000000000000000000000000000000000000000815250620000ca620000be620001c760201b60201c565b620001cf60201b60201c565b8160019081620000db91906200061a565b508060029081620000ed91906200061a565b50505083600a60006101000a81548173ffffffffffffffffffffffffffffffffffffffff021916908373ffffffffffffffffffffffffffffffffffffffff16021790555082601060006001815260200190815260200160002081905550816010600060028152602001908152602001600020819055508060106000600381526020019081526020016000208190555033600960006101000a81548173ffffffffffffffffffffffffffffffffffffffff021916908373ffffffffffffffffffffffffffffffffffffffff1602179055505050505062000701565b600033905090565b60008060009054906101000a900473ffffffffffffffffffffffffffffffffffffffff169050816000806101000a81548173ffffffffffffffffffffffffffffffffffffffff021916908373ffffffffffffffffffffffffffffffffffffffff1602179055508173ffffffffffffffffffffffffffffffffffffffff168173ffffffffffffffffffffffffffffffffffffffff167f8be0079c531659141344cd1fd0a4f28419497f9722a3daafe3b4186f6b6457e060405160405180910390a35050565b600080fd5b600073ffffffffffffffffffffffffffffffffffffffff82169050919050565b6000620002c58262000298565b9050919050565b620002d781620002b8565b8114620002e357600080fd5b50565b600081519050620002f781620002cc565b92915050565b6000819050919050565b6200031281620002fd565b81146200031e57600080fd5b50565b600081519050620003328162000307565b92915050565b6000806000806080858703121562000355576200035462000293565b5b60006200036587828801620002e6565b9450506020620003788782880162000321565b93505060406200038b8782880162000321565b92505060606200039e8782880162000321565b91505092959194509250565b600081519050919050565b7f4e487b7100000000000000000000000000000000000000000000000000000000600052604160045260246000fd5b7f4e487b7100000000000000000000000000000000000000000000000000000000600052602260045260246000fd5b600060028204905060018216806200042c57607f821691505b602082108103620004425762000441620003e4565b5b50919050565b60008190508160005260206000209050919050565b60006020601f8301049050919050565b600082821b905092915050565b600060088302620004ac7fffffffffffffffffffffffffffffffffffffffffffffffffffffffffffffffff826200046d565b620004b886836200046d565b95508019841693508086168417925050509392505050565b6000819050919050565b6000620004fb620004f5620004ef84620002fd565b620004d0565b620002fd565b9050919050565b6000819050919050565b6200051783620004da565b6200052f620005268262000502565b8484546200047a565b825550505050565b600090565b6200054662000537565b620005538184846200050c565b505050565b5b818110156200057b576200056f6000826200053c565b60018101905062000559565b5050565b601f821115620005ca57620005948162000448565b6200059f846200045d565b81016020851015620005af578190505b620005c7620005be856200045d565b83018262000558565b50505b505050565b600082821c905092915050565b6000620005ef60001984600802620005cf565b1980831691505092915050565b60006200060a8383620005dc565b9150826002028217905092915050565b6200062582620003aa565b67ffffffffffffffff811115620006415762000640620003b5565b5b6200064d825462000413565b6200065a8282856200057f565b600060209050601f8311600181146200069257600084156200067d578287015190505b620006898582620005fc565b865550620006f9565b601f198416620006a28662000448565b60005b82811015620006cc57848901518255600182019150602085019450602081019050620006a5565b86831015620006ec5784890151620006e8601f891682620005dc565b8355505b6001600288020188555050505b505050505050565b61587e80620007116000396000f3fe608060405234801561001057600080fd5b50600436106101fb5760003560e01c80637b2f247f1161011a578063b6840d6e116100ad578063d47c96131161007c578063d47c9613146105b0578063e27fd8ec146105e0578063e88cc2be14610610578063e985e9c514610649578063f2fde38b14610679576101fb565b8063b6840d6e14610518578063b88d4fde14610548578063c0cd40ee14610564578063c87b56dd14610580576101fb565b8063a3af609b116100e9578063a3af609b146104a4578063a6021ace146104c0578063a88e132f146104de578063aa46a400146104fa576101fb565b80637b2f247f1461042e5780638da5cb5b1461044c57806395d89b411461046a578063a22cb46514610488576101fb565b8063275bd33f1161019257806357ea89b61161016157806357ea89b6146103ba5780636352211e146103c457806370a08231146103f4578063715018a614610424576101fb565b8063275bd33f146103225780632ffce2101461033e57806342842e0e1461036e578063574880641461038a576101fb565b8063095ea7b3116101ce578063095ea7b3146102ae5780630ccff6e9146102ca57806310fd4fba146102e857806323b872dd14610306576101fb565b80630175ef111461020057806301ffc9a71461023057806306fdde0314610260578063081812fc1461027e575b600080fd5b61021a60048036038101906102159190613aa1565b610695565b6040516102279190613c0e565b60405180910390f35b61024a60048036038101906102459190613c88565b610790565b6040516102579190613cd0565b60405180910390f35b610268610872565b6040516102759190613c0e565b60405180910390f35b61029860048036038101906102939190613ceb565b610904565b6040516102a59190613d27565b60405180910390f35b6102c860048036038101906102c39190613d42565b61094a565b005b6102d2610a61565b6040516102df9190613d91565b60405180910390f35b6102f0610a67565b6040516102fd9190613d27565b60405180910390f35b610320600480360381019061031b9190613dac565b610a8d565b005b61033c60048036038101906103379190613dff565b610aed565b005b61035860048036038101906103539190613dff565b610b39565b6040516103659190613d91565b60405180910390f35b61038860048036038101906103839190613dac565b610b51565b005b6103a4600480360381019061039f9190613dff565b610b71565b6040516103b19190613d91565b60405180910390f35b6103c2610b89565b005b6103de60048036038101906103d99190613ceb565b611059565b6040516103eb9190613d27565b60405180910390f35b61040e60048036038101906104099190613dff565b6110df565b60405161041b9190613d91565b60405180910390f35b61042c611196565b005b6104366111aa565b6040516104439190613d91565b60405180910390f35b610454611218565b6040516104619190613d27565b60405180910390f35b610472611241565b60405161047f9190613c0e565b60405180910390f35b6104a2600480360381019061049d9190613e58565b6112d3565b005b6104be60048036038101906104b99190613e98565b6112e9565b005b6104c8611717565b6040516104d59190613d27565b60405180910390f35b6104f860048036038101906104f39190613ceb565b61173d565b005b61050261181a565b60405161050f9190613d91565b60405180910390f35b610532600480360381019061052d9190613dff565b611826565b60405161053f9190613d91565b60405180910390f35b610562600480360381019061055d9190613f79565b61183e565b005b61057e60048036038101906105799190613ceb565b6118a0565b005b61059a60048036038101906105959190613ceb565b611a0f565b6040516105a79190613c0e565b60405180910390f35b6105ca60048036038101906105c59190613e98565b611b21565b6040516105d79190613d91565b60405180910390f35b6105fa60048036038101906105f59190613ceb565b611b59565b6040516106079190613d91565b60405180910390f35b61062a60048036038101906106259190613dff565b611b71565b6040516106409a99989796959493929190613ffc565b60405180910390f35b610663600480360381019061065e91906140a6565b611d22565b6040516106709190613cd0565b60405180910390f35b610693600480360381019061068e9190613dff565b611db6565b005b606060006106a28a611e39565b905060006106af8a611e39565b905060006106bc8a611e39565b905060006106e18a73ffffffffffffffffffffffffffffffffffffffff166014611f07565b905060006107068a73ffffffffffffffffffffffffffffffffffffffff166014611f07565b9050600061071388611e39565b905060008a905060008a90506000610757898989898988888b604051602001610743989796959493929190614570565b604051602081830303815290604052612143565b6040516020016107679190614691565b604051602081830303815290604052905080995050505050505050505098975050505050505050565b60007f80ac58cd000000000000000000000000000000000000000000000000000000007bffffffffffffffffffffffffffffffffffffffffffffffffffffffff1916827bffffffffffffffffffffffffffffffffffffffffffffffffffffffff1916148061085b57507f5b5e139f000000000000000000000000000000000000000000000000000000007bffffffffffffffffffffffffffffffffffffffffffffffffffffffff1916827bffffffffffffffffffffffffffffffffffffffffffffffffffffffff1916145b8061086b575061086a826122da565b5b9050919050565b606060018054610881906146e2565b80601f01602080910402602001604051908101604052809291908181526020018280546108ad906146e2565b80156108fa5780601f106108cf576101008083540402835291602001916108fa565b820191906000526020600020905b8154815290600101906020018083116108dd57829003601f168201915b5050505050905090565b600061090f82612344565b6005600083815260200190815260200160002060009054906101000a900473ffffffffffffffffffffffffffffffffffffffff169050919050565b600061095582611059565b90508073ffffffffffffffffffffffffffffffffffffffff168373ffffffffffffffffffffffffffffffffffffffff16036109c5576040517f08c379a00000000000000000000000000000000000000000000000000000000081526004016109bc90614785565b60405180910390fd5b8073ffffffffffffffffffffffffffffffffffffffff166109e461238f565b73ffffffffffffffffffffffffffffffffffffffff161480610a135750610a1281610a0d61238f565b611d22565b5b610a52576040517f08c379a0000000000000000000000000000000000000000000000000000000008152600401610a4990614817565b60405180910390fd5b610a5c8383612397565b505050565b600c5481565b600960009054906101000a900473ffffffffffffffffffffffffffffffffffffffff1681565b610a9e610a9861238f565b82612450565b610add576040517f08c379a0000000000000000000000000000000000000000000000000000000008152600401610ad4906148a9565b60405180910390fd5b610ae88383836124e5565b505050565b610af56127de565b80600a60006101000a81548173ffffffffffffffffffffffffffffffffffffffff021916908373ffffffffffffffffffffffffffffffffffffffff16021790555050565b600f6020528060005260406000206000915090505481565b610b6c8383836040518060200160405280600081525061183e565b505050565b600e6020528060005260406000206000915090505481565b600d60003373ffffffffffffffffffffffffffffffffffffffff1673ffffffffffffffffffffffffffffffffffffffff16815260200190815260200160002060090160009054906101000a900460ff16610c18576040517f08c379a0000000000000000000000000000000000000000000000000000000008152600401610c0f90614915565b60405180910390fd5b600d60003373ffffffffffffffffffffffffffffffffffffffff1673ffffffffffffffffffffffffffffffffffffffff16815260200190815260200160002060010154600b54610c689190614964565b600d60003373ffffffffffffffffffffffffffffffffffffffff1673ffffffffffffffffffffffffffffffffffffffff1681526020019081526020016000206008015442610cb691906149a6565b14610cf6576040517f08c379a0000000000000000000000000000000000000000000000000000000008152600401610ced90614a26565b60405180910390fd5b600a60009054906101000a900473ffffffffffffffffffffffffffffffffffffffff1673ffffffffffffffffffffffffffffffffffffffff1663a9059cbb33600d60003373ffffffffffffffffffffffffffffffffffffffff1673ffffffffffffffffffffffffffffffffffffffff168152602001908152602001600020600701546040518363ffffffff1660e01b8152600401610d95929190614a46565b6020604051808303816000875af1158015610db4573d6000803e3d6000fd5b505050506040513d601f19601f82011682018060405250810190610dd89190614a84565b50600d60003373ffffffffffffffffffffffffffffffffffffffff1673ffffffffffffffffffffffffffffffffffffffff16815260200190815260200160002060000154600d60003373ffffffffffffffffffffffffffffffffffffffff1673ffffffffffffffffffffffffffffffffffffffff16815260200190815260200160002060070154610e6991906149a6565b600f6000600960009054906101000a900473ffffffffffffffffffffffffffffffffffffffff1673ffffffffffffffffffffffffffffffffffffffff1673ffffffffffffffffffffffffffffffffffffffff1681526020019081526020016000206000828254610ed991906149a6565b92505081905550610f28601160003373ffffffffffffffffffffffffffffffffffffffff1673ffffffffffffffffffffffffffffffffffffffff1681526020019081526020016000205461285c565b601160003373ffffffffffffffffffffffffffffffffffffffff1673ffffffffffffffffffffffffffffffffffffffff16815260200190815260200160002060009055600d60003373ffffffffffffffffffffffffffffffffffffffff1673ffffffffffffffffffffffffffffffffffffffff168152602001908152602001600020600080820160009055600182016000905560028201600090556003820160006101000a81549073ffffffffffffffffffffffffffffffffffffffff02191690556004820160006101000a81549073ffffffffffffffffffffffffffffffffffffffff02191690556005820160006110219190613856565b6006820160006110319190613856565b600782016000905560088201600090556009820160006101000a81549060ff02191690555050565b600080611065836128af565b9050600073ffffffffffffffffffffffffffffffffffffffff168173ffffffffffffffffffffffffffffffffffffffff16036110d6576040517f08c379a00000000000000000000000000000000000000000000000000000000081526004016110cd90614afd565b60405180910390fd5b80915050919050565b60008073ffffffffffffffffffffffffffffffffffffffff168273ffffffffffffffffffffffffffffffffffffffff160361114f576040517f08c379a000000000000000000000000000000000000000000000000000000000815260040161114690614b8f565b60405180910390fd5b600460008373ffffffffffffffffffffffffffffffffffffffff1673ffffffffffffffffffffffffffffffffffffffff168152602001908152602001600020549050919050565b61119e6127de565b6111a860006128ec565b565b60006111b46127de565b6000600c546064600f60003373ffffffffffffffffffffffffffffffffffffffff1673ffffffffffffffffffffffffffffffffffffffff168152602001908152602001600020546112059190614964565b61120f9190614bde565b90508091505090565b60008060009054906101000a900473ffffffffffffffffffffffffffffffffffffffff16905090565b606060028054611250906146e2565b80601f016020809104026020016040519081016040528092919081815260200182805461127c906146e2565b80156112c95780601f1061129e576101008083540402835291602001916112c9565b820191906000526020600020905b8154815290600101906020018083116112ac57829003601f168201915b5050505050905090565b6112e56112de61238f565b83836129b0565b5050565b600d60003373ffffffffffffffffffffffffffffffffffffffff1673ffffffffffffffffffffffffffffffffffffffff16815260200190815260200160002060090160009054906101000a900460ff1615611379576040517f08c379a000000000000000000000000000000000000000000000000000000000815260040161137090614c5b565b60405180910390fd5b670de0b6b3a76400008261138d9190614964565b91506000600382036113b5576010600060018152602001908152602001600020549050611405565b600682036113d9576010600060028152602001908152602001600020549050611404565b600c82036113fd576010600060038152602001908152602001600020549050611403565b50611713565b5b5b604051806101400160405280848152602001838152602001828152602001600a60009054906101000a900473ffffffffffffffffffffffffffffffffffffffff1673ffffffffffffffffffffffffffffffffffffffff1681526020013073ffffffffffffffffffffffffffffffffffffffff168152602001611485610872565b8152602001611492611241565b81526020016114a18584611b21565b815260200142815260200160011515815250600d60003373ffffffffffffffffffffffffffffffffffffffff1673ffffffffffffffffffffffffffffffffffffffff16815260200190815260200160002060008201518160000155602082015181600101556040820151816002015560608201518160030160006101000a81548173ffffffffffffffffffffffffffffffffffffffff021916908373ffffffffffffffffffffffffffffffffffffffff16021790555060808201518160040160006101000a81548173ffffffffffffffffffffffffffffffffffffffff021916908373ffffffffffffffffffffffffffffffffffffffff16021790555060a08201518160050190816115b39190614e27565b5060c08201518160060190816115c99190614e27565b5060e0820151816007015561010082015181600801556101208201518160090160006101000a81548160ff021916908315150217905550905050600061164e848484600a60009054906101000a900473ffffffffffffffffffffffffffffffffffffffff1630611637610872565b61163f611241565b6116498c8b611b21565b610695565b905061165a6008612b1c565b60006116666008612b32565b90506116723382612b40565b61167c8183612b5e565b80601160003373ffffffffffffffffffffffffffffffffffffffff1673ffffffffffffffffffffffffffffffffffffffff1681526020019081526020016000208190555061170f333087600a60009054906101000a900473ffffffffffffffffffffffffffffffffffffffff1673ffffffffffffffffffffffffffffffffffffffff16612bcb909392919063ffffffff16565b5050505b5050565b600a60009054906101000a900473ffffffffffffffffffffffffffffffffffffffff1681565b6117456127de565b670de0b6b3a7640000816117599190614964565b905080600f60003373ffffffffffffffffffffffffffffffffffffffff1673ffffffffffffffffffffffffffffffffffffffff16815260200190815260200160002060008282546117aa91906149a6565b9250508190555080600c60008282546117c391906149a6565b925050819055506118173382600a60009054906101000a900473ffffffffffffffffffffffffffffffffffffffff1673ffffffffffffffffffffffffffffffffffffffff16612c549092919063ffffffff16565b50565b60088060000154905081565b60116020528060005260406000206000915090505481565b61184f61184961238f565b83612450565b61188e576040517f08c379a0000000000000000000000000000000000000000000000000000000008152600401611885906148a9565b60405180910390fd5b61189a84848484612cda565b50505050565b6118a86127de565b600960009054906101000a900473ffffffffffffffffffffffffffffffffffffffff1673ffffffffffffffffffffffffffffffffffffffff163373ffffffffffffffffffffffffffffffffffffffff1614611938576040517f08c379a000000000000000000000000000000000000000000000000000000000815260040161192f90614f45565b60405180910390fd5b670de0b6b3a76400008161194c9190614964565b905080600f60003373ffffffffffffffffffffffffffffffffffffffff1673ffffffffffffffffffffffffffffffffffffffff168152602001908152602001600020600082825461199d9190614f65565b9250508190555080600c60008282546119b69190614f65565b92505081905550611a0c333083600a60009054906101000a900473ffffffffffffffffffffffffffffffffffffffff1673ffffffffffffffffffffffffffffffffffffffff16612bcb909392919063ffffffff16565b50565b6060611a1a82612344565b6000600760008481526020019081526020016000208054611a3a906146e2565b80601f0160208091040260200160405190810160405280929190818152602001828054611a66906146e2565b8015611ab35780601f10611a8857610100808354040283529160200191611ab3565b820191906000526020600020905b815481529060010190602001808311611a9657829003601f168201915b505050505090506000611ac4612d36565b90506000815103611ad9578192505050611b1c565b600082511115611b0e578082604051602001611af6929190614f99565b60405160208183030381529060405292505050611b1c565b611b1784612d4d565b925050505b919050565b6000808284611b309190614964565b90506000606482611b419190614bde565b90508481611b4f9190614f65565b9250505092915050565b60106020528060005260406000206000915090505481565b600d6020528060005260406000206000915090508060000154908060010154908060020154908060030160009054906101000a900473ffffffffffffffffffffffffffffffffffffffff16908060040160009054906101000a900473ffffffffffffffffffffffffffffffffffffffff1690806005018054611bf2906146e2565b80601f0160208091040260200160405190810160405280929190818152602001828054611c1e906146e2565b8015611c6b5780601f10611c4057610100808354040283529160200191611c6b565b820191906000526020600020905b815481529060010190602001808311611c4e57829003601f168201915b505050505090806006018054611c80906146e2565b80601f0160208091040260200160405190810160405280929190818152602001828054611cac906146e2565b8015611cf95780601f10611cce57610100808354040283529160200191611cf9565b820191906000526020600020905b815481529060010190602001808311611cdc57829003601f168201915b5050505050908060070154908060080154908060090160009054906101000a900460ff1690508a565b6000600660008473ffffffffffffffffffffffffffffffffffffffff1673ffffffffffffffffffffffffffffffffffffffff16815260200190815260200160002060008373ffffffffffffffffffffffffffffffffffffffff1673ffffffffffffffffffffffffffffffffffffffff16815260200190815260200160002060009054906101000a900460ff16905092915050565b611dbe6127de565b600073ffffffffffffffffffffffffffffffffffffffff168173ffffffffffffffffffffffffffffffffffffffff1603611e2d576040517f08c379a0000000000000000000000000000000000000000000000000000000008152600401611e249061502f565b60405180910390fd5b611e36816128ec565b50565b606060006001611e4884612db5565b01905060008167ffffffffffffffff811115611e6757611e66613976565b5b6040519080825280601f01601f191660200182016040528015611e995781602001600182028036833780820191505090505b509050600082602001820190505b600115611efc578080600190039150507f3031323334353637383961626364656600000000000000000000000000000000600a86061a8153600a8581611ef057611eef614baf565b5b04945060008503611ea7575b819350505050919050565b606060006002836002611f1a9190614964565b611f249190614f65565b67ffffffffffffffff811115611f3d57611f3c613976565b5b6040519080825280601f01601f191660200182016040528015611f6f5781602001600182028036833780820191505090505b5090507f300000000000000000000000000000000000000000000000000000000000000081600081518110611fa757611fa661504f565b5b60200101907effffffffffffffffffffffffffffffffffffffffffffffffffffffffffffff1916908160001a9053507f78000000000000000000000000000000000000000000000000000000000000008160018151811061200b5761200a61504f565b5b60200101907effffffffffffffffffffffffffffffffffffffffffffffffffffffffffffff1916908160001a9053506000600184600261204b9190614964565b6120559190614f65565b90505b60018111156120f5577f3031323334353637383961626364656600000000000000000000000000000000600f8616601081106120975761209661504f565b5b1a60f81b8282815181106120ae576120ad61504f565b5b60200101907effffffffffffffffffffffffffffffffffffffffffffffffffffffffffffff1916908160001a905350600485901c9450806120ee9061507e565b9050612058565b5060008414612139576040517f08c379a0000000000000000000000000000000000000000000000000000000008152600401612130906150f3565b60405180910390fd5b8091505092915050565b60606000825190506000810361216b57604051806020016040528060008152509150506122d5565b6000600360028361217c9190614f65565b6121869190614bde565b60046121929190614964565b905060006020826121a39190614f65565b67ffffffffffffffff8111156121bc576121bb613976565b5b6040519080825280601f01601f1916602001820160405280156121ee5781602001600182028036833780820191505090505b5090506000604051806060016040528060408152602001615809604091399050600181016020830160005b868110156122925760038101905062ffffff818a015116603f8160121c168401518060081b905060ff603f83600c1c1686015116810190508060081b905060ff603f8360061c1686015116810190508060081b905060ff603f831686015116810190508060e01b90508084526004840193505050612219565b5060038606600181146122ac57600281146122bc576122c7565b613d3d60f01b60028303526122c7565b603d60f81b60018303525b508484525050819450505050505b919050565b60007f01ffc9a7000000000000000000000000000000000000000000000000000000007bffffffffffffffffffffffffffffffffffffffffffffffffffffffff1916827bffffffffffffffffffffffffffffffffffffffffffffffffffffffff1916149050919050565b61234d81612f08565b61238c576040517f08c379a000000000000000000000000000000000000000000000000000000000815260040161238390614afd565b60405180910390fd5b50565b600033905090565b816005600083815260200190815260200160002060006101000a81548173ffffffffffffffffffffffffffffffffffffffff021916908373ffffffffffffffffffffffffffffffffffffffff160217905550808273ffffffffffffffffffffffffffffffffffffffff1661240a83611059565b73ffffffffffffffffffffffffffffffffffffffff167f8c5be1e5ebec7d5bd14f71427d1e84f3dd0314c0f7b2291e5b200ac8c7c3b92560405160405180910390a45050565b60008061245c83611059565b90508073ffffffffffffffffffffffffffffffffffffffff168473ffffffffffffffffffffffffffffffffffffffff16148061249e575061249d8185611d22565b5b806124dc57508373ffffffffffffffffffffffffffffffffffffffff166124c484610904565b73ffffffffffffffffffffffffffffffffffffffff16145b91505092915050565b8273ffffffffffffffffffffffffffffffffffffffff1661250582611059565b73ffffffffffffffffffffffffffffffffffffffff161461255b576040517f08c379a000000000000000000000000000000000000000000000000000000000815260040161255290615185565b60405180910390fd5b600073ffffffffffffffffffffffffffffffffffffffff168273ffffffffffffffffffffffffffffffffffffffff16036125ca576040517f08c379a00000000000000000000000000000000000000000000000000000000081526004016125c190615217565b60405180910390fd5b6125d78383836001612f49565b8273ffffffffffffffffffffffffffffffffffffffff166125f782611059565b73ffffffffffffffffffffffffffffffffffffffff161461264d576040517f08c379a000000000000000000000000000000000000000000000000000000000815260040161264490615185565b60405180910390fd5b6005600082815260200190815260200160002060006101000a81549073ffffffffffffffffffffffffffffffffffffffff02191690556001600460008573ffffffffffffffffffffffffffffffffffffffff1673ffffffffffffffffffffffffffffffffffffffff168152602001908152602001600020600082825403925050819055506001600460008473ffffffffffffffffffffffffffffffffffffffff1673ffffffffffffffffffffffffffffffffffffffff16815260200190815260200160002060008282540192505081905550816003600083815260200190815260200160002060006101000a81548173ffffffffffffffffffffffffffffffffffffffff021916908373ffffffffffffffffffffffffffffffffffffffff160217905550808273ffffffffffffffffffffffffffffffffffffffff168473ffffffffffffffffffffffffffffffffffffffff167fddf252ad1be2c89b69c2b068fc378daa952ba7f163c4a11628f55a4df523b3ef60405160405180910390a46127d9838383600161306f565b505050565b6127e661238f565b73ffffffffffffffffffffffffffffffffffffffff16612804611218565b73ffffffffffffffffffffffffffffffffffffffff161461285a576040517f08c379a000000000000000000000000000000000000000000000000000000000815260040161285190615283565b60405180910390fd5b565b61286581613075565b6000600760008381526020019081526020016000208054612885906146e2565b9050146128ac576007600082815260200190815260200160002060006128ab9190613856565b5b50565b60006003600083815260200190815260200160002060009054906101000a900473ffffffffffffffffffffffffffffffffffffffff169050919050565b60008060009054906101000a900473ffffffffffffffffffffffffffffffffffffffff169050816000806101000a81548173ffffffffffffffffffffffffffffffffffffffff021916908373ffffffffffffffffffffffffffffffffffffffff1602179055508173ffffffffffffffffffffffffffffffffffffffff168173ffffffffffffffffffffffffffffffffffffffff167f8be0079c531659141344cd1fd0a4f28419497f9722a3daafe3b4186f6b6457e060405160405180910390a35050565b8173ffffffffffffffffffffffffffffffffffffffff168373ffffffffffffffffffffffffffffffffffffffff1603612a1e576040517f08c379a0000000000000000000000000000000000000000000000000000000008152600401612a15906152ef565b60405180910390fd5b80600660008573ffffffffffffffffffffffffffffffffffffffff1673ffffffffffffffffffffffffffffffffffffffff16815260200190815260200160002060008473ffffffffffffffffffffffffffffffffffffffff1673ffffffffffffffffffffffffffffffffffffffff16815260200190815260200160002060006101000a81548160ff0219169083151502179055508173ffffffffffffffffffffffffffffffffffffffff168373ffffffffffffffffffffffffffffffffffffffff167f17307eab39ab6107e8899845ad3d59bd9653f200f220920489ca2b5937696c3183604051612b0f9190613cd0565b60405180910390a3505050565b6001816000016000828254019250508190555050565b600081600001549050919050565b612b5a8282604051806020016040528060008152506131c3565b5050565b612b6782612f08565b612ba6576040517f08c379a0000000000000000000000000000000000000000000000000000000008152600401612b9d90615381565b60405180910390fd5b80600760008481526020019081526020016000209081612bc69190614e27565b505050565b612c4e846323b872dd60e01b858585604051602401612bec939291906153a1565b604051602081830303815290604052907bffffffffffffffffffffffffffffffffffffffffffffffffffffffff19166020820180517bffffffffffffffffffffffffffffffffffffffffffffffffffffffff838183161783525050505061321e565b50505050565b612cd58363a9059cbb60e01b8484604051602401612c73929190614a46565b604051602081830303815290604052907bffffffffffffffffffffffffffffffffffffffffffffffffffffffff19166020820180517bffffffffffffffffffffffffffffffffffffffffffffffffffffffff838183161783525050505061321e565b505050565b612ce58484846124e5565b612cf1848484846132e5565b612d30576040517f08c379a0000000000000000000000000000000000000000000000000000000008152600401612d279061544a565b60405180910390fd5b50505050565b606060405180602001604052806000815250905090565b6060612d5882612344565b6000612d62612d36565b90506000815111612d825760405180602001604052806000815250612dad565b80612d8c84611e39565b604051602001612d9d929190614f99565b6040516020818303038152906040525b915050919050565b600080600090507a184f03e93ff9f4daa797ed6e38ed64bf6a1f0100000000000000008310612e13577a184f03e93ff9f4daa797ed6e38ed64bf6a1f0100000000000000008381612e0957612e08614baf565b5b0492506040810190505b6d04ee2d6d415b85acef81000000008310612e50576d04ee2d6d415b85acef81000000008381612e4657612e45614baf565b5b0492506020810190505b662386f26fc100008310612e7f57662386f26fc100008381612e7557612e74614baf565b5b0492506010810190505b6305f5e1008310612ea8576305f5e1008381612e9e57612e9d614baf565b5b0492506008810190505b6127108310612ecd576127108381612ec357612ec2614baf565b5b0492506004810190505b60648310612ef05760648381612ee657612ee5614baf565b5b0492506002810190505b600a8310612eff576001810190505b80915050919050565b60008073ffffffffffffffffffffffffffffffffffffffff16612f2a836128af565b73ffffffffffffffffffffffffffffffffffffffff1614159050919050565b600181111561306957600073ffffffffffffffffffffffffffffffffffffffff168473ffffffffffffffffffffffffffffffffffffffff1614612fdd5780600460008673ffffffffffffffffffffffffffffffffffffffff1673ffffffffffffffffffffffffffffffffffffffff1681526020019081526020016000206000828254612fd591906149a6565b925050819055505b600073ffffffffffffffffffffffffffffffffffffffff168373ffffffffffffffffffffffffffffffffffffffff16146130685780600460008573ffffffffffffffffffffffffffffffffffffffff1673ffffffffffffffffffffffffffffffffffffffff16815260200190815260200160002060008282546130609190614f65565b925050819055505b5b50505050565b50505050565b600061308082611059565b9050613090816000846001612f49565b61309982611059565b90506005600083815260200190815260200160002060006101000a81549073ffffffffffffffffffffffffffffffffffffffff02191690556001600460008373ffffffffffffffffffffffffffffffffffffffff1673ffffffffffffffffffffffffffffffffffffffff168152602001908152602001600020600082825403925050819055506003600083815260200190815260200160002060006101000a81549073ffffffffffffffffffffffffffffffffffffffff021916905581600073ffffffffffffffffffffffffffffffffffffffff168273ffffffffffffffffffffffffffffffffffffffff167fddf252ad1be2c89b69c2b068fc378daa952ba7f163c4a11628f55a4df523b3ef60405160405180910390a46131bf81600084600161306f565b5050565b6131cd838361346c565b6131da60008484846132e5565b613219576040517f08c379a00000000000000000000000000000000000000000000000000000000081526004016132109061544a565b60405180910390fd5b505050565b6000613280826040518060400160405280602081526020017f5361666545524332303a206c6f772d6c6576656c2063616c6c206661696c65648152508573ffffffffffffffffffffffffffffffffffffffff166136899092919063ffffffff16565b90506000815111156132e057808060200190518101906132a09190614a84565b6132df576040517f08c379a00000000000000000000000000000000000000000000000000000000081526004016132d6906154dc565b60405180910390fd5b5b505050565b60006133068473ffffffffffffffffffffffffffffffffffffffff166136a1565b1561345f578373ffffffffffffffffffffffffffffffffffffffff1663150b7a0261332f61238f565b8786866040518563ffffffff1660e01b81526004016133519493929190615551565b6020604051808303816000875af192505050801561338d57506040513d601f19601f8201168201806040525081019061338a91906155b2565b60015b61340f573d80600081146133bd576040519150601f19603f3d011682016040523d82523d6000602084013e6133c2565b606091505b506000815103613407576040517f08c379a00000000000000000000000000000000000000000000000000000000081526004016133fe9061544a565b60405180910390fd5b805181602001fd5b63150b7a0260e01b7bffffffffffffffffffffffffffffffffffffffffffffffffffffffff1916817bffffffffffffffffffffffffffffffffffffffffffffffffffffffff191614915050613464565b600190505b949350505050565b600073ffffffffffffffffffffffffffffffffffffffff168273ffffffffffffffffffffffffffffffffffffffff16036134db576040517f08c379a00000000000000000000000000000000000000000000000000000000081526004016134d29061562b565b60405180910390fd5b6134e481612f08565b15613524576040517f08c379a000000000000000000000000000000000000000000000000000000000815260040161351b90615697565b60405180910390fd5b613532600083836001612f49565b61353b81612f08565b1561357b576040517f08c379a000000000000000000000000000000000000000000000000000000000815260040161357290615697565b60405180910390fd5b6001600460008473ffffffffffffffffffffffffffffffffffffffff1673ffffffffffffffffffffffffffffffffffffffff16815260200190815260200160002060008282540192505081905550816003600083815260200190815260200160002060006101000a81548173ffffffffffffffffffffffffffffffffffffffff021916908373ffffffffffffffffffffffffffffffffffffffff160217905550808273ffffffffffffffffffffffffffffffffffffffff16600073ffffffffffffffffffffffffffffffffffffffff167fddf252ad1be2c89b69c2b068fc378daa952ba7f163c4a11628f55a4df523b3ef60405160405180910390a461368560008383600161306f565b5050565b606061369884846000856136c4565b90509392505050565b6000808273ffffffffffffffffffffffffffffffffffffffff163b119050919050565b606082471015613709576040517f08c379a000000000000000000000000000000000000000000000000000000000815260040161370090615729565b60405180910390fd5b6000808673ffffffffffffffffffffffffffffffffffffffff1685876040516137329190615785565b60006040518083038185875af1925050503d806000811461376f576040519150601f19603f3d011682016040523d82523d6000602084013e613774565b606091505b509150915061378587838387613791565b92505050949350505050565b606083156137f35760008351036137eb576137ab856136a1565b6137ea576040517f08c379a00000000000000000000000000000000000000000000000000000000081526004016137e1906157e8565b60405180910390fd5b5b8290506137fe565b6137fd8383613806565b5b949350505050565b6000825111156138195781518083602001fd5b806040517f08c379a000000000000000000000000000000000000000000000000000000000815260040161384d9190613c0e565b60405180910390fd5b508054613862906146e2565b6000825580601f106138745750613893565b601f0160209004906000526020600020908101906138929190613896565b5b50565b5b808211156138af576000816000905550600101613897565b5090565b6000604051905090565b600080fd5b600080fd5b6000819050919050565b6138da816138c7565b81146138e557600080fd5b50565b6000813590506138f7816138d1565b92915050565b600073ffffffffffffffffffffffffffffffffffffffff82169050919050565b6000613928826138fd565b9050919050565b6139388161391d565b811461394357600080fd5b50565b6000813590506139558161392f565b92915050565b600080fd5b600080fd5b6000601f19601f8301169050919050565b7f4e487b7100000000000000000000000000000000000000000000000000000000600052604160045260246000fd5b6139ae82613965565b810181811067ffffffffffffffff821117156139cd576139cc613976565b5b80604052505050565b60006139e06138b3565b90506139ec82826139a5565b919050565b600067ffffffffffffffff821115613a0c57613a0b613976565b5b613a1582613965565b9050602081019050919050565b82818337600083830152505050565b6000613a44613a3f846139f1565b6139d6565b905082815260208101848484011115613a6057613a5f613960565b5b613a6b848285613a22565b509392505050565b600082601f830112613a8857613a8761395b565b5b8135613a98848260208601613a31565b91505092915050565b600080600080600080600080610100898b031215613ac257613ac16138bd565b5b6000613ad08b828c016138e8565b9850506020613ae18b828c016138e8565b9750506040613af28b828c016138e8565b9650506060613b038b828c01613946565b9550506080613b148b828c01613946565b94505060a089013567ffffffffffffffff811115613b3557613b346138c2565b5b613b418b828c01613a73565b93505060c089013567ffffffffffffffff811115613b6257613b616138c2565b5b613b6e8b828c01613a73565b92505060e0613b7f8b828c016138e8565b9150509295985092959890939650565b600081519050919050565b600082825260208201905092915050565b60005b83811015613bc9578082015181840152602081019050613bae565b60008484015250505050565b6000613be082613b8f565b613bea8185613b9a565b9350613bfa818560208601613bab565b613c0381613965565b840191505092915050565b60006020820190508181036000830152613c288184613bd5565b905092915050565b60007fffffffff0000000000000000000000000000000000000000000000000000000082169050919050565b613c6581613c30565b8114613c7057600080fd5b50565b600081359050613c8281613c5c565b92915050565b600060208284031215613c9e57613c9d6138bd565b5b6000613cac84828501613c73565b91505092915050565b60008115159050919050565b613cca81613cb5565b82525050565b6000602082019050613ce56000830184613cc1565b92915050565b600060208284031215613d0157613d006138bd565b5b6000613d0f848285016138e8565b91505092915050565b613d218161391d565b82525050565b6000602082019050613d3c6000830184613d18565b92915050565b60008060408385031215613d5957613d586138bd565b5b6000613d6785828601613946565b9250506020613d78858286016138e8565b9150509250929050565b613d8b816138c7565b82525050565b6000602082019050613da66000830184613d82565b92915050565b600080600060608486031215613dc557613dc46138bd565b5b6000613dd386828701613946565b9350506020613de486828701613946565b9250506040613df5868287016138e8565b9150509250925092565b600060208284031215613e1557613e146138bd565b5b6000613e2384828501613946565b91505092915050565b613e3581613cb5565b8114613e4057600080fd5b50565b600081359050613e5281613e2c565b92915050565b60008060408385031215613e6f57613e6e6138bd565b5b6000613e7d85828601613946565b9250506020613e8e85828601613e43565b9150509250929050565b60008060408385031215613eaf57613eae6138bd565b5b6000613ebd858286016138e8565b9250506020613ece858286016138e8565b9150509250929050565b600067ffffffffffffffff821115613ef357613ef2613976565b5b613efc82613965565b9050602081019050919050565b6000613f1c613f1784613ed8565b6139d6565b905082815260208101848484011115613f3857613f37613960565b5b613f43848285613a22565b509392505050565b600082601f830112613f6057613f5f61395b565b5b8135613f70848260208601613f09565b91505092915050565b60008060008060808587031215613f9357613f926138bd565b5b6000613fa187828801613946565b9450506020613fb287828801613946565b9350506040613fc3878288016138e8565b925050606085013567ffffffffffffffff811115613fe457613fe36138c2565b5b613ff087828801613f4b565b91505092959194509250565b600061014082019050614012600083018d613d82565b61401f602083018c613d82565b61402c604083018b613d82565b614039606083018a613d18565b6140466080830189613d18565b81810360a08301526140588188613bd5565b905081810360c083015261406c8187613bd5565b905061407b60e0830186613d82565b614089610100830185613d82565b614097610120830184613cc1565b9b9a5050505050505050505050565b600080604083850312156140bd576140bc6138bd565b5b60006140cb85828601613946565b92505060206140dc85828601613946565b9150509250929050565b600081905092915050565b7f7b226e616d65223a20224d7920436f6e7472616374222c20226465736372697060008201527f74696f6e223a202254686973206973206465706f73697420616e64207769746860208201527f6472617720636f6e7472616374222c202261747472696275746573223a205b7b60408201527f202274726169745f74797065223a20226465706f7369746564222c2276616c7560608201527f65223a2022000000000000000000000000000000000000000000000000000000608082015250565b60006141bf6085836140e6565b91506141ca826140f1565b608582019050919050565b60006141e082613b8f565b6141ea81856140e6565b93506141fa818560208601613bab565b80840191505092915050565b7f227d2c7b2274726169745f74797065223a20226d61747572697479222c22766160008201527f6c7565223a202200000000000000000000000000000000000000000000000000602082015250565b60006142626027836140e6565b915061426d82614206565b602782019050919050565b7f227d2c7b2274726169745f74797065223a202270657263656e74616765222c2260008201527f76616c7565223a20220000000000000000000000000000000000000000000000602082015250565b60006142d46029836140e6565b91506142df82614278565b602982019050919050565b7f227d2c7b202274726169745f74797065223a20224552433230436f6e7472616360008201527f7441646472657373222c2276616c7565223a2022000000000000000000000000602082015250565b60006143466034836140e6565b9150614351826142ea565b603482019050919050565b7f227d2c7b2274726169745f74797065223a20224e4654436f6e7472616374416460008201527f6472657373222c2276616c7565223a2022000000000000000000000000000000602082015250565b60006143b86031836140e6565b91506143c38261435c565b603182019050919050565b7f227d2c7b2274726169745f74797065223a2022436f6e74726163744e616d652260008201527f2c2276616c7565223a2022000000000000000000000000000000000000000000602082015250565b600061442a602b836140e6565b9150614435826143ce565b602b82019050919050565b7f227d2c7b202274726169745f74797065223a2022436f6e747261637453796d6260008201527f6f6c222c2276616c7565223a2022000000000000000000000000000000000000602082015250565b600061449c602e836140e6565b91506144a782614440565b602e82019050919050565b7f227d2c7b2274726169745f74797065223a2022546f74616c436c61696d222c2260008201527f76616c7565223a20220000000000000000000000000000000000000000000000602082015250565b600061450e6029836140e6565b9150614519826144b2565b602982019050919050565b7f227d5d7d00000000000000000000000000000000000000000000000000000000600082015250565b600061455a6004836140e6565b915061456582614524565b600482019050919050565b600061457b826141b2565b9150614587828b6141d5565b915061459282614255565b915061459e828a6141d5565b91506145a9826142c7565b91506145b582896141d5565b91506145c082614339565b91506145cc82886141d5565b91506145d7826143ab565b91506145e382876141d5565b91506145ee8261441d565b91506145fa82866141d5565b91506146058261448f565b915061461182856141d5565b915061461c82614501565b915061462882846141d5565b91506146338261454d565b91508190509998505050505050505050565b7f646174613a6170706c69636174696f6e2f6a736f6e3b6261736536342c000000600082015250565b600061467b601d836140e6565b915061468682614645565b601d82019050919050565b600061469c8261466e565b91506146a882846141d5565b915081905092915050565b7f4e487b7100000000000000000000000000000000000000000000000000000000600052602260045260246000fd5b600060028204905060018216806146fa57607f821691505b60208210810361470d5761470c6146b3565b5b50919050565b7f4552433732313a20617070726f76616c20746f2063757272656e74206f776e6560008201527f7200000000000000000000000000000000000000000000000000000000000000602082015250565b600061476f602183613b9a565b915061477a82614713565b604082019050919050565b6000602082019050818103600083015261479e81614762565b9050919050565b7f4552433732313a20617070726f76652063616c6c6572206973206e6f7420746f60008201527f6b656e206f776e6572206f7220617070726f76656420666f7220616c6c000000602082015250565b6000614801603d83613b9a565b915061480c826147a5565b604082019050919050565b60006020820190508181036000830152614830816147f4565b9050919050565b7f4552433732313a2063616c6c6572206973206e6f7420746f6b656e206f776e6560008201527f72206f7220617070726f76656400000000000000000000000000000000000000602082015250565b6000614893602d83613b9a565b915061489e82614837565b604082019050919050565b600060208201905081810360008301526148c281614886565b9050919050565b7f506c65617365204669727374205374616b650000000000000000000000000000600082015250565b60006148ff601283613b9a565b915061490a826148c9565b602082019050919050565b6000602082019050818103600083015261492e816148f2565b9050919050565b7f4e487b7100000000000000000000000000000000000000000000000000000000600052601160045260246000fd5b600061496f826138c7565b915061497a836138c7565b9250828202614988816138c7565b9150828204841483151761499f5761499e614935565b5b5092915050565b60006149b1826138c7565b91506149bc836138c7565b92508282039050818111156149d4576149d3614935565b5b92915050565b7f596f75722054696d6520706572696f64206973206e6f7420636f6d706c657465600082015250565b6000614a10602083613b9a565b9150614a1b826149da565b602082019050919050565b60006020820190508181036000830152614a3f81614a03565b9050919050565b6000604082019050614a5b6000830185613d18565b614a686020830184613d82565b9392505050565b600081519050614a7e81613e2c565b92915050565b600060208284031215614a9a57614a996138bd565b5b6000614aa884828501614a6f565b91505092915050565b7f4552433732313a20696e76616c696420746f6b656e2049440000000000000000600082015250565b6000614ae7601883613b9a565b9150614af282614ab1565b602082019050919050565b60006020820190508181036000830152614b1681614ada565b9050919050565b7f4552433732313a2061646472657373207a65726f206973206e6f74206120766160008201527f6c6964206f776e65720000000000000000000000000000000000000000000000602082015250565b6000614b79602983613b9a565b9150614b8482614b1d565b604082019050919050565b60006020820190508181036000830152614ba881614b6c565b9050919050565b7f4e487b7100000000000000000000000000000000000000000000000000000000600052601260045260246000fd5b6000614be9826138c7565b9150614bf4836138c7565b925082614c0457614c03614baf565b5b828204905092915050565b7f506c656173652046697273742057697468447261770000000000000000000000600082015250565b6000614c45601583613b9a565b9150614c5082614c0f565b602082019050919050565b60006020820190508181036000830152614c7481614c38565b9050919050565b60008190508160005260206000209050919050565b60006020601f8301049050919050565b600082821b905092915050565b600060088302614cdd7fffffffffffffffffffffffffffffffffffffffffffffffffffffffffffffffff82614ca0565b614ce78683614ca0565b95508019841693508086168417925050509392505050565b6000819050919050565b6000614d24614d1f614d1a846138c7565b614cff565b6138c7565b9050919050565b6000819050919050565b614d3e83614d09565b614d52614d4a82614d2b565b848454614cad565b825550505050565b600090565b614d67614d5a565b614d72818484614d35565b505050565b5b81811015614d9657614d8b600082614d5f565b600181019050614d78565b5050565b601f821115614ddb57614dac81614c7b565b614db584614c90565b81016020851015614dc4578190505b614dd8614dd085614c90565b830182614d77565b50505b505050565b600082821c905092915050565b6000614dfe60001984600802614de0565b1980831691505092915050565b6000614e178383614ded565b9150826002028217905092915050565b614e3082613b8f565b67ffffffffffffffff811115614e4957614e48613976565b5b614e5382546146e2565b614e5e828285614d9a565b600060209050601f831160018114614e915760008415614e7f578287015190505b614e898582614e0b565b865550614ef1565b601f198416614e9f86614c7b565b60005b82811015614ec757848901518255600182019150602085019450602081019050614ea2565b86831015614ee45784890151614ee0601f891682614ded565b8355505b6001600288020188555050505b505050505050565b7f4f6e6c79204f776e65722063616e207472616e73666572000000000000000000600082015250565b6000614f2f601783613b9a565b9150614f3a82614ef9565b602082019050919050565b60006020820190508181036000830152614f5e81614f22565b9050919050565b6000614f70826138c7565b9150614f7b836138c7565b9250828201905080821115614f9357614f92614935565b5b92915050565b6000614fa582856141d5565b9150614fb182846141d5565b91508190509392505050565b7f4f776e61626c653a206e6577206f776e657220697320746865207a65726f206160008201527f6464726573730000000000000000000000000000000000000000000000000000602082015250565b6000615019602683613b9a565b915061502482614fbd565b604082019050919050565b600060208201905081810360008301526150488161500c565b9050919050565b7f4e487b7100000000000000000000000000000000000000000000000000000000600052603260045260246000fd5b6000615089826138c7565b91506000820361509c5761509b614935565b5b600182039050919050565b7f537472696e67733a20686578206c656e67746820696e73756666696369656e74600082015250565b60006150dd602083613b9a565b91506150e8826150a7565b602082019050919050565b6000602082019050818103600083015261510c816150d0565b9050919050565b7f4552433732313a207472616e736665722066726f6d20696e636f72726563742060008201527f6f776e6572000000000000000000000000000000000000000000000000000000602082015250565b600061516f602583613b9a565b915061517a82615113565b604082019050919050565b6000602082019050818103600083015261519e81615162565b9050919050565b7f4552433732313a207472616e7366657220746f20746865207a65726f2061646460008201527f7265737300000000000000000000000000000000000000000000000000000000602082015250565b6000615201602483613b9a565b915061520c826151a5565b604082019050919050565b60006020820190508181036000830152615230816151f4565b9050919050565b7f4f776e61626c653a2063616c6c6572206973206e6f7420746865206f776e6572600082015250565b600061526d602083613b9a565b915061527882615237565b602082019050919050565b6000602082019050818103600083015261529c81615260565b9050919050565b7f4552433732313a20617070726f766520746f2063616c6c657200000000000000600082015250565b60006152d9601983613b9a565b91506152e4826152a3565b602082019050919050565b60006020820190508181036000830152615308816152cc565b9050919050565b7f45524337323155524953746f726167653a2055524920736574206f66206e6f6e60008201527f6578697374656e7420746f6b656e000000000000000000000000000000000000602082015250565b600061536b602e83613b9a565b91506153768261530f565b604082019050919050565b6000602082019050818103600083015261539a8161535e565b9050919050565b60006060820190506153b66000830186613d18565b6153c36020830185613d18565b6153d06040830184613d82565b949350505050565b7f4552433732313a207472616e7366657220746f206e6f6e20455243373231526560008201527f63656976657220696d706c656d656e7465720000000000000000000000000000602082015250565b6000615434603283613b9a565b915061543f826153d8565b604082019050919050565b6000602082019050818103600083015261546381615427565b9050919050565b7f5361666545524332303a204552433230206f7065726174696f6e20646964206e60008201527f6f74207375636365656400000000000000000000000000000000000000000000602082015250565b60006154c6602a83613b9a565b91506154d18261546a565b604082019050919050565b600060208201905081810360008301526154f5816154b9565b9050919050565b600081519050919050565b600082825260208201905092915050565b6000615523826154fc565b61552d8185615507565b935061553d818560208601613bab565b61554681613965565b840191505092915050565b60006080820190506155666000830187613d18565b6155736020830186613d18565b6155806040830185613d82565b81810360608301526155928184615518565b905095945050505050565b6000815190506155ac81613c5c565b92915050565b6000602082840312156155c8576155c76138bd565b5b60006155d68482850161559d565b91505092915050565b7f4552433732313a206d696e7420746f20746865207a65726f2061646472657373600082015250565b6000615615602083613b9a565b9150615620826155df565b602082019050919050565b6000602082019050818103600083015261564481615608565b9050919050565b7f4552433732313a20746f6b656e20616c7265616479206d696e74656400000000600082015250565b6000615681601c83613b9a565b915061568c8261564b565b602082019050919050565b600060208201905081810360008301526156b081615674565b9050919050565b7f416464726573733a20696e73756666696369656e742062616c616e636520666f60008201527f722063616c6c0000000000000000000000000000000000000000000000000000602082015250565b6000615713602683613b9a565b915061571e826156b7565b604082019050919050565b6000602082019050818103600083015261574281615706565b9050919050565b600081905092915050565b600061575f826154fc565b6157698185615749565b9350615779818560208601613bab565b80840191505092915050565b60006157918284615754565b915081905092915050565b7f416464726573733a2063616c6c20746f206e6f6e2d636f6e7472616374000000600082015250565b60006157d2601d83613b9a565b91506157dd8261579c565b602082019050919050565b60006020820190508181036000830152615801816157c5565b905091905056fe4142434445464748494a4b4c4d4e4f505152535455565758595a6162636465666768696a6b6c6d6e6f707172737475767778797a303132333435363738392b2fa26469706673582212208eb1efa41f328246ab9c344b49641ff1be44e6d2e38b28111dff68a67e58c8ac64736f6c63430008110033",
			"opcodes": "PUSH1 0x80 PUSH1 0x40 MSTORE PUSH3 0x278D00 PUSH1 0xB SSTORE CALLVALUE DUP1 ISZERO PUSH3 0x18 JUMPI PUSH1 0x0 DUP1 REVERT JUMPDEST POP PUSH1 0x40 MLOAD PUSH3 0x5F8F CODESIZE SUB DUP1 PUSH3 0x5F8F DUP4 CODECOPY DUP2 DUP2 ADD PUSH1 0x40 MSTORE DUP2 ADD SWAP1 PUSH3 0x3E SWAP2 SWAP1 PUSH3 0x338 JUMP JUMPDEST PUSH1 0x40 MLOAD DUP1 PUSH1 0x40 ADD PUSH1 0x40 MSTORE DUP1 PUSH1 0x8 DUP2 MSTORE PUSH1 0x20 ADD PUSH32 0x4F637461204E4654000000000000000000000000000000000000000000000000 DUP2 MSTORE POP PUSH1 0x40 MLOAD DUP1 PUSH1 0x40 ADD PUSH1 0x40 MSTORE DUP1 PUSH1 0x4 DUP2 MSTORE PUSH1 0x20 ADD PUSH32 0x4F43544100000000000000000000000000000000000000000000000000000000 DUP2 MSTORE POP PUSH3 0xCA PUSH3 0xBE PUSH3 0x1C7 PUSH1 0x20 SHL PUSH1 0x20 SHR JUMP JUMPDEST PUSH3 0x1CF PUSH1 0x20 SHL PUSH1 0x20 SHR JUMP JUMPDEST DUP2 PUSH1 0x1 SWAP1 DUP2 PUSH3 0xDB SWAP2 SWAP1 PUSH3 0x61A JUMP JUMPDEST POP DUP1 PUSH1 0x2 SWAP1 DUP2 PUSH3 0xED SWAP2 SWAP1 PUSH3 0x61A JUMP JUMPDEST POP POP POP DUP4 PUSH1 0xA PUSH1 0x0 PUSH2 0x100 EXP DUP2 SLOAD DUP2 PUSH20 0xFFFFFFFFFFFFFFFFFFFFFFFFFFFFFFFFFFFFFFFF MUL NOT AND SWAP1 DUP4 PUSH20 0xFFFFFFFFFFFFFFFFFFFFFFFFFFFFFFFFFFFFFFFF AND MUL OR SWAP1 SSTORE POP DUP3 PUSH1 0x10 PUSH1 0x0 PUSH1 0x1 DUP2 MSTORE PUSH1 0x20 ADD SWAP1 DUP2 MSTORE PUSH1 0x20 ADD PUSH1 0x0 KECCAK256 DUP2 SWAP1 SSTORE POP DUP2 PUSH1 0x10 PUSH1 0x0 PUSH1 0x2 DUP2 MSTORE PUSH1 0x20 ADD SWAP1 DUP2 MSTORE PUSH1 0x20 ADD PUSH1 0x0 KECCAK256 DUP2 SWAP1 SSTORE POP DUP1 PUSH1 0x10 PUSH1 0x0 PUSH1 0x3 DUP2 MSTORE PUSH1 0x20 ADD SWAP1 DUP2 MSTORE PUSH1 0x20 ADD PUSH1 0x0 KECCAK256 DUP2 SWAP1 SSTORE POP CALLER PUSH1 0x9 PUSH1 0x0 PUSH2 0x100 EXP DUP2 SLOAD DUP2 PUSH20 0xFFFFFFFFFFFFFFFFFFFFFFFFFFFFFFFFFFFFFFFF MUL NOT AND SWAP1 DUP4 PUSH20 0xFFFFFFFFFFFFFFFFFFFFFFFFFFFFFFFFFFFFFFFF AND MUL OR SWAP1 SSTORE POP POP POP POP POP PUSH3 0x701 JUMP JUMPDEST PUSH1 0x0 CALLER SWAP1 POP SWAP1 JUMP JUMPDEST PUSH1 0x0 DUP1 PUSH1 0x0 SWAP1 SLOAD SWAP1 PUSH2 0x100 EXP SWAP1 DIV PUSH20 0xFFFFFFFFFFFFFFFFFFFFFFFFFFFFFFFFFFFFFFFF AND SWAP1 POP DUP2 PUSH1 0x0 DUP1 PUSH2 0x100 EXP DUP2 SLOAD DUP2 PUSH20 0xFFFFFFFFFFFFFFFFFFFFFFFFFFFFFFFFFFFFFFFF MUL NOT AND SWAP1 DUP4 PUSH20 0xFFFFFFFFFFFFFFFFFFFFFFFFFFFFFFFFFFFFFFFF AND MUL OR SWAP1 SSTORE POP DUP2 PUSH20 0xFFFFFFFFFFFFFFFFFFFFFFFFFFFFFFFFFFFFFFFF AND DUP2 PUSH20 0xFFFFFFFFFFFFFFFFFFFFFFFFFFFFFFFFFFFFFFFF AND PUSH32 0x8BE0079C531659141344CD1FD0A4F28419497F9722A3DAAFE3B4186F6B6457E0 PUSH1 0x40 MLOAD PUSH1 0x40 MLOAD DUP1 SWAP2 SUB SWAP1 LOG3 POP POP JUMP JUMPDEST PUSH1 0x0 DUP1 REVERT JUMPDEST PUSH1 0x0 PUSH20 0xFFFFFFFFFFFFFFFFFFFFFFFFFFFFFFFFFFFFFFFF DUP3 AND SWAP1 POP SWAP2 SWAP1 POP JUMP JUMPDEST PUSH1 0x0 PUSH3 0x2C5 DUP3 PUSH3 0x298 JUMP JUMPDEST SWAP1 POP SWAP2 SWAP1 POP JUMP JUMPDEST PUSH3 0x2D7 DUP2 PUSH3 0x2B8 JUMP JUMPDEST DUP2 EQ PUSH3 0x2E3 JUMPI PUSH1 0x0 DUP1 REVERT JUMPDEST POP JUMP JUMPDEST PUSH1 0x0 DUP2 MLOAD SWAP1 POP PUSH3 0x2F7 DUP2 PUSH3 0x2CC JUMP JUMPDEST SWAP3 SWAP2 POP POP JUMP JUMPDEST PUSH1 0x0 DUP2 SWAP1 POP SWAP2 SWAP1 POP JUMP JUMPDEST PUSH3 0x312 DUP2 PUSH3 0x2FD JUMP JUMPDEST DUP2 EQ PUSH3 0x31E JUMPI PUSH1 0x0 DUP1 REVERT JUMPDEST POP JUMP JUMPDEST PUSH1 0x0 DUP2 MLOAD SWAP1 POP PUSH3 0x332 DUP2 PUSH3 0x307 JUMP JUMPDEST SWAP3 SWAP2 POP POP JUMP JUMPDEST PUSH1 0x0 DUP1 PUSH1 0x0 DUP1 PUSH1 0x80 DUP6 DUP8 SUB SLT ISZERO PUSH3 0x355 JUMPI PUSH3 0x354 PUSH3 0x293 JUMP JUMPDEST JUMPDEST PUSH1 0x0 PUSH3 0x365 DUP8 DUP3 DUP9 ADD PUSH3 0x2E6 JUMP JUMPDEST SWAP5 POP POP PUSH1 0x20 PUSH3 0x378 DUP8 DUP3 DUP9 ADD PUSH3 0x321 JUMP JUMPDEST SWAP4 POP POP PUSH1 0x40 PUSH3 0x38B DUP8 DUP3 DUP9 ADD PUSH3 0x321 JUMP JUMPDEST SWAP3 POP POP PUSH1 0x60 PUSH3 0x39E DUP8 DUP3 DUP9 ADD PUSH3 0x321 JUMP JUMPDEST SWAP2 POP POP SWAP3 SWAP6 SWAP2 SWAP5 POP SWAP3 POP JUMP JUMPDEST PUSH1 0x0 DUP2 MLOAD SWAP1 POP SWAP2 SWAP1 POP JUMP JUMPDEST PUSH32 0x4E487B7100000000000000000000000000000000000000000000000000000000 PUSH1 0x0 MSTORE PUSH1 0x41 PUSH1 0x4 MSTORE PUSH1 0x24 PUSH1 0x0 REVERT JUMPDEST PUSH32 0x4E487B7100000000000000000000000000000000000000000000000000000000 PUSH1 0x0 MSTORE PUSH1 0x22 PUSH1 0x4 MSTORE PUSH1 0x24 PUSH1 0x0 REVERT JUMPDEST PUSH1 0x0 PUSH1 0x2 DUP3 DIV SWAP1 POP PUSH1 0x1 DUP3 AND DUP1 PUSH3 0x42C JUMPI PUSH1 0x7F DUP3 AND SWAP2 POP JUMPDEST PUSH1 0x20 DUP3 LT DUP2 SUB PUSH3 0x442 JUMPI PUSH3 0x441 PUSH3 0x3E4 JUMP JUMPDEST JUMPDEST POP SWAP2 SWAP1 POP JUMP JUMPDEST PUSH1 0x0 DUP2 SWAP1 POP DUP2 PUSH1 0x0 MSTORE PUSH1 0x20 PUSH1 0x0 KECCAK256 SWAP1 POP SWAP2 SWAP1 POP JUMP JUMPDEST PUSH1 0x0 PUSH1 0x20 PUSH1 0x1F DUP4 ADD DIV SWAP1 POP SWAP2 SWAP1 POP JUMP JUMPDEST PUSH1 0x0 DUP3 DUP3 SHL SWAP1 POP SWAP3 SWAP2 POP POP JUMP JUMPDEST PUSH1 0x0 PUSH1 0x8 DUP4 MUL PUSH3 0x4AC PUSH32 0xFFFFFFFFFFFFFFFFFFFFFFFFFFFFFFFFFFFFFFFFFFFFFFFFFFFFFFFFFFFFFFFF DUP3 PUSH3 0x46D JUMP JUMPDEST PUSH3 0x4B8 DUP7 DUP4 PUSH3 0x46D JUMP JUMPDEST SWAP6 POP DUP1 NOT DUP5 AND SWAP4 POP DUP1 DUP7 AND DUP5 OR SWAP3 POP POP POP SWAP4 SWAP3 POP POP POP JUMP JUMPDEST PUSH1 0x0 DUP2 SWAP1 POP SWAP2 SWAP1 POP JUMP JUMPDEST PUSH1 0x0 PUSH3 0x4FB PUSH3 0x4F5 PUSH3 0x4EF DUP5 PUSH3 0x2FD JUMP JUMPDEST PUSH3 0x4D0 JUMP JUMPDEST PUSH3 0x2FD JUMP JUMPDEST SWAP1 POP SWAP2 SWAP1 POP JUMP JUMPDEST PUSH1 0x0 DUP2 SWAP1 POP SWAP2 SWAP1 POP JUMP JUMPDEST PUSH3 0x517 DUP4 PUSH3 0x4DA JUMP JUMPDEST PUSH3 0x52F PUSH3 0x526 DUP3 PUSH3 0x502 JUMP JUMPDEST DUP5 DUP5 SLOAD PUSH3 0x47A JUMP JUMPDEST DUP3 SSTORE POP POP POP POP JUMP JUMPDEST PUSH1 0x0 SWAP1 JUMP JUMPDEST PUSH3 0x546 PUSH3 0x537 JUMP JUMPDEST PUSH3 0x553 DUP2 DUP5 DUP5 PUSH3 0x50C JUMP JUMPDEST POP POP POP JUMP JUMPDEST JUMPDEST DUP2 DUP2 LT ISZERO PUSH3 0x57B JUMPI PUSH3 0x56F PUSH1 0x0 DUP3 PUSH3 0x53C JUMP JUMPDEST PUSH1 0x1 DUP2 ADD SWAP1 POP PUSH3 0x559 JUMP JUMPDEST POP POP JUMP JUMPDEST PUSH1 0x1F DUP3 GT ISZERO PUSH3 0x5CA JUMPI PUSH3 0x594 DUP2 PUSH3 0x448 JUMP JUMPDEST PUSH3 0x59F DUP5 PUSH3 0x45D JUMP JUMPDEST DUP2 ADD PUSH1 0x20 DUP6 LT ISZERO PUSH3 0x5AF JUMPI DUP2 SWAP1 POP JUMPDEST PUSH3 0x5C7 PUSH3 0x5BE DUP6 PUSH3 0x45D JUMP JUMPDEST DUP4 ADD DUP3 PUSH3 0x558 JUMP JUMPDEST POP POP JUMPDEST POP POP POP JUMP JUMPDEST PUSH1 0x0 DUP3 DUP3 SHR SWAP1 POP SWAP3 SWAP2 POP POP JUMP JUMPDEST PUSH1 0x0 PUSH3 0x5EF PUSH1 0x0 NOT DUP5 PUSH1 0x8 MUL PUSH3 0x5CF JUMP JUMPDEST NOT DUP1 DUP4 AND SWAP2 POP POP SWAP3 SWAP2 POP POP JUMP JUMPDEST PUSH1 0x0 PUSH3 0x60A DUP4 DUP4 PUSH3 0x5DC JUMP JUMPDEST SWAP2 POP DUP3 PUSH1 0x2 MUL DUP3 OR SWAP1 POP SWAP3 SWAP2 POP POP JUMP JUMPDEST PUSH3 0x625 DUP3 PUSH3 0x3AA JUMP JUMPDEST PUSH8 0xFFFFFFFFFFFFFFFF DUP2 GT ISZERO PUSH3 0x641 JUMPI PUSH3 0x640 PUSH3 0x3B5 JUMP JUMPDEST JUMPDEST PUSH3 0x64D DUP3 SLOAD PUSH3 0x413 JUMP JUMPDEST PUSH3 0x65A DUP3 DUP3 DUP6 PUSH3 0x57F JUMP JUMPDEST PUSH1 0x0 PUSH1 0x20 SWAP1 POP PUSH1 0x1F DUP4 GT PUSH1 0x1 DUP2 EQ PUSH3 0x692 JUMPI PUSH1 0x0 DUP5 ISZERO PUSH3 0x67D JUMPI DUP3 DUP8 ADD MLOAD SWAP1 POP JUMPDEST PUSH3 0x689 DUP6 DUP3 PUSH3 0x5FC JUMP JUMPDEST DUP7 SSTORE POP PUSH3 0x6F9 JUMP JUMPDEST PUSH1 0x1F NOT DUP5 AND PUSH3 0x6A2 DUP7 PUSH3 0x448 JUMP JUMPDEST PUSH1 0x0 JUMPDEST DUP3 DUP2 LT ISZERO PUSH3 0x6CC JUMPI DUP5 DUP10 ADD MLOAD DUP3 SSTORE PUSH1 0x1 DUP3 ADD SWAP2 POP PUSH1 0x20 DUP6 ADD SWAP5 POP PUSH1 0x20 DUP2 ADD SWAP1 POP PUSH3 0x6A5 JUMP JUMPDEST DUP7 DUP4 LT ISZERO PUSH3 0x6EC JUMPI DUP5 DUP10 ADD MLOAD PUSH3 0x6E8 PUSH1 0x1F DUP10 AND DUP3 PUSH3 0x5DC JUMP JUMPDEST DUP4 SSTORE POP JUMPDEST PUSH1 0x1 PUSH1 0x2 DUP9 MUL ADD DUP9 SSTORE POP POP POP JUMPDEST POP POP POP POP POP POP JUMP JUMPDEST PUSH2 0x587E DUP1 PUSH3 0x711 PUSH1 0x0 CODECOPY PUSH1 0x0 RETURN INVALID PUSH1 0x80 PUSH1 0x40 MSTORE CALLVALUE DUP1 ISZERO PUSH2 0x10 JUMPI PUSH1 0x0 DUP1 REVERT JUMPDEST POP PUSH1 0x4 CALLDATASIZE LT PUSH2 0x1FB JUMPI PUSH1 0x0 CALLDATALOAD PUSH1 0xE0 SHR DUP1 PUSH4 0x7B2F247F GT PUSH2 0x11A JUMPI DUP1 PUSH4 0xB6840D6E GT PUSH2 0xAD JUMPI DUP1 PUSH4 0xD47C9613 GT PUSH2 0x7C JUMPI DUP1 PUSH4 0xD47C9613 EQ PUSH2 0x5B0 JUMPI DUP1 PUSH4 0xE27FD8EC EQ PUSH2 0x5E0 JUMPI DUP1 PUSH4 0xE88CC2BE EQ PUSH2 0x610 JUMPI DUP1 PUSH4 0xE985E9C5 EQ PUSH2 0x649 JUMPI DUP1 PUSH4 0xF2FDE38B EQ PUSH2 0x679 JUMPI PUSH2 0x1FB JUMP JUMPDEST DUP1 PUSH4 0xB6840D6E EQ PUSH2 0x518 JUMPI DUP1 PUSH4 0xB88D4FDE EQ PUSH2 0x548 JUMPI DUP1 PUSH4 0xC0CD40EE EQ PUSH2 0x564 JUMPI DUP1 PUSH4 0xC87B56DD EQ PUSH2 0x580 JUMPI PUSH2 0x1FB JUMP JUMPDEST DUP1 PUSH4 0xA3AF609B GT PUSH2 0xE9 JUMPI DUP1 PUSH4 0xA3AF609B EQ PUSH2 0x4A4 JUMPI DUP1 PUSH4 0xA6021ACE EQ PUSH2 0x4C0 JUMPI DUP1 PUSH4 0xA88E132F EQ PUSH2 0x4DE JUMPI DUP1 PUSH4 0xAA46A400 EQ PUSH2 0x4FA JUMPI PUSH2 0x1FB JUMP JUMPDEST DUP1 PUSH4 0x7B2F247F EQ PUSH2 0x42E JUMPI DUP1 PUSH4 0x8DA5CB5B EQ PUSH2 0x44C JUMPI DUP1 PUSH4 0x95D89B41 EQ PUSH2 0x46A JUMPI DUP1 PUSH4 0xA22CB465 EQ PUSH2 0x488 JUMPI PUSH2 0x1FB JUMP JUMPDEST DUP1 PUSH4 0x275BD33F GT PUSH2 0x192 JUMPI DUP1 PUSH4 0x57EA89B6 GT PUSH2 0x161 JUMPI DUP1 PUSH4 0x57EA89B6 EQ PUSH2 0x3BA JUMPI DUP1 PUSH4 0x6352211E EQ PUSH2 0x3C4 JUMPI DUP1 PUSH4 0x70A08231 EQ PUSH2 0x3F4 JUMPI DUP1 PUSH4 0x715018A6 EQ PUSH2 0x424 JUMPI PUSH2 0x1FB JUMP JUMPDEST DUP1 PUSH4 0x275BD33F EQ PUSH2 0x322 JUMPI DUP1 PUSH4 0x2FFCE210 EQ PUSH2 0x33E JUMPI DUP1 PUSH4 0x42842E0E EQ PUSH2 0x36E JUMPI DUP1 PUSH4 0x57488064 EQ PUSH2 0x38A JUMPI PUSH2 0x1FB JUMP JUMPDEST DUP1 PUSH4 0x95EA7B3 GT PUSH2 0x1CE JUMPI DUP1 PUSH4 0x95EA7B3 EQ PUSH2 0x2AE JUMPI DUP1 PUSH4 0xCCFF6E9 EQ PUSH2 0x2CA JUMPI DUP1 PUSH4 0x10FD4FBA EQ PUSH2 0x2E8 JUMPI DUP1 PUSH4 0x23B872DD EQ PUSH2 0x306 JUMPI PUSH2 0x1FB JUMP JUMPDEST DUP1 PUSH4 0x175EF11 EQ PUSH2 0x200 JUMPI DUP1 PUSH4 0x1FFC9A7 EQ PUSH2 0x230 JUMPI DUP1 PUSH4 0x6FDDE03 EQ PUSH2 0x260 JUMPI DUP1 PUSH4 0x81812FC EQ PUSH2 0x27E JUMPI JUMPDEST PUSH1 0x0 DUP1 REVERT JUMPDEST PUSH2 0x21A PUSH1 0x4 DUP1 CALLDATASIZE SUB DUP2 ADD SWAP1 PUSH2 0x215 SWAP2 SWAP1 PUSH2 0x3AA1 JUMP JUMPDEST PUSH2 0x695 JUMP JUMPDEST PUSH1 0x40 MLOAD PUSH2 0x227 SWAP2 SWAP1 PUSH2 0x3C0E JUMP JUMPDEST PUSH1 0x40 MLOAD DUP1 SWAP2 SUB SWAP1 RETURN JUMPDEST PUSH2 0x24A PUSH1 0x4 DUP1 CALLDATASIZE SUB DUP2 ADD SWAP1 PUSH2 0x245 SWAP2 SWAP1 PUSH2 0x3C88 JUMP JUMPDEST PUSH2 0x790 JUMP JUMPDEST PUSH1 0x40 MLOAD PUSH2 0x257 SWAP2 SWAP1 PUSH2 0x3CD0 JUMP JUMPDEST PUSH1 0x40 MLOAD DUP1 SWAP2 SUB SWAP1 RETURN JUMPDEST PUSH2 0x268 PUSH2 0x872 JUMP JUMPDEST PUSH1 0x40 MLOAD PUSH2 0x275 SWAP2 SWAP1 PUSH2 0x3C0E JUMP JUMPDEST PUSH1 0x40 MLOAD DUP1 SWAP2 SUB SWAP1 RETURN JUMPDEST PUSH2 0x298 PUSH1 0x4 DUP1 CALLDATASIZE SUB DUP2 ADD SWAP1 PUSH2 0x293 SWAP2 SWAP1 PUSH2 0x3CEB JUMP JUMPDEST PUSH2 0x904 JUMP JUMPDEST PUSH1 0x40 MLOAD PUSH2 0x2A5 SWAP2 SWAP1 PUSH2 0x3D27 JUMP JUMPDEST PUSH1 0x40 MLOAD DUP1 SWAP2 SUB SWAP1 RETURN JUMPDEST PUSH2 0x2C8 PUSH1 0x4 DUP1 CALLDATASIZE SUB DUP2 ADD SWAP1 PUSH2 0x2C3 SWAP2 SWAP1 PUSH2 0x3D42 JUMP JUMPDEST PUSH2 0x94A JUMP JUMPDEST STOP JUMPDEST PUSH2 0x2D2 PUSH2 0xA61 JUMP JUMPDEST PUSH1 0x40 MLOAD PUSH2 0x2DF SWAP2 SWAP1 PUSH2 0x3D91 JUMP JUMPDEST PUSH1 0x40 MLOAD DUP1 SWAP2 SUB SWAP1 RETURN JUMPDEST PUSH2 0x2F0 PUSH2 0xA67 JUMP JUMPDEST PUSH1 0x40 MLOAD PUSH2 0x2FD SWAP2 SWAP1 PUSH2 0x3D27 JUMP JUMPDEST PUSH1 0x40 MLOAD DUP1 SWAP2 SUB SWAP1 RETURN JUMPDEST PUSH2 0x320 PUSH1 0x4 DUP1 CALLDATASIZE SUB DUP2 ADD SWAP1 PUSH2 0x31B SWAP2 SWAP1 PUSH2 0x3DAC JUMP JUMPDEST PUSH2 0xA8D JUMP JUMPDEST STOP JUMPDEST PUSH2 0x33C PUSH1 0x4 DUP1 CALLDATASIZE SUB DUP2 ADD SWAP1 PUSH2 0x337 SWAP2 SWAP1 PUSH2 0x3DFF JUMP JUMPDEST PUSH2 0xAED JUMP JUMPDEST STOP JUMPDEST PUSH2 0x358 PUSH1 0x4 DUP1 CALLDATASIZE SUB DUP2 ADD SWAP1 PUSH2 0x353 SWAP2 SWAP1 PUSH2 0x3DFF JUMP JUMPDEST PUSH2 0xB39 JUMP JUMPDEST PUSH1 0x40 MLOAD PUSH2 0x365 SWAP2 SWAP1 PUSH2 0x3D91 JUMP JUMPDEST PUSH1 0x40 MLOAD DUP1 SWAP2 SUB SWAP1 RETURN JUMPDEST PUSH2 0x388 PUSH1 0x4 DUP1 CALLDATASIZE SUB DUP2 ADD SWAP1 PUSH2 0x383 SWAP2 SWAP1 PUSH2 0x3DAC JUMP JUMPDEST PUSH2 0xB51 JUMP JUMPDEST STOP JUMPDEST PUSH2 0x3A4 PUSH1 0x4 DUP1 CALLDATASIZE SUB DUP2 ADD SWAP1 PUSH2 0x39F SWAP2 SWAP1 PUSH2 0x3DFF JUMP JUMPDEST PUSH2 0xB71 JUMP JUMPDEST PUSH1 0x40 MLOAD PUSH2 0x3B1 SWAP2 SWAP1 PUSH2 0x3D91 JUMP JUMPDEST PUSH1 0x40 MLOAD DUP1 SWAP2 SUB SWAP1 RETURN JUMPDEST PUSH2 0x3C2 PUSH2 0xB89 JUMP JUMPDEST STOP JUMPDEST PUSH2 0x3DE PUSH1 0x4 DUP1 CALLDATASIZE SUB DUP2 ADD SWAP1 PUSH2 0x3D9 SWAP2 SWAP1 PUSH2 0x3CEB JUMP JUMPDEST PUSH2 0x1059 JUMP JUMPDEST PUSH1 0x40 MLOAD PUSH2 0x3EB SWAP2 SWAP1 PUSH2 0x3D27 JUMP JUMPDEST PUSH1 0x40 MLOAD DUP1 SWAP2 SUB SWAP1 RETURN JUMPDEST PUSH2 0x40E PUSH1 0x4 DUP1 CALLDATASIZE SUB DUP2 ADD SWAP1 PUSH2 0x409 SWAP2 SWAP1 PUSH2 0x3DFF JUMP JUMPDEST PUSH2 0x10DF JUMP JUMPDEST PUSH1 0x40 MLOAD PUSH2 0x41B SWAP2 SWAP1 PUSH2 0x3D91 JUMP JUMPDEST PUSH1 0x40 MLOAD DUP1 SWAP2 SUB SWAP1 RETURN JUMPDEST PUSH2 0x42C PUSH2 0x1196 JUMP JUMPDEST STOP JUMPDEST PUSH2 0x436 PUSH2 0x11AA JUMP JUMPDEST PUSH1 0x40 MLOAD PUSH2 0x443 SWAP2 SWAP1 PUSH2 0x3D91 JUMP JUMPDEST PUSH1 0x40 MLOAD DUP1 SWAP2 SUB SWAP1 RETURN JUMPDEST PUSH2 0x454 PUSH2 0x1218 JUMP JUMPDEST PUSH1 0x40 MLOAD PUSH2 0x461 SWAP2 SWAP1 PUSH2 0x3D27 JUMP JUMPDEST PUSH1 0x40 MLOAD DUP1 SWAP2 SUB SWAP1 RETURN JUMPDEST PUSH2 0x472 PUSH2 0x1241 JUMP JUMPDEST PUSH1 0x40 MLOAD PUSH2 0x47F SWAP2 SWAP1 PUSH2 0x3C0E JUMP JUMPDEST PUSH1 0x40 MLOAD DUP1 SWAP2 SUB SWAP1 RETURN JUMPDEST PUSH2 0x4A2 PUSH1 0x4 DUP1 CALLDATASIZE SUB DUP2 ADD SWAP1 PUSH2 0x49D SWAP2 SWAP1 PUSH2 0x3E58 JUMP JUMPDEST PUSH2 0x12D3 JUMP JUMPDEST STOP JUMPDEST PUSH2 0x4BE PUSH1 0x4 DUP1 CALLDATASIZE SUB DUP2 ADD SWAP1 PUSH2 0x4B9 SWAP2 SWAP1 PUSH2 0x3E98 JUMP JUMPDEST PUSH2 0x12E9 JUMP JUMPDEST STOP JUMPDEST PUSH2 0x4C8 PUSH2 0x1717 JUMP JUMPDEST PUSH1 0x40 MLOAD PUSH2 0x4D5 SWAP2 SWAP1 PUSH2 0x3D27 JUMP JUMPDEST PUSH1 0x40 MLOAD DUP1 SWAP2 SUB SWAP1 RETURN JUMPDEST PUSH2 0x4F8 PUSH1 0x4 DUP1 CALLDATASIZE SUB DUP2 ADD SWAP1 PUSH2 0x4F3 SWAP2 SWAP1 PUSH2 0x3CEB JUMP JUMPDEST PUSH2 0x173D JUMP JUMPDEST STOP JUMPDEST PUSH2 0x502 PUSH2 0x181A JUMP JUMPDEST PUSH1 0x40 MLOAD PUSH2 0x50F SWAP2 SWAP1 PUSH2 0x3D91 JUMP JUMPDEST PUSH1 0x40 MLOAD DUP1 SWAP2 SUB SWAP1 RETURN JUMPDEST PUSH2 0x532 PUSH1 0x4 DUP1 CALLDATASIZE SUB DUP2 ADD SWAP1 PUSH2 0x52D SWAP2 SWAP1 PUSH2 0x3DFF JUMP JUMPDEST PUSH2 0x1826 JUMP JUMPDEST PUSH1 0x40 MLOAD PUSH2 0x53F SWAP2 SWAP1 PUSH2 0x3D91 JUMP JUMPDEST PUSH1 0x40 MLOAD DUP1 SWAP2 SUB SWAP1 RETURN JUMPDEST PUSH2 0x562 PUSH1 0x4 DUP1 CALLDATASIZE SUB DUP2 ADD SWAP1 PUSH2 0x55D SWAP2 SWAP1 PUSH2 0x3F79 JUMP JUMPDEST PUSH2 0x183E JUMP JUMPDEST STOP JUMPDEST PUSH2 0x57E PUSH1 0x4 DUP1 CALLDATASIZE SUB DUP2 ADD SWAP1 PUSH2 0x579 SWAP2 SWAP1 PUSH2 0x3CEB JUMP JUMPDEST PUSH2 0x18A0 JUMP JUMPDEST STOP JUMPDEST PUSH2 0x59A PUSH1 0x4 DUP1 CALLDATASIZE SUB DUP2 ADD SWAP1 PUSH2 0x595 SWAP2 SWAP1 PUSH2 0x3CEB JUMP JUMPDEST PUSH2 0x1A0F JUMP JUMPDEST PUSH1 0x40 MLOAD PUSH2 0x5A7 SWAP2 SWAP1 PUSH2 0x3C0E JUMP JUMPDEST PUSH1 0x40 MLOAD DUP1 SWAP2 SUB SWAP1 RETURN JUMPDEST PUSH2 0x5CA PUSH1 0x4 DUP1 CALLDATASIZE SUB DUP2 ADD SWAP1 PUSH2 0x5C5 SWAP2 SWAP1 PUSH2 0x3E98 JUMP JUMPDEST PUSH2 0x1B21 JUMP JUMPDEST PUSH1 0x40 MLOAD PUSH2 0x5D7 SWAP2 SWAP1 PUSH2 0x3D91 JUMP JUMPDEST PUSH1 0x40 MLOAD DUP1 SWAP2 SUB SWAP1 RETURN JUMPDEST PUSH2 0x5FA PUSH1 0x4 DUP1 CALLDATASIZE SUB DUP2 ADD SWAP1 PUSH2 0x5F5 SWAP2 SWAP1 PUSH2 0x3CEB JUMP JUMPDEST PUSH2 0x1B59 JUMP JUMPDEST PUSH1 0x40 MLOAD PUSH2 0x607 SWAP2 SWAP1 PUSH2 0x3D91 JUMP JUMPDEST PUSH1 0x40 MLOAD DUP1 SWAP2 SUB SWAP1 RETURN JUMPDEST PUSH2 0x62A PUSH1 0x4 DUP1 CALLDATASIZE SUB DUP2 ADD SWAP1 PUSH2 0x625 SWAP2 SWAP1 PUSH2 0x3DFF JUMP JUMPDEST PUSH2 0x1B71 JUMP JUMPDEST PUSH1 0x40 MLOAD PUSH2 0x640 SWAP11 SWAP10 SWAP9 SWAP8 SWAP7 SWAP6 SWAP5 SWAP4 SWAP3 SWAP2 SWAP1 PUSH2 0x3FFC JUMP JUMPDEST PUSH1 0x40 MLOAD DUP1 SWAP2 SUB SWAP1 RETURN JUMPDEST PUSH2 0x663 PUSH1 0x4 DUP1 CALLDATASIZE SUB DUP2 ADD SWAP1 PUSH2 0x65E SWAP2 SWAP1 PUSH2 0x40A6 JUMP JUMPDEST PUSH2 0x1D22 JUMP JUMPDEST PUSH1 0x40 MLOAD PUSH2 0x670 SWAP2 SWAP1 PUSH2 0x3CD0 JUMP JUMPDEST PUSH1 0x40 MLOAD DUP1 SWAP2 SUB SWAP1 RETURN JUMPDEST PUSH2 0x693 PUSH1 0x4 DUP1 CALLDATASIZE SUB DUP2 ADD SWAP1 PUSH2 0x68E SWAP2 SWAP1 PUSH2 0x3DFF JUMP JUMPDEST PUSH2 0x1DB6 JUMP JUMPDEST STOP JUMPDEST PUSH1 0x60 PUSH1 0x0 PUSH2 0x6A2 DUP11 PUSH2 0x1E39 JUMP JUMPDEST SWAP1 POP PUSH1 0x0 PUSH2 0x6AF DUP11 PUSH2 0x1E39 JUMP JUMPDEST SWAP1 POP PUSH1 0x0 PUSH2 0x6BC DUP11 PUSH2 0x1E39 JUMP JUMPDEST SWAP1 POP PUSH1 0x0 PUSH2 0x6E1 DUP11 PUSH20 0xFFFFFFFFFFFFFFFFFFFFFFFFFFFFFFFFFFFFFFFF AND PUSH1 0x14 PUSH2 0x1F07 JUMP JUMPDEST SWAP1 POP PUSH1 0x0 PUSH2 0x706 DUP11 PUSH20 0xFFFFFFFFFFFFFFFFFFFFFFFFFFFFFFFFFFFFFFFF AND PUSH1 0x14 PUSH2 0x1F07 JUMP JUMPDEST SWAP1 POP PUSH1 0x0 PUSH2 0x713 DUP9 PUSH2 0x1E39 JUMP JUMPDEST SWAP1 POP PUSH1 0x0 DUP11 SWAP1 POP PUSH1 0x0 DUP11 SWAP1 POP PUSH1 0x0 PUSH2 0x757 DUP10 DUP10 DUP10 DUP10 DUP10 DUP9 DUP9 DUP12 PUSH1 0x40 MLOAD PUSH1 0x20 ADD PUSH2 0x743 SWAP9 SWAP8 SWAP7 SWAP6 SWAP5 SWAP4 SWAP3 SWAP2 SWAP1 PUSH2 0x4570 JUMP JUMPDEST PUSH1 0x40 MLOAD PUSH1 0x20 DUP2 DUP4 SUB SUB DUP2 MSTORE SWAP1 PUSH1 0x40 MSTORE PUSH2 0x2143 JUMP JUMPDEST PUSH1 0x40 MLOAD PUSH1 0x20 ADD PUSH2 0x767 SWAP2 SWAP1 PUSH2 0x4691 JUMP JUMPDEST PUSH1 0x40 MLOAD PUSH1 0x20 DUP2 DUP4 SUB SUB DUP2 MSTORE SWAP1 PUSH1 0x40 MSTORE SWAP1 POP DUP1 SWAP10 POP POP POP POP POP POP POP POP POP POP SWAP9 SWAP8 POP POP POP POP POP POP POP POP JUMP JUMPDEST PUSH1 0x0 PUSH32 0x80AC58CD00000000000000000000000000000000000000000000000000000000 PUSH28 0xFFFFFFFFFFFFFFFFFFFFFFFFFFFFFFFFFFFFFFFFFFFFFFFFFFFFFFFF NOT AND DUP3 PUSH28 0xFFFFFFFFFFFFFFFFFFFFFFFFFFFFFFFFFFFFFFFFFFFFFFFFFFFFFFFF NOT AND EQ DUP1 PUSH2 0x85B JUMPI POP PUSH32 0x5B5E139F00000000000000000000000000000000000000000000000000000000 PUSH28 0xFFFFFFFFFFFFFFFFFFFFFFFFFFFFFFFFFFFFFFFFFFFFFFFFFFFFFFFF NOT AND DUP3 PUSH28 0xFFFFFFFFFFFFFFFFFFFFFFFFFFFFFFFFFFFFFFFFFFFFFFFFFFFFFFFF NOT AND EQ JUMPDEST DUP1 PUSH2 0x86B JUMPI POP PUSH2 0x86A DUP3 PUSH2 0x22DA JUMP JUMPDEST JUMPDEST SWAP1 POP SWAP2 SWAP1 POP JUMP JUMPDEST PUSH1 0x60 PUSH1 0x1 DUP1 SLOAD PUSH2 0x881 SWAP1 PUSH2 0x46E2 JUMP JUMPDEST DUP1 PUSH1 0x1F ADD PUSH1 0x20 DUP1 SWAP2 DIV MUL PUSH1 0x20 ADD PUSH1 0x40 MLOAD SWAP1 DUP2 ADD PUSH1 0x40 MSTORE DUP1 SWAP3 SWAP2 SWAP1 DUP2 DUP2 MSTORE PUSH1 0x20 ADD DUP3 DUP1 SLOAD PUSH2 0x8AD SWAP1 PUSH2 0x46E2 JUMP JUMPDEST DUP1 ISZERO PUSH2 0x8FA JUMPI DUP1 PUSH1 0x1F LT PUSH2 0x8CF JUMPI PUSH2 0x100 DUP1 DUP4 SLOAD DIV MUL DUP4 MSTORE SWAP2 PUSH1 0x20 ADD SWAP2 PUSH2 0x8FA JUMP JUMPDEST DUP3 ADD SWAP2 SWAP1 PUSH1 0x0 MSTORE PUSH1 0x20 PUSH1 0x0 KECCAK256 SWAP1 JUMPDEST DUP2 SLOAD DUP2 MSTORE SWAP1 PUSH1 0x1 ADD SWAP1 PUSH1 0x20 ADD DUP1 DUP4 GT PUSH2 0x8DD JUMPI DUP3 SWAP1 SUB PUSH1 0x1F AND DUP3 ADD SWAP2 JUMPDEST POP POP POP POP POP SWAP1 POP SWAP1 JUMP JUMPDEST PUSH1 0x0 PUSH2 0x90F DUP3 PUSH2 0x2344 JUMP JUMPDEST PUSH1 0x5 PUSH1 0x0 DUP4 DUP2 MSTORE PUSH1 0x20 ADD SWAP1 DUP2 MSTORE PUSH1 0x20 ADD PUSH1 0x0 KECCAK256 PUSH1 0x0 SWAP1 SLOAD SWAP1 PUSH2 0x100 EXP SWAP1 DIV PUSH20 0xFFFFFFFFFFFFFFFFFFFFFFFFFFFFFFFFFFFFFFFF AND SWAP1 POP SWAP2 SWAP1 POP JUMP JUMPDEST PUSH1 0x0 PUSH2 0x955 DUP3 PUSH2 0x1059 JUMP JUMPDEST SWAP1 POP DUP1 PUSH20 0xFFFFFFFFFFFFFFFFFFFFFFFFFFFFFFFFFFFFFFFF AND DUP4 PUSH20 0xFFFFFFFFFFFFFFFFFFFFFFFFFFFFFFFFFFFFFFFF AND SUB PUSH2 0x9C5 JUMPI PUSH1 0x40 MLOAD PUSH32 0x8C379A000000000000000000000000000000000000000000000000000000000 DUP2 MSTORE PUSH1 0x4 ADD PUSH2 0x9BC SWAP1 PUSH2 0x4785 JUMP JUMPDEST PUSH1 0x40 MLOAD DUP1 SWAP2 SUB SWAP1 REVERT JUMPDEST DUP1 PUSH20 0xFFFFFFFFFFFFFFFFFFFFFFFFFFFFFFFFFFFFFFFF AND PUSH2 0x9E4 PUSH2 0x238F JUMP JUMPDEST PUSH20 0xFFFFFFFFFFFFFFFFFFFFFFFFFFFFFFFFFFFFFFFF AND EQ DUP1 PUSH2 0xA13 JUMPI POP PUSH2 0xA12 DUP2 PUSH2 0xA0D PUSH2 0x238F JUMP JUMPDEST PUSH2 0x1D22 JUMP JUMPDEST JUMPDEST PUSH2 0xA52 JUMPI PUSH1 0x40 MLOAD PUSH32 0x8C379A000000000000000000000000000000000000000000000000000000000 DUP2 MSTORE PUSH1 0x4 ADD PUSH2 0xA49 SWAP1 PUSH2 0x4817 JUMP JUMPDEST PUSH1 0x40 MLOAD DUP1 SWAP2 SUB SWAP1 REVERT JUMPDEST PUSH2 0xA5C DUP4 DUP4 PUSH2 0x2397 JUMP JUMPDEST POP POP POP JUMP JUMPDEST PUSH1 0xC SLOAD DUP2 JUMP JUMPDEST PUSH1 0x9 PUSH1 0x0 SWAP1 SLOAD SWAP1 PUSH2 0x100 EXP SWAP1 DIV PUSH20 0xFFFFFFFFFFFFFFFFFFFFFFFFFFFFFFFFFFFFFFFF AND DUP2 JUMP JUMPDEST PUSH2 0xA9E PUSH2 0xA98 PUSH2 0x238F JUMP JUMPDEST DUP3 PUSH2 0x2450 JUMP JUMPDEST PUSH2 0xADD JUMPI PUSH1 0x40 MLOAD PUSH32 0x8C379A000000000000000000000000000000000000000000000000000000000 DUP2 MSTORE PUSH1 0x4 ADD PUSH2 0xAD4 SWAP1 PUSH2 0x48A9 JUMP JUMPDEST PUSH1 0x40 MLOAD DUP1 SWAP2 SUB SWAP1 REVERT JUMPDEST PUSH2 0xAE8 DUP4 DUP4 DUP4 PUSH2 0x24E5 JUMP JUMPDEST POP POP POP JUMP JUMPDEST PUSH2 0xAF5 PUSH2 0x27DE JUMP JUMPDEST DUP1 PUSH1 0xA PUSH1 0x0 PUSH2 0x100 EXP DUP2 SLOAD DUP2 PUSH20 0xFFFFFFFFFFFFFFFFFFFFFFFFFFFFFFFFFFFFFFFF MUL NOT AND SWAP1 DUP4 PUSH20 0xFFFFFFFFFFFFFFFFFFFFFFFFFFFFFFFFFFFFFFFF AND MUL OR SWAP1 SSTORE POP POP JUMP JUMPDEST PUSH1 0xF PUSH1 0x20 MSTORE DUP1 PUSH1 0x0 MSTORE PUSH1 0x40 PUSH1 0x0 KECCAK256 PUSH1 0x0 SWAP2 POP SWAP1 POP SLOAD DUP2 JUMP JUMPDEST PUSH2 0xB6C DUP4 DUP4 DUP4 PUSH1 0x40 MLOAD DUP1 PUSH1 0x20 ADD PUSH1 0x40 MSTORE DUP1 PUSH1 0x0 DUP2 MSTORE POP PUSH2 0x183E JUMP JUMPDEST POP POP POP JUMP JUMPDEST PUSH1 0xE PUSH1 0x20 MSTORE DUP1 PUSH1 0x0 MSTORE PUSH1 0x40 PUSH1 0x0 KECCAK256 PUSH1 0x0 SWAP2 POP SWAP1 POP SLOAD DUP2 JUMP JUMPDEST PUSH1 0xD PUSH1 0x0 CALLER PUSH20 0xFFFFFFFFFFFFFFFFFFFFFFFFFFFFFFFFFFFFFFFF AND PUSH20 0xFFFFFFFFFFFFFFFFFFFFFFFFFFFFFFFFFFFFFFFF AND DUP2 MSTORE PUSH1 0x20 ADD SWAP1 DUP2 MSTORE PUSH1 0x20 ADD PUSH1 0x0 KECCAK256 PUSH1 0x9 ADD PUSH1 0x0 SWAP1 SLOAD SWAP1 PUSH2 0x100 EXP SWAP1 DIV PUSH1 0xFF AND PUSH2 0xC18 JUMPI PUSH1 0x40 MLOAD PUSH32 0x8C379A000000000000000000000000000000000000000000000000000000000 DUP2 MSTORE PUSH1 0x4 ADD PUSH2 0xC0F SWAP1 PUSH2 0x4915 JUMP JUMPDEST PUSH1 0x40 MLOAD DUP1 SWAP2 SUB SWAP1 REVERT JUMPDEST PUSH1 0xD PUSH1 0x0 CALLER PUSH20 0xFFFFFFFFFFFFFFFFFFFFFFFFFFFFFFFFFFFFFFFF AND PUSH20 0xFFFFFFFFFFFFFFFFFFFFFFFFFFFFFFFFFFFFFFFF AND DUP2 MSTORE PUSH1 0x20 ADD SWAP1 DUP2 MSTORE PUSH1 0x20 ADD PUSH1 0x0 KECCAK256 PUSH1 0x1 ADD SLOAD PUSH1 0xB SLOAD PUSH2 0xC68 SWAP2 SWAP1 PUSH2 0x4964 JUMP JUMPDEST PUSH1 0xD PUSH1 0x0 CALLER PUSH20 0xFFFFFFFFFFFFFFFFFFFFFFFFFFFFFFFFFFFFFFFF AND PUSH20 0xFFFFFFFFFFFFFFFFFFFFFFFFFFFFFFFFFFFFFFFF AND DUP2 MSTORE PUSH1 0x20 ADD SWAP1 DUP2 MSTORE PUSH1 0x20 ADD PUSH1 0x0 KECCAK256 PUSH1 0x8 ADD SLOAD TIMESTAMP PUSH2 0xCB6 SWAP2 SWAP1 PUSH2 0x49A6 JUMP JUMPDEST EQ PUSH2 0xCF6 JUMPI PUSH1 0x40 MLOAD PUSH32 0x8C379A000000000000000000000000000000000000000000000000000000000 DUP2 MSTORE PUSH1 0x4 ADD PUSH2 0xCED SWAP1 PUSH2 0x4A26 JUMP JUMPDEST PUSH1 0x40 MLOAD DUP1 SWAP2 SUB SWAP1 REVERT JUMPDEST PUSH1 0xA PUSH1 0x0 SWAP1 SLOAD SWAP1 PUSH2 0x100 EXP SWAP1 DIV PUSH20 0xFFFFFFFFFFFFFFFFFFFFFFFFFFFFFFFFFFFFFFFF AND PUSH20 0xFFFFFFFFFFFFFFFFFFFFFFFFFFFFFFFFFFFFFFFF AND PUSH4 0xA9059CBB CALLER PUSH1 0xD PUSH1 0x0 CALLER PUSH20 0xFFFFFFFFFFFFFFFFFFFFFFFFFFFFFFFFFFFFFFFF AND PUSH20 0xFFFFFFFFFFFFFFFFFFFFFFFFFFFFFFFFFFFFFFFF AND DUP2 MSTORE PUSH1 0x20 ADD SWAP1 DUP2 MSTORE PUSH1 0x20 ADD PUSH1 0x0 KECCAK256 PUSH1 0x7 ADD SLOAD PUSH1 0x40 MLOAD DUP4 PUSH4 0xFFFFFFFF AND PUSH1 0xE0 SHL DUP2 MSTORE PUSH1 0x4 ADD PUSH2 0xD95 SWAP3 SWAP2 SWAP1 PUSH2 0x4A46 JUMP JUMPDEST PUSH1 0x20 PUSH1 0x40 MLOAD DUP1 DUP4 SUB DUP2 PUSH1 0x0 DUP8 GAS CALL ISZERO DUP1 ISZERO PUSH2 0xDB4 JUMPI RETURNDATASIZE PUSH1 0x0 DUP1 RETURNDATACOPY RETURNDATASIZE PUSH1 0x0 REVERT JUMPDEST POP POP POP POP PUSH1 0x40 MLOAD RETURNDATASIZE PUSH1 0x1F NOT PUSH1 0x1F DUP3 ADD AND DUP3 ADD DUP1 PUSH1 0x40 MSTORE POP DUP2 ADD SWAP1 PUSH2 0xDD8 SWAP2 SWAP1 PUSH2 0x4A84 JUMP JUMPDEST POP PUSH1 0xD PUSH1 0x0 CALLER PUSH20 0xFFFFFFFFFFFFFFFFFFFFFFFFFFFFFFFFFFFFFFFF AND PUSH20 0xFFFFFFFFFFFFFFFFFFFFFFFFFFFFFFFFFFFFFFFF AND DUP2 MSTORE PUSH1 0x20 ADD SWAP1 DUP2 MSTORE PUSH1 0x20 ADD PUSH1 0x0 KECCAK256 PUSH1 0x0 ADD SLOAD PUSH1 0xD PUSH1 0x0 CALLER PUSH20 0xFFFFFFFFFFFFFFFFFFFFFFFFFFFFFFFFFFFFFFFF AND PUSH20 0xFFFFFFFFFFFFFFFFFFFFFFFFFFFFFFFFFFFFFFFF AND DUP2 MSTORE PUSH1 0x20 ADD SWAP1 DUP2 MSTORE PUSH1 0x20 ADD PUSH1 0x0 KECCAK256 PUSH1 0x7 ADD SLOAD PUSH2 0xE69 SWAP2 SWAP1 PUSH2 0x49A6 JUMP JUMPDEST PUSH1 0xF PUSH1 0x0 PUSH1 0x9 PUSH1 0x0 SWAP1 SLOAD SWAP1 PUSH2 0x100 EXP SWAP1 DIV PUSH20 0xFFFFFFFFFFFFFFFFFFFFFFFFFFFFFFFFFFFFFFFF AND PUSH20 0xFFFFFFFFFFFFFFFFFFFFFFFFFFFFFFFFFFFFFFFF AND PUSH20 0xFFFFFFFFFFFFFFFFFFFFFFFFFFFFFFFFFFFFFFFF AND DUP2 MSTORE PUSH1 0x20 ADD SWAP1 DUP2 MSTORE PUSH1 0x20 ADD PUSH1 0x0 KECCAK256 PUSH1 0x0 DUP3 DUP3 SLOAD PUSH2 0xED9 SWAP2 SWAP1 PUSH2 0x49A6 JUMP JUMPDEST SWAP3 POP POP DUP2 SWAP1 SSTORE POP PUSH2 0xF28 PUSH1 0x11 PUSH1 0x0 CALLER PUSH20 0xFFFFFFFFFFFFFFFFFFFFFFFFFFFFFFFFFFFFFFFF AND PUSH20 0xFFFFFFFFFFFFFFFFFFFFFFFFFFFFFFFFFFFFFFFF AND DUP2 MSTORE PUSH1 0x20 ADD SWAP1 DUP2 MSTORE PUSH1 0x20 ADD PUSH1 0x0 KECCAK256 SLOAD PUSH2 0x285C JUMP JUMPDEST PUSH1 0x11 PUSH1 0x0 CALLER PUSH20 0xFFFFFFFFFFFFFFFFFFFFFFFFFFFFFFFFFFFFFFFF AND PUSH20 0xFFFFFFFFFFFFFFFFFFFFFFFFFFFFFFFFFFFFFFFF AND DUP2 MSTORE PUSH1 0x20 ADD SWAP1 DUP2 MSTORE PUSH1 0x20 ADD PUSH1 0x0 KECCAK256 PUSH1 0x0 SWAP1 SSTORE PUSH1 0xD PUSH1 0x0 CALLER PUSH20 0xFFFFFFFFFFFFFFFFFFFFFFFFFFFFFFFFFFFFFFFF AND PUSH20 0xFFFFFFFFFFFFFFFFFFFFFFFFFFFFFFFFFFFFFFFF AND DUP2 MSTORE PUSH1 0x20 ADD SWAP1 DUP2 MSTORE PUSH1 0x20 ADD PUSH1 0x0 KECCAK256 PUSH1 0x0 DUP1 DUP3 ADD PUSH1 0x0 SWAP1 SSTORE PUSH1 0x1 DUP3 ADD PUSH1 0x0 SWAP1 SSTORE PUSH1 0x2 DUP3 ADD PUSH1 0x0 SWAP1 SSTORE PUSH1 0x3 DUP3 ADD PUSH1 0x0 PUSH2 0x100 EXP DUP2 SLOAD SWAP1 PUSH20 0xFFFFFFFFFFFFFFFFFFFFFFFFFFFFFFFFFFFFFFFF MUL NOT AND SWAP1 SSTORE PUSH1 0x4 DUP3 ADD PUSH1 0x0 PUSH2 0x100 EXP DUP2 SLOAD SWAP1 PUSH20 0xFFFFFFFFFFFFFFFFFFFFFFFFFFFFFFFFFFFFFFFF MUL NOT AND SWAP1 SSTORE PUSH1 0x5 DUP3 ADD PUSH1 0x0 PUSH2 0x1021 SWAP2 SWAP1 PUSH2 0x3856 JUMP JUMPDEST PUSH1 0x6 DUP3 ADD PUSH1 0x0 PUSH2 0x1031 SWAP2 SWAP1 PUSH2 0x3856 JUMP JUMPDEST PUSH1 0x7 DUP3 ADD PUSH1 0x0 SWAP1 SSTORE PUSH1 0x8 DUP3 ADD PUSH1 0x0 SWAP1 SSTORE PUSH1 0x9 DUP3 ADD PUSH1 0x0 PUSH2 0x100 EXP DUP2 SLOAD SWAP1 PUSH1 0xFF MUL NOT AND SWAP1 SSTORE POP POP JUMP JUMPDEST PUSH1 0x0 DUP1 PUSH2 0x1065 DUP4 PUSH2 0x28AF JUMP JUMPDEST SWAP1 POP PUSH1 0x0 PUSH20 0xFFFFFFFFFFFFFFFFFFFFFFFFFFFFFFFFFFFFFFFF AND DUP2 PUSH20 0xFFFFFFFFFFFFFFFFFFFFFFFFFFFFFFFFFFFFFFFF AND SUB PUSH2 0x10D6 JUMPI PUSH1 0x40 MLOAD PUSH32 0x8C379A000000000000000000000000000000000000000000000000000000000 DUP2 MSTORE PUSH1 0x4 ADD PUSH2 0x10CD SWAP1 PUSH2 0x4AFD JUMP JUMPDEST PUSH1 0x40 MLOAD DUP1 SWAP2 SUB SWAP1 REVERT JUMPDEST DUP1 SWAP2 POP POP SWAP2 SWAP1 POP JUMP JUMPDEST PUSH1 0x0 DUP1 PUSH20 0xFFFFFFFFFFFFFFFFFFFFFFFFFFFFFFFFFFFFFFFF AND DUP3 PUSH20 0xFFFFFFFFFFFFFFFFFFFFFFFFFFFFFFFFFFFFFFFF AND SUB PUSH2 0x114F JUMPI PUSH1 0x40 MLOAD PUSH32 0x8C379A000000000000000000000000000000000000000000000000000000000 DUP2 MSTORE PUSH1 0x4 ADD PUSH2 0x1146 SWAP1 PUSH2 0x4B8F JUMP JUMPDEST PUSH1 0x40 MLOAD DUP1 SWAP2 SUB SWAP1 REVERT JUMPDEST PUSH1 0x4 PUSH1 0x0 DUP4 PUSH20 0xFFFFFFFFFFFFFFFFFFFFFFFFFFFFFFFFFFFFFFFF AND PUSH20 0xFFFFFFFFFFFFFFFFFFFFFFFFFFFFFFFFFFFFFFFF AND DUP2 MSTORE PUSH1 0x20 ADD SWAP1 DUP2 MSTORE PUSH1 0x20 ADD PUSH1 0x0 KECCAK256 SLOAD SWAP1 POP SWAP2 SWAP1 POP JUMP JUMPDEST PUSH2 0x119E PUSH2 0x27DE JUMP JUMPDEST PUSH2 0x11A8 PUSH1 0x0 PUSH2 0x28EC JUMP JUMPDEST JUMP JUMPDEST PUSH1 0x0 PUSH2 0x11B4 PUSH2 0x27DE JUMP JUMPDEST PUSH1 0x0 PUSH1 0xC SLOAD PUSH1 0x64 PUSH1 0xF PUSH1 0x0 CALLER PUSH20 0xFFFFFFFFFFFFFFFFFFFFFFFFFFFFFFFFFFFFFFFF AND PUSH20 0xFFFFFFFFFFFFFFFFFFFFFFFFFFFFFFFFFFFFFFFF AND DUP2 MSTORE PUSH1 0x20 ADD SWAP1 DUP2 MSTORE PUSH1 0x20 ADD PUSH1 0x0 KECCAK256 SLOAD PUSH2 0x1205 SWAP2 SWAP1 PUSH2 0x4964 JUMP JUMPDEST PUSH2 0x120F SWAP2 SWAP1 PUSH2 0x4BDE JUMP JUMPDEST SWAP1 POP DUP1 SWAP2 POP POP SWAP1 JUMP JUMPDEST PUSH1 0x0 DUP1 PUSH1 0x0 SWAP1 SLOAD SWAP1 PUSH2 0x100 EXP SWAP1 DIV PUSH20 0xFFFFFFFFFFFFFFFFFFFFFFFFFFFFFFFFFFFFFFFF AND SWAP1 POP SWAP1 JUMP JUMPDEST PUSH1 0x60 PUSH1 0x2 DUP1 SLOAD PUSH2 0x1250 SWAP1 PUSH2 0x46E2 JUMP JUMPDEST DUP1 PUSH1 0x1F ADD PUSH1 0x20 DUP1 SWAP2 DIV MUL PUSH1 0x20 ADD PUSH1 0x40 MLOAD SWAP1 DUP2 ADD PUSH1 0x40 MSTORE DUP1 SWAP3 SWAP2 SWAP1 DUP2 DUP2 MSTORE PUSH1 0x20 ADD DUP3 DUP1 SLOAD PUSH2 0x127C SWAP1 PUSH2 0x46E2 JUMP JUMPDEST DUP1 ISZERO PUSH2 0x12C9 JUMPI DUP1 PUSH1 0x1F LT PUSH2 0x129E JUMPI PUSH2 0x100 DUP1 DUP4 SLOAD DIV MUL DUP4 MSTORE SWAP2 PUSH1 0x20 ADD SWAP2 PUSH2 0x12C9 JUMP JUMPDEST DUP3 ADD SWAP2 SWAP1 PUSH1 0x0 MSTORE PUSH1 0x20 PUSH1 0x0 KECCAK256 SWAP1 JUMPDEST DUP2 SLOAD DUP2 MSTORE SWAP1 PUSH1 0x1 ADD SWAP1 PUSH1 0x20 ADD DUP1 DUP4 GT PUSH2 0x12AC JUMPI DUP3 SWAP1 SUB PUSH1 0x1F AND DUP3 ADD SWAP2 JUMPDEST POP POP POP POP POP SWAP1 POP SWAP1 JUMP JUMPDEST PUSH2 0x12E5 PUSH2 0x12DE PUSH2 0x238F JUMP JUMPDEST DUP4 DUP4 PUSH2 0x29B0 JUMP JUMPDEST POP POP JUMP JUMPDEST PUSH1 0xD PUSH1 0x0 CALLER PUSH20 0xFFFFFFFFFFFFFFFFFFFFFFFFFFFFFFFFFFFFFFFF AND PUSH20 0xFFFFFFFFFFFFFFFFFFFFFFFFFFFFFFFFFFFFFFFF AND DUP2 MSTORE PUSH1 0x20 ADD SWAP1 DUP2 MSTORE PUSH1 0x20 ADD PUSH1 0x0 KECCAK256 PUSH1 0x9 ADD PUSH1 0x0 SWAP1 SLOAD SWAP1 PUSH2 0x100 EXP SWAP1 DIV PUSH1 0xFF AND ISZERO PUSH2 0x1379 JUMPI PUSH1 0x40 MLOAD PUSH32 0x8C379A000000000000000000000000000000000000000000000000000000000 DUP2 MSTORE PUSH1 0x4 ADD PUSH2 0x1370 SWAP1 PUSH2 0x4C5B JUMP JUMPDEST PUSH1 0x40 MLOAD DUP1 SWAP2 SUB SWAP1 REVERT JUMPDEST PUSH8 0xDE0B6B3A7640000 DUP3 PUSH2 0x138D SWAP2 SWAP1 PUSH2 0x4964 JUMP JUMPDEST SWAP2 POP PUSH1 0x0 PUSH1 0x3 DUP3 SUB PUSH2 0x13B5 JUMPI PUSH1 0x10 PUSH1 0x0 PUSH1 0x1 DUP2 MSTORE PUSH1 0x20 ADD SWAP1 DUP2 MSTORE PUSH1 0x20 ADD PUSH1 0x0 KECCAK256 SLOAD SWAP1 POP PUSH2 0x1405 JUMP JUMPDEST PUSH1 0x6 DUP3 SUB PUSH2 0x13D9 JUMPI PUSH1 0x10 PUSH1 0x0 PUSH1 0x2 DUP2 MSTORE PUSH1 0x20 ADD SWAP1 DUP2 MSTORE PUSH1 0x20 ADD PUSH1 0x0 KECCAK256 SLOAD SWAP1 POP PUSH2 0x1404 JUMP JUMPDEST PUSH1 0xC DUP3 SUB PUSH2 0x13FD JUMPI PUSH1 0x10 PUSH1 0x0 PUSH1 0x3 DUP2 MSTORE PUSH1 0x20 ADD SWAP1 DUP2 MSTORE PUSH1 0x20 ADD PUSH1 0x0 KECCAK256 SLOAD SWAP1 POP PUSH2 0x1403 JUMP JUMPDEST POP PUSH2 0x1713 JUMP JUMPDEST JUMPDEST JUMPDEST PUSH1 0x40 MLOAD DUP1 PUSH2 0x140 ADD PUSH1 0x40 MSTORE DUP1 DUP5 DUP2 MSTORE PUSH1 0x20 ADD DUP4 DUP2 MSTORE PUSH1 0x20 ADD DUP3 DUP2 MSTORE PUSH1 0x20 ADD PUSH1 0xA PUSH1 0x0 SWAP1 SLOAD SWAP1 PUSH2 0x100 EXP SWAP1 DIV PUSH20 0xFFFFFFFFFFFFFFFFFFFFFFFFFFFFFFFFFFFFFFFF AND PUSH20 0xFFFFFFFFFFFFFFFFFFFFFFFFFFFFFFFFFFFFFFFF AND DUP2 MSTORE PUSH1 0x20 ADD ADDRESS PUSH20 0xFFFFFFFFFFFFFFFFFFFFFFFFFFFFFFFFFFFFFFFF AND DUP2 MSTORE PUSH1 0x20 ADD PUSH2 0x1485 PUSH2 0x872 JUMP JUMPDEST DUP2 MSTORE PUSH1 0x20 ADD PUSH2 0x1492 PUSH2 0x1241 JUMP JUMPDEST DUP2 MSTORE PUSH1 0x20 ADD PUSH2 0x14A1 DUP6 DUP5 PUSH2 0x1B21 JUMP JUMPDEST DUP2 MSTORE PUSH1 0x20 ADD TIMESTAMP DUP2 MSTORE PUSH1 0x20 ADD PUSH1 0x1 ISZERO ISZERO DUP2 MSTORE POP PUSH1 0xD PUSH1 0x0 CALLER PUSH20 0xFFFFFFFFFFFFFFFFFFFFFFFFFFFFFFFFFFFFFFFF AND PUSH20 0xFFFFFFFFFFFFFFFFFFFFFFFFFFFFFFFFFFFFFFFF AND DUP2 MSTORE PUSH1 0x20 ADD SWAP1 DUP2 MSTORE PUSH1 0x20 ADD PUSH1 0x0 KECCAK256 PUSH1 0x0 DUP3 ADD MLOAD DUP2 PUSH1 0x0 ADD SSTORE PUSH1 0x20 DUP3 ADD MLOAD DUP2 PUSH1 0x1 ADD SSTORE PUSH1 0x40 DUP3 ADD MLOAD DUP2 PUSH1 0x2 ADD SSTORE PUSH1 0x60 DUP3 ADD MLOAD DUP2 PUSH1 0x3 ADD PUSH1 0x0 PUSH2 0x100 EXP DUP2 SLOAD DUP2 PUSH20 0xFFFFFFFFFFFFFFFFFFFFFFFFFFFFFFFFFFFFFFFF MUL NOT AND SWAP1 DUP4 PUSH20 0xFFFFFFFFFFFFFFFFFFFFFFFFFFFFFFFFFFFFFFFF AND MUL OR SWAP1 SSTORE POP PUSH1 0x80 DUP3 ADD MLOAD DUP2 PUSH1 0x4 ADD PUSH1 0x0 PUSH2 0x100 EXP DUP2 SLOAD DUP2 PUSH20 0xFFFFFFFFFFFFFFFFFFFFFFFFFFFFFFFFFFFFFFFF MUL NOT AND SWAP1 DUP4 PUSH20 0xFFFFFFFFFFFFFFFFFFFFFFFFFFFFFFFFFFFFFFFF AND MUL OR SWAP1 SSTORE POP PUSH1 0xA0 DUP3 ADD MLOAD DUP2 PUSH1 0x5 ADD SWAP1 DUP2 PUSH2 0x15B3 SWAP2 SWAP1 PUSH2 0x4E27 JUMP JUMPDEST POP PUSH1 0xC0 DUP3 ADD MLOAD DUP2 PUSH1 0x6 ADD SWAP1 DUP2 PUSH2 0x15C9 SWAP2 SWAP1 PUSH2 0x4E27 JUMP JUMPDEST POP PUSH1 0xE0 DUP3 ADD MLOAD DUP2 PUSH1 0x7 ADD SSTORE PUSH2 0x100 DUP3 ADD MLOAD DUP2 PUSH1 0x8 ADD SSTORE PUSH2 0x120 DUP3 ADD MLOAD DUP2 PUSH1 0x9 ADD PUSH1 0x0 PUSH2 0x100 EXP DUP2 SLOAD DUP2 PUSH1 0xFF MUL NOT AND SWAP1 DUP4 ISZERO ISZERO MUL OR SWAP1 SSTORE POP SWAP1 POP POP PUSH1 0x0 PUSH2 0x164E DUP5 DUP5 DUP5 PUSH1 0xA PUSH1 0x0 SWAP1 SLOAD SWAP1 PUSH2 0x100 EXP SWAP1 DIV PUSH20 0xFFFFFFFFFFFFFFFFFFFFFFFFFFFFFFFFFFFFFFFF AND ADDRESS PUSH2 0x1637 PUSH2 0x872 JUMP JUMPDEST PUSH2 0x163F PUSH2 0x1241 JUMP JUMPDEST PUSH2 0x1649 DUP13 DUP12 PUSH2 0x1B21 JUMP JUMPDEST PUSH2 0x695 JUMP JUMPDEST SWAP1 POP PUSH2 0x165A PUSH1 0x8 PUSH2 0x2B1C JUMP JUMPDEST PUSH1 0x0 PUSH2 0x1666 PUSH1 0x8 PUSH2 0x2B32 JUMP JUMPDEST SWAP1 POP PUSH2 0x1672 CALLER DUP3 PUSH2 0x2B40 JUMP JUMPDEST PUSH2 0x167C DUP2 DUP4 PUSH2 0x2B5E JUMP JUMPDEST DUP1 PUSH1 0x11 PUSH1 0x0 CALLER PUSH20 0xFFFFFFFFFFFFFFFFFFFFFFFFFFFFFFFFFFFFFFFF AND PUSH20 0xFFFFFFFFFFFFFFFFFFFFFFFFFFFFFFFFFFFFFFFF AND DUP2 MSTORE PUSH1 0x20 ADD SWAP1 DUP2 MSTORE PUSH1 0x20 ADD PUSH1 0x0 KECCAK256 DUP2 SWAP1 SSTORE POP PUSH2 0x170F CALLER ADDRESS DUP8 PUSH1 0xA PUSH1 0x0 SWAP1 SLOAD SWAP1 PUSH2 0x100 EXP SWAP1 DIV PUSH20 0xFFFFFFFFFFFFFFFFFFFFFFFFFFFFFFFFFFFFFFFF AND PUSH20 0xFFFFFFFFFFFFFFFFFFFFFFFFFFFFFFFFFFFFFFFF AND PUSH2 0x2BCB SWAP1 SWAP4 SWAP3 SWAP2 SWAP1 PUSH4 0xFFFFFFFF AND JUMP JUMPDEST POP POP POP JUMPDEST POP POP JUMP JUMPDEST PUSH1 0xA PUSH1 0x0 SWAP1 SLOAD SWAP1 PUSH2 0x100 EXP SWAP1 DIV PUSH20 0xFFFFFFFFFFFFFFFFFFFFFFFFFFFFFFFFFFFFFFFF AND DUP2 JUMP JUMPDEST PUSH2 0x1745 PUSH2 0x27DE JUMP JUMPDEST PUSH8 0xDE0B6B3A7640000 DUP2 PUSH2 0x1759 SWAP2 SWAP1 PUSH2 0x4964 JUMP JUMPDEST SWAP1 POP DUP1 PUSH1 0xF PUSH1 0x0 CALLER PUSH20 0xFFFFFFFFFFFFFFFFFFFFFFFFFFFFFFFFFFFFFFFF AND PUSH20 0xFFFFFFFFFFFFFFFFFFFFFFFFFFFFFFFFFFFFFFFF AND DUP2 MSTORE PUSH1 0x20 ADD SWAP1 DUP2 MSTORE PUSH1 0x20 ADD PUSH1 0x0 KECCAK256 PUSH1 0x0 DUP3 DUP3 SLOAD PUSH2 0x17AA SWAP2 SWAP1 PUSH2 0x49A6 JUMP JUMPDEST SWAP3 POP POP DUP2 SWAP1 SSTORE POP DUP1 PUSH1 0xC PUSH1 0x0 DUP3 DUP3 SLOAD PUSH2 0x17C3 SWAP2 SWAP1 PUSH2 0x49A6 JUMP JUMPDEST SWAP3 POP POP DUP2 SWAP1 SSTORE POP PUSH2 0x1817 CALLER DUP3 PUSH1 0xA PUSH1 0x0 SWAP1 SLOAD SWAP1 PUSH2 0x100 EXP SWAP1 DIV PUSH20 0xFFFFFFFFFFFFFFFFFFFFFFFFFFFFFFFFFFFFFFFF AND PUSH20 0xFFFFFFFFFFFFFFFFFFFFFFFFFFFFFFFFFFFFFFFF AND PUSH2 0x2C54 SWAP1 SWAP3 SWAP2 SWAP1 PUSH4 0xFFFFFFFF AND JUMP JUMPDEST POP JUMP JUMPDEST PUSH1 0x8 DUP1 PUSH1 0x0 ADD SLOAD SWAP1 POP DUP2 JUMP JUMPDEST PUSH1 0x11 PUSH1 0x20 MSTORE DUP1 PUSH1 0x0 MSTORE PUSH1 0x40 PUSH1 0x0 KECCAK256 PUSH1 0x0 SWAP2 POP SWAP1 POP SLOAD DUP2 JUMP JUMPDEST PUSH2 0x184F PUSH2 0x1849 PUSH2 0x238F JUMP JUMPDEST DUP4 PUSH2 0x2450 JUMP JUMPDEST PUSH2 0x188E JUMPI PUSH1 0x40 MLOAD PUSH32 0x8C379A000000000000000000000000000000000000000000000000000000000 DUP2 MSTORE PUSH1 0x4 ADD PUSH2 0x1885 SWAP1 PUSH2 0x48A9 JUMP JUMPDEST PUSH1 0x40 MLOAD DUP1 SWAP2 SUB SWAP1 REVERT JUMPDEST PUSH2 0x189A DUP5 DUP5 DUP5 DUP5 PUSH2 0x2CDA JUMP JUMPDEST POP POP POP POP JUMP JUMPDEST PUSH2 0x18A8 PUSH2 0x27DE JUMP JUMPDEST PUSH1 0x9 PUSH1 0x0 SWAP1 SLOAD SWAP1 PUSH2 0x100 EXP SWAP1 DIV PUSH20 0xFFFFFFFFFFFFFFFFFFFFFFFFFFFFFFFFFFFFFFFF AND PUSH20 0xFFFFFFFFFFFFFFFFFFFFFFFFFFFFFFFFFFFFFFFF AND CALLER PUSH20 0xFFFFFFFFFFFFFFFFFFFFFFFFFFFFFFFFFFFFFFFF AND EQ PUSH2 0x1938 JUMPI PUSH1 0x40 MLOAD PUSH32 0x8C379A000000000000000000000000000000000000000000000000000000000 DUP2 MSTORE PUSH1 0x4 ADD PUSH2 0x192F SWAP1 PUSH2 0x4F45 JUMP JUMPDEST PUSH1 0x40 MLOAD DUP1 SWAP2 SUB SWAP1 REVERT JUMPDEST PUSH8 0xDE0B6B3A7640000 DUP2 PUSH2 0x194C SWAP2 SWAP1 PUSH2 0x4964 JUMP JUMPDEST SWAP1 POP DUP1 PUSH1 0xF PUSH1 0x0 CALLER PUSH20 0xFFFFFFFFFFFFFFFFFFFFFFFFFFFFFFFFFFFFFFFF AND PUSH20 0xFFFFFFFFFFFFFFFFFFFFFFFFFFFFFFFFFFFFFFFF AND DUP2 MSTORE PUSH1 0x20 ADD SWAP1 DUP2 MSTORE PUSH1 0x20 ADD PUSH1 0x0 KECCAK256 PUSH1 0x0 DUP3 DUP3 SLOAD PUSH2 0x199D SWAP2 SWAP1 PUSH2 0x4F65 JUMP JUMPDEST SWAP3 POP POP DUP2 SWAP1 SSTORE POP DUP1 PUSH1 0xC PUSH1 0x0 DUP3 DUP3 SLOAD PUSH2 0x19B6 SWAP2 SWAP1 PUSH2 0x4F65 JUMP JUMPDEST SWAP3 POP POP DUP2 SWAP1 SSTORE POP PUSH2 0x1A0C CALLER ADDRESS DUP4 PUSH1 0xA PUSH1 0x0 SWAP1 SLOAD SWAP1 PUSH2 0x100 EXP SWAP1 DIV PUSH20 0xFFFFFFFFFFFFFFFFFFFFFFFFFFFFFFFFFFFFFFFF AND PUSH20 0xFFFFFFFFFFFFFFFFFFFFFFFFFFFFFFFFFFFFFFFF AND PUSH2 0x2BCB SWAP1 SWAP4 SWAP3 SWAP2 SWAP1 PUSH4 0xFFFFFFFF AND JUMP JUMPDEST POP JUMP JUMPDEST PUSH1 0x60 PUSH2 0x1A1A DUP3 PUSH2 0x2344 JUMP JUMPDEST PUSH1 0x0 PUSH1 0x7 PUSH1 0x0 DUP5 DUP2 MSTORE PUSH1 0x20 ADD SWAP1 DUP2 MSTORE PUSH1 0x20 ADD PUSH1 0x0 KECCAK256 DUP1 SLOAD PUSH2 0x1A3A SWAP1 PUSH2 0x46E2 JUMP JUMPDEST DUP1 PUSH1 0x1F ADD PUSH1 0x20 DUP1 SWAP2 DIV MUL PUSH1 0x20 ADD PUSH1 0x40 MLOAD SWAP1 DUP2 ADD PUSH1 0x40 MSTORE DUP1 SWAP3 SWAP2 SWAP1 DUP2 DUP2 MSTORE PUSH1 0x20 ADD DUP3 DUP1 SLOAD PUSH2 0x1A66 SWAP1 PUSH2 0x46E2 JUMP JUMPDEST DUP1 ISZERO PUSH2 0x1AB3 JUMPI DUP1 PUSH1 0x1F LT PUSH2 0x1A88 JUMPI PUSH2 0x100 DUP1 DUP4 SLOAD DIV MUL DUP4 MSTORE SWAP2 PUSH1 0x20 ADD SWAP2 PUSH2 0x1AB3 JUMP JUMPDEST DUP3 ADD SWAP2 SWAP1 PUSH1 0x0 MSTORE PUSH1 0x20 PUSH1 0x0 KECCAK256 SWAP1 JUMPDEST DUP2 SLOAD DUP2 MSTORE SWAP1 PUSH1 0x1 ADD SWAP1 PUSH1 0x20 ADD DUP1 DUP4 GT PUSH2 0x1A96 JUMPI DUP3 SWAP1 SUB PUSH1 0x1F AND DUP3 ADD SWAP2 JUMPDEST POP POP POP POP POP SWAP1 POP PUSH1 0x0 PUSH2 0x1AC4 PUSH2 0x2D36 JUMP JUMPDEST SWAP1 POP PUSH1 0x0 DUP2 MLOAD SUB PUSH2 0x1AD9 JUMPI DUP2 SWAP3 POP POP POP PUSH2 0x1B1C JUMP JUMPDEST PUSH1 0x0 DUP3 MLOAD GT ISZERO PUSH2 0x1B0E JUMPI DUP1 DUP3 PUSH1 0x40 MLOAD PUSH1 0x20 ADD PUSH2 0x1AF6 SWAP3 SWAP2 SWAP1 PUSH2 0x4F99 JUMP JUMPDEST PUSH1 0x40 MLOAD PUSH1 0x20 DUP2 DUP4 SUB SUB DUP2 MSTORE SWAP1 PUSH1 0x40 MSTORE SWAP3 POP POP POP PUSH2 0x1B1C JUMP JUMPDEST PUSH2 0x1B17 DUP5 PUSH2 0x2D4D JUMP JUMPDEST SWAP3 POP POP POP JUMPDEST SWAP2 SWAP1 POP JUMP JUMPDEST PUSH1 0x0 DUP1 DUP3 DUP5 PUSH2 0x1B30 SWAP2 SWAP1 PUSH2 0x4964 JUMP JUMPDEST SWAP1 POP PUSH1 0x0 PUSH1 0x64 DUP3 PUSH2 0x1B41 SWAP2 SWAP1 PUSH2 0x4BDE JUMP JUMPDEST SWAP1 POP DUP5 DUP2 PUSH2 0x1B4F SWAP2 SWAP1 PUSH2 0x4F65 JUMP JUMPDEST SWAP3 POP POP POP SWAP3 SWAP2 POP POP JUMP JUMPDEST PUSH1 0x10 PUSH1 0x20 MSTORE DUP1 PUSH1 0x0 MSTORE PUSH1 0x40 PUSH1 0x0 KECCAK256 PUSH1 0x0 SWAP2 POP SWAP1 POP SLOAD DUP2 JUMP JUMPDEST PUSH1 0xD PUSH1 0x20 MSTORE DUP1 PUSH1 0x0 MSTORE PUSH1 0x40 PUSH1 0x0 KECCAK256 PUSH1 0x0 SWAP2 POP SWAP1 POP DUP1 PUSH1 0x0 ADD SLOAD SWAP1 DUP1 PUSH1 0x1 ADD SLOAD SWAP1 DUP1 PUSH1 0x2 ADD SLOAD SWAP1 DUP1 PUSH1 0x3 ADD PUSH1 0x0 SWAP1 SLOAD SWAP1 PUSH2 0x100 EXP SWAP1 DIV PUSH20 0xFFFFFFFFFFFFFFFFFFFFFFFFFFFFFFFFFFFFFFFF AND SWAP1 DUP1 PUSH1 0x4 ADD PUSH1 0x0 SWAP1 SLOAD SWAP1 PUSH2 0x100 EXP SWAP1 DIV PUSH20 0xFFFFFFFFFFFFFFFFFFFFFFFFFFFFFFFFFFFFFFFF AND SWAP1 DUP1 PUSH1 0x5 ADD DUP1 SLOAD PUSH2 0x1BF2 SWAP1 PUSH2 0x46E2 JUMP JUMPDEST DUP1 PUSH1 0x1F ADD PUSH1 0x20 DUP1 SWAP2 DIV MUL PUSH1 0x20 ADD PUSH1 0x40 MLOAD SWAP1 DUP2 ADD PUSH1 0x40 MSTORE DUP1 SWAP3 SWAP2 SWAP1 DUP2 DUP2 MSTORE PUSH1 0x20 ADD DUP3 DUP1 SLOAD PUSH2 0x1C1E SWAP1 PUSH2 0x46E2 JUMP JUMPDEST DUP1 ISZERO PUSH2 0x1C6B JUMPI DUP1 PUSH1 0x1F LT PUSH2 0x1C40 JUMPI PUSH2 0x100 DUP1 DUP4 SLOAD DIV MUL DUP4 MSTORE SWAP2 PUSH1 0x20 ADD SWAP2 PUSH2 0x1C6B JUMP JUMPDEST DUP3 ADD SWAP2 SWAP1 PUSH1 0x0 MSTORE PUSH1 0x20 PUSH1 0x0 KECCAK256 SWAP1 JUMPDEST DUP2 SLOAD DUP2 MSTORE SWAP1 PUSH1 0x1 ADD SWAP1 PUSH1 0x20 ADD DUP1 DUP4 GT PUSH2 0x1C4E JUMPI DUP3 SWAP1 SUB PUSH1 0x1F AND DUP3 ADD SWAP2 JUMPDEST POP POP POP POP POP SWAP1 DUP1 PUSH1 0x6 ADD DUP1 SLOAD PUSH2 0x1C80 SWAP1 PUSH2 0x46E2 JUMP JUMPDEST DUP1 PUSH1 0x1F ADD PUSH1 0x20 DUP1 SWAP2 DIV MUL PUSH1 0x20 ADD PUSH1 0x40 MLOAD SWAP1 DUP2 ADD PUSH1 0x40 MSTORE DUP1 SWAP3 SWAP2 SWAP1 DUP2 DUP2 MSTORE PUSH1 0x20 ADD DUP3 DUP1 SLOAD PUSH2 0x1CAC SWAP1 PUSH2 0x46E2 JUMP JUMPDEST DUP1 ISZERO PUSH2 0x1CF9 JUMPI DUP1 PUSH1 0x1F LT PUSH2 0x1CCE JUMPI PUSH2 0x100 DUP1 DUP4 SLOAD DIV MUL DUP4 MSTORE SWAP2 PUSH1 0x20 ADD SWAP2 PUSH2 0x1CF9 JUMP JUMPDEST DUP3 ADD SWAP2 SWAP1 PUSH1 0x0 MSTORE PUSH1 0x20 PUSH1 0x0 KECCAK256 SWAP1 JUMPDEST DUP2 SLOAD DUP2 MSTORE SWAP1 PUSH1 0x1 ADD SWAP1 PUSH1 0x20 ADD DUP1 DUP4 GT PUSH2 0x1CDC JUMPI DUP3 SWAP1 SUB PUSH1 0x1F AND DUP3 ADD SWAP2 JUMPDEST POP POP POP POP POP SWAP1 DUP1 PUSH1 0x7 ADD SLOAD SWAP1 DUP1 PUSH1 0x8 ADD SLOAD SWAP1 DUP1 PUSH1 0x9 ADD PUSH1 0x0 SWAP1 SLOAD SWAP1 PUSH2 0x100 EXP SWAP1 DIV PUSH1 0xFF AND SWAP1 POP DUP11 JUMP JUMPDEST PUSH1 0x0 PUSH1 0x6 PUSH1 0x0 DUP5 PUSH20 0xFFFFFFFFFFFFFFFFFFFFFFFFFFFFFFFFFFFFFFFF AND PUSH20 0xFFFFFFFFFFFFFFFFFFFFFFFFFFFFFFFFFFFFFFFF AND DUP2 MSTORE PUSH1 0x20 ADD SWAP1 DUP2 MSTORE PUSH1 0x20 ADD PUSH1 0x0 KECCAK256 PUSH1 0x0 DUP4 PUSH20 0xFFFFFFFFFFFFFFFFFFFFFFFFFFFFFFFFFFFFFFFF AND PUSH20 0xFFFFFFFFFFFFFFFFFFFFFFFFFFFFFFFFFFFFFFFF AND DUP2 MSTORE PUSH1 0x20 ADD SWAP1 DUP2 MSTORE PUSH1 0x20 ADD PUSH1 0x0 KECCAK256 PUSH1 0x0 SWAP1 SLOAD SWAP1 PUSH2 0x100 EXP SWAP1 DIV PUSH1 0xFF AND SWAP1 POP SWAP3 SWAP2 POP POP JUMP JUMPDEST PUSH2 0x1DBE PUSH2 0x27DE JUMP JUMPDEST PUSH1 0x0 PUSH20 0xFFFFFFFFFFFFFFFFFFFFFFFFFFFFFFFFFFFFFFFF AND DUP2 PUSH20 0xFFFFFFFFFFFFFFFFFFFFFFFFFFFFFFFFFFFFFFFF AND SUB PUSH2 0x1E2D JUMPI PUSH1 0x40 MLOAD PUSH32 0x8C379A000000000000000000000000000000000000000000000000000000000 DUP2 MSTORE PUSH1 0x4 ADD PUSH2 0x1E24 SWAP1 PUSH2 0x502F JUMP JUMPDEST PUSH1 0x40 MLOAD DUP1 SWAP2 SUB SWAP1 REVERT JUMPDEST PUSH2 0x1E36 DUP2 PUSH2 0x28EC JUMP JUMPDEST POP JUMP JUMPDEST PUSH1 0x60 PUSH1 0x0 PUSH1 0x1 PUSH2 0x1E48 DUP5 PUSH2 0x2DB5 JUMP JUMPDEST ADD SWAP1 POP PUSH1 0x0 DUP2 PUSH8 0xFFFFFFFFFFFFFFFF DUP2 GT ISZERO PUSH2 0x1E67 JUMPI PUSH2 0x1E66 PUSH2 0x3976 JUMP JUMPDEST JUMPDEST PUSH1 0x40 MLOAD SWAP1 DUP1 DUP3 MSTORE DUP1 PUSH1 0x1F ADD PUSH1 0x1F NOT AND PUSH1 0x20 ADD DUP3 ADD PUSH1 0x40 MSTORE DUP1 ISZERO PUSH2 0x1E99 JUMPI DUP2 PUSH1 0x20 ADD PUSH1 0x1 DUP3 MUL DUP1 CALLDATASIZE DUP4 CALLDATACOPY DUP1 DUP3 ADD SWAP2 POP POP SWAP1 POP JUMPDEST POP SWAP1 POP PUSH1 0x0 DUP3 PUSH1 0x20 ADD DUP3 ADD SWAP1 POP JUMPDEST PUSH1 0x1 ISZERO PUSH2 0x1EFC JUMPI DUP1 DUP1 PUSH1 0x1 SWAP1 SUB SWAP2 POP POP PUSH32 0x3031323334353637383961626364656600000000000000000000000000000000 PUSH1 0xA DUP7 MOD BYTE DUP2 MSTORE8 PUSH1 0xA DUP6 DUP2 PUSH2 0x1EF0 JUMPI PUSH2 0x1EEF PUSH2 0x4BAF JUMP JUMPDEST JUMPDEST DIV SWAP5 POP PUSH1 0x0 DUP6 SUB PUSH2 0x1EA7 JUMPI JUMPDEST DUP2 SWAP4 POP POP POP POP SWAP2 SWAP1 POP JUMP JUMPDEST PUSH1 0x60 PUSH1 0x0 PUSH1 0x2 DUP4 PUSH1 0x2 PUSH2 0x1F1A SWAP2 SWAP1 PUSH2 0x4964 JUMP JUMPDEST PUSH2 0x1F24 SWAP2 SWAP1 PUSH2 0x4F65 JUMP JUMPDEST PUSH8 0xFFFFFFFFFFFFFFFF DUP2 GT ISZERO PUSH2 0x1F3D JUMPI PUSH2 0x1F3C PUSH2 0x3976 JUMP JUMPDEST JUMPDEST PUSH1 0x40 MLOAD SWAP1 DUP1 DUP3 MSTORE DUP1 PUSH1 0x1F ADD PUSH1 0x1F NOT AND PUSH1 0x20 ADD DUP3 ADD PUSH1 0x40 MSTORE DUP1 ISZERO PUSH2 0x1F6F JUMPI DUP2 PUSH1 0x20 ADD PUSH1 0x1 DUP3 MUL DUP1 CALLDATASIZE DUP4 CALLDATACOPY DUP1 DUP3 ADD SWAP2 POP POP SWAP1 POP JUMPDEST POP SWAP1 POP PUSH32 0x3000000000000000000000000000000000000000000000000000000000000000 DUP2 PUSH1 0x0 DUP2 MLOAD DUP2 LT PUSH2 0x1FA7 JUMPI PUSH2 0x1FA6 PUSH2 0x504F JUMP JUMPDEST JUMPDEST PUSH1 0x20 ADD ADD SWAP1 PUSH31 0xFFFFFFFFFFFFFFFFFFFFFFFFFFFFFFFFFFFFFFFFFFFFFFFFFFFFFFFFFFFFFF NOT AND SWAP1 DUP2 PUSH1 0x0 BYTE SWAP1 MSTORE8 POP PUSH32 0x7800000000000000000000000000000000000000000000000000000000000000 DUP2 PUSH1 0x1 DUP2 MLOAD DUP2 LT PUSH2 0x200B JUMPI PUSH2 0x200A PUSH2 0x504F JUMP JUMPDEST JUMPDEST PUSH1 0x20 ADD ADD SWAP1 PUSH31 0xFFFFFFFFFFFFFFFFFFFFFFFFFFFFFFFFFFFFFFFFFFFFFFFFFFFFFFFFFFFFFF NOT AND SWAP1 DUP2 PUSH1 0x0 BYTE SWAP1 MSTORE8 POP PUSH1 0x0 PUSH1 0x1 DUP5 PUSH1 0x2 PUSH2 0x204B SWAP2 SWAP1 PUSH2 0x4964 JUMP JUMPDEST PUSH2 0x2055 SWAP2 SWAP1 PUSH2 0x4F65 JUMP JUMPDEST SWAP1 POP JUMPDEST PUSH1 0x1 DUP2 GT ISZERO PUSH2 0x20F5 JUMPI PUSH32 0x3031323334353637383961626364656600000000000000000000000000000000 PUSH1 0xF DUP7 AND PUSH1 0x10 DUP2 LT PUSH2 0x2097 JUMPI PUSH2 0x2096 PUSH2 0x504F JUMP JUMPDEST JUMPDEST BYTE PUSH1 0xF8 SHL DUP3 DUP3 DUP2 MLOAD DUP2 LT PUSH2 0x20AE JUMPI PUSH2 0x20AD PUSH2 0x504F JUMP JUMPDEST JUMPDEST PUSH1 0x20 ADD ADD SWAP1 PUSH31 0xFFFFFFFFFFFFFFFFFFFFFFFFFFFFFFFFFFFFFFFFFFFFFFFFFFFFFFFFFFFFFF NOT AND SWAP1 DUP2 PUSH1 0x0 BYTE SWAP1 MSTORE8 POP PUSH1 0x4 DUP6 SWAP1 SHR SWAP5 POP DUP1 PUSH2 0x20EE SWAP1 PUSH2 0x507E JUMP JUMPDEST SWAP1 POP PUSH2 0x2058 JUMP JUMPDEST POP PUSH1 0x0 DUP5 EQ PUSH2 0x2139 JUMPI PUSH1 0x40 MLOAD PUSH32 0x8C379A000000000000000000000000000000000000000000000000000000000 DUP2 MSTORE PUSH1 0x4 ADD PUSH2 0x2130 SWAP1 PUSH2 0x50F3 JUMP JUMPDEST PUSH1 0x40 MLOAD DUP1 SWAP2 SUB SWAP1 REVERT JUMPDEST DUP1 SWAP2 POP POP SWAP3 SWAP2 POP POP JUMP JUMPDEST PUSH1 0x60 PUSH1 0x0 DUP3 MLOAD SWAP1 POP PUSH1 0x0 DUP2 SUB PUSH2 0x216B JUMPI PUSH1 0x40 MLOAD DUP1 PUSH1 0x20 ADD PUSH1 0x40 MSTORE DUP1 PUSH1 0x0 DUP2 MSTORE POP SWAP2 POP POP PUSH2 0x22D5 JUMP JUMPDEST PUSH1 0x0 PUSH1 0x3 PUSH1 0x2 DUP4 PUSH2 0x217C SWAP2 SWAP1 PUSH2 0x4F65 JUMP JUMPDEST PUSH2 0x2186 SWAP2 SWAP1 PUSH2 0x4BDE JUMP JUMPDEST PUSH1 0x4 PUSH2 0x2192 SWAP2 SWAP1 PUSH2 0x4964 JUMP JUMPDEST SWAP1 POP PUSH1 0x0 PUSH1 0x20 DUP3 PUSH2 0x21A3 SWAP2 SWAP1 PUSH2 0x4F65 JUMP JUMPDEST PUSH8 0xFFFFFFFFFFFFFFFF DUP2 GT ISZERO PUSH2 0x21BC JUMPI PUSH2 0x21BB PUSH2 0x3976 JUMP JUMPDEST JUMPDEST PUSH1 0x40 MLOAD SWAP1 DUP1 DUP3 MSTORE DUP1 PUSH1 0x1F ADD PUSH1 0x1F NOT AND PUSH1 0x20 ADD DUP3 ADD PUSH1 0x40 MSTORE DUP1 ISZERO PUSH2 0x21EE JUMPI DUP2 PUSH1 0x20 ADD PUSH1 0x1 DUP3 MUL DUP1 CALLDATASIZE DUP4 CALLDATACOPY DUP1 DUP3 ADD SWAP2 POP POP SWAP1 POP JUMPDEST POP SWAP1 POP PUSH1 0x0 PUSH1 0x40 MLOAD DUP1 PUSH1 0x60 ADD PUSH1 0x40 MSTORE DUP1 PUSH1 0x40 DUP2 MSTORE PUSH1 0x20 ADD PUSH2 0x5809 PUSH1 0x40 SWAP2 CODECOPY SWAP1 POP PUSH1 0x1 DUP2 ADD PUSH1 0x20 DUP4 ADD PUSH1 0x0 JUMPDEST DUP7 DUP2 LT ISZERO PUSH2 0x2292 JUMPI PUSH1 0x3 DUP2 ADD SWAP1 POP PUSH3 0xFFFFFF DUP2 DUP11 ADD MLOAD AND PUSH1 0x3F DUP2 PUSH1 0x12 SHR AND DUP5 ADD MLOAD DUP1 PUSH1 0x8 SHL SWAP1 POP PUSH1 0xFF PUSH1 0x3F DUP4 PUSH1 0xC SHR AND DUP7 ADD MLOAD AND DUP2 ADD SWAP1 POP DUP1 PUSH1 0x8 SHL SWAP1 POP PUSH1 0xFF PUSH1 0x3F DUP4 PUSH1 0x6 SHR AND DUP7 ADD MLOAD AND DUP2 ADD SWAP1 POP DUP1 PUSH1 0x8 SHL SWAP1 POP PUSH1 0xFF PUSH1 0x3F DUP4 AND DUP7 ADD MLOAD AND DUP2 ADD SWAP1 POP DUP1 PUSH1 0xE0 SHL SWAP1 POP DUP1 DUP5 MSTORE PUSH1 0x4 DUP5 ADD SWAP4 POP POP POP PUSH2 0x2219 JUMP JUMPDEST POP PUSH1 0x3 DUP7 MOD PUSH1 0x1 DUP2 EQ PUSH2 0x22AC JUMPI PUSH1 0x2 DUP2 EQ PUSH2 0x22BC JUMPI PUSH2 0x22C7 JUMP JUMPDEST PUSH2 0x3D3D PUSH1 0xF0 SHL PUSH1 0x2 DUP4 SUB MSTORE PUSH2 0x22C7 JUMP JUMPDEST PUSH1 0x3D PUSH1 0xF8 SHL PUSH1 0x1 DUP4 SUB MSTORE JUMPDEST POP DUP5 DUP5 MSTORE POP POP DUP2 SWAP5 POP POP POP POP POP JUMPDEST SWAP2 SWAP1 POP JUMP JUMPDEST PUSH1 0x0 PUSH32 0x1FFC9A700000000000000000000000000000000000000000000000000000000 PUSH28 0xFFFFFFFFFFFFFFFFFFFFFFFFFFFFFFFFFFFFFFFFFFFFFFFFFFFFFFFF NOT AND DUP3 PUSH28 0xFFFFFFFFFFFFFFFFFFFFFFFFFFFFFFFFFFFFFFFFFFFFFFFFFFFFFFFF NOT AND EQ SWAP1 POP SWAP2 SWAP1 POP JUMP JUMPDEST PUSH2 0x234D DUP2 PUSH2 0x2F08 JUMP JUMPDEST PUSH2 0x238C JUMPI PUSH1 0x40 MLOAD PUSH32 0x8C379A000000000000000000000000000000000000000000000000000000000 DUP2 MSTORE PUSH1 0x4 ADD PUSH2 0x2383 SWAP1 PUSH2 0x4AFD JUMP JUMPDEST PUSH1 0x40 MLOAD DUP1 SWAP2 SUB SWAP1 REVERT JUMPDEST POP JUMP JUMPDEST PUSH1 0x0 CALLER SWAP1 POP SWAP1 JUMP JUMPDEST DUP2 PUSH1 0x5 PUSH1 0x0 DUP4 DUP2 MSTORE PUSH1 0x20 ADD SWAP1 DUP2 MSTORE PUSH1 0x20 ADD PUSH1 0x0 KECCAK256 PUSH1 0x0 PUSH2 0x100 EXP DUP2 SLOAD DUP2 PUSH20 0xFFFFFFFFFFFFFFFFFFFFFFFFFFFFFFFFFFFFFFFF MUL NOT AND SWAP1 DUP4 PUSH20 0xFFFFFFFFFFFFFFFFFFFFFFFFFFFFFFFFFFFFFFFF AND MUL OR SWAP1 SSTORE POP DUP1 DUP3 PUSH20 0xFFFFFFFFFFFFFFFFFFFFFFFFFFFFFFFFFFFFFFFF AND PUSH2 0x240A DUP4 PUSH2 0x1059 JUMP JUMPDEST PUSH20 0xFFFFFFFFFFFFFFFFFFFFFFFFFFFFFFFFFFFFFFFF AND PUSH32 0x8C5BE1E5EBEC7D5BD14F71427D1E84F3DD0314C0F7B2291E5B200AC8C7C3B925 PUSH1 0x40 MLOAD PUSH1 0x40 MLOAD DUP1 SWAP2 SUB SWAP1 LOG4 POP POP JUMP JUMPDEST PUSH1 0x0 DUP1 PUSH2 0x245C DUP4 PUSH2 0x1059 JUMP JUMPDEST SWAP1 POP DUP1 PUSH20 0xFFFFFFFFFFFFFFFFFFFFFFFFFFFFFFFFFFFFFFFF AND DUP5 PUSH20 0xFFFFFFFFFFFFFFFFFFFFFFFFFFFFFFFFFFFFFFFF AND EQ DUP1 PUSH2 0x249E JUMPI POP PUSH2 0x249D DUP2 DUP6 PUSH2 0x1D22 JUMP JUMPDEST JUMPDEST DUP1 PUSH2 0x24DC JUMPI POP DUP4 PUSH20 0xFFFFFFFFFFFFFFFFFFFFFFFFFFFFFFFFFFFFFFFF AND PUSH2 0x24C4 DUP5 PUSH2 0x904 JUMP JUMPDEST PUSH20 0xFFFFFFFFFFFFFFFFFFFFFFFFFFFFFFFFFFFFFFFF AND EQ JUMPDEST SWAP2 POP POP SWAP3 SWAP2 POP POP JUMP JUMPDEST DUP3 PUSH20 0xFFFFFFFFFFFFFFFFFFFFFFFFFFFFFFFFFFFFFFFF AND PUSH2 0x2505 DUP3 PUSH2 0x1059 JUMP JUMPDEST PUSH20 0xFFFFFFFFFFFFFFFFFFFFFFFFFFFFFFFFFFFFFFFF AND EQ PUSH2 0x255B JUMPI PUSH1 0x40 MLOAD PUSH32 0x8C379A000000000000000000000000000000000000000000000000000000000 DUP2 MSTORE PUSH1 0x4 ADD PUSH2 0x2552 SWAP1 PUSH2 0x5185 JUMP JUMPDEST PUSH1 0x40 MLOAD DUP1 SWAP2 SUB SWAP1 REVERT JUMPDEST PUSH1 0x0 PUSH20 0xFFFFFFFFFFFFFFFFFFFFFFFFFFFFFFFFFFFFFFFF AND DUP3 PUSH20 0xFFFFFFFFFFFFFFFFFFFFFFFFFFFFFFFFFFFFFFFF AND SUB PUSH2 0x25CA JUMPI PUSH1 0x40 MLOAD PUSH32 0x8C379A000000000000000000000000000000000000000000000000000000000 DUP2 MSTORE PUSH1 0x4 ADD PUSH2 0x25C1 SWAP1 PUSH2 0x5217 JUMP JUMPDEST PUSH1 0x40 MLOAD DUP1 SWAP2 SUB SWAP1 REVERT JUMPDEST PUSH2 0x25D7 DUP4 DUP4 DUP4 PUSH1 0x1 PUSH2 0x2F49 JUMP JUMPDEST DUP3 PUSH20 0xFFFFFFFFFFFFFFFFFFFFFFFFFFFFFFFFFFFFFFFF AND PUSH2 0x25F7 DUP3 PUSH2 0x1059 JUMP JUMPDEST PUSH20 0xFFFFFFFFFFFFFFFFFFFFFFFFFFFFFFFFFFFFFFFF AND EQ PUSH2 0x264D JUMPI PUSH1 0x40 MLOAD PUSH32 0x8C379A000000000000000000000000000000000000000000000000000000000 DUP2 MSTORE PUSH1 0x4 ADD PUSH2 0x2644 SWAP1 PUSH2 0x5185 JUMP JUMPDEST PUSH1 0x40 MLOAD DUP1 SWAP2 SUB SWAP1 REVERT JUMPDEST PUSH1 0x5 PUSH1 0x0 DUP3 DUP2 MSTORE PUSH1 0x20 ADD SWAP1 DUP2 MSTORE PUSH1 0x20 ADD PUSH1 0x0 KECCAK256 PUSH1 0x0 PUSH2 0x100 EXP DUP2 SLOAD SWAP1 PUSH20 0xFFFFFFFFFFFFFFFFFFFFFFFFFFFFFFFFFFFFFFFF MUL NOT AND SWAP1 SSTORE PUSH1 0x1 PUSH1 0x4 PUSH1 0x0 DUP6 PUSH20 0xFFFFFFFFFFFFFFFFFFFFFFFFFFFFFFFFFFFFFFFF AND PUSH20 0xFFFFFFFFFFFFFFFFFFFFFFFFFFFFFFFFFFFFFFFF AND DUP2 MSTORE PUSH1 0x20 ADD SWAP1 DUP2 MSTORE PUSH1 0x20 ADD PUSH1 0x0 KECCAK256 PUSH1 0x0 DUP3 DUP3 SLOAD SUB SWAP3 POP POP DUP2 SWAP1 SSTORE POP PUSH1 0x1 PUSH1 0x4 PUSH1 0x0 DUP5 PUSH20 0xFFFFFFFFFFFFFFFFFFFFFFFFFFFFFFFFFFFFFFFF AND PUSH20 0xFFFFFFFFFFFFFFFFFFFFFFFFFFFFFFFFFFFFFFFF AND DUP2 MSTORE PUSH1 0x20 ADD SWAP1 DUP2 MSTORE PUSH1 0x20 ADD PUSH1 0x0 KECCAK256 PUSH1 0x0 DUP3 DUP3 SLOAD ADD SWAP3 POP POP DUP2 SWAP1 SSTORE POP DUP2 PUSH1 0x3 PUSH1 0x0 DUP4 DUP2 MSTORE PUSH1 0x20 ADD SWAP1 DUP2 MSTORE PUSH1 0x20 ADD PUSH1 0x0 KECCAK256 PUSH1 0x0 PUSH2 0x100 EXP DUP2 SLOAD DUP2 PUSH20 0xFFFFFFFFFFFFFFFFFFFFFFFFFFFFFFFFFFFFFFFF MUL NOT AND SWAP1 DUP4 PUSH20 0xFFFFFFFFFFFFFFFFFFFFFFFFFFFFFFFFFFFFFFFF AND MUL OR SWAP1 SSTORE POP DUP1 DUP3 PUSH20 0xFFFFFFFFFFFFFFFFFFFFFFFFFFFFFFFFFFFFFFFF AND DUP5 PUSH20 0xFFFFFFFFFFFFFFFFFFFFFFFFFFFFFFFFFFFFFFFF AND PUSH32 0xDDF252AD1BE2C89B69C2B068FC378DAA952BA7F163C4A11628F55A4DF523B3EF PUSH1 0x40 MLOAD PUSH1 0x40 MLOAD DUP1 SWAP2 SUB SWAP1 LOG4 PUSH2 0x27D9 DUP4 DUP4 DUP4 PUSH1 0x1 PUSH2 0x306F JUMP JUMPDEST POP POP POP JUMP JUMPDEST PUSH2 0x27E6 PUSH2 0x238F JUMP JUMPDEST PUSH20 0xFFFFFFFFFFFFFFFFFFFFFFFFFFFFFFFFFFFFFFFF AND PUSH2 0x2804 PUSH2 0x1218 JUMP JUMPDEST PUSH20 0xFFFFFFFFFFFFFFFFFFFFFFFFFFFFFFFFFFFFFFFF AND EQ PUSH2 0x285A JUMPI PUSH1 0x40 MLOAD PUSH32 0x8C379A000000000000000000000000000000000000000000000000000000000 DUP2 MSTORE PUSH1 0x4 ADD PUSH2 0x2851 SWAP1 PUSH2 0x5283 JUMP JUMPDEST PUSH1 0x40 MLOAD DUP1 SWAP2 SUB SWAP1 REVERT JUMPDEST JUMP JUMPDEST PUSH2 0x2865 DUP2 PUSH2 0x3075 JUMP JUMPDEST PUSH1 0x0 PUSH1 0x7 PUSH1 0x0 DUP4 DUP2 MSTORE PUSH1 0x20 ADD SWAP1 DUP2 MSTORE PUSH1 0x20 ADD PUSH1 0x0 KECCAK256 DUP1 SLOAD PUSH2 0x2885 SWAP1 PUSH2 0x46E2 JUMP JUMPDEST SWAP1 POP EQ PUSH2 0x28AC JUMPI PUSH1 0x7 PUSH1 0x0 DUP3 DUP2 MSTORE PUSH1 0x20 ADD SWAP1 DUP2 MSTORE PUSH1 0x20 ADD PUSH1 0x0 KECCAK256 PUSH1 0x0 PUSH2 0x28AB SWAP2 SWAP1 PUSH2 0x3856 JUMP JUMPDEST JUMPDEST POP JUMP JUMPDEST PUSH1 0x0 PUSH1 0x3 PUSH1 0x0 DUP4 DUP2 MSTORE PUSH1 0x20 ADD SWAP1 DUP2 MSTORE PUSH1 0x20 ADD PUSH1 0x0 KECCAK256 PUSH1 0x0 SWAP1 SLOAD SWAP1 PUSH2 0x100 EXP SWAP1 DIV PUSH20 0xFFFFFFFFFFFFFFFFFFFFFFFFFFFFFFFFFFFFFFFF AND SWAP1 POP SWAP2 SWAP1 POP JUMP JUMPDEST PUSH1 0x0 DUP1 PUSH1 0x0 SWAP1 SLOAD SWAP1 PUSH2 0x100 EXP SWAP1 DIV PUSH20 0xFFFFFFFFFFFFFFFFFFFFFFFFFFFFFFFFFFFFFFFF AND SWAP1 POP DUP2 PUSH1 0x0 DUP1 PUSH2 0x100 EXP DUP2 SLOAD DUP2 PUSH20 0xFFFFFFFFFFFFFFFFFFFFFFFFFFFFFFFFFFFFFFFF MUL NOT AND SWAP1 DUP4 PUSH20 0xFFFFFFFFFFFFFFFFFFFFFFFFFFFFFFFFFFFFFFFF AND MUL OR SWAP1 SSTORE POP DUP2 PUSH20 0xFFFFFFFFFFFFFFFFFFFFFFFFFFFFFFFFFFFFFFFF AND DUP2 PUSH20 0xFFFFFFFFFFFFFFFFFFFFFFFFFFFFFFFFFFFFFFFF AND PUSH32 0x8BE0079C531659141344CD1FD0A4F28419497F9722A3DAAFE3B4186F6B6457E0 PUSH1 0x40 MLOAD PUSH1 0x40 MLOAD DUP1 SWAP2 SUB SWAP1 LOG3 POP POP JUMP JUMPDEST DUP2 PUSH20 0xFFFFFFFFFFFFFFFFFFFFFFFFFFFFFFFFFFFFFFFF AND DUP4 PUSH20 0xFFFFFFFFFFFFFFFFFFFFFFFFFFFFFFFFFFFFFFFF AND SUB PUSH2 0x2A1E JUMPI PUSH1 0x40 MLOAD PUSH32 0x8C379A000000000000000000000000000000000000000000000000000000000 DUP2 MSTORE PUSH1 0x4 ADD PUSH2 0x2A15 SWAP1 PUSH2 0x52EF JUMP JUMPDEST PUSH1 0x40 MLOAD DUP1 SWAP2 SUB SWAP1 REVERT JUMPDEST DUP1 PUSH1 0x6 PUSH1 0x0 DUP6 PUSH20 0xFFFFFFFFFFFFFFFFFFFFFFFFFFFFFFFFFFFFFFFF AND PUSH20 0xFFFFFFFFFFFFFFFFFFFFFFFFFFFFFFFFFFFFFFFF AND DUP2 MSTORE PUSH1 0x20 ADD SWAP1 DUP2 MSTORE PUSH1 0x20 ADD PUSH1 0x0 KECCAK256 PUSH1 0x0 DUP5 PUSH20 0xFFFFFFFFFFFFFFFFFFFFFFFFFFFFFFFFFFFFFFFF AND PUSH20 0xFFFFFFFFFFFFFFFFFFFFFFFFFFFFFFFFFFFFFFFF AND DUP2 MSTORE PUSH1 0x20 ADD SWAP1 DUP2 MSTORE PUSH1 0x20 ADD PUSH1 0x0 KECCAK256 PUSH1 0x0 PUSH2 0x100 EXP DUP2 SLOAD DUP2 PUSH1 0xFF MUL NOT AND SWAP1 DUP4 ISZERO ISZERO MUL OR SWAP1 SSTORE POP DUP2 PUSH20 0xFFFFFFFFFFFFFFFFFFFFFFFFFFFFFFFFFFFFFFFF AND DUP4 PUSH20 0xFFFFFFFFFFFFFFFFFFFFFFFFFFFFFFFFFFFFFFFF AND PUSH32 0x17307EAB39AB6107E8899845AD3D59BD9653F200F220920489CA2B5937696C31 DUP4 PUSH1 0x40 MLOAD PUSH2 0x2B0F SWAP2 SWAP1 PUSH2 0x3CD0 JUMP JUMPDEST PUSH1 0x40 MLOAD DUP1 SWAP2 SUB SWAP1 LOG3 POP POP POP JUMP JUMPDEST PUSH1 0x1 DUP2 PUSH1 0x0 ADD PUSH1 0x0 DUP3 DUP3 SLOAD ADD SWAP3 POP POP DUP2 SWAP1 SSTORE POP POP JUMP JUMPDEST PUSH1 0x0 DUP2 PUSH1 0x0 ADD SLOAD SWAP1 POP SWAP2 SWAP1 POP JUMP JUMPDEST PUSH2 0x2B5A DUP3 DUP3 PUSH1 0x40 MLOAD DUP1 PUSH1 0x20 ADD PUSH1 0x40 MSTORE DUP1 PUSH1 0x0 DUP2 MSTORE POP PUSH2 0x31C3 JUMP JUMPDEST POP POP JUMP JUMPDEST PUSH2 0x2B67 DUP3 PUSH2 0x2F08 JUMP JUMPDEST PUSH2 0x2BA6 JUMPI PUSH1 0x40 MLOAD PUSH32 0x8C379A000000000000000000000000000000000000000000000000000000000 DUP2 MSTORE PUSH1 0x4 ADD PUSH2 0x2B9D SWAP1 PUSH2 0x5381 JUMP JUMPDEST PUSH1 0x40 MLOAD DUP1 SWAP2 SUB SWAP1 REVERT JUMPDEST DUP1 PUSH1 0x7 PUSH1 0x0 DUP5 DUP2 MSTORE PUSH1 0x20 ADD SWAP1 DUP2 MSTORE PUSH1 0x20 ADD PUSH1 0x0 KECCAK256 SWAP1 DUP2 PUSH2 0x2BC6 SWAP2 SWAP1 PUSH2 0x4E27 JUMP JUMPDEST POP POP POP JUMP JUMPDEST PUSH2 0x2C4E DUP5 PUSH4 0x23B872DD PUSH1 0xE0 SHL DUP6 DUP6 DUP6 PUSH1 0x40 MLOAD PUSH1 0x24 ADD PUSH2 0x2BEC SWAP4 SWAP3 SWAP2 SWAP1 PUSH2 0x53A1 JUMP JUMPDEST PUSH1 0x40 MLOAD PUSH1 0x20 DUP2 DUP4 SUB SUB DUP2 MSTORE SWAP1 PUSH1 0x40 MSTORE SWAP1 PUSH28 0xFFFFFFFFFFFFFFFFFFFFFFFFFFFFFFFFFFFFFFFFFFFFFFFFFFFFFFFF NOT AND PUSH1 0x20 DUP3 ADD DUP1 MLOAD PUSH28 0xFFFFFFFFFFFFFFFFFFFFFFFFFFFFFFFFFFFFFFFFFFFFFFFFFFFFFFFF DUP4 DUP2 DUP4 AND OR DUP4 MSTORE POP POP POP POP PUSH2 0x321E JUMP JUMPDEST POP POP POP POP JUMP JUMPDEST PUSH2 0x2CD5 DUP4 PUSH4 0xA9059CBB PUSH1 0xE0 SHL DUP5 DUP5 PUSH1 0x40 MLOAD PUSH1 0x24 ADD PUSH2 0x2C73 SWAP3 SWAP2 SWAP1 PUSH2 0x4A46 JUMP JUMPDEST PUSH1 0x40 MLOAD PUSH1 0x20 DUP2 DUP4 SUB SUB DUP2 MSTORE SWAP1 PUSH1 0x40 MSTORE SWAP1 PUSH28 0xFFFFFFFFFFFFFFFFFFFFFFFFFFFFFFFFFFFFFFFFFFFFFFFFFFFFFFFF NOT AND PUSH1 0x20 DUP3 ADD DUP1 MLOAD PUSH28 0xFFFFFFFFFFFFFFFFFFFFFFFFFFFFFFFFFFFFFFFFFFFFFFFFFFFFFFFF DUP4 DUP2 DUP4 AND OR DUP4 MSTORE POP POP POP POP PUSH2 0x321E JUMP JUMPDEST POP POP POP JUMP JUMPDEST PUSH2 0x2CE5 DUP5 DUP5 DUP5 PUSH2 0x24E5 JUMP JUMPDEST PUSH2 0x2CF1 DUP5 DUP5 DUP5 DUP5 PUSH2 0x32E5 JUMP JUMPDEST PUSH2 0x2D30 JUMPI PUSH1 0x40 MLOAD PUSH32 0x8C379A000000000000000000000000000000000000000000000000000000000 DUP2 MSTORE PUSH1 0x4 ADD PUSH2 0x2D27 SWAP1 PUSH2 0x544A JUMP JUMPDEST PUSH1 0x40 MLOAD DUP1 SWAP2 SUB SWAP1 REVERT JUMPDEST POP POP POP POP JUMP JUMPDEST PUSH1 0x60 PUSH1 0x40 MLOAD DUP1 PUSH1 0x20 ADD PUSH1 0x40 MSTORE DUP1 PUSH1 0x0 DUP2 MSTORE POP SWAP1 POP SWAP1 JUMP JUMPDEST PUSH1 0x60 PUSH2 0x2D58 DUP3 PUSH2 0x2344 JUMP JUMPDEST PUSH1 0x0 PUSH2 0x2D62 PUSH2 0x2D36 JUMP JUMPDEST SWAP1 POP PUSH1 0x0 DUP2 MLOAD GT PUSH2 0x2D82 JUMPI PUSH1 0x40 MLOAD DUP1 PUSH1 0x20 ADD PUSH1 0x40 MSTORE DUP1 PUSH1 0x0 DUP2 MSTORE POP PUSH2 0x2DAD JUMP JUMPDEST DUP1 PUSH2 0x2D8C DUP5 PUSH2 0x1E39 JUMP JUMPDEST PUSH1 0x40 MLOAD PUSH1 0x20 ADD PUSH2 0x2D9D SWAP3 SWAP2 SWAP1 PUSH2 0x4F99 JUMP JUMPDEST PUSH1 0x40 MLOAD PUSH1 0x20 DUP2 DUP4 SUB SUB DUP2 MSTORE SWAP1 PUSH1 0x40 MSTORE JUMPDEST SWAP2 POP POP SWAP2 SWAP1 POP JUMP JUMPDEST PUSH1 0x0 DUP1 PUSH1 0x0 SWAP1 POP PUSH27 0x184F03E93FF9F4DAA797ED6E38ED64BF6A1F010000000000000000 DUP4 LT PUSH2 0x2E13 JUMPI PUSH27 0x184F03E93FF9F4DAA797ED6E38ED64BF6A1F010000000000000000 DUP4 DUP2 PUSH2 0x2E09 JUMPI PUSH2 0x2E08 PUSH2 0x4BAF JUMP JUMPDEST JUMPDEST DIV SWAP3 POP PUSH1 0x40 DUP2 ADD SWAP1 POP JUMPDEST PUSH14 0x4EE2D6D415B85ACEF8100000000 DUP4 LT PUSH2 0x2E50 JUMPI PUSH14 0x4EE2D6D415B85ACEF8100000000 DUP4 DUP2 PUSH2 0x2E46 JUMPI PUSH2 0x2E45 PUSH2 0x4BAF JUMP JUMPDEST JUMPDEST DIV SWAP3 POP PUSH1 0x20 DUP2 ADD SWAP1 POP JUMPDEST PUSH7 0x2386F26FC10000 DUP4 LT PUSH2 0x2E7F JUMPI PUSH7 0x2386F26FC10000 DUP4 DUP2 PUSH2 0x2E75 JUMPI PUSH2 0x2E74 PUSH2 0x4BAF JUMP JUMPDEST JUMPDEST DIV SWAP3 POP PUSH1 0x10 DUP2 ADD SWAP1 POP JUMPDEST PUSH4 0x5F5E100 DUP4 LT PUSH2 0x2EA8 JUMPI PUSH4 0x5F5E100 DUP4 DUP2 PUSH2 0x2E9E JUMPI PUSH2 0x2E9D PUSH2 0x4BAF JUMP JUMPDEST JUMPDEST DIV SWAP3 POP PUSH1 0x8 DUP2 ADD SWAP1 POP JUMPDEST PUSH2 0x2710 DUP4 LT PUSH2 0x2ECD JUMPI PUSH2 0x2710 DUP4 DUP2 PUSH2 0x2EC3 JUMPI PUSH2 0x2EC2 PUSH2 0x4BAF JUMP JUMPDEST JUMPDEST DIV SWAP3 POP PUSH1 0x4 DUP2 ADD SWAP1 POP JUMPDEST PUSH1 0x64 DUP4 LT PUSH2 0x2EF0 JUMPI PUSH1 0x64 DUP4 DUP2 PUSH2 0x2EE6 JUMPI PUSH2 0x2EE5 PUSH2 0x4BAF JUMP JUMPDEST JUMPDEST DIV SWAP3 POP PUSH1 0x2 DUP2 ADD SWAP1 POP JUMPDEST PUSH1 0xA DUP4 LT PUSH2 0x2EFF JUMPI PUSH1 0x1 DUP2 ADD SWAP1 POP JUMPDEST DUP1 SWAP2 POP POP SWAP2 SWAP1 POP JUMP JUMPDEST PUSH1 0x0 DUP1 PUSH20 0xFFFFFFFFFFFFFFFFFFFFFFFFFFFFFFFFFFFFFFFF AND PUSH2 0x2F2A DUP4 PUSH2 0x28AF JUMP JUMPDEST PUSH20 0xFFFFFFFFFFFFFFFFFFFFFFFFFFFFFFFFFFFFFFFF AND EQ ISZERO SWAP1 POP SWAP2 SWAP1 POP JUMP JUMPDEST PUSH1 0x1 DUP2 GT ISZERO PUSH2 0x3069 JUMPI PUSH1 0x0 PUSH20 0xFFFFFFFFFFFFFFFFFFFFFFFFFFFFFFFFFFFFFFFF AND DUP5 PUSH20 0xFFFFFFFFFFFFFFFFFFFFFFFFFFFFFFFFFFFFFFFF AND EQ PUSH2 0x2FDD JUMPI DUP1 PUSH1 0x4 PUSH1 0x0 DUP7 PUSH20 0xFFFFFFFFFFFFFFFFFFFFFFFFFFFFFFFFFFFFFFFF AND PUSH20 0xFFFFFFFFFFFFFFFFFFFFFFFFFFFFFFFFFFFFFFFF AND DUP2 MSTORE PUSH1 0x20 ADD SWAP1 DUP2 MSTORE PUSH1 0x20 ADD PUSH1 0x0 KECCAK256 PUSH1 0x0 DUP3 DUP3 SLOAD PUSH2 0x2FD5 SWAP2 SWAP1 PUSH2 0x49A6 JUMP JUMPDEST SWAP3 POP POP DUP2 SWAP1 SSTORE POP JUMPDEST PUSH1 0x0 PUSH20 0xFFFFFFFFFFFFFFFFFFFFFFFFFFFFFFFFFFFFFFFF AND DUP4 PUSH20 0xFFFFFFFFFFFFFFFFFFFFFFFFFFFFFFFFFFFFFFFF AND EQ PUSH2 0x3068 JUMPI DUP1 PUSH1 0x4 PUSH1 0x0 DUP6 PUSH20 0xFFFFFFFFFFFFFFFFFFFFFFFFFFFFFFFFFFFFFFFF AND PUSH20 0xFFFFFFFFFFFFFFFFFFFFFFFFFFFFFFFFFFFFFFFF AND DUP2 MSTORE PUSH1 0x20 ADD SWAP1 DUP2 MSTORE PUSH1 0x20 ADD PUSH1 0x0 KECCAK256 PUSH1 0x0 DUP3 DUP3 SLOAD PUSH2 0x3060 SWAP2 SWAP1 PUSH2 0x4F65 JUMP JUMPDEST SWAP3 POP POP DUP2 SWAP1 SSTORE POP JUMPDEST JUMPDEST POP POP POP POP JUMP JUMPDEST POP POP POP POP JUMP JUMPDEST PUSH1 0x0 PUSH2 0x3080 DUP3 PUSH2 0x1059 JUMP JUMPDEST SWAP1 POP PUSH2 0x3090 DUP2 PUSH1 0x0 DUP5 PUSH1 0x1 PUSH2 0x2F49 JUMP JUMPDEST PUSH2 0x3099 DUP3 PUSH2 0x1059 JUMP JUMPDEST SWAP1 POP PUSH1 0x5 PUSH1 0x0 DUP4 DUP2 MSTORE PUSH1 0x20 ADD SWAP1 DUP2 MSTORE PUSH1 0x20 ADD PUSH1 0x0 KECCAK256 PUSH1 0x0 PUSH2 0x100 EXP DUP2 SLOAD SWAP1 PUSH20 0xFFFFFFFFFFFFFFFFFFFFFFFFFFFFFFFFFFFFFFFF MUL NOT AND SWAP1 SSTORE PUSH1 0x1 PUSH1 0x4 PUSH1 0x0 DUP4 PUSH20 0xFFFFFFFFFFFFFFFFFFFFFFFFFFFFFFFFFFFFFFFF AND PUSH20 0xFFFFFFFFFFFFFFFFFFFFFFFFFFFFFFFFFFFFFFFF AND DUP2 MSTORE PUSH1 0x20 ADD SWAP1 DUP2 MSTORE PUSH1 0x20 ADD PUSH1 0x0 KECCAK256 PUSH1 0x0 DUP3 DUP3 SLOAD SUB SWAP3 POP POP DUP2 SWAP1 SSTORE POP PUSH1 0x3 PUSH1 0x0 DUP4 DUP2 MSTORE PUSH1 0x20 ADD SWAP1 DUP2 MSTORE PUSH1 0x20 ADD PUSH1 0x0 KECCAK256 PUSH1 0x0 PUSH2 0x100 EXP DUP2 SLOAD SWAP1 PUSH20 0xFFFFFFFFFFFFFFFFFFFFFFFFFFFFFFFFFFFFFFFF MUL NOT AND SWAP1 SSTORE DUP2 PUSH1 0x0 PUSH20 0xFFFFFFFFFFFFFFFFFFFFFFFFFFFFFFFFFFFFFFFF AND DUP3 PUSH20 0xFFFFFFFFFFFFFFFFFFFFFFFFFFFFFFFFFFFFFFFF AND PUSH32 0xDDF252AD1BE2C89B69C2B068FC378DAA952BA7F163C4A11628F55A4DF523B3EF PUSH1 0x40 MLOAD PUSH1 0x40 MLOAD DUP1 SWAP2 SUB SWAP1 LOG4 PUSH2 0x31BF DUP2 PUSH1 0x0 DUP5 PUSH1 0x1 PUSH2 0x306F JUMP JUMPDEST POP POP JUMP JUMPDEST PUSH2 0x31CD DUP4 DUP4 PUSH2 0x346C JUMP JUMPDEST PUSH2 0x31DA PUSH1 0x0 DUP5 DUP5 DUP5 PUSH2 0x32E5 JUMP JUMPDEST PUSH2 0x3219 JUMPI PUSH1 0x40 MLOAD PUSH32 0x8C379A000000000000000000000000000000000000000000000000000000000 DUP2 MSTORE PUSH1 0x4 ADD PUSH2 0x3210 SWAP1 PUSH2 0x544A JUMP JUMPDEST PUSH1 0x40 MLOAD DUP1 SWAP2 SUB SWAP1 REVERT JUMPDEST POP POP POP JUMP JUMPDEST PUSH1 0x0 PUSH2 0x3280 DUP3 PUSH1 0x40 MLOAD DUP1 PUSH1 0x40 ADD PUSH1 0x40 MSTORE DUP1 PUSH1 0x20 DUP2 MSTORE PUSH1 0x20 ADD PUSH32 0x5361666545524332303A206C6F772D6C6576656C2063616C6C206661696C6564 DUP2 MSTORE POP DUP6 PUSH20 0xFFFFFFFFFFFFFFFFFFFFFFFFFFFFFFFFFFFFFFFF AND PUSH2 0x3689 SWAP1 SWAP3 SWAP2 SWAP1 PUSH4 0xFFFFFFFF AND JUMP JUMPDEST SWAP1 POP PUSH1 0x0 DUP2 MLOAD GT ISZERO PUSH2 0x32E0 JUMPI DUP1 DUP1 PUSH1 0x20 ADD SWAP1 MLOAD DUP2 ADD SWAP1 PUSH2 0x32A0 SWAP2 SWAP1 PUSH2 0x4A84 JUMP JUMPDEST PUSH2 0x32DF JUMPI PUSH1 0x40 MLOAD PUSH32 0x8C379A000000000000000000000000000000000000000000000000000000000 DUP2 MSTORE PUSH1 0x4 ADD PUSH2 0x32D6 SWAP1 PUSH2 0x54DC JUMP JUMPDEST PUSH1 0x40 MLOAD DUP1 SWAP2 SUB SWAP1 REVERT JUMPDEST JUMPDEST POP POP POP JUMP JUMPDEST PUSH1 0x0 PUSH2 0x3306 DUP5 PUSH20 0xFFFFFFFFFFFFFFFFFFFFFFFFFFFFFFFFFFFFFFFF AND PUSH2 0x36A1 JUMP JUMPDEST ISZERO PUSH2 0x345F JUMPI DUP4 PUSH20 0xFFFFFFFFFFFFFFFFFFFFFFFFFFFFFFFFFFFFFFFF AND PUSH4 0x150B7A02 PUSH2 0x332F PUSH2 0x238F JUMP JUMPDEST DUP8 DUP7 DUP7 PUSH1 0x40 MLOAD DUP6 PUSH4 0xFFFFFFFF AND PUSH1 0xE0 SHL DUP2 MSTORE PUSH1 0x4 ADD PUSH2 0x3351 SWAP5 SWAP4 SWAP3 SWAP2 SWAP1 PUSH2 0x5551 JUMP JUMPDEST PUSH1 0x20 PUSH1 0x40 MLOAD DUP1 DUP4 SUB DUP2 PUSH1 0x0 DUP8 GAS CALL SWAP3 POP POP POP DUP1 ISZERO PUSH2 0x338D JUMPI POP PUSH1 0x40 MLOAD RETURNDATASIZE PUSH1 0x1F NOT PUSH1 0x1F DUP3 ADD AND DUP3 ADD DUP1 PUSH1 0x40 MSTORE POP DUP2 ADD SWAP1 PUSH2 0x338A SWAP2 SWAP1 PUSH2 0x55B2 JUMP JUMPDEST PUSH1 0x1 JUMPDEST PUSH2 0x340F JUMPI RETURNDATASIZE DUP1 PUSH1 0x0 DUP2 EQ PUSH2 0x33BD JUMPI PUSH1 0x40 MLOAD SWAP2 POP PUSH1 0x1F NOT PUSH1 0x3F RETURNDATASIZE ADD AND DUP3 ADD PUSH1 0x40 MSTORE RETURNDATASIZE DUP3 MSTORE RETURNDATASIZE PUSH1 0x0 PUSH1 0x20 DUP5 ADD RETURNDATACOPY PUSH2 0x33C2 JUMP JUMPDEST PUSH1 0x60 SWAP2 POP JUMPDEST POP PUSH1 0x0 DUP2 MLOAD SUB PUSH2 0x3407 JUMPI PUSH1 0x40 MLOAD PUSH32 0x8C379A000000000000000000000000000000000000000000000000000000000 DUP2 MSTORE PUSH1 0x4 ADD PUSH2 0x33FE SWAP1 PUSH2 0x544A JUMP JUMPDEST PUSH1 0x40 MLOAD DUP1 SWAP2 SUB SWAP1 REVERT JUMPDEST DUP1 MLOAD DUP2 PUSH1 0x20 ADD REVERT JUMPDEST PUSH4 0x150B7A02 PUSH1 0xE0 SHL PUSH28 0xFFFFFFFFFFFFFFFFFFFFFFFFFFFFFFFFFFFFFFFFFFFFFFFFFFFFFFFF NOT AND DUP2 PUSH28 0xFFFFFFFFFFFFFFFFFFFFFFFFFFFFFFFFFFFFFFFFFFFFFFFFFFFFFFFF NOT AND EQ SWAP2 POP POP PUSH2 0x3464 JUMP JUMPDEST PUSH1 0x1 SWAP1 POP JUMPDEST SWAP5 SWAP4 POP POP POP POP JUMP JUMPDEST PUSH1 0x0 PUSH20 0xFFFFFFFFFFFFFFFFFFFFFFFFFFFFFFFFFFFFFFFF AND DUP3 PUSH20 0xFFFFFFFFFFFFFFFFFFFFFFFFFFFFFFFFFFFFFFFF AND SUB PUSH2 0x34DB JUMPI PUSH1 0x40 MLOAD PUSH32 0x8C379A000000000000000000000000000000000000000000000000000000000 DUP2 MSTORE PUSH1 0x4 ADD PUSH2 0x34D2 SWAP1 PUSH2 0x562B JUMP JUMPDEST PUSH1 0x40 MLOAD DUP1 SWAP2 SUB SWAP1 REVERT JUMPDEST PUSH2 0x34E4 DUP2 PUSH2 0x2F08 JUMP JUMPDEST ISZERO PUSH2 0x3524 JUMPI PUSH1 0x40 MLOAD PUSH32 0x8C379A000000000000000000000000000000000000000000000000000000000 DUP2 MSTORE PUSH1 0x4 ADD PUSH2 0x351B SWAP1 PUSH2 0x5697 JUMP JUMPDEST PUSH1 0x40 MLOAD DUP1 SWAP2 SUB SWAP1 REVERT JUMPDEST PUSH2 0x3532 PUSH1 0x0 DUP4 DUP4 PUSH1 0x1 PUSH2 0x2F49 JUMP JUMPDEST PUSH2 0x353B DUP2 PUSH2 0x2F08 JUMP JUMPDEST ISZERO PUSH2 0x357B JUMPI PUSH1 0x40 MLOAD PUSH32 0x8C379A000000000000000000000000000000000000000000000000000000000 DUP2 MSTORE PUSH1 0x4 ADD PUSH2 0x3572 SWAP1 PUSH2 0x5697 JUMP JUMPDEST PUSH1 0x40 MLOAD DUP1 SWAP2 SUB SWAP1 REVERT JUMPDEST PUSH1 0x1 PUSH1 0x4 PUSH1 0x0 DUP5 PUSH20 0xFFFFFFFFFFFFFFFFFFFFFFFFFFFFFFFFFFFFFFFF AND PUSH20 0xFFFFFFFFFFFFFFFFFFFFFFFFFFFFFFFFFFFFFFFF AND DUP2 MSTORE PUSH1 0x20 ADD SWAP1 DUP2 MSTORE PUSH1 0x20 ADD PUSH1 0x0 KECCAK256 PUSH1 0x0 DUP3 DUP3 SLOAD ADD SWAP3 POP POP DUP2 SWAP1 SSTORE POP DUP2 PUSH1 0x3 PUSH1 0x0 DUP4 DUP2 MSTORE PUSH1 0x20 ADD SWAP1 DUP2 MSTORE PUSH1 0x20 ADD PUSH1 0x0 KECCAK256 PUSH1 0x0 PUSH2 0x100 EXP DUP2 SLOAD DUP2 PUSH20 0xFFFFFFFFFFFFFFFFFFFFFFFFFFFFFFFFFFFFFFFF MUL NOT AND SWAP1 DUP4 PUSH20 0xFFFFFFFFFFFFFFFFFFFFFFFFFFFFFFFFFFFFFFFF AND MUL OR SWAP1 SSTORE POP DUP1 DUP3 PUSH20 0xFFFFFFFFFFFFFFFFFFFFFFFFFFFFFFFFFFFFFFFF AND PUSH1 0x0 PUSH20 0xFFFFFFFFFFFFFFFFFFFFFFFFFFFFFFFFFFFFFFFF AND PUSH32 0xDDF252AD1BE2C89B69C2B068FC378DAA952BA7F163C4A11628F55A4DF523B3EF PUSH1 0x40 MLOAD PUSH1 0x40 MLOAD DUP1 SWAP2 SUB SWAP1 LOG4 PUSH2 0x3685 PUSH1 0x0 DUP4 DUP4 PUSH1 0x1 PUSH2 0x306F JUMP JUMPDEST POP POP JUMP JUMPDEST PUSH1 0x60 PUSH2 0x3698 DUP5 DUP5 PUSH1 0x0 DUP6 PUSH2 0x36C4 JUMP JUMPDEST SWAP1 POP SWAP4 SWAP3 POP POP POP JUMP JUMPDEST PUSH1 0x0 DUP1 DUP3 PUSH20 0xFFFFFFFFFFFFFFFFFFFFFFFFFFFFFFFFFFFFFFFF AND EXTCODESIZE GT SWAP1 POP SWAP2 SWAP1 POP JUMP JUMPDEST PUSH1 0x60 DUP3 SELFBALANCE LT ISZERO PUSH2 0x3709 JUMPI PUSH1 0x40 MLOAD PUSH32 0x8C379A000000000000000000000000000000000000000000000000000000000 DUP2 MSTORE PUSH1 0x4 ADD PUSH2 0x3700 SWAP1 PUSH2 0x5729 JUMP JUMPDEST PUSH1 0x40 MLOAD DUP1 SWAP2 SUB SWAP1 REVERT JUMPDEST PUSH1 0x0 DUP1 DUP7 PUSH20 0xFFFFFFFFFFFFFFFFFFFFFFFFFFFFFFFFFFFFFFFF AND DUP6 DUP8 PUSH1 0x40 MLOAD PUSH2 0x3732 SWAP2 SWAP1 PUSH2 0x5785 JUMP JUMPDEST PUSH1 0x0 PUSH1 0x40 MLOAD DUP1 DUP4 SUB DUP2 DUP6 DUP8 GAS CALL SWAP3 POP POP POP RETURNDATASIZE DUP1 PUSH1 0x0 DUP2 EQ PUSH2 0x376F JUMPI PUSH1 0x40 MLOAD SWAP2 POP PUSH1 0x1F NOT PUSH1 0x3F RETURNDATASIZE ADD AND DUP3 ADD PUSH1 0x40 MSTORE RETURNDATASIZE DUP3 MSTORE RETURNDATASIZE PUSH1 0x0 PUSH1 0x20 DUP5 ADD RETURNDATACOPY PUSH2 0x3774 JUMP JUMPDEST PUSH1 0x60 SWAP2 POP JUMPDEST POP SWAP2 POP SWAP2 POP PUSH2 0x3785 DUP8 DUP4 DUP4 DUP8 PUSH2 0x3791 JUMP JUMPDEST SWAP3 POP POP POP SWAP5 SWAP4 POP POP POP POP JUMP JUMPDEST PUSH1 0x60 DUP4 ISZERO PUSH2 0x37F3 JUMPI PUSH1 0x0 DUP4 MLOAD SUB PUSH2 0x37EB JUMPI PUSH2 0x37AB DUP6 PUSH2 0x36A1 JUMP JUMPDEST PUSH2 0x37EA JUMPI PUSH1 0x40 MLOAD PUSH32 0x8C379A000000000000000000000000000000000000000000000000000000000 DUP2 MSTORE PUSH1 0x4 ADD PUSH2 0x37E1 SWAP1 PUSH2 0x57E8 JUMP JUMPDEST PUSH1 0x40 MLOAD DUP1 SWAP2 SUB SWAP1 REVERT JUMPDEST JUMPDEST DUP3 SWAP1 POP PUSH2 0x37FE JUMP JUMPDEST PUSH2 0x37FD DUP4 DUP4 PUSH2 0x3806 JUMP JUMPDEST JUMPDEST SWAP5 SWAP4 POP POP POP POP JUMP JUMPDEST PUSH1 0x0 DUP3 MLOAD GT ISZERO PUSH2 0x3819 JUMPI DUP2 MLOAD DUP1 DUP4 PUSH1 0x20 ADD REVERT JUMPDEST DUP1 PUSH1 0x40 MLOAD PUSH32 0x8C379A000000000000000000000000000000000000000000000000000000000 DUP2 MSTORE PUSH1 0x4 ADD PUSH2 0x384D SWAP2 SWAP1 PUSH2 0x3C0E JUMP JUMPDEST PUSH1 0x40 MLOAD DUP1 SWAP2 SUB SWAP1 REVERT JUMPDEST POP DUP1 SLOAD PUSH2 0x3862 SWAP1 PUSH2 0x46E2 JUMP JUMPDEST PUSH1 0x0 DUP3 SSTORE DUP1 PUSH1 0x1F LT PUSH2 0x3874 JUMPI POP PUSH2 0x3893 JUMP JUMPDEST PUSH1 0x1F ADD PUSH1 0x20 SWAP1 DIV SWAP1 PUSH1 0x0 MSTORE PUSH1 0x20 PUSH1 0x0 KECCAK256 SWAP1 DUP2 ADD SWAP1 PUSH2 0x3892 SWAP2 SWAP1 PUSH2 0x3896 JUMP JUMPDEST JUMPDEST POP JUMP JUMPDEST JUMPDEST DUP1 DUP3 GT ISZERO PUSH2 0x38AF JUMPI PUSH1 0x0 DUP2 PUSH1 0x0 SWAP1 SSTORE POP PUSH1 0x1 ADD PUSH2 0x3897 JUMP JUMPDEST POP SWAP1 JUMP JUMPDEST PUSH1 0x0 PUSH1 0x40 MLOAD SWAP1 POP SWAP1 JUMP JUMPDEST PUSH1 0x0 DUP1 REVERT JUMPDEST PUSH1 0x0 DUP1 REVERT JUMPDEST PUSH1 0x0 DUP2 SWAP1 POP SWAP2 SWAP1 POP JUMP JUMPDEST PUSH2 0x38DA DUP2 PUSH2 0x38C7 JUMP JUMPDEST DUP2 EQ PUSH2 0x38E5 JUMPI PUSH1 0x0 DUP1 REVERT JUMPDEST POP JUMP JUMPDEST PUSH1 0x0 DUP2 CALLDATALOAD SWAP1 POP PUSH2 0x38F7 DUP2 PUSH2 0x38D1 JUMP JUMPDEST SWAP3 SWAP2 POP POP JUMP JUMPDEST PUSH1 0x0 PUSH20 0xFFFFFFFFFFFFFFFFFFFFFFFFFFFFFFFFFFFFFFFF DUP3 AND SWAP1 POP SWAP2 SWAP1 POP JUMP JUMPDEST PUSH1 0x0 PUSH2 0x3928 DUP3 PUSH2 0x38FD JUMP JUMPDEST SWAP1 POP SWAP2 SWAP1 POP JUMP JUMPDEST PUSH2 0x3938 DUP2 PUSH2 0x391D JUMP JUMPDEST DUP2 EQ PUSH2 0x3943 JUMPI PUSH1 0x0 DUP1 REVERT JUMPDEST POP JUMP JUMPDEST PUSH1 0x0 DUP2 CALLDATALOAD SWAP1 POP PUSH2 0x3955 DUP2 PUSH2 0x392F JUMP JUMPDEST SWAP3 SWAP2 POP POP JUMP JUMPDEST PUSH1 0x0 DUP1 REVERT JUMPDEST PUSH1 0x0 DUP1 REVERT JUMPDEST PUSH1 0x0 PUSH1 0x1F NOT PUSH1 0x1F DUP4 ADD AND SWAP1 POP SWAP2 SWAP1 POP JUMP JUMPDEST PUSH32 0x4E487B7100000000000000000000000000000000000000000000000000000000 PUSH1 0x0 MSTORE PUSH1 0x41 PUSH1 0x4 MSTORE PUSH1 0x24 PUSH1 0x0 REVERT JUMPDEST PUSH2 0x39AE DUP3 PUSH2 0x3965 JUMP JUMPDEST DUP2 ADD DUP2 DUP2 LT PUSH8 0xFFFFFFFFFFFFFFFF DUP3 GT OR ISZERO PUSH2 0x39CD JUMPI PUSH2 0x39CC PUSH2 0x3976 JUMP JUMPDEST JUMPDEST DUP1 PUSH1 0x40 MSTORE POP POP POP JUMP JUMPDEST PUSH1 0x0 PUSH2 0x39E0 PUSH2 0x38B3 JUMP JUMPDEST SWAP1 POP PUSH2 0x39EC DUP3 DUP3 PUSH2 0x39A5 JUMP JUMPDEST SWAP2 SWAP1 POP JUMP JUMPDEST PUSH1 0x0 PUSH8 0xFFFFFFFFFFFFFFFF DUP3 GT ISZERO PUSH2 0x3A0C JUMPI PUSH2 0x3A0B PUSH2 0x3976 JUMP JUMPDEST JUMPDEST PUSH2 0x3A15 DUP3 PUSH2 0x3965 JUMP JUMPDEST SWAP1 POP PUSH1 0x20 DUP2 ADD SWAP1 POP SWAP2 SWAP1 POP JUMP JUMPDEST DUP3 DUP2 DUP4 CALLDATACOPY PUSH1 0x0 DUP4 DUP4 ADD MSTORE POP POP POP JUMP JUMPDEST PUSH1 0x0 PUSH2 0x3A44 PUSH2 0x3A3F DUP5 PUSH2 0x39F1 JUMP JUMPDEST PUSH2 0x39D6 JUMP JUMPDEST SWAP1 POP DUP3 DUP2 MSTORE PUSH1 0x20 DUP2 ADD DUP5 DUP5 DUP5 ADD GT ISZERO PUSH2 0x3A60 JUMPI PUSH2 0x3A5F PUSH2 0x3960 JUMP JUMPDEST JUMPDEST PUSH2 0x3A6B DUP5 DUP3 DUP6 PUSH2 0x3A22 JUMP JUMPDEST POP SWAP4 SWAP3 POP POP POP JUMP JUMPDEST PUSH1 0x0 DUP3 PUSH1 0x1F DUP4 ADD SLT PUSH2 0x3A88 JUMPI PUSH2 0x3A87 PUSH2 0x395B JUMP JUMPDEST JUMPDEST DUP2 CALLDATALOAD PUSH2 0x3A98 DUP5 DUP3 PUSH1 0x20 DUP7 ADD PUSH2 0x3A31 JUMP JUMPDEST SWAP2 POP POP SWAP3 SWAP2 POP POP JUMP JUMPDEST PUSH1 0x0 DUP1 PUSH1 0x0 DUP1 PUSH1 0x0 DUP1 PUSH1 0x0 DUP1 PUSH2 0x100 DUP10 DUP12 SUB SLT ISZERO PUSH2 0x3AC2 JUMPI PUSH2 0x3AC1 PUSH2 0x38BD JUMP JUMPDEST JUMPDEST PUSH1 0x0 PUSH2 0x3AD0 DUP12 DUP3 DUP13 ADD PUSH2 0x38E8 JUMP JUMPDEST SWAP9 POP POP PUSH1 0x20 PUSH2 0x3AE1 DUP12 DUP3 DUP13 ADD PUSH2 0x38E8 JUMP JUMPDEST SWAP8 POP POP PUSH1 0x40 PUSH2 0x3AF2 DUP12 DUP3 DUP13 ADD PUSH2 0x38E8 JUMP JUMPDEST SWAP7 POP POP PUSH1 0x60 PUSH2 0x3B03 DUP12 DUP3 DUP13 ADD PUSH2 0x3946 JUMP JUMPDEST SWAP6 POP POP PUSH1 0x80 PUSH2 0x3B14 DUP12 DUP3 DUP13 ADD PUSH2 0x3946 JUMP JUMPDEST SWAP5 POP POP PUSH1 0xA0 DUP10 ADD CALLDATALOAD PUSH8 0xFFFFFFFFFFFFFFFF DUP2 GT ISZERO PUSH2 0x3B35 JUMPI PUSH2 0x3B34 PUSH2 0x38C2 JUMP JUMPDEST JUMPDEST PUSH2 0x3B41 DUP12 DUP3 DUP13 ADD PUSH2 0x3A73 JUMP JUMPDEST SWAP4 POP POP PUSH1 0xC0 DUP10 ADD CALLDATALOAD PUSH8 0xFFFFFFFFFFFFFFFF DUP2 GT ISZERO PUSH2 0x3B62 JUMPI PUSH2 0x3B61 PUSH2 0x38C2 JUMP JUMPDEST JUMPDEST PUSH2 0x3B6E DUP12 DUP3 DUP13 ADD PUSH2 0x3A73 JUMP JUMPDEST SWAP3 POP POP PUSH1 0xE0 PUSH2 0x3B7F DUP12 DUP3 DUP13 ADD PUSH2 0x38E8 JUMP JUMPDEST SWAP2 POP POP SWAP3 SWAP6 SWAP9 POP SWAP3 SWAP6 SWAP9 SWAP1 SWAP4 SWAP7 POP JUMP JUMPDEST PUSH1 0x0 DUP2 MLOAD SWAP1 POP SWAP2 SWAP1 POP JUMP JUMPDEST PUSH1 0x0 DUP3 DUP3 MSTORE PUSH1 0x20 DUP3 ADD SWAP1 POP SWAP3 SWAP2 POP POP JUMP JUMPDEST PUSH1 0x0 JUMPDEST DUP4 DUP2 LT ISZERO PUSH2 0x3BC9 JUMPI DUP1 DUP3 ADD MLOAD DUP2 DUP5 ADD MSTORE PUSH1 0x20 DUP2 ADD SWAP1 POP PUSH2 0x3BAE JUMP JUMPDEST PUSH1 0x0 DUP5 DUP5 ADD MSTORE POP POP POP POP JUMP JUMPDEST PUSH1 0x0 PUSH2 0x3BE0 DUP3 PUSH2 0x3B8F JUMP JUMPDEST PUSH2 0x3BEA DUP2 DUP6 PUSH2 0x3B9A JUMP JUMPDEST SWAP4 POP PUSH2 0x3BFA DUP2 DUP6 PUSH1 0x20 DUP7 ADD PUSH2 0x3BAB JUMP JUMPDEST PUSH2 0x3C03 DUP2 PUSH2 0x3965 JUMP JUMPDEST DUP5 ADD SWAP2 POP POP SWAP3 SWAP2 POP POP JUMP JUMPDEST PUSH1 0x0 PUSH1 0x20 DUP3 ADD SWAP1 POP DUP2 DUP2 SUB PUSH1 0x0 DUP4 ADD MSTORE PUSH2 0x3C28 DUP2 DUP5 PUSH2 0x3BD5 JUMP JUMPDEST SWAP1 POP SWAP3 SWAP2 POP POP JUMP JUMPDEST PUSH1 0x0 PUSH32 0xFFFFFFFF00000000000000000000000000000000000000000000000000000000 DUP3 AND SWAP1 POP SWAP2 SWAP1 POP JUMP JUMPDEST PUSH2 0x3C65 DUP2 PUSH2 0x3C30 JUMP JUMPDEST DUP2 EQ PUSH2 0x3C70 JUMPI PUSH1 0x0 DUP1 REVERT JUMPDEST POP JUMP JUMPDEST PUSH1 0x0 DUP2 CALLDATALOAD SWAP1 POP PUSH2 0x3C82 DUP2 PUSH2 0x3C5C JUMP JUMPDEST SWAP3 SWAP2 POP POP JUMP JUMPDEST PUSH1 0x0 PUSH1 0x20 DUP3 DUP5 SUB SLT ISZERO PUSH2 0x3C9E JUMPI PUSH2 0x3C9D PUSH2 0x38BD JUMP JUMPDEST JUMPDEST PUSH1 0x0 PUSH2 0x3CAC DUP5 DUP3 DUP6 ADD PUSH2 0x3C73 JUMP JUMPDEST SWAP2 POP POP SWAP3 SWAP2 POP POP JUMP JUMPDEST PUSH1 0x0 DUP2 ISZERO ISZERO SWAP1 POP SWAP2 SWAP1 POP JUMP JUMPDEST PUSH2 0x3CCA DUP2 PUSH2 0x3CB5 JUMP JUMPDEST DUP3 MSTORE POP POP JUMP JUMPDEST PUSH1 0x0 PUSH1 0x20 DUP3 ADD SWAP1 POP PUSH2 0x3CE5 PUSH1 0x0 DUP4 ADD DUP5 PUSH2 0x3CC1 JUMP JUMPDEST SWAP3 SWAP2 POP POP JUMP JUMPDEST PUSH1 0x0 PUSH1 0x20 DUP3 DUP5 SUB SLT ISZERO PUSH2 0x3D01 JUMPI PUSH2 0x3D00 PUSH2 0x38BD JUMP JUMPDEST JUMPDEST PUSH1 0x0 PUSH2 0x3D0F DUP5 DUP3 DUP6 ADD PUSH2 0x38E8 JUMP JUMPDEST SWAP2 POP POP SWAP3 SWAP2 POP POP JUMP JUMPDEST PUSH2 0x3D21 DUP2 PUSH2 0x391D JUMP JUMPDEST DUP3 MSTORE POP POP JUMP JUMPDEST PUSH1 0x0 PUSH1 0x20 DUP3 ADD SWAP1 POP PUSH2 0x3D3C PUSH1 0x0 DUP4 ADD DUP5 PUSH2 0x3D18 JUMP JUMPDEST SWAP3 SWAP2 POP POP JUMP JUMPDEST PUSH1 0x0 DUP1 PUSH1 0x40 DUP4 DUP6 SUB SLT ISZERO PUSH2 0x3D59 JUMPI PUSH2 0x3D58 PUSH2 0x38BD JUMP JUMPDEST JUMPDEST PUSH1 0x0 PUSH2 0x3D67 DUP6 DUP3 DUP7 ADD PUSH2 0x3946 JUMP JUMPDEST SWAP3 POP POP PUSH1 0x20 PUSH2 0x3D78 DUP6 DUP3 DUP7 ADD PUSH2 0x38E8 JUMP JUMPDEST SWAP2 POP POP SWAP3 POP SWAP3 SWAP1 POP JUMP JUMPDEST PUSH2 0x3D8B DUP2 PUSH2 0x38C7 JUMP JUMPDEST DUP3 MSTORE POP POP JUMP JUMPDEST PUSH1 0x0 PUSH1 0x20 DUP3 ADD SWAP1 POP PUSH2 0x3DA6 PUSH1 0x0 DUP4 ADD DUP5 PUSH2 0x3D82 JUMP JUMPDEST SWAP3 SWAP2 POP POP JUMP JUMPDEST PUSH1 0x0 DUP1 PUSH1 0x0 PUSH1 0x60 DUP5 DUP7 SUB SLT ISZERO PUSH2 0x3DC5 JUMPI PUSH2 0x3DC4 PUSH2 0x38BD JUMP JUMPDEST JUMPDEST PUSH1 0x0 PUSH2 0x3DD3 DUP7 DUP3 DUP8 ADD PUSH2 0x3946 JUMP JUMPDEST SWAP4 POP POP PUSH1 0x20 PUSH2 0x3DE4 DUP7 DUP3 DUP8 ADD PUSH2 0x3946 JUMP JUMPDEST SWAP3 POP POP PUSH1 0x40 PUSH2 0x3DF5 DUP7 DUP3 DUP8 ADD PUSH2 0x38E8 JUMP JUMPDEST SWAP2 POP POP SWAP3 POP SWAP3 POP SWAP3 JUMP JUMPDEST PUSH1 0x0 PUSH1 0x20 DUP3 DUP5 SUB SLT ISZERO PUSH2 0x3E15 JUMPI PUSH2 0x3E14 PUSH2 0x38BD JUMP JUMPDEST JUMPDEST PUSH1 0x0 PUSH2 0x3E23 DUP5 DUP3 DUP6 ADD PUSH2 0x3946 JUMP JUMPDEST SWAP2 POP POP SWAP3 SWAP2 POP POP JUMP JUMPDEST PUSH2 0x3E35 DUP2 PUSH2 0x3CB5 JUMP JUMPDEST DUP2 EQ PUSH2 0x3E40 JUMPI PUSH1 0x0 DUP1 REVERT JUMPDEST POP JUMP JUMPDEST PUSH1 0x0 DUP2 CALLDATALOAD SWAP1 POP PUSH2 0x3E52 DUP2 PUSH2 0x3E2C JUMP JUMPDEST SWAP3 SWAP2 POP POP JUMP JUMPDEST PUSH1 0x0 DUP1 PUSH1 0x40 DUP4 DUP6 SUB SLT ISZERO PUSH2 0x3E6F JUMPI PUSH2 0x3E6E PUSH2 0x38BD JUMP JUMPDEST JUMPDEST PUSH1 0x0 PUSH2 0x3E7D DUP6 DUP3 DUP7 ADD PUSH2 0x3946 JUMP JUMPDEST SWAP3 POP POP PUSH1 0x20 PUSH2 0x3E8E DUP6 DUP3 DUP7 ADD PUSH2 0x3E43 JUMP JUMPDEST SWAP2 POP POP SWAP3 POP SWAP3 SWAP1 POP JUMP JUMPDEST PUSH1 0x0 DUP1 PUSH1 0x40 DUP4 DUP6 SUB SLT ISZERO PUSH2 0x3EAF JUMPI PUSH2 0x3EAE PUSH2 0x38BD JUMP JUMPDEST JUMPDEST PUSH1 0x0 PUSH2 0x3EBD DUP6 DUP3 DUP7 ADD PUSH2 0x38E8 JUMP JUMPDEST SWAP3 POP POP PUSH1 0x20 PUSH2 0x3ECE DUP6 DUP3 DUP7 ADD PUSH2 0x38E8 JUMP JUMPDEST SWAP2 POP POP SWAP3 POP SWAP3 SWAP1 POP JUMP JUMPDEST PUSH1 0x0 PUSH8 0xFFFFFFFFFFFFFFFF DUP3 GT ISZERO PUSH2 0x3EF3 JUMPI PUSH2 0x3EF2 PUSH2 0x3976 JUMP JUMPDEST JUMPDEST PUSH2 0x3EFC DUP3 PUSH2 0x3965 JUMP JUMPDEST SWAP1 POP PUSH1 0x20 DUP2 ADD SWAP1 POP SWAP2 SWAP1 POP JUMP JUMPDEST PUSH1 0x0 PUSH2 0x3F1C PUSH2 0x3F17 DUP5 PUSH2 0x3ED8 JUMP JUMPDEST PUSH2 0x39D6 JUMP JUMPDEST SWAP1 POP DUP3 DUP2 MSTORE PUSH1 0x20 DUP2 ADD DUP5 DUP5 DUP5 ADD GT ISZERO PUSH2 0x3F38 JUMPI PUSH2 0x3F37 PUSH2 0x3960 JUMP JUMPDEST JUMPDEST PUSH2 0x3F43 DUP5 DUP3 DUP6 PUSH2 0x3A22 JUMP JUMPDEST POP SWAP4 SWAP3 POP POP POP JUMP JUMPDEST PUSH1 0x0 DUP3 PUSH1 0x1F DUP4 ADD SLT PUSH2 0x3F60 JUMPI PUSH2 0x3F5F PUSH2 0x395B JUMP JUMPDEST JUMPDEST DUP2 CALLDATALOAD PUSH2 0x3F70 DUP5 DUP3 PUSH1 0x20 DUP7 ADD PUSH2 0x3F09 JUMP JUMPDEST SWAP2 POP POP SWAP3 SWAP2 POP POP JUMP JUMPDEST PUSH1 0x0 DUP1 PUSH1 0x0 DUP1 PUSH1 0x80 DUP6 DUP8 SUB SLT ISZERO PUSH2 0x3F93 JUMPI PUSH2 0x3F92 PUSH2 0x38BD JUMP JUMPDEST JUMPDEST PUSH1 0x0 PUSH2 0x3FA1 DUP8 DUP3 DUP9 ADD PUSH2 0x3946 JUMP JUMPDEST SWAP5 POP POP PUSH1 0x20 PUSH2 0x3FB2 DUP8 DUP3 DUP9 ADD PUSH2 0x3946 JUMP JUMPDEST SWAP4 POP POP PUSH1 0x40 PUSH2 0x3FC3 DUP8 DUP3 DUP9 ADD PUSH2 0x38E8 JUMP JUMPDEST SWAP3 POP POP PUSH1 0x60 DUP6 ADD CALLDATALOAD PUSH8 0xFFFFFFFFFFFFFFFF DUP2 GT ISZERO PUSH2 0x3FE4 JUMPI PUSH2 0x3FE3 PUSH2 0x38C2 JUMP JUMPDEST JUMPDEST PUSH2 0x3FF0 DUP8 DUP3 DUP9 ADD PUSH2 0x3F4B JUMP JUMPDEST SWAP2 POP POP SWAP3 SWAP6 SWAP2 SWAP5 POP SWAP3 POP JUMP JUMPDEST PUSH1 0x0 PUSH2 0x140 DUP3 ADD SWAP1 POP PUSH2 0x4012 PUSH1 0x0 DUP4 ADD DUP14 PUSH2 0x3D82 JUMP JUMPDEST PUSH2 0x401F PUSH1 0x20 DUP4 ADD DUP13 PUSH2 0x3D82 JUMP JUMPDEST PUSH2 0x402C PUSH1 0x40 DUP4 ADD DUP12 PUSH2 0x3D82 JUMP JUMPDEST PUSH2 0x4039 PUSH1 0x60 DUP4 ADD DUP11 PUSH2 0x3D18 JUMP JUMPDEST PUSH2 0x4046 PUSH1 0x80 DUP4 ADD DUP10 PUSH2 0x3D18 JUMP JUMPDEST DUP2 DUP2 SUB PUSH1 0xA0 DUP4 ADD MSTORE PUSH2 0x4058 DUP2 DUP9 PUSH2 0x3BD5 JUMP JUMPDEST SWAP1 POP DUP2 DUP2 SUB PUSH1 0xC0 DUP4 ADD MSTORE PUSH2 0x406C DUP2 DUP8 PUSH2 0x3BD5 JUMP JUMPDEST SWAP1 POP PUSH2 0x407B PUSH1 0xE0 DUP4 ADD DUP7 PUSH2 0x3D82 JUMP JUMPDEST PUSH2 0x4089 PUSH2 0x100 DUP4 ADD DUP6 PUSH2 0x3D82 JUMP JUMPDEST PUSH2 0x4097 PUSH2 0x120 DUP4 ADD DUP5 PUSH2 0x3CC1 JUMP JUMPDEST SWAP12 SWAP11 POP POP POP POP POP POP POP POP POP POP POP JUMP JUMPDEST PUSH1 0x0 DUP1 PUSH1 0x40 DUP4 DUP6 SUB SLT ISZERO PUSH2 0x40BD JUMPI PUSH2 0x40BC PUSH2 0x38BD JUMP JUMPDEST JUMPDEST PUSH1 0x0 PUSH2 0x40CB DUP6 DUP3 DUP7 ADD PUSH2 0x3946 JUMP JUMPDEST SWAP3 POP POP PUSH1 0x20 PUSH2 0x40DC DUP6 DUP3 DUP7 ADD PUSH2 0x3946 JUMP JUMPDEST SWAP2 POP POP SWAP3 POP SWAP3 SWAP1 POP JUMP JUMPDEST PUSH1 0x0 DUP2 SWAP1 POP SWAP3 SWAP2 POP POP JUMP JUMPDEST PUSH32 0x7B226E616D65223A20224D7920436F6E7472616374222C202264657363726970 PUSH1 0x0 DUP3 ADD MSTORE PUSH32 0x74696F6E223A202254686973206973206465706F73697420616E642077697468 PUSH1 0x20 DUP3 ADD MSTORE PUSH32 0x6472617720636F6E7472616374222C202261747472696275746573223A205B7B PUSH1 0x40 DUP3 ADD MSTORE PUSH32 0x202274726169745F74797065223A20226465706F7369746564222C2276616C75 PUSH1 0x60 DUP3 ADD MSTORE PUSH32 0x65223A2022000000000000000000000000000000000000000000000000000000 PUSH1 0x80 DUP3 ADD MSTORE POP JUMP JUMPDEST PUSH1 0x0 PUSH2 0x41BF PUSH1 0x85 DUP4 PUSH2 0x40E6 JUMP JUMPDEST SWAP2 POP PUSH2 0x41CA DUP3 PUSH2 0x40F1 JUMP JUMPDEST PUSH1 0x85 DUP3 ADD SWAP1 POP SWAP2 SWAP1 POP JUMP JUMPDEST PUSH1 0x0 PUSH2 0x41E0 DUP3 PUSH2 0x3B8F JUMP JUMPDEST PUSH2 0x41EA DUP2 DUP6 PUSH2 0x40E6 JUMP JUMPDEST SWAP4 POP PUSH2 0x41FA DUP2 DUP6 PUSH1 0x20 DUP7 ADD PUSH2 0x3BAB JUMP JUMPDEST DUP1 DUP5 ADD SWAP2 POP POP SWAP3 SWAP2 POP POP JUMP JUMPDEST PUSH32 0x227D2C7B2274726169745F74797065223A20226D61747572697479222C227661 PUSH1 0x0 DUP3 ADD MSTORE PUSH32 0x6C7565223A202200000000000000000000000000000000000000000000000000 PUSH1 0x20 DUP3 ADD MSTORE POP JUMP JUMPDEST PUSH1 0x0 PUSH2 0x4262 PUSH1 0x27 DUP4 PUSH2 0x40E6 JUMP JUMPDEST SWAP2 POP PUSH2 0x426D DUP3 PUSH2 0x4206 JUMP JUMPDEST PUSH1 0x27 DUP3 ADD SWAP1 POP SWAP2 SWAP1 POP JUMP JUMPDEST PUSH32 0x227D2C7B2274726169745F74797065223A202270657263656E74616765222C22 PUSH1 0x0 DUP3 ADD MSTORE PUSH32 0x76616C7565223A20220000000000000000000000000000000000000000000000 PUSH1 0x20 DUP3 ADD MSTORE POP JUMP JUMPDEST PUSH1 0x0 PUSH2 0x42D4 PUSH1 0x29 DUP4 PUSH2 0x40E6 JUMP JUMPDEST SWAP2 POP PUSH2 0x42DF DUP3 PUSH2 0x4278 JUMP JUMPDEST PUSH1 0x29 DUP3 ADD SWAP1 POP SWAP2 SWAP1 POP JUMP JUMPDEST PUSH32 0x227D2C7B202274726169745F74797065223A20224552433230436F6E74726163 PUSH1 0x0 DUP3 ADD MSTORE PUSH32 0x7441646472657373222C2276616C7565223A2022000000000000000000000000 PUSH1 0x20 DUP3 ADD MSTORE POP JUMP JUMPDEST PUSH1 0x0 PUSH2 0x4346 PUSH1 0x34 DUP4 PUSH2 0x40E6 JUMP JUMPDEST SWAP2 POP PUSH2 0x4351 DUP3 PUSH2 0x42EA JUMP JUMPDEST PUSH1 0x34 DUP3 ADD SWAP1 POP SWAP2 SWAP1 POP JUMP JUMPDEST PUSH32 0x227D2C7B2274726169745F74797065223A20224E4654436F6E74726163744164 PUSH1 0x0 DUP3 ADD MSTORE PUSH32 0x6472657373222C2276616C7565223A2022000000000000000000000000000000 PUSH1 0x20 DUP3 ADD MSTORE POP JUMP JUMPDEST PUSH1 0x0 PUSH2 0x43B8 PUSH1 0x31 DUP4 PUSH2 0x40E6 JUMP JUMPDEST SWAP2 POP PUSH2 0x43C3 DUP3 PUSH2 0x435C JUMP JUMPDEST PUSH1 0x31 DUP3 ADD SWAP1 POP SWAP2 SWAP1 POP JUMP JUMPDEST PUSH32 0x227D2C7B2274726169745F74797065223A2022436F6E74726163744E616D6522 PUSH1 0x0 DUP3 ADD MSTORE PUSH32 0x2C2276616C7565223A2022000000000000000000000000000000000000000000 PUSH1 0x20 DUP3 ADD MSTORE POP JUMP JUMPDEST PUSH1 0x0 PUSH2 0x442A PUSH1 0x2B DUP4 PUSH2 0x40E6 JUMP JUMPDEST SWAP2 POP PUSH2 0x4435 DUP3 PUSH2 0x43CE JUMP JUMPDEST PUSH1 0x2B DUP3 ADD SWAP1 POP SWAP2 SWAP1 POP JUMP JUMPDEST PUSH32 0x227D2C7B202274726169745F74797065223A2022436F6E747261637453796D62 PUSH1 0x0 DUP3 ADD MSTORE PUSH32 0x6F6C222C2276616C7565223A2022000000000000000000000000000000000000 PUSH1 0x20 DUP3 ADD MSTORE POP JUMP JUMPDEST PUSH1 0x0 PUSH2 0x449C PUSH1 0x2E DUP4 PUSH2 0x40E6 JUMP JUMPDEST SWAP2 POP PUSH2 0x44A7 DUP3 PUSH2 0x4440 JUMP JUMPDEST PUSH1 0x2E DUP3 ADD SWAP1 POP SWAP2 SWAP1 POP JUMP JUMPDEST PUSH32 0x227D2C7B2274726169745F74797065223A2022546F74616C436C61696D222C22 PUSH1 0x0 DUP3 ADD MSTORE PUSH32 0x76616C7565223A20220000000000000000000000000000000000000000000000 PUSH1 0x20 DUP3 ADD MSTORE POP JUMP JUMPDEST PUSH1 0x0 PUSH2 0x450E PUSH1 0x29 DUP4 PUSH2 0x40E6 JUMP JUMPDEST SWAP2 POP PUSH2 0x4519 DUP3 PUSH2 0x44B2 JUMP JUMPDEST PUSH1 0x29 DUP3 ADD SWAP1 POP SWAP2 SWAP1 POP JUMP JUMPDEST PUSH32 0x227D5D7D00000000000000000000000000000000000000000000000000000000 PUSH1 0x0 DUP3 ADD MSTORE POP JUMP JUMPDEST PUSH1 0x0 PUSH2 0x455A PUSH1 0x4 DUP4 PUSH2 0x40E6 JUMP JUMPDEST SWAP2 POP PUSH2 0x4565 DUP3 PUSH2 0x4524 JUMP JUMPDEST PUSH1 0x4 DUP3 ADD SWAP1 POP SWAP2 SWAP1 POP JUMP JUMPDEST PUSH1 0x0 PUSH2 0x457B DUP3 PUSH2 0x41B2 JUMP JUMPDEST SWAP2 POP PUSH2 0x4587 DUP3 DUP12 PUSH2 0x41D5 JUMP JUMPDEST SWAP2 POP PUSH2 0x4592 DUP3 PUSH2 0x4255 JUMP JUMPDEST SWAP2 POP PUSH2 0x459E DUP3 DUP11 PUSH2 0x41D5 JUMP JUMPDEST SWAP2 POP PUSH2 0x45A9 DUP3 PUSH2 0x42C7 JUMP JUMPDEST SWAP2 POP PUSH2 0x45B5 DUP3 DUP10 PUSH2 0x41D5 JUMP JUMPDEST SWAP2 POP PUSH2 0x45C0 DUP3 PUSH2 0x4339 JUMP JUMPDEST SWAP2 POP PUSH2 0x45CC DUP3 DUP9 PUSH2 0x41D5 JUMP JUMPDEST SWAP2 POP PUSH2 0x45D7 DUP3 PUSH2 0x43AB JUMP JUMPDEST SWAP2 POP PUSH2 0x45E3 DUP3 DUP8 PUSH2 0x41D5 JUMP JUMPDEST SWAP2 POP PUSH2 0x45EE DUP3 PUSH2 0x441D JUMP JUMPDEST SWAP2 POP PUSH2 0x45FA DUP3 DUP7 PUSH2 0x41D5 JUMP JUMPDEST SWAP2 POP PUSH2 0x4605 DUP3 PUSH2 0x448F JUMP JUMPDEST SWAP2 POP PUSH2 0x4611 DUP3 DUP6 PUSH2 0x41D5 JUMP JUMPDEST SWAP2 POP PUSH2 0x461C DUP3 PUSH2 0x4501 JUMP JUMPDEST SWAP2 POP PUSH2 0x4628 DUP3 DUP5 PUSH2 0x41D5 JUMP JUMPDEST SWAP2 POP PUSH2 0x4633 DUP3 PUSH2 0x454D JUMP JUMPDEST SWAP2 POP DUP2 SWAP1 POP SWAP10 SWAP9 POP POP POP POP POP POP POP POP POP JUMP JUMPDEST PUSH32 0x646174613A6170706C69636174696F6E2F6A736F6E3B6261736536342C000000 PUSH1 0x0 DUP3 ADD MSTORE POP JUMP JUMPDEST PUSH1 0x0 PUSH2 0x467B PUSH1 0x1D DUP4 PUSH2 0x40E6 JUMP JUMPDEST SWAP2 POP PUSH2 0x4686 DUP3 PUSH2 0x4645 JUMP JUMPDEST PUSH1 0x1D DUP3 ADD SWAP1 POP SWAP2 SWAP1 POP JUMP JUMPDEST PUSH1 0x0 PUSH2 0x469C DUP3 PUSH2 0x466E JUMP JUMPDEST SWAP2 POP PUSH2 0x46A8 DUP3 DUP5 PUSH2 0x41D5 JUMP JUMPDEST SWAP2 POP DUP2 SWAP1 POP SWAP3 SWAP2 POP POP JUMP JUMPDEST PUSH32 0x4E487B7100000000000000000000000000000000000000000000000000000000 PUSH1 0x0 MSTORE PUSH1 0x22 PUSH1 0x4 MSTORE PUSH1 0x24 PUSH1 0x0 REVERT JUMPDEST PUSH1 0x0 PUSH1 0x2 DUP3 DIV SWAP1 POP PUSH1 0x1 DUP3 AND DUP1 PUSH2 0x46FA JUMPI PUSH1 0x7F DUP3 AND SWAP2 POP JUMPDEST PUSH1 0x20 DUP3 LT DUP2 SUB PUSH2 0x470D JUMPI PUSH2 0x470C PUSH2 0x46B3 JUMP JUMPDEST JUMPDEST POP SWAP2 SWAP1 POP JUMP JUMPDEST PUSH32 0x4552433732313A20617070726F76616C20746F2063757272656E74206F776E65 PUSH1 0x0 DUP3 ADD MSTORE PUSH32 0x7200000000000000000000000000000000000000000000000000000000000000 PUSH1 0x20 DUP3 ADD MSTORE POP JUMP JUMPDEST PUSH1 0x0 PUSH2 0x476F PUSH1 0x21 DUP4 PUSH2 0x3B9A JUMP JUMPDEST SWAP2 POP PUSH2 0x477A DUP3 PUSH2 0x4713 JUMP JUMPDEST PUSH1 0x40 DUP3 ADD SWAP1 POP SWAP2 SWAP1 POP JUMP JUMPDEST PUSH1 0x0 PUSH1 0x20 DUP3 ADD SWAP1 POP DUP2 DUP2 SUB PUSH1 0x0 DUP4 ADD MSTORE PUSH2 0x479E DUP2 PUSH2 0x4762 JUMP JUMPDEST SWAP1 POP SWAP2 SWAP1 POP JUMP JUMPDEST PUSH32 0x4552433732313A20617070726F76652063616C6C6572206973206E6F7420746F PUSH1 0x0 DUP3 ADD MSTORE PUSH32 0x6B656E206F776E6572206F7220617070726F76656420666F7220616C6C000000 PUSH1 0x20 DUP3 ADD MSTORE POP JUMP JUMPDEST PUSH1 0x0 PUSH2 0x4801 PUSH1 0x3D DUP4 PUSH2 0x3B9A JUMP JUMPDEST SWAP2 POP PUSH2 0x480C DUP3 PUSH2 0x47A5 JUMP JUMPDEST PUSH1 0x40 DUP3 ADD SWAP1 POP SWAP2 SWAP1 POP JUMP JUMPDEST PUSH1 0x0 PUSH1 0x20 DUP3 ADD SWAP1 POP DUP2 DUP2 SUB PUSH1 0x0 DUP4 ADD MSTORE PUSH2 0x4830 DUP2 PUSH2 0x47F4 JUMP JUMPDEST SWAP1 POP SWAP2 SWAP1 POP JUMP JUMPDEST PUSH32 0x4552433732313A2063616C6C6572206973206E6F7420746F6B656E206F776E65 PUSH1 0x0 DUP3 ADD MSTORE PUSH32 0x72206F7220617070726F76656400000000000000000000000000000000000000 PUSH1 0x20 DUP3 ADD MSTORE POP JUMP JUMPDEST PUSH1 0x0 PUSH2 0x4893 PUSH1 0x2D DUP4 PUSH2 0x3B9A JUMP JUMPDEST SWAP2 POP PUSH2 0x489E DUP3 PUSH2 0x4837 JUMP JUMPDEST PUSH1 0x40 DUP3 ADD SWAP1 POP SWAP2 SWAP1 POP JUMP JUMPDEST PUSH1 0x0 PUSH1 0x20 DUP3 ADD SWAP1 POP DUP2 DUP2 SUB PUSH1 0x0 DUP4 ADD MSTORE PUSH2 0x48C2 DUP2 PUSH2 0x4886 JUMP JUMPDEST SWAP1 POP SWAP2 SWAP1 POP JUMP JUMPDEST PUSH32 0x506C65617365204669727374205374616B650000000000000000000000000000 PUSH1 0x0 DUP3 ADD MSTORE POP JUMP JUMPDEST PUSH1 0x0 PUSH2 0x48FF PUSH1 0x12 DUP4 PUSH2 0x3B9A JUMP JUMPDEST SWAP2 POP PUSH2 0x490A DUP3 PUSH2 0x48C9 JUMP JUMPDEST PUSH1 0x20 DUP3 ADD SWAP1 POP SWAP2 SWAP1 POP JUMP JUMPDEST PUSH1 0x0 PUSH1 0x20 DUP3 ADD SWAP1 POP DUP2 DUP2 SUB PUSH1 0x0 DUP4 ADD MSTORE PUSH2 0x492E DUP2 PUSH2 0x48F2 JUMP JUMPDEST SWAP1 POP SWAP2 SWAP1 POP JUMP JUMPDEST PUSH32 0x4E487B7100000000000000000000000000000000000000000000000000000000 PUSH1 0x0 MSTORE PUSH1 0x11 PUSH1 0x4 MSTORE PUSH1 0x24 PUSH1 0x0 REVERT JUMPDEST PUSH1 0x0 PUSH2 0x496F DUP3 PUSH2 0x38C7 JUMP JUMPDEST SWAP2 POP PUSH2 0x497A DUP4 PUSH2 0x38C7 JUMP JUMPDEST SWAP3 POP DUP3 DUP3 MUL PUSH2 0x4988 DUP2 PUSH2 0x38C7 JUMP JUMPDEST SWAP2 POP DUP3 DUP3 DIV DUP5 EQ DUP4 ISZERO OR PUSH2 0x499F JUMPI PUSH2 0x499E PUSH2 0x4935 JUMP JUMPDEST JUMPDEST POP SWAP3 SWAP2 POP POP JUMP JUMPDEST PUSH1 0x0 PUSH2 0x49B1 DUP3 PUSH2 0x38C7 JUMP JUMPDEST SWAP2 POP PUSH2 0x49BC DUP4 PUSH2 0x38C7 JUMP JUMPDEST SWAP3 POP DUP3 DUP3 SUB SWAP1 POP DUP2 DUP2 GT ISZERO PUSH2 0x49D4 JUMPI PUSH2 0x49D3 PUSH2 0x4935 JUMP JUMPDEST JUMPDEST SWAP3 SWAP2 POP POP JUMP JUMPDEST PUSH32 0x596F75722054696D6520706572696F64206973206E6F7420636F6D706C657465 PUSH1 0x0 DUP3 ADD MSTORE POP JUMP JUMPDEST PUSH1 0x0 PUSH2 0x4A10 PUSH1 0x20 DUP4 PUSH2 0x3B9A JUMP JUMPDEST SWAP2 POP PUSH2 0x4A1B DUP3 PUSH2 0x49DA JUMP JUMPDEST PUSH1 0x20 DUP3 ADD SWAP1 POP SWAP2 SWAP1 POP JUMP JUMPDEST PUSH1 0x0 PUSH1 0x20 DUP3 ADD SWAP1 POP DUP2 DUP2 SUB PUSH1 0x0 DUP4 ADD MSTORE PUSH2 0x4A3F DUP2 PUSH2 0x4A03 JUMP JUMPDEST SWAP1 POP SWAP2 SWAP1 POP JUMP JUMPDEST PUSH1 0x0 PUSH1 0x40 DUP3 ADD SWAP1 POP PUSH2 0x4A5B PUSH1 0x0 DUP4 ADD DUP6 PUSH2 0x3D18 JUMP JUMPDEST PUSH2 0x4A68 PUSH1 0x20 DUP4 ADD DUP5 PUSH2 0x3D82 JUMP JUMPDEST SWAP4 SWAP3 POP POP POP JUMP JUMPDEST PUSH1 0x0 DUP2 MLOAD SWAP1 POP PUSH2 0x4A7E DUP2 PUSH2 0x3E2C JUMP JUMPDEST SWAP3 SWAP2 POP POP JUMP JUMPDEST PUSH1 0x0 PUSH1 0x20 DUP3 DUP5 SUB SLT ISZERO PUSH2 0x4A9A JUMPI PUSH2 0x4A99 PUSH2 0x38BD JUMP JUMPDEST JUMPDEST PUSH1 0x0 PUSH2 0x4AA8 DUP5 DUP3 DUP6 ADD PUSH2 0x4A6F JUMP JUMPDEST SWAP2 POP POP SWAP3 SWAP2 POP POP JUMP JUMPDEST PUSH32 0x4552433732313A20696E76616C696420746F6B656E2049440000000000000000 PUSH1 0x0 DUP3 ADD MSTORE POP JUMP JUMPDEST PUSH1 0x0 PUSH2 0x4AE7 PUSH1 0x18 DUP4 PUSH2 0x3B9A JUMP JUMPDEST SWAP2 POP PUSH2 0x4AF2 DUP3 PUSH2 0x4AB1 JUMP JUMPDEST PUSH1 0x20 DUP3 ADD SWAP1 POP SWAP2 SWAP1 POP JUMP JUMPDEST PUSH1 0x0 PUSH1 0x20 DUP3 ADD SWAP1 POP DUP2 DUP2 SUB PUSH1 0x0 DUP4 ADD MSTORE PUSH2 0x4B16 DUP2 PUSH2 0x4ADA JUMP JUMPDEST SWAP1 POP SWAP2 SWAP1 POP JUMP JUMPDEST PUSH32 0x4552433732313A2061646472657373207A65726F206973206E6F742061207661 PUSH1 0x0 DUP3 ADD MSTORE PUSH32 0x6C6964206F776E65720000000000000000000000000000000000000000000000 PUSH1 0x20 DUP3 ADD MSTORE POP JUMP JUMPDEST PUSH1 0x0 PUSH2 0x4B79 PUSH1 0x29 DUP4 PUSH2 0x3B9A JUMP JUMPDEST SWAP2 POP PUSH2 0x4B84 DUP3 PUSH2 0x4B1D JUMP JUMPDEST PUSH1 0x40 DUP3 ADD SWAP1 POP SWAP2 SWAP1 POP JUMP JUMPDEST PUSH1 0x0 PUSH1 0x20 DUP3 ADD SWAP1 POP DUP2 DUP2 SUB PUSH1 0x0 DUP4 ADD MSTORE PUSH2 0x4BA8 DUP2 PUSH2 0x4B6C JUMP JUMPDEST SWAP1 POP SWAP2 SWAP1 POP JUMP JUMPDEST PUSH32 0x4E487B7100000000000000000000000000000000000000000000000000000000 PUSH1 0x0 MSTORE PUSH1 0x12 PUSH1 0x4 MSTORE PUSH1 0x24 PUSH1 0x0 REVERT JUMPDEST PUSH1 0x0 PUSH2 0x4BE9 DUP3 PUSH2 0x38C7 JUMP JUMPDEST SWAP2 POP PUSH2 0x4BF4 DUP4 PUSH2 0x38C7 JUMP JUMPDEST SWAP3 POP DUP3 PUSH2 0x4C04 JUMPI PUSH2 0x4C03 PUSH2 0x4BAF JUMP JUMPDEST JUMPDEST DUP3 DUP3 DIV SWAP1 POP SWAP3 SWAP2 POP POP JUMP JUMPDEST PUSH32 0x506C656173652046697273742057697468447261770000000000000000000000 PUSH1 0x0 DUP3 ADD MSTORE POP JUMP JUMPDEST PUSH1 0x0 PUSH2 0x4C45 PUSH1 0x15 DUP4 PUSH2 0x3B9A JUMP JUMPDEST SWAP2 POP PUSH2 0x4C50 DUP3 PUSH2 0x4C0F JUMP JUMPDEST PUSH1 0x20 DUP3 ADD SWAP1 POP SWAP2 SWAP1 POP JUMP JUMPDEST PUSH1 0x0 PUSH1 0x20 DUP3 ADD SWAP1 POP DUP2 DUP2 SUB PUSH1 0x0 DUP4 ADD MSTORE PUSH2 0x4C74 DUP2 PUSH2 0x4C38 JUMP JUMPDEST SWAP1 POP SWAP2 SWAP1 POP JUMP JUMPDEST PUSH1 0x0 DUP2 SWAP1 POP DUP2 PUSH1 0x0 MSTORE PUSH1 0x20 PUSH1 0x0 KECCAK256 SWAP1 POP SWAP2 SWAP1 POP JUMP JUMPDEST PUSH1 0x0 PUSH1 0x20 PUSH1 0x1F DUP4 ADD DIV SWAP1 POP SWAP2 SWAP1 POP JUMP JUMPDEST PUSH1 0x0 DUP3 DUP3 SHL SWAP1 POP SWAP3 SWAP2 POP POP JUMP JUMPDEST PUSH1 0x0 PUSH1 0x8 DUP4 MUL PUSH2 0x4CDD PUSH32 0xFFFFFFFFFFFFFFFFFFFFFFFFFFFFFFFFFFFFFFFFFFFFFFFFFFFFFFFFFFFFFFFF DUP3 PUSH2 0x4CA0 JUMP JUMPDEST PUSH2 0x4CE7 DUP7 DUP4 PUSH2 0x4CA0 JUMP JUMPDEST SWAP6 POP DUP1 NOT DUP5 AND SWAP4 POP DUP1 DUP7 AND DUP5 OR SWAP3 POP POP POP SWAP4 SWAP3 POP POP POP JUMP JUMPDEST PUSH1 0x0 DUP2 SWAP1 POP SWAP2 SWAP1 POP JUMP JUMPDEST PUSH1 0x0 PUSH2 0x4D24 PUSH2 0x4D1F PUSH2 0x4D1A DUP5 PUSH2 0x38C7 JUMP JUMPDEST PUSH2 0x4CFF JUMP JUMPDEST PUSH2 0x38C7 JUMP JUMPDEST SWAP1 POP SWAP2 SWAP1 POP JUMP JUMPDEST PUSH1 0x0 DUP2 SWAP1 POP SWAP2 SWAP1 POP JUMP JUMPDEST PUSH2 0x4D3E DUP4 PUSH2 0x4D09 JUMP JUMPDEST PUSH2 0x4D52 PUSH2 0x4D4A DUP3 PUSH2 0x4D2B JUMP JUMPDEST DUP5 DUP5 SLOAD PUSH2 0x4CAD JUMP JUMPDEST DUP3 SSTORE POP POP POP POP JUMP JUMPDEST PUSH1 0x0 SWAP1 JUMP JUMPDEST PUSH2 0x4D67 PUSH2 0x4D5A JUMP JUMPDEST PUSH2 0x4D72 DUP2 DUP5 DUP5 PUSH2 0x4D35 JUMP JUMPDEST POP POP POP JUMP JUMPDEST JUMPDEST DUP2 DUP2 LT ISZERO PUSH2 0x4D96 JUMPI PUSH2 0x4D8B PUSH1 0x0 DUP3 PUSH2 0x4D5F JUMP JUMPDEST PUSH1 0x1 DUP2 ADD SWAP1 POP PUSH2 0x4D78 JUMP JUMPDEST POP POP JUMP JUMPDEST PUSH1 0x1F DUP3 GT ISZERO PUSH2 0x4DDB JUMPI PUSH2 0x4DAC DUP2 PUSH2 0x4C7B JUMP JUMPDEST PUSH2 0x4DB5 DUP5 PUSH2 0x4C90 JUMP JUMPDEST DUP2 ADD PUSH1 0x20 DUP6 LT ISZERO PUSH2 0x4DC4 JUMPI DUP2 SWAP1 POP JUMPDEST PUSH2 0x4DD8 PUSH2 0x4DD0 DUP6 PUSH2 0x4C90 JUMP JUMPDEST DUP4 ADD DUP3 PUSH2 0x4D77 JUMP JUMPDEST POP POP JUMPDEST POP POP POP JUMP JUMPDEST PUSH1 0x0 DUP3 DUP3 SHR SWAP1 POP SWAP3 SWAP2 POP POP JUMP JUMPDEST PUSH1 0x0 PUSH2 0x4DFE PUSH1 0x0 NOT DUP5 PUSH1 0x8 MUL PUSH2 0x4DE0 JUMP JUMPDEST NOT DUP1 DUP4 AND SWAP2 POP POP SWAP3 SWAP2 POP POP JUMP JUMPDEST PUSH1 0x0 PUSH2 0x4E17 DUP4 DUP4 PUSH2 0x4DED JUMP JUMPDEST SWAP2 POP DUP3 PUSH1 0x2 MUL DUP3 OR SWAP1 POP SWAP3 SWAP2 POP POP JUMP JUMPDEST PUSH2 0x4E30 DUP3 PUSH2 0x3B8F JUMP JUMPDEST PUSH8 0xFFFFFFFFFFFFFFFF DUP2 GT ISZERO PUSH2 0x4E49 JUMPI PUSH2 0x4E48 PUSH2 0x3976 JUMP JUMPDEST JUMPDEST PUSH2 0x4E53 DUP3 SLOAD PUSH2 0x46E2 JUMP JUMPDEST PUSH2 0x4E5E DUP3 DUP3 DUP6 PUSH2 0x4D9A JUMP JUMPDEST PUSH1 0x0 PUSH1 0x20 SWAP1 POP PUSH1 0x1F DUP4 GT PUSH1 0x1 DUP2 EQ PUSH2 0x4E91 JUMPI PUSH1 0x0 DUP5 ISZERO PUSH2 0x4E7F JUMPI DUP3 DUP8 ADD MLOAD SWAP1 POP JUMPDEST PUSH2 0x4E89 DUP6 DUP3 PUSH2 0x4E0B JUMP JUMPDEST DUP7 SSTORE POP PUSH2 0x4EF1 JUMP JUMPDEST PUSH1 0x1F NOT DUP5 AND PUSH2 0x4E9F DUP7 PUSH2 0x4C7B JUMP JUMPDEST PUSH1 0x0 JUMPDEST DUP3 DUP2 LT ISZERO PUSH2 0x4EC7 JUMPI DUP5 DUP10 ADD MLOAD DUP3 SSTORE PUSH1 0x1 DUP3 ADD SWAP2 POP PUSH1 0x20 DUP6 ADD SWAP5 POP PUSH1 0x20 DUP2 ADD SWAP1 POP PUSH2 0x4EA2 JUMP JUMPDEST DUP7 DUP4 LT ISZERO PUSH2 0x4EE4 JUMPI DUP5 DUP10 ADD MLOAD PUSH2 0x4EE0 PUSH1 0x1F DUP10 AND DUP3 PUSH2 0x4DED JUMP JUMPDEST DUP4 SSTORE POP JUMPDEST PUSH1 0x1 PUSH1 0x2 DUP9 MUL ADD DUP9 SSTORE POP POP POP JUMPDEST POP POP POP POP POP POP JUMP JUMPDEST PUSH32 0x4F6E6C79204F776E65722063616E207472616E73666572000000000000000000 PUSH1 0x0 DUP3 ADD MSTORE POP JUMP JUMPDEST PUSH1 0x0 PUSH2 0x4F2F PUSH1 0x17 DUP4 PUSH2 0x3B9A JUMP JUMPDEST SWAP2 POP PUSH2 0x4F3A DUP3 PUSH2 0x4EF9 JUMP JUMPDEST PUSH1 0x20 DUP3 ADD SWAP1 POP SWAP2 SWAP1 POP JUMP JUMPDEST PUSH1 0x0 PUSH1 0x20 DUP3 ADD SWAP1 POP DUP2 DUP2 SUB PUSH1 0x0 DUP4 ADD MSTORE PUSH2 0x4F5E DUP2 PUSH2 0x4F22 JUMP JUMPDEST SWAP1 POP SWAP2 SWAP1 POP JUMP JUMPDEST PUSH1 0x0 PUSH2 0x4F70 DUP3 PUSH2 0x38C7 JUMP JUMPDEST SWAP2 POP PUSH2 0x4F7B DUP4 PUSH2 0x38C7 JUMP JUMPDEST SWAP3 POP DUP3 DUP3 ADD SWAP1 POP DUP1 DUP3 GT ISZERO PUSH2 0x4F93 JUMPI PUSH2 0x4F92 PUSH2 0x4935 JUMP JUMPDEST JUMPDEST SWAP3 SWAP2 POP POP JUMP JUMPDEST PUSH1 0x0 PUSH2 0x4FA5 DUP3 DUP6 PUSH2 0x41D5 JUMP JUMPDEST SWAP2 POP PUSH2 0x4FB1 DUP3 DUP5 PUSH2 0x41D5 JUMP JUMPDEST SWAP2 POP DUP2 SWAP1 POP SWAP4 SWAP3 POP POP POP JUMP JUMPDEST PUSH32 0x4F776E61626C653A206E6577206F776E657220697320746865207A65726F2061 PUSH1 0x0 DUP3 ADD MSTORE PUSH32 0x6464726573730000000000000000000000000000000000000000000000000000 PUSH1 0x20 DUP3 ADD MSTORE POP JUMP JUMPDEST PUSH1 0x0 PUSH2 0x5019 PUSH1 0x26 DUP4 PUSH2 0x3B9A JUMP JUMPDEST SWAP2 POP PUSH2 0x5024 DUP3 PUSH2 0x4FBD JUMP JUMPDEST PUSH1 0x40 DUP3 ADD SWAP1 POP SWAP2 SWAP1 POP JUMP JUMPDEST PUSH1 0x0 PUSH1 0x20 DUP3 ADD SWAP1 POP DUP2 DUP2 SUB PUSH1 0x0 DUP4 ADD MSTORE PUSH2 0x5048 DUP2 PUSH2 0x500C JUMP JUMPDEST SWAP1 POP SWAP2 SWAP1 POP JUMP JUMPDEST PUSH32 0x4E487B7100000000000000000000000000000000000000000000000000000000 PUSH1 0x0 MSTORE PUSH1 0x32 PUSH1 0x4 MSTORE PUSH1 0x24 PUSH1 0x0 REVERT JUMPDEST PUSH1 0x0 PUSH2 0x5089 DUP3 PUSH2 0x38C7 JUMP JUMPDEST SWAP2 POP PUSH1 0x0 DUP3 SUB PUSH2 0x509C JUMPI PUSH2 0x509B PUSH2 0x4935 JUMP JUMPDEST JUMPDEST PUSH1 0x1 DUP3 SUB SWAP1 POP SWAP2 SWAP1 POP JUMP JUMPDEST PUSH32 0x537472696E67733A20686578206C656E67746820696E73756666696369656E74 PUSH1 0x0 DUP3 ADD MSTORE POP JUMP JUMPDEST PUSH1 0x0 PUSH2 0x50DD PUSH1 0x20 DUP4 PUSH2 0x3B9A JUMP JUMPDEST SWAP2 POP PUSH2 0x50E8 DUP3 PUSH2 0x50A7 JUMP JUMPDEST PUSH1 0x20 DUP3 ADD SWAP1 POP SWAP2 SWAP1 POP JUMP JUMPDEST PUSH1 0x0 PUSH1 0x20 DUP3 ADD SWAP1 POP DUP2 DUP2 SUB PUSH1 0x0 DUP4 ADD MSTORE PUSH2 0x510C DUP2 PUSH2 0x50D0 JUMP JUMPDEST SWAP1 POP SWAP2 SWAP1 POP JUMP JUMPDEST PUSH32 0x4552433732313A207472616E736665722066726F6D20696E636F727265637420 PUSH1 0x0 DUP3 ADD MSTORE PUSH32 0x6F776E6572000000000000000000000000000000000000000000000000000000 PUSH1 0x20 DUP3 ADD MSTORE POP JUMP JUMPDEST PUSH1 0x0 PUSH2 0x516F PUSH1 0x25 DUP4 PUSH2 0x3B9A JUMP JUMPDEST SWAP2 POP PUSH2 0x517A DUP3 PUSH2 0x5113 JUMP JUMPDEST PUSH1 0x40 DUP3 ADD SWAP1 POP SWAP2 SWAP1 POP JUMP JUMPDEST PUSH1 0x0 PUSH1 0x20 DUP3 ADD SWAP1 POP DUP2 DUP2 SUB PUSH1 0x0 DUP4 ADD MSTORE PUSH2 0x519E DUP2 PUSH2 0x5162 JUMP JUMPDEST SWAP1 POP SWAP2 SWAP1 POP JUMP JUMPDEST PUSH32 0x4552433732313A207472616E7366657220746F20746865207A65726F20616464 PUSH1 0x0 DUP3 ADD MSTORE PUSH32 0x7265737300000000000000000000000000000000000000000000000000000000 PUSH1 0x20 DUP3 ADD MSTORE POP JUMP JUMPDEST PUSH1 0x0 PUSH2 0x5201 PUSH1 0x24 DUP4 PUSH2 0x3B9A JUMP JUMPDEST SWAP2 POP PUSH2 0x520C DUP3 PUSH2 0x51A5 JUMP JUMPDEST PUSH1 0x40 DUP3 ADD SWAP1 POP SWAP2 SWAP1 POP JUMP JUMPDEST PUSH1 0x0 PUSH1 0x20 DUP3 ADD SWAP1 POP DUP2 DUP2 SUB PUSH1 0x0 DUP4 ADD MSTORE PUSH2 0x5230 DUP2 PUSH2 0x51F4 JUMP JUMPDEST SWAP1 POP SWAP2 SWAP1 POP JUMP JUMPDEST PUSH32 0x4F776E61626C653A2063616C6C6572206973206E6F7420746865206F776E6572 PUSH1 0x0 DUP3 ADD MSTORE POP JUMP JUMPDEST PUSH1 0x0 PUSH2 0x526D PUSH1 0x20 DUP4 PUSH2 0x3B9A JUMP JUMPDEST SWAP2 POP PUSH2 0x5278 DUP3 PUSH2 0x5237 JUMP JUMPDEST PUSH1 0x20 DUP3 ADD SWAP1 POP SWAP2 SWAP1 POP JUMP JUMPDEST PUSH1 0x0 PUSH1 0x20 DUP3 ADD SWAP1 POP DUP2 DUP2 SUB PUSH1 0x0 DUP4 ADD MSTORE PUSH2 0x529C DUP2 PUSH2 0x5260 JUMP JUMPDEST SWAP1 POP SWAP2 SWAP1 POP JUMP JUMPDEST PUSH32 0x4552433732313A20617070726F766520746F2063616C6C657200000000000000 PUSH1 0x0 DUP3 ADD MSTORE POP JUMP JUMPDEST PUSH1 0x0 PUSH2 0x52D9 PUSH1 0x19 DUP4 PUSH2 0x3B9A JUMP JUMPDEST SWAP2 POP PUSH2 0x52E4 DUP3 PUSH2 0x52A3 JUMP JUMPDEST PUSH1 0x20 DUP3 ADD SWAP1 POP SWAP2 SWAP1 POP JUMP JUMPDEST PUSH1 0x0 PUSH1 0x20 DUP3 ADD SWAP1 POP DUP2 DUP2 SUB PUSH1 0x0 DUP4 ADD MSTORE PUSH2 0x5308 DUP2 PUSH2 0x52CC JUMP JUMPDEST SWAP1 POP SWAP2 SWAP1 POP JUMP JUMPDEST PUSH32 0x45524337323155524953746F726167653A2055524920736574206F66206E6F6E PUSH1 0x0 DUP3 ADD MSTORE PUSH32 0x6578697374656E7420746F6B656E000000000000000000000000000000000000 PUSH1 0x20 DUP3 ADD MSTORE POP JUMP JUMPDEST PUSH1 0x0 PUSH2 0x536B PUSH1 0x2E DUP4 PUSH2 0x3B9A JUMP JUMPDEST SWAP2 POP PUSH2 0x5376 DUP3 PUSH2 0x530F JUMP JUMPDEST PUSH1 0x40 DUP3 ADD SWAP1 POP SWAP2 SWAP1 POP JUMP JUMPDEST PUSH1 0x0 PUSH1 0x20 DUP3 ADD SWAP1 POP DUP2 DUP2 SUB PUSH1 0x0 DUP4 ADD MSTORE PUSH2 0x539A DUP2 PUSH2 0x535E JUMP JUMPDEST SWAP1 POP SWAP2 SWAP1 POP JUMP JUMPDEST PUSH1 0x0 PUSH1 0x60 DUP3 ADD SWAP1 POP PUSH2 0x53B6 PUSH1 0x0 DUP4 ADD DUP7 PUSH2 0x3D18 JUMP JUMPDEST PUSH2 0x53C3 PUSH1 0x20 DUP4 ADD DUP6 PUSH2 0x3D18 JUMP JUMPDEST PUSH2 0x53D0 PUSH1 0x40 DUP4 ADD DUP5 PUSH2 0x3D82 JUMP JUMPDEST SWAP5 SWAP4 POP POP POP POP JUMP JUMPDEST PUSH32 0x4552433732313A207472616E7366657220746F206E6F6E204552433732315265 PUSH1 0x0 DUP3 ADD MSTORE PUSH32 0x63656976657220696D706C656D656E7465720000000000000000000000000000 PUSH1 0x20 DUP3 ADD MSTORE POP JUMP JUMPDEST PUSH1 0x0 PUSH2 0x5434 PUSH1 0x32 DUP4 PUSH2 0x3B9A JUMP JUMPDEST SWAP2 POP PUSH2 0x543F DUP3 PUSH2 0x53D8 JUMP JUMPDEST PUSH1 0x40 DUP3 ADD SWAP1 POP SWAP2 SWAP1 POP JUMP JUMPDEST PUSH1 0x0 PUSH1 0x20 DUP3 ADD SWAP1 POP DUP2 DUP2 SUB PUSH1 0x0 DUP4 ADD MSTORE PUSH2 0x5463 DUP2 PUSH2 0x5427 JUMP JUMPDEST SWAP1 POP SWAP2 SWAP1 POP JUMP JUMPDEST PUSH32 0x5361666545524332303A204552433230206F7065726174696F6E20646964206E PUSH1 0x0 DUP3 ADD MSTORE PUSH32 0x6F74207375636365656400000000000000000000000000000000000000000000 PUSH1 0x20 DUP3 ADD MSTORE POP JUMP JUMPDEST PUSH1 0x0 PUSH2 0x54C6 PUSH1 0x2A DUP4 PUSH2 0x3B9A JUMP JUMPDEST SWAP2 POP PUSH2 0x54D1 DUP3 PUSH2 0x546A JUMP JUMPDEST PUSH1 0x40 DUP3 ADD SWAP1 POP SWAP2 SWAP1 POP JUMP JUMPDEST PUSH1 0x0 PUSH1 0x20 DUP3 ADD SWAP1 POP DUP2 DUP2 SUB PUSH1 0x0 DUP4 ADD MSTORE PUSH2 0x54F5 DUP2 PUSH2 0x54B9 JUMP JUMPDEST SWAP1 POP SWAP2 SWAP1 POP JUMP JUMPDEST PUSH1 0x0 DUP2 MLOAD SWAP1 POP SWAP2 SWAP1 POP JUMP JUMPDEST PUSH1 0x0 DUP3 DUP3 MSTORE PUSH1 0x20 DUP3 ADD SWAP1 POP SWAP3 SWAP2 POP POP JUMP JUMPDEST PUSH1 0x0 PUSH2 0x5523 DUP3 PUSH2 0x54FC JUMP JUMPDEST PUSH2 0x552D DUP2 DUP6 PUSH2 0x5507 JUMP JUMPDEST SWAP4 POP PUSH2 0x553D DUP2 DUP6 PUSH1 0x20 DUP7 ADD PUSH2 0x3BAB JUMP JUMPDEST PUSH2 0x5546 DUP2 PUSH2 0x3965 JUMP JUMPDEST DUP5 ADD SWAP2 POP POP SWAP3 SWAP2 POP POP JUMP JUMPDEST PUSH1 0x0 PUSH1 0x80 DUP3 ADD SWAP1 POP PUSH2 0x5566 PUSH1 0x0 DUP4 ADD DUP8 PUSH2 0x3D18 JUMP JUMPDEST PUSH2 0x5573 PUSH1 0x20 DUP4 ADD DUP7 PUSH2 0x3D18 JUMP JUMPDEST PUSH2 0x5580 PUSH1 0x40 DUP4 ADD DUP6 PUSH2 0x3D82 JUMP JUMPDEST DUP2 DUP2 SUB PUSH1 0x60 DUP4 ADD MSTORE PUSH2 0x5592 DUP2 DUP5 PUSH2 0x5518 JUMP JUMPDEST SWAP1 POP SWAP6 SWAP5 POP POP POP POP POP JUMP JUMPDEST PUSH1 0x0 DUP2 MLOAD SWAP1 POP PUSH2 0x55AC DUP2 PUSH2 0x3C5C JUMP JUMPDEST SWAP3 SWAP2 POP POP JUMP JUMPDEST PUSH1 0x0 PUSH1 0x20 DUP3 DUP5 SUB SLT ISZERO PUSH2 0x55C8 JUMPI PUSH2 0x55C7 PUSH2 0x38BD JUMP JUMPDEST JUMPDEST PUSH1 0x0 PUSH2 0x55D6 DUP5 DUP3 DUP6 ADD PUSH2 0x559D JUMP JUMPDEST SWAP2 POP POP SWAP3 SWAP2 POP POP JUMP JUMPDEST PUSH32 0x4552433732313A206D696E7420746F20746865207A65726F2061646472657373 PUSH1 0x0 DUP3 ADD MSTORE POP JUMP JUMPDEST PUSH1 0x0 PUSH2 0x5615 PUSH1 0x20 DUP4 PUSH2 0x3B9A JUMP JUMPDEST SWAP2 POP PUSH2 0x5620 DUP3 PUSH2 0x55DF JUMP JUMPDEST PUSH1 0x20 DUP3 ADD SWAP1 POP SWAP2 SWAP1 POP JUMP JUMPDEST PUSH1 0x0 PUSH1 0x20 DUP3 ADD SWAP1 POP DUP2 DUP2 SUB PUSH1 0x0 DUP4 ADD MSTORE PUSH2 0x5644 DUP2 PUSH2 0x5608 JUMP JUMPDEST SWAP1 POP SWAP2 SWAP1 POP JUMP JUMPDEST PUSH32 0x4552433732313A20746F6B656E20616C7265616479206D696E74656400000000 PUSH1 0x0 DUP3 ADD MSTORE POP JUMP JUMPDEST PUSH1 0x0 PUSH2 0x5681 PUSH1 0x1C DUP4 PUSH2 0x3B9A JUMP JUMPDEST SWAP2 POP PUSH2 0x568C DUP3 PUSH2 0x564B JUMP JUMPDEST PUSH1 0x20 DUP3 ADD SWAP1 POP SWAP2 SWAP1 POP JUMP JUMPDEST PUSH1 0x0 PUSH1 0x20 DUP3 ADD SWAP1 POP DUP2 DUP2 SUB PUSH1 0x0 DUP4 ADD MSTORE PUSH2 0x56B0 DUP2 PUSH2 0x5674 JUMP JUMPDEST SWAP1 POP SWAP2 SWAP1 POP JUMP JUMPDEST PUSH32 0x416464726573733A20696E73756666696369656E742062616C616E636520666F PUSH1 0x0 DUP3 ADD MSTORE PUSH32 0x722063616C6C0000000000000000000000000000000000000000000000000000 PUSH1 0x20 DUP3 ADD MSTORE POP JUMP JUMPDEST PUSH1 0x0 PUSH2 0x5713 PUSH1 0x26 DUP4 PUSH2 0x3B9A JUMP JUMPDEST SWAP2 POP PUSH2 0x571E DUP3 PUSH2 0x56B7 JUMP JUMPDEST PUSH1 0x40 DUP3 ADD SWAP1 POP SWAP2 SWAP1 POP JUMP JUMPDEST PUSH1 0x0 PUSH1 0x20 DUP3 ADD SWAP1 POP DUP2 DUP2 SUB PUSH1 0x0 DUP4 ADD MSTORE PUSH2 0x5742 DUP2 PUSH2 0x5706 JUMP JUMPDEST SWAP1 POP SWAP2 SWAP1 POP JUMP JUMPDEST PUSH1 0x0 DUP2 SWAP1 POP SWAP3 SWAP2 POP POP JUMP JUMPDEST PUSH1 0x0 PUSH2 0x575F DUP3 PUSH2 0x54FC JUMP JUMPDEST PUSH2 0x5769 DUP2 DUP6 PUSH2 0x5749 JUMP JUMPDEST SWAP4 POP PUSH2 0x5779 DUP2 DUP6 PUSH1 0x20 DUP7 ADD PUSH2 0x3BAB JUMP JUMPDEST DUP1 DUP5 ADD SWAP2 POP POP SWAP3 SWAP2 POP POP JUMP JUMPDEST PUSH1 0x0 PUSH2 0x5791 DUP3 DUP5 PUSH2 0x5754 JUMP JUMPDEST SWAP2 POP DUP2 SWAP1 POP SWAP3 SWAP2 POP POP JUMP JUMPDEST PUSH32 0x416464726573733A2063616C6C20746F206E6F6E2D636F6E7472616374000000 PUSH1 0x0 DUP3 ADD MSTORE POP JUMP JUMPDEST PUSH1 0x0 PUSH2 0x57D2 PUSH1 0x1D DUP4 PUSH2 0x3B9A JUMP JUMPDEST SWAP2 POP PUSH2 0x57DD DUP3 PUSH2 0x579C JUMP JUMPDEST PUSH1 0x20 DUP3 ADD SWAP1 POP SWAP2 SWAP1 POP JUMP JUMPDEST PUSH1 0x0 PUSH1 0x20 DUP3 ADD SWAP1 POP DUP2 DUP2 SUB PUSH1 0x0 DUP4 ADD MSTORE PUSH2 0x5801 DUP2 PUSH2 0x57C5 JUMP JUMPDEST SWAP1 POP SWAP2 SWAP1 POP JUMP INVALID COINBASE TIMESTAMP NUMBER DIFFICULTY GASLIMIT CHAINID SELFBALANCE BASEFEE 0x49 0x4A 0x4B 0x4C 0x4D 0x4E 0x4F POP MLOAD MSTORE MSTORE8 SLOAD SSTORE JUMP JUMPI PC MSIZE GAS PUSH2 0x6263 PUSH5 0x6566676869 PUSH11 0x6B6C6D6E6F707172737475 PUSH23 0x7778797A303132333435363738392B2FA2646970667358 0x22 SLT KECCAK256 DUP15 0xB1 0xEF LOG4 0x1F ORIGIN DUP3 CHAINID 0xAB SWAP13 CALLVALUE 0x4B 0x49 PUSH5 0x1FF1BE44E6 0xD2 0xE3 DUP12 0x28 GT SAR SELFDESTRUCT PUSH9 0xA67E58C8AC64736F6C PUSH4 0x43000811 STOP CALLER "
		},
		"gasEstimates": {
			"creation": {
				"codeDepositCost": "4530800",
				"executionCost": "infinite",
				"totalCost": "infinite"
			},
			"external": {
				"AdminAddToken(uint256)": "infinite",
				"AdminWithDrawToken(uint256)": "infinite",
				"Deposit(uint256,uint256)": "infinite",
				"Details(address)": "infinite",
				"ERC20Address()": "2581",
				"OwnerTokens(address)": "2882",
				"Reward(address)": "2926",
				"TokenId(address)": "2859",
				"UpdateERC20(address)": "27032",
				"Utilization()": "infinite",
				"Withdraw()": "infinite",
				"_tokenIds()": "2554",
				"approve(address,uint256)": "infinite",
				"balanceOf(address)": "2965",
				"formatTokenURI(uint256,uint256,uint256,address,address,string,string,uint256)": "infinite",
				"getApproved(uint256)": "5345",
				"isApprovedForAll(address,address)": "infinite",
				"name()": "infinite",
				"owenerERC20()": "2604",
				"owner()": "2590",
				"ownerOf(uint256)": "3066",
				"percentage(uint256)": "infinite",
				"renounceOwnership()": "30509",
				"safeTransferFrom(address,address,uint256)": "infinite",
				"safeTransferFrom(address,address,uint256,bytes)": "infinite",
				"setApprovalForAll(address,bool)": "infinite",
				"showReward(uint256,uint256)": "infinite",
				"supportsInterface(bytes4)": "842",
				"symbol()": "infinite",
				"tokenURI(uint256)": "infinite",
				"totalOwnerToken()": "2497",
				"transferFrom(address,address,uint256)": "infinite",
				"transferOwnership(address)": "30876"
			}
		},
		"methodIdentifiers": {
			"AdminAddToken(uint256)": "c0cd40ee",
			"AdminWithDrawToken(uint256)": "a88e132f",
			"Deposit(uint256,uint256)": "a3af609b",
			"Details(address)": "e88cc2be",
			"ERC20Address()": "a6021ace",
			"OwnerTokens(address)": "2ffce210",
			"Reward(address)": "57488064",
			"TokenId(address)": "b6840d6e",
			"UpdateERC20(address)": "275bd33f",
			"Utilization()": "7b2f247f",
			"Withdraw()": "57ea89b6",
			"_tokenIds()": "aa46a400",
			"approve(address,uint256)": "095ea7b3",
			"balanceOf(address)": "70a08231",
			"formatTokenURI(uint256,uint256,uint256,address,address,string,string,uint256)": "0175ef11",
			"getApproved(uint256)": "081812fc",
			"isApprovedForAll(address,address)": "e985e9c5",
			"name()": "06fdde03",
			"owenerERC20()": "10fd4fba",
			"owner()": "8da5cb5b",
			"ownerOf(uint256)": "6352211e",
			"percentage(uint256)": "e27fd8ec",
			"renounceOwnership()": "715018a6",
			"safeTransferFrom(address,address,uint256)": "42842e0e",
			"safeTransferFrom(address,address,uint256,bytes)": "b88d4fde",
			"setApprovalForAll(address,bool)": "a22cb465",
			"showReward(uint256,uint256)": "d47c9613",
			"supportsInterface(bytes4)": "01ffc9a7",
			"symbol()": "95d89b41",
			"tokenURI(uint256)": "c87b56dd",
			"totalOwnerToken()": "0ccff6e9",
			"transferFrom(address,address,uint256)": "23b872dd",
			"transferOwnership(address)": "f2fde38b"
		}
	},
	"abi": [
		{
			"inputs": [
				{
					"internalType": "address",
					"name": "_ERC20Address",
					"type": "address"
				},
				{
					"internalType": "uint256",
					"name": "percentage3",
					"type": "uint256"
				},
				{
					"internalType": "uint256",
					"name": "percentage6",
					"type": "uint256"
				},
				{
					"internalType": "uint256",
					"name": "percentage1y",
					"type": "uint256"
				}
			],
			"stateMutability": "nonpayable",
			"type": "constructor"
		},
		{
			"anonymous": false,
			"inputs": [
				{
					"indexed": true,
					"internalType": "address",
					"name": "owner",
					"type": "address"
				},
				{
					"indexed": true,
					"internalType": "address",
					"name": "approved",
					"type": "address"
				},
				{
					"indexed": true,
					"internalType": "uint256",
					"name": "tokenId",
					"type": "uint256"
				}
			],
			"name": "Approval",
			"type": "event"
		},
		{
			"anonymous": false,
			"inputs": [
				{
					"indexed": true,
					"internalType": "address",
					"name": "owner",
					"type": "address"
				},
				{
					"indexed": true,
					"internalType": "address",
					"name": "operator",
					"type": "address"
				},
				{
					"indexed": false,
					"internalType": "bool",
					"name": "approved",
					"type": "bool"
				}
			],
			"name": "ApprovalForAll",
			"type": "event"
		},
		{
			"anonymous": false,
			"inputs": [
				{
					"indexed": true,
					"internalType": "address",
					"name": "previousOwner",
					"type": "address"
				},
				{
					"indexed": true,
					"internalType": "address",
					"name": "newOwner",
					"type": "address"
				}
			],
			"name": "OwnershipTransferred",
			"type": "event"
		},
		{
			"anonymous": false,
			"inputs": [
				{
					"indexed": true,
					"internalType": "address",
					"name": "from",
					"type": "address"
				},
				{
					"indexed": true,
					"internalType": "address",
					"name": "to",
					"type": "address"
				},
				{
					"indexed": true,
					"internalType": "uint256",
					"name": "tokenId",
					"type": "uint256"
				}
			],
			"name": "Transfer",
			"type": "event"
		},
		{
			"inputs": [
				{
					"internalType": "uint256",
					"name": "_amount",
					"type": "uint256"
				}
			],
			"name": "AdminAddToken",
			"outputs": [],
			"stateMutability": "nonpayable",
			"type": "function"
		},
		{
			"inputs": [
				{
					"internalType": "uint256",
					"name": "amount",
					"type": "uint256"
				}
			],
			"name": "AdminWithDrawToken",
			"outputs": [],
			"stateMutability": "nonpayable",
			"type": "function"
		},
		{
			"inputs": [
				{
					"internalType": "uint256",
					"name": "_amount",
					"type": "uint256"
				},
				{
					"internalType": "uint256",
					"name": "MaturityTime",
					"type": "uint256"
				}
			],
			"name": "Deposit",
			"outputs": [],
			"stateMutability": "nonpayable",
			"type": "function"
		},
		{
			"inputs": [
				{
					"internalType": "address",
					"name": "",
					"type": "address"
				}
			],
			"name": "Details",
			"outputs": [
				{
					"internalType": "uint256",
					"name": "deposited",
					"type": "uint256"
				},
				{
					"internalType": "uint256",
					"name": "MaturityTime",
					"type": "uint256"
				},
				{
					"internalType": "uint256",
					"name": "Persentage",
					"type": "uint256"
				},
				{
					"internalType": "address",
					"name": "ERC20ContractAddress",
					"type": "address"
				},
				{
					"internalType": "address",
					"name": "NFTContractAddress",
					"type": "address"
				},
				{
					"internalType": "string",
					"name": "ContractName",
					"type": "string"
				},
				{
					"internalType": "string",
					"name": "ContractSymbol",
					"type": "string"
				},
				{
					"internalType": "uint256",
					"name": "TotalClaim",
					"type": "uint256"
				},
				{
					"internalType": "uint256",
					"name": "timestake",
					"type": "uint256"
				},
				{
					"internalType": "bool",
					"name": "check",
					"type": "bool"
				}
			],
			"stateMutability": "view",
			"type": "function"
		},
		{
			"inputs": [],
			"name": "ERC20Address",
			"outputs": [
				{
					"internalType": "address",
					"name": "",
					"type": "address"
				}
			],
			"stateMutability": "view",
			"type": "function"
		},
		{
			"inputs": [
				{
					"internalType": "address",
					"name": "",
					"type": "address"
				}
			],
			"name": "OwnerTokens",
			"outputs": [
				{
					"internalType": "uint256",
					"name": "",
					"type": "uint256"
				}
			],
			"stateMutability": "view",
			"type": "function"
		},
		{
			"inputs": [
				{
					"internalType": "address",
					"name": "",
					"type": "address"
				}
			],
			"name": "Reward",
			"outputs": [
				{
					"internalType": "uint256",
					"name": "",
					"type": "uint256"
				}
			],
			"stateMutability": "view",
			"type": "function"
		},
		{
			"inputs": [
				{
					"internalType": "address",
					"name": "",
					"type": "address"
				}
			],
			"name": "TokenId",
			"outputs": [
				{
					"internalType": "uint256",
					"name": "",
					"type": "uint256"
				}
			],
			"stateMutability": "view",
			"type": "function"
		},
		{
			"inputs": [
				{
					"internalType": "address",
					"name": "_ERC20Address",
					"type": "address"
				}
			],
			"name": "UpdateERC20",
			"outputs": [],
			"stateMutability": "nonpayable",
			"type": "function"
		},
		{
			"inputs": [],
			"name": "Utilization",
			"outputs": [
				{
					"internalType": "uint256",
					"name": "",
					"type": "uint256"
				}
			],
			"stateMutability": "view",
			"type": "function"
		},
		{
			"inputs": [],
			"name": "Withdraw",
			"outputs": [],
			"stateMutability": "nonpayable",
			"type": "function"
		},
		{
			"inputs": [],
			"name": "_tokenIds",
			"outputs": [
				{
					"internalType": "uint256",
					"name": "_value",
					"type": "uint256"
				}
			],
			"stateMutability": "view",
			"type": "function"
		},
		{
			"inputs": [
				{
					"internalType": "address",
					"name": "to",
					"type": "address"
				},
				{
					"internalType": "uint256",
					"name": "tokenId",
					"type": "uint256"
				}
			],
			"name": "approve",
			"outputs": [],
			"stateMutability": "nonpayable",
			"type": "function"
		},
		{
			"inputs": [
				{
					"internalType": "address",
					"name": "owner",
					"type": "address"
				}
			],
			"name": "balanceOf",
			"outputs": [
				{
					"internalType": "uint256",
					"name": "",
					"type": "uint256"
				}
			],
			"stateMutability": "view",
			"type": "function"
		},
		{
			"inputs": [
				{
					"internalType": "uint256",
					"name": "_amount",
					"type": "uint256"
				},
				{
					"internalType": "uint256",
					"name": "_maturity",
					"type": "uint256"
				},
				{
					"internalType": "uint256",
					"name": "_percentage",
					"type": "uint256"
				},
				{
					"internalType": "address",
					"name": "_ERC20ContractAddress",
					"type": "address"
				},
				{
					"internalType": "address",
					"name": "_NFTContractAddress",
					"type": "address"
				},
				{
					"internalType": "string",
					"name": "_ContractName",
					"type": "string"
				},
				{
					"internalType": "string",
					"name": "_ContractSymbol",
					"type": "string"
				},
				{
					"internalType": "uint256",
					"name": "_TotalClaim",
					"type": "uint256"
				}
			],
			"name": "formatTokenURI",
			"outputs": [
				{
					"internalType": "string",
					"name": "",
					"type": "string"
				}
			],
			"stateMutability": "pure",
			"type": "function"
		},
		{
			"inputs": [
				{
					"internalType": "uint256",
					"name": "tokenId",
					"type": "uint256"
				}
			],
			"name": "getApproved",
			"outputs": [
				{
					"internalType": "address",
					"name": "",
					"type": "address"
				}
			],
			"stateMutability": "view",
			"type": "function"
		},
		{
			"inputs": [
				{
					"internalType": "address",
					"name": "owner",
					"type": "address"
				},
				{
					"internalType": "address",
					"name": "operator",
					"type": "address"
				}
			],
			"name": "isApprovedForAll",
			"outputs": [
				{
					"internalType": "bool",
					"name": "",
					"type": "bool"
				}
			],
			"stateMutability": "view",
			"type": "function"
		},
		{
			"inputs": [],
			"name": "name",
			"outputs": [
				{
					"internalType": "string",
					"name": "",
					"type": "string"
				}
			],
			"stateMutability": "view",
			"type": "function"
		},
		{
			"inputs": [],
			"name": "owenerERC20",
			"outputs": [
				{
					"internalType": "address",
					"name": "",
					"type": "address"
				}
			],
			"stateMutability": "view",
			"type": "function"
		},
		{
			"inputs": [],
			"name": "owner",
			"outputs": [
				{
					"internalType": "address",
					"name": "",
					"type": "address"
				}
			],
			"stateMutability": "view",
			"type": "function"
		},
		{
			"inputs": [
				{
					"internalType": "uint256",
					"name": "tokenId",
					"type": "uint256"
				}
			],
			"name": "ownerOf",
			"outputs": [
				{
					"internalType": "address",
					"name": "",
					"type": "address"
				}
			],
			"stateMutability": "view",
			"type": "function"
		},
		{
			"inputs": [
				{
					"internalType": "uint256",
					"name": "",
					"type": "uint256"
				}
			],
			"name": "percentage",
			"outputs": [
				{
					"internalType": "uint256",
					"name": "",
					"type": "uint256"
				}
			],
			"stateMutability": "view",
			"type": "function"
		},
		{
			"inputs": [],
			"name": "renounceOwnership",
			"outputs": [],
			"stateMutability": "nonpayable",
			"type": "function"
		},
		{
			"inputs": [
				{
					"internalType": "address",
					"name": "from",
					"type": "address"
				},
				{
					"internalType": "address",
					"name": "to",
					"type": "address"
				},
				{
					"internalType": "uint256",
					"name": "tokenId",
					"type": "uint256"
				}
			],
			"name": "safeTransferFrom",
			"outputs": [],
			"stateMutability": "nonpayable",
			"type": "function"
		},
		{
			"inputs": [
				{
					"internalType": "address",
					"name": "from",
					"type": "address"
				},
				{
					"internalType": "address",
					"name": "to",
					"type": "address"
				},
				{
					"internalType": "uint256",
					"name": "tokenId",
					"type": "uint256"
				},
				{
					"internalType": "bytes",
					"name": "data",
					"type": "bytes"
				}
			],
			"name": "safeTransferFrom",
			"outputs": [],
			"stateMutability": "nonpayable",
			"type": "function"
		},
		{
			"inputs": [
				{
					"internalType": "address",
					"name": "operator",
					"type": "address"
				},
				{
					"internalType": "bool",
					"name": "approved",
					"type": "bool"
				}
			],
			"name": "setApprovalForAll",
			"outputs": [],
			"stateMutability": "nonpayable",
			"type": "function"
		},
		{
			"inputs": [
				{
					"internalType": "uint256",
					"name": "_Amount",
					"type": "uint256"
				},
				{
					"internalType": "uint256",
					"name": "_Persentage",
					"type": "uint256"
				}
			],
			"name": "showReward",
			"outputs": [
				{
					"internalType": "uint256",
					"name": "result",
					"type": "uint256"
				}
			],
			"stateMutability": "pure",
			"type": "function"
		},
		{
			"inputs": [
				{
					"internalType": "bytes4",
					"name": "interfaceId",
					"type": "bytes4"
				}
			],
			"name": "supportsInterface",
			"outputs": [
				{
					"internalType": "bool",
					"name": "",
					"type": "bool"
				}
			],
			"stateMutability": "view",
			"type": "function"
		},
		{
			"inputs": [],
			"name": "symbol",
			"outputs": [
				{
					"internalType": "string",
					"name": "",
					"type": "string"
				}
			],
			"stateMutability": "view",
			"type": "function"
		},
		{
			"inputs": [
				{
					"internalType": "uint256",
					"name": "tokenId",
					"type": "uint256"
				}
			],
			"name": "tokenURI",
			"outputs": [
				{
					"internalType": "string",
					"name": "",
					"type": "string"
				}
			],
			"stateMutability": "view",
			"type": "function"
		},
		{
			"inputs": [],
			"name": "totalOwnerToken",
			"outputs": [
				{
					"internalType": "uint256",
					"name": "",
					"type": "uint256"
				}
			],
			"stateMutability": "view",
			"type": "function"
		},
		{
			"inputs": [
				{
					"internalType": "address",
					"name": "from",
					"type": "address"
				},
				{
					"internalType": "address",
					"name": "to",
					"type": "address"
				},
				{
					"internalType": "uint256",
					"name": "tokenId",
					"type": "uint256"
				}
			],
			"name": "transferFrom",
			"outputs": [],
			"stateMutability": "nonpayable",
			"type": "function"
		},
		{
			"inputs": [
				{
					"internalType": "address",
					"name": "newOwner",
					"type": "address"
				}
			],
			"name": "transferOwnership",
			"outputs": [],
			"stateMutability": "nonpayable",
			"type": "function"
		}
	]
}