{
	"data": {
		"bytecode": {
			"linkReferences": {},
			"object": "608060405234801562000010575f80fd5b506040516200475a3803806200475a8339810160408190526200003391620000eb565b60015f5562000042336200007e565b600680546001600160a01b039586166001600160a01b0319918216179091556009805494909516931692909217909255600b55600a5562000130565b600180546001600160a01b038381166001600160a01b0319831681179093556040519116919082907f8be0079c531659141344cd1fd0a4f28419497f9722a3daafe3b4186f6b6457e0905f90a35050565b80516001600160a01b0381168114620000e6575f80fd5b919050565b5f805f8060808587031215620000ff575f80fd5b6200010a85620000cf565b93506200011a60208601620000cf565b6040860151606090960151949790965092505050565b61461c806200013e5f395ff3fe608060405260043610610275575f3560e01c80636fd3e1cd1161014a578063c47c4deb116100be578063e1f3d55a11610078578063e1f3d55a1461099b578063ed1d0b8f146109ba578063f2fde38b146109d9578063f5ca15cb146109f8578063fa7da19d14610a23578063fc05b35314610a42575f80fd5b8063c47c4deb146108e1578063cc76bd7014610900578063d6cbb20214610915578063d80e880c1461092b578063d84c0fd31461093e578063db9224591461097c575f80fd5b80638d02f7921161010f5780638d02f792146107b15780638da5cb5b1461080e5780639259d3851461082b57806395ce4a3b1461084a578063b23adf201461086c578063b7d41e221461089c575f80fd5b80636fd3e1cd146106ea578063715018a614610715578063752cd654146107295780637df1ba451461075b5780638ca9f62114610786575f80fd5b8063408ce41e116101ec5780635de6c42f116101a65780635de6c42f1461063f5780635f81a57c146106765780636605ff661461068b5780636617b35d146106a05780636c7e1dd0146106b65780636dde80f1146106cb575f80fd5b8063408ce41e1461058e578063456005c8146105a35780634aa45e30146105c2578063556f8084146105ee5780635814d593146106015780635902f0d714610620575f80fd5b806320092e041161023d57806320092e04146103d9578063210d135e146104065780632791a4d0146104255780633529280b146104fb578063369136bd1461052657806339b7e97114610562575f80fd5b8063049279f2146102795780630e260e861461029a57806310390006146103545780631065cf73146103735780631bfee121146103ba575b5f80fd5b348015610284575f80fd5b50610298610293366004613b7b565b610a61565b005b3480156102a5575f80fd5b5061030a6102b4366004613c1a565b601260209081525f928352604080842090915290825290208054600182015460028301546003840154600485015460058601546006909601546001600160a01b0395861696949593949390921692909160ff1687565b604080516001600160a01b0398891681526020810197909752860194909452949091166060840152608083015260a082019290925290151560c082015260e0015b60405180910390f35b34801561035f575f80fd5b5061029861036e366004613c44565b610da7565b34801561037e575f80fd5b506103a561038d366004613c66565b60086020525f90815260409020805460019091015482565b6040805192835260208301919091520161034b565b3480156103c5575f80fd5b506102986103d4366004613c66565b610dd1565b3480156103e4575f80fd5b506103f86103f3366004613c7d565b610dde565b60405190815260200161034b565b348015610411575f80fd5b50610298610420366004613c9d565b610e4e565b348015610430575f80fd5b506104a761043f366004613c1a565b601060209081525f92835260408084209091529082529020805460018201546002830154600384015460048501546005860154600687015460079097015495966001600160a01b03958616969486169593949293919260ff8216926101009092049091169089565b60408051998a526001600160a01b0398891660208b0152968816968901969096526060880194909452608087019290925260a0860152151560c085015290911660e08301526101008201526101200161034b565b348015610506575f80fd5b506103f8610515366004613c66565b600c6020525f908152604090205481565b348015610531575f80fd5b506103f8610540366004613ceb565b601860209081525f938452604080852082529284528284209052825290205481565b34801561056d575f80fd5b5061058161057c366004613d4c565b611196565b60405161034b9190613e42565b348015610599575f80fd5b506103f860075481565b3480156105ae575f80fd5b506102986105bd366004613c9d565b61146b565b3480156105cd575f80fd5b506105e16105dc366004613c66565b61174f565b60405161034b9190613f30565b6102986105fc366004613c7d565b611925565b34801561060c575f80fd5b5061029861061b366004613c66565b61213d565b34801561062b575f80fd5b506103f861063a366004613c7d565b61248d565b34801561064a575f80fd5b5060065461065e906001600160a01b031681565b6040516001600160a01b03909116815260200161034b565b348015610681575f80fd5b506103f8600f5481565b348015610696575f80fd5b506103f8600e5481565b3480156106ab575f80fd5b506003546103f89081565b3480156106c1575f80fd5b506103f8600b5481565b3480156106d6575f80fd5b506102986106e5366004613c7d565b6124f3565b3480156106f5575f80fd5b506103f8610704366004613c66565b60166020525f908152604090205481565b348015610720575f80fd5b5061029861259d565b348015610734575f80fd5b506103a5610743366004613c66565b600d6020525f90815260409020805460019091015482565b348015610766575f80fd5b506103f8610775366004613c66565b60136020525f908152604090205481565b348015610791575f80fd5b506103f86107a0366004613c44565b60196020525f908152604090205481565b3480156107bc575f80fd5b506107ef6107cb366004613c66565b60116020525f9081526040902080546001909101546001600160a01b039091169082565b604080516001600160a01b03909316835260208301919091520161034b565b348015610819575f80fd5b506001546001600160a01b031661065e565b348015610836575f80fd5b50610298610845366004613c66565b6125b0565b348015610855575f80fd5b5061085e6127b9565b60405161034b929190614089565b348015610877575f80fd5b5061088b610886366004614181565b612bb4565b60405161034b9594939291906141b3565b3480156108a7575f80fd5b506103f86108b63660046141f3565b601760209081525f948552604080862082529385528385208152918452828420909152825290205481565b3480156108ec575f80fd5b506102986108fb366004613c66565b612c83565b34801561090b575f80fd5b506103f8600a5481565b348015610920575f80fd5b506002546103f89081565b610298610939366004613c66565b612e10565b348015610949575f80fd5b506107ef610958366004613c66565b60146020525f9081526040902080546001909101546001600160a01b039091169082565b348015610987575f80fd5b506103f8610996366004613c7d565b61361e565b3480156109a6575f80fd5b5060095461065e906001600160a01b031681565b3480156109c5575f80fd5b506102986109d4366004613c7d565b613671565b3480156109e4575f80fd5b506102986109f3366004613c44565b6137b7565b348015610a03575f80fd5b506103f8610a12366004613c44565b601a6020525f908152604090205481565b348015610a2e575f80fd5b50610298610a3d366004613c66565b61382d565b348015610a4d575f80fd5b50610298610a5c366004613c44565b61383a565b5f83815260146020908152604080832080546001909101546001600160a01b039182168086526018855283862082875285528386203380885290865284872054828852601287528588208489529096529390952054909392911603610b0d5760405162461bcd60e51b815260206004820181905260248201527f596f7520617265204e6f7420456c696769626c6520666f722042696464696e6760448201526064015b60405180910390fd5b6001600160a01b0383165f9081526012602090815260408083208584529091529020600201548411610b945760405162461bcd60e51b815260206004820152602a60248201527f506c656173652053656c656374207468652042696420486967686572207468616044820152696e204d696e204269642160b01b6064820152608401610b04565b6001600160a01b0383165f90815260126020908152604080832085845290915290206006015460ff16610c015760405162461bcd60e51b81526020600482015260156024820152744e6f74204c697374656420496e204f66666572732160581b6044820152606401610b04565b6040518060a00160405280336001600160a01b0316815260200186815260200185815260200142815260200160135f8981526020019081526020015f20546001610c4b919061424c565b90526001600160a01b0384165f90815260156020908152604080832086845282528083208a84526013909252822054909190610c8890600161424c565b81526020808201929092526040015f20825181546001600160a01b0319166001600160a01b03909116178155908201516001820190610cc790826142e0565b506040828101516002830155606083015160038301556080909201516004909101555f87815260136020522054610cff90600161424c565b6001600160a01b0384165f9081526017602090815260408083208684528252808320338452909152812090610d3584600161424c565b815260208082019290925260409081015f908120939093556001600160a01b03861683526018825280832085845282528083203384529091528120805491610d7c8361439b565b90915550505f868152601360205260408120805491610d9a8361439b565b9190505550505050505050565b610daf613864565b600980546001600160a01b0319166001600160a01b0392909216919091179055565b610dd9613864565b600b55565b5f805f5b600f54811015610e44575f818152600d60205260409020600101548511801590610e1c57505f818152600d60205260409020600101548410155b15610e3c575f818152600d6020526040902054610e39908361424c565b91505b600101610de2565b5090505b92915050565b610e566138be565b6001600160a01b0385165f90815260106020908152604080832086845290915290206006015460ff1615610ecc5760405162461bcd60e51b815260206004820152601e60248201527f416c7265616479204c697374656420496e204d61726b6574706c6163652100006044820152606401610b04565b6001600160a01b0385165f90815260126020908152604080832086845290915290206006015460ff1615610f425760405162461bcd60e51b815260206004820152601a60248201527f416c7265616479204c697374656420496e2041756374696f6e210000000000006044820152606401610b04565b610f50600280546001019055565b604051806101200160405280848152602001336001600160a01b03168152602001306001600160a01b03168152602001858152602001610f8f60025490565b815242602080830191909152600160408084018290526001600160a01b0387811660608087019190915260809586018890528b82165f818152601087528481208c82528752848120895181558988015181880180546001600160a01b03199081169288169290921790558a87015160028084018054841692891692909217909155948b01516003830155988a015160048083019190915560a08b0151600583015560c08b015160068301805460e08e01516001600160a81b0319909116921515610100600160a81b031916929092176101009289168302179055909a0151600790910155845180860186528281528088018d8152935482526011909752849020955186549097169690921695909517845593519290910191909155516323b872dd60e01b815290916323b872dd916110cd91339130918991016143b3565b5f604051808303815f87803b1580156110e4575f80fd5b505af11580156110f6573d5f803e3d5ffd5b5050604080518082018252878152426020808301918252600f80545f908152600d9092529381209251835590516001909201919091558154935090915061113c8361439b565b90915550506040805184815233602082015230818301526060810186905290517f62af98dbc3627e85c5eb929b032d3ce3d6c376652d71b4cca6162a16ef0991149181900360800190a161118f60015f55565b5050505050565b60605f82516001600160401b038111156111b2576111b2613ae9565b6040519080825280602002602001820160405280156111e557816020015b60608152602001906001900390816111d05790505b5090505f5b8351811015610e44575f848281518110611206576112066143d7565b60209081029190910101516040516378a9bb4360e11b81526001600160a01b0388811660048301529091169063f1537686906024015f60405180830381865afa158015611255573d5f803e3d5ffd5b505050506040513d5f823e601f3d908101601f1916820160405261127c9190810190614435565b905080516001600160401b0381111561129757611297613ae9565b60405190808252806020026020018201604052801561130e57816020015b6112fb6040518060c001604052805f81526020015f81526020015f6001600160a01b031681526020015f6001600160a01b031681526020015f8152602001606081525090565b8152602001906001900390816112b55790505b50838381518110611321576113216143d7565b60200260200101819052505f5b8151811015611461576040518060c00160405280838381518110611354576113546143d7565b60200260200101515f01518152602001838381518110611376576113766143d7565b6020026020010151602001518152602001838381518110611399576113996143d7565b6020026020010151604001516001600160a01b031681526020018383815181106113c5576113c56143d7565b6020026020010151606001516001600160a01b031681526020018383815181106113f1576113f16143d7565b6020026020010151608001518152602001838381518110611414576114146143d7565b602002602001015160a00151815250848481518110611435576114356143d7565b6020026020010151828151811061144e5761144e6143d7565b602090810291909101015260010161132e565b50506001016111ea565b6001600160a01b0385165f90815260106020908152604080832087845290915290206006015460ff16156114e15760405162461bcd60e51b815260206004820152601e60248201527f416c7265616479204c697374656420496e204d61726b6574706c6163652100006044820152606401610b04565b6001600160a01b0385165f90815260126020908152604080832087845290915290206006015460ff16156115575760405162461bcd60e51b815260206004820152601a60248201527f416c7265616479204c697374656420496e2041756374696f6e210000000000006044820152606401610b04565b611565600380546001019055565b6040518060e00160405280336001600160a01b03168152602001858152602001848152602001836001600160a01b031681526020018281526020014281526020016001151581525060125f876001600160a01b03166001600160a01b031681526020019081526020015f205f8681526020019081526020015f205f820151815f015f6101000a8154816001600160a01b0302191690836001600160a01b0316021790555060208201518160010155604082015181600201556060820151816003015f6101000a8154816001600160a01b0302191690836001600160a01b031602179055506080820151816004015560a0820151816005015560c0820151816006015f6101000a81548160ff0219169083151502179055509050506040518060400160405280866001600160a01b031681526020018581525060145f6116a960035490565b815260208082019290925260409081015f908120845181546001600160a01b0319166001600160a01b03918216178255948401516001909101556003548152601390925280822091909155516323b872dd60e01b8152908616906323b872dd9061171b903390309089906004016143b3565b5f604051808303815f87803b158015611732575f80fd5b505af1158015611744573d5f803e3d5ffd5b505050505050505050565b5f81815260146020908152604080832080546001909101546013909352908320546060936001600160a01b0390921692919081906001600160401b0381111561179a5761179a613ae9565b6040519080825280602002602001820160405280156117d357816020015b6117c06139bc565b8152602001906001900390816117b85790505b50905060015b5f87815260136020526040902054811161191b576001600160a01b038086165f9081526015602090815260408083208884528252808320858452825291829020825160a08101909352805490931682526001830180549293929184019161183f9061425f565b80601f016020809104026020016040519081016040528092919081815260200182805461186b9061425f565b80156118b65780601f1061188d576101008083540402835291602001916118b6565b820191905f5260205f20905b81548152906001019060200180831161189957829003601f168201915b5050505050815260200160028201548152602001600382015481526020016004820154815250508284815181106118ef576118ef6143d7565b602002602001018190525082806119059061439b565b93505080806119139061439b565b9150506117d9565b5095945050505050565b61192d6138be565b5f82815260116020908152604080832080546001600160a01b039081168552601084528285206001928301548652909352922090910154339116036119c05760405162461bcd60e51b815260206004820152602360248201527f416e206f666665722063616e6e6f742062757920746869732053656c6c65722060448201526221212160e81b6064820152608401610b04565b5f82815260116020908152604080832080546001600160a01b03168452601083528184206001909101548452909152902060030154811015611a575760405162461bcd60e51b815260206004820152602a60248201527f4e6f7420656e6f75676820657468657220746f20636f7665722061736b696e676044820152692070726963652021212160b01b6064820152608401610b04565b5f8281526011602052604090819020805460019091015491516323b872dd60e01b81526001600160a01b03909116916323b872dd91611a9d9130913391906004016143b3565b5f604051808303815f87803b158015611ab4575f80fd5b505af1158015611ac6573d5f803e3d5ffd5b5050505f83815260116020908152604080832080546001918201546001600160a01b039182168087526010865284872082885290955294839020909101549151636e0cee0960e01b815233600482015260248101949094521660448301529150636e0cee09906064015f604051808303815f87803b158015611b46575f80fd5b505af1158015611b58573d5f803e3d5ffd5b5050600a545f85815260116020908152604080832080546001600160a01b031684526010835281842060019091015484529091528120600301549093506103e89250611ba49190614557565b611bae919061456e565b600b545f85815260116020908152604080832080546001600160a01b03168452601083528184206001909101548452909152812060030154929350916103e891611bf791614557565b611c01919061456e565b5f85815260116020908152604080832080546001600160a01b031684526010835281842060019091015484529091528120600781015460039091015492935091606490611c4f908490614557565b611c59919061456e565b90505f83611c67868461424c565b611c71919061424c565b5f88815260116020908152604080832080546001600160a01b03168452601083528184206001909101548452909152902060030154611cb0919061458d565b5f88815260116020908152604080832080546001600160a01b03908116855260108452828520600192830154865290935281842001549051939450169183156108fc0291849190818181858888f19350505050158015611d12573d5f803e3d5ffd5b505f87815260116020908152604080832080546001600160a01b03908116855260108452828520600190920154855292528083206006015490516101009091049091169184156108fc02918591818181858888f19350505050158015611d7a573d5f803e3d5ffd5b506006546040516001600160a01b039091169086156108fc029087905f818181858888f19350505050158015611db2573d5f803e3d5ffd5b506009546040516001600160a01b039091169085156108fc029086905f818181858888f19350505050158015611dea573d5f803e3d5ffd5b5060405180604001604052808587611e02919061424c565b81524260209182018190526007545f9081526008835260408082208551815594840151600190950194909455600e80548252600c90935292832055805491611e498361439b565b909155505060078054905f611e5d8361439b565b90915550505f87815260116020818152604080842080546001600160a01b039081168652601084528286206001830180548852908552838720600601805460ff19169055958d90529390925290549254905163130a8fdb60e21b81526004810191909152911690634c2a3f6c906024015f604051808303815f87803b158015611ee4575f80fd5b505af1158015611ef6573d5f803e3d5ffd5b505050508660105f60115f611f0a60025490565b815260208082019290925260409081015f908120546001600160a01b03168452918301939093529101812090601181611f4260025490565b81526020019081526020015f206001015481526020019081526020015f206004018190555060115f611f7360025490565b815260208082019290925260409081015f9081208a8252601190935220815481546001600160a01b0319166001600160a01b03909116178155600191820154910155611fbf6002613915565b335f908152601960205260408120805491611fd98361439b565b90915550505f87815260116020908152604080832080546001600160a01b039081168552601084528285206001928301548652845282852090910154168352601a909152812080549161202b8361439b565b90915550505f87815260116020908152604080832080546001600160a01b0390811685526010845282852060019092015485529083529281902060060154815161010090910490931683529082018490527f7bd3aa7d673767f759ebf216e7f6c12844986c661ae6e0f1d988cf7eb7394d1d910160405180910390a15f87815260116020908152604080832080546001600160a01b03908116855260108452828520600192830154865284529382902080549101548251918252909316918301919091523382820152346060830152426080830152517f5fafad85dec201c2e73b6a2bef6351129304a624ea8720ecd04cd7f04d83bc399181900360a00190a1505050505061213960015f55565b5050565b6121456138be565b5f81815260116020908152604080832080546001600160a01b0390811685526010845282852060019283015486529093529220909101541633146121cb5760405162461bcd60e51b815260206004820152601d60248201527f596f7520617265206e6f74206f776e6572206f662074686973204e46540000006044820152606401610b04565b5f81815260116020908152604080832080546001600160a01b0316845260108352818420600190910154845290915290206006015460ff166122475760405162461bcd60e51b8152602060048201526015602482015274506c65617365204c6973742046697273742021212160581b6044820152606401610b04565b5f81815260116020818152604080842080546001600160a01b0390811686526010845282862060018084018054895291865284882090810154600290910180546001600160a01b03191691841691909117905595879052939092529054925490516323b872dd60e01b815292909116916323b872dd916122cd91309133916004016143b3565b5f604051808303815f87803b1580156122e4575f80fd5b505af11580156122f6573d5f803e3d5ffd5b5050505f82815260116020818152604080842080546001600160a01b031685526010808452828620600190920154865292528320600601805460ff1916905584935091908161234460025490565b815260208082019290925260409081015f908120546001600160a01b0316845291830193909352910181209060118161237c60025490565b81526020019081526020015f206001015481526020019081526020015f206004018190555060115f6123ad60025490565b815260208082019290925260409081015f908120848252601190935220815481546001600160a01b0319166001600160a01b039091161781556001918201549101556123f96002613915565b5f81815260116020908152604080832080546001600160a01b0390811685526010845282852060019283015486528452938290208054918101546003909101548351928352941692810192909252339082015260608101919091527ffb0451e2371b977db14ce8db0bd62262e6ff8fe4b5960280928ba94e024436039060800160405180910390a161248a60015f55565b50565b5f805f5b600754811015610e44575f8181526008602052604090206001015485118015906124cb57505f818152600860205260409020600101548410155b156124eb575f818152600860205260409020546124e8908361424c565b91505b600101612491565b5f82815260146020908152604080832080546001909101546001600160a01b039182168086526012855283862082875290945291909320549192909116331461258a5760405162461bcd60e51b8152602060048201526024808201527f596f752041726520556e61626c6520746f2053656c65637420746865205573656044820152637221212160e01b6064820152608401610b04565b50505f9182526016602052604090912055565b6125a5613864565b6125ae5f61396b565b565b5f81815260146020908152604080832080546001600160a01b0390811685526012845282852060019092015485529252909120541633146126335760405162461bcd60e51b815260206004820152601760248201527f4f6e6c79204f776e65722043616e2043616e63656c21210000000000000000006044820152606401610b04565b5f8181526014602052604090819020805460019091015491516323b872dd60e01b81526001600160a01b03909116916323b872dd916126799130913391906004016143b3565b5f604051808303815f87803b158015612690575f80fd5b505af11580156126a2573d5f803e3d5ffd5b5050505f82815260146020818152604080842080546001600160a01b031685526012835281852060019091015485529091528220600601805460ff1916905591506126ec60035490565b815260208082019290925260409081015f9081208482526014909352908120825481546001600160a01b0319166001600160a01b0390911617815560019283015492019190915560139061273f60035490565b81526020019081526020015f205460135f8381526020019081526020015f208190555060145f61276e60035490565b815260208101919091526040015f90812080546001600160a01b031916815560010181905560139061279f60035490565b81526020019081526020015f205f905561248a6003613915565b6060805f6127c660025490565b90505f816001600160401b038111156127e1576127e1613ae9565b60405190808252806020026020018201604052801561281a57816020015b6128076139f0565b8152602001906001900390816127ff5790505b5090505f60015b60025481116129c0575f81815260116020908152604080832080546001600160a01b0316845260108352818420600190910154845290915290206006015460ff16156129ae57604080515f8381526011602081815284832080546001600160a01b039081168086526010845287862060019384015480885290855288872061018089018a52805460608a0190815294810154841660808a01526002810154841660a08a0152600381015460c08a015260048082015460e08b01526005820154610100808c0191909152600683015460ff811615156101208d0152049094166101408a01526007015461016089015292875283870189905294889052929091528451638ad9134560e01b8152918201529192830191638ad91345906024015f60405180830381865afa158015612958573d5f803e3d5ffd5b505050506040513d5f823e601f3d908101601f1916820160405261297f91908101906145a0565b815250838381518110612994576129946143d7565b602002602001018190525081806129aa9061439b565b9250505b806129b88161439b565b915050612821565b5060035492505f836001600160401b038111156129df576129df613ae9565b604051908082528060200260200182016040528015612a1857816020015b612a05613a57565b8152602001906001900390816129fd5790505b5090505f60015b6003548111612ba7575f81815260146020908152604080832080546001600160a01b0316845260128352818420600190910154845290915290206006015460ff1615612b9557604080515f8381526014602081815284832080546001600160a01b039081168086526012845287862060019384015480885290855288872061014089018a528054841660608a019081529481015460808a0152600281015460a08a0152600381015490931660c089015260048084015460e08a015260058401546101008a015260069093015460ff16151561012089015292875283870189905294889052929091528451638ad9134560e01b8152918201529192830191638ad91345906024015f60405180830381865afa158015612b3f573d5f803e3d5ffd5b505050506040513d5f823e601f3d908101601f19168201604052612b6691908101906145a0565b815250838381518110612b7b57612b7b6143d7565b60200260200101819052508180612b919061439b565b9250505b80612b9f8161439b565b915050612a1f565b5092969095509350505050565b601560209081525f9384526040808520825292845282842090528252902080546001820180546001600160a01b039092169291612bf09061425f565b80601f0160208091040260200160405190810160405280929190818152602001828054612c1c9061425f565b8015612c675780601f10612c3e57610100808354040283529160200191612c67565b820191905f5260205f20905b815481529060010190602001808311612c4a57829003601f168201915b5050505050908060020154908060030154908060040154905085565b5f81815260146020908152604080832080546001909101546001600160a01b039182168086526018855283862082875285528386203380885290865284872054828852601787528588208489528752858820828952875285882081895287528588205483895260158852868920858a528852868920818a52909752949096205490959194921614612d4a5760405162461bcd60e51b8152602060048201526011602482015270706c65617365206269642066697273742160781b6044820152606401610b04565b6001600160a01b0384165f9081526015602090815260408083208684528252808320848452909152812080546001600160a01b031916815590612d906001830182613a9f565b505f600282018190556003820181905560049091018190556001600160a01b03851680825260176020908152604080842087855282528084203380865290835281852086865283528185208590559284526018825280842087855282528084209284529190528120805491612e04836145d1565b91905055505050505050565b5f818152601660205260408120549003612e5d5760405162461bcd60e51b815260206004820152600e60248201526d283632b0b9b2903bb0b4ba17171760911b6044820152606401610b04565b612e656139bc565b5f82815260146020908152604080832080546001600160a01b039081168552601584528285206001928301548652845282852087865260168552838620548652845293829020825160a081019093528054909416825283018054919392840191612ece9061425f565b80601f0160208091040260200160405190810160405280929190818152602001828054612efa9061425f565b8015612f455780601f10612f1c57610100808354040283529160200191612f45565b820191905f5260205f20905b815481529060010190602001808311612f2857829003601f168201915b5050509183525050600282015460208201526003820154604082015260049091015460609091015280519091506001600160a01b03163314612fc95760405162461bcd60e51b815260206004820152601c60248201527f796f7520617265206e6f742073656c6c656374656420626964646572000000006044820152606401610b04565b806040015134101561300f5760405162461bcd60e51b815260206004820152600f60248201526e496e636f727265637420507269636560881b6044820152606401610b04565b600a545f83815260146020908152604080832080546001600160a01b0316845260108352818420600190910154845290915281206003015490916103e8916130579190614557565b613061919061456e565b600b545f85815260146020908152604080832080546001600160a01b03168452601083528184206001909101548452909152812060030154929350916103e8916130aa91614557565b6130b4919061456e565b5f85815260146020908152604080832080546001600160a01b03168452601283528184206001909101548452909152808220600401549086015192935090916064916130ff91614557565b613109919061456e565b90505f82613117858461424c565b613121919061424c565b8560400151613130919061458d565b5f87815260146020908152604080832080546001600160a01b0390811685526012845282852060019092015485529252808320549051939450169183156108fc0291849190818181858888f19350505050158015613190573d5f803e3d5ffd5b505f86815260146020908152604080832080546001600160a01b039081168552601284528285206001909201548552925280832060030154905191169184156108fc02918591818181858888f193505050501580156131f1573d5f803e3d5ffd5b506006546040516001600160a01b039091169085156108fc029086905f818181858888f19350505050158015613229573d5f803e3d5ffd5b506009546040516001600160a01b039091169084156108fc029085905f818181858888f19350505050158015613261573d5f803e3d5ffd5b5060405180604001604052808486613279919061424c565b81524260209182018190526007545f9081526008835260408082208551815594840151600190950194909455600e80548252600c909352928320558054916132c08361439b565b909155505060078054905f6132d48361439b565b9091555050335f9081526019602052604081208054916132f38361439b565b90915550505f86815260146020908152604080832080546001600160a01b03908116855260128452828520600190920154855290835281842054168352601a90915281208054916133438361439b565b90915550505f8681526014602052604090819020805460019091015491516323b872dd60e01b81526001600160a01b03909116916323b872dd9161338e9130913391906004016143b3565b5f604051808303815f87803b1580156133a5575f80fd5b505af11580156133b7573d5f803e3d5ffd5b5050505f878152601460209081526040918290206001015482519081523391810191909152428183015290517f3ed1528b0fdc7c5207c1bf935e34a667e13656b9ed165260c522be0bc544f30392509081900360600190a15f86815260146020908152604080832080546001909101546001600160a01b039182168086526012855283862082875290945293829020549151636e0cee0960e01b8152336004820152602481019490945216604483015290636e0cee09906064015f604051808303815f87803b158015613488575f80fd5b505af115801561349a573d5f803e3d5ffd5b5050505f87815260146020818152604080842080546001600160a01b039081168652601284528286206001830180548852908552838720600601805460ff19169055958d90529390925290549254905163130a8fdb60e21b8152600481019190915291169150634c2a3f6c906024015f604051808303815f87803b158015613520575f80fd5b505af1158015613532573d5f803e3d5ffd5b5050505060145f61354260035490565b815260208082019290925260409081015f9081208982526014909352908120825481546001600160a01b0319166001600160a01b0390911617815560019283015492019190915560139061359560035490565b815260208082019290925260409081015f908120548982526013845282822055601690925281208190556014906135cb60035490565b815260208101919091526040015f90812080546001600160a01b03191681556001018190556013906135fc60035490565b81526020019081526020015f205f90556136166003613915565b505050505050565b5f805f5b600e54811015610e44575f818152600c6020526040902054851180159061365657505f818152600c60205260409020548410155b1561366957816136658161439b565b9250505b600101613622565b6136796138be565b5f82815260116020908152604080832080546001600160a01b0316845260108352818420600190910154845290915290206006015460ff166136f55760405162461bcd60e51b8152602060048201526015602482015274506c65617365204c6973742046697273742021212160581b6044820152606401610b04565b5f82815260116020908152604080832080546001600160a01b03908116855260108452828520600192830154865290935292209091015416331461377b5760405162461bcd60e51b815260206004820152601d60248201527f596f7520617265206e6f74206f776e6572206f662074686973204e46540000006044820152606401610b04565b5f91825260116020908152604080842080546001600160a01b031685526010835281852060019182015486529092528320600301919091559055565b6137bf613864565b6001600160a01b0381166138245760405162461bcd60e51b815260206004820152602660248201527f4f776e61626c653a206e6577206f776e657220697320746865207a65726f206160448201526564647265737360d01b6064820152608401610b04565b61248a8161396b565b613835613864565b600a55565b613842613864565b600680546001600160a01b0319166001600160a01b0392909216919091179055565b6001546001600160a01b031633146125ae5760405162461bcd60e51b815260206004820181905260248201527f4f776e61626c653a2063616c6c6572206973206e6f7420746865206f776e65726044820152606401610b04565b60025f540361390f5760405162461bcd60e51b815260206004820152601f60248201527f5265656e7472616e637947756172643a207265656e7472616e742063616c6c006044820152606401610b04565b60025f55565b8054806139645760405162461bcd60e51b815260206004820152601b60248201527f436f756e7465723a2064656372656d656e74206f766572666c6f7700000000006044820152606401610b04565b5f19019055565b600180546001600160a01b038381166001600160a01b0319831681179093556040519116919082907f8be0079c531659141344cd1fd0a4f28419497f9722a3daafe3b4186f6b6457e0905f90a35050565b6040518060a001604052805f6001600160a01b03168152602001606081526020015f81526020015f81526020015f81525090565b6040805161018081019091525f606082018181526080830182905260a0830182905260c0830182905260e0830182905261010083018290526101208301829052610140830182905261016083019190915281905b81526020015f8152602001606081525090565b6040805161014081019091525f606082018181526080830182905260a0830182905260c0830182905260e0830182905261010083018290526101208301919091528190613a44565b508054613aab9061425f565b5f825580601f10613aba575050565b601f0160209004905f5260205f209081019061248a91905b80821115613ae5575f8155600101613ad2565b5090565b634e487b7160e01b5f52604160045260245ffd5b60405160c081016001600160401b0381118282101715613b1f57613b1f613ae9565b60405290565b604051601f8201601f191681016001600160401b0381118282101715613b4d57613b4d613ae9565b604052919050565b5f6001600160401b03821115613b6d57613b6d613ae9565b50601f01601f191660200190565b5f805f60608486031215613b8d575f80fd5b8335925060208401356001600160401b03811115613ba9575f80fd5b8401601f81018613613bb9575f80fd5b8035613bcc613bc782613b55565b613b25565b818152876020838501011115613be0575f80fd5b816020840160208301375f60208383010152809450505050604084013590509250925092565b6001600160a01b038116811461248a575f80fd5b5f8060408385031215613c2b575f80fd5b8235613c3681613c06565b946020939093013593505050565b5f60208284031215613c54575f80fd5b8135613c5f81613c06565b9392505050565b5f60208284031215613c76575f80fd5b5035919050565b5f8060408385031215613c8e575f80fd5b50508035926020909101359150565b5f805f805f60a08688031215613cb1575f80fd5b8535613cbc81613c06565b945060208601359350604086013592506060860135613cda81613c06565b949793965091946080013592915050565b5f805f60608486031215613cfd575f80fd5b8335613d0881613c06565b9250602084013591506040840135613d1f81613c06565b809150509250925092565b5f6001600160401b03821115613d4257613d42613ae9565b5060051b60200190565b5f8060408385031215613d5d575f80fd5b8235613d6881613c06565b91506020838101356001600160401b03811115613d83575f80fd5b8401601f81018613613d93575f80fd5b8035613da1613bc782613d2a565b81815260059190911b82018301908381019088831115613dbf575f80fd5b928401925b82841015613de6578335613dd781613c06565b82529284019290840190613dc4565b80955050505050509250929050565b5f5b83811015613e0f578181015183820152602001613df7565b50505f910152565b5f8151808452613e2e816020860160208601613df5565b601f01601f19169290920160200192915050565b5f60208083018184528085518083526040925060408601915060408160051b8701018488015f5b83811015613f2257888303603f19018552815180518085529088019088850190600581901b86018a015f5b82811015613f0c57878203601f190184528451805183528c8101518d8401528b8101516001600160a01b039081168d850152606080830151909116908401526080808201519084015260a09081015160c091840182905290613ef881850183613e17565b968e0196958e019593505050600101613e94565b50978a0197955050509187019150600101613e69565b509098975050505050505050565b5f60208083018184528085518083526040925060408601915060408160051b8701018488015f5b83811015613f2257888303603f19018552815180516001600160a01b031684528781015160a089860181905290613f9082870182613e17565b838a0151878b015260608085015190880152608093840151939096019290925250509386019390860190600101613f57565b5f82825180855260208086019550808260051b8401018186015f5b8481101561407c57858303601f190189528151805180516001600160a01b039081168652868201518787015260408083015181880152606080840151909216918701919091526080808301519087015260a0808301519087015260c0918201511515918601919091528582015160e08601520151610120610100850181905261406881860183613e17565b9a86019a9450505090830190600101613fdd565b5090979650505050505050565b5f6040808301604084528086518083526060925060608601915060608160051b8701016020808a015f5b8481101561416157898403605f190186528151805180518652848101516001600160a01b03908116868801528a82015181168b880152898201518a8801526080808301519088015260a0808301519088015260c08083015115159088015260e08083015190911690870152610100908101519086015283810151610120860152880151610160610140860181905261414d81870183613e17565b9785019795505050908201906001016140b3565b5050878203908801526141748189613fc2565b9998505050505050505050565b5f805f60608486031215614193575f80fd5b833561419e81613c06565b95602085013595506040909401359392505050565b6001600160a01b038616815260a0602082018190525f906141d690830187613e17565b604083019590955250606081019290925260809091015292915050565b5f805f8060808587031215614206575f80fd5b843561421181613c06565b935060208501359250604085013561422881613c06565b9396929550929360600135925050565b634e487b7160e01b5f52601160045260245ffd5b80820180821115610e4857610e48614238565b600181811c9082168061427357607f821691505b60208210810361429157634e487b7160e01b5f52602260045260245ffd5b50919050565b601f8211156142db57805f5260205f20601f840160051c810160208510156142bc5750805b601f840160051c820191505b8181101561118f575f81556001016142c8565b505050565b81516001600160401b038111156142f9576142f9613ae9565b61430d81614307845461425f565b84614297565b602080601f831160018114614340575f84156143295750858301515b5f19600386901b1c1916600185901b178555613616565b5f85815260208120601f198616915b8281101561436e5788860151825594840194600190910190840161434f565b508582101561438b57878501515f19600388901b60f8161c191681555b5050505050600190811b01905550565b5f600182016143ac576143ac614238565b5060010190565b6001600160a01b039384168152919092166020820152604081019190915260600190565b634e487b7160e01b5f52603260045260245ffd5b5f82601f8301126143fa575f80fd5b8151614408613bc782613b55565b81815284602083860101111561441c575f80fd5b61442d826020830160208701613df5565b949350505050565b5f6020808385031215614446575f80fd5b82516001600160401b038082111561445c575f80fd5b818501915085601f83011261446f575f80fd5b815161447d613bc782613d2a565b81815260059190911b8301840190848101908883111561449b575f80fd5b8585015b8381101561454a578051858111156144b5575f80fd5b860160c0818c03601f19018113156144cb575f80fd5b6144d3613afd565b8983015181526040808401518b8301526060808501516144f281613c06565b808385015250608091508185015161450981613c06565b9083015260a08481015182840152928401519289841115614528575f80fd5b6145368f8d868801016143eb565b90830152508552505091860191860161449f565b5098975050505050505050565b8082028115828204841417610e4857610e48614238565b5f8261458857634e487b7160e01b5f52601260045260245ffd5b500490565b81810381811115610e4857610e48614238565b5f602082840312156145b0575f80fd5b81516001600160401b038111156145c5575f80fd5b61442d848285016143eb565b5f816145df576145df614238565b505f19019056fea2646970667358221220634521fd634c07f6259074c85411a4576302a10048deedfe9b34206038fbd06564736f6c63430008160033",
			"opcodes": "PUSH1 0x80 PUSH1 0x40 MSTORE CALLVALUE DUP1 ISZERO PUSH3 0x10 JUMPI PUSH0 DUP1 REVERT JUMPDEST POP PUSH1 0x40 MLOAD PUSH3 0x475A CODESIZE SUB DUP1 PUSH3 0x475A DUP4 CODECOPY DUP2 ADD PUSH1 0x40 DUP2 SWAP1 MSTORE PUSH3 0x33 SWAP2 PUSH3 0xEB JUMP JUMPDEST PUSH1 0x1 PUSH0 SSTORE PUSH3 0x42 CALLER PUSH3 0x7E JUMP JUMPDEST PUSH1 0x6 DUP1 SLOAD PUSH1 0x1 PUSH1 0x1 PUSH1 0xA0 SHL SUB SWAP6 DUP7 AND PUSH1 0x1 PUSH1 0x1 PUSH1 0xA0 SHL SUB NOT SWAP2 DUP3 AND OR SWAP1 SWAP2 SSTORE PUSH1 0x9 DUP1 SLOAD SWAP5 SWAP1 SWAP6 AND SWAP4 AND SWAP3 SWAP1 SWAP3 OR SWAP1 SWAP3 SSTORE PUSH1 0xB SSTORE PUSH1 0xA SSTORE PUSH3 0x130 JUMP JUMPDEST PUSH1 0x1 DUP1 SLOAD PUSH1 0x1 PUSH1 0x1 PUSH1 0xA0 SHL SUB DUP4 DUP2 AND PUSH1 0x1 PUSH1 0x1 PUSH1 0xA0 SHL SUB NOT DUP4 AND DUP2 OR SWAP1 SWAP4 SSTORE PUSH1 0x40 MLOAD SWAP2 AND SWAP2 SWAP1 DUP3 SWAP1 PUSH32 0x8BE0079C531659141344CD1FD0A4F28419497F9722A3DAAFE3B4186F6B6457E0 SWAP1 PUSH0 SWAP1 LOG3 POP POP JUMP JUMPDEST DUP1 MLOAD PUSH1 0x1 PUSH1 0x1 PUSH1 0xA0 SHL SUB DUP2 AND DUP2 EQ PUSH3 0xE6 JUMPI PUSH0 DUP1 REVERT JUMPDEST SWAP2 SWAP1 POP JUMP JUMPDEST PUSH0 DUP1 PUSH0 DUP1 PUSH1 0x80 DUP6 DUP8 SUB SLT ISZERO PUSH3 0xFF JUMPI PUSH0 DUP1 REVERT JUMPDEST PUSH3 0x10A DUP6 PUSH3 0xCF JUMP JUMPDEST SWAP4 POP PUSH3 0x11A PUSH1 0x20 DUP7 ADD PUSH3 0xCF JUMP JUMPDEST PUSH1 0x40 DUP7 ADD MLOAD PUSH1 0x60 SWAP1 SWAP7 ADD MLOAD SWAP5 SWAP8 SWAP1 SWAP7 POP SWAP3 POP POP POP JUMP JUMPDEST PUSH2 0x461C DUP1 PUSH3 0x13E PUSH0 CODECOPY PUSH0 RETURN INVALID PUSH1 0x80 PUSH1 0x40 MSTORE PUSH1 0x4 CALLDATASIZE LT PUSH2 0x275 JUMPI PUSH0 CALLDATALOAD PUSH1 0xE0 SHR DUP1 PUSH4 0x6FD3E1CD GT PUSH2 0x14A JUMPI DUP1 PUSH4 0xC47C4DEB GT PUSH2 0xBE JUMPI DUP1 PUSH4 0xE1F3D55A GT PUSH2 0x78 JUMPI DUP1 PUSH4 0xE1F3D55A EQ PUSH2 0x99B JUMPI DUP1 PUSH4 0xED1D0B8F EQ PUSH2 0x9BA JUMPI DUP1 PUSH4 0xF2FDE38B EQ PUSH2 0x9D9 JUMPI DUP1 PUSH4 0xF5CA15CB EQ PUSH2 0x9F8 JUMPI DUP1 PUSH4 0xFA7DA19D EQ PUSH2 0xA23 JUMPI DUP1 PUSH4 0xFC05B353 EQ PUSH2 0xA42 JUMPI PUSH0 DUP1 REVERT JUMPDEST DUP1 PUSH4 0xC47C4DEB EQ PUSH2 0x8E1 JUMPI DUP1 PUSH4 0xCC76BD70 EQ PUSH2 0x900 JUMPI DUP1 PUSH4 0xD6CBB202 EQ PUSH2 0x915 JUMPI DUP1 PUSH4 0xD80E880C EQ PUSH2 0x92B JUMPI DUP1 PUSH4 0xD84C0FD3 EQ PUSH2 0x93E JUMPI DUP1 PUSH4 0xDB922459 EQ PUSH2 0x97C JUMPI PUSH0 DUP1 REVERT JUMPDEST DUP1 PUSH4 0x8D02F792 GT PUSH2 0x10F JUMPI DUP1 PUSH4 0x8D02F792 EQ PUSH2 0x7B1 JUMPI DUP1 PUSH4 0x8DA5CB5B EQ PUSH2 0x80E JUMPI DUP1 PUSH4 0x9259D385 EQ PUSH2 0x82B JUMPI DUP1 PUSH4 0x95CE4A3B EQ PUSH2 0x84A JUMPI DUP1 PUSH4 0xB23ADF20 EQ PUSH2 0x86C JUMPI DUP1 PUSH4 0xB7D41E22 EQ PUSH2 0x89C JUMPI PUSH0 DUP1 REVERT JUMPDEST DUP1 PUSH4 0x6FD3E1CD EQ PUSH2 0x6EA JUMPI DUP1 PUSH4 0x715018A6 EQ PUSH2 0x715 JUMPI DUP1 PUSH4 0x752CD654 EQ PUSH2 0x729 JUMPI DUP1 PUSH4 0x7DF1BA45 EQ PUSH2 0x75B JUMPI DUP1 PUSH4 0x8CA9F621 EQ PUSH2 0x786 JUMPI PUSH0 DUP1 REVERT JUMPDEST DUP1 PUSH4 0x408CE41E GT PUSH2 0x1EC JUMPI DUP1 PUSH4 0x5DE6C42F GT PUSH2 0x1A6 JUMPI DUP1 PUSH4 0x5DE6C42F EQ PUSH2 0x63F JUMPI DUP1 PUSH4 0x5F81A57C EQ PUSH2 0x676 JUMPI DUP1 PUSH4 0x6605FF66 EQ PUSH2 0x68B JUMPI DUP1 PUSH4 0x6617B35D EQ PUSH2 0x6A0 JUMPI DUP1 PUSH4 0x6C7E1DD0 EQ PUSH2 0x6B6 JUMPI DUP1 PUSH4 0x6DDE80F1 EQ PUSH2 0x6CB JUMPI PUSH0 DUP1 REVERT JUMPDEST DUP1 PUSH4 0x408CE41E EQ PUSH2 0x58E JUMPI DUP1 PUSH4 0x456005C8 EQ PUSH2 0x5A3 JUMPI DUP1 PUSH4 0x4AA45E30 EQ PUSH2 0x5C2 JUMPI DUP1 PUSH4 0x556F8084 EQ PUSH2 0x5EE JUMPI DUP1 PUSH4 0x5814D593 EQ PUSH2 0x601 JUMPI DUP1 PUSH4 0x5902F0D7 EQ PUSH2 0x620 JUMPI PUSH0 DUP1 REVERT JUMPDEST DUP1 PUSH4 0x20092E04 GT PUSH2 0x23D JUMPI DUP1 PUSH4 0x20092E04 EQ PUSH2 0x3D9 JUMPI DUP1 PUSH4 0x210D135E EQ PUSH2 0x406 JUMPI DUP1 PUSH4 0x2791A4D0 EQ PUSH2 0x425 JUMPI DUP1 PUSH4 0x3529280B EQ PUSH2 0x4FB JUMPI DUP1 PUSH4 0x369136BD EQ PUSH2 0x526 JUMPI DUP1 PUSH4 0x39B7E971 EQ PUSH2 0x562 JUMPI PUSH0 DUP1 REVERT JUMPDEST DUP1 PUSH4 0x49279F2 EQ PUSH2 0x279 JUMPI DUP1 PUSH4 0xE260E86 EQ PUSH2 0x29A JUMPI DUP1 PUSH4 0x10390006 EQ PUSH2 0x354 JUMPI DUP1 PUSH4 0x1065CF73 EQ PUSH2 0x373 JUMPI DUP1 PUSH4 0x1BFEE121 EQ PUSH2 0x3BA JUMPI JUMPDEST PUSH0 DUP1 REVERT JUMPDEST CALLVALUE DUP1 ISZERO PUSH2 0x284 JUMPI PUSH0 DUP1 REVERT JUMPDEST POP PUSH2 0x298 PUSH2 0x293 CALLDATASIZE PUSH1 0x4 PUSH2 0x3B7B JUMP JUMPDEST PUSH2 0xA61 JUMP JUMPDEST STOP JUMPDEST CALLVALUE DUP1 ISZERO PUSH2 0x2A5 JUMPI PUSH0 DUP1 REVERT JUMPDEST POP PUSH2 0x30A PUSH2 0x2B4 CALLDATASIZE PUSH1 0x4 PUSH2 0x3C1A JUMP JUMPDEST PUSH1 0x12 PUSH1 0x20 SWAP1 DUP2 MSTORE PUSH0 SWAP3 DUP4 MSTORE PUSH1 0x40 DUP1 DUP5 KECCAK256 SWAP1 SWAP2 MSTORE SWAP1 DUP3 MSTORE SWAP1 KECCAK256 DUP1 SLOAD PUSH1 0x1 DUP3 ADD SLOAD PUSH1 0x2 DUP4 ADD SLOAD PUSH1 0x3 DUP5 ADD SLOAD PUSH1 0x4 DUP6 ADD SLOAD PUSH1 0x5 DUP7 ADD SLOAD PUSH1 0x6 SWAP1 SWAP7 ADD SLOAD PUSH1 0x1 PUSH1 0x1 PUSH1 0xA0 SHL SUB SWAP6 DUP7 AND SWAP7 SWAP5 SWAP6 SWAP4 SWAP5 SWAP4 SWAP1 SWAP3 AND SWAP3 SWAP1 SWAP2 PUSH1 0xFF AND DUP8 JUMP JUMPDEST PUSH1 0x40 DUP1 MLOAD PUSH1 0x1 PUSH1 0x1 PUSH1 0xA0 SHL SUB SWAP9 DUP10 AND DUP2 MSTORE PUSH1 0x20 DUP2 ADD SWAP8 SWAP1 SWAP8 MSTORE DUP7 ADD SWAP5 SWAP1 SWAP5 MSTORE SWAP5 SWAP1 SWAP2 AND PUSH1 0x60 DUP5 ADD MSTORE PUSH1 0x80 DUP4 ADD MSTORE PUSH1 0xA0 DUP3 ADD SWAP3 SWAP1 SWAP3 MSTORE SWAP1 ISZERO ISZERO PUSH1 0xC0 DUP3 ADD MSTORE PUSH1 0xE0 ADD JUMPDEST PUSH1 0x40 MLOAD DUP1 SWAP2 SUB SWAP1 RETURN JUMPDEST CALLVALUE DUP1 ISZERO PUSH2 0x35F JUMPI PUSH0 DUP1 REVERT JUMPDEST POP PUSH2 0x298 PUSH2 0x36E CALLDATASIZE PUSH1 0x4 PUSH2 0x3C44 JUMP JUMPDEST PUSH2 0xDA7 JUMP JUMPDEST CALLVALUE DUP1 ISZERO PUSH2 0x37E JUMPI PUSH0 DUP1 REVERT JUMPDEST POP PUSH2 0x3A5 PUSH2 0x38D CALLDATASIZE PUSH1 0x4 PUSH2 0x3C66 JUMP JUMPDEST PUSH1 0x8 PUSH1 0x20 MSTORE PUSH0 SWAP1 DUP2 MSTORE PUSH1 0x40 SWAP1 KECCAK256 DUP1 SLOAD PUSH1 0x1 SWAP1 SWAP2 ADD SLOAD DUP3 JUMP JUMPDEST PUSH1 0x40 DUP1 MLOAD SWAP3 DUP4 MSTORE PUSH1 0x20 DUP4 ADD SWAP2 SWAP1 SWAP2 MSTORE ADD PUSH2 0x34B JUMP JUMPDEST CALLVALUE DUP1 ISZERO PUSH2 0x3C5 JUMPI PUSH0 DUP1 REVERT JUMPDEST POP PUSH2 0x298 PUSH2 0x3D4 CALLDATASIZE PUSH1 0x4 PUSH2 0x3C66 JUMP JUMPDEST PUSH2 0xDD1 JUMP JUMPDEST CALLVALUE DUP1 ISZERO PUSH2 0x3E4 JUMPI PUSH0 DUP1 REVERT JUMPDEST POP PUSH2 0x3F8 PUSH2 0x3F3 CALLDATASIZE PUSH1 0x4 PUSH2 0x3C7D JUMP JUMPDEST PUSH2 0xDDE JUMP JUMPDEST PUSH1 0x40 MLOAD SWAP1 DUP2 MSTORE PUSH1 0x20 ADD PUSH2 0x34B JUMP JUMPDEST CALLVALUE DUP1 ISZERO PUSH2 0x411 JUMPI PUSH0 DUP1 REVERT JUMPDEST POP PUSH2 0x298 PUSH2 0x420 CALLDATASIZE PUSH1 0x4 PUSH2 0x3C9D JUMP JUMPDEST PUSH2 0xE4E JUMP JUMPDEST CALLVALUE DUP1 ISZERO PUSH2 0x430 JUMPI PUSH0 DUP1 REVERT JUMPDEST POP PUSH2 0x4A7 PUSH2 0x43F CALLDATASIZE PUSH1 0x4 PUSH2 0x3C1A JUMP JUMPDEST PUSH1 0x10 PUSH1 0x20 SWAP1 DUP2 MSTORE PUSH0 SWAP3 DUP4 MSTORE PUSH1 0x40 DUP1 DUP5 KECCAK256 SWAP1 SWAP2 MSTORE SWAP1 DUP3 MSTORE SWAP1 KECCAK256 DUP1 SLOAD PUSH1 0x1 DUP3 ADD SLOAD PUSH1 0x2 DUP4 ADD SLOAD PUSH1 0x3 DUP5 ADD SLOAD PUSH1 0x4 DUP6 ADD SLOAD PUSH1 0x5 DUP7 ADD SLOAD PUSH1 0x6 DUP8 ADD SLOAD PUSH1 0x7 SWAP1 SWAP8 ADD SLOAD SWAP6 SWAP7 PUSH1 0x1 PUSH1 0x1 PUSH1 0xA0 SHL SUB SWAP6 DUP7 AND SWAP7 SWAP5 DUP7 AND SWAP6 SWAP4 SWAP5 SWAP3 SWAP4 SWAP2 SWAP3 PUSH1 0xFF DUP3 AND SWAP3 PUSH2 0x100 SWAP1 SWAP3 DIV SWAP1 SWAP2 AND SWAP1 DUP10 JUMP JUMPDEST PUSH1 0x40 DUP1 MLOAD SWAP10 DUP11 MSTORE PUSH1 0x1 PUSH1 0x1 PUSH1 0xA0 SHL SUB SWAP9 DUP10 AND PUSH1 0x20 DUP12 ADD MSTORE SWAP7 DUP9 AND SWAP7 DUP10 ADD SWAP7 SWAP1 SWAP7 MSTORE PUSH1 0x60 DUP9 ADD SWAP5 SWAP1 SWAP5 MSTORE PUSH1 0x80 DUP8 ADD SWAP3 SWAP1 SWAP3 MSTORE PUSH1 0xA0 DUP7 ADD MSTORE ISZERO ISZERO PUSH1 0xC0 DUP6 ADD MSTORE SWAP1 SWAP2 AND PUSH1 0xE0 DUP4 ADD MSTORE PUSH2 0x100 DUP3 ADD MSTORE PUSH2 0x120 ADD PUSH2 0x34B JUMP JUMPDEST CALLVALUE DUP1 ISZERO PUSH2 0x506 JUMPI PUSH0 DUP1 REVERT JUMPDEST POP PUSH2 0x3F8 PUSH2 0x515 CALLDATASIZE PUSH1 0x4 PUSH2 0x3C66 JUMP JUMPDEST PUSH1 0xC PUSH1 0x20 MSTORE PUSH0 SWAP1 DUP2 MSTORE PUSH1 0x40 SWAP1 KECCAK256 SLOAD DUP2 JUMP JUMPDEST CALLVALUE DUP1 ISZERO PUSH2 0x531 JUMPI PUSH0 DUP1 REVERT JUMPDEST POP PUSH2 0x3F8 PUSH2 0x540 CALLDATASIZE PUSH1 0x4 PUSH2 0x3CEB JUMP JUMPDEST PUSH1 0x18 PUSH1 0x20 SWAP1 DUP2 MSTORE PUSH0 SWAP4 DUP5 MSTORE PUSH1 0x40 DUP1 DUP6 KECCAK256 DUP3 MSTORE SWAP3 DUP5 MSTORE DUP3 DUP5 KECCAK256 SWAP1 MSTORE DUP3 MSTORE SWAP1 KECCAK256 SLOAD DUP2 JUMP JUMPDEST CALLVALUE DUP1 ISZERO PUSH2 0x56D JUMPI PUSH0 DUP1 REVERT JUMPDEST POP PUSH2 0x581 PUSH2 0x57C CALLDATASIZE PUSH1 0x4 PUSH2 0x3D4C JUMP JUMPDEST PUSH2 0x1196 JUMP JUMPDEST PUSH1 0x40 MLOAD PUSH2 0x34B SWAP2 SWAP1 PUSH2 0x3E42 JUMP JUMPDEST CALLVALUE DUP1 ISZERO PUSH2 0x599 JUMPI PUSH0 DUP1 REVERT JUMPDEST POP PUSH2 0x3F8 PUSH1 0x7 SLOAD DUP2 JUMP JUMPDEST CALLVALUE DUP1 ISZERO PUSH2 0x5AE JUMPI PUSH0 DUP1 REVERT JUMPDEST POP PUSH2 0x298 PUSH2 0x5BD CALLDATASIZE PUSH1 0x4 PUSH2 0x3C9D JUMP JUMPDEST PUSH2 0x146B JUMP JUMPDEST CALLVALUE DUP1 ISZERO PUSH2 0x5CD JUMPI PUSH0 DUP1 REVERT JUMPDEST POP PUSH2 0x5E1 PUSH2 0x5DC CALLDATASIZE PUSH1 0x4 PUSH2 0x3C66 JUMP JUMPDEST PUSH2 0x174F JUMP JUMPDEST PUSH1 0x40 MLOAD PUSH2 0x34B SWAP2 SWAP1 PUSH2 0x3F30 JUMP JUMPDEST PUSH2 0x298 PUSH2 0x5FC CALLDATASIZE PUSH1 0x4 PUSH2 0x3C7D JUMP JUMPDEST PUSH2 0x1925 JUMP JUMPDEST CALLVALUE DUP1 ISZERO PUSH2 0x60C JUMPI PUSH0 DUP1 REVERT JUMPDEST POP PUSH2 0x298 PUSH2 0x61B CALLDATASIZE PUSH1 0x4 PUSH2 0x3C66 JUMP JUMPDEST PUSH2 0x213D JUMP JUMPDEST CALLVALUE DUP1 ISZERO PUSH2 0x62B JUMPI PUSH0 DUP1 REVERT JUMPDEST POP PUSH2 0x3F8 PUSH2 0x63A CALLDATASIZE PUSH1 0x4 PUSH2 0x3C7D JUMP JUMPDEST PUSH2 0x248D JUMP JUMPDEST CALLVALUE DUP1 ISZERO PUSH2 0x64A JUMPI PUSH0 DUP1 REVERT JUMPDEST POP PUSH1 0x6 SLOAD PUSH2 0x65E SWAP1 PUSH1 0x1 PUSH1 0x1 PUSH1 0xA0 SHL SUB AND DUP2 JUMP JUMPDEST PUSH1 0x40 MLOAD PUSH1 0x1 PUSH1 0x1 PUSH1 0xA0 SHL SUB SWAP1 SWAP2 AND DUP2 MSTORE PUSH1 0x20 ADD PUSH2 0x34B JUMP JUMPDEST CALLVALUE DUP1 ISZERO PUSH2 0x681 JUMPI PUSH0 DUP1 REVERT JUMPDEST POP PUSH2 0x3F8 PUSH1 0xF SLOAD DUP2 JUMP JUMPDEST CALLVALUE DUP1 ISZERO PUSH2 0x696 JUMPI PUSH0 DUP1 REVERT JUMPDEST POP PUSH2 0x3F8 PUSH1 0xE SLOAD DUP2 JUMP JUMPDEST CALLVALUE DUP1 ISZERO PUSH2 0x6AB JUMPI PUSH0 DUP1 REVERT JUMPDEST POP PUSH1 0x3 SLOAD PUSH2 0x3F8 SWAP1 DUP2 JUMP JUMPDEST CALLVALUE DUP1 ISZERO PUSH2 0x6C1 JUMPI PUSH0 DUP1 REVERT JUMPDEST POP PUSH2 0x3F8 PUSH1 0xB SLOAD DUP2 JUMP JUMPDEST CALLVALUE DUP1 ISZERO PUSH2 0x6D6 JUMPI PUSH0 DUP1 REVERT JUMPDEST POP PUSH2 0x298 PUSH2 0x6E5 CALLDATASIZE PUSH1 0x4 PUSH2 0x3C7D JUMP JUMPDEST PUSH2 0x24F3 JUMP JUMPDEST CALLVALUE DUP1 ISZERO PUSH2 0x6F5 JUMPI PUSH0 DUP1 REVERT JUMPDEST POP PUSH2 0x3F8 PUSH2 0x704 CALLDATASIZE PUSH1 0x4 PUSH2 0x3C66 JUMP JUMPDEST PUSH1 0x16 PUSH1 0x20 MSTORE PUSH0 SWAP1 DUP2 MSTORE PUSH1 0x40 SWAP1 KECCAK256 SLOAD DUP2 JUMP JUMPDEST CALLVALUE DUP1 ISZERO PUSH2 0x720 JUMPI PUSH0 DUP1 REVERT JUMPDEST POP PUSH2 0x298 PUSH2 0x259D JUMP JUMPDEST CALLVALUE DUP1 ISZERO PUSH2 0x734 JUMPI PUSH0 DUP1 REVERT JUMPDEST POP PUSH2 0x3A5 PUSH2 0x743 CALLDATASIZE PUSH1 0x4 PUSH2 0x3C66 JUMP JUMPDEST PUSH1 0xD PUSH1 0x20 MSTORE PUSH0 SWAP1 DUP2 MSTORE PUSH1 0x40 SWAP1 KECCAK256 DUP1 SLOAD PUSH1 0x1 SWAP1 SWAP2 ADD SLOAD DUP3 JUMP JUMPDEST CALLVALUE DUP1 ISZERO PUSH2 0x766 JUMPI PUSH0 DUP1 REVERT JUMPDEST POP PUSH2 0x3F8 PUSH2 0x775 CALLDATASIZE PUSH1 0x4 PUSH2 0x3C66 JUMP JUMPDEST PUSH1 0x13 PUSH1 0x20 MSTORE PUSH0 SWAP1 DUP2 MSTORE PUSH1 0x40 SWAP1 KECCAK256 SLOAD DUP2 JUMP JUMPDEST CALLVALUE DUP1 ISZERO PUSH2 0x791 JUMPI PUSH0 DUP1 REVERT JUMPDEST POP PUSH2 0x3F8 PUSH2 0x7A0 CALLDATASIZE PUSH1 0x4 PUSH2 0x3C44 JUMP JUMPDEST PUSH1 0x19 PUSH1 0x20 MSTORE PUSH0 SWAP1 DUP2 MSTORE PUSH1 0x40 SWAP1 KECCAK256 SLOAD DUP2 JUMP JUMPDEST CALLVALUE DUP1 ISZERO PUSH2 0x7BC JUMPI PUSH0 DUP1 REVERT JUMPDEST POP PUSH2 0x7EF PUSH2 0x7CB CALLDATASIZE PUSH1 0x4 PUSH2 0x3C66 JUMP JUMPDEST PUSH1 0x11 PUSH1 0x20 MSTORE PUSH0 SWAP1 DUP2 MSTORE PUSH1 0x40 SWAP1 KECCAK256 DUP1 SLOAD PUSH1 0x1 SWAP1 SWAP2 ADD SLOAD PUSH1 0x1 PUSH1 0x1 PUSH1 0xA0 SHL SUB SWAP1 SWAP2 AND SWAP1 DUP3 JUMP JUMPDEST PUSH1 0x40 DUP1 MLOAD PUSH1 0x1 PUSH1 0x1 PUSH1 0xA0 SHL SUB SWAP1 SWAP4 AND DUP4 MSTORE PUSH1 0x20 DUP4 ADD SWAP2 SWAP1 SWAP2 MSTORE ADD PUSH2 0x34B JUMP JUMPDEST CALLVALUE DUP1 ISZERO PUSH2 0x819 JUMPI PUSH0 DUP1 REVERT JUMPDEST POP PUSH1 0x1 SLOAD PUSH1 0x1 PUSH1 0x1 PUSH1 0xA0 SHL SUB AND PUSH2 0x65E JUMP JUMPDEST CALLVALUE DUP1 ISZERO PUSH2 0x836 JUMPI PUSH0 DUP1 REVERT JUMPDEST POP PUSH2 0x298 PUSH2 0x845 CALLDATASIZE PUSH1 0x4 PUSH2 0x3C66 JUMP JUMPDEST PUSH2 0x25B0 JUMP JUMPDEST CALLVALUE DUP1 ISZERO PUSH2 0x855 JUMPI PUSH0 DUP1 REVERT JUMPDEST POP PUSH2 0x85E PUSH2 0x27B9 JUMP JUMPDEST PUSH1 0x40 MLOAD PUSH2 0x34B SWAP3 SWAP2 SWAP1 PUSH2 0x4089 JUMP JUMPDEST CALLVALUE DUP1 ISZERO PUSH2 0x877 JUMPI PUSH0 DUP1 REVERT JUMPDEST POP PUSH2 0x88B PUSH2 0x886 CALLDATASIZE PUSH1 0x4 PUSH2 0x4181 JUMP JUMPDEST PUSH2 0x2BB4 JUMP JUMPDEST PUSH1 0x40 MLOAD PUSH2 0x34B SWAP6 SWAP5 SWAP4 SWAP3 SWAP2 SWAP1 PUSH2 0x41B3 JUMP JUMPDEST CALLVALUE DUP1 ISZERO PUSH2 0x8A7 JUMPI PUSH0 DUP1 REVERT JUMPDEST POP PUSH2 0x3F8 PUSH2 0x8B6 CALLDATASIZE PUSH1 0x4 PUSH2 0x41F3 JUMP JUMPDEST PUSH1 0x17 PUSH1 0x20 SWAP1 DUP2 MSTORE PUSH0 SWAP5 DUP6 MSTORE PUSH1 0x40 DUP1 DUP7 KECCAK256 DUP3 MSTORE SWAP4 DUP6 MSTORE DUP4 DUP6 KECCAK256 DUP2 MSTORE SWAP2 DUP5 MSTORE DUP3 DUP5 KECCAK256 SWAP1 SWAP2 MSTORE DUP3 MSTORE SWAP1 KECCAK256 SLOAD DUP2 JUMP JUMPDEST CALLVALUE DUP1 ISZERO PUSH2 0x8EC JUMPI PUSH0 DUP1 REVERT JUMPDEST POP PUSH2 0x298 PUSH2 0x8FB CALLDATASIZE PUSH1 0x4 PUSH2 0x3C66 JUMP JUMPDEST PUSH2 0x2C83 JUMP JUMPDEST CALLVALUE DUP1 ISZERO PUSH2 0x90B JUMPI PUSH0 DUP1 REVERT JUMPDEST POP PUSH2 0x3F8 PUSH1 0xA SLOAD DUP2 JUMP JUMPDEST CALLVALUE DUP1 ISZERO PUSH2 0x920 JUMPI PUSH0 DUP1 REVERT JUMPDEST POP PUSH1 0x2 SLOAD PUSH2 0x3F8 SWAP1 DUP2 JUMP JUMPDEST PUSH2 0x298 PUSH2 0x939 CALLDATASIZE PUSH1 0x4 PUSH2 0x3C66 JUMP JUMPDEST PUSH2 0x2E10 JUMP JUMPDEST CALLVALUE DUP1 ISZERO PUSH2 0x949 JUMPI PUSH0 DUP1 REVERT JUMPDEST POP PUSH2 0x7EF PUSH2 0x958 CALLDATASIZE PUSH1 0x4 PUSH2 0x3C66 JUMP JUMPDEST PUSH1 0x14 PUSH1 0x20 MSTORE PUSH0 SWAP1 DUP2 MSTORE PUSH1 0x40 SWAP1 KECCAK256 DUP1 SLOAD PUSH1 0x1 SWAP1 SWAP2 ADD SLOAD PUSH1 0x1 PUSH1 0x1 PUSH1 0xA0 SHL SUB SWAP1 SWAP2 AND SWAP1 DUP3 JUMP JUMPDEST CALLVALUE DUP1 ISZERO PUSH2 0x987 JUMPI PUSH0 DUP1 REVERT JUMPDEST POP PUSH2 0x3F8 PUSH2 0x996 CALLDATASIZE PUSH1 0x4 PUSH2 0x3C7D JUMP JUMPDEST PUSH2 0x361E JUMP JUMPDEST CALLVALUE DUP1 ISZERO PUSH2 0x9A6 JUMPI PUSH0 DUP1 REVERT JUMPDEST POP PUSH1 0x9 SLOAD PUSH2 0x65E SWAP1 PUSH1 0x1 PUSH1 0x1 PUSH1 0xA0 SHL SUB AND DUP2 JUMP JUMPDEST CALLVALUE DUP1 ISZERO PUSH2 0x9C5 JUMPI PUSH0 DUP1 REVERT JUMPDEST POP PUSH2 0x298 PUSH2 0x9D4 CALLDATASIZE PUSH1 0x4 PUSH2 0x3C7D JUMP JUMPDEST PUSH2 0x3671 JUMP JUMPDEST CALLVALUE DUP1 ISZERO PUSH2 0x9E4 JUMPI PUSH0 DUP1 REVERT JUMPDEST POP PUSH2 0x298 PUSH2 0x9F3 CALLDATASIZE PUSH1 0x4 PUSH2 0x3C44 JUMP JUMPDEST PUSH2 0x37B7 JUMP JUMPDEST CALLVALUE DUP1 ISZERO PUSH2 0xA03 JUMPI PUSH0 DUP1 REVERT JUMPDEST POP PUSH2 0x3F8 PUSH2 0xA12 CALLDATASIZE PUSH1 0x4 PUSH2 0x3C44 JUMP JUMPDEST PUSH1 0x1A PUSH1 0x20 MSTORE PUSH0 SWAP1 DUP2 MSTORE PUSH1 0x40 SWAP1 KECCAK256 SLOAD DUP2 JUMP JUMPDEST CALLVALUE DUP1 ISZERO PUSH2 0xA2E JUMPI PUSH0 DUP1 REVERT JUMPDEST POP PUSH2 0x298 PUSH2 0xA3D CALLDATASIZE PUSH1 0x4 PUSH2 0x3C66 JUMP JUMPDEST PUSH2 0x382D JUMP JUMPDEST CALLVALUE DUP1 ISZERO PUSH2 0xA4D JUMPI PUSH0 DUP1 REVERT JUMPDEST POP PUSH2 0x298 PUSH2 0xA5C CALLDATASIZE PUSH1 0x4 PUSH2 0x3C44 JUMP JUMPDEST PUSH2 0x383A JUMP JUMPDEST PUSH0 DUP4 DUP2 MSTORE PUSH1 0x14 PUSH1 0x20 SWAP1 DUP2 MSTORE PUSH1 0x40 DUP1 DUP4 KECCAK256 DUP1 SLOAD PUSH1 0x1 SWAP1 SWAP2 ADD SLOAD PUSH1 0x1 PUSH1 0x1 PUSH1 0xA0 SHL SUB SWAP2 DUP3 AND DUP1 DUP7 MSTORE PUSH1 0x18 DUP6 MSTORE DUP4 DUP7 KECCAK256 DUP3 DUP8 MSTORE DUP6 MSTORE DUP4 DUP7 KECCAK256 CALLER DUP1 DUP9 MSTORE SWAP1 DUP7 MSTORE DUP5 DUP8 KECCAK256 SLOAD DUP3 DUP9 MSTORE PUSH1 0x12 DUP8 MSTORE DUP6 DUP9 KECCAK256 DUP5 DUP10 MSTORE SWAP1 SWAP7 MSTORE SWAP4 SWAP1 SWAP6 KECCAK256 SLOAD SWAP1 SWAP4 SWAP3 SWAP2 AND SUB PUSH2 0xB0D JUMPI PUSH1 0x40 MLOAD PUSH3 0x461BCD PUSH1 0xE5 SHL DUP2 MSTORE PUSH1 0x20 PUSH1 0x4 DUP3 ADD DUP2 SWAP1 MSTORE PUSH1 0x24 DUP3 ADD MSTORE PUSH32 0x596F7520617265204E6F7420456C696769626C6520666F722042696464696E67 PUSH1 0x44 DUP3 ADD MSTORE PUSH1 0x64 ADD JUMPDEST PUSH1 0x40 MLOAD DUP1 SWAP2 SUB SWAP1 REVERT JUMPDEST PUSH1 0x1 PUSH1 0x1 PUSH1 0xA0 SHL SUB DUP4 AND PUSH0 SWAP1 DUP2 MSTORE PUSH1 0x12 PUSH1 0x20 SWAP1 DUP2 MSTORE PUSH1 0x40 DUP1 DUP4 KECCAK256 DUP6 DUP5 MSTORE SWAP1 SWAP2 MSTORE SWAP1 KECCAK256 PUSH1 0x2 ADD SLOAD DUP5 GT PUSH2 0xB94 JUMPI PUSH1 0x40 MLOAD PUSH3 0x461BCD PUSH1 0xE5 SHL DUP2 MSTORE PUSH1 0x20 PUSH1 0x4 DUP3 ADD MSTORE PUSH1 0x2A PUSH1 0x24 DUP3 ADD MSTORE PUSH32 0x506C656173652053656C65637420746865204269642048696768657220746861 PUSH1 0x44 DUP3 ADD MSTORE PUSH10 0x6E204D696E2042696421 PUSH1 0xB0 SHL PUSH1 0x64 DUP3 ADD MSTORE PUSH1 0x84 ADD PUSH2 0xB04 JUMP JUMPDEST PUSH1 0x1 PUSH1 0x1 PUSH1 0xA0 SHL SUB DUP4 AND PUSH0 SWAP1 DUP2 MSTORE PUSH1 0x12 PUSH1 0x20 SWAP1 DUP2 MSTORE PUSH1 0x40 DUP1 DUP4 KECCAK256 DUP6 DUP5 MSTORE SWAP1 SWAP2 MSTORE SWAP1 KECCAK256 PUSH1 0x6 ADD SLOAD PUSH1 0xFF AND PUSH2 0xC01 JUMPI PUSH1 0x40 MLOAD PUSH3 0x461BCD PUSH1 0xE5 SHL DUP2 MSTORE PUSH1 0x20 PUSH1 0x4 DUP3 ADD MSTORE PUSH1 0x15 PUSH1 0x24 DUP3 ADD MSTORE PUSH21 0x4E6F74204C697374656420496E204F666665727321 PUSH1 0x58 SHL PUSH1 0x44 DUP3 ADD MSTORE PUSH1 0x64 ADD PUSH2 0xB04 JUMP JUMPDEST PUSH1 0x40 MLOAD DUP1 PUSH1 0xA0 ADD PUSH1 0x40 MSTORE DUP1 CALLER PUSH1 0x1 PUSH1 0x1 PUSH1 0xA0 SHL SUB AND DUP2 MSTORE PUSH1 0x20 ADD DUP7 DUP2 MSTORE PUSH1 0x20 ADD DUP6 DUP2 MSTORE PUSH1 0x20 ADD TIMESTAMP DUP2 MSTORE PUSH1 0x20 ADD PUSH1 0x13 PUSH0 DUP10 DUP2 MSTORE PUSH1 0x20 ADD SWAP1 DUP2 MSTORE PUSH1 0x20 ADD PUSH0 KECCAK256 SLOAD PUSH1 0x1 PUSH2 0xC4B SWAP2 SWAP1 PUSH2 0x424C JUMP JUMPDEST SWAP1 MSTORE PUSH1 0x1 PUSH1 0x1 PUSH1 0xA0 SHL SUB DUP5 AND PUSH0 SWAP1 DUP2 MSTORE PUSH1 0x15 PUSH1 0x20 SWAP1 DUP2 MSTORE PUSH1 0x40 DUP1 DUP4 KECCAK256 DUP7 DUP5 MSTORE DUP3 MSTORE DUP1 DUP4 KECCAK256 DUP11 DUP5 MSTORE PUSH1 0x13 SWAP1 SWAP3 MSTORE DUP3 KECCAK256 SLOAD SWAP1 SWAP2 SWAP1 PUSH2 0xC88 SWAP1 PUSH1 0x1 PUSH2 0x424C JUMP JUMPDEST DUP2 MSTORE PUSH1 0x20 DUP1 DUP3 ADD SWAP3 SWAP1 SWAP3 MSTORE PUSH1 0x40 ADD PUSH0 KECCAK256 DUP3 MLOAD DUP2 SLOAD PUSH1 0x1 PUSH1 0x1 PUSH1 0xA0 SHL SUB NOT AND PUSH1 0x1 PUSH1 0x1 PUSH1 0xA0 SHL SUB SWAP1 SWAP2 AND OR DUP2 SSTORE SWAP1 DUP3 ADD MLOAD PUSH1 0x1 DUP3 ADD SWAP1 PUSH2 0xCC7 SWAP1 DUP3 PUSH2 0x42E0 JUMP JUMPDEST POP PUSH1 0x40 DUP3 DUP2 ADD MLOAD PUSH1 0x2 DUP4 ADD SSTORE PUSH1 0x60 DUP4 ADD MLOAD PUSH1 0x3 DUP4 ADD SSTORE PUSH1 0x80 SWAP1 SWAP3 ADD MLOAD PUSH1 0x4 SWAP1 SWAP2 ADD SSTORE PUSH0 DUP8 DUP2 MSTORE PUSH1 0x13 PUSH1 0x20 MSTORE KECCAK256 SLOAD PUSH2 0xCFF SWAP1 PUSH1 0x1 PUSH2 0x424C JUMP JUMPDEST PUSH1 0x1 PUSH1 0x1 PUSH1 0xA0 SHL SUB DUP5 AND PUSH0 SWAP1 DUP2 MSTORE PUSH1 0x17 PUSH1 0x20 SWAP1 DUP2 MSTORE PUSH1 0x40 DUP1 DUP4 KECCAK256 DUP7 DUP5 MSTORE DUP3 MSTORE DUP1 DUP4 KECCAK256 CALLER DUP5 MSTORE SWAP1 SWAP2 MSTORE DUP2 KECCAK256 SWAP1 PUSH2 0xD35 DUP5 PUSH1 0x1 PUSH2 0x424C JUMP JUMPDEST DUP2 MSTORE PUSH1 0x20 DUP1 DUP3 ADD SWAP3 SWAP1 SWAP3 MSTORE PUSH1 0x40 SWAP1 DUP2 ADD PUSH0 SWAP1 DUP2 KECCAK256 SWAP4 SWAP1 SWAP4 SSTORE PUSH1 0x1 PUSH1 0x1 PUSH1 0xA0 SHL SUB DUP7 AND DUP4 MSTORE PUSH1 0x18 DUP3 MSTORE DUP1 DUP4 KECCAK256 DUP6 DUP5 MSTORE DUP3 MSTORE DUP1 DUP4 KECCAK256 CALLER DUP5 MSTORE SWAP1 SWAP2 MSTORE DUP2 KECCAK256 DUP1 SLOAD SWAP2 PUSH2 0xD7C DUP4 PUSH2 0x439B JUMP JUMPDEST SWAP1 SWAP2 SSTORE POP POP PUSH0 DUP7 DUP2 MSTORE PUSH1 0x13 PUSH1 0x20 MSTORE PUSH1 0x40 DUP2 KECCAK256 DUP1 SLOAD SWAP2 PUSH2 0xD9A DUP4 PUSH2 0x439B JUMP JUMPDEST SWAP2 SWAP1 POP SSTORE POP POP POP POP POP POP POP JUMP JUMPDEST PUSH2 0xDAF PUSH2 0x3864 JUMP JUMPDEST PUSH1 0x9 DUP1 SLOAD PUSH1 0x1 PUSH1 0x1 PUSH1 0xA0 SHL SUB NOT AND PUSH1 0x1 PUSH1 0x1 PUSH1 0xA0 SHL SUB SWAP3 SWAP1 SWAP3 AND SWAP2 SWAP1 SWAP2 OR SWAP1 SSTORE JUMP JUMPDEST PUSH2 0xDD9 PUSH2 0x3864 JUMP JUMPDEST PUSH1 0xB SSTORE JUMP JUMPDEST PUSH0 DUP1 PUSH0 JUMPDEST PUSH1 0xF SLOAD DUP2 LT ISZERO PUSH2 0xE44 JUMPI PUSH0 DUP2 DUP2 MSTORE PUSH1 0xD PUSH1 0x20 MSTORE PUSH1 0x40 SWAP1 KECCAK256 PUSH1 0x1 ADD SLOAD DUP6 GT DUP1 ISZERO SWAP1 PUSH2 0xE1C JUMPI POP PUSH0 DUP2 DUP2 MSTORE PUSH1 0xD PUSH1 0x20 MSTORE PUSH1 0x40 SWAP1 KECCAK256 PUSH1 0x1 ADD SLOAD DUP5 LT ISZERO JUMPDEST ISZERO PUSH2 0xE3C JUMPI PUSH0 DUP2 DUP2 MSTORE PUSH1 0xD PUSH1 0x20 MSTORE PUSH1 0x40 SWAP1 KECCAK256 SLOAD PUSH2 0xE39 SWAP1 DUP4 PUSH2 0x424C JUMP JUMPDEST SWAP2 POP JUMPDEST PUSH1 0x1 ADD PUSH2 0xDE2 JUMP JUMPDEST POP SWAP1 POP JUMPDEST SWAP3 SWAP2 POP POP JUMP JUMPDEST PUSH2 0xE56 PUSH2 0x38BE JUMP JUMPDEST PUSH1 0x1 PUSH1 0x1 PUSH1 0xA0 SHL SUB DUP6 AND PUSH0 SWAP1 DUP2 MSTORE PUSH1 0x10 PUSH1 0x20 SWAP1 DUP2 MSTORE PUSH1 0x40 DUP1 DUP4 KECCAK256 DUP7 DUP5 MSTORE SWAP1 SWAP2 MSTORE SWAP1 KECCAK256 PUSH1 0x6 ADD SLOAD PUSH1 0xFF AND ISZERO PUSH2 0xECC JUMPI PUSH1 0x40 MLOAD PUSH3 0x461BCD PUSH1 0xE5 SHL DUP2 MSTORE PUSH1 0x20 PUSH1 0x4 DUP3 ADD MSTORE PUSH1 0x1E PUSH1 0x24 DUP3 ADD MSTORE PUSH32 0x416C7265616479204C697374656420496E204D61726B6574706C616365210000 PUSH1 0x44 DUP3 ADD MSTORE PUSH1 0x64 ADD PUSH2 0xB04 JUMP JUMPDEST PUSH1 0x1 PUSH1 0x1 PUSH1 0xA0 SHL SUB DUP6 AND PUSH0 SWAP1 DUP2 MSTORE PUSH1 0x12 PUSH1 0x20 SWAP1 DUP2 MSTORE PUSH1 0x40 DUP1 DUP4 KECCAK256 DUP7 DUP5 MSTORE SWAP1 SWAP2 MSTORE SWAP1 KECCAK256 PUSH1 0x6 ADD SLOAD PUSH1 0xFF AND ISZERO PUSH2 0xF42 JUMPI PUSH1 0x40 MLOAD PUSH3 0x461BCD PUSH1 0xE5 SHL DUP2 MSTORE PUSH1 0x20 PUSH1 0x4 DUP3 ADD MSTORE PUSH1 0x1A PUSH1 0x24 DUP3 ADD MSTORE PUSH32 0x416C7265616479204C697374656420496E2041756374696F6E21000000000000 PUSH1 0x44 DUP3 ADD MSTORE PUSH1 0x64 ADD PUSH2 0xB04 JUMP JUMPDEST PUSH2 0xF50 PUSH1 0x2 DUP1 SLOAD PUSH1 0x1 ADD SWAP1 SSTORE JUMP JUMPDEST PUSH1 0x40 MLOAD DUP1 PUSH2 0x120 ADD PUSH1 0x40 MSTORE DUP1 DUP5 DUP2 MSTORE PUSH1 0x20 ADD CALLER PUSH1 0x1 PUSH1 0x1 PUSH1 0xA0 SHL SUB AND DUP2 MSTORE PUSH1 0x20 ADD ADDRESS PUSH1 0x1 PUSH1 0x1 PUSH1 0xA0 SHL SUB AND DUP2 MSTORE PUSH1 0x20 ADD DUP6 DUP2 MSTORE PUSH1 0x20 ADD PUSH2 0xF8F PUSH1 0x2 SLOAD SWAP1 JUMP JUMPDEST DUP2 MSTORE TIMESTAMP PUSH1 0x20 DUP1 DUP4 ADD SWAP2 SWAP1 SWAP2 MSTORE PUSH1 0x1 PUSH1 0x40 DUP1 DUP5 ADD DUP3 SWAP1 MSTORE PUSH1 0x1 PUSH1 0x1 PUSH1 0xA0 SHL SUB DUP8 DUP2 AND PUSH1 0x60 DUP1 DUP8 ADD SWAP2 SWAP1 SWAP2 MSTORE PUSH1 0x80 SWAP6 DUP7 ADD DUP9 SWAP1 MSTORE DUP12 DUP3 AND PUSH0 DUP2 DUP2 MSTORE PUSH1 0x10 DUP8 MSTORE DUP5 DUP2 KECCAK256 DUP13 DUP3 MSTORE DUP8 MSTORE DUP5 DUP2 KECCAK256 DUP10 MLOAD DUP2 SSTORE DUP10 DUP9 ADD MLOAD DUP2 DUP9 ADD DUP1 SLOAD PUSH1 0x1 PUSH1 0x1 PUSH1 0xA0 SHL SUB NOT SWAP1 DUP2 AND SWAP3 DUP9 AND SWAP3 SWAP1 SWAP3 OR SWAP1 SSTORE DUP11 DUP8 ADD MLOAD PUSH1 0x2 DUP1 DUP5 ADD DUP1 SLOAD DUP5 AND SWAP3 DUP10 AND SWAP3 SWAP1 SWAP3 OR SWAP1 SWAP2 SSTORE SWAP5 DUP12 ADD MLOAD PUSH1 0x3 DUP4 ADD SSTORE SWAP9 DUP11 ADD MLOAD PUSH1 0x4 DUP1 DUP4 ADD SWAP2 SWAP1 SWAP2 SSTORE PUSH1 0xA0 DUP12 ADD MLOAD PUSH1 0x5 DUP4 ADD SSTORE PUSH1 0xC0 DUP12 ADD MLOAD PUSH1 0x6 DUP4 ADD DUP1 SLOAD PUSH1 0xE0 DUP15 ADD MLOAD PUSH1 0x1 PUSH1 0x1 PUSH1 0xA8 SHL SUB NOT SWAP1 SWAP2 AND SWAP3 ISZERO ISZERO PUSH2 0x100 PUSH1 0x1 PUSH1 0xA8 SHL SUB NOT AND SWAP3 SWAP1 SWAP3 OR PUSH2 0x100 SWAP3 DUP10 AND DUP4 MUL OR SWAP1 SSTORE SWAP1 SWAP11 ADD MLOAD PUSH1 0x7 SWAP1 SWAP2 ADD SSTORE DUP5 MLOAD DUP1 DUP7 ADD DUP7 MSTORE DUP3 DUP2 MSTORE DUP1 DUP9 ADD DUP14 DUP2 MSTORE SWAP4 SLOAD DUP3 MSTORE PUSH1 0x11 SWAP1 SWAP8 MSTORE DUP5 SWAP1 KECCAK256 SWAP6 MLOAD DUP7 SLOAD SWAP1 SWAP8 AND SWAP7 SWAP1 SWAP3 AND SWAP6 SWAP1 SWAP6 OR DUP5 SSTORE SWAP4 MLOAD SWAP3 SWAP1 SWAP2 ADD SWAP2 SWAP1 SWAP2 SSTORE MLOAD PUSH4 0x23B872DD PUSH1 0xE0 SHL DUP2 MSTORE SWAP1 SWAP2 PUSH4 0x23B872DD SWAP2 PUSH2 0x10CD SWAP2 CALLER SWAP2 ADDRESS SWAP2 DUP10 SWAP2 ADD PUSH2 0x43B3 JUMP JUMPDEST PUSH0 PUSH1 0x40 MLOAD DUP1 DUP4 SUB DUP2 PUSH0 DUP8 DUP1 EXTCODESIZE ISZERO DUP1 ISZERO PUSH2 0x10E4 JUMPI PUSH0 DUP1 REVERT JUMPDEST POP GAS CALL ISZERO DUP1 ISZERO PUSH2 0x10F6 JUMPI RETURNDATASIZE PUSH0 DUP1 RETURNDATACOPY RETURNDATASIZE PUSH0 REVERT JUMPDEST POP POP PUSH1 0x40 DUP1 MLOAD DUP1 DUP3 ADD DUP3 MSTORE DUP8 DUP2 MSTORE TIMESTAMP PUSH1 0x20 DUP1 DUP4 ADD SWAP2 DUP3 MSTORE PUSH1 0xF DUP1 SLOAD PUSH0 SWAP1 DUP2 MSTORE PUSH1 0xD SWAP1 SWAP3 MSTORE SWAP4 DUP2 KECCAK256 SWAP3 MLOAD DUP4 SSTORE SWAP1 MLOAD PUSH1 0x1 SWAP1 SWAP3 ADD SWAP2 SWAP1 SWAP2 SSTORE DUP2 SLOAD SWAP4 POP SWAP1 SWAP2 POP PUSH2 0x113C DUP4 PUSH2 0x439B JUMP JUMPDEST SWAP1 SWAP2 SSTORE POP POP PUSH1 0x40 DUP1 MLOAD DUP5 DUP2 MSTORE CALLER PUSH1 0x20 DUP3 ADD MSTORE ADDRESS DUP2 DUP4 ADD MSTORE PUSH1 0x60 DUP2 ADD DUP7 SWAP1 MSTORE SWAP1 MLOAD PUSH32 0x62AF98DBC3627E85C5EB929B032D3CE3D6C376652D71B4CCA6162A16EF099114 SWAP2 DUP2 SWAP1 SUB PUSH1 0x80 ADD SWAP1 LOG1 PUSH2 0x118F PUSH1 0x1 PUSH0 SSTORE JUMP JUMPDEST POP POP POP POP POP JUMP JUMPDEST PUSH1 0x60 PUSH0 DUP3 MLOAD PUSH1 0x1 PUSH1 0x1 PUSH1 0x40 SHL SUB DUP2 GT ISZERO PUSH2 0x11B2 JUMPI PUSH2 0x11B2 PUSH2 0x3AE9 JUMP JUMPDEST PUSH1 0x40 MLOAD SWAP1 DUP1 DUP3 MSTORE DUP1 PUSH1 0x20 MUL PUSH1 0x20 ADD DUP3 ADD PUSH1 0x40 MSTORE DUP1 ISZERO PUSH2 0x11E5 JUMPI DUP2 PUSH1 0x20 ADD JUMPDEST PUSH1 0x60 DUP2 MSTORE PUSH1 0x20 ADD SWAP1 PUSH1 0x1 SWAP1 SUB SWAP1 DUP2 PUSH2 0x11D0 JUMPI SWAP1 POP JUMPDEST POP SWAP1 POP PUSH0 JUMPDEST DUP4 MLOAD DUP2 LT ISZERO PUSH2 0xE44 JUMPI PUSH0 DUP5 DUP3 DUP2 MLOAD DUP2 LT PUSH2 0x1206 JUMPI PUSH2 0x1206 PUSH2 0x43D7 JUMP JUMPDEST PUSH1 0x20 SWAP1 DUP2 MUL SWAP2 SWAP1 SWAP2 ADD ADD MLOAD PUSH1 0x40 MLOAD PUSH4 0x78A9BB43 PUSH1 0xE1 SHL DUP2 MSTORE PUSH1 0x1 PUSH1 0x1 PUSH1 0xA0 SHL SUB DUP9 DUP2 AND PUSH1 0x4 DUP4 ADD MSTORE SWAP1 SWAP2 AND SWAP1 PUSH4 0xF1537686 SWAP1 PUSH1 0x24 ADD PUSH0 PUSH1 0x40 MLOAD DUP1 DUP4 SUB DUP2 DUP7 GAS STATICCALL ISZERO DUP1 ISZERO PUSH2 0x1255 JUMPI RETURNDATASIZE PUSH0 DUP1 RETURNDATACOPY RETURNDATASIZE PUSH0 REVERT JUMPDEST POP POP POP POP PUSH1 0x40 MLOAD RETURNDATASIZE PUSH0 DUP3 RETURNDATACOPY PUSH1 0x1F RETURNDATASIZE SWAP1 DUP2 ADD PUSH1 0x1F NOT AND DUP3 ADD PUSH1 0x40 MSTORE PUSH2 0x127C SWAP2 SWAP1 DUP2 ADD SWAP1 PUSH2 0x4435 JUMP JUMPDEST SWAP1 POP DUP1 MLOAD PUSH1 0x1 PUSH1 0x1 PUSH1 0x40 SHL SUB DUP2 GT ISZERO PUSH2 0x1297 JUMPI PUSH2 0x1297 PUSH2 0x3AE9 JUMP JUMPDEST PUSH1 0x40 MLOAD SWAP1 DUP1 DUP3 MSTORE DUP1 PUSH1 0x20 MUL PUSH1 0x20 ADD DUP3 ADD PUSH1 0x40 MSTORE DUP1 ISZERO PUSH2 0x130E JUMPI DUP2 PUSH1 0x20 ADD JUMPDEST PUSH2 0x12FB PUSH1 0x40 MLOAD DUP1 PUSH1 0xC0 ADD PUSH1 0x40 MSTORE DUP1 PUSH0 DUP2 MSTORE PUSH1 0x20 ADD PUSH0 DUP2 MSTORE PUSH1 0x20 ADD PUSH0 PUSH1 0x1 PUSH1 0x1 PUSH1 0xA0 SHL SUB AND DUP2 MSTORE PUSH1 0x20 ADD PUSH0 PUSH1 0x1 PUSH1 0x1 PUSH1 0xA0 SHL SUB AND DUP2 MSTORE PUSH1 0x20 ADD PUSH0 DUP2 MSTORE PUSH1 0x20 ADD PUSH1 0x60 DUP2 MSTORE POP SWAP1 JUMP JUMPDEST DUP2 MSTORE PUSH1 0x20 ADD SWAP1 PUSH1 0x1 SWAP1 SUB SWAP1 DUP2 PUSH2 0x12B5 JUMPI SWAP1 POP JUMPDEST POP DUP4 DUP4 DUP2 MLOAD DUP2 LT PUSH2 0x1321 JUMPI PUSH2 0x1321 PUSH2 0x43D7 JUMP JUMPDEST PUSH1 0x20 MUL PUSH1 0x20 ADD ADD DUP2 SWAP1 MSTORE POP PUSH0 JUMPDEST DUP2 MLOAD DUP2 LT ISZERO PUSH2 0x1461 JUMPI PUSH1 0x40 MLOAD DUP1 PUSH1 0xC0 ADD PUSH1 0x40 MSTORE DUP1 DUP4 DUP4 DUP2 MLOAD DUP2 LT PUSH2 0x1354 JUMPI PUSH2 0x1354 PUSH2 0x43D7 JUMP JUMPDEST PUSH1 0x20 MUL PUSH1 0x20 ADD ADD MLOAD PUSH0 ADD MLOAD DUP2 MSTORE PUSH1 0x20 ADD DUP4 DUP4 DUP2 MLOAD DUP2 LT PUSH2 0x1376 JUMPI PUSH2 0x1376 PUSH2 0x43D7 JUMP JUMPDEST PUSH1 0x20 MUL PUSH1 0x20 ADD ADD MLOAD PUSH1 0x20 ADD MLOAD DUP2 MSTORE PUSH1 0x20 ADD DUP4 DUP4 DUP2 MLOAD DUP2 LT PUSH2 0x1399 JUMPI PUSH2 0x1399 PUSH2 0x43D7 JUMP JUMPDEST PUSH1 0x20 MUL PUSH1 0x20 ADD ADD MLOAD PUSH1 0x40 ADD MLOAD PUSH1 0x1 PUSH1 0x1 PUSH1 0xA0 SHL SUB AND DUP2 MSTORE PUSH1 0x20 ADD DUP4 DUP4 DUP2 MLOAD DUP2 LT PUSH2 0x13C5 JUMPI PUSH2 0x13C5 PUSH2 0x43D7 JUMP JUMPDEST PUSH1 0x20 MUL PUSH1 0x20 ADD ADD MLOAD PUSH1 0x60 ADD MLOAD PUSH1 0x1 PUSH1 0x1 PUSH1 0xA0 SHL SUB AND DUP2 MSTORE PUSH1 0x20 ADD DUP4 DUP4 DUP2 MLOAD DUP2 LT PUSH2 0x13F1 JUMPI PUSH2 0x13F1 PUSH2 0x43D7 JUMP JUMPDEST PUSH1 0x20 MUL PUSH1 0x20 ADD ADD MLOAD PUSH1 0x80 ADD MLOAD DUP2 MSTORE PUSH1 0x20 ADD DUP4 DUP4 DUP2 MLOAD DUP2 LT PUSH2 0x1414 JUMPI PUSH2 0x1414 PUSH2 0x43D7 JUMP JUMPDEST PUSH1 0x20 MUL PUSH1 0x20 ADD ADD MLOAD PUSH1 0xA0 ADD MLOAD DUP2 MSTORE POP DUP5 DUP5 DUP2 MLOAD DUP2 LT PUSH2 0x1435 JUMPI PUSH2 0x1435 PUSH2 0x43D7 JUMP JUMPDEST PUSH1 0x20 MUL PUSH1 0x20 ADD ADD MLOAD DUP3 DUP2 MLOAD DUP2 LT PUSH2 0x144E JUMPI PUSH2 0x144E PUSH2 0x43D7 JUMP JUMPDEST PUSH1 0x20 SWAP1 DUP2 MUL SWAP2 SWAP1 SWAP2 ADD ADD MSTORE PUSH1 0x1 ADD PUSH2 0x132E JUMP JUMPDEST POP POP PUSH1 0x1 ADD PUSH2 0x11EA JUMP JUMPDEST PUSH1 0x1 PUSH1 0x1 PUSH1 0xA0 SHL SUB DUP6 AND PUSH0 SWAP1 DUP2 MSTORE PUSH1 0x10 PUSH1 0x20 SWAP1 DUP2 MSTORE PUSH1 0x40 DUP1 DUP4 KECCAK256 DUP8 DUP5 MSTORE SWAP1 SWAP2 MSTORE SWAP1 KECCAK256 PUSH1 0x6 ADD SLOAD PUSH1 0xFF AND ISZERO PUSH2 0x14E1 JUMPI PUSH1 0x40 MLOAD PUSH3 0x461BCD PUSH1 0xE5 SHL DUP2 MSTORE PUSH1 0x20 PUSH1 0x4 DUP3 ADD MSTORE PUSH1 0x1E PUSH1 0x24 DUP3 ADD MSTORE PUSH32 0x416C7265616479204C697374656420496E204D61726B6574706C616365210000 PUSH1 0x44 DUP3 ADD MSTORE PUSH1 0x64 ADD PUSH2 0xB04 JUMP JUMPDEST PUSH1 0x1 PUSH1 0x1 PUSH1 0xA0 SHL SUB DUP6 AND PUSH0 SWAP1 DUP2 MSTORE PUSH1 0x12 PUSH1 0x20 SWAP1 DUP2 MSTORE PUSH1 0x40 DUP1 DUP4 KECCAK256 DUP8 DUP5 MSTORE SWAP1 SWAP2 MSTORE SWAP1 KECCAK256 PUSH1 0x6 ADD SLOAD PUSH1 0xFF AND ISZERO PUSH2 0x1557 JUMPI PUSH1 0x40 MLOAD PUSH3 0x461BCD PUSH1 0xE5 SHL DUP2 MSTORE PUSH1 0x20 PUSH1 0x4 DUP3 ADD MSTORE PUSH1 0x1A PUSH1 0x24 DUP3 ADD MSTORE PUSH32 0x416C7265616479204C697374656420496E2041756374696F6E21000000000000 PUSH1 0x44 DUP3 ADD MSTORE PUSH1 0x64 ADD PUSH2 0xB04 JUMP JUMPDEST PUSH2 0x1565 PUSH1 0x3 DUP1 SLOAD PUSH1 0x1 ADD SWAP1 SSTORE JUMP JUMPDEST PUSH1 0x40 MLOAD DUP1 PUSH1 0xE0 ADD PUSH1 0x40 MSTORE DUP1 CALLER PUSH1 0x1 PUSH1 0x1 PUSH1 0xA0 SHL SUB AND DUP2 MSTORE PUSH1 0x20 ADD DUP6 DUP2 MSTORE PUSH1 0x20 ADD DUP5 DUP2 MSTORE PUSH1 0x20 ADD DUP4 PUSH1 0x1 PUSH1 0x1 PUSH1 0xA0 SHL SUB AND DUP2 MSTORE PUSH1 0x20 ADD DUP3 DUP2 MSTORE PUSH1 0x20 ADD TIMESTAMP DUP2 MSTORE PUSH1 0x20 ADD PUSH1 0x1 ISZERO ISZERO DUP2 MSTORE POP PUSH1 0x12 PUSH0 DUP8 PUSH1 0x1 PUSH1 0x1 PUSH1 0xA0 SHL SUB AND PUSH1 0x1 PUSH1 0x1 PUSH1 0xA0 SHL SUB AND DUP2 MSTORE PUSH1 0x20 ADD SWAP1 DUP2 MSTORE PUSH1 0x20 ADD PUSH0 KECCAK256 PUSH0 DUP7 DUP2 MSTORE PUSH1 0x20 ADD SWAP1 DUP2 MSTORE PUSH1 0x20 ADD PUSH0 KECCAK256 PUSH0 DUP3 ADD MLOAD DUP2 PUSH0 ADD PUSH0 PUSH2 0x100 EXP DUP2 SLOAD DUP2 PUSH1 0x1 PUSH1 0x1 PUSH1 0xA0 SHL SUB MUL NOT AND SWAP1 DUP4 PUSH1 0x1 PUSH1 0x1 PUSH1 0xA0 SHL SUB AND MUL OR SWAP1 SSTORE POP PUSH1 0x20 DUP3 ADD MLOAD DUP2 PUSH1 0x1 ADD SSTORE PUSH1 0x40 DUP3 ADD MLOAD DUP2 PUSH1 0x2 ADD SSTORE PUSH1 0x60 DUP3 ADD MLOAD DUP2 PUSH1 0x3 ADD PUSH0 PUSH2 0x100 EXP DUP2 SLOAD DUP2 PUSH1 0x1 PUSH1 0x1 PUSH1 0xA0 SHL SUB MUL NOT AND SWAP1 DUP4 PUSH1 0x1 PUSH1 0x1 PUSH1 0xA0 SHL SUB AND MUL OR SWAP1 SSTORE POP PUSH1 0x80 DUP3 ADD MLOAD DUP2 PUSH1 0x4 ADD SSTORE PUSH1 0xA0 DUP3 ADD MLOAD DUP2 PUSH1 0x5 ADD SSTORE PUSH1 0xC0 DUP3 ADD MLOAD DUP2 PUSH1 0x6 ADD PUSH0 PUSH2 0x100 EXP DUP2 SLOAD DUP2 PUSH1 0xFF MUL NOT AND SWAP1 DUP4 ISZERO ISZERO MUL OR SWAP1 SSTORE POP SWAP1 POP POP PUSH1 0x40 MLOAD DUP1 PUSH1 0x40 ADD PUSH1 0x40 MSTORE DUP1 DUP7 PUSH1 0x1 PUSH1 0x1 PUSH1 0xA0 SHL SUB AND DUP2 MSTORE PUSH1 0x20 ADD DUP6 DUP2 MSTORE POP PUSH1 0x14 PUSH0 PUSH2 0x16A9 PUSH1 0x3 SLOAD SWAP1 JUMP JUMPDEST DUP2 MSTORE PUSH1 0x20 DUP1 DUP3 ADD SWAP3 SWAP1 SWAP3 MSTORE PUSH1 0x40 SWAP1 DUP2 ADD PUSH0 SWAP1 DUP2 KECCAK256 DUP5 MLOAD DUP2 SLOAD PUSH1 0x1 PUSH1 0x1 PUSH1 0xA0 SHL SUB NOT AND PUSH1 0x1 PUSH1 0x1 PUSH1 0xA0 SHL SUB SWAP2 DUP3 AND OR DUP3 SSTORE SWAP5 DUP5 ADD MLOAD PUSH1 0x1 SWAP1 SWAP2 ADD SSTORE PUSH1 0x3 SLOAD DUP2 MSTORE PUSH1 0x13 SWAP1 SWAP3 MSTORE DUP1 DUP3 KECCAK256 SWAP2 SWAP1 SWAP2 SSTORE MLOAD PUSH4 0x23B872DD PUSH1 0xE0 SHL DUP2 MSTORE SWAP1 DUP7 AND SWAP1 PUSH4 0x23B872DD SWAP1 PUSH2 0x171B SWAP1 CALLER SWAP1 ADDRESS SWAP1 DUP10 SWAP1 PUSH1 0x4 ADD PUSH2 0x43B3 JUMP JUMPDEST PUSH0 PUSH1 0x40 MLOAD DUP1 DUP4 SUB DUP2 PUSH0 DUP8 DUP1 EXTCODESIZE ISZERO DUP1 ISZERO PUSH2 0x1732 JUMPI PUSH0 DUP1 REVERT JUMPDEST POP GAS CALL ISZERO DUP1 ISZERO PUSH2 0x1744 JUMPI RETURNDATASIZE PUSH0 DUP1 RETURNDATACOPY RETURNDATASIZE PUSH0 REVERT JUMPDEST POP POP POP POP POP POP POP POP POP JUMP JUMPDEST PUSH0 DUP2 DUP2 MSTORE PUSH1 0x14 PUSH1 0x20 SWAP1 DUP2 MSTORE PUSH1 0x40 DUP1 DUP4 KECCAK256 DUP1 SLOAD PUSH1 0x1 SWAP1 SWAP2 ADD SLOAD PUSH1 0x13 SWAP1 SWAP4 MSTORE SWAP1 DUP4 KECCAK256 SLOAD PUSH1 0x60 SWAP4 PUSH1 0x1 PUSH1 0x1 PUSH1 0xA0 SHL SUB SWAP1 SWAP3 AND SWAP3 SWAP2 SWAP1 DUP2 SWAP1 PUSH1 0x1 PUSH1 0x1 PUSH1 0x40 SHL SUB DUP2 GT ISZERO PUSH2 0x179A JUMPI PUSH2 0x179A PUSH2 0x3AE9 JUMP JUMPDEST PUSH1 0x40 MLOAD SWAP1 DUP1 DUP3 MSTORE DUP1 PUSH1 0x20 MUL PUSH1 0x20 ADD DUP3 ADD PUSH1 0x40 MSTORE DUP1 ISZERO PUSH2 0x17D3 JUMPI DUP2 PUSH1 0x20 ADD JUMPDEST PUSH2 0x17C0 PUSH2 0x39BC JUMP JUMPDEST DUP2 MSTORE PUSH1 0x20 ADD SWAP1 PUSH1 0x1 SWAP1 SUB SWAP1 DUP2 PUSH2 0x17B8 JUMPI SWAP1 POP JUMPDEST POP SWAP1 POP PUSH1 0x1 JUMPDEST PUSH0 DUP8 DUP2 MSTORE PUSH1 0x13 PUSH1 0x20 MSTORE PUSH1 0x40 SWAP1 KECCAK256 SLOAD DUP2 GT PUSH2 0x191B JUMPI PUSH1 0x1 PUSH1 0x1 PUSH1 0xA0 SHL SUB DUP1 DUP7 AND PUSH0 SWAP1 DUP2 MSTORE PUSH1 0x15 PUSH1 0x20 SWAP1 DUP2 MSTORE PUSH1 0x40 DUP1 DUP4 KECCAK256 DUP9 DUP5 MSTORE DUP3 MSTORE DUP1 DUP4 KECCAK256 DUP6 DUP5 MSTORE DUP3 MSTORE SWAP2 DUP3 SWAP1 KECCAK256 DUP3 MLOAD PUSH1 0xA0 DUP2 ADD SWAP1 SWAP4 MSTORE DUP1 SLOAD SWAP1 SWAP4 AND DUP3 MSTORE PUSH1 0x1 DUP4 ADD DUP1 SLOAD SWAP3 SWAP4 SWAP3 SWAP2 DUP5 ADD SWAP2 PUSH2 0x183F SWAP1 PUSH2 0x425F JUMP JUMPDEST DUP1 PUSH1 0x1F ADD PUSH1 0x20 DUP1 SWAP2 DIV MUL PUSH1 0x20 ADD PUSH1 0x40 MLOAD SWAP1 DUP2 ADD PUSH1 0x40 MSTORE DUP1 SWAP3 SWAP2 SWAP1 DUP2 DUP2 MSTORE PUSH1 0x20 ADD DUP3 DUP1 SLOAD PUSH2 0x186B SWAP1 PUSH2 0x425F JUMP JUMPDEST DUP1 ISZERO PUSH2 0x18B6 JUMPI DUP1 PUSH1 0x1F LT PUSH2 0x188D JUMPI PUSH2 0x100 DUP1 DUP4 SLOAD DIV MUL DUP4 MSTORE SWAP2 PUSH1 0x20 ADD SWAP2 PUSH2 0x18B6 JUMP JUMPDEST DUP3 ADD SWAP2 SWAP1 PUSH0 MSTORE PUSH1 0x20 PUSH0 KECCAK256 SWAP1 JUMPDEST DUP2 SLOAD DUP2 MSTORE SWAP1 PUSH1 0x1 ADD SWAP1 PUSH1 0x20 ADD DUP1 DUP4 GT PUSH2 0x1899 JUMPI DUP3 SWAP1 SUB PUSH1 0x1F AND DUP3 ADD SWAP2 JUMPDEST POP POP POP POP POP DUP2 MSTORE PUSH1 0x20 ADD PUSH1 0x2 DUP3 ADD SLOAD DUP2 MSTORE PUSH1 0x20 ADD PUSH1 0x3 DUP3 ADD SLOAD DUP2 MSTORE PUSH1 0x20 ADD PUSH1 0x4 DUP3 ADD SLOAD DUP2 MSTORE POP POP DUP3 DUP5 DUP2 MLOAD DUP2 LT PUSH2 0x18EF JUMPI PUSH2 0x18EF PUSH2 0x43D7 JUMP JUMPDEST PUSH1 0x20 MUL PUSH1 0x20 ADD ADD DUP2 SWAP1 MSTORE POP DUP3 DUP1 PUSH2 0x1905 SWAP1 PUSH2 0x439B JUMP JUMPDEST SWAP4 POP POP DUP1 DUP1 PUSH2 0x1913 SWAP1 PUSH2 0x439B JUMP JUMPDEST SWAP2 POP POP PUSH2 0x17D9 JUMP JUMPDEST POP SWAP6 SWAP5 POP POP POP POP POP JUMP JUMPDEST PUSH2 0x192D PUSH2 0x38BE JUMP JUMPDEST PUSH0 DUP3 DUP2 MSTORE PUSH1 0x11 PUSH1 0x20 SWAP1 DUP2 MSTORE PUSH1 0x40 DUP1 DUP4 KECCAK256 DUP1 SLOAD PUSH1 0x1 PUSH1 0x1 PUSH1 0xA0 SHL SUB SWAP1 DUP2 AND DUP6 MSTORE PUSH1 0x10 DUP5 MSTORE DUP3 DUP6 KECCAK256 PUSH1 0x1 SWAP3 DUP4 ADD SLOAD DUP7 MSTORE SWAP1 SWAP4 MSTORE SWAP3 KECCAK256 SWAP1 SWAP2 ADD SLOAD CALLER SWAP2 AND SUB PUSH2 0x19C0 JUMPI PUSH1 0x40 MLOAD PUSH3 0x461BCD PUSH1 0xE5 SHL DUP2 MSTORE PUSH1 0x20 PUSH1 0x4 DUP3 ADD MSTORE PUSH1 0x23 PUSH1 0x24 DUP3 ADD MSTORE PUSH32 0x416E206F666665722063616E6E6F742062757920746869732053656C6C657220 PUSH1 0x44 DUP3 ADD MSTORE PUSH3 0x212121 PUSH1 0xE8 SHL PUSH1 0x64 DUP3 ADD MSTORE PUSH1 0x84 ADD PUSH2 0xB04 JUMP JUMPDEST PUSH0 DUP3 DUP2 MSTORE PUSH1 0x11 PUSH1 0x20 SWAP1 DUP2 MSTORE PUSH1 0x40 DUP1 DUP4 KECCAK256 DUP1 SLOAD PUSH1 0x1 PUSH1 0x1 PUSH1 0xA0 SHL SUB AND DUP5 MSTORE PUSH1 0x10 DUP4 MSTORE DUP2 DUP5 KECCAK256 PUSH1 0x1 SWAP1 SWAP2 ADD SLOAD DUP5 MSTORE SWAP1 SWAP2 MSTORE SWAP1 KECCAK256 PUSH1 0x3 ADD SLOAD DUP2 LT ISZERO PUSH2 0x1A57 JUMPI PUSH1 0x40 MLOAD PUSH3 0x461BCD PUSH1 0xE5 SHL DUP2 MSTORE PUSH1 0x20 PUSH1 0x4 DUP3 ADD MSTORE PUSH1 0x2A PUSH1 0x24 DUP3 ADD MSTORE PUSH32 0x4E6F7420656E6F75676820657468657220746F20636F7665722061736B696E67 PUSH1 0x44 DUP3 ADD MSTORE PUSH10 0x20707269636520212121 PUSH1 0xB0 SHL PUSH1 0x64 DUP3 ADD MSTORE PUSH1 0x84 ADD PUSH2 0xB04 JUMP JUMPDEST PUSH0 DUP3 DUP2 MSTORE PUSH1 0x11 PUSH1 0x20 MSTORE PUSH1 0x40 SWAP1 DUP2 SWAP1 KECCAK256 DUP1 SLOAD PUSH1 0x1 SWAP1 SWAP2 ADD SLOAD SWAP2 MLOAD PUSH4 0x23B872DD PUSH1 0xE0 SHL DUP2 MSTORE PUSH1 0x1 PUSH1 0x1 PUSH1 0xA0 SHL SUB SWAP1 SWAP2 AND SWAP2 PUSH4 0x23B872DD SWAP2 PUSH2 0x1A9D SWAP2 ADDRESS SWAP2 CALLER SWAP2 SWAP1 PUSH1 0x4 ADD PUSH2 0x43B3 JUMP JUMPDEST PUSH0 PUSH1 0x40 MLOAD DUP1 DUP4 SUB DUP2 PUSH0 DUP8 DUP1 EXTCODESIZE ISZERO DUP1 ISZERO PUSH2 0x1AB4 JUMPI PUSH0 DUP1 REVERT JUMPDEST POP GAS CALL ISZERO DUP1 ISZERO PUSH2 0x1AC6 JUMPI RETURNDATASIZE PUSH0 DUP1 RETURNDATACOPY RETURNDATASIZE PUSH0 REVERT JUMPDEST POP POP POP PUSH0 DUP4 DUP2 MSTORE PUSH1 0x11 PUSH1 0x20 SWAP1 DUP2 MSTORE PUSH1 0x40 DUP1 DUP4 KECCAK256 DUP1 SLOAD PUSH1 0x1 SWAP2 DUP3 ADD SLOAD PUSH1 0x1 PUSH1 0x1 PUSH1 0xA0 SHL SUB SWAP2 DUP3 AND DUP1 DUP8 MSTORE PUSH1 0x10 DUP7 MSTORE DUP5 DUP8 KECCAK256 DUP3 DUP9 MSTORE SWAP1 SWAP6 MSTORE SWAP5 DUP4 SWAP1 KECCAK256 SWAP1 SWAP2 ADD SLOAD SWAP2 MLOAD PUSH4 0x6E0CEE09 PUSH1 0xE0 SHL DUP2 MSTORE CALLER PUSH1 0x4 DUP3 ADD MSTORE PUSH1 0x24 DUP2 ADD SWAP5 SWAP1 SWAP5 MSTORE AND PUSH1 0x44 DUP4 ADD MSTORE SWAP2 POP PUSH4 0x6E0CEE09 SWAP1 PUSH1 0x64 ADD PUSH0 PUSH1 0x40 MLOAD DUP1 DUP4 SUB DUP2 PUSH0 DUP8 DUP1 EXTCODESIZE ISZERO DUP1 ISZERO PUSH2 0x1B46 JUMPI PUSH0 DUP1 REVERT JUMPDEST POP GAS CALL ISZERO DUP1 ISZERO PUSH2 0x1B58 JUMPI RETURNDATASIZE PUSH0 DUP1 RETURNDATACOPY RETURNDATASIZE PUSH0 REVERT JUMPDEST POP POP PUSH1 0xA SLOAD PUSH0 DUP6 DUP2 MSTORE PUSH1 0x11 PUSH1 0x20 SWAP1 DUP2 MSTORE PUSH1 0x40 DUP1 DUP4 KECCAK256 DUP1 SLOAD PUSH1 0x1 PUSH1 0x1 PUSH1 0xA0 SHL SUB AND DUP5 MSTORE PUSH1 0x10 DUP4 MSTORE DUP2 DUP5 KECCAK256 PUSH1 0x1 SWAP1 SWAP2 ADD SLOAD DUP5 MSTORE SWAP1 SWAP2 MSTORE DUP2 KECCAK256 PUSH1 0x3 ADD SLOAD SWAP1 SWAP4 POP PUSH2 0x3E8 SWAP3 POP PUSH2 0x1BA4 SWAP2 SWAP1 PUSH2 0x4557 JUMP JUMPDEST PUSH2 0x1BAE SWAP2 SWAP1 PUSH2 0x456E JUMP JUMPDEST PUSH1 0xB SLOAD PUSH0 DUP6 DUP2 MSTORE PUSH1 0x11 PUSH1 0x20 SWAP1 DUP2 MSTORE PUSH1 0x40 DUP1 DUP4 KECCAK256 DUP1 SLOAD PUSH1 0x1 PUSH1 0x1 PUSH1 0xA0 SHL SUB AND DUP5 MSTORE PUSH1 0x10 DUP4 MSTORE DUP2 DUP5 KECCAK256 PUSH1 0x1 SWAP1 SWAP2 ADD SLOAD DUP5 MSTORE SWAP1 SWAP2 MSTORE DUP2 KECCAK256 PUSH1 0x3 ADD SLOAD SWAP3 SWAP4 POP SWAP2 PUSH2 0x3E8 SWAP2 PUSH2 0x1BF7 SWAP2 PUSH2 0x4557 JUMP JUMPDEST PUSH2 0x1C01 SWAP2 SWAP1 PUSH2 0x456E JUMP JUMPDEST PUSH0 DUP6 DUP2 MSTORE PUSH1 0x11 PUSH1 0x20 SWAP1 DUP2 MSTORE PUSH1 0x40 DUP1 DUP4 KECCAK256 DUP1 SLOAD PUSH1 0x1 PUSH1 0x1 PUSH1 0xA0 SHL SUB AND DUP5 MSTORE PUSH1 0x10 DUP4 MSTORE DUP2 DUP5 KECCAK256 PUSH1 0x1 SWAP1 SWAP2 ADD SLOAD DUP5 MSTORE SWAP1 SWAP2 MSTORE DUP2 KECCAK256 PUSH1 0x7 DUP2 ADD SLOAD PUSH1 0x3 SWAP1 SWAP2 ADD SLOAD SWAP3 SWAP4 POP SWAP2 PUSH1 0x64 SWAP1 PUSH2 0x1C4F SWAP1 DUP5 SWAP1 PUSH2 0x4557 JUMP JUMPDEST PUSH2 0x1C59 SWAP2 SWAP1 PUSH2 0x456E JUMP JUMPDEST SWAP1 POP PUSH0 DUP4 PUSH2 0x1C67 DUP7 DUP5 PUSH2 0x424C JUMP JUMPDEST PUSH2 0x1C71 SWAP2 SWAP1 PUSH2 0x424C JUMP JUMPDEST PUSH0 DUP9 DUP2 MSTORE PUSH1 0x11 PUSH1 0x20 SWAP1 DUP2 MSTORE PUSH1 0x40 DUP1 DUP4 KECCAK256 DUP1 SLOAD PUSH1 0x1 PUSH1 0x1 PUSH1 0xA0 SHL SUB AND DUP5 MSTORE PUSH1 0x10 DUP4 MSTORE DUP2 DUP5 KECCAK256 PUSH1 0x1 SWAP1 SWAP2 ADD SLOAD DUP5 MSTORE SWAP1 SWAP2 MSTORE SWAP1 KECCAK256 PUSH1 0x3 ADD SLOAD PUSH2 0x1CB0 SWAP2 SWAP1 PUSH2 0x458D JUMP JUMPDEST PUSH0 DUP9 DUP2 MSTORE PUSH1 0x11 PUSH1 0x20 SWAP1 DUP2 MSTORE PUSH1 0x40 DUP1 DUP4 KECCAK256 DUP1 SLOAD PUSH1 0x1 PUSH1 0x1 PUSH1 0xA0 SHL SUB SWAP1 DUP2 AND DUP6 MSTORE PUSH1 0x10 DUP5 MSTORE DUP3 DUP6 KECCAK256 PUSH1 0x1 SWAP3 DUP4 ADD SLOAD DUP7 MSTORE SWAP1 SWAP4 MSTORE DUP2 DUP5 KECCAK256 ADD SLOAD SWAP1 MLOAD SWAP4 SWAP5 POP AND SWAP2 DUP4 ISZERO PUSH2 0x8FC MUL SWAP2 DUP5 SWAP2 SWAP1 DUP2 DUP2 DUP2 DUP6 DUP9 DUP9 CALL SWAP4 POP POP POP POP ISZERO DUP1 ISZERO PUSH2 0x1D12 JUMPI RETURNDATASIZE PUSH0 DUP1 RETURNDATACOPY RETURNDATASIZE PUSH0 REVERT JUMPDEST POP PUSH0 DUP8 DUP2 MSTORE PUSH1 0x11 PUSH1 0x20 SWAP1 DUP2 MSTORE PUSH1 0x40 DUP1 DUP4 KECCAK256 DUP1 SLOAD PUSH1 0x1 PUSH1 0x1 PUSH1 0xA0 SHL SUB SWAP1 DUP2 AND DUP6 MSTORE PUSH1 0x10 DUP5 MSTORE DUP3 DUP6 KECCAK256 PUSH1 0x1 SWAP1 SWAP3 ADD SLOAD DUP6 MSTORE SWAP3 MSTORE DUP1 DUP4 KECCAK256 PUSH1 0x6 ADD SLOAD SWAP1 MLOAD PUSH2 0x100 SWAP1 SWAP2 DIV SWAP1 SWAP2 AND SWAP2 DUP5 ISZERO PUSH2 0x8FC MUL SWAP2 DUP6 SWAP2 DUP2 DUP2 DUP2 DUP6 DUP9 DUP9 CALL SWAP4 POP POP POP POP ISZERO DUP1 ISZERO PUSH2 0x1D7A JUMPI RETURNDATASIZE PUSH0 DUP1 RETURNDATACOPY RETURNDATASIZE PUSH0 REVERT JUMPDEST POP PUSH1 0x6 SLOAD PUSH1 0x40 MLOAD PUSH1 0x1 PUSH1 0x1 PUSH1 0xA0 SHL SUB SWAP1 SWAP2 AND SWAP1 DUP7 ISZERO PUSH2 0x8FC MUL SWAP1 DUP8 SWAP1 PUSH0 DUP2 DUP2 DUP2 DUP6 DUP9 DUP9 CALL SWAP4 POP POP POP POP ISZERO DUP1 ISZERO PUSH2 0x1DB2 JUMPI RETURNDATASIZE PUSH0 DUP1 RETURNDATACOPY RETURNDATASIZE PUSH0 REVERT JUMPDEST POP PUSH1 0x9 SLOAD PUSH1 0x40 MLOAD PUSH1 0x1 PUSH1 0x1 PUSH1 0xA0 SHL SUB SWAP1 SWAP2 AND SWAP1 DUP6 ISZERO PUSH2 0x8FC MUL SWAP1 DUP7 SWAP1 PUSH0 DUP2 DUP2 DUP2 DUP6 DUP9 DUP9 CALL SWAP4 POP POP POP POP ISZERO DUP1 ISZERO PUSH2 0x1DEA JUMPI RETURNDATASIZE PUSH0 DUP1 RETURNDATACOPY RETURNDATASIZE PUSH0 REVERT JUMPDEST POP PUSH1 0x40 MLOAD DUP1 PUSH1 0x40 ADD PUSH1 0x40 MSTORE DUP1 DUP6 DUP8 PUSH2 0x1E02 SWAP2 SWAP1 PUSH2 0x424C JUMP JUMPDEST DUP2 MSTORE TIMESTAMP PUSH1 0x20 SWAP2 DUP3 ADD DUP2 SWAP1 MSTORE PUSH1 0x7 SLOAD PUSH0 SWAP1 DUP2 MSTORE PUSH1 0x8 DUP4 MSTORE PUSH1 0x40 DUP1 DUP3 KECCAK256 DUP6 MLOAD DUP2 SSTORE SWAP5 DUP5 ADD MLOAD PUSH1 0x1 SWAP1 SWAP6 ADD SWAP5 SWAP1 SWAP5 SSTORE PUSH1 0xE DUP1 SLOAD DUP3 MSTORE PUSH1 0xC SWAP1 SWAP4 MSTORE SWAP3 DUP4 KECCAK256 SSTORE DUP1 SLOAD SWAP2 PUSH2 0x1E49 DUP4 PUSH2 0x439B JUMP JUMPDEST SWAP1 SWAP2 SSTORE POP POP PUSH1 0x7 DUP1 SLOAD SWAP1 PUSH0 PUSH2 0x1E5D DUP4 PUSH2 0x439B JUMP JUMPDEST SWAP1 SWAP2 SSTORE POP POP PUSH0 DUP8 DUP2 MSTORE PUSH1 0x11 PUSH1 0x20 DUP2 DUP2 MSTORE PUSH1 0x40 DUP1 DUP5 KECCAK256 DUP1 SLOAD PUSH1 0x1 PUSH1 0x1 PUSH1 0xA0 SHL SUB SWAP1 DUP2 AND DUP7 MSTORE PUSH1 0x10 DUP5 MSTORE DUP3 DUP7 KECCAK256 PUSH1 0x1 DUP4 ADD DUP1 SLOAD DUP9 MSTORE SWAP1 DUP6 MSTORE DUP4 DUP8 KECCAK256 PUSH1 0x6 ADD DUP1 SLOAD PUSH1 0xFF NOT AND SWAP1 SSTORE SWAP6 DUP14 SWAP1 MSTORE SWAP4 SWAP1 SWAP3 MSTORE SWAP1 SLOAD SWAP3 SLOAD SWAP1 MLOAD PUSH4 0x130A8FDB PUSH1 0xE2 SHL DUP2 MSTORE PUSH1 0x4 DUP2 ADD SWAP2 SWAP1 SWAP2 MSTORE SWAP2 AND SWAP1 PUSH4 0x4C2A3F6C SWAP1 PUSH1 0x24 ADD PUSH0 PUSH1 0x40 MLOAD DUP1 DUP4 SUB DUP2 PUSH0 DUP8 DUP1 EXTCODESIZE ISZERO DUP1 ISZERO PUSH2 0x1EE4 JUMPI PUSH0 DUP1 REVERT JUMPDEST POP GAS CALL ISZERO DUP1 ISZERO PUSH2 0x1EF6 JUMPI RETURNDATASIZE PUSH0 DUP1 RETURNDATACOPY RETURNDATASIZE PUSH0 REVERT JUMPDEST POP POP POP POP DUP7 PUSH1 0x10 PUSH0 PUSH1 0x11 PUSH0 PUSH2 0x1F0A PUSH1 0x2 SLOAD SWAP1 JUMP JUMPDEST DUP2 MSTORE PUSH1 0x20 DUP1 DUP3 ADD SWAP3 SWAP1 SWAP3 MSTORE PUSH1 0x40 SWAP1 DUP2 ADD PUSH0 SWAP1 DUP2 KECCAK256 SLOAD PUSH1 0x1 PUSH1 0x1 PUSH1 0xA0 SHL SUB AND DUP5 MSTORE SWAP2 DUP4 ADD SWAP4 SWAP1 SWAP4 MSTORE SWAP2 ADD DUP2 KECCAK256 SWAP1 PUSH1 0x11 DUP2 PUSH2 0x1F42 PUSH1 0x2 SLOAD SWAP1 JUMP JUMPDEST DUP2 MSTORE PUSH1 0x20 ADD SWAP1 DUP2 MSTORE PUSH1 0x20 ADD PUSH0 KECCAK256 PUSH1 0x1 ADD SLOAD DUP2 MSTORE PUSH1 0x20 ADD SWAP1 DUP2 MSTORE PUSH1 0x20 ADD PUSH0 KECCAK256 PUSH1 0x4 ADD DUP2 SWAP1 SSTORE POP PUSH1 0x11 PUSH0 PUSH2 0x1F73 PUSH1 0x2 SLOAD SWAP1 JUMP JUMPDEST DUP2 MSTORE PUSH1 0x20 DUP1 DUP3 ADD SWAP3 SWAP1 SWAP3 MSTORE PUSH1 0x40 SWAP1 DUP2 ADD PUSH0 SWAP1 DUP2 KECCAK256 DUP11 DUP3 MSTORE PUSH1 0x11 SWAP1 SWAP4 MSTORE KECCAK256 DUP2 SLOAD DUP2 SLOAD PUSH1 0x1 PUSH1 0x1 PUSH1 0xA0 SHL SUB NOT AND PUSH1 0x1 PUSH1 0x1 PUSH1 0xA0 SHL SUB SWAP1 SWAP2 AND OR DUP2 SSTORE PUSH1 0x1 SWAP2 DUP3 ADD SLOAD SWAP2 ADD SSTORE PUSH2 0x1FBF PUSH1 0x2 PUSH2 0x3915 JUMP JUMPDEST CALLER PUSH0 SWAP1 DUP2 MSTORE PUSH1 0x19 PUSH1 0x20 MSTORE PUSH1 0x40 DUP2 KECCAK256 DUP1 SLOAD SWAP2 PUSH2 0x1FD9 DUP4 PUSH2 0x439B JUMP JUMPDEST SWAP1 SWAP2 SSTORE POP POP PUSH0 DUP8 DUP2 MSTORE PUSH1 0x11 PUSH1 0x20 SWAP1 DUP2 MSTORE PUSH1 0x40 DUP1 DUP4 KECCAK256 DUP1 SLOAD PUSH1 0x1 PUSH1 0x1 PUSH1 0xA0 SHL SUB SWAP1 DUP2 AND DUP6 MSTORE PUSH1 0x10 DUP5 MSTORE DUP3 DUP6 KECCAK256 PUSH1 0x1 SWAP3 DUP4 ADD SLOAD DUP7 MSTORE DUP5 MSTORE DUP3 DUP6 KECCAK256 SWAP1 SWAP2 ADD SLOAD AND DUP4 MSTORE PUSH1 0x1A SWAP1 SWAP2 MSTORE DUP2 KECCAK256 DUP1 SLOAD SWAP2 PUSH2 0x202B DUP4 PUSH2 0x439B JUMP JUMPDEST SWAP1 SWAP2 SSTORE POP POP PUSH0 DUP8 DUP2 MSTORE PUSH1 0x11 PUSH1 0x20 SWAP1 DUP2 MSTORE PUSH1 0x40 DUP1 DUP4 KECCAK256 DUP1 SLOAD PUSH1 0x1 PUSH1 0x1 PUSH1 0xA0 SHL SUB SWAP1 DUP2 AND DUP6 MSTORE PUSH1 0x10 DUP5 MSTORE DUP3 DUP6 KECCAK256 PUSH1 0x1 SWAP1 SWAP3 ADD SLOAD DUP6 MSTORE SWAP1 DUP4 MSTORE SWAP3 DUP2 SWAP1 KECCAK256 PUSH1 0x6 ADD SLOAD DUP2 MLOAD PUSH2 0x100 SWAP1 SWAP2 DIV SWAP1 SWAP4 AND DUP4 MSTORE SWAP1 DUP3 ADD DUP5 SWAP1 MSTORE PUSH32 0x7BD3AA7D673767F759EBF216E7F6C12844986C661AE6E0F1D988CF7EB7394D1D SWAP2 ADD PUSH1 0x40 MLOAD DUP1 SWAP2 SUB SWAP1 LOG1 PUSH0 DUP8 DUP2 MSTORE PUSH1 0x11 PUSH1 0x20 SWAP1 DUP2 MSTORE PUSH1 0x40 DUP1 DUP4 KECCAK256 DUP1 SLOAD PUSH1 0x1 PUSH1 0x1 PUSH1 0xA0 SHL SUB SWAP1 DUP2 AND DUP6 MSTORE PUSH1 0x10 DUP5 MSTORE DUP3 DUP6 KECCAK256 PUSH1 0x1 SWAP3 DUP4 ADD SLOAD DUP7 MSTORE DUP5 MSTORE SWAP4 DUP3 SWAP1 KECCAK256 DUP1 SLOAD SWAP2 ADD SLOAD DUP3 MLOAD SWAP2 DUP3 MSTORE SWAP1 SWAP4 AND SWAP2 DUP4 ADD SWAP2 SWAP1 SWAP2 MSTORE CALLER DUP3 DUP3 ADD MSTORE CALLVALUE PUSH1 0x60 DUP4 ADD MSTORE TIMESTAMP PUSH1 0x80 DUP4 ADD MSTORE MLOAD PUSH32 0x5FAFAD85DEC201C2E73B6A2BEF6351129304A624EA8720ECD04CD7F04D83BC39 SWAP2 DUP2 SWAP1 SUB PUSH1 0xA0 ADD SWAP1 LOG1 POP POP POP POP POP PUSH2 0x2139 PUSH1 0x1 PUSH0 SSTORE JUMP JUMPDEST POP POP JUMP JUMPDEST PUSH2 0x2145 PUSH2 0x38BE JUMP JUMPDEST PUSH0 DUP2 DUP2 MSTORE PUSH1 0x11 PUSH1 0x20 SWAP1 DUP2 MSTORE PUSH1 0x40 DUP1 DUP4 KECCAK256 DUP1 SLOAD PUSH1 0x1 PUSH1 0x1 PUSH1 0xA0 SHL SUB SWAP1 DUP2 AND DUP6 MSTORE PUSH1 0x10 DUP5 MSTORE DUP3 DUP6 KECCAK256 PUSH1 0x1 SWAP3 DUP4 ADD SLOAD DUP7 MSTORE SWAP1 SWAP4 MSTORE SWAP3 KECCAK256 SWAP1 SWAP2 ADD SLOAD AND CALLER EQ PUSH2 0x21CB JUMPI PUSH1 0x40 MLOAD PUSH3 0x461BCD PUSH1 0xE5 SHL DUP2 MSTORE PUSH1 0x20 PUSH1 0x4 DUP3 ADD MSTORE PUSH1 0x1D PUSH1 0x24 DUP3 ADD MSTORE PUSH32 0x596F7520617265206E6F74206F776E6572206F662074686973204E4654000000 PUSH1 0x44 DUP3 ADD MSTORE PUSH1 0x64 ADD PUSH2 0xB04 JUMP JUMPDEST PUSH0 DUP2 DUP2 MSTORE PUSH1 0x11 PUSH1 0x20 SWAP1 DUP2 MSTORE PUSH1 0x40 DUP1 DUP4 KECCAK256 DUP1 SLOAD PUSH1 0x1 PUSH1 0x1 PUSH1 0xA0 SHL SUB AND DUP5 MSTORE PUSH1 0x10 DUP4 MSTORE DUP2 DUP5 KECCAK256 PUSH1 0x1 SWAP1 SWAP2 ADD SLOAD DUP5 MSTORE SWAP1 SWAP2 MSTORE SWAP1 KECCAK256 PUSH1 0x6 ADD SLOAD PUSH1 0xFF AND PUSH2 0x2247 JUMPI PUSH1 0x40 MLOAD PUSH3 0x461BCD PUSH1 0xE5 SHL DUP2 MSTORE PUSH1 0x20 PUSH1 0x4 DUP3 ADD MSTORE PUSH1 0x15 PUSH1 0x24 DUP3 ADD MSTORE PUSH21 0x506C65617365204C69737420466972737420212121 PUSH1 0x58 SHL PUSH1 0x44 DUP3 ADD MSTORE PUSH1 0x64 ADD PUSH2 0xB04 JUMP JUMPDEST PUSH0 DUP2 DUP2 MSTORE PUSH1 0x11 PUSH1 0x20 DUP2 DUP2 MSTORE PUSH1 0x40 DUP1 DUP5 KECCAK256 DUP1 SLOAD PUSH1 0x1 PUSH1 0x1 PUSH1 0xA0 SHL SUB SWAP1 DUP2 AND DUP7 MSTORE PUSH1 0x10 DUP5 MSTORE DUP3 DUP7 KECCAK256 PUSH1 0x1 DUP1 DUP5 ADD DUP1 SLOAD DUP10 MSTORE SWAP2 DUP7 MSTORE DUP5 DUP9 KECCAK256 SWAP1 DUP2 ADD SLOAD PUSH1 0x2 SWAP1 SWAP2 ADD DUP1 SLOAD PUSH1 0x1 PUSH1 0x1 PUSH1 0xA0 SHL SUB NOT AND SWAP2 DUP5 AND SWAP2 SWAP1 SWAP2 OR SWAP1 SSTORE SWAP6 DUP8 SWAP1 MSTORE SWAP4 SWAP1 SWAP3 MSTORE SWAP1 SLOAD SWAP3 SLOAD SWAP1 MLOAD PUSH4 0x23B872DD PUSH1 0xE0 SHL DUP2 MSTORE SWAP3 SWAP1 SWAP2 AND SWAP2 PUSH4 0x23B872DD SWAP2 PUSH2 0x22CD SWAP2 ADDRESS SWAP2 CALLER SWAP2 PUSH1 0x4 ADD PUSH2 0x43B3 JUMP JUMPDEST PUSH0 PUSH1 0x40 MLOAD DUP1 DUP4 SUB DUP2 PUSH0 DUP8 DUP1 EXTCODESIZE ISZERO DUP1 ISZERO PUSH2 0x22E4 JUMPI PUSH0 DUP1 REVERT JUMPDEST POP GAS CALL ISZERO DUP1 ISZERO PUSH2 0x22F6 JUMPI RETURNDATASIZE PUSH0 DUP1 RETURNDATACOPY RETURNDATASIZE PUSH0 REVERT JUMPDEST POP POP POP PUSH0 DUP3 DUP2 MSTORE PUSH1 0x11 PUSH1 0x20 DUP2 DUP2 MSTORE PUSH1 0x40 DUP1 DUP5 KECCAK256 DUP1 SLOAD PUSH1 0x1 PUSH1 0x1 PUSH1 0xA0 SHL SUB AND DUP6 MSTORE PUSH1 0x10 DUP1 DUP5 MSTORE DUP3 DUP7 KECCAK256 PUSH1 0x1 SWAP1 SWAP3 ADD SLOAD DUP7 MSTORE SWAP3 MSTORE DUP4 KECCAK256 PUSH1 0x6 ADD DUP1 SLOAD PUSH1 0xFF NOT AND SWAP1 SSTORE DUP5 SWAP4 POP SWAP2 SWAP1 DUP2 PUSH2 0x2344 PUSH1 0x2 SLOAD SWAP1 JUMP JUMPDEST DUP2 MSTORE PUSH1 0x20 DUP1 DUP3 ADD SWAP3 SWAP1 SWAP3 MSTORE PUSH1 0x40 SWAP1 DUP2 ADD PUSH0 SWAP1 DUP2 KECCAK256 SLOAD PUSH1 0x1 PUSH1 0x1 PUSH1 0xA0 SHL SUB AND DUP5 MSTORE SWAP2 DUP4 ADD SWAP4 SWAP1 SWAP4 MSTORE SWAP2 ADD DUP2 KECCAK256 SWAP1 PUSH1 0x11 DUP2 PUSH2 0x237C PUSH1 0x2 SLOAD SWAP1 JUMP JUMPDEST DUP2 MSTORE PUSH1 0x20 ADD SWAP1 DUP2 MSTORE PUSH1 0x20 ADD PUSH0 KECCAK256 PUSH1 0x1 ADD SLOAD DUP2 MSTORE PUSH1 0x20 ADD SWAP1 DUP2 MSTORE PUSH1 0x20 ADD PUSH0 KECCAK256 PUSH1 0x4 ADD DUP2 SWAP1 SSTORE POP PUSH1 0x11 PUSH0 PUSH2 0x23AD PUSH1 0x2 SLOAD SWAP1 JUMP JUMPDEST DUP2 MSTORE PUSH1 0x20 DUP1 DUP3 ADD SWAP3 SWAP1 SWAP3 MSTORE PUSH1 0x40 SWAP1 DUP2 ADD PUSH0 SWAP1 DUP2 KECCAK256 DUP5 DUP3 MSTORE PUSH1 0x11 SWAP1 SWAP4 MSTORE KECCAK256 DUP2 SLOAD DUP2 SLOAD PUSH1 0x1 PUSH1 0x1 PUSH1 0xA0 SHL SUB NOT AND PUSH1 0x1 PUSH1 0x1 PUSH1 0xA0 SHL SUB SWAP1 SWAP2 AND OR DUP2 SSTORE PUSH1 0x1 SWAP2 DUP3 ADD SLOAD SWAP2 ADD SSTORE PUSH2 0x23F9 PUSH1 0x2 PUSH2 0x3915 JUMP JUMPDEST PUSH0 DUP2 DUP2 MSTORE PUSH1 0x11 PUSH1 0x20 SWAP1 DUP2 MSTORE PUSH1 0x40 DUP1 DUP4 KECCAK256 DUP1 SLOAD PUSH1 0x1 PUSH1 0x1 PUSH1 0xA0 SHL SUB SWAP1 DUP2 AND DUP6 MSTORE PUSH1 0x10 DUP5 MSTORE DUP3 DUP6 KECCAK256 PUSH1 0x1 SWAP3 DUP4 ADD SLOAD DUP7 MSTORE DUP5 MSTORE SWAP4 DUP3 SWAP1 KECCAK256 DUP1 SLOAD SWAP2 DUP2 ADD SLOAD PUSH1 0x3 SWAP1 SWAP2 ADD SLOAD DUP4 MLOAD SWAP3 DUP4 MSTORE SWAP5 AND SWAP3 DUP2 ADD SWAP3 SWAP1 SWAP3 MSTORE CALLER SWAP1 DUP3 ADD MSTORE PUSH1 0x60 DUP2 ADD SWAP2 SWAP1 SWAP2 MSTORE PUSH32 0xFB0451E2371B977DB14CE8DB0BD62262E6FF8FE4B5960280928BA94E02443603 SWAP1 PUSH1 0x80 ADD PUSH1 0x40 MLOAD DUP1 SWAP2 SUB SWAP1 LOG1 PUSH2 0x248A PUSH1 0x1 PUSH0 SSTORE JUMP JUMPDEST POP JUMP JUMPDEST PUSH0 DUP1 PUSH0 JUMPDEST PUSH1 0x7 SLOAD DUP2 LT ISZERO PUSH2 0xE44 JUMPI PUSH0 DUP2 DUP2 MSTORE PUSH1 0x8 PUSH1 0x20 MSTORE PUSH1 0x40 SWAP1 KECCAK256 PUSH1 0x1 ADD SLOAD DUP6 GT DUP1 ISZERO SWAP1 PUSH2 0x24CB JUMPI POP PUSH0 DUP2 DUP2 MSTORE PUSH1 0x8 PUSH1 0x20 MSTORE PUSH1 0x40 SWAP1 KECCAK256 PUSH1 0x1 ADD SLOAD DUP5 LT ISZERO JUMPDEST ISZERO PUSH2 0x24EB JUMPI PUSH0 DUP2 DUP2 MSTORE PUSH1 0x8 PUSH1 0x20 MSTORE PUSH1 0x40 SWAP1 KECCAK256 SLOAD PUSH2 0x24E8 SWAP1 DUP4 PUSH2 0x424C JUMP JUMPDEST SWAP2 POP JUMPDEST PUSH1 0x1 ADD PUSH2 0x2491 JUMP JUMPDEST PUSH0 DUP3 DUP2 MSTORE PUSH1 0x14 PUSH1 0x20 SWAP1 DUP2 MSTORE PUSH1 0x40 DUP1 DUP4 KECCAK256 DUP1 SLOAD PUSH1 0x1 SWAP1 SWAP2 ADD SLOAD PUSH1 0x1 PUSH1 0x1 PUSH1 0xA0 SHL SUB SWAP2 DUP3 AND DUP1 DUP7 MSTORE PUSH1 0x12 DUP6 MSTORE DUP4 DUP7 KECCAK256 DUP3 DUP8 MSTORE SWAP1 SWAP5 MSTORE SWAP2 SWAP1 SWAP4 KECCAK256 SLOAD SWAP2 SWAP3 SWAP1 SWAP2 AND CALLER EQ PUSH2 0x258A JUMPI PUSH1 0x40 MLOAD PUSH3 0x461BCD PUSH1 0xE5 SHL DUP2 MSTORE PUSH1 0x20 PUSH1 0x4 DUP3 ADD MSTORE PUSH1 0x24 DUP1 DUP3 ADD MSTORE PUSH32 0x596F752041726520556E61626C6520746F2053656C6563742074686520557365 PUSH1 0x44 DUP3 ADD MSTORE PUSH4 0x72212121 PUSH1 0xE0 SHL PUSH1 0x64 DUP3 ADD MSTORE PUSH1 0x84 ADD PUSH2 0xB04 JUMP JUMPDEST POP POP PUSH0 SWAP2 DUP3 MSTORE PUSH1 0x16 PUSH1 0x20 MSTORE PUSH1 0x40 SWAP1 SWAP2 KECCAK256 SSTORE JUMP JUMPDEST PUSH2 0x25A5 PUSH2 0x3864 JUMP JUMPDEST PUSH2 0x25AE PUSH0 PUSH2 0x396B JUMP JUMPDEST JUMP JUMPDEST PUSH0 DUP2 DUP2 MSTORE PUSH1 0x14 PUSH1 0x20 SWAP1 DUP2 MSTORE PUSH1 0x40 DUP1 DUP4 KECCAK256 DUP1 SLOAD PUSH1 0x1 PUSH1 0x1 PUSH1 0xA0 SHL SUB SWAP1 DUP2 AND DUP6 MSTORE PUSH1 0x12 DUP5 MSTORE DUP3 DUP6 KECCAK256 PUSH1 0x1 SWAP1 SWAP3 ADD SLOAD DUP6 MSTORE SWAP3 MSTORE SWAP1 SWAP2 KECCAK256 SLOAD AND CALLER EQ PUSH2 0x2633 JUMPI PUSH1 0x40 MLOAD PUSH3 0x461BCD PUSH1 0xE5 SHL DUP2 MSTORE PUSH1 0x20 PUSH1 0x4 DUP3 ADD MSTORE PUSH1 0x17 PUSH1 0x24 DUP3 ADD MSTORE PUSH32 0x4F6E6C79204F776E65722043616E2043616E63656C2121000000000000000000 PUSH1 0x44 DUP3 ADD MSTORE PUSH1 0x64 ADD PUSH2 0xB04 JUMP JUMPDEST PUSH0 DUP2 DUP2 MSTORE PUSH1 0x14 PUSH1 0x20 MSTORE PUSH1 0x40 SWAP1 DUP2 SWAP1 KECCAK256 DUP1 SLOAD PUSH1 0x1 SWAP1 SWAP2 ADD SLOAD SWAP2 MLOAD PUSH4 0x23B872DD PUSH1 0xE0 SHL DUP2 MSTORE PUSH1 0x1 PUSH1 0x1 PUSH1 0xA0 SHL SUB SWAP1 SWAP2 AND SWAP2 PUSH4 0x23B872DD SWAP2 PUSH2 0x2679 SWAP2 ADDRESS SWAP2 CALLER SWAP2 SWAP1 PUSH1 0x4 ADD PUSH2 0x43B3 JUMP JUMPDEST PUSH0 PUSH1 0x40 MLOAD DUP1 DUP4 SUB DUP2 PUSH0 DUP8 DUP1 EXTCODESIZE ISZERO DUP1 ISZERO PUSH2 0x2690 JUMPI PUSH0 DUP1 REVERT JUMPDEST POP GAS CALL ISZERO DUP1 ISZERO PUSH2 0x26A2 JUMPI RETURNDATASIZE PUSH0 DUP1 RETURNDATACOPY RETURNDATASIZE PUSH0 REVERT JUMPDEST POP POP POP PUSH0 DUP3 DUP2 MSTORE PUSH1 0x14 PUSH1 0x20 DUP2 DUP2 MSTORE PUSH1 0x40 DUP1 DUP5 KECCAK256 DUP1 SLOAD PUSH1 0x1 PUSH1 0x1 PUSH1 0xA0 SHL SUB AND DUP6 MSTORE PUSH1 0x12 DUP4 MSTORE DUP2 DUP6 KECCAK256 PUSH1 0x1 SWAP1 SWAP2 ADD SLOAD DUP6 MSTORE SWAP1 SWAP2 MSTORE DUP3 KECCAK256 PUSH1 0x6 ADD DUP1 SLOAD PUSH1 0xFF NOT AND SWAP1 SSTORE SWAP2 POP PUSH2 0x26EC PUSH1 0x3 SLOAD SWAP1 JUMP JUMPDEST DUP2 MSTORE PUSH1 0x20 DUP1 DUP3 ADD SWAP3 SWAP1 SWAP3 MSTORE PUSH1 0x40 SWAP1 DUP2 ADD PUSH0 SWAP1 DUP2 KECCAK256 DUP5 DUP3 MSTORE PUSH1 0x14 SWAP1 SWAP4 MSTORE SWAP1 DUP2 KECCAK256 DUP3 SLOAD DUP2 SLOAD PUSH1 0x1 PUSH1 0x1 PUSH1 0xA0 SHL SUB NOT AND PUSH1 0x1 PUSH1 0x1 PUSH1 0xA0 SHL SUB SWAP1 SWAP2 AND OR DUP2 SSTORE PUSH1 0x1 SWAP3 DUP4 ADD SLOAD SWAP3 ADD SWAP2 SWAP1 SWAP2 SSTORE PUSH1 0x13 SWAP1 PUSH2 0x273F PUSH1 0x3 SLOAD SWAP1 JUMP JUMPDEST DUP2 MSTORE PUSH1 0x20 ADD SWAP1 DUP2 MSTORE PUSH1 0x20 ADD PUSH0 KECCAK256 SLOAD PUSH1 0x13 PUSH0 DUP4 DUP2 MSTORE PUSH1 0x20 ADD SWAP1 DUP2 MSTORE PUSH1 0x20 ADD PUSH0 KECCAK256 DUP2 SWAP1 SSTORE POP PUSH1 0x14 PUSH0 PUSH2 0x276E PUSH1 0x3 SLOAD SWAP1 JUMP JUMPDEST DUP2 MSTORE PUSH1 0x20 DUP2 ADD SWAP2 SWAP1 SWAP2 MSTORE PUSH1 0x40 ADD PUSH0 SWAP1 DUP2 KECCAK256 DUP1 SLOAD PUSH1 0x1 PUSH1 0x1 PUSH1 0xA0 SHL SUB NOT AND DUP2 SSTORE PUSH1 0x1 ADD DUP2 SWAP1 SSTORE PUSH1 0x13 SWAP1 PUSH2 0x279F PUSH1 0x3 SLOAD SWAP1 JUMP JUMPDEST DUP2 MSTORE PUSH1 0x20 ADD SWAP1 DUP2 MSTORE PUSH1 0x20 ADD PUSH0 KECCAK256 PUSH0 SWAP1 SSTORE PUSH2 0x248A PUSH1 0x3 PUSH2 0x3915 JUMP JUMPDEST PUSH1 0x60 DUP1 PUSH0 PUSH2 0x27C6 PUSH1 0x2 SLOAD SWAP1 JUMP JUMPDEST SWAP1 POP PUSH0 DUP2 PUSH1 0x1 PUSH1 0x1 PUSH1 0x40 SHL SUB DUP2 GT ISZERO PUSH2 0x27E1 JUMPI PUSH2 0x27E1 PUSH2 0x3AE9 JUMP JUMPDEST PUSH1 0x40 MLOAD SWAP1 DUP1 DUP3 MSTORE DUP1 PUSH1 0x20 MUL PUSH1 0x20 ADD DUP3 ADD PUSH1 0x40 MSTORE DUP1 ISZERO PUSH2 0x281A JUMPI DUP2 PUSH1 0x20 ADD JUMPDEST PUSH2 0x2807 PUSH2 0x39F0 JUMP JUMPDEST DUP2 MSTORE PUSH1 0x20 ADD SWAP1 PUSH1 0x1 SWAP1 SUB SWAP1 DUP2 PUSH2 0x27FF JUMPI SWAP1 POP JUMPDEST POP SWAP1 POP PUSH0 PUSH1 0x1 JUMPDEST PUSH1 0x2 SLOAD DUP2 GT PUSH2 0x29C0 JUMPI PUSH0 DUP2 DUP2 MSTORE PUSH1 0x11 PUSH1 0x20 SWAP1 DUP2 MSTORE PUSH1 0x40 DUP1 DUP4 KECCAK256 DUP1 SLOAD PUSH1 0x1 PUSH1 0x1 PUSH1 0xA0 SHL SUB AND DUP5 MSTORE PUSH1 0x10 DUP4 MSTORE DUP2 DUP5 KECCAK256 PUSH1 0x1 SWAP1 SWAP2 ADD SLOAD DUP5 MSTORE SWAP1 SWAP2 MSTORE SWAP1 KECCAK256 PUSH1 0x6 ADD SLOAD PUSH1 0xFF AND ISZERO PUSH2 0x29AE JUMPI PUSH1 0x40 DUP1 MLOAD PUSH0 DUP4 DUP2 MSTORE PUSH1 0x11 PUSH1 0x20 DUP2 DUP2 MSTORE DUP5 DUP4 KECCAK256 DUP1 SLOAD PUSH1 0x1 PUSH1 0x1 PUSH1 0xA0 SHL SUB SWAP1 DUP2 AND DUP1 DUP7 MSTORE PUSH1 0x10 DUP5 MSTORE DUP8 DUP7 KECCAK256 PUSH1 0x1 SWAP4 DUP5 ADD SLOAD DUP1 DUP9 MSTORE SWAP1 DUP6 MSTORE DUP9 DUP8 KECCAK256 PUSH2 0x180 DUP10 ADD DUP11 MSTORE DUP1 SLOAD PUSH1 0x60 DUP11 ADD SWAP1 DUP2 MSTORE SWAP5 DUP2 ADD SLOAD DUP5 AND PUSH1 0x80 DUP11 ADD MSTORE PUSH1 0x2 DUP2 ADD SLOAD DUP5 AND PUSH1 0xA0 DUP11 ADD MSTORE PUSH1 0x3 DUP2 ADD SLOAD PUSH1 0xC0 DUP11 ADD MSTORE PUSH1 0x4 DUP1 DUP3 ADD SLOAD PUSH1 0xE0 DUP12 ADD MSTORE PUSH1 0x5 DUP3 ADD SLOAD PUSH2 0x100 DUP1 DUP13 ADD SWAP2 SWAP1 SWAP2 MSTORE PUSH1 0x6 DUP4 ADD SLOAD PUSH1 0xFF DUP2 AND ISZERO ISZERO PUSH2 0x120 DUP14 ADD MSTORE DIV SWAP1 SWAP5 AND PUSH2 0x140 DUP11 ADD MSTORE PUSH1 0x7 ADD SLOAD PUSH2 0x160 DUP10 ADD MSTORE SWAP3 DUP8 MSTORE DUP4 DUP8 ADD DUP10 SWAP1 MSTORE SWAP5 DUP9 SWAP1 MSTORE SWAP3 SWAP1 SWAP2 MSTORE DUP5 MLOAD PUSH4 0x8AD91345 PUSH1 0xE0 SHL DUP2 MSTORE SWAP2 DUP3 ADD MSTORE SWAP2 SWAP3 DUP4 ADD SWAP2 PUSH4 0x8AD91345 SWAP1 PUSH1 0x24 ADD PUSH0 PUSH1 0x40 MLOAD DUP1 DUP4 SUB DUP2 DUP7 GAS STATICCALL ISZERO DUP1 ISZERO PUSH2 0x2958 JUMPI RETURNDATASIZE PUSH0 DUP1 RETURNDATACOPY RETURNDATASIZE PUSH0 REVERT JUMPDEST POP POP POP POP PUSH1 0x40 MLOAD RETURNDATASIZE PUSH0 DUP3 RETURNDATACOPY PUSH1 0x1F RETURNDATASIZE SWAP1 DUP2 ADD PUSH1 0x1F NOT AND DUP3 ADD PUSH1 0x40 MSTORE PUSH2 0x297F SWAP2 SWAP1 DUP2 ADD SWAP1 PUSH2 0x45A0 JUMP JUMPDEST DUP2 MSTORE POP DUP4 DUP4 DUP2 MLOAD DUP2 LT PUSH2 0x2994 JUMPI PUSH2 0x2994 PUSH2 0x43D7 JUMP JUMPDEST PUSH1 0x20 MUL PUSH1 0x20 ADD ADD DUP2 SWAP1 MSTORE POP DUP2 DUP1 PUSH2 0x29AA SWAP1 PUSH2 0x439B JUMP JUMPDEST SWAP3 POP POP JUMPDEST DUP1 PUSH2 0x29B8 DUP2 PUSH2 0x439B JUMP JUMPDEST SWAP2 POP POP PUSH2 0x2821 JUMP JUMPDEST POP PUSH1 0x3 SLOAD SWAP3 POP PUSH0 DUP4 PUSH1 0x1 PUSH1 0x1 PUSH1 0x40 SHL SUB DUP2 GT ISZERO PUSH2 0x29DF JUMPI PUSH2 0x29DF PUSH2 0x3AE9 JUMP JUMPDEST PUSH1 0x40 MLOAD SWAP1 DUP1 DUP3 MSTORE DUP1 PUSH1 0x20 MUL PUSH1 0x20 ADD DUP3 ADD PUSH1 0x40 MSTORE DUP1 ISZERO PUSH2 0x2A18 JUMPI DUP2 PUSH1 0x20 ADD JUMPDEST PUSH2 0x2A05 PUSH2 0x3A57 JUMP JUMPDEST DUP2 MSTORE PUSH1 0x20 ADD SWAP1 PUSH1 0x1 SWAP1 SUB SWAP1 DUP2 PUSH2 0x29FD JUMPI SWAP1 POP JUMPDEST POP SWAP1 POP PUSH0 PUSH1 0x1 JUMPDEST PUSH1 0x3 SLOAD DUP2 GT PUSH2 0x2BA7 JUMPI PUSH0 DUP2 DUP2 MSTORE PUSH1 0x14 PUSH1 0x20 SWAP1 DUP2 MSTORE PUSH1 0x40 DUP1 DUP4 KECCAK256 DUP1 SLOAD PUSH1 0x1 PUSH1 0x1 PUSH1 0xA0 SHL SUB AND DUP5 MSTORE PUSH1 0x12 DUP4 MSTORE DUP2 DUP5 KECCAK256 PUSH1 0x1 SWAP1 SWAP2 ADD SLOAD DUP5 MSTORE SWAP1 SWAP2 MSTORE SWAP1 KECCAK256 PUSH1 0x6 ADD SLOAD PUSH1 0xFF AND ISZERO PUSH2 0x2B95 JUMPI PUSH1 0x40 DUP1 MLOAD PUSH0 DUP4 DUP2 MSTORE PUSH1 0x14 PUSH1 0x20 DUP2 DUP2 MSTORE DUP5 DUP4 KECCAK256 DUP1 SLOAD PUSH1 0x1 PUSH1 0x1 PUSH1 0xA0 SHL SUB SWAP1 DUP2 AND DUP1 DUP7 MSTORE PUSH1 0x12 DUP5 MSTORE DUP8 DUP7 KECCAK256 PUSH1 0x1 SWAP4 DUP5 ADD SLOAD DUP1 DUP9 MSTORE SWAP1 DUP6 MSTORE DUP9 DUP8 KECCAK256 PUSH2 0x140 DUP10 ADD DUP11 MSTORE DUP1 SLOAD DUP5 AND PUSH1 0x60 DUP11 ADD SWAP1 DUP2 MSTORE SWAP5 DUP2 ADD SLOAD PUSH1 0x80 DUP11 ADD MSTORE PUSH1 0x2 DUP2 ADD SLOAD PUSH1 0xA0 DUP11 ADD MSTORE PUSH1 0x3 DUP2 ADD SLOAD SWAP1 SWAP4 AND PUSH1 0xC0 DUP10 ADD MSTORE PUSH1 0x4 DUP1 DUP5 ADD SLOAD PUSH1 0xE0 DUP11 ADD MSTORE PUSH1 0x5 DUP5 ADD SLOAD PUSH2 0x100 DUP11 ADD MSTORE PUSH1 0x6 SWAP1 SWAP4 ADD SLOAD PUSH1 0xFF AND ISZERO ISZERO PUSH2 0x120 DUP10 ADD MSTORE SWAP3 DUP8 MSTORE DUP4 DUP8 ADD DUP10 SWAP1 MSTORE SWAP5 DUP9 SWAP1 MSTORE SWAP3 SWAP1 SWAP2 MSTORE DUP5 MLOAD PUSH4 0x8AD91345 PUSH1 0xE0 SHL DUP2 MSTORE SWAP2 DUP3 ADD MSTORE SWAP2 SWAP3 DUP4 ADD SWAP2 PUSH4 0x8AD91345 SWAP1 PUSH1 0x24 ADD PUSH0 PUSH1 0x40 MLOAD DUP1 DUP4 SUB DUP2 DUP7 GAS STATICCALL ISZERO DUP1 ISZERO PUSH2 0x2B3F JUMPI RETURNDATASIZE PUSH0 DUP1 RETURNDATACOPY RETURNDATASIZE PUSH0 REVERT JUMPDEST POP POP POP POP PUSH1 0x40 MLOAD RETURNDATASIZE PUSH0 DUP3 RETURNDATACOPY PUSH1 0x1F RETURNDATASIZE SWAP1 DUP2 ADD PUSH1 0x1F NOT AND DUP3 ADD PUSH1 0x40 MSTORE PUSH2 0x2B66 SWAP2 SWAP1 DUP2 ADD SWAP1 PUSH2 0x45A0 JUMP JUMPDEST DUP2 MSTORE POP DUP4 DUP4 DUP2 MLOAD DUP2 LT PUSH2 0x2B7B JUMPI PUSH2 0x2B7B PUSH2 0x43D7 JUMP JUMPDEST PUSH1 0x20 MUL PUSH1 0x20 ADD ADD DUP2 SWAP1 MSTORE POP DUP2 DUP1 PUSH2 0x2B91 SWAP1 PUSH2 0x439B JUMP JUMPDEST SWAP3 POP POP JUMPDEST DUP1 PUSH2 0x2B9F DUP2 PUSH2 0x439B JUMP JUMPDEST SWAP2 POP POP PUSH2 0x2A1F JUMP JUMPDEST POP SWAP3 SWAP7 SWAP1 SWAP6 POP SWAP4 POP POP POP POP JUMP JUMPDEST PUSH1 0x15 PUSH1 0x20 SWAP1 DUP2 MSTORE PUSH0 SWAP4 DUP5 MSTORE PUSH1 0x40 DUP1 DUP6 KECCAK256 DUP3 MSTORE SWAP3 DUP5 MSTORE DUP3 DUP5 KECCAK256 SWAP1 MSTORE DUP3 MSTORE SWAP1 KECCAK256 DUP1 SLOAD PUSH1 0x1 DUP3 ADD DUP1 SLOAD PUSH1 0x1 PUSH1 0x1 PUSH1 0xA0 SHL SUB SWAP1 SWAP3 AND SWAP3 SWAP2 PUSH2 0x2BF0 SWAP1 PUSH2 0x425F JUMP JUMPDEST DUP1 PUSH1 0x1F ADD PUSH1 0x20 DUP1 SWAP2 DIV MUL PUSH1 0x20 ADD PUSH1 0x40 MLOAD SWAP1 DUP2 ADD PUSH1 0x40 MSTORE DUP1 SWAP3 SWAP2 SWAP1 DUP2 DUP2 MSTORE PUSH1 0x20 ADD DUP3 DUP1 SLOAD PUSH2 0x2C1C SWAP1 PUSH2 0x425F JUMP JUMPDEST DUP1 ISZERO PUSH2 0x2C67 JUMPI DUP1 PUSH1 0x1F LT PUSH2 0x2C3E JUMPI PUSH2 0x100 DUP1 DUP4 SLOAD DIV MUL DUP4 MSTORE SWAP2 PUSH1 0x20 ADD SWAP2 PUSH2 0x2C67 JUMP JUMPDEST DUP3 ADD SWAP2 SWAP1 PUSH0 MSTORE PUSH1 0x20 PUSH0 KECCAK256 SWAP1 JUMPDEST DUP2 SLOAD DUP2 MSTORE SWAP1 PUSH1 0x1 ADD SWAP1 PUSH1 0x20 ADD DUP1 DUP4 GT PUSH2 0x2C4A JUMPI DUP3 SWAP1 SUB PUSH1 0x1F AND DUP3 ADD SWAP2 JUMPDEST POP POP POP POP POP SWAP1 DUP1 PUSH1 0x2 ADD SLOAD SWAP1 DUP1 PUSH1 0x3 ADD SLOAD SWAP1 DUP1 PUSH1 0x4 ADD SLOAD SWAP1 POP DUP6 JUMP JUMPDEST PUSH0 DUP2 DUP2 MSTORE PUSH1 0x14 PUSH1 0x20 SWAP1 DUP2 MSTORE PUSH1 0x40 DUP1 DUP4 KECCAK256 DUP1 SLOAD PUSH1 0x1 SWAP1 SWAP2 ADD SLOAD PUSH1 0x1 PUSH1 0x1 PUSH1 0xA0 SHL SUB SWAP2 DUP3 AND DUP1 DUP7 MSTORE PUSH1 0x18 DUP6 MSTORE DUP4 DUP7 KECCAK256 DUP3 DUP8 MSTORE DUP6 MSTORE DUP4 DUP7 KECCAK256 CALLER DUP1 DUP9 MSTORE SWAP1 DUP7 MSTORE DUP5 DUP8 KECCAK256 SLOAD DUP3 DUP9 MSTORE PUSH1 0x17 DUP8 MSTORE DUP6 DUP9 KECCAK256 DUP5 DUP10 MSTORE DUP8 MSTORE DUP6 DUP9 KECCAK256 DUP3 DUP10 MSTORE DUP8 MSTORE DUP6 DUP9 KECCAK256 DUP2 DUP10 MSTORE DUP8 MSTORE DUP6 DUP9 KECCAK256 SLOAD DUP4 DUP10 MSTORE PUSH1 0x15 DUP9 MSTORE DUP7 DUP10 KECCAK256 DUP6 DUP11 MSTORE DUP9 MSTORE DUP7 DUP10 KECCAK256 DUP2 DUP11 MSTORE SWAP1 SWAP8 MSTORE SWAP5 SWAP1 SWAP7 KECCAK256 SLOAD SWAP1 SWAP6 SWAP2 SWAP5 SWAP3 AND EQ PUSH2 0x2D4A JUMPI PUSH1 0x40 MLOAD PUSH3 0x461BCD PUSH1 0xE5 SHL DUP2 MSTORE PUSH1 0x20 PUSH1 0x4 DUP3 ADD MSTORE PUSH1 0x11 PUSH1 0x24 DUP3 ADD MSTORE PUSH17 0x706C656173652062696420666972737421 PUSH1 0x78 SHL PUSH1 0x44 DUP3 ADD MSTORE PUSH1 0x64 ADD PUSH2 0xB04 JUMP JUMPDEST PUSH1 0x1 PUSH1 0x1 PUSH1 0xA0 SHL SUB DUP5 AND PUSH0 SWAP1 DUP2 MSTORE PUSH1 0x15 PUSH1 0x20 SWAP1 DUP2 MSTORE PUSH1 0x40 DUP1 DUP4 KECCAK256 DUP7 DUP5 MSTORE DUP3 MSTORE DUP1 DUP4 KECCAK256 DUP5 DUP5 MSTORE SWAP1 SWAP2 MSTORE DUP2 KECCAK256 DUP1 SLOAD PUSH1 0x1 PUSH1 0x1 PUSH1 0xA0 SHL SUB NOT AND DUP2 SSTORE SWAP1 PUSH2 0x2D90 PUSH1 0x1 DUP4 ADD DUP3 PUSH2 0x3A9F JUMP JUMPDEST POP PUSH0 PUSH1 0x2 DUP3 ADD DUP2 SWAP1 SSTORE PUSH1 0x3 DUP3 ADD DUP2 SWAP1 SSTORE PUSH1 0x4 SWAP1 SWAP2 ADD DUP2 SWAP1 SSTORE PUSH1 0x1 PUSH1 0x1 PUSH1 0xA0 SHL SUB DUP6 AND DUP1 DUP3 MSTORE PUSH1 0x17 PUSH1 0x20 SWAP1 DUP2 MSTORE PUSH1 0x40 DUP1 DUP5 KECCAK256 DUP8 DUP6 MSTORE DUP3 MSTORE DUP1 DUP5 KECCAK256 CALLER DUP1 DUP7 MSTORE SWAP1 DUP4 MSTORE DUP2 DUP6 KECCAK256 DUP7 DUP7 MSTORE DUP4 MSTORE DUP2 DUP6 KECCAK256 DUP6 SWAP1 SSTORE SWAP3 DUP5 MSTORE PUSH1 0x18 DUP3 MSTORE DUP1 DUP5 KECCAK256 DUP8 DUP6 MSTORE DUP3 MSTORE DUP1 DUP5 KECCAK256 SWAP3 DUP5 MSTORE SWAP2 SWAP1 MSTORE DUP2 KECCAK256 DUP1 SLOAD SWAP2 PUSH2 0x2E04 DUP4 PUSH2 0x45D1 JUMP JUMPDEST SWAP2 SWAP1 POP SSTORE POP POP POP POP POP POP JUMP JUMPDEST PUSH0 DUP2 DUP2 MSTORE PUSH1 0x16 PUSH1 0x20 MSTORE PUSH1 0x40 DUP2 KECCAK256 SLOAD SWAP1 SUB PUSH2 0x2E5D JUMPI PUSH1 0x40 MLOAD PUSH3 0x461BCD PUSH1 0xE5 SHL DUP2 MSTORE PUSH1 0x20 PUSH1 0x4 DUP3 ADD MSTORE PUSH1 0xE PUSH1 0x24 DUP3 ADD MSTORE PUSH14 0x283632B0B9B2903BB0B4BA171717 PUSH1 0x91 SHL PUSH1 0x44 DUP3 ADD MSTORE PUSH1 0x64 ADD PUSH2 0xB04 JUMP JUMPDEST PUSH2 0x2E65 PUSH2 0x39BC JUMP JUMPDEST PUSH0 DUP3 DUP2 MSTORE PUSH1 0x14 PUSH1 0x20 SWAP1 DUP2 MSTORE PUSH1 0x40 DUP1 DUP4 KECCAK256 DUP1 SLOAD PUSH1 0x1 PUSH1 0x1 PUSH1 0xA0 SHL SUB SWAP1 DUP2 AND DUP6 MSTORE PUSH1 0x15 DUP5 MSTORE DUP3 DUP6 KECCAK256 PUSH1 0x1 SWAP3 DUP4 ADD SLOAD DUP7 MSTORE DUP5 MSTORE DUP3 DUP6 KECCAK256 DUP8 DUP7 MSTORE PUSH1 0x16 DUP6 MSTORE DUP4 DUP7 KECCAK256 SLOAD DUP7 MSTORE DUP5 MSTORE SWAP4 DUP3 SWAP1 KECCAK256 DUP3 MLOAD PUSH1 0xA0 DUP2 ADD SWAP1 SWAP4 MSTORE DUP1 SLOAD SWAP1 SWAP5 AND DUP3 MSTORE DUP4 ADD DUP1 SLOAD SWAP2 SWAP4 SWAP3 DUP5 ADD SWAP2 PUSH2 0x2ECE SWAP1 PUSH2 0x425F JUMP JUMPDEST DUP1 PUSH1 0x1F ADD PUSH1 0x20 DUP1 SWAP2 DIV MUL PUSH1 0x20 ADD PUSH1 0x40 MLOAD SWAP1 DUP2 ADD PUSH1 0x40 MSTORE DUP1 SWAP3 SWAP2 SWAP1 DUP2 DUP2 MSTORE PUSH1 0x20 ADD DUP3 DUP1 SLOAD PUSH2 0x2EFA SWAP1 PUSH2 0x425F JUMP JUMPDEST DUP1 ISZERO PUSH2 0x2F45 JUMPI DUP1 PUSH1 0x1F LT PUSH2 0x2F1C JUMPI PUSH2 0x100 DUP1 DUP4 SLOAD DIV MUL DUP4 MSTORE SWAP2 PUSH1 0x20 ADD SWAP2 PUSH2 0x2F45 JUMP JUMPDEST DUP3 ADD SWAP2 SWAP1 PUSH0 MSTORE PUSH1 0x20 PUSH0 KECCAK256 SWAP1 JUMPDEST DUP2 SLOAD DUP2 MSTORE SWAP1 PUSH1 0x1 ADD SWAP1 PUSH1 0x20 ADD DUP1 DUP4 GT PUSH2 0x2F28 JUMPI DUP3 SWAP1 SUB PUSH1 0x1F AND DUP3 ADD SWAP2 JUMPDEST POP POP POP SWAP2 DUP4 MSTORE POP POP PUSH1 0x2 DUP3 ADD SLOAD PUSH1 0x20 DUP3 ADD MSTORE PUSH1 0x3 DUP3 ADD SLOAD PUSH1 0x40 DUP3 ADD MSTORE PUSH1 0x4 SWAP1 SWAP2 ADD SLOAD PUSH1 0x60 SWAP1 SWAP2 ADD MSTORE DUP1 MLOAD SWAP1 SWAP2 POP PUSH1 0x1 PUSH1 0x1 PUSH1 0xA0 SHL SUB AND CALLER EQ PUSH2 0x2FC9 JUMPI PUSH1 0x40 MLOAD PUSH3 0x461BCD PUSH1 0xE5 SHL DUP2 MSTORE PUSH1 0x20 PUSH1 0x4 DUP3 ADD MSTORE PUSH1 0x1C PUSH1 0x24 DUP3 ADD MSTORE PUSH32 0x796F7520617265206E6F742073656C6C65637465642062696464657200000000 PUSH1 0x44 DUP3 ADD MSTORE PUSH1 0x64 ADD PUSH2 0xB04 JUMP JUMPDEST DUP1 PUSH1 0x40 ADD MLOAD CALLVALUE LT ISZERO PUSH2 0x300F JUMPI PUSH1 0x40 MLOAD PUSH3 0x461BCD PUSH1 0xE5 SHL DUP2 MSTORE PUSH1 0x20 PUSH1 0x4 DUP3 ADD MSTORE PUSH1 0xF PUSH1 0x24 DUP3 ADD MSTORE PUSH15 0x496E636F7272656374205072696365 PUSH1 0x88 SHL PUSH1 0x44 DUP3 ADD MSTORE PUSH1 0x64 ADD PUSH2 0xB04 JUMP JUMPDEST PUSH1 0xA SLOAD PUSH0 DUP4 DUP2 MSTORE PUSH1 0x14 PUSH1 0x20 SWAP1 DUP2 MSTORE PUSH1 0x40 DUP1 DUP4 KECCAK256 DUP1 SLOAD PUSH1 0x1 PUSH1 0x1 PUSH1 0xA0 SHL SUB AND DUP5 MSTORE PUSH1 0x10 DUP4 MSTORE DUP2 DUP5 KECCAK256 PUSH1 0x1 SWAP1 SWAP2 ADD SLOAD DUP5 MSTORE SWAP1 SWAP2 MSTORE DUP2 KECCAK256 PUSH1 0x3 ADD SLOAD SWAP1 SWAP2 PUSH2 0x3E8 SWAP2 PUSH2 0x3057 SWAP2 SWAP1 PUSH2 0x4557 JUMP JUMPDEST PUSH2 0x3061 SWAP2 SWAP1 PUSH2 0x456E JUMP JUMPDEST PUSH1 0xB SLOAD PUSH0 DUP6 DUP2 MSTORE PUSH1 0x14 PUSH1 0x20 SWAP1 DUP2 MSTORE PUSH1 0x40 DUP1 DUP4 KECCAK256 DUP1 SLOAD PUSH1 0x1 PUSH1 0x1 PUSH1 0xA0 SHL SUB AND DUP5 MSTORE PUSH1 0x10 DUP4 MSTORE DUP2 DUP5 KECCAK256 PUSH1 0x1 SWAP1 SWAP2 ADD SLOAD DUP5 MSTORE SWAP1 SWAP2 MSTORE DUP2 KECCAK256 PUSH1 0x3 ADD SLOAD SWAP3 SWAP4 POP SWAP2 PUSH2 0x3E8 SWAP2 PUSH2 0x30AA SWAP2 PUSH2 0x4557 JUMP JUMPDEST PUSH2 0x30B4 SWAP2 SWAP1 PUSH2 0x456E JUMP JUMPDEST PUSH0 DUP6 DUP2 MSTORE PUSH1 0x14 PUSH1 0x20 SWAP1 DUP2 MSTORE PUSH1 0x40 DUP1 DUP4 KECCAK256 DUP1 SLOAD PUSH1 0x1 PUSH1 0x1 PUSH1 0xA0 SHL SUB AND DUP5 MSTORE PUSH1 0x12 DUP4 MSTORE DUP2 DUP5 KECCAK256 PUSH1 0x1 SWAP1 SWAP2 ADD SLOAD DUP5 MSTORE SWAP1 SWAP2 MSTORE DUP1 DUP3 KECCAK256 PUSH1 0x4 ADD SLOAD SWAP1 DUP7 ADD MLOAD SWAP3 SWAP4 POP SWAP1 SWAP2 PUSH1 0x64 SWAP2 PUSH2 0x30FF SWAP2 PUSH2 0x4557 JUMP JUMPDEST PUSH2 0x3109 SWAP2 SWAP1 PUSH2 0x456E JUMP JUMPDEST SWAP1 POP PUSH0 DUP3 PUSH2 0x3117 DUP6 DUP5 PUSH2 0x424C JUMP JUMPDEST PUSH2 0x3121 SWAP2 SWAP1 PUSH2 0x424C JUMP JUMPDEST DUP6 PUSH1 0x40 ADD MLOAD PUSH2 0x3130 SWAP2 SWAP1 PUSH2 0x458D JUMP JUMPDEST PUSH0 DUP8 DUP2 MSTORE PUSH1 0x14 PUSH1 0x20 SWAP1 DUP2 MSTORE PUSH1 0x40 DUP1 DUP4 KECCAK256 DUP1 SLOAD PUSH1 0x1 PUSH1 0x1 PUSH1 0xA0 SHL SUB SWAP1 DUP2 AND DUP6 MSTORE PUSH1 0x12 DUP5 MSTORE DUP3 DUP6 KECCAK256 PUSH1 0x1 SWAP1 SWAP3 ADD SLOAD DUP6 MSTORE SWAP3 MSTORE DUP1 DUP4 KECCAK256 SLOAD SWAP1 MLOAD SWAP4 SWAP5 POP AND SWAP2 DUP4 ISZERO PUSH2 0x8FC MUL SWAP2 DUP5 SWAP2 SWAP1 DUP2 DUP2 DUP2 DUP6 DUP9 DUP9 CALL SWAP4 POP POP POP POP ISZERO DUP1 ISZERO PUSH2 0x3190 JUMPI RETURNDATASIZE PUSH0 DUP1 RETURNDATACOPY RETURNDATASIZE PUSH0 REVERT JUMPDEST POP PUSH0 DUP7 DUP2 MSTORE PUSH1 0x14 PUSH1 0x20 SWAP1 DUP2 MSTORE PUSH1 0x40 DUP1 DUP4 KECCAK256 DUP1 SLOAD PUSH1 0x1 PUSH1 0x1 PUSH1 0xA0 SHL SUB SWAP1 DUP2 AND DUP6 MSTORE PUSH1 0x12 DUP5 MSTORE DUP3 DUP6 KECCAK256 PUSH1 0x1 SWAP1 SWAP3 ADD SLOAD DUP6 MSTORE SWAP3 MSTORE DUP1 DUP4 KECCAK256 PUSH1 0x3 ADD SLOAD SWAP1 MLOAD SWAP2 AND SWAP2 DUP5 ISZERO PUSH2 0x8FC MUL SWAP2 DUP6 SWAP2 DUP2 DUP2 DUP2 DUP6 DUP9 DUP9 CALL SWAP4 POP POP POP POP ISZERO DUP1 ISZERO PUSH2 0x31F1 JUMPI RETURNDATASIZE PUSH0 DUP1 RETURNDATACOPY RETURNDATASIZE PUSH0 REVERT JUMPDEST POP PUSH1 0x6 SLOAD PUSH1 0x40 MLOAD PUSH1 0x1 PUSH1 0x1 PUSH1 0xA0 SHL SUB SWAP1 SWAP2 AND SWAP1 DUP6 ISZERO PUSH2 0x8FC MUL SWAP1 DUP7 SWAP1 PUSH0 DUP2 DUP2 DUP2 DUP6 DUP9 DUP9 CALL SWAP4 POP POP POP POP ISZERO DUP1 ISZERO PUSH2 0x3229 JUMPI RETURNDATASIZE PUSH0 DUP1 RETURNDATACOPY RETURNDATASIZE PUSH0 REVERT JUMPDEST POP PUSH1 0x9 SLOAD PUSH1 0x40 MLOAD PUSH1 0x1 PUSH1 0x1 PUSH1 0xA0 SHL SUB SWAP1 SWAP2 AND SWAP1 DUP5 ISZERO PUSH2 0x8FC MUL SWAP1 DUP6 SWAP1 PUSH0 DUP2 DUP2 DUP2 DUP6 DUP9 DUP9 CALL SWAP4 POP POP POP POP ISZERO DUP1 ISZERO PUSH2 0x3261 JUMPI RETURNDATASIZE PUSH0 DUP1 RETURNDATACOPY RETURNDATASIZE PUSH0 REVERT JUMPDEST POP PUSH1 0x40 MLOAD DUP1 PUSH1 0x40 ADD PUSH1 0x40 MSTORE DUP1 DUP5 DUP7 PUSH2 0x3279 SWAP2 SWAP1 PUSH2 0x424C JUMP JUMPDEST DUP2 MSTORE TIMESTAMP PUSH1 0x20 SWAP2 DUP3 ADD DUP2 SWAP1 MSTORE PUSH1 0x7 SLOAD PUSH0 SWAP1 DUP2 MSTORE PUSH1 0x8 DUP4 MSTORE PUSH1 0x40 DUP1 DUP3 KECCAK256 DUP6 MLOAD DUP2 SSTORE SWAP5 DUP5 ADD MLOAD PUSH1 0x1 SWAP1 SWAP6 ADD SWAP5 SWAP1 SWAP5 SSTORE PUSH1 0xE DUP1 SLOAD DUP3 MSTORE PUSH1 0xC SWAP1 SWAP4 MSTORE SWAP3 DUP4 KECCAK256 SSTORE DUP1 SLOAD SWAP2 PUSH2 0x32C0 DUP4 PUSH2 0x439B JUMP JUMPDEST SWAP1 SWAP2 SSTORE POP POP PUSH1 0x7 DUP1 SLOAD SWAP1 PUSH0 PUSH2 0x32D4 DUP4 PUSH2 0x439B JUMP JUMPDEST SWAP1 SWAP2 SSTORE POP POP CALLER PUSH0 SWAP1 DUP2 MSTORE PUSH1 0x19 PUSH1 0x20 MSTORE PUSH1 0x40 DUP2 KECCAK256 DUP1 SLOAD SWAP2 PUSH2 0x32F3 DUP4 PUSH2 0x439B JUMP JUMPDEST SWAP1 SWAP2 SSTORE POP POP PUSH0 DUP7 DUP2 MSTORE PUSH1 0x14 PUSH1 0x20 SWAP1 DUP2 MSTORE PUSH1 0x40 DUP1 DUP4 KECCAK256 DUP1 SLOAD PUSH1 0x1 PUSH1 0x1 PUSH1 0xA0 SHL SUB SWAP1 DUP2 AND DUP6 MSTORE PUSH1 0x12 DUP5 MSTORE DUP3 DUP6 KECCAK256 PUSH1 0x1 SWAP1 SWAP3 ADD SLOAD DUP6 MSTORE SWAP1 DUP4 MSTORE DUP2 DUP5 KECCAK256 SLOAD AND DUP4 MSTORE PUSH1 0x1A SWAP1 SWAP2 MSTORE DUP2 KECCAK256 DUP1 SLOAD SWAP2 PUSH2 0x3343 DUP4 PUSH2 0x439B JUMP JUMPDEST SWAP1 SWAP2 SSTORE POP POP PUSH0 DUP7 DUP2 MSTORE PUSH1 0x14 PUSH1 0x20 MSTORE PUSH1 0x40 SWAP1 DUP2 SWAP1 KECCAK256 DUP1 SLOAD PUSH1 0x1 SWAP1 SWAP2 ADD SLOAD SWAP2 MLOAD PUSH4 0x23B872DD PUSH1 0xE0 SHL DUP2 MSTORE PUSH1 0x1 PUSH1 0x1 PUSH1 0xA0 SHL SUB SWAP1 SWAP2 AND SWAP2 PUSH4 0x23B872DD SWAP2 PUSH2 0x338E SWAP2 ADDRESS SWAP2 CALLER SWAP2 SWAP1 PUSH1 0x4 ADD PUSH2 0x43B3 JUMP JUMPDEST PUSH0 PUSH1 0x40 MLOAD DUP1 DUP4 SUB DUP2 PUSH0 DUP8 DUP1 EXTCODESIZE ISZERO DUP1 ISZERO PUSH2 0x33A5 JUMPI PUSH0 DUP1 REVERT JUMPDEST POP GAS CALL ISZERO DUP1 ISZERO PUSH2 0x33B7 JUMPI RETURNDATASIZE PUSH0 DUP1 RETURNDATACOPY RETURNDATASIZE PUSH0 REVERT JUMPDEST POP POP POP PUSH0 DUP8 DUP2 MSTORE PUSH1 0x14 PUSH1 0x20 SWAP1 DUP2 MSTORE PUSH1 0x40 SWAP2 DUP3 SWAP1 KECCAK256 PUSH1 0x1 ADD SLOAD DUP3 MLOAD SWAP1 DUP2 MSTORE CALLER SWAP2 DUP2 ADD SWAP2 SWAP1 SWAP2 MSTORE TIMESTAMP DUP2 DUP4 ADD MSTORE SWAP1 MLOAD PUSH32 0x3ED1528B0FDC7C5207C1BF935E34A667E13656B9ED165260C522BE0BC544F303 SWAP3 POP SWAP1 DUP2 SWAP1 SUB PUSH1 0x60 ADD SWAP1 LOG1 PUSH0 DUP7 DUP2 MSTORE PUSH1 0x14 PUSH1 0x20 SWAP1 DUP2 MSTORE PUSH1 0x40 DUP1 DUP4 KECCAK256 DUP1 SLOAD PUSH1 0x1 SWAP1 SWAP2 ADD SLOAD PUSH1 0x1 PUSH1 0x1 PUSH1 0xA0 SHL SUB SWAP2 DUP3 AND DUP1 DUP7 MSTORE PUSH1 0x12 DUP6 MSTORE DUP4 DUP7 KECCAK256 DUP3 DUP8 MSTORE SWAP1 SWAP5 MSTORE SWAP4 DUP3 SWAP1 KECCAK256 SLOAD SWAP2 MLOAD PUSH4 0x6E0CEE09 PUSH1 0xE0 SHL DUP2 MSTORE CALLER PUSH1 0x4 DUP3 ADD MSTORE PUSH1 0x24 DUP2 ADD SWAP5 SWAP1 SWAP5 MSTORE AND PUSH1 0x44 DUP4 ADD MSTORE SWAP1 PUSH4 0x6E0CEE09 SWAP1 PUSH1 0x64 ADD PUSH0 PUSH1 0x40 MLOAD DUP1 DUP4 SUB DUP2 PUSH0 DUP8 DUP1 EXTCODESIZE ISZERO DUP1 ISZERO PUSH2 0x3488 JUMPI PUSH0 DUP1 REVERT JUMPDEST POP GAS CALL ISZERO DUP1 ISZERO PUSH2 0x349A JUMPI RETURNDATASIZE PUSH0 DUP1 RETURNDATACOPY RETURNDATASIZE PUSH0 REVERT JUMPDEST POP POP POP PUSH0 DUP8 DUP2 MSTORE PUSH1 0x14 PUSH1 0x20 DUP2 DUP2 MSTORE PUSH1 0x40 DUP1 DUP5 KECCAK256 DUP1 SLOAD PUSH1 0x1 PUSH1 0x1 PUSH1 0xA0 SHL SUB SWAP1 DUP2 AND DUP7 MSTORE PUSH1 0x12 DUP5 MSTORE DUP3 DUP7 KECCAK256 PUSH1 0x1 DUP4 ADD DUP1 SLOAD DUP9 MSTORE SWAP1 DUP6 MSTORE DUP4 DUP8 KECCAK256 PUSH1 0x6 ADD DUP1 SLOAD PUSH1 0xFF NOT AND SWAP1 SSTORE SWAP6 DUP14 SWAP1 MSTORE SWAP4 SWAP1 SWAP3 MSTORE SWAP1 SLOAD SWAP3 SLOAD SWAP1 MLOAD PUSH4 0x130A8FDB PUSH1 0xE2 SHL DUP2 MSTORE PUSH1 0x4 DUP2 ADD SWAP2 SWAP1 SWAP2 MSTORE SWAP2 AND SWAP2 POP PUSH4 0x4C2A3F6C SWAP1 PUSH1 0x24 ADD PUSH0 PUSH1 0x40 MLOAD DUP1 DUP4 SUB DUP2 PUSH0 DUP8 DUP1 EXTCODESIZE ISZERO DUP1 ISZERO PUSH2 0x3520 JUMPI PUSH0 DUP1 REVERT JUMPDEST POP GAS CALL ISZERO DUP1 ISZERO PUSH2 0x3532 JUMPI RETURNDATASIZE PUSH0 DUP1 RETURNDATACOPY RETURNDATASIZE PUSH0 REVERT JUMPDEST POP POP POP POP PUSH1 0x14 PUSH0 PUSH2 0x3542 PUSH1 0x3 SLOAD SWAP1 JUMP JUMPDEST DUP2 MSTORE PUSH1 0x20 DUP1 DUP3 ADD SWAP3 SWAP1 SWAP3 MSTORE PUSH1 0x40 SWAP1 DUP2 ADD PUSH0 SWAP1 DUP2 KECCAK256 DUP10 DUP3 MSTORE PUSH1 0x14 SWAP1 SWAP4 MSTORE SWAP1 DUP2 KECCAK256 DUP3 SLOAD DUP2 SLOAD PUSH1 0x1 PUSH1 0x1 PUSH1 0xA0 SHL SUB NOT AND PUSH1 0x1 PUSH1 0x1 PUSH1 0xA0 SHL SUB SWAP1 SWAP2 AND OR DUP2 SSTORE PUSH1 0x1 SWAP3 DUP4 ADD SLOAD SWAP3 ADD SWAP2 SWAP1 SWAP2 SSTORE PUSH1 0x13 SWAP1 PUSH2 0x3595 PUSH1 0x3 SLOAD SWAP1 JUMP JUMPDEST DUP2 MSTORE PUSH1 0x20 DUP1 DUP3 ADD SWAP3 SWAP1 SWAP3 MSTORE PUSH1 0x40 SWAP1 DUP2 ADD PUSH0 SWAP1 DUP2 KECCAK256 SLOAD DUP10 DUP3 MSTORE PUSH1 0x13 DUP5 MSTORE DUP3 DUP3 KECCAK256 SSTORE PUSH1 0x16 SWAP1 SWAP3 MSTORE DUP2 KECCAK256 DUP2 SWAP1 SSTORE PUSH1 0x14 SWAP1 PUSH2 0x35CB PUSH1 0x3 SLOAD SWAP1 JUMP JUMPDEST DUP2 MSTORE PUSH1 0x20 DUP2 ADD SWAP2 SWAP1 SWAP2 MSTORE PUSH1 0x40 ADD PUSH0 SWAP1 DUP2 KECCAK256 DUP1 SLOAD PUSH1 0x1 PUSH1 0x1 PUSH1 0xA0 SHL SUB NOT AND DUP2 SSTORE PUSH1 0x1 ADD DUP2 SWAP1 SSTORE PUSH1 0x13 SWAP1 PUSH2 0x35FC PUSH1 0x3 SLOAD SWAP1 JUMP JUMPDEST DUP2 MSTORE PUSH1 0x20 ADD SWAP1 DUP2 MSTORE PUSH1 0x20 ADD PUSH0 KECCAK256 PUSH0 SWAP1 SSTORE PUSH2 0x3616 PUSH1 0x3 PUSH2 0x3915 JUMP JUMPDEST POP POP POP POP POP POP JUMP JUMPDEST PUSH0 DUP1 PUSH0 JUMPDEST PUSH1 0xE SLOAD DUP2 LT ISZERO PUSH2 0xE44 JUMPI PUSH0 DUP2 DUP2 MSTORE PUSH1 0xC PUSH1 0x20 MSTORE PUSH1 0x40 SWAP1 KECCAK256 SLOAD DUP6 GT DUP1 ISZERO SWAP1 PUSH2 0x3656 JUMPI POP PUSH0 DUP2 DUP2 MSTORE PUSH1 0xC PUSH1 0x20 MSTORE PUSH1 0x40 SWAP1 KECCAK256 SLOAD DUP5 LT ISZERO JUMPDEST ISZERO PUSH2 0x3669 JUMPI DUP2 PUSH2 0x3665 DUP2 PUSH2 0x439B JUMP JUMPDEST SWAP3 POP POP JUMPDEST PUSH1 0x1 ADD PUSH2 0x3622 JUMP JUMPDEST PUSH2 0x3679 PUSH2 0x38BE JUMP JUMPDEST PUSH0 DUP3 DUP2 MSTORE PUSH1 0x11 PUSH1 0x20 SWAP1 DUP2 MSTORE PUSH1 0x40 DUP1 DUP4 KECCAK256 DUP1 SLOAD PUSH1 0x1 PUSH1 0x1 PUSH1 0xA0 SHL SUB AND DUP5 MSTORE PUSH1 0x10 DUP4 MSTORE DUP2 DUP5 KECCAK256 PUSH1 0x1 SWAP1 SWAP2 ADD SLOAD DUP5 MSTORE SWAP1 SWAP2 MSTORE SWAP1 KECCAK256 PUSH1 0x6 ADD SLOAD PUSH1 0xFF AND PUSH2 0x36F5 JUMPI PUSH1 0x40 MLOAD PUSH3 0x461BCD PUSH1 0xE5 SHL DUP2 MSTORE PUSH1 0x20 PUSH1 0x4 DUP3 ADD MSTORE PUSH1 0x15 PUSH1 0x24 DUP3 ADD MSTORE PUSH21 0x506C65617365204C69737420466972737420212121 PUSH1 0x58 SHL PUSH1 0x44 DUP3 ADD MSTORE PUSH1 0x64 ADD PUSH2 0xB04 JUMP JUMPDEST PUSH0 DUP3 DUP2 MSTORE PUSH1 0x11 PUSH1 0x20 SWAP1 DUP2 MSTORE PUSH1 0x40 DUP1 DUP4 KECCAK256 DUP1 SLOAD PUSH1 0x1 PUSH1 0x1 PUSH1 0xA0 SHL SUB SWAP1 DUP2 AND DUP6 MSTORE PUSH1 0x10 DUP5 MSTORE DUP3 DUP6 KECCAK256 PUSH1 0x1 SWAP3 DUP4 ADD SLOAD DUP7 MSTORE SWAP1 SWAP4 MSTORE SWAP3 KECCAK256 SWAP1 SWAP2 ADD SLOAD AND CALLER EQ PUSH2 0x377B JUMPI PUSH1 0x40 MLOAD PUSH3 0x461BCD PUSH1 0xE5 SHL DUP2 MSTORE PUSH1 0x20 PUSH1 0x4 DUP3 ADD MSTORE PUSH1 0x1D PUSH1 0x24 DUP3 ADD MSTORE PUSH32 0x596F7520617265206E6F74206F776E6572206F662074686973204E4654000000 PUSH1 0x44 DUP3 ADD MSTORE PUSH1 0x64 ADD PUSH2 0xB04 JUMP JUMPDEST PUSH0 SWAP2 DUP3 MSTORE PUSH1 0x11 PUSH1 0x20 SWAP1 DUP2 MSTORE PUSH1 0x40 DUP1 DUP5 KECCAK256 DUP1 SLOAD PUSH1 0x1 PUSH1 0x1 PUSH1 0xA0 SHL SUB AND DUP6 MSTORE PUSH1 0x10 DUP4 MSTORE DUP2 DUP6 KECCAK256 PUSH1 0x1 SWAP2 DUP3 ADD SLOAD DUP7 MSTORE SWAP1 SWAP3 MSTORE DUP4 KECCAK256 PUSH1 0x3 ADD SWAP2 SWAP1 SWAP2 SSTORE SWAP1 SSTORE JUMP JUMPDEST PUSH2 0x37BF PUSH2 0x3864 JUMP JUMPDEST PUSH1 0x1 PUSH1 0x1 PUSH1 0xA0 SHL SUB DUP2 AND PUSH2 0x3824 JUMPI PUSH1 0x40 MLOAD PUSH3 0x461BCD PUSH1 0xE5 SHL DUP2 MSTORE PUSH1 0x20 PUSH1 0x4 DUP3 ADD MSTORE PUSH1 0x26 PUSH1 0x24 DUP3 ADD MSTORE PUSH32 0x4F776E61626C653A206E6577206F776E657220697320746865207A65726F2061 PUSH1 0x44 DUP3 ADD MSTORE PUSH6 0x646472657373 PUSH1 0xD0 SHL PUSH1 0x64 DUP3 ADD MSTORE PUSH1 0x84 ADD PUSH2 0xB04 JUMP JUMPDEST PUSH2 0x248A DUP2 PUSH2 0x396B JUMP JUMPDEST PUSH2 0x3835 PUSH2 0x3864 JUMP JUMPDEST PUSH1 0xA SSTORE JUMP JUMPDEST PUSH2 0x3842 PUSH2 0x3864 JUMP JUMPDEST PUSH1 0x6 DUP1 SLOAD PUSH1 0x1 PUSH1 0x1 PUSH1 0xA0 SHL SUB NOT AND PUSH1 0x1 PUSH1 0x1 PUSH1 0xA0 SHL SUB SWAP3 SWAP1 SWAP3 AND SWAP2 SWAP1 SWAP2 OR SWAP1 SSTORE JUMP JUMPDEST PUSH1 0x1 SLOAD PUSH1 0x1 PUSH1 0x1 PUSH1 0xA0 SHL SUB AND CALLER EQ PUSH2 0x25AE JUMPI PUSH1 0x40 MLOAD PUSH3 0x461BCD PUSH1 0xE5 SHL DUP2 MSTORE PUSH1 0x20 PUSH1 0x4 DUP3 ADD DUP2 SWAP1 MSTORE PUSH1 0x24 DUP3 ADD MSTORE PUSH32 0x4F776E61626C653A2063616C6C6572206973206E6F7420746865206F776E6572 PUSH1 0x44 DUP3 ADD MSTORE PUSH1 0x64 ADD PUSH2 0xB04 JUMP JUMPDEST PUSH1 0x2 PUSH0 SLOAD SUB PUSH2 0x390F JUMPI PUSH1 0x40 MLOAD PUSH3 0x461BCD PUSH1 0xE5 SHL DUP2 MSTORE PUSH1 0x20 PUSH1 0x4 DUP3 ADD MSTORE PUSH1 0x1F PUSH1 0x24 DUP3 ADD MSTORE PUSH32 0x5265656E7472616E637947756172643A207265656E7472616E742063616C6C00 PUSH1 0x44 DUP3 ADD MSTORE PUSH1 0x64 ADD PUSH2 0xB04 JUMP JUMPDEST PUSH1 0x2 PUSH0 SSTORE JUMP JUMPDEST DUP1 SLOAD DUP1 PUSH2 0x3964 JUMPI PUSH1 0x40 MLOAD PUSH3 0x461BCD PUSH1 0xE5 SHL DUP2 MSTORE PUSH1 0x20 PUSH1 0x4 DUP3 ADD MSTORE PUSH1 0x1B PUSH1 0x24 DUP3 ADD MSTORE PUSH32 0x436F756E7465723A2064656372656D656E74206F766572666C6F770000000000 PUSH1 0x44 DUP3 ADD MSTORE PUSH1 0x64 ADD PUSH2 0xB04 JUMP JUMPDEST PUSH0 NOT ADD SWAP1 SSTORE JUMP JUMPDEST PUSH1 0x1 DUP1 SLOAD PUSH1 0x1 PUSH1 0x1 PUSH1 0xA0 SHL SUB DUP4 DUP2 AND PUSH1 0x1 PUSH1 0x1 PUSH1 0xA0 SHL SUB NOT DUP4 AND DUP2 OR SWAP1 SWAP4 SSTORE PUSH1 0x40 MLOAD SWAP2 AND SWAP2 SWAP1 DUP3 SWAP1 PUSH32 0x8BE0079C531659141344CD1FD0A4F28419497F9722A3DAAFE3B4186F6B6457E0 SWAP1 PUSH0 SWAP1 LOG3 POP POP JUMP JUMPDEST PUSH1 0x40 MLOAD DUP1 PUSH1 0xA0 ADD PUSH1 0x40 MSTORE DUP1 PUSH0 PUSH1 0x1 PUSH1 0x1 PUSH1 0xA0 SHL SUB AND DUP2 MSTORE PUSH1 0x20 ADD PUSH1 0x60 DUP2 MSTORE PUSH1 0x20 ADD PUSH0 DUP2 MSTORE PUSH1 0x20 ADD PUSH0 DUP2 MSTORE PUSH1 0x20 ADD PUSH0 DUP2 MSTORE POP SWAP1 JUMP JUMPDEST PUSH1 0x40 DUP1 MLOAD PUSH2 0x180 DUP2 ADD SWAP1 SWAP2 MSTORE PUSH0 PUSH1 0x60 DUP3 ADD DUP2 DUP2 MSTORE PUSH1 0x80 DUP4 ADD DUP3 SWAP1 MSTORE PUSH1 0xA0 DUP4 ADD DUP3 SWAP1 MSTORE PUSH1 0xC0 DUP4 ADD DUP3 SWAP1 MSTORE PUSH1 0xE0 DUP4 ADD DUP3 SWAP1 MSTORE PUSH2 0x100 DUP4 ADD DUP3 SWAP1 MSTORE PUSH2 0x120 DUP4 ADD DUP3 SWAP1 MSTORE PUSH2 0x140 DUP4 ADD DUP3 SWAP1 MSTORE PUSH2 0x160 DUP4 ADD SWAP2 SWAP1 SWAP2 MSTORE DUP2 SWAP1 JUMPDEST DUP2 MSTORE PUSH1 0x20 ADD PUSH0 DUP2 MSTORE PUSH1 0x20 ADD PUSH1 0x60 DUP2 MSTORE POP SWAP1 JUMP JUMPDEST PUSH1 0x40 DUP1 MLOAD PUSH2 0x140 DUP2 ADD SWAP1 SWAP2 MSTORE PUSH0 PUSH1 0x60 DUP3 ADD DUP2 DUP2 MSTORE PUSH1 0x80 DUP4 ADD DUP3 SWAP1 MSTORE PUSH1 0xA0 DUP4 ADD DUP3 SWAP1 MSTORE PUSH1 0xC0 DUP4 ADD DUP3 SWAP1 MSTORE PUSH1 0xE0 DUP4 ADD DUP3 SWAP1 MSTORE PUSH2 0x100 DUP4 ADD DUP3 SWAP1 MSTORE PUSH2 0x120 DUP4 ADD SWAP2 SWAP1 SWAP2 MSTORE DUP2 SWAP1 PUSH2 0x3A44 JUMP JUMPDEST POP DUP1 SLOAD PUSH2 0x3AAB SWAP1 PUSH2 0x425F JUMP JUMPDEST PUSH0 DUP3 SSTORE DUP1 PUSH1 0x1F LT PUSH2 0x3ABA JUMPI POP POP JUMP JUMPDEST PUSH1 0x1F ADD PUSH1 0x20 SWAP1 DIV SWAP1 PUSH0 MSTORE PUSH1 0x20 PUSH0 KECCAK256 SWAP1 DUP2 ADD SWAP1 PUSH2 0x248A SWAP2 SWAP1 JUMPDEST DUP1 DUP3 GT ISZERO PUSH2 0x3AE5 JUMPI PUSH0 DUP2 SSTORE PUSH1 0x1 ADD PUSH2 0x3AD2 JUMP JUMPDEST POP SWAP1 JUMP JUMPDEST PUSH4 0x4E487B71 PUSH1 0xE0 SHL PUSH0 MSTORE PUSH1 0x41 PUSH1 0x4 MSTORE PUSH1 0x24 PUSH0 REVERT JUMPDEST PUSH1 0x40 MLOAD PUSH1 0xC0 DUP2 ADD PUSH1 0x1 PUSH1 0x1 PUSH1 0x40 SHL SUB DUP2 GT DUP3 DUP3 LT OR ISZERO PUSH2 0x3B1F JUMPI PUSH2 0x3B1F PUSH2 0x3AE9 JUMP JUMPDEST PUSH1 0x40 MSTORE SWAP1 JUMP JUMPDEST PUSH1 0x40 MLOAD PUSH1 0x1F DUP3 ADD PUSH1 0x1F NOT AND DUP2 ADD PUSH1 0x1 PUSH1 0x1 PUSH1 0x40 SHL SUB DUP2 GT DUP3 DUP3 LT OR ISZERO PUSH2 0x3B4D JUMPI PUSH2 0x3B4D PUSH2 0x3AE9 JUMP JUMPDEST PUSH1 0x40 MSTORE SWAP2 SWAP1 POP JUMP JUMPDEST PUSH0 PUSH1 0x1 PUSH1 0x1 PUSH1 0x40 SHL SUB DUP3 GT ISZERO PUSH2 0x3B6D JUMPI PUSH2 0x3B6D PUSH2 0x3AE9 JUMP JUMPDEST POP PUSH1 0x1F ADD PUSH1 0x1F NOT AND PUSH1 0x20 ADD SWAP1 JUMP JUMPDEST PUSH0 DUP1 PUSH0 PUSH1 0x60 DUP5 DUP7 SUB SLT ISZERO PUSH2 0x3B8D JUMPI PUSH0 DUP1 REVERT JUMPDEST DUP4 CALLDATALOAD SWAP3 POP PUSH1 0x20 DUP5 ADD CALLDATALOAD PUSH1 0x1 PUSH1 0x1 PUSH1 0x40 SHL SUB DUP2 GT ISZERO PUSH2 0x3BA9 JUMPI PUSH0 DUP1 REVERT JUMPDEST DUP5 ADD PUSH1 0x1F DUP2 ADD DUP7 SGT PUSH2 0x3BB9 JUMPI PUSH0 DUP1 REVERT JUMPDEST DUP1 CALLDATALOAD PUSH2 0x3BCC PUSH2 0x3BC7 DUP3 PUSH2 0x3B55 JUMP JUMPDEST PUSH2 0x3B25 JUMP JUMPDEST DUP2 DUP2 MSTORE DUP8 PUSH1 0x20 DUP4 DUP6 ADD ADD GT ISZERO PUSH2 0x3BE0 JUMPI PUSH0 DUP1 REVERT JUMPDEST DUP2 PUSH1 0x20 DUP5 ADD PUSH1 0x20 DUP4 ADD CALLDATACOPY PUSH0 PUSH1 0x20 DUP4 DUP4 ADD ADD MSTORE DUP1 SWAP5 POP POP POP POP PUSH1 0x40 DUP5 ADD CALLDATALOAD SWAP1 POP SWAP3 POP SWAP3 POP SWAP3 JUMP JUMPDEST PUSH1 0x1 PUSH1 0x1 PUSH1 0xA0 SHL SUB DUP2 AND DUP2 EQ PUSH2 0x248A JUMPI PUSH0 DUP1 REVERT JUMPDEST PUSH0 DUP1 PUSH1 0x40 DUP4 DUP6 SUB SLT ISZERO PUSH2 0x3C2B JUMPI PUSH0 DUP1 REVERT JUMPDEST DUP3 CALLDATALOAD PUSH2 0x3C36 DUP2 PUSH2 0x3C06 JUMP JUMPDEST SWAP5 PUSH1 0x20 SWAP4 SWAP1 SWAP4 ADD CALLDATALOAD SWAP4 POP POP POP JUMP JUMPDEST PUSH0 PUSH1 0x20 DUP3 DUP5 SUB SLT ISZERO PUSH2 0x3C54 JUMPI PUSH0 DUP1 REVERT JUMPDEST DUP2 CALLDATALOAD PUSH2 0x3C5F DUP2 PUSH2 0x3C06 JUMP JUMPDEST SWAP4 SWAP3 POP POP POP JUMP JUMPDEST PUSH0 PUSH1 0x20 DUP3 DUP5 SUB SLT ISZERO PUSH2 0x3C76 JUMPI PUSH0 DUP1 REVERT JUMPDEST POP CALLDATALOAD SWAP2 SWAP1 POP JUMP JUMPDEST PUSH0 DUP1 PUSH1 0x40 DUP4 DUP6 SUB SLT ISZERO PUSH2 0x3C8E JUMPI PUSH0 DUP1 REVERT JUMPDEST POP POP DUP1 CALLDATALOAD SWAP3 PUSH1 0x20 SWAP1 SWAP2 ADD CALLDATALOAD SWAP2 POP JUMP JUMPDEST PUSH0 DUP1 PUSH0 DUP1 PUSH0 PUSH1 0xA0 DUP7 DUP9 SUB SLT ISZERO PUSH2 0x3CB1 JUMPI PUSH0 DUP1 REVERT JUMPDEST DUP6 CALLDATALOAD PUSH2 0x3CBC DUP2 PUSH2 0x3C06 JUMP JUMPDEST SWAP5 POP PUSH1 0x20 DUP7 ADD CALLDATALOAD SWAP4 POP PUSH1 0x40 DUP7 ADD CALLDATALOAD SWAP3 POP PUSH1 0x60 DUP7 ADD CALLDATALOAD PUSH2 0x3CDA DUP2 PUSH2 0x3C06 JUMP JUMPDEST SWAP5 SWAP8 SWAP4 SWAP7 POP SWAP2 SWAP5 PUSH1 0x80 ADD CALLDATALOAD SWAP3 SWAP2 POP POP JUMP JUMPDEST PUSH0 DUP1 PUSH0 PUSH1 0x60 DUP5 DUP7 SUB SLT ISZERO PUSH2 0x3CFD JUMPI PUSH0 DUP1 REVERT JUMPDEST DUP4 CALLDATALOAD PUSH2 0x3D08 DUP2 PUSH2 0x3C06 JUMP JUMPDEST SWAP3 POP PUSH1 0x20 DUP5 ADD CALLDATALOAD SWAP2 POP PUSH1 0x40 DUP5 ADD CALLDATALOAD PUSH2 0x3D1F DUP2 PUSH2 0x3C06 JUMP JUMPDEST DUP1 SWAP2 POP POP SWAP3 POP SWAP3 POP SWAP3 JUMP JUMPDEST PUSH0 PUSH1 0x1 PUSH1 0x1 PUSH1 0x40 SHL SUB DUP3 GT ISZERO PUSH2 0x3D42 JUMPI PUSH2 0x3D42 PUSH2 0x3AE9 JUMP JUMPDEST POP PUSH1 0x5 SHL PUSH1 0x20 ADD SWAP1 JUMP JUMPDEST PUSH0 DUP1 PUSH1 0x40 DUP4 DUP6 SUB SLT ISZERO PUSH2 0x3D5D JUMPI PUSH0 DUP1 REVERT JUMPDEST DUP3 CALLDATALOAD PUSH2 0x3D68 DUP2 PUSH2 0x3C06 JUMP JUMPDEST SWAP2 POP PUSH1 0x20 DUP4 DUP2 ADD CALLDATALOAD PUSH1 0x1 PUSH1 0x1 PUSH1 0x40 SHL SUB DUP2 GT ISZERO PUSH2 0x3D83 JUMPI PUSH0 DUP1 REVERT JUMPDEST DUP5 ADD PUSH1 0x1F DUP2 ADD DUP7 SGT PUSH2 0x3D93 JUMPI PUSH0 DUP1 REVERT JUMPDEST DUP1 CALLDATALOAD PUSH2 0x3DA1 PUSH2 0x3BC7 DUP3 PUSH2 0x3D2A JUMP JUMPDEST DUP2 DUP2 MSTORE PUSH1 0x5 SWAP2 SWAP1 SWAP2 SHL DUP3 ADD DUP4 ADD SWAP1 DUP4 DUP2 ADD SWAP1 DUP9 DUP4 GT ISZERO PUSH2 0x3DBF JUMPI PUSH0 DUP1 REVERT JUMPDEST SWAP3 DUP5 ADD SWAP3 JUMPDEST DUP3 DUP5 LT ISZERO PUSH2 0x3DE6 JUMPI DUP4 CALLDATALOAD PUSH2 0x3DD7 DUP2 PUSH2 0x3C06 JUMP JUMPDEST DUP3 MSTORE SWAP3 DUP5 ADD SWAP3 SWAP1 DUP5 ADD SWAP1 PUSH2 0x3DC4 JUMP JUMPDEST DUP1 SWAP6 POP POP POP POP POP POP SWAP3 POP SWAP3 SWAP1 POP JUMP JUMPDEST PUSH0 JUMPDEST DUP4 DUP2 LT ISZERO PUSH2 0x3E0F JUMPI DUP2 DUP2 ADD MLOAD DUP4 DUP3 ADD MSTORE PUSH1 0x20 ADD PUSH2 0x3DF7 JUMP JUMPDEST POP POP PUSH0 SWAP2 ADD MSTORE JUMP JUMPDEST PUSH0 DUP2 MLOAD DUP1 DUP5 MSTORE PUSH2 0x3E2E DUP2 PUSH1 0x20 DUP7 ADD PUSH1 0x20 DUP7 ADD PUSH2 0x3DF5 JUMP JUMPDEST PUSH1 0x1F ADD PUSH1 0x1F NOT AND SWAP3 SWAP1 SWAP3 ADD PUSH1 0x20 ADD SWAP3 SWAP2 POP POP JUMP JUMPDEST PUSH0 PUSH1 0x20 DUP1 DUP4 ADD DUP2 DUP5 MSTORE DUP1 DUP6 MLOAD DUP1 DUP4 MSTORE PUSH1 0x40 SWAP3 POP PUSH1 0x40 DUP7 ADD SWAP2 POP PUSH1 0x40 DUP2 PUSH1 0x5 SHL DUP8 ADD ADD DUP5 DUP9 ADD PUSH0 JUMPDEST DUP4 DUP2 LT ISZERO PUSH2 0x3F22 JUMPI DUP9 DUP4 SUB PUSH1 0x3F NOT ADD DUP6 MSTORE DUP2 MLOAD DUP1 MLOAD DUP1 DUP6 MSTORE SWAP1 DUP9 ADD SWAP1 DUP9 DUP6 ADD SWAP1 PUSH1 0x5 DUP2 SWAP1 SHL DUP7 ADD DUP11 ADD PUSH0 JUMPDEST DUP3 DUP2 LT ISZERO PUSH2 0x3F0C JUMPI DUP8 DUP3 SUB PUSH1 0x1F NOT ADD DUP5 MSTORE DUP5 MLOAD DUP1 MLOAD DUP4 MSTORE DUP13 DUP2 ADD MLOAD DUP14 DUP5 ADD MSTORE DUP12 DUP2 ADD MLOAD PUSH1 0x1 PUSH1 0x1 PUSH1 0xA0 SHL SUB SWAP1 DUP2 AND DUP14 DUP6 ADD MSTORE PUSH1 0x60 DUP1 DUP4 ADD MLOAD SWAP1 SWAP2 AND SWAP1 DUP5 ADD MSTORE PUSH1 0x80 DUP1 DUP3 ADD MLOAD SWAP1 DUP5 ADD MSTORE PUSH1 0xA0 SWAP1 DUP2 ADD MLOAD PUSH1 0xC0 SWAP2 DUP5 ADD DUP3 SWAP1 MSTORE SWAP1 PUSH2 0x3EF8 DUP2 DUP6 ADD DUP4 PUSH2 0x3E17 JUMP JUMPDEST SWAP7 DUP15 ADD SWAP7 SWAP6 DUP15 ADD SWAP6 SWAP4 POP POP POP PUSH1 0x1 ADD PUSH2 0x3E94 JUMP JUMPDEST POP SWAP8 DUP11 ADD SWAP8 SWAP6 POP POP POP SWAP2 DUP8 ADD SWAP2 POP PUSH1 0x1 ADD PUSH2 0x3E69 JUMP JUMPDEST POP SWAP1 SWAP9 SWAP8 POP POP POP POP POP POP POP POP JUMP JUMPDEST PUSH0 PUSH1 0x20 DUP1 DUP4 ADD DUP2 DUP5 MSTORE DUP1 DUP6 MLOAD DUP1 DUP4 MSTORE PUSH1 0x40 SWAP3 POP PUSH1 0x40 DUP7 ADD SWAP2 POP PUSH1 0x40 DUP2 PUSH1 0x5 SHL DUP8 ADD ADD DUP5 DUP9 ADD PUSH0 JUMPDEST DUP4 DUP2 LT ISZERO PUSH2 0x3F22 JUMPI DUP9 DUP4 SUB PUSH1 0x3F NOT ADD DUP6 MSTORE DUP2 MLOAD DUP1 MLOAD PUSH1 0x1 PUSH1 0x1 PUSH1 0xA0 SHL SUB AND DUP5 MSTORE DUP8 DUP2 ADD MLOAD PUSH1 0xA0 DUP10 DUP7 ADD DUP2 SWAP1 MSTORE SWAP1 PUSH2 0x3F90 DUP3 DUP8 ADD DUP3 PUSH2 0x3E17 JUMP JUMPDEST DUP4 DUP11 ADD MLOAD DUP8 DUP12 ADD MSTORE PUSH1 0x60 DUP1 DUP6 ADD MLOAD SWAP1 DUP9 ADD MSTORE PUSH1 0x80 SWAP4 DUP5 ADD MLOAD SWAP4 SWAP1 SWAP7 ADD SWAP3 SWAP1 SWAP3 MSTORE POP POP SWAP4 DUP7 ADD SWAP4 SWAP1 DUP7 ADD SWAP1 PUSH1 0x1 ADD PUSH2 0x3F57 JUMP JUMPDEST PUSH0 DUP3 DUP3 MLOAD DUP1 DUP6 MSTORE PUSH1 0x20 DUP1 DUP7 ADD SWAP6 POP DUP1 DUP3 PUSH1 0x5 SHL DUP5 ADD ADD DUP2 DUP7 ADD PUSH0 JUMPDEST DUP5 DUP2 LT ISZERO PUSH2 0x407C JUMPI DUP6 DUP4 SUB PUSH1 0x1F NOT ADD DUP10 MSTORE DUP2 MLOAD DUP1 MLOAD DUP1 MLOAD PUSH1 0x1 PUSH1 0x1 PUSH1 0xA0 SHL SUB SWAP1 DUP2 AND DUP7 MSTORE DUP7 DUP3 ADD MLOAD DUP8 DUP8 ADD MSTORE PUSH1 0x40 DUP1 DUP4 ADD MLOAD DUP2 DUP9 ADD MSTORE PUSH1 0x60 DUP1 DUP5 ADD MLOAD SWAP1 SWAP3 AND SWAP2 DUP8 ADD SWAP2 SWAP1 SWAP2 MSTORE PUSH1 0x80 DUP1 DUP4 ADD MLOAD SWAP1 DUP8 ADD MSTORE PUSH1 0xA0 DUP1 DUP4 ADD MLOAD SWAP1 DUP8 ADD MSTORE PUSH1 0xC0 SWAP2 DUP3 ADD MLOAD ISZERO ISZERO SWAP2 DUP7 ADD SWAP2 SWAP1 SWAP2 MSTORE DUP6 DUP3 ADD MLOAD PUSH1 0xE0 DUP7 ADD MSTORE ADD MLOAD PUSH2 0x120 PUSH2 0x100 DUP6 ADD DUP2 SWAP1 MSTORE PUSH2 0x4068 DUP2 DUP7 ADD DUP4 PUSH2 0x3E17 JUMP JUMPDEST SWAP11 DUP7 ADD SWAP11 SWAP5 POP POP POP SWAP1 DUP4 ADD SWAP1 PUSH1 0x1 ADD PUSH2 0x3FDD JUMP JUMPDEST POP SWAP1 SWAP8 SWAP7 POP POP POP POP POP POP POP JUMP JUMPDEST PUSH0 PUSH1 0x40 DUP1 DUP4 ADD PUSH1 0x40 DUP5 MSTORE DUP1 DUP7 MLOAD DUP1 DUP4 MSTORE PUSH1 0x60 SWAP3 POP PUSH1 0x60 DUP7 ADD SWAP2 POP PUSH1 0x60 DUP2 PUSH1 0x5 SHL DUP8 ADD ADD PUSH1 0x20 DUP1 DUP11 ADD PUSH0 JUMPDEST DUP5 DUP2 LT ISZERO PUSH2 0x4161 JUMPI DUP10 DUP5 SUB PUSH1 0x5F NOT ADD DUP7 MSTORE DUP2 MLOAD DUP1 MLOAD DUP1 MLOAD DUP7 MSTORE DUP5 DUP2 ADD MLOAD PUSH1 0x1 PUSH1 0x1 PUSH1 0xA0 SHL SUB SWAP1 DUP2 AND DUP7 DUP9 ADD MSTORE DUP11 DUP3 ADD MLOAD DUP2 AND DUP12 DUP9 ADD MSTORE DUP10 DUP3 ADD MLOAD DUP11 DUP9 ADD MSTORE PUSH1 0x80 DUP1 DUP4 ADD MLOAD SWAP1 DUP9 ADD MSTORE PUSH1 0xA0 DUP1 DUP4 ADD MLOAD SWAP1 DUP9 ADD MSTORE PUSH1 0xC0 DUP1 DUP4 ADD MLOAD ISZERO ISZERO SWAP1 DUP9 ADD MSTORE PUSH1 0xE0 DUP1 DUP4 ADD MLOAD SWAP1 SWAP2 AND SWAP1 DUP8 ADD MSTORE PUSH2 0x100 SWAP1 DUP2 ADD MLOAD SWAP1 DUP7 ADD MSTORE DUP4 DUP2 ADD MLOAD PUSH2 0x120 DUP7 ADD MSTORE DUP9 ADD MLOAD PUSH2 0x160 PUSH2 0x140 DUP7 ADD DUP2 SWAP1 MSTORE PUSH2 0x414D DUP2 DUP8 ADD DUP4 PUSH2 0x3E17 JUMP JUMPDEST SWAP8 DUP6 ADD SWAP8 SWAP6 POP POP POP SWAP1 DUP3 ADD SWAP1 PUSH1 0x1 ADD PUSH2 0x40B3 JUMP JUMPDEST POP POP DUP8 DUP3 SUB SWAP1 DUP9 ADD MSTORE PUSH2 0x4174 DUP2 DUP10 PUSH2 0x3FC2 JUMP JUMPDEST SWAP10 SWAP9 POP POP POP POP POP POP POP POP POP JUMP JUMPDEST PUSH0 DUP1 PUSH0 PUSH1 0x60 DUP5 DUP7 SUB SLT ISZERO PUSH2 0x4193 JUMPI PUSH0 DUP1 REVERT JUMPDEST DUP4 CALLDATALOAD PUSH2 0x419E DUP2 PUSH2 0x3C06 JUMP JUMPDEST SWAP6 PUSH1 0x20 DUP6 ADD CALLDATALOAD SWAP6 POP PUSH1 0x40 SWAP1 SWAP5 ADD CALLDATALOAD SWAP4 SWAP3 POP POP POP JUMP JUMPDEST PUSH1 0x1 PUSH1 0x1 PUSH1 0xA0 SHL SUB DUP7 AND DUP2 MSTORE PUSH1 0xA0 PUSH1 0x20 DUP3 ADD DUP2 SWAP1 MSTORE PUSH0 SWAP1 PUSH2 0x41D6 SWAP1 DUP4 ADD DUP8 PUSH2 0x3E17 JUMP JUMPDEST PUSH1 0x40 DUP4 ADD SWAP6 SWAP1 SWAP6 MSTORE POP PUSH1 0x60 DUP2 ADD SWAP3 SWAP1 SWAP3 MSTORE PUSH1 0x80 SWAP1 SWAP2 ADD MSTORE SWAP3 SWAP2 POP POP JUMP JUMPDEST PUSH0 DUP1 PUSH0 DUP1 PUSH1 0x80 DUP6 DUP8 SUB SLT ISZERO PUSH2 0x4206 JUMPI PUSH0 DUP1 REVERT JUMPDEST DUP5 CALLDATALOAD PUSH2 0x4211 DUP2 PUSH2 0x3C06 JUMP JUMPDEST SWAP4 POP PUSH1 0x20 DUP6 ADD CALLDATALOAD SWAP3 POP PUSH1 0x40 DUP6 ADD CALLDATALOAD PUSH2 0x4228 DUP2 PUSH2 0x3C06 JUMP JUMPDEST SWAP4 SWAP7 SWAP3 SWAP6 POP SWAP3 SWAP4 PUSH1 0x60 ADD CALLDATALOAD SWAP3 POP POP JUMP JUMPDEST PUSH4 0x4E487B71 PUSH1 0xE0 SHL PUSH0 MSTORE PUSH1 0x11 PUSH1 0x4 MSTORE PUSH1 0x24 PUSH0 REVERT JUMPDEST DUP1 DUP3 ADD DUP1 DUP3 GT ISZERO PUSH2 0xE48 JUMPI PUSH2 0xE48 PUSH2 0x4238 JUMP JUMPDEST PUSH1 0x1 DUP2 DUP2 SHR SWAP1 DUP3 AND DUP1 PUSH2 0x4273 JUMPI PUSH1 0x7F DUP3 AND SWAP2 POP JUMPDEST PUSH1 0x20 DUP3 LT DUP2 SUB PUSH2 0x4291 JUMPI PUSH4 0x4E487B71 PUSH1 0xE0 SHL PUSH0 MSTORE PUSH1 0x22 PUSH1 0x4 MSTORE PUSH1 0x24 PUSH0 REVERT JUMPDEST POP SWAP2 SWAP1 POP JUMP JUMPDEST PUSH1 0x1F DUP3 GT ISZERO PUSH2 0x42DB JUMPI DUP1 PUSH0 MSTORE PUSH1 0x20 PUSH0 KECCAK256 PUSH1 0x1F DUP5 ADD PUSH1 0x5 SHR DUP2 ADD PUSH1 0x20 DUP6 LT ISZERO PUSH2 0x42BC JUMPI POP DUP1 JUMPDEST PUSH1 0x1F DUP5 ADD PUSH1 0x5 SHR DUP3 ADD SWAP2 POP JUMPDEST DUP2 DUP2 LT ISZERO PUSH2 0x118F JUMPI PUSH0 DUP2 SSTORE PUSH1 0x1 ADD PUSH2 0x42C8 JUMP JUMPDEST POP POP POP JUMP JUMPDEST DUP2 MLOAD PUSH1 0x1 PUSH1 0x1 PUSH1 0x40 SHL SUB DUP2 GT ISZERO PUSH2 0x42F9 JUMPI PUSH2 0x42F9 PUSH2 0x3AE9 JUMP JUMPDEST PUSH2 0x430D DUP2 PUSH2 0x4307 DUP5 SLOAD PUSH2 0x425F JUMP JUMPDEST DUP5 PUSH2 0x4297 JUMP JUMPDEST PUSH1 0x20 DUP1 PUSH1 0x1F DUP4 GT PUSH1 0x1 DUP2 EQ PUSH2 0x4340 JUMPI PUSH0 DUP5 ISZERO PUSH2 0x4329 JUMPI POP DUP6 DUP4 ADD MLOAD JUMPDEST PUSH0 NOT PUSH1 0x3 DUP7 SWAP1 SHL SHR NOT AND PUSH1 0x1 DUP6 SWAP1 SHL OR DUP6 SSTORE PUSH2 0x3616 JUMP JUMPDEST PUSH0 DUP6 DUP2 MSTORE PUSH1 0x20 DUP2 KECCAK256 PUSH1 0x1F NOT DUP7 AND SWAP2 JUMPDEST DUP3 DUP2 LT ISZERO PUSH2 0x436E JUMPI DUP9 DUP7 ADD MLOAD DUP3 SSTORE SWAP5 DUP5 ADD SWAP5 PUSH1 0x1 SWAP1 SWAP2 ADD SWAP1 DUP5 ADD PUSH2 0x434F JUMP JUMPDEST POP DUP6 DUP3 LT ISZERO PUSH2 0x438B JUMPI DUP8 DUP6 ADD MLOAD PUSH0 NOT PUSH1 0x3 DUP9 SWAP1 SHL PUSH1 0xF8 AND SHR NOT AND DUP2 SSTORE JUMPDEST POP POP POP POP POP PUSH1 0x1 SWAP1 DUP2 SHL ADD SWAP1 SSTORE POP JUMP JUMPDEST PUSH0 PUSH1 0x1 DUP3 ADD PUSH2 0x43AC JUMPI PUSH2 0x43AC PUSH2 0x4238 JUMP JUMPDEST POP PUSH1 0x1 ADD SWAP1 JUMP JUMPDEST PUSH1 0x1 PUSH1 0x1 PUSH1 0xA0 SHL SUB SWAP4 DUP5 AND DUP2 MSTORE SWAP2 SWAP1 SWAP3 AND PUSH1 0x20 DUP3 ADD MSTORE PUSH1 0x40 DUP2 ADD SWAP2 SWAP1 SWAP2 MSTORE PUSH1 0x60 ADD SWAP1 JUMP JUMPDEST PUSH4 0x4E487B71 PUSH1 0xE0 SHL PUSH0 MSTORE PUSH1 0x32 PUSH1 0x4 MSTORE PUSH1 0x24 PUSH0 REVERT JUMPDEST PUSH0 DUP3 PUSH1 0x1F DUP4 ADD SLT PUSH2 0x43FA JUMPI PUSH0 DUP1 REVERT JUMPDEST DUP2 MLOAD PUSH2 0x4408 PUSH2 0x3BC7 DUP3 PUSH2 0x3B55 JUMP JUMPDEST DUP2 DUP2 MSTORE DUP5 PUSH1 0x20 DUP4 DUP7 ADD ADD GT ISZERO PUSH2 0x441C JUMPI PUSH0 DUP1 REVERT JUMPDEST PUSH2 0x442D DUP3 PUSH1 0x20 DUP4 ADD PUSH1 0x20 DUP8 ADD PUSH2 0x3DF5 JUMP JUMPDEST SWAP5 SWAP4 POP POP POP POP JUMP JUMPDEST PUSH0 PUSH1 0x20 DUP1 DUP4 DUP6 SUB SLT ISZERO PUSH2 0x4446 JUMPI PUSH0 DUP1 REVERT JUMPDEST DUP3 MLOAD PUSH1 0x1 PUSH1 0x1 PUSH1 0x40 SHL SUB DUP1 DUP3 GT ISZERO PUSH2 0x445C JUMPI PUSH0 DUP1 REVERT JUMPDEST DUP2 DUP6 ADD SWAP2 POP DUP6 PUSH1 0x1F DUP4 ADD SLT PUSH2 0x446F JUMPI PUSH0 DUP1 REVERT JUMPDEST DUP2 MLOAD PUSH2 0x447D PUSH2 0x3BC7 DUP3 PUSH2 0x3D2A JUMP JUMPDEST DUP2 DUP2 MSTORE PUSH1 0x5 SWAP2 SWAP1 SWAP2 SHL DUP4 ADD DUP5 ADD SWAP1 DUP5 DUP2 ADD SWAP1 DUP9 DUP4 GT ISZERO PUSH2 0x449B JUMPI PUSH0 DUP1 REVERT JUMPDEST DUP6 DUP6 ADD JUMPDEST DUP4 DUP2 LT ISZERO PUSH2 0x454A JUMPI DUP1 MLOAD DUP6 DUP2 GT ISZERO PUSH2 0x44B5 JUMPI PUSH0 DUP1 REVERT JUMPDEST DUP7 ADD PUSH1 0xC0 DUP2 DUP13 SUB PUSH1 0x1F NOT ADD DUP2 SGT ISZERO PUSH2 0x44CB JUMPI PUSH0 DUP1 REVERT JUMPDEST PUSH2 0x44D3 PUSH2 0x3AFD JUMP JUMPDEST DUP10 DUP4 ADD MLOAD DUP2 MSTORE PUSH1 0x40 DUP1 DUP5 ADD MLOAD DUP12 DUP4 ADD MSTORE PUSH1 0x60 DUP1 DUP6 ADD MLOAD PUSH2 0x44F2 DUP2 PUSH2 0x3C06 JUMP JUMPDEST DUP1 DUP4 DUP6 ADD MSTORE POP PUSH1 0x80 SWAP2 POP DUP2 DUP6 ADD MLOAD PUSH2 0x4509 DUP2 PUSH2 0x3C06 JUMP JUMPDEST SWAP1 DUP4 ADD MSTORE PUSH1 0xA0 DUP5 DUP2 ADD MLOAD DUP3 DUP5 ADD MSTORE SWAP3 DUP5 ADD MLOAD SWAP3 DUP10 DUP5 GT ISZERO PUSH2 0x4528 JUMPI PUSH0 DUP1 REVERT JUMPDEST PUSH2 0x4536 DUP16 DUP14 DUP7 DUP9 ADD ADD PUSH2 0x43EB JUMP JUMPDEST SWAP1 DUP4 ADD MSTORE POP DUP6 MSTORE POP POP SWAP2 DUP7 ADD SWAP2 DUP7 ADD PUSH2 0x449F JUMP JUMPDEST POP SWAP9 SWAP8 POP POP POP POP POP POP POP POP JUMP JUMPDEST DUP1 DUP3 MUL DUP2 ISZERO DUP3 DUP3 DIV DUP5 EQ OR PUSH2 0xE48 JUMPI PUSH2 0xE48 PUSH2 0x4238 JUMP JUMPDEST PUSH0 DUP3 PUSH2 0x4588 JUMPI PUSH4 0x4E487B71 PUSH1 0xE0 SHL PUSH0 MSTORE PUSH1 0x12 PUSH1 0x4 MSTORE PUSH1 0x24 PUSH0 REVERT JUMPDEST POP DIV SWAP1 JUMP JUMPDEST DUP2 DUP2 SUB DUP2 DUP2 GT ISZERO PUSH2 0xE48 JUMPI PUSH2 0xE48 PUSH2 0x4238 JUMP JUMPDEST PUSH0 PUSH1 0x20 DUP3 DUP5 SUB SLT ISZERO PUSH2 0x45B0 JUMPI PUSH0 DUP1 REVERT JUMPDEST DUP2 MLOAD PUSH1 0x1 PUSH1 0x1 PUSH1 0x40 SHL SUB DUP2 GT ISZERO PUSH2 0x45C5 JUMPI PUSH0 DUP1 REVERT JUMPDEST PUSH2 0x442D DUP5 DUP3 DUP6 ADD PUSH2 0x43EB JUMP JUMPDEST PUSH0 DUP2 PUSH2 0x45DF JUMPI PUSH2 0x45DF PUSH2 0x4238 JUMP JUMPDEST POP PUSH0 NOT ADD SWAP1 JUMP INVALID LOG2 PUSH5 0x6970667358 0x22 SLT KECCAK256 PUSH4 0x4521FD63 0x4C SMOD 0xF6 0x25 SWAP1 PUSH21 0xC85411A4576302A10048DEEDFE9B34206038FBD065 PUSH5 0x736F6C6343 STOP ADDMOD AND STOP CALLER "
		},
		"gasEstimates": {
			"creation": {
				"codeDepositCost": "3589600",
				"executionCost": "infinite",
				"totalCost": "infinite"
			},
			"external": {
				"AuctionOfferList(address,uint256,uint256,address,uint256)": "infinite",
				"Bidding(address,uint256,uint256)": "infinite",
				"BiddingCount(address,uint256,address,uint256)": "infinite",
				"CancelListForSale(uint256)": "infinite",
				"ClaimNFT(uint256)": "infinite",
				"Commission_W_R_T(uint256,uint256)": "infinite",
				"ListNft(address,uint256,uint256,address,uint256)": "infinite",
				"NftAuction(address,uint256)": "15546",
				"NftOffers(uint256,string,uint256)": "infinite",
				"Sale_W_R_T(uint256,uint256)": "infinite",
				"Sales(uint256)": "2547",
				"SelectedUser(uint256)": "2481",
				"Volume(uint256)": "4664",
				"Volume_W_R_T(uint256,uint256)": "infinite",
				"_idToNFT(address,uint256)": "17761",
				"_nftCount()": "2386",
				"auctionListCount(uint256)": "4755",
				"buyNft(uint256,uint256)": "infinite",
				"buyerFee()": "2381",
				"buyerFeePerAge()": "2361",
				"cancelOfferList(uint256)": "infinite",
				"cancelOfferPrice(uint256)": "infinite",
				"commission(uint256)": "4687",
				"commissionCount()": "2340",
				"editListForSale(uint256,uint256)": "86339",
				"getAllListedNfts()": "infinite",
				"getBiddingHistory(uint256)": "infinite",
				"getNFTDetail(address,address[])": "infinite",
				"listCount(uint256)": "4667",
				"nftAuctionCount()": "2408",
				"owner()": "2397",
				"renounceOwnership()": "infinite",
				"selectUser(uint256,uint256)": "29157",
				"sellerFee()": "2380",
				"sellerFeePerAge()": "2427",
				"setBuyerFee(uint256)": "24618",
				"setBuyerFeeAddress(address)": "26881",
				"setSellerFee(uint256)": "24621",
				"setSellerFeeAddress(address)": "26818",
				"totalSales()": "2383",
				"totalVolume()": "2361",
				"transferOwnership(address)": "infinite",
				"userBiddingCount(address,uint256,address)": "infinite",
				"userBidsCount(uint256)": "2547",
				"userBuyRecord(address)": "2644",
				"userSoldRecord(address)": "2620"
			}
		},
		"methodIdentifiers": {
			"AuctionOfferList(address,uint256,uint256,address,uint256)": "456005c8",
			"Bidding(address,uint256,uint256)": "b23adf20",
			"BiddingCount(address,uint256,address,uint256)": "b7d41e22",
			"CancelListForSale(uint256)": "5814d593",
			"ClaimNFT(uint256)": "d80e880c",
			"Commission_W_R_T(uint256,uint256)": "5902f0d7",
			"ListNft(address,uint256,uint256,address,uint256)": "210d135e",
			"NftAuction(address,uint256)": "0e260e86",
			"NftOffers(uint256,string,uint256)": "049279f2",
			"Sale_W_R_T(uint256,uint256)": "db922459",
			"Sales(uint256)": "3529280b",
			"SelectedUser(uint256)": "6fd3e1cd",
			"Volume(uint256)": "752cd654",
			"Volume_W_R_T(uint256,uint256)": "20092e04",
			"_idToNFT(address,uint256)": "2791a4d0",
			"_nftCount()": "d6cbb202",
			"auctionListCount(uint256)": "d84c0fd3",
			"buyNft(uint256,uint256)": "556f8084",
			"buyerFee()": "5de6c42f",
			"buyerFeePerAge()": "cc76bd70",
			"cancelOfferList(uint256)": "9259d385",
			"cancelOfferPrice(uint256)": "c47c4deb",
			"commission(uint256)": "1065cf73",
			"commissionCount()": "408ce41e",
			"editListForSale(uint256,uint256)": "ed1d0b8f",
			"getAllListedNfts()": "95ce4a3b",
			"getBiddingHistory(uint256)": "4aa45e30",
			"getNFTDetail(address,address[])": "39b7e971",
			"listCount(uint256)": "8d02f792",
			"nftAuctionCount()": "6617b35d",
			"owner()": "8da5cb5b",
			"renounceOwnership()": "715018a6",
			"selectUser(uint256,uint256)": "6dde80f1",
			"sellerFee()": "e1f3d55a",
			"sellerFeePerAge()": "6c7e1dd0",
			"setBuyerFee(uint256)": "fa7da19d",
			"setBuyerFeeAddress(address)": "fc05b353",
			"setSellerFee(uint256)": "1bfee121",
			"setSellerFeeAddress(address)": "10390006",
			"totalSales()": "6605ff66",
			"totalVolume()": "5f81a57c",
			"transferOwnership(address)": "f2fde38b",
			"userBiddingCount(address,uint256,address)": "369136bd",
			"userBidsCount(uint256)": "7df1ba45",
			"userBuyRecord(address)": "8ca9f621",
			"userSoldRecord(address)": "f5ca15cb"
		}
	},
	"abi": [
		{
			"inputs": [
				{
					"internalType": "address",
					"name": "_buyer",
					"type": "address"
				},
				{
					"internalType": "address",
					"name": "_seller",
					"type": "address"
				},
				{
					"internalType": "uint256",
					"name": "_buyerFeePerAge",
					"type": "uint256"
				},
				{
					"internalType": "uint256",
					"name": "_sellerFeePerAge",
					"type": "uint256"
				}
			],
			"stateMutability": "nonpayable",
			"type": "constructor"
		},
		{
			"anonymous": false,
			"inputs": [
				{
					"indexed": false,
					"internalType": "uint256",
					"name": "tokenId",
					"type": "uint256"
				},
				{
					"indexed": false,
					"internalType": "address",
					"name": "buyer",
					"type": "address"
				},
				{
					"indexed": false,
					"internalType": "uint256",
					"name": "ClaimTime",
					"type": "uint256"
				}
			],
			"name": "Claim",
			"type": "event"
		},
		{
			"anonymous": false,
			"inputs": [
				{
					"indexed": false,
					"internalType": "address",
					"name": "ArtistAddress",
					"type": "address"
				},
				{
					"indexed": false,
					"internalType": "uint256",
					"name": "ArtistFee",
					"type": "uint256"
				}
			],
			"name": "Fee",
			"type": "event"
		},
		{
			"anonymous": false,
			"inputs": [
				{
					"indexed": false,
					"internalType": "uint256",
					"name": "tokenId",
					"type": "uint256"
				},
				{
					"indexed": false,
					"internalType": "address",
					"name": "seller",
					"type": "address"
				},
				{
					"indexed": false,
					"internalType": "address",
					"name": "owner",
					"type": "address"
				},
				{
					"indexed": false,
					"internalType": "uint256",
					"name": "price",
					"type": "uint256"
				}
			],
			"name": "NFTCancel",
			"type": "event"
		},
		{
			"anonymous": false,
			"inputs": [
				{
					"indexed": false,
					"internalType": "uint256",
					"name": "tokenId",
					"type": "uint256"
				},
				{
					"indexed": false,
					"internalType": "address",
					"name": "seller",
					"type": "address"
				},
				{
					"indexed": false,
					"internalType": "address",
					"name": "owner",
					"type": "address"
				},
				{
					"indexed": false,
					"internalType": "uint256",
					"name": "price",
					"type": "uint256"
				}
			],
			"name": "NFTListed",
			"type": "event"
		},
		{
			"anonymous": false,
			"inputs": [
				{
					"indexed": false,
					"internalType": "uint256",
					"name": "tokenId",
					"type": "uint256"
				},
				{
					"indexed": false,
					"internalType": "address",
					"name": "seller",
					"type": "address"
				},
				{
					"indexed": false,
					"internalType": "address",
					"name": "owner",
					"type": "address"
				},
				{
					"indexed": false,
					"internalType": "uint256",
					"name": "price",
					"type": "uint256"
				},
				{
					"indexed": false,
					"internalType": "uint256",
					"name": "SoldTime",
					"type": "uint256"
				}
			],
			"name": "NFTSold",
			"type": "event"
		},
		{
			"anonymous": false,
			"inputs": [
				{
					"indexed": true,
					"internalType": "address",
					"name": "previousOwner",
					"type": "address"
				},
				{
					"indexed": true,
					"internalType": "address",
					"name": "newOwner",
					"type": "address"
				}
			],
			"name": "OwnershipTransferred",
			"type": "event"
		},
		{
			"inputs": [
				{
					"internalType": "address",
					"name": "_mintContract",
					"type": "address"
				},
				{
					"internalType": "uint256",
					"name": "_tokenId",
					"type": "uint256"
				},
				{
					"internalType": "uint256",
					"name": "_minPrice",
					"type": "uint256"
				},
				{
					"internalType": "address",
					"name": "artist",
					"type": "address"
				},
				{
					"internalType": "uint256",
					"name": "artistFeePerAge",
					"type": "uint256"
				}
			],
			"name": "AuctionOfferList",
			"outputs": [],
			"stateMutability": "nonpayable",
			"type": "function"
		},
		{
			"inputs": [
				{
					"internalType": "address",
					"name": "",
					"type": "address"
				},
				{
					"internalType": "uint256",
					"name": "",
					"type": "uint256"
				},
				{
					"internalType": "uint256",
					"name": "",
					"type": "uint256"
				}
			],
			"name": "Bidding",
			"outputs": [
				{
					"internalType": "address",
					"name": "user",
					"type": "address"
				},
				{
					"internalType": "string",
					"name": "userName",
					"type": "string"
				},
				{
					"internalType": "uint256",
					"name": "price",
					"type": "uint256"
				},
				{
					"internalType": "uint256",
					"name": "biddingTime",
					"type": "uint256"
				},
				{
					"internalType": "uint256",
					"name": "bidCount",
					"type": "uint256"
				}
			],
			"stateMutability": "view",
			"type": "function"
		},
		{
			"inputs": [
				{
					"internalType": "address",
					"name": "",
					"type": "address"
				},
				{
					"internalType": "uint256",
					"name": "",
					"type": "uint256"
				},
				{
					"internalType": "address",
					"name": "",
					"type": "address"
				},
				{
					"internalType": "uint256",
					"name": "",
					"type": "uint256"
				}
			],
			"name": "BiddingCount",
			"outputs": [
				{
					"internalType": "uint256",
					"name": "",
					"type": "uint256"
				}
			],
			"stateMutability": "view",
			"type": "function"
		},
		{
			"inputs": [
				{
					"internalType": "uint256",
					"name": "listIndex",
					"type": "uint256"
				}
			],
			"name": "CancelListForSale",
			"outputs": [],
			"stateMutability": "nonpayable",
			"type": "function"
		},
		{
			"inputs": [
				{
					"internalType": "uint256",
					"name": "_auctionListCount",
					"type": "uint256"
				}
			],
			"name": "ClaimNFT",
			"outputs": [],
			"stateMutability": "payable",
			"type": "function"
		},
		{
			"inputs": [
				{
					"internalType": "uint256",
					"name": "startTime",
					"type": "uint256"
				},
				{
					"internalType": "uint256",
					"name": "EndTime",
					"type": "uint256"
				}
			],
			"name": "Commission_W_R_T",
			"outputs": [
				{
					"internalType": "uint256",
					"name": "volume",
					"type": "uint256"
				}
			],
			"stateMutability": "view",
			"type": "function"
		},
		{
			"inputs": [
				{
					"internalType": "address",
					"name": "_mintContract",
					"type": "address"
				},
				{
					"internalType": "uint256",
					"name": "_price",
					"type": "uint256"
				},
				{
					"internalType": "uint256",
					"name": "_tokenId",
					"type": "uint256"
				},
				{
					"internalType": "address",
					"name": "artist",
					"type": "address"
				},
				{
					"internalType": "uint256",
					"name": "artistFeePerAge",
					"type": "uint256"
				}
			],
			"name": "ListNft",
			"outputs": [],
			"stateMutability": "nonpayable",
			"type": "function"
		},
		{
			"inputs": [
				{
					"internalType": "address",
					"name": "",
					"type": "address"
				},
				{
					"internalType": "uint256",
					"name": "",
					"type": "uint256"
				}
			],
			"name": "NftAuction",
			"outputs": [
				{
					"internalType": "address",
					"name": "owner",
					"type": "address"
				},
				{
					"internalType": "uint256",
					"name": "tokenId",
					"type": "uint256"
				},
				{
					"internalType": "uint256",
					"name": "minimumBid",
					"type": "uint256"
				},
				{
					"internalType": "address",
					"name": "artist",
					"type": "address"
				},
				{
					"internalType": "uint256",
					"name": "artistFeePerAge",
					"type": "uint256"
				},
				{
					"internalType": "uint256",
					"name": "listTime",
					"type": "uint256"
				},
				{
					"internalType": "bool",
					"name": "isActive",
					"type": "bool"
				}
			],
			"stateMutability": "view",
			"type": "function"
		},
		{
			"inputs": [
				{
					"internalType": "uint256",
					"name": "_auctionListCount",
					"type": "uint256"
				},
				{
					"internalType": "string",
					"name": "_name",
					"type": "string"
				},
				{
					"internalType": "uint256",
					"name": "_price",
					"type": "uint256"
				}
			],
			"name": "NftOffers",
			"outputs": [],
			"stateMutability": "nonpayable",
			"type": "function"
		},
		{
			"inputs": [
				{
					"internalType": "uint256",
					"name": "startTime",
					"type": "uint256"
				},
				{
					"internalType": "uint256",
					"name": "EndTime",
					"type": "uint256"
				}
			],
			"name": "Sale_W_R_T",
			"outputs": [
				{
					"internalType": "uint256",
					"name": "totalSale",
					"type": "uint256"
				}
			],
			"stateMutability": "view",
			"type": "function"
		},
		{
			"inputs": [
				{
					"internalType": "uint256",
					"name": "",
					"type": "uint256"
				}
			],
			"name": "Sales",
			"outputs": [
				{
					"internalType": "uint256",
					"name": "",
					"type": "uint256"
				}
			],
			"stateMutability": "view",
			"type": "function"
		},
		{
			"inputs": [
				{
					"internalType": "uint256",
					"name": "",
					"type": "uint256"
				}
			],
			"name": "SelectedUser",
			"outputs": [
				{
					"internalType": "uint256",
					"name": "",
					"type": "uint256"
				}
			],
			"stateMutability": "view",
			"type": "function"
		},
		{
			"inputs": [
				{
					"internalType": "uint256",
					"name": "",
					"type": "uint256"
				}
			],
			"name": "Volume",
			"outputs": [
				{
					"internalType": "uint256",
					"name": "price",
					"type": "uint256"
				},
				{
					"internalType": "uint256",
					"name": "timestamp",
					"type": "uint256"
				}
			],
			"stateMutability": "view",
			"type": "function"
		},
		{
			"inputs": [
				{
					"internalType": "uint256",
					"name": "startTime",
					"type": "uint256"
				},
				{
					"internalType": "uint256",
					"name": "EndTime",
					"type": "uint256"
				}
			],
			"name": "Volume_W_R_T",
			"outputs": [
				{
					"internalType": "uint256",
					"name": "volume",
					"type": "uint256"
				}
			],
			"stateMutability": "view",
			"type": "function"
		},
		{
			"inputs": [
				{
					"internalType": "address",
					"name": "",
					"type": "address"
				},
				{
					"internalType": "uint256",
					"name": "",
					"type": "uint256"
				}
			],
			"name": "_idToNFT",
			"outputs": [
				{
					"internalType": "uint256",
					"name": "tokenId",
					"type": "uint256"
				},
				{
					"internalType": "address",
					"name": "seller",
					"type": "address"
				},
				{
					"internalType": "address",
					"name": "owner",
					"type": "address"
				},
				{
					"internalType": "uint256",
					"name": "price",
					"type": "uint256"
				},
				{
					"internalType": "uint256",
					"name": "count",
					"type": "uint256"
				},
				{
					"internalType": "uint256",
					"name": "listTime",
					"type": "uint256"
				},
				{
					"internalType": "bool",
					"name": "listed",
					"type": "bool"
				},
				{
					"internalType": "address",
					"name": "artist",
					"type": "address"
				},
				{
					"internalType": "uint256",
					"name": "artistFeePerAge",
					"type": "uint256"
				}
			],
			"stateMutability": "view",
			"type": "function"
		},
		{
			"inputs": [],
			"name": "_nftCount",
			"outputs": [
				{
					"internalType": "uint256",
					"name": "_value",
					"type": "uint256"
				}
			],
			"stateMutability": "view",
			"type": "function"
		},
		{
			"inputs": [
				{
					"internalType": "uint256",
					"name": "",
					"type": "uint256"
				}
			],
			"name": "auctionListCount",
			"outputs": [
				{
					"internalType": "address",
					"name": "contractAddress",
					"type": "address"
				},
				{
					"internalType": "uint256",
					"name": "tokenId",
					"type": "uint256"
				}
			],
			"stateMutability": "view",
			"type": "function"
		},
		{
			"inputs": [
				{
					"internalType": "uint256",
					"name": "listIndex",
					"type": "uint256"
				},
				{
					"internalType": "uint256",
					"name": "price",
					"type": "uint256"
				}
			],
			"name": "buyNft",
			"outputs": [],
			"stateMutability": "payable",
			"type": "function"
		},
		{
			"inputs": [],
			"name": "buyerFee",
			"outputs": [
				{
					"internalType": "address",
					"name": "",
					"type": "address"
				}
			],
			"stateMutability": "view",
			"type": "function"
		},
		{
			"inputs": [],
			"name": "buyerFeePerAge",
			"outputs": [
				{
					"internalType": "uint256",
					"name": "",
					"type": "uint256"
				}
			],
			"stateMutability": "view",
			"type": "function"
		},
		{
			"inputs": [
				{
					"internalType": "uint256",
					"name": "_auctionListCount",
					"type": "uint256"
				}
			],
			"name": "cancelOfferList",
			"outputs": [],
			"stateMutability": "nonpayable",
			"type": "function"
		},
		{
			"inputs": [
				{
					"internalType": "uint256",
					"name": "_auctionListIndex",
					"type": "uint256"
				}
			],
			"name": "cancelOfferPrice",
			"outputs": [],
			"stateMutability": "nonpayable",
			"type": "function"
		},
		{
			"inputs": [
				{
					"internalType": "uint256",
					"name": "",
					"type": "uint256"
				}
			],
			"name": "commission",
			"outputs": [
				{
					"internalType": "uint256",
					"name": "totalCommission",
					"type": "uint256"
				},
				{
					"internalType": "uint256",
					"name": "timestamp",
					"type": "uint256"
				}
			],
			"stateMutability": "view",
			"type": "function"
		},
		{
			"inputs": [],
			"name": "commissionCount",
			"outputs": [
				{
					"internalType": "uint256",
					"name": "",
					"type": "uint256"
				}
			],
			"stateMutability": "view",
			"type": "function"
		},
		{
			"inputs": [
				{
					"internalType": "uint256",
					"name": "listIndex",
					"type": "uint256"
				},
				{
					"internalType": "uint256",
					"name": "price",
					"type": "uint256"
				}
			],
			"name": "editListForSale",
			"outputs": [],
			"stateMutability": "nonpayable",
			"type": "function"
		},
		{
			"inputs": [],
			"name": "getAllListedNfts",
			"outputs": [
				{
					"components": [
						{
							"components": [
								{
									"internalType": "uint256",
									"name": "tokenId",
									"type": "uint256"
								},
								{
									"internalType": "address",
									"name": "seller",
									"type": "address"
								},
								{
									"internalType": "address",
									"name": "owner",
									"type": "address"
								},
								{
									"internalType": "uint256",
									"name": "price",
									"type": "uint256"
								},
								{
									"internalType": "uint256",
									"name": "count",
									"type": "uint256"
								},
								{
									"internalType": "uint256",
									"name": "listTime",
									"type": "uint256"
								},
								{
									"internalType": "bool",
									"name": "listed",
									"type": "bool"
								},
								{
									"internalType": "address",
									"name": "artist",
									"type": "address"
								},
								{
									"internalType": "uint256",
									"name": "artistFeePerAge",
									"type": "uint256"
								}
							],
							"internalType": "struct Marketplace.NFT",
							"name": "listedData",
							"type": "tuple"
						},
						{
							"internalType": "uint256",
							"name": "listCount",
							"type": "uint256"
						},
						{
							"internalType": "string",
							"name": "uriData",
							"type": "string"
						}
					],
					"internalType": "struct Marketplace.ListedNftTokenId[]",
					"name": "",
					"type": "tuple[]"
				},
				{
					"components": [
						{
							"components": [
								{
									"internalType": "address",
									"name": "owner",
									"type": "address"
								},
								{
									"internalType": "uint256",
									"name": "tokenId",
									"type": "uint256"
								},
								{
									"internalType": "uint256",
									"name": "minimumBid",
									"type": "uint256"
								},
								{
									"internalType": "address",
									"name": "artist",
									"type": "address"
								},
								{
									"internalType": "uint256",
									"name": "artistFeePerAge",
									"type": "uint256"
								},
								{
									"internalType": "uint256",
									"name": "listTime",
									"type": "uint256"
								},
								{
									"internalType": "bool",
									"name": "isActive",
									"type": "bool"
								}
							],
							"internalType": "struct Marketplace.nftAuction",
							"name": "listedData",
							"type": "tuple"
						},
						{
							"internalType": "uint256",
							"name": "listCount",
							"type": "uint256"
						},
						{
							"internalType": "string",
							"name": "uriData",
							"type": "string"
						}
					],
					"internalType": "struct Marketplace.ListTokenId[]",
					"name": "",
					"type": "tuple[]"
				}
			],
			"stateMutability": "view",
			"type": "function"
		},
		{
			"inputs": [
				{
					"internalType": "uint256",
					"name": "_listCount",
					"type": "uint256"
				}
			],
			"name": "getBiddingHistory",
			"outputs": [
				{
					"components": [
						{
							"internalType": "address",
							"name": "user",
							"type": "address"
						},
						{
							"internalType": "string",
							"name": "userName",
							"type": "string"
						},
						{
							"internalType": "uint256",
							"name": "price",
							"type": "uint256"
						},
						{
							"internalType": "uint256",
							"name": "biddingTime",
							"type": "uint256"
						},
						{
							"internalType": "uint256",
							"name": "bidCount",
							"type": "uint256"
						}
					],
					"internalType": "struct Marketplace.userDetail[]",
					"name": "",
					"type": "tuple[]"
				}
			],
			"stateMutability": "view",
			"type": "function"
		},
		{
			"inputs": [
				{
					"internalType": "address",
					"name": "_to",
					"type": "address"
				},
				{
					"internalType": "address[]",
					"name": "contractAddresses",
					"type": "address[]"
				}
			],
			"name": "getNFTDetail",
			"outputs": [
				{
					"components": [
						{
							"internalType": "uint256",
							"name": "tokenId",
							"type": "uint256"
						},
						{
							"internalType": "uint256",
							"name": "mintTime",
							"type": "uint256"
						},
						{
							"internalType": "address",
							"name": "mintContract",
							"type": "address"
						},
						{
							"internalType": "address",
							"name": "mintArtist",
							"type": "address"
						},
						{
							"internalType": "uint256",
							"name": "artistFeePerAge",
							"type": "uint256"
						},
						{
							"internalType": "string",
							"name": "uri",
							"type": "string"
						}
					],
					"internalType": "struct Marketplace.MyNft[][]",
					"name": "",
					"type": "tuple[][]"
				}
			],
			"stateMutability": "view",
			"type": "function"
		},
		{
			"inputs": [
				{
					"internalType": "uint256",
					"name": "",
					"type": "uint256"
				}
			],
			"name": "listCount",
			"outputs": [
				{
					"internalType": "address",
					"name": "contractAddress",
					"type": "address"
				},
				{
					"internalType": "uint256",
					"name": "tokenId",
					"type": "uint256"
				}
			],
			"stateMutability": "view",
			"type": "function"
		},
		{
			"inputs": [],
			"name": "nftAuctionCount",
			"outputs": [
				{
					"internalType": "uint256",
					"name": "_value",
					"type": "uint256"
				}
			],
			"stateMutability": "view",
			"type": "function"
		},
		{
			"inputs": [],
			"name": "owner",
			"outputs": [
				{
					"internalType": "address",
					"name": "",
					"type": "address"
				}
			],
			"stateMutability": "view",
			"type": "function"
		},
		{
			"inputs": [],
			"name": "renounceOwnership",
			"outputs": [],
			"stateMutability": "nonpayable",
			"type": "function"
		},
		{
			"inputs": [
				{
					"internalType": "uint256",
					"name": "_auctionListCount",
					"type": "uint256"
				},
				{
					"internalType": "uint256",
					"name": "bidCount",
					"type": "uint256"
				}
			],
			"name": "selectUser",
			"outputs": [],
			"stateMutability": "nonpayable",
			"type": "function"
		},
		{
			"inputs": [],
			"name": "sellerFee",
			"outputs": [
				{
					"internalType": "address",
					"name": "",
					"type": "address"
				}
			],
			"stateMutability": "view",
			"type": "function"
		},
		{
			"inputs": [],
			"name": "sellerFeePerAge",
			"outputs": [
				{
					"internalType": "uint256",
					"name": "",
					"type": "uint256"
				}
			],
			"stateMutability": "view",
			"type": "function"
		},
		{
			"inputs": [
				{
					"internalType": "uint256",
					"name": "_setBuyerFee",
					"type": "uint256"
				}
			],
			"name": "setBuyerFee",
			"outputs": [],
			"stateMutability": "nonpayable",
			"type": "function"
		},
		{
			"inputs": [
				{
					"internalType": "address",
					"name": "_address",
					"type": "address"
				}
			],
			"name": "setBuyerFeeAddress",
			"outputs": [],
			"stateMutability": "nonpayable",
			"type": "function"
		},
		{
			"inputs": [
				{
					"internalType": "uint256",
					"name": "_setSellerFee",
					"type": "uint256"
				}
			],
			"name": "setSellerFee",
			"outputs": [],
			"stateMutability": "nonpayable",
			"type": "function"
		},
		{
			"inputs": [
				{
					"internalType": "address",
					"name": "_address",
					"type": "address"
				}
			],
			"name": "setSellerFeeAddress",
			"outputs": [],
			"stateMutability": "nonpayable",
			"type": "function"
		},
		{
			"inputs": [],
			"name": "totalSales",
			"outputs": [
				{
					"internalType": "uint256",
					"name": "",
					"type": "uint256"
				}
			],
			"stateMutability": "view",
			"type": "function"
		},
		{
			"inputs": [],
			"name": "totalVolume",
			"outputs": [
				{
					"internalType": "uint256",
					"name": "",
					"type": "uint256"
				}
			],
			"stateMutability": "view",
			"type": "function"
		},
		{
			"inputs": [
				{
					"internalType": "address",
					"name": "newOwner",
					"type": "address"
				}
			],
			"name": "transferOwnership",
			"outputs": [],
			"stateMutability": "nonpayable",
			"type": "function"
		},
		{
			"inputs": [
				{
					"internalType": "address",
					"name": "",
					"type": "address"
				},
				{
					"internalType": "uint256",
					"name": "",
					"type": "uint256"
				},
				{
					"internalType": "address",
					"name": "",
					"type": "address"
				}
			],
			"name": "userBiddingCount",
			"outputs": [
				{
					"internalType": "uint256",
					"name": "",
					"type": "uint256"
				}
			],
			"stateMutability": "view",
			"type": "function"
		},
		{
			"inputs": [
				{
					"internalType": "uint256",
					"name": "",
					"type": "uint256"
				}
			],
			"name": "userBidsCount",
			"outputs": [
				{
					"internalType": "uint256",
					"name": "",
					"type": "uint256"
				}
			],
			"stateMutability": "view",
			"type": "function"
		},
		{
			"inputs": [
				{
					"internalType": "address",
					"name": "",
					"type": "address"
				}
			],
			"name": "userBuyRecord",
			"outputs": [
				{
					"internalType": "uint256",
					"name": "",
					"type": "uint256"
				}
			],
			"stateMutability": "view",
			"type": "function"
		},
		{
			"inputs": [
				{
					"internalType": "address",
					"name": "",
					"type": "address"
				}
			],
			"name": "userSoldRecord",
			"outputs": [
				{
					"internalType": "uint256",
					"name": "",
					"type": "uint256"
				}
			],
			"stateMutability": "view",
			"type": "function"
		}
	]
}