{
	"data": {
		"bytecode": {
			"linkReferences": {},
			"object": "608060405234801562000010575f80fd5b5060405162002a5b38038062002a5b8339810160408190526200003391620000eb565b60015f5562000042336200007e565b600680546001600160a01b039586166001600160a01b031991821617909155600780549490951693169290921790925560095560085562000130565b600180546001600160a01b038381166001600160a01b0319831681179093556040519116919082907f8be0079c531659141344cd1fd0a4f28419497f9722a3daafe3b4186f6b6457e0905f90a35050565b80516001600160a01b0381168114620000e6575f80fd5b919050565b5f805f8060808587031215620000ff575f80fd5b6200010a85620000cf565b93506200011a60208601620000cf565b6040860151606090960151949790965092505050565b61291d806200013e5f395ff3fe6080604052600436106101af575f3560e01c80636fd3e1cd116100e7578063cc76bd7011610087578063e1f3d55a11610062578063e1f3d55a146106af578063f2fde38b146106ce578063fa7da19d146106ed578063fc05b3531461070c575f80fd5b8063cc76bd7014610646578063d6cbb2021461065b578063d84c0fd314610671575f80fd5b80638da5cb5b116100c25780638da5cb5b1461059257806395ce4a3b146105af578063b23adf20146105d1578063b7d41e2214610601575f80fd5b80636fd3e1cd146104f6578063715018a6146105215780638d02f79214610535575f80fd5b8063369136bd11610152578063556f80841161012d578063556f8084146104815780635de6c42f146104945780636617b35d146104cb5780636c7e1dd0146104e1575f80fd5b8063369136bd146103fa57806339b7e971146104365780634e455dbe14610462575f80fd5b80631cd7a5341161018d5780631cd7a534146102ad5780631e903868146102cc578063210d135e146103055780632791a4d014610324575f80fd5b80630e260e86146101b3578063103900061461026d5780631bfee1211461028e575b5f80fd5b3480156101be575f80fd5b506102236101cd366004612054565b600c60209081525f928352604080842090915290825290208054600182015460028301546003840154600485015460058601546006909601546001600160a01b0395861696949593949390921692909160ff1687565b604080516001600160a01b0398891681526020810197909752860194909452949091166060840152608083015260a082019290925290151560c082015260e0015b60405180910390f35b348015610278575f80fd5b5061028c61028736600461207e565b61072b565b005b348015610299575f80fd5b5061028c6102a83660046120a0565b610755565b3480156102b8575f80fd5b5061028c6102c73660046120b7565b610762565b3480156102d7575f80fd5b506102f76102e63660046120a0565b600d6020525f908152604090205481565b604051908152602001610264565b348015610310575f80fd5b5061028c61031f3660046120d7565b6108b1565b34801561032f575f80fd5b506103a661033e366004612054565b600a60209081525f92835260408084209091529082529020805460018201546002830154600384015460048501546005860154600687015460079097015495966001600160a01b03958616969486169593949293919260ff8216926101009092049091169089565b60408051998a526001600160a01b0398891660208b0152968816968901969096526060880194909452608087019290925260a0860152151560c085015290911660e083015261010082015261012001610264565b348015610405575f80fd5b506102f7610414366004612125565b601260209081525f938452604080852082529284528284209052825290205481565b348015610441575f80fd5b506104556104503660046121f5565b610b48565b60405161026491906122f1565b34801561046d575f80fd5b5061028c61047c3660046120a0565b610e29565b61028c61048f3660046120b7565b61117e565b34801561049f575f80fd5b506006546104b3906001600160a01b031681565b6040516001600160a01b039091168152602001610264565b3480156104d6575f80fd5b506003546102f79081565b3480156104ec575f80fd5b506102f760095481565b348015610501575f80fd5b506102f76105103660046120a0565b60106020525f908152604090205481565b34801561052c575f80fd5b5061028c6118ad565b348015610540575f80fd5b5061057361054f3660046120a0565b600b6020525f9081526040902080546001909101546001600160a01b039091169082565b604080516001600160a01b039093168352602083019190915201610264565b34801561059d575f80fd5b506001546001600160a01b03166104b3565b3480156105ba575f80fd5b506105c36118c0565b6040516102649291906124a6565b3480156105dc575f80fd5b506105f06105eb36600461259e565b611cbd565b6040516102649594939291906125d0565b34801561060c575f80fd5b506102f761061b366004612610565b601160209081525f948552604080862082529385528385208152918452828420909152825290205481565b348015610651575f80fd5b506102f760085481565b348015610666575f80fd5b506002546102f79081565b34801561067c575f80fd5b5061057361068b3660046120a0565b600e6020525f9081526040902080546001909101546001600160a01b039091169082565b3480156106ba575f80fd5b506007546104b3906001600160a01b031681565b3480156106d9575f80fd5b5061028c6106e836600461207e565b611d8c565b3480156106f8575f80fd5b5061028c6107073660046120a0565b611e02565b348015610717575f80fd5b5061028c61072636600461207e565b611e0f565b610733611e39565b600780546001600160a01b0319166001600160a01b0392909216919091179055565b61075d611e39565b600955565b61076a611e93565b5f828152600b6020908152604080832080546001600160a01b03168452600a8352818420600190910154845290915290206006015460ff166107eb5760405162461bcd60e51b8152602060048201526015602482015274506c65617365204c6973742046697273742021212160581b60448201526064015b60405180910390fd5b5f828152600b6020908152604080832080546001600160a01b039081168552600a845282852060019283015486529093529220909101541633146108715760405162461bcd60e51b815260206004820152601d60248201527f596f7520617265206e6f74206f776e6572206f662074686973204e465400000060448201526064016107e2565b5f918252600b6020908152604080842080546001600160a01b03168552600a835281852060019182015486529092528320600301919091559055565b5050565b6108b9611e93565b6001600160a01b0385165f908152600a6020908152604080832086845290915290206006015460ff161561092f5760405162461bcd60e51b815260206004820152601e60248201527f416c7265616479204c697374656420496e204d61726b6574706c61636521000060448201526064016107e2565b61093d600280546001019055565b604051806101200160405280848152602001336001600160a01b03168152602001306001600160a01b0316815260200185815260200161097c60025490565b815242602080830191909152600160408084018290526001600160a01b0387811660608087019190915260809586018890528b82165f818152600a87528481208c82528752848120895181558988015181880180546001600160a01b03199081169288169290921790558a87015160028084018054841692891692909217909155948b01516003830155988a015160048083019190915560a08b0151600583015560c08b015160068301805460e08e01516001600160a81b0319909116921515610100600160a81b031916929092176101009289168302179055909a0151600790910155845180860186528281528088018d815293548252600b909752848120965187549098169790931696909617855551939092019290925581516323b872dd60e01b8152339481019490945230602485015260448401879052905191926323b872dd926064808301939282900301818387803b158015610adc575f80fd5b505af1158015610aee573d5f803e3d5ffd5b50506040805186815233602082015230818301526060810188905290517f62af98dbc3627e85c5eb929b032d3ce3d6c376652d71b4cca6162a16ef0991149350908190036080019150a1610b4160015f55565b5050505050565b60605f825167ffffffffffffffff811115610b6557610b65612164565b604051908082528060200260200182016040528015610b9857816020015b6060815260200190600190039081610b835790505b5090505f5b8351811015610e1f575f848281518110610bb957610bb9612655565b60209081029190910101516040516378a9bb4360e11b81526001600160a01b0388811660048301529091169063f1537686906024015f60405180830381865afa158015610c08573d5f803e3d5ffd5b505050506040513d5f823e601f3d908101601f19168201604052610c2f91908101906126d2565b9050805167ffffffffffffffff811115610c4b57610c4b612164565b604051908082528060200260200182016040528015610cc257816020015b610caf6040518060c001604052805f81526020015f81526020015f6001600160a01b031681526020015f6001600160a01b031681526020015f8152602001606081525090565b815260200190600190039081610c695790505b50838381518110610cd557610cd5612655565b60200260200101819052505f5b8151811015610e15576040518060c00160405280838381518110610d0857610d08612655565b60200260200101515f01518152602001838381518110610d2a57610d2a612655565b6020026020010151602001518152602001838381518110610d4d57610d4d612655565b6020026020010151604001516001600160a01b03168152602001838381518110610d7957610d79612655565b6020026020010151606001516001600160a01b03168152602001838381518110610da557610da5612655565b6020026020010151608001518152602001838381518110610dc857610dc8612655565b602002602001015160a00151815250848481518110610de957610de9612655565b60200260200101518281518110610e0257610e02612655565b6020908102919091010152600101610ce2565b5050600101610b9d565b5090505b92915050565b610e31611e93565b5f818152600b6020908152604080832080546001600160a01b03168452600a8352818420600190910154845290915290206006015460ff16610ead5760405162461bcd60e51b8152602060048201526015602482015274506c65617365204c6973742046697273742021212160581b60448201526064016107e2565b5f818152600b6020908152604080832080546001600160a01b039081168552600a84528285206001928301548652909352922090910154163314610f335760405162461bcd60e51b815260206004820152601d60248201527f596f7520617265206e6f74206f776e6572206f662074686973204e465400000060448201526064016107e2565b5f818152600b6020818152604080842080546001600160a01b039081168652600a845282862060018084018054895291865284882090810154600290910180546001600160a01b03191691841691909117905595879052939092529054925490516323b872dd60e01b815230600482015233602482015260448101919091529116906323b872dd906064015f604051808303815f87803b158015610fd5575f80fd5b505af1158015610fe7573d5f803e3d5ffd5b5050505f828152600b6020818152604080842080546001600160a01b03168552600a808452828620600190920154865292528320600601805460ff1916905584935091908161103560025490565b815260208082019290925260409081015f908120546001600160a01b03168452918301939093529101812090600b8161106d60025490565b81526020019081526020015f206001015481526020019081526020015f2060040181905550600b5f61109e60025490565b815260208082019290925260409081015f908120848252600b90935220815481546001600160a01b0319166001600160a01b039091161781556001918201549101556110ea6002611eea565b5f818152600b6020908152604080832080546001600160a01b039081168552600a845282852060019283015486528452938290208054918101546003909101548351928352941692810192909252339082015260608101919091527ffb0451e2371b977db14ce8db0bd62262e6ff8fe4b5960280928ba94e024436039060800160405180910390a161117b60015f55565b50565b611186611e93565b5f828152600b6020908152604080832080546001600160a01b039081168552600a84528285206001928301548652909352922090910154339116036112195760405162461bcd60e51b815260206004820152602360248201527f416e206f666665722063616e6e6f742062757920746869732053656c6c65722060448201526221212160e81b60648201526084016107e2565b5f828152600b6020908152604080832080546001600160a01b03168452600a8352818420600190910154845290915290206003015481146112af5760405162461bcd60e51b815260206004820152602a60248201527f4e6f7420656e6f75676820657468657220746f20636f7665722061736b696e676044820152692070726963652021212160b01b60648201526084016107e2565b5f828152600b602052604090819020805460019091015491516323b872dd60e01b815230600482015233602482015260448101929092526001600160a01b0316906323b872dd906064015f604051808303815f87803b158015611310575f80fd5b505af1158015611322573d5f803e3d5ffd5b5050505f838152600b6020908152604080832080546001918201546001600160a01b03918216808752600a865284872082885290955294839020909101549151636e0cee0960e01b815233600482015260248101949094521660448301529150636e0cee09906064015f604051808303815f87803b1580156113a2575f80fd5b505af11580156113b4573d5f803e3d5ffd5b50506008545f858152600b6020908152604080832080546001600160a01b03168452600a835281842060019091015484529091528120600301549093506103e892506114009190612809565b61140a9190612820565b6009545f858152600b6020908152604080832080546001600160a01b03168452600a83528184206001909101548452909152812060030154929350916103e89161145391612809565b61145d9190612820565b5f858152600b6020908152604080832080546001600160a01b03168452600a8352818420600190910154845290915281206007810154600390910154929350916064906114ab908490612809565b6114b59190612820565b90505f836114c3868461283f565b6114cd919061283f565b5f888152600b6020908152604080832080546001600160a01b03168452600a8352818420600190910154845290915290206003015461150c9190612852565b5f888152600b6020908152604080832080546001600160a01b039081168552600a8452828520600192830154865290935281842001549051939450169183156108fc0291849190818181858888f1935050505015801561156e573d5f803e3d5ffd5b505f878152600b6020908152604080832080546001600160a01b039081168552600a8452828520600190920154855292528083206006015490516101009091049091169184156108fc02918591818181858888f193505050501580156115d6573d5f803e3d5ffd5b506006546040516001600160a01b039091169086156108fc029087905f818181858888f1935050505015801561160e573d5f803e3d5ffd5b506007546040516001600160a01b039091169085156108fc029086905f818181858888f19350505050158015611646573d5f803e3d5ffd5b505f878152600b6020818152604080842080546001600160a01b039081168652600a84528286206001830180548852908552838720600601805460ff19169055958d90529390925290549254905163130a8fdb60e21b81526004810191909152911690634c2a3f6c906024015f604051808303815f87803b1580156116c9575f80fd5b505af11580156116db573d5f803e3d5ffd5b5050505086600a5f600b5f6116ef60025490565b815260208082019290925260409081015f908120546001600160a01b03168452918301939093529101812090600b8161172760025490565b81526020019081526020015f206001015481526020019081526020015f2060040181905550600b5f61175860025490565b815260208082019290925260409081015f9081208a8252600b90935220815481546001600160a01b0319166001600160a01b039091161781556001918201549101556117a46002611eea565b5f878152600b6020908152604080832080546001600160a01b039081168552600a845282852060019092015485529083529281902060060154815161010090910490931683529082018490527f7bd3aa7d673767f759ebf216e7f6c12844986c661ae6e0f1d988cf7eb7394d1d910160405180910390a15f878152600b6020908152604080832080546001600160a01b039081168552600a8452828520600192830154865284529382902080549101548251918252909316918301919091523382820152346060830152426080830152517f5fafad85dec201c2e73b6a2bef6351129304a624ea8720ecd04cd7f04d83bc399181900360a00190a150505050506108ad60015f55565b6118b5611e39565b6118be5f611f40565b565b6060805f6118cd60025490565b90505f8167ffffffffffffffff8111156118e9576118e9612164565b60405190808252806020026020018201604052801561192257816020015b61190f611f91565b8152602001906001900390816119075790505b5090505f60015b6002548111611ac8575f818152600b6020908152604080832080546001600160a01b03168452600a8352818420600190910154845290915290206006015460ff1615611ab657604080515f838152600b602081815284832080546001600160a01b03908116808652600a845287862060019384015480885290855288872061018089018a52805460608a0190815294810154841660808a01526002810154841660a08a0152600381015460c08a015260048082015460e08b01526005820154610100808c0191909152600683015460ff811615156101208d0152049094166101408a01526007015461016089015292875283870189905294889052929091528451638ad9134560e01b8152918201529192830191638ad91345906024015f60405180830381865afa158015611a60573d5f803e3d5ffd5b505050506040513d5f823e601f3d908101601f19168201604052611a879190810190612865565b815250838381518110611a9c57611a9c612655565b60200260200101819052508180611ab290612897565b9250505b80611ac081612897565b915050611929565b5060035492505f8367ffffffffffffffff811115611ae857611ae8612164565b604051908082528060200260200182016040528015611b2157816020015b611b0e611ff8565b815260200190600190039081611b065790505b5090505f60015b6003548111611cb0575f818152600e6020908152604080832080546001600160a01b03168452600c8352818420600190910154845290915290206006015460ff1615611c9e57604080515f838152600e602081815284832080546001600160a01b03908116808652600c845287862060019384015480885290855288872061014089018a528054841660608a019081529481015460808a0152600281015460a08a0152600381015490931660c089015260048084015460e08a015260058401546101008a015260069093015460ff16151561012089015292875283870189905294889052929091528451638ad9134560e01b8152918201529192830191638ad91345906024015f60405180830381865afa158015611c48573d5f803e3d5ffd5b505050506040513d5f823e601f3d908101601f19168201604052611c6f9190810190612865565b815250838381518110611c8457611c84612655565b60200260200101819052508180611c9a90612897565b9250505b80611ca881612897565b915050611b28565b5092969095509350505050565b600f60209081525f9384526040808520825292845282842090528252902080546001820180546001600160a01b039092169291611cf9906128af565b80601f0160208091040260200160405190810160405280929190818152602001828054611d25906128af565b8015611d705780601f10611d4757610100808354040283529160200191611d70565b820191905f5260205f20905b815481529060010190602001808311611d5357829003601f168201915b5050505050908060020154908060030154908060040154905085565b611d94611e39565b6001600160a01b038116611df95760405162461bcd60e51b815260206004820152602660248201527f4f776e61626c653a206e6577206f776e657220697320746865207a65726f206160448201526564647265737360d01b60648201526084016107e2565b61117b81611f40565b611e0a611e39565b600855565b611e17611e39565b600680546001600160a01b0319166001600160a01b0392909216919091179055565b6001546001600160a01b031633146118be5760405162461bcd60e51b815260206004820181905260248201527f4f776e61626c653a2063616c6c6572206973206e6f7420746865206f776e657260448201526064016107e2565b60025f5403611ee45760405162461bcd60e51b815260206004820152601f60248201527f5265656e7472616e637947756172643a207265656e7472616e742063616c6c0060448201526064016107e2565b60025f55565b805480611f395760405162461bcd60e51b815260206004820152601b60248201527f436f756e7465723a2064656372656d656e74206f766572666c6f77000000000060448201526064016107e2565b5f19019055565b600180546001600160a01b038381166001600160a01b0319831681179093556040519116919082907f8be0079c531659141344cd1fd0a4f28419497f9722a3daafe3b4186f6b6457e0905f90a35050565b6040805161018081019091525f606082018181526080830182905260a0830182905260c0830182905260e0830182905261010083018290526101208301829052610140830182905261016083019190915281905b81526020015f8152602001606081525090565b6040805161014081019091525f606082018181526080830182905260a0830182905260c0830182905260e0830182905261010083018290526101208301919091528190611fe5565b6001600160a01b038116811461117b575f80fd5b5f8060408385031215612065575f80fd5b823561207081612040565b946020939093013593505050565b5f6020828403121561208e575f80fd5b813561209981612040565b9392505050565b5f602082840312156120b0575f80fd5b5035919050565b5f80604083850312156120c8575f80fd5b50508035926020909101359150565b5f805f805f60a086880312156120eb575f80fd5b85356120f681612040565b94506020860135935060408601359250606086013561211481612040565b949793965091946080013592915050565b5f805f60608486031215612137575f80fd5b833561214281612040565b925060208401359150604084013561215981612040565b809150509250925092565b634e487b7160e01b5f52604160045260245ffd5b60405160c0810167ffffffffffffffff8111828210171561219b5761219b612164565b60405290565b604051601f8201601f1916810167ffffffffffffffff811182821017156121ca576121ca612164565b604052919050565b5f67ffffffffffffffff8211156121eb576121eb612164565b5060051b60200190565b5f8060408385031215612206575f80fd5b823561221181612040565b915060208381013567ffffffffffffffff81111561222d575f80fd5b8401601f8101861361223d575f80fd5b803561225061224b826121d2565b6121a1565b81815260059190911b8201830190838101908883111561226e575f80fd5b928401925b8284101561229557833561228681612040565b82529284019290840190612273565b80955050505050509250929050565b5f5b838110156122be5781810151838201526020016122a6565b50505f910152565b5f81518084526122dd8160208601602086016122a4565b601f01601f19169290920160200192915050565b5f60208083018184528085518083526040925060408601915060408160051b8701018488015f5b838110156123d157888303603f19018552815180518085529088019088850190600581901b86018a015f5b828110156123bb57878203601f190184528451805183528c8101518d8401528b8101516001600160a01b039081168d850152606080830151909116908401526080808201519084015260a09081015160c0918401829052906123a7818501836122c6565b968e0196958e019593505050600101612343565b50978a0197955050509187019150600101612318565b509098975050505050505050565b5f82825180855260208086019550808260051b8401018186015f5b8481101561249957858303601f190189528151805180516001600160a01b039081168652868201518787015260408083015181880152606080840151909216918701919091526080808301519087015260a0808301519087015260c0918201511515918601919091528582015160e086015201516101206101008501819052612485818601836122c6565b9a86019a94505050908301906001016123fa565b5090979650505050505050565b5f6040808301604084528086518083526060925060608601915060608160051b8701016020808a015f5b8481101561257e57898403605f190186528151805180518652848101516001600160a01b03908116868801528a82015181168b880152898201518a8801526080808301519088015260a0808301519088015260c08083015115159088015260e08083015190911690870152610100908101519086015283810151610120860152880151610160610140860181905261256a818701836122c6565b9785019795505050908201906001016124d0565b50508782039088015261259181896123df565b9998505050505050505050565b5f805f606084860312156125b0575f80fd5b83356125bb81612040565b95602085013595506040909401359392505050565b6001600160a01b038616815260a0602082018190525f906125f3908301876122c6565b604083019590955250606081019290925260809091015292915050565b5f805f8060808587031215612623575f80fd5b843561262e81612040565b935060208501359250604085013561264581612040565b9396929550929360600135925050565b634e487b7160e01b5f52603260045260245ffd5b5f82601f830112612678575f80fd5b815167ffffffffffffffff81111561269257612692612164565b6126a5601f8201601f19166020016121a1565b8181528460208386010111156126b9575f80fd5b6126ca8260208301602087016122a4565b949350505050565b5f60208083850312156126e3575f80fd5b825167ffffffffffffffff808211156126fa575f80fd5b818501915085601f83011261270d575f80fd5b815161271b61224b826121d2565b81815260059190911b83018401908481019088831115612739575f80fd5b8585015b838110156127e857805185811115612753575f80fd5b860160c0818c03601f1901811315612769575f80fd5b612771612178565b8983015181526040808401518b83015260608085015161279081612040565b80838501525060809150818501516127a781612040565b9083015260a084810151828401529284015192898411156127c6575f80fd5b6127d48f8d86880101612669565b90830152508552505091860191860161273d565b5098975050505050505050565b634e487b7160e01b5f52601160045260245ffd5b8082028115828204841417610e2357610e236127f5565b5f8261283a57634e487b7160e01b5f52601260045260245ffd5b500490565b80820180821115610e2357610e236127f5565b81810381811115610e2357610e236127f5565b5f60208284031215612875575f80fd5b815167ffffffffffffffff81111561288b575f80fd5b6126ca84828501612669565b5f600182016128a8576128a86127f5565b5060010190565b600181811c908216806128c357607f821691505b6020821081036128e157634e487b7160e01b5f52602260045260245ffd5b5091905056fea26469706673582212200522b029f1c34e3c5bff16205412d9193cc5bb320c71ddd0bdb25a72eb1f8e6664736f6c63430008160033",
			"opcodes": "PUSH1 0x80 PUSH1 0x40 MSTORE CALLVALUE DUP1 ISZERO PUSH3 0x10 JUMPI PUSH0 DUP1 REVERT JUMPDEST POP PUSH1 0x40 MLOAD PUSH3 0x2A5B CODESIZE SUB DUP1 PUSH3 0x2A5B DUP4 CODECOPY DUP2 ADD PUSH1 0x40 DUP2 SWAP1 MSTORE PUSH3 0x33 SWAP2 PUSH3 0xEB JUMP JUMPDEST PUSH1 0x1 PUSH0 SSTORE PUSH3 0x42 CALLER PUSH3 0x7E JUMP JUMPDEST PUSH1 0x6 DUP1 SLOAD PUSH1 0x1 PUSH1 0x1 PUSH1 0xA0 SHL SUB SWAP6 DUP7 AND PUSH1 0x1 PUSH1 0x1 PUSH1 0xA0 SHL SUB NOT SWAP2 DUP3 AND OR SWAP1 SWAP2 SSTORE PUSH1 0x7 DUP1 SLOAD SWAP5 SWAP1 SWAP6 AND SWAP4 AND SWAP3 SWAP1 SWAP3 OR SWAP1 SWAP3 SSTORE PUSH1 0x9 SSTORE PUSH1 0x8 SSTORE PUSH3 0x130 JUMP JUMPDEST PUSH1 0x1 DUP1 SLOAD PUSH1 0x1 PUSH1 0x1 PUSH1 0xA0 SHL SUB DUP4 DUP2 AND PUSH1 0x1 PUSH1 0x1 PUSH1 0xA0 SHL SUB NOT DUP4 AND DUP2 OR SWAP1 SWAP4 SSTORE PUSH1 0x40 MLOAD SWAP2 AND SWAP2 SWAP1 DUP3 SWAP1 PUSH32 0x8BE0079C531659141344CD1FD0A4F28419497F9722A3DAAFE3B4186F6B6457E0 SWAP1 PUSH0 SWAP1 LOG3 POP POP JUMP JUMPDEST DUP1 MLOAD PUSH1 0x1 PUSH1 0x1 PUSH1 0xA0 SHL SUB DUP2 AND DUP2 EQ PUSH3 0xE6 JUMPI PUSH0 DUP1 REVERT JUMPDEST SWAP2 SWAP1 POP JUMP JUMPDEST PUSH0 DUP1 PUSH0 DUP1 PUSH1 0x80 DUP6 DUP8 SUB SLT ISZERO PUSH3 0xFF JUMPI PUSH0 DUP1 REVERT JUMPDEST PUSH3 0x10A DUP6 PUSH3 0xCF JUMP JUMPDEST SWAP4 POP PUSH3 0x11A PUSH1 0x20 DUP7 ADD PUSH3 0xCF JUMP JUMPDEST PUSH1 0x40 DUP7 ADD MLOAD PUSH1 0x60 SWAP1 SWAP7 ADD MLOAD SWAP5 SWAP8 SWAP1 SWAP7 POP SWAP3 POP POP POP JUMP JUMPDEST PUSH2 0x291D DUP1 PUSH3 0x13E PUSH0 CODECOPY PUSH0 RETURN INVALID PUSH1 0x80 PUSH1 0x40 MSTORE PUSH1 0x4 CALLDATASIZE LT PUSH2 0x1AF JUMPI PUSH0 CALLDATALOAD PUSH1 0xE0 SHR DUP1 PUSH4 0x6FD3E1CD GT PUSH2 0xE7 JUMPI DUP1 PUSH4 0xCC76BD70 GT PUSH2 0x87 JUMPI DUP1 PUSH4 0xE1F3D55A GT PUSH2 0x62 JUMPI DUP1 PUSH4 0xE1F3D55A EQ PUSH2 0x6AF JUMPI DUP1 PUSH4 0xF2FDE38B EQ PUSH2 0x6CE JUMPI DUP1 PUSH4 0xFA7DA19D EQ PUSH2 0x6ED JUMPI DUP1 PUSH4 0xFC05B353 EQ PUSH2 0x70C JUMPI PUSH0 DUP1 REVERT JUMPDEST DUP1 PUSH4 0xCC76BD70 EQ PUSH2 0x646 JUMPI DUP1 PUSH4 0xD6CBB202 EQ PUSH2 0x65B JUMPI DUP1 PUSH4 0xD84C0FD3 EQ PUSH2 0x671 JUMPI PUSH0 DUP1 REVERT JUMPDEST DUP1 PUSH4 0x8DA5CB5B GT PUSH2 0xC2 JUMPI DUP1 PUSH4 0x8DA5CB5B EQ PUSH2 0x592 JUMPI DUP1 PUSH4 0x95CE4A3B EQ PUSH2 0x5AF JUMPI DUP1 PUSH4 0xB23ADF20 EQ PUSH2 0x5D1 JUMPI DUP1 PUSH4 0xB7D41E22 EQ PUSH2 0x601 JUMPI PUSH0 DUP1 REVERT JUMPDEST DUP1 PUSH4 0x6FD3E1CD EQ PUSH2 0x4F6 JUMPI DUP1 PUSH4 0x715018A6 EQ PUSH2 0x521 JUMPI DUP1 PUSH4 0x8D02F792 EQ PUSH2 0x535 JUMPI PUSH0 DUP1 REVERT JUMPDEST DUP1 PUSH4 0x369136BD GT PUSH2 0x152 JUMPI DUP1 PUSH4 0x556F8084 GT PUSH2 0x12D JUMPI DUP1 PUSH4 0x556F8084 EQ PUSH2 0x481 JUMPI DUP1 PUSH4 0x5DE6C42F EQ PUSH2 0x494 JUMPI DUP1 PUSH4 0x6617B35D EQ PUSH2 0x4CB JUMPI DUP1 PUSH4 0x6C7E1DD0 EQ PUSH2 0x4E1 JUMPI PUSH0 DUP1 REVERT JUMPDEST DUP1 PUSH4 0x369136BD EQ PUSH2 0x3FA JUMPI DUP1 PUSH4 0x39B7E971 EQ PUSH2 0x436 JUMPI DUP1 PUSH4 0x4E455DBE EQ PUSH2 0x462 JUMPI PUSH0 DUP1 REVERT JUMPDEST DUP1 PUSH4 0x1CD7A534 GT PUSH2 0x18D JUMPI DUP1 PUSH4 0x1CD7A534 EQ PUSH2 0x2AD JUMPI DUP1 PUSH4 0x1E903868 EQ PUSH2 0x2CC JUMPI DUP1 PUSH4 0x210D135E EQ PUSH2 0x305 JUMPI DUP1 PUSH4 0x2791A4D0 EQ PUSH2 0x324 JUMPI PUSH0 DUP1 REVERT JUMPDEST DUP1 PUSH4 0xE260E86 EQ PUSH2 0x1B3 JUMPI DUP1 PUSH4 0x10390006 EQ PUSH2 0x26D JUMPI DUP1 PUSH4 0x1BFEE121 EQ PUSH2 0x28E JUMPI JUMPDEST PUSH0 DUP1 REVERT JUMPDEST CALLVALUE DUP1 ISZERO PUSH2 0x1BE JUMPI PUSH0 DUP1 REVERT JUMPDEST POP PUSH2 0x223 PUSH2 0x1CD CALLDATASIZE PUSH1 0x4 PUSH2 0x2054 JUMP JUMPDEST PUSH1 0xC PUSH1 0x20 SWAP1 DUP2 MSTORE PUSH0 SWAP3 DUP4 MSTORE PUSH1 0x40 DUP1 DUP5 KECCAK256 SWAP1 SWAP2 MSTORE SWAP1 DUP3 MSTORE SWAP1 KECCAK256 DUP1 SLOAD PUSH1 0x1 DUP3 ADD SLOAD PUSH1 0x2 DUP4 ADD SLOAD PUSH1 0x3 DUP5 ADD SLOAD PUSH1 0x4 DUP6 ADD SLOAD PUSH1 0x5 DUP7 ADD SLOAD PUSH1 0x6 SWAP1 SWAP7 ADD SLOAD PUSH1 0x1 PUSH1 0x1 PUSH1 0xA0 SHL SUB SWAP6 DUP7 AND SWAP7 SWAP5 SWAP6 SWAP4 SWAP5 SWAP4 SWAP1 SWAP3 AND SWAP3 SWAP1 SWAP2 PUSH1 0xFF AND DUP8 JUMP JUMPDEST PUSH1 0x40 DUP1 MLOAD PUSH1 0x1 PUSH1 0x1 PUSH1 0xA0 SHL SUB SWAP9 DUP10 AND DUP2 MSTORE PUSH1 0x20 DUP2 ADD SWAP8 SWAP1 SWAP8 MSTORE DUP7 ADD SWAP5 SWAP1 SWAP5 MSTORE SWAP5 SWAP1 SWAP2 AND PUSH1 0x60 DUP5 ADD MSTORE PUSH1 0x80 DUP4 ADD MSTORE PUSH1 0xA0 DUP3 ADD SWAP3 SWAP1 SWAP3 MSTORE SWAP1 ISZERO ISZERO PUSH1 0xC0 DUP3 ADD MSTORE PUSH1 0xE0 ADD JUMPDEST PUSH1 0x40 MLOAD DUP1 SWAP2 SUB SWAP1 RETURN JUMPDEST CALLVALUE DUP1 ISZERO PUSH2 0x278 JUMPI PUSH0 DUP1 REVERT JUMPDEST POP PUSH2 0x28C PUSH2 0x287 CALLDATASIZE PUSH1 0x4 PUSH2 0x207E JUMP JUMPDEST PUSH2 0x72B JUMP JUMPDEST STOP JUMPDEST CALLVALUE DUP1 ISZERO PUSH2 0x299 JUMPI PUSH0 DUP1 REVERT JUMPDEST POP PUSH2 0x28C PUSH2 0x2A8 CALLDATASIZE PUSH1 0x4 PUSH2 0x20A0 JUMP JUMPDEST PUSH2 0x755 JUMP JUMPDEST CALLVALUE DUP1 ISZERO PUSH2 0x2B8 JUMPI PUSH0 DUP1 REVERT JUMPDEST POP PUSH2 0x28C PUSH2 0x2C7 CALLDATASIZE PUSH1 0x4 PUSH2 0x20B7 JUMP JUMPDEST PUSH2 0x762 JUMP JUMPDEST CALLVALUE DUP1 ISZERO PUSH2 0x2D7 JUMPI PUSH0 DUP1 REVERT JUMPDEST POP PUSH2 0x2F7 PUSH2 0x2E6 CALLDATASIZE PUSH1 0x4 PUSH2 0x20A0 JUMP JUMPDEST PUSH1 0xD PUSH1 0x20 MSTORE PUSH0 SWAP1 DUP2 MSTORE PUSH1 0x40 SWAP1 KECCAK256 SLOAD DUP2 JUMP JUMPDEST PUSH1 0x40 MLOAD SWAP1 DUP2 MSTORE PUSH1 0x20 ADD PUSH2 0x264 JUMP JUMPDEST CALLVALUE DUP1 ISZERO PUSH2 0x310 JUMPI PUSH0 DUP1 REVERT JUMPDEST POP PUSH2 0x28C PUSH2 0x31F CALLDATASIZE PUSH1 0x4 PUSH2 0x20D7 JUMP JUMPDEST PUSH2 0x8B1 JUMP JUMPDEST CALLVALUE DUP1 ISZERO PUSH2 0x32F JUMPI PUSH0 DUP1 REVERT JUMPDEST POP PUSH2 0x3A6 PUSH2 0x33E CALLDATASIZE PUSH1 0x4 PUSH2 0x2054 JUMP JUMPDEST PUSH1 0xA PUSH1 0x20 SWAP1 DUP2 MSTORE PUSH0 SWAP3 DUP4 MSTORE PUSH1 0x40 DUP1 DUP5 KECCAK256 SWAP1 SWAP2 MSTORE SWAP1 DUP3 MSTORE SWAP1 KECCAK256 DUP1 SLOAD PUSH1 0x1 DUP3 ADD SLOAD PUSH1 0x2 DUP4 ADD SLOAD PUSH1 0x3 DUP5 ADD SLOAD PUSH1 0x4 DUP6 ADD SLOAD PUSH1 0x5 DUP7 ADD SLOAD PUSH1 0x6 DUP8 ADD SLOAD PUSH1 0x7 SWAP1 SWAP8 ADD SLOAD SWAP6 SWAP7 PUSH1 0x1 PUSH1 0x1 PUSH1 0xA0 SHL SUB SWAP6 DUP7 AND SWAP7 SWAP5 DUP7 AND SWAP6 SWAP4 SWAP5 SWAP3 SWAP4 SWAP2 SWAP3 PUSH1 0xFF DUP3 AND SWAP3 PUSH2 0x100 SWAP1 SWAP3 DIV SWAP1 SWAP2 AND SWAP1 DUP10 JUMP JUMPDEST PUSH1 0x40 DUP1 MLOAD SWAP10 DUP11 MSTORE PUSH1 0x1 PUSH1 0x1 PUSH1 0xA0 SHL SUB SWAP9 DUP10 AND PUSH1 0x20 DUP12 ADD MSTORE SWAP7 DUP9 AND SWAP7 DUP10 ADD SWAP7 SWAP1 SWAP7 MSTORE PUSH1 0x60 DUP9 ADD SWAP5 SWAP1 SWAP5 MSTORE PUSH1 0x80 DUP8 ADD SWAP3 SWAP1 SWAP3 MSTORE PUSH1 0xA0 DUP7 ADD MSTORE ISZERO ISZERO PUSH1 0xC0 DUP6 ADD MSTORE SWAP1 SWAP2 AND PUSH1 0xE0 DUP4 ADD MSTORE PUSH2 0x100 DUP3 ADD MSTORE PUSH2 0x120 ADD PUSH2 0x264 JUMP JUMPDEST CALLVALUE DUP1 ISZERO PUSH2 0x405 JUMPI PUSH0 DUP1 REVERT JUMPDEST POP PUSH2 0x2F7 PUSH2 0x414 CALLDATASIZE PUSH1 0x4 PUSH2 0x2125 JUMP JUMPDEST PUSH1 0x12 PUSH1 0x20 SWAP1 DUP2 MSTORE PUSH0 SWAP4 DUP5 MSTORE PUSH1 0x40 DUP1 DUP6 KECCAK256 DUP3 MSTORE SWAP3 DUP5 MSTORE DUP3 DUP5 KECCAK256 SWAP1 MSTORE DUP3 MSTORE SWAP1 KECCAK256 SLOAD DUP2 JUMP JUMPDEST CALLVALUE DUP1 ISZERO PUSH2 0x441 JUMPI PUSH0 DUP1 REVERT JUMPDEST POP PUSH2 0x455 PUSH2 0x450 CALLDATASIZE PUSH1 0x4 PUSH2 0x21F5 JUMP JUMPDEST PUSH2 0xB48 JUMP JUMPDEST PUSH1 0x40 MLOAD PUSH2 0x264 SWAP2 SWAP1 PUSH2 0x22F1 JUMP JUMPDEST CALLVALUE DUP1 ISZERO PUSH2 0x46D JUMPI PUSH0 DUP1 REVERT JUMPDEST POP PUSH2 0x28C PUSH2 0x47C CALLDATASIZE PUSH1 0x4 PUSH2 0x20A0 JUMP JUMPDEST PUSH2 0xE29 JUMP JUMPDEST PUSH2 0x28C PUSH2 0x48F CALLDATASIZE PUSH1 0x4 PUSH2 0x20B7 JUMP JUMPDEST PUSH2 0x117E JUMP JUMPDEST CALLVALUE DUP1 ISZERO PUSH2 0x49F JUMPI PUSH0 DUP1 REVERT JUMPDEST POP PUSH1 0x6 SLOAD PUSH2 0x4B3 SWAP1 PUSH1 0x1 PUSH1 0x1 PUSH1 0xA0 SHL SUB AND DUP2 JUMP JUMPDEST PUSH1 0x40 MLOAD PUSH1 0x1 PUSH1 0x1 PUSH1 0xA0 SHL SUB SWAP1 SWAP2 AND DUP2 MSTORE PUSH1 0x20 ADD PUSH2 0x264 JUMP JUMPDEST CALLVALUE DUP1 ISZERO PUSH2 0x4D6 JUMPI PUSH0 DUP1 REVERT JUMPDEST POP PUSH1 0x3 SLOAD PUSH2 0x2F7 SWAP1 DUP2 JUMP JUMPDEST CALLVALUE DUP1 ISZERO PUSH2 0x4EC JUMPI PUSH0 DUP1 REVERT JUMPDEST POP PUSH2 0x2F7 PUSH1 0x9 SLOAD DUP2 JUMP JUMPDEST CALLVALUE DUP1 ISZERO PUSH2 0x501 JUMPI PUSH0 DUP1 REVERT JUMPDEST POP PUSH2 0x2F7 PUSH2 0x510 CALLDATASIZE PUSH1 0x4 PUSH2 0x20A0 JUMP JUMPDEST PUSH1 0x10 PUSH1 0x20 MSTORE PUSH0 SWAP1 DUP2 MSTORE PUSH1 0x40 SWAP1 KECCAK256 SLOAD DUP2 JUMP JUMPDEST CALLVALUE DUP1 ISZERO PUSH2 0x52C JUMPI PUSH0 DUP1 REVERT JUMPDEST POP PUSH2 0x28C PUSH2 0x18AD JUMP JUMPDEST CALLVALUE DUP1 ISZERO PUSH2 0x540 JUMPI PUSH0 DUP1 REVERT JUMPDEST POP PUSH2 0x573 PUSH2 0x54F CALLDATASIZE PUSH1 0x4 PUSH2 0x20A0 JUMP JUMPDEST PUSH1 0xB PUSH1 0x20 MSTORE PUSH0 SWAP1 DUP2 MSTORE PUSH1 0x40 SWAP1 KECCAK256 DUP1 SLOAD PUSH1 0x1 SWAP1 SWAP2 ADD SLOAD PUSH1 0x1 PUSH1 0x1 PUSH1 0xA0 SHL SUB SWAP1 SWAP2 AND SWAP1 DUP3 JUMP JUMPDEST PUSH1 0x40 DUP1 MLOAD PUSH1 0x1 PUSH1 0x1 PUSH1 0xA0 SHL SUB SWAP1 SWAP4 AND DUP4 MSTORE PUSH1 0x20 DUP4 ADD SWAP2 SWAP1 SWAP2 MSTORE ADD PUSH2 0x264 JUMP JUMPDEST CALLVALUE DUP1 ISZERO PUSH2 0x59D JUMPI PUSH0 DUP1 REVERT JUMPDEST POP PUSH1 0x1 SLOAD PUSH1 0x1 PUSH1 0x1 PUSH1 0xA0 SHL SUB AND PUSH2 0x4B3 JUMP JUMPDEST CALLVALUE DUP1 ISZERO PUSH2 0x5BA JUMPI PUSH0 DUP1 REVERT JUMPDEST POP PUSH2 0x5C3 PUSH2 0x18C0 JUMP JUMPDEST PUSH1 0x40 MLOAD PUSH2 0x264 SWAP3 SWAP2 SWAP1 PUSH2 0x24A6 JUMP JUMPDEST CALLVALUE DUP1 ISZERO PUSH2 0x5DC JUMPI PUSH0 DUP1 REVERT JUMPDEST POP PUSH2 0x5F0 PUSH2 0x5EB CALLDATASIZE PUSH1 0x4 PUSH2 0x259E JUMP JUMPDEST PUSH2 0x1CBD JUMP JUMPDEST PUSH1 0x40 MLOAD PUSH2 0x264 SWAP6 SWAP5 SWAP4 SWAP3 SWAP2 SWAP1 PUSH2 0x25D0 JUMP JUMPDEST CALLVALUE DUP1 ISZERO PUSH2 0x60C JUMPI PUSH0 DUP1 REVERT JUMPDEST POP PUSH2 0x2F7 PUSH2 0x61B CALLDATASIZE PUSH1 0x4 PUSH2 0x2610 JUMP JUMPDEST PUSH1 0x11 PUSH1 0x20 SWAP1 DUP2 MSTORE PUSH0 SWAP5 DUP6 MSTORE PUSH1 0x40 DUP1 DUP7 KECCAK256 DUP3 MSTORE SWAP4 DUP6 MSTORE DUP4 DUP6 KECCAK256 DUP2 MSTORE SWAP2 DUP5 MSTORE DUP3 DUP5 KECCAK256 SWAP1 SWAP2 MSTORE DUP3 MSTORE SWAP1 KECCAK256 SLOAD DUP2 JUMP JUMPDEST CALLVALUE DUP1 ISZERO PUSH2 0x651 JUMPI PUSH0 DUP1 REVERT JUMPDEST POP PUSH2 0x2F7 PUSH1 0x8 SLOAD DUP2 JUMP JUMPDEST CALLVALUE DUP1 ISZERO PUSH2 0x666 JUMPI PUSH0 DUP1 REVERT JUMPDEST POP PUSH1 0x2 SLOAD PUSH2 0x2F7 SWAP1 DUP2 JUMP JUMPDEST CALLVALUE DUP1 ISZERO PUSH2 0x67C JUMPI PUSH0 DUP1 REVERT JUMPDEST POP PUSH2 0x573 PUSH2 0x68B CALLDATASIZE PUSH1 0x4 PUSH2 0x20A0 JUMP JUMPDEST PUSH1 0xE PUSH1 0x20 MSTORE PUSH0 SWAP1 DUP2 MSTORE PUSH1 0x40 SWAP1 KECCAK256 DUP1 SLOAD PUSH1 0x1 SWAP1 SWAP2 ADD SLOAD PUSH1 0x1 PUSH1 0x1 PUSH1 0xA0 SHL SUB SWAP1 SWAP2 AND SWAP1 DUP3 JUMP JUMPDEST CALLVALUE DUP1 ISZERO PUSH2 0x6BA JUMPI PUSH0 DUP1 REVERT JUMPDEST POP PUSH1 0x7 SLOAD PUSH2 0x4B3 SWAP1 PUSH1 0x1 PUSH1 0x1 PUSH1 0xA0 SHL SUB AND DUP2 JUMP JUMPDEST CALLVALUE DUP1 ISZERO PUSH2 0x6D9 JUMPI PUSH0 DUP1 REVERT JUMPDEST POP PUSH2 0x28C PUSH2 0x6E8 CALLDATASIZE PUSH1 0x4 PUSH2 0x207E JUMP JUMPDEST PUSH2 0x1D8C JUMP JUMPDEST CALLVALUE DUP1 ISZERO PUSH2 0x6F8 JUMPI PUSH0 DUP1 REVERT JUMPDEST POP PUSH2 0x28C PUSH2 0x707 CALLDATASIZE PUSH1 0x4 PUSH2 0x20A0 JUMP JUMPDEST PUSH2 0x1E02 JUMP JUMPDEST CALLVALUE DUP1 ISZERO PUSH2 0x717 JUMPI PUSH0 DUP1 REVERT JUMPDEST POP PUSH2 0x28C PUSH2 0x726 CALLDATASIZE PUSH1 0x4 PUSH2 0x207E JUMP JUMPDEST PUSH2 0x1E0F JUMP JUMPDEST PUSH2 0x733 PUSH2 0x1E39 JUMP JUMPDEST PUSH1 0x7 DUP1 SLOAD PUSH1 0x1 PUSH1 0x1 PUSH1 0xA0 SHL SUB NOT AND PUSH1 0x1 PUSH1 0x1 PUSH1 0xA0 SHL SUB SWAP3 SWAP1 SWAP3 AND SWAP2 SWAP1 SWAP2 OR SWAP1 SSTORE JUMP JUMPDEST PUSH2 0x75D PUSH2 0x1E39 JUMP JUMPDEST PUSH1 0x9 SSTORE JUMP JUMPDEST PUSH2 0x76A PUSH2 0x1E93 JUMP JUMPDEST PUSH0 DUP3 DUP2 MSTORE PUSH1 0xB PUSH1 0x20 SWAP1 DUP2 MSTORE PUSH1 0x40 DUP1 DUP4 KECCAK256 DUP1 SLOAD PUSH1 0x1 PUSH1 0x1 PUSH1 0xA0 SHL SUB AND DUP5 MSTORE PUSH1 0xA DUP4 MSTORE DUP2 DUP5 KECCAK256 PUSH1 0x1 SWAP1 SWAP2 ADD SLOAD DUP5 MSTORE SWAP1 SWAP2 MSTORE SWAP1 KECCAK256 PUSH1 0x6 ADD SLOAD PUSH1 0xFF AND PUSH2 0x7EB JUMPI PUSH1 0x40 MLOAD PUSH3 0x461BCD PUSH1 0xE5 SHL DUP2 MSTORE PUSH1 0x20 PUSH1 0x4 DUP3 ADD MSTORE PUSH1 0x15 PUSH1 0x24 DUP3 ADD MSTORE PUSH21 0x506C65617365204C69737420466972737420212121 PUSH1 0x58 SHL PUSH1 0x44 DUP3 ADD MSTORE PUSH1 0x64 ADD JUMPDEST PUSH1 0x40 MLOAD DUP1 SWAP2 SUB SWAP1 REVERT JUMPDEST PUSH0 DUP3 DUP2 MSTORE PUSH1 0xB PUSH1 0x20 SWAP1 DUP2 MSTORE PUSH1 0x40 DUP1 DUP4 KECCAK256 DUP1 SLOAD PUSH1 0x1 PUSH1 0x1 PUSH1 0xA0 SHL SUB SWAP1 DUP2 AND DUP6 MSTORE PUSH1 0xA DUP5 MSTORE DUP3 DUP6 KECCAK256 PUSH1 0x1 SWAP3 DUP4 ADD SLOAD DUP7 MSTORE SWAP1 SWAP4 MSTORE SWAP3 KECCAK256 SWAP1 SWAP2 ADD SLOAD AND CALLER EQ PUSH2 0x871 JUMPI PUSH1 0x40 MLOAD PUSH3 0x461BCD PUSH1 0xE5 SHL DUP2 MSTORE PUSH1 0x20 PUSH1 0x4 DUP3 ADD MSTORE PUSH1 0x1D PUSH1 0x24 DUP3 ADD MSTORE PUSH32 0x596F7520617265206E6F74206F776E6572206F662074686973204E4654000000 PUSH1 0x44 DUP3 ADD MSTORE PUSH1 0x64 ADD PUSH2 0x7E2 JUMP JUMPDEST PUSH0 SWAP2 DUP3 MSTORE PUSH1 0xB PUSH1 0x20 SWAP1 DUP2 MSTORE PUSH1 0x40 DUP1 DUP5 KECCAK256 DUP1 SLOAD PUSH1 0x1 PUSH1 0x1 PUSH1 0xA0 SHL SUB AND DUP6 MSTORE PUSH1 0xA DUP4 MSTORE DUP2 DUP6 KECCAK256 PUSH1 0x1 SWAP2 DUP3 ADD SLOAD DUP7 MSTORE SWAP1 SWAP3 MSTORE DUP4 KECCAK256 PUSH1 0x3 ADD SWAP2 SWAP1 SWAP2 SSTORE SWAP1 SSTORE JUMP JUMPDEST POP POP JUMP JUMPDEST PUSH2 0x8B9 PUSH2 0x1E93 JUMP JUMPDEST PUSH1 0x1 PUSH1 0x1 PUSH1 0xA0 SHL SUB DUP6 AND PUSH0 SWAP1 DUP2 MSTORE PUSH1 0xA PUSH1 0x20 SWAP1 DUP2 MSTORE PUSH1 0x40 DUP1 DUP4 KECCAK256 DUP7 DUP5 MSTORE SWAP1 SWAP2 MSTORE SWAP1 KECCAK256 PUSH1 0x6 ADD SLOAD PUSH1 0xFF AND ISZERO PUSH2 0x92F JUMPI PUSH1 0x40 MLOAD PUSH3 0x461BCD PUSH1 0xE5 SHL DUP2 MSTORE PUSH1 0x20 PUSH1 0x4 DUP3 ADD MSTORE PUSH1 0x1E PUSH1 0x24 DUP3 ADD MSTORE PUSH32 0x416C7265616479204C697374656420496E204D61726B6574706C616365210000 PUSH1 0x44 DUP3 ADD MSTORE PUSH1 0x64 ADD PUSH2 0x7E2 JUMP JUMPDEST PUSH2 0x93D PUSH1 0x2 DUP1 SLOAD PUSH1 0x1 ADD SWAP1 SSTORE JUMP JUMPDEST PUSH1 0x40 MLOAD DUP1 PUSH2 0x120 ADD PUSH1 0x40 MSTORE DUP1 DUP5 DUP2 MSTORE PUSH1 0x20 ADD CALLER PUSH1 0x1 PUSH1 0x1 PUSH1 0xA0 SHL SUB AND DUP2 MSTORE PUSH1 0x20 ADD ADDRESS PUSH1 0x1 PUSH1 0x1 PUSH1 0xA0 SHL SUB AND DUP2 MSTORE PUSH1 0x20 ADD DUP6 DUP2 MSTORE PUSH1 0x20 ADD PUSH2 0x97C PUSH1 0x2 SLOAD SWAP1 JUMP JUMPDEST DUP2 MSTORE TIMESTAMP PUSH1 0x20 DUP1 DUP4 ADD SWAP2 SWAP1 SWAP2 MSTORE PUSH1 0x1 PUSH1 0x40 DUP1 DUP5 ADD DUP3 SWAP1 MSTORE PUSH1 0x1 PUSH1 0x1 PUSH1 0xA0 SHL SUB DUP8 DUP2 AND PUSH1 0x60 DUP1 DUP8 ADD SWAP2 SWAP1 SWAP2 MSTORE PUSH1 0x80 SWAP6 DUP7 ADD DUP9 SWAP1 MSTORE DUP12 DUP3 AND PUSH0 DUP2 DUP2 MSTORE PUSH1 0xA DUP8 MSTORE DUP5 DUP2 KECCAK256 DUP13 DUP3 MSTORE DUP8 MSTORE DUP5 DUP2 KECCAK256 DUP10 MLOAD DUP2 SSTORE DUP10 DUP9 ADD MLOAD DUP2 DUP9 ADD DUP1 SLOAD PUSH1 0x1 PUSH1 0x1 PUSH1 0xA0 SHL SUB NOT SWAP1 DUP2 AND SWAP3 DUP9 AND SWAP3 SWAP1 SWAP3 OR SWAP1 SSTORE DUP11 DUP8 ADD MLOAD PUSH1 0x2 DUP1 DUP5 ADD DUP1 SLOAD DUP5 AND SWAP3 DUP10 AND SWAP3 SWAP1 SWAP3 OR SWAP1 SWAP2 SSTORE SWAP5 DUP12 ADD MLOAD PUSH1 0x3 DUP4 ADD SSTORE SWAP9 DUP11 ADD MLOAD PUSH1 0x4 DUP1 DUP4 ADD SWAP2 SWAP1 SWAP2 SSTORE PUSH1 0xA0 DUP12 ADD MLOAD PUSH1 0x5 DUP4 ADD SSTORE PUSH1 0xC0 DUP12 ADD MLOAD PUSH1 0x6 DUP4 ADD DUP1 SLOAD PUSH1 0xE0 DUP15 ADD MLOAD PUSH1 0x1 PUSH1 0x1 PUSH1 0xA8 SHL SUB NOT SWAP1 SWAP2 AND SWAP3 ISZERO ISZERO PUSH2 0x100 PUSH1 0x1 PUSH1 0xA8 SHL SUB NOT AND SWAP3 SWAP1 SWAP3 OR PUSH2 0x100 SWAP3 DUP10 AND DUP4 MUL OR SWAP1 SSTORE SWAP1 SWAP11 ADD MLOAD PUSH1 0x7 SWAP1 SWAP2 ADD SSTORE DUP5 MLOAD DUP1 DUP7 ADD DUP7 MSTORE DUP3 DUP2 MSTORE DUP1 DUP9 ADD DUP14 DUP2 MSTORE SWAP4 SLOAD DUP3 MSTORE PUSH1 0xB SWAP1 SWAP8 MSTORE DUP5 DUP2 KECCAK256 SWAP7 MLOAD DUP8 SLOAD SWAP1 SWAP9 AND SWAP8 SWAP1 SWAP4 AND SWAP7 SWAP1 SWAP7 OR DUP6 SSTORE MLOAD SWAP4 SWAP1 SWAP3 ADD SWAP3 SWAP1 SWAP3 SSTORE DUP2 MLOAD PUSH4 0x23B872DD PUSH1 0xE0 SHL DUP2 MSTORE CALLER SWAP5 DUP2 ADD SWAP5 SWAP1 SWAP5 MSTORE ADDRESS PUSH1 0x24 DUP6 ADD MSTORE PUSH1 0x44 DUP5 ADD DUP8 SWAP1 MSTORE SWAP1 MLOAD SWAP2 SWAP3 PUSH4 0x23B872DD SWAP3 PUSH1 0x64 DUP1 DUP4 ADD SWAP4 SWAP3 DUP3 SWAP1 SUB ADD DUP2 DUP4 DUP8 DUP1 EXTCODESIZE ISZERO DUP1 ISZERO PUSH2 0xADC JUMPI PUSH0 DUP1 REVERT JUMPDEST POP GAS CALL ISZERO DUP1 ISZERO PUSH2 0xAEE JUMPI RETURNDATASIZE PUSH0 DUP1 RETURNDATACOPY RETURNDATASIZE PUSH0 REVERT JUMPDEST POP POP PUSH1 0x40 DUP1 MLOAD DUP7 DUP2 MSTORE CALLER PUSH1 0x20 DUP3 ADD MSTORE ADDRESS DUP2 DUP4 ADD MSTORE PUSH1 0x60 DUP2 ADD DUP9 SWAP1 MSTORE SWAP1 MLOAD PUSH32 0x62AF98DBC3627E85C5EB929B032D3CE3D6C376652D71B4CCA6162A16EF099114 SWAP4 POP SWAP1 DUP2 SWAP1 SUB PUSH1 0x80 ADD SWAP2 POP LOG1 PUSH2 0xB41 PUSH1 0x1 PUSH0 SSTORE JUMP JUMPDEST POP POP POP POP POP JUMP JUMPDEST PUSH1 0x60 PUSH0 DUP3 MLOAD PUSH8 0xFFFFFFFFFFFFFFFF DUP2 GT ISZERO PUSH2 0xB65 JUMPI PUSH2 0xB65 PUSH2 0x2164 JUMP JUMPDEST PUSH1 0x40 MLOAD SWAP1 DUP1 DUP3 MSTORE DUP1 PUSH1 0x20 MUL PUSH1 0x20 ADD DUP3 ADD PUSH1 0x40 MSTORE DUP1 ISZERO PUSH2 0xB98 JUMPI DUP2 PUSH1 0x20 ADD JUMPDEST PUSH1 0x60 DUP2 MSTORE PUSH1 0x20 ADD SWAP1 PUSH1 0x1 SWAP1 SUB SWAP1 DUP2 PUSH2 0xB83 JUMPI SWAP1 POP JUMPDEST POP SWAP1 POP PUSH0 JUMPDEST DUP4 MLOAD DUP2 LT ISZERO PUSH2 0xE1F JUMPI PUSH0 DUP5 DUP3 DUP2 MLOAD DUP2 LT PUSH2 0xBB9 JUMPI PUSH2 0xBB9 PUSH2 0x2655 JUMP JUMPDEST PUSH1 0x20 SWAP1 DUP2 MUL SWAP2 SWAP1 SWAP2 ADD ADD MLOAD PUSH1 0x40 MLOAD PUSH4 0x78A9BB43 PUSH1 0xE1 SHL DUP2 MSTORE PUSH1 0x1 PUSH1 0x1 PUSH1 0xA0 SHL SUB DUP9 DUP2 AND PUSH1 0x4 DUP4 ADD MSTORE SWAP1 SWAP2 AND SWAP1 PUSH4 0xF1537686 SWAP1 PUSH1 0x24 ADD PUSH0 PUSH1 0x40 MLOAD DUP1 DUP4 SUB DUP2 DUP7 GAS STATICCALL ISZERO DUP1 ISZERO PUSH2 0xC08 JUMPI RETURNDATASIZE PUSH0 DUP1 RETURNDATACOPY RETURNDATASIZE PUSH0 REVERT JUMPDEST POP POP POP POP PUSH1 0x40 MLOAD RETURNDATASIZE PUSH0 DUP3 RETURNDATACOPY PUSH1 0x1F RETURNDATASIZE SWAP1 DUP2 ADD PUSH1 0x1F NOT AND DUP3 ADD PUSH1 0x40 MSTORE PUSH2 0xC2F SWAP2 SWAP1 DUP2 ADD SWAP1 PUSH2 0x26D2 JUMP JUMPDEST SWAP1 POP DUP1 MLOAD PUSH8 0xFFFFFFFFFFFFFFFF DUP2 GT ISZERO PUSH2 0xC4B JUMPI PUSH2 0xC4B PUSH2 0x2164 JUMP JUMPDEST PUSH1 0x40 MLOAD SWAP1 DUP1 DUP3 MSTORE DUP1 PUSH1 0x20 MUL PUSH1 0x20 ADD DUP3 ADD PUSH1 0x40 MSTORE DUP1 ISZERO PUSH2 0xCC2 JUMPI DUP2 PUSH1 0x20 ADD JUMPDEST PUSH2 0xCAF PUSH1 0x40 MLOAD DUP1 PUSH1 0xC0 ADD PUSH1 0x40 MSTORE DUP1 PUSH0 DUP2 MSTORE PUSH1 0x20 ADD PUSH0 DUP2 MSTORE PUSH1 0x20 ADD PUSH0 PUSH1 0x1 PUSH1 0x1 PUSH1 0xA0 SHL SUB AND DUP2 MSTORE PUSH1 0x20 ADD PUSH0 PUSH1 0x1 PUSH1 0x1 PUSH1 0xA0 SHL SUB AND DUP2 MSTORE PUSH1 0x20 ADD PUSH0 DUP2 MSTORE PUSH1 0x20 ADD PUSH1 0x60 DUP2 MSTORE POP SWAP1 JUMP JUMPDEST DUP2 MSTORE PUSH1 0x20 ADD SWAP1 PUSH1 0x1 SWAP1 SUB SWAP1 DUP2 PUSH2 0xC69 JUMPI SWAP1 POP JUMPDEST POP DUP4 DUP4 DUP2 MLOAD DUP2 LT PUSH2 0xCD5 JUMPI PUSH2 0xCD5 PUSH2 0x2655 JUMP JUMPDEST PUSH1 0x20 MUL PUSH1 0x20 ADD ADD DUP2 SWAP1 MSTORE POP PUSH0 JUMPDEST DUP2 MLOAD DUP2 LT ISZERO PUSH2 0xE15 JUMPI PUSH1 0x40 MLOAD DUP1 PUSH1 0xC0 ADD PUSH1 0x40 MSTORE DUP1 DUP4 DUP4 DUP2 MLOAD DUP2 LT PUSH2 0xD08 JUMPI PUSH2 0xD08 PUSH2 0x2655 JUMP JUMPDEST PUSH1 0x20 MUL PUSH1 0x20 ADD ADD MLOAD PUSH0 ADD MLOAD DUP2 MSTORE PUSH1 0x20 ADD DUP4 DUP4 DUP2 MLOAD DUP2 LT PUSH2 0xD2A JUMPI PUSH2 0xD2A PUSH2 0x2655 JUMP JUMPDEST PUSH1 0x20 MUL PUSH1 0x20 ADD ADD MLOAD PUSH1 0x20 ADD MLOAD DUP2 MSTORE PUSH1 0x20 ADD DUP4 DUP4 DUP2 MLOAD DUP2 LT PUSH2 0xD4D JUMPI PUSH2 0xD4D PUSH2 0x2655 JUMP JUMPDEST PUSH1 0x20 MUL PUSH1 0x20 ADD ADD MLOAD PUSH1 0x40 ADD MLOAD PUSH1 0x1 PUSH1 0x1 PUSH1 0xA0 SHL SUB AND DUP2 MSTORE PUSH1 0x20 ADD DUP4 DUP4 DUP2 MLOAD DUP2 LT PUSH2 0xD79 JUMPI PUSH2 0xD79 PUSH2 0x2655 JUMP JUMPDEST PUSH1 0x20 MUL PUSH1 0x20 ADD ADD MLOAD PUSH1 0x60 ADD MLOAD PUSH1 0x1 PUSH1 0x1 PUSH1 0xA0 SHL SUB AND DUP2 MSTORE PUSH1 0x20 ADD DUP4 DUP4 DUP2 MLOAD DUP2 LT PUSH2 0xDA5 JUMPI PUSH2 0xDA5 PUSH2 0x2655 JUMP JUMPDEST PUSH1 0x20 MUL PUSH1 0x20 ADD ADD MLOAD PUSH1 0x80 ADD MLOAD DUP2 MSTORE PUSH1 0x20 ADD DUP4 DUP4 DUP2 MLOAD DUP2 LT PUSH2 0xDC8 JUMPI PUSH2 0xDC8 PUSH2 0x2655 JUMP JUMPDEST PUSH1 0x20 MUL PUSH1 0x20 ADD ADD MLOAD PUSH1 0xA0 ADD MLOAD DUP2 MSTORE POP DUP5 DUP5 DUP2 MLOAD DUP2 LT PUSH2 0xDE9 JUMPI PUSH2 0xDE9 PUSH2 0x2655 JUMP JUMPDEST PUSH1 0x20 MUL PUSH1 0x20 ADD ADD MLOAD DUP3 DUP2 MLOAD DUP2 LT PUSH2 0xE02 JUMPI PUSH2 0xE02 PUSH2 0x2655 JUMP JUMPDEST PUSH1 0x20 SWAP1 DUP2 MUL SWAP2 SWAP1 SWAP2 ADD ADD MSTORE PUSH1 0x1 ADD PUSH2 0xCE2 JUMP JUMPDEST POP POP PUSH1 0x1 ADD PUSH2 0xB9D JUMP JUMPDEST POP SWAP1 POP JUMPDEST SWAP3 SWAP2 POP POP JUMP JUMPDEST PUSH2 0xE31 PUSH2 0x1E93 JUMP JUMPDEST PUSH0 DUP2 DUP2 MSTORE PUSH1 0xB PUSH1 0x20 SWAP1 DUP2 MSTORE PUSH1 0x40 DUP1 DUP4 KECCAK256 DUP1 SLOAD PUSH1 0x1 PUSH1 0x1 PUSH1 0xA0 SHL SUB AND DUP5 MSTORE PUSH1 0xA DUP4 MSTORE DUP2 DUP5 KECCAK256 PUSH1 0x1 SWAP1 SWAP2 ADD SLOAD DUP5 MSTORE SWAP1 SWAP2 MSTORE SWAP1 KECCAK256 PUSH1 0x6 ADD SLOAD PUSH1 0xFF AND PUSH2 0xEAD JUMPI PUSH1 0x40 MLOAD PUSH3 0x461BCD PUSH1 0xE5 SHL DUP2 MSTORE PUSH1 0x20 PUSH1 0x4 DUP3 ADD MSTORE PUSH1 0x15 PUSH1 0x24 DUP3 ADD MSTORE PUSH21 0x506C65617365204C69737420466972737420212121 PUSH1 0x58 SHL PUSH1 0x44 DUP3 ADD MSTORE PUSH1 0x64 ADD PUSH2 0x7E2 JUMP JUMPDEST PUSH0 DUP2 DUP2 MSTORE PUSH1 0xB PUSH1 0x20 SWAP1 DUP2 MSTORE PUSH1 0x40 DUP1 DUP4 KECCAK256 DUP1 SLOAD PUSH1 0x1 PUSH1 0x1 PUSH1 0xA0 SHL SUB SWAP1 DUP2 AND DUP6 MSTORE PUSH1 0xA DUP5 MSTORE DUP3 DUP6 KECCAK256 PUSH1 0x1 SWAP3 DUP4 ADD SLOAD DUP7 MSTORE SWAP1 SWAP4 MSTORE SWAP3 KECCAK256 SWAP1 SWAP2 ADD SLOAD AND CALLER EQ PUSH2 0xF33 JUMPI PUSH1 0x40 MLOAD PUSH3 0x461BCD PUSH1 0xE5 SHL DUP2 MSTORE PUSH1 0x20 PUSH1 0x4 DUP3 ADD MSTORE PUSH1 0x1D PUSH1 0x24 DUP3 ADD MSTORE PUSH32 0x596F7520617265206E6F74206F776E6572206F662074686973204E4654000000 PUSH1 0x44 DUP3 ADD MSTORE PUSH1 0x64 ADD PUSH2 0x7E2 JUMP JUMPDEST PUSH0 DUP2 DUP2 MSTORE PUSH1 0xB PUSH1 0x20 DUP2 DUP2 MSTORE PUSH1 0x40 DUP1 DUP5 KECCAK256 DUP1 SLOAD PUSH1 0x1 PUSH1 0x1 PUSH1 0xA0 SHL SUB SWAP1 DUP2 AND DUP7 MSTORE PUSH1 0xA DUP5 MSTORE DUP3 DUP7 KECCAK256 PUSH1 0x1 DUP1 DUP5 ADD DUP1 SLOAD DUP10 MSTORE SWAP2 DUP7 MSTORE DUP5 DUP9 KECCAK256 SWAP1 DUP2 ADD SLOAD PUSH1 0x2 SWAP1 SWAP2 ADD DUP1 SLOAD PUSH1 0x1 PUSH1 0x1 PUSH1 0xA0 SHL SUB NOT AND SWAP2 DUP5 AND SWAP2 SWAP1 SWAP2 OR SWAP1 SSTORE SWAP6 DUP8 SWAP1 MSTORE SWAP4 SWAP1 SWAP3 MSTORE SWAP1 SLOAD SWAP3 SLOAD SWAP1 MLOAD PUSH4 0x23B872DD PUSH1 0xE0 SHL DUP2 MSTORE ADDRESS PUSH1 0x4 DUP3 ADD MSTORE CALLER PUSH1 0x24 DUP3 ADD MSTORE PUSH1 0x44 DUP2 ADD SWAP2 SWAP1 SWAP2 MSTORE SWAP2 AND SWAP1 PUSH4 0x23B872DD SWAP1 PUSH1 0x64 ADD PUSH0 PUSH1 0x40 MLOAD DUP1 DUP4 SUB DUP2 PUSH0 DUP8 DUP1 EXTCODESIZE ISZERO DUP1 ISZERO PUSH2 0xFD5 JUMPI PUSH0 DUP1 REVERT JUMPDEST POP GAS CALL ISZERO DUP1 ISZERO PUSH2 0xFE7 JUMPI RETURNDATASIZE PUSH0 DUP1 RETURNDATACOPY RETURNDATASIZE PUSH0 REVERT JUMPDEST POP POP POP PUSH0 DUP3 DUP2 MSTORE PUSH1 0xB PUSH1 0x20 DUP2 DUP2 MSTORE PUSH1 0x40 DUP1 DUP5 KECCAK256 DUP1 SLOAD PUSH1 0x1 PUSH1 0x1 PUSH1 0xA0 SHL SUB AND DUP6 MSTORE PUSH1 0xA DUP1 DUP5 MSTORE DUP3 DUP7 KECCAK256 PUSH1 0x1 SWAP1 SWAP3 ADD SLOAD DUP7 MSTORE SWAP3 MSTORE DUP4 KECCAK256 PUSH1 0x6 ADD DUP1 SLOAD PUSH1 0xFF NOT AND SWAP1 SSTORE DUP5 SWAP4 POP SWAP2 SWAP1 DUP2 PUSH2 0x1035 PUSH1 0x2 SLOAD SWAP1 JUMP JUMPDEST DUP2 MSTORE PUSH1 0x20 DUP1 DUP3 ADD SWAP3 SWAP1 SWAP3 MSTORE PUSH1 0x40 SWAP1 DUP2 ADD PUSH0 SWAP1 DUP2 KECCAK256 SLOAD PUSH1 0x1 PUSH1 0x1 PUSH1 0xA0 SHL SUB AND DUP5 MSTORE SWAP2 DUP4 ADD SWAP4 SWAP1 SWAP4 MSTORE SWAP2 ADD DUP2 KECCAK256 SWAP1 PUSH1 0xB DUP2 PUSH2 0x106D PUSH1 0x2 SLOAD SWAP1 JUMP JUMPDEST DUP2 MSTORE PUSH1 0x20 ADD SWAP1 DUP2 MSTORE PUSH1 0x20 ADD PUSH0 KECCAK256 PUSH1 0x1 ADD SLOAD DUP2 MSTORE PUSH1 0x20 ADD SWAP1 DUP2 MSTORE PUSH1 0x20 ADD PUSH0 KECCAK256 PUSH1 0x4 ADD DUP2 SWAP1 SSTORE POP PUSH1 0xB PUSH0 PUSH2 0x109E PUSH1 0x2 SLOAD SWAP1 JUMP JUMPDEST DUP2 MSTORE PUSH1 0x20 DUP1 DUP3 ADD SWAP3 SWAP1 SWAP3 MSTORE PUSH1 0x40 SWAP1 DUP2 ADD PUSH0 SWAP1 DUP2 KECCAK256 DUP5 DUP3 MSTORE PUSH1 0xB SWAP1 SWAP4 MSTORE KECCAK256 DUP2 SLOAD DUP2 SLOAD PUSH1 0x1 PUSH1 0x1 PUSH1 0xA0 SHL SUB NOT AND PUSH1 0x1 PUSH1 0x1 PUSH1 0xA0 SHL SUB SWAP1 SWAP2 AND OR DUP2 SSTORE PUSH1 0x1 SWAP2 DUP3 ADD SLOAD SWAP2 ADD SSTORE PUSH2 0x10EA PUSH1 0x2 PUSH2 0x1EEA JUMP JUMPDEST PUSH0 DUP2 DUP2 MSTORE PUSH1 0xB PUSH1 0x20 SWAP1 DUP2 MSTORE PUSH1 0x40 DUP1 DUP4 KECCAK256 DUP1 SLOAD PUSH1 0x1 PUSH1 0x1 PUSH1 0xA0 SHL SUB SWAP1 DUP2 AND DUP6 MSTORE PUSH1 0xA DUP5 MSTORE DUP3 DUP6 KECCAK256 PUSH1 0x1 SWAP3 DUP4 ADD SLOAD DUP7 MSTORE DUP5 MSTORE SWAP4 DUP3 SWAP1 KECCAK256 DUP1 SLOAD SWAP2 DUP2 ADD SLOAD PUSH1 0x3 SWAP1 SWAP2 ADD SLOAD DUP4 MLOAD SWAP3 DUP4 MSTORE SWAP5 AND SWAP3 DUP2 ADD SWAP3 SWAP1 SWAP3 MSTORE CALLER SWAP1 DUP3 ADD MSTORE PUSH1 0x60 DUP2 ADD SWAP2 SWAP1 SWAP2 MSTORE PUSH32 0xFB0451E2371B977DB14CE8DB0BD62262E6FF8FE4B5960280928BA94E02443603 SWAP1 PUSH1 0x80 ADD PUSH1 0x40 MLOAD DUP1 SWAP2 SUB SWAP1 LOG1 PUSH2 0x117B PUSH1 0x1 PUSH0 SSTORE JUMP JUMPDEST POP JUMP JUMPDEST PUSH2 0x1186 PUSH2 0x1E93 JUMP JUMPDEST PUSH0 DUP3 DUP2 MSTORE PUSH1 0xB PUSH1 0x20 SWAP1 DUP2 MSTORE PUSH1 0x40 DUP1 DUP4 KECCAK256 DUP1 SLOAD PUSH1 0x1 PUSH1 0x1 PUSH1 0xA0 SHL SUB SWAP1 DUP2 AND DUP6 MSTORE PUSH1 0xA DUP5 MSTORE DUP3 DUP6 KECCAK256 PUSH1 0x1 SWAP3 DUP4 ADD SLOAD DUP7 MSTORE SWAP1 SWAP4 MSTORE SWAP3 KECCAK256 SWAP1 SWAP2 ADD SLOAD CALLER SWAP2 AND SUB PUSH2 0x1219 JUMPI PUSH1 0x40 MLOAD PUSH3 0x461BCD PUSH1 0xE5 SHL DUP2 MSTORE PUSH1 0x20 PUSH1 0x4 DUP3 ADD MSTORE PUSH1 0x23 PUSH1 0x24 DUP3 ADD MSTORE PUSH32 0x416E206F666665722063616E6E6F742062757920746869732053656C6C657220 PUSH1 0x44 DUP3 ADD MSTORE PUSH3 0x212121 PUSH1 0xE8 SHL PUSH1 0x64 DUP3 ADD MSTORE PUSH1 0x84 ADD PUSH2 0x7E2 JUMP JUMPDEST PUSH0 DUP3 DUP2 MSTORE PUSH1 0xB PUSH1 0x20 SWAP1 DUP2 MSTORE PUSH1 0x40 DUP1 DUP4 KECCAK256 DUP1 SLOAD PUSH1 0x1 PUSH1 0x1 PUSH1 0xA0 SHL SUB AND DUP5 MSTORE PUSH1 0xA DUP4 MSTORE DUP2 DUP5 KECCAK256 PUSH1 0x1 SWAP1 SWAP2 ADD SLOAD DUP5 MSTORE SWAP1 SWAP2 MSTORE SWAP1 KECCAK256 PUSH1 0x3 ADD SLOAD DUP2 EQ PUSH2 0x12AF JUMPI PUSH1 0x40 MLOAD PUSH3 0x461BCD PUSH1 0xE5 SHL DUP2 MSTORE PUSH1 0x20 PUSH1 0x4 DUP3 ADD MSTORE PUSH1 0x2A PUSH1 0x24 DUP3 ADD MSTORE PUSH32 0x4E6F7420656E6F75676820657468657220746F20636F7665722061736B696E67 PUSH1 0x44 DUP3 ADD MSTORE PUSH10 0x20707269636520212121 PUSH1 0xB0 SHL PUSH1 0x64 DUP3 ADD MSTORE PUSH1 0x84 ADD PUSH2 0x7E2 JUMP JUMPDEST PUSH0 DUP3 DUP2 MSTORE PUSH1 0xB PUSH1 0x20 MSTORE PUSH1 0x40 SWAP1 DUP2 SWAP1 KECCAK256 DUP1 SLOAD PUSH1 0x1 SWAP1 SWAP2 ADD SLOAD SWAP2 MLOAD PUSH4 0x23B872DD PUSH1 0xE0 SHL DUP2 MSTORE ADDRESS PUSH1 0x4 DUP3 ADD MSTORE CALLER PUSH1 0x24 DUP3 ADD MSTORE PUSH1 0x44 DUP2 ADD SWAP3 SWAP1 SWAP3 MSTORE PUSH1 0x1 PUSH1 0x1 PUSH1 0xA0 SHL SUB AND SWAP1 PUSH4 0x23B872DD SWAP1 PUSH1 0x64 ADD PUSH0 PUSH1 0x40 MLOAD DUP1 DUP4 SUB DUP2 PUSH0 DUP8 DUP1 EXTCODESIZE ISZERO DUP1 ISZERO PUSH2 0x1310 JUMPI PUSH0 DUP1 REVERT JUMPDEST POP GAS CALL ISZERO DUP1 ISZERO PUSH2 0x1322 JUMPI RETURNDATASIZE PUSH0 DUP1 RETURNDATACOPY RETURNDATASIZE PUSH0 REVERT JUMPDEST POP POP POP PUSH0 DUP4 DUP2 MSTORE PUSH1 0xB PUSH1 0x20 SWAP1 DUP2 MSTORE PUSH1 0x40 DUP1 DUP4 KECCAK256 DUP1 SLOAD PUSH1 0x1 SWAP2 DUP3 ADD SLOAD PUSH1 0x1 PUSH1 0x1 PUSH1 0xA0 SHL SUB SWAP2 DUP3 AND DUP1 DUP8 MSTORE PUSH1 0xA DUP7 MSTORE DUP5 DUP8 KECCAK256 DUP3 DUP9 MSTORE SWAP1 SWAP6 MSTORE SWAP5 DUP4 SWAP1 KECCAK256 SWAP1 SWAP2 ADD SLOAD SWAP2 MLOAD PUSH4 0x6E0CEE09 PUSH1 0xE0 SHL DUP2 MSTORE CALLER PUSH1 0x4 DUP3 ADD MSTORE PUSH1 0x24 DUP2 ADD SWAP5 SWAP1 SWAP5 MSTORE AND PUSH1 0x44 DUP4 ADD MSTORE SWAP2 POP PUSH4 0x6E0CEE09 SWAP1 PUSH1 0x64 ADD PUSH0 PUSH1 0x40 MLOAD DUP1 DUP4 SUB DUP2 PUSH0 DUP8 DUP1 EXTCODESIZE ISZERO DUP1 ISZERO PUSH2 0x13A2 JUMPI PUSH0 DUP1 REVERT JUMPDEST POP GAS CALL ISZERO DUP1 ISZERO PUSH2 0x13B4 JUMPI RETURNDATASIZE PUSH0 DUP1 RETURNDATACOPY RETURNDATASIZE PUSH0 REVERT JUMPDEST POP POP PUSH1 0x8 SLOAD PUSH0 DUP6 DUP2 MSTORE PUSH1 0xB PUSH1 0x20 SWAP1 DUP2 MSTORE PUSH1 0x40 DUP1 DUP4 KECCAK256 DUP1 SLOAD PUSH1 0x1 PUSH1 0x1 PUSH1 0xA0 SHL SUB AND DUP5 MSTORE PUSH1 0xA DUP4 MSTORE DUP2 DUP5 KECCAK256 PUSH1 0x1 SWAP1 SWAP2 ADD SLOAD DUP5 MSTORE SWAP1 SWAP2 MSTORE DUP2 KECCAK256 PUSH1 0x3 ADD SLOAD SWAP1 SWAP4 POP PUSH2 0x3E8 SWAP3 POP PUSH2 0x1400 SWAP2 SWAP1 PUSH2 0x2809 JUMP JUMPDEST PUSH2 0x140A SWAP2 SWAP1 PUSH2 0x2820 JUMP JUMPDEST PUSH1 0x9 SLOAD PUSH0 DUP6 DUP2 MSTORE PUSH1 0xB PUSH1 0x20 SWAP1 DUP2 MSTORE PUSH1 0x40 DUP1 DUP4 KECCAK256 DUP1 SLOAD PUSH1 0x1 PUSH1 0x1 PUSH1 0xA0 SHL SUB AND DUP5 MSTORE PUSH1 0xA DUP4 MSTORE DUP2 DUP5 KECCAK256 PUSH1 0x1 SWAP1 SWAP2 ADD SLOAD DUP5 MSTORE SWAP1 SWAP2 MSTORE DUP2 KECCAK256 PUSH1 0x3 ADD SLOAD SWAP3 SWAP4 POP SWAP2 PUSH2 0x3E8 SWAP2 PUSH2 0x1453 SWAP2 PUSH2 0x2809 JUMP JUMPDEST PUSH2 0x145D SWAP2 SWAP1 PUSH2 0x2820 JUMP JUMPDEST PUSH0 DUP6 DUP2 MSTORE PUSH1 0xB PUSH1 0x20 SWAP1 DUP2 MSTORE PUSH1 0x40 DUP1 DUP4 KECCAK256 DUP1 SLOAD PUSH1 0x1 PUSH1 0x1 PUSH1 0xA0 SHL SUB AND DUP5 MSTORE PUSH1 0xA DUP4 MSTORE DUP2 DUP5 KECCAK256 PUSH1 0x1 SWAP1 SWAP2 ADD SLOAD DUP5 MSTORE SWAP1 SWAP2 MSTORE DUP2 KECCAK256 PUSH1 0x7 DUP2 ADD SLOAD PUSH1 0x3 SWAP1 SWAP2 ADD SLOAD SWAP3 SWAP4 POP SWAP2 PUSH1 0x64 SWAP1 PUSH2 0x14AB SWAP1 DUP5 SWAP1 PUSH2 0x2809 JUMP JUMPDEST PUSH2 0x14B5 SWAP2 SWAP1 PUSH2 0x2820 JUMP JUMPDEST SWAP1 POP PUSH0 DUP4 PUSH2 0x14C3 DUP7 DUP5 PUSH2 0x283F JUMP JUMPDEST PUSH2 0x14CD SWAP2 SWAP1 PUSH2 0x283F JUMP JUMPDEST PUSH0 DUP9 DUP2 MSTORE PUSH1 0xB PUSH1 0x20 SWAP1 DUP2 MSTORE PUSH1 0x40 DUP1 DUP4 KECCAK256 DUP1 SLOAD PUSH1 0x1 PUSH1 0x1 PUSH1 0xA0 SHL SUB AND DUP5 MSTORE PUSH1 0xA DUP4 MSTORE DUP2 DUP5 KECCAK256 PUSH1 0x1 SWAP1 SWAP2 ADD SLOAD DUP5 MSTORE SWAP1 SWAP2 MSTORE SWAP1 KECCAK256 PUSH1 0x3 ADD SLOAD PUSH2 0x150C SWAP2 SWAP1 PUSH2 0x2852 JUMP JUMPDEST PUSH0 DUP9 DUP2 MSTORE PUSH1 0xB PUSH1 0x20 SWAP1 DUP2 MSTORE PUSH1 0x40 DUP1 DUP4 KECCAK256 DUP1 SLOAD PUSH1 0x1 PUSH1 0x1 PUSH1 0xA0 SHL SUB SWAP1 DUP2 AND DUP6 MSTORE PUSH1 0xA DUP5 MSTORE DUP3 DUP6 KECCAK256 PUSH1 0x1 SWAP3 DUP4 ADD SLOAD DUP7 MSTORE SWAP1 SWAP4 MSTORE DUP2 DUP5 KECCAK256 ADD SLOAD SWAP1 MLOAD SWAP4 SWAP5 POP AND SWAP2 DUP4 ISZERO PUSH2 0x8FC MUL SWAP2 DUP5 SWAP2 SWAP1 DUP2 DUP2 DUP2 DUP6 DUP9 DUP9 CALL SWAP4 POP POP POP POP ISZERO DUP1 ISZERO PUSH2 0x156E JUMPI RETURNDATASIZE PUSH0 DUP1 RETURNDATACOPY RETURNDATASIZE PUSH0 REVERT JUMPDEST POP PUSH0 DUP8 DUP2 MSTORE PUSH1 0xB PUSH1 0x20 SWAP1 DUP2 MSTORE PUSH1 0x40 DUP1 DUP4 KECCAK256 DUP1 SLOAD PUSH1 0x1 PUSH1 0x1 PUSH1 0xA0 SHL SUB SWAP1 DUP2 AND DUP6 MSTORE PUSH1 0xA DUP5 MSTORE DUP3 DUP6 KECCAK256 PUSH1 0x1 SWAP1 SWAP3 ADD SLOAD DUP6 MSTORE SWAP3 MSTORE DUP1 DUP4 KECCAK256 PUSH1 0x6 ADD SLOAD SWAP1 MLOAD PUSH2 0x100 SWAP1 SWAP2 DIV SWAP1 SWAP2 AND SWAP2 DUP5 ISZERO PUSH2 0x8FC MUL SWAP2 DUP6 SWAP2 DUP2 DUP2 DUP2 DUP6 DUP9 DUP9 CALL SWAP4 POP POP POP POP ISZERO DUP1 ISZERO PUSH2 0x15D6 JUMPI RETURNDATASIZE PUSH0 DUP1 RETURNDATACOPY RETURNDATASIZE PUSH0 REVERT JUMPDEST POP PUSH1 0x6 SLOAD PUSH1 0x40 MLOAD PUSH1 0x1 PUSH1 0x1 PUSH1 0xA0 SHL SUB SWAP1 SWAP2 AND SWAP1 DUP7 ISZERO PUSH2 0x8FC MUL SWAP1 DUP8 SWAP1 PUSH0 DUP2 DUP2 DUP2 DUP6 DUP9 DUP9 CALL SWAP4 POP POP POP POP ISZERO DUP1 ISZERO PUSH2 0x160E JUMPI RETURNDATASIZE PUSH0 DUP1 RETURNDATACOPY RETURNDATASIZE PUSH0 REVERT JUMPDEST POP PUSH1 0x7 SLOAD PUSH1 0x40 MLOAD PUSH1 0x1 PUSH1 0x1 PUSH1 0xA0 SHL SUB SWAP1 SWAP2 AND SWAP1 DUP6 ISZERO PUSH2 0x8FC MUL SWAP1 DUP7 SWAP1 PUSH0 DUP2 DUP2 DUP2 DUP6 DUP9 DUP9 CALL SWAP4 POP POP POP POP ISZERO DUP1 ISZERO PUSH2 0x1646 JUMPI RETURNDATASIZE PUSH0 DUP1 RETURNDATACOPY RETURNDATASIZE PUSH0 REVERT JUMPDEST POP PUSH0 DUP8 DUP2 MSTORE PUSH1 0xB PUSH1 0x20 DUP2 DUP2 MSTORE PUSH1 0x40 DUP1 DUP5 KECCAK256 DUP1 SLOAD PUSH1 0x1 PUSH1 0x1 PUSH1 0xA0 SHL SUB SWAP1 DUP2 AND DUP7 MSTORE PUSH1 0xA DUP5 MSTORE DUP3 DUP7 KECCAK256 PUSH1 0x1 DUP4 ADD DUP1 SLOAD DUP9 MSTORE SWAP1 DUP6 MSTORE DUP4 DUP8 KECCAK256 PUSH1 0x6 ADD DUP1 SLOAD PUSH1 0xFF NOT AND SWAP1 SSTORE SWAP6 DUP14 SWAP1 MSTORE SWAP4 SWAP1 SWAP3 MSTORE SWAP1 SLOAD SWAP3 SLOAD SWAP1 MLOAD PUSH4 0x130A8FDB PUSH1 0xE2 SHL DUP2 MSTORE PUSH1 0x4 DUP2 ADD SWAP2 SWAP1 SWAP2 MSTORE SWAP2 AND SWAP1 PUSH4 0x4C2A3F6C SWAP1 PUSH1 0x24 ADD PUSH0 PUSH1 0x40 MLOAD DUP1 DUP4 SUB DUP2 PUSH0 DUP8 DUP1 EXTCODESIZE ISZERO DUP1 ISZERO PUSH2 0x16C9 JUMPI PUSH0 DUP1 REVERT JUMPDEST POP GAS CALL ISZERO DUP1 ISZERO PUSH2 0x16DB JUMPI RETURNDATASIZE PUSH0 DUP1 RETURNDATACOPY RETURNDATASIZE PUSH0 REVERT JUMPDEST POP POP POP POP DUP7 PUSH1 0xA PUSH0 PUSH1 0xB PUSH0 PUSH2 0x16EF PUSH1 0x2 SLOAD SWAP1 JUMP JUMPDEST DUP2 MSTORE PUSH1 0x20 DUP1 DUP3 ADD SWAP3 SWAP1 SWAP3 MSTORE PUSH1 0x40 SWAP1 DUP2 ADD PUSH0 SWAP1 DUP2 KECCAK256 SLOAD PUSH1 0x1 PUSH1 0x1 PUSH1 0xA0 SHL SUB AND DUP5 MSTORE SWAP2 DUP4 ADD SWAP4 SWAP1 SWAP4 MSTORE SWAP2 ADD DUP2 KECCAK256 SWAP1 PUSH1 0xB DUP2 PUSH2 0x1727 PUSH1 0x2 SLOAD SWAP1 JUMP JUMPDEST DUP2 MSTORE PUSH1 0x20 ADD SWAP1 DUP2 MSTORE PUSH1 0x20 ADD PUSH0 KECCAK256 PUSH1 0x1 ADD SLOAD DUP2 MSTORE PUSH1 0x20 ADD SWAP1 DUP2 MSTORE PUSH1 0x20 ADD PUSH0 KECCAK256 PUSH1 0x4 ADD DUP2 SWAP1 SSTORE POP PUSH1 0xB PUSH0 PUSH2 0x1758 PUSH1 0x2 SLOAD SWAP1 JUMP JUMPDEST DUP2 MSTORE PUSH1 0x20 DUP1 DUP3 ADD SWAP3 SWAP1 SWAP3 MSTORE PUSH1 0x40 SWAP1 DUP2 ADD PUSH0 SWAP1 DUP2 KECCAK256 DUP11 DUP3 MSTORE PUSH1 0xB SWAP1 SWAP4 MSTORE KECCAK256 DUP2 SLOAD DUP2 SLOAD PUSH1 0x1 PUSH1 0x1 PUSH1 0xA0 SHL SUB NOT AND PUSH1 0x1 PUSH1 0x1 PUSH1 0xA0 SHL SUB SWAP1 SWAP2 AND OR DUP2 SSTORE PUSH1 0x1 SWAP2 DUP3 ADD SLOAD SWAP2 ADD SSTORE PUSH2 0x17A4 PUSH1 0x2 PUSH2 0x1EEA JUMP JUMPDEST PUSH0 DUP8 DUP2 MSTORE PUSH1 0xB PUSH1 0x20 SWAP1 DUP2 MSTORE PUSH1 0x40 DUP1 DUP4 KECCAK256 DUP1 SLOAD PUSH1 0x1 PUSH1 0x1 PUSH1 0xA0 SHL SUB SWAP1 DUP2 AND DUP6 MSTORE PUSH1 0xA DUP5 MSTORE DUP3 DUP6 KECCAK256 PUSH1 0x1 SWAP1 SWAP3 ADD SLOAD DUP6 MSTORE SWAP1 DUP4 MSTORE SWAP3 DUP2 SWAP1 KECCAK256 PUSH1 0x6 ADD SLOAD DUP2 MLOAD PUSH2 0x100 SWAP1 SWAP2 DIV SWAP1 SWAP4 AND DUP4 MSTORE SWAP1 DUP3 ADD DUP5 SWAP1 MSTORE PUSH32 0x7BD3AA7D673767F759EBF216E7F6C12844986C661AE6E0F1D988CF7EB7394D1D SWAP2 ADD PUSH1 0x40 MLOAD DUP1 SWAP2 SUB SWAP1 LOG1 PUSH0 DUP8 DUP2 MSTORE PUSH1 0xB PUSH1 0x20 SWAP1 DUP2 MSTORE PUSH1 0x40 DUP1 DUP4 KECCAK256 DUP1 SLOAD PUSH1 0x1 PUSH1 0x1 PUSH1 0xA0 SHL SUB SWAP1 DUP2 AND DUP6 MSTORE PUSH1 0xA DUP5 MSTORE DUP3 DUP6 KECCAK256 PUSH1 0x1 SWAP3 DUP4 ADD SLOAD DUP7 MSTORE DUP5 MSTORE SWAP4 DUP3 SWAP1 KECCAK256 DUP1 SLOAD SWAP2 ADD SLOAD DUP3 MLOAD SWAP2 DUP3 MSTORE SWAP1 SWAP4 AND SWAP2 DUP4 ADD SWAP2 SWAP1 SWAP2 MSTORE CALLER DUP3 DUP3 ADD MSTORE CALLVALUE PUSH1 0x60 DUP4 ADD MSTORE TIMESTAMP PUSH1 0x80 DUP4 ADD MSTORE MLOAD PUSH32 0x5FAFAD85DEC201C2E73B6A2BEF6351129304A624EA8720ECD04CD7F04D83BC39 SWAP2 DUP2 SWAP1 SUB PUSH1 0xA0 ADD SWAP1 LOG1 POP POP POP POP POP PUSH2 0x8AD PUSH1 0x1 PUSH0 SSTORE JUMP JUMPDEST PUSH2 0x18B5 PUSH2 0x1E39 JUMP JUMPDEST PUSH2 0x18BE PUSH0 PUSH2 0x1F40 JUMP JUMPDEST JUMP JUMPDEST PUSH1 0x60 DUP1 PUSH0 PUSH2 0x18CD PUSH1 0x2 SLOAD SWAP1 JUMP JUMPDEST SWAP1 POP PUSH0 DUP2 PUSH8 0xFFFFFFFFFFFFFFFF DUP2 GT ISZERO PUSH2 0x18E9 JUMPI PUSH2 0x18E9 PUSH2 0x2164 JUMP JUMPDEST PUSH1 0x40 MLOAD SWAP1 DUP1 DUP3 MSTORE DUP1 PUSH1 0x20 MUL PUSH1 0x20 ADD DUP3 ADD PUSH1 0x40 MSTORE DUP1 ISZERO PUSH2 0x1922 JUMPI DUP2 PUSH1 0x20 ADD JUMPDEST PUSH2 0x190F PUSH2 0x1F91 JUMP JUMPDEST DUP2 MSTORE PUSH1 0x20 ADD SWAP1 PUSH1 0x1 SWAP1 SUB SWAP1 DUP2 PUSH2 0x1907 JUMPI SWAP1 POP JUMPDEST POP SWAP1 POP PUSH0 PUSH1 0x1 JUMPDEST PUSH1 0x2 SLOAD DUP2 GT PUSH2 0x1AC8 JUMPI PUSH0 DUP2 DUP2 MSTORE PUSH1 0xB PUSH1 0x20 SWAP1 DUP2 MSTORE PUSH1 0x40 DUP1 DUP4 KECCAK256 DUP1 SLOAD PUSH1 0x1 PUSH1 0x1 PUSH1 0xA0 SHL SUB AND DUP5 MSTORE PUSH1 0xA DUP4 MSTORE DUP2 DUP5 KECCAK256 PUSH1 0x1 SWAP1 SWAP2 ADD SLOAD DUP5 MSTORE SWAP1 SWAP2 MSTORE SWAP1 KECCAK256 PUSH1 0x6 ADD SLOAD PUSH1 0xFF AND ISZERO PUSH2 0x1AB6 JUMPI PUSH1 0x40 DUP1 MLOAD PUSH0 DUP4 DUP2 MSTORE PUSH1 0xB PUSH1 0x20 DUP2 DUP2 MSTORE DUP5 DUP4 KECCAK256 DUP1 SLOAD PUSH1 0x1 PUSH1 0x1 PUSH1 0xA0 SHL SUB SWAP1 DUP2 AND DUP1 DUP7 MSTORE PUSH1 0xA DUP5 MSTORE DUP8 DUP7 KECCAK256 PUSH1 0x1 SWAP4 DUP5 ADD SLOAD DUP1 DUP9 MSTORE SWAP1 DUP6 MSTORE DUP9 DUP8 KECCAK256 PUSH2 0x180 DUP10 ADD DUP11 MSTORE DUP1 SLOAD PUSH1 0x60 DUP11 ADD SWAP1 DUP2 MSTORE SWAP5 DUP2 ADD SLOAD DUP5 AND PUSH1 0x80 DUP11 ADD MSTORE PUSH1 0x2 DUP2 ADD SLOAD DUP5 AND PUSH1 0xA0 DUP11 ADD MSTORE PUSH1 0x3 DUP2 ADD SLOAD PUSH1 0xC0 DUP11 ADD MSTORE PUSH1 0x4 DUP1 DUP3 ADD SLOAD PUSH1 0xE0 DUP12 ADD MSTORE PUSH1 0x5 DUP3 ADD SLOAD PUSH2 0x100 DUP1 DUP13 ADD SWAP2 SWAP1 SWAP2 MSTORE PUSH1 0x6 DUP4 ADD SLOAD PUSH1 0xFF DUP2 AND ISZERO ISZERO PUSH2 0x120 DUP14 ADD MSTORE DIV SWAP1 SWAP5 AND PUSH2 0x140 DUP11 ADD MSTORE PUSH1 0x7 ADD SLOAD PUSH2 0x160 DUP10 ADD MSTORE SWAP3 DUP8 MSTORE DUP4 DUP8 ADD DUP10 SWAP1 MSTORE SWAP5 DUP9 SWAP1 MSTORE SWAP3 SWAP1 SWAP2 MSTORE DUP5 MLOAD PUSH4 0x8AD91345 PUSH1 0xE0 SHL DUP2 MSTORE SWAP2 DUP3 ADD MSTORE SWAP2 SWAP3 DUP4 ADD SWAP2 PUSH4 0x8AD91345 SWAP1 PUSH1 0x24 ADD PUSH0 PUSH1 0x40 MLOAD DUP1 DUP4 SUB DUP2 DUP7 GAS STATICCALL ISZERO DUP1 ISZERO PUSH2 0x1A60 JUMPI RETURNDATASIZE PUSH0 DUP1 RETURNDATACOPY RETURNDATASIZE PUSH0 REVERT JUMPDEST POP POP POP POP PUSH1 0x40 MLOAD RETURNDATASIZE PUSH0 DUP3 RETURNDATACOPY PUSH1 0x1F RETURNDATASIZE SWAP1 DUP2 ADD PUSH1 0x1F NOT AND DUP3 ADD PUSH1 0x40 MSTORE PUSH2 0x1A87 SWAP2 SWAP1 DUP2 ADD SWAP1 PUSH2 0x2865 JUMP JUMPDEST DUP2 MSTORE POP DUP4 DUP4 DUP2 MLOAD DUP2 LT PUSH2 0x1A9C JUMPI PUSH2 0x1A9C PUSH2 0x2655 JUMP JUMPDEST PUSH1 0x20 MUL PUSH1 0x20 ADD ADD DUP2 SWAP1 MSTORE POP DUP2 DUP1 PUSH2 0x1AB2 SWAP1 PUSH2 0x2897 JUMP JUMPDEST SWAP3 POP POP JUMPDEST DUP1 PUSH2 0x1AC0 DUP2 PUSH2 0x2897 JUMP JUMPDEST SWAP2 POP POP PUSH2 0x1929 JUMP JUMPDEST POP PUSH1 0x3 SLOAD SWAP3 POP PUSH0 DUP4 PUSH8 0xFFFFFFFFFFFFFFFF DUP2 GT ISZERO PUSH2 0x1AE8 JUMPI PUSH2 0x1AE8 PUSH2 0x2164 JUMP JUMPDEST PUSH1 0x40 MLOAD SWAP1 DUP1 DUP3 MSTORE DUP1 PUSH1 0x20 MUL PUSH1 0x20 ADD DUP3 ADD PUSH1 0x40 MSTORE DUP1 ISZERO PUSH2 0x1B21 JUMPI DUP2 PUSH1 0x20 ADD JUMPDEST PUSH2 0x1B0E PUSH2 0x1FF8 JUMP JUMPDEST DUP2 MSTORE PUSH1 0x20 ADD SWAP1 PUSH1 0x1 SWAP1 SUB SWAP1 DUP2 PUSH2 0x1B06 JUMPI SWAP1 POP JUMPDEST POP SWAP1 POP PUSH0 PUSH1 0x1 JUMPDEST PUSH1 0x3 SLOAD DUP2 GT PUSH2 0x1CB0 JUMPI PUSH0 DUP2 DUP2 MSTORE PUSH1 0xE PUSH1 0x20 SWAP1 DUP2 MSTORE PUSH1 0x40 DUP1 DUP4 KECCAK256 DUP1 SLOAD PUSH1 0x1 PUSH1 0x1 PUSH1 0xA0 SHL SUB AND DUP5 MSTORE PUSH1 0xC DUP4 MSTORE DUP2 DUP5 KECCAK256 PUSH1 0x1 SWAP1 SWAP2 ADD SLOAD DUP5 MSTORE SWAP1 SWAP2 MSTORE SWAP1 KECCAK256 PUSH1 0x6 ADD SLOAD PUSH1 0xFF AND ISZERO PUSH2 0x1C9E JUMPI PUSH1 0x40 DUP1 MLOAD PUSH0 DUP4 DUP2 MSTORE PUSH1 0xE PUSH1 0x20 DUP2 DUP2 MSTORE DUP5 DUP4 KECCAK256 DUP1 SLOAD PUSH1 0x1 PUSH1 0x1 PUSH1 0xA0 SHL SUB SWAP1 DUP2 AND DUP1 DUP7 MSTORE PUSH1 0xC DUP5 MSTORE DUP8 DUP7 KECCAK256 PUSH1 0x1 SWAP4 DUP5 ADD SLOAD DUP1 DUP9 MSTORE SWAP1 DUP6 MSTORE DUP9 DUP8 KECCAK256 PUSH2 0x140 DUP10 ADD DUP11 MSTORE DUP1 SLOAD DUP5 AND PUSH1 0x60 DUP11 ADD SWAP1 DUP2 MSTORE SWAP5 DUP2 ADD SLOAD PUSH1 0x80 DUP11 ADD MSTORE PUSH1 0x2 DUP2 ADD SLOAD PUSH1 0xA0 DUP11 ADD MSTORE PUSH1 0x3 DUP2 ADD SLOAD SWAP1 SWAP4 AND PUSH1 0xC0 DUP10 ADD MSTORE PUSH1 0x4 DUP1 DUP5 ADD SLOAD PUSH1 0xE0 DUP11 ADD MSTORE PUSH1 0x5 DUP5 ADD SLOAD PUSH2 0x100 DUP11 ADD MSTORE PUSH1 0x6 SWAP1 SWAP4 ADD SLOAD PUSH1 0xFF AND ISZERO ISZERO PUSH2 0x120 DUP10 ADD MSTORE SWAP3 DUP8 MSTORE DUP4 DUP8 ADD DUP10 SWAP1 MSTORE SWAP5 DUP9 SWAP1 MSTORE SWAP3 SWAP1 SWAP2 MSTORE DUP5 MLOAD PUSH4 0x8AD91345 PUSH1 0xE0 SHL DUP2 MSTORE SWAP2 DUP3 ADD MSTORE SWAP2 SWAP3 DUP4 ADD SWAP2 PUSH4 0x8AD91345 SWAP1 PUSH1 0x24 ADD PUSH0 PUSH1 0x40 MLOAD DUP1 DUP4 SUB DUP2 DUP7 GAS STATICCALL ISZERO DUP1 ISZERO PUSH2 0x1C48 JUMPI RETURNDATASIZE PUSH0 DUP1 RETURNDATACOPY RETURNDATASIZE PUSH0 REVERT JUMPDEST POP POP POP POP PUSH1 0x40 MLOAD RETURNDATASIZE PUSH0 DUP3 RETURNDATACOPY PUSH1 0x1F RETURNDATASIZE SWAP1 DUP2 ADD PUSH1 0x1F NOT AND DUP3 ADD PUSH1 0x40 MSTORE PUSH2 0x1C6F SWAP2 SWAP1 DUP2 ADD SWAP1 PUSH2 0x2865 JUMP JUMPDEST DUP2 MSTORE POP DUP4 DUP4 DUP2 MLOAD DUP2 LT PUSH2 0x1C84 JUMPI PUSH2 0x1C84 PUSH2 0x2655 JUMP JUMPDEST PUSH1 0x20 MUL PUSH1 0x20 ADD ADD DUP2 SWAP1 MSTORE POP DUP2 DUP1 PUSH2 0x1C9A SWAP1 PUSH2 0x2897 JUMP JUMPDEST SWAP3 POP POP JUMPDEST DUP1 PUSH2 0x1CA8 DUP2 PUSH2 0x2897 JUMP JUMPDEST SWAP2 POP POP PUSH2 0x1B28 JUMP JUMPDEST POP SWAP3 SWAP7 SWAP1 SWAP6 POP SWAP4 POP POP POP POP JUMP JUMPDEST PUSH1 0xF PUSH1 0x20 SWAP1 DUP2 MSTORE PUSH0 SWAP4 DUP5 MSTORE PUSH1 0x40 DUP1 DUP6 KECCAK256 DUP3 MSTORE SWAP3 DUP5 MSTORE DUP3 DUP5 KECCAK256 SWAP1 MSTORE DUP3 MSTORE SWAP1 KECCAK256 DUP1 SLOAD PUSH1 0x1 DUP3 ADD DUP1 SLOAD PUSH1 0x1 PUSH1 0x1 PUSH1 0xA0 SHL SUB SWAP1 SWAP3 AND SWAP3 SWAP2 PUSH2 0x1CF9 SWAP1 PUSH2 0x28AF JUMP JUMPDEST DUP1 PUSH1 0x1F ADD PUSH1 0x20 DUP1 SWAP2 DIV MUL PUSH1 0x20 ADD PUSH1 0x40 MLOAD SWAP1 DUP2 ADD PUSH1 0x40 MSTORE DUP1 SWAP3 SWAP2 SWAP1 DUP2 DUP2 MSTORE PUSH1 0x20 ADD DUP3 DUP1 SLOAD PUSH2 0x1D25 SWAP1 PUSH2 0x28AF JUMP JUMPDEST DUP1 ISZERO PUSH2 0x1D70 JUMPI DUP1 PUSH1 0x1F LT PUSH2 0x1D47 JUMPI PUSH2 0x100 DUP1 DUP4 SLOAD DIV MUL DUP4 MSTORE SWAP2 PUSH1 0x20 ADD SWAP2 PUSH2 0x1D70 JUMP JUMPDEST DUP3 ADD SWAP2 SWAP1 PUSH0 MSTORE PUSH1 0x20 PUSH0 KECCAK256 SWAP1 JUMPDEST DUP2 SLOAD DUP2 MSTORE SWAP1 PUSH1 0x1 ADD SWAP1 PUSH1 0x20 ADD DUP1 DUP4 GT PUSH2 0x1D53 JUMPI DUP3 SWAP1 SUB PUSH1 0x1F AND DUP3 ADD SWAP2 JUMPDEST POP POP POP POP POP SWAP1 DUP1 PUSH1 0x2 ADD SLOAD SWAP1 DUP1 PUSH1 0x3 ADD SLOAD SWAP1 DUP1 PUSH1 0x4 ADD SLOAD SWAP1 POP DUP6 JUMP JUMPDEST PUSH2 0x1D94 PUSH2 0x1E39 JUMP JUMPDEST PUSH1 0x1 PUSH1 0x1 PUSH1 0xA0 SHL SUB DUP2 AND PUSH2 0x1DF9 JUMPI PUSH1 0x40 MLOAD PUSH3 0x461BCD PUSH1 0xE5 SHL DUP2 MSTORE PUSH1 0x20 PUSH1 0x4 DUP3 ADD MSTORE PUSH1 0x26 PUSH1 0x24 DUP3 ADD MSTORE PUSH32 0x4F776E61626C653A206E6577206F776E657220697320746865207A65726F2061 PUSH1 0x44 DUP3 ADD MSTORE PUSH6 0x646472657373 PUSH1 0xD0 SHL PUSH1 0x64 DUP3 ADD MSTORE PUSH1 0x84 ADD PUSH2 0x7E2 JUMP JUMPDEST PUSH2 0x117B DUP2 PUSH2 0x1F40 JUMP JUMPDEST PUSH2 0x1E0A PUSH2 0x1E39 JUMP JUMPDEST PUSH1 0x8 SSTORE JUMP JUMPDEST PUSH2 0x1E17 PUSH2 0x1E39 JUMP JUMPDEST PUSH1 0x6 DUP1 SLOAD PUSH1 0x1 PUSH1 0x1 PUSH1 0xA0 SHL SUB NOT AND PUSH1 0x1 PUSH1 0x1 PUSH1 0xA0 SHL SUB SWAP3 SWAP1 SWAP3 AND SWAP2 SWAP1 SWAP2 OR SWAP1 SSTORE JUMP JUMPDEST PUSH1 0x1 SLOAD PUSH1 0x1 PUSH1 0x1 PUSH1 0xA0 SHL SUB AND CALLER EQ PUSH2 0x18BE JUMPI PUSH1 0x40 MLOAD PUSH3 0x461BCD PUSH1 0xE5 SHL DUP2 MSTORE PUSH1 0x20 PUSH1 0x4 DUP3 ADD DUP2 SWAP1 MSTORE PUSH1 0x24 DUP3 ADD MSTORE PUSH32 0x4F776E61626C653A2063616C6C6572206973206E6F7420746865206F776E6572 PUSH1 0x44 DUP3 ADD MSTORE PUSH1 0x64 ADD PUSH2 0x7E2 JUMP JUMPDEST PUSH1 0x2 PUSH0 SLOAD SUB PUSH2 0x1EE4 JUMPI PUSH1 0x40 MLOAD PUSH3 0x461BCD PUSH1 0xE5 SHL DUP2 MSTORE PUSH1 0x20 PUSH1 0x4 DUP3 ADD MSTORE PUSH1 0x1F PUSH1 0x24 DUP3 ADD MSTORE PUSH32 0x5265656E7472616E637947756172643A207265656E7472616E742063616C6C00 PUSH1 0x44 DUP3 ADD MSTORE PUSH1 0x64 ADD PUSH2 0x7E2 JUMP JUMPDEST PUSH1 0x2 PUSH0 SSTORE JUMP JUMPDEST DUP1 SLOAD DUP1 PUSH2 0x1F39 JUMPI PUSH1 0x40 MLOAD PUSH3 0x461BCD PUSH1 0xE5 SHL DUP2 MSTORE PUSH1 0x20 PUSH1 0x4 DUP3 ADD MSTORE PUSH1 0x1B PUSH1 0x24 DUP3 ADD MSTORE PUSH32 0x436F756E7465723A2064656372656D656E74206F766572666C6F770000000000 PUSH1 0x44 DUP3 ADD MSTORE PUSH1 0x64 ADD PUSH2 0x7E2 JUMP JUMPDEST PUSH0 NOT ADD SWAP1 SSTORE JUMP JUMPDEST PUSH1 0x1 DUP1 SLOAD PUSH1 0x1 PUSH1 0x1 PUSH1 0xA0 SHL SUB DUP4 DUP2 AND PUSH1 0x1 PUSH1 0x1 PUSH1 0xA0 SHL SUB NOT DUP4 AND DUP2 OR SWAP1 SWAP4 SSTORE PUSH1 0x40 MLOAD SWAP2 AND SWAP2 SWAP1 DUP3 SWAP1 PUSH32 0x8BE0079C531659141344CD1FD0A4F28419497F9722A3DAAFE3B4186F6B6457E0 SWAP1 PUSH0 SWAP1 LOG3 POP POP JUMP JUMPDEST PUSH1 0x40 DUP1 MLOAD PUSH2 0x180 DUP2 ADD SWAP1 SWAP2 MSTORE PUSH0 PUSH1 0x60 DUP3 ADD DUP2 DUP2 MSTORE PUSH1 0x80 DUP4 ADD DUP3 SWAP1 MSTORE PUSH1 0xA0 DUP4 ADD DUP3 SWAP1 MSTORE PUSH1 0xC0 DUP4 ADD DUP3 SWAP1 MSTORE PUSH1 0xE0 DUP4 ADD DUP3 SWAP1 MSTORE PUSH2 0x100 DUP4 ADD DUP3 SWAP1 MSTORE PUSH2 0x120 DUP4 ADD DUP3 SWAP1 MSTORE PUSH2 0x140 DUP4 ADD DUP3 SWAP1 MSTORE PUSH2 0x160 DUP4 ADD SWAP2 SWAP1 SWAP2 MSTORE DUP2 SWAP1 JUMPDEST DUP2 MSTORE PUSH1 0x20 ADD PUSH0 DUP2 MSTORE PUSH1 0x20 ADD PUSH1 0x60 DUP2 MSTORE POP SWAP1 JUMP JUMPDEST PUSH1 0x40 DUP1 MLOAD PUSH2 0x140 DUP2 ADD SWAP1 SWAP2 MSTORE PUSH0 PUSH1 0x60 DUP3 ADD DUP2 DUP2 MSTORE PUSH1 0x80 DUP4 ADD DUP3 SWAP1 MSTORE PUSH1 0xA0 DUP4 ADD DUP3 SWAP1 MSTORE PUSH1 0xC0 DUP4 ADD DUP3 SWAP1 MSTORE PUSH1 0xE0 DUP4 ADD DUP3 SWAP1 MSTORE PUSH2 0x100 DUP4 ADD DUP3 SWAP1 MSTORE PUSH2 0x120 DUP4 ADD SWAP2 SWAP1 SWAP2 MSTORE DUP2 SWAP1 PUSH2 0x1FE5 JUMP JUMPDEST PUSH1 0x1 PUSH1 0x1 PUSH1 0xA0 SHL SUB DUP2 AND DUP2 EQ PUSH2 0x117B JUMPI PUSH0 DUP1 REVERT JUMPDEST PUSH0 DUP1 PUSH1 0x40 DUP4 DUP6 SUB SLT ISZERO PUSH2 0x2065 JUMPI PUSH0 DUP1 REVERT JUMPDEST DUP3 CALLDATALOAD PUSH2 0x2070 DUP2 PUSH2 0x2040 JUMP JUMPDEST SWAP5 PUSH1 0x20 SWAP4 SWAP1 SWAP4 ADD CALLDATALOAD SWAP4 POP POP POP JUMP JUMPDEST PUSH0 PUSH1 0x20 DUP3 DUP5 SUB SLT ISZERO PUSH2 0x208E JUMPI PUSH0 DUP1 REVERT JUMPDEST DUP2 CALLDATALOAD PUSH2 0x2099 DUP2 PUSH2 0x2040 JUMP JUMPDEST SWAP4 SWAP3 POP POP POP JUMP JUMPDEST PUSH0 PUSH1 0x20 DUP3 DUP5 SUB SLT ISZERO PUSH2 0x20B0 JUMPI PUSH0 DUP1 REVERT JUMPDEST POP CALLDATALOAD SWAP2 SWAP1 POP JUMP JUMPDEST PUSH0 DUP1 PUSH1 0x40 DUP4 DUP6 SUB SLT ISZERO PUSH2 0x20C8 JUMPI PUSH0 DUP1 REVERT JUMPDEST POP POP DUP1 CALLDATALOAD SWAP3 PUSH1 0x20 SWAP1 SWAP2 ADD CALLDATALOAD SWAP2 POP JUMP JUMPDEST PUSH0 DUP1 PUSH0 DUP1 PUSH0 PUSH1 0xA0 DUP7 DUP9 SUB SLT ISZERO PUSH2 0x20EB JUMPI PUSH0 DUP1 REVERT JUMPDEST DUP6 CALLDATALOAD PUSH2 0x20F6 DUP2 PUSH2 0x2040 JUMP JUMPDEST SWAP5 POP PUSH1 0x20 DUP7 ADD CALLDATALOAD SWAP4 POP PUSH1 0x40 DUP7 ADD CALLDATALOAD SWAP3 POP PUSH1 0x60 DUP7 ADD CALLDATALOAD PUSH2 0x2114 DUP2 PUSH2 0x2040 JUMP JUMPDEST SWAP5 SWAP8 SWAP4 SWAP7 POP SWAP2 SWAP5 PUSH1 0x80 ADD CALLDATALOAD SWAP3 SWAP2 POP POP JUMP JUMPDEST PUSH0 DUP1 PUSH0 PUSH1 0x60 DUP5 DUP7 SUB SLT ISZERO PUSH2 0x2137 JUMPI PUSH0 DUP1 REVERT JUMPDEST DUP4 CALLDATALOAD PUSH2 0x2142 DUP2 PUSH2 0x2040 JUMP JUMPDEST SWAP3 POP PUSH1 0x20 DUP5 ADD CALLDATALOAD SWAP2 POP PUSH1 0x40 DUP5 ADD CALLDATALOAD PUSH2 0x2159 DUP2 PUSH2 0x2040 JUMP JUMPDEST DUP1 SWAP2 POP POP SWAP3 POP SWAP3 POP SWAP3 JUMP JUMPDEST PUSH4 0x4E487B71 PUSH1 0xE0 SHL PUSH0 MSTORE PUSH1 0x41 PUSH1 0x4 MSTORE PUSH1 0x24 PUSH0 REVERT JUMPDEST PUSH1 0x40 MLOAD PUSH1 0xC0 DUP2 ADD PUSH8 0xFFFFFFFFFFFFFFFF DUP2 GT DUP3 DUP3 LT OR ISZERO PUSH2 0x219B JUMPI PUSH2 0x219B PUSH2 0x2164 JUMP JUMPDEST PUSH1 0x40 MSTORE SWAP1 JUMP JUMPDEST PUSH1 0x40 MLOAD PUSH1 0x1F DUP3 ADD PUSH1 0x1F NOT AND DUP2 ADD PUSH8 0xFFFFFFFFFFFFFFFF DUP2 GT DUP3 DUP3 LT OR ISZERO PUSH2 0x21CA JUMPI PUSH2 0x21CA PUSH2 0x2164 JUMP JUMPDEST PUSH1 0x40 MSTORE SWAP2 SWAP1 POP JUMP JUMPDEST PUSH0 PUSH8 0xFFFFFFFFFFFFFFFF DUP3 GT ISZERO PUSH2 0x21EB JUMPI PUSH2 0x21EB PUSH2 0x2164 JUMP JUMPDEST POP PUSH1 0x5 SHL PUSH1 0x20 ADD SWAP1 JUMP JUMPDEST PUSH0 DUP1 PUSH1 0x40 DUP4 DUP6 SUB SLT ISZERO PUSH2 0x2206 JUMPI PUSH0 DUP1 REVERT JUMPDEST DUP3 CALLDATALOAD PUSH2 0x2211 DUP2 PUSH2 0x2040 JUMP JUMPDEST SWAP2 POP PUSH1 0x20 DUP4 DUP2 ADD CALLDATALOAD PUSH8 0xFFFFFFFFFFFFFFFF DUP2 GT ISZERO PUSH2 0x222D JUMPI PUSH0 DUP1 REVERT JUMPDEST DUP5 ADD PUSH1 0x1F DUP2 ADD DUP7 SGT PUSH2 0x223D JUMPI PUSH0 DUP1 REVERT JUMPDEST DUP1 CALLDATALOAD PUSH2 0x2250 PUSH2 0x224B DUP3 PUSH2 0x21D2 JUMP JUMPDEST PUSH2 0x21A1 JUMP JUMPDEST DUP2 DUP2 MSTORE PUSH1 0x5 SWAP2 SWAP1 SWAP2 SHL DUP3 ADD DUP4 ADD SWAP1 DUP4 DUP2 ADD SWAP1 DUP9 DUP4 GT ISZERO PUSH2 0x226E JUMPI PUSH0 DUP1 REVERT JUMPDEST SWAP3 DUP5 ADD SWAP3 JUMPDEST DUP3 DUP5 LT ISZERO PUSH2 0x2295 JUMPI DUP4 CALLDATALOAD PUSH2 0x2286 DUP2 PUSH2 0x2040 JUMP JUMPDEST DUP3 MSTORE SWAP3 DUP5 ADD SWAP3 SWAP1 DUP5 ADD SWAP1 PUSH2 0x2273 JUMP JUMPDEST DUP1 SWAP6 POP POP POP POP POP POP SWAP3 POP SWAP3 SWAP1 POP JUMP JUMPDEST PUSH0 JUMPDEST DUP4 DUP2 LT ISZERO PUSH2 0x22BE JUMPI DUP2 DUP2 ADD MLOAD DUP4 DUP3 ADD MSTORE PUSH1 0x20 ADD PUSH2 0x22A6 JUMP JUMPDEST POP POP PUSH0 SWAP2 ADD MSTORE JUMP JUMPDEST PUSH0 DUP2 MLOAD DUP1 DUP5 MSTORE PUSH2 0x22DD DUP2 PUSH1 0x20 DUP7 ADD PUSH1 0x20 DUP7 ADD PUSH2 0x22A4 JUMP JUMPDEST PUSH1 0x1F ADD PUSH1 0x1F NOT AND SWAP3 SWAP1 SWAP3 ADD PUSH1 0x20 ADD SWAP3 SWAP2 POP POP JUMP JUMPDEST PUSH0 PUSH1 0x20 DUP1 DUP4 ADD DUP2 DUP5 MSTORE DUP1 DUP6 MLOAD DUP1 DUP4 MSTORE PUSH1 0x40 SWAP3 POP PUSH1 0x40 DUP7 ADD SWAP2 POP PUSH1 0x40 DUP2 PUSH1 0x5 SHL DUP8 ADD ADD DUP5 DUP9 ADD PUSH0 JUMPDEST DUP4 DUP2 LT ISZERO PUSH2 0x23D1 JUMPI DUP9 DUP4 SUB PUSH1 0x3F NOT ADD DUP6 MSTORE DUP2 MLOAD DUP1 MLOAD DUP1 DUP6 MSTORE SWAP1 DUP9 ADD SWAP1 DUP9 DUP6 ADD SWAP1 PUSH1 0x5 DUP2 SWAP1 SHL DUP7 ADD DUP11 ADD PUSH0 JUMPDEST DUP3 DUP2 LT ISZERO PUSH2 0x23BB JUMPI DUP8 DUP3 SUB PUSH1 0x1F NOT ADD DUP5 MSTORE DUP5 MLOAD DUP1 MLOAD DUP4 MSTORE DUP13 DUP2 ADD MLOAD DUP14 DUP5 ADD MSTORE DUP12 DUP2 ADD MLOAD PUSH1 0x1 PUSH1 0x1 PUSH1 0xA0 SHL SUB SWAP1 DUP2 AND DUP14 DUP6 ADD MSTORE PUSH1 0x60 DUP1 DUP4 ADD MLOAD SWAP1 SWAP2 AND SWAP1 DUP5 ADD MSTORE PUSH1 0x80 DUP1 DUP3 ADD MLOAD SWAP1 DUP5 ADD MSTORE PUSH1 0xA0 SWAP1 DUP2 ADD MLOAD PUSH1 0xC0 SWAP2 DUP5 ADD DUP3 SWAP1 MSTORE SWAP1 PUSH2 0x23A7 DUP2 DUP6 ADD DUP4 PUSH2 0x22C6 JUMP JUMPDEST SWAP7 DUP15 ADD SWAP7 SWAP6 DUP15 ADD SWAP6 SWAP4 POP POP POP PUSH1 0x1 ADD PUSH2 0x2343 JUMP JUMPDEST POP SWAP8 DUP11 ADD SWAP8 SWAP6 POP POP POP SWAP2 DUP8 ADD SWAP2 POP PUSH1 0x1 ADD PUSH2 0x2318 JUMP JUMPDEST POP SWAP1 SWAP9 SWAP8 POP POP POP POP POP POP POP POP JUMP JUMPDEST PUSH0 DUP3 DUP3 MLOAD DUP1 DUP6 MSTORE PUSH1 0x20 DUP1 DUP7 ADD SWAP6 POP DUP1 DUP3 PUSH1 0x5 SHL DUP5 ADD ADD DUP2 DUP7 ADD PUSH0 JUMPDEST DUP5 DUP2 LT ISZERO PUSH2 0x2499 JUMPI DUP6 DUP4 SUB PUSH1 0x1F NOT ADD DUP10 MSTORE DUP2 MLOAD DUP1 MLOAD DUP1 MLOAD PUSH1 0x1 PUSH1 0x1 PUSH1 0xA0 SHL SUB SWAP1 DUP2 AND DUP7 MSTORE DUP7 DUP3 ADD MLOAD DUP8 DUP8 ADD MSTORE PUSH1 0x40 DUP1 DUP4 ADD MLOAD DUP2 DUP9 ADD MSTORE PUSH1 0x60 DUP1 DUP5 ADD MLOAD SWAP1 SWAP3 AND SWAP2 DUP8 ADD SWAP2 SWAP1 SWAP2 MSTORE PUSH1 0x80 DUP1 DUP4 ADD MLOAD SWAP1 DUP8 ADD MSTORE PUSH1 0xA0 DUP1 DUP4 ADD MLOAD SWAP1 DUP8 ADD MSTORE PUSH1 0xC0 SWAP2 DUP3 ADD MLOAD ISZERO ISZERO SWAP2 DUP7 ADD SWAP2 SWAP1 SWAP2 MSTORE DUP6 DUP3 ADD MLOAD PUSH1 0xE0 DUP7 ADD MSTORE ADD MLOAD PUSH2 0x120 PUSH2 0x100 DUP6 ADD DUP2 SWAP1 MSTORE PUSH2 0x2485 DUP2 DUP7 ADD DUP4 PUSH2 0x22C6 JUMP JUMPDEST SWAP11 DUP7 ADD SWAP11 SWAP5 POP POP POP SWAP1 DUP4 ADD SWAP1 PUSH1 0x1 ADD PUSH2 0x23FA JUMP JUMPDEST POP SWAP1 SWAP8 SWAP7 POP POP POP POP POP POP POP JUMP JUMPDEST PUSH0 PUSH1 0x40 DUP1 DUP4 ADD PUSH1 0x40 DUP5 MSTORE DUP1 DUP7 MLOAD DUP1 DUP4 MSTORE PUSH1 0x60 SWAP3 POP PUSH1 0x60 DUP7 ADD SWAP2 POP PUSH1 0x60 DUP2 PUSH1 0x5 SHL DUP8 ADD ADD PUSH1 0x20 DUP1 DUP11 ADD PUSH0 JUMPDEST DUP5 DUP2 LT ISZERO PUSH2 0x257E JUMPI DUP10 DUP5 SUB PUSH1 0x5F NOT ADD DUP7 MSTORE DUP2 MLOAD DUP1 MLOAD DUP1 MLOAD DUP7 MSTORE DUP5 DUP2 ADD MLOAD PUSH1 0x1 PUSH1 0x1 PUSH1 0xA0 SHL SUB SWAP1 DUP2 AND DUP7 DUP9 ADD MSTORE DUP11 DUP3 ADD MLOAD DUP2 AND DUP12 DUP9 ADD MSTORE DUP10 DUP3 ADD MLOAD DUP11 DUP9 ADD MSTORE PUSH1 0x80 DUP1 DUP4 ADD MLOAD SWAP1 DUP9 ADD MSTORE PUSH1 0xA0 DUP1 DUP4 ADD MLOAD SWAP1 DUP9 ADD MSTORE PUSH1 0xC0 DUP1 DUP4 ADD MLOAD ISZERO ISZERO SWAP1 DUP9 ADD MSTORE PUSH1 0xE0 DUP1 DUP4 ADD MLOAD SWAP1 SWAP2 AND SWAP1 DUP8 ADD MSTORE PUSH2 0x100 SWAP1 DUP2 ADD MLOAD SWAP1 DUP7 ADD MSTORE DUP4 DUP2 ADD MLOAD PUSH2 0x120 DUP7 ADD MSTORE DUP9 ADD MLOAD PUSH2 0x160 PUSH2 0x140 DUP7 ADD DUP2 SWAP1 MSTORE PUSH2 0x256A DUP2 DUP8 ADD DUP4 PUSH2 0x22C6 JUMP JUMPDEST SWAP8 DUP6 ADD SWAP8 SWAP6 POP POP POP SWAP1 DUP3 ADD SWAP1 PUSH1 0x1 ADD PUSH2 0x24D0 JUMP JUMPDEST POP POP DUP8 DUP3 SUB SWAP1 DUP9 ADD MSTORE PUSH2 0x2591 DUP2 DUP10 PUSH2 0x23DF JUMP JUMPDEST SWAP10 SWAP9 POP POP POP POP POP POP POP POP POP JUMP JUMPDEST PUSH0 DUP1 PUSH0 PUSH1 0x60 DUP5 DUP7 SUB SLT ISZERO PUSH2 0x25B0 JUMPI PUSH0 DUP1 REVERT JUMPDEST DUP4 CALLDATALOAD PUSH2 0x25BB DUP2 PUSH2 0x2040 JUMP JUMPDEST SWAP6 PUSH1 0x20 DUP6 ADD CALLDATALOAD SWAP6 POP PUSH1 0x40 SWAP1 SWAP5 ADD CALLDATALOAD SWAP4 SWAP3 POP POP POP JUMP JUMPDEST PUSH1 0x1 PUSH1 0x1 PUSH1 0xA0 SHL SUB DUP7 AND DUP2 MSTORE PUSH1 0xA0 PUSH1 0x20 DUP3 ADD DUP2 SWAP1 MSTORE PUSH0 SWAP1 PUSH2 0x25F3 SWAP1 DUP4 ADD DUP8 PUSH2 0x22C6 JUMP JUMPDEST PUSH1 0x40 DUP4 ADD SWAP6 SWAP1 SWAP6 MSTORE POP PUSH1 0x60 DUP2 ADD SWAP3 SWAP1 SWAP3 MSTORE PUSH1 0x80 SWAP1 SWAP2 ADD MSTORE SWAP3 SWAP2 POP POP JUMP JUMPDEST PUSH0 DUP1 PUSH0 DUP1 PUSH1 0x80 DUP6 DUP8 SUB SLT ISZERO PUSH2 0x2623 JUMPI PUSH0 DUP1 REVERT JUMPDEST DUP5 CALLDATALOAD PUSH2 0x262E DUP2 PUSH2 0x2040 JUMP JUMPDEST SWAP4 POP PUSH1 0x20 DUP6 ADD CALLDATALOAD SWAP3 POP PUSH1 0x40 DUP6 ADD CALLDATALOAD PUSH2 0x2645 DUP2 PUSH2 0x2040 JUMP JUMPDEST SWAP4 SWAP7 SWAP3 SWAP6 POP SWAP3 SWAP4 PUSH1 0x60 ADD CALLDATALOAD SWAP3 POP POP JUMP JUMPDEST PUSH4 0x4E487B71 PUSH1 0xE0 SHL PUSH0 MSTORE PUSH1 0x32 PUSH1 0x4 MSTORE PUSH1 0x24 PUSH0 REVERT JUMPDEST PUSH0 DUP3 PUSH1 0x1F DUP4 ADD SLT PUSH2 0x2678 JUMPI PUSH0 DUP1 REVERT JUMPDEST DUP2 MLOAD PUSH8 0xFFFFFFFFFFFFFFFF DUP2 GT ISZERO PUSH2 0x2692 JUMPI PUSH2 0x2692 PUSH2 0x2164 JUMP JUMPDEST PUSH2 0x26A5 PUSH1 0x1F DUP3 ADD PUSH1 0x1F NOT AND PUSH1 0x20 ADD PUSH2 0x21A1 JUMP JUMPDEST DUP2 DUP2 MSTORE DUP5 PUSH1 0x20 DUP4 DUP7 ADD ADD GT ISZERO PUSH2 0x26B9 JUMPI PUSH0 DUP1 REVERT JUMPDEST PUSH2 0x26CA DUP3 PUSH1 0x20 DUP4 ADD PUSH1 0x20 DUP8 ADD PUSH2 0x22A4 JUMP JUMPDEST SWAP5 SWAP4 POP POP POP POP JUMP JUMPDEST PUSH0 PUSH1 0x20 DUP1 DUP4 DUP6 SUB SLT ISZERO PUSH2 0x26E3 JUMPI PUSH0 DUP1 REVERT JUMPDEST DUP3 MLOAD PUSH8 0xFFFFFFFFFFFFFFFF DUP1 DUP3 GT ISZERO PUSH2 0x26FA JUMPI PUSH0 DUP1 REVERT JUMPDEST DUP2 DUP6 ADD SWAP2 POP DUP6 PUSH1 0x1F DUP4 ADD SLT PUSH2 0x270D JUMPI PUSH0 DUP1 REVERT JUMPDEST DUP2 MLOAD PUSH2 0x271B PUSH2 0x224B DUP3 PUSH2 0x21D2 JUMP JUMPDEST DUP2 DUP2 MSTORE PUSH1 0x5 SWAP2 SWAP1 SWAP2 SHL DUP4 ADD DUP5 ADD SWAP1 DUP5 DUP2 ADD SWAP1 DUP9 DUP4 GT ISZERO PUSH2 0x2739 JUMPI PUSH0 DUP1 REVERT JUMPDEST DUP6 DUP6 ADD JUMPDEST DUP4 DUP2 LT ISZERO PUSH2 0x27E8 JUMPI DUP1 MLOAD DUP6 DUP2 GT ISZERO PUSH2 0x2753 JUMPI PUSH0 DUP1 REVERT JUMPDEST DUP7 ADD PUSH1 0xC0 DUP2 DUP13 SUB PUSH1 0x1F NOT ADD DUP2 SGT ISZERO PUSH2 0x2769 JUMPI PUSH0 DUP1 REVERT JUMPDEST PUSH2 0x2771 PUSH2 0x2178 JUMP JUMPDEST DUP10 DUP4 ADD MLOAD DUP2 MSTORE PUSH1 0x40 DUP1 DUP5 ADD MLOAD DUP12 DUP4 ADD MSTORE PUSH1 0x60 DUP1 DUP6 ADD MLOAD PUSH2 0x2790 DUP2 PUSH2 0x2040 JUMP JUMPDEST DUP1 DUP4 DUP6 ADD MSTORE POP PUSH1 0x80 SWAP2 POP DUP2 DUP6 ADD MLOAD PUSH2 0x27A7 DUP2 PUSH2 0x2040 JUMP JUMPDEST SWAP1 DUP4 ADD MSTORE PUSH1 0xA0 DUP5 DUP2 ADD MLOAD DUP3 DUP5 ADD MSTORE SWAP3 DUP5 ADD MLOAD SWAP3 DUP10 DUP5 GT ISZERO PUSH2 0x27C6 JUMPI PUSH0 DUP1 REVERT JUMPDEST PUSH2 0x27D4 DUP16 DUP14 DUP7 DUP9 ADD ADD PUSH2 0x2669 JUMP JUMPDEST SWAP1 DUP4 ADD MSTORE POP DUP6 MSTORE POP POP SWAP2 DUP7 ADD SWAP2 DUP7 ADD PUSH2 0x273D JUMP JUMPDEST POP SWAP9 SWAP8 POP POP POP POP POP POP POP POP JUMP JUMPDEST PUSH4 0x4E487B71 PUSH1 0xE0 SHL PUSH0 MSTORE PUSH1 0x11 PUSH1 0x4 MSTORE PUSH1 0x24 PUSH0 REVERT JUMPDEST DUP1 DUP3 MUL DUP2 ISZERO DUP3 DUP3 DIV DUP5 EQ OR PUSH2 0xE23 JUMPI PUSH2 0xE23 PUSH2 0x27F5 JUMP JUMPDEST PUSH0 DUP3 PUSH2 0x283A JUMPI PUSH4 0x4E487B71 PUSH1 0xE0 SHL PUSH0 MSTORE PUSH1 0x12 PUSH1 0x4 MSTORE PUSH1 0x24 PUSH0 REVERT JUMPDEST POP DIV SWAP1 JUMP JUMPDEST DUP1 DUP3 ADD DUP1 DUP3 GT ISZERO PUSH2 0xE23 JUMPI PUSH2 0xE23 PUSH2 0x27F5 JUMP JUMPDEST DUP2 DUP2 SUB DUP2 DUP2 GT ISZERO PUSH2 0xE23 JUMPI PUSH2 0xE23 PUSH2 0x27F5 JUMP JUMPDEST PUSH0 PUSH1 0x20 DUP3 DUP5 SUB SLT ISZERO PUSH2 0x2875 JUMPI PUSH0 DUP1 REVERT JUMPDEST DUP2 MLOAD PUSH8 0xFFFFFFFFFFFFFFFF DUP2 GT ISZERO PUSH2 0x288B JUMPI PUSH0 DUP1 REVERT JUMPDEST PUSH2 0x26CA DUP5 DUP3 DUP6 ADD PUSH2 0x2669 JUMP JUMPDEST PUSH0 PUSH1 0x1 DUP3 ADD PUSH2 0x28A8 JUMPI PUSH2 0x28A8 PUSH2 0x27F5 JUMP JUMPDEST POP PUSH1 0x1 ADD SWAP1 JUMP JUMPDEST PUSH1 0x1 DUP2 DUP2 SHR SWAP1 DUP3 AND DUP1 PUSH2 0x28C3 JUMPI PUSH1 0x7F DUP3 AND SWAP2 POP JUMPDEST PUSH1 0x20 DUP3 LT DUP2 SUB PUSH2 0x28E1 JUMPI PUSH4 0x4E487B71 PUSH1 0xE0 SHL PUSH0 MSTORE PUSH1 0x22 PUSH1 0x4 MSTORE PUSH1 0x24 PUSH0 REVERT JUMPDEST POP SWAP2 SWAP1 POP JUMP INVALID LOG2 PUSH5 0x6970667358 0x22 SLT KECCAK256 SDIV 0x22 0xB0 0x29 CALL 0xC3 0x4E EXTCODECOPY JUMPDEST SELFDESTRUCT AND KECCAK256 SLOAD SLT 0xD9 NOT EXTCODECOPY 0xC5 0xBB ORIGIN 0xC PUSH18 0xDDD0BDB25A72EB1F8E6664736F6C63430008 AND STOP CALLER "
		},
		"gasEstimates": {
			"creation": {
				"codeDepositCost": "2105000",
				"executionCost": "infinite",
				"totalCost": "infinite"
			},
			"external": {
				"Bidding(address,uint256,uint256)": "infinite",
				"BiddingCount(address,uint256,address,uint256)": "infinite",
				"CancelOffer(uint256)": "infinite",
				"ListNft(address,uint256,uint256,address,uint256)": "infinite",
				"NftAuction(address,uint256)": "15524",
				"SelectedUser(uint256)": "2481",
				"_idToNFT(address,uint256)": "17783",
				"_nftCount()": "2364",
				"auctionListCount(uint256)": "4711",
				"buyNft(uint256,uint256)": "infinite",
				"buyerFee()": "2403",
				"buyerFeePerAge()": "2339",
				"editOffer(uint256,uint256)": "86319",
				"getAllListedNfts()": "infinite",
				"getNFTDetail(address,address[])": "infinite",
				"listCount(uint256)": "4712",
				"nftAuctionCount()": "2386",
				"owner()": "2375",
				"renounceOwnership()": "infinite",
				"sellerFee()": "2380",
				"sellerFeePerAge()": "2405",
				"setBuyerFee(uint256)": "24574",
				"setBuyerFeeAddress(address)": "26837",
				"setSellerFee(uint256)": "24577",
				"setSellerFeeAddress(address)": "26796",
				"transferOwnership(address)": "infinite",
				"userBiddingCount(address,uint256,address)": "infinite",
				"userListCount(uint256)": "2503"
			}
		},
		"methodIdentifiers": {
			"Bidding(address,uint256,uint256)": "b23adf20",
			"BiddingCount(address,uint256,address,uint256)": "b7d41e22",
			"CancelOffer(uint256)": "4e455dbe",
			"ListNft(address,uint256,uint256,address,uint256)": "210d135e",
			"NftAuction(address,uint256)": "0e260e86",
			"SelectedUser(uint256)": "6fd3e1cd",
			"_idToNFT(address,uint256)": "2791a4d0",
			"_nftCount()": "d6cbb202",
			"auctionListCount(uint256)": "d84c0fd3",
			"buyNft(uint256,uint256)": "556f8084",
			"buyerFee()": "5de6c42f",
			"buyerFeePerAge()": "cc76bd70",
			"editOffer(uint256,uint256)": "1cd7a534",
			"getAllListedNfts()": "95ce4a3b",
			"getNFTDetail(address,address[])": "39b7e971",
			"listCount(uint256)": "8d02f792",
			"nftAuctionCount()": "6617b35d",
			"owner()": "8da5cb5b",
			"renounceOwnership()": "715018a6",
			"sellerFee()": "e1f3d55a",
			"sellerFeePerAge()": "6c7e1dd0",
			"setBuyerFee(uint256)": "fa7da19d",
			"setBuyerFeeAddress(address)": "fc05b353",
			"setSellerFee(uint256)": "1bfee121",
			"setSellerFeeAddress(address)": "10390006",
			"transferOwnership(address)": "f2fde38b",
			"userBiddingCount(address,uint256,address)": "369136bd",
			"userListCount(uint256)": "1e903868"
		}
	},
	"abi": [
		{
			"inputs": [
				{
					"internalType": "address",
					"name": "_buyer",
					"type": "address"
				},
				{
					"internalType": "address",
					"name": "_seller",
					"type": "address"
				},
				{
					"internalType": "uint256",
					"name": "_buyerFeePerAge",
					"type": "uint256"
				},
				{
					"internalType": "uint256",
					"name": "_sellerFeePerAge",
					"type": "uint256"
				}
			],
			"stateMutability": "nonpayable",
			"type": "constructor"
		},
		{
			"anonymous": false,
			"inputs": [
				{
					"indexed": false,
					"internalType": "uint256",
					"name": "tokenId",
					"type": "uint256"
				},
				{
					"indexed": false,
					"internalType": "address",
					"name": "buyer",
					"type": "address"
				},
				{
					"indexed": false,
					"internalType": "uint256",
					"name": "ClaimTime",
					"type": "uint256"
				}
			],
			"name": "Claim",
			"type": "event"
		},
		{
			"anonymous": false,
			"inputs": [
				{
					"indexed": false,
					"internalType": "address",
					"name": "ArtistAddress",
					"type": "address"
				},
				{
					"indexed": false,
					"internalType": "uint256",
					"name": "ArtistFee",
					"type": "uint256"
				}
			],
			"name": "Fee",
			"type": "event"
		},
		{
			"anonymous": false,
			"inputs": [
				{
					"indexed": false,
					"internalType": "uint256",
					"name": "tokenId",
					"type": "uint256"
				},
				{
					"indexed": false,
					"internalType": "address",
					"name": "seller",
					"type": "address"
				},
				{
					"indexed": false,
					"internalType": "address",
					"name": "owner",
					"type": "address"
				},
				{
					"indexed": false,
					"internalType": "uint256",
					"name": "price",
					"type": "uint256"
				}
			],
			"name": "NFTCancel",
			"type": "event"
		},
		{
			"anonymous": false,
			"inputs": [
				{
					"indexed": false,
					"internalType": "uint256",
					"name": "tokenId",
					"type": "uint256"
				},
				{
					"indexed": false,
					"internalType": "address",
					"name": "seller",
					"type": "address"
				},
				{
					"indexed": false,
					"internalType": "address",
					"name": "owner",
					"type": "address"
				},
				{
					"indexed": false,
					"internalType": "uint256",
					"name": "price",
					"type": "uint256"
				}
			],
			"name": "NFTListed",
			"type": "event"
		},
		{
			"anonymous": false,
			"inputs": [
				{
					"indexed": false,
					"internalType": "uint256",
					"name": "tokenId",
					"type": "uint256"
				},
				{
					"indexed": false,
					"internalType": "address",
					"name": "seller",
					"type": "address"
				},
				{
					"indexed": false,
					"internalType": "address",
					"name": "owner",
					"type": "address"
				},
				{
					"indexed": false,
					"internalType": "uint256",
					"name": "price",
					"type": "uint256"
				},
				{
					"indexed": false,
					"internalType": "uint256",
					"name": "SoldTime",
					"type": "uint256"
				}
			],
			"name": "NFTSold",
			"type": "event"
		},
		{
			"anonymous": false,
			"inputs": [
				{
					"indexed": true,
					"internalType": "address",
					"name": "previousOwner",
					"type": "address"
				},
				{
					"indexed": true,
					"internalType": "address",
					"name": "newOwner",
					"type": "address"
				}
			],
			"name": "OwnershipTransferred",
			"type": "event"
		},
		{
			"inputs": [
				{
					"internalType": "address",
					"name": "",
					"type": "address"
				},
				{
					"internalType": "uint256",
					"name": "",
					"type": "uint256"
				},
				{
					"internalType": "uint256",
					"name": "",
					"type": "uint256"
				}
			],
			"name": "Bidding",
			"outputs": [
				{
					"internalType": "address",
					"name": "user",
					"type": "address"
				},
				{
					"internalType": "string",
					"name": "userName",
					"type": "string"
				},
				{
					"internalType": "uint256",
					"name": "price",
					"type": "uint256"
				},
				{
					"internalType": "uint256",
					"name": "biddingTime",
					"type": "uint256"
				},
				{
					"internalType": "uint256",
					"name": "bidCount",
					"type": "uint256"
				}
			],
			"stateMutability": "view",
			"type": "function"
		},
		{
			"inputs": [
				{
					"internalType": "address",
					"name": "",
					"type": "address"
				},
				{
					"internalType": "uint256",
					"name": "",
					"type": "uint256"
				},
				{
					"internalType": "address",
					"name": "",
					"type": "address"
				},
				{
					"internalType": "uint256",
					"name": "",
					"type": "uint256"
				}
			],
			"name": "BiddingCount",
			"outputs": [
				{
					"internalType": "uint256",
					"name": "",
					"type": "uint256"
				}
			],
			"stateMutability": "view",
			"type": "function"
		},
		{
			"inputs": [
				{
					"internalType": "uint256",
					"name": "listIndex",
					"type": "uint256"
				}
			],
			"name": "CancelOffer",
			"outputs": [],
			"stateMutability": "nonpayable",
			"type": "function"
		},
		{
			"inputs": [
				{
					"internalType": "address",
					"name": "_mintContract",
					"type": "address"
				},
				{
					"internalType": "uint256",
					"name": "_price",
					"type": "uint256"
				},
				{
					"internalType": "uint256",
					"name": "_tokenId",
					"type": "uint256"
				},
				{
					"internalType": "address",
					"name": "artist",
					"type": "address"
				},
				{
					"internalType": "uint256",
					"name": "artistFeePerAge",
					"type": "uint256"
				}
			],
			"name": "ListNft",
			"outputs": [],
			"stateMutability": "nonpayable",
			"type": "function"
		},
		{
			"inputs": [
				{
					"internalType": "address",
					"name": "",
					"type": "address"
				},
				{
					"internalType": "uint256",
					"name": "",
					"type": "uint256"
				}
			],
			"name": "NftAuction",
			"outputs": [
				{
					"internalType": "address",
					"name": "owner",
					"type": "address"
				},
				{
					"internalType": "uint256",
					"name": "tokenId",
					"type": "uint256"
				},
				{
					"internalType": "uint256",
					"name": "minimumBid",
					"type": "uint256"
				},
				{
					"internalType": "address",
					"name": "artist",
					"type": "address"
				},
				{
					"internalType": "uint256",
					"name": "artistFeePerAge",
					"type": "uint256"
				},
				{
					"internalType": "uint256",
					"name": "listTime",
					"type": "uint256"
				},
				{
					"internalType": "bool",
					"name": "isActive",
					"type": "bool"
				}
			],
			"stateMutability": "view",
			"type": "function"
		},
		{
			"inputs": [
				{
					"internalType": "uint256",
					"name": "",
					"type": "uint256"
				}
			],
			"name": "SelectedUser",
			"outputs": [
				{
					"internalType": "uint256",
					"name": "",
					"type": "uint256"
				}
			],
			"stateMutability": "view",
			"type": "function"
		},
		{
			"inputs": [
				{
					"internalType": "address",
					"name": "",
					"type": "address"
				},
				{
					"internalType": "uint256",
					"name": "",
					"type": "uint256"
				}
			],
			"name": "_idToNFT",
			"outputs": [
				{
					"internalType": "uint256",
					"name": "tokenId",
					"type": "uint256"
				},
				{
					"internalType": "address",
					"name": "seller",
					"type": "address"
				},
				{
					"internalType": "address",
					"name": "owner",
					"type": "address"
				},
				{
					"internalType": "uint256",
					"name": "price",
					"type": "uint256"
				},
				{
					"internalType": "uint256",
					"name": "count",
					"type": "uint256"
				},
				{
					"internalType": "uint256",
					"name": "listTime",
					"type": "uint256"
				},
				{
					"internalType": "bool",
					"name": "listed",
					"type": "bool"
				},
				{
					"internalType": "address",
					"name": "artist",
					"type": "address"
				},
				{
					"internalType": "uint256",
					"name": "artistFeePerAge",
					"type": "uint256"
				}
			],
			"stateMutability": "view",
			"type": "function"
		},
		{
			"inputs": [],
			"name": "_nftCount",
			"outputs": [
				{
					"internalType": "uint256",
					"name": "_value",
					"type": "uint256"
				}
			],
			"stateMutability": "view",
			"type": "function"
		},
		{
			"inputs": [
				{
					"internalType": "uint256",
					"name": "",
					"type": "uint256"
				}
			],
			"name": "auctionListCount",
			"outputs": [
				{
					"internalType": "address",
					"name": "contractAddress",
					"type": "address"
				},
				{
					"internalType": "uint256",
					"name": "tokenId",
					"type": "uint256"
				}
			],
			"stateMutability": "view",
			"type": "function"
		},
		{
			"inputs": [
				{
					"internalType": "uint256",
					"name": "listIndex",
					"type": "uint256"
				},
				{
					"internalType": "uint256",
					"name": "price",
					"type": "uint256"
				}
			],
			"name": "buyNft",
			"outputs": [],
			"stateMutability": "payable",
			"type": "function"
		},
		{
			"inputs": [],
			"name": "buyerFee",
			"outputs": [
				{
					"internalType": "address",
					"name": "",
					"type": "address"
				}
			],
			"stateMutability": "view",
			"type": "function"
		},
		{
			"inputs": [],
			"name": "buyerFeePerAge",
			"outputs": [
				{
					"internalType": "uint256",
					"name": "",
					"type": "uint256"
				}
			],
			"stateMutability": "view",
			"type": "function"
		},
		{
			"inputs": [
				{
					"internalType": "uint256",
					"name": "listIndex",
					"type": "uint256"
				},
				{
					"internalType": "uint256",
					"name": "price",
					"type": "uint256"
				}
			],
			"name": "editOffer",
			"outputs": [],
			"stateMutability": "nonpayable",
			"type": "function"
		},
		{
			"inputs": [],
			"name": "getAllListedNfts",
			"outputs": [
				{
					"components": [
						{
							"components": [
								{
									"internalType": "uint256",
									"name": "tokenId",
									"type": "uint256"
								},
								{
									"internalType": "address",
									"name": "seller",
									"type": "address"
								},
								{
									"internalType": "address",
									"name": "owner",
									"type": "address"
								},
								{
									"internalType": "uint256",
									"name": "price",
									"type": "uint256"
								},
								{
									"internalType": "uint256",
									"name": "count",
									"type": "uint256"
								},
								{
									"internalType": "uint256",
									"name": "listTime",
									"type": "uint256"
								},
								{
									"internalType": "bool",
									"name": "listed",
									"type": "bool"
								},
								{
									"internalType": "address",
									"name": "artist",
									"type": "address"
								},
								{
									"internalType": "uint256",
									"name": "artistFeePerAge",
									"type": "uint256"
								}
							],
							"internalType": "struct Marketplace.NFT",
							"name": "listedData",
							"type": "tuple"
						},
						{
							"internalType": "uint256",
							"name": "listCount",
							"type": "uint256"
						},
						{
							"internalType": "string",
							"name": "uriData",
							"type": "string"
						}
					],
					"internalType": "struct Marketplace.ListedNftTokenId[]",
					"name": "",
					"type": "tuple[]"
				},
				{
					"components": [
						{
							"components": [
								{
									"internalType": "address",
									"name": "owner",
									"type": "address"
								},
								{
									"internalType": "uint256",
									"name": "tokenId",
									"type": "uint256"
								},
								{
									"internalType": "uint256",
									"name": "minimumBid",
									"type": "uint256"
								},
								{
									"internalType": "address",
									"name": "artist",
									"type": "address"
								},
								{
									"internalType": "uint256",
									"name": "artistFeePerAge",
									"type": "uint256"
								},
								{
									"internalType": "uint256",
									"name": "listTime",
									"type": "uint256"
								},
								{
									"internalType": "bool",
									"name": "isActive",
									"type": "bool"
								}
							],
							"internalType": "struct Marketplace.nftAuction",
							"name": "listedData",
							"type": "tuple"
						},
						{
							"internalType": "uint256",
							"name": "listCount",
							"type": "uint256"
						},
						{
							"internalType": "string",
							"name": "uriData",
							"type": "string"
						}
					],
					"internalType": "struct Marketplace.ListTokenId[]",
					"name": "",
					"type": "tuple[]"
				}
			],
			"stateMutability": "view",
			"type": "function"
		},
		{
			"inputs": [
				{
					"internalType": "address",
					"name": "_to",
					"type": "address"
				},
				{
					"internalType": "address[]",
					"name": "contractAddresses",
					"type": "address[]"
				}
			],
			"name": "getNFTDetail",
			"outputs": [
				{
					"components": [
						{
							"internalType": "uint256",
							"name": "tokenId",
							"type": "uint256"
						},
						{
							"internalType": "uint256",
							"name": "mintTime",
							"type": "uint256"
						},
						{
							"internalType": "address",
							"name": "mintContract",
							"type": "address"
						},
						{
							"internalType": "address",
							"name": "mintArtist",
							"type": "address"
						},
						{
							"internalType": "uint256",
							"name": "artistFeePerAge",
							"type": "uint256"
						},
						{
							"internalType": "string",
							"name": "uri",
							"type": "string"
						}
					],
					"internalType": "struct Marketplace.MyNft[][]",
					"name": "",
					"type": "tuple[][]"
				}
			],
			"stateMutability": "view",
			"type": "function"
		},
		{
			"inputs": [
				{
					"internalType": "uint256",
					"name": "",
					"type": "uint256"
				}
			],
			"name": "listCount",
			"outputs": [
				{
					"internalType": "address",
					"name": "contractAddress",
					"type": "address"
				},
				{
					"internalType": "uint256",
					"name": "tokenId",
					"type": "uint256"
				}
			],
			"stateMutability": "view",
			"type": "function"
		},
		{
			"inputs": [],
			"name": "nftAuctionCount",
			"outputs": [
				{
					"internalType": "uint256",
					"name": "_value",
					"type": "uint256"
				}
			],
			"stateMutability": "view",
			"type": "function"
		},
		{
			"inputs": [],
			"name": "owner",
			"outputs": [
				{
					"internalType": "address",
					"name": "",
					"type": "address"
				}
			],
			"stateMutability": "view",
			"type": "function"
		},
		{
			"inputs": [],
			"name": "renounceOwnership",
			"outputs": [],
			"stateMutability": "nonpayable",
			"type": "function"
		},
		{
			"inputs": [],
			"name": "sellerFee",
			"outputs": [
				{
					"internalType": "address",
					"name": "",
					"type": "address"
				}
			],
			"stateMutability": "view",
			"type": "function"
		},
		{
			"inputs": [],
			"name": "sellerFeePerAge",
			"outputs": [
				{
					"internalType": "uint256",
					"name": "",
					"type": "uint256"
				}
			],
			"stateMutability": "view",
			"type": "function"
		},
		{
			"inputs": [
				{
					"internalType": "uint256",
					"name": "_setBuyerFee",
					"type": "uint256"
				}
			],
			"name": "setBuyerFee",
			"outputs": [],
			"stateMutability": "nonpayable",
			"type": "function"
		},
		{
			"inputs": [
				{
					"internalType": "address",
					"name": "_address",
					"type": "address"
				}
			],
			"name": "setBuyerFeeAddress",
			"outputs": [],
			"stateMutability": "nonpayable",
			"type": "function"
		},
		{
			"inputs": [
				{
					"internalType": "uint256",
					"name": "_setSellerFee",
					"type": "uint256"
				}
			],
			"name": "setSellerFee",
			"outputs": [],
			"stateMutability": "nonpayable",
			"type": "function"
		},
		{
			"inputs": [
				{
					"internalType": "address",
					"name": "_address",
					"type": "address"
				}
			],
			"name": "setSellerFeeAddress",
			"outputs": [],
			"stateMutability": "nonpayable",
			"type": "function"
		},
		{
			"inputs": [
				{
					"internalType": "address",
					"name": "newOwner",
					"type": "address"
				}
			],
			"name": "transferOwnership",
			"outputs": [],
			"stateMutability": "nonpayable",
			"type": "function"
		},
		{
			"inputs": [
				{
					"internalType": "address",
					"name": "",
					"type": "address"
				},
				{
					"internalType": "uint256",
					"name": "",
					"type": "uint256"
				},
				{
					"internalType": "address",
					"name": "",
					"type": "address"
				}
			],
			"name": "userBiddingCount",
			"outputs": [
				{
					"internalType": "uint256",
					"name": "",
					"type": "uint256"
				}
			],
			"stateMutability": "view",
			"type": "function"
		},
		{
			"inputs": [
				{
					"internalType": "uint256",
					"name": "",
					"type": "uint256"
				}
			],
			"name": "userListCount",
			"outputs": [
				{
					"internalType": "uint256",
					"name": "",
					"type": "uint256"
				}
			],
			"stateMutability": "view",
			"type": "function"
		}
	]
}