{
	"contracts/Lavocate/mint.sol": {
		"LegalAiContract": {
			"abi": [
				{
					"inputs": [
						{
							"internalType": "address",
							"name": "initialOwner",
							"type": "address"
						}
					],
					"stateMutability": "nonpayable",
					"type": "constructor"
				},
				{
					"inputs": [
						{
							"internalType": "address",
							"name": "sender",
							"type": "address"
						},
						{
							"internalType": "uint256",
							"name": "tokenId",
							"type": "uint256"
						},
						{
							"internalType": "address",
							"name": "owner",
							"type": "address"
						}
					],
					"name": "ERC721IncorrectOwner",
					"type": "error"
				},
				{
					"inputs": [
						{
							"internalType": "address",
							"name": "operator",
							"type": "address"
						},
						{
							"internalType": "uint256",
							"name": "tokenId",
							"type": "uint256"
						}
					],
					"name": "ERC721InsufficientApproval",
					"type": "error"
				},
				{
					"inputs": [
						{
							"internalType": "address",
							"name": "approver",
							"type": "address"
						}
					],
					"name": "ERC721InvalidApprover",
					"type": "error"
				},
				{
					"inputs": [
						{
							"internalType": "address",
							"name": "operator",
							"type": "address"
						}
					],
					"name": "ERC721InvalidOperator",
					"type": "error"
				},
				{
					"inputs": [
						{
							"internalType": "address",
							"name": "owner",
							"type": "address"
						}
					],
					"name": "ERC721InvalidOwner",
					"type": "error"
				},
				{
					"inputs": [
						{
							"internalType": "address",
							"name": "receiver",
							"type": "address"
						}
					],
					"name": "ERC721InvalidReceiver",
					"type": "error"
				},
				{
					"inputs": [
						{
							"internalType": "address",
							"name": "sender",
							"type": "address"
						}
					],
					"name": "ERC721InvalidSender",
					"type": "error"
				},
				{
					"inputs": [
						{
							"internalType": "uint256",
							"name": "tokenId",
							"type": "uint256"
						}
					],
					"name": "ERC721NonexistentToken",
					"type": "error"
				},
				{
					"inputs": [
						{
							"internalType": "address",
							"name": "owner",
							"type": "address"
						}
					],
					"name": "OwnableInvalidOwner",
					"type": "error"
				},
				{
					"inputs": [
						{
							"internalType": "address",
							"name": "account",
							"type": "address"
						}
					],
					"name": "OwnableUnauthorizedAccount",
					"type": "error"
				},
				{
					"anonymous": false,
					"inputs": [
						{
							"indexed": true,
							"internalType": "address",
							"name": "owner",
							"type": "address"
						},
						{
							"indexed": true,
							"internalType": "address",
							"name": "approved",
							"type": "address"
						},
						{
							"indexed": true,
							"internalType": "uint256",
							"name": "tokenId",
							"type": "uint256"
						}
					],
					"name": "Approval",
					"type": "event"
				},
				{
					"anonymous": false,
					"inputs": [
						{
							"indexed": true,
							"internalType": "address",
							"name": "owner",
							"type": "address"
						},
						{
							"indexed": true,
							"internalType": "address",
							"name": "operator",
							"type": "address"
						},
						{
							"indexed": false,
							"internalType": "bool",
							"name": "approved",
							"type": "bool"
						}
					],
					"name": "ApprovalForAll",
					"type": "event"
				},
				{
					"anonymous": false,
					"inputs": [
						{
							"indexed": false,
							"internalType": "uint256",
							"name": "_fromTokenId",
							"type": "uint256"
						},
						{
							"indexed": false,
							"internalType": "uint256",
							"name": "_toTokenId",
							"type": "uint256"
						}
					],
					"name": "BatchMetadataUpdate",
					"type": "event"
				},
				{
					"anonymous": false,
					"inputs": [
						{
							"indexed": false,
							"internalType": "uint256",
							"name": "_tokenId",
							"type": "uint256"
						}
					],
					"name": "MetadataUpdate",
					"type": "event"
				},
				{
					"anonymous": false,
					"inputs": [
						{
							"indexed": true,
							"internalType": "address",
							"name": "previousOwner",
							"type": "address"
						},
						{
							"indexed": true,
							"internalType": "address",
							"name": "newOwner",
							"type": "address"
						}
					],
					"name": "OwnershipTransferred",
					"type": "event"
				},
				{
					"anonymous": false,
					"inputs": [
						{
							"indexed": true,
							"internalType": "address",
							"name": "from",
							"type": "address"
						},
						{
							"indexed": true,
							"internalType": "address",
							"name": "to",
							"type": "address"
						},
						{
							"indexed": true,
							"internalType": "uint256",
							"name": "tokenId",
							"type": "uint256"
						}
					],
					"name": "Transfer",
					"type": "event"
				},
				{
					"inputs": [],
					"name": "_nextTokenId",
					"outputs": [
						{
							"internalType": "uint256",
							"name": "",
							"type": "uint256"
						}
					],
					"stateMutability": "view",
					"type": "function"
				},
				{
					"inputs": [
						{
							"internalType": "address",
							"name": "to",
							"type": "address"
						},
						{
							"internalType": "uint256",
							"name": "tokenId",
							"type": "uint256"
						}
					],
					"name": "approve",
					"outputs": [],
					"stateMutability": "nonpayable",
					"type": "function"
				},
				{
					"inputs": [
						{
							"internalType": "address",
							"name": "owner",
							"type": "address"
						}
					],
					"name": "balanceOf",
					"outputs": [
						{
							"internalType": "uint256",
							"name": "",
							"type": "uint256"
						}
					],
					"stateMutability": "view",
					"type": "function"
				},
				{
					"inputs": [
						{
							"internalType": "address",
							"name": "to",
							"type": "address"
						}
					],
					"name": "getAllURIPerUser",
					"outputs": [
						{
							"internalType": "string[]",
							"name": "",
							"type": "string[]"
						}
					],
					"stateMutability": "view",
					"type": "function"
				},
				{
					"inputs": [
						{
							"internalType": "uint256",
							"name": "tokenId",
							"type": "uint256"
						}
					],
					"name": "getApproved",
					"outputs": [
						{
							"internalType": "address",
							"name": "",
							"type": "address"
						}
					],
					"stateMutability": "view",
					"type": "function"
				},
				{
					"inputs": [
						{
							"internalType": "address",
							"name": "",
							"type": "address"
						},
						{
							"internalType": "uint256",
							"name": "",
							"type": "uint256"
						}
					],
					"name": "getURI",
					"outputs": [
						{
							"internalType": "string",
							"name": "",
							"type": "string"
						}
					],
					"stateMutability": "view",
					"type": "function"
				},
				{
					"inputs": [
						{
							"internalType": "address",
							"name": "owner",
							"type": "address"
						},
						{
							"internalType": "address",
							"name": "operator",
							"type": "address"
						}
					],
					"name": "isApprovedForAll",
					"outputs": [
						{
							"internalType": "bool",
							"name": "",
							"type": "bool"
						}
					],
					"stateMutability": "view",
					"type": "function"
				},
				{
					"inputs": [],
					"name": "name",
					"outputs": [
						{
							"internalType": "string",
							"name": "",
							"type": "string"
						}
					],
					"stateMutability": "view",
					"type": "function"
				},
				{
					"inputs": [],
					"name": "owner",
					"outputs": [
						{
							"internalType": "address",
							"name": "",
							"type": "address"
						}
					],
					"stateMutability": "view",
					"type": "function"
				},
				{
					"inputs": [
						{
							"internalType": "uint256",
							"name": "tokenId",
							"type": "uint256"
						}
					],
					"name": "ownerOf",
					"outputs": [
						{
							"internalType": "address",
							"name": "",
							"type": "address"
						}
					],
					"stateMutability": "view",
					"type": "function"
				},
				{
					"inputs": [],
					"name": "renounceOwnership",
					"outputs": [],
					"stateMutability": "nonpayable",
					"type": "function"
				},
				{
					"inputs": [
						{
							"internalType": "address",
							"name": "to",
							"type": "address"
						},
						{
							"internalType": "string",
							"name": "uri",
							"type": "string"
						}
					],
					"name": "safeMint",
					"outputs": [],
					"stateMutability": "nonpayable",
					"type": "function"
				},
				{
					"inputs": [
						{
							"internalType": "address",
							"name": "from",
							"type": "address"
						},
						{
							"internalType": "address",
							"name": "to",
							"type": "address"
						},
						{
							"internalType": "uint256",
							"name": "tokenId",
							"type": "uint256"
						}
					],
					"name": "safeTransferFrom",
					"outputs": [],
					"stateMutability": "nonpayable",
					"type": "function"
				},
				{
					"inputs": [
						{
							"internalType": "address",
							"name": "from",
							"type": "address"
						},
						{
							"internalType": "address",
							"name": "to",
							"type": "address"
						},
						{
							"internalType": "uint256",
							"name": "tokenId",
							"type": "uint256"
						},
						{
							"internalType": "bytes",
							"name": "data",
							"type": "bytes"
						}
					],
					"name": "safeTransferFrom",
					"outputs": [],
					"stateMutability": "nonpayable",
					"type": "function"
				},
				{
					"inputs": [
						{
							"internalType": "address",
							"name": "operator",
							"type": "address"
						},
						{
							"internalType": "bool",
							"name": "approved",
							"type": "bool"
						}
					],
					"name": "setApprovalForAll",
					"outputs": [],
					"stateMutability": "nonpayable",
					"type": "function"
				},
				{
					"inputs": [
						{
							"internalType": "bytes4",
							"name": "interfaceId",
							"type": "bytes4"
						}
					],
					"name": "supportsInterface",
					"outputs": [
						{
							"internalType": "bool",
							"name": "",
							"type": "bool"
						}
					],
					"stateMutability": "view",
					"type": "function"
				},
				{
					"inputs": [],
					"name": "symbol",
					"outputs": [
						{
							"internalType": "string",
							"name": "",
							"type": "string"
						}
					],
					"stateMutability": "view",
					"type": "function"
				},
				{
					"inputs": [
						{
							"internalType": "uint256",
							"name": "tokenId",
							"type": "uint256"
						}
					],
					"name": "tokenURI",
					"outputs": [
						{
							"internalType": "string",
							"name": "",
							"type": "string"
						}
					],
					"stateMutability": "view",
					"type": "function"
				},
				{
					"inputs": [
						{
							"internalType": "address",
							"name": "",
							"type": "address"
						}
					],
					"name": "totalMintPerUser",
					"outputs": [
						{
							"internalType": "uint256",
							"name": "",
							"type": "uint256"
						}
					],
					"stateMutability": "view",
					"type": "function"
				},
				{
					"inputs": [
						{
							"internalType": "address",
							"name": "from",
							"type": "address"
						},
						{
							"internalType": "address",
							"name": "to",
							"type": "address"
						},
						{
							"internalType": "uint256",
							"name": "tokenId",
							"type": "uint256"
						}
					],
					"name": "transferFrom",
					"outputs": [],
					"stateMutability": "nonpayable",
					"type": "function"
				},
				{
					"inputs": [
						{
							"internalType": "address",
							"name": "newOwner",
							"type": "address"
						}
					],
					"name": "transferOwnership",
					"outputs": [],
					"stateMutability": "nonpayable",
					"type": "function"
				}
			],
			"devdoc": {
				"errors": {
					"ERC721IncorrectOwner(address,uint256,address)": [
						{
							"details": "Indicates an error related to the ownership over a particular token. Used in transfers.",
							"params": {
								"owner": "Address of the current owner of a token.",
								"sender": "Address whose tokens are being transferred.",
								"tokenId": "Identifier number of a token."
							}
						}
					],
					"ERC721InsufficientApproval(address,uint256)": [
						{
							"details": "Indicates a failure with the `operator`’s approval. Used in transfers.",
							"params": {
								"operator": "Address that may be allowed to operate on tokens without being their owner.",
								"tokenId": "Identifier number of a token."
							}
						}
					],
					"ERC721InvalidApprover(address)": [
						{
							"details": "Indicates a failure with the `approver` of a token to be approved. Used in approvals.",
							"params": {
								"approver": "Address initiating an approval operation."
							}
						}
					],
					"ERC721InvalidOperator(address)": [
						{
							"details": "Indicates a failure with the `operator` to be approved. Used in approvals.",
							"params": {
								"operator": "Address that may be allowed to operate on tokens without being their owner."
							}
						}
					],
					"ERC721InvalidOwner(address)": [
						{
							"details": "Indicates that an address can't be an owner. For example, `address(0)` is a forbidden owner in EIP-20. Used in balance queries.",
							"params": {
								"owner": "Address of the current owner of a token."
							}
						}
					],
					"ERC721InvalidReceiver(address)": [
						{
							"details": "Indicates a failure with the token `receiver`. Used in transfers.",
							"params": {
								"receiver": "Address to which tokens are being transferred."
							}
						}
					],
					"ERC721InvalidSender(address)": [
						{
							"details": "Indicates a failure with the token `sender`. Used in transfers.",
							"params": {
								"sender": "Address whose tokens are being transferred."
							}
						}
					],
					"ERC721NonexistentToken(uint256)": [
						{
							"details": "Indicates a `tokenId` whose `owner` is the zero address.",
							"params": {
								"tokenId": "Identifier number of a token."
							}
						}
					],
					"OwnableInvalidOwner(address)": [
						{
							"details": "The owner is not a valid owner account. (eg. `address(0)`)"
						}
					],
					"OwnableUnauthorizedAccount(address)": [
						{
							"details": "The caller account is not authorized to perform an operation."
						}
					]
				},
				"events": {
					"Approval(address,address,uint256)": {
						"details": "Emitted when `owner` enables `approved` to manage the `tokenId` token."
					},
					"ApprovalForAll(address,address,bool)": {
						"details": "Emitted when `owner` enables or disables (`approved`) `operator` to manage all of its assets."
					},
					"BatchMetadataUpdate(uint256,uint256)": {
						"details": "This event emits when the metadata of a range of tokens is changed. So that the third-party platforms such as NFT market could timely update the images and related attributes of the NFTs."
					},
					"MetadataUpdate(uint256)": {
						"details": "This event emits when the metadata of a token is changed. So that the third-party platforms such as NFT market could timely update the images and related attributes of the NFT."
					},
					"Transfer(address,address,uint256)": {
						"details": "Emitted when `tokenId` token is transferred from `from` to `to`."
					}
				},
				"kind": "dev",
				"methods": {
					"approve(address,uint256)": {
						"details": "See {IERC721-approve}."
					},
					"balanceOf(address)": {
						"details": "See {IERC721-balanceOf}."
					},
					"getApproved(uint256)": {
						"details": "See {IERC721-getApproved}."
					},
					"isApprovedForAll(address,address)": {
						"details": "See {IERC721-isApprovedForAll}."
					},
					"name()": {
						"details": "See {IERC721Metadata-name}."
					},
					"owner()": {
						"details": "Returns the address of the current owner."
					},
					"ownerOf(uint256)": {
						"details": "See {IERC721-ownerOf}."
					},
					"renounceOwnership()": {
						"details": "Leaves the contract without owner. It will not be possible to call `onlyOwner` functions. Can only be called by the current owner. NOTE: Renouncing ownership will leave the contract without an owner, thereby disabling any functionality that is only available to the owner."
					},
					"safeTransferFrom(address,address,uint256)": {
						"details": "See {IERC721-safeTransferFrom}."
					},
					"safeTransferFrom(address,address,uint256,bytes)": {
						"details": "See {IERC721-safeTransferFrom}."
					},
					"setApprovalForAll(address,bool)": {
						"details": "See {IERC721-setApprovalForAll}."
					},
					"symbol()": {
						"details": "See {IERC721Metadata-symbol}."
					},
					"transferFrom(address,address,uint256)": {
						"details": "See {IERC721-transferFrom}."
					},
					"transferOwnership(address)": {
						"details": "Transfers ownership of the contract to a new account (`newOwner`). Can only be called by the current owner."
					}
				},
				"version": 1
			},
			"evm": {
				"assembly": "    /* \"contracts/Lavocate/mint.sol\":266:1521  contract LegalAiContract is ERC721, ERC721URIStorage, Ownable {... */\n  mstore(0x40, 0x80)\n    /* \"contracts/Lavocate/mint.sol\":485:576  constructor(address initialOwner) ERC721(\"LegalAl\", \"AI\") Ownable(initialOwner)... */\n  callvalue\n  dup1\n  iszero\n  tag_1\n  jumpi\n  0x00\n  dup1\n  revert\ntag_1:\n  pop\n  mload(0x40)\n  sub(codesize, bytecodeSize)\n  dup1\n  bytecodeSize\n  dup4\n  codecopy\n  dup2\n  dup2\n  add\n  0x40\n  mstore\n  dup2\n  add\n  swap1\n  tag_2\n  swap2\n  swap1\n  tag_3\n  jump\t// in\ntag_2:\n    /* \"contracts/Lavocate/mint.sol\":551:563  initialOwner */\n  dup1\n    /* \"@openzeppelin/contracts@5.0.1/token/ERC721/ERC721.sol\":1381:1494  constructor(string memory name_, string memory symbol_) {... */\n  mload(0x40)\n  dup1\n  0x40\n  add\n  0x40\n  mstore\n  dup1\n  0x07\n  dup2\n  mstore\n  0x20\n  add\n  0x4c6567616c416c00000000000000000000000000000000000000000000000000\n  dup2\n  mstore\n  pop\n  mload(0x40)\n  dup1\n  0x40\n  add\n  0x40\n  mstore\n  dup1\n  0x02\n  dup2\n  mstore\n  0x20\n  add\n  0x4149000000000000000000000000000000000000000000000000000000000000\n  dup2\n  mstore\n  pop\n    /* \"@openzeppelin/contracts@5.0.1/token/ERC721/ERC721.sol\":1455:1460  name_ */\n  dup2\n    /* \"@openzeppelin/contracts@5.0.1/token/ERC721/ERC721.sol\":1447:1452  _name */\n  0x00\n    /* \"@openzeppelin/contracts@5.0.1/token/ERC721/ERC721.sol\":1447:1460  _name = name_ */\n  swap1\n  dup2\n  tag_8\n  swap2\n  swap1\n  tag_9\n  jump\t// in\ntag_8:\n  pop\n    /* \"@openzeppelin/contracts@5.0.1/token/ERC721/ERC721.sol\":1480:1487  symbol_ */\n  dup1\n    /* \"@openzeppelin/contracts@5.0.1/token/ERC721/ERC721.sol\":1470:1477  _symbol */\n  0x01\n    /* \"@openzeppelin/contracts@5.0.1/token/ERC721/ERC721.sol\":1470:1487  _symbol = symbol_ */\n  swap1\n  dup2\n  tag_10\n  swap2\n  swap1\n  tag_9\n  jump\t// in\ntag_10:\n  pop\n    /* \"@openzeppelin/contracts@5.0.1/token/ERC721/ERC721.sol\":1381:1494  constructor(string memory name_, string memory symbol_) {... */\n  pop\n  pop\n    /* \"@openzeppelin/contracts@5.0.1/access/Ownable.sol\":1297:1298  0 */\n  0x00\n    /* \"@openzeppelin/contracts@5.0.1/access/Ownable.sol\":1273:1299  initialOwner == address(0) */\n  0xffffffffffffffffffffffffffffffffffffffff\n  and\n    /* \"@openzeppelin/contracts@5.0.1/access/Ownable.sol\":1273:1285  initialOwner */\n  dup2\n    /* \"@openzeppelin/contracts@5.0.1/access/Ownable.sol\":1273:1299  initialOwner == address(0) */\n  0xffffffffffffffffffffffffffffffffffffffff\n  and\n  sub\n    /* \"@openzeppelin/contracts@5.0.1/access/Ownable.sol\":1269:1364  if (initialOwner == address(0)) {... */\n  tag_12\n  jumpi\n    /* \"@openzeppelin/contracts@5.0.1/access/Ownable.sol\":1350:1351  0 */\n  0x00\n    /* \"@openzeppelin/contracts@5.0.1/access/Ownable.sol\":1322:1353  OwnableInvalidOwner(address(0)) */\n  mload(0x40)\n  0x1e4fbdf700000000000000000000000000000000000000000000000000000000\n  dup2\n  mstore\n  0x04\n  add\n  tag_13\n  swap2\n  swap1\n  tag_14\n  jump\t// in\ntag_13:\n  mload(0x40)\n  dup1\n  swap2\n  sub\n  swap1\n  revert\n    /* \"@openzeppelin/contracts@5.0.1/access/Ownable.sol\":1269:1364  if (initialOwner == address(0)) {... */\ntag_12:\n    /* \"@openzeppelin/contracts@5.0.1/access/Ownable.sol\":1373:1405  _transferOwnership(initialOwner) */\n  tag_15\n    /* \"@openzeppelin/contracts@5.0.1/access/Ownable.sol\":1392:1404  initialOwner */\n  dup2\n    /* \"@openzeppelin/contracts@5.0.1/access/Ownable.sol\":1373:1391  _transferOwnership */\n  shl(0x20, tag_16)\n    /* \"@openzeppelin/contracts@5.0.1/access/Ownable.sol\":1373:1405  _transferOwnership(initialOwner) */\n  0x20\n  shr\n  jump\t// in\ntag_15:\n    /* \"@openzeppelin/contracts@5.0.1/access/Ownable.sol\":1225:1412  constructor(address initialOwner) {... */\n  pop\n    /* \"contracts/Lavocate/mint.sol\":485:576  constructor(address initialOwner) ERC721(\"LegalAl\", \"AI\") Ownable(initialOwner)... */\n  pop\n    /* \"contracts/Lavocate/mint.sol\":266:1521  contract LegalAiContract is ERC721, ERC721URIStorage, Ownable {... */\n  jump(tag_18)\n    /* \"@openzeppelin/contracts@5.0.1/access/Ownable.sol\":2912:3099  function _transferOwnership(address newOwner) internal virtual {... */\ntag_16:\n    /* \"@openzeppelin/contracts@5.0.1/access/Ownable.sol\":2985:3001  address oldOwner */\n  0x00\n    /* \"@openzeppelin/contracts@5.0.1/access/Ownable.sol\":3004:3010  _owner */\n  0x07\n  0x00\n  swap1\n  sload\n  swap1\n  0x0100\n  exp\n  swap1\n  div\n  0xffffffffffffffffffffffffffffffffffffffff\n  and\n    /* \"@openzeppelin/contracts@5.0.1/access/Ownable.sol\":2985:3010  address oldOwner = _owner */\n  swap1\n  pop\n    /* \"@openzeppelin/contracts@5.0.1/access/Ownable.sol\":3029:3037  newOwner */\n  dup2\n    /* \"@openzeppelin/contracts@5.0.1/access/Ownable.sol\":3020:3026  _owner */\n  0x07\n  0x00\n    /* \"@openzeppelin/contracts@5.0.1/access/Ownable.sol\":3020:3037  _owner = newOwner */\n  0x0100\n  exp\n  dup2\n  sload\n  dup2\n  0xffffffffffffffffffffffffffffffffffffffff\n  mul\n  not\n  and\n  swap1\n  dup4\n  0xffffffffffffffffffffffffffffffffffffffff\n  and\n  mul\n  or\n  swap1\n  sstore\n  pop\n    /* \"@openzeppelin/contracts@5.0.1/access/Ownable.sol\":3083:3091  newOwner */\n  dup2\n    /* \"@openzeppelin/contracts@5.0.1/access/Ownable.sol\":3052:3092  OwnershipTransferred(oldOwner, newOwner) */\n  0xffffffffffffffffffffffffffffffffffffffff\n  and\n    /* \"@openzeppelin/contracts@5.0.1/access/Ownable.sol\":3073:3081  oldOwner */\n  dup2\n    /* \"@openzeppelin/contracts@5.0.1/access/Ownable.sol\":3052:3092  OwnershipTransferred(oldOwner, newOwner) */\n  0xffffffffffffffffffffffffffffffffffffffff\n  and\n  0x8be0079c531659141344cd1fd0a4f28419497f9722a3daafe3b4186f6b6457e0\n  mload(0x40)\n  mload(0x40)\n  dup1\n  swap2\n  sub\n  swap1\n  log3\n    /* \"@openzeppelin/contracts@5.0.1/access/Ownable.sol\":2975:3099  {... */\n  pop\n    /* \"@openzeppelin/contracts@5.0.1/access/Ownable.sol\":2912:3099  function _transferOwnership(address newOwner) internal virtual {... */\n  pop\n  jump\t// out\n    /* \"#utility.yul\":88:205   */\ntag_21:\n    /* \"#utility.yul\":197:198   */\n  0x00\n    /* \"#utility.yul\":194:195   */\n  dup1\n    /* \"#utility.yul\":187:199   */\n  revert\n    /* \"#utility.yul\":334:460   */\ntag_23:\n    /* \"#utility.yul\":371:378   */\n  0x00\n    /* \"#utility.yul\":411:453   */\n  0xffffffffffffffffffffffffffffffffffffffff\n    /* \"#utility.yul\":404:409   */\n  dup3\n    /* \"#utility.yul\":400:454   */\n  and\n    /* \"#utility.yul\":389:454   */\n  swap1\n  pop\n    /* \"#utility.yul\":334:460   */\n  swap2\n  swap1\n  pop\n  jump\t// out\n    /* \"#utility.yul\":466:562   */\ntag_24:\n    /* \"#utility.yul\":503:510   */\n  0x00\n    /* \"#utility.yul\":532:556   */\n  tag_54\n    /* \"#utility.yul\":550:555   */\n  dup3\n    /* \"#utility.yul\":532:556   */\n  tag_23\n  jump\t// in\ntag_54:\n    /* \"#utility.yul\":521:556   */\n  swap1\n  pop\n    /* \"#utility.yul\":466:562   */\n  swap2\n  swap1\n  pop\n  jump\t// out\n    /* \"#utility.yul\":568:690   */\ntag_25:\n    /* \"#utility.yul\":641:665   */\n  tag_56\n    /* \"#utility.yul\":659:664   */\n  dup2\n    /* \"#utility.yul\":641:665   */\n  tag_24\n  jump\t// in\ntag_56:\n    /* \"#utility.yul\":634:639   */\n  dup2\n    /* \"#utility.yul\":631:666   */\n  eq\n    /* \"#utility.yul\":621:684   */\n  tag_57\n  jumpi\n    /* \"#utility.yul\":680:681   */\n  0x00\n    /* \"#utility.yul\":677:678   */\n  dup1\n    /* \"#utility.yul\":670:682   */\n  revert\n    /* \"#utility.yul\":621:684   */\ntag_57:\n    /* \"#utility.yul\":568:690   */\n  pop\n  jump\t// out\n    /* \"#utility.yul\":696:839   */\ntag_26:\n    /* \"#utility.yul\":753:758   */\n  0x00\n    /* \"#utility.yul\":784:790   */\n  dup2\n    /* \"#utility.yul\":778:791   */\n  mload\n    /* \"#utility.yul\":769:791   */\n  swap1\n  pop\n    /* \"#utility.yul\":800:833   */\n  tag_59\n    /* \"#utility.yul\":827:832   */\n  dup2\n    /* \"#utility.yul\":800:833   */\n  tag_25\n  jump\t// in\ntag_59:\n    /* \"#utility.yul\":696:839   */\n  swap3\n  swap2\n  pop\n  pop\n  jump\t// out\n    /* \"#utility.yul\":845:1196   */\ntag_3:\n    /* \"#utility.yul\":915:921   */\n  0x00\n    /* \"#utility.yul\":964:966   */\n  0x20\n    /* \"#utility.yul\":952:961   */\n  dup3\n    /* \"#utility.yul\":943:950   */\n  dup5\n    /* \"#utility.yul\":939:962   */\n  sub\n    /* \"#utility.yul\":935:967   */\n  slt\n    /* \"#utility.yul\":932:1051   */\n  iszero\n  tag_61\n  jumpi\n    /* \"#utility.yul\":970:1049   */\n  tag_62\n  tag_21\n  jump\t// in\ntag_62:\n    /* \"#utility.yul\":932:1051   */\ntag_61:\n    /* \"#utility.yul\":1090:1091   */\n  0x00\n    /* \"#utility.yul\":1115:1179   */\n  tag_63\n    /* \"#utility.yul\":1171:1178   */\n  dup5\n    /* \"#utility.yul\":1162:1168   */\n  dup3\n    /* \"#utility.yul\":1151:1160   */\n  dup6\n    /* \"#utility.yul\":1147:1169   */\n  add\n    /* \"#utility.yul\":1115:1179   */\n  tag_26\n  jump\t// in\ntag_63:\n    /* \"#utility.yul\":1105:1179   */\n  swap2\n  pop\n    /* \"#utility.yul\":1061:1189   */\n  pop\n    /* \"#utility.yul\":845:1196   */\n  swap3\n  swap2\n  pop\n  pop\n  jump\t// out\n    /* \"#utility.yul\":1202:1301   */\ntag_27:\n    /* \"#utility.yul\":1254:1260   */\n  0x00\n    /* \"#utility.yul\":1288:1293   */\n  dup2\n    /* \"#utility.yul\":1282:1294   */\n  mload\n    /* \"#utility.yul\":1272:1294   */\n  swap1\n  pop\n    /* \"#utility.yul\":1202:1301   */\n  swap2\n  swap1\n  pop\n  jump\t// out\n    /* \"#utility.yul\":1307:1487   */\ntag_28:\n    /* \"#utility.yul\":1355:1432   */\n  0x4e487b7100000000000000000000000000000000000000000000000000000000\n    /* \"#utility.yul\":1352:1353   */\n  0x00\n    /* \"#utility.yul\":1345:1433   */\n  mstore\n    /* \"#utility.yul\":1452:1456   */\n  0x41\n    /* \"#utility.yul\":1449:1450   */\n  0x04\n    /* \"#utility.yul\":1442:1457   */\n  mstore\n    /* \"#utility.yul\":1476:1480   */\n  0x24\n    /* \"#utility.yul\":1473:1474   */\n  0x00\n    /* \"#utility.yul\":1466:1481   */\n  revert\n    /* \"#utility.yul\":1493:1673   */\ntag_29:\n    /* \"#utility.yul\":1541:1618   */\n  0x4e487b7100000000000000000000000000000000000000000000000000000000\n    /* \"#utility.yul\":1538:1539   */\n  0x00\n    /* \"#utility.yul\":1531:1619   */\n  mstore\n    /* \"#utility.yul\":1638:1642   */\n  0x22\n    /* \"#utility.yul\":1635:1636   */\n  0x04\n    /* \"#utility.yul\":1628:1643   */\n  mstore\n    /* \"#utility.yul\":1662:1666   */\n  0x24\n    /* \"#utility.yul\":1659:1660   */\n  0x00\n    /* \"#utility.yul\":1652:1667   */\n  revert\n    /* \"#utility.yul\":1679:1999   */\ntag_30:\n    /* \"#utility.yul\":1723:1729   */\n  0x00\n    /* \"#utility.yul\":1760:1761   */\n  0x02\n    /* \"#utility.yul\":1754:1758   */\n  dup3\n    /* \"#utility.yul\":1750:1762   */\n  div\n    /* \"#utility.yul\":1740:1762   */\n  swap1\n  pop\n    /* \"#utility.yul\":1807:1808   */\n  0x01\n    /* \"#utility.yul\":1801:1805   */\n  dup3\n    /* \"#utility.yul\":1797:1809   */\n  and\n    /* \"#utility.yul\":1828:1846   */\n  dup1\n    /* \"#utility.yul\":1818:1899   */\n  tag_68\n  jumpi\n    /* \"#utility.yul\":1884:1888   */\n  0x7f\n    /* \"#utility.yul\":1876:1882   */\n  dup3\n    /* \"#utility.yul\":1872:1889   */\n  and\n    /* \"#utility.yul\":1862:1889   */\n  swap2\n  pop\n    /* \"#utility.yul\":1818:1899   */\ntag_68:\n    /* \"#utility.yul\":1946:1948   */\n  0x20\n    /* \"#utility.yul\":1938:1944   */\n  dup3\n    /* \"#utility.yul\":1935:1949   */\n  lt\n    /* \"#utility.yul\":1915:1933   */\n  dup2\n    /* \"#utility.yul\":1912:1950   */\n  sub\n    /* \"#utility.yul\":1909:1993   */\n  tag_69\n  jumpi\n    /* \"#utility.yul\":1965:1983   */\n  tag_70\n  tag_29\n  jump\t// in\ntag_70:\n    /* \"#utility.yul\":1909:1993   */\ntag_69:\n    /* \"#utility.yul\":1730:1999   */\n  pop\n    /* \"#utility.yul\":1679:1999   */\n  swap2\n  swap1\n  pop\n  jump\t// out\n    /* \"#utility.yul\":2005:2146   */\ntag_31:\n    /* \"#utility.yul\":2054:2058   */\n  0x00\n    /* \"#utility.yul\":2077:2080   */\n  dup2\n    /* \"#utility.yul\":2069:2080   */\n  swap1\n  pop\n    /* \"#utility.yul\":2100:2103   */\n  dup2\n    /* \"#utility.yul\":2097:2098   */\n  0x00\n    /* \"#utility.yul\":2090:2104   */\n  mstore\n    /* \"#utility.yul\":2134:2138   */\n  0x20\n    /* \"#utility.yul\":2131:2132   */\n  0x00\n    /* \"#utility.yul\":2121:2139   */\n  keccak256\n    /* \"#utility.yul\":2113:2139   */\n  swap1\n  pop\n    /* \"#utility.yul\":2005:2146   */\n  swap2\n  swap1\n  pop\n  jump\t// out\n    /* \"#utility.yul\":2152:2245   */\ntag_32:\n    /* \"#utility.yul\":2189:2195   */\n  0x00\n    /* \"#utility.yul\":2236:2238   */\n  0x20\n    /* \"#utility.yul\":2231:2233   */\n  0x1f\n    /* \"#utility.yul\":2224:2229   */\n  dup4\n    /* \"#utility.yul\":2220:2234   */\n  add\n    /* \"#utility.yul\":2216:2239   */\n  div\n    /* \"#utility.yul\":2206:2239   */\n  swap1\n  pop\n    /* \"#utility.yul\":2152:2245   */\n  swap2\n  swap1\n  pop\n  jump\t// out\n    /* \"#utility.yul\":2251:2358   */\ntag_33:\n    /* \"#utility.yul\":2295:2303   */\n  0x00\n    /* \"#utility.yul\":2345:2350   */\n  dup3\n    /* \"#utility.yul\":2339:2343   */\n  dup3\n    /* \"#utility.yul\":2335:2351   */\n  shl\n    /* \"#utility.yul\":2314:2351   */\n  swap1\n  pop\n    /* \"#utility.yul\":2251:2358   */\n  swap3\n  swap2\n  pop\n  pop\n  jump\t// out\n    /* \"#utility.yul\":2364:2757   */\ntag_34:\n    /* \"#utility.yul\":2433:2439   */\n  0x00\n    /* \"#utility.yul\":2483:2484   */\n  0x08\n    /* \"#utility.yul\":2471:2481   */\n  dup4\n    /* \"#utility.yul\":2467:2485   */\n  mul\n    /* \"#utility.yul\":2506:2603   */\n  tag_75\n    /* \"#utility.yul\":2536:2602   */\n  0xffffffffffffffffffffffffffffffffffffffffffffffffffffffffffffffff\n    /* \"#utility.yul\":2525:2534   */\n  dup3\n    /* \"#utility.yul\":2506:2603   */\n  tag_33\n  jump\t// in\ntag_75:\n    /* \"#utility.yul\":2624:2663   */\n  tag_76\n    /* \"#utility.yul\":2654:2662   */\n  dup7\n    /* \"#utility.yul\":2643:2652   */\n  dup4\n    /* \"#utility.yul\":2624:2663   */\n  tag_33\n  jump\t// in\ntag_76:\n    /* \"#utility.yul\":2612:2663   */\n  swap6\n  pop\n    /* \"#utility.yul\":2696:2700   */\n  dup1\n    /* \"#utility.yul\":2692:2701   */\n  not\n    /* \"#utility.yul\":2685:2690   */\n  dup5\n    /* \"#utility.yul\":2681:2702   */\n  and\n    /* \"#utility.yul\":2672:2702   */\n  swap4\n  pop\n    /* \"#utility.yul\":2745:2749   */\n  dup1\n    /* \"#utility.yul\":2735:2743   */\n  dup7\n    /* \"#utility.yul\":2731:2750   */\n  and\n    /* \"#utility.yul\":2724:2729   */\n  dup5\n    /* \"#utility.yul\":2721:2751   */\n  or\n    /* \"#utility.yul\":2711:2751   */\n  swap3\n  pop\n    /* \"#utility.yul\":2440:2757   */\n  pop\n  pop\n    /* \"#utility.yul\":2364:2757   */\n  swap4\n  swap3\n  pop\n  pop\n  pop\n  jump\t// out\n    /* \"#utility.yul\":2763:2840   */\ntag_35:\n    /* \"#utility.yul\":2800:2807   */\n  0x00\n    /* \"#utility.yul\":2829:2834   */\n  dup2\n    /* \"#utility.yul\":2818:2834   */\n  swap1\n  pop\n    /* \"#utility.yul\":2763:2840   */\n  swap2\n  swap1\n  pop\n  jump\t// out\n    /* \"#utility.yul\":2846:2906   */\ntag_36:\n    /* \"#utility.yul\":2874:2877   */\n  0x00\n    /* \"#utility.yul\":2895:2900   */\n  dup2\n    /* \"#utility.yul\":2888:2900   */\n  swap1\n  pop\n    /* \"#utility.yul\":2846:2906   */\n  swap2\n  swap1\n  pop\n  jump\t// out\n    /* \"#utility.yul\":2912:3054   */\ntag_37:\n    /* \"#utility.yul\":2962:2971   */\n  0x00\n    /* \"#utility.yul\":2995:3048   */\n  tag_80\n    /* \"#utility.yul\":3013:3047   */\n  tag_81\n    /* \"#utility.yul\":3022:3046   */\n  tag_82\n    /* \"#utility.yul\":3040:3045   */\n  dup5\n    /* \"#utility.yul\":3022:3046   */\n  tag_35\n  jump\t// in\ntag_82:\n    /* \"#utility.yul\":3013:3047   */\n  tag_36\n  jump\t// in\ntag_81:\n    /* \"#utility.yul\":2995:3048   */\n  tag_35\n  jump\t// in\ntag_80:\n    /* \"#utility.yul\":2982:3048   */\n  swap1\n  pop\n    /* \"#utility.yul\":2912:3054   */\n  swap2\n  swap1\n  pop\n  jump\t// out\n    /* \"#utility.yul\":3060:3135   */\ntag_38:\n    /* \"#utility.yul\":3103:3106   */\n  0x00\n    /* \"#utility.yul\":3124:3129   */\n  dup2\n    /* \"#utility.yul\":3117:3129   */\n  swap1\n  pop\n    /* \"#utility.yul\":3060:3135   */\n  swap2\n  swap1\n  pop\n  jump\t// out\n    /* \"#utility.yul\":3141:3410   */\ntag_39:\n    /* \"#utility.yul\":3251:3290   */\n  tag_85\n    /* \"#utility.yul\":3282:3289   */\n  dup4\n    /* \"#utility.yul\":3251:3290   */\n  tag_37\n  jump\t// in\ntag_85:\n    /* \"#utility.yul\":3312:3403   */\n  tag_86\n    /* \"#utility.yul\":3361:3402   */\n  tag_87\n    /* \"#utility.yul\":3385:3401   */\n  dup3\n    /* \"#utility.yul\":3361:3402   */\n  tag_38\n  jump\t// in\ntag_87:\n    /* \"#utility.yul\":3353:3359   */\n  dup5\n    /* \"#utility.yul\":3346:3350   */\n  dup5\n    /* \"#utility.yul\":3340:3351   */\n  sload\n    /* \"#utility.yul\":3312:3403   */\n  tag_34\n  jump\t// in\ntag_86:\n    /* \"#utility.yul\":3306:3310   */\n  dup3\n    /* \"#utility.yul\":3299:3404   */\n  sstore\n    /* \"#utility.yul\":3217:3410   */\n  pop\n    /* \"#utility.yul\":3141:3410   */\n  pop\n  pop\n  pop\n  jump\t// out\n    /* \"#utility.yul\":3416:3489   */\ntag_40:\n    /* \"#utility.yul\":3461:3464   */\n  0x00\n    /* \"#utility.yul\":3416:3489   */\n  swap1\n  jump\t// out\n    /* \"#utility.yul\":3495:3684   */\ntag_41:\n    /* \"#utility.yul\":3572:3604   */\n  tag_90\n  tag_40\n  jump\t// in\ntag_90:\n    /* \"#utility.yul\":3613:3678   */\n  tag_91\n    /* \"#utility.yul\":3671:3677   */\n  dup2\n    /* \"#utility.yul\":3663:3669   */\n  dup5\n    /* \"#utility.yul\":3657:3661   */\n  dup5\n    /* \"#utility.yul\":3613:3678   */\n  tag_39\n  jump\t// in\ntag_91:\n    /* \"#utility.yul\":3548:3684   */\n  pop\n    /* \"#utility.yul\":3495:3684   */\n  pop\n  pop\n  jump\t// out\n    /* \"#utility.yul\":3690:3876   */\ntag_42:\n    /* \"#utility.yul\":3750:3870   */\ntag_93:\n    /* \"#utility.yul\":3767:3770   */\n  dup2\n    /* \"#utility.yul\":3760:3765   */\n  dup2\n    /* \"#utility.yul\":3757:3771   */\n  lt\n    /* \"#utility.yul\":3750:3870   */\n  iszero\n  tag_95\n  jumpi\n    /* \"#utility.yul\":3821:3860   */\n  tag_96\n    /* \"#utility.yul\":3858:3859   */\n  0x00\n    /* \"#utility.yul\":3851:3856   */\n  dup3\n    /* \"#utility.yul\":3821:3860   */\n  tag_41\n  jump\t// in\ntag_96:\n    /* \"#utility.yul\":3794:3795   */\n  0x01\n    /* \"#utility.yul\":3787:3792   */\n  dup2\n    /* \"#utility.yul\":3783:3796   */\n  add\n    /* \"#utility.yul\":3774:3796   */\n  swap1\n  pop\n    /* \"#utility.yul\":3750:3870   */\n  jump(tag_93)\ntag_95:\n    /* \"#utility.yul\":3690:3876   */\n  pop\n  pop\n  jump\t// out\n    /* \"#utility.yul\":3882:4425   */\ntag_43:\n    /* \"#utility.yul\":3983:3985   */\n  0x1f\n    /* \"#utility.yul\":3978:3981   */\n  dup3\n    /* \"#utility.yul\":3975:3986   */\n  gt\n    /* \"#utility.yul\":3972:4418   */\n  iszero\n  tag_98\n  jumpi\n    /* \"#utility.yul\":4017:4055   */\n  tag_99\n    /* \"#utility.yul\":4049:4054   */\n  dup2\n    /* \"#utility.yul\":4017:4055   */\n  tag_31\n  jump\t// in\ntag_99:\n    /* \"#utility.yul\":4101:4130   */\n  tag_100\n    /* \"#utility.yul\":4119:4129   */\n  dup5\n    /* \"#utility.yul\":4101:4130   */\n  tag_32\n  jump\t// in\ntag_100:\n    /* \"#utility.yul\":4091:4099   */\n  dup2\n    /* \"#utility.yul\":4087:4131   */\n  add\n    /* \"#utility.yul\":4284:4286   */\n  0x20\n    /* \"#utility.yul\":4272:4282   */\n  dup6\n    /* \"#utility.yul\":4269:4287   */\n  lt\n    /* \"#utility.yul\":4266:4315   */\n  iszero\n  tag_101\n  jumpi\n    /* \"#utility.yul\":4305:4313   */\n  dup2\n    /* \"#utility.yul\":4290:4313   */\n  swap1\n  pop\n    /* \"#utility.yul\":4266:4315   */\ntag_101:\n    /* \"#utility.yul\":4328:4408   */\n  tag_102\n    /* \"#utility.yul\":4384:4406   */\n  tag_103\n    /* \"#utility.yul\":4402:4405   */\n  dup6\n    /* \"#utility.yul\":4384:4406   */\n  tag_32\n  jump\t// in\ntag_103:\n    /* \"#utility.yul\":4374:4382   */\n  dup4\n    /* \"#utility.yul\":4370:4407   */\n  add\n    /* \"#utility.yul\":4357:4368   */\n  dup3\n    /* \"#utility.yul\":4328:4408   */\n  tag_42\n  jump\t// in\ntag_102:\n    /* \"#utility.yul\":3987:4418   */\n  pop\n  pop\n    /* \"#utility.yul\":3972:4418   */\ntag_98:\n    /* \"#utility.yul\":3882:4425   */\n  pop\n  pop\n  pop\n  jump\t// out\n    /* \"#utility.yul\":4431:4548   */\ntag_44:\n    /* \"#utility.yul\":4485:4493   */\n  0x00\n    /* \"#utility.yul\":4535:4540   */\n  dup3\n    /* \"#utility.yul\":4529:4533   */\n  dup3\n    /* \"#utility.yul\":4525:4541   */\n  shr\n    /* \"#utility.yul\":4504:4541   */\n  swap1\n  pop\n    /* \"#utility.yul\":4431:4548   */\n  swap3\n  swap2\n  pop\n  pop\n  jump\t// out\n    /* \"#utility.yul\":4554:4723   */\ntag_45:\n    /* \"#utility.yul\":4598:4604   */\n  0x00\n    /* \"#utility.yul\":4631:4682   */\n  tag_106\n    /* \"#utility.yul\":4679:4680   */\n  0x00\n    /* \"#utility.yul\":4675:4681   */\n  not\n    /* \"#utility.yul\":4667:4672   */\n  dup5\n    /* \"#utility.yul\":4664:4665   */\n  0x08\n    /* \"#utility.yul\":4660:4673   */\n  mul\n    /* \"#utility.yul\":4631:4682   */\n  tag_44\n  jump\t// in\ntag_106:\n    /* \"#utility.yul\":4627:4683   */\n  not\n    /* \"#utility.yul\":4712:4716   */\n  dup1\n    /* \"#utility.yul\":4706:4710   */\n  dup4\n    /* \"#utility.yul\":4702:4717   */\n  and\n    /* \"#utility.yul\":4692:4717   */\n  swap2\n  pop\n    /* \"#utility.yul\":4605:4723   */\n  pop\n    /* \"#utility.yul\":4554:4723   */\n  swap3\n  swap2\n  pop\n  pop\n  jump\t// out\n    /* \"#utility.yul\":4728:5023   */\ntag_46:\n    /* \"#utility.yul\":4804:4808   */\n  0x00\n    /* \"#utility.yul\":4950:4979   */\n  tag_108\n    /* \"#utility.yul\":4975:4978   */\n  dup4\n    /* \"#utility.yul\":4969:4973   */\n  dup4\n    /* \"#utility.yul\":4950:4979   */\n  tag_45\n  jump\t// in\ntag_108:\n    /* \"#utility.yul\":4942:4979   */\n  swap2\n  pop\n    /* \"#utility.yul\":5012:5015   */\n  dup3\n    /* \"#utility.yul\":5009:5010   */\n  0x02\n    /* \"#utility.yul\":5005:5016   */\n  mul\n    /* \"#utility.yul\":4999:5003   */\n  dup3\n    /* \"#utility.yul\":4996:5017   */\n  or\n    /* \"#utility.yul\":4988:5017   */\n  swap1\n  pop\n    /* \"#utility.yul\":4728:5023   */\n  swap3\n  swap2\n  pop\n  pop\n  jump\t// out\n    /* \"#utility.yul\":5028:6423   */\ntag_9:\n    /* \"#utility.yul\":5145:5182   */\n  tag_110\n    /* \"#utility.yul\":5178:5181   */\n  dup3\n    /* \"#utility.yul\":5145:5182   */\n  tag_27\n  jump\t// in\ntag_110:\n    /* \"#utility.yul\":5247:5265   */\n  0xffffffffffffffff\n    /* \"#utility.yul\":5239:5245   */\n  dup2\n    /* \"#utility.yul\":5236:5266   */\n  gt\n    /* \"#utility.yul\":5233:5289   */\n  iszero\n  tag_111\n  jumpi\n    /* \"#utility.yul\":5269:5287   */\n  tag_112\n  tag_28\n  jump\t// in\ntag_112:\n    /* \"#utility.yul\":5233:5289   */\ntag_111:\n    /* \"#utility.yul\":5313:5351   */\n  tag_113\n    /* \"#utility.yul\":5345:5349   */\n  dup3\n    /* \"#utility.yul\":5339:5350   */\n  sload\n    /* \"#utility.yul\":5313:5351   */\n  tag_30\n  jump\t// in\ntag_113:\n    /* \"#utility.yul\":5398:5465   */\n  tag_114\n    /* \"#utility.yul\":5458:5464   */\n  dup3\n    /* \"#utility.yul\":5450:5456   */\n  dup3\n    /* \"#utility.yul\":5444:5448   */\n  dup6\n    /* \"#utility.yul\":5398:5465   */\n  tag_43\n  jump\t// in\ntag_114:\n    /* \"#utility.yul\":5492:5493   */\n  0x00\n    /* \"#utility.yul\":5516:5520   */\n  0x20\n    /* \"#utility.yul\":5503:5520   */\n  swap1\n  pop\n    /* \"#utility.yul\":5548:5550   */\n  0x1f\n    /* \"#utility.yul\":5540:5546   */\n  dup4\n    /* \"#utility.yul\":5537:5551   */\n  gt\n    /* \"#utility.yul\":5565:5566   */\n  0x01\n    /* \"#utility.yul\":5560:6178   */\n  dup2\n  eq\n  tag_116\n  jumpi\n    /* \"#utility.yul\":6222:6223   */\n  0x00\n    /* \"#utility.yul\":6239:6245   */\n  dup5\n    /* \"#utility.yul\":6236:6313   */\n  iszero\n  tag_117\n  jumpi\n    /* \"#utility.yul\":6288:6297   */\n  dup3\n    /* \"#utility.yul\":6283:6286   */\n  dup8\n    /* \"#utility.yul\":6279:6298   */\n  add\n    /* \"#utility.yul\":6273:6299   */\n  mload\n    /* \"#utility.yul\":6264:6299   */\n  swap1\n  pop\n    /* \"#utility.yul\":6236:6313   */\ntag_117:\n    /* \"#utility.yul\":6339:6406   */\n  tag_118\n    /* \"#utility.yul\":6399:6405   */\n  dup6\n    /* \"#utility.yul\":6392:6397   */\n  dup3\n    /* \"#utility.yul\":6339:6406   */\n  tag_46\n  jump\t// in\ntag_118:\n    /* \"#utility.yul\":6333:6337   */\n  dup7\n    /* \"#utility.yul\":6326:6407   */\n  sstore\n    /* \"#utility.yul\":6195:6417   */\n  pop\n    /* \"#utility.yul\":5530:6417   */\n  jump(tag_115)\n    /* \"#utility.yul\":5560:6178   */\ntag_116:\n    /* \"#utility.yul\":5612:5616   */\n  0x1f\n    /* \"#utility.yul\":5608:5617   */\n  not\n    /* \"#utility.yul\":5600:5606   */\n  dup5\n    /* \"#utility.yul\":5596:5618   */\n  and\n    /* \"#utility.yul\":5646:5683   */\n  tag_119\n    /* \"#utility.yul\":5678:5682   */\n  dup7\n    /* \"#utility.yul\":5646:5683   */\n  tag_31\n  jump\t// in\ntag_119:\n    /* \"#utility.yul\":5705:5706   */\n  0x00\n    /* \"#utility.yul\":5719:5927   */\ntag_120:\n    /* \"#utility.yul\":5733:5740   */\n  dup3\n    /* \"#utility.yul\":5730:5731   */\n  dup2\n    /* \"#utility.yul\":5727:5741   */\n  lt\n    /* \"#utility.yul\":5719:5927   */\n  iszero\n  tag_122\n  jumpi\n    /* \"#utility.yul\":5812:5821   */\n  dup5\n    /* \"#utility.yul\":5807:5810   */\n  dup10\n    /* \"#utility.yul\":5803:5822   */\n  add\n    /* \"#utility.yul\":5797:5823   */\n  mload\n    /* \"#utility.yul\":5789:5795   */\n  dup3\n    /* \"#utility.yul\":5782:5824   */\n  sstore\n    /* \"#utility.yul\":5863:5864   */\n  0x01\n    /* \"#utility.yul\":5855:5861   */\n  dup3\n    /* \"#utility.yul\":5851:5865   */\n  add\n    /* \"#utility.yul\":5841:5865   */\n  swap2\n  pop\n    /* \"#utility.yul\":5910:5912   */\n  0x20\n    /* \"#utility.yul\":5899:5908   */\n  dup6\n    /* \"#utility.yul\":5895:5913   */\n  add\n    /* \"#utility.yul\":5882:5913   */\n  swap5\n  pop\n    /* \"#utility.yul\":5756:5760   */\n  0x20\n    /* \"#utility.yul\":5753:5754   */\n  dup2\n    /* \"#utility.yul\":5749:5761   */\n  add\n    /* \"#utility.yul\":5744:5761   */\n  swap1\n  pop\n    /* \"#utility.yul\":5719:5927   */\n  jump(tag_120)\ntag_122:\n    /* \"#utility.yul\":5955:5961   */\n  dup7\n    /* \"#utility.yul\":5946:5953   */\n  dup4\n    /* \"#utility.yul\":5943:5962   */\n  lt\n    /* \"#utility.yul\":5940:6119   */\n  iszero\n  tag_123\n  jumpi\n    /* \"#utility.yul\":6013:6022   */\n  dup5\n    /* \"#utility.yul\":6008:6011   */\n  dup10\n    /* \"#utility.yul\":6004:6023   */\n  add\n    /* \"#utility.yul\":5998:6024   */\n  mload\n    /* \"#utility.yul\":6056:6104   */\n  tag_124\n    /* \"#utility.yul\":6098:6102   */\n  0x1f\n    /* \"#utility.yul\":6090:6096   */\n  dup10\n    /* \"#utility.yul\":6086:6103   */\n  and\n    /* \"#utility.yul\":6075:6084   */\n  dup3\n    /* \"#utility.yul\":6056:6104   */\n  tag_45\n  jump\t// in\ntag_124:\n    /* \"#utility.yul\":6048:6054   */\n  dup4\n    /* \"#utility.yul\":6041:6105   */\n  sstore\n    /* \"#utility.yul\":5963:6119   */\n  pop\n    /* \"#utility.yul\":5940:6119   */\ntag_123:\n    /* \"#utility.yul\":6165:6166   */\n  0x01\n    /* \"#utility.yul\":6161:6162   */\n  0x02\n    /* \"#utility.yul\":6153:6159   */\n  dup9\n    /* \"#utility.yul\":6149:6163   */\n  mul\n    /* \"#utility.yul\":6145:6167   */\n  add\n    /* \"#utility.yul\":6139:6143   */\n  dup9\n    /* \"#utility.yul\":6132:6168   */\n  sstore\n    /* \"#utility.yul\":5567:6178   */\n  pop\n  pop\n  pop\n    /* \"#utility.yul\":5530:6417   */\ntag_115:\n  pop\n    /* \"#utility.yul\":5120:6423   */\n  pop\n  pop\n  pop\n    /* \"#utility.yul\":5028:6423   */\n  pop\n  pop\n  jump\t// out\n    /* \"#utility.yul\":6429:6547   */\ntag_47:\n    /* \"#utility.yul\":6516:6540   */\n  tag_126\n    /* \"#utility.yul\":6534:6539   */\n  dup2\n    /* \"#utility.yul\":6516:6540   */\n  tag_24\n  jump\t// in\ntag_126:\n    /* \"#utility.yul\":6511:6514   */\n  dup3\n    /* \"#utility.yul\":6504:6541   */\n  mstore\n    /* \"#utility.yul\":6429:6547   */\n  pop\n  pop\n  jump\t// out\n    /* \"#utility.yul\":6553:6775   */\ntag_14:\n    /* \"#utility.yul\":6646:6650   */\n  0x00\n    /* \"#utility.yul\":6684:6686   */\n  0x20\n    /* \"#utility.yul\":6673:6682   */\n  dup3\n    /* \"#utility.yul\":6669:6687   */\n  add\n    /* \"#utility.yul\":6661:6687   */\n  swap1\n  pop\n    /* \"#utility.yul\":6697:6768   */\n  tag_128\n    /* \"#utility.yul\":6765:6766   */\n  0x00\n    /* \"#utility.yul\":6754:6763   */\n  dup4\n    /* \"#utility.yul\":6750:6767   */\n  add\n    /* \"#utility.yul\":6741:6747   */\n  dup5\n    /* \"#utility.yul\":6697:6768   */\n  tag_47\n  jump\t// in\ntag_128:\n    /* \"#utility.yul\":6553:6775   */\n  swap3\n  swap2\n  pop\n  pop\n  jump\t// out\n    /* \"contracts/Lavocate/mint.sol\":266:1521  contract LegalAiContract is ERC721, ERC721URIStorage, Ownable {... */\ntag_18:\n  dataSize(sub_0)\n  dup1\n  dataOffset(sub_0)\n  0x00\n  codecopy\n  0x00\n  return\nstop\n\nsub_0: assembly {\n        /* \"contracts/Lavocate/mint.sol\":266:1521  contract LegalAiContract is ERC721, ERC721URIStorage, Ownable {... */\n      mstore(0x40, 0x80)\n      callvalue\n      dup1\n      iszero\n      tag_1\n      jumpi\n      0x00\n      dup1\n      revert\n    tag_1:\n      pop\n      jumpi(tag_2, lt(calldatasize, 0x04))\n      shr(0xe0, calldataload(0x00))\n      dup1\n      0x70a08231\n      gt\n      tag_24\n      jumpi\n      dup1\n      0xb88d4fde\n      gt\n      tag_25\n      jumpi\n      dup1\n      0xb88d4fde\n      eq\n      tag_18\n      jumpi\n      dup1\n      0xc87b56dd\n      eq\n      tag_19\n      jumpi\n      dup1\n      0xd204c45e\n      eq\n      tag_20\n      jumpi\n      dup1\n      0xe985e9c5\n      eq\n      tag_21\n      jumpi\n      dup1\n      0xf2fde38b\n      eq\n      tag_22\n      jumpi\n      dup1\n      0xfaaaae4b\n      eq\n      tag_23\n      jumpi\n      jump(tag_2)\n    tag_25:\n      dup1\n      0x70a08231\n      eq\n      tag_13\n      jumpi\n      dup1\n      0x715018a6\n      eq\n      tag_14\n      jumpi\n      dup1\n      0x8da5cb5b\n      eq\n      tag_15\n      jumpi\n      dup1\n      0x95d89b41\n      eq\n      tag_16\n      jumpi\n      dup1\n      0xa22cb465\n      eq\n      tag_17\n      jumpi\n      jump(tag_2)\n    tag_24:\n      dup1\n      0x23b872dd\n      gt\n      tag_26\n      jumpi\n      dup1\n      0x23b872dd\n      eq\n      tag_8\n      jumpi\n      dup1\n      0x42842e0e\n      eq\n      tag_9\n      jumpi\n      dup1\n      0x47237162\n      eq\n      tag_10\n      jumpi\n      dup1\n      0x4a60f620\n      eq\n      tag_11\n      jumpi\n      dup1\n      0x6352211e\n      eq\n      tag_12\n      jumpi\n      jump(tag_2)\n    tag_26:\n      dup1\n      0x01ffc9a7\n      eq\n      tag_3\n      jumpi\n      dup1\n      0x06fdde03\n      eq\n      tag_4\n      jumpi\n      dup1\n      0x081812fc\n      eq\n      tag_5\n      jumpi\n      dup1\n      0x08aa3e2a\n      eq\n      tag_6\n      jumpi\n      dup1\n      0x095ea7b3\n      eq\n      tag_7\n      jumpi\n    tag_2:\n      0x00\n      dup1\n      revert\n        /* \"contracts/Lavocate/mint.sol\":1314:1519  function supportsInterface(bytes4 interfaceId)... */\n    tag_3:\n      tag_27\n      0x04\n      dup1\n      calldatasize\n      sub\n      dup2\n      add\n      swap1\n      tag_28\n      swap2\n      swap1\n      tag_29\n      jump\t// in\n    tag_28:\n      tag_30\n      jump\t// in\n    tag_27:\n      mload(0x40)\n      tag_31\n      swap2\n      swap1\n      tag_32\n      jump\t// in\n    tag_31:\n      mload(0x40)\n      dup1\n      swap2\n      sub\n      swap1\n      return\n        /* \"@openzeppelin/contracts@5.0.1/token/ERC721/ERC721.sol\":2365:2454  function name() public view virtual returns (string memory) {... */\n    tag_4:\n      tag_33\n      tag_34\n      jump\t// in\n    tag_33:\n      mload(0x40)\n      tag_35\n      swap2\n      swap1\n      tag_36\n      jump\t// in\n    tag_35:\n      mload(0x40)\n      dup1\n      swap2\n      sub\n      swap1\n      return\n        /* \"@openzeppelin/contracts@5.0.1/token/ERC721/ERC721.sol\":3497:3651  function getApproved(uint256 tokenId) public view virtual returns (address) {... */\n    tag_5:\n      tag_37\n      0x04\n      dup1\n      calldatasize\n      sub\n      dup2\n      add\n      swap1\n      tag_38\n      swap2\n      swap1\n      tag_39\n      jump\t// in\n    tag_38:\n      tag_40\n      jump\t// in\n    tag_37:\n      mload(0x40)\n      tag_41\n      swap2\n      swap1\n      tag_42\n      jump\t// in\n    tag_41:\n      mload(0x40)\n      dup1\n      swap2\n      sub\n      swap1\n      return\n        /* \"contracts/Lavocate/mint.sol\":839:1115  function getAllURIPerUser(address to) public view returns (string[] memory){... */\n    tag_6:\n      tag_43\n      0x04\n      dup1\n      calldatasize\n      sub\n      dup2\n      add\n      swap1\n      tag_44\n      swap2\n      swap1\n      tag_45\n      jump\t// in\n    tag_44:\n      tag_46\n      jump\t// in\n    tag_43:\n      mload(0x40)\n      tag_47\n      swap2\n      swap1\n      tag_48\n      jump\t// in\n    tag_47:\n      mload(0x40)\n      dup1\n      swap2\n      sub\n      swap1\n      return\n        /* \"@openzeppelin/contracts@5.0.1/token/ERC721/ERC721.sol\":3323:3436  function approve(address to, uint256 tokenId) public virtual {... */\n    tag_7:\n      tag_49\n      0x04\n      dup1\n      calldatasize\n      sub\n      dup2\n      add\n      swap1\n      tag_50\n      swap2\n      swap1\n      tag_51\n      jump\t// in\n    tag_50:\n      tag_52\n      jump\t// in\n    tag_49:\n      stop\n        /* \"@openzeppelin/contracts@5.0.1/token/ERC721/ERC721.sol\":4143:4721  function transferFrom(address from, address to, uint256 tokenId) public virtual {... */\n    tag_8:\n      tag_53\n      0x04\n      dup1\n      calldatasize\n      sub\n      dup2\n      add\n      swap1\n      tag_54\n      swap2\n      swap1\n      tag_55\n      jump\t// in\n    tag_54:\n      tag_56\n      jump\t// in\n    tag_53:\n      stop\n        /* \"@openzeppelin/contracts@5.0.1/token/ERC721/ERC721.sol\":4787:4919  function safeTransferFrom(address from, address to, uint256 tokenId) public {... */\n    tag_9:\n      tag_57\n      0x04\n      dup1\n      calldatasize\n      sub\n      dup2\n      add\n      swap1\n      tag_58\n      swap2\n      swap1\n      tag_55\n      jump\t// in\n    tag_58:\n      tag_59\n      jump\t// in\n    tag_57:\n      stop\n        /* \"contracts/Lavocate/mint.sol\":419:478  mapping (address => mapping (uint => string)) public getURI */\n    tag_10:\n      tag_60\n      0x04\n      dup1\n      calldatasize\n      sub\n      dup2\n      add\n      swap1\n      tag_61\n      swap2\n      swap1\n      tag_51\n      jump\t// in\n    tag_61:\n      tag_62\n      jump\t// in\n    tag_60:\n      mload(0x40)\n      tag_63\n      swap2\n      swap1\n      tag_36\n      jump\t// in\n    tag_63:\n      mload(0x40)\n      dup1\n      swap2\n      sub\n      swap1\n      return\n        /* \"contracts/Lavocate/mint.sol\":334:358  uint public _nextTokenId */\n    tag_11:\n      tag_64\n      tag_65\n      jump\t// in\n    tag_64:\n      mload(0x40)\n      tag_66\n      swap2\n      swap1\n      tag_67\n      jump\t// in\n    tag_66:\n      mload(0x40)\n      dup1\n      swap2\n      sub\n      swap1\n      return\n        /* \"@openzeppelin/contracts@5.0.1/token/ERC721/ERC721.sol\":2185:2303  function ownerOf(uint256 tokenId) public view virtual returns (address) {... */\n    tag_12:\n      tag_68\n      0x04\n      dup1\n      calldatasize\n      sub\n      dup2\n      add\n      swap1\n      tag_69\n      swap2\n      swap1\n      tag_39\n      jump\t// in\n    tag_69:\n      tag_70\n      jump\t// in\n    tag_68:\n      mload(0x40)\n      tag_71\n      swap2\n      swap1\n      tag_42\n      jump\t// in\n    tag_71:\n      mload(0x40)\n      dup1\n      swap2\n      sub\n      swap1\n      return\n        /* \"@openzeppelin/contracts@5.0.1/token/ERC721/ERC721.sol\":1920:2128  function balanceOf(address owner) public view virtual returns (uint256) {... */\n    tag_13:\n      tag_72\n      0x04\n      dup1\n      calldatasize\n      sub\n      dup2\n      add\n      swap1\n      tag_73\n      swap2\n      swap1\n      tag_45\n      jump\t// in\n    tag_73:\n      tag_74\n      jump\t// in\n    tag_72:\n      mload(0x40)\n      tag_75\n      swap2\n      swap1\n      tag_67\n      jump\t// in\n    tag_75:\n      mload(0x40)\n      dup1\n      swap2\n      sub\n      swap1\n      return\n        /* \"@openzeppelin/contracts@5.0.1/access/Ownable.sol\":2293:2394  function renounceOwnership() public virtual onlyOwner {... */\n    tag_14:\n      tag_76\n      tag_77\n      jump\t// in\n    tag_76:\n      stop\n        /* \"@openzeppelin/contracts@5.0.1/access/Ownable.sol\":1638:1723  function owner() public view virtual returns (address) {... */\n    tag_15:\n      tag_78\n      tag_79\n      jump\t// in\n    tag_78:\n      mload(0x40)\n      tag_80\n      swap2\n      swap1\n      tag_42\n      jump\t// in\n    tag_80:\n      mload(0x40)\n      dup1\n      swap2\n      sub\n      swap1\n      return\n        /* \"@openzeppelin/contracts@5.0.1/token/ERC721/ERC721.sol\":2518:2611  function symbol() public view virtual returns (string memory) {... */\n    tag_16:\n      tag_81\n      tag_82\n      jump\t// in\n    tag_81:\n      mload(0x40)\n      tag_83\n      swap2\n      swap1\n      tag_36\n      jump\t// in\n    tag_83:\n      mload(0x40)\n      dup1\n      swap2\n      sub\n      swap1\n      return\n        /* \"@openzeppelin/contracts@5.0.1/token/ERC721/ERC721.sol\":3718:3862  function setApprovalForAll(address operator, bool approved) public virtual {... */\n    tag_17:\n      tag_84\n      0x04\n      dup1\n      calldatasize\n      sub\n      dup2\n      add\n      swap1\n      tag_85\n      swap2\n      swap1\n      tag_86\n      jump\t// in\n    tag_85:\n      tag_87\n      jump\t// in\n    tag_84:\n      stop\n        /* \"@openzeppelin/contracts@5.0.1/token/ERC721/ERC721.sol\":4985:5193  function safeTransferFrom(address from, address to, uint256 tokenId, bytes memory data) public virtual {... */\n    tag_18:\n      tag_88\n      0x04\n      dup1\n      calldatasize\n      sub\n      dup2\n      add\n      swap1\n      tag_89\n      swap2\n      swap1\n      tag_90\n      jump\t// in\n    tag_89:\n      tag_91\n      jump\t// in\n    tag_88:\n      stop\n        /* \"contracts/Lavocate/mint.sol\":1120:1309  function tokenURI(uint256 tokenId)... */\n    tag_19:\n      tag_92\n      0x04\n      dup1\n      calldatasize\n      sub\n      dup2\n      add\n      swap1\n      tag_93\n      swap2\n      swap1\n      tag_39\n      jump\t// in\n    tag_93:\n      tag_94\n      jump\t// in\n    tag_92:\n      mload(0x40)\n      tag_95\n      swap2\n      swap1\n      tag_36\n      jump\t// in\n    tag_95:\n      mload(0x40)\n      dup1\n      swap2\n      sub\n      swap1\n      return\n        /* \"contracts/Lavocate/mint.sol\":581:834  function safeMint(address to, string memory uri) public {... */\n    tag_20:\n      tag_96\n      0x04\n      dup1\n      calldatasize\n      sub\n      dup2\n      add\n      swap1\n      tag_97\n      swap2\n      swap1\n      tag_98\n      jump\t// in\n    tag_97:\n      tag_99\n      jump\t// in\n    tag_96:\n      stop\n        /* \"@openzeppelin/contracts@5.0.1/token/ERC721/ERC721.sol\":3928:4081  function isApprovedForAll(address owner, address operator) public view virtual returns (bool) {... */\n    tag_21:\n      tag_100\n      0x04\n      dup1\n      calldatasize\n      sub\n      dup2\n      add\n      swap1\n      tag_101\n      swap2\n      swap1\n      tag_102\n      jump\t// in\n    tag_101:\n      tag_103\n      jump\t// in\n    tag_100:\n      mload(0x40)\n      tag_104\n      swap2\n      swap1\n      tag_32\n      jump\t// in\n    tag_104:\n      mload(0x40)\n      dup1\n      swap2\n      sub\n      swap1\n      return\n        /* \"@openzeppelin/contracts@5.0.1/access/Ownable.sol\":2543:2758  function transferOwnership(address newOwner) public virtual onlyOwner {... */\n    tag_22:\n      tag_105\n      0x04\n      dup1\n      calldatasize\n      sub\n      dup2\n      add\n      swap1\n      tag_106\n      swap2\n      swap1\n      tag_45\n      jump\t// in\n    tag_106:\n      tag_107\n      jump\t// in\n    tag_105:\n      stop\n        /* \"contracts/Lavocate/mint.sol\":364:413  mapping (address => uint) public totalMintPerUser */\n    tag_23:\n      tag_108\n      0x04\n      dup1\n      calldatasize\n      sub\n      dup2\n      add\n      swap1\n      tag_109\n      swap2\n      swap1\n      tag_45\n      jump\t// in\n    tag_109:\n      tag_110\n      jump\t// in\n    tag_108:\n      mload(0x40)\n      tag_111\n      swap2\n      swap1\n      tag_67\n      jump\t// in\n    tag_111:\n      mload(0x40)\n      dup1\n      swap2\n      sub\n      swap1\n      return\n        /* \"contracts/Lavocate/mint.sol\":1314:1519  function supportsInterface(bytes4 interfaceId)... */\n    tag_30:\n        /* \"contracts/Lavocate/mint.sol\":1449:1453  bool */\n      0x00\n        /* \"contracts/Lavocate/mint.sol\":1476:1512  super.supportsInterface(interfaceId) */\n      tag_113\n        /* \"contracts/Lavocate/mint.sol\":1500:1511  interfaceId */\n      dup3\n        /* \"contracts/Lavocate/mint.sol\":1476:1499  super.supportsInterface */\n      tag_114\n        /* \"contracts/Lavocate/mint.sol\":1476:1512  super.supportsInterface(interfaceId) */\n      jump\t// in\n    tag_113:\n        /* \"contracts/Lavocate/mint.sol\":1469:1512  return super.supportsInterface(interfaceId) */\n      swap1\n      pop\n        /* \"contracts/Lavocate/mint.sol\":1314:1519  function supportsInterface(bytes4 interfaceId)... */\n      swap2\n      swap1\n      pop\n      jump\t// out\n        /* \"@openzeppelin/contracts@5.0.1/token/ERC721/ERC721.sol\":2365:2454  function name() public view virtual returns (string memory) {... */\n    tag_34:\n        /* \"@openzeppelin/contracts@5.0.1/token/ERC721/ERC721.sol\":2410:2423  string memory */\n      0x60\n        /* \"@openzeppelin/contracts@5.0.1/token/ERC721/ERC721.sol\":2442:2447  _name */\n      0x00\n        /* \"@openzeppelin/contracts@5.0.1/token/ERC721/ERC721.sol\":2435:2447  return _name */\n      dup1\n      sload\n      tag_116\n      swap1\n      tag_117\n      jump\t// in\n    tag_116:\n      dup1\n      0x1f\n      add\n      0x20\n      dup1\n      swap2\n      div\n      mul\n      0x20\n      add\n      mload(0x40)\n      swap1\n      dup2\n      add\n      0x40\n      mstore\n      dup1\n      swap3\n      swap2\n      swap1\n      dup2\n      dup2\n      mstore\n      0x20\n      add\n      dup3\n      dup1\n      sload\n      tag_118\n      swap1\n      tag_117\n      jump\t// in\n    tag_118:\n      dup1\n      iszero\n      tag_119\n      jumpi\n      dup1\n      0x1f\n      lt\n      tag_120\n      jumpi\n      0x0100\n      dup1\n      dup4\n      sload\n      div\n      mul\n      dup4\n      mstore\n      swap2\n      0x20\n      add\n      swap2\n      jump(tag_119)\n    tag_120:\n      dup3\n      add\n      swap2\n      swap1\n      0x00\n      mstore\n      keccak256(0x00, 0x20)\n      swap1\n    tag_121:\n      dup2\n      sload\n      dup2\n      mstore\n      swap1\n      0x01\n      add\n      swap1\n      0x20\n      add\n      dup1\n      dup4\n      gt\n      tag_121\n      jumpi\n      dup3\n      swap1\n      sub\n      0x1f\n      and\n      dup3\n      add\n      swap2\n    tag_119:\n      pop\n      pop\n      pop\n      pop\n      pop\n      swap1\n      pop\n        /* \"@openzeppelin/contracts@5.0.1/token/ERC721/ERC721.sol\":2365:2454  function name() public view virtual returns (string memory) {... */\n      swap1\n      jump\t// out\n        /* \"@openzeppelin/contracts@5.0.1/token/ERC721/ERC721.sol\":3497:3651  function getApproved(uint256 tokenId) public view virtual returns (address) {... */\n    tag_40:\n        /* \"@openzeppelin/contracts@5.0.1/token/ERC721/ERC721.sol\":3564:3571  address */\n      0x00\n        /* \"@openzeppelin/contracts@5.0.1/token/ERC721/ERC721.sol\":3583:3605  _requireOwned(tokenId) */\n      tag_123\n        /* \"@openzeppelin/contracts@5.0.1/token/ERC721/ERC721.sol\":3597:3604  tokenId */\n      dup3\n        /* \"@openzeppelin/contracts@5.0.1/token/ERC721/ERC721.sol\":3583:3596  _requireOwned */\n      tag_124\n        /* \"@openzeppelin/contracts@5.0.1/token/ERC721/ERC721.sol\":3583:3605  _requireOwned(tokenId) */\n      jump\t// in\n    tag_123:\n      pop\n        /* \"@openzeppelin/contracts@5.0.1/token/ERC721/ERC721.sol\":3623:3644  _getApproved(tokenId) */\n      tag_125\n        /* \"@openzeppelin/contracts@5.0.1/token/ERC721/ERC721.sol\":3636:3643  tokenId */\n      dup3\n        /* \"@openzeppelin/contracts@5.0.1/token/ERC721/ERC721.sol\":3623:3635  _getApproved */\n      tag_126\n        /* \"@openzeppelin/contracts@5.0.1/token/ERC721/ERC721.sol\":3623:3644  _getApproved(tokenId) */\n      jump\t// in\n    tag_125:\n        /* \"@openzeppelin/contracts@5.0.1/token/ERC721/ERC721.sol\":3616:3644  return _getApproved(tokenId) */\n      swap1\n      pop\n        /* \"@openzeppelin/contracts@5.0.1/token/ERC721/ERC721.sol\":3497:3651  function getApproved(uint256 tokenId) public view virtual returns (address) {... */\n      swap2\n      swap1\n      pop\n      jump\t// out\n        /* \"contracts/Lavocate/mint.sol\":839:1115  function getAllURIPerUser(address to) public view returns (string[] memory){... */\n    tag_46:\n        /* \"contracts/Lavocate/mint.sol\":898:913  string[] memory */\n      0x60\n        /* \"contracts/Lavocate/mint.sol\":924:947  string[] memory myArray */\n      0x00\n        /* \"contracts/Lavocate/mint.sol\":963:979  totalMintPerUser */\n      0x09\n        /* \"contracts/Lavocate/mint.sol\":963:983  totalMintPerUser[to] */\n      0x00\n        /* \"contracts/Lavocate/mint.sol\":980:982  to */\n      dup5\n        /* \"contracts/Lavocate/mint.sol\":963:983  totalMintPerUser[to] */\n      0xffffffffffffffffffffffffffffffffffffffff\n      and\n      0xffffffffffffffffffffffffffffffffffffffff\n      and\n      dup2\n      mstore\n      0x20\n      add\n      swap1\n      dup2\n      mstore\n      0x20\n      add\n      0x00\n      keccak256\n      sload\n        /* \"contracts/Lavocate/mint.sol\":950:984  new string[](totalMintPerUser[to]) */\n      0xffffffffffffffff\n      dup2\n      gt\n      iszero\n      tag_128\n      jumpi\n      tag_129\n      tag_130\n      jump\t// in\n    tag_129:\n    tag_128:\n      mload(0x40)\n      swap1\n      dup1\n      dup3\n      mstore\n      dup1\n      0x20\n      mul\n      0x20\n      add\n      dup3\n      add\n      0x40\n      mstore\n      dup1\n      iszero\n      tag_131\n      jumpi\n      dup2\n      0x20\n      add\n    tag_132:\n      0x60\n      dup2\n      mstore\n      0x20\n      add\n      swap1\n      0x01\n      swap1\n      sub\n      swap1\n      dup2\n      tag_132\n      jumpi\n      swap1\n      pop\n    tag_131:\n      pop\n        /* \"contracts/Lavocate/mint.sol\":924:984  string[] memory myArray = new string[](totalMintPerUser[to]) */\n      swap1\n      pop\n        /* \"contracts/Lavocate/mint.sol\":998:1004  uint i */\n      0x00\n        /* \"contracts/Lavocate/mint.sol\":994:1085  for(uint i=0;i<totalMintPerUser[to];i++){... */\n    tag_133:\n        /* \"contracts/Lavocate/mint.sol\":1009:1025  totalMintPerUser */\n      0x09\n        /* \"contracts/Lavocate/mint.sol\":1009:1029  totalMintPerUser[to] */\n      0x00\n        /* \"contracts/Lavocate/mint.sol\":1026:1028  to */\n      dup6\n        /* \"contracts/Lavocate/mint.sol\":1009:1029  totalMintPerUser[to] */\n      0xffffffffffffffffffffffffffffffffffffffff\n      and\n      0xffffffffffffffffffffffffffffffffffffffff\n      and\n      dup2\n      mstore\n      0x20\n      add\n      swap1\n      dup2\n      mstore\n      0x20\n      add\n      0x00\n      keccak256\n      sload\n        /* \"contracts/Lavocate/mint.sol\":1007:1008  i */\n      dup2\n        /* \"contracts/Lavocate/mint.sol\":1007:1029  i<totalMintPerUser[to] */\n      lt\n        /* \"contracts/Lavocate/mint.sol\":994:1085  for(uint i=0;i<totalMintPerUser[to];i++){... */\n      iszero\n      tag_134\n      jumpi\n        /* \"contracts/Lavocate/mint.sol\":1061:1067  getURI */\n      0x0a\n        /* \"contracts/Lavocate/mint.sol\":1061:1071  getURI[to] */\n      0x00\n        /* \"contracts/Lavocate/mint.sol\":1068:1070  to */\n      dup6\n        /* \"contracts/Lavocate/mint.sol\":1061:1071  getURI[to] */\n      0xffffffffffffffffffffffffffffffffffffffff\n      and\n      0xffffffffffffffffffffffffffffffffffffffff\n      and\n      dup2\n      mstore\n      0x20\n      add\n      swap1\n      dup2\n      mstore\n      0x20\n      add\n      0x00\n      keccak256\n        /* \"contracts/Lavocate/mint.sol\":1061:1074  getURI[to][i] */\n      0x00\n        /* \"contracts/Lavocate/mint.sol\":1072:1073  i */\n      dup3\n        /* \"contracts/Lavocate/mint.sol\":1061:1074  getURI[to][i] */\n      dup2\n      mstore\n      0x20\n      add\n      swap1\n      dup2\n      mstore\n      0x20\n      add\n      0x00\n      keccak256\n        /* \"contracts/Lavocate/mint.sol\":1048:1074  myArray[i] = getURI[to][i] */\n      dup1\n      sload\n      tag_136\n      swap1\n      tag_117\n      jump\t// in\n    tag_136:\n      dup1\n      0x1f\n      add\n      0x20\n      dup1\n      swap2\n      div\n      mul\n      0x20\n      add\n      mload(0x40)\n      swap1\n      dup2\n      add\n      0x40\n      mstore\n      dup1\n      swap3\n      swap2\n      swap1\n      dup2\n      dup2\n      mstore\n      0x20\n      add\n      dup3\n      dup1\n      sload\n      tag_137\n      swap1\n      tag_117\n      jump\t// in\n    tag_137:\n      dup1\n      iszero\n      tag_138\n      jumpi\n      dup1\n      0x1f\n      lt\n      tag_139\n      jumpi\n      0x0100\n      dup1\n      dup4\n      sload\n      div\n      mul\n      dup4\n      mstore\n      swap2\n      0x20\n      add\n      swap2\n      jump(tag_138)\n    tag_139:\n      dup3\n      add\n      swap2\n      swap1\n      0x00\n      mstore\n      keccak256(0x00, 0x20)\n      swap1\n    tag_140:\n      dup2\n      sload\n      dup2\n      mstore\n      swap1\n      0x01\n      add\n      swap1\n      0x20\n      add\n      dup1\n      dup4\n      gt\n      tag_140\n      jumpi\n      dup3\n      swap1\n      sub\n      0x1f\n      and\n      dup3\n      add\n      swap2\n    tag_138:\n      pop\n      pop\n      pop\n      pop\n      pop\n        /* \"contracts/Lavocate/mint.sol\":1048:1055  myArray */\n      dup3\n        /* \"contracts/Lavocate/mint.sol\":1056:1057  i */\n      dup3\n        /* \"contracts/Lavocate/mint.sol\":1048:1058  myArray[i] */\n      dup2\n      mload\n      dup2\n      lt\n      tag_141\n      jumpi\n      tag_142\n      tag_143\n      jump\t// in\n    tag_142:\n    tag_141:\n      0x20\n      mul\n      0x20\n      add\n      add\n        /* \"contracts/Lavocate/mint.sol\":1048:1074  myArray[i] = getURI[to][i] */\n      dup2\n      swap1\n      mstore\n      pop\n        /* \"contracts/Lavocate/mint.sol\":1030:1033  i++ */\n      dup1\n      dup1\n      0x01\n      add\n      swap2\n      pop\n      pop\n        /* \"contracts/Lavocate/mint.sol\":994:1085  for(uint i=0;i<totalMintPerUser[to];i++){... */\n      jump(tag_133)\n    tag_134:\n      pop\n        /* \"contracts/Lavocate/mint.sol\":1101:1108  myArray */\n      dup1\n        /* \"contracts/Lavocate/mint.sol\":1094:1108  return myArray */\n      swap2\n      pop\n      pop\n        /* \"contracts/Lavocate/mint.sol\":839:1115  function getAllURIPerUser(address to) public view returns (string[] memory){... */\n      swap2\n      swap1\n      pop\n      jump\t// out\n        /* \"@openzeppelin/contracts@5.0.1/token/ERC721/ERC721.sol\":3323:3436  function approve(address to, uint256 tokenId) public virtual {... */\n    tag_52:\n        /* \"@openzeppelin/contracts@5.0.1/token/ERC721/ERC721.sol\":3394:3429  _approve(to, tokenId, _msgSender()) */\n      tag_145\n        /* \"@openzeppelin/contracts@5.0.1/token/ERC721/ERC721.sol\":3403:3405  to */\n      dup3\n        /* \"@openzeppelin/contracts@5.0.1/token/ERC721/ERC721.sol\":3407:3414  tokenId */\n      dup3\n        /* \"@openzeppelin/contracts@5.0.1/token/ERC721/ERC721.sol\":3416:3428  _msgSender() */\n      tag_146\n        /* \"@openzeppelin/contracts@5.0.1/token/ERC721/ERC721.sol\":3416:3426  _msgSender */\n      tag_147\n        /* \"@openzeppelin/contracts@5.0.1/token/ERC721/ERC721.sol\":3416:3428  _msgSender() */\n      jump\t// in\n    tag_146:\n        /* \"@openzeppelin/contracts@5.0.1/token/ERC721/ERC721.sol\":3394:3402  _approve */\n      tag_148\n        /* \"@openzeppelin/contracts@5.0.1/token/ERC721/ERC721.sol\":3394:3429  _approve(to, tokenId, _msgSender()) */\n      jump\t// in\n    tag_145:\n        /* \"@openzeppelin/contracts@5.0.1/token/ERC721/ERC721.sol\":3323:3436  function approve(address to, uint256 tokenId) public virtual {... */\n      pop\n      pop\n      jump\t// out\n        /* \"@openzeppelin/contracts@5.0.1/token/ERC721/ERC721.sol\":4143:4721  function transferFrom(address from, address to, uint256 tokenId) public virtual {... */\n    tag_56:\n        /* \"@openzeppelin/contracts@5.0.1/token/ERC721/ERC721.sol\":4251:4252  0 */\n      0x00\n        /* \"@openzeppelin/contracts@5.0.1/token/ERC721/ERC721.sol\":4237:4253  to == address(0) */\n      0xffffffffffffffffffffffffffffffffffffffff\n      and\n        /* \"@openzeppelin/contracts@5.0.1/token/ERC721/ERC721.sol\":4237:4239  to */\n      dup3\n        /* \"@openzeppelin/contracts@5.0.1/token/ERC721/ERC721.sol\":4237:4253  to == address(0) */\n      0xffffffffffffffffffffffffffffffffffffffff\n      and\n      sub\n        /* \"@openzeppelin/contracts@5.0.1/token/ERC721/ERC721.sol\":4233:4320  if (to == address(0)) {... */\n      tag_150\n      jumpi\n        /* \"@openzeppelin/contracts@5.0.1/token/ERC721/ERC721.sol\":4306:4307  0 */\n      0x00\n        /* \"@openzeppelin/contracts@5.0.1/token/ERC721/ERC721.sol\":4276:4309  ERC721InvalidReceiver(address(0)) */\n      mload(0x40)\n      0x64a0ae9200000000000000000000000000000000000000000000000000000000\n      dup2\n      mstore\n      0x04\n      add\n      tag_151\n      swap2\n      swap1\n      tag_42\n      jump\t// in\n    tag_151:\n      mload(0x40)\n      dup1\n      swap2\n      sub\n      swap1\n      revert\n        /* \"@openzeppelin/contracts@5.0.1/token/ERC721/ERC721.sol\":4233:4320  if (to == address(0)) {... */\n    tag_150:\n        /* \"@openzeppelin/contracts@5.0.1/token/ERC721/ERC721.sol\":4538:4559  address previousOwner */\n      0x00\n        /* \"@openzeppelin/contracts@5.0.1/token/ERC721/ERC721.sol\":4562:4596  _update(to, tokenId, _msgSender()) */\n      tag_152\n        /* \"@openzeppelin/contracts@5.0.1/token/ERC721/ERC721.sol\":4570:4572  to */\n      dup4\n        /* \"@openzeppelin/contracts@5.0.1/token/ERC721/ERC721.sol\":4574:4581  tokenId */\n      dup4\n        /* \"@openzeppelin/contracts@5.0.1/token/ERC721/ERC721.sol\":4583:4595  _msgSender() */\n      tag_153\n        /* \"@openzeppelin/contracts@5.0.1/token/ERC721/ERC721.sol\":4583:4593  _msgSender */\n      tag_147\n        /* \"@openzeppelin/contracts@5.0.1/token/ERC721/ERC721.sol\":4583:4595  _msgSender() */\n      jump\t// in\n    tag_153:\n        /* \"@openzeppelin/contracts@5.0.1/token/ERC721/ERC721.sol\":4562:4569  _update */\n      tag_154\n        /* \"@openzeppelin/contracts@5.0.1/token/ERC721/ERC721.sol\":4562:4596  _update(to, tokenId, _msgSender()) */\n      jump\t// in\n    tag_152:\n        /* \"@openzeppelin/contracts@5.0.1/token/ERC721/ERC721.sol\":4538:4596  address previousOwner = _update(to, tokenId, _msgSender()) */\n      swap1\n      pop\n        /* \"@openzeppelin/contracts@5.0.1/token/ERC721/ERC721.sol\":4627:4631  from */\n      dup4\n        /* \"@openzeppelin/contracts@5.0.1/token/ERC721/ERC721.sol\":4610:4631  previousOwner != from */\n      0xffffffffffffffffffffffffffffffffffffffff\n      and\n        /* \"@openzeppelin/contracts@5.0.1/token/ERC721/ERC721.sol\":4610:4623  previousOwner */\n      dup2\n        /* \"@openzeppelin/contracts@5.0.1/token/ERC721/ERC721.sol\":4610:4631  previousOwner != from */\n      0xffffffffffffffffffffffffffffffffffffffff\n      and\n      eq\n        /* \"@openzeppelin/contracts@5.0.1/token/ERC721/ERC721.sol\":4606:4715  if (previousOwner != from) {... */\n      tag_155\n      jumpi\n        /* \"@openzeppelin/contracts@5.0.1/token/ERC721/ERC721.sol\":4675:4679  from */\n      dup4\n        /* \"@openzeppelin/contracts@5.0.1/token/ERC721/ERC721.sol\":4681:4688  tokenId */\n      dup3\n        /* \"@openzeppelin/contracts@5.0.1/token/ERC721/ERC721.sol\":4690:4703  previousOwner */\n      dup3\n        /* \"@openzeppelin/contracts@5.0.1/token/ERC721/ERC721.sol\":4654:4704  ERC721IncorrectOwner(from, tokenId, previousOwner) */\n      mload(0x40)\n      0x64283d7b00000000000000000000000000000000000000000000000000000000\n      dup2\n      mstore\n      0x04\n      add\n      tag_156\n      swap4\n      swap3\n      swap2\n      swap1\n      tag_157\n      jump\t// in\n    tag_156:\n      mload(0x40)\n      dup1\n      swap2\n      sub\n      swap1\n      revert\n        /* \"@openzeppelin/contracts@5.0.1/token/ERC721/ERC721.sol\":4606:4715  if (previousOwner != from) {... */\n    tag_155:\n        /* \"@openzeppelin/contracts@5.0.1/token/ERC721/ERC721.sol\":4223:4721  {... */\n      pop\n        /* \"@openzeppelin/contracts@5.0.1/token/ERC721/ERC721.sol\":4143:4721  function transferFrom(address from, address to, uint256 tokenId) public virtual {... */\n      pop\n      pop\n      pop\n      jump\t// out\n        /* \"@openzeppelin/contracts@5.0.1/token/ERC721/ERC721.sol\":4787:4919  function safeTransferFrom(address from, address to, uint256 tokenId) public {... */\n    tag_59:\n        /* \"@openzeppelin/contracts@5.0.1/token/ERC721/ERC721.sol\":4873:4912  safeTransferFrom(from, to, tokenId, \"\") */\n      tag_159\n        /* \"@openzeppelin/contracts@5.0.1/token/ERC721/ERC721.sol\":4890:4894  from */\n      dup4\n        /* \"@openzeppelin/contracts@5.0.1/token/ERC721/ERC721.sol\":4896:4898  to */\n      dup4\n        /* \"@openzeppelin/contracts@5.0.1/token/ERC721/ERC721.sol\":4900:4907  tokenId */\n      dup4\n        /* \"@openzeppelin/contracts@5.0.1/token/ERC721/ERC721.sol\":4873:4912  safeTransferFrom(from, to, tokenId, \"\") */\n      mload(0x40)\n      dup1\n      0x20\n      add\n      0x40\n      mstore\n      dup1\n      0x00\n      dup2\n      mstore\n      pop\n        /* \"@openzeppelin/contracts@5.0.1/token/ERC721/ERC721.sol\":4873:4889  safeTransferFrom */\n      tag_91\n        /* \"@openzeppelin/contracts@5.0.1/token/ERC721/ERC721.sol\":4873:4912  safeTransferFrom(from, to, tokenId, \"\") */\n      jump\t// in\n    tag_159:\n        /* \"@openzeppelin/contracts@5.0.1/token/ERC721/ERC721.sol\":4787:4919  function safeTransferFrom(address from, address to, uint256 tokenId) public {... */\n      pop\n      pop\n      pop\n      jump\t// out\n        /* \"contracts/Lavocate/mint.sol\":419:478  mapping (address => mapping (uint => string)) public getURI */\n    tag_62:\n      mstore(0x20, 0x0a)\n      dup2\n      0x00\n      mstore\n      mstore(0x20, keccak256(0x00, 0x40))\n      dup1\n      0x00\n      mstore\n      keccak256(0x00, 0x40)\n      0x00\n      swap2\n      pop\n      swap2\n      pop\n      pop\n      dup1\n      sload\n      tag_160\n      swap1\n      tag_117\n      jump\t// in\n    tag_160:\n      dup1\n      0x1f\n      add\n      0x20\n      dup1\n      swap2\n      div\n      mul\n      0x20\n      add\n      mload(0x40)\n      swap1\n      dup2\n      add\n      0x40\n      mstore\n      dup1\n      swap3\n      swap2\n      swap1\n      dup2\n      dup2\n      mstore\n      0x20\n      add\n      dup3\n      dup1\n      sload\n      tag_161\n      swap1\n      tag_117\n      jump\t// in\n    tag_161:\n      dup1\n      iszero\n      tag_162\n      jumpi\n      dup1\n      0x1f\n      lt\n      tag_163\n      jumpi\n      0x0100\n      dup1\n      dup4\n      sload\n      div\n      mul\n      dup4\n      mstore\n      swap2\n      0x20\n      add\n      swap2\n      jump(tag_162)\n    tag_163:\n      dup3\n      add\n      swap2\n      swap1\n      0x00\n      mstore\n      keccak256(0x00, 0x20)\n      swap1\n    tag_164:\n      dup2\n      sload\n      dup2\n      mstore\n      swap1\n      0x01\n      add\n      swap1\n      0x20\n      add\n      dup1\n      dup4\n      gt\n      tag_164\n      jumpi\n      dup3\n      swap1\n      sub\n      0x1f\n      and\n      dup3\n      add\n      swap2\n    tag_162:\n      pop\n      pop\n      pop\n      pop\n      pop\n      dup2\n      jump\t// out\n        /* \"contracts/Lavocate/mint.sol\":334:358  uint public _nextTokenId */\n    tag_65:\n      sload(0x08)\n      dup2\n      jump\t// out\n        /* \"@openzeppelin/contracts@5.0.1/token/ERC721/ERC721.sol\":2185:2303  function ownerOf(uint256 tokenId) public view virtual returns (address) {... */\n    tag_70:\n        /* \"@openzeppelin/contracts@5.0.1/token/ERC721/ERC721.sol\":2248:2255  address */\n      0x00\n        /* \"@openzeppelin/contracts@5.0.1/token/ERC721/ERC721.sol\":2274:2296  _requireOwned(tokenId) */\n      tag_166\n        /* \"@openzeppelin/contracts@5.0.1/token/ERC721/ERC721.sol\":2288:2295  tokenId */\n      dup3\n        /* \"@openzeppelin/contracts@5.0.1/token/ERC721/ERC721.sol\":2274:2287  _requireOwned */\n      tag_124\n        /* \"@openzeppelin/contracts@5.0.1/token/ERC721/ERC721.sol\":2274:2296  _requireOwned(tokenId) */\n      jump\t// in\n    tag_166:\n        /* \"@openzeppelin/contracts@5.0.1/token/ERC721/ERC721.sol\":2267:2296  return _requireOwned(tokenId) */\n      swap1\n      pop\n        /* \"@openzeppelin/contracts@5.0.1/token/ERC721/ERC721.sol\":2185:2303  function ownerOf(uint256 tokenId) public view virtual returns (address) {... */\n      swap2\n      swap1\n      pop\n      jump\t// out\n        /* \"@openzeppelin/contracts@5.0.1/token/ERC721/ERC721.sol\":1920:2128  function balanceOf(address owner) public view virtual returns (uint256) {... */\n    tag_74:\n        /* \"@openzeppelin/contracts@5.0.1/token/ERC721/ERC721.sol\":1983:1990  uint256 */\n      0x00\n        /* \"@openzeppelin/contracts@5.0.1/token/ERC721/ERC721.sol\":2023:2024  0 */\n      dup1\n        /* \"@openzeppelin/contracts@5.0.1/token/ERC721/ERC721.sol\":2006:2025  owner == address(0) */\n      0xffffffffffffffffffffffffffffffffffffffff\n      and\n        /* \"@openzeppelin/contracts@5.0.1/token/ERC721/ERC721.sol\":2006:2011  owner */\n      dup3\n        /* \"@openzeppelin/contracts@5.0.1/token/ERC721/ERC721.sol\":2006:2025  owner == address(0) */\n      0xffffffffffffffffffffffffffffffffffffffff\n      and\n      sub\n        /* \"@openzeppelin/contracts@5.0.1/token/ERC721/ERC721.sol\":2002:2089  if (owner == address(0)) {... */\n      tag_168\n      jumpi\n        /* \"@openzeppelin/contracts@5.0.1/token/ERC721/ERC721.sol\":2075:2076  0 */\n      0x00\n        /* \"@openzeppelin/contracts@5.0.1/token/ERC721/ERC721.sol\":2048:2078  ERC721InvalidOwner(address(0)) */\n      mload(0x40)\n      0x89c62b6400000000000000000000000000000000000000000000000000000000\n      dup2\n      mstore\n      0x04\n      add\n      tag_169\n      swap2\n      swap1\n      tag_42\n      jump\t// in\n    tag_169:\n      mload(0x40)\n      dup1\n      swap2\n      sub\n      swap1\n      revert\n        /* \"@openzeppelin/contracts@5.0.1/token/ERC721/ERC721.sol\":2002:2089  if (owner == address(0)) {... */\n    tag_168:\n        /* \"@openzeppelin/contracts@5.0.1/token/ERC721/ERC721.sol\":2105:2114  _balances */\n      0x03\n        /* \"@openzeppelin/contracts@5.0.1/token/ERC721/ERC721.sol\":2105:2121  _balances[owner] */\n      0x00\n        /* \"@openzeppelin/contracts@5.0.1/token/ERC721/ERC721.sol\":2115:2120  owner */\n      dup4\n        /* \"@openzeppelin/contracts@5.0.1/token/ERC721/ERC721.sol\":2105:2121  _balances[owner] */\n      0xffffffffffffffffffffffffffffffffffffffff\n      and\n      0xffffffffffffffffffffffffffffffffffffffff\n      and\n      dup2\n      mstore\n      0x20\n      add\n      swap1\n      dup2\n      mstore\n      0x20\n      add\n      0x00\n      keccak256\n      sload\n        /* \"@openzeppelin/contracts@5.0.1/token/ERC721/ERC721.sol\":2098:2121  return _balances[owner] */\n      swap1\n      pop\n        /* \"@openzeppelin/contracts@5.0.1/token/ERC721/ERC721.sol\":1920:2128  function balanceOf(address owner) public view virtual returns (uint256) {... */\n      swap2\n      swap1\n      pop\n      jump\t// out\n        /* \"@openzeppelin/contracts@5.0.1/access/Ownable.sol\":2293:2394  function renounceOwnership() public virtual onlyOwner {... */\n    tag_77:\n        /* \"@openzeppelin/contracts@5.0.1/access/Ownable.sol\":1531:1544  _checkOwner() */\n      tag_171\n        /* \"@openzeppelin/contracts@5.0.1/access/Ownable.sol\":1531:1542  _checkOwner */\n      tag_172\n        /* \"@openzeppelin/contracts@5.0.1/access/Ownable.sol\":1531:1544  _checkOwner() */\n      jump\t// in\n    tag_171:\n        /* \"@openzeppelin/contracts@5.0.1/access/Ownable.sol\":2357:2387  _transferOwnership(address(0)) */\n      tag_174\n        /* \"@openzeppelin/contracts@5.0.1/access/Ownable.sol\":2384:2385  0 */\n      0x00\n        /* \"@openzeppelin/contracts@5.0.1/access/Ownable.sol\":2357:2375  _transferOwnership */\n      tag_175\n        /* \"@openzeppelin/contracts@5.0.1/access/Ownable.sol\":2357:2387  _transferOwnership(address(0)) */\n      jump\t// in\n    tag_174:\n        /* \"@openzeppelin/contracts@5.0.1/access/Ownable.sol\":2293:2394  function renounceOwnership() public virtual onlyOwner {... */\n      jump\t// out\n        /* \"@openzeppelin/contracts@5.0.1/access/Ownable.sol\":1638:1723  function owner() public view virtual returns (address) {... */\n    tag_79:\n        /* \"@openzeppelin/contracts@5.0.1/access/Ownable.sol\":1684:1691  address */\n      0x00\n        /* \"@openzeppelin/contracts@5.0.1/access/Ownable.sol\":1710:1716  _owner */\n      0x07\n      0x00\n      swap1\n      sload\n      swap1\n      0x0100\n      exp\n      swap1\n      div\n      0xffffffffffffffffffffffffffffffffffffffff\n      and\n        /* \"@openzeppelin/contracts@5.0.1/access/Ownable.sol\":1703:1716  return _owner */\n      swap1\n      pop\n        /* \"@openzeppelin/contracts@5.0.1/access/Ownable.sol\":1638:1723  function owner() public view virtual returns (address) {... */\n      swap1\n      jump\t// out\n        /* \"@openzeppelin/contracts@5.0.1/token/ERC721/ERC721.sol\":2518:2611  function symbol() public view virtual returns (string memory) {... */\n    tag_82:\n        /* \"@openzeppelin/contracts@5.0.1/token/ERC721/ERC721.sol\":2565:2578  string memory */\n      0x60\n        /* \"@openzeppelin/contracts@5.0.1/token/ERC721/ERC721.sol\":2597:2604  _symbol */\n      0x01\n        /* \"@openzeppelin/contracts@5.0.1/token/ERC721/ERC721.sol\":2590:2604  return _symbol */\n      dup1\n      sload\n      tag_178\n      swap1\n      tag_117\n      jump\t// in\n    tag_178:\n      dup1\n      0x1f\n      add\n      0x20\n      dup1\n      swap2\n      div\n      mul\n      0x20\n      add\n      mload(0x40)\n      swap1\n      dup2\n      add\n      0x40\n      mstore\n      dup1\n      swap3\n      swap2\n      swap1\n      dup2\n      dup2\n      mstore\n      0x20\n      add\n      dup3\n      dup1\n      sload\n      tag_179\n      swap1\n      tag_117\n      jump\t// in\n    tag_179:\n      dup1\n      iszero\n      tag_180\n      jumpi\n      dup1\n      0x1f\n      lt\n      tag_181\n      jumpi\n      0x0100\n      dup1\n      dup4\n      sload\n      div\n      mul\n      dup4\n      mstore\n      swap2\n      0x20\n      add\n      swap2\n      jump(tag_180)\n    tag_181:\n      dup3\n      add\n      swap2\n      swap1\n      0x00\n      mstore\n      keccak256(0x00, 0x20)\n      swap1\n    tag_182:\n      dup2\n      sload\n      dup2\n      mstore\n      swap1\n      0x01\n      add\n      swap1\n      0x20\n      add\n      dup1\n      dup4\n      gt\n      tag_182\n      jumpi\n      dup3\n      swap1\n      sub\n      0x1f\n      and\n      dup3\n      add\n      swap2\n    tag_180:\n      pop\n      pop\n      pop\n      pop\n      pop\n      swap1\n      pop\n        /* \"@openzeppelin/contracts@5.0.1/token/ERC721/ERC721.sol\":2518:2611  function symbol() public view virtual returns (string memory) {... */\n      swap1\n      jump\t// out\n        /* \"@openzeppelin/contracts@5.0.1/token/ERC721/ERC721.sol\":3718:3862  function setApprovalForAll(address operator, bool approved) public virtual {... */\n    tag_87:\n        /* \"@openzeppelin/contracts@5.0.1/token/ERC721/ERC721.sol\":3803:3855  _setApprovalForAll(_msgSender(), operator, approved) */\n      tag_184\n        /* \"@openzeppelin/contracts@5.0.1/token/ERC721/ERC721.sol\":3822:3834  _msgSender() */\n      tag_185\n        /* \"@openzeppelin/contracts@5.0.1/token/ERC721/ERC721.sol\":3822:3832  _msgSender */\n      tag_147\n        /* \"@openzeppelin/contracts@5.0.1/token/ERC721/ERC721.sol\":3822:3834  _msgSender() */\n      jump\t// in\n    tag_185:\n        /* \"@openzeppelin/contracts@5.0.1/token/ERC721/ERC721.sol\":3836:3844  operator */\n      dup4\n        /* \"@openzeppelin/contracts@5.0.1/token/ERC721/ERC721.sol\":3846:3854  approved */\n      dup4\n        /* \"@openzeppelin/contracts@5.0.1/token/ERC721/ERC721.sol\":3803:3821  _setApprovalForAll */\n      tag_186\n        /* \"@openzeppelin/contracts@5.0.1/token/ERC721/ERC721.sol\":3803:3855  _setApprovalForAll(_msgSender(), operator, approved) */\n      jump\t// in\n    tag_184:\n        /* \"@openzeppelin/contracts@5.0.1/token/ERC721/ERC721.sol\":3718:3862  function setApprovalForAll(address operator, bool approved) public virtual {... */\n      pop\n      pop\n      jump\t// out\n        /* \"@openzeppelin/contracts@5.0.1/token/ERC721/ERC721.sol\":4985:5193  function safeTransferFrom(address from, address to, uint256 tokenId, bytes memory data) public virtual {... */\n    tag_91:\n        /* \"@openzeppelin/contracts@5.0.1/token/ERC721/ERC721.sol\":5098:5129  transferFrom(from, to, tokenId) */\n      tag_188\n        /* \"@openzeppelin/contracts@5.0.1/token/ERC721/ERC721.sol\":5111:5115  from */\n      dup5\n        /* \"@openzeppelin/contracts@5.0.1/token/ERC721/ERC721.sol\":5117:5119  to */\n      dup5\n        /* \"@openzeppelin/contracts@5.0.1/token/ERC721/ERC721.sol\":5121:5128  tokenId */\n      dup5\n        /* \"@openzeppelin/contracts@5.0.1/token/ERC721/ERC721.sol\":5098:5110  transferFrom */\n      tag_56\n        /* \"@openzeppelin/contracts@5.0.1/token/ERC721/ERC721.sol\":5098:5129  transferFrom(from, to, tokenId) */\n      jump\t// in\n    tag_188:\n        /* \"@openzeppelin/contracts@5.0.1/token/ERC721/ERC721.sol\":5139:5186  _checkOnERC721Received(from, to, tokenId, data) */\n      tag_189\n        /* \"@openzeppelin/contracts@5.0.1/token/ERC721/ERC721.sol\":5162:5166  from */\n      dup5\n        /* \"@openzeppelin/contracts@5.0.1/token/ERC721/ERC721.sol\":5168:5170  to */\n      dup5\n        /* \"@openzeppelin/contracts@5.0.1/token/ERC721/ERC721.sol\":5172:5179  tokenId */\n      dup5\n        /* \"@openzeppelin/contracts@5.0.1/token/ERC721/ERC721.sol\":5181:5185  data */\n      dup5\n        /* \"@openzeppelin/contracts@5.0.1/token/ERC721/ERC721.sol\":5139:5161  _checkOnERC721Received */\n      tag_190\n        /* \"@openzeppelin/contracts@5.0.1/token/ERC721/ERC721.sol\":5139:5186  _checkOnERC721Received(from, to, tokenId, data) */\n      jump\t// in\n    tag_189:\n        /* \"@openzeppelin/contracts@5.0.1/token/ERC721/ERC721.sol\":4985:5193  function safeTransferFrom(address from, address to, uint256 tokenId, bytes memory data) public virtual {... */\n      pop\n      pop\n      pop\n      pop\n      jump\t// out\n        /* \"contracts/Lavocate/mint.sol\":1120:1309  function tokenURI(uint256 tokenId)... */\n    tag_94:\n        /* \"contracts/Lavocate/mint.sol\":1243:1256  string memory */\n      0x60\n        /* \"contracts/Lavocate/mint.sol\":1279:1302  super.tokenURI(tokenId) */\n      tag_192\n        /* \"contracts/Lavocate/mint.sol\":1294:1301  tokenId */\n      dup3\n        /* \"contracts/Lavocate/mint.sol\":1279:1293  super.tokenURI */\n      tag_193\n        /* \"contracts/Lavocate/mint.sol\":1279:1302  super.tokenURI(tokenId) */\n      jump\t// in\n    tag_192:\n        /* \"contracts/Lavocate/mint.sol\":1272:1302  return super.tokenURI(tokenId) */\n      swap1\n      pop\n        /* \"contracts/Lavocate/mint.sol\":1120:1309  function tokenURI(uint256 tokenId)... */\n      swap2\n      swap1\n      pop\n      jump\t// out\n        /* \"contracts/Lavocate/mint.sol\":581:834  function safeMint(address to, string memory uri) public {... */\n    tag_99:\n        /* \"contracts/Lavocate/mint.sol\":647:662  uint256 tokenId */\n      0x00\n        /* \"contracts/Lavocate/mint.sol\":665:677  _nextTokenId */\n      0x08\n      0x00\n        /* \"contracts/Lavocate/mint.sol\":665:679  _nextTokenId++ */\n      dup2\n      sload\n      dup1\n      swap3\n      swap2\n      swap1\n      tag_195\n      swap1\n      tag_196\n      jump\t// in\n    tag_195:\n      swap2\n      swap1\n      pop\n      sstore\n        /* \"contracts/Lavocate/mint.sol\":647:679  uint256 tokenId = _nextTokenId++ */\n      swap1\n      pop\n        /* \"contracts/Lavocate/mint.sol\":689:711  _safeMint(to, tokenId) */\n      tag_197\n        /* \"contracts/Lavocate/mint.sol\":699:701  to */\n      dup4\n        /* \"contracts/Lavocate/mint.sol\":703:710  tokenId */\n      dup3\n        /* \"contracts/Lavocate/mint.sol\":689:698  _safeMint */\n      tag_198\n        /* \"contracts/Lavocate/mint.sol\":689:711  _safeMint(to, tokenId) */\n      jump\t// in\n    tag_197:\n        /* \"contracts/Lavocate/mint.sol\":721:747  _setTokenURI(tokenId, uri) */\n      tag_199\n        /* \"contracts/Lavocate/mint.sol\":734:741  tokenId */\n      dup2\n        /* \"contracts/Lavocate/mint.sol\":743:746  uri */\n      dup4\n        /* \"contracts/Lavocate/mint.sol\":721:733  _setTokenURI */\n      tag_200\n        /* \"contracts/Lavocate/mint.sol\":721:747  _setTokenURI(tokenId, uri) */\n      jump\t// in\n    tag_199:\n        /* \"contracts/Lavocate/mint.sol\":792:795  uri */\n      dup2\n        /* \"contracts/Lavocate/mint.sol\":757:763  getURI */\n      0x0a\n        /* \"contracts/Lavocate/mint.sol\":757:767  getURI[to] */\n      0x00\n        /* \"contracts/Lavocate/mint.sol\":764:766  to */\n      dup6\n        /* \"contracts/Lavocate/mint.sol\":757:767  getURI[to] */\n      0xffffffffffffffffffffffffffffffffffffffff\n      and\n      0xffffffffffffffffffffffffffffffffffffffff\n      and\n      dup2\n      mstore\n      0x20\n      add\n      swap1\n      dup2\n      mstore\n      0x20\n      add\n      0x00\n      keccak256\n        /* \"contracts/Lavocate/mint.sol\":757:789  getURI[to][totalMintPerUser[to]] */\n      0x00\n        /* \"contracts/Lavocate/mint.sol\":768:784  totalMintPerUser */\n      0x09\n        /* \"contracts/Lavocate/mint.sol\":768:788  totalMintPerUser[to] */\n      0x00\n        /* \"contracts/Lavocate/mint.sol\":785:787  to */\n      dup8\n        /* \"contracts/Lavocate/mint.sol\":768:788  totalMintPerUser[to] */\n      0xffffffffffffffffffffffffffffffffffffffff\n      and\n      0xffffffffffffffffffffffffffffffffffffffff\n      and\n      dup2\n      mstore\n      0x20\n      add\n      swap1\n      dup2\n      mstore\n      0x20\n      add\n      0x00\n      keccak256\n      sload\n        /* \"contracts/Lavocate/mint.sol\":757:789  getURI[to][totalMintPerUser[to]] */\n      dup2\n      mstore\n      0x20\n      add\n      swap1\n      dup2\n      mstore\n      0x20\n      add\n      0x00\n      keccak256\n        /* \"contracts/Lavocate/mint.sol\":757:795  getURI[to][totalMintPerUser[to]] = uri */\n      swap1\n      dup2\n      tag_201\n      swap2\n      swap1\n      tag_202\n      jump\t// in\n    tag_201:\n      pop\n        /* \"contracts/Lavocate/mint.sol\":805:821  totalMintPerUser */\n      0x09\n        /* \"contracts/Lavocate/mint.sol\":805:825  totalMintPerUser[to] */\n      0x00\n        /* \"contracts/Lavocate/mint.sol\":822:824  to */\n      dup5\n        /* \"contracts/Lavocate/mint.sol\":805:825  totalMintPerUser[to] */\n      0xffffffffffffffffffffffffffffffffffffffff\n      and\n      0xffffffffffffffffffffffffffffffffffffffff\n      and\n      dup2\n      mstore\n      0x20\n      add\n      swap1\n      dup2\n      mstore\n      0x20\n      add\n      0x00\n      keccak256\n      0x00\n        /* \"contracts/Lavocate/mint.sol\":805:827  totalMintPerUser[to]++ */\n      dup2\n      sload\n      dup1\n      swap3\n      swap2\n      swap1\n      tag_203\n      swap1\n      tag_196\n      jump\t// in\n    tag_203:\n      swap2\n      swap1\n      pop\n      sstore\n      pop\n        /* \"contracts/Lavocate/mint.sol\":637:834  {... */\n      pop\n        /* \"contracts/Lavocate/mint.sol\":581:834  function safeMint(address to, string memory uri) public {... */\n      pop\n      pop\n      jump\t// out\n        /* \"@openzeppelin/contracts@5.0.1/token/ERC721/ERC721.sol\":3928:4081  function isApprovedForAll(address owner, address operator) public view virtual returns (bool) {... */\n    tag_103:\n        /* \"@openzeppelin/contracts@5.0.1/token/ERC721/ERC721.sol\":4016:4020  bool */\n      0x00\n        /* \"@openzeppelin/contracts@5.0.1/token/ERC721/ERC721.sol\":4039:4057  _operatorApprovals */\n      0x05\n        /* \"@openzeppelin/contracts@5.0.1/token/ERC721/ERC721.sol\":4039:4064  _operatorApprovals[owner] */\n      0x00\n        /* \"@openzeppelin/contracts@5.0.1/token/ERC721/ERC721.sol\":4058:4063  owner */\n      dup5\n        /* \"@openzeppelin/contracts@5.0.1/token/ERC721/ERC721.sol\":4039:4064  _operatorApprovals[owner] */\n      0xffffffffffffffffffffffffffffffffffffffff\n      and\n      0xffffffffffffffffffffffffffffffffffffffff\n      and\n      dup2\n      mstore\n      0x20\n      add\n      swap1\n      dup2\n      mstore\n      0x20\n      add\n      0x00\n      keccak256\n        /* \"@openzeppelin/contracts@5.0.1/token/ERC721/ERC721.sol\":4039:4074  _operatorApprovals[owner][operator] */\n      0x00\n        /* \"@openzeppelin/contracts@5.0.1/token/ERC721/ERC721.sol\":4065:4073  operator */\n      dup4\n        /* \"@openzeppelin/contracts@5.0.1/token/ERC721/ERC721.sol\":4039:4074  _operatorApprovals[owner][operator] */\n      0xffffffffffffffffffffffffffffffffffffffff\n      and\n      0xffffffffffffffffffffffffffffffffffffffff\n      and\n      dup2\n      mstore\n      0x20\n      add\n      swap1\n      dup2\n      mstore\n      0x20\n      add\n      0x00\n      keccak256\n      0x00\n      swap1\n      sload\n      swap1\n      0x0100\n      exp\n      swap1\n      div\n      0xff\n      and\n        /* \"@openzeppelin/contracts@5.0.1/token/ERC721/ERC721.sol\":4032:4074  return _operatorApprovals[owner][operator] */\n      swap1\n      pop\n        /* \"@openzeppelin/contracts@5.0.1/token/ERC721/ERC721.sol\":3928:4081  function isApprovedForAll(address owner, address operator) public view virtual returns (bool) {... */\n      swap3\n      swap2\n      pop\n      pop\n      jump\t// out\n        /* \"@openzeppelin/contracts@5.0.1/access/Ownable.sol\":2543:2758  function transferOwnership(address newOwner) public virtual onlyOwner {... */\n    tag_107:\n        /* \"@openzeppelin/contracts@5.0.1/access/Ownable.sol\":1531:1544  _checkOwner() */\n      tag_206\n        /* \"@openzeppelin/contracts@5.0.1/access/Ownable.sol\":1531:1542  _checkOwner */\n      tag_172\n        /* \"@openzeppelin/contracts@5.0.1/access/Ownable.sol\":1531:1544  _checkOwner() */\n      jump\t// in\n    tag_206:\n        /* \"@openzeppelin/contracts@5.0.1/access/Ownable.sol\":2647:2648  0 */\n      0x00\n        /* \"@openzeppelin/contracts@5.0.1/access/Ownable.sol\":2627:2649  newOwner == address(0) */\n      0xffffffffffffffffffffffffffffffffffffffff\n      and\n        /* \"@openzeppelin/contracts@5.0.1/access/Ownable.sol\":2627:2635  newOwner */\n      dup2\n        /* \"@openzeppelin/contracts@5.0.1/access/Ownable.sol\":2627:2649  newOwner == address(0) */\n      0xffffffffffffffffffffffffffffffffffffffff\n      and\n      sub\n        /* \"@openzeppelin/contracts@5.0.1/access/Ownable.sol\":2623:2714  if (newOwner == address(0)) {... */\n      tag_208\n      jumpi\n        /* \"@openzeppelin/contracts@5.0.1/access/Ownable.sol\":2700:2701  0 */\n      0x00\n        /* \"@openzeppelin/contracts@5.0.1/access/Ownable.sol\":2672:2703  OwnableInvalidOwner(address(0)) */\n      mload(0x40)\n      0x1e4fbdf700000000000000000000000000000000000000000000000000000000\n      dup2\n      mstore\n      0x04\n      add\n      tag_209\n      swap2\n      swap1\n      tag_42\n      jump\t// in\n    tag_209:\n      mload(0x40)\n      dup1\n      swap2\n      sub\n      swap1\n      revert\n        /* \"@openzeppelin/contracts@5.0.1/access/Ownable.sol\":2623:2714  if (newOwner == address(0)) {... */\n    tag_208:\n        /* \"@openzeppelin/contracts@5.0.1/access/Ownable.sol\":2723:2751  _transferOwnership(newOwner) */\n      tag_210\n        /* \"@openzeppelin/contracts@5.0.1/access/Ownable.sol\":2742:2750  newOwner */\n      dup2\n        /* \"@openzeppelin/contracts@5.0.1/access/Ownable.sol\":2723:2741  _transferOwnership */\n      tag_175\n        /* \"@openzeppelin/contracts@5.0.1/access/Ownable.sol\":2723:2751  _transferOwnership(newOwner) */\n      jump\t// in\n    tag_210:\n        /* \"@openzeppelin/contracts@5.0.1/access/Ownable.sol\":2543:2758  function transferOwnership(address newOwner) public virtual onlyOwner {... */\n      pop\n      jump\t// out\n        /* \"contracts/Lavocate/mint.sol\":364:413  mapping (address => uint) public totalMintPerUser */\n    tag_110:\n      mstore(0x20, 0x09)\n      dup1\n      0x00\n      mstore\n      keccak256(0x00, 0x40)\n      0x00\n      swap2\n      pop\n      swap1\n      pop\n      sload\n      dup2\n      jump\t// out\n        /* \"@openzeppelin/contracts@5.0.1/token/ERC721/extensions/ERC721URIStorage.sol\":937:1144  function supportsInterface(bytes4 interfaceId) public view virtual override(ERC721, IERC165) returns (bool) {... */\n    tag_114:\n        /* \"@openzeppelin/contracts@5.0.1/token/ERC721/extensions/ERC721URIStorage.sol\":1039:1043  bool */\n      0x00\n        /* \"@openzeppelin/contracts@5.0.1/token/ERC721/extensions/ERC721URIStorage.sol\":760:770  0x49064906 */\n      0x49064906\n        /* \"@openzeppelin/contracts@5.0.1/token/ERC721/extensions/ERC721URIStorage.sol\":753:771  bytes4(0x49064906) */\n      0xe0\n      shl\n        /* \"@openzeppelin/contracts@5.0.1/token/ERC721/extensions/ERC721URIStorage.sol\":1062:1097  interfaceId == ERC4906_INTERFACE_ID */\n      not(0xffffffffffffffffffffffffffffffffffffffffffffffffffffffff)\n      and\n        /* \"@openzeppelin/contracts@5.0.1/token/ERC721/extensions/ERC721URIStorage.sol\":1062:1073  interfaceId */\n      dup3\n        /* \"@openzeppelin/contracts@5.0.1/token/ERC721/extensions/ERC721URIStorage.sol\":1062:1097  interfaceId == ERC4906_INTERFACE_ID */\n      not(0xffffffffffffffffffffffffffffffffffffffffffffffffffffffff)\n      and\n      eq\n        /* \"@openzeppelin/contracts@5.0.1/token/ERC721/extensions/ERC721URIStorage.sol\":1062:1137  interfaceId == ERC4906_INTERFACE_ID || super.supportsInterface(interfaceId) */\n      dup1\n      tag_212\n      jumpi\n      pop\n        /* \"@openzeppelin/contracts@5.0.1/token/ERC721/extensions/ERC721URIStorage.sol\":1101:1137  super.supportsInterface(interfaceId) */\n      tag_213\n        /* \"@openzeppelin/contracts@5.0.1/token/ERC721/extensions/ERC721URIStorage.sol\":1125:1136  interfaceId */\n      dup3\n        /* \"@openzeppelin/contracts@5.0.1/token/ERC721/extensions/ERC721URIStorage.sol\":1101:1124  super.supportsInterface */\n      tag_214\n        /* \"@openzeppelin/contracts@5.0.1/token/ERC721/extensions/ERC721URIStorage.sol\":1101:1137  super.supportsInterface(interfaceId) */\n      jump\t// in\n    tag_213:\n        /* \"@openzeppelin/contracts@5.0.1/token/ERC721/extensions/ERC721URIStorage.sol\":1062:1137  interfaceId == ERC4906_INTERFACE_ID || super.supportsInterface(interfaceId) */\n    tag_212:\n        /* \"@openzeppelin/contracts@5.0.1/token/ERC721/extensions/ERC721URIStorage.sol\":1055:1137  return interfaceId == ERC4906_INTERFACE_ID || super.supportsInterface(interfaceId) */\n      swap1\n      pop\n        /* \"@openzeppelin/contracts@5.0.1/token/ERC721/extensions/ERC721URIStorage.sol\":937:1144  function supportsInterface(bytes4 interfaceId) public view virtual override(ERC721, IERC165) returns (bool) {... */\n      swap2\n      swap1\n      pop\n      jump\t// out\n        /* \"@openzeppelin/contracts@5.0.1/token/ERC721/ERC721.sol\":16138:16379  function _requireOwned(uint256 tokenId) internal view returns (address) {... */\n    tag_124:\n        /* \"@openzeppelin/contracts@5.0.1/token/ERC721/ERC721.sol\":16201:16208  address */\n      0x00\n        /* \"@openzeppelin/contracts@5.0.1/token/ERC721/ERC721.sol\":16220:16233  address owner */\n      dup1\n        /* \"@openzeppelin/contracts@5.0.1/token/ERC721/ERC721.sol\":16236:16253  _ownerOf(tokenId) */\n      tag_216\n        /* \"@openzeppelin/contracts@5.0.1/token/ERC721/ERC721.sol\":16245:16252  tokenId */\n      dup4\n        /* \"@openzeppelin/contracts@5.0.1/token/ERC721/ERC721.sol\":16236:16244  _ownerOf */\n      tag_217\n        /* \"@openzeppelin/contracts@5.0.1/token/ERC721/ERC721.sol\":16236:16253  _ownerOf(tokenId) */\n      jump\t// in\n    tag_216:\n        /* \"@openzeppelin/contracts@5.0.1/token/ERC721/ERC721.sol\":16220:16253  address owner = _ownerOf(tokenId) */\n      swap1\n      pop\n        /* \"@openzeppelin/contracts@5.0.1/token/ERC721/ERC721.sol\":16284:16285  0 */\n      0x00\n        /* \"@openzeppelin/contracts@5.0.1/token/ERC721/ERC721.sol\":16267:16286  owner == address(0) */\n      0xffffffffffffffffffffffffffffffffffffffff\n      and\n        /* \"@openzeppelin/contracts@5.0.1/token/ERC721/ERC721.sol\":16267:16272  owner */\n      dup2\n        /* \"@openzeppelin/contracts@5.0.1/token/ERC721/ERC721.sol\":16267:16286  owner == address(0) */\n      0xffffffffffffffffffffffffffffffffffffffff\n      and\n      sub\n        /* \"@openzeppelin/contracts@5.0.1/token/ERC721/ERC721.sol\":16263:16351  if (owner == address(0)) {... */\n      tag_218\n      jumpi\n        /* \"@openzeppelin/contracts@5.0.1/token/ERC721/ERC721.sol\":16332:16339  tokenId */\n      dup3\n        /* \"@openzeppelin/contracts@5.0.1/token/ERC721/ERC721.sol\":16309:16340  ERC721NonexistentToken(tokenId) */\n      mload(0x40)\n      0x7e27328900000000000000000000000000000000000000000000000000000000\n      dup2\n      mstore\n      0x04\n      add\n      tag_219\n      swap2\n      swap1\n      tag_67\n      jump\t// in\n    tag_219:\n      mload(0x40)\n      dup1\n      swap2\n      sub\n      swap1\n      revert\n        /* \"@openzeppelin/contracts@5.0.1/token/ERC721/ERC721.sol\":16263:16351  if (owner == address(0)) {... */\n    tag_218:\n        /* \"@openzeppelin/contracts@5.0.1/token/ERC721/ERC721.sol\":16367:16372  owner */\n      dup1\n        /* \"@openzeppelin/contracts@5.0.1/token/ERC721/ERC721.sol\":16360:16372  return owner */\n      swap2\n      pop\n      pop\n        /* \"@openzeppelin/contracts@5.0.1/token/ERC721/ERC721.sol\":16138:16379  function _requireOwned(uint256 tokenId) internal view returns (address) {... */\n      swap2\n      swap1\n      pop\n      jump\t// out\n        /* \"@openzeppelin/contracts@5.0.1/token/ERC721/ERC721.sol\":5938:6065  function _getApproved(uint256 tokenId) internal view virtual returns (address) {... */\n    tag_126:\n        /* \"@openzeppelin/contracts@5.0.1/token/ERC721/ERC721.sol\":6008:6015  address */\n      0x00\n        /* \"@openzeppelin/contracts@5.0.1/token/ERC721/ERC721.sol\":6034:6049  _tokenApprovals */\n      0x04\n        /* \"@openzeppelin/contracts@5.0.1/token/ERC721/ERC721.sol\":6034:6058  _tokenApprovals[tokenId] */\n      0x00\n        /* \"@openzeppelin/contracts@5.0.1/token/ERC721/ERC721.sol\":6050:6057  tokenId */\n      dup4\n        /* \"@openzeppelin/contracts@5.0.1/token/ERC721/ERC721.sol\":6034:6058  _tokenApprovals[tokenId] */\n      dup2\n      mstore\n      0x20\n      add\n      swap1\n      dup2\n      mstore\n      0x20\n      add\n      0x00\n      keccak256\n      0x00\n      swap1\n      sload\n      swap1\n      0x0100\n      exp\n      swap1\n      div\n      0xffffffffffffffffffffffffffffffffffffffff\n      and\n        /* \"@openzeppelin/contracts@5.0.1/token/ERC721/ERC721.sol\":6027:6058  return _tokenApprovals[tokenId] */\n      swap1\n      pop\n        /* \"@openzeppelin/contracts@5.0.1/token/ERC721/ERC721.sol\":5938:6065  function _getApproved(uint256 tokenId) internal view virtual returns (address) {... */\n      swap2\n      swap1\n      pop\n      jump\t// out\n        /* \"@openzeppelin/contracts@5.0.1/utils/Context.sol\":656:752  function _msgSender() internal view virtual returns (address) {... */\n    tag_147:\n        /* \"@openzeppelin/contracts@5.0.1/utils/Context.sol\":709:716  address */\n      0x00\n        /* \"@openzeppelin/contracts@5.0.1/utils/Context.sol\":735:745  msg.sender */\n      caller\n        /* \"@openzeppelin/contracts@5.0.1/utils/Context.sol\":728:745  return msg.sender */\n      swap1\n      pop\n        /* \"@openzeppelin/contracts@5.0.1/utils/Context.sol\":656:752  function _msgSender() internal view virtual returns (address) {... */\n      swap1\n      jump\t// out\n        /* \"@openzeppelin/contracts@5.0.1/token/ERC721/ERC721.sol\":14418:14538  function _approve(address to, uint256 tokenId, address auth) internal {... */\n    tag_148:\n        /* \"@openzeppelin/contracts@5.0.1/token/ERC721/ERC721.sol\":14498:14531  _approve(to, tokenId, auth, true) */\n      tag_223\n        /* \"@openzeppelin/contracts@5.0.1/token/ERC721/ERC721.sol\":14507:14509  to */\n      dup4\n        /* \"@openzeppelin/contracts@5.0.1/token/ERC721/ERC721.sol\":14511:14518  tokenId */\n      dup4\n        /* \"@openzeppelin/contracts@5.0.1/token/ERC721/ERC721.sol\":14520:14524  auth */\n      dup4\n        /* \"@openzeppelin/contracts@5.0.1/token/ERC721/ERC721.sol\":14526:14530  true */\n      0x01\n        /* \"@openzeppelin/contracts@5.0.1/token/ERC721/ERC721.sol\":14498:14506  _approve */\n      tag_224\n        /* \"@openzeppelin/contracts@5.0.1/token/ERC721/ERC721.sol\":14498:14531  _approve(to, tokenId, auth, true) */\n      jump\t// in\n    tag_223:\n        /* \"@openzeppelin/contracts@5.0.1/token/ERC721/ERC721.sol\":14418:14538  function _approve(address to, uint256 tokenId, address auth) internal {... */\n      pop\n      pop\n      pop\n      jump\t// out\n        /* \"@openzeppelin/contracts@5.0.1/token/ERC721/ERC721.sol\":8838:9633  function _update(address to, uint256 tokenId, address auth) internal virtual returns (address) {... */\n    tag_154:\n        /* \"@openzeppelin/contracts@5.0.1/token/ERC721/ERC721.sol\":8924:8931  address */\n      0x00\n        /* \"@openzeppelin/contracts@5.0.1/token/ERC721/ERC721.sol\":8943:8955  address from */\n      dup1\n        /* \"@openzeppelin/contracts@5.0.1/token/ERC721/ERC721.sol\":8958:8975  _ownerOf(tokenId) */\n      tag_226\n        /* \"@openzeppelin/contracts@5.0.1/token/ERC721/ERC721.sol\":8967:8974  tokenId */\n      dup5\n        /* \"@openzeppelin/contracts@5.0.1/token/ERC721/ERC721.sol\":8958:8966  _ownerOf */\n      tag_217\n        /* \"@openzeppelin/contracts@5.0.1/token/ERC721/ERC721.sol\":8958:8975  _ownerOf(tokenId) */\n      jump\t// in\n    tag_226:\n        /* \"@openzeppelin/contracts@5.0.1/token/ERC721/ERC721.sol\":8943:8975  address from = _ownerOf(tokenId) */\n      swap1\n      pop\n        /* \"@openzeppelin/contracts@5.0.1/token/ERC721/ERC721.sol\":9051:9052  0 */\n      0x00\n        /* \"@openzeppelin/contracts@5.0.1/token/ERC721/ERC721.sol\":9035:9053  auth != address(0) */\n      0xffffffffffffffffffffffffffffffffffffffff\n      and\n        /* \"@openzeppelin/contracts@5.0.1/token/ERC721/ERC721.sol\":9035:9039  auth */\n      dup4\n        /* \"@openzeppelin/contracts@5.0.1/token/ERC721/ERC721.sol\":9035:9053  auth != address(0) */\n      0xffffffffffffffffffffffffffffffffffffffff\n      and\n      eq\n        /* \"@openzeppelin/contracts@5.0.1/token/ERC721/ERC721.sol\":9031:9117  if (auth != address(0)) {... */\n      tag_227\n      jumpi\n        /* \"@openzeppelin/contracts@5.0.1/token/ERC721/ERC721.sol\":9069:9106  _checkAuthorized(from, auth, tokenId) */\n      tag_228\n        /* \"@openzeppelin/contracts@5.0.1/token/ERC721/ERC721.sol\":9086:9090  from */\n      dup2\n        /* \"@openzeppelin/contracts@5.0.1/token/ERC721/ERC721.sol\":9092:9096  auth */\n      dup5\n        /* \"@openzeppelin/contracts@5.0.1/token/ERC721/ERC721.sol\":9098:9105  tokenId */\n      dup7\n        /* \"@openzeppelin/contracts@5.0.1/token/ERC721/ERC721.sol\":9069:9085  _checkAuthorized */\n      tag_229\n        /* \"@openzeppelin/contracts@5.0.1/token/ERC721/ERC721.sol\":9069:9106  _checkAuthorized(from, auth, tokenId) */\n      jump\t// in\n    tag_228:\n        /* \"@openzeppelin/contracts@5.0.1/token/ERC721/ERC721.sol\":9031:9117  if (auth != address(0)) {... */\n    tag_227:\n        /* \"@openzeppelin/contracts@5.0.1/token/ERC721/ERC721.sol\":9177:9178  0 */\n      0x00\n        /* \"@openzeppelin/contracts@5.0.1/token/ERC721/ERC721.sol\":9161:9179  from != address(0) */\n      0xffffffffffffffffffffffffffffffffffffffff\n      and\n        /* \"@openzeppelin/contracts@5.0.1/token/ERC721/ERC721.sol\":9161:9165  from */\n      dup2\n        /* \"@openzeppelin/contracts@5.0.1/token/ERC721/ERC721.sol\":9161:9179  from != address(0) */\n      0xffffffffffffffffffffffffffffffffffffffff\n      and\n      eq\n        /* \"@openzeppelin/contracts@5.0.1/token/ERC721/ERC721.sol\":9157:9413  if (from != address(0)) {... */\n      tag_230\n      jumpi\n        /* \"@openzeppelin/contracts@5.0.1/token/ERC721/ERC721.sol\":9277:9325  _approve(address(0), tokenId, address(0), false) */\n      tag_231\n        /* \"@openzeppelin/contracts@5.0.1/token/ERC721/ERC721.sol\":9294:9295  0 */\n      0x00\n        /* \"@openzeppelin/contracts@5.0.1/token/ERC721/ERC721.sol\":9298:9305  tokenId */\n      dup6\n        /* \"@openzeppelin/contracts@5.0.1/token/ERC721/ERC721.sol\":9315:9316  0 */\n      0x00\n        /* \"@openzeppelin/contracts@5.0.1/token/ERC721/ERC721.sol\":9319:9324  false */\n      dup1\n        /* \"@openzeppelin/contracts@5.0.1/token/ERC721/ERC721.sol\":9277:9285  _approve */\n      tag_224\n        /* \"@openzeppelin/contracts@5.0.1/token/ERC721/ERC721.sol\":9277:9325  _approve(address(0), tokenId, address(0), false) */\n      jump\t// in\n    tag_231:\n        /* \"@openzeppelin/contracts@5.0.1/token/ERC721/ERC721.sol\":9387:9388  1 */\n      0x01\n        /* \"@openzeppelin/contracts@5.0.1/token/ERC721/ERC721.sol\":9368:9377  _balances */\n      0x03\n        /* \"@openzeppelin/contracts@5.0.1/token/ERC721/ERC721.sol\":9368:9383  _balances[from] */\n      0x00\n        /* \"@openzeppelin/contracts@5.0.1/token/ERC721/ERC721.sol\":9378:9382  from */\n      dup4\n        /* \"@openzeppelin/contracts@5.0.1/token/ERC721/ERC721.sol\":9368:9383  _balances[from] */\n      0xffffffffffffffffffffffffffffffffffffffff\n      and\n      0xffffffffffffffffffffffffffffffffffffffff\n      and\n      dup2\n      mstore\n      0x20\n      add\n      swap1\n      dup2\n      mstore\n      0x20\n      add\n      0x00\n      keccak256\n      0x00\n        /* \"@openzeppelin/contracts@5.0.1/token/ERC721/ERC721.sol\":9368:9388  _balances[from] -= 1 */\n      dup3\n      dup3\n      sload\n      sub\n      swap3\n      pop\n      pop\n      dup2\n      swap1\n      sstore\n      pop\n        /* \"@openzeppelin/contracts@5.0.1/token/ERC721/ERC721.sol\":9157:9413  if (from != address(0)) {... */\n    tag_230:\n        /* \"@openzeppelin/contracts@5.0.1/token/ERC721/ERC721.sol\":9441:9442  0 */\n      0x00\n        /* \"@openzeppelin/contracts@5.0.1/token/ERC721/ERC721.sol\":9427:9443  to != address(0) */\n      0xffffffffffffffffffffffffffffffffffffffff\n      and\n        /* \"@openzeppelin/contracts@5.0.1/token/ERC721/ERC721.sol\":9427:9429  to */\n      dup6\n        /* \"@openzeppelin/contracts@5.0.1/token/ERC721/ERC721.sol\":9427:9443  to != address(0) */\n      0xffffffffffffffffffffffffffffffffffffffff\n      and\n      eq\n        /* \"@openzeppelin/contracts@5.0.1/token/ERC721/ERC721.sol\":9423:9530  if (to != address(0)) {... */\n      tag_232\n      jumpi\n        /* \"@openzeppelin/contracts@5.0.1/token/ERC721/ERC721.sol\":9504:9505  1 */\n      0x01\n        /* \"@openzeppelin/contracts@5.0.1/token/ERC721/ERC721.sol\":9487:9496  _balances */\n      0x03\n        /* \"@openzeppelin/contracts@5.0.1/token/ERC721/ERC721.sol\":9487:9500  _balances[to] */\n      0x00\n        /* \"@openzeppelin/contracts@5.0.1/token/ERC721/ERC721.sol\":9497:9499  to */\n      dup8\n        /* \"@openzeppelin/contracts@5.0.1/token/ERC721/ERC721.sol\":9487:9500  _balances[to] */\n      0xffffffffffffffffffffffffffffffffffffffff\n      and\n      0xffffffffffffffffffffffffffffffffffffffff\n      and\n      dup2\n      mstore\n      0x20\n      add\n      swap1\n      dup2\n      mstore\n      0x20\n      add\n      0x00\n      keccak256\n      0x00\n        /* \"@openzeppelin/contracts@5.0.1/token/ERC721/ERC721.sol\":9487:9505  _balances[to] += 1 */\n      dup3\n      dup3\n      sload\n      add\n      swap3\n      pop\n      pop\n      dup2\n      swap1\n      sstore\n      pop\n        /* \"@openzeppelin/contracts@5.0.1/token/ERC721/ERC721.sol\":9423:9530  if (to != address(0)) {... */\n    tag_232:\n        /* \"@openzeppelin/contracts@5.0.1/token/ERC721/ERC721.sol\":9559:9561  to */\n      dup5\n        /* \"@openzeppelin/contracts@5.0.1/token/ERC721/ERC721.sol\":9540:9547  _owners */\n      0x02\n        /* \"@openzeppelin/contracts@5.0.1/token/ERC721/ERC721.sol\":9540:9556  _owners[tokenId] */\n      0x00\n        /* \"@openzeppelin/contracts@5.0.1/token/ERC721/ERC721.sol\":9548:9555  tokenId */\n      dup7\n        /* \"@openzeppelin/contracts@5.0.1/token/ERC721/ERC721.sol\":9540:9556  _owners[tokenId] */\n      dup2\n      mstore\n      0x20\n      add\n      swap1\n      dup2\n      mstore\n      0x20\n      add\n      0x00\n      keccak256\n      0x00\n        /* \"@openzeppelin/contracts@5.0.1/token/ERC721/ERC721.sol\":9540:9561  _owners[tokenId] = to */\n      0x0100\n      exp\n      dup2\n      sload\n      dup2\n      0xffffffffffffffffffffffffffffffffffffffff\n      mul\n      not\n      and\n      swap1\n      dup4\n      0xffffffffffffffffffffffffffffffffffffffff\n      and\n      mul\n      or\n      swap1\n      sstore\n      pop\n        /* \"@openzeppelin/contracts@5.0.1/token/ERC721/ERC721.sol\":9596:9603  tokenId */\n      dup4\n        /* \"@openzeppelin/contracts@5.0.1/token/ERC721/ERC721.sol\":9592:9594  to */\n      dup6\n        /* \"@openzeppelin/contracts@5.0.1/token/ERC721/ERC721.sol\":9577:9604  Transfer(from, to, tokenId) */\n      0xffffffffffffffffffffffffffffffffffffffff\n      and\n        /* \"@openzeppelin/contracts@5.0.1/token/ERC721/ERC721.sol\":9586:9590  from */\n      dup3\n        /* \"@openzeppelin/contracts@5.0.1/token/ERC721/ERC721.sol\":9577:9604  Transfer(from, to, tokenId) */\n      0xffffffffffffffffffffffffffffffffffffffff\n      and\n      0xddf252ad1be2c89b69c2b068fc378daa952ba7f163c4a11628f55a4df523b3ef\n      mload(0x40)\n      mload(0x40)\n      dup1\n      swap2\n      sub\n      swap1\n      log4\n        /* \"@openzeppelin/contracts@5.0.1/token/ERC721/ERC721.sol\":9622:9626  from */\n      dup1\n        /* \"@openzeppelin/contracts@5.0.1/token/ERC721/ERC721.sol\":9615:9626  return from */\n      swap2\n      pop\n      pop\n        /* \"@openzeppelin/contracts@5.0.1/token/ERC721/ERC721.sol\":8838:9633  function _update(address to, uint256 tokenId, address auth) internal virtual returns (address) {... */\n      swap4\n      swap3\n      pop\n      pop\n      pop\n      jump\t// out\n        /* \"@openzeppelin/contracts@5.0.1/access/Ownable.sol\":1796:1958  function _checkOwner() internal view virtual {... */\n    tag_172:\n        /* \"@openzeppelin/contracts@5.0.1/access/Ownable.sol\":1866:1878  _msgSender() */\n      tag_234\n        /* \"@openzeppelin/contracts@5.0.1/access/Ownable.sol\":1866:1876  _msgSender */\n      tag_147\n        /* \"@openzeppelin/contracts@5.0.1/access/Ownable.sol\":1866:1878  _msgSender() */\n      jump\t// in\n    tag_234:\n        /* \"@openzeppelin/contracts@5.0.1/access/Ownable.sol\":1855:1878  owner() != _msgSender() */\n      0xffffffffffffffffffffffffffffffffffffffff\n      and\n        /* \"@openzeppelin/contracts@5.0.1/access/Ownable.sol\":1855:1862  owner() */\n      tag_235\n        /* \"@openzeppelin/contracts@5.0.1/access/Ownable.sol\":1855:1860  owner */\n      tag_79\n        /* \"@openzeppelin/contracts@5.0.1/access/Ownable.sol\":1855:1862  owner() */\n      jump\t// in\n    tag_235:\n        /* \"@openzeppelin/contracts@5.0.1/access/Ownable.sol\":1855:1878  owner() != _msgSender() */\n      0xffffffffffffffffffffffffffffffffffffffff\n      and\n      eq\n        /* \"@openzeppelin/contracts@5.0.1/access/Ownable.sol\":1851:1952  if (owner() != _msgSender()) {... */\n      tag_236\n      jumpi\n        /* \"@openzeppelin/contracts@5.0.1/access/Ownable.sol\":1928:1940  _msgSender() */\n      tag_237\n        /* \"@openzeppelin/contracts@5.0.1/access/Ownable.sol\":1928:1938  _msgSender */\n      tag_147\n        /* \"@openzeppelin/contracts@5.0.1/access/Ownable.sol\":1928:1940  _msgSender() */\n      jump\t// in\n    tag_237:\n        /* \"@openzeppelin/contracts@5.0.1/access/Ownable.sol\":1901:1941  OwnableUnauthorizedAccount(_msgSender()) */\n      mload(0x40)\n      0x118cdaa700000000000000000000000000000000000000000000000000000000\n      dup2\n      mstore\n      0x04\n      add\n      tag_238\n      swap2\n      swap1\n      tag_42\n      jump\t// in\n    tag_238:\n      mload(0x40)\n      dup1\n      swap2\n      sub\n      swap1\n      revert\n        /* \"@openzeppelin/contracts@5.0.1/access/Ownable.sol\":1851:1952  if (owner() != _msgSender()) {... */\n    tag_236:\n        /* \"@openzeppelin/contracts@5.0.1/access/Ownable.sol\":1796:1958  function _checkOwner() internal view virtual {... */\n      jump\t// out\n        /* \"@openzeppelin/contracts@5.0.1/access/Ownable.sol\":2912:3099  function _transferOwnership(address newOwner) internal virtual {... */\n    tag_175:\n        /* \"@openzeppelin/contracts@5.0.1/access/Ownable.sol\":2985:3001  address oldOwner */\n      0x00\n        /* \"@openzeppelin/contracts@5.0.1/access/Ownable.sol\":3004:3010  _owner */\n      0x07\n      0x00\n      swap1\n      sload\n      swap1\n      0x0100\n      exp\n      swap1\n      div\n      0xffffffffffffffffffffffffffffffffffffffff\n      and\n        /* \"@openzeppelin/contracts@5.0.1/access/Ownable.sol\":2985:3010  address oldOwner = _owner */\n      swap1\n      pop\n        /* \"@openzeppelin/contracts@5.0.1/access/Ownable.sol\":3029:3037  newOwner */\n      dup2\n        /* \"@openzeppelin/contracts@5.0.1/access/Ownable.sol\":3020:3026  _owner */\n      0x07\n      0x00\n        /* \"@openzeppelin/contracts@5.0.1/access/Ownable.sol\":3020:3037  _owner = newOwner */\n      0x0100\n      exp\n      dup2\n      sload\n      dup2\n      0xffffffffffffffffffffffffffffffffffffffff\n      mul\n      not\n      and\n      swap1\n      dup4\n      0xffffffffffffffffffffffffffffffffffffffff\n      and\n      mul\n      or\n      swap1\n      sstore\n      pop\n        /* \"@openzeppelin/contracts@5.0.1/access/Ownable.sol\":3083:3091  newOwner */\n      dup2\n        /* \"@openzeppelin/contracts@5.0.1/access/Ownable.sol\":3052:3092  OwnershipTransferred(oldOwner, newOwner) */\n      0xffffffffffffffffffffffffffffffffffffffff\n      and\n        /* \"@openzeppelin/contracts@5.0.1/access/Ownable.sol\":3073:3081  oldOwner */\n      dup2\n        /* \"@openzeppelin/contracts@5.0.1/access/Ownable.sol\":3052:3092  OwnershipTransferred(oldOwner, newOwner) */\n      0xffffffffffffffffffffffffffffffffffffffff\n      and\n      0x8be0079c531659141344cd1fd0a4f28419497f9722a3daafe3b4186f6b6457e0\n      mload(0x40)\n      mload(0x40)\n      dup1\n      swap2\n      sub\n      swap1\n      log3\n        /* \"@openzeppelin/contracts@5.0.1/access/Ownable.sol\":2975:3099  {... */\n      pop\n        /* \"@openzeppelin/contracts@5.0.1/access/Ownable.sol\":2912:3099  function _transferOwnership(address newOwner) internal virtual {... */\n      pop\n      jump\t// out\n        /* \"@openzeppelin/contracts@5.0.1/token/ERC721/ERC721.sol\":15591:15903  function _setApprovalForAll(address owner, address operator, bool approved) internal virtual {... */\n    tag_186:\n        /* \"@openzeppelin/contracts@5.0.1/token/ERC721/ERC721.sol\":15718:15719  0 */\n      0x00\n        /* \"@openzeppelin/contracts@5.0.1/token/ERC721/ERC721.sol\":15698:15720  operator == address(0) */\n      0xffffffffffffffffffffffffffffffffffffffff\n      and\n        /* \"@openzeppelin/contracts@5.0.1/token/ERC721/ERC721.sol\":15698:15706  operator */\n      dup3\n        /* \"@openzeppelin/contracts@5.0.1/token/ERC721/ERC721.sol\":15698:15720  operator == address(0) */\n      0xffffffffffffffffffffffffffffffffffffffff\n      and\n      sub\n        /* \"@openzeppelin/contracts@5.0.1/token/ERC721/ERC721.sol\":15694:15785  if (operator == address(0)) {... */\n      tag_241\n      jumpi\n        /* \"@openzeppelin/contracts@5.0.1/token/ERC721/ERC721.sol\":15765:15773  operator */\n      dup2\n        /* \"@openzeppelin/contracts@5.0.1/token/ERC721/ERC721.sol\":15743:15774  ERC721InvalidOperator(operator) */\n      mload(0x40)\n      0x5b08ba1800000000000000000000000000000000000000000000000000000000\n      dup2\n      mstore\n      0x04\n      add\n      tag_242\n      swap2\n      swap1\n      tag_42\n      jump\t// in\n    tag_242:\n      mload(0x40)\n      dup1\n      swap2\n      sub\n      swap1\n      revert\n        /* \"@openzeppelin/contracts@5.0.1/token/ERC721/ERC721.sol\":15694:15785  if (operator == address(0)) {... */\n    tag_241:\n        /* \"@openzeppelin/contracts@5.0.1/token/ERC721/ERC721.sol\":15832:15840  approved */\n      dup1\n        /* \"@openzeppelin/contracts@5.0.1/token/ERC721/ERC721.sol\":15794:15812  _operatorApprovals */\n      0x05\n        /* \"@openzeppelin/contracts@5.0.1/token/ERC721/ERC721.sol\":15794:15819  _operatorApprovals[owner] */\n      0x00\n        /* \"@openzeppelin/contracts@5.0.1/token/ERC721/ERC721.sol\":15813:15818  owner */\n      dup6\n        /* \"@openzeppelin/contracts@5.0.1/token/ERC721/ERC721.sol\":15794:15819  _operatorApprovals[owner] */\n      0xffffffffffffffffffffffffffffffffffffffff\n      and\n      0xffffffffffffffffffffffffffffffffffffffff\n      and\n      dup2\n      mstore\n      0x20\n      add\n      swap1\n      dup2\n      mstore\n      0x20\n      add\n      0x00\n      keccak256\n        /* \"@openzeppelin/contracts@5.0.1/token/ERC721/ERC721.sol\":15794:15829  _operatorApprovals[owner][operator] */\n      0x00\n        /* \"@openzeppelin/contracts@5.0.1/token/ERC721/ERC721.sol\":15820:15828  operator */\n      dup5\n        /* \"@openzeppelin/contracts@5.0.1/token/ERC721/ERC721.sol\":15794:15829  _operatorApprovals[owner][operator] */\n      0xffffffffffffffffffffffffffffffffffffffff\n      and\n      0xffffffffffffffffffffffffffffffffffffffff\n      and\n      dup2\n      mstore\n      0x20\n      add\n      swap1\n      dup2\n      mstore\n      0x20\n      add\n      0x00\n      keccak256\n      0x00\n        /* \"@openzeppelin/contracts@5.0.1/token/ERC721/ERC721.sol\":15794:15840  _operatorApprovals[owner][operator] = approved */\n      0x0100\n      exp\n      dup2\n      sload\n      dup2\n      0xff\n      mul\n      not\n      and\n      swap1\n      dup4\n      iszero\n      iszero\n      mul\n      or\n      swap1\n      sstore\n      pop\n        /* \"@openzeppelin/contracts@5.0.1/token/ERC721/ERC721.sol\":15877:15885  operator */\n      dup2\n        /* \"@openzeppelin/contracts@5.0.1/token/ERC721/ERC721.sol\":15855:15896  ApprovalForAll(owner, operator, approved) */\n      0xffffffffffffffffffffffffffffffffffffffff\n      and\n        /* \"@openzeppelin/contracts@5.0.1/token/ERC721/ERC721.sol\":15870:15875  owner */\n      dup4\n        /* \"@openzeppelin/contracts@5.0.1/token/ERC721/ERC721.sol\":15855:15896  ApprovalForAll(owner, operator, approved) */\n      0xffffffffffffffffffffffffffffffffffffffff\n      and\n      0x17307eab39ab6107e8899845ad3d59bd9653f200f220920489ca2b5937696c31\n        /* \"@openzeppelin/contracts@5.0.1/token/ERC721/ERC721.sol\":15887:15895  approved */\n      dup4\n        /* \"@openzeppelin/contracts@5.0.1/token/ERC721/ERC721.sol\":15855:15896  ApprovalForAll(owner, operator, approved) */\n      mload(0x40)\n      tag_243\n      swap2\n      swap1\n      tag_32\n      jump\t// in\n    tag_243:\n      mload(0x40)\n      dup1\n      swap2\n      sub\n      swap1\n      log3\n        /* \"@openzeppelin/contracts@5.0.1/token/ERC721/ERC721.sol\":15591:15903  function _setApprovalForAll(address owner, address operator, bool approved) internal virtual {... */\n      pop\n      pop\n      pop\n      jump\t// out\n        /* \"@openzeppelin/contracts@5.0.1/token/ERC721/ERC721.sol\":16918:17700  function _checkOnERC721Received(address from, address to, uint256 tokenId, bytes memory data) private {... */\n    tag_190:\n        /* \"@openzeppelin/contracts@5.0.1/token/ERC721/ERC721.sol\":17051:17052  0 */\n      0x00\n        /* \"@openzeppelin/contracts@5.0.1/token/ERC721/ERC721.sol\":17034:17036  to */\n      dup4\n        /* \"@openzeppelin/contracts@5.0.1/token/ERC721/ERC721.sol\":17034:17048  to.code.length */\n      0xffffffffffffffffffffffffffffffffffffffff\n      and\n      extcodesize\n        /* \"@openzeppelin/contracts@5.0.1/token/ERC721/ERC721.sol\":17034:17052  to.code.length > 0 */\n      gt\n        /* \"@openzeppelin/contracts@5.0.1/token/ERC721/ERC721.sol\":17030:17694  if (to.code.length > 0) {... */\n      iszero\n      tag_245\n      jumpi\n        /* \"@openzeppelin/contracts@5.0.1/token/ERC721/ERC721.sol\":17088:17090  to */\n      dup3\n        /* \"@openzeppelin/contracts@5.0.1/token/ERC721/ERC721.sol\":17072:17108  IERC721Receiver(to).onERC721Received */\n      0xffffffffffffffffffffffffffffffffffffffff\n      and\n      0x150b7a02\n        /* \"@openzeppelin/contracts@5.0.1/token/ERC721/ERC721.sol\":17109:17121  _msgSender() */\n      tag_246\n        /* \"@openzeppelin/contracts@5.0.1/token/ERC721/ERC721.sol\":17109:17119  _msgSender */\n      tag_147\n        /* \"@openzeppelin/contracts@5.0.1/token/ERC721/ERC721.sol\":17109:17121  _msgSender() */\n      jump\t// in\n    tag_246:\n        /* \"@openzeppelin/contracts@5.0.1/token/ERC721/ERC721.sol\":17123:17127  from */\n      dup7\n        /* \"@openzeppelin/contracts@5.0.1/token/ERC721/ERC721.sol\":17129:17136  tokenId */\n      dup6\n        /* \"@openzeppelin/contracts@5.0.1/token/ERC721/ERC721.sol\":17138:17142  data */\n      dup6\n        /* \"@openzeppelin/contracts@5.0.1/token/ERC721/ERC721.sol\":17072:17143  IERC721Receiver(to).onERC721Received(_msgSender(), from, tokenId, data) */\n      mload(0x40)\n      dup6\n      0xffffffff\n      and\n      0xe0\n      shl\n      dup2\n      mstore\n      0x04\n      add\n      tag_247\n      swap5\n      swap4\n      swap3\n      swap2\n      swap1\n      tag_248\n      jump\t// in\n    tag_247:\n      0x20\n      mload(0x40)\n      dup1\n      dup4\n      sub\n      dup2\n      0x00\n      dup8\n      gas\n      call\n      swap3\n      pop\n      pop\n      pop\n      dup1\n      iszero\n      tag_249\n      jumpi\n      pop\n      mload(0x40)\n      returndatasize\n      not(0x1f)\n      0x1f\n      dup3\n      add\n      and\n      dup3\n      add\n      dup1\n      0x40\n      mstore\n      pop\n      dup2\n      add\n      swap1\n      tag_250\n      swap2\n      swap1\n      tag_251\n      jump\t// in\n    tag_250:\n      0x01\n    tag_249:\n        /* \"@openzeppelin/contracts@5.0.1/token/ERC721/ERC721.sol\":17068:17684  try IERC721Receiver(to).onERC721Received(_msgSender(), from, tokenId, data) returns (bytes4 retval) {... */\n      tag_252\n      jumpi\n      returndatasize\n      dup1\n      0x00\n      dup2\n      eq\n      tag_257\n      jumpi\n      mload(0x40)\n      swap2\n      pop\n      and(add(returndatasize, 0x3f), not(0x1f))\n      dup3\n      add\n      0x40\n      mstore\n      returndatasize\n      dup3\n      mstore\n      returndatasize\n      0x00\n      0x20\n      dup5\n      add\n      returndatacopy\n      jump(tag_256)\n    tag_257:\n      0x60\n      swap2\n      pop\n    tag_256:\n      pop\n        /* \"@openzeppelin/contracts@5.0.1/token/ERC721/ERC721.sol\":17398:17399  0 */\n      0x00\n        /* \"@openzeppelin/contracts@5.0.1/token/ERC721/ERC721.sol\":17381:17387  reason */\n      dup2\n        /* \"@openzeppelin/contracts@5.0.1/token/ERC721/ERC721.sol\":17381:17394  reason.length */\n      mload\n        /* \"@openzeppelin/contracts@5.0.1/token/ERC721/ERC721.sol\":17381:17399  reason.length == 0 */\n      sub\n        /* \"@openzeppelin/contracts@5.0.1/token/ERC721/ERC721.sol\":17377:17670  if (reason.length == 0) {... */\n      tag_258\n      jumpi\n        /* \"@openzeppelin/contracts@5.0.1/token/ERC721/ERC721.sol\":17452:17454  to */\n      dup4\n        /* \"@openzeppelin/contracts@5.0.1/token/ERC721/ERC721.sol\":17430:17455  ERC721InvalidReceiver(to) */\n      mload(0x40)\n      0x64a0ae9200000000000000000000000000000000000000000000000000000000\n      dup2\n      mstore\n      0x04\n      add\n      tag_259\n      swap2\n      swap1\n      tag_42\n      jump\t// in\n    tag_259:\n      mload(0x40)\n      dup1\n      swap2\n      sub\n      swap1\n      revert\n        /* \"@openzeppelin/contracts@5.0.1/token/ERC721/ERC721.sol\":17377:17670  if (reason.length == 0) {... */\n    tag_258:\n        /* \"@openzeppelin/contracts@5.0.1/token/ERC721/ERC721.sol\":17622:17628  reason */\n      dup1\n        /* \"@openzeppelin/contracts@5.0.1/token/ERC721/ERC721.sol\":17616:17629  mload(reason) */\n      mload\n        /* \"@openzeppelin/contracts@5.0.1/token/ERC721/ERC721.sol\":17607:17613  reason */\n      dup2\n        /* \"@openzeppelin/contracts@5.0.1/token/ERC721/ERC721.sol\":17603:17605  32 */\n      0x20\n        /* \"@openzeppelin/contracts@5.0.1/token/ERC721/ERC721.sol\":17599:17614  add(32, reason) */\n      add\n        /* \"@openzeppelin/contracts@5.0.1/token/ERC721/ERC721.sol\":17592:17630  revert(add(32, reason), mload(reason)) */\n      revert\n        /* \"@openzeppelin/contracts@5.0.1/token/ERC721/ERC721.sol\":17068:17684  try IERC721Receiver(to).onERC721Received(_msgSender(), from, tokenId, data) returns (bytes4 retval) {... */\n    tag_252:\n        /* \"@openzeppelin/contracts@5.0.1/token/ERC721/ERC721.sol\":17200:17241  IERC721Receiver.onERC721Received.selector */\n      shl(0xe0, 0x150b7a02)\n        /* \"@openzeppelin/contracts@5.0.1/token/ERC721/ERC721.sol\":17190:17241  retval != IERC721Receiver.onERC721Received.selector */\n      not(0xffffffffffffffffffffffffffffffffffffffffffffffffffffffff)\n      and\n        /* \"@openzeppelin/contracts@5.0.1/token/ERC721/ERC721.sol\":17190:17196  retval */\n      dup2\n        /* \"@openzeppelin/contracts@5.0.1/token/ERC721/ERC721.sol\":17190:17241  retval != IERC721Receiver.onERC721Received.selector */\n      not(0xffffffffffffffffffffffffffffffffffffffffffffffffffffffff)\n      and\n      eq\n        /* \"@openzeppelin/contracts@5.0.1/token/ERC721/ERC721.sol\":17186:17316  if (retval != IERC721Receiver.onERC721Received.selector) {... */\n      tag_262\n      jumpi\n        /* \"@openzeppelin/contracts@5.0.1/token/ERC721/ERC721.sol\":17294:17296  to */\n      dup4\n        /* \"@openzeppelin/contracts@5.0.1/token/ERC721/ERC721.sol\":17272:17297  ERC721InvalidReceiver(to) */\n      mload(0x40)\n      0x64a0ae9200000000000000000000000000000000000000000000000000000000\n      dup2\n      mstore\n      0x04\n      add\n      tag_263\n      swap2\n      swap1\n      tag_42\n      jump\t// in\n    tag_263:\n      mload(0x40)\n      dup1\n      swap2\n      sub\n      swap1\n      revert\n        /* \"@openzeppelin/contracts@5.0.1/token/ERC721/ERC721.sol\":17186:17316  if (retval != IERC721Receiver.onERC721Received.selector) {... */\n    tag_262:\n        /* \"@openzeppelin/contracts@5.0.1/token/ERC721/ERC721.sol\":17144:17330  returns (bytes4 retval) {... */\n      pop\n        /* \"@openzeppelin/contracts@5.0.1/token/ERC721/ERC721.sol\":17030:17694  if (to.code.length > 0) {... */\n    tag_245:\n        /* \"@openzeppelin/contracts@5.0.1/token/ERC721/ERC721.sol\":16918:17700  function _checkOnERC721Received(address from, address to, uint256 tokenId, bytes memory data) private {... */\n      pop\n      pop\n      pop\n      pop\n      jump\t// out\n        /* \"@openzeppelin/contracts@5.0.1/token/ERC721/extensions/ERC721URIStorage.sol\":1210:1803  function tokenURI(uint256 tokenId) public view virtual override returns (string memory) {... */\n    tag_193:\n        /* \"@openzeppelin/contracts@5.0.1/token/ERC721/extensions/ERC721URIStorage.sol\":1283:1296  string memory */\n      0x60\n        /* \"@openzeppelin/contracts@5.0.1/token/ERC721/extensions/ERC721URIStorage.sol\":1308:1330  _requireOwned(tokenId) */\n      tag_265\n        /* \"@openzeppelin/contracts@5.0.1/token/ERC721/extensions/ERC721URIStorage.sol\":1322:1329  tokenId */\n      dup3\n        /* \"@openzeppelin/contracts@5.0.1/token/ERC721/extensions/ERC721URIStorage.sol\":1308:1321  _requireOwned */\n      tag_124\n        /* \"@openzeppelin/contracts@5.0.1/token/ERC721/extensions/ERC721URIStorage.sol\":1308:1330  _requireOwned(tokenId) */\n      jump\t// in\n    tag_265:\n      pop\n        /* \"@openzeppelin/contracts@5.0.1/token/ERC721/extensions/ERC721URIStorage.sol\":1341:1364  string memory _tokenURI */\n      0x00\n        /* \"@openzeppelin/contracts@5.0.1/token/ERC721/extensions/ERC721URIStorage.sol\":1367:1377  _tokenURIs */\n      0x06\n        /* \"@openzeppelin/contracts@5.0.1/token/ERC721/extensions/ERC721URIStorage.sol\":1367:1386  _tokenURIs[tokenId] */\n      0x00\n        /* \"@openzeppelin/contracts@5.0.1/token/ERC721/extensions/ERC721URIStorage.sol\":1378:1385  tokenId */\n      dup5\n        /* \"@openzeppelin/contracts@5.0.1/token/ERC721/extensions/ERC721URIStorage.sol\":1367:1386  _tokenURIs[tokenId] */\n      dup2\n      mstore\n      0x20\n      add\n      swap1\n      dup2\n      mstore\n      0x20\n      add\n      0x00\n      keccak256\n        /* \"@openzeppelin/contracts@5.0.1/token/ERC721/extensions/ERC721URIStorage.sol\":1341:1386  string memory _tokenURI = _tokenURIs[tokenId] */\n      dup1\n      sload\n      tag_266\n      swap1\n      tag_117\n      jump\t// in\n    tag_266:\n      dup1\n      0x1f\n      add\n      0x20\n      dup1\n      swap2\n      div\n      mul\n      0x20\n      add\n      mload(0x40)\n      swap1\n      dup2\n      add\n      0x40\n      mstore\n      dup1\n      swap3\n      swap2\n      swap1\n      dup2\n      dup2\n      mstore\n      0x20\n      add\n      dup3\n      dup1\n      sload\n      tag_267\n      swap1\n      tag_117\n      jump\t// in\n    tag_267:\n      dup1\n      iszero\n      tag_268\n      jumpi\n      dup1\n      0x1f\n      lt\n      tag_269\n      jumpi\n      0x0100\n      dup1\n      dup4\n      sload\n      div\n      mul\n      dup4\n      mstore\n      swap2\n      0x20\n      add\n      swap2\n      jump(tag_268)\n    tag_269:\n      dup3\n      add\n      swap2\n      swap1\n      0x00\n      mstore\n      keccak256(0x00, 0x20)\n      swap1\n    tag_270:\n      dup2\n      sload\n      dup2\n      mstore\n      swap1\n      0x01\n      add\n      swap1\n      0x20\n      add\n      dup1\n      dup4\n      gt\n      tag_270\n      jumpi\n      dup3\n      swap1\n      sub\n      0x1f\n      and\n      dup3\n      add\n      swap2\n    tag_268:\n      pop\n      pop\n      pop\n      pop\n      pop\n      swap1\n      pop\n        /* \"@openzeppelin/contracts@5.0.1/token/ERC721/extensions/ERC721URIStorage.sol\":1396:1414  string memory base */\n      0x00\n        /* \"@openzeppelin/contracts@5.0.1/token/ERC721/extensions/ERC721URIStorage.sol\":1417:1427  _baseURI() */\n      tag_271\n        /* \"@openzeppelin/contracts@5.0.1/token/ERC721/extensions/ERC721URIStorage.sol\":1417:1425  _baseURI */\n      tag_272\n        /* \"@openzeppelin/contracts@5.0.1/token/ERC721/extensions/ERC721URIStorage.sol\":1417:1427  _baseURI() */\n      jump\t// in\n    tag_271:\n        /* \"@openzeppelin/contracts@5.0.1/token/ERC721/extensions/ERC721URIStorage.sol\":1396:1427  string memory base = _baseURI() */\n      swap1\n      pop\n        /* \"@openzeppelin/contracts@5.0.1/token/ERC721/extensions/ERC721URIStorage.sol\":1522:1523  0 */\n      0x00\n        /* \"@openzeppelin/contracts@5.0.1/token/ERC721/extensions/ERC721URIStorage.sol\":1506:1510  base */\n      dup2\n        /* \"@openzeppelin/contracts@5.0.1/token/ERC721/extensions/ERC721URIStorage.sol\":1500:1518  bytes(base).length */\n      mload\n        /* \"@openzeppelin/contracts@5.0.1/token/ERC721/extensions/ERC721URIStorage.sol\":1500:1523  bytes(base).length == 0 */\n      sub\n        /* \"@openzeppelin/contracts@5.0.1/token/ERC721/extensions/ERC721URIStorage.sol\":1496:1566  if (bytes(base).length == 0) {... */\n      tag_273\n      jumpi\n        /* \"@openzeppelin/contracts@5.0.1/token/ERC721/extensions/ERC721URIStorage.sol\":1546:1555  _tokenURI */\n      dup2\n        /* \"@openzeppelin/contracts@5.0.1/token/ERC721/extensions/ERC721URIStorage.sol\":1539:1555  return _tokenURI */\n      swap3\n      pop\n      pop\n      pop\n      jump(tag_264)\n        /* \"@openzeppelin/contracts@5.0.1/token/ERC721/extensions/ERC721URIStorage.sol\":1496:1566  if (bytes(base).length == 0) {... */\n    tag_273:\n        /* \"@openzeppelin/contracts@5.0.1/token/ERC721/extensions/ERC721URIStorage.sol\":1691:1692  0 */\n      0x00\n        /* \"@openzeppelin/contracts@5.0.1/token/ERC721/extensions/ERC721URIStorage.sol\":1671:1680  _tokenURI */\n      dup3\n        /* \"@openzeppelin/contracts@5.0.1/token/ERC721/extensions/ERC721URIStorage.sol\":1665:1688  bytes(_tokenURI).length */\n      mload\n        /* \"@openzeppelin/contracts@5.0.1/token/ERC721/extensions/ERC721URIStorage.sol\":1665:1692  bytes(_tokenURI).length > 0 */\n      gt\n        /* \"@openzeppelin/contracts@5.0.1/token/ERC721/extensions/ERC721URIStorage.sol\":1661:1756  if (bytes(_tokenURI).length > 0) {... */\n      iszero\n      tag_274\n      jumpi\n        /* \"@openzeppelin/contracts@5.0.1/token/ERC721/extensions/ERC721URIStorage.sol\":1729:1733  base */\n      dup1\n        /* \"@openzeppelin/contracts@5.0.1/token/ERC721/extensions/ERC721URIStorage.sol\":1735:1744  _tokenURI */\n      dup3\n        /* \"@openzeppelin/contracts@5.0.1/token/ERC721/extensions/ERC721URIStorage.sol\":1715:1745  string.concat(base, _tokenURI) */\n      add(0x20, mload(0x40))\n      tag_275\n      swap3\n      swap2\n      swap1\n      tag_276\n      jump\t// in\n    tag_275:\n      mload(0x40)\n      0x20\n      dup2\n      dup4\n      sub\n      sub\n      dup2\n      mstore\n      swap1\n      0x40\n      mstore\n        /* \"@openzeppelin/contracts@5.0.1/token/ERC721/extensions/ERC721URIStorage.sol\":1708:1745  return string.concat(base, _tokenURI) */\n      swap3\n      pop\n      pop\n      pop\n      jump(tag_264)\n        /* \"@openzeppelin/contracts@5.0.1/token/ERC721/extensions/ERC721URIStorage.sol\":1661:1756  if (bytes(_tokenURI).length > 0) {... */\n    tag_274:\n        /* \"@openzeppelin/contracts@5.0.1/token/ERC721/extensions/ERC721URIStorage.sol\":1773:1796  super.tokenURI(tokenId) */\n      tag_277\n        /* \"@openzeppelin/contracts@5.0.1/token/ERC721/extensions/ERC721URIStorage.sol\":1788:1795  tokenId */\n      dup5\n        /* \"@openzeppelin/contracts@5.0.1/token/ERC721/extensions/ERC721URIStorage.sol\":1773:1787  super.tokenURI */\n      tag_278\n        /* \"@openzeppelin/contracts@5.0.1/token/ERC721/extensions/ERC721URIStorage.sol\":1773:1796  super.tokenURI(tokenId) */\n      jump\t// in\n    tag_277:\n        /* \"@openzeppelin/contracts@5.0.1/token/ERC721/extensions/ERC721URIStorage.sol\":1766:1796  return super.tokenURI(tokenId) */\n      swap3\n      pop\n      pop\n      pop\n        /* \"@openzeppelin/contracts@5.0.1/token/ERC721/extensions/ERC721URIStorage.sol\":1210:1803  function tokenURI(uint256 tokenId) public view virtual override returns (string memory) {... */\n    tag_264:\n      swap2\n      swap1\n      pop\n      jump\t// out\n        /* \"@openzeppelin/contracts@5.0.1/token/ERC721/ERC721.sol\":10633:10733  function _safeMint(address to, uint256 tokenId) internal {... */\n    tag_198:\n        /* \"@openzeppelin/contracts@5.0.1/token/ERC721/ERC721.sol\":10700:10726  _safeMint(to, tokenId, \"\") */\n      tag_280\n        /* \"@openzeppelin/contracts@5.0.1/token/ERC721/ERC721.sol\":10710:10712  to */\n      dup3\n        /* \"@openzeppelin/contracts@5.0.1/token/ERC721/ERC721.sol\":10714:10721  tokenId */\n      dup3\n        /* \"@openzeppelin/contracts@5.0.1/token/ERC721/ERC721.sol\":10700:10726  _safeMint(to, tokenId, \"\") */\n      mload(0x40)\n      dup1\n      0x20\n      add\n      0x40\n      mstore\n      dup1\n      0x00\n      dup2\n      mstore\n      pop\n        /* \"@openzeppelin/contracts@5.0.1/token/ERC721/ERC721.sol\":10700:10709  _safeMint */\n      tag_281\n        /* \"@openzeppelin/contracts@5.0.1/token/ERC721/ERC721.sol\":10700:10726  _safeMint(to, tokenId, \"\") */\n      jump\t// in\n    tag_280:\n        /* \"@openzeppelin/contracts@5.0.1/token/ERC721/ERC721.sol\":10633:10733  function _safeMint(address to, uint256 tokenId) internal {... */\n      pop\n      pop\n      jump\t// out\n        /* \"@openzeppelin/contracts@5.0.1/token/ERC721/extensions/ERC721URIStorage.sol\":1922:2089  function _setTokenURI(uint256 tokenId, string memory _tokenURI) internal virtual {... */\n    tag_200:\n        /* \"@openzeppelin/contracts@5.0.1/token/ERC721/extensions/ERC721URIStorage.sol\":2035:2044  _tokenURI */\n      dup1\n        /* \"@openzeppelin/contracts@5.0.1/token/ERC721/extensions/ERC721URIStorage.sol\":2013:2023  _tokenURIs */\n      0x06\n        /* \"@openzeppelin/contracts@5.0.1/token/ERC721/extensions/ERC721URIStorage.sol\":2013:2032  _tokenURIs[tokenId] */\n      0x00\n        /* \"@openzeppelin/contracts@5.0.1/token/ERC721/extensions/ERC721URIStorage.sol\":2024:2031  tokenId */\n      dup5\n        /* \"@openzeppelin/contracts@5.0.1/token/ERC721/extensions/ERC721URIStorage.sol\":2013:2032  _tokenURIs[tokenId] */\n      dup2\n      mstore\n      0x20\n      add\n      swap1\n      dup2\n      mstore\n      0x20\n      add\n      0x00\n      keccak256\n        /* \"@openzeppelin/contracts@5.0.1/token/ERC721/extensions/ERC721URIStorage.sol\":2013:2044  _tokenURIs[tokenId] = _tokenURI */\n      swap1\n      dup2\n      tag_283\n      swap2\n      swap1\n      tag_202\n      jump\t// in\n    tag_283:\n      pop\n        /* \"@openzeppelin/contracts@5.0.1/token/ERC721/extensions/ERC721URIStorage.sol\":2059:2082  MetadataUpdate(tokenId) */\n      0xf8e1a15aba9398e019f0b49df1a4fde98ee17ae345cb5f6b5e2c27f5033e8ce7\n        /* \"@openzeppelin/contracts@5.0.1/token/ERC721/extensions/ERC721URIStorage.sol\":2074:2081  tokenId */\n      dup3\n        /* \"@openzeppelin/contracts@5.0.1/token/ERC721/extensions/ERC721URIStorage.sol\":2059:2082  MetadataUpdate(tokenId) */\n      mload(0x40)\n      tag_284\n      swap2\n      swap1\n      tag_67\n      jump\t// in\n    tag_284:\n      mload(0x40)\n      dup1\n      swap2\n      sub\n      swap1\n      log1\n        /* \"@openzeppelin/contracts@5.0.1/token/ERC721/extensions/ERC721URIStorage.sol\":1922:2089  function _setTokenURI(uint256 tokenId, string memory _tokenURI) internal virtual {... */\n      pop\n      pop\n      jump\t// out\n        /* \"@openzeppelin/contracts@5.0.1/token/ERC721/ERC721.sol\":1561:1861  function supportsInterface(bytes4 interfaceId) public view virtual override(ERC165, IERC165) returns (bool) {... */\n    tag_214:\n        /* \"@openzeppelin/contracts@5.0.1/token/ERC721/ERC721.sol\":1663:1667  bool */\n      0x00\n        /* \"@openzeppelin/contracts@5.0.1/token/ERC721/ERC721.sol\":1713:1738  type(IERC721).interfaceId */\n      0x80ac58cd00000000000000000000000000000000000000000000000000000000\n        /* \"@openzeppelin/contracts@5.0.1/token/ERC721/ERC721.sol\":1698:1738  interfaceId == type(IERC721).interfaceId */\n      not(0xffffffffffffffffffffffffffffffffffffffffffffffffffffffff)\n      and\n        /* \"@openzeppelin/contracts@5.0.1/token/ERC721/ERC721.sol\":1698:1709  interfaceId */\n      dup3\n        /* \"@openzeppelin/contracts@5.0.1/token/ERC721/ERC721.sol\":1698:1738  interfaceId == type(IERC721).interfaceId */\n      not(0xffffffffffffffffffffffffffffffffffffffffffffffffffffffff)\n      and\n      eq\n        /* \"@openzeppelin/contracts@5.0.1/token/ERC721/ERC721.sol\":1698:1802  interfaceId == type(IERC721).interfaceId ||... */\n      dup1\n      tag_286\n      jumpi\n      pop\n        /* \"@openzeppelin/contracts@5.0.1/token/ERC721/ERC721.sol\":1769:1802  type(IERC721Metadata).interfaceId */\n      0x5b5e139f00000000000000000000000000000000000000000000000000000000\n        /* \"@openzeppelin/contracts@5.0.1/token/ERC721/ERC721.sol\":1754:1802  interfaceId == type(IERC721Metadata).interfaceId */\n      not(0xffffffffffffffffffffffffffffffffffffffffffffffffffffffff)\n      and\n        /* \"@openzeppelin/contracts@5.0.1/token/ERC721/ERC721.sol\":1754:1765  interfaceId */\n      dup3\n        /* \"@openzeppelin/contracts@5.0.1/token/ERC721/ERC721.sol\":1754:1802  interfaceId == type(IERC721Metadata).interfaceId */\n      not(0xffffffffffffffffffffffffffffffffffffffffffffffffffffffff)\n      and\n      eq\n        /* \"@openzeppelin/contracts@5.0.1/token/ERC721/ERC721.sol\":1698:1802  interfaceId == type(IERC721).interfaceId ||... */\n    tag_286:\n        /* \"@openzeppelin/contracts@5.0.1/token/ERC721/ERC721.sol\":1698:1854  interfaceId == type(IERC721).interfaceId ||... */\n      dup1\n      tag_287\n      jumpi\n      pop\n        /* \"@openzeppelin/contracts@5.0.1/token/ERC721/ERC721.sol\":1818:1854  super.supportsInterface(interfaceId) */\n      tag_288\n        /* \"@openzeppelin/contracts@5.0.1/token/ERC721/ERC721.sol\":1842:1853  interfaceId */\n      dup3\n        /* \"@openzeppelin/contracts@5.0.1/token/ERC721/ERC721.sol\":1818:1841  super.supportsInterface */\n      tag_289\n        /* \"@openzeppelin/contracts@5.0.1/token/ERC721/ERC721.sol\":1818:1854  super.supportsInterface(interfaceId) */\n      jump\t// in\n    tag_288:\n        /* \"@openzeppelin/contracts@5.0.1/token/ERC721/ERC721.sol\":1698:1854  interfaceId == type(IERC721).interfaceId ||... */\n    tag_287:\n        /* \"@openzeppelin/contracts@5.0.1/token/ERC721/ERC721.sol\":1679:1854  return... */\n      swap1\n      pop\n        /* \"@openzeppelin/contracts@5.0.1/token/ERC721/ERC721.sol\":1561:1861  function supportsInterface(bytes4 interfaceId) public view virtual override(ERC165, IERC165) returns (bool) {... */\n      swap2\n      swap1\n      pop\n      jump\t// out\n        /* \"@openzeppelin/contracts@5.0.1/token/ERC721/ERC721.sol\":5707:5822  function _ownerOf(uint256 tokenId) internal view virtual returns (address) {... */\n    tag_217:\n        /* \"@openzeppelin/contracts@5.0.1/token/ERC721/ERC721.sol\":5773:5780  address */\n      0x00\n        /* \"@openzeppelin/contracts@5.0.1/token/ERC721/ERC721.sol\":5799:5806  _owners */\n      0x02\n        /* \"@openzeppelin/contracts@5.0.1/token/ERC721/ERC721.sol\":5799:5815  _owners[tokenId] */\n      0x00\n        /* \"@openzeppelin/contracts@5.0.1/token/ERC721/ERC721.sol\":5807:5814  tokenId */\n      dup4\n        /* \"@openzeppelin/contracts@5.0.1/token/ERC721/ERC721.sol\":5799:5815  _owners[tokenId] */\n      dup2\n      mstore\n      0x20\n      add\n      swap1\n      dup2\n      mstore\n      0x20\n      add\n      0x00\n      keccak256\n      0x00\n      swap1\n      sload\n      swap1\n      0x0100\n      exp\n      swap1\n      div\n      0xffffffffffffffffffffffffffffffffffffffff\n      and\n        /* \"@openzeppelin/contracts@5.0.1/token/ERC721/ERC721.sol\":5792:5815  return _owners[tokenId] */\n      swap1\n      pop\n        /* \"@openzeppelin/contracts@5.0.1/token/ERC721/ERC721.sol\":5707:5822  function _ownerOf(uint256 tokenId) internal view virtual returns (address) {... */\n      swap2\n      swap1\n      pop\n      jump\t// out\n        /* \"@openzeppelin/contracts@5.0.1/token/ERC721/ERC721.sol\":14720:15382  function _approve(address to, uint256 tokenId, address auth, bool emitEvent) internal virtual {... */\n    tag_224:\n        /* \"@openzeppelin/contracts@5.0.1/token/ERC721/ERC721.sol\":14880:14889  emitEvent */\n      dup1\n        /* \"@openzeppelin/contracts@5.0.1/token/ERC721/ERC721.sol\":14880:14911  emitEvent || auth != address(0) */\n      dup1\n      tag_292\n      jumpi\n      pop\n        /* \"@openzeppelin/contracts@5.0.1/token/ERC721/ERC721.sol\":14909:14910  0 */\n      0x00\n        /* \"@openzeppelin/contracts@5.0.1/token/ERC721/ERC721.sol\":14893:14911  auth != address(0) */\n      0xffffffffffffffffffffffffffffffffffffffff\n      and\n        /* \"@openzeppelin/contracts@5.0.1/token/ERC721/ERC721.sol\":14893:14897  auth */\n      dup3\n        /* \"@openzeppelin/contracts@5.0.1/token/ERC721/ERC721.sol\":14893:14911  auth != address(0) */\n      0xffffffffffffffffffffffffffffffffffffffff\n      and\n      eq\n      iszero\n        /* \"@openzeppelin/contracts@5.0.1/token/ERC721/ERC721.sol\":14880:14911  emitEvent || auth != address(0) */\n    tag_292:\n        /* \"@openzeppelin/contracts@5.0.1/token/ERC721/ERC721.sol\":14876:15336  if (emitEvent || auth != address(0)) {... */\n      iszero\n      tag_293\n      jumpi\n        /* \"@openzeppelin/contracts@5.0.1/token/ERC721/ERC721.sol\":14927:14940  address owner */\n      0x00\n        /* \"@openzeppelin/contracts@5.0.1/token/ERC721/ERC721.sol\":14943:14965  _requireOwned(tokenId) */\n      tag_294\n        /* \"@openzeppelin/contracts@5.0.1/token/ERC721/ERC721.sol\":14957:14964  tokenId */\n      dup5\n        /* \"@openzeppelin/contracts@5.0.1/token/ERC721/ERC721.sol\":14943:14956  _requireOwned */\n      tag_124\n        /* \"@openzeppelin/contracts@5.0.1/token/ERC721/ERC721.sol\":14943:14965  _requireOwned(tokenId) */\n      jump\t// in\n    tag_294:\n        /* \"@openzeppelin/contracts@5.0.1/token/ERC721/ERC721.sol\":14927:14965  address owner = _requireOwned(tokenId) */\n      swap1\n      pop\n        /* \"@openzeppelin/contracts@5.0.1/token/ERC721/ERC721.sol\":15109:15110  0 */\n      0x00\n        /* \"@openzeppelin/contracts@5.0.1/token/ERC721/ERC721.sol\":15093:15111  auth != address(0) */\n      0xffffffffffffffffffffffffffffffffffffffff\n      and\n        /* \"@openzeppelin/contracts@5.0.1/token/ERC721/ERC721.sol\":15093:15097  auth */\n      dup4\n        /* \"@openzeppelin/contracts@5.0.1/token/ERC721/ERC721.sol\":15093:15111  auth != address(0) */\n      0xffffffffffffffffffffffffffffffffffffffff\n      and\n      eq\n      iszero\n        /* \"@openzeppelin/contracts@5.0.1/token/ERC721/ERC721.sol\":15093:15128  auth != address(0) && owner != auth */\n      dup1\n      iszero\n      tag_295\n      jumpi\n      pop\n        /* \"@openzeppelin/contracts@5.0.1/token/ERC721/ERC721.sol\":15124:15128  auth */\n      dup3\n        /* \"@openzeppelin/contracts@5.0.1/token/ERC721/ERC721.sol\":15115:15128  owner != auth */\n      0xffffffffffffffffffffffffffffffffffffffff\n      and\n        /* \"@openzeppelin/contracts@5.0.1/token/ERC721/ERC721.sol\":15115:15120  owner */\n      dup2\n        /* \"@openzeppelin/contracts@5.0.1/token/ERC721/ERC721.sol\":15115:15128  owner != auth */\n      0xffffffffffffffffffffffffffffffffffffffff\n      and\n      eq\n      iszero\n        /* \"@openzeppelin/contracts@5.0.1/token/ERC721/ERC721.sol\":15093:15128  auth != address(0) && owner != auth */\n    tag_295:\n        /* \"@openzeppelin/contracts@5.0.1/token/ERC721/ERC721.sol\":15093:15162  auth != address(0) && owner != auth && !isApprovedForAll(owner, auth) */\n      dup1\n      iszero\n      tag_296\n      jumpi\n      pop\n        /* \"@openzeppelin/contracts@5.0.1/token/ERC721/ERC721.sol\":15133:15162  isApprovedForAll(owner, auth) */\n      tag_297\n        /* \"@openzeppelin/contracts@5.0.1/token/ERC721/ERC721.sol\":15150:15155  owner */\n      dup2\n        /* \"@openzeppelin/contracts@5.0.1/token/ERC721/ERC721.sol\":15157:15161  auth */\n      dup5\n        /* \"@openzeppelin/contracts@5.0.1/token/ERC721/ERC721.sol\":15133:15149  isApprovedForAll */\n      tag_103\n        /* \"@openzeppelin/contracts@5.0.1/token/ERC721/ERC721.sol\":15133:15162  isApprovedForAll(owner, auth) */\n      jump\t// in\n    tag_297:\n        /* \"@openzeppelin/contracts@5.0.1/token/ERC721/ERC721.sol\":15132:15162  !isApprovedForAll(owner, auth) */\n      iszero\n        /* \"@openzeppelin/contracts@5.0.1/token/ERC721/ERC721.sol\":15093:15162  auth != address(0) && owner != auth && !isApprovedForAll(owner, auth) */\n    tag_296:\n        /* \"@openzeppelin/contracts@5.0.1/token/ERC721/ERC721.sol\":15089:15231  if (auth != address(0) && owner != auth && !isApprovedForAll(owner, auth)) {... */\n      iszero\n      tag_298\n      jumpi\n        /* \"@openzeppelin/contracts@5.0.1/token/ERC721/ERC721.sol\":15211:15215  auth */\n      dup3\n        /* \"@openzeppelin/contracts@5.0.1/token/ERC721/ERC721.sol\":15189:15216  ERC721InvalidApprover(auth) */\n      mload(0x40)\n      0xa9fbf51f00000000000000000000000000000000000000000000000000000000\n      dup2\n      mstore\n      0x04\n      add\n      tag_299\n      swap2\n      swap1\n      tag_42\n      jump\t// in\n    tag_299:\n      mload(0x40)\n      dup1\n      swap2\n      sub\n      swap1\n      revert\n        /* \"@openzeppelin/contracts@5.0.1/token/ERC721/ERC721.sol\":15089:15231  if (auth != address(0) && owner != auth && !isApprovedForAll(owner, auth)) {... */\n    tag_298:\n        /* \"@openzeppelin/contracts@5.0.1/token/ERC721/ERC721.sol\":15249:15258  emitEvent */\n      dup2\n        /* \"@openzeppelin/contracts@5.0.1/token/ERC721/ERC721.sol\":15245:15326  if (emitEvent) {... */\n      iszero\n      tag_300\n      jumpi\n        /* \"@openzeppelin/contracts@5.0.1/token/ERC721/ERC721.sol\":15303:15310  tokenId */\n      dup4\n        /* \"@openzeppelin/contracts@5.0.1/token/ERC721/ERC721.sol\":15299:15301  to */\n      dup6\n        /* \"@openzeppelin/contracts@5.0.1/token/ERC721/ERC721.sol\":15283:15311  Approval(owner, to, tokenId) */\n      0xffffffffffffffffffffffffffffffffffffffff\n      and\n        /* \"@openzeppelin/contracts@5.0.1/token/ERC721/ERC721.sol\":15292:15297  owner */\n      dup3\n        /* \"@openzeppelin/contracts@5.0.1/token/ERC721/ERC721.sol\":15283:15311  Approval(owner, to, tokenId) */\n      0xffffffffffffffffffffffffffffffffffffffff\n      and\n      0x8c5be1e5ebec7d5bd14f71427d1e84f3dd0314c0f7b2291e5b200ac8c7c3b925\n      mload(0x40)\n      mload(0x40)\n      dup1\n      swap2\n      sub\n      swap1\n      log4\n        /* \"@openzeppelin/contracts@5.0.1/token/ERC721/ERC721.sol\":15245:15326  if (emitEvent) {... */\n    tag_300:\n        /* \"@openzeppelin/contracts@5.0.1/token/ERC721/ERC721.sol\":14913:15336  {... */\n      pop\n        /* \"@openzeppelin/contracts@5.0.1/token/ERC721/ERC721.sol\":14876:15336  if (emitEvent || auth != address(0)) {... */\n    tag_293:\n        /* \"@openzeppelin/contracts@5.0.1/token/ERC721/ERC721.sol\":15373:15375  to */\n      dup4\n        /* \"@openzeppelin/contracts@5.0.1/token/ERC721/ERC721.sol\":15346:15361  _tokenApprovals */\n      0x04\n        /* \"@openzeppelin/contracts@5.0.1/token/ERC721/ERC721.sol\":15346:15370  _tokenApprovals[tokenId] */\n      0x00\n        /* \"@openzeppelin/contracts@5.0.1/token/ERC721/ERC721.sol\":15362:15369  tokenId */\n      dup6\n        /* \"@openzeppelin/contracts@5.0.1/token/ERC721/ERC721.sol\":15346:15370  _tokenApprovals[tokenId] */\n      dup2\n      mstore\n      0x20\n      add\n      swap1\n      dup2\n      mstore\n      0x20\n      add\n      0x00\n      keccak256\n      0x00\n        /* \"@openzeppelin/contracts@5.0.1/token/ERC721/ERC721.sol\":15346:15375  _tokenApprovals[tokenId] = to */\n      0x0100\n      exp\n      dup2\n      sload\n      dup2\n      0xffffffffffffffffffffffffffffffffffffffff\n      mul\n      not\n      and\n      swap1\n      dup4\n      0xffffffffffffffffffffffffffffffffffffffff\n      and\n      mul\n      or\n      swap1\n      sstore\n      pop\n        /* \"@openzeppelin/contracts@5.0.1/token/ERC721/ERC721.sol\":14720:15382  function _approve(address to, uint256 tokenId, address auth, bool emitEvent) internal virtual {... */\n      pop\n      pop\n      pop\n      pop\n      jump\t// out\n        /* \"@openzeppelin/contracts@5.0.1/token/ERC721/ERC721.sol\":7082:7450  function _checkAuthorized(address owner, address spender, uint256 tokenId) internal view virtual {... */\n    tag_229:\n        /* \"@openzeppelin/contracts@5.0.1/token/ERC721/ERC721.sol\":7194:7232  _isAuthorized(owner, spender, tokenId) */\n      tag_302\n        /* \"@openzeppelin/contracts@5.0.1/token/ERC721/ERC721.sol\":7208:7213  owner */\n      dup4\n        /* \"@openzeppelin/contracts@5.0.1/token/ERC721/ERC721.sol\":7215:7222  spender */\n      dup4\n        /* \"@openzeppelin/contracts@5.0.1/token/ERC721/ERC721.sol\":7224:7231  tokenId */\n      dup4\n        /* \"@openzeppelin/contracts@5.0.1/token/ERC721/ERC721.sol\":7194:7207  _isAuthorized */\n      tag_303\n        /* \"@openzeppelin/contracts@5.0.1/token/ERC721/ERC721.sol\":7194:7232  _isAuthorized(owner, spender, tokenId) */\n      jump\t// in\n    tag_302:\n        /* \"@openzeppelin/contracts@5.0.1/token/ERC721/ERC721.sol\":7189:7444  if (!_isAuthorized(owner, spender, tokenId)) {... */\n      tag_304\n      jumpi\n        /* \"@openzeppelin/contracts@5.0.1/token/ERC721/ERC721.sol\":7269:7270  0 */\n      0x00\n        /* \"@openzeppelin/contracts@5.0.1/token/ERC721/ERC721.sol\":7252:7271  owner == address(0) */\n      0xffffffffffffffffffffffffffffffffffffffff\n      and\n        /* \"@openzeppelin/contracts@5.0.1/token/ERC721/ERC721.sol\":7252:7257  owner */\n      dup4\n        /* \"@openzeppelin/contracts@5.0.1/token/ERC721/ERC721.sol\":7252:7271  owner == address(0) */\n      0xffffffffffffffffffffffffffffffffffffffff\n      and\n      sub\n        /* \"@openzeppelin/contracts@5.0.1/token/ERC721/ERC721.sol\":7248:7434  if (owner == address(0)) {... */\n      tag_305\n      jumpi\n        /* \"@openzeppelin/contracts@5.0.1/token/ERC721/ERC721.sol\":7321:7328  tokenId */\n      dup1\n        /* \"@openzeppelin/contracts@5.0.1/token/ERC721/ERC721.sol\":7298:7329  ERC721NonexistentToken(tokenId) */\n      mload(0x40)\n      0x7e27328900000000000000000000000000000000000000000000000000000000\n      dup2\n      mstore\n      0x04\n      add\n      tag_306\n      swap2\n      swap1\n      tag_67\n      jump\t// in\n    tag_306:\n      mload(0x40)\n      dup1\n      swap2\n      sub\n      swap1\n      revert\n        /* \"@openzeppelin/contracts@5.0.1/token/ERC721/ERC721.sol\":7248:7434  if (owner == address(0)) {... */\n    tag_305:\n        /* \"@openzeppelin/contracts@5.0.1/token/ERC721/ERC721.sol\":7402:7409  spender */\n      dup2\n        /* \"@openzeppelin/contracts@5.0.1/token/ERC721/ERC721.sol\":7411:7418  tokenId */\n      dup2\n        /* \"@openzeppelin/contracts@5.0.1/token/ERC721/ERC721.sol\":7375:7419  ERC721InsufficientApproval(spender, tokenId) */\n      mload(0x40)\n      0x177e802f00000000000000000000000000000000000000000000000000000000\n      dup2\n      mstore\n      0x04\n      add\n      tag_308\n      swap3\n      swap2\n      swap1\n      tag_309\n      jump\t// in\n    tag_308:\n      mload(0x40)\n      dup1\n      swap2\n      sub\n      swap1\n      revert\n        /* \"@openzeppelin/contracts@5.0.1/token/ERC721/ERC721.sol\":7189:7444  if (!_isAuthorized(owner, spender, tokenId)) {... */\n    tag_304:\n        /* \"@openzeppelin/contracts@5.0.1/token/ERC721/ERC721.sol\":7082:7450  function _checkAuthorized(address owner, address spender, uint256 tokenId) internal view virtual {... */\n      pop\n      pop\n      pop\n      jump\t// out\n        /* \"@openzeppelin/contracts@5.0.1/token/ERC721/ERC721.sol\":3174:3266  function _baseURI() internal view virtual returns (string memory) {... */\n    tag_272:\n        /* \"@openzeppelin/contracts@5.0.1/token/ERC721/ERC721.sol\":3225:3238  string memory */\n      0x60\n        /* \"@openzeppelin/contracts@5.0.1/token/ERC721/ERC721.sol\":3250:3259  return \"\" */\n      mload(0x40)\n      dup1\n      0x20\n      add\n      0x40\n      mstore\n      dup1\n      0x00\n      dup2\n      mstore\n      pop\n      swap1\n      pop\n        /* \"@openzeppelin/contracts@5.0.1/token/ERC721/ERC721.sol\":3174:3266  function _baseURI() internal view virtual returns (string memory) {... */\n      swap1\n      jump\t// out\n        /* \"@openzeppelin/contracts@5.0.1/token/ERC721/ERC721.sol\":2677:2932  function tokenURI(uint256 tokenId) public view virtual returns (string memory) {... */\n    tag_278:\n        /* \"@openzeppelin/contracts@5.0.1/token/ERC721/ERC721.sol\":2741:2754  string memory */\n      0x60\n        /* \"@openzeppelin/contracts@5.0.1/token/ERC721/ERC721.sol\":2766:2788  _requireOwned(tokenId) */\n      tag_312\n        /* \"@openzeppelin/contracts@5.0.1/token/ERC721/ERC721.sol\":2780:2787  tokenId */\n      dup3\n        /* \"@openzeppelin/contracts@5.0.1/token/ERC721/ERC721.sol\":2766:2779  _requireOwned */\n      tag_124\n        /* \"@openzeppelin/contracts@5.0.1/token/ERC721/ERC721.sol\":2766:2788  _requireOwned(tokenId) */\n      jump\t// in\n    tag_312:\n      pop\n        /* \"@openzeppelin/contracts@5.0.1/token/ERC721/ERC721.sol\":2799:2820  string memory baseURI */\n      0x00\n        /* \"@openzeppelin/contracts@5.0.1/token/ERC721/ERC721.sol\":2823:2833  _baseURI() */\n      tag_313\n        /* \"@openzeppelin/contracts@5.0.1/token/ERC721/ERC721.sol\":2823:2831  _baseURI */\n      tag_272\n        /* \"@openzeppelin/contracts@5.0.1/token/ERC721/ERC721.sol\":2823:2833  _baseURI() */\n      jump\t// in\n    tag_313:\n        /* \"@openzeppelin/contracts@5.0.1/token/ERC721/ERC721.sol\":2799:2833  string memory baseURI = _baseURI() */\n      swap1\n      pop\n        /* \"@openzeppelin/contracts@5.0.1/token/ERC721/ERC721.sol\":2874:2875  0 */\n      0x00\n        /* \"@openzeppelin/contracts@5.0.1/token/ERC721/ERC721.sol\":2856:2863  baseURI */\n      dup2\n        /* \"@openzeppelin/contracts@5.0.1/token/ERC721/ERC721.sol\":2850:2871  bytes(baseURI).length */\n      mload\n        /* \"@openzeppelin/contracts@5.0.1/token/ERC721/ERC721.sol\":2850:2875  bytes(baseURI).length > 0 */\n      gt\n        /* \"@openzeppelin/contracts@5.0.1/token/ERC721/ERC721.sol\":2850:2925  bytes(baseURI).length > 0 ? string.concat(baseURI, tokenId.toString()) : \"\" */\n      tag_314\n      jumpi\n      mload(0x40)\n      dup1\n      0x20\n      add\n      0x40\n      mstore\n      dup1\n      0x00\n      dup2\n      mstore\n      pop\n      jump(tag_315)\n    tag_314:\n        /* \"@openzeppelin/contracts@5.0.1/token/ERC721/ERC721.sol\":2892:2899  baseURI */\n      dup1\n        /* \"@openzeppelin/contracts@5.0.1/token/ERC721/ERC721.sol\":2901:2919  tokenId.toString() */\n      tag_316\n        /* \"@openzeppelin/contracts@5.0.1/token/ERC721/ERC721.sol\":2901:2908  tokenId */\n      dup5\n        /* \"@openzeppelin/contracts@5.0.1/token/ERC721/ERC721.sol\":2901:2917  tokenId.toString */\n      tag_317\n        /* \"@openzeppelin/contracts@5.0.1/token/ERC721/ERC721.sol\":2901:2919  tokenId.toString() */\n      jump\t// in\n    tag_316:\n        /* \"@openzeppelin/contracts@5.0.1/token/ERC721/ERC721.sol\":2878:2920  string.concat(baseURI, tokenId.toString()) */\n      add(0x20, mload(0x40))\n      tag_318\n      swap3\n      swap2\n      swap1\n      tag_276\n      jump\t// in\n    tag_318:\n      mload(0x40)\n      0x20\n      dup2\n      dup4\n      sub\n      sub\n      dup2\n      mstore\n      swap1\n      0x40\n      mstore\n        /* \"@openzeppelin/contracts@5.0.1/token/ERC721/ERC721.sol\":2850:2925  bytes(baseURI).length > 0 ? string.concat(baseURI, tokenId.toString()) : \"\" */\n    tag_315:\n        /* \"@openzeppelin/contracts@5.0.1/token/ERC721/ERC721.sol\":2843:2925  return bytes(baseURI).length > 0 ? string.concat(baseURI, tokenId.toString()) : \"\" */\n      swap2\n      pop\n      pop\n        /* \"@openzeppelin/contracts@5.0.1/token/ERC721/ERC721.sol\":2677:2932  function tokenURI(uint256 tokenId) public view virtual returns (string memory) {... */\n      swap2\n      swap1\n      pop\n      jump\t// out\n        /* \"@openzeppelin/contracts@5.0.1/token/ERC721/ERC721.sol\":10954:11136  function _safeMint(address to, uint256 tokenId, bytes memory data) internal virtual {... */\n    tag_281:\n        /* \"@openzeppelin/contracts@5.0.1/token/ERC721/ERC721.sol\":11048:11066  _mint(to, tokenId) */\n      tag_320\n        /* \"@openzeppelin/contracts@5.0.1/token/ERC721/ERC721.sol\":11054:11056  to */\n      dup4\n        /* \"@openzeppelin/contracts@5.0.1/token/ERC721/ERC721.sol\":11058:11065  tokenId */\n      dup4\n        /* \"@openzeppelin/contracts@5.0.1/token/ERC721/ERC721.sol\":11048:11053  _mint */\n      tag_321\n        /* \"@openzeppelin/contracts@5.0.1/token/ERC721/ERC721.sol\":11048:11066  _mint(to, tokenId) */\n      jump\t// in\n    tag_320:\n        /* \"@openzeppelin/contracts@5.0.1/token/ERC721/ERC721.sol\":11076:11129  _checkOnERC721Received(address(0), to, tokenId, data) */\n      tag_322\n        /* \"@openzeppelin/contracts@5.0.1/token/ERC721/ERC721.sol\":11107:11108  0 */\n      0x00\n        /* \"@openzeppelin/contracts@5.0.1/token/ERC721/ERC721.sol\":11111:11113  to */\n      dup5\n        /* \"@openzeppelin/contracts@5.0.1/token/ERC721/ERC721.sol\":11115:11122  tokenId */\n      dup5\n        /* \"@openzeppelin/contracts@5.0.1/token/ERC721/ERC721.sol\":11124:11128  data */\n      dup5\n        /* \"@openzeppelin/contracts@5.0.1/token/ERC721/ERC721.sol\":11076:11098  _checkOnERC721Received */\n      tag_190\n        /* \"@openzeppelin/contracts@5.0.1/token/ERC721/ERC721.sol\":11076:11129  _checkOnERC721Received(address(0), to, tokenId, data) */\n      jump\t// in\n    tag_322:\n        /* \"@openzeppelin/contracts@5.0.1/token/ERC721/ERC721.sol\":10954:11136  function _safeMint(address to, uint256 tokenId, bytes memory data) internal virtual {... */\n      pop\n      pop\n      pop\n      jump\t// out\n        /* \"@openzeppelin/contracts@5.0.1/utils/introspection/ERC165.sol\":762:908  function supportsInterface(bytes4 interfaceId) public view virtual returns (bool) {... */\n    tag_289:\n        /* \"@openzeppelin/contracts@5.0.1/utils/introspection/ERC165.sol\":838:842  bool */\n      0x00\n        /* \"@openzeppelin/contracts@5.0.1/utils/introspection/ERC165.sol\":876:901  type(IERC165).interfaceId */\n      0x01ffc9a700000000000000000000000000000000000000000000000000000000\n        /* \"@openzeppelin/contracts@5.0.1/utils/introspection/ERC165.sol\":861:901  interfaceId == type(IERC165).interfaceId */\n      not(0xffffffffffffffffffffffffffffffffffffffffffffffffffffffff)\n      and\n        /* \"@openzeppelin/contracts@5.0.1/utils/introspection/ERC165.sol\":861:872  interfaceId */\n      dup3\n        /* \"@openzeppelin/contracts@5.0.1/utils/introspection/ERC165.sol\":861:901  interfaceId == type(IERC165).interfaceId */\n      not(0xffffffffffffffffffffffffffffffffffffffffffffffffffffffff)\n      and\n      eq\n        /* \"@openzeppelin/contracts@5.0.1/utils/introspection/ERC165.sol\":854:901  return interfaceId == type(IERC165).interfaceId */\n      swap1\n      pop\n        /* \"@openzeppelin/contracts@5.0.1/utils/introspection/ERC165.sol\":762:908  function supportsInterface(bytes4 interfaceId) public view virtual returns (bool) {... */\n      swap2\n      swap1\n      pop\n      jump\t// out\n        /* \"@openzeppelin/contracts@5.0.1/token/ERC721/ERC721.sol\":6376:6648  function _isAuthorized(address owner, address spender, uint256 tokenId) internal view virtual returns (bool) {... */\n    tag_303:\n        /* \"@openzeppelin/contracts@5.0.1/token/ERC721/ERC721.sol\":6479:6483  bool */\n      0x00\n        /* \"@openzeppelin/contracts@5.0.1/token/ERC721/ERC721.sol\":6533:6534  0 */\n      dup1\n        /* \"@openzeppelin/contracts@5.0.1/token/ERC721/ERC721.sol\":6514:6535  spender != address(0) */\n      0xffffffffffffffffffffffffffffffffffffffff\n      and\n        /* \"@openzeppelin/contracts@5.0.1/token/ERC721/ERC721.sol\":6514:6521  spender */\n      dup4\n        /* \"@openzeppelin/contracts@5.0.1/token/ERC721/ERC721.sol\":6514:6535  spender != address(0) */\n      0xffffffffffffffffffffffffffffffffffffffff\n      and\n      eq\n      iszero\n        /* \"@openzeppelin/contracts@5.0.1/token/ERC721/ERC721.sol\":6514:6641  spender != address(0) &&... */\n      dup1\n      iszero\n      tag_325\n      jumpi\n      pop\n        /* \"@openzeppelin/contracts@5.0.1/token/ERC721/ERC721.sol\":6561:6568  spender */\n      dup3\n        /* \"@openzeppelin/contracts@5.0.1/token/ERC721/ERC721.sol\":6552:6568  owner == spender */\n      0xffffffffffffffffffffffffffffffffffffffff\n      and\n        /* \"@openzeppelin/contracts@5.0.1/token/ERC721/ERC721.sol\":6552:6557  owner */\n      dup5\n        /* \"@openzeppelin/contracts@5.0.1/token/ERC721/ERC721.sol\":6552:6568  owner == spender */\n      0xffffffffffffffffffffffffffffffffffffffff\n      and\n      eq\n        /* \"@openzeppelin/contracts@5.0.1/token/ERC721/ERC721.sol\":6552:6604  owner == spender || isApprovedForAll(owner, spender) */\n      dup1\n      tag_326\n      jumpi\n      pop\n        /* \"@openzeppelin/contracts@5.0.1/token/ERC721/ERC721.sol\":6572:6604  isApprovedForAll(owner, spender) */\n      tag_327\n        /* \"@openzeppelin/contracts@5.0.1/token/ERC721/ERC721.sol\":6589:6594  owner */\n      dup5\n        /* \"@openzeppelin/contracts@5.0.1/token/ERC721/ERC721.sol\":6596:6603  spender */\n      dup5\n        /* \"@openzeppelin/contracts@5.0.1/token/ERC721/ERC721.sol\":6572:6588  isApprovedForAll */\n      tag_103\n        /* \"@openzeppelin/contracts@5.0.1/token/ERC721/ERC721.sol\":6572:6604  isApprovedForAll(owner, spender) */\n      jump\t// in\n    tag_327:\n        /* \"@openzeppelin/contracts@5.0.1/token/ERC721/ERC721.sol\":6552:6604  owner == spender || isApprovedForAll(owner, spender) */\n    tag_326:\n        /* \"@openzeppelin/contracts@5.0.1/token/ERC721/ERC721.sol\":6552:6640  owner == spender || isApprovedForAll(owner, spender) || _getApproved(tokenId) == spender */\n      dup1\n      tag_328\n      jumpi\n      pop\n        /* \"@openzeppelin/contracts@5.0.1/token/ERC721/ERC721.sol\":6633:6640  spender */\n      dup3\n        /* \"@openzeppelin/contracts@5.0.1/token/ERC721/ERC721.sol\":6608:6640  _getApproved(tokenId) == spender */\n      0xffffffffffffffffffffffffffffffffffffffff\n      and\n        /* \"@openzeppelin/contracts@5.0.1/token/ERC721/ERC721.sol\":6608:6629  _getApproved(tokenId) */\n      tag_329\n        /* \"@openzeppelin/contracts@5.0.1/token/ERC721/ERC721.sol\":6621:6628  tokenId */\n      dup4\n        /* \"@openzeppelin/contracts@5.0.1/token/ERC721/ERC721.sol\":6608:6620  _getApproved */\n      tag_126\n        /* \"@openzeppelin/contracts@5.0.1/token/ERC721/ERC721.sol\":6608:6629  _getApproved(tokenId) */\n      jump\t// in\n    tag_329:\n        /* \"@openzeppelin/contracts@5.0.1/token/ERC721/ERC721.sol\":6608:6640  _getApproved(tokenId) == spender */\n      0xffffffffffffffffffffffffffffffffffffffff\n      and\n      eq\n        /* \"@openzeppelin/contracts@5.0.1/token/ERC721/ERC721.sol\":6552:6640  owner == spender || isApprovedForAll(owner, spender) || _getApproved(tokenId) == spender */\n    tag_328:\n        /* \"@openzeppelin/contracts@5.0.1/token/ERC721/ERC721.sol\":6514:6641  spender != address(0) &&... */\n    tag_325:\n        /* \"@openzeppelin/contracts@5.0.1/token/ERC721/ERC721.sol\":6495:6641  return... */\n      swap1\n      pop\n        /* \"@openzeppelin/contracts@5.0.1/token/ERC721/ERC721.sol\":6376:6648  function _isAuthorized(address owner, address spender, uint256 tokenId) internal view virtual returns (bool) {... */\n      swap4\n      swap3\n      pop\n      pop\n      pop\n      jump\t// out\n        /* \"@openzeppelin/contracts@5.0.1/utils/Strings.sol\":637:1335  function toString(uint256 value) internal pure returns (string memory) {... */\n    tag_317:\n        /* \"@openzeppelin/contracts@5.0.1/utils/Strings.sol\":693:706  string memory */\n      0x60\n        /* \"@openzeppelin/contracts@5.0.1/utils/Strings.sol\":742:756  uint256 length */\n      0x00\n        /* \"@openzeppelin/contracts@5.0.1/utils/Strings.sol\":779:780  1 */\n      0x01\n        /* \"@openzeppelin/contracts@5.0.1/utils/Strings.sol\":759:776  Math.log10(value) */\n      tag_331\n        /* \"@openzeppelin/contracts@5.0.1/utils/Strings.sol\":770:775  value */\n      dup5\n        /* \"@openzeppelin/contracts@5.0.1/utils/Strings.sol\":759:769  Math.log10 */\n      tag_332\n        /* \"@openzeppelin/contracts@5.0.1/utils/Strings.sol\":759:776  Math.log10(value) */\n      jump\t// in\n    tag_331:\n        /* \"@openzeppelin/contracts@5.0.1/utils/Strings.sol\":759:780  Math.log10(value) + 1 */\n      add\n        /* \"@openzeppelin/contracts@5.0.1/utils/Strings.sol\":742:780  uint256 length = Math.log10(value) + 1 */\n      swap1\n      pop\n        /* \"@openzeppelin/contracts@5.0.1/utils/Strings.sol\":794:814  string memory buffer */\n      0x00\n        /* \"@openzeppelin/contracts@5.0.1/utils/Strings.sol\":828:834  length */\n      dup2\n        /* \"@openzeppelin/contracts@5.0.1/utils/Strings.sol\":817:835  new string(length) */\n      0xffffffffffffffff\n      dup2\n      gt\n      iszero\n      tag_333\n      jumpi\n      tag_334\n      tag_130\n      jump\t// in\n    tag_334:\n    tag_333:\n      mload(0x40)\n      swap1\n      dup1\n      dup3\n      mstore\n      dup1\n      0x1f\n      add\n      not(0x1f)\n      and\n      0x20\n      add\n      dup3\n      add\n      0x40\n      mstore\n      dup1\n      iszero\n      tag_335\n      jumpi\n      dup2\n      0x20\n      add\n      0x01\n      dup3\n      mul\n      dup1\n      calldatasize\n      dup4\n      calldatacopy\n      dup1\n      dup3\n      add\n      swap2\n      pop\n      pop\n      swap1\n      pop\n    tag_335:\n      pop\n        /* \"@openzeppelin/contracts@5.0.1/utils/Strings.sol\":794:835  string memory buffer = new string(length) */\n      swap1\n      pop\n        /* \"@openzeppelin/contracts@5.0.1/utils/Strings.sol\":849:860  uint256 ptr */\n      0x00\n        /* \"@openzeppelin/contracts@5.0.1/utils/Strings.sol\":975:981  length */\n      dup3\n        /* \"@openzeppelin/contracts@5.0.1/utils/Strings.sol\":971:973  32 */\n      0x20\n        /* \"@openzeppelin/contracts@5.0.1/utils/Strings.sol\":967:982  add(32, length) */\n      add\n        /* \"@openzeppelin/contracts@5.0.1/utils/Strings.sol\":959:965  buffer */\n      dup3\n        /* \"@openzeppelin/contracts@5.0.1/utils/Strings.sol\":955:983  add(buffer, add(32, length)) */\n      add\n        /* \"@openzeppelin/contracts@5.0.1/utils/Strings.sol\":948:983  ptr := add(buffer, add(32, length)) */\n      swap1\n      pop\n        /* \"@openzeppelin/contracts@5.0.1/utils/Strings.sol\":1010:1292  while (true) {... */\n    tag_336:\n        /* \"@openzeppelin/contracts@5.0.1/utils/Strings.sol\":1017:1021  true */\n      0x01\n        /* \"@openzeppelin/contracts@5.0.1/utils/Strings.sol\":1010:1292  while (true) {... */\n      iszero\n      tag_337\n      jumpi\n        /* \"@openzeppelin/contracts@5.0.1/utils/Strings.sol\":1041:1046  ptr-- */\n      dup1\n      dup1\n      0x01\n      swap1\n      sub\n      swap2\n      pop\n      pop\n        /* \"@openzeppelin/contracts@5.0.1/utils/Strings.sol\":1180:1190  HEX_DIGITS */\n      0x3031323334353637383961626364656600000000000000000000000000000000\n        /* \"@openzeppelin/contracts@5.0.1/utils/Strings.sol\":1175:1177  10 */\n      0x0a\n        /* \"@openzeppelin/contracts@5.0.1/utils/Strings.sol\":1168:1173  value */\n      dup7\n        /* \"@openzeppelin/contracts@5.0.1/utils/Strings.sol\":1164:1178  mod(value, 10) */\n      mod\n        /* \"@openzeppelin/contracts@5.0.1/utils/Strings.sol\":1159:1191  byte(mod(value, 10), HEX_DIGITS) */\n      byte\n        /* \"@openzeppelin/contracts@5.0.1/utils/Strings.sol\":1154:1157  ptr */\n      dup2\n        /* \"@openzeppelin/contracts@5.0.1/utils/Strings.sol\":1146:1192  mstore8(ptr, byte(mod(value, 10), HEX_DIGITS)) */\n      mstore8\n        /* \"@openzeppelin/contracts@5.0.1/utils/Strings.sol\":1236:1238  10 */\n      0x0a\n        /* \"@openzeppelin/contracts@5.0.1/utils/Strings.sol\":1227:1238  value /= 10 */\n      dup6\n      dup2\n      tag_338\n      jumpi\n      tag_339\n      tag_340\n      jump\t// in\n    tag_339:\n    tag_338:\n      div\n      swap5\n      pop\n        /* \"@openzeppelin/contracts@5.0.1/utils/Strings.sol\":1269:1270  0 */\n      0x00\n        /* \"@openzeppelin/contracts@5.0.1/utils/Strings.sol\":1260:1265  value */\n      dup6\n        /* \"@openzeppelin/contracts@5.0.1/utils/Strings.sol\":1260:1270  value == 0 */\n      sub\n        /* \"@openzeppelin/contracts@5.0.1/utils/Strings.sol\":1010:1292  while (true) {... */\n      tag_336\n        /* \"@openzeppelin/contracts@5.0.1/utils/Strings.sol\":1256:1277  if (value == 0) break */\n      jumpi\n        /* \"@openzeppelin/contracts@5.0.1/utils/Strings.sol\":1010:1292  while (true) {... */\n    tag_337:\n        /* \"@openzeppelin/contracts@5.0.1/utils/Strings.sol\":1312:1318  buffer */\n      dup2\n        /* \"@openzeppelin/contracts@5.0.1/utils/Strings.sol\":1305:1318  return buffer */\n      swap4\n      pop\n      pop\n      pop\n      pop\n        /* \"@openzeppelin/contracts@5.0.1/utils/Strings.sol\":637:1335  function toString(uint256 value) internal pure returns (string memory) {... */\n      swap2\n      swap1\n      pop\n      jump\t// out\n        /* \"@openzeppelin/contracts@5.0.1/token/ERC721/ERC721.sol\":9955:10282  function _mint(address to, uint256 tokenId) internal {... */\n    tag_321:\n        /* \"@openzeppelin/contracts@5.0.1/token/ERC721/ERC721.sol\":10036:10037  0 */\n      0x00\n        /* \"@openzeppelin/contracts@5.0.1/token/ERC721/ERC721.sol\":10022:10038  to == address(0) */\n      0xffffffffffffffffffffffffffffffffffffffff\n      and\n        /* \"@openzeppelin/contracts@5.0.1/token/ERC721/ERC721.sol\":10022:10024  to */\n      dup3\n        /* \"@openzeppelin/contracts@5.0.1/token/ERC721/ERC721.sol\":10022:10038  to == address(0) */\n      0xffffffffffffffffffffffffffffffffffffffff\n      and\n      sub\n        /* \"@openzeppelin/contracts@5.0.1/token/ERC721/ERC721.sol\":10018:10105  if (to == address(0)) {... */\n      tag_343\n      jumpi\n        /* \"@openzeppelin/contracts@5.0.1/token/ERC721/ERC721.sol\":10091:10092  0 */\n      0x00\n        /* \"@openzeppelin/contracts@5.0.1/token/ERC721/ERC721.sol\":10061:10094  ERC721InvalidReceiver(address(0)) */\n      mload(0x40)\n      0x64a0ae9200000000000000000000000000000000000000000000000000000000\n      dup2\n      mstore\n      0x04\n      add\n      tag_344\n      swap2\n      swap1\n      tag_42\n      jump\t// in\n    tag_344:\n      mload(0x40)\n      dup1\n      swap2\n      sub\n      swap1\n      revert\n        /* \"@openzeppelin/contracts@5.0.1/token/ERC721/ERC721.sol\":10018:10105  if (to == address(0)) {... */\n    tag_343:\n        /* \"@openzeppelin/contracts@5.0.1/token/ERC721/ERC721.sol\":10114:10135  address previousOwner */\n      0x00\n        /* \"@openzeppelin/contracts@5.0.1/token/ERC721/ERC721.sol\":10138:10170  _update(to, tokenId, address(0)) */\n      tag_345\n        /* \"@openzeppelin/contracts@5.0.1/token/ERC721/ERC721.sol\":10146:10148  to */\n      dup4\n        /* \"@openzeppelin/contracts@5.0.1/token/ERC721/ERC721.sol\":10150:10157  tokenId */\n      dup4\n        /* \"@openzeppelin/contracts@5.0.1/token/ERC721/ERC721.sol\":10167:10168  0 */\n      0x00\n        /* \"@openzeppelin/contracts@5.0.1/token/ERC721/ERC721.sol\":10138:10145  _update */\n      tag_154\n        /* \"@openzeppelin/contracts@5.0.1/token/ERC721/ERC721.sol\":10138:10170  _update(to, tokenId, address(0)) */\n      jump\t// in\n    tag_345:\n        /* \"@openzeppelin/contracts@5.0.1/token/ERC721/ERC721.sol\":10114:10170  address previousOwner = _update(to, tokenId, address(0)) */\n      swap1\n      pop\n        /* \"@openzeppelin/contracts@5.0.1/token/ERC721/ERC721.sol\":10209:10210  0 */\n      0x00\n        /* \"@openzeppelin/contracts@5.0.1/token/ERC721/ERC721.sol\":10184:10211  previousOwner != address(0) */\n      0xffffffffffffffffffffffffffffffffffffffff\n      and\n        /* \"@openzeppelin/contracts@5.0.1/token/ERC721/ERC721.sol\":10184:10197  previousOwner */\n      dup2\n        /* \"@openzeppelin/contracts@5.0.1/token/ERC721/ERC721.sol\":10184:10211  previousOwner != address(0) */\n      0xffffffffffffffffffffffffffffffffffffffff\n      and\n      eq\n        /* \"@openzeppelin/contracts@5.0.1/token/ERC721/ERC721.sol\":10180:10276  if (previousOwner != address(0)) {... */\n      tag_346\n      jumpi\n        /* \"@openzeppelin/contracts@5.0.1/token/ERC721/ERC721.sol\":10262:10263  0 */\n      0x00\n        /* \"@openzeppelin/contracts@5.0.1/token/ERC721/ERC721.sol\":10234:10265  ERC721InvalidSender(address(0)) */\n      mload(0x40)\n      0x73c6ac6e00000000000000000000000000000000000000000000000000000000\n      dup2\n      mstore\n      0x04\n      add\n      tag_347\n      swap2\n      swap1\n      tag_42\n      jump\t// in\n    tag_347:\n      mload(0x40)\n      dup1\n      swap2\n      sub\n      swap1\n      revert\n        /* \"@openzeppelin/contracts@5.0.1/token/ERC721/ERC721.sol\":10180:10276  if (previousOwner != address(0)) {... */\n    tag_346:\n        /* \"@openzeppelin/contracts@5.0.1/token/ERC721/ERC721.sol\":10008:10282  {... */\n      pop\n        /* \"@openzeppelin/contracts@5.0.1/token/ERC721/ERC721.sol\":9955:10282  function _mint(address to, uint256 tokenId) internal {... */\n      pop\n      pop\n      jump\t// out\n        /* \"@openzeppelin/contracts@5.0.1/utils/math/Math.sol\":12214:13130  function log10(uint256 value) internal pure returns (uint256) {... */\n    tag_332:\n        /* \"@openzeppelin/contracts@5.0.1/utils/math/Math.sol\":12267:12274  uint256 */\n      0x00\n        /* \"@openzeppelin/contracts@5.0.1/utils/math/Math.sol\":12286:12300  uint256 result */\n      dup1\n        /* \"@openzeppelin/contracts@5.0.1/utils/math/Math.sol\":12303:12304  0 */\n      0x00\n        /* \"@openzeppelin/contracts@5.0.1/utils/math/Math.sol\":12286:12304  uint256 result = 0 */\n      swap1\n      pop\n        /* \"@openzeppelin/contracts@5.0.1/utils/math/Math.sol\":12351:12359  10 ** 64 */\n      0x184f03e93ff9f4daa797ed6e38ed64bf6a1f010000000000000000\n        /* \"@openzeppelin/contracts@5.0.1/utils/math/Math.sol\":12342:12347  value */\n      dup4\n        /* \"@openzeppelin/contracts@5.0.1/utils/math/Math.sol\":12342:12359  value >= 10 ** 64 */\n      lt\n        /* \"@openzeppelin/contracts@5.0.1/utils/math/Math.sol\":12338:12441  if (value >= 10 ** 64) {... */\n      tag_349\n      jumpi\n        /* \"@openzeppelin/contracts@5.0.1/utils/math/Math.sol\":12388:12396  10 ** 64 */\n      0x184f03e93ff9f4daa797ed6e38ed64bf6a1f010000000000000000\n        /* \"@openzeppelin/contracts@5.0.1/utils/math/Math.sol\":12379:12396  value /= 10 ** 64 */\n      dup4\n      dup2\n      tag_350\n      jumpi\n      tag_351\n      tag_340\n      jump\t// in\n    tag_351:\n    tag_350:\n      div\n      swap3\n      pop\n        /* \"@openzeppelin/contracts@5.0.1/utils/math/Math.sol\":12424:12426  64 */\n      0x40\n        /* \"@openzeppelin/contracts@5.0.1/utils/math/Math.sol\":12414:12426  result += 64 */\n      dup2\n      add\n      swap1\n      pop\n        /* \"@openzeppelin/contracts@5.0.1/utils/math/Math.sol\":12338:12441  if (value >= 10 ** 64) {... */\n    tag_349:\n        /* \"@openzeppelin/contracts@5.0.1/utils/math/Math.sol\":12467:12475  10 ** 32 */\n      0x04ee2d6d415b85acef8100000000\n        /* \"@openzeppelin/contracts@5.0.1/utils/math/Math.sol\":12458:12463  value */\n      dup4\n        /* \"@openzeppelin/contracts@5.0.1/utils/math/Math.sol\":12458:12475  value >= 10 ** 32 */\n      lt\n        /* \"@openzeppelin/contracts@5.0.1/utils/math/Math.sol\":12454:12557  if (value >= 10 ** 32) {... */\n      tag_352\n      jumpi\n        /* \"@openzeppelin/contracts@5.0.1/utils/math/Math.sol\":12504:12512  10 ** 32 */\n      0x04ee2d6d415b85acef8100000000\n        /* \"@openzeppelin/contracts@5.0.1/utils/math/Math.sol\":12495:12512  value /= 10 ** 32 */\n      dup4\n      dup2\n      tag_353\n      jumpi\n      tag_354\n      tag_340\n      jump\t// in\n    tag_354:\n    tag_353:\n      div\n      swap3\n      pop\n        /* \"@openzeppelin/contracts@5.0.1/utils/math/Math.sol\":12540:12542  32 */\n      0x20\n        /* \"@openzeppelin/contracts@5.0.1/utils/math/Math.sol\":12530:12542  result += 32 */\n      dup2\n      add\n      swap1\n      pop\n        /* \"@openzeppelin/contracts@5.0.1/utils/math/Math.sol\":12454:12557  if (value >= 10 ** 32) {... */\n    tag_352:\n        /* \"@openzeppelin/contracts@5.0.1/utils/math/Math.sol\":12583:12591  10 ** 16 */\n      0x2386f26fc10000\n        /* \"@openzeppelin/contracts@5.0.1/utils/math/Math.sol\":12574:12579  value */\n      dup4\n        /* \"@openzeppelin/contracts@5.0.1/utils/math/Math.sol\":12574:12591  value >= 10 ** 16 */\n      lt\n        /* \"@openzeppelin/contracts@5.0.1/utils/math/Math.sol\":12570:12673  if (value >= 10 ** 16) {... */\n      tag_355\n      jumpi\n        /* \"@openzeppelin/contracts@5.0.1/utils/math/Math.sol\":12620:12628  10 ** 16 */\n      0x2386f26fc10000\n        /* \"@openzeppelin/contracts@5.0.1/utils/math/Math.sol\":12611:12628  value /= 10 ** 16 */\n      dup4\n      dup2\n      tag_356\n      jumpi\n      tag_357\n      tag_340\n      jump\t// in\n    tag_357:\n    tag_356:\n      div\n      swap3\n      pop\n        /* \"@openzeppelin/contracts@5.0.1/utils/math/Math.sol\":12656:12658  16 */\n      0x10\n        /* \"@openzeppelin/contracts@5.0.1/utils/math/Math.sol\":12646:12658  result += 16 */\n      dup2\n      add\n      swap1\n      pop\n        /* \"@openzeppelin/contracts@5.0.1/utils/math/Math.sol\":12570:12673  if (value >= 10 ** 16) {... */\n    tag_355:\n        /* \"@openzeppelin/contracts@5.0.1/utils/math/Math.sol\":12699:12706  10 ** 8 */\n      0x05f5e100\n        /* \"@openzeppelin/contracts@5.0.1/utils/math/Math.sol\":12690:12695  value */\n      dup4\n        /* \"@openzeppelin/contracts@5.0.1/utils/math/Math.sol\":12690:12706  value >= 10 ** 8 */\n      lt\n        /* \"@openzeppelin/contracts@5.0.1/utils/math/Math.sol\":12686:12786  if (value >= 10 ** 8) {... */\n      tag_358\n      jumpi\n        /* \"@openzeppelin/contracts@5.0.1/utils/math/Math.sol\":12735:12742  10 ** 8 */\n      0x05f5e100\n        /* \"@openzeppelin/contracts@5.0.1/utils/math/Math.sol\":12726:12742  value /= 10 ** 8 */\n      dup4\n      dup2\n      tag_359\n      jumpi\n      tag_360\n      tag_340\n      jump\t// in\n    tag_360:\n    tag_359:\n      div\n      swap3\n      pop\n        /* \"@openzeppelin/contracts@5.0.1/utils/math/Math.sol\":12770:12771  8 */\n      0x08\n        /* \"@openzeppelin/contracts@5.0.1/utils/math/Math.sol\":12760:12771  result += 8 */\n      dup2\n      add\n      swap1\n      pop\n        /* \"@openzeppelin/contracts@5.0.1/utils/math/Math.sol\":12686:12786  if (value >= 10 ** 8) {... */\n    tag_358:\n        /* \"@openzeppelin/contracts@5.0.1/utils/math/Math.sol\":12812:12819  10 ** 4 */\n      0x2710\n        /* \"@openzeppelin/contracts@5.0.1/utils/math/Math.sol\":12803:12808  value */\n      dup4\n        /* \"@openzeppelin/contracts@5.0.1/utils/math/Math.sol\":12803:12819  value >= 10 ** 4 */\n      lt\n        /* \"@openzeppelin/contracts@5.0.1/utils/math/Math.sol\":12799:12899  if (value >= 10 ** 4) {... */\n      tag_361\n      jumpi\n        /* \"@openzeppelin/contracts@5.0.1/utils/math/Math.sol\":12848:12855  10 ** 4 */\n      0x2710\n        /* \"@openzeppelin/contracts@5.0.1/utils/math/Math.sol\":12839:12855  value /= 10 ** 4 */\n      dup4\n      dup2\n      tag_362\n      jumpi\n      tag_363\n      tag_340\n      jump\t// in\n    tag_363:\n    tag_362:\n      div\n      swap3\n      pop\n        /* \"@openzeppelin/contracts@5.0.1/utils/math/Math.sol\":12883:12884  4 */\n      0x04\n        /* \"@openzeppelin/contracts@5.0.1/utils/math/Math.sol\":12873:12884  result += 4 */\n      dup2\n      add\n      swap1\n      pop\n        /* \"@openzeppelin/contracts@5.0.1/utils/math/Math.sol\":12799:12899  if (value >= 10 ** 4) {... */\n    tag_361:\n        /* \"@openzeppelin/contracts@5.0.1/utils/math/Math.sol\":12925:12932  10 ** 2 */\n      0x64\n        /* \"@openzeppelin/contracts@5.0.1/utils/math/Math.sol\":12916:12921  value */\n      dup4\n        /* \"@openzeppelin/contracts@5.0.1/utils/math/Math.sol\":12916:12932  value >= 10 ** 2 */\n      lt\n        /* \"@openzeppelin/contracts@5.0.1/utils/math/Math.sol\":12912:13012  if (value >= 10 ** 2) {... */\n      tag_364\n      jumpi\n        /* \"@openzeppelin/contracts@5.0.1/utils/math/Math.sol\":12961:12968  10 ** 2 */\n      0x64\n        /* \"@openzeppelin/contracts@5.0.1/utils/math/Math.sol\":12952:12968  value /= 10 ** 2 */\n      dup4\n      dup2\n      tag_365\n      jumpi\n      tag_366\n      tag_340\n      jump\t// in\n    tag_366:\n    tag_365:\n      div\n      swap3\n      pop\n        /* \"@openzeppelin/contracts@5.0.1/utils/math/Math.sol\":12996:12997  2 */\n      0x02\n        /* \"@openzeppelin/contracts@5.0.1/utils/math/Math.sol\":12986:12997  result += 2 */\n      dup2\n      add\n      swap1\n      pop\n        /* \"@openzeppelin/contracts@5.0.1/utils/math/Math.sol\":12912:13012  if (value >= 10 ** 2) {... */\n    tag_364:\n        /* \"@openzeppelin/contracts@5.0.1/utils/math/Math.sol\":13038:13045  10 ** 1 */\n      0x0a\n        /* \"@openzeppelin/contracts@5.0.1/utils/math/Math.sol\":13029:13034  value */\n      dup4\n        /* \"@openzeppelin/contracts@5.0.1/utils/math/Math.sol\":13029:13045  value >= 10 ** 1 */\n      lt\n        /* \"@openzeppelin/contracts@5.0.1/utils/math/Math.sol\":13025:13091  if (value >= 10 ** 1) {... */\n      tag_367\n      jumpi\n        /* \"@openzeppelin/contracts@5.0.1/utils/math/Math.sol\":13075:13076  1 */\n      0x01\n        /* \"@openzeppelin/contracts@5.0.1/utils/math/Math.sol\":13065:13076  result += 1 */\n      dup2\n      add\n      swap1\n      pop\n        /* \"@openzeppelin/contracts@5.0.1/utils/math/Math.sol\":13025:13091  if (value >= 10 ** 1) {... */\n    tag_367:\n        /* \"@openzeppelin/contracts@5.0.1/utils/math/Math.sol\":13117:13123  result */\n      dup1\n        /* \"@openzeppelin/contracts@5.0.1/utils/math/Math.sol\":13110:13123  return result */\n      swap2\n      pop\n      pop\n        /* \"@openzeppelin/contracts@5.0.1/utils/math/Math.sol\":12214:13130  function log10(uint256 value) internal pure returns (uint256) {... */\n      swap2\n      swap1\n      pop\n      jump\t// out\n        /* \"#utility.yul\":7:82   */\n    tag_368:\n        /* \"#utility.yul\":40:46   */\n      0x00\n        /* \"#utility.yul\":73:75   */\n      0x40\n        /* \"#utility.yul\":67:76   */\n      mload\n        /* \"#utility.yul\":57:76   */\n      swap1\n      pop\n        /* \"#utility.yul\":7:82   */\n      swap1\n      jump\t// out\n        /* \"#utility.yul\":88:205   */\n    tag_369:\n        /* \"#utility.yul\":197:198   */\n      0x00\n        /* \"#utility.yul\":194:195   */\n      dup1\n        /* \"#utility.yul\":187:199   */\n      revert\n        /* \"#utility.yul\":211:328   */\n    tag_370:\n        /* \"#utility.yul\":320:321   */\n      0x00\n        /* \"#utility.yul\":317:318   */\n      dup1\n        /* \"#utility.yul\":310:322   */\n      revert\n        /* \"#utility.yul\":334:483   */\n    tag_371:\n        /* \"#utility.yul\":370:377   */\n      0x00\n        /* \"#utility.yul\":410:476   */\n      0xffffffff00000000000000000000000000000000000000000000000000000000\n        /* \"#utility.yul\":403:408   */\n      dup3\n        /* \"#utility.yul\":399:477   */\n      and\n        /* \"#utility.yul\":388:477   */\n      swap1\n      pop\n        /* \"#utility.yul\":334:483   */\n      swap2\n      swap1\n      pop\n      jump\t// out\n        /* \"#utility.yul\":489:609   */\n    tag_372:\n        /* \"#utility.yul\":561:584   */\n      tag_440\n        /* \"#utility.yul\":578:583   */\n      dup2\n        /* \"#utility.yul\":561:584   */\n      tag_371\n      jump\t// in\n    tag_440:\n        /* \"#utility.yul\":554:559   */\n      dup2\n        /* \"#utility.yul\":551:585   */\n      eq\n        /* \"#utility.yul\":541:603   */\n      tag_441\n      jumpi\n        /* \"#utility.yul\":599:600   */\n      0x00\n        /* \"#utility.yul\":596:597   */\n      dup1\n        /* \"#utility.yul\":589:601   */\n      revert\n        /* \"#utility.yul\":541:603   */\n    tag_441:\n        /* \"#utility.yul\":489:609   */\n      pop\n      jump\t// out\n        /* \"#utility.yul\":615:752   */\n    tag_373:\n        /* \"#utility.yul\":660:665   */\n      0x00\n        /* \"#utility.yul\":698:704   */\n      dup2\n        /* \"#utility.yul\":685:705   */\n      calldataload\n        /* \"#utility.yul\":676:705   */\n      swap1\n      pop\n        /* \"#utility.yul\":714:746   */\n      tag_443\n        /* \"#utility.yul\":740:745   */\n      dup2\n        /* \"#utility.yul\":714:746   */\n      tag_372\n      jump\t// in\n    tag_443:\n        /* \"#utility.yul\":615:752   */\n      swap3\n      swap2\n      pop\n      pop\n      jump\t// out\n        /* \"#utility.yul\":758:1085   */\n    tag_29:\n        /* \"#utility.yul\":816:822   */\n      0x00\n        /* \"#utility.yul\":865:867   */\n      0x20\n        /* \"#utility.yul\":853:862   */\n      dup3\n        /* \"#utility.yul\":844:851   */\n      dup5\n        /* \"#utility.yul\":840:863   */\n      sub\n        /* \"#utility.yul\":836:868   */\n      slt\n        /* \"#utility.yul\":833:952   */\n      iszero\n      tag_445\n      jumpi\n        /* \"#utility.yul\":871:950   */\n      tag_446\n      tag_369\n      jump\t// in\n    tag_446:\n        /* \"#utility.yul\":833:952   */\n    tag_445:\n        /* \"#utility.yul\":991:992   */\n      0x00\n        /* \"#utility.yul\":1016:1068   */\n      tag_447\n        /* \"#utility.yul\":1060:1067   */\n      dup5\n        /* \"#utility.yul\":1051:1057   */\n      dup3\n        /* \"#utility.yul\":1040:1049   */\n      dup6\n        /* \"#utility.yul\":1036:1058   */\n      add\n        /* \"#utility.yul\":1016:1068   */\n      tag_373\n      jump\t// in\n    tag_447:\n        /* \"#utility.yul\":1006:1068   */\n      swap2\n      pop\n        /* \"#utility.yul\":962:1078   */\n      pop\n        /* \"#utility.yul\":758:1085   */\n      swap3\n      swap2\n      pop\n      pop\n      jump\t// out\n        /* \"#utility.yul\":1091:1181   */\n    tag_374:\n        /* \"#utility.yul\":1125:1132   */\n      0x00\n        /* \"#utility.yul\":1168:1173   */\n      dup2\n        /* \"#utility.yul\":1161:1174   */\n      iszero\n        /* \"#utility.yul\":1154:1175   */\n      iszero\n        /* \"#utility.yul\":1143:1175   */\n      swap1\n      pop\n        /* \"#utility.yul\":1091:1181   */\n      swap2\n      swap1\n      pop\n      jump\t// out\n        /* \"#utility.yul\":1187:1296   */\n    tag_375:\n        /* \"#utility.yul\":1268:1289   */\n      tag_450\n        /* \"#utility.yul\":1283:1288   */\n      dup2\n        /* \"#utility.yul\":1268:1289   */\n      tag_374\n      jump\t// in\n    tag_450:\n        /* \"#utility.yul\":1263:1266   */\n      dup3\n        /* \"#utility.yul\":1256:1290   */\n      mstore\n        /* \"#utility.yul\":1187:1296   */\n      pop\n      pop\n      jump\t// out\n        /* \"#utility.yul\":1302:1512   */\n    tag_32:\n        /* \"#utility.yul\":1389:1393   */\n      0x00\n        /* \"#utility.yul\":1427:1429   */\n      0x20\n        /* \"#utility.yul\":1416:1425   */\n      dup3\n        /* \"#utility.yul\":1412:1430   */\n      add\n        /* \"#utility.yul\":1404:1430   */\n      swap1\n      pop\n        /* \"#utility.yul\":1440:1505   */\n      tag_452\n        /* \"#utility.yul\":1502:1503   */\n      0x00\n        /* \"#utility.yul\":1491:1500   */\n      dup4\n        /* \"#utility.yul\":1487:1504   */\n      add\n        /* \"#utility.yul\":1478:1484   */\n      dup5\n        /* \"#utility.yul\":1440:1505   */\n      tag_375\n      jump\t// in\n    tag_452:\n        /* \"#utility.yul\":1302:1512   */\n      swap3\n      swap2\n      pop\n      pop\n      jump\t// out\n        /* \"#utility.yul\":1518:1617   */\n    tag_376:\n        /* \"#utility.yul\":1570:1576   */\n      0x00\n        /* \"#utility.yul\":1604:1609   */\n      dup2\n        /* \"#utility.yul\":1598:1610   */\n      mload\n        /* \"#utility.yul\":1588:1610   */\n      swap1\n      pop\n        /* \"#utility.yul\":1518:1617   */\n      swap2\n      swap1\n      pop\n      jump\t// out\n        /* \"#utility.yul\":1623:1792   */\n    tag_377:\n        /* \"#utility.yul\":1707:1718   */\n      0x00\n        /* \"#utility.yul\":1741:1747   */\n      dup3\n        /* \"#utility.yul\":1736:1739   */\n      dup3\n        /* \"#utility.yul\":1729:1748   */\n      mstore\n        /* \"#utility.yul\":1781:1785   */\n      0x20\n        /* \"#utility.yul\":1776:1779   */\n      dup3\n        /* \"#utility.yul\":1772:1786   */\n      add\n        /* \"#utility.yul\":1757:1786   */\n      swap1\n      pop\n        /* \"#utility.yul\":1623:1792   */\n      swap3\n      swap2\n      pop\n      pop\n      jump\t// out\n        /* \"#utility.yul\":1798:2044   */\n    tag_378:\n        /* \"#utility.yul\":1879:1880   */\n      0x00\n        /* \"#utility.yul\":1889:2002   */\n    tag_456:\n        /* \"#utility.yul\":1903:1909   */\n      dup4\n        /* \"#utility.yul\":1900:1901   */\n      dup2\n        /* \"#utility.yul\":1897:1910   */\n      lt\n        /* \"#utility.yul\":1889:2002   */\n      iszero\n      tag_458\n      jumpi\n        /* \"#utility.yul\":1988:1989   */\n      dup1\n        /* \"#utility.yul\":1983:1986   */\n      dup3\n        /* \"#utility.yul\":1979:1990   */\n      add\n        /* \"#utility.yul\":1973:1991   */\n      mload\n        /* \"#utility.yul\":1969:1970   */\n      dup2\n        /* \"#utility.yul\":1964:1967   */\n      dup5\n        /* \"#utility.yul\":1960:1971   */\n      add\n        /* \"#utility.yul\":1953:1992   */\n      mstore\n        /* \"#utility.yul\":1925:1927   */\n      0x20\n        /* \"#utility.yul\":1922:1923   */\n      dup2\n        /* \"#utility.yul\":1918:1928   */\n      add\n        /* \"#utility.yul\":1913:1928   */\n      swap1\n      pop\n        /* \"#utility.yul\":1889:2002   */\n      jump(tag_456)\n    tag_458:\n        /* \"#utility.yul\":2036:2037   */\n      0x00\n        /* \"#utility.yul\":2027:2033   */\n      dup5\n        /* \"#utility.yul\":2022:2025   */\n      dup5\n        /* \"#utility.yul\":2018:2034   */\n      add\n        /* \"#utility.yul\":2011:2038   */\n      mstore\n        /* \"#utility.yul\":1860:2044   */\n      pop\n        /* \"#utility.yul\":1798:2044   */\n      pop\n      pop\n      pop\n      jump\t// out\n        /* \"#utility.yul\":2050:2152   */\n    tag_379:\n        /* \"#utility.yul\":2091:2097   */\n      0x00\n        /* \"#utility.yul\":2142:2144   */\n      0x1f\n        /* \"#utility.yul\":2138:2145   */\n      not\n        /* \"#utility.yul\":2133:2135   */\n      0x1f\n        /* \"#utility.yul\":2126:2131   */\n      dup4\n        /* \"#utility.yul\":2122:2136   */\n      add\n        /* \"#utility.yul\":2118:2146   */\n      and\n        /* \"#utility.yul\":2108:2146   */\n      swap1\n      pop\n        /* \"#utility.yul\":2050:2152   */\n      swap2\n      swap1\n      pop\n      jump\t// out\n        /* \"#utility.yul\":2158:2535   */\n    tag_380:\n        /* \"#utility.yul\":2246:2249   */\n      0x00\n        /* \"#utility.yul\":2274:2313   */\n      tag_461\n        /* \"#utility.yul\":2307:2312   */\n      dup3\n        /* \"#utility.yul\":2274:2313   */\n      tag_376\n      jump\t// in\n    tag_461:\n        /* \"#utility.yul\":2329:2400   */\n      tag_462\n        /* \"#utility.yul\":2393:2399   */\n      dup2\n        /* \"#utility.yul\":2388:2391   */\n      dup6\n        /* \"#utility.yul\":2329:2400   */\n      tag_377\n      jump\t// in\n    tag_462:\n        /* \"#utility.yul\":2322:2400   */\n      swap4\n      pop\n        /* \"#utility.yul\":2409:2474   */\n      tag_463\n        /* \"#utility.yul\":2467:2473   */\n      dup2\n        /* \"#utility.yul\":2462:2465   */\n      dup6\n        /* \"#utility.yul\":2455:2459   */\n      0x20\n        /* \"#utility.yul\":2448:2453   */\n      dup7\n        /* \"#utility.yul\":2444:2460   */\n      add\n        /* \"#utility.yul\":2409:2474   */\n      tag_378\n      jump\t// in\n    tag_463:\n        /* \"#utility.yul\":2499:2528   */\n      tag_464\n        /* \"#utility.yul\":2521:2527   */\n      dup2\n        /* \"#utility.yul\":2499:2528   */\n      tag_379\n      jump\t// in\n    tag_464:\n        /* \"#utility.yul\":2494:2497   */\n      dup5\n        /* \"#utility.yul\":2490:2529   */\n      add\n        /* \"#utility.yul\":2483:2529   */\n      swap2\n      pop\n        /* \"#utility.yul\":2250:2535   */\n      pop\n        /* \"#utility.yul\":2158:2535   */\n      swap3\n      swap2\n      pop\n      pop\n      jump\t// out\n        /* \"#utility.yul\":2541:2854   */\n    tag_36:\n        /* \"#utility.yul\":2654:2658   */\n      0x00\n        /* \"#utility.yul\":2692:2694   */\n      0x20\n        /* \"#utility.yul\":2681:2690   */\n      dup3\n        /* \"#utility.yul\":2677:2695   */\n      add\n        /* \"#utility.yul\":2669:2695   */\n      swap1\n      pop\n        /* \"#utility.yul\":2741:2750   */\n      dup2\n        /* \"#utility.yul\":2735:2739   */\n      dup2\n        /* \"#utility.yul\":2731:2751   */\n      sub\n        /* \"#utility.yul\":2727:2728   */\n      0x00\n        /* \"#utility.yul\":2716:2725   */\n      dup4\n        /* \"#utility.yul\":2712:2729   */\n      add\n        /* \"#utility.yul\":2705:2752   */\n      mstore\n        /* \"#utility.yul\":2769:2847   */\n      tag_466\n        /* \"#utility.yul\":2842:2846   */\n      dup2\n        /* \"#utility.yul\":2833:2839   */\n      dup5\n        /* \"#utility.yul\":2769:2847   */\n      tag_380\n      jump\t// in\n    tag_466:\n        /* \"#utility.yul\":2761:2847   */\n      swap1\n      pop\n        /* \"#utility.yul\":2541:2854   */\n      swap3\n      swap2\n      pop\n      pop\n      jump\t// out\n        /* \"#utility.yul\":2860:2937   */\n    tag_381:\n        /* \"#utility.yul\":2897:2904   */\n      0x00\n        /* \"#utility.yul\":2926:2931   */\n      dup2\n        /* \"#utility.yul\":2915:2931   */\n      swap1\n      pop\n        /* \"#utility.yul\":2860:2937   */\n      swap2\n      swap1\n      pop\n      jump\t// out\n        /* \"#utility.yul\":2943:3065   */\n    tag_382:\n        /* \"#utility.yul\":3016:3040   */\n      tag_469\n        /* \"#utility.yul\":3034:3039   */\n      dup2\n        /* \"#utility.yul\":3016:3040   */\n      tag_381\n      jump\t// in\n    tag_469:\n        /* \"#utility.yul\":3009:3014   */\n      dup2\n        /* \"#utility.yul\":3006:3041   */\n      eq\n        /* \"#utility.yul\":2996:3059   */\n      tag_470\n      jumpi\n        /* \"#utility.yul\":3055:3056   */\n      0x00\n        /* \"#utility.yul\":3052:3053   */\n      dup1\n        /* \"#utility.yul\":3045:3057   */\n      revert\n        /* \"#utility.yul\":2996:3059   */\n    tag_470:\n        /* \"#utility.yul\":2943:3065   */\n      pop\n      jump\t// out\n        /* \"#utility.yul\":3071:3210   */\n    tag_383:\n        /* \"#utility.yul\":3117:3122   */\n      0x00\n        /* \"#utility.yul\":3155:3161   */\n      dup2\n        /* \"#utility.yul\":3142:3162   */\n      calldataload\n        /* \"#utility.yul\":3133:3162   */\n      swap1\n      pop\n        /* \"#utility.yul\":3171:3204   */\n      tag_472\n        /* \"#utility.yul\":3198:3203   */\n      dup2\n        /* \"#utility.yul\":3171:3204   */\n      tag_382\n      jump\t// in\n    tag_472:\n        /* \"#utility.yul\":3071:3210   */\n      swap3\n      swap2\n      pop\n      pop\n      jump\t// out\n        /* \"#utility.yul\":3216:3545   */\n    tag_39:\n        /* \"#utility.yul\":3275:3281   */\n      0x00\n        /* \"#utility.yul\":3324:3326   */\n      0x20\n        /* \"#utility.yul\":3312:3321   */\n      dup3\n        /* \"#utility.yul\":3303:3310   */\n      dup5\n        /* \"#utility.yul\":3299:3322   */\n      sub\n        /* \"#utility.yul\":3295:3327   */\n      slt\n        /* \"#utility.yul\":3292:3411   */\n      iszero\n      tag_474\n      jumpi\n        /* \"#utility.yul\":3330:3409   */\n      tag_475\n      tag_369\n      jump\t// in\n    tag_475:\n        /* \"#utility.yul\":3292:3411   */\n    tag_474:\n        /* \"#utility.yul\":3450:3451   */\n      0x00\n        /* \"#utility.yul\":3475:3528   */\n      tag_476\n        /* \"#utility.yul\":3520:3527   */\n      dup5\n        /* \"#utility.yul\":3511:3517   */\n      dup3\n        /* \"#utility.yul\":3500:3509   */\n      dup6\n        /* \"#utility.yul\":3496:3518   */\n      add\n        /* \"#utility.yul\":3475:3528   */\n      tag_383\n      jump\t// in\n    tag_476:\n        /* \"#utility.yul\":3465:3528   */\n      swap2\n      pop\n        /* \"#utility.yul\":3421:3538   */\n      pop\n        /* \"#utility.yul\":3216:3545   */\n      swap3\n      swap2\n      pop\n      pop\n      jump\t// out\n        /* \"#utility.yul\":3551:3677   */\n    tag_384:\n        /* \"#utility.yul\":3588:3595   */\n      0x00\n        /* \"#utility.yul\":3628:3670   */\n      0xffffffffffffffffffffffffffffffffffffffff\n        /* \"#utility.yul\":3621:3626   */\n      dup3\n        /* \"#utility.yul\":3617:3671   */\n      and\n        /* \"#utility.yul\":3606:3671   */\n      swap1\n      pop\n        /* \"#utility.yul\":3551:3677   */\n      swap2\n      swap1\n      pop\n      jump\t// out\n        /* \"#utility.yul\":3683:3779   */\n    tag_385:\n        /* \"#utility.yul\":3720:3727   */\n      0x00\n        /* \"#utility.yul\":3749:3773   */\n      tag_479\n        /* \"#utility.yul\":3767:3772   */\n      dup3\n        /* \"#utility.yul\":3749:3773   */\n      tag_384\n      jump\t// in\n    tag_479:\n        /* \"#utility.yul\":3738:3773   */\n      swap1\n      pop\n        /* \"#utility.yul\":3683:3779   */\n      swap2\n      swap1\n      pop\n      jump\t// out\n        /* \"#utility.yul\":3785:3903   */\n    tag_386:\n        /* \"#utility.yul\":3872:3896   */\n      tag_481\n        /* \"#utility.yul\":3890:3895   */\n      dup2\n        /* \"#utility.yul\":3872:3896   */\n      tag_385\n      jump\t// in\n    tag_481:\n        /* \"#utility.yul\":3867:3870   */\n      dup3\n        /* \"#utility.yul\":3860:3897   */\n      mstore\n        /* \"#utility.yul\":3785:3903   */\n      pop\n      pop\n      jump\t// out\n        /* \"#utility.yul\":3909:4131   */\n    tag_42:\n        /* \"#utility.yul\":4002:4006   */\n      0x00\n        /* \"#utility.yul\":4040:4042   */\n      0x20\n        /* \"#utility.yul\":4029:4038   */\n      dup3\n        /* \"#utility.yul\":4025:4043   */\n      add\n        /* \"#utility.yul\":4017:4043   */\n      swap1\n      pop\n        /* \"#utility.yul\":4053:4124   */\n      tag_483\n        /* \"#utility.yul\":4121:4122   */\n      0x00\n        /* \"#utility.yul\":4110:4119   */\n      dup4\n        /* \"#utility.yul\":4106:4123   */\n      add\n        /* \"#utility.yul\":4097:4103   */\n      dup5\n        /* \"#utility.yul\":4053:4124   */\n      tag_386\n      jump\t// in\n    tag_483:\n        /* \"#utility.yul\":3909:4131   */\n      swap3\n      swap2\n      pop\n      pop\n      jump\t// out\n        /* \"#utility.yul\":4137:4259   */\n    tag_387:\n        /* \"#utility.yul\":4210:4234   */\n      tag_485\n        /* \"#utility.yul\":4228:4233   */\n      dup2\n        /* \"#utility.yul\":4210:4234   */\n      tag_385\n      jump\t// in\n    tag_485:\n        /* \"#utility.yul\":4203:4208   */\n      dup2\n        /* \"#utility.yul\":4200:4235   */\n      eq\n        /* \"#utility.yul\":4190:4253   */\n      tag_486\n      jumpi\n        /* \"#utility.yul\":4249:4250   */\n      0x00\n        /* \"#utility.yul\":4246:4247   */\n      dup1\n        /* \"#utility.yul\":4239:4251   */\n      revert\n        /* \"#utility.yul\":4190:4253   */\n    tag_486:\n        /* \"#utility.yul\":4137:4259   */\n      pop\n      jump\t// out\n        /* \"#utility.yul\":4265:4404   */\n    tag_388:\n        /* \"#utility.yul\":4311:4316   */\n      0x00\n        /* \"#utility.yul\":4349:4355   */\n      dup2\n        /* \"#utility.yul\":4336:4356   */\n      calldataload\n        /* \"#utility.yul\":4327:4356   */\n      swap1\n      pop\n        /* \"#utility.yul\":4365:4398   */\n      tag_488\n        /* \"#utility.yul\":4392:4397   */\n      dup2\n        /* \"#utility.yul\":4365:4398   */\n      tag_387\n      jump\t// in\n    tag_488:\n        /* \"#utility.yul\":4265:4404   */\n      swap3\n      swap2\n      pop\n      pop\n      jump\t// out\n        /* \"#utility.yul\":4410:4739   */\n    tag_45:\n        /* \"#utility.yul\":4469:4475   */\n      0x00\n        /* \"#utility.yul\":4518:4520   */\n      0x20\n        /* \"#utility.yul\":4506:4515   */\n      dup3\n        /* \"#utility.yul\":4497:4504   */\n      dup5\n        /* \"#utility.yul\":4493:4516   */\n      sub\n        /* \"#utility.yul\":4489:4521   */\n      slt\n        /* \"#utility.yul\":4486:4605   */\n      iszero\n      tag_490\n      jumpi\n        /* \"#utility.yul\":4524:4603   */\n      tag_491\n      tag_369\n      jump\t// in\n    tag_491:\n        /* \"#utility.yul\":4486:4605   */\n    tag_490:\n        /* \"#utility.yul\":4644:4645   */\n      0x00\n        /* \"#utility.yul\":4669:4722   */\n      tag_492\n        /* \"#utility.yul\":4714:4721   */\n      dup5\n        /* \"#utility.yul\":4705:4711   */\n      dup3\n        /* \"#utility.yul\":4694:4703   */\n      dup6\n        /* \"#utility.yul\":4690:4712   */\n      add\n        /* \"#utility.yul\":4669:4722   */\n      tag_388\n      jump\t// in\n    tag_492:\n        /* \"#utility.yul\":4659:4722   */\n      swap2\n      pop\n        /* \"#utility.yul\":4615:4732   */\n      pop\n        /* \"#utility.yul\":4410:4739   */\n      swap3\n      swap2\n      pop\n      pop\n      jump\t// out\n        /* \"#utility.yul\":4745:4869   */\n    tag_389:\n        /* \"#utility.yul\":4822:4828   */\n      0x00\n        /* \"#utility.yul\":4856:4861   */\n      dup2\n        /* \"#utility.yul\":4850:4862   */\n      mload\n        /* \"#utility.yul\":4840:4862   */\n      swap1\n      pop\n        /* \"#utility.yul\":4745:4869   */\n      swap2\n      swap1\n      pop\n      jump\t// out\n        /* \"#utility.yul\":4875:5069   */\n    tag_390:\n        /* \"#utility.yul\":4984:4995   */\n      0x00\n        /* \"#utility.yul\":5018:5024   */\n      dup3\n        /* \"#utility.yul\":5013:5016   */\n      dup3\n        /* \"#utility.yul\":5006:5025   */\n      mstore\n        /* \"#utility.yul\":5058:5062   */\n      0x20\n        /* \"#utility.yul\":5053:5056   */\n      dup3\n        /* \"#utility.yul\":5049:5063   */\n      add\n        /* \"#utility.yul\":5034:5063   */\n      swap1\n      pop\n        /* \"#utility.yul\":4875:5069   */\n      swap3\n      swap2\n      pop\n      pop\n      jump\t// out\n        /* \"#utility.yul\":5075:5217   */\n    tag_391:\n        /* \"#utility.yul\":5152:5156   */\n      0x00\n        /* \"#utility.yul\":5175:5178   */\n      dup2\n        /* \"#utility.yul\":5167:5178   */\n      swap1\n      pop\n        /* \"#utility.yul\":5205:5209   */\n      0x20\n        /* \"#utility.yul\":5200:5203   */\n      dup3\n        /* \"#utility.yul\":5196:5210   */\n      add\n        /* \"#utility.yul\":5188:5210   */\n      swap1\n      pop\n        /* \"#utility.yul\":5075:5217   */\n      swap2\n      swap1\n      pop\n      jump\t// out\n        /* \"#utility.yul\":5223:5382   */\n    tag_392:\n        /* \"#utility.yul\":5297:5308   */\n      0x00\n        /* \"#utility.yul\":5331:5337   */\n      dup3\n        /* \"#utility.yul\":5326:5329   */\n      dup3\n        /* \"#utility.yul\":5319:5338   */\n      mstore\n        /* \"#utility.yul\":5371:5375   */\n      0x20\n        /* \"#utility.yul\":5366:5369   */\n      dup3\n        /* \"#utility.yul\":5362:5376   */\n      add\n        /* \"#utility.yul\":5347:5376   */\n      swap1\n      pop\n        /* \"#utility.yul\":5223:5382   */\n      swap3\n      swap2\n      pop\n      pop\n      jump\t// out\n        /* \"#utility.yul\":5388:5745   */\n    tag_393:\n        /* \"#utility.yul\":5466:5469   */\n      0x00\n        /* \"#utility.yul\":5494:5533   */\n      tag_498\n        /* \"#utility.yul\":5527:5532   */\n      dup3\n        /* \"#utility.yul\":5494:5533   */\n      tag_376\n      jump\t// in\n    tag_498:\n        /* \"#utility.yul\":5549:5610   */\n      tag_499\n        /* \"#utility.yul\":5603:5609   */\n      dup2\n        /* \"#utility.yul\":5598:5601   */\n      dup6\n        /* \"#utility.yul\":5549:5610   */\n      tag_392\n      jump\t// in\n    tag_499:\n        /* \"#utility.yul\":5542:5610   */\n      swap4\n      pop\n        /* \"#utility.yul\":5619:5684   */\n      tag_500\n        /* \"#utility.yul\":5677:5683   */\n      dup2\n        /* \"#utility.yul\":5672:5675   */\n      dup6\n        /* \"#utility.yul\":5665:5669   */\n      0x20\n        /* \"#utility.yul\":5658:5663   */\n      dup7\n        /* \"#utility.yul\":5654:5670   */\n      add\n        /* \"#utility.yul\":5619:5684   */\n      tag_378\n      jump\t// in\n    tag_500:\n        /* \"#utility.yul\":5709:5738   */\n      tag_501\n        /* \"#utility.yul\":5731:5737   */\n      dup2\n        /* \"#utility.yul\":5709:5738   */\n      tag_379\n      jump\t// in\n    tag_501:\n        /* \"#utility.yul\":5704:5707   */\n      dup5\n        /* \"#utility.yul\":5700:5739   */\n      add\n        /* \"#utility.yul\":5693:5739   */\n      swap2\n      pop\n        /* \"#utility.yul\":5470:5745   */\n      pop\n        /* \"#utility.yul\":5388:5745   */\n      swap3\n      swap2\n      pop\n      pop\n      jump\t// out\n        /* \"#utility.yul\":5751:5947   */\n    tag_394:\n        /* \"#utility.yul\":5840:5850   */\n      0x00\n        /* \"#utility.yul\":5875:5941   */\n      tag_503\n        /* \"#utility.yul\":5937:5940   */\n      dup4\n        /* \"#utility.yul\":5929:5935   */\n      dup4\n        /* \"#utility.yul\":5875:5941   */\n      tag_393\n      jump\t// in\n    tag_503:\n        /* \"#utility.yul\":5861:5941   */\n      swap1\n      pop\n        /* \"#utility.yul\":5751:5947   */\n      swap3\n      swap2\n      pop\n      pop\n      jump\t// out\n        /* \"#utility.yul\":5953:6076   */\n    tag_395:\n        /* \"#utility.yul\":6033:6037   */\n      0x00\n        /* \"#utility.yul\":6065:6069   */\n      0x20\n        /* \"#utility.yul\":6060:6063   */\n      dup3\n        /* \"#utility.yul\":6056:6070   */\n      add\n        /* \"#utility.yul\":6048:6070   */\n      swap1\n      pop\n        /* \"#utility.yul\":5953:6076   */\n      swap2\n      swap1\n      pop\n      jump\t// out\n        /* \"#utility.yul\":6110:7101   */\n    tag_396:\n        /* \"#utility.yul\":6249:6252   */\n      0x00\n        /* \"#utility.yul\":6278:6342   */\n      tag_506\n        /* \"#utility.yul\":6336:6341   */\n      dup3\n        /* \"#utility.yul\":6278:6342   */\n      tag_389\n      jump\t// in\n    tag_506:\n        /* \"#utility.yul\":6358:6454   */\n      tag_507\n        /* \"#utility.yul\":6447:6453   */\n      dup2\n        /* \"#utility.yul\":6442:6445   */\n      dup6\n        /* \"#utility.yul\":6358:6454   */\n      tag_390\n      jump\t// in\n    tag_507:\n        /* \"#utility.yul\":6351:6454   */\n      swap4\n      pop\n        /* \"#utility.yul\":6480:6483   */\n      dup4\n        /* \"#utility.yul\":6525:6529   */\n      0x20\n        /* \"#utility.yul\":6517:6523   */\n      dup3\n        /* \"#utility.yul\":6513:6530   */\n      mul\n        /* \"#utility.yul\":6508:6511   */\n      dup6\n        /* \"#utility.yul\":6504:6531   */\n      add\n        /* \"#utility.yul\":6555:6621   */\n      tag_508\n        /* \"#utility.yul\":6615:6620   */\n      dup6\n        /* \"#utility.yul\":6555:6621   */\n      tag_391\n      jump\t// in\n    tag_508:\n        /* \"#utility.yul\":6644:6651   */\n      dup1\n        /* \"#utility.yul\":6675:6676   */\n      0x00\n        /* \"#utility.yul\":6660:7056   */\n    tag_509:\n        /* \"#utility.yul\":6685:6691   */\n      dup6\n        /* \"#utility.yul\":6682:6683   */\n      dup2\n        /* \"#utility.yul\":6679:6692   */\n      lt\n        /* \"#utility.yul\":6660:7056   */\n      iszero\n      tag_511\n      jumpi\n        /* \"#utility.yul\":6756:6765   */\n      dup5\n        /* \"#utility.yul\":6750:6754   */\n      dup5\n        /* \"#utility.yul\":6746:6766   */\n      sub\n        /* \"#utility.yul\":6741:6744   */\n      dup10\n        /* \"#utility.yul\":6734:6767   */\n      mstore\n        /* \"#utility.yul\":6807:6813   */\n      dup2\n        /* \"#utility.yul\":6801:6814   */\n      mload\n        /* \"#utility.yul\":6835:6919   */\n      tag_512\n        /* \"#utility.yul\":6914:6918   */\n      dup6\n        /* \"#utility.yul\":6899:6912   */\n      dup3\n        /* \"#utility.yul\":6835:6919   */\n      tag_394\n      jump\t// in\n    tag_512:\n        /* \"#utility.yul\":6827:6919   */\n      swap5\n      pop\n        /* \"#utility.yul\":6942:7012   */\n      tag_513\n        /* \"#utility.yul\":7005:7011   */\n      dup4\n        /* \"#utility.yul\":6942:7012   */\n      tag_395\n      jump\t// in\n    tag_513:\n        /* \"#utility.yul\":6932:7012   */\n      swap3\n      pop\n        /* \"#utility.yul\":7041:7045   */\n      0x20\n        /* \"#utility.yul\":7036:7039   */\n      dup11\n        /* \"#utility.yul\":7032:7046   */\n      add\n        /* \"#utility.yul\":7025:7046   */\n      swap10\n      pop\n        /* \"#utility.yul\":6720:7056   */\n      pop\n        /* \"#utility.yul\":6707:6708   */\n      0x01\n        /* \"#utility.yul\":6704:6705   */\n      dup2\n        /* \"#utility.yul\":6700:6709   */\n      add\n        /* \"#utility.yul\":6695:6709   */\n      swap1\n      pop\n        /* \"#utility.yul\":6660:7056   */\n      jump(tag_509)\n    tag_511:\n        /* \"#utility.yul\":6664:6678   */\n      pop\n        /* \"#utility.yul\":7072:7076   */\n      dup3\n        /* \"#utility.yul\":7065:7076   */\n      swap8\n      pop\n        /* \"#utility.yul\":7092:7095   */\n      dup8\n        /* \"#utility.yul\":7085:7095   */\n      swap6\n      pop\n        /* \"#utility.yul\":6254:7101   */\n      pop\n      pop\n      pop\n      pop\n      pop\n        /* \"#utility.yul\":6110:7101   */\n      swap3\n      swap2\n      pop\n      pop\n      jump\t// out\n        /* \"#utility.yul\":7107:7520   */\n    tag_48:\n        /* \"#utility.yul\":7270:7274   */\n      0x00\n        /* \"#utility.yul\":7308:7310   */\n      0x20\n        /* \"#utility.yul\":7297:7306   */\n      dup3\n        /* \"#utility.yul\":7293:7311   */\n      add\n        /* \"#utility.yul\":7285:7311   */\n      swap1\n      pop\n        /* \"#utility.yul\":7357:7366   */\n      dup2\n        /* \"#utility.yul\":7351:7355   */\n      dup2\n        /* \"#utility.yul\":7347:7367   */\n      sub\n        /* \"#utility.yul\":7343:7344   */\n      0x00\n        /* \"#utility.yul\":7332:7341   */\n      dup4\n        /* \"#utility.yul\":7328:7345   */\n      add\n        /* \"#utility.yul\":7321:7368   */\n      mstore\n        /* \"#utility.yul\":7385:7513   */\n      tag_515\n        /* \"#utility.yul\":7508:7512   */\n      dup2\n        /* \"#utility.yul\":7499:7505   */\n      dup5\n        /* \"#utility.yul\":7385:7513   */\n      tag_396\n      jump\t// in\n    tag_515:\n        /* \"#utility.yul\":7377:7513   */\n      swap1\n      pop\n        /* \"#utility.yul\":7107:7520   */\n      swap3\n      swap2\n      pop\n      pop\n      jump\t// out\n        /* \"#utility.yul\":7526:8000   */\n    tag_51:\n        /* \"#utility.yul\":7594:7600   */\n      0x00\n        /* \"#utility.yul\":7602:7608   */\n      dup1\n        /* \"#utility.yul\":7651:7653   */\n      0x40\n        /* \"#utility.yul\":7639:7648   */\n      dup4\n        /* \"#utility.yul\":7630:7637   */\n      dup6\n        /* \"#utility.yul\":7626:7649   */\n      sub\n        /* \"#utility.yul\":7622:7654   */\n      slt\n        /* \"#utility.yul\":7619:7738   */\n      iszero\n      tag_517\n      jumpi\n        /* \"#utility.yul\":7657:7736   */\n      tag_518\n      tag_369\n      jump\t// in\n    tag_518:\n        /* \"#utility.yul\":7619:7738   */\n    tag_517:\n        /* \"#utility.yul\":7777:7778   */\n      0x00\n        /* \"#utility.yul\":7802:7855   */\n      tag_519\n        /* \"#utility.yul\":7847:7854   */\n      dup6\n        /* \"#utility.yul\":7838:7844   */\n      dup3\n        /* \"#utility.yul\":7827:7836   */\n      dup7\n        /* \"#utility.yul\":7823:7845   */\n      add\n        /* \"#utility.yul\":7802:7855   */\n      tag_388\n      jump\t// in\n    tag_519:\n        /* \"#utility.yul\":7792:7855   */\n      swap3\n      pop\n        /* \"#utility.yul\":7748:7865   */\n      pop\n        /* \"#utility.yul\":7904:7906   */\n      0x20\n        /* \"#utility.yul\":7930:7983   */\n      tag_520\n        /* \"#utility.yul\":7975:7982   */\n      dup6\n        /* \"#utility.yul\":7966:7972   */\n      dup3\n        /* \"#utility.yul\":7955:7964   */\n      dup7\n        /* \"#utility.yul\":7951:7973   */\n      add\n        /* \"#utility.yul\":7930:7983   */\n      tag_383\n      jump\t// in\n    tag_520:\n        /* \"#utility.yul\":7920:7983   */\n      swap2\n      pop\n        /* \"#utility.yul\":7875:7993   */\n      pop\n        /* \"#utility.yul\":7526:8000   */\n      swap3\n      pop\n      swap3\n      swap1\n      pop\n      jump\t// out\n        /* \"#utility.yul\":8006:8625   */\n    tag_55:\n        /* \"#utility.yul\":8083:8089   */\n      0x00\n        /* \"#utility.yul\":8091:8097   */\n      dup1\n        /* \"#utility.yul\":8099:8105   */\n      0x00\n        /* \"#utility.yul\":8148:8150   */\n      0x60\n        /* \"#utility.yul\":8136:8145   */\n      dup5\n        /* \"#utility.yul\":8127:8134   */\n      dup7\n        /* \"#utility.yul\":8123:8146   */\n      sub\n        /* \"#utility.yul\":8119:8151   */\n      slt\n        /* \"#utility.yul\":8116:8235   */\n      iszero\n      tag_522\n      jumpi\n        /* \"#utility.yul\":8154:8233   */\n      tag_523\n      tag_369\n      jump\t// in\n    tag_523:\n        /* \"#utility.yul\":8116:8235   */\n    tag_522:\n        /* \"#utility.yul\":8274:8275   */\n      0x00\n        /* \"#utility.yul\":8299:8352   */\n      tag_524\n        /* \"#utility.yul\":8344:8351   */\n      dup7\n        /* \"#utility.yul\":8335:8341   */\n      dup3\n        /* \"#utility.yul\":8324:8333   */\n      dup8\n        /* \"#utility.yul\":8320:8342   */\n      add\n        /* \"#utility.yul\":8299:8352   */\n      tag_388\n      jump\t// in\n    tag_524:\n        /* \"#utility.yul\":8289:8352   */\n      swap4\n      pop\n        /* \"#utility.yul\":8245:8362   */\n      pop\n        /* \"#utility.yul\":8401:8403   */\n      0x20\n        /* \"#utility.yul\":8427:8480   */\n      tag_525\n        /* \"#utility.yul\":8472:8479   */\n      dup7\n        /* \"#utility.yul\":8463:8469   */\n      dup3\n        /* \"#utility.yul\":8452:8461   */\n      dup8\n        /* \"#utility.yul\":8448:8470   */\n      add\n        /* \"#utility.yul\":8427:8480   */\n      tag_388\n      jump\t// in\n    tag_525:\n        /* \"#utility.yul\":8417:8480   */\n      swap3\n      pop\n        /* \"#utility.yul\":8372:8490   */\n      pop\n        /* \"#utility.yul\":8529:8531   */\n      0x40\n        /* \"#utility.yul\":8555:8608   */\n      tag_526\n        /* \"#utility.yul\":8600:8607   */\n      dup7\n        /* \"#utility.yul\":8591:8597   */\n      dup3\n        /* \"#utility.yul\":8580:8589   */\n      dup8\n        /* \"#utility.yul\":8576:8598   */\n      add\n        /* \"#utility.yul\":8555:8608   */\n      tag_383\n      jump\t// in\n    tag_526:\n        /* \"#utility.yul\":8545:8608   */\n      swap2\n      pop\n        /* \"#utility.yul\":8500:8618   */\n      pop\n        /* \"#utility.yul\":8006:8625   */\n      swap3\n      pop\n      swap3\n      pop\n      swap3\n      jump\t// out\n        /* \"#utility.yul\":8631:8749   */\n    tag_397:\n        /* \"#utility.yul\":8718:8742   */\n      tag_528\n        /* \"#utility.yul\":8736:8741   */\n      dup2\n        /* \"#utility.yul\":8718:8742   */\n      tag_381\n      jump\t// in\n    tag_528:\n        /* \"#utility.yul\":8713:8716   */\n      dup3\n        /* \"#utility.yul\":8706:8743   */\n      mstore\n        /* \"#utility.yul\":8631:8749   */\n      pop\n      pop\n      jump\t// out\n        /* \"#utility.yul\":8755:8977   */\n    tag_67:\n        /* \"#utility.yul\":8848:8852   */\n      0x00\n        /* \"#utility.yul\":8886:8888   */\n      0x20\n        /* \"#utility.yul\":8875:8884   */\n      dup3\n        /* \"#utility.yul\":8871:8889   */\n      add\n        /* \"#utility.yul\":8863:8889   */\n      swap1\n      pop\n        /* \"#utility.yul\":8899:8970   */\n      tag_530\n        /* \"#utility.yul\":8967:8968   */\n      0x00\n        /* \"#utility.yul\":8956:8965   */\n      dup4\n        /* \"#utility.yul\":8952:8969   */\n      add\n        /* \"#utility.yul\":8943:8949   */\n      dup5\n        /* \"#utility.yul\":8899:8970   */\n      tag_397\n      jump\t// in\n    tag_530:\n        /* \"#utility.yul\":8755:8977   */\n      swap3\n      swap2\n      pop\n      pop\n      jump\t// out\n        /* \"#utility.yul\":8983:9099   */\n    tag_398:\n        /* \"#utility.yul\":9053:9074   */\n      tag_532\n        /* \"#utility.yul\":9068:9073   */\n      dup2\n        /* \"#utility.yul\":9053:9074   */\n      tag_374\n      jump\t// in\n    tag_532:\n        /* \"#utility.yul\":9046:9051   */\n      dup2\n        /* \"#utility.yul\":9043:9075   */\n      eq\n        /* \"#utility.yul\":9033:9093   */\n      tag_533\n      jumpi\n        /* \"#utility.yul\":9089:9090   */\n      0x00\n        /* \"#utility.yul\":9086:9087   */\n      dup1\n        /* \"#utility.yul\":9079:9091   */\n      revert\n        /* \"#utility.yul\":9033:9093   */\n    tag_533:\n        /* \"#utility.yul\":8983:9099   */\n      pop\n      jump\t// out\n        /* \"#utility.yul\":9105:9238   */\n    tag_399:\n        /* \"#utility.yul\":9148:9153   */\n      0x00\n        /* \"#utility.yul\":9186:9192   */\n      dup2\n        /* \"#utility.yul\":9173:9193   */\n      calldataload\n        /* \"#utility.yul\":9164:9193   */\n      swap1\n      pop\n        /* \"#utility.yul\":9202:9232   */\n      tag_535\n        /* \"#utility.yul\":9226:9231   */\n      dup2\n        /* \"#utility.yul\":9202:9232   */\n      tag_398\n      jump\t// in\n    tag_535:\n        /* \"#utility.yul\":9105:9238   */\n      swap3\n      swap2\n      pop\n      pop\n      jump\t// out\n        /* \"#utility.yul\":9244:9712   */\n    tag_86:\n        /* \"#utility.yul\":9309:9315   */\n      0x00\n        /* \"#utility.yul\":9317:9323   */\n      dup1\n        /* \"#utility.yul\":9366:9368   */\n      0x40\n        /* \"#utility.yul\":9354:9363   */\n      dup4\n        /* \"#utility.yul\":9345:9352   */\n      dup6\n        /* \"#utility.yul\":9341:9364   */\n      sub\n        /* \"#utility.yul\":9337:9369   */\n      slt\n        /* \"#utility.yul\":9334:9453   */\n      iszero\n      tag_537\n      jumpi\n        /* \"#utility.yul\":9372:9451   */\n      tag_538\n      tag_369\n      jump\t// in\n    tag_538:\n        /* \"#utility.yul\":9334:9453   */\n    tag_537:\n        /* \"#utility.yul\":9492:9493   */\n      0x00\n        /* \"#utility.yul\":9517:9570   */\n      tag_539\n        /* \"#utility.yul\":9562:9569   */\n      dup6\n        /* \"#utility.yul\":9553:9559   */\n      dup3\n        /* \"#utility.yul\":9542:9551   */\n      dup7\n        /* \"#utility.yul\":9538:9560   */\n      add\n        /* \"#utility.yul\":9517:9570   */\n      tag_388\n      jump\t// in\n    tag_539:\n        /* \"#utility.yul\":9507:9570   */\n      swap3\n      pop\n        /* \"#utility.yul\":9463:9580   */\n      pop\n        /* \"#utility.yul\":9619:9621   */\n      0x20\n        /* \"#utility.yul\":9645:9695   */\n      tag_540\n        /* \"#utility.yul\":9687:9694   */\n      dup6\n        /* \"#utility.yul\":9678:9684   */\n      dup3\n        /* \"#utility.yul\":9667:9676   */\n      dup7\n        /* \"#utility.yul\":9663:9685   */\n      add\n        /* \"#utility.yul\":9645:9695   */\n      tag_399\n      jump\t// in\n    tag_540:\n        /* \"#utility.yul\":9635:9695   */\n      swap2\n      pop\n        /* \"#utility.yul\":9590:9705   */\n      pop\n        /* \"#utility.yul\":9244:9712   */\n      swap3\n      pop\n      swap3\n      swap1\n      pop\n      jump\t// out\n        /* \"#utility.yul\":9718:9835   */\n    tag_400:\n        /* \"#utility.yul\":9827:9828   */\n      0x00\n        /* \"#utility.yul\":9824:9825   */\n      dup1\n        /* \"#utility.yul\":9817:9829   */\n      revert\n        /* \"#utility.yul\":9841:9958   */\n    tag_401:\n        /* \"#utility.yul\":9950:9951   */\n      0x00\n        /* \"#utility.yul\":9947:9948   */\n      dup1\n        /* \"#utility.yul\":9940:9952   */\n      revert\n        /* \"#utility.yul\":9964:10144   */\n    tag_130:\n        /* \"#utility.yul\":10012:10089   */\n      0x4e487b7100000000000000000000000000000000000000000000000000000000\n        /* \"#utility.yul\":10009:10010   */\n      0x00\n        /* \"#utility.yul\":10002:10090   */\n      mstore\n        /* \"#utility.yul\":10109:10113   */\n      0x41\n        /* \"#utility.yul\":10106:10107   */\n      0x04\n        /* \"#utility.yul\":10099:10114   */\n      mstore\n        /* \"#utility.yul\":10133:10137   */\n      0x24\n        /* \"#utility.yul\":10130:10131   */\n      0x00\n        /* \"#utility.yul\":10123:10138   */\n      revert\n        /* \"#utility.yul\":10150:10431   */\n    tag_402:\n        /* \"#utility.yul\":10233:10260   */\n      tag_545\n        /* \"#utility.yul\":10255:10259   */\n      dup3\n        /* \"#utility.yul\":10233:10260   */\n      tag_379\n      jump\t// in\n    tag_545:\n        /* \"#utility.yul\":10225:10231   */\n      dup2\n        /* \"#utility.yul\":10221:10261   */\n      add\n        /* \"#utility.yul\":10363:10369   */\n      dup2\n        /* \"#utility.yul\":10351:10361   */\n      dup2\n        /* \"#utility.yul\":10348:10370   */\n      lt\n        /* \"#utility.yul\":10327:10345   */\n      0xffffffffffffffff\n        /* \"#utility.yul\":10315:10325   */\n      dup3\n        /* \"#utility.yul\":10312:10346   */\n      gt\n        /* \"#utility.yul\":10309:10371   */\n      or\n        /* \"#utility.yul\":10306:10394   */\n      iszero\n      tag_546\n      jumpi\n        /* \"#utility.yul\":10374:10392   */\n      tag_547\n      tag_130\n      jump\t// in\n    tag_547:\n        /* \"#utility.yul\":10306:10394   */\n    tag_546:\n        /* \"#utility.yul\":10414:10424   */\n      dup1\n        /* \"#utility.yul\":10410:10412   */\n      0x40\n        /* \"#utility.yul\":10403:10425   */\n      mstore\n        /* \"#utility.yul\":10193:10431   */\n      pop\n        /* \"#utility.yul\":10150:10431   */\n      pop\n      pop\n      jump\t// out\n        /* \"#utility.yul\":10437:10566   */\n    tag_403:\n        /* \"#utility.yul\":10471:10477   */\n      0x00\n        /* \"#utility.yul\":10498:10518   */\n      tag_549\n      tag_368\n      jump\t// in\n    tag_549:\n        /* \"#utility.yul\":10488:10518   */\n      swap1\n      pop\n        /* \"#utility.yul\":10527:10560   */\n      tag_550\n        /* \"#utility.yul\":10555:10559   */\n      dup3\n        /* \"#utility.yul\":10547:10553   */\n      dup3\n        /* \"#utility.yul\":10527:10560   */\n      tag_402\n      jump\t// in\n    tag_550:\n        /* \"#utility.yul\":10437:10566   */\n      swap2\n      swap1\n      pop\n      jump\t// out\n        /* \"#utility.yul\":10572:10879   */\n    tag_404:\n        /* \"#utility.yul\":10633:10637   */\n      0x00\n        /* \"#utility.yul\":10723:10741   */\n      0xffffffffffffffff\n        /* \"#utility.yul\":10715:10721   */\n      dup3\n        /* \"#utility.yul\":10712:10742   */\n      gt\n        /* \"#utility.yul\":10709:10765   */\n      iszero\n      tag_552\n      jumpi\n        /* \"#utility.yul\":10745:10763   */\n      tag_553\n      tag_130\n      jump\t// in\n    tag_553:\n        /* \"#utility.yul\":10709:10765   */\n    tag_552:\n        /* \"#utility.yul\":10783:10812   */\n      tag_554\n        /* \"#utility.yul\":10805:10811   */\n      dup3\n        /* \"#utility.yul\":10783:10812   */\n      tag_379\n      jump\t// in\n    tag_554:\n        /* \"#utility.yul\":10775:10812   */\n      swap1\n      pop\n        /* \"#utility.yul\":10867:10871   */\n      0x20\n        /* \"#utility.yul\":10861:10865   */\n      dup2\n        /* \"#utility.yul\":10857:10872   */\n      add\n        /* \"#utility.yul\":10849:10872   */\n      swap1\n      pop\n        /* \"#utility.yul\":10572:10879   */\n      swap2\n      swap1\n      pop\n      jump\t// out\n        /* \"#utility.yul\":10885:11031   */\n    tag_405:\n        /* \"#utility.yul\":10982:10988   */\n      dup3\n        /* \"#utility.yul\":10977:10980   */\n      dup2\n        /* \"#utility.yul\":10972:10975   */\n      dup4\n        /* \"#utility.yul\":10959:10989   */\n      calldatacopy\n        /* \"#utility.yul\":11023:11024   */\n      0x00\n        /* \"#utility.yul\":11014:11020   */\n      dup4\n        /* \"#utility.yul\":11009:11012   */\n      dup4\n        /* \"#utility.yul\":11005:11021   */\n      add\n        /* \"#utility.yul\":10998:11025   */\n      mstore\n        /* \"#utility.yul\":10885:11031   */\n      pop\n      pop\n      pop\n      jump\t// out\n        /* \"#utility.yul\":11037:11460   */\n    tag_406:\n        /* \"#utility.yul\":11114:11119   */\n      0x00\n        /* \"#utility.yul\":11139:11204   */\n      tag_557\n        /* \"#utility.yul\":11155:11203   */\n      tag_558\n        /* \"#utility.yul\":11196:11202   */\n      dup5\n        /* \"#utility.yul\":11155:11203   */\n      tag_404\n      jump\t// in\n    tag_558:\n        /* \"#utility.yul\":11139:11204   */\n      tag_403\n      jump\t// in\n    tag_557:\n        /* \"#utility.yul\":11130:11204   */\n      swap1\n      pop\n        /* \"#utility.yul\":11227:11233   */\n      dup3\n        /* \"#utility.yul\":11220:11225   */\n      dup2\n        /* \"#utility.yul\":11213:11234   */\n      mstore\n        /* \"#utility.yul\":11265:11269   */\n      0x20\n        /* \"#utility.yul\":11258:11263   */\n      dup2\n        /* \"#utility.yul\":11254:11270   */\n      add\n        /* \"#utility.yul\":11303:11306   */\n      dup5\n        /* \"#utility.yul\":11294:11300   */\n      dup5\n        /* \"#utility.yul\":11289:11292   */\n      dup5\n        /* \"#utility.yul\":11285:11301   */\n      add\n        /* \"#utility.yul\":11282:11307   */\n      gt\n        /* \"#utility.yul\":11279:11391   */\n      iszero\n      tag_559\n      jumpi\n        /* \"#utility.yul\":11310:11389   */\n      tag_560\n      tag_401\n      jump\t// in\n    tag_560:\n        /* \"#utility.yul\":11279:11391   */\n    tag_559:\n        /* \"#utility.yul\":11400:11454   */\n      tag_561\n        /* \"#utility.yul\":11447:11453   */\n      dup5\n        /* \"#utility.yul\":11442:11445   */\n      dup3\n        /* \"#utility.yul\":11437:11440   */\n      dup6\n        /* \"#utility.yul\":11400:11454   */\n      tag_405\n      jump\t// in\n    tag_561:\n        /* \"#utility.yul\":11120:11460   */\n      pop\n        /* \"#utility.yul\":11037:11460   */\n      swap4\n      swap3\n      pop\n      pop\n      pop\n      jump\t// out\n        /* \"#utility.yul\":11479:11817   */\n    tag_407:\n        /* \"#utility.yul\":11534:11539   */\n      0x00\n        /* \"#utility.yul\":11583:11586   */\n      dup3\n        /* \"#utility.yul\":11576:11580   */\n      0x1f\n        /* \"#utility.yul\":11568:11574   */\n      dup4\n        /* \"#utility.yul\":11564:11581   */\n      add\n        /* \"#utility.yul\":11560:11587   */\n      slt\n        /* \"#utility.yul\":11550:11672   */\n      tag_563\n      jumpi\n        /* \"#utility.yul\":11591:11670   */\n      tag_564\n      tag_400\n      jump\t// in\n    tag_564:\n        /* \"#utility.yul\":11550:11672   */\n    tag_563:\n        /* \"#utility.yul\":11708:11714   */\n      dup2\n        /* \"#utility.yul\":11695:11715   */\n      calldataload\n        /* \"#utility.yul\":11733:11811   */\n      tag_565\n        /* \"#utility.yul\":11807:11810   */\n      dup5\n        /* \"#utility.yul\":11799:11805   */\n      dup3\n        /* \"#utility.yul\":11792:11796   */\n      0x20\n        /* \"#utility.yul\":11784:11790   */\n      dup7\n        /* \"#utility.yul\":11780:11797   */\n      add\n        /* \"#utility.yul\":11733:11811   */\n      tag_406\n      jump\t// in\n    tag_565:\n        /* \"#utility.yul\":11724:11811   */\n      swap2\n      pop\n        /* \"#utility.yul\":11540:11817   */\n      pop\n        /* \"#utility.yul\":11479:11817   */\n      swap3\n      swap2\n      pop\n      pop\n      jump\t// out\n        /* \"#utility.yul\":11823:12766   */\n    tag_90:\n        /* \"#utility.yul\":11918:11924   */\n      0x00\n        /* \"#utility.yul\":11926:11932   */\n      dup1\n        /* \"#utility.yul\":11934:11940   */\n      0x00\n        /* \"#utility.yul\":11942:11948   */\n      dup1\n        /* \"#utility.yul\":11991:11994   */\n      0x80\n        /* \"#utility.yul\":11979:11988   */\n      dup6\n        /* \"#utility.yul\":11970:11977   */\n      dup8\n        /* \"#utility.yul\":11966:11989   */\n      sub\n        /* \"#utility.yul\":11962:11995   */\n      slt\n        /* \"#utility.yul\":11959:12079   */\n      iszero\n      tag_567\n      jumpi\n        /* \"#utility.yul\":11998:12077   */\n      tag_568\n      tag_369\n      jump\t// in\n    tag_568:\n        /* \"#utility.yul\":11959:12079   */\n    tag_567:\n        /* \"#utility.yul\":12118:12119   */\n      0x00\n        /* \"#utility.yul\":12143:12196   */\n      tag_569\n        /* \"#utility.yul\":12188:12195   */\n      dup8\n        /* \"#utility.yul\":12179:12185   */\n      dup3\n        /* \"#utility.yul\":12168:12177   */\n      dup9\n        /* \"#utility.yul\":12164:12186   */\n      add\n        /* \"#utility.yul\":12143:12196   */\n      tag_388\n      jump\t// in\n    tag_569:\n        /* \"#utility.yul\":12133:12196   */\n      swap5\n      pop\n        /* \"#utility.yul\":12089:12206   */\n      pop\n        /* \"#utility.yul\":12245:12247   */\n      0x20\n        /* \"#utility.yul\":12271:12324   */\n      tag_570\n        /* \"#utility.yul\":12316:12323   */\n      dup8\n        /* \"#utility.yul\":12307:12313   */\n      dup3\n        /* \"#utility.yul\":12296:12305   */\n      dup9\n        /* \"#utility.yul\":12292:12314   */\n      add\n        /* \"#utility.yul\":12271:12324   */\n      tag_388\n      jump\t// in\n    tag_570:\n        /* \"#utility.yul\":12261:12324   */\n      swap4\n      pop\n        /* \"#utility.yul\":12216:12334   */\n      pop\n        /* \"#utility.yul\":12373:12375   */\n      0x40\n        /* \"#utility.yul\":12399:12452   */\n      tag_571\n        /* \"#utility.yul\":12444:12451   */\n      dup8\n        /* \"#utility.yul\":12435:12441   */\n      dup3\n        /* \"#utility.yul\":12424:12433   */\n      dup9\n        /* \"#utility.yul\":12420:12442   */\n      add\n        /* \"#utility.yul\":12399:12452   */\n      tag_383\n      jump\t// in\n    tag_571:\n        /* \"#utility.yul\":12389:12452   */\n      swap3\n      pop\n        /* \"#utility.yul\":12344:12462   */\n      pop\n        /* \"#utility.yul\":12529:12531   */\n      0x60\n        /* \"#utility.yul\":12518:12527   */\n      dup6\n        /* \"#utility.yul\":12514:12532   */\n      add\n        /* \"#utility.yul\":12501:12533   */\n      calldataload\n        /* \"#utility.yul\":12560:12578   */\n      0xffffffffffffffff\n        /* \"#utility.yul\":12552:12558   */\n      dup2\n        /* \"#utility.yul\":12549:12579   */\n      gt\n        /* \"#utility.yul\":12546:12663   */\n      iszero\n      tag_572\n      jumpi\n        /* \"#utility.yul\":12582:12661   */\n      tag_573\n      tag_370\n      jump\t// in\n    tag_573:\n        /* \"#utility.yul\":12546:12663   */\n    tag_572:\n        /* \"#utility.yul\":12687:12749   */\n      tag_574\n        /* \"#utility.yul\":12741:12748   */\n      dup8\n        /* \"#utility.yul\":12732:12738   */\n      dup3\n        /* \"#utility.yul\":12721:12730   */\n      dup9\n        /* \"#utility.yul\":12717:12739   */\n      add\n        /* \"#utility.yul\":12687:12749   */\n      tag_407\n      jump\t// in\n    tag_574:\n        /* \"#utility.yul\":12677:12749   */\n      swap2\n      pop\n        /* \"#utility.yul\":12472:12759   */\n      pop\n        /* \"#utility.yul\":11823:12766   */\n      swap3\n      swap6\n      swap2\n      swap5\n      pop\n      swap3\n      pop\n      jump\t// out\n        /* \"#utility.yul\":12772:13080   */\n    tag_408:\n        /* \"#utility.yul\":12834:12838   */\n      0x00\n        /* \"#utility.yul\":12924:12942   */\n      0xffffffffffffffff\n        /* \"#utility.yul\":12916:12922   */\n      dup3\n        /* \"#utility.yul\":12913:12943   */\n      gt\n        /* \"#utility.yul\":12910:12966   */\n      iszero\n      tag_576\n      jumpi\n        /* \"#utility.yul\":12946:12964   */\n      tag_577\n      tag_130\n      jump\t// in\n    tag_577:\n        /* \"#utility.yul\":12910:12966   */\n    tag_576:\n        /* \"#utility.yul\":12984:13013   */\n      tag_578\n        /* \"#utility.yul\":13006:13012   */\n      dup3\n        /* \"#utility.yul\":12984:13013   */\n      tag_379\n      jump\t// in\n    tag_578:\n        /* \"#utility.yul\":12976:13013   */\n      swap1\n      pop\n        /* \"#utility.yul\":13068:13072   */\n      0x20\n        /* \"#utility.yul\":13062:13066   */\n      dup2\n        /* \"#utility.yul\":13058:13073   */\n      add\n        /* \"#utility.yul\":13050:13073   */\n      swap1\n      pop\n        /* \"#utility.yul\":12772:13080   */\n      swap2\n      swap1\n      pop\n      jump\t// out\n        /* \"#utility.yul\":13086:13511   */\n    tag_409:\n        /* \"#utility.yul\":13164:13169   */\n      0x00\n        /* \"#utility.yul\":13189:13255   */\n      tag_580\n        /* \"#utility.yul\":13205:13254   */\n      tag_581\n        /* \"#utility.yul\":13247:13253   */\n      dup5\n        /* \"#utility.yul\":13205:13254   */\n      tag_408\n      jump\t// in\n    tag_581:\n        /* \"#utility.yul\":13189:13255   */\n      tag_403\n      jump\t// in\n    tag_580:\n        /* \"#utility.yul\":13180:13255   */\n      swap1\n      pop\n        /* \"#utility.yul\":13278:13284   */\n      dup3\n        /* \"#utility.yul\":13271:13276   */\n      dup2\n        /* \"#utility.yul\":13264:13285   */\n      mstore\n        /* \"#utility.yul\":13316:13320   */\n      0x20\n        /* \"#utility.yul\":13309:13314   */\n      dup2\n        /* \"#utility.yul\":13305:13321   */\n      add\n        /* \"#utility.yul\":13354:13357   */\n      dup5\n        /* \"#utility.yul\":13345:13351   */\n      dup5\n        /* \"#utility.yul\":13340:13343   */\n      dup5\n        /* \"#utility.yul\":13336:13352   */\n      add\n        /* \"#utility.yul\":13333:13358   */\n      gt\n        /* \"#utility.yul\":13330:13442   */\n      iszero\n      tag_582\n      jumpi\n        /* \"#utility.yul\":13361:13440   */\n      tag_583\n      tag_401\n      jump\t// in\n    tag_583:\n        /* \"#utility.yul\":13330:13442   */\n    tag_582:\n        /* \"#utility.yul\":13451:13505   */\n      tag_584\n        /* \"#utility.yul\":13498:13504   */\n      dup5\n        /* \"#utility.yul\":13493:13496   */\n      dup3\n        /* \"#utility.yul\":13488:13491   */\n      dup6\n        /* \"#utility.yul\":13451:13505   */\n      tag_405\n      jump\t// in\n    tag_584:\n        /* \"#utility.yul\":13170:13511   */\n      pop\n        /* \"#utility.yul\":13086:13511   */\n      swap4\n      swap3\n      pop\n      pop\n      pop\n      jump\t// out\n        /* \"#utility.yul\":13531:13871   */\n    tag_410:\n        /* \"#utility.yul\":13587:13592   */\n      0x00\n        /* \"#utility.yul\":13636:13639   */\n      dup3\n        /* \"#utility.yul\":13629:13633   */\n      0x1f\n        /* \"#utility.yul\":13621:13627   */\n      dup4\n        /* \"#utility.yul\":13617:13634   */\n      add\n        /* \"#utility.yul\":13613:13640   */\n      slt\n        /* \"#utility.yul\":13603:13725   */\n      tag_586\n      jumpi\n        /* \"#utility.yul\":13644:13723   */\n      tag_587\n      tag_400\n      jump\t// in\n    tag_587:\n        /* \"#utility.yul\":13603:13725   */\n    tag_586:\n        /* \"#utility.yul\":13761:13767   */\n      dup2\n        /* \"#utility.yul\":13748:13768   */\n      calldataload\n        /* \"#utility.yul\":13786:13865   */\n      tag_588\n        /* \"#utility.yul\":13861:13864   */\n      dup5\n        /* \"#utility.yul\":13853:13859   */\n      dup3\n        /* \"#utility.yul\":13846:13850   */\n      0x20\n        /* \"#utility.yul\":13838:13844   */\n      dup7\n        /* \"#utility.yul\":13834:13851   */\n      add\n        /* \"#utility.yul\":13786:13865   */\n      tag_409\n      jump\t// in\n    tag_588:\n        /* \"#utility.yul\":13777:13865   */\n      swap2\n      pop\n        /* \"#utility.yul\":13593:13871   */\n      pop\n        /* \"#utility.yul\":13531:13871   */\n      swap3\n      swap2\n      pop\n      pop\n      jump\t// out\n        /* \"#utility.yul\":13877:14531   */\n    tag_98:\n        /* \"#utility.yul\":13955:13961   */\n      0x00\n        /* \"#utility.yul\":13963:13969   */\n      dup1\n        /* \"#utility.yul\":14012:14014   */\n      0x40\n        /* \"#utility.yul\":14000:14009   */\n      dup4\n        /* \"#utility.yul\":13991:13998   */\n      dup6\n        /* \"#utility.yul\":13987:14010   */\n      sub\n        /* \"#utility.yul\":13983:14015   */\n      slt\n        /* \"#utility.yul\":13980:14099   */\n      iszero\n      tag_590\n      jumpi\n        /* \"#utility.yul\":14018:14097   */\n      tag_591\n      tag_369\n      jump\t// in\n    tag_591:\n        /* \"#utility.yul\":13980:14099   */\n    tag_590:\n        /* \"#utility.yul\":14138:14139   */\n      0x00\n        /* \"#utility.yul\":14163:14216   */\n      tag_592\n        /* \"#utility.yul\":14208:14215   */\n      dup6\n        /* \"#utility.yul\":14199:14205   */\n      dup3\n        /* \"#utility.yul\":14188:14197   */\n      dup7\n        /* \"#utility.yul\":14184:14206   */\n      add\n        /* \"#utility.yul\":14163:14216   */\n      tag_388\n      jump\t// in\n    tag_592:\n        /* \"#utility.yul\":14153:14216   */\n      swap3\n      pop\n        /* \"#utility.yul\":14109:14226   */\n      pop\n        /* \"#utility.yul\":14293:14295   */\n      0x20\n        /* \"#utility.yul\":14282:14291   */\n      dup4\n        /* \"#utility.yul\":14278:14296   */\n      add\n        /* \"#utility.yul\":14265:14297   */\n      calldataload\n        /* \"#utility.yul\":14324:14342   */\n      0xffffffffffffffff\n        /* \"#utility.yul\":14316:14322   */\n      dup2\n        /* \"#utility.yul\":14313:14343   */\n      gt\n        /* \"#utility.yul\":14310:14427   */\n      iszero\n      tag_593\n      jumpi\n        /* \"#utility.yul\":14346:14425   */\n      tag_594\n      tag_370\n      jump\t// in\n    tag_594:\n        /* \"#utility.yul\":14310:14427   */\n    tag_593:\n        /* \"#utility.yul\":14451:14514   */\n      tag_595\n        /* \"#utility.yul\":14506:14513   */\n      dup6\n        /* \"#utility.yul\":14497:14503   */\n      dup3\n        /* \"#utility.yul\":14486:14495   */\n      dup7\n        /* \"#utility.yul\":14482:14504   */\n      add\n        /* \"#utility.yul\":14451:14514   */\n      tag_410\n      jump\t// in\n    tag_595:\n        /* \"#utility.yul\":14441:14514   */\n      swap2\n      pop\n        /* \"#utility.yul\":14236:14524   */\n      pop\n        /* \"#utility.yul\":13877:14531   */\n      swap3\n      pop\n      swap3\n      swap1\n      pop\n      jump\t// out\n        /* \"#utility.yul\":14537:15011   */\n    tag_102:\n        /* \"#utility.yul\":14605:14611   */\n      0x00\n        /* \"#utility.yul\":14613:14619   */\n      dup1\n        /* \"#utility.yul\":14662:14664   */\n      0x40\n        /* \"#utility.yul\":14650:14659   */\n      dup4\n        /* \"#utility.yul\":14641:14648   */\n      dup6\n        /* \"#utility.yul\":14637:14660   */\n      sub\n        /* \"#utility.yul\":14633:14665   */\n      slt\n        /* \"#utility.yul\":14630:14749   */\n      iszero\n      tag_597\n      jumpi\n        /* \"#utility.yul\":14668:14747   */\n      tag_598\n      tag_369\n      jump\t// in\n    tag_598:\n        /* \"#utility.yul\":14630:14749   */\n    tag_597:\n        /* \"#utility.yul\":14788:14789   */\n      0x00\n        /* \"#utility.yul\":14813:14866   */\n      tag_599\n        /* \"#utility.yul\":14858:14865   */\n      dup6\n        /* \"#utility.yul\":14849:14855   */\n      dup3\n        /* \"#utility.yul\":14838:14847   */\n      dup7\n        /* \"#utility.yul\":14834:14856   */\n      add\n        /* \"#utility.yul\":14813:14866   */\n      tag_388\n      jump\t// in\n    tag_599:\n        /* \"#utility.yul\":14803:14866   */\n      swap3\n      pop\n        /* \"#utility.yul\":14759:14876   */\n      pop\n        /* \"#utility.yul\":14915:14917   */\n      0x20\n        /* \"#utility.yul\":14941:14994   */\n      tag_600\n        /* \"#utility.yul\":14986:14993   */\n      dup6\n        /* \"#utility.yul\":14977:14983   */\n      dup3\n        /* \"#utility.yul\":14966:14975   */\n      dup7\n        /* \"#utility.yul\":14962:14984   */\n      add\n        /* \"#utility.yul\":14941:14994   */\n      tag_388\n      jump\t// in\n    tag_600:\n        /* \"#utility.yul\":14931:14994   */\n      swap2\n      pop\n        /* \"#utility.yul\":14886:15004   */\n      pop\n        /* \"#utility.yul\":14537:15011   */\n      swap3\n      pop\n      swap3\n      swap1\n      pop\n      jump\t// out\n        /* \"#utility.yul\":15017:15197   */\n    tag_411:\n        /* \"#utility.yul\":15065:15142   */\n      0x4e487b7100000000000000000000000000000000000000000000000000000000\n        /* \"#utility.yul\":15062:15063   */\n      0x00\n        /* \"#utility.yul\":15055:15143   */\n      mstore\n        /* \"#utility.yul\":15162:15166   */\n      0x22\n        /* \"#utility.yul\":15159:15160   */\n      0x04\n        /* \"#utility.yul\":15152:15167   */\n      mstore\n        /* \"#utility.yul\":15186:15190   */\n      0x24\n        /* \"#utility.yul\":15183:15184   */\n      0x00\n        /* \"#utility.yul\":15176:15191   */\n      revert\n        /* \"#utility.yul\":15203:15523   */\n    tag_117:\n        /* \"#utility.yul\":15247:15253   */\n      0x00\n        /* \"#utility.yul\":15284:15285   */\n      0x02\n        /* \"#utility.yul\":15278:15282   */\n      dup3\n        /* \"#utility.yul\":15274:15286   */\n      div\n        /* \"#utility.yul\":15264:15286   */\n      swap1\n      pop\n        /* \"#utility.yul\":15331:15332   */\n      0x01\n        /* \"#utility.yul\":15325:15329   */\n      dup3\n        /* \"#utility.yul\":15321:15333   */\n      and\n        /* \"#utility.yul\":15352:15370   */\n      dup1\n        /* \"#utility.yul\":15342:15423   */\n      tag_603\n      jumpi\n        /* \"#utility.yul\":15408:15412   */\n      0x7f\n        /* \"#utility.yul\":15400:15406   */\n      dup3\n        /* \"#utility.yul\":15396:15413   */\n      and\n        /* \"#utility.yul\":15386:15413   */\n      swap2\n      pop\n        /* \"#utility.yul\":15342:15423   */\n    tag_603:\n        /* \"#utility.yul\":15470:15472   */\n      0x20\n        /* \"#utility.yul\":15462:15468   */\n      dup3\n        /* \"#utility.yul\":15459:15473   */\n      lt\n        /* \"#utility.yul\":15439:15457   */\n      dup2\n        /* \"#utility.yul\":15436:15474   */\n      sub\n        /* \"#utility.yul\":15433:15517   */\n      tag_604\n      jumpi\n        /* \"#utility.yul\":15489:15507   */\n      tag_605\n      tag_411\n      jump\t// in\n    tag_605:\n        /* \"#utility.yul\":15433:15517   */\n    tag_604:\n        /* \"#utility.yul\":15254:15523   */\n      pop\n        /* \"#utility.yul\":15203:15523   */\n      swap2\n      swap1\n      pop\n      jump\t// out\n        /* \"#utility.yul\":15529:15709   */\n    tag_143:\n        /* \"#utility.yul\":15577:15654   */\n      0x4e487b7100000000000000000000000000000000000000000000000000000000\n        /* \"#utility.yul\":15574:15575   */\n      0x00\n        /* \"#utility.yul\":15567:15655   */\n      mstore\n        /* \"#utility.yul\":15674:15678   */\n      0x32\n        /* \"#utility.yul\":15671:15672   */\n      0x04\n        /* \"#utility.yul\":15664:15679   */\n      mstore\n        /* \"#utility.yul\":15698:15702   */\n      0x24\n        /* \"#utility.yul\":15695:15696   */\n      0x00\n        /* \"#utility.yul\":15688:15703   */\n      revert\n        /* \"#utility.yul\":15715:16157   */\n    tag_157:\n        /* \"#utility.yul\":15864:15868   */\n      0x00\n        /* \"#utility.yul\":15902:15904   */\n      0x60\n        /* \"#utility.yul\":15891:15900   */\n      dup3\n        /* \"#utility.yul\":15887:15905   */\n      add\n        /* \"#utility.yul\":15879:15905   */\n      swap1\n      pop\n        /* \"#utility.yul\":15915:15986   */\n      tag_608\n        /* \"#utility.yul\":15983:15984   */\n      0x00\n        /* \"#utility.yul\":15972:15981   */\n      dup4\n        /* \"#utility.yul\":15968:15985   */\n      add\n        /* \"#utility.yul\":15959:15965   */\n      dup7\n        /* \"#utility.yul\":15915:15986   */\n      tag_386\n      jump\t// in\n    tag_608:\n        /* \"#utility.yul\":15996:16068   */\n      tag_609\n        /* \"#utility.yul\":16064:16066   */\n      0x20\n        /* \"#utility.yul\":16053:16062   */\n      dup4\n        /* \"#utility.yul\":16049:16067   */\n      add\n        /* \"#utility.yul\":16040:16046   */\n      dup6\n        /* \"#utility.yul\":15996:16068   */\n      tag_397\n      jump\t// in\n    tag_609:\n        /* \"#utility.yul\":16078:16150   */\n      tag_610\n        /* \"#utility.yul\":16146:16148   */\n      0x40\n        /* \"#utility.yul\":16135:16144   */\n      dup4\n        /* \"#utility.yul\":16131:16149   */\n      add\n        /* \"#utility.yul\":16122:16128   */\n      dup5\n        /* \"#utility.yul\":16078:16150   */\n      tag_386\n      jump\t// in\n    tag_610:\n        /* \"#utility.yul\":15715:16157   */\n      swap5\n      swap4\n      pop\n      pop\n      pop\n      pop\n      jump\t// out\n        /* \"#utility.yul\":16163:16343   */\n    tag_412:\n        /* \"#utility.yul\":16211:16288   */\n      0x4e487b7100000000000000000000000000000000000000000000000000000000\n        /* \"#utility.yul\":16208:16209   */\n      0x00\n        /* \"#utility.yul\":16201:16289   */\n      mstore\n        /* \"#utility.yul\":16308:16312   */\n      0x11\n        /* \"#utility.yul\":16305:16306   */\n      0x04\n        /* \"#utility.yul\":16298:16313   */\n      mstore\n        /* \"#utility.yul\":16332:16336   */\n      0x24\n        /* \"#utility.yul\":16329:16330   */\n      0x00\n        /* \"#utility.yul\":16322:16337   */\n      revert\n        /* \"#utility.yul\":16349:16582   */\n    tag_196:\n        /* \"#utility.yul\":16388:16391   */\n      0x00\n        /* \"#utility.yul\":16411:16435   */\n      tag_613\n        /* \"#utility.yul\":16429:16434   */\n      dup3\n        /* \"#utility.yul\":16411:16435   */\n      tag_381\n      jump\t// in\n    tag_613:\n        /* \"#utility.yul\":16402:16435   */\n      swap2\n      pop\n        /* \"#utility.yul\":16457:16523   */\n      0xffffffffffffffffffffffffffffffffffffffffffffffffffffffffffffffff\n        /* \"#utility.yul\":16450:16455   */\n      dup3\n        /* \"#utility.yul\":16447:16524   */\n      sub\n        /* \"#utility.yul\":16444:16547   */\n      tag_614\n      jumpi\n        /* \"#utility.yul\":16527:16545   */\n      tag_615\n      tag_412\n      jump\t// in\n    tag_615:\n        /* \"#utility.yul\":16444:16547   */\n    tag_614:\n        /* \"#utility.yul\":16574:16575   */\n      0x01\n        /* \"#utility.yul\":16567:16572   */\n      dup3\n        /* \"#utility.yul\":16563:16576   */\n      add\n        /* \"#utility.yul\":16556:16576   */\n      swap1\n      pop\n        /* \"#utility.yul\":16349:16582   */\n      swap2\n      swap1\n      pop\n      jump\t// out\n        /* \"#utility.yul\":16588:16729   */\n    tag_413:\n        /* \"#utility.yul\":16637:16641   */\n      0x00\n        /* \"#utility.yul\":16660:16663   */\n      dup2\n        /* \"#utility.yul\":16652:16663   */\n      swap1\n      pop\n        /* \"#utility.yul\":16683:16686   */\n      dup2\n        /* \"#utility.yul\":16680:16681   */\n      0x00\n        /* \"#utility.yul\":16673:16687   */\n      mstore\n        /* \"#utility.yul\":16717:16721   */\n      0x20\n        /* \"#utility.yul\":16714:16715   */\n      0x00\n        /* \"#utility.yul\":16704:16722   */\n      keccak256\n        /* \"#utility.yul\":16696:16722   */\n      swap1\n      pop\n        /* \"#utility.yul\":16588:16729   */\n      swap2\n      swap1\n      pop\n      jump\t// out\n        /* \"#utility.yul\":16735:16828   */\n    tag_414:\n        /* \"#utility.yul\":16772:16778   */\n      0x00\n        /* \"#utility.yul\":16819:16821   */\n      0x20\n        /* \"#utility.yul\":16814:16816   */\n      0x1f\n        /* \"#utility.yul\":16807:16812   */\n      dup4\n        /* \"#utility.yul\":16803:16817   */\n      add\n        /* \"#utility.yul\":16799:16822   */\n      div\n        /* \"#utility.yul\":16789:16822   */\n      swap1\n      pop\n        /* \"#utility.yul\":16735:16828   */\n      swap2\n      swap1\n      pop\n      jump\t// out\n        /* \"#utility.yul\":16834:16941   */\n    tag_415:\n        /* \"#utility.yul\":16878:16886   */\n      0x00\n        /* \"#utility.yul\":16928:16933   */\n      dup3\n        /* \"#utility.yul\":16922:16926   */\n      dup3\n        /* \"#utility.yul\":16918:16934   */\n      shl\n        /* \"#utility.yul\":16897:16934   */\n      swap1\n      pop\n        /* \"#utility.yul\":16834:16941   */\n      swap3\n      swap2\n      pop\n      pop\n      jump\t// out\n        /* \"#utility.yul\":16947:17340   */\n    tag_416:\n        /* \"#utility.yul\":17016:17022   */\n      0x00\n        /* \"#utility.yul\":17066:17067   */\n      0x08\n        /* \"#utility.yul\":17054:17064   */\n      dup4\n        /* \"#utility.yul\":17050:17068   */\n      mul\n        /* \"#utility.yul\":17089:17186   */\n      tag_620\n        /* \"#utility.yul\":17119:17185   */\n      0xffffffffffffffffffffffffffffffffffffffffffffffffffffffffffffffff\n        /* \"#utility.yul\":17108:17117   */\n      dup3\n        /* \"#utility.yul\":17089:17186   */\n      tag_415\n      jump\t// in\n    tag_620:\n        /* \"#utility.yul\":17207:17246   */\n      tag_621\n        /* \"#utility.yul\":17237:17245   */\n      dup7\n        /* \"#utility.yul\":17226:17235   */\n      dup4\n        /* \"#utility.yul\":17207:17246   */\n      tag_415\n      jump\t// in\n    tag_621:\n        /* \"#utility.yul\":17195:17246   */\n      swap6\n      pop\n        /* \"#utility.yul\":17279:17283   */\n      dup1\n        /* \"#utility.yul\":17275:17284   */\n      not\n        /* \"#utility.yul\":17268:17273   */\n      dup5\n        /* \"#utility.yul\":17264:17285   */\n      and\n        /* \"#utility.yul\":17255:17285   */\n      swap4\n      pop\n        /* \"#utility.yul\":17328:17332   */\n      dup1\n        /* \"#utility.yul\":17318:17326   */\n      dup7\n        /* \"#utility.yul\":17314:17333   */\n      and\n        /* \"#utility.yul\":17307:17312   */\n      dup5\n        /* \"#utility.yul\":17304:17334   */\n      or\n        /* \"#utility.yul\":17294:17334   */\n      swap3\n      pop\n        /* \"#utility.yul\":17023:17340   */\n      pop\n      pop\n        /* \"#utility.yul\":16947:17340   */\n      swap4\n      swap3\n      pop\n      pop\n      pop\n      jump\t// out\n        /* \"#utility.yul\":17346:17406   */\n    tag_417:\n        /* \"#utility.yul\":17374:17377   */\n      0x00\n        /* \"#utility.yul\":17395:17400   */\n      dup2\n        /* \"#utility.yul\":17388:17400   */\n      swap1\n      pop\n        /* \"#utility.yul\":17346:17406   */\n      swap2\n      swap1\n      pop\n      jump\t// out\n        /* \"#utility.yul\":17412:17554   */\n    tag_418:\n        /* \"#utility.yul\":17462:17471   */\n      0x00\n        /* \"#utility.yul\":17495:17548   */\n      tag_624\n        /* \"#utility.yul\":17513:17547   */\n      tag_625\n        /* \"#utility.yul\":17522:17546   */\n      tag_626\n        /* \"#utility.yul\":17540:17545   */\n      dup5\n        /* \"#utility.yul\":17522:17546   */\n      tag_381\n      jump\t// in\n    tag_626:\n        /* \"#utility.yul\":17513:17547   */\n      tag_417\n      jump\t// in\n    tag_625:\n        /* \"#utility.yul\":17495:17548   */\n      tag_381\n      jump\t// in\n    tag_624:\n        /* \"#utility.yul\":17482:17548   */\n      swap1\n      pop\n        /* \"#utility.yul\":17412:17554   */\n      swap2\n      swap1\n      pop\n      jump\t// out\n        /* \"#utility.yul\":17560:17635   */\n    tag_419:\n        /* \"#utility.yul\":17603:17606   */\n      0x00\n        /* \"#utility.yul\":17624:17629   */\n      dup2\n        /* \"#utility.yul\":17617:17629   */\n      swap1\n      pop\n        /* \"#utility.yul\":17560:17635   */\n      swap2\n      swap1\n      pop\n      jump\t// out\n        /* \"#utility.yul\":17641:17910   */\n    tag_420:\n        /* \"#utility.yul\":17751:17790   */\n      tag_629\n        /* \"#utility.yul\":17782:17789   */\n      dup4\n        /* \"#utility.yul\":17751:17790   */\n      tag_418\n      jump\t// in\n    tag_629:\n        /* \"#utility.yul\":17812:17903   */\n      tag_630\n        /* \"#utility.yul\":17861:17902   */\n      tag_631\n        /* \"#utility.yul\":17885:17901   */\n      dup3\n        /* \"#utility.yul\":17861:17902   */\n      tag_419\n      jump\t// in\n    tag_631:\n        /* \"#utility.yul\":17853:17859   */\n      dup5\n        /* \"#utility.yul\":17846:17850   */\n      dup5\n        /* \"#utility.yul\":17840:17851   */\n      sload\n        /* \"#utility.yul\":17812:17903   */\n      tag_416\n      jump\t// in\n    tag_630:\n        /* \"#utility.yul\":17806:17810   */\n      dup3\n        /* \"#utility.yul\":17799:17904   */\n      sstore\n        /* \"#utility.yul\":17717:17910   */\n      pop\n        /* \"#utility.yul\":17641:17910   */\n      pop\n      pop\n      pop\n      jump\t// out\n        /* \"#utility.yul\":17916:17989   */\n    tag_421:\n        /* \"#utility.yul\":17961:17964   */\n      0x00\n        /* \"#utility.yul\":17916:17989   */\n      swap1\n      jump\t// out\n        /* \"#utility.yul\":17995:18184   */\n    tag_422:\n        /* \"#utility.yul\":18072:18104   */\n      tag_634\n      tag_421\n      jump\t// in\n    tag_634:\n        /* \"#utility.yul\":18113:18178   */\n      tag_635\n        /* \"#utility.yul\":18171:18177   */\n      dup2\n        /* \"#utility.yul\":18163:18169   */\n      dup5\n        /* \"#utility.yul\":18157:18161   */\n      dup5\n        /* \"#utility.yul\":18113:18178   */\n      tag_420\n      jump\t// in\n    tag_635:\n        /* \"#utility.yul\":18048:18184   */\n      pop\n        /* \"#utility.yul\":17995:18184   */\n      pop\n      pop\n      jump\t// out\n        /* \"#utility.yul\":18190:18376   */\n    tag_423:\n        /* \"#utility.yul\":18250:18370   */\n    tag_637:\n        /* \"#utility.yul\":18267:18270   */\n      dup2\n        /* \"#utility.yul\":18260:18265   */\n      dup2\n        /* \"#utility.yul\":18257:18271   */\n      lt\n        /* \"#utility.yul\":18250:18370   */\n      iszero\n      tag_639\n      jumpi\n        /* \"#utility.yul\":18321:18360   */\n      tag_640\n        /* \"#utility.yul\":18358:18359   */\n      0x00\n        /* \"#utility.yul\":18351:18356   */\n      dup3\n        /* \"#utility.yul\":18321:18360   */\n      tag_422\n      jump\t// in\n    tag_640:\n        /* \"#utility.yul\":18294:18295   */\n      0x01\n        /* \"#utility.yul\":18287:18292   */\n      dup2\n        /* \"#utility.yul\":18283:18296   */\n      add\n        /* \"#utility.yul\":18274:18296   */\n      swap1\n      pop\n        /* \"#utility.yul\":18250:18370   */\n      jump(tag_637)\n    tag_639:\n        /* \"#utility.yul\":18190:18376   */\n      pop\n      pop\n      jump\t// out\n        /* \"#utility.yul\":18382:18925   */\n    tag_424:\n        /* \"#utility.yul\":18483:18485   */\n      0x1f\n        /* \"#utility.yul\":18478:18481   */\n      dup3\n        /* \"#utility.yul\":18475:18486   */\n      gt\n        /* \"#utility.yul\":18472:18918   */\n      iszero\n      tag_642\n      jumpi\n        /* \"#utility.yul\":18517:18555   */\n      tag_643\n        /* \"#utility.yul\":18549:18554   */\n      dup2\n        /* \"#utility.yul\":18517:18555   */\n      tag_413\n      jump\t// in\n    tag_643:\n        /* \"#utility.yul\":18601:18630   */\n      tag_644\n        /* \"#utility.yul\":18619:18629   */\n      dup5\n        /* \"#utility.yul\":18601:18630   */\n      tag_414\n      jump\t// in\n    tag_644:\n        /* \"#utility.yul\":18591:18599   */\n      dup2\n        /* \"#utility.yul\":18587:18631   */\n      add\n        /* \"#utility.yul\":18784:18786   */\n      0x20\n        /* \"#utility.yul\":18772:18782   */\n      dup6\n        /* \"#utility.yul\":18769:18787   */\n      lt\n        /* \"#utility.yul\":18766:18815   */\n      iszero\n      tag_645\n      jumpi\n        /* \"#utility.yul\":18805:18813   */\n      dup2\n        /* \"#utility.yul\":18790:18813   */\n      swap1\n      pop\n        /* \"#utility.yul\":18766:18815   */\n    tag_645:\n        /* \"#utility.yul\":18828:18908   */\n      tag_646\n        /* \"#utility.yul\":18884:18906   */\n      tag_647\n        /* \"#utility.yul\":18902:18905   */\n      dup6\n        /* \"#utility.yul\":18884:18906   */\n      tag_414\n      jump\t// in\n    tag_647:\n        /* \"#utility.yul\":18874:18882   */\n      dup4\n        /* \"#utility.yul\":18870:18907   */\n      add\n        /* \"#utility.yul\":18857:18868   */\n      dup3\n        /* \"#utility.yul\":18828:18908   */\n      tag_423\n      jump\t// in\n    tag_646:\n        /* \"#utility.yul\":18487:18918   */\n      pop\n      pop\n        /* \"#utility.yul\":18472:18918   */\n    tag_642:\n        /* \"#utility.yul\":18382:18925   */\n      pop\n      pop\n      pop\n      jump\t// out\n        /* \"#utility.yul\":18931:19048   */\n    tag_425:\n        /* \"#utility.yul\":18985:18993   */\n      0x00\n        /* \"#utility.yul\":19035:19040   */\n      dup3\n        /* \"#utility.yul\":19029:19033   */\n      dup3\n        /* \"#utility.yul\":19025:19041   */\n      shr\n        /* \"#utility.yul\":19004:19041   */\n      swap1\n      pop\n        /* \"#utility.yul\":18931:19048   */\n      swap3\n      swap2\n      pop\n      pop\n      jump\t// out\n        /* \"#utility.yul\":19054:19223   */\n    tag_426:\n        /* \"#utility.yul\":19098:19104   */\n      0x00\n        /* \"#utility.yul\":19131:19182   */\n      tag_650\n        /* \"#utility.yul\":19179:19180   */\n      0x00\n        /* \"#utility.yul\":19175:19181   */\n      not\n        /* \"#utility.yul\":19167:19172   */\n      dup5\n        /* \"#utility.yul\":19164:19165   */\n      0x08\n        /* \"#utility.yul\":19160:19173   */\n      mul\n        /* \"#utility.yul\":19131:19182   */\n      tag_425\n      jump\t// in\n    tag_650:\n        /* \"#utility.yul\":19127:19183   */\n      not\n        /* \"#utility.yul\":19212:19216   */\n      dup1\n        /* \"#utility.yul\":19206:19210   */\n      dup4\n        /* \"#utility.yul\":19202:19217   */\n      and\n        /* \"#utility.yul\":19192:19217   */\n      swap2\n      pop\n        /* \"#utility.yul\":19105:19223   */\n      pop\n        /* \"#utility.yul\":19054:19223   */\n      swap3\n      swap2\n      pop\n      pop\n      jump\t// out\n        /* \"#utility.yul\":19228:19523   */\n    tag_427:\n        /* \"#utility.yul\":19304:19308   */\n      0x00\n        /* \"#utility.yul\":19450:19479   */\n      tag_652\n        /* \"#utility.yul\":19475:19478   */\n      dup4\n        /* \"#utility.yul\":19469:19473   */\n      dup4\n        /* \"#utility.yul\":19450:19479   */\n      tag_426\n      jump\t// in\n    tag_652:\n        /* \"#utility.yul\":19442:19479   */\n      swap2\n      pop\n        /* \"#utility.yul\":19512:19515   */\n      dup3\n        /* \"#utility.yul\":19509:19510   */\n      0x02\n        /* \"#utility.yul\":19505:19516   */\n      mul\n        /* \"#utility.yul\":19499:19503   */\n      dup3\n        /* \"#utility.yul\":19496:19517   */\n      or\n        /* \"#utility.yul\":19488:19517   */\n      swap1\n      pop\n        /* \"#utility.yul\":19228:19523   */\n      swap3\n      swap2\n      pop\n      pop\n      jump\t// out\n        /* \"#utility.yul\":19528:20923   */\n    tag_202:\n        /* \"#utility.yul\":19645:19682   */\n      tag_654\n        /* \"#utility.yul\":19678:19681   */\n      dup3\n        /* \"#utility.yul\":19645:19682   */\n      tag_376\n      jump\t// in\n    tag_654:\n        /* \"#utility.yul\":19747:19765   */\n      0xffffffffffffffff\n        /* \"#utility.yul\":19739:19745   */\n      dup2\n        /* \"#utility.yul\":19736:19766   */\n      gt\n        /* \"#utility.yul\":19733:19789   */\n      iszero\n      tag_655\n      jumpi\n        /* \"#utility.yul\":19769:19787   */\n      tag_656\n      tag_130\n      jump\t// in\n    tag_656:\n        /* \"#utility.yul\":19733:19789   */\n    tag_655:\n        /* \"#utility.yul\":19813:19851   */\n      tag_657\n        /* \"#utility.yul\":19845:19849   */\n      dup3\n        /* \"#utility.yul\":19839:19850   */\n      sload\n        /* \"#utility.yul\":19813:19851   */\n      tag_117\n      jump\t// in\n    tag_657:\n        /* \"#utility.yul\":19898:19965   */\n      tag_658\n        /* \"#utility.yul\":19958:19964   */\n      dup3\n        /* \"#utility.yul\":19950:19956   */\n      dup3\n        /* \"#utility.yul\":19944:19948   */\n      dup6\n        /* \"#utility.yul\":19898:19965   */\n      tag_424\n      jump\t// in\n    tag_658:\n        /* \"#utility.yul\":19992:19993   */\n      0x00\n        /* \"#utility.yul\":20016:20020   */\n      0x20\n        /* \"#utility.yul\":20003:20020   */\n      swap1\n      pop\n        /* \"#utility.yul\":20048:20050   */\n      0x1f\n        /* \"#utility.yul\":20040:20046   */\n      dup4\n        /* \"#utility.yul\":20037:20051   */\n      gt\n        /* \"#utility.yul\":20065:20066   */\n      0x01\n        /* \"#utility.yul\":20060:20678   */\n      dup2\n      eq\n      tag_660\n      jumpi\n        /* \"#utility.yul\":20722:20723   */\n      0x00\n        /* \"#utility.yul\":20739:20745   */\n      dup5\n        /* \"#utility.yul\":20736:20813   */\n      iszero\n      tag_661\n      jumpi\n        /* \"#utility.yul\":20788:20797   */\n      dup3\n        /* \"#utility.yul\":20783:20786   */\n      dup8\n        /* \"#utility.yul\":20779:20798   */\n      add\n        /* \"#utility.yul\":20773:20799   */\n      mload\n        /* \"#utility.yul\":20764:20799   */\n      swap1\n      pop\n        /* \"#utility.yul\":20736:20813   */\n    tag_661:\n        /* \"#utility.yul\":20839:20906   */\n      tag_662\n        /* \"#utility.yul\":20899:20905   */\n      dup6\n        /* \"#utility.yul\":20892:20897   */\n      dup3\n        /* \"#utility.yul\":20839:20906   */\n      tag_427\n      jump\t// in\n    tag_662:\n        /* \"#utility.yul\":20833:20837   */\n      dup7\n        /* \"#utility.yul\":20826:20907   */\n      sstore\n        /* \"#utility.yul\":20695:20917   */\n      pop\n        /* \"#utility.yul\":20030:20917   */\n      jump(tag_659)\n        /* \"#utility.yul\":20060:20678   */\n    tag_660:\n        /* \"#utility.yul\":20112:20116   */\n      0x1f\n        /* \"#utility.yul\":20108:20117   */\n      not\n        /* \"#utility.yul\":20100:20106   */\n      dup5\n        /* \"#utility.yul\":20096:20118   */\n      and\n        /* \"#utility.yul\":20146:20183   */\n      tag_663\n        /* \"#utility.yul\":20178:20182   */\n      dup7\n        /* \"#utility.yul\":20146:20183   */\n      tag_413\n      jump\t// in\n    tag_663:\n        /* \"#utility.yul\":20205:20206   */\n      0x00\n        /* \"#utility.yul\":20219:20427   */\n    tag_664:\n        /* \"#utility.yul\":20233:20240   */\n      dup3\n        /* \"#utility.yul\":20230:20231   */\n      dup2\n        /* \"#utility.yul\":20227:20241   */\n      lt\n        /* \"#utility.yul\":20219:20427   */\n      iszero\n      tag_666\n      jumpi\n        /* \"#utility.yul\":20312:20321   */\n      dup5\n        /* \"#utility.yul\":20307:20310   */\n      dup10\n        /* \"#utility.yul\":20303:20322   */\n      add\n        /* \"#utility.yul\":20297:20323   */\n      mload\n        /* \"#utility.yul\":20289:20295   */\n      dup3\n        /* \"#utility.yul\":20282:20324   */\n      sstore\n        /* \"#utility.yul\":20363:20364   */\n      0x01\n        /* \"#utility.yul\":20355:20361   */\n      dup3\n        /* \"#utility.yul\":20351:20365   */\n      add\n        /* \"#utility.yul\":20341:20365   */\n      swap2\n      pop\n        /* \"#utility.yul\":20410:20412   */\n      0x20\n        /* \"#utility.yul\":20399:20408   */\n      dup6\n        /* \"#utility.yul\":20395:20413   */\n      add\n        /* \"#utility.yul\":20382:20413   */\n      swap5\n      pop\n        /* \"#utility.yul\":20256:20260   */\n      0x20\n        /* \"#utility.yul\":20253:20254   */\n      dup2\n        /* \"#utility.yul\":20249:20261   */\n      add\n        /* \"#utility.yul\":20244:20261   */\n      swap1\n      pop\n        /* \"#utility.yul\":20219:20427   */\n      jump(tag_664)\n    tag_666:\n        /* \"#utility.yul\":20455:20461   */\n      dup7\n        /* \"#utility.yul\":20446:20453   */\n      dup4\n        /* \"#utility.yul\":20443:20462   */\n      lt\n        /* \"#utility.yul\":20440:20619   */\n      iszero\n      tag_667\n      jumpi\n        /* \"#utility.yul\":20513:20522   */\n      dup5\n        /* \"#utility.yul\":20508:20511   */\n      dup10\n        /* \"#utility.yul\":20504:20523   */\n      add\n        /* \"#utility.yul\":20498:20524   */\n      mload\n        /* \"#utility.yul\":20556:20604   */\n      tag_668\n        /* \"#utility.yul\":20598:20602   */\n      0x1f\n        /* \"#utility.yul\":20590:20596   */\n      dup10\n        /* \"#utility.yul\":20586:20603   */\n      and\n        /* \"#utility.yul\":20575:20584   */\n      dup3\n        /* \"#utility.yul\":20556:20604   */\n      tag_426\n      jump\t// in\n    tag_668:\n        /* \"#utility.yul\":20548:20554   */\n      dup4\n        /* \"#utility.yul\":20541:20605   */\n      sstore\n        /* \"#utility.yul\":20463:20619   */\n      pop\n        /* \"#utility.yul\":20440:20619   */\n    tag_667:\n        /* \"#utility.yul\":20665:20666   */\n      0x01\n        /* \"#utility.yul\":20661:20662   */\n      0x02\n        /* \"#utility.yul\":20653:20659   */\n      dup9\n        /* \"#utility.yul\":20649:20663   */\n      mul\n        /* \"#utility.yul\":20645:20667   */\n      add\n        /* \"#utility.yul\":20639:20643   */\n      dup9\n        /* \"#utility.yul\":20632:20668   */\n      sstore\n        /* \"#utility.yul\":20067:20678   */\n      pop\n      pop\n      pop\n        /* \"#utility.yul\":20030:20917   */\n    tag_659:\n      pop\n        /* \"#utility.yul\":19620:20923   */\n      pop\n      pop\n      pop\n        /* \"#utility.yul\":19528:20923   */\n      pop\n      pop\n      jump\t// out\n        /* \"#utility.yul\":20929:21027   */\n    tag_428:\n        /* \"#utility.yul\":20980:20986   */\n      0x00\n        /* \"#utility.yul\":21014:21019   */\n      dup2\n        /* \"#utility.yul\":21008:21020   */\n      mload\n        /* \"#utility.yul\":20998:21020   */\n      swap1\n      pop\n        /* \"#utility.yul\":20929:21027   */\n      swap2\n      swap1\n      pop\n      jump\t// out\n        /* \"#utility.yul\":21033:21201   */\n    tag_429:\n        /* \"#utility.yul\":21116:21127   */\n      0x00\n        /* \"#utility.yul\":21150:21156   */\n      dup3\n        /* \"#utility.yul\":21145:21148   */\n      dup3\n        /* \"#utility.yul\":21138:21157   */\n      mstore\n        /* \"#utility.yul\":21190:21194   */\n      0x20\n        /* \"#utility.yul\":21185:21188   */\n      dup3\n        /* \"#utility.yul\":21181:21195   */\n      add\n        /* \"#utility.yul\":21166:21195   */\n      swap1\n      pop\n        /* \"#utility.yul\":21033:21201   */\n      swap3\n      swap2\n      pop\n      pop\n      jump\t// out\n        /* \"#utility.yul\":21207:21580   */\n    tag_430:\n        /* \"#utility.yul\":21293:21296   */\n      0x00\n        /* \"#utility.yul\":21321:21359   */\n      tag_672\n        /* \"#utility.yul\":21353:21358   */\n      dup3\n        /* \"#utility.yul\":21321:21359   */\n      tag_428\n      jump\t// in\n    tag_672:\n        /* \"#utility.yul\":21375:21445   */\n      tag_673\n        /* \"#utility.yul\":21438:21444   */\n      dup2\n        /* \"#utility.yul\":21433:21436   */\n      dup6\n        /* \"#utility.yul\":21375:21445   */\n      tag_429\n      jump\t// in\n    tag_673:\n        /* \"#utility.yul\":21368:21445   */\n      swap4\n      pop\n        /* \"#utility.yul\":21454:21519   */\n      tag_674\n        /* \"#utility.yul\":21512:21518   */\n      dup2\n        /* \"#utility.yul\":21507:21510   */\n      dup6\n        /* \"#utility.yul\":21500:21504   */\n      0x20\n        /* \"#utility.yul\":21493:21498   */\n      dup7\n        /* \"#utility.yul\":21489:21505   */\n      add\n        /* \"#utility.yul\":21454:21519   */\n      tag_378\n      jump\t// in\n    tag_674:\n        /* \"#utility.yul\":21544:21573   */\n      tag_675\n        /* \"#utility.yul\":21566:21572   */\n      dup2\n        /* \"#utility.yul\":21544:21573   */\n      tag_379\n      jump\t// in\n    tag_675:\n        /* \"#utility.yul\":21539:21542   */\n      dup5\n        /* \"#utility.yul\":21535:21574   */\n      add\n        /* \"#utility.yul\":21528:21574   */\n      swap2\n      pop\n        /* \"#utility.yul\":21297:21580   */\n      pop\n        /* \"#utility.yul\":21207:21580   */\n      swap3\n      swap2\n      pop\n      pop\n      jump\t// out\n        /* \"#utility.yul\":21586:22226   */\n    tag_248:\n        /* \"#utility.yul\":21781:21785   */\n      0x00\n        /* \"#utility.yul\":21819:21822   */\n      0x80\n        /* \"#utility.yul\":21808:21817   */\n      dup3\n        /* \"#utility.yul\":21804:21823   */\n      add\n        /* \"#utility.yul\":21796:21823   */\n      swap1\n      pop\n        /* \"#utility.yul\":21833:21904   */\n      tag_677\n        /* \"#utility.yul\":21901:21902   */\n      0x00\n        /* \"#utility.yul\":21890:21899   */\n      dup4\n        /* \"#utility.yul\":21886:21903   */\n      add\n        /* \"#utility.yul\":21877:21883   */\n      dup8\n        /* \"#utility.yul\":21833:21904   */\n      tag_386\n      jump\t// in\n    tag_677:\n        /* \"#utility.yul\":21914:21986   */\n      tag_678\n        /* \"#utility.yul\":21982:21984   */\n      0x20\n        /* \"#utility.yul\":21971:21980   */\n      dup4\n        /* \"#utility.yul\":21967:21985   */\n      add\n        /* \"#utility.yul\":21958:21964   */\n      dup7\n        /* \"#utility.yul\":21914:21986   */\n      tag_386\n      jump\t// in\n    tag_678:\n        /* \"#utility.yul\":21996:22068   */\n      tag_679\n        /* \"#utility.yul\":22064:22066   */\n      0x40\n        /* \"#utility.yul\":22053:22062   */\n      dup4\n        /* \"#utility.yul\":22049:22067   */\n      add\n        /* \"#utility.yul\":22040:22046   */\n      dup6\n        /* \"#utility.yul\":21996:22068   */\n      tag_397\n      jump\t// in\n    tag_679:\n        /* \"#utility.yul\":22115:22124   */\n      dup2\n        /* \"#utility.yul\":22109:22113   */\n      dup2\n        /* \"#utility.yul\":22105:22125   */\n      sub\n        /* \"#utility.yul\":22100:22102   */\n      0x60\n        /* \"#utility.yul\":22089:22098   */\n      dup4\n        /* \"#utility.yul\":22085:22103   */\n      add\n        /* \"#utility.yul\":22078:22126   */\n      mstore\n        /* \"#utility.yul\":22143:22219   */\n      tag_680\n        /* \"#utility.yul\":22214:22218   */\n      dup2\n        /* \"#utility.yul\":22205:22211   */\n      dup5\n        /* \"#utility.yul\":22143:22219   */\n      tag_430\n      jump\t// in\n    tag_680:\n        /* \"#utility.yul\":22135:22219   */\n      swap1\n      pop\n        /* \"#utility.yul\":21586:22226   */\n      swap6\n      swap5\n      pop\n      pop\n      pop\n      pop\n      pop\n      jump\t// out\n        /* \"#utility.yul\":22232:22373   */\n    tag_431:\n        /* \"#utility.yul\":22288:22293   */\n      0x00\n        /* \"#utility.yul\":22319:22325   */\n      dup2\n        /* \"#utility.yul\":22313:22326   */\n      mload\n        /* \"#utility.yul\":22304:22326   */\n      swap1\n      pop\n        /* \"#utility.yul\":22335:22367   */\n      tag_682\n        /* \"#utility.yul\":22361:22366   */\n      dup2\n        /* \"#utility.yul\":22335:22367   */\n      tag_372\n      jump\t// in\n    tag_682:\n        /* \"#utility.yul\":22232:22373   */\n      swap3\n      swap2\n      pop\n      pop\n      jump\t// out\n        /* \"#utility.yul\":22379:22728   */\n    tag_251:\n        /* \"#utility.yul\":22448:22454   */\n      0x00\n        /* \"#utility.yul\":22497:22499   */\n      0x20\n        /* \"#utility.yul\":22485:22494   */\n      dup3\n        /* \"#utility.yul\":22476:22483   */\n      dup5\n        /* \"#utility.yul\":22472:22495   */\n      sub\n        /* \"#utility.yul\":22468:22500   */\n      slt\n        /* \"#utility.yul\":22465:22584   */\n      iszero\n      tag_684\n      jumpi\n        /* \"#utility.yul\":22503:22582   */\n      tag_685\n      tag_369\n      jump\t// in\n    tag_685:\n        /* \"#utility.yul\":22465:22584   */\n    tag_684:\n        /* \"#utility.yul\":22623:22624   */\n      0x00\n        /* \"#utility.yul\":22648:22711   */\n      tag_686\n        /* \"#utility.yul\":22703:22710   */\n      dup5\n        /* \"#utility.yul\":22694:22700   */\n      dup3\n        /* \"#utility.yul\":22683:22692   */\n      dup6\n        /* \"#utility.yul\":22679:22701   */\n      add\n        /* \"#utility.yul\":22648:22711   */\n      tag_431\n      jump\t// in\n    tag_686:\n        /* \"#utility.yul\":22638:22711   */\n      swap2\n      pop\n        /* \"#utility.yul\":22594:22721   */\n      pop\n        /* \"#utility.yul\":22379:22728   */\n      swap3\n      swap2\n      pop\n      pop\n      jump\t// out\n        /* \"#utility.yul\":22734:22882   */\n    tag_432:\n        /* \"#utility.yul\":22836:22847   */\n      0x00\n        /* \"#utility.yul\":22873:22876   */\n      dup2\n        /* \"#utility.yul\":22858:22876   */\n      swap1\n      pop\n        /* \"#utility.yul\":22734:22882   */\n      swap3\n      swap2\n      pop\n      pop\n      jump\t// out\n        /* \"#utility.yul\":22888:23278   */\n    tag_433:\n        /* \"#utility.yul\":22994:22997   */\n      0x00\n        /* \"#utility.yul\":23022:23061   */\n      tag_689\n        /* \"#utility.yul\":23055:23060   */\n      dup3\n        /* \"#utility.yul\":23022:23061   */\n      tag_376\n      jump\t// in\n    tag_689:\n        /* \"#utility.yul\":23077:23166   */\n      tag_690\n        /* \"#utility.yul\":23159:23165   */\n      dup2\n        /* \"#utility.yul\":23154:23157   */\n      dup6\n        /* \"#utility.yul\":23077:23166   */\n      tag_432\n      jump\t// in\n    tag_690:\n        /* \"#utility.yul\":23070:23166   */\n      swap4\n      pop\n        /* \"#utility.yul\":23175:23240   */\n      tag_691\n        /* \"#utility.yul\":23233:23239   */\n      dup2\n        /* \"#utility.yul\":23228:23231   */\n      dup6\n        /* \"#utility.yul\":23221:23225   */\n      0x20\n        /* \"#utility.yul\":23214:23219   */\n      dup7\n        /* \"#utility.yul\":23210:23226   */\n      add\n        /* \"#utility.yul\":23175:23240   */\n      tag_378\n      jump\t// in\n    tag_691:\n        /* \"#utility.yul\":23265:23271   */\n      dup1\n        /* \"#utility.yul\":23260:23263   */\n      dup5\n        /* \"#utility.yul\":23256:23272   */\n      add\n        /* \"#utility.yul\":23249:23272   */\n      swap2\n      pop\n        /* \"#utility.yul\":22998:23278   */\n      pop\n        /* \"#utility.yul\":22888:23278   */\n      swap3\n      swap2\n      pop\n      pop\n      jump\t// out\n        /* \"#utility.yul\":23284:23719   */\n    tag_276:\n        /* \"#utility.yul\":23464:23467   */\n      0x00\n        /* \"#utility.yul\":23486:23581   */\n      tag_693\n        /* \"#utility.yul\":23577:23580   */\n      dup3\n        /* \"#utility.yul\":23568:23574   */\n      dup6\n        /* \"#utility.yul\":23486:23581   */\n      tag_433\n      jump\t// in\n    tag_693:\n        /* \"#utility.yul\":23479:23581   */\n      swap2\n      pop\n        /* \"#utility.yul\":23598:23693   */\n      tag_694\n        /* \"#utility.yul\":23689:23692   */\n      dup3\n        /* \"#utility.yul\":23680:23686   */\n      dup5\n        /* \"#utility.yul\":23598:23693   */\n      tag_433\n      jump\t// in\n    tag_694:\n        /* \"#utility.yul\":23591:23693   */\n      swap2\n      pop\n        /* \"#utility.yul\":23710:23713   */\n      dup2\n        /* \"#utility.yul\":23703:23713   */\n      swap1\n      pop\n        /* \"#utility.yul\":23284:23719   */\n      swap4\n      swap3\n      pop\n      pop\n      pop\n      jump\t// out\n        /* \"#utility.yul\":23725:24057   */\n    tag_309:\n        /* \"#utility.yul\":23846:23850   */\n      0x00\n        /* \"#utility.yul\":23884:23886   */\n      0x40\n        /* \"#utility.yul\":23873:23882   */\n      dup3\n        /* \"#utility.yul\":23869:23887   */\n      add\n        /* \"#utility.yul\":23861:23887   */\n      swap1\n      pop\n        /* \"#utility.yul\":23897:23968   */\n      tag_696\n        /* \"#utility.yul\":23965:23966   */\n      0x00\n        /* \"#utility.yul\":23954:23963   */\n      dup4\n        /* \"#utility.yul\":23950:23967   */\n      add\n        /* \"#utility.yul\":23941:23947   */\n      dup6\n        /* \"#utility.yul\":23897:23968   */\n      tag_386\n      jump\t// in\n    tag_696:\n        /* \"#utility.yul\":23978:24050   */\n      tag_697\n        /* \"#utility.yul\":24046:24048   */\n      0x20\n        /* \"#utility.yul\":24035:24044   */\n      dup4\n        /* \"#utility.yul\":24031:24049   */\n      add\n        /* \"#utility.yul\":24022:24028   */\n      dup5\n        /* \"#utility.yul\":23978:24050   */\n      tag_397\n      jump\t// in\n    tag_697:\n        /* \"#utility.yul\":23725:24057   */\n      swap4\n      swap3\n      pop\n      pop\n      pop\n      jump\t// out\n        /* \"#utility.yul\":24063:24243   */\n    tag_340:\n        /* \"#utility.yul\":24111:24188   */\n      0x4e487b7100000000000000000000000000000000000000000000000000000000\n        /* \"#utility.yul\":24108:24109   */\n      0x00\n        /* \"#utility.yul\":24101:24189   */\n      mstore\n        /* \"#utility.yul\":24208:24212   */\n      0x12\n        /* \"#utility.yul\":24205:24206   */\n      0x04\n        /* \"#utility.yul\":24198:24213   */\n      mstore\n        /* \"#utility.yul\":24232:24236   */\n      0x24\n        /* \"#utility.yul\":24229:24230   */\n      0x00\n        /* \"#utility.yul\":24222:24237   */\n      revert\n\n    auxdata: 0xa2646970667358221220952e649de24fe7f5b453e904e6af4cffe6a1f7cc86fb71f9780d44f583839ce464736f6c63430008180033\n}\n",
				"bytecode": {
					"linkReferences": {},
					"object": "608060405234801562000010575f80fd5b50604051620031813803806200318183398181016040528101906200003691906200027c565b806040518060400160405280600781526020017f4c6567616c416c000000000000000000000000000000000000000000000000008152506040518060400160405280600281526020017f4149000000000000000000000000000000000000000000000000000000000000815250815f9081620000b3919062000510565b508060019081620000c5919062000510565b5050505f73ffffffffffffffffffffffffffffffffffffffff168173ffffffffffffffffffffffffffffffffffffffff16036200013b575f6040517f1e4fbdf700000000000000000000000000000000000000000000000000000000815260040162000132919062000605565b60405180910390fd5b6200014c816200015460201b60201c565b505062000620565b5f60075f9054906101000a900473ffffffffffffffffffffffffffffffffffffffff1690508160075f6101000a81548173ffffffffffffffffffffffffffffffffffffffff021916908373ffffffffffffffffffffffffffffffffffffffff1602179055508173ffffffffffffffffffffffffffffffffffffffff168173ffffffffffffffffffffffffffffffffffffffff167f8be0079c531659141344cd1fd0a4f28419497f9722a3daafe3b4186f6b6457e060405160405180910390a35050565b5f80fd5b5f73ffffffffffffffffffffffffffffffffffffffff82169050919050565b5f62000246826200021b565b9050919050565b62000258816200023a565b811462000263575f80fd5b50565b5f8151905062000276816200024d565b92915050565b5f6020828403121562000294576200029362000217565b5b5f620002a38482850162000266565b91505092915050565b5f81519050919050565b7f4e487b71000000000000000000000000000000000000000000000000000000005f52604160045260245ffd5b7f4e487b71000000000000000000000000000000000000000000000000000000005f52602260045260245ffd5b5f60028204905060018216806200032857607f821691505b6020821081036200033e576200033d620002e3565b5b50919050565b5f819050815f5260205f209050919050565b5f6020601f8301049050919050565b5f82821b905092915050565b5f60088302620003a27fffffffffffffffffffffffffffffffffffffffffffffffffffffffffffffffff8262000365565b620003ae868362000365565b95508019841693508086168417925050509392505050565b5f819050919050565b5f819050919050565b5f620003f8620003f2620003ec84620003c6565b620003cf565b620003c6565b9050919050565b5f819050919050565b6200041383620003d8565b6200042b6200042282620003ff565b84845462000371565b825550505050565b5f90565b6200044162000433565b6200044e81848462000408565b505050565b5b818110156200047557620004695f8262000437565b60018101905062000454565b5050565b601f821115620004c4576200048e8162000344565b620004998462000356565b81016020851015620004a9578190505b620004c1620004b88562000356565b83018262000453565b50505b505050565b5f82821c905092915050565b5f620004e65f1984600802620004c9565b1980831691505092915050565b5f620005008383620004d5565b9150826002028217905092915050565b6200051b82620002ac565b67ffffffffffffffff811115620005375762000536620002b6565b5b62000543825462000310565b6200055082828562000479565b5f60209050601f83116001811462000586575f841562000571578287015190505b6200057d8582620004f3565b865550620005ec565b601f198416620005968662000344565b5f5b82811015620005bf5784890151825560018201915060208501945060208101905062000598565b86831015620005df5784890151620005db601f891682620004d5565b8355505b6001600288020188555050505b505050505050565b620005ff816200023a565b82525050565b5f6020820190506200061a5f830184620005f4565b92915050565b612b53806200062e5f395ff3fe608060405234801561000f575f80fd5b5060043610610135575f3560e01c806370a08231116100b6578063b88d4fde1161007a578063b88d4fde1461034b578063c87b56dd14610367578063d204c45e14610397578063e985e9c5146103b3578063f2fde38b146103e3578063faaaae4b146103ff57610135565b806370a08231146102b9578063715018a6146102e95780638da5cb5b146102f357806395d89b4114610311578063a22cb4651461032f57610135565b806323b872dd116100fd57806323b872dd1461020357806342842e0e1461021f578063472371621461023b5780634a60f6201461026b5780636352211e1461028957610135565b806301ffc9a71461013957806306fdde0314610169578063081812fc1461018757806308aa3e2a146101b7578063095ea7b3146101e7575b5f80fd5b610153600480360381019061014e9190611ebc565b61042f565b6040516101609190611f01565b60405180910390f35b610171610440565b60405161017e9190611fa4565b60405180910390f35b6101a1600480360381019061019c9190611ff7565b6104cf565b6040516101ae9190612061565b60405180910390f35b6101d160048036038101906101cc91906120a4565b6104ea565b6040516101de91906121d2565b60405180910390f35b61020160048036038101906101fc91906121f2565b6106c9565b005b61021d60048036038101906102189190612230565b6106df565b005b61023960048036038101906102349190612230565b6107de565b005b610255600480360381019061025091906121f2565b6107fd565b6040516102629190611fa4565b60405180910390f35b6102736108a3565b604051610280919061228f565b60405180910390f35b6102a3600480360381019061029e9190611ff7565b6108a9565b6040516102b09190612061565b60405180910390f35b6102d360048036038101906102ce91906120a4565b6108ba565b6040516102e0919061228f565b60405180910390f35b6102f1610970565b005b6102fb610983565b6040516103089190612061565b60405180910390f35b6103196109ab565b6040516103269190611fa4565b60405180910390f35b610349600480360381019061034491906122d2565b610a3b565b005b6103656004803603810190610360919061243c565b610a51565b005b610381600480360381019061037c9190611ff7565b610a6e565b60405161038e9190611fa4565b60405180910390f35b6103b160048036038101906103ac919061255a565b610a80565b005b6103cd60048036038101906103c891906125b4565b610b9b565b6040516103da9190611f01565b60405180910390f35b6103fd60048036038101906103f891906120a4565b610c29565b005b610419600480360381019061041491906120a4565b610cad565b604051610426919061228f565b60405180910390f35b5f61043982610cc2565b9050919050565b60605f805461044e9061261f565b80601f016020809104026020016040519081016040528092919081815260200182805461047a9061261f565b80156104c55780601f1061049c576101008083540402835291602001916104c5565b820191905f5260205f20905b8154815290600101906020018083116104a857829003601f168201915b5050505050905090565b5f6104d982610d22565b506104e382610da8565b9050919050565b60605f60095f8473ffffffffffffffffffffffffffffffffffffffff1673ffffffffffffffffffffffffffffffffffffffff1681526020019081526020015f205467ffffffffffffffff81111561054457610543612318565b5b60405190808252806020026020018201604052801561057757816020015b60608152602001906001900390816105625790505b5090505f5b60095f8573ffffffffffffffffffffffffffffffffffffffff1673ffffffffffffffffffffffffffffffffffffffff1681526020019081526020015f20548110156106bf57600a5f8573ffffffffffffffffffffffffffffffffffffffff1673ffffffffffffffffffffffffffffffffffffffff1681526020019081526020015f205f8281526020019081526020015f2080546106189061261f565b80601f01602080910402602001604051908101604052809291908181526020018280546106449061261f565b801561068f5780601f106106665761010080835404028352916020019161068f565b820191905f5260205f20905b81548152906001019060200180831161067257829003601f168201915b50505050508282815181106106a7576106a661264f565b5b6020026020010181905250808060010191505061057c565b5080915050919050565b6106db82826106d6610de1565b610de8565b5050565b5f73ffffffffffffffffffffffffffffffffffffffff168273ffffffffffffffffffffffffffffffffffffffff160361074f575f6040517f64a0ae920000000000000000000000000000000000000000000000000000000081526004016107469190612061565b60405180910390fd5b5f610762838361075d610de1565b610dfa565b90508373ffffffffffffffffffffffffffffffffffffffff168173ffffffffffffffffffffffffffffffffffffffff16146107d8578382826040517f64283d7b0000000000000000000000000000000000000000000000000000000081526004016107cf9392919061267c565b60405180910390fd5b50505050565b6107f883838360405180602001604052805f815250610a51565b505050565b600a602052815f5260405f20602052805f5260405f205f915091505080546108249061261f565b80601f01602080910402602001604051908101604052809291908181526020018280546108509061261f565b801561089b5780601f106108725761010080835404028352916020019161089b565b820191905f5260205f20905b81548152906001019060200180831161087e57829003601f168201915b505050505081565b60085481565b5f6108b382610d22565b9050919050565b5f8073ffffffffffffffffffffffffffffffffffffffff168273ffffffffffffffffffffffffffffffffffffffff160361092b575f6040517f89c62b640000000000000000000000000000000000000000000000000000000081526004016109229190612061565b60405180910390fd5b60035f8373ffffffffffffffffffffffffffffffffffffffff1673ffffffffffffffffffffffffffffffffffffffff1681526020019081526020015f20549050919050565b610978611005565b6109815f61108c565b565b5f60075f9054906101000a900473ffffffffffffffffffffffffffffffffffffffff16905090565b6060600180546109ba9061261f565b80601f01602080910402602001604051908101604052809291908181526020018280546109e69061261f565b8015610a315780601f10610a0857610100808354040283529160200191610a31565b820191905f5260205f20905b815481529060010190602001808311610a1457829003601f168201915b5050505050905090565b610a4d610a46610de1565b838361114f565b5050565b610a5c8484846106df565b610a68848484846112b8565b50505050565b6060610a798261146a565b9050919050565b5f60085f815480929190610a93906126de565b919050559050610aa38382611575565b610aad8183611592565b81600a5f8573ffffffffffffffffffffffffffffffffffffffff1673ffffffffffffffffffffffffffffffffffffffff1681526020019081526020015f205f60095f8773ffffffffffffffffffffffffffffffffffffffff1673ffffffffffffffffffffffffffffffffffffffff1681526020019081526020015f205481526020019081526020015f209081610b4391906128c2565b5060095f8473ffffffffffffffffffffffffffffffffffffffff1673ffffffffffffffffffffffffffffffffffffffff1681526020019081526020015f205f815480929190610b91906126de565b9190505550505050565b5f60055f8473ffffffffffffffffffffffffffffffffffffffff1673ffffffffffffffffffffffffffffffffffffffff1681526020019081526020015f205f8373ffffffffffffffffffffffffffffffffffffffff1673ffffffffffffffffffffffffffffffffffffffff1681526020019081526020015f205f9054906101000a900460ff16905092915050565b610c31611005565b5f73ffffffffffffffffffffffffffffffffffffffff168173ffffffffffffffffffffffffffffffffffffffff1603610ca1575f6040517f1e4fbdf7000000000000000000000000000000000000000000000000000000008152600401610c989190612061565b60405180910390fd5b610caa8161108c565b50565b6009602052805f5260405f205f915090505481565b5f634906490660e01b7bffffffffffffffffffffffffffffffffffffffffffffffffffffffff1916827bffffffffffffffffffffffffffffffffffffffffffffffffffffffff19161480610d1b5750610d1a826115ec565b5b9050919050565b5f80610d2d836116cd565b90505f73ffffffffffffffffffffffffffffffffffffffff168173ffffffffffffffffffffffffffffffffffffffff1603610d9f57826040517f7e273289000000000000000000000000000000000000000000000000000000008152600401610d96919061228f565b60405180910390fd5b80915050919050565b5f60045f8381526020019081526020015f205f9054906101000a900473ffffffffffffffffffffffffffffffffffffffff169050919050565b5f33905090565b610df58383836001611706565b505050565b5f80610e05846116cd565b90505f73ffffffffffffffffffffffffffffffffffffffff168373ffffffffffffffffffffffffffffffffffffffff1614610e4657610e458184866118c5565b5b5f73ffffffffffffffffffffffffffffffffffffffff168173ffffffffffffffffffffffffffffffffffffffff1614610ed157610e855f855f80611706565b600160035f8373ffffffffffffffffffffffffffffffffffffffff1673ffffffffffffffffffffffffffffffffffffffff1681526020019081526020015f205f82825403925050819055505b5f73ffffffffffffffffffffffffffffffffffffffff168573ffffffffffffffffffffffffffffffffffffffff1614610f5057600160035f8773ffffffffffffffffffffffffffffffffffffffff1673ffffffffffffffffffffffffffffffffffffffff1681526020019081526020015f205f82825401925050819055505b8460025f8681526020019081526020015f205f6101000a81548173ffffffffffffffffffffffffffffffffffffffff021916908373ffffffffffffffffffffffffffffffffffffffff160217905550838573ffffffffffffffffffffffffffffffffffffffff168273ffffffffffffffffffffffffffffffffffffffff167fddf252ad1be2c89b69c2b068fc378daa952ba7f163c4a11628f55a4df523b3ef60405160405180910390a4809150509392505050565b61100d610de1565b73ffffffffffffffffffffffffffffffffffffffff1661102b610983565b73ffffffffffffffffffffffffffffffffffffffff161461108a5761104e610de1565b6040517f118cdaa70000000000000000000000000000000000000000000000000000000081526004016110819190612061565b60405180910390fd5b565b5f60075f9054906101000a900473ffffffffffffffffffffffffffffffffffffffff1690508160075f6101000a81548173ffffffffffffffffffffffffffffffffffffffff021916908373ffffffffffffffffffffffffffffffffffffffff1602179055508173ffffffffffffffffffffffffffffffffffffffff168173ffffffffffffffffffffffffffffffffffffffff167f8be0079c531659141344cd1fd0a4f28419497f9722a3daafe3b4186f6b6457e060405160405180910390a35050565b5f73ffffffffffffffffffffffffffffffffffffffff168273ffffffffffffffffffffffffffffffffffffffff16036111bf57816040517f5b08ba180000000000000000000000000000000000000000000000000000000081526004016111b69190612061565b60405180910390fd5b8060055f8573ffffffffffffffffffffffffffffffffffffffff1673ffffffffffffffffffffffffffffffffffffffff1681526020019081526020015f205f8473ffffffffffffffffffffffffffffffffffffffff1673ffffffffffffffffffffffffffffffffffffffff1681526020019081526020015f205f6101000a81548160ff0219169083151502179055508173ffffffffffffffffffffffffffffffffffffffff168373ffffffffffffffffffffffffffffffffffffffff167f17307eab39ab6107e8899845ad3d59bd9653f200f220920489ca2b5937696c31836040516112ab9190611f01565b60405180910390a3505050565b5f8373ffffffffffffffffffffffffffffffffffffffff163b1115611464578273ffffffffffffffffffffffffffffffffffffffff1663150b7a026112fb610de1565b8685856040518563ffffffff1660e01b815260040161131d94939291906129e3565b6020604051808303815f875af192505050801561135857506040513d601f19601f820116820180604052508101906113559190612a41565b60015b6113d9573d805f8114611386576040519150601f19603f3d011682016040523d82523d5f602084013e61138b565b606091505b505f8151036113d157836040517f64a0ae920000000000000000000000000000000000000000000000000000000081526004016113c89190612061565b60405180910390fd5b805181602001fd5b63150b7a0260e01b7bffffffffffffffffffffffffffffffffffffffffffffffffffffffff1916817bffffffffffffffffffffffffffffffffffffffffffffffffffffffff19161461146257836040517f64a0ae920000000000000000000000000000000000000000000000000000000081526004016114599190612061565b60405180910390fd5b505b50505050565b606061147582610d22565b505f60065f8481526020019081526020015f2080546114939061261f565b80601f01602080910402602001604051908101604052809291908181526020018280546114bf9061261f565b801561150a5780601f106114e15761010080835404028352916020019161150a565b820191905f5260205f20905b8154815290600101906020018083116114ed57829003601f168201915b505050505090505f61151a611988565b90505f81510361152e578192505050611570565b5f8251111561156257808260405160200161154a929190612aa6565b60405160208183030381529060405292505050611570565b61156b8461199e565b925050505b919050565b61158e828260405180602001604052805f815250611a04565b5050565b8060065f8481526020019081526020015f2090816115b091906128c2565b507ff8e1a15aba9398e019f0b49df1a4fde98ee17ae345cb5f6b5e2c27f5033e8ce7826040516115e0919061228f565b60405180910390a15050565b5f7f80ac58cd000000000000000000000000000000000000000000000000000000007bffffffffffffffffffffffffffffffffffffffffffffffffffffffff1916827bffffffffffffffffffffffffffffffffffffffffffffffffffffffff191614806116b657507f5b5e139f000000000000000000000000000000000000000000000000000000007bffffffffffffffffffffffffffffffffffffffffffffffffffffffff1916827bffffffffffffffffffffffffffffffffffffffffffffffffffffffff1916145b806116c657506116c582611a1f565b5b9050919050565b5f60025f8381526020019081526020015f205f9054906101000a900473ffffffffffffffffffffffffffffffffffffffff169050919050565b808061173e57505f73ffffffffffffffffffffffffffffffffffffffff168273ffffffffffffffffffffffffffffffffffffffff1614155b15611870575f61174d84610d22565b90505f73ffffffffffffffffffffffffffffffffffffffff168373ffffffffffffffffffffffffffffffffffffffff16141580156117b757508273ffffffffffffffffffffffffffffffffffffffff168173ffffffffffffffffffffffffffffffffffffffff1614155b80156117ca57506117c88184610b9b565b155b1561180c57826040517fa9fbf51f0000000000000000000000000000000000000000000000000000000081526004016118039190612061565b60405180910390fd5b811561186e57838573ffffffffffffffffffffffffffffffffffffffff168273ffffffffffffffffffffffffffffffffffffffff167f8c5be1e5ebec7d5bd14f71427d1e84f3dd0314c0f7b2291e5b200ac8c7c3b92560405160405180910390a45b505b8360045f8581526020019081526020015f205f6101000a81548173ffffffffffffffffffffffffffffffffffffffff021916908373ffffffffffffffffffffffffffffffffffffffff16021790555050505050565b6118d0838383611a88565b611983575f73ffffffffffffffffffffffffffffffffffffffff168373ffffffffffffffffffffffffffffffffffffffff160361194457806040517f7e27328900000000000000000000000000000000000000000000000000000000815260040161193b919061228f565b60405180910390fd5b81816040517f177e802f00000000000000000000000000000000000000000000000000000000815260040161197a929190612ac9565b60405180910390fd5b505050565b606060405180602001604052805f815250905090565b60606119a982610d22565b505f6119b3611988565b90505f8151116119d15760405180602001604052805f8152506119fc565b806119db84611b48565b6040516020016119ec929190612aa6565b6040516020818303038152906040525b915050919050565b611a0e8383611c12565b611a1a5f8484846112b8565b505050565b5f7f01ffc9a7000000000000000000000000000000000000000000000000000000007bffffffffffffffffffffffffffffffffffffffffffffffffffffffff1916827bffffffffffffffffffffffffffffffffffffffffffffffffffffffff1916149050919050565b5f8073ffffffffffffffffffffffffffffffffffffffff168373ffffffffffffffffffffffffffffffffffffffff1614158015611b3f57508273ffffffffffffffffffffffffffffffffffffffff168473ffffffffffffffffffffffffffffffffffffffff161480611b005750611aff8484610b9b565b5b80611b3e57508273ffffffffffffffffffffffffffffffffffffffff16611b2683610da8565b73ffffffffffffffffffffffffffffffffffffffff16145b5b90509392505050565b60605f6001611b5684611d05565b0190505f8167ffffffffffffffff811115611b7457611b73612318565b5b6040519080825280601f01601f191660200182016040528015611ba65781602001600182028036833780820191505090505b5090505f82602001820190505b600115611c07578080600190039150507f3031323334353637383961626364656600000000000000000000000000000000600a86061a8153600a8581611bfc57611bfb612af0565b5b0494505f8503611bb3575b819350505050919050565b5f73ffffffffffffffffffffffffffffffffffffffff168273ffffffffffffffffffffffffffffffffffffffff1603611c82575f6040517f64a0ae92000000000000000000000000000000000000000000000000000000008152600401611c799190612061565b60405180910390fd5b5f611c8e83835f610dfa565b90505f73ffffffffffffffffffffffffffffffffffffffff168173ffffffffffffffffffffffffffffffffffffffff1614611d00575f6040517f73c6ac6e000000000000000000000000000000000000000000000000000000008152600401611cf79190612061565b60405180910390fd5b505050565b5f805f90507a184f03e93ff9f4daa797ed6e38ed64bf6a1f0100000000000000008310611d61577a184f03e93ff9f4daa797ed6e38ed64bf6a1f0100000000000000008381611d5757611d56612af0565b5b0492506040810190505b6d04ee2d6d415b85acef81000000008310611d9e576d04ee2d6d415b85acef81000000008381611d9457611d93612af0565b5b0492506020810190505b662386f26fc100008310611dcd57662386f26fc100008381611dc357611dc2612af0565b5b0492506010810190505b6305f5e1008310611df6576305f5e1008381611dec57611deb612af0565b5b0492506008810190505b6127108310611e1b576127108381611e1157611e10612af0565b5b0492506004810190505b60648310611e3e5760648381611e3457611e33612af0565b5b0492506002810190505b600a8310611e4d576001810190505b80915050919050565b5f604051905090565b5f80fd5b5f80fd5b5f7fffffffff0000000000000000000000000000000000000000000000000000000082169050919050565b611e9b81611e67565b8114611ea5575f80fd5b50565b5f81359050611eb681611e92565b92915050565b5f60208284031215611ed157611ed0611e5f565b5b5f611ede84828501611ea8565b91505092915050565b5f8115159050919050565b611efb81611ee7565b82525050565b5f602082019050611f145f830184611ef2565b92915050565b5f81519050919050565b5f82825260208201905092915050565b5f5b83811015611f51578082015181840152602081019050611f36565b5f8484015250505050565b5f601f19601f8301169050919050565b5f611f7682611f1a565b611f808185611f24565b9350611f90818560208601611f34565b611f9981611f5c565b840191505092915050565b5f6020820190508181035f830152611fbc8184611f6c565b905092915050565b5f819050919050565b611fd681611fc4565b8114611fe0575f80fd5b50565b5f81359050611ff181611fcd565b92915050565b5f6020828403121561200c5761200b611e5f565b5b5f61201984828501611fe3565b91505092915050565b5f73ffffffffffffffffffffffffffffffffffffffff82169050919050565b5f61204b82612022565b9050919050565b61205b81612041565b82525050565b5f6020820190506120745f830184612052565b92915050565b61208381612041565b811461208d575f80fd5b50565b5f8135905061209e8161207a565b92915050565b5f602082840312156120b9576120b8611e5f565b5b5f6120c684828501612090565b91505092915050565b5f81519050919050565b5f82825260208201905092915050565b5f819050602082019050919050565b5f82825260208201905092915050565b5f61211282611f1a565b61211c81856120f8565b935061212c818560208601611f34565b61213581611f5c565b840191505092915050565b5f61214b8383612108565b905092915050565b5f602082019050919050565b5f612169826120cf565b61217381856120d9565b935083602082028501612185856120e9565b805f5b858110156121c057848403895281516121a18582612140565b94506121ac83612153565b925060208a01995050600181019050612188565b50829750879550505050505092915050565b5f6020820190508181035f8301526121ea818461215f565b905092915050565b5f806040838503121561220857612207611e5f565b5b5f61221585828601612090565b925050602061222685828601611fe3565b9150509250929050565b5f805f6060848603121561224757612246611e5f565b5b5f61225486828701612090565b935050602061226586828701612090565b925050604061227686828701611fe3565b9150509250925092565b61228981611fc4565b82525050565b5f6020820190506122a25f830184612280565b92915050565b6122b181611ee7565b81146122bb575f80fd5b50565b5f813590506122cc816122a8565b92915050565b5f80604083850312156122e8576122e7611e5f565b5b5f6122f585828601612090565b9250506020612306858286016122be565b9150509250929050565b5f80fd5b5f80fd5b7f4e487b71000000000000000000000000000000000000000000000000000000005f52604160045260245ffd5b61234e82611f5c565b810181811067ffffffffffffffff8211171561236d5761236c612318565b5b80604052505050565b5f61237f611e56565b905061238b8282612345565b919050565b5f67ffffffffffffffff8211156123aa576123a9612318565b5b6123b382611f5c565b9050602081019050919050565b828183375f83830152505050565b5f6123e06123db84612390565b612376565b9050828152602081018484840111156123fc576123fb612314565b5b6124078482856123c0565b509392505050565b5f82601f83011261242357612422612310565b5b81356124338482602086016123ce565b91505092915050565b5f805f806080858703121561245457612453611e5f565b5b5f61246187828801612090565b945050602061247287828801612090565b935050604061248387828801611fe3565b925050606085013567ffffffffffffffff8111156124a4576124a3611e63565b5b6124b08782880161240f565b91505092959194509250565b5f67ffffffffffffffff8211156124d6576124d5612318565b5b6124df82611f5c565b9050602081019050919050565b5f6124fe6124f9846124bc565b612376565b90508281526020810184848401111561251a57612519612314565b5b6125258482856123c0565b509392505050565b5f82601f83011261254157612540612310565b5b81356125518482602086016124ec565b91505092915050565b5f80604083850312156125705761256f611e5f565b5b5f61257d85828601612090565b925050602083013567ffffffffffffffff81111561259e5761259d611e63565b5b6125aa8582860161252d565b9150509250929050565b5f80604083850312156125ca576125c9611e5f565b5b5f6125d785828601612090565b92505060206125e885828601612090565b9150509250929050565b7f4e487b71000000000000000000000000000000000000000000000000000000005f52602260045260245ffd5b5f600282049050600182168061263657607f821691505b602082108103612649576126486125f2565b5b50919050565b7f4e487b71000000000000000000000000000000000000000000000000000000005f52603260045260245ffd5b5f60608201905061268f5f830186612052565b61269c6020830185612280565b6126a96040830184612052565b949350505050565b7f4e487b71000000000000000000000000000000000000000000000000000000005f52601160045260245ffd5b5f6126e882611fc4565b91507fffffffffffffffffffffffffffffffffffffffffffffffffffffffffffffffff820361271a576127196126b1565b5b600182019050919050565b5f819050815f5260205f209050919050565b5f6020601f8301049050919050565b5f82821b905092915050565b5f600883026127817fffffffffffffffffffffffffffffffffffffffffffffffffffffffffffffffff82612746565b61278b8683612746565b95508019841693508086168417925050509392505050565b5f819050919050565b5f6127c66127c16127bc84611fc4565b6127a3565b611fc4565b9050919050565b5f819050919050565b6127df836127ac565b6127f36127eb826127cd565b848454612752565b825550505050565b5f90565b6128076127fb565b6128128184846127d6565b505050565b5b818110156128355761282a5f826127ff565b600181019050612818565b5050565b601f82111561287a5761284b81612725565b61285484612737565b81016020851015612863578190505b61287761286f85612737565b830182612817565b50505b505050565b5f82821c905092915050565b5f61289a5f198460080261287f565b1980831691505092915050565b5f6128b2838361288b565b9150826002028217905092915050565b6128cb82611f1a565b67ffffffffffffffff8111156128e4576128e3612318565b5b6128ee825461261f565b6128f9828285612839565b5f60209050601f83116001811461292a575f8415612918578287015190505b61292285826128a7565b865550612989565b601f19841661293886612725565b5f5b8281101561295f5784890151825560018201915060208501945060208101905061293a565b8683101561297c5784890151612978601f89168261288b565b8355505b6001600288020188555050505b505050505050565b5f81519050919050565b5f82825260208201905092915050565b5f6129b582612991565b6129bf818561299b565b93506129cf818560208601611f34565b6129d881611f5c565b840191505092915050565b5f6080820190506129f65f830187612052565b612a036020830186612052565b612a106040830185612280565b8181036060830152612a2281846129ab565b905095945050505050565b5f81519050612a3b81611e92565b92915050565b5f60208284031215612a5657612a55611e5f565b5b5f612a6384828501612a2d565b91505092915050565b5f81905092915050565b5f612a8082611f1a565b612a8a8185612a6c565b9350612a9a818560208601611f34565b80840191505092915050565b5f612ab18285612a76565b9150612abd8284612a76565b91508190509392505050565b5f604082019050612adc5f830185612052565b612ae96020830184612280565b9392505050565b7f4e487b71000000000000000000000000000000000000000000000000000000005f52601260045260245ffdfea2646970667358221220952e649de24fe7f5b453e904e6af4cffe6a1f7cc86fb71f9780d44f583839ce464736f6c63430008180033",
					"opcodes": "PUSH1 0x80 PUSH1 0x40 MSTORE CALLVALUE DUP1 ISZERO PUSH3 0x10 JUMPI PUSH0 DUP1 REVERT JUMPDEST POP PUSH1 0x40 MLOAD PUSH3 0x3181 CODESIZE SUB DUP1 PUSH3 0x3181 DUP4 CODECOPY DUP2 DUP2 ADD PUSH1 0x40 MSTORE DUP2 ADD SWAP1 PUSH3 0x36 SWAP2 SWAP1 PUSH3 0x27C JUMP JUMPDEST DUP1 PUSH1 0x40 MLOAD DUP1 PUSH1 0x40 ADD PUSH1 0x40 MSTORE DUP1 PUSH1 0x7 DUP2 MSTORE PUSH1 0x20 ADD PUSH32 0x4C6567616C416C00000000000000000000000000000000000000000000000000 DUP2 MSTORE POP PUSH1 0x40 MLOAD DUP1 PUSH1 0x40 ADD PUSH1 0x40 MSTORE DUP1 PUSH1 0x2 DUP2 MSTORE PUSH1 0x20 ADD PUSH32 0x4149000000000000000000000000000000000000000000000000000000000000 DUP2 MSTORE POP DUP2 PUSH0 SWAP1 DUP2 PUSH3 0xB3 SWAP2 SWAP1 PUSH3 0x510 JUMP JUMPDEST POP DUP1 PUSH1 0x1 SWAP1 DUP2 PUSH3 0xC5 SWAP2 SWAP1 PUSH3 0x510 JUMP JUMPDEST POP POP POP PUSH0 PUSH20 0xFFFFFFFFFFFFFFFFFFFFFFFFFFFFFFFFFFFFFFFF AND DUP2 PUSH20 0xFFFFFFFFFFFFFFFFFFFFFFFFFFFFFFFFFFFFFFFF AND SUB PUSH3 0x13B JUMPI PUSH0 PUSH1 0x40 MLOAD PUSH32 0x1E4FBDF700000000000000000000000000000000000000000000000000000000 DUP2 MSTORE PUSH1 0x4 ADD PUSH3 0x132 SWAP2 SWAP1 PUSH3 0x605 JUMP JUMPDEST PUSH1 0x40 MLOAD DUP1 SWAP2 SUB SWAP1 REVERT JUMPDEST PUSH3 0x14C DUP2 PUSH3 0x154 PUSH1 0x20 SHL PUSH1 0x20 SHR JUMP JUMPDEST POP POP PUSH3 0x620 JUMP JUMPDEST PUSH0 PUSH1 0x7 PUSH0 SWAP1 SLOAD SWAP1 PUSH2 0x100 EXP SWAP1 DIV PUSH20 0xFFFFFFFFFFFFFFFFFFFFFFFFFFFFFFFFFFFFFFFF AND SWAP1 POP DUP2 PUSH1 0x7 PUSH0 PUSH2 0x100 EXP DUP2 SLOAD DUP2 PUSH20 0xFFFFFFFFFFFFFFFFFFFFFFFFFFFFFFFFFFFFFFFF MUL NOT AND SWAP1 DUP4 PUSH20 0xFFFFFFFFFFFFFFFFFFFFFFFFFFFFFFFFFFFFFFFF AND MUL OR SWAP1 SSTORE POP DUP2 PUSH20 0xFFFFFFFFFFFFFFFFFFFFFFFFFFFFFFFFFFFFFFFF AND DUP2 PUSH20 0xFFFFFFFFFFFFFFFFFFFFFFFFFFFFFFFFFFFFFFFF AND PUSH32 0x8BE0079C531659141344CD1FD0A4F28419497F9722A3DAAFE3B4186F6B6457E0 PUSH1 0x40 MLOAD PUSH1 0x40 MLOAD DUP1 SWAP2 SUB SWAP1 LOG3 POP POP JUMP JUMPDEST PUSH0 DUP1 REVERT JUMPDEST PUSH0 PUSH20 0xFFFFFFFFFFFFFFFFFFFFFFFFFFFFFFFFFFFFFFFF DUP3 AND SWAP1 POP SWAP2 SWAP1 POP JUMP JUMPDEST PUSH0 PUSH3 0x246 DUP3 PUSH3 0x21B JUMP JUMPDEST SWAP1 POP SWAP2 SWAP1 POP JUMP JUMPDEST PUSH3 0x258 DUP2 PUSH3 0x23A JUMP JUMPDEST DUP2 EQ PUSH3 0x263 JUMPI PUSH0 DUP1 REVERT JUMPDEST POP JUMP JUMPDEST PUSH0 DUP2 MLOAD SWAP1 POP PUSH3 0x276 DUP2 PUSH3 0x24D JUMP JUMPDEST SWAP3 SWAP2 POP POP JUMP JUMPDEST PUSH0 PUSH1 0x20 DUP3 DUP5 SUB SLT ISZERO PUSH3 0x294 JUMPI PUSH3 0x293 PUSH3 0x217 JUMP JUMPDEST JUMPDEST PUSH0 PUSH3 0x2A3 DUP5 DUP3 DUP6 ADD PUSH3 0x266 JUMP JUMPDEST SWAP2 POP POP SWAP3 SWAP2 POP POP JUMP JUMPDEST PUSH0 DUP2 MLOAD SWAP1 POP SWAP2 SWAP1 POP JUMP JUMPDEST PUSH32 0x4E487B7100000000000000000000000000000000000000000000000000000000 PUSH0 MSTORE PUSH1 0x41 PUSH1 0x4 MSTORE PUSH1 0x24 PUSH0 REVERT JUMPDEST PUSH32 0x4E487B7100000000000000000000000000000000000000000000000000000000 PUSH0 MSTORE PUSH1 0x22 PUSH1 0x4 MSTORE PUSH1 0x24 PUSH0 REVERT JUMPDEST PUSH0 PUSH1 0x2 DUP3 DIV SWAP1 POP PUSH1 0x1 DUP3 AND DUP1 PUSH3 0x328 JUMPI PUSH1 0x7F DUP3 AND SWAP2 POP JUMPDEST PUSH1 0x20 DUP3 LT DUP2 SUB PUSH3 0x33E JUMPI PUSH3 0x33D PUSH3 0x2E3 JUMP JUMPDEST JUMPDEST POP SWAP2 SWAP1 POP JUMP JUMPDEST PUSH0 DUP2 SWAP1 POP DUP2 PUSH0 MSTORE PUSH1 0x20 PUSH0 KECCAK256 SWAP1 POP SWAP2 SWAP1 POP JUMP JUMPDEST PUSH0 PUSH1 0x20 PUSH1 0x1F DUP4 ADD DIV SWAP1 POP SWAP2 SWAP1 POP JUMP JUMPDEST PUSH0 DUP3 DUP3 SHL SWAP1 POP SWAP3 SWAP2 POP POP JUMP JUMPDEST PUSH0 PUSH1 0x8 DUP4 MUL PUSH3 0x3A2 PUSH32 0xFFFFFFFFFFFFFFFFFFFFFFFFFFFFFFFFFFFFFFFFFFFFFFFFFFFFFFFFFFFFFFFF DUP3 PUSH3 0x365 JUMP JUMPDEST PUSH3 0x3AE DUP7 DUP4 PUSH3 0x365 JUMP JUMPDEST SWAP6 POP DUP1 NOT DUP5 AND SWAP4 POP DUP1 DUP7 AND DUP5 OR SWAP3 POP POP POP SWAP4 SWAP3 POP POP POP JUMP JUMPDEST PUSH0 DUP2 SWAP1 POP SWAP2 SWAP1 POP JUMP JUMPDEST PUSH0 DUP2 SWAP1 POP SWAP2 SWAP1 POP JUMP JUMPDEST PUSH0 PUSH3 0x3F8 PUSH3 0x3F2 PUSH3 0x3EC DUP5 PUSH3 0x3C6 JUMP JUMPDEST PUSH3 0x3CF JUMP JUMPDEST PUSH3 0x3C6 JUMP JUMPDEST SWAP1 POP SWAP2 SWAP1 POP JUMP JUMPDEST PUSH0 DUP2 SWAP1 POP SWAP2 SWAP1 POP JUMP JUMPDEST PUSH3 0x413 DUP4 PUSH3 0x3D8 JUMP JUMPDEST PUSH3 0x42B PUSH3 0x422 DUP3 PUSH3 0x3FF JUMP JUMPDEST DUP5 DUP5 SLOAD PUSH3 0x371 JUMP JUMPDEST DUP3 SSTORE POP POP POP POP JUMP JUMPDEST PUSH0 SWAP1 JUMP JUMPDEST PUSH3 0x441 PUSH3 0x433 JUMP JUMPDEST PUSH3 0x44E DUP2 DUP5 DUP5 PUSH3 0x408 JUMP JUMPDEST POP POP POP JUMP JUMPDEST JUMPDEST DUP2 DUP2 LT ISZERO PUSH3 0x475 JUMPI PUSH3 0x469 PUSH0 DUP3 PUSH3 0x437 JUMP JUMPDEST PUSH1 0x1 DUP2 ADD SWAP1 POP PUSH3 0x454 JUMP JUMPDEST POP POP JUMP JUMPDEST PUSH1 0x1F DUP3 GT ISZERO PUSH3 0x4C4 JUMPI PUSH3 0x48E DUP2 PUSH3 0x344 JUMP JUMPDEST PUSH3 0x499 DUP5 PUSH3 0x356 JUMP JUMPDEST DUP2 ADD PUSH1 0x20 DUP6 LT ISZERO PUSH3 0x4A9 JUMPI DUP2 SWAP1 POP JUMPDEST PUSH3 0x4C1 PUSH3 0x4B8 DUP6 PUSH3 0x356 JUMP JUMPDEST DUP4 ADD DUP3 PUSH3 0x453 JUMP JUMPDEST POP POP JUMPDEST POP POP POP JUMP JUMPDEST PUSH0 DUP3 DUP3 SHR SWAP1 POP SWAP3 SWAP2 POP POP JUMP JUMPDEST PUSH0 PUSH3 0x4E6 PUSH0 NOT DUP5 PUSH1 0x8 MUL PUSH3 0x4C9 JUMP JUMPDEST NOT DUP1 DUP4 AND SWAP2 POP POP SWAP3 SWAP2 POP POP JUMP JUMPDEST PUSH0 PUSH3 0x500 DUP4 DUP4 PUSH3 0x4D5 JUMP JUMPDEST SWAP2 POP DUP3 PUSH1 0x2 MUL DUP3 OR SWAP1 POP SWAP3 SWAP2 POP POP JUMP JUMPDEST PUSH3 0x51B DUP3 PUSH3 0x2AC JUMP JUMPDEST PUSH8 0xFFFFFFFFFFFFFFFF DUP2 GT ISZERO PUSH3 0x537 JUMPI PUSH3 0x536 PUSH3 0x2B6 JUMP JUMPDEST JUMPDEST PUSH3 0x543 DUP3 SLOAD PUSH3 0x310 JUMP JUMPDEST PUSH3 0x550 DUP3 DUP3 DUP6 PUSH3 0x479 JUMP JUMPDEST PUSH0 PUSH1 0x20 SWAP1 POP PUSH1 0x1F DUP4 GT PUSH1 0x1 DUP2 EQ PUSH3 0x586 JUMPI PUSH0 DUP5 ISZERO PUSH3 0x571 JUMPI DUP3 DUP8 ADD MLOAD SWAP1 POP JUMPDEST PUSH3 0x57D DUP6 DUP3 PUSH3 0x4F3 JUMP JUMPDEST DUP7 SSTORE POP PUSH3 0x5EC JUMP JUMPDEST PUSH1 0x1F NOT DUP5 AND PUSH3 0x596 DUP7 PUSH3 0x344 JUMP JUMPDEST PUSH0 JUMPDEST DUP3 DUP2 LT ISZERO PUSH3 0x5BF JUMPI DUP5 DUP10 ADD MLOAD DUP3 SSTORE PUSH1 0x1 DUP3 ADD SWAP2 POP PUSH1 0x20 DUP6 ADD SWAP5 POP PUSH1 0x20 DUP2 ADD SWAP1 POP PUSH3 0x598 JUMP JUMPDEST DUP7 DUP4 LT ISZERO PUSH3 0x5DF JUMPI DUP5 DUP10 ADD MLOAD PUSH3 0x5DB PUSH1 0x1F DUP10 AND DUP3 PUSH3 0x4D5 JUMP JUMPDEST DUP4 SSTORE POP JUMPDEST PUSH1 0x1 PUSH1 0x2 DUP9 MUL ADD DUP9 SSTORE POP POP POP JUMPDEST POP POP POP POP POP POP JUMP JUMPDEST PUSH3 0x5FF DUP2 PUSH3 0x23A JUMP JUMPDEST DUP3 MSTORE POP POP JUMP JUMPDEST PUSH0 PUSH1 0x20 DUP3 ADD SWAP1 POP PUSH3 0x61A PUSH0 DUP4 ADD DUP5 PUSH3 0x5F4 JUMP JUMPDEST SWAP3 SWAP2 POP POP JUMP JUMPDEST PUSH2 0x2B53 DUP1 PUSH3 0x62E PUSH0 CODECOPY PUSH0 RETURN INVALID PUSH1 0x80 PUSH1 0x40 MSTORE CALLVALUE DUP1 ISZERO PUSH2 0xF JUMPI PUSH0 DUP1 REVERT JUMPDEST POP PUSH1 0x4 CALLDATASIZE LT PUSH2 0x135 JUMPI PUSH0 CALLDATALOAD PUSH1 0xE0 SHR DUP1 PUSH4 0x70A08231 GT PUSH2 0xB6 JUMPI DUP1 PUSH4 0xB88D4FDE GT PUSH2 0x7A JUMPI DUP1 PUSH4 0xB88D4FDE EQ PUSH2 0x34B JUMPI DUP1 PUSH4 0xC87B56DD EQ PUSH2 0x367 JUMPI DUP1 PUSH4 0xD204C45E EQ PUSH2 0x397 JUMPI DUP1 PUSH4 0xE985E9C5 EQ PUSH2 0x3B3 JUMPI DUP1 PUSH4 0xF2FDE38B EQ PUSH2 0x3E3 JUMPI DUP1 PUSH4 0xFAAAAE4B EQ PUSH2 0x3FF JUMPI PUSH2 0x135 JUMP JUMPDEST DUP1 PUSH4 0x70A08231 EQ PUSH2 0x2B9 JUMPI DUP1 PUSH4 0x715018A6 EQ PUSH2 0x2E9 JUMPI DUP1 PUSH4 0x8DA5CB5B EQ PUSH2 0x2F3 JUMPI DUP1 PUSH4 0x95D89B41 EQ PUSH2 0x311 JUMPI DUP1 PUSH4 0xA22CB465 EQ PUSH2 0x32F JUMPI PUSH2 0x135 JUMP JUMPDEST DUP1 PUSH4 0x23B872DD GT PUSH2 0xFD JUMPI DUP1 PUSH4 0x23B872DD EQ PUSH2 0x203 JUMPI DUP1 PUSH4 0x42842E0E EQ PUSH2 0x21F JUMPI DUP1 PUSH4 0x47237162 EQ PUSH2 0x23B JUMPI DUP1 PUSH4 0x4A60F620 EQ PUSH2 0x26B JUMPI DUP1 PUSH4 0x6352211E EQ PUSH2 0x289 JUMPI PUSH2 0x135 JUMP JUMPDEST DUP1 PUSH4 0x1FFC9A7 EQ PUSH2 0x139 JUMPI DUP1 PUSH4 0x6FDDE03 EQ PUSH2 0x169 JUMPI DUP1 PUSH4 0x81812FC EQ PUSH2 0x187 JUMPI DUP1 PUSH4 0x8AA3E2A EQ PUSH2 0x1B7 JUMPI DUP1 PUSH4 0x95EA7B3 EQ PUSH2 0x1E7 JUMPI JUMPDEST PUSH0 DUP1 REVERT JUMPDEST PUSH2 0x153 PUSH1 0x4 DUP1 CALLDATASIZE SUB DUP2 ADD SWAP1 PUSH2 0x14E SWAP2 SWAP1 PUSH2 0x1EBC JUMP JUMPDEST PUSH2 0x42F JUMP JUMPDEST PUSH1 0x40 MLOAD PUSH2 0x160 SWAP2 SWAP1 PUSH2 0x1F01 JUMP JUMPDEST PUSH1 0x40 MLOAD DUP1 SWAP2 SUB SWAP1 RETURN JUMPDEST PUSH2 0x171 PUSH2 0x440 JUMP JUMPDEST PUSH1 0x40 MLOAD PUSH2 0x17E SWAP2 SWAP1 PUSH2 0x1FA4 JUMP JUMPDEST PUSH1 0x40 MLOAD DUP1 SWAP2 SUB SWAP1 RETURN JUMPDEST PUSH2 0x1A1 PUSH1 0x4 DUP1 CALLDATASIZE SUB DUP2 ADD SWAP1 PUSH2 0x19C SWAP2 SWAP1 PUSH2 0x1FF7 JUMP JUMPDEST PUSH2 0x4CF JUMP JUMPDEST PUSH1 0x40 MLOAD PUSH2 0x1AE SWAP2 SWAP1 PUSH2 0x2061 JUMP JUMPDEST PUSH1 0x40 MLOAD DUP1 SWAP2 SUB SWAP1 RETURN JUMPDEST PUSH2 0x1D1 PUSH1 0x4 DUP1 CALLDATASIZE SUB DUP2 ADD SWAP1 PUSH2 0x1CC SWAP2 SWAP1 PUSH2 0x20A4 JUMP JUMPDEST PUSH2 0x4EA JUMP JUMPDEST PUSH1 0x40 MLOAD PUSH2 0x1DE SWAP2 SWAP1 PUSH2 0x21D2 JUMP JUMPDEST PUSH1 0x40 MLOAD DUP1 SWAP2 SUB SWAP1 RETURN JUMPDEST PUSH2 0x201 PUSH1 0x4 DUP1 CALLDATASIZE SUB DUP2 ADD SWAP1 PUSH2 0x1FC SWAP2 SWAP1 PUSH2 0x21F2 JUMP JUMPDEST PUSH2 0x6C9 JUMP JUMPDEST STOP JUMPDEST PUSH2 0x21D PUSH1 0x4 DUP1 CALLDATASIZE SUB DUP2 ADD SWAP1 PUSH2 0x218 SWAP2 SWAP1 PUSH2 0x2230 JUMP JUMPDEST PUSH2 0x6DF JUMP JUMPDEST STOP JUMPDEST PUSH2 0x239 PUSH1 0x4 DUP1 CALLDATASIZE SUB DUP2 ADD SWAP1 PUSH2 0x234 SWAP2 SWAP1 PUSH2 0x2230 JUMP JUMPDEST PUSH2 0x7DE JUMP JUMPDEST STOP JUMPDEST PUSH2 0x255 PUSH1 0x4 DUP1 CALLDATASIZE SUB DUP2 ADD SWAP1 PUSH2 0x250 SWAP2 SWAP1 PUSH2 0x21F2 JUMP JUMPDEST PUSH2 0x7FD JUMP JUMPDEST PUSH1 0x40 MLOAD PUSH2 0x262 SWAP2 SWAP1 PUSH2 0x1FA4 JUMP JUMPDEST PUSH1 0x40 MLOAD DUP1 SWAP2 SUB SWAP1 RETURN JUMPDEST PUSH2 0x273 PUSH2 0x8A3 JUMP JUMPDEST PUSH1 0x40 MLOAD PUSH2 0x280 SWAP2 SWAP1 PUSH2 0x228F JUMP JUMPDEST PUSH1 0x40 MLOAD DUP1 SWAP2 SUB SWAP1 RETURN JUMPDEST PUSH2 0x2A3 PUSH1 0x4 DUP1 CALLDATASIZE SUB DUP2 ADD SWAP1 PUSH2 0x29E SWAP2 SWAP1 PUSH2 0x1FF7 JUMP JUMPDEST PUSH2 0x8A9 JUMP JUMPDEST PUSH1 0x40 MLOAD PUSH2 0x2B0 SWAP2 SWAP1 PUSH2 0x2061 JUMP JUMPDEST PUSH1 0x40 MLOAD DUP1 SWAP2 SUB SWAP1 RETURN JUMPDEST PUSH2 0x2D3 PUSH1 0x4 DUP1 CALLDATASIZE SUB DUP2 ADD SWAP1 PUSH2 0x2CE SWAP2 SWAP1 PUSH2 0x20A4 JUMP JUMPDEST PUSH2 0x8BA JUMP JUMPDEST PUSH1 0x40 MLOAD PUSH2 0x2E0 SWAP2 SWAP1 PUSH2 0x228F JUMP JUMPDEST PUSH1 0x40 MLOAD DUP1 SWAP2 SUB SWAP1 RETURN JUMPDEST PUSH2 0x2F1 PUSH2 0x970 JUMP JUMPDEST STOP JUMPDEST PUSH2 0x2FB PUSH2 0x983 JUMP JUMPDEST PUSH1 0x40 MLOAD PUSH2 0x308 SWAP2 SWAP1 PUSH2 0x2061 JUMP JUMPDEST PUSH1 0x40 MLOAD DUP1 SWAP2 SUB SWAP1 RETURN JUMPDEST PUSH2 0x319 PUSH2 0x9AB JUMP JUMPDEST PUSH1 0x40 MLOAD PUSH2 0x326 SWAP2 SWAP1 PUSH2 0x1FA4 JUMP JUMPDEST PUSH1 0x40 MLOAD DUP1 SWAP2 SUB SWAP1 RETURN JUMPDEST PUSH2 0x349 PUSH1 0x4 DUP1 CALLDATASIZE SUB DUP2 ADD SWAP1 PUSH2 0x344 SWAP2 SWAP1 PUSH2 0x22D2 JUMP JUMPDEST PUSH2 0xA3B JUMP JUMPDEST STOP JUMPDEST PUSH2 0x365 PUSH1 0x4 DUP1 CALLDATASIZE SUB DUP2 ADD SWAP1 PUSH2 0x360 SWAP2 SWAP1 PUSH2 0x243C JUMP JUMPDEST PUSH2 0xA51 JUMP JUMPDEST STOP JUMPDEST PUSH2 0x381 PUSH1 0x4 DUP1 CALLDATASIZE SUB DUP2 ADD SWAP1 PUSH2 0x37C SWAP2 SWAP1 PUSH2 0x1FF7 JUMP JUMPDEST PUSH2 0xA6E JUMP JUMPDEST PUSH1 0x40 MLOAD PUSH2 0x38E SWAP2 SWAP1 PUSH2 0x1FA4 JUMP JUMPDEST PUSH1 0x40 MLOAD DUP1 SWAP2 SUB SWAP1 RETURN JUMPDEST PUSH2 0x3B1 PUSH1 0x4 DUP1 CALLDATASIZE SUB DUP2 ADD SWAP1 PUSH2 0x3AC SWAP2 SWAP1 PUSH2 0x255A JUMP JUMPDEST PUSH2 0xA80 JUMP JUMPDEST STOP JUMPDEST PUSH2 0x3CD PUSH1 0x4 DUP1 CALLDATASIZE SUB DUP2 ADD SWAP1 PUSH2 0x3C8 SWAP2 SWAP1 PUSH2 0x25B4 JUMP JUMPDEST PUSH2 0xB9B JUMP JUMPDEST PUSH1 0x40 MLOAD PUSH2 0x3DA SWAP2 SWAP1 PUSH2 0x1F01 JUMP JUMPDEST PUSH1 0x40 MLOAD DUP1 SWAP2 SUB SWAP1 RETURN JUMPDEST PUSH2 0x3FD PUSH1 0x4 DUP1 CALLDATASIZE SUB DUP2 ADD SWAP1 PUSH2 0x3F8 SWAP2 SWAP1 PUSH2 0x20A4 JUMP JUMPDEST PUSH2 0xC29 JUMP JUMPDEST STOP JUMPDEST PUSH2 0x419 PUSH1 0x4 DUP1 CALLDATASIZE SUB DUP2 ADD SWAP1 PUSH2 0x414 SWAP2 SWAP1 PUSH2 0x20A4 JUMP JUMPDEST PUSH2 0xCAD JUMP JUMPDEST PUSH1 0x40 MLOAD PUSH2 0x426 SWAP2 SWAP1 PUSH2 0x228F JUMP JUMPDEST PUSH1 0x40 MLOAD DUP1 SWAP2 SUB SWAP1 RETURN JUMPDEST PUSH0 PUSH2 0x439 DUP3 PUSH2 0xCC2 JUMP JUMPDEST SWAP1 POP SWAP2 SWAP1 POP JUMP JUMPDEST PUSH1 0x60 PUSH0 DUP1 SLOAD PUSH2 0x44E SWAP1 PUSH2 0x261F JUMP JUMPDEST DUP1 PUSH1 0x1F ADD PUSH1 0x20 DUP1 SWAP2 DIV MUL PUSH1 0x20 ADD PUSH1 0x40 MLOAD SWAP1 DUP2 ADD PUSH1 0x40 MSTORE DUP1 SWAP3 SWAP2 SWAP1 DUP2 DUP2 MSTORE PUSH1 0x20 ADD DUP3 DUP1 SLOAD PUSH2 0x47A SWAP1 PUSH2 0x261F JUMP JUMPDEST DUP1 ISZERO PUSH2 0x4C5 JUMPI DUP1 PUSH1 0x1F LT PUSH2 0x49C JUMPI PUSH2 0x100 DUP1 DUP4 SLOAD DIV MUL DUP4 MSTORE SWAP2 PUSH1 0x20 ADD SWAP2 PUSH2 0x4C5 JUMP JUMPDEST DUP3 ADD SWAP2 SWAP1 PUSH0 MSTORE PUSH1 0x20 PUSH0 KECCAK256 SWAP1 JUMPDEST DUP2 SLOAD DUP2 MSTORE SWAP1 PUSH1 0x1 ADD SWAP1 PUSH1 0x20 ADD DUP1 DUP4 GT PUSH2 0x4A8 JUMPI DUP3 SWAP1 SUB PUSH1 0x1F AND DUP3 ADD SWAP2 JUMPDEST POP POP POP POP POP SWAP1 POP SWAP1 JUMP JUMPDEST PUSH0 PUSH2 0x4D9 DUP3 PUSH2 0xD22 JUMP JUMPDEST POP PUSH2 0x4E3 DUP3 PUSH2 0xDA8 JUMP JUMPDEST SWAP1 POP SWAP2 SWAP1 POP JUMP JUMPDEST PUSH1 0x60 PUSH0 PUSH1 0x9 PUSH0 DUP5 PUSH20 0xFFFFFFFFFFFFFFFFFFFFFFFFFFFFFFFFFFFFFFFF AND PUSH20 0xFFFFFFFFFFFFFFFFFFFFFFFFFFFFFFFFFFFFFFFF AND DUP2 MSTORE PUSH1 0x20 ADD SWAP1 DUP2 MSTORE PUSH1 0x20 ADD PUSH0 KECCAK256 SLOAD PUSH8 0xFFFFFFFFFFFFFFFF DUP2 GT ISZERO PUSH2 0x544 JUMPI PUSH2 0x543 PUSH2 0x2318 JUMP JUMPDEST JUMPDEST PUSH1 0x40 MLOAD SWAP1 DUP1 DUP3 MSTORE DUP1 PUSH1 0x20 MUL PUSH1 0x20 ADD DUP3 ADD PUSH1 0x40 MSTORE DUP1 ISZERO PUSH2 0x577 JUMPI DUP2 PUSH1 0x20 ADD JUMPDEST PUSH1 0x60 DUP2 MSTORE PUSH1 0x20 ADD SWAP1 PUSH1 0x1 SWAP1 SUB SWAP1 DUP2 PUSH2 0x562 JUMPI SWAP1 POP JUMPDEST POP SWAP1 POP PUSH0 JUMPDEST PUSH1 0x9 PUSH0 DUP6 PUSH20 0xFFFFFFFFFFFFFFFFFFFFFFFFFFFFFFFFFFFFFFFF AND PUSH20 0xFFFFFFFFFFFFFFFFFFFFFFFFFFFFFFFFFFFFFFFF AND DUP2 MSTORE PUSH1 0x20 ADD SWAP1 DUP2 MSTORE PUSH1 0x20 ADD PUSH0 KECCAK256 SLOAD DUP2 LT ISZERO PUSH2 0x6BF JUMPI PUSH1 0xA PUSH0 DUP6 PUSH20 0xFFFFFFFFFFFFFFFFFFFFFFFFFFFFFFFFFFFFFFFF AND PUSH20 0xFFFFFFFFFFFFFFFFFFFFFFFFFFFFFFFFFFFFFFFF AND DUP2 MSTORE PUSH1 0x20 ADD SWAP1 DUP2 MSTORE PUSH1 0x20 ADD PUSH0 KECCAK256 PUSH0 DUP3 DUP2 MSTORE PUSH1 0x20 ADD SWAP1 DUP2 MSTORE PUSH1 0x20 ADD PUSH0 KECCAK256 DUP1 SLOAD PUSH2 0x618 SWAP1 PUSH2 0x261F JUMP JUMPDEST DUP1 PUSH1 0x1F ADD PUSH1 0x20 DUP1 SWAP2 DIV MUL PUSH1 0x20 ADD PUSH1 0x40 MLOAD SWAP1 DUP2 ADD PUSH1 0x40 MSTORE DUP1 SWAP3 SWAP2 SWAP1 DUP2 DUP2 MSTORE PUSH1 0x20 ADD DUP3 DUP1 SLOAD PUSH2 0x644 SWAP1 PUSH2 0x261F JUMP JUMPDEST DUP1 ISZERO PUSH2 0x68F JUMPI DUP1 PUSH1 0x1F LT PUSH2 0x666 JUMPI PUSH2 0x100 DUP1 DUP4 SLOAD DIV MUL DUP4 MSTORE SWAP2 PUSH1 0x20 ADD SWAP2 PUSH2 0x68F JUMP JUMPDEST DUP3 ADD SWAP2 SWAP1 PUSH0 MSTORE PUSH1 0x20 PUSH0 KECCAK256 SWAP1 JUMPDEST DUP2 SLOAD DUP2 MSTORE SWAP1 PUSH1 0x1 ADD SWAP1 PUSH1 0x20 ADD DUP1 DUP4 GT PUSH2 0x672 JUMPI DUP3 SWAP1 SUB PUSH1 0x1F AND DUP3 ADD SWAP2 JUMPDEST POP POP POP POP POP DUP3 DUP3 DUP2 MLOAD DUP2 LT PUSH2 0x6A7 JUMPI PUSH2 0x6A6 PUSH2 0x264F JUMP JUMPDEST JUMPDEST PUSH1 0x20 MUL PUSH1 0x20 ADD ADD DUP2 SWAP1 MSTORE POP DUP1 DUP1 PUSH1 0x1 ADD SWAP2 POP POP PUSH2 0x57C JUMP JUMPDEST POP DUP1 SWAP2 POP POP SWAP2 SWAP1 POP JUMP JUMPDEST PUSH2 0x6DB DUP3 DUP3 PUSH2 0x6D6 PUSH2 0xDE1 JUMP JUMPDEST PUSH2 0xDE8 JUMP JUMPDEST POP POP JUMP JUMPDEST PUSH0 PUSH20 0xFFFFFFFFFFFFFFFFFFFFFFFFFFFFFFFFFFFFFFFF AND DUP3 PUSH20 0xFFFFFFFFFFFFFFFFFFFFFFFFFFFFFFFFFFFFFFFF AND SUB PUSH2 0x74F JUMPI PUSH0 PUSH1 0x40 MLOAD PUSH32 0x64A0AE9200000000000000000000000000000000000000000000000000000000 DUP2 MSTORE PUSH1 0x4 ADD PUSH2 0x746 SWAP2 SWAP1 PUSH2 0x2061 JUMP JUMPDEST PUSH1 0x40 MLOAD DUP1 SWAP2 SUB SWAP1 REVERT JUMPDEST PUSH0 PUSH2 0x762 DUP4 DUP4 PUSH2 0x75D PUSH2 0xDE1 JUMP JUMPDEST PUSH2 0xDFA JUMP JUMPDEST SWAP1 POP DUP4 PUSH20 0xFFFFFFFFFFFFFFFFFFFFFFFFFFFFFFFFFFFFFFFF AND DUP2 PUSH20 0xFFFFFFFFFFFFFFFFFFFFFFFFFFFFFFFFFFFFFFFF AND EQ PUSH2 0x7D8 JUMPI DUP4 DUP3 DUP3 PUSH1 0x40 MLOAD PUSH32 0x64283D7B00000000000000000000000000000000000000000000000000000000 DUP2 MSTORE PUSH1 0x4 ADD PUSH2 0x7CF SWAP4 SWAP3 SWAP2 SWAP1 PUSH2 0x267C JUMP JUMPDEST PUSH1 0x40 MLOAD DUP1 SWAP2 SUB SWAP1 REVERT JUMPDEST POP POP POP POP JUMP JUMPDEST PUSH2 0x7F8 DUP4 DUP4 DUP4 PUSH1 0x40 MLOAD DUP1 PUSH1 0x20 ADD PUSH1 0x40 MSTORE DUP1 PUSH0 DUP2 MSTORE POP PUSH2 0xA51 JUMP JUMPDEST POP POP POP JUMP JUMPDEST PUSH1 0xA PUSH1 0x20 MSTORE DUP2 PUSH0 MSTORE PUSH1 0x40 PUSH0 KECCAK256 PUSH1 0x20 MSTORE DUP1 PUSH0 MSTORE PUSH1 0x40 PUSH0 KECCAK256 PUSH0 SWAP2 POP SWAP2 POP POP DUP1 SLOAD PUSH2 0x824 SWAP1 PUSH2 0x261F JUMP JUMPDEST DUP1 PUSH1 0x1F ADD PUSH1 0x20 DUP1 SWAP2 DIV MUL PUSH1 0x20 ADD PUSH1 0x40 MLOAD SWAP1 DUP2 ADD PUSH1 0x40 MSTORE DUP1 SWAP3 SWAP2 SWAP1 DUP2 DUP2 MSTORE PUSH1 0x20 ADD DUP3 DUP1 SLOAD PUSH2 0x850 SWAP1 PUSH2 0x261F JUMP JUMPDEST DUP1 ISZERO PUSH2 0x89B JUMPI DUP1 PUSH1 0x1F LT PUSH2 0x872 JUMPI PUSH2 0x100 DUP1 DUP4 SLOAD DIV MUL DUP4 MSTORE SWAP2 PUSH1 0x20 ADD SWAP2 PUSH2 0x89B JUMP JUMPDEST DUP3 ADD SWAP2 SWAP1 PUSH0 MSTORE PUSH1 0x20 PUSH0 KECCAK256 SWAP1 JUMPDEST DUP2 SLOAD DUP2 MSTORE SWAP1 PUSH1 0x1 ADD SWAP1 PUSH1 0x20 ADD DUP1 DUP4 GT PUSH2 0x87E JUMPI DUP3 SWAP1 SUB PUSH1 0x1F AND DUP3 ADD SWAP2 JUMPDEST POP POP POP POP POP DUP2 JUMP JUMPDEST PUSH1 0x8 SLOAD DUP2 JUMP JUMPDEST PUSH0 PUSH2 0x8B3 DUP3 PUSH2 0xD22 JUMP JUMPDEST SWAP1 POP SWAP2 SWAP1 POP JUMP JUMPDEST PUSH0 DUP1 PUSH20 0xFFFFFFFFFFFFFFFFFFFFFFFFFFFFFFFFFFFFFFFF AND DUP3 PUSH20 0xFFFFFFFFFFFFFFFFFFFFFFFFFFFFFFFFFFFFFFFF AND SUB PUSH2 0x92B JUMPI PUSH0 PUSH1 0x40 MLOAD PUSH32 0x89C62B6400000000000000000000000000000000000000000000000000000000 DUP2 MSTORE PUSH1 0x4 ADD PUSH2 0x922 SWAP2 SWAP1 PUSH2 0x2061 JUMP JUMPDEST PUSH1 0x40 MLOAD DUP1 SWAP2 SUB SWAP1 REVERT JUMPDEST PUSH1 0x3 PUSH0 DUP4 PUSH20 0xFFFFFFFFFFFFFFFFFFFFFFFFFFFFFFFFFFFFFFFF AND PUSH20 0xFFFFFFFFFFFFFFFFFFFFFFFFFFFFFFFFFFFFFFFF AND DUP2 MSTORE PUSH1 0x20 ADD SWAP1 DUP2 MSTORE PUSH1 0x20 ADD PUSH0 KECCAK256 SLOAD SWAP1 POP SWAP2 SWAP1 POP JUMP JUMPDEST PUSH2 0x978 PUSH2 0x1005 JUMP JUMPDEST PUSH2 0x981 PUSH0 PUSH2 0x108C JUMP JUMPDEST JUMP JUMPDEST PUSH0 PUSH1 0x7 PUSH0 SWAP1 SLOAD SWAP1 PUSH2 0x100 EXP SWAP1 DIV PUSH20 0xFFFFFFFFFFFFFFFFFFFFFFFFFFFFFFFFFFFFFFFF AND SWAP1 POP SWAP1 JUMP JUMPDEST PUSH1 0x60 PUSH1 0x1 DUP1 SLOAD PUSH2 0x9BA SWAP1 PUSH2 0x261F JUMP JUMPDEST DUP1 PUSH1 0x1F ADD PUSH1 0x20 DUP1 SWAP2 DIV MUL PUSH1 0x20 ADD PUSH1 0x40 MLOAD SWAP1 DUP2 ADD PUSH1 0x40 MSTORE DUP1 SWAP3 SWAP2 SWAP1 DUP2 DUP2 MSTORE PUSH1 0x20 ADD DUP3 DUP1 SLOAD PUSH2 0x9E6 SWAP1 PUSH2 0x261F JUMP JUMPDEST DUP1 ISZERO PUSH2 0xA31 JUMPI DUP1 PUSH1 0x1F LT PUSH2 0xA08 JUMPI PUSH2 0x100 DUP1 DUP4 SLOAD DIV MUL DUP4 MSTORE SWAP2 PUSH1 0x20 ADD SWAP2 PUSH2 0xA31 JUMP JUMPDEST DUP3 ADD SWAP2 SWAP1 PUSH0 MSTORE PUSH1 0x20 PUSH0 KECCAK256 SWAP1 JUMPDEST DUP2 SLOAD DUP2 MSTORE SWAP1 PUSH1 0x1 ADD SWAP1 PUSH1 0x20 ADD DUP1 DUP4 GT PUSH2 0xA14 JUMPI DUP3 SWAP1 SUB PUSH1 0x1F AND DUP3 ADD SWAP2 JUMPDEST POP POP POP POP POP SWAP1 POP SWAP1 JUMP JUMPDEST PUSH2 0xA4D PUSH2 0xA46 PUSH2 0xDE1 JUMP JUMPDEST DUP4 DUP4 PUSH2 0x114F JUMP JUMPDEST POP POP JUMP JUMPDEST PUSH2 0xA5C DUP5 DUP5 DUP5 PUSH2 0x6DF JUMP JUMPDEST PUSH2 0xA68 DUP5 DUP5 DUP5 DUP5 PUSH2 0x12B8 JUMP JUMPDEST POP POP POP POP JUMP JUMPDEST PUSH1 0x60 PUSH2 0xA79 DUP3 PUSH2 0x146A JUMP JUMPDEST SWAP1 POP SWAP2 SWAP1 POP JUMP JUMPDEST PUSH0 PUSH1 0x8 PUSH0 DUP2 SLOAD DUP1 SWAP3 SWAP2 SWAP1 PUSH2 0xA93 SWAP1 PUSH2 0x26DE JUMP JUMPDEST SWAP2 SWAP1 POP SSTORE SWAP1 POP PUSH2 0xAA3 DUP4 DUP3 PUSH2 0x1575 JUMP JUMPDEST PUSH2 0xAAD DUP2 DUP4 PUSH2 0x1592 JUMP JUMPDEST DUP2 PUSH1 0xA PUSH0 DUP6 PUSH20 0xFFFFFFFFFFFFFFFFFFFFFFFFFFFFFFFFFFFFFFFF AND PUSH20 0xFFFFFFFFFFFFFFFFFFFFFFFFFFFFFFFFFFFFFFFF AND DUP2 MSTORE PUSH1 0x20 ADD SWAP1 DUP2 MSTORE PUSH1 0x20 ADD PUSH0 KECCAK256 PUSH0 PUSH1 0x9 PUSH0 DUP8 PUSH20 0xFFFFFFFFFFFFFFFFFFFFFFFFFFFFFFFFFFFFFFFF AND PUSH20 0xFFFFFFFFFFFFFFFFFFFFFFFFFFFFFFFFFFFFFFFF AND DUP2 MSTORE PUSH1 0x20 ADD SWAP1 DUP2 MSTORE PUSH1 0x20 ADD PUSH0 KECCAK256 SLOAD DUP2 MSTORE PUSH1 0x20 ADD SWAP1 DUP2 MSTORE PUSH1 0x20 ADD PUSH0 KECCAK256 SWAP1 DUP2 PUSH2 0xB43 SWAP2 SWAP1 PUSH2 0x28C2 JUMP JUMPDEST POP PUSH1 0x9 PUSH0 DUP5 PUSH20 0xFFFFFFFFFFFFFFFFFFFFFFFFFFFFFFFFFFFFFFFF AND PUSH20 0xFFFFFFFFFFFFFFFFFFFFFFFFFFFFFFFFFFFFFFFF AND DUP2 MSTORE PUSH1 0x20 ADD SWAP1 DUP2 MSTORE PUSH1 0x20 ADD PUSH0 KECCAK256 PUSH0 DUP2 SLOAD DUP1 SWAP3 SWAP2 SWAP1 PUSH2 0xB91 SWAP1 PUSH2 0x26DE JUMP JUMPDEST SWAP2 SWAP1 POP SSTORE POP POP POP POP JUMP JUMPDEST PUSH0 PUSH1 0x5 PUSH0 DUP5 PUSH20 0xFFFFFFFFFFFFFFFFFFFFFFFFFFFFFFFFFFFFFFFF AND PUSH20 0xFFFFFFFFFFFFFFFFFFFFFFFFFFFFFFFFFFFFFFFF AND DUP2 MSTORE PUSH1 0x20 ADD SWAP1 DUP2 MSTORE PUSH1 0x20 ADD PUSH0 KECCAK256 PUSH0 DUP4 PUSH20 0xFFFFFFFFFFFFFFFFFFFFFFFFFFFFFFFFFFFFFFFF AND PUSH20 0xFFFFFFFFFFFFFFFFFFFFFFFFFFFFFFFFFFFFFFFF AND DUP2 MSTORE PUSH1 0x20 ADD SWAP1 DUP2 MSTORE PUSH1 0x20 ADD PUSH0 KECCAK256 PUSH0 SWAP1 SLOAD SWAP1 PUSH2 0x100 EXP SWAP1 DIV PUSH1 0xFF AND SWAP1 POP SWAP3 SWAP2 POP POP JUMP JUMPDEST PUSH2 0xC31 PUSH2 0x1005 JUMP JUMPDEST PUSH0 PUSH20 0xFFFFFFFFFFFFFFFFFFFFFFFFFFFFFFFFFFFFFFFF AND DUP2 PUSH20 0xFFFFFFFFFFFFFFFFFFFFFFFFFFFFFFFFFFFFFFFF AND SUB PUSH2 0xCA1 JUMPI PUSH0 PUSH1 0x40 MLOAD PUSH32 0x1E4FBDF700000000000000000000000000000000000000000000000000000000 DUP2 MSTORE PUSH1 0x4 ADD PUSH2 0xC98 SWAP2 SWAP1 PUSH2 0x2061 JUMP JUMPDEST PUSH1 0x40 MLOAD DUP1 SWAP2 SUB SWAP1 REVERT JUMPDEST PUSH2 0xCAA DUP2 PUSH2 0x108C JUMP JUMPDEST POP JUMP JUMPDEST PUSH1 0x9 PUSH1 0x20 MSTORE DUP1 PUSH0 MSTORE PUSH1 0x40 PUSH0 KECCAK256 PUSH0 SWAP2 POP SWAP1 POP SLOAD DUP2 JUMP JUMPDEST PUSH0 PUSH4 0x49064906 PUSH1 0xE0 SHL PUSH28 0xFFFFFFFFFFFFFFFFFFFFFFFFFFFFFFFFFFFFFFFFFFFFFFFFFFFFFFFF NOT AND DUP3 PUSH28 0xFFFFFFFFFFFFFFFFFFFFFFFFFFFFFFFFFFFFFFFFFFFFFFFFFFFFFFFF NOT AND EQ DUP1 PUSH2 0xD1B JUMPI POP PUSH2 0xD1A DUP3 PUSH2 0x15EC JUMP JUMPDEST JUMPDEST SWAP1 POP SWAP2 SWAP1 POP JUMP JUMPDEST PUSH0 DUP1 PUSH2 0xD2D DUP4 PUSH2 0x16CD JUMP JUMPDEST SWAP1 POP PUSH0 PUSH20 0xFFFFFFFFFFFFFFFFFFFFFFFFFFFFFFFFFFFFFFFF AND DUP2 PUSH20 0xFFFFFFFFFFFFFFFFFFFFFFFFFFFFFFFFFFFFFFFF AND SUB PUSH2 0xD9F JUMPI DUP3 PUSH1 0x40 MLOAD PUSH32 0x7E27328900000000000000000000000000000000000000000000000000000000 DUP2 MSTORE PUSH1 0x4 ADD PUSH2 0xD96 SWAP2 SWAP1 PUSH2 0x228F JUMP JUMPDEST PUSH1 0x40 MLOAD DUP1 SWAP2 SUB SWAP1 REVERT JUMPDEST DUP1 SWAP2 POP POP SWAP2 SWAP1 POP JUMP JUMPDEST PUSH0 PUSH1 0x4 PUSH0 DUP4 DUP2 MSTORE PUSH1 0x20 ADD SWAP1 DUP2 MSTORE PUSH1 0x20 ADD PUSH0 KECCAK256 PUSH0 SWAP1 SLOAD SWAP1 PUSH2 0x100 EXP SWAP1 DIV PUSH20 0xFFFFFFFFFFFFFFFFFFFFFFFFFFFFFFFFFFFFFFFF AND SWAP1 POP SWAP2 SWAP1 POP JUMP JUMPDEST PUSH0 CALLER SWAP1 POP SWAP1 JUMP JUMPDEST PUSH2 0xDF5 DUP4 DUP4 DUP4 PUSH1 0x1 PUSH2 0x1706 JUMP JUMPDEST POP POP POP JUMP JUMPDEST PUSH0 DUP1 PUSH2 0xE05 DUP5 PUSH2 0x16CD JUMP JUMPDEST SWAP1 POP PUSH0 PUSH20 0xFFFFFFFFFFFFFFFFFFFFFFFFFFFFFFFFFFFFFFFF AND DUP4 PUSH20 0xFFFFFFFFFFFFFFFFFFFFFFFFFFFFFFFFFFFFFFFF AND EQ PUSH2 0xE46 JUMPI PUSH2 0xE45 DUP2 DUP5 DUP7 PUSH2 0x18C5 JUMP JUMPDEST JUMPDEST PUSH0 PUSH20 0xFFFFFFFFFFFFFFFFFFFFFFFFFFFFFFFFFFFFFFFF AND DUP2 PUSH20 0xFFFFFFFFFFFFFFFFFFFFFFFFFFFFFFFFFFFFFFFF AND EQ PUSH2 0xED1 JUMPI PUSH2 0xE85 PUSH0 DUP6 PUSH0 DUP1 PUSH2 0x1706 JUMP JUMPDEST PUSH1 0x1 PUSH1 0x3 PUSH0 DUP4 PUSH20 0xFFFFFFFFFFFFFFFFFFFFFFFFFFFFFFFFFFFFFFFF AND PUSH20 0xFFFFFFFFFFFFFFFFFFFFFFFFFFFFFFFFFFFFFFFF AND DUP2 MSTORE PUSH1 0x20 ADD SWAP1 DUP2 MSTORE PUSH1 0x20 ADD PUSH0 KECCAK256 PUSH0 DUP3 DUP3 SLOAD SUB SWAP3 POP POP DUP2 SWAP1 SSTORE POP JUMPDEST PUSH0 PUSH20 0xFFFFFFFFFFFFFFFFFFFFFFFFFFFFFFFFFFFFFFFF AND DUP6 PUSH20 0xFFFFFFFFFFFFFFFFFFFFFFFFFFFFFFFFFFFFFFFF AND EQ PUSH2 0xF50 JUMPI PUSH1 0x1 PUSH1 0x3 PUSH0 DUP8 PUSH20 0xFFFFFFFFFFFFFFFFFFFFFFFFFFFFFFFFFFFFFFFF AND PUSH20 0xFFFFFFFFFFFFFFFFFFFFFFFFFFFFFFFFFFFFFFFF AND DUP2 MSTORE PUSH1 0x20 ADD SWAP1 DUP2 MSTORE PUSH1 0x20 ADD PUSH0 KECCAK256 PUSH0 DUP3 DUP3 SLOAD ADD SWAP3 POP POP DUP2 SWAP1 SSTORE POP JUMPDEST DUP5 PUSH1 0x2 PUSH0 DUP7 DUP2 MSTORE PUSH1 0x20 ADD SWAP1 DUP2 MSTORE PUSH1 0x20 ADD PUSH0 KECCAK256 PUSH0 PUSH2 0x100 EXP DUP2 SLOAD DUP2 PUSH20 0xFFFFFFFFFFFFFFFFFFFFFFFFFFFFFFFFFFFFFFFF MUL NOT AND SWAP1 DUP4 PUSH20 0xFFFFFFFFFFFFFFFFFFFFFFFFFFFFFFFFFFFFFFFF AND MUL OR SWAP1 SSTORE POP DUP4 DUP6 PUSH20 0xFFFFFFFFFFFFFFFFFFFFFFFFFFFFFFFFFFFFFFFF AND DUP3 PUSH20 0xFFFFFFFFFFFFFFFFFFFFFFFFFFFFFFFFFFFFFFFF AND PUSH32 0xDDF252AD1BE2C89B69C2B068FC378DAA952BA7F163C4A11628F55A4DF523B3EF PUSH1 0x40 MLOAD PUSH1 0x40 MLOAD DUP1 SWAP2 SUB SWAP1 LOG4 DUP1 SWAP2 POP POP SWAP4 SWAP3 POP POP POP JUMP JUMPDEST PUSH2 0x100D PUSH2 0xDE1 JUMP JUMPDEST PUSH20 0xFFFFFFFFFFFFFFFFFFFFFFFFFFFFFFFFFFFFFFFF AND PUSH2 0x102B PUSH2 0x983 JUMP JUMPDEST PUSH20 0xFFFFFFFFFFFFFFFFFFFFFFFFFFFFFFFFFFFFFFFF AND EQ PUSH2 0x108A JUMPI PUSH2 0x104E PUSH2 0xDE1 JUMP JUMPDEST PUSH1 0x40 MLOAD PUSH32 0x118CDAA700000000000000000000000000000000000000000000000000000000 DUP2 MSTORE PUSH1 0x4 ADD PUSH2 0x1081 SWAP2 SWAP1 PUSH2 0x2061 JUMP JUMPDEST PUSH1 0x40 MLOAD DUP1 SWAP2 SUB SWAP1 REVERT JUMPDEST JUMP JUMPDEST PUSH0 PUSH1 0x7 PUSH0 SWAP1 SLOAD SWAP1 PUSH2 0x100 EXP SWAP1 DIV PUSH20 0xFFFFFFFFFFFFFFFFFFFFFFFFFFFFFFFFFFFFFFFF AND SWAP1 POP DUP2 PUSH1 0x7 PUSH0 PUSH2 0x100 EXP DUP2 SLOAD DUP2 PUSH20 0xFFFFFFFFFFFFFFFFFFFFFFFFFFFFFFFFFFFFFFFF MUL NOT AND SWAP1 DUP4 PUSH20 0xFFFFFFFFFFFFFFFFFFFFFFFFFFFFFFFFFFFFFFFF AND MUL OR SWAP1 SSTORE POP DUP2 PUSH20 0xFFFFFFFFFFFFFFFFFFFFFFFFFFFFFFFFFFFFFFFF AND DUP2 PUSH20 0xFFFFFFFFFFFFFFFFFFFFFFFFFFFFFFFFFFFFFFFF AND PUSH32 0x8BE0079C531659141344CD1FD0A4F28419497F9722A3DAAFE3B4186F6B6457E0 PUSH1 0x40 MLOAD PUSH1 0x40 MLOAD DUP1 SWAP2 SUB SWAP1 LOG3 POP POP JUMP JUMPDEST PUSH0 PUSH20 0xFFFFFFFFFFFFFFFFFFFFFFFFFFFFFFFFFFFFFFFF AND DUP3 PUSH20 0xFFFFFFFFFFFFFFFFFFFFFFFFFFFFFFFFFFFFFFFF AND SUB PUSH2 0x11BF JUMPI DUP2 PUSH1 0x40 MLOAD PUSH32 0x5B08BA1800000000000000000000000000000000000000000000000000000000 DUP2 MSTORE PUSH1 0x4 ADD PUSH2 0x11B6 SWAP2 SWAP1 PUSH2 0x2061 JUMP JUMPDEST PUSH1 0x40 MLOAD DUP1 SWAP2 SUB SWAP1 REVERT JUMPDEST DUP1 PUSH1 0x5 PUSH0 DUP6 PUSH20 0xFFFFFFFFFFFFFFFFFFFFFFFFFFFFFFFFFFFFFFFF AND PUSH20 0xFFFFFFFFFFFFFFFFFFFFFFFFFFFFFFFFFFFFFFFF AND DUP2 MSTORE PUSH1 0x20 ADD SWAP1 DUP2 MSTORE PUSH1 0x20 ADD PUSH0 KECCAK256 PUSH0 DUP5 PUSH20 0xFFFFFFFFFFFFFFFFFFFFFFFFFFFFFFFFFFFFFFFF AND PUSH20 0xFFFFFFFFFFFFFFFFFFFFFFFFFFFFFFFFFFFFFFFF AND DUP2 MSTORE PUSH1 0x20 ADD SWAP1 DUP2 MSTORE PUSH1 0x20 ADD PUSH0 KECCAK256 PUSH0 PUSH2 0x100 EXP DUP2 SLOAD DUP2 PUSH1 0xFF MUL NOT AND SWAP1 DUP4 ISZERO ISZERO MUL OR SWAP1 SSTORE POP DUP2 PUSH20 0xFFFFFFFFFFFFFFFFFFFFFFFFFFFFFFFFFFFFFFFF AND DUP4 PUSH20 0xFFFFFFFFFFFFFFFFFFFFFFFFFFFFFFFFFFFFFFFF AND PUSH32 0x17307EAB39AB6107E8899845AD3D59BD9653F200F220920489CA2B5937696C31 DUP4 PUSH1 0x40 MLOAD PUSH2 0x12AB SWAP2 SWAP1 PUSH2 0x1F01 JUMP JUMPDEST PUSH1 0x40 MLOAD DUP1 SWAP2 SUB SWAP1 LOG3 POP POP POP JUMP JUMPDEST PUSH0 DUP4 PUSH20 0xFFFFFFFFFFFFFFFFFFFFFFFFFFFFFFFFFFFFFFFF AND EXTCODESIZE GT ISZERO PUSH2 0x1464 JUMPI DUP3 PUSH20 0xFFFFFFFFFFFFFFFFFFFFFFFFFFFFFFFFFFFFFFFF AND PUSH4 0x150B7A02 PUSH2 0x12FB PUSH2 0xDE1 JUMP JUMPDEST DUP7 DUP6 DUP6 PUSH1 0x40 MLOAD DUP6 PUSH4 0xFFFFFFFF AND PUSH1 0xE0 SHL DUP2 MSTORE PUSH1 0x4 ADD PUSH2 0x131D SWAP5 SWAP4 SWAP3 SWAP2 SWAP1 PUSH2 0x29E3 JUMP JUMPDEST PUSH1 0x20 PUSH1 0x40 MLOAD DUP1 DUP4 SUB DUP2 PUSH0 DUP8 GAS CALL SWAP3 POP POP POP DUP1 ISZERO PUSH2 0x1358 JUMPI POP PUSH1 0x40 MLOAD RETURNDATASIZE PUSH1 0x1F NOT PUSH1 0x1F DUP3 ADD AND DUP3 ADD DUP1 PUSH1 0x40 MSTORE POP DUP2 ADD SWAP1 PUSH2 0x1355 SWAP2 SWAP1 PUSH2 0x2A41 JUMP JUMPDEST PUSH1 0x1 JUMPDEST PUSH2 0x13D9 JUMPI RETURNDATASIZE DUP1 PUSH0 DUP2 EQ PUSH2 0x1386 JUMPI PUSH1 0x40 MLOAD SWAP2 POP PUSH1 0x1F NOT PUSH1 0x3F RETURNDATASIZE ADD AND DUP3 ADD PUSH1 0x40 MSTORE RETURNDATASIZE DUP3 MSTORE RETURNDATASIZE PUSH0 PUSH1 0x20 DUP5 ADD RETURNDATACOPY PUSH2 0x138B JUMP JUMPDEST PUSH1 0x60 SWAP2 POP JUMPDEST POP PUSH0 DUP2 MLOAD SUB PUSH2 0x13D1 JUMPI DUP4 PUSH1 0x40 MLOAD PUSH32 0x64A0AE9200000000000000000000000000000000000000000000000000000000 DUP2 MSTORE PUSH1 0x4 ADD PUSH2 0x13C8 SWAP2 SWAP1 PUSH2 0x2061 JUMP JUMPDEST PUSH1 0x40 MLOAD DUP1 SWAP2 SUB SWAP1 REVERT JUMPDEST DUP1 MLOAD DUP2 PUSH1 0x20 ADD REVERT JUMPDEST PUSH4 0x150B7A02 PUSH1 0xE0 SHL PUSH28 0xFFFFFFFFFFFFFFFFFFFFFFFFFFFFFFFFFFFFFFFFFFFFFFFFFFFFFFFF NOT AND DUP2 PUSH28 0xFFFFFFFFFFFFFFFFFFFFFFFFFFFFFFFFFFFFFFFFFFFFFFFFFFFFFFFF NOT AND EQ PUSH2 0x1462 JUMPI DUP4 PUSH1 0x40 MLOAD PUSH32 0x64A0AE9200000000000000000000000000000000000000000000000000000000 DUP2 MSTORE PUSH1 0x4 ADD PUSH2 0x1459 SWAP2 SWAP1 PUSH2 0x2061 JUMP JUMPDEST PUSH1 0x40 MLOAD DUP1 SWAP2 SUB SWAP1 REVERT JUMPDEST POP JUMPDEST POP POP POP POP JUMP JUMPDEST PUSH1 0x60 PUSH2 0x1475 DUP3 PUSH2 0xD22 JUMP JUMPDEST POP PUSH0 PUSH1 0x6 PUSH0 DUP5 DUP2 MSTORE PUSH1 0x20 ADD SWAP1 DUP2 MSTORE PUSH1 0x20 ADD PUSH0 KECCAK256 DUP1 SLOAD PUSH2 0x1493 SWAP1 PUSH2 0x261F JUMP JUMPDEST DUP1 PUSH1 0x1F ADD PUSH1 0x20 DUP1 SWAP2 DIV MUL PUSH1 0x20 ADD PUSH1 0x40 MLOAD SWAP1 DUP2 ADD PUSH1 0x40 MSTORE DUP1 SWAP3 SWAP2 SWAP1 DUP2 DUP2 MSTORE PUSH1 0x20 ADD DUP3 DUP1 SLOAD PUSH2 0x14BF SWAP1 PUSH2 0x261F JUMP JUMPDEST DUP1 ISZERO PUSH2 0x150A JUMPI DUP1 PUSH1 0x1F LT PUSH2 0x14E1 JUMPI PUSH2 0x100 DUP1 DUP4 SLOAD DIV MUL DUP4 MSTORE SWAP2 PUSH1 0x20 ADD SWAP2 PUSH2 0x150A JUMP JUMPDEST DUP3 ADD SWAP2 SWAP1 PUSH0 MSTORE PUSH1 0x20 PUSH0 KECCAK256 SWAP1 JUMPDEST DUP2 SLOAD DUP2 MSTORE SWAP1 PUSH1 0x1 ADD SWAP1 PUSH1 0x20 ADD DUP1 DUP4 GT PUSH2 0x14ED JUMPI DUP3 SWAP1 SUB PUSH1 0x1F AND DUP3 ADD SWAP2 JUMPDEST POP POP POP POP POP SWAP1 POP PUSH0 PUSH2 0x151A PUSH2 0x1988 JUMP JUMPDEST SWAP1 POP PUSH0 DUP2 MLOAD SUB PUSH2 0x152E JUMPI DUP2 SWAP3 POP POP POP PUSH2 0x1570 JUMP JUMPDEST PUSH0 DUP3 MLOAD GT ISZERO PUSH2 0x1562 JUMPI DUP1 DUP3 PUSH1 0x40 MLOAD PUSH1 0x20 ADD PUSH2 0x154A SWAP3 SWAP2 SWAP1 PUSH2 0x2AA6 JUMP JUMPDEST PUSH1 0x40 MLOAD PUSH1 0x20 DUP2 DUP4 SUB SUB DUP2 MSTORE SWAP1 PUSH1 0x40 MSTORE SWAP3 POP POP POP PUSH2 0x1570 JUMP JUMPDEST PUSH2 0x156B DUP5 PUSH2 0x199E JUMP JUMPDEST SWAP3 POP POP POP JUMPDEST SWAP2 SWAP1 POP JUMP JUMPDEST PUSH2 0x158E DUP3 DUP3 PUSH1 0x40 MLOAD DUP1 PUSH1 0x20 ADD PUSH1 0x40 MSTORE DUP1 PUSH0 DUP2 MSTORE POP PUSH2 0x1A04 JUMP JUMPDEST POP POP JUMP JUMPDEST DUP1 PUSH1 0x6 PUSH0 DUP5 DUP2 MSTORE PUSH1 0x20 ADD SWAP1 DUP2 MSTORE PUSH1 0x20 ADD PUSH0 KECCAK256 SWAP1 DUP2 PUSH2 0x15B0 SWAP2 SWAP1 PUSH2 0x28C2 JUMP JUMPDEST POP PUSH32 0xF8E1A15ABA9398E019F0B49DF1A4FDE98EE17AE345CB5F6B5E2C27F5033E8CE7 DUP3 PUSH1 0x40 MLOAD PUSH2 0x15E0 SWAP2 SWAP1 PUSH2 0x228F JUMP JUMPDEST PUSH1 0x40 MLOAD DUP1 SWAP2 SUB SWAP1 LOG1 POP POP JUMP JUMPDEST PUSH0 PUSH32 0x80AC58CD00000000000000000000000000000000000000000000000000000000 PUSH28 0xFFFFFFFFFFFFFFFFFFFFFFFFFFFFFFFFFFFFFFFFFFFFFFFFFFFFFFFF NOT AND DUP3 PUSH28 0xFFFFFFFFFFFFFFFFFFFFFFFFFFFFFFFFFFFFFFFFFFFFFFFFFFFFFFFF NOT AND EQ DUP1 PUSH2 0x16B6 JUMPI POP PUSH32 0x5B5E139F00000000000000000000000000000000000000000000000000000000 PUSH28 0xFFFFFFFFFFFFFFFFFFFFFFFFFFFFFFFFFFFFFFFFFFFFFFFFFFFFFFFF NOT AND DUP3 PUSH28 0xFFFFFFFFFFFFFFFFFFFFFFFFFFFFFFFFFFFFFFFFFFFFFFFFFFFFFFFF NOT AND EQ JUMPDEST DUP1 PUSH2 0x16C6 JUMPI POP PUSH2 0x16C5 DUP3 PUSH2 0x1A1F JUMP JUMPDEST JUMPDEST SWAP1 POP SWAP2 SWAP1 POP JUMP JUMPDEST PUSH0 PUSH1 0x2 PUSH0 DUP4 DUP2 MSTORE PUSH1 0x20 ADD SWAP1 DUP2 MSTORE PUSH1 0x20 ADD PUSH0 KECCAK256 PUSH0 SWAP1 SLOAD SWAP1 PUSH2 0x100 EXP SWAP1 DIV PUSH20 0xFFFFFFFFFFFFFFFFFFFFFFFFFFFFFFFFFFFFFFFF AND SWAP1 POP SWAP2 SWAP1 POP JUMP JUMPDEST DUP1 DUP1 PUSH2 0x173E JUMPI POP PUSH0 PUSH20 0xFFFFFFFFFFFFFFFFFFFFFFFFFFFFFFFFFFFFFFFF AND DUP3 PUSH20 0xFFFFFFFFFFFFFFFFFFFFFFFFFFFFFFFFFFFFFFFF AND EQ ISZERO JUMPDEST ISZERO PUSH2 0x1870 JUMPI PUSH0 PUSH2 0x174D DUP5 PUSH2 0xD22 JUMP JUMPDEST SWAP1 POP PUSH0 PUSH20 0xFFFFFFFFFFFFFFFFFFFFFFFFFFFFFFFFFFFFFFFF AND DUP4 PUSH20 0xFFFFFFFFFFFFFFFFFFFFFFFFFFFFFFFFFFFFFFFF AND EQ ISZERO DUP1 ISZERO PUSH2 0x17B7 JUMPI POP DUP3 PUSH20 0xFFFFFFFFFFFFFFFFFFFFFFFFFFFFFFFFFFFFFFFF AND DUP2 PUSH20 0xFFFFFFFFFFFFFFFFFFFFFFFFFFFFFFFFFFFFFFFF AND EQ ISZERO JUMPDEST DUP1 ISZERO PUSH2 0x17CA JUMPI POP PUSH2 0x17C8 DUP2 DUP5 PUSH2 0xB9B JUMP JUMPDEST ISZERO JUMPDEST ISZERO PUSH2 0x180C JUMPI DUP3 PUSH1 0x40 MLOAD PUSH32 0xA9FBF51F00000000000000000000000000000000000000000000000000000000 DUP2 MSTORE PUSH1 0x4 ADD PUSH2 0x1803 SWAP2 SWAP1 PUSH2 0x2061 JUMP JUMPDEST PUSH1 0x40 MLOAD DUP1 SWAP2 SUB SWAP1 REVERT JUMPDEST DUP2 ISZERO PUSH2 0x186E JUMPI DUP4 DUP6 PUSH20 0xFFFFFFFFFFFFFFFFFFFFFFFFFFFFFFFFFFFFFFFF AND DUP3 PUSH20 0xFFFFFFFFFFFFFFFFFFFFFFFFFFFFFFFFFFFFFFFF AND PUSH32 0x8C5BE1E5EBEC7D5BD14F71427D1E84F3DD0314C0F7B2291E5B200AC8C7C3B925 PUSH1 0x40 MLOAD PUSH1 0x40 MLOAD DUP1 SWAP2 SUB SWAP1 LOG4 JUMPDEST POP JUMPDEST DUP4 PUSH1 0x4 PUSH0 DUP6 DUP2 MSTORE PUSH1 0x20 ADD SWAP1 DUP2 MSTORE PUSH1 0x20 ADD PUSH0 KECCAK256 PUSH0 PUSH2 0x100 EXP DUP2 SLOAD DUP2 PUSH20 0xFFFFFFFFFFFFFFFFFFFFFFFFFFFFFFFFFFFFFFFF MUL NOT AND SWAP1 DUP4 PUSH20 0xFFFFFFFFFFFFFFFFFFFFFFFFFFFFFFFFFFFFFFFF AND MUL OR SWAP1 SSTORE POP POP POP POP POP JUMP JUMPDEST PUSH2 0x18D0 DUP4 DUP4 DUP4 PUSH2 0x1A88 JUMP JUMPDEST PUSH2 0x1983 JUMPI PUSH0 PUSH20 0xFFFFFFFFFFFFFFFFFFFFFFFFFFFFFFFFFFFFFFFF AND DUP4 PUSH20 0xFFFFFFFFFFFFFFFFFFFFFFFFFFFFFFFFFFFFFFFF AND SUB PUSH2 0x1944 JUMPI DUP1 PUSH1 0x40 MLOAD PUSH32 0x7E27328900000000000000000000000000000000000000000000000000000000 DUP2 MSTORE PUSH1 0x4 ADD PUSH2 0x193B SWAP2 SWAP1 PUSH2 0x228F JUMP JUMPDEST PUSH1 0x40 MLOAD DUP1 SWAP2 SUB SWAP1 REVERT JUMPDEST DUP2 DUP2 PUSH1 0x40 MLOAD PUSH32 0x177E802F00000000000000000000000000000000000000000000000000000000 DUP2 MSTORE PUSH1 0x4 ADD PUSH2 0x197A SWAP3 SWAP2 SWAP1 PUSH2 0x2AC9 JUMP JUMPDEST PUSH1 0x40 MLOAD DUP1 SWAP2 SUB SWAP1 REVERT JUMPDEST POP POP POP JUMP JUMPDEST PUSH1 0x60 PUSH1 0x40 MLOAD DUP1 PUSH1 0x20 ADD PUSH1 0x40 MSTORE DUP1 PUSH0 DUP2 MSTORE POP SWAP1 POP SWAP1 JUMP JUMPDEST PUSH1 0x60 PUSH2 0x19A9 DUP3 PUSH2 0xD22 JUMP JUMPDEST POP PUSH0 PUSH2 0x19B3 PUSH2 0x1988 JUMP JUMPDEST SWAP1 POP PUSH0 DUP2 MLOAD GT PUSH2 0x19D1 JUMPI PUSH1 0x40 MLOAD DUP1 PUSH1 0x20 ADD PUSH1 0x40 MSTORE DUP1 PUSH0 DUP2 MSTORE POP PUSH2 0x19FC JUMP JUMPDEST DUP1 PUSH2 0x19DB DUP5 PUSH2 0x1B48 JUMP JUMPDEST PUSH1 0x40 MLOAD PUSH1 0x20 ADD PUSH2 0x19EC SWAP3 SWAP2 SWAP1 PUSH2 0x2AA6 JUMP JUMPDEST PUSH1 0x40 MLOAD PUSH1 0x20 DUP2 DUP4 SUB SUB DUP2 MSTORE SWAP1 PUSH1 0x40 MSTORE JUMPDEST SWAP2 POP POP SWAP2 SWAP1 POP JUMP JUMPDEST PUSH2 0x1A0E DUP4 DUP4 PUSH2 0x1C12 JUMP JUMPDEST PUSH2 0x1A1A PUSH0 DUP5 DUP5 DUP5 PUSH2 0x12B8 JUMP JUMPDEST POP POP POP JUMP JUMPDEST PUSH0 PUSH32 0x1FFC9A700000000000000000000000000000000000000000000000000000000 PUSH28 0xFFFFFFFFFFFFFFFFFFFFFFFFFFFFFFFFFFFFFFFFFFFFFFFFFFFFFFFF NOT AND DUP3 PUSH28 0xFFFFFFFFFFFFFFFFFFFFFFFFFFFFFFFFFFFFFFFFFFFFFFFFFFFFFFFF NOT AND EQ SWAP1 POP SWAP2 SWAP1 POP JUMP JUMPDEST PUSH0 DUP1 PUSH20 0xFFFFFFFFFFFFFFFFFFFFFFFFFFFFFFFFFFFFFFFF AND DUP4 PUSH20 0xFFFFFFFFFFFFFFFFFFFFFFFFFFFFFFFFFFFFFFFF AND EQ ISZERO DUP1 ISZERO PUSH2 0x1B3F JUMPI POP DUP3 PUSH20 0xFFFFFFFFFFFFFFFFFFFFFFFFFFFFFFFFFFFFFFFF AND DUP5 PUSH20 0xFFFFFFFFFFFFFFFFFFFFFFFFFFFFFFFFFFFFFFFF AND EQ DUP1 PUSH2 0x1B00 JUMPI POP PUSH2 0x1AFF DUP5 DUP5 PUSH2 0xB9B JUMP JUMPDEST JUMPDEST DUP1 PUSH2 0x1B3E JUMPI POP DUP3 PUSH20 0xFFFFFFFFFFFFFFFFFFFFFFFFFFFFFFFFFFFFFFFF AND PUSH2 0x1B26 DUP4 PUSH2 0xDA8 JUMP JUMPDEST PUSH20 0xFFFFFFFFFFFFFFFFFFFFFFFFFFFFFFFFFFFFFFFF AND EQ JUMPDEST JUMPDEST SWAP1 POP SWAP4 SWAP3 POP POP POP JUMP JUMPDEST PUSH1 0x60 PUSH0 PUSH1 0x1 PUSH2 0x1B56 DUP5 PUSH2 0x1D05 JUMP JUMPDEST ADD SWAP1 POP PUSH0 DUP2 PUSH8 0xFFFFFFFFFFFFFFFF DUP2 GT ISZERO PUSH2 0x1B74 JUMPI PUSH2 0x1B73 PUSH2 0x2318 JUMP JUMPDEST JUMPDEST PUSH1 0x40 MLOAD SWAP1 DUP1 DUP3 MSTORE DUP1 PUSH1 0x1F ADD PUSH1 0x1F NOT AND PUSH1 0x20 ADD DUP3 ADD PUSH1 0x40 MSTORE DUP1 ISZERO PUSH2 0x1BA6 JUMPI DUP2 PUSH1 0x20 ADD PUSH1 0x1 DUP3 MUL DUP1 CALLDATASIZE DUP4 CALLDATACOPY DUP1 DUP3 ADD SWAP2 POP POP SWAP1 POP JUMPDEST POP SWAP1 POP PUSH0 DUP3 PUSH1 0x20 ADD DUP3 ADD SWAP1 POP JUMPDEST PUSH1 0x1 ISZERO PUSH2 0x1C07 JUMPI DUP1 DUP1 PUSH1 0x1 SWAP1 SUB SWAP2 POP POP PUSH32 0x3031323334353637383961626364656600000000000000000000000000000000 PUSH1 0xA DUP7 MOD BYTE DUP2 MSTORE8 PUSH1 0xA DUP6 DUP2 PUSH2 0x1BFC JUMPI PUSH2 0x1BFB PUSH2 0x2AF0 JUMP JUMPDEST JUMPDEST DIV SWAP5 POP PUSH0 DUP6 SUB PUSH2 0x1BB3 JUMPI JUMPDEST DUP2 SWAP4 POP POP POP POP SWAP2 SWAP1 POP JUMP JUMPDEST PUSH0 PUSH20 0xFFFFFFFFFFFFFFFFFFFFFFFFFFFFFFFFFFFFFFFF AND DUP3 PUSH20 0xFFFFFFFFFFFFFFFFFFFFFFFFFFFFFFFFFFFFFFFF AND SUB PUSH2 0x1C82 JUMPI PUSH0 PUSH1 0x40 MLOAD PUSH32 0x64A0AE9200000000000000000000000000000000000000000000000000000000 DUP2 MSTORE PUSH1 0x4 ADD PUSH2 0x1C79 SWAP2 SWAP1 PUSH2 0x2061 JUMP JUMPDEST PUSH1 0x40 MLOAD DUP1 SWAP2 SUB SWAP1 REVERT JUMPDEST PUSH0 PUSH2 0x1C8E DUP4 DUP4 PUSH0 PUSH2 0xDFA JUMP JUMPDEST SWAP1 POP PUSH0 PUSH20 0xFFFFFFFFFFFFFFFFFFFFFFFFFFFFFFFFFFFFFFFF AND DUP2 PUSH20 0xFFFFFFFFFFFFFFFFFFFFFFFFFFFFFFFFFFFFFFFF AND EQ PUSH2 0x1D00 JUMPI PUSH0 PUSH1 0x40 MLOAD PUSH32 0x73C6AC6E00000000000000000000000000000000000000000000000000000000 DUP2 MSTORE PUSH1 0x4 ADD PUSH2 0x1CF7 SWAP2 SWAP1 PUSH2 0x2061 JUMP JUMPDEST PUSH1 0x40 MLOAD DUP1 SWAP2 SUB SWAP1 REVERT JUMPDEST POP POP POP JUMP JUMPDEST PUSH0 DUP1 PUSH0 SWAP1 POP PUSH27 0x184F03E93FF9F4DAA797ED6E38ED64BF6A1F010000000000000000 DUP4 LT PUSH2 0x1D61 JUMPI PUSH27 0x184F03E93FF9F4DAA797ED6E38ED64BF6A1F010000000000000000 DUP4 DUP2 PUSH2 0x1D57 JUMPI PUSH2 0x1D56 PUSH2 0x2AF0 JUMP JUMPDEST JUMPDEST DIV SWAP3 POP PUSH1 0x40 DUP2 ADD SWAP1 POP JUMPDEST PUSH14 0x4EE2D6D415B85ACEF8100000000 DUP4 LT PUSH2 0x1D9E JUMPI PUSH14 0x4EE2D6D415B85ACEF8100000000 DUP4 DUP2 PUSH2 0x1D94 JUMPI PUSH2 0x1D93 PUSH2 0x2AF0 JUMP JUMPDEST JUMPDEST DIV SWAP3 POP PUSH1 0x20 DUP2 ADD SWAP1 POP JUMPDEST PUSH7 0x2386F26FC10000 DUP4 LT PUSH2 0x1DCD JUMPI PUSH7 0x2386F26FC10000 DUP4 DUP2 PUSH2 0x1DC3 JUMPI PUSH2 0x1DC2 PUSH2 0x2AF0 JUMP JUMPDEST JUMPDEST DIV SWAP3 POP PUSH1 0x10 DUP2 ADD SWAP1 POP JUMPDEST PUSH4 0x5F5E100 DUP4 LT PUSH2 0x1DF6 JUMPI PUSH4 0x5F5E100 DUP4 DUP2 PUSH2 0x1DEC JUMPI PUSH2 0x1DEB PUSH2 0x2AF0 JUMP JUMPDEST JUMPDEST DIV SWAP3 POP PUSH1 0x8 DUP2 ADD SWAP1 POP JUMPDEST PUSH2 0x2710 DUP4 LT PUSH2 0x1E1B JUMPI PUSH2 0x2710 DUP4 DUP2 PUSH2 0x1E11 JUMPI PUSH2 0x1E10 PUSH2 0x2AF0 JUMP JUMPDEST JUMPDEST DIV SWAP3 POP PUSH1 0x4 DUP2 ADD SWAP1 POP JUMPDEST PUSH1 0x64 DUP4 LT PUSH2 0x1E3E JUMPI PUSH1 0x64 DUP4 DUP2 PUSH2 0x1E34 JUMPI PUSH2 0x1E33 PUSH2 0x2AF0 JUMP JUMPDEST JUMPDEST DIV SWAP3 POP PUSH1 0x2 DUP2 ADD SWAP1 POP JUMPDEST PUSH1 0xA DUP4 LT PUSH2 0x1E4D JUMPI PUSH1 0x1 DUP2 ADD SWAP1 POP JUMPDEST DUP1 SWAP2 POP POP SWAP2 SWAP1 POP JUMP JUMPDEST PUSH0 PUSH1 0x40 MLOAD SWAP1 POP SWAP1 JUMP JUMPDEST PUSH0 DUP1 REVERT JUMPDEST PUSH0 DUP1 REVERT JUMPDEST PUSH0 PUSH32 0xFFFFFFFF00000000000000000000000000000000000000000000000000000000 DUP3 AND SWAP1 POP SWAP2 SWAP1 POP JUMP JUMPDEST PUSH2 0x1E9B DUP2 PUSH2 0x1E67 JUMP JUMPDEST DUP2 EQ PUSH2 0x1EA5 JUMPI PUSH0 DUP1 REVERT JUMPDEST POP JUMP JUMPDEST PUSH0 DUP2 CALLDATALOAD SWAP1 POP PUSH2 0x1EB6 DUP2 PUSH2 0x1E92 JUMP JUMPDEST SWAP3 SWAP2 POP POP JUMP JUMPDEST PUSH0 PUSH1 0x20 DUP3 DUP5 SUB SLT ISZERO PUSH2 0x1ED1 JUMPI PUSH2 0x1ED0 PUSH2 0x1E5F JUMP JUMPDEST JUMPDEST PUSH0 PUSH2 0x1EDE DUP5 DUP3 DUP6 ADD PUSH2 0x1EA8 JUMP JUMPDEST SWAP2 POP POP SWAP3 SWAP2 POP POP JUMP JUMPDEST PUSH0 DUP2 ISZERO ISZERO SWAP1 POP SWAP2 SWAP1 POP JUMP JUMPDEST PUSH2 0x1EFB DUP2 PUSH2 0x1EE7 JUMP JUMPDEST DUP3 MSTORE POP POP JUMP JUMPDEST PUSH0 PUSH1 0x20 DUP3 ADD SWAP1 POP PUSH2 0x1F14 PUSH0 DUP4 ADD DUP5 PUSH2 0x1EF2 JUMP JUMPDEST SWAP3 SWAP2 POP POP JUMP JUMPDEST PUSH0 DUP2 MLOAD SWAP1 POP SWAP2 SWAP1 POP JUMP JUMPDEST PUSH0 DUP3 DUP3 MSTORE PUSH1 0x20 DUP3 ADD SWAP1 POP SWAP3 SWAP2 POP POP JUMP JUMPDEST PUSH0 JUMPDEST DUP4 DUP2 LT ISZERO PUSH2 0x1F51 JUMPI DUP1 DUP3 ADD MLOAD DUP2 DUP5 ADD MSTORE PUSH1 0x20 DUP2 ADD SWAP1 POP PUSH2 0x1F36 JUMP JUMPDEST PUSH0 DUP5 DUP5 ADD MSTORE POP POP POP POP JUMP JUMPDEST PUSH0 PUSH1 0x1F NOT PUSH1 0x1F DUP4 ADD AND SWAP1 POP SWAP2 SWAP1 POP JUMP JUMPDEST PUSH0 PUSH2 0x1F76 DUP3 PUSH2 0x1F1A JUMP JUMPDEST PUSH2 0x1F80 DUP2 DUP6 PUSH2 0x1F24 JUMP JUMPDEST SWAP4 POP PUSH2 0x1F90 DUP2 DUP6 PUSH1 0x20 DUP7 ADD PUSH2 0x1F34 JUMP JUMPDEST PUSH2 0x1F99 DUP2 PUSH2 0x1F5C JUMP JUMPDEST DUP5 ADD SWAP2 POP POP SWAP3 SWAP2 POP POP JUMP JUMPDEST PUSH0 PUSH1 0x20 DUP3 ADD SWAP1 POP DUP2 DUP2 SUB PUSH0 DUP4 ADD MSTORE PUSH2 0x1FBC DUP2 DUP5 PUSH2 0x1F6C JUMP JUMPDEST SWAP1 POP SWAP3 SWAP2 POP POP JUMP JUMPDEST PUSH0 DUP2 SWAP1 POP SWAP2 SWAP1 POP JUMP JUMPDEST PUSH2 0x1FD6 DUP2 PUSH2 0x1FC4 JUMP JUMPDEST DUP2 EQ PUSH2 0x1FE0 JUMPI PUSH0 DUP1 REVERT JUMPDEST POP JUMP JUMPDEST PUSH0 DUP2 CALLDATALOAD SWAP1 POP PUSH2 0x1FF1 DUP2 PUSH2 0x1FCD JUMP JUMPDEST SWAP3 SWAP2 POP POP JUMP JUMPDEST PUSH0 PUSH1 0x20 DUP3 DUP5 SUB SLT ISZERO PUSH2 0x200C JUMPI PUSH2 0x200B PUSH2 0x1E5F JUMP JUMPDEST JUMPDEST PUSH0 PUSH2 0x2019 DUP5 DUP3 DUP6 ADD PUSH2 0x1FE3 JUMP JUMPDEST SWAP2 POP POP SWAP3 SWAP2 POP POP JUMP JUMPDEST PUSH0 PUSH20 0xFFFFFFFFFFFFFFFFFFFFFFFFFFFFFFFFFFFFFFFF DUP3 AND SWAP1 POP SWAP2 SWAP1 POP JUMP JUMPDEST PUSH0 PUSH2 0x204B DUP3 PUSH2 0x2022 JUMP JUMPDEST SWAP1 POP SWAP2 SWAP1 POP JUMP JUMPDEST PUSH2 0x205B DUP2 PUSH2 0x2041 JUMP JUMPDEST DUP3 MSTORE POP POP JUMP JUMPDEST PUSH0 PUSH1 0x20 DUP3 ADD SWAP1 POP PUSH2 0x2074 PUSH0 DUP4 ADD DUP5 PUSH2 0x2052 JUMP JUMPDEST SWAP3 SWAP2 POP POP JUMP JUMPDEST PUSH2 0x2083 DUP2 PUSH2 0x2041 JUMP JUMPDEST DUP2 EQ PUSH2 0x208D JUMPI PUSH0 DUP1 REVERT JUMPDEST POP JUMP JUMPDEST PUSH0 DUP2 CALLDATALOAD SWAP1 POP PUSH2 0x209E DUP2 PUSH2 0x207A JUMP JUMPDEST SWAP3 SWAP2 POP POP JUMP JUMPDEST PUSH0 PUSH1 0x20 DUP3 DUP5 SUB SLT ISZERO PUSH2 0x20B9 JUMPI PUSH2 0x20B8 PUSH2 0x1E5F JUMP JUMPDEST JUMPDEST PUSH0 PUSH2 0x20C6 DUP5 DUP3 DUP6 ADD PUSH2 0x2090 JUMP JUMPDEST SWAP2 POP POP SWAP3 SWAP2 POP POP JUMP JUMPDEST PUSH0 DUP2 MLOAD SWAP1 POP SWAP2 SWAP1 POP JUMP JUMPDEST PUSH0 DUP3 DUP3 MSTORE PUSH1 0x20 DUP3 ADD SWAP1 POP SWAP3 SWAP2 POP POP JUMP JUMPDEST PUSH0 DUP2 SWAP1 POP PUSH1 0x20 DUP3 ADD SWAP1 POP SWAP2 SWAP1 POP JUMP JUMPDEST PUSH0 DUP3 DUP3 MSTORE PUSH1 0x20 DUP3 ADD SWAP1 POP SWAP3 SWAP2 POP POP JUMP JUMPDEST PUSH0 PUSH2 0x2112 DUP3 PUSH2 0x1F1A JUMP JUMPDEST PUSH2 0x211C DUP2 DUP6 PUSH2 0x20F8 JUMP JUMPDEST SWAP4 POP PUSH2 0x212C DUP2 DUP6 PUSH1 0x20 DUP7 ADD PUSH2 0x1F34 JUMP JUMPDEST PUSH2 0x2135 DUP2 PUSH2 0x1F5C JUMP JUMPDEST DUP5 ADD SWAP2 POP POP SWAP3 SWAP2 POP POP JUMP JUMPDEST PUSH0 PUSH2 0x214B DUP4 DUP4 PUSH2 0x2108 JUMP JUMPDEST SWAP1 POP SWAP3 SWAP2 POP POP JUMP JUMPDEST PUSH0 PUSH1 0x20 DUP3 ADD SWAP1 POP SWAP2 SWAP1 POP JUMP JUMPDEST PUSH0 PUSH2 0x2169 DUP3 PUSH2 0x20CF JUMP JUMPDEST PUSH2 0x2173 DUP2 DUP6 PUSH2 0x20D9 JUMP JUMPDEST SWAP4 POP DUP4 PUSH1 0x20 DUP3 MUL DUP6 ADD PUSH2 0x2185 DUP6 PUSH2 0x20E9 JUMP JUMPDEST DUP1 PUSH0 JUMPDEST DUP6 DUP2 LT ISZERO PUSH2 0x21C0 JUMPI DUP5 DUP5 SUB DUP10 MSTORE DUP2 MLOAD PUSH2 0x21A1 DUP6 DUP3 PUSH2 0x2140 JUMP JUMPDEST SWAP5 POP PUSH2 0x21AC DUP4 PUSH2 0x2153 JUMP JUMPDEST SWAP3 POP PUSH1 0x20 DUP11 ADD SWAP10 POP POP PUSH1 0x1 DUP2 ADD SWAP1 POP PUSH2 0x2188 JUMP JUMPDEST POP DUP3 SWAP8 POP DUP8 SWAP6 POP POP POP POP POP POP SWAP3 SWAP2 POP POP JUMP JUMPDEST PUSH0 PUSH1 0x20 DUP3 ADD SWAP1 POP DUP2 DUP2 SUB PUSH0 DUP4 ADD MSTORE PUSH2 0x21EA DUP2 DUP5 PUSH2 0x215F JUMP JUMPDEST SWAP1 POP SWAP3 SWAP2 POP POP JUMP JUMPDEST PUSH0 DUP1 PUSH1 0x40 DUP4 DUP6 SUB SLT ISZERO PUSH2 0x2208 JUMPI PUSH2 0x2207 PUSH2 0x1E5F JUMP JUMPDEST JUMPDEST PUSH0 PUSH2 0x2215 DUP6 DUP3 DUP7 ADD PUSH2 0x2090 JUMP JUMPDEST SWAP3 POP POP PUSH1 0x20 PUSH2 0x2226 DUP6 DUP3 DUP7 ADD PUSH2 0x1FE3 JUMP JUMPDEST SWAP2 POP POP SWAP3 POP SWAP3 SWAP1 POP JUMP JUMPDEST PUSH0 DUP1 PUSH0 PUSH1 0x60 DUP5 DUP7 SUB SLT ISZERO PUSH2 0x2247 JUMPI PUSH2 0x2246 PUSH2 0x1E5F JUMP JUMPDEST JUMPDEST PUSH0 PUSH2 0x2254 DUP7 DUP3 DUP8 ADD PUSH2 0x2090 JUMP JUMPDEST SWAP4 POP POP PUSH1 0x20 PUSH2 0x2265 DUP7 DUP3 DUP8 ADD PUSH2 0x2090 JUMP JUMPDEST SWAP3 POP POP PUSH1 0x40 PUSH2 0x2276 DUP7 DUP3 DUP8 ADD PUSH2 0x1FE3 JUMP JUMPDEST SWAP2 POP POP SWAP3 POP SWAP3 POP SWAP3 JUMP JUMPDEST PUSH2 0x2289 DUP2 PUSH2 0x1FC4 JUMP JUMPDEST DUP3 MSTORE POP POP JUMP JUMPDEST PUSH0 PUSH1 0x20 DUP3 ADD SWAP1 POP PUSH2 0x22A2 PUSH0 DUP4 ADD DUP5 PUSH2 0x2280 JUMP JUMPDEST SWAP3 SWAP2 POP POP JUMP JUMPDEST PUSH2 0x22B1 DUP2 PUSH2 0x1EE7 JUMP JUMPDEST DUP2 EQ PUSH2 0x22BB JUMPI PUSH0 DUP1 REVERT JUMPDEST POP JUMP JUMPDEST PUSH0 DUP2 CALLDATALOAD SWAP1 POP PUSH2 0x22CC DUP2 PUSH2 0x22A8 JUMP JUMPDEST SWAP3 SWAP2 POP POP JUMP JUMPDEST PUSH0 DUP1 PUSH1 0x40 DUP4 DUP6 SUB SLT ISZERO PUSH2 0x22E8 JUMPI PUSH2 0x22E7 PUSH2 0x1E5F JUMP JUMPDEST JUMPDEST PUSH0 PUSH2 0x22F5 DUP6 DUP3 DUP7 ADD PUSH2 0x2090 JUMP JUMPDEST SWAP3 POP POP PUSH1 0x20 PUSH2 0x2306 DUP6 DUP3 DUP7 ADD PUSH2 0x22BE JUMP JUMPDEST SWAP2 POP POP SWAP3 POP SWAP3 SWAP1 POP JUMP JUMPDEST PUSH0 DUP1 REVERT JUMPDEST PUSH0 DUP1 REVERT JUMPDEST PUSH32 0x4E487B7100000000000000000000000000000000000000000000000000000000 PUSH0 MSTORE PUSH1 0x41 PUSH1 0x4 MSTORE PUSH1 0x24 PUSH0 REVERT JUMPDEST PUSH2 0x234E DUP3 PUSH2 0x1F5C JUMP JUMPDEST DUP2 ADD DUP2 DUP2 LT PUSH8 0xFFFFFFFFFFFFFFFF DUP3 GT OR ISZERO PUSH2 0x236D JUMPI PUSH2 0x236C PUSH2 0x2318 JUMP JUMPDEST JUMPDEST DUP1 PUSH1 0x40 MSTORE POP POP POP JUMP JUMPDEST PUSH0 PUSH2 0x237F PUSH2 0x1E56 JUMP JUMPDEST SWAP1 POP PUSH2 0x238B DUP3 DUP3 PUSH2 0x2345 JUMP JUMPDEST SWAP2 SWAP1 POP JUMP JUMPDEST PUSH0 PUSH8 0xFFFFFFFFFFFFFFFF DUP3 GT ISZERO PUSH2 0x23AA JUMPI PUSH2 0x23A9 PUSH2 0x2318 JUMP JUMPDEST JUMPDEST PUSH2 0x23B3 DUP3 PUSH2 0x1F5C JUMP JUMPDEST SWAP1 POP PUSH1 0x20 DUP2 ADD SWAP1 POP SWAP2 SWAP1 POP JUMP JUMPDEST DUP3 DUP2 DUP4 CALLDATACOPY PUSH0 DUP4 DUP4 ADD MSTORE POP POP POP JUMP JUMPDEST PUSH0 PUSH2 0x23E0 PUSH2 0x23DB DUP5 PUSH2 0x2390 JUMP JUMPDEST PUSH2 0x2376 JUMP JUMPDEST SWAP1 POP DUP3 DUP2 MSTORE PUSH1 0x20 DUP2 ADD DUP5 DUP5 DUP5 ADD GT ISZERO PUSH2 0x23FC JUMPI PUSH2 0x23FB PUSH2 0x2314 JUMP JUMPDEST JUMPDEST PUSH2 0x2407 DUP5 DUP3 DUP6 PUSH2 0x23C0 JUMP JUMPDEST POP SWAP4 SWAP3 POP POP POP JUMP JUMPDEST PUSH0 DUP3 PUSH1 0x1F DUP4 ADD SLT PUSH2 0x2423 JUMPI PUSH2 0x2422 PUSH2 0x2310 JUMP JUMPDEST JUMPDEST DUP2 CALLDATALOAD PUSH2 0x2433 DUP5 DUP3 PUSH1 0x20 DUP7 ADD PUSH2 0x23CE JUMP JUMPDEST SWAP2 POP POP SWAP3 SWAP2 POP POP JUMP JUMPDEST PUSH0 DUP1 PUSH0 DUP1 PUSH1 0x80 DUP6 DUP8 SUB SLT ISZERO PUSH2 0x2454 JUMPI PUSH2 0x2453 PUSH2 0x1E5F JUMP JUMPDEST JUMPDEST PUSH0 PUSH2 0x2461 DUP8 DUP3 DUP9 ADD PUSH2 0x2090 JUMP JUMPDEST SWAP5 POP POP PUSH1 0x20 PUSH2 0x2472 DUP8 DUP3 DUP9 ADD PUSH2 0x2090 JUMP JUMPDEST SWAP4 POP POP PUSH1 0x40 PUSH2 0x2483 DUP8 DUP3 DUP9 ADD PUSH2 0x1FE3 JUMP JUMPDEST SWAP3 POP POP PUSH1 0x60 DUP6 ADD CALLDATALOAD PUSH8 0xFFFFFFFFFFFFFFFF DUP2 GT ISZERO PUSH2 0x24A4 JUMPI PUSH2 0x24A3 PUSH2 0x1E63 JUMP JUMPDEST JUMPDEST PUSH2 0x24B0 DUP8 DUP3 DUP9 ADD PUSH2 0x240F JUMP JUMPDEST SWAP2 POP POP SWAP3 SWAP6 SWAP2 SWAP5 POP SWAP3 POP JUMP JUMPDEST PUSH0 PUSH8 0xFFFFFFFFFFFFFFFF DUP3 GT ISZERO PUSH2 0x24D6 JUMPI PUSH2 0x24D5 PUSH2 0x2318 JUMP JUMPDEST JUMPDEST PUSH2 0x24DF DUP3 PUSH2 0x1F5C JUMP JUMPDEST SWAP1 POP PUSH1 0x20 DUP2 ADD SWAP1 POP SWAP2 SWAP1 POP JUMP JUMPDEST PUSH0 PUSH2 0x24FE PUSH2 0x24F9 DUP5 PUSH2 0x24BC JUMP JUMPDEST PUSH2 0x2376 JUMP JUMPDEST SWAP1 POP DUP3 DUP2 MSTORE PUSH1 0x20 DUP2 ADD DUP5 DUP5 DUP5 ADD GT ISZERO PUSH2 0x251A JUMPI PUSH2 0x2519 PUSH2 0x2314 JUMP JUMPDEST JUMPDEST PUSH2 0x2525 DUP5 DUP3 DUP6 PUSH2 0x23C0 JUMP JUMPDEST POP SWAP4 SWAP3 POP POP POP JUMP JUMPDEST PUSH0 DUP3 PUSH1 0x1F DUP4 ADD SLT PUSH2 0x2541 JUMPI PUSH2 0x2540 PUSH2 0x2310 JUMP JUMPDEST JUMPDEST DUP2 CALLDATALOAD PUSH2 0x2551 DUP5 DUP3 PUSH1 0x20 DUP7 ADD PUSH2 0x24EC JUMP JUMPDEST SWAP2 POP POP SWAP3 SWAP2 POP POP JUMP JUMPDEST PUSH0 DUP1 PUSH1 0x40 DUP4 DUP6 SUB SLT ISZERO PUSH2 0x2570 JUMPI PUSH2 0x256F PUSH2 0x1E5F JUMP JUMPDEST JUMPDEST PUSH0 PUSH2 0x257D DUP6 DUP3 DUP7 ADD PUSH2 0x2090 JUMP JUMPDEST SWAP3 POP POP PUSH1 0x20 DUP4 ADD CALLDATALOAD PUSH8 0xFFFFFFFFFFFFFFFF DUP2 GT ISZERO PUSH2 0x259E JUMPI PUSH2 0x259D PUSH2 0x1E63 JUMP JUMPDEST JUMPDEST PUSH2 0x25AA DUP6 DUP3 DUP7 ADD PUSH2 0x252D JUMP JUMPDEST SWAP2 POP POP SWAP3 POP SWAP3 SWAP1 POP JUMP JUMPDEST PUSH0 DUP1 PUSH1 0x40 DUP4 DUP6 SUB SLT ISZERO PUSH2 0x25CA JUMPI PUSH2 0x25C9 PUSH2 0x1E5F JUMP JUMPDEST JUMPDEST PUSH0 PUSH2 0x25D7 DUP6 DUP3 DUP7 ADD PUSH2 0x2090 JUMP JUMPDEST SWAP3 POP POP PUSH1 0x20 PUSH2 0x25E8 DUP6 DUP3 DUP7 ADD PUSH2 0x2090 JUMP JUMPDEST SWAP2 POP POP SWAP3 POP SWAP3 SWAP1 POP JUMP JUMPDEST PUSH32 0x4E487B7100000000000000000000000000000000000000000000000000000000 PUSH0 MSTORE PUSH1 0x22 PUSH1 0x4 MSTORE PUSH1 0x24 PUSH0 REVERT JUMPDEST PUSH0 PUSH1 0x2 DUP3 DIV SWAP1 POP PUSH1 0x1 DUP3 AND DUP1 PUSH2 0x2636 JUMPI PUSH1 0x7F DUP3 AND SWAP2 POP JUMPDEST PUSH1 0x20 DUP3 LT DUP2 SUB PUSH2 0x2649 JUMPI PUSH2 0x2648 PUSH2 0x25F2 JUMP JUMPDEST JUMPDEST POP SWAP2 SWAP1 POP JUMP JUMPDEST PUSH32 0x4E487B7100000000000000000000000000000000000000000000000000000000 PUSH0 MSTORE PUSH1 0x32 PUSH1 0x4 MSTORE PUSH1 0x24 PUSH0 REVERT JUMPDEST PUSH0 PUSH1 0x60 DUP3 ADD SWAP1 POP PUSH2 0x268F PUSH0 DUP4 ADD DUP7 PUSH2 0x2052 JUMP JUMPDEST PUSH2 0x269C PUSH1 0x20 DUP4 ADD DUP6 PUSH2 0x2280 JUMP JUMPDEST PUSH2 0x26A9 PUSH1 0x40 DUP4 ADD DUP5 PUSH2 0x2052 JUMP JUMPDEST SWAP5 SWAP4 POP POP POP POP JUMP JUMPDEST PUSH32 0x4E487B7100000000000000000000000000000000000000000000000000000000 PUSH0 MSTORE PUSH1 0x11 PUSH1 0x4 MSTORE PUSH1 0x24 PUSH0 REVERT JUMPDEST PUSH0 PUSH2 0x26E8 DUP3 PUSH2 0x1FC4 JUMP JUMPDEST SWAP2 POP PUSH32 0xFFFFFFFFFFFFFFFFFFFFFFFFFFFFFFFFFFFFFFFFFFFFFFFFFFFFFFFFFFFFFFFF DUP3 SUB PUSH2 0x271A JUMPI PUSH2 0x2719 PUSH2 0x26B1 JUMP JUMPDEST JUMPDEST PUSH1 0x1 DUP3 ADD SWAP1 POP SWAP2 SWAP1 POP JUMP JUMPDEST PUSH0 DUP2 SWAP1 POP DUP2 PUSH0 MSTORE PUSH1 0x20 PUSH0 KECCAK256 SWAP1 POP SWAP2 SWAP1 POP JUMP JUMPDEST PUSH0 PUSH1 0x20 PUSH1 0x1F DUP4 ADD DIV SWAP1 POP SWAP2 SWAP1 POP JUMP JUMPDEST PUSH0 DUP3 DUP3 SHL SWAP1 POP SWAP3 SWAP2 POP POP JUMP JUMPDEST PUSH0 PUSH1 0x8 DUP4 MUL PUSH2 0x2781 PUSH32 0xFFFFFFFFFFFFFFFFFFFFFFFFFFFFFFFFFFFFFFFFFFFFFFFFFFFFFFFFFFFFFFFF DUP3 PUSH2 0x2746 JUMP JUMPDEST PUSH2 0x278B DUP7 DUP4 PUSH2 0x2746 JUMP JUMPDEST SWAP6 POP DUP1 NOT DUP5 AND SWAP4 POP DUP1 DUP7 AND DUP5 OR SWAP3 POP POP POP SWAP4 SWAP3 POP POP POP JUMP JUMPDEST PUSH0 DUP2 SWAP1 POP SWAP2 SWAP1 POP JUMP JUMPDEST PUSH0 PUSH2 0x27C6 PUSH2 0x27C1 PUSH2 0x27BC DUP5 PUSH2 0x1FC4 JUMP JUMPDEST PUSH2 0x27A3 JUMP JUMPDEST PUSH2 0x1FC4 JUMP JUMPDEST SWAP1 POP SWAP2 SWAP1 POP JUMP JUMPDEST PUSH0 DUP2 SWAP1 POP SWAP2 SWAP1 POP JUMP JUMPDEST PUSH2 0x27DF DUP4 PUSH2 0x27AC JUMP JUMPDEST PUSH2 0x27F3 PUSH2 0x27EB DUP3 PUSH2 0x27CD JUMP JUMPDEST DUP5 DUP5 SLOAD PUSH2 0x2752 JUMP JUMPDEST DUP3 SSTORE POP POP POP POP JUMP JUMPDEST PUSH0 SWAP1 JUMP JUMPDEST PUSH2 0x2807 PUSH2 0x27FB JUMP JUMPDEST PUSH2 0x2812 DUP2 DUP5 DUP5 PUSH2 0x27D6 JUMP JUMPDEST POP POP POP JUMP JUMPDEST JUMPDEST DUP2 DUP2 LT ISZERO PUSH2 0x2835 JUMPI PUSH2 0x282A PUSH0 DUP3 PUSH2 0x27FF JUMP JUMPDEST PUSH1 0x1 DUP2 ADD SWAP1 POP PUSH2 0x2818 JUMP JUMPDEST POP POP JUMP JUMPDEST PUSH1 0x1F DUP3 GT ISZERO PUSH2 0x287A JUMPI PUSH2 0x284B DUP2 PUSH2 0x2725 JUMP JUMPDEST PUSH2 0x2854 DUP5 PUSH2 0x2737 JUMP JUMPDEST DUP2 ADD PUSH1 0x20 DUP6 LT ISZERO PUSH2 0x2863 JUMPI DUP2 SWAP1 POP JUMPDEST PUSH2 0x2877 PUSH2 0x286F DUP6 PUSH2 0x2737 JUMP JUMPDEST DUP4 ADD DUP3 PUSH2 0x2817 JUMP JUMPDEST POP POP JUMPDEST POP POP POP JUMP JUMPDEST PUSH0 DUP3 DUP3 SHR SWAP1 POP SWAP3 SWAP2 POP POP JUMP JUMPDEST PUSH0 PUSH2 0x289A PUSH0 NOT DUP5 PUSH1 0x8 MUL PUSH2 0x287F JUMP JUMPDEST NOT DUP1 DUP4 AND SWAP2 POP POP SWAP3 SWAP2 POP POP JUMP JUMPDEST PUSH0 PUSH2 0x28B2 DUP4 DUP4 PUSH2 0x288B JUMP JUMPDEST SWAP2 POP DUP3 PUSH1 0x2 MUL DUP3 OR SWAP1 POP SWAP3 SWAP2 POP POP JUMP JUMPDEST PUSH2 0x28CB DUP3 PUSH2 0x1F1A JUMP JUMPDEST PUSH8 0xFFFFFFFFFFFFFFFF DUP2 GT ISZERO PUSH2 0x28E4 JUMPI PUSH2 0x28E3 PUSH2 0x2318 JUMP JUMPDEST JUMPDEST PUSH2 0x28EE DUP3 SLOAD PUSH2 0x261F JUMP JUMPDEST PUSH2 0x28F9 DUP3 DUP3 DUP6 PUSH2 0x2839 JUMP JUMPDEST PUSH0 PUSH1 0x20 SWAP1 POP PUSH1 0x1F DUP4 GT PUSH1 0x1 DUP2 EQ PUSH2 0x292A JUMPI PUSH0 DUP5 ISZERO PUSH2 0x2918 JUMPI DUP3 DUP8 ADD MLOAD SWAP1 POP JUMPDEST PUSH2 0x2922 DUP6 DUP3 PUSH2 0x28A7 JUMP JUMPDEST DUP7 SSTORE POP PUSH2 0x2989 JUMP JUMPDEST PUSH1 0x1F NOT DUP5 AND PUSH2 0x2938 DUP7 PUSH2 0x2725 JUMP JUMPDEST PUSH0 JUMPDEST DUP3 DUP2 LT ISZERO PUSH2 0x295F JUMPI DUP5 DUP10 ADD MLOAD DUP3 SSTORE PUSH1 0x1 DUP3 ADD SWAP2 POP PUSH1 0x20 DUP6 ADD SWAP5 POP PUSH1 0x20 DUP2 ADD SWAP1 POP PUSH2 0x293A JUMP JUMPDEST DUP7 DUP4 LT ISZERO PUSH2 0x297C JUMPI DUP5 DUP10 ADD MLOAD PUSH2 0x2978 PUSH1 0x1F DUP10 AND DUP3 PUSH2 0x288B JUMP JUMPDEST DUP4 SSTORE POP JUMPDEST PUSH1 0x1 PUSH1 0x2 DUP9 MUL ADD DUP9 SSTORE POP POP POP JUMPDEST POP POP POP POP POP POP JUMP JUMPDEST PUSH0 DUP2 MLOAD SWAP1 POP SWAP2 SWAP1 POP JUMP JUMPDEST PUSH0 DUP3 DUP3 MSTORE PUSH1 0x20 DUP3 ADD SWAP1 POP SWAP3 SWAP2 POP POP JUMP JUMPDEST PUSH0 PUSH2 0x29B5 DUP3 PUSH2 0x2991 JUMP JUMPDEST PUSH2 0x29BF DUP2 DUP6 PUSH2 0x299B JUMP JUMPDEST SWAP4 POP PUSH2 0x29CF DUP2 DUP6 PUSH1 0x20 DUP7 ADD PUSH2 0x1F34 JUMP JUMPDEST PUSH2 0x29D8 DUP2 PUSH2 0x1F5C JUMP JUMPDEST DUP5 ADD SWAP2 POP POP SWAP3 SWAP2 POP POP JUMP JUMPDEST PUSH0 PUSH1 0x80 DUP3 ADD SWAP1 POP PUSH2 0x29F6 PUSH0 DUP4 ADD DUP8 PUSH2 0x2052 JUMP JUMPDEST PUSH2 0x2A03 PUSH1 0x20 DUP4 ADD DUP7 PUSH2 0x2052 JUMP JUMPDEST PUSH2 0x2A10 PUSH1 0x40 DUP4 ADD DUP6 PUSH2 0x2280 JUMP JUMPDEST DUP2 DUP2 SUB PUSH1 0x60 DUP4 ADD MSTORE PUSH2 0x2A22 DUP2 DUP5 PUSH2 0x29AB JUMP JUMPDEST SWAP1 POP SWAP6 SWAP5 POP POP POP POP POP JUMP JUMPDEST PUSH0 DUP2 MLOAD SWAP1 POP PUSH2 0x2A3B DUP2 PUSH2 0x1E92 JUMP JUMPDEST SWAP3 SWAP2 POP POP JUMP JUMPDEST PUSH0 PUSH1 0x20 DUP3 DUP5 SUB SLT ISZERO PUSH2 0x2A56 JUMPI PUSH2 0x2A55 PUSH2 0x1E5F JUMP JUMPDEST JUMPDEST PUSH0 PUSH2 0x2A63 DUP5 DUP3 DUP6 ADD PUSH2 0x2A2D JUMP JUMPDEST SWAP2 POP POP SWAP3 SWAP2 POP POP JUMP JUMPDEST PUSH0 DUP2 SWAP1 POP SWAP3 SWAP2 POP POP JUMP JUMPDEST PUSH0 PUSH2 0x2A80 DUP3 PUSH2 0x1F1A JUMP JUMPDEST PUSH2 0x2A8A DUP2 DUP6 PUSH2 0x2A6C JUMP JUMPDEST SWAP4 POP PUSH2 0x2A9A DUP2 DUP6 PUSH1 0x20 DUP7 ADD PUSH2 0x1F34 JUMP JUMPDEST DUP1 DUP5 ADD SWAP2 POP POP SWAP3 SWAP2 POP POP JUMP JUMPDEST PUSH0 PUSH2 0x2AB1 DUP3 DUP6 PUSH2 0x2A76 JUMP JUMPDEST SWAP2 POP PUSH2 0x2ABD DUP3 DUP5 PUSH2 0x2A76 JUMP JUMPDEST SWAP2 POP DUP2 SWAP1 POP SWAP4 SWAP3 POP POP POP JUMP JUMPDEST PUSH0 PUSH1 0x40 DUP3 ADD SWAP1 POP PUSH2 0x2ADC PUSH0 DUP4 ADD DUP6 PUSH2 0x2052 JUMP JUMPDEST PUSH2 0x2AE9 PUSH1 0x20 DUP4 ADD DUP5 PUSH2 0x2280 JUMP JUMPDEST SWAP4 SWAP3 POP POP POP JUMP JUMPDEST PUSH32 0x4E487B7100000000000000000000000000000000000000000000000000000000 PUSH0 MSTORE PUSH1 0x12 PUSH1 0x4 MSTORE PUSH1 0x24 PUSH0 REVERT INVALID LOG2 PUSH5 0x6970667358 0x22 SLT KECCAK256 SWAP6 0x2E PUSH5 0x9DE24FE7F5 0xB4 MSTORE8 0xE9 DIV 0xE6 0xAF 0x4C SELFDESTRUCT 0xE6 LOG1 0xF7 0xCC DUP7 0xFB PUSH18 0xF9780D44F583839CE464736F6C6343000818 STOP CALLER "
				},
				"gasEstimates": {
					"creation": {
						"codeDepositCost": "2218200",
						"executionCost": "infinite",
						"totalCost": "infinite"
					},
					"external": {
						"_nextTokenId()": "2514",
						"approve(address,uint256)": "infinite",
						"balanceOf(address)": "infinite",
						"getAllURIPerUser(address)": "infinite",
						"getApproved(uint256)": "infinite",
						"getURI(address,uint256)": "infinite",
						"isApprovedForAll(address,address)": "infinite",
						"name()": "infinite",
						"owner()": "2582",
						"ownerOf(uint256)": "infinite",
						"renounceOwnership()": "infinite",
						"safeMint(address,string)": "infinite",
						"safeTransferFrom(address,address,uint256)": "infinite",
						"safeTransferFrom(address,address,uint256,bytes)": "infinite",
						"setApprovalForAll(address,bool)": "infinite",
						"supportsInterface(bytes4)": "923",
						"symbol()": "infinite",
						"tokenURI(uint256)": "infinite",
						"totalMintPerUser(address)": "2934",
						"transferFrom(address,address,uint256)": "infinite",
						"transferOwnership(address)": "infinite"
					}
				},
				"methodIdentifiers": {
					"_nextTokenId()": "4a60f620",
					"approve(address,uint256)": "095ea7b3",
					"balanceOf(address)": "70a08231",
					"getAllURIPerUser(address)": "08aa3e2a",
					"getApproved(uint256)": "081812fc",
					"getURI(address,uint256)": "47237162",
					"isApprovedForAll(address,address)": "e985e9c5",
					"name()": "06fdde03",
					"owner()": "8da5cb5b",
					"ownerOf(uint256)": "6352211e",
					"renounceOwnership()": "715018a6",
					"safeMint(address,string)": "d204c45e",
					"safeTransferFrom(address,address,uint256)": "42842e0e",
					"safeTransferFrom(address,address,uint256,bytes)": "b88d4fde",
					"setApprovalForAll(address,bool)": "a22cb465",
					"supportsInterface(bytes4)": "01ffc9a7",
					"symbol()": "95d89b41",
					"tokenURI(uint256)": "c87b56dd",
					"totalMintPerUser(address)": "faaaae4b",
					"transferFrom(address,address,uint256)": "23b872dd",
					"transferOwnership(address)": "f2fde38b"
				}
			},
			"storageLayout": {
				"storage": [
					{
						"astId": 349,
						"contract": "contracts/Lavocate/mint.sol:LegalAiContract",
						"label": "_name",
						"offset": 0,
						"slot": "0",
						"type": "t_string_storage"
					},
					{
						"astId": 351,
						"contract": "contracts/Lavocate/mint.sol:LegalAiContract",
						"label": "_symbol",
						"offset": 0,
						"slot": "1",
						"type": "t_string_storage"
					},
					{
						"astId": 355,
						"contract": "contracts/Lavocate/mint.sol:LegalAiContract",
						"label": "_owners",
						"offset": 0,
						"slot": "2",
						"type": "t_mapping(t_uint256,t_address)"
					},
					{
						"astId": 359,
						"contract": "contracts/Lavocate/mint.sol:LegalAiContract",
						"label": "_balances",
						"offset": 0,
						"slot": "3",
						"type": "t_mapping(t_address,t_uint256)"
					},
					{
						"astId": 363,
						"contract": "contracts/Lavocate/mint.sol:LegalAiContract",
						"label": "_tokenApprovals",
						"offset": 0,
						"slot": "4",
						"type": "t_mapping(t_uint256,t_address)"
					},
					{
						"astId": 369,
						"contract": "contracts/Lavocate/mint.sol:LegalAiContract",
						"label": "_operatorApprovals",
						"offset": 0,
						"slot": "5",
						"type": "t_mapping(t_address,t_mapping(t_address,t_bool))"
					},
					{
						"astId": 1488,
						"contract": "contracts/Lavocate/mint.sol:LegalAiContract",
						"label": "_tokenURIs",
						"offset": 0,
						"slot": "6",
						"type": "t_mapping(t_uint256,t_string_storage)"
					},
					{
						"astId": 8,
						"contract": "contracts/Lavocate/mint.sol:LegalAiContract",
						"label": "_owner",
						"offset": 0,
						"slot": "7",
						"type": "t_address"
					},
					{
						"astId": 3107,
						"contract": "contracts/Lavocate/mint.sol:LegalAiContract",
						"label": "_nextTokenId",
						"offset": 0,
						"slot": "8",
						"type": "t_uint256"
					},
					{
						"astId": 3111,
						"contract": "contracts/Lavocate/mint.sol:LegalAiContract",
						"label": "totalMintPerUser",
						"offset": 0,
						"slot": "9",
						"type": "t_mapping(t_address,t_uint256)"
					},
					{
						"astId": 3117,
						"contract": "contracts/Lavocate/mint.sol:LegalAiContract",
						"label": "getURI",
						"offset": 0,
						"slot": "10",
						"type": "t_mapping(t_address,t_mapping(t_uint256,t_string_storage))"
					}
				],
				"types": {
					"t_address": {
						"encoding": "inplace",
						"label": "address",
						"numberOfBytes": "20"
					},
					"t_bool": {
						"encoding": "inplace",
						"label": "bool",
						"numberOfBytes": "1"
					},
					"t_mapping(t_address,t_bool)": {
						"encoding": "mapping",
						"key": "t_address",
						"label": "mapping(address => bool)",
						"numberOfBytes": "32",
						"value": "t_bool"
					},
					"t_mapping(t_address,t_mapping(t_address,t_bool))": {
						"encoding": "mapping",
						"key": "t_address",
						"label": "mapping(address => mapping(address => bool))",
						"numberOfBytes": "32",
						"value": "t_mapping(t_address,t_bool)"
					},
					"t_mapping(t_address,t_mapping(t_uint256,t_string_storage))": {
						"encoding": "mapping",
						"key": "t_address",
						"label": "mapping(address => mapping(uint256 => string))",
						"numberOfBytes": "32",
						"value": "t_mapping(t_uint256,t_string_storage)"
					},
					"t_mapping(t_address,t_uint256)": {
						"encoding": "mapping",
						"key": "t_address",
						"label": "mapping(address => uint256)",
						"numberOfBytes": "32",
						"value": "t_uint256"
					},
					"t_mapping(t_uint256,t_address)": {
						"encoding": "mapping",
						"key": "t_uint256",
						"label": "mapping(uint256 => address)",
						"numberOfBytes": "32",
						"value": "t_address"
					},
					"t_mapping(t_uint256,t_string_storage)": {
						"encoding": "mapping",
						"key": "t_uint256",
						"label": "mapping(uint256 => string)",
						"numberOfBytes": "32",
						"value": "t_string_storage"
					},
					"t_string_storage": {
						"encoding": "bytes",
						"label": "string",
						"numberOfBytes": "32"
					},
					"t_uint256": {
						"encoding": "inplace",
						"label": "uint256",
						"numberOfBytes": "32"
					}
				}
			},
			"userdoc": {
				"kind": "user",
				"methods": {},
				"version": 1
			}
		}
	}
}