{
	"data": {
		"bytecode": {
			"linkReferences": {},
			"object": "60806040523480156200001157600080fd5b506040516200159e3803806200159e8339810160408190526200003491620000f1565b6200003f3362000084565b600180546001600160a01b039485166001600160a01b031991821617909155600592909255600380549190931690821617909155600280549091163317905562000132565b600080546001600160a01b038381166001600160a01b0319831681178455604051919092169283917f8be0079c531659141344cd1fd0a4f28419497f9722a3daafe3b4186f6b6457e09190a35050565b80516001600160a01b0381168114620000ec57600080fd5b919050565b6000806000606084860312156200010757600080fd5b6200011284620000d4565b9250602084015191506200012960408501620000d4565b90509250925092565b61145c80620001426000396000f3fe608060405234801561001057600080fd5b50600436106101585760003560e01c80638da5cb5b116100c3578063c45af5d81161007c578063c45af5d8146102f2578063e4458b3014610305578063e88cc2be14610354578063ee0106d214610386578063f2fde38b14610399578063f89d832f146103ac57600080fd5b80638da5cb5b14610282578063934ed77214610293578063a6021ace146102a6578063a88e132f146102b9578063b7171a2e146102cc578063c0cd40ee146102df57600080fd5b80634d6ce1e5116101155780634d6ce1e514610224578063574880641461023757806357ea89b614610257578063715018a61461025f5780637b2f247f146102675780638b73e3311461026f57600080fd5b8063023245d71461015d5780630ccff6e91461017257806310fd4fba1461018e578063150b7a02146101b9578063275bd33f146101f15780632ffce21014610204575b600080fd5b61017061016b3660046111c1565b6103bf565b005b61017b60045481565b6040519081526020015b60405180910390f35b6002546101a1906001600160a01b031681565b6040516001600160a01b039091168152602001610185565b6101d86101c73660046111f1565b630a85bd0160e11b95945050505050565b6040516001600160e01b03199091168152602001610185565b6101706101ff36600461128c565b6104b4565b61017b61021236600461128c565b60086020526000908152604090205481565b6101706102323660046111c1565b6104de565b61017b61024536600461128c565b60076020526000908152604090205481565b6101706105a5565b6101706108be565b61017b6108d0565b61017b61027d36600461128c565b61090d565b6000546001600160a01b03166101a1565b6101706102a13660046112ae565b610a12565b6003546101a1906001600160a01b031681565b6101706102c73660046111c1565b610b8a565b6001546101a1906001600160a01b031681565b6101706102ed3660046111c1565b610be6565b61017b61030036600461128c565b610c9d565b61033761031336600461128c565b60096020526000908152604090208054600182015460029092015490919060ff1683565b604080519384526020840192909252151590820152606001610185565b61033761036236600461128c565b60066020526000908152604090208054600182015460029092015490919060ff1683565b61017061039436600461128c565b610dcf565b6101706103a736600461128c565b610df9565b6101706103ba3660046111c1565b610e6f565b3360009081526009602052604090206002015460ff166104265760405162461bcd60e51b815260206004820152601760248201527f506c65617365204669727374205374616b65204e46547300000000000000000060448201526064015b60405180910390fd5b600154604051635c46a7ef60e11b81526001600160a01b039091169063b88d4fde9061045a903090339086906004016112d0565b600060405180830381600087803b15801561047457600080fd5b505af1158015610488573d6000803e3d6000fd5b50503360009081526009602052604081208181556001810191909155600201805460ff19169055505050565b6104bc610e7c565b600380546001600160a01b0319166001600160a01b0392909216919091179055565b3360009081526006602052604090206002015460ff16156105395760405162461bcd60e51b8152602060048201526015602482015274506c6561736520466972737420576974684472617760581b604482015260640161041d565b60408051606081018252828152426020808301918252600183850181815233600081815260069094529590922093518455915191830191909155516002909101805460ff19169115159190911790556003546105a2916001600160a01b03909116903084610ed6565b50565b3360009081526006602052604090206002015460ff166105fc5760405162461bcd60e51b8152602060048201526012602482015271506c65617365204669727374205374616b6560701b604482015260640161041d565b3360009081526009602052604090206002015460ff16156107bc5733600081815260066020526040812054916106319061090d565b600180543360008181526009602052604090819020909301549251635c46a7ef60e11b81529394506001600160a01b039091169263b88d4fde9261067c9230929091906004016112d0565b600060405180830381600087803b15801561069657600080fd5b505af11580156106aa573d6000803e3d6000fd5b50506003546001600160a01b0316915063a9059cbb9050336106cc8486611319565b6040516001600160e01b031960e085901b1681526001600160a01b03909216600483015260248201526044016020604051808303816000875af1158015610717573d6000803e3d6000fd5b505050506040513d601f19601f8201168201806040525081019061073b9190611331565b506002546001600160a01b031660009081526008602052604081208054839290610766908490611353565b909155505033600090815260096020908152604080832083815560018082018590556002918201805460ff1990811690915560069094529184208481559182019390935590910180549091169055506108bc9050565b33600081815260066020526040812054916107d69061090d565b6003549091506001600160a01b031663a9059cbb336107f58486611319565b6040516001600160e01b031960e085901b1681526001600160a01b03909216600483015260248201526044016020604051808303816000875af1158015610840573d6000803e3d6000fd5b505050506040513d601f19601f820116820180604052508101906108649190611331565b506002546001600160a01b03166000908152600860205260408120805483929061088f908490611353565b90915550503360009081526006602052604081208181556001810191909155600201805460ff1916905550505b565b6108c6610e7c565b6108bc6000610f47565b6004546002546001600160a01b0316600090815260086020526040812054909182916108fd90606461136a565b6109079190611389565b92915050565b6001600160a01b03811660009081526009602052604081206002015460ff16156109b4576001600160a01b038216600090815260066020526040812060010154603c9061095a9042611353565b6109649190611389565b6001600160a01b038416600090815260096020908152604080832054600690925290912054610993919061136a565b61099d919061136a565b905060006109ac606483611389565b949350505050565b6001600160a01b038216600090815260066020526040812060010154603c906109dd9042611353565b6109e79190611389565b6005546001600160a01b038516600090815260066020526040902054610993919061136a565b919050565b3360009081526006602052604090206002015460ff16610a6b5760405162461bcd60e51b81526020600482015260146024820152734669727374204465706f73697420546f6b656e7360601b604482015260640161041d565b3360009081526009602052604090206002015460ff16610ad75760405162461bcd60e51b815260206004820152602160248201527f506c6561736520556e7374616b6520796f7572206465706f7369746564204e466044820152601560fa1b606482015260840161041d565b60408051606081018252828152602080820185815260018385018181523360008181526009909552938690209451855591518482015590516002909301805460ff19169315159390931790925590549151635c46a7ef60e11b81526001600160a01b039092169163b88d4fde91610b5491309087906004016112d0565b600060405180830381600087803b158015610b6e57600080fd5b505af1158015610b82573d6000803e3d6000fd5b505050505050565b610b92610e7c565b3360009081526008602052604081208054839290610bb1908490611353565b925050819055508060046000828254610bca9190611353565b90915550506003546105a2906001600160a01b03163383610f97565b610bee610e7c565b6002546001600160a01b03163314610c485760405162461bcd60e51b815260206004820152601760248201527f4f6e6c79204f776e65722063616e207472616e73666572000000000000000000604482015260640161041d565b3360009081526008602052604081208054839290610c67908490611319565b925050819055508060046000828254610c809190611319565b90915550506003546105a2906001600160a01b0316333084610ed6565b6001600160a01b03811660009081526009602052604081206002015460ff1615610d76576001600160a01b038216600090815260066020526040812060010154603c90610cea9042611353565b610cf49190611389565b6001600160a01b038416600090815260096020908152604080832054600690925290912054610d23919061136a565b610d2d919061136a565b90506000610d3c606483611389565b6001600160a01b038516600090815260066020526040902054909150610d629082611319565b92506109ac670de0b6b3a764000084611389565b6001600160a01b038216600090815260066020526040812060010154603c90610d9f9042611353565b610da99190611389565b6005546001600160a01b038516600090815260066020526040902054610d23919061136a565b610dd7610e7c565b600180546001600160a01b0319166001600160a01b0392909216919091179055565b610e01610e7c565b6001600160a01b038116610e665760405162461bcd60e51b815260206004820152602660248201527f4f776e61626c653a206e6577206f776e657220697320746865207a65726f206160448201526564647265737360d01b606482015260840161041d565b6105a281610f47565b610e77610e7c565b600555565b6000546001600160a01b031633146108bc5760405162461bcd60e51b815260206004820181905260248201527f4f776e61626c653a2063616c6c6572206973206e6f7420746865206f776e6572604482015260640161041d565b6040516001600160a01b0380851660248301528316604482015260648101829052610f419085906323b872dd60e01b906084015b60408051601f198184030181529190526020810180516001600160e01b03166001600160e01b031990931692909217909152610fcc565b50505050565b600080546001600160a01b038381166001600160a01b0319831681178455604051919092169283917f8be0079c531659141344cd1fd0a4f28419497f9722a3daafe3b4186f6b6457e09190a35050565b6040516001600160a01b038316602482015260448101829052610fc790849063a9059cbb60e01b90606401610f0a565b505050565b6000611021826040518060400160405280602081526020017f5361666545524332303a206c6f772d6c6576656c2063616c6c206661696c6564815250856001600160a01b031661109e9092919063ffffffff16565b805190915015610fc7578080602001905181019061103f9190611331565b610fc75760405162461bcd60e51b815260206004820152602a60248201527f5361666545524332303a204552433230206f7065726174696f6e20646964206e6044820152691bdd081cdd58d8d9595960b21b606482015260840161041d565b60606109ac848460008585600080866001600160a01b031685876040516110c591906113d7565b60006040518083038185875af1925050503d8060008114611102576040519150601f19603f3d011682016040523d82523d6000602084013e611107565b606091505b509150915061111887838387611123565b979650505050505050565b6060831561119257825160000361118b576001600160a01b0385163b61118b5760405162461bcd60e51b815260206004820152601d60248201527f416464726573733a2063616c6c20746f206e6f6e2d636f6e7472616374000000604482015260640161041d565b50816109ac565b6109ac83838151156111a75781518083602001fd5b8060405162461bcd60e51b815260040161041d91906113f3565b6000602082840312156111d357600080fd5b5035919050565b80356001600160a01b0381168114610a0d57600080fd5b60008060008060006080868803121561120957600080fd5b611212866111da565b9450611220602087016111da565b935060408601359250606086013567ffffffffffffffff8082111561124457600080fd5b818801915088601f83011261125857600080fd5b81358181111561126757600080fd5b89602082850101111561127957600080fd5b9699959850939650602001949392505050565b60006020828403121561129e57600080fd5b6112a7826111da565b9392505050565b600080604083850312156112c157600080fd5b50508035926020909101359150565b6001600160a01b039384168152919092166020820152604081019190915260806060820181905260009082015260a00190565b634e487b7160e01b600052601160045260246000fd5b6000821982111561132c5761132c611303565b500190565b60006020828403121561134357600080fd5b815180151581146112a757600080fd5b60008282101561136557611365611303565b500390565b600081600019048311821515161561138457611384611303565b500290565b6000826113a657634e487b7160e01b600052601260045260246000fd5b500490565b60005b838110156113c65781810151838201526020016113ae565b83811115610f415750506000910152565b600082516113e98184602087016113ab565b9190910192915050565b60208152600082518060208401526114128160408501602087016113ab565b601f01601f1916919091016040019291505056fea2646970667358221220d922bfa8be0079fc66cec85ae0658e582aa31e35b5a16532f5666b0f8c60393564736f6c634300080d0033",
			"opcodes": "PUSH1 0x80 PUSH1 0x40 MSTORE CALLVALUE DUP1 ISZERO PUSH3 0x11 JUMPI PUSH1 0x0 DUP1 REVERT JUMPDEST POP PUSH1 0x40 MLOAD PUSH3 0x159E CODESIZE SUB DUP1 PUSH3 0x159E DUP4 CODECOPY DUP2 ADD PUSH1 0x40 DUP2 SWAP1 MSTORE PUSH3 0x34 SWAP2 PUSH3 0xF1 JUMP JUMPDEST PUSH3 0x3F CALLER PUSH3 0x84 JUMP JUMPDEST PUSH1 0x1 DUP1 SLOAD PUSH1 0x1 PUSH1 0x1 PUSH1 0xA0 SHL SUB SWAP5 DUP6 AND PUSH1 0x1 PUSH1 0x1 PUSH1 0xA0 SHL SUB NOT SWAP2 DUP3 AND OR SWAP1 SWAP2 SSTORE PUSH1 0x5 SWAP3 SWAP1 SWAP3 SSTORE PUSH1 0x3 DUP1 SLOAD SWAP2 SWAP1 SWAP4 AND SWAP1 DUP3 AND OR SWAP1 SWAP2 SSTORE PUSH1 0x2 DUP1 SLOAD SWAP1 SWAP2 AND CALLER OR SWAP1 SSTORE PUSH3 0x132 JUMP JUMPDEST PUSH1 0x0 DUP1 SLOAD PUSH1 0x1 PUSH1 0x1 PUSH1 0xA0 SHL SUB DUP4 DUP2 AND PUSH1 0x1 PUSH1 0x1 PUSH1 0xA0 SHL SUB NOT DUP4 AND DUP2 OR DUP5 SSTORE PUSH1 0x40 MLOAD SWAP2 SWAP1 SWAP3 AND SWAP3 DUP4 SWAP2 PUSH32 0x8BE0079C531659141344CD1FD0A4F28419497F9722A3DAAFE3B4186F6B6457E0 SWAP2 SWAP1 LOG3 POP POP JUMP JUMPDEST DUP1 MLOAD PUSH1 0x1 PUSH1 0x1 PUSH1 0xA0 SHL SUB DUP2 AND DUP2 EQ PUSH3 0xEC JUMPI PUSH1 0x0 DUP1 REVERT JUMPDEST SWAP2 SWAP1 POP JUMP JUMPDEST PUSH1 0x0 DUP1 PUSH1 0x0 PUSH1 0x60 DUP5 DUP7 SUB SLT ISZERO PUSH3 0x107 JUMPI PUSH1 0x0 DUP1 REVERT JUMPDEST PUSH3 0x112 DUP5 PUSH3 0xD4 JUMP JUMPDEST SWAP3 POP PUSH1 0x20 DUP5 ADD MLOAD SWAP2 POP PUSH3 0x129 PUSH1 0x40 DUP6 ADD PUSH3 0xD4 JUMP JUMPDEST SWAP1 POP SWAP3 POP SWAP3 POP SWAP3 JUMP JUMPDEST PUSH2 0x145C DUP1 PUSH3 0x142 PUSH1 0x0 CODECOPY PUSH1 0x0 RETURN INVALID PUSH1 0x80 PUSH1 0x40 MSTORE CALLVALUE DUP1 ISZERO PUSH2 0x10 JUMPI PUSH1 0x0 DUP1 REVERT JUMPDEST POP PUSH1 0x4 CALLDATASIZE LT PUSH2 0x158 JUMPI PUSH1 0x0 CALLDATALOAD PUSH1 0xE0 SHR DUP1 PUSH4 0x8DA5CB5B GT PUSH2 0xC3 JUMPI DUP1 PUSH4 0xC45AF5D8 GT PUSH2 0x7C JUMPI DUP1 PUSH4 0xC45AF5D8 EQ PUSH2 0x2F2 JUMPI DUP1 PUSH4 0xE4458B30 EQ PUSH2 0x305 JUMPI DUP1 PUSH4 0xE88CC2BE EQ PUSH2 0x354 JUMPI DUP1 PUSH4 0xEE0106D2 EQ PUSH2 0x386 JUMPI DUP1 PUSH4 0xF2FDE38B EQ PUSH2 0x399 JUMPI DUP1 PUSH4 0xF89D832F EQ PUSH2 0x3AC JUMPI PUSH1 0x0 DUP1 REVERT JUMPDEST DUP1 PUSH4 0x8DA5CB5B EQ PUSH2 0x282 JUMPI DUP1 PUSH4 0x934ED772 EQ PUSH2 0x293 JUMPI DUP1 PUSH4 0xA6021ACE EQ PUSH2 0x2A6 JUMPI DUP1 PUSH4 0xA88E132F EQ PUSH2 0x2B9 JUMPI DUP1 PUSH4 0xB7171A2E EQ PUSH2 0x2CC JUMPI DUP1 PUSH4 0xC0CD40EE EQ PUSH2 0x2DF JUMPI PUSH1 0x0 DUP1 REVERT JUMPDEST DUP1 PUSH4 0x4D6CE1E5 GT PUSH2 0x115 JUMPI DUP1 PUSH4 0x4D6CE1E5 EQ PUSH2 0x224 JUMPI DUP1 PUSH4 0x57488064 EQ PUSH2 0x237 JUMPI DUP1 PUSH4 0x57EA89B6 EQ PUSH2 0x257 JUMPI DUP1 PUSH4 0x715018A6 EQ PUSH2 0x25F JUMPI DUP1 PUSH4 0x7B2F247F EQ PUSH2 0x267 JUMPI DUP1 PUSH4 0x8B73E331 EQ PUSH2 0x26F JUMPI PUSH1 0x0 DUP1 REVERT JUMPDEST DUP1 PUSH4 0x23245D7 EQ PUSH2 0x15D JUMPI DUP1 PUSH4 0xCCFF6E9 EQ PUSH2 0x172 JUMPI DUP1 PUSH4 0x10FD4FBA EQ PUSH2 0x18E JUMPI DUP1 PUSH4 0x150B7A02 EQ PUSH2 0x1B9 JUMPI DUP1 PUSH4 0x275BD33F EQ PUSH2 0x1F1 JUMPI DUP1 PUSH4 0x2FFCE210 EQ PUSH2 0x204 JUMPI JUMPDEST PUSH1 0x0 DUP1 REVERT JUMPDEST PUSH2 0x170 PUSH2 0x16B CALLDATASIZE PUSH1 0x4 PUSH2 0x11C1 JUMP JUMPDEST PUSH2 0x3BF JUMP JUMPDEST STOP JUMPDEST PUSH2 0x17B PUSH1 0x4 SLOAD DUP2 JUMP JUMPDEST PUSH1 0x40 MLOAD SWAP1 DUP2 MSTORE PUSH1 0x20 ADD JUMPDEST PUSH1 0x40 MLOAD DUP1 SWAP2 SUB SWAP1 RETURN JUMPDEST PUSH1 0x2 SLOAD PUSH2 0x1A1 SWAP1 PUSH1 0x1 PUSH1 0x1 PUSH1 0xA0 SHL SUB AND DUP2 JUMP JUMPDEST PUSH1 0x40 MLOAD PUSH1 0x1 PUSH1 0x1 PUSH1 0xA0 SHL SUB SWAP1 SWAP2 AND DUP2 MSTORE PUSH1 0x20 ADD PUSH2 0x185 JUMP JUMPDEST PUSH2 0x1D8 PUSH2 0x1C7 CALLDATASIZE PUSH1 0x4 PUSH2 0x11F1 JUMP JUMPDEST PUSH4 0xA85BD01 PUSH1 0xE1 SHL SWAP6 SWAP5 POP POP POP POP POP JUMP JUMPDEST PUSH1 0x40 MLOAD PUSH1 0x1 PUSH1 0x1 PUSH1 0xE0 SHL SUB NOT SWAP1 SWAP2 AND DUP2 MSTORE PUSH1 0x20 ADD PUSH2 0x185 JUMP JUMPDEST PUSH2 0x170 PUSH2 0x1FF CALLDATASIZE PUSH1 0x4 PUSH2 0x128C JUMP JUMPDEST PUSH2 0x4B4 JUMP JUMPDEST PUSH2 0x17B PUSH2 0x212 CALLDATASIZE PUSH1 0x4 PUSH2 0x128C JUMP JUMPDEST PUSH1 0x8 PUSH1 0x20 MSTORE PUSH1 0x0 SWAP1 DUP2 MSTORE PUSH1 0x40 SWAP1 KECCAK256 SLOAD DUP2 JUMP JUMPDEST PUSH2 0x170 PUSH2 0x232 CALLDATASIZE PUSH1 0x4 PUSH2 0x11C1 JUMP JUMPDEST PUSH2 0x4DE JUMP JUMPDEST PUSH2 0x17B PUSH2 0x245 CALLDATASIZE PUSH1 0x4 PUSH2 0x128C JUMP JUMPDEST PUSH1 0x7 PUSH1 0x20 MSTORE PUSH1 0x0 SWAP1 DUP2 MSTORE PUSH1 0x40 SWAP1 KECCAK256 SLOAD DUP2 JUMP JUMPDEST PUSH2 0x170 PUSH2 0x5A5 JUMP JUMPDEST PUSH2 0x170 PUSH2 0x8BE JUMP JUMPDEST PUSH2 0x17B PUSH2 0x8D0 JUMP JUMPDEST PUSH2 0x17B PUSH2 0x27D CALLDATASIZE PUSH1 0x4 PUSH2 0x128C JUMP JUMPDEST PUSH2 0x90D JUMP JUMPDEST PUSH1 0x0 SLOAD PUSH1 0x1 PUSH1 0x1 PUSH1 0xA0 SHL SUB AND PUSH2 0x1A1 JUMP JUMPDEST PUSH2 0x170 PUSH2 0x2A1 CALLDATASIZE PUSH1 0x4 PUSH2 0x12AE JUMP JUMPDEST PUSH2 0xA12 JUMP JUMPDEST PUSH1 0x3 SLOAD PUSH2 0x1A1 SWAP1 PUSH1 0x1 PUSH1 0x1 PUSH1 0xA0 SHL SUB AND DUP2 JUMP JUMPDEST PUSH2 0x170 PUSH2 0x2C7 CALLDATASIZE PUSH1 0x4 PUSH2 0x11C1 JUMP JUMPDEST PUSH2 0xB8A JUMP JUMPDEST PUSH1 0x1 SLOAD PUSH2 0x1A1 SWAP1 PUSH1 0x1 PUSH1 0x1 PUSH1 0xA0 SHL SUB AND DUP2 JUMP JUMPDEST PUSH2 0x170 PUSH2 0x2ED CALLDATASIZE PUSH1 0x4 PUSH2 0x11C1 JUMP JUMPDEST PUSH2 0xBE6 JUMP JUMPDEST PUSH2 0x17B PUSH2 0x300 CALLDATASIZE PUSH1 0x4 PUSH2 0x128C JUMP JUMPDEST PUSH2 0xC9D JUMP JUMPDEST PUSH2 0x337 PUSH2 0x313 CALLDATASIZE PUSH1 0x4 PUSH2 0x128C JUMP JUMPDEST PUSH1 0x9 PUSH1 0x20 MSTORE PUSH1 0x0 SWAP1 DUP2 MSTORE PUSH1 0x40 SWAP1 KECCAK256 DUP1 SLOAD PUSH1 0x1 DUP3 ADD SLOAD PUSH1 0x2 SWAP1 SWAP3 ADD SLOAD SWAP1 SWAP2 SWAP1 PUSH1 0xFF AND DUP4 JUMP JUMPDEST PUSH1 0x40 DUP1 MLOAD SWAP4 DUP5 MSTORE PUSH1 0x20 DUP5 ADD SWAP3 SWAP1 SWAP3 MSTORE ISZERO ISZERO SWAP1 DUP3 ADD MSTORE PUSH1 0x60 ADD PUSH2 0x185 JUMP JUMPDEST PUSH2 0x337 PUSH2 0x362 CALLDATASIZE PUSH1 0x4 PUSH2 0x128C JUMP JUMPDEST PUSH1 0x6 PUSH1 0x20 MSTORE PUSH1 0x0 SWAP1 DUP2 MSTORE PUSH1 0x40 SWAP1 KECCAK256 DUP1 SLOAD PUSH1 0x1 DUP3 ADD SLOAD PUSH1 0x2 SWAP1 SWAP3 ADD SLOAD SWAP1 SWAP2 SWAP1 PUSH1 0xFF AND DUP4 JUMP JUMPDEST PUSH2 0x170 PUSH2 0x394 CALLDATASIZE PUSH1 0x4 PUSH2 0x128C JUMP JUMPDEST PUSH2 0xDCF JUMP JUMPDEST PUSH2 0x170 PUSH2 0x3A7 CALLDATASIZE PUSH1 0x4 PUSH2 0x128C JUMP JUMPDEST PUSH2 0xDF9 JUMP JUMPDEST PUSH2 0x170 PUSH2 0x3BA CALLDATASIZE PUSH1 0x4 PUSH2 0x11C1 JUMP JUMPDEST PUSH2 0xE6F JUMP JUMPDEST CALLER PUSH1 0x0 SWAP1 DUP2 MSTORE PUSH1 0x9 PUSH1 0x20 MSTORE PUSH1 0x40 SWAP1 KECCAK256 PUSH1 0x2 ADD SLOAD PUSH1 0xFF AND PUSH2 0x426 JUMPI PUSH1 0x40 MLOAD PUSH3 0x461BCD PUSH1 0xE5 SHL DUP2 MSTORE PUSH1 0x20 PUSH1 0x4 DUP3 ADD MSTORE PUSH1 0x17 PUSH1 0x24 DUP3 ADD MSTORE PUSH32 0x506C65617365204669727374205374616B65204E465473000000000000000000 PUSH1 0x44 DUP3 ADD MSTORE PUSH1 0x64 ADD JUMPDEST PUSH1 0x40 MLOAD DUP1 SWAP2 SUB SWAP1 REVERT JUMPDEST PUSH1 0x1 SLOAD PUSH1 0x40 MLOAD PUSH4 0x5C46A7EF PUSH1 0xE1 SHL DUP2 MSTORE PUSH1 0x1 PUSH1 0x1 PUSH1 0xA0 SHL SUB SWAP1 SWAP2 AND SWAP1 PUSH4 0xB88D4FDE SWAP1 PUSH2 0x45A SWAP1 ADDRESS SWAP1 CALLER SWAP1 DUP7 SWAP1 PUSH1 0x4 ADD PUSH2 0x12D0 JUMP JUMPDEST PUSH1 0x0 PUSH1 0x40 MLOAD DUP1 DUP4 SUB DUP2 PUSH1 0x0 DUP8 DUP1 EXTCODESIZE ISZERO DUP1 ISZERO PUSH2 0x474 JUMPI PUSH1 0x0 DUP1 REVERT JUMPDEST POP GAS CALL ISZERO DUP1 ISZERO PUSH2 0x488 JUMPI RETURNDATASIZE PUSH1 0x0 DUP1 RETURNDATACOPY RETURNDATASIZE PUSH1 0x0 REVERT JUMPDEST POP POP CALLER PUSH1 0x0 SWAP1 DUP2 MSTORE PUSH1 0x9 PUSH1 0x20 MSTORE PUSH1 0x40 DUP2 KECCAK256 DUP2 DUP2 SSTORE PUSH1 0x1 DUP2 ADD SWAP2 SWAP1 SWAP2 SSTORE PUSH1 0x2 ADD DUP1 SLOAD PUSH1 0xFF NOT AND SWAP1 SSTORE POP POP POP JUMP JUMPDEST PUSH2 0x4BC PUSH2 0xE7C JUMP JUMPDEST PUSH1 0x3 DUP1 SLOAD PUSH1 0x1 PUSH1 0x1 PUSH1 0xA0 SHL SUB NOT AND PUSH1 0x1 PUSH1 0x1 PUSH1 0xA0 SHL SUB SWAP3 SWAP1 SWAP3 AND SWAP2 SWAP1 SWAP2 OR SWAP1 SSTORE JUMP JUMPDEST CALLER PUSH1 0x0 SWAP1 DUP2 MSTORE PUSH1 0x6 PUSH1 0x20 MSTORE PUSH1 0x40 SWAP1 KECCAK256 PUSH1 0x2 ADD SLOAD PUSH1 0xFF AND ISZERO PUSH2 0x539 JUMPI PUSH1 0x40 MLOAD PUSH3 0x461BCD PUSH1 0xE5 SHL DUP2 MSTORE PUSH1 0x20 PUSH1 0x4 DUP3 ADD MSTORE PUSH1 0x15 PUSH1 0x24 DUP3 ADD MSTORE PUSH21 0x506C65617365204669727374205769746844726177 PUSH1 0x58 SHL PUSH1 0x44 DUP3 ADD MSTORE PUSH1 0x64 ADD PUSH2 0x41D JUMP JUMPDEST PUSH1 0x40 DUP1 MLOAD PUSH1 0x60 DUP2 ADD DUP3 MSTORE DUP3 DUP2 MSTORE TIMESTAMP PUSH1 0x20 DUP1 DUP4 ADD SWAP2 DUP3 MSTORE PUSH1 0x1 DUP4 DUP6 ADD DUP2 DUP2 MSTORE CALLER PUSH1 0x0 DUP2 DUP2 MSTORE PUSH1 0x6 SWAP1 SWAP5 MSTORE SWAP6 SWAP1 SWAP3 KECCAK256 SWAP4 MLOAD DUP5 SSTORE SWAP2 MLOAD SWAP2 DUP4 ADD SWAP2 SWAP1 SWAP2 SSTORE MLOAD PUSH1 0x2 SWAP1 SWAP2 ADD DUP1 SLOAD PUSH1 0xFF NOT AND SWAP2 ISZERO ISZERO SWAP2 SWAP1 SWAP2 OR SWAP1 SSTORE PUSH1 0x3 SLOAD PUSH2 0x5A2 SWAP2 PUSH1 0x1 PUSH1 0x1 PUSH1 0xA0 SHL SUB SWAP1 SWAP2 AND SWAP1 ADDRESS DUP5 PUSH2 0xED6 JUMP JUMPDEST POP JUMP JUMPDEST CALLER PUSH1 0x0 SWAP1 DUP2 MSTORE PUSH1 0x6 PUSH1 0x20 MSTORE PUSH1 0x40 SWAP1 KECCAK256 PUSH1 0x2 ADD SLOAD PUSH1 0xFF AND PUSH2 0x5FC JUMPI PUSH1 0x40 MLOAD PUSH3 0x461BCD PUSH1 0xE5 SHL DUP2 MSTORE PUSH1 0x20 PUSH1 0x4 DUP3 ADD MSTORE PUSH1 0x12 PUSH1 0x24 DUP3 ADD MSTORE PUSH18 0x506C65617365204669727374205374616B65 PUSH1 0x70 SHL PUSH1 0x44 DUP3 ADD MSTORE PUSH1 0x64 ADD PUSH2 0x41D JUMP JUMPDEST CALLER PUSH1 0x0 SWAP1 DUP2 MSTORE PUSH1 0x9 PUSH1 0x20 MSTORE PUSH1 0x40 SWAP1 KECCAK256 PUSH1 0x2 ADD SLOAD PUSH1 0xFF AND ISZERO PUSH2 0x7BC JUMPI CALLER PUSH1 0x0 DUP2 DUP2 MSTORE PUSH1 0x6 PUSH1 0x20 MSTORE PUSH1 0x40 DUP2 KECCAK256 SLOAD SWAP2 PUSH2 0x631 SWAP1 PUSH2 0x90D JUMP JUMPDEST PUSH1 0x1 DUP1 SLOAD CALLER PUSH1 0x0 DUP2 DUP2 MSTORE PUSH1 0x9 PUSH1 0x20 MSTORE PUSH1 0x40 SWAP1 DUP2 SWAP1 KECCAK256 SWAP1 SWAP4 ADD SLOAD SWAP3 MLOAD PUSH4 0x5C46A7EF PUSH1 0xE1 SHL DUP2 MSTORE SWAP4 SWAP5 POP PUSH1 0x1 PUSH1 0x1 PUSH1 0xA0 SHL SUB SWAP1 SWAP2 AND SWAP3 PUSH4 0xB88D4FDE SWAP3 PUSH2 0x67C SWAP3 ADDRESS SWAP3 SWAP1 SWAP2 SWAP1 PUSH1 0x4 ADD PUSH2 0x12D0 JUMP JUMPDEST PUSH1 0x0 PUSH1 0x40 MLOAD DUP1 DUP4 SUB DUP2 PUSH1 0x0 DUP8 DUP1 EXTCODESIZE ISZERO DUP1 ISZERO PUSH2 0x696 JUMPI PUSH1 0x0 DUP1 REVERT JUMPDEST POP GAS CALL ISZERO DUP1 ISZERO PUSH2 0x6AA JUMPI RETURNDATASIZE PUSH1 0x0 DUP1 RETURNDATACOPY RETURNDATASIZE PUSH1 0x0 REVERT JUMPDEST POP POP PUSH1 0x3 SLOAD PUSH1 0x1 PUSH1 0x1 PUSH1 0xA0 SHL SUB AND SWAP2 POP PUSH4 0xA9059CBB SWAP1 POP CALLER PUSH2 0x6CC DUP5 DUP7 PUSH2 0x1319 JUMP JUMPDEST PUSH1 0x40 MLOAD PUSH1 0x1 PUSH1 0x1 PUSH1 0xE0 SHL SUB NOT PUSH1 0xE0 DUP6 SWAP1 SHL AND DUP2 MSTORE PUSH1 0x1 PUSH1 0x1 PUSH1 0xA0 SHL SUB SWAP1 SWAP3 AND PUSH1 0x4 DUP4 ADD MSTORE PUSH1 0x24 DUP3 ADD MSTORE PUSH1 0x44 ADD PUSH1 0x20 PUSH1 0x40 MLOAD DUP1 DUP4 SUB DUP2 PUSH1 0x0 DUP8 GAS CALL ISZERO DUP1 ISZERO PUSH2 0x717 JUMPI RETURNDATASIZE PUSH1 0x0 DUP1 RETURNDATACOPY RETURNDATASIZE PUSH1 0x0 REVERT JUMPDEST POP POP POP POP PUSH1 0x40 MLOAD RETURNDATASIZE PUSH1 0x1F NOT PUSH1 0x1F DUP3 ADD AND DUP3 ADD DUP1 PUSH1 0x40 MSTORE POP DUP2 ADD SWAP1 PUSH2 0x73B SWAP2 SWAP1 PUSH2 0x1331 JUMP JUMPDEST POP PUSH1 0x2 SLOAD PUSH1 0x1 PUSH1 0x1 PUSH1 0xA0 SHL SUB AND PUSH1 0x0 SWAP1 DUP2 MSTORE PUSH1 0x8 PUSH1 0x20 MSTORE PUSH1 0x40 DUP2 KECCAK256 DUP1 SLOAD DUP4 SWAP3 SWAP1 PUSH2 0x766 SWAP1 DUP5 SWAP1 PUSH2 0x1353 JUMP JUMPDEST SWAP1 SWAP2 SSTORE POP POP CALLER PUSH1 0x0 SWAP1 DUP2 MSTORE PUSH1 0x9 PUSH1 0x20 SWAP1 DUP2 MSTORE PUSH1 0x40 DUP1 DUP4 KECCAK256 DUP4 DUP2 SSTORE PUSH1 0x1 DUP1 DUP3 ADD DUP6 SWAP1 SSTORE PUSH1 0x2 SWAP2 DUP3 ADD DUP1 SLOAD PUSH1 0xFF NOT SWAP1 DUP2 AND SWAP1 SWAP2 SSTORE PUSH1 0x6 SWAP1 SWAP5 MSTORE SWAP2 DUP5 KECCAK256 DUP5 DUP2 SSTORE SWAP2 DUP3 ADD SWAP4 SWAP1 SWAP4 SSTORE SWAP1 SWAP2 ADD DUP1 SLOAD SWAP1 SWAP2 AND SWAP1 SSTORE POP PUSH2 0x8BC SWAP1 POP JUMP JUMPDEST CALLER PUSH1 0x0 DUP2 DUP2 MSTORE PUSH1 0x6 PUSH1 0x20 MSTORE PUSH1 0x40 DUP2 KECCAK256 SLOAD SWAP2 PUSH2 0x7D6 SWAP1 PUSH2 0x90D JUMP JUMPDEST PUSH1 0x3 SLOAD SWAP1 SWAP2 POP PUSH1 0x1 PUSH1 0x1 PUSH1 0xA0 SHL SUB AND PUSH4 0xA9059CBB CALLER PUSH2 0x7F5 DUP5 DUP7 PUSH2 0x1319 JUMP JUMPDEST PUSH1 0x40 MLOAD PUSH1 0x1 PUSH1 0x1 PUSH1 0xE0 SHL SUB NOT PUSH1 0xE0 DUP6 SWAP1 SHL AND DUP2 MSTORE PUSH1 0x1 PUSH1 0x1 PUSH1 0xA0 SHL SUB SWAP1 SWAP3 AND PUSH1 0x4 DUP4 ADD MSTORE PUSH1 0x24 DUP3 ADD MSTORE PUSH1 0x44 ADD PUSH1 0x20 PUSH1 0x40 MLOAD DUP1 DUP4 SUB DUP2 PUSH1 0x0 DUP8 GAS CALL ISZERO DUP1 ISZERO PUSH2 0x840 JUMPI RETURNDATASIZE PUSH1 0x0 DUP1 RETURNDATACOPY RETURNDATASIZE PUSH1 0x0 REVERT JUMPDEST POP POP POP POP PUSH1 0x40 MLOAD RETURNDATASIZE PUSH1 0x1F NOT PUSH1 0x1F DUP3 ADD AND DUP3 ADD DUP1 PUSH1 0x40 MSTORE POP DUP2 ADD SWAP1 PUSH2 0x864 SWAP2 SWAP1 PUSH2 0x1331 JUMP JUMPDEST POP PUSH1 0x2 SLOAD PUSH1 0x1 PUSH1 0x1 PUSH1 0xA0 SHL SUB AND PUSH1 0x0 SWAP1 DUP2 MSTORE PUSH1 0x8 PUSH1 0x20 MSTORE PUSH1 0x40 DUP2 KECCAK256 DUP1 SLOAD DUP4 SWAP3 SWAP1 PUSH2 0x88F SWAP1 DUP5 SWAP1 PUSH2 0x1353 JUMP JUMPDEST SWAP1 SWAP2 SSTORE POP POP CALLER PUSH1 0x0 SWAP1 DUP2 MSTORE PUSH1 0x6 PUSH1 0x20 MSTORE PUSH1 0x40 DUP2 KECCAK256 DUP2 DUP2 SSTORE PUSH1 0x1 DUP2 ADD SWAP2 SWAP1 SWAP2 SSTORE PUSH1 0x2 ADD DUP1 SLOAD PUSH1 0xFF NOT AND SWAP1 SSTORE POP POP JUMPDEST JUMP JUMPDEST PUSH2 0x8C6 PUSH2 0xE7C JUMP JUMPDEST PUSH2 0x8BC PUSH1 0x0 PUSH2 0xF47 JUMP JUMPDEST PUSH1 0x4 SLOAD PUSH1 0x2 SLOAD PUSH1 0x1 PUSH1 0x1 PUSH1 0xA0 SHL SUB AND PUSH1 0x0 SWAP1 DUP2 MSTORE PUSH1 0x8 PUSH1 0x20 MSTORE PUSH1 0x40 DUP2 KECCAK256 SLOAD SWAP1 SWAP2 DUP3 SWAP2 PUSH2 0x8FD SWAP1 PUSH1 0x64 PUSH2 0x136A JUMP JUMPDEST PUSH2 0x907 SWAP2 SWAP1 PUSH2 0x1389 JUMP JUMPDEST SWAP3 SWAP2 POP POP JUMP JUMPDEST PUSH1 0x1 PUSH1 0x1 PUSH1 0xA0 SHL SUB DUP2 AND PUSH1 0x0 SWAP1 DUP2 MSTORE PUSH1 0x9 PUSH1 0x20 MSTORE PUSH1 0x40 DUP2 KECCAK256 PUSH1 0x2 ADD SLOAD PUSH1 0xFF AND ISZERO PUSH2 0x9B4 JUMPI PUSH1 0x1 PUSH1 0x1 PUSH1 0xA0 SHL SUB DUP3 AND PUSH1 0x0 SWAP1 DUP2 MSTORE PUSH1 0x6 PUSH1 0x20 MSTORE PUSH1 0x40 DUP2 KECCAK256 PUSH1 0x1 ADD SLOAD PUSH1 0x3C SWAP1 PUSH2 0x95A SWAP1 TIMESTAMP PUSH2 0x1353 JUMP JUMPDEST PUSH2 0x964 SWAP2 SWAP1 PUSH2 0x1389 JUMP JUMPDEST PUSH1 0x1 PUSH1 0x1 PUSH1 0xA0 SHL SUB DUP5 AND PUSH1 0x0 SWAP1 DUP2 MSTORE PUSH1 0x9 PUSH1 0x20 SWAP1 DUP2 MSTORE PUSH1 0x40 DUP1 DUP4 KECCAK256 SLOAD PUSH1 0x6 SWAP1 SWAP3 MSTORE SWAP1 SWAP2 KECCAK256 SLOAD PUSH2 0x993 SWAP2 SWAP1 PUSH2 0x136A JUMP JUMPDEST PUSH2 0x99D SWAP2 SWAP1 PUSH2 0x136A JUMP JUMPDEST SWAP1 POP PUSH1 0x0 PUSH2 0x9AC PUSH1 0x64 DUP4 PUSH2 0x1389 JUMP JUMPDEST SWAP5 SWAP4 POP POP POP POP JUMP JUMPDEST PUSH1 0x1 PUSH1 0x1 PUSH1 0xA0 SHL SUB DUP3 AND PUSH1 0x0 SWAP1 DUP2 MSTORE PUSH1 0x6 PUSH1 0x20 MSTORE PUSH1 0x40 DUP2 KECCAK256 PUSH1 0x1 ADD SLOAD PUSH1 0x3C SWAP1 PUSH2 0x9DD SWAP1 TIMESTAMP PUSH2 0x1353 JUMP JUMPDEST PUSH2 0x9E7 SWAP2 SWAP1 PUSH2 0x1389 JUMP JUMPDEST PUSH1 0x5 SLOAD PUSH1 0x1 PUSH1 0x1 PUSH1 0xA0 SHL SUB DUP6 AND PUSH1 0x0 SWAP1 DUP2 MSTORE PUSH1 0x6 PUSH1 0x20 MSTORE PUSH1 0x40 SWAP1 KECCAK256 SLOAD PUSH2 0x993 SWAP2 SWAP1 PUSH2 0x136A JUMP JUMPDEST SWAP2 SWAP1 POP JUMP JUMPDEST CALLER PUSH1 0x0 SWAP1 DUP2 MSTORE PUSH1 0x6 PUSH1 0x20 MSTORE PUSH1 0x40 SWAP1 KECCAK256 PUSH1 0x2 ADD SLOAD PUSH1 0xFF AND PUSH2 0xA6B JUMPI PUSH1 0x40 MLOAD PUSH3 0x461BCD PUSH1 0xE5 SHL DUP2 MSTORE PUSH1 0x20 PUSH1 0x4 DUP3 ADD MSTORE PUSH1 0x14 PUSH1 0x24 DUP3 ADD MSTORE PUSH20 0x4669727374204465706F73697420546F6B656E73 PUSH1 0x60 SHL PUSH1 0x44 DUP3 ADD MSTORE PUSH1 0x64 ADD PUSH2 0x41D JUMP JUMPDEST CALLER PUSH1 0x0 SWAP1 DUP2 MSTORE PUSH1 0x9 PUSH1 0x20 MSTORE PUSH1 0x40 SWAP1 KECCAK256 PUSH1 0x2 ADD SLOAD PUSH1 0xFF AND PUSH2 0xAD7 JUMPI PUSH1 0x40 MLOAD PUSH3 0x461BCD PUSH1 0xE5 SHL DUP2 MSTORE PUSH1 0x20 PUSH1 0x4 DUP3 ADD MSTORE PUSH1 0x21 PUSH1 0x24 DUP3 ADD MSTORE PUSH32 0x506C6561736520556E7374616B6520796F7572206465706F7369746564204E46 PUSH1 0x44 DUP3 ADD MSTORE PUSH1 0x15 PUSH1 0xFA SHL PUSH1 0x64 DUP3 ADD MSTORE PUSH1 0x84 ADD PUSH2 0x41D JUMP JUMPDEST PUSH1 0x40 DUP1 MLOAD PUSH1 0x60 DUP2 ADD DUP3 MSTORE DUP3 DUP2 MSTORE PUSH1 0x20 DUP1 DUP3 ADD DUP6 DUP2 MSTORE PUSH1 0x1 DUP4 DUP6 ADD DUP2 DUP2 MSTORE CALLER PUSH1 0x0 DUP2 DUP2 MSTORE PUSH1 0x9 SWAP1 SWAP6 MSTORE SWAP4 DUP7 SWAP1 KECCAK256 SWAP5 MLOAD DUP6 SSTORE SWAP2 MLOAD DUP5 DUP3 ADD SSTORE SWAP1 MLOAD PUSH1 0x2 SWAP1 SWAP4 ADD DUP1 SLOAD PUSH1 0xFF NOT AND SWAP4 ISZERO ISZERO SWAP4 SWAP1 SWAP4 OR SWAP1 SWAP3 SSTORE SWAP1 SLOAD SWAP2 MLOAD PUSH4 0x5C46A7EF PUSH1 0xE1 SHL DUP2 MSTORE PUSH1 0x1 PUSH1 0x1 PUSH1 0xA0 SHL SUB SWAP1 SWAP3 AND SWAP2 PUSH4 0xB88D4FDE SWAP2 PUSH2 0xB54 SWAP2 ADDRESS SWAP1 DUP8 SWAP1 PUSH1 0x4 ADD PUSH2 0x12D0 JUMP JUMPDEST PUSH1 0x0 PUSH1 0x40 MLOAD DUP1 DUP4 SUB DUP2 PUSH1 0x0 DUP8 DUP1 EXTCODESIZE ISZERO DUP1 ISZERO PUSH2 0xB6E JUMPI PUSH1 0x0 DUP1 REVERT JUMPDEST POP GAS CALL ISZERO DUP1 ISZERO PUSH2 0xB82 JUMPI RETURNDATASIZE PUSH1 0x0 DUP1 RETURNDATACOPY RETURNDATASIZE PUSH1 0x0 REVERT JUMPDEST POP POP POP POP POP POP JUMP JUMPDEST PUSH2 0xB92 PUSH2 0xE7C JUMP JUMPDEST CALLER PUSH1 0x0 SWAP1 DUP2 MSTORE PUSH1 0x8 PUSH1 0x20 MSTORE PUSH1 0x40 DUP2 KECCAK256 DUP1 SLOAD DUP4 SWAP3 SWAP1 PUSH2 0xBB1 SWAP1 DUP5 SWAP1 PUSH2 0x1353 JUMP JUMPDEST SWAP3 POP POP DUP2 SWAP1 SSTORE POP DUP1 PUSH1 0x4 PUSH1 0x0 DUP3 DUP3 SLOAD PUSH2 0xBCA SWAP2 SWAP1 PUSH2 0x1353 JUMP JUMPDEST SWAP1 SWAP2 SSTORE POP POP PUSH1 0x3 SLOAD PUSH2 0x5A2 SWAP1 PUSH1 0x1 PUSH1 0x1 PUSH1 0xA0 SHL SUB AND CALLER DUP4 PUSH2 0xF97 JUMP JUMPDEST PUSH2 0xBEE PUSH2 0xE7C JUMP JUMPDEST PUSH1 0x2 SLOAD PUSH1 0x1 PUSH1 0x1 PUSH1 0xA0 SHL SUB AND CALLER EQ PUSH2 0xC48 JUMPI PUSH1 0x40 MLOAD PUSH3 0x461BCD PUSH1 0xE5 SHL DUP2 MSTORE PUSH1 0x20 PUSH1 0x4 DUP3 ADD MSTORE PUSH1 0x17 PUSH1 0x24 DUP3 ADD MSTORE PUSH32 0x4F6E6C79204F776E65722063616E207472616E73666572000000000000000000 PUSH1 0x44 DUP3 ADD MSTORE PUSH1 0x64 ADD PUSH2 0x41D JUMP JUMPDEST CALLER PUSH1 0x0 SWAP1 DUP2 MSTORE PUSH1 0x8 PUSH1 0x20 MSTORE PUSH1 0x40 DUP2 KECCAK256 DUP1 SLOAD DUP4 SWAP3 SWAP1 PUSH2 0xC67 SWAP1 DUP5 SWAP1 PUSH2 0x1319 JUMP JUMPDEST SWAP3 POP POP DUP2 SWAP1 SSTORE POP DUP1 PUSH1 0x4 PUSH1 0x0 DUP3 DUP3 SLOAD PUSH2 0xC80 SWAP2 SWAP1 PUSH2 0x1319 JUMP JUMPDEST SWAP1 SWAP2 SSTORE POP POP PUSH1 0x3 SLOAD PUSH2 0x5A2 SWAP1 PUSH1 0x1 PUSH1 0x1 PUSH1 0xA0 SHL SUB AND CALLER ADDRESS DUP5 PUSH2 0xED6 JUMP JUMPDEST PUSH1 0x1 PUSH1 0x1 PUSH1 0xA0 SHL SUB DUP2 AND PUSH1 0x0 SWAP1 DUP2 MSTORE PUSH1 0x9 PUSH1 0x20 MSTORE PUSH1 0x40 DUP2 KECCAK256 PUSH1 0x2 ADD SLOAD PUSH1 0xFF AND ISZERO PUSH2 0xD76 JUMPI PUSH1 0x1 PUSH1 0x1 PUSH1 0xA0 SHL SUB DUP3 AND PUSH1 0x0 SWAP1 DUP2 MSTORE PUSH1 0x6 PUSH1 0x20 MSTORE PUSH1 0x40 DUP2 KECCAK256 PUSH1 0x1 ADD SLOAD PUSH1 0x3C SWAP1 PUSH2 0xCEA SWAP1 TIMESTAMP PUSH2 0x1353 JUMP JUMPDEST PUSH2 0xCF4 SWAP2 SWAP1 PUSH2 0x1389 JUMP JUMPDEST PUSH1 0x1 PUSH1 0x1 PUSH1 0xA0 SHL SUB DUP5 AND PUSH1 0x0 SWAP1 DUP2 MSTORE PUSH1 0x9 PUSH1 0x20 SWAP1 DUP2 MSTORE PUSH1 0x40 DUP1 DUP4 KECCAK256 SLOAD PUSH1 0x6 SWAP1 SWAP3 MSTORE SWAP1 SWAP2 KECCAK256 SLOAD PUSH2 0xD23 SWAP2 SWAP1 PUSH2 0x136A JUMP JUMPDEST PUSH2 0xD2D SWAP2 SWAP1 PUSH2 0x136A JUMP JUMPDEST SWAP1 POP PUSH1 0x0 PUSH2 0xD3C PUSH1 0x64 DUP4 PUSH2 0x1389 JUMP JUMPDEST PUSH1 0x1 PUSH1 0x1 PUSH1 0xA0 SHL SUB DUP6 AND PUSH1 0x0 SWAP1 DUP2 MSTORE PUSH1 0x6 PUSH1 0x20 MSTORE PUSH1 0x40 SWAP1 KECCAK256 SLOAD SWAP1 SWAP2 POP PUSH2 0xD62 SWAP1 DUP3 PUSH2 0x1319 JUMP JUMPDEST SWAP3 POP PUSH2 0x9AC PUSH8 0xDE0B6B3A7640000 DUP5 PUSH2 0x1389 JUMP JUMPDEST PUSH1 0x1 PUSH1 0x1 PUSH1 0xA0 SHL SUB DUP3 AND PUSH1 0x0 SWAP1 DUP2 MSTORE PUSH1 0x6 PUSH1 0x20 MSTORE PUSH1 0x40 DUP2 KECCAK256 PUSH1 0x1 ADD SLOAD PUSH1 0x3C SWAP1 PUSH2 0xD9F SWAP1 TIMESTAMP PUSH2 0x1353 JUMP JUMPDEST PUSH2 0xDA9 SWAP2 SWAP1 PUSH2 0x1389 JUMP JUMPDEST PUSH1 0x5 SLOAD PUSH1 0x1 PUSH1 0x1 PUSH1 0xA0 SHL SUB DUP6 AND PUSH1 0x0 SWAP1 DUP2 MSTORE PUSH1 0x6 PUSH1 0x20 MSTORE PUSH1 0x40 SWAP1 KECCAK256 SLOAD PUSH2 0xD23 SWAP2 SWAP1 PUSH2 0x136A JUMP JUMPDEST PUSH2 0xDD7 PUSH2 0xE7C JUMP JUMPDEST PUSH1 0x1 DUP1 SLOAD PUSH1 0x1 PUSH1 0x1 PUSH1 0xA0 SHL SUB NOT AND PUSH1 0x1 PUSH1 0x1 PUSH1 0xA0 SHL SUB SWAP3 SWAP1 SWAP3 AND SWAP2 SWAP1 SWAP2 OR SWAP1 SSTORE JUMP JUMPDEST PUSH2 0xE01 PUSH2 0xE7C JUMP JUMPDEST PUSH1 0x1 PUSH1 0x1 PUSH1 0xA0 SHL SUB DUP2 AND PUSH2 0xE66 JUMPI PUSH1 0x40 MLOAD PUSH3 0x461BCD PUSH1 0xE5 SHL DUP2 MSTORE PUSH1 0x20 PUSH1 0x4 DUP3 ADD MSTORE PUSH1 0x26 PUSH1 0x24 DUP3 ADD MSTORE PUSH32 0x4F776E61626C653A206E6577206F776E657220697320746865207A65726F2061 PUSH1 0x44 DUP3 ADD MSTORE PUSH6 0x646472657373 PUSH1 0xD0 SHL PUSH1 0x64 DUP3 ADD MSTORE PUSH1 0x84 ADD PUSH2 0x41D JUMP JUMPDEST PUSH2 0x5A2 DUP2 PUSH2 0xF47 JUMP JUMPDEST PUSH2 0xE77 PUSH2 0xE7C JUMP JUMPDEST PUSH1 0x5 SSTORE JUMP JUMPDEST PUSH1 0x0 SLOAD PUSH1 0x1 PUSH1 0x1 PUSH1 0xA0 SHL SUB AND CALLER EQ PUSH2 0x8BC JUMPI PUSH1 0x40 MLOAD PUSH3 0x461BCD PUSH1 0xE5 SHL DUP2 MSTORE PUSH1 0x20 PUSH1 0x4 DUP3 ADD DUP2 SWAP1 MSTORE PUSH1 0x24 DUP3 ADD MSTORE PUSH32 0x4F776E61626C653A2063616C6C6572206973206E6F7420746865206F776E6572 PUSH1 0x44 DUP3 ADD MSTORE PUSH1 0x64 ADD PUSH2 0x41D JUMP JUMPDEST PUSH1 0x40 MLOAD PUSH1 0x1 PUSH1 0x1 PUSH1 0xA0 SHL SUB DUP1 DUP6 AND PUSH1 0x24 DUP4 ADD MSTORE DUP4 AND PUSH1 0x44 DUP3 ADD MSTORE PUSH1 0x64 DUP2 ADD DUP3 SWAP1 MSTORE PUSH2 0xF41 SWAP1 DUP6 SWAP1 PUSH4 0x23B872DD PUSH1 0xE0 SHL SWAP1 PUSH1 0x84 ADD JUMPDEST PUSH1 0x40 DUP1 MLOAD PUSH1 0x1F NOT DUP2 DUP5 SUB ADD DUP2 MSTORE SWAP2 SWAP1 MSTORE PUSH1 0x20 DUP2 ADD DUP1 MLOAD PUSH1 0x1 PUSH1 0x1 PUSH1 0xE0 SHL SUB AND PUSH1 0x1 PUSH1 0x1 PUSH1 0xE0 SHL SUB NOT SWAP1 SWAP4 AND SWAP3 SWAP1 SWAP3 OR SWAP1 SWAP2 MSTORE PUSH2 0xFCC JUMP JUMPDEST POP POP POP POP JUMP JUMPDEST PUSH1 0x0 DUP1 SLOAD PUSH1 0x1 PUSH1 0x1 PUSH1 0xA0 SHL SUB DUP4 DUP2 AND PUSH1 0x1 PUSH1 0x1 PUSH1 0xA0 SHL SUB NOT DUP4 AND DUP2 OR DUP5 SSTORE PUSH1 0x40 MLOAD SWAP2 SWAP1 SWAP3 AND SWAP3 DUP4 SWAP2 PUSH32 0x8BE0079C531659141344CD1FD0A4F28419497F9722A3DAAFE3B4186F6B6457E0 SWAP2 SWAP1 LOG3 POP POP JUMP JUMPDEST PUSH1 0x40 MLOAD PUSH1 0x1 PUSH1 0x1 PUSH1 0xA0 SHL SUB DUP4 AND PUSH1 0x24 DUP3 ADD MSTORE PUSH1 0x44 DUP2 ADD DUP3 SWAP1 MSTORE PUSH2 0xFC7 SWAP1 DUP5 SWAP1 PUSH4 0xA9059CBB PUSH1 0xE0 SHL SWAP1 PUSH1 0x64 ADD PUSH2 0xF0A JUMP JUMPDEST POP POP POP JUMP JUMPDEST PUSH1 0x0 PUSH2 0x1021 DUP3 PUSH1 0x40 MLOAD DUP1 PUSH1 0x40 ADD PUSH1 0x40 MSTORE DUP1 PUSH1 0x20 DUP2 MSTORE PUSH1 0x20 ADD PUSH32 0x5361666545524332303A206C6F772D6C6576656C2063616C6C206661696C6564 DUP2 MSTORE POP DUP6 PUSH1 0x1 PUSH1 0x1 PUSH1 0xA0 SHL SUB AND PUSH2 0x109E SWAP1 SWAP3 SWAP2 SWAP1 PUSH4 0xFFFFFFFF AND JUMP JUMPDEST DUP1 MLOAD SWAP1 SWAP2 POP ISZERO PUSH2 0xFC7 JUMPI DUP1 DUP1 PUSH1 0x20 ADD SWAP1 MLOAD DUP2 ADD SWAP1 PUSH2 0x103F SWAP2 SWAP1 PUSH2 0x1331 JUMP JUMPDEST PUSH2 0xFC7 JUMPI PUSH1 0x40 MLOAD PUSH3 0x461BCD PUSH1 0xE5 SHL DUP2 MSTORE PUSH1 0x20 PUSH1 0x4 DUP3 ADD MSTORE PUSH1 0x2A PUSH1 0x24 DUP3 ADD MSTORE PUSH32 0x5361666545524332303A204552433230206F7065726174696F6E20646964206E PUSH1 0x44 DUP3 ADD MSTORE PUSH10 0x1BDD081CDD58D8D95959 PUSH1 0xB2 SHL PUSH1 0x64 DUP3 ADD MSTORE PUSH1 0x84 ADD PUSH2 0x41D JUMP JUMPDEST PUSH1 0x60 PUSH2 0x9AC DUP5 DUP5 PUSH1 0x0 DUP6 DUP6 PUSH1 0x0 DUP1 DUP7 PUSH1 0x1 PUSH1 0x1 PUSH1 0xA0 SHL SUB AND DUP6 DUP8 PUSH1 0x40 MLOAD PUSH2 0x10C5 SWAP2 SWAP1 PUSH2 0x13D7 JUMP JUMPDEST PUSH1 0x0 PUSH1 0x40 MLOAD DUP1 DUP4 SUB DUP2 DUP6 DUP8 GAS CALL SWAP3 POP POP POP RETURNDATASIZE DUP1 PUSH1 0x0 DUP2 EQ PUSH2 0x1102 JUMPI PUSH1 0x40 MLOAD SWAP2 POP PUSH1 0x1F NOT PUSH1 0x3F RETURNDATASIZE ADD AND DUP3 ADD PUSH1 0x40 MSTORE RETURNDATASIZE DUP3 MSTORE RETURNDATASIZE PUSH1 0x0 PUSH1 0x20 DUP5 ADD RETURNDATACOPY PUSH2 0x1107 JUMP JUMPDEST PUSH1 0x60 SWAP2 POP JUMPDEST POP SWAP2 POP SWAP2 POP PUSH2 0x1118 DUP8 DUP4 DUP4 DUP8 PUSH2 0x1123 JUMP JUMPDEST SWAP8 SWAP7 POP POP POP POP POP POP POP JUMP JUMPDEST PUSH1 0x60 DUP4 ISZERO PUSH2 0x1192 JUMPI DUP3 MLOAD PUSH1 0x0 SUB PUSH2 0x118B JUMPI PUSH1 0x1 PUSH1 0x1 PUSH1 0xA0 SHL SUB DUP6 AND EXTCODESIZE PUSH2 0x118B JUMPI PUSH1 0x40 MLOAD PUSH3 0x461BCD PUSH1 0xE5 SHL DUP2 MSTORE PUSH1 0x20 PUSH1 0x4 DUP3 ADD MSTORE PUSH1 0x1D PUSH1 0x24 DUP3 ADD MSTORE PUSH32 0x416464726573733A2063616C6C20746F206E6F6E2D636F6E7472616374000000 PUSH1 0x44 DUP3 ADD MSTORE PUSH1 0x64 ADD PUSH2 0x41D JUMP JUMPDEST POP DUP2 PUSH2 0x9AC JUMP JUMPDEST PUSH2 0x9AC DUP4 DUP4 DUP2 MLOAD ISZERO PUSH2 0x11A7 JUMPI DUP2 MLOAD DUP1 DUP4 PUSH1 0x20 ADD REVERT JUMPDEST DUP1 PUSH1 0x40 MLOAD PUSH3 0x461BCD PUSH1 0xE5 SHL DUP2 MSTORE PUSH1 0x4 ADD PUSH2 0x41D SWAP2 SWAP1 PUSH2 0x13F3 JUMP JUMPDEST PUSH1 0x0 PUSH1 0x20 DUP3 DUP5 SUB SLT ISZERO PUSH2 0x11D3 JUMPI PUSH1 0x0 DUP1 REVERT JUMPDEST POP CALLDATALOAD SWAP2 SWAP1 POP JUMP JUMPDEST DUP1 CALLDATALOAD PUSH1 0x1 PUSH1 0x1 PUSH1 0xA0 SHL SUB DUP2 AND DUP2 EQ PUSH2 0xA0D JUMPI PUSH1 0x0 DUP1 REVERT JUMPDEST PUSH1 0x0 DUP1 PUSH1 0x0 DUP1 PUSH1 0x0 PUSH1 0x80 DUP7 DUP9 SUB SLT ISZERO PUSH2 0x1209 JUMPI PUSH1 0x0 DUP1 REVERT JUMPDEST PUSH2 0x1212 DUP7 PUSH2 0x11DA JUMP JUMPDEST SWAP5 POP PUSH2 0x1220 PUSH1 0x20 DUP8 ADD PUSH2 0x11DA JUMP JUMPDEST SWAP4 POP PUSH1 0x40 DUP7 ADD CALLDATALOAD SWAP3 POP PUSH1 0x60 DUP7 ADD CALLDATALOAD PUSH8 0xFFFFFFFFFFFFFFFF DUP1 DUP3 GT ISZERO PUSH2 0x1244 JUMPI PUSH1 0x0 DUP1 REVERT JUMPDEST DUP2 DUP9 ADD SWAP2 POP DUP9 PUSH1 0x1F DUP4 ADD SLT PUSH2 0x1258 JUMPI PUSH1 0x0 DUP1 REVERT JUMPDEST DUP2 CALLDATALOAD DUP2 DUP2 GT ISZERO PUSH2 0x1267 JUMPI PUSH1 0x0 DUP1 REVERT JUMPDEST DUP10 PUSH1 0x20 DUP3 DUP6 ADD ADD GT ISZERO PUSH2 0x1279 JUMPI PUSH1 0x0 DUP1 REVERT JUMPDEST SWAP7 SWAP10 SWAP6 SWAP9 POP SWAP4 SWAP7 POP PUSH1 0x20 ADD SWAP5 SWAP4 SWAP3 POP POP POP JUMP JUMPDEST PUSH1 0x0 PUSH1 0x20 DUP3 DUP5 SUB SLT ISZERO PUSH2 0x129E JUMPI PUSH1 0x0 DUP1 REVERT JUMPDEST PUSH2 0x12A7 DUP3 PUSH2 0x11DA JUMP JUMPDEST SWAP4 SWAP3 POP POP POP JUMP JUMPDEST PUSH1 0x0 DUP1 PUSH1 0x40 DUP4 DUP6 SUB SLT ISZERO PUSH2 0x12C1 JUMPI PUSH1 0x0 DUP1 REVERT JUMPDEST POP POP DUP1 CALLDATALOAD SWAP3 PUSH1 0x20 SWAP1 SWAP2 ADD CALLDATALOAD SWAP2 POP JUMP JUMPDEST PUSH1 0x1 PUSH1 0x1 PUSH1 0xA0 SHL SUB SWAP4 DUP5 AND DUP2 MSTORE SWAP2 SWAP1 SWAP3 AND PUSH1 0x20 DUP3 ADD MSTORE PUSH1 0x40 DUP2 ADD SWAP2 SWAP1 SWAP2 MSTORE PUSH1 0x80 PUSH1 0x60 DUP3 ADD DUP2 SWAP1 MSTORE PUSH1 0x0 SWAP1 DUP3 ADD MSTORE PUSH1 0xA0 ADD SWAP1 JUMP JUMPDEST PUSH4 0x4E487B71 PUSH1 0xE0 SHL PUSH1 0x0 MSTORE PUSH1 0x11 PUSH1 0x4 MSTORE PUSH1 0x24 PUSH1 0x0 REVERT JUMPDEST PUSH1 0x0 DUP3 NOT DUP3 GT ISZERO PUSH2 0x132C JUMPI PUSH2 0x132C PUSH2 0x1303 JUMP JUMPDEST POP ADD SWAP1 JUMP JUMPDEST PUSH1 0x0 PUSH1 0x20 DUP3 DUP5 SUB SLT ISZERO PUSH2 0x1343 JUMPI PUSH1 0x0 DUP1 REVERT JUMPDEST DUP2 MLOAD DUP1 ISZERO ISZERO DUP2 EQ PUSH2 0x12A7 JUMPI PUSH1 0x0 DUP1 REVERT JUMPDEST PUSH1 0x0 DUP3 DUP3 LT ISZERO PUSH2 0x1365 JUMPI PUSH2 0x1365 PUSH2 0x1303 JUMP JUMPDEST POP SUB SWAP1 JUMP JUMPDEST PUSH1 0x0 DUP2 PUSH1 0x0 NOT DIV DUP4 GT DUP3 ISZERO ISZERO AND ISZERO PUSH2 0x1384 JUMPI PUSH2 0x1384 PUSH2 0x1303 JUMP JUMPDEST POP MUL SWAP1 JUMP JUMPDEST PUSH1 0x0 DUP3 PUSH2 0x13A6 JUMPI PUSH4 0x4E487B71 PUSH1 0xE0 SHL PUSH1 0x0 MSTORE PUSH1 0x12 PUSH1 0x4 MSTORE PUSH1 0x24 PUSH1 0x0 REVERT JUMPDEST POP DIV SWAP1 JUMP JUMPDEST PUSH1 0x0 JUMPDEST DUP4 DUP2 LT ISZERO PUSH2 0x13C6 JUMPI DUP2 DUP2 ADD MLOAD DUP4 DUP3 ADD MSTORE PUSH1 0x20 ADD PUSH2 0x13AE JUMP JUMPDEST DUP4 DUP2 GT ISZERO PUSH2 0xF41 JUMPI POP POP PUSH1 0x0 SWAP2 ADD MSTORE JUMP JUMPDEST PUSH1 0x0 DUP3 MLOAD PUSH2 0x13E9 DUP2 DUP5 PUSH1 0x20 DUP8 ADD PUSH2 0x13AB JUMP JUMPDEST SWAP2 SWAP1 SWAP2 ADD SWAP3 SWAP2 POP POP JUMP JUMPDEST PUSH1 0x20 DUP2 MSTORE PUSH1 0x0 DUP3 MLOAD DUP1 PUSH1 0x20 DUP5 ADD MSTORE PUSH2 0x1412 DUP2 PUSH1 0x40 DUP6 ADD PUSH1 0x20 DUP8 ADD PUSH2 0x13AB JUMP JUMPDEST PUSH1 0x1F ADD PUSH1 0x1F NOT AND SWAP2 SWAP1 SWAP2 ADD PUSH1 0x40 ADD SWAP3 SWAP2 POP POP JUMP INVALID LOG2 PUSH5 0x6970667358 0x22 SLT KECCAK256 0xD9 0x22 0xBF 0xA8 0xBE STOP PUSH26 0xFC66CEC85AE0658E582AA31E35B5A16532F5666B0F8C60393564 PUSH20 0x6F6C634300080D00330000000000000000000000 "
		},
		"gasEstimates": {
			"creation": {
				"codeDepositCost": "1042400",
				"executionCost": "infinite",
				"totalCost": "infinite"
			},
			"external": {
				"AdminAddToken(uint256)": "infinite",
				"AdminWithDrawToken(uint256)": "infinite",
				"Deposit(uint256)": "infinite",
				"DepositNFT(uint256,uint256)": "infinite",
				"Details(address)": "6872",
				"ERC20Address()": "2404",
				"ERC721address()": "2448",
				"OwnerTokens(address)": "2642",
				"Reward(address)": "2553",
				"UpdateERC20(address)": "26847",
				"UpdateERC721(address)": "26823",
				"UpdateRatePersentage(uint256)": "24620",
				"UserRate(address)": "6850",
				"Utilization()": "6868",
				"Withdraw()": "infinite",
				"calculateIntrest(address)": "infinite",
				"onERC721Received(address,address,uint256,bytes)": "infinite",
				"owenerERC20()": "2405",
				"owner()": "2354",
				"renounceOwnership()": "infinite",
				"showReward(address)": "infinite",
				"totalOwnerToken()": "2330",
				"transferOwnership(address)": "28443",
				"withdrawNFT(uint256)": "infinite"
			}
		},
		"methodIdentifiers": {
			"AdminAddToken(uint256)": "c0cd40ee",
			"AdminWithDrawToken(uint256)": "a88e132f",
			"Deposit(uint256)": "4d6ce1e5",
			"DepositNFT(uint256,uint256)": "934ed772",
			"Details(address)": "e88cc2be",
			"ERC20Address()": "a6021ace",
			"ERC721address()": "b7171a2e",
			"OwnerTokens(address)": "2ffce210",
			"Reward(address)": "57488064",
			"UpdateERC20(address)": "275bd33f",
			"UpdateERC721(address)": "ee0106d2",
			"UpdateRatePersentage(uint256)": "f89d832f",
			"UserRate(address)": "e4458b30",
			"Utilization()": "7b2f247f",
			"Withdraw()": "57ea89b6",
			"calculateIntrest(address)": "8b73e331",
			"onERC721Received(address,address,uint256,bytes)": "150b7a02",
			"owenerERC20()": "10fd4fba",
			"owner()": "8da5cb5b",
			"renounceOwnership()": "715018a6",
			"showReward(address)": "c45af5d8",
			"totalOwnerToken()": "0ccff6e9",
			"transferOwnership(address)": "f2fde38b",
			"withdrawNFT(uint256)": "023245d7"
		}
	},
	"abi": [
		{
			"inputs": [
				{
					"internalType": "address",
					"name": "_ERC721address",
					"type": "address"
				},
				{
					"internalType": "uint256",
					"name": "_ratePersentage",
					"type": "uint256"
				},
				{
					"internalType": "address",
					"name": "_ERC20Address",
					"type": "address"
				}
			],
			"stateMutability": "nonpayable",
			"type": "constructor"
		},
		{
			"anonymous": false,
			"inputs": [
				{
					"indexed": true,
					"internalType": "address",
					"name": "previousOwner",
					"type": "address"
				},
				{
					"indexed": true,
					"internalType": "address",
					"name": "newOwner",
					"type": "address"
				}
			],
			"name": "OwnershipTransferred",
			"type": "event"
		},
		{
			"inputs": [
				{
					"internalType": "uint256",
					"name": "_amount",
					"type": "uint256"
				}
			],
			"name": "AdminAddToken",
			"outputs": [],
			"stateMutability": "nonpayable",
			"type": "function"
		},
		{
			"inputs": [
				{
					"internalType": "uint256",
					"name": "amount",
					"type": "uint256"
				}
			],
			"name": "AdminWithDrawToken",
			"outputs": [],
			"stateMutability": "nonpayable",
			"type": "function"
		},
		{
			"inputs": [
				{
					"internalType": "uint256",
					"name": "_amount",
					"type": "uint256"
				}
			],
			"name": "Deposit",
			"outputs": [],
			"stateMutability": "nonpayable",
			"type": "function"
		},
		{
			"inputs": [
				{
					"internalType": "uint256",
					"name": "tokenIds",
					"type": "uint256"
				},
				{
					"internalType": "uint256",
					"name": "_rate",
					"type": "uint256"
				}
			],
			"name": "DepositNFT",
			"outputs": [],
			"stateMutability": "nonpayable",
			"type": "function"
		},
		{
			"inputs": [
				{
					"internalType": "address",
					"name": "",
					"type": "address"
				}
			],
			"name": "Details",
			"outputs": [
				{
					"internalType": "uint256",
					"name": "deposited",
					"type": "uint256"
				},
				{
					"internalType": "uint256",
					"name": "timestake",
					"type": "uint256"
				},
				{
					"internalType": "bool",
					"name": "check",
					"type": "bool"
				}
			],
			"stateMutability": "view",
			"type": "function"
		},
		{
			"inputs": [],
			"name": "ERC20Address",
			"outputs": [
				{
					"internalType": "address",
					"name": "",
					"type": "address"
				}
			],
			"stateMutability": "view",
			"type": "function"
		},
		{
			"inputs": [],
			"name": "ERC721address",
			"outputs": [
				{
					"internalType": "address",
					"name": "",
					"type": "address"
				}
			],
			"stateMutability": "view",
			"type": "function"
		},
		{
			"inputs": [
				{
					"internalType": "address",
					"name": "",
					"type": "address"
				}
			],
			"name": "OwnerTokens",
			"outputs": [
				{
					"internalType": "uint256",
					"name": "",
					"type": "uint256"
				}
			],
			"stateMutability": "view",
			"type": "function"
		},
		{
			"inputs": [
				{
					"internalType": "address",
					"name": "",
					"type": "address"
				}
			],
			"name": "Reward",
			"outputs": [
				{
					"internalType": "uint256",
					"name": "",
					"type": "uint256"
				}
			],
			"stateMutability": "view",
			"type": "function"
		},
		{
			"inputs": [
				{
					"internalType": "address",
					"name": "_ERC20Address",
					"type": "address"
				}
			],
			"name": "UpdateERC20",
			"outputs": [],
			"stateMutability": "nonpayable",
			"type": "function"
		},
		{
			"inputs": [
				{
					"internalType": "address",
					"name": "_ERC721address",
					"type": "address"
				}
			],
			"name": "UpdateERC721",
			"outputs": [],
			"stateMutability": "nonpayable",
			"type": "function"
		},
		{
			"inputs": [
				{
					"internalType": "uint256",
					"name": "_ratePersentage",
					"type": "uint256"
				}
			],
			"name": "UpdateRatePersentage",
			"outputs": [],
			"stateMutability": "nonpayable",
			"type": "function"
		},
		{
			"inputs": [
				{
					"internalType": "address",
					"name": "",
					"type": "address"
				}
			],
			"name": "UserRate",
			"outputs": [
				{
					"internalType": "uint256",
					"name": "userRate",
					"type": "uint256"
				},
				{
					"internalType": "uint256",
					"name": "tokenId",
					"type": "uint256"
				},
				{
					"internalType": "bool",
					"name": "check",
					"type": "bool"
				}
			],
			"stateMutability": "view",
			"type": "function"
		},
		{
			"inputs": [],
			"name": "Utilization",
			"outputs": [
				{
					"internalType": "uint256",
					"name": "",
					"type": "uint256"
				}
			],
			"stateMutability": "view",
			"type": "function"
		},
		{
			"inputs": [],
			"name": "Withdraw",
			"outputs": [],
			"stateMutability": "nonpayable",
			"type": "function"
		},
		{
			"inputs": [
				{
					"internalType": "address",
					"name": "_to",
					"type": "address"
				}
			],
			"name": "calculateIntrest",
			"outputs": [
				{
					"internalType": "uint256",
					"name": "",
					"type": "uint256"
				}
			],
			"stateMutability": "view",
			"type": "function"
		},
		{
			"inputs": [
				{
					"internalType": "address",
					"name": "",
					"type": "address"
				},
				{
					"internalType": "address",
					"name": "",
					"type": "address"
				},
				{
					"internalType": "uint256",
					"name": "",
					"type": "uint256"
				},
				{
					"internalType": "bytes",
					"name": "",
					"type": "bytes"
				}
			],
			"name": "onERC721Received",
			"outputs": [
				{
					"internalType": "bytes4",
					"name": "",
					"type": "bytes4"
				}
			],
			"stateMutability": "pure",
			"type": "function"
		},
		{
			"inputs": [],
			"name": "owenerERC20",
			"outputs": [
				{
					"internalType": "address",
					"name": "",
					"type": "address"
				}
			],
			"stateMutability": "view",
			"type": "function"
		},
		{
			"inputs": [],
			"name": "owner",
			"outputs": [
				{
					"internalType": "address",
					"name": "",
					"type": "address"
				}
			],
			"stateMutability": "view",
			"type": "function"
		},
		{
			"inputs": [],
			"name": "renounceOwnership",
			"outputs": [],
			"stateMutability": "nonpayable",
			"type": "function"
		},
		{
			"inputs": [
				{
					"internalType": "address",
					"name": "_to",
					"type": "address"
				}
			],
			"name": "showReward",
			"outputs": [
				{
					"internalType": "uint256",
					"name": "result",
					"type": "uint256"
				}
			],
			"stateMutability": "view",
			"type": "function"
		},
		{
			"inputs": [],
			"name": "totalOwnerToken",
			"outputs": [
				{
					"internalType": "uint256",
					"name": "",
					"type": "uint256"
				}
			],
			"stateMutability": "view",
			"type": "function"
		},
		{
			"inputs": [
				{
					"internalType": "address",
					"name": "newOwner",
					"type": "address"
				}
			],
			"name": "transferOwnership",
			"outputs": [],
			"stateMutability": "nonpayable",
			"type": "function"
		},
		{
			"inputs": [
				{
					"internalType": "uint256",
					"name": "tokenIds",
					"type": "uint256"
				}
			],
			"name": "withdrawNFT",
			"outputs": [],
			"stateMutability": "nonpayable",
			"type": "function"
		}
	]
}