{
	"contracts/TransferERC20.sol": {
		"AnotherContract": {
			"abi": [
				{
					"inputs": [
						{
							"internalType": "address",
							"name": "_add",
							"type": "address"
						}
					],
					"stateMutability": "nonpayable",
					"type": "constructor"
				},
				{
					"inputs": [
						{
							"internalType": "contract IERC20",
							"name": "token",
							"type": "address"
						},
						{
							"internalType": "uint256",
							"name": "amount",
							"type": "uint256"
						}
					],
					"name": "addToken",
					"outputs": [],
					"stateMutability": "nonpayable",
					"type": "function"
				},
				{
					"inputs": [
						{
							"internalType": "address",
							"name": "token",
							"type": "address"
						}
					],
					"name": "sendTokens",
					"outputs": [],
					"stateMutability": "nonpayable",
					"type": "function"
				}
			],
			"devdoc": {
				"kind": "dev",
				"methods": {},
				"version": 1
			},
			"evm": {
				"assembly": "    /* \"contracts/TransferERC20.sol\":125:718  contract AnotherContract {... */\n  mstore(0x40, 0x80)\n    /* \"contracts/TransferERC20.sol\":208:261  constructor(address _add) {... */\n  callvalue\n  dup1\n  iszero\n  tag_1\n  jumpi\n  0x00\n  dup1\n  revert\ntag_1:\n  pop\n  mload(0x40)\n  sub(codesize, bytecodeSize)\n  dup1\n  bytecodeSize\n  dup4\n  codecopy\n  dup2\n  dup2\n  add\n  0x40\n  mstore\n  dup2\n  add\n  swap1\n  tag_2\n  swap2\n  swap1\n  tag_3\n  jump\t// in\ntag_2:\n    /* \"contracts/TransferERC20.sol\":250:254  _add */\n  dup1\n    /* \"contracts/TransferERC20.sol\":244:247  add */\n  0x00\n  dup1\n    /* \"contracts/TransferERC20.sol\":244:254  add = _add */\n  0x0100\n  exp\n  dup2\n  sload\n  dup2\n  0xffffffffffffffffffffffffffffffffffffffff\n  mul\n  not\n  and\n  swap1\n  dup4\n  0xffffffffffffffffffffffffffffffffffffffff\n  and\n  mul\n  or\n  swap1\n  sstore\n  pop\n    /* \"contracts/TransferERC20.sol\":208:261  constructor(address _add) {... */\n  pop\n    /* \"contracts/TransferERC20.sol\":125:718  contract AnotherContract {... */\n  jump(tag_6)\n    /* \"#utility.yul\":88:205   */\ntag_8:\n    /* \"#utility.yul\":197:198   */\n  0x00\n    /* \"#utility.yul\":194:195   */\n  dup1\n    /* \"#utility.yul\":187:199   */\n  revert\n    /* \"#utility.yul\":334:460   */\ntag_10:\n    /* \"#utility.yul\":371:378   */\n  0x00\n    /* \"#utility.yul\":411:453   */\n  0xffffffffffffffffffffffffffffffffffffffff\n    /* \"#utility.yul\":404:409   */\n  dup3\n    /* \"#utility.yul\":400:454   */\n  and\n    /* \"#utility.yul\":389:454   */\n  swap1\n  pop\n    /* \"#utility.yul\":334:460   */\n  swap2\n  swap1\n  pop\n  jump\t// out\n    /* \"#utility.yul\":466:562   */\ntag_11:\n    /* \"#utility.yul\":503:510   */\n  0x00\n    /* \"#utility.yul\":532:556   */\n  tag_20\n    /* \"#utility.yul\":550:555   */\n  dup3\n    /* \"#utility.yul\":532:556   */\n  tag_10\n  jump\t// in\ntag_20:\n    /* \"#utility.yul\":521:556   */\n  swap1\n  pop\n    /* \"#utility.yul\":466:562   */\n  swap2\n  swap1\n  pop\n  jump\t// out\n    /* \"#utility.yul\":568:690   */\ntag_12:\n    /* \"#utility.yul\":641:665   */\n  tag_22\n    /* \"#utility.yul\":659:664   */\n  dup2\n    /* \"#utility.yul\":641:665   */\n  tag_11\n  jump\t// in\ntag_22:\n    /* \"#utility.yul\":634:639   */\n  dup2\n    /* \"#utility.yul\":631:666   */\n  eq\n    /* \"#utility.yul\":621:684   */\n  tag_23\n  jumpi\n    /* \"#utility.yul\":680:681   */\n  0x00\n    /* \"#utility.yul\":677:678   */\n  dup1\n    /* \"#utility.yul\":670:682   */\n  revert\n    /* \"#utility.yul\":621:684   */\ntag_23:\n    /* \"#utility.yul\":568:690   */\n  pop\n  jump\t// out\n    /* \"#utility.yul\":696:839   */\ntag_13:\n    /* \"#utility.yul\":753:758   */\n  0x00\n    /* \"#utility.yul\":784:790   */\n  dup2\n    /* \"#utility.yul\":778:791   */\n  mload\n    /* \"#utility.yul\":769:791   */\n  swap1\n  pop\n    /* \"#utility.yul\":800:833   */\n  tag_25\n    /* \"#utility.yul\":827:832   */\n  dup2\n    /* \"#utility.yul\":800:833   */\n  tag_12\n  jump\t// in\ntag_25:\n    /* \"#utility.yul\":696:839   */\n  swap3\n  swap2\n  pop\n  pop\n  jump\t// out\n    /* \"#utility.yul\":845:1196   */\ntag_3:\n    /* \"#utility.yul\":915:921   */\n  0x00\n    /* \"#utility.yul\":964:966   */\n  0x20\n    /* \"#utility.yul\":952:961   */\n  dup3\n    /* \"#utility.yul\":943:950   */\n  dup5\n    /* \"#utility.yul\":939:962   */\n  sub\n    /* \"#utility.yul\":935:967   */\n  slt\n    /* \"#utility.yul\":932:1051   */\n  iszero\n  tag_27\n  jumpi\n    /* \"#utility.yul\":970:1049   */\n  tag_28\n  tag_8\n  jump\t// in\ntag_28:\n    /* \"#utility.yul\":932:1051   */\ntag_27:\n    /* \"#utility.yul\":1090:1091   */\n  0x00\n    /* \"#utility.yul\":1115:1179   */\n  tag_29\n    /* \"#utility.yul\":1171:1178   */\n  dup5\n    /* \"#utility.yul\":1162:1168   */\n  dup3\n    /* \"#utility.yul\":1151:1160   */\n  dup6\n    /* \"#utility.yul\":1147:1169   */\n  add\n    /* \"#utility.yul\":1115:1179   */\n  tag_13\n  jump\t// in\ntag_29:\n    /* \"#utility.yul\":1105:1179   */\n  swap2\n  pop\n    /* \"#utility.yul\":1061:1189   */\n  pop\n    /* \"#utility.yul\":845:1196   */\n  swap3\n  swap2\n  pop\n  pop\n  jump\t// out\n    /* \"contracts/TransferERC20.sol\":125:718  contract AnotherContract {... */\ntag_6:\n  dataSize(sub_0)\n  dup1\n  dataOffset(sub_0)\n  0x00\n  codecopy\n  0x00\n  return\nstop\n\nsub_0: assembly {\n        /* \"contracts/TransferERC20.sol\":125:718  contract AnotherContract {... */\n      mstore(0x40, 0x80)\n      callvalue\n      dup1\n      iszero\n      tag_1\n      jumpi\n      0x00\n      dup1\n      revert\n    tag_1:\n      pop\n      jumpi(tag_2, lt(calldatasize, 0x04))\n      shr(0xe0, calldataload(0x00))\n      dup1\n      0x837197b2\n      eq\n      tag_3\n      jumpi\n      dup1\n      0xaf81c5b9\n      eq\n      tag_4\n      jumpi\n    tag_2:\n      0x00\n      dup1\n      revert\n        /* \"contracts/TransferERC20.sol\":447:716  function sendTokens(address token) external {... */\n    tag_3:\n      tag_5\n      0x04\n      dup1\n      calldatasize\n      sub\n      dup2\n      add\n      swap1\n      tag_6\n      swap2\n      swap1\n      tag_7\n      jump\t// in\n    tag_6:\n      tag_8\n      jump\t// in\n    tag_5:\n      stop\n        /* \"contracts/TransferERC20.sol\":266:442  function addToken(IERC20 token, uint256 amount) external {... */\n    tag_4:\n      tag_9\n      0x04\n      dup1\n      calldatasize\n      sub\n      dup2\n      add\n      swap1\n      tag_10\n      swap2\n      swap1\n      tag_11\n      jump\t// in\n    tag_10:\n      tag_12\n      jump\t// in\n    tag_9:\n      stop\n        /* \"contracts/TransferERC20.sol\":447:716  function sendTokens(address token) external {... */\n    tag_8:\n        /* \"contracts/TransferERC20.sol\":665:709  IERC20(token).safeApprove(address(this), 10) */\n      tag_14\n        /* \"contracts/TransferERC20.sol\":699:703  this */\n      address\n        /* \"contracts/TransferERC20.sol\":706:708  10 */\n      0x0a\n        /* \"contracts/TransferERC20.sol\":672:677  token */\n      dup4\n        /* \"contracts/TransferERC20.sol\":665:690  IERC20(token).safeApprove */\n      0xffffffffffffffffffffffffffffffffffffffff\n      and\n      tag_15\n      swap1\n        /* \"contracts/TransferERC20.sol\":665:709  IERC20(token).safeApprove(address(this), 10) */\n      swap3\n      swap2\n      swap1\n      0xffffffff\n      and\n      jump\t// in\n    tag_14:\n        /* \"contracts/TransferERC20.sol\":447:716  function sendTokens(address token) external {... */\n      pop\n      jump\t// out\n        /* \"contracts/TransferERC20.sol\":266:442  function addToken(IERC20 token, uint256 amount) external {... */\n    tag_12:\n        /* \"contracts/TransferERC20.sol\":351:353  10 */\n      0x0a\n        /* \"contracts/TransferERC20.sol\":341:347  amount */\n      dup2\n        /* \"contracts/TransferERC20.sol\":341:353  amount >= 10 */\n      lt\n      iszero\n        /* \"contracts/TransferERC20.sol\":333:373  require(amount >= 10,\"Insufficent Fund\") */\n      tag_17\n      jumpi\n      mload(0x40)\n      0x08c379a000000000000000000000000000000000000000000000000000000000\n      dup2\n      mstore\n      0x04\n      add\n      tag_18\n      swap1\n      tag_19\n      jump\t// in\n    tag_18:\n      mload(0x40)\n      dup1\n      swap2\n      sub\n      swap1\n      revert\n    tag_17:\n        /* \"contracts/TransferERC20.sol\":383:435  token.safeTransferFrom(msg.sender, address(this),10) */\n      tag_20\n        /* \"contracts/TransferERC20.sol\":406:416  msg.sender */\n      caller\n        /* \"contracts/TransferERC20.sol\":426:430  this */\n      address\n        /* \"contracts/TransferERC20.sol\":432:434  10 */\n      0x0a\n        /* \"contracts/TransferERC20.sol\":383:388  token */\n      dup6\n        /* \"contracts/TransferERC20.sol\":383:405  token.safeTransferFrom */\n      0xffffffffffffffffffffffffffffffffffffffff\n      and\n      tag_21\n      swap1\n        /* \"contracts/TransferERC20.sol\":383:435  token.safeTransferFrom(msg.sender, address(this),10) */\n      swap4\n      swap3\n      swap2\n      swap1\n      0xffffffff\n      and\n      jump\t// in\n    tag_20:\n        /* \"contracts/TransferERC20.sol\":266:442  function addToken(IERC20 token, uint256 amount) external {... */\n      pop\n      pop\n      jump\t// out\n        /* \"@openzeppelin/contracts/token/ERC20/utils/SafeERC20.sol\":1475:2078  function safeApprove(... */\n    tag_15:\n        /* \"@openzeppelin/contracts/token/ERC20/utils/SafeERC20.sol\":1839:1840  0 */\n      0x00\n        /* \"@openzeppelin/contracts/token/ERC20/utils/SafeERC20.sol\":1830:1835  value */\n      dup2\n        /* \"@openzeppelin/contracts/token/ERC20/utils/SafeERC20.sol\":1830:1840  value == 0 */\n      eq\n        /* \"@openzeppelin/contracts/token/ERC20/utils/SafeERC20.sol\":1829:1891  (value == 0) || (token.allowance(address(this), spender) == 0) */\n      dup1\n      tag_23\n      jumpi\n      pop\n        /* \"@openzeppelin/contracts/token/ERC20/utils/SafeERC20.sol\":1889:1890  0 */\n      0x00\n        /* \"@openzeppelin/contracts/token/ERC20/utils/SafeERC20.sol\":1846:1851  token */\n      dup4\n        /* \"@openzeppelin/contracts/token/ERC20/utils/SafeERC20.sol\":1846:1861  token.allowance */\n      0xffffffffffffffffffffffffffffffffffffffff\n      and\n      0xdd62ed3e\n        /* \"@openzeppelin/contracts/token/ERC20/utils/SafeERC20.sol\":1870:1874  this */\n      address\n        /* \"@openzeppelin/contracts/token/ERC20/utils/SafeERC20.sol\":1877:1884  spender */\n      dup6\n        /* \"@openzeppelin/contracts/token/ERC20/utils/SafeERC20.sol\":1846:1885  token.allowance(address(this), spender) */\n      mload(0x40)\n      dup4\n      0xffffffff\n      and\n      0xe0\n      shl\n      dup2\n      mstore\n      0x04\n      add\n      tag_24\n      swap3\n      swap2\n      swap1\n      tag_25\n      jump\t// in\n    tag_24:\n      0x20\n      mload(0x40)\n      dup1\n      dup4\n      sub\n      dup2\n      dup7\n      gas\n      staticcall\n      iszero\n      dup1\n      iszero\n      tag_27\n      jumpi\n      returndatasize\n      0x00\n      dup1\n      returndatacopy\n      revert(0x00, returndatasize)\n    tag_27:\n      pop\n      pop\n      pop\n      pop\n      mload(0x40)\n      returndatasize\n      not(0x1f)\n      0x1f\n      dup3\n      add\n      and\n      dup3\n      add\n      dup1\n      0x40\n      mstore\n      pop\n      dup2\n      add\n      swap1\n      tag_28\n      swap2\n      swap1\n      tag_29\n      jump\t// in\n    tag_28:\n        /* \"@openzeppelin/contracts/token/ERC20/utils/SafeERC20.sol\":1846:1890  token.allowance(address(this), spender) == 0 */\n      eq\n        /* \"@openzeppelin/contracts/token/ERC20/utils/SafeERC20.sol\":1829:1891  (value == 0) || (token.allowance(address(this), spender) == 0) */\n    tag_23:\n        /* \"@openzeppelin/contracts/token/ERC20/utils/SafeERC20.sol\":1808:1971  require(... */\n      tag_30\n      jumpi\n      mload(0x40)\n      0x08c379a000000000000000000000000000000000000000000000000000000000\n      dup2\n      mstore\n      0x04\n      add\n      tag_31\n      swap1\n      tag_32\n      jump\t// in\n    tag_31:\n      mload(0x40)\n      dup1\n      swap2\n      sub\n      swap1\n      revert\n    tag_30:\n        /* \"@openzeppelin/contracts/token/ERC20/utils/SafeERC20.sol\":1981:2071  _callOptionalReturn(token, abi.encodeWithSelector(token.approve.selector, spender, value)) */\n      tag_33\n        /* \"@openzeppelin/contracts/token/ERC20/utils/SafeERC20.sol\":2001:2006  token */\n      dup4\n        /* \"@openzeppelin/contracts/token/ERC20/utils/SafeERC20.sol\":2031:2053  token.approve.selector */\n      shl(0xe0, 0x095ea7b3)\n        /* \"@openzeppelin/contracts/token/ERC20/utils/SafeERC20.sol\":2055:2062  spender */\n      dup5\n        /* \"@openzeppelin/contracts/token/ERC20/utils/SafeERC20.sol\":2064:2069  value */\n      dup5\n        /* \"@openzeppelin/contracts/token/ERC20/utils/SafeERC20.sol\":2008:2070  abi.encodeWithSelector(token.approve.selector, spender, value) */\n      add(0x24, mload(0x40))\n      tag_34\n      swap3\n      swap2\n      swap1\n      tag_35\n      jump\t// in\n    tag_34:\n      mload(0x40)\n      0x20\n      dup2\n      dup4\n      sub\n      sub\n      dup2\n      mstore\n      swap1\n      0x40\n      mstore\n      swap1\n      not(0xffffffffffffffffffffffffffffffffffffffffffffffffffffffff)\n      and\n      0x20\n      dup3\n      add\n      dup1\n      mload\n      0xffffffffffffffffffffffffffffffffffffffffffffffffffffffff\n      dup4\n      dup2\n      dup4\n      and\n      or\n      dup4\n      mstore\n      pop\n      pop\n      pop\n      pop\n        /* \"@openzeppelin/contracts/token/ERC20/utils/SafeERC20.sol\":1981:2000  _callOptionalReturn */\n      tag_36\n        /* \"@openzeppelin/contracts/token/ERC20/utils/SafeERC20.sol\":1981:2071  _callOptionalReturn(token, abi.encodeWithSelector(token.approve.selector, spender, value)) */\n      jump\t// in\n    tag_33:\n        /* \"@openzeppelin/contracts/token/ERC20/utils/SafeERC20.sol\":1475:2078  function safeApprove(... */\n      pop\n      pop\n      pop\n      jump\t// out\n        /* \"@openzeppelin/contracts/token/ERC20/utils/SafeERC20.sol\":974:1215  function safeTransferFrom(... */\n    tag_21:\n        /* \"@openzeppelin/contracts/token/ERC20/utils/SafeERC20.sol\":1112:1208  _callOptionalReturn(token, abi.encodeWithSelector(token.transferFrom.selector, from, to, value)) */\n      tag_38\n        /* \"@openzeppelin/contracts/token/ERC20/utils/SafeERC20.sol\":1132:1137  token */\n      dup5\n        /* \"@openzeppelin/contracts/token/ERC20/utils/SafeERC20.sol\":1162:1189  token.transferFrom.selector */\n      shl(0xe0, 0x23b872dd)\n        /* \"@openzeppelin/contracts/token/ERC20/utils/SafeERC20.sol\":1191:1195  from */\n      dup6\n        /* \"@openzeppelin/contracts/token/ERC20/utils/SafeERC20.sol\":1197:1199  to */\n      dup6\n        /* \"@openzeppelin/contracts/token/ERC20/utils/SafeERC20.sol\":1201:1206  value */\n      dup6\n        /* \"@openzeppelin/contracts/token/ERC20/utils/SafeERC20.sol\":1139:1207  abi.encodeWithSelector(token.transferFrom.selector, from, to, value) */\n      add(0x24, mload(0x40))\n      tag_39\n      swap4\n      swap3\n      swap2\n      swap1\n      tag_40\n      jump\t// in\n    tag_39:\n      mload(0x40)\n      0x20\n      dup2\n      dup4\n      sub\n      sub\n      dup2\n      mstore\n      swap1\n      0x40\n      mstore\n      swap1\n      not(0xffffffffffffffffffffffffffffffffffffffffffffffffffffffff)\n      and\n      0x20\n      dup3\n      add\n      dup1\n      mload\n      0xffffffffffffffffffffffffffffffffffffffffffffffffffffffff\n      dup4\n      dup2\n      dup4\n      and\n      or\n      dup4\n      mstore\n      pop\n      pop\n      pop\n      pop\n        /* \"@openzeppelin/contracts/token/ERC20/utils/SafeERC20.sol\":1112:1131  _callOptionalReturn */\n      tag_36\n        /* \"@openzeppelin/contracts/token/ERC20/utils/SafeERC20.sol\":1112:1208  _callOptionalReturn(token, abi.encodeWithSelector(token.transferFrom.selector, from, to, value)) */\n      jump\t// in\n    tag_38:\n        /* \"@openzeppelin/contracts/token/ERC20/utils/SafeERC20.sol\":974:1215  function safeTransferFrom(... */\n      pop\n      pop\n      pop\n      pop\n      jump\t// out\n        /* \"@openzeppelin/contracts/token/ERC20/utils/SafeERC20.sol\":3747:4453  function _callOptionalReturn(IERC20 token, bytes memory data) private {... */\n    tag_36:\n        /* \"@openzeppelin/contracts/token/ERC20/utils/SafeERC20.sol\":4166:4189  bytes memory returndata */\n      0x00\n        /* \"@openzeppelin/contracts/token/ERC20/utils/SafeERC20.sol\":4192:4261  address(token).functionCall(data, \"SafeERC20: low-level call failed\") */\n      tag_42\n        /* \"@openzeppelin/contracts/token/ERC20/utils/SafeERC20.sol\":4220:4224  data */\n      dup3\n        /* \"@openzeppelin/contracts/token/ERC20/utils/SafeERC20.sol\":4192:4261  address(token).functionCall(data, \"SafeERC20: low-level call failed\") */\n      mload(0x40)\n      dup1\n      0x40\n      add\n      0x40\n      mstore\n      dup1\n      0x20\n      dup2\n      mstore\n      0x20\n      add\n      0x5361666545524332303a206c6f772d6c6576656c2063616c6c206661696c6564\n      dup2\n      mstore\n      pop\n        /* \"@openzeppelin/contracts/token/ERC20/utils/SafeERC20.sol\":4200:4205  token */\n      dup6\n        /* \"@openzeppelin/contracts/token/ERC20/utils/SafeERC20.sol\":4192:4219  address(token).functionCall */\n      0xffffffffffffffffffffffffffffffffffffffff\n      and\n      tag_43\n      swap1\n        /* \"@openzeppelin/contracts/token/ERC20/utils/SafeERC20.sol\":4192:4261  address(token).functionCall(data, \"SafeERC20: low-level call failed\") */\n      swap3\n      swap2\n      swap1\n      0xffffffff\n      and\n      jump\t// in\n    tag_42:\n        /* \"@openzeppelin/contracts/token/ERC20/utils/SafeERC20.sol\":4166:4261  bytes memory returndata = address(token).functionCall(data, \"SafeERC20: low-level call failed\") */\n      swap1\n      pop\n        /* \"@openzeppelin/contracts/token/ERC20/utils/SafeERC20.sol\":4295:4296  0 */\n      0x00\n        /* \"@openzeppelin/contracts/token/ERC20/utils/SafeERC20.sol\":4275:4285  returndata */\n      dup2\n        /* \"@openzeppelin/contracts/token/ERC20/utils/SafeERC20.sol\":4275:4292  returndata.length */\n      mload\n        /* \"@openzeppelin/contracts/token/ERC20/utils/SafeERC20.sol\":4275:4296  returndata.length > 0 */\n      gt\n        /* \"@openzeppelin/contracts/token/ERC20/utils/SafeERC20.sol\":4271:4447  if (returndata.length > 0) {... */\n      iszero\n      tag_44\n      jumpi\n        /* \"@openzeppelin/contracts/token/ERC20/utils/SafeERC20.sol\":4370:4380  returndata */\n      dup1\n        /* \"@openzeppelin/contracts/token/ERC20/utils/SafeERC20.sol\":4359:4389  abi.decode(returndata, (bool)) */\n      dup1\n      0x20\n      add\n      swap1\n      mload\n      dup2\n      add\n      swap1\n      tag_45\n      swap2\n      swap1\n      tag_46\n      jump\t// in\n    tag_45:\n        /* \"@openzeppelin/contracts/token/ERC20/utils/SafeERC20.sol\":4351:4436  require(abi.decode(returndata, (bool)), \"SafeERC20: ERC20 operation did not succeed\") */\n      tag_47\n      jumpi\n      mload(0x40)\n      0x08c379a000000000000000000000000000000000000000000000000000000000\n      dup2\n      mstore\n      0x04\n      add\n      tag_48\n      swap1\n      tag_49\n      jump\t// in\n    tag_48:\n      mload(0x40)\n      dup1\n      swap2\n      sub\n      swap1\n      revert\n    tag_47:\n        /* \"@openzeppelin/contracts/token/ERC20/utils/SafeERC20.sol\":4271:4447  if (returndata.length > 0) {... */\n    tag_44:\n        /* \"@openzeppelin/contracts/token/ERC20/utils/SafeERC20.sol\":3817:4453  {... */\n      pop\n        /* \"@openzeppelin/contracts/token/ERC20/utils/SafeERC20.sol\":3747:4453  function _callOptionalReturn(IERC20 token, bytes memory data) private {... */\n      pop\n      pop\n      jump\t// out\n        /* \"@openzeppelin/contracts/utils/Address.sol\":3873:4096  function functionCall(... */\n    tag_43:\n        /* \"@openzeppelin/contracts/utils/Address.sol\":4006:4018  bytes memory */\n      0x60\n        /* \"@openzeppelin/contracts/utils/Address.sol\":4037:4089  functionCallWithValue(target, data, 0, errorMessage) */\n      tag_51\n        /* \"@openzeppelin/contracts/utils/Address.sol\":4059:4065  target */\n      dup5\n        /* \"@openzeppelin/contracts/utils/Address.sol\":4067:4071  data */\n      dup5\n        /* \"@openzeppelin/contracts/utils/Address.sol\":4073:4074  0 */\n      0x00\n        /* \"@openzeppelin/contracts/utils/Address.sol\":4076:4088  errorMessage */\n      dup6\n        /* \"@openzeppelin/contracts/utils/Address.sol\":4037:4058  functionCallWithValue */\n      tag_52\n        /* \"@openzeppelin/contracts/utils/Address.sol\":4037:4089  functionCallWithValue(target, data, 0, errorMessage) */\n      jump\t// in\n    tag_51:\n        /* \"@openzeppelin/contracts/utils/Address.sol\":4030:4089  return functionCallWithValue(target, data, 0, errorMessage) */\n      swap1\n      pop\n        /* \"@openzeppelin/contracts/utils/Address.sol\":3873:4096  function functionCall(... */\n      swap4\n      swap3\n      pop\n      pop\n      pop\n      jump\t// out\n        /* \"@openzeppelin/contracts/utils/Address.sol\":4960:5406  function functionCallWithValue(... */\n    tag_52:\n        /* \"@openzeppelin/contracts/utils/Address.sol\":5125:5137  bytes memory */\n      0x60\n        /* \"@openzeppelin/contracts/utils/Address.sol\":5182:5187  value */\n      dup3\n        /* \"@openzeppelin/contracts/utils/Address.sol\":5157:5178  address(this).balance */\n      selfbalance\n        /* \"@openzeppelin/contracts/utils/Address.sol\":5157:5187  address(this).balance >= value */\n      lt\n      iszero\n        /* \"@openzeppelin/contracts/utils/Address.sol\":5149:5230  require(address(this).balance >= value, \"Address: insufficient balance for call\") */\n      tag_54\n      jumpi\n      mload(0x40)\n      0x08c379a000000000000000000000000000000000000000000000000000000000\n      dup2\n      mstore\n      0x04\n      add\n      tag_55\n      swap1\n      tag_56\n      jump\t// in\n    tag_55:\n      mload(0x40)\n      dup1\n      swap2\n      sub\n      swap1\n      revert\n    tag_54:\n        /* \"@openzeppelin/contracts/utils/Address.sol\":5241:5253  bool success */\n      0x00\n        /* \"@openzeppelin/contracts/utils/Address.sol\":5255:5278  bytes memory returndata */\n      dup1\n        /* \"@openzeppelin/contracts/utils/Address.sol\":5282:5288  target */\n      dup7\n        /* \"@openzeppelin/contracts/utils/Address.sol\":5282:5293  target.call */\n      0xffffffffffffffffffffffffffffffffffffffff\n      and\n        /* \"@openzeppelin/contracts/utils/Address.sol\":5301:5306  value */\n      dup6\n        /* \"@openzeppelin/contracts/utils/Address.sol\":5308:5312  data */\n      dup8\n        /* \"@openzeppelin/contracts/utils/Address.sol\":5282:5313  target.call{value: value}(data) */\n      mload(0x40)\n      tag_57\n      swap2\n      swap1\n      tag_58\n      jump\t// in\n    tag_57:\n      0x00\n      mload(0x40)\n      dup1\n      dup4\n      sub\n      dup2\n      dup6\n      dup8\n      gas\n      call\n      swap3\n      pop\n      pop\n      pop\n      returndatasize\n      dup1\n      0x00\n      dup2\n      eq\n      tag_61\n      jumpi\n      mload(0x40)\n      swap2\n      pop\n      and(add(returndatasize, 0x3f), not(0x1f))\n      dup3\n      add\n      0x40\n      mstore\n      returndatasize\n      dup3\n      mstore\n      returndatasize\n      0x00\n      0x20\n      dup5\n      add\n      returndatacopy\n      jump(tag_60)\n    tag_61:\n      0x60\n      swap2\n      pop\n    tag_60:\n      pop\n        /* \"@openzeppelin/contracts/utils/Address.sol\":5240:5313  (bool success, bytes memory returndata) = target.call{value: value}(data) */\n      swap2\n      pop\n      swap2\n      pop\n        /* \"@openzeppelin/contracts/utils/Address.sol\":5330:5399  verifyCallResultFromTarget(target, success, returndata, errorMessage) */\n      tag_62\n        /* \"@openzeppelin/contracts/utils/Address.sol\":5357:5363  target */\n      dup8\n        /* \"@openzeppelin/contracts/utils/Address.sol\":5365:5372  success */\n      dup4\n        /* \"@openzeppelin/contracts/utils/Address.sol\":5374:5384  returndata */\n      dup4\n        /* \"@openzeppelin/contracts/utils/Address.sol\":5386:5398  errorMessage */\n      dup8\n        /* \"@openzeppelin/contracts/utils/Address.sol\":5330:5356  verifyCallResultFromTarget */\n      tag_63\n        /* \"@openzeppelin/contracts/utils/Address.sol\":5330:5399  verifyCallResultFromTarget(target, success, returndata, errorMessage) */\n      jump\t// in\n    tag_62:\n        /* \"@openzeppelin/contracts/utils/Address.sol\":5323:5399  return verifyCallResultFromTarget(target, success, returndata, errorMessage) */\n      swap3\n      pop\n      pop\n      pop\n        /* \"@openzeppelin/contracts/utils/Address.sol\":4960:5406  function functionCallWithValue(... */\n      swap5\n      swap4\n      pop\n      pop\n      pop\n      pop\n      jump\t// out\n        /* \"@openzeppelin/contracts/utils/Address.sol\":7466:8094  function verifyCallResultFromTarget(... */\n    tag_63:\n        /* \"@openzeppelin/contracts/utils/Address.sol\":7646:7658  bytes memory */\n      0x60\n        /* \"@openzeppelin/contracts/utils/Address.sol\":7674:7681  success */\n      dup4\n        /* \"@openzeppelin/contracts/utils/Address.sol\":7670:8088  if (success) {... */\n      iszero\n      tag_65\n      jumpi\n        /* \"@openzeppelin/contracts/utils/Address.sol\":7722:7723  0 */\n      0x00\n        /* \"@openzeppelin/contracts/utils/Address.sol\":7701:7711  returndata */\n      dup4\n        /* \"@openzeppelin/contracts/utils/Address.sol\":7701:7718  returndata.length */\n      mload\n        /* \"@openzeppelin/contracts/utils/Address.sol\":7701:7723  returndata.length == 0 */\n      sub\n        /* \"@openzeppelin/contracts/utils/Address.sol\":7697:7983  if (returndata.length == 0) {... */\n      tag_66\n      jumpi\n        /* \"@openzeppelin/contracts/utils/Address.sol\":7916:7934  isContract(target) */\n      tag_67\n        /* \"@openzeppelin/contracts/utils/Address.sol\":7927:7933  target */\n      dup6\n        /* \"@openzeppelin/contracts/utils/Address.sol\":7916:7926  isContract */\n      tag_68\n        /* \"@openzeppelin/contracts/utils/Address.sol\":7916:7934  isContract(target) */\n      jump\t// in\n    tag_67:\n        /* \"@openzeppelin/contracts/utils/Address.sol\":7908:7968  require(isContract(target), \"Address: call to non-contract\") */\n      tag_69\n      jumpi\n      mload(0x40)\n      0x08c379a000000000000000000000000000000000000000000000000000000000\n      dup2\n      mstore\n      0x04\n      add\n      tag_70\n      swap1\n      tag_71\n      jump\t// in\n    tag_70:\n      mload(0x40)\n      dup1\n      swap2\n      sub\n      swap1\n      revert\n    tag_69:\n        /* \"@openzeppelin/contracts/utils/Address.sol\":7697:7983  if (returndata.length == 0) {... */\n    tag_66:\n        /* \"@openzeppelin/contracts/utils/Address.sol\":8003:8013  returndata */\n      dup3\n        /* \"@openzeppelin/contracts/utils/Address.sol\":7996:8013  return returndata */\n      swap1\n      pop\n      jump(tag_64)\n        /* \"@openzeppelin/contracts/utils/Address.sol\":7670:8088  if (success) {... */\n    tag_65:\n        /* \"@openzeppelin/contracts/utils/Address.sol\":8044:8077  _revert(returndata, errorMessage) */\n      tag_73\n        /* \"@openzeppelin/contracts/utils/Address.sol\":8052:8062  returndata */\n      dup4\n        /* \"@openzeppelin/contracts/utils/Address.sol\":8064:8076  errorMessage */\n      dup4\n        /* \"@openzeppelin/contracts/utils/Address.sol\":8044:8051  _revert */\n      tag_74\n        /* \"@openzeppelin/contracts/utils/Address.sol\":8044:8077  _revert(returndata, errorMessage) */\n      jump\t// in\n    tag_73:\n        /* \"@openzeppelin/contracts/utils/Address.sol\":7466:8094  function verifyCallResultFromTarget(... */\n    tag_64:\n      swap5\n      swap4\n      pop\n      pop\n      pop\n      pop\n      jump\t// out\n        /* \"@openzeppelin/contracts/utils/Address.sol\":1175:1495  function isContract(address account) internal view returns (bool) {... */\n    tag_68:\n        /* \"@openzeppelin/contracts/utils/Address.sol\":1235:1239  bool */\n      0x00\n        /* \"@openzeppelin/contracts/utils/Address.sol\":1487:1488  0 */\n      dup1\n        /* \"@openzeppelin/contracts/utils/Address.sol\":1465:1472  account */\n      dup3\n        /* \"@openzeppelin/contracts/utils/Address.sol\":1465:1484  account.code.length */\n      0xffffffffffffffffffffffffffffffffffffffff\n      and\n      extcodesize\n        /* \"@openzeppelin/contracts/utils/Address.sol\":1465:1488  account.code.length > 0 */\n      gt\n        /* \"@openzeppelin/contracts/utils/Address.sol\":1458:1488  return account.code.length > 0 */\n      swap1\n      pop\n        /* \"@openzeppelin/contracts/utils/Address.sol\":1175:1495  function isContract(address account) internal view returns (bool) {... */\n      swap2\n      swap1\n      pop\n      jump\t// out\n        /* \"@openzeppelin/contracts/utils/Address.sol\":8616:9156  function _revert(bytes memory returndata, string memory errorMessage) private pure {... */\n    tag_74:\n        /* \"@openzeppelin/contracts/utils/Address.sol\":8795:8796  0 */\n      0x00\n        /* \"@openzeppelin/contracts/utils/Address.sol\":8775:8785  returndata */\n      dup3\n        /* \"@openzeppelin/contracts/utils/Address.sol\":8775:8792  returndata.length */\n      mload\n        /* \"@openzeppelin/contracts/utils/Address.sol\":8775:8796  returndata.length > 0 */\n      gt\n        /* \"@openzeppelin/contracts/utils/Address.sol\":8771:9150  if (returndata.length > 0) {... */\n      iszero\n      tag_77\n      jumpi\n        /* \"@openzeppelin/contracts/utils/Address.sol\":9003:9013  returndata */\n      dup2\n        /* \"@openzeppelin/contracts/utils/Address.sol\":8997:9014  mload(returndata) */\n      mload\n        /* \"@openzeppelin/contracts/utils/Address.sol\":9059:9074  returndata_size */\n      dup1\n        /* \"@openzeppelin/contracts/utils/Address.sol\":9046:9056  returndata */\n      dup4\n        /* \"@openzeppelin/contracts/utils/Address.sol\":9042:9044  32 */\n      0x20\n        /* \"@openzeppelin/contracts/utils/Address.sol\":9038:9057  add(32, returndata) */\n      add\n        /* \"@openzeppelin/contracts/utils/Address.sol\":9031:9075  revert(add(32, returndata), returndata_size) */\n      revert\n        /* \"@openzeppelin/contracts/utils/Address.sol\":8771:9150  if (returndata.length > 0) {... */\n    tag_77:\n        /* \"@openzeppelin/contracts/utils/Address.sol\":9126:9138  errorMessage */\n      dup1\n        /* \"@openzeppelin/contracts/utils/Address.sol\":9119:9139  revert(errorMessage) */\n      mload(0x40)\n      0x08c379a000000000000000000000000000000000000000000000000000000000\n      dup2\n      mstore\n      0x04\n      add\n      tag_79\n      swap2\n      swap1\n      tag_80\n      jump\t// in\n    tag_79:\n      mload(0x40)\n      dup1\n      swap2\n      sub\n      swap1\n      revert\n        /* \"#utility.yul\":88:205   */\n    tag_82:\n        /* \"#utility.yul\":197:198   */\n      0x00\n        /* \"#utility.yul\":194:195   */\n      dup1\n        /* \"#utility.yul\":187:199   */\n      revert\n        /* \"#utility.yul\":334:460   */\n    tag_84:\n        /* \"#utility.yul\":371:378   */\n      0x00\n        /* \"#utility.yul\":411:453   */\n      0xffffffffffffffffffffffffffffffffffffffff\n        /* \"#utility.yul\":404:409   */\n      dup3\n        /* \"#utility.yul\":400:454   */\n      and\n        /* \"#utility.yul\":389:454   */\n      swap1\n      pop\n        /* \"#utility.yul\":334:460   */\n      swap2\n      swap1\n      pop\n      jump\t// out\n        /* \"#utility.yul\":466:562   */\n    tag_85:\n        /* \"#utility.yul\":503:510   */\n      0x00\n        /* \"#utility.yul\":532:556   */\n      tag_124\n        /* \"#utility.yul\":550:555   */\n      dup3\n        /* \"#utility.yul\":532:556   */\n      tag_84\n      jump\t// in\n    tag_124:\n        /* \"#utility.yul\":521:556   */\n      swap1\n      pop\n        /* \"#utility.yul\":466:562   */\n      swap2\n      swap1\n      pop\n      jump\t// out\n        /* \"#utility.yul\":568:690   */\n    tag_86:\n        /* \"#utility.yul\":641:665   */\n      tag_126\n        /* \"#utility.yul\":659:664   */\n      dup2\n        /* \"#utility.yul\":641:665   */\n      tag_85\n      jump\t// in\n    tag_126:\n        /* \"#utility.yul\":634:639   */\n      dup2\n        /* \"#utility.yul\":631:666   */\n      eq\n        /* \"#utility.yul\":621:684   */\n      tag_127\n      jumpi\n        /* \"#utility.yul\":680:681   */\n      0x00\n        /* \"#utility.yul\":677:678   */\n      dup1\n        /* \"#utility.yul\":670:682   */\n      revert\n        /* \"#utility.yul\":621:684   */\n    tag_127:\n        /* \"#utility.yul\":568:690   */\n      pop\n      jump\t// out\n        /* \"#utility.yul\":696:835   */\n    tag_87:\n        /* \"#utility.yul\":742:747   */\n      0x00\n        /* \"#utility.yul\":780:786   */\n      dup2\n        /* \"#utility.yul\":767:787   */\n      calldataload\n        /* \"#utility.yul\":758:787   */\n      swap1\n      pop\n        /* \"#utility.yul\":796:829   */\n      tag_129\n        /* \"#utility.yul\":823:828   */\n      dup2\n        /* \"#utility.yul\":796:829   */\n      tag_86\n      jump\t// in\n    tag_129:\n        /* \"#utility.yul\":696:835   */\n      swap3\n      swap2\n      pop\n      pop\n      jump\t// out\n        /* \"#utility.yul\":841:1170   */\n    tag_7:\n        /* \"#utility.yul\":900:906   */\n      0x00\n        /* \"#utility.yul\":949:951   */\n      0x20\n        /* \"#utility.yul\":937:946   */\n      dup3\n        /* \"#utility.yul\":928:935   */\n      dup5\n        /* \"#utility.yul\":924:947   */\n      sub\n        /* \"#utility.yul\":920:952   */\n      slt\n        /* \"#utility.yul\":917:1036   */\n      iszero\n      tag_131\n      jumpi\n        /* \"#utility.yul\":955:1034   */\n      tag_132\n      tag_82\n      jump\t// in\n    tag_132:\n        /* \"#utility.yul\":917:1036   */\n    tag_131:\n        /* \"#utility.yul\":1075:1076   */\n      0x00\n        /* \"#utility.yul\":1100:1153   */\n      tag_133\n        /* \"#utility.yul\":1145:1152   */\n      dup5\n        /* \"#utility.yul\":1136:1142   */\n      dup3\n        /* \"#utility.yul\":1125:1134   */\n      dup6\n        /* \"#utility.yul\":1121:1143   */\n      add\n        /* \"#utility.yul\":1100:1153   */\n      tag_87\n      jump\t// in\n    tag_133:\n        /* \"#utility.yul\":1090:1153   */\n      swap2\n      pop\n        /* \"#utility.yul\":1046:1163   */\n      pop\n        /* \"#utility.yul\":841:1170   */\n      swap3\n      swap2\n      pop\n      pop\n      jump\t// out\n        /* \"#utility.yul\":1176:1285   */\n    tag_88:\n        /* \"#utility.yul\":1226:1233   */\n      0x00\n        /* \"#utility.yul\":1255:1279   */\n      tag_135\n        /* \"#utility.yul\":1273:1278   */\n      dup3\n        /* \"#utility.yul\":1255:1279   */\n      tag_85\n      jump\t// in\n    tag_135:\n        /* \"#utility.yul\":1244:1279   */\n      swap1\n      pop\n        /* \"#utility.yul\":1176:1285   */\n      swap2\n      swap1\n      pop\n      jump\t// out\n        /* \"#utility.yul\":1291:1439   */\n    tag_89:\n        /* \"#utility.yul\":1377:1414   */\n      tag_137\n        /* \"#utility.yul\":1408:1413   */\n      dup2\n        /* \"#utility.yul\":1377:1414   */\n      tag_88\n      jump\t// in\n    tag_137:\n        /* \"#utility.yul\":1370:1375   */\n      dup2\n        /* \"#utility.yul\":1367:1415   */\n      eq\n        /* \"#utility.yul\":1357:1433   */\n      tag_138\n      jumpi\n        /* \"#utility.yul\":1429:1430   */\n      0x00\n        /* \"#utility.yul\":1426:1427   */\n      dup1\n        /* \"#utility.yul\":1419:1431   */\n      revert\n        /* \"#utility.yul\":1357:1433   */\n    tag_138:\n        /* \"#utility.yul\":1291:1439   */\n      pop\n      jump\t// out\n        /* \"#utility.yul\":1445:1610   */\n    tag_90:\n        /* \"#utility.yul\":1504:1509   */\n      0x00\n        /* \"#utility.yul\":1542:1548   */\n      dup2\n        /* \"#utility.yul\":1529:1549   */\n      calldataload\n        /* \"#utility.yul\":1520:1549   */\n      swap1\n      pop\n        /* \"#utility.yul\":1558:1604   */\n      tag_140\n        /* \"#utility.yul\":1598:1603   */\n      dup2\n        /* \"#utility.yul\":1558:1604   */\n      tag_89\n      jump\t// in\n    tag_140:\n        /* \"#utility.yul\":1445:1610   */\n      swap3\n      swap2\n      pop\n      pop\n      jump\t// out\n        /* \"#utility.yul\":1616:1693   */\n    tag_91:\n        /* \"#utility.yul\":1653:1660   */\n      0x00\n        /* \"#utility.yul\":1682:1687   */\n      dup2\n        /* \"#utility.yul\":1671:1687   */\n      swap1\n      pop\n        /* \"#utility.yul\":1616:1693   */\n      swap2\n      swap1\n      pop\n      jump\t// out\n        /* \"#utility.yul\":1699:1821   */\n    tag_92:\n        /* \"#utility.yul\":1772:1796   */\n      tag_143\n        /* \"#utility.yul\":1790:1795   */\n      dup2\n        /* \"#utility.yul\":1772:1796   */\n      tag_91\n      jump\t// in\n    tag_143:\n        /* \"#utility.yul\":1765:1770   */\n      dup2\n        /* \"#utility.yul\":1762:1797   */\n      eq\n        /* \"#utility.yul\":1752:1815   */\n      tag_144\n      jumpi\n        /* \"#utility.yul\":1811:1812   */\n      0x00\n        /* \"#utility.yul\":1808:1809   */\n      dup1\n        /* \"#utility.yul\":1801:1813   */\n      revert\n        /* \"#utility.yul\":1752:1815   */\n    tag_144:\n        /* \"#utility.yul\":1699:1821   */\n      pop\n      jump\t// out\n        /* \"#utility.yul\":1827:1966   */\n    tag_93:\n        /* \"#utility.yul\":1873:1878   */\n      0x00\n        /* \"#utility.yul\":1911:1917   */\n      dup2\n        /* \"#utility.yul\":1898:1918   */\n      calldataload\n        /* \"#utility.yul\":1889:1918   */\n      swap1\n      pop\n        /* \"#utility.yul\":1927:1960   */\n      tag_146\n        /* \"#utility.yul\":1954:1959   */\n      dup2\n        /* \"#utility.yul\":1927:1960   */\n      tag_92\n      jump\t// in\n    tag_146:\n        /* \"#utility.yul\":1827:1966   */\n      swap3\n      swap2\n      pop\n      pop\n      jump\t// out\n        /* \"#utility.yul\":1972:2472   */\n    tag_11:\n        /* \"#utility.yul\":2053:2059   */\n      0x00\n        /* \"#utility.yul\":2061:2067   */\n      dup1\n        /* \"#utility.yul\":2110:2112   */\n      0x40\n        /* \"#utility.yul\":2098:2107   */\n      dup4\n        /* \"#utility.yul\":2089:2096   */\n      dup6\n        /* \"#utility.yul\":2085:2108   */\n      sub\n        /* \"#utility.yul\":2081:2113   */\n      slt\n        /* \"#utility.yul\":2078:2197   */\n      iszero\n      tag_148\n      jumpi\n        /* \"#utility.yul\":2116:2195   */\n      tag_149\n      tag_82\n      jump\t// in\n    tag_149:\n        /* \"#utility.yul\":2078:2197   */\n    tag_148:\n        /* \"#utility.yul\":2236:2237   */\n      0x00\n        /* \"#utility.yul\":2261:2327   */\n      tag_150\n        /* \"#utility.yul\":2319:2326   */\n      dup6\n        /* \"#utility.yul\":2310:2316   */\n      dup3\n        /* \"#utility.yul\":2299:2308   */\n      dup7\n        /* \"#utility.yul\":2295:2317   */\n      add\n        /* \"#utility.yul\":2261:2327   */\n      tag_90\n      jump\t// in\n    tag_150:\n        /* \"#utility.yul\":2251:2327   */\n      swap3\n      pop\n        /* \"#utility.yul\":2207:2337   */\n      pop\n        /* \"#utility.yul\":2376:2378   */\n      0x20\n        /* \"#utility.yul\":2402:2455   */\n      tag_151\n        /* \"#utility.yul\":2447:2454   */\n      dup6\n        /* \"#utility.yul\":2438:2444   */\n      dup3\n        /* \"#utility.yul\":2427:2436   */\n      dup7\n        /* \"#utility.yul\":2423:2445   */\n      add\n        /* \"#utility.yul\":2402:2455   */\n      tag_93\n      jump\t// in\n    tag_151:\n        /* \"#utility.yul\":2392:2455   */\n      swap2\n      pop\n        /* \"#utility.yul\":2347:2465   */\n      pop\n        /* \"#utility.yul\":1972:2472   */\n      swap3\n      pop\n      swap3\n      swap1\n      pop\n      jump\t// out\n        /* \"#utility.yul\":2478:2647   */\n    tag_94:\n        /* \"#utility.yul\":2562:2573   */\n      0x00\n        /* \"#utility.yul\":2596:2602   */\n      dup3\n        /* \"#utility.yul\":2591:2594   */\n      dup3\n        /* \"#utility.yul\":2584:2603   */\n      mstore\n        /* \"#utility.yul\":2636:2640   */\n      0x20\n        /* \"#utility.yul\":2631:2634   */\n      dup3\n        /* \"#utility.yul\":2627:2641   */\n      add\n        /* \"#utility.yul\":2612:2641   */\n      swap1\n      pop\n        /* \"#utility.yul\":2478:2647   */\n      swap3\n      swap2\n      pop\n      pop\n      jump\t// out\n        /* \"#utility.yul\":2653:2819   */\n    tag_95:\n        /* \"#utility.yul\":2793:2811   */\n      0x496e737566666963656e742046756e6400000000000000000000000000000000\n        /* \"#utility.yul\":2789:2790   */\n      0x00\n        /* \"#utility.yul\":2781:2787   */\n      dup3\n        /* \"#utility.yul\":2777:2791   */\n      add\n        /* \"#utility.yul\":2770:2812   */\n      mstore\n        /* \"#utility.yul\":2653:2819   */\n      pop\n      jump\t// out\n        /* \"#utility.yul\":2825:3191   */\n    tag_96:\n        /* \"#utility.yul\":2967:2970   */\n      0x00\n        /* \"#utility.yul\":2988:3055   */\n      tag_155\n        /* \"#utility.yul\":3052:3054   */\n      0x10\n        /* \"#utility.yul\":3047:3050   */\n      dup4\n        /* \"#utility.yul\":2988:3055   */\n      tag_94\n      jump\t// in\n    tag_155:\n        /* \"#utility.yul\":2981:3055   */\n      swap2\n      pop\n        /* \"#utility.yul\":3064:3157   */\n      tag_156\n        /* \"#utility.yul\":3153:3156   */\n      dup3\n        /* \"#utility.yul\":3064:3157   */\n      tag_95\n      jump\t// in\n    tag_156:\n        /* \"#utility.yul\":3182:3184   */\n      0x20\n        /* \"#utility.yul\":3177:3180   */\n      dup3\n        /* \"#utility.yul\":3173:3185   */\n      add\n        /* \"#utility.yul\":3166:3185   */\n      swap1\n      pop\n        /* \"#utility.yul\":2825:3191   */\n      swap2\n      swap1\n      pop\n      jump\t// out\n        /* \"#utility.yul\":3197:3616   */\n    tag_19:\n        /* \"#utility.yul\":3363:3367   */\n      0x00\n        /* \"#utility.yul\":3401:3403   */\n      0x20\n        /* \"#utility.yul\":3390:3399   */\n      dup3\n        /* \"#utility.yul\":3386:3404   */\n      add\n        /* \"#utility.yul\":3378:3404   */\n      swap1\n      pop\n        /* \"#utility.yul\":3450:3459   */\n      dup2\n        /* \"#utility.yul\":3444:3448   */\n      dup2\n        /* \"#utility.yul\":3440:3460   */\n      sub\n        /* \"#utility.yul\":3436:3437   */\n      0x00\n        /* \"#utility.yul\":3425:3434   */\n      dup4\n        /* \"#utility.yul\":3421:3438   */\n      add\n        /* \"#utility.yul\":3414:3461   */\n      mstore\n        /* \"#utility.yul\":3478:3609   */\n      tag_158\n        /* \"#utility.yul\":3604:3608   */\n      dup2\n        /* \"#utility.yul\":3478:3609   */\n      tag_96\n      jump\t// in\n    tag_158:\n        /* \"#utility.yul\":3470:3609   */\n      swap1\n      pop\n        /* \"#utility.yul\":3197:3616   */\n      swap2\n      swap1\n      pop\n      jump\t// out\n        /* \"#utility.yul\":3622:3740   */\n    tag_97:\n        /* \"#utility.yul\":3709:3733   */\n      tag_160\n        /* \"#utility.yul\":3727:3732   */\n      dup2\n        /* \"#utility.yul\":3709:3733   */\n      tag_85\n      jump\t// in\n    tag_160:\n        /* \"#utility.yul\":3704:3707   */\n      dup3\n        /* \"#utility.yul\":3697:3734   */\n      mstore\n        /* \"#utility.yul\":3622:3740   */\n      pop\n      pop\n      jump\t// out\n        /* \"#utility.yul\":3746:4078   */\n    tag_25:\n        /* \"#utility.yul\":3867:3871   */\n      0x00\n        /* \"#utility.yul\":3905:3907   */\n      0x40\n        /* \"#utility.yul\":3894:3903   */\n      dup3\n        /* \"#utility.yul\":3890:3908   */\n      add\n        /* \"#utility.yul\":3882:3908   */\n      swap1\n      pop\n        /* \"#utility.yul\":3918:3989   */\n      tag_162\n        /* \"#utility.yul\":3986:3987   */\n      0x00\n        /* \"#utility.yul\":3975:3984   */\n      dup4\n        /* \"#utility.yul\":3971:3988   */\n      add\n        /* \"#utility.yul\":3962:3968   */\n      dup6\n        /* \"#utility.yul\":3918:3989   */\n      tag_97\n      jump\t// in\n    tag_162:\n        /* \"#utility.yul\":3999:4071   */\n      tag_163\n        /* \"#utility.yul\":4067:4069   */\n      0x20\n        /* \"#utility.yul\":4056:4065   */\n      dup4\n        /* \"#utility.yul\":4052:4070   */\n      add\n        /* \"#utility.yul\":4043:4049   */\n      dup5\n        /* \"#utility.yul\":3999:4071   */\n      tag_97\n      jump\t// in\n    tag_163:\n        /* \"#utility.yul\":3746:4078   */\n      swap4\n      swap3\n      pop\n      pop\n      pop\n      jump\t// out\n        /* \"#utility.yul\":4084:4227   */\n    tag_98:\n        /* \"#utility.yul\":4141:4146   */\n      0x00\n        /* \"#utility.yul\":4172:4178   */\n      dup2\n        /* \"#utility.yul\":4166:4179   */\n      mload\n        /* \"#utility.yul\":4157:4179   */\n      swap1\n      pop\n        /* \"#utility.yul\":4188:4221   */\n      tag_165\n        /* \"#utility.yul\":4215:4220   */\n      dup2\n        /* \"#utility.yul\":4188:4221   */\n      tag_92\n      jump\t// in\n    tag_165:\n        /* \"#utility.yul\":4084:4227   */\n      swap3\n      swap2\n      pop\n      pop\n      jump\t// out\n        /* \"#utility.yul\":4233:4584   */\n    tag_29:\n        /* \"#utility.yul\":4303:4309   */\n      0x00\n        /* \"#utility.yul\":4352:4354   */\n      0x20\n        /* \"#utility.yul\":4340:4349   */\n      dup3\n        /* \"#utility.yul\":4331:4338   */\n      dup5\n        /* \"#utility.yul\":4327:4350   */\n      sub\n        /* \"#utility.yul\":4323:4355   */\n      slt\n        /* \"#utility.yul\":4320:4439   */\n      iszero\n      tag_167\n      jumpi\n        /* \"#utility.yul\":4358:4437   */\n      tag_168\n      tag_82\n      jump\t// in\n    tag_168:\n        /* \"#utility.yul\":4320:4439   */\n    tag_167:\n        /* \"#utility.yul\":4478:4479   */\n      0x00\n        /* \"#utility.yul\":4503:4567   */\n      tag_169\n        /* \"#utility.yul\":4559:4566   */\n      dup5\n        /* \"#utility.yul\":4550:4556   */\n      dup3\n        /* \"#utility.yul\":4539:4548   */\n      dup6\n        /* \"#utility.yul\":4535:4557   */\n      add\n        /* \"#utility.yul\":4503:4567   */\n      tag_98\n      jump\t// in\n    tag_169:\n        /* \"#utility.yul\":4493:4567   */\n      swap2\n      pop\n        /* \"#utility.yul\":4449:4577   */\n      pop\n        /* \"#utility.yul\":4233:4584   */\n      swap3\n      swap2\n      pop\n      pop\n      jump\t// out\n        /* \"#utility.yul\":4590:4831   */\n    tag_99:\n        /* \"#utility.yul\":4730:4764   */\n      0x5361666545524332303a20617070726f76652066726f6d206e6f6e2d7a65726f\n        /* \"#utility.yul\":4726:4727   */\n      0x00\n        /* \"#utility.yul\":4718:4724   */\n      dup3\n        /* \"#utility.yul\":4714:4728   */\n      add\n        /* \"#utility.yul\":4707:4765   */\n      mstore\n        /* \"#utility.yul\":4799:4823   */\n      0x20746f206e6f6e2d7a65726f20616c6c6f77616e636500000000000000000000\n        /* \"#utility.yul\":4794:4796   */\n      0x20\n        /* \"#utility.yul\":4786:4792   */\n      dup3\n        /* \"#utility.yul\":4782:4797   */\n      add\n        /* \"#utility.yul\":4775:4824   */\n      mstore\n        /* \"#utility.yul\":4590:4831   */\n      pop\n      jump\t// out\n        /* \"#utility.yul\":4837:5203   */\n    tag_100:\n        /* \"#utility.yul\":4979:4982   */\n      0x00\n        /* \"#utility.yul\":5000:5067   */\n      tag_172\n        /* \"#utility.yul\":5064:5066   */\n      0x36\n        /* \"#utility.yul\":5059:5062   */\n      dup4\n        /* \"#utility.yul\":5000:5067   */\n      tag_94\n      jump\t// in\n    tag_172:\n        /* \"#utility.yul\":4993:5067   */\n      swap2\n      pop\n        /* \"#utility.yul\":5076:5169   */\n      tag_173\n        /* \"#utility.yul\":5165:5168   */\n      dup3\n        /* \"#utility.yul\":5076:5169   */\n      tag_99\n      jump\t// in\n    tag_173:\n        /* \"#utility.yul\":5194:5196   */\n      0x40\n        /* \"#utility.yul\":5189:5192   */\n      dup3\n        /* \"#utility.yul\":5185:5197   */\n      add\n        /* \"#utility.yul\":5178:5197   */\n      swap1\n      pop\n        /* \"#utility.yul\":4837:5203   */\n      swap2\n      swap1\n      pop\n      jump\t// out\n        /* \"#utility.yul\":5209:5628   */\n    tag_32:\n        /* \"#utility.yul\":5375:5379   */\n      0x00\n        /* \"#utility.yul\":5413:5415   */\n      0x20\n        /* \"#utility.yul\":5402:5411   */\n      dup3\n        /* \"#utility.yul\":5398:5416   */\n      add\n        /* \"#utility.yul\":5390:5416   */\n      swap1\n      pop\n        /* \"#utility.yul\":5462:5471   */\n      dup2\n        /* \"#utility.yul\":5456:5460   */\n      dup2\n        /* \"#utility.yul\":5452:5472   */\n      sub\n        /* \"#utility.yul\":5448:5449   */\n      0x00\n        /* \"#utility.yul\":5437:5446   */\n      dup4\n        /* \"#utility.yul\":5433:5450   */\n      add\n        /* \"#utility.yul\":5426:5473   */\n      mstore\n        /* \"#utility.yul\":5490:5621   */\n      tag_175\n        /* \"#utility.yul\":5616:5620   */\n      dup2\n        /* \"#utility.yul\":5490:5621   */\n      tag_100\n      jump\t// in\n    tag_175:\n        /* \"#utility.yul\":5482:5621   */\n      swap1\n      pop\n        /* \"#utility.yul\":5209:5628   */\n      swap2\n      swap1\n      pop\n      jump\t// out\n        /* \"#utility.yul\":5634:5752   */\n    tag_101:\n        /* \"#utility.yul\":5721:5745   */\n      tag_177\n        /* \"#utility.yul\":5739:5744   */\n      dup2\n        /* \"#utility.yul\":5721:5745   */\n      tag_91\n      jump\t// in\n    tag_177:\n        /* \"#utility.yul\":5716:5719   */\n      dup3\n        /* \"#utility.yul\":5709:5746   */\n      mstore\n        /* \"#utility.yul\":5634:5752   */\n      pop\n      pop\n      jump\t// out\n        /* \"#utility.yul\":5758:6090   */\n    tag_35:\n        /* \"#utility.yul\":5879:5883   */\n      0x00\n        /* \"#utility.yul\":5917:5919   */\n      0x40\n        /* \"#utility.yul\":5906:5915   */\n      dup3\n        /* \"#utility.yul\":5902:5920   */\n      add\n        /* \"#utility.yul\":5894:5920   */\n      swap1\n      pop\n        /* \"#utility.yul\":5930:6001   */\n      tag_179\n        /* \"#utility.yul\":5998:5999   */\n      0x00\n        /* \"#utility.yul\":5987:5996   */\n      dup4\n        /* \"#utility.yul\":5983:6000   */\n      add\n        /* \"#utility.yul\":5974:5980   */\n      dup6\n        /* \"#utility.yul\":5930:6001   */\n      tag_97\n      jump\t// in\n    tag_179:\n        /* \"#utility.yul\":6011:6083   */\n      tag_180\n        /* \"#utility.yul\":6079:6081   */\n      0x20\n        /* \"#utility.yul\":6068:6077   */\n      dup4\n        /* \"#utility.yul\":6064:6082   */\n      add\n        /* \"#utility.yul\":6055:6061   */\n      dup5\n        /* \"#utility.yul\":6011:6083   */\n      tag_101\n      jump\t// in\n    tag_180:\n        /* \"#utility.yul\":5758:6090   */\n      swap4\n      swap3\n      pop\n      pop\n      pop\n      jump\t// out\n        /* \"#utility.yul\":6096:6538   */\n    tag_40:\n        /* \"#utility.yul\":6245:6249   */\n      0x00\n        /* \"#utility.yul\":6283:6285   */\n      0x60\n        /* \"#utility.yul\":6272:6281   */\n      dup3\n        /* \"#utility.yul\":6268:6286   */\n      add\n        /* \"#utility.yul\":6260:6286   */\n      swap1\n      pop\n        /* \"#utility.yul\":6296:6367   */\n      tag_182\n        /* \"#utility.yul\":6364:6365   */\n      0x00\n        /* \"#utility.yul\":6353:6362   */\n      dup4\n        /* \"#utility.yul\":6349:6366   */\n      add\n        /* \"#utility.yul\":6340:6346   */\n      dup7\n        /* \"#utility.yul\":6296:6367   */\n      tag_97\n      jump\t// in\n    tag_182:\n        /* \"#utility.yul\":6377:6449   */\n      tag_183\n        /* \"#utility.yul\":6445:6447   */\n      0x20\n        /* \"#utility.yul\":6434:6443   */\n      dup4\n        /* \"#utility.yul\":6430:6448   */\n      add\n        /* \"#utility.yul\":6421:6427   */\n      dup6\n        /* \"#utility.yul\":6377:6449   */\n      tag_97\n      jump\t// in\n    tag_183:\n        /* \"#utility.yul\":6459:6531   */\n      tag_184\n        /* \"#utility.yul\":6527:6529   */\n      0x40\n        /* \"#utility.yul\":6516:6525   */\n      dup4\n        /* \"#utility.yul\":6512:6530   */\n      add\n        /* \"#utility.yul\":6503:6509   */\n      dup5\n        /* \"#utility.yul\":6459:6531   */\n      tag_101\n      jump\t// in\n    tag_184:\n        /* \"#utility.yul\":6096:6538   */\n      swap5\n      swap4\n      pop\n      pop\n      pop\n      pop\n      jump\t// out\n        /* \"#utility.yul\":6544:6634   */\n    tag_102:\n        /* \"#utility.yul\":6578:6585   */\n      0x00\n        /* \"#utility.yul\":6621:6626   */\n      dup2\n        /* \"#utility.yul\":6614:6627   */\n      iszero\n        /* \"#utility.yul\":6607:6628   */\n      iszero\n        /* \"#utility.yul\":6596:6628   */\n      swap1\n      pop\n        /* \"#utility.yul\":6544:6634   */\n      swap2\n      swap1\n      pop\n      jump\t// out\n        /* \"#utility.yul\":6640:6756   */\n    tag_103:\n        /* \"#utility.yul\":6710:6731   */\n      tag_187\n        /* \"#utility.yul\":6725:6730   */\n      dup2\n        /* \"#utility.yul\":6710:6731   */\n      tag_102\n      jump\t// in\n    tag_187:\n        /* \"#utility.yul\":6703:6708   */\n      dup2\n        /* \"#utility.yul\":6700:6732   */\n      eq\n        /* \"#utility.yul\":6690:6750   */\n      tag_188\n      jumpi\n        /* \"#utility.yul\":6746:6747   */\n      0x00\n        /* \"#utility.yul\":6743:6744   */\n      dup1\n        /* \"#utility.yul\":6736:6748   */\n      revert\n        /* \"#utility.yul\":6690:6750   */\n    tag_188:\n        /* \"#utility.yul\":6640:6756   */\n      pop\n      jump\t// out\n        /* \"#utility.yul\":6762:6899   */\n    tag_104:\n        /* \"#utility.yul\":6816:6821   */\n      0x00\n        /* \"#utility.yul\":6847:6853   */\n      dup2\n        /* \"#utility.yul\":6841:6854   */\n      mload\n        /* \"#utility.yul\":6832:6854   */\n      swap1\n      pop\n        /* \"#utility.yul\":6863:6893   */\n      tag_190\n        /* \"#utility.yul\":6887:6892   */\n      dup2\n        /* \"#utility.yul\":6863:6893   */\n      tag_103\n      jump\t// in\n    tag_190:\n        /* \"#utility.yul\":6762:6899   */\n      swap3\n      swap2\n      pop\n      pop\n      jump\t// out\n        /* \"#utility.yul\":6905:7250   */\n    tag_46:\n        /* \"#utility.yul\":6972:6978   */\n      0x00\n        /* \"#utility.yul\":7021:7023   */\n      0x20\n        /* \"#utility.yul\":7009:7018   */\n      dup3\n        /* \"#utility.yul\":7000:7007   */\n      dup5\n        /* \"#utility.yul\":6996:7019   */\n      sub\n        /* \"#utility.yul\":6992:7024   */\n      slt\n        /* \"#utility.yul\":6989:7108   */\n      iszero\n      tag_192\n      jumpi\n        /* \"#utility.yul\":7027:7106   */\n      tag_193\n      tag_82\n      jump\t// in\n    tag_193:\n        /* \"#utility.yul\":6989:7108   */\n    tag_192:\n        /* \"#utility.yul\":7147:7148   */\n      0x00\n        /* \"#utility.yul\":7172:7233   */\n      tag_194\n        /* \"#utility.yul\":7225:7232   */\n      dup5\n        /* \"#utility.yul\":7216:7222   */\n      dup3\n        /* \"#utility.yul\":7205:7214   */\n      dup6\n        /* \"#utility.yul\":7201:7223   */\n      add\n        /* \"#utility.yul\":7172:7233   */\n      tag_104\n      jump\t// in\n    tag_194:\n        /* \"#utility.yul\":7162:7233   */\n      swap2\n      pop\n        /* \"#utility.yul\":7118:7243   */\n      pop\n        /* \"#utility.yul\":6905:7250   */\n      swap3\n      swap2\n      pop\n      pop\n      jump\t// out\n        /* \"#utility.yul\":7256:7485   */\n    tag_105:\n        /* \"#utility.yul\":7396:7430   */\n      0x5361666545524332303a204552433230206f7065726174696f6e20646964206e\n        /* \"#utility.yul\":7392:7393   */\n      0x00\n        /* \"#utility.yul\":7384:7390   */\n      dup3\n        /* \"#utility.yul\":7380:7394   */\n      add\n        /* \"#utility.yul\":7373:7431   */\n      mstore\n        /* \"#utility.yul\":7465:7477   */\n      0x6f74207375636365656400000000000000000000000000000000000000000000\n        /* \"#utility.yul\":7460:7462   */\n      0x20\n        /* \"#utility.yul\":7452:7458   */\n      dup3\n        /* \"#utility.yul\":7448:7463   */\n      add\n        /* \"#utility.yul\":7441:7478   */\n      mstore\n        /* \"#utility.yul\":7256:7485   */\n      pop\n      jump\t// out\n        /* \"#utility.yul\":7491:7857   */\n    tag_106:\n        /* \"#utility.yul\":7633:7636   */\n      0x00\n        /* \"#utility.yul\":7654:7721   */\n      tag_197\n        /* \"#utility.yul\":7718:7720   */\n      0x2a\n        /* \"#utility.yul\":7713:7716   */\n      dup4\n        /* \"#utility.yul\":7654:7721   */\n      tag_94\n      jump\t// in\n    tag_197:\n        /* \"#utility.yul\":7647:7721   */\n      swap2\n      pop\n        /* \"#utility.yul\":7730:7823   */\n      tag_198\n        /* \"#utility.yul\":7819:7822   */\n      dup3\n        /* \"#utility.yul\":7730:7823   */\n      tag_105\n      jump\t// in\n    tag_198:\n        /* \"#utility.yul\":7848:7850   */\n      0x40\n        /* \"#utility.yul\":7843:7846   */\n      dup3\n        /* \"#utility.yul\":7839:7851   */\n      add\n        /* \"#utility.yul\":7832:7851   */\n      swap1\n      pop\n        /* \"#utility.yul\":7491:7857   */\n      swap2\n      swap1\n      pop\n      jump\t// out\n        /* \"#utility.yul\":7863:8282   */\n    tag_49:\n        /* \"#utility.yul\":8029:8033   */\n      0x00\n        /* \"#utility.yul\":8067:8069   */\n      0x20\n        /* \"#utility.yul\":8056:8065   */\n      dup3\n        /* \"#utility.yul\":8052:8070   */\n      add\n        /* \"#utility.yul\":8044:8070   */\n      swap1\n      pop\n        /* \"#utility.yul\":8116:8125   */\n      dup2\n        /* \"#utility.yul\":8110:8114   */\n      dup2\n        /* \"#utility.yul\":8106:8126   */\n      sub\n        /* \"#utility.yul\":8102:8103   */\n      0x00\n        /* \"#utility.yul\":8091:8100   */\n      dup4\n        /* \"#utility.yul\":8087:8104   */\n      add\n        /* \"#utility.yul\":8080:8127   */\n      mstore\n        /* \"#utility.yul\":8144:8275   */\n      tag_200\n        /* \"#utility.yul\":8270:8274   */\n      dup2\n        /* \"#utility.yul\":8144:8275   */\n      tag_106\n      jump\t// in\n    tag_200:\n        /* \"#utility.yul\":8136:8275   */\n      swap1\n      pop\n        /* \"#utility.yul\":7863:8282   */\n      swap2\n      swap1\n      pop\n      jump\t// out\n        /* \"#utility.yul\":8288:8513   */\n    tag_107:\n        /* \"#utility.yul\":8428:8462   */\n      0x416464726573733a20696e73756666696369656e742062616c616e636520666f\n        /* \"#utility.yul\":8424:8425   */\n      0x00\n        /* \"#utility.yul\":8416:8422   */\n      dup3\n        /* \"#utility.yul\":8412:8426   */\n      add\n        /* \"#utility.yul\":8405:8463   */\n      mstore\n        /* \"#utility.yul\":8497:8505   */\n      0x722063616c6c0000000000000000000000000000000000000000000000000000\n        /* \"#utility.yul\":8492:8494   */\n      0x20\n        /* \"#utility.yul\":8484:8490   */\n      dup3\n        /* \"#utility.yul\":8480:8495   */\n      add\n        /* \"#utility.yul\":8473:8506   */\n      mstore\n        /* \"#utility.yul\":8288:8513   */\n      pop\n      jump\t// out\n        /* \"#utility.yul\":8519:8885   */\n    tag_108:\n        /* \"#utility.yul\":8661:8664   */\n      0x00\n        /* \"#utility.yul\":8682:8749   */\n      tag_203\n        /* \"#utility.yul\":8746:8748   */\n      0x26\n        /* \"#utility.yul\":8741:8744   */\n      dup4\n        /* \"#utility.yul\":8682:8749   */\n      tag_94\n      jump\t// in\n    tag_203:\n        /* \"#utility.yul\":8675:8749   */\n      swap2\n      pop\n        /* \"#utility.yul\":8758:8851   */\n      tag_204\n        /* \"#utility.yul\":8847:8850   */\n      dup3\n        /* \"#utility.yul\":8758:8851   */\n      tag_107\n      jump\t// in\n    tag_204:\n        /* \"#utility.yul\":8876:8878   */\n      0x40\n        /* \"#utility.yul\":8871:8874   */\n      dup3\n        /* \"#utility.yul\":8867:8879   */\n      add\n        /* \"#utility.yul\":8860:8879   */\n      swap1\n      pop\n        /* \"#utility.yul\":8519:8885   */\n      swap2\n      swap1\n      pop\n      jump\t// out\n        /* \"#utility.yul\":8891:9310   */\n    tag_56:\n        /* \"#utility.yul\":9057:9061   */\n      0x00\n        /* \"#utility.yul\":9095:9097   */\n      0x20\n        /* \"#utility.yul\":9084:9093   */\n      dup3\n        /* \"#utility.yul\":9080:9098   */\n      add\n        /* \"#utility.yul\":9072:9098   */\n      swap1\n      pop\n        /* \"#utility.yul\":9144:9153   */\n      dup2\n        /* \"#utility.yul\":9138:9142   */\n      dup2\n        /* \"#utility.yul\":9134:9154   */\n      sub\n        /* \"#utility.yul\":9130:9131   */\n      0x00\n        /* \"#utility.yul\":9119:9128   */\n      dup4\n        /* \"#utility.yul\":9115:9132   */\n      add\n        /* \"#utility.yul\":9108:9155   */\n      mstore\n        /* \"#utility.yul\":9172:9303   */\n      tag_206\n        /* \"#utility.yul\":9298:9302   */\n      dup2\n        /* \"#utility.yul\":9172:9303   */\n      tag_108\n      jump\t// in\n    tag_206:\n        /* \"#utility.yul\":9164:9303   */\n      swap1\n      pop\n        /* \"#utility.yul\":8891:9310   */\n      swap2\n      swap1\n      pop\n      jump\t// out\n        /* \"#utility.yul\":9316:9414   */\n    tag_109:\n        /* \"#utility.yul\":9367:9373   */\n      0x00\n        /* \"#utility.yul\":9401:9406   */\n      dup2\n        /* \"#utility.yul\":9395:9407   */\n      mload\n        /* \"#utility.yul\":9385:9407   */\n      swap1\n      pop\n        /* \"#utility.yul\":9316:9414   */\n      swap2\n      swap1\n      pop\n      jump\t// out\n        /* \"#utility.yul\":9420:9567   */\n    tag_110:\n        /* \"#utility.yul\":9521:9532   */\n      0x00\n        /* \"#utility.yul\":9558:9561   */\n      dup2\n        /* \"#utility.yul\":9543:9561   */\n      swap1\n      pop\n        /* \"#utility.yul\":9420:9567   */\n      swap3\n      swap2\n      pop\n      pop\n      jump\t// out\n        /* \"#utility.yul\":9573:9819   */\n    tag_111:\n        /* \"#utility.yul\":9654:9655   */\n      0x00\n        /* \"#utility.yul\":9664:9777   */\n    tag_210:\n        /* \"#utility.yul\":9678:9684   */\n      dup4\n        /* \"#utility.yul\":9675:9676   */\n      dup2\n        /* \"#utility.yul\":9672:9685   */\n      lt\n        /* \"#utility.yul\":9664:9777   */\n      iszero\n      tag_212\n      jumpi\n        /* \"#utility.yul\":9763:9764   */\n      dup1\n        /* \"#utility.yul\":9758:9761   */\n      dup3\n        /* \"#utility.yul\":9754:9765   */\n      add\n        /* \"#utility.yul\":9748:9766   */\n      mload\n        /* \"#utility.yul\":9744:9745   */\n      dup2\n        /* \"#utility.yul\":9739:9742   */\n      dup5\n        /* \"#utility.yul\":9735:9746   */\n      add\n        /* \"#utility.yul\":9728:9767   */\n      mstore\n        /* \"#utility.yul\":9700:9702   */\n      0x20\n        /* \"#utility.yul\":9697:9698   */\n      dup2\n        /* \"#utility.yul\":9693:9703   */\n      add\n        /* \"#utility.yul\":9688:9703   */\n      swap1\n      pop\n        /* \"#utility.yul\":9664:9777   */\n      jump(tag_210)\n    tag_212:\n        /* \"#utility.yul\":9811:9812   */\n      0x00\n        /* \"#utility.yul\":9802:9808   */\n      dup5\n        /* \"#utility.yul\":9797:9800   */\n      dup5\n        /* \"#utility.yul\":9793:9809   */\n      add\n        /* \"#utility.yul\":9786:9813   */\n      mstore\n        /* \"#utility.yul\":9635:9819   */\n      pop\n        /* \"#utility.yul\":9573:9819   */\n      pop\n      pop\n      pop\n      jump\t// out\n        /* \"#utility.yul\":9825:10211   */\n    tag_112:\n        /* \"#utility.yul\":9929:9932   */\n      0x00\n        /* \"#utility.yul\":9957:9995   */\n      tag_214\n        /* \"#utility.yul\":9989:9994   */\n      dup3\n        /* \"#utility.yul\":9957:9995   */\n      tag_109\n      jump\t// in\n    tag_214:\n        /* \"#utility.yul\":10011:10099   */\n      tag_215\n        /* \"#utility.yul\":10092:10098   */\n      dup2\n        /* \"#utility.yul\":10087:10090   */\n      dup6\n        /* \"#utility.yul\":10011:10099   */\n      tag_110\n      jump\t// in\n    tag_215:\n        /* \"#utility.yul\":10004:10099   */\n      swap4\n      pop\n        /* \"#utility.yul\":10108:10173   */\n      tag_216\n        /* \"#utility.yul\":10166:10172   */\n      dup2\n        /* \"#utility.yul\":10161:10164   */\n      dup6\n        /* \"#utility.yul\":10154:10158   */\n      0x20\n        /* \"#utility.yul\":10147:10152   */\n      dup7\n        /* \"#utility.yul\":10143:10159   */\n      add\n        /* \"#utility.yul\":10108:10173   */\n      tag_111\n      jump\t// in\n    tag_216:\n        /* \"#utility.yul\":10198:10204   */\n      dup1\n        /* \"#utility.yul\":10193:10196   */\n      dup5\n        /* \"#utility.yul\":10189:10205   */\n      add\n        /* \"#utility.yul\":10182:10205   */\n      swap2\n      pop\n        /* \"#utility.yul\":9933:10211   */\n      pop\n        /* \"#utility.yul\":9825:10211   */\n      swap3\n      swap2\n      pop\n      pop\n      jump\t// out\n        /* \"#utility.yul\":10217:10488   */\n    tag_58:\n        /* \"#utility.yul\":10347:10350   */\n      0x00\n        /* \"#utility.yul\":10369:10462   */\n      tag_218\n        /* \"#utility.yul\":10458:10461   */\n      dup3\n        /* \"#utility.yul\":10449:10455   */\n      dup5\n        /* \"#utility.yul\":10369:10462   */\n      tag_112\n      jump\t// in\n    tag_218:\n        /* \"#utility.yul\":10362:10462   */\n      swap2\n      pop\n        /* \"#utility.yul\":10479:10482   */\n      dup2\n        /* \"#utility.yul\":10472:10482   */\n      swap1\n      pop\n        /* \"#utility.yul\":10217:10488   */\n      swap3\n      swap2\n      pop\n      pop\n      jump\t// out\n        /* \"#utility.yul\":10494:10673   */\n    tag_113:\n        /* \"#utility.yul\":10634:10665   */\n      0x416464726573733a2063616c6c20746f206e6f6e2d636f6e7472616374000000\n        /* \"#utility.yul\":10630:10631   */\n      0x00\n        /* \"#utility.yul\":10622:10628   */\n      dup3\n        /* \"#utility.yul\":10618:10632   */\n      add\n        /* \"#utility.yul\":10611:10666   */\n      mstore\n        /* \"#utility.yul\":10494:10673   */\n      pop\n      jump\t// out\n        /* \"#utility.yul\":10679:11045   */\n    tag_114:\n        /* \"#utility.yul\":10821:10824   */\n      0x00\n        /* \"#utility.yul\":10842:10909   */\n      tag_221\n        /* \"#utility.yul\":10906:10908   */\n      0x1d\n        /* \"#utility.yul\":10901:10904   */\n      dup4\n        /* \"#utility.yul\":10842:10909   */\n      tag_94\n      jump\t// in\n    tag_221:\n        /* \"#utility.yul\":10835:10909   */\n      swap2\n      pop\n        /* \"#utility.yul\":10918:11011   */\n      tag_222\n        /* \"#utility.yul\":11007:11010   */\n      dup3\n        /* \"#utility.yul\":10918:11011   */\n      tag_113\n      jump\t// in\n    tag_222:\n        /* \"#utility.yul\":11036:11038   */\n      0x20\n        /* \"#utility.yul\":11031:11034   */\n      dup3\n        /* \"#utility.yul\":11027:11039   */\n      add\n        /* \"#utility.yul\":11020:11039   */\n      swap1\n      pop\n        /* \"#utility.yul\":10679:11045   */\n      swap2\n      swap1\n      pop\n      jump\t// out\n        /* \"#utility.yul\":11051:11470   */\n    tag_71:\n        /* \"#utility.yul\":11217:11221   */\n      0x00\n        /* \"#utility.yul\":11255:11257   */\n      0x20\n        /* \"#utility.yul\":11244:11253   */\n      dup3\n        /* \"#utility.yul\":11240:11258   */\n      add\n        /* \"#utility.yul\":11232:11258   */\n      swap1\n      pop\n        /* \"#utility.yul\":11304:11313   */\n      dup2\n        /* \"#utility.yul\":11298:11302   */\n      dup2\n        /* \"#utility.yul\":11294:11314   */\n      sub\n        /* \"#utility.yul\":11290:11291   */\n      0x00\n        /* \"#utility.yul\":11279:11288   */\n      dup4\n        /* \"#utility.yul\":11275:11292   */\n      add\n        /* \"#utility.yul\":11268:11315   */\n      mstore\n        /* \"#utility.yul\":11332:11463   */\n      tag_224\n        /* \"#utility.yul\":11458:11462   */\n      dup2\n        /* \"#utility.yul\":11332:11463   */\n      tag_114\n      jump\t// in\n    tag_224:\n        /* \"#utility.yul\":11324:11463   */\n      swap1\n      pop\n        /* \"#utility.yul\":11051:11470   */\n      swap2\n      swap1\n      pop\n      jump\t// out\n        /* \"#utility.yul\":11476:11575   */\n    tag_115:\n        /* \"#utility.yul\":11528:11534   */\n      0x00\n        /* \"#utility.yul\":11562:11567   */\n      dup2\n        /* \"#utility.yul\":11556:11568   */\n      mload\n        /* \"#utility.yul\":11546:11568   */\n      swap1\n      pop\n        /* \"#utility.yul\":11476:11575   */\n      swap2\n      swap1\n      pop\n      jump\t// out\n        /* \"#utility.yul\":11581:11683   */\n    tag_116:\n        /* \"#utility.yul\":11622:11628   */\n      0x00\n        /* \"#utility.yul\":11673:11675   */\n      0x1f\n        /* \"#utility.yul\":11669:11676   */\n      not\n        /* \"#utility.yul\":11664:11666   */\n      0x1f\n        /* \"#utility.yul\":11657:11662   */\n      dup4\n        /* \"#utility.yul\":11653:11667   */\n      add\n        /* \"#utility.yul\":11649:11677   */\n      and\n        /* \"#utility.yul\":11639:11677   */\n      swap1\n      pop\n        /* \"#utility.yul\":11581:11683   */\n      swap2\n      swap1\n      pop\n      jump\t// out\n        /* \"#utility.yul\":11689:12066   */\n    tag_117:\n        /* \"#utility.yul\":11777:11780   */\n      0x00\n        /* \"#utility.yul\":11805:11844   */\n      tag_228\n        /* \"#utility.yul\":11838:11843   */\n      dup3\n        /* \"#utility.yul\":11805:11844   */\n      tag_115\n      jump\t// in\n    tag_228:\n        /* \"#utility.yul\":11860:11931   */\n      tag_229\n        /* \"#utility.yul\":11924:11930   */\n      dup2\n        /* \"#utility.yul\":11919:11922   */\n      dup6\n        /* \"#utility.yul\":11860:11931   */\n      tag_94\n      jump\t// in\n    tag_229:\n        /* \"#utility.yul\":11853:11931   */\n      swap4\n      pop\n        /* \"#utility.yul\":11940:12005   */\n      tag_230\n        /* \"#utility.yul\":11998:12004   */\n      dup2\n        /* \"#utility.yul\":11993:11996   */\n      dup6\n        /* \"#utility.yul\":11986:11990   */\n      0x20\n        /* \"#utility.yul\":11979:11984   */\n      dup7\n        /* \"#utility.yul\":11975:11991   */\n      add\n        /* \"#utility.yul\":11940:12005   */\n      tag_111\n      jump\t// in\n    tag_230:\n        /* \"#utility.yul\":12030:12059   */\n      tag_231\n        /* \"#utility.yul\":12052:12058   */\n      dup2\n        /* \"#utility.yul\":12030:12059   */\n      tag_116\n      jump\t// in\n    tag_231:\n        /* \"#utility.yul\":12025:12028   */\n      dup5\n        /* \"#utility.yul\":12021:12060   */\n      add\n        /* \"#utility.yul\":12014:12060   */\n      swap2\n      pop\n        /* \"#utility.yul\":11781:12066   */\n      pop\n        /* \"#utility.yul\":11689:12066   */\n      swap3\n      swap2\n      pop\n      pop\n      jump\t// out\n        /* \"#utility.yul\":12072:12385   */\n    tag_80:\n        /* \"#utility.yul\":12185:12189   */\n      0x00\n        /* \"#utility.yul\":12223:12225   */\n      0x20\n        /* \"#utility.yul\":12212:12221   */\n      dup3\n        /* \"#utility.yul\":12208:12226   */\n      add\n        /* \"#utility.yul\":12200:12226   */\n      swap1\n      pop\n        /* \"#utility.yul\":12272:12281   */\n      dup2\n        /* \"#utility.yul\":12266:12270   */\n      dup2\n        /* \"#utility.yul\":12262:12282   */\n      sub\n        /* \"#utility.yul\":12258:12259   */\n      0x00\n        /* \"#utility.yul\":12247:12256   */\n      dup4\n        /* \"#utility.yul\":12243:12260   */\n      add\n        /* \"#utility.yul\":12236:12283   */\n      mstore\n        /* \"#utility.yul\":12300:12378   */\n      tag_233\n        /* \"#utility.yul\":12373:12377   */\n      dup2\n        /* \"#utility.yul\":12364:12370   */\n      dup5\n        /* \"#utility.yul\":12300:12378   */\n      tag_117\n      jump\t// in\n    tag_233:\n        /* \"#utility.yul\":12292:12378   */\n      swap1\n      pop\n        /* \"#utility.yul\":12072:12385   */\n      swap3\n      swap2\n      pop\n      pop\n      jump\t// out\n\n    auxdata: 0xa2646970667358221220fffc446418077875c14acb850a5b6ea585d334606fdbd7ab5baf151d4375069964736f6c63430008150033\n}\n",
				"bytecode": {
					"linkReferences": {},
					"object": "608060405234801561000f575f80fd5b50604051610ca8380380610ca8833981810160405281019061003191906100d4565b805f806101000a81548173ffffffffffffffffffffffffffffffffffffffff021916908373ffffffffffffffffffffffffffffffffffffffff160217905550506100ff565b5f80fd5b5f73ffffffffffffffffffffffffffffffffffffffff82169050919050565b5f6100a38261007a565b9050919050565b6100b381610099565b81146100bd575f80fd5b50565b5f815190506100ce816100aa565b92915050565b5f602082840312156100e9576100e8610076565b5b5f6100f6848285016100c0565b91505092915050565b610b9c8061010c5f395ff3fe608060405234801561000f575f80fd5b5060043610610034575f3560e01c8063837197b214610038578063af81c5b914610054575b5f80fd5b610052600480360381019061004d91906105d1565b610070565b005b61006e6004803603810190610069919061066a565b61009f565b005b61009c30600a8373ffffffffffffffffffffffffffffffffffffffff166101159092919063ffffffff16565b50565b600a8110156100e3576040517f08c379a00000000000000000000000000000000000000000000000000000000081526004016100da90610702565b60405180910390fd5b6101113330600a8573ffffffffffffffffffffffffffffffffffffffff16610260909392919063ffffffff16565b5050565b5f81148061019b57505f8373ffffffffffffffffffffffffffffffffffffffff1663dd62ed3e30856040518363ffffffff1660e01b815260040161015a92919061072f565b602060405180830381865afa158015610175573d5f803e3d5ffd5b505050506040513d601f19601f82011682018060405250810190610199919061076a565b145b6101da576040517f08c379a00000000000000000000000000000000000000000000000000000000081526004016101d190610805565b60405180910390fd5b61025b8363095ea7b360e01b84846040516024016101f9929190610832565b604051602081830303815290604052907bffffffffffffffffffffffffffffffffffffffffffffffffffffffff19166020820180517bffffffffffffffffffffffffffffffffffffffffffffffffffffffff83818316178352505050506102e9565b505050565b6102e3846323b872dd60e01b85858560405160240161028193929190610859565b604051602081830303815290604052907bffffffffffffffffffffffffffffffffffffffffffffffffffffffff19166020820180517bffffffffffffffffffffffffffffffffffffffffffffffffffffffff83818316178352505050506102e9565b50505050565b5f61034a826040518060400160405280602081526020017f5361666545524332303a206c6f772d6c6576656c2063616c6c206661696c65648152508573ffffffffffffffffffffffffffffffffffffffff166103ae9092919063ffffffff16565b90505f815111156103a9578080602001905181019061036991906108c3565b6103a8576040517f08c379a000000000000000000000000000000000000000000000000000000000815260040161039f9061095e565b60405180910390fd5b5b505050565b60606103bc84845f856103c5565b90509392505050565b60608247101561040a576040517f08c379a0000000000000000000000000000000000000000000000000000000008152600401610401906109ec565b60405180910390fd5b5f808673ffffffffffffffffffffffffffffffffffffffff1685876040516104329190610a76565b5f6040518083038185875af1925050503d805f811461046c576040519150601f19603f3d011682016040523d82523d5f602084013e610471565b606091505b50915091506104828783838761048e565b92505050949350505050565b606083156104ef575f8351036104e7576104a785610502565b6104e6576040517f08c379a00000000000000000000000000000000000000000000000000000000081526004016104dd90610ad6565b60405180910390fd5b5b8290506104fa565b6104f98383610524565b5b949350505050565b5f808273ffffffffffffffffffffffffffffffffffffffff163b119050919050565b5f825111156105365781518083602001fd5b806040517f08c379a000000000000000000000000000000000000000000000000000000000815260040161056a9190610b46565b60405180910390fd5b5f80fd5b5f73ffffffffffffffffffffffffffffffffffffffff82169050919050565b5f6105a082610577565b9050919050565b6105b081610596565b81146105ba575f80fd5b50565b5f813590506105cb816105a7565b92915050565b5f602082840312156105e6576105e5610573565b5b5f6105f3848285016105bd565b91505092915050565b5f61060682610596565b9050919050565b610616816105fc565b8114610620575f80fd5b50565b5f813590506106318161060d565b92915050565b5f819050919050565b61064981610637565b8114610653575f80fd5b50565b5f8135905061066481610640565b92915050565b5f80604083850312156106805761067f610573565b5b5f61068d85828601610623565b925050602061069e85828601610656565b9150509250929050565b5f82825260208201905092915050565b7f496e737566666963656e742046756e64000000000000000000000000000000005f82015250565b5f6106ec6010836106a8565b91506106f7826106b8565b602082019050919050565b5f6020820190508181035f830152610719816106e0565b9050919050565b61072981610596565b82525050565b5f6040820190506107425f830185610720565b61074f6020830184610720565b9392505050565b5f8151905061076481610640565b92915050565b5f6020828403121561077f5761077e610573565b5b5f61078c84828501610756565b91505092915050565b7f5361666545524332303a20617070726f76652066726f6d206e6f6e2d7a65726f5f8201527f20746f206e6f6e2d7a65726f20616c6c6f77616e636500000000000000000000602082015250565b5f6107ef6036836106a8565b91506107fa82610795565b604082019050919050565b5f6020820190508181035f83015261081c816107e3565b9050919050565b61082c81610637565b82525050565b5f6040820190506108455f830185610720565b6108526020830184610823565b9392505050565b5f60608201905061086c5f830186610720565b6108796020830185610720565b6108866040830184610823565b949350505050565b5f8115159050919050565b6108a28161088e565b81146108ac575f80fd5b50565b5f815190506108bd81610899565b92915050565b5f602082840312156108d8576108d7610573565b5b5f6108e5848285016108af565b91505092915050565b7f5361666545524332303a204552433230206f7065726174696f6e20646964206e5f8201527f6f74207375636365656400000000000000000000000000000000000000000000602082015250565b5f610948602a836106a8565b9150610953826108ee565b604082019050919050565b5f6020820190508181035f8301526109758161093c565b9050919050565b7f416464726573733a20696e73756666696369656e742062616c616e636520666f5f8201527f722063616c6c0000000000000000000000000000000000000000000000000000602082015250565b5f6109d66026836106a8565b91506109e18261097c565b604082019050919050565b5f6020820190508181035f830152610a03816109ca565b9050919050565b5f81519050919050565b5f81905092915050565b5f5b83811015610a3b578082015181840152602081019050610a20565b5f8484015250505050565b5f610a5082610a0a565b610a5a8185610a14565b9350610a6a818560208601610a1e565b80840191505092915050565b5f610a818284610a46565b915081905092915050565b7f416464726573733a2063616c6c20746f206e6f6e2d636f6e74726163740000005f82015250565b5f610ac0601d836106a8565b9150610acb82610a8c565b602082019050919050565b5f6020820190508181035f830152610aed81610ab4565b9050919050565b5f81519050919050565b5f601f19601f8301169050919050565b5f610b1882610af4565b610b2281856106a8565b9350610b32818560208601610a1e565b610b3b81610afe565b840191505092915050565b5f6020820190508181035f830152610b5e8184610b0e565b90509291505056fea2646970667358221220fffc446418077875c14acb850a5b6ea585d334606fdbd7ab5baf151d4375069964736f6c63430008150033",
					"opcodes": "PUSH1 0x80 PUSH1 0x40 MSTORE CALLVALUE DUP1 ISZERO PUSH2 0xF JUMPI PUSH0 DUP1 REVERT JUMPDEST POP PUSH1 0x40 MLOAD PUSH2 0xCA8 CODESIZE SUB DUP1 PUSH2 0xCA8 DUP4 CODECOPY DUP2 DUP2 ADD PUSH1 0x40 MSTORE DUP2 ADD SWAP1 PUSH2 0x31 SWAP2 SWAP1 PUSH2 0xD4 JUMP JUMPDEST DUP1 PUSH0 DUP1 PUSH2 0x100 EXP DUP2 SLOAD DUP2 PUSH20 0xFFFFFFFFFFFFFFFFFFFFFFFFFFFFFFFFFFFFFFFF MUL NOT AND SWAP1 DUP4 PUSH20 0xFFFFFFFFFFFFFFFFFFFFFFFFFFFFFFFFFFFFFFFF AND MUL OR SWAP1 SSTORE POP POP PUSH2 0xFF JUMP JUMPDEST PUSH0 DUP1 REVERT JUMPDEST PUSH0 PUSH20 0xFFFFFFFFFFFFFFFFFFFFFFFFFFFFFFFFFFFFFFFF DUP3 AND SWAP1 POP SWAP2 SWAP1 POP JUMP JUMPDEST PUSH0 PUSH2 0xA3 DUP3 PUSH2 0x7A JUMP JUMPDEST SWAP1 POP SWAP2 SWAP1 POP JUMP JUMPDEST PUSH2 0xB3 DUP2 PUSH2 0x99 JUMP JUMPDEST DUP2 EQ PUSH2 0xBD JUMPI PUSH0 DUP1 REVERT JUMPDEST POP JUMP JUMPDEST PUSH0 DUP2 MLOAD SWAP1 POP PUSH2 0xCE DUP2 PUSH2 0xAA JUMP JUMPDEST SWAP3 SWAP2 POP POP JUMP JUMPDEST PUSH0 PUSH1 0x20 DUP3 DUP5 SUB SLT ISZERO PUSH2 0xE9 JUMPI PUSH2 0xE8 PUSH2 0x76 JUMP JUMPDEST JUMPDEST PUSH0 PUSH2 0xF6 DUP5 DUP3 DUP6 ADD PUSH2 0xC0 JUMP JUMPDEST SWAP2 POP POP SWAP3 SWAP2 POP POP JUMP JUMPDEST PUSH2 0xB9C DUP1 PUSH2 0x10C PUSH0 CODECOPY PUSH0 RETURN INVALID PUSH1 0x80 PUSH1 0x40 MSTORE CALLVALUE DUP1 ISZERO PUSH2 0xF JUMPI PUSH0 DUP1 REVERT JUMPDEST POP PUSH1 0x4 CALLDATASIZE LT PUSH2 0x34 JUMPI PUSH0 CALLDATALOAD PUSH1 0xE0 SHR DUP1 PUSH4 0x837197B2 EQ PUSH2 0x38 JUMPI DUP1 PUSH4 0xAF81C5B9 EQ PUSH2 0x54 JUMPI JUMPDEST PUSH0 DUP1 REVERT JUMPDEST PUSH2 0x52 PUSH1 0x4 DUP1 CALLDATASIZE SUB DUP2 ADD SWAP1 PUSH2 0x4D SWAP2 SWAP1 PUSH2 0x5D1 JUMP JUMPDEST PUSH2 0x70 JUMP JUMPDEST STOP JUMPDEST PUSH2 0x6E PUSH1 0x4 DUP1 CALLDATASIZE SUB DUP2 ADD SWAP1 PUSH2 0x69 SWAP2 SWAP1 PUSH2 0x66A JUMP JUMPDEST PUSH2 0x9F JUMP JUMPDEST STOP JUMPDEST PUSH2 0x9C ADDRESS PUSH1 0xA DUP4 PUSH20 0xFFFFFFFFFFFFFFFFFFFFFFFFFFFFFFFFFFFFFFFF AND PUSH2 0x115 SWAP1 SWAP3 SWAP2 SWAP1 PUSH4 0xFFFFFFFF AND JUMP JUMPDEST POP JUMP JUMPDEST PUSH1 0xA DUP2 LT ISZERO PUSH2 0xE3 JUMPI PUSH1 0x40 MLOAD PUSH32 0x8C379A000000000000000000000000000000000000000000000000000000000 DUP2 MSTORE PUSH1 0x4 ADD PUSH2 0xDA SWAP1 PUSH2 0x702 JUMP JUMPDEST PUSH1 0x40 MLOAD DUP1 SWAP2 SUB SWAP1 REVERT JUMPDEST PUSH2 0x111 CALLER ADDRESS PUSH1 0xA DUP6 PUSH20 0xFFFFFFFFFFFFFFFFFFFFFFFFFFFFFFFFFFFFFFFF AND PUSH2 0x260 SWAP1 SWAP4 SWAP3 SWAP2 SWAP1 PUSH4 0xFFFFFFFF AND JUMP JUMPDEST POP POP JUMP JUMPDEST PUSH0 DUP2 EQ DUP1 PUSH2 0x19B JUMPI POP PUSH0 DUP4 PUSH20 0xFFFFFFFFFFFFFFFFFFFFFFFFFFFFFFFFFFFFFFFF AND PUSH4 0xDD62ED3E ADDRESS DUP6 PUSH1 0x40 MLOAD DUP4 PUSH4 0xFFFFFFFF AND PUSH1 0xE0 SHL DUP2 MSTORE PUSH1 0x4 ADD PUSH2 0x15A SWAP3 SWAP2 SWAP1 PUSH2 0x72F JUMP JUMPDEST PUSH1 0x20 PUSH1 0x40 MLOAD DUP1 DUP4 SUB DUP2 DUP7 GAS STATICCALL ISZERO DUP1 ISZERO PUSH2 0x175 JUMPI RETURNDATASIZE PUSH0 DUP1 RETURNDATACOPY RETURNDATASIZE PUSH0 REVERT JUMPDEST POP POP POP POP PUSH1 0x40 MLOAD RETURNDATASIZE PUSH1 0x1F NOT PUSH1 0x1F DUP3 ADD AND DUP3 ADD DUP1 PUSH1 0x40 MSTORE POP DUP2 ADD SWAP1 PUSH2 0x199 SWAP2 SWAP1 PUSH2 0x76A JUMP JUMPDEST EQ JUMPDEST PUSH2 0x1DA JUMPI PUSH1 0x40 MLOAD PUSH32 0x8C379A000000000000000000000000000000000000000000000000000000000 DUP2 MSTORE PUSH1 0x4 ADD PUSH2 0x1D1 SWAP1 PUSH2 0x805 JUMP JUMPDEST PUSH1 0x40 MLOAD DUP1 SWAP2 SUB SWAP1 REVERT JUMPDEST PUSH2 0x25B DUP4 PUSH4 0x95EA7B3 PUSH1 0xE0 SHL DUP5 DUP5 PUSH1 0x40 MLOAD PUSH1 0x24 ADD PUSH2 0x1F9 SWAP3 SWAP2 SWAP1 PUSH2 0x832 JUMP JUMPDEST PUSH1 0x40 MLOAD PUSH1 0x20 DUP2 DUP4 SUB SUB DUP2 MSTORE SWAP1 PUSH1 0x40 MSTORE SWAP1 PUSH28 0xFFFFFFFFFFFFFFFFFFFFFFFFFFFFFFFFFFFFFFFFFFFFFFFFFFFFFFFF NOT AND PUSH1 0x20 DUP3 ADD DUP1 MLOAD PUSH28 0xFFFFFFFFFFFFFFFFFFFFFFFFFFFFFFFFFFFFFFFFFFFFFFFFFFFFFFFF DUP4 DUP2 DUP4 AND OR DUP4 MSTORE POP POP POP POP PUSH2 0x2E9 JUMP JUMPDEST POP POP POP JUMP JUMPDEST PUSH2 0x2E3 DUP5 PUSH4 0x23B872DD PUSH1 0xE0 SHL DUP6 DUP6 DUP6 PUSH1 0x40 MLOAD PUSH1 0x24 ADD PUSH2 0x281 SWAP4 SWAP3 SWAP2 SWAP1 PUSH2 0x859 JUMP JUMPDEST PUSH1 0x40 MLOAD PUSH1 0x20 DUP2 DUP4 SUB SUB DUP2 MSTORE SWAP1 PUSH1 0x40 MSTORE SWAP1 PUSH28 0xFFFFFFFFFFFFFFFFFFFFFFFFFFFFFFFFFFFFFFFFFFFFFFFFFFFFFFFF NOT AND PUSH1 0x20 DUP3 ADD DUP1 MLOAD PUSH28 0xFFFFFFFFFFFFFFFFFFFFFFFFFFFFFFFFFFFFFFFFFFFFFFFFFFFFFFFF DUP4 DUP2 DUP4 AND OR DUP4 MSTORE POP POP POP POP PUSH2 0x2E9 JUMP JUMPDEST POP POP POP POP JUMP JUMPDEST PUSH0 PUSH2 0x34A DUP3 PUSH1 0x40 MLOAD DUP1 PUSH1 0x40 ADD PUSH1 0x40 MSTORE DUP1 PUSH1 0x20 DUP2 MSTORE PUSH1 0x20 ADD PUSH32 0x5361666545524332303A206C6F772D6C6576656C2063616C6C206661696C6564 DUP2 MSTORE POP DUP6 PUSH20 0xFFFFFFFFFFFFFFFFFFFFFFFFFFFFFFFFFFFFFFFF AND PUSH2 0x3AE SWAP1 SWAP3 SWAP2 SWAP1 PUSH4 0xFFFFFFFF AND JUMP JUMPDEST SWAP1 POP PUSH0 DUP2 MLOAD GT ISZERO PUSH2 0x3A9 JUMPI DUP1 DUP1 PUSH1 0x20 ADD SWAP1 MLOAD DUP2 ADD SWAP1 PUSH2 0x369 SWAP2 SWAP1 PUSH2 0x8C3 JUMP JUMPDEST PUSH2 0x3A8 JUMPI PUSH1 0x40 MLOAD PUSH32 0x8C379A000000000000000000000000000000000000000000000000000000000 DUP2 MSTORE PUSH1 0x4 ADD PUSH2 0x39F SWAP1 PUSH2 0x95E JUMP JUMPDEST PUSH1 0x40 MLOAD DUP1 SWAP2 SUB SWAP1 REVERT JUMPDEST JUMPDEST POP POP POP JUMP JUMPDEST PUSH1 0x60 PUSH2 0x3BC DUP5 DUP5 PUSH0 DUP6 PUSH2 0x3C5 JUMP JUMPDEST SWAP1 POP SWAP4 SWAP3 POP POP POP JUMP JUMPDEST PUSH1 0x60 DUP3 SELFBALANCE LT ISZERO PUSH2 0x40A JUMPI PUSH1 0x40 MLOAD PUSH32 0x8C379A000000000000000000000000000000000000000000000000000000000 DUP2 MSTORE PUSH1 0x4 ADD PUSH2 0x401 SWAP1 PUSH2 0x9EC JUMP JUMPDEST PUSH1 0x40 MLOAD DUP1 SWAP2 SUB SWAP1 REVERT JUMPDEST PUSH0 DUP1 DUP7 PUSH20 0xFFFFFFFFFFFFFFFFFFFFFFFFFFFFFFFFFFFFFFFF AND DUP6 DUP8 PUSH1 0x40 MLOAD PUSH2 0x432 SWAP2 SWAP1 PUSH2 0xA76 JUMP JUMPDEST PUSH0 PUSH1 0x40 MLOAD DUP1 DUP4 SUB DUP2 DUP6 DUP8 GAS CALL SWAP3 POP POP POP RETURNDATASIZE DUP1 PUSH0 DUP2 EQ PUSH2 0x46C JUMPI PUSH1 0x40 MLOAD SWAP2 POP PUSH1 0x1F NOT PUSH1 0x3F RETURNDATASIZE ADD AND DUP3 ADD PUSH1 0x40 MSTORE RETURNDATASIZE DUP3 MSTORE RETURNDATASIZE PUSH0 PUSH1 0x20 DUP5 ADD RETURNDATACOPY PUSH2 0x471 JUMP JUMPDEST PUSH1 0x60 SWAP2 POP JUMPDEST POP SWAP2 POP SWAP2 POP PUSH2 0x482 DUP8 DUP4 DUP4 DUP8 PUSH2 0x48E JUMP JUMPDEST SWAP3 POP POP POP SWAP5 SWAP4 POP POP POP POP JUMP JUMPDEST PUSH1 0x60 DUP4 ISZERO PUSH2 0x4EF JUMPI PUSH0 DUP4 MLOAD SUB PUSH2 0x4E7 JUMPI PUSH2 0x4A7 DUP6 PUSH2 0x502 JUMP JUMPDEST PUSH2 0x4E6 JUMPI PUSH1 0x40 MLOAD PUSH32 0x8C379A000000000000000000000000000000000000000000000000000000000 DUP2 MSTORE PUSH1 0x4 ADD PUSH2 0x4DD SWAP1 PUSH2 0xAD6 JUMP JUMPDEST PUSH1 0x40 MLOAD DUP1 SWAP2 SUB SWAP1 REVERT JUMPDEST JUMPDEST DUP3 SWAP1 POP PUSH2 0x4FA JUMP JUMPDEST PUSH2 0x4F9 DUP4 DUP4 PUSH2 0x524 JUMP JUMPDEST JUMPDEST SWAP5 SWAP4 POP POP POP POP JUMP JUMPDEST PUSH0 DUP1 DUP3 PUSH20 0xFFFFFFFFFFFFFFFFFFFFFFFFFFFFFFFFFFFFFFFF AND EXTCODESIZE GT SWAP1 POP SWAP2 SWAP1 POP JUMP JUMPDEST PUSH0 DUP3 MLOAD GT ISZERO PUSH2 0x536 JUMPI DUP2 MLOAD DUP1 DUP4 PUSH1 0x20 ADD REVERT JUMPDEST DUP1 PUSH1 0x40 MLOAD PUSH32 0x8C379A000000000000000000000000000000000000000000000000000000000 DUP2 MSTORE PUSH1 0x4 ADD PUSH2 0x56A SWAP2 SWAP1 PUSH2 0xB46 JUMP JUMPDEST PUSH1 0x40 MLOAD DUP1 SWAP2 SUB SWAP1 REVERT JUMPDEST PUSH0 DUP1 REVERT JUMPDEST PUSH0 PUSH20 0xFFFFFFFFFFFFFFFFFFFFFFFFFFFFFFFFFFFFFFFF DUP3 AND SWAP1 POP SWAP2 SWAP1 POP JUMP JUMPDEST PUSH0 PUSH2 0x5A0 DUP3 PUSH2 0x577 JUMP JUMPDEST SWAP1 POP SWAP2 SWAP1 POP JUMP JUMPDEST PUSH2 0x5B0 DUP2 PUSH2 0x596 JUMP JUMPDEST DUP2 EQ PUSH2 0x5BA JUMPI PUSH0 DUP1 REVERT JUMPDEST POP JUMP JUMPDEST PUSH0 DUP2 CALLDATALOAD SWAP1 POP PUSH2 0x5CB DUP2 PUSH2 0x5A7 JUMP JUMPDEST SWAP3 SWAP2 POP POP JUMP JUMPDEST PUSH0 PUSH1 0x20 DUP3 DUP5 SUB SLT ISZERO PUSH2 0x5E6 JUMPI PUSH2 0x5E5 PUSH2 0x573 JUMP JUMPDEST JUMPDEST PUSH0 PUSH2 0x5F3 DUP5 DUP3 DUP6 ADD PUSH2 0x5BD JUMP JUMPDEST SWAP2 POP POP SWAP3 SWAP2 POP POP JUMP JUMPDEST PUSH0 PUSH2 0x606 DUP3 PUSH2 0x596 JUMP JUMPDEST SWAP1 POP SWAP2 SWAP1 POP JUMP JUMPDEST PUSH2 0x616 DUP2 PUSH2 0x5FC JUMP JUMPDEST DUP2 EQ PUSH2 0x620 JUMPI PUSH0 DUP1 REVERT JUMPDEST POP JUMP JUMPDEST PUSH0 DUP2 CALLDATALOAD SWAP1 POP PUSH2 0x631 DUP2 PUSH2 0x60D JUMP JUMPDEST SWAP3 SWAP2 POP POP JUMP JUMPDEST PUSH0 DUP2 SWAP1 POP SWAP2 SWAP1 POP JUMP JUMPDEST PUSH2 0x649 DUP2 PUSH2 0x637 JUMP JUMPDEST DUP2 EQ PUSH2 0x653 JUMPI PUSH0 DUP1 REVERT JUMPDEST POP JUMP JUMPDEST PUSH0 DUP2 CALLDATALOAD SWAP1 POP PUSH2 0x664 DUP2 PUSH2 0x640 JUMP JUMPDEST SWAP3 SWAP2 POP POP JUMP JUMPDEST PUSH0 DUP1 PUSH1 0x40 DUP4 DUP6 SUB SLT ISZERO PUSH2 0x680 JUMPI PUSH2 0x67F PUSH2 0x573 JUMP JUMPDEST JUMPDEST PUSH0 PUSH2 0x68D DUP6 DUP3 DUP7 ADD PUSH2 0x623 JUMP JUMPDEST SWAP3 POP POP PUSH1 0x20 PUSH2 0x69E DUP6 DUP3 DUP7 ADD PUSH2 0x656 JUMP JUMPDEST SWAP2 POP POP SWAP3 POP SWAP3 SWAP1 POP JUMP JUMPDEST PUSH0 DUP3 DUP3 MSTORE PUSH1 0x20 DUP3 ADD SWAP1 POP SWAP3 SWAP2 POP POP JUMP JUMPDEST PUSH32 0x496E737566666963656E742046756E6400000000000000000000000000000000 PUSH0 DUP3 ADD MSTORE POP JUMP JUMPDEST PUSH0 PUSH2 0x6EC PUSH1 0x10 DUP4 PUSH2 0x6A8 JUMP JUMPDEST SWAP2 POP PUSH2 0x6F7 DUP3 PUSH2 0x6B8 JUMP JUMPDEST PUSH1 0x20 DUP3 ADD SWAP1 POP SWAP2 SWAP1 POP JUMP JUMPDEST PUSH0 PUSH1 0x20 DUP3 ADD SWAP1 POP DUP2 DUP2 SUB PUSH0 DUP4 ADD MSTORE PUSH2 0x719 DUP2 PUSH2 0x6E0 JUMP JUMPDEST SWAP1 POP SWAP2 SWAP1 POP JUMP JUMPDEST PUSH2 0x729 DUP2 PUSH2 0x596 JUMP JUMPDEST DUP3 MSTORE POP POP JUMP JUMPDEST PUSH0 PUSH1 0x40 DUP3 ADD SWAP1 POP PUSH2 0x742 PUSH0 DUP4 ADD DUP6 PUSH2 0x720 JUMP JUMPDEST PUSH2 0x74F PUSH1 0x20 DUP4 ADD DUP5 PUSH2 0x720 JUMP JUMPDEST SWAP4 SWAP3 POP POP POP JUMP JUMPDEST PUSH0 DUP2 MLOAD SWAP1 POP PUSH2 0x764 DUP2 PUSH2 0x640 JUMP JUMPDEST SWAP3 SWAP2 POP POP JUMP JUMPDEST PUSH0 PUSH1 0x20 DUP3 DUP5 SUB SLT ISZERO PUSH2 0x77F JUMPI PUSH2 0x77E PUSH2 0x573 JUMP JUMPDEST JUMPDEST PUSH0 PUSH2 0x78C DUP5 DUP3 DUP6 ADD PUSH2 0x756 JUMP JUMPDEST SWAP2 POP POP SWAP3 SWAP2 POP POP JUMP JUMPDEST PUSH32 0x5361666545524332303A20617070726F76652066726F6D206E6F6E2D7A65726F PUSH0 DUP3 ADD MSTORE PUSH32 0x20746F206E6F6E2D7A65726F20616C6C6F77616E636500000000000000000000 PUSH1 0x20 DUP3 ADD MSTORE POP JUMP JUMPDEST PUSH0 PUSH2 0x7EF PUSH1 0x36 DUP4 PUSH2 0x6A8 JUMP JUMPDEST SWAP2 POP PUSH2 0x7FA DUP3 PUSH2 0x795 JUMP JUMPDEST PUSH1 0x40 DUP3 ADD SWAP1 POP SWAP2 SWAP1 POP JUMP JUMPDEST PUSH0 PUSH1 0x20 DUP3 ADD SWAP1 POP DUP2 DUP2 SUB PUSH0 DUP4 ADD MSTORE PUSH2 0x81C DUP2 PUSH2 0x7E3 JUMP JUMPDEST SWAP1 POP SWAP2 SWAP1 POP JUMP JUMPDEST PUSH2 0x82C DUP2 PUSH2 0x637 JUMP JUMPDEST DUP3 MSTORE POP POP JUMP JUMPDEST PUSH0 PUSH1 0x40 DUP3 ADD SWAP1 POP PUSH2 0x845 PUSH0 DUP4 ADD DUP6 PUSH2 0x720 JUMP JUMPDEST PUSH2 0x852 PUSH1 0x20 DUP4 ADD DUP5 PUSH2 0x823 JUMP JUMPDEST SWAP4 SWAP3 POP POP POP JUMP JUMPDEST PUSH0 PUSH1 0x60 DUP3 ADD SWAP1 POP PUSH2 0x86C PUSH0 DUP4 ADD DUP7 PUSH2 0x720 JUMP JUMPDEST PUSH2 0x879 PUSH1 0x20 DUP4 ADD DUP6 PUSH2 0x720 JUMP JUMPDEST PUSH2 0x886 PUSH1 0x40 DUP4 ADD DUP5 PUSH2 0x823 JUMP JUMPDEST SWAP5 SWAP4 POP POP POP POP JUMP JUMPDEST PUSH0 DUP2 ISZERO ISZERO SWAP1 POP SWAP2 SWAP1 POP JUMP JUMPDEST PUSH2 0x8A2 DUP2 PUSH2 0x88E JUMP JUMPDEST DUP2 EQ PUSH2 0x8AC JUMPI PUSH0 DUP1 REVERT JUMPDEST POP JUMP JUMPDEST PUSH0 DUP2 MLOAD SWAP1 POP PUSH2 0x8BD DUP2 PUSH2 0x899 JUMP JUMPDEST SWAP3 SWAP2 POP POP JUMP JUMPDEST PUSH0 PUSH1 0x20 DUP3 DUP5 SUB SLT ISZERO PUSH2 0x8D8 JUMPI PUSH2 0x8D7 PUSH2 0x573 JUMP JUMPDEST JUMPDEST PUSH0 PUSH2 0x8E5 DUP5 DUP3 DUP6 ADD PUSH2 0x8AF JUMP JUMPDEST SWAP2 POP POP SWAP3 SWAP2 POP POP JUMP JUMPDEST PUSH32 0x5361666545524332303A204552433230206F7065726174696F6E20646964206E PUSH0 DUP3 ADD MSTORE PUSH32 0x6F74207375636365656400000000000000000000000000000000000000000000 PUSH1 0x20 DUP3 ADD MSTORE POP JUMP JUMPDEST PUSH0 PUSH2 0x948 PUSH1 0x2A DUP4 PUSH2 0x6A8 JUMP JUMPDEST SWAP2 POP PUSH2 0x953 DUP3 PUSH2 0x8EE JUMP JUMPDEST PUSH1 0x40 DUP3 ADD SWAP1 POP SWAP2 SWAP1 POP JUMP JUMPDEST PUSH0 PUSH1 0x20 DUP3 ADD SWAP1 POP DUP2 DUP2 SUB PUSH0 DUP4 ADD MSTORE PUSH2 0x975 DUP2 PUSH2 0x93C JUMP JUMPDEST SWAP1 POP SWAP2 SWAP1 POP JUMP JUMPDEST PUSH32 0x416464726573733A20696E73756666696369656E742062616C616E636520666F PUSH0 DUP3 ADD MSTORE PUSH32 0x722063616C6C0000000000000000000000000000000000000000000000000000 PUSH1 0x20 DUP3 ADD MSTORE POP JUMP JUMPDEST PUSH0 PUSH2 0x9D6 PUSH1 0x26 DUP4 PUSH2 0x6A8 JUMP JUMPDEST SWAP2 POP PUSH2 0x9E1 DUP3 PUSH2 0x97C JUMP JUMPDEST PUSH1 0x40 DUP3 ADD SWAP1 POP SWAP2 SWAP1 POP JUMP JUMPDEST PUSH0 PUSH1 0x20 DUP3 ADD SWAP1 POP DUP2 DUP2 SUB PUSH0 DUP4 ADD MSTORE PUSH2 0xA03 DUP2 PUSH2 0x9CA JUMP JUMPDEST SWAP1 POP SWAP2 SWAP1 POP JUMP JUMPDEST PUSH0 DUP2 MLOAD SWAP1 POP SWAP2 SWAP1 POP JUMP JUMPDEST PUSH0 DUP2 SWAP1 POP SWAP3 SWAP2 POP POP JUMP JUMPDEST PUSH0 JUMPDEST DUP4 DUP2 LT ISZERO PUSH2 0xA3B JUMPI DUP1 DUP3 ADD MLOAD DUP2 DUP5 ADD MSTORE PUSH1 0x20 DUP2 ADD SWAP1 POP PUSH2 0xA20 JUMP JUMPDEST PUSH0 DUP5 DUP5 ADD MSTORE POP POP POP POP JUMP JUMPDEST PUSH0 PUSH2 0xA50 DUP3 PUSH2 0xA0A JUMP JUMPDEST PUSH2 0xA5A DUP2 DUP6 PUSH2 0xA14 JUMP JUMPDEST SWAP4 POP PUSH2 0xA6A DUP2 DUP6 PUSH1 0x20 DUP7 ADD PUSH2 0xA1E JUMP JUMPDEST DUP1 DUP5 ADD SWAP2 POP POP SWAP3 SWAP2 POP POP JUMP JUMPDEST PUSH0 PUSH2 0xA81 DUP3 DUP5 PUSH2 0xA46 JUMP JUMPDEST SWAP2 POP DUP2 SWAP1 POP SWAP3 SWAP2 POP POP JUMP JUMPDEST PUSH32 0x416464726573733A2063616C6C20746F206E6F6E2D636F6E7472616374000000 PUSH0 DUP3 ADD MSTORE POP JUMP JUMPDEST PUSH0 PUSH2 0xAC0 PUSH1 0x1D DUP4 PUSH2 0x6A8 JUMP JUMPDEST SWAP2 POP PUSH2 0xACB DUP3 PUSH2 0xA8C JUMP JUMPDEST PUSH1 0x20 DUP3 ADD SWAP1 POP SWAP2 SWAP1 POP JUMP JUMPDEST PUSH0 PUSH1 0x20 DUP3 ADD SWAP1 POP DUP2 DUP2 SUB PUSH0 DUP4 ADD MSTORE PUSH2 0xAED DUP2 PUSH2 0xAB4 JUMP JUMPDEST SWAP1 POP SWAP2 SWAP1 POP JUMP JUMPDEST PUSH0 DUP2 MLOAD SWAP1 POP SWAP2 SWAP1 POP JUMP JUMPDEST PUSH0 PUSH1 0x1F NOT PUSH1 0x1F DUP4 ADD AND SWAP1 POP SWAP2 SWAP1 POP JUMP JUMPDEST PUSH0 PUSH2 0xB18 DUP3 PUSH2 0xAF4 JUMP JUMPDEST PUSH2 0xB22 DUP2 DUP6 PUSH2 0x6A8 JUMP JUMPDEST SWAP4 POP PUSH2 0xB32 DUP2 DUP6 PUSH1 0x20 DUP7 ADD PUSH2 0xA1E JUMP JUMPDEST PUSH2 0xB3B DUP2 PUSH2 0xAFE JUMP JUMPDEST DUP5 ADD SWAP2 POP POP SWAP3 SWAP2 POP POP JUMP JUMPDEST PUSH0 PUSH1 0x20 DUP3 ADD SWAP1 POP DUP2 DUP2 SUB PUSH0 DUP4 ADD MSTORE PUSH2 0xB5E DUP2 DUP5 PUSH2 0xB0E JUMP JUMPDEST SWAP1 POP SWAP3 SWAP2 POP POP JUMP INVALID LOG2 PUSH5 0x6970667358 0x22 SLT KECCAK256 SELFDESTRUCT 0xFC PREVRANDAO PUSH5 0x18077875C1 0x4A 0xCB DUP6 EXP JUMPDEST PUSH15 0xA585D334606FDBD7AB5BAF151D4375 MOD SWAP10 PUSH5 0x736F6C6343 STOP ADDMOD ISZERO STOP CALLER "
				},
				"gasEstimates": {
					"creation": {
						"codeDepositCost": "594400",
						"executionCost": "infinite",
						"totalCost": "infinite"
					},
					"external": {
						"addToken(address,uint256)": "infinite",
						"sendTokens(address)": "infinite"
					}
				},
				"methodIdentifiers": {
					"addToken(address,uint256)": "af81c5b9",
					"sendTokens(address)": "837197b2"
				}
			},
			"storageLayout": {
				"storage": [
					{
						"astId": 733,
						"contract": "contracts/TransferERC20.sol:AnotherContract",
						"label": "add",
						"offset": 0,
						"slot": "0",
						"type": "t_address"
					}
				],
				"types": {
					"t_address": {
						"encoding": "inplace",
						"label": "address",
						"numberOfBytes": "20"
					}
				}
			},
			"userdoc": {
				"kind": "user",
				"methods": {},
				"version": 1
			}
		}
	}
}