{
	"contracts/NFTStaking.sol": {
		"MoonRabbitsStaking": {
			"abi": [
				{
					"inputs": [
						{
							"internalType": "address",
							"name": "_RewardToken",
							"type": "address"
						},
						{
							"internalType": "address",
							"name": "_NFTCollection",
							"type": "address"
						}
					],
					"stateMutability": "nonpayable",
					"type": "constructor"
				},
				{
					"anonymous": false,
					"inputs": [
						{
							"indexed": true,
							"internalType": "address",
							"name": "previousOwner",
							"type": "address"
						},
						{
							"indexed": true,
							"internalType": "address",
							"name": "newOwner",
							"type": "address"
						}
					],
					"name": "OwnershipTransferred",
					"type": "event"
				},
				{
					"anonymous": false,
					"inputs": [
						{
							"indexed": true,
							"internalType": "address",
							"name": "owner",
							"type": "address"
						},
						{
							"indexed": false,
							"internalType": "uint256",
							"name": "id",
							"type": "uint256"
						},
						{
							"indexed": false,
							"internalType": "uint256",
							"name": "pool",
							"type": "uint256"
						},
						{
							"indexed": false,
							"internalType": "uint256",
							"name": "time",
							"type": "uint256"
						}
					],
					"name": "Stake",
					"type": "event"
				},
				{
					"anonymous": false,
					"inputs": [
						{
							"indexed": true,
							"internalType": "address",
							"name": "owner",
							"type": "address"
						},
						{
							"indexed": false,
							"internalType": "uint256",
							"name": "id",
							"type": "uint256"
						},
						{
							"indexed": false,
							"internalType": "uint256",
							"name": "pool",
							"type": "uint256"
						},
						{
							"indexed": false,
							"internalType": "uint256",
							"name": "time",
							"type": "uint256"
						},
						{
							"indexed": false,
							"internalType": "uint256",
							"name": "rewardTokens",
							"type": "uint256"
						}
					],
					"name": "UnStake",
					"type": "event"
				},
				{
					"inputs": [],
					"name": "NFTCollection",
					"outputs": [
						{
							"internalType": "contract IERC721",
							"name": "",
							"type": "address"
						}
					],
					"stateMutability": "view",
					"type": "function"
				},
				{
					"inputs": [
						{
							"internalType": "uint256",
							"name": "_tempIndex",
							"type": "uint256"
						},
						{
							"internalType": "address",
							"name": "_user",
							"type": "address"
						}
					],
					"name": "checkIfAlreadyUnstaked",
					"outputs": [
						{
							"internalType": "bool",
							"name": "",
							"type": "bool"
						}
					],
					"stateMutability": "view",
					"type": "function"
				},
				{
					"inputs": [],
					"name": "index",
					"outputs": [
						{
							"internalType": "uint256",
							"name": "",
							"type": "uint256"
						}
					],
					"stateMutability": "view",
					"type": "function"
				},
				{
					"inputs": [],
					"name": "owner",
					"outputs": [
						{
							"internalType": "address",
							"name": "",
							"type": "address"
						}
					],
					"stateMutability": "view",
					"type": "function"
				},
				{
					"inputs": [],
					"name": "renounceOwnership",
					"outputs": [],
					"stateMutability": "nonpayable",
					"type": "function"
				},
				{
					"inputs": [],
					"name": "rewardToken",
					"outputs": [
						{
							"internalType": "contract IERC20",
							"name": "",
							"type": "address"
						}
					],
					"stateMutability": "view",
					"type": "function"
				},
				{
					"inputs": [
						{
							"internalType": "uint256",
							"name": "_tokenId",
							"type": "uint256"
						},
						{
							"internalType": "uint256",
							"name": "_pool",
							"type": "uint256"
						}
					],
					"name": "stakeNFT",
					"outputs": [],
					"stateMutability": "nonpayable",
					"type": "function"
				},
				{
					"inputs": [
						{
							"internalType": "uint256",
							"name": "",
							"type": "uint256"
						}
					],
					"name": "stakes",
					"outputs": [
						{
							"internalType": "uint256",
							"name": "index",
							"type": "uint256"
						},
						{
							"internalType": "address",
							"name": "user",
							"type": "address"
						},
						{
							"internalType": "uint256",
							"name": "tokenId",
							"type": "uint256"
						},
						{
							"internalType": "uint256",
							"name": "pool",
							"type": "uint256"
						},
						{
							"internalType": "uint256",
							"name": "timestamp",
							"type": "uint256"
						}
					],
					"stateMutability": "view",
					"type": "function"
				},
				{
					"inputs": [
						{
							"internalType": "address",
							"name": "",
							"type": "address"
						},
						{
							"internalType": "uint256",
							"name": "",
							"type": "uint256"
						}
					],
					"name": "staking_details",
					"outputs": [
						{
							"internalType": "uint256",
							"name": "",
							"type": "uint256"
						}
					],
					"stateMutability": "view",
					"type": "function"
				},
				{
					"inputs": [
						{
							"internalType": "address",
							"name": "newOwner",
							"type": "address"
						}
					],
					"name": "transferOwnership",
					"outputs": [],
					"stateMutability": "nonpayable",
					"type": "function"
				},
				{
					"inputs": [
						{
							"internalType": "uint256",
							"name": "_index",
							"type": "uint256"
						},
						{
							"internalType": "uint256",
							"name": "_tokenId",
							"type": "uint256"
						},
						{
							"internalType": "uint256",
							"name": "_pool",
							"type": "uint256"
						}
					],
					"name": "unStakeNFT",
					"outputs": [],
					"stateMutability": "nonpayable",
					"type": "function"
				},
				{
					"inputs": [
						{
							"internalType": "address",
							"name": "",
							"type": "address"
						},
						{
							"internalType": "uint256",
							"name": "",
							"type": "uint256"
						}
					],
					"name": "unstaking_details",
					"outputs": [
						{
							"internalType": "uint256",
							"name": "",
							"type": "uint256"
						}
					],
					"stateMutability": "view",
					"type": "function"
				},
				{
					"inputs": [
						{
							"internalType": "address",
							"name": "_user",
							"type": "address"
						}
					],
					"name": "userStakingList",
					"outputs": [
						{
							"internalType": "uint256[]",
							"name": "",
							"type": "uint256[]"
						}
					],
					"stateMutability": "view",
					"type": "function"
				}
			],
			"devdoc": {
				"kind": "dev",
				"methods": {
					"checkIfAlreadyUnstaked(uint256,address)": {
						"params": {
							"_tempIndex": "of the nft",
							"_user": "of the user"
						}
					},
					"owner()": {
						"details": "Returns the address of the current owner."
					},
					"renounceOwnership()": {
						"details": "Leaves the contract without owner. It will not be possible to call `onlyOwner` functions anymore. Can only be called by the current owner. NOTE: Renouncing ownership will leave the contract without an owner, thereby removing any functionality that is only available to the owner."
					},
					"stakeNFT(uint256,uint256)": {
						"params": {
							"_pool": "Pool of NFT",
							"_tokenId": "Token Id of NFT to stake"
						}
					},
					"transferOwnership(address)": {
						"details": "Transfers ownership of the contract to a new account (`newOwner`). Can only be called by the current owner."
					},
					"unStakeNFT(uint256,uint256,uint256)": {
						"params": {
							"_pool": "Pool of NFT",
							"_tokenId": "Token Id of NFT to stake"
						}
					},
					"userStakingList(address)": {
						"params": {
							"_user": "Address of the user"
						}
					}
				},
				"version": 1
			},
			"evm": {
				"assembly": "    /* \"contracts/NFTStaking.sol\":415:3876  contract MoonRabbitsStaking is Ownable, ReentrancyGuard {... */\n  mstore(0x40, 0x80)\n    /* \"contracts/NFTStaking.sol\":632:633  0 */\n  0x00\n    /* \"contracts/NFTStaking.sol\":609:633  uint256 public index = 0 */\n  0x04\n  sstore\n    /* \"contracts/NFTStaking.sol\":1017:1174  constructor(address _RewardToken,address _NFTCollection) {... */\n  callvalue\n  dup1\n  iszero\n  tag_1\n  jumpi\n  0x00\n  dup1\n  revert\ntag_1:\n  pop\n  mload(0x40)\n  sub(codesize, bytecodeSize)\n  dup1\n  bytecodeSize\n  dup4\n  codecopy\n  dup2\n  dup2\n  add\n  0x40\n  mstore\n  dup2\n  add\n  swap1\n  tag_2\n  swap2\n  swap1\n  tag_3\n  jump\t// in\ntag_2:\n    /* \"@openzeppelin/contracts/access/Ownable.sol\":936:968  _transferOwnership(_msgSender()) */\n  tag_8\n    /* \"@openzeppelin/contracts/access/Ownable.sol\":955:967  _msgSender() */\n  tag_9\n    /* \"@openzeppelin/contracts/access/Ownable.sol\":955:965  _msgSender */\n  shl(0x20, tag_10)\n    /* \"@openzeppelin/contracts/access/Ownable.sol\":955:967  _msgSender() */\n  0x20\n  shr\n  jump\t// in\ntag_9:\n    /* \"@openzeppelin/contracts/access/Ownable.sol\":936:954  _transferOwnership */\n  shl(0x20, tag_11)\n    /* \"@openzeppelin/contracts/access/Ownable.sol\":936:968  _transferOwnership(_msgSender()) */\n  0x20\n  shr\n  jump\t// in\ntag_8:\n    /* \"@openzeppelin/contracts/security/ReentrancyGuard.sol\":1716:1717  1 */\n  0x01\n    /* \"@openzeppelin/contracts/security/ReentrancyGuard.sol\":1821:1828  _status */\n  dup1\n    /* \"@openzeppelin/contracts/security/ReentrancyGuard.sol\":1821:1843  _status = _NOT_ENTERED */\n  dup2\n  swap1\n  sstore\n  pop\n    /* \"contracts/NFTStaking.sol\":1105:1117  _RewardToken */\n  dup2\n    /* \"contracts/NFTStaking.sol\":1084:1095  rewardToken */\n  0x03\n  0x00\n    /* \"contracts/NFTStaking.sol\":1084:1118  rewardToken = IERC20(_RewardToken) */\n  0x0100\n  exp\n  dup2\n  sload\n  dup2\n  0xffffffffffffffffffffffffffffffffffffffff\n  mul\n  not\n  and\n  swap1\n  dup4\n  0xffffffffffffffffffffffffffffffffffffffff\n  and\n  mul\n  or\n  swap1\n  sstore\n  pop\n    /* \"contracts/NFTStaking.sol\":1152:1166  _NFTCollection */\n  dup1\n    /* \"contracts/NFTStaking.sol\":1128:1141  NFTCollection */\n  0x02\n  0x00\n    /* \"contracts/NFTStaking.sol\":1128:1167  NFTCollection = IERC721(_NFTCollection) */\n  0x0100\n  exp\n  dup2\n  sload\n  dup2\n  0xffffffffffffffffffffffffffffffffffffffff\n  mul\n  not\n  and\n  swap1\n  dup4\n  0xffffffffffffffffffffffffffffffffffffffff\n  and\n  mul\n  or\n  swap1\n  sstore\n  pop\n    /* \"contracts/NFTStaking.sol\":1017:1174  constructor(address _RewardToken,address _NFTCollection) {... */\n  pop\n  pop\n    /* \"contracts/NFTStaking.sol\":415:3876  contract MoonRabbitsStaking is Ownable, ReentrancyGuard {... */\n  jump(tag_14)\n    /* \"@openzeppelin/contracts/utils/Context.sol\":640:736  function _msgSender() internal view virtual returns (address) {... */\ntag_10:\n    /* \"@openzeppelin/contracts/utils/Context.sol\":693:700  address */\n  0x00\n    /* \"@openzeppelin/contracts/utils/Context.sol\":719:729  msg.sender */\n  caller\n    /* \"@openzeppelin/contracts/utils/Context.sol\":712:729  return msg.sender */\n  swap1\n  pop\n    /* \"@openzeppelin/contracts/utils/Context.sol\":640:736  function _msgSender() internal view virtual returns (address) {... */\n  swap1\n  jump\t// out\n    /* \"@openzeppelin/contracts/access/Ownable.sol\":2433:2620  function _transferOwnership(address newOwner) internal virtual {... */\ntag_11:\n    /* \"@openzeppelin/contracts/access/Ownable.sol\":2506:2522  address oldOwner */\n  0x00\n    /* \"@openzeppelin/contracts/access/Ownable.sol\":2525:2531  _owner */\n  dup1\n  0x00\n  swap1\n  sload\n  swap1\n  0x0100\n  exp\n  swap1\n  div\n  0xffffffffffffffffffffffffffffffffffffffff\n  and\n    /* \"@openzeppelin/contracts/access/Ownable.sol\":2506:2531  address oldOwner = _owner */\n  swap1\n  pop\n    /* \"@openzeppelin/contracts/access/Ownable.sol\":2550:2558  newOwner */\n  dup2\n    /* \"@openzeppelin/contracts/access/Ownable.sol\":2541:2547  _owner */\n  0x00\n  dup1\n    /* \"@openzeppelin/contracts/access/Ownable.sol\":2541:2558  _owner = newOwner */\n  0x0100\n  exp\n  dup2\n  sload\n  dup2\n  0xffffffffffffffffffffffffffffffffffffffff\n  mul\n  not\n  and\n  swap1\n  dup4\n  0xffffffffffffffffffffffffffffffffffffffff\n  and\n  mul\n  or\n  swap1\n  sstore\n  pop\n    /* \"@openzeppelin/contracts/access/Ownable.sol\":2604:2612  newOwner */\n  dup2\n    /* \"@openzeppelin/contracts/access/Ownable.sol\":2573:2613  OwnershipTransferred(oldOwner, newOwner) */\n  0xffffffffffffffffffffffffffffffffffffffff\n  and\n    /* \"@openzeppelin/contracts/access/Ownable.sol\":2594:2602  oldOwner */\n  dup2\n    /* \"@openzeppelin/contracts/access/Ownable.sol\":2573:2613  OwnershipTransferred(oldOwner, newOwner) */\n  0xffffffffffffffffffffffffffffffffffffffff\n  and\n  0x8be0079c531659141344cd1fd0a4f28419497f9722a3daafe3b4186f6b6457e0\n  mload(0x40)\n  mload(0x40)\n  dup1\n  swap2\n  sub\n  swap1\n  log3\n    /* \"@openzeppelin/contracts/access/Ownable.sol\":2496:2620  {... */\n  pop\n    /* \"@openzeppelin/contracts/access/Ownable.sol\":2433:2620  function _transferOwnership(address newOwner) internal virtual {... */\n  pop\n  jump\t// out\n    /* \"#utility.yul\":88:205   */\ntag_18:\n    /* \"#utility.yul\":197:198   */\n  0x00\n    /* \"#utility.yul\":194:195   */\n  dup1\n    /* \"#utility.yul\":187:199   */\n  revert\n    /* \"#utility.yul\":334:460   */\ntag_20:\n    /* \"#utility.yul\":371:378   */\n  0x00\n    /* \"#utility.yul\":411:453   */\n  0xffffffffffffffffffffffffffffffffffffffff\n    /* \"#utility.yul\":404:409   */\n  dup3\n    /* \"#utility.yul\":400:454   */\n  and\n    /* \"#utility.yul\":389:454   */\n  swap1\n  pop\n    /* \"#utility.yul\":334:460   */\n  swap2\n  swap1\n  pop\n  jump\t// out\n    /* \"#utility.yul\":466:562   */\ntag_21:\n    /* \"#utility.yul\":503:510   */\n  0x00\n    /* \"#utility.yul\":532:556   */\n  tag_30\n    /* \"#utility.yul\":550:555   */\n  dup3\n    /* \"#utility.yul\":532:556   */\n  tag_20\n  jump\t// in\ntag_30:\n    /* \"#utility.yul\":521:556   */\n  swap1\n  pop\n    /* \"#utility.yul\":466:562   */\n  swap2\n  swap1\n  pop\n  jump\t// out\n    /* \"#utility.yul\":568:690   */\ntag_22:\n    /* \"#utility.yul\":641:665   */\n  tag_32\n    /* \"#utility.yul\":659:664   */\n  dup2\n    /* \"#utility.yul\":641:665   */\n  tag_21\n  jump\t// in\ntag_32:\n    /* \"#utility.yul\":634:639   */\n  dup2\n    /* \"#utility.yul\":631:666   */\n  eq\n    /* \"#utility.yul\":621:684   */\n  tag_33\n  jumpi\n    /* \"#utility.yul\":680:681   */\n  0x00\n    /* \"#utility.yul\":677:678   */\n  dup1\n    /* \"#utility.yul\":670:682   */\n  revert\n    /* \"#utility.yul\":621:684   */\ntag_33:\n    /* \"#utility.yul\":568:690   */\n  pop\n  jump\t// out\n    /* \"#utility.yul\":696:839   */\ntag_23:\n    /* \"#utility.yul\":753:758   */\n  0x00\n    /* \"#utility.yul\":784:790   */\n  dup2\n    /* \"#utility.yul\":778:791   */\n  mload\n    /* \"#utility.yul\":769:791   */\n  swap1\n  pop\n    /* \"#utility.yul\":800:833   */\n  tag_35\n    /* \"#utility.yul\":827:832   */\n  dup2\n    /* \"#utility.yul\":800:833   */\n  tag_22\n  jump\t// in\ntag_35:\n    /* \"#utility.yul\":696:839   */\n  swap3\n  swap2\n  pop\n  pop\n  jump\t// out\n    /* \"#utility.yul\":845:1352   */\ntag_3:\n    /* \"#utility.yul\":924:930   */\n  0x00\n    /* \"#utility.yul\":932:938   */\n  dup1\n    /* \"#utility.yul\":981:983   */\n  0x40\n    /* \"#utility.yul\":969:978   */\n  dup4\n    /* \"#utility.yul\":960:967   */\n  dup6\n    /* \"#utility.yul\":956:979   */\n  sub\n    /* \"#utility.yul\":952:984   */\n  slt\n    /* \"#utility.yul\":949:1068   */\n  iszero\n  tag_37\n  jumpi\n    /* \"#utility.yul\":987:1066   */\n  tag_38\n  tag_18\n  jump\t// in\ntag_38:\n    /* \"#utility.yul\":949:1068   */\ntag_37:\n    /* \"#utility.yul\":1107:1108   */\n  0x00\n    /* \"#utility.yul\":1132:1196   */\n  tag_39\n    /* \"#utility.yul\":1188:1195   */\n  dup6\n    /* \"#utility.yul\":1179:1185   */\n  dup3\n    /* \"#utility.yul\":1168:1177   */\n  dup7\n    /* \"#utility.yul\":1164:1186   */\n  add\n    /* \"#utility.yul\":1132:1196   */\n  tag_23\n  jump\t// in\ntag_39:\n    /* \"#utility.yul\":1122:1196   */\n  swap3\n  pop\n    /* \"#utility.yul\":1078:1206   */\n  pop\n    /* \"#utility.yul\":1245:1247   */\n  0x20\n    /* \"#utility.yul\":1271:1335   */\n  tag_40\n    /* \"#utility.yul\":1327:1334   */\n  dup6\n    /* \"#utility.yul\":1318:1324   */\n  dup3\n    /* \"#utility.yul\":1307:1316   */\n  dup7\n    /* \"#utility.yul\":1303:1325   */\n  add\n    /* \"#utility.yul\":1271:1335   */\n  tag_23\n  jump\t// in\ntag_40:\n    /* \"#utility.yul\":1261:1335   */\n  swap2\n  pop\n    /* \"#utility.yul\":1216:1345   */\n  pop\n    /* \"#utility.yul\":845:1352   */\n  swap3\n  pop\n  swap3\n  swap1\n  pop\n  jump\t// out\n    /* \"contracts/NFTStaking.sol\":415:3876  contract MoonRabbitsStaking is Ownable, ReentrancyGuard {... */\ntag_14:\n  dataSize(sub_0)\n  dup1\n  dataOffset(sub_0)\n  0x00\n  codecopy\n  0x00\n  return\nstop\n\nsub_0: assembly {\n        /* \"contracts/NFTStaking.sol\":415:3876  contract MoonRabbitsStaking is Ownable, ReentrancyGuard {... */\n      mstore(0x40, 0x80)\n      callvalue\n      dup1\n      iszero\n      tag_1\n      jumpi\n      0x00\n      dup1\n      revert\n    tag_1:\n      pop\n      jumpi(tag_2, lt(calldatasize, 0x04))\n      shr(0xe0, calldataload(0x00))\n      dup1\n      0x78dba594\n      gt\n      tag_16\n      jumpi\n      dup1\n      0xd5a44f86\n      gt\n      tag_17\n      jumpi\n      dup1\n      0xd5a44f86\n      eq\n      tag_12\n      jumpi\n      dup1\n      0xf2fde38b\n      eq\n      tag_13\n      jumpi\n      dup1\n      0xf7c618c1\n      eq\n      tag_14\n      jumpi\n      dup1\n      0xfbaca086\n      eq\n      tag_15\n      jumpi\n      jump(tag_2)\n    tag_17:\n      dup1\n      0x78dba594\n      eq\n      tag_9\n      jumpi\n      dup1\n      0x79e5f7d7\n      eq\n      tag_10\n      jumpi\n      dup1\n      0x8da5cb5b\n      eq\n      tag_11\n      jumpi\n      jump(tag_2)\n    tag_16:\n      dup1\n      0x2986c0e5\n      eq\n      tag_3\n      jumpi\n      dup1\n      0x3af416d1\n      eq\n      tag_4\n      jumpi\n      dup1\n      0x3f106929\n      eq\n      tag_5\n      jumpi\n      dup1\n      0x51cecc80\n      eq\n      tag_6\n      jumpi\n      dup1\n      0x715018a6\n      eq\n      tag_7\n      jumpi\n      dup1\n      0x78b2e3a9\n      eq\n      tag_8\n      jumpi\n    tag_2:\n      0x00\n      dup1\n      revert\n        /* \"contracts/NFTStaking.sol\":609:633  uint256 public index = 0 */\n    tag_3:\n      tag_18\n      tag_19\n      jump\t// in\n    tag_18:\n      mload(0x40)\n      tag_20\n      swap2\n      swap1\n      tag_21\n      jump\t// in\n    tag_20:\n      mload(0x40)\n      dup1\n      swap2\n      sub\n      swap1\n      return\n        /* \"contracts/NFTStaking.sol\":956:1010  mapping(address => uint256[]) public unstaking_details */\n    tag_4:\n      tag_22\n      0x04\n      dup1\n      calldatasize\n      sub\n      dup2\n      add\n      swap1\n      tag_23\n      swap2\n      swap1\n      tag_24\n      jump\t// in\n    tag_23:\n      tag_25\n      jump\t// in\n    tag_22:\n      mload(0x40)\n      tag_26\n      swap2\n      swap1\n      tag_21\n      jump\t// in\n    tag_26:\n      mload(0x40)\n      dup1\n      swap2\n      sub\n      swap1\n      return\n        /* \"contracts/NFTStaking.sol\":898:950  mapping(address => uint256[]) public staking_details */\n    tag_5:\n      tag_27\n      0x04\n      dup1\n      calldatasize\n      sub\n      dup2\n      add\n      swap1\n      tag_28\n      swap2\n      swap1\n      tag_24\n      jump\t// in\n    tag_28:\n      tag_29\n      jump\t// in\n    tag_27:\n      mload(0x40)\n      tag_30\n      swap2\n      swap1\n      tag_21\n      jump\t// in\n    tag_30:\n      mload(0x40)\n      dup1\n      swap2\n      sub\n      swap1\n      return\n        /* \"contracts/NFTStaking.sol\":1902:2352  function stakeNFT(uint256 _tokenId, uint256 _pool) public {... */\n    tag_6:\n      tag_31\n      0x04\n      dup1\n      calldatasize\n      sub\n      dup2\n      add\n      swap1\n      tag_32\n      swap2\n      swap1\n      tag_33\n      jump\t// in\n    tag_32:\n      tag_34\n      jump\t// in\n    tag_31:\n      stop\n        /* \"@openzeppelin/contracts/access/Ownable.sol\":1831:1932  function renounceOwnership() public virtual onlyOwner {... */\n    tag_7:\n      tag_35\n      tag_36\n      jump\t// in\n    tag_35:\n      stop\n        /* \"contracts/NFTStaking.sol\":497:525  IERC721 public NFTCollection */\n    tag_8:\n      tag_37\n      tag_38\n      jump\t// in\n    tag_37:\n      mload(0x40)\n      tag_39\n      swap2\n      swap1\n      tag_40\n      jump\t// in\n    tag_39:\n      mload(0x40)\n      dup1\n      swap2\n      sub\n      swap1\n      return\n        /* \"contracts/NFTStaking.sol\":2515:3148  function unStakeNFT(uint256 _index,uint256 _tokenId, uint256 _pool) public {... */\n    tag_9:\n      tag_41\n      0x04\n      dup1\n      calldatasize\n      sub\n      dup2\n      add\n      swap1\n      tag_42\n      swap2\n      swap1\n      tag_43\n      jump\t// in\n    tag_42:\n      tag_44\n      jump\t// in\n    tag_41:\n      stop\n        /* \"contracts/NFTStaking.sol\":3241:3432  function userStakingList(address _user)... */\n    tag_10:\n      tag_45\n      0x04\n      dup1\n      calldatasize\n      sub\n      dup2\n      add\n      swap1\n      tag_46\n      swap2\n      swap1\n      tag_47\n      jump\t// in\n    tag_46:\n      tag_48\n      jump\t// in\n    tag_45:\n      mload(0x40)\n      tag_49\n      swap2\n      swap1\n      tag_50\n      jump\t// in\n    tag_49:\n      mload(0x40)\n      dup1\n      swap2\n      sub\n      swap1\n      return\n        /* \"@openzeppelin/contracts/access/Ownable.sol\":1201:1286  function owner() public view virtual returns (address) {... */\n    tag_11:\n      tag_51\n      tag_52\n      jump\t// in\n    tag_51:\n      mload(0x40)\n      tag_53\n      swap2\n      swap1\n      tag_54\n      jump\t// in\n    tag_53:\n      mload(0x40)\n      dup1\n      swap2\n      sub\n      swap1\n      return\n        /* \"contracts/NFTStaking.sol\":852:892  mapping(uint256 => Staker) public stakes */\n    tag_12:\n      tag_55\n      0x04\n      dup1\n      calldatasize\n      sub\n      dup2\n      add\n      swap1\n      tag_56\n      swap2\n      swap1\n      tag_57\n      jump\t// in\n    tag_56:\n      tag_58\n      jump\t// in\n    tag_55:\n      mload(0x40)\n      tag_59\n      swap6\n      swap5\n      swap4\n      swap3\n      swap2\n      swap1\n      tag_60\n      jump\t// in\n    tag_59:\n      mload(0x40)\n      dup1\n      swap2\n      sub\n      swap1\n      return\n        /* \"@openzeppelin/contracts/access/Ownable.sol\":2081:2279  function transferOwnership(address newOwner) public virtual onlyOwner {... */\n    tag_13:\n      tag_61\n      0x04\n      dup1\n      calldatasize\n      sub\n      dup2\n      add\n      swap1\n      tag_62\n      swap2\n      swap1\n      tag_47\n      jump\t// in\n    tag_62:\n      tag_63\n      jump\t// in\n    tag_61:\n      stop\n        /* \"contracts/NFTStaking.sol\":553:578  IERC20 public rewardToken */\n    tag_14:\n      tag_64\n      tag_65\n      jump\t// in\n    tag_64:\n      mload(0x40)\n      tag_66\n      swap2\n      swap1\n      tag_67\n      jump\t// in\n    tag_66:\n      mload(0x40)\n      dup1\n      swap2\n      sub\n      swap1\n      return\n        /* \"contracts/NFTStaking.sol\":3570:3874  function checkIfAlreadyUnstaked(uint256 _tempIndex,address _user) public view returns(bool) {... */\n    tag_15:\n      tag_68\n      0x04\n      dup1\n      calldatasize\n      sub\n      dup2\n      add\n      swap1\n      tag_69\n      swap2\n      swap1\n      tag_70\n      jump\t// in\n    tag_69:\n      tag_71\n      jump\t// in\n    tag_68:\n      mload(0x40)\n      tag_72\n      swap2\n      swap1\n      tag_73\n      jump\t// in\n    tag_72:\n      mload(0x40)\n      dup1\n      swap2\n      sub\n      swap1\n      return\n        /* \"contracts/NFTStaking.sol\":609:633  uint256 public index = 0 */\n    tag_19:\n      sload(0x04)\n      dup2\n      jump\t// out\n        /* \"contracts/NFTStaking.sol\":956:1010  mapping(address => uint256[]) public unstaking_details */\n    tag_25:\n      mstore(0x20, 0x08)\n      dup2\n      0x00\n      mstore\n      keccak256(0x00, 0x40)\n      dup2\n      dup2\n      sload\n      dup2\n      lt\n      tag_74\n      jumpi\n      0x00\n      dup1\n      revert\n    tag_74:\n      swap1\n      0x00\n      mstore\n      keccak256(0x00, 0x20)\n      add\n      0x00\n      swap2\n      pop\n      swap2\n      pop\n      pop\n      sload\n      dup2\n      jump\t// out\n        /* \"contracts/NFTStaking.sol\":898:950  mapping(address => uint256[]) public staking_details */\n    tag_29:\n      mstore(0x20, 0x07)\n      dup2\n      0x00\n      mstore\n      keccak256(0x00, 0x40)\n      dup2\n      dup2\n      sload\n      dup2\n      lt\n      tag_76\n      jumpi\n      0x00\n      dup1\n      revert\n    tag_76:\n      swap1\n      0x00\n      mstore\n      keccak256(0x00, 0x20)\n      add\n      0x00\n      swap2\n      pop\n      swap2\n      pop\n      pop\n      sload\n      dup2\n      jump\t// out\n        /* \"contracts/NFTStaking.sol\":1902:2352  function stakeNFT(uint256 _tokenId, uint256 _pool) public {... */\n    tag_34:\n        /* \"contracts/NFTStaking.sol\":2013:2023  msg.sender */\n      caller\n        /* \"contracts/NFTStaking.sol\":1978:2023  NFTCollection.ownerOf(_tokenId) == msg.sender */\n      0xffffffffffffffffffffffffffffffffffffffff\n      and\n        /* \"contracts/NFTStaking.sol\":1978:1991  NFTCollection */\n      0x02\n      0x00\n      swap1\n      sload\n      swap1\n      0x0100\n      exp\n      swap1\n      div\n      0xffffffffffffffffffffffffffffffffffffffff\n      and\n        /* \"contracts/NFTStaking.sol\":1978:1999  NFTCollection.ownerOf */\n      0xffffffffffffffffffffffffffffffffffffffff\n      and\n      0x6352211e\n        /* \"contracts/NFTStaking.sol\":2000:2008  _tokenId */\n      dup5\n        /* \"contracts/NFTStaking.sol\":1978:2009  NFTCollection.ownerOf(_tokenId) */\n      mload(0x40)\n      dup3\n      0xffffffff\n      and\n      0xe0\n      shl\n      dup2\n      mstore\n      0x04\n      add\n      tag_79\n      swap2\n      swap1\n      tag_21\n      jump\t// in\n    tag_79:\n      0x20\n      mload(0x40)\n      dup1\n      dup4\n      sub\n      dup2\n      dup7\n      gas\n      staticcall\n      iszero\n      dup1\n      iszero\n      tag_81\n      jumpi\n      returndatasize\n      0x00\n      dup1\n      returndatacopy\n      revert(0x00, returndatasize)\n    tag_81:\n      pop\n      pop\n      pop\n      pop\n      mload(0x40)\n      returndatasize\n      not(0x1f)\n      0x1f\n      dup3\n      add\n      and\n      dup3\n      add\n      dup1\n      0x40\n      mstore\n      pop\n      dup2\n      add\n      swap1\n      tag_82\n      swap2\n      swap1\n      tag_83\n      jump\t// in\n    tag_82:\n        /* \"contracts/NFTStaking.sol\":1978:2023  NFTCollection.ownerOf(_tokenId) == msg.sender */\n      0xffffffffffffffffffffffffffffffffffffffff\n      and\n      eq\n        /* \"contracts/NFTStaking.sol\":1970:2057  require(NFTCollection.ownerOf(_tokenId) == msg.sender,\"Can't stake nft you don't own!\") */\n      tag_84\n      jumpi\n      mload(0x40)\n      0x08c379a000000000000000000000000000000000000000000000000000000000\n      dup2\n      mstore\n      0x04\n      add\n      tag_85\n      swap1\n      tag_86\n      jump\t// in\n    tag_85:\n      mload(0x40)\n      dup1\n      swap2\n      sub\n      swap1\n      revert\n    tag_84:\n        /* \"contracts/NFTStaking.sol\":2083:2140  Staker(index,msg.sender,_tokenId, _pool, block.timestamp) */\n      mload(0x40)\n      dup1\n      0xa0\n      add\n      0x40\n      mstore\n      dup1\n        /* \"contracts/NFTStaking.sol\":2090:2095  index */\n      sload(0x04)\n        /* \"contracts/NFTStaking.sol\":2083:2140  Staker(index,msg.sender,_tokenId, _pool, block.timestamp) */\n      dup2\n      mstore\n      0x20\n      add\n        /* \"contracts/NFTStaking.sol\":2096:2106  msg.sender */\n      caller\n        /* \"contracts/NFTStaking.sol\":2083:2140  Staker(index,msg.sender,_tokenId, _pool, block.timestamp) */\n      0xffffffffffffffffffffffffffffffffffffffff\n      and\n      dup2\n      mstore\n      0x20\n      add\n        /* \"contracts/NFTStaking.sol\":2107:2115  _tokenId */\n      dup4\n        /* \"contracts/NFTStaking.sol\":2083:2140  Staker(index,msg.sender,_tokenId, _pool, block.timestamp) */\n      dup2\n      mstore\n      0x20\n      add\n        /* \"contracts/NFTStaking.sol\":2117:2122  _pool */\n      dup3\n        /* \"contracts/NFTStaking.sol\":2083:2140  Staker(index,msg.sender,_tokenId, _pool, block.timestamp) */\n      dup2\n      mstore\n      0x20\n      add\n        /* \"contracts/NFTStaking.sol\":2124:2139  block.timestamp */\n      timestamp\n        /* \"contracts/NFTStaking.sol\":2083:2140  Staker(index,msg.sender,_tokenId, _pool, block.timestamp) */\n      dup2\n      mstore\n      pop\n        /* \"contracts/NFTStaking.sol\":2067:2073  stakes */\n      0x06\n        /* \"contracts/NFTStaking.sol\":2067:2080  stakes[index] */\n      0x00\n        /* \"contracts/NFTStaking.sol\":2074:2079  index */\n      sload(0x04)\n        /* \"contracts/NFTStaking.sol\":2067:2080  stakes[index] */\n      dup2\n      mstore\n      0x20\n      add\n      swap1\n      dup2\n      mstore\n      0x20\n      add\n      0x00\n      keccak256\n        /* \"contracts/NFTStaking.sol\":2067:2140  stakes[index] = Staker(index,msg.sender,_tokenId, _pool, block.timestamp) */\n      0x00\n      dup3\n      add\n      mload\n      dup2\n      0x00\n      add\n      sstore\n      0x20\n      dup3\n      add\n      mload\n      dup2\n      0x01\n      add\n      exp(0x0100, 0x00)\n      dup2\n      sload\n      dup2\n      0xffffffffffffffffffffffffffffffffffffffff\n      mul\n      not\n      and\n      swap1\n      dup4\n      0xffffffffffffffffffffffffffffffffffffffff\n      and\n      mul\n      or\n      swap1\n      sstore\n      pop\n      0x40\n      dup3\n      add\n      mload\n      dup2\n      0x02\n      add\n      sstore\n      0x60\n      dup3\n      add\n      mload\n      dup2\n      0x03\n      add\n      sstore\n      0x80\n      dup3\n      add\n      mload\n      dup2\n      0x04\n      add\n      sstore\n      swap1\n      pop\n      pop\n        /* \"contracts/NFTStaking.sol\":2150:2165  staking_details */\n      0x07\n        /* \"contracts/NFTStaking.sol\":2150:2177  staking_details[msg.sender] */\n      0x00\n        /* \"contracts/NFTStaking.sol\":2166:2176  msg.sender */\n      caller\n        /* \"contracts/NFTStaking.sol\":2150:2177  staking_details[msg.sender] */\n      0xffffffffffffffffffffffffffffffffffffffff\n      and\n      0xffffffffffffffffffffffffffffffffffffffff\n      and\n      dup2\n      mstore\n      0x20\n      add\n      swap1\n      dup2\n      mstore\n      0x20\n      add\n      0x00\n      keccak256\n        /* \"contracts/NFTStaking.sol\":2183:2188  index */\n      sload(0x04)\n        /* \"contracts/NFTStaking.sol\":2150:2189  staking_details[msg.sender].push(index) */\n      swap1\n      dup1\n      0x01\n      dup2\n      sload\n      add\n      dup1\n      dup3\n      sstore\n      dup1\n      swap2\n      pop\n      pop\n      0x01\n      swap1\n      sub\n      swap1\n      0x00\n      mstore\n      keccak256(0x00, 0x20)\n      add\n      0x00\n      swap1\n      swap2\n      swap1\n      swap2\n      swap1\n      swap2\n      pop\n      sstore\n        /* \"contracts/NFTStaking.sol\":2199:2212  NFTCollection */\n      0x02\n      0x00\n      swap1\n      sload\n      swap1\n      0x0100\n      exp\n      swap1\n      div\n      0xffffffffffffffffffffffffffffffffffffffff\n      and\n        /* \"contracts/NFTStaking.sol\":2199:2225  NFTCollection.transferFrom */\n      0xffffffffffffffffffffffffffffffffffffffff\n      and\n      0x23b872dd\n        /* \"contracts/NFTStaking.sol\":2226:2236  msg.sender */\n      caller\n        /* \"contracts/NFTStaking.sol\":2246:2250  this */\n      address\n        /* \"contracts/NFTStaking.sol\":2253:2261  _tokenId */\n      dup6\n        /* \"contracts/NFTStaking.sol\":2199:2262  NFTCollection.transferFrom(msg.sender, address(this), _tokenId) */\n      mload(0x40)\n      dup5\n      0xffffffff\n      and\n      0xe0\n      shl\n      dup2\n      mstore\n      0x04\n      add\n      tag_88\n      swap4\n      swap3\n      swap2\n      swap1\n      tag_89\n      jump\t// in\n    tag_88:\n      0x00\n      mload(0x40)\n      dup1\n      dup4\n      sub\n      dup2\n      0x00\n      dup8\n      dup1\n      extcodesize\n      iszero\n      dup1\n      iszero\n      tag_90\n      jumpi\n      0x00\n      dup1\n      revert\n    tag_90:\n      pop\n      gas\n      call\n      iszero\n      dup1\n      iszero\n      tag_92\n      jumpi\n      returndatasize\n      0x00\n      dup1\n      returndatacopy\n      revert(0x00, returndatasize)\n    tag_92:\n      pop\n      pop\n      pop\n      pop\n        /* \"contracts/NFTStaking.sol\":2272:2277  index */\n      0x04\n      0x00\n        /* \"contracts/NFTStaking.sol\":2272:2279  index++ */\n      dup2\n      sload\n      dup1\n      swap3\n      swap2\n      swap1\n      tag_93\n      swap1\n      tag_94\n      jump\t// in\n    tag_93:\n      swap2\n      swap1\n      pop\n      sstore\n      pop\n        /* \"contracts/NFTStaking.sol\":2300:2310  msg.sender */\n      caller\n        /* \"contracts/NFTStaking.sol\":2294:2345  Stake(msg.sender, _tokenId, _pool, block.timestamp) */\n      0xffffffffffffffffffffffffffffffffffffffff\n      and\n      0xf556991011e831bcfac4f406d547e5e32cdd98267efab83935230d5f8d02c446\n        /* \"contracts/NFTStaking.sol\":2312:2320  _tokenId */\n      dup4\n        /* \"contracts/NFTStaking.sol\":2322:2327  _pool */\n      dup4\n        /* \"contracts/NFTStaking.sol\":2329:2344  block.timestamp */\n      timestamp\n        /* \"contracts/NFTStaking.sol\":2294:2345  Stake(msg.sender, _tokenId, _pool, block.timestamp) */\n      mload(0x40)\n      tag_95\n      swap4\n      swap3\n      swap2\n      swap1\n      tag_96\n      jump\t// in\n    tag_95:\n      mload(0x40)\n      dup1\n      swap2\n      sub\n      swap1\n      log2\n        /* \"contracts/NFTStaking.sol\":1902:2352  function stakeNFT(uint256 _tokenId, uint256 _pool) public {... */\n      pop\n      pop\n      jump\t// out\n        /* \"@openzeppelin/contracts/access/Ownable.sol\":1831:1932  function renounceOwnership() public virtual onlyOwner {... */\n    tag_36:\n        /* \"@openzeppelin/contracts/access/Ownable.sol\":1094:1107  _checkOwner() */\n      tag_98\n        /* \"@openzeppelin/contracts/access/Ownable.sol\":1094:1105  _checkOwner */\n      tag_99\n        /* \"@openzeppelin/contracts/access/Ownable.sol\":1094:1107  _checkOwner() */\n      jump\t// in\n    tag_98:\n        /* \"@openzeppelin/contracts/access/Ownable.sol\":1895:1925  _transferOwnership(address(0)) */\n      tag_101\n        /* \"@openzeppelin/contracts/access/Ownable.sol\":1922:1923  0 */\n      0x00\n        /* \"@openzeppelin/contracts/access/Ownable.sol\":1895:1913  _transferOwnership */\n      tag_102\n        /* \"@openzeppelin/contracts/access/Ownable.sol\":1895:1925  _transferOwnership(address(0)) */\n      jump\t// in\n    tag_101:\n        /* \"@openzeppelin/contracts/access/Ownable.sol\":1831:1932  function renounceOwnership() public virtual onlyOwner {... */\n      jump\t// out\n        /* \"contracts/NFTStaking.sol\":497:525  IERC721 public NFTCollection */\n    tag_38:\n      0x02\n      0x00\n      swap1\n      sload\n      swap1\n      0x0100\n      exp\n      swap1\n      div\n      0xffffffffffffffffffffffffffffffffffffffff\n      and\n      dup2\n      jump\t// out\n        /* \"contracts/NFTStaking.sol\":2515:3148  function unStakeNFT(uint256 _index,uint256 _tokenId, uint256 _pool) public {... */\n    tag_44:\n        /* \"contracts/NFTStaking.sol\":2671:2676  _pool */\n      dup1\n        /* \"contracts/NFTStaking.sol\":2665:2667  24 */\n      0x18\n        /* \"contracts/NFTStaking.sol\":2660:2662  60 */\n      0x3c\n        /* \"contracts/NFTStaking.sol\":2655:2657  60 */\n      dup1\n        /* \"contracts/NFTStaking.sol\":2627:2633  stakes */\n      0x06\n        /* \"contracts/NFTStaking.sol\":2627:2641  stakes[_index] */\n      0x00\n        /* \"contracts/NFTStaking.sol\":2634:2640  _index */\n      dup9\n        /* \"contracts/NFTStaking.sol\":2627:2641  stakes[_index] */\n      dup2\n      mstore\n      0x20\n      add\n      swap1\n      dup2\n      mstore\n      0x20\n      add\n      0x00\n      keccak256\n        /* \"contracts/NFTStaking.sol\":2627:2651  stakes[_index].timestamp */\n      0x04\n      add\n      sload\n        /* \"contracts/NFTStaking.sol\":2609:2624  block.timestamp */\n      timestamp\n        /* \"contracts/NFTStaking.sol\":2609:2651  block.timestamp - stakes[_index].timestamp */\n      tag_104\n      swap2\n      swap1\n      tag_105\n      jump\t// in\n    tag_104:\n        /* \"contracts/NFTStaking.sol\":2608:2657  (block.timestamp - stakes[_index].timestamp) / 60 */\n      tag_106\n      swap2\n      swap1\n      tag_107\n      jump\t// in\n    tag_106:\n        /* \"contracts/NFTStaking.sol\":2608:2662  (block.timestamp - stakes[_index].timestamp) / 60 / 60 */\n      tag_108\n      swap2\n      swap1\n      tag_107\n      jump\t// in\n    tag_108:\n        /* \"contracts/NFTStaking.sol\":2608:2667  (block.timestamp - stakes[_index].timestamp) / 60 / 60 / 24 */\n      tag_109\n      swap2\n      swap1\n      tag_107\n      jump\t// in\n    tag_109:\n        /* \"contracts/NFTStaking.sol\":2608:2676  (block.timestamp - stakes[_index].timestamp) / 60 / 60 / 24 >= _pool */\n      lt\n      iszero\n        /* \"contracts/NFTStaking.sol\":2600:2710  require((block.timestamp - stakes[_index].timestamp) / 60 / 60 / 24 >= _pool,\"Staking pool not ended yet!!!!\") */\n      tag_110\n      jumpi\n      mload(0x40)\n      0x08c379a000000000000000000000000000000000000000000000000000000000\n      dup2\n      mstore\n      0x04\n      add\n      tag_111\n      swap1\n      tag_112\n      jump\t// in\n    tag_111:\n      mload(0x40)\n      dup1\n      swap2\n      sub\n      swap1\n      revert\n    tag_110:\n        /* \"contracts/NFTStaking.sol\":2751:2761  msg.sender */\n      caller\n        /* \"contracts/NFTStaking.sol\":2728:2761  stakes[_index].user == msg.sender */\n      0xffffffffffffffffffffffffffffffffffffffff\n      and\n        /* \"contracts/NFTStaking.sol\":2728:2734  stakes */\n      0x06\n        /* \"contracts/NFTStaking.sol\":2728:2742  stakes[_index] */\n      0x00\n        /* \"contracts/NFTStaking.sol\":2735:2741  _index */\n      dup6\n        /* \"contracts/NFTStaking.sol\":2728:2742  stakes[_index] */\n      dup2\n      mstore\n      0x20\n      add\n      swap1\n      dup2\n      mstore\n      0x20\n      add\n      0x00\n      keccak256\n        /* \"contracts/NFTStaking.sol\":2728:2747  stakes[_index].user */\n      0x01\n      add\n      0x00\n      swap1\n      sload\n      swap1\n      0x0100\n      exp\n      swap1\n      div\n      0xffffffffffffffffffffffffffffffffffffffff\n      and\n        /* \"contracts/NFTStaking.sol\":2728:2761  stakes[_index].user == msg.sender */\n      0xffffffffffffffffffffffffffffffffffffffff\n      and\n      eq\n        /* \"contracts/NFTStaking.sol\":2720:2802  require(stakes[_index].user == msg.sender,\"You are not owner of this NFT staking\") */\n      tag_113\n      jumpi\n      mload(0x40)\n      0x08c379a000000000000000000000000000000000000000000000000000000000\n      dup2\n      mstore\n      0x04\n      add\n      tag_114\n      swap1\n      tag_115\n      jump\t// in\n    tag_114:\n      mload(0x40)\n      dup1\n      swap2\n      sub\n      swap1\n      revert\n    tag_113:\n        /* \"contracts/NFTStaking.sol\":2819:2825  stakes */\n      0x06\n        /* \"contracts/NFTStaking.sol\":2819:2833  stakes[_index] */\n      0x00\n        /* \"contracts/NFTStaking.sol\":2826:2832  _index */\n      dup5\n        /* \"contracts/NFTStaking.sol\":2819:2833  stakes[_index] */\n      dup2\n      mstore\n      0x20\n      add\n      swap1\n      dup2\n      mstore\n      0x20\n      add\n      0x00\n      keccak256\n      0x00\n        /* \"contracts/NFTStaking.sol\":2812:2833  delete stakes[_index] */\n      dup1\n      dup3\n      add\n      0x00\n      swap1\n      sstore\n      0x01\n      dup3\n      add\n      exp(0x0100, 0x00)\n      dup2\n      sload\n      swap1\n      0xffffffffffffffffffffffffffffffffffffffff\n      mul\n      not\n      and\n      swap1\n      sstore\n      0x02\n      dup3\n      add\n      0x00\n      swap1\n      sstore\n      0x03\n      dup3\n      add\n      0x00\n      swap1\n      sstore\n      0x04\n      dup3\n      add\n      0x00\n      swap1\n      sstore\n      pop\n      pop\n        /* \"contracts/NFTStaking.sol\":2843:2860  unstaking_details */\n      0x08\n        /* \"contracts/NFTStaking.sol\":2843:2872  unstaking_details[msg.sender] */\n      0x00\n        /* \"contracts/NFTStaking.sol\":2861:2871  msg.sender */\n      caller\n        /* \"contracts/NFTStaking.sol\":2843:2872  unstaking_details[msg.sender] */\n      0xffffffffffffffffffffffffffffffffffffffff\n      and\n      0xffffffffffffffffffffffffffffffffffffffff\n      and\n      dup2\n      mstore\n      0x20\n      add\n      swap1\n      dup2\n      mstore\n      0x20\n      add\n      0x00\n      keccak256\n        /* \"contracts/NFTStaking.sol\":2878:2884  _index */\n      dup4\n        /* \"contracts/NFTStaking.sol\":2843:2885  unstaking_details[msg.sender].push(_index) */\n      swap1\n      dup1\n      0x01\n      dup2\n      sload\n      add\n      dup1\n      dup3\n      sstore\n      dup1\n      swap2\n      pop\n      pop\n      0x01\n      swap1\n      sub\n      swap1\n      0x00\n      mstore\n      keccak256(0x00, 0x20)\n      add\n      0x00\n      swap1\n      swap2\n      swap1\n      swap2\n      swap1\n      swap2\n      pop\n      sstore\n        /* \"contracts/NFTStaking.sol\":2895:2908  NFTCollection */\n      0x02\n      0x00\n      swap1\n      sload\n      swap1\n      0x0100\n      exp\n      swap1\n      div\n      0xffffffffffffffffffffffffffffffffffffffff\n      and\n        /* \"contracts/NFTStaking.sol\":2895:2921  NFTCollection.transferFrom */\n      0xffffffffffffffffffffffffffffffffffffffff\n      and\n      0x23b872dd\n        /* \"contracts/NFTStaking.sol\":2931:2935  this */\n      address\n        /* \"contracts/NFTStaking.sol\":2938:2948  msg.sender */\n      caller\n        /* \"contracts/NFTStaking.sol\":2950:2958  _tokenId */\n      dup6\n        /* \"contracts/NFTStaking.sol\":2895:2959  NFTCollection.transferFrom( address(this), msg.sender, _tokenId) */\n      mload(0x40)\n      dup5\n      0xffffffff\n      and\n      0xe0\n      shl\n      dup2\n      mstore\n      0x04\n      add\n      tag_117\n      swap4\n      swap3\n      swap2\n      swap1\n      tag_89\n      jump\t// in\n    tag_117:\n      0x00\n      mload(0x40)\n      dup1\n      dup4\n      sub\n      dup2\n      0x00\n      dup8\n      dup1\n      extcodesize\n      iszero\n      dup1\n      iszero\n      tag_118\n      jumpi\n      0x00\n      dup1\n      revert\n    tag_118:\n      pop\n      gas\n      call\n      iszero\n      dup1\n      iszero\n      tag_120\n      jumpi\n      returndatasize\n      0x00\n      dup1\n      returndatacopy\n      revert(0x00, returndatasize)\n    tag_120:\n      pop\n      pop\n      pop\n      pop\n        /* \"contracts/NFTStaking.sol\":2969:2983  uint256 reward */\n      0x00\n        /* \"contracts/NFTStaking.sol\":2987:3013  calculateRewardPool(_pool) */\n      tag_121\n        /* \"contracts/NFTStaking.sol\":3007:3012  _pool */\n      dup3\n        /* \"contracts/NFTStaking.sol\":2987:3006  calculateRewardPool */\n      tag_122\n        /* \"contracts/NFTStaking.sol\":2987:3013  calculateRewardPool(_pool) */\n      jump\t// in\n    tag_121:\n        /* \"contracts/NFTStaking.sol\":2969:3013  uint256 reward =  calculateRewardPool(_pool) */\n      swap1\n      pop\n        /* \"contracts/NFTStaking.sol\":3023:3034  rewardToken */\n      0x03\n      0x00\n      swap1\n      sload\n      swap1\n      0x0100\n      exp\n      swap1\n      div\n      0xffffffffffffffffffffffffffffffffffffffff\n      and\n        /* \"contracts/NFTStaking.sol\":3023:3043  rewardToken.transfer */\n      0xffffffffffffffffffffffffffffffffffffffff\n      and\n      0xa9059cbb\n        /* \"contracts/NFTStaking.sol\":3045:3055  msg.sender */\n      caller\n        /* \"contracts/NFTStaking.sol\":3057:3063  reward */\n      dup4\n        /* \"contracts/NFTStaking.sol\":3023:3064  rewardToken.transfer( msg.sender, reward) */\n      mload(0x40)\n      dup4\n      0xffffffff\n      and\n      0xe0\n      shl\n      dup2\n      mstore\n      0x04\n      add\n      tag_123\n      swap3\n      swap2\n      swap1\n      tag_124\n      jump\t// in\n    tag_123:\n      0x20\n      mload(0x40)\n      dup1\n      dup4\n      sub\n      dup2\n      0x00\n      dup8\n      gas\n      call\n      iszero\n      dup1\n      iszero\n      tag_126\n      jumpi\n      returndatasize\n      0x00\n      dup1\n      returndatacopy\n      revert(0x00, returndatasize)\n    tag_126:\n      pop\n      pop\n      pop\n      pop\n      mload(0x40)\n      returndatasize\n      not(0x1f)\n      0x1f\n      dup3\n      add\n      and\n      dup3\n      add\n      dup1\n      0x40\n      mstore\n      pop\n      dup2\n      add\n      swap1\n      tag_127\n      swap2\n      swap1\n      tag_128\n      jump\t// in\n    tag_127:\n      pop\n        /* \"contracts/NFTStaking.sol\":3087:3097  msg.sender */\n      caller\n        /* \"contracts/NFTStaking.sol\":3079:3141  UnStake(msg.sender, _tokenId, _pool,  block.timestamp, reward) */\n      0xffffffffffffffffffffffffffffffffffffffff\n      and\n      0xf74c9f1985016ff6aa83c3fd81e31d0be3b194f205ae5e1b57f5bd74ad28e4cf\n        /* \"contracts/NFTStaking.sol\":3099:3107  _tokenId */\n      dup5\n        /* \"contracts/NFTStaking.sol\":3109:3114  _pool */\n      dup5\n        /* \"contracts/NFTStaking.sol\":3117:3132  block.timestamp */\n      timestamp\n        /* \"contracts/NFTStaking.sol\":3134:3140  reward */\n      dup6\n        /* \"contracts/NFTStaking.sol\":3079:3141  UnStake(msg.sender, _tokenId, _pool,  block.timestamp, reward) */\n      mload(0x40)\n      tag_129\n      swap5\n      swap4\n      swap3\n      swap2\n      swap1\n      tag_130\n      jump\t// in\n    tag_129:\n      mload(0x40)\n      dup1\n      swap2\n      sub\n      swap1\n      log2\n        /* \"contracts/NFTStaking.sol\":2590:3148  {... */\n      pop\n        /* \"contracts/NFTStaking.sol\":2515:3148  function unStakeNFT(uint256 _index,uint256 _tokenId, uint256 _pool) public {... */\n      pop\n      pop\n      pop\n      jump\t// out\n        /* \"contracts/NFTStaking.sol\":3241:3432  function userStakingList(address _user)... */\n    tag_48:\n        /* \"contracts/NFTStaking.sol\":3326:3342  uint256[] memory */\n      0x60\n        /* \"contracts/NFTStaking.sol\":3358:3379  uint256[] memory list */\n      0x00\n        /* \"contracts/NFTStaking.sol\":3382:3397  staking_details */\n      0x07\n        /* \"contracts/NFTStaking.sol\":3382:3404  staking_details[_user] */\n      0x00\n        /* \"contracts/NFTStaking.sol\":3398:3403  _user */\n      dup5\n        /* \"contracts/NFTStaking.sol\":3382:3404  staking_details[_user] */\n      0xffffffffffffffffffffffffffffffffffffffff\n      and\n      0xffffffffffffffffffffffffffffffffffffffff\n      and\n      dup2\n      mstore\n      0x20\n      add\n      swap1\n      dup2\n      mstore\n      0x20\n      add\n      0x00\n      keccak256\n        /* \"contracts/NFTStaking.sol\":3358:3404  uint256[] memory list = staking_details[_user] */\n      dup1\n      sload\n      dup1\n      0x20\n      mul\n      0x20\n      add\n      mload(0x40)\n      swap1\n      dup2\n      add\n      0x40\n      mstore\n      dup1\n      swap3\n      swap2\n      swap1\n      dup2\n      dup2\n      mstore\n      0x20\n      add\n      dup3\n      dup1\n      sload\n      dup1\n      iszero\n      tag_132\n      jumpi\n      0x20\n      mul\n      dup3\n      add\n      swap2\n      swap1\n      0x00\n      mstore\n      keccak256(0x00, 0x20)\n      swap1\n    tag_133:\n      dup2\n      sload\n      dup2\n      mstore\n      0x20\n      add\n      swap1\n      0x01\n      add\n      swap1\n      dup1\n      dup4\n      gt\n      tag_133\n      jumpi\n    tag_132:\n      pop\n      pop\n      pop\n      pop\n      pop\n      swap1\n      pop\n        /* \"contracts/NFTStaking.sol\":3421:3425  list */\n      dup1\n        /* \"contracts/NFTStaking.sol\":3414:3425  return list */\n      swap2\n      pop\n      pop\n        /* \"contracts/NFTStaking.sol\":3241:3432  function userStakingList(address _user)... */\n      swap2\n      swap1\n      pop\n      jump\t// out\n        /* \"@openzeppelin/contracts/access/Ownable.sol\":1201:1286  function owner() public view virtual returns (address) {... */\n    tag_52:\n        /* \"@openzeppelin/contracts/access/Ownable.sol\":1247:1254  address */\n      0x00\n        /* \"@openzeppelin/contracts/access/Ownable.sol\":1273:1279  _owner */\n      dup1\n      0x00\n      swap1\n      sload\n      swap1\n      0x0100\n      exp\n      swap1\n      div\n      0xffffffffffffffffffffffffffffffffffffffff\n      and\n        /* \"@openzeppelin/contracts/access/Ownable.sol\":1266:1279  return _owner */\n      swap1\n      pop\n        /* \"@openzeppelin/contracts/access/Ownable.sol\":1201:1286  function owner() public view virtual returns (address) {... */\n      swap1\n      jump\t// out\n        /* \"contracts/NFTStaking.sol\":852:892  mapping(uint256 => Staker) public stakes */\n    tag_58:\n      mstore(0x20, 0x06)\n      dup1\n      0x00\n      mstore\n      keccak256(0x00, 0x40)\n      0x00\n      swap2\n      pop\n      swap1\n      pop\n      dup1\n      0x00\n      add\n      sload\n      swap1\n      dup1\n      0x01\n      add\n      0x00\n      swap1\n      sload\n      swap1\n      0x0100\n      exp\n      swap1\n      div\n      0xffffffffffffffffffffffffffffffffffffffff\n      and\n      swap1\n      dup1\n      0x02\n      add\n      sload\n      swap1\n      dup1\n      0x03\n      add\n      sload\n      swap1\n      dup1\n      0x04\n      add\n      sload\n      swap1\n      pop\n      dup6\n      jump\t// out\n        /* \"@openzeppelin/contracts/access/Ownable.sol\":2081:2279  function transferOwnership(address newOwner) public virtual onlyOwner {... */\n    tag_63:\n        /* \"@openzeppelin/contracts/access/Ownable.sol\":1094:1107  _checkOwner() */\n      tag_136\n        /* \"@openzeppelin/contracts/access/Ownable.sol\":1094:1105  _checkOwner */\n      tag_99\n        /* \"@openzeppelin/contracts/access/Ownable.sol\":1094:1107  _checkOwner() */\n      jump\t// in\n    tag_136:\n        /* \"@openzeppelin/contracts/access/Ownable.sol\":2189:2190  0 */\n      0x00\n        /* \"@openzeppelin/contracts/access/Ownable.sol\":2169:2191  newOwner != address(0) */\n      0xffffffffffffffffffffffffffffffffffffffff\n      and\n        /* \"@openzeppelin/contracts/access/Ownable.sol\":2169:2177  newOwner */\n      dup2\n        /* \"@openzeppelin/contracts/access/Ownable.sol\":2169:2191  newOwner != address(0) */\n      0xffffffffffffffffffffffffffffffffffffffff\n      and\n      sub\n        /* \"@openzeppelin/contracts/access/Ownable.sol\":2161:2234  require(newOwner != address(0), \"Ownable: new owner is the zero address\") */\n      tag_138\n      jumpi\n      mload(0x40)\n      0x08c379a000000000000000000000000000000000000000000000000000000000\n      dup2\n      mstore\n      0x04\n      add\n      tag_139\n      swap1\n      tag_140\n      jump\t// in\n    tag_139:\n      mload(0x40)\n      dup1\n      swap2\n      sub\n      swap1\n      revert\n    tag_138:\n        /* \"@openzeppelin/contracts/access/Ownable.sol\":2244:2272  _transferOwnership(newOwner) */\n      tag_141\n        /* \"@openzeppelin/contracts/access/Ownable.sol\":2263:2271  newOwner */\n      dup2\n        /* \"@openzeppelin/contracts/access/Ownable.sol\":2244:2262  _transferOwnership */\n      tag_102\n        /* \"@openzeppelin/contracts/access/Ownable.sol\":2244:2272  _transferOwnership(newOwner) */\n      jump\t// in\n    tag_141:\n        /* \"@openzeppelin/contracts/access/Ownable.sol\":2081:2279  function transferOwnership(address newOwner) public virtual onlyOwner {... */\n      pop\n      jump\t// out\n        /* \"contracts/NFTStaking.sol\":553:578  IERC20 public rewardToken */\n    tag_65:\n      0x03\n      0x00\n      swap1\n      sload\n      swap1\n      0x0100\n      exp\n      swap1\n      div\n      0xffffffffffffffffffffffffffffffffffffffff\n      and\n      dup2\n      jump\t// out\n        /* \"contracts/NFTStaking.sol\":3570:3874  function checkIfAlreadyUnstaked(uint256 _tempIndex,address _user) public view returns(bool) {... */\n    tag_71:\n        /* \"contracts/NFTStaking.sol\":3656:3660  bool */\n      0x00\n        /* \"contracts/NFTStaking.sol\":3677:3683  uint j */\n      dup1\n        /* \"contracts/NFTStaking.sol\":3684:3685  0 */\n      0x00\n        /* \"contracts/NFTStaking.sol\":3677:3685  uint j=0 */\n      swap1\n      pop\n        /* \"contracts/NFTStaking.sol\":3672:3844  for (uint j=0; j < unstaking_details[_user].length; j++) {... */\n    tag_143:\n        /* \"contracts/NFTStaking.sol\":3691:3708  unstaking_details */\n      0x08\n        /* \"contracts/NFTStaking.sol\":3691:3715  unstaking_details[_user] */\n      0x00\n        /* \"contracts/NFTStaking.sol\":3709:3714  _user */\n      dup5\n        /* \"contracts/NFTStaking.sol\":3691:3715  unstaking_details[_user] */\n      0xffffffffffffffffffffffffffffffffffffffff\n      and\n      0xffffffffffffffffffffffffffffffffffffffff\n      and\n      dup2\n      mstore\n      0x20\n      add\n      swap1\n      dup2\n      mstore\n      0x20\n      add\n      0x00\n      keccak256\n        /* \"contracts/NFTStaking.sol\":3691:3722  unstaking_details[_user].length */\n      dup1\n      sload\n      swap1\n      pop\n        /* \"contracts/NFTStaking.sol\":3687:3688  j */\n      dup2\n        /* \"contracts/NFTStaking.sol\":3687:3722  j < unstaking_details[_user].length */\n      lt\n        /* \"contracts/NFTStaking.sol\":3672:3844  for (uint j=0; j < unstaking_details[_user].length; j++) {... */\n      iszero\n      tag_144\n      jumpi\n        /* \"contracts/NFTStaking.sol\":3775:3785  _tempIndex */\n      dup4\n        /* \"contracts/NFTStaking.sol\":3746:3763  unstaking_details */\n      0x08\n        /* \"contracts/NFTStaking.sol\":3746:3770  unstaking_details[_user] */\n      0x00\n        /* \"contracts/NFTStaking.sol\":3764:3769  _user */\n      dup6\n        /* \"contracts/NFTStaking.sol\":3746:3770  unstaking_details[_user] */\n      0xffffffffffffffffffffffffffffffffffffffff\n      and\n      0xffffffffffffffffffffffffffffffffffffffff\n      and\n      dup2\n      mstore\n      0x20\n      add\n      swap1\n      dup2\n      mstore\n      0x20\n      add\n      0x00\n      keccak256\n        /* \"contracts/NFTStaking.sol\":3771:3772  j */\n      dup3\n        /* \"contracts/NFTStaking.sol\":3746:3773  unstaking_details[_user][j] */\n      dup2\n      sload\n      dup2\n      lt\n      tag_146\n      jumpi\n      tag_147\n      tag_148\n      jump\t// in\n    tag_147:\n    tag_146:\n      swap1\n      0x00\n      mstore\n      keccak256(0x00, 0x20)\n      add\n      sload\n        /* \"contracts/NFTStaking.sol\":3746:3785  unstaking_details[_user][j]==_tempIndex */\n      sub\n        /* \"contracts/NFTStaking.sol\":3743:3834  if(unstaking_details[_user][j]==_tempIndex){... */\n      tag_150\n      jumpi\n        /* \"contracts/NFTStaking.sol\":3815:3819  true */\n      0x01\n        /* \"contracts/NFTStaking.sol\":3808:3819  return true */\n      swap2\n      pop\n      pop\n      jump(tag_142)\n        /* \"contracts/NFTStaking.sol\":3743:3834  if(unstaking_details[_user][j]==_tempIndex){... */\n    tag_150:\n        /* \"contracts/NFTStaking.sol\":3724:3727  j++ */\n      dup1\n      dup1\n      tag_151\n      swap1\n      tag_94\n      jump\t// in\n    tag_151:\n      swap2\n      pop\n      pop\n        /* \"contracts/NFTStaking.sol\":3672:3844  for (uint j=0; j < unstaking_details[_user].length; j++) {... */\n      jump(tag_143)\n    tag_144:\n      pop\n        /* \"contracts/NFTStaking.sol\":3862:3867  false */\n      0x00\n        /* \"contracts/NFTStaking.sol\":3855:3867  return false */\n      swap1\n      pop\n        /* \"contracts/NFTStaking.sol\":3570:3874  function checkIfAlreadyUnstaked(uint256 _tempIndex,address _user) public view returns(bool) {... */\n    tag_142:\n      swap3\n      swap2\n      pop\n      pop\n      jump\t// out\n        /* \"@openzeppelin/contracts/access/Ownable.sol\":1359:1489  function _checkOwner() internal view virtual {... */\n    tag_99:\n        /* \"@openzeppelin/contracts/access/Ownable.sol\":1433:1445  _msgSender() */\n      tag_153\n        /* \"@openzeppelin/contracts/access/Ownable.sol\":1433:1443  _msgSender */\n      tag_154\n        /* \"@openzeppelin/contracts/access/Ownable.sol\":1433:1445  _msgSender() */\n      jump\t// in\n    tag_153:\n        /* \"@openzeppelin/contracts/access/Ownable.sol\":1422:1445  owner() == _msgSender() */\n      0xffffffffffffffffffffffffffffffffffffffff\n      and\n        /* \"@openzeppelin/contracts/access/Ownable.sol\":1422:1429  owner() */\n      tag_155\n        /* \"@openzeppelin/contracts/access/Ownable.sol\":1422:1427  owner */\n      tag_52\n        /* \"@openzeppelin/contracts/access/Ownable.sol\":1422:1429  owner() */\n      jump\t// in\n    tag_155:\n        /* \"@openzeppelin/contracts/access/Ownable.sol\":1422:1445  owner() == _msgSender() */\n      0xffffffffffffffffffffffffffffffffffffffff\n      and\n      eq\n        /* \"@openzeppelin/contracts/access/Ownable.sol\":1414:1482  require(owner() == _msgSender(), \"Ownable: caller is not the owner\") */\n      tag_156\n      jumpi\n      mload(0x40)\n      0x08c379a000000000000000000000000000000000000000000000000000000000\n      dup2\n      mstore\n      0x04\n      add\n      tag_157\n      swap1\n      tag_158\n      jump\t// in\n    tag_157:\n      mload(0x40)\n      dup1\n      swap2\n      sub\n      swap1\n      revert\n    tag_156:\n        /* \"@openzeppelin/contracts/access/Ownable.sol\":1359:1489  function _checkOwner() internal view virtual {... */\n      jump\t// out\n        /* \"@openzeppelin/contracts/access/Ownable.sol\":2433:2620  function _transferOwnership(address newOwner) internal virtual {... */\n    tag_102:\n        /* \"@openzeppelin/contracts/access/Ownable.sol\":2506:2522  address oldOwner */\n      0x00\n        /* \"@openzeppelin/contracts/access/Ownable.sol\":2525:2531  _owner */\n      dup1\n      0x00\n      swap1\n      sload\n      swap1\n      0x0100\n      exp\n      swap1\n      div\n      0xffffffffffffffffffffffffffffffffffffffff\n      and\n        /* \"@openzeppelin/contracts/access/Ownable.sol\":2506:2531  address oldOwner = _owner */\n      swap1\n      pop\n        /* \"@openzeppelin/contracts/access/Ownable.sol\":2550:2558  newOwner */\n      dup2\n        /* \"@openzeppelin/contracts/access/Ownable.sol\":2541:2547  _owner */\n      0x00\n      dup1\n        /* \"@openzeppelin/contracts/access/Ownable.sol\":2541:2558  _owner = newOwner */\n      0x0100\n      exp\n      dup2\n      sload\n      dup2\n      0xffffffffffffffffffffffffffffffffffffffff\n      mul\n      not\n      and\n      swap1\n      dup4\n      0xffffffffffffffffffffffffffffffffffffffff\n      and\n      mul\n      or\n      swap1\n      sstore\n      pop\n        /* \"@openzeppelin/contracts/access/Ownable.sol\":2604:2612  newOwner */\n      dup2\n        /* \"@openzeppelin/contracts/access/Ownable.sol\":2573:2613  OwnershipTransferred(oldOwner, newOwner) */\n      0xffffffffffffffffffffffffffffffffffffffff\n      and\n        /* \"@openzeppelin/contracts/access/Ownable.sol\":2594:2602  oldOwner */\n      dup2\n        /* \"@openzeppelin/contracts/access/Ownable.sol\":2573:2613  OwnershipTransferred(oldOwner, newOwner) */\n      0xffffffffffffffffffffffffffffffffffffffff\n      and\n      0x8be0079c531659141344cd1fd0a4f28419497f9722a3daafe3b4186f6b6457e0\n      mload(0x40)\n      mload(0x40)\n      dup1\n      swap2\n      sub\n      swap1\n      log3\n        /* \"@openzeppelin/contracts/access/Ownable.sol\":2496:2620  {... */\n      pop\n        /* \"@openzeppelin/contracts/access/Ownable.sol\":2433:2620  function _transferOwnership(address newOwner) internal virtual {... */\n      pop\n      jump\t// out\n        /* \"contracts/NFTStaking.sol\":1457:1752  function calculateRewardPool(uint256 _pool) private pure returns(uint256)  {... */\n    tag_122:\n        /* \"contracts/NFTStaking.sol\":1522:1529  uint256 */\n      0x00\n        /* \"contracts/NFTStaking.sol\":1552:1553  7 */\n      0x07\n        /* \"contracts/NFTStaking.sol\":1545:1550  _pool */\n      dup3\n        /* \"contracts/NFTStaking.sol\":1545:1553  _pool==7 */\n      sub\n        /* \"contracts/NFTStaking.sol\":1542:1746  if(_pool==7) {... */\n      tag_161\n      jumpi\n        /* \"contracts/NFTStaking.sol\":1576:1580  1000 */\n      0x03e8\n        /* \"contracts/NFTStaking.sol\":1569:1580  return 1000 */\n      swap1\n      pop\n      jump(tag_160)\n        /* \"contracts/NFTStaking.sol\":1542:1746  if(_pool==7) {... */\n    tag_161:\n        /* \"contracts/NFTStaking.sol\":1607:1609  14 */\n      0x0e\n        /* \"contracts/NFTStaking.sol\":1600:1605  _pool */\n      dup3\n        /* \"contracts/NFTStaking.sol\":1600:1609  _pool==14 */\n      sub\n        /* \"contracts/NFTStaking.sol\":1597:1746  if(_pool==14) {... */\n      tag_163\n      jumpi\n        /* \"contracts/NFTStaking.sol\":1632:1636  3000 */\n      0x0bb8\n        /* \"contracts/NFTStaking.sol\":1625:1636  return 3000 */\n      swap1\n      pop\n      jump(tag_160)\n        /* \"contracts/NFTStaking.sol\":1597:1746  if(_pool==14) {... */\n    tag_163:\n        /* \"contracts/NFTStaking.sol\":1663:1665  30 */\n      0x1e\n        /* \"contracts/NFTStaking.sol\":1656:1661  _pool */\n      dup3\n        /* \"contracts/NFTStaking.sol\":1656:1665  _pool==30 */\n      sub\n        /* \"contracts/NFTStaking.sol\":1653:1746  if(_pool==30) {... */\n      tag_165\n      jumpi\n        /* \"contracts/NFTStaking.sol\":1688:1692  5000 */\n      0x1388\n        /* \"contracts/NFTStaking.sol\":1681:1692  return 5000 */\n      swap1\n      pop\n      jump(tag_160)\n        /* \"contracts/NFTStaking.sol\":1653:1746  if(_pool==30) {... */\n    tag_165:\n        /* \"contracts/NFTStaking.sol\":1730:1735  10000 */\n      0x2710\n        /* \"contracts/NFTStaking.sol\":1723:1735  return 10000 */\n      swap1\n      pop\n        /* \"contracts/NFTStaking.sol\":1457:1752  function calculateRewardPool(uint256 _pool) private pure returns(uint256)  {... */\n    tag_160:\n      swap2\n      swap1\n      pop\n      jump\t// out\n        /* \"@openzeppelin/contracts/utils/Context.sol\":640:736  function _msgSender() internal view virtual returns (address) {... */\n    tag_154:\n        /* \"@openzeppelin/contracts/utils/Context.sol\":693:700  address */\n      0x00\n        /* \"@openzeppelin/contracts/utils/Context.sol\":719:729  msg.sender */\n      caller\n        /* \"@openzeppelin/contracts/utils/Context.sol\":712:729  return msg.sender */\n      swap1\n      pop\n        /* \"@openzeppelin/contracts/utils/Context.sol\":640:736  function _msgSender() internal view virtual returns (address) {... */\n      swap1\n      jump\t// out\n        /* \"#utility.yul\":7:84   */\n    tag_168:\n        /* \"#utility.yul\":44:51   */\n      0x00\n        /* \"#utility.yul\":73:78   */\n      dup2\n        /* \"#utility.yul\":62:78   */\n      swap1\n      pop\n        /* \"#utility.yul\":7:84   */\n      swap2\n      swap1\n      pop\n      jump\t// out\n        /* \"#utility.yul\":90:208   */\n    tag_169:\n        /* \"#utility.yul\":177:201   */\n      tag_215\n        /* \"#utility.yul\":195:200   */\n      dup2\n        /* \"#utility.yul\":177:201   */\n      tag_168\n      jump\t// in\n    tag_215:\n        /* \"#utility.yul\":172:175   */\n      dup3\n        /* \"#utility.yul\":165:202   */\n      mstore\n        /* \"#utility.yul\":90:208   */\n      pop\n      pop\n      jump\t// out\n        /* \"#utility.yul\":214:436   */\n    tag_21:\n        /* \"#utility.yul\":307:311   */\n      0x00\n        /* \"#utility.yul\":345:347   */\n      0x20\n        /* \"#utility.yul\":334:343   */\n      dup3\n        /* \"#utility.yul\":330:348   */\n      add\n        /* \"#utility.yul\":322:348   */\n      swap1\n      pop\n        /* \"#utility.yul\":358:429   */\n      tag_217\n        /* \"#utility.yul\":426:427   */\n      0x00\n        /* \"#utility.yul\":415:424   */\n      dup4\n        /* \"#utility.yul\":411:428   */\n      add\n        /* \"#utility.yul\":402:408   */\n      dup5\n        /* \"#utility.yul\":358:429   */\n      tag_169\n      jump\t// in\n    tag_217:\n        /* \"#utility.yul\":214:436   */\n      swap3\n      swap2\n      pop\n      pop\n      jump\t// out\n        /* \"#utility.yul\":523:640   */\n    tag_171:\n        /* \"#utility.yul\":632:633   */\n      0x00\n        /* \"#utility.yul\":629:630   */\n      dup1\n        /* \"#utility.yul\":622:634   */\n      revert\n        /* \"#utility.yul\":769:895   */\n    tag_173:\n        /* \"#utility.yul\":806:813   */\n      0x00\n        /* \"#utility.yul\":846:888   */\n      0xffffffffffffffffffffffffffffffffffffffff\n        /* \"#utility.yul\":839:844   */\n      dup3\n        /* \"#utility.yul\":835:889   */\n      and\n        /* \"#utility.yul\":824:889   */\n      swap1\n      pop\n        /* \"#utility.yul\":769:895   */\n      swap2\n      swap1\n      pop\n      jump\t// out\n        /* \"#utility.yul\":901:997   */\n    tag_174:\n        /* \"#utility.yul\":938:945   */\n      0x00\n        /* \"#utility.yul\":967:991   */\n      tag_223\n        /* \"#utility.yul\":985:990   */\n      dup3\n        /* \"#utility.yul\":967:991   */\n      tag_173\n      jump\t// in\n    tag_223:\n        /* \"#utility.yul\":956:991   */\n      swap1\n      pop\n        /* \"#utility.yul\":901:997   */\n      swap2\n      swap1\n      pop\n      jump\t// out\n        /* \"#utility.yul\":1003:1125   */\n    tag_175:\n        /* \"#utility.yul\":1076:1100   */\n      tag_225\n        /* \"#utility.yul\":1094:1099   */\n      dup2\n        /* \"#utility.yul\":1076:1100   */\n      tag_174\n      jump\t// in\n    tag_225:\n        /* \"#utility.yul\":1069:1074   */\n      dup2\n        /* \"#utility.yul\":1066:1101   */\n      eq\n        /* \"#utility.yul\":1056:1119   */\n      tag_226\n      jumpi\n        /* \"#utility.yul\":1115:1116   */\n      0x00\n        /* \"#utility.yul\":1112:1113   */\n      dup1\n        /* \"#utility.yul\":1105:1117   */\n      revert\n        /* \"#utility.yul\":1056:1119   */\n    tag_226:\n        /* \"#utility.yul\":1003:1125   */\n      pop\n      jump\t// out\n        /* \"#utility.yul\":1131:1270   */\n    tag_176:\n        /* \"#utility.yul\":1177:1182   */\n      0x00\n        /* \"#utility.yul\":1215:1221   */\n      dup2\n        /* \"#utility.yul\":1202:1222   */\n      calldataload\n        /* \"#utility.yul\":1193:1222   */\n      swap1\n      pop\n        /* \"#utility.yul\":1231:1264   */\n      tag_228\n        /* \"#utility.yul\":1258:1263   */\n      dup2\n        /* \"#utility.yul\":1231:1264   */\n      tag_175\n      jump\t// in\n    tag_228:\n        /* \"#utility.yul\":1131:1270   */\n      swap3\n      swap2\n      pop\n      pop\n      jump\t// out\n        /* \"#utility.yul\":1276:1398   */\n    tag_177:\n        /* \"#utility.yul\":1349:1373   */\n      tag_230\n        /* \"#utility.yul\":1367:1372   */\n      dup2\n        /* \"#utility.yul\":1349:1373   */\n      tag_168\n      jump\t// in\n    tag_230:\n        /* \"#utility.yul\":1342:1347   */\n      dup2\n        /* \"#utility.yul\":1339:1374   */\n      eq\n        /* \"#utility.yul\":1329:1392   */\n      tag_231\n      jumpi\n        /* \"#utility.yul\":1388:1389   */\n      0x00\n        /* \"#utility.yul\":1385:1386   */\n      dup1\n        /* \"#utility.yul\":1378:1390   */\n      revert\n        /* \"#utility.yul\":1329:1392   */\n    tag_231:\n        /* \"#utility.yul\":1276:1398   */\n      pop\n      jump\t// out\n        /* \"#utility.yul\":1404:1543   */\n    tag_178:\n        /* \"#utility.yul\":1450:1455   */\n      0x00\n        /* \"#utility.yul\":1488:1494   */\n      dup2\n        /* \"#utility.yul\":1475:1495   */\n      calldataload\n        /* \"#utility.yul\":1466:1495   */\n      swap1\n      pop\n        /* \"#utility.yul\":1504:1537   */\n      tag_233\n        /* \"#utility.yul\":1531:1536   */\n      dup2\n        /* \"#utility.yul\":1504:1537   */\n      tag_177\n      jump\t// in\n    tag_233:\n        /* \"#utility.yul\":1404:1543   */\n      swap3\n      swap2\n      pop\n      pop\n      jump\t// out\n        /* \"#utility.yul\":1549:2023   */\n    tag_24:\n        /* \"#utility.yul\":1617:1623   */\n      0x00\n        /* \"#utility.yul\":1625:1631   */\n      dup1\n        /* \"#utility.yul\":1674:1676   */\n      0x40\n        /* \"#utility.yul\":1662:1671   */\n      dup4\n        /* \"#utility.yul\":1653:1660   */\n      dup6\n        /* \"#utility.yul\":1649:1672   */\n      sub\n        /* \"#utility.yul\":1645:1677   */\n      slt\n        /* \"#utility.yul\":1642:1761   */\n      iszero\n      tag_235\n      jumpi\n        /* \"#utility.yul\":1680:1759   */\n      tag_236\n      tag_171\n      jump\t// in\n    tag_236:\n        /* \"#utility.yul\":1642:1761   */\n    tag_235:\n        /* \"#utility.yul\":1800:1801   */\n      0x00\n        /* \"#utility.yul\":1825:1878   */\n      tag_237\n        /* \"#utility.yul\":1870:1877   */\n      dup6\n        /* \"#utility.yul\":1861:1867   */\n      dup3\n        /* \"#utility.yul\":1850:1859   */\n      dup7\n        /* \"#utility.yul\":1846:1868   */\n      add\n        /* \"#utility.yul\":1825:1878   */\n      tag_176\n      jump\t// in\n    tag_237:\n        /* \"#utility.yul\":1815:1878   */\n      swap3\n      pop\n        /* \"#utility.yul\":1771:1888   */\n      pop\n        /* \"#utility.yul\":1927:1929   */\n      0x20\n        /* \"#utility.yul\":1953:2006   */\n      tag_238\n        /* \"#utility.yul\":1998:2005   */\n      dup6\n        /* \"#utility.yul\":1989:1995   */\n      dup3\n        /* \"#utility.yul\":1978:1987   */\n      dup7\n        /* \"#utility.yul\":1974:1996   */\n      add\n        /* \"#utility.yul\":1953:2006   */\n      tag_178\n      jump\t// in\n    tag_238:\n        /* \"#utility.yul\":1943:2006   */\n      swap2\n      pop\n        /* \"#utility.yul\":1898:2016   */\n      pop\n        /* \"#utility.yul\":1549:2023   */\n      swap3\n      pop\n      swap3\n      swap1\n      pop\n      jump\t// out\n        /* \"#utility.yul\":2029:2503   */\n    tag_33:\n        /* \"#utility.yul\":2097:2103   */\n      0x00\n        /* \"#utility.yul\":2105:2111   */\n      dup1\n        /* \"#utility.yul\":2154:2156   */\n      0x40\n        /* \"#utility.yul\":2142:2151   */\n      dup4\n        /* \"#utility.yul\":2133:2140   */\n      dup6\n        /* \"#utility.yul\":2129:2152   */\n      sub\n        /* \"#utility.yul\":2125:2157   */\n      slt\n        /* \"#utility.yul\":2122:2241   */\n      iszero\n      tag_240\n      jumpi\n        /* \"#utility.yul\":2160:2239   */\n      tag_241\n      tag_171\n      jump\t// in\n    tag_241:\n        /* \"#utility.yul\":2122:2241   */\n    tag_240:\n        /* \"#utility.yul\":2280:2281   */\n      0x00\n        /* \"#utility.yul\":2305:2358   */\n      tag_242\n        /* \"#utility.yul\":2350:2357   */\n      dup6\n        /* \"#utility.yul\":2341:2347   */\n      dup3\n        /* \"#utility.yul\":2330:2339   */\n      dup7\n        /* \"#utility.yul\":2326:2348   */\n      add\n        /* \"#utility.yul\":2305:2358   */\n      tag_178\n      jump\t// in\n    tag_242:\n        /* \"#utility.yul\":2295:2358   */\n      swap3\n      pop\n        /* \"#utility.yul\":2251:2368   */\n      pop\n        /* \"#utility.yul\":2407:2409   */\n      0x20\n        /* \"#utility.yul\":2433:2486   */\n      tag_243\n        /* \"#utility.yul\":2478:2485   */\n      dup6\n        /* \"#utility.yul\":2469:2475   */\n      dup3\n        /* \"#utility.yul\":2458:2467   */\n      dup7\n        /* \"#utility.yul\":2454:2476   */\n      add\n        /* \"#utility.yul\":2433:2486   */\n      tag_178\n      jump\t// in\n    tag_243:\n        /* \"#utility.yul\":2423:2486   */\n      swap2\n      pop\n        /* \"#utility.yul\":2378:2496   */\n      pop\n        /* \"#utility.yul\":2029:2503   */\n      swap3\n      pop\n      swap3\n      swap1\n      pop\n      jump\t// out\n        /* \"#utility.yul\":2509:2569   */\n    tag_179:\n        /* \"#utility.yul\":2537:2540   */\n      0x00\n        /* \"#utility.yul\":2558:2563   */\n      dup2\n        /* \"#utility.yul\":2551:2563   */\n      swap1\n      pop\n        /* \"#utility.yul\":2509:2569   */\n      swap2\n      swap1\n      pop\n      jump\t// out\n        /* \"#utility.yul\":2575:2717   */\n    tag_180:\n        /* \"#utility.yul\":2625:2634   */\n      0x00\n        /* \"#utility.yul\":2658:2711   */\n      tag_246\n        /* \"#utility.yul\":2676:2710   */\n      tag_247\n        /* \"#utility.yul\":2685:2709   */\n      tag_248\n        /* \"#utility.yul\":2703:2708   */\n      dup5\n        /* \"#utility.yul\":2685:2709   */\n      tag_173\n      jump\t// in\n    tag_248:\n        /* \"#utility.yul\":2676:2710   */\n      tag_179\n      jump\t// in\n    tag_247:\n        /* \"#utility.yul\":2658:2711   */\n      tag_173\n      jump\t// in\n    tag_246:\n        /* \"#utility.yul\":2645:2711   */\n      swap1\n      pop\n        /* \"#utility.yul\":2575:2717   */\n      swap2\n      swap1\n      pop\n      jump\t// out\n        /* \"#utility.yul\":2723:2849   */\n    tag_181:\n        /* \"#utility.yul\":2773:2782   */\n      0x00\n        /* \"#utility.yul\":2806:2843   */\n      tag_250\n        /* \"#utility.yul\":2837:2842   */\n      dup3\n        /* \"#utility.yul\":2806:2843   */\n      tag_180\n      jump\t// in\n    tag_250:\n        /* \"#utility.yul\":2793:2843   */\n      swap1\n      pop\n        /* \"#utility.yul\":2723:2849   */\n      swap2\n      swap1\n      pop\n      jump\t// out\n        /* \"#utility.yul\":2855:2996   */\n    tag_182:\n        /* \"#utility.yul\":2920:2929   */\n      0x00\n        /* \"#utility.yul\":2953:2990   */\n      tag_252\n        /* \"#utility.yul\":2984:2989   */\n      dup3\n        /* \"#utility.yul\":2953:2990   */\n      tag_181\n      jump\t// in\n    tag_252:\n        /* \"#utility.yul\":2940:2990   */\n      swap1\n      pop\n        /* \"#utility.yul\":2855:2996   */\n      swap2\n      swap1\n      pop\n      jump\t// out\n        /* \"#utility.yul\":3002:3163   */\n    tag_183:\n        /* \"#utility.yul\":3104:3156   */\n      tag_254\n        /* \"#utility.yul\":3150:3155   */\n      dup2\n        /* \"#utility.yul\":3104:3156   */\n      tag_182\n      jump\t// in\n    tag_254:\n        /* \"#utility.yul\":3099:3102   */\n      dup3\n        /* \"#utility.yul\":3092:3157   */\n      mstore\n        /* \"#utility.yul\":3002:3163   */\n      pop\n      pop\n      jump\t// out\n        /* \"#utility.yul\":3169:3421   */\n    tag_40:\n        /* \"#utility.yul\":3277:3281   */\n      0x00\n        /* \"#utility.yul\":3315:3317   */\n      0x20\n        /* \"#utility.yul\":3304:3313   */\n      dup3\n        /* \"#utility.yul\":3300:3318   */\n      add\n        /* \"#utility.yul\":3292:3318   */\n      swap1\n      pop\n        /* \"#utility.yul\":3328:3414   */\n      tag_256\n        /* \"#utility.yul\":3411:3412   */\n      0x00\n        /* \"#utility.yul\":3400:3409   */\n      dup4\n        /* \"#utility.yul\":3396:3413   */\n      add\n        /* \"#utility.yul\":3387:3393   */\n      dup5\n        /* \"#utility.yul\":3328:3414   */\n      tag_183\n      jump\t// in\n    tag_256:\n        /* \"#utility.yul\":3169:3421   */\n      swap3\n      swap2\n      pop\n      pop\n      jump\t// out\n        /* \"#utility.yul\":3427:4046   */\n    tag_43:\n        /* \"#utility.yul\":3504:3510   */\n      0x00\n        /* \"#utility.yul\":3512:3518   */\n      dup1\n        /* \"#utility.yul\":3520:3526   */\n      0x00\n        /* \"#utility.yul\":3569:3571   */\n      0x60\n        /* \"#utility.yul\":3557:3566   */\n      dup5\n        /* \"#utility.yul\":3548:3555   */\n      dup7\n        /* \"#utility.yul\":3544:3567   */\n      sub\n        /* \"#utility.yul\":3540:3572   */\n      slt\n        /* \"#utility.yul\":3537:3656   */\n      iszero\n      tag_258\n      jumpi\n        /* \"#utility.yul\":3575:3654   */\n      tag_259\n      tag_171\n      jump\t// in\n    tag_259:\n        /* \"#utility.yul\":3537:3656   */\n    tag_258:\n        /* \"#utility.yul\":3695:3696   */\n      0x00\n        /* \"#utility.yul\":3720:3773   */\n      tag_260\n        /* \"#utility.yul\":3765:3772   */\n      dup7\n        /* \"#utility.yul\":3756:3762   */\n      dup3\n        /* \"#utility.yul\":3745:3754   */\n      dup8\n        /* \"#utility.yul\":3741:3763   */\n      add\n        /* \"#utility.yul\":3720:3773   */\n      tag_178\n      jump\t// in\n    tag_260:\n        /* \"#utility.yul\":3710:3773   */\n      swap4\n      pop\n        /* \"#utility.yul\":3666:3783   */\n      pop\n        /* \"#utility.yul\":3822:3824   */\n      0x20\n        /* \"#utility.yul\":3848:3901   */\n      tag_261\n        /* \"#utility.yul\":3893:3900   */\n      dup7\n        /* \"#utility.yul\":3884:3890   */\n      dup3\n        /* \"#utility.yul\":3873:3882   */\n      dup8\n        /* \"#utility.yul\":3869:3891   */\n      add\n        /* \"#utility.yul\":3848:3901   */\n      tag_178\n      jump\t// in\n    tag_261:\n        /* \"#utility.yul\":3838:3901   */\n      swap3\n      pop\n        /* \"#utility.yul\":3793:3911   */\n      pop\n        /* \"#utility.yul\":3950:3952   */\n      0x40\n        /* \"#utility.yul\":3976:4029   */\n      tag_262\n        /* \"#utility.yul\":4021:4028   */\n      dup7\n        /* \"#utility.yul\":4012:4018   */\n      dup3\n        /* \"#utility.yul\":4001:4010   */\n      dup8\n        /* \"#utility.yul\":3997:4019   */\n      add\n        /* \"#utility.yul\":3976:4029   */\n      tag_178\n      jump\t// in\n    tag_262:\n        /* \"#utility.yul\":3966:4029   */\n      swap2\n      pop\n        /* \"#utility.yul\":3921:4039   */\n      pop\n        /* \"#utility.yul\":3427:4046   */\n      swap3\n      pop\n      swap3\n      pop\n      swap3\n      jump\t// out\n        /* \"#utility.yul\":4052:4381   */\n    tag_47:\n        /* \"#utility.yul\":4111:4117   */\n      0x00\n        /* \"#utility.yul\":4160:4162   */\n      0x20\n        /* \"#utility.yul\":4148:4157   */\n      dup3\n        /* \"#utility.yul\":4139:4146   */\n      dup5\n        /* \"#utility.yul\":4135:4158   */\n      sub\n        /* \"#utility.yul\":4131:4163   */\n      slt\n        /* \"#utility.yul\":4128:4247   */\n      iszero\n      tag_264\n      jumpi\n        /* \"#utility.yul\":4166:4245   */\n      tag_265\n      tag_171\n      jump\t// in\n    tag_265:\n        /* \"#utility.yul\":4128:4247   */\n    tag_264:\n        /* \"#utility.yul\":4286:4287   */\n      0x00\n        /* \"#utility.yul\":4311:4364   */\n      tag_266\n        /* \"#utility.yul\":4356:4363   */\n      dup5\n        /* \"#utility.yul\":4347:4353   */\n      dup3\n        /* \"#utility.yul\":4336:4345   */\n      dup6\n        /* \"#utility.yul\":4332:4354   */\n      add\n        /* \"#utility.yul\":4311:4364   */\n      tag_176\n      jump\t// in\n    tag_266:\n        /* \"#utility.yul\":4301:4364   */\n      swap2\n      pop\n        /* \"#utility.yul\":4257:4374   */\n      pop\n        /* \"#utility.yul\":4052:4381   */\n      swap3\n      swap2\n      pop\n      pop\n      jump\t// out\n        /* \"#utility.yul\":4387:4501   */\n    tag_184:\n        /* \"#utility.yul\":4454:4460   */\n      0x00\n        /* \"#utility.yul\":4488:4493   */\n      dup2\n        /* \"#utility.yul\":4482:4494   */\n      mload\n        /* \"#utility.yul\":4472:4494   */\n      swap1\n      pop\n        /* \"#utility.yul\":4387:4501   */\n      swap2\n      swap1\n      pop\n      jump\t// out\n        /* \"#utility.yul\":4507:4691   */\n    tag_185:\n        /* \"#utility.yul\":4606:4617   */\n      0x00\n        /* \"#utility.yul\":4640:4646   */\n      dup3\n        /* \"#utility.yul\":4635:4638   */\n      dup3\n        /* \"#utility.yul\":4628:4647   */\n      mstore\n        /* \"#utility.yul\":4680:4684   */\n      0x20\n        /* \"#utility.yul\":4675:4678   */\n      dup3\n        /* \"#utility.yul\":4671:4685   */\n      add\n        /* \"#utility.yul\":4656:4685   */\n      swap1\n      pop\n        /* \"#utility.yul\":4507:4691   */\n      swap3\n      swap2\n      pop\n      pop\n      jump\t// out\n        /* \"#utility.yul\":4697:4829   */\n    tag_186:\n        /* \"#utility.yul\":4764:4768   */\n      0x00\n        /* \"#utility.yul\":4787:4790   */\n      dup2\n        /* \"#utility.yul\":4779:4790   */\n      swap1\n      pop\n        /* \"#utility.yul\":4817:4821   */\n      0x20\n        /* \"#utility.yul\":4812:4815   */\n      dup3\n        /* \"#utility.yul\":4808:4822   */\n      add\n        /* \"#utility.yul\":4800:4822   */\n      swap1\n      pop\n        /* \"#utility.yul\":4697:4829   */\n      swap2\n      swap1\n      pop\n      jump\t// out\n        /* \"#utility.yul\":4835:4943   */\n    tag_187:\n        /* \"#utility.yul\":4912:4936   */\n      tag_271\n        /* \"#utility.yul\":4930:4935   */\n      dup2\n        /* \"#utility.yul\":4912:4936   */\n      tag_168\n      jump\t// in\n    tag_271:\n        /* \"#utility.yul\":4907:4910   */\n      dup3\n        /* \"#utility.yul\":4900:4937   */\n      mstore\n        /* \"#utility.yul\":4835:4943   */\n      pop\n      pop\n      jump\t// out\n        /* \"#utility.yul\":4949:5128   */\n    tag_188:\n        /* \"#utility.yul\":5018:5028   */\n      0x00\n        /* \"#utility.yul\":5039:5085   */\n      tag_273\n        /* \"#utility.yul\":5081:5084   */\n      dup4\n        /* \"#utility.yul\":5073:5079   */\n      dup4\n        /* \"#utility.yul\":5039:5085   */\n      tag_187\n      jump\t// in\n    tag_273:\n        /* \"#utility.yul\":5117:5121   */\n      0x20\n        /* \"#utility.yul\":5112:5115   */\n      dup4\n        /* \"#utility.yul\":5108:5122   */\n      add\n        /* \"#utility.yul\":5094:5122   */\n      swap1\n      pop\n        /* \"#utility.yul\":4949:5128   */\n      swap3\n      swap2\n      pop\n      pop\n      jump\t// out\n        /* \"#utility.yul\":5134:5247   */\n    tag_189:\n        /* \"#utility.yul\":5204:5208   */\n      0x00\n        /* \"#utility.yul\":5236:5240   */\n      0x20\n        /* \"#utility.yul\":5231:5234   */\n      dup3\n        /* \"#utility.yul\":5227:5241   */\n      add\n        /* \"#utility.yul\":5219:5241   */\n      swap1\n      pop\n        /* \"#utility.yul\":5134:5247   */\n      swap2\n      swap1\n      pop\n      jump\t// out\n        /* \"#utility.yul\":5283:6015   */\n    tag_190:\n        /* \"#utility.yul\":5402:5405   */\n      0x00\n        /* \"#utility.yul\":5431:5485   */\n      tag_276\n        /* \"#utility.yul\":5479:5484   */\n      dup3\n        /* \"#utility.yul\":5431:5485   */\n      tag_184\n      jump\t// in\n    tag_276:\n        /* \"#utility.yul\":5501:5587   */\n      tag_277\n        /* \"#utility.yul\":5580:5586   */\n      dup2\n        /* \"#utility.yul\":5575:5578   */\n      dup6\n        /* \"#utility.yul\":5501:5587   */\n      tag_185\n      jump\t// in\n    tag_277:\n        /* \"#utility.yul\":5494:5587   */\n      swap4\n      pop\n        /* \"#utility.yul\":5611:5667   */\n      tag_278\n        /* \"#utility.yul\":5661:5666   */\n      dup4\n        /* \"#utility.yul\":5611:5667   */\n      tag_186\n      jump\t// in\n    tag_278:\n        /* \"#utility.yul\":5690:5697   */\n      dup1\n        /* \"#utility.yul\":5721:5722   */\n      0x00\n        /* \"#utility.yul\":5706:5990   */\n    tag_279:\n        /* \"#utility.yul\":5731:5737   */\n      dup4\n        /* \"#utility.yul\":5728:5729   */\n      dup2\n        /* \"#utility.yul\":5725:5738   */\n      lt\n        /* \"#utility.yul\":5706:5990   */\n      iszero\n      tag_281\n      jumpi\n        /* \"#utility.yul\":5807:5813   */\n      dup2\n        /* \"#utility.yul\":5801:5814   */\n      mload\n        /* \"#utility.yul\":5834:5897   */\n      tag_282\n        /* \"#utility.yul\":5893:5896   */\n      dup9\n        /* \"#utility.yul\":5878:5891   */\n      dup3\n        /* \"#utility.yul\":5834:5897   */\n      tag_188\n      jump\t// in\n    tag_282:\n        /* \"#utility.yul\":5827:5897   */\n      swap8\n      pop\n        /* \"#utility.yul\":5920:5980   */\n      tag_283\n        /* \"#utility.yul\":5973:5979   */\n      dup4\n        /* \"#utility.yul\":5920:5980   */\n      tag_189\n      jump\t// in\n    tag_283:\n        /* \"#utility.yul\":5910:5980   */\n      swap3\n      pop\n        /* \"#utility.yul\":5766:5990   */\n      pop\n        /* \"#utility.yul\":5753:5754   */\n      0x01\n        /* \"#utility.yul\":5750:5751   */\n      dup2\n        /* \"#utility.yul\":5746:5755   */\n      add\n        /* \"#utility.yul\":5741:5755   */\n      swap1\n      pop\n        /* \"#utility.yul\":5706:5990   */\n      jump(tag_279)\n    tag_281:\n        /* \"#utility.yul\":5710:5724   */\n      pop\n        /* \"#utility.yul\":6006:6009   */\n      dup6\n        /* \"#utility.yul\":5999:6009   */\n      swap4\n      pop\n        /* \"#utility.yul\":5407:6015   */\n      pop\n      pop\n      pop\n        /* \"#utility.yul\":5283:6015   */\n      swap3\n      swap2\n      pop\n      pop\n      jump\t// out\n        /* \"#utility.yul\":6021:6394   */\n    tag_50:\n        /* \"#utility.yul\":6164:6168   */\n      0x00\n        /* \"#utility.yul\":6202:6204   */\n      0x20\n        /* \"#utility.yul\":6191:6200   */\n      dup3\n        /* \"#utility.yul\":6187:6205   */\n      add\n        /* \"#utility.yul\":6179:6205   */\n      swap1\n      pop\n        /* \"#utility.yul\":6251:6260   */\n      dup2\n        /* \"#utility.yul\":6245:6249   */\n      dup2\n        /* \"#utility.yul\":6241:6261   */\n      sub\n        /* \"#utility.yul\":6237:6238   */\n      0x00\n        /* \"#utility.yul\":6226:6235   */\n      dup4\n        /* \"#utility.yul\":6222:6239   */\n      add\n        /* \"#utility.yul\":6215:6262   */\n      mstore\n        /* \"#utility.yul\":6279:6387   */\n      tag_285\n        /* \"#utility.yul\":6382:6386   */\n      dup2\n        /* \"#utility.yul\":6373:6379   */\n      dup5\n        /* \"#utility.yul\":6279:6387   */\n      tag_190\n      jump\t// in\n    tag_285:\n        /* \"#utility.yul\":6271:6387   */\n      swap1\n      pop\n        /* \"#utility.yul\":6021:6394   */\n      swap3\n      swap2\n      pop\n      pop\n      jump\t// out\n        /* \"#utility.yul\":6400:6518   */\n    tag_191:\n        /* \"#utility.yul\":6487:6511   */\n      tag_287\n        /* \"#utility.yul\":6505:6510   */\n      dup2\n        /* \"#utility.yul\":6487:6511   */\n      tag_174\n      jump\t// in\n    tag_287:\n        /* \"#utility.yul\":6482:6485   */\n      dup3\n        /* \"#utility.yul\":6475:6512   */\n      mstore\n        /* \"#utility.yul\":6400:6518   */\n      pop\n      pop\n      jump\t// out\n        /* \"#utility.yul\":6524:6746   */\n    tag_54:\n        /* \"#utility.yul\":6617:6621   */\n      0x00\n        /* \"#utility.yul\":6655:6657   */\n      0x20\n        /* \"#utility.yul\":6644:6653   */\n      dup3\n        /* \"#utility.yul\":6640:6658   */\n      add\n        /* \"#utility.yul\":6632:6658   */\n      swap1\n      pop\n        /* \"#utility.yul\":6668:6739   */\n      tag_289\n        /* \"#utility.yul\":6736:6737   */\n      0x00\n        /* \"#utility.yul\":6725:6734   */\n      dup4\n        /* \"#utility.yul\":6721:6738   */\n      add\n        /* \"#utility.yul\":6712:6718   */\n      dup5\n        /* \"#utility.yul\":6668:6739   */\n      tag_191\n      jump\t// in\n    tag_289:\n        /* \"#utility.yul\":6524:6746   */\n      swap3\n      swap2\n      pop\n      pop\n      jump\t// out\n        /* \"#utility.yul\":6752:7081   */\n    tag_57:\n        /* \"#utility.yul\":6811:6817   */\n      0x00\n        /* \"#utility.yul\":6860:6862   */\n      0x20\n        /* \"#utility.yul\":6848:6857   */\n      dup3\n        /* \"#utility.yul\":6839:6846   */\n      dup5\n        /* \"#utility.yul\":6835:6858   */\n      sub\n        /* \"#utility.yul\":6831:6863   */\n      slt\n        /* \"#utility.yul\":6828:6947   */\n      iszero\n      tag_291\n      jumpi\n        /* \"#utility.yul\":6866:6945   */\n      tag_292\n      tag_171\n      jump\t// in\n    tag_292:\n        /* \"#utility.yul\":6828:6947   */\n    tag_291:\n        /* \"#utility.yul\":6986:6987   */\n      0x00\n        /* \"#utility.yul\":7011:7064   */\n      tag_293\n        /* \"#utility.yul\":7056:7063   */\n      dup5\n        /* \"#utility.yul\":7047:7053   */\n      dup3\n        /* \"#utility.yul\":7036:7045   */\n      dup6\n        /* \"#utility.yul\":7032:7054   */\n      add\n        /* \"#utility.yul\":7011:7064   */\n      tag_178\n      jump\t// in\n    tag_293:\n        /* \"#utility.yul\":7001:7064   */\n      swap2\n      pop\n        /* \"#utility.yul\":6957:7074   */\n      pop\n        /* \"#utility.yul\":6752:7081   */\n      swap3\n      swap2\n      pop\n      pop\n      jump\t// out\n        /* \"#utility.yul\":7087:7751   */\n    tag_60:\n        /* \"#utility.yul\":7292:7296   */\n      0x00\n        /* \"#utility.yul\":7330:7333   */\n      0xa0\n        /* \"#utility.yul\":7319:7328   */\n      dup3\n        /* \"#utility.yul\":7315:7334   */\n      add\n        /* \"#utility.yul\":7307:7334   */\n      swap1\n      pop\n        /* \"#utility.yul\":7344:7415   */\n      tag_295\n        /* \"#utility.yul\":7412:7413   */\n      0x00\n        /* \"#utility.yul\":7401:7410   */\n      dup4\n        /* \"#utility.yul\":7397:7414   */\n      add\n        /* \"#utility.yul\":7388:7394   */\n      dup9\n        /* \"#utility.yul\":7344:7415   */\n      tag_169\n      jump\t// in\n    tag_295:\n        /* \"#utility.yul\":7425:7497   */\n      tag_296\n        /* \"#utility.yul\":7493:7495   */\n      0x20\n        /* \"#utility.yul\":7482:7491   */\n      dup4\n        /* \"#utility.yul\":7478:7496   */\n      add\n        /* \"#utility.yul\":7469:7475   */\n      dup8\n        /* \"#utility.yul\":7425:7497   */\n      tag_191\n      jump\t// in\n    tag_296:\n        /* \"#utility.yul\":7507:7579   */\n      tag_297\n        /* \"#utility.yul\":7575:7577   */\n      0x40\n        /* \"#utility.yul\":7564:7573   */\n      dup4\n        /* \"#utility.yul\":7560:7578   */\n      add\n        /* \"#utility.yul\":7551:7557   */\n      dup7\n        /* \"#utility.yul\":7507:7579   */\n      tag_169\n      jump\t// in\n    tag_297:\n        /* \"#utility.yul\":7589:7661   */\n      tag_298\n        /* \"#utility.yul\":7657:7659   */\n      0x60\n        /* \"#utility.yul\":7646:7655   */\n      dup4\n        /* \"#utility.yul\":7642:7660   */\n      add\n        /* \"#utility.yul\":7633:7639   */\n      dup6\n        /* \"#utility.yul\":7589:7661   */\n      tag_169\n      jump\t// in\n    tag_298:\n        /* \"#utility.yul\":7671:7744   */\n      tag_299\n        /* \"#utility.yul\":7739:7742   */\n      0x80\n        /* \"#utility.yul\":7728:7737   */\n      dup4\n        /* \"#utility.yul\":7724:7743   */\n      add\n        /* \"#utility.yul\":7715:7721   */\n      dup5\n        /* \"#utility.yul\":7671:7744   */\n      tag_169\n      jump\t// in\n    tag_299:\n        /* \"#utility.yul\":7087:7751   */\n      swap7\n      swap6\n      pop\n      pop\n      pop\n      pop\n      pop\n      pop\n      jump\t// out\n        /* \"#utility.yul\":7757:7897   */\n    tag_192:\n        /* \"#utility.yul\":7821:7830   */\n      0x00\n        /* \"#utility.yul\":7854:7891   */\n      tag_301\n        /* \"#utility.yul\":7885:7890   */\n      dup3\n        /* \"#utility.yul\":7854:7891   */\n      tag_181\n      jump\t// in\n    tag_301:\n        /* \"#utility.yul\":7841:7891   */\n      swap1\n      pop\n        /* \"#utility.yul\":7757:7897   */\n      swap2\n      swap1\n      pop\n      jump\t// out\n        /* \"#utility.yul\":7903:8062   */\n    tag_193:\n        /* \"#utility.yul\":8004:8055   */\n      tag_303\n        /* \"#utility.yul\":8049:8054   */\n      dup2\n        /* \"#utility.yul\":8004:8055   */\n      tag_192\n      jump\t// in\n    tag_303:\n        /* \"#utility.yul\":7999:8002   */\n      dup3\n        /* \"#utility.yul\":7992:8056   */\n      mstore\n        /* \"#utility.yul\":7903:8062   */\n      pop\n      pop\n      jump\t// out\n        /* \"#utility.yul\":8068:8318   */\n    tag_67:\n        /* \"#utility.yul\":8175:8179   */\n      0x00\n        /* \"#utility.yul\":8213:8215   */\n      0x20\n        /* \"#utility.yul\":8202:8211   */\n      dup3\n        /* \"#utility.yul\":8198:8216   */\n      add\n        /* \"#utility.yul\":8190:8216   */\n      swap1\n      pop\n        /* \"#utility.yul\":8226:8311   */\n      tag_305\n        /* \"#utility.yul\":8308:8309   */\n      0x00\n        /* \"#utility.yul\":8297:8306   */\n      dup4\n        /* \"#utility.yul\":8293:8310   */\n      add\n        /* \"#utility.yul\":8284:8290   */\n      dup5\n        /* \"#utility.yul\":8226:8311   */\n      tag_193\n      jump\t// in\n    tag_305:\n        /* \"#utility.yul\":8068:8318   */\n      swap3\n      swap2\n      pop\n      pop\n      jump\t// out\n        /* \"#utility.yul\":8324:8798   */\n    tag_70:\n        /* \"#utility.yul\":8392:8398   */\n      0x00\n        /* \"#utility.yul\":8400:8406   */\n      dup1\n        /* \"#utility.yul\":8449:8451   */\n      0x40\n        /* \"#utility.yul\":8437:8446   */\n      dup4\n        /* \"#utility.yul\":8428:8435   */\n      dup6\n        /* \"#utility.yul\":8424:8447   */\n      sub\n        /* \"#utility.yul\":8420:8452   */\n      slt\n        /* \"#utility.yul\":8417:8536   */\n      iszero\n      tag_307\n      jumpi\n        /* \"#utility.yul\":8455:8534   */\n      tag_308\n      tag_171\n      jump\t// in\n    tag_308:\n        /* \"#utility.yul\":8417:8536   */\n    tag_307:\n        /* \"#utility.yul\":8575:8576   */\n      0x00\n        /* \"#utility.yul\":8600:8653   */\n      tag_309\n        /* \"#utility.yul\":8645:8652   */\n      dup6\n        /* \"#utility.yul\":8636:8642   */\n      dup3\n        /* \"#utility.yul\":8625:8634   */\n      dup7\n        /* \"#utility.yul\":8621:8643   */\n      add\n        /* \"#utility.yul\":8600:8653   */\n      tag_178\n      jump\t// in\n    tag_309:\n        /* \"#utility.yul\":8590:8653   */\n      swap3\n      pop\n        /* \"#utility.yul\":8546:8663   */\n      pop\n        /* \"#utility.yul\":8702:8704   */\n      0x20\n        /* \"#utility.yul\":8728:8781   */\n      tag_310\n        /* \"#utility.yul\":8773:8780   */\n      dup6\n        /* \"#utility.yul\":8764:8770   */\n      dup3\n        /* \"#utility.yul\":8753:8762   */\n      dup7\n        /* \"#utility.yul\":8749:8771   */\n      add\n        /* \"#utility.yul\":8728:8781   */\n      tag_176\n      jump\t// in\n    tag_310:\n        /* \"#utility.yul\":8718:8781   */\n      swap2\n      pop\n        /* \"#utility.yul\":8673:8791   */\n      pop\n        /* \"#utility.yul\":8324:8798   */\n      swap3\n      pop\n      swap3\n      swap1\n      pop\n      jump\t// out\n        /* \"#utility.yul\":8804:8894   */\n    tag_194:\n        /* \"#utility.yul\":8838:8845   */\n      0x00\n        /* \"#utility.yul\":8881:8886   */\n      dup2\n        /* \"#utility.yul\":8874:8887   */\n      iszero\n        /* \"#utility.yul\":8867:8888   */\n      iszero\n        /* \"#utility.yul\":8856:8888   */\n      swap1\n      pop\n        /* \"#utility.yul\":8804:8894   */\n      swap2\n      swap1\n      pop\n      jump\t// out\n        /* \"#utility.yul\":8900:9009   */\n    tag_195:\n        /* \"#utility.yul\":8981:9002   */\n      tag_313\n        /* \"#utility.yul\":8996:9001   */\n      dup2\n        /* \"#utility.yul\":8981:9002   */\n      tag_194\n      jump\t// in\n    tag_313:\n        /* \"#utility.yul\":8976:8979   */\n      dup3\n        /* \"#utility.yul\":8969:9003   */\n      mstore\n        /* \"#utility.yul\":8900:9009   */\n      pop\n      pop\n      jump\t// out\n        /* \"#utility.yul\":9015:9225   */\n    tag_73:\n        /* \"#utility.yul\":9102:9106   */\n      0x00\n        /* \"#utility.yul\":9140:9142   */\n      0x20\n        /* \"#utility.yul\":9129:9138   */\n      dup3\n        /* \"#utility.yul\":9125:9143   */\n      add\n        /* \"#utility.yul\":9117:9143   */\n      swap1\n      pop\n        /* \"#utility.yul\":9153:9218   */\n      tag_315\n        /* \"#utility.yul\":9215:9216   */\n      0x00\n        /* \"#utility.yul\":9204:9213   */\n      dup4\n        /* \"#utility.yul\":9200:9217   */\n      add\n        /* \"#utility.yul\":9191:9197   */\n      dup5\n        /* \"#utility.yul\":9153:9218   */\n      tag_195\n      jump\t// in\n    tag_315:\n        /* \"#utility.yul\":9015:9225   */\n      swap3\n      swap2\n      pop\n      pop\n      jump\t// out\n        /* \"#utility.yul\":9231:9374   */\n    tag_196:\n        /* \"#utility.yul\":9288:9293   */\n      0x00\n        /* \"#utility.yul\":9319:9325   */\n      dup2\n        /* \"#utility.yul\":9313:9326   */\n      mload\n        /* \"#utility.yul\":9304:9326   */\n      swap1\n      pop\n        /* \"#utility.yul\":9335:9368   */\n      tag_317\n        /* \"#utility.yul\":9362:9367   */\n      dup2\n        /* \"#utility.yul\":9335:9368   */\n      tag_175\n      jump\t// in\n    tag_317:\n        /* \"#utility.yul\":9231:9374   */\n      swap3\n      swap2\n      pop\n      pop\n      jump\t// out\n        /* \"#utility.yul\":9380:9731   */\n    tag_83:\n        /* \"#utility.yul\":9450:9456   */\n      0x00\n        /* \"#utility.yul\":9499:9501   */\n      0x20\n        /* \"#utility.yul\":9487:9496   */\n      dup3\n        /* \"#utility.yul\":9478:9485   */\n      dup5\n        /* \"#utility.yul\":9474:9497   */\n      sub\n        /* \"#utility.yul\":9470:9502   */\n      slt\n        /* \"#utility.yul\":9467:9586   */\n      iszero\n      tag_319\n      jumpi\n        /* \"#utility.yul\":9505:9584   */\n      tag_320\n      tag_171\n      jump\t// in\n    tag_320:\n        /* \"#utility.yul\":9467:9586   */\n    tag_319:\n        /* \"#utility.yul\":9625:9626   */\n      0x00\n        /* \"#utility.yul\":9650:9714   */\n      tag_321\n        /* \"#utility.yul\":9706:9713   */\n      dup5\n        /* \"#utility.yul\":9697:9703   */\n      dup3\n        /* \"#utility.yul\":9686:9695   */\n      dup6\n        /* \"#utility.yul\":9682:9704   */\n      add\n        /* \"#utility.yul\":9650:9714   */\n      tag_196\n      jump\t// in\n    tag_321:\n        /* \"#utility.yul\":9640:9714   */\n      swap2\n      pop\n        /* \"#utility.yul\":9596:9724   */\n      pop\n        /* \"#utility.yul\":9380:9731   */\n      swap3\n      swap2\n      pop\n      pop\n      jump\t// out\n        /* \"#utility.yul\":9737:9906   */\n    tag_197:\n        /* \"#utility.yul\":9821:9832   */\n      0x00\n        /* \"#utility.yul\":9855:9861   */\n      dup3\n        /* \"#utility.yul\":9850:9853   */\n      dup3\n        /* \"#utility.yul\":9843:9862   */\n      mstore\n        /* \"#utility.yul\":9895:9899   */\n      0x20\n        /* \"#utility.yul\":9890:9893   */\n      dup3\n        /* \"#utility.yul\":9886:9900   */\n      add\n        /* \"#utility.yul\":9871:9900   */\n      swap1\n      pop\n        /* \"#utility.yul\":9737:9906   */\n      swap3\n      swap2\n      pop\n      pop\n      jump\t// out\n        /* \"#utility.yul\":9912:10092   */\n    tag_198:\n        /* \"#utility.yul\":10052:10084   */\n      0x43616e2774207374616b65206e667420796f7520646f6e2774206f776e210000\n        /* \"#utility.yul\":10048:10049   */\n      0x00\n        /* \"#utility.yul\":10040:10046   */\n      dup3\n        /* \"#utility.yul\":10036:10050   */\n      add\n        /* \"#utility.yul\":10029:10085   */\n      mstore\n        /* \"#utility.yul\":9912:10092   */\n      pop\n      jump\t// out\n        /* \"#utility.yul\":10098:10464   */\n    tag_199:\n        /* \"#utility.yul\":10240:10243   */\n      0x00\n        /* \"#utility.yul\":10261:10328   */\n      tag_325\n        /* \"#utility.yul\":10325:10327   */\n      0x1e\n        /* \"#utility.yul\":10320:10323   */\n      dup4\n        /* \"#utility.yul\":10261:10328   */\n      tag_197\n      jump\t// in\n    tag_325:\n        /* \"#utility.yul\":10254:10328   */\n      swap2\n      pop\n        /* \"#utility.yul\":10337:10430   */\n      tag_326\n        /* \"#utility.yul\":10426:10429   */\n      dup3\n        /* \"#utility.yul\":10337:10430   */\n      tag_198\n      jump\t// in\n    tag_326:\n        /* \"#utility.yul\":10455:10457   */\n      0x20\n        /* \"#utility.yul\":10450:10453   */\n      dup3\n        /* \"#utility.yul\":10446:10458   */\n      add\n        /* \"#utility.yul\":10439:10458   */\n      swap1\n      pop\n        /* \"#utility.yul\":10098:10464   */\n      swap2\n      swap1\n      pop\n      jump\t// out\n        /* \"#utility.yul\":10470:10889   */\n    tag_86:\n        /* \"#utility.yul\":10636:10640   */\n      0x00\n        /* \"#utility.yul\":10674:10676   */\n      0x20\n        /* \"#utility.yul\":10663:10672   */\n      dup3\n        /* \"#utility.yul\":10659:10677   */\n      add\n        /* \"#utility.yul\":10651:10677   */\n      swap1\n      pop\n        /* \"#utility.yul\":10723:10732   */\n      dup2\n        /* \"#utility.yul\":10717:10721   */\n      dup2\n        /* \"#utility.yul\":10713:10733   */\n      sub\n        /* \"#utility.yul\":10709:10710   */\n      0x00\n        /* \"#utility.yul\":10698:10707   */\n      dup4\n        /* \"#utility.yul\":10694:10711   */\n      add\n        /* \"#utility.yul\":10687:10734   */\n      mstore\n        /* \"#utility.yul\":10751:10882   */\n      tag_328\n        /* \"#utility.yul\":10877:10881   */\n      dup2\n        /* \"#utility.yul\":10751:10882   */\n      tag_199\n      jump\t// in\n    tag_328:\n        /* \"#utility.yul\":10743:10882   */\n      swap1\n      pop\n        /* \"#utility.yul\":10470:10889   */\n      swap2\n      swap1\n      pop\n      jump\t// out\n        /* \"#utility.yul\":10895:11337   */\n    tag_89:\n        /* \"#utility.yul\":11044:11048   */\n      0x00\n        /* \"#utility.yul\":11082:11084   */\n      0x60\n        /* \"#utility.yul\":11071:11080   */\n      dup3\n        /* \"#utility.yul\":11067:11085   */\n      add\n        /* \"#utility.yul\":11059:11085   */\n      swap1\n      pop\n        /* \"#utility.yul\":11095:11166   */\n      tag_330\n        /* \"#utility.yul\":11163:11164   */\n      0x00\n        /* \"#utility.yul\":11152:11161   */\n      dup4\n        /* \"#utility.yul\":11148:11165   */\n      add\n        /* \"#utility.yul\":11139:11145   */\n      dup7\n        /* \"#utility.yul\":11095:11166   */\n      tag_191\n      jump\t// in\n    tag_330:\n        /* \"#utility.yul\":11176:11248   */\n      tag_331\n        /* \"#utility.yul\":11244:11246   */\n      0x20\n        /* \"#utility.yul\":11233:11242   */\n      dup4\n        /* \"#utility.yul\":11229:11247   */\n      add\n        /* \"#utility.yul\":11220:11226   */\n      dup6\n        /* \"#utility.yul\":11176:11248   */\n      tag_191\n      jump\t// in\n    tag_331:\n        /* \"#utility.yul\":11258:11330   */\n      tag_332\n        /* \"#utility.yul\":11326:11328   */\n      0x40\n        /* \"#utility.yul\":11315:11324   */\n      dup4\n        /* \"#utility.yul\":11311:11329   */\n      add\n        /* \"#utility.yul\":11302:11308   */\n      dup5\n        /* \"#utility.yul\":11258:11330   */\n      tag_169\n      jump\t// in\n    tag_332:\n        /* \"#utility.yul\":10895:11337   */\n      swap5\n      swap4\n      pop\n      pop\n      pop\n      pop\n      jump\t// out\n        /* \"#utility.yul\":11343:11523   */\n    tag_200:\n        /* \"#utility.yul\":11391:11468   */\n      0x4e487b7100000000000000000000000000000000000000000000000000000000\n        /* \"#utility.yul\":11388:11389   */\n      0x00\n        /* \"#utility.yul\":11381:11469   */\n      mstore\n        /* \"#utility.yul\":11488:11492   */\n      0x11\n        /* \"#utility.yul\":11485:11486   */\n      0x04\n        /* \"#utility.yul\":11478:11493   */\n      mstore\n        /* \"#utility.yul\":11512:11516   */\n      0x24\n        /* \"#utility.yul\":11509:11510   */\n      0x00\n        /* \"#utility.yul\":11502:11517   */\n      revert\n        /* \"#utility.yul\":11529:11762   */\n    tag_94:\n        /* \"#utility.yul\":11568:11571   */\n      0x00\n        /* \"#utility.yul\":11591:11615   */\n      tag_335\n        /* \"#utility.yul\":11609:11614   */\n      dup3\n        /* \"#utility.yul\":11591:11615   */\n      tag_168\n      jump\t// in\n    tag_335:\n        /* \"#utility.yul\":11582:11615   */\n      swap2\n      pop\n        /* \"#utility.yul\":11637:11703   */\n      0xffffffffffffffffffffffffffffffffffffffffffffffffffffffffffffffff\n        /* \"#utility.yul\":11630:11635   */\n      dup3\n        /* \"#utility.yul\":11627:11704   */\n      sub\n        /* \"#utility.yul\":11624:11727   */\n      tag_336\n      jumpi\n        /* \"#utility.yul\":11707:11725   */\n      tag_337\n      tag_200\n      jump\t// in\n    tag_337:\n        /* \"#utility.yul\":11624:11727   */\n    tag_336:\n        /* \"#utility.yul\":11754:11755   */\n      0x01\n        /* \"#utility.yul\":11747:11752   */\n      dup3\n        /* \"#utility.yul\":11743:11756   */\n      add\n        /* \"#utility.yul\":11736:11756   */\n      swap1\n      pop\n        /* \"#utility.yul\":11529:11762   */\n      swap2\n      swap1\n      pop\n      jump\t// out\n        /* \"#utility.yul\":11768:12210   */\n    tag_96:\n        /* \"#utility.yul\":11917:11921   */\n      0x00\n        /* \"#utility.yul\":11955:11957   */\n      0x60\n        /* \"#utility.yul\":11944:11953   */\n      dup3\n        /* \"#utility.yul\":11940:11958   */\n      add\n        /* \"#utility.yul\":11932:11958   */\n      swap1\n      pop\n        /* \"#utility.yul\":11968:12039   */\n      tag_339\n        /* \"#utility.yul\":12036:12037   */\n      0x00\n        /* \"#utility.yul\":12025:12034   */\n      dup4\n        /* \"#utility.yul\":12021:12038   */\n      add\n        /* \"#utility.yul\":12012:12018   */\n      dup7\n        /* \"#utility.yul\":11968:12039   */\n      tag_169\n      jump\t// in\n    tag_339:\n        /* \"#utility.yul\":12049:12121   */\n      tag_340\n        /* \"#utility.yul\":12117:12119   */\n      0x20\n        /* \"#utility.yul\":12106:12115   */\n      dup4\n        /* \"#utility.yul\":12102:12120   */\n      add\n        /* \"#utility.yul\":12093:12099   */\n      dup6\n        /* \"#utility.yul\":12049:12121   */\n      tag_169\n      jump\t// in\n    tag_340:\n        /* \"#utility.yul\":12131:12203   */\n      tag_341\n        /* \"#utility.yul\":12199:12201   */\n      0x40\n        /* \"#utility.yul\":12188:12197   */\n      dup4\n        /* \"#utility.yul\":12184:12202   */\n      add\n        /* \"#utility.yul\":12175:12181   */\n      dup5\n        /* \"#utility.yul\":12131:12203   */\n      tag_169\n      jump\t// in\n    tag_341:\n        /* \"#utility.yul\":11768:12210   */\n      swap5\n      swap4\n      pop\n      pop\n      pop\n      pop\n      jump\t// out\n        /* \"#utility.yul\":12216:12410   */\n    tag_105:\n        /* \"#utility.yul\":12256:12260   */\n      0x00\n        /* \"#utility.yul\":12276:12296   */\n      tag_343\n        /* \"#utility.yul\":12294:12295   */\n      dup3\n        /* \"#utility.yul\":12276:12296   */\n      tag_168\n      jump\t// in\n    tag_343:\n        /* \"#utility.yul\":12271:12296   */\n      swap2\n      pop\n        /* \"#utility.yul\":12310:12330   */\n      tag_344\n        /* \"#utility.yul\":12328:12329   */\n      dup4\n        /* \"#utility.yul\":12310:12330   */\n      tag_168\n      jump\t// in\n    tag_344:\n        /* \"#utility.yul\":12305:12330   */\n      swap3\n      pop\n        /* \"#utility.yul\":12354:12355   */\n      dup3\n        /* \"#utility.yul\":12351:12352   */\n      dup3\n        /* \"#utility.yul\":12347:12356   */\n      sub\n        /* \"#utility.yul\":12339:12356   */\n      swap1\n      pop\n        /* \"#utility.yul\":12378:12379   */\n      dup2\n        /* \"#utility.yul\":12372:12376   */\n      dup2\n        /* \"#utility.yul\":12369:12380   */\n      gt\n        /* \"#utility.yul\":12366:12403   */\n      iszero\n      tag_345\n      jumpi\n        /* \"#utility.yul\":12383:12401   */\n      tag_346\n      tag_200\n      jump\t// in\n    tag_346:\n        /* \"#utility.yul\":12366:12403   */\n    tag_345:\n        /* \"#utility.yul\":12216:12410   */\n      swap3\n      swap2\n      pop\n      pop\n      jump\t// out\n        /* \"#utility.yul\":12416:12596   */\n    tag_201:\n        /* \"#utility.yul\":12464:12541   */\n      0x4e487b7100000000000000000000000000000000000000000000000000000000\n        /* \"#utility.yul\":12461:12462   */\n      0x00\n        /* \"#utility.yul\":12454:12542   */\n      mstore\n        /* \"#utility.yul\":12561:12565   */\n      0x12\n        /* \"#utility.yul\":12558:12559   */\n      0x04\n        /* \"#utility.yul\":12551:12566   */\n      mstore\n        /* \"#utility.yul\":12585:12589   */\n      0x24\n        /* \"#utility.yul\":12582:12583   */\n      0x00\n        /* \"#utility.yul\":12575:12590   */\n      revert\n        /* \"#utility.yul\":12602:12787   */\n    tag_107:\n        /* \"#utility.yul\":12642:12643   */\n      0x00\n        /* \"#utility.yul\":12659:12679   */\n      tag_349\n        /* \"#utility.yul\":12677:12678   */\n      dup3\n        /* \"#utility.yul\":12659:12679   */\n      tag_168\n      jump\t// in\n    tag_349:\n        /* \"#utility.yul\":12654:12679   */\n      swap2\n      pop\n        /* \"#utility.yul\":12693:12713   */\n      tag_350\n        /* \"#utility.yul\":12711:12712   */\n      dup4\n        /* \"#utility.yul\":12693:12713   */\n      tag_168\n      jump\t// in\n    tag_350:\n        /* \"#utility.yul\":12688:12713   */\n      swap3\n      pop\n        /* \"#utility.yul\":12732:12733   */\n      dup3\n        /* \"#utility.yul\":12722:12757   */\n      tag_351\n      jumpi\n        /* \"#utility.yul\":12737:12755   */\n      tag_352\n      tag_201\n      jump\t// in\n    tag_352:\n        /* \"#utility.yul\":12722:12757   */\n    tag_351:\n        /* \"#utility.yul\":12779:12780   */\n      dup3\n        /* \"#utility.yul\":12776:12777   */\n      dup3\n        /* \"#utility.yul\":12772:12781   */\n      div\n        /* \"#utility.yul\":12767:12781   */\n      swap1\n      pop\n        /* \"#utility.yul\":12602:12787   */\n      swap3\n      swap2\n      pop\n      pop\n      jump\t// out\n        /* \"#utility.yul\":12793:12973   */\n    tag_202:\n        /* \"#utility.yul\":12933:12965   */\n      0x5374616b696e6720706f6f6c206e6f7420656e64656420796574212121210000\n        /* \"#utility.yul\":12929:12930   */\n      0x00\n        /* \"#utility.yul\":12921:12927   */\n      dup3\n        /* \"#utility.yul\":12917:12931   */\n      add\n        /* \"#utility.yul\":12910:12966   */\n      mstore\n        /* \"#utility.yul\":12793:12973   */\n      pop\n      jump\t// out\n        /* \"#utility.yul\":12979:13345   */\n    tag_203:\n        /* \"#utility.yul\":13121:13124   */\n      0x00\n        /* \"#utility.yul\":13142:13209   */\n      tag_355\n        /* \"#utility.yul\":13206:13208   */\n      0x1e\n        /* \"#utility.yul\":13201:13204   */\n      dup4\n        /* \"#utility.yul\":13142:13209   */\n      tag_197\n      jump\t// in\n    tag_355:\n        /* \"#utility.yul\":13135:13209   */\n      swap2\n      pop\n        /* \"#utility.yul\":13218:13311   */\n      tag_356\n        /* \"#utility.yul\":13307:13310   */\n      dup3\n        /* \"#utility.yul\":13218:13311   */\n      tag_202\n      jump\t// in\n    tag_356:\n        /* \"#utility.yul\":13336:13338   */\n      0x20\n        /* \"#utility.yul\":13331:13334   */\n      dup3\n        /* \"#utility.yul\":13327:13339   */\n      add\n        /* \"#utility.yul\":13320:13339   */\n      swap1\n      pop\n        /* \"#utility.yul\":12979:13345   */\n      swap2\n      swap1\n      pop\n      jump\t// out\n        /* \"#utility.yul\":13351:13770   */\n    tag_112:\n        /* \"#utility.yul\":13517:13521   */\n      0x00\n        /* \"#utility.yul\":13555:13557   */\n      0x20\n        /* \"#utility.yul\":13544:13553   */\n      dup3\n        /* \"#utility.yul\":13540:13558   */\n      add\n        /* \"#utility.yul\":13532:13558   */\n      swap1\n      pop\n        /* \"#utility.yul\":13604:13613   */\n      dup2\n        /* \"#utility.yul\":13598:13602   */\n      dup2\n        /* \"#utility.yul\":13594:13614   */\n      sub\n        /* \"#utility.yul\":13590:13591   */\n      0x00\n        /* \"#utility.yul\":13579:13588   */\n      dup4\n        /* \"#utility.yul\":13575:13592   */\n      add\n        /* \"#utility.yul\":13568:13615   */\n      mstore\n        /* \"#utility.yul\":13632:13763   */\n      tag_358\n        /* \"#utility.yul\":13758:13762   */\n      dup2\n        /* \"#utility.yul\":13632:13763   */\n      tag_203\n      jump\t// in\n    tag_358:\n        /* \"#utility.yul\":13624:13763   */\n      swap1\n      pop\n        /* \"#utility.yul\":13351:13770   */\n      swap2\n      swap1\n      pop\n      jump\t// out\n        /* \"#utility.yul\":13776:14000   */\n    tag_204:\n        /* \"#utility.yul\":13916:13950   */\n      0x596f7520617265206e6f74206f776e6572206f662074686973204e4654207374\n        /* \"#utility.yul\":13912:13913   */\n      0x00\n        /* \"#utility.yul\":13904:13910   */\n      dup3\n        /* \"#utility.yul\":13900:13914   */\n      add\n        /* \"#utility.yul\":13893:13951   */\n      mstore\n        /* \"#utility.yul\":13985:13992   */\n      0x616b696e67000000000000000000000000000000000000000000000000000000\n        /* \"#utility.yul\":13980:13982   */\n      0x20\n        /* \"#utility.yul\":13972:13978   */\n      dup3\n        /* \"#utility.yul\":13968:13983   */\n      add\n        /* \"#utility.yul\":13961:13993   */\n      mstore\n        /* \"#utility.yul\":13776:14000   */\n      pop\n      jump\t// out\n        /* \"#utility.yul\":14006:14372   */\n    tag_205:\n        /* \"#utility.yul\":14148:14151   */\n      0x00\n        /* \"#utility.yul\":14169:14236   */\n      tag_361\n        /* \"#utility.yul\":14233:14235   */\n      0x25\n        /* \"#utility.yul\":14228:14231   */\n      dup4\n        /* \"#utility.yul\":14169:14236   */\n      tag_197\n      jump\t// in\n    tag_361:\n        /* \"#utility.yul\":14162:14236   */\n      swap2\n      pop\n        /* \"#utility.yul\":14245:14338   */\n      tag_362\n        /* \"#utility.yul\":14334:14337   */\n      dup3\n        /* \"#utility.yul\":14245:14338   */\n      tag_204\n      jump\t// in\n    tag_362:\n        /* \"#utility.yul\":14363:14365   */\n      0x40\n        /* \"#utility.yul\":14358:14361   */\n      dup3\n        /* \"#utility.yul\":14354:14366   */\n      add\n        /* \"#utility.yul\":14347:14366   */\n      swap1\n      pop\n        /* \"#utility.yul\":14006:14372   */\n      swap2\n      swap1\n      pop\n      jump\t// out\n        /* \"#utility.yul\":14378:14797   */\n    tag_115:\n        /* \"#utility.yul\":14544:14548   */\n      0x00\n        /* \"#utility.yul\":14582:14584   */\n      0x20\n        /* \"#utility.yul\":14571:14580   */\n      dup3\n        /* \"#utility.yul\":14567:14585   */\n      add\n        /* \"#utility.yul\":14559:14585   */\n      swap1\n      pop\n        /* \"#utility.yul\":14631:14640   */\n      dup2\n        /* \"#utility.yul\":14625:14629   */\n      dup2\n        /* \"#utility.yul\":14621:14641   */\n      sub\n        /* \"#utility.yul\":14617:14618   */\n      0x00\n        /* \"#utility.yul\":14606:14615   */\n      dup4\n        /* \"#utility.yul\":14602:14619   */\n      add\n        /* \"#utility.yul\":14595:14642   */\n      mstore\n        /* \"#utility.yul\":14659:14790   */\n      tag_364\n        /* \"#utility.yul\":14785:14789   */\n      dup2\n        /* \"#utility.yul\":14659:14790   */\n      tag_205\n      jump\t// in\n    tag_364:\n        /* \"#utility.yul\":14651:14790   */\n      swap1\n      pop\n        /* \"#utility.yul\":14378:14797   */\n      swap2\n      swap1\n      pop\n      jump\t// out\n        /* \"#utility.yul\":14803:15135   */\n    tag_124:\n        /* \"#utility.yul\":14924:14928   */\n      0x00\n        /* \"#utility.yul\":14962:14964   */\n      0x40\n        /* \"#utility.yul\":14951:14960   */\n      dup3\n        /* \"#utility.yul\":14947:14965   */\n      add\n        /* \"#utility.yul\":14939:14965   */\n      swap1\n      pop\n        /* \"#utility.yul\":14975:15046   */\n      tag_366\n        /* \"#utility.yul\":15043:15044   */\n      0x00\n        /* \"#utility.yul\":15032:15041   */\n      dup4\n        /* \"#utility.yul\":15028:15045   */\n      add\n        /* \"#utility.yul\":15019:15025   */\n      dup6\n        /* \"#utility.yul\":14975:15046   */\n      tag_191\n      jump\t// in\n    tag_366:\n        /* \"#utility.yul\":15056:15128   */\n      tag_367\n        /* \"#utility.yul\":15124:15126   */\n      0x20\n        /* \"#utility.yul\":15113:15122   */\n      dup4\n        /* \"#utility.yul\":15109:15127   */\n      add\n        /* \"#utility.yul\":15100:15106   */\n      dup5\n        /* \"#utility.yul\":15056:15128   */\n      tag_169\n      jump\t// in\n    tag_367:\n        /* \"#utility.yul\":14803:15135   */\n      swap4\n      swap3\n      pop\n      pop\n      pop\n      jump\t// out\n        /* \"#utility.yul\":15141:15257   */\n    tag_206:\n        /* \"#utility.yul\":15211:15232   */\n      tag_369\n        /* \"#utility.yul\":15226:15231   */\n      dup2\n        /* \"#utility.yul\":15211:15232   */\n      tag_194\n      jump\t// in\n    tag_369:\n        /* \"#utility.yul\":15204:15209   */\n      dup2\n        /* \"#utility.yul\":15201:15233   */\n      eq\n        /* \"#utility.yul\":15191:15251   */\n      tag_370\n      jumpi\n        /* \"#utility.yul\":15247:15248   */\n      0x00\n        /* \"#utility.yul\":15244:15245   */\n      dup1\n        /* \"#utility.yul\":15237:15249   */\n      revert\n        /* \"#utility.yul\":15191:15251   */\n    tag_370:\n        /* \"#utility.yul\":15141:15257   */\n      pop\n      jump\t// out\n        /* \"#utility.yul\":15263:15400   */\n    tag_207:\n        /* \"#utility.yul\":15317:15322   */\n      0x00\n        /* \"#utility.yul\":15348:15354   */\n      dup2\n        /* \"#utility.yul\":15342:15355   */\n      mload\n        /* \"#utility.yul\":15333:15355   */\n      swap1\n      pop\n        /* \"#utility.yul\":15364:15394   */\n      tag_372\n        /* \"#utility.yul\":15388:15393   */\n      dup2\n        /* \"#utility.yul\":15364:15394   */\n      tag_206\n      jump\t// in\n    tag_372:\n        /* \"#utility.yul\":15263:15400   */\n      swap3\n      swap2\n      pop\n      pop\n      jump\t// out\n        /* \"#utility.yul\":15406:15751   */\n    tag_128:\n        /* \"#utility.yul\":15473:15479   */\n      0x00\n        /* \"#utility.yul\":15522:15524   */\n      0x20\n        /* \"#utility.yul\":15510:15519   */\n      dup3\n        /* \"#utility.yul\":15501:15508   */\n      dup5\n        /* \"#utility.yul\":15497:15520   */\n      sub\n        /* \"#utility.yul\":15493:15525   */\n      slt\n        /* \"#utility.yul\":15490:15609   */\n      iszero\n      tag_374\n      jumpi\n        /* \"#utility.yul\":15528:15607   */\n      tag_375\n      tag_171\n      jump\t// in\n    tag_375:\n        /* \"#utility.yul\":15490:15609   */\n    tag_374:\n        /* \"#utility.yul\":15648:15649   */\n      0x00\n        /* \"#utility.yul\":15673:15734   */\n      tag_376\n        /* \"#utility.yul\":15726:15733   */\n      dup5\n        /* \"#utility.yul\":15717:15723   */\n      dup3\n        /* \"#utility.yul\":15706:15715   */\n      dup6\n        /* \"#utility.yul\":15702:15724   */\n      add\n        /* \"#utility.yul\":15673:15734   */\n      tag_207\n      jump\t// in\n    tag_376:\n        /* \"#utility.yul\":15663:15734   */\n      swap2\n      pop\n        /* \"#utility.yul\":15619:15744   */\n      pop\n        /* \"#utility.yul\":15406:15751   */\n      swap3\n      swap2\n      pop\n      pop\n      jump\t// out\n        /* \"#utility.yul\":15757:16310   */\n    tag_130:\n        /* \"#utility.yul\":15934:15938   */\n      0x00\n        /* \"#utility.yul\":15972:15975   */\n      0x80\n        /* \"#utility.yul\":15961:15970   */\n      dup3\n        /* \"#utility.yul\":15957:15976   */\n      add\n        /* \"#utility.yul\":15949:15976   */\n      swap1\n      pop\n        /* \"#utility.yul\":15986:16057   */\n      tag_378\n        /* \"#utility.yul\":16054:16055   */\n      0x00\n        /* \"#utility.yul\":16043:16052   */\n      dup4\n        /* \"#utility.yul\":16039:16056   */\n      add\n        /* \"#utility.yul\":16030:16036   */\n      dup8\n        /* \"#utility.yul\":15986:16057   */\n      tag_169\n      jump\t// in\n    tag_378:\n        /* \"#utility.yul\":16067:16139   */\n      tag_379\n        /* \"#utility.yul\":16135:16137   */\n      0x20\n        /* \"#utility.yul\":16124:16133   */\n      dup4\n        /* \"#utility.yul\":16120:16138   */\n      add\n        /* \"#utility.yul\":16111:16117   */\n      dup7\n        /* \"#utility.yul\":16067:16139   */\n      tag_169\n      jump\t// in\n    tag_379:\n        /* \"#utility.yul\":16149:16221   */\n      tag_380\n        /* \"#utility.yul\":16217:16219   */\n      0x40\n        /* \"#utility.yul\":16206:16215   */\n      dup4\n        /* \"#utility.yul\":16202:16220   */\n      add\n        /* \"#utility.yul\":16193:16199   */\n      dup6\n        /* \"#utility.yul\":16149:16221   */\n      tag_169\n      jump\t// in\n    tag_380:\n        /* \"#utility.yul\":16231:16303   */\n      tag_381\n        /* \"#utility.yul\":16299:16301   */\n      0x60\n        /* \"#utility.yul\":16288:16297   */\n      dup4\n        /* \"#utility.yul\":16284:16302   */\n      add\n        /* \"#utility.yul\":16275:16281   */\n      dup5\n        /* \"#utility.yul\":16231:16303   */\n      tag_169\n      jump\t// in\n    tag_381:\n        /* \"#utility.yul\":15757:16310   */\n      swap6\n      swap5\n      pop\n      pop\n      pop\n      pop\n      pop\n      jump\t// out\n        /* \"#utility.yul\":16316:16541   */\n    tag_208:\n        /* \"#utility.yul\":16456:16490   */\n      0x4f776e61626c653a206e6577206f776e657220697320746865207a65726f2061\n        /* \"#utility.yul\":16452:16453   */\n      0x00\n        /* \"#utility.yul\":16444:16450   */\n      dup3\n        /* \"#utility.yul\":16440:16454   */\n      add\n        /* \"#utility.yul\":16433:16491   */\n      mstore\n        /* \"#utility.yul\":16525:16533   */\n      0x6464726573730000000000000000000000000000000000000000000000000000\n        /* \"#utility.yul\":16520:16522   */\n      0x20\n        /* \"#utility.yul\":16512:16518   */\n      dup3\n        /* \"#utility.yul\":16508:16523   */\n      add\n        /* \"#utility.yul\":16501:16534   */\n      mstore\n        /* \"#utility.yul\":16316:16541   */\n      pop\n      jump\t// out\n        /* \"#utility.yul\":16547:16913   */\n    tag_209:\n        /* \"#utility.yul\":16689:16692   */\n      0x00\n        /* \"#utility.yul\":16710:16777   */\n      tag_384\n        /* \"#utility.yul\":16774:16776   */\n      0x26\n        /* \"#utility.yul\":16769:16772   */\n      dup4\n        /* \"#utility.yul\":16710:16777   */\n      tag_197\n      jump\t// in\n    tag_384:\n        /* \"#utility.yul\":16703:16777   */\n      swap2\n      pop\n        /* \"#utility.yul\":16786:16879   */\n      tag_385\n        /* \"#utility.yul\":16875:16878   */\n      dup3\n        /* \"#utility.yul\":16786:16879   */\n      tag_208\n      jump\t// in\n    tag_385:\n        /* \"#utility.yul\":16904:16906   */\n      0x40\n        /* \"#utility.yul\":16899:16902   */\n      dup3\n        /* \"#utility.yul\":16895:16907   */\n      add\n        /* \"#utility.yul\":16888:16907   */\n      swap1\n      pop\n        /* \"#utility.yul\":16547:16913   */\n      swap2\n      swap1\n      pop\n      jump\t// out\n        /* \"#utility.yul\":16919:17338   */\n    tag_140:\n        /* \"#utility.yul\":17085:17089   */\n      0x00\n        /* \"#utility.yul\":17123:17125   */\n      0x20\n        /* \"#utility.yul\":17112:17121   */\n      dup3\n        /* \"#utility.yul\":17108:17126   */\n      add\n        /* \"#utility.yul\":17100:17126   */\n      swap1\n      pop\n        /* \"#utility.yul\":17172:17181   */\n      dup2\n        /* \"#utility.yul\":17166:17170   */\n      dup2\n        /* \"#utility.yul\":17162:17182   */\n      sub\n        /* \"#utility.yul\":17158:17159   */\n      0x00\n        /* \"#utility.yul\":17147:17156   */\n      dup4\n        /* \"#utility.yul\":17143:17160   */\n      add\n        /* \"#utility.yul\":17136:17183   */\n      mstore\n        /* \"#utility.yul\":17200:17331   */\n      tag_387\n        /* \"#utility.yul\":17326:17330   */\n      dup2\n        /* \"#utility.yul\":17200:17331   */\n      tag_209\n      jump\t// in\n    tag_387:\n        /* \"#utility.yul\":17192:17331   */\n      swap1\n      pop\n        /* \"#utility.yul\":16919:17338   */\n      swap2\n      swap1\n      pop\n      jump\t// out\n        /* \"#utility.yul\":17344:17524   */\n    tag_148:\n        /* \"#utility.yul\":17392:17469   */\n      0x4e487b7100000000000000000000000000000000000000000000000000000000\n        /* \"#utility.yul\":17389:17390   */\n      0x00\n        /* \"#utility.yul\":17382:17470   */\n      mstore\n        /* \"#utility.yul\":17489:17493   */\n      0x32\n        /* \"#utility.yul\":17486:17487   */\n      0x04\n        /* \"#utility.yul\":17479:17494   */\n      mstore\n        /* \"#utility.yul\":17513:17517   */\n      0x24\n        /* \"#utility.yul\":17510:17511   */\n      0x00\n        /* \"#utility.yul\":17503:17518   */\n      revert\n        /* \"#utility.yul\":17530:17712   */\n    tag_210:\n        /* \"#utility.yul\":17670:17704   */\n      0x4f776e61626c653a2063616c6c6572206973206e6f7420746865206f776e6572\n        /* \"#utility.yul\":17666:17667   */\n      0x00\n        /* \"#utility.yul\":17658:17664   */\n      dup3\n        /* \"#utility.yul\":17654:17668   */\n      add\n        /* \"#utility.yul\":17647:17705   */\n      mstore\n        /* \"#utility.yul\":17530:17712   */\n      pop\n      jump\t// out\n        /* \"#utility.yul\":17718:18084   */\n    tag_211:\n        /* \"#utility.yul\":17860:17863   */\n      0x00\n        /* \"#utility.yul\":17881:17948   */\n      tag_391\n        /* \"#utility.yul\":17945:17947   */\n      0x20\n        /* \"#utility.yul\":17940:17943   */\n      dup4\n        /* \"#utility.yul\":17881:17948   */\n      tag_197\n      jump\t// in\n    tag_391:\n        /* \"#utility.yul\":17874:17948   */\n      swap2\n      pop\n        /* \"#utility.yul\":17957:18050   */\n      tag_392\n        /* \"#utility.yul\":18046:18049   */\n      dup3\n        /* \"#utility.yul\":17957:18050   */\n      tag_210\n      jump\t// in\n    tag_392:\n        /* \"#utility.yul\":18075:18077   */\n      0x20\n        /* \"#utility.yul\":18070:18073   */\n      dup3\n        /* \"#utility.yul\":18066:18078   */\n      add\n        /* \"#utility.yul\":18059:18078   */\n      swap1\n      pop\n        /* \"#utility.yul\":17718:18084   */\n      swap2\n      swap1\n      pop\n      jump\t// out\n        /* \"#utility.yul\":18090:18509   */\n    tag_158:\n        /* \"#utility.yul\":18256:18260   */\n      0x00\n        /* \"#utility.yul\":18294:18296   */\n      0x20\n        /* \"#utility.yul\":18283:18292   */\n      dup3\n        /* \"#utility.yul\":18279:18297   */\n      add\n        /* \"#utility.yul\":18271:18297   */\n      swap1\n      pop\n        /* \"#utility.yul\":18343:18352   */\n      dup2\n        /* \"#utility.yul\":18337:18341   */\n      dup2\n        /* \"#utility.yul\":18333:18353   */\n      sub\n        /* \"#utility.yul\":18329:18330   */\n      0x00\n        /* \"#utility.yul\":18318:18327   */\n      dup4\n        /* \"#utility.yul\":18314:18331   */\n      add\n        /* \"#utility.yul\":18307:18354   */\n      mstore\n        /* \"#utility.yul\":18371:18502   */\n      tag_394\n        /* \"#utility.yul\":18497:18501   */\n      dup2\n        /* \"#utility.yul\":18371:18502   */\n      tag_211\n      jump\t// in\n    tag_394:\n        /* \"#utility.yul\":18363:18502   */\n      swap1\n      pop\n        /* \"#utility.yul\":18090:18509   */\n      swap2\n      swap1\n      pop\n      jump\t// out\n\n    auxdata: 0xa26469706673582212201edeac92379e1345f4f63079aa2a510f7207a4e668e2673aba2459fc2b14c6b264736f6c63430008110033\n}\n",
				"bytecode": {
					"linkReferences": {},
					"object": "608060405260006004553480156200001657600080fd5b5060405162001a7f38038062001a7f83398181016040528101906200003c919062000223565b6200005c62000050620000ed60201b60201c565b620000f560201b60201c565b6001808190555081600360006101000a81548173ffffffffffffffffffffffffffffffffffffffff021916908373ffffffffffffffffffffffffffffffffffffffff16021790555080600260006101000a81548173ffffffffffffffffffffffffffffffffffffffff021916908373ffffffffffffffffffffffffffffffffffffffff16021790555050506200026a565b600033905090565b60008060009054906101000a900473ffffffffffffffffffffffffffffffffffffffff169050816000806101000a81548173ffffffffffffffffffffffffffffffffffffffff021916908373ffffffffffffffffffffffffffffffffffffffff1602179055508173ffffffffffffffffffffffffffffffffffffffff168173ffffffffffffffffffffffffffffffffffffffff167f8be0079c531659141344cd1fd0a4f28419497f9722a3daafe3b4186f6b6457e060405160405180910390a35050565b600080fd5b600073ffffffffffffffffffffffffffffffffffffffff82169050919050565b6000620001eb82620001be565b9050919050565b620001fd81620001de565b81146200020957600080fd5b50565b6000815190506200021d81620001f2565b92915050565b600080604083850312156200023d576200023c620001b9565b5b60006200024d858286016200020c565b925050602062000260858286016200020c565b9150509250929050565b611805806200027a6000396000f3fe608060405234801561001057600080fd5b50600436106100cf5760003560e01c806378dba5941161008c578063d5a44f8611610066578063d5a44f8614610200578063f2fde38b14610234578063f7c618c114610250578063fbaca0861461026e576100cf565b806378dba5941461019657806379e5f7d7146101b25780638da5cb5b146101e2576100cf565b80632986c0e5146100d45780633af416d1146100f25780633f1069291461012257806351cecc8014610152578063715018a61461016e57806378b2e3a914610178575b600080fd5b6100dc61029e565b6040516100e99190610e45565b60405180910390f35b61010c60048036038101906101079190610eef565b6102a4565b6040516101199190610e45565b60405180910390f35b61013c60048036038101906101379190610eef565b6102d5565b6040516101499190610e45565b60405180910390f35b61016c60048036038101906101679190610f2f565b610306565b005b61017661063c565b005b610180610650565b60405161018d9190610fce565b60405180910390f35b6101b060048036038101906101ab9190610fe9565b610676565b005b6101cc60048036038101906101c7919061103c565b6109fd565b6040516101d99190611127565b60405180910390f35b6101ea610a9a565b6040516101f79190611158565b60405180910390f35b61021a60048036038101906102159190611173565b610ac3565b60405161022b9594939291906111a0565b60405180910390f35b61024e6004803603810190610249919061103c565b610b19565b005b610258610b9c565b6040516102659190611214565b60405180910390f35b6102886004803603810190610283919061122f565b610bc2565b604051610295919061128a565b60405180910390f35b60045481565b600860205281600052604060002081815481106102c057600080fd5b90600052602060002001600091509150505481565b600760205281600052604060002081815481106102f157600080fd5b90600052602060002001600091509150505481565b3373ffffffffffffffffffffffffffffffffffffffff16600260009054906101000a900473ffffffffffffffffffffffffffffffffffffffff1673ffffffffffffffffffffffffffffffffffffffff16636352211e846040518263ffffffff1660e01b81526004016103789190610e45565b602060405180830381865afa158015610395573d6000803e3d6000fd5b505050506040513d601f19601f820116820180604052508101906103b991906112ba565b73ffffffffffffffffffffffffffffffffffffffff161461040f576040517f08c379a000000000000000000000000000000000000000000000000000000000815260040161040690611344565b60405180910390fd5b6040518060a0016040528060045481526020013373ffffffffffffffffffffffffffffffffffffffff168152602001838152602001828152602001428152506006600060045481526020019081526020016000206000820151816000015560208201518160010160006101000a81548173ffffffffffffffffffffffffffffffffffffffff021916908373ffffffffffffffffffffffffffffffffffffffff160217905550604082015181600201556060820151816003015560808201518160040155905050600760003373ffffffffffffffffffffffffffffffffffffffff1673ffffffffffffffffffffffffffffffffffffffff1681526020019081526020016000206004549080600181540180825580915050600190039060005260206000200160009091909190915055600260009054906101000a900473ffffffffffffffffffffffffffffffffffffffff1673ffffffffffffffffffffffffffffffffffffffff166323b872dd3330856040518463ffffffff1660e01b815260040161059c93929190611364565b600060405180830381600087803b1580156105b657600080fd5b505af11580156105ca573d6000803e3d6000fd5b50505050600460008154809291906105e1906113ca565b91905055503373ffffffffffffffffffffffffffffffffffffffff167ff556991011e831bcfac4f406d547e5e32cdd98267efab83935230d5f8d02c44683834260405161063093929190611412565b60405180910390a25050565b610644610c9f565b61064e6000610d1d565b565b600260009054906101000a900473ffffffffffffffffffffffffffffffffffffffff1681565b806018603c8060066000888152602001908152602001600020600401544261069e9190611449565b6106a891906114ac565b6106b291906114ac565b6106bc91906114ac565b10156106fd576040517f08c379a00000000000000000000000000000000000000000000000000000000081526004016106f490611529565b60405180910390fd5b3373ffffffffffffffffffffffffffffffffffffffff166006600085815260200190815260200160002060010160009054906101000a900473ffffffffffffffffffffffffffffffffffffffff1673ffffffffffffffffffffffffffffffffffffffff16146107a1576040517f08c379a0000000000000000000000000000000000000000000000000000000008152600401610798906115bb565b60405180910390fd5b600660008481526020019081526020016000206000808201600090556001820160006101000a81549073ffffffffffffffffffffffffffffffffffffffff02191690556002820160009055600382016000905560048201600090555050600860003373ffffffffffffffffffffffffffffffffffffffff1673ffffffffffffffffffffffffffffffffffffffff168152602001908152602001600020839080600181540180825580915050600190039060005260206000200160009091909190915055600260009054906101000a900473ffffffffffffffffffffffffffffffffffffffff1673ffffffffffffffffffffffffffffffffffffffff166323b872dd3033856040518463ffffffff1660e01b81526004016108c393929190611364565b600060405180830381600087803b1580156108dd57600080fd5b505af11580156108f1573d6000803e3d6000fd5b50505050600061090082610de1565b9050600360009054906101000a900473ffffffffffffffffffffffffffffffffffffffff1673ffffffffffffffffffffffffffffffffffffffff1663a9059cbb33836040518363ffffffff1660e01b815260040161095f9291906115db565b6020604051808303816000875af115801561097e573d6000803e3d6000fd5b505050506040513d601f19601f820116820180604052508101906109a29190611630565b503373ffffffffffffffffffffffffffffffffffffffff167ff74c9f1985016ff6aa83c3fd81e31d0be3b194f205ae5e1b57f5bd74ad28e4cf848442856040516109ef949392919061165d565b60405180910390a250505050565b60606000600760008473ffffffffffffffffffffffffffffffffffffffff1673ffffffffffffffffffffffffffffffffffffffff168152602001908152602001600020805480602002602001604051908101604052809291908181526020018280548015610a8a57602002820191906000526020600020905b815481526020019060010190808311610a76575b5050505050905080915050919050565b60008060009054906101000a900473ffffffffffffffffffffffffffffffffffffffff16905090565b60066020528060005260406000206000915090508060000154908060010160009054906101000a900473ffffffffffffffffffffffffffffffffffffffff16908060020154908060030154908060040154905085565b610b21610c9f565b600073ffffffffffffffffffffffffffffffffffffffff168173ffffffffffffffffffffffffffffffffffffffff1603610b90576040517f08c379a0000000000000000000000000000000000000000000000000000000008152600401610b8790611714565b60405180910390fd5b610b9981610d1d565b50565b600360009054906101000a900473ffffffffffffffffffffffffffffffffffffffff1681565b600080600090505b600860008473ffffffffffffffffffffffffffffffffffffffff1673ffffffffffffffffffffffffffffffffffffffff16815260200190815260200160002080549050811015610c935783600860008573ffffffffffffffffffffffffffffffffffffffff1673ffffffffffffffffffffffffffffffffffffffff1681526020019081526020016000208281548110610c6657610c65611734565b5b906000526020600020015403610c80576001915050610c99565b8080610c8b906113ca565b915050610bca565b50600090505b92915050565b610ca7610e24565b73ffffffffffffffffffffffffffffffffffffffff16610cc5610a9a565b73ffffffffffffffffffffffffffffffffffffffff1614610d1b576040517f08c379a0000000000000000000000000000000000000000000000000000000008152600401610d12906117af565b60405180910390fd5b565b60008060009054906101000a900473ffffffffffffffffffffffffffffffffffffffff169050816000806101000a81548173ffffffffffffffffffffffffffffffffffffffff021916908373ffffffffffffffffffffffffffffffffffffffff1602179055508173ffffffffffffffffffffffffffffffffffffffff168173ffffffffffffffffffffffffffffffffffffffff167f8be0079c531659141344cd1fd0a4f28419497f9722a3daafe3b4186f6b6457e060405160405180910390a35050565b600060078203610df5576103e89050610e1f565b600e8203610e0757610bb89050610e1f565b601e8203610e19576113889050610e1f565b61271090505b919050565b600033905090565b6000819050919050565b610e3f81610e2c565b82525050565b6000602082019050610e5a6000830184610e36565b92915050565b600080fd5b600073ffffffffffffffffffffffffffffffffffffffff82169050919050565b6000610e9082610e65565b9050919050565b610ea081610e85565b8114610eab57600080fd5b50565b600081359050610ebd81610e97565b92915050565b610ecc81610e2c565b8114610ed757600080fd5b50565b600081359050610ee981610ec3565b92915050565b60008060408385031215610f0657610f05610e60565b5b6000610f1485828601610eae565b9250506020610f2585828601610eda565b9150509250929050565b60008060408385031215610f4657610f45610e60565b5b6000610f5485828601610eda565b9250506020610f6585828601610eda565b9150509250929050565b6000819050919050565b6000610f94610f8f610f8a84610e65565b610f6f565b610e65565b9050919050565b6000610fa682610f79565b9050919050565b6000610fb882610f9b565b9050919050565b610fc881610fad565b82525050565b6000602082019050610fe36000830184610fbf565b92915050565b60008060006060848603121561100257611001610e60565b5b600061101086828701610eda565b935050602061102186828701610eda565b925050604061103286828701610eda565b9150509250925092565b60006020828403121561105257611051610e60565b5b600061106084828501610eae565b91505092915050565b600081519050919050565b600082825260208201905092915050565b6000819050602082019050919050565b61109e81610e2c565b82525050565b60006110b08383611095565b60208301905092915050565b6000602082019050919050565b60006110d482611069565b6110de8185611074565b93506110e983611085565b8060005b8381101561111a57815161110188826110a4565b975061110c836110bc565b9250506001810190506110ed565b5085935050505092915050565b6000602082019050818103600083015261114181846110c9565b905092915050565b61115281610e85565b82525050565b600060208201905061116d6000830184611149565b92915050565b60006020828403121561118957611188610e60565b5b600061119784828501610eda565b91505092915050565b600060a0820190506111b56000830188610e36565b6111c26020830187611149565b6111cf6040830186610e36565b6111dc6060830185610e36565b6111e96080830184610e36565b9695505050505050565b60006111fe82610f9b565b9050919050565b61120e816111f3565b82525050565b60006020820190506112296000830184611205565b92915050565b6000806040838503121561124657611245610e60565b5b600061125485828601610eda565b925050602061126585828601610eae565b9150509250929050565b60008115159050919050565b6112848161126f565b82525050565b600060208201905061129f600083018461127b565b92915050565b6000815190506112b481610e97565b92915050565b6000602082840312156112d0576112cf610e60565b5b60006112de848285016112a5565b91505092915050565b600082825260208201905092915050565b7f43616e2774207374616b65206e667420796f7520646f6e2774206f776e210000600082015250565b600061132e601e836112e7565b9150611339826112f8565b602082019050919050565b6000602082019050818103600083015261135d81611321565b9050919050565b60006060820190506113796000830186611149565b6113866020830185611149565b6113936040830184610e36565b949350505050565b7f4e487b7100000000000000000000000000000000000000000000000000000000600052601160045260246000fd5b60006113d582610e2c565b91507fffffffffffffffffffffffffffffffffffffffffffffffffffffffffffffffff82036114075761140661139b565b5b600182019050919050565b60006060820190506114276000830186610e36565b6114346020830185610e36565b6114416040830184610e36565b949350505050565b600061145482610e2c565b915061145f83610e2c565b92508282039050818111156114775761147661139b565b5b92915050565b7f4e487b7100000000000000000000000000000000000000000000000000000000600052601260045260246000fd5b60006114b782610e2c565b91506114c283610e2c565b9250826114d2576114d161147d565b5b828204905092915050565b7f5374616b696e6720706f6f6c206e6f7420656e64656420796574212121210000600082015250565b6000611513601e836112e7565b915061151e826114dd565b602082019050919050565b6000602082019050818103600083015261154281611506565b9050919050565b7f596f7520617265206e6f74206f776e6572206f662074686973204e465420737460008201527f616b696e67000000000000000000000000000000000000000000000000000000602082015250565b60006115a56025836112e7565b91506115b082611549565b604082019050919050565b600060208201905081810360008301526115d481611598565b9050919050565b60006040820190506115f06000830185611149565b6115fd6020830184610e36565b9392505050565b61160d8161126f565b811461161857600080fd5b50565b60008151905061162a81611604565b92915050565b60006020828403121561164657611645610e60565b5b60006116548482850161161b565b91505092915050565b60006080820190506116726000830187610e36565b61167f6020830186610e36565b61168c6040830185610e36565b6116996060830184610e36565b95945050505050565b7f4f776e61626c653a206e6577206f776e657220697320746865207a65726f206160008201527f6464726573730000000000000000000000000000000000000000000000000000602082015250565b60006116fe6026836112e7565b9150611709826116a2565b604082019050919050565b6000602082019050818103600083015261172d816116f1565b9050919050565b7f4e487b7100000000000000000000000000000000000000000000000000000000600052603260045260246000fd5b7f4f776e61626c653a2063616c6c6572206973206e6f7420746865206f776e6572600082015250565b60006117996020836112e7565b91506117a482611763565b602082019050919050565b600060208201905081810360008301526117c88161178c565b905091905056fea26469706673582212201edeac92379e1345f4f63079aa2a510f7207a4e668e2673aba2459fc2b14c6b264736f6c63430008110033",
					"opcodes": "PUSH1 0x80 PUSH1 0x40 MSTORE PUSH1 0x0 PUSH1 0x4 SSTORE CALLVALUE DUP1 ISZERO PUSH3 0x16 JUMPI PUSH1 0x0 DUP1 REVERT JUMPDEST POP PUSH1 0x40 MLOAD PUSH3 0x1A7F CODESIZE SUB DUP1 PUSH3 0x1A7F DUP4 CODECOPY DUP2 DUP2 ADD PUSH1 0x40 MSTORE DUP2 ADD SWAP1 PUSH3 0x3C SWAP2 SWAP1 PUSH3 0x223 JUMP JUMPDEST PUSH3 0x5C PUSH3 0x50 PUSH3 0xED PUSH1 0x20 SHL PUSH1 0x20 SHR JUMP JUMPDEST PUSH3 0xF5 PUSH1 0x20 SHL PUSH1 0x20 SHR JUMP JUMPDEST PUSH1 0x1 DUP1 DUP2 SWAP1 SSTORE POP DUP2 PUSH1 0x3 PUSH1 0x0 PUSH2 0x100 EXP DUP2 SLOAD DUP2 PUSH20 0xFFFFFFFFFFFFFFFFFFFFFFFFFFFFFFFFFFFFFFFF MUL NOT AND SWAP1 DUP4 PUSH20 0xFFFFFFFFFFFFFFFFFFFFFFFFFFFFFFFFFFFFFFFF AND MUL OR SWAP1 SSTORE POP DUP1 PUSH1 0x2 PUSH1 0x0 PUSH2 0x100 EXP DUP2 SLOAD DUP2 PUSH20 0xFFFFFFFFFFFFFFFFFFFFFFFFFFFFFFFFFFFFFFFF MUL NOT AND SWAP1 DUP4 PUSH20 0xFFFFFFFFFFFFFFFFFFFFFFFFFFFFFFFFFFFFFFFF AND MUL OR SWAP1 SSTORE POP POP POP PUSH3 0x26A JUMP JUMPDEST PUSH1 0x0 CALLER SWAP1 POP SWAP1 JUMP JUMPDEST PUSH1 0x0 DUP1 PUSH1 0x0 SWAP1 SLOAD SWAP1 PUSH2 0x100 EXP SWAP1 DIV PUSH20 0xFFFFFFFFFFFFFFFFFFFFFFFFFFFFFFFFFFFFFFFF AND SWAP1 POP DUP2 PUSH1 0x0 DUP1 PUSH2 0x100 EXP DUP2 SLOAD DUP2 PUSH20 0xFFFFFFFFFFFFFFFFFFFFFFFFFFFFFFFFFFFFFFFF MUL NOT AND SWAP1 DUP4 PUSH20 0xFFFFFFFFFFFFFFFFFFFFFFFFFFFFFFFFFFFFFFFF AND MUL OR SWAP1 SSTORE POP DUP2 PUSH20 0xFFFFFFFFFFFFFFFFFFFFFFFFFFFFFFFFFFFFFFFF AND DUP2 PUSH20 0xFFFFFFFFFFFFFFFFFFFFFFFFFFFFFFFFFFFFFFFF AND PUSH32 0x8BE0079C531659141344CD1FD0A4F28419497F9722A3DAAFE3B4186F6B6457E0 PUSH1 0x40 MLOAD PUSH1 0x40 MLOAD DUP1 SWAP2 SUB SWAP1 LOG3 POP POP JUMP JUMPDEST PUSH1 0x0 DUP1 REVERT JUMPDEST PUSH1 0x0 PUSH20 0xFFFFFFFFFFFFFFFFFFFFFFFFFFFFFFFFFFFFFFFF DUP3 AND SWAP1 POP SWAP2 SWAP1 POP JUMP JUMPDEST PUSH1 0x0 PUSH3 0x1EB DUP3 PUSH3 0x1BE JUMP JUMPDEST SWAP1 POP SWAP2 SWAP1 POP JUMP JUMPDEST PUSH3 0x1FD DUP2 PUSH3 0x1DE JUMP JUMPDEST DUP2 EQ PUSH3 0x209 JUMPI PUSH1 0x0 DUP1 REVERT JUMPDEST POP JUMP JUMPDEST PUSH1 0x0 DUP2 MLOAD SWAP1 POP PUSH3 0x21D DUP2 PUSH3 0x1F2 JUMP JUMPDEST SWAP3 SWAP2 POP POP JUMP JUMPDEST PUSH1 0x0 DUP1 PUSH1 0x40 DUP4 DUP6 SUB SLT ISZERO PUSH3 0x23D JUMPI PUSH3 0x23C PUSH3 0x1B9 JUMP JUMPDEST JUMPDEST PUSH1 0x0 PUSH3 0x24D DUP6 DUP3 DUP7 ADD PUSH3 0x20C JUMP JUMPDEST SWAP3 POP POP PUSH1 0x20 PUSH3 0x260 DUP6 DUP3 DUP7 ADD PUSH3 0x20C JUMP JUMPDEST SWAP2 POP POP SWAP3 POP SWAP3 SWAP1 POP JUMP JUMPDEST PUSH2 0x1805 DUP1 PUSH3 0x27A PUSH1 0x0 CODECOPY PUSH1 0x0 RETURN INVALID PUSH1 0x80 PUSH1 0x40 MSTORE CALLVALUE DUP1 ISZERO PUSH2 0x10 JUMPI PUSH1 0x0 DUP1 REVERT JUMPDEST POP PUSH1 0x4 CALLDATASIZE LT PUSH2 0xCF JUMPI PUSH1 0x0 CALLDATALOAD PUSH1 0xE0 SHR DUP1 PUSH4 0x78DBA594 GT PUSH2 0x8C JUMPI DUP1 PUSH4 0xD5A44F86 GT PUSH2 0x66 JUMPI DUP1 PUSH4 0xD5A44F86 EQ PUSH2 0x200 JUMPI DUP1 PUSH4 0xF2FDE38B EQ PUSH2 0x234 JUMPI DUP1 PUSH4 0xF7C618C1 EQ PUSH2 0x250 JUMPI DUP1 PUSH4 0xFBACA086 EQ PUSH2 0x26E JUMPI PUSH2 0xCF JUMP JUMPDEST DUP1 PUSH4 0x78DBA594 EQ PUSH2 0x196 JUMPI DUP1 PUSH4 0x79E5F7D7 EQ PUSH2 0x1B2 JUMPI DUP1 PUSH4 0x8DA5CB5B EQ PUSH2 0x1E2 JUMPI PUSH2 0xCF JUMP JUMPDEST DUP1 PUSH4 0x2986C0E5 EQ PUSH2 0xD4 JUMPI DUP1 PUSH4 0x3AF416D1 EQ PUSH2 0xF2 JUMPI DUP1 PUSH4 0x3F106929 EQ PUSH2 0x122 JUMPI DUP1 PUSH4 0x51CECC80 EQ PUSH2 0x152 JUMPI DUP1 PUSH4 0x715018A6 EQ PUSH2 0x16E JUMPI DUP1 PUSH4 0x78B2E3A9 EQ PUSH2 0x178 JUMPI JUMPDEST PUSH1 0x0 DUP1 REVERT JUMPDEST PUSH2 0xDC PUSH2 0x29E JUMP JUMPDEST PUSH1 0x40 MLOAD PUSH2 0xE9 SWAP2 SWAP1 PUSH2 0xE45 JUMP JUMPDEST PUSH1 0x40 MLOAD DUP1 SWAP2 SUB SWAP1 RETURN JUMPDEST PUSH2 0x10C PUSH1 0x4 DUP1 CALLDATASIZE SUB DUP2 ADD SWAP1 PUSH2 0x107 SWAP2 SWAP1 PUSH2 0xEEF JUMP JUMPDEST PUSH2 0x2A4 JUMP JUMPDEST PUSH1 0x40 MLOAD PUSH2 0x119 SWAP2 SWAP1 PUSH2 0xE45 JUMP JUMPDEST PUSH1 0x40 MLOAD DUP1 SWAP2 SUB SWAP1 RETURN JUMPDEST PUSH2 0x13C PUSH1 0x4 DUP1 CALLDATASIZE SUB DUP2 ADD SWAP1 PUSH2 0x137 SWAP2 SWAP1 PUSH2 0xEEF JUMP JUMPDEST PUSH2 0x2D5 JUMP JUMPDEST PUSH1 0x40 MLOAD PUSH2 0x149 SWAP2 SWAP1 PUSH2 0xE45 JUMP JUMPDEST PUSH1 0x40 MLOAD DUP1 SWAP2 SUB SWAP1 RETURN JUMPDEST PUSH2 0x16C PUSH1 0x4 DUP1 CALLDATASIZE SUB DUP2 ADD SWAP1 PUSH2 0x167 SWAP2 SWAP1 PUSH2 0xF2F JUMP JUMPDEST PUSH2 0x306 JUMP JUMPDEST STOP JUMPDEST PUSH2 0x176 PUSH2 0x63C JUMP JUMPDEST STOP JUMPDEST PUSH2 0x180 PUSH2 0x650 JUMP JUMPDEST PUSH1 0x40 MLOAD PUSH2 0x18D SWAP2 SWAP1 PUSH2 0xFCE JUMP JUMPDEST PUSH1 0x40 MLOAD DUP1 SWAP2 SUB SWAP1 RETURN JUMPDEST PUSH2 0x1B0 PUSH1 0x4 DUP1 CALLDATASIZE SUB DUP2 ADD SWAP1 PUSH2 0x1AB SWAP2 SWAP1 PUSH2 0xFE9 JUMP JUMPDEST PUSH2 0x676 JUMP JUMPDEST STOP JUMPDEST PUSH2 0x1CC PUSH1 0x4 DUP1 CALLDATASIZE SUB DUP2 ADD SWAP1 PUSH2 0x1C7 SWAP2 SWAP1 PUSH2 0x103C JUMP JUMPDEST PUSH2 0x9FD JUMP JUMPDEST PUSH1 0x40 MLOAD PUSH2 0x1D9 SWAP2 SWAP1 PUSH2 0x1127 JUMP JUMPDEST PUSH1 0x40 MLOAD DUP1 SWAP2 SUB SWAP1 RETURN JUMPDEST PUSH2 0x1EA PUSH2 0xA9A JUMP JUMPDEST PUSH1 0x40 MLOAD PUSH2 0x1F7 SWAP2 SWAP1 PUSH2 0x1158 JUMP JUMPDEST PUSH1 0x40 MLOAD DUP1 SWAP2 SUB SWAP1 RETURN JUMPDEST PUSH2 0x21A PUSH1 0x4 DUP1 CALLDATASIZE SUB DUP2 ADD SWAP1 PUSH2 0x215 SWAP2 SWAP1 PUSH2 0x1173 JUMP JUMPDEST PUSH2 0xAC3 JUMP JUMPDEST PUSH1 0x40 MLOAD PUSH2 0x22B SWAP6 SWAP5 SWAP4 SWAP3 SWAP2 SWAP1 PUSH2 0x11A0 JUMP JUMPDEST PUSH1 0x40 MLOAD DUP1 SWAP2 SUB SWAP1 RETURN JUMPDEST PUSH2 0x24E PUSH1 0x4 DUP1 CALLDATASIZE SUB DUP2 ADD SWAP1 PUSH2 0x249 SWAP2 SWAP1 PUSH2 0x103C JUMP JUMPDEST PUSH2 0xB19 JUMP JUMPDEST STOP JUMPDEST PUSH2 0x258 PUSH2 0xB9C JUMP JUMPDEST PUSH1 0x40 MLOAD PUSH2 0x265 SWAP2 SWAP1 PUSH2 0x1214 JUMP JUMPDEST PUSH1 0x40 MLOAD DUP1 SWAP2 SUB SWAP1 RETURN JUMPDEST PUSH2 0x288 PUSH1 0x4 DUP1 CALLDATASIZE SUB DUP2 ADD SWAP1 PUSH2 0x283 SWAP2 SWAP1 PUSH2 0x122F JUMP JUMPDEST PUSH2 0xBC2 JUMP JUMPDEST PUSH1 0x40 MLOAD PUSH2 0x295 SWAP2 SWAP1 PUSH2 0x128A JUMP JUMPDEST PUSH1 0x40 MLOAD DUP1 SWAP2 SUB SWAP1 RETURN JUMPDEST PUSH1 0x4 SLOAD DUP2 JUMP JUMPDEST PUSH1 0x8 PUSH1 0x20 MSTORE DUP2 PUSH1 0x0 MSTORE PUSH1 0x40 PUSH1 0x0 KECCAK256 DUP2 DUP2 SLOAD DUP2 LT PUSH2 0x2C0 JUMPI PUSH1 0x0 DUP1 REVERT JUMPDEST SWAP1 PUSH1 0x0 MSTORE PUSH1 0x20 PUSH1 0x0 KECCAK256 ADD PUSH1 0x0 SWAP2 POP SWAP2 POP POP SLOAD DUP2 JUMP JUMPDEST PUSH1 0x7 PUSH1 0x20 MSTORE DUP2 PUSH1 0x0 MSTORE PUSH1 0x40 PUSH1 0x0 KECCAK256 DUP2 DUP2 SLOAD DUP2 LT PUSH2 0x2F1 JUMPI PUSH1 0x0 DUP1 REVERT JUMPDEST SWAP1 PUSH1 0x0 MSTORE PUSH1 0x20 PUSH1 0x0 KECCAK256 ADD PUSH1 0x0 SWAP2 POP SWAP2 POP POP SLOAD DUP2 JUMP JUMPDEST CALLER PUSH20 0xFFFFFFFFFFFFFFFFFFFFFFFFFFFFFFFFFFFFFFFF AND PUSH1 0x2 PUSH1 0x0 SWAP1 SLOAD SWAP1 PUSH2 0x100 EXP SWAP1 DIV PUSH20 0xFFFFFFFFFFFFFFFFFFFFFFFFFFFFFFFFFFFFFFFF AND PUSH20 0xFFFFFFFFFFFFFFFFFFFFFFFFFFFFFFFFFFFFFFFF AND PUSH4 0x6352211E DUP5 PUSH1 0x40 MLOAD DUP3 PUSH4 0xFFFFFFFF AND PUSH1 0xE0 SHL DUP2 MSTORE PUSH1 0x4 ADD PUSH2 0x378 SWAP2 SWAP1 PUSH2 0xE45 JUMP JUMPDEST PUSH1 0x20 PUSH1 0x40 MLOAD DUP1 DUP4 SUB DUP2 DUP7 GAS STATICCALL ISZERO DUP1 ISZERO PUSH2 0x395 JUMPI RETURNDATASIZE PUSH1 0x0 DUP1 RETURNDATACOPY RETURNDATASIZE PUSH1 0x0 REVERT JUMPDEST POP POP POP POP PUSH1 0x40 MLOAD RETURNDATASIZE PUSH1 0x1F NOT PUSH1 0x1F DUP3 ADD AND DUP3 ADD DUP1 PUSH1 0x40 MSTORE POP DUP2 ADD SWAP1 PUSH2 0x3B9 SWAP2 SWAP1 PUSH2 0x12BA JUMP JUMPDEST PUSH20 0xFFFFFFFFFFFFFFFFFFFFFFFFFFFFFFFFFFFFFFFF AND EQ PUSH2 0x40F JUMPI PUSH1 0x40 MLOAD PUSH32 0x8C379A000000000000000000000000000000000000000000000000000000000 DUP2 MSTORE PUSH1 0x4 ADD PUSH2 0x406 SWAP1 PUSH2 0x1344 JUMP JUMPDEST PUSH1 0x40 MLOAD DUP1 SWAP2 SUB SWAP1 REVERT JUMPDEST PUSH1 0x40 MLOAD DUP1 PUSH1 0xA0 ADD PUSH1 0x40 MSTORE DUP1 PUSH1 0x4 SLOAD DUP2 MSTORE PUSH1 0x20 ADD CALLER PUSH20 0xFFFFFFFFFFFFFFFFFFFFFFFFFFFFFFFFFFFFFFFF AND DUP2 MSTORE PUSH1 0x20 ADD DUP4 DUP2 MSTORE PUSH1 0x20 ADD DUP3 DUP2 MSTORE PUSH1 0x20 ADD TIMESTAMP DUP2 MSTORE POP PUSH1 0x6 PUSH1 0x0 PUSH1 0x4 SLOAD DUP2 MSTORE PUSH1 0x20 ADD SWAP1 DUP2 MSTORE PUSH1 0x20 ADD PUSH1 0x0 KECCAK256 PUSH1 0x0 DUP3 ADD MLOAD DUP2 PUSH1 0x0 ADD SSTORE PUSH1 0x20 DUP3 ADD MLOAD DUP2 PUSH1 0x1 ADD PUSH1 0x0 PUSH2 0x100 EXP DUP2 SLOAD DUP2 PUSH20 0xFFFFFFFFFFFFFFFFFFFFFFFFFFFFFFFFFFFFFFFF MUL NOT AND SWAP1 DUP4 PUSH20 0xFFFFFFFFFFFFFFFFFFFFFFFFFFFFFFFFFFFFFFFF AND MUL OR SWAP1 SSTORE POP PUSH1 0x40 DUP3 ADD MLOAD DUP2 PUSH1 0x2 ADD SSTORE PUSH1 0x60 DUP3 ADD MLOAD DUP2 PUSH1 0x3 ADD SSTORE PUSH1 0x80 DUP3 ADD MLOAD DUP2 PUSH1 0x4 ADD SSTORE SWAP1 POP POP PUSH1 0x7 PUSH1 0x0 CALLER PUSH20 0xFFFFFFFFFFFFFFFFFFFFFFFFFFFFFFFFFFFFFFFF AND PUSH20 0xFFFFFFFFFFFFFFFFFFFFFFFFFFFFFFFFFFFFFFFF AND DUP2 MSTORE PUSH1 0x20 ADD SWAP1 DUP2 MSTORE PUSH1 0x20 ADD PUSH1 0x0 KECCAK256 PUSH1 0x4 SLOAD SWAP1 DUP1 PUSH1 0x1 DUP2 SLOAD ADD DUP1 DUP3 SSTORE DUP1 SWAP2 POP POP PUSH1 0x1 SWAP1 SUB SWAP1 PUSH1 0x0 MSTORE PUSH1 0x20 PUSH1 0x0 KECCAK256 ADD PUSH1 0x0 SWAP1 SWAP2 SWAP1 SWAP2 SWAP1 SWAP2 POP SSTORE PUSH1 0x2 PUSH1 0x0 SWAP1 SLOAD SWAP1 PUSH2 0x100 EXP SWAP1 DIV PUSH20 0xFFFFFFFFFFFFFFFFFFFFFFFFFFFFFFFFFFFFFFFF AND PUSH20 0xFFFFFFFFFFFFFFFFFFFFFFFFFFFFFFFFFFFFFFFF AND PUSH4 0x23B872DD CALLER ADDRESS DUP6 PUSH1 0x40 MLOAD DUP5 PUSH4 0xFFFFFFFF AND PUSH1 0xE0 SHL DUP2 MSTORE PUSH1 0x4 ADD PUSH2 0x59C SWAP4 SWAP3 SWAP2 SWAP1 PUSH2 0x1364 JUMP JUMPDEST PUSH1 0x0 PUSH1 0x40 MLOAD DUP1 DUP4 SUB DUP2 PUSH1 0x0 DUP8 DUP1 EXTCODESIZE ISZERO DUP1 ISZERO PUSH2 0x5B6 JUMPI PUSH1 0x0 DUP1 REVERT JUMPDEST POP GAS CALL ISZERO DUP1 ISZERO PUSH2 0x5CA JUMPI RETURNDATASIZE PUSH1 0x0 DUP1 RETURNDATACOPY RETURNDATASIZE PUSH1 0x0 REVERT JUMPDEST POP POP POP POP PUSH1 0x4 PUSH1 0x0 DUP2 SLOAD DUP1 SWAP3 SWAP2 SWAP1 PUSH2 0x5E1 SWAP1 PUSH2 0x13CA JUMP JUMPDEST SWAP2 SWAP1 POP SSTORE POP CALLER PUSH20 0xFFFFFFFFFFFFFFFFFFFFFFFFFFFFFFFFFFFFFFFF AND PUSH32 0xF556991011E831BCFAC4F406D547E5E32CDD98267EFAB83935230D5F8D02C446 DUP4 DUP4 TIMESTAMP PUSH1 0x40 MLOAD PUSH2 0x630 SWAP4 SWAP3 SWAP2 SWAP1 PUSH2 0x1412 JUMP JUMPDEST PUSH1 0x40 MLOAD DUP1 SWAP2 SUB SWAP1 LOG2 POP POP JUMP JUMPDEST PUSH2 0x644 PUSH2 0xC9F JUMP JUMPDEST PUSH2 0x64E PUSH1 0x0 PUSH2 0xD1D JUMP JUMPDEST JUMP JUMPDEST PUSH1 0x2 PUSH1 0x0 SWAP1 SLOAD SWAP1 PUSH2 0x100 EXP SWAP1 DIV PUSH20 0xFFFFFFFFFFFFFFFFFFFFFFFFFFFFFFFFFFFFFFFF AND DUP2 JUMP JUMPDEST DUP1 PUSH1 0x18 PUSH1 0x3C DUP1 PUSH1 0x6 PUSH1 0x0 DUP9 DUP2 MSTORE PUSH1 0x20 ADD SWAP1 DUP2 MSTORE PUSH1 0x20 ADD PUSH1 0x0 KECCAK256 PUSH1 0x4 ADD SLOAD TIMESTAMP PUSH2 0x69E SWAP2 SWAP1 PUSH2 0x1449 JUMP JUMPDEST PUSH2 0x6A8 SWAP2 SWAP1 PUSH2 0x14AC JUMP JUMPDEST PUSH2 0x6B2 SWAP2 SWAP1 PUSH2 0x14AC JUMP JUMPDEST PUSH2 0x6BC SWAP2 SWAP1 PUSH2 0x14AC JUMP JUMPDEST LT ISZERO PUSH2 0x6FD JUMPI PUSH1 0x40 MLOAD PUSH32 0x8C379A000000000000000000000000000000000000000000000000000000000 DUP2 MSTORE PUSH1 0x4 ADD PUSH2 0x6F4 SWAP1 PUSH2 0x1529 JUMP JUMPDEST PUSH1 0x40 MLOAD DUP1 SWAP2 SUB SWAP1 REVERT JUMPDEST CALLER PUSH20 0xFFFFFFFFFFFFFFFFFFFFFFFFFFFFFFFFFFFFFFFF AND PUSH1 0x6 PUSH1 0x0 DUP6 DUP2 MSTORE PUSH1 0x20 ADD SWAP1 DUP2 MSTORE PUSH1 0x20 ADD PUSH1 0x0 KECCAK256 PUSH1 0x1 ADD PUSH1 0x0 SWAP1 SLOAD SWAP1 PUSH2 0x100 EXP SWAP1 DIV PUSH20 0xFFFFFFFFFFFFFFFFFFFFFFFFFFFFFFFFFFFFFFFF AND PUSH20 0xFFFFFFFFFFFFFFFFFFFFFFFFFFFFFFFFFFFFFFFF AND EQ PUSH2 0x7A1 JUMPI PUSH1 0x40 MLOAD PUSH32 0x8C379A000000000000000000000000000000000000000000000000000000000 DUP2 MSTORE PUSH1 0x4 ADD PUSH2 0x798 SWAP1 PUSH2 0x15BB JUMP JUMPDEST PUSH1 0x40 MLOAD DUP1 SWAP2 SUB SWAP1 REVERT JUMPDEST PUSH1 0x6 PUSH1 0x0 DUP5 DUP2 MSTORE PUSH1 0x20 ADD SWAP1 DUP2 MSTORE PUSH1 0x20 ADD PUSH1 0x0 KECCAK256 PUSH1 0x0 DUP1 DUP3 ADD PUSH1 0x0 SWAP1 SSTORE PUSH1 0x1 DUP3 ADD PUSH1 0x0 PUSH2 0x100 EXP DUP2 SLOAD SWAP1 PUSH20 0xFFFFFFFFFFFFFFFFFFFFFFFFFFFFFFFFFFFFFFFF MUL NOT AND SWAP1 SSTORE PUSH1 0x2 DUP3 ADD PUSH1 0x0 SWAP1 SSTORE PUSH1 0x3 DUP3 ADD PUSH1 0x0 SWAP1 SSTORE PUSH1 0x4 DUP3 ADD PUSH1 0x0 SWAP1 SSTORE POP POP PUSH1 0x8 PUSH1 0x0 CALLER PUSH20 0xFFFFFFFFFFFFFFFFFFFFFFFFFFFFFFFFFFFFFFFF AND PUSH20 0xFFFFFFFFFFFFFFFFFFFFFFFFFFFFFFFFFFFFFFFF AND DUP2 MSTORE PUSH1 0x20 ADD SWAP1 DUP2 MSTORE PUSH1 0x20 ADD PUSH1 0x0 KECCAK256 DUP4 SWAP1 DUP1 PUSH1 0x1 DUP2 SLOAD ADD DUP1 DUP3 SSTORE DUP1 SWAP2 POP POP PUSH1 0x1 SWAP1 SUB SWAP1 PUSH1 0x0 MSTORE PUSH1 0x20 PUSH1 0x0 KECCAK256 ADD PUSH1 0x0 SWAP1 SWAP2 SWAP1 SWAP2 SWAP1 SWAP2 POP SSTORE PUSH1 0x2 PUSH1 0x0 SWAP1 SLOAD SWAP1 PUSH2 0x100 EXP SWAP1 DIV PUSH20 0xFFFFFFFFFFFFFFFFFFFFFFFFFFFFFFFFFFFFFFFF AND PUSH20 0xFFFFFFFFFFFFFFFFFFFFFFFFFFFFFFFFFFFFFFFF AND PUSH4 0x23B872DD ADDRESS CALLER DUP6 PUSH1 0x40 MLOAD DUP5 PUSH4 0xFFFFFFFF AND PUSH1 0xE0 SHL DUP2 MSTORE PUSH1 0x4 ADD PUSH2 0x8C3 SWAP4 SWAP3 SWAP2 SWAP1 PUSH2 0x1364 JUMP JUMPDEST PUSH1 0x0 PUSH1 0x40 MLOAD DUP1 DUP4 SUB DUP2 PUSH1 0x0 DUP8 DUP1 EXTCODESIZE ISZERO DUP1 ISZERO PUSH2 0x8DD JUMPI PUSH1 0x0 DUP1 REVERT JUMPDEST POP GAS CALL ISZERO DUP1 ISZERO PUSH2 0x8F1 JUMPI RETURNDATASIZE PUSH1 0x0 DUP1 RETURNDATACOPY RETURNDATASIZE PUSH1 0x0 REVERT JUMPDEST POP POP POP POP PUSH1 0x0 PUSH2 0x900 DUP3 PUSH2 0xDE1 JUMP JUMPDEST SWAP1 POP PUSH1 0x3 PUSH1 0x0 SWAP1 SLOAD SWAP1 PUSH2 0x100 EXP SWAP1 DIV PUSH20 0xFFFFFFFFFFFFFFFFFFFFFFFFFFFFFFFFFFFFFFFF AND PUSH20 0xFFFFFFFFFFFFFFFFFFFFFFFFFFFFFFFFFFFFFFFF AND PUSH4 0xA9059CBB CALLER DUP4 PUSH1 0x40 MLOAD DUP4 PUSH4 0xFFFFFFFF AND PUSH1 0xE0 SHL DUP2 MSTORE PUSH1 0x4 ADD PUSH2 0x95F SWAP3 SWAP2 SWAP1 PUSH2 0x15DB JUMP JUMPDEST PUSH1 0x20 PUSH1 0x40 MLOAD DUP1 DUP4 SUB DUP2 PUSH1 0x0 DUP8 GAS CALL ISZERO DUP1 ISZERO PUSH2 0x97E JUMPI RETURNDATASIZE PUSH1 0x0 DUP1 RETURNDATACOPY RETURNDATASIZE PUSH1 0x0 REVERT JUMPDEST POP POP POP POP PUSH1 0x40 MLOAD RETURNDATASIZE PUSH1 0x1F NOT PUSH1 0x1F DUP3 ADD AND DUP3 ADD DUP1 PUSH1 0x40 MSTORE POP DUP2 ADD SWAP1 PUSH2 0x9A2 SWAP2 SWAP1 PUSH2 0x1630 JUMP JUMPDEST POP CALLER PUSH20 0xFFFFFFFFFFFFFFFFFFFFFFFFFFFFFFFFFFFFFFFF AND PUSH32 0xF74C9F1985016FF6AA83C3FD81E31D0BE3B194F205AE5E1B57F5BD74AD28E4CF DUP5 DUP5 TIMESTAMP DUP6 PUSH1 0x40 MLOAD PUSH2 0x9EF SWAP5 SWAP4 SWAP3 SWAP2 SWAP1 PUSH2 0x165D JUMP JUMPDEST PUSH1 0x40 MLOAD DUP1 SWAP2 SUB SWAP1 LOG2 POP POP POP POP JUMP JUMPDEST PUSH1 0x60 PUSH1 0x0 PUSH1 0x7 PUSH1 0x0 DUP5 PUSH20 0xFFFFFFFFFFFFFFFFFFFFFFFFFFFFFFFFFFFFFFFF AND PUSH20 0xFFFFFFFFFFFFFFFFFFFFFFFFFFFFFFFFFFFFFFFF AND DUP2 MSTORE PUSH1 0x20 ADD SWAP1 DUP2 MSTORE PUSH1 0x20 ADD PUSH1 0x0 KECCAK256 DUP1 SLOAD DUP1 PUSH1 0x20 MUL PUSH1 0x20 ADD PUSH1 0x40 MLOAD SWAP1 DUP2 ADD PUSH1 0x40 MSTORE DUP1 SWAP3 SWAP2 SWAP1 DUP2 DUP2 MSTORE PUSH1 0x20 ADD DUP3 DUP1 SLOAD DUP1 ISZERO PUSH2 0xA8A JUMPI PUSH1 0x20 MUL DUP3 ADD SWAP2 SWAP1 PUSH1 0x0 MSTORE PUSH1 0x20 PUSH1 0x0 KECCAK256 SWAP1 JUMPDEST DUP2 SLOAD DUP2 MSTORE PUSH1 0x20 ADD SWAP1 PUSH1 0x1 ADD SWAP1 DUP1 DUP4 GT PUSH2 0xA76 JUMPI JUMPDEST POP POP POP POP POP SWAP1 POP DUP1 SWAP2 POP POP SWAP2 SWAP1 POP JUMP JUMPDEST PUSH1 0x0 DUP1 PUSH1 0x0 SWAP1 SLOAD SWAP1 PUSH2 0x100 EXP SWAP1 DIV PUSH20 0xFFFFFFFFFFFFFFFFFFFFFFFFFFFFFFFFFFFFFFFF AND SWAP1 POP SWAP1 JUMP JUMPDEST PUSH1 0x6 PUSH1 0x20 MSTORE DUP1 PUSH1 0x0 MSTORE PUSH1 0x40 PUSH1 0x0 KECCAK256 PUSH1 0x0 SWAP2 POP SWAP1 POP DUP1 PUSH1 0x0 ADD SLOAD SWAP1 DUP1 PUSH1 0x1 ADD PUSH1 0x0 SWAP1 SLOAD SWAP1 PUSH2 0x100 EXP SWAP1 DIV PUSH20 0xFFFFFFFFFFFFFFFFFFFFFFFFFFFFFFFFFFFFFFFF AND SWAP1 DUP1 PUSH1 0x2 ADD SLOAD SWAP1 DUP1 PUSH1 0x3 ADD SLOAD SWAP1 DUP1 PUSH1 0x4 ADD SLOAD SWAP1 POP DUP6 JUMP JUMPDEST PUSH2 0xB21 PUSH2 0xC9F JUMP JUMPDEST PUSH1 0x0 PUSH20 0xFFFFFFFFFFFFFFFFFFFFFFFFFFFFFFFFFFFFFFFF AND DUP2 PUSH20 0xFFFFFFFFFFFFFFFFFFFFFFFFFFFFFFFFFFFFFFFF AND SUB PUSH2 0xB90 JUMPI PUSH1 0x40 MLOAD PUSH32 0x8C379A000000000000000000000000000000000000000000000000000000000 DUP2 MSTORE PUSH1 0x4 ADD PUSH2 0xB87 SWAP1 PUSH2 0x1714 JUMP JUMPDEST PUSH1 0x40 MLOAD DUP1 SWAP2 SUB SWAP1 REVERT JUMPDEST PUSH2 0xB99 DUP2 PUSH2 0xD1D JUMP JUMPDEST POP JUMP JUMPDEST PUSH1 0x3 PUSH1 0x0 SWAP1 SLOAD SWAP1 PUSH2 0x100 EXP SWAP1 DIV PUSH20 0xFFFFFFFFFFFFFFFFFFFFFFFFFFFFFFFFFFFFFFFF AND DUP2 JUMP JUMPDEST PUSH1 0x0 DUP1 PUSH1 0x0 SWAP1 POP JUMPDEST PUSH1 0x8 PUSH1 0x0 DUP5 PUSH20 0xFFFFFFFFFFFFFFFFFFFFFFFFFFFFFFFFFFFFFFFF AND PUSH20 0xFFFFFFFFFFFFFFFFFFFFFFFFFFFFFFFFFFFFFFFF AND DUP2 MSTORE PUSH1 0x20 ADD SWAP1 DUP2 MSTORE PUSH1 0x20 ADD PUSH1 0x0 KECCAK256 DUP1 SLOAD SWAP1 POP DUP2 LT ISZERO PUSH2 0xC93 JUMPI DUP4 PUSH1 0x8 PUSH1 0x0 DUP6 PUSH20 0xFFFFFFFFFFFFFFFFFFFFFFFFFFFFFFFFFFFFFFFF AND PUSH20 0xFFFFFFFFFFFFFFFFFFFFFFFFFFFFFFFFFFFFFFFF AND DUP2 MSTORE PUSH1 0x20 ADD SWAP1 DUP2 MSTORE PUSH1 0x20 ADD PUSH1 0x0 KECCAK256 DUP3 DUP2 SLOAD DUP2 LT PUSH2 0xC66 JUMPI PUSH2 0xC65 PUSH2 0x1734 JUMP JUMPDEST JUMPDEST SWAP1 PUSH1 0x0 MSTORE PUSH1 0x20 PUSH1 0x0 KECCAK256 ADD SLOAD SUB PUSH2 0xC80 JUMPI PUSH1 0x1 SWAP2 POP POP PUSH2 0xC99 JUMP JUMPDEST DUP1 DUP1 PUSH2 0xC8B SWAP1 PUSH2 0x13CA JUMP JUMPDEST SWAP2 POP POP PUSH2 0xBCA JUMP JUMPDEST POP PUSH1 0x0 SWAP1 POP JUMPDEST SWAP3 SWAP2 POP POP JUMP JUMPDEST PUSH2 0xCA7 PUSH2 0xE24 JUMP JUMPDEST PUSH20 0xFFFFFFFFFFFFFFFFFFFFFFFFFFFFFFFFFFFFFFFF AND PUSH2 0xCC5 PUSH2 0xA9A JUMP JUMPDEST PUSH20 0xFFFFFFFFFFFFFFFFFFFFFFFFFFFFFFFFFFFFFFFF AND EQ PUSH2 0xD1B JUMPI PUSH1 0x40 MLOAD PUSH32 0x8C379A000000000000000000000000000000000000000000000000000000000 DUP2 MSTORE PUSH1 0x4 ADD PUSH2 0xD12 SWAP1 PUSH2 0x17AF JUMP JUMPDEST PUSH1 0x40 MLOAD DUP1 SWAP2 SUB SWAP1 REVERT JUMPDEST JUMP JUMPDEST PUSH1 0x0 DUP1 PUSH1 0x0 SWAP1 SLOAD SWAP1 PUSH2 0x100 EXP SWAP1 DIV PUSH20 0xFFFFFFFFFFFFFFFFFFFFFFFFFFFFFFFFFFFFFFFF AND SWAP1 POP DUP2 PUSH1 0x0 DUP1 PUSH2 0x100 EXP DUP2 SLOAD DUP2 PUSH20 0xFFFFFFFFFFFFFFFFFFFFFFFFFFFFFFFFFFFFFFFF MUL NOT AND SWAP1 DUP4 PUSH20 0xFFFFFFFFFFFFFFFFFFFFFFFFFFFFFFFFFFFFFFFF AND MUL OR SWAP1 SSTORE POP DUP2 PUSH20 0xFFFFFFFFFFFFFFFFFFFFFFFFFFFFFFFFFFFFFFFF AND DUP2 PUSH20 0xFFFFFFFFFFFFFFFFFFFFFFFFFFFFFFFFFFFFFFFF AND PUSH32 0x8BE0079C531659141344CD1FD0A4F28419497F9722A3DAAFE3B4186F6B6457E0 PUSH1 0x40 MLOAD PUSH1 0x40 MLOAD DUP1 SWAP2 SUB SWAP1 LOG3 POP POP JUMP JUMPDEST PUSH1 0x0 PUSH1 0x7 DUP3 SUB PUSH2 0xDF5 JUMPI PUSH2 0x3E8 SWAP1 POP PUSH2 0xE1F JUMP JUMPDEST PUSH1 0xE DUP3 SUB PUSH2 0xE07 JUMPI PUSH2 0xBB8 SWAP1 POP PUSH2 0xE1F JUMP JUMPDEST PUSH1 0x1E DUP3 SUB PUSH2 0xE19 JUMPI PUSH2 0x1388 SWAP1 POP PUSH2 0xE1F JUMP JUMPDEST PUSH2 0x2710 SWAP1 POP JUMPDEST SWAP2 SWAP1 POP JUMP JUMPDEST PUSH1 0x0 CALLER SWAP1 POP SWAP1 JUMP JUMPDEST PUSH1 0x0 DUP2 SWAP1 POP SWAP2 SWAP1 POP JUMP JUMPDEST PUSH2 0xE3F DUP2 PUSH2 0xE2C JUMP JUMPDEST DUP3 MSTORE POP POP JUMP JUMPDEST PUSH1 0x0 PUSH1 0x20 DUP3 ADD SWAP1 POP PUSH2 0xE5A PUSH1 0x0 DUP4 ADD DUP5 PUSH2 0xE36 JUMP JUMPDEST SWAP3 SWAP2 POP POP JUMP JUMPDEST PUSH1 0x0 DUP1 REVERT JUMPDEST PUSH1 0x0 PUSH20 0xFFFFFFFFFFFFFFFFFFFFFFFFFFFFFFFFFFFFFFFF DUP3 AND SWAP1 POP SWAP2 SWAP1 POP JUMP JUMPDEST PUSH1 0x0 PUSH2 0xE90 DUP3 PUSH2 0xE65 JUMP JUMPDEST SWAP1 POP SWAP2 SWAP1 POP JUMP JUMPDEST PUSH2 0xEA0 DUP2 PUSH2 0xE85 JUMP JUMPDEST DUP2 EQ PUSH2 0xEAB JUMPI PUSH1 0x0 DUP1 REVERT JUMPDEST POP JUMP JUMPDEST PUSH1 0x0 DUP2 CALLDATALOAD SWAP1 POP PUSH2 0xEBD DUP2 PUSH2 0xE97 JUMP JUMPDEST SWAP3 SWAP2 POP POP JUMP JUMPDEST PUSH2 0xECC DUP2 PUSH2 0xE2C JUMP JUMPDEST DUP2 EQ PUSH2 0xED7 JUMPI PUSH1 0x0 DUP1 REVERT JUMPDEST POP JUMP JUMPDEST PUSH1 0x0 DUP2 CALLDATALOAD SWAP1 POP PUSH2 0xEE9 DUP2 PUSH2 0xEC3 JUMP JUMPDEST SWAP3 SWAP2 POP POP JUMP JUMPDEST PUSH1 0x0 DUP1 PUSH1 0x40 DUP4 DUP6 SUB SLT ISZERO PUSH2 0xF06 JUMPI PUSH2 0xF05 PUSH2 0xE60 JUMP JUMPDEST JUMPDEST PUSH1 0x0 PUSH2 0xF14 DUP6 DUP3 DUP7 ADD PUSH2 0xEAE JUMP JUMPDEST SWAP3 POP POP PUSH1 0x20 PUSH2 0xF25 DUP6 DUP3 DUP7 ADD PUSH2 0xEDA JUMP JUMPDEST SWAP2 POP POP SWAP3 POP SWAP3 SWAP1 POP JUMP JUMPDEST PUSH1 0x0 DUP1 PUSH1 0x40 DUP4 DUP6 SUB SLT ISZERO PUSH2 0xF46 JUMPI PUSH2 0xF45 PUSH2 0xE60 JUMP JUMPDEST JUMPDEST PUSH1 0x0 PUSH2 0xF54 DUP6 DUP3 DUP7 ADD PUSH2 0xEDA JUMP JUMPDEST SWAP3 POP POP PUSH1 0x20 PUSH2 0xF65 DUP6 DUP3 DUP7 ADD PUSH2 0xEDA JUMP JUMPDEST SWAP2 POP POP SWAP3 POP SWAP3 SWAP1 POP JUMP JUMPDEST PUSH1 0x0 DUP2 SWAP1 POP SWAP2 SWAP1 POP JUMP JUMPDEST PUSH1 0x0 PUSH2 0xF94 PUSH2 0xF8F PUSH2 0xF8A DUP5 PUSH2 0xE65 JUMP JUMPDEST PUSH2 0xF6F JUMP JUMPDEST PUSH2 0xE65 JUMP JUMPDEST SWAP1 POP SWAP2 SWAP1 POP JUMP JUMPDEST PUSH1 0x0 PUSH2 0xFA6 DUP3 PUSH2 0xF79 JUMP JUMPDEST SWAP1 POP SWAP2 SWAP1 POP JUMP JUMPDEST PUSH1 0x0 PUSH2 0xFB8 DUP3 PUSH2 0xF9B JUMP JUMPDEST SWAP1 POP SWAP2 SWAP1 POP JUMP JUMPDEST PUSH2 0xFC8 DUP2 PUSH2 0xFAD JUMP JUMPDEST DUP3 MSTORE POP POP JUMP JUMPDEST PUSH1 0x0 PUSH1 0x20 DUP3 ADD SWAP1 POP PUSH2 0xFE3 PUSH1 0x0 DUP4 ADD DUP5 PUSH2 0xFBF JUMP JUMPDEST SWAP3 SWAP2 POP POP JUMP JUMPDEST PUSH1 0x0 DUP1 PUSH1 0x0 PUSH1 0x60 DUP5 DUP7 SUB SLT ISZERO PUSH2 0x1002 JUMPI PUSH2 0x1001 PUSH2 0xE60 JUMP JUMPDEST JUMPDEST PUSH1 0x0 PUSH2 0x1010 DUP7 DUP3 DUP8 ADD PUSH2 0xEDA JUMP JUMPDEST SWAP4 POP POP PUSH1 0x20 PUSH2 0x1021 DUP7 DUP3 DUP8 ADD PUSH2 0xEDA JUMP JUMPDEST SWAP3 POP POP PUSH1 0x40 PUSH2 0x1032 DUP7 DUP3 DUP8 ADD PUSH2 0xEDA JUMP JUMPDEST SWAP2 POP POP SWAP3 POP SWAP3 POP SWAP3 JUMP JUMPDEST PUSH1 0x0 PUSH1 0x20 DUP3 DUP5 SUB SLT ISZERO PUSH2 0x1052 JUMPI PUSH2 0x1051 PUSH2 0xE60 JUMP JUMPDEST JUMPDEST PUSH1 0x0 PUSH2 0x1060 DUP5 DUP3 DUP6 ADD PUSH2 0xEAE JUMP JUMPDEST SWAP2 POP POP SWAP3 SWAP2 POP POP JUMP JUMPDEST PUSH1 0x0 DUP2 MLOAD SWAP1 POP SWAP2 SWAP1 POP JUMP JUMPDEST PUSH1 0x0 DUP3 DUP3 MSTORE PUSH1 0x20 DUP3 ADD SWAP1 POP SWAP3 SWAP2 POP POP JUMP JUMPDEST PUSH1 0x0 DUP2 SWAP1 POP PUSH1 0x20 DUP3 ADD SWAP1 POP SWAP2 SWAP1 POP JUMP JUMPDEST PUSH2 0x109E DUP2 PUSH2 0xE2C JUMP JUMPDEST DUP3 MSTORE POP POP JUMP JUMPDEST PUSH1 0x0 PUSH2 0x10B0 DUP4 DUP4 PUSH2 0x1095 JUMP JUMPDEST PUSH1 0x20 DUP4 ADD SWAP1 POP SWAP3 SWAP2 POP POP JUMP JUMPDEST PUSH1 0x0 PUSH1 0x20 DUP3 ADD SWAP1 POP SWAP2 SWAP1 POP JUMP JUMPDEST PUSH1 0x0 PUSH2 0x10D4 DUP3 PUSH2 0x1069 JUMP JUMPDEST PUSH2 0x10DE DUP2 DUP6 PUSH2 0x1074 JUMP JUMPDEST SWAP4 POP PUSH2 0x10E9 DUP4 PUSH2 0x1085 JUMP JUMPDEST DUP1 PUSH1 0x0 JUMPDEST DUP4 DUP2 LT ISZERO PUSH2 0x111A JUMPI DUP2 MLOAD PUSH2 0x1101 DUP9 DUP3 PUSH2 0x10A4 JUMP JUMPDEST SWAP8 POP PUSH2 0x110C DUP4 PUSH2 0x10BC JUMP JUMPDEST SWAP3 POP POP PUSH1 0x1 DUP2 ADD SWAP1 POP PUSH2 0x10ED JUMP JUMPDEST POP DUP6 SWAP4 POP POP POP POP SWAP3 SWAP2 POP POP JUMP JUMPDEST PUSH1 0x0 PUSH1 0x20 DUP3 ADD SWAP1 POP DUP2 DUP2 SUB PUSH1 0x0 DUP4 ADD MSTORE PUSH2 0x1141 DUP2 DUP5 PUSH2 0x10C9 JUMP JUMPDEST SWAP1 POP SWAP3 SWAP2 POP POP JUMP JUMPDEST PUSH2 0x1152 DUP2 PUSH2 0xE85 JUMP JUMPDEST DUP3 MSTORE POP POP JUMP JUMPDEST PUSH1 0x0 PUSH1 0x20 DUP3 ADD SWAP1 POP PUSH2 0x116D PUSH1 0x0 DUP4 ADD DUP5 PUSH2 0x1149 JUMP JUMPDEST SWAP3 SWAP2 POP POP JUMP JUMPDEST PUSH1 0x0 PUSH1 0x20 DUP3 DUP5 SUB SLT ISZERO PUSH2 0x1189 JUMPI PUSH2 0x1188 PUSH2 0xE60 JUMP JUMPDEST JUMPDEST PUSH1 0x0 PUSH2 0x1197 DUP5 DUP3 DUP6 ADD PUSH2 0xEDA JUMP JUMPDEST SWAP2 POP POP SWAP3 SWAP2 POP POP JUMP JUMPDEST PUSH1 0x0 PUSH1 0xA0 DUP3 ADD SWAP1 POP PUSH2 0x11B5 PUSH1 0x0 DUP4 ADD DUP9 PUSH2 0xE36 JUMP JUMPDEST PUSH2 0x11C2 PUSH1 0x20 DUP4 ADD DUP8 PUSH2 0x1149 JUMP JUMPDEST PUSH2 0x11CF PUSH1 0x40 DUP4 ADD DUP7 PUSH2 0xE36 JUMP JUMPDEST PUSH2 0x11DC PUSH1 0x60 DUP4 ADD DUP6 PUSH2 0xE36 JUMP JUMPDEST PUSH2 0x11E9 PUSH1 0x80 DUP4 ADD DUP5 PUSH2 0xE36 JUMP JUMPDEST SWAP7 SWAP6 POP POP POP POP POP POP JUMP JUMPDEST PUSH1 0x0 PUSH2 0x11FE DUP3 PUSH2 0xF9B JUMP JUMPDEST SWAP1 POP SWAP2 SWAP1 POP JUMP JUMPDEST PUSH2 0x120E DUP2 PUSH2 0x11F3 JUMP JUMPDEST DUP3 MSTORE POP POP JUMP JUMPDEST PUSH1 0x0 PUSH1 0x20 DUP3 ADD SWAP1 POP PUSH2 0x1229 PUSH1 0x0 DUP4 ADD DUP5 PUSH2 0x1205 JUMP JUMPDEST SWAP3 SWAP2 POP POP JUMP JUMPDEST PUSH1 0x0 DUP1 PUSH1 0x40 DUP4 DUP6 SUB SLT ISZERO PUSH2 0x1246 JUMPI PUSH2 0x1245 PUSH2 0xE60 JUMP JUMPDEST JUMPDEST PUSH1 0x0 PUSH2 0x1254 DUP6 DUP3 DUP7 ADD PUSH2 0xEDA JUMP JUMPDEST SWAP3 POP POP PUSH1 0x20 PUSH2 0x1265 DUP6 DUP3 DUP7 ADD PUSH2 0xEAE JUMP JUMPDEST SWAP2 POP POP SWAP3 POP SWAP3 SWAP1 POP JUMP JUMPDEST PUSH1 0x0 DUP2 ISZERO ISZERO SWAP1 POP SWAP2 SWAP1 POP JUMP JUMPDEST PUSH2 0x1284 DUP2 PUSH2 0x126F JUMP JUMPDEST DUP3 MSTORE POP POP JUMP JUMPDEST PUSH1 0x0 PUSH1 0x20 DUP3 ADD SWAP1 POP PUSH2 0x129F PUSH1 0x0 DUP4 ADD DUP5 PUSH2 0x127B JUMP JUMPDEST SWAP3 SWAP2 POP POP JUMP JUMPDEST PUSH1 0x0 DUP2 MLOAD SWAP1 POP PUSH2 0x12B4 DUP2 PUSH2 0xE97 JUMP JUMPDEST SWAP3 SWAP2 POP POP JUMP JUMPDEST PUSH1 0x0 PUSH1 0x20 DUP3 DUP5 SUB SLT ISZERO PUSH2 0x12D0 JUMPI PUSH2 0x12CF PUSH2 0xE60 JUMP JUMPDEST JUMPDEST PUSH1 0x0 PUSH2 0x12DE DUP5 DUP3 DUP6 ADD PUSH2 0x12A5 JUMP JUMPDEST SWAP2 POP POP SWAP3 SWAP2 POP POP JUMP JUMPDEST PUSH1 0x0 DUP3 DUP3 MSTORE PUSH1 0x20 DUP3 ADD SWAP1 POP SWAP3 SWAP2 POP POP JUMP JUMPDEST PUSH32 0x43616E2774207374616B65206E667420796F7520646F6E2774206F776E210000 PUSH1 0x0 DUP3 ADD MSTORE POP JUMP JUMPDEST PUSH1 0x0 PUSH2 0x132E PUSH1 0x1E DUP4 PUSH2 0x12E7 JUMP JUMPDEST SWAP2 POP PUSH2 0x1339 DUP3 PUSH2 0x12F8 JUMP JUMPDEST PUSH1 0x20 DUP3 ADD SWAP1 POP SWAP2 SWAP1 POP JUMP JUMPDEST PUSH1 0x0 PUSH1 0x20 DUP3 ADD SWAP1 POP DUP2 DUP2 SUB PUSH1 0x0 DUP4 ADD MSTORE PUSH2 0x135D DUP2 PUSH2 0x1321 JUMP JUMPDEST SWAP1 POP SWAP2 SWAP1 POP JUMP JUMPDEST PUSH1 0x0 PUSH1 0x60 DUP3 ADD SWAP1 POP PUSH2 0x1379 PUSH1 0x0 DUP4 ADD DUP7 PUSH2 0x1149 JUMP JUMPDEST PUSH2 0x1386 PUSH1 0x20 DUP4 ADD DUP6 PUSH2 0x1149 JUMP JUMPDEST PUSH2 0x1393 PUSH1 0x40 DUP4 ADD DUP5 PUSH2 0xE36 JUMP JUMPDEST SWAP5 SWAP4 POP POP POP POP JUMP JUMPDEST PUSH32 0x4E487B7100000000000000000000000000000000000000000000000000000000 PUSH1 0x0 MSTORE PUSH1 0x11 PUSH1 0x4 MSTORE PUSH1 0x24 PUSH1 0x0 REVERT JUMPDEST PUSH1 0x0 PUSH2 0x13D5 DUP3 PUSH2 0xE2C JUMP JUMPDEST SWAP2 POP PUSH32 0xFFFFFFFFFFFFFFFFFFFFFFFFFFFFFFFFFFFFFFFFFFFFFFFFFFFFFFFFFFFFFFFF DUP3 SUB PUSH2 0x1407 JUMPI PUSH2 0x1406 PUSH2 0x139B JUMP JUMPDEST JUMPDEST PUSH1 0x1 DUP3 ADD SWAP1 POP SWAP2 SWAP1 POP JUMP JUMPDEST PUSH1 0x0 PUSH1 0x60 DUP3 ADD SWAP1 POP PUSH2 0x1427 PUSH1 0x0 DUP4 ADD DUP7 PUSH2 0xE36 JUMP JUMPDEST PUSH2 0x1434 PUSH1 0x20 DUP4 ADD DUP6 PUSH2 0xE36 JUMP JUMPDEST PUSH2 0x1441 PUSH1 0x40 DUP4 ADD DUP5 PUSH2 0xE36 JUMP JUMPDEST SWAP5 SWAP4 POP POP POP POP JUMP JUMPDEST PUSH1 0x0 PUSH2 0x1454 DUP3 PUSH2 0xE2C JUMP JUMPDEST SWAP2 POP PUSH2 0x145F DUP4 PUSH2 0xE2C JUMP JUMPDEST SWAP3 POP DUP3 DUP3 SUB SWAP1 POP DUP2 DUP2 GT ISZERO PUSH2 0x1477 JUMPI PUSH2 0x1476 PUSH2 0x139B JUMP JUMPDEST JUMPDEST SWAP3 SWAP2 POP POP JUMP JUMPDEST PUSH32 0x4E487B7100000000000000000000000000000000000000000000000000000000 PUSH1 0x0 MSTORE PUSH1 0x12 PUSH1 0x4 MSTORE PUSH1 0x24 PUSH1 0x0 REVERT JUMPDEST PUSH1 0x0 PUSH2 0x14B7 DUP3 PUSH2 0xE2C JUMP JUMPDEST SWAP2 POP PUSH2 0x14C2 DUP4 PUSH2 0xE2C JUMP JUMPDEST SWAP3 POP DUP3 PUSH2 0x14D2 JUMPI PUSH2 0x14D1 PUSH2 0x147D JUMP JUMPDEST JUMPDEST DUP3 DUP3 DIV SWAP1 POP SWAP3 SWAP2 POP POP JUMP JUMPDEST PUSH32 0x5374616B696E6720706F6F6C206E6F7420656E64656420796574212121210000 PUSH1 0x0 DUP3 ADD MSTORE POP JUMP JUMPDEST PUSH1 0x0 PUSH2 0x1513 PUSH1 0x1E DUP4 PUSH2 0x12E7 JUMP JUMPDEST SWAP2 POP PUSH2 0x151E DUP3 PUSH2 0x14DD JUMP JUMPDEST PUSH1 0x20 DUP3 ADD SWAP1 POP SWAP2 SWAP1 POP JUMP JUMPDEST PUSH1 0x0 PUSH1 0x20 DUP3 ADD SWAP1 POP DUP2 DUP2 SUB PUSH1 0x0 DUP4 ADD MSTORE PUSH2 0x1542 DUP2 PUSH2 0x1506 JUMP JUMPDEST SWAP1 POP SWAP2 SWAP1 POP JUMP JUMPDEST PUSH32 0x596F7520617265206E6F74206F776E6572206F662074686973204E4654207374 PUSH1 0x0 DUP3 ADD MSTORE PUSH32 0x616B696E67000000000000000000000000000000000000000000000000000000 PUSH1 0x20 DUP3 ADD MSTORE POP JUMP JUMPDEST PUSH1 0x0 PUSH2 0x15A5 PUSH1 0x25 DUP4 PUSH2 0x12E7 JUMP JUMPDEST SWAP2 POP PUSH2 0x15B0 DUP3 PUSH2 0x1549 JUMP JUMPDEST PUSH1 0x40 DUP3 ADD SWAP1 POP SWAP2 SWAP1 POP JUMP JUMPDEST PUSH1 0x0 PUSH1 0x20 DUP3 ADD SWAP1 POP DUP2 DUP2 SUB PUSH1 0x0 DUP4 ADD MSTORE PUSH2 0x15D4 DUP2 PUSH2 0x1598 JUMP JUMPDEST SWAP1 POP SWAP2 SWAP1 POP JUMP JUMPDEST PUSH1 0x0 PUSH1 0x40 DUP3 ADD SWAP1 POP PUSH2 0x15F0 PUSH1 0x0 DUP4 ADD DUP6 PUSH2 0x1149 JUMP JUMPDEST PUSH2 0x15FD PUSH1 0x20 DUP4 ADD DUP5 PUSH2 0xE36 JUMP JUMPDEST SWAP4 SWAP3 POP POP POP JUMP JUMPDEST PUSH2 0x160D DUP2 PUSH2 0x126F JUMP JUMPDEST DUP2 EQ PUSH2 0x1618 JUMPI PUSH1 0x0 DUP1 REVERT JUMPDEST POP JUMP JUMPDEST PUSH1 0x0 DUP2 MLOAD SWAP1 POP PUSH2 0x162A DUP2 PUSH2 0x1604 JUMP JUMPDEST SWAP3 SWAP2 POP POP JUMP JUMPDEST PUSH1 0x0 PUSH1 0x20 DUP3 DUP5 SUB SLT ISZERO PUSH2 0x1646 JUMPI PUSH2 0x1645 PUSH2 0xE60 JUMP JUMPDEST JUMPDEST PUSH1 0x0 PUSH2 0x1654 DUP5 DUP3 DUP6 ADD PUSH2 0x161B JUMP JUMPDEST SWAP2 POP POP SWAP3 SWAP2 POP POP JUMP JUMPDEST PUSH1 0x0 PUSH1 0x80 DUP3 ADD SWAP1 POP PUSH2 0x1672 PUSH1 0x0 DUP4 ADD DUP8 PUSH2 0xE36 JUMP JUMPDEST PUSH2 0x167F PUSH1 0x20 DUP4 ADD DUP7 PUSH2 0xE36 JUMP JUMPDEST PUSH2 0x168C PUSH1 0x40 DUP4 ADD DUP6 PUSH2 0xE36 JUMP JUMPDEST PUSH2 0x1699 PUSH1 0x60 DUP4 ADD DUP5 PUSH2 0xE36 JUMP JUMPDEST SWAP6 SWAP5 POP POP POP POP POP JUMP JUMPDEST PUSH32 0x4F776E61626C653A206E6577206F776E657220697320746865207A65726F2061 PUSH1 0x0 DUP3 ADD MSTORE PUSH32 0x6464726573730000000000000000000000000000000000000000000000000000 PUSH1 0x20 DUP3 ADD MSTORE POP JUMP JUMPDEST PUSH1 0x0 PUSH2 0x16FE PUSH1 0x26 DUP4 PUSH2 0x12E7 JUMP JUMPDEST SWAP2 POP PUSH2 0x1709 DUP3 PUSH2 0x16A2 JUMP JUMPDEST PUSH1 0x40 DUP3 ADD SWAP1 POP SWAP2 SWAP1 POP JUMP JUMPDEST PUSH1 0x0 PUSH1 0x20 DUP3 ADD SWAP1 POP DUP2 DUP2 SUB PUSH1 0x0 DUP4 ADD MSTORE PUSH2 0x172D DUP2 PUSH2 0x16F1 JUMP JUMPDEST SWAP1 POP SWAP2 SWAP1 POP JUMP JUMPDEST PUSH32 0x4E487B7100000000000000000000000000000000000000000000000000000000 PUSH1 0x0 MSTORE PUSH1 0x32 PUSH1 0x4 MSTORE PUSH1 0x24 PUSH1 0x0 REVERT JUMPDEST PUSH32 0x4F776E61626C653A2063616C6C6572206973206E6F7420746865206F776E6572 PUSH1 0x0 DUP3 ADD MSTORE POP JUMP JUMPDEST PUSH1 0x0 PUSH2 0x1799 PUSH1 0x20 DUP4 PUSH2 0x12E7 JUMP JUMPDEST SWAP2 POP PUSH2 0x17A4 DUP3 PUSH2 0x1763 JUMP JUMPDEST PUSH1 0x20 DUP3 ADD SWAP1 POP SWAP2 SWAP1 POP JUMP JUMPDEST PUSH1 0x0 PUSH1 0x20 DUP3 ADD SWAP1 POP DUP2 DUP2 SUB PUSH1 0x0 DUP4 ADD MSTORE PUSH2 0x17C8 DUP2 PUSH2 0x178C JUMP JUMPDEST SWAP1 POP SWAP2 SWAP1 POP JUMP INVALID LOG2 PUSH5 0x6970667358 0x22 SLT KECCAK256 0x1E 0xDE 0xAC SWAP3 CALLDATACOPY SWAP15 SGT GASLIMIT DELEGATECALL 0xF6 ADDRESS PUSH26 0xAA2A510F7207A4E668E2673ABA2459FC2B14C6B264736F6C6343 STOP ADDMOD GT STOP CALLER "
				},
				"gasEstimates": {
					"creation": {
						"codeDepositCost": "1229800",
						"executionCost": "infinite",
						"totalCost": "infinite"
					},
					"external": {
						"NFTCollection()": "infinite",
						"checkIfAlreadyUnstaked(uint256,address)": "infinite",
						"index()": "2430",
						"owner()": "2589",
						"renounceOwnership()": "30487",
						"rewardToken()": "infinite",
						"stakeNFT(uint256,uint256)": "infinite",
						"stakes(uint256)": "infinite",
						"staking_details(address,uint256)": "infinite",
						"transferOwnership(address)": "30788",
						"unStakeNFT(uint256,uint256,uint256)": "infinite",
						"unstaking_details(address,uint256)": "infinite",
						"userStakingList(address)": "infinite"
					},
					"internal": {
						"calculateRewardPool(uint256)": "108"
					}
				},
				"methodIdentifiers": {
					"NFTCollection()": "78b2e3a9",
					"checkIfAlreadyUnstaked(uint256,address)": "fbaca086",
					"index()": "2986c0e5",
					"owner()": "8da5cb5b",
					"renounceOwnership()": "715018a6",
					"rewardToken()": "f7c618c1",
					"stakeNFT(uint256,uint256)": "51cecc80",
					"stakes(uint256)": "d5a44f86",
					"staking_details(address,uint256)": "3f106929",
					"transferOwnership(address)": "f2fde38b",
					"unStakeNFT(uint256,uint256,uint256)": "78dba594",
					"unstaking_details(address,uint256)": "3af416d1",
					"userStakingList(address)": "79e5f7d7"
				}
			},
			"storageLayout": {
				"storage": [
					{
						"astId": 7,
						"contract": "contracts/NFTStaking.sol:MoonRabbitsStaking",
						"label": "_owner",
						"offset": 0,
						"slot": "0",
						"type": "t_address"
					},
					{
						"astId": 123,
						"contract": "contracts/NFTStaking.sol:MoonRabbitsStaking",
						"label": "_status",
						"offset": 0,
						"slot": "1",
						"type": "t_uint256"
					},
					{
						"astId": 1055,
						"contract": "contracts/NFTStaking.sol:MoonRabbitsStaking",
						"label": "NFTCollection",
						"offset": 0,
						"slot": "2",
						"type": "t_contract(IERC721)677"
					},
					{
						"astId": 1058,
						"contract": "contracts/NFTStaking.sol:MoonRabbitsStaking",
						"label": "rewardToken",
						"offset": 0,
						"slot": "3",
						"type": "t_contract(IERC20)244"
					},
					{
						"astId": 1061,
						"contract": "contracts/NFTStaking.sol:MoonRabbitsStaking",
						"label": "index",
						"offset": 0,
						"slot": "4",
						"type": "t_uint256"
					},
					{
						"astId": 1067,
						"contract": "contracts/NFTStaking.sol:MoonRabbitsStaking",
						"label": "totalTokens",
						"offset": 0,
						"slot": "5",
						"type": "t_uint256"
					},
					{
						"astId": 1083,
						"contract": "contracts/NFTStaking.sol:MoonRabbitsStaking",
						"label": "stakes",
						"offset": 0,
						"slot": "6",
						"type": "t_mapping(t_uint256,t_struct(Staker)1078_storage)"
					},
					{
						"astId": 1088,
						"contract": "contracts/NFTStaking.sol:MoonRabbitsStaking",
						"label": "staking_details",
						"offset": 0,
						"slot": "7",
						"type": "t_mapping(t_address,t_array(t_uint256)dyn_storage)"
					},
					{
						"astId": 1093,
						"contract": "contracts/NFTStaking.sol:MoonRabbitsStaking",
						"label": "unstaking_details",
						"offset": 0,
						"slot": "8",
						"type": "t_mapping(t_address,t_array(t_uint256)dyn_storage)"
					}
				],
				"types": {
					"t_address": {
						"encoding": "inplace",
						"label": "address",
						"numberOfBytes": "20"
					},
					"t_array(t_uint256)dyn_storage": {
						"base": "t_uint256",
						"encoding": "dynamic_array",
						"label": "uint256[]",
						"numberOfBytes": "32"
					},
					"t_contract(IERC20)244": {
						"encoding": "inplace",
						"label": "contract IERC20",
						"numberOfBytes": "20"
					},
					"t_contract(IERC721)677": {
						"encoding": "inplace",
						"label": "contract IERC721",
						"numberOfBytes": "20"
					},
					"t_mapping(t_address,t_array(t_uint256)dyn_storage)": {
						"encoding": "mapping",
						"key": "t_address",
						"label": "mapping(address => uint256[])",
						"numberOfBytes": "32",
						"value": "t_array(t_uint256)dyn_storage"
					},
					"t_mapping(t_uint256,t_struct(Staker)1078_storage)": {
						"encoding": "mapping",
						"key": "t_uint256",
						"label": "mapping(uint256 => struct MoonRabbitsStaking.Staker)",
						"numberOfBytes": "32",
						"value": "t_struct(Staker)1078_storage"
					},
					"t_struct(Staker)1078_storage": {
						"encoding": "inplace",
						"label": "struct MoonRabbitsStaking.Staker",
						"members": [
							{
								"astId": 1069,
								"contract": "contracts/NFTStaking.sol:MoonRabbitsStaking",
								"label": "index",
								"offset": 0,
								"slot": "0",
								"type": "t_uint256"
							},
							{
								"astId": 1071,
								"contract": "contracts/NFTStaking.sol:MoonRabbitsStaking",
								"label": "user",
								"offset": 0,
								"slot": "1",
								"type": "t_address"
							},
							{
								"astId": 1073,
								"contract": "contracts/NFTStaking.sol:MoonRabbitsStaking",
								"label": "tokenId",
								"offset": 0,
								"slot": "2",
								"type": "t_uint256"
							},
							{
								"astId": 1075,
								"contract": "contracts/NFTStaking.sol:MoonRabbitsStaking",
								"label": "pool",
								"offset": 0,
								"slot": "3",
								"type": "t_uint256"
							},
							{
								"astId": 1077,
								"contract": "contracts/NFTStaking.sol:MoonRabbitsStaking",
								"label": "timestamp",
								"offset": 0,
								"slot": "4",
								"type": "t_uint256"
							}
						],
						"numberOfBytes": "160"
					},
					"t_uint256": {
						"encoding": "inplace",
						"label": "uint256",
						"numberOfBytes": "32"
					}
				}
			},
			"userdoc": {
				"kind": "user",
				"methods": {
					"checkIfAlreadyUnstaked(uint256,address)": {
						"notice": "Check if nft index is already unstaked"
					},
					"stakeNFT(uint256,uint256)": {
						"notice": "Create a new staking for a specific user"
					},
					"unStakeNFT(uint256,uint256,uint256)": {
						"notice": "Unstake the NFT and rewards user if pool is completed"
					},
					"userStakingList(address)": {
						"notice": "Get user's staking list"
					}
				},
				"version": 1
			}
		}
	}
}