{
	"contracts/AddressLib.sol": {
		"MyToken": {
			"abi": [
				{
					"inputs": [],
					"stateMutability": "nonpayable",
					"type": "constructor"
				},
				{
					"inputs": [
						{
							"internalType": "address",
							"name": "account",
							"type": "address"
						}
					],
					"name": "doSomething",
					"outputs": [
						{
							"internalType": "bool",
							"name": "Result",
							"type": "bool"
						}
					],
					"stateMutability": "view",
					"type": "function"
				},
				{
					"inputs": [
						{
							"internalType": "address payable",
							"name": "recipient",
							"type": "address"
						},
						{
							"internalType": "uint256",
							"name": "amount",
							"type": "uint256"
						}
					],
					"name": "sendEther",
					"outputs": [],
					"stateMutability": "nonpayable",
					"type": "function"
				}
			],
			"devdoc": {
				"kind": "dev",
				"methods": {},
				"version": 1
			},
			"evm": {
				"assembly": "    /* \"contracts/AddressLib.sol\":111:489  contract MyToken {... */\n  mstore(0x40, 0x80)\n    /* \"contracts/AddressLib.sol\":134:154  constructor(){... */\n  callvalue\n  dup1\n  iszero\n  tag_1\n  jumpi\n  0x00\n  dup1\n  revert\ntag_1:\n  pop\n    /* \"contracts/AddressLib.sol\":111:489  contract MyToken {... */\n  dataSize(sub_0)\n  dup1\n  dataOffset(sub_0)\n  0x00\n  codecopy\n  0x00\n  return\nstop\n\nsub_0: assembly {\n        /* \"contracts/AddressLib.sol\":111:489  contract MyToken {... */\n      mstore(0x40, 0x80)\n      callvalue\n      dup1\n      iszero\n      tag_1\n      jumpi\n      0x00\n      dup1\n      revert\n    tag_1:\n      pop\n      jumpi(tag_2, lt(calldatasize, 0x04))\n      shr(0xe0, calldataload(0x00))\n      dup1\n      0xc1756a2c\n      eq\n      tag_3\n      jumpi\n      dup1\n      0xe60c2d44\n      eq\n      tag_4\n      jumpi\n    tag_2:\n      0x00\n      dup1\n      revert\n        /* \"contracts/AddressLib.sol\":362:484  function sendEther(address payable recipient, uint256 amount) public {... */\n    tag_3:\n      tag_5\n      0x04\n      dup1\n      calldatasize\n      sub\n      dup2\n      add\n      swap1\n      tag_6\n      swap2\n      swap1\n      tag_7\n      jump\t// in\n    tag_6:\n      tag_8\n      jump\t// in\n    tag_5:\n      stop\n        /* \"contracts/AddressLib.sol\":159:357  function doSomething(address account) public view returns(bool Result){... */\n    tag_4:\n      tag_9\n      0x04\n      dup1\n      calldatasize\n      sub\n      dup2\n      add\n      swap1\n      tag_10\n      swap2\n      swap1\n      tag_11\n      jump\t// in\n    tag_10:\n      tag_12\n      jump\t// in\n    tag_9:\n      mload(0x40)\n      tag_13\n      swap2\n      swap1\n      tag_14\n      jump\t// in\n    tag_13:\n      mload(0x40)\n      dup1\n      swap2\n      sub\n      swap1\n      return\n        /* \"contracts/AddressLib.sol\":362:484  function sendEther(address payable recipient, uint256 amount) public {... */\n    tag_8:\n        /* \"contracts/AddressLib.sol\":441:477  Address.sendValue(recipient, amount) */\n      tag_16\n        /* \"contracts/AddressLib.sol\":459:468  recipient */\n      dup3\n        /* \"contracts/AddressLib.sol\":470:476  amount */\n      dup3\n        /* \"contracts/AddressLib.sol\":441:458  Address.sendValue */\n      tag_17\n        /* \"contracts/AddressLib.sol\":441:477  Address.sendValue(recipient, amount) */\n      jump\t// in\n    tag_16:\n        /* \"contracts/AddressLib.sol\":362:484  function sendEther(address payable recipient, uint256 amount) public {... */\n      pop\n      pop\n      jump\t// out\n        /* \"contracts/AddressLib.sol\":159:357  function doSomething(address account) public view returns(bool Result){... */\n    tag_12:\n        /* \"contracts/AddressLib.sol\":217:228  bool Result */\n      0x00\n        /* \"contracts/AddressLib.sol\":243:270  Address.isContract(account) */\n      tag_19\n        /* \"contracts/AddressLib.sol\":262:269  account */\n      dup3\n        /* \"contracts/AddressLib.sol\":243:261  Address.isContract */\n      tag_20\n        /* \"contracts/AddressLib.sol\":243:270  Address.isContract(account) */\n      jump\t// in\n    tag_19:\n        /* \"contracts/AddressLib.sol\":239:351  if (Address.isContract(account)) {... */\n      iszero\n      tag_21\n      jumpi\n        /* \"contracts/AddressLib.sol\":293:297  true */\n      0x01\n        /* \"contracts/AddressLib.sol\":286:297  return true */\n      swap1\n      pop\n      jump(tag_18)\n        /* \"contracts/AddressLib.sol\":239:351  if (Address.isContract(account)) {... */\n    tag_21:\n        /* \"contracts/AddressLib.sol\":335:340  false */\n      0x00\n        /* \"contracts/AddressLib.sol\":328:340  return false */\n      swap1\n      pop\n        /* \"contracts/AddressLib.sol\":159:357  function doSomething(address account) public view returns(bool Result){... */\n    tag_18:\n      swap2\n      swap1\n      pop\n      jump\t// out\n        /* \"@openzeppelin/contracts/utils/Address.sol\":2412:2724  function sendValue(address payable recipient, uint256 amount) internal {... */\n    tag_17:\n        /* \"@openzeppelin/contracts/utils/Address.sol\":2526:2532  amount */\n      dup1\n        /* \"@openzeppelin/contracts/utils/Address.sol\":2501:2522  address(this).balance */\n      selfbalance\n        /* \"@openzeppelin/contracts/utils/Address.sol\":2501:2532  address(this).balance >= amount */\n      lt\n      iszero\n        /* \"@openzeppelin/contracts/utils/Address.sol\":2493:2566  require(address(this).balance >= amount, \"Address: insufficient balance\") */\n      tag_24\n      jumpi\n      mload(0x40)\n      0x08c379a000000000000000000000000000000000000000000000000000000000\n      dup2\n      mstore\n      0x04\n      add\n      tag_25\n      swap1\n      tag_26\n      jump\t// in\n    tag_25:\n      mload(0x40)\n      dup1\n      swap2\n      sub\n      swap1\n      revert\n    tag_24:\n        /* \"@openzeppelin/contracts/utils/Address.sol\":2578:2590  bool success */\n      0x00\n        /* \"@openzeppelin/contracts/utils/Address.sol\":2596:2605  recipient */\n      dup3\n        /* \"@openzeppelin/contracts/utils/Address.sol\":2596:2610  recipient.call */\n      0xffffffffffffffffffffffffffffffffffffffff\n      and\n        /* \"@openzeppelin/contracts/utils/Address.sol\":2618:2624  amount */\n      dup3\n        /* \"@openzeppelin/contracts/utils/Address.sol\":2596:2629  recipient.call{value: amount}(\"\") */\n      mload(0x40)\n      tag_27\n      swap1\n      tag_28\n      jump\t// in\n    tag_27:\n      0x00\n      mload(0x40)\n      dup1\n      dup4\n      sub\n      dup2\n      dup6\n      dup8\n      gas\n      call\n      swap3\n      pop\n      pop\n      pop\n      returndatasize\n      dup1\n      0x00\n      dup2\n      eq\n      tag_31\n      jumpi\n      mload(0x40)\n      swap2\n      pop\n      and(add(returndatasize, 0x3f), not(0x1f))\n      dup3\n      add\n      0x40\n      mstore\n      returndatasize\n      dup3\n      mstore\n      returndatasize\n      0x00\n      0x20\n      dup5\n      add\n      returndatacopy\n      jump(tag_30)\n    tag_31:\n      0x60\n      swap2\n      pop\n    tag_30:\n      pop\n        /* \"@openzeppelin/contracts/utils/Address.sol\":2577:2629  (bool success, ) = recipient.call{value: amount}(\"\") */\n      pop\n      swap1\n      pop\n        /* \"@openzeppelin/contracts/utils/Address.sol\":2647:2654  success */\n      dup1\n        /* \"@openzeppelin/contracts/utils/Address.sol\":2639:2717  require(success, \"Address: unable to send value, recipient may have reverted\") */\n      tag_32\n      jumpi\n      mload(0x40)\n      0x08c379a000000000000000000000000000000000000000000000000000000000\n      dup2\n      mstore\n      0x04\n      add\n      tag_33\n      swap1\n      tag_34\n      jump\t// in\n    tag_33:\n      mload(0x40)\n      dup1\n      swap2\n      sub\n      swap1\n      revert\n    tag_32:\n        /* \"@openzeppelin/contracts/utils/Address.sol\":2483:2724  {... */\n      pop\n        /* \"@openzeppelin/contracts/utils/Address.sol\":2412:2724  function sendValue(address payable recipient, uint256 amount) internal {... */\n      pop\n      pop\n      jump\t// out\n        /* \"@openzeppelin/contracts/utils/Address.sol\":1175:1495  function isContract(address account) internal view returns (bool) {... */\n    tag_20:\n        /* \"@openzeppelin/contracts/utils/Address.sol\":1235:1239  bool */\n      0x00\n        /* \"@openzeppelin/contracts/utils/Address.sol\":1487:1488  0 */\n      dup1\n        /* \"@openzeppelin/contracts/utils/Address.sol\":1465:1472  account */\n      dup3\n        /* \"@openzeppelin/contracts/utils/Address.sol\":1465:1484  account.code.length */\n      0xffffffffffffffffffffffffffffffffffffffff\n      and\n      extcodesize\n        /* \"@openzeppelin/contracts/utils/Address.sol\":1465:1488  account.code.length > 0 */\n      gt\n        /* \"@openzeppelin/contracts/utils/Address.sol\":1458:1488  return account.code.length > 0 */\n      swap1\n      pop\n        /* \"@openzeppelin/contracts/utils/Address.sol\":1175:1495  function isContract(address account) internal view returns (bool) {... */\n      swap2\n      swap1\n      pop\n      jump\t// out\n        /* \"#utility.yul\":88:205   */\n    tag_37:\n        /* \"#utility.yul\":197:198   */\n      0x00\n        /* \"#utility.yul\":194:195   */\n      dup1\n        /* \"#utility.yul\":187:199   */\n      revert\n        /* \"#utility.yul\":334:460   */\n    tag_39:\n        /* \"#utility.yul\":371:378   */\n      0x00\n        /* \"#utility.yul\":411:453   */\n      0xffffffffffffffffffffffffffffffffffffffff\n        /* \"#utility.yul\":404:409   */\n      dup3\n        /* \"#utility.yul\":400:454   */\n      and\n        /* \"#utility.yul\":389:454   */\n      swap1\n      pop\n        /* \"#utility.yul\":334:460   */\n      swap2\n      swap1\n      pop\n      jump\t// out\n        /* \"#utility.yul\":466:570   */\n    tag_40:\n        /* \"#utility.yul\":511:518   */\n      0x00\n        /* \"#utility.yul\":540:564   */\n      tag_65\n        /* \"#utility.yul\":558:563   */\n      dup3\n        /* \"#utility.yul\":540:564   */\n      tag_39\n      jump\t// in\n    tag_65:\n        /* \"#utility.yul\":529:564   */\n      swap1\n      pop\n        /* \"#utility.yul\":466:570   */\n      swap2\n      swap1\n      pop\n      jump\t// out\n        /* \"#utility.yul\":576:714   */\n    tag_41:\n        /* \"#utility.yul\":657:689   */\n      tag_67\n        /* \"#utility.yul\":683:688   */\n      dup2\n        /* \"#utility.yul\":657:689   */\n      tag_40\n      jump\t// in\n    tag_67:\n        /* \"#utility.yul\":650:655   */\n      dup2\n        /* \"#utility.yul\":647:690   */\n      eq\n        /* \"#utility.yul\":637:708   */\n      tag_68\n      jumpi\n        /* \"#utility.yul\":704:705   */\n      0x00\n        /* \"#utility.yul\":701:702   */\n      dup1\n        /* \"#utility.yul\":694:706   */\n      revert\n        /* \"#utility.yul\":637:708   */\n    tag_68:\n        /* \"#utility.yul\":576:714   */\n      pop\n      jump\t// out\n        /* \"#utility.yul\":720:875   */\n    tag_42:\n        /* \"#utility.yul\":774:779   */\n      0x00\n        /* \"#utility.yul\":812:818   */\n      dup2\n        /* \"#utility.yul\":799:819   */\n      calldataload\n        /* \"#utility.yul\":790:819   */\n      swap1\n      pop\n        /* \"#utility.yul\":828:869   */\n      tag_70\n        /* \"#utility.yul\":863:868   */\n      dup2\n        /* \"#utility.yul\":828:869   */\n      tag_41\n      jump\t// in\n    tag_70:\n        /* \"#utility.yul\":720:875   */\n      swap3\n      swap2\n      pop\n      pop\n      jump\t// out\n        /* \"#utility.yul\":881:958   */\n    tag_43:\n        /* \"#utility.yul\":918:925   */\n      0x00\n        /* \"#utility.yul\":947:952   */\n      dup2\n        /* \"#utility.yul\":936:952   */\n      swap1\n      pop\n        /* \"#utility.yul\":881:958   */\n      swap2\n      swap1\n      pop\n      jump\t// out\n        /* \"#utility.yul\":964:1086   */\n    tag_44:\n        /* \"#utility.yul\":1037:1061   */\n      tag_73\n        /* \"#utility.yul\":1055:1060   */\n      dup2\n        /* \"#utility.yul\":1037:1061   */\n      tag_43\n      jump\t// in\n    tag_73:\n        /* \"#utility.yul\":1030:1035   */\n      dup2\n        /* \"#utility.yul\":1027:1062   */\n      eq\n        /* \"#utility.yul\":1017:1080   */\n      tag_74\n      jumpi\n        /* \"#utility.yul\":1076:1077   */\n      0x00\n        /* \"#utility.yul\":1073:1074   */\n      dup1\n        /* \"#utility.yul\":1066:1078   */\n      revert\n        /* \"#utility.yul\":1017:1080   */\n    tag_74:\n        /* \"#utility.yul\":964:1086   */\n      pop\n      jump\t// out\n        /* \"#utility.yul\":1092:1231   */\n    tag_45:\n        /* \"#utility.yul\":1138:1143   */\n      0x00\n        /* \"#utility.yul\":1176:1182   */\n      dup2\n        /* \"#utility.yul\":1163:1183   */\n      calldataload\n        /* \"#utility.yul\":1154:1183   */\n      swap1\n      pop\n        /* \"#utility.yul\":1192:1225   */\n      tag_76\n        /* \"#utility.yul\":1219:1224   */\n      dup2\n        /* \"#utility.yul\":1192:1225   */\n      tag_44\n      jump\t// in\n    tag_76:\n        /* \"#utility.yul\":1092:1231   */\n      swap3\n      swap2\n      pop\n      pop\n      jump\t// out\n        /* \"#utility.yul\":1237:1727   */\n    tag_7:\n        /* \"#utility.yul\":1313:1319   */\n      0x00\n        /* \"#utility.yul\":1321:1327   */\n      dup1\n        /* \"#utility.yul\":1370:1372   */\n      0x40\n        /* \"#utility.yul\":1358:1367   */\n      dup4\n        /* \"#utility.yul\":1349:1356   */\n      dup6\n        /* \"#utility.yul\":1345:1368   */\n      sub\n        /* \"#utility.yul\":1341:1373   */\n      slt\n        /* \"#utility.yul\":1338:1457   */\n      iszero\n      tag_78\n      jumpi\n        /* \"#utility.yul\":1376:1455   */\n      tag_79\n      tag_37\n      jump\t// in\n    tag_79:\n        /* \"#utility.yul\":1338:1457   */\n    tag_78:\n        /* \"#utility.yul\":1496:1497   */\n      0x00\n        /* \"#utility.yul\":1521:1582   */\n      tag_80\n        /* \"#utility.yul\":1574:1581   */\n      dup6\n        /* \"#utility.yul\":1565:1571   */\n      dup3\n        /* \"#utility.yul\":1554:1563   */\n      dup7\n        /* \"#utility.yul\":1550:1572   */\n      add\n        /* \"#utility.yul\":1521:1582   */\n      tag_42\n      jump\t// in\n    tag_80:\n        /* \"#utility.yul\":1511:1582   */\n      swap3\n      pop\n        /* \"#utility.yul\":1467:1592   */\n      pop\n        /* \"#utility.yul\":1631:1633   */\n      0x20\n        /* \"#utility.yul\":1657:1710   */\n      tag_81\n        /* \"#utility.yul\":1702:1709   */\n      dup6\n        /* \"#utility.yul\":1693:1699   */\n      dup3\n        /* \"#utility.yul\":1682:1691   */\n      dup7\n        /* \"#utility.yul\":1678:1700   */\n      add\n        /* \"#utility.yul\":1657:1710   */\n      tag_45\n      jump\t// in\n    tag_81:\n        /* \"#utility.yul\":1647:1710   */\n      swap2\n      pop\n        /* \"#utility.yul\":1602:1720   */\n      pop\n        /* \"#utility.yul\":1237:1727   */\n      swap3\n      pop\n      swap3\n      swap1\n      pop\n      jump\t// out\n        /* \"#utility.yul\":1733:1829   */\n    tag_46:\n        /* \"#utility.yul\":1770:1777   */\n      0x00\n        /* \"#utility.yul\":1799:1823   */\n      tag_83\n        /* \"#utility.yul\":1817:1822   */\n      dup3\n        /* \"#utility.yul\":1799:1823   */\n      tag_39\n      jump\t// in\n    tag_83:\n        /* \"#utility.yul\":1788:1823   */\n      swap1\n      pop\n        /* \"#utility.yul\":1733:1829   */\n      swap2\n      swap1\n      pop\n      jump\t// out\n        /* \"#utility.yul\":1835:1957   */\n    tag_47:\n        /* \"#utility.yul\":1908:1932   */\n      tag_85\n        /* \"#utility.yul\":1926:1931   */\n      dup2\n        /* \"#utility.yul\":1908:1932   */\n      tag_46\n      jump\t// in\n    tag_85:\n        /* \"#utility.yul\":1901:1906   */\n      dup2\n        /* \"#utility.yul\":1898:1933   */\n      eq\n        /* \"#utility.yul\":1888:1951   */\n      tag_86\n      jumpi\n        /* \"#utility.yul\":1947:1948   */\n      0x00\n        /* \"#utility.yul\":1944:1945   */\n      dup1\n        /* \"#utility.yul\":1937:1949   */\n      revert\n        /* \"#utility.yul\":1888:1951   */\n    tag_86:\n        /* \"#utility.yul\":1835:1957   */\n      pop\n      jump\t// out\n        /* \"#utility.yul\":1963:2102   */\n    tag_48:\n        /* \"#utility.yul\":2009:2014   */\n      0x00\n        /* \"#utility.yul\":2047:2053   */\n      dup2\n        /* \"#utility.yul\":2034:2054   */\n      calldataload\n        /* \"#utility.yul\":2025:2054   */\n      swap1\n      pop\n        /* \"#utility.yul\":2063:2096   */\n      tag_88\n        /* \"#utility.yul\":2090:2095   */\n      dup2\n        /* \"#utility.yul\":2063:2096   */\n      tag_47\n      jump\t// in\n    tag_88:\n        /* \"#utility.yul\":1963:2102   */\n      swap3\n      swap2\n      pop\n      pop\n      jump\t// out\n        /* \"#utility.yul\":2108:2437   */\n    tag_11:\n        /* \"#utility.yul\":2167:2173   */\n      0x00\n        /* \"#utility.yul\":2216:2218   */\n      0x20\n        /* \"#utility.yul\":2204:2213   */\n      dup3\n        /* \"#utility.yul\":2195:2202   */\n      dup5\n        /* \"#utility.yul\":2191:2214   */\n      sub\n        /* \"#utility.yul\":2187:2219   */\n      slt\n        /* \"#utility.yul\":2184:2303   */\n      iszero\n      tag_90\n      jumpi\n        /* \"#utility.yul\":2222:2301   */\n      tag_91\n      tag_37\n      jump\t// in\n    tag_91:\n        /* \"#utility.yul\":2184:2303   */\n    tag_90:\n        /* \"#utility.yul\":2342:2343   */\n      0x00\n        /* \"#utility.yul\":2367:2420   */\n      tag_92\n        /* \"#utility.yul\":2412:2419   */\n      dup5\n        /* \"#utility.yul\":2403:2409   */\n      dup3\n        /* \"#utility.yul\":2392:2401   */\n      dup6\n        /* \"#utility.yul\":2388:2410   */\n      add\n        /* \"#utility.yul\":2367:2420   */\n      tag_48\n      jump\t// in\n    tag_92:\n        /* \"#utility.yul\":2357:2420   */\n      swap2\n      pop\n        /* \"#utility.yul\":2313:2430   */\n      pop\n        /* \"#utility.yul\":2108:2437   */\n      swap3\n      swap2\n      pop\n      pop\n      jump\t// out\n        /* \"#utility.yul\":2443:2533   */\n    tag_49:\n        /* \"#utility.yul\":2477:2484   */\n      0x00\n        /* \"#utility.yul\":2520:2525   */\n      dup2\n        /* \"#utility.yul\":2513:2526   */\n      iszero\n        /* \"#utility.yul\":2506:2527   */\n      iszero\n        /* \"#utility.yul\":2495:2527   */\n      swap1\n      pop\n        /* \"#utility.yul\":2443:2533   */\n      swap2\n      swap1\n      pop\n      jump\t// out\n        /* \"#utility.yul\":2539:2648   */\n    tag_50:\n        /* \"#utility.yul\":2620:2641   */\n      tag_95\n        /* \"#utility.yul\":2635:2640   */\n      dup2\n        /* \"#utility.yul\":2620:2641   */\n      tag_49\n      jump\t// in\n    tag_95:\n        /* \"#utility.yul\":2615:2618   */\n      dup3\n        /* \"#utility.yul\":2608:2642   */\n      mstore\n        /* \"#utility.yul\":2539:2648   */\n      pop\n      pop\n      jump\t// out\n        /* \"#utility.yul\":2654:2864   */\n    tag_14:\n        /* \"#utility.yul\":2741:2745   */\n      0x00\n        /* \"#utility.yul\":2779:2781   */\n      0x20\n        /* \"#utility.yul\":2768:2777   */\n      dup3\n        /* \"#utility.yul\":2764:2782   */\n      add\n        /* \"#utility.yul\":2756:2782   */\n      swap1\n      pop\n        /* \"#utility.yul\":2792:2857   */\n      tag_97\n        /* \"#utility.yul\":2854:2855   */\n      0x00\n        /* \"#utility.yul\":2843:2852   */\n      dup4\n        /* \"#utility.yul\":2839:2856   */\n      add\n        /* \"#utility.yul\":2830:2836   */\n      dup5\n        /* \"#utility.yul\":2792:2857   */\n      tag_50\n      jump\t// in\n    tag_97:\n        /* \"#utility.yul\":2654:2864   */\n      swap3\n      swap2\n      pop\n      pop\n      jump\t// out\n        /* \"#utility.yul\":2870:3039   */\n    tag_51:\n        /* \"#utility.yul\":2954:2965   */\n      0x00\n        /* \"#utility.yul\":2988:2994   */\n      dup3\n        /* \"#utility.yul\":2983:2986   */\n      dup3\n        /* \"#utility.yul\":2976:2995   */\n      mstore\n        /* \"#utility.yul\":3028:3032   */\n      0x20\n        /* \"#utility.yul\":3023:3026   */\n      dup3\n        /* \"#utility.yul\":3019:3033   */\n      add\n        /* \"#utility.yul\":3004:3033   */\n      swap1\n      pop\n        /* \"#utility.yul\":2870:3039   */\n      swap3\n      swap2\n      pop\n      pop\n      jump\t// out\n        /* \"#utility.yul\":3045:3224   */\n    tag_52:\n        /* \"#utility.yul\":3185:3216   */\n      0x416464726573733a20696e73756666696369656e742062616c616e6365000000\n        /* \"#utility.yul\":3181:3182   */\n      0x00\n        /* \"#utility.yul\":3173:3179   */\n      dup3\n        /* \"#utility.yul\":3169:3183   */\n      add\n        /* \"#utility.yul\":3162:3217   */\n      mstore\n        /* \"#utility.yul\":3045:3224   */\n      pop\n      jump\t// out\n        /* \"#utility.yul\":3230:3596   */\n    tag_53:\n        /* \"#utility.yul\":3372:3375   */\n      0x00\n        /* \"#utility.yul\":3393:3460   */\n      tag_101\n        /* \"#utility.yul\":3457:3459   */\n      0x1d\n        /* \"#utility.yul\":3452:3455   */\n      dup4\n        /* \"#utility.yul\":3393:3460   */\n      tag_51\n      jump\t// in\n    tag_101:\n        /* \"#utility.yul\":3386:3460   */\n      swap2\n      pop\n        /* \"#utility.yul\":3469:3562   */\n      tag_102\n        /* \"#utility.yul\":3558:3561   */\n      dup3\n        /* \"#utility.yul\":3469:3562   */\n      tag_52\n      jump\t// in\n    tag_102:\n        /* \"#utility.yul\":3587:3589   */\n      0x20\n        /* \"#utility.yul\":3582:3585   */\n      dup3\n        /* \"#utility.yul\":3578:3590   */\n      add\n        /* \"#utility.yul\":3571:3590   */\n      swap1\n      pop\n        /* \"#utility.yul\":3230:3596   */\n      swap2\n      swap1\n      pop\n      jump\t// out\n        /* \"#utility.yul\":3602:4021   */\n    tag_26:\n        /* \"#utility.yul\":3768:3772   */\n      0x00\n        /* \"#utility.yul\":3806:3808   */\n      0x20\n        /* \"#utility.yul\":3795:3804   */\n      dup3\n        /* \"#utility.yul\":3791:3809   */\n      add\n        /* \"#utility.yul\":3783:3809   */\n      swap1\n      pop\n        /* \"#utility.yul\":3855:3864   */\n      dup2\n        /* \"#utility.yul\":3849:3853   */\n      dup2\n        /* \"#utility.yul\":3845:3865   */\n      sub\n        /* \"#utility.yul\":3841:3842   */\n      0x00\n        /* \"#utility.yul\":3830:3839   */\n      dup4\n        /* \"#utility.yul\":3826:3843   */\n      add\n        /* \"#utility.yul\":3819:3866   */\n      mstore\n        /* \"#utility.yul\":3883:4014   */\n      tag_104\n        /* \"#utility.yul\":4009:4013   */\n      dup2\n        /* \"#utility.yul\":3883:4014   */\n      tag_53\n      jump\t// in\n    tag_104:\n        /* \"#utility.yul\":3875:4014   */\n      swap1\n      pop\n        /* \"#utility.yul\":3602:4021   */\n      swap2\n      swap1\n      pop\n      jump\t// out\n        /* \"#utility.yul\":4027:4174   */\n    tag_54:\n        /* \"#utility.yul\":4128:4139   */\n      0x00\n        /* \"#utility.yul\":4165:4168   */\n      dup2\n        /* \"#utility.yul\":4150:4168   */\n      swap1\n      pop\n        /* \"#utility.yul\":4027:4174   */\n      swap3\n      swap2\n      pop\n      pop\n      jump\t// out\n        /* \"#utility.yul\":4180:4294   */\n    tag_55:\n      pop\n      jump\t// out\n        /* \"#utility.yul\":4300:4698   */\n    tag_56:\n        /* \"#utility.yul\":4459:4462   */\n      0x00\n        /* \"#utility.yul\":4480:4563   */\n      tag_108\n        /* \"#utility.yul\":4561:4562   */\n      0x00\n        /* \"#utility.yul\":4556:4559   */\n      dup4\n        /* \"#utility.yul\":4480:4563   */\n      tag_54\n      jump\t// in\n    tag_108:\n        /* \"#utility.yul\":4473:4563   */\n      swap2\n      pop\n        /* \"#utility.yul\":4572:4665   */\n      tag_109\n        /* \"#utility.yul\":4661:4664   */\n      dup3\n        /* \"#utility.yul\":4572:4665   */\n      tag_55\n      jump\t// in\n    tag_109:\n        /* \"#utility.yul\":4690:4691   */\n      0x00\n        /* \"#utility.yul\":4685:4688   */\n      dup3\n        /* \"#utility.yul\":4681:4692   */\n      add\n        /* \"#utility.yul\":4674:4692   */\n      swap1\n      pop\n        /* \"#utility.yul\":4300:4698   */\n      swap2\n      swap1\n      pop\n      jump\t// out\n        /* \"#utility.yul\":4704:5083   */\n    tag_28:\n        /* \"#utility.yul\":4888:4891   */\n      0x00\n        /* \"#utility.yul\":4910:5057   */\n      tag_111\n        /* \"#utility.yul\":5053:5056   */\n      dup3\n        /* \"#utility.yul\":4910:5057   */\n      tag_56\n      jump\t// in\n    tag_111:\n        /* \"#utility.yul\":4903:5057   */\n      swap2\n      pop\n        /* \"#utility.yul\":5074:5077   */\n      dup2\n        /* \"#utility.yul\":5067:5077   */\n      swap1\n      pop\n        /* \"#utility.yul\":4704:5083   */\n      swap2\n      swap1\n      pop\n      jump\t// out\n        /* \"#utility.yul\":5089:5334   */\n    tag_57:\n        /* \"#utility.yul\":5229:5263   */\n      0x416464726573733a20756e61626c6520746f2073656e642076616c75652c2072\n        /* \"#utility.yul\":5225:5226   */\n      0x00\n        /* \"#utility.yul\":5217:5223   */\n      dup3\n        /* \"#utility.yul\":5213:5227   */\n      add\n        /* \"#utility.yul\":5206:5264   */\n      mstore\n        /* \"#utility.yul\":5298:5326   */\n      0x6563697069656e74206d61792068617665207265766572746564000000000000\n        /* \"#utility.yul\":5293:5295   */\n      0x20\n        /* \"#utility.yul\":5285:5291   */\n      dup3\n        /* \"#utility.yul\":5281:5296   */\n      add\n        /* \"#utility.yul\":5274:5327   */\n      mstore\n        /* \"#utility.yul\":5089:5334   */\n      pop\n      jump\t// out\n        /* \"#utility.yul\":5340:5706   */\n    tag_58:\n        /* \"#utility.yul\":5482:5485   */\n      0x00\n        /* \"#utility.yul\":5503:5570   */\n      tag_114\n        /* \"#utility.yul\":5567:5569   */\n      0x3a\n        /* \"#utility.yul\":5562:5565   */\n      dup4\n        /* \"#utility.yul\":5503:5570   */\n      tag_51\n      jump\t// in\n    tag_114:\n        /* \"#utility.yul\":5496:5570   */\n      swap2\n      pop\n        /* \"#utility.yul\":5579:5672   */\n      tag_115\n        /* \"#utility.yul\":5668:5671   */\n      dup3\n        /* \"#utility.yul\":5579:5672   */\n      tag_57\n      jump\t// in\n    tag_115:\n        /* \"#utility.yul\":5697:5699   */\n      0x40\n        /* \"#utility.yul\":5692:5695   */\n      dup3\n        /* \"#utility.yul\":5688:5700   */\n      add\n        /* \"#utility.yul\":5681:5700   */\n      swap1\n      pop\n        /* \"#utility.yul\":5340:5706   */\n      swap2\n      swap1\n      pop\n      jump\t// out\n        /* \"#utility.yul\":5712:6131   */\n    tag_34:\n        /* \"#utility.yul\":5878:5882   */\n      0x00\n        /* \"#utility.yul\":5916:5918   */\n      0x20\n        /* \"#utility.yul\":5905:5914   */\n      dup3\n        /* \"#utility.yul\":5901:5919   */\n      add\n        /* \"#utility.yul\":5893:5919   */\n      swap1\n      pop\n        /* \"#utility.yul\":5965:5974   */\n      dup2\n        /* \"#utility.yul\":5959:5963   */\n      dup2\n        /* \"#utility.yul\":5955:5975   */\n      sub\n        /* \"#utility.yul\":5951:5952   */\n      0x00\n        /* \"#utility.yul\":5940:5949   */\n      dup4\n        /* \"#utility.yul\":5936:5953   */\n      add\n        /* \"#utility.yul\":5929:5976   */\n      mstore\n        /* \"#utility.yul\":5993:6124   */\n      tag_117\n        /* \"#utility.yul\":6119:6123   */\n      dup2\n        /* \"#utility.yul\":5993:6124   */\n      tag_58\n      jump\t// in\n    tag_117:\n        /* \"#utility.yul\":5985:6124   */\n      swap1\n      pop\n        /* \"#utility.yul\":5712:6131   */\n      swap2\n      swap1\n      pop\n      jump\t// out\n\n    auxdata: 0xa2646970667358221220e6fbe7c416b5034b545dd8b98960ac59ff16ba082923338bfb820ab86f0a33ee64736f6c63430008110033\n}\n",
				"bytecode": {
					"linkReferences": {},
					"object": "608060405234801561001057600080fd5b506104d4806100206000396000f3fe608060405234801561001057600080fd5b50600436106100365760003560e01c8063c1756a2c1461003b578063e60c2d4414610057575b600080fd5b61005560048036038101906100509190610268565b610087565b005b610071600480360381019061006c91906102e6565b610095565b60405161007e919061032e565b60405180910390f35b61009182826100b8565b5050565b60006100a0826101ac565b156100ae57600190506100b3565b600090505b919050565b804710156100fb576040517f08c379a00000000000000000000000000000000000000000000000000000000081526004016100f2906103a6565b60405180910390fd5b60008273ffffffffffffffffffffffffffffffffffffffff1682604051610121906103f7565b60006040518083038185875af1925050503d806000811461015e576040519150601f19603f3d011682016040523d82523d6000602084013e610163565b606091505b50509050806101a7576040517f08c379a000000000000000000000000000000000000000000000000000000000815260040161019e9061047e565b60405180910390fd5b505050565b6000808273ffffffffffffffffffffffffffffffffffffffff163b119050919050565b600080fd5b600073ffffffffffffffffffffffffffffffffffffffff82169050919050565b60006101ff826101d4565b9050919050565b61020f816101f4565b811461021a57600080fd5b50565b60008135905061022c81610206565b92915050565b6000819050919050565b61024581610232565b811461025057600080fd5b50565b6000813590506102628161023c565b92915050565b6000806040838503121561027f5761027e6101cf565b5b600061028d8582860161021d565b925050602061029e85828601610253565b9150509250929050565b60006102b3826101d4565b9050919050565b6102c3816102a8565b81146102ce57600080fd5b50565b6000813590506102e0816102ba565b92915050565b6000602082840312156102fc576102fb6101cf565b5b600061030a848285016102d1565b91505092915050565b60008115159050919050565b61032881610313565b82525050565b6000602082019050610343600083018461031f565b92915050565b600082825260208201905092915050565b7f416464726573733a20696e73756666696369656e742062616c616e6365000000600082015250565b6000610390601d83610349565b915061039b8261035a565b602082019050919050565b600060208201905081810360008301526103bf81610383565b9050919050565b600081905092915050565b50565b60006103e16000836103c6565b91506103ec826103d1565b600082019050919050565b6000610402826103d4565b9150819050919050565b7f416464726573733a20756e61626c6520746f2073656e642076616c75652c207260008201527f6563697069656e74206d61792068617665207265766572746564000000000000602082015250565b6000610468603a83610349565b91506104738261040c565b604082019050919050565b600060208201905081810360008301526104978161045b565b905091905056fea2646970667358221220e6fbe7c416b5034b545dd8b98960ac59ff16ba082923338bfb820ab86f0a33ee64736f6c63430008110033",
					"opcodes": "PUSH1 0x80 PUSH1 0x40 MSTORE CALLVALUE DUP1 ISZERO PUSH2 0x10 JUMPI PUSH1 0x0 DUP1 REVERT JUMPDEST POP PUSH2 0x4D4 DUP1 PUSH2 0x20 PUSH1 0x0 CODECOPY PUSH1 0x0 RETURN INVALID PUSH1 0x80 PUSH1 0x40 MSTORE CALLVALUE DUP1 ISZERO PUSH2 0x10 JUMPI PUSH1 0x0 DUP1 REVERT JUMPDEST POP PUSH1 0x4 CALLDATASIZE LT PUSH2 0x36 JUMPI PUSH1 0x0 CALLDATALOAD PUSH1 0xE0 SHR DUP1 PUSH4 0xC1756A2C EQ PUSH2 0x3B JUMPI DUP1 PUSH4 0xE60C2D44 EQ PUSH2 0x57 JUMPI JUMPDEST PUSH1 0x0 DUP1 REVERT JUMPDEST PUSH2 0x55 PUSH1 0x4 DUP1 CALLDATASIZE SUB DUP2 ADD SWAP1 PUSH2 0x50 SWAP2 SWAP1 PUSH2 0x268 JUMP JUMPDEST PUSH2 0x87 JUMP JUMPDEST STOP JUMPDEST PUSH2 0x71 PUSH1 0x4 DUP1 CALLDATASIZE SUB DUP2 ADD SWAP1 PUSH2 0x6C SWAP2 SWAP1 PUSH2 0x2E6 JUMP JUMPDEST PUSH2 0x95 JUMP JUMPDEST PUSH1 0x40 MLOAD PUSH2 0x7E SWAP2 SWAP1 PUSH2 0x32E JUMP JUMPDEST PUSH1 0x40 MLOAD DUP1 SWAP2 SUB SWAP1 RETURN JUMPDEST PUSH2 0x91 DUP3 DUP3 PUSH2 0xB8 JUMP JUMPDEST POP POP JUMP JUMPDEST PUSH1 0x0 PUSH2 0xA0 DUP3 PUSH2 0x1AC JUMP JUMPDEST ISZERO PUSH2 0xAE JUMPI PUSH1 0x1 SWAP1 POP PUSH2 0xB3 JUMP JUMPDEST PUSH1 0x0 SWAP1 POP JUMPDEST SWAP2 SWAP1 POP JUMP JUMPDEST DUP1 SELFBALANCE LT ISZERO PUSH2 0xFB JUMPI PUSH1 0x40 MLOAD PUSH32 0x8C379A000000000000000000000000000000000000000000000000000000000 DUP2 MSTORE PUSH1 0x4 ADD PUSH2 0xF2 SWAP1 PUSH2 0x3A6 JUMP JUMPDEST PUSH1 0x40 MLOAD DUP1 SWAP2 SUB SWAP1 REVERT JUMPDEST PUSH1 0x0 DUP3 PUSH20 0xFFFFFFFFFFFFFFFFFFFFFFFFFFFFFFFFFFFFFFFF AND DUP3 PUSH1 0x40 MLOAD PUSH2 0x121 SWAP1 PUSH2 0x3F7 JUMP JUMPDEST PUSH1 0x0 PUSH1 0x40 MLOAD DUP1 DUP4 SUB DUP2 DUP6 DUP8 GAS CALL SWAP3 POP POP POP RETURNDATASIZE DUP1 PUSH1 0x0 DUP2 EQ PUSH2 0x15E JUMPI PUSH1 0x40 MLOAD SWAP2 POP PUSH1 0x1F NOT PUSH1 0x3F RETURNDATASIZE ADD AND DUP3 ADD PUSH1 0x40 MSTORE RETURNDATASIZE DUP3 MSTORE RETURNDATASIZE PUSH1 0x0 PUSH1 0x20 DUP5 ADD RETURNDATACOPY PUSH2 0x163 JUMP JUMPDEST PUSH1 0x60 SWAP2 POP JUMPDEST POP POP SWAP1 POP DUP1 PUSH2 0x1A7 JUMPI PUSH1 0x40 MLOAD PUSH32 0x8C379A000000000000000000000000000000000000000000000000000000000 DUP2 MSTORE PUSH1 0x4 ADD PUSH2 0x19E SWAP1 PUSH2 0x47E JUMP JUMPDEST PUSH1 0x40 MLOAD DUP1 SWAP2 SUB SWAP1 REVERT JUMPDEST POP POP POP JUMP JUMPDEST PUSH1 0x0 DUP1 DUP3 PUSH20 0xFFFFFFFFFFFFFFFFFFFFFFFFFFFFFFFFFFFFFFFF AND EXTCODESIZE GT SWAP1 POP SWAP2 SWAP1 POP JUMP JUMPDEST PUSH1 0x0 DUP1 REVERT JUMPDEST PUSH1 0x0 PUSH20 0xFFFFFFFFFFFFFFFFFFFFFFFFFFFFFFFFFFFFFFFF DUP3 AND SWAP1 POP SWAP2 SWAP1 POP JUMP JUMPDEST PUSH1 0x0 PUSH2 0x1FF DUP3 PUSH2 0x1D4 JUMP JUMPDEST SWAP1 POP SWAP2 SWAP1 POP JUMP JUMPDEST PUSH2 0x20F DUP2 PUSH2 0x1F4 JUMP JUMPDEST DUP2 EQ PUSH2 0x21A JUMPI PUSH1 0x0 DUP1 REVERT JUMPDEST POP JUMP JUMPDEST PUSH1 0x0 DUP2 CALLDATALOAD SWAP1 POP PUSH2 0x22C DUP2 PUSH2 0x206 JUMP JUMPDEST SWAP3 SWAP2 POP POP JUMP JUMPDEST PUSH1 0x0 DUP2 SWAP1 POP SWAP2 SWAP1 POP JUMP JUMPDEST PUSH2 0x245 DUP2 PUSH2 0x232 JUMP JUMPDEST DUP2 EQ PUSH2 0x250 JUMPI PUSH1 0x0 DUP1 REVERT JUMPDEST POP JUMP JUMPDEST PUSH1 0x0 DUP2 CALLDATALOAD SWAP1 POP PUSH2 0x262 DUP2 PUSH2 0x23C JUMP JUMPDEST SWAP3 SWAP2 POP POP JUMP JUMPDEST PUSH1 0x0 DUP1 PUSH1 0x40 DUP4 DUP6 SUB SLT ISZERO PUSH2 0x27F JUMPI PUSH2 0x27E PUSH2 0x1CF JUMP JUMPDEST JUMPDEST PUSH1 0x0 PUSH2 0x28D DUP6 DUP3 DUP7 ADD PUSH2 0x21D JUMP JUMPDEST SWAP3 POP POP PUSH1 0x20 PUSH2 0x29E DUP6 DUP3 DUP7 ADD PUSH2 0x253 JUMP JUMPDEST SWAP2 POP POP SWAP3 POP SWAP3 SWAP1 POP JUMP JUMPDEST PUSH1 0x0 PUSH2 0x2B3 DUP3 PUSH2 0x1D4 JUMP JUMPDEST SWAP1 POP SWAP2 SWAP1 POP JUMP JUMPDEST PUSH2 0x2C3 DUP2 PUSH2 0x2A8 JUMP JUMPDEST DUP2 EQ PUSH2 0x2CE JUMPI PUSH1 0x0 DUP1 REVERT JUMPDEST POP JUMP JUMPDEST PUSH1 0x0 DUP2 CALLDATALOAD SWAP1 POP PUSH2 0x2E0 DUP2 PUSH2 0x2BA JUMP JUMPDEST SWAP3 SWAP2 POP POP JUMP JUMPDEST PUSH1 0x0 PUSH1 0x20 DUP3 DUP5 SUB SLT ISZERO PUSH2 0x2FC JUMPI PUSH2 0x2FB PUSH2 0x1CF JUMP JUMPDEST JUMPDEST PUSH1 0x0 PUSH2 0x30A DUP5 DUP3 DUP6 ADD PUSH2 0x2D1 JUMP JUMPDEST SWAP2 POP POP SWAP3 SWAP2 POP POP JUMP JUMPDEST PUSH1 0x0 DUP2 ISZERO ISZERO SWAP1 POP SWAP2 SWAP1 POP JUMP JUMPDEST PUSH2 0x328 DUP2 PUSH2 0x313 JUMP JUMPDEST DUP3 MSTORE POP POP JUMP JUMPDEST PUSH1 0x0 PUSH1 0x20 DUP3 ADD SWAP1 POP PUSH2 0x343 PUSH1 0x0 DUP4 ADD DUP5 PUSH2 0x31F JUMP JUMPDEST SWAP3 SWAP2 POP POP JUMP JUMPDEST PUSH1 0x0 DUP3 DUP3 MSTORE PUSH1 0x20 DUP3 ADD SWAP1 POP SWAP3 SWAP2 POP POP JUMP JUMPDEST PUSH32 0x416464726573733A20696E73756666696369656E742062616C616E6365000000 PUSH1 0x0 DUP3 ADD MSTORE POP JUMP JUMPDEST PUSH1 0x0 PUSH2 0x390 PUSH1 0x1D DUP4 PUSH2 0x349 JUMP JUMPDEST SWAP2 POP PUSH2 0x39B DUP3 PUSH2 0x35A JUMP JUMPDEST PUSH1 0x20 DUP3 ADD SWAP1 POP SWAP2 SWAP1 POP JUMP JUMPDEST PUSH1 0x0 PUSH1 0x20 DUP3 ADD SWAP1 POP DUP2 DUP2 SUB PUSH1 0x0 DUP4 ADD MSTORE PUSH2 0x3BF DUP2 PUSH2 0x383 JUMP JUMPDEST SWAP1 POP SWAP2 SWAP1 POP JUMP JUMPDEST PUSH1 0x0 DUP2 SWAP1 POP SWAP3 SWAP2 POP POP JUMP JUMPDEST POP JUMP JUMPDEST PUSH1 0x0 PUSH2 0x3E1 PUSH1 0x0 DUP4 PUSH2 0x3C6 JUMP JUMPDEST SWAP2 POP PUSH2 0x3EC DUP3 PUSH2 0x3D1 JUMP JUMPDEST PUSH1 0x0 DUP3 ADD SWAP1 POP SWAP2 SWAP1 POP JUMP JUMPDEST PUSH1 0x0 PUSH2 0x402 DUP3 PUSH2 0x3D4 JUMP JUMPDEST SWAP2 POP DUP2 SWAP1 POP SWAP2 SWAP1 POP JUMP JUMPDEST PUSH32 0x416464726573733A20756E61626C6520746F2073656E642076616C75652C2072 PUSH1 0x0 DUP3 ADD MSTORE PUSH32 0x6563697069656E74206D61792068617665207265766572746564000000000000 PUSH1 0x20 DUP3 ADD MSTORE POP JUMP JUMPDEST PUSH1 0x0 PUSH2 0x468 PUSH1 0x3A DUP4 PUSH2 0x349 JUMP JUMPDEST SWAP2 POP PUSH2 0x473 DUP3 PUSH2 0x40C JUMP JUMPDEST PUSH1 0x40 DUP3 ADD SWAP1 POP SWAP2 SWAP1 POP JUMP JUMPDEST PUSH1 0x0 PUSH1 0x20 DUP3 ADD SWAP1 POP DUP2 DUP2 SUB PUSH1 0x0 DUP4 ADD MSTORE PUSH2 0x497 DUP2 PUSH2 0x45B JUMP JUMPDEST SWAP1 POP SWAP2 SWAP1 POP JUMP INVALID LOG2 PUSH5 0x6970667358 0x22 SLT KECCAK256 0xE6 0xFB 0xE7 0xC4 AND 0xB5 SUB 0x4B SLOAD 0x5D 0xD8 0xB9 DUP10 PUSH1 0xAC MSIZE SELFDESTRUCT AND 0xBA ADDMOD 0x29 0x23 CALLER DUP12 0xFB DUP3 EXP 0xB8 PUSH16 0xA33EE64736F6C634300081100330000 "
				},
				"gasEstimates": {
					"creation": {
						"codeDepositCost": "247200",
						"executionCost": "287",
						"totalCost": "247487"
					},
					"external": {
						"doSomething(address)": "3343",
						"sendEther(address,uint256)": "infinite"
					}
				},
				"methodIdentifiers": {
					"doSomething(address)": "e60c2d44",
					"sendEther(address,uint256)": "c1756a2c"
				}
			},
			"storageLayout": {
				"storage": [],
				"types": null
			},
			"userdoc": {
				"kind": "user",
				"methods": {},
				"version": 1
			}
		}
	}
}