{
	"contracts/FrenStaking.sol": {
		"FrenStaking": {
			"abi": [
				{
					"inputs": [
						{
							"internalType": "address",
							"name": "_stakingDestinationAddress",
							"type": "address"
						},
						{
							"internalType": "uint256",
							"name": "_rate",
							"type": "uint256"
						},
						{
							"internalType": "uint256",
							"name": "_expiration",
							"type": "uint256"
						},
						{
							"internalType": "address",
							"name": "_erc20Address",
							"type": "address"
						}
					],
					"stateMutability": "nonpayable",
					"type": "constructor"
				},
				{
					"anonymous": false,
					"inputs": [
						{
							"indexed": true,
							"internalType": "address",
							"name": "previousOwner",
							"type": "address"
						},
						{
							"indexed": true,
							"internalType": "address",
							"name": "newOwner",
							"type": "address"
						}
					],
					"name": "OwnershipTransferred",
					"type": "event"
				},
				{
					"anonymous": false,
					"inputs": [
						{
							"indexed": false,
							"internalType": "address",
							"name": "account",
							"type": "address"
						}
					],
					"name": "Paused",
					"type": "event"
				},
				{
					"anonymous": false,
					"inputs": [
						{
							"indexed": false,
							"internalType": "address",
							"name": "account",
							"type": "address"
						}
					],
					"name": "Unpaused",
					"type": "event"
				},
				{
					"inputs": [
						{
							"internalType": "address",
							"name": "",
							"type": "address"
						},
						{
							"internalType": "uint256",
							"name": "",
							"type": "uint256"
						}
					],
					"name": "_depositBlocks",
					"outputs": [
						{
							"internalType": "uint256",
							"name": "",
							"type": "uint256"
						}
					],
					"stateMutability": "view",
					"type": "function"
				},
				{
					"inputs": [
						{
							"internalType": "address",
							"name": "",
							"type": "address"
						}
					],
					"name": "accumulatedTokens",
					"outputs": [
						{
							"internalType": "uint256",
							"name": "",
							"type": "uint256"
						}
					],
					"stateMutability": "view",
					"type": "function"
				},
				{
					"inputs": [
						{
							"internalType": "address",
							"name": "account",
							"type": "address"
						},
						{
							"internalType": "uint256",
							"name": "tokenId",
							"type": "uint256"
						}
					],
					"name": "calculateReward",
					"outputs": [
						{
							"internalType": "uint256",
							"name": "",
							"type": "uint256"
						}
					],
					"stateMutability": "view",
					"type": "function"
				},
				{
					"inputs": [
						{
							"internalType": "address",
							"name": "account",
							"type": "address"
						},
						{
							"internalType": "uint256[]",
							"name": "tokenIds",
							"type": "uint256[]"
						}
					],
					"name": "calculateRewards",
					"outputs": [
						{
							"internalType": "uint256[]",
							"name": "rewards",
							"type": "uint256[]"
						}
					],
					"stateMutability": "view",
					"type": "function"
				},
				{
					"inputs": [
						{
							"internalType": "uint256[]",
							"name": "tokenIds",
							"type": "uint256[]"
						}
					],
					"name": "claimRewards",
					"outputs": [],
					"stateMutability": "nonpayable",
					"type": "function"
				},
				{
					"inputs": [
						{
							"internalType": "uint256[]",
							"name": "tokenIds",
							"type": "uint256[]"
						}
					],
					"name": "deposit",
					"outputs": [],
					"stateMutability": "nonpayable",
					"type": "function"
				},
				{
					"inputs": [
						{
							"internalType": "address",
							"name": "account",
							"type": "address"
						}
					],
					"name": "depositsOf",
					"outputs": [
						{
							"internalType": "uint256[]",
							"name": "",
							"type": "uint256[]"
						}
					],
					"stateMutability": "view",
					"type": "function"
				},
				{
					"inputs": [],
					"name": "erc20Address",
					"outputs": [
						{
							"internalType": "address",
							"name": "",
							"type": "address"
						}
					],
					"stateMutability": "view",
					"type": "function"
				},
				{
					"inputs": [],
					"name": "expiration",
					"outputs": [
						{
							"internalType": "uint256",
							"name": "",
							"type": "uint256"
						}
					],
					"stateMutability": "view",
					"type": "function"
				},
				{
					"inputs": [],
					"name": "flipIsClaimable",
					"outputs": [],
					"stateMutability": "nonpayable",
					"type": "function"
				},
				{
					"inputs": [],
					"name": "isClaimable",
					"outputs": [
						{
							"internalType": "bool",
							"name": "",
							"type": "bool"
						}
					],
					"stateMutability": "view",
					"type": "function"
				},
				{
					"inputs": [
						{
							"internalType": "address",
							"name": "",
							"type": "address"
						},
						{
							"internalType": "address",
							"name": "",
							"type": "address"
						},
						{
							"internalType": "uint256",
							"name": "",
							"type": "uint256"
						},
						{
							"internalType": "bytes",
							"name": "",
							"type": "bytes"
						}
					],
					"name": "onERC721Received",
					"outputs": [
						{
							"internalType": "bytes4",
							"name": "",
							"type": "bytes4"
						}
					],
					"stateMutability": "pure",
					"type": "function"
				},
				{
					"inputs": [],
					"name": "owner",
					"outputs": [
						{
							"internalType": "address",
							"name": "",
							"type": "address"
						}
					],
					"stateMutability": "view",
					"type": "function"
				},
				{
					"inputs": [],
					"name": "pause",
					"outputs": [],
					"stateMutability": "nonpayable",
					"type": "function"
				},
				{
					"inputs": [],
					"name": "paused",
					"outputs": [
						{
							"internalType": "bool",
							"name": "",
							"type": "bool"
						}
					],
					"stateMutability": "view",
					"type": "function"
				},
				{
					"inputs": [],
					"name": "rate",
					"outputs": [
						{
							"internalType": "uint256",
							"name": "",
							"type": "uint256"
						}
					],
					"stateMutability": "view",
					"type": "function"
				},
				{
					"inputs": [],
					"name": "renounceOwnership",
					"outputs": [],
					"stateMutability": "nonpayable",
					"type": "function"
				},
				{
					"inputs": [
						{
							"internalType": "uint256",
							"name": "_expiration",
							"type": "uint256"
						}
					],
					"name": "setExpiration",
					"outputs": [],
					"stateMutability": "nonpayable",
					"type": "function"
				},
				{
					"inputs": [
						{
							"internalType": "uint256",
							"name": "_rate",
							"type": "uint256"
						}
					],
					"name": "setRate",
					"outputs": [],
					"stateMutability": "nonpayable",
					"type": "function"
				},
				{
					"inputs": [],
					"name": "stakingDestinationAddress",
					"outputs": [
						{
							"internalType": "address",
							"name": "",
							"type": "address"
						}
					],
					"stateMutability": "view",
					"type": "function"
				},
				{
					"inputs": [
						{
							"internalType": "address",
							"name": "newOwner",
							"type": "address"
						}
					],
					"name": "transferOwnership",
					"outputs": [],
					"stateMutability": "nonpayable",
					"type": "function"
				},
				{
					"inputs": [],
					"name": "unpause",
					"outputs": [],
					"stateMutability": "nonpayable",
					"type": "function"
				},
				{
					"inputs": [
						{
							"internalType": "uint256[]",
							"name": "tokenIds",
							"type": "uint256[]"
						}
					],
					"name": "withdraw",
					"outputs": [],
					"stateMutability": "nonpayable",
					"type": "function"
				},
				{
					"inputs": [],
					"name": "withdrawTokens",
					"outputs": [],
					"stateMutability": "nonpayable",
					"type": "function"
				}
			],
			"devdoc": {
				"kind": "dev",
				"methods": {
					"owner()": {
						"details": "Returns the address of the current owner."
					},
					"paused()": {
						"details": "Returns true if the contract is paused, and false otherwise."
					},
					"renounceOwnership()": {
						"details": "Leaves the contract without owner. It will not be possible to call `onlyOwner` functions anymore. Can only be called by the current owner. NOTE: Renouncing ownership will leave the contract without an owner, thereby removing any functionality that is only available to the owner."
					},
					"transferOwnership(address)": {
						"details": "Transfers ownership of the contract to a new account (`newOwner`). Can only be called by the current owner."
					}
				},
				"version": 1
			},
			"evm": {
				"assembly": "    /* \"contracts/FrenStaking.sol\":665:5452  contract FrenStaking is Ownable, IERC721Receiver, ReentrancyGuard, Pausable {... */\n  mstore(0x40, 0x80)\n    /* \"contracts/FrenStaking.sol\":843:885  0x0000000000000000000000000000000000000000 */\n  0x00\n    /* \"contracts/FrenStaking.sol\":821:885  address nullAddress = 0x0000000000000000000000000000000000000000 */\n  0x02\n  exp(0x0100, 0x01)\n  dup2\n  sload\n  dup2\n  0xffffffffffffffffffffffffffffffffffffffff\n  mul\n  not\n  and\n  swap1\n  dup4\n  0xffffffffffffffffffffffffffffffffffffffff\n  and\n  mul\n  or\n  swap1\n  sstore\n  pop\n    /* \"contracts/FrenStaking.sol\":1330:1664  constructor(address _stakingDestinationAddress, uint256 _rate, uint256 _expiration, address _erc20Address) {... */\n  callvalue\n  dup1\n  iszero\n  tag_1\n  jumpi\n  0x00\n  dup1\n  revert\ntag_1:\n  pop\n  mload(0x40)\n  sub(codesize, bytecodeSize)\n  dup1\n  bytecodeSize\n  dup4\n  codecopy\n  dup2\n  dup2\n  add\n  0x40\n  mstore\n  dup2\n  add\n  swap1\n  tag_2\n  swap2\n  swap1\n  tag_3\n  jump\t// in\ntag_2:\n    /* \"@openzeppelin/contracts/access/Ownable.sol\":936:968  _transferOwnership(_msgSender()) */\n  tag_9\n    /* \"@openzeppelin/contracts/access/Ownable.sol\":955:967  _msgSender() */\n  tag_10\n    /* \"@openzeppelin/contracts/access/Ownable.sol\":955:965  _msgSender */\n  shl(0x20, tag_11)\n    /* \"@openzeppelin/contracts/access/Ownable.sol\":955:967  _msgSender() */\n  0x20\n  shr\n  jump\t// in\ntag_10:\n    /* \"@openzeppelin/contracts/access/Ownable.sol\":936:954  _transferOwnership */\n  shl(0x20, tag_12)\n    /* \"@openzeppelin/contracts/access/Ownable.sol\":936:968  _transferOwnership(_msgSender()) */\n  0x20\n  shr\n  jump\t// in\ntag_9:\n    /* \"@openzeppelin/contracts/security/ReentrancyGuard.sol\":1716:1717  1 */\n  0x01\n    /* \"@openzeppelin/contracts/security/ReentrancyGuard.sol\":1821:1828  _status */\n  dup1\n    /* \"@openzeppelin/contracts/security/ReentrancyGuard.sol\":1821:1843  _status = _NOT_ENTERED */\n  dup2\n  swap1\n  sstore\n  pop\n    /* \"@openzeppelin/contracts/security/Pausable.sol\":1006:1011  false */\n  0x00\n    /* \"@openzeppelin/contracts/security/Pausable.sol\":996:1003  _paused */\n  0x02\n  0x00\n    /* \"@openzeppelin/contracts/security/Pausable.sol\":996:1011  _paused = false */\n  0x0100\n  exp\n  dup2\n  sload\n  dup2\n  0xff\n  mul\n  not\n  and\n  swap1\n  dup4\n  iszero\n  iszero\n  mul\n  or\n  swap1\n  sstore\n  pop\n    /* \"contracts/FrenStaking.sol\":1475:1501  _stakingDestinationAddress */\n  dup4\n    /* \"contracts/FrenStaking.sol\":1447:1472  stakingDestinationAddress */\n  0x03\n  0x00\n    /* \"contracts/FrenStaking.sol\":1447:1501  stakingDestinationAddress = _stakingDestinationAddress */\n  0x0100\n  exp\n  dup2\n  sload\n  dup2\n  0xffffffffffffffffffffffffffffffffffffffff\n  mul\n  not\n  and\n  swap1\n  dup4\n  0xffffffffffffffffffffffffffffffffffffffff\n  and\n  mul\n  or\n  swap1\n  sstore\n  pop\n    /* \"contracts/FrenStaking.sol\":1518:1523  _rate */\n  dup3\n    /* \"contracts/FrenStaking.sol\":1511:1515  rate */\n  0x06\n    /* \"contracts/FrenStaking.sol\":1511:1523  rate = _rate */\n  dup2\n  swap1\n  sstore\n  pop\n    /* \"contracts/FrenStaking.sol\":1561:1572  _expiration */\n  dup2\n    /* \"contracts/FrenStaking.sol\":1546:1558  block.number */\n  number\n    /* \"contracts/FrenStaking.sol\":1546:1572  block.number + _expiration */\n  tag_16\n  swap2\n  swap1\n  tag_17\n  jump\t// in\ntag_16:\n    /* \"contracts/FrenStaking.sol\":1533:1543  expiration */\n  0x05\n    /* \"contracts/FrenStaking.sol\":1533:1572  expiration = block.number + _expiration */\n  dup2\n  swap1\n  sstore\n  pop\n    /* \"contracts/FrenStaking.sol\":1597:1610  _erc20Address */\n  dup1\n    /* \"contracts/FrenStaking.sol\":1582:1594  erc20Address */\n  0x04\n  0x00\n    /* \"contracts/FrenStaking.sol\":1582:1610  erc20Address = _erc20Address */\n  0x0100\n  exp\n  dup2\n  sload\n  dup2\n  0xffffffffffffffffffffffffffffffffffffffff\n  mul\n  not\n  and\n  swap1\n  dup4\n  0xffffffffffffffffffffffffffffffffffffffff\n  and\n  mul\n  or\n  swap1\n  sstore\n  pop\n    /* \"contracts/FrenStaking.sol\":1620:1628  _pause() */\n  tag_18\n    /* \"contracts/FrenStaking.sol\":1620:1626  _pause */\n  shl(0x20, tag_19)\n    /* \"contracts/FrenStaking.sol\":1620:1628  _pause() */\n  0x20\n  shr\n  jump\t// in\ntag_18:\n    /* \"contracts/FrenStaking.sol\":1652:1657  false */\n  0x00\n    /* \"contracts/FrenStaking.sol\":1638:1649  isClaimable */\n  0x07\n  0x00\n    /* \"contracts/FrenStaking.sol\":1638:1657  isClaimable = false */\n  0x0100\n  exp\n  dup2\n  sload\n  dup2\n  0xff\n  mul\n  not\n  and\n  swap1\n  dup4\n  iszero\n  iszero\n  mul\n  or\n  swap1\n  sstore\n  pop\n    /* \"contracts/FrenStaking.sol\":1330:1664  constructor(address _stakingDestinationAddress, uint256 _rate, uint256 _expiration, address _erc20Address) {... */\n  pop\n  pop\n  pop\n  pop\n    /* \"contracts/FrenStaking.sol\":665:5452  contract FrenStaking is Ownable, IERC721Receiver, ReentrancyGuard, Pausable {... */\n  jump(tag_20)\n    /* \"@openzeppelin/contracts/utils/Context.sol\":640:736  function _msgSender() internal view virtual returns (address) {... */\ntag_11:\n    /* \"@openzeppelin/contracts/utils/Context.sol\":693:700  address */\n  0x00\n    /* \"@openzeppelin/contracts/utils/Context.sol\":719:729  msg.sender */\n  caller\n    /* \"@openzeppelin/contracts/utils/Context.sol\":712:729  return msg.sender */\n  swap1\n  pop\n    /* \"@openzeppelin/contracts/utils/Context.sol\":640:736  function _msgSender() internal view virtual returns (address) {... */\n  swap1\n  jump\t// out\n    /* \"@openzeppelin/contracts/access/Ownable.sol\":2433:2620  function _transferOwnership(address newOwner) internal virtual {... */\ntag_12:\n    /* \"@openzeppelin/contracts/access/Ownable.sol\":2506:2522  address oldOwner */\n  0x00\n    /* \"@openzeppelin/contracts/access/Ownable.sol\":2525:2531  _owner */\n  dup1\n  0x00\n  swap1\n  sload\n  swap1\n  0x0100\n  exp\n  swap1\n  div\n  0xffffffffffffffffffffffffffffffffffffffff\n  and\n    /* \"@openzeppelin/contracts/access/Ownable.sol\":2506:2531  address oldOwner = _owner */\n  swap1\n  pop\n    /* \"@openzeppelin/contracts/access/Ownable.sol\":2550:2558  newOwner */\n  dup2\n    /* \"@openzeppelin/contracts/access/Ownable.sol\":2541:2547  _owner */\n  0x00\n  dup1\n    /* \"@openzeppelin/contracts/access/Ownable.sol\":2541:2558  _owner = newOwner */\n  0x0100\n  exp\n  dup2\n  sload\n  dup2\n  0xffffffffffffffffffffffffffffffffffffffff\n  mul\n  not\n  and\n  swap1\n  dup4\n  0xffffffffffffffffffffffffffffffffffffffff\n  and\n  mul\n  or\n  swap1\n  sstore\n  pop\n    /* \"@openzeppelin/contracts/access/Ownable.sol\":2604:2612  newOwner */\n  dup2\n    /* \"@openzeppelin/contracts/access/Ownable.sol\":2573:2613  OwnershipTransferred(oldOwner, newOwner) */\n  0xffffffffffffffffffffffffffffffffffffffff\n  and\n    /* \"@openzeppelin/contracts/access/Ownable.sol\":2594:2602  oldOwner */\n  dup2\n    /* \"@openzeppelin/contracts/access/Ownable.sol\":2573:2613  OwnershipTransferred(oldOwner, newOwner) */\n  0xffffffffffffffffffffffffffffffffffffffff\n  and\n  0x8be0079c531659141344cd1fd0a4f28419497f9722a3daafe3b4186f6b6457e0\n  mload(0x40)\n  mload(0x40)\n  dup1\n  swap2\n  sub\n  swap1\n  log3\n    /* \"@openzeppelin/contracts/access/Ownable.sol\":2496:2620  {... */\n  pop\n    /* \"@openzeppelin/contracts/access/Ownable.sol\":2433:2620  function _transferOwnership(address newOwner) internal virtual {... */\n  pop\n  jump\t// out\n    /* \"@openzeppelin/contracts/security/Pausable.sol\":2186:2301  function _pause() internal virtual whenNotPaused {... */\ntag_19:\n    /* \"@openzeppelin/contracts/security/Pausable.sol\":1239:1258  _requireNotPaused() */\n  tag_24\n    /* \"@openzeppelin/contracts/security/Pausable.sol\":1239:1256  _requireNotPaused */\n  shl(0x20, tag_25)\n    /* \"@openzeppelin/contracts/security/Pausable.sol\":1239:1258  _requireNotPaused() */\n  0x20\n  shr\n  jump\t// in\ntag_24:\n    /* \"@openzeppelin/contracts/security/Pausable.sol\":2255:2259  true */\n  0x01\n    /* \"@openzeppelin/contracts/security/Pausable.sol\":2245:2252  _paused */\n  0x02\n  0x00\n    /* \"@openzeppelin/contracts/security/Pausable.sol\":2245:2259  _paused = true */\n  0x0100\n  exp\n  dup2\n  sload\n  dup2\n  0xff\n  mul\n  not\n  and\n  swap1\n  dup4\n  iszero\n  iszero\n  mul\n  or\n  swap1\n  sstore\n  pop\n    /* \"@openzeppelin/contracts/security/Pausable.sol\":2274:2294  Paused(_msgSender()) */\n  0x62e78cea01bee320cd4e420270b5ea74000d11b0c9f74754ebdbfc544b05a258\n    /* \"@openzeppelin/contracts/security/Pausable.sol\":2281:2293  _msgSender() */\n  tag_27\n    /* \"@openzeppelin/contracts/security/Pausable.sol\":2281:2291  _msgSender */\n  shl(0x20, tag_11)\n    /* \"@openzeppelin/contracts/security/Pausable.sol\":2281:2293  _msgSender() */\n  0x20\n  shr\n  jump\t// in\ntag_27:\n    /* \"@openzeppelin/contracts/security/Pausable.sol\":2274:2294  Paused(_msgSender()) */\n  mload(0x40)\n  tag_28\n  swap2\n  swap1\n  tag_29\n  jump\t// in\ntag_28:\n  mload(0x40)\n  dup1\n  swap2\n  sub\n  swap1\n  log1\n    /* \"@openzeppelin/contracts/security/Pausable.sol\":2186:2301  function _pause() internal virtual whenNotPaused {... */\n  jump\t// out\n    /* \"@openzeppelin/contracts/security/Pausable.sol\":1767:1873  function _requireNotPaused() internal view virtual {... */\ntag_25:\n    /* \"@openzeppelin/contracts/security/Pausable.sol\":1837:1845  paused() */\n  tag_31\n    /* \"@openzeppelin/contracts/security/Pausable.sol\":1837:1843  paused */\n  shl(0x20, tag_32)\n    /* \"@openzeppelin/contracts/security/Pausable.sol\":1837:1845  paused() */\n  0x20\n  shr\n  jump\t// in\ntag_31:\n    /* \"@openzeppelin/contracts/security/Pausable.sol\":1836:1845  !paused() */\n  iszero\n    /* \"@openzeppelin/contracts/security/Pausable.sol\":1828:1866  require(!paused(), \"Pausable: paused\") */\n  tag_33\n  jumpi\n  mload(0x40)\n  0x08c379a000000000000000000000000000000000000000000000000000000000\n  dup2\n  mstore\n  0x04\n  add\n  tag_34\n  swap1\n  tag_35\n  jump\t// in\ntag_34:\n  mload(0x40)\n  dup1\n  swap2\n  sub\n  swap1\n  revert\ntag_33:\n    /* \"@openzeppelin/contracts/security/Pausable.sol\":1767:1873  function _requireNotPaused() internal view virtual {... */\n  jump\t// out\n    /* \"@openzeppelin/contracts/security/Pausable.sol\":1615:1699  function paused() public view virtual returns (bool) {... */\ntag_32:\n    /* \"@openzeppelin/contracts/security/Pausable.sol\":1662:1666  bool */\n  0x00\n    /* \"@openzeppelin/contracts/security/Pausable.sol\":1685:1692  _paused */\n  0x02\n  0x00\n  swap1\n  sload\n  swap1\n  0x0100\n  exp\n  swap1\n  div\n  0xff\n  and\n    /* \"@openzeppelin/contracts/security/Pausable.sol\":1678:1692  return _paused */\n  swap1\n  pop\n    /* \"@openzeppelin/contracts/security/Pausable.sol\":1615:1699  function paused() public view virtual returns (bool) {... */\n  swap1\n  jump\t// out\n    /* \"#utility.yul\":88:205   */\ntag_38:\n    /* \"#utility.yul\":197:198   */\n  0x00\n    /* \"#utility.yul\":194:195   */\n  dup1\n    /* \"#utility.yul\":187:199   */\n  revert\n    /* \"#utility.yul\":334:460   */\ntag_40:\n    /* \"#utility.yul\":371:378   */\n  0x00\n    /* \"#utility.yul\":411:453   */\n  0xffffffffffffffffffffffffffffffffffffffff\n    /* \"#utility.yul\":404:409   */\n  dup3\n    /* \"#utility.yul\":400:454   */\n  and\n    /* \"#utility.yul\":389:454   */\n  swap1\n  pop\n    /* \"#utility.yul\":334:460   */\n  swap2\n  swap1\n  pop\n  jump\t// out\n    /* \"#utility.yul\":466:562   */\ntag_41:\n    /* \"#utility.yul\":503:510   */\n  0x00\n    /* \"#utility.yul\":532:556   */\n  tag_58\n    /* \"#utility.yul\":550:555   */\n  dup3\n    /* \"#utility.yul\":532:556   */\n  tag_40\n  jump\t// in\ntag_58:\n    /* \"#utility.yul\":521:556   */\n  swap1\n  pop\n    /* \"#utility.yul\":466:562   */\n  swap2\n  swap1\n  pop\n  jump\t// out\n    /* \"#utility.yul\":568:690   */\ntag_42:\n    /* \"#utility.yul\":641:665   */\n  tag_60\n    /* \"#utility.yul\":659:664   */\n  dup2\n    /* \"#utility.yul\":641:665   */\n  tag_41\n  jump\t// in\ntag_60:\n    /* \"#utility.yul\":634:639   */\n  dup2\n    /* \"#utility.yul\":631:666   */\n  eq\n    /* \"#utility.yul\":621:684   */\n  tag_61\n  jumpi\n    /* \"#utility.yul\":680:681   */\n  0x00\n    /* \"#utility.yul\":677:678   */\n  dup1\n    /* \"#utility.yul\":670:682   */\n  revert\n    /* \"#utility.yul\":621:684   */\ntag_61:\n    /* \"#utility.yul\":568:690   */\n  pop\n  jump\t// out\n    /* \"#utility.yul\":696:839   */\ntag_43:\n    /* \"#utility.yul\":753:758   */\n  0x00\n    /* \"#utility.yul\":784:790   */\n  dup2\n    /* \"#utility.yul\":778:791   */\n  mload\n    /* \"#utility.yul\":769:791   */\n  swap1\n  pop\n    /* \"#utility.yul\":800:833   */\n  tag_63\n    /* \"#utility.yul\":827:832   */\n  dup2\n    /* \"#utility.yul\":800:833   */\n  tag_42\n  jump\t// in\ntag_63:\n    /* \"#utility.yul\":696:839   */\n  swap3\n  swap2\n  pop\n  pop\n  jump\t// out\n    /* \"#utility.yul\":845:922   */\ntag_44:\n    /* \"#utility.yul\":882:889   */\n  0x00\n    /* \"#utility.yul\":911:916   */\n  dup2\n    /* \"#utility.yul\":900:916   */\n  swap1\n  pop\n    /* \"#utility.yul\":845:922   */\n  swap2\n  swap1\n  pop\n  jump\t// out\n    /* \"#utility.yul\":928:1050   */\ntag_45:\n    /* \"#utility.yul\":1001:1025   */\n  tag_66\n    /* \"#utility.yul\":1019:1024   */\n  dup2\n    /* \"#utility.yul\":1001:1025   */\n  tag_44\n  jump\t// in\ntag_66:\n    /* \"#utility.yul\":994:999   */\n  dup2\n    /* \"#utility.yul\":991:1026   */\n  eq\n    /* \"#utility.yul\":981:1044   */\n  tag_67\n  jumpi\n    /* \"#utility.yul\":1040:1041   */\n  0x00\n    /* \"#utility.yul\":1037:1038   */\n  dup1\n    /* \"#utility.yul\":1030:1042   */\n  revert\n    /* \"#utility.yul\":981:1044   */\ntag_67:\n    /* \"#utility.yul\":928:1050   */\n  pop\n  jump\t// out\n    /* \"#utility.yul\":1056:1199   */\ntag_46:\n    /* \"#utility.yul\":1113:1118   */\n  0x00\n    /* \"#utility.yul\":1144:1150   */\n  dup2\n    /* \"#utility.yul\":1138:1151   */\n  mload\n    /* \"#utility.yul\":1129:1151   */\n  swap1\n  pop\n    /* \"#utility.yul\":1160:1193   */\n  tag_69\n    /* \"#utility.yul\":1187:1192   */\n  dup2\n    /* \"#utility.yul\":1160:1193   */\n  tag_45\n  jump\t// in\ntag_69:\n    /* \"#utility.yul\":1056:1199   */\n  swap3\n  swap2\n  pop\n  pop\n  jump\t// out\n    /* \"#utility.yul\":1205:2025   */\ntag_3:\n    /* \"#utility.yul\":1302:1308   */\n  0x00\n    /* \"#utility.yul\":1310:1316   */\n  dup1\n    /* \"#utility.yul\":1318:1324   */\n  0x00\n    /* \"#utility.yul\":1326:1332   */\n  dup1\n    /* \"#utility.yul\":1375:1378   */\n  0x80\n    /* \"#utility.yul\":1363:1372   */\n  dup6\n    /* \"#utility.yul\":1354:1361   */\n  dup8\n    /* \"#utility.yul\":1350:1373   */\n  sub\n    /* \"#utility.yul\":1346:1379   */\n  slt\n    /* \"#utility.yul\":1343:1463   */\n  iszero\n  tag_71\n  jumpi\n    /* \"#utility.yul\":1382:1461   */\n  tag_72\n  tag_38\n  jump\t// in\ntag_72:\n    /* \"#utility.yul\":1343:1463   */\ntag_71:\n    /* \"#utility.yul\":1502:1503   */\n  0x00\n    /* \"#utility.yul\":1527:1591   */\n  tag_73\n    /* \"#utility.yul\":1583:1590   */\n  dup8\n    /* \"#utility.yul\":1574:1580   */\n  dup3\n    /* \"#utility.yul\":1563:1572   */\n  dup9\n    /* \"#utility.yul\":1559:1581   */\n  add\n    /* \"#utility.yul\":1527:1591   */\n  tag_43\n  jump\t// in\ntag_73:\n    /* \"#utility.yul\":1517:1591   */\n  swap5\n  pop\n    /* \"#utility.yul\":1473:1601   */\n  pop\n    /* \"#utility.yul\":1640:1642   */\n  0x20\n    /* \"#utility.yul\":1666:1730   */\n  tag_74\n    /* \"#utility.yul\":1722:1729   */\n  dup8\n    /* \"#utility.yul\":1713:1719   */\n  dup3\n    /* \"#utility.yul\":1702:1711   */\n  dup9\n    /* \"#utility.yul\":1698:1720   */\n  add\n    /* \"#utility.yul\":1666:1730   */\n  tag_46\n  jump\t// in\ntag_74:\n    /* \"#utility.yul\":1656:1730   */\n  swap4\n  pop\n    /* \"#utility.yul\":1611:1740   */\n  pop\n    /* \"#utility.yul\":1779:1781   */\n  0x40\n    /* \"#utility.yul\":1805:1869   */\n  tag_75\n    /* \"#utility.yul\":1861:1868   */\n  dup8\n    /* \"#utility.yul\":1852:1858   */\n  dup3\n    /* \"#utility.yul\":1841:1850   */\n  dup9\n    /* \"#utility.yul\":1837:1859   */\n  add\n    /* \"#utility.yul\":1805:1869   */\n  tag_46\n  jump\t// in\ntag_75:\n    /* \"#utility.yul\":1795:1869   */\n  swap3\n  pop\n    /* \"#utility.yul\":1750:1879   */\n  pop\n    /* \"#utility.yul\":1918:1920   */\n  0x60\n    /* \"#utility.yul\":1944:2008   */\n  tag_76\n    /* \"#utility.yul\":2000:2007   */\n  dup8\n    /* \"#utility.yul\":1991:1997   */\n  dup3\n    /* \"#utility.yul\":1980:1989   */\n  dup9\n    /* \"#utility.yul\":1976:1998   */\n  add\n    /* \"#utility.yul\":1944:2008   */\n  tag_43\n  jump\t// in\ntag_76:\n    /* \"#utility.yul\":1934:2008   */\n  swap2\n  pop\n    /* \"#utility.yul\":1889:2018   */\n  pop\n    /* \"#utility.yul\":1205:2025   */\n  swap3\n  swap6\n  swap2\n  swap5\n  pop\n  swap3\n  pop\n  jump\t// out\n    /* \"#utility.yul\":2031:2211   */\ntag_47:\n    /* \"#utility.yul\":2079:2156   */\n  0x4e487b7100000000000000000000000000000000000000000000000000000000\n    /* \"#utility.yul\":2076:2077   */\n  0x00\n    /* \"#utility.yul\":2069:2157   */\n  mstore\n    /* \"#utility.yul\":2176:2180   */\n  0x11\n    /* \"#utility.yul\":2173:2174   */\n  0x04\n    /* \"#utility.yul\":2166:2181   */\n  mstore\n    /* \"#utility.yul\":2200:2204   */\n  0x24\n    /* \"#utility.yul\":2197:2198   */\n  0x00\n    /* \"#utility.yul\":2190:2205   */\n  revert\n    /* \"#utility.yul\":2217:2408   */\ntag_17:\n    /* \"#utility.yul\":2257:2260   */\n  0x00\n    /* \"#utility.yul\":2276:2296   */\n  tag_79\n    /* \"#utility.yul\":2294:2295   */\n  dup3\n    /* \"#utility.yul\":2276:2296   */\n  tag_44\n  jump\t// in\ntag_79:\n    /* \"#utility.yul\":2271:2296   */\n  swap2\n  pop\n    /* \"#utility.yul\":2310:2330   */\n  tag_80\n    /* \"#utility.yul\":2328:2329   */\n  dup4\n    /* \"#utility.yul\":2310:2330   */\n  tag_44\n  jump\t// in\ntag_80:\n    /* \"#utility.yul\":2305:2330   */\n  swap3\n  pop\n    /* \"#utility.yul\":2353:2354   */\n  dup3\n    /* \"#utility.yul\":2350:2351   */\n  dup3\n    /* \"#utility.yul\":2346:2355   */\n  add\n    /* \"#utility.yul\":2339:2355   */\n  swap1\n  pop\n    /* \"#utility.yul\":2374:2377   */\n  dup1\n    /* \"#utility.yul\":2371:2372   */\n  dup3\n    /* \"#utility.yul\":2368:2378   */\n  gt\n    /* \"#utility.yul\":2365:2401   */\n  iszero\n  tag_81\n  jumpi\n    /* \"#utility.yul\":2381:2399   */\n  tag_82\n  tag_47\n  jump\t// in\ntag_82:\n    /* \"#utility.yul\":2365:2401   */\ntag_81:\n    /* \"#utility.yul\":2217:2408   */\n  swap3\n  swap2\n  pop\n  pop\n  jump\t// out\n    /* \"#utility.yul\":2414:2532   */\ntag_48:\n    /* \"#utility.yul\":2501:2525   */\n  tag_84\n    /* \"#utility.yul\":2519:2524   */\n  dup2\n    /* \"#utility.yul\":2501:2525   */\n  tag_41\n  jump\t// in\ntag_84:\n    /* \"#utility.yul\":2496:2499   */\n  dup3\n    /* \"#utility.yul\":2489:2526   */\n  mstore\n    /* \"#utility.yul\":2414:2532   */\n  pop\n  pop\n  jump\t// out\n    /* \"#utility.yul\":2538:2760   */\ntag_29:\n    /* \"#utility.yul\":2631:2635   */\n  0x00\n    /* \"#utility.yul\":2669:2671   */\n  0x20\n    /* \"#utility.yul\":2658:2667   */\n  dup3\n    /* \"#utility.yul\":2654:2672   */\n  add\n    /* \"#utility.yul\":2646:2672   */\n  swap1\n  pop\n    /* \"#utility.yul\":2682:2753   */\n  tag_86\n    /* \"#utility.yul\":2750:2751   */\n  0x00\n    /* \"#utility.yul\":2739:2748   */\n  dup4\n    /* \"#utility.yul\":2735:2752   */\n  add\n    /* \"#utility.yul\":2726:2732   */\n  dup5\n    /* \"#utility.yul\":2682:2753   */\n  tag_48\n  jump\t// in\ntag_86:\n    /* \"#utility.yul\":2538:2760   */\n  swap3\n  swap2\n  pop\n  pop\n  jump\t// out\n    /* \"#utility.yul\":2766:2935   */\ntag_49:\n    /* \"#utility.yul\":2850:2861   */\n  0x00\n    /* \"#utility.yul\":2884:2890   */\n  dup3\n    /* \"#utility.yul\":2879:2882   */\n  dup3\n    /* \"#utility.yul\":2872:2891   */\n  mstore\n    /* \"#utility.yul\":2924:2928   */\n  0x20\n    /* \"#utility.yul\":2919:2922   */\n  dup3\n    /* \"#utility.yul\":2915:2929   */\n  add\n    /* \"#utility.yul\":2900:2929   */\n  swap1\n  pop\n    /* \"#utility.yul\":2766:2935   */\n  swap3\n  swap2\n  pop\n  pop\n  jump\t// out\n    /* \"#utility.yul\":2941:3107   */\ntag_50:\n    /* \"#utility.yul\":3081:3099   */\n  0x5061757361626c653a2070617573656400000000000000000000000000000000\n    /* \"#utility.yul\":3077:3078   */\n  0x00\n    /* \"#utility.yul\":3069:3075   */\n  dup3\n    /* \"#utility.yul\":3065:3079   */\n  add\n    /* \"#utility.yul\":3058:3100   */\n  mstore\n    /* \"#utility.yul\":2941:3107   */\n  pop\n  jump\t// out\n    /* \"#utility.yul\":3113:3479   */\ntag_51:\n    /* \"#utility.yul\":3255:3258   */\n  0x00\n    /* \"#utility.yul\":3276:3343   */\n  tag_90\n    /* \"#utility.yul\":3340:3342   */\n  0x10\n    /* \"#utility.yul\":3335:3338   */\n  dup4\n    /* \"#utility.yul\":3276:3343   */\n  tag_49\n  jump\t// in\ntag_90:\n    /* \"#utility.yul\":3269:3343   */\n  swap2\n  pop\n    /* \"#utility.yul\":3352:3445   */\n  tag_91\n    /* \"#utility.yul\":3441:3444   */\n  dup3\n    /* \"#utility.yul\":3352:3445   */\n  tag_50\n  jump\t// in\ntag_91:\n    /* \"#utility.yul\":3470:3472   */\n  0x20\n    /* \"#utility.yul\":3465:3468   */\n  dup3\n    /* \"#utility.yul\":3461:3473   */\n  add\n    /* \"#utility.yul\":3454:3473   */\n  swap1\n  pop\n    /* \"#utility.yul\":3113:3479   */\n  swap2\n  swap1\n  pop\n  jump\t// out\n    /* \"#utility.yul\":3485:3904   */\ntag_35:\n    /* \"#utility.yul\":3651:3655   */\n  0x00\n    /* \"#utility.yul\":3689:3691   */\n  0x20\n    /* \"#utility.yul\":3678:3687   */\n  dup3\n    /* \"#utility.yul\":3674:3692   */\n  add\n    /* \"#utility.yul\":3666:3692   */\n  swap1\n  pop\n    /* \"#utility.yul\":3738:3747   */\n  dup2\n    /* \"#utility.yul\":3732:3736   */\n  dup2\n    /* \"#utility.yul\":3728:3748   */\n  sub\n    /* \"#utility.yul\":3724:3725   */\n  0x00\n    /* \"#utility.yul\":3713:3722   */\n  dup4\n    /* \"#utility.yul\":3709:3726   */\n  add\n    /* \"#utility.yul\":3702:3749   */\n  mstore\n    /* \"#utility.yul\":3766:3897   */\n  tag_93\n    /* \"#utility.yul\":3892:3896   */\n  dup2\n    /* \"#utility.yul\":3766:3897   */\n  tag_51\n  jump\t// in\ntag_93:\n    /* \"#utility.yul\":3758:3897   */\n  swap1\n  pop\n    /* \"#utility.yul\":3485:3904   */\n  swap2\n  swap1\n  pop\n  jump\t// out\n    /* \"contracts/FrenStaking.sol\":665:5452  contract FrenStaking is Ownable, IERC721Receiver, ReentrancyGuard, Pausable {... */\ntag_20:\n  dataSize(sub_0)\n  dup1\n  dataOffset(sub_0)\n  0x00\n  codecopy\n  0x00\n  return\nstop\n\nsub_0: assembly {\n        /* \"contracts/FrenStaking.sol\":665:5452  contract FrenStaking is Ownable, IERC721Receiver, ReentrancyGuard, Pausable {... */\n      mstore(0x40, 0x80)\n      callvalue\n      dup1\n      iszero\n      tag_1\n      jumpi\n      0x00\n      dup1\n      revert\n    tag_1:\n      pop\n      jumpi(tag_2, lt(calldatasize, 0x04))\n      shr(0xe0, calldataload(0x00))\n      dup1\n      0x5eac6239\n      gt\n      tag_27\n      jumpi\n      dup1\n      0x983d95ce\n      gt\n      tag_28\n      jumpi\n      dup1\n      0x983d95ce\n      eq\n      tag_21\n      jumpi\n      dup1\n      0xb343ae14\n      eq\n      tag_22\n      jumpi\n      dup1\n      0xca1c2019\n      eq\n      tag_23\n      jumpi\n      dup1\n      0xdeec7eff\n      eq\n      tag_24\n      jumpi\n      dup1\n      0xe3a9db1a\n      eq\n      tag_25\n      jumpi\n      dup1\n      0xf2fde38b\n      eq\n      tag_26\n      jumpi\n      jump(tag_2)\n    tag_28:\n      dup1\n      0x5eac6239\n      eq\n      tag_15\n      jumpi\n      dup1\n      0x715018a6\n      eq\n      tag_16\n      jumpi\n      dup1\n      0x74478bb3\n      eq\n      tag_17\n      jumpi\n      dup1\n      0x8456cb59\n      eq\n      tag_18\n      jumpi\n      dup1\n      0x8d8f2adb\n      eq\n      tag_19\n      jumpi\n      dup1\n      0x8da5cb5b\n      eq\n      tag_20\n      jumpi\n      jump(tag_2)\n    tag_27:\n      dup1\n      0x34fcf437\n      gt\n      tag_29\n      jumpi\n      dup1\n      0x34fcf437\n      eq\n      tag_9\n      jumpi\n      dup1\n      0x3f4ba83a\n      eq\n      tag_10\n      jumpi\n      dup1\n      0x4665096d\n      eq\n      tag_11\n      jumpi\n      dup1\n      0x515a20ba\n      eq\n      tag_12\n      jumpi\n      dup1\n      0x598b8e71\n      eq\n      tag_13\n      jumpi\n      dup1\n      0x5c975abb\n      eq\n      tag_14\n      jumpi\n      jump(tag_2)\n    tag_29:\n      dup1\n      0x0222a2c4\n      eq\n      tag_3\n      jumpi\n      dup1\n      0x068c526f\n      eq\n      tag_4\n      jumpi\n      dup1\n      0x150b7a02\n      eq\n      tag_5\n      jumpi\n      dup1\n      0x1852e8d9\n      eq\n      tag_6\n      jumpi\n      dup1\n      0x276184ae\n      eq\n      tag_7\n      jumpi\n      dup1\n      0x2c4e722e\n      eq\n      tag_8\n      jumpi\n    tag_2:\n      0x00\n      dup1\n      revert\n        /* \"contracts/FrenStaking.sol\":891:931  address public stakingDestinationAddress */\n    tag_3:\n      tag_30\n      tag_31\n      jump\t// in\n    tag_30:\n      mload(0x40)\n      tag_32\n      swap2\n      swap1\n      tag_33\n      jump\t// in\n    tag_32:\n      mload(0x40)\n      dup1\n      swap2\n      sub\n      swap1\n      return\n        /* \"contracts/FrenStaking.sol\":2687:3146  function calculateRewards(address account, uint256[] memory tokenIds) public view returns (uint256[] memory rewards) {... */\n    tag_4:\n      tag_34\n      0x04\n      dup1\n      calldatasize\n      sub\n      dup2\n      add\n      swap1\n      tag_35\n      swap2\n      swap1\n      tag_36\n      jump\t// in\n    tag_35:\n      tag_37\n      jump\t// in\n    tag_34:\n      mload(0x40)\n      tag_38\n      swap2\n      swap1\n      tag_39\n      jump\t// in\n    tag_38:\n      mload(0x40)\n      dup1\n      swap2\n      sub\n      swap1\n      return\n        /* \"contracts/FrenStaking.sol\":5274:5445  function onERC721Received(address,address,uint256,bytes calldata) external pure override returns (bytes4) {... */\n    tag_5:\n      tag_40\n      0x04\n      dup1\n      calldatasize\n      sub\n      dup2\n      add\n      swap1\n      tag_41\n      swap2\n      swap1\n      tag_42\n      jump\t// in\n    tag_41:\n      tag_43\n      jump\t// in\n    tag_40:\n      mload(0x40)\n      tag_44\n      swap2\n      swap1\n      tag_45\n      jump\t// in\n    tag_44:\n      mload(0x40)\n      dup1\n      swap2\n      sub\n      swap1\n      return\n        /* \"contracts/FrenStaking.sol\":3152:3498  function calculateReward(address account, uint256 tokenId) public view returns (uint256) {... */\n    tag_6:\n      tag_46\n      0x04\n      dup1\n      calldatasize\n      sub\n      dup2\n      add\n      swap1\n      tag_47\n      swap2\n      swap1\n      tag_48\n      jump\t// in\n    tag_47:\n      tag_49\n      jump\t// in\n    tag_46:\n      mload(0x40)\n      tag_50\n      swap2\n      swap1\n      tag_51\n      jump\t// in\n    tag_50:\n      mload(0x40)\n      dup1\n      swap2\n      sub\n      swap1\n      return\n        /* \"contracts/FrenStaking.sol\":937:964  address public erc20Address */\n    tag_7:\n      tag_52\n      tag_53\n      jump\t// in\n    tag_52:\n      mload(0x40)\n      tag_54\n      swap2\n      swap1\n      tag_33\n      jump\t// in\n    tag_54:\n      mload(0x40)\n      dup1\n      swap2\n      sub\n      swap1\n      return\n        /* \"contracts/FrenStaking.sol\":1055:1074  uint256 public rate */\n    tag_8:\n      tag_55\n      tag_56\n      jump\t// in\n    tag_55:\n      mload(0x40)\n      tag_57\n      swap2\n      swap1\n      tag_51\n      jump\t// in\n    tag_57:\n      mload(0x40)\n      dup1\n      swap2\n      sub\n      swap1\n      return\n        /* \"contracts/FrenStaking.sol\":1993:2071  function setRate(uint256 _rate) public onlyOwner() {... */\n    tag_9:\n      tag_58\n      0x04\n      dup1\n      calldatasize\n      sub\n      dup2\n      add\n      swap1\n      tag_59\n      swap2\n      swap1\n      tag_60\n      jump\t// in\n    tag_59:\n      tag_61\n      jump\t// in\n    tag_58:\n      stop\n        /* \"contracts/FrenStaking.sol\":1735:1798  function unpause() public onlyOwner {... */\n    tag_10:\n      tag_62\n      tag_63\n      jump\t// in\n    tag_62:\n      stop\n        /* \"contracts/FrenStaking.sol\":971:996  uint256 public expiration */\n    tag_11:\n      tag_64\n      tag_65\n      jump\t// in\n    tag_64:\n      mload(0x40)\n      tag_66\n      swap2\n      swap1\n      tag_51\n      jump\t// in\n    tag_66:\n      mload(0x40)\n      dup1\n      swap2\n      sub\n      swap1\n      return\n        /* \"contracts/FrenStaking.sol\":2179:2296  function setExpiration(uint256 _expiration) public onlyOwner() {... */\n    tag_12:\n      tag_67\n      0x04\n      dup1\n      calldatasize\n      sub\n      dup2\n      add\n      swap1\n      tag_68\n      swap2\n      swap1\n      tag_60\n      jump\t// in\n    tag_68:\n      tag_69\n      jump\t// in\n    tag_67:\n      stop\n        /* \"contracts/FrenStaking.sol\":4007:4467  function deposit(uint256[] calldata tokenIds) external whenNotPaused {... */\n    tag_13:\n      tag_70\n      0x04\n      dup1\n      calldatasize\n      sub\n      dup2\n      add\n      swap1\n      tag_71\n      swap2\n      swap1\n      tag_72\n      jump\t// in\n    tag_71:\n      tag_73\n      jump\t// in\n    tag_70:\n      stop\n        /* \"@openzeppelin/contracts/security/Pausable.sol\":1615:1699  function paused() public view virtual returns (bool) {... */\n    tag_14:\n      tag_74\n      tag_75\n      jump\t// in\n    tag_74:\n      mload(0x40)\n      tag_76\n      swap2\n      swap1\n      tag_77\n      jump\t// in\n    tag_76:\n      mload(0x40)\n      dup1\n      swap2\n      sub\n      swap1\n      return\n        /* \"contracts/FrenStaking.sol\":3504:4001  function claimRewards(uint256[] calldata tokenIds) public whenNotPaused {... */\n    tag_15:\n      tag_78\n      0x04\n      dup1\n      calldatasize\n      sub\n      dup2\n      add\n      swap1\n      tag_79\n      swap2\n      swap1\n      tag_72\n      jump\t// in\n    tag_79:\n      tag_80\n      jump\t// in\n    tag_78:\n      stop\n        /* \"@openzeppelin/contracts/access/Ownable.sol\":1831:1932  function renounceOwnership() public virtual onlyOwner {... */\n    tag_16:\n      tag_81\n      tag_82\n      jump\t// in\n    tag_81:\n      stop\n        /* \"contracts/FrenStaking.sol\":1082:1105  bool public isClaimable */\n    tag_17:\n      tag_83\n      tag_84\n      jump\t// in\n    tag_83:\n      mload(0x40)\n      tag_85\n      swap2\n      swap1\n      tag_77\n      jump\t// in\n    tag_85:\n      mload(0x40)\n      dup1\n      swap2\n      sub\n      swap1\n      return\n        /* \"contracts/FrenStaking.sol\":1670:1729  function pause() public onlyOwner {... */\n    tag_18:\n      tag_86\n      tag_87\n      jump\t// in\n    tag_86:\n      stop\n        /* \"contracts/FrenStaking.sol\":4980:5173  function withdrawTokens() external onlyOwner {... */\n    tag_19:\n      tag_88\n      tag_89\n      jump\t// in\n    tag_88:\n      stop\n        /* \"@openzeppelin/contracts/access/Ownable.sol\":1201:1286  function owner() public view virtual returns (address) {... */\n    tag_20:\n      tag_90\n      tag_91\n      jump\t// in\n    tag_90:\n      mload(0x40)\n      tag_92\n      swap2\n      swap1\n      tag_33\n      jump\t// in\n    tag_92:\n      mload(0x40)\n      dup1\n      swap2\n      sub\n      swap1\n      return\n        /* \"contracts/FrenStaking.sol\":4473:4974  function withdraw(uint256[] calldata tokenIds) external whenNotPaused nonReentrant() {... */\n    tag_21:\n      tag_93\n      0x04\n      dup1\n      calldatasize\n      sub\n      dup2\n      add\n      swap1\n      tag_94\n      swap2\n      swap1\n      tag_72\n      jump\t// in\n    tag_94:\n      tag_95\n      jump\t// in\n    tag_93:\n      stop\n        /* \"contracts/FrenStaking.sol\":1196:1265  mapping(address => mapping(uint256 => uint256)) public _depositBlocks */\n    tag_22:\n      tag_96\n      0x04\n      dup1\n      calldatasize\n      sub\n      dup2\n      add\n      swap1\n      tag_97\n      swap2\n      swap1\n      tag_48\n      jump\t// in\n    tag_97:\n      tag_98\n      jump\t// in\n    tag_96:\n      mload(0x40)\n      tag_99\n      swap2\n      swap1\n      tag_51\n      jump\t// in\n    tag_99:\n      mload(0x40)\n      dup1\n      swap2\n      sub\n      swap1\n      return\n        /* \"contracts/FrenStaking.sol\":5179:5268  function flipIsClaimable() external onlyOwner {... */\n    tag_23:\n      tag_100\n      tag_101\n      jump\t// in\n    tag_100:\n      stop\n        /* \"contracts/FrenStaking.sol\":1271:1323  mapping(address => uint256) public accumulatedTokens */\n    tag_24:\n      tag_102\n      0x04\n      dup1\n      calldatasize\n      sub\n      dup2\n      add\n      swap1\n      tag_103\n      swap2\n      swap1\n      tag_104\n      jump\t// in\n    tag_103:\n      tag_105\n      jump\t// in\n    tag_102:\n      mload(0x40)\n      tag_106\n      swap2\n      swap1\n      tag_51\n      jump\t// in\n    tag_106:\n      mload(0x40)\n      dup1\n      swap2\n      sub\n      swap1\n      return\n        /* \"contracts/FrenStaking.sol\":2329:2681  function depositsOf(address account) external view returns (uint256[] memory) {... */\n    tag_25:\n      tag_107\n      0x04\n      dup1\n      calldatasize\n      sub\n      dup2\n      add\n      swap1\n      tag_108\n      swap2\n      swap1\n      tag_104\n      jump\t// in\n    tag_108:\n      tag_109\n      jump\t// in\n    tag_107:\n      mload(0x40)\n      tag_110\n      swap2\n      swap1\n      tag_39\n      jump\t// in\n    tag_110:\n      mload(0x40)\n      dup1\n      swap2\n      sub\n      swap1\n      return\n        /* \"@openzeppelin/contracts/access/Ownable.sol\":2081:2279  function transferOwnership(address newOwner) public virtual onlyOwner {... */\n    tag_26:\n      tag_111\n      0x04\n      dup1\n      calldatasize\n      sub\n      dup2\n      add\n      swap1\n      tag_112\n      swap2\n      swap1\n      tag_104\n      jump\t// in\n    tag_112:\n      tag_113\n      jump\t// in\n    tag_111:\n      stop\n        /* \"contracts/FrenStaking.sol\":891:931  address public stakingDestinationAddress */\n    tag_31:\n      0x03\n      0x00\n      swap1\n      sload\n      swap1\n      0x0100\n      exp\n      swap1\n      div\n      0xffffffffffffffffffffffffffffffffffffffff\n      and\n      dup2\n      jump\t// out\n        /* \"contracts/FrenStaking.sol\":2687:3146  function calculateRewards(address account, uint256[] memory tokenIds) public view returns (uint256[] memory rewards) {... */\n    tag_37:\n        /* \"contracts/FrenStaking.sol\":2778:2802  uint256[] memory rewards */\n      0x60\n        /* \"contracts/FrenStaking.sol\":2838:2846  tokenIds */\n      dup2\n        /* \"contracts/FrenStaking.sol\":2838:2853  tokenIds.length */\n      mload\n        /* \"contracts/FrenStaking.sol\":2824:2854  new uint256[](tokenIds.length) */\n      0xffffffffffffffff\n      dup2\n      gt\n      iszero\n      tag_115\n      jumpi\n      tag_116\n      tag_117\n      jump\t// in\n    tag_116:\n    tag_115:\n      mload(0x40)\n      swap1\n      dup1\n      dup3\n      mstore\n      dup1\n      0x20\n      mul\n      0x20\n      add\n      dup3\n      add\n      0x40\n      mstore\n      dup1\n      iszero\n      tag_118\n      jumpi\n      dup2\n      0x20\n      add\n      0x20\n      dup3\n      mul\n      dup1\n      calldatasize\n      dup4\n      calldatacopy\n      dup1\n      dup3\n      add\n      swap2\n      pop\n      pop\n      swap1\n      pop\n    tag_118:\n      pop\n        /* \"contracts/FrenStaking.sol\":2814:2854  rewards = new uint256[](tokenIds.length) */\n      swap1\n      pop\n        /* \"contracts/FrenStaking.sol\":2870:2879  uint256 i */\n      0x00\n        /* \"contracts/FrenStaking.sol\":2865:3115  for (uint256 i; i < tokenIds.length; i++) {... */\n    tag_119:\n        /* \"contracts/FrenStaking.sol\":2885:2893  tokenIds */\n      dup3\n        /* \"contracts/FrenStaking.sol\":2885:2900  tokenIds.length */\n      mload\n        /* \"contracts/FrenStaking.sol\":2881:2882  i */\n      dup2\n        /* \"contracts/FrenStaking.sol\":2881:2900  i < tokenIds.length */\n      lt\n        /* \"contracts/FrenStaking.sol\":2865:3115  for (uint256 i; i < tokenIds.length; i++) {... */\n      iszero\n      tag_120\n      jumpi\n        /* \"contracts/FrenStaking.sol\":2921:2936  uint256 tokenId */\n      0x00\n        /* \"contracts/FrenStaking.sol\":2939:2947  tokenIds */\n      dup4\n        /* \"contracts/FrenStaking.sol\":2948:2949  i */\n      dup3\n        /* \"contracts/FrenStaking.sol\":2939:2950  tokenIds[i] */\n      dup2\n      mload\n      dup2\n      lt\n      tag_122\n      jumpi\n      tag_123\n      tag_124\n      jump\t// in\n    tag_123:\n    tag_122:\n      0x20\n      mul\n      0x20\n      add\n      add\n      mload\n        /* \"contracts/FrenStaking.sol\":2921:2950  uint256 tokenId = tokenIds[i] */\n      swap1\n      pop\n        /* \"contracts/FrenStaking.sol\":3071:3085  _depositBlocks */\n      0x09\n        /* \"contracts/FrenStaking.sol\":3071:3094  _depositBlocks[account] */\n      0x00\n        /* \"contracts/FrenStaking.sol\":3086:3093  account */\n      dup7\n        /* \"contracts/FrenStaking.sol\":3071:3094  _depositBlocks[account] */\n      0xffffffffffffffffffffffffffffffffffffffff\n      and\n      0xffffffffffffffffffffffffffffffffffffffff\n      and\n      dup2\n      mstore\n      0x20\n      add\n      swap1\n      dup2\n      mstore\n      0x20\n      add\n      0x00\n      keccak256\n        /* \"contracts/FrenStaking.sol\":3071:3103  _depositBlocks[account][tokenId] */\n      0x00\n        /* \"contracts/FrenStaking.sol\":3095:3102  tokenId */\n      dup3\n        /* \"contracts/FrenStaking.sol\":3071:3103  _depositBlocks[account][tokenId] */\n      dup2\n      mstore\n      0x20\n      add\n      swap1\n      dup2\n      mstore\n      0x20\n      add\n      0x00\n      keccak256\n      sload\n        /* \"contracts/FrenStaking.sol\":3034:3068  Math.min(block.number, expiration) */\n      tag_125\n        /* \"contracts/FrenStaking.sol\":3043:3055  block.number */\n      number\n        /* \"contracts/FrenStaking.sol\":3057:3067  expiration */\n      sload(0x05)\n        /* \"contracts/FrenStaking.sol\":3034:3042  Math.min */\n      tag_126\n        /* \"contracts/FrenStaking.sol\":3034:3068  Math.min(block.number, expiration) */\n      jump\t// in\n    tag_125:\n        /* \"contracts/FrenStaking.sol\":3034:3103  Math.min(block.number, expiration) - _depositBlocks[account][tokenId] */\n      tag_127\n      swap2\n      swap1\n      tag_128\n      jump\t// in\n    tag_127:\n        /* \"contracts/FrenStaking.sol\":2985:3021  _deposits[account].contains(tokenId) */\n      tag_129\n        /* \"contracts/FrenStaking.sol\":3013:3020  tokenId */\n      dup3\n        /* \"contracts/FrenStaking.sol\":2985:2994  _deposits */\n      0x08\n        /* \"contracts/FrenStaking.sol\":2985:3003  _deposits[account] */\n      0x00\n        /* \"contracts/FrenStaking.sol\":2995:3002  account */\n      dup10\n        /* \"contracts/FrenStaking.sol\":2985:3003  _deposits[account] */\n      0xffffffffffffffffffffffffffffffffffffffff\n      and\n      0xffffffffffffffffffffffffffffffffffffffff\n      and\n      dup2\n      mstore\n      0x20\n      add\n      swap1\n      dup2\n      mstore\n      0x20\n      add\n      0x00\n      keccak256\n        /* \"contracts/FrenStaking.sol\":2985:3012  _deposits[account].contains */\n      tag_130\n      swap1\n        /* \"contracts/FrenStaking.sol\":2985:3021  _deposits[account].contains(tokenId) */\n      swap2\n      swap1\n      0xffffffff\n      and\n      jump\t// in\n    tag_129:\n        /* \"contracts/FrenStaking.sol\":2985:3029  _deposits[account].contains(tokenId) ? 1 : 0 */\n      tag_131\n      jumpi\n        /* \"contracts/FrenStaking.sol\":3028:3029  0 */\n      0x00\n        /* \"contracts/FrenStaking.sol\":2985:3029  _deposits[account].contains(tokenId) ? 1 : 0 */\n      jump(tag_132)\n    tag_131:\n        /* \"contracts/FrenStaking.sol\":3024:3025  1 */\n      0x01\n        /* \"contracts/FrenStaking.sol\":2985:3029  _deposits[account].contains(tokenId) ? 1 : 0 */\n    tag_132:\n        /* \"contracts/FrenStaking.sol\":2977:3030  rate * (_deposits[account].contains(tokenId) ? 1 : 0) */\n      0xff\n      and\n        /* \"contracts/FrenStaking.sol\":2977:2981  rate */\n      sload(0x06)\n        /* \"contracts/FrenStaking.sol\":2977:3030  rate * (_deposits[account].contains(tokenId) ? 1 : 0) */\n      tag_133\n      swap2\n      swap1\n      tag_134\n      jump\t// in\n    tag_133:\n        /* \"contracts/FrenStaking.sol\":2977:3104  rate * (_deposits[account].contains(tokenId) ? 1 : 0) * (Math.min(block.number, expiration) - _depositBlocks[account][tokenId]) */\n      tag_135\n      swap2\n      swap1\n      tag_134\n      jump\t// in\n    tag_135:\n        /* \"contracts/FrenStaking.sol\":2964:2971  rewards */\n      dup4\n        /* \"contracts/FrenStaking.sol\":2972:2973  i */\n      dup4\n        /* \"contracts/FrenStaking.sol\":2964:2974  rewards[i] */\n      dup2\n      mload\n      dup2\n      lt\n      tag_136\n      jumpi\n      tag_137\n      tag_124\n      jump\t// in\n    tag_137:\n    tag_136:\n      0x20\n      mul\n      0x20\n      add\n      add\n        /* \"contracts/FrenStaking.sol\":2964:3104  rewards[i] = rate * (_deposits[account].contains(tokenId) ? 1 : 0) * (Math.min(block.number, expiration) - _depositBlocks[account][tokenId]) */\n      dup2\n      dup2\n      mstore\n      pop\n      pop\n        /* \"contracts/FrenStaking.sol\":2907:3115  {... */\n      pop\n        /* \"contracts/FrenStaking.sol\":2902:2905  i++ */\n      dup1\n      dup1\n      tag_138\n      swap1\n      tag_139\n      jump\t// in\n    tag_138:\n      swap2\n      pop\n      pop\n        /* \"contracts/FrenStaking.sol\":2865:3115  for (uint256 i; i < tokenIds.length; i++) {... */\n      jump(tag_119)\n    tag_120:\n      pop\n        /* \"contracts/FrenStaking.sol\":2687:3146  function calculateRewards(address account, uint256[] memory tokenIds) public view returns (uint256[] memory rewards) {... */\n      swap3\n      swap2\n      pop\n      pop\n      jump\t// out\n        /* \"contracts/FrenStaking.sol\":5274:5445  function onERC721Received(address,address,uint256,bytes calldata) external pure override returns (bytes4) {... */\n    tag_43:\n        /* \"contracts/FrenStaking.sol\":5372:5378  bytes4 */\n      0x00\n        /* \"contracts/FrenStaking.sol\":5397:5438  IERC721Receiver.onERC721Received.selector */\n      shl(0xe0, 0x150b7a02)\n        /* \"contracts/FrenStaking.sol\":5390:5438  return IERC721Receiver.onERC721Received.selector */\n      swap1\n      pop\n        /* \"contracts/FrenStaking.sol\":5274:5445  function onERC721Received(address,address,uint256,bytes calldata) external pure override returns (bytes4) {... */\n      swap6\n      swap5\n      pop\n      pop\n      pop\n      pop\n      pop\n      jump\t// out\n        /* \"contracts/FrenStaking.sol\":3152:3498  function calculateReward(address account, uint256 tokenId) public view returns (uint256) {... */\n    tag_49:\n        /* \"contracts/FrenStaking.sol\":3232:3239  uint256 */\n      0x00\n        /* \"contracts/FrenStaking.sol\":3296:3310  _depositBlocks */\n      0x09\n        /* \"contracts/FrenStaking.sol\":3296:3319  _depositBlocks[account] */\n      0x00\n        /* \"contracts/FrenStaking.sol\":3311:3318  account */\n      dup5\n        /* \"contracts/FrenStaking.sol\":3296:3319  _depositBlocks[account] */\n      0xffffffffffffffffffffffffffffffffffffffff\n      and\n      0xffffffffffffffffffffffffffffffffffffffff\n      and\n      dup2\n      mstore\n      0x20\n      add\n      swap1\n      dup2\n      mstore\n      0x20\n      add\n      0x00\n      keccak256\n        /* \"contracts/FrenStaking.sol\":3296:3328  _depositBlocks[account][tokenId] */\n      0x00\n        /* \"contracts/FrenStaking.sol\":3320:3327  tokenId */\n      dup4\n        /* \"contracts/FrenStaking.sol\":3296:3328  _depositBlocks[account][tokenId] */\n      dup2\n      mstore\n      0x20\n      add\n      swap1\n      dup2\n      mstore\n      0x20\n      add\n      0x00\n      keccak256\n      sload\n        /* \"contracts/FrenStaking.sol\":3259:3293  Math.min(block.number, expiration) */\n      tag_142\n        /* \"contracts/FrenStaking.sol\":3268:3280  block.number */\n      number\n        /* \"contracts/FrenStaking.sol\":3282:3292  expiration */\n      sload(0x05)\n        /* \"contracts/FrenStaking.sol\":3259:3267  Math.min */\n      tag_126\n        /* \"contracts/FrenStaking.sol\":3259:3293  Math.min(block.number, expiration) */\n      jump\t// in\n    tag_142:\n        /* \"contracts/FrenStaking.sol\":3259:3328  Math.min(block.number, expiration) > _depositBlocks[account][tokenId] */\n      gt\n        /* \"contracts/FrenStaking.sol\":3251:3347  require(Math.min(block.number, expiration) > _depositBlocks[account][tokenId], \"Invalid blocks\") */\n      tag_143\n      jumpi\n      mload(0x40)\n      0x08c379a000000000000000000000000000000000000000000000000000000000\n      dup2\n      mstore\n      0x04\n      add\n      tag_144\n      swap1\n      tag_145\n      jump\t// in\n    tag_144:\n      mload(0x40)\n      dup1\n      swap2\n      sub\n      swap1\n      revert\n    tag_143:\n        /* \"contracts/FrenStaking.sol\":3458:3472  _depositBlocks */\n      0x09\n        /* \"contracts/FrenStaking.sol\":3458:3481  _depositBlocks[account] */\n      0x00\n        /* \"contracts/FrenStaking.sol\":3473:3480  account */\n      dup5\n        /* \"contracts/FrenStaking.sol\":3458:3481  _depositBlocks[account] */\n      0xffffffffffffffffffffffffffffffffffffffff\n      and\n      0xffffffffffffffffffffffffffffffffffffffff\n      and\n      dup2\n      mstore\n      0x20\n      add\n      swap1\n      dup2\n      mstore\n      0x20\n      add\n      0x00\n      keccak256\n        /* \"contracts/FrenStaking.sol\":3458:3490  _depositBlocks[account][tokenId] */\n      0x00\n        /* \"contracts/FrenStaking.sol\":3482:3489  tokenId */\n      dup4\n        /* \"contracts/FrenStaking.sol\":3458:3490  _depositBlocks[account][tokenId] */\n      dup2\n      mstore\n      0x20\n      add\n      swap1\n      dup2\n      mstore\n      0x20\n      add\n      0x00\n      keccak256\n      sload\n        /* \"contracts/FrenStaking.sol\":3421:3455  Math.min(block.number, expiration) */\n      tag_146\n        /* \"contracts/FrenStaking.sol\":3430:3442  block.number */\n      number\n        /* \"contracts/FrenStaking.sol\":3444:3454  expiration */\n      sload(0x05)\n        /* \"contracts/FrenStaking.sol\":3421:3429  Math.min */\n      tag_126\n        /* \"contracts/FrenStaking.sol\":3421:3455  Math.min(block.number, expiration) */\n      jump\t// in\n    tag_146:\n        /* \"contracts/FrenStaking.sol\":3421:3490  Math.min(block.number, expiration) - _depositBlocks[account][tokenId] */\n      tag_147\n      swap2\n      swap1\n      tag_128\n      jump\t// in\n    tag_147:\n        /* \"contracts/FrenStaking.sol\":3372:3408  _deposits[account].contains(tokenId) */\n      tag_148\n        /* \"contracts/FrenStaking.sol\":3400:3407  tokenId */\n      dup4\n        /* \"contracts/FrenStaking.sol\":3372:3381  _deposits */\n      0x08\n        /* \"contracts/FrenStaking.sol\":3372:3390  _deposits[account] */\n      0x00\n        /* \"contracts/FrenStaking.sol\":3382:3389  account */\n      dup8\n        /* \"contracts/FrenStaking.sol\":3372:3390  _deposits[account] */\n      0xffffffffffffffffffffffffffffffffffffffff\n      and\n      0xffffffffffffffffffffffffffffffffffffffff\n      and\n      dup2\n      mstore\n      0x20\n      add\n      swap1\n      dup2\n      mstore\n      0x20\n      add\n      0x00\n      keccak256\n        /* \"contracts/FrenStaking.sol\":3372:3399  _deposits[account].contains */\n      tag_130\n      swap1\n        /* \"contracts/FrenStaking.sol\":3372:3408  _deposits[account].contains(tokenId) */\n      swap2\n      swap1\n      0xffffffff\n      and\n      jump\t// in\n    tag_148:\n        /* \"contracts/FrenStaking.sol\":3372:3416  _deposits[account].contains(tokenId) ? 1 : 0 */\n      tag_149\n      jumpi\n        /* \"contracts/FrenStaking.sol\":3415:3416  0 */\n      0x00\n        /* \"contracts/FrenStaking.sol\":3372:3416  _deposits[account].contains(tokenId) ? 1 : 0 */\n      jump(tag_150)\n    tag_149:\n        /* \"contracts/FrenStaking.sol\":3411:3412  1 */\n      0x01\n        /* \"contracts/FrenStaking.sol\":3372:3416  _deposits[account].contains(tokenId) ? 1 : 0 */\n    tag_150:\n        /* \"contracts/FrenStaking.sol\":3364:3417  rate * (_deposits[account].contains(tokenId) ? 1 : 0) */\n      0xff\n      and\n        /* \"contracts/FrenStaking.sol\":3364:3368  rate */\n      sload(0x06)\n        /* \"contracts/FrenStaking.sol\":3364:3417  rate * (_deposits[account].contains(tokenId) ? 1 : 0) */\n      tag_151\n      swap2\n      swap1\n      tag_134\n      jump\t// in\n    tag_151:\n        /* \"contracts/FrenStaking.sol\":3364:3491  rate * (_deposits[account].contains(tokenId) ? 1 : 0) * (Math.min(block.number, expiration) - _depositBlocks[account][tokenId]) */\n      tag_152\n      swap2\n      swap1\n      tag_134\n      jump\t// in\n    tag_152:\n        /* \"contracts/FrenStaking.sol\":3357:3491  return rate * (_deposits[account].contains(tokenId) ? 1 : 0) * (Math.min(block.number, expiration) - _depositBlocks[account][tokenId]) */\n      swap1\n      pop\n        /* \"contracts/FrenStaking.sol\":3152:3498  function calculateReward(address account, uint256 tokenId) public view returns (uint256) {... */\n      swap3\n      swap2\n      pop\n      pop\n      jump\t// out\n        /* \"contracts/FrenStaking.sol\":937:964  address public erc20Address */\n    tag_53:\n      0x04\n      0x00\n      swap1\n      sload\n      swap1\n      0x0100\n      exp\n      swap1\n      div\n      0xffffffffffffffffffffffffffffffffffffffff\n      and\n      dup2\n      jump\t// out\n        /* \"contracts/FrenStaking.sol\":1055:1074  uint256 public rate */\n    tag_56:\n      sload(0x06)\n      dup2\n      jump\t// out\n        /* \"contracts/FrenStaking.sol\":1993:2071  function setRate(uint256 _rate) public onlyOwner() {... */\n    tag_61:\n        /* \"@openzeppelin/contracts/access/Ownable.sol\":1094:1107  _checkOwner() */\n      tag_154\n        /* \"@openzeppelin/contracts/access/Ownable.sol\":1094:1105  _checkOwner */\n      tag_155\n        /* \"@openzeppelin/contracts/access/Ownable.sol\":1094:1107  _checkOwner() */\n      jump\t// in\n    tag_154:\n        /* \"contracts/FrenStaking.sol\":2059:2064  _rate */\n      dup1\n        /* \"contracts/FrenStaking.sol\":2052:2056  rate */\n      0x06\n        /* \"contracts/FrenStaking.sol\":2052:2064  rate = _rate */\n      dup2\n      swap1\n      sstore\n      pop\n        /* \"contracts/FrenStaking.sol\":1993:2071  function setRate(uint256 _rate) public onlyOwner() {... */\n      pop\n      jump\t// out\n        /* \"contracts/FrenStaking.sol\":1735:1798  function unpause() public onlyOwner {... */\n    tag_63:\n        /* \"@openzeppelin/contracts/access/Ownable.sol\":1094:1107  _checkOwner() */\n      tag_158\n        /* \"@openzeppelin/contracts/access/Ownable.sol\":1094:1105  _checkOwner */\n      tag_155\n        /* \"@openzeppelin/contracts/access/Ownable.sol\":1094:1107  _checkOwner() */\n      jump\t// in\n    tag_158:\n        /* \"contracts/FrenStaking.sol\":1781:1791  _unpause() */\n      tag_160\n        /* \"contracts/FrenStaking.sol\":1781:1789  _unpause */\n      tag_161\n        /* \"contracts/FrenStaking.sol\":1781:1791  _unpause() */\n      jump\t// in\n    tag_160:\n        /* \"contracts/FrenStaking.sol\":1735:1798  function unpause() public onlyOwner {... */\n      jump\t// out\n        /* \"contracts/FrenStaking.sol\":971:996  uint256 public expiration */\n    tag_65:\n      sload(0x05)\n      dup2\n      jump\t// out\n        /* \"contracts/FrenStaking.sol\":2179:2296  function setExpiration(uint256 _expiration) public onlyOwner() {... */\n    tag_69:\n        /* \"@openzeppelin/contracts/access/Ownable.sol\":1094:1107  _checkOwner() */\n      tag_163\n        /* \"@openzeppelin/contracts/access/Ownable.sol\":1094:1105  _checkOwner */\n      tag_155\n        /* \"@openzeppelin/contracts/access/Ownable.sol\":1094:1107  _checkOwner() */\n      jump\t// in\n    tag_163:\n        /* \"contracts/FrenStaking.sol\":2278:2289  _expiration */\n      dup1\n        /* \"contracts/FrenStaking.sol\":2263:2275  block.number */\n      number\n        /* \"contracts/FrenStaking.sol\":2263:2289  block.number + _expiration */\n      tag_165\n      swap2\n      swap1\n      tag_166\n      jump\t// in\n    tag_165:\n        /* \"contracts/FrenStaking.sol\":2250:2260  expiration */\n      0x05\n        /* \"contracts/FrenStaking.sol\":2250:2289  expiration = block.number + _expiration */\n      dup2\n      swap1\n      sstore\n      pop\n        /* \"contracts/FrenStaking.sol\":2179:2296  function setExpiration(uint256 _expiration) public onlyOwner() {... */\n      pop\n      jump\t// out\n        /* \"contracts/FrenStaking.sol\":4007:4467  function deposit(uint256[] calldata tokenIds) external whenNotPaused {... */\n    tag_73:\n        /* \"@openzeppelin/contracts/security/Pausable.sol\":1239:1258  _requireNotPaused() */\n      tag_168\n        /* \"@openzeppelin/contracts/security/Pausable.sol\":1239:1256  _requireNotPaused */\n      tag_169\n        /* \"@openzeppelin/contracts/security/Pausable.sol\":1239:1258  _requireNotPaused() */\n      jump\t// in\n    tag_168:\n        /* \"contracts/FrenStaking.sol\":4108:4133  stakingDestinationAddress */\n      0x03\n      0x00\n      swap1\n      sload\n      swap1\n      0x0100\n      exp\n      swap1\n      div\n      0xffffffffffffffffffffffffffffffffffffffff\n      and\n        /* \"contracts/FrenStaking.sol\":4094:4133  msg.sender != stakingDestinationAddress */\n      0xffffffffffffffffffffffffffffffffffffffff\n      and\n        /* \"contracts/FrenStaking.sol\":4094:4104  msg.sender */\n      caller\n        /* \"contracts/FrenStaking.sol\":4094:4133  msg.sender != stakingDestinationAddress */\n      0xffffffffffffffffffffffffffffffffffffffff\n      and\n      sub\n        /* \"contracts/FrenStaking.sol\":4086:4153  require(msg.sender != stakingDestinationAddress, \"Invalid address\") */\n      tag_171\n      jumpi\n      mload(0x40)\n      0x08c379a000000000000000000000000000000000000000000000000000000000\n      dup2\n      mstore\n      0x04\n      add\n      tag_172\n      swap1\n      tag_173\n      jump\t// in\n    tag_172:\n      mload(0x40)\n      dup1\n      swap2\n      sub\n      swap1\n      revert\n    tag_171:\n        /* \"contracts/FrenStaking.sol\":4168:4177  uint256 i */\n      0x00\n        /* \"contracts/FrenStaking.sol\":4163:4461  for (uint256 i; i < tokenIds.length; i++) {... */\n    tag_174:\n        /* \"contracts/FrenStaking.sol\":4183:4191  tokenIds */\n      dup3\n      dup3\n        /* \"contracts/FrenStaking.sol\":4183:4198  tokenIds.length */\n      swap1\n      pop\n        /* \"contracts/FrenStaking.sol\":4179:4180  i */\n      dup2\n        /* \"contracts/FrenStaking.sol\":4179:4198  i < tokenIds.length */\n      lt\n        /* \"contracts/FrenStaking.sol\":4163:4461  for (uint256 i; i < tokenIds.length; i++) {... */\n      iszero\n      tag_175\n      jumpi\n        /* \"contracts/FrenStaking.sol\":4252:4292  calculateReward(msg.sender, tokenIds[i]) */\n      tag_177\n        /* \"contracts/FrenStaking.sol\":4268:4278  msg.sender */\n      caller\n        /* \"contracts/FrenStaking.sol\":4280:4288  tokenIds */\n      dup5\n      dup5\n        /* \"contracts/FrenStaking.sol\":4289:4290  i */\n      dup5\n        /* \"contracts/FrenStaking.sol\":4280:4291  tokenIds[i] */\n      dup2\n      dup2\n      lt\n      tag_178\n      jumpi\n      tag_179\n      tag_124\n      jump\t// in\n    tag_179:\n    tag_178:\n      swap1\n      pop\n      0x20\n      mul\n      add\n      calldataload\n        /* \"contracts/FrenStaking.sol\":4252:4267  calculateReward */\n      tag_49\n        /* \"contracts/FrenStaking.sol\":4252:4292  calculateReward(msg.sender, tokenIds[i]) */\n      jump\t// in\n    tag_177:\n        /* \"contracts/FrenStaking.sol\":4219:4236  accumulatedTokens */\n      0x0a\n        /* \"contracts/FrenStaking.sol\":4219:4248  accumulatedTokens[msg.sender] */\n      0x00\n        /* \"contracts/FrenStaking.sol\":4237:4247  msg.sender */\n      caller\n        /* \"contracts/FrenStaking.sol\":4219:4248  accumulatedTokens[msg.sender] */\n      0xffffffffffffffffffffffffffffffffffffffff\n      and\n      0xffffffffffffffffffffffffffffffffffffffff\n      and\n      dup2\n      mstore\n      0x20\n      add\n      swap1\n      dup2\n      mstore\n      0x20\n      add\n      0x00\n      keccak256\n      0x00\n        /* \"contracts/FrenStaking.sol\":4219:4292  accumulatedTokens[msg.sender] += calculateReward(msg.sender, tokenIds[i]) */\n      dup3\n      dup3\n      sload\n      tag_180\n      swap2\n      swap1\n      tag_166\n      jump\t// in\n    tag_180:\n      swap3\n      pop\n      pop\n      dup2\n      swap1\n      sstore\n      pop\n        /* \"contracts/FrenStaking.sol\":4314:4339  stakingDestinationAddress */\n      0x03\n      0x00\n      swap1\n      sload\n      swap1\n      0x0100\n      exp\n      swap1\n      div\n      0xffffffffffffffffffffffffffffffffffffffff\n      and\n        /* \"contracts/FrenStaking.sol\":4306:4357  IERC721(stakingDestinationAddress).safeTransferFrom */\n      0xffffffffffffffffffffffffffffffffffffffff\n      and\n      0xb88d4fde\n        /* \"contracts/FrenStaking.sol\":4358:4368  msg.sender */\n      caller\n        /* \"contracts/FrenStaking.sol\":4377:4381  this */\n      address\n        /* \"contracts/FrenStaking.sol\":4383:4391  tokenIds */\n      dup7\n      dup7\n        /* \"contracts/FrenStaking.sol\":4392:4393  i */\n      dup7\n        /* \"contracts/FrenStaking.sol\":4383:4394  tokenIds[i] */\n      dup2\n      dup2\n      lt\n      tag_181\n      jumpi\n      tag_182\n      tag_124\n      jump\t// in\n    tag_182:\n    tag_181:\n      swap1\n      pop\n      0x20\n      mul\n      add\n      calldataload\n        /* \"contracts/FrenStaking.sol\":4306:4398  IERC721(stakingDestinationAddress).safeTransferFrom(msg.sender,address(this),tokenIds[i],\"\") */\n      mload(0x40)\n      dup5\n      0xffffffff\n      and\n      0xe0\n      shl\n      dup2\n      mstore\n      0x04\n      add\n      tag_183\n      swap4\n      swap3\n      swap2\n      swap1\n      tag_184\n      jump\t// in\n    tag_183:\n      0x00\n      mload(0x40)\n      dup1\n      dup4\n      sub\n      dup2\n      0x00\n      dup8\n      dup1\n      extcodesize\n      iszero\n      dup1\n      iszero\n      tag_185\n      jumpi\n      0x00\n      dup1\n      revert\n    tag_185:\n      pop\n      gas\n      call\n      iszero\n      dup1\n      iszero\n      tag_187\n      jumpi\n      returndatasize\n      0x00\n      dup1\n      returndatacopy\n      revert(0x00, returndatasize)\n    tag_187:\n      pop\n      pop\n      pop\n      pop\n        /* \"contracts/FrenStaking.sol\":4412:4450  _deposits[msg.sender].add(tokenIds[i]) */\n      tag_188\n        /* \"contracts/FrenStaking.sol\":4438:4446  tokenIds */\n      dup4\n      dup4\n        /* \"contracts/FrenStaking.sol\":4447:4448  i */\n      dup4\n        /* \"contracts/FrenStaking.sol\":4438:4449  tokenIds[i] */\n      dup2\n      dup2\n      lt\n      tag_189\n      jumpi\n      tag_190\n      tag_124\n      jump\t// in\n    tag_190:\n    tag_189:\n      swap1\n      pop\n      0x20\n      mul\n      add\n      calldataload\n        /* \"contracts/FrenStaking.sol\":4412:4421  _deposits */\n      0x08\n        /* \"contracts/FrenStaking.sol\":4412:4433  _deposits[msg.sender] */\n      0x00\n        /* \"contracts/FrenStaking.sol\":4422:4432  msg.sender */\n      caller\n        /* \"contracts/FrenStaking.sol\":4412:4433  _deposits[msg.sender] */\n      0xffffffffffffffffffffffffffffffffffffffff\n      and\n      0xffffffffffffffffffffffffffffffffffffffff\n      and\n      dup2\n      mstore\n      0x20\n      add\n      swap1\n      dup2\n      mstore\n      0x20\n      add\n      0x00\n      keccak256\n        /* \"contracts/FrenStaking.sol\":4412:4437  _deposits[msg.sender].add */\n      tag_191\n      swap1\n        /* \"contracts/FrenStaking.sol\":4412:4450  _deposits[msg.sender].add(tokenIds[i]) */\n      swap2\n      swap1\n      0xffffffff\n      and\n      jump\t// in\n    tag_188:\n      pop\n        /* \"contracts/FrenStaking.sol\":4200:4203  i++ */\n      dup1\n      dup1\n      tag_192\n      swap1\n      tag_139\n      jump\t// in\n    tag_192:\n      swap2\n      pop\n      pop\n        /* \"contracts/FrenStaking.sol\":4163:4461  for (uint256 i; i < tokenIds.length; i++) {... */\n      jump(tag_174)\n    tag_175:\n      pop\n        /* \"contracts/FrenStaking.sol\":4007:4467  function deposit(uint256[] calldata tokenIds) external whenNotPaused {... */\n      pop\n      pop\n      jump\t// out\n        /* \"@openzeppelin/contracts/security/Pausable.sol\":1615:1699  function paused() public view virtual returns (bool) {... */\n    tag_75:\n        /* \"@openzeppelin/contracts/security/Pausable.sol\":1662:1666  bool */\n      0x00\n        /* \"@openzeppelin/contracts/security/Pausable.sol\":1685:1692  _paused */\n      0x02\n      0x00\n      swap1\n      sload\n      swap1\n      0x0100\n      exp\n      swap1\n      div\n      0xff\n      and\n        /* \"@openzeppelin/contracts/security/Pausable.sol\":1678:1692  return _paused */\n      swap1\n      pop\n        /* \"@openzeppelin/contracts/security/Pausable.sol\":1615:1699  function paused() public view virtual returns (bool) {... */\n      swap1\n      jump\t// out\n        /* \"contracts/FrenStaking.sol\":3504:4001  function claimRewards(uint256[] calldata tokenIds) public whenNotPaused {... */\n    tag_80:\n        /* \"@openzeppelin/contracts/security/Pausable.sol\":1239:1258  _requireNotPaused() */\n      tag_195\n        /* \"@openzeppelin/contracts/security/Pausable.sol\":1239:1256  _requireNotPaused */\n      tag_169\n        /* \"@openzeppelin/contracts/security/Pausable.sol\":1239:1258  _requireNotPaused() */\n      jump\t// in\n    tag_195:\n        /* \"contracts/FrenStaking.sol\":3609:3613  true */\n      0x01\n        /* \"contracts/FrenStaking.sol\":3594:3613  isClaimable == true */\n      iszero\n      iszero\n        /* \"contracts/FrenStaking.sol\":3594:3605  isClaimable */\n      0x07\n      0x00\n      swap1\n      sload\n      swap1\n      0x0100\n      exp\n      swap1\n      div\n      0xff\n      and\n        /* \"contracts/FrenStaking.sol\":3594:3613  isClaimable == true */\n      iszero\n      iszero\n      eq\n        /* \"contracts/FrenStaking.sol\":3586:3614  require(isClaimable == true) */\n      tag_197\n      jumpi\n      0x00\n      dup1\n      revert\n    tag_197:\n        /* \"contracts/FrenStaking.sol\":3624:3638  uint256 reward */\n      0x00\n        /* \"contracts/FrenStaking.sol\":3649:3665  uint256 blockCur */\n      dup1\n        /* \"contracts/FrenStaking.sol\":3668:3702  Math.min(block.number, expiration) */\n      tag_198\n        /* \"contracts/FrenStaking.sol\":3677:3689  block.number */\n      number\n        /* \"contracts/FrenStaking.sol\":3691:3701  expiration */\n      sload(0x05)\n        /* \"contracts/FrenStaking.sol\":3668:3676  Math.min */\n      tag_126\n        /* \"contracts/FrenStaking.sol\":3668:3702  Math.min(block.number, expiration) */\n      jump\t// in\n    tag_198:\n        /* \"contracts/FrenStaking.sol\":3649:3702  uint256 blockCur = Math.min(block.number, expiration) */\n      swap1\n      pop\n        /* \"contracts/FrenStaking.sol\":3718:3727  uint256 i */\n      0x00\n        /* \"contracts/FrenStaking.sol\":3713:3894  for (uint256 i; i < tokenIds.length; i++) {... */\n    tag_199:\n        /* \"contracts/FrenStaking.sol\":3733:3741  tokenIds */\n      dup5\n      dup5\n        /* \"contracts/FrenStaking.sol\":3733:3748  tokenIds.length */\n      swap1\n      pop\n        /* \"contracts/FrenStaking.sol\":3729:3730  i */\n      dup2\n        /* \"contracts/FrenStaking.sol\":3729:3748  i < tokenIds.length */\n      lt\n        /* \"contracts/FrenStaking.sol\":3713:3894  for (uint256 i; i < tokenIds.length; i++) {... */\n      iszero\n      tag_200\n      jumpi\n        /* \"contracts/FrenStaking.sol\":3779:3819  calculateReward(msg.sender, tokenIds[i]) */\n      tag_202\n        /* \"contracts/FrenStaking.sol\":3795:3805  msg.sender */\n      caller\n        /* \"contracts/FrenStaking.sol\":3807:3815  tokenIds */\n      dup7\n      dup7\n        /* \"contracts/FrenStaking.sol\":3816:3817  i */\n      dup5\n        /* \"contracts/FrenStaking.sol\":3807:3818  tokenIds[i] */\n      dup2\n      dup2\n      lt\n      tag_203\n      jumpi\n      tag_204\n      tag_124\n      jump\t// in\n    tag_204:\n    tag_203:\n      swap1\n      pop\n      0x20\n      mul\n      add\n      calldataload\n        /* \"contracts/FrenStaking.sol\":3779:3794  calculateReward */\n      tag_49\n        /* \"contracts/FrenStaking.sol\":3779:3819  calculateReward(msg.sender, tokenIds[i]) */\n      jump\t// in\n    tag_202:\n        /* \"contracts/FrenStaking.sol\":3769:3819  reward += calculateReward(msg.sender, tokenIds[i]) */\n      dup4\n      tag_205\n      swap2\n      swap1\n      tag_166\n      jump\t// in\n    tag_205:\n      swap3\n      pop\n        /* \"contracts/FrenStaking.sol\":3875:3883  blockCur */\n      dup2\n        /* \"contracts/FrenStaking.sol\":3833:3847  _depositBlocks */\n      0x09\n        /* \"contracts/FrenStaking.sol\":3833:3859  _depositBlocks[msg.sender] */\n      0x00\n        /* \"contracts/FrenStaking.sol\":3848:3858  msg.sender */\n      caller\n        /* \"contracts/FrenStaking.sol\":3833:3859  _depositBlocks[msg.sender] */\n      0xffffffffffffffffffffffffffffffffffffffff\n      and\n      0xffffffffffffffffffffffffffffffffffffffff\n      and\n      dup2\n      mstore\n      0x20\n      add\n      swap1\n      dup2\n      mstore\n      0x20\n      add\n      0x00\n      keccak256\n        /* \"contracts/FrenStaking.sol\":3833:3872  _depositBlocks[msg.sender][tokenIds[i]] */\n      0x00\n        /* \"contracts/FrenStaking.sol\":3860:3868  tokenIds */\n      dup8\n      dup8\n        /* \"contracts/FrenStaking.sol\":3869:3870  i */\n      dup6\n        /* \"contracts/FrenStaking.sol\":3860:3871  tokenIds[i] */\n      dup2\n      dup2\n      lt\n      tag_206\n      jumpi\n      tag_207\n      tag_124\n      jump\t// in\n    tag_207:\n    tag_206:\n      swap1\n      pop\n      0x20\n      mul\n      add\n      calldataload\n        /* \"contracts/FrenStaking.sol\":3833:3872  _depositBlocks[msg.sender][tokenIds[i]] */\n      dup2\n      mstore\n      0x20\n      add\n      swap1\n      dup2\n      mstore\n      0x20\n      add\n      0x00\n      keccak256\n        /* \"contracts/FrenStaking.sol\":3833:3883  _depositBlocks[msg.sender][tokenIds[i]] = blockCur */\n      dup2\n      swap1\n      sstore\n      pop\n        /* \"contracts/FrenStaking.sol\":3750:3753  i++ */\n      dup1\n      dup1\n      tag_208\n      swap1\n      tag_139\n      jump\t// in\n    tag_208:\n      swap2\n      pop\n      pop\n        /* \"contracts/FrenStaking.sol\":3713:3894  for (uint256 i; i < tokenIds.length; i++) {... */\n      jump(tag_199)\n    tag_200:\n      pop\n        /* \"contracts/FrenStaking.sol\":3917:3918  0 */\n      0x00\n        /* \"contracts/FrenStaking.sol\":3908:3914  reward */\n      dup3\n        /* \"contracts/FrenStaking.sol\":3908:3918  reward > 0 */\n      gt\n        /* \"contracts/FrenStaking.sol\":3904:3994  if (reward > 0) {... */\n      iszero\n      tag_209\n      jumpi\n        /* \"contracts/FrenStaking.sol\":3941:3953  erc20Address */\n      0x04\n      0x00\n      swap1\n      sload\n      swap1\n      0x0100\n      exp\n      swap1\n      div\n      0xffffffffffffffffffffffffffffffffffffffff\n      and\n        /* \"contracts/FrenStaking.sol\":3934:3963  IERC20(erc20Address).transfer */\n      0xffffffffffffffffffffffffffffffffffffffff\n      and\n      0xa9059cbb\n        /* \"contracts/FrenStaking.sol\":3964:3974  msg.sender */\n      caller\n        /* \"contracts/FrenStaking.sol\":3976:3982  reward */\n      dup5\n        /* \"contracts/FrenStaking.sol\":3934:3983  IERC20(erc20Address).transfer(msg.sender, reward) */\n      mload(0x40)\n      dup4\n      0xffffffff\n      and\n      0xe0\n      shl\n      dup2\n      mstore\n      0x04\n      add\n      tag_210\n      swap3\n      swap2\n      swap1\n      tag_211\n      jump\t// in\n    tag_210:\n      0x20\n      mload(0x40)\n      dup1\n      dup4\n      sub\n      dup2\n      0x00\n      dup8\n      gas\n      call\n      iszero\n      dup1\n      iszero\n      tag_213\n      jumpi\n      returndatasize\n      0x00\n      dup1\n      returndatacopy\n      revert(0x00, returndatasize)\n    tag_213:\n      pop\n      pop\n      pop\n      pop\n      mload(0x40)\n      returndatasize\n      not(0x1f)\n      0x1f\n      dup3\n      add\n      and\n      dup3\n      add\n      dup1\n      0x40\n      mstore\n      pop\n      dup2\n      add\n      swap1\n      tag_214\n      swap2\n      swap1\n      tag_215\n      jump\t// in\n    tag_214:\n      pop\n        /* \"contracts/FrenStaking.sol\":3904:3994  if (reward > 0) {... */\n    tag_209:\n        /* \"contracts/FrenStaking.sol\":3576:4001  {... */\n      pop\n      pop\n        /* \"contracts/FrenStaking.sol\":3504:4001  function claimRewards(uint256[] calldata tokenIds) public whenNotPaused {... */\n      pop\n      pop\n      jump\t// out\n        /* \"@openzeppelin/contracts/access/Ownable.sol\":1831:1932  function renounceOwnership() public virtual onlyOwner {... */\n    tag_82:\n        /* \"@openzeppelin/contracts/access/Ownable.sol\":1094:1107  _checkOwner() */\n      tag_217\n        /* \"@openzeppelin/contracts/access/Ownable.sol\":1094:1105  _checkOwner */\n      tag_155\n        /* \"@openzeppelin/contracts/access/Ownable.sol\":1094:1107  _checkOwner() */\n      jump\t// in\n    tag_217:\n        /* \"@openzeppelin/contracts/access/Ownable.sol\":1895:1925  _transferOwnership(address(0)) */\n      tag_219\n        /* \"@openzeppelin/contracts/access/Ownable.sol\":1922:1923  0 */\n      0x00\n        /* \"@openzeppelin/contracts/access/Ownable.sol\":1895:1913  _transferOwnership */\n      tag_220\n        /* \"@openzeppelin/contracts/access/Ownable.sol\":1895:1925  _transferOwnership(address(0)) */\n      jump\t// in\n    tag_219:\n        /* \"@openzeppelin/contracts/access/Ownable.sol\":1831:1932  function renounceOwnership() public virtual onlyOwner {... */\n      jump\t// out\n        /* \"contracts/FrenStaking.sol\":1082:1105  bool public isClaimable */\n    tag_84:\n      0x07\n      0x00\n      swap1\n      sload\n      swap1\n      0x0100\n      exp\n      swap1\n      div\n      0xff\n      and\n      dup2\n      jump\t// out\n        /* \"contracts/FrenStaking.sol\":1670:1729  function pause() public onlyOwner {... */\n    tag_87:\n        /* \"@openzeppelin/contracts/access/Ownable.sol\":1094:1107  _checkOwner() */\n      tag_222\n        /* \"@openzeppelin/contracts/access/Ownable.sol\":1094:1105  _checkOwner */\n      tag_155\n        /* \"@openzeppelin/contracts/access/Ownable.sol\":1094:1107  _checkOwner() */\n      jump\t// in\n    tag_222:\n        /* \"contracts/FrenStaking.sol\":1714:1722  _pause() */\n      tag_224\n        /* \"contracts/FrenStaking.sol\":1714:1720  _pause */\n      tag_225\n        /* \"contracts/FrenStaking.sol\":1714:1722  _pause() */\n      jump\t// in\n    tag_224:\n        /* \"contracts/FrenStaking.sol\":1670:1729  function pause() public onlyOwner {... */\n      jump\t// out\n        /* \"contracts/FrenStaking.sol\":4980:5173  function withdrawTokens() external onlyOwner {... */\n    tag_89:\n        /* \"@openzeppelin/contracts/access/Ownable.sol\":1094:1107  _checkOwner() */\n      tag_227\n        /* \"@openzeppelin/contracts/access/Ownable.sol\":1094:1105  _checkOwner */\n      tag_155\n        /* \"@openzeppelin/contracts/access/Ownable.sol\":1094:1107  _checkOwner() */\n      jump\t// in\n    tag_227:\n        /* \"contracts/FrenStaking.sol\":5035:5054  uint256 tokenSupply */\n      0x00\n        /* \"contracts/FrenStaking.sol\":5064:5076  erc20Address */\n      0x04\n      0x00\n      swap1\n      sload\n      swap1\n      0x0100\n      exp\n      swap1\n      div\n      0xffffffffffffffffffffffffffffffffffffffff\n      and\n        /* \"contracts/FrenStaking.sol\":5057:5087  IERC20(erc20Address).balanceOf */\n      0xffffffffffffffffffffffffffffffffffffffff\n      and\n      0x70a08231\n        /* \"contracts/FrenStaking.sol\":5096:5100  this */\n      address\n        /* \"contracts/FrenStaking.sol\":5057:5102  IERC20(erc20Address).balanceOf(address(this)) */\n      mload(0x40)\n      dup3\n      0xffffffff\n      and\n      0xe0\n      shl\n      dup2\n      mstore\n      0x04\n      add\n      tag_229\n      swap2\n      swap1\n      tag_33\n      jump\t// in\n    tag_229:\n      0x20\n      mload(0x40)\n      dup1\n      dup4\n      sub\n      dup2\n      dup7\n      gas\n      staticcall\n      iszero\n      dup1\n      iszero\n      tag_231\n      jumpi\n      returndatasize\n      0x00\n      dup1\n      returndatacopy\n      revert(0x00, returndatasize)\n    tag_231:\n      pop\n      pop\n      pop\n      pop\n      mload(0x40)\n      returndatasize\n      not(0x1f)\n      0x1f\n      dup3\n      add\n      and\n      dup3\n      add\n      dup1\n      0x40\n      mstore\n      pop\n      dup2\n      add\n      swap1\n      tag_232\n      swap2\n      swap1\n      tag_233\n      jump\t// in\n    tag_232:\n        /* \"contracts/FrenStaking.sol\":5035:5102  uint256 tokenSupply = IERC20(erc20Address).balanceOf(address(this)) */\n      swap1\n      pop\n        /* \"contracts/FrenStaking.sol\":5119:5131  erc20Address */\n      0x04\n      0x00\n      swap1\n      sload\n      swap1\n      0x0100\n      exp\n      swap1\n      div\n      0xffffffffffffffffffffffffffffffffffffffff\n      and\n        /* \"contracts/FrenStaking.sol\":5112:5141  IERC20(erc20Address).transfer */\n      0xffffffffffffffffffffffffffffffffffffffff\n      and\n      0xa9059cbb\n        /* \"contracts/FrenStaking.sol\":5142:5152  msg.sender */\n      caller\n        /* \"contracts/FrenStaking.sol\":5154:5165  tokenSupply */\n      dup4\n        /* \"contracts/FrenStaking.sol\":5112:5166  IERC20(erc20Address).transfer(msg.sender, tokenSupply) */\n      mload(0x40)\n      dup4\n      0xffffffff\n      and\n      0xe0\n      shl\n      dup2\n      mstore\n      0x04\n      add\n      tag_234\n      swap3\n      swap2\n      swap1\n      tag_211\n      jump\t// in\n    tag_234:\n      0x20\n      mload(0x40)\n      dup1\n      dup4\n      sub\n      dup2\n      0x00\n      dup8\n      gas\n      call\n      iszero\n      dup1\n      iszero\n      tag_236\n      jumpi\n      returndatasize\n      0x00\n      dup1\n      returndatacopy\n      revert(0x00, returndatasize)\n    tag_236:\n      pop\n      pop\n      pop\n      pop\n      mload(0x40)\n      returndatasize\n      not(0x1f)\n      0x1f\n      dup3\n      add\n      and\n      dup3\n      add\n      dup1\n      0x40\n      mstore\n      pop\n      dup2\n      add\n      swap1\n      tag_237\n      swap2\n      swap1\n      tag_215\n      jump\t// in\n    tag_237:\n      pop\n        /* \"contracts/FrenStaking.sol\":5025:5173  {... */\n      pop\n        /* \"contracts/FrenStaking.sol\":4980:5173  function withdrawTokens() external onlyOwner {... */\n      jump\t// out\n        /* \"@openzeppelin/contracts/access/Ownable.sol\":1201:1286  function owner() public view virtual returns (address) {... */\n    tag_91:\n        /* \"@openzeppelin/contracts/access/Ownable.sol\":1247:1254  address */\n      0x00\n        /* \"@openzeppelin/contracts/access/Ownable.sol\":1273:1279  _owner */\n      dup1\n      0x00\n      swap1\n      sload\n      swap1\n      0x0100\n      exp\n      swap1\n      div\n      0xffffffffffffffffffffffffffffffffffffffff\n      and\n        /* \"@openzeppelin/contracts/access/Ownable.sol\":1266:1279  return _owner */\n      swap1\n      pop\n        /* \"@openzeppelin/contracts/access/Ownable.sol\":1201:1286  function owner() public view virtual returns (address) {... */\n      swap1\n      jump\t// out\n        /* \"contracts/FrenStaking.sol\":4473:4974  function withdraw(uint256[] calldata tokenIds) external whenNotPaused nonReentrant() {... */\n    tag_95:\n        /* \"@openzeppelin/contracts/security/Pausable.sol\":1239:1258  _requireNotPaused() */\n      tag_240\n        /* \"@openzeppelin/contracts/security/Pausable.sol\":1239:1256  _requireNotPaused */\n      tag_169\n        /* \"@openzeppelin/contracts/security/Pausable.sol\":1239:1258  _requireNotPaused() */\n      jump\t// in\n    tag_240:\n        /* \"@openzeppelin/contracts/security/ReentrancyGuard.sol\":2261:2282  _nonReentrantBefore() */\n      tag_242\n        /* \"@openzeppelin/contracts/security/ReentrancyGuard.sol\":2261:2280  _nonReentrantBefore */\n      tag_243\n        /* \"@openzeppelin/contracts/security/ReentrancyGuard.sol\":2261:2282  _nonReentrantBefore() */\n      jump\t// in\n    tag_242:\n        /* \"contracts/FrenStaking.sol\":4573:4582  uint256 i */\n      0x00\n        /* \"contracts/FrenStaking.sol\":4568:4968  for (uint256 i; i < tokenIds.length; i++) {... */\n    tag_245:\n        /* \"contracts/FrenStaking.sol\":4588:4596  tokenIds */\n      dup3\n      dup3\n        /* \"contracts/FrenStaking.sol\":4588:4603  tokenIds.length */\n      swap1\n      pop\n        /* \"contracts/FrenStaking.sol\":4584:4585  i */\n      dup2\n        /* \"contracts/FrenStaking.sol\":4584:4603  i < tokenIds.length */\n      lt\n        /* \"contracts/FrenStaking.sol\":4568:4968  for (uint256 i; i < tokenIds.length; i++) {... */\n      iszero\n      tag_246\n      jumpi\n        /* \"contracts/FrenStaking.sol\":4633:4676  _deposits[msg.sender].contains(tokenIds[i]) */\n      tag_248\n        /* \"contracts/FrenStaking.sol\":4664:4672  tokenIds */\n      dup4\n      dup4\n        /* \"contracts/FrenStaking.sol\":4673:4674  i */\n      dup4\n        /* \"contracts/FrenStaking.sol\":4664:4675  tokenIds[i] */\n      dup2\n      dup2\n      lt\n      tag_249\n      jumpi\n      tag_250\n      tag_124\n      jump\t// in\n    tag_250:\n    tag_249:\n      swap1\n      pop\n      0x20\n      mul\n      add\n      calldataload\n        /* \"contracts/FrenStaking.sol\":4633:4642  _deposits */\n      0x08\n        /* \"contracts/FrenStaking.sol\":4633:4654  _deposits[msg.sender] */\n      0x00\n        /* \"contracts/FrenStaking.sol\":4643:4653  msg.sender */\n      caller\n        /* \"contracts/FrenStaking.sol\":4633:4654  _deposits[msg.sender] */\n      0xffffffffffffffffffffffffffffffffffffffff\n      and\n      0xffffffffffffffffffffffffffffffffffffffff\n      and\n      dup2\n      mstore\n      0x20\n      add\n      swap1\n      dup2\n      mstore\n      0x20\n      add\n      0x00\n      keccak256\n        /* \"contracts/FrenStaking.sol\":4633:4663  _deposits[msg.sender].contains */\n      tag_130\n      swap1\n        /* \"contracts/FrenStaking.sol\":4633:4676  _deposits[msg.sender].contains(tokenIds[i]) */\n      swap2\n      swap1\n      0xffffffff\n      and\n      jump\t// in\n    tag_248:\n        /* \"contracts/FrenStaking.sol\":4624:4708  require( _deposits[msg.sender].contains(tokenIds[i]),\"Staking: token not deposited\") */\n      tag_251\n      jumpi\n      mload(0x40)\n      0x08c379a000000000000000000000000000000000000000000000000000000000\n      dup2\n      mstore\n      0x04\n      add\n      tag_252\n      swap1\n      tag_253\n      jump\t// in\n    tag_252:\n      mload(0x40)\n      dup1\n      swap2\n      sub\n      swap1\n      revert\n    tag_251:\n        /* \"contracts/FrenStaking.sol\":4755:4795  calculateReward(msg.sender, tokenIds[i]) */\n      tag_254\n        /* \"contracts/FrenStaking.sol\":4771:4781  msg.sender */\n      caller\n        /* \"contracts/FrenStaking.sol\":4783:4791  tokenIds */\n      dup5\n      dup5\n        /* \"contracts/FrenStaking.sol\":4792:4793  i */\n      dup5\n        /* \"contracts/FrenStaking.sol\":4783:4794  tokenIds[i] */\n      dup2\n      dup2\n      lt\n      tag_255\n      jumpi\n      tag_256\n      tag_124\n      jump\t// in\n    tag_256:\n    tag_255:\n      swap1\n      pop\n      0x20\n      mul\n      add\n      calldataload\n        /* \"contracts/FrenStaking.sol\":4755:4770  calculateReward */\n      tag_49\n        /* \"contracts/FrenStaking.sol\":4755:4795  calculateReward(msg.sender, tokenIds[i]) */\n      jump\t// in\n    tag_254:\n        /* \"contracts/FrenStaking.sol\":4722:4739  accumulatedTokens */\n      0x0a\n        /* \"contracts/FrenStaking.sol\":4722:4751  accumulatedTokens[msg.sender] */\n      0x00\n        /* \"contracts/FrenStaking.sol\":4740:4750  msg.sender */\n      caller\n        /* \"contracts/FrenStaking.sol\":4722:4751  accumulatedTokens[msg.sender] */\n      0xffffffffffffffffffffffffffffffffffffffff\n      and\n      0xffffffffffffffffffffffffffffffffffffffff\n      and\n      dup2\n      mstore\n      0x20\n      add\n      swap1\n      dup2\n      mstore\n      0x20\n      add\n      0x00\n      keccak256\n      0x00\n        /* \"contracts/FrenStaking.sol\":4722:4795  accumulatedTokens[msg.sender] += calculateReward(msg.sender, tokenIds[i]) */\n      dup3\n      dup3\n      sload\n      tag_257\n      swap2\n      swap1\n      tag_166\n      jump\t// in\n    tag_257:\n      swap3\n      pop\n      pop\n      dup2\n      swap1\n      sstore\n      pop\n        /* \"contracts/FrenStaking.sol\":4809:4850  _deposits[msg.sender].remove(tokenIds[i]) */\n      tag_258\n        /* \"contracts/FrenStaking.sol\":4838:4846  tokenIds */\n      dup4\n      dup4\n        /* \"contracts/FrenStaking.sol\":4847:4848  i */\n      dup4\n        /* \"contracts/FrenStaking.sol\":4838:4849  tokenIds[i] */\n      dup2\n      dup2\n      lt\n      tag_259\n      jumpi\n      tag_260\n      tag_124\n      jump\t// in\n    tag_260:\n    tag_259:\n      swap1\n      pop\n      0x20\n      mul\n      add\n      calldataload\n        /* \"contracts/FrenStaking.sol\":4809:4818  _deposits */\n      0x08\n        /* \"contracts/FrenStaking.sol\":4809:4830  _deposits[msg.sender] */\n      0x00\n        /* \"contracts/FrenStaking.sol\":4819:4829  msg.sender */\n      caller\n        /* \"contracts/FrenStaking.sol\":4809:4830  _deposits[msg.sender] */\n      0xffffffffffffffffffffffffffffffffffffffff\n      and\n      0xffffffffffffffffffffffffffffffffffffffff\n      and\n      dup2\n      mstore\n      0x20\n      add\n      swap1\n      dup2\n      mstore\n      0x20\n      add\n      0x00\n      keccak256\n        /* \"contracts/FrenStaking.sol\":4809:4837  _deposits[msg.sender].remove */\n      tag_261\n      swap1\n        /* \"contracts/FrenStaking.sol\":4809:4850  _deposits[msg.sender].remove(tokenIds[i]) */\n      swap2\n      swap1\n      0xffffffff\n      and\n      jump\t// in\n    tag_258:\n      pop\n        /* \"contracts/FrenStaking.sol\":4872:4897  stakingDestinationAddress */\n      0x03\n      0x00\n      swap1\n      sload\n      swap1\n      0x0100\n      exp\n      swap1\n      div\n      0xffffffffffffffffffffffffffffffffffffffff\n      and\n        /* \"contracts/FrenStaking.sol\":4864:4915  IERC721(stakingDestinationAddress).safeTransferFrom */\n      0xffffffffffffffffffffffffffffffffffffffff\n      and\n      0xb88d4fde\n        /* \"contracts/FrenStaking.sol\":4924:4928  this */\n      address\n        /* \"contracts/FrenStaking.sol\":4931:4941  msg.sender */\n      caller\n        /* \"contracts/FrenStaking.sol\":4942:4950  tokenIds */\n      dup7\n      dup7\n        /* \"contracts/FrenStaking.sol\":4951:4952  i */\n      dup7\n        /* \"contracts/FrenStaking.sol\":4942:4953  tokenIds[i] */\n      dup2\n      dup2\n      lt\n      tag_262\n      jumpi\n      tag_263\n      tag_124\n      jump\t// in\n    tag_263:\n    tag_262:\n      swap1\n      pop\n      0x20\n      mul\n      add\n      calldataload\n        /* \"contracts/FrenStaking.sol\":4864:4957  IERC721(stakingDestinationAddress).safeTransferFrom(address(this), msg.sender,tokenIds[i],\"\") */\n      mload(0x40)\n      dup5\n      0xffffffff\n      and\n      0xe0\n      shl\n      dup2\n      mstore\n      0x04\n      add\n      tag_264\n      swap4\n      swap3\n      swap2\n      swap1\n      tag_184\n      jump\t// in\n    tag_264:\n      0x00\n      mload(0x40)\n      dup1\n      dup4\n      sub\n      dup2\n      0x00\n      dup8\n      dup1\n      extcodesize\n      iszero\n      dup1\n      iszero\n      tag_265\n      jumpi\n      0x00\n      dup1\n      revert\n    tag_265:\n      pop\n      gas\n      call\n      iszero\n      dup1\n      iszero\n      tag_267\n      jumpi\n      returndatasize\n      0x00\n      dup1\n      returndatacopy\n      revert(0x00, returndatasize)\n    tag_267:\n      pop\n      pop\n      pop\n      pop\n        /* \"contracts/FrenStaking.sol\":4605:4608  i++ */\n      dup1\n      dup1\n      tag_268\n      swap1\n      tag_139\n      jump\t// in\n    tag_268:\n      swap2\n      pop\n      pop\n        /* \"contracts/FrenStaking.sol\":4568:4968  for (uint256 i; i < tokenIds.length; i++) {... */\n      jump(tag_245)\n    tag_246:\n      pop\n        /* \"@openzeppelin/contracts/security/ReentrancyGuard.sol\":2303:2323  _nonReentrantAfter() */\n      tag_269\n        /* \"@openzeppelin/contracts/security/ReentrancyGuard.sol\":2303:2321  _nonReentrantAfter */\n      tag_270\n        /* \"@openzeppelin/contracts/security/ReentrancyGuard.sol\":2303:2323  _nonReentrantAfter() */\n      jump\t// in\n    tag_269:\n        /* \"contracts/FrenStaking.sol\":4473:4974  function withdraw(uint256[] calldata tokenIds) external whenNotPaused nonReentrant() {... */\n      pop\n      pop\n      jump\t// out\n        /* \"contracts/FrenStaking.sol\":1196:1265  mapping(address => mapping(uint256 => uint256)) public _depositBlocks */\n    tag_98:\n      mstore(0x20, 0x09)\n      dup2\n      0x00\n      mstore\n      mstore(0x20, keccak256(0x00, 0x40))\n      dup1\n      0x00\n      mstore\n      keccak256(0x00, 0x40)\n      0x00\n      swap2\n      pop\n      swap2\n      pop\n      pop\n      sload\n      dup2\n      jump\t// out\n        /* \"contracts/FrenStaking.sol\":5179:5268  function flipIsClaimable() external onlyOwner {... */\n    tag_101:\n        /* \"@openzeppelin/contracts/access/Ownable.sol\":1094:1107  _checkOwner() */\n      tag_272\n        /* \"@openzeppelin/contracts/access/Ownable.sol\":1094:1105  _checkOwner */\n      tag_155\n        /* \"@openzeppelin/contracts/access/Ownable.sol\":1094:1107  _checkOwner() */\n      jump\t// in\n    tag_272:\n        /* \"contracts/FrenStaking.sol\":5250:5261  isClaimable */\n      0x07\n      0x00\n      swap1\n      sload\n      swap1\n      0x0100\n      exp\n      swap1\n      div\n      0xff\n      and\n        /* \"contracts/FrenStaking.sol\":5249:5261  !isClaimable */\n      iszero\n        /* \"contracts/FrenStaking.sol\":5235:5246  isClaimable */\n      0x07\n      0x00\n        /* \"contracts/FrenStaking.sol\":5235:5261  isClaimable = !isClaimable */\n      0x0100\n      exp\n      dup2\n      sload\n      dup2\n      0xff\n      mul\n      not\n      and\n      swap1\n      dup4\n      iszero\n      iszero\n      mul\n      or\n      swap1\n      sstore\n      pop\n        /* \"contracts/FrenStaking.sol\":5179:5268  function flipIsClaimable() external onlyOwner {... */\n      jump\t// out\n        /* \"contracts/FrenStaking.sol\":1271:1323  mapping(address => uint256) public accumulatedTokens */\n    tag_105:\n      mstore(0x20, 0x0a)\n      dup1\n      0x00\n      mstore\n      keccak256(0x00, 0x40)\n      0x00\n      swap2\n      pop\n      swap1\n      pop\n      sload\n      dup2\n      jump\t// out\n        /* \"contracts/FrenStaking.sol\":2329:2681  function depositsOf(address account) external view returns (uint256[] memory) {... */\n    tag_109:\n        /* \"contracts/FrenStaking.sol\":2389:2405  uint256[] memory */\n      0x60\n        /* \"contracts/FrenStaking.sol\":2415:2455  EnumerableSet.UintSet storage depositSet */\n      0x00\n        /* \"contracts/FrenStaking.sol\":2458:2467  _deposits */\n      0x08\n        /* \"contracts/FrenStaking.sol\":2458:2476  _deposits[account] */\n      0x00\n        /* \"contracts/FrenStaking.sol\":2468:2475  account */\n      dup5\n        /* \"contracts/FrenStaking.sol\":2458:2476  _deposits[account] */\n      0xffffffffffffffffffffffffffffffffffffffff\n      and\n      0xffffffffffffffffffffffffffffffffffffffff\n      and\n      dup2\n      mstore\n      0x20\n      add\n      swap1\n      dup2\n      mstore\n      0x20\n      add\n      0x00\n      keccak256\n        /* \"contracts/FrenStaking.sol\":2415:2476  EnumerableSet.UintSet storage depositSet = _deposits[account] */\n      swap1\n      pop\n        /* \"contracts/FrenStaking.sol\":2484:2509  uint256[] memory tokenIds */\n      0x00\n        /* \"contracts/FrenStaking.sol\":2527:2546  depositSet.length() */\n      tag_275\n        /* \"contracts/FrenStaking.sol\":2527:2537  depositSet */\n      dup3\n        /* \"contracts/FrenStaking.sol\":2527:2544  depositSet.length */\n      tag_276\n        /* \"contracts/FrenStaking.sol\":2527:2546  depositSet.length() */\n      jump\t// in\n    tag_275:\n        /* \"contracts/FrenStaking.sol\":2512:2547  new uint256[] (depositSet.length()) */\n      0xffffffffffffffff\n      dup2\n      gt\n      iszero\n      tag_277\n      jumpi\n      tag_278\n      tag_117\n      jump\t// in\n    tag_278:\n    tag_277:\n      mload(0x40)\n      swap1\n      dup1\n      dup3\n      mstore\n      dup1\n      0x20\n      mul\n      0x20\n      add\n      dup3\n      add\n      0x40\n      mstore\n      dup1\n      iszero\n      tag_279\n      jumpi\n      dup2\n      0x20\n      add\n      0x20\n      dup3\n      mul\n      dup1\n      calldatasize\n      dup4\n      calldatacopy\n      dup1\n      dup3\n      add\n      swap2\n      pop\n      pop\n      swap1\n      pop\n    tag_279:\n      pop\n        /* \"contracts/FrenStaking.sol\":2484:2547  uint256[] memory tokenIds = new uint256[] (depositSet.length()) */\n      swap1\n      pop\n        /* \"contracts/FrenStaking.sol\":2561:2570  uint256 i */\n      0x00\n        /* \"contracts/FrenStaking.sol\":2556:2651  for (uint256 i; i < depositSet.length(); i++) {... */\n    tag_280:\n        /* \"contracts/FrenStaking.sol\":2576:2595  depositSet.length() */\n      tag_283\n        /* \"contracts/FrenStaking.sol\":2576:2586  depositSet */\n      dup4\n        /* \"contracts/FrenStaking.sol\":2576:2593  depositSet.length */\n      tag_276\n        /* \"contracts/FrenStaking.sol\":2576:2595  depositSet.length() */\n      jump\t// in\n    tag_283:\n        /* \"contracts/FrenStaking.sol\":2572:2573  i */\n      dup2\n        /* \"contracts/FrenStaking.sol\":2572:2595  i < depositSet.length() */\n      lt\n        /* \"contracts/FrenStaking.sol\":2556:2651  for (uint256 i; i < depositSet.length(); i++) {... */\n      iszero\n      tag_281\n      jumpi\n        /* \"contracts/FrenStaking.sol\":2626:2642  depositSet.at(i) */\n      tag_284\n        /* \"contracts/FrenStaking.sol\":2640:2641  i */\n      dup2\n        /* \"contracts/FrenStaking.sol\":2626:2636  depositSet */\n      dup5\n        /* \"contracts/FrenStaking.sol\":2626:2639  depositSet.at */\n      tag_285\n      swap1\n        /* \"contracts/FrenStaking.sol\":2626:2642  depositSet.at(i) */\n      swap2\n      swap1\n      0xffffffff\n      and\n      jump\t// in\n    tag_284:\n        /* \"contracts/FrenStaking.sol\":2612:2620  tokenIds */\n      dup3\n        /* \"contracts/FrenStaking.sol\":2621:2622  i */\n      dup3\n        /* \"contracts/FrenStaking.sol\":2612:2623  tokenIds[i] */\n      dup2\n      mload\n      dup2\n      lt\n      tag_286\n      jumpi\n      tag_287\n      tag_124\n      jump\t// in\n    tag_287:\n    tag_286:\n      0x20\n      mul\n      0x20\n      add\n      add\n        /* \"contracts/FrenStaking.sol\":2612:2642  tokenIds[i] = depositSet.at(i) */\n      dup2\n      dup2\n      mstore\n      pop\n      pop\n        /* \"contracts/FrenStaking.sol\":2597:2600  i++ */\n      dup1\n      dup1\n      tag_288\n      swap1\n      tag_139\n      jump\t// in\n    tag_288:\n      swap2\n      pop\n      pop\n        /* \"contracts/FrenStaking.sol\":2556:2651  for (uint256 i; i < depositSet.length(); i++) {... */\n      jump(tag_280)\n    tag_281:\n      pop\n        /* \"contracts/FrenStaking.sol\":2666:2674  tokenIds */\n      dup1\n        /* \"contracts/FrenStaking.sol\":2659:2674  return tokenIds */\n      swap3\n      pop\n      pop\n      pop\n        /* \"contracts/FrenStaking.sol\":2329:2681  function depositsOf(address account) external view returns (uint256[] memory) {... */\n      swap2\n      swap1\n      pop\n      jump\t// out\n        /* \"@openzeppelin/contracts/access/Ownable.sol\":2081:2279  function transferOwnership(address newOwner) public virtual onlyOwner {... */\n    tag_113:\n        /* \"@openzeppelin/contracts/access/Ownable.sol\":1094:1107  _checkOwner() */\n      tag_290\n        /* \"@openzeppelin/contracts/access/Ownable.sol\":1094:1105  _checkOwner */\n      tag_155\n        /* \"@openzeppelin/contracts/access/Ownable.sol\":1094:1107  _checkOwner() */\n      jump\t// in\n    tag_290:\n        /* \"@openzeppelin/contracts/access/Ownable.sol\":2189:2190  0 */\n      0x00\n        /* \"@openzeppelin/contracts/access/Ownable.sol\":2169:2191  newOwner != address(0) */\n      0xffffffffffffffffffffffffffffffffffffffff\n      and\n        /* \"@openzeppelin/contracts/access/Ownable.sol\":2169:2177  newOwner */\n      dup2\n        /* \"@openzeppelin/contracts/access/Ownable.sol\":2169:2191  newOwner != address(0) */\n      0xffffffffffffffffffffffffffffffffffffffff\n      and\n      sub\n        /* \"@openzeppelin/contracts/access/Ownable.sol\":2161:2234  require(newOwner != address(0), \"Ownable: new owner is the zero address\") */\n      tag_292\n      jumpi\n      mload(0x40)\n      0x08c379a000000000000000000000000000000000000000000000000000000000\n      dup2\n      mstore\n      0x04\n      add\n      tag_293\n      swap1\n      tag_294\n      jump\t// in\n    tag_293:\n      mload(0x40)\n      dup1\n      swap2\n      sub\n      swap1\n      revert\n    tag_292:\n        /* \"@openzeppelin/contracts/access/Ownable.sol\":2244:2272  _transferOwnership(newOwner) */\n      tag_295\n        /* \"@openzeppelin/contracts/access/Ownable.sol\":2263:2271  newOwner */\n      dup2\n        /* \"@openzeppelin/contracts/access/Ownable.sol\":2244:2262  _transferOwnership */\n      tag_220\n        /* \"@openzeppelin/contracts/access/Ownable.sol\":2244:2272  _transferOwnership(newOwner) */\n      jump\t// in\n    tag_295:\n        /* \"@openzeppelin/contracts/access/Ownable.sol\":2081:2279  function transferOwnership(address newOwner) public virtual onlyOwner {... */\n      pop\n      jump\t// out\n        /* \"@openzeppelin/contracts/utils/math/Math.sol\":588:692  function min(uint256 a, uint256 b) internal pure returns (uint256) {... */\n    tag_126:\n        /* \"@openzeppelin/contracts/utils/math/Math.sol\":646:653  uint256 */\n      0x00\n        /* \"@openzeppelin/contracts/utils/math/Math.sol\":676:677  b */\n      dup2\n        /* \"@openzeppelin/contracts/utils/math/Math.sol\":672:673  a */\n      dup4\n        /* \"@openzeppelin/contracts/utils/math/Math.sol\":672:677  a < b */\n      lt\n        /* \"@openzeppelin/contracts/utils/math/Math.sol\":672:685  a < b ? a : b */\n      tag_297\n      jumpi\n        /* \"@openzeppelin/contracts/utils/math/Math.sol\":684:685  b */\n      dup2\n        /* \"@openzeppelin/contracts/utils/math/Math.sol\":672:685  a < b ? a : b */\n      jump(tag_298)\n    tag_297:\n        /* \"@openzeppelin/contracts/utils/math/Math.sol\":680:681  a */\n      dup3\n        /* \"@openzeppelin/contracts/utils/math/Math.sol\":672:685  a < b ? a : b */\n    tag_298:\n        /* \"@openzeppelin/contracts/utils/math/Math.sol\":665:685  return a < b ? a : b */\n      swap1\n      pop\n        /* \"@openzeppelin/contracts/utils/math/Math.sol\":588:692  function min(uint256 a, uint256 b) internal pure returns (uint256) {... */\n      swap3\n      swap2\n      pop\n      pop\n      jump\t// out\n        /* \"@openzeppelin/contracts/utils/structs/EnumerableSet.sol\":11298:11442  function contains(UintSet storage set, uint256 value) internal view returns (bool) {... */\n    tag_130:\n        /* \"@openzeppelin/contracts/utils/structs/EnumerableSet.sol\":11375:11379  bool */\n      0x00\n        /* \"@openzeppelin/contracts/utils/structs/EnumerableSet.sol\":11398:11435  _contains(set._inner, bytes32(value)) */\n      tag_300\n        /* \"@openzeppelin/contracts/utils/structs/EnumerableSet.sol\":11408:11411  set */\n      dup4\n        /* \"@openzeppelin/contracts/utils/structs/EnumerableSet.sol\":11408:11418  set._inner */\n      0x00\n      add\n        /* \"@openzeppelin/contracts/utils/structs/EnumerableSet.sol\":11428:11433  value */\n      dup4\n        /* \"@openzeppelin/contracts/utils/structs/EnumerableSet.sol\":11420:11434  bytes32(value) */\n      0x00\n      shl\n        /* \"@openzeppelin/contracts/utils/structs/EnumerableSet.sol\":11398:11407  _contains */\n      tag_301\n        /* \"@openzeppelin/contracts/utils/structs/EnumerableSet.sol\":11398:11435  _contains(set._inner, bytes32(value)) */\n      jump\t// in\n    tag_300:\n        /* \"@openzeppelin/contracts/utils/structs/EnumerableSet.sol\":11391:11435  return _contains(set._inner, bytes32(value)) */\n      swap1\n      pop\n        /* \"@openzeppelin/contracts/utils/structs/EnumerableSet.sol\":11298:11442  function contains(UintSet storage set, uint256 value) internal view returns (bool) {... */\n      swap3\n      swap2\n      pop\n      pop\n      jump\t// out\n        /* \"@openzeppelin/contracts/access/Ownable.sol\":1359:1489  function _checkOwner() internal view virtual {... */\n    tag_155:\n        /* \"@openzeppelin/contracts/access/Ownable.sol\":1433:1445  _msgSender() */\n      tag_303\n        /* \"@openzeppelin/contracts/access/Ownable.sol\":1433:1443  _msgSender */\n      tag_304\n        /* \"@openzeppelin/contracts/access/Ownable.sol\":1433:1445  _msgSender() */\n      jump\t// in\n    tag_303:\n        /* \"@openzeppelin/contracts/access/Ownable.sol\":1422:1445  owner() == _msgSender() */\n      0xffffffffffffffffffffffffffffffffffffffff\n      and\n        /* \"@openzeppelin/contracts/access/Ownable.sol\":1422:1429  owner() */\n      tag_305\n        /* \"@openzeppelin/contracts/access/Ownable.sol\":1422:1427  owner */\n      tag_91\n        /* \"@openzeppelin/contracts/access/Ownable.sol\":1422:1429  owner() */\n      jump\t// in\n    tag_305:\n        /* \"@openzeppelin/contracts/access/Ownable.sol\":1422:1445  owner() == _msgSender() */\n      0xffffffffffffffffffffffffffffffffffffffff\n      and\n      eq\n        /* \"@openzeppelin/contracts/access/Ownable.sol\":1414:1482  require(owner() == _msgSender(), \"Ownable: caller is not the owner\") */\n      tag_306\n      jumpi\n      mload(0x40)\n      0x08c379a000000000000000000000000000000000000000000000000000000000\n      dup2\n      mstore\n      0x04\n      add\n      tag_307\n      swap1\n      tag_308\n      jump\t// in\n    tag_307:\n      mload(0x40)\n      dup1\n      swap2\n      sub\n      swap1\n      revert\n    tag_306:\n        /* \"@openzeppelin/contracts/access/Ownable.sol\":1359:1489  function _checkOwner() internal view virtual {... */\n      jump\t// out\n        /* \"@openzeppelin/contracts/security/Pausable.sol\":2433:2550  function _unpause() internal virtual whenPaused {... */\n    tag_161:\n        /* \"@openzeppelin/contracts/security/Pausable.sol\":1486:1502  _requirePaused() */\n      tag_310\n        /* \"@openzeppelin/contracts/security/Pausable.sol\":1486:1500  _requirePaused */\n      tag_311\n        /* \"@openzeppelin/contracts/security/Pausable.sol\":1486:1502  _requirePaused() */\n      jump\t// in\n    tag_310:\n        /* \"@openzeppelin/contracts/security/Pausable.sol\":2501:2506  false */\n      0x00\n        /* \"@openzeppelin/contracts/security/Pausable.sol\":2491:2498  _paused */\n      0x02\n      0x00\n        /* \"@openzeppelin/contracts/security/Pausable.sol\":2491:2506  _paused = false */\n      0x0100\n      exp\n      dup2\n      sload\n      dup2\n      0xff\n      mul\n      not\n      and\n      swap1\n      dup4\n      iszero\n      iszero\n      mul\n      or\n      swap1\n      sstore\n      pop\n        /* \"@openzeppelin/contracts/security/Pausable.sol\":2521:2543  Unpaused(_msgSender()) */\n      0x5db9ee0a495bf2e6ff9c91a7834c1ba4fdd244a5e8aa4e537bd38aeae4b073aa\n        /* \"@openzeppelin/contracts/security/Pausable.sol\":2530:2542  _msgSender() */\n      tag_313\n        /* \"@openzeppelin/contracts/security/Pausable.sol\":2530:2540  _msgSender */\n      tag_304\n        /* \"@openzeppelin/contracts/security/Pausable.sol\":2530:2542  _msgSender() */\n      jump\t// in\n    tag_313:\n        /* \"@openzeppelin/contracts/security/Pausable.sol\":2521:2543  Unpaused(_msgSender()) */\n      mload(0x40)\n      tag_314\n      swap2\n      swap1\n      tag_33\n      jump\t// in\n    tag_314:\n      mload(0x40)\n      dup1\n      swap2\n      sub\n      swap1\n      log1\n        /* \"@openzeppelin/contracts/security/Pausable.sol\":2433:2550  function _unpause() internal virtual whenPaused {... */\n      jump\t// out\n        /* \"@openzeppelin/contracts/security/Pausable.sol\":1767:1873  function _requireNotPaused() internal view virtual {... */\n    tag_169:\n        /* \"@openzeppelin/contracts/security/Pausable.sol\":1837:1845  paused() */\n      tag_316\n        /* \"@openzeppelin/contracts/security/Pausable.sol\":1837:1843  paused */\n      tag_75\n        /* \"@openzeppelin/contracts/security/Pausable.sol\":1837:1845  paused() */\n      jump\t// in\n    tag_316:\n        /* \"@openzeppelin/contracts/security/Pausable.sol\":1836:1845  !paused() */\n      iszero\n        /* \"@openzeppelin/contracts/security/Pausable.sol\":1828:1866  require(!paused(), \"Pausable: paused\") */\n      tag_317\n      jumpi\n      mload(0x40)\n      0x08c379a000000000000000000000000000000000000000000000000000000000\n      dup2\n      mstore\n      0x04\n      add\n      tag_318\n      swap1\n      tag_319\n      jump\t// in\n    tag_318:\n      mload(0x40)\n      dup1\n      swap2\n      sub\n      swap1\n      revert\n    tag_317:\n        /* \"@openzeppelin/contracts/security/Pausable.sol\":1767:1873  function _requireNotPaused() internal view virtual {... */\n      jump\t// out\n        /* \"@openzeppelin/contracts/utils/structs/EnumerableSet.sol\":10785:10914  function add(UintSet storage set, uint256 value) internal returns (bool) {... */\n    tag_191:\n        /* \"@openzeppelin/contracts/utils/structs/EnumerableSet.sol\":10852:10856  bool */\n      0x00\n        /* \"@openzeppelin/contracts/utils/structs/EnumerableSet.sol\":10875:10907  _add(set._inner, bytes32(value)) */\n      tag_321\n        /* \"@openzeppelin/contracts/utils/structs/EnumerableSet.sol\":10880:10883  set */\n      dup4\n        /* \"@openzeppelin/contracts/utils/structs/EnumerableSet.sol\":10880:10890  set._inner */\n      0x00\n      add\n        /* \"@openzeppelin/contracts/utils/structs/EnumerableSet.sol\":10900:10905  value */\n      dup4\n        /* \"@openzeppelin/contracts/utils/structs/EnumerableSet.sol\":10892:10906  bytes32(value) */\n      0x00\n      shl\n        /* \"@openzeppelin/contracts/utils/structs/EnumerableSet.sol\":10875:10879  _add */\n      tag_322\n        /* \"@openzeppelin/contracts/utils/structs/EnumerableSet.sol\":10875:10907  _add(set._inner, bytes32(value)) */\n      jump\t// in\n    tag_321:\n        /* \"@openzeppelin/contracts/utils/structs/EnumerableSet.sol\":10868:10907  return _add(set._inner, bytes32(value)) */\n      swap1\n      pop\n        /* \"@openzeppelin/contracts/utils/structs/EnumerableSet.sol\":10785:10914  function add(UintSet storage set, uint256 value) internal returns (bool) {... */\n      swap3\n      swap2\n      pop\n      pop\n      jump\t// out\n        /* \"@openzeppelin/contracts/access/Ownable.sol\":2433:2620  function _transferOwnership(address newOwner) internal virtual {... */\n    tag_220:\n        /* \"@openzeppelin/contracts/access/Ownable.sol\":2506:2522  address oldOwner */\n      0x00\n        /* \"@openzeppelin/contracts/access/Ownable.sol\":2525:2531  _owner */\n      dup1\n      0x00\n      swap1\n      sload\n      swap1\n      0x0100\n      exp\n      swap1\n      div\n      0xffffffffffffffffffffffffffffffffffffffff\n      and\n        /* \"@openzeppelin/contracts/access/Ownable.sol\":2506:2531  address oldOwner = _owner */\n      swap1\n      pop\n        /* \"@openzeppelin/contracts/access/Ownable.sol\":2550:2558  newOwner */\n      dup2\n        /* \"@openzeppelin/contracts/access/Ownable.sol\":2541:2547  _owner */\n      0x00\n      dup1\n        /* \"@openzeppelin/contracts/access/Ownable.sol\":2541:2558  _owner = newOwner */\n      0x0100\n      exp\n      dup2\n      sload\n      dup2\n      0xffffffffffffffffffffffffffffffffffffffff\n      mul\n      not\n      and\n      swap1\n      dup4\n      0xffffffffffffffffffffffffffffffffffffffff\n      and\n      mul\n      or\n      swap1\n      sstore\n      pop\n        /* \"@openzeppelin/contracts/access/Ownable.sol\":2604:2612  newOwner */\n      dup2\n        /* \"@openzeppelin/contracts/access/Ownable.sol\":2573:2613  OwnershipTransferred(oldOwner, newOwner) */\n      0xffffffffffffffffffffffffffffffffffffffff\n      and\n        /* \"@openzeppelin/contracts/access/Ownable.sol\":2594:2602  oldOwner */\n      dup2\n        /* \"@openzeppelin/contracts/access/Ownable.sol\":2573:2613  OwnershipTransferred(oldOwner, newOwner) */\n      0xffffffffffffffffffffffffffffffffffffffff\n      and\n      0x8be0079c531659141344cd1fd0a4f28419497f9722a3daafe3b4186f6b6457e0\n      mload(0x40)\n      mload(0x40)\n      dup1\n      swap2\n      sub\n      swap1\n      log3\n        /* \"@openzeppelin/contracts/access/Ownable.sol\":2496:2620  {... */\n      pop\n        /* \"@openzeppelin/contracts/access/Ownable.sol\":2433:2620  function _transferOwnership(address newOwner) internal virtual {... */\n      pop\n      jump\t// out\n        /* \"@openzeppelin/contracts/security/Pausable.sol\":2186:2301  function _pause() internal virtual whenNotPaused {... */\n    tag_225:\n        /* \"@openzeppelin/contracts/security/Pausable.sol\":1239:1258  _requireNotPaused() */\n      tag_325\n        /* \"@openzeppelin/contracts/security/Pausable.sol\":1239:1256  _requireNotPaused */\n      tag_169\n        /* \"@openzeppelin/contracts/security/Pausable.sol\":1239:1258  _requireNotPaused() */\n      jump\t// in\n    tag_325:\n        /* \"@openzeppelin/contracts/security/Pausable.sol\":2255:2259  true */\n      0x01\n        /* \"@openzeppelin/contracts/security/Pausable.sol\":2245:2252  _paused */\n      0x02\n      0x00\n        /* \"@openzeppelin/contracts/security/Pausable.sol\":2245:2259  _paused = true */\n      0x0100\n      exp\n      dup2\n      sload\n      dup2\n      0xff\n      mul\n      not\n      and\n      swap1\n      dup4\n      iszero\n      iszero\n      mul\n      or\n      swap1\n      sstore\n      pop\n        /* \"@openzeppelin/contracts/security/Pausable.sol\":2274:2294  Paused(_msgSender()) */\n      0x62e78cea01bee320cd4e420270b5ea74000d11b0c9f74754ebdbfc544b05a258\n        /* \"@openzeppelin/contracts/security/Pausable.sol\":2281:2293  _msgSender() */\n      tag_327\n        /* \"@openzeppelin/contracts/security/Pausable.sol\":2281:2291  _msgSender */\n      tag_304\n        /* \"@openzeppelin/contracts/security/Pausable.sol\":2281:2293  _msgSender() */\n      jump\t// in\n    tag_327:\n        /* \"@openzeppelin/contracts/security/Pausable.sol\":2274:2294  Paused(_msgSender()) */\n      mload(0x40)\n      tag_328\n      swap2\n      swap1\n      tag_33\n      jump\t// in\n    tag_328:\n      mload(0x40)\n      dup1\n      swap2\n      sub\n      swap1\n      log1\n        /* \"@openzeppelin/contracts/security/Pausable.sol\":2186:2301  function _pause() internal virtual whenNotPaused {... */\n      jump\t// out\n        /* \"@openzeppelin/contracts/security/ReentrancyGuard.sol\":2336:2623  function _nonReentrantBefore() private {... */\n    tag_243:\n        /* \"@openzeppelin/contracts/security/ReentrancyGuard.sol\":1759:1760  2 */\n      0x02\n        /* \"@openzeppelin/contracts/security/ReentrancyGuard.sol\":2468:2475  _status */\n      sload(0x01)\n        /* \"@openzeppelin/contracts/security/ReentrancyGuard.sol\":2468:2487  _status != _ENTERED */\n      sub\n        /* \"@openzeppelin/contracts/security/ReentrancyGuard.sol\":2460:2523  require(_status != _ENTERED, \"ReentrancyGuard: reentrant call\") */\n      tag_330\n      jumpi\n      mload(0x40)\n      0x08c379a000000000000000000000000000000000000000000000000000000000\n      dup2\n      mstore\n      0x04\n      add\n      tag_331\n      swap1\n      tag_332\n      jump\t// in\n    tag_331:\n      mload(0x40)\n      dup1\n      swap2\n      sub\n      swap1\n      revert\n    tag_330:\n        /* \"@openzeppelin/contracts/security/ReentrancyGuard.sol\":1759:1760  2 */\n      0x02\n        /* \"@openzeppelin/contracts/security/ReentrancyGuard.sol\":2598:2605  _status */\n      0x01\n        /* \"@openzeppelin/contracts/security/ReentrancyGuard.sol\":2598:2616  _status = _ENTERED */\n      dup2\n      swap1\n      sstore\n      pop\n        /* \"@openzeppelin/contracts/security/ReentrancyGuard.sol\":2336:2623  function _nonReentrantBefore() private {... */\n      jump\t// out\n        /* \"@openzeppelin/contracts/utils/structs/EnumerableSet.sol\":11082:11217  function remove(UintSet storage set, uint256 value) internal returns (bool) {... */\n    tag_261:\n        /* \"@openzeppelin/contracts/utils/structs/EnumerableSet.sol\":11152:11156  bool */\n      0x00\n        /* \"@openzeppelin/contracts/utils/structs/EnumerableSet.sol\":11175:11210  _remove(set._inner, bytes32(value)) */\n      tag_334\n        /* \"@openzeppelin/contracts/utils/structs/EnumerableSet.sol\":11183:11186  set */\n      dup4\n        /* \"@openzeppelin/contracts/utils/structs/EnumerableSet.sol\":11183:11193  set._inner */\n      0x00\n      add\n        /* \"@openzeppelin/contracts/utils/structs/EnumerableSet.sol\":11203:11208  value */\n      dup4\n        /* \"@openzeppelin/contracts/utils/structs/EnumerableSet.sol\":11195:11209  bytes32(value) */\n      0x00\n      shl\n        /* \"@openzeppelin/contracts/utils/structs/EnumerableSet.sol\":11175:11182  _remove */\n      tag_335\n        /* \"@openzeppelin/contracts/utils/structs/EnumerableSet.sol\":11175:11210  _remove(set._inner, bytes32(value)) */\n      jump\t// in\n    tag_334:\n        /* \"@openzeppelin/contracts/utils/structs/EnumerableSet.sol\":11168:11210  return _remove(set._inner, bytes32(value)) */\n      swap1\n      pop\n        /* \"@openzeppelin/contracts/utils/structs/EnumerableSet.sol\":11082:11217  function remove(UintSet storage set, uint256 value) internal returns (bool) {... */\n      swap3\n      swap2\n      pop\n      pop\n      jump\t// out\n        /* \"@openzeppelin/contracts/security/ReentrancyGuard.sol\":2629:2838  function _nonReentrantAfter() private {... */\n    tag_270:\n        /* \"@openzeppelin/contracts/security/ReentrancyGuard.sol\":1716:1717  1 */\n      0x01\n        /* \"@openzeppelin/contracts/security/ReentrancyGuard.sol\":2809:2816  _status */\n      dup1\n        /* \"@openzeppelin/contracts/security/ReentrancyGuard.sol\":2809:2831  _status = _NOT_ENTERED */\n      dup2\n      swap1\n      sstore\n      pop\n        /* \"@openzeppelin/contracts/security/ReentrancyGuard.sol\":2629:2838  function _nonReentrantAfter() private {... */\n      jump\t// out\n        /* \"@openzeppelin/contracts/utils/structs/EnumerableSet.sol\":11523:11635  function length(UintSet storage set) internal view returns (uint256) {... */\n    tag_276:\n        /* \"@openzeppelin/contracts/utils/structs/EnumerableSet.sol\":11583:11590  uint256 */\n      0x00\n        /* \"@openzeppelin/contracts/utils/structs/EnumerableSet.sol\":11609:11628  _length(set._inner) */\n      tag_338\n        /* \"@openzeppelin/contracts/utils/structs/EnumerableSet.sol\":11617:11620  set */\n      dup3\n        /* \"@openzeppelin/contracts/utils/structs/EnumerableSet.sol\":11617:11627  set._inner */\n      0x00\n      add\n        /* \"@openzeppelin/contracts/utils/structs/EnumerableSet.sol\":11609:11616  _length */\n      tag_339\n        /* \"@openzeppelin/contracts/utils/structs/EnumerableSet.sol\":11609:11628  _length(set._inner) */\n      jump\t// in\n    tag_338:\n        /* \"@openzeppelin/contracts/utils/structs/EnumerableSet.sol\":11602:11628  return _length(set._inner) */\n      swap1\n      pop\n        /* \"@openzeppelin/contracts/utils/structs/EnumerableSet.sol\":11523:11635  function length(UintSet storage set) internal view returns (uint256) {... */\n      swap2\n      swap1\n      pop\n      jump\t// out\n        /* \"@openzeppelin/contracts/utils/structs/EnumerableSet.sol\":11977:12112  function at(UintSet storage set, uint256 index) internal view returns (uint256) {... */\n    tag_285:\n        /* \"@openzeppelin/contracts/utils/structs/EnumerableSet.sol\":12048:12055  uint256 */\n      0x00\n        /* \"@openzeppelin/contracts/utils/structs/EnumerableSet.sol\":12082:12104  _at(set._inner, index) */\n      tag_341\n        /* \"@openzeppelin/contracts/utils/structs/EnumerableSet.sol\":12086:12089  set */\n      dup4\n        /* \"@openzeppelin/contracts/utils/structs/EnumerableSet.sol\":12086:12096  set._inner */\n      0x00\n      add\n        /* \"@openzeppelin/contracts/utils/structs/EnumerableSet.sol\":12098:12103  index */\n      dup4\n        /* \"@openzeppelin/contracts/utils/structs/EnumerableSet.sol\":12082:12085  _at */\n      tag_342\n        /* \"@openzeppelin/contracts/utils/structs/EnumerableSet.sol\":12082:12104  _at(set._inner, index) */\n      jump\t// in\n    tag_341:\n        /* \"@openzeppelin/contracts/utils/structs/EnumerableSet.sol\":12074:12105  uint256(_at(set._inner, index)) */\n      0x00\n      shr\n        /* \"@openzeppelin/contracts/utils/structs/EnumerableSet.sol\":12067:12105  return uint256(_at(set._inner, index)) */\n      swap1\n      pop\n        /* \"@openzeppelin/contracts/utils/structs/EnumerableSet.sol\":11977:12112  function at(UintSet storage set, uint256 index) internal view returns (uint256) {... */\n      swap3\n      swap2\n      pop\n      pop\n      jump\t// out\n        /* \"@openzeppelin/contracts/utils/structs/EnumerableSet.sol\":4247:4374  function _contains(Set storage set, bytes32 value) private view returns (bool) {... */\n    tag_301:\n        /* \"@openzeppelin/contracts/utils/structs/EnumerableSet.sol\":4320:4324  bool */\n      0x00\n        /* \"@openzeppelin/contracts/utils/structs/EnumerableSet.sol\":4366:4367  0 */\n      dup1\n        /* \"@openzeppelin/contracts/utils/structs/EnumerableSet.sol\":4343:4346  set */\n      dup4\n        /* \"@openzeppelin/contracts/utils/structs/EnumerableSet.sol\":4343:4355  set._indexes */\n      0x01\n      add\n        /* \"@openzeppelin/contracts/utils/structs/EnumerableSet.sol\":4343:4362  set._indexes[value] */\n      0x00\n        /* \"@openzeppelin/contracts/utils/structs/EnumerableSet.sol\":4356:4361  value */\n      dup5\n        /* \"@openzeppelin/contracts/utils/structs/EnumerableSet.sol\":4343:4362  set._indexes[value] */\n      dup2\n      mstore\n      0x20\n      add\n      swap1\n      dup2\n      mstore\n      0x20\n      add\n      0x00\n      keccak256\n      sload\n        /* \"@openzeppelin/contracts/utils/structs/EnumerableSet.sol\":4343:4367  set._indexes[value] != 0 */\n      eq\n      iszero\n        /* \"@openzeppelin/contracts/utils/structs/EnumerableSet.sol\":4336:4367  return set._indexes[value] != 0 */\n      swap1\n      pop\n        /* \"@openzeppelin/contracts/utils/structs/EnumerableSet.sol\":4247:4374  function _contains(Set storage set, bytes32 value) private view returns (bool) {... */\n      swap3\n      swap2\n      pop\n      pop\n      jump\t// out\n        /* \"@openzeppelin/contracts/utils/Context.sol\":640:736  function _msgSender() internal view virtual returns (address) {... */\n    tag_304:\n        /* \"@openzeppelin/contracts/utils/Context.sol\":693:700  address */\n      0x00\n        /* \"@openzeppelin/contracts/utils/Context.sol\":719:729  msg.sender */\n      caller\n        /* \"@openzeppelin/contracts/utils/Context.sol\":712:729  return msg.sender */\n      swap1\n      pop\n        /* \"@openzeppelin/contracts/utils/Context.sol\":640:736  function _msgSender() internal view virtual returns (address) {... */\n      swap1\n      jump\t// out\n        /* \"@openzeppelin/contracts/security/Pausable.sol\":1945:2051  function _requirePaused() internal view virtual {... */\n    tag_311:\n        /* \"@openzeppelin/contracts/security/Pausable.sol\":2011:2019  paused() */\n      tag_346\n        /* \"@openzeppelin/contracts/security/Pausable.sol\":2011:2017  paused */\n      tag_75\n        /* \"@openzeppelin/contracts/security/Pausable.sol\":2011:2019  paused() */\n      jump\t// in\n    tag_346:\n        /* \"@openzeppelin/contracts/security/Pausable.sol\":2003:2044  require(paused(), \"Pausable: not paused\") */\n      tag_347\n      jumpi\n      mload(0x40)\n      0x08c379a000000000000000000000000000000000000000000000000000000000\n      dup2\n      mstore\n      0x04\n      add\n      tag_348\n      swap1\n      tag_349\n      jump\t// in\n    tag_348:\n      mload(0x40)\n      dup1\n      swap2\n      sub\n      swap1\n      revert\n    tag_347:\n        /* \"@openzeppelin/contracts/security/Pausable.sol\":1945:2051  function _requirePaused() internal view virtual {... */\n      jump\t// out\n        /* \"@openzeppelin/contracts/utils/structs/EnumerableSet.sol\":2206:2610  function _add(Set storage set, bytes32 value) private returns (bool) {... */\n    tag_322:\n        /* \"@openzeppelin/contracts/utils/structs/EnumerableSet.sol\":2269:2273  bool */\n      0x00\n        /* \"@openzeppelin/contracts/utils/structs/EnumerableSet.sol\":2290:2311  _contains(set, value) */\n      tag_351\n        /* \"@openzeppelin/contracts/utils/structs/EnumerableSet.sol\":2300:2303  set */\n      dup4\n        /* \"@openzeppelin/contracts/utils/structs/EnumerableSet.sol\":2305:2310  value */\n      dup4\n        /* \"@openzeppelin/contracts/utils/structs/EnumerableSet.sol\":2290:2299  _contains */\n      tag_301\n        /* \"@openzeppelin/contracts/utils/structs/EnumerableSet.sol\":2290:2311  _contains(set, value) */\n      jump\t// in\n    tag_351:\n        /* \"@openzeppelin/contracts/utils/structs/EnumerableSet.sol\":2285:2604  if (!_contains(set, value)) {... */\n      tag_352\n      jumpi\n        /* \"@openzeppelin/contracts/utils/structs/EnumerableSet.sol\":2327:2330  set */\n      dup3\n        /* \"@openzeppelin/contracts/utils/structs/EnumerableSet.sol\":2327:2338  set._values */\n      0x00\n      add\n        /* \"@openzeppelin/contracts/utils/structs/EnumerableSet.sol\":2344:2349  value */\n      dup3\n        /* \"@openzeppelin/contracts/utils/structs/EnumerableSet.sol\":2327:2350  set._values.push(value) */\n      swap1\n      dup1\n      0x01\n      dup2\n      sload\n      add\n      dup1\n      dup3\n      sstore\n      dup1\n      swap2\n      pop\n      pop\n      0x01\n      swap1\n      sub\n      swap1\n      0x00\n      mstore\n      keccak256(0x00, 0x20)\n      add\n      0x00\n      swap1\n      swap2\n      swap1\n      swap2\n      swap1\n      swap2\n      pop\n      sstore\n        /* \"@openzeppelin/contracts/utils/structs/EnumerableSet.sol\":2507:2510  set */\n      dup3\n        /* \"@openzeppelin/contracts/utils/structs/EnumerableSet.sol\":2507:2518  set._values */\n      0x00\n      add\n        /* \"@openzeppelin/contracts/utils/structs/EnumerableSet.sol\":2507:2525  set._values.length */\n      dup1\n      sload\n      swap1\n      pop\n        /* \"@openzeppelin/contracts/utils/structs/EnumerableSet.sol\":2485:2488  set */\n      dup4\n        /* \"@openzeppelin/contracts/utils/structs/EnumerableSet.sol\":2485:2497  set._indexes */\n      0x01\n      add\n        /* \"@openzeppelin/contracts/utils/structs/EnumerableSet.sol\":2485:2504  set._indexes[value] */\n      0x00\n        /* \"@openzeppelin/contracts/utils/structs/EnumerableSet.sol\":2498:2503  value */\n      dup5\n        /* \"@openzeppelin/contracts/utils/structs/EnumerableSet.sol\":2485:2504  set._indexes[value] */\n      dup2\n      mstore\n      0x20\n      add\n      swap1\n      dup2\n      mstore\n      0x20\n      add\n      0x00\n      keccak256\n        /* \"@openzeppelin/contracts/utils/structs/EnumerableSet.sol\":2485:2525  set._indexes[value] = set._values.length */\n      dup2\n      swap1\n      sstore\n      pop\n        /* \"@openzeppelin/contracts/utils/structs/EnumerableSet.sol\":2546:2550  true */\n      0x01\n        /* \"@openzeppelin/contracts/utils/structs/EnumerableSet.sol\":2539:2550  return true */\n      swap1\n      pop\n      jump(tag_350)\n        /* \"@openzeppelin/contracts/utils/structs/EnumerableSet.sol\":2285:2604  if (!_contains(set, value)) {... */\n    tag_352:\n        /* \"@openzeppelin/contracts/utils/structs/EnumerableSet.sol\":2588:2593  false */\n      0x00\n        /* \"@openzeppelin/contracts/utils/structs/EnumerableSet.sol\":2581:2593  return false */\n      swap1\n      pop\n        /* \"@openzeppelin/contracts/utils/structs/EnumerableSet.sol\":2206:2610  function _add(Set storage set, bytes32 value) private returns (bool) {... */\n    tag_350:\n      swap3\n      swap2\n      pop\n      pop\n      jump\t// out\n        /* \"@openzeppelin/contracts/utils/structs/EnumerableSet.sol\":2778:4166  function _remove(Set storage set, bytes32 value) private returns (bool) {... */\n    tag_335:\n        /* \"@openzeppelin/contracts/utils/structs/EnumerableSet.sol\":2844:2848  bool */\n      0x00\n        /* \"@openzeppelin/contracts/utils/structs/EnumerableSet.sol\":2960:2978  uint256 valueIndex */\n      dup1\n        /* \"@openzeppelin/contracts/utils/structs/EnumerableSet.sol\":2981:2984  set */\n      dup4\n        /* \"@openzeppelin/contracts/utils/structs/EnumerableSet.sol\":2981:2993  set._indexes */\n      0x01\n      add\n        /* \"@openzeppelin/contracts/utils/structs/EnumerableSet.sol\":2981:3000  set._indexes[value] */\n      0x00\n        /* \"@openzeppelin/contracts/utils/structs/EnumerableSet.sol\":2994:2999  value */\n      dup5\n        /* \"@openzeppelin/contracts/utils/structs/EnumerableSet.sol\":2981:3000  set._indexes[value] */\n      dup2\n      mstore\n      0x20\n      add\n      swap1\n      dup2\n      mstore\n      0x20\n      add\n      0x00\n      keccak256\n      sload\n        /* \"@openzeppelin/contracts/utils/structs/EnumerableSet.sol\":2960:3000  uint256 valueIndex = set._indexes[value] */\n      swap1\n      pop\n        /* \"@openzeppelin/contracts/utils/structs/EnumerableSet.sol\":3029:3030  0 */\n      0x00\n        /* \"@openzeppelin/contracts/utils/structs/EnumerableSet.sol\":3015:3025  valueIndex */\n      dup2\n        /* \"@openzeppelin/contracts/utils/structs/EnumerableSet.sol\":3015:3030  valueIndex != 0 */\n      eq\n        /* \"@openzeppelin/contracts/utils/structs/EnumerableSet.sol\":3011:4160  if (valueIndex != 0) {... */\n      tag_356\n      jumpi\n        /* \"@openzeppelin/contracts/utils/structs/EnumerableSet.sol\":3384:3405  uint256 toDeleteIndex */\n      0x00\n        /* \"@openzeppelin/contracts/utils/structs/EnumerableSet.sol\":3421:3422  1 */\n      0x01\n        /* \"@openzeppelin/contracts/utils/structs/EnumerableSet.sol\":3408:3418  valueIndex */\n      dup3\n        /* \"@openzeppelin/contracts/utils/structs/EnumerableSet.sol\":3408:3422  valueIndex - 1 */\n      tag_357\n      swap2\n      swap1\n      tag_128\n      jump\t// in\n    tag_357:\n        /* \"@openzeppelin/contracts/utils/structs/EnumerableSet.sol\":3384:3422  uint256 toDeleteIndex = valueIndex - 1 */\n      swap1\n      pop\n        /* \"@openzeppelin/contracts/utils/structs/EnumerableSet.sol\":3436:3453  uint256 lastIndex */\n      0x00\n        /* \"@openzeppelin/contracts/utils/structs/EnumerableSet.sol\":3477:3478  1 */\n      0x01\n        /* \"@openzeppelin/contracts/utils/structs/EnumerableSet.sol\":3456:3459  set */\n      dup7\n        /* \"@openzeppelin/contracts/utils/structs/EnumerableSet.sol\":3456:3467  set._values */\n      0x00\n      add\n        /* \"@openzeppelin/contracts/utils/structs/EnumerableSet.sol\":3456:3474  set._values.length */\n      dup1\n      sload\n      swap1\n      pop\n        /* \"@openzeppelin/contracts/utils/structs/EnumerableSet.sol\":3456:3478  set._values.length - 1 */\n      tag_358\n      swap2\n      swap1\n      tag_128\n      jump\t// in\n    tag_358:\n        /* \"@openzeppelin/contracts/utils/structs/EnumerableSet.sol\":3436:3478  uint256 lastIndex = set._values.length - 1 */\n      swap1\n      pop\n        /* \"@openzeppelin/contracts/utils/structs/EnumerableSet.sol\":3510:3523  toDeleteIndex */\n      dup2\n        /* \"@openzeppelin/contracts/utils/structs/EnumerableSet.sol\":3497:3506  lastIndex */\n      dup2\n        /* \"@openzeppelin/contracts/utils/structs/EnumerableSet.sol\":3497:3523  lastIndex != toDeleteIndex */\n      eq\n        /* \"@openzeppelin/contracts/utils/structs/EnumerableSet.sol\":3493:3891  if (lastIndex != toDeleteIndex) {... */\n      tag_359\n      jumpi\n        /* \"@openzeppelin/contracts/utils/structs/EnumerableSet.sol\":3543:3560  bytes32 lastValue */\n      0x00\n        /* \"@openzeppelin/contracts/utils/structs/EnumerableSet.sol\":3563:3566  set */\n      dup7\n        /* \"@openzeppelin/contracts/utils/structs/EnumerableSet.sol\":3563:3574  set._values */\n      0x00\n      add\n        /* \"@openzeppelin/contracts/utils/structs/EnumerableSet.sol\":3575:3584  lastIndex */\n      dup3\n        /* \"@openzeppelin/contracts/utils/structs/EnumerableSet.sol\":3563:3585  set._values[lastIndex] */\n      dup2\n      sload\n      dup2\n      lt\n      tag_360\n      jumpi\n      tag_361\n      tag_124\n      jump\t// in\n    tag_361:\n    tag_360:\n      swap1\n      0x00\n      mstore\n      keccak256(0x00, 0x20)\n      add\n      sload\n        /* \"@openzeppelin/contracts/utils/structs/EnumerableSet.sol\":3543:3585  bytes32 lastValue = set._values[lastIndex] */\n      swap1\n      pop\n        /* \"@openzeppelin/contracts/utils/structs/EnumerableSet.sol\":3714:3723  lastValue */\n      dup1\n        /* \"@openzeppelin/contracts/utils/structs/EnumerableSet.sol\":3685:3688  set */\n      dup8\n        /* \"@openzeppelin/contracts/utils/structs/EnumerableSet.sol\":3685:3696  set._values */\n      0x00\n      add\n        /* \"@openzeppelin/contracts/utils/structs/EnumerableSet.sol\":3697:3710  toDeleteIndex */\n      dup5\n        /* \"@openzeppelin/contracts/utils/structs/EnumerableSet.sol\":3685:3711  set._values[toDeleteIndex] */\n      dup2\n      sload\n      dup2\n      lt\n      tag_363\n      jumpi\n      tag_364\n      tag_124\n      jump\t// in\n    tag_364:\n    tag_363:\n      swap1\n      0x00\n      mstore\n      keccak256(0x00, 0x20)\n      add\n        /* \"@openzeppelin/contracts/utils/structs/EnumerableSet.sol\":3685:3723  set._values[toDeleteIndex] = lastValue */\n      dup2\n      swap1\n      sstore\n      pop\n        /* \"@openzeppelin/contracts/utils/structs/EnumerableSet.sol\":3823:3833  valueIndex */\n      dup4\n        /* \"@openzeppelin/contracts/utils/structs/EnumerableSet.sol\":3797:3800  set */\n      dup8\n        /* \"@openzeppelin/contracts/utils/structs/EnumerableSet.sol\":3797:3809  set._indexes */\n      0x01\n      add\n        /* \"@openzeppelin/contracts/utils/structs/EnumerableSet.sol\":3797:3820  set._indexes[lastValue] */\n      0x00\n        /* \"@openzeppelin/contracts/utils/structs/EnumerableSet.sol\":3810:3819  lastValue */\n      dup4\n        /* \"@openzeppelin/contracts/utils/structs/EnumerableSet.sol\":3797:3820  set._indexes[lastValue] */\n      dup2\n      mstore\n      0x20\n      add\n      swap1\n      dup2\n      mstore\n      0x20\n      add\n      0x00\n      keccak256\n        /* \"@openzeppelin/contracts/utils/structs/EnumerableSet.sol\":3797:3833  set._indexes[lastValue] = valueIndex */\n      dup2\n      swap1\n      sstore\n      pop\n        /* \"@openzeppelin/contracts/utils/structs/EnumerableSet.sol\":3525:3891  {... */\n      pop\n        /* \"@openzeppelin/contracts/utils/structs/EnumerableSet.sol\":3493:3891  if (lastIndex != toDeleteIndex) {... */\n    tag_359:\n        /* \"@openzeppelin/contracts/utils/structs/EnumerableSet.sol\":3969:3972  set */\n      dup6\n        /* \"@openzeppelin/contracts/utils/structs/EnumerableSet.sol\":3969:3980  set._values */\n      0x00\n      add\n        /* \"@openzeppelin/contracts/utils/structs/EnumerableSet.sol\":3969:3986  set._values.pop() */\n      dup1\n      sload\n      dup1\n      tag_366\n      jumpi\n      tag_367\n      tag_368\n      jump\t// in\n    tag_367:\n    tag_366:\n      0x01\n      swap1\n      sub\n      dup2\n      dup2\n      swap1\n      0x00\n      mstore\n      keccak256(0x00, 0x20)\n      add\n      0x00\n      swap1\n      sstore\n      swap1\n      sstore\n        /* \"@openzeppelin/contracts/utils/structs/EnumerableSet.sol\":4061:4064  set */\n      dup6\n        /* \"@openzeppelin/contracts/utils/structs/EnumerableSet.sol\":4061:4073  set._indexes */\n      0x01\n      add\n        /* \"@openzeppelin/contracts/utils/structs/EnumerableSet.sol\":4061:4080  set._indexes[value] */\n      0x00\n        /* \"@openzeppelin/contracts/utils/structs/EnumerableSet.sol\":4074:4079  value */\n      dup7\n        /* \"@openzeppelin/contracts/utils/structs/EnumerableSet.sol\":4061:4080  set._indexes[value] */\n      dup2\n      mstore\n      0x20\n      add\n      swap1\n      dup2\n      mstore\n      0x20\n      add\n      0x00\n      keccak256\n        /* \"@openzeppelin/contracts/utils/structs/EnumerableSet.sol\":4054:4080  delete set._indexes[value] */\n      0x00\n      swap1\n      sstore\n        /* \"@openzeppelin/contracts/utils/structs/EnumerableSet.sol\":4102:4106  true */\n      0x01\n        /* \"@openzeppelin/contracts/utils/structs/EnumerableSet.sol\":4095:4106  return true */\n      swap4\n      pop\n      pop\n      pop\n      pop\n      jump(tag_355)\n        /* \"@openzeppelin/contracts/utils/structs/EnumerableSet.sol\":3011:4160  if (valueIndex != 0) {... */\n    tag_356:\n        /* \"@openzeppelin/contracts/utils/structs/EnumerableSet.sol\":4144:4149  false */\n      0x00\n        /* \"@openzeppelin/contracts/utils/structs/EnumerableSet.sol\":4137:4149  return false */\n      swap2\n      pop\n      pop\n        /* \"@openzeppelin/contracts/utils/structs/EnumerableSet.sol\":2778:4166  function _remove(Set storage set, bytes32 value) private returns (bool) {... */\n    tag_355:\n      swap3\n      swap2\n      pop\n      pop\n      jump\t// out\n        /* \"@openzeppelin/contracts/utils/structs/EnumerableSet.sol\":4455:4562  function _length(Set storage set) private view returns (uint256) {... */\n    tag_339:\n        /* \"@openzeppelin/contracts/utils/structs/EnumerableSet.sol\":4511:4518  uint256 */\n      0x00\n        /* \"@openzeppelin/contracts/utils/structs/EnumerableSet.sol\":4537:4540  set */\n      dup2\n        /* \"@openzeppelin/contracts/utils/structs/EnumerableSet.sol\":4537:4548  set._values */\n      0x00\n      add\n        /* \"@openzeppelin/contracts/utils/structs/EnumerableSet.sol\":4537:4555  set._values.length */\n      dup1\n      sload\n      swap1\n      pop\n        /* \"@openzeppelin/contracts/utils/structs/EnumerableSet.sol\":4530:4555  return set._values.length */\n      swap1\n      pop\n        /* \"@openzeppelin/contracts/utils/structs/EnumerableSet.sol\":4455:4562  function _length(Set storage set) private view returns (uint256) {... */\n      swap2\n      swap1\n      pop\n      jump\t// out\n        /* \"@openzeppelin/contracts/utils/structs/EnumerableSet.sol\":4904:5022  function _at(Set storage set, uint256 index) private view returns (bytes32) {... */\n    tag_342:\n        /* \"@openzeppelin/contracts/utils/structs/EnumerableSet.sol\":4971:4978  bytes32 */\n      0x00\n        /* \"@openzeppelin/contracts/utils/structs/EnumerableSet.sol\":4997:5000  set */\n      dup3\n        /* \"@openzeppelin/contracts/utils/structs/EnumerableSet.sol\":4997:5008  set._values */\n      0x00\n      add\n        /* \"@openzeppelin/contracts/utils/structs/EnumerableSet.sol\":5009:5014  index */\n      dup3\n        /* \"@openzeppelin/contracts/utils/structs/EnumerableSet.sol\":4997:5015  set._values[index] */\n      dup2\n      sload\n      dup2\n      lt\n      tag_373\n      jumpi\n      tag_374\n      tag_124\n      jump\t// in\n    tag_374:\n    tag_373:\n      swap1\n      0x00\n      mstore\n      keccak256(0x00, 0x20)\n      add\n      sload\n        /* \"@openzeppelin/contracts/utils/structs/EnumerableSet.sol\":4990:5015  return set._values[index] */\n      swap1\n      pop\n        /* \"@openzeppelin/contracts/utils/structs/EnumerableSet.sol\":4904:5022  function _at(Set storage set, uint256 index) private view returns (bytes32) {... */\n      swap3\n      swap2\n      pop\n      pop\n      jump\t// out\n        /* \"#utility.yul\":7:133   */\n    tag_376:\n        /* \"#utility.yul\":44:51   */\n      0x00\n        /* \"#utility.yul\":84:126   */\n      0xffffffffffffffffffffffffffffffffffffffff\n        /* \"#utility.yul\":77:82   */\n      dup3\n        /* \"#utility.yul\":73:127   */\n      and\n        /* \"#utility.yul\":62:127   */\n      swap1\n      pop\n        /* \"#utility.yul\":7:133   */\n      swap2\n      swap1\n      pop\n      jump\t// out\n        /* \"#utility.yul\":139:235   */\n    tag_377:\n        /* \"#utility.yul\":176:183   */\n      0x00\n        /* \"#utility.yul\":205:229   */\n      tag_437\n        /* \"#utility.yul\":223:228   */\n      dup3\n        /* \"#utility.yul\":205:229   */\n      tag_376\n      jump\t// in\n    tag_437:\n        /* \"#utility.yul\":194:229   */\n      swap1\n      pop\n        /* \"#utility.yul\":139:235   */\n      swap2\n      swap1\n      pop\n      jump\t// out\n        /* \"#utility.yul\":241:359   */\n    tag_378:\n        /* \"#utility.yul\":328:352   */\n      tag_439\n        /* \"#utility.yul\":346:351   */\n      dup2\n        /* \"#utility.yul\":328:352   */\n      tag_377\n      jump\t// in\n    tag_439:\n        /* \"#utility.yul\":323:326   */\n      dup3\n        /* \"#utility.yul\":316:353   */\n      mstore\n        /* \"#utility.yul\":241:359   */\n      pop\n      pop\n      jump\t// out\n        /* \"#utility.yul\":365:587   */\n    tag_33:\n        /* \"#utility.yul\":458:462   */\n      0x00\n        /* \"#utility.yul\":496:498   */\n      0x20\n        /* \"#utility.yul\":485:494   */\n      dup3\n        /* \"#utility.yul\":481:499   */\n      add\n        /* \"#utility.yul\":473:499   */\n      swap1\n      pop\n        /* \"#utility.yul\":509:580   */\n      tag_441\n        /* \"#utility.yul\":577:578   */\n      0x00\n        /* \"#utility.yul\":566:575   */\n      dup4\n        /* \"#utility.yul\":562:579   */\n      add\n        /* \"#utility.yul\":553:559   */\n      dup5\n        /* \"#utility.yul\":509:580   */\n      tag_378\n      jump\t// in\n    tag_441:\n        /* \"#utility.yul\":365:587   */\n      swap3\n      swap2\n      pop\n      pop\n      jump\t// out\n        /* \"#utility.yul\":593:668   */\n    tag_379:\n        /* \"#utility.yul\":626:632   */\n      0x00\n        /* \"#utility.yul\":659:661   */\n      0x40\n        /* \"#utility.yul\":653:662   */\n      mload\n        /* \"#utility.yul\":643:662   */\n      swap1\n      pop\n        /* \"#utility.yul\":593:668   */\n      swap1\n      jump\t// out\n        /* \"#utility.yul\":674:791   */\n    tag_380:\n        /* \"#utility.yul\":783:784   */\n      0x00\n        /* \"#utility.yul\":780:781   */\n      dup1\n        /* \"#utility.yul\":773:785   */\n      revert\n        /* \"#utility.yul\":797:914   */\n    tag_381:\n        /* \"#utility.yul\":906:907   */\n      0x00\n        /* \"#utility.yul\":903:904   */\n      dup1\n        /* \"#utility.yul\":896:908   */\n      revert\n        /* \"#utility.yul\":920:1042   */\n    tag_382:\n        /* \"#utility.yul\":993:1017   */\n      tag_446\n        /* \"#utility.yul\":1011:1016   */\n      dup2\n        /* \"#utility.yul\":993:1017   */\n      tag_377\n      jump\t// in\n    tag_446:\n        /* \"#utility.yul\":986:991   */\n      dup2\n        /* \"#utility.yul\":983:1018   */\n      eq\n        /* \"#utility.yul\":973:1036   */\n      tag_447\n      jumpi\n        /* \"#utility.yul\":1032:1033   */\n      0x00\n        /* \"#utility.yul\":1029:1030   */\n      dup1\n        /* \"#utility.yul\":1022:1034   */\n      revert\n        /* \"#utility.yul\":973:1036   */\n    tag_447:\n        /* \"#utility.yul\":920:1042   */\n      pop\n      jump\t// out\n        /* \"#utility.yul\":1048:1187   */\n    tag_383:\n        /* \"#utility.yul\":1094:1099   */\n      0x00\n        /* \"#utility.yul\":1132:1138   */\n      dup2\n        /* \"#utility.yul\":1119:1139   */\n      calldataload\n        /* \"#utility.yul\":1110:1139   */\n      swap1\n      pop\n        /* \"#utility.yul\":1148:1181   */\n      tag_449\n        /* \"#utility.yul\":1175:1180   */\n      dup2\n        /* \"#utility.yul\":1148:1181   */\n      tag_382\n      jump\t// in\n    tag_449:\n        /* \"#utility.yul\":1048:1187   */\n      swap3\n      swap2\n      pop\n      pop\n      jump\t// out\n        /* \"#utility.yul\":1193:1310   */\n    tag_384:\n        /* \"#utility.yul\":1302:1303   */\n      0x00\n        /* \"#utility.yul\":1299:1300   */\n      dup1\n        /* \"#utility.yul\":1292:1304   */\n      revert\n        /* \"#utility.yul\":1316:1418   */\n    tag_385:\n        /* \"#utility.yul\":1357:1363   */\n      0x00\n        /* \"#utility.yul\":1408:1410   */\n      0x1f\n        /* \"#utility.yul\":1404:1411   */\n      not\n        /* \"#utility.yul\":1399:1401   */\n      0x1f\n        /* \"#utility.yul\":1392:1397   */\n      dup4\n        /* \"#utility.yul\":1388:1402   */\n      add\n        /* \"#utility.yul\":1384:1412   */\n      and\n        /* \"#utility.yul\":1374:1412   */\n      swap1\n      pop\n        /* \"#utility.yul\":1316:1418   */\n      swap2\n      swap1\n      pop\n      jump\t// out\n        /* \"#utility.yul\":1424:1604   */\n    tag_117:\n        /* \"#utility.yul\":1472:1549   */\n      0x4e487b7100000000000000000000000000000000000000000000000000000000\n        /* \"#utility.yul\":1469:1470   */\n      0x00\n        /* \"#utility.yul\":1462:1550   */\n      mstore\n        /* \"#utility.yul\":1569:1573   */\n      0x41\n        /* \"#utility.yul\":1566:1567   */\n      0x04\n        /* \"#utility.yul\":1559:1574   */\n      mstore\n        /* \"#utility.yul\":1593:1597   */\n      0x24\n        /* \"#utility.yul\":1590:1591   */\n      0x00\n        /* \"#utility.yul\":1583:1598   */\n      revert\n        /* \"#utility.yul\":1610:1891   */\n    tag_386:\n        /* \"#utility.yul\":1693:1720   */\n      tag_454\n        /* \"#utility.yul\":1715:1719   */\n      dup3\n        /* \"#utility.yul\":1693:1720   */\n      tag_385\n      jump\t// in\n    tag_454:\n        /* \"#utility.yul\":1685:1691   */\n      dup2\n        /* \"#utility.yul\":1681:1721   */\n      add\n        /* \"#utility.yul\":1823:1829   */\n      dup2\n        /* \"#utility.yul\":1811:1821   */\n      dup2\n        /* \"#utility.yul\":1808:1830   */\n      lt\n        /* \"#utility.yul\":1787:1805   */\n      0xffffffffffffffff\n        /* \"#utility.yul\":1775:1785   */\n      dup3\n        /* \"#utility.yul\":1772:1806   */\n      gt\n        /* \"#utility.yul\":1769:1831   */\n      or\n        /* \"#utility.yul\":1766:1854   */\n      iszero\n      tag_455\n      jumpi\n        /* \"#utility.yul\":1834:1852   */\n      tag_456\n      tag_117\n      jump\t// in\n    tag_456:\n        /* \"#utility.yul\":1766:1854   */\n    tag_455:\n        /* \"#utility.yul\":1874:1884   */\n      dup1\n        /* \"#utility.yul\":1870:1872   */\n      0x40\n        /* \"#utility.yul\":1863:1885   */\n      mstore\n        /* \"#utility.yul\":1653:1891   */\n      pop\n        /* \"#utility.yul\":1610:1891   */\n      pop\n      pop\n      jump\t// out\n        /* \"#utility.yul\":1897:2026   */\n    tag_387:\n        /* \"#utility.yul\":1931:1937   */\n      0x00\n        /* \"#utility.yul\":1958:1978   */\n      tag_458\n      tag_379\n      jump\t// in\n    tag_458:\n        /* \"#utility.yul\":1948:1978   */\n      swap1\n      pop\n        /* \"#utility.yul\":1987:2020   */\n      tag_459\n        /* \"#utility.yul\":2015:2019   */\n      dup3\n        /* \"#utility.yul\":2007:2013   */\n      dup3\n        /* \"#utility.yul\":1987:2020   */\n      tag_386\n      jump\t// in\n    tag_459:\n        /* \"#utility.yul\":1897:2026   */\n      swap2\n      swap1\n      pop\n      jump\t// out\n        /* \"#utility.yul\":2032:2343   */\n    tag_388:\n        /* \"#utility.yul\":2109:2113   */\n      0x00\n        /* \"#utility.yul\":2199:2217   */\n      0xffffffffffffffff\n        /* \"#utility.yul\":2191:2197   */\n      dup3\n        /* \"#utility.yul\":2188:2218   */\n      gt\n        /* \"#utility.yul\":2185:2241   */\n      iszero\n      tag_461\n      jumpi\n        /* \"#utility.yul\":2221:2239   */\n      tag_462\n      tag_117\n      jump\t// in\n    tag_462:\n        /* \"#utility.yul\":2185:2241   */\n    tag_461:\n        /* \"#utility.yul\":2271:2275   */\n      0x20\n        /* \"#utility.yul\":2263:2269   */\n      dup3\n        /* \"#utility.yul\":2259:2276   */\n      mul\n        /* \"#utility.yul\":2251:2276   */\n      swap1\n      pop\n        /* \"#utility.yul\":2331:2335   */\n      0x20\n        /* \"#utility.yul\":2325:2329   */\n      dup2\n        /* \"#utility.yul\":2321:2336   */\n      add\n        /* \"#utility.yul\":2313:2336   */\n      swap1\n      pop\n        /* \"#utility.yul\":2032:2343   */\n      swap2\n      swap1\n      pop\n      jump\t// out\n        /* \"#utility.yul\":2349:2466   */\n    tag_389:\n        /* \"#utility.yul\":2458:2459   */\n      0x00\n        /* \"#utility.yul\":2455:2456   */\n      dup1\n        /* \"#utility.yul\":2448:2460   */\n      revert\n        /* \"#utility.yul\":2472:2549   */\n    tag_390:\n        /* \"#utility.yul\":2509:2516   */\n      0x00\n        /* \"#utility.yul\":2538:2543   */\n      dup2\n        /* \"#utility.yul\":2527:2543   */\n      swap1\n      pop\n        /* \"#utility.yul\":2472:2549   */\n      swap2\n      swap1\n      pop\n      jump\t// out\n        /* \"#utility.yul\":2555:2677   */\n    tag_391:\n        /* \"#utility.yul\":2628:2652   */\n      tag_466\n        /* \"#utility.yul\":2646:2651   */\n      dup2\n        /* \"#utility.yul\":2628:2652   */\n      tag_390\n      jump\t// in\n    tag_466:\n        /* \"#utility.yul\":2621:2626   */\n      dup2\n        /* \"#utility.yul\":2618:2653   */\n      eq\n        /* \"#utility.yul\":2608:2671   */\n      tag_467\n      jumpi\n        /* \"#utility.yul\":2667:2668   */\n      0x00\n        /* \"#utility.yul\":2664:2665   */\n      dup1\n        /* \"#utility.yul\":2657:2669   */\n      revert\n        /* \"#utility.yul\":2608:2671   */\n    tag_467:\n        /* \"#utility.yul\":2555:2677   */\n      pop\n      jump\t// out\n        /* \"#utility.yul\":2683:2822   */\n    tag_392:\n        /* \"#utility.yul\":2729:2734   */\n      0x00\n        /* \"#utility.yul\":2767:2773   */\n      dup2\n        /* \"#utility.yul\":2754:2774   */\n      calldataload\n        /* \"#utility.yul\":2745:2774   */\n      swap1\n      pop\n        /* \"#utility.yul\":2783:2816   */\n      tag_469\n        /* \"#utility.yul\":2810:2815   */\n      dup2\n        /* \"#utility.yul\":2783:2816   */\n      tag_391\n      jump\t// in\n    tag_469:\n        /* \"#utility.yul\":2683:2822   */\n      swap3\n      swap2\n      pop\n      pop\n      jump\t// out\n        /* \"#utility.yul\":2845:3555   */\n    tag_393:\n        /* \"#utility.yul\":2941:2946   */\n      0x00\n        /* \"#utility.yul\":2966:3047   */\n      tag_471\n        /* \"#utility.yul\":2982:3046   */\n      tag_472\n        /* \"#utility.yul\":3039:3045   */\n      dup5\n        /* \"#utility.yul\":2982:3046   */\n      tag_388\n      jump\t// in\n    tag_472:\n        /* \"#utility.yul\":2966:3047   */\n      tag_387\n      jump\t// in\n    tag_471:\n        /* \"#utility.yul\":2957:3047   */\n      swap1\n      pop\n        /* \"#utility.yul\":3067:3072   */\n      dup1\n        /* \"#utility.yul\":3096:3102   */\n      dup4\n        /* \"#utility.yul\":3089:3094   */\n      dup3\n        /* \"#utility.yul\":3082:3103   */\n      mstore\n        /* \"#utility.yul\":3130:3134   */\n      0x20\n        /* \"#utility.yul\":3123:3128   */\n      dup3\n        /* \"#utility.yul\":3119:3135   */\n      add\n        /* \"#utility.yul\":3112:3135   */\n      swap1\n      pop\n        /* \"#utility.yul\":3183:3187   */\n      0x20\n        /* \"#utility.yul\":3175:3181   */\n      dup5\n        /* \"#utility.yul\":3171:3188   */\n      mul\n        /* \"#utility.yul\":3163:3169   */\n      dup4\n        /* \"#utility.yul\":3159:3189   */\n      add\n        /* \"#utility.yul\":3212:3215   */\n      dup6\n        /* \"#utility.yul\":3204:3210   */\n      dup2\n        /* \"#utility.yul\":3201:3216   */\n      gt\n        /* \"#utility.yul\":3198:3320   */\n      iszero\n      tag_473\n      jumpi\n        /* \"#utility.yul\":3231:3310   */\n      tag_474\n      tag_389\n      jump\t// in\n    tag_474:\n        /* \"#utility.yul\":3198:3320   */\n    tag_473:\n        /* \"#utility.yul\":3346:3352   */\n      dup4\n        /* \"#utility.yul\":3329:3549   */\n    tag_475:\n        /* \"#utility.yul\":3363:3369   */\n      dup2\n        /* \"#utility.yul\":3358:3361   */\n      dup2\n        /* \"#utility.yul\":3355:3370   */\n      lt\n        /* \"#utility.yul\":3329:3549   */\n      iszero\n      tag_477\n      jumpi\n        /* \"#utility.yul\":3438:3441   */\n      dup1\n        /* \"#utility.yul\":3467:3504   */\n      tag_478\n        /* \"#utility.yul\":3500:3503   */\n      dup9\n        /* \"#utility.yul\":3488:3498   */\n      dup3\n        /* \"#utility.yul\":3467:3504   */\n      tag_392\n      jump\t// in\n    tag_478:\n        /* \"#utility.yul\":3462:3465   */\n      dup5\n        /* \"#utility.yul\":3455:3505   */\n      mstore\n        /* \"#utility.yul\":3534:3538   */\n      0x20\n        /* \"#utility.yul\":3529:3532   */\n      dup5\n        /* \"#utility.yul\":3525:3539   */\n      add\n        /* \"#utility.yul\":3518:3539   */\n      swap4\n      pop\n        /* \"#utility.yul\":3405:3549   */\n      pop\n        /* \"#utility.yul\":3389:3393   */\n      0x20\n        /* \"#utility.yul\":3384:3387   */\n      dup2\n        /* \"#utility.yul\":3380:3394   */\n      add\n        /* \"#utility.yul\":3373:3394   */\n      swap1\n      pop\n        /* \"#utility.yul\":3329:3549   */\n      jump(tag_475)\n    tag_477:\n        /* \"#utility.yul\":3333:3354   */\n      pop\n        /* \"#utility.yul\":2947:3555   */\n      pop\n      pop\n        /* \"#utility.yul\":2845:3555   */\n      swap4\n      swap3\n      pop\n      pop\n      pop\n      jump\t// out\n        /* \"#utility.yul\":3578:3948   */\n    tag_394:\n        /* \"#utility.yul\":3649:3654   */\n      0x00\n        /* \"#utility.yul\":3698:3701   */\n      dup3\n        /* \"#utility.yul\":3691:3695   */\n      0x1f\n        /* \"#utility.yul\":3683:3689   */\n      dup4\n        /* \"#utility.yul\":3679:3696   */\n      add\n        /* \"#utility.yul\":3675:3702   */\n      slt\n        /* \"#utility.yul\":3665:3787   */\n      tag_480\n      jumpi\n        /* \"#utility.yul\":3706:3785   */\n      tag_481\n      tag_384\n      jump\t// in\n    tag_481:\n        /* \"#utility.yul\":3665:3787   */\n    tag_480:\n        /* \"#utility.yul\":3823:3829   */\n      dup2\n        /* \"#utility.yul\":3810:3830   */\n      calldataload\n        /* \"#utility.yul\":3848:3942   */\n      tag_482\n        /* \"#utility.yul\":3938:3941   */\n      dup5\n        /* \"#utility.yul\":3930:3936   */\n      dup3\n        /* \"#utility.yul\":3923:3927   */\n      0x20\n        /* \"#utility.yul\":3915:3921   */\n      dup7\n        /* \"#utility.yul\":3911:3928   */\n      add\n        /* \"#utility.yul\":3848:3942   */\n      tag_393\n      jump\t// in\n    tag_482:\n        /* \"#utility.yul\":3839:3942   */\n      swap2\n      pop\n        /* \"#utility.yul\":3655:3948   */\n      pop\n        /* \"#utility.yul\":3578:3948   */\n      swap3\n      swap2\n      pop\n      pop\n      jump\t// out\n        /* \"#utility.yul\":3954:4638   */\n    tag_36:\n        /* \"#utility.yul\":4047:4053   */\n      0x00\n        /* \"#utility.yul\":4055:4061   */\n      dup1\n        /* \"#utility.yul\":4104:4106   */\n      0x40\n        /* \"#utility.yul\":4092:4101   */\n      dup4\n        /* \"#utility.yul\":4083:4090   */\n      dup6\n        /* \"#utility.yul\":4079:4102   */\n      sub\n        /* \"#utility.yul\":4075:4107   */\n      slt\n        /* \"#utility.yul\":4072:4191   */\n      iszero\n      tag_484\n      jumpi\n        /* \"#utility.yul\":4110:4189   */\n      tag_485\n      tag_380\n      jump\t// in\n    tag_485:\n        /* \"#utility.yul\":4072:4191   */\n    tag_484:\n        /* \"#utility.yul\":4230:4231   */\n      0x00\n        /* \"#utility.yul\":4255:4308   */\n      tag_486\n        /* \"#utility.yul\":4300:4307   */\n      dup6\n        /* \"#utility.yul\":4291:4297   */\n      dup3\n        /* \"#utility.yul\":4280:4289   */\n      dup7\n        /* \"#utility.yul\":4276:4298   */\n      add\n        /* \"#utility.yul\":4255:4308   */\n      tag_383\n      jump\t// in\n    tag_486:\n        /* \"#utility.yul\":4245:4308   */\n      swap3\n      pop\n        /* \"#utility.yul\":4201:4318   */\n      pop\n        /* \"#utility.yul\":4385:4387   */\n      0x20\n        /* \"#utility.yul\":4374:4383   */\n      dup4\n        /* \"#utility.yul\":4370:4388   */\n      add\n        /* \"#utility.yul\":4357:4389   */\n      calldataload\n        /* \"#utility.yul\":4416:4434   */\n      0xffffffffffffffff\n        /* \"#utility.yul\":4408:4414   */\n      dup2\n        /* \"#utility.yul\":4405:4435   */\n      gt\n        /* \"#utility.yul\":4402:4519   */\n      iszero\n      tag_487\n      jumpi\n        /* \"#utility.yul\":4438:4517   */\n      tag_488\n      tag_381\n      jump\t// in\n    tag_488:\n        /* \"#utility.yul\":4402:4519   */\n    tag_487:\n        /* \"#utility.yul\":4543:4621   */\n      tag_489\n        /* \"#utility.yul\":4613:4620   */\n      dup6\n        /* \"#utility.yul\":4604:4610   */\n      dup3\n        /* \"#utility.yul\":4593:4602   */\n      dup7\n        /* \"#utility.yul\":4589:4611   */\n      add\n        /* \"#utility.yul\":4543:4621   */\n      tag_394\n      jump\t// in\n    tag_489:\n        /* \"#utility.yul\":4533:4621   */\n      swap2\n      pop\n        /* \"#utility.yul\":4328:4631   */\n      pop\n        /* \"#utility.yul\":3954:4638   */\n      swap3\n      pop\n      swap3\n      swap1\n      pop\n      jump\t// out\n        /* \"#utility.yul\":4644:4758   */\n    tag_395:\n        /* \"#utility.yul\":4711:4717   */\n      0x00\n        /* \"#utility.yul\":4745:4750   */\n      dup2\n        /* \"#utility.yul\":4739:4751   */\n      mload\n        /* \"#utility.yul\":4729:4751   */\n      swap1\n      pop\n        /* \"#utility.yul\":4644:4758   */\n      swap2\n      swap1\n      pop\n      jump\t// out\n        /* \"#utility.yul\":4764:4948   */\n    tag_396:\n        /* \"#utility.yul\":4863:4874   */\n      0x00\n        /* \"#utility.yul\":4897:4903   */\n      dup3\n        /* \"#utility.yul\":4892:4895   */\n      dup3\n        /* \"#utility.yul\":4885:4904   */\n      mstore\n        /* \"#utility.yul\":4937:4941   */\n      0x20\n        /* \"#utility.yul\":4932:4935   */\n      dup3\n        /* \"#utility.yul\":4928:4942   */\n      add\n        /* \"#utility.yul\":4913:4942   */\n      swap1\n      pop\n        /* \"#utility.yul\":4764:4948   */\n      swap3\n      swap2\n      pop\n      pop\n      jump\t// out\n        /* \"#utility.yul\":4954:5086   */\n    tag_397:\n        /* \"#utility.yul\":5021:5025   */\n      0x00\n        /* \"#utility.yul\":5044:5047   */\n      dup2\n        /* \"#utility.yul\":5036:5047   */\n      swap1\n      pop\n        /* \"#utility.yul\":5074:5078   */\n      0x20\n        /* \"#utility.yul\":5069:5072   */\n      dup3\n        /* \"#utility.yul\":5065:5079   */\n      add\n        /* \"#utility.yul\":5057:5079   */\n      swap1\n      pop\n        /* \"#utility.yul\":4954:5086   */\n      swap2\n      swap1\n      pop\n      jump\t// out\n        /* \"#utility.yul\":5092:5200   */\n    tag_398:\n        /* \"#utility.yul\":5169:5193   */\n      tag_494\n        /* \"#utility.yul\":5187:5192   */\n      dup2\n        /* \"#utility.yul\":5169:5193   */\n      tag_390\n      jump\t// in\n    tag_494:\n        /* \"#utility.yul\":5164:5167   */\n      dup3\n        /* \"#utility.yul\":5157:5194   */\n      mstore\n        /* \"#utility.yul\":5092:5200   */\n      pop\n      pop\n      jump\t// out\n        /* \"#utility.yul\":5206:5385   */\n    tag_399:\n        /* \"#utility.yul\":5275:5285   */\n      0x00\n        /* \"#utility.yul\":5296:5342   */\n      tag_496\n        /* \"#utility.yul\":5338:5341   */\n      dup4\n        /* \"#utility.yul\":5330:5336   */\n      dup4\n        /* \"#utility.yul\":5296:5342   */\n      tag_398\n      jump\t// in\n    tag_496:\n        /* \"#utility.yul\":5374:5378   */\n      0x20\n        /* \"#utility.yul\":5369:5372   */\n      dup4\n        /* \"#utility.yul\":5365:5379   */\n      add\n        /* \"#utility.yul\":5351:5379   */\n      swap1\n      pop\n        /* \"#utility.yul\":5206:5385   */\n      swap3\n      swap2\n      pop\n      pop\n      jump\t// out\n        /* \"#utility.yul\":5391:5504   */\n    tag_400:\n        /* \"#utility.yul\":5461:5465   */\n      0x00\n        /* \"#utility.yul\":5493:5497   */\n      0x20\n        /* \"#utility.yul\":5488:5491   */\n      dup3\n        /* \"#utility.yul\":5484:5498   */\n      add\n        /* \"#utility.yul\":5476:5498   */\n      swap1\n      pop\n        /* \"#utility.yul\":5391:5504   */\n      swap2\n      swap1\n      pop\n      jump\t// out\n        /* \"#utility.yul\":5540:6272   */\n    tag_401:\n        /* \"#utility.yul\":5659:5662   */\n      0x00\n        /* \"#utility.yul\":5688:5742   */\n      tag_499\n        /* \"#utility.yul\":5736:5741   */\n      dup3\n        /* \"#utility.yul\":5688:5742   */\n      tag_395\n      jump\t// in\n    tag_499:\n        /* \"#utility.yul\":5758:5844   */\n      tag_500\n        /* \"#utility.yul\":5837:5843   */\n      dup2\n        /* \"#utility.yul\":5832:5835   */\n      dup6\n        /* \"#utility.yul\":5758:5844   */\n      tag_396\n      jump\t// in\n    tag_500:\n        /* \"#utility.yul\":5751:5844   */\n      swap4\n      pop\n        /* \"#utility.yul\":5868:5924   */\n      tag_501\n        /* \"#utility.yul\":5918:5923   */\n      dup4\n        /* \"#utility.yul\":5868:5924   */\n      tag_397\n      jump\t// in\n    tag_501:\n        /* \"#utility.yul\":5947:5954   */\n      dup1\n        /* \"#utility.yul\":5978:5979   */\n      0x00\n        /* \"#utility.yul\":5963:6247   */\n    tag_502:\n        /* \"#utility.yul\":5988:5994   */\n      dup4\n        /* \"#utility.yul\":5985:5986   */\n      dup2\n        /* \"#utility.yul\":5982:5995   */\n      lt\n        /* \"#utility.yul\":5963:6247   */\n      iszero\n      tag_504\n      jumpi\n        /* \"#utility.yul\":6064:6070   */\n      dup2\n        /* \"#utility.yul\":6058:6071   */\n      mload\n        /* \"#utility.yul\":6091:6154   */\n      tag_505\n        /* \"#utility.yul\":6150:6153   */\n      dup9\n        /* \"#utility.yul\":6135:6148   */\n      dup3\n        /* \"#utility.yul\":6091:6154   */\n      tag_399\n      jump\t// in\n    tag_505:\n        /* \"#utility.yul\":6084:6154   */\n      swap8\n      pop\n        /* \"#utility.yul\":6177:6237   */\n      tag_506\n        /* \"#utility.yul\":6230:6236   */\n      dup4\n        /* \"#utility.yul\":6177:6237   */\n      tag_400\n      jump\t// in\n    tag_506:\n        /* \"#utility.yul\":6167:6237   */\n      swap3\n      pop\n        /* \"#utility.yul\":6023:6247   */\n      pop\n        /* \"#utility.yul\":6010:6011   */\n      0x01\n        /* \"#utility.yul\":6007:6008   */\n      dup2\n        /* \"#utility.yul\":6003:6012   */\n      add\n        /* \"#utility.yul\":5998:6012   */\n      swap1\n      pop\n        /* \"#utility.yul\":5963:6247   */\n      jump(tag_502)\n    tag_504:\n        /* \"#utility.yul\":5967:5981   */\n      pop\n        /* \"#utility.yul\":6263:6266   */\n      dup6\n        /* \"#utility.yul\":6256:6266   */\n      swap4\n      pop\n        /* \"#utility.yul\":5664:6272   */\n      pop\n      pop\n      pop\n        /* \"#utility.yul\":5540:6272   */\n      swap3\n      swap2\n      pop\n      pop\n      jump\t// out\n        /* \"#utility.yul\":6278:6651   */\n    tag_39:\n        /* \"#utility.yul\":6421:6425   */\n      0x00\n        /* \"#utility.yul\":6459:6461   */\n      0x20\n        /* \"#utility.yul\":6448:6457   */\n      dup3\n        /* \"#utility.yul\":6444:6462   */\n      add\n        /* \"#utility.yul\":6436:6462   */\n      swap1\n      pop\n        /* \"#utility.yul\":6508:6517   */\n      dup2\n        /* \"#utility.yul\":6502:6506   */\n      dup2\n        /* \"#utility.yul\":6498:6518   */\n      sub\n        /* \"#utility.yul\":6494:6495   */\n      0x00\n        /* \"#utility.yul\":6483:6492   */\n      dup4\n        /* \"#utility.yul\":6479:6496   */\n      add\n        /* \"#utility.yul\":6472:6519   */\n      mstore\n        /* \"#utility.yul\":6536:6644   */\n      tag_508\n        /* \"#utility.yul\":6639:6643   */\n      dup2\n        /* \"#utility.yul\":6630:6636   */\n      dup5\n        /* \"#utility.yul\":6536:6644   */\n      tag_401\n      jump\t// in\n    tag_508:\n        /* \"#utility.yul\":6528:6644   */\n      swap1\n      pop\n        /* \"#utility.yul\":6278:6651   */\n      swap3\n      swap2\n      pop\n      pop\n      jump\t// out\n        /* \"#utility.yul\":6657:6774   */\n    tag_402:\n        /* \"#utility.yul\":6766:6767   */\n      0x00\n        /* \"#utility.yul\":6763:6764   */\n      dup1\n        /* \"#utility.yul\":6756:6768   */\n      revert\n        /* \"#utility.yul\":6793:7345   */\n    tag_403:\n        /* \"#utility.yul\":6850:6858   */\n      0x00\n        /* \"#utility.yul\":6860:6866   */\n      dup1\n        /* \"#utility.yul\":6910:6913   */\n      dup4\n        /* \"#utility.yul\":6903:6907   */\n      0x1f\n        /* \"#utility.yul\":6895:6901   */\n      dup5\n        /* \"#utility.yul\":6891:6908   */\n      add\n        /* \"#utility.yul\":6887:6914   */\n      slt\n        /* \"#utility.yul\":6877:6999   */\n      tag_511\n      jumpi\n        /* \"#utility.yul\":6918:6997   */\n      tag_512\n      tag_384\n      jump\t// in\n    tag_512:\n        /* \"#utility.yul\":6877:6999   */\n    tag_511:\n        /* \"#utility.yul\":7031:7037   */\n      dup3\n        /* \"#utility.yul\":7018:7038   */\n      calldataload\n        /* \"#utility.yul\":7008:7038   */\n      swap1\n      pop\n        /* \"#utility.yul\":7061:7079   */\n      0xffffffffffffffff\n        /* \"#utility.yul\":7053:7059   */\n      dup2\n        /* \"#utility.yul\":7050:7080   */\n      gt\n        /* \"#utility.yul\":7047:7164   */\n      iszero\n      tag_513\n      jumpi\n        /* \"#utility.yul\":7083:7162   */\n      tag_514\n      tag_402\n      jump\t// in\n    tag_514:\n        /* \"#utility.yul\":7047:7164   */\n    tag_513:\n        /* \"#utility.yul\":7197:7201   */\n      0x20\n        /* \"#utility.yul\":7189:7195   */\n      dup4\n        /* \"#utility.yul\":7185:7202   */\n      add\n        /* \"#utility.yul\":7173:7202   */\n      swap2\n      pop\n        /* \"#utility.yul\":7251:7254   */\n      dup4\n        /* \"#utility.yul\":7243:7247   */\n      0x01\n        /* \"#utility.yul\":7235:7241   */\n      dup3\n        /* \"#utility.yul\":7231:7248   */\n      mul\n        /* \"#utility.yul\":7221:7229   */\n      dup4\n        /* \"#utility.yul\":7217:7249   */\n      add\n        /* \"#utility.yul\":7214:7255   */\n      gt\n        /* \"#utility.yul\":7211:7339   */\n      iszero\n      tag_515\n      jumpi\n        /* \"#utility.yul\":7258:7337   */\n      tag_516\n      tag_389\n      jump\t// in\n    tag_516:\n        /* \"#utility.yul\":7211:7339   */\n    tag_515:\n        /* \"#utility.yul\":6793:7345   */\n      swap3\n      pop\n      swap3\n      swap1\n      pop\n      jump\t// out\n        /* \"#utility.yul\":7351:8314   */\n    tag_42:\n        /* \"#utility.yul\":7448:7454   */\n      0x00\n        /* \"#utility.yul\":7456:7462   */\n      dup1\n        /* \"#utility.yul\":7464:7470   */\n      0x00\n        /* \"#utility.yul\":7472:7478   */\n      dup1\n        /* \"#utility.yul\":7480:7486   */\n      0x00\n        /* \"#utility.yul\":7529:7532   */\n      0x80\n        /* \"#utility.yul\":7517:7526   */\n      dup7\n        /* \"#utility.yul\":7508:7515   */\n      dup9\n        /* \"#utility.yul\":7504:7527   */\n      sub\n        /* \"#utility.yul\":7500:7533   */\n      slt\n        /* \"#utility.yul\":7497:7617   */\n      iszero\n      tag_518\n      jumpi\n        /* \"#utility.yul\":7536:7615   */\n      tag_519\n      tag_380\n      jump\t// in\n    tag_519:\n        /* \"#utility.yul\":7497:7617   */\n    tag_518:\n        /* \"#utility.yul\":7656:7657   */\n      0x00\n        /* \"#utility.yul\":7681:7734   */\n      tag_520\n        /* \"#utility.yul\":7726:7733   */\n      dup9\n        /* \"#utility.yul\":7717:7723   */\n      dup3\n        /* \"#utility.yul\":7706:7715   */\n      dup10\n        /* \"#utility.yul\":7702:7724   */\n      add\n        /* \"#utility.yul\":7681:7734   */\n      tag_383\n      jump\t// in\n    tag_520:\n        /* \"#utility.yul\":7671:7734   */\n      swap6\n      pop\n        /* \"#utility.yul\":7627:7744   */\n      pop\n        /* \"#utility.yul\":7783:7785   */\n      0x20\n        /* \"#utility.yul\":7809:7862   */\n      tag_521\n        /* \"#utility.yul\":7854:7861   */\n      dup9\n        /* \"#utility.yul\":7845:7851   */\n      dup3\n        /* \"#utility.yul\":7834:7843   */\n      dup10\n        /* \"#utility.yul\":7830:7852   */\n      add\n        /* \"#utility.yul\":7809:7862   */\n      tag_383\n      jump\t// in\n    tag_521:\n        /* \"#utility.yul\":7799:7862   */\n      swap5\n      pop\n        /* \"#utility.yul\":7754:7872   */\n      pop\n        /* \"#utility.yul\":7911:7913   */\n      0x40\n        /* \"#utility.yul\":7937:7990   */\n      tag_522\n        /* \"#utility.yul\":7982:7989   */\n      dup9\n        /* \"#utility.yul\":7973:7979   */\n      dup3\n        /* \"#utility.yul\":7962:7971   */\n      dup10\n        /* \"#utility.yul\":7958:7980   */\n      add\n        /* \"#utility.yul\":7937:7990   */\n      tag_392\n      jump\t// in\n    tag_522:\n        /* \"#utility.yul\":7927:7990   */\n      swap4\n      pop\n        /* \"#utility.yul\":7882:8000   */\n      pop\n        /* \"#utility.yul\":8067:8069   */\n      0x60\n        /* \"#utility.yul\":8056:8065   */\n      dup7\n        /* \"#utility.yul\":8052:8070   */\n      add\n        /* \"#utility.yul\":8039:8071   */\n      calldataload\n        /* \"#utility.yul\":8098:8116   */\n      0xffffffffffffffff\n        /* \"#utility.yul\":8090:8096   */\n      dup2\n        /* \"#utility.yul\":8087:8117   */\n      gt\n        /* \"#utility.yul\":8084:8201   */\n      iszero\n      tag_523\n      jumpi\n        /* \"#utility.yul\":8120:8199   */\n      tag_524\n      tag_381\n      jump\t// in\n    tag_524:\n        /* \"#utility.yul\":8084:8201   */\n    tag_523:\n        /* \"#utility.yul\":8233:8297   */\n      tag_525\n        /* \"#utility.yul\":8289:8296   */\n      dup9\n        /* \"#utility.yul\":8280:8286   */\n      dup3\n        /* \"#utility.yul\":8269:8278   */\n      dup10\n        /* \"#utility.yul\":8265:8287   */\n      add\n        /* \"#utility.yul\":8233:8297   */\n      tag_403\n      jump\t// in\n    tag_525:\n        /* \"#utility.yul\":8215:8297   */\n      swap3\n      pop\n      swap3\n      pop\n        /* \"#utility.yul\":8010:8307   */\n      pop\n        /* \"#utility.yul\":7351:8314   */\n      swap3\n      swap6\n      pop\n      swap3\n      swap6\n      swap1\n      swap4\n      pop\n      jump\t// out\n        /* \"#utility.yul\":8320:8469   */\n    tag_404:\n        /* \"#utility.yul\":8356:8363   */\n      0x00\n        /* \"#utility.yul\":8396:8462   */\n      0xffffffff00000000000000000000000000000000000000000000000000000000\n        /* \"#utility.yul\":8389:8394   */\n      dup3\n        /* \"#utility.yul\":8385:8463   */\n      and\n        /* \"#utility.yul\":8374:8463   */\n      swap1\n      pop\n        /* \"#utility.yul\":8320:8469   */\n      swap2\n      swap1\n      pop\n      jump\t// out\n        /* \"#utility.yul\":8475:8590   */\n    tag_405:\n        /* \"#utility.yul\":8560:8583   */\n      tag_528\n        /* \"#utility.yul\":8577:8582   */\n      dup2\n        /* \"#utility.yul\":8560:8583   */\n      tag_404\n      jump\t// in\n    tag_528:\n        /* \"#utility.yul\":8555:8558   */\n      dup3\n        /* \"#utility.yul\":8548:8584   */\n      mstore\n        /* \"#utility.yul\":8475:8590   */\n      pop\n      pop\n      jump\t// out\n        /* \"#utility.yul\":8596:8814   */\n    tag_45:\n        /* \"#utility.yul\":8687:8691   */\n      0x00\n        /* \"#utility.yul\":8725:8727   */\n      0x20\n        /* \"#utility.yul\":8714:8723   */\n      dup3\n        /* \"#utility.yul\":8710:8728   */\n      add\n        /* \"#utility.yul\":8702:8728   */\n      swap1\n      pop\n        /* \"#utility.yul\":8738:8807   */\n      tag_530\n        /* \"#utility.yul\":8804:8805   */\n      0x00\n        /* \"#utility.yul\":8793:8802   */\n      dup4\n        /* \"#utility.yul\":8789:8806   */\n      add\n        /* \"#utility.yul\":8780:8786   */\n      dup5\n        /* \"#utility.yul\":8738:8807   */\n      tag_405\n      jump\t// in\n    tag_530:\n        /* \"#utility.yul\":8596:8814   */\n      swap3\n      swap2\n      pop\n      pop\n      jump\t// out\n        /* \"#utility.yul\":8820:9294   */\n    tag_48:\n        /* \"#utility.yul\":8888:8894   */\n      0x00\n        /* \"#utility.yul\":8896:8902   */\n      dup1\n        /* \"#utility.yul\":8945:8947   */\n      0x40\n        /* \"#utility.yul\":8933:8942   */\n      dup4\n        /* \"#utility.yul\":8924:8931   */\n      dup6\n        /* \"#utility.yul\":8920:8943   */\n      sub\n        /* \"#utility.yul\":8916:8948   */\n      slt\n        /* \"#utility.yul\":8913:9032   */\n      iszero\n      tag_532\n      jumpi\n        /* \"#utility.yul\":8951:9030   */\n      tag_533\n      tag_380\n      jump\t// in\n    tag_533:\n        /* \"#utility.yul\":8913:9032   */\n    tag_532:\n        /* \"#utility.yul\":9071:9072   */\n      0x00\n        /* \"#utility.yul\":9096:9149   */\n      tag_534\n        /* \"#utility.yul\":9141:9148   */\n      dup6\n        /* \"#utility.yul\":9132:9138   */\n      dup3\n        /* \"#utility.yul\":9121:9130   */\n      dup7\n        /* \"#utility.yul\":9117:9139   */\n      add\n        /* \"#utility.yul\":9096:9149   */\n      tag_383\n      jump\t// in\n    tag_534:\n        /* \"#utility.yul\":9086:9149   */\n      swap3\n      pop\n        /* \"#utility.yul\":9042:9159   */\n      pop\n        /* \"#utility.yul\":9198:9200   */\n      0x20\n        /* \"#utility.yul\":9224:9277   */\n      tag_535\n        /* \"#utility.yul\":9269:9276   */\n      dup6\n        /* \"#utility.yul\":9260:9266   */\n      dup3\n        /* \"#utility.yul\":9249:9258   */\n      dup7\n        /* \"#utility.yul\":9245:9267   */\n      add\n        /* \"#utility.yul\":9224:9277   */\n      tag_392\n      jump\t// in\n    tag_535:\n        /* \"#utility.yul\":9214:9277   */\n      swap2\n      pop\n        /* \"#utility.yul\":9169:9287   */\n      pop\n        /* \"#utility.yul\":8820:9294   */\n      swap3\n      pop\n      swap3\n      swap1\n      pop\n      jump\t// out\n        /* \"#utility.yul\":9300:9418   */\n    tag_406:\n        /* \"#utility.yul\":9387:9411   */\n      tag_537\n        /* \"#utility.yul\":9405:9410   */\n      dup2\n        /* \"#utility.yul\":9387:9411   */\n      tag_390\n      jump\t// in\n    tag_537:\n        /* \"#utility.yul\":9382:9385   */\n      dup3\n        /* \"#utility.yul\":9375:9412   */\n      mstore\n        /* \"#utility.yul\":9300:9418   */\n      pop\n      pop\n      jump\t// out\n        /* \"#utility.yul\":9424:9646   */\n    tag_51:\n        /* \"#utility.yul\":9517:9521   */\n      0x00\n        /* \"#utility.yul\":9555:9557   */\n      0x20\n        /* \"#utility.yul\":9544:9553   */\n      dup3\n        /* \"#utility.yul\":9540:9558   */\n      add\n        /* \"#utility.yul\":9532:9558   */\n      swap1\n      pop\n        /* \"#utility.yul\":9568:9639   */\n      tag_539\n        /* \"#utility.yul\":9636:9637   */\n      0x00\n        /* \"#utility.yul\":9625:9634   */\n      dup4\n        /* \"#utility.yul\":9621:9638   */\n      add\n        /* \"#utility.yul\":9612:9618   */\n      dup5\n        /* \"#utility.yul\":9568:9639   */\n      tag_406\n      jump\t// in\n    tag_539:\n        /* \"#utility.yul\":9424:9646   */\n      swap3\n      swap2\n      pop\n      pop\n      jump\t// out\n        /* \"#utility.yul\":9652:9981   */\n    tag_60:\n        /* \"#utility.yul\":9711:9717   */\n      0x00\n        /* \"#utility.yul\":9760:9762   */\n      0x20\n        /* \"#utility.yul\":9748:9757   */\n      dup3\n        /* \"#utility.yul\":9739:9746   */\n      dup5\n        /* \"#utility.yul\":9735:9758   */\n      sub\n        /* \"#utility.yul\":9731:9763   */\n      slt\n        /* \"#utility.yul\":9728:9847   */\n      iszero\n      tag_541\n      jumpi\n        /* \"#utility.yul\":9766:9845   */\n      tag_542\n      tag_380\n      jump\t// in\n    tag_542:\n        /* \"#utility.yul\":9728:9847   */\n    tag_541:\n        /* \"#utility.yul\":9886:9887   */\n      0x00\n        /* \"#utility.yul\":9911:9964   */\n      tag_543\n        /* \"#utility.yul\":9956:9963   */\n      dup5\n        /* \"#utility.yul\":9947:9953   */\n      dup3\n        /* \"#utility.yul\":9936:9945   */\n      dup6\n        /* \"#utility.yul\":9932:9954   */\n      add\n        /* \"#utility.yul\":9911:9964   */\n      tag_392\n      jump\t// in\n    tag_543:\n        /* \"#utility.yul\":9901:9964   */\n      swap2\n      pop\n        /* \"#utility.yul\":9857:9974   */\n      pop\n        /* \"#utility.yul\":9652:9981   */\n      swap3\n      swap2\n      pop\n      pop\n      jump\t// out\n        /* \"#utility.yul\":10004:10572   */\n    tag_407:\n        /* \"#utility.yul\":10077:10085   */\n      0x00\n        /* \"#utility.yul\":10087:10093   */\n      dup1\n        /* \"#utility.yul\":10137:10140   */\n      dup4\n        /* \"#utility.yul\":10130:10134   */\n      0x1f\n        /* \"#utility.yul\":10122:10128   */\n      dup5\n        /* \"#utility.yul\":10118:10135   */\n      add\n        /* \"#utility.yul\":10114:10141   */\n      slt\n        /* \"#utility.yul\":10104:10226   */\n      tag_545\n      jumpi\n        /* \"#utility.yul\":10145:10224   */\n      tag_546\n      tag_384\n      jump\t// in\n    tag_546:\n        /* \"#utility.yul\":10104:10226   */\n    tag_545:\n        /* \"#utility.yul\":10258:10264   */\n      dup3\n        /* \"#utility.yul\":10245:10265   */\n      calldataload\n        /* \"#utility.yul\":10235:10265   */\n      swap1\n      pop\n        /* \"#utility.yul\":10288:10306   */\n      0xffffffffffffffff\n        /* \"#utility.yul\":10280:10286   */\n      dup2\n        /* \"#utility.yul\":10277:10307   */\n      gt\n        /* \"#utility.yul\":10274:10391   */\n      iszero\n      tag_547\n      jumpi\n        /* \"#utility.yul\":10310:10389   */\n      tag_548\n      tag_402\n      jump\t// in\n    tag_548:\n        /* \"#utility.yul\":10274:10391   */\n    tag_547:\n        /* \"#utility.yul\":10424:10428   */\n      0x20\n        /* \"#utility.yul\":10416:10422   */\n      dup4\n        /* \"#utility.yul\":10412:10429   */\n      add\n        /* \"#utility.yul\":10400:10429   */\n      swap2\n      pop\n        /* \"#utility.yul\":10478:10481   */\n      dup4\n        /* \"#utility.yul\":10470:10474   */\n      0x20\n        /* \"#utility.yul\":10462:10468   */\n      dup3\n        /* \"#utility.yul\":10458:10475   */\n      mul\n        /* \"#utility.yul\":10448:10456   */\n      dup4\n        /* \"#utility.yul\":10444:10476   */\n      add\n        /* \"#utility.yul\":10441:10482   */\n      gt\n        /* \"#utility.yul\":10438:10566   */\n      iszero\n      tag_549\n      jumpi\n        /* \"#utility.yul\":10485:10564   */\n      tag_550\n      tag_389\n      jump\t// in\n    tag_550:\n        /* \"#utility.yul\":10438:10566   */\n    tag_549:\n        /* \"#utility.yul\":10004:10572   */\n      swap3\n      pop\n      swap3\n      swap1\n      pop\n      jump\t// out\n        /* \"#utility.yul\":10578:11137   */\n    tag_72:\n        /* \"#utility.yul\":10664:10670   */\n      0x00\n        /* \"#utility.yul\":10672:10678   */\n      dup1\n        /* \"#utility.yul\":10721:10723   */\n      0x20\n        /* \"#utility.yul\":10709:10718   */\n      dup4\n        /* \"#utility.yul\":10700:10707   */\n      dup6\n        /* \"#utility.yul\":10696:10719   */\n      sub\n        /* \"#utility.yul\":10692:10724   */\n      slt\n        /* \"#utility.yul\":10689:10808   */\n      iszero\n      tag_552\n      jumpi\n        /* \"#utility.yul\":10727:10806   */\n      tag_553\n      tag_380\n      jump\t// in\n    tag_553:\n        /* \"#utility.yul\":10689:10808   */\n    tag_552:\n        /* \"#utility.yul\":10875:10876   */\n      0x00\n        /* \"#utility.yul\":10864:10873   */\n      dup4\n        /* \"#utility.yul\":10860:10877   */\n      add\n        /* \"#utility.yul\":10847:10878   */\n      calldataload\n        /* \"#utility.yul\":10905:10923   */\n      0xffffffffffffffff\n        /* \"#utility.yul\":10897:10903   */\n      dup2\n        /* \"#utility.yul\":10894:10924   */\n      gt\n        /* \"#utility.yul\":10891:11008   */\n      iszero\n      tag_554\n      jumpi\n        /* \"#utility.yul\":10927:11006   */\n      tag_555\n      tag_381\n      jump\t// in\n    tag_555:\n        /* \"#utility.yul\":10891:11008   */\n    tag_554:\n        /* \"#utility.yul\":11040:11120   */\n      tag_556\n        /* \"#utility.yul\":11112:11119   */\n      dup6\n        /* \"#utility.yul\":11103:11109   */\n      dup3\n        /* \"#utility.yul\":11092:11101   */\n      dup7\n        /* \"#utility.yul\":11088:11110   */\n      add\n        /* \"#utility.yul\":11040:11120   */\n      tag_407\n      jump\t// in\n    tag_556:\n        /* \"#utility.yul\":11022:11120   */\n      swap3\n      pop\n      swap3\n      pop\n        /* \"#utility.yul\":10818:11130   */\n      pop\n        /* \"#utility.yul\":10578:11137   */\n      swap3\n      pop\n      swap3\n      swap1\n      pop\n      jump\t// out\n        /* \"#utility.yul\":11143:11233   */\n    tag_408:\n        /* \"#utility.yul\":11177:11184   */\n      0x00\n        /* \"#utility.yul\":11220:11225   */\n      dup2\n        /* \"#utility.yul\":11213:11226   */\n      iszero\n        /* \"#utility.yul\":11206:11227   */\n      iszero\n        /* \"#utility.yul\":11195:11227   */\n      swap1\n      pop\n        /* \"#utility.yul\":11143:11233   */\n      swap2\n      swap1\n      pop\n      jump\t// out\n        /* \"#utility.yul\":11239:11348   */\n    tag_409:\n        /* \"#utility.yul\":11320:11341   */\n      tag_559\n        /* \"#utility.yul\":11335:11340   */\n      dup2\n        /* \"#utility.yul\":11320:11341   */\n      tag_408\n      jump\t// in\n    tag_559:\n        /* \"#utility.yul\":11315:11318   */\n      dup3\n        /* \"#utility.yul\":11308:11342   */\n      mstore\n        /* \"#utility.yul\":11239:11348   */\n      pop\n      pop\n      jump\t// out\n        /* \"#utility.yul\":11354:11564   */\n    tag_77:\n        /* \"#utility.yul\":11441:11445   */\n      0x00\n        /* \"#utility.yul\":11479:11481   */\n      0x20\n        /* \"#utility.yul\":11468:11477   */\n      dup3\n        /* \"#utility.yul\":11464:11482   */\n      add\n        /* \"#utility.yul\":11456:11482   */\n      swap1\n      pop\n        /* \"#utility.yul\":11492:11557   */\n      tag_561\n        /* \"#utility.yul\":11554:11555   */\n      0x00\n        /* \"#utility.yul\":11543:11552   */\n      dup4\n        /* \"#utility.yul\":11539:11556   */\n      add\n        /* \"#utility.yul\":11530:11536   */\n      dup5\n        /* \"#utility.yul\":11492:11557   */\n      tag_409\n      jump\t// in\n    tag_561:\n        /* \"#utility.yul\":11354:11564   */\n      swap3\n      swap2\n      pop\n      pop\n      jump\t// out\n        /* \"#utility.yul\":11570:11899   */\n    tag_104:\n        /* \"#utility.yul\":11629:11635   */\n      0x00\n        /* \"#utility.yul\":11678:11680   */\n      0x20\n        /* \"#utility.yul\":11666:11675   */\n      dup3\n        /* \"#utility.yul\":11657:11664   */\n      dup5\n        /* \"#utility.yul\":11653:11676   */\n      sub\n        /* \"#utility.yul\":11649:11681   */\n      slt\n        /* \"#utility.yul\":11646:11765   */\n      iszero\n      tag_563\n      jumpi\n        /* \"#utility.yul\":11684:11763   */\n      tag_564\n      tag_380\n      jump\t// in\n    tag_564:\n        /* \"#utility.yul\":11646:11765   */\n    tag_563:\n        /* \"#utility.yul\":11804:11805   */\n      0x00\n        /* \"#utility.yul\":11829:11882   */\n      tag_565\n        /* \"#utility.yul\":11874:11881   */\n      dup5\n        /* \"#utility.yul\":11865:11871   */\n      dup3\n        /* \"#utility.yul\":11854:11863   */\n      dup6\n        /* \"#utility.yul\":11850:11872   */\n      add\n        /* \"#utility.yul\":11829:11882   */\n      tag_383\n      jump\t// in\n    tag_565:\n        /* \"#utility.yul\":11819:11882   */\n      swap2\n      pop\n        /* \"#utility.yul\":11775:11892   */\n      pop\n        /* \"#utility.yul\":11570:11899   */\n      swap3\n      swap2\n      pop\n      pop\n      jump\t// out\n        /* \"#utility.yul\":11905:12085   */\n    tag_124:\n        /* \"#utility.yul\":11953:12030   */\n      0x4e487b7100000000000000000000000000000000000000000000000000000000\n        /* \"#utility.yul\":11950:11951   */\n      0x00\n        /* \"#utility.yul\":11943:12031   */\n      mstore\n        /* \"#utility.yul\":12050:12054   */\n      0x32\n        /* \"#utility.yul\":12047:12048   */\n      0x04\n        /* \"#utility.yul\":12040:12055   */\n      mstore\n        /* \"#utility.yul\":12074:12078   */\n      0x24\n        /* \"#utility.yul\":12071:12072   */\n      0x00\n        /* \"#utility.yul\":12064:12079   */\n      revert\n        /* \"#utility.yul\":12091:12271   */\n    tag_410:\n        /* \"#utility.yul\":12139:12216   */\n      0x4e487b7100000000000000000000000000000000000000000000000000000000\n        /* \"#utility.yul\":12136:12137   */\n      0x00\n        /* \"#utility.yul\":12129:12217   */\n      mstore\n        /* \"#utility.yul\":12236:12240   */\n      0x11\n        /* \"#utility.yul\":12233:12234   */\n      0x04\n        /* \"#utility.yul\":12226:12241   */\n      mstore\n        /* \"#utility.yul\":12260:12264   */\n      0x24\n        /* \"#utility.yul\":12257:12258   */\n      0x00\n        /* \"#utility.yul\":12250:12265   */\n      revert\n        /* \"#utility.yul\":12277:12471   */\n    tag_128:\n        /* \"#utility.yul\":12317:12321   */\n      0x00\n        /* \"#utility.yul\":12337:12357   */\n      tag_569\n        /* \"#utility.yul\":12355:12356   */\n      dup3\n        /* \"#utility.yul\":12337:12357   */\n      tag_390\n      jump\t// in\n    tag_569:\n        /* \"#utility.yul\":12332:12357   */\n      swap2\n      pop\n        /* \"#utility.yul\":12371:12391   */\n      tag_570\n        /* \"#utility.yul\":12389:12390   */\n      dup4\n        /* \"#utility.yul\":12371:12391   */\n      tag_390\n      jump\t// in\n    tag_570:\n        /* \"#utility.yul\":12366:12391   */\n      swap3\n      pop\n        /* \"#utility.yul\":12415:12416   */\n      dup3\n        /* \"#utility.yul\":12412:12413   */\n      dup3\n        /* \"#utility.yul\":12408:12417   */\n      sub\n        /* \"#utility.yul\":12400:12417   */\n      swap1\n      pop\n        /* \"#utility.yul\":12439:12440   */\n      dup2\n        /* \"#utility.yul\":12433:12437   */\n      dup2\n        /* \"#utility.yul\":12430:12441   */\n      gt\n        /* \"#utility.yul\":12427:12464   */\n      iszero\n      tag_571\n      jumpi\n        /* \"#utility.yul\":12444:12462   */\n      tag_572\n      tag_410\n      jump\t// in\n    tag_572:\n        /* \"#utility.yul\":12427:12464   */\n    tag_571:\n        /* \"#utility.yul\":12277:12471   */\n      swap3\n      swap2\n      pop\n      pop\n      jump\t// out\n        /* \"#utility.yul\":12477:12887   */\n    tag_134:\n        /* \"#utility.yul\":12517:12524   */\n      0x00\n        /* \"#utility.yul\":12540:12560   */\n      tag_574\n        /* \"#utility.yul\":12558:12559   */\n      dup3\n        /* \"#utility.yul\":12540:12560   */\n      tag_390\n      jump\t// in\n    tag_574:\n        /* \"#utility.yul\":12535:12560   */\n      swap2\n      pop\n        /* \"#utility.yul\":12574:12594   */\n      tag_575\n        /* \"#utility.yul\":12592:12593   */\n      dup4\n        /* \"#utility.yul\":12574:12594   */\n      tag_390\n      jump\t// in\n    tag_575:\n        /* \"#utility.yul\":12569:12594   */\n      swap3\n      pop\n        /* \"#utility.yul\":12629:12630   */\n      dup3\n        /* \"#utility.yul\":12626:12627   */\n      dup3\n        /* \"#utility.yul\":12622:12631   */\n      mul\n        /* \"#utility.yul\":12651:12681   */\n      tag_576\n        /* \"#utility.yul\":12669:12680   */\n      dup2\n        /* \"#utility.yul\":12651:12681   */\n      tag_390\n      jump\t// in\n    tag_576:\n        /* \"#utility.yul\":12640:12681   */\n      swap2\n      pop\n        /* \"#utility.yul\":12830:12831   */\n      dup3\n        /* \"#utility.yul\":12821:12828   */\n      dup3\n        /* \"#utility.yul\":12817:12832   */\n      div\n        /* \"#utility.yul\":12814:12815   */\n      dup5\n        /* \"#utility.yul\":12811:12833   */\n      eq\n        /* \"#utility.yul\":12791:12792   */\n      dup4\n        /* \"#utility.yul\":12784:12793   */\n      iszero\n        /* \"#utility.yul\":12764:12847   */\n      or\n        /* \"#utility.yul\":12741:12880   */\n      tag_577\n      jumpi\n        /* \"#utility.yul\":12860:12878   */\n      tag_578\n      tag_410\n      jump\t// in\n    tag_578:\n        /* \"#utility.yul\":12741:12880   */\n    tag_577:\n        /* \"#utility.yul\":12525:12887   */\n      pop\n        /* \"#utility.yul\":12477:12887   */\n      swap3\n      swap2\n      pop\n      pop\n      jump\t// out\n        /* \"#utility.yul\":12893:13126   */\n    tag_139:\n        /* \"#utility.yul\":12932:12935   */\n      0x00\n        /* \"#utility.yul\":12955:12979   */\n      tag_580\n        /* \"#utility.yul\":12973:12978   */\n      dup3\n        /* \"#utility.yul\":12955:12979   */\n      tag_390\n      jump\t// in\n    tag_580:\n        /* \"#utility.yul\":12946:12979   */\n      swap2\n      pop\n        /* \"#utility.yul\":13001:13067   */\n      0xffffffffffffffffffffffffffffffffffffffffffffffffffffffffffffffff\n        /* \"#utility.yul\":12994:12999   */\n      dup3\n        /* \"#utility.yul\":12991:13068   */\n      sub\n        /* \"#utility.yul\":12988:13091   */\n      tag_581\n      jumpi\n        /* \"#utility.yul\":13071:13089   */\n      tag_582\n      tag_410\n      jump\t// in\n    tag_582:\n        /* \"#utility.yul\":12988:13091   */\n    tag_581:\n        /* \"#utility.yul\":13118:13119   */\n      0x01\n        /* \"#utility.yul\":13111:13116   */\n      dup3\n        /* \"#utility.yul\":13107:13120   */\n      add\n        /* \"#utility.yul\":13100:13120   */\n      swap1\n      pop\n        /* \"#utility.yul\":12893:13126   */\n      swap2\n      swap1\n      pop\n      jump\t// out\n        /* \"#utility.yul\":13132:13301   */\n    tag_411:\n        /* \"#utility.yul\":13216:13227   */\n      0x00\n        /* \"#utility.yul\":13250:13256   */\n      dup3\n        /* \"#utility.yul\":13245:13248   */\n      dup3\n        /* \"#utility.yul\":13238:13257   */\n      mstore\n        /* \"#utility.yul\":13290:13294   */\n      0x20\n        /* \"#utility.yul\":13285:13288   */\n      dup3\n        /* \"#utility.yul\":13281:13295   */\n      add\n        /* \"#utility.yul\":13266:13295   */\n      swap1\n      pop\n        /* \"#utility.yul\":13132:13301   */\n      swap3\n      swap2\n      pop\n      pop\n      jump\t// out\n        /* \"#utility.yul\":13307:13471   */\n    tag_412:\n        /* \"#utility.yul\":13447:13463   */\n      0x496e76616c696420626c6f636b73000000000000000000000000000000000000\n        /* \"#utility.yul\":13443:13444   */\n      0x00\n        /* \"#utility.yul\":13435:13441   */\n      dup3\n        /* \"#utility.yul\":13431:13445   */\n      add\n        /* \"#utility.yul\":13424:13464   */\n      mstore\n        /* \"#utility.yul\":13307:13471   */\n      pop\n      jump\t// out\n        /* \"#utility.yul\":13477:13843   */\n    tag_413:\n        /* \"#utility.yul\":13619:13622   */\n      0x00\n        /* \"#utility.yul\":13640:13707   */\n      tag_586\n        /* \"#utility.yul\":13704:13706   */\n      0x0e\n        /* \"#utility.yul\":13699:13702   */\n      dup4\n        /* \"#utility.yul\":13640:13707   */\n      tag_411\n      jump\t// in\n    tag_586:\n        /* \"#utility.yul\":13633:13707   */\n      swap2\n      pop\n        /* \"#utility.yul\":13716:13809   */\n      tag_587\n        /* \"#utility.yul\":13805:13808   */\n      dup3\n        /* \"#utility.yul\":13716:13809   */\n      tag_412\n      jump\t// in\n    tag_587:\n        /* \"#utility.yul\":13834:13836   */\n      0x20\n        /* \"#utility.yul\":13829:13832   */\n      dup3\n        /* \"#utility.yul\":13825:13837   */\n      add\n        /* \"#utility.yul\":13818:13837   */\n      swap1\n      pop\n        /* \"#utility.yul\":13477:13843   */\n      swap2\n      swap1\n      pop\n      jump\t// out\n        /* \"#utility.yul\":13849:14268   */\n    tag_145:\n        /* \"#utility.yul\":14015:14019   */\n      0x00\n        /* \"#utility.yul\":14053:14055   */\n      0x20\n        /* \"#utility.yul\":14042:14051   */\n      dup3\n        /* \"#utility.yul\":14038:14056   */\n      add\n        /* \"#utility.yul\":14030:14056   */\n      swap1\n      pop\n        /* \"#utility.yul\":14102:14111   */\n      dup2\n        /* \"#utility.yul\":14096:14100   */\n      dup2\n        /* \"#utility.yul\":14092:14112   */\n      sub\n        /* \"#utility.yul\":14088:14089   */\n      0x00\n        /* \"#utility.yul\":14077:14086   */\n      dup4\n        /* \"#utility.yul\":14073:14090   */\n      add\n        /* \"#utility.yul\":14066:14113   */\n      mstore\n        /* \"#utility.yul\":14130:14261   */\n      tag_589\n        /* \"#utility.yul\":14256:14260   */\n      dup2\n        /* \"#utility.yul\":14130:14261   */\n      tag_413\n      jump\t// in\n    tag_589:\n        /* \"#utility.yul\":14122:14261   */\n      swap1\n      pop\n        /* \"#utility.yul\":13849:14268   */\n      swap2\n      swap1\n      pop\n      jump\t// out\n        /* \"#utility.yul\":14274:14465   */\n    tag_166:\n        /* \"#utility.yul\":14314:14317   */\n      0x00\n        /* \"#utility.yul\":14333:14353   */\n      tag_591\n        /* \"#utility.yul\":14351:14352   */\n      dup3\n        /* \"#utility.yul\":14333:14353   */\n      tag_390\n      jump\t// in\n    tag_591:\n        /* \"#utility.yul\":14328:14353   */\n      swap2\n      pop\n        /* \"#utility.yul\":14367:14387   */\n      tag_592\n        /* \"#utility.yul\":14385:14386   */\n      dup4\n        /* \"#utility.yul\":14367:14387   */\n      tag_390\n      jump\t// in\n    tag_592:\n        /* \"#utility.yul\":14362:14387   */\n      swap3\n      pop\n        /* \"#utility.yul\":14410:14411   */\n      dup3\n        /* \"#utility.yul\":14407:14408   */\n      dup3\n        /* \"#utility.yul\":14403:14412   */\n      add\n        /* \"#utility.yul\":14396:14412   */\n      swap1\n      pop\n        /* \"#utility.yul\":14431:14434   */\n      dup1\n        /* \"#utility.yul\":14428:14429   */\n      dup3\n        /* \"#utility.yul\":14425:14435   */\n      gt\n        /* \"#utility.yul\":14422:14458   */\n      iszero\n      tag_593\n      jumpi\n        /* \"#utility.yul\":14438:14456   */\n      tag_594\n      tag_410\n      jump\t// in\n    tag_594:\n        /* \"#utility.yul\":14422:14458   */\n    tag_593:\n        /* \"#utility.yul\":14274:14465   */\n      swap3\n      swap2\n      pop\n      pop\n      jump\t// out\n        /* \"#utility.yul\":14471:14636   */\n    tag_414:\n        /* \"#utility.yul\":14611:14628   */\n      0x496e76616c696420616464726573730000000000000000000000000000000000\n        /* \"#utility.yul\":14607:14608   */\n      0x00\n        /* \"#utility.yul\":14599:14605   */\n      dup3\n        /* \"#utility.yul\":14595:14609   */\n      add\n        /* \"#utility.yul\":14588:14629   */\n      mstore\n        /* \"#utility.yul\":14471:14636   */\n      pop\n      jump\t// out\n        /* \"#utility.yul\":14642:15008   */\n    tag_415:\n        /* \"#utility.yul\":14784:14787   */\n      0x00\n        /* \"#utility.yul\":14805:14872   */\n      tag_597\n        /* \"#utility.yul\":14869:14871   */\n      0x0f\n        /* \"#utility.yul\":14864:14867   */\n      dup4\n        /* \"#utility.yul\":14805:14872   */\n      tag_411\n      jump\t// in\n    tag_597:\n        /* \"#utility.yul\":14798:14872   */\n      swap2\n      pop\n        /* \"#utility.yul\":14881:14974   */\n      tag_598\n        /* \"#utility.yul\":14970:14973   */\n      dup3\n        /* \"#utility.yul\":14881:14974   */\n      tag_414\n      jump\t// in\n    tag_598:\n        /* \"#utility.yul\":14999:15001   */\n      0x20\n        /* \"#utility.yul\":14994:14997   */\n      dup3\n        /* \"#utility.yul\":14990:15002   */\n      add\n        /* \"#utility.yul\":14983:15002   */\n      swap1\n      pop\n        /* \"#utility.yul\":14642:15008   */\n      swap2\n      swap1\n      pop\n      jump\t// out\n        /* \"#utility.yul\":15014:15433   */\n    tag_173:\n        /* \"#utility.yul\":15180:15184   */\n      0x00\n        /* \"#utility.yul\":15218:15220   */\n      0x20\n        /* \"#utility.yul\":15207:15216   */\n      dup3\n        /* \"#utility.yul\":15203:15221   */\n      add\n        /* \"#utility.yul\":15195:15221   */\n      swap1\n      pop\n        /* \"#utility.yul\":15267:15276   */\n      dup2\n        /* \"#utility.yul\":15261:15265   */\n      dup2\n        /* \"#utility.yul\":15257:15277   */\n      sub\n        /* \"#utility.yul\":15253:15254   */\n      0x00\n        /* \"#utility.yul\":15242:15251   */\n      dup4\n        /* \"#utility.yul\":15238:15255   */\n      add\n        /* \"#utility.yul\":15231:15278   */\n      mstore\n        /* \"#utility.yul\":15295:15426   */\n      tag_600\n        /* \"#utility.yul\":15421:15425   */\n      dup2\n        /* \"#utility.yul\":15295:15426   */\n      tag_415\n      jump\t// in\n    tag_600:\n        /* \"#utility.yul\":15287:15426   */\n      swap1\n      pop\n        /* \"#utility.yul\":15014:15433   */\n      swap2\n      swap1\n      pop\n      jump\t// out\n        /* \"#utility.yul\":15439:15607   */\n    tag_416:\n        /* \"#utility.yul\":15522:15533   */\n      0x00\n        /* \"#utility.yul\":15556:15562   */\n      dup3\n        /* \"#utility.yul\":15551:15554   */\n      dup3\n        /* \"#utility.yul\":15544:15563   */\n      mstore\n        /* \"#utility.yul\":15596:15600   */\n      0x20\n        /* \"#utility.yul\":15591:15594   */\n      dup3\n        /* \"#utility.yul\":15587:15601   */\n      add\n        /* \"#utility.yul\":15572:15601   */\n      swap1\n      pop\n        /* \"#utility.yul\":15439:15607   */\n      swap3\n      swap2\n      pop\n      pop\n      jump\t// out\n        /* \"#utility.yul\":15613:15727   */\n    tag_417:\n      pop\n      jump\t// out\n        /* \"#utility.yul\":15733:16095   */\n    tag_418:\n        /* \"#utility.yul\":15874:15877   */\n      0x00\n        /* \"#utility.yul\":15895:15960   */\n      tag_604\n        /* \"#utility.yul\":15958:15959   */\n      0x00\n        /* \"#utility.yul\":15953:15956   */\n      dup4\n        /* \"#utility.yul\":15895:15960   */\n      tag_416\n      jump\t// in\n    tag_604:\n        /* \"#utility.yul\":15888:15960   */\n      swap2\n      pop\n        /* \"#utility.yul\":15969:16062   */\n      tag_605\n        /* \"#utility.yul\":16058:16061   */\n      dup3\n        /* \"#utility.yul\":15969:16062   */\n      tag_417\n      jump\t// in\n    tag_605:\n        /* \"#utility.yul\":16087:16088   */\n      0x00\n        /* \"#utility.yul\":16082:16085   */\n      dup3\n        /* \"#utility.yul\":16078:16089   */\n      add\n        /* \"#utility.yul\":16071:16089   */\n      swap1\n      pop\n        /* \"#utility.yul\":15733:16095   */\n      swap2\n      swap1\n      pop\n      jump\t// out\n        /* \"#utility.yul\":16101:16849   */\n    tag_184:\n        /* \"#utility.yul\":16350:16354   */\n      0x00\n        /* \"#utility.yul\":16388:16391   */\n      0x80\n        /* \"#utility.yul\":16377:16386   */\n      dup3\n        /* \"#utility.yul\":16373:16392   */\n      add\n        /* \"#utility.yul\":16365:16392   */\n      swap1\n      pop\n        /* \"#utility.yul\":16402:16473   */\n      tag_607\n        /* \"#utility.yul\":16470:16471   */\n      0x00\n        /* \"#utility.yul\":16459:16468   */\n      dup4\n        /* \"#utility.yul\":16455:16472   */\n      add\n        /* \"#utility.yul\":16446:16452   */\n      dup7\n        /* \"#utility.yul\":16402:16473   */\n      tag_378\n      jump\t// in\n    tag_607:\n        /* \"#utility.yul\":16483:16555   */\n      tag_608\n        /* \"#utility.yul\":16551:16553   */\n      0x20\n        /* \"#utility.yul\":16540:16549   */\n      dup4\n        /* \"#utility.yul\":16536:16554   */\n      add\n        /* \"#utility.yul\":16527:16533   */\n      dup6\n        /* \"#utility.yul\":16483:16555   */\n      tag_378\n      jump\t// in\n    tag_608:\n        /* \"#utility.yul\":16565:16637   */\n      tag_609\n        /* \"#utility.yul\":16633:16635   */\n      0x40\n        /* \"#utility.yul\":16622:16631   */\n      dup4\n        /* \"#utility.yul\":16618:16636   */\n      add\n        /* \"#utility.yul\":16609:16615   */\n      dup5\n        /* \"#utility.yul\":16565:16637   */\n      tag_406\n      jump\t// in\n    tag_609:\n        /* \"#utility.yul\":16684:16693   */\n      dup2\n        /* \"#utility.yul\":16678:16682   */\n      dup2\n        /* \"#utility.yul\":16674:16694   */\n      sub\n        /* \"#utility.yul\":16669:16671   */\n      0x60\n        /* \"#utility.yul\":16658:16667   */\n      dup4\n        /* \"#utility.yul\":16654:16672   */\n      add\n        /* \"#utility.yul\":16647:16695   */\n      mstore\n        /* \"#utility.yul\":16712:16842   */\n      tag_610\n        /* \"#utility.yul\":16837:16841   */\n      dup2\n        /* \"#utility.yul\":16712:16842   */\n      tag_418\n      jump\t// in\n    tag_610:\n        /* \"#utility.yul\":16704:16842   */\n      swap1\n      pop\n        /* \"#utility.yul\":16101:16849   */\n      swap5\n      swap4\n      pop\n      pop\n      pop\n      pop\n      jump\t// out\n        /* \"#utility.yul\":16855:17187   */\n    tag_211:\n        /* \"#utility.yul\":16976:16980   */\n      0x00\n        /* \"#utility.yul\":17014:17016   */\n      0x40\n        /* \"#utility.yul\":17003:17012   */\n      dup3\n        /* \"#utility.yul\":16999:17017   */\n      add\n        /* \"#utility.yul\":16991:17017   */\n      swap1\n      pop\n        /* \"#utility.yul\":17027:17098   */\n      tag_612\n        /* \"#utility.yul\":17095:17096   */\n      0x00\n        /* \"#utility.yul\":17084:17093   */\n      dup4\n        /* \"#utility.yul\":17080:17097   */\n      add\n        /* \"#utility.yul\":17071:17077   */\n      dup6\n        /* \"#utility.yul\":17027:17098   */\n      tag_378\n      jump\t// in\n    tag_612:\n        /* \"#utility.yul\":17108:17180   */\n      tag_613\n        /* \"#utility.yul\":17176:17178   */\n      0x20\n        /* \"#utility.yul\":17165:17174   */\n      dup4\n        /* \"#utility.yul\":17161:17179   */\n      add\n        /* \"#utility.yul\":17152:17158   */\n      dup5\n        /* \"#utility.yul\":17108:17180   */\n      tag_406\n      jump\t// in\n    tag_613:\n        /* \"#utility.yul\":16855:17187   */\n      swap4\n      swap3\n      pop\n      pop\n      pop\n      jump\t// out\n        /* \"#utility.yul\":17193:17309   */\n    tag_419:\n        /* \"#utility.yul\":17263:17284   */\n      tag_615\n        /* \"#utility.yul\":17278:17283   */\n      dup2\n        /* \"#utility.yul\":17263:17284   */\n      tag_408\n      jump\t// in\n    tag_615:\n        /* \"#utility.yul\":17256:17261   */\n      dup2\n        /* \"#utility.yul\":17253:17285   */\n      eq\n        /* \"#utility.yul\":17243:17303   */\n      tag_616\n      jumpi\n        /* \"#utility.yul\":17299:17300   */\n      0x00\n        /* \"#utility.yul\":17296:17297   */\n      dup1\n        /* \"#utility.yul\":17289:17301   */\n      revert\n        /* \"#utility.yul\":17243:17303   */\n    tag_616:\n        /* \"#utility.yul\":17193:17309   */\n      pop\n      jump\t// out\n        /* \"#utility.yul\":17315:17452   */\n    tag_420:\n        /* \"#utility.yul\":17369:17374   */\n      0x00\n        /* \"#utility.yul\":17400:17406   */\n      dup2\n        /* \"#utility.yul\":17394:17407   */\n      mload\n        /* \"#utility.yul\":17385:17407   */\n      swap1\n      pop\n        /* \"#utility.yul\":17416:17446   */\n      tag_618\n        /* \"#utility.yul\":17440:17445   */\n      dup2\n        /* \"#utility.yul\":17416:17446   */\n      tag_419\n      jump\t// in\n    tag_618:\n        /* \"#utility.yul\":17315:17452   */\n      swap3\n      swap2\n      pop\n      pop\n      jump\t// out\n        /* \"#utility.yul\":17458:17803   */\n    tag_215:\n        /* \"#utility.yul\":17525:17531   */\n      0x00\n        /* \"#utility.yul\":17574:17576   */\n      0x20\n        /* \"#utility.yul\":17562:17571   */\n      dup3\n        /* \"#utility.yul\":17553:17560   */\n      dup5\n        /* \"#utility.yul\":17549:17572   */\n      sub\n        /* \"#utility.yul\":17545:17577   */\n      slt\n        /* \"#utility.yul\":17542:17661   */\n      iszero\n      tag_620\n      jumpi\n        /* \"#utility.yul\":17580:17659   */\n      tag_621\n      tag_380\n      jump\t// in\n    tag_621:\n        /* \"#utility.yul\":17542:17661   */\n    tag_620:\n        /* \"#utility.yul\":17700:17701   */\n      0x00\n        /* \"#utility.yul\":17725:17786   */\n      tag_622\n        /* \"#utility.yul\":17778:17785   */\n      dup5\n        /* \"#utility.yul\":17769:17775   */\n      dup3\n        /* \"#utility.yul\":17758:17767   */\n      dup6\n        /* \"#utility.yul\":17754:17776   */\n      add\n        /* \"#utility.yul\":17725:17786   */\n      tag_420\n      jump\t// in\n    tag_622:\n        /* \"#utility.yul\":17715:17786   */\n      swap2\n      pop\n        /* \"#utility.yul\":17671:17796   */\n      pop\n        /* \"#utility.yul\":17458:17803   */\n      swap3\n      swap2\n      pop\n      pop\n      jump\t// out\n        /* \"#utility.yul\":17809:17952   */\n    tag_421:\n        /* \"#utility.yul\":17866:17871   */\n      0x00\n        /* \"#utility.yul\":17897:17903   */\n      dup2\n        /* \"#utility.yul\":17891:17904   */\n      mload\n        /* \"#utility.yul\":17882:17904   */\n      swap1\n      pop\n        /* \"#utility.yul\":17913:17946   */\n      tag_624\n        /* \"#utility.yul\":17940:17945   */\n      dup2\n        /* \"#utility.yul\":17913:17946   */\n      tag_391\n      jump\t// in\n    tag_624:\n        /* \"#utility.yul\":17809:17952   */\n      swap3\n      swap2\n      pop\n      pop\n      jump\t// out\n        /* \"#utility.yul\":17958:18309   */\n    tag_233:\n        /* \"#utility.yul\":18028:18034   */\n      0x00\n        /* \"#utility.yul\":18077:18079   */\n      0x20\n        /* \"#utility.yul\":18065:18074   */\n      dup3\n        /* \"#utility.yul\":18056:18063   */\n      dup5\n        /* \"#utility.yul\":18052:18075   */\n      sub\n        /* \"#utility.yul\":18048:18080   */\n      slt\n        /* \"#utility.yul\":18045:18164   */\n      iszero\n      tag_626\n      jumpi\n        /* \"#utility.yul\":18083:18162   */\n      tag_627\n      tag_380\n      jump\t// in\n    tag_627:\n        /* \"#utility.yul\":18045:18164   */\n    tag_626:\n        /* \"#utility.yul\":18203:18204   */\n      0x00\n        /* \"#utility.yul\":18228:18292   */\n      tag_628\n        /* \"#utility.yul\":18284:18291   */\n      dup5\n        /* \"#utility.yul\":18275:18281   */\n      dup3\n        /* \"#utility.yul\":18264:18273   */\n      dup6\n        /* \"#utility.yul\":18260:18282   */\n      add\n        /* \"#utility.yul\":18228:18292   */\n      tag_421\n      jump\t// in\n    tag_628:\n        /* \"#utility.yul\":18218:18292   */\n      swap2\n      pop\n        /* \"#utility.yul\":18174:18302   */\n      pop\n        /* \"#utility.yul\":17958:18309   */\n      swap3\n      swap2\n      pop\n      pop\n      jump\t// out\n        /* \"#utility.yul\":18315:18493   */\n    tag_422:\n        /* \"#utility.yul\":18455:18485   */\n      0x5374616b696e673a20746f6b656e206e6f74206465706f736974656400000000\n        /* \"#utility.yul\":18451:18452   */\n      0x00\n        /* \"#utility.yul\":18443:18449   */\n      dup3\n        /* \"#utility.yul\":18439:18453   */\n      add\n        /* \"#utility.yul\":18432:18486   */\n      mstore\n        /* \"#utility.yul\":18315:18493   */\n      pop\n      jump\t// out\n        /* \"#utility.yul\":18499:18865   */\n    tag_423:\n        /* \"#utility.yul\":18641:18644   */\n      0x00\n        /* \"#utility.yul\":18662:18729   */\n      tag_631\n        /* \"#utility.yul\":18726:18728   */\n      0x1c\n        /* \"#utility.yul\":18721:18724   */\n      dup4\n        /* \"#utility.yul\":18662:18729   */\n      tag_411\n      jump\t// in\n    tag_631:\n        /* \"#utility.yul\":18655:18729   */\n      swap2\n      pop\n        /* \"#utility.yul\":18738:18831   */\n      tag_632\n        /* \"#utility.yul\":18827:18830   */\n      dup3\n        /* \"#utility.yul\":18738:18831   */\n      tag_422\n      jump\t// in\n    tag_632:\n        /* \"#utility.yul\":18856:18858   */\n      0x20\n        /* \"#utility.yul\":18851:18854   */\n      dup3\n        /* \"#utility.yul\":18847:18859   */\n      add\n        /* \"#utility.yul\":18840:18859   */\n      swap1\n      pop\n        /* \"#utility.yul\":18499:18865   */\n      swap2\n      swap1\n      pop\n      jump\t// out\n        /* \"#utility.yul\":18871:19290   */\n    tag_253:\n        /* \"#utility.yul\":19037:19041   */\n      0x00\n        /* \"#utility.yul\":19075:19077   */\n      0x20\n        /* \"#utility.yul\":19064:19073   */\n      dup3\n        /* \"#utility.yul\":19060:19078   */\n      add\n        /* \"#utility.yul\":19052:19078   */\n      swap1\n      pop\n        /* \"#utility.yul\":19124:19133   */\n      dup2\n        /* \"#utility.yul\":19118:19122   */\n      dup2\n        /* \"#utility.yul\":19114:19134   */\n      sub\n        /* \"#utility.yul\":19110:19111   */\n      0x00\n        /* \"#utility.yul\":19099:19108   */\n      dup4\n        /* \"#utility.yul\":19095:19112   */\n      add\n        /* \"#utility.yul\":19088:19135   */\n      mstore\n        /* \"#utility.yul\":19152:19283   */\n      tag_634\n        /* \"#utility.yul\":19278:19282   */\n      dup2\n        /* \"#utility.yul\":19152:19283   */\n      tag_423\n      jump\t// in\n    tag_634:\n        /* \"#utility.yul\":19144:19283   */\n      swap1\n      pop\n        /* \"#utility.yul\":18871:19290   */\n      swap2\n      swap1\n      pop\n      jump\t// out\n        /* \"#utility.yul\":19296:19521   */\n    tag_424:\n        /* \"#utility.yul\":19436:19470   */\n      0x4f776e61626c653a206e6577206f776e657220697320746865207a65726f2061\n        /* \"#utility.yul\":19432:19433   */\n      0x00\n        /* \"#utility.yul\":19424:19430   */\n      dup3\n        /* \"#utility.yul\":19420:19434   */\n      add\n        /* \"#utility.yul\":19413:19471   */\n      mstore\n        /* \"#utility.yul\":19505:19513   */\n      0x6464726573730000000000000000000000000000000000000000000000000000\n        /* \"#utility.yul\":19500:19502   */\n      0x20\n        /* \"#utility.yul\":19492:19498   */\n      dup3\n        /* \"#utility.yul\":19488:19503   */\n      add\n        /* \"#utility.yul\":19481:19514   */\n      mstore\n        /* \"#utility.yul\":19296:19521   */\n      pop\n      jump\t// out\n        /* \"#utility.yul\":19527:19893   */\n    tag_425:\n        /* \"#utility.yul\":19669:19672   */\n      0x00\n        /* \"#utility.yul\":19690:19757   */\n      tag_637\n        /* \"#utility.yul\":19754:19756   */\n      0x26\n        /* \"#utility.yul\":19749:19752   */\n      dup4\n        /* \"#utility.yul\":19690:19757   */\n      tag_411\n      jump\t// in\n    tag_637:\n        /* \"#utility.yul\":19683:19757   */\n      swap2\n      pop\n        /* \"#utility.yul\":19766:19859   */\n      tag_638\n        /* \"#utility.yul\":19855:19858   */\n      dup3\n        /* \"#utility.yul\":19766:19859   */\n      tag_424\n      jump\t// in\n    tag_638:\n        /* \"#utility.yul\":19884:19886   */\n      0x40\n        /* \"#utility.yul\":19879:19882   */\n      dup3\n        /* \"#utility.yul\":19875:19887   */\n      add\n        /* \"#utility.yul\":19868:19887   */\n      swap1\n      pop\n        /* \"#utility.yul\":19527:19893   */\n      swap2\n      swap1\n      pop\n      jump\t// out\n        /* \"#utility.yul\":19899:20318   */\n    tag_294:\n        /* \"#utility.yul\":20065:20069   */\n      0x00\n        /* \"#utility.yul\":20103:20105   */\n      0x20\n        /* \"#utility.yul\":20092:20101   */\n      dup3\n        /* \"#utility.yul\":20088:20106   */\n      add\n        /* \"#utility.yul\":20080:20106   */\n      swap1\n      pop\n        /* \"#utility.yul\":20152:20161   */\n      dup2\n        /* \"#utility.yul\":20146:20150   */\n      dup2\n        /* \"#utility.yul\":20142:20162   */\n      sub\n        /* \"#utility.yul\":20138:20139   */\n      0x00\n        /* \"#utility.yul\":20127:20136   */\n      dup4\n        /* \"#utility.yul\":20123:20140   */\n      add\n        /* \"#utility.yul\":20116:20163   */\n      mstore\n        /* \"#utility.yul\":20180:20311   */\n      tag_640\n        /* \"#utility.yul\":20306:20310   */\n      dup2\n        /* \"#utility.yul\":20180:20311   */\n      tag_425\n      jump\t// in\n    tag_640:\n        /* \"#utility.yul\":20172:20311   */\n      swap1\n      pop\n        /* \"#utility.yul\":19899:20318   */\n      swap2\n      swap1\n      pop\n      jump\t// out\n        /* \"#utility.yul\":20324:20506   */\n    tag_426:\n        /* \"#utility.yul\":20464:20498   */\n      0x4f776e61626c653a2063616c6c6572206973206e6f7420746865206f776e6572\n        /* \"#utility.yul\":20460:20461   */\n      0x00\n        /* \"#utility.yul\":20452:20458   */\n      dup3\n        /* \"#utility.yul\":20448:20462   */\n      add\n        /* \"#utility.yul\":20441:20499   */\n      mstore\n        /* \"#utility.yul\":20324:20506   */\n      pop\n      jump\t// out\n        /* \"#utility.yul\":20512:20878   */\n    tag_427:\n        /* \"#utility.yul\":20654:20657   */\n      0x00\n        /* \"#utility.yul\":20675:20742   */\n      tag_643\n        /* \"#utility.yul\":20739:20741   */\n      0x20\n        /* \"#utility.yul\":20734:20737   */\n      dup4\n        /* \"#utility.yul\":20675:20742   */\n      tag_411\n      jump\t// in\n    tag_643:\n        /* \"#utility.yul\":20668:20742   */\n      swap2\n      pop\n        /* \"#utility.yul\":20751:20844   */\n      tag_644\n        /* \"#utility.yul\":20840:20843   */\n      dup3\n        /* \"#utility.yul\":20751:20844   */\n      tag_426\n      jump\t// in\n    tag_644:\n        /* \"#utility.yul\":20869:20871   */\n      0x20\n        /* \"#utility.yul\":20864:20867   */\n      dup3\n        /* \"#utility.yul\":20860:20872   */\n      add\n        /* \"#utility.yul\":20853:20872   */\n      swap1\n      pop\n        /* \"#utility.yul\":20512:20878   */\n      swap2\n      swap1\n      pop\n      jump\t// out\n        /* \"#utility.yul\":20884:21303   */\n    tag_308:\n        /* \"#utility.yul\":21050:21054   */\n      0x00\n        /* \"#utility.yul\":21088:21090   */\n      0x20\n        /* \"#utility.yul\":21077:21086   */\n      dup3\n        /* \"#utility.yul\":21073:21091   */\n      add\n        /* \"#utility.yul\":21065:21091   */\n      swap1\n      pop\n        /* \"#utility.yul\":21137:21146   */\n      dup2\n        /* \"#utility.yul\":21131:21135   */\n      dup2\n        /* \"#utility.yul\":21127:21147   */\n      sub\n        /* \"#utility.yul\":21123:21124   */\n      0x00\n        /* \"#utility.yul\":21112:21121   */\n      dup4\n        /* \"#utility.yul\":21108:21125   */\n      add\n        /* \"#utility.yul\":21101:21148   */\n      mstore\n        /* \"#utility.yul\":21165:21296   */\n      tag_646\n        /* \"#utility.yul\":21291:21295   */\n      dup2\n        /* \"#utility.yul\":21165:21296   */\n      tag_427\n      jump\t// in\n    tag_646:\n        /* \"#utility.yul\":21157:21296   */\n      swap1\n      pop\n        /* \"#utility.yul\":20884:21303   */\n      swap2\n      swap1\n      pop\n      jump\t// out\n        /* \"#utility.yul\":21309:21475   */\n    tag_428:\n        /* \"#utility.yul\":21449:21467   */\n      0x5061757361626c653a2070617573656400000000000000000000000000000000\n        /* \"#utility.yul\":21445:21446   */\n      0x00\n        /* \"#utility.yul\":21437:21443   */\n      dup3\n        /* \"#utility.yul\":21433:21447   */\n      add\n        /* \"#utility.yul\":21426:21468   */\n      mstore\n        /* \"#utility.yul\":21309:21475   */\n      pop\n      jump\t// out\n        /* \"#utility.yul\":21481:21847   */\n    tag_429:\n        /* \"#utility.yul\":21623:21626   */\n      0x00\n        /* \"#utility.yul\":21644:21711   */\n      tag_649\n        /* \"#utility.yul\":21708:21710   */\n      0x10\n        /* \"#utility.yul\":21703:21706   */\n      dup4\n        /* \"#utility.yul\":21644:21711   */\n      tag_411\n      jump\t// in\n    tag_649:\n        /* \"#utility.yul\":21637:21711   */\n      swap2\n      pop\n        /* \"#utility.yul\":21720:21813   */\n      tag_650\n        /* \"#utility.yul\":21809:21812   */\n      dup3\n        /* \"#utility.yul\":21720:21813   */\n      tag_428\n      jump\t// in\n    tag_650:\n        /* \"#utility.yul\":21838:21840   */\n      0x20\n        /* \"#utility.yul\":21833:21836   */\n      dup3\n        /* \"#utility.yul\":21829:21841   */\n      add\n        /* \"#utility.yul\":21822:21841   */\n      swap1\n      pop\n        /* \"#utility.yul\":21481:21847   */\n      swap2\n      swap1\n      pop\n      jump\t// out\n        /* \"#utility.yul\":21853:22272   */\n    tag_319:\n        /* \"#utility.yul\":22019:22023   */\n      0x00\n        /* \"#utility.yul\":22057:22059   */\n      0x20\n        /* \"#utility.yul\":22046:22055   */\n      dup3\n        /* \"#utility.yul\":22042:22060   */\n      add\n        /* \"#utility.yul\":22034:22060   */\n      swap1\n      pop\n        /* \"#utility.yul\":22106:22115   */\n      dup2\n        /* \"#utility.yul\":22100:22104   */\n      dup2\n        /* \"#utility.yul\":22096:22116   */\n      sub\n        /* \"#utility.yul\":22092:22093   */\n      0x00\n        /* \"#utility.yul\":22081:22090   */\n      dup4\n        /* \"#utility.yul\":22077:22094   */\n      add\n        /* \"#utility.yul\":22070:22117   */\n      mstore\n        /* \"#utility.yul\":22134:22265   */\n      tag_652\n        /* \"#utility.yul\":22260:22264   */\n      dup2\n        /* \"#utility.yul\":22134:22265   */\n      tag_429\n      jump\t// in\n    tag_652:\n        /* \"#utility.yul\":22126:22265   */\n      swap1\n      pop\n        /* \"#utility.yul\":21853:22272   */\n      swap2\n      swap1\n      pop\n      jump\t// out\n        /* \"#utility.yul\":22278:22459   */\n    tag_430:\n        /* \"#utility.yul\":22418:22451   */\n      0x5265656e7472616e637947756172643a207265656e7472616e742063616c6c00\n        /* \"#utility.yul\":22414:22415   */\n      0x00\n        /* \"#utility.yul\":22406:22412   */\n      dup3\n        /* \"#utility.yul\":22402:22416   */\n      add\n        /* \"#utility.yul\":22395:22452   */\n      mstore\n        /* \"#utility.yul\":22278:22459   */\n      pop\n      jump\t// out\n        /* \"#utility.yul\":22465:22831   */\n    tag_431:\n        /* \"#utility.yul\":22607:22610   */\n      0x00\n        /* \"#utility.yul\":22628:22695   */\n      tag_655\n        /* \"#utility.yul\":22692:22694   */\n      0x1f\n        /* \"#utility.yul\":22687:22690   */\n      dup4\n        /* \"#utility.yul\":22628:22695   */\n      tag_411\n      jump\t// in\n    tag_655:\n        /* \"#utility.yul\":22621:22695   */\n      swap2\n      pop\n        /* \"#utility.yul\":22704:22797   */\n      tag_656\n        /* \"#utility.yul\":22793:22796   */\n      dup3\n        /* \"#utility.yul\":22704:22797   */\n      tag_430\n      jump\t// in\n    tag_656:\n        /* \"#utility.yul\":22822:22824   */\n      0x20\n        /* \"#utility.yul\":22817:22820   */\n      dup3\n        /* \"#utility.yul\":22813:22825   */\n      add\n        /* \"#utility.yul\":22806:22825   */\n      swap1\n      pop\n        /* \"#utility.yul\":22465:22831   */\n      swap2\n      swap1\n      pop\n      jump\t// out\n        /* \"#utility.yul\":22837:23256   */\n    tag_332:\n        /* \"#utility.yul\":23003:23007   */\n      0x00\n        /* \"#utility.yul\":23041:23043   */\n      0x20\n        /* \"#utility.yul\":23030:23039   */\n      dup3\n        /* \"#utility.yul\":23026:23044   */\n      add\n        /* \"#utility.yul\":23018:23044   */\n      swap1\n      pop\n        /* \"#utility.yul\":23090:23099   */\n      dup2\n        /* \"#utility.yul\":23084:23088   */\n      dup2\n        /* \"#utility.yul\":23080:23100   */\n      sub\n        /* \"#utility.yul\":23076:23077   */\n      0x00\n        /* \"#utility.yul\":23065:23074   */\n      dup4\n        /* \"#utility.yul\":23061:23078   */\n      add\n        /* \"#utility.yul\":23054:23101   */\n      mstore\n        /* \"#utility.yul\":23118:23249   */\n      tag_658\n        /* \"#utility.yul\":23244:23248   */\n      dup2\n        /* \"#utility.yul\":23118:23249   */\n      tag_431\n      jump\t// in\n    tag_658:\n        /* \"#utility.yul\":23110:23249   */\n      swap1\n      pop\n        /* \"#utility.yul\":22837:23256   */\n      swap2\n      swap1\n      pop\n      jump\t// out\n        /* \"#utility.yul\":23262:23432   */\n    tag_432:\n        /* \"#utility.yul\":23402:23424   */\n      0x5061757361626c653a206e6f7420706175736564000000000000000000000000\n        /* \"#utility.yul\":23398:23399   */\n      0x00\n        /* \"#utility.yul\":23390:23396   */\n      dup3\n        /* \"#utility.yul\":23386:23400   */\n      add\n        /* \"#utility.yul\":23379:23425   */\n      mstore\n        /* \"#utility.yul\":23262:23432   */\n      pop\n      jump\t// out\n        /* \"#utility.yul\":23438:23804   */\n    tag_433:\n        /* \"#utility.yul\":23580:23583   */\n      0x00\n        /* \"#utility.yul\":23601:23668   */\n      tag_661\n        /* \"#utility.yul\":23665:23667   */\n      0x14\n        /* \"#utility.yul\":23660:23663   */\n      dup4\n        /* \"#utility.yul\":23601:23668   */\n      tag_411\n      jump\t// in\n    tag_661:\n        /* \"#utility.yul\":23594:23668   */\n      swap2\n      pop\n        /* \"#utility.yul\":23677:23770   */\n      tag_662\n        /* \"#utility.yul\":23766:23769   */\n      dup3\n        /* \"#utility.yul\":23677:23770   */\n      tag_432\n      jump\t// in\n    tag_662:\n        /* \"#utility.yul\":23795:23797   */\n      0x20\n        /* \"#utility.yul\":23790:23793   */\n      dup3\n        /* \"#utility.yul\":23786:23798   */\n      add\n        /* \"#utility.yul\":23779:23798   */\n      swap1\n      pop\n        /* \"#utility.yul\":23438:23804   */\n      swap2\n      swap1\n      pop\n      jump\t// out\n        /* \"#utility.yul\":23810:24229   */\n    tag_349:\n        /* \"#utility.yul\":23976:23980   */\n      0x00\n        /* \"#utility.yul\":24014:24016   */\n      0x20\n        /* \"#utility.yul\":24003:24012   */\n      dup3\n        /* \"#utility.yul\":23999:24017   */\n      add\n        /* \"#utility.yul\":23991:24017   */\n      swap1\n      pop\n        /* \"#utility.yul\":24063:24072   */\n      dup2\n        /* \"#utility.yul\":24057:24061   */\n      dup2\n        /* \"#utility.yul\":24053:24073   */\n      sub\n        /* \"#utility.yul\":24049:24050   */\n      0x00\n        /* \"#utility.yul\":24038:24047   */\n      dup4\n        /* \"#utility.yul\":24034:24051   */\n      add\n        /* \"#utility.yul\":24027:24074   */\n      mstore\n        /* \"#utility.yul\":24091:24222   */\n      tag_664\n        /* \"#utility.yul\":24217:24221   */\n      dup2\n        /* \"#utility.yul\":24091:24222   */\n      tag_433\n      jump\t// in\n    tag_664:\n        /* \"#utility.yul\":24083:24222   */\n      swap1\n      pop\n        /* \"#utility.yul\":23810:24229   */\n      swap2\n      swap1\n      pop\n      jump\t// out\n        /* \"#utility.yul\":24235:24415   */\n    tag_368:\n        /* \"#utility.yul\":24283:24360   */\n      0x4e487b7100000000000000000000000000000000000000000000000000000000\n        /* \"#utility.yul\":24280:24281   */\n      0x00\n        /* \"#utility.yul\":24273:24361   */\n      mstore\n        /* \"#utility.yul\":24380:24384   */\n      0x31\n        /* \"#utility.yul\":24377:24378   */\n      0x04\n        /* \"#utility.yul\":24370:24385   */\n      mstore\n        /* \"#utility.yul\":24404:24408   */\n      0x24\n        /* \"#utility.yul\":24401:24402   */\n      0x00\n        /* \"#utility.yul\":24394:24409   */\n      revert\n\n    auxdata: 0xa2646970667358221220a860c9d283270c05f09609d8ac080521406e4b241297bae80e70f377b18a00b864736f6c63430008110033\n}\n",
				"bytecode": {
					"linkReferences": {},
					"object": "60806040526000600260016101000a81548173ffffffffffffffffffffffffffffffffffffffff021916908373ffffffffffffffffffffffffffffffffffffffff1602179055503480156200005357600080fd5b50604051620029ce380380620029ce8339818101604052810190620000799190620003df565b620000996200008d6200018d60201b60201c565b6200019560201b60201c565b600180819055506000600260006101000a81548160ff02191690831515021790555083600360006101000a81548173ffffffffffffffffffffffffffffffffffffffff021916908373ffffffffffffffffffffffffffffffffffffffff16021790555082600681905550814362000111919062000480565b60058190555080600460006101000a81548173ffffffffffffffffffffffffffffffffffffffff021916908373ffffffffffffffffffffffffffffffffffffffff160217905550620001686200025960201b60201c565b6000600760006101000a81548160ff021916908315150217905550505050506200056c565b600033905090565b60008060009054906101000a900473ffffffffffffffffffffffffffffffffffffffff169050816000806101000a81548173ffffffffffffffffffffffffffffffffffffffff021916908373ffffffffffffffffffffffffffffffffffffffff1602179055508173ffffffffffffffffffffffffffffffffffffffff168173ffffffffffffffffffffffffffffffffffffffff167f8be0079c531659141344cd1fd0a4f28419497f9722a3daafe3b4186f6b6457e060405160405180910390a35050565b62000269620002ce60201b60201c565b6001600260006101000a81548160ff0219169083151502179055507f62e78cea01bee320cd4e420270b5ea74000d11b0c9f74754ebdbfc544b05a258620002b56200018d60201b60201c565b604051620002c49190620004cc565b60405180910390a1565b620002de6200032360201b60201c565b1562000321576040517f08c379a000000000000000000000000000000000000000000000000000000000815260040162000318906200054a565b60405180910390fd5b565b6000600260009054906101000a900460ff16905090565b600080fd5b600073ffffffffffffffffffffffffffffffffffffffff82169050919050565b60006200036c826200033f565b9050919050565b6200037e816200035f565b81146200038a57600080fd5b50565b6000815190506200039e8162000373565b92915050565b6000819050919050565b620003b981620003a4565b8114620003c557600080fd5b50565b600081519050620003d981620003ae565b92915050565b60008060008060808587031215620003fc57620003fb6200033a565b5b60006200040c878288016200038d565b94505060206200041f87828801620003c8565b93505060406200043287828801620003c8565b925050606062000445878288016200038d565b91505092959194509250565b7f4e487b7100000000000000000000000000000000000000000000000000000000600052601160045260246000fd5b60006200048d82620003a4565b91506200049a83620003a4565b9250828201905080821115620004b557620004b462000451565b5b92915050565b620004c6816200035f565b82525050565b6000602082019050620004e36000830184620004bb565b92915050565b600082825260208201905092915050565b7f5061757361626c653a2070617573656400000000000000000000000000000000600082015250565b600062000532601083620004e9565b91506200053f82620004fa565b602082019050919050565b60006020820190508181036000830152620005658162000523565b9050919050565b612452806200057c6000396000f3fe608060405234801561001057600080fd5b50600436106101585760003560e01c80635eac6239116100c3578063983d95ce1161007c578063983d95ce14610357578063b343ae1414610373578063ca1c2019146103a3578063deec7eff146103ad578063e3a9db1a146103dd578063f2fde38b1461040d57610158565b80635eac6239146102e1578063715018a6146102fd57806374478bb3146103075780638456cb59146103255780638d8f2adb1461032f5780638da5cb5b1461033957610158565b806334fcf4371161011557806334fcf437146102475780633f4ba83a146102635780634665096d1461026d578063515a20ba1461028b578063598b8e71146102a75780635c975abb146102c357610158565b80630222a2c41461015d578063068c526f1461017b578063150b7a02146101ab5780631852e8d9146101db578063276184ae1461020b5780632c4e722e14610229575b600080fd5b610165610429565b60405161017291906117c5565b60405180910390f35b610195600480360381019061019091906119af565b61044f565b6040516101a29190611ac9565b60405180910390f35b6101c560048036038101906101c09190611b46565b6105e2565b6040516101d29190611c09565b60405180910390f35b6101f560048036038101906101f09190611c24565b6105f7565b6040516102029190611c73565b60405180910390f35b61021361077e565b60405161022091906117c5565b60405180910390f35b6102316107a4565b60405161023e9190611c73565b60405180910390f35b610261600480360381019061025c9190611c8e565b6107aa565b005b61026b6107bc565b005b6102756107ce565b6040516102829190611c73565b60405180910390f35b6102a560048036038101906102a09190611c8e565b6107d4565b005b6102c160048036038101906102bc9190611d11565b6107f1565b005b6102cb610a3c565b6040516102d89190611d79565b60405180910390f35b6102fb60048036038101906102f69190611d11565b610a53565b005b610305610bfd565b005b61030f610c11565b60405161031c9190611d79565b60405180910390f35b61032d610c24565b005b610337610c36565b005b610341610d82565b60405161034e91906117c5565b60405180910390f35b610371600480360381019061036c9190611d11565b610dab565b005b61038d60048036038101906103889190611c24565b61101f565b60405161039a9190611c73565b60405180910390f35b6103ab611044565b005b6103c760048036038101906103c29190611d94565b611078565b6040516103d49190611c73565b60405180910390f35b6103f760048036038101906103f29190611d94565b611090565b6040516104049190611ac9565b60405180910390f35b61042760048036038101906104229190611d94565b61118d565b005b600360009054906101000a900473ffffffffffffffffffffffffffffffffffffffff1681565b6060815167ffffffffffffffff81111561046c5761046b611836565b5b60405190808252806020026020018201604052801561049a5781602001602082028036833780820191505090505b50905060005b82518110156105db5760008382815181106104be576104bd611dc1565b5b60200260200101519050600960008673ffffffffffffffffffffffffffffffffffffffff1673ffffffffffffffffffffffffffffffffffffffff16815260200190815260200160002060008281526020019081526020016000205461052543600554611210565b61052f9190611e1f565b61058082600860008973ffffffffffffffffffffffffffffffffffffffff1673ffffffffffffffffffffffffffffffffffffffff16815260200190815260200160002061122990919063ffffffff16565b61058b57600061058e565b60015b60ff1660065461059e9190611e53565b6105a89190611e53565b8383815181106105bb576105ba611dc1565b5b6020026020010181815250505080806105d390611e95565b9150506104a0565b5092915050565b600063150b7a0260e01b905095945050505050565b6000600960008473ffffffffffffffffffffffffffffffffffffffff1673ffffffffffffffffffffffffffffffffffffffff16815260200190815260200160002060008381526020019081526020016000205461065643600554611210565b11610696576040517f08c379a000000000000000000000000000000000000000000000000000000000815260040161068d90611f3a565b60405180910390fd5b600960008473ffffffffffffffffffffffffffffffffffffffff1673ffffffffffffffffffffffffffffffffffffffff1681526020019081526020016000206000838152602001908152602001600020546106f343600554611210565b6106fd9190611e1f565b61074e83600860008773ffffffffffffffffffffffffffffffffffffffff1673ffffffffffffffffffffffffffffffffffffffff16815260200190815260200160002061122990919063ffffffff16565b61075957600061075c565b60015b60ff1660065461076c9190611e53565b6107769190611e53565b905092915050565b600460009054906101000a900473ffffffffffffffffffffffffffffffffffffffff1681565b60065481565b6107b2611243565b8060068190555050565b6107c4611243565b6107cc6112c1565b565b60055481565b6107dc611243565b80436107e89190611f5a565b60058190555050565b6107f9611324565b600360009054906101000a900473ffffffffffffffffffffffffffffffffffffffff1673ffffffffffffffffffffffffffffffffffffffff163373ffffffffffffffffffffffffffffffffffffffff1603610889576040517f08c379a000000000000000000000000000000000000000000000000000000000815260040161088090611fda565b60405180910390fd5b60005b82829050811015610a37576108ba338484848181106108ae576108ad611dc1565b5b905060200201356105f7565b600a60003373ffffffffffffffffffffffffffffffffffffffff1673ffffffffffffffffffffffffffffffffffffffff16815260200190815260200160002060008282546109089190611f5a565b92505081905550600360009054906101000a900473ffffffffffffffffffffffffffffffffffffffff1673ffffffffffffffffffffffffffffffffffffffff1663b88d4fde333086868681811061096257610961611dc1565b5b905060200201356040518463ffffffff1660e01b815260040161098793929190612031565b600060405180830381600087803b1580156109a157600080fd5b505af11580156109b5573d6000803e3d6000fd5b50505050610a238383838181106109cf576109ce611dc1565b5b90506020020135600860003373ffffffffffffffffffffffffffffffffffffffff1673ffffffffffffffffffffffffffffffffffffffff16815260200190815260200160002061136e90919063ffffffff16565b508080610a2f90611e95565b91505061088c565b505050565b6000600260009054906101000a900460ff16905090565b610a5b611324565b60011515600760009054906101000a900460ff16151514610a7b57600080fd5b600080610a8a43600554611210565b905060005b84849050811015610b4b57610abd33868684818110610ab157610ab0611dc1565b5b905060200201356105f7565b83610ac89190611f5a565b925081600960003373ffffffffffffffffffffffffffffffffffffffff1673ffffffffffffffffffffffffffffffffffffffff1681526020019081526020016000206000878785818110610b1f57610b1e611dc1565b5b905060200201358152602001908152602001600020819055508080610b4390611e95565b915050610a8f565b506000821115610bf757600460009054906101000a900473ffffffffffffffffffffffffffffffffffffffff1673ffffffffffffffffffffffffffffffffffffffff1663a9059cbb33846040518363ffffffff1660e01b8152600401610bb292919061207b565b6020604051808303816000875af1158015610bd1573d6000803e3d6000fd5b505050506040513d601f19601f82011682018060405250810190610bf591906120d0565b505b50505050565b610c05611243565b610c0f6000611388565b565b600760009054906101000a900460ff1681565b610c2c611243565b610c3461144c565b565b610c3e611243565b6000600460009054906101000a900473ffffffffffffffffffffffffffffffffffffffff1673ffffffffffffffffffffffffffffffffffffffff166370a08231306040518263ffffffff1660e01b8152600401610c9b91906117c5565b602060405180830381865afa158015610cb8573d6000803e3d6000fd5b505050506040513d601f19601f82011682018060405250810190610cdc9190612112565b9050600460009054906101000a900473ffffffffffffffffffffffffffffffffffffffff1673ffffffffffffffffffffffffffffffffffffffff1663a9059cbb33836040518363ffffffff1660e01b8152600401610d3b92919061207b565b6020604051808303816000875af1158015610d5a573d6000803e3d6000fd5b505050506040513d601f19601f82011682018060405250810190610d7e91906120d0565b5050565b60008060009054906101000a900473ffffffffffffffffffffffffffffffffffffffff16905090565b610db3611324565b610dbb6114af565b60005b8282905081101561101257610e33838383818110610ddf57610dde611dc1565b5b90506020020135600860003373ffffffffffffffffffffffffffffffffffffffff1673ffffffffffffffffffffffffffffffffffffffff16815260200190815260200160002061122990919063ffffffff16565b610e72576040517f08c379a0000000000000000000000000000000000000000000000000000000008152600401610e699061218b565b60405180910390fd5b610e9533848484818110610e8957610e88611dc1565b5b905060200201356105f7565b600a60003373ffffffffffffffffffffffffffffffffffffffff1673ffffffffffffffffffffffffffffffffffffffff1681526020019081526020016000206000828254610ee39190611f5a565b92505081905550610f54838383818110610f0057610eff611dc1565b5b90506020020135600860003373ffffffffffffffffffffffffffffffffffffffff1673ffffffffffffffffffffffffffffffffffffffff1681526020019081526020016000206114fe90919063ffffffff16565b50600360009054906101000a900473ffffffffffffffffffffffffffffffffffffffff1673ffffffffffffffffffffffffffffffffffffffff1663b88d4fde3033868686818110610fa857610fa7611dc1565b5b905060200201356040518463ffffffff1660e01b8152600401610fcd93929190612031565b600060405180830381600087803b158015610fe757600080fd5b505af1158015610ffb573d6000803e3d6000fd5b50505050808061100a90611e95565b915050610dbe565b5061101b611518565b5050565b6009602052816000526040600020602052806000526040600020600091509150505481565b61104c611243565b600760009054906101000a900460ff1615600760006101000a81548160ff021916908315150217905550565b600a6020528060005260406000206000915090505481565b60606000600860008473ffffffffffffffffffffffffffffffffffffffff1673ffffffffffffffffffffffffffffffffffffffff168152602001908152602001600020905060006110e082611521565b67ffffffffffffffff8111156110f9576110f8611836565b5b6040519080825280602002602001820160405280156111275781602001602082028036833780820191505090505b50905060005b61113683611521565b81101561118257611150818461153690919063ffffffff16565b82828151811061116357611162611dc1565b5b602002602001018181525050808061117a90611e95565b91505061112d565b508092505050919050565b611195611243565b600073ffffffffffffffffffffffffffffffffffffffff168173ffffffffffffffffffffffffffffffffffffffff1603611204576040517f08c379a00000000000000000000000000000000000000000000000000000000081526004016111fb9061221d565b60405180910390fd5b61120d81611388565b50565b600081831061121f5781611221565b825b905092915050565b600061123b836000018360001b611550565b905092915050565b61124b611573565b73ffffffffffffffffffffffffffffffffffffffff16611269610d82565b73ffffffffffffffffffffffffffffffffffffffff16146112bf576040517f08c379a00000000000000000000000000000000000000000000000000000000081526004016112b690612289565b60405180910390fd5b565b6112c961157b565b6000600260006101000a81548160ff0219169083151502179055507f5db9ee0a495bf2e6ff9c91a7834c1ba4fdd244a5e8aa4e537bd38aeae4b073aa61130d611573565b60405161131a91906117c5565b60405180910390a1565b61132c610a3c565b1561136c576040517f08c379a0000000000000000000000000000000000000000000000000000000008152600401611363906122f5565b60405180910390fd5b565b6000611380836000018360001b6115c4565b905092915050565b60008060009054906101000a900473ffffffffffffffffffffffffffffffffffffffff169050816000806101000a81548173ffffffffffffffffffffffffffffffffffffffff021916908373ffffffffffffffffffffffffffffffffffffffff1602179055508173ffffffffffffffffffffffffffffffffffffffff168173ffffffffffffffffffffffffffffffffffffffff167f8be0079c531659141344cd1fd0a4f28419497f9722a3daafe3b4186f6b6457e060405160405180910390a35050565b611454611324565b6001600260006101000a81548160ff0219169083151502179055507f62e78cea01bee320cd4e420270b5ea74000d11b0c9f74754ebdbfc544b05a258611498611573565b6040516114a591906117c5565b60405180910390a1565b6002600154036114f4576040517f08c379a00000000000000000000000000000000000000000000000000000000081526004016114eb90612361565b60405180910390fd5b6002600181905550565b6000611510836000018360001b611634565b905092915050565b60018081905550565b600061152f82600001611748565b9050919050565b60006115458360000183611759565b60001c905092915050565b600080836001016000848152602001908152602001600020541415905092915050565b600033905090565b611583610a3c565b6115c2576040517f08c379a00000000000000000000000000000000000000000000000000000000081526004016115b9906123cd565b60405180910390fd5b565b60006115d08383611550565b61162957826000018290806001815401808255809150506001900390600052602060002001600090919091909150558260000180549050836001016000848152602001908152602001600020819055506001905061162e565b600090505b92915050565b6000808360010160008481526020019081526020016000205490506000811461173c5760006001826116669190611e1f565b905060006001866000018054905061167e9190611e1f565b90508181146116ed57600086600001828154811061169f5761169e611dc1565b5b90600052602060002001549050808760000184815481106116c3576116c2611dc1565b5b90600052602060002001819055508387600101600083815260200190815260200160002081905550505b85600001805480611701576117006123ed565b5b600190038181906000526020600020016000905590558560010160008681526020019081526020016000206000905560019350505050611742565b60009150505b92915050565b600081600001805490509050919050565b600082600001828154811061177157611770611dc1565b5b9060005260206000200154905092915050565b600073ffffffffffffffffffffffffffffffffffffffff82169050919050565b60006117af82611784565b9050919050565b6117bf816117a4565b82525050565b60006020820190506117da60008301846117b6565b92915050565b6000604051905090565b600080fd5b600080fd5b6117fd816117a4565b811461180857600080fd5b50565b60008135905061181a816117f4565b92915050565b600080fd5b6000601f19601f8301169050919050565b7f4e487b7100000000000000000000000000000000000000000000000000000000600052604160045260246000fd5b61186e82611825565b810181811067ffffffffffffffff8211171561188d5761188c611836565b5b80604052505050565b60006118a06117e0565b90506118ac8282611865565b919050565b600067ffffffffffffffff8211156118cc576118cb611836565b5b602082029050602081019050919050565b600080fd5b6000819050919050565b6118f5816118e2565b811461190057600080fd5b50565b600081359050611912816118ec565b92915050565b600061192b611926846118b1565b611896565b9050808382526020820190506020840283018581111561194e5761194d6118dd565b5b835b8181101561197757806119638882611903565b845260208401935050602081019050611950565b5050509392505050565b600082601f83011261199657611995611820565b5b81356119a6848260208601611918565b91505092915050565b600080604083850312156119c6576119c56117ea565b5b60006119d48582860161180b565b925050602083013567ffffffffffffffff8111156119f5576119f46117ef565b5b611a0185828601611981565b9150509250929050565b600081519050919050565b600082825260208201905092915050565b6000819050602082019050919050565b611a40816118e2565b82525050565b6000611a528383611a37565b60208301905092915050565b6000602082019050919050565b6000611a7682611a0b565b611a808185611a16565b9350611a8b83611a27565b8060005b83811015611abc578151611aa38882611a46565b9750611aae83611a5e565b925050600181019050611a8f565b5085935050505092915050565b60006020820190508181036000830152611ae38184611a6b565b905092915050565b600080fd5b60008083601f840112611b0657611b05611820565b5b8235905067ffffffffffffffff811115611b2357611b22611aeb565b5b602083019150836001820283011115611b3f57611b3e6118dd565b5b9250929050565b600080600080600060808688031215611b6257611b616117ea565b5b6000611b708882890161180b565b9550506020611b818882890161180b565b9450506040611b9288828901611903565b935050606086013567ffffffffffffffff811115611bb357611bb26117ef565b5b611bbf88828901611af0565b92509250509295509295909350565b60007fffffffff0000000000000000000000000000000000000000000000000000000082169050919050565b611c0381611bce565b82525050565b6000602082019050611c1e6000830184611bfa565b92915050565b60008060408385031215611c3b57611c3a6117ea565b5b6000611c498582860161180b565b9250506020611c5a85828601611903565b9150509250929050565b611c6d816118e2565b82525050565b6000602082019050611c886000830184611c64565b92915050565b600060208284031215611ca457611ca36117ea565b5b6000611cb284828501611903565b91505092915050565b60008083601f840112611cd157611cd0611820565b5b8235905067ffffffffffffffff811115611cee57611ced611aeb565b5b602083019150836020820283011115611d0a57611d096118dd565b5b9250929050565b60008060208385031215611d2857611d276117ea565b5b600083013567ffffffffffffffff811115611d4657611d456117ef565b5b611d5285828601611cbb565b92509250509250929050565b60008115159050919050565b611d7381611d5e565b82525050565b6000602082019050611d8e6000830184611d6a565b92915050565b600060208284031215611daa57611da96117ea565b5b6000611db88482850161180b565b91505092915050565b7f4e487b7100000000000000000000000000000000000000000000000000000000600052603260045260246000fd5b7f4e487b7100000000000000000000000000000000000000000000000000000000600052601160045260246000fd5b6000611e2a826118e2565b9150611e35836118e2565b9250828203905081811115611e4d57611e4c611df0565b5b92915050565b6000611e5e826118e2565b9150611e69836118e2565b9250828202611e77816118e2565b91508282048414831517611e8e57611e8d611df0565b5b5092915050565b6000611ea0826118e2565b91507fffffffffffffffffffffffffffffffffffffffffffffffffffffffffffffffff8203611ed257611ed1611df0565b5b600182019050919050565b600082825260208201905092915050565b7f496e76616c696420626c6f636b73000000000000000000000000000000000000600082015250565b6000611f24600e83611edd565b9150611f2f82611eee565b602082019050919050565b60006020820190508181036000830152611f5381611f17565b9050919050565b6000611f65826118e2565b9150611f70836118e2565b9250828201905080821115611f8857611f87611df0565b5b92915050565b7f496e76616c696420616464726573730000000000000000000000000000000000600082015250565b6000611fc4600f83611edd565b9150611fcf82611f8e565b602082019050919050565b60006020820190508181036000830152611ff381611fb7565b9050919050565b600082825260208201905092915050565b50565b600061201b600083611ffa565b91506120268261200b565b600082019050919050565b600060808201905061204660008301866117b6565b61205360208301856117b6565b6120606040830184611c64565b81810360608301526120718161200e565b9050949350505050565b600060408201905061209060008301856117b6565b61209d6020830184611c64565b9392505050565b6120ad81611d5e565b81146120b857600080fd5b50565b6000815190506120ca816120a4565b92915050565b6000602082840312156120e6576120e56117ea565b5b60006120f4848285016120bb565b91505092915050565b60008151905061210c816118ec565b92915050565b600060208284031215612128576121276117ea565b5b6000612136848285016120fd565b91505092915050565b7f5374616b696e673a20746f6b656e206e6f74206465706f736974656400000000600082015250565b6000612175601c83611edd565b91506121808261213f565b602082019050919050565b600060208201905081810360008301526121a481612168565b9050919050565b7f4f776e61626c653a206e6577206f776e657220697320746865207a65726f206160008201527f6464726573730000000000000000000000000000000000000000000000000000602082015250565b6000612207602683611edd565b9150612212826121ab565b604082019050919050565b60006020820190508181036000830152612236816121fa565b9050919050565b7f4f776e61626c653a2063616c6c6572206973206e6f7420746865206f776e6572600082015250565b6000612273602083611edd565b915061227e8261223d565b602082019050919050565b600060208201905081810360008301526122a281612266565b9050919050565b7f5061757361626c653a2070617573656400000000000000000000000000000000600082015250565b60006122df601083611edd565b91506122ea826122a9565b602082019050919050565b6000602082019050818103600083015261230e816122d2565b9050919050565b7f5265656e7472616e637947756172643a207265656e7472616e742063616c6c00600082015250565b600061234b601f83611edd565b915061235682612315565b602082019050919050565b6000602082019050818103600083015261237a8161233e565b9050919050565b7f5061757361626c653a206e6f7420706175736564000000000000000000000000600082015250565b60006123b7601483611edd565b91506123c282612381565b602082019050919050565b600060208201905081810360008301526123e6816123aa565b9050919050565b7f4e487b7100000000000000000000000000000000000000000000000000000000600052603160045260246000fdfea2646970667358221220a860c9d283270c05f09609d8ac080521406e4b241297bae80e70f377b18a00b864736f6c63430008110033",
					"opcodes": "PUSH1 0x80 PUSH1 0x40 MSTORE PUSH1 0x0 PUSH1 0x2 PUSH1 0x1 PUSH2 0x100 EXP DUP2 SLOAD DUP2 PUSH20 0xFFFFFFFFFFFFFFFFFFFFFFFFFFFFFFFFFFFFFFFF MUL NOT AND SWAP1 DUP4 PUSH20 0xFFFFFFFFFFFFFFFFFFFFFFFFFFFFFFFFFFFFFFFF AND MUL OR SWAP1 SSTORE POP CALLVALUE DUP1 ISZERO PUSH3 0x53 JUMPI PUSH1 0x0 DUP1 REVERT JUMPDEST POP PUSH1 0x40 MLOAD PUSH3 0x29CE CODESIZE SUB DUP1 PUSH3 0x29CE DUP4 CODECOPY DUP2 DUP2 ADD PUSH1 0x40 MSTORE DUP2 ADD SWAP1 PUSH3 0x79 SWAP2 SWAP1 PUSH3 0x3DF JUMP JUMPDEST PUSH3 0x99 PUSH3 0x8D PUSH3 0x18D PUSH1 0x20 SHL PUSH1 0x20 SHR JUMP JUMPDEST PUSH3 0x195 PUSH1 0x20 SHL PUSH1 0x20 SHR JUMP JUMPDEST PUSH1 0x1 DUP1 DUP2 SWAP1 SSTORE POP PUSH1 0x0 PUSH1 0x2 PUSH1 0x0 PUSH2 0x100 EXP DUP2 SLOAD DUP2 PUSH1 0xFF MUL NOT AND SWAP1 DUP4 ISZERO ISZERO MUL OR SWAP1 SSTORE POP DUP4 PUSH1 0x3 PUSH1 0x0 PUSH2 0x100 EXP DUP2 SLOAD DUP2 PUSH20 0xFFFFFFFFFFFFFFFFFFFFFFFFFFFFFFFFFFFFFFFF MUL NOT AND SWAP1 DUP4 PUSH20 0xFFFFFFFFFFFFFFFFFFFFFFFFFFFFFFFFFFFFFFFF AND MUL OR SWAP1 SSTORE POP DUP3 PUSH1 0x6 DUP2 SWAP1 SSTORE POP DUP2 NUMBER PUSH3 0x111 SWAP2 SWAP1 PUSH3 0x480 JUMP JUMPDEST PUSH1 0x5 DUP2 SWAP1 SSTORE POP DUP1 PUSH1 0x4 PUSH1 0x0 PUSH2 0x100 EXP DUP2 SLOAD DUP2 PUSH20 0xFFFFFFFFFFFFFFFFFFFFFFFFFFFFFFFFFFFFFFFF MUL NOT AND SWAP1 DUP4 PUSH20 0xFFFFFFFFFFFFFFFFFFFFFFFFFFFFFFFFFFFFFFFF AND MUL OR SWAP1 SSTORE POP PUSH3 0x168 PUSH3 0x259 PUSH1 0x20 SHL PUSH1 0x20 SHR JUMP JUMPDEST PUSH1 0x0 PUSH1 0x7 PUSH1 0x0 PUSH2 0x100 EXP DUP2 SLOAD DUP2 PUSH1 0xFF MUL NOT AND SWAP1 DUP4 ISZERO ISZERO MUL OR SWAP1 SSTORE POP POP POP POP POP PUSH3 0x56C JUMP JUMPDEST PUSH1 0x0 CALLER SWAP1 POP SWAP1 JUMP JUMPDEST PUSH1 0x0 DUP1 PUSH1 0x0 SWAP1 SLOAD SWAP1 PUSH2 0x100 EXP SWAP1 DIV PUSH20 0xFFFFFFFFFFFFFFFFFFFFFFFFFFFFFFFFFFFFFFFF AND SWAP1 POP DUP2 PUSH1 0x0 DUP1 PUSH2 0x100 EXP DUP2 SLOAD DUP2 PUSH20 0xFFFFFFFFFFFFFFFFFFFFFFFFFFFFFFFFFFFFFFFF MUL NOT AND SWAP1 DUP4 PUSH20 0xFFFFFFFFFFFFFFFFFFFFFFFFFFFFFFFFFFFFFFFF AND MUL OR SWAP1 SSTORE POP DUP2 PUSH20 0xFFFFFFFFFFFFFFFFFFFFFFFFFFFFFFFFFFFFFFFF AND DUP2 PUSH20 0xFFFFFFFFFFFFFFFFFFFFFFFFFFFFFFFFFFFFFFFF AND PUSH32 0x8BE0079C531659141344CD1FD0A4F28419497F9722A3DAAFE3B4186F6B6457E0 PUSH1 0x40 MLOAD PUSH1 0x40 MLOAD DUP1 SWAP2 SUB SWAP1 LOG3 POP POP JUMP JUMPDEST PUSH3 0x269 PUSH3 0x2CE PUSH1 0x20 SHL PUSH1 0x20 SHR JUMP JUMPDEST PUSH1 0x1 PUSH1 0x2 PUSH1 0x0 PUSH2 0x100 EXP DUP2 SLOAD DUP2 PUSH1 0xFF MUL NOT AND SWAP1 DUP4 ISZERO ISZERO MUL OR SWAP1 SSTORE POP PUSH32 0x62E78CEA01BEE320CD4E420270B5EA74000D11B0C9F74754EBDBFC544B05A258 PUSH3 0x2B5 PUSH3 0x18D PUSH1 0x20 SHL PUSH1 0x20 SHR JUMP JUMPDEST PUSH1 0x40 MLOAD PUSH3 0x2C4 SWAP2 SWAP1 PUSH3 0x4CC JUMP JUMPDEST PUSH1 0x40 MLOAD DUP1 SWAP2 SUB SWAP1 LOG1 JUMP JUMPDEST PUSH3 0x2DE PUSH3 0x323 PUSH1 0x20 SHL PUSH1 0x20 SHR JUMP JUMPDEST ISZERO PUSH3 0x321 JUMPI PUSH1 0x40 MLOAD PUSH32 0x8C379A000000000000000000000000000000000000000000000000000000000 DUP2 MSTORE PUSH1 0x4 ADD PUSH3 0x318 SWAP1 PUSH3 0x54A JUMP JUMPDEST PUSH1 0x40 MLOAD DUP1 SWAP2 SUB SWAP1 REVERT JUMPDEST JUMP JUMPDEST PUSH1 0x0 PUSH1 0x2 PUSH1 0x0 SWAP1 SLOAD SWAP1 PUSH2 0x100 EXP SWAP1 DIV PUSH1 0xFF AND SWAP1 POP SWAP1 JUMP JUMPDEST PUSH1 0x0 DUP1 REVERT JUMPDEST PUSH1 0x0 PUSH20 0xFFFFFFFFFFFFFFFFFFFFFFFFFFFFFFFFFFFFFFFF DUP3 AND SWAP1 POP SWAP2 SWAP1 POP JUMP JUMPDEST PUSH1 0x0 PUSH3 0x36C DUP3 PUSH3 0x33F JUMP JUMPDEST SWAP1 POP SWAP2 SWAP1 POP JUMP JUMPDEST PUSH3 0x37E DUP2 PUSH3 0x35F JUMP JUMPDEST DUP2 EQ PUSH3 0x38A JUMPI PUSH1 0x0 DUP1 REVERT JUMPDEST POP JUMP JUMPDEST PUSH1 0x0 DUP2 MLOAD SWAP1 POP PUSH3 0x39E DUP2 PUSH3 0x373 JUMP JUMPDEST SWAP3 SWAP2 POP POP JUMP JUMPDEST PUSH1 0x0 DUP2 SWAP1 POP SWAP2 SWAP1 POP JUMP JUMPDEST PUSH3 0x3B9 DUP2 PUSH3 0x3A4 JUMP JUMPDEST DUP2 EQ PUSH3 0x3C5 JUMPI PUSH1 0x0 DUP1 REVERT JUMPDEST POP JUMP JUMPDEST PUSH1 0x0 DUP2 MLOAD SWAP1 POP PUSH3 0x3D9 DUP2 PUSH3 0x3AE JUMP JUMPDEST SWAP3 SWAP2 POP POP JUMP JUMPDEST PUSH1 0x0 DUP1 PUSH1 0x0 DUP1 PUSH1 0x80 DUP6 DUP8 SUB SLT ISZERO PUSH3 0x3FC JUMPI PUSH3 0x3FB PUSH3 0x33A JUMP JUMPDEST JUMPDEST PUSH1 0x0 PUSH3 0x40C DUP8 DUP3 DUP9 ADD PUSH3 0x38D JUMP JUMPDEST SWAP5 POP POP PUSH1 0x20 PUSH3 0x41F DUP8 DUP3 DUP9 ADD PUSH3 0x3C8 JUMP JUMPDEST SWAP4 POP POP PUSH1 0x40 PUSH3 0x432 DUP8 DUP3 DUP9 ADD PUSH3 0x3C8 JUMP JUMPDEST SWAP3 POP POP PUSH1 0x60 PUSH3 0x445 DUP8 DUP3 DUP9 ADD PUSH3 0x38D JUMP JUMPDEST SWAP2 POP POP SWAP3 SWAP6 SWAP2 SWAP5 POP SWAP3 POP JUMP JUMPDEST PUSH32 0x4E487B7100000000000000000000000000000000000000000000000000000000 PUSH1 0x0 MSTORE PUSH1 0x11 PUSH1 0x4 MSTORE PUSH1 0x24 PUSH1 0x0 REVERT JUMPDEST PUSH1 0x0 PUSH3 0x48D DUP3 PUSH3 0x3A4 JUMP JUMPDEST SWAP2 POP PUSH3 0x49A DUP4 PUSH3 0x3A4 JUMP JUMPDEST SWAP3 POP DUP3 DUP3 ADD SWAP1 POP DUP1 DUP3 GT ISZERO PUSH3 0x4B5 JUMPI PUSH3 0x4B4 PUSH3 0x451 JUMP JUMPDEST JUMPDEST SWAP3 SWAP2 POP POP JUMP JUMPDEST PUSH3 0x4C6 DUP2 PUSH3 0x35F JUMP JUMPDEST DUP3 MSTORE POP POP JUMP JUMPDEST PUSH1 0x0 PUSH1 0x20 DUP3 ADD SWAP1 POP PUSH3 0x4E3 PUSH1 0x0 DUP4 ADD DUP5 PUSH3 0x4BB JUMP JUMPDEST SWAP3 SWAP2 POP POP JUMP JUMPDEST PUSH1 0x0 DUP3 DUP3 MSTORE PUSH1 0x20 DUP3 ADD SWAP1 POP SWAP3 SWAP2 POP POP JUMP JUMPDEST PUSH32 0x5061757361626C653A2070617573656400000000000000000000000000000000 PUSH1 0x0 DUP3 ADD MSTORE POP JUMP JUMPDEST PUSH1 0x0 PUSH3 0x532 PUSH1 0x10 DUP4 PUSH3 0x4E9 JUMP JUMPDEST SWAP2 POP PUSH3 0x53F DUP3 PUSH3 0x4FA JUMP JUMPDEST PUSH1 0x20 DUP3 ADD SWAP1 POP SWAP2 SWAP1 POP JUMP JUMPDEST PUSH1 0x0 PUSH1 0x20 DUP3 ADD SWAP1 POP DUP2 DUP2 SUB PUSH1 0x0 DUP4 ADD MSTORE PUSH3 0x565 DUP2 PUSH3 0x523 JUMP JUMPDEST SWAP1 POP SWAP2 SWAP1 POP JUMP JUMPDEST PUSH2 0x2452 DUP1 PUSH3 0x57C PUSH1 0x0 CODECOPY PUSH1 0x0 RETURN INVALID PUSH1 0x80 PUSH1 0x40 MSTORE CALLVALUE DUP1 ISZERO PUSH2 0x10 JUMPI PUSH1 0x0 DUP1 REVERT JUMPDEST POP PUSH1 0x4 CALLDATASIZE LT PUSH2 0x158 JUMPI PUSH1 0x0 CALLDATALOAD PUSH1 0xE0 SHR DUP1 PUSH4 0x5EAC6239 GT PUSH2 0xC3 JUMPI DUP1 PUSH4 0x983D95CE GT PUSH2 0x7C JUMPI DUP1 PUSH4 0x983D95CE EQ PUSH2 0x357 JUMPI DUP1 PUSH4 0xB343AE14 EQ PUSH2 0x373 JUMPI DUP1 PUSH4 0xCA1C2019 EQ PUSH2 0x3A3 JUMPI DUP1 PUSH4 0xDEEC7EFF EQ PUSH2 0x3AD JUMPI DUP1 PUSH4 0xE3A9DB1A EQ PUSH2 0x3DD JUMPI DUP1 PUSH4 0xF2FDE38B EQ PUSH2 0x40D JUMPI PUSH2 0x158 JUMP JUMPDEST DUP1 PUSH4 0x5EAC6239 EQ PUSH2 0x2E1 JUMPI DUP1 PUSH4 0x715018A6 EQ PUSH2 0x2FD JUMPI DUP1 PUSH4 0x74478BB3 EQ PUSH2 0x307 JUMPI DUP1 PUSH4 0x8456CB59 EQ PUSH2 0x325 JUMPI DUP1 PUSH4 0x8D8F2ADB EQ PUSH2 0x32F JUMPI DUP1 PUSH4 0x8DA5CB5B EQ PUSH2 0x339 JUMPI PUSH2 0x158 JUMP JUMPDEST DUP1 PUSH4 0x34FCF437 GT PUSH2 0x115 JUMPI DUP1 PUSH4 0x34FCF437 EQ PUSH2 0x247 JUMPI DUP1 PUSH4 0x3F4BA83A EQ PUSH2 0x263 JUMPI DUP1 PUSH4 0x4665096D EQ PUSH2 0x26D JUMPI DUP1 PUSH4 0x515A20BA EQ PUSH2 0x28B JUMPI DUP1 PUSH4 0x598B8E71 EQ PUSH2 0x2A7 JUMPI DUP1 PUSH4 0x5C975ABB EQ PUSH2 0x2C3 JUMPI PUSH2 0x158 JUMP JUMPDEST DUP1 PUSH4 0x222A2C4 EQ PUSH2 0x15D JUMPI DUP1 PUSH4 0x68C526F EQ PUSH2 0x17B JUMPI DUP1 PUSH4 0x150B7A02 EQ PUSH2 0x1AB JUMPI DUP1 PUSH4 0x1852E8D9 EQ PUSH2 0x1DB JUMPI DUP1 PUSH4 0x276184AE EQ PUSH2 0x20B JUMPI DUP1 PUSH4 0x2C4E722E EQ PUSH2 0x229 JUMPI JUMPDEST PUSH1 0x0 DUP1 REVERT JUMPDEST PUSH2 0x165 PUSH2 0x429 JUMP JUMPDEST PUSH1 0x40 MLOAD PUSH2 0x172 SWAP2 SWAP1 PUSH2 0x17C5 JUMP JUMPDEST PUSH1 0x40 MLOAD DUP1 SWAP2 SUB SWAP1 RETURN JUMPDEST PUSH2 0x195 PUSH1 0x4 DUP1 CALLDATASIZE SUB DUP2 ADD SWAP1 PUSH2 0x190 SWAP2 SWAP1 PUSH2 0x19AF JUMP JUMPDEST PUSH2 0x44F JUMP JUMPDEST PUSH1 0x40 MLOAD PUSH2 0x1A2 SWAP2 SWAP1 PUSH2 0x1AC9 JUMP JUMPDEST PUSH1 0x40 MLOAD DUP1 SWAP2 SUB SWAP1 RETURN JUMPDEST PUSH2 0x1C5 PUSH1 0x4 DUP1 CALLDATASIZE SUB DUP2 ADD SWAP1 PUSH2 0x1C0 SWAP2 SWAP1 PUSH2 0x1B46 JUMP JUMPDEST PUSH2 0x5E2 JUMP JUMPDEST PUSH1 0x40 MLOAD PUSH2 0x1D2 SWAP2 SWAP1 PUSH2 0x1C09 JUMP JUMPDEST PUSH1 0x40 MLOAD DUP1 SWAP2 SUB SWAP1 RETURN JUMPDEST PUSH2 0x1F5 PUSH1 0x4 DUP1 CALLDATASIZE SUB DUP2 ADD SWAP1 PUSH2 0x1F0 SWAP2 SWAP1 PUSH2 0x1C24 JUMP JUMPDEST PUSH2 0x5F7 JUMP JUMPDEST PUSH1 0x40 MLOAD PUSH2 0x202 SWAP2 SWAP1 PUSH2 0x1C73 JUMP JUMPDEST PUSH1 0x40 MLOAD DUP1 SWAP2 SUB SWAP1 RETURN JUMPDEST PUSH2 0x213 PUSH2 0x77E JUMP JUMPDEST PUSH1 0x40 MLOAD PUSH2 0x220 SWAP2 SWAP1 PUSH2 0x17C5 JUMP JUMPDEST PUSH1 0x40 MLOAD DUP1 SWAP2 SUB SWAP1 RETURN JUMPDEST PUSH2 0x231 PUSH2 0x7A4 JUMP JUMPDEST PUSH1 0x40 MLOAD PUSH2 0x23E SWAP2 SWAP1 PUSH2 0x1C73 JUMP JUMPDEST PUSH1 0x40 MLOAD DUP1 SWAP2 SUB SWAP1 RETURN JUMPDEST PUSH2 0x261 PUSH1 0x4 DUP1 CALLDATASIZE SUB DUP2 ADD SWAP1 PUSH2 0x25C SWAP2 SWAP1 PUSH2 0x1C8E JUMP JUMPDEST PUSH2 0x7AA JUMP JUMPDEST STOP JUMPDEST PUSH2 0x26B PUSH2 0x7BC JUMP JUMPDEST STOP JUMPDEST PUSH2 0x275 PUSH2 0x7CE JUMP JUMPDEST PUSH1 0x40 MLOAD PUSH2 0x282 SWAP2 SWAP1 PUSH2 0x1C73 JUMP JUMPDEST PUSH1 0x40 MLOAD DUP1 SWAP2 SUB SWAP1 RETURN JUMPDEST PUSH2 0x2A5 PUSH1 0x4 DUP1 CALLDATASIZE SUB DUP2 ADD SWAP1 PUSH2 0x2A0 SWAP2 SWAP1 PUSH2 0x1C8E JUMP JUMPDEST PUSH2 0x7D4 JUMP JUMPDEST STOP JUMPDEST PUSH2 0x2C1 PUSH1 0x4 DUP1 CALLDATASIZE SUB DUP2 ADD SWAP1 PUSH2 0x2BC SWAP2 SWAP1 PUSH2 0x1D11 JUMP JUMPDEST PUSH2 0x7F1 JUMP JUMPDEST STOP JUMPDEST PUSH2 0x2CB PUSH2 0xA3C JUMP JUMPDEST PUSH1 0x40 MLOAD PUSH2 0x2D8 SWAP2 SWAP1 PUSH2 0x1D79 JUMP JUMPDEST PUSH1 0x40 MLOAD DUP1 SWAP2 SUB SWAP1 RETURN JUMPDEST PUSH2 0x2FB PUSH1 0x4 DUP1 CALLDATASIZE SUB DUP2 ADD SWAP1 PUSH2 0x2F6 SWAP2 SWAP1 PUSH2 0x1D11 JUMP JUMPDEST PUSH2 0xA53 JUMP JUMPDEST STOP JUMPDEST PUSH2 0x305 PUSH2 0xBFD JUMP JUMPDEST STOP JUMPDEST PUSH2 0x30F PUSH2 0xC11 JUMP JUMPDEST PUSH1 0x40 MLOAD PUSH2 0x31C SWAP2 SWAP1 PUSH2 0x1D79 JUMP JUMPDEST PUSH1 0x40 MLOAD DUP1 SWAP2 SUB SWAP1 RETURN JUMPDEST PUSH2 0x32D PUSH2 0xC24 JUMP JUMPDEST STOP JUMPDEST PUSH2 0x337 PUSH2 0xC36 JUMP JUMPDEST STOP JUMPDEST PUSH2 0x341 PUSH2 0xD82 JUMP JUMPDEST PUSH1 0x40 MLOAD PUSH2 0x34E SWAP2 SWAP1 PUSH2 0x17C5 JUMP JUMPDEST PUSH1 0x40 MLOAD DUP1 SWAP2 SUB SWAP1 RETURN JUMPDEST PUSH2 0x371 PUSH1 0x4 DUP1 CALLDATASIZE SUB DUP2 ADD SWAP1 PUSH2 0x36C SWAP2 SWAP1 PUSH2 0x1D11 JUMP JUMPDEST PUSH2 0xDAB JUMP JUMPDEST STOP JUMPDEST PUSH2 0x38D PUSH1 0x4 DUP1 CALLDATASIZE SUB DUP2 ADD SWAP1 PUSH2 0x388 SWAP2 SWAP1 PUSH2 0x1C24 JUMP JUMPDEST PUSH2 0x101F JUMP JUMPDEST PUSH1 0x40 MLOAD PUSH2 0x39A SWAP2 SWAP1 PUSH2 0x1C73 JUMP JUMPDEST PUSH1 0x40 MLOAD DUP1 SWAP2 SUB SWAP1 RETURN JUMPDEST PUSH2 0x3AB PUSH2 0x1044 JUMP JUMPDEST STOP JUMPDEST PUSH2 0x3C7 PUSH1 0x4 DUP1 CALLDATASIZE SUB DUP2 ADD SWAP1 PUSH2 0x3C2 SWAP2 SWAP1 PUSH2 0x1D94 JUMP JUMPDEST PUSH2 0x1078 JUMP JUMPDEST PUSH1 0x40 MLOAD PUSH2 0x3D4 SWAP2 SWAP1 PUSH2 0x1C73 JUMP JUMPDEST PUSH1 0x40 MLOAD DUP1 SWAP2 SUB SWAP1 RETURN JUMPDEST PUSH2 0x3F7 PUSH1 0x4 DUP1 CALLDATASIZE SUB DUP2 ADD SWAP1 PUSH2 0x3F2 SWAP2 SWAP1 PUSH2 0x1D94 JUMP JUMPDEST PUSH2 0x1090 JUMP JUMPDEST PUSH1 0x40 MLOAD PUSH2 0x404 SWAP2 SWAP1 PUSH2 0x1AC9 JUMP JUMPDEST PUSH1 0x40 MLOAD DUP1 SWAP2 SUB SWAP1 RETURN JUMPDEST PUSH2 0x427 PUSH1 0x4 DUP1 CALLDATASIZE SUB DUP2 ADD SWAP1 PUSH2 0x422 SWAP2 SWAP1 PUSH2 0x1D94 JUMP JUMPDEST PUSH2 0x118D JUMP JUMPDEST STOP JUMPDEST PUSH1 0x3 PUSH1 0x0 SWAP1 SLOAD SWAP1 PUSH2 0x100 EXP SWAP1 DIV PUSH20 0xFFFFFFFFFFFFFFFFFFFFFFFFFFFFFFFFFFFFFFFF AND DUP2 JUMP JUMPDEST PUSH1 0x60 DUP2 MLOAD PUSH8 0xFFFFFFFFFFFFFFFF DUP2 GT ISZERO PUSH2 0x46C JUMPI PUSH2 0x46B PUSH2 0x1836 JUMP JUMPDEST JUMPDEST PUSH1 0x40 MLOAD SWAP1 DUP1 DUP3 MSTORE DUP1 PUSH1 0x20 MUL PUSH1 0x20 ADD DUP3 ADD PUSH1 0x40 MSTORE DUP1 ISZERO PUSH2 0x49A JUMPI DUP2 PUSH1 0x20 ADD PUSH1 0x20 DUP3 MUL DUP1 CALLDATASIZE DUP4 CALLDATACOPY DUP1 DUP3 ADD SWAP2 POP POP SWAP1 POP JUMPDEST POP SWAP1 POP PUSH1 0x0 JUMPDEST DUP3 MLOAD DUP2 LT ISZERO PUSH2 0x5DB JUMPI PUSH1 0x0 DUP4 DUP3 DUP2 MLOAD DUP2 LT PUSH2 0x4BE JUMPI PUSH2 0x4BD PUSH2 0x1DC1 JUMP JUMPDEST JUMPDEST PUSH1 0x20 MUL PUSH1 0x20 ADD ADD MLOAD SWAP1 POP PUSH1 0x9 PUSH1 0x0 DUP7 PUSH20 0xFFFFFFFFFFFFFFFFFFFFFFFFFFFFFFFFFFFFFFFF AND PUSH20 0xFFFFFFFFFFFFFFFFFFFFFFFFFFFFFFFFFFFFFFFF AND DUP2 MSTORE PUSH1 0x20 ADD SWAP1 DUP2 MSTORE PUSH1 0x20 ADD PUSH1 0x0 KECCAK256 PUSH1 0x0 DUP3 DUP2 MSTORE PUSH1 0x20 ADD SWAP1 DUP2 MSTORE PUSH1 0x20 ADD PUSH1 0x0 KECCAK256 SLOAD PUSH2 0x525 NUMBER PUSH1 0x5 SLOAD PUSH2 0x1210 JUMP JUMPDEST PUSH2 0x52F SWAP2 SWAP1 PUSH2 0x1E1F JUMP JUMPDEST PUSH2 0x580 DUP3 PUSH1 0x8 PUSH1 0x0 DUP10 PUSH20 0xFFFFFFFFFFFFFFFFFFFFFFFFFFFFFFFFFFFFFFFF AND PUSH20 0xFFFFFFFFFFFFFFFFFFFFFFFFFFFFFFFFFFFFFFFF AND DUP2 MSTORE PUSH1 0x20 ADD SWAP1 DUP2 MSTORE PUSH1 0x20 ADD PUSH1 0x0 KECCAK256 PUSH2 0x1229 SWAP1 SWAP2 SWAP1 PUSH4 0xFFFFFFFF AND JUMP JUMPDEST PUSH2 0x58B JUMPI PUSH1 0x0 PUSH2 0x58E JUMP JUMPDEST PUSH1 0x1 JUMPDEST PUSH1 0xFF AND PUSH1 0x6 SLOAD PUSH2 0x59E SWAP2 SWAP1 PUSH2 0x1E53 JUMP JUMPDEST PUSH2 0x5A8 SWAP2 SWAP1 PUSH2 0x1E53 JUMP JUMPDEST DUP4 DUP4 DUP2 MLOAD DUP2 LT PUSH2 0x5BB JUMPI PUSH2 0x5BA PUSH2 0x1DC1 JUMP JUMPDEST JUMPDEST PUSH1 0x20 MUL PUSH1 0x20 ADD ADD DUP2 DUP2 MSTORE POP POP POP DUP1 DUP1 PUSH2 0x5D3 SWAP1 PUSH2 0x1E95 JUMP JUMPDEST SWAP2 POP POP PUSH2 0x4A0 JUMP JUMPDEST POP SWAP3 SWAP2 POP POP JUMP JUMPDEST PUSH1 0x0 PUSH4 0x150B7A02 PUSH1 0xE0 SHL SWAP1 POP SWAP6 SWAP5 POP POP POP POP POP JUMP JUMPDEST PUSH1 0x0 PUSH1 0x9 PUSH1 0x0 DUP5 PUSH20 0xFFFFFFFFFFFFFFFFFFFFFFFFFFFFFFFFFFFFFFFF AND PUSH20 0xFFFFFFFFFFFFFFFFFFFFFFFFFFFFFFFFFFFFFFFF AND DUP2 MSTORE PUSH1 0x20 ADD SWAP1 DUP2 MSTORE PUSH1 0x20 ADD PUSH1 0x0 KECCAK256 PUSH1 0x0 DUP4 DUP2 MSTORE PUSH1 0x20 ADD SWAP1 DUP2 MSTORE PUSH1 0x20 ADD PUSH1 0x0 KECCAK256 SLOAD PUSH2 0x656 NUMBER PUSH1 0x5 SLOAD PUSH2 0x1210 JUMP JUMPDEST GT PUSH2 0x696 JUMPI PUSH1 0x40 MLOAD PUSH32 0x8C379A000000000000000000000000000000000000000000000000000000000 DUP2 MSTORE PUSH1 0x4 ADD PUSH2 0x68D SWAP1 PUSH2 0x1F3A JUMP JUMPDEST PUSH1 0x40 MLOAD DUP1 SWAP2 SUB SWAP1 REVERT JUMPDEST PUSH1 0x9 PUSH1 0x0 DUP5 PUSH20 0xFFFFFFFFFFFFFFFFFFFFFFFFFFFFFFFFFFFFFFFF AND PUSH20 0xFFFFFFFFFFFFFFFFFFFFFFFFFFFFFFFFFFFFFFFF AND DUP2 MSTORE PUSH1 0x20 ADD SWAP1 DUP2 MSTORE PUSH1 0x20 ADD PUSH1 0x0 KECCAK256 PUSH1 0x0 DUP4 DUP2 MSTORE PUSH1 0x20 ADD SWAP1 DUP2 MSTORE PUSH1 0x20 ADD PUSH1 0x0 KECCAK256 SLOAD PUSH2 0x6F3 NUMBER PUSH1 0x5 SLOAD PUSH2 0x1210 JUMP JUMPDEST PUSH2 0x6FD SWAP2 SWAP1 PUSH2 0x1E1F JUMP JUMPDEST PUSH2 0x74E DUP4 PUSH1 0x8 PUSH1 0x0 DUP8 PUSH20 0xFFFFFFFFFFFFFFFFFFFFFFFFFFFFFFFFFFFFFFFF AND PUSH20 0xFFFFFFFFFFFFFFFFFFFFFFFFFFFFFFFFFFFFFFFF AND DUP2 MSTORE PUSH1 0x20 ADD SWAP1 DUP2 MSTORE PUSH1 0x20 ADD PUSH1 0x0 KECCAK256 PUSH2 0x1229 SWAP1 SWAP2 SWAP1 PUSH4 0xFFFFFFFF AND JUMP JUMPDEST PUSH2 0x759 JUMPI PUSH1 0x0 PUSH2 0x75C JUMP JUMPDEST PUSH1 0x1 JUMPDEST PUSH1 0xFF AND PUSH1 0x6 SLOAD PUSH2 0x76C SWAP2 SWAP1 PUSH2 0x1E53 JUMP JUMPDEST PUSH2 0x776 SWAP2 SWAP1 PUSH2 0x1E53 JUMP JUMPDEST SWAP1 POP SWAP3 SWAP2 POP POP JUMP JUMPDEST PUSH1 0x4 PUSH1 0x0 SWAP1 SLOAD SWAP1 PUSH2 0x100 EXP SWAP1 DIV PUSH20 0xFFFFFFFFFFFFFFFFFFFFFFFFFFFFFFFFFFFFFFFF AND DUP2 JUMP JUMPDEST PUSH1 0x6 SLOAD DUP2 JUMP JUMPDEST PUSH2 0x7B2 PUSH2 0x1243 JUMP JUMPDEST DUP1 PUSH1 0x6 DUP2 SWAP1 SSTORE POP POP JUMP JUMPDEST PUSH2 0x7C4 PUSH2 0x1243 JUMP JUMPDEST PUSH2 0x7CC PUSH2 0x12C1 JUMP JUMPDEST JUMP JUMPDEST PUSH1 0x5 SLOAD DUP2 JUMP JUMPDEST PUSH2 0x7DC PUSH2 0x1243 JUMP JUMPDEST DUP1 NUMBER PUSH2 0x7E8 SWAP2 SWAP1 PUSH2 0x1F5A JUMP JUMPDEST PUSH1 0x5 DUP2 SWAP1 SSTORE POP POP JUMP JUMPDEST PUSH2 0x7F9 PUSH2 0x1324 JUMP JUMPDEST PUSH1 0x3 PUSH1 0x0 SWAP1 SLOAD SWAP1 PUSH2 0x100 EXP SWAP1 DIV PUSH20 0xFFFFFFFFFFFFFFFFFFFFFFFFFFFFFFFFFFFFFFFF AND PUSH20 0xFFFFFFFFFFFFFFFFFFFFFFFFFFFFFFFFFFFFFFFF AND CALLER PUSH20 0xFFFFFFFFFFFFFFFFFFFFFFFFFFFFFFFFFFFFFFFF AND SUB PUSH2 0x889 JUMPI PUSH1 0x40 MLOAD PUSH32 0x8C379A000000000000000000000000000000000000000000000000000000000 DUP2 MSTORE PUSH1 0x4 ADD PUSH2 0x880 SWAP1 PUSH2 0x1FDA JUMP JUMPDEST PUSH1 0x40 MLOAD DUP1 SWAP2 SUB SWAP1 REVERT JUMPDEST PUSH1 0x0 JUMPDEST DUP3 DUP3 SWAP1 POP DUP2 LT ISZERO PUSH2 0xA37 JUMPI PUSH2 0x8BA CALLER DUP5 DUP5 DUP5 DUP2 DUP2 LT PUSH2 0x8AE JUMPI PUSH2 0x8AD PUSH2 0x1DC1 JUMP JUMPDEST JUMPDEST SWAP1 POP PUSH1 0x20 MUL ADD CALLDATALOAD PUSH2 0x5F7 JUMP JUMPDEST PUSH1 0xA PUSH1 0x0 CALLER PUSH20 0xFFFFFFFFFFFFFFFFFFFFFFFFFFFFFFFFFFFFFFFF AND PUSH20 0xFFFFFFFFFFFFFFFFFFFFFFFFFFFFFFFFFFFFFFFF AND DUP2 MSTORE PUSH1 0x20 ADD SWAP1 DUP2 MSTORE PUSH1 0x20 ADD PUSH1 0x0 KECCAK256 PUSH1 0x0 DUP3 DUP3 SLOAD PUSH2 0x908 SWAP2 SWAP1 PUSH2 0x1F5A JUMP JUMPDEST SWAP3 POP POP DUP2 SWAP1 SSTORE POP PUSH1 0x3 PUSH1 0x0 SWAP1 SLOAD SWAP1 PUSH2 0x100 EXP SWAP1 DIV PUSH20 0xFFFFFFFFFFFFFFFFFFFFFFFFFFFFFFFFFFFFFFFF AND PUSH20 0xFFFFFFFFFFFFFFFFFFFFFFFFFFFFFFFFFFFFFFFF AND PUSH4 0xB88D4FDE CALLER ADDRESS DUP7 DUP7 DUP7 DUP2 DUP2 LT PUSH2 0x962 JUMPI PUSH2 0x961 PUSH2 0x1DC1 JUMP JUMPDEST JUMPDEST SWAP1 POP PUSH1 0x20 MUL ADD CALLDATALOAD PUSH1 0x40 MLOAD DUP5 PUSH4 0xFFFFFFFF AND PUSH1 0xE0 SHL DUP2 MSTORE PUSH1 0x4 ADD PUSH2 0x987 SWAP4 SWAP3 SWAP2 SWAP1 PUSH2 0x2031 JUMP JUMPDEST PUSH1 0x0 PUSH1 0x40 MLOAD DUP1 DUP4 SUB DUP2 PUSH1 0x0 DUP8 DUP1 EXTCODESIZE ISZERO DUP1 ISZERO PUSH2 0x9A1 JUMPI PUSH1 0x0 DUP1 REVERT JUMPDEST POP GAS CALL ISZERO DUP1 ISZERO PUSH2 0x9B5 JUMPI RETURNDATASIZE PUSH1 0x0 DUP1 RETURNDATACOPY RETURNDATASIZE PUSH1 0x0 REVERT JUMPDEST POP POP POP POP PUSH2 0xA23 DUP4 DUP4 DUP4 DUP2 DUP2 LT PUSH2 0x9CF JUMPI PUSH2 0x9CE PUSH2 0x1DC1 JUMP JUMPDEST JUMPDEST SWAP1 POP PUSH1 0x20 MUL ADD CALLDATALOAD PUSH1 0x8 PUSH1 0x0 CALLER PUSH20 0xFFFFFFFFFFFFFFFFFFFFFFFFFFFFFFFFFFFFFFFF AND PUSH20 0xFFFFFFFFFFFFFFFFFFFFFFFFFFFFFFFFFFFFFFFF AND DUP2 MSTORE PUSH1 0x20 ADD SWAP1 DUP2 MSTORE PUSH1 0x20 ADD PUSH1 0x0 KECCAK256 PUSH2 0x136E SWAP1 SWAP2 SWAP1 PUSH4 0xFFFFFFFF AND JUMP JUMPDEST POP DUP1 DUP1 PUSH2 0xA2F SWAP1 PUSH2 0x1E95 JUMP JUMPDEST SWAP2 POP POP PUSH2 0x88C JUMP JUMPDEST POP POP POP JUMP JUMPDEST PUSH1 0x0 PUSH1 0x2 PUSH1 0x0 SWAP1 SLOAD SWAP1 PUSH2 0x100 EXP SWAP1 DIV PUSH1 0xFF AND SWAP1 POP SWAP1 JUMP JUMPDEST PUSH2 0xA5B PUSH2 0x1324 JUMP JUMPDEST PUSH1 0x1 ISZERO ISZERO PUSH1 0x7 PUSH1 0x0 SWAP1 SLOAD SWAP1 PUSH2 0x100 EXP SWAP1 DIV PUSH1 0xFF AND ISZERO ISZERO EQ PUSH2 0xA7B JUMPI PUSH1 0x0 DUP1 REVERT JUMPDEST PUSH1 0x0 DUP1 PUSH2 0xA8A NUMBER PUSH1 0x5 SLOAD PUSH2 0x1210 JUMP JUMPDEST SWAP1 POP PUSH1 0x0 JUMPDEST DUP5 DUP5 SWAP1 POP DUP2 LT ISZERO PUSH2 0xB4B JUMPI PUSH2 0xABD CALLER DUP7 DUP7 DUP5 DUP2 DUP2 LT PUSH2 0xAB1 JUMPI PUSH2 0xAB0 PUSH2 0x1DC1 JUMP JUMPDEST JUMPDEST SWAP1 POP PUSH1 0x20 MUL ADD CALLDATALOAD PUSH2 0x5F7 JUMP JUMPDEST DUP4 PUSH2 0xAC8 SWAP2 SWAP1 PUSH2 0x1F5A JUMP JUMPDEST SWAP3 POP DUP2 PUSH1 0x9 PUSH1 0x0 CALLER PUSH20 0xFFFFFFFFFFFFFFFFFFFFFFFFFFFFFFFFFFFFFFFF AND PUSH20 0xFFFFFFFFFFFFFFFFFFFFFFFFFFFFFFFFFFFFFFFF AND DUP2 MSTORE PUSH1 0x20 ADD SWAP1 DUP2 MSTORE PUSH1 0x20 ADD PUSH1 0x0 KECCAK256 PUSH1 0x0 DUP8 DUP8 DUP6 DUP2 DUP2 LT PUSH2 0xB1F JUMPI PUSH2 0xB1E PUSH2 0x1DC1 JUMP JUMPDEST JUMPDEST SWAP1 POP PUSH1 0x20 MUL ADD CALLDATALOAD DUP2 MSTORE PUSH1 0x20 ADD SWAP1 DUP2 MSTORE PUSH1 0x20 ADD PUSH1 0x0 KECCAK256 DUP2 SWAP1 SSTORE POP DUP1 DUP1 PUSH2 0xB43 SWAP1 PUSH2 0x1E95 JUMP JUMPDEST SWAP2 POP POP PUSH2 0xA8F JUMP JUMPDEST POP PUSH1 0x0 DUP3 GT ISZERO PUSH2 0xBF7 JUMPI PUSH1 0x4 PUSH1 0x0 SWAP1 SLOAD SWAP1 PUSH2 0x100 EXP SWAP1 DIV PUSH20 0xFFFFFFFFFFFFFFFFFFFFFFFFFFFFFFFFFFFFFFFF AND PUSH20 0xFFFFFFFFFFFFFFFFFFFFFFFFFFFFFFFFFFFFFFFF AND PUSH4 0xA9059CBB CALLER DUP5 PUSH1 0x40 MLOAD DUP4 PUSH4 0xFFFFFFFF AND PUSH1 0xE0 SHL DUP2 MSTORE PUSH1 0x4 ADD PUSH2 0xBB2 SWAP3 SWAP2 SWAP1 PUSH2 0x207B JUMP JUMPDEST PUSH1 0x20 PUSH1 0x40 MLOAD DUP1 DUP4 SUB DUP2 PUSH1 0x0 DUP8 GAS CALL ISZERO DUP1 ISZERO PUSH2 0xBD1 JUMPI RETURNDATASIZE PUSH1 0x0 DUP1 RETURNDATACOPY RETURNDATASIZE PUSH1 0x0 REVERT JUMPDEST POP POP POP POP PUSH1 0x40 MLOAD RETURNDATASIZE PUSH1 0x1F NOT PUSH1 0x1F DUP3 ADD AND DUP3 ADD DUP1 PUSH1 0x40 MSTORE POP DUP2 ADD SWAP1 PUSH2 0xBF5 SWAP2 SWAP1 PUSH2 0x20D0 JUMP JUMPDEST POP JUMPDEST POP POP POP POP JUMP JUMPDEST PUSH2 0xC05 PUSH2 0x1243 JUMP JUMPDEST PUSH2 0xC0F PUSH1 0x0 PUSH2 0x1388 JUMP JUMPDEST JUMP JUMPDEST PUSH1 0x7 PUSH1 0x0 SWAP1 SLOAD SWAP1 PUSH2 0x100 EXP SWAP1 DIV PUSH1 0xFF AND DUP2 JUMP JUMPDEST PUSH2 0xC2C PUSH2 0x1243 JUMP JUMPDEST PUSH2 0xC34 PUSH2 0x144C JUMP JUMPDEST JUMP JUMPDEST PUSH2 0xC3E PUSH2 0x1243 JUMP JUMPDEST PUSH1 0x0 PUSH1 0x4 PUSH1 0x0 SWAP1 SLOAD SWAP1 PUSH2 0x100 EXP SWAP1 DIV PUSH20 0xFFFFFFFFFFFFFFFFFFFFFFFFFFFFFFFFFFFFFFFF AND PUSH20 0xFFFFFFFFFFFFFFFFFFFFFFFFFFFFFFFFFFFFFFFF AND PUSH4 0x70A08231 ADDRESS PUSH1 0x40 MLOAD DUP3 PUSH4 0xFFFFFFFF AND PUSH1 0xE0 SHL DUP2 MSTORE PUSH1 0x4 ADD PUSH2 0xC9B SWAP2 SWAP1 PUSH2 0x17C5 JUMP JUMPDEST PUSH1 0x20 PUSH1 0x40 MLOAD DUP1 DUP4 SUB DUP2 DUP7 GAS STATICCALL ISZERO DUP1 ISZERO PUSH2 0xCB8 JUMPI RETURNDATASIZE PUSH1 0x0 DUP1 RETURNDATACOPY RETURNDATASIZE PUSH1 0x0 REVERT JUMPDEST POP POP POP POP PUSH1 0x40 MLOAD RETURNDATASIZE PUSH1 0x1F NOT PUSH1 0x1F DUP3 ADD AND DUP3 ADD DUP1 PUSH1 0x40 MSTORE POP DUP2 ADD SWAP1 PUSH2 0xCDC SWAP2 SWAP1 PUSH2 0x2112 JUMP JUMPDEST SWAP1 POP PUSH1 0x4 PUSH1 0x0 SWAP1 SLOAD SWAP1 PUSH2 0x100 EXP SWAP1 DIV PUSH20 0xFFFFFFFFFFFFFFFFFFFFFFFFFFFFFFFFFFFFFFFF AND PUSH20 0xFFFFFFFFFFFFFFFFFFFFFFFFFFFFFFFFFFFFFFFF AND PUSH4 0xA9059CBB CALLER DUP4 PUSH1 0x40 MLOAD DUP4 PUSH4 0xFFFFFFFF AND PUSH1 0xE0 SHL DUP2 MSTORE PUSH1 0x4 ADD PUSH2 0xD3B SWAP3 SWAP2 SWAP1 PUSH2 0x207B JUMP JUMPDEST PUSH1 0x20 PUSH1 0x40 MLOAD DUP1 DUP4 SUB DUP2 PUSH1 0x0 DUP8 GAS CALL ISZERO DUP1 ISZERO PUSH2 0xD5A JUMPI RETURNDATASIZE PUSH1 0x0 DUP1 RETURNDATACOPY RETURNDATASIZE PUSH1 0x0 REVERT JUMPDEST POP POP POP POP PUSH1 0x40 MLOAD RETURNDATASIZE PUSH1 0x1F NOT PUSH1 0x1F DUP3 ADD AND DUP3 ADD DUP1 PUSH1 0x40 MSTORE POP DUP2 ADD SWAP1 PUSH2 0xD7E SWAP2 SWAP1 PUSH2 0x20D0 JUMP JUMPDEST POP POP JUMP JUMPDEST PUSH1 0x0 DUP1 PUSH1 0x0 SWAP1 SLOAD SWAP1 PUSH2 0x100 EXP SWAP1 DIV PUSH20 0xFFFFFFFFFFFFFFFFFFFFFFFFFFFFFFFFFFFFFFFF AND SWAP1 POP SWAP1 JUMP JUMPDEST PUSH2 0xDB3 PUSH2 0x1324 JUMP JUMPDEST PUSH2 0xDBB PUSH2 0x14AF JUMP JUMPDEST PUSH1 0x0 JUMPDEST DUP3 DUP3 SWAP1 POP DUP2 LT ISZERO PUSH2 0x1012 JUMPI PUSH2 0xE33 DUP4 DUP4 DUP4 DUP2 DUP2 LT PUSH2 0xDDF JUMPI PUSH2 0xDDE PUSH2 0x1DC1 JUMP JUMPDEST JUMPDEST SWAP1 POP PUSH1 0x20 MUL ADD CALLDATALOAD PUSH1 0x8 PUSH1 0x0 CALLER PUSH20 0xFFFFFFFFFFFFFFFFFFFFFFFFFFFFFFFFFFFFFFFF AND PUSH20 0xFFFFFFFFFFFFFFFFFFFFFFFFFFFFFFFFFFFFFFFF AND DUP2 MSTORE PUSH1 0x20 ADD SWAP1 DUP2 MSTORE PUSH1 0x20 ADD PUSH1 0x0 KECCAK256 PUSH2 0x1229 SWAP1 SWAP2 SWAP1 PUSH4 0xFFFFFFFF AND JUMP JUMPDEST PUSH2 0xE72 JUMPI PUSH1 0x40 MLOAD PUSH32 0x8C379A000000000000000000000000000000000000000000000000000000000 DUP2 MSTORE PUSH1 0x4 ADD PUSH2 0xE69 SWAP1 PUSH2 0x218B JUMP JUMPDEST PUSH1 0x40 MLOAD DUP1 SWAP2 SUB SWAP1 REVERT JUMPDEST PUSH2 0xE95 CALLER DUP5 DUP5 DUP5 DUP2 DUP2 LT PUSH2 0xE89 JUMPI PUSH2 0xE88 PUSH2 0x1DC1 JUMP JUMPDEST JUMPDEST SWAP1 POP PUSH1 0x20 MUL ADD CALLDATALOAD PUSH2 0x5F7 JUMP JUMPDEST PUSH1 0xA PUSH1 0x0 CALLER PUSH20 0xFFFFFFFFFFFFFFFFFFFFFFFFFFFFFFFFFFFFFFFF AND PUSH20 0xFFFFFFFFFFFFFFFFFFFFFFFFFFFFFFFFFFFFFFFF AND DUP2 MSTORE PUSH1 0x20 ADD SWAP1 DUP2 MSTORE PUSH1 0x20 ADD PUSH1 0x0 KECCAK256 PUSH1 0x0 DUP3 DUP3 SLOAD PUSH2 0xEE3 SWAP2 SWAP1 PUSH2 0x1F5A JUMP JUMPDEST SWAP3 POP POP DUP2 SWAP1 SSTORE POP PUSH2 0xF54 DUP4 DUP4 DUP4 DUP2 DUP2 LT PUSH2 0xF00 JUMPI PUSH2 0xEFF PUSH2 0x1DC1 JUMP JUMPDEST JUMPDEST SWAP1 POP PUSH1 0x20 MUL ADD CALLDATALOAD PUSH1 0x8 PUSH1 0x0 CALLER PUSH20 0xFFFFFFFFFFFFFFFFFFFFFFFFFFFFFFFFFFFFFFFF AND PUSH20 0xFFFFFFFFFFFFFFFFFFFFFFFFFFFFFFFFFFFFFFFF AND DUP2 MSTORE PUSH1 0x20 ADD SWAP1 DUP2 MSTORE PUSH1 0x20 ADD PUSH1 0x0 KECCAK256 PUSH2 0x14FE SWAP1 SWAP2 SWAP1 PUSH4 0xFFFFFFFF AND JUMP JUMPDEST POP PUSH1 0x3 PUSH1 0x0 SWAP1 SLOAD SWAP1 PUSH2 0x100 EXP SWAP1 DIV PUSH20 0xFFFFFFFFFFFFFFFFFFFFFFFFFFFFFFFFFFFFFFFF AND PUSH20 0xFFFFFFFFFFFFFFFFFFFFFFFFFFFFFFFFFFFFFFFF AND PUSH4 0xB88D4FDE ADDRESS CALLER DUP7 DUP7 DUP7 DUP2 DUP2 LT PUSH2 0xFA8 JUMPI PUSH2 0xFA7 PUSH2 0x1DC1 JUMP JUMPDEST JUMPDEST SWAP1 POP PUSH1 0x20 MUL ADD CALLDATALOAD PUSH1 0x40 MLOAD DUP5 PUSH4 0xFFFFFFFF AND PUSH1 0xE0 SHL DUP2 MSTORE PUSH1 0x4 ADD PUSH2 0xFCD SWAP4 SWAP3 SWAP2 SWAP1 PUSH2 0x2031 JUMP JUMPDEST PUSH1 0x0 PUSH1 0x40 MLOAD DUP1 DUP4 SUB DUP2 PUSH1 0x0 DUP8 DUP1 EXTCODESIZE ISZERO DUP1 ISZERO PUSH2 0xFE7 JUMPI PUSH1 0x0 DUP1 REVERT JUMPDEST POP GAS CALL ISZERO DUP1 ISZERO PUSH2 0xFFB JUMPI RETURNDATASIZE PUSH1 0x0 DUP1 RETURNDATACOPY RETURNDATASIZE PUSH1 0x0 REVERT JUMPDEST POP POP POP POP DUP1 DUP1 PUSH2 0x100A SWAP1 PUSH2 0x1E95 JUMP JUMPDEST SWAP2 POP POP PUSH2 0xDBE JUMP JUMPDEST POP PUSH2 0x101B PUSH2 0x1518 JUMP JUMPDEST POP POP JUMP JUMPDEST PUSH1 0x9 PUSH1 0x20 MSTORE DUP2 PUSH1 0x0 MSTORE PUSH1 0x40 PUSH1 0x0 KECCAK256 PUSH1 0x20 MSTORE DUP1 PUSH1 0x0 MSTORE PUSH1 0x40 PUSH1 0x0 KECCAK256 PUSH1 0x0 SWAP2 POP SWAP2 POP POP SLOAD DUP2 JUMP JUMPDEST PUSH2 0x104C PUSH2 0x1243 JUMP JUMPDEST PUSH1 0x7 PUSH1 0x0 SWAP1 SLOAD SWAP1 PUSH2 0x100 EXP SWAP1 DIV PUSH1 0xFF AND ISZERO PUSH1 0x7 PUSH1 0x0 PUSH2 0x100 EXP DUP2 SLOAD DUP2 PUSH1 0xFF MUL NOT AND SWAP1 DUP4 ISZERO ISZERO MUL OR SWAP1 SSTORE POP JUMP JUMPDEST PUSH1 0xA PUSH1 0x20 MSTORE DUP1 PUSH1 0x0 MSTORE PUSH1 0x40 PUSH1 0x0 KECCAK256 PUSH1 0x0 SWAP2 POP SWAP1 POP SLOAD DUP2 JUMP JUMPDEST PUSH1 0x60 PUSH1 0x0 PUSH1 0x8 PUSH1 0x0 DUP5 PUSH20 0xFFFFFFFFFFFFFFFFFFFFFFFFFFFFFFFFFFFFFFFF AND PUSH20 0xFFFFFFFFFFFFFFFFFFFFFFFFFFFFFFFFFFFFFFFF AND DUP2 MSTORE PUSH1 0x20 ADD SWAP1 DUP2 MSTORE PUSH1 0x20 ADD PUSH1 0x0 KECCAK256 SWAP1 POP PUSH1 0x0 PUSH2 0x10E0 DUP3 PUSH2 0x1521 JUMP JUMPDEST PUSH8 0xFFFFFFFFFFFFFFFF DUP2 GT ISZERO PUSH2 0x10F9 JUMPI PUSH2 0x10F8 PUSH2 0x1836 JUMP JUMPDEST JUMPDEST PUSH1 0x40 MLOAD SWAP1 DUP1 DUP3 MSTORE DUP1 PUSH1 0x20 MUL PUSH1 0x20 ADD DUP3 ADD PUSH1 0x40 MSTORE DUP1 ISZERO PUSH2 0x1127 JUMPI DUP2 PUSH1 0x20 ADD PUSH1 0x20 DUP3 MUL DUP1 CALLDATASIZE DUP4 CALLDATACOPY DUP1 DUP3 ADD SWAP2 POP POP SWAP1 POP JUMPDEST POP SWAP1 POP PUSH1 0x0 JUMPDEST PUSH2 0x1136 DUP4 PUSH2 0x1521 JUMP JUMPDEST DUP2 LT ISZERO PUSH2 0x1182 JUMPI PUSH2 0x1150 DUP2 DUP5 PUSH2 0x1536 SWAP1 SWAP2 SWAP1 PUSH4 0xFFFFFFFF AND JUMP JUMPDEST DUP3 DUP3 DUP2 MLOAD DUP2 LT PUSH2 0x1163 JUMPI PUSH2 0x1162 PUSH2 0x1DC1 JUMP JUMPDEST JUMPDEST PUSH1 0x20 MUL PUSH1 0x20 ADD ADD DUP2 DUP2 MSTORE POP POP DUP1 DUP1 PUSH2 0x117A SWAP1 PUSH2 0x1E95 JUMP JUMPDEST SWAP2 POP POP PUSH2 0x112D JUMP JUMPDEST POP DUP1 SWAP3 POP POP POP SWAP2 SWAP1 POP JUMP JUMPDEST PUSH2 0x1195 PUSH2 0x1243 JUMP JUMPDEST PUSH1 0x0 PUSH20 0xFFFFFFFFFFFFFFFFFFFFFFFFFFFFFFFFFFFFFFFF AND DUP2 PUSH20 0xFFFFFFFFFFFFFFFFFFFFFFFFFFFFFFFFFFFFFFFF AND SUB PUSH2 0x1204 JUMPI PUSH1 0x40 MLOAD PUSH32 0x8C379A000000000000000000000000000000000000000000000000000000000 DUP2 MSTORE PUSH1 0x4 ADD PUSH2 0x11FB SWAP1 PUSH2 0x221D JUMP JUMPDEST PUSH1 0x40 MLOAD DUP1 SWAP2 SUB SWAP1 REVERT JUMPDEST PUSH2 0x120D DUP2 PUSH2 0x1388 JUMP JUMPDEST POP JUMP JUMPDEST PUSH1 0x0 DUP2 DUP4 LT PUSH2 0x121F JUMPI DUP2 PUSH2 0x1221 JUMP JUMPDEST DUP3 JUMPDEST SWAP1 POP SWAP3 SWAP2 POP POP JUMP JUMPDEST PUSH1 0x0 PUSH2 0x123B DUP4 PUSH1 0x0 ADD DUP4 PUSH1 0x0 SHL PUSH2 0x1550 JUMP JUMPDEST SWAP1 POP SWAP3 SWAP2 POP POP JUMP JUMPDEST PUSH2 0x124B PUSH2 0x1573 JUMP JUMPDEST PUSH20 0xFFFFFFFFFFFFFFFFFFFFFFFFFFFFFFFFFFFFFFFF AND PUSH2 0x1269 PUSH2 0xD82 JUMP JUMPDEST PUSH20 0xFFFFFFFFFFFFFFFFFFFFFFFFFFFFFFFFFFFFFFFF AND EQ PUSH2 0x12BF JUMPI PUSH1 0x40 MLOAD PUSH32 0x8C379A000000000000000000000000000000000000000000000000000000000 DUP2 MSTORE PUSH1 0x4 ADD PUSH2 0x12B6 SWAP1 PUSH2 0x2289 JUMP JUMPDEST PUSH1 0x40 MLOAD DUP1 SWAP2 SUB SWAP1 REVERT JUMPDEST JUMP JUMPDEST PUSH2 0x12C9 PUSH2 0x157B JUMP JUMPDEST PUSH1 0x0 PUSH1 0x2 PUSH1 0x0 PUSH2 0x100 EXP DUP2 SLOAD DUP2 PUSH1 0xFF MUL NOT AND SWAP1 DUP4 ISZERO ISZERO MUL OR SWAP1 SSTORE POP PUSH32 0x5DB9EE0A495BF2E6FF9C91A7834C1BA4FDD244A5E8AA4E537BD38AEAE4B073AA PUSH2 0x130D PUSH2 0x1573 JUMP JUMPDEST PUSH1 0x40 MLOAD PUSH2 0x131A SWAP2 SWAP1 PUSH2 0x17C5 JUMP JUMPDEST PUSH1 0x40 MLOAD DUP1 SWAP2 SUB SWAP1 LOG1 JUMP JUMPDEST PUSH2 0x132C PUSH2 0xA3C JUMP JUMPDEST ISZERO PUSH2 0x136C JUMPI PUSH1 0x40 MLOAD PUSH32 0x8C379A000000000000000000000000000000000000000000000000000000000 DUP2 MSTORE PUSH1 0x4 ADD PUSH2 0x1363 SWAP1 PUSH2 0x22F5 JUMP JUMPDEST PUSH1 0x40 MLOAD DUP1 SWAP2 SUB SWAP1 REVERT JUMPDEST JUMP JUMPDEST PUSH1 0x0 PUSH2 0x1380 DUP4 PUSH1 0x0 ADD DUP4 PUSH1 0x0 SHL PUSH2 0x15C4 JUMP JUMPDEST SWAP1 POP SWAP3 SWAP2 POP POP JUMP JUMPDEST PUSH1 0x0 DUP1 PUSH1 0x0 SWAP1 SLOAD SWAP1 PUSH2 0x100 EXP SWAP1 DIV PUSH20 0xFFFFFFFFFFFFFFFFFFFFFFFFFFFFFFFFFFFFFFFF AND SWAP1 POP DUP2 PUSH1 0x0 DUP1 PUSH2 0x100 EXP DUP2 SLOAD DUP2 PUSH20 0xFFFFFFFFFFFFFFFFFFFFFFFFFFFFFFFFFFFFFFFF MUL NOT AND SWAP1 DUP4 PUSH20 0xFFFFFFFFFFFFFFFFFFFFFFFFFFFFFFFFFFFFFFFF AND MUL OR SWAP1 SSTORE POP DUP2 PUSH20 0xFFFFFFFFFFFFFFFFFFFFFFFFFFFFFFFFFFFFFFFF AND DUP2 PUSH20 0xFFFFFFFFFFFFFFFFFFFFFFFFFFFFFFFFFFFFFFFF AND PUSH32 0x8BE0079C531659141344CD1FD0A4F28419497F9722A3DAAFE3B4186F6B6457E0 PUSH1 0x40 MLOAD PUSH1 0x40 MLOAD DUP1 SWAP2 SUB SWAP1 LOG3 POP POP JUMP JUMPDEST PUSH2 0x1454 PUSH2 0x1324 JUMP JUMPDEST PUSH1 0x1 PUSH1 0x2 PUSH1 0x0 PUSH2 0x100 EXP DUP2 SLOAD DUP2 PUSH1 0xFF MUL NOT AND SWAP1 DUP4 ISZERO ISZERO MUL OR SWAP1 SSTORE POP PUSH32 0x62E78CEA01BEE320CD4E420270B5EA74000D11B0C9F74754EBDBFC544B05A258 PUSH2 0x1498 PUSH2 0x1573 JUMP JUMPDEST PUSH1 0x40 MLOAD PUSH2 0x14A5 SWAP2 SWAP1 PUSH2 0x17C5 JUMP JUMPDEST PUSH1 0x40 MLOAD DUP1 SWAP2 SUB SWAP1 LOG1 JUMP JUMPDEST PUSH1 0x2 PUSH1 0x1 SLOAD SUB PUSH2 0x14F4 JUMPI PUSH1 0x40 MLOAD PUSH32 0x8C379A000000000000000000000000000000000000000000000000000000000 DUP2 MSTORE PUSH1 0x4 ADD PUSH2 0x14EB SWAP1 PUSH2 0x2361 JUMP JUMPDEST PUSH1 0x40 MLOAD DUP1 SWAP2 SUB SWAP1 REVERT JUMPDEST PUSH1 0x2 PUSH1 0x1 DUP2 SWAP1 SSTORE POP JUMP JUMPDEST PUSH1 0x0 PUSH2 0x1510 DUP4 PUSH1 0x0 ADD DUP4 PUSH1 0x0 SHL PUSH2 0x1634 JUMP JUMPDEST SWAP1 POP SWAP3 SWAP2 POP POP JUMP JUMPDEST PUSH1 0x1 DUP1 DUP2 SWAP1 SSTORE POP JUMP JUMPDEST PUSH1 0x0 PUSH2 0x152F DUP3 PUSH1 0x0 ADD PUSH2 0x1748 JUMP JUMPDEST SWAP1 POP SWAP2 SWAP1 POP JUMP JUMPDEST PUSH1 0x0 PUSH2 0x1545 DUP4 PUSH1 0x0 ADD DUP4 PUSH2 0x1759 JUMP JUMPDEST PUSH1 0x0 SHR SWAP1 POP SWAP3 SWAP2 POP POP JUMP JUMPDEST PUSH1 0x0 DUP1 DUP4 PUSH1 0x1 ADD PUSH1 0x0 DUP5 DUP2 MSTORE PUSH1 0x20 ADD SWAP1 DUP2 MSTORE PUSH1 0x20 ADD PUSH1 0x0 KECCAK256 SLOAD EQ ISZERO SWAP1 POP SWAP3 SWAP2 POP POP JUMP JUMPDEST PUSH1 0x0 CALLER SWAP1 POP SWAP1 JUMP JUMPDEST PUSH2 0x1583 PUSH2 0xA3C JUMP JUMPDEST PUSH2 0x15C2 JUMPI PUSH1 0x40 MLOAD PUSH32 0x8C379A000000000000000000000000000000000000000000000000000000000 DUP2 MSTORE PUSH1 0x4 ADD PUSH2 0x15B9 SWAP1 PUSH2 0x23CD JUMP JUMPDEST PUSH1 0x40 MLOAD DUP1 SWAP2 SUB SWAP1 REVERT JUMPDEST JUMP JUMPDEST PUSH1 0x0 PUSH2 0x15D0 DUP4 DUP4 PUSH2 0x1550 JUMP JUMPDEST PUSH2 0x1629 JUMPI DUP3 PUSH1 0x0 ADD DUP3 SWAP1 DUP1 PUSH1 0x1 DUP2 SLOAD ADD DUP1 DUP3 SSTORE DUP1 SWAP2 POP POP PUSH1 0x1 SWAP1 SUB SWAP1 PUSH1 0x0 MSTORE PUSH1 0x20 PUSH1 0x0 KECCAK256 ADD PUSH1 0x0 SWAP1 SWAP2 SWAP1 SWAP2 SWAP1 SWAP2 POP SSTORE DUP3 PUSH1 0x0 ADD DUP1 SLOAD SWAP1 POP DUP4 PUSH1 0x1 ADD PUSH1 0x0 DUP5 DUP2 MSTORE PUSH1 0x20 ADD SWAP1 DUP2 MSTORE PUSH1 0x20 ADD PUSH1 0x0 KECCAK256 DUP2 SWAP1 SSTORE POP PUSH1 0x1 SWAP1 POP PUSH2 0x162E JUMP JUMPDEST PUSH1 0x0 SWAP1 POP JUMPDEST SWAP3 SWAP2 POP POP JUMP JUMPDEST PUSH1 0x0 DUP1 DUP4 PUSH1 0x1 ADD PUSH1 0x0 DUP5 DUP2 MSTORE PUSH1 0x20 ADD SWAP1 DUP2 MSTORE PUSH1 0x20 ADD PUSH1 0x0 KECCAK256 SLOAD SWAP1 POP PUSH1 0x0 DUP2 EQ PUSH2 0x173C JUMPI PUSH1 0x0 PUSH1 0x1 DUP3 PUSH2 0x1666 SWAP2 SWAP1 PUSH2 0x1E1F JUMP JUMPDEST SWAP1 POP PUSH1 0x0 PUSH1 0x1 DUP7 PUSH1 0x0 ADD DUP1 SLOAD SWAP1 POP PUSH2 0x167E SWAP2 SWAP1 PUSH2 0x1E1F JUMP JUMPDEST SWAP1 POP DUP2 DUP2 EQ PUSH2 0x16ED JUMPI PUSH1 0x0 DUP7 PUSH1 0x0 ADD DUP3 DUP2 SLOAD DUP2 LT PUSH2 0x169F JUMPI PUSH2 0x169E PUSH2 0x1DC1 JUMP JUMPDEST JUMPDEST SWAP1 PUSH1 0x0 MSTORE PUSH1 0x20 PUSH1 0x0 KECCAK256 ADD SLOAD SWAP1 POP DUP1 DUP8 PUSH1 0x0 ADD DUP5 DUP2 SLOAD DUP2 LT PUSH2 0x16C3 JUMPI PUSH2 0x16C2 PUSH2 0x1DC1 JUMP JUMPDEST JUMPDEST SWAP1 PUSH1 0x0 MSTORE PUSH1 0x20 PUSH1 0x0 KECCAK256 ADD DUP2 SWAP1 SSTORE POP DUP4 DUP8 PUSH1 0x1 ADD PUSH1 0x0 DUP4 DUP2 MSTORE PUSH1 0x20 ADD SWAP1 DUP2 MSTORE PUSH1 0x20 ADD PUSH1 0x0 KECCAK256 DUP2 SWAP1 SSTORE POP POP JUMPDEST DUP6 PUSH1 0x0 ADD DUP1 SLOAD DUP1 PUSH2 0x1701 JUMPI PUSH2 0x1700 PUSH2 0x23ED JUMP JUMPDEST JUMPDEST PUSH1 0x1 SWAP1 SUB DUP2 DUP2 SWAP1 PUSH1 0x0 MSTORE PUSH1 0x20 PUSH1 0x0 KECCAK256 ADD PUSH1 0x0 SWAP1 SSTORE SWAP1 SSTORE DUP6 PUSH1 0x1 ADD PUSH1 0x0 DUP7 DUP2 MSTORE PUSH1 0x20 ADD SWAP1 DUP2 MSTORE PUSH1 0x20 ADD PUSH1 0x0 KECCAK256 PUSH1 0x0 SWAP1 SSTORE PUSH1 0x1 SWAP4 POP POP POP POP PUSH2 0x1742 JUMP JUMPDEST PUSH1 0x0 SWAP2 POP POP JUMPDEST SWAP3 SWAP2 POP POP JUMP JUMPDEST PUSH1 0x0 DUP2 PUSH1 0x0 ADD DUP1 SLOAD SWAP1 POP SWAP1 POP SWAP2 SWAP1 POP JUMP JUMPDEST PUSH1 0x0 DUP3 PUSH1 0x0 ADD DUP3 DUP2 SLOAD DUP2 LT PUSH2 0x1771 JUMPI PUSH2 0x1770 PUSH2 0x1DC1 JUMP JUMPDEST JUMPDEST SWAP1 PUSH1 0x0 MSTORE PUSH1 0x20 PUSH1 0x0 KECCAK256 ADD SLOAD SWAP1 POP SWAP3 SWAP2 POP POP JUMP JUMPDEST PUSH1 0x0 PUSH20 0xFFFFFFFFFFFFFFFFFFFFFFFFFFFFFFFFFFFFFFFF DUP3 AND SWAP1 POP SWAP2 SWAP1 POP JUMP JUMPDEST PUSH1 0x0 PUSH2 0x17AF DUP3 PUSH2 0x1784 JUMP JUMPDEST SWAP1 POP SWAP2 SWAP1 POP JUMP JUMPDEST PUSH2 0x17BF DUP2 PUSH2 0x17A4 JUMP JUMPDEST DUP3 MSTORE POP POP JUMP JUMPDEST PUSH1 0x0 PUSH1 0x20 DUP3 ADD SWAP1 POP PUSH2 0x17DA PUSH1 0x0 DUP4 ADD DUP5 PUSH2 0x17B6 JUMP JUMPDEST SWAP3 SWAP2 POP POP JUMP JUMPDEST PUSH1 0x0 PUSH1 0x40 MLOAD SWAP1 POP SWAP1 JUMP JUMPDEST PUSH1 0x0 DUP1 REVERT JUMPDEST PUSH1 0x0 DUP1 REVERT JUMPDEST PUSH2 0x17FD DUP2 PUSH2 0x17A4 JUMP JUMPDEST DUP2 EQ PUSH2 0x1808 JUMPI PUSH1 0x0 DUP1 REVERT JUMPDEST POP JUMP JUMPDEST PUSH1 0x0 DUP2 CALLDATALOAD SWAP1 POP PUSH2 0x181A DUP2 PUSH2 0x17F4 JUMP JUMPDEST SWAP3 SWAP2 POP POP JUMP JUMPDEST PUSH1 0x0 DUP1 REVERT JUMPDEST PUSH1 0x0 PUSH1 0x1F NOT PUSH1 0x1F DUP4 ADD AND SWAP1 POP SWAP2 SWAP1 POP JUMP JUMPDEST PUSH32 0x4E487B7100000000000000000000000000000000000000000000000000000000 PUSH1 0x0 MSTORE PUSH1 0x41 PUSH1 0x4 MSTORE PUSH1 0x24 PUSH1 0x0 REVERT JUMPDEST PUSH2 0x186E DUP3 PUSH2 0x1825 JUMP JUMPDEST DUP2 ADD DUP2 DUP2 LT PUSH8 0xFFFFFFFFFFFFFFFF DUP3 GT OR ISZERO PUSH2 0x188D JUMPI PUSH2 0x188C PUSH2 0x1836 JUMP JUMPDEST JUMPDEST DUP1 PUSH1 0x40 MSTORE POP POP POP JUMP JUMPDEST PUSH1 0x0 PUSH2 0x18A0 PUSH2 0x17E0 JUMP JUMPDEST SWAP1 POP PUSH2 0x18AC DUP3 DUP3 PUSH2 0x1865 JUMP JUMPDEST SWAP2 SWAP1 POP JUMP JUMPDEST PUSH1 0x0 PUSH8 0xFFFFFFFFFFFFFFFF DUP3 GT ISZERO PUSH2 0x18CC JUMPI PUSH2 0x18CB PUSH2 0x1836 JUMP JUMPDEST JUMPDEST PUSH1 0x20 DUP3 MUL SWAP1 POP PUSH1 0x20 DUP2 ADD SWAP1 POP SWAP2 SWAP1 POP JUMP JUMPDEST PUSH1 0x0 DUP1 REVERT JUMPDEST PUSH1 0x0 DUP2 SWAP1 POP SWAP2 SWAP1 POP JUMP JUMPDEST PUSH2 0x18F5 DUP2 PUSH2 0x18E2 JUMP JUMPDEST DUP2 EQ PUSH2 0x1900 JUMPI PUSH1 0x0 DUP1 REVERT JUMPDEST POP JUMP JUMPDEST PUSH1 0x0 DUP2 CALLDATALOAD SWAP1 POP PUSH2 0x1912 DUP2 PUSH2 0x18EC JUMP JUMPDEST SWAP3 SWAP2 POP POP JUMP JUMPDEST PUSH1 0x0 PUSH2 0x192B PUSH2 0x1926 DUP5 PUSH2 0x18B1 JUMP JUMPDEST PUSH2 0x1896 JUMP JUMPDEST SWAP1 POP DUP1 DUP4 DUP3 MSTORE PUSH1 0x20 DUP3 ADD SWAP1 POP PUSH1 0x20 DUP5 MUL DUP4 ADD DUP6 DUP2 GT ISZERO PUSH2 0x194E JUMPI PUSH2 0x194D PUSH2 0x18DD JUMP JUMPDEST JUMPDEST DUP4 JUMPDEST DUP2 DUP2 LT ISZERO PUSH2 0x1977 JUMPI DUP1 PUSH2 0x1963 DUP9 DUP3 PUSH2 0x1903 JUMP JUMPDEST DUP5 MSTORE PUSH1 0x20 DUP5 ADD SWAP4 POP POP PUSH1 0x20 DUP2 ADD SWAP1 POP PUSH2 0x1950 JUMP JUMPDEST POP POP POP SWAP4 SWAP3 POP POP POP JUMP JUMPDEST PUSH1 0x0 DUP3 PUSH1 0x1F DUP4 ADD SLT PUSH2 0x1996 JUMPI PUSH2 0x1995 PUSH2 0x1820 JUMP JUMPDEST JUMPDEST DUP2 CALLDATALOAD PUSH2 0x19A6 DUP5 DUP3 PUSH1 0x20 DUP7 ADD PUSH2 0x1918 JUMP JUMPDEST SWAP2 POP POP SWAP3 SWAP2 POP POP JUMP JUMPDEST PUSH1 0x0 DUP1 PUSH1 0x40 DUP4 DUP6 SUB SLT ISZERO PUSH2 0x19C6 JUMPI PUSH2 0x19C5 PUSH2 0x17EA JUMP JUMPDEST JUMPDEST PUSH1 0x0 PUSH2 0x19D4 DUP6 DUP3 DUP7 ADD PUSH2 0x180B JUMP JUMPDEST SWAP3 POP POP PUSH1 0x20 DUP4 ADD CALLDATALOAD PUSH8 0xFFFFFFFFFFFFFFFF DUP2 GT ISZERO PUSH2 0x19F5 JUMPI PUSH2 0x19F4 PUSH2 0x17EF JUMP JUMPDEST JUMPDEST PUSH2 0x1A01 DUP6 DUP3 DUP7 ADD PUSH2 0x1981 JUMP JUMPDEST SWAP2 POP POP SWAP3 POP SWAP3 SWAP1 POP JUMP JUMPDEST PUSH1 0x0 DUP2 MLOAD SWAP1 POP SWAP2 SWAP1 POP JUMP JUMPDEST PUSH1 0x0 DUP3 DUP3 MSTORE PUSH1 0x20 DUP3 ADD SWAP1 POP SWAP3 SWAP2 POP POP JUMP JUMPDEST PUSH1 0x0 DUP2 SWAP1 POP PUSH1 0x20 DUP3 ADD SWAP1 POP SWAP2 SWAP1 POP JUMP JUMPDEST PUSH2 0x1A40 DUP2 PUSH2 0x18E2 JUMP JUMPDEST DUP3 MSTORE POP POP JUMP JUMPDEST PUSH1 0x0 PUSH2 0x1A52 DUP4 DUP4 PUSH2 0x1A37 JUMP JUMPDEST PUSH1 0x20 DUP4 ADD SWAP1 POP SWAP3 SWAP2 POP POP JUMP JUMPDEST PUSH1 0x0 PUSH1 0x20 DUP3 ADD SWAP1 POP SWAP2 SWAP1 POP JUMP JUMPDEST PUSH1 0x0 PUSH2 0x1A76 DUP3 PUSH2 0x1A0B JUMP JUMPDEST PUSH2 0x1A80 DUP2 DUP6 PUSH2 0x1A16 JUMP JUMPDEST SWAP4 POP PUSH2 0x1A8B DUP4 PUSH2 0x1A27 JUMP JUMPDEST DUP1 PUSH1 0x0 JUMPDEST DUP4 DUP2 LT ISZERO PUSH2 0x1ABC JUMPI DUP2 MLOAD PUSH2 0x1AA3 DUP9 DUP3 PUSH2 0x1A46 JUMP JUMPDEST SWAP8 POP PUSH2 0x1AAE DUP4 PUSH2 0x1A5E JUMP JUMPDEST SWAP3 POP POP PUSH1 0x1 DUP2 ADD SWAP1 POP PUSH2 0x1A8F JUMP JUMPDEST POP DUP6 SWAP4 POP POP POP POP SWAP3 SWAP2 POP POP JUMP JUMPDEST PUSH1 0x0 PUSH1 0x20 DUP3 ADD SWAP1 POP DUP2 DUP2 SUB PUSH1 0x0 DUP4 ADD MSTORE PUSH2 0x1AE3 DUP2 DUP5 PUSH2 0x1A6B JUMP JUMPDEST SWAP1 POP SWAP3 SWAP2 POP POP JUMP JUMPDEST PUSH1 0x0 DUP1 REVERT JUMPDEST PUSH1 0x0 DUP1 DUP4 PUSH1 0x1F DUP5 ADD SLT PUSH2 0x1B06 JUMPI PUSH2 0x1B05 PUSH2 0x1820 JUMP JUMPDEST JUMPDEST DUP3 CALLDATALOAD SWAP1 POP PUSH8 0xFFFFFFFFFFFFFFFF DUP2 GT ISZERO PUSH2 0x1B23 JUMPI PUSH2 0x1B22 PUSH2 0x1AEB JUMP JUMPDEST JUMPDEST PUSH1 0x20 DUP4 ADD SWAP2 POP DUP4 PUSH1 0x1 DUP3 MUL DUP4 ADD GT ISZERO PUSH2 0x1B3F JUMPI PUSH2 0x1B3E PUSH2 0x18DD JUMP JUMPDEST JUMPDEST SWAP3 POP SWAP3 SWAP1 POP JUMP JUMPDEST PUSH1 0x0 DUP1 PUSH1 0x0 DUP1 PUSH1 0x0 PUSH1 0x80 DUP7 DUP9 SUB SLT ISZERO PUSH2 0x1B62 JUMPI PUSH2 0x1B61 PUSH2 0x17EA JUMP JUMPDEST JUMPDEST PUSH1 0x0 PUSH2 0x1B70 DUP9 DUP3 DUP10 ADD PUSH2 0x180B JUMP JUMPDEST SWAP6 POP POP PUSH1 0x20 PUSH2 0x1B81 DUP9 DUP3 DUP10 ADD PUSH2 0x180B JUMP JUMPDEST SWAP5 POP POP PUSH1 0x40 PUSH2 0x1B92 DUP9 DUP3 DUP10 ADD PUSH2 0x1903 JUMP JUMPDEST SWAP4 POP POP PUSH1 0x60 DUP7 ADD CALLDATALOAD PUSH8 0xFFFFFFFFFFFFFFFF DUP2 GT ISZERO PUSH2 0x1BB3 JUMPI PUSH2 0x1BB2 PUSH2 0x17EF JUMP JUMPDEST JUMPDEST PUSH2 0x1BBF DUP9 DUP3 DUP10 ADD PUSH2 0x1AF0 JUMP JUMPDEST SWAP3 POP SWAP3 POP POP SWAP3 SWAP6 POP SWAP3 SWAP6 SWAP1 SWAP4 POP JUMP JUMPDEST PUSH1 0x0 PUSH32 0xFFFFFFFF00000000000000000000000000000000000000000000000000000000 DUP3 AND SWAP1 POP SWAP2 SWAP1 POP JUMP JUMPDEST PUSH2 0x1C03 DUP2 PUSH2 0x1BCE JUMP JUMPDEST DUP3 MSTORE POP POP JUMP JUMPDEST PUSH1 0x0 PUSH1 0x20 DUP3 ADD SWAP1 POP PUSH2 0x1C1E PUSH1 0x0 DUP4 ADD DUP5 PUSH2 0x1BFA JUMP JUMPDEST SWAP3 SWAP2 POP POP JUMP JUMPDEST PUSH1 0x0 DUP1 PUSH1 0x40 DUP4 DUP6 SUB SLT ISZERO PUSH2 0x1C3B JUMPI PUSH2 0x1C3A PUSH2 0x17EA JUMP JUMPDEST JUMPDEST PUSH1 0x0 PUSH2 0x1C49 DUP6 DUP3 DUP7 ADD PUSH2 0x180B JUMP JUMPDEST SWAP3 POP POP PUSH1 0x20 PUSH2 0x1C5A DUP6 DUP3 DUP7 ADD PUSH2 0x1903 JUMP JUMPDEST SWAP2 POP POP SWAP3 POP SWAP3 SWAP1 POP JUMP JUMPDEST PUSH2 0x1C6D DUP2 PUSH2 0x18E2 JUMP JUMPDEST DUP3 MSTORE POP POP JUMP JUMPDEST PUSH1 0x0 PUSH1 0x20 DUP3 ADD SWAP1 POP PUSH2 0x1C88 PUSH1 0x0 DUP4 ADD DUP5 PUSH2 0x1C64 JUMP JUMPDEST SWAP3 SWAP2 POP POP JUMP JUMPDEST PUSH1 0x0 PUSH1 0x20 DUP3 DUP5 SUB SLT ISZERO PUSH2 0x1CA4 JUMPI PUSH2 0x1CA3 PUSH2 0x17EA JUMP JUMPDEST JUMPDEST PUSH1 0x0 PUSH2 0x1CB2 DUP5 DUP3 DUP6 ADD PUSH2 0x1903 JUMP JUMPDEST SWAP2 POP POP SWAP3 SWAP2 POP POP JUMP JUMPDEST PUSH1 0x0 DUP1 DUP4 PUSH1 0x1F DUP5 ADD SLT PUSH2 0x1CD1 JUMPI PUSH2 0x1CD0 PUSH2 0x1820 JUMP JUMPDEST JUMPDEST DUP3 CALLDATALOAD SWAP1 POP PUSH8 0xFFFFFFFFFFFFFFFF DUP2 GT ISZERO PUSH2 0x1CEE JUMPI PUSH2 0x1CED PUSH2 0x1AEB JUMP JUMPDEST JUMPDEST PUSH1 0x20 DUP4 ADD SWAP2 POP DUP4 PUSH1 0x20 DUP3 MUL DUP4 ADD GT ISZERO PUSH2 0x1D0A JUMPI PUSH2 0x1D09 PUSH2 0x18DD JUMP JUMPDEST JUMPDEST SWAP3 POP SWAP3 SWAP1 POP JUMP JUMPDEST PUSH1 0x0 DUP1 PUSH1 0x20 DUP4 DUP6 SUB SLT ISZERO PUSH2 0x1D28 JUMPI PUSH2 0x1D27 PUSH2 0x17EA JUMP JUMPDEST JUMPDEST PUSH1 0x0 DUP4 ADD CALLDATALOAD PUSH8 0xFFFFFFFFFFFFFFFF DUP2 GT ISZERO PUSH2 0x1D46 JUMPI PUSH2 0x1D45 PUSH2 0x17EF JUMP JUMPDEST JUMPDEST PUSH2 0x1D52 DUP6 DUP3 DUP7 ADD PUSH2 0x1CBB JUMP JUMPDEST SWAP3 POP SWAP3 POP POP SWAP3 POP SWAP3 SWAP1 POP JUMP JUMPDEST PUSH1 0x0 DUP2 ISZERO ISZERO SWAP1 POP SWAP2 SWAP1 POP JUMP JUMPDEST PUSH2 0x1D73 DUP2 PUSH2 0x1D5E JUMP JUMPDEST DUP3 MSTORE POP POP JUMP JUMPDEST PUSH1 0x0 PUSH1 0x20 DUP3 ADD SWAP1 POP PUSH2 0x1D8E PUSH1 0x0 DUP4 ADD DUP5 PUSH2 0x1D6A JUMP JUMPDEST SWAP3 SWAP2 POP POP JUMP JUMPDEST PUSH1 0x0 PUSH1 0x20 DUP3 DUP5 SUB SLT ISZERO PUSH2 0x1DAA JUMPI PUSH2 0x1DA9 PUSH2 0x17EA JUMP JUMPDEST JUMPDEST PUSH1 0x0 PUSH2 0x1DB8 DUP5 DUP3 DUP6 ADD PUSH2 0x180B JUMP JUMPDEST SWAP2 POP POP SWAP3 SWAP2 POP POP JUMP JUMPDEST PUSH32 0x4E487B7100000000000000000000000000000000000000000000000000000000 PUSH1 0x0 MSTORE PUSH1 0x32 PUSH1 0x4 MSTORE PUSH1 0x24 PUSH1 0x0 REVERT JUMPDEST PUSH32 0x4E487B7100000000000000000000000000000000000000000000000000000000 PUSH1 0x0 MSTORE PUSH1 0x11 PUSH1 0x4 MSTORE PUSH1 0x24 PUSH1 0x0 REVERT JUMPDEST PUSH1 0x0 PUSH2 0x1E2A DUP3 PUSH2 0x18E2 JUMP JUMPDEST SWAP2 POP PUSH2 0x1E35 DUP4 PUSH2 0x18E2 JUMP JUMPDEST SWAP3 POP DUP3 DUP3 SUB SWAP1 POP DUP2 DUP2 GT ISZERO PUSH2 0x1E4D JUMPI PUSH2 0x1E4C PUSH2 0x1DF0 JUMP JUMPDEST JUMPDEST SWAP3 SWAP2 POP POP JUMP JUMPDEST PUSH1 0x0 PUSH2 0x1E5E DUP3 PUSH2 0x18E2 JUMP JUMPDEST SWAP2 POP PUSH2 0x1E69 DUP4 PUSH2 0x18E2 JUMP JUMPDEST SWAP3 POP DUP3 DUP3 MUL PUSH2 0x1E77 DUP2 PUSH2 0x18E2 JUMP JUMPDEST SWAP2 POP DUP3 DUP3 DIV DUP5 EQ DUP4 ISZERO OR PUSH2 0x1E8E JUMPI PUSH2 0x1E8D PUSH2 0x1DF0 JUMP JUMPDEST JUMPDEST POP SWAP3 SWAP2 POP POP JUMP JUMPDEST PUSH1 0x0 PUSH2 0x1EA0 DUP3 PUSH2 0x18E2 JUMP JUMPDEST SWAP2 POP PUSH32 0xFFFFFFFFFFFFFFFFFFFFFFFFFFFFFFFFFFFFFFFFFFFFFFFFFFFFFFFFFFFFFFFF DUP3 SUB PUSH2 0x1ED2 JUMPI PUSH2 0x1ED1 PUSH2 0x1DF0 JUMP JUMPDEST JUMPDEST PUSH1 0x1 DUP3 ADD SWAP1 POP SWAP2 SWAP1 POP JUMP JUMPDEST PUSH1 0x0 DUP3 DUP3 MSTORE PUSH1 0x20 DUP3 ADD SWAP1 POP SWAP3 SWAP2 POP POP JUMP JUMPDEST PUSH32 0x496E76616C696420626C6F636B73000000000000000000000000000000000000 PUSH1 0x0 DUP3 ADD MSTORE POP JUMP JUMPDEST PUSH1 0x0 PUSH2 0x1F24 PUSH1 0xE DUP4 PUSH2 0x1EDD JUMP JUMPDEST SWAP2 POP PUSH2 0x1F2F DUP3 PUSH2 0x1EEE JUMP JUMPDEST PUSH1 0x20 DUP3 ADD SWAP1 POP SWAP2 SWAP1 POP JUMP JUMPDEST PUSH1 0x0 PUSH1 0x20 DUP3 ADD SWAP1 POP DUP2 DUP2 SUB PUSH1 0x0 DUP4 ADD MSTORE PUSH2 0x1F53 DUP2 PUSH2 0x1F17 JUMP JUMPDEST SWAP1 POP SWAP2 SWAP1 POP JUMP JUMPDEST PUSH1 0x0 PUSH2 0x1F65 DUP3 PUSH2 0x18E2 JUMP JUMPDEST SWAP2 POP PUSH2 0x1F70 DUP4 PUSH2 0x18E2 JUMP JUMPDEST SWAP3 POP DUP3 DUP3 ADD SWAP1 POP DUP1 DUP3 GT ISZERO PUSH2 0x1F88 JUMPI PUSH2 0x1F87 PUSH2 0x1DF0 JUMP JUMPDEST JUMPDEST SWAP3 SWAP2 POP POP JUMP JUMPDEST PUSH32 0x496E76616C696420616464726573730000000000000000000000000000000000 PUSH1 0x0 DUP3 ADD MSTORE POP JUMP JUMPDEST PUSH1 0x0 PUSH2 0x1FC4 PUSH1 0xF DUP4 PUSH2 0x1EDD JUMP JUMPDEST SWAP2 POP PUSH2 0x1FCF DUP3 PUSH2 0x1F8E JUMP JUMPDEST PUSH1 0x20 DUP3 ADD SWAP1 POP SWAP2 SWAP1 POP JUMP JUMPDEST PUSH1 0x0 PUSH1 0x20 DUP3 ADD SWAP1 POP DUP2 DUP2 SUB PUSH1 0x0 DUP4 ADD MSTORE PUSH2 0x1FF3 DUP2 PUSH2 0x1FB7 JUMP JUMPDEST SWAP1 POP SWAP2 SWAP1 POP JUMP JUMPDEST PUSH1 0x0 DUP3 DUP3 MSTORE PUSH1 0x20 DUP3 ADD SWAP1 POP SWAP3 SWAP2 POP POP JUMP JUMPDEST POP JUMP JUMPDEST PUSH1 0x0 PUSH2 0x201B PUSH1 0x0 DUP4 PUSH2 0x1FFA JUMP JUMPDEST SWAP2 POP PUSH2 0x2026 DUP3 PUSH2 0x200B JUMP JUMPDEST PUSH1 0x0 DUP3 ADD SWAP1 POP SWAP2 SWAP1 POP JUMP JUMPDEST PUSH1 0x0 PUSH1 0x80 DUP3 ADD SWAP1 POP PUSH2 0x2046 PUSH1 0x0 DUP4 ADD DUP7 PUSH2 0x17B6 JUMP JUMPDEST PUSH2 0x2053 PUSH1 0x20 DUP4 ADD DUP6 PUSH2 0x17B6 JUMP JUMPDEST PUSH2 0x2060 PUSH1 0x40 DUP4 ADD DUP5 PUSH2 0x1C64 JUMP JUMPDEST DUP2 DUP2 SUB PUSH1 0x60 DUP4 ADD MSTORE PUSH2 0x2071 DUP2 PUSH2 0x200E JUMP JUMPDEST SWAP1 POP SWAP5 SWAP4 POP POP POP POP JUMP JUMPDEST PUSH1 0x0 PUSH1 0x40 DUP3 ADD SWAP1 POP PUSH2 0x2090 PUSH1 0x0 DUP4 ADD DUP6 PUSH2 0x17B6 JUMP JUMPDEST PUSH2 0x209D PUSH1 0x20 DUP4 ADD DUP5 PUSH2 0x1C64 JUMP JUMPDEST SWAP4 SWAP3 POP POP POP JUMP JUMPDEST PUSH2 0x20AD DUP2 PUSH2 0x1D5E JUMP JUMPDEST DUP2 EQ PUSH2 0x20B8 JUMPI PUSH1 0x0 DUP1 REVERT JUMPDEST POP JUMP JUMPDEST PUSH1 0x0 DUP2 MLOAD SWAP1 POP PUSH2 0x20CA DUP2 PUSH2 0x20A4 JUMP JUMPDEST SWAP3 SWAP2 POP POP JUMP JUMPDEST PUSH1 0x0 PUSH1 0x20 DUP3 DUP5 SUB SLT ISZERO PUSH2 0x20E6 JUMPI PUSH2 0x20E5 PUSH2 0x17EA JUMP JUMPDEST JUMPDEST PUSH1 0x0 PUSH2 0x20F4 DUP5 DUP3 DUP6 ADD PUSH2 0x20BB JUMP JUMPDEST SWAP2 POP POP SWAP3 SWAP2 POP POP JUMP JUMPDEST PUSH1 0x0 DUP2 MLOAD SWAP1 POP PUSH2 0x210C DUP2 PUSH2 0x18EC JUMP JUMPDEST SWAP3 SWAP2 POP POP JUMP JUMPDEST PUSH1 0x0 PUSH1 0x20 DUP3 DUP5 SUB SLT ISZERO PUSH2 0x2128 JUMPI PUSH2 0x2127 PUSH2 0x17EA JUMP JUMPDEST JUMPDEST PUSH1 0x0 PUSH2 0x2136 DUP5 DUP3 DUP6 ADD PUSH2 0x20FD JUMP JUMPDEST SWAP2 POP POP SWAP3 SWAP2 POP POP JUMP JUMPDEST PUSH32 0x5374616B696E673A20746F6B656E206E6F74206465706F736974656400000000 PUSH1 0x0 DUP3 ADD MSTORE POP JUMP JUMPDEST PUSH1 0x0 PUSH2 0x2175 PUSH1 0x1C DUP4 PUSH2 0x1EDD JUMP JUMPDEST SWAP2 POP PUSH2 0x2180 DUP3 PUSH2 0x213F JUMP JUMPDEST PUSH1 0x20 DUP3 ADD SWAP1 POP SWAP2 SWAP1 POP JUMP JUMPDEST PUSH1 0x0 PUSH1 0x20 DUP3 ADD SWAP1 POP DUP2 DUP2 SUB PUSH1 0x0 DUP4 ADD MSTORE PUSH2 0x21A4 DUP2 PUSH2 0x2168 JUMP JUMPDEST SWAP1 POP SWAP2 SWAP1 POP JUMP JUMPDEST PUSH32 0x4F776E61626C653A206E6577206F776E657220697320746865207A65726F2061 PUSH1 0x0 DUP3 ADD MSTORE PUSH32 0x6464726573730000000000000000000000000000000000000000000000000000 PUSH1 0x20 DUP3 ADD MSTORE POP JUMP JUMPDEST PUSH1 0x0 PUSH2 0x2207 PUSH1 0x26 DUP4 PUSH2 0x1EDD JUMP JUMPDEST SWAP2 POP PUSH2 0x2212 DUP3 PUSH2 0x21AB JUMP JUMPDEST PUSH1 0x40 DUP3 ADD SWAP1 POP SWAP2 SWAP1 POP JUMP JUMPDEST PUSH1 0x0 PUSH1 0x20 DUP3 ADD SWAP1 POP DUP2 DUP2 SUB PUSH1 0x0 DUP4 ADD MSTORE PUSH2 0x2236 DUP2 PUSH2 0x21FA JUMP JUMPDEST SWAP1 POP SWAP2 SWAP1 POP JUMP JUMPDEST PUSH32 0x4F776E61626C653A2063616C6C6572206973206E6F7420746865206F776E6572 PUSH1 0x0 DUP3 ADD MSTORE POP JUMP JUMPDEST PUSH1 0x0 PUSH2 0x2273 PUSH1 0x20 DUP4 PUSH2 0x1EDD JUMP JUMPDEST SWAP2 POP PUSH2 0x227E DUP3 PUSH2 0x223D JUMP JUMPDEST PUSH1 0x20 DUP3 ADD SWAP1 POP SWAP2 SWAP1 POP JUMP JUMPDEST PUSH1 0x0 PUSH1 0x20 DUP3 ADD SWAP1 POP DUP2 DUP2 SUB PUSH1 0x0 DUP4 ADD MSTORE PUSH2 0x22A2 DUP2 PUSH2 0x2266 JUMP JUMPDEST SWAP1 POP SWAP2 SWAP1 POP JUMP JUMPDEST PUSH32 0x5061757361626C653A2070617573656400000000000000000000000000000000 PUSH1 0x0 DUP3 ADD MSTORE POP JUMP JUMPDEST PUSH1 0x0 PUSH2 0x22DF PUSH1 0x10 DUP4 PUSH2 0x1EDD JUMP JUMPDEST SWAP2 POP PUSH2 0x22EA DUP3 PUSH2 0x22A9 JUMP JUMPDEST PUSH1 0x20 DUP3 ADD SWAP1 POP SWAP2 SWAP1 POP JUMP JUMPDEST PUSH1 0x0 PUSH1 0x20 DUP3 ADD SWAP1 POP DUP2 DUP2 SUB PUSH1 0x0 DUP4 ADD MSTORE PUSH2 0x230E DUP2 PUSH2 0x22D2 JUMP JUMPDEST SWAP1 POP SWAP2 SWAP1 POP JUMP JUMPDEST PUSH32 0x5265656E7472616E637947756172643A207265656E7472616E742063616C6C00 PUSH1 0x0 DUP3 ADD MSTORE POP JUMP JUMPDEST PUSH1 0x0 PUSH2 0x234B PUSH1 0x1F DUP4 PUSH2 0x1EDD JUMP JUMPDEST SWAP2 POP PUSH2 0x2356 DUP3 PUSH2 0x2315 JUMP JUMPDEST PUSH1 0x20 DUP3 ADD SWAP1 POP SWAP2 SWAP1 POP JUMP JUMPDEST PUSH1 0x0 PUSH1 0x20 DUP3 ADD SWAP1 POP DUP2 DUP2 SUB PUSH1 0x0 DUP4 ADD MSTORE PUSH2 0x237A DUP2 PUSH2 0x233E JUMP JUMPDEST SWAP1 POP SWAP2 SWAP1 POP JUMP JUMPDEST PUSH32 0x5061757361626C653A206E6F7420706175736564000000000000000000000000 PUSH1 0x0 DUP3 ADD MSTORE POP JUMP JUMPDEST PUSH1 0x0 PUSH2 0x23B7 PUSH1 0x14 DUP4 PUSH2 0x1EDD JUMP JUMPDEST SWAP2 POP PUSH2 0x23C2 DUP3 PUSH2 0x2381 JUMP JUMPDEST PUSH1 0x20 DUP3 ADD SWAP1 POP SWAP2 SWAP1 POP JUMP JUMPDEST PUSH1 0x0 PUSH1 0x20 DUP3 ADD SWAP1 POP DUP2 DUP2 SUB PUSH1 0x0 DUP4 ADD MSTORE PUSH2 0x23E6 DUP2 PUSH2 0x23AA JUMP JUMPDEST SWAP1 POP SWAP2 SWAP1 POP JUMP JUMPDEST PUSH32 0x4E487B7100000000000000000000000000000000000000000000000000000000 PUSH1 0x0 MSTORE PUSH1 0x31 PUSH1 0x4 MSTORE PUSH1 0x24 PUSH1 0x0 REVERT INVALID LOG2 PUSH5 0x6970667358 0x22 SLT KECCAK256 0xA8 PUSH1 0xC9 0xD2 DUP4 0x27 0xC SDIV CREATE SWAP7 MULMOD 0xD8 0xAC ADDMOD SDIV 0x21 BLOCKHASH PUSH15 0x4B241297BAE80E70F377B18A00B864 PUSH20 0x6F6C634300081100330000000000000000000000 "
				},
				"gasEstimates": {
					"creation": {
						"codeDepositCost": "1859600",
						"executionCost": "infinite",
						"totalCost": "infinite"
					},
					"external": {
						"_depositBlocks(address,uint256)": "infinite",
						"accumulatedTokens(address)": "2902",
						"calculateReward(address,uint256)": "infinite",
						"calculateRewards(address,uint256[])": "infinite",
						"claimRewards(uint256[])": "infinite",
						"deposit(uint256[])": "infinite",
						"depositsOf(address)": "infinite",
						"erc20Address()": "2626",
						"expiration()": "2496",
						"flipIsClaimable()": "28880",
						"isClaimable()": "2538",
						"onERC721Received(address,address,uint256,bytes)": "infinite",
						"owner()": "2655",
						"pause()": "infinite",
						"paused()": "2612",
						"rate()": "2563",
						"renounceOwnership()": "30443",
						"setExpiration(uint256)": "infinite",
						"setRate(uint256)": "24807",
						"stakingDestinationAddress()": "2538",
						"transferOwnership(address)": "30876",
						"unpause()": "infinite",
						"withdraw(uint256[])": "infinite",
						"withdrawTokens()": "infinite"
					}
				},
				"methodIdentifiers": {
					"_depositBlocks(address,uint256)": "b343ae14",
					"accumulatedTokens(address)": "deec7eff",
					"calculateReward(address,uint256)": "1852e8d9",
					"calculateRewards(address,uint256[])": "068c526f",
					"claimRewards(uint256[])": "5eac6239",
					"deposit(uint256[])": "598b8e71",
					"depositsOf(address)": "e3a9db1a",
					"erc20Address()": "276184ae",
					"expiration()": "4665096d",
					"flipIsClaimable()": "ca1c2019",
					"isClaimable()": "74478bb3",
					"onERC721Received(address,address,uint256,bytes)": "150b7a02",
					"owner()": "8da5cb5b",
					"pause()": "8456cb59",
					"paused()": "5c975abb",
					"rate()": "2c4e722e",
					"renounceOwnership()": "715018a6",
					"setExpiration(uint256)": "515a20ba",
					"setRate(uint256)": "34fcf437",
					"stakingDestinationAddress()": "0222a2c4",
					"transferOwnership(address)": "f2fde38b",
					"unpause()": "3f4ba83a",
					"withdraw(uint256[])": "983d95ce",
					"withdrawTokens()": "8d8f2adb"
				}
			},
			"storageLayout": {
				"storage": [
					{
						"astId": 7,
						"contract": "contracts/FrenStaking.sol:FrenStaking",
						"label": "_owner",
						"offset": 0,
						"slot": "0",
						"type": "t_address"
					},
					{
						"astId": 231,
						"contract": "contracts/FrenStaking.sol:FrenStaking",
						"label": "_status",
						"offset": 0,
						"slot": "1",
						"type": "t_uint256"
					},
					{
						"astId": 130,
						"contract": "contracts/FrenStaking.sol:FrenStaking",
						"label": "_paused",
						"offset": 0,
						"slot": "2",
						"type": "t_bool"
					},
					{
						"astId": 2698,
						"contract": "contracts/FrenStaking.sol:FrenStaking",
						"label": "nullAddress",
						"offset": 1,
						"slot": "2",
						"type": "t_address"
					},
					{
						"astId": 2700,
						"contract": "contracts/FrenStaking.sol:FrenStaking",
						"label": "stakingDestinationAddress",
						"offset": 0,
						"slot": "3",
						"type": "t_address"
					},
					{
						"astId": 2702,
						"contract": "contracts/FrenStaking.sol:FrenStaking",
						"label": "erc20Address",
						"offset": 0,
						"slot": "4",
						"type": "t_address"
					},
					{
						"astId": 2704,
						"contract": "contracts/FrenStaking.sol:FrenStaking",
						"label": "expiration",
						"offset": 0,
						"slot": "5",
						"type": "t_uint256"
					},
					{
						"astId": 2706,
						"contract": "contracts/FrenStaking.sol:FrenStaking",
						"label": "rate",
						"offset": 0,
						"slot": "6",
						"type": "t_uint256"
					},
					{
						"astId": 2708,
						"contract": "contracts/FrenStaking.sol:FrenStaking",
						"label": "isClaimable",
						"offset": 0,
						"slot": "7",
						"type": "t_bool"
					},
					{
						"astId": 2713,
						"contract": "contracts/FrenStaking.sol:FrenStaking",
						"label": "_deposits",
						"offset": 0,
						"slot": "8",
						"type": "t_mapping(t_address,t_struct(UintSet)2541_storage)"
					},
					{
						"astId": 2719,
						"contract": "contracts/FrenStaking.sol:FrenStaking",
						"label": "_depositBlocks",
						"offset": 0,
						"slot": "9",
						"type": "t_mapping(t_address,t_mapping(t_uint256,t_uint256))"
					},
					{
						"astId": 2723,
						"contract": "contracts/FrenStaking.sol:FrenStaking",
						"label": "accumulatedTokens",
						"offset": 0,
						"slot": "10",
						"type": "t_mapping(t_address,t_uint256)"
					}
				],
				"types": {
					"t_address": {
						"encoding": "inplace",
						"label": "address",
						"numberOfBytes": "20"
					},
					"t_array(t_bytes32)dyn_storage": {
						"base": "t_bytes32",
						"encoding": "dynamic_array",
						"label": "bytes32[]",
						"numberOfBytes": "32"
					},
					"t_bool": {
						"encoding": "inplace",
						"label": "bool",
						"numberOfBytes": "1"
					},
					"t_bytes32": {
						"encoding": "inplace",
						"label": "bytes32",
						"numberOfBytes": "32"
					},
					"t_mapping(t_address,t_mapping(t_uint256,t_uint256))": {
						"encoding": "mapping",
						"key": "t_address",
						"label": "mapping(address => mapping(uint256 => uint256))",
						"numberOfBytes": "32",
						"value": "t_mapping(t_uint256,t_uint256)"
					},
					"t_mapping(t_address,t_struct(UintSet)2541_storage)": {
						"encoding": "mapping",
						"key": "t_address",
						"label": "mapping(address => struct EnumerableSet.UintSet)",
						"numberOfBytes": "32",
						"value": "t_struct(UintSet)2541_storage"
					},
					"t_mapping(t_address,t_uint256)": {
						"encoding": "mapping",
						"key": "t_address",
						"label": "mapping(address => uint256)",
						"numberOfBytes": "32",
						"value": "t_uint256"
					},
					"t_mapping(t_bytes32,t_uint256)": {
						"encoding": "mapping",
						"key": "t_bytes32",
						"label": "mapping(bytes32 => uint256)",
						"numberOfBytes": "32",
						"value": "t_uint256"
					},
					"t_mapping(t_uint256,t_uint256)": {
						"encoding": "mapping",
						"key": "t_uint256",
						"label": "mapping(uint256 => uint256)",
						"numberOfBytes": "32",
						"value": "t_uint256"
					},
					"t_struct(Set)2069_storage": {
						"encoding": "inplace",
						"label": "struct EnumerableSet.Set",
						"members": [
							{
								"astId": 2064,
								"contract": "contracts/FrenStaking.sol:FrenStaking",
								"label": "_values",
								"offset": 0,
								"slot": "0",
								"type": "t_array(t_bytes32)dyn_storage"
							},
							{
								"astId": 2068,
								"contract": "contracts/FrenStaking.sol:FrenStaking",
								"label": "_indexes",
								"offset": 0,
								"slot": "1",
								"type": "t_mapping(t_bytes32,t_uint256)"
							}
						],
						"numberOfBytes": "64"
					},
					"t_struct(UintSet)2541_storage": {
						"encoding": "inplace",
						"label": "struct EnumerableSet.UintSet",
						"members": [
							{
								"astId": 2540,
								"contract": "contracts/FrenStaking.sol:FrenStaking",
								"label": "_inner",
								"offset": 0,
								"slot": "0",
								"type": "t_struct(Set)2069_storage"
							}
						],
						"numberOfBytes": "64"
					},
					"t_uint256": {
						"encoding": "inplace",
						"label": "uint256",
						"numberOfBytes": "32"
					}
				}
			},
			"userdoc": {
				"kind": "user",
				"methods": {},
				"version": 1
			}
		}
	}
}