{
	"contracts/SwapToken/swap.sol": {
		"SingleSwap": {
			"abi": [
				{
					"inputs": [],
					"name": "routerAddress",
					"outputs": [
						{
							"internalType": "address",
							"name": "",
							"type": "address"
						}
					],
					"stateMutability": "view",
					"type": "function"
				},
				{
					"inputs": [
						{
							"internalType": "uint24",
							"name": "poolFee",
							"type": "uint24"
						},
						{
							"internalType": "uint256",
							"name": "amountIn",
							"type": "uint256"
						},
						{
							"internalType": "address",
							"name": "FROG",
							"type": "address"
						},
						{
							"internalType": "address",
							"name": "WETH",
							"type": "address"
						},
						{
							"internalType": "address",
							"name": "Receiver",
							"type": "address"
						}
					],
					"name": "swapExactInputSingle",
					"outputs": [
						{
							"internalType": "uint256",
							"name": "amountOut",
							"type": "uint256"
						}
					],
					"stateMutability": "nonpayable",
					"type": "function"
				},
				{
					"inputs": [],
					"name": "swapRouter",
					"outputs": [
						{
							"internalType": "contract ISwapRouter",
							"name": "",
							"type": "address"
						}
					],
					"stateMutability": "view",
					"type": "function"
				}
			],
			"devdoc": {
				"kind": "dev",
				"methods": {},
				"version": 1
			},
			"evm": {
				"assembly": "    /* \"contracts/SwapToken/swap.sol\":417:1989  contract SingleSwap {... */\n  mstore(0x40, 0xa0)\n    /* \"contracts/SwapToken/swap.sol\":491:533  0xE592427A0AEce92De3Edee1F18E0157C05861564 */\n  0xe592427a0aece92de3edee1f18e0157c05861564\n    /* \"contracts/SwapToken/swap.sol\":539:607  ISwapRouter public immutable swapRouter = ISwapRouter(routerAddress) */\n  0x80\n  mstore\n    /* \"contracts/SwapToken/swap.sol\":417:1989  contract SingleSwap {... */\n  callvalue\n  dup1\n  iszero\n  tag_1\n  jumpi\n  0x00\n  dup1\n  revert\ntag_1:\n  pop\n  mload(0x80)\n  codecopy(0x00, dataOffset(sub_0), dataSize(sub_0))\n  0x00\n  assignImmutable(\"0xb6477a31e41e27dc2f2cbe4c2bbb37b5a6a34683d5cbca4a1a706df5525a2d30\")\n  return(0x00, dataSize(sub_0))\nstop\n\nsub_0: assembly {\n        /* \"contracts/SwapToken/swap.sol\":417:1989  contract SingleSwap {... */\n      mstore(0x40, 0x80)\n      callvalue\n      dup1\n      iszero\n      tag_1\n      jumpi\n      0x00\n      dup1\n      revert\n    tag_1:\n      pop\n      jumpi(tag_2, lt(calldatasize, 0x04))\n      shr(0xe0, calldataload(0x00))\n      dup1\n      0x3268cc56\n      eq\n      tag_3\n      jumpi\n      dup1\n      0x9b56d891\n      eq\n      tag_4\n      jumpi\n      dup1\n      0xc31c9c07\n      eq\n      tag_5\n      jumpi\n    tag_2:\n      0x00\n      dup1\n      revert\n        /* \"contracts/SwapToken/swap.sol\":443:533  address public constant routerAddress =... */\n    tag_3:\n      tag_6\n        /* \"contracts/SwapToken/swap.sol\":491:533  0xE592427A0AEce92De3Edee1F18E0157C05861564 */\n      0xe592427a0aece92de3edee1f18e0157c05861564\n        /* \"contracts/SwapToken/swap.sol\":443:533  address public constant routerAddress =... */\n      dup2\n      jump\n    tag_6:\n      mload(0x40)\n      sub(shl(0xa0, 0x01), 0x01)\n        /* \"#utility.yul\":178:210   */\n      swap1\n      swap2\n      and\n        /* \"#utility.yul\":160:211   */\n      dup2\n      mstore\n        /* \"#utility.yul\":148:150   */\n      0x20\n        /* \"#utility.yul\":133:151   */\n      add\n        /* \"contracts/SwapToken/swap.sol\":443:533  address public constant routerAddress =... */\n    tag_8:\n      mload(0x40)\n      dup1\n      swap2\n      sub\n      swap1\n      return\n        /* \"contracts/SwapToken/swap.sol\":1159:1987  function swapExactInputSingle(uint24 poolFee,uint256 amountIn,address FROG,address WETH,address Receiver)... */\n    tag_4:\n      tag_10\n      tag_11\n      calldatasize\n      0x04\n      tag_12\n      jump\t// in\n    tag_11:\n      tag_13\n      jump\t// in\n    tag_10:\n      mload(0x40)\n        /* \"#utility.yul\":1117:1142   */\n      swap1\n      dup2\n      mstore\n        /* \"#utility.yul\":1105:1107   */\n      0x20\n        /* \"#utility.yul\":1090:1108   */\n      add\n        /* \"contracts/SwapToken/swap.sol\":1159:1987  function swapExactInputSingle(uint24 poolFee,uint256 amountIn,address FROG,address WETH,address Receiver)... */\n      tag_8\n        /* \"#utility.yul\":971:1148   */\n      jump\n        /* \"contracts/SwapToken/swap.sol\":539:607  ISwapRouter public immutable swapRouter = ISwapRouter(routerAddress) */\n    tag_5:\n      tag_6\n      immutable(\"0xb6477a31e41e27dc2f2cbe4c2bbb37b5a6a34683d5cbca4a1a706df5525a2d30\")\n      dup2\n      jump\n        /* \"contracts/SwapToken/swap.sol\":1159:1987  function swapExactInputSingle(uint24 poolFee,uint256 amountIn,address FROG,address WETH,address Receiver)... */\n    tag_13:\n        /* \"contracts/SwapToken/swap.sol\":1299:1316  uint256 amountOut */\n      0x00\n      sub(shl(0xa0, 0x01), 0x01)\n        /* \"contracts/SwapToken/swap.sol\":1392:1412  IERC20(FROG).approve */\n      dup5\n      and\n      0x095ea7b3\n        /* \"contracts/SwapToken/swap.sol\":1421:1431  swapRouter */\n      immutable(\"0xb6477a31e41e27dc2f2cbe4c2bbb37b5a6a34683d5cbca4a1a706df5525a2d30\")\n        /* \"contracts/SwapToken/swap.sol\":1435:1450  amountIn*100000 */\n      tag_21\n        /* \"contracts/SwapToken/swap.sol\":1435:1443  amountIn */\n      dup9\n        /* \"contracts/SwapToken/swap.sol\":1444:1450  100000 */\n      0x0186a0\n        /* \"contracts/SwapToken/swap.sol\":1435:1450  amountIn*100000 */\n      tag_22\n      jump\t// in\n    tag_21:\n        /* \"contracts/SwapToken/swap.sol\":1392:1452  IERC20(FROG).approve(address(swapRouter), (amountIn*100000)) */\n      mload(0x40)\n      not(sub(shl(0xe0, 0x01), 0x01))\n      0xe0\n      dup6\n      swap1\n      shl\n      and\n      dup2\n      mstore\n      sub(shl(0xa0, 0x01), 0x01)\n        /* \"#utility.yul\":1842:1874   */\n      swap1\n      swap3\n      and\n        /* \"contracts/SwapToken/swap.sol\":1392:1452  IERC20(FROG).approve(address(swapRouter), (amountIn*100000)) */\n      0x04\n      dup4\n      add\n        /* \"#utility.yul\":1824:1875   */\n      mstore\n        /* \"#utility.yul\":1891:1909   */\n      0x24\n      dup3\n      add\n        /* \"#utility.yul\":1884:1918   */\n      mstore\n        /* \"#utility.yul\":1797:1815   */\n      0x44\n      add\n        /* \"contracts/SwapToken/swap.sol\":1392:1452  IERC20(FROG).approve(address(swapRouter), (amountIn*100000)) */\n      0x20\n      mload(0x40)\n      dup1\n      dup4\n      sub\n      dup2\n      0x00\n      dup8\n      gas\n      call\n      iszero\n      dup1\n      iszero\n      tag_26\n      jumpi\n      returndatasize\n      0x00\n      dup1\n      returndatacopy\n      revert(0x00, returndatasize)\n    tag_26:\n      pop\n      pop\n      pop\n      pop\n      mload(0x40)\n      returndatasize\n      not(0x1f)\n      0x1f\n      dup3\n      add\n      and\n      dup3\n      add\n      dup1\n      0x40\n      mstore\n      pop\n      dup2\n      add\n      swap1\n      tag_27\n      swap2\n      swap1\n      tag_28\n      jump\t// in\n    tag_27:\n      pop\n        /* \"contracts/SwapToken/swap.sol\":1575:1922  ISwapRouter... */\n      0x40\n      dup1\n      mload\n      0x0100\n      dup2\n      add\n      dup3\n      mstore\n      sub(shl(0xa0, 0x01), 0x01)\n      dup7\n      dup2\n      and\n      dup3\n      mstore\n      dup6\n      dup2\n      and\n      0x20\n      dup4\n      add\n      swap1\n      dup2\n      mstore\n      0xffffff\n      dup11\n      dup2\n      and\n      dup5\n      dup7\n      add\n      swap1\n      dup2\n      mstore\n      dup8\n      dup5\n      and\n      0x60\n      dup7\n      add\n      swap1\n      dup2\n      mstore\n        /* \"contracts/SwapToken/swap.sol\":1781:1796  block.timestamp */\n      timestamp\n        /* \"contracts/SwapToken/swap.sol\":1575:1922  ISwapRouter... */\n      0x80\n      dup8\n      add\n      swap1\n      dup2\n      mstore\n      0xa0\n      dup8\n      add\n      dup14\n      dup2\n      mstore\n      0x00\n      0xc0\n      dup10\n      add\n      dup2\n      dup2\n      mstore\n      0xe0\n      dup11\n      add\n      swap2\n      dup3\n      mstore\n        /* \"contracts/SwapToken/swap.sol\":1945:1980  swapRouter.exactInputSingle(params) */\n      swap10\n      mload\n      shl(0xe0, 0x414bf389)\n      dup2\n      mstore\n        /* \"#utility.yul\":2494:2507   */\n      dup10\n      mload\n        /* \"#utility.yul\":2490:2512   */\n      dup10\n      and\n        /* \"contracts/SwapToken/swap.sol\":1945:1980  swapRouter.exactInputSingle(params) */\n      0x04\n      dup3\n      add\n        /* \"#utility.yul\":2472:2513   */\n      mstore\n        /* \"#utility.yul\":2555:2579   */\n      swap7\n      mload\n        /* \"#utility.yul\":2551:2584   */\n      dup9\n      and\n        /* \"#utility.yul\":2529:2549   */\n      0x24\n      dup9\n      add\n        /* \"#utility.yul\":2522:2585   */\n      mstore\n        /* \"#utility.yul\":2627:2651   */\n      swap4\n      mload\n        /* \"#utility.yul\":2623:2662   */\n      swap1\n      swap5\n      and\n        /* \"#utility.yul\":2601:2621   */\n      0x44\n      dup7\n      add\n        /* \"#utility.yul\":2594:2663   */\n      mstore\n        /* \"#utility.yul\":2705:2729   */\n      swap1\n      mload\n        /* \"#utility.yul\":2701:2734   */\n      dup6\n      and\n        /* \"#utility.yul\":2679:2699   */\n      0x64\n      dup6\n      add\n        /* \"#utility.yul\":2672:2735   */\n      mstore\n        /* \"#utility.yul\":2773:2797   */\n      mload\n        /* \"#utility.yul\":2751:2771   */\n      0x84\n      dup5\n      add\n        /* \"#utility.yul\":2744:2798   */\n      mstore\n        /* \"#utility.yul\":2836:2860   */\n      swap1\n      mload\n        /* \"#utility.yul\":2814:2834   */\n      0xa4\n      dup4\n      add\n        /* \"#utility.yul\":2807:2861   */\n      mstore\n        /* \"#utility.yul\":2899:2923   */\n      swap4\n      mload\n        /* \"#utility.yul\":2877:2897   */\n      0xc4\n      dup3\n      add\n        /* \"#utility.yul\":2870:2924   */\n      mstore\n        /* \"#utility.yul\":2966:2990   */\n      swap3\n      mload\n        /* \"#utility.yul\":2962:2995   */\n      dup2\n      and\n        /* \"#utility.yul\":2940:2960   */\n      0xe4\n      dup5\n      add\n        /* \"#utility.yul\":2933:2996   */\n      mstore\n        /* \"contracts/SwapToken/swap.sol\":1575:1922  ISwapRouter... */\n      swap1\n      swap2\n        /* \"contracts/SwapToken/swap.sol\":1945:1955  swapRouter */\n      immutable(\"0xb6477a31e41e27dc2f2cbe4c2bbb37b5a6a34683d5cbca4a1a706df5525a2d30\")\n        /* \"contracts/SwapToken/swap.sol\":1945:1972  swapRouter.exactInputSingle */\n      swap1\n      swap2\n      and\n      swap1\n      0x414bf389\n      swap1\n        /* \"#utility.yul\":2406:2425   */\n      0x0104\n      add\n        /* \"contracts/SwapToken/swap.sol\":1945:1980  swapRouter.exactInputSingle(params) */\n      0x20\n      mload(0x40)\n      dup1\n      dup4\n      sub\n      dup2\n      0x00\n      dup8\n      gas\n      call\n      iszero\n      dup1\n      iszero\n      tag_32\n      jumpi\n      returndatasize\n      0x00\n      dup1\n      returndatacopy\n      revert(0x00, returndatasize)\n    tag_32:\n      pop\n      pop\n      pop\n      pop\n      mload(0x40)\n      returndatasize\n      not(0x1f)\n      0x1f\n      dup3\n      add\n      and\n      dup3\n      add\n      dup1\n      0x40\n      mstore\n      pop\n      dup2\n      add\n      swap1\n      tag_33\n      swap2\n      swap1\n      tag_34\n      jump\t// in\n    tag_33:\n        /* \"contracts/SwapToken/swap.sol\":1933:1980  amountOut = swapRouter.exactInputSingle(params) */\n      swap8\n        /* \"contracts/SwapToken/swap.sol\":1159:1987  function swapExactInputSingle(uint24 poolFee,uint256 amountIn,address FROG,address WETH,address Receiver)... */\n      swap7\n      pop\n      pop\n      pop\n      pop\n      pop\n      pop\n      pop\n      jump\t// out\n        /* \"#utility.yul\":222:395   */\n    tag_35:\n        /* \"#utility.yul\":290:310   */\n      dup1\n      calldataload\n      sub(shl(0xa0, 0x01), 0x01)\n        /* \"#utility.yul\":339:370   */\n      dup2\n      and\n        /* \"#utility.yul\":329:371   */\n      dup2\n      eq\n        /* \"#utility.yul\":319:389   */\n      tag_39\n      jumpi\n        /* \"#utility.yul\":385:386   */\n      0x00\n        /* \"#utility.yul\":382:383   */\n      dup1\n        /* \"#utility.yul\":375:387   */\n      revert\n        /* \"#utility.yul\":319:389   */\n    tag_39:\n        /* \"#utility.yul\":222:395   */\n      swap2\n      swap1\n      pop\n      jump\t// out\n        /* \"#utility.yul\":400:966   */\n    tag_12:\n        /* \"#utility.yul\":494:500   */\n      0x00\n        /* \"#utility.yul\":502:508   */\n      dup1\n        /* \"#utility.yul\":510:516   */\n      0x00\n        /* \"#utility.yul\":518:524   */\n      dup1\n        /* \"#utility.yul\":526:532   */\n      0x00\n        /* \"#utility.yul\":579:582   */\n      0xa0\n        /* \"#utility.yul\":567:576   */\n      dup7\n        /* \"#utility.yul\":558:565   */\n      dup9\n        /* \"#utility.yul\":554:577   */\n      sub\n        /* \"#utility.yul\":550:583   */\n      slt\n        /* \"#utility.yul\":547:600   */\n      iszero\n      tag_41\n      jumpi\n        /* \"#utility.yul\":596:597   */\n      0x00\n        /* \"#utility.yul\":593:594   */\n      dup1\n        /* \"#utility.yul\":586:598   */\n      revert\n        /* \"#utility.yul\":547:600   */\n    tag_41:\n        /* \"#utility.yul\":635:644   */\n      dup6\n        /* \"#utility.yul\":622:645   */\n      calldataload\n        /* \"#utility.yul\":685:693   */\n      0xffffff\n        /* \"#utility.yul\":678:683   */\n      dup2\n        /* \"#utility.yul\":674:694   */\n      and\n        /* \"#utility.yul\":667:672   */\n      dup2\n        /* \"#utility.yul\":664:695   */\n      eq\n        /* \"#utility.yul\":654:713   */\n      tag_42\n      jumpi\n        /* \"#utility.yul\":709:710   */\n      0x00\n        /* \"#utility.yul\":706:707   */\n      dup1\n        /* \"#utility.yul\":699:711   */\n      revert\n        /* \"#utility.yul\":654:713   */\n    tag_42:\n        /* \"#utility.yul\":732:737   */\n      swap5\n      pop\n        /* \"#utility.yul\":784:786   */\n      0x20\n        /* \"#utility.yul\":769:787   */\n      dup7\n      add\n        /* \"#utility.yul\":756:788   */\n      calldataload\n      swap4\n      pop\n        /* \"#utility.yul\":807:845   */\n      tag_43\n        /* \"#utility.yul\":841:843   */\n      0x40\n        /* \"#utility.yul\":826:844   */\n      dup8\n      add\n        /* \"#utility.yul\":807:845   */\n      tag_35\n      jump\t// in\n    tag_43:\n        /* \"#utility.yul\":797:845   */\n      swap3\n      pop\n        /* \"#utility.yul\":864:902   */\n      tag_44\n        /* \"#utility.yul\":898:900   */\n      0x60\n        /* \"#utility.yul\":887:896   */\n      dup8\n        /* \"#utility.yul\":883:901   */\n      add\n        /* \"#utility.yul\":864:902   */\n      tag_35\n      jump\t// in\n    tag_44:\n        /* \"#utility.yul\":854:902   */\n      swap2\n      pop\n        /* \"#utility.yul\":921:960   */\n      tag_45\n        /* \"#utility.yul\":955:958   */\n      0x80\n        /* \"#utility.yul\":944:953   */\n      dup8\n        /* \"#utility.yul\":940:959   */\n      add\n        /* \"#utility.yul\":921:960   */\n      tag_35\n      jump\t// in\n    tag_45:\n        /* \"#utility.yul\":911:960   */\n      swap1\n      pop\n        /* \"#utility.yul\":400:966   */\n      swap3\n      swap6\n      pop\n      swap3\n      swap6\n      swap1\n      swap4\n      pop\n      jump\t// out\n        /* \"#utility.yul\":1380:1645   */\n    tag_22:\n        /* \"#utility.yul\":1453:1462   */\n      dup1\n      dup3\n      mul\n        /* \"#utility.yul\":1484:1493   */\n      dup2\n      iszero\n        /* \"#utility.yul\":1501:1516   */\n      dup3\n      dup3\n      div\n        /* \"#utility.yul\":1495:1517   */\n      dup5\n      eq\n        /* \"#utility.yul\":1481:1518   */\n      or\n        /* \"#utility.yul\":1471:1639   */\n      tag_49\n      jumpi\n        /* \"#utility.yul\":1561:1571   */\n      0x4e487b71\n        /* \"#utility.yul\":1556:1559   */\n      0xe0\n        /* \"#utility.yul\":1552:1572   */\n      shl\n        /* \"#utility.yul\":1549:1550   */\n      0x00\n        /* \"#utility.yul\":1542:1573   */\n      mstore\n        /* \"#utility.yul\":1596:1600   */\n      0x11\n        /* \"#utility.yul\":1593:1594   */\n      0x04\n        /* \"#utility.yul\":1586:1601   */\n      mstore\n        /* \"#utility.yul\":1624:1628   */\n      0x24\n        /* \"#utility.yul\":1621:1622   */\n      0x00\n        /* \"#utility.yul\":1614:1629   */\n      revert\n        /* \"#utility.yul\":1471:1639   */\n    tag_49:\n        /* \"#utility.yul\":1380:1645   */\n      swap3\n      swap2\n      pop\n      pop\n      jump\t// out\n        /* \"#utility.yul\":1929:2206   */\n    tag_28:\n        /* \"#utility.yul\":1996:2002   */\n      0x00\n        /* \"#utility.yul\":2049:2051   */\n      0x20\n        /* \"#utility.yul\":2037:2046   */\n      dup3\n        /* \"#utility.yul\":2028:2035   */\n      dup5\n        /* \"#utility.yul\":2024:2047   */\n      sub\n        /* \"#utility.yul\":2020:2052   */\n      slt\n        /* \"#utility.yul\":2017:2069   */\n      iszero\n      tag_52\n      jumpi\n        /* \"#utility.yul\":2065:2066   */\n      0x00\n        /* \"#utility.yul\":2062:2063   */\n      dup1\n        /* \"#utility.yul\":2055:2067   */\n      revert\n        /* \"#utility.yul\":2017:2069   */\n    tag_52:\n        /* \"#utility.yul\":2097:2106   */\n      dup2\n        /* \"#utility.yul\":2091:2107   */\n      mload\n        /* \"#utility.yul\":2150:2155   */\n      dup1\n        /* \"#utility.yul\":2143:2156   */\n      iszero\n        /* \"#utility.yul\":2136:2157   */\n      iszero\n        /* \"#utility.yul\":2129:2134   */\n      dup2\n        /* \"#utility.yul\":2126:2158   */\n      eq\n        /* \"#utility.yul\":2116:2176   */\n      tag_53\n      jumpi\n        /* \"#utility.yul\":2172:2173   */\n      0x00\n        /* \"#utility.yul\":2169:2170   */\n      dup1\n        /* \"#utility.yul\":2162:2174   */\n      revert\n        /* \"#utility.yul\":2116:2176   */\n    tag_53:\n        /* \"#utility.yul\":2195:2200   */\n      swap4\n        /* \"#utility.yul\":1929:2206   */\n      swap3\n      pop\n      pop\n      pop\n      jump\t// out\n        /* \"#utility.yul\":3007:3191   */\n    tag_34:\n        /* \"#utility.yul\":3077:3083   */\n      0x00\n        /* \"#utility.yul\":3130:3132   */\n      0x20\n        /* \"#utility.yul\":3118:3127   */\n      dup3\n        /* \"#utility.yul\":3109:3116   */\n      dup5\n        /* \"#utility.yul\":3105:3128   */\n      sub\n        /* \"#utility.yul\":3101:3133   */\n      slt\n        /* \"#utility.yul\":3098:3150   */\n      iszero\n      tag_56\n      jumpi\n        /* \"#utility.yul\":3146:3147   */\n      0x00\n        /* \"#utility.yul\":3143:3144   */\n      dup1\n        /* \"#utility.yul\":3136:3148   */\n      revert\n        /* \"#utility.yul\":3098:3150   */\n    tag_56:\n      pop\n        /* \"#utility.yul\":3169:3185   */\n      mload\n      swap2\n        /* \"#utility.yul\":3007:3191   */\n      swap1\n      pop\n      jump\t// out\n\n    auxdata: 0xa26469706673582212203dc1d3d92f26bc4b77ba1a8ce147eac4e099783dd042b60b816d38c9035707fd64736f6c63430008130033\n}\n",
				"bytecode": {
					"linkReferences": {},
					"object": "60a060405273e592427a0aece92de3edee1f18e0157c0586156460805234801561002857600080fd5b506080516103c16100506000396000818160a40152818160d9015261021f01526103c16000f3fe608060405234801561001057600080fd5b50600436106100415760003560e01c80633268cc56146100465780639b56d8911461007e578063c31c9c071461009f575b600080fd5b61006173e592427a0aece92de3edee1f18e0157c0586156481565b6040516001600160a01b0390911681526020015b60405180910390f35b61009161008c3660046102b6565b6100c6565b604051908152602001610075565b6100617f000000000000000000000000000000000000000000000000000000000000000081565b60006001600160a01b03841663095ea7b37f000000000000000000000000000000000000000000000000000000000000000061010588620186a061031e565b6040516001600160e01b031960e085901b1681526001600160a01b03909216600483015260248201526044016020604051808303816000875af1158015610150573d6000803e3d6000fd5b505050506040513d601f19601f820116820180604052508101906101749190610349565b5060408051610100810182526001600160a01b0386811682528581166020830190815262ffffff8a811684860190815287841660608601908152426080870190815260a087018d8152600060c0890181815260e08a01918252995163414bf38960e01b815289518916600482015296518816602488015293519094166044860152905185166064850152516084840152905160a4830152935160c48201529251811660e484015290917f00000000000000000000000000000000000000000000000000000000000000009091169063414bf38990610104016020604051808303816000875af115801561026b573d6000803e3d6000fd5b505050506040513d601f19601f8201168201806040525081019061028f9190610372565b979650505050505050565b80356001600160a01b03811681146102b157600080fd5b919050565b600080600080600060a086880312156102ce57600080fd5b853562ffffff811681146102e157600080fd5b9450602086013593506102f66040870161029a565b92506103046060870161029a565b91506103126080870161029a565b90509295509295909350565b808202811582820484141761034357634e487b7160e01b600052601160045260246000fd5b92915050565b60006020828403121561035b57600080fd5b8151801515811461036b57600080fd5b9392505050565b60006020828403121561038457600080fd5b505191905056fea26469706673582212203dc1d3d92f26bc4b77ba1a8ce147eac4e099783dd042b60b816d38c9035707fd64736f6c63430008130033",
					"opcodes": "PUSH1 0xA0 PUSH1 0x40 MSTORE PUSH20 0xE592427A0AECE92DE3EDEE1F18E0157C05861564 PUSH1 0x80 MSTORE CALLVALUE DUP1 ISZERO PUSH2 0x28 JUMPI PUSH1 0x0 DUP1 REVERT JUMPDEST POP PUSH1 0x80 MLOAD PUSH2 0x3C1 PUSH2 0x50 PUSH1 0x0 CODECOPY PUSH1 0x0 DUP2 DUP2 PUSH1 0xA4 ADD MSTORE DUP2 DUP2 PUSH1 0xD9 ADD MSTORE PUSH2 0x21F ADD MSTORE PUSH2 0x3C1 PUSH1 0x0 RETURN INVALID PUSH1 0x80 PUSH1 0x40 MSTORE CALLVALUE DUP1 ISZERO PUSH2 0x10 JUMPI PUSH1 0x0 DUP1 REVERT JUMPDEST POP PUSH1 0x4 CALLDATASIZE LT PUSH2 0x41 JUMPI PUSH1 0x0 CALLDATALOAD PUSH1 0xE0 SHR DUP1 PUSH4 0x3268CC56 EQ PUSH2 0x46 JUMPI DUP1 PUSH4 0x9B56D891 EQ PUSH2 0x7E JUMPI DUP1 PUSH4 0xC31C9C07 EQ PUSH2 0x9F JUMPI JUMPDEST PUSH1 0x0 DUP1 REVERT JUMPDEST PUSH2 0x61 PUSH20 0xE592427A0AECE92DE3EDEE1F18E0157C05861564 DUP2 JUMP JUMPDEST PUSH1 0x40 MLOAD PUSH1 0x1 PUSH1 0x1 PUSH1 0xA0 SHL SUB SWAP1 SWAP2 AND DUP2 MSTORE PUSH1 0x20 ADD JUMPDEST PUSH1 0x40 MLOAD DUP1 SWAP2 SUB SWAP1 RETURN JUMPDEST PUSH2 0x91 PUSH2 0x8C CALLDATASIZE PUSH1 0x4 PUSH2 0x2B6 JUMP JUMPDEST PUSH2 0xC6 JUMP JUMPDEST PUSH1 0x40 MLOAD SWAP1 DUP2 MSTORE PUSH1 0x20 ADD PUSH2 0x75 JUMP JUMPDEST PUSH2 0x61 PUSH32 0x0 DUP2 JUMP JUMPDEST PUSH1 0x0 PUSH1 0x1 PUSH1 0x1 PUSH1 0xA0 SHL SUB DUP5 AND PUSH4 0x95EA7B3 PUSH32 0x0 PUSH2 0x105 DUP9 PUSH3 0x186A0 PUSH2 0x31E JUMP JUMPDEST PUSH1 0x40 MLOAD PUSH1 0x1 PUSH1 0x1 PUSH1 0xE0 SHL SUB NOT PUSH1 0xE0 DUP6 SWAP1 SHL AND DUP2 MSTORE PUSH1 0x1 PUSH1 0x1 PUSH1 0xA0 SHL SUB SWAP1 SWAP3 AND PUSH1 0x4 DUP4 ADD MSTORE PUSH1 0x24 DUP3 ADD MSTORE PUSH1 0x44 ADD PUSH1 0x20 PUSH1 0x40 MLOAD DUP1 DUP4 SUB DUP2 PUSH1 0x0 DUP8 GAS CALL ISZERO DUP1 ISZERO PUSH2 0x150 JUMPI RETURNDATASIZE PUSH1 0x0 DUP1 RETURNDATACOPY RETURNDATASIZE PUSH1 0x0 REVERT JUMPDEST POP POP POP POP PUSH1 0x40 MLOAD RETURNDATASIZE PUSH1 0x1F NOT PUSH1 0x1F DUP3 ADD AND DUP3 ADD DUP1 PUSH1 0x40 MSTORE POP DUP2 ADD SWAP1 PUSH2 0x174 SWAP2 SWAP1 PUSH2 0x349 JUMP JUMPDEST POP PUSH1 0x40 DUP1 MLOAD PUSH2 0x100 DUP2 ADD DUP3 MSTORE PUSH1 0x1 PUSH1 0x1 PUSH1 0xA0 SHL SUB DUP7 DUP2 AND DUP3 MSTORE DUP6 DUP2 AND PUSH1 0x20 DUP4 ADD SWAP1 DUP2 MSTORE PUSH3 0xFFFFFF DUP11 DUP2 AND DUP5 DUP7 ADD SWAP1 DUP2 MSTORE DUP8 DUP5 AND PUSH1 0x60 DUP7 ADD SWAP1 DUP2 MSTORE TIMESTAMP PUSH1 0x80 DUP8 ADD SWAP1 DUP2 MSTORE PUSH1 0xA0 DUP8 ADD DUP14 DUP2 MSTORE PUSH1 0x0 PUSH1 0xC0 DUP10 ADD DUP2 DUP2 MSTORE PUSH1 0xE0 DUP11 ADD SWAP2 DUP3 MSTORE SWAP10 MLOAD PUSH4 0x414BF389 PUSH1 0xE0 SHL DUP2 MSTORE DUP10 MLOAD DUP10 AND PUSH1 0x4 DUP3 ADD MSTORE SWAP7 MLOAD DUP9 AND PUSH1 0x24 DUP9 ADD MSTORE SWAP4 MLOAD SWAP1 SWAP5 AND PUSH1 0x44 DUP7 ADD MSTORE SWAP1 MLOAD DUP6 AND PUSH1 0x64 DUP6 ADD MSTORE MLOAD PUSH1 0x84 DUP5 ADD MSTORE SWAP1 MLOAD PUSH1 0xA4 DUP4 ADD MSTORE SWAP4 MLOAD PUSH1 0xC4 DUP3 ADD MSTORE SWAP3 MLOAD DUP2 AND PUSH1 0xE4 DUP5 ADD MSTORE SWAP1 SWAP2 PUSH32 0x0 SWAP1 SWAP2 AND SWAP1 PUSH4 0x414BF389 SWAP1 PUSH2 0x104 ADD PUSH1 0x20 PUSH1 0x40 MLOAD DUP1 DUP4 SUB DUP2 PUSH1 0x0 DUP8 GAS CALL ISZERO DUP1 ISZERO PUSH2 0x26B JUMPI RETURNDATASIZE PUSH1 0x0 DUP1 RETURNDATACOPY RETURNDATASIZE PUSH1 0x0 REVERT JUMPDEST POP POP POP POP PUSH1 0x40 MLOAD RETURNDATASIZE PUSH1 0x1F NOT PUSH1 0x1F DUP3 ADD AND DUP3 ADD DUP1 PUSH1 0x40 MSTORE POP DUP2 ADD SWAP1 PUSH2 0x28F SWAP2 SWAP1 PUSH2 0x372 JUMP JUMPDEST SWAP8 SWAP7 POP POP POP POP POP POP POP JUMP JUMPDEST DUP1 CALLDATALOAD PUSH1 0x1 PUSH1 0x1 PUSH1 0xA0 SHL SUB DUP2 AND DUP2 EQ PUSH2 0x2B1 JUMPI PUSH1 0x0 DUP1 REVERT JUMPDEST SWAP2 SWAP1 POP JUMP JUMPDEST PUSH1 0x0 DUP1 PUSH1 0x0 DUP1 PUSH1 0x0 PUSH1 0xA0 DUP7 DUP9 SUB SLT ISZERO PUSH2 0x2CE JUMPI PUSH1 0x0 DUP1 REVERT JUMPDEST DUP6 CALLDATALOAD PUSH3 0xFFFFFF DUP2 AND DUP2 EQ PUSH2 0x2E1 JUMPI PUSH1 0x0 DUP1 REVERT JUMPDEST SWAP5 POP PUSH1 0x20 DUP7 ADD CALLDATALOAD SWAP4 POP PUSH2 0x2F6 PUSH1 0x40 DUP8 ADD PUSH2 0x29A JUMP JUMPDEST SWAP3 POP PUSH2 0x304 PUSH1 0x60 DUP8 ADD PUSH2 0x29A JUMP JUMPDEST SWAP2 POP PUSH2 0x312 PUSH1 0x80 DUP8 ADD PUSH2 0x29A JUMP JUMPDEST SWAP1 POP SWAP3 SWAP6 POP SWAP3 SWAP6 SWAP1 SWAP4 POP JUMP JUMPDEST DUP1 DUP3 MUL DUP2 ISZERO DUP3 DUP3 DIV DUP5 EQ OR PUSH2 0x343 JUMPI PUSH4 0x4E487B71 PUSH1 0xE0 SHL PUSH1 0x0 MSTORE PUSH1 0x11 PUSH1 0x4 MSTORE PUSH1 0x24 PUSH1 0x0 REVERT JUMPDEST SWAP3 SWAP2 POP POP JUMP JUMPDEST PUSH1 0x0 PUSH1 0x20 DUP3 DUP5 SUB SLT ISZERO PUSH2 0x35B JUMPI PUSH1 0x0 DUP1 REVERT JUMPDEST DUP2 MLOAD DUP1 ISZERO ISZERO DUP2 EQ PUSH2 0x36B JUMPI PUSH1 0x0 DUP1 REVERT JUMPDEST SWAP4 SWAP3 POP POP POP JUMP JUMPDEST PUSH1 0x0 PUSH1 0x20 DUP3 DUP5 SUB SLT ISZERO PUSH2 0x384 JUMPI PUSH1 0x0 DUP1 REVERT JUMPDEST POP MLOAD SWAP2 SWAP1 POP JUMP INVALID LOG2 PUSH5 0x6970667358 0x22 SLT KECCAK256 RETURNDATASIZE 0xC1 0xD3 0xD9 0x2F 0x26 0xBC 0x4B PUSH24 0xBA1A8CE147EAC4E099783DD042B60B816D38C9035707FD64 PUSH20 0x6F6C634300081300330000000000000000000000 "
				},
				"gasEstimates": {
					"creation": {
						"codeDepositCost": "192200",
						"executionCost": "infinite",
						"totalCost": "infinite"
					},
					"external": {
						"routerAddress()": "183",
						"swapExactInputSingle(uint24,uint256,address,address,address)": "infinite",
						"swapRouter()": "infinite"
					}
				},
				"methodIdentifiers": {
					"routerAddress()": "3268cc56",
					"swapExactInputSingle(uint24,uint256,address,address,address)": "9b56d891",
					"swapRouter()": "c31c9c07"
				}
			},
			"storageLayout": {
				"storage": [],
				"types": null
			},
			"userdoc": {
				"kind": "user",
				"methods": {},
				"version": 1
			}
		}
	}
}