{
	"contracts/Fast/Contract_1.sol": {
		"Storage": {
			"abi": [
				{
					"inputs": [],
					"stateMutability": "nonpayable",
					"type": "constructor"
				},
				{
					"inputs": [
						{
							"internalType": "uint256",
							"name": "_token",
							"type": "uint256"
						},
						{
							"internalType": "address",
							"name": "_receiver",
							"type": "address"
						},
						{
							"internalType": "address",
							"name": "_to",
							"type": "address"
						},
						{
							"internalType": "uint256",
							"name": "_price",
							"type": "uint256"
						}
					],
					"name": "AcceptInvitation",
					"outputs": [],
					"stateMutability": "nonpayable",
					"type": "function"
				},
				{
					"inputs": [],
					"name": "AllTender",
					"outputs": [
						{
							"components": [
								{
									"internalType": "uint256",
									"name": "TokenId",
									"type": "uint256"
								},
								{
									"internalType": "string",
									"name": "name",
									"type": "string"
								},
								{
									"internalType": "uint256",
									"name": "quantity",
									"type": "uint256"
								},
								{
									"internalType": "uint256",
									"name": "budget",
									"type": "uint256"
								},
								{
									"internalType": "uint256",
									"name": "time",
									"type": "uint256"
								},
								{
									"internalType": "uint256",
									"name": "start",
									"type": "uint256"
								},
								{
									"internalType": "string",
									"name": "_address",
									"type": "string"
								},
								{
									"internalType": "string",
									"name": "description",
									"type": "string"
								},
								{
									"internalType": "address",
									"name": "owner",
									"type": "address"
								}
							],
							"internalType": "struct Storage.Tender[]",
							"name": "",
							"type": "tuple[]"
						}
					],
					"stateMutability": "view",
					"type": "function"
				},
				{
					"inputs": [
						{
							"internalType": "uint256",
							"name": "_token",
							"type": "uint256"
						}
					],
					"name": "AllVender",
					"outputs": [
						{
							"components": [
								{
									"internalType": "uint256",
									"name": "Token",
									"type": "uint256"
								},
								{
									"internalType": "uint256",
									"name": "Price",
									"type": "uint256"
								},
								{
									"internalType": "string",
									"name": "Description",
									"type": "string"
								},
								{
									"internalType": "address",
									"name": "owner",
									"type": "address"
								},
								{
									"internalType": "uint256",
									"name": "DeleveryTime",
									"type": "uint256"
								},
								{
									"internalType": "uint256",
									"name": "Delivered",
									"type": "uint256"
								},
								{
									"internalType": "string",
									"name": "rating",
									"type": "string"
								}
							],
							"internalType": "struct Storage.Vender[]",
							"name": "",
							"type": "tuple[]"
						}
					],
					"stateMutability": "view",
					"type": "function"
				},
				{
					"inputs": [
						{
							"internalType": "address",
							"name": "",
							"type": "address"
						},
						{
							"internalType": "uint256",
							"name": "",
							"type": "uint256"
						}
					],
					"name": "Ch",
					"outputs": [
						{
							"internalType": "bool",
							"name": "",
							"type": "bool"
						}
					],
					"stateMutability": "view",
					"type": "function"
				},
				{
					"inputs": [
						{
							"internalType": "uint256",
							"name": "_token",
							"type": "uint256"
						}
					],
					"name": "CheckTime",
					"outputs": [
						{
							"internalType": "bool",
							"name": "",
							"type": "bool"
						}
					],
					"stateMutability": "view",
					"type": "function"
				},
				{
					"inputs": [
						{
							"internalType": "uint256",
							"name": "",
							"type": "uint256"
						},
						{
							"internalType": "address",
							"name": "",
							"type": "address"
						}
					],
					"name": "Communication",
					"outputs": [
						{
							"internalType": "address",
							"name": "receiver",
							"type": "address"
						},
						{
							"internalType": "uint256",
							"name": "price",
							"type": "uint256"
						},
						{
							"internalType": "bool",
							"name": "done",
							"type": "bool"
						}
					],
					"stateMutability": "view",
					"type": "function"
				},
				{
					"inputs": [],
					"name": "Contract",
					"outputs": [
						{
							"internalType": "address",
							"name": "",
							"type": "address"
						}
					],
					"stateMutability": "view",
					"type": "function"
				},
				{
					"inputs": [
						{
							"internalType": "address",
							"name": "",
							"type": "address"
						}
					],
					"name": "DaysDetails",
					"outputs": [
						{
							"internalType": "uint256",
							"name": "Delivered",
							"type": "uint256"
						},
						{
							"internalType": "uint256",
							"name": "Total",
							"type": "uint256"
						},
						{
							"internalType": "uint256",
							"name": "tender",
							"type": "uint256"
						}
					],
					"stateMutability": "view",
					"type": "function"
				},
				{
					"inputs": [
						{
							"internalType": "uint256",
							"name": "_token",
							"type": "uint256"
						}
					],
					"name": "DeleteVRequest",
					"outputs": [],
					"stateMutability": "nonpayable",
					"type": "function"
				},
				{
					"inputs": [
						{
							"internalType": "address",
							"name": "_to",
							"type": "address"
						},
						{
							"internalType": "address",
							"name": "from",
							"type": "address"
						},
						{
							"internalType": "uint256",
							"name": "tokenId",
							"type": "uint256"
						}
					],
					"name": "Done",
					"outputs": [],
					"stateMutability": "payable",
					"type": "function"
				},
				{
					"inputs": [
						{
							"internalType": "uint256",
							"name": "",
							"type": "uint256"
						},
						{
							"internalType": "address",
							"name": "",
							"type": "address"
						}
					],
					"name": "Finder",
					"outputs": [
						{
							"internalType": "uint256",
							"name": "",
							"type": "uint256"
						}
					],
					"stateMutability": "view",
					"type": "function"
				},
				{
					"inputs": [
						{
							"internalType": "address",
							"name": "",
							"type": "address"
						},
						{
							"internalType": "uint256",
							"name": "",
							"type": "uint256"
						},
						{
							"internalType": "address",
							"name": "",
							"type": "address"
						}
					],
					"name": "Invite",
					"outputs": [
						{
							"internalType": "bool",
							"name": "",
							"type": "bool"
						}
					],
					"stateMutability": "view",
					"type": "function"
				},
				{
					"inputs": [
						{
							"internalType": "address",
							"name": "",
							"type": "address"
						},
						{
							"internalType": "uint256",
							"name": "",
							"type": "uint256"
						}
					],
					"name": "Pending",
					"outputs": [
						{
							"internalType": "bool",
							"name": "",
							"type": "bool"
						}
					],
					"stateMutability": "view",
					"type": "function"
				},
				{
					"inputs": [
						{
							"internalType": "address",
							"name": "_to",
							"type": "address"
						}
					],
					"name": "RatAge",
					"outputs": [
						{
							"internalType": "string",
							"name": "result",
							"type": "string"
						}
					],
					"stateMutability": "view",
					"type": "function"
				},
				{
					"inputs": [
						{
							"internalType": "address",
							"name": "",
							"type": "address"
						},
						{
							"internalType": "uint256",
							"name": "",
							"type": "uint256"
						}
					],
					"name": "RattingDetails",
					"outputs": [
						{
							"internalType": "uint256",
							"name": "",
							"type": "uint256"
						}
					],
					"stateMutability": "view",
					"type": "function"
				},
				{
					"inputs": [
						{
							"internalType": "address",
							"name": "",
							"type": "address"
						}
					],
					"name": "Requests",
					"outputs": [
						{
							"internalType": "uint256",
							"name": "",
							"type": "uint256"
						}
					],
					"stateMutability": "view",
					"type": "function"
				},
				{
					"inputs": [
						{
							"internalType": "address",
							"name": "_address",
							"type": "address"
						}
					],
					"name": "SignIn",
					"outputs": [],
					"stateMutability": "nonpayable",
					"type": "function"
				},
				{
					"inputs": [
						{
							"internalType": "address",
							"name": "_address",
							"type": "address"
						}
					],
					"name": "SignOut",
					"outputs": [],
					"stateMutability": "nonpayable",
					"type": "function"
				},
				{
					"inputs": [
						{
							"internalType": "string",
							"name": "name",
							"type": "string"
						},
						{
							"internalType": "string",
							"name": "email",
							"type": "string"
						},
						{
							"internalType": "address",
							"name": "_address",
							"type": "address"
						}
					],
					"name": "SignUp",
					"outputs": [],
					"stateMutability": "nonpayable",
					"type": "function"
				},
				{
					"inputs": [
						{
							"internalType": "address",
							"name": "",
							"type": "address"
						}
					],
					"name": "Signer",
					"outputs": [
						{
							"internalType": "string",
							"name": "name",
							"type": "string"
						},
						{
							"internalType": "string",
							"name": "email",
							"type": "string"
						},
						{
							"internalType": "address",
							"name": "_address",
							"type": "address"
						},
						{
							"internalType": "bool",
							"name": "Up",
							"type": "bool"
						},
						{
							"internalType": "bool",
							"name": "InOut",
							"type": "bool"
						}
					],
					"stateMutability": "view",
					"type": "function"
				},
				{
					"inputs": [
						{
							"internalType": "address",
							"name": "",
							"type": "address"
						}
					],
					"name": "Size",
					"outputs": [
						{
							"internalType": "uint256",
							"name": "",
							"type": "uint256"
						}
					],
					"stateMutability": "view",
					"type": "function"
				},
				{
					"inputs": [
						{
							"internalType": "uint256",
							"name": "",
							"type": "uint256"
						}
					],
					"name": "SizeVender",
					"outputs": [
						{
							"internalType": "uint256",
							"name": "",
							"type": "uint256"
						}
					],
					"stateMutability": "view",
					"type": "function"
				},
				{
					"inputs": [
						{
							"internalType": "uint256",
							"name": "",
							"type": "uint256"
						}
					],
					"name": "Total",
					"outputs": [
						{
							"internalType": "uint256",
							"name": "TokenId",
							"type": "uint256"
						},
						{
							"internalType": "string",
							"name": "name",
							"type": "string"
						},
						{
							"internalType": "uint256",
							"name": "quantity",
							"type": "uint256"
						},
						{
							"internalType": "uint256",
							"name": "budget",
							"type": "uint256"
						},
						{
							"internalType": "uint256",
							"name": "time",
							"type": "uint256"
						},
						{
							"internalType": "uint256",
							"name": "start",
							"type": "uint256"
						},
						{
							"internalType": "string",
							"name": "_address",
							"type": "string"
						},
						{
							"internalType": "string",
							"name": "description",
							"type": "string"
						},
						{
							"internalType": "address",
							"name": "owner",
							"type": "address"
						}
					],
					"stateMutability": "view",
					"type": "function"
				},
				{
					"inputs": [],
					"name": "TotalTender",
					"outputs": [
						{
							"internalType": "uint256",
							"name": "_value",
							"type": "uint256"
						}
					],
					"stateMutability": "view",
					"type": "function"
				},
				{
					"inputs": [],
					"name": "TotalVender",
					"outputs": [
						{
							"internalType": "uint256",
							"name": "_value",
							"type": "uint256"
						}
					],
					"stateMutability": "view",
					"type": "function"
				},
				{
					"inputs": [
						{
							"internalType": "uint256",
							"name": "",
							"type": "uint256"
						},
						{
							"internalType": "uint256",
							"name": "",
							"type": "uint256"
						}
					],
					"name": "Venders",
					"outputs": [
						{
							"internalType": "uint256",
							"name": "Token",
							"type": "uint256"
						},
						{
							"internalType": "uint256",
							"name": "Price",
							"type": "uint256"
						},
						{
							"internalType": "string",
							"name": "Description",
							"type": "string"
						},
						{
							"internalType": "address",
							"name": "owner",
							"type": "address"
						},
						{
							"internalType": "uint256",
							"name": "DeleveryTime",
							"type": "uint256"
						},
						{
							"internalType": "uint256",
							"name": "Delivered",
							"type": "uint256"
						},
						{
							"internalType": "string",
							"name": "rating",
							"type": "string"
						}
					],
					"stateMutability": "view",
					"type": "function"
				},
				{
					"inputs": [
						{
							"internalType": "address",
							"name": "",
							"type": "address"
						}
					],
					"name": "accceptedReq",
					"outputs": [
						{
							"internalType": "uint256",
							"name": "",
							"type": "uint256"
						}
					],
					"stateMutability": "view",
					"type": "function"
				},
				{
					"inputs": [
						{
							"internalType": "address",
							"name": "_to",
							"type": "address"
						}
					],
					"name": "getTender",
					"outputs": [
						{
							"components": [
								{
									"internalType": "uint256",
									"name": "TokenId",
									"type": "uint256"
								},
								{
									"internalType": "string",
									"name": "name",
									"type": "string"
								},
								{
									"internalType": "uint256",
									"name": "quantity",
									"type": "uint256"
								},
								{
									"internalType": "uint256",
									"name": "budget",
									"type": "uint256"
								},
								{
									"internalType": "uint256",
									"name": "time",
									"type": "uint256"
								},
								{
									"internalType": "uint256",
									"name": "start",
									"type": "uint256"
								},
								{
									"internalType": "string",
									"name": "_address",
									"type": "string"
								},
								{
									"internalType": "string",
									"name": "description",
									"type": "string"
								},
								{
									"internalType": "address",
									"name": "owner",
									"type": "address"
								}
							],
							"internalType": "struct Storage.Tender[]",
							"name": "",
							"type": "tuple[]"
						}
					],
					"stateMutability": "view",
					"type": "function"
				},
				{
					"inputs": [
						{
							"internalType": "address",
							"name": "_address",
							"type": "address"
						}
					],
					"name": "getVender",
					"outputs": [
						{
							"components": [
								{
									"internalType": "uint256",
									"name": "Token",
									"type": "uint256"
								},
								{
									"internalType": "uint256",
									"name": "Price",
									"type": "uint256"
								},
								{
									"internalType": "string",
									"name": "Description",
									"type": "string"
								},
								{
									"internalType": "address",
									"name": "owner",
									"type": "address"
								},
								{
									"internalType": "uint256",
									"name": "DeleveryTime",
									"type": "uint256"
								},
								{
									"internalType": "uint256",
									"name": "Delivered",
									"type": "uint256"
								},
								{
									"internalType": "string",
									"name": "rating",
									"type": "string"
								}
							],
							"internalType": "struct Storage.Vender[]",
							"name": "",
							"type": "tuple[]"
						}
					],
					"stateMutability": "view",
					"type": "function"
				},
				{
					"inputs": [
						{
							"internalType": "string",
							"name": "_name",
							"type": "string"
						},
						{
							"internalType": "uint256",
							"name": "_quantity",
							"type": "uint256"
						},
						{
							"internalType": "uint256",
							"name": "_budget",
							"type": "uint256"
						},
						{
							"internalType": "uint256",
							"name": "_time",
							"type": "uint256"
						},
						{
							"internalType": "string",
							"name": "Address",
							"type": "string"
						},
						{
							"internalType": "string",
							"name": "_description",
							"type": "string"
						}
					],
					"name": "tender",
					"outputs": [],
					"stateMutability": "nonpayable",
					"type": "function"
				},
				{
					"inputs": [
						{
							"internalType": "uint256",
							"name": "_token",
							"type": "uint256"
						},
						{
							"internalType": "uint256",
							"name": "_price",
							"type": "uint256"
						},
						{
							"internalType": "string",
							"name": "_description",
							"type": "string"
						},
						{
							"internalType": "uint256",
							"name": "_delevered",
							"type": "uint256"
						}
					],
					"name": "vender",
					"outputs": [],
					"stateMutability": "nonpayable",
					"type": "function"
				}
			],
			"devdoc": {
				"custom:dev-run-script": "./scripts/deploy_with_ethers.ts",
				"details": "Store & retrieve value in a variable",
				"kind": "dev",
				"methods": {},
				"title": "Storage",
				"version": 1
			},
			"evm": {
				"assembly": "    /* \"contracts/Fast/Contract_1.sol\":305:8099  contract Storage {... */\n  mstore(0x40, 0x80)\n    /* \"contracts/Fast/Contract_1.sol\":2206:2261  constructor() {... */\n  callvalue\n  dup1\n  iszero\n  tag_1\n  jumpi\n  0x00\n  dup1\n  revert\ntag_1:\n  pop\n    /* \"contracts/Fast/Contract_1.sol\":2249:2253  this */\n  address\n    /* \"contracts/Fast/Contract_1.sol\":2230:2238  Contract */\n  0x02\n  0x00\n    /* \"contracts/Fast/Contract_1.sol\":2230:2254  Contract = address(this) */\n  0x0100\n  exp\n  dup2\n  sload\n  dup2\n  0xffffffffffffffffffffffffffffffffffffffff\n  mul\n  not\n  and\n  swap1\n  dup4\n  0xffffffffffffffffffffffffffffffffffffffff\n  and\n  mul\n  or\n  swap1\n  sstore\n  pop\n    /* \"contracts/Fast/Contract_1.sol\":305:8099  contract Storage {... */\n  dataSize(sub_0)\n  dup1\n  dataOffset(sub_0)\n  0x00\n  codecopy\n  0x00\n  return\nstop\n\nsub_0: assembly {\n        /* \"contracts/Fast/Contract_1.sol\":305:8099  contract Storage {... */\n      mstore(0x40, 0x80)\n      jumpi(tag_1, lt(calldatasize, 0x04))\n      shr(0xe0, calldataload(0x00))\n      dup1\n      0x64a2864d\n      gt\n      tag_33\n      jumpi\n      dup1\n      0xbc16aad7\n      gt\n      tag_34\n      jumpi\n      dup1\n      0xd7add75f\n      gt\n      tag_35\n      jumpi\n      dup1\n      0xd7add75f\n      eq\n      tag_29\n      jumpi\n      dup1\n      0xef383f49\n      eq\n      tag_30\n      jumpi\n      dup1\n      0xf4b0650d\n      eq\n      tag_31\n      jumpi\n      dup1\n      0xffd64f8a\n      eq\n      tag_32\n      jumpi\n      jump(tag_1)\n    tag_35:\n      dup1\n      0xbc16aad7\n      eq\n      tag_25\n      jumpi\n      dup1\n      0xd0c343d6\n      eq\n      tag_26\n      jumpi\n      dup1\n      0xd0c3e909\n      eq\n      tag_27\n      jumpi\n      dup1\n      0xd60f5a38\n      eq\n      tag_28\n      jumpi\n      jump(tag_1)\n    tag_34:\n      dup1\n      0x9fff963e\n      gt\n      tag_36\n      jumpi\n      dup1\n      0x9fff963e\n      eq\n      tag_21\n      jumpi\n      dup1\n      0xa06c5e3d\n      eq\n      tag_22\n      jumpi\n      dup1\n      0xa56d6544\n      eq\n      tag_23\n      jumpi\n      dup1\n      0xb19781fe\n      eq\n      tag_24\n      jumpi\n      jump(tag_1)\n    tag_36:\n      dup1\n      0x64a2864d\n      eq\n      tag_17\n      jumpi\n      dup1\n      0x75772c47\n      eq\n      tag_18\n      jumpi\n      dup1\n      0x7cb060f4\n      eq\n      tag_19\n      jumpi\n      dup1\n      0x86e9ff0a\n      eq\n      tag_20\n      jumpi\n      jump(tag_1)\n    tag_33:\n      dup1\n      0x2302ec7e\n      gt\n      tag_37\n      jumpi\n      dup1\n      0x4fcb4a58\n      gt\n      tag_38\n      jumpi\n      dup1\n      0x4fcb4a58\n      eq\n      tag_13\n      jumpi\n      dup1\n      0x52943ff5\n      eq\n      tag_14\n      jumpi\n      dup1\n      0x59b86a21\n      eq\n      tag_15\n      jumpi\n      dup1\n      0x5af77fff\n      eq\n      tag_16\n      jumpi\n      jump(tag_1)\n    tag_38:\n      dup1\n      0x2302ec7e\n      eq\n      tag_9\n      jumpi\n      dup1\n      0x25af0316\n      eq\n      tag_10\n      jumpi\n      dup1\n      0x30182235\n      eq\n      tag_11\n      jumpi\n      dup1\n      0x40f12058\n      eq\n      tag_12\n      jumpi\n      jump(tag_1)\n    tag_37:\n      dup1\n      0x168d5d34\n      gt\n      tag_39\n      jumpi\n      dup1\n      0x168d5d34\n      eq\n      tag_5\n      jumpi\n      dup1\n      0x1a4b3311\n      eq\n      tag_6\n      jumpi\n      dup1\n      0x1a779488\n      eq\n      tag_7\n      jumpi\n      dup1\n      0x1d410da6\n      eq\n      tag_8\n      jumpi\n      jump(tag_1)\n    tag_39:\n      dup1\n      0x0b9a7782\n      eq\n      tag_2\n      jumpi\n      dup1\n      0x0c4a3338\n      eq\n      tag_3\n      jumpi\n      dup1\n      0x11452a7b\n      eq\n      tag_4\n      jumpi\n    tag_1:\n      0x00\n      dup1\n      revert\n        /* \"contracts/Fast/Contract_1.sol\":1762:1805  mapping(address => Days) public DaysDetails */\n    tag_2:\n      callvalue\n      dup1\n      iszero\n      tag_40\n      jumpi\n      0x00\n      dup1\n      revert\n    tag_40:\n      pop\n      tag_41\n      0x04\n      dup1\n      calldatasize\n      sub\n      dup2\n      add\n      swap1\n      tag_42\n      swap2\n      swap1\n      tag_43\n      jump\t// in\n    tag_42:\n      tag_44\n      jump\t// in\n    tag_41:\n      mload(0x40)\n      tag_45\n      swap4\n      swap3\n      swap2\n      swap1\n      tag_46\n      jump\t// in\n    tag_45:\n      mload(0x40)\n      dup1\n      swap2\n      sub\n      swap1\n      return\n        /* \"contracts/Fast/Contract_1.sol\":3948:4148  function CheckTime(uint256 _token) public view returns (bool) {... */\n    tag_3:\n      callvalue\n      dup1\n      iszero\n      tag_47\n      jumpi\n      0x00\n      dup1\n      revert\n    tag_47:\n      pop\n      tag_48\n      0x04\n      dup1\n      calldatasize\n      sub\n      dup2\n      add\n      swap1\n      tag_49\n      swap2\n      swap1\n      tag_50\n      jump\t// in\n    tag_49:\n      tag_51\n      jump\t// in\n    tag_48:\n      mload(0x40)\n      tag_52\n      swap2\n      swap1\n      tag_53\n      jump\t// in\n    tag_52:\n      mload(0x40)\n      dup1\n      swap2\n      sub\n      swap1\n      return\n        /* \"contracts/Fast/Contract_1.sol\":2640:2799  function SignOut(address _address) public{... */\n    tag_4:\n      callvalue\n      dup1\n      iszero\n      tag_54\n      jumpi\n      0x00\n      dup1\n      revert\n    tag_54:\n      pop\n      tag_55\n      0x04\n      dup1\n      calldatasize\n      sub\n      dup2\n      add\n      swap1\n      tag_56\n      swap2\n      swap1\n      tag_43\n      jump\t// in\n    tag_56:\n      tag_57\n      jump\t// in\n    tag_55:\n      stop\n        /* \"contracts/Fast/Contract_1.sol\":1586:1647  mapping(uint256 => mapping(uint256 => Vender)) public Venders */\n    tag_5:\n      callvalue\n      dup1\n      iszero\n      tag_58\n      jumpi\n      0x00\n      dup1\n      revert\n    tag_58:\n      pop\n      tag_59\n      0x04\n      dup1\n      calldatasize\n      sub\n      dup2\n      add\n      swap1\n      tag_60\n      swap2\n      swap1\n      tag_61\n      jump\t// in\n    tag_60:\n      tag_62\n      jump\t// in\n    tag_59:\n      mload(0x40)\n      tag_63\n      swap8\n      swap7\n      swap6\n      swap5\n      swap4\n      swap3\n      swap2\n      swap1\n      tag_64\n      jump\t// in\n    tag_63:\n      mload(0x40)\n      dup1\n      swap2\n      sub\n      swap1\n      return\n        /* \"contracts/Fast/Contract_1.sol\":1713:1756  mapping(address => uint256) public Requests */\n    tag_6:\n      callvalue\n      dup1\n      iszero\n      tag_65\n      jumpi\n      0x00\n      dup1\n      revert\n    tag_65:\n      pop\n      tag_66\n      0x04\n      dup1\n      calldatasize\n      sub\n      dup2\n      add\n      swap1\n      tag_67\n      swap2\n      swap1\n      tag_43\n      jump\t// in\n    tag_67:\n      tag_68\n      jump\t// in\n    tag_66:\n      mload(0x40)\n      tag_69\n      swap2\n      swap1\n      tag_70\n      jump\t// in\n    tag_69:\n      mload(0x40)\n      dup1\n      swap2\n      sub\n      swap1\n      return\n        /* \"contracts/Fast/Contract_1.sol\":2805:3190  function tender(string memory _name,uint256 _quantity,uint256 _budget,uint256 _time,string memory Address,string memory _description) public {... */\n    tag_7:\n      callvalue\n      dup1\n      iszero\n      tag_71\n      jumpi\n      0x00\n      dup1\n      revert\n    tag_71:\n      pop\n      tag_72\n      0x04\n      dup1\n      calldatasize\n      sub\n      dup2\n      add\n      swap1\n      tag_73\n      swap2\n      swap1\n      tag_74\n      jump\t// in\n    tag_73:\n      tag_75\n      jump\t// in\n    tag_72:\n      stop\n        /* \"contracts/Fast/Contract_1.sol\":2267:2418  function SignUp(string memory name,string memory email,address _address) public{... */\n    tag_8:\n      callvalue\n      dup1\n      iszero\n      tag_76\n      jumpi\n      0x00\n      dup1\n      revert\n    tag_76:\n      pop\n      tag_77\n      0x04\n      dup1\n      calldatasize\n      sub\n      dup2\n      add\n      swap1\n      tag_78\n      swap2\n      swap1\n      tag_79\n      jump\t// in\n    tag_78:\n      tag_80\n      jump\t// in\n    tag_77:\n      stop\n        /* \"contracts/Fast/Contract_1.sol\":5787:6107  function DeleteVRequest(uint256 _token) public {... */\n    tag_9:\n      callvalue\n      dup1\n      iszero\n      tag_81\n      jumpi\n      0x00\n      dup1\n      revert\n    tag_81:\n      pop\n      tag_82\n      0x04\n      dup1\n      calldatasize\n      sub\n      dup2\n      add\n      swap1\n      tag_83\n      swap2\n      swap1\n      tag_50\n      jump\t// in\n    tag_83:\n      tag_84\n      jump\t// in\n    tag_82:\n      stop\n        /* \"contracts/Fast/Contract_1.sol\":410:445  Counters.Counter public TotalVender */\n    tag_10:\n      callvalue\n      dup1\n      iszero\n      tag_85\n      jumpi\n      0x00\n      dup1\n      revert\n    tag_85:\n      pop\n      tag_86\n      tag_87\n      jump\t// in\n    tag_86:\n      mload(0x40)\n      tag_88\n      swap2\n      swap1\n      tag_70\n      jump\t// in\n    tag_88:\n      mload(0x40)\n      dup1\n      swap2\n      sub\n      swap1\n      return\n        /* \"contracts/Fast/Contract_1.sol\":1878:1943  mapping(uint256 => mapping(address => Comm)) public Communication */\n    tag_11:\n      callvalue\n      dup1\n      iszero\n      tag_89\n      jumpi\n      0x00\n      dup1\n      revert\n    tag_89:\n      pop\n      tag_90\n      0x04\n      dup1\n      calldatasize\n      sub\n      dup2\n      add\n      swap1\n      tag_91\n      swap2\n      swap1\n      tag_92\n      jump\t// in\n    tag_91:\n      tag_93\n      jump\t// in\n    tag_90:\n      mload(0x40)\n      tag_94\n      swap4\n      swap3\n      swap2\n      swap1\n      tag_95\n      jump\t// in\n    tag_94:\n      mload(0x40)\n      dup1\n      swap2\n      sub\n      swap1\n      return\n        /* \"contracts/Fast/Contract_1.sol\":1653:1707  mapping(address => mapping(uint256 => bool)) public Ch */\n    tag_12:\n      callvalue\n      dup1\n      iszero\n      tag_96\n      jumpi\n      0x00\n      dup1\n      revert\n    tag_96:\n      pop\n      tag_97\n      0x04\n      dup1\n      calldatasize\n      sub\n      dup2\n      add\n      swap1\n      tag_98\n      swap2\n      swap1\n      tag_99\n      jump\t// in\n    tag_98:\n      tag_100\n      jump\t// in\n    tag_97:\n      mload(0x40)\n      tag_101\n      swap2\n      swap1\n      tag_53\n      jump\t// in\n    tag_101:\n      mload(0x40)\n      dup1\n      swap2\n      sub\n      swap1\n      return\n        /* \"contracts/Fast/Contract_1.sol\":4154:4806  function vender(uint256 _token,uint256 _price,string memory _description,uint256 _delevered) public {... */\n    tag_13:\n      callvalue\n      dup1\n      iszero\n      tag_102\n      jumpi\n      0x00\n      dup1\n      revert\n    tag_102:\n      pop\n      tag_103\n      0x04\n      dup1\n      calldatasize\n      sub\n      dup2\n      add\n      swap1\n      tag_104\n      swap2\n      swap1\n      tag_105\n      jump\t// in\n    tag_104:\n      tag_106\n      jump\t// in\n    tag_103:\n      stop\n        /* \"contracts/Fast/Contract_1.sol\":1541:1580  mapping(uint256 => Tender) public Total */\n    tag_14:\n      callvalue\n      dup1\n      iszero\n      tag_107\n      jumpi\n      0x00\n      dup1\n      revert\n    tag_107:\n      pop\n      tag_108\n      0x04\n      dup1\n      calldatasize\n      sub\n      dup2\n      add\n      swap1\n      tag_109\n      swap2\n      swap1\n      tag_50\n      jump\t// in\n    tag_109:\n      tag_110\n      jump\t// in\n    tag_108:\n      mload(0x40)\n      tag_111\n      swap10\n      swap9\n      swap8\n      swap7\n      swap6\n      swap5\n      swap4\n      swap3\n      swap2\n      swap1\n      tag_112\n      jump\t// in\n    tag_111:\n      mload(0x40)\n      dup1\n      swap2\n      sub\n      swap1\n      return\n        /* \"contracts/Fast/Contract_1.sol\":7206:8097  function RatAge(address _to) public view returns (string memory result) {... */\n    tag_15:\n      callvalue\n      dup1\n      iszero\n      tag_113\n      jumpi\n      0x00\n      dup1\n      revert\n    tag_113:\n      pop\n      tag_114\n      0x04\n      dup1\n      calldatasize\n      sub\n      dup2\n      add\n      swap1\n      tag_115\n      swap2\n      swap1\n      tag_43\n      jump\t// in\n    tag_115:\n      tag_116\n      jump\t// in\n    tag_114:\n      mload(0x40)\n      tag_117\n      swap2\n      swap1\n      tag_118\n      jump\t// in\n    tag_117:\n      mload(0x40)\n      dup1\n      swap2\n      sub\n      swap1\n      return\n        /* \"contracts/Fast/Contract_1.sol\":482:505  address public Contract */\n    tag_16:\n      callvalue\n      dup1\n      iszero\n      tag_119\n      jumpi\n      0x00\n      dup1\n      revert\n    tag_119:\n      pop\n      tag_120\n      tag_121\n      jump\t// in\n    tag_120:\n      mload(0x40)\n      tag_122\n      swap2\n      swap1\n      tag_123\n      jump\t// in\n    tag_122:\n      mload(0x40)\n      dup1\n      swap2\n      sub\n      swap1\n      return\n        /* \"contracts/Fast/Contract_1.sol\":2108:2155  mapping(address => uint256) public accceptedReq */\n    tag_17:\n      callvalue\n      dup1\n      iszero\n      tag_124\n      jumpi\n      0x00\n      dup1\n      revert\n    tag_124:\n      pop\n      tag_125\n      0x04\n      dup1\n      calldatasize\n      sub\n      dup2\n      add\n      swap1\n      tag_126\n      swap2\n      swap1\n      tag_43\n      jump\t// in\n    tag_126:\n      tag_127\n      jump\t// in\n    tag_125:\n      mload(0x40)\n      tag_128\n      swap2\n      swap1\n      tag_70\n      jump\t// in\n    tag_128:\n      mload(0x40)\n      dup1\n      swap2\n      sub\n      swap1\n      return\n        /* \"contracts/Fast/Contract_1.sol\":1425:1484  mapping(address => mapping(uint256 => bool)) public Pending */\n    tag_18:\n      callvalue\n      dup1\n      iszero\n      tag_129\n      jumpi\n      0x00\n      dup1\n      revert\n    tag_129:\n      pop\n      tag_130\n      0x04\n      dup1\n      calldatasize\n      sub\n      dup2\n      add\n      swap1\n      tag_131\n      swap2\n      swap1\n      tag_99\n      jump\t// in\n    tag_131:\n      tag_132\n      jump\t// in\n    tag_130:\n      mload(0x40)\n      tag_133\n      swap2\n      swap1\n      tag_53\n      jump\t// in\n    tag_133:\n      mload(0x40)\n      dup1\n      swap2\n      sub\n      swap1\n      return\n        /* \"contracts/Fast/Contract_1.sol\":2033:2102  mapping(address => mapping(uint256 => uint256)) public RattingDetails */\n    tag_19:\n      callvalue\n      dup1\n      iszero\n      tag_134\n      jumpi\n      0x00\n      dup1\n      revert\n    tag_134:\n      pop\n      tag_135\n      0x04\n      dup1\n      calldatasize\n      sub\n      dup2\n      add\n      swap1\n      tag_136\n      swap2\n      swap1\n      tag_99\n      jump\t// in\n    tag_136:\n      tag_137\n      jump\t// in\n    tag_135:\n      mload(0x40)\n      tag_138\n      swap2\n      swap1\n      tag_70\n      jump\t// in\n    tag_138:\n      mload(0x40)\n      dup1\n      swap2\n      sub\n      swap1\n      return\n        /* \"contracts/Fast/Contract_1.sol\":4812:5248  function AllVender(uint256 _token) public view returns (Vender[] memory) {... */\n    tag_20:\n      callvalue\n      dup1\n      iszero\n      tag_139\n      jumpi\n      0x00\n      dup1\n      revert\n    tag_139:\n      pop\n      tag_140\n      0x04\n      dup1\n      calldatasize\n      sub\n      dup2\n      add\n      swap1\n      tag_141\n      swap2\n      swap1\n      tag_50\n      jump\t// in\n    tag_141:\n      tag_142\n      jump\t// in\n    tag_140:\n      mload(0x40)\n      tag_143\n      swap2\n      swap1\n      tag_144\n      jump\t// in\n    tag_143:\n      mload(0x40)\n      dup1\n      swap2\n      sub\n      swap1\n      return\n        /* \"contracts/Fast/Contract_1.sol\":1811:1872  mapping(uint256 => mapping(address => uint256)) public Finder */\n    tag_21:\n      callvalue\n      dup1\n      iszero\n      tag_145\n      jumpi\n      0x00\n      dup1\n      revert\n    tag_145:\n      pop\n      tag_146\n      0x04\n      dup1\n      calldatasize\n      sub\n      dup2\n      add\n      swap1\n      tag_147\n      swap2\n      swap1\n      tag_92\n      jump\t// in\n    tag_147:\n      tag_148\n      jump\t// in\n    tag_146:\n      mload(0x40)\n      tag_149\n      swap2\n      swap1\n      tag_70\n      jump\t// in\n    tag_149:\n      mload(0x40)\n      dup1\n      swap2\n      sub\n      swap1\n      return\n        /* \"contracts/Fast/Contract_1.sol\":6113:6567  function AcceptInvitation(uint256 _token,address _receiver,address _to,uint256 _price) public {... */\n    tag_22:\n      callvalue\n      dup1\n      iszero\n      tag_150\n      jumpi\n      0x00\n      dup1\n      revert\n    tag_150:\n      pop\n      tag_151\n      0x04\n      dup1\n      calldatasize\n      sub\n      dup2\n      add\n      swap1\n      tag_152\n      swap2\n      swap1\n      tag_153\n      jump\t// in\n    tag_152:\n      tag_154\n      jump\t// in\n    tag_151:\n      stop\n        /* \"contracts/Fast/Contract_1.sol\":1949:2027  mapping(address => mapping(uint256 => mapping(address => bool))) public Invite */\n    tag_23:\n      callvalue\n      dup1\n      iszero\n      tag_155\n      jumpi\n      0x00\n      dup1\n      revert\n    tag_155:\n      pop\n      tag_156\n      0x04\n      dup1\n      calldatasize\n      sub\n      dup2\n      add\n      swap1\n      tag_157\n      swap2\n      swap1\n      tag_158\n      jump\t// in\n    tag_157:\n      tag_159\n      jump\t// in\n    tag_156:\n      mload(0x40)\n      tag_160\n      swap2\n      swap1\n      tag_53\n      jump\t// in\n    tag_160:\n      mload(0x40)\n      dup1\n      swap2\n      sub\n      swap1\n      return\n        /* \"contracts/Fast/Contract_1.sol\":1380:1419  mapping(address => uint256) public Size */\n    tag_24:\n      callvalue\n      dup1\n      iszero\n      tag_161\n      jumpi\n      0x00\n      dup1\n      revert\n    tag_161:\n      pop\n      tag_162\n      0x04\n      dup1\n      calldatasize\n      sub\n      dup2\n      add\n      swap1\n      tag_163\n      swap2\n      swap1\n      tag_43\n      jump\t// in\n    tag_163:\n      tag_164\n      jump\t// in\n    tag_162:\n      mload(0x40)\n      tag_165\n      swap2\n      swap1\n      tag_70\n      jump\t// in\n    tag_165:\n      mload(0x40)\n      dup1\n      swap2\n      sub\n      swap1\n      return\n        /* \"contracts/Fast/Contract_1.sol\":3603:3942  function AllTender() public view returns (Tender[] memory) {... */\n    tag_25:\n      callvalue\n      dup1\n      iszero\n      tag_166\n      jumpi\n      0x00\n      dup1\n      revert\n    tag_166:\n      pop\n      tag_167\n      tag_168\n      jump\t// in\n    tag_167:\n      mload(0x40)\n      tag_169\n      swap2\n      swap1\n      tag_170\n      jump\t// in\n    tag_169:\n      mload(0x40)\n      dup1\n      swap2\n      sub\n      swap1\n      return\n        /* \"contracts/Fast/Contract_1.sol\":5254:5781  function getVender(address _address) public view returns (Vender[] memory) {... */\n    tag_26:\n      callvalue\n      dup1\n      iszero\n      tag_171\n      jumpi\n      0x00\n      dup1\n      revert\n    tag_171:\n      pop\n      tag_172\n      0x04\n      dup1\n      calldatasize\n      sub\n      dup2\n      add\n      swap1\n      tag_173\n      swap2\n      swap1\n      tag_43\n      jump\t// in\n    tag_173:\n      tag_174\n      jump\t// in\n    tag_172:\n      mload(0x40)\n      tag_175\n      swap2\n      swap1\n      tag_144\n      jump\t// in\n    tag_175:\n      mload(0x40)\n      dup1\n      swap2\n      sub\n      swap1\n      return\n        /* \"contracts/Fast/Contract_1.sol\":3196:3597  function getTender(address _to) public view returns (Tender[] memory) {... */\n    tag_27:\n      callvalue\n      dup1\n      iszero\n      tag_176\n      jumpi\n      0x00\n      dup1\n      revert\n    tag_176:\n      pop\n      tag_177\n      0x04\n      dup1\n      calldatasize\n      sub\n      dup2\n      add\n      swap1\n      tag_178\n      swap2\n      swap1\n      tag_43\n      jump\t// in\n    tag_178:\n      tag_179\n      jump\t// in\n    tag_177:\n      mload(0x40)\n      tag_180\n      swap2\n      swap1\n      tag_170\n      jump\t// in\n    tag_180:\n      mload(0x40)\n      dup1\n      swap2\n      sub\n      swap1\n      return\n        /* \"contracts/Fast/Contract_1.sol\":6573:7200  function Done(address _to, address from, uint256 tokenId) public payable {... */\n    tag_28:\n      tag_181\n      0x04\n      dup1\n      calldatasize\n      sub\n      dup2\n      add\n      swap1\n      tag_182\n      swap2\n      swap1\n      tag_183\n      jump\t// in\n    tag_182:\n      tag_184\n      jump\t// in\n    tag_181:\n      stop\n        /* \"contracts/Fast/Contract_1.sol\":369:404  Counters.Counter public TotalTender */\n    tag_29:\n      callvalue\n      dup1\n      iszero\n      tag_185\n      jumpi\n      0x00\n      dup1\n      revert\n    tag_185:\n      pop\n      tag_186\n      tag_187\n      jump\t// in\n    tag_186:\n      mload(0x40)\n      tag_188\n      swap2\n      swap1\n      tag_70\n      jump\t// in\n    tag_188:\n      mload(0x40)\n      dup1\n      swap2\n      sub\n      swap1\n      return\n        /* \"contracts/Fast/Contract_1.sol\":2424:2634  function SignIn(address _address) public{... */\n    tag_30:\n      callvalue\n      dup1\n      iszero\n      tag_189\n      jumpi\n      0x00\n      dup1\n      revert\n    tag_189:\n      pop\n      tag_190\n      0x04\n      dup1\n      calldatasize\n      sub\n      dup2\n      add\n      swap1\n      tag_191\n      swap2\n      swap1\n      tag_43\n      jump\t// in\n    tag_191:\n      tag_192\n      jump\t// in\n    tag_190:\n      stop\n        /* \"contracts/Fast/Contract_1.sol\":2161:2199  mapping(address => Sign) public Signer */\n    tag_31:\n      callvalue\n      dup1\n      iszero\n      tag_193\n      jumpi\n      0x00\n      dup1\n      revert\n    tag_193:\n      pop\n      tag_194\n      0x04\n      dup1\n      calldatasize\n      sub\n      dup2\n      add\n      swap1\n      tag_195\n      swap2\n      swap1\n      tag_43\n      jump\t// in\n    tag_195:\n      tag_196\n      jump\t// in\n    tag_194:\n      mload(0x40)\n      tag_197\n      swap6\n      swap5\n      swap4\n      swap3\n      swap2\n      swap1\n      tag_198\n      jump\t// in\n    tag_197:\n      mload(0x40)\n      dup1\n      swap2\n      sub\n      swap1\n      return\n        /* \"contracts/Fast/Contract_1.sol\":1490:1535  mapping(uint256 => uint256) public SizeVender */\n    tag_32:\n      callvalue\n      dup1\n      iszero\n      tag_199\n      jumpi\n      0x00\n      dup1\n      revert\n    tag_199:\n      pop\n      tag_200\n      0x04\n      dup1\n      calldatasize\n      sub\n      dup2\n      add\n      swap1\n      tag_201\n      swap2\n      swap1\n      tag_50\n      jump\t// in\n    tag_201:\n      tag_202\n      jump\t// in\n    tag_200:\n      mload(0x40)\n      tag_203\n      swap2\n      swap1\n      tag_70\n      jump\t// in\n    tag_203:\n      mload(0x40)\n      dup1\n      swap2\n      sub\n      swap1\n      return\n        /* \"contracts/Fast/Contract_1.sol\":1762:1805  mapping(address => Days) public DaysDetails */\n    tag_44:\n      mstore(0x20, 0x0a)\n      dup1\n      0x00\n      mstore\n      keccak256(0x00, 0x40)\n      0x00\n      swap2\n      pop\n      swap1\n      pop\n      dup1\n      0x00\n      add\n      sload\n      swap1\n      dup1\n      0x01\n      add\n      sload\n      swap1\n      dup1\n      0x02\n      add\n      sload\n      swap1\n      pop\n      dup4\n      jump\t// out\n        /* \"contracts/Fast/Contract_1.sol\":3948:4148  function CheckTime(uint256 _token) public view returns (bool) {... */\n    tag_51:\n        /* \"contracts/Fast/Contract_1.sol\":4004:4008  bool */\n      0x00\n        /* \"contracts/Fast/Contract_1.sol\":4046:4061  block.timestamp */\n      timestamp\n        /* \"contracts/Fast/Contract_1.sol\":4024:4029  Total */\n      0x06\n        /* \"contracts/Fast/Contract_1.sol\":4024:4037  Total[_token] */\n      0x00\n        /* \"contracts/Fast/Contract_1.sol\":4030:4036  _token */\n      dup5\n        /* \"contracts/Fast/Contract_1.sol\":4024:4037  Total[_token] */\n      dup2\n      mstore\n      0x20\n      add\n      swap1\n      dup2\n      mstore\n      0x20\n      add\n      0x00\n      keccak256\n        /* \"contracts/Fast/Contract_1.sol\":4024:4042  Total[_token].time */\n      0x04\n      add\n      sload\n        /* \"contracts/Fast/Contract_1.sol\":4024:4061  Total[_token].time <= block.timestamp */\n      gt\n        /* \"contracts/Fast/Contract_1.sol\":4020:4142  if (Total[_token].time <= block.timestamp) {... */\n      tag_205\n      jumpi\n        /* \"contracts/Fast/Contract_1.sol\":4084:4089  false */\n      0x00\n        /* \"contracts/Fast/Contract_1.sol\":4077:4089  return false */\n      swap1\n      pop\n      jump(tag_204)\n        /* \"contracts/Fast/Contract_1.sol\":4020:4142  if (Total[_token].time <= block.timestamp) {... */\n    tag_205:\n        /* \"contracts/Fast/Contract_1.sol\":4127:4131  true */\n      0x01\n        /* \"contracts/Fast/Contract_1.sol\":4120:4131  return true */\n      swap1\n      pop\n        /* \"contracts/Fast/Contract_1.sol\":3948:4148  function CheckTime(uint256 _token) public view returns (bool) {... */\n    tag_204:\n      swap2\n      swap1\n      pop\n      jump\t// out\n        /* \"contracts/Fast/Contract_1.sol\":2640:2799  function SignOut(address _address) public{... */\n    tag_57:\n        /* \"contracts/Fast/Contract_1.sol\":2699:2705  Signer */\n      0x10\n        /* \"contracts/Fast/Contract_1.sol\":2699:2715  Signer[_address] */\n      0x00\n        /* \"contracts/Fast/Contract_1.sol\":2706:2714  _address */\n      dup3\n        /* \"contracts/Fast/Contract_1.sol\":2699:2715  Signer[_address] */\n      0xffffffffffffffffffffffffffffffffffffffff\n      and\n      0xffffffffffffffffffffffffffffffffffffffff\n      and\n      dup2\n      mstore\n      0x20\n      add\n      swap1\n      dup2\n      mstore\n      0x20\n      add\n      0x00\n      keccak256\n        /* \"contracts/Fast/Contract_1.sol\":2699:2721  Signer[_address].InOut */\n      0x02\n      add\n      0x15\n      swap1\n      sload\n      swap1\n      0x0100\n      exp\n      swap1\n      div\n      0xff\n      and\n        /* \"contracts/Fast/Contract_1.sol\":2691:2752  require(Signer[_address].InOut,\"Please You Already Sign Out\") */\n      tag_208\n      jumpi\n      mload(0x40)\n      0x08c379a000000000000000000000000000000000000000000000000000000000\n      dup2\n      mstore\n      0x04\n      add\n      tag_209\n      swap1\n      tag_210\n      jump\t// in\n    tag_209:\n      mload(0x40)\n      dup1\n      swap2\n      sub\n      swap1\n      revert\n    tag_208:\n        /* \"contracts/Fast/Contract_1.sol\":2787:2792  false */\n      0x00\n        /* \"contracts/Fast/Contract_1.sol\":2762:2768  Signer */\n      0x10\n        /* \"contracts/Fast/Contract_1.sol\":2762:2778  Signer[_address] */\n      0x00\n        /* \"contracts/Fast/Contract_1.sol\":2769:2777  _address */\n      dup4\n        /* \"contracts/Fast/Contract_1.sol\":2762:2778  Signer[_address] */\n      0xffffffffffffffffffffffffffffffffffffffff\n      and\n      0xffffffffffffffffffffffffffffffffffffffff\n      and\n      dup2\n      mstore\n      0x20\n      add\n      swap1\n      dup2\n      mstore\n      0x20\n      add\n      0x00\n      keccak256\n        /* \"contracts/Fast/Contract_1.sol\":2762:2784  Signer[_address].InOut */\n      0x02\n      add\n      0x15\n        /* \"contracts/Fast/Contract_1.sol\":2762:2792  Signer[_address].InOut = false */\n      0x0100\n      exp\n      dup2\n      sload\n      dup2\n      0xff\n      mul\n      not\n      and\n      swap1\n      dup4\n      iszero\n      iszero\n      mul\n      or\n      swap1\n      sstore\n      pop\n        /* \"contracts/Fast/Contract_1.sol\":2640:2799  function SignOut(address _address) public{... */\n      pop\n      jump\t// out\n        /* \"contracts/Fast/Contract_1.sol\":1586:1647  mapping(uint256 => mapping(uint256 => Vender)) public Venders */\n    tag_62:\n      mstore(0x20, 0x07)\n      dup2\n      0x00\n      mstore\n      mstore(0x20, keccak256(0x00, 0x40))\n      dup1\n      0x00\n      mstore\n      keccak256(0x00, 0x40)\n      0x00\n      swap2\n      pop\n      swap2\n      pop\n      pop\n      dup1\n      0x00\n      add\n      sload\n      swap1\n      dup1\n      0x01\n      add\n      sload\n      swap1\n      dup1\n      0x02\n      add\n      dup1\n      sload\n      tag_211\n      swap1\n      tag_212\n      jump\t// in\n    tag_211:\n      dup1\n      0x1f\n      add\n      0x20\n      dup1\n      swap2\n      div\n      mul\n      0x20\n      add\n      mload(0x40)\n      swap1\n      dup2\n      add\n      0x40\n      mstore\n      dup1\n      swap3\n      swap2\n      swap1\n      dup2\n      dup2\n      mstore\n      0x20\n      add\n      dup3\n      dup1\n      sload\n      tag_213\n      swap1\n      tag_212\n      jump\t// in\n    tag_213:\n      dup1\n      iszero\n      tag_214\n      jumpi\n      dup1\n      0x1f\n      lt\n      tag_215\n      jumpi\n      0x0100\n      dup1\n      dup4\n      sload\n      div\n      mul\n      dup4\n      mstore\n      swap2\n      0x20\n      add\n      swap2\n      jump(tag_214)\n    tag_215:\n      dup3\n      add\n      swap2\n      swap1\n      0x00\n      mstore\n      keccak256(0x00, 0x20)\n      swap1\n    tag_216:\n      dup2\n      sload\n      dup2\n      mstore\n      swap1\n      0x01\n      add\n      swap1\n      0x20\n      add\n      dup1\n      dup4\n      gt\n      tag_216\n      jumpi\n      dup3\n      swap1\n      sub\n      0x1f\n      and\n      dup3\n      add\n      swap2\n    tag_214:\n      pop\n      pop\n      pop\n      pop\n      pop\n      swap1\n      dup1\n      0x03\n      add\n      0x00\n      swap1\n      sload\n      swap1\n      0x0100\n      exp\n      swap1\n      div\n      0xffffffffffffffffffffffffffffffffffffffff\n      and\n      swap1\n      dup1\n      0x04\n      add\n      sload\n      swap1\n      dup1\n      0x05\n      add\n      sload\n      swap1\n      dup1\n      0x06\n      add\n      dup1\n      sload\n      tag_217\n      swap1\n      tag_212\n      jump\t// in\n    tag_217:\n      dup1\n      0x1f\n      add\n      0x20\n      dup1\n      swap2\n      div\n      mul\n      0x20\n      add\n      mload(0x40)\n      swap1\n      dup2\n      add\n      0x40\n      mstore\n      dup1\n      swap3\n      swap2\n      swap1\n      dup2\n      dup2\n      mstore\n      0x20\n      add\n      dup3\n      dup1\n      sload\n      tag_218\n      swap1\n      tag_212\n      jump\t// in\n    tag_218:\n      dup1\n      iszero\n      tag_219\n      jumpi\n      dup1\n      0x1f\n      lt\n      tag_220\n      jumpi\n      0x0100\n      dup1\n      dup4\n      sload\n      div\n      mul\n      dup4\n      mstore\n      swap2\n      0x20\n      add\n      swap2\n      jump(tag_219)\n    tag_220:\n      dup3\n      add\n      swap2\n      swap1\n      0x00\n      mstore\n      keccak256(0x00, 0x20)\n      swap1\n    tag_221:\n      dup2\n      sload\n      dup2\n      mstore\n      swap1\n      0x01\n      add\n      swap1\n      0x20\n      add\n      dup1\n      dup4\n      gt\n      tag_221\n      jumpi\n      dup3\n      swap1\n      sub\n      0x1f\n      and\n      dup3\n      add\n      swap2\n    tag_219:\n      pop\n      pop\n      pop\n      pop\n      pop\n      swap1\n      pop\n      dup8\n      jump\t// out\n        /* \"contracts/Fast/Contract_1.sol\":1713:1756  mapping(address => uint256) public Requests */\n    tag_68:\n      mstore(0x20, 0x09)\n      dup1\n      0x00\n      mstore\n      keccak256(0x00, 0x40)\n      0x00\n      swap2\n      pop\n      swap1\n      pop\n      sload\n      dup2\n      jump\t// out\n        /* \"contracts/Fast/Contract_1.sol\":2805:3190  function tender(string memory _name,uint256 _quantity,uint256 _budget,uint256 _time,string memory Address,string memory _description) public {... */\n    tag_75:\n        /* \"contracts/Fast/Contract_1.sol\":2956:2979  TotalTender.increment() */\n      tag_223\n        /* \"contracts/Fast/Contract_1.sol\":2956:2967  TotalTender */\n      0x00\n        /* \"contracts/Fast/Contract_1.sol\":2956:2977  TotalTender.increment */\n      tag_224\n        /* \"contracts/Fast/Contract_1.sol\":2956:2979  TotalTender.increment() */\n      jump\t// in\n    tag_223:\n        /* \"contracts/Fast/Contract_1.sol\":3009:3010  1 */\n      0x01\n        /* \"contracts/Fast/Contract_1.sol\":2989:2993  Size */\n      0x03\n        /* \"contracts/Fast/Contract_1.sol\":2989:3005  Size[msg.sender] */\n      0x00\n        /* \"contracts/Fast/Contract_1.sol\":2994:3004  msg.sender */\n      caller\n        /* \"contracts/Fast/Contract_1.sol\":2989:3005  Size[msg.sender] */\n      0xffffffffffffffffffffffffffffffffffffffff\n      and\n      0xffffffffffffffffffffffffffffffffffffffff\n      and\n      dup2\n      mstore\n      0x20\n      add\n      swap1\n      dup2\n      mstore\n      0x20\n      add\n      0x00\n      keccak256\n      0x00\n        /* \"contracts/Fast/Contract_1.sol\":2989:3010  Size[msg.sender] += 1 */\n      dup3\n      dup3\n      sload\n      tag_225\n      swap2\n      swap1\n      tag_226\n      jump\t// in\n    tag_225:\n      swap3\n      pop\n      pop\n      dup2\n      swap1\n      sstore\n      pop\n        /* \"contracts/Fast/Contract_1.sol\":3051:3183  Tender(TotalTender.current(),_name,_quantity,_budget,block.timestamp + (_time * 60),block.timestamp,Address,_description,msg.sender) */\n      mload(0x40)\n      dup1\n      0x0120\n      add\n      0x40\n      mstore\n      dup1\n        /* \"contracts/Fast/Contract_1.sol\":3058:3079  TotalTender.current() */\n      tag_227\n        /* \"contracts/Fast/Contract_1.sol\":3058:3069  TotalTender */\n      0x00\n        /* \"contracts/Fast/Contract_1.sol\":3058:3077  TotalTender.current */\n      tag_228\n        /* \"contracts/Fast/Contract_1.sol\":3058:3079  TotalTender.current() */\n      jump\t// in\n    tag_227:\n        /* \"contracts/Fast/Contract_1.sol\":3051:3183  Tender(TotalTender.current(),_name,_quantity,_budget,block.timestamp + (_time * 60),block.timestamp,Address,_description,msg.sender) */\n      dup2\n      mstore\n      0x20\n      add\n        /* \"contracts/Fast/Contract_1.sol\":3080:3085  _name */\n      dup8\n        /* \"contracts/Fast/Contract_1.sol\":3051:3183  Tender(TotalTender.current(),_name,_quantity,_budget,block.timestamp + (_time * 60),block.timestamp,Address,_description,msg.sender) */\n      dup2\n      mstore\n      0x20\n      add\n        /* \"contracts/Fast/Contract_1.sol\":3086:3095  _quantity */\n      dup7\n        /* \"contracts/Fast/Contract_1.sol\":3051:3183  Tender(TotalTender.current(),_name,_quantity,_budget,block.timestamp + (_time * 60),block.timestamp,Address,_description,msg.sender) */\n      dup2\n      mstore\n      0x20\n      add\n        /* \"contracts/Fast/Contract_1.sol\":3096:3103  _budget */\n      dup6\n        /* \"contracts/Fast/Contract_1.sol\":3051:3183  Tender(TotalTender.current(),_name,_quantity,_budget,block.timestamp + (_time * 60),block.timestamp,Address,_description,msg.sender) */\n      dup2\n      mstore\n      0x20\n      add\n        /* \"contracts/Fast/Contract_1.sol\":3131:3133  60 */\n      0x3c\n        /* \"contracts/Fast/Contract_1.sol\":3123:3128  _time */\n      dup6\n        /* \"contracts/Fast/Contract_1.sol\":3123:3133  _time * 60 */\n      tag_229\n      swap2\n      swap1\n      tag_230\n      jump\t// in\n    tag_229:\n        /* \"contracts/Fast/Contract_1.sol\":3104:3119  block.timestamp */\n      timestamp\n        /* \"contracts/Fast/Contract_1.sol\":3104:3134  block.timestamp + (_time * 60) */\n      tag_231\n      swap2\n      swap1\n      tag_226\n      jump\t// in\n    tag_231:\n        /* \"contracts/Fast/Contract_1.sol\":3051:3183  Tender(TotalTender.current(),_name,_quantity,_budget,block.timestamp + (_time * 60),block.timestamp,Address,_description,msg.sender) */\n      dup2\n      mstore\n      0x20\n      add\n        /* \"contracts/Fast/Contract_1.sol\":3135:3150  block.timestamp */\n      timestamp\n        /* \"contracts/Fast/Contract_1.sol\":3051:3183  Tender(TotalTender.current(),_name,_quantity,_budget,block.timestamp + (_time * 60),block.timestamp,Address,_description,msg.sender) */\n      dup2\n      mstore\n      0x20\n      add\n        /* \"contracts/Fast/Contract_1.sol\":3151:3158  Address */\n      dup4\n        /* \"contracts/Fast/Contract_1.sol\":3051:3183  Tender(TotalTender.current(),_name,_quantity,_budget,block.timestamp + (_time * 60),block.timestamp,Address,_description,msg.sender) */\n      dup2\n      mstore\n      0x20\n      add\n        /* \"contracts/Fast/Contract_1.sol\":3159:3171  _description */\n      dup3\n        /* \"contracts/Fast/Contract_1.sol\":3051:3183  Tender(TotalTender.current(),_name,_quantity,_budget,block.timestamp + (_time * 60),block.timestamp,Address,_description,msg.sender) */\n      dup2\n      mstore\n      0x20\n      add\n        /* \"contracts/Fast/Contract_1.sol\":3172:3182  msg.sender */\n      caller\n        /* \"contracts/Fast/Contract_1.sol\":3051:3183  Tender(TotalTender.current(),_name,_quantity,_budget,block.timestamp + (_time * 60),block.timestamp,Address,_description,msg.sender) */\n      0xffffffffffffffffffffffffffffffffffffffff\n      and\n      dup2\n      mstore\n      pop\n        /* \"contracts/Fast/Contract_1.sol\":3020:3025  Total */\n      0x06\n        /* \"contracts/Fast/Contract_1.sol\":3020:3048  Total[TotalTender.current()] */\n      0x00\n        /* \"contracts/Fast/Contract_1.sol\":3026:3047  TotalTender.current() */\n      tag_232\n        /* \"contracts/Fast/Contract_1.sol\":3026:3037  TotalTender */\n      0x00\n        /* \"contracts/Fast/Contract_1.sol\":3026:3045  TotalTender.current */\n      tag_228\n        /* \"contracts/Fast/Contract_1.sol\":3026:3047  TotalTender.current() */\n      jump\t// in\n    tag_232:\n        /* \"contracts/Fast/Contract_1.sol\":3020:3048  Total[TotalTender.current()] */\n      dup2\n      mstore\n      0x20\n      add\n      swap1\n      dup2\n      mstore\n      0x20\n      add\n      0x00\n      keccak256\n        /* \"contracts/Fast/Contract_1.sol\":3020:3183  Total[TotalTender.current()] = Tender(TotalTender.current(),_name,_quantity,_budget,block.timestamp + (_time * 60),block.timestamp,Address,_description,msg.sender) */\n      0x00\n      dup3\n      add\n      mload\n      dup2\n      0x00\n      add\n      sstore\n      0x20\n      dup3\n      add\n      mload\n      dup2\n      0x01\n      add\n      swap1\n      dup1\n      mload\n      swap1\n      0x20\n      add\n      swap1\n      tag_233\n      swap3\n      swap2\n      swap1\n      tag_234\n      jump\t// in\n    tag_233:\n      pop\n      0x40\n      dup3\n      add\n      mload\n      dup2\n      0x02\n      add\n      sstore\n      0x60\n      dup3\n      add\n      mload\n      dup2\n      0x03\n      add\n      sstore\n      0x80\n      dup3\n      add\n      mload\n      dup2\n      0x04\n      add\n      sstore\n      0xa0\n      dup3\n      add\n      mload\n      dup2\n      0x05\n      add\n      sstore\n      0xc0\n      dup3\n      add\n      mload\n      dup2\n      0x06\n      add\n      swap1\n      dup1\n      mload\n      swap1\n      0x20\n      add\n      swap1\n      tag_235\n      swap3\n      swap2\n      swap1\n      tag_234\n      jump\t// in\n    tag_235:\n      pop\n      0xe0\n      dup3\n      add\n      mload\n      dup2\n      0x07\n      add\n      swap1\n      dup1\n      mload\n      swap1\n      0x20\n      add\n      swap1\n      tag_236\n      swap3\n      swap2\n      swap1\n      tag_234\n      jump\t// in\n    tag_236:\n      pop\n      0x0100\n      dup3\n      add\n      mload\n      dup2\n      0x08\n      add\n      exp(0x0100, 0x00)\n      dup2\n      sload\n      dup2\n      0xffffffffffffffffffffffffffffffffffffffff\n      mul\n      not\n      and\n      swap1\n      dup4\n      0xffffffffffffffffffffffffffffffffffffffff\n      and\n      mul\n      or\n      swap1\n      sstore\n      pop\n      swap1\n      pop\n      pop\n        /* \"contracts/Fast/Contract_1.sol\":2805:3190  function tender(string memory _name,uint256 _quantity,uint256 _budget,uint256 _time,string memory Address,string memory _description) public {... */\n      pop\n      pop\n      pop\n      pop\n      pop\n      pop\n      jump\t// out\n        /* \"contracts/Fast/Contract_1.sol\":2267:2418  function SignUp(string memory name,string memory email,address _address) public{... */\n    tag_80:\n        /* \"contracts/Fast/Contract_1.sol\":2375:2411  Sign(name,email,_address,true,false) */\n      mload(0x40)\n      dup1\n      0xa0\n      add\n      0x40\n      mstore\n      dup1\n        /* \"contracts/Fast/Contract_1.sol\":2380:2384  name */\n      dup5\n        /* \"contracts/Fast/Contract_1.sol\":2375:2411  Sign(name,email,_address,true,false) */\n      dup2\n      mstore\n      0x20\n      add\n        /* \"contracts/Fast/Contract_1.sol\":2385:2390  email */\n      dup4\n        /* \"contracts/Fast/Contract_1.sol\":2375:2411  Sign(name,email,_address,true,false) */\n      dup2\n      mstore\n      0x20\n      add\n        /* \"contracts/Fast/Contract_1.sol\":2391:2399  _address */\n      dup3\n        /* \"contracts/Fast/Contract_1.sol\":2375:2411  Sign(name,email,_address,true,false) */\n      0xffffffffffffffffffffffffffffffffffffffff\n      and\n      dup2\n      mstore\n      0x20\n      add\n        /* \"contracts/Fast/Contract_1.sol\":2400:2404  true */\n      0x01\n        /* \"contracts/Fast/Contract_1.sol\":2375:2411  Sign(name,email,_address,true,false) */\n      iszero\n      iszero\n      dup2\n      mstore\n      0x20\n      add\n        /* \"contracts/Fast/Contract_1.sol\":2405:2410  false */\n      0x00\n        /* \"contracts/Fast/Contract_1.sol\":2375:2411  Sign(name,email,_address,true,false) */\n      iszero\n      iszero\n      dup2\n      mstore\n      pop\n        /* \"contracts/Fast/Contract_1.sol\":2356:2362  Signer */\n      0x10\n        /* \"contracts/Fast/Contract_1.sol\":2356:2372  Signer[_address] */\n      0x00\n        /* \"contracts/Fast/Contract_1.sol\":2363:2371  _address */\n      dup4\n        /* \"contracts/Fast/Contract_1.sol\":2356:2372  Signer[_address] */\n      0xffffffffffffffffffffffffffffffffffffffff\n      and\n      0xffffffffffffffffffffffffffffffffffffffff\n      and\n      dup2\n      mstore\n      0x20\n      add\n      swap1\n      dup2\n      mstore\n      0x20\n      add\n      0x00\n      keccak256\n        /* \"contracts/Fast/Contract_1.sol\":2356:2411  Signer[_address] = Sign(name,email,_address,true,false) */\n      0x00\n      dup3\n      add\n      mload\n      dup2\n      0x00\n      add\n      swap1\n      dup1\n      mload\n      swap1\n      0x20\n      add\n      swap1\n      tag_238\n      swap3\n      swap2\n      swap1\n      tag_234\n      jump\t// in\n    tag_238:\n      pop\n      0x20\n      dup3\n      add\n      mload\n      dup2\n      0x01\n      add\n      swap1\n      dup1\n      mload\n      swap1\n      0x20\n      add\n      swap1\n      tag_239\n      swap3\n      swap2\n      swap1\n      tag_234\n      jump\t// in\n    tag_239:\n      pop\n      0x40\n      dup3\n      add\n      mload\n      dup2\n      0x02\n      add\n      exp(0x0100, 0x00)\n      dup2\n      sload\n      dup2\n      0xffffffffffffffffffffffffffffffffffffffff\n      mul\n      not\n      and\n      swap1\n      dup4\n      0xffffffffffffffffffffffffffffffffffffffff\n      and\n      mul\n      or\n      swap1\n      sstore\n      pop\n      0x60\n      dup3\n      add\n      mload\n      dup2\n      0x02\n      add\n      exp(0x0100, 0x14)\n      dup2\n      sload\n      dup2\n      0xff\n      mul\n      not\n      and\n      swap1\n      dup4\n      iszero\n      iszero\n      mul\n      or\n      swap1\n      sstore\n      pop\n      0x80\n      dup3\n      add\n      mload\n      dup2\n      0x02\n      add\n      exp(0x0100, 0x15)\n      dup2\n      sload\n      dup2\n      0xff\n      mul\n      not\n      and\n      swap1\n      dup4\n      iszero\n      iszero\n      mul\n      or\n      swap1\n      sstore\n      pop\n      swap1\n      pop\n      pop\n        /* \"contracts/Fast/Contract_1.sol\":2267:2418  function SignUp(string memory name,string memory email,address _address) public{... */\n      pop\n      pop\n      pop\n      jump\t// out\n        /* \"contracts/Fast/Contract_1.sol\":5787:6107  function DeleteVRequest(uint256 _token) public {... */\n    tag_84:\n        /* \"contracts/Fast/Contract_1.sol\":5852:5854  Ch */\n      0x08\n        /* \"contracts/Fast/Contract_1.sol\":5852:5866  Ch[msg.sender] */\n      0x00\n        /* \"contracts/Fast/Contract_1.sol\":5855:5865  msg.sender */\n      caller\n        /* \"contracts/Fast/Contract_1.sol\":5852:5866  Ch[msg.sender] */\n      0xffffffffffffffffffffffffffffffffffffffff\n      and\n      0xffffffffffffffffffffffffffffffffffffffff\n      and\n      dup2\n      mstore\n      0x20\n      add\n      swap1\n      dup2\n      mstore\n      0x20\n      add\n      0x00\n      keccak256\n        /* \"contracts/Fast/Contract_1.sol\":5852:5874  Ch[msg.sender][_token] */\n      0x00\n        /* \"contracts/Fast/Contract_1.sol\":5867:5873  _token */\n      dup3\n        /* \"contracts/Fast/Contract_1.sol\":5852:5874  Ch[msg.sender][_token] */\n      dup2\n      mstore\n      0x20\n      add\n      swap1\n      dup2\n      mstore\n      0x20\n      add\n      0x00\n      keccak256\n      0x00\n      swap1\n      sload\n      swap1\n      0x0100\n      exp\n      swap1\n      div\n      0xff\n      and\n        /* \"contracts/Fast/Contract_1.sol\":5844:5896  require(Ch[msg.sender][_token], \"You canNot Delete\") */\n      tag_241\n      jumpi\n      mload(0x40)\n      0x08c379a000000000000000000000000000000000000000000000000000000000\n      dup2\n      mstore\n      0x04\n      add\n      tag_242\n      swap1\n      tag_243\n      jump\t// in\n    tag_242:\n      mload(0x40)\n      dup1\n      swap2\n      sub\n      swap1\n      revert\n    tag_241:\n        /* \"contracts/Fast/Contract_1.sol\":5930:5931  1 */\n      0x01\n        /* \"contracts/Fast/Contract_1.sol\":5906:5914  Requests */\n      0x09\n        /* \"contracts/Fast/Contract_1.sol\":5906:5926  Requests[msg.sender] */\n      0x00\n        /* \"contracts/Fast/Contract_1.sol\":5915:5925  msg.sender */\n      caller\n        /* \"contracts/Fast/Contract_1.sol\":5906:5926  Requests[msg.sender] */\n      0xffffffffffffffffffffffffffffffffffffffff\n      and\n      0xffffffffffffffffffffffffffffffffffffffff\n      and\n      dup2\n      mstore\n      0x20\n      add\n      swap1\n      dup2\n      mstore\n      0x20\n      add\n      0x00\n      keccak256\n      0x00\n        /* \"contracts/Fast/Contract_1.sol\":5906:5931  Requests[msg.sender] -= 1 */\n      dup3\n      dup3\n      sload\n      tag_244\n      swap2\n      swap1\n      tag_245\n      jump\t// in\n    tag_244:\n      swap3\n      pop\n      pop\n      dup2\n      swap1\n      sstore\n      pop\n        /* \"contracts/Fast/Contract_1.sol\":5963:5964  1 */\n      0x01\n        /* \"contracts/Fast/Contract_1.sol\":5941:5951  SizeVender */\n      0x05\n        /* \"contracts/Fast/Contract_1.sol\":5941:5959  SizeVender[_token] */\n      0x00\n        /* \"contracts/Fast/Contract_1.sol\":5952:5958  _token */\n      dup4\n        /* \"contracts/Fast/Contract_1.sol\":5941:5959  SizeVender[_token] */\n      dup2\n      mstore\n      0x20\n      add\n      swap1\n      dup2\n      mstore\n      0x20\n      add\n      0x00\n      keccak256\n      0x00\n        /* \"contracts/Fast/Contract_1.sol\":5941:5964  SizeVender[_token] -= 1 */\n      dup3\n      dup3\n      sload\n      tag_246\n      swap2\n      swap1\n      tag_245\n      jump\t// in\n    tag_246:\n      swap3\n      pop\n      pop\n      dup2\n      swap1\n      sstore\n      pop\n        /* \"contracts/Fast/Contract_1.sol\":5999:6004  false */\n      0x00\n        /* \"contracts/Fast/Contract_1.sol\":5974:5976  Ch */\n      0x08\n        /* \"contracts/Fast/Contract_1.sol\":5974:5988  Ch[msg.sender] */\n      0x00\n        /* \"contracts/Fast/Contract_1.sol\":5977:5987  msg.sender */\n      caller\n        /* \"contracts/Fast/Contract_1.sol\":5974:5988  Ch[msg.sender] */\n      0xffffffffffffffffffffffffffffffffffffffff\n      and\n      0xffffffffffffffffffffffffffffffffffffffff\n      and\n      dup2\n      mstore\n      0x20\n      add\n      swap1\n      dup2\n      mstore\n      0x20\n      add\n      0x00\n      keccak256\n        /* \"contracts/Fast/Contract_1.sol\":5974:5996  Ch[msg.sender][_token] */\n      0x00\n        /* \"contracts/Fast/Contract_1.sol\":5989:5995  _token */\n      dup4\n        /* \"contracts/Fast/Contract_1.sol\":5974:5996  Ch[msg.sender][_token] */\n      dup2\n      mstore\n      0x20\n      add\n      swap1\n      dup2\n      mstore\n      0x20\n      add\n      0x00\n      keccak256\n      0x00\n        /* \"contracts/Fast/Contract_1.sol\":5974:6004  Ch[msg.sender][_token] = false */\n      0x0100\n      exp\n      dup2\n      sload\n      dup2\n      0xff\n      mul\n      not\n      and\n      swap1\n      dup4\n      iszero\n      iszero\n      mul\n      or\n      swap1\n      sstore\n      pop\n        /* \"contracts/Fast/Contract_1.sol\":6021:6028  Venders */\n      0x07\n        /* \"contracts/Fast/Contract_1.sol\":6021:6056  Venders[Finder[_token][msg.sender]] */\n      0x00\n        /* \"contracts/Fast/Contract_1.sol\":6029:6035  Finder */\n      0x0b\n        /* \"contracts/Fast/Contract_1.sol\":6029:6043  Finder[_token] */\n      0x00\n        /* \"contracts/Fast/Contract_1.sol\":6036:6042  _token */\n      dup5\n        /* \"contracts/Fast/Contract_1.sol\":6029:6043  Finder[_token] */\n      dup2\n      mstore\n      0x20\n      add\n      swap1\n      dup2\n      mstore\n      0x20\n      add\n      0x00\n      keccak256\n        /* \"contracts/Fast/Contract_1.sol\":6029:6055  Finder[_token][msg.sender] */\n      0x00\n        /* \"contracts/Fast/Contract_1.sol\":6044:6054  msg.sender */\n      caller\n        /* \"contracts/Fast/Contract_1.sol\":6029:6055  Finder[_token][msg.sender] */\n      0xffffffffffffffffffffffffffffffffffffffff\n      and\n      0xffffffffffffffffffffffffffffffffffffffff\n      and\n      dup2\n      mstore\n      0x20\n      add\n      swap1\n      dup2\n      mstore\n      0x20\n      add\n      0x00\n      keccak256\n      sload\n        /* \"contracts/Fast/Contract_1.sol\":6021:6056  Venders[Finder[_token][msg.sender]] */\n      dup2\n      mstore\n      0x20\n      add\n      swap1\n      dup2\n      mstore\n      0x20\n      add\n      0x00\n      keccak256\n        /* \"contracts/Fast/Contract_1.sol\":6021:6064  Venders[Finder[_token][msg.sender]][_token] */\n      0x00\n        /* \"contracts/Fast/Contract_1.sol\":6057:6063  _token */\n      dup3\n        /* \"contracts/Fast/Contract_1.sol\":6021:6064  Venders[Finder[_token][msg.sender]][_token] */\n      dup2\n      mstore\n      0x20\n      add\n      swap1\n      dup2\n      mstore\n      0x20\n      add\n      0x00\n      keccak256\n      0x00\n        /* \"contracts/Fast/Contract_1.sol\":6014:6064  delete Venders[Finder[_token][msg.sender]][_token] */\n      dup1\n      dup3\n      add\n      0x00\n      swap1\n      sstore\n      0x01\n      dup3\n      add\n      0x00\n      swap1\n      sstore\n      0x02\n      dup3\n      add\n      0x00\n      tag_247\n      swap2\n      swap1\n      tag_248\n      jump\t// in\n    tag_247:\n      0x03\n      dup3\n      add\n      exp(0x0100, 0x00)\n      dup2\n      sload\n      swap1\n      0xffffffffffffffffffffffffffffffffffffffff\n      mul\n      not\n      and\n      swap1\n      sstore\n      0x04\n      dup3\n      add\n      0x00\n      swap1\n      sstore\n      0x05\n      dup3\n      add\n      0x00\n      swap1\n      sstore\n      0x06\n      dup3\n      add\n      0x00\n      tag_249\n      swap2\n      swap1\n      tag_248\n      jump\t// in\n    tag_249:\n      pop\n      pop\n        /* \"contracts/Fast/Contract_1.sol\":6074:6080  Finder */\n      0x0b\n        /* \"contracts/Fast/Contract_1.sol\":6074:6088  Finder[_token] */\n      0x00\n        /* \"contracts/Fast/Contract_1.sol\":6081:6087  _token */\n      dup3\n        /* \"contracts/Fast/Contract_1.sol\":6074:6088  Finder[_token] */\n      dup2\n      mstore\n      0x20\n      add\n      swap1\n      dup2\n      mstore\n      0x20\n      add\n      0x00\n      keccak256\n        /* \"contracts/Fast/Contract_1.sol\":6074:6100  Finder[_token][msg.sender] */\n      0x00\n        /* \"contracts/Fast/Contract_1.sol\":6089:6099  msg.sender */\n      caller\n        /* \"contracts/Fast/Contract_1.sol\":6074:6100  Finder[_token][msg.sender] */\n      0xffffffffffffffffffffffffffffffffffffffff\n      and\n      0xffffffffffffffffffffffffffffffffffffffff\n      and\n      dup2\n      mstore\n      0x20\n      add\n      swap1\n      dup2\n      mstore\n      0x20\n      add\n      0x00\n      keccak256\n      pop\n        /* \"contracts/Fast/Contract_1.sol\":5787:6107  function DeleteVRequest(uint256 _token) public {... */\n      pop\n      jump\t// out\n        /* \"contracts/Fast/Contract_1.sol\":410:445  Counters.Counter public TotalVender */\n    tag_87:\n      0x01\n      dup1\n      0x00\n      add\n      sload\n      swap1\n      pop\n      dup2\n      jump\t// out\n        /* \"contracts/Fast/Contract_1.sol\":1878:1943  mapping(uint256 => mapping(address => Comm)) public Communication */\n    tag_93:\n      mstore(0x20, 0x0c)\n      dup2\n      0x00\n      mstore\n      mstore(0x20, keccak256(0x00, 0x40))\n      dup1\n      0x00\n      mstore\n      keccak256(0x00, 0x40)\n      0x00\n      swap2\n      pop\n      swap2\n      pop\n      pop\n      dup1\n      0x00\n      add\n      0x00\n      swap1\n      sload\n      swap1\n      0x0100\n      exp\n      swap1\n      div\n      0xffffffffffffffffffffffffffffffffffffffff\n      and\n      swap1\n      dup1\n      0x01\n      add\n      sload\n      swap1\n      dup1\n      0x02\n      add\n      0x00\n      swap1\n      sload\n      swap1\n      0x0100\n      exp\n      swap1\n      div\n      0xff\n      and\n      swap1\n      pop\n      dup4\n      jump\t// out\n        /* \"contracts/Fast/Contract_1.sol\":1653:1707  mapping(address => mapping(uint256 => bool)) public Ch */\n    tag_100:\n      mstore(0x20, 0x08)\n      dup2\n      0x00\n      mstore\n      mstore(0x20, keccak256(0x00, 0x40))\n      dup1\n      0x00\n      mstore\n      keccak256(0x00, 0x40)\n      0x00\n      swap2\n      pop\n      swap2\n      pop\n      swap1\n      sload\n      swap1\n      0x0100\n      exp\n      swap1\n      div\n      0xff\n      and\n      dup2\n      jump\t// out\n        /* \"contracts/Fast/Contract_1.sol\":4154:4806  function vender(uint256 _token,uint256 _price,string memory _description,uint256 _delevered) public {... */\n    tag_106:\n        /* \"contracts/Fast/Contract_1.sol\":4272:4289  CheckTime(_token) */\n      tag_251\n        /* \"contracts/Fast/Contract_1.sol\":4282:4288  _token */\n      dup5\n        /* \"contracts/Fast/Contract_1.sol\":4272:4281  CheckTime */\n      tag_51\n        /* \"contracts/Fast/Contract_1.sol\":4272:4289  CheckTime(_token) */\n      jump\t// in\n    tag_251:\n        /* \"contracts/Fast/Contract_1.sol\":4264:4302  require(CheckTime(_token), \"Time Out\") */\n      tag_252\n      jumpi\n      mload(0x40)\n      0x08c379a000000000000000000000000000000000000000000000000000000000\n      dup2\n      mstore\n      0x04\n      add\n      tag_253\n      swap1\n      tag_254\n      jump\t// in\n    tag_253:\n      mload(0x40)\n      dup1\n      swap2\n      sub\n      swap1\n      revert\n    tag_252:\n        /* \"contracts/Fast/Contract_1.sol\":4321:4323  Ch */\n      0x08\n        /* \"contracts/Fast/Contract_1.sol\":4321:4335  Ch[msg.sender] */\n      0x00\n        /* \"contracts/Fast/Contract_1.sol\":4324:4334  msg.sender */\n      caller\n        /* \"contracts/Fast/Contract_1.sol\":4321:4335  Ch[msg.sender] */\n      0xffffffffffffffffffffffffffffffffffffffff\n      and\n      0xffffffffffffffffffffffffffffffffffffffff\n      and\n      dup2\n      mstore\n      0x20\n      add\n      swap1\n      dup2\n      mstore\n      0x20\n      add\n      0x00\n      keccak256\n        /* \"contracts/Fast/Contract_1.sol\":4321:4343  Ch[msg.sender][_token] */\n      0x00\n        /* \"contracts/Fast/Contract_1.sol\":4336:4342  _token */\n      dup6\n        /* \"contracts/Fast/Contract_1.sol\":4321:4343  Ch[msg.sender][_token] */\n      dup2\n      mstore\n      0x20\n      add\n      swap1\n      dup2\n      mstore\n      0x20\n      add\n      0x00\n      keccak256\n      0x00\n      swap1\n      sload\n      swap1\n      0x0100\n      exp\n      swap1\n      div\n      0xff\n      and\n        /* \"contracts/Fast/Contract_1.sol\":4320:4343  !Ch[msg.sender][_token] */\n      iszero\n        /* \"contracts/Fast/Contract_1.sol\":4312:4382  require(!Ch[msg.sender][_token], \"You Already Apply for this Request\") */\n      tag_255\n      jumpi\n      mload(0x40)\n      0x08c379a000000000000000000000000000000000000000000000000000000000\n      dup2\n      mstore\n      0x04\n      add\n      tag_256\n      swap1\n      tag_257\n      jump\t// in\n    tag_256:\n      mload(0x40)\n      dup1\n      swap2\n      sub\n      swap1\n      revert\n    tag_255:\n        /* \"contracts/Fast/Contract_1.sol\":4423:4433  msg.sender */\n      caller\n        /* \"contracts/Fast/Contract_1.sol\":4400:4433  Total[_token].owner != msg.sender */\n      0xffffffffffffffffffffffffffffffffffffffff\n      and\n        /* \"contracts/Fast/Contract_1.sol\":4400:4405  Total */\n      0x06\n        /* \"contracts/Fast/Contract_1.sol\":4400:4413  Total[_token] */\n      0x00\n        /* \"contracts/Fast/Contract_1.sol\":4406:4412  _token */\n      dup7\n        /* \"contracts/Fast/Contract_1.sol\":4400:4413  Total[_token] */\n      dup2\n      mstore\n      0x20\n      add\n      swap1\n      dup2\n      mstore\n      0x20\n      add\n      0x00\n      keccak256\n        /* \"contracts/Fast/Contract_1.sol\":4400:4419  Total[_token].owner */\n      0x08\n      add\n      0x00\n      swap1\n      sload\n      swap1\n      0x0100\n      exp\n      swap1\n      div\n      0xffffffffffffffffffffffffffffffffffffffff\n      and\n        /* \"contracts/Fast/Contract_1.sol\":4400:4433  Total[_token].owner != msg.sender */\n      0xffffffffffffffffffffffffffffffffffffffff\n      and\n      eq\n      iszero\n        /* \"contracts/Fast/Contract_1.sol\":4392:4465  require(Total[_token].owner != msg.sender,\"You are Owner of this Tender\") */\n      tag_258\n      jumpi\n      mload(0x40)\n      0x08c379a000000000000000000000000000000000000000000000000000000000\n      dup2\n      mstore\n      0x04\n      add\n      tag_259\n      swap1\n      tag_260\n      jump\t// in\n    tag_259:\n      mload(0x40)\n      dup1\n      swap2\n      sub\n      swap1\n      revert\n    tag_258:\n        /* \"contracts/Fast/Contract_1.sol\":4475:4498  TotalVender.increment() */\n      tag_261\n        /* \"contracts/Fast/Contract_1.sol\":4475:4486  TotalVender */\n      0x01\n        /* \"contracts/Fast/Contract_1.sol\":4475:4496  TotalVender.increment */\n      tag_224\n        /* \"contracts/Fast/Contract_1.sol\":4475:4498  TotalVender.increment() */\n      jump\t// in\n    tag_261:\n        /* \"contracts/Fast/Contract_1.sol\":4533:4537  true */\n      0x01\n        /* \"contracts/Fast/Contract_1.sol\":4508:4510  Ch */\n      0x08\n        /* \"contracts/Fast/Contract_1.sol\":4508:4522  Ch[msg.sender] */\n      0x00\n        /* \"contracts/Fast/Contract_1.sol\":4511:4521  msg.sender */\n      caller\n        /* \"contracts/Fast/Contract_1.sol\":4508:4522  Ch[msg.sender] */\n      0xffffffffffffffffffffffffffffffffffffffff\n      and\n      0xffffffffffffffffffffffffffffffffffffffff\n      and\n      dup2\n      mstore\n      0x20\n      add\n      swap1\n      dup2\n      mstore\n      0x20\n      add\n      0x00\n      keccak256\n        /* \"contracts/Fast/Contract_1.sol\":4508:4530  Ch[msg.sender][_token] */\n      0x00\n        /* \"contracts/Fast/Contract_1.sol\":4523:4529  _token */\n      dup7\n        /* \"contracts/Fast/Contract_1.sol\":4508:4530  Ch[msg.sender][_token] */\n      dup2\n      mstore\n      0x20\n      add\n      swap1\n      dup2\n      mstore\n      0x20\n      add\n      0x00\n      keccak256\n      0x00\n        /* \"contracts/Fast/Contract_1.sol\":4508:4537  Ch[msg.sender][_token] = true */\n      0x0100\n      exp\n      dup2\n      sload\n      dup2\n      0xff\n      mul\n      not\n      and\n      swap1\n      dup4\n      iszero\n      iszero\n      mul\n      or\n      swap1\n      sstore\n      pop\n        /* \"contracts/Fast/Contract_1.sol\":4569:4570  1 */\n      0x01\n        /* \"contracts/Fast/Contract_1.sol\":4547:4557  SizeVender */\n      0x05\n        /* \"contracts/Fast/Contract_1.sol\":4547:4565  SizeVender[_token] */\n      0x00\n        /* \"contracts/Fast/Contract_1.sol\":4558:4564  _token */\n      dup7\n        /* \"contracts/Fast/Contract_1.sol\":4547:4565  SizeVender[_token] */\n      dup2\n      mstore\n      0x20\n      add\n      swap1\n      dup2\n      mstore\n      0x20\n      add\n      0x00\n      keccak256\n      0x00\n        /* \"contracts/Fast/Contract_1.sol\":4547:4570  SizeVender[_token] += 1 */\n      dup3\n      dup3\n      sload\n      tag_262\n      swap2\n      swap1\n      tag_226\n      jump\t// in\n    tag_262:\n      swap3\n      pop\n      pop\n      dup2\n      swap1\n      sstore\n      pop\n        /* \"contracts/Fast/Contract_1.sol\":4604:4605  1 */\n      0x01\n        /* \"contracts/Fast/Contract_1.sol\":4580:4588  Requests */\n      0x09\n        /* \"contracts/Fast/Contract_1.sol\":4580:4600  Requests[msg.sender] */\n      0x00\n        /* \"contracts/Fast/Contract_1.sol\":4589:4599  msg.sender */\n      caller\n        /* \"contracts/Fast/Contract_1.sol\":4580:4600  Requests[msg.sender] */\n      0xffffffffffffffffffffffffffffffffffffffff\n      and\n      0xffffffffffffffffffffffffffffffffffffffff\n      and\n      dup2\n      mstore\n      0x20\n      add\n      swap1\n      dup2\n      mstore\n      0x20\n      add\n      0x00\n      keccak256\n      0x00\n        /* \"contracts/Fast/Contract_1.sol\":4580:4605  Requests[msg.sender] += 1 */\n      dup3\n      dup3\n      sload\n      tag_263\n      swap2\n      swap1\n      tag_226\n      jump\t// in\n    tag_263:\n      swap3\n      pop\n      pop\n      dup2\n      swap1\n      sstore\n      pop\n        /* \"contracts/Fast/Contract_1.sol\":4644:4665  TotalVender.current() */\n      tag_264\n        /* \"contracts/Fast/Contract_1.sol\":4644:4655  TotalVender */\n      0x01\n        /* \"contracts/Fast/Contract_1.sol\":4644:4663  TotalVender.current */\n      tag_228\n        /* \"contracts/Fast/Contract_1.sol\":4644:4665  TotalVender.current() */\n      jump\t// in\n    tag_264:\n        /* \"contracts/Fast/Contract_1.sol\":4615:4621  Finder */\n      0x0b\n        /* \"contracts/Fast/Contract_1.sol\":4615:4629  Finder[_token] */\n      0x00\n        /* \"contracts/Fast/Contract_1.sol\":4622:4628  _token */\n      dup7\n        /* \"contracts/Fast/Contract_1.sol\":4615:4629  Finder[_token] */\n      dup2\n      mstore\n      0x20\n      add\n      swap1\n      dup2\n      mstore\n      0x20\n      add\n      0x00\n      keccak256\n        /* \"contracts/Fast/Contract_1.sol\":4615:4641  Finder[_token][msg.sender] */\n      0x00\n        /* \"contracts/Fast/Contract_1.sol\":4630:4640  msg.sender */\n      caller\n        /* \"contracts/Fast/Contract_1.sol\":4615:4641  Finder[_token][msg.sender] */\n      0xffffffffffffffffffffffffffffffffffffffff\n      and\n      0xffffffffffffffffffffffffffffffffffffffff\n      and\n      dup2\n      mstore\n      0x20\n      add\n      swap1\n      dup2\n      mstore\n      0x20\n      add\n      0x00\n      keccak256\n        /* \"contracts/Fast/Contract_1.sol\":4615:4665  Finder[_token][msg.sender] = TotalVender.current() */\n      dup2\n      swap1\n      sstore\n      pop\n        /* \"contracts/Fast/Contract_1.sol\":4716:4799  Vender(_token,_price,_description,msg.sender,0, _delevered * 60,RatAge(msg.sender)) */\n      mload(0x40)\n      dup1\n      0xe0\n      add\n      0x40\n      mstore\n      dup1\n        /* \"contracts/Fast/Contract_1.sol\":4723:4729  _token */\n      dup6\n        /* \"contracts/Fast/Contract_1.sol\":4716:4799  Vender(_token,_price,_description,msg.sender,0, _delevered * 60,RatAge(msg.sender)) */\n      dup2\n      mstore\n      0x20\n      add\n        /* \"contracts/Fast/Contract_1.sol\":4730:4736  _price */\n      dup5\n        /* \"contracts/Fast/Contract_1.sol\":4716:4799  Vender(_token,_price,_description,msg.sender,0, _delevered * 60,RatAge(msg.sender)) */\n      dup2\n      mstore\n      0x20\n      add\n        /* \"contracts/Fast/Contract_1.sol\":4737:4749  _description */\n      dup4\n        /* \"contracts/Fast/Contract_1.sol\":4716:4799  Vender(_token,_price,_description,msg.sender,0, _delevered * 60,RatAge(msg.sender)) */\n      dup2\n      mstore\n      0x20\n      add\n        /* \"contracts/Fast/Contract_1.sol\":4750:4760  msg.sender */\n      caller\n        /* \"contracts/Fast/Contract_1.sol\":4716:4799  Vender(_token,_price,_description,msg.sender,0, _delevered * 60,RatAge(msg.sender)) */\n      0xffffffffffffffffffffffffffffffffffffffff\n      and\n      dup2\n      mstore\n      0x20\n      add\n        /* \"contracts/Fast/Contract_1.sol\":4761:4762  0 */\n      0x00\n        /* \"contracts/Fast/Contract_1.sol\":4716:4799  Vender(_token,_price,_description,msg.sender,0, _delevered * 60,RatAge(msg.sender)) */\n      dup2\n      mstore\n      0x20\n      add\n        /* \"contracts/Fast/Contract_1.sol\":4777:4779  60 */\n      0x3c\n        /* \"contracts/Fast/Contract_1.sol\":4764:4774  _delevered */\n      dup4\n        /* \"contracts/Fast/Contract_1.sol\":4764:4779  _delevered * 60 */\n      tag_265\n      swap2\n      swap1\n      tag_230\n      jump\t// in\n    tag_265:\n        /* \"contracts/Fast/Contract_1.sol\":4716:4799  Vender(_token,_price,_description,msg.sender,0, _delevered * 60,RatAge(msg.sender)) */\n      dup2\n      mstore\n      0x20\n      add\n        /* \"contracts/Fast/Contract_1.sol\":4780:4798  RatAge(msg.sender) */\n      tag_266\n        /* \"contracts/Fast/Contract_1.sol\":4787:4797  msg.sender */\n      caller\n        /* \"contracts/Fast/Contract_1.sol\":4780:4786  RatAge */\n      tag_116\n        /* \"contracts/Fast/Contract_1.sol\":4780:4798  RatAge(msg.sender) */\n      jump\t// in\n    tag_266:\n        /* \"contracts/Fast/Contract_1.sol\":4716:4799  Vender(_token,_price,_description,msg.sender,0, _delevered * 60,RatAge(msg.sender)) */\n      dup2\n      mstore\n      pop\n        /* \"contracts/Fast/Contract_1.sol\":4675:4682  Venders */\n      0x07\n        /* \"contracts/Fast/Contract_1.sol\":4675:4705  Venders[TotalVender.current()] */\n      0x00\n        /* \"contracts/Fast/Contract_1.sol\":4683:4704  TotalVender.current() */\n      tag_267\n        /* \"contracts/Fast/Contract_1.sol\":4683:4694  TotalVender */\n      0x01\n        /* \"contracts/Fast/Contract_1.sol\":4683:4702  TotalVender.current */\n      tag_228\n        /* \"contracts/Fast/Contract_1.sol\":4683:4704  TotalVender.current() */\n      jump\t// in\n    tag_267:\n        /* \"contracts/Fast/Contract_1.sol\":4675:4705  Venders[TotalVender.current()] */\n      dup2\n      mstore\n      0x20\n      add\n      swap1\n      dup2\n      mstore\n      0x20\n      add\n      0x00\n      keccak256\n        /* \"contracts/Fast/Contract_1.sol\":4675:4713  Venders[TotalVender.current()][_token] */\n      0x00\n        /* \"contracts/Fast/Contract_1.sol\":4706:4712  _token */\n      dup7\n        /* \"contracts/Fast/Contract_1.sol\":4675:4713  Venders[TotalVender.current()][_token] */\n      dup2\n      mstore\n      0x20\n      add\n      swap1\n      dup2\n      mstore\n      0x20\n      add\n      0x00\n      keccak256\n        /* \"contracts/Fast/Contract_1.sol\":4675:4799  Venders[TotalVender.current()][_token] = Vender(_token,_price,_description,msg.sender,0, _delevered * 60,RatAge(msg.sender)) */\n      0x00\n      dup3\n      add\n      mload\n      dup2\n      0x00\n      add\n      sstore\n      0x20\n      dup3\n      add\n      mload\n      dup2\n      0x01\n      add\n      sstore\n      0x40\n      dup3\n      add\n      mload\n      dup2\n      0x02\n      add\n      swap1\n      dup1\n      mload\n      swap1\n      0x20\n      add\n      swap1\n      tag_268\n      swap3\n      swap2\n      swap1\n      tag_234\n      jump\t// in\n    tag_268:\n      pop\n      0x60\n      dup3\n      add\n      mload\n      dup2\n      0x03\n      add\n      exp(0x0100, 0x00)\n      dup2\n      sload\n      dup2\n      0xffffffffffffffffffffffffffffffffffffffff\n      mul\n      not\n      and\n      swap1\n      dup4\n      0xffffffffffffffffffffffffffffffffffffffff\n      and\n      mul\n      or\n      swap1\n      sstore\n      pop\n      0x80\n      dup3\n      add\n      mload\n      dup2\n      0x04\n      add\n      sstore\n      0xa0\n      dup3\n      add\n      mload\n      dup2\n      0x05\n      add\n      sstore\n      0xc0\n      dup3\n      add\n      mload\n      dup2\n      0x06\n      add\n      swap1\n      dup1\n      mload\n      swap1\n      0x20\n      add\n      swap1\n      tag_269\n      swap3\n      swap2\n      swap1\n      tag_234\n      jump\t// in\n    tag_269:\n      pop\n      swap1\n      pop\n      pop\n        /* \"contracts/Fast/Contract_1.sol\":4154:4806  function vender(uint256 _token,uint256 _price,string memory _description,uint256 _delevered) public {... */\n      pop\n      pop\n      pop\n      pop\n      jump\t// out\n        /* \"contracts/Fast/Contract_1.sol\":1541:1580  mapping(uint256 => Tender) public Total */\n    tag_110:\n      mstore(0x20, 0x06)\n      dup1\n      0x00\n      mstore\n      keccak256(0x00, 0x40)\n      0x00\n      swap2\n      pop\n      swap1\n      pop\n      dup1\n      0x00\n      add\n      sload\n      swap1\n      dup1\n      0x01\n      add\n      dup1\n      sload\n      tag_270\n      swap1\n      tag_212\n      jump\t// in\n    tag_270:\n      dup1\n      0x1f\n      add\n      0x20\n      dup1\n      swap2\n      div\n      mul\n      0x20\n      add\n      mload(0x40)\n      swap1\n      dup2\n      add\n      0x40\n      mstore\n      dup1\n      swap3\n      swap2\n      swap1\n      dup2\n      dup2\n      mstore\n      0x20\n      add\n      dup3\n      dup1\n      sload\n      tag_271\n      swap1\n      tag_212\n      jump\t// in\n    tag_271:\n      dup1\n      iszero\n      tag_272\n      jumpi\n      dup1\n      0x1f\n      lt\n      tag_273\n      jumpi\n      0x0100\n      dup1\n      dup4\n      sload\n      div\n      mul\n      dup4\n      mstore\n      swap2\n      0x20\n      add\n      swap2\n      jump(tag_272)\n    tag_273:\n      dup3\n      add\n      swap2\n      swap1\n      0x00\n      mstore\n      keccak256(0x00, 0x20)\n      swap1\n    tag_274:\n      dup2\n      sload\n      dup2\n      mstore\n      swap1\n      0x01\n      add\n      swap1\n      0x20\n      add\n      dup1\n      dup4\n      gt\n      tag_274\n      jumpi\n      dup3\n      swap1\n      sub\n      0x1f\n      and\n      dup3\n      add\n      swap2\n    tag_272:\n      pop\n      pop\n      pop\n      pop\n      pop\n      swap1\n      dup1\n      0x02\n      add\n      sload\n      swap1\n      dup1\n      0x03\n      add\n      sload\n      swap1\n      dup1\n      0x04\n      add\n      sload\n      swap1\n      dup1\n      0x05\n      add\n      sload\n      swap1\n      dup1\n      0x06\n      add\n      dup1\n      sload\n      tag_275\n      swap1\n      tag_212\n      jump\t// in\n    tag_275:\n      dup1\n      0x1f\n      add\n      0x20\n      dup1\n      swap2\n      div\n      mul\n      0x20\n      add\n      mload(0x40)\n      swap1\n      dup2\n      add\n      0x40\n      mstore\n      dup1\n      swap3\n      swap2\n      swap1\n      dup2\n      dup2\n      mstore\n      0x20\n      add\n      dup3\n      dup1\n      sload\n      tag_276\n      swap1\n      tag_212\n      jump\t// in\n    tag_276:\n      dup1\n      iszero\n      tag_277\n      jumpi\n      dup1\n      0x1f\n      lt\n      tag_278\n      jumpi\n      0x0100\n      dup1\n      dup4\n      sload\n      div\n      mul\n      dup4\n      mstore\n      swap2\n      0x20\n      add\n      swap2\n      jump(tag_277)\n    tag_278:\n      dup3\n      add\n      swap2\n      swap1\n      0x00\n      mstore\n      keccak256(0x00, 0x20)\n      swap1\n    tag_279:\n      dup2\n      sload\n      dup2\n      mstore\n      swap1\n      0x01\n      add\n      swap1\n      0x20\n      add\n      dup1\n      dup4\n      gt\n      tag_279\n      jumpi\n      dup3\n      swap1\n      sub\n      0x1f\n      and\n      dup3\n      add\n      swap2\n    tag_277:\n      pop\n      pop\n      pop\n      pop\n      pop\n      swap1\n      dup1\n      0x07\n      add\n      dup1\n      sload\n      tag_280\n      swap1\n      tag_212\n      jump\t// in\n    tag_280:\n      dup1\n      0x1f\n      add\n      0x20\n      dup1\n      swap2\n      div\n      mul\n      0x20\n      add\n      mload(0x40)\n      swap1\n      dup2\n      add\n      0x40\n      mstore\n      dup1\n      swap3\n      swap2\n      swap1\n      dup2\n      dup2\n      mstore\n      0x20\n      add\n      dup3\n      dup1\n      sload\n      tag_281\n      swap1\n      tag_212\n      jump\t// in\n    tag_281:\n      dup1\n      iszero\n      tag_282\n      jumpi\n      dup1\n      0x1f\n      lt\n      tag_283\n      jumpi\n      0x0100\n      dup1\n      dup4\n      sload\n      div\n      mul\n      dup4\n      mstore\n      swap2\n      0x20\n      add\n      swap2\n      jump(tag_282)\n    tag_283:\n      dup3\n      add\n      swap2\n      swap1\n      0x00\n      mstore\n      keccak256(0x00, 0x20)\n      swap1\n    tag_284:\n      dup2\n      sload\n      dup2\n      mstore\n      swap1\n      0x01\n      add\n      swap1\n      0x20\n      add\n      dup1\n      dup4\n      gt\n      tag_284\n      jumpi\n      dup3\n      swap1\n      sub\n      0x1f\n      and\n      dup3\n      add\n      swap2\n    tag_282:\n      pop\n      pop\n      pop\n      pop\n      pop\n      swap1\n      dup1\n      0x08\n      add\n      0x00\n      swap1\n      sload\n      swap1\n      0x0100\n      exp\n      swap1\n      div\n      0xffffffffffffffffffffffffffffffffffffffff\n      and\n      swap1\n      pop\n      dup10\n      jump\t// out\n        /* \"contracts/Fast/Contract_1.sol\":7206:8097  function RatAge(address _to) public view returns (string memory result) {... */\n    tag_116:\n        /* \"contracts/Fast/Contract_1.sol\":7256:7276  string memory result */\n      0x60\n        /* \"contracts/Fast/Contract_1.sol\":7288:7302  uint256 factor */\n      0x00\n        /* \"contracts/Fast/Contract_1.sol\":7305:7310  10**1 */\n      0x0a\n        /* \"contracts/Fast/Contract_1.sol\":7288:7310  uint256 factor = 10**1 */\n      swap1\n      pop\n        /* \"contracts/Fast/Contract_1.sol\":7352:7353  0 */\n      0x00\n        /* \"contracts/Fast/Contract_1.sol\":7323:7334  DaysDetails */\n      0x0a\n        /* \"contracts/Fast/Contract_1.sol\":7323:7339  DaysDetails[_to] */\n      0x00\n        /* \"contracts/Fast/Contract_1.sol\":7335:7338  _to */\n      dup6\n        /* \"contracts/Fast/Contract_1.sol\":7323:7339  DaysDetails[_to] */\n      0xffffffffffffffffffffffffffffffffffffffff\n      and\n      0xffffffffffffffffffffffffffffffffffffffff\n      and\n      dup2\n      mstore\n      0x20\n      add\n      swap1\n      dup2\n      mstore\n      0x20\n      add\n      0x00\n      keccak256\n        /* \"contracts/Fast/Contract_1.sol\":7323:7349  DaysDetails[_to].Delivered */\n      0x00\n      add\n      sload\n        /* \"contracts/Fast/Contract_1.sol\":7323:7353  DaysDetails[_to].Delivered > 0 */\n      gt\n        /* \"contracts/Fast/Contract_1.sol\":7320:8091  if(DaysDetails[_to].Delivered > 0) {... */\n      iszero\n      tag_286\n      jumpi\n        /* \"contracts/Fast/Contract_1.sol\":7369:7383  uint256 rating */\n      0x00\n        /* \"contracts/Fast/Contract_1.sol\":7478:7486  Requests */\n      0x09\n        /* \"contracts/Fast/Contract_1.sol\":7478:7491  Requests[_to] */\n      0x00\n        /* \"contracts/Fast/Contract_1.sol\":7487:7490  _to */\n      dup6\n        /* \"contracts/Fast/Contract_1.sol\":7478:7491  Requests[_to] */\n      0xffffffffffffffffffffffffffffffffffffffff\n      and\n      0xffffffffffffffffffffffffffffffffffffffff\n      and\n      dup2\n      mstore\n      0x20\n      add\n      swap1\n      dup2\n      mstore\n      0x20\n      add\n      0x00\n      keccak256\n      sload\n        /* \"contracts/Fast/Contract_1.sol\":7472:7474  40 */\n      0x28\n        /* \"contracts/Fast/Contract_1.sol\":7452:7464  accceptedReq */\n      0x0f\n        /* \"contracts/Fast/Contract_1.sol\":7452:7469  accceptedReq[_to] */\n      0x00\n        /* \"contracts/Fast/Contract_1.sol\":7465:7468  _to */\n      dup8\n        /* \"contracts/Fast/Contract_1.sol\":7452:7469  accceptedReq[_to] */\n      0xffffffffffffffffffffffffffffffffffffffff\n      and\n      0xffffffffffffffffffffffffffffffffffffffff\n      and\n      dup2\n      mstore\n      0x20\n      add\n      swap1\n      dup2\n      mstore\n      0x20\n      add\n      0x00\n      keccak256\n      sload\n        /* \"contracts/Fast/Contract_1.sol\":7452:7474  accceptedReq[_to] * 40 */\n      tag_287\n      swap2\n      swap1\n      tag_230\n      jump\t// in\n    tag_287:\n        /* \"contracts/Fast/Contract_1.sol\":7451:7491  (accceptedReq[_to] * 40) / Requests[_to] */\n      tag_288\n      swap2\n      swap1\n      tag_289\n      jump\t// in\n    tag_288:\n        /* \"contracts/Fast/Contract_1.sol\":7420:7431  DaysDetails */\n      0x0a\n        /* \"contracts/Fast/Contract_1.sol\":7420:7436  DaysDetails[_to] */\n      0x00\n        /* \"contracts/Fast/Contract_1.sol\":7432:7435  _to */\n      dup7\n        /* \"contracts/Fast/Contract_1.sol\":7420:7436  DaysDetails[_to] */\n      0xffffffffffffffffffffffffffffffffffffffff\n      and\n      0xffffffffffffffffffffffffffffffffffffffff\n      and\n      dup2\n      mstore\n      0x20\n      add\n      swap1\n      dup2\n      mstore\n      0x20\n      add\n      0x00\n      keccak256\n        /* \"contracts/Fast/Contract_1.sol\":7420:7446  DaysDetails[_to].Delivered */\n      0x00\n      add\n      sload\n        /* \"contracts/Fast/Contract_1.sol\":7414:7416  60 */\n      0x3c\n        /* \"contracts/Fast/Contract_1.sol\":7389:7400  DaysDetails */\n      0x0a\n        /* \"contracts/Fast/Contract_1.sol\":7389:7405  DaysDetails[_to] */\n      0x00\n        /* \"contracts/Fast/Contract_1.sol\":7401:7404  _to */\n      dup9\n        /* \"contracts/Fast/Contract_1.sol\":7389:7405  DaysDetails[_to] */\n      0xffffffffffffffffffffffffffffffffffffffff\n      and\n      0xffffffffffffffffffffffffffffffffffffffff\n      and\n      dup2\n      mstore\n      0x20\n      add\n      swap1\n      dup2\n      mstore\n      0x20\n      add\n      0x00\n      keccak256\n        /* \"contracts/Fast/Contract_1.sol\":7389:7411  DaysDetails[_to].Total */\n      0x01\n      add\n      sload\n        /* \"contracts/Fast/Contract_1.sol\":7389:7416  DaysDetails[_to].Total * 60 */\n      tag_290\n      swap2\n      swap1\n      tag_230\n      jump\t// in\n    tag_290:\n        /* \"contracts/Fast/Contract_1.sol\":7388:7446  (DaysDetails[_to].Total * 60) / DaysDetails[_to].Delivered */\n      tag_291\n      swap2\n      swap1\n      tag_289\n      jump\t// in\n    tag_291:\n        /* \"contracts/Fast/Contract_1.sol\":7387:7492  ((DaysDetails[_to].Total * 60) / DaysDetails[_to].Delivered) + ((accceptedReq[_to] * 40) / Requests[_to]) */\n      tag_292\n      swap2\n      swap1\n      tag_226\n      jump\t// in\n    tag_292:\n        /* \"contracts/Fast/Contract_1.sol\":7369:7493  uint256 rating = (((DaysDetails[_to].Total * 60) / DaysDetails[_to].Delivered) + ((accceptedReq[_to] * 40) / Requests[_to])) */\n      swap1\n      pop\n        /* \"contracts/Fast/Contract_1.sol\":7507:7524  uint256 numerator */\n      0x00\n        /* \"contracts/Fast/Contract_1.sol\":7537:7538  5 */\n      0x05\n        /* \"contracts/Fast/Contract_1.sol\":7528:7534  rating */\n      dup3\n        /* \"contracts/Fast/Contract_1.sol\":7528:7538  rating * 5 */\n      tag_293\n      swap2\n      swap1\n      tag_230\n      jump\t// in\n    tag_293:\n        /* \"contracts/Fast/Contract_1.sol\":7507:7539  uint256 numerator = (rating * 5) */\n      swap1\n      pop\n        /* \"contracts/Fast/Contract_1.sol\":7553:7569  uint256 quotient */\n      0x00\n        /* \"contracts/Fast/Contract_1.sol\":7584:7587  100 */\n      0x64\n        /* \"contracts/Fast/Contract_1.sol\":7572:7581  numerator */\n      dup3\n        /* \"contracts/Fast/Contract_1.sol\":7572:7587  numerator / 100 */\n      tag_294\n      swap2\n      swap1\n      tag_289\n      jump\t// in\n    tag_294:\n        /* \"contracts/Fast/Contract_1.sol\":7553:7587  uint256 quotient = numerator / 100 */\n      swap1\n      pop\n        /* \"contracts/Fast/Contract_1.sol\":7601:7618  uint256 remainder */\n      0x00\n        /* \"contracts/Fast/Contract_1.sol\":7652:7658  factor */\n      dup5\n        /* \"contracts/Fast/Contract_1.sol\":7645:7648  100 */\n      0x64\n        /* \"contracts/Fast/Contract_1.sol\":7635:7641  factor */\n      dup7\n        /* \"contracts/Fast/Contract_1.sol\":7623:7632  numerator */\n      dup6\n        /* \"contracts/Fast/Contract_1.sol\":7623:7641  numerator * factor */\n      tag_295\n      swap2\n      swap1\n      tag_230\n      jump\t// in\n    tag_295:\n        /* \"contracts/Fast/Contract_1.sol\":7622:7648  (numerator * factor) / 100 */\n      tag_296\n      swap2\n      swap1\n      tag_289\n      jump\t// in\n    tag_296:\n        /* \"contracts/Fast/Contract_1.sol\":7621:7658  ((numerator * factor) / 100) % factor */\n      tag_297\n      swap2\n      swap1\n      tag_298\n      jump\t// in\n    tag_297:\n        /* \"contracts/Fast/Contract_1.sol\":7601:7658  uint256 remainder = ((numerator * factor) / 100) % factor */\n      swap1\n      pop\n        /* \"contracts/Fast/Contract_1.sol\":7703:7722  quotient.toString() */\n      tag_299\n        /* \"contracts/Fast/Contract_1.sol\":7703:7711  quotient */\n      dup3\n        /* \"contracts/Fast/Contract_1.sol\":7703:7720  quotient.toString */\n      tag_300\n        /* \"contracts/Fast/Contract_1.sol\":7703:7722  quotient.toString() */\n      jump\t// in\n    tag_299:\n        /* \"contracts/Fast/Contract_1.sol\":7727:7747  remainder.toString() */\n      tag_301\n        /* \"contracts/Fast/Contract_1.sol\":7727:7736  remainder */\n      dup3\n        /* \"contracts/Fast/Contract_1.sol\":7727:7745  remainder.toString */\n      tag_300\n        /* \"contracts/Fast/Contract_1.sol\":7727:7747  remainder.toString() */\n      jump\t// in\n    tag_301:\n        /* \"contracts/Fast/Contract_1.sol\":7686:7748  abi.encodePacked(quotient.toString(),\".\",remainder.toString()) */\n      add(0x20, mload(0x40))\n      tag_302\n      swap3\n      swap2\n      swap1\n      tag_303\n      jump\t// in\n    tag_302:\n      mload(0x40)\n      0x20\n      dup2\n      dup4\n      sub\n      sub\n      dup2\n      mstore\n      swap1\n      0x40\n      mstore\n        /* \"contracts/Fast/Contract_1.sol\":7672:7749  return string(abi.encodePacked(quotient.toString(),\".\",remainder.toString())) */\n      swap6\n      pop\n      pop\n      pop\n      pop\n      pop\n      pop\n      jump(tag_285)\n        /* \"contracts/Fast/Contract_1.sol\":7320:8091  if(DaysDetails[_to].Delivered > 0) {... */\n    tag_286:\n        /* \"contracts/Fast/Contract_1.sol\":7787:7801  uint256 rating */\n      0x00\n        /* \"contracts/Fast/Contract_1.sol\":7810:7818  Requests */\n      0x09\n        /* \"contracts/Fast/Contract_1.sol\":7810:7823  Requests[_to] */\n      0x00\n        /* \"contracts/Fast/Contract_1.sol\":7819:7822  _to */\n      dup6\n        /* \"contracts/Fast/Contract_1.sol\":7810:7823  Requests[_to] */\n      0xffffffffffffffffffffffffffffffffffffffff\n      and\n      0xffffffffffffffffffffffffffffffffffffffff\n      and\n      dup2\n      mstore\n      0x20\n      add\n      swap1\n      dup2\n      mstore\n      0x20\n      add\n      0x00\n      keccak256\n      sload\n        /* \"contracts/Fast/Contract_1.sol\":7805:7807  20 */\n      0x14\n        /* \"contracts/Fast/Contract_1.sol\":7805:7823  20 + Requests[_to] */\n      tag_305\n      swap2\n      swap1\n      tag_226\n      jump\t// in\n    tag_305:\n        /* \"contracts/Fast/Contract_1.sol\":7787:7824  uint256 rating = (20 + Requests[_to]) */\n      swap1\n      pop\n        /* \"contracts/Fast/Contract_1.sol\":7838:7855  uint256 numerator */\n      0x00\n        /* \"contracts/Fast/Contract_1.sol\":7868:7869  5 */\n      0x05\n        /* \"contracts/Fast/Contract_1.sol\":7859:7865  rating */\n      dup3\n        /* \"contracts/Fast/Contract_1.sol\":7859:7869  rating * 5 */\n      tag_306\n      swap2\n      swap1\n      tag_230\n      jump\t// in\n    tag_306:\n        /* \"contracts/Fast/Contract_1.sol\":7838:7870  uint256 numerator = (rating * 5) */\n      swap1\n      pop\n        /* \"contracts/Fast/Contract_1.sol\":7884:7900  uint256 quotient */\n      0x00\n        /* \"contracts/Fast/Contract_1.sol\":7915:7918  100 */\n      0x64\n        /* \"contracts/Fast/Contract_1.sol\":7903:7912  numerator */\n      dup3\n        /* \"contracts/Fast/Contract_1.sol\":7903:7918  numerator / 100 */\n      tag_307\n      swap2\n      swap1\n      tag_289\n      jump\t// in\n    tag_307:\n        /* \"contracts/Fast/Contract_1.sol\":7884:7918  uint256 quotient = numerator / 100 */\n      swap1\n      pop\n        /* \"contracts/Fast/Contract_1.sol\":7932:7949  uint256 remainder */\n      0x00\n        /* \"contracts/Fast/Contract_1.sol\":7983:7989  factor */\n      dup5\n        /* \"contracts/Fast/Contract_1.sol\":7976:7979  100 */\n      0x64\n        /* \"contracts/Fast/Contract_1.sol\":7966:7972  factor */\n      dup7\n        /* \"contracts/Fast/Contract_1.sol\":7954:7963  numerator */\n      dup6\n        /* \"contracts/Fast/Contract_1.sol\":7954:7972  numerator * factor */\n      tag_308\n      swap2\n      swap1\n      tag_230\n      jump\t// in\n    tag_308:\n        /* \"contracts/Fast/Contract_1.sol\":7953:7979  (numerator * factor) / 100 */\n      tag_309\n      swap2\n      swap1\n      tag_289\n      jump\t// in\n    tag_309:\n        /* \"contracts/Fast/Contract_1.sol\":7952:7989  ((numerator * factor) / 100) % factor */\n      tag_310\n      swap2\n      swap1\n      tag_298\n      jump\t// in\n    tag_310:\n        /* \"contracts/Fast/Contract_1.sol\":7932:7989  uint256 remainder = ((numerator * factor) / 100) % factor */\n      swap1\n      pop\n        /* \"contracts/Fast/Contract_1.sol\":8034:8053  quotient.toString() */\n      tag_311\n        /* \"contracts/Fast/Contract_1.sol\":8034:8042  quotient */\n      dup3\n        /* \"contracts/Fast/Contract_1.sol\":8034:8051  quotient.toString */\n      tag_300\n        /* \"contracts/Fast/Contract_1.sol\":8034:8053  quotient.toString() */\n      jump\t// in\n    tag_311:\n        /* \"contracts/Fast/Contract_1.sol\":8058:8078  remainder.toString() */\n      tag_312\n        /* \"contracts/Fast/Contract_1.sol\":8058:8067  remainder */\n      dup3\n        /* \"contracts/Fast/Contract_1.sol\":8058:8076  remainder.toString */\n      tag_300\n        /* \"contracts/Fast/Contract_1.sol\":8058:8078  remainder.toString() */\n      jump\t// in\n    tag_312:\n        /* \"contracts/Fast/Contract_1.sol\":8017:8079  abi.encodePacked(quotient.toString(),\".\",remainder.toString()) */\n      add(0x20, mload(0x40))\n      tag_313\n      swap3\n      swap2\n      swap1\n      tag_303\n      jump\t// in\n    tag_313:\n      mload(0x40)\n      0x20\n      dup2\n      dup4\n      sub\n      sub\n      dup2\n      mstore\n      swap1\n      0x40\n      mstore\n        /* \"contracts/Fast/Contract_1.sol\":8003:8080  return string(abi.encodePacked(quotient.toString(),\".\",remainder.toString())) */\n      swap6\n      pop\n      pop\n      pop\n      pop\n      pop\n      pop\n        /* \"contracts/Fast/Contract_1.sol\":7206:8097  function RatAge(address _to) public view returns (string memory result) {... */\n    tag_285:\n      swap2\n      swap1\n      pop\n      jump\t// out\n        /* \"contracts/Fast/Contract_1.sol\":482:505  address public Contract */\n    tag_121:\n      0x02\n      0x00\n      swap1\n      sload\n      swap1\n      0x0100\n      exp\n      swap1\n      div\n      0xffffffffffffffffffffffffffffffffffffffff\n      and\n      dup2\n      jump\t// out\n        /* \"contracts/Fast/Contract_1.sol\":2108:2155  mapping(address => uint256) public accceptedReq */\n    tag_127:\n      mstore(0x20, 0x0f)\n      dup1\n      0x00\n      mstore\n      keccak256(0x00, 0x40)\n      0x00\n      swap2\n      pop\n      swap1\n      pop\n      sload\n      dup2\n      jump\t// out\n        /* \"contracts/Fast/Contract_1.sol\":1425:1484  mapping(address => mapping(uint256 => bool)) public Pending */\n    tag_132:\n      mstore(0x20, 0x04)\n      dup2\n      0x00\n      mstore\n      mstore(0x20, keccak256(0x00, 0x40))\n      dup1\n      0x00\n      mstore\n      keccak256(0x00, 0x40)\n      0x00\n      swap2\n      pop\n      swap2\n      pop\n      swap1\n      sload\n      swap1\n      0x0100\n      exp\n      swap1\n      div\n      0xff\n      and\n      dup2\n      jump\t// out\n        /* \"contracts/Fast/Contract_1.sol\":2033:2102  mapping(address => mapping(uint256 => uint256)) public RattingDetails */\n    tag_137:\n      mstore(0x20, 0x0e)\n      dup2\n      0x00\n      mstore\n      mstore(0x20, keccak256(0x00, 0x40))\n      dup1\n      0x00\n      mstore\n      keccak256(0x00, 0x40)\n      0x00\n      swap2\n      pop\n      swap2\n      pop\n      pop\n      sload\n      dup2\n      jump\t// out\n        /* \"contracts/Fast/Contract_1.sol\":4812:5248  function AllVender(uint256 _token) public view returns (Vender[] memory) {... */\n    tag_142:\n        /* \"contracts/Fast/Contract_1.sol\":4868:4883  Vender[] memory */\n      0x60\n        /* \"contracts/Fast/Contract_1.sol\":4895:4922  Vender[] memory memoryArray */\n      0x00\n        /* \"contracts/Fast/Contract_1.sol\":4938:4948  SizeVender */\n      0x05\n        /* \"contracts/Fast/Contract_1.sol\":4938:4956  SizeVender[_token] */\n      0x00\n        /* \"contracts/Fast/Contract_1.sol\":4949:4955  _token */\n      dup5\n        /* \"contracts/Fast/Contract_1.sol\":4938:4956  SizeVender[_token] */\n      dup2\n      mstore\n      0x20\n      add\n      swap1\n      dup2\n      mstore\n      0x20\n      add\n      0x00\n      keccak256\n      sload\n        /* \"contracts/Fast/Contract_1.sol\":4925:4957  new Vender[](SizeVender[_token]) */\n      0xffffffffffffffff\n      dup2\n      gt\n      iszero\n      tag_315\n      jumpi\n      tag_316\n      tag_317\n      jump\t// in\n    tag_316:\n    tag_315:\n      mload(0x40)\n      swap1\n      dup1\n      dup3\n      mstore\n      dup1\n      0x20\n      mul\n      0x20\n      add\n      dup3\n      add\n      0x40\n      mstore\n      dup1\n      iszero\n      tag_318\n      jumpi\n      dup2\n      0x20\n      add\n    tag_319:\n      tag_320\n      tag_321\n      jump\t// in\n    tag_320:\n      dup2\n      mstore\n      0x20\n      add\n      swap1\n      0x01\n      swap1\n      sub\n      swap1\n      dup2\n      tag_319\n      jumpi\n      swap1\n      pop\n    tag_318:\n      pop\n        /* \"contracts/Fast/Contract_1.sol\":4895:4957  Vender[] memory memoryArray = new Vender[](SizeVender[_token]) */\n      swap1\n      pop\n        /* \"contracts/Fast/Contract_1.sol\":4967:4982  uint256 counter */\n      0x00\n        /* \"contracts/Fast/Contract_1.sol\":5001:5010  uint256 i */\n      dup1\n        /* \"contracts/Fast/Contract_1.sol\":5013:5014  1 */\n      0x01\n        /* \"contracts/Fast/Contract_1.sol\":5001:5014  uint256 i = 1 */\n      swap1\n      pop\n        /* \"contracts/Fast/Contract_1.sol\":4996:5214  for (uint256 i = 1; i <= TotalVender.current(); i++) {... */\n    tag_322:\n        /* \"contracts/Fast/Contract_1.sol\":5021:5042  TotalVender.current() */\n      tag_325\n        /* \"contracts/Fast/Contract_1.sol\":5021:5032  TotalVender */\n      0x01\n        /* \"contracts/Fast/Contract_1.sol\":5021:5040  TotalVender.current */\n      tag_228\n        /* \"contracts/Fast/Contract_1.sol\":5021:5042  TotalVender.current() */\n      jump\t// in\n    tag_325:\n        /* \"contracts/Fast/Contract_1.sol\":5016:5017  i */\n      dup2\n        /* \"contracts/Fast/Contract_1.sol\":5016:5042  i <= TotalVender.current() */\n      gt\n        /* \"contracts/Fast/Contract_1.sol\":4996:5214  for (uint256 i = 1; i <= TotalVender.current(); i++) {... */\n      tag_323\n      jumpi\n        /* \"contracts/Fast/Contract_1.sol\":5077:5084  Venders */\n      0x07\n        /* \"contracts/Fast/Contract_1.sol\":5077:5087  Venders[i] */\n      0x00\n        /* \"contracts/Fast/Contract_1.sol\":5085:5086  i */\n      dup3\n        /* \"contracts/Fast/Contract_1.sol\":5077:5087  Venders[i] */\n      dup2\n      mstore\n      0x20\n      add\n      swap1\n      dup2\n      mstore\n      0x20\n      add\n      0x00\n      keccak256\n        /* \"contracts/Fast/Contract_1.sol\":5077:5095  Venders[i][_token] */\n      0x00\n        /* \"contracts/Fast/Contract_1.sol\":5088:5094  _token */\n      dup7\n        /* \"contracts/Fast/Contract_1.sol\":5077:5095  Venders[i][_token] */\n      dup2\n      mstore\n      0x20\n      add\n      swap1\n      dup2\n      mstore\n      0x20\n      add\n      0x00\n      keccak256\n        /* \"contracts/Fast/Contract_1.sol\":5077:5101  Venders[i][_token].Token */\n      0x00\n      add\n      sload\n        /* \"contracts/Fast/Contract_1.sol\":5067:5073  _token */\n      dup6\n        /* \"contracts/Fast/Contract_1.sol\":5067:5101  _token == Venders[i][_token].Token */\n      eq\n        /* \"contracts/Fast/Contract_1.sol\":5063:5204  if (_token == Venders[i][_token].Token) {... */\n      iszero\n      tag_326\n      jumpi\n        /* \"contracts/Fast/Contract_1.sol\":5144:5151  Venders */\n      0x07\n        /* \"contracts/Fast/Contract_1.sol\":5144:5154  Venders[i] */\n      0x00\n        /* \"contracts/Fast/Contract_1.sol\":5152:5153  i */\n      dup3\n        /* \"contracts/Fast/Contract_1.sol\":5144:5154  Venders[i] */\n      dup2\n      mstore\n      0x20\n      add\n      swap1\n      dup2\n      mstore\n      0x20\n      add\n      0x00\n      keccak256\n        /* \"contracts/Fast/Contract_1.sol\":5144:5162  Venders[i][_token] */\n      0x00\n        /* \"contracts/Fast/Contract_1.sol\":5155:5161  _token */\n      dup7\n        /* \"contracts/Fast/Contract_1.sol\":5144:5162  Venders[i][_token] */\n      dup2\n      mstore\n      0x20\n      add\n      swap1\n      dup2\n      mstore\n      0x20\n      add\n      0x00\n      keccak256\n        /* \"contracts/Fast/Contract_1.sol\":5121:5162  memoryArray[counter] = Venders[i][_token] */\n      mload(0x40)\n      dup1\n      0xe0\n      add\n      0x40\n      mstore\n      swap1\n      dup2\n      0x00\n      dup3\n      add\n      sload\n      dup2\n      mstore\n      0x20\n      add\n      0x01\n      dup3\n      add\n      sload\n      dup2\n      mstore\n      0x20\n      add\n      0x02\n      dup3\n      add\n      dup1\n      sload\n      tag_327\n      swap1\n      tag_212\n      jump\t// in\n    tag_327:\n      dup1\n      0x1f\n      add\n      0x20\n      dup1\n      swap2\n      div\n      mul\n      0x20\n      add\n      mload(0x40)\n      swap1\n      dup2\n      add\n      0x40\n      mstore\n      dup1\n      swap3\n      swap2\n      swap1\n      dup2\n      dup2\n      mstore\n      0x20\n      add\n      dup3\n      dup1\n      sload\n      tag_328\n      swap1\n      tag_212\n      jump\t// in\n    tag_328:\n      dup1\n      iszero\n      tag_329\n      jumpi\n      dup1\n      0x1f\n      lt\n      tag_330\n      jumpi\n      0x0100\n      dup1\n      dup4\n      sload\n      div\n      mul\n      dup4\n      mstore\n      swap2\n      0x20\n      add\n      swap2\n      jump(tag_329)\n    tag_330:\n      dup3\n      add\n      swap2\n      swap1\n      0x00\n      mstore\n      keccak256(0x00, 0x20)\n      swap1\n    tag_331:\n      dup2\n      sload\n      dup2\n      mstore\n      swap1\n      0x01\n      add\n      swap1\n      0x20\n      add\n      dup1\n      dup4\n      gt\n      tag_331\n      jumpi\n      dup3\n      swap1\n      sub\n      0x1f\n      and\n      dup3\n      add\n      swap2\n    tag_329:\n      pop\n      pop\n      pop\n      pop\n      pop\n      dup2\n      mstore\n      0x20\n      add\n      0x03\n      dup3\n      add\n      0x00\n      swap1\n      sload\n      swap1\n      0x0100\n      exp\n      swap1\n      div\n      0xffffffffffffffffffffffffffffffffffffffff\n      and\n      0xffffffffffffffffffffffffffffffffffffffff\n      and\n      0xffffffffffffffffffffffffffffffffffffffff\n      and\n      dup2\n      mstore\n      0x20\n      add\n      0x04\n      dup3\n      add\n      sload\n      dup2\n      mstore\n      0x20\n      add\n      0x05\n      dup3\n      add\n      sload\n      dup2\n      mstore\n      0x20\n      add\n      0x06\n      dup3\n      add\n      dup1\n      sload\n      tag_332\n      swap1\n      tag_212\n      jump\t// in\n    tag_332:\n      dup1\n      0x1f\n      add\n      0x20\n      dup1\n      swap2\n      div\n      mul\n      0x20\n      add\n      mload(0x40)\n      swap1\n      dup2\n      add\n      0x40\n      mstore\n      dup1\n      swap3\n      swap2\n      swap1\n      dup2\n      dup2\n      mstore\n      0x20\n      add\n      dup3\n      dup1\n      sload\n      tag_333\n      swap1\n      tag_212\n      jump\t// in\n    tag_333:\n      dup1\n      iszero\n      tag_334\n      jumpi\n      dup1\n      0x1f\n      lt\n      tag_335\n      jumpi\n      0x0100\n      dup1\n      dup4\n      sload\n      div\n      mul\n      dup4\n      mstore\n      swap2\n      0x20\n      add\n      swap2\n      jump(tag_334)\n    tag_335:\n      dup3\n      add\n      swap2\n      swap1\n      0x00\n      mstore\n      keccak256(0x00, 0x20)\n      swap1\n    tag_336:\n      dup2\n      sload\n      dup2\n      mstore\n      swap1\n      0x01\n      add\n      swap1\n      0x20\n      add\n      dup1\n      dup4\n      gt\n      tag_336\n      jumpi\n      dup3\n      swap1\n      sub\n      0x1f\n      and\n      dup3\n      add\n      swap2\n    tag_334:\n      pop\n      pop\n      pop\n      pop\n      pop\n      dup2\n      mstore\n      pop\n      pop\n        /* \"contracts/Fast/Contract_1.sol\":5121:5132  memoryArray */\n      dup4\n        /* \"contracts/Fast/Contract_1.sol\":5133:5140  counter */\n      dup4\n        /* \"contracts/Fast/Contract_1.sol\":5121:5141  memoryArray[counter] */\n      dup2\n      mload\n      dup2\n      lt\n      tag_337\n      jumpi\n      tag_338\n      tag_339\n      jump\t// in\n    tag_338:\n    tag_337:\n      0x20\n      mul\n      0x20\n      add\n      add\n        /* \"contracts/Fast/Contract_1.sol\":5121:5162  memoryArray[counter] = Venders[i][_token] */\n      dup2\n      swap1\n      mstore\n      pop\n        /* \"contracts/Fast/Contract_1.sol\":5180:5189  counter++ */\n      dup2\n      dup1\n      tag_340\n      swap1\n      tag_341\n      jump\t// in\n    tag_340:\n      swap3\n      pop\n      pop\n        /* \"contracts/Fast/Contract_1.sol\":5063:5204  if (_token == Venders[i][_token].Token) {... */\n    tag_326:\n        /* \"contracts/Fast/Contract_1.sol\":5044:5047  i++ */\n      dup1\n      dup1\n      tag_342\n      swap1\n      tag_341\n      jump\t// in\n    tag_342:\n      swap2\n      pop\n      pop\n        /* \"contracts/Fast/Contract_1.sol\":4996:5214  for (uint256 i = 1; i <= TotalVender.current(); i++) {... */\n      jump(tag_322)\n    tag_323:\n      pop\n        /* \"contracts/Fast/Contract_1.sol\":5230:5241  memoryArray */\n      dup2\n        /* \"contracts/Fast/Contract_1.sol\":5223:5241  return memoryArray */\n      swap3\n      pop\n      pop\n      pop\n        /* \"contracts/Fast/Contract_1.sol\":4812:5248  function AllVender(uint256 _token) public view returns (Vender[] memory) {... */\n      swap2\n      swap1\n      pop\n      jump\t// out\n        /* \"contracts/Fast/Contract_1.sol\":1811:1872  mapping(uint256 => mapping(address => uint256)) public Finder */\n    tag_148:\n      mstore(0x20, 0x0b)\n      dup2\n      0x00\n      mstore\n      mstore(0x20, keccak256(0x00, 0x40))\n      dup1\n      0x00\n      mstore\n      keccak256(0x00, 0x40)\n      0x00\n      swap2\n      pop\n      swap2\n      pop\n      pop\n      sload\n      dup2\n      jump\t// out\n        /* \"contracts/Fast/Contract_1.sol\":6113:6567  function AcceptInvitation(uint256 _token,address _receiver,address _to,uint256 _price) public {... */\n    tag_154:\n        /* \"contracts/Fast/Contract_1.sol\":6246:6275  Comm(_receiver, _price, true) */\n      mload(0x40)\n      dup1\n      0x60\n      add\n      0x40\n      mstore\n      dup1\n        /* \"contracts/Fast/Contract_1.sol\":6251:6260  _receiver */\n      dup5\n        /* \"contracts/Fast/Contract_1.sol\":6246:6275  Comm(_receiver, _price, true) */\n      0xffffffffffffffffffffffffffffffffffffffff\n      and\n      dup2\n      mstore\n      0x20\n      add\n        /* \"contracts/Fast/Contract_1.sol\":6262:6268  _price */\n      dup3\n        /* \"contracts/Fast/Contract_1.sol\":6246:6275  Comm(_receiver, _price, true) */\n      dup2\n      mstore\n      0x20\n      add\n        /* \"contracts/Fast/Contract_1.sol\":6270:6274  true */\n      0x01\n        /* \"contracts/Fast/Contract_1.sol\":6246:6275  Comm(_receiver, _price, true) */\n      iszero\n      iszero\n      dup2\n      mstore\n      pop\n        /* \"contracts/Fast/Contract_1.sol\":6217:6230  Communication */\n      0x0c\n        /* \"contracts/Fast/Contract_1.sol\":6217:6238  Communication[_token] */\n      0x00\n        /* \"contracts/Fast/Contract_1.sol\":6231:6237  _token */\n      dup7\n        /* \"contracts/Fast/Contract_1.sol\":6217:6238  Communication[_token] */\n      dup2\n      mstore\n      0x20\n      add\n      swap1\n      dup2\n      mstore\n      0x20\n      add\n      0x00\n      keccak256\n        /* \"contracts/Fast/Contract_1.sol\":6217:6243  Communication[_token][_to] */\n      0x00\n        /* \"contracts/Fast/Contract_1.sol\":6239:6242  _to */\n      dup5\n        /* \"contracts/Fast/Contract_1.sol\":6217:6243  Communication[_token][_to] */\n      0xffffffffffffffffffffffffffffffffffffffff\n      and\n      0xffffffffffffffffffffffffffffffffffffffff\n      and\n      dup2\n      mstore\n      0x20\n      add\n      swap1\n      dup2\n      mstore\n      0x20\n      add\n      0x00\n      keccak256\n        /* \"contracts/Fast/Contract_1.sol\":6217:6275  Communication[_token][_to] = Comm(_receiver, _price, true) */\n      0x00\n      dup3\n      add\n      mload\n      dup2\n      0x00\n      add\n      exp(0x0100, 0x00)\n      dup2\n      sload\n      dup2\n      0xffffffffffffffffffffffffffffffffffffffff\n      mul\n      not\n      and\n      swap1\n      dup4\n      0xffffffffffffffffffffffffffffffffffffffff\n      and\n      mul\n      or\n      swap1\n      sstore\n      pop\n      0x20\n      dup3\n      add\n      mload\n      dup2\n      0x01\n      add\n      sstore\n      0x40\n      dup3\n      add\n      mload\n      dup2\n      0x02\n      add\n      exp(0x0100, 0x00)\n      dup2\n      sload\n      dup2\n      0xff\n      mul\n      not\n      and\n      swap1\n      dup4\n      iszero\n      iszero\n      mul\n      or\n      swap1\n      sstore\n      pop\n      swap1\n      pop\n      pop\n        /* \"contracts/Fast/Contract_1.sol\":6321:6336  block.timestamp */\n      timestamp\n        /* \"contracts/Fast/Contract_1.sol\":6285:6299  RattingDetails */\n      0x0e\n        /* \"contracts/Fast/Contract_1.sol\":6285:6310  RattingDetails[_receiver] */\n      0x00\n        /* \"contracts/Fast/Contract_1.sol\":6300:6309  _receiver */\n      dup6\n        /* \"contracts/Fast/Contract_1.sol\":6285:6310  RattingDetails[_receiver] */\n      0xffffffffffffffffffffffffffffffffffffffff\n      and\n      0xffffffffffffffffffffffffffffffffffffffff\n      and\n      dup2\n      mstore\n      0x20\n      add\n      swap1\n      dup2\n      mstore\n      0x20\n      add\n      0x00\n      keccak256\n        /* \"contracts/Fast/Contract_1.sol\":6285:6318  RattingDetails[_receiver][_token] */\n      0x00\n        /* \"contracts/Fast/Contract_1.sol\":6311:6317  _token */\n      dup7\n        /* \"contracts/Fast/Contract_1.sol\":6285:6318  RattingDetails[_receiver][_token] */\n      dup2\n      mstore\n      0x20\n      add\n      swap1\n      dup2\n      mstore\n      0x20\n      add\n      0x00\n      keccak256\n        /* \"contracts/Fast/Contract_1.sol\":6285:6336  RattingDetails[_receiver][_token] = block.timestamp */\n      dup2\n      swap1\n      sstore\n      pop\n        /* \"contracts/Fast/Contract_1.sol\":6369:6373  true */\n      0x01\n        /* \"contracts/Fast/Contract_1.sol\":6346:6353  Pending */\n      0x04\n        /* \"contracts/Fast/Contract_1.sol\":6346:6358  Pending[_to] */\n      0x00\n        /* \"contracts/Fast/Contract_1.sol\":6354:6357  _to */\n      dup5\n        /* \"contracts/Fast/Contract_1.sol\":6346:6358  Pending[_to] */\n      0xffffffffffffffffffffffffffffffffffffffff\n      and\n      0xffffffffffffffffffffffffffffffffffffffff\n      and\n      dup2\n      mstore\n      0x20\n      add\n      swap1\n      dup2\n      mstore\n      0x20\n      add\n      0x00\n      keccak256\n        /* \"contracts/Fast/Contract_1.sol\":6346:6366  Pending[_to][_token] */\n      0x00\n        /* \"contracts/Fast/Contract_1.sol\":6359:6365  _token */\n      dup7\n        /* \"contracts/Fast/Contract_1.sol\":6346:6366  Pending[_to][_token] */\n      dup2\n      mstore\n      0x20\n      add\n      swap1\n      dup2\n      mstore\n      0x20\n      add\n      0x00\n      keccak256\n      0x00\n        /* \"contracts/Fast/Contract_1.sol\":6346:6373  Pending[_to][_token] = true */\n      0x0100\n      exp\n      dup2\n      sload\n      dup2\n      0xff\n      mul\n      not\n      and\n      swap1\n      dup4\n      iszero\n      iszero\n      mul\n      or\n      swap1\n      sstore\n      pop\n        /* \"contracts/Fast/Contract_1.sol\":6460:6467  Venders */\n      0x07\n        /* \"contracts/Fast/Contract_1.sol\":6460:6494  Venders[Finder[_token][_receiver]] */\n      0x00\n        /* \"contracts/Fast/Contract_1.sol\":6468:6474  Finder */\n      0x0b\n        /* \"contracts/Fast/Contract_1.sol\":6468:6482  Finder[_token] */\n      0x00\n        /* \"contracts/Fast/Contract_1.sol\":6475:6481  _token */\n      dup8\n        /* \"contracts/Fast/Contract_1.sol\":6468:6482  Finder[_token] */\n      dup2\n      mstore\n      0x20\n      add\n      swap1\n      dup2\n      mstore\n      0x20\n      add\n      0x00\n      keccak256\n        /* \"contracts/Fast/Contract_1.sol\":6468:6493  Finder[_token][_receiver] */\n      0x00\n        /* \"contracts/Fast/Contract_1.sol\":6483:6492  _receiver */\n      dup7\n        /* \"contracts/Fast/Contract_1.sol\":6468:6493  Finder[_token][_receiver] */\n      0xffffffffffffffffffffffffffffffffffffffff\n      and\n      0xffffffffffffffffffffffffffffffffffffffff\n      and\n      dup2\n      mstore\n      0x20\n      add\n      swap1\n      dup2\n      mstore\n      0x20\n      add\n      0x00\n      keccak256\n      sload\n        /* \"contracts/Fast/Contract_1.sol\":6460:6494  Venders[Finder[_token][_receiver]] */\n      dup2\n      mstore\n      0x20\n      add\n      swap1\n      dup2\n      mstore\n      0x20\n      add\n      0x00\n      keccak256\n        /* \"contracts/Fast/Contract_1.sol\":6460:6502  Venders[Finder[_token][_receiver]][_token] */\n      0x00\n        /* \"contracts/Fast/Contract_1.sol\":6495:6501  _token */\n      dup6\n        /* \"contracts/Fast/Contract_1.sol\":6460:6502  Venders[Finder[_token][_receiver]][_token] */\n      dup2\n      mstore\n      0x20\n      add\n      swap1\n      dup2\n      mstore\n      0x20\n      add\n      0x00\n      keccak256\n        /* \"contracts/Fast/Contract_1.sol\":6460:6512  Venders[Finder[_token][_receiver]][_token].Delivered */\n      0x05\n      add\n      sload\n        /* \"contracts/Fast/Contract_1.sol\":6441:6456  block.timestamp */\n      timestamp\n        /* \"contracts/Fast/Contract_1.sol\":6441:6513  block.timestamp + (Venders[Finder[_token][_receiver]][_token].Delivered) */\n      tag_344\n      swap2\n      swap1\n      tag_226\n      jump\t// in\n    tag_344:\n        /* \"contracts/Fast/Contract_1.sol\":6383:6390  Venders */\n      0x07\n        /* \"contracts/Fast/Contract_1.sol\":6383:6417  Venders[Finder[_token][_receiver]] */\n      0x00\n        /* \"contracts/Fast/Contract_1.sol\":6391:6397  Finder */\n      0x0b\n        /* \"contracts/Fast/Contract_1.sol\":6391:6405  Finder[_token] */\n      0x00\n        /* \"contracts/Fast/Contract_1.sol\":6398:6404  _token */\n      dup9\n        /* \"contracts/Fast/Contract_1.sol\":6391:6405  Finder[_token] */\n      dup2\n      mstore\n      0x20\n      add\n      swap1\n      dup2\n      mstore\n      0x20\n      add\n      0x00\n      keccak256\n        /* \"contracts/Fast/Contract_1.sol\":6391:6416  Finder[_token][_receiver] */\n      0x00\n        /* \"contracts/Fast/Contract_1.sol\":6406:6415  _receiver */\n      dup8\n        /* \"contracts/Fast/Contract_1.sol\":6391:6416  Finder[_token][_receiver] */\n      0xffffffffffffffffffffffffffffffffffffffff\n      and\n      0xffffffffffffffffffffffffffffffffffffffff\n      and\n      dup2\n      mstore\n      0x20\n      add\n      swap1\n      dup2\n      mstore\n      0x20\n      add\n      0x00\n      keccak256\n      sload\n        /* \"contracts/Fast/Contract_1.sol\":6383:6417  Venders[Finder[_token][_receiver]] */\n      dup2\n      mstore\n      0x20\n      add\n      swap1\n      dup2\n      mstore\n      0x20\n      add\n      0x00\n      keccak256\n        /* \"contracts/Fast/Contract_1.sol\":6383:6425  Venders[Finder[_token][_receiver]][_token] */\n      0x00\n        /* \"contracts/Fast/Contract_1.sol\":6418:6424  _token */\n      dup7\n        /* \"contracts/Fast/Contract_1.sol\":6383:6425  Venders[Finder[_token][_receiver]][_token] */\n      dup2\n      mstore\n      0x20\n      add\n      swap1\n      dup2\n      mstore\n      0x20\n      add\n      0x00\n      keccak256\n        /* \"contracts/Fast/Contract_1.sol\":6383:6438  Venders[Finder[_token][_receiver]][_token].DeleveryTime */\n      0x04\n      add\n        /* \"contracts/Fast/Contract_1.sol\":6383:6513  Venders[Finder[_token][_receiver]][_token].DeleveryTime = block.timestamp + (Venders[Finder[_token][_receiver]][_token].Delivered) */\n      dup2\n      swap1\n      sstore\n      pop\n        /* \"contracts/Fast/Contract_1.sol\":6556:6560  true */\n      0x01\n        /* \"contracts/Fast/Contract_1.sol\":6523:6529  Invite */\n      0x0d\n        /* \"contracts/Fast/Contract_1.sol\":6523:6534  Invite[_to] */\n      0x00\n        /* \"contracts/Fast/Contract_1.sol\":6530:6533  _to */\n      dup5\n        /* \"contracts/Fast/Contract_1.sol\":6523:6534  Invite[_to] */\n      0xffffffffffffffffffffffffffffffffffffffff\n      and\n      0xffffffffffffffffffffffffffffffffffffffff\n      and\n      dup2\n      mstore\n      0x20\n      add\n      swap1\n      dup2\n      mstore\n      0x20\n      add\n      0x00\n      keccak256\n        /* \"contracts/Fast/Contract_1.sol\":6523:6542  Invite[_to][_token] */\n      0x00\n        /* \"contracts/Fast/Contract_1.sol\":6535:6541  _token */\n      dup7\n        /* \"contracts/Fast/Contract_1.sol\":6523:6542  Invite[_to][_token] */\n      dup2\n      mstore\n      0x20\n      add\n      swap1\n      dup2\n      mstore\n      0x20\n      add\n      0x00\n      keccak256\n        /* \"contracts/Fast/Contract_1.sol\":6523:6553  Invite[_to][_token][_receiver] */\n      0x00\n        /* \"contracts/Fast/Contract_1.sol\":6543:6552  _receiver */\n      dup6\n        /* \"contracts/Fast/Contract_1.sol\":6523:6553  Invite[_to][_token][_receiver] */\n      0xffffffffffffffffffffffffffffffffffffffff\n      and\n      0xffffffffffffffffffffffffffffffffffffffff\n      and\n      dup2\n      mstore\n      0x20\n      add\n      swap1\n      dup2\n      mstore\n      0x20\n      add\n      0x00\n      keccak256\n      0x00\n        /* \"contracts/Fast/Contract_1.sol\":6523:6560  Invite[_to][_token][_receiver] = true */\n      0x0100\n      exp\n      dup2\n      sload\n      dup2\n      0xff\n      mul\n      not\n      and\n      swap1\n      dup4\n      iszero\n      iszero\n      mul\n      or\n      swap1\n      sstore\n      pop\n        /* \"contracts/Fast/Contract_1.sol\":6113:6567  function AcceptInvitation(uint256 _token,address _receiver,address _to,uint256 _price) public {... */\n      pop\n      pop\n      pop\n      pop\n      jump\t// out\n        /* \"contracts/Fast/Contract_1.sol\":1949:2027  mapping(address => mapping(uint256 => mapping(address => bool))) public Invite */\n    tag_159:\n      mstore(0x20, 0x0d)\n      dup3\n      0x00\n      mstore\n      mstore(0x20, keccak256(0x00, 0x40))\n      dup2\n      0x00\n      mstore\n      mstore(0x20, keccak256(0x00, 0x40))\n      dup1\n      0x00\n      mstore\n      keccak256(0x00, 0x40)\n      0x00\n      swap3\n      pop\n      swap3\n      pop\n      pop\n      swap1\n      sload\n      swap1\n      0x0100\n      exp\n      swap1\n      div\n      0xff\n      and\n      dup2\n      jump\t// out\n        /* \"contracts/Fast/Contract_1.sol\":1380:1419  mapping(address => uint256) public Size */\n    tag_164:\n      mstore(0x20, 0x03)\n      dup1\n      0x00\n      mstore\n      keccak256(0x00, 0x40)\n      0x00\n      swap2\n      pop\n      swap1\n      pop\n      sload\n      dup2\n      jump\t// out\n        /* \"contracts/Fast/Contract_1.sol\":3603:3942  function AllTender() public view returns (Tender[] memory) {... */\n    tag_168:\n        /* \"contracts/Fast/Contract_1.sol\":3645:3660  Tender[] memory */\n      0x60\n        /* \"contracts/Fast/Contract_1.sol\":3672:3699  Tender[] memory memoryArray */\n      0x00\n        /* \"contracts/Fast/Contract_1.sol\":3715:3736  TotalTender.current() */\n      tag_346\n        /* \"contracts/Fast/Contract_1.sol\":3715:3726  TotalTender */\n      0x00\n        /* \"contracts/Fast/Contract_1.sol\":3715:3734  TotalTender.current */\n      tag_228\n        /* \"contracts/Fast/Contract_1.sol\":3715:3736  TotalTender.current() */\n      jump\t// in\n    tag_346:\n        /* \"contracts/Fast/Contract_1.sol\":3702:3737  new Tender[](TotalTender.current()) */\n      0xffffffffffffffff\n      dup2\n      gt\n      iszero\n      tag_347\n      jumpi\n      tag_348\n      tag_317\n      jump\t// in\n    tag_348:\n    tag_347:\n      mload(0x40)\n      swap1\n      dup1\n      dup3\n      mstore\n      dup1\n      0x20\n      mul\n      0x20\n      add\n      dup3\n      add\n      0x40\n      mstore\n      dup1\n      iszero\n      tag_349\n      jumpi\n      dup2\n      0x20\n      add\n    tag_350:\n      tag_351\n      tag_352\n      jump\t// in\n    tag_351:\n      dup2\n      mstore\n      0x20\n      add\n      swap1\n      0x01\n      swap1\n      sub\n      swap1\n      dup2\n      tag_350\n      jumpi\n      swap1\n      pop\n    tag_349:\n      pop\n        /* \"contracts/Fast/Contract_1.sol\":3672:3737  Tender[] memory memoryArray = new Tender[](TotalTender.current()) */\n      swap1\n      pop\n        /* \"contracts/Fast/Contract_1.sol\":3747:3762  uint256 counter */\n      0x00\n        /* \"contracts/Fast/Contract_1.sol\":3781:3790  uint256 i */\n      dup1\n        /* \"contracts/Fast/Contract_1.sol\":3793:3794  1 */\n      0x01\n        /* \"contracts/Fast/Contract_1.sol\":3781:3794  uint256 i = 1 */\n      swap1\n      pop\n        /* \"contracts/Fast/Contract_1.sol\":3776:3908  for (uint256 i = 1; i <= TotalTender.current(); i++) {... */\n    tag_353:\n        /* \"contracts/Fast/Contract_1.sol\":3801:3822  TotalTender.current() */\n      tag_356\n        /* \"contracts/Fast/Contract_1.sol\":3801:3812  TotalTender */\n      0x00\n        /* \"contracts/Fast/Contract_1.sol\":3801:3820  TotalTender.current */\n      tag_228\n        /* \"contracts/Fast/Contract_1.sol\":3801:3822  TotalTender.current() */\n      jump\t// in\n    tag_356:\n        /* \"contracts/Fast/Contract_1.sol\":3796:3797  i */\n      dup2\n        /* \"contracts/Fast/Contract_1.sol\":3796:3822  i <= TotalTender.current() */\n      gt\n        /* \"contracts/Fast/Contract_1.sol\":3776:3908  for (uint256 i = 1; i <= TotalTender.current(); i++) {... */\n      tag_354\n      jumpi\n        /* \"contracts/Fast/Contract_1.sol\":3866:3871  Total */\n      0x06\n        /* \"contracts/Fast/Contract_1.sol\":3866:3874  Total[i] */\n      0x00\n        /* \"contracts/Fast/Contract_1.sol\":3872:3873  i */\n      dup3\n        /* \"contracts/Fast/Contract_1.sol\":3866:3874  Total[i] */\n      dup2\n      mstore\n      0x20\n      add\n      swap1\n      dup2\n      mstore\n      0x20\n      add\n      0x00\n      keccak256\n        /* \"contracts/Fast/Contract_1.sol\":3843:3874  memoryArray[counter] = Total[i] */\n      mload(0x40)\n      dup1\n      0x0120\n      add\n      0x40\n      mstore\n      swap1\n      dup2\n      0x00\n      dup3\n      add\n      sload\n      dup2\n      mstore\n      0x20\n      add\n      0x01\n      dup3\n      add\n      dup1\n      sload\n      tag_357\n      swap1\n      tag_212\n      jump\t// in\n    tag_357:\n      dup1\n      0x1f\n      add\n      0x20\n      dup1\n      swap2\n      div\n      mul\n      0x20\n      add\n      mload(0x40)\n      swap1\n      dup2\n      add\n      0x40\n      mstore\n      dup1\n      swap3\n      swap2\n      swap1\n      dup2\n      dup2\n      mstore\n      0x20\n      add\n      dup3\n      dup1\n      sload\n      tag_358\n      swap1\n      tag_212\n      jump\t// in\n    tag_358:\n      dup1\n      iszero\n      tag_359\n      jumpi\n      dup1\n      0x1f\n      lt\n      tag_360\n      jumpi\n      0x0100\n      dup1\n      dup4\n      sload\n      div\n      mul\n      dup4\n      mstore\n      swap2\n      0x20\n      add\n      swap2\n      jump(tag_359)\n    tag_360:\n      dup3\n      add\n      swap2\n      swap1\n      0x00\n      mstore\n      keccak256(0x00, 0x20)\n      swap1\n    tag_361:\n      dup2\n      sload\n      dup2\n      mstore\n      swap1\n      0x01\n      add\n      swap1\n      0x20\n      add\n      dup1\n      dup4\n      gt\n      tag_361\n      jumpi\n      dup3\n      swap1\n      sub\n      0x1f\n      and\n      dup3\n      add\n      swap2\n    tag_359:\n      pop\n      pop\n      pop\n      pop\n      pop\n      dup2\n      mstore\n      0x20\n      add\n      0x02\n      dup3\n      add\n      sload\n      dup2\n      mstore\n      0x20\n      add\n      0x03\n      dup3\n      add\n      sload\n      dup2\n      mstore\n      0x20\n      add\n      0x04\n      dup3\n      add\n      sload\n      dup2\n      mstore\n      0x20\n      add\n      0x05\n      dup3\n      add\n      sload\n      dup2\n      mstore\n      0x20\n      add\n      0x06\n      dup3\n      add\n      dup1\n      sload\n      tag_362\n      swap1\n      tag_212\n      jump\t// in\n    tag_362:\n      dup1\n      0x1f\n      add\n      0x20\n      dup1\n      swap2\n      div\n      mul\n      0x20\n      add\n      mload(0x40)\n      swap1\n      dup2\n      add\n      0x40\n      mstore\n      dup1\n      swap3\n      swap2\n      swap1\n      dup2\n      dup2\n      mstore\n      0x20\n      add\n      dup3\n      dup1\n      sload\n      tag_363\n      swap1\n      tag_212\n      jump\t// in\n    tag_363:\n      dup1\n      iszero\n      tag_364\n      jumpi\n      dup1\n      0x1f\n      lt\n      tag_365\n      jumpi\n      0x0100\n      dup1\n      dup4\n      sload\n      div\n      mul\n      dup4\n      mstore\n      swap2\n      0x20\n      add\n      swap2\n      jump(tag_364)\n    tag_365:\n      dup3\n      add\n      swap2\n      swap1\n      0x00\n      mstore\n      keccak256(0x00, 0x20)\n      swap1\n    tag_366:\n      dup2\n      sload\n      dup2\n      mstore\n      swap1\n      0x01\n      add\n      swap1\n      0x20\n      add\n      dup1\n      dup4\n      gt\n      tag_366\n      jumpi\n      dup3\n      swap1\n      sub\n      0x1f\n      and\n      dup3\n      add\n      swap2\n    tag_364:\n      pop\n      pop\n      pop\n      pop\n      pop\n      dup2\n      mstore\n      0x20\n      add\n      0x07\n      dup3\n      add\n      dup1\n      sload\n      tag_367\n      swap1\n      tag_212\n      jump\t// in\n    tag_367:\n      dup1\n      0x1f\n      add\n      0x20\n      dup1\n      swap2\n      div\n      mul\n      0x20\n      add\n      mload(0x40)\n      swap1\n      dup2\n      add\n      0x40\n      mstore\n      dup1\n      swap3\n      swap2\n      swap1\n      dup2\n      dup2\n      mstore\n      0x20\n      add\n      dup3\n      dup1\n      sload\n      tag_368\n      swap1\n      tag_212\n      jump\t// in\n    tag_368:\n      dup1\n      iszero\n      tag_369\n      jumpi\n      dup1\n      0x1f\n      lt\n      tag_370\n      jumpi\n      0x0100\n      dup1\n      dup4\n      sload\n      div\n      mul\n      dup4\n      mstore\n      swap2\n      0x20\n      add\n      swap2\n      jump(tag_369)\n    tag_370:\n      dup3\n      add\n      swap2\n      swap1\n      0x00\n      mstore\n      keccak256(0x00, 0x20)\n      swap1\n    tag_371:\n      dup2\n      sload\n      dup2\n      mstore\n      swap1\n      0x01\n      add\n      swap1\n      0x20\n      add\n      dup1\n      dup4\n      gt\n      tag_371\n      jumpi\n      dup3\n      swap1\n      sub\n      0x1f\n      and\n      dup3\n      add\n      swap2\n    tag_369:\n      pop\n      pop\n      pop\n      pop\n      pop\n      dup2\n      mstore\n      0x20\n      add\n      0x08\n      dup3\n      add\n      0x00\n      swap1\n      sload\n      swap1\n      0x0100\n      exp\n      swap1\n      div\n      0xffffffffffffffffffffffffffffffffffffffff\n      and\n      0xffffffffffffffffffffffffffffffffffffffff\n      and\n      0xffffffffffffffffffffffffffffffffffffffff\n      and\n      dup2\n      mstore\n      pop\n      pop\n        /* \"contracts/Fast/Contract_1.sol\":3843:3854  memoryArray */\n      dup4\n        /* \"contracts/Fast/Contract_1.sol\":3855:3862  counter */\n      dup4\n        /* \"contracts/Fast/Contract_1.sol\":3843:3863  memoryArray[counter] */\n      dup2\n      mload\n      dup2\n      lt\n      tag_372\n      jumpi\n      tag_373\n      tag_339\n      jump\t// in\n    tag_373:\n    tag_372:\n      0x20\n      mul\n      0x20\n      add\n      add\n        /* \"contracts/Fast/Contract_1.sol\":3843:3874  memoryArray[counter] = Total[i] */\n      dup2\n      swap1\n      mstore\n      pop\n        /* \"contracts/Fast/Contract_1.sol\":3888:3897  counter++ */\n      dup2\n      dup1\n      tag_374\n      swap1\n      tag_341\n      jump\t// in\n    tag_374:\n      swap3\n      pop\n      pop\n        /* \"contracts/Fast/Contract_1.sol\":3824:3827  i++ */\n      dup1\n      dup1\n      tag_375\n      swap1\n      tag_341\n      jump\t// in\n    tag_375:\n      swap2\n      pop\n      pop\n        /* \"contracts/Fast/Contract_1.sol\":3776:3908  for (uint256 i = 1; i <= TotalTender.current(); i++) {... */\n      jump(tag_353)\n    tag_354:\n      pop\n        /* \"contracts/Fast/Contract_1.sol\":3924:3935  memoryArray */\n      dup2\n        /* \"contracts/Fast/Contract_1.sol\":3917:3935  return memoryArray */\n      swap3\n      pop\n      pop\n      pop\n        /* \"contracts/Fast/Contract_1.sol\":3603:3942  function AllTender() public view returns (Tender[] memory) {... */\n      swap1\n      jump\t// out\n        /* \"contracts/Fast/Contract_1.sol\":5254:5781  function getVender(address _address) public view returns (Vender[] memory) {... */\n    tag_174:\n        /* \"contracts/Fast/Contract_1.sol\":5312:5327  Vender[] memory */\n      0x60\n        /* \"contracts/Fast/Contract_1.sol\":5339:5366  Vender[] memory memoryArray */\n      0x00\n        /* \"contracts/Fast/Contract_1.sol\":5382:5390  Requests */\n      0x09\n        /* \"contracts/Fast/Contract_1.sol\":5382:5400  Requests[_address] */\n      0x00\n        /* \"contracts/Fast/Contract_1.sol\":5391:5399  _address */\n      dup5\n        /* \"contracts/Fast/Contract_1.sol\":5382:5400  Requests[_address] */\n      0xffffffffffffffffffffffffffffffffffffffff\n      and\n      0xffffffffffffffffffffffffffffffffffffffff\n      and\n      dup2\n      mstore\n      0x20\n      add\n      swap1\n      dup2\n      mstore\n      0x20\n      add\n      0x00\n      keccak256\n      sload\n        /* \"contracts/Fast/Contract_1.sol\":5369:5401  new Vender[](Requests[_address]) */\n      0xffffffffffffffff\n      dup2\n      gt\n      iszero\n      tag_377\n      jumpi\n      tag_378\n      tag_317\n      jump\t// in\n    tag_378:\n    tag_377:\n      mload(0x40)\n      swap1\n      dup1\n      dup3\n      mstore\n      dup1\n      0x20\n      mul\n      0x20\n      add\n      dup3\n      add\n      0x40\n      mstore\n      dup1\n      iszero\n      tag_379\n      jumpi\n      dup2\n      0x20\n      add\n    tag_380:\n      tag_381\n      tag_321\n      jump\t// in\n    tag_381:\n      dup2\n      mstore\n      0x20\n      add\n      swap1\n      0x01\n      swap1\n      sub\n      swap1\n      dup2\n      tag_380\n      jumpi\n      swap1\n      pop\n    tag_379:\n      pop\n        /* \"contracts/Fast/Contract_1.sol\":5339:5401  Vender[] memory memoryArray = new Vender[](Requests[_address]) */\n      swap1\n      pop\n        /* \"contracts/Fast/Contract_1.sol\":5411:5426  uint256 counter */\n      0x00\n        /* \"contracts/Fast/Contract_1.sol\":5445:5454  uint256 i */\n      dup1\n        /* \"contracts/Fast/Contract_1.sol\":5457:5458  1 */\n      0x01\n        /* \"contracts/Fast/Contract_1.sol\":5445:5458  uint256 i = 1 */\n      swap1\n      pop\n        /* \"contracts/Fast/Contract_1.sol\":5440:5747  for (uint256 i = 1; i <= TotalTender.current(); i++) {... */\n    tag_382:\n        /* \"contracts/Fast/Contract_1.sol\":5465:5486  TotalTender.current() */\n      tag_385\n        /* \"contracts/Fast/Contract_1.sol\":5465:5476  TotalTender */\n      0x00\n        /* \"contracts/Fast/Contract_1.sol\":5465:5484  TotalTender.current */\n      tag_228\n        /* \"contracts/Fast/Contract_1.sol\":5465:5486  TotalTender.current() */\n      jump\t// in\n    tag_385:\n        /* \"contracts/Fast/Contract_1.sol\":5460:5461  i */\n      dup2\n        /* \"contracts/Fast/Contract_1.sol\":5460:5486  i <= TotalTender.current() */\n      gt\n        /* \"contracts/Fast/Contract_1.sol\":5440:5747  for (uint256 i = 1; i <= TotalTender.current(); i++) {... */\n      tag_383\n      jumpi\n        /* \"contracts/Fast/Contract_1.sol\":5512:5521  uint256 j */\n      0x00\n        /* \"contracts/Fast/Contract_1.sol\":5524:5525  1 */\n      0x01\n        /* \"contracts/Fast/Contract_1.sol\":5512:5525  uint256 j = 1 */\n      swap1\n      pop\n        /* \"contracts/Fast/Contract_1.sol\":5507:5737  for (uint256 j = 1; j <= TotalVender.current(); j++) {... */\n    tag_386:\n        /* \"contracts/Fast/Contract_1.sol\":5532:5553  TotalVender.current() */\n      tag_389\n        /* \"contracts/Fast/Contract_1.sol\":5532:5543  TotalVender */\n      0x01\n        /* \"contracts/Fast/Contract_1.sol\":5532:5551  TotalVender.current */\n      tag_228\n        /* \"contracts/Fast/Contract_1.sol\":5532:5553  TotalVender.current() */\n      jump\t// in\n    tag_389:\n        /* \"contracts/Fast/Contract_1.sol\":5527:5528  j */\n      dup2\n        /* \"contracts/Fast/Contract_1.sol\":5527:5553  j <= TotalVender.current() */\n      gt\n        /* \"contracts/Fast/Contract_1.sol\":5507:5737  for (uint256 j = 1; j <= TotalVender.current(); j++) {... */\n      tag_387\n      jumpi\n        /* \"contracts/Fast/Contract_1.sol\":5594:5601  Venders */\n      0x07\n        /* \"contracts/Fast/Contract_1.sol\":5594:5604  Venders[j] */\n      0x00\n        /* \"contracts/Fast/Contract_1.sol\":5602:5603  j */\n      dup3\n        /* \"contracts/Fast/Contract_1.sol\":5594:5604  Venders[j] */\n      dup2\n      mstore\n      0x20\n      add\n      swap1\n      dup2\n      mstore\n      0x20\n      add\n      0x00\n      keccak256\n        /* \"contracts/Fast/Contract_1.sol\":5594:5607  Venders[j][i] */\n      0x00\n        /* \"contracts/Fast/Contract_1.sol\":5605:5606  i */\n      dup4\n        /* \"contracts/Fast/Contract_1.sol\":5594:5607  Venders[j][i] */\n      dup2\n      mstore\n      0x20\n      add\n      swap1\n      dup2\n      mstore\n      0x20\n      add\n      0x00\n      keccak256\n        /* \"contracts/Fast/Contract_1.sol\":5594:5613  Venders[j][i].owner */\n      0x03\n      add\n      0x00\n      swap1\n      sload\n      swap1\n      0x0100\n      exp\n      swap1\n      div\n      0xffffffffffffffffffffffffffffffffffffffff\n      and\n        /* \"contracts/Fast/Contract_1.sol\":5582:5613  _address == Venders[j][i].owner */\n      0xffffffffffffffffffffffffffffffffffffffff\n      and\n        /* \"contracts/Fast/Contract_1.sol\":5582:5590  _address */\n      dup7\n        /* \"contracts/Fast/Contract_1.sol\":5582:5613  _address == Venders[j][i].owner */\n      0xffffffffffffffffffffffffffffffffffffffff\n      and\n      eq\n        /* \"contracts/Fast/Contract_1.sol\":5578:5723  if (_address == Venders[j][i].owner) {... */\n      iszero\n      tag_390\n      jumpi\n        /* \"contracts/Fast/Contract_1.sol\":5660:5667  Venders */\n      0x07\n        /* \"contracts/Fast/Contract_1.sol\":5660:5670  Venders[j] */\n      0x00\n        /* \"contracts/Fast/Contract_1.sol\":5668:5669  j */\n      dup3\n        /* \"contracts/Fast/Contract_1.sol\":5660:5670  Venders[j] */\n      dup2\n      mstore\n      0x20\n      add\n      swap1\n      dup2\n      mstore\n      0x20\n      add\n      0x00\n      keccak256\n        /* \"contracts/Fast/Contract_1.sol\":5660:5673  Venders[j][i] */\n      0x00\n        /* \"contracts/Fast/Contract_1.sol\":5671:5672  i */\n      dup4\n        /* \"contracts/Fast/Contract_1.sol\":5660:5673  Venders[j][i] */\n      dup2\n      mstore\n      0x20\n      add\n      swap1\n      dup2\n      mstore\n      0x20\n      add\n      0x00\n      keccak256\n        /* \"contracts/Fast/Contract_1.sol\":5637:5673  memoryArray[counter] = Venders[j][i] */\n      mload(0x40)\n      dup1\n      0xe0\n      add\n      0x40\n      mstore\n      swap1\n      dup2\n      0x00\n      dup3\n      add\n      sload\n      dup2\n      mstore\n      0x20\n      add\n      0x01\n      dup3\n      add\n      sload\n      dup2\n      mstore\n      0x20\n      add\n      0x02\n      dup3\n      add\n      dup1\n      sload\n      tag_391\n      swap1\n      tag_212\n      jump\t// in\n    tag_391:\n      dup1\n      0x1f\n      add\n      0x20\n      dup1\n      swap2\n      div\n      mul\n      0x20\n      add\n      mload(0x40)\n      swap1\n      dup2\n      add\n      0x40\n      mstore\n      dup1\n      swap3\n      swap2\n      swap1\n      dup2\n      dup2\n      mstore\n      0x20\n      add\n      dup3\n      dup1\n      sload\n      tag_392\n      swap1\n      tag_212\n      jump\t// in\n    tag_392:\n      dup1\n      iszero\n      tag_393\n      jumpi\n      dup1\n      0x1f\n      lt\n      tag_394\n      jumpi\n      0x0100\n      dup1\n      dup4\n      sload\n      div\n      mul\n      dup4\n      mstore\n      swap2\n      0x20\n      add\n      swap2\n      jump(tag_393)\n    tag_394:\n      dup3\n      add\n      swap2\n      swap1\n      0x00\n      mstore\n      keccak256(0x00, 0x20)\n      swap1\n    tag_395:\n      dup2\n      sload\n      dup2\n      mstore\n      swap1\n      0x01\n      add\n      swap1\n      0x20\n      add\n      dup1\n      dup4\n      gt\n      tag_395\n      jumpi\n      dup3\n      swap1\n      sub\n      0x1f\n      and\n      dup3\n      add\n      swap2\n    tag_393:\n      pop\n      pop\n      pop\n      pop\n      pop\n      dup2\n      mstore\n      0x20\n      add\n      0x03\n      dup3\n      add\n      0x00\n      swap1\n      sload\n      swap1\n      0x0100\n      exp\n      swap1\n      div\n      0xffffffffffffffffffffffffffffffffffffffff\n      and\n      0xffffffffffffffffffffffffffffffffffffffff\n      and\n      0xffffffffffffffffffffffffffffffffffffffff\n      and\n      dup2\n      mstore\n      0x20\n      add\n      0x04\n      dup3\n      add\n      sload\n      dup2\n      mstore\n      0x20\n      add\n      0x05\n      dup3\n      add\n      sload\n      dup2\n      mstore\n      0x20\n      add\n      0x06\n      dup3\n      add\n      dup1\n      sload\n      tag_396\n      swap1\n      tag_212\n      jump\t// in\n    tag_396:\n      dup1\n      0x1f\n      add\n      0x20\n      dup1\n      swap2\n      div\n      mul\n      0x20\n      add\n      mload(0x40)\n      swap1\n      dup2\n      add\n      0x40\n      mstore\n      dup1\n      swap3\n      swap2\n      swap1\n      dup2\n      dup2\n      mstore\n      0x20\n      add\n      dup3\n      dup1\n      sload\n      tag_397\n      swap1\n      tag_212\n      jump\t// in\n    tag_397:\n      dup1\n      iszero\n      tag_398\n      jumpi\n      dup1\n      0x1f\n      lt\n      tag_399\n      jumpi\n      0x0100\n      dup1\n      dup4\n      sload\n      div\n      mul\n      dup4\n      mstore\n      swap2\n      0x20\n      add\n      swap2\n      jump(tag_398)\n    tag_399:\n      dup3\n      add\n      swap2\n      swap1\n      0x00\n      mstore\n      keccak256(0x00, 0x20)\n      swap1\n    tag_400:\n      dup2\n      sload\n      dup2\n      mstore\n      swap1\n      0x01\n      add\n      swap1\n      0x20\n      add\n      dup1\n      dup4\n      gt\n      tag_400\n      jumpi\n      dup3\n      swap1\n      sub\n      0x1f\n      and\n      dup3\n      add\n      swap2\n    tag_398:\n      pop\n      pop\n      pop\n      pop\n      pop\n      dup2\n      mstore\n      pop\n      pop\n        /* \"contracts/Fast/Contract_1.sol\":5637:5648  memoryArray */\n      dup5\n        /* \"contracts/Fast/Contract_1.sol\":5649:5656  counter */\n      dup5\n        /* \"contracts/Fast/Contract_1.sol\":5637:5657  memoryArray[counter] */\n      dup2\n      mload\n      dup2\n      lt\n      tag_401\n      jumpi\n      tag_402\n      tag_339\n      jump\t// in\n    tag_402:\n    tag_401:\n      0x20\n      mul\n      0x20\n      add\n      add\n        /* \"contracts/Fast/Contract_1.sol\":5637:5673  memoryArray[counter] = Venders[j][i] */\n      dup2\n      swap1\n      mstore\n      pop\n        /* \"contracts/Fast/Contract_1.sol\":5695:5704  counter++ */\n      dup3\n      dup1\n      tag_403\n      swap1\n      tag_341\n      jump\t// in\n    tag_403:\n      swap4\n      pop\n      pop\n        /* \"contracts/Fast/Contract_1.sol\":5578:5723  if (_address == Venders[j][i].owner) {... */\n    tag_390:\n        /* \"contracts/Fast/Contract_1.sol\":5555:5558  j++ */\n      dup1\n      dup1\n      tag_404\n      swap1\n      tag_341\n      jump\t// in\n    tag_404:\n      swap2\n      pop\n      pop\n        /* \"contracts/Fast/Contract_1.sol\":5507:5737  for (uint256 j = 1; j <= TotalVender.current(); j++) {... */\n      jump(tag_386)\n    tag_387:\n      pop\n        /* \"contracts/Fast/Contract_1.sol\":5488:5491  i++ */\n      dup1\n      dup1\n      tag_405\n      swap1\n      tag_341\n      jump\t// in\n    tag_405:\n      swap2\n      pop\n      pop\n        /* \"contracts/Fast/Contract_1.sol\":5440:5747  for (uint256 i = 1; i <= TotalTender.current(); i++) {... */\n      jump(tag_382)\n    tag_383:\n      pop\n        /* \"contracts/Fast/Contract_1.sol\":5763:5774  memoryArray */\n      dup2\n        /* \"contracts/Fast/Contract_1.sol\":5756:5774  return memoryArray */\n      swap3\n      pop\n      pop\n      pop\n        /* \"contracts/Fast/Contract_1.sol\":5254:5781  function getVender(address _address) public view returns (Vender[] memory) {... */\n      swap2\n      swap1\n      pop\n      jump\t// out\n        /* \"contracts/Fast/Contract_1.sol\":3196:3597  function getTender(address _to) public view returns (Tender[] memory) {... */\n    tag_179:\n        /* \"contracts/Fast/Contract_1.sol\":3249:3264  Tender[] memory */\n      0x60\n        /* \"contracts/Fast/Contract_1.sol\":3276:3303  Tender[] memory memoryArray */\n      0x00\n        /* \"contracts/Fast/Contract_1.sol\":3319:3323  Size */\n      0x03\n        /* \"contracts/Fast/Contract_1.sol\":3319:3328  Size[_to] */\n      0x00\n        /* \"contracts/Fast/Contract_1.sol\":3324:3327  _to */\n      dup5\n        /* \"contracts/Fast/Contract_1.sol\":3319:3328  Size[_to] */\n      0xffffffffffffffffffffffffffffffffffffffff\n      and\n      0xffffffffffffffffffffffffffffffffffffffff\n      and\n      dup2\n      mstore\n      0x20\n      add\n      swap1\n      dup2\n      mstore\n      0x20\n      add\n      0x00\n      keccak256\n      sload\n        /* \"contracts/Fast/Contract_1.sol\":3306:3329  new Tender[](Size[_to]) */\n      0xffffffffffffffff\n      dup2\n      gt\n      iszero\n      tag_407\n      jumpi\n      tag_408\n      tag_317\n      jump\t// in\n    tag_408:\n    tag_407:\n      mload(0x40)\n      swap1\n      dup1\n      dup3\n      mstore\n      dup1\n      0x20\n      mul\n      0x20\n      add\n      dup3\n      add\n      0x40\n      mstore\n      dup1\n      iszero\n      tag_409\n      jumpi\n      dup2\n      0x20\n      add\n    tag_410:\n      tag_411\n      tag_352\n      jump\t// in\n    tag_411:\n      dup2\n      mstore\n      0x20\n      add\n      swap1\n      0x01\n      swap1\n      sub\n      swap1\n      dup2\n      tag_410\n      jumpi\n      swap1\n      pop\n    tag_409:\n      pop\n        /* \"contracts/Fast/Contract_1.sol\":3276:3329  Tender[] memory memoryArray = new Tender[](Size[_to]) */\n      swap1\n      pop\n        /* \"contracts/Fast/Contract_1.sol\":3339:3354  uint256 counter */\n      0x00\n        /* \"contracts/Fast/Contract_1.sol\":3373:3382  uint256 i */\n      dup1\n        /* \"contracts/Fast/Contract_1.sol\":3385:3386  1 */\n      0x01\n        /* \"contracts/Fast/Contract_1.sol\":3373:3386  uint256 i = 1 */\n      swap1\n      pop\n        /* \"contracts/Fast/Contract_1.sol\":3368:3563  for (uint256 i = 1; i <= TotalTender.current(); i++) {... */\n    tag_412:\n        /* \"contracts/Fast/Contract_1.sol\":3393:3414  TotalTender.current() */\n      tag_415\n        /* \"contracts/Fast/Contract_1.sol\":3393:3404  TotalTender */\n      0x00\n        /* \"contracts/Fast/Contract_1.sol\":3393:3412  TotalTender.current */\n      tag_228\n        /* \"contracts/Fast/Contract_1.sol\":3393:3414  TotalTender.current() */\n      jump\t// in\n    tag_415:\n        /* \"contracts/Fast/Contract_1.sol\":3388:3389  i */\n      dup2\n        /* \"contracts/Fast/Contract_1.sol\":3388:3414  i <= TotalTender.current() */\n      gt\n        /* \"contracts/Fast/Contract_1.sol\":3368:3563  for (uint256 i = 1; i <= TotalTender.current(); i++) {... */\n      tag_413\n      jumpi\n        /* \"contracts/Fast/Contract_1.sol\":3446:3451  Total */\n      0x06\n        /* \"contracts/Fast/Contract_1.sol\":3446:3454  Total[i] */\n      0x00\n        /* \"contracts/Fast/Contract_1.sol\":3452:3453  i */\n      dup3\n        /* \"contracts/Fast/Contract_1.sol\":3446:3454  Total[i] */\n      dup2\n      mstore\n      0x20\n      add\n      swap1\n      dup2\n      mstore\n      0x20\n      add\n      0x00\n      keccak256\n        /* \"contracts/Fast/Contract_1.sol\":3446:3460  Total[i].owner */\n      0x08\n      add\n      0x00\n      swap1\n      sload\n      swap1\n      0x0100\n      exp\n      swap1\n      div\n      0xffffffffffffffffffffffffffffffffffffffff\n      and\n        /* \"contracts/Fast/Contract_1.sol\":3439:3460  _to == Total[i].owner */\n      0xffffffffffffffffffffffffffffffffffffffff\n      and\n        /* \"contracts/Fast/Contract_1.sol\":3439:3442  _to */\n      dup6\n        /* \"contracts/Fast/Contract_1.sol\":3439:3460  _to == Total[i].owner */\n      0xffffffffffffffffffffffffffffffffffffffff\n      and\n      eq\n        /* \"contracts/Fast/Contract_1.sol\":3435:3553  if (_to == Total[i].owner) {... */\n      iszero\n      tag_416\n      jumpi\n        /* \"contracts/Fast/Contract_1.sol\":3503:3508  Total */\n      0x06\n        /* \"contracts/Fast/Contract_1.sol\":3503:3511  Total[i] */\n      0x00\n        /* \"contracts/Fast/Contract_1.sol\":3509:3510  i */\n      dup3\n        /* \"contracts/Fast/Contract_1.sol\":3503:3511  Total[i] */\n      dup2\n      mstore\n      0x20\n      add\n      swap1\n      dup2\n      mstore\n      0x20\n      add\n      0x00\n      keccak256\n        /* \"contracts/Fast/Contract_1.sol\":3480:3511  memoryArray[counter] = Total[i] */\n      mload(0x40)\n      dup1\n      0x0120\n      add\n      0x40\n      mstore\n      swap1\n      dup2\n      0x00\n      dup3\n      add\n      sload\n      dup2\n      mstore\n      0x20\n      add\n      0x01\n      dup3\n      add\n      dup1\n      sload\n      tag_417\n      swap1\n      tag_212\n      jump\t// in\n    tag_417:\n      dup1\n      0x1f\n      add\n      0x20\n      dup1\n      swap2\n      div\n      mul\n      0x20\n      add\n      mload(0x40)\n      swap1\n      dup2\n      add\n      0x40\n      mstore\n      dup1\n      swap3\n      swap2\n      swap1\n      dup2\n      dup2\n      mstore\n      0x20\n      add\n      dup3\n      dup1\n      sload\n      tag_418\n      swap1\n      tag_212\n      jump\t// in\n    tag_418:\n      dup1\n      iszero\n      tag_419\n      jumpi\n      dup1\n      0x1f\n      lt\n      tag_420\n      jumpi\n      0x0100\n      dup1\n      dup4\n      sload\n      div\n      mul\n      dup4\n      mstore\n      swap2\n      0x20\n      add\n      swap2\n      jump(tag_419)\n    tag_420:\n      dup3\n      add\n      swap2\n      swap1\n      0x00\n      mstore\n      keccak256(0x00, 0x20)\n      swap1\n    tag_421:\n      dup2\n      sload\n      dup2\n      mstore\n      swap1\n      0x01\n      add\n      swap1\n      0x20\n      add\n      dup1\n      dup4\n      gt\n      tag_421\n      jumpi\n      dup3\n      swap1\n      sub\n      0x1f\n      and\n      dup3\n      add\n      swap2\n    tag_419:\n      pop\n      pop\n      pop\n      pop\n      pop\n      dup2\n      mstore\n      0x20\n      add\n      0x02\n      dup3\n      add\n      sload\n      dup2\n      mstore\n      0x20\n      add\n      0x03\n      dup3\n      add\n      sload\n      dup2\n      mstore\n      0x20\n      add\n      0x04\n      dup3\n      add\n      sload\n      dup2\n      mstore\n      0x20\n      add\n      0x05\n      dup3\n      add\n      sload\n      dup2\n      mstore\n      0x20\n      add\n      0x06\n      dup3\n      add\n      dup1\n      sload\n      tag_422\n      swap1\n      tag_212\n      jump\t// in\n    tag_422:\n      dup1\n      0x1f\n      add\n      0x20\n      dup1\n      swap2\n      div\n      mul\n      0x20\n      add\n      mload(0x40)\n      swap1\n      dup2\n      add\n      0x40\n      mstore\n      dup1\n      swap3\n      swap2\n      swap1\n      dup2\n      dup2\n      mstore\n      0x20\n      add\n      dup3\n      dup1\n      sload\n      tag_423\n      swap1\n      tag_212\n      jump\t// in\n    tag_423:\n      dup1\n      iszero\n      tag_424\n      jumpi\n      dup1\n      0x1f\n      lt\n      tag_425\n      jumpi\n      0x0100\n      dup1\n      dup4\n      sload\n      div\n      mul\n      dup4\n      mstore\n      swap2\n      0x20\n      add\n      swap2\n      jump(tag_424)\n    tag_425:\n      dup3\n      add\n      swap2\n      swap1\n      0x00\n      mstore\n      keccak256(0x00, 0x20)\n      swap1\n    tag_426:\n      dup2\n      sload\n      dup2\n      mstore\n      swap1\n      0x01\n      add\n      swap1\n      0x20\n      add\n      dup1\n      dup4\n      gt\n      tag_426\n      jumpi\n      dup3\n      swap1\n      sub\n      0x1f\n      and\n      dup3\n      add\n      swap2\n    tag_424:\n      pop\n      pop\n      pop\n      pop\n      pop\n      dup2\n      mstore\n      0x20\n      add\n      0x07\n      dup3\n      add\n      dup1\n      sload\n      tag_427\n      swap1\n      tag_212\n      jump\t// in\n    tag_427:\n      dup1\n      0x1f\n      add\n      0x20\n      dup1\n      swap2\n      div\n      mul\n      0x20\n      add\n      mload(0x40)\n      swap1\n      dup2\n      add\n      0x40\n      mstore\n      dup1\n      swap3\n      swap2\n      swap1\n      dup2\n      dup2\n      mstore\n      0x20\n      add\n      dup3\n      dup1\n      sload\n      tag_428\n      swap1\n      tag_212\n      jump\t// in\n    tag_428:\n      dup1\n      iszero\n      tag_429\n      jumpi\n      dup1\n      0x1f\n      lt\n      tag_430\n      jumpi\n      0x0100\n      dup1\n      dup4\n      sload\n      div\n      mul\n      dup4\n      mstore\n      swap2\n      0x20\n      add\n      swap2\n      jump(tag_429)\n    tag_430:\n      dup3\n      add\n      swap2\n      swap1\n      0x00\n      mstore\n      keccak256(0x00, 0x20)\n      swap1\n    tag_431:\n      dup2\n      sload\n      dup2\n      mstore\n      swap1\n      0x01\n      add\n      swap1\n      0x20\n      add\n      dup1\n      dup4\n      gt\n      tag_431\n      jumpi\n      dup3\n      swap1\n      sub\n      0x1f\n      and\n      dup3\n      add\n      swap2\n    tag_429:\n      pop\n      pop\n      pop\n      pop\n      pop\n      dup2\n      mstore\n      0x20\n      add\n      0x08\n      dup3\n      add\n      0x00\n      swap1\n      sload\n      swap1\n      0x0100\n      exp\n      swap1\n      div\n      0xffffffffffffffffffffffffffffffffffffffff\n      and\n      0xffffffffffffffffffffffffffffffffffffffff\n      and\n      0xffffffffffffffffffffffffffffffffffffffff\n      and\n      dup2\n      mstore\n      pop\n      pop\n        /* \"contracts/Fast/Contract_1.sol\":3480:3491  memoryArray */\n      dup4\n        /* \"contracts/Fast/Contract_1.sol\":3492:3499  counter */\n      dup4\n        /* \"contracts/Fast/Contract_1.sol\":3480:3500  memoryArray[counter] */\n      dup2\n      mload\n      dup2\n      lt\n      tag_432\n      jumpi\n      tag_433\n      tag_339\n      jump\t// in\n    tag_433:\n    tag_432:\n      0x20\n      mul\n      0x20\n      add\n      add\n        /* \"contracts/Fast/Contract_1.sol\":3480:3511  memoryArray[counter] = Total[i] */\n      dup2\n      swap1\n      mstore\n      pop\n        /* \"contracts/Fast/Contract_1.sol\":3529:3538  counter++ */\n      dup2\n      dup1\n      tag_434\n      swap1\n      tag_341\n      jump\t// in\n    tag_434:\n      swap3\n      pop\n      pop\n        /* \"contracts/Fast/Contract_1.sol\":3435:3553  if (_to == Total[i].owner) {... */\n    tag_416:\n        /* \"contracts/Fast/Contract_1.sol\":3416:3419  i++ */\n      dup1\n      dup1\n      tag_435\n      swap1\n      tag_341\n      jump\t// in\n    tag_435:\n      swap2\n      pop\n      pop\n        /* \"contracts/Fast/Contract_1.sol\":3368:3563  for (uint256 i = 1; i <= TotalTender.current(); i++) {... */\n      jump(tag_412)\n    tag_413:\n      pop\n        /* \"contracts/Fast/Contract_1.sol\":3579:3590  memoryArray */\n      dup2\n        /* \"contracts/Fast/Contract_1.sol\":3572:3590  return memoryArray */\n      swap3\n      pop\n      pop\n      pop\n        /* \"contracts/Fast/Contract_1.sol\":3196:3597  function getTender(address _to) public view returns (Tender[] memory) {... */\n      swap2\n      swap1\n      pop\n      jump\t// out\n        /* \"contracts/Fast/Contract_1.sol\":6573:7200  function Done(address _to, address from, uint256 tokenId) public payable {... */\n    tag_184:\n        /* \"contracts/Fast/Contract_1.sol\":6705:6708  _to */\n      dup3\n        /* \"contracts/Fast/Contract_1.sol\":6664:6708  Communication[tokenId][from].receiver == _to */\n      0xffffffffffffffffffffffffffffffffffffffff\n      and\n        /* \"contracts/Fast/Contract_1.sol\":6664:6677  Communication */\n      0x0c\n        /* \"contracts/Fast/Contract_1.sol\":6664:6686  Communication[tokenId] */\n      0x00\n        /* \"contracts/Fast/Contract_1.sol\":6678:6685  tokenId */\n      dup4\n        /* \"contracts/Fast/Contract_1.sol\":6664:6686  Communication[tokenId] */\n      dup2\n      mstore\n      0x20\n      add\n      swap1\n      dup2\n      mstore\n      0x20\n      add\n      0x00\n      keccak256\n        /* \"contracts/Fast/Contract_1.sol\":6664:6692  Communication[tokenId][from] */\n      0x00\n        /* \"contracts/Fast/Contract_1.sol\":6687:6691  from */\n      dup5\n        /* \"contracts/Fast/Contract_1.sol\":6664:6692  Communication[tokenId][from] */\n      0xffffffffffffffffffffffffffffffffffffffff\n      and\n      0xffffffffffffffffffffffffffffffffffffffff\n      and\n      dup2\n      mstore\n      0x20\n      add\n      swap1\n      dup2\n      mstore\n      0x20\n      add\n      0x00\n      keccak256\n        /* \"contracts/Fast/Contract_1.sol\":6664:6701  Communication[tokenId][from].receiver */\n      0x00\n      add\n      0x00\n      swap1\n      sload\n      swap1\n      0x0100\n      exp\n      swap1\n      div\n      0xffffffffffffffffffffffffffffffffffffffff\n      and\n        /* \"contracts/Fast/Contract_1.sol\":6664:6708  Communication[tokenId][from].receiver == _to */\n      0xffffffffffffffffffffffffffffffffffffffff\n      and\n      eq\n        /* \"contracts/Fast/Contract_1.sol\":6656:6748  require(Communication[tokenId][from].receiver == _to,\"Please Sellect the correct Recepient\") */\n      tag_437\n      jumpi\n      mload(0x40)\n      0x08c379a000000000000000000000000000000000000000000000000000000000\n      dup2\n      mstore\n      0x04\n      add\n      tag_438\n      swap1\n      tag_439\n      jump\t// in\n    tag_438:\n      mload(0x40)\n      dup1\n      swap2\n      sub\n      swap1\n      revert\n    tag_437:\n        /* \"contracts/Fast/Contract_1.sol\":6766:6779  Communication */\n      0x0c\n        /* \"contracts/Fast/Contract_1.sol\":6766:6788  Communication[tokenId] */\n      0x00\n        /* \"contracts/Fast/Contract_1.sol\":6780:6787  tokenId */\n      dup3\n        /* \"contracts/Fast/Contract_1.sol\":6766:6788  Communication[tokenId] */\n      dup2\n      mstore\n      0x20\n      add\n      swap1\n      dup2\n      mstore\n      0x20\n      add\n      0x00\n      keccak256\n        /* \"contracts/Fast/Contract_1.sol\":6766:6794  Communication[tokenId][from] */\n      0x00\n        /* \"contracts/Fast/Contract_1.sol\":6789:6793  from */\n      dup4\n        /* \"contracts/Fast/Contract_1.sol\":6766:6794  Communication[tokenId][from] */\n      0xffffffffffffffffffffffffffffffffffffffff\n      and\n      0xffffffffffffffffffffffffffffffffffffffff\n      and\n      dup2\n      mstore\n      0x20\n      add\n      swap1\n      dup2\n      mstore\n      0x20\n      add\n      0x00\n      keccak256\n        /* \"contracts/Fast/Contract_1.sol\":6766:6799  Communication[tokenId][from].done */\n      0x02\n      add\n      0x00\n      swap1\n      sload\n      swap1\n      0x0100\n      exp\n      swap1\n      div\n      0xff\n      and\n        /* \"contracts/Fast/Contract_1.sol\":6758:6823  require(Communication[tokenId][from].done, \"You already payment\") */\n      tag_440\n      jumpi\n      mload(0x40)\n      0x08c379a000000000000000000000000000000000000000000000000000000000\n      dup2\n      mstore\n      0x04\n      add\n      tag_441\n      swap1\n      tag_442\n      jump\t// in\n    tag_441:\n      mload(0x40)\n      dup1\n      swap2\n      sub\n      swap1\n      revert\n    tag_440:\n        /* \"contracts/Fast/Contract_1.sol\":6910:6912  60 */\n      0x3c\n        /* \"contracts/Fast/Contract_1.sol\":6859:6866  Venders */\n      0x07\n        /* \"contracts/Fast/Contract_1.sol\":6859:6888  Venders[Finder[tokenId][_to]] */\n      0x00\n        /* \"contracts/Fast/Contract_1.sol\":6867:6873  Finder */\n      0x0b\n        /* \"contracts/Fast/Contract_1.sol\":6867:6882  Finder[tokenId] */\n      0x00\n        /* \"contracts/Fast/Contract_1.sol\":6874:6881  tokenId */\n      dup6\n        /* \"contracts/Fast/Contract_1.sol\":6867:6882  Finder[tokenId] */\n      dup2\n      mstore\n      0x20\n      add\n      swap1\n      dup2\n      mstore\n      0x20\n      add\n      0x00\n      keccak256\n        /* \"contracts/Fast/Contract_1.sol\":6867:6887  Finder[tokenId][_to] */\n      0x00\n        /* \"contracts/Fast/Contract_1.sol\":6883:6886  _to */\n      dup8\n        /* \"contracts/Fast/Contract_1.sol\":6867:6887  Finder[tokenId][_to] */\n      0xffffffffffffffffffffffffffffffffffffffff\n      and\n      0xffffffffffffffffffffffffffffffffffffffff\n      and\n      dup2\n      mstore\n      0x20\n      add\n      swap1\n      dup2\n      mstore\n      0x20\n      add\n      0x00\n      keccak256\n      sload\n        /* \"contracts/Fast/Contract_1.sol\":6859:6888  Venders[Finder[tokenId][_to]] */\n      dup2\n      mstore\n      0x20\n      add\n      swap1\n      dup2\n      mstore\n      0x20\n      add\n      0x00\n      keccak256\n        /* \"contracts/Fast/Contract_1.sol\":6859:6897  Venders[Finder[tokenId][_to]][tokenId] */\n      0x00\n        /* \"contracts/Fast/Contract_1.sol\":6889:6896  tokenId */\n      dup4\n        /* \"contracts/Fast/Contract_1.sol\":6859:6897  Venders[Finder[tokenId][_to]][tokenId] */\n      dup2\n      mstore\n      0x20\n      add\n      swap1\n      dup2\n      mstore\n      0x20\n      add\n      0x00\n      keccak256\n        /* \"contracts/Fast/Contract_1.sol\":6859:6907  Venders[Finder[tokenId][_to]][tokenId].Delivered */\n      0x05\n      add\n      sload\n        /* \"contracts/Fast/Contract_1.sol\":6859:6912  Venders[Finder[tokenId][_to]][tokenId].Delivered / 60 */\n      tag_443\n      swap2\n      swap1\n      tag_289\n      jump\t// in\n    tag_443:\n        /* \"contracts/Fast/Contract_1.sol\":6833:6844  DaysDetails */\n      0x0a\n        /* \"contracts/Fast/Contract_1.sol\":6833:6849  DaysDetails[_to] */\n      0x00\n        /* \"contracts/Fast/Contract_1.sol\":6845:6848  _to */\n      dup6\n        /* \"contracts/Fast/Contract_1.sol\":6833:6849  DaysDetails[_to] */\n      0xffffffffffffffffffffffffffffffffffffffff\n      and\n      0xffffffffffffffffffffffffffffffffffffffff\n      and\n      dup2\n      mstore\n      0x20\n      add\n      swap1\n      dup2\n      mstore\n      0x20\n      add\n      0x00\n      keccak256\n        /* \"contracts/Fast/Contract_1.sol\":6833:6855  DaysDetails[_to].Total */\n      0x01\n      add\n      0x00\n        /* \"contracts/Fast/Contract_1.sol\":6833:6912  DaysDetails[_to].Total += Venders[Finder[tokenId][_to]][tokenId].Delivered / 60 */\n      dup3\n      dup3\n      sload\n      tag_444\n      swap2\n      swap1\n      tag_226\n      jump\t// in\n    tag_444:\n      swap3\n      pop\n      pop\n      dup2\n      swap1\n      sstore\n      pop\n        /* \"contracts/Fast/Contract_1.sol\":7003:7005  60 */\n      0x3c\n        /* \"contracts/Fast/Contract_1.sol\":6971:6985  RattingDetails */\n      0x0e\n        /* \"contracts/Fast/Contract_1.sol\":6971:6990  RattingDetails[_to] */\n      0x00\n        /* \"contracts/Fast/Contract_1.sol\":6986:6989  _to */\n      dup6\n        /* \"contracts/Fast/Contract_1.sol\":6971:6990  RattingDetails[_to] */\n      0xffffffffffffffffffffffffffffffffffffffff\n      and\n      0xffffffffffffffffffffffffffffffffffffffff\n      and\n      dup2\n      mstore\n      0x20\n      add\n      swap1\n      dup2\n      mstore\n      0x20\n      add\n      0x00\n      keccak256\n        /* \"contracts/Fast/Contract_1.sol\":6971:6999  RattingDetails[_to][tokenId] */\n      0x00\n        /* \"contracts/Fast/Contract_1.sol\":6991:6998  tokenId */\n      dup4\n        /* \"contracts/Fast/Contract_1.sol\":6971:6999  RattingDetails[_to][tokenId] */\n      dup2\n      mstore\n      0x20\n      add\n      swap1\n      dup2\n      mstore\n      0x20\n      add\n      0x00\n      keccak256\n      sload\n        /* \"contracts/Fast/Contract_1.sol\":6953:6968  block.timestamp */\n      timestamp\n        /* \"contracts/Fast/Contract_1.sol\":6953:6999  block.timestamp - RattingDetails[_to][tokenId] */\n      tag_445\n      swap2\n      swap1\n      tag_245\n      jump\t// in\n    tag_445:\n        /* \"contracts/Fast/Contract_1.sol\":6952:7005  (block.timestamp - RattingDetails[_to][tokenId]) / 60 */\n      tag_446\n      swap2\n      swap1\n      tag_289\n      jump\t// in\n    tag_446:\n        /* \"contracts/Fast/Contract_1.sol\":6922:6933  DaysDetails */\n      0x0a\n        /* \"contracts/Fast/Contract_1.sol\":6922:6938  DaysDetails[_to] */\n      0x00\n        /* \"contracts/Fast/Contract_1.sol\":6934:6937  _to */\n      dup6\n        /* \"contracts/Fast/Contract_1.sol\":6922:6938  DaysDetails[_to] */\n      0xffffffffffffffffffffffffffffffffffffffff\n      and\n      0xffffffffffffffffffffffffffffffffffffffff\n      and\n      dup2\n      mstore\n      0x20\n      add\n      swap1\n      dup2\n      mstore\n      0x20\n      add\n      0x00\n      keccak256\n        /* \"contracts/Fast/Contract_1.sol\":6922:6948  DaysDetails[_to].Delivered */\n      0x00\n      add\n      0x00\n        /* \"contracts/Fast/Contract_1.sol\":6922:7005  DaysDetails[_to].Delivered += (block.timestamp - RattingDetails[_to][tokenId]) / 60 */\n      dup3\n      dup3\n      sload\n      tag_447\n      swap2\n      swap1\n      tag_226\n      jump\t// in\n    tag_447:\n      swap3\n      pop\n      pop\n      dup2\n      swap1\n      sstore\n      pop\n        /* \"contracts/Fast/Contract_1.sol\":7042:7043  1 */\n      0x01\n        /* \"contracts/Fast/Contract_1.sol\":7015:7026  DaysDetails */\n      0x0a\n        /* \"contracts/Fast/Contract_1.sol\":7015:7031  DaysDetails[_to] */\n      0x00\n        /* \"contracts/Fast/Contract_1.sol\":7027:7030  _to */\n      dup6\n        /* \"contracts/Fast/Contract_1.sol\":7015:7031  DaysDetails[_to] */\n      0xffffffffffffffffffffffffffffffffffffffff\n      and\n      0xffffffffffffffffffffffffffffffffffffffff\n      and\n      dup2\n      mstore\n      0x20\n      add\n      swap1\n      dup2\n      mstore\n      0x20\n      add\n      0x00\n      keccak256\n        /* \"contracts/Fast/Contract_1.sol\":7015:7038  DaysDetails[_to].tender */\n      0x02\n      add\n      0x00\n        /* \"contracts/Fast/Contract_1.sol\":7015:7043  DaysDetails[_to].tender += 1 */\n      dup3\n      dup3\n      sload\n      tag_448\n      swap2\n      swap1\n      tag_226\n      jump\t// in\n    tag_448:\n      swap3\n      pop\n      pop\n      dup2\n      swap1\n      sstore\n      pop\n        /* \"contracts/Fast/Contract_1.sol\":7074:7075  1 */\n      0x01\n        /* \"contracts/Fast/Contract_1.sol\":7053:7065  accceptedReq */\n      0x0f\n        /* \"contracts/Fast/Contract_1.sol\":7053:7070  accceptedReq[_to] */\n      0x00\n        /* \"contracts/Fast/Contract_1.sol\":7066:7069  _to */\n      dup6\n        /* \"contracts/Fast/Contract_1.sol\":7053:7070  accceptedReq[_to] */\n      0xffffffffffffffffffffffffffffffffffffffff\n      and\n      0xffffffffffffffffffffffffffffffffffffffff\n      and\n      dup2\n      mstore\n      0x20\n      add\n      swap1\n      dup2\n      mstore\n      0x20\n      add\n      0x00\n      keccak256\n      0x00\n        /* \"contracts/Fast/Contract_1.sol\":7053:7075  accceptedReq[_to] += 1 */\n      dup3\n      dup3\n      sload\n      tag_449\n      swap2\n      swap1\n      tag_226\n      jump\t// in\n    tag_449:\n      swap3\n      pop\n      pop\n      dup2\n      swap1\n      sstore\n      pop\n        /* \"contracts/Fast/Contract_1.sol\":7121:7126  false */\n      0x00\n        /* \"contracts/Fast/Contract_1.sol\":7085:7098  Communication */\n      0x0c\n        /* \"contracts/Fast/Contract_1.sol\":7085:7107  Communication[tokenId] */\n      0x00\n        /* \"contracts/Fast/Contract_1.sol\":7099:7106  tokenId */\n      dup4\n        /* \"contracts/Fast/Contract_1.sol\":7085:7107  Communication[tokenId] */\n      dup2\n      mstore\n      0x20\n      add\n      swap1\n      dup2\n      mstore\n      0x20\n      add\n      0x00\n      keccak256\n        /* \"contracts/Fast/Contract_1.sol\":7085:7113  Communication[tokenId][from] */\n      0x00\n        /* \"contracts/Fast/Contract_1.sol\":7108:7112  from */\n      dup5\n        /* \"contracts/Fast/Contract_1.sol\":7085:7113  Communication[tokenId][from] */\n      0xffffffffffffffffffffffffffffffffffffffff\n      and\n      0xffffffffffffffffffffffffffffffffffffffff\n      and\n      dup2\n      mstore\n      0x20\n      add\n      swap1\n      dup2\n      mstore\n      0x20\n      add\n      0x00\n      keccak256\n        /* \"contracts/Fast/Contract_1.sol\":7085:7118  Communication[tokenId][from].done */\n      0x02\n      add\n      0x00\n        /* \"contracts/Fast/Contract_1.sol\":7085:7126  Communication[tokenId][from].done = false */\n      0x0100\n      exp\n      dup2\n      sload\n      dup2\n      0xff\n      mul\n      not\n      and\n      swap1\n      dup4\n      iszero\n      iszero\n      mul\n      or\n      swap1\n      sstore\n      pop\n        /* \"contracts/Fast/Contract_1.sol\":7144:7147  _to */\n      dup3\n        /* \"contracts/Fast/Contract_1.sol\":7136:7157  payable(_to).transfer */\n      0xffffffffffffffffffffffffffffffffffffffff\n      and\n        /* \"contracts/Fast/Contract_1.sol\":7136:7193  payable(_to).transfer(Communication[tokenId][from].price) */\n      0x08fc\n        /* \"contracts/Fast/Contract_1.sol\":7158:7171  Communication */\n      0x0c\n        /* \"contracts/Fast/Contract_1.sol\":7158:7180  Communication[tokenId] */\n      0x00\n        /* \"contracts/Fast/Contract_1.sol\":7172:7179  tokenId */\n      dup5\n        /* \"contracts/Fast/Contract_1.sol\":7158:7180  Communication[tokenId] */\n      dup2\n      mstore\n      0x20\n      add\n      swap1\n      dup2\n      mstore\n      0x20\n      add\n      0x00\n      keccak256\n        /* \"contracts/Fast/Contract_1.sol\":7158:7186  Communication[tokenId][from] */\n      0x00\n        /* \"contracts/Fast/Contract_1.sol\":7181:7185  from */\n      dup6\n        /* \"contracts/Fast/Contract_1.sol\":7158:7186  Communication[tokenId][from] */\n      0xffffffffffffffffffffffffffffffffffffffff\n      and\n      0xffffffffffffffffffffffffffffffffffffffff\n      and\n      dup2\n      mstore\n      0x20\n      add\n      swap1\n      dup2\n      mstore\n      0x20\n      add\n      0x00\n      keccak256\n        /* \"contracts/Fast/Contract_1.sol\":7158:7192  Communication[tokenId][from].price */\n      0x01\n      add\n      sload\n        /* \"contracts/Fast/Contract_1.sol\":7136:7193  payable(_to).transfer(Communication[tokenId][from].price) */\n      swap1\n      dup2\n      iszero\n      mul\n      swap1\n      mload(0x40)\n      0x00\n      mload(0x40)\n      dup1\n      dup4\n      sub\n      dup2\n      dup6\n      dup9\n      dup9\n      call\n      swap4\n      pop\n      pop\n      pop\n      pop\n      iszero\n      dup1\n      iszero\n      tag_451\n      jumpi\n      returndatasize\n      0x00\n      dup1\n      returndatacopy\n      revert(0x00, returndatasize)\n    tag_451:\n      pop\n        /* \"contracts/Fast/Contract_1.sol\":6573:7200  function Done(address _to, address from, uint256 tokenId) public payable {... */\n      pop\n      pop\n      pop\n      jump\t// out\n        /* \"contracts/Fast/Contract_1.sol\":369:404  Counters.Counter public TotalTender */\n    tag_187:\n      0x00\n      dup1\n      0x00\n      add\n      sload\n      swap1\n      pop\n      dup2\n      jump\t// out\n        /* \"contracts/Fast/Contract_1.sol\":2424:2634  function SignIn(address _address) public{... */\n    tag_192:\n        /* \"contracts/Fast/Contract_1.sol\":2482:2488  Signer */\n      0x10\n        /* \"contracts/Fast/Contract_1.sol\":2482:2498  Signer[_address] */\n      0x00\n        /* \"contracts/Fast/Contract_1.sol\":2489:2497  _address */\n      dup3\n        /* \"contracts/Fast/Contract_1.sol\":2482:2498  Signer[_address] */\n      0xffffffffffffffffffffffffffffffffffffffff\n      and\n      0xffffffffffffffffffffffffffffffffffffffff\n      and\n      dup2\n      mstore\n      0x20\n      add\n      swap1\n      dup2\n      mstore\n      0x20\n      add\n      0x00\n      keccak256\n        /* \"contracts/Fast/Contract_1.sol\":2482:2501  Signer[_address].Up */\n      0x02\n      add\n      0x14\n      swap1\n      sload\n      swap1\n      0x0100\n      exp\n      swap1\n      div\n      0xff\n      and\n        /* \"contracts/Fast/Contract_1.sol\":2474:2524  require(Signer[_address].Up,\"Please SignUp First\") */\n      tag_453\n      jumpi\n      mload(0x40)\n      0x08c379a000000000000000000000000000000000000000000000000000000000\n      dup2\n      mstore\n      0x04\n      add\n      tag_454\n      swap1\n      tag_455\n      jump\t// in\n    tag_454:\n      mload(0x40)\n      dup1\n      swap2\n      sub\n      swap1\n      revert\n    tag_453:\n        /* \"contracts/Fast/Contract_1.sol\":2543:2549  Signer */\n      0x10\n        /* \"contracts/Fast/Contract_1.sol\":2543:2559  Signer[_address] */\n      0x00\n        /* \"contracts/Fast/Contract_1.sol\":2550:2558  _address */\n      dup3\n        /* \"contracts/Fast/Contract_1.sol\":2543:2559  Signer[_address] */\n      0xffffffffffffffffffffffffffffffffffffffff\n      and\n      0xffffffffffffffffffffffffffffffffffffffff\n      and\n      dup2\n      mstore\n      0x20\n      add\n      swap1\n      dup2\n      mstore\n      0x20\n      add\n      0x00\n      keccak256\n        /* \"contracts/Fast/Contract_1.sol\":2543:2565  Signer[_address].InOut */\n      0x02\n      add\n      0x15\n      swap1\n      sload\n      swap1\n      0x0100\n      exp\n      swap1\n      div\n      0xff\n      and\n        /* \"contracts/Fast/Contract_1.sol\":2542:2565  !Signer[_address].InOut */\n      iszero\n        /* \"contracts/Fast/Contract_1.sol\":2534:2588  require(!Signer[_address].InOut,\"You Already Sign In\") */\n      tag_456\n      jumpi\n      mload(0x40)\n      0x08c379a000000000000000000000000000000000000000000000000000000000\n      dup2\n      mstore\n      0x04\n      add\n      tag_457\n      swap1\n      tag_458\n      jump\t// in\n    tag_457:\n      mload(0x40)\n      dup1\n      swap2\n      sub\n      swap1\n      revert\n    tag_456:\n        /* \"contracts/Fast/Contract_1.sol\":2623:2627  true */\n      0x01\n        /* \"contracts/Fast/Contract_1.sol\":2598:2604  Signer */\n      0x10\n        /* \"contracts/Fast/Contract_1.sol\":2598:2614  Signer[_address] */\n      0x00\n        /* \"contracts/Fast/Contract_1.sol\":2605:2613  _address */\n      dup4\n        /* \"contracts/Fast/Contract_1.sol\":2598:2614  Signer[_address] */\n      0xffffffffffffffffffffffffffffffffffffffff\n      and\n      0xffffffffffffffffffffffffffffffffffffffff\n      and\n      dup2\n      mstore\n      0x20\n      add\n      swap1\n      dup2\n      mstore\n      0x20\n      add\n      0x00\n      keccak256\n        /* \"contracts/Fast/Contract_1.sol\":2598:2620  Signer[_address].InOut */\n      0x02\n      add\n      0x15\n        /* \"contracts/Fast/Contract_1.sol\":2598:2627  Signer[_address].InOut = true */\n      0x0100\n      exp\n      dup2\n      sload\n      dup2\n      0xff\n      mul\n      not\n      and\n      swap1\n      dup4\n      iszero\n      iszero\n      mul\n      or\n      swap1\n      sstore\n      pop\n        /* \"contracts/Fast/Contract_1.sol\":2424:2634  function SignIn(address _address) public{... */\n      pop\n      jump\t// out\n        /* \"contracts/Fast/Contract_1.sol\":2161:2199  mapping(address => Sign) public Signer */\n    tag_196:\n      mstore(0x20, 0x10)\n      dup1\n      0x00\n      mstore\n      keccak256(0x00, 0x40)\n      0x00\n      swap2\n      pop\n      swap1\n      pop\n      dup1\n      0x00\n      add\n      dup1\n      sload\n      tag_459\n      swap1\n      tag_212\n      jump\t// in\n    tag_459:\n      dup1\n      0x1f\n      add\n      0x20\n      dup1\n      swap2\n      div\n      mul\n      0x20\n      add\n      mload(0x40)\n      swap1\n      dup2\n      add\n      0x40\n      mstore\n      dup1\n      swap3\n      swap2\n      swap1\n      dup2\n      dup2\n      mstore\n      0x20\n      add\n      dup3\n      dup1\n      sload\n      tag_460\n      swap1\n      tag_212\n      jump\t// in\n    tag_460:\n      dup1\n      iszero\n      tag_461\n      jumpi\n      dup1\n      0x1f\n      lt\n      tag_462\n      jumpi\n      0x0100\n      dup1\n      dup4\n      sload\n      div\n      mul\n      dup4\n      mstore\n      swap2\n      0x20\n      add\n      swap2\n      jump(tag_461)\n    tag_462:\n      dup3\n      add\n      swap2\n      swap1\n      0x00\n      mstore\n      keccak256(0x00, 0x20)\n      swap1\n    tag_463:\n      dup2\n      sload\n      dup2\n      mstore\n      swap1\n      0x01\n      add\n      swap1\n      0x20\n      add\n      dup1\n      dup4\n      gt\n      tag_463\n      jumpi\n      dup3\n      swap1\n      sub\n      0x1f\n      and\n      dup3\n      add\n      swap2\n    tag_461:\n      pop\n      pop\n      pop\n      pop\n      pop\n      swap1\n      dup1\n      0x01\n      add\n      dup1\n      sload\n      tag_464\n      swap1\n      tag_212\n      jump\t// in\n    tag_464:\n      dup1\n      0x1f\n      add\n      0x20\n      dup1\n      swap2\n      div\n      mul\n      0x20\n      add\n      mload(0x40)\n      swap1\n      dup2\n      add\n      0x40\n      mstore\n      dup1\n      swap3\n      swap2\n      swap1\n      dup2\n      dup2\n      mstore\n      0x20\n      add\n      dup3\n      dup1\n      sload\n      tag_465\n      swap1\n      tag_212\n      jump\t// in\n    tag_465:\n      dup1\n      iszero\n      tag_466\n      jumpi\n      dup1\n      0x1f\n      lt\n      tag_467\n      jumpi\n      0x0100\n      dup1\n      dup4\n      sload\n      div\n      mul\n      dup4\n      mstore\n      swap2\n      0x20\n      add\n      swap2\n      jump(tag_466)\n    tag_467:\n      dup3\n      add\n      swap2\n      swap1\n      0x00\n      mstore\n      keccak256(0x00, 0x20)\n      swap1\n    tag_468:\n      dup2\n      sload\n      dup2\n      mstore\n      swap1\n      0x01\n      add\n      swap1\n      0x20\n      add\n      dup1\n      dup4\n      gt\n      tag_468\n      jumpi\n      dup3\n      swap1\n      sub\n      0x1f\n      and\n      dup3\n      add\n      swap2\n    tag_466:\n      pop\n      pop\n      pop\n      pop\n      pop\n      swap1\n      dup1\n      0x02\n      add\n      0x00\n      swap1\n      sload\n      swap1\n      0x0100\n      exp\n      swap1\n      div\n      0xffffffffffffffffffffffffffffffffffffffff\n      and\n      swap1\n      dup1\n      0x02\n      add\n      0x14\n      swap1\n      sload\n      swap1\n      0x0100\n      exp\n      swap1\n      div\n      0xff\n      and\n      swap1\n      dup1\n      0x02\n      add\n      0x15\n      swap1\n      sload\n      swap1\n      0x0100\n      exp\n      swap1\n      div\n      0xff\n      and\n      swap1\n      pop\n      dup6\n      jump\t// out\n        /* \"contracts/Fast/Contract_1.sol\":1490:1535  mapping(uint256 => uint256) public SizeVender */\n    tag_202:\n      mstore(0x20, 0x05)\n      dup1\n      0x00\n      mstore\n      keccak256(0x00, 0x40)\n      0x00\n      swap2\n      pop\n      swap1\n      pop\n      sload\n      dup2\n      jump\t// out\n        /* \"@openzeppelin/contracts/utils/Counters.sol\":945:1068  function increment(Counter storage counter) internal {... */\n    tag_224:\n        /* \"@openzeppelin/contracts/utils/Counters.sol\":1050:1051  1 */\n      0x01\n        /* \"@openzeppelin/contracts/utils/Counters.sol\":1032:1039  counter */\n      dup2\n        /* \"@openzeppelin/contracts/utils/Counters.sol\":1032:1046  counter._value */\n      0x00\n      add\n      0x00\n        /* \"@openzeppelin/contracts/utils/Counters.sol\":1032:1051  counter._value += 1 */\n      dup3\n      dup3\n      sload\n      add\n      swap3\n      pop\n      pop\n      dup2\n      swap1\n      sstore\n      pop\n        /* \"@openzeppelin/contracts/utils/Counters.sol\":945:1068  function increment(Counter storage counter) internal {... */\n      pop\n      jump\t// out\n        /* \"@openzeppelin/contracts/utils/Counters.sol\":827:939  function current(Counter storage counter) internal view returns (uint256) {... */\n    tag_228:\n        /* \"@openzeppelin/contracts/utils/Counters.sol\":892:899  uint256 */\n      0x00\n        /* \"@openzeppelin/contracts/utils/Counters.sol\":918:925  counter */\n      dup2\n        /* \"@openzeppelin/contracts/utils/Counters.sol\":918:932  counter._value */\n      0x00\n      add\n      sload\n        /* \"@openzeppelin/contracts/utils/Counters.sol\":911:932  return counter._value */\n      swap1\n      pop\n        /* \"@openzeppelin/contracts/utils/Counters.sol\":827:939  function current(Counter storage counter) internal view returns (uint256) {... */\n      swap2\n      swap1\n      pop\n      jump\t// out\n        /* \"@openzeppelin/contracts/utils/Strings.sol\":415:1111  function toString(uint256 value) internal pure returns (string memory) {... */\n    tag_300:\n        /* \"@openzeppelin/contracts/utils/Strings.sol\":471:484  string memory */\n      0x60\n        /* \"@openzeppelin/contracts/utils/Strings.sol\":520:534  uint256 length */\n      0x00\n        /* \"@openzeppelin/contracts/utils/Strings.sol\":557:558  1 */\n      0x01\n        /* \"@openzeppelin/contracts/utils/Strings.sol\":537:554  Math.log10(value) */\n      tag_472\n        /* \"@openzeppelin/contracts/utils/Strings.sol\":548:553  value */\n      dup5\n        /* \"@openzeppelin/contracts/utils/Strings.sol\":537:547  Math.log10 */\n      tag_473\n        /* \"@openzeppelin/contracts/utils/Strings.sol\":537:554  Math.log10(value) */\n      jump\t// in\n    tag_472:\n        /* \"@openzeppelin/contracts/utils/Strings.sol\":537:558  Math.log10(value) + 1 */\n      add\n        /* \"@openzeppelin/contracts/utils/Strings.sol\":520:558  uint256 length = Math.log10(value) + 1 */\n      swap1\n      pop\n        /* \"@openzeppelin/contracts/utils/Strings.sol\":572:592  string memory buffer */\n      0x00\n        /* \"@openzeppelin/contracts/utils/Strings.sol\":606:612  length */\n      dup2\n        /* \"@openzeppelin/contracts/utils/Strings.sol\":595:613  new string(length) */\n      0xffffffffffffffff\n      dup2\n      gt\n      iszero\n      tag_474\n      jumpi\n      tag_475\n      tag_317\n      jump\t// in\n    tag_475:\n    tag_474:\n      mload(0x40)\n      swap1\n      dup1\n      dup3\n      mstore\n      dup1\n      0x1f\n      add\n      not(0x1f)\n      and\n      0x20\n      add\n      dup3\n      add\n      0x40\n      mstore\n      dup1\n      iszero\n      tag_476\n      jumpi\n      dup2\n      0x20\n      add\n      0x01\n      dup3\n      mul\n      dup1\n      calldatasize\n      dup4\n      calldatacopy\n      dup1\n      dup3\n      add\n      swap2\n      pop\n      pop\n      swap1\n      pop\n    tag_476:\n      pop\n        /* \"@openzeppelin/contracts/utils/Strings.sol\":572:613  string memory buffer = new string(length) */\n      swap1\n      pop\n        /* \"@openzeppelin/contracts/utils/Strings.sol\":627:638  uint256 ptr */\n      0x00\n        /* \"@openzeppelin/contracts/utils/Strings.sol\":753:759  length */\n      dup3\n        /* \"@openzeppelin/contracts/utils/Strings.sol\":749:751  32 */\n      0x20\n        /* \"@openzeppelin/contracts/utils/Strings.sol\":745:760  add(32, length) */\n      add\n        /* \"@openzeppelin/contracts/utils/Strings.sol\":737:743  buffer */\n      dup3\n        /* \"@openzeppelin/contracts/utils/Strings.sol\":733:761  add(buffer, add(32, length)) */\n      add\n        /* \"@openzeppelin/contracts/utils/Strings.sol\":726:761  ptr := add(buffer, add(32, length)) */\n      swap1\n      pop\n        /* \"@openzeppelin/contracts/utils/Strings.sol\":788:1068  while (true) {... */\n    tag_477:\n        /* \"@openzeppelin/contracts/utils/Strings.sol\":795:799  true */\n      0x01\n        /* \"@openzeppelin/contracts/utils/Strings.sol\":788:1068  while (true) {... */\n      iszero\n      tag_478\n      jumpi\n        /* \"@openzeppelin/contracts/utils/Strings.sol\":819:824  ptr-- */\n      dup1\n      dup1\n      0x01\n      swap1\n      sub\n      swap2\n      pop\n      pop\n        /* \"@openzeppelin/contracts/utils/Strings.sol\":958:966  _SYMBOLS */\n      0x3031323334353637383961626364656600000000000000000000000000000000\n        /* \"@openzeppelin/contracts/utils/Strings.sol\":953:955  10 */\n      0x0a\n        /* \"@openzeppelin/contracts/utils/Strings.sol\":946:951  value */\n      dup7\n        /* \"@openzeppelin/contracts/utils/Strings.sol\":942:956  mod(value, 10) */\n      mod\n        /* \"@openzeppelin/contracts/utils/Strings.sol\":937:967  byte(mod(value, 10), _SYMBOLS) */\n      byte\n        /* \"@openzeppelin/contracts/utils/Strings.sol\":932:935  ptr */\n      dup2\n        /* \"@openzeppelin/contracts/utils/Strings.sol\":924:968  mstore8(ptr, byte(mod(value, 10), _SYMBOLS)) */\n      mstore8\n        /* \"@openzeppelin/contracts/utils/Strings.sol\":1012:1014  10 */\n      0x0a\n        /* \"@openzeppelin/contracts/utils/Strings.sol\":1003:1014  value /= 10 */\n      dup6\n      dup2\n      tag_479\n      jumpi\n      tag_480\n      tag_481\n      jump\t// in\n    tag_480:\n    tag_479:\n      div\n      swap5\n      pop\n        /* \"@openzeppelin/contracts/utils/Strings.sol\":1045:1046  0 */\n      0x00\n        /* \"@openzeppelin/contracts/utils/Strings.sol\":1036:1041  value */\n      dup6\n        /* \"@openzeppelin/contracts/utils/Strings.sol\":1036:1046  value == 0 */\n      eq\n        /* \"@openzeppelin/contracts/utils/Strings.sol\":1032:1053  if (value == 0) break */\n      iszero\n      tag_482\n      jumpi\n        /* \"@openzeppelin/contracts/utils/Strings.sol\":1048:1053  break */\n      jump(tag_478)\n        /* \"@openzeppelin/contracts/utils/Strings.sol\":1032:1053  if (value == 0) break */\n    tag_482:\n        /* \"@openzeppelin/contracts/utils/Strings.sol\":788:1068  while (true) {... */\n      jump(tag_477)\n    tag_478:\n        /* \"@openzeppelin/contracts/utils/Strings.sol\":1088:1094  buffer */\n      dup2\n        /* \"@openzeppelin/contracts/utils/Strings.sol\":1081:1094  return buffer */\n      swap4\n      pop\n      pop\n      pop\n      pop\n        /* \"@openzeppelin/contracts/utils/Strings.sol\":415:1111  function toString(uint256 value) internal pure returns (string memory) {... */\n      swap2\n      swap1\n      pop\n      jump\t// out\n        /* \"@openzeppelin/contracts/utils/math/Math.sol\":9889:10779  function log10(uint256 value) internal pure returns (uint256) {... */\n    tag_473:\n        /* \"@openzeppelin/contracts/utils/math/Math.sol\":9942:9949  uint256 */\n      0x00\n        /* \"@openzeppelin/contracts/utils/math/Math.sol\":9961:9975  uint256 result */\n      dup1\n        /* \"@openzeppelin/contracts/utils/math/Math.sol\":9978:9979  0 */\n      0x00\n        /* \"@openzeppelin/contracts/utils/math/Math.sol\":9961:9979  uint256 result = 0 */\n      swap1\n      pop\n        /* \"@openzeppelin/contracts/utils/math/Math.sol\":10026:10032  10**64 */\n      0x184f03e93ff9f4daa797ed6e38ed64bf6a1f010000000000000000\n        /* \"@openzeppelin/contracts/utils/math/Math.sol\":10017:10022  value */\n      dup4\n        /* \"@openzeppelin/contracts/utils/math/Math.sol\":10017:10032  value >= 10**64 */\n      lt\n        /* \"@openzeppelin/contracts/utils/math/Math.sol\":10013:10112  if (value >= 10**64) {... */\n      tag_484\n      jumpi\n        /* \"@openzeppelin/contracts/utils/math/Math.sol\":10061:10067  10**64 */\n      0x184f03e93ff9f4daa797ed6e38ed64bf6a1f010000000000000000\n        /* \"@openzeppelin/contracts/utils/math/Math.sol\":10052:10067  value /= 10**64 */\n      dup4\n      dup2\n      tag_485\n      jumpi\n      tag_486\n      tag_481\n      jump\t// in\n    tag_486:\n    tag_485:\n      div\n      swap3\n      pop\n        /* \"@openzeppelin/contracts/utils/math/Math.sol\":10095:10097  64 */\n      0x40\n        /* \"@openzeppelin/contracts/utils/math/Math.sol\":10085:10097  result += 64 */\n      dup2\n      add\n      swap1\n      pop\n        /* \"@openzeppelin/contracts/utils/math/Math.sol\":10013:10112  if (value >= 10**64) {... */\n    tag_484:\n        /* \"@openzeppelin/contracts/utils/math/Math.sol\":10138:10144  10**32 */\n      0x04ee2d6d415b85acef8100000000\n        /* \"@openzeppelin/contracts/utils/math/Math.sol\":10129:10134  value */\n      dup4\n        /* \"@openzeppelin/contracts/utils/math/Math.sol\":10129:10144  value >= 10**32 */\n      lt\n        /* \"@openzeppelin/contracts/utils/math/Math.sol\":10125:10224  if (value >= 10**32) {... */\n      tag_487\n      jumpi\n        /* \"@openzeppelin/contracts/utils/math/Math.sol\":10173:10179  10**32 */\n      0x04ee2d6d415b85acef8100000000\n        /* \"@openzeppelin/contracts/utils/math/Math.sol\":10164:10179  value /= 10**32 */\n      dup4\n      dup2\n      tag_488\n      jumpi\n      tag_489\n      tag_481\n      jump\t// in\n    tag_489:\n    tag_488:\n      div\n      swap3\n      pop\n        /* \"@openzeppelin/contracts/utils/math/Math.sol\":10207:10209  32 */\n      0x20\n        /* \"@openzeppelin/contracts/utils/math/Math.sol\":10197:10209  result += 32 */\n      dup2\n      add\n      swap1\n      pop\n        /* \"@openzeppelin/contracts/utils/math/Math.sol\":10125:10224  if (value >= 10**32) {... */\n    tag_487:\n        /* \"@openzeppelin/contracts/utils/math/Math.sol\":10250:10256  10**16 */\n      0x2386f26fc10000\n        /* \"@openzeppelin/contracts/utils/math/Math.sol\":10241:10246  value */\n      dup4\n        /* \"@openzeppelin/contracts/utils/math/Math.sol\":10241:10256  value >= 10**16 */\n      lt\n        /* \"@openzeppelin/contracts/utils/math/Math.sol\":10237:10336  if (value >= 10**16) {... */\n      tag_490\n      jumpi\n        /* \"@openzeppelin/contracts/utils/math/Math.sol\":10285:10291  10**16 */\n      0x2386f26fc10000\n        /* \"@openzeppelin/contracts/utils/math/Math.sol\":10276:10291  value /= 10**16 */\n      dup4\n      dup2\n      tag_491\n      jumpi\n      tag_492\n      tag_481\n      jump\t// in\n    tag_492:\n    tag_491:\n      div\n      swap3\n      pop\n        /* \"@openzeppelin/contracts/utils/math/Math.sol\":10319:10321  16 */\n      0x10\n        /* \"@openzeppelin/contracts/utils/math/Math.sol\":10309:10321  result += 16 */\n      dup2\n      add\n      swap1\n      pop\n        /* \"@openzeppelin/contracts/utils/math/Math.sol\":10237:10336  if (value >= 10**16) {... */\n    tag_490:\n        /* \"@openzeppelin/contracts/utils/math/Math.sol\":10362:10367  10**8 */\n      0x05f5e100\n        /* \"@openzeppelin/contracts/utils/math/Math.sol\":10353:10358  value */\n      dup4\n        /* \"@openzeppelin/contracts/utils/math/Math.sol\":10353:10367  value >= 10**8 */\n      lt\n        /* \"@openzeppelin/contracts/utils/math/Math.sol\":10349:10445  if (value >= 10**8) {... */\n      tag_493\n      jumpi\n        /* \"@openzeppelin/contracts/utils/math/Math.sol\":10396:10401  10**8 */\n      0x05f5e100\n        /* \"@openzeppelin/contracts/utils/math/Math.sol\":10387:10401  value /= 10**8 */\n      dup4\n      dup2\n      tag_494\n      jumpi\n      tag_495\n      tag_481\n      jump\t// in\n    tag_495:\n    tag_494:\n      div\n      swap3\n      pop\n        /* \"@openzeppelin/contracts/utils/math/Math.sol\":10429:10430  8 */\n      0x08\n        /* \"@openzeppelin/contracts/utils/math/Math.sol\":10419:10430  result += 8 */\n      dup2\n      add\n      swap1\n      pop\n        /* \"@openzeppelin/contracts/utils/math/Math.sol\":10349:10445  if (value >= 10**8) {... */\n    tag_493:\n        /* \"@openzeppelin/contracts/utils/math/Math.sol\":10471:10476  10**4 */\n      0x2710\n        /* \"@openzeppelin/contracts/utils/math/Math.sol\":10462:10467  value */\n      dup4\n        /* \"@openzeppelin/contracts/utils/math/Math.sol\":10462:10476  value >= 10**4 */\n      lt\n        /* \"@openzeppelin/contracts/utils/math/Math.sol\":10458:10554  if (value >= 10**4) {... */\n      tag_496\n      jumpi\n        /* \"@openzeppelin/contracts/utils/math/Math.sol\":10505:10510  10**4 */\n      0x2710\n        /* \"@openzeppelin/contracts/utils/math/Math.sol\":10496:10510  value /= 10**4 */\n      dup4\n      dup2\n      tag_497\n      jumpi\n      tag_498\n      tag_481\n      jump\t// in\n    tag_498:\n    tag_497:\n      div\n      swap3\n      pop\n        /* \"@openzeppelin/contracts/utils/math/Math.sol\":10538:10539  4 */\n      0x04\n        /* \"@openzeppelin/contracts/utils/math/Math.sol\":10528:10539  result += 4 */\n      dup2\n      add\n      swap1\n      pop\n        /* \"@openzeppelin/contracts/utils/math/Math.sol\":10458:10554  if (value >= 10**4) {... */\n    tag_496:\n        /* \"@openzeppelin/contracts/utils/math/Math.sol\":10580:10585  10**2 */\n      0x64\n        /* \"@openzeppelin/contracts/utils/math/Math.sol\":10571:10576  value */\n      dup4\n        /* \"@openzeppelin/contracts/utils/math/Math.sol\":10571:10585  value >= 10**2 */\n      lt\n        /* \"@openzeppelin/contracts/utils/math/Math.sol\":10567:10663  if (value >= 10**2) {... */\n      tag_499\n      jumpi\n        /* \"@openzeppelin/contracts/utils/math/Math.sol\":10614:10619  10**2 */\n      0x64\n        /* \"@openzeppelin/contracts/utils/math/Math.sol\":10605:10619  value /= 10**2 */\n      dup4\n      dup2\n      tag_500\n      jumpi\n      tag_501\n      tag_481\n      jump\t// in\n    tag_501:\n    tag_500:\n      div\n      swap3\n      pop\n        /* \"@openzeppelin/contracts/utils/math/Math.sol\":10647:10648  2 */\n      0x02\n        /* \"@openzeppelin/contracts/utils/math/Math.sol\":10637:10648  result += 2 */\n      dup2\n      add\n      swap1\n      pop\n        /* \"@openzeppelin/contracts/utils/math/Math.sol\":10567:10663  if (value >= 10**2) {... */\n    tag_499:\n        /* \"@openzeppelin/contracts/utils/math/Math.sol\":10689:10694  10**1 */\n      0x0a\n        /* \"@openzeppelin/contracts/utils/math/Math.sol\":10680:10685  value */\n      dup4\n        /* \"@openzeppelin/contracts/utils/math/Math.sol\":10680:10694  value >= 10**1 */\n      lt\n        /* \"@openzeppelin/contracts/utils/math/Math.sol\":10676:10740  if (value >= 10**1) {... */\n      tag_502\n      jumpi\n        /* \"@openzeppelin/contracts/utils/math/Math.sol\":10724:10725  1 */\n      0x01\n        /* \"@openzeppelin/contracts/utils/math/Math.sol\":10714:10725  result += 1 */\n      dup2\n      add\n      swap1\n      pop\n        /* \"@openzeppelin/contracts/utils/math/Math.sol\":10676:10740  if (value >= 10**1) {... */\n    tag_502:\n        /* \"@openzeppelin/contracts/utils/math/Math.sol\":10766:10772  result */\n      dup1\n        /* \"@openzeppelin/contracts/utils/math/Math.sol\":10759:10772  return result */\n      swap2\n      pop\n      pop\n        /* \"@openzeppelin/contracts/utils/math/Math.sol\":9889:10779  function log10(uint256 value) internal pure returns (uint256) {... */\n      swap2\n      swap1\n      pop\n      jump\t// out\n    tag_234:\n      dup3\n      dup1\n      sload\n      tag_503\n      swap1\n      tag_212\n      jump\t// in\n    tag_503:\n      swap1\n      0x00\n      mstore\n      keccak256(0x00, 0x20)\n      swap1\n      0x1f\n      add\n      0x20\n      swap1\n      div\n      dup2\n      add\n      swap3\n      dup3\n      tag_505\n      jumpi\n      0x00\n      dup6\n      sstore\n      jump(tag_504)\n    tag_505:\n      dup3\n      0x1f\n      lt\n      tag_506\n      jumpi\n      dup1\n      mload\n      not(0xff)\n      and\n      dup4\n      dup1\n      add\n      or\n      dup6\n      sstore\n      jump(tag_504)\n    tag_506:\n      dup3\n      dup1\n      add\n      0x01\n      add\n      dup6\n      sstore\n      dup3\n      iszero\n      tag_504\n      jumpi\n      swap2\n      dup3\n      add\n    tag_507:\n      dup3\n      dup2\n      gt\n      iszero\n      tag_508\n      jumpi\n      dup3\n      mload\n      dup3\n      sstore\n      swap2\n      0x20\n      add\n      swap2\n      swap1\n      0x01\n      add\n      swap1\n      jump(tag_507)\n    tag_508:\n    tag_504:\n      pop\n      swap1\n      pop\n      tag_509\n      swap2\n      swap1\n      tag_510\n      jump\t// in\n    tag_509:\n      pop\n      swap1\n      jump\t// out\n    tag_248:\n      pop\n      dup1\n      sload\n      tag_511\n      swap1\n      tag_212\n      jump\t// in\n    tag_511:\n      0x00\n      dup3\n      sstore\n      dup1\n      0x1f\n      lt\n      tag_513\n      jumpi\n      pop\n      jump(tag_512)\n    tag_513:\n      0x1f\n      add\n      0x20\n      swap1\n      div\n      swap1\n      0x00\n      mstore\n      keccak256(0x00, 0x20)\n      swap1\n      dup2\n      add\n      swap1\n      tag_514\n      swap2\n      swap1\n      tag_510\n      jump\t// in\n    tag_514:\n    tag_512:\n      pop\n      jump\t// out\n    tag_321:\n      mload(0x40)\n      dup1\n      0xe0\n      add\n      0x40\n      mstore\n      dup1\n      0x00\n      dup2\n      mstore\n      0x20\n      add\n      0x00\n      dup2\n      mstore\n      0x20\n      add\n      0x60\n      dup2\n      mstore\n      0x20\n      add\n      and(0xffffffffffffffffffffffffffffffffffffffff, 0x00)\n      dup2\n      mstore\n      0x20\n      add\n      0x00\n      dup2\n      mstore\n      0x20\n      add\n      0x00\n      dup2\n      mstore\n      0x20\n      add\n      0x60\n      dup2\n      mstore\n      pop\n      swap1\n      jump\t// out\n    tag_352:\n      mload(0x40)\n      dup1\n      0x0120\n      add\n      0x40\n      mstore\n      dup1\n      0x00\n      dup2\n      mstore\n      0x20\n      add\n      0x60\n      dup2\n      mstore\n      0x20\n      add\n      0x00\n      dup2\n      mstore\n      0x20\n      add\n      0x00\n      dup2\n      mstore\n      0x20\n      add\n      0x00\n      dup2\n      mstore\n      0x20\n      add\n      0x00\n      dup2\n      mstore\n      0x20\n      add\n      0x60\n      dup2\n      mstore\n      0x20\n      add\n      0x60\n      dup2\n      mstore\n      0x20\n      add\n      and(0xffffffffffffffffffffffffffffffffffffffff, 0x00)\n      dup2\n      mstore\n      pop\n      swap1\n      jump\t// out\n    tag_510:\n    tag_515:\n      dup1\n      dup3\n      gt\n      iszero\n      tag_516\n      jumpi\n      0x00\n      dup2\n      0x00\n      swap1\n      sstore\n      pop\n      0x01\n      add\n      jump(tag_515)\n    tag_516:\n      pop\n      swap1\n      jump\t// out\n        /* \"#utility.yul\":7:419   */\n    tag_518:\n        /* \"#utility.yul\":85:90   */\n      0x00\n        /* \"#utility.yul\":110:176   */\n      tag_520\n        /* \"#utility.yul\":126:175   */\n      tag_521\n        /* \"#utility.yul\":168:174   */\n      dup5\n        /* \"#utility.yul\":126:175   */\n      tag_522\n      jump\t// in\n    tag_521:\n        /* \"#utility.yul\":110:176   */\n      tag_523\n      jump\t// in\n    tag_520:\n        /* \"#utility.yul\":101:176   */\n      swap1\n      pop\n        /* \"#utility.yul\":199:205   */\n      dup3\n        /* \"#utility.yul\":192:197   */\n      dup2\n        /* \"#utility.yul\":185:206   */\n      mstore\n        /* \"#utility.yul\":237:241   */\n      0x20\n        /* \"#utility.yul\":230:235   */\n      dup2\n        /* \"#utility.yul\":226:242   */\n      add\n        /* \"#utility.yul\":275:278   */\n      dup5\n        /* \"#utility.yul\":266:272   */\n      dup5\n        /* \"#utility.yul\":261:264   */\n      dup5\n        /* \"#utility.yul\":257:273   */\n      add\n        /* \"#utility.yul\":254:279   */\n      gt\n        /* \"#utility.yul\":251:363   */\n      iszero\n      tag_524\n      jumpi\n        /* \"#utility.yul\":282:361   */\n      tag_525\n      tag_526\n      jump\t// in\n    tag_525:\n        /* \"#utility.yul\":251:363   */\n    tag_524:\n        /* \"#utility.yul\":372:413   */\n      tag_527\n        /* \"#utility.yul\":406:412   */\n      dup5\n        /* \"#utility.yul\":401:404   */\n      dup3\n        /* \"#utility.yul\":396:399   */\n      dup6\n        /* \"#utility.yul\":372:413   */\n      tag_528\n      jump\t// in\n    tag_527:\n        /* \"#utility.yul\":91:419   */\n      pop\n        /* \"#utility.yul\":7:419   */\n      swap4\n      swap3\n      pop\n      pop\n      pop\n      jump\t// out\n        /* \"#utility.yul\":425:564   */\n    tag_529:\n        /* \"#utility.yul\":471:476   */\n      0x00\n        /* \"#utility.yul\":509:515   */\n      dup2\n        /* \"#utility.yul\":496:516   */\n      calldataload\n        /* \"#utility.yul\":487:516   */\n      swap1\n      pop\n        /* \"#utility.yul\":525:558   */\n      tag_531\n        /* \"#utility.yul\":552:557   */\n      dup2\n        /* \"#utility.yul\":525:558   */\n      tag_532\n      jump\t// in\n    tag_531:\n        /* \"#utility.yul\":425:564   */\n      swap3\n      swap2\n      pop\n      pop\n      jump\t// out\n        /* \"#utility.yul\":584:924   */\n    tag_533:\n        /* \"#utility.yul\":640:645   */\n      0x00\n        /* \"#utility.yul\":689:692   */\n      dup3\n        /* \"#utility.yul\":682:686   */\n      0x1f\n        /* \"#utility.yul\":674:680   */\n      dup4\n        /* \"#utility.yul\":670:687   */\n      add\n        /* \"#utility.yul\":666:693   */\n      slt\n        /* \"#utility.yul\":656:778   */\n      tag_535\n      jumpi\n        /* \"#utility.yul\":697:776   */\n      tag_536\n      tag_537\n      jump\t// in\n    tag_536:\n        /* \"#utility.yul\":656:778   */\n    tag_535:\n        /* \"#utility.yul\":814:820   */\n      dup2\n        /* \"#utility.yul\":801:821   */\n      calldataload\n        /* \"#utility.yul\":839:918   */\n      tag_538\n        /* \"#utility.yul\":914:917   */\n      dup5\n        /* \"#utility.yul\":906:912   */\n      dup3\n        /* \"#utility.yul\":899:903   */\n      0x20\n        /* \"#utility.yul\":891:897   */\n      dup7\n        /* \"#utility.yul\":887:904   */\n      add\n        /* \"#utility.yul\":839:918   */\n      tag_518\n      jump\t// in\n    tag_538:\n        /* \"#utility.yul\":830:918   */\n      swap2\n      pop\n        /* \"#utility.yul\":646:924   */\n      pop\n        /* \"#utility.yul\":584:924   */\n      swap3\n      swap2\n      pop\n      pop\n      jump\t// out\n        /* \"#utility.yul\":930:1069   */\n    tag_539:\n        /* \"#utility.yul\":976:981   */\n      0x00\n        /* \"#utility.yul\":1014:1020   */\n      dup2\n        /* \"#utility.yul\":1001:1021   */\n      calldataload\n        /* \"#utility.yul\":992:1021   */\n      swap1\n      pop\n        /* \"#utility.yul\":1030:1063   */\n      tag_541\n        /* \"#utility.yul\":1057:1062   */\n      dup2\n        /* \"#utility.yul\":1030:1063   */\n      tag_542\n      jump\t// in\n    tag_541:\n        /* \"#utility.yul\":930:1069   */\n      swap3\n      swap2\n      pop\n      pop\n      jump\t// out\n        /* \"#utility.yul\":1075:1404   */\n    tag_43:\n        /* \"#utility.yul\":1134:1140   */\n      0x00\n        /* \"#utility.yul\":1183:1185   */\n      0x20\n        /* \"#utility.yul\":1171:1180   */\n      dup3\n        /* \"#utility.yul\":1162:1169   */\n      dup5\n        /* \"#utility.yul\":1158:1181   */\n      sub\n        /* \"#utility.yul\":1154:1186   */\n      slt\n        /* \"#utility.yul\":1151:1270   */\n      iszero\n      tag_544\n      jumpi\n        /* \"#utility.yul\":1189:1268   */\n      tag_545\n      tag_546\n      jump\t// in\n    tag_545:\n        /* \"#utility.yul\":1151:1270   */\n    tag_544:\n        /* \"#utility.yul\":1309:1310   */\n      0x00\n        /* \"#utility.yul\":1334:1387   */\n      tag_547\n        /* \"#utility.yul\":1379:1386   */\n      dup5\n        /* \"#utility.yul\":1370:1376   */\n      dup3\n        /* \"#utility.yul\":1359:1368   */\n      dup6\n        /* \"#utility.yul\":1355:1377   */\n      add\n        /* \"#utility.yul\":1334:1387   */\n      tag_529\n      jump\t// in\n    tag_547:\n        /* \"#utility.yul\":1324:1387   */\n      swap2\n      pop\n        /* \"#utility.yul\":1280:1397   */\n      pop\n        /* \"#utility.yul\":1075:1404   */\n      swap3\n      swap2\n      pop\n      pop\n      jump\t// out\n        /* \"#utility.yul\":1410:2029   */\n    tag_183:\n        /* \"#utility.yul\":1487:1493   */\n      0x00\n        /* \"#utility.yul\":1495:1501   */\n      dup1\n        /* \"#utility.yul\":1503:1509   */\n      0x00\n        /* \"#utility.yul\":1552:1554   */\n      0x60\n        /* \"#utility.yul\":1540:1549   */\n      dup5\n        /* \"#utility.yul\":1531:1538   */\n      dup7\n        /* \"#utility.yul\":1527:1550   */\n      sub\n        /* \"#utility.yul\":1523:1555   */\n      slt\n        /* \"#utility.yul\":1520:1639   */\n      iszero\n      tag_549\n      jumpi\n        /* \"#utility.yul\":1558:1637   */\n      tag_550\n      tag_546\n      jump\t// in\n    tag_550:\n        /* \"#utility.yul\":1520:1639   */\n    tag_549:\n        /* \"#utility.yul\":1678:1679   */\n      0x00\n        /* \"#utility.yul\":1703:1756   */\n      tag_551\n        /* \"#utility.yul\":1748:1755   */\n      dup7\n        /* \"#utility.yul\":1739:1745   */\n      dup3\n        /* \"#utility.yul\":1728:1737   */\n      dup8\n        /* \"#utility.yul\":1724:1746   */\n      add\n        /* \"#utility.yul\":1703:1756   */\n      tag_529\n      jump\t// in\n    tag_551:\n        /* \"#utility.yul\":1693:1756   */\n      swap4\n      pop\n        /* \"#utility.yul\":1649:1766   */\n      pop\n        /* \"#utility.yul\":1805:1807   */\n      0x20\n        /* \"#utility.yul\":1831:1884   */\n      tag_552\n        /* \"#utility.yul\":1876:1883   */\n      dup7\n        /* \"#utility.yul\":1867:1873   */\n      dup3\n        /* \"#utility.yul\":1856:1865   */\n      dup8\n        /* \"#utility.yul\":1852:1874   */\n      add\n        /* \"#utility.yul\":1831:1884   */\n      tag_529\n      jump\t// in\n    tag_552:\n        /* \"#utility.yul\":1821:1884   */\n      swap3\n      pop\n        /* \"#utility.yul\":1776:1894   */\n      pop\n        /* \"#utility.yul\":1933:1935   */\n      0x40\n        /* \"#utility.yul\":1959:2012   */\n      tag_553\n        /* \"#utility.yul\":2004:2011   */\n      dup7\n        /* \"#utility.yul\":1995:2001   */\n      dup3\n        /* \"#utility.yul\":1984:1993   */\n      dup8\n        /* \"#utility.yul\":1980:2002   */\n      add\n        /* \"#utility.yul\":1959:2012   */\n      tag_539\n      jump\t// in\n    tag_553:\n        /* \"#utility.yul\":1949:2012   */\n      swap2\n      pop\n        /* \"#utility.yul\":1904:2022   */\n      pop\n        /* \"#utility.yul\":1410:2029   */\n      swap3\n      pop\n      swap3\n      pop\n      swap3\n      jump\t// out\n        /* \"#utility.yul\":2035:2509   */\n    tag_99:\n        /* \"#utility.yul\":2103:2109   */\n      0x00\n        /* \"#utility.yul\":2111:2117   */\n      dup1\n        /* \"#utility.yul\":2160:2162   */\n      0x40\n        /* \"#utility.yul\":2148:2157   */\n      dup4\n        /* \"#utility.yul\":2139:2146   */\n      dup6\n        /* \"#utility.yul\":2135:2158   */\n      sub\n        /* \"#utility.yul\":2131:2163   */\n      slt\n        /* \"#utility.yul\":2128:2247   */\n      iszero\n      tag_555\n      jumpi\n        /* \"#utility.yul\":2166:2245   */\n      tag_556\n      tag_546\n      jump\t// in\n    tag_556:\n        /* \"#utility.yul\":2128:2247   */\n    tag_555:\n        /* \"#utility.yul\":2286:2287   */\n      0x00\n        /* \"#utility.yul\":2311:2364   */\n      tag_557\n        /* \"#utility.yul\":2356:2363   */\n      dup6\n        /* \"#utility.yul\":2347:2353   */\n      dup3\n        /* \"#utility.yul\":2336:2345   */\n      dup7\n        /* \"#utility.yul\":2332:2354   */\n      add\n        /* \"#utility.yul\":2311:2364   */\n      tag_529\n      jump\t// in\n    tag_557:\n        /* \"#utility.yul\":2301:2364   */\n      swap3\n      pop\n        /* \"#utility.yul\":2257:2374   */\n      pop\n        /* \"#utility.yul\":2413:2415   */\n      0x20\n        /* \"#utility.yul\":2439:2492   */\n      tag_558\n        /* \"#utility.yul\":2484:2491   */\n      dup6\n        /* \"#utility.yul\":2475:2481   */\n      dup3\n        /* \"#utility.yul\":2464:2473   */\n      dup7\n        /* \"#utility.yul\":2460:2482   */\n      add\n        /* \"#utility.yul\":2439:2492   */\n      tag_539\n      jump\t// in\n    tag_558:\n        /* \"#utility.yul\":2429:2492   */\n      swap2\n      pop\n        /* \"#utility.yul\":2384:2502   */\n      pop\n        /* \"#utility.yul\":2035:2509   */\n      swap3\n      pop\n      swap3\n      swap1\n      pop\n      jump\t// out\n        /* \"#utility.yul\":2515:3134   */\n    tag_158:\n        /* \"#utility.yul\":2592:2598   */\n      0x00\n        /* \"#utility.yul\":2600:2606   */\n      dup1\n        /* \"#utility.yul\":2608:2614   */\n      0x00\n        /* \"#utility.yul\":2657:2659   */\n      0x60\n        /* \"#utility.yul\":2645:2654   */\n      dup5\n        /* \"#utility.yul\":2636:2643   */\n      dup7\n        /* \"#utility.yul\":2632:2655   */\n      sub\n        /* \"#utility.yul\":2628:2660   */\n      slt\n        /* \"#utility.yul\":2625:2744   */\n      iszero\n      tag_560\n      jumpi\n        /* \"#utility.yul\":2663:2742   */\n      tag_561\n      tag_546\n      jump\t// in\n    tag_561:\n        /* \"#utility.yul\":2625:2744   */\n    tag_560:\n        /* \"#utility.yul\":2783:2784   */\n      0x00\n        /* \"#utility.yul\":2808:2861   */\n      tag_562\n        /* \"#utility.yul\":2853:2860   */\n      dup7\n        /* \"#utility.yul\":2844:2850   */\n      dup3\n        /* \"#utility.yul\":2833:2842   */\n      dup8\n        /* \"#utility.yul\":2829:2851   */\n      add\n        /* \"#utility.yul\":2808:2861   */\n      tag_529\n      jump\t// in\n    tag_562:\n        /* \"#utility.yul\":2798:2861   */\n      swap4\n      pop\n        /* \"#utility.yul\":2754:2871   */\n      pop\n        /* \"#utility.yul\":2910:2912   */\n      0x20\n        /* \"#utility.yul\":2936:2989   */\n      tag_563\n        /* \"#utility.yul\":2981:2988   */\n      dup7\n        /* \"#utility.yul\":2972:2978   */\n      dup3\n        /* \"#utility.yul\":2961:2970   */\n      dup8\n        /* \"#utility.yul\":2957:2979   */\n      add\n        /* \"#utility.yul\":2936:2989   */\n      tag_539\n      jump\t// in\n    tag_563:\n        /* \"#utility.yul\":2926:2989   */\n      swap3\n      pop\n        /* \"#utility.yul\":2881:2999   */\n      pop\n        /* \"#utility.yul\":3038:3040   */\n      0x40\n        /* \"#utility.yul\":3064:3117   */\n      tag_564\n        /* \"#utility.yul\":3109:3116   */\n      dup7\n        /* \"#utility.yul\":3100:3106   */\n      dup3\n        /* \"#utility.yul\":3089:3098   */\n      dup8\n        /* \"#utility.yul\":3085:3107   */\n      add\n        /* \"#utility.yul\":3064:3117   */\n      tag_529\n      jump\t// in\n    tag_564:\n        /* \"#utility.yul\":3054:3117   */\n      swap2\n      pop\n        /* \"#utility.yul\":3009:3127   */\n      pop\n        /* \"#utility.yul\":2515:3134   */\n      swap3\n      pop\n      swap3\n      pop\n      swap3\n      jump\t// out\n        /* \"#utility.yul\":3140:4119   */\n    tag_79:\n        /* \"#utility.yul\":3237:3243   */\n      0x00\n        /* \"#utility.yul\":3245:3251   */\n      dup1\n        /* \"#utility.yul\":3253:3259   */\n      0x00\n        /* \"#utility.yul\":3302:3304   */\n      0x60\n        /* \"#utility.yul\":3290:3299   */\n      dup5\n        /* \"#utility.yul\":3281:3288   */\n      dup7\n        /* \"#utility.yul\":3277:3300   */\n      sub\n        /* \"#utility.yul\":3273:3305   */\n      slt\n        /* \"#utility.yul\":3270:3389   */\n      iszero\n      tag_566\n      jumpi\n        /* \"#utility.yul\":3308:3387   */\n      tag_567\n      tag_546\n      jump\t// in\n    tag_567:\n        /* \"#utility.yul\":3270:3389   */\n    tag_566:\n        /* \"#utility.yul\":3456:3457   */\n      0x00\n        /* \"#utility.yul\":3445:3454   */\n      dup5\n        /* \"#utility.yul\":3441:3458   */\n      add\n        /* \"#utility.yul\":3428:3459   */\n      calldataload\n        /* \"#utility.yul\":3486:3504   */\n      0xffffffffffffffff\n        /* \"#utility.yul\":3478:3484   */\n      dup2\n        /* \"#utility.yul\":3475:3505   */\n      gt\n        /* \"#utility.yul\":3472:3589   */\n      iszero\n      tag_568\n      jumpi\n        /* \"#utility.yul\":3508:3587   */\n      tag_569\n      tag_570\n      jump\t// in\n    tag_569:\n        /* \"#utility.yul\":3472:3589   */\n    tag_568:\n        /* \"#utility.yul\":3613:3676   */\n      tag_571\n        /* \"#utility.yul\":3668:3675   */\n      dup7\n        /* \"#utility.yul\":3659:3665   */\n      dup3\n        /* \"#utility.yul\":3648:3657   */\n      dup8\n        /* \"#utility.yul\":3644:3666   */\n      add\n        /* \"#utility.yul\":3613:3676   */\n      tag_533\n      jump\t// in\n    tag_571:\n        /* \"#utility.yul\":3603:3676   */\n      swap4\n      pop\n        /* \"#utility.yul\":3399:3686   */\n      pop\n        /* \"#utility.yul\":3753:3755   */\n      0x20\n        /* \"#utility.yul\":3742:3751   */\n      dup5\n        /* \"#utility.yul\":3738:3756   */\n      add\n        /* \"#utility.yul\":3725:3757   */\n      calldataload\n        /* \"#utility.yul\":3784:3802   */\n      0xffffffffffffffff\n        /* \"#utility.yul\":3776:3782   */\n      dup2\n        /* \"#utility.yul\":3773:3803   */\n      gt\n        /* \"#utility.yul\":3770:3887   */\n      iszero\n      tag_572\n      jumpi\n        /* \"#utility.yul\":3806:3885   */\n      tag_573\n      tag_570\n      jump\t// in\n    tag_573:\n        /* \"#utility.yul\":3770:3887   */\n    tag_572:\n        /* \"#utility.yul\":3911:3974   */\n      tag_574\n        /* \"#utility.yul\":3966:3973   */\n      dup7\n        /* \"#utility.yul\":3957:3963   */\n      dup3\n        /* \"#utility.yul\":3946:3955   */\n      dup8\n        /* \"#utility.yul\":3942:3964   */\n      add\n        /* \"#utility.yul\":3911:3974   */\n      tag_533\n      jump\t// in\n    tag_574:\n        /* \"#utility.yul\":3901:3974   */\n      swap3\n      pop\n        /* \"#utility.yul\":3696:3984   */\n      pop\n        /* \"#utility.yul\":4023:4025   */\n      0x40\n        /* \"#utility.yul\":4049:4102   */\n      tag_575\n        /* \"#utility.yul\":4094:4101   */\n      dup7\n        /* \"#utility.yul\":4085:4091   */\n      dup3\n        /* \"#utility.yul\":4074:4083   */\n      dup8\n        /* \"#utility.yul\":4070:4092   */\n      add\n        /* \"#utility.yul\":4049:4102   */\n      tag_529\n      jump\t// in\n    tag_575:\n        /* \"#utility.yul\":4039:4102   */\n      swap2\n      pop\n        /* \"#utility.yul\":3994:4112   */\n      pop\n        /* \"#utility.yul\":3140:4119   */\n      swap3\n      pop\n      swap3\n      pop\n      swap3\n      jump\t// out\n        /* \"#utility.yul\":4125:5722   */\n    tag_74:\n        /* \"#utility.yul\":4259:4265   */\n      0x00\n        /* \"#utility.yul\":4267:4273   */\n      dup1\n        /* \"#utility.yul\":4275:4281   */\n      0x00\n        /* \"#utility.yul\":4283:4289   */\n      dup1\n        /* \"#utility.yul\":4291:4297   */\n      0x00\n        /* \"#utility.yul\":4299:4305   */\n      dup1\n        /* \"#utility.yul\":4348:4351   */\n      0xc0\n        /* \"#utility.yul\":4336:4345   */\n      dup8\n        /* \"#utility.yul\":4327:4334   */\n      dup10\n        /* \"#utility.yul\":4323:4346   */\n      sub\n        /* \"#utility.yul\":4319:4352   */\n      slt\n        /* \"#utility.yul\":4316:4436   */\n      iszero\n      tag_577\n      jumpi\n        /* \"#utility.yul\":4355:4434   */\n      tag_578\n      tag_546\n      jump\t// in\n    tag_578:\n        /* \"#utility.yul\":4316:4436   */\n    tag_577:\n        /* \"#utility.yul\":4503:4504   */\n      0x00\n        /* \"#utility.yul\":4492:4501   */\n      dup8\n        /* \"#utility.yul\":4488:4505   */\n      add\n        /* \"#utility.yul\":4475:4506   */\n      calldataload\n        /* \"#utility.yul\":4533:4551   */\n      0xffffffffffffffff\n        /* \"#utility.yul\":4525:4531   */\n      dup2\n        /* \"#utility.yul\":4522:4552   */\n      gt\n        /* \"#utility.yul\":4519:4636   */\n      iszero\n      tag_579\n      jumpi\n        /* \"#utility.yul\":4555:4634   */\n      tag_580\n      tag_570\n      jump\t// in\n    tag_580:\n        /* \"#utility.yul\":4519:4636   */\n    tag_579:\n        /* \"#utility.yul\":4660:4723   */\n      tag_581\n        /* \"#utility.yul\":4715:4722   */\n      dup10\n        /* \"#utility.yul\":4706:4712   */\n      dup3\n        /* \"#utility.yul\":4695:4704   */\n      dup11\n        /* \"#utility.yul\":4691:4713   */\n      add\n        /* \"#utility.yul\":4660:4723   */\n      tag_533\n      jump\t// in\n    tag_581:\n        /* \"#utility.yul\":4650:4723   */\n      swap7\n      pop\n        /* \"#utility.yul\":4446:4733   */\n      pop\n        /* \"#utility.yul\":4772:4774   */\n      0x20\n        /* \"#utility.yul\":4798:4851   */\n      tag_582\n        /* \"#utility.yul\":4843:4850   */\n      dup10\n        /* \"#utility.yul\":4834:4840   */\n      dup3\n        /* \"#utility.yul\":4823:4832   */\n      dup11\n        /* \"#utility.yul\":4819:4841   */\n      add\n        /* \"#utility.yul\":4798:4851   */\n      tag_539\n      jump\t// in\n    tag_582:\n        /* \"#utility.yul\":4788:4851   */\n      swap6\n      pop\n        /* \"#utility.yul\":4743:4861   */\n      pop\n        /* \"#utility.yul\":4900:4902   */\n      0x40\n        /* \"#utility.yul\":4926:4979   */\n      tag_583\n        /* \"#utility.yul\":4971:4978   */\n      dup10\n        /* \"#utility.yul\":4962:4968   */\n      dup3\n        /* \"#utility.yul\":4951:4960   */\n      dup11\n        /* \"#utility.yul\":4947:4969   */\n      add\n        /* \"#utility.yul\":4926:4979   */\n      tag_539\n      jump\t// in\n    tag_583:\n        /* \"#utility.yul\":4916:4979   */\n      swap5\n      pop\n        /* \"#utility.yul\":4871:4989   */\n      pop\n        /* \"#utility.yul\":5028:5030   */\n      0x60\n        /* \"#utility.yul\":5054:5107   */\n      tag_584\n        /* \"#utility.yul\":5099:5106   */\n      dup10\n        /* \"#utility.yul\":5090:5096   */\n      dup3\n        /* \"#utility.yul\":5079:5088   */\n      dup11\n        /* \"#utility.yul\":5075:5097   */\n      add\n        /* \"#utility.yul\":5054:5107   */\n      tag_539\n      jump\t// in\n    tag_584:\n        /* \"#utility.yul\":5044:5107   */\n      swap4\n      pop\n        /* \"#utility.yul\":4999:5117   */\n      pop\n        /* \"#utility.yul\":5184:5187   */\n      0x80\n        /* \"#utility.yul\":5173:5182   */\n      dup8\n        /* \"#utility.yul\":5169:5188   */\n      add\n        /* \"#utility.yul\":5156:5189   */\n      calldataload\n        /* \"#utility.yul\":5216:5234   */\n      0xffffffffffffffff\n        /* \"#utility.yul\":5208:5214   */\n      dup2\n        /* \"#utility.yul\":5205:5235   */\n      gt\n        /* \"#utility.yul\":5202:5319   */\n      iszero\n      tag_585\n      jumpi\n        /* \"#utility.yul\":5238:5317   */\n      tag_586\n      tag_570\n      jump\t// in\n    tag_586:\n        /* \"#utility.yul\":5202:5319   */\n    tag_585:\n        /* \"#utility.yul\":5343:5406   */\n      tag_587\n        /* \"#utility.yul\":5398:5405   */\n      dup10\n        /* \"#utility.yul\":5389:5395   */\n      dup3\n        /* \"#utility.yul\":5378:5387   */\n      dup11\n        /* \"#utility.yul\":5374:5396   */\n      add\n        /* \"#utility.yul\":5343:5406   */\n      tag_533\n      jump\t// in\n    tag_587:\n        /* \"#utility.yul\":5333:5406   */\n      swap3\n      pop\n        /* \"#utility.yul\":5127:5416   */\n      pop\n        /* \"#utility.yul\":5483:5486   */\n      0xa0\n        /* \"#utility.yul\":5472:5481   */\n      dup8\n        /* \"#utility.yul\":5468:5487   */\n      add\n        /* \"#utility.yul\":5455:5488   */\n      calldataload\n        /* \"#utility.yul\":5515:5533   */\n      0xffffffffffffffff\n        /* \"#utility.yul\":5507:5513   */\n      dup2\n        /* \"#utility.yul\":5504:5534   */\n      gt\n        /* \"#utility.yul\":5501:5618   */\n      iszero\n      tag_588\n      jumpi\n        /* \"#utility.yul\":5537:5616   */\n      tag_589\n      tag_570\n      jump\t// in\n    tag_589:\n        /* \"#utility.yul\":5501:5618   */\n    tag_588:\n        /* \"#utility.yul\":5642:5705   */\n      tag_590\n        /* \"#utility.yul\":5697:5704   */\n      dup10\n        /* \"#utility.yul\":5688:5694   */\n      dup3\n        /* \"#utility.yul\":5677:5686   */\n      dup11\n        /* \"#utility.yul\":5673:5695   */\n      add\n        /* \"#utility.yul\":5642:5705   */\n      tag_533\n      jump\t// in\n    tag_590:\n        /* \"#utility.yul\":5632:5705   */\n      swap2\n      pop\n        /* \"#utility.yul\":5426:5715   */\n      pop\n        /* \"#utility.yul\":4125:5722   */\n      swap3\n      swap6\n      pop\n      swap3\n      swap6\n      pop\n      swap3\n      swap6\n      jump\t// out\n        /* \"#utility.yul\":5728:6057   */\n    tag_50:\n        /* \"#utility.yul\":5787:5793   */\n      0x00\n        /* \"#utility.yul\":5836:5838   */\n      0x20\n        /* \"#utility.yul\":5824:5833   */\n      dup3\n        /* \"#utility.yul\":5815:5822   */\n      dup5\n        /* \"#utility.yul\":5811:5834   */\n      sub\n        /* \"#utility.yul\":5807:5839   */\n      slt\n        /* \"#utility.yul\":5804:5923   */\n      iszero\n      tag_592\n      jumpi\n        /* \"#utility.yul\":5842:5921   */\n      tag_593\n      tag_546\n      jump\t// in\n    tag_593:\n        /* \"#utility.yul\":5804:5923   */\n    tag_592:\n        /* \"#utility.yul\":5962:5963   */\n      0x00\n        /* \"#utility.yul\":5987:6040   */\n      tag_594\n        /* \"#utility.yul\":6032:6039   */\n      dup5\n        /* \"#utility.yul\":6023:6029   */\n      dup3\n        /* \"#utility.yul\":6012:6021   */\n      dup6\n        /* \"#utility.yul\":6008:6030   */\n      add\n        /* \"#utility.yul\":5987:6040   */\n      tag_539\n      jump\t// in\n    tag_594:\n        /* \"#utility.yul\":5977:6040   */\n      swap2\n      pop\n        /* \"#utility.yul\":5933:6050   */\n      pop\n        /* \"#utility.yul\":5728:6057   */\n      swap3\n      swap2\n      pop\n      pop\n      jump\t// out\n        /* \"#utility.yul\":6063:6537   */\n    tag_92:\n        /* \"#utility.yul\":6131:6137   */\n      0x00\n        /* \"#utility.yul\":6139:6145   */\n      dup1\n        /* \"#utility.yul\":6188:6190   */\n      0x40\n        /* \"#utility.yul\":6176:6185   */\n      dup4\n        /* \"#utility.yul\":6167:6174   */\n      dup6\n        /* \"#utility.yul\":6163:6186   */\n      sub\n        /* \"#utility.yul\":6159:6191   */\n      slt\n        /* \"#utility.yul\":6156:6275   */\n      iszero\n      tag_596\n      jumpi\n        /* \"#utility.yul\":6194:6273   */\n      tag_597\n      tag_546\n      jump\t// in\n    tag_597:\n        /* \"#utility.yul\":6156:6275   */\n    tag_596:\n        /* \"#utility.yul\":6314:6315   */\n      0x00\n        /* \"#utility.yul\":6339:6392   */\n      tag_598\n        /* \"#utility.yul\":6384:6391   */\n      dup6\n        /* \"#utility.yul\":6375:6381   */\n      dup3\n        /* \"#utility.yul\":6364:6373   */\n      dup7\n        /* \"#utility.yul\":6360:6382   */\n      add\n        /* \"#utility.yul\":6339:6392   */\n      tag_539\n      jump\t// in\n    tag_598:\n        /* \"#utility.yul\":6329:6392   */\n      swap3\n      pop\n        /* \"#utility.yul\":6285:6402   */\n      pop\n        /* \"#utility.yul\":6441:6443   */\n      0x20\n        /* \"#utility.yul\":6467:6520   */\n      tag_599\n        /* \"#utility.yul\":6512:6519   */\n      dup6\n        /* \"#utility.yul\":6503:6509   */\n      dup3\n        /* \"#utility.yul\":6492:6501   */\n      dup7\n        /* \"#utility.yul\":6488:6510   */\n      add\n        /* \"#utility.yul\":6467:6520   */\n      tag_529\n      jump\t// in\n    tag_599:\n        /* \"#utility.yul\":6457:6520   */\n      swap2\n      pop\n        /* \"#utility.yul\":6412:6530   */\n      pop\n        /* \"#utility.yul\":6063:6537   */\n      swap3\n      pop\n      swap3\n      swap1\n      pop\n      jump\t// out\n        /* \"#utility.yul\":6543:7308   */\n    tag_153:\n        /* \"#utility.yul\":6629:6635   */\n      0x00\n        /* \"#utility.yul\":6637:6643   */\n      dup1\n        /* \"#utility.yul\":6645:6651   */\n      0x00\n        /* \"#utility.yul\":6653:6659   */\n      dup1\n        /* \"#utility.yul\":6702:6705   */\n      0x80\n        /* \"#utility.yul\":6690:6699   */\n      dup6\n        /* \"#utility.yul\":6681:6688   */\n      dup8\n        /* \"#utility.yul\":6677:6700   */\n      sub\n        /* \"#utility.yul\":6673:6706   */\n      slt\n        /* \"#utility.yul\":6670:6790   */\n      iszero\n      tag_601\n      jumpi\n        /* \"#utility.yul\":6709:6788   */\n      tag_602\n      tag_546\n      jump\t// in\n    tag_602:\n        /* \"#utility.yul\":6670:6790   */\n    tag_601:\n        /* \"#utility.yul\":6829:6830   */\n      0x00\n        /* \"#utility.yul\":6854:6907   */\n      tag_603\n        /* \"#utility.yul\":6899:6906   */\n      dup8\n        /* \"#utility.yul\":6890:6896   */\n      dup3\n        /* \"#utility.yul\":6879:6888   */\n      dup9\n        /* \"#utility.yul\":6875:6897   */\n      add\n        /* \"#utility.yul\":6854:6907   */\n      tag_539\n      jump\t// in\n    tag_603:\n        /* \"#utility.yul\":6844:6907   */\n      swap5\n      pop\n        /* \"#utility.yul\":6800:6917   */\n      pop\n        /* \"#utility.yul\":6956:6958   */\n      0x20\n        /* \"#utility.yul\":6982:7035   */\n      tag_604\n        /* \"#utility.yul\":7027:7034   */\n      dup8\n        /* \"#utility.yul\":7018:7024   */\n      dup3\n        /* \"#utility.yul\":7007:7016   */\n      dup9\n        /* \"#utility.yul\":7003:7025   */\n      add\n        /* \"#utility.yul\":6982:7035   */\n      tag_529\n      jump\t// in\n    tag_604:\n        /* \"#utility.yul\":6972:7035   */\n      swap4\n      pop\n        /* \"#utility.yul\":6927:7045   */\n      pop\n        /* \"#utility.yul\":7084:7086   */\n      0x40\n        /* \"#utility.yul\":7110:7163   */\n      tag_605\n        /* \"#utility.yul\":7155:7162   */\n      dup8\n        /* \"#utility.yul\":7146:7152   */\n      dup3\n        /* \"#utility.yul\":7135:7144   */\n      dup9\n        /* \"#utility.yul\":7131:7153   */\n      add\n        /* \"#utility.yul\":7110:7163   */\n      tag_529\n      jump\t// in\n    tag_605:\n        /* \"#utility.yul\":7100:7163   */\n      swap3\n      pop\n        /* \"#utility.yul\":7055:7173   */\n      pop\n        /* \"#utility.yul\":7212:7214   */\n      0x60\n        /* \"#utility.yul\":7238:7291   */\n      tag_606\n        /* \"#utility.yul\":7283:7290   */\n      dup8\n        /* \"#utility.yul\":7274:7280   */\n      dup3\n        /* \"#utility.yul\":7263:7272   */\n      dup9\n        /* \"#utility.yul\":7259:7281   */\n      add\n        /* \"#utility.yul\":7238:7291   */\n      tag_539\n      jump\t// in\n    tag_606:\n        /* \"#utility.yul\":7228:7291   */\n      swap2\n      pop\n        /* \"#utility.yul\":7183:7301   */\n      pop\n        /* \"#utility.yul\":6543:7308   */\n      swap3\n      swap6\n      swap2\n      swap5\n      pop\n      swap3\n      pop\n      jump\t// out\n        /* \"#utility.yul\":7314:7788   */\n    tag_61:\n        /* \"#utility.yul\":7382:7388   */\n      0x00\n        /* \"#utility.yul\":7390:7396   */\n      dup1\n        /* \"#utility.yul\":7439:7441   */\n      0x40\n        /* \"#utility.yul\":7427:7436   */\n      dup4\n        /* \"#utility.yul\":7418:7425   */\n      dup6\n        /* \"#utility.yul\":7414:7437   */\n      sub\n        /* \"#utility.yul\":7410:7442   */\n      slt\n        /* \"#utility.yul\":7407:7526   */\n      iszero\n      tag_608\n      jumpi\n        /* \"#utility.yul\":7445:7524   */\n      tag_609\n      tag_546\n      jump\t// in\n    tag_609:\n        /* \"#utility.yul\":7407:7526   */\n    tag_608:\n        /* \"#utility.yul\":7565:7566   */\n      0x00\n        /* \"#utility.yul\":7590:7643   */\n      tag_610\n        /* \"#utility.yul\":7635:7642   */\n      dup6\n        /* \"#utility.yul\":7626:7632   */\n      dup3\n        /* \"#utility.yul\":7615:7624   */\n      dup7\n        /* \"#utility.yul\":7611:7633   */\n      add\n        /* \"#utility.yul\":7590:7643   */\n      tag_539\n      jump\t// in\n    tag_610:\n        /* \"#utility.yul\":7580:7643   */\n      swap3\n      pop\n        /* \"#utility.yul\":7536:7653   */\n      pop\n        /* \"#utility.yul\":7692:7694   */\n      0x20\n        /* \"#utility.yul\":7718:7771   */\n      tag_611\n        /* \"#utility.yul\":7763:7770   */\n      dup6\n        /* \"#utility.yul\":7754:7760   */\n      dup3\n        /* \"#utility.yul\":7743:7752   */\n      dup7\n        /* \"#utility.yul\":7739:7761   */\n      add\n        /* \"#utility.yul\":7718:7771   */\n      tag_539\n      jump\t// in\n    tag_611:\n        /* \"#utility.yul\":7708:7771   */\n      swap2\n      pop\n        /* \"#utility.yul\":7663:7781   */\n      pop\n        /* \"#utility.yul\":7314:7788   */\n      swap3\n      pop\n      swap3\n      swap1\n      pop\n      jump\t// out\n        /* \"#utility.yul\":7794:8739   */\n    tag_105:\n        /* \"#utility.yul\":7890:7896   */\n      0x00\n        /* \"#utility.yul\":7898:7904   */\n      dup1\n        /* \"#utility.yul\":7906:7912   */\n      0x00\n        /* \"#utility.yul\":7914:7920   */\n      dup1\n        /* \"#utility.yul\":7963:7966   */\n      0x80\n        /* \"#utility.yul\":7951:7960   */\n      dup6\n        /* \"#utility.yul\":7942:7949   */\n      dup8\n        /* \"#utility.yul\":7938:7961   */\n      sub\n        /* \"#utility.yul\":7934:7967   */\n      slt\n        /* \"#utility.yul\":7931:8051   */\n      iszero\n      tag_613\n      jumpi\n        /* \"#utility.yul\":7970:8049   */\n      tag_614\n      tag_546\n      jump\t// in\n    tag_614:\n        /* \"#utility.yul\":7931:8051   */\n    tag_613:\n        /* \"#utility.yul\":8090:8091   */\n      0x00\n        /* \"#utility.yul\":8115:8168   */\n      tag_615\n        /* \"#utility.yul\":8160:8167   */\n      dup8\n        /* \"#utility.yul\":8151:8157   */\n      dup3\n        /* \"#utility.yul\":8140:8149   */\n      dup9\n        /* \"#utility.yul\":8136:8158   */\n      add\n        /* \"#utility.yul\":8115:8168   */\n      tag_539\n      jump\t// in\n    tag_615:\n        /* \"#utility.yul\":8105:8168   */\n      swap5\n      pop\n        /* \"#utility.yul\":8061:8178   */\n      pop\n        /* \"#utility.yul\":8217:8219   */\n      0x20\n        /* \"#utility.yul\":8243:8296   */\n      tag_616\n        /* \"#utility.yul\":8288:8295   */\n      dup8\n        /* \"#utility.yul\":8279:8285   */\n      dup3\n        /* \"#utility.yul\":8268:8277   */\n      dup9\n        /* \"#utility.yul\":8264:8286   */\n      add\n        /* \"#utility.yul\":8243:8296   */\n      tag_539\n      jump\t// in\n    tag_616:\n        /* \"#utility.yul\":8233:8296   */\n      swap4\n      pop\n        /* \"#utility.yul\":8188:8306   */\n      pop\n        /* \"#utility.yul\":8373:8375   */\n      0x40\n        /* \"#utility.yul\":8362:8371   */\n      dup6\n        /* \"#utility.yul\":8358:8376   */\n      add\n        /* \"#utility.yul\":8345:8377   */\n      calldataload\n        /* \"#utility.yul\":8404:8422   */\n      0xffffffffffffffff\n        /* \"#utility.yul\":8396:8402   */\n      dup2\n        /* \"#utility.yul\":8393:8423   */\n      gt\n        /* \"#utility.yul\":8390:8507   */\n      iszero\n      tag_617\n      jumpi\n        /* \"#utility.yul\":8426:8505   */\n      tag_618\n      tag_570\n      jump\t// in\n    tag_618:\n        /* \"#utility.yul\":8390:8507   */\n    tag_617:\n        /* \"#utility.yul\":8531:8594   */\n      tag_619\n        /* \"#utility.yul\":8586:8593   */\n      dup8\n        /* \"#utility.yul\":8577:8583   */\n      dup3\n        /* \"#utility.yul\":8566:8575   */\n      dup9\n        /* \"#utility.yul\":8562:8584   */\n      add\n        /* \"#utility.yul\":8531:8594   */\n      tag_533\n      jump\t// in\n    tag_619:\n        /* \"#utility.yul\":8521:8594   */\n      swap3\n      pop\n        /* \"#utility.yul\":8316:8604   */\n      pop\n        /* \"#utility.yul\":8643:8645   */\n      0x60\n        /* \"#utility.yul\":8669:8722   */\n      tag_620\n        /* \"#utility.yul\":8714:8721   */\n      dup8\n        /* \"#utility.yul\":8705:8711   */\n      dup3\n        /* \"#utility.yul\":8694:8703   */\n      dup9\n        /* \"#utility.yul\":8690:8712   */\n      add\n        /* \"#utility.yul\":8669:8722   */\n      tag_539\n      jump\t// in\n    tag_620:\n        /* \"#utility.yul\":8659:8722   */\n      swap2\n      pop\n        /* \"#utility.yul\":8614:8732   */\n      pop\n        /* \"#utility.yul\":7794:8739   */\n      swap3\n      swap6\n      swap2\n      swap5\n      pop\n      swap3\n      pop\n      jump\t// out\n        /* \"#utility.yul\":8745:8997   */\n    tag_621:\n        /* \"#utility.yul\":8862:8872   */\n      0x00\n        /* \"#utility.yul\":8897:8991   */\n      tag_623\n        /* \"#utility.yul\":8987:8990   */\n      dup4\n        /* \"#utility.yul\":8979:8985   */\n      dup4\n        /* \"#utility.yul\":8897:8991   */\n      tag_624\n      jump\t// in\n    tag_623:\n        /* \"#utility.yul\":8883:8991   */\n      swap1\n      pop\n        /* \"#utility.yul\":8745:8997   */\n      swap3\n      swap2\n      pop\n      pop\n      jump\t// out\n        /* \"#utility.yul\":9003:9255   */\n    tag_625:\n        /* \"#utility.yul\":9120:9130   */\n      0x00\n        /* \"#utility.yul\":9155:9249   */\n      tag_627\n        /* \"#utility.yul\":9245:9248   */\n      dup4\n        /* \"#utility.yul\":9237:9243   */\n      dup4\n        /* \"#utility.yul\":9155:9249   */\n      tag_628\n      jump\t// in\n    tag_627:\n        /* \"#utility.yul\":9141:9249   */\n      swap1\n      pop\n        /* \"#utility.yul\":9003:9255   */\n      swap3\n      swap2\n      pop\n      pop\n      jump\t// out\n        /* \"#utility.yul\":9261:9369   */\n    tag_629:\n        /* \"#utility.yul\":9338:9362   */\n      tag_631\n        /* \"#utility.yul\":9356:9361   */\n      dup2\n        /* \"#utility.yul\":9338:9362   */\n      tag_632\n      jump\t// in\n    tag_631:\n        /* \"#utility.yul\":9333:9336   */\n      dup3\n        /* \"#utility.yul\":9326:9363   */\n      mstore\n        /* \"#utility.yul\":9261:9369   */\n      pop\n      pop\n      jump\t// out\n        /* \"#utility.yul\":9375:9493   */\n    tag_633:\n        /* \"#utility.yul\":9462:9486   */\n      tag_635\n        /* \"#utility.yul\":9480:9485   */\n      dup2\n        /* \"#utility.yul\":9462:9486   */\n      tag_632\n      jump\t// in\n    tag_635:\n        /* \"#utility.yul\":9457:9460   */\n      dup3\n        /* \"#utility.yul\":9450:9487   */\n      mstore\n        /* \"#utility.yul\":9375:9493   */\n      pop\n      pop\n      jump\t// out\n        /* \"#utility.yul\":9557:10660   */\n    tag_636:\n        /* \"#utility.yul\":9724:9727   */\n      0x00\n        /* \"#utility.yul\":9753:9831   */\n      tag_638\n        /* \"#utility.yul\":9825:9830   */\n      dup3\n        /* \"#utility.yul\":9753:9831   */\n      tag_639\n      jump\t// in\n    tag_638:\n        /* \"#utility.yul\":9847:9957   */\n      tag_640\n        /* \"#utility.yul\":9950:9956   */\n      dup2\n        /* \"#utility.yul\":9945:9948   */\n      dup6\n        /* \"#utility.yul\":9847:9957   */\n      tag_641\n      jump\t// in\n    tag_640:\n        /* \"#utility.yul\":9840:9957   */\n      swap4\n      pop\n        /* \"#utility.yul\":9983:9986   */\n      dup4\n        /* \"#utility.yul\":10028:10032   */\n      0x20\n        /* \"#utility.yul\":10020:10026   */\n      dup3\n        /* \"#utility.yul\":10016:10033   */\n      mul\n        /* \"#utility.yul\":10011:10014   */\n      dup6\n        /* \"#utility.yul\":10007:10034   */\n      add\n        /* \"#utility.yul\":10058:10138   */\n      tag_642\n        /* \"#utility.yul\":10132:10137   */\n      dup6\n        /* \"#utility.yul\":10058:10138   */\n      tag_643\n      jump\t// in\n    tag_642:\n        /* \"#utility.yul\":10161:10168   */\n      dup1\n        /* \"#utility.yul\":10192:10193   */\n      0x00\n        /* \"#utility.yul\":10177:10615   */\n    tag_644:\n        /* \"#utility.yul\":10202:10208   */\n      dup6\n        /* \"#utility.yul\":10199:10200   */\n      dup2\n        /* \"#utility.yul\":10196:10209   */\n      lt\n        /* \"#utility.yul\":10177:10615   */\n      iszero\n      tag_646\n      jumpi\n        /* \"#utility.yul\":10273:10282   */\n      dup5\n        /* \"#utility.yul\":10267:10271   */\n      dup5\n        /* \"#utility.yul\":10263:10283   */\n      sub\n        /* \"#utility.yul\":10258:10261   */\n      dup10\n        /* \"#utility.yul\":10251:10284   */\n      mstore\n        /* \"#utility.yul\":10324:10330   */\n      dup2\n        /* \"#utility.yul\":10318:10331   */\n      mload\n        /* \"#utility.yul\":10352:10464   */\n      tag_647\n        /* \"#utility.yul\":10459:10463   */\n      dup6\n        /* \"#utility.yul\":10444:10457   */\n      dup3\n        /* \"#utility.yul\":10352:10464   */\n      tag_621\n      jump\t// in\n    tag_647:\n        /* \"#utility.yul\":10344:10464   */\n      swap5\n      pop\n        /* \"#utility.yul\":10487:10571   */\n      tag_648\n        /* \"#utility.yul\":10564:10570   */\n      dup4\n        /* \"#utility.yul\":10487:10571   */\n      tag_649\n      jump\t// in\n    tag_648:\n        /* \"#utility.yul\":10477:10571   */\n      swap3\n      pop\n        /* \"#utility.yul\":10600:10604   */\n      0x20\n        /* \"#utility.yul\":10595:10598   */\n      dup11\n        /* \"#utility.yul\":10591:10605   */\n      add\n        /* \"#utility.yul\":10584:10605   */\n      swap10\n      pop\n        /* \"#utility.yul\":10237:10615   */\n      pop\n        /* \"#utility.yul\":10224:10225   */\n      0x01\n        /* \"#utility.yul\":10221:10222   */\n      dup2\n        /* \"#utility.yul\":10217:10226   */\n      add\n        /* \"#utility.yul\":10212:10226   */\n      swap1\n      pop\n        /* \"#utility.yul\":10177:10615   */\n      jump(tag_644)\n    tag_646:\n        /* \"#utility.yul\":10181:10195   */\n      pop\n        /* \"#utility.yul\":10631:10635   */\n      dup3\n        /* \"#utility.yul\":10624:10635   */\n      swap8\n      pop\n        /* \"#utility.yul\":10651:10654   */\n      dup8\n        /* \"#utility.yul\":10644:10654   */\n      swap6\n      pop\n        /* \"#utility.yul\":9729:10660   */\n      pop\n      pop\n      pop\n      pop\n      pop\n        /* \"#utility.yul\":9557:10660   */\n      swap3\n      swap2\n      pop\n      pop\n      jump\t// out\n        /* \"#utility.yul\":10724:11827   */\n    tag_650:\n        /* \"#utility.yul\":10891:10894   */\n      0x00\n        /* \"#utility.yul\":10920:10998   */\n      tag_652\n        /* \"#utility.yul\":10992:10997   */\n      dup3\n        /* \"#utility.yul\":10920:10998   */\n      tag_653\n      jump\t// in\n    tag_652:\n        /* \"#utility.yul\":11014:11124   */\n      tag_654\n        /* \"#utility.yul\":11117:11123   */\n      dup2\n        /* \"#utility.yul\":11112:11115   */\n      dup6\n        /* \"#utility.yul\":11014:11124   */\n      tag_655\n      jump\t// in\n    tag_654:\n        /* \"#utility.yul\":11007:11124   */\n      swap4\n      pop\n        /* \"#utility.yul\":11150:11153   */\n      dup4\n        /* \"#utility.yul\":11195:11199   */\n      0x20\n        /* \"#utility.yul\":11187:11193   */\n      dup3\n        /* \"#utility.yul\":11183:11200   */\n      mul\n        /* \"#utility.yul\":11178:11181   */\n      dup6\n        /* \"#utility.yul\":11174:11201   */\n      add\n        /* \"#utility.yul\":11225:11305   */\n      tag_656\n        /* \"#utility.yul\":11299:11304   */\n      dup6\n        /* \"#utility.yul\":11225:11305   */\n      tag_657\n      jump\t// in\n    tag_656:\n        /* \"#utility.yul\":11328:11335   */\n      dup1\n        /* \"#utility.yul\":11359:11360   */\n      0x00\n        /* \"#utility.yul\":11344:11782   */\n    tag_658:\n        /* \"#utility.yul\":11369:11375   */\n      dup6\n        /* \"#utility.yul\":11366:11367   */\n      dup2\n        /* \"#utility.yul\":11363:11376   */\n      lt\n        /* \"#utility.yul\":11344:11782   */\n      iszero\n      tag_660\n      jumpi\n        /* \"#utility.yul\":11440:11449   */\n      dup5\n        /* \"#utility.yul\":11434:11438   */\n      dup5\n        /* \"#utility.yul\":11430:11450   */\n      sub\n        /* \"#utility.yul\":11425:11428   */\n      dup10\n        /* \"#utility.yul\":11418:11451   */\n      mstore\n        /* \"#utility.yul\":11491:11497   */\n      dup2\n        /* \"#utility.yul\":11485:11498   */\n      mload\n        /* \"#utility.yul\":11519:11631   */\n      tag_661\n        /* \"#utility.yul\":11626:11630   */\n      dup6\n        /* \"#utility.yul\":11611:11624   */\n      dup3\n        /* \"#utility.yul\":11519:11631   */\n      tag_625\n      jump\t// in\n    tag_661:\n        /* \"#utility.yul\":11511:11631   */\n      swap5\n      pop\n        /* \"#utility.yul\":11654:11738   */\n      tag_662\n        /* \"#utility.yul\":11731:11737   */\n      dup4\n        /* \"#utility.yul\":11654:11738   */\n      tag_663\n      jump\t// in\n    tag_662:\n        /* \"#utility.yul\":11644:11738   */\n      swap3\n      pop\n        /* \"#utility.yul\":11767:11771   */\n      0x20\n        /* \"#utility.yul\":11762:11765   */\n      dup11\n        /* \"#utility.yul\":11758:11772   */\n      add\n        /* \"#utility.yul\":11751:11772   */\n      swap10\n      pop\n        /* \"#utility.yul\":11404:11782   */\n      pop\n        /* \"#utility.yul\":11391:11392   */\n      0x01\n        /* \"#utility.yul\":11388:11389   */\n      dup2\n        /* \"#utility.yul\":11384:11393   */\n      add\n        /* \"#utility.yul\":11379:11393   */\n      swap1\n      pop\n        /* \"#utility.yul\":11344:11782   */\n      jump(tag_658)\n    tag_660:\n        /* \"#utility.yul\":11348:11362   */\n      pop\n        /* \"#utility.yul\":11798:11802   */\n      dup3\n        /* \"#utility.yul\":11791:11802   */\n      swap8\n      pop\n        /* \"#utility.yul\":11818:11821   */\n      dup8\n        /* \"#utility.yul\":11811:11821   */\n      swap6\n      pop\n        /* \"#utility.yul\":10896:11827   */\n      pop\n      pop\n      pop\n      pop\n      pop\n        /* \"#utility.yul\":10724:11827   */\n      swap3\n      swap2\n      pop\n      pop\n      jump\t// out\n        /* \"#utility.yul\":11833:11942   */\n    tag_664:\n        /* \"#utility.yul\":11914:11935   */\n      tag_666\n        /* \"#utility.yul\":11929:11934   */\n      dup2\n        /* \"#utility.yul\":11914:11935   */\n      tag_667\n      jump\t// in\n    tag_666:\n        /* \"#utility.yul\":11909:11912   */\n      dup3\n        /* \"#utility.yul\":11902:11936   */\n      mstore\n        /* \"#utility.yul\":11833:11942   */\n      pop\n      pop\n      jump\t// out\n        /* \"#utility.yul\":11948:12292   */\n    tag_668:\n        /* \"#utility.yul\":12026:12029   */\n      0x00\n        /* \"#utility.yul\":12054:12093   */\n      tag_670\n        /* \"#utility.yul\":12087:12092   */\n      dup3\n        /* \"#utility.yul\":12054:12093   */\n      tag_671\n      jump\t// in\n    tag_670:\n        /* \"#utility.yul\":12109:12170   */\n      tag_672\n        /* \"#utility.yul\":12163:12169   */\n      dup2\n        /* \"#utility.yul\":12158:12161   */\n      dup6\n        /* \"#utility.yul\":12109:12170   */\n      tag_673\n      jump\t// in\n    tag_672:\n        /* \"#utility.yul\":12102:12170   */\n      swap4\n      pop\n        /* \"#utility.yul\":12179:12231   */\n      tag_674\n        /* \"#utility.yul\":12224:12230   */\n      dup2\n        /* \"#utility.yul\":12219:12222   */\n      dup6\n        /* \"#utility.yul\":12212:12216   */\n      0x20\n        /* \"#utility.yul\":12205:12210   */\n      dup7\n        /* \"#utility.yul\":12201:12217   */\n      add\n        /* \"#utility.yul\":12179:12231   */\n      tag_675\n      jump\t// in\n    tag_674:\n        /* \"#utility.yul\":12256:12285   */\n      tag_676\n        /* \"#utility.yul\":12278:12284   */\n      dup2\n        /* \"#utility.yul\":12256:12285   */\n      tag_677\n      jump\t// in\n    tag_676:\n        /* \"#utility.yul\":12251:12254   */\n      dup5\n        /* \"#utility.yul\":12247:12286   */\n      add\n        /* \"#utility.yul\":12240:12286   */\n      swap2\n      pop\n        /* \"#utility.yul\":12030:12292   */\n      pop\n        /* \"#utility.yul\":11948:12292   */\n      swap3\n      swap2\n      pop\n      pop\n      jump\t// out\n        /* \"#utility.yul\":12298:12662   */\n    tag_678:\n        /* \"#utility.yul\":12386:12389   */\n      0x00\n        /* \"#utility.yul\":12414:12453   */\n      tag_680\n        /* \"#utility.yul\":12447:12452   */\n      dup3\n        /* \"#utility.yul\":12414:12453   */\n      tag_671\n      jump\t// in\n    tag_680:\n        /* \"#utility.yul\":12469:12540   */\n      tag_681\n        /* \"#utility.yul\":12533:12539   */\n      dup2\n        /* \"#utility.yul\":12528:12531   */\n      dup6\n        /* \"#utility.yul\":12469:12540   */\n      tag_682\n      jump\t// in\n    tag_681:\n        /* \"#utility.yul\":12462:12540   */\n      swap4\n      pop\n        /* \"#utility.yul\":12549:12601   */\n      tag_683\n        /* \"#utility.yul\":12594:12600   */\n      dup2\n        /* \"#utility.yul\":12589:12592   */\n      dup6\n        /* \"#utility.yul\":12582:12586   */\n      0x20\n        /* \"#utility.yul\":12575:12580   */\n      dup7\n        /* \"#utility.yul\":12571:12587   */\n      add\n        /* \"#utility.yul\":12549:12601   */\n      tag_675\n      jump\t// in\n    tag_683:\n        /* \"#utility.yul\":12626:12655   */\n      tag_684\n        /* \"#utility.yul\":12648:12654   */\n      dup2\n        /* \"#utility.yul\":12626:12655   */\n      tag_677\n      jump\t// in\n    tag_684:\n        /* \"#utility.yul\":12621:12624   */\n      dup5\n        /* \"#utility.yul\":12617:12656   */\n      add\n        /* \"#utility.yul\":12610:12656   */\n      swap2\n      pop\n        /* \"#utility.yul\":12390:12662   */\n      pop\n        /* \"#utility.yul\":12298:12662   */\n      swap3\n      swap2\n      pop\n      pop\n      jump\t// out\n        /* \"#utility.yul\":12668:13045   */\n    tag_685:\n        /* \"#utility.yul\":12774:12777   */\n      0x00\n        /* \"#utility.yul\":12802:12841   */\n      tag_687\n        /* \"#utility.yul\":12835:12840   */\n      dup3\n        /* \"#utility.yul\":12802:12841   */\n      tag_671\n      jump\t// in\n    tag_687:\n        /* \"#utility.yul\":12857:12946   */\n      tag_688\n        /* \"#utility.yul\":12939:12945   */\n      dup2\n        /* \"#utility.yul\":12934:12937   */\n      dup6\n        /* \"#utility.yul\":12857:12946   */\n      tag_689\n      jump\t// in\n    tag_688:\n        /* \"#utility.yul\":12850:12946   */\n      swap4\n      pop\n        /* \"#utility.yul\":12955:13007   */\n      tag_690\n        /* \"#utility.yul\":13000:13006   */\n      dup2\n        /* \"#utility.yul\":12995:12998   */\n      dup6\n        /* \"#utility.yul\":12988:12992   */\n      0x20\n        /* \"#utility.yul\":12981:12986   */\n      dup7\n        /* \"#utility.yul\":12977:12993   */\n      add\n        /* \"#utility.yul\":12955:13007   */\n      tag_675\n      jump\t// in\n    tag_690:\n        /* \"#utility.yul\":13032:13038   */\n      dup1\n        /* \"#utility.yul\":13027:13030   */\n      dup5\n        /* \"#utility.yul\":13023:13039   */\n      add\n        /* \"#utility.yul\":13016:13039   */\n      swap2\n      pop\n        /* \"#utility.yul\":12778:13045   */\n      pop\n        /* \"#utility.yul\":12668:13045   */\n      swap3\n      swap2\n      pop\n      pop\n      jump\t// out\n        /* \"#utility.yul\":13051:13417   */\n    tag_691:\n        /* \"#utility.yul\":13193:13196   */\n      0x00\n        /* \"#utility.yul\":13214:13281   */\n      tag_693\n        /* \"#utility.yul\":13278:13280   */\n      0x13\n        /* \"#utility.yul\":13273:13276   */\n      dup4\n        /* \"#utility.yul\":13214:13281   */\n      tag_682\n      jump\t// in\n    tag_693:\n        /* \"#utility.yul\":13207:13281   */\n      swap2\n      pop\n        /* \"#utility.yul\":13290:13383   */\n      tag_694\n        /* \"#utility.yul\":13379:13382   */\n      dup3\n        /* \"#utility.yul\":13290:13383   */\n      tag_695\n      jump\t// in\n    tag_694:\n        /* \"#utility.yul\":13408:13410   */\n      0x20\n        /* \"#utility.yul\":13403:13406   */\n      dup3\n        /* \"#utility.yul\":13399:13411   */\n      add\n        /* \"#utility.yul\":13392:13411   */\n      swap1\n      pop\n        /* \"#utility.yul\":13051:13417   */\n      swap2\n      swap1\n      pop\n      jump\t// out\n        /* \"#utility.yul\":13423:13789   */\n    tag_696:\n        /* \"#utility.yul\":13565:13568   */\n      0x00\n        /* \"#utility.yul\":13586:13653   */\n      tag_698\n        /* \"#utility.yul\":13650:13652   */\n      0x11\n        /* \"#utility.yul\":13645:13648   */\n      dup4\n        /* \"#utility.yul\":13586:13653   */\n      tag_682\n      jump\t// in\n    tag_698:\n        /* \"#utility.yul\":13579:13653   */\n      swap2\n      pop\n        /* \"#utility.yul\":13662:13755   */\n      tag_699\n        /* \"#utility.yul\":13751:13754   */\n      dup3\n        /* \"#utility.yul\":13662:13755   */\n      tag_700\n      jump\t// in\n    tag_699:\n        /* \"#utility.yul\":13780:13782   */\n      0x20\n        /* \"#utility.yul\":13775:13778   */\n      dup3\n        /* \"#utility.yul\":13771:13783   */\n      add\n        /* \"#utility.yul\":13764:13783   */\n      swap1\n      pop\n        /* \"#utility.yul\":13423:13789   */\n      swap2\n      swap1\n      pop\n      jump\t// out\n        /* \"#utility.yul\":13795:14161   */\n    tag_701:\n        /* \"#utility.yul\":13937:13940   */\n      0x00\n        /* \"#utility.yul\":13958:14025   */\n      tag_703\n        /* \"#utility.yul\":14022:14024   */\n      0x13\n        /* \"#utility.yul\":14017:14020   */\n      dup4\n        /* \"#utility.yul\":13958:14025   */\n      tag_682\n      jump\t// in\n    tag_703:\n        /* \"#utility.yul\":13951:14025   */\n      swap2\n      pop\n        /* \"#utility.yul\":14034:14127   */\n      tag_704\n        /* \"#utility.yul\":14123:14126   */\n      dup3\n        /* \"#utility.yul\":14034:14127   */\n      tag_705\n      jump\t// in\n    tag_704:\n        /* \"#utility.yul\":14152:14154   */\n      0x20\n        /* \"#utility.yul\":14147:14150   */\n      dup3\n        /* \"#utility.yul\":14143:14155   */\n      add\n        /* \"#utility.yul\":14136:14155   */\n      swap1\n      pop\n        /* \"#utility.yul\":13795:14161   */\n      swap2\n      swap1\n      pop\n      jump\t// out\n        /* \"#utility.yul\":14167:14533   */\n    tag_706:\n        /* \"#utility.yul\":14309:14312   */\n      0x00\n        /* \"#utility.yul\":14330:14397   */\n      tag_708\n        /* \"#utility.yul\":14394:14396   */\n      0x24\n        /* \"#utility.yul\":14389:14392   */\n      dup4\n        /* \"#utility.yul\":14330:14397   */\n      tag_682\n      jump\t// in\n    tag_708:\n        /* \"#utility.yul\":14323:14397   */\n      swap2\n      pop\n        /* \"#utility.yul\":14406:14499   */\n      tag_709\n        /* \"#utility.yul\":14495:14498   */\n      dup3\n        /* \"#utility.yul\":14406:14499   */\n      tag_710\n      jump\t// in\n    tag_709:\n        /* \"#utility.yul\":14524:14526   */\n      0x40\n        /* \"#utility.yul\":14519:14522   */\n      dup3\n        /* \"#utility.yul\":14515:14527   */\n      add\n        /* \"#utility.yul\":14508:14527   */\n      swap1\n      pop\n        /* \"#utility.yul\":14167:14533   */\n      swap2\n      swap1\n      pop\n      jump\t// out\n        /* \"#utility.yul\":14539:14939   */\n    tag_711:\n        /* \"#utility.yul\":14699:14702   */\n      0x00\n        /* \"#utility.yul\":14720:14804   */\n      tag_713\n        /* \"#utility.yul\":14802:14803   */\n      0x01\n        /* \"#utility.yul\":14797:14800   */\n      dup4\n        /* \"#utility.yul\":14720:14804   */\n      tag_689\n      jump\t// in\n    tag_713:\n        /* \"#utility.yul\":14713:14804   */\n      swap2\n      pop\n        /* \"#utility.yul\":14813:14906   */\n      tag_714\n        /* \"#utility.yul\":14902:14905   */\n      dup3\n        /* \"#utility.yul\":14813:14906   */\n      tag_715\n      jump\t// in\n    tag_714:\n        /* \"#utility.yul\":14931:14932   */\n      0x01\n        /* \"#utility.yul\":14926:14929   */\n      dup3\n        /* \"#utility.yul\":14922:14933   */\n      add\n        /* \"#utility.yul\":14915:14933   */\n      swap1\n      pop\n        /* \"#utility.yul\":14539:14939   */\n      swap2\n      swap1\n      pop\n      jump\t// out\n        /* \"#utility.yul\":14945:15311   */\n    tag_716:\n        /* \"#utility.yul\":15087:15090   */\n      0x00\n        /* \"#utility.yul\":15108:15175   */\n      tag_718\n        /* \"#utility.yul\":15172:15174   */\n      0x1b\n        /* \"#utility.yul\":15167:15170   */\n      dup4\n        /* \"#utility.yul\":15108:15175   */\n      tag_682\n      jump\t// in\n    tag_718:\n        /* \"#utility.yul\":15101:15175   */\n      swap2\n      pop\n        /* \"#utility.yul\":15184:15277   */\n      tag_719\n        /* \"#utility.yul\":15273:15276   */\n      dup3\n        /* \"#utility.yul\":15184:15277   */\n      tag_720\n      jump\t// in\n    tag_719:\n        /* \"#utility.yul\":15302:15304   */\n      0x20\n        /* \"#utility.yul\":15297:15300   */\n      dup3\n        /* \"#utility.yul\":15293:15305   */\n      add\n        /* \"#utility.yul\":15286:15305   */\n      swap1\n      pop\n        /* \"#utility.yul\":14945:15311   */\n      swap2\n      swap1\n      pop\n      jump\t// out\n        /* \"#utility.yul\":15317:15682   */\n    tag_721:\n        /* \"#utility.yul\":15459:15462   */\n      0x00\n        /* \"#utility.yul\":15480:15546   */\n      tag_723\n        /* \"#utility.yul\":15544:15545   */\n      0x08\n        /* \"#utility.yul\":15539:15542   */\n      dup4\n        /* \"#utility.yul\":15480:15546   */\n      tag_682\n      jump\t// in\n    tag_723:\n        /* \"#utility.yul\":15473:15546   */\n      swap2\n      pop\n        /* \"#utility.yul\":15555:15648   */\n      tag_724\n        /* \"#utility.yul\":15644:15647   */\n      dup3\n        /* \"#utility.yul\":15555:15648   */\n      tag_725\n      jump\t// in\n    tag_724:\n        /* \"#utility.yul\":15673:15675   */\n      0x20\n        /* \"#utility.yul\":15668:15671   */\n      dup3\n        /* \"#utility.yul\":15664:15676   */\n      add\n        /* \"#utility.yul\":15657:15676   */\n      swap1\n      pop\n        /* \"#utility.yul\":15317:15682   */\n      swap2\n      swap1\n      pop\n      jump\t// out\n        /* \"#utility.yul\":15688:16054   */\n    tag_726:\n        /* \"#utility.yul\":15830:15833   */\n      0x00\n        /* \"#utility.yul\":15851:15918   */\n      tag_728\n        /* \"#utility.yul\":15915:15917   */\n      0x1c\n        /* \"#utility.yul\":15910:15913   */\n      dup4\n        /* \"#utility.yul\":15851:15918   */\n      tag_682\n      jump\t// in\n    tag_728:\n        /* \"#utility.yul\":15844:15918   */\n      swap2\n      pop\n        /* \"#utility.yul\":15927:16020   */\n      tag_729\n        /* \"#utility.yul\":16016:16019   */\n      dup3\n        /* \"#utility.yul\":15927:16020   */\n      tag_730\n      jump\t// in\n    tag_729:\n        /* \"#utility.yul\":16045:16047   */\n      0x20\n        /* \"#utility.yul\":16040:16043   */\n      dup3\n        /* \"#utility.yul\":16036:16048   */\n      add\n        /* \"#utility.yul\":16029:16048   */\n      swap1\n      pop\n        /* \"#utility.yul\":15688:16054   */\n      swap2\n      swap1\n      pop\n      jump\t// out\n        /* \"#utility.yul\":16060:16426   */\n    tag_731:\n        /* \"#utility.yul\":16202:16205   */\n      0x00\n        /* \"#utility.yul\":16223:16290   */\n      tag_733\n        /* \"#utility.yul\":16287:16289   */\n      0x22\n        /* \"#utility.yul\":16282:16285   */\n      dup4\n        /* \"#utility.yul\":16223:16290   */\n      tag_682\n      jump\t// in\n    tag_733:\n        /* \"#utility.yul\":16216:16290   */\n      swap2\n      pop\n        /* \"#utility.yul\":16299:16392   */\n      tag_734\n        /* \"#utility.yul\":16388:16391   */\n      dup3\n        /* \"#utility.yul\":16299:16392   */\n      tag_735\n      jump\t// in\n    tag_734:\n        /* \"#utility.yul\":16417:16419   */\n      0x40\n        /* \"#utility.yul\":16412:16415   */\n      dup3\n        /* \"#utility.yul\":16408:16420   */\n      add\n        /* \"#utility.yul\":16401:16420   */\n      swap1\n      pop\n        /* \"#utility.yul\":16060:16426   */\n      swap2\n      swap1\n      pop\n      jump\t// out\n        /* \"#utility.yul\":16432:16798   */\n    tag_736:\n        /* \"#utility.yul\":16574:16577   */\n      0x00\n        /* \"#utility.yul\":16595:16662   */\n      tag_738\n        /* \"#utility.yul\":16659:16661   */\n      0x13\n        /* \"#utility.yul\":16654:16657   */\n      dup4\n        /* \"#utility.yul\":16595:16662   */\n      tag_682\n      jump\t// in\n    tag_738:\n        /* \"#utility.yul\":16588:16662   */\n      swap2\n      pop\n        /* \"#utility.yul\":16671:16764   */\n      tag_739\n        /* \"#utility.yul\":16760:16763   */\n      dup3\n        /* \"#utility.yul\":16671:16764   */\n      tag_740\n      jump\t// in\n    tag_739:\n        /* \"#utility.yul\":16789:16791   */\n      0x20\n        /* \"#utility.yul\":16784:16787   */\n      dup3\n        /* \"#utility.yul\":16780:16792   */\n      add\n        /* \"#utility.yul\":16773:16792   */\n      swap1\n      pop\n        /* \"#utility.yul\":16432:16798   */\n      swap2\n      swap1\n      pop\n      jump\t// out\n        /* \"#utility.yul\":16858:18840   */\n    tag_624:\n        /* \"#utility.yul\":16965:16968   */\n      0x00\n        /* \"#utility.yul\":17001:17007   */\n      0x0120\n        /* \"#utility.yul\":16996:16999   */\n      dup4\n        /* \"#utility.yul\":16992:17008   */\n      add\n        /* \"#utility.yul\":17093:17097   */\n      0x00\n        /* \"#utility.yul\":17086:17091   */\n      dup4\n        /* \"#utility.yul\":17082:17098   */\n      add\n        /* \"#utility.yul\":17076:17099   */\n      mload\n        /* \"#utility.yul\":17112:17175   */\n      tag_742\n        /* \"#utility.yul\":17169:17173   */\n      0x00\n        /* \"#utility.yul\":17164:17167   */\n      dup7\n        /* \"#utility.yul\":17160:17174   */\n      add\n        /* \"#utility.yul\":17146:17158   */\n      dup3\n        /* \"#utility.yul\":17112:17175   */\n      tag_743\n      jump\t// in\n    tag_742:\n        /* \"#utility.yul\":17018:17185   */\n      pop\n        /* \"#utility.yul\":17267:17271   */\n      0x20\n        /* \"#utility.yul\":17260:17265   */\n      dup4\n        /* \"#utility.yul\":17256:17272   */\n      add\n        /* \"#utility.yul\":17250:17273   */\n      mload\n        /* \"#utility.yul\":17320:17323   */\n      dup5\n        /* \"#utility.yul\":17314:17318   */\n      dup3\n        /* \"#utility.yul\":17310:17324   */\n      sub\n        /* \"#utility.yul\":17303:17307   */\n      0x20\n        /* \"#utility.yul\":17298:17301   */\n      dup7\n        /* \"#utility.yul\":17294:17308   */\n      add\n        /* \"#utility.yul\":17287:17325   */\n      mstore\n        /* \"#utility.yul\":17346:17419   */\n      tag_744\n        /* \"#utility.yul\":17414:17418   */\n      dup3\n        /* \"#utility.yul\":17400:17412   */\n      dup3\n        /* \"#utility.yul\":17346:17419   */\n      tag_668\n      jump\t// in\n    tag_744:\n        /* \"#utility.yul\":17338:17419   */\n      swap2\n      pop\n        /* \"#utility.yul\":17195:17430   */\n      pop\n        /* \"#utility.yul\":17516:17520   */\n      0x40\n        /* \"#utility.yul\":17509:17514   */\n      dup4\n        /* \"#utility.yul\":17505:17521   */\n      add\n        /* \"#utility.yul\":17499:17522   */\n      mload\n        /* \"#utility.yul\":17535:17598   */\n      tag_745\n        /* \"#utility.yul\":17592:17596   */\n      0x40\n        /* \"#utility.yul\":17587:17590   */\n      dup7\n        /* \"#utility.yul\":17583:17597   */\n      add\n        /* \"#utility.yul\":17569:17581   */\n      dup3\n        /* \"#utility.yul\":17535:17598   */\n      tag_743\n      jump\t// in\n    tag_745:\n        /* \"#utility.yul\":17440:17608   */\n      pop\n        /* \"#utility.yul\":17692:17696   */\n      0x60\n        /* \"#utility.yul\":17685:17690   */\n      dup4\n        /* \"#utility.yul\":17681:17697   */\n      add\n        /* \"#utility.yul\":17675:17698   */\n      mload\n        /* \"#utility.yul\":17711:17774   */\n      tag_746\n        /* \"#utility.yul\":17768:17772   */\n      0x60\n        /* \"#utility.yul\":17763:17766   */\n      dup7\n        /* \"#utility.yul\":17759:17773   */\n      add\n        /* \"#utility.yul\":17745:17757   */\n      dup3\n        /* \"#utility.yul\":17711:17774   */\n      tag_743\n      jump\t// in\n    tag_746:\n        /* \"#utility.yul\":17618:17784   */\n      pop\n        /* \"#utility.yul\":17866:17870   */\n      0x80\n        /* \"#utility.yul\":17859:17864   */\n      dup4\n        /* \"#utility.yul\":17855:17871   */\n      add\n        /* \"#utility.yul\":17849:17872   */\n      mload\n        /* \"#utility.yul\":17885:17948   */\n      tag_747\n        /* \"#utility.yul\":17942:17946   */\n      0x80\n        /* \"#utility.yul\":17937:17940   */\n      dup7\n        /* \"#utility.yul\":17933:17947   */\n      add\n        /* \"#utility.yul\":17919:17931   */\n      dup3\n        /* \"#utility.yul\":17885:17948   */\n      tag_743\n      jump\t// in\n    tag_747:\n        /* \"#utility.yul\":17794:17958   */\n      pop\n        /* \"#utility.yul\":18041:18045   */\n      0xa0\n        /* \"#utility.yul\":18034:18039   */\n      dup4\n        /* \"#utility.yul\":18030:18046   */\n      add\n        /* \"#utility.yul\":18024:18047   */\n      mload\n        /* \"#utility.yul\":18060:18123   */\n      tag_748\n        /* \"#utility.yul\":18117:18121   */\n      0xa0\n        /* \"#utility.yul\":18112:18115   */\n      dup7\n        /* \"#utility.yul\":18108:18122   */\n      add\n        /* \"#utility.yul\":18094:18106   */\n      dup3\n        /* \"#utility.yul\":18060:18123   */\n      tag_743\n      jump\t// in\n    tag_748:\n        /* \"#utility.yul\":17968:18133   */\n      pop\n        /* \"#utility.yul\":18219:18223   */\n      0xc0\n        /* \"#utility.yul\":18212:18217   */\n      dup4\n        /* \"#utility.yul\":18208:18224   */\n      add\n        /* \"#utility.yul\":18202:18225   */\n      mload\n        /* \"#utility.yul\":18272:18275   */\n      dup5\n        /* \"#utility.yul\":18266:18270   */\n      dup3\n        /* \"#utility.yul\":18262:18276   */\n      sub\n        /* \"#utility.yul\":18255:18259   */\n      0xc0\n        /* \"#utility.yul\":18250:18253   */\n      dup7\n        /* \"#utility.yul\":18246:18260   */\n      add\n        /* \"#utility.yul\":18239:18277   */\n      mstore\n        /* \"#utility.yul\":18298:18371   */\n      tag_749\n        /* \"#utility.yul\":18366:18370   */\n      dup3\n        /* \"#utility.yul\":18352:18364   */\n      dup3\n        /* \"#utility.yul\":18298:18371   */\n      tag_668\n      jump\t// in\n    tag_749:\n        /* \"#utility.yul\":18290:18371   */\n      swap2\n      pop\n        /* \"#utility.yul\":18143:18382   */\n      pop\n        /* \"#utility.yul\":18471:18475   */\n      0xe0\n        /* \"#utility.yul\":18464:18469   */\n      dup4\n        /* \"#utility.yul\":18460:18476   */\n      add\n        /* \"#utility.yul\":18454:18477   */\n      mload\n        /* \"#utility.yul\":18524:18527   */\n      dup5\n        /* \"#utility.yul\":18518:18522   */\n      dup3\n        /* \"#utility.yul\":18514:18528   */\n      sub\n        /* \"#utility.yul\":18507:18511   */\n      0xe0\n        /* \"#utility.yul\":18502:18505   */\n      dup7\n        /* \"#utility.yul\":18498:18512   */\n      add\n        /* \"#utility.yul\":18491:18529   */\n      mstore\n        /* \"#utility.yul\":18550:18623   */\n      tag_750\n        /* \"#utility.yul\":18618:18622   */\n      dup3\n        /* \"#utility.yul\":18604:18616   */\n      dup3\n        /* \"#utility.yul\":18550:18623   */\n      tag_668\n      jump\t// in\n    tag_750:\n        /* \"#utility.yul\":18542:18623   */\n      swap2\n      pop\n        /* \"#utility.yul\":18392:18634   */\n      pop\n        /* \"#utility.yul\":18717:18723   */\n      0x0100\n        /* \"#utility.yul\":18710:18715   */\n      dup4\n        /* \"#utility.yul\":18706:18724   */\n      add\n        /* \"#utility.yul\":18700:18725   */\n      mload\n        /* \"#utility.yul\":18738:18803   */\n      tag_751\n        /* \"#utility.yul\":18795:18801   */\n      0x0100\n        /* \"#utility.yul\":18790:18793   */\n      dup7\n        /* \"#utility.yul\":18786:18802   */\n      add\n        /* \"#utility.yul\":18772:18784   */\n      dup3\n        /* \"#utility.yul\":18738:18803   */\n      tag_629\n      jump\t// in\n    tag_751:\n        /* \"#utility.yul\":18644:18813   */\n      pop\n        /* \"#utility.yul\":18830:18834   */\n      dup1\n        /* \"#utility.yul\":18823:18834   */\n      swap2\n      pop\n        /* \"#utility.yul\":16970:18840   */\n      pop\n        /* \"#utility.yul\":16858:18840   */\n      swap3\n      swap2\n      pop\n      pop\n      jump\t// out\n        /* \"#utility.yul\":18900:20460   */\n    tag_628:\n        /* \"#utility.yul\":19007:19010   */\n      0x00\n        /* \"#utility.yul\":19043:19047   */\n      0xe0\n        /* \"#utility.yul\":19038:19041   */\n      dup4\n        /* \"#utility.yul\":19034:19048   */\n      add\n        /* \"#utility.yul\":19131:19135   */\n      0x00\n        /* \"#utility.yul\":19124:19129   */\n      dup4\n        /* \"#utility.yul\":19120:19136   */\n      add\n        /* \"#utility.yul\":19114:19137   */\n      mload\n        /* \"#utility.yul\":19150:19213   */\n      tag_753\n        /* \"#utility.yul\":19207:19211   */\n      0x00\n        /* \"#utility.yul\":19202:19205   */\n      dup7\n        /* \"#utility.yul\":19198:19212   */\n      add\n        /* \"#utility.yul\":19184:19196   */\n      dup3\n        /* \"#utility.yul\":19150:19213   */\n      tag_743\n      jump\t// in\n    tag_753:\n        /* \"#utility.yul\":19058:19223   */\n      pop\n        /* \"#utility.yul\":19306:19310   */\n      0x20\n        /* \"#utility.yul\":19299:19304   */\n      dup4\n        /* \"#utility.yul\":19295:19311   */\n      add\n        /* \"#utility.yul\":19289:19312   */\n      mload\n        /* \"#utility.yul\":19325:19388   */\n      tag_754\n        /* \"#utility.yul\":19382:19386   */\n      0x20\n        /* \"#utility.yul\":19377:19380   */\n      dup7\n        /* \"#utility.yul\":19373:19387   */\n      add\n        /* \"#utility.yul\":19359:19371   */\n      dup3\n        /* \"#utility.yul\":19325:19388   */\n      tag_743\n      jump\t// in\n    tag_754:\n        /* \"#utility.yul\":19233:19398   */\n      pop\n        /* \"#utility.yul\":19487:19491   */\n      0x40\n        /* \"#utility.yul\":19480:19485   */\n      dup4\n        /* \"#utility.yul\":19476:19492   */\n      add\n        /* \"#utility.yul\":19470:19493   */\n      mload\n        /* \"#utility.yul\":19540:19543   */\n      dup5\n        /* \"#utility.yul\":19534:19538   */\n      dup3\n        /* \"#utility.yul\":19530:19544   */\n      sub\n        /* \"#utility.yul\":19523:19527   */\n      0x40\n        /* \"#utility.yul\":19518:19521   */\n      dup7\n        /* \"#utility.yul\":19514:19528   */\n      add\n        /* \"#utility.yul\":19507:19545   */\n      mstore\n        /* \"#utility.yul\":19566:19639   */\n      tag_755\n        /* \"#utility.yul\":19634:19638   */\n      dup3\n        /* \"#utility.yul\":19620:19632   */\n      dup3\n        /* \"#utility.yul\":19566:19639   */\n      tag_668\n      jump\t// in\n    tag_755:\n        /* \"#utility.yul\":19558:19639   */\n      swap2\n      pop\n        /* \"#utility.yul\":19408:19650   */\n      pop\n        /* \"#utility.yul\":19733:19737   */\n      0x60\n        /* \"#utility.yul\":19726:19731   */\n      dup4\n        /* \"#utility.yul\":19722:19738   */\n      add\n        /* \"#utility.yul\":19716:19739   */\n      mload\n        /* \"#utility.yul\":19752:19815   */\n      tag_756\n        /* \"#utility.yul\":19809:19813   */\n      0x60\n        /* \"#utility.yul\":19804:19807   */\n      dup7\n        /* \"#utility.yul\":19800:19814   */\n      add\n        /* \"#utility.yul\":19786:19798   */\n      dup3\n        /* \"#utility.yul\":19752:19815   */\n      tag_629\n      jump\t// in\n    tag_756:\n        /* \"#utility.yul\":19660:19825   */\n      pop\n        /* \"#utility.yul\":19915:19919   */\n      0x80\n        /* \"#utility.yul\":19908:19913   */\n      dup4\n        /* \"#utility.yul\":19904:19920   */\n      add\n        /* \"#utility.yul\":19898:19921   */\n      mload\n        /* \"#utility.yul\":19934:19997   */\n      tag_757\n        /* \"#utility.yul\":19991:19995   */\n      0x80\n        /* \"#utility.yul\":19986:19989   */\n      dup7\n        /* \"#utility.yul\":19982:19996   */\n      add\n        /* \"#utility.yul\":19968:19980   */\n      dup3\n        /* \"#utility.yul\":19934:19997   */\n      tag_743\n      jump\t// in\n    tag_757:\n        /* \"#utility.yul\":19835:20007   */\n      pop\n        /* \"#utility.yul\":20094:20098   */\n      0xa0\n        /* \"#utility.yul\":20087:20092   */\n      dup4\n        /* \"#utility.yul\":20083:20099   */\n      add\n        /* \"#utility.yul\":20077:20100   */\n      mload\n        /* \"#utility.yul\":20113:20176   */\n      tag_758\n        /* \"#utility.yul\":20170:20174   */\n      0xa0\n        /* \"#utility.yul\":20165:20168   */\n      dup7\n        /* \"#utility.yul\":20161:20175   */\n      add\n        /* \"#utility.yul\":20147:20159   */\n      dup3\n        /* \"#utility.yul\":20113:20176   */\n      tag_743\n      jump\t// in\n    tag_758:\n        /* \"#utility.yul\":20017:20186   */\n      pop\n        /* \"#utility.yul\":20270:20274   */\n      0xc0\n        /* \"#utility.yul\":20263:20268   */\n      dup4\n        /* \"#utility.yul\":20259:20275   */\n      add\n        /* \"#utility.yul\":20253:20276   */\n      mload\n        /* \"#utility.yul\":20323:20326   */\n      dup5\n        /* \"#utility.yul\":20317:20321   */\n      dup3\n        /* \"#utility.yul\":20313:20327   */\n      sub\n        /* \"#utility.yul\":20306:20310   */\n      0xc0\n        /* \"#utility.yul\":20301:20304   */\n      dup7\n        /* \"#utility.yul\":20297:20311   */\n      add\n        /* \"#utility.yul\":20290:20328   */\n      mstore\n        /* \"#utility.yul\":20349:20422   */\n      tag_759\n        /* \"#utility.yul\":20417:20421   */\n      dup3\n        /* \"#utility.yul\":20403:20415   */\n      dup3\n        /* \"#utility.yul\":20349:20422   */\n      tag_668\n      jump\t// in\n    tag_759:\n        /* \"#utility.yul\":20341:20422   */\n      swap2\n      pop\n        /* \"#utility.yul\":20196:20433   */\n      pop\n        /* \"#utility.yul\":20450:20454   */\n      dup1\n        /* \"#utility.yul\":20443:20454   */\n      swap2\n      pop\n        /* \"#utility.yul\":19012:20460   */\n      pop\n        /* \"#utility.yul\":18900:20460   */\n      swap3\n      swap2\n      pop\n      pop\n      jump\t// out\n        /* \"#utility.yul\":20466:20574   */\n    tag_743:\n        /* \"#utility.yul\":20543:20567   */\n      tag_761\n        /* \"#utility.yul\":20561:20566   */\n      dup2\n        /* \"#utility.yul\":20543:20567   */\n      tag_762\n      jump\t// in\n    tag_761:\n        /* \"#utility.yul\":20538:20541   */\n      dup3\n        /* \"#utility.yul\":20531:20568   */\n      mstore\n        /* \"#utility.yul\":20466:20574   */\n      pop\n      pop\n      jump\t// out\n        /* \"#utility.yul\":20580:20698   */\n    tag_763:\n        /* \"#utility.yul\":20667:20691   */\n      tag_765\n        /* \"#utility.yul\":20685:20690   */\n      dup2\n        /* \"#utility.yul\":20667:20691   */\n      tag_762\n      jump\t// in\n    tag_765:\n        /* \"#utility.yul\":20662:20665   */\n      dup3\n        /* \"#utility.yul\":20655:20692   */\n      mstore\n        /* \"#utility.yul\":20580:20698   */\n      pop\n      pop\n      jump\t// out\n        /* \"#utility.yul\":20704:21405   */\n    tag_303:\n        /* \"#utility.yul\":20985:20988   */\n      0x00\n        /* \"#utility.yul\":21007:21102   */\n      tag_767\n        /* \"#utility.yul\":21098:21101   */\n      dup3\n        /* \"#utility.yul\":21089:21095   */\n      dup6\n        /* \"#utility.yul\":21007:21102   */\n      tag_685\n      jump\t// in\n    tag_767:\n        /* \"#utility.yul\":21000:21102   */\n      swap2\n      pop\n        /* \"#utility.yul\":21119:21267   */\n      tag_768\n        /* \"#utility.yul\":21263:21266   */\n      dup3\n        /* \"#utility.yul\":21119:21267   */\n      tag_711\n      jump\t// in\n    tag_768:\n        /* \"#utility.yul\":21112:21267   */\n      swap2\n      pop\n        /* \"#utility.yul\":21284:21379   */\n      tag_769\n        /* \"#utility.yul\":21375:21378   */\n      dup3\n        /* \"#utility.yul\":21366:21372   */\n      dup5\n        /* \"#utility.yul\":21284:21379   */\n      tag_685\n      jump\t// in\n    tag_769:\n        /* \"#utility.yul\":21277:21379   */\n      swap2\n      pop\n        /* \"#utility.yul\":21396:21399   */\n      dup2\n        /* \"#utility.yul\":21389:21399   */\n      swap1\n      pop\n        /* \"#utility.yul\":20704:21405   */\n      swap4\n      swap3\n      pop\n      pop\n      pop\n      jump\t// out\n        /* \"#utility.yul\":21411:21633   */\n    tag_123:\n        /* \"#utility.yul\":21504:21508   */\n      0x00\n        /* \"#utility.yul\":21542:21544   */\n      0x20\n        /* \"#utility.yul\":21531:21540   */\n      dup3\n        /* \"#utility.yul\":21527:21545   */\n      add\n        /* \"#utility.yul\":21519:21545   */\n      swap1\n      pop\n        /* \"#utility.yul\":21555:21626   */\n      tag_771\n        /* \"#utility.yul\":21623:21624   */\n      0x00\n        /* \"#utility.yul\":21612:21621   */\n      dup4\n        /* \"#utility.yul\":21608:21625   */\n      add\n        /* \"#utility.yul\":21599:21605   */\n      dup5\n        /* \"#utility.yul\":21555:21626   */\n      tag_633\n      jump\t// in\n    tag_771:\n        /* \"#utility.yul\":21411:21633   */\n      swap3\n      swap2\n      pop\n      pop\n      jump\t// out\n        /* \"#utility.yul\":21639:22069   */\n    tag_95:\n        /* \"#utility.yul\":21782:21786   */\n      0x00\n        /* \"#utility.yul\":21820:21822   */\n      0x60\n        /* \"#utility.yul\":21809:21818   */\n      dup3\n        /* \"#utility.yul\":21805:21823   */\n      add\n        /* \"#utility.yul\":21797:21823   */\n      swap1\n      pop\n        /* \"#utility.yul\":21833:21904   */\n      tag_773\n        /* \"#utility.yul\":21901:21902   */\n      0x00\n        /* \"#utility.yul\":21890:21899   */\n      dup4\n        /* \"#utility.yul\":21886:21903   */\n      add\n        /* \"#utility.yul\":21877:21883   */\n      dup7\n        /* \"#utility.yul\":21833:21904   */\n      tag_633\n      jump\t// in\n    tag_773:\n        /* \"#utility.yul\":21914:21986   */\n      tag_774\n        /* \"#utility.yul\":21982:21984   */\n      0x20\n        /* \"#utility.yul\":21971:21980   */\n      dup4\n        /* \"#utility.yul\":21967:21985   */\n      add\n        /* \"#utility.yul\":21958:21964   */\n      dup6\n        /* \"#utility.yul\":21914:21986   */\n      tag_763\n      jump\t// in\n    tag_774:\n        /* \"#utility.yul\":21996:22062   */\n      tag_775\n        /* \"#utility.yul\":22058:22060   */\n      0x40\n        /* \"#utility.yul\":22047:22056   */\n      dup4\n        /* \"#utility.yul\":22043:22061   */\n      add\n        /* \"#utility.yul\":22034:22040   */\n      dup5\n        /* \"#utility.yul\":21996:22062   */\n      tag_664\n      jump\t// in\n    tag_775:\n        /* \"#utility.yul\":21639:22069   */\n      swap5\n      swap4\n      pop\n      pop\n      pop\n      pop\n      jump\t// out\n        /* \"#utility.yul\":22075:22544   */\n    tag_170:\n        /* \"#utility.yul\":22266:22270   */\n      0x00\n        /* \"#utility.yul\":22304:22306   */\n      0x20\n        /* \"#utility.yul\":22293:22302   */\n      dup3\n        /* \"#utility.yul\":22289:22307   */\n      add\n        /* \"#utility.yul\":22281:22307   */\n      swap1\n      pop\n        /* \"#utility.yul\":22353:22362   */\n      dup2\n        /* \"#utility.yul\":22347:22351   */\n      dup2\n        /* \"#utility.yul\":22343:22363   */\n      sub\n        /* \"#utility.yul\":22339:22340   */\n      0x00\n        /* \"#utility.yul\":22328:22337   */\n      dup4\n        /* \"#utility.yul\":22324:22341   */\n      add\n        /* \"#utility.yul\":22317:22364   */\n      mstore\n        /* \"#utility.yul\":22381:22537   */\n      tag_777\n        /* \"#utility.yul\":22532:22536   */\n      dup2\n        /* \"#utility.yul\":22523:22529   */\n      dup5\n        /* \"#utility.yul\":22381:22537   */\n      tag_636\n      jump\t// in\n    tag_777:\n        /* \"#utility.yul\":22373:22537   */\n      swap1\n      pop\n        /* \"#utility.yul\":22075:22544   */\n      swap3\n      swap2\n      pop\n      pop\n      jump\t// out\n        /* \"#utility.yul\":22550:23019   */\n    tag_144:\n        /* \"#utility.yul\":22741:22745   */\n      0x00\n        /* \"#utility.yul\":22779:22781   */\n      0x20\n        /* \"#utility.yul\":22768:22777   */\n      dup3\n        /* \"#utility.yul\":22764:22782   */\n      add\n        /* \"#utility.yul\":22756:22782   */\n      swap1\n      pop\n        /* \"#utility.yul\":22828:22837   */\n      dup2\n        /* \"#utility.yul\":22822:22826   */\n      dup2\n        /* \"#utility.yul\":22818:22838   */\n      sub\n        /* \"#utility.yul\":22814:22815   */\n      0x00\n        /* \"#utility.yul\":22803:22812   */\n      dup4\n        /* \"#utility.yul\":22799:22816   */\n      add\n        /* \"#utility.yul\":22792:22839   */\n      mstore\n        /* \"#utility.yul\":22856:23012   */\n      tag_779\n        /* \"#utility.yul\":23007:23011   */\n      dup2\n        /* \"#utility.yul\":22998:23004   */\n      dup5\n        /* \"#utility.yul\":22856:23012   */\n      tag_650\n      jump\t// in\n    tag_779:\n        /* \"#utility.yul\":22848:23012   */\n      swap1\n      pop\n        /* \"#utility.yul\":22550:23019   */\n      swap3\n      swap2\n      pop\n      pop\n      jump\t// out\n        /* \"#utility.yul\":23025:23235   */\n    tag_53:\n        /* \"#utility.yul\":23112:23116   */\n      0x00\n        /* \"#utility.yul\":23150:23152   */\n      0x20\n        /* \"#utility.yul\":23139:23148   */\n      dup3\n        /* \"#utility.yul\":23135:23153   */\n      add\n        /* \"#utility.yul\":23127:23153   */\n      swap1\n      pop\n        /* \"#utility.yul\":23163:23228   */\n      tag_781\n        /* \"#utility.yul\":23225:23226   */\n      0x00\n        /* \"#utility.yul\":23214:23223   */\n      dup4\n        /* \"#utility.yul\":23210:23227   */\n      add\n        /* \"#utility.yul\":23201:23207   */\n      dup5\n        /* \"#utility.yul\":23163:23228   */\n      tag_664\n      jump\t// in\n    tag_781:\n        /* \"#utility.yul\":23025:23235   */\n      swap3\n      swap2\n      pop\n      pop\n      jump\t// out\n        /* \"#utility.yul\":23241:23554   */\n    tag_118:\n        /* \"#utility.yul\":23354:23358   */\n      0x00\n        /* \"#utility.yul\":23392:23394   */\n      0x20\n        /* \"#utility.yul\":23381:23390   */\n      dup3\n        /* \"#utility.yul\":23377:23395   */\n      add\n        /* \"#utility.yul\":23369:23395   */\n      swap1\n      pop\n        /* \"#utility.yul\":23441:23450   */\n      dup2\n        /* \"#utility.yul\":23435:23439   */\n      dup2\n        /* \"#utility.yul\":23431:23451   */\n      sub\n        /* \"#utility.yul\":23427:23428   */\n      0x00\n        /* \"#utility.yul\":23416:23425   */\n      dup4\n        /* \"#utility.yul\":23412:23429   */\n      add\n        /* \"#utility.yul\":23405:23452   */\n      mstore\n        /* \"#utility.yul\":23469:23547   */\n      tag_783\n        /* \"#utility.yul\":23542:23546   */\n      dup2\n        /* \"#utility.yul\":23533:23539   */\n      dup5\n        /* \"#utility.yul\":23469:23547   */\n      tag_678\n      jump\t// in\n    tag_783:\n        /* \"#utility.yul\":23461:23547   */\n      swap1\n      pop\n        /* \"#utility.yul\":23241:23554   */\n      swap3\n      swap2\n      pop\n      pop\n      jump\t// out\n        /* \"#utility.yul\":23560:24382   */\n    tag_198:\n        /* \"#utility.yul\":23793:23797   */\n      0x00\n        /* \"#utility.yul\":23831:23834   */\n      0xa0\n        /* \"#utility.yul\":23820:23829   */\n      dup3\n        /* \"#utility.yul\":23816:23835   */\n      add\n        /* \"#utility.yul\":23808:23835   */\n      swap1\n      pop\n        /* \"#utility.yul\":23881:23890   */\n      dup2\n        /* \"#utility.yul\":23875:23879   */\n      dup2\n        /* \"#utility.yul\":23871:23891   */\n      sub\n        /* \"#utility.yul\":23867:23868   */\n      0x00\n        /* \"#utility.yul\":23856:23865   */\n      dup4\n        /* \"#utility.yul\":23852:23869   */\n      add\n        /* \"#utility.yul\":23845:23892   */\n      mstore\n        /* \"#utility.yul\":23909:23987   */\n      tag_785\n        /* \"#utility.yul\":23982:23986   */\n      dup2\n        /* \"#utility.yul\":23973:23979   */\n      dup9\n        /* \"#utility.yul\":23909:23987   */\n      tag_678\n      jump\t// in\n    tag_785:\n        /* \"#utility.yul\":23901:23987   */\n      swap1\n      pop\n        /* \"#utility.yul\":24034:24043   */\n      dup2\n        /* \"#utility.yul\":24028:24032   */\n      dup2\n        /* \"#utility.yul\":24024:24044   */\n      sub\n        /* \"#utility.yul\":24019:24021   */\n      0x20\n        /* \"#utility.yul\":24008:24017   */\n      dup4\n        /* \"#utility.yul\":24004:24022   */\n      add\n        /* \"#utility.yul\":23997:24045   */\n      mstore\n        /* \"#utility.yul\":24062:24140   */\n      tag_786\n        /* \"#utility.yul\":24135:24139   */\n      dup2\n        /* \"#utility.yul\":24126:24132   */\n      dup8\n        /* \"#utility.yul\":24062:24140   */\n      tag_678\n      jump\t// in\n    tag_786:\n        /* \"#utility.yul\":24054:24140   */\n      swap1\n      pop\n        /* \"#utility.yul\":24150:24222   */\n      tag_787\n        /* \"#utility.yul\":24218:24220   */\n      0x40\n        /* \"#utility.yul\":24207:24216   */\n      dup4\n        /* \"#utility.yul\":24203:24221   */\n      add\n        /* \"#utility.yul\":24194:24200   */\n      dup7\n        /* \"#utility.yul\":24150:24222   */\n      tag_633\n      jump\t// in\n    tag_787:\n        /* \"#utility.yul\":24232:24298   */\n      tag_788\n        /* \"#utility.yul\":24294:24296   */\n      0x60\n        /* \"#utility.yul\":24283:24292   */\n      dup4\n        /* \"#utility.yul\":24279:24297   */\n      add\n        /* \"#utility.yul\":24270:24276   */\n      dup6\n        /* \"#utility.yul\":24232:24298   */\n      tag_664\n      jump\t// in\n    tag_788:\n        /* \"#utility.yul\":24308:24375   */\n      tag_789\n        /* \"#utility.yul\":24370:24373   */\n      0x80\n        /* \"#utility.yul\":24359:24368   */\n      dup4\n        /* \"#utility.yul\":24355:24374   */\n      add\n        /* \"#utility.yul\":24346:24352   */\n      dup5\n        /* \"#utility.yul\":24308:24375   */\n      tag_664\n      jump\t// in\n    tag_789:\n        /* \"#utility.yul\":23560:24382   */\n      swap7\n      swap6\n      pop\n      pop\n      pop\n      pop\n      pop\n      pop\n      jump\t// out\n        /* \"#utility.yul\":24388:24807   */\n    tag_455:\n        /* \"#utility.yul\":24554:24558   */\n      0x00\n        /* \"#utility.yul\":24592:24594   */\n      0x20\n        /* \"#utility.yul\":24581:24590   */\n      dup3\n        /* \"#utility.yul\":24577:24595   */\n      add\n        /* \"#utility.yul\":24569:24595   */\n      swap1\n      pop\n        /* \"#utility.yul\":24641:24650   */\n      dup2\n        /* \"#utility.yul\":24635:24639   */\n      dup2\n        /* \"#utility.yul\":24631:24651   */\n      sub\n        /* \"#utility.yul\":24627:24628   */\n      0x00\n        /* \"#utility.yul\":24616:24625   */\n      dup4\n        /* \"#utility.yul\":24612:24629   */\n      add\n        /* \"#utility.yul\":24605:24652   */\n      mstore\n        /* \"#utility.yul\":24669:24800   */\n      tag_791\n        /* \"#utility.yul\":24795:24799   */\n      dup2\n        /* \"#utility.yul\":24669:24800   */\n      tag_691\n      jump\t// in\n    tag_791:\n        /* \"#utility.yul\":24661:24800   */\n      swap1\n      pop\n        /* \"#utility.yul\":24388:24807   */\n      swap2\n      swap1\n      pop\n      jump\t// out\n        /* \"#utility.yul\":24813:25232   */\n    tag_243:\n        /* \"#utility.yul\":24979:24983   */\n      0x00\n        /* \"#utility.yul\":25017:25019   */\n      0x20\n        /* \"#utility.yul\":25006:25015   */\n      dup3\n        /* \"#utility.yul\":25002:25020   */\n      add\n        /* \"#utility.yul\":24994:25020   */\n      swap1\n      pop\n        /* \"#utility.yul\":25066:25075   */\n      dup2\n        /* \"#utility.yul\":25060:25064   */\n      dup2\n        /* \"#utility.yul\":25056:25076   */\n      sub\n        /* \"#utility.yul\":25052:25053   */\n      0x00\n        /* \"#utility.yul\":25041:25050   */\n      dup4\n        /* \"#utility.yul\":25037:25054   */\n      add\n        /* \"#utility.yul\":25030:25077   */\n      mstore\n        /* \"#utility.yul\":25094:25225   */\n      tag_793\n        /* \"#utility.yul\":25220:25224   */\n      dup2\n        /* \"#utility.yul\":25094:25225   */\n      tag_696\n      jump\t// in\n    tag_793:\n        /* \"#utility.yul\":25086:25225   */\n      swap1\n      pop\n        /* \"#utility.yul\":24813:25232   */\n      swap2\n      swap1\n      pop\n      jump\t// out\n        /* \"#utility.yul\":25238:25657   */\n    tag_458:\n        /* \"#utility.yul\":25404:25408   */\n      0x00\n        /* \"#utility.yul\":25442:25444   */\n      0x20\n        /* \"#utility.yul\":25431:25440   */\n      dup3\n        /* \"#utility.yul\":25427:25445   */\n      add\n        /* \"#utility.yul\":25419:25445   */\n      swap1\n      pop\n        /* \"#utility.yul\":25491:25500   */\n      dup2\n        /* \"#utility.yul\":25485:25489   */\n      dup2\n        /* \"#utility.yul\":25481:25501   */\n      sub\n        /* \"#utility.yul\":25477:25478   */\n      0x00\n        /* \"#utility.yul\":25466:25475   */\n      dup4\n        /* \"#utility.yul\":25462:25479   */\n      add\n        /* \"#utility.yul\":25455:25502   */\n      mstore\n        /* \"#utility.yul\":25519:25650   */\n      tag_795\n        /* \"#utility.yul\":25645:25649   */\n      dup2\n        /* \"#utility.yul\":25519:25650   */\n      tag_701\n      jump\t// in\n    tag_795:\n        /* \"#utility.yul\":25511:25650   */\n      swap1\n      pop\n        /* \"#utility.yul\":25238:25657   */\n      swap2\n      swap1\n      pop\n      jump\t// out\n        /* \"#utility.yul\":25663:26082   */\n    tag_439:\n        /* \"#utility.yul\":25829:25833   */\n      0x00\n        /* \"#utility.yul\":25867:25869   */\n      0x20\n        /* \"#utility.yul\":25856:25865   */\n      dup3\n        /* \"#utility.yul\":25852:25870   */\n      add\n        /* \"#utility.yul\":25844:25870   */\n      swap1\n      pop\n        /* \"#utility.yul\":25916:25925   */\n      dup2\n        /* \"#utility.yul\":25910:25914   */\n      dup2\n        /* \"#utility.yul\":25906:25926   */\n      sub\n        /* \"#utility.yul\":25902:25903   */\n      0x00\n        /* \"#utility.yul\":25891:25900   */\n      dup4\n        /* \"#utility.yul\":25887:25904   */\n      add\n        /* \"#utility.yul\":25880:25927   */\n      mstore\n        /* \"#utility.yul\":25944:26075   */\n      tag_797\n        /* \"#utility.yul\":26070:26074   */\n      dup2\n        /* \"#utility.yul\":25944:26075   */\n      tag_706\n      jump\t// in\n    tag_797:\n        /* \"#utility.yul\":25936:26075   */\n      swap1\n      pop\n        /* \"#utility.yul\":25663:26082   */\n      swap2\n      swap1\n      pop\n      jump\t// out\n        /* \"#utility.yul\":26088:26507   */\n    tag_210:\n        /* \"#utility.yul\":26254:26258   */\n      0x00\n        /* \"#utility.yul\":26292:26294   */\n      0x20\n        /* \"#utility.yul\":26281:26290   */\n      dup3\n        /* \"#utility.yul\":26277:26295   */\n      add\n        /* \"#utility.yul\":26269:26295   */\n      swap1\n      pop\n        /* \"#utility.yul\":26341:26350   */\n      dup2\n        /* \"#utility.yul\":26335:26339   */\n      dup2\n        /* \"#utility.yul\":26331:26351   */\n      sub\n        /* \"#utility.yul\":26327:26328   */\n      0x00\n        /* \"#utility.yul\":26316:26325   */\n      dup4\n        /* \"#utility.yul\":26312:26329   */\n      add\n        /* \"#utility.yul\":26305:26352   */\n      mstore\n        /* \"#utility.yul\":26369:26500   */\n      tag_799\n        /* \"#utility.yul\":26495:26499   */\n      dup2\n        /* \"#utility.yul\":26369:26500   */\n      tag_716\n      jump\t// in\n    tag_799:\n        /* \"#utility.yul\":26361:26500   */\n      swap1\n      pop\n        /* \"#utility.yul\":26088:26507   */\n      swap2\n      swap1\n      pop\n      jump\t// out\n        /* \"#utility.yul\":26513:26932   */\n    tag_254:\n        /* \"#utility.yul\":26679:26683   */\n      0x00\n        /* \"#utility.yul\":26717:26719   */\n      0x20\n        /* \"#utility.yul\":26706:26715   */\n      dup3\n        /* \"#utility.yul\":26702:26720   */\n      add\n        /* \"#utility.yul\":26694:26720   */\n      swap1\n      pop\n        /* \"#utility.yul\":26766:26775   */\n      dup2\n        /* \"#utility.yul\":26760:26764   */\n      dup2\n        /* \"#utility.yul\":26756:26776   */\n      sub\n        /* \"#utility.yul\":26752:26753   */\n      0x00\n        /* \"#utility.yul\":26741:26750   */\n      dup4\n        /* \"#utility.yul\":26737:26754   */\n      add\n        /* \"#utility.yul\":26730:26777   */\n      mstore\n        /* \"#utility.yul\":26794:26925   */\n      tag_801\n        /* \"#utility.yul\":26920:26924   */\n      dup2\n        /* \"#utility.yul\":26794:26925   */\n      tag_721\n      jump\t// in\n    tag_801:\n        /* \"#utility.yul\":26786:26925   */\n      swap1\n      pop\n        /* \"#utility.yul\":26513:26932   */\n      swap2\n      swap1\n      pop\n      jump\t// out\n        /* \"#utility.yul\":26938:27357   */\n    tag_260:\n        /* \"#utility.yul\":27104:27108   */\n      0x00\n        /* \"#utility.yul\":27142:27144   */\n      0x20\n        /* \"#utility.yul\":27131:27140   */\n      dup3\n        /* \"#utility.yul\":27127:27145   */\n      add\n        /* \"#utility.yul\":27119:27145   */\n      swap1\n      pop\n        /* \"#utility.yul\":27191:27200   */\n      dup2\n        /* \"#utility.yul\":27185:27189   */\n      dup2\n        /* \"#utility.yul\":27181:27201   */\n      sub\n        /* \"#utility.yul\":27177:27178   */\n      0x00\n        /* \"#utility.yul\":27166:27175   */\n      dup4\n        /* \"#utility.yul\":27162:27179   */\n      add\n        /* \"#utility.yul\":27155:27202   */\n      mstore\n        /* \"#utility.yul\":27219:27350   */\n      tag_803\n        /* \"#utility.yul\":27345:27349   */\n      dup2\n        /* \"#utility.yul\":27219:27350   */\n      tag_726\n      jump\t// in\n    tag_803:\n        /* \"#utility.yul\":27211:27350   */\n      swap1\n      pop\n        /* \"#utility.yul\":26938:27357   */\n      swap2\n      swap1\n      pop\n      jump\t// out\n        /* \"#utility.yul\":27363:27782   */\n    tag_257:\n        /* \"#utility.yul\":27529:27533   */\n      0x00\n        /* \"#utility.yul\":27567:27569   */\n      0x20\n        /* \"#utility.yul\":27556:27565   */\n      dup3\n        /* \"#utility.yul\":27552:27570   */\n      add\n        /* \"#utility.yul\":27544:27570   */\n      swap1\n      pop\n        /* \"#utility.yul\":27616:27625   */\n      dup2\n        /* \"#utility.yul\":27610:27614   */\n      dup2\n        /* \"#utility.yul\":27606:27626   */\n      sub\n        /* \"#utility.yul\":27602:27603   */\n      0x00\n        /* \"#utility.yul\":27591:27600   */\n      dup4\n        /* \"#utility.yul\":27587:27604   */\n      add\n        /* \"#utility.yul\":27580:27627   */\n      mstore\n        /* \"#utility.yul\":27644:27775   */\n      tag_805\n        /* \"#utility.yul\":27770:27774   */\n      dup2\n        /* \"#utility.yul\":27644:27775   */\n      tag_731\n      jump\t// in\n    tag_805:\n        /* \"#utility.yul\":27636:27775   */\n      swap1\n      pop\n        /* \"#utility.yul\":27363:27782   */\n      swap2\n      swap1\n      pop\n      jump\t// out\n        /* \"#utility.yul\":27788:28207   */\n    tag_442:\n        /* \"#utility.yul\":27954:27958   */\n      0x00\n        /* \"#utility.yul\":27992:27994   */\n      0x20\n        /* \"#utility.yul\":27981:27990   */\n      dup3\n        /* \"#utility.yul\":27977:27995   */\n      add\n        /* \"#utility.yul\":27969:27995   */\n      swap1\n      pop\n        /* \"#utility.yul\":28041:28050   */\n      dup2\n        /* \"#utility.yul\":28035:28039   */\n      dup2\n        /* \"#utility.yul\":28031:28051   */\n      sub\n        /* \"#utility.yul\":28027:28028   */\n      0x00\n        /* \"#utility.yul\":28016:28025   */\n      dup4\n        /* \"#utility.yul\":28012:28029   */\n      add\n        /* \"#utility.yul\":28005:28052   */\n      mstore\n        /* \"#utility.yul\":28069:28200   */\n      tag_807\n        /* \"#utility.yul\":28195:28199   */\n      dup2\n        /* \"#utility.yul\":28069:28200   */\n      tag_736\n      jump\t// in\n    tag_807:\n        /* \"#utility.yul\":28061:28200   */\n      swap1\n      pop\n        /* \"#utility.yul\":27788:28207   */\n      swap2\n      swap1\n      pop\n      jump\t// out\n        /* \"#utility.yul\":28213:28435   */\n    tag_70:\n        /* \"#utility.yul\":28306:28310   */\n      0x00\n        /* \"#utility.yul\":28344:28346   */\n      0x20\n        /* \"#utility.yul\":28333:28342   */\n      dup3\n        /* \"#utility.yul\":28329:28347   */\n      add\n        /* \"#utility.yul\":28321:28347   */\n      swap1\n      pop\n        /* \"#utility.yul\":28357:28428   */\n      tag_809\n        /* \"#utility.yul\":28425:28426   */\n      0x00\n        /* \"#utility.yul\":28414:28423   */\n      dup4\n        /* \"#utility.yul\":28410:28427   */\n      add\n        /* \"#utility.yul\":28401:28407   */\n      dup5\n        /* \"#utility.yul\":28357:28428   */\n      tag_763\n      jump\t// in\n    tag_809:\n        /* \"#utility.yul\":28213:28435   */\n      swap3\n      swap2\n      pop\n      pop\n      jump\t// out\n        /* \"#utility.yul\":28441:29822   */\n    tag_112:\n        /* \"#utility.yul\":28818:28822   */\n      0x00\n        /* \"#utility.yul\":28856:28859   */\n      0x0120\n        /* \"#utility.yul\":28845:28854   */\n      dup3\n        /* \"#utility.yul\":28841:28860   */\n      add\n        /* \"#utility.yul\":28833:28860   */\n      swap1\n      pop\n        /* \"#utility.yul\":28870:28941   */\n      tag_811\n        /* \"#utility.yul\":28938:28939   */\n      0x00\n        /* \"#utility.yul\":28927:28936   */\n      dup4\n        /* \"#utility.yul\":28923:28940   */\n      add\n        /* \"#utility.yul\":28914:28920   */\n      dup13\n        /* \"#utility.yul\":28870:28941   */\n      tag_763\n      jump\t// in\n    tag_811:\n        /* \"#utility.yul\":28988:28997   */\n      dup2\n        /* \"#utility.yul\":28982:28986   */\n      dup2\n        /* \"#utility.yul\":28978:28998   */\n      sub\n        /* \"#utility.yul\":28973:28975   */\n      0x20\n        /* \"#utility.yul\":28962:28971   */\n      dup4\n        /* \"#utility.yul\":28958:28976   */\n      add\n        /* \"#utility.yul\":28951:28999   */\n      mstore\n        /* \"#utility.yul\":29016:29094   */\n      tag_812\n        /* \"#utility.yul\":29089:29093   */\n      dup2\n        /* \"#utility.yul\":29080:29086   */\n      dup12\n        /* \"#utility.yul\":29016:29094   */\n      tag_678\n      jump\t// in\n    tag_812:\n        /* \"#utility.yul\":29008:29094   */\n      swap1\n      pop\n        /* \"#utility.yul\":29104:29176   */\n      tag_813\n        /* \"#utility.yul\":29172:29174   */\n      0x40\n        /* \"#utility.yul\":29161:29170   */\n      dup4\n        /* \"#utility.yul\":29157:29175   */\n      add\n        /* \"#utility.yul\":29148:29154   */\n      dup11\n        /* \"#utility.yul\":29104:29176   */\n      tag_763\n      jump\t// in\n    tag_813:\n        /* \"#utility.yul\":29186:29258   */\n      tag_814\n        /* \"#utility.yul\":29254:29256   */\n      0x60\n        /* \"#utility.yul\":29243:29252   */\n      dup4\n        /* \"#utility.yul\":29239:29257   */\n      add\n        /* \"#utility.yul\":29230:29236   */\n      dup10\n        /* \"#utility.yul\":29186:29258   */\n      tag_763\n      jump\t// in\n    tag_814:\n        /* \"#utility.yul\":29268:29341   */\n      tag_815\n        /* \"#utility.yul\":29336:29339   */\n      0x80\n        /* \"#utility.yul\":29325:29334   */\n      dup4\n        /* \"#utility.yul\":29321:29340   */\n      add\n        /* \"#utility.yul\":29312:29318   */\n      dup9\n        /* \"#utility.yul\":29268:29341   */\n      tag_763\n      jump\t// in\n    tag_815:\n        /* \"#utility.yul\":29351:29424   */\n      tag_816\n        /* \"#utility.yul\":29419:29422   */\n      0xa0\n        /* \"#utility.yul\":29408:29417   */\n      dup4\n        /* \"#utility.yul\":29404:29423   */\n      add\n        /* \"#utility.yul\":29395:29401   */\n      dup8\n        /* \"#utility.yul\":29351:29424   */\n      tag_763\n      jump\t// in\n    tag_816:\n        /* \"#utility.yul\":29472:29481   */\n      dup2\n        /* \"#utility.yul\":29466:29470   */\n      dup2\n        /* \"#utility.yul\":29462:29482   */\n      sub\n        /* \"#utility.yul\":29456:29459   */\n      0xc0\n        /* \"#utility.yul\":29445:29454   */\n      dup4\n        /* \"#utility.yul\":29441:29460   */\n      add\n        /* \"#utility.yul\":29434:29483   */\n      mstore\n        /* \"#utility.yul\":29500:29578   */\n      tag_817\n        /* \"#utility.yul\":29573:29577   */\n      dup2\n        /* \"#utility.yul\":29564:29570   */\n      dup7\n        /* \"#utility.yul\":29500:29578   */\n      tag_678\n      jump\t// in\n    tag_817:\n        /* \"#utility.yul\":29492:29578   */\n      swap1\n      pop\n        /* \"#utility.yul\":29626:29635   */\n      dup2\n        /* \"#utility.yul\":29620:29624   */\n      dup2\n        /* \"#utility.yul\":29616:29636   */\n      sub\n        /* \"#utility.yul\":29610:29613   */\n      0xe0\n        /* \"#utility.yul\":29599:29608   */\n      dup4\n        /* \"#utility.yul\":29595:29614   */\n      add\n        /* \"#utility.yul\":29588:29637   */\n      mstore\n        /* \"#utility.yul\":29654:29732   */\n      tag_818\n        /* \"#utility.yul\":29727:29731   */\n      dup2\n        /* \"#utility.yul\":29718:29724   */\n      dup6\n        /* \"#utility.yul\":29654:29732   */\n      tag_678\n      jump\t// in\n    tag_818:\n        /* \"#utility.yul\":29646:29732   */\n      swap1\n      pop\n        /* \"#utility.yul\":29742:29815   */\n      tag_819\n        /* \"#utility.yul\":29810:29813   */\n      0x0100\n        /* \"#utility.yul\":29799:29808   */\n      dup4\n        /* \"#utility.yul\":29795:29814   */\n      add\n        /* \"#utility.yul\":29786:29792   */\n      dup5\n        /* \"#utility.yul\":29742:29815   */\n      tag_633\n      jump\t// in\n    tag_819:\n        /* \"#utility.yul\":28441:29822   */\n      swap11\n      swap10\n      pop\n      pop\n      pop\n      pop\n      pop\n      pop\n      pop\n      pop\n      pop\n      pop\n      jump\t// out\n        /* \"#utility.yul\":29828:30896   */\n    tag_64:\n        /* \"#utility.yul\":30129:30133   */\n      0x00\n        /* \"#utility.yul\":30167:30170   */\n      0xe0\n        /* \"#utility.yul\":30156:30165   */\n      dup3\n        /* \"#utility.yul\":30152:30171   */\n      add\n        /* \"#utility.yul\":30144:30171   */\n      swap1\n      pop\n        /* \"#utility.yul\":30181:30252   */\n      tag_821\n        /* \"#utility.yul\":30249:30250   */\n      0x00\n        /* \"#utility.yul\":30238:30247   */\n      dup4\n        /* \"#utility.yul\":30234:30251   */\n      add\n        /* \"#utility.yul\":30225:30231   */\n      dup11\n        /* \"#utility.yul\":30181:30252   */\n      tag_763\n      jump\t// in\n    tag_821:\n        /* \"#utility.yul\":30262:30334   */\n      tag_822\n        /* \"#utility.yul\":30330:30332   */\n      0x20\n        /* \"#utility.yul\":30319:30328   */\n      dup4\n        /* \"#utility.yul\":30315:30333   */\n      add\n        /* \"#utility.yul\":30306:30312   */\n      dup10\n        /* \"#utility.yul\":30262:30334   */\n      tag_763\n      jump\t// in\n    tag_822:\n        /* \"#utility.yul\":30381:30390   */\n      dup2\n        /* \"#utility.yul\":30375:30379   */\n      dup2\n        /* \"#utility.yul\":30371:30391   */\n      sub\n        /* \"#utility.yul\":30366:30368   */\n      0x40\n        /* \"#utility.yul\":30355:30364   */\n      dup4\n        /* \"#utility.yul\":30351:30369   */\n      add\n        /* \"#utility.yul\":30344:30392   */\n      mstore\n        /* \"#utility.yul\":30409:30487   */\n      tag_823\n        /* \"#utility.yul\":30482:30486   */\n      dup2\n        /* \"#utility.yul\":30473:30479   */\n      dup9\n        /* \"#utility.yul\":30409:30487   */\n      tag_678\n      jump\t// in\n    tag_823:\n        /* \"#utility.yul\":30401:30487   */\n      swap1\n      pop\n        /* \"#utility.yul\":30497:30569   */\n      tag_824\n        /* \"#utility.yul\":30565:30567   */\n      0x60\n        /* \"#utility.yul\":30554:30563   */\n      dup4\n        /* \"#utility.yul\":30550:30568   */\n      add\n        /* \"#utility.yul\":30541:30547   */\n      dup8\n        /* \"#utility.yul\":30497:30569   */\n      tag_633\n      jump\t// in\n    tag_824:\n        /* \"#utility.yul\":30579:30652   */\n      tag_825\n        /* \"#utility.yul\":30647:30650   */\n      0x80\n        /* \"#utility.yul\":30636:30645   */\n      dup4\n        /* \"#utility.yul\":30632:30651   */\n      add\n        /* \"#utility.yul\":30623:30629   */\n      dup7\n        /* \"#utility.yul\":30579:30652   */\n      tag_763\n      jump\t// in\n    tag_825:\n        /* \"#utility.yul\":30662:30735   */\n      tag_826\n        /* \"#utility.yul\":30730:30733   */\n      0xa0\n        /* \"#utility.yul\":30719:30728   */\n      dup4\n        /* \"#utility.yul\":30715:30734   */\n      add\n        /* \"#utility.yul\":30706:30712   */\n      dup6\n        /* \"#utility.yul\":30662:30735   */\n      tag_763\n      jump\t// in\n    tag_826:\n        /* \"#utility.yul\":30783:30792   */\n      dup2\n        /* \"#utility.yul\":30777:30781   */\n      dup2\n        /* \"#utility.yul\":30773:30793   */\n      sub\n        /* \"#utility.yul\":30767:30770   */\n      0xc0\n        /* \"#utility.yul\":30756:30765   */\n      dup4\n        /* \"#utility.yul\":30752:30771   */\n      add\n        /* \"#utility.yul\":30745:30794   */\n      mstore\n        /* \"#utility.yul\":30811:30889   */\n      tag_827\n        /* \"#utility.yul\":30884:30888   */\n      dup2\n        /* \"#utility.yul\":30875:30881   */\n      dup5\n        /* \"#utility.yul\":30811:30889   */\n      tag_678\n      jump\t// in\n    tag_827:\n        /* \"#utility.yul\":30803:30889   */\n      swap1\n      pop\n        /* \"#utility.yul\":29828:30896   */\n      swap9\n      swap8\n      pop\n      pop\n      pop\n      pop\n      pop\n      pop\n      pop\n      pop\n      jump\t// out\n        /* \"#utility.yul\":30902:31344   */\n    tag_46:\n        /* \"#utility.yul\":31051:31055   */\n      0x00\n        /* \"#utility.yul\":31089:31091   */\n      0x60\n        /* \"#utility.yul\":31078:31087   */\n      dup3\n        /* \"#utility.yul\":31074:31092   */\n      add\n        /* \"#utility.yul\":31066:31092   */\n      swap1\n      pop\n        /* \"#utility.yul\":31102:31173   */\n      tag_829\n        /* \"#utility.yul\":31170:31171   */\n      0x00\n        /* \"#utility.yul\":31159:31168   */\n      dup4\n        /* \"#utility.yul\":31155:31172   */\n      add\n        /* \"#utility.yul\":31146:31152   */\n      dup7\n        /* \"#utility.yul\":31102:31173   */\n      tag_763\n      jump\t// in\n    tag_829:\n        /* \"#utility.yul\":31183:31255   */\n      tag_830\n        /* \"#utility.yul\":31251:31253   */\n      0x20\n        /* \"#utility.yul\":31240:31249   */\n      dup4\n        /* \"#utility.yul\":31236:31254   */\n      add\n        /* \"#utility.yul\":31227:31233   */\n      dup6\n        /* \"#utility.yul\":31183:31255   */\n      tag_763\n      jump\t// in\n    tag_830:\n        /* \"#utility.yul\":31265:31337   */\n      tag_831\n        /* \"#utility.yul\":31333:31335   */\n      0x40\n        /* \"#utility.yul\":31322:31331   */\n      dup4\n        /* \"#utility.yul\":31318:31336   */\n      add\n        /* \"#utility.yul\":31309:31315   */\n      dup5\n        /* \"#utility.yul\":31265:31337   */\n      tag_763\n      jump\t// in\n    tag_831:\n        /* \"#utility.yul\":30902:31344   */\n      swap5\n      swap4\n      pop\n      pop\n      pop\n      pop\n      jump\t// out\n        /* \"#utility.yul\":31350:31479   */\n    tag_523:\n        /* \"#utility.yul\":31384:31390   */\n      0x00\n        /* \"#utility.yul\":31411:31431   */\n      tag_833\n      tag_834\n      jump\t// in\n    tag_833:\n        /* \"#utility.yul\":31401:31431   */\n      swap1\n      pop\n        /* \"#utility.yul\":31440:31473   */\n      tag_835\n        /* \"#utility.yul\":31468:31472   */\n      dup3\n        /* \"#utility.yul\":31460:31466   */\n      dup3\n        /* \"#utility.yul\":31440:31473   */\n      tag_836\n      jump\t// in\n    tag_835:\n        /* \"#utility.yul\":31350:31479   */\n      swap2\n      swap1\n      pop\n      jump\t// out\n        /* \"#utility.yul\":31485:31560   */\n    tag_834:\n        /* \"#utility.yul\":31518:31524   */\n      0x00\n        /* \"#utility.yul\":31551:31553   */\n      0x40\n        /* \"#utility.yul\":31545:31554   */\n      mload\n        /* \"#utility.yul\":31535:31554   */\n      swap1\n      pop\n        /* \"#utility.yul\":31485:31560   */\n      swap1\n      jump\t// out\n        /* \"#utility.yul\":31566:31874   */\n    tag_522:\n        /* \"#utility.yul\":31628:31632   */\n      0x00\n        /* \"#utility.yul\":31718:31736   */\n      0xffffffffffffffff\n        /* \"#utility.yul\":31710:31716   */\n      dup3\n        /* \"#utility.yul\":31707:31737   */\n      gt\n        /* \"#utility.yul\":31704:31760   */\n      iszero\n      tag_839\n      jumpi\n        /* \"#utility.yul\":31740:31758   */\n      tag_840\n      tag_317\n      jump\t// in\n    tag_840:\n        /* \"#utility.yul\":31704:31760   */\n    tag_839:\n        /* \"#utility.yul\":31778:31807   */\n      tag_841\n        /* \"#utility.yul\":31800:31806   */\n      dup3\n        /* \"#utility.yul\":31778:31807   */\n      tag_677\n      jump\t// in\n    tag_841:\n        /* \"#utility.yul\":31770:31807   */\n      swap1\n      pop\n        /* \"#utility.yul\":31862:31866   */\n      0x20\n        /* \"#utility.yul\":31856:31860   */\n      dup2\n        /* \"#utility.yul\":31852:31867   */\n      add\n        /* \"#utility.yul\":31844:31867   */\n      swap1\n      pop\n        /* \"#utility.yul\":31566:31874   */\n      swap2\n      swap1\n      pop\n      jump\t// out\n        /* \"#utility.yul\":31880:32036   */\n    tag_643:\n        /* \"#utility.yul\":31971:31975   */\n      0x00\n        /* \"#utility.yul\":31994:31997   */\n      dup2\n        /* \"#utility.yul\":31986:31997   */\n      swap1\n      pop\n        /* \"#utility.yul\":32024:32028   */\n      0x20\n        /* \"#utility.yul\":32019:32022   */\n      dup3\n        /* \"#utility.yul\":32015:32029   */\n      add\n        /* \"#utility.yul\":32007:32029   */\n      swap1\n      pop\n        /* \"#utility.yul\":31880:32036   */\n      swap2\n      swap1\n      pop\n      jump\t// out\n        /* \"#utility.yul\":32042:32198   */\n    tag_657:\n        /* \"#utility.yul\":32133:32137   */\n      0x00\n        /* \"#utility.yul\":32156:32159   */\n      dup2\n        /* \"#utility.yul\":32148:32159   */\n      swap1\n      pop\n        /* \"#utility.yul\":32186:32190   */\n      0x20\n        /* \"#utility.yul\":32181:32184   */\n      dup3\n        /* \"#utility.yul\":32177:32191   */\n      add\n        /* \"#utility.yul\":32169:32191   */\n      swap1\n      pop\n        /* \"#utility.yul\":32042:32198   */\n      swap2\n      swap1\n      pop\n      jump\t// out\n        /* \"#utility.yul\":32204:32342   */\n    tag_639:\n        /* \"#utility.yul\":32295:32301   */\n      0x00\n        /* \"#utility.yul\":32329:32334   */\n      dup2\n        /* \"#utility.yul\":32323:32335   */\n      mload\n        /* \"#utility.yul\":32313:32335   */\n      swap1\n      pop\n        /* \"#utility.yul\":32204:32342   */\n      swap2\n      swap1\n      pop\n      jump\t// out\n        /* \"#utility.yul\":32348:32486   */\n    tag_653:\n        /* \"#utility.yul\":32439:32445   */\n      0x00\n        /* \"#utility.yul\":32473:32478   */\n      dup2\n        /* \"#utility.yul\":32467:32479   */\n      mload\n        /* \"#utility.yul\":32457:32479   */\n      swap1\n      pop\n        /* \"#utility.yul\":32348:32486   */\n      swap2\n      swap1\n      pop\n      jump\t// out\n        /* \"#utility.yul\":32492:32591   */\n    tag_671:\n        /* \"#utility.yul\":32544:32550   */\n      0x00\n        /* \"#utility.yul\":32578:32583   */\n      dup2\n        /* \"#utility.yul\":32572:32584   */\n      mload\n        /* \"#utility.yul\":32562:32584   */\n      swap1\n      pop\n        /* \"#utility.yul\":32492:32591   */\n      swap2\n      swap1\n      pop\n      jump\t// out\n        /* \"#utility.yul\":32597:32734   */\n    tag_649:\n        /* \"#utility.yul\":32691:32695   */\n      0x00\n        /* \"#utility.yul\":32723:32727   */\n      0x20\n        /* \"#utility.yul\":32718:32721   */\n      dup3\n        /* \"#utility.yul\":32714:32728   */\n      add\n        /* \"#utility.yul\":32706:32728   */\n      swap1\n      pop\n        /* \"#utility.yul\":32597:32734   */\n      swap2\n      swap1\n      pop\n      jump\t// out\n        /* \"#utility.yul\":32740:32877   */\n    tag_663:\n        /* \"#utility.yul\":32834:32838   */\n      0x00\n        /* \"#utility.yul\":32866:32870   */\n      0x20\n        /* \"#utility.yul\":32861:32864   */\n      dup3\n        /* \"#utility.yul\":32857:32871   */\n      add\n        /* \"#utility.yul\":32849:32871   */\n      swap1\n      pop\n        /* \"#utility.yul\":32740:32877   */\n      swap2\n      swap1\n      pop\n      jump\t// out\n        /* \"#utility.yul\":32883:33091   */\n    tag_641:\n        /* \"#utility.yul\":33006:33017   */\n      0x00\n        /* \"#utility.yul\":33040:33046   */\n      dup3\n        /* \"#utility.yul\":33035:33038   */\n      dup3\n        /* \"#utility.yul\":33028:33047   */\n      mstore\n        /* \"#utility.yul\":33080:33084   */\n      0x20\n        /* \"#utility.yul\":33075:33078   */\n      dup3\n        /* \"#utility.yul\":33071:33085   */\n      add\n        /* \"#utility.yul\":33056:33085   */\n      swap1\n      pop\n        /* \"#utility.yul\":32883:33091   */\n      swap3\n      swap2\n      pop\n      pop\n      jump\t// out\n        /* \"#utility.yul\":33097:33305   */\n    tag_655:\n        /* \"#utility.yul\":33220:33231   */\n      0x00\n        /* \"#utility.yul\":33254:33260   */\n      dup3\n        /* \"#utility.yul\":33249:33252   */\n      dup3\n        /* \"#utility.yul\":33242:33261   */\n      mstore\n        /* \"#utility.yul\":33294:33298   */\n      0x20\n        /* \"#utility.yul\":33289:33292   */\n      dup3\n        /* \"#utility.yul\":33285:33299   */\n      add\n        /* \"#utility.yul\":33270:33299   */\n      swap1\n      pop\n        /* \"#utility.yul\":33097:33305   */\n      swap3\n      swap2\n      pop\n      pop\n      jump\t// out\n        /* \"#utility.yul\":33311:33470   */\n    tag_673:\n        /* \"#utility.yul\":33385:33396   */\n      0x00\n        /* \"#utility.yul\":33419:33425   */\n      dup3\n        /* \"#utility.yul\":33414:33417   */\n      dup3\n        /* \"#utility.yul\":33407:33426   */\n      mstore\n        /* \"#utility.yul\":33459:33463   */\n      0x20\n        /* \"#utility.yul\":33454:33457   */\n      dup3\n        /* \"#utility.yul\":33450:33464   */\n      add\n        /* \"#utility.yul\":33435:33464   */\n      swap1\n      pop\n        /* \"#utility.yul\":33311:33470   */\n      swap3\n      swap2\n      pop\n      pop\n      jump\t// out\n        /* \"#utility.yul\":33476:33645   */\n    tag_682:\n        /* \"#utility.yul\":33560:33571   */\n      0x00\n        /* \"#utility.yul\":33594:33600   */\n      dup3\n        /* \"#utility.yul\":33589:33592   */\n      dup3\n        /* \"#utility.yul\":33582:33601   */\n      mstore\n        /* \"#utility.yul\":33634:33638   */\n      0x20\n        /* \"#utility.yul\":33629:33632   */\n      dup3\n        /* \"#utility.yul\":33625:33639   */\n      add\n        /* \"#utility.yul\":33610:33639   */\n      swap1\n      pop\n        /* \"#utility.yul\":33476:33645   */\n      swap3\n      swap2\n      pop\n      pop\n      jump\t// out\n        /* \"#utility.yul\":33651:33799   */\n    tag_689:\n        /* \"#utility.yul\":33753:33764   */\n      0x00\n        /* \"#utility.yul\":33790:33793   */\n      dup2\n        /* \"#utility.yul\":33775:33793   */\n      swap1\n      pop\n        /* \"#utility.yul\":33651:33799   */\n      swap3\n      swap2\n      pop\n      pop\n      jump\t// out\n        /* \"#utility.yul\":33805:34110   */\n    tag_226:\n        /* \"#utility.yul\":33845:33848   */\n      0x00\n        /* \"#utility.yul\":33864:33884   */\n      tag_855\n        /* \"#utility.yul\":33882:33883   */\n      dup3\n        /* \"#utility.yul\":33864:33884   */\n      tag_762\n      jump\t// in\n    tag_855:\n        /* \"#utility.yul\":33859:33884   */\n      swap2\n      pop\n        /* \"#utility.yul\":33898:33918   */\n      tag_856\n        /* \"#utility.yul\":33916:33917   */\n      dup4\n        /* \"#utility.yul\":33898:33918   */\n      tag_762\n      jump\t// in\n    tag_856:\n        /* \"#utility.yul\":33893:33918   */\n      swap3\n      pop\n        /* \"#utility.yul\":34052:34053   */\n      dup3\n        /* \"#utility.yul\":33984:34050   */\n      0xffffffffffffffffffffffffffffffffffffffffffffffffffffffffffffffff\n        /* \"#utility.yul\":33980:34054   */\n      sub\n        /* \"#utility.yul\":33977:33978   */\n      dup3\n        /* \"#utility.yul\":33974:34055   */\n      gt\n        /* \"#utility.yul\":33971:34078   */\n      iszero\n      tag_857\n      jumpi\n        /* \"#utility.yul\":34058:34076   */\n      tag_858\n      tag_859\n      jump\t// in\n    tag_858:\n        /* \"#utility.yul\":33971:34078   */\n    tag_857:\n        /* \"#utility.yul\":34102:34103   */\n      dup3\n        /* \"#utility.yul\":34099:34100   */\n      dup3\n        /* \"#utility.yul\":34095:34104   */\n      add\n        /* \"#utility.yul\":34088:34104   */\n      swap1\n      pop\n        /* \"#utility.yul\":33805:34110   */\n      swap3\n      swap2\n      pop\n      pop\n      jump\t// out\n        /* \"#utility.yul\":34116:34301   */\n    tag_289:\n        /* \"#utility.yul\":34156:34157   */\n      0x00\n        /* \"#utility.yul\":34173:34193   */\n      tag_861\n        /* \"#utility.yul\":34191:34192   */\n      dup3\n        /* \"#utility.yul\":34173:34193   */\n      tag_762\n      jump\t// in\n    tag_861:\n        /* \"#utility.yul\":34168:34193   */\n      swap2\n      pop\n        /* \"#utility.yul\":34207:34227   */\n      tag_862\n        /* \"#utility.yul\":34225:34226   */\n      dup4\n        /* \"#utility.yul\":34207:34227   */\n      tag_762\n      jump\t// in\n    tag_862:\n        /* \"#utility.yul\":34202:34227   */\n      swap3\n      pop\n        /* \"#utility.yul\":34246:34247   */\n      dup3\n        /* \"#utility.yul\":34236:34271   */\n      tag_863\n      jumpi\n        /* \"#utility.yul\":34251:34269   */\n      tag_864\n      tag_481\n      jump\t// in\n    tag_864:\n        /* \"#utility.yul\":34236:34271   */\n    tag_863:\n        /* \"#utility.yul\":34293:34294   */\n      dup3\n        /* \"#utility.yul\":34290:34291   */\n      dup3\n        /* \"#utility.yul\":34286:34295   */\n      div\n        /* \"#utility.yul\":34281:34295   */\n      swap1\n      pop\n        /* \"#utility.yul\":34116:34301   */\n      swap3\n      swap2\n      pop\n      pop\n      jump\t// out\n        /* \"#utility.yul\":34307:34655   */\n    tag_230:\n        /* \"#utility.yul\":34347:34354   */\n      0x00\n        /* \"#utility.yul\":34370:34390   */\n      tag_866\n        /* \"#utility.yul\":34388:34389   */\n      dup3\n        /* \"#utility.yul\":34370:34390   */\n      tag_762\n      jump\t// in\n    tag_866:\n        /* \"#utility.yul\":34365:34390   */\n      swap2\n      pop\n        /* \"#utility.yul\":34404:34424   */\n      tag_867\n        /* \"#utility.yul\":34422:34423   */\n      dup4\n        /* \"#utility.yul\":34404:34424   */\n      tag_762\n      jump\t// in\n    tag_867:\n        /* \"#utility.yul\":34399:34424   */\n      swap3\n      pop\n        /* \"#utility.yul\":34592:34593   */\n      dup2\n        /* \"#utility.yul\":34524:34590   */\n      0xffffffffffffffffffffffffffffffffffffffffffffffffffffffffffffffff\n        /* \"#utility.yul\":34520:34594   */\n      div\n        /* \"#utility.yul\":34517:34518   */\n      dup4\n        /* \"#utility.yul\":34514:34595   */\n      gt\n        /* \"#utility.yul\":34509:34510   */\n      dup3\n        /* \"#utility.yul\":34502:34511   */\n      iszero\n        /* \"#utility.yul\":34495:34512   */\n      iszero\n        /* \"#utility.yul\":34491:34596   */\n      and\n        /* \"#utility.yul\":34488:34619   */\n      iszero\n      tag_868\n      jumpi\n        /* \"#utility.yul\":34599:34617   */\n      tag_869\n      tag_859\n      jump\t// in\n    tag_869:\n        /* \"#utility.yul\":34488:34619   */\n    tag_868:\n        /* \"#utility.yul\":34647:34648   */\n      dup3\n        /* \"#utility.yul\":34644:34645   */\n      dup3\n        /* \"#utility.yul\":34640:34649   */\n      mul\n        /* \"#utility.yul\":34629:34649   */\n      swap1\n      pop\n        /* \"#utility.yul\":34307:34655   */\n      swap3\n      swap2\n      pop\n      pop\n      jump\t// out\n        /* \"#utility.yul\":34661:34852   */\n    tag_245:\n        /* \"#utility.yul\":34701:34705   */\n      0x00\n        /* \"#utility.yul\":34721:34741   */\n      tag_871\n        /* \"#utility.yul\":34739:34740   */\n      dup3\n        /* \"#utility.yul\":34721:34741   */\n      tag_762\n      jump\t// in\n    tag_871:\n        /* \"#utility.yul\":34716:34741   */\n      swap2\n      pop\n        /* \"#utility.yul\":34755:34775   */\n      tag_872\n        /* \"#utility.yul\":34773:34774   */\n      dup4\n        /* \"#utility.yul\":34755:34775   */\n      tag_762\n      jump\t// in\n    tag_872:\n        /* \"#utility.yul\":34750:34775   */\n      swap3\n      pop\n        /* \"#utility.yul\":34794:34795   */\n      dup3\n        /* \"#utility.yul\":34791:34792   */\n      dup3\n        /* \"#utility.yul\":34788:34796   */\n      lt\n        /* \"#utility.yul\":34785:34819   */\n      iszero\n      tag_873\n      jumpi\n        /* \"#utility.yul\":34799:34817   */\n      tag_874\n      tag_859\n      jump\t// in\n    tag_874:\n        /* \"#utility.yul\":34785:34819   */\n    tag_873:\n        /* \"#utility.yul\":34844:34845   */\n      dup3\n        /* \"#utility.yul\":34841:34842   */\n      dup3\n        /* \"#utility.yul\":34837:34846   */\n      sub\n        /* \"#utility.yul\":34829:34846   */\n      swap1\n      pop\n        /* \"#utility.yul\":34661:34852   */\n      swap3\n      swap2\n      pop\n      pop\n      jump\t// out\n        /* \"#utility.yul\":34858:34954   */\n    tag_632:\n        /* \"#utility.yul\":34895:34902   */\n      0x00\n        /* \"#utility.yul\":34924:34948   */\n      tag_876\n        /* \"#utility.yul\":34942:34947   */\n      dup3\n        /* \"#utility.yul\":34924:34948   */\n      tag_877\n      jump\t// in\n    tag_876:\n        /* \"#utility.yul\":34913:34948   */\n      swap1\n      pop\n        /* \"#utility.yul\":34858:34954   */\n      swap2\n      swap1\n      pop\n      jump\t// out\n        /* \"#utility.yul\":34960:35050   */\n    tag_667:\n        /* \"#utility.yul\":34994:35001   */\n      0x00\n        /* \"#utility.yul\":35037:35042   */\n      dup2\n        /* \"#utility.yul\":35030:35043   */\n      iszero\n        /* \"#utility.yul\":35023:35044   */\n      iszero\n        /* \"#utility.yul\":35012:35044   */\n      swap1\n      pop\n        /* \"#utility.yul\":34960:35050   */\n      swap2\n      swap1\n      pop\n      jump\t// out\n        /* \"#utility.yul\":35056:35182   */\n    tag_877:\n        /* \"#utility.yul\":35093:35100   */\n      0x00\n        /* \"#utility.yul\":35133:35175   */\n      0xffffffffffffffffffffffffffffffffffffffff\n        /* \"#utility.yul\":35126:35131   */\n      dup3\n        /* \"#utility.yul\":35122:35176   */\n      and\n        /* \"#utility.yul\":35111:35176   */\n      swap1\n      pop\n        /* \"#utility.yul\":35056:35182   */\n      swap2\n      swap1\n      pop\n      jump\t// out\n        /* \"#utility.yul\":35188:35265   */\n    tag_762:\n        /* \"#utility.yul\":35225:35232   */\n      0x00\n        /* \"#utility.yul\":35254:35259   */\n      dup2\n        /* \"#utility.yul\":35243:35259   */\n      swap1\n      pop\n        /* \"#utility.yul\":35188:35265   */\n      swap2\n      swap1\n      pop\n      jump\t// out\n        /* \"#utility.yul\":35271:35425   */\n    tag_528:\n        /* \"#utility.yul\":35355:35361   */\n      dup3\n        /* \"#utility.yul\":35350:35353   */\n      dup2\n        /* \"#utility.yul\":35345:35348   */\n      dup4\n        /* \"#utility.yul\":35332:35362   */\n      calldatacopy\n        /* \"#utility.yul\":35417:35418   */\n      0x00\n        /* \"#utility.yul\":35408:35414   */\n      dup4\n        /* \"#utility.yul\":35403:35406   */\n      dup4\n        /* \"#utility.yul\":35399:35415   */\n      add\n        /* \"#utility.yul\":35392:35419   */\n      mstore\n        /* \"#utility.yul\":35271:35425   */\n      pop\n      pop\n      pop\n      jump\t// out\n        /* \"#utility.yul\":35431:35738   */\n    tag_675:\n        /* \"#utility.yul\":35499:35500   */\n      0x00\n        /* \"#utility.yul\":35509:35622   */\n    tag_883:\n        /* \"#utility.yul\":35523:35529   */\n      dup4\n        /* \"#utility.yul\":35520:35521   */\n      dup2\n        /* \"#utility.yul\":35517:35530   */\n      lt\n        /* \"#utility.yul\":35509:35622   */\n      iszero\n      tag_885\n      jumpi\n        /* \"#utility.yul\":35608:35609   */\n      dup1\n        /* \"#utility.yul\":35603:35606   */\n      dup3\n        /* \"#utility.yul\":35599:35610   */\n      add\n        /* \"#utility.yul\":35593:35611   */\n      mload\n        /* \"#utility.yul\":35589:35590   */\n      dup2\n        /* \"#utility.yul\":35584:35587   */\n      dup5\n        /* \"#utility.yul\":35580:35591   */\n      add\n        /* \"#utility.yul\":35573:35612   */\n      mstore\n        /* \"#utility.yul\":35545:35547   */\n      0x20\n        /* \"#utility.yul\":35542:35543   */\n      dup2\n        /* \"#utility.yul\":35538:35548   */\n      add\n        /* \"#utility.yul\":35533:35548   */\n      swap1\n      pop\n        /* \"#utility.yul\":35509:35622   */\n      jump(tag_883)\n    tag_885:\n        /* \"#utility.yul\":35640:35646   */\n      dup4\n        /* \"#utility.yul\":35637:35638   */\n      dup2\n        /* \"#utility.yul\":35634:35647   */\n      gt\n        /* \"#utility.yul\":35631:35732   */\n      iszero\n      tag_886\n      jumpi\n        /* \"#utility.yul\":35720:35721   */\n      0x00\n        /* \"#utility.yul\":35711:35717   */\n      dup5\n        /* \"#utility.yul\":35706:35709   */\n      dup5\n        /* \"#utility.yul\":35702:35718   */\n      add\n        /* \"#utility.yul\":35695:35722   */\n      mstore\n        /* \"#utility.yul\":35631:35732   */\n    tag_886:\n        /* \"#utility.yul\":35480:35738   */\n      pop\n        /* \"#utility.yul\":35431:35738   */\n      pop\n      pop\n      pop\n      jump\t// out\n        /* \"#utility.yul\":35744:36064   */\n    tag_212:\n        /* \"#utility.yul\":35788:35794   */\n      0x00\n        /* \"#utility.yul\":35825:35826   */\n      0x02\n        /* \"#utility.yul\":35819:35823   */\n      dup3\n        /* \"#utility.yul\":35815:35827   */\n      div\n        /* \"#utility.yul\":35805:35827   */\n      swap1\n      pop\n        /* \"#utility.yul\":35872:35873   */\n      0x01\n        /* \"#utility.yul\":35866:35870   */\n      dup3\n        /* \"#utility.yul\":35862:35874   */\n      and\n        /* \"#utility.yul\":35893:35911   */\n      dup1\n        /* \"#utility.yul\":35883:35964   */\n      tag_888\n      jumpi\n        /* \"#utility.yul\":35949:35953   */\n      0x7f\n        /* \"#utility.yul\":35941:35947   */\n      dup3\n        /* \"#utility.yul\":35937:35954   */\n      and\n        /* \"#utility.yul\":35927:35954   */\n      swap2\n      pop\n        /* \"#utility.yul\":35883:35964   */\n    tag_888:\n        /* \"#utility.yul\":36011:36013   */\n      0x20\n        /* \"#utility.yul\":36003:36009   */\n      dup3\n        /* \"#utility.yul\":36000:36014   */\n      lt\n        /* \"#utility.yul\":35980:35998   */\n      dup2\n        /* \"#utility.yul\":35977:36015   */\n      eq\n        /* \"#utility.yul\":35974:36058   */\n      iszero\n      tag_889\n      jumpi\n        /* \"#utility.yul\":36030:36048   */\n      tag_890\n      tag_891\n      jump\t// in\n    tag_890:\n        /* \"#utility.yul\":35974:36058   */\n    tag_889:\n        /* \"#utility.yul\":35795:36064   */\n      pop\n        /* \"#utility.yul\":35744:36064   */\n      swap2\n      swap1\n      pop\n      jump\t// out\n        /* \"#utility.yul\":36070:36351   */\n    tag_836:\n        /* \"#utility.yul\":36153:36180   */\n      tag_893\n        /* \"#utility.yul\":36175:36179   */\n      dup3\n        /* \"#utility.yul\":36153:36180   */\n      tag_677\n      jump\t// in\n    tag_893:\n        /* \"#utility.yul\":36145:36151   */\n      dup2\n        /* \"#utility.yul\":36141:36181   */\n      add\n        /* \"#utility.yul\":36283:36289   */\n      dup2\n        /* \"#utility.yul\":36271:36281   */\n      dup2\n        /* \"#utility.yul\":36268:36290   */\n      lt\n        /* \"#utility.yul\":36247:36265   */\n      0xffffffffffffffff\n        /* \"#utility.yul\":36235:36245   */\n      dup3\n        /* \"#utility.yul\":36232:36266   */\n      gt\n        /* \"#utility.yul\":36229:36291   */\n      or\n        /* \"#utility.yul\":36226:36314   */\n      iszero\n      tag_894\n      jumpi\n        /* \"#utility.yul\":36294:36312   */\n      tag_895\n      tag_317\n      jump\t// in\n    tag_895:\n        /* \"#utility.yul\":36226:36314   */\n    tag_894:\n        /* \"#utility.yul\":36334:36344   */\n      dup1\n        /* \"#utility.yul\":36330:36332   */\n      0x40\n        /* \"#utility.yul\":36323:36345   */\n      mstore\n        /* \"#utility.yul\":36113:36351   */\n      pop\n        /* \"#utility.yul\":36070:36351   */\n      pop\n      pop\n      jump\t// out\n        /* \"#utility.yul\":36357:36590   */\n    tag_341:\n        /* \"#utility.yul\":36396:36399   */\n      0x00\n        /* \"#utility.yul\":36419:36443   */\n      tag_897\n        /* \"#utility.yul\":36437:36442   */\n      dup3\n        /* \"#utility.yul\":36419:36443   */\n      tag_762\n      jump\t// in\n    tag_897:\n        /* \"#utility.yul\":36410:36443   */\n      swap2\n      pop\n        /* \"#utility.yul\":36465:36531   */\n      0xffffffffffffffffffffffffffffffffffffffffffffffffffffffffffffffff\n        /* \"#utility.yul\":36458:36463   */\n      dup3\n        /* \"#utility.yul\":36455:36532   */\n      eq\n        /* \"#utility.yul\":36452:36555   */\n      iszero\n      tag_898\n      jumpi\n        /* \"#utility.yul\":36535:36553   */\n      tag_899\n      tag_859\n      jump\t// in\n    tag_899:\n        /* \"#utility.yul\":36452:36555   */\n    tag_898:\n        /* \"#utility.yul\":36582:36583   */\n      0x01\n        /* \"#utility.yul\":36575:36580   */\n      dup3\n        /* \"#utility.yul\":36571:36584   */\n      add\n        /* \"#utility.yul\":36564:36584   */\n      swap1\n      pop\n        /* \"#utility.yul\":36357:36590   */\n      swap2\n      swap1\n      pop\n      jump\t// out\n        /* \"#utility.yul\":36596:36772   */\n    tag_298:\n        /* \"#utility.yul\":36628:36629   */\n      0x00\n        /* \"#utility.yul\":36645:36665   */\n      tag_901\n        /* \"#utility.yul\":36663:36664   */\n      dup3\n        /* \"#utility.yul\":36645:36665   */\n      tag_762\n      jump\t// in\n    tag_901:\n        /* \"#utility.yul\":36640:36665   */\n      swap2\n      pop\n        /* \"#utility.yul\":36679:36699   */\n      tag_902\n        /* \"#utility.yul\":36697:36698   */\n      dup4\n        /* \"#utility.yul\":36679:36699   */\n      tag_762\n      jump\t// in\n    tag_902:\n        /* \"#utility.yul\":36674:36699   */\n      swap3\n      pop\n        /* \"#utility.yul\":36718:36719   */\n      dup3\n        /* \"#utility.yul\":36708:36743   */\n      tag_903\n      jumpi\n        /* \"#utility.yul\":36723:36741   */\n      tag_904\n      tag_481\n      jump\t// in\n    tag_904:\n        /* \"#utility.yul\":36708:36743   */\n    tag_903:\n        /* \"#utility.yul\":36764:36765   */\n      dup3\n        /* \"#utility.yul\":36761:36762   */\n      dup3\n        /* \"#utility.yul\":36757:36766   */\n      mod\n        /* \"#utility.yul\":36752:36766   */\n      swap1\n      pop\n        /* \"#utility.yul\":36596:36772   */\n      swap3\n      swap2\n      pop\n      pop\n      jump\t// out\n        /* \"#utility.yul\":36778:36958   */\n    tag_859:\n        /* \"#utility.yul\":36826:36903   */\n      0x4e487b7100000000000000000000000000000000000000000000000000000000\n        /* \"#utility.yul\":36823:36824   */\n      0x00\n        /* \"#utility.yul\":36816:36904   */\n      mstore\n        /* \"#utility.yul\":36923:36927   */\n      0x11\n        /* \"#utility.yul\":36920:36921   */\n      0x04\n        /* \"#utility.yul\":36913:36928   */\n      mstore\n        /* \"#utility.yul\":36947:36951   */\n      0x24\n        /* \"#utility.yul\":36944:36945   */\n      0x00\n        /* \"#utility.yul\":36937:36952   */\n      revert\n        /* \"#utility.yul\":36964:37144   */\n    tag_481:\n        /* \"#utility.yul\":37012:37089   */\n      0x4e487b7100000000000000000000000000000000000000000000000000000000\n        /* \"#utility.yul\":37009:37010   */\n      0x00\n        /* \"#utility.yul\":37002:37090   */\n      mstore\n        /* \"#utility.yul\":37109:37113   */\n      0x12\n        /* \"#utility.yul\":37106:37107   */\n      0x04\n        /* \"#utility.yul\":37099:37114   */\n      mstore\n        /* \"#utility.yul\":37133:37137   */\n      0x24\n        /* \"#utility.yul\":37130:37131   */\n      0x00\n        /* \"#utility.yul\":37123:37138   */\n      revert\n        /* \"#utility.yul\":37150:37330   */\n    tag_891:\n        /* \"#utility.yul\":37198:37275   */\n      0x4e487b7100000000000000000000000000000000000000000000000000000000\n        /* \"#utility.yul\":37195:37196   */\n      0x00\n        /* \"#utility.yul\":37188:37276   */\n      mstore\n        /* \"#utility.yul\":37295:37299   */\n      0x22\n        /* \"#utility.yul\":37292:37293   */\n      0x04\n        /* \"#utility.yul\":37285:37300   */\n      mstore\n        /* \"#utility.yul\":37319:37323   */\n      0x24\n        /* \"#utility.yul\":37316:37317   */\n      0x00\n        /* \"#utility.yul\":37309:37324   */\n      revert\n        /* \"#utility.yul\":37336:37516   */\n    tag_339:\n        /* \"#utility.yul\":37384:37461   */\n      0x4e487b7100000000000000000000000000000000000000000000000000000000\n        /* \"#utility.yul\":37381:37382   */\n      0x00\n        /* \"#utility.yul\":37374:37462   */\n      mstore\n        /* \"#utility.yul\":37481:37485   */\n      0x32\n        /* \"#utility.yul\":37478:37479   */\n      0x04\n        /* \"#utility.yul\":37471:37486   */\n      mstore\n        /* \"#utility.yul\":37505:37509   */\n      0x24\n        /* \"#utility.yul\":37502:37503   */\n      0x00\n        /* \"#utility.yul\":37495:37510   */\n      revert\n        /* \"#utility.yul\":37522:37702   */\n    tag_317:\n        /* \"#utility.yul\":37570:37647   */\n      0x4e487b7100000000000000000000000000000000000000000000000000000000\n        /* \"#utility.yul\":37567:37568   */\n      0x00\n        /* \"#utility.yul\":37560:37648   */\n      mstore\n        /* \"#utility.yul\":37667:37671   */\n      0x41\n        /* \"#utility.yul\":37664:37665   */\n      0x04\n        /* \"#utility.yul\":37657:37672   */\n      mstore\n        /* \"#utility.yul\":37691:37695   */\n      0x24\n        /* \"#utility.yul\":37688:37689   */\n      0x00\n        /* \"#utility.yul\":37681:37696   */\n      revert\n        /* \"#utility.yul\":37708:37825   */\n    tag_537:\n        /* \"#utility.yul\":37817:37818   */\n      0x00\n        /* \"#utility.yul\":37814:37815   */\n      dup1\n        /* \"#utility.yul\":37807:37819   */\n      revert\n        /* \"#utility.yul\":37831:37948   */\n    tag_526:\n        /* \"#utility.yul\":37940:37941   */\n      0x00\n        /* \"#utility.yul\":37937:37938   */\n      dup1\n        /* \"#utility.yul\":37930:37942   */\n      revert\n        /* \"#utility.yul\":37954:38071   */\n    tag_570:\n        /* \"#utility.yul\":38063:38064   */\n      0x00\n        /* \"#utility.yul\":38060:38061   */\n      dup1\n        /* \"#utility.yul\":38053:38065   */\n      revert\n        /* \"#utility.yul\":38077:38194   */\n    tag_546:\n        /* \"#utility.yul\":38186:38187   */\n      0x00\n        /* \"#utility.yul\":38183:38184   */\n      dup1\n        /* \"#utility.yul\":38176:38188   */\n      revert\n        /* \"#utility.yul\":38200:38302   */\n    tag_677:\n        /* \"#utility.yul\":38241:38247   */\n      0x00\n        /* \"#utility.yul\":38292:38294   */\n      0x1f\n        /* \"#utility.yul\":38288:38295   */\n      not\n        /* \"#utility.yul\":38283:38285   */\n      0x1f\n        /* \"#utility.yul\":38276:38281   */\n      dup4\n        /* \"#utility.yul\":38272:38286   */\n      add\n        /* \"#utility.yul\":38268:38296   */\n      and\n        /* \"#utility.yul\":38258:38296   */\n      swap1\n      pop\n        /* \"#utility.yul\":38200:38302   */\n      swap2\n      swap1\n      pop\n      jump\t// out\n        /* \"#utility.yul\":38308:38477   */\n    tag_695:\n        /* \"#utility.yul\":38448:38469   */\n      0x506c65617365205369676e557020466972737400000000000000000000000000\n        /* \"#utility.yul\":38444:38445   */\n      0x00\n        /* \"#utility.yul\":38436:38442   */\n      dup3\n        /* \"#utility.yul\":38432:38446   */\n      add\n        /* \"#utility.yul\":38425:38470   */\n      mstore\n        /* \"#utility.yul\":38308:38477   */\n      pop\n      jump\t// out\n        /* \"#utility.yul\":38483:38650   */\n    tag_700:\n        /* \"#utility.yul\":38623:38642   */\n      0x596f752063616e4e6f742044656c657465000000000000000000000000000000\n        /* \"#utility.yul\":38619:38620   */\n      0x00\n        /* \"#utility.yul\":38611:38617   */\n      dup3\n        /* \"#utility.yul\":38607:38621   */\n      add\n        /* \"#utility.yul\":38600:38643   */\n      mstore\n        /* \"#utility.yul\":38483:38650   */\n      pop\n      jump\t// out\n        /* \"#utility.yul\":38656:38825   */\n    tag_705:\n        /* \"#utility.yul\":38796:38817   */\n      0x596f7520416c7265616479205369676e20496e00000000000000000000000000\n        /* \"#utility.yul\":38792:38793   */\n      0x00\n        /* \"#utility.yul\":38784:38790   */\n      dup3\n        /* \"#utility.yul\":38780:38794   */\n      add\n        /* \"#utility.yul\":38773:38818   */\n      mstore\n        /* \"#utility.yul\":38656:38825   */\n      pop\n      jump\t// out\n        /* \"#utility.yul\":38831:39054   */\n    tag_710:\n        /* \"#utility.yul\":38971:39005   */\n      0x506c656173652053656c6c6563742074686520636f7272656374205265636570\n        /* \"#utility.yul\":38967:38968   */\n      0x00\n        /* \"#utility.yul\":38959:38965   */\n      dup3\n        /* \"#utility.yul\":38955:38969   */\n      add\n        /* \"#utility.yul\":38948:39006   */\n      mstore\n        /* \"#utility.yul\":39040:39046   */\n      0x69656e7400000000000000000000000000000000000000000000000000000000\n        /* \"#utility.yul\":39035:39037   */\n      0x20\n        /* \"#utility.yul\":39027:39033   */\n      dup3\n        /* \"#utility.yul\":39023:39038   */\n      add\n        /* \"#utility.yul\":39016:39047   */\n      mstore\n        /* \"#utility.yul\":38831:39054   */\n      pop\n      jump\t// out\n        /* \"#utility.yul\":39060:39211   */\n    tag_715:\n        /* \"#utility.yul\":39200:39203   */\n      0x2e00000000000000000000000000000000000000000000000000000000000000\n        /* \"#utility.yul\":39196:39197   */\n      0x00\n        /* \"#utility.yul\":39188:39194   */\n      dup3\n        /* \"#utility.yul\":39184:39198   */\n      add\n        /* \"#utility.yul\":39177:39204   */\n      mstore\n        /* \"#utility.yul\":39060:39211   */\n      pop\n      jump\t// out\n        /* \"#utility.yul\":39217:39394   */\n    tag_720:\n        /* \"#utility.yul\":39357:39386   */\n      0x506c6561736520596f7520416c7265616479205369676e204f75740000000000\n        /* \"#utility.yul\":39353:39354   */\n      0x00\n        /* \"#utility.yul\":39345:39351   */\n      dup3\n        /* \"#utility.yul\":39341:39355   */\n      add\n        /* \"#utility.yul\":39334:39387   */\n      mstore\n        /* \"#utility.yul\":39217:39394   */\n      pop\n      jump\t// out\n        /* \"#utility.yul\":39400:39558   */\n    tag_725:\n        /* \"#utility.yul\":39540:39550   */\n      0x54696d65204f7574000000000000000000000000000000000000000000000000\n        /* \"#utility.yul\":39536:39537   */\n      0x00\n        /* \"#utility.yul\":39528:39534   */\n      dup3\n        /* \"#utility.yul\":39524:39538   */\n      add\n        /* \"#utility.yul\":39517:39551   */\n      mstore\n        /* \"#utility.yul\":39400:39558   */\n      pop\n      jump\t// out\n        /* \"#utility.yul\":39564:39742   */\n    tag_730:\n        /* \"#utility.yul\":39704:39734   */\n      0x596f7520617265204f776e6572206f6620746869732054656e64657200000000\n        /* \"#utility.yul\":39700:39701   */\n      0x00\n        /* \"#utility.yul\":39692:39698   */\n      dup3\n        /* \"#utility.yul\":39688:39702   */\n      add\n        /* \"#utility.yul\":39681:39735   */\n      mstore\n        /* \"#utility.yul\":39564:39742   */\n      pop\n      jump\t// out\n        /* \"#utility.yul\":39748:39969   */\n    tag_735:\n        /* \"#utility.yul\":39888:39922   */\n      0x596f7520416c7265616479204170706c7920666f722074686973205265717565\n        /* \"#utility.yul\":39884:39885   */\n      0x00\n        /* \"#utility.yul\":39876:39882   */\n      dup3\n        /* \"#utility.yul\":39872:39886   */\n      add\n        /* \"#utility.yul\":39865:39923   */\n      mstore\n        /* \"#utility.yul\":39957:39961   */\n      0x7374000000000000000000000000000000000000000000000000000000000000\n        /* \"#utility.yul\":39952:39954   */\n      0x20\n        /* \"#utility.yul\":39944:39950   */\n      dup3\n        /* \"#utility.yul\":39940:39955   */\n      add\n        /* \"#utility.yul\":39933:39962   */\n      mstore\n        /* \"#utility.yul\":39748:39969   */\n      pop\n      jump\t// out\n        /* \"#utility.yul\":39975:40144   */\n    tag_740:\n        /* \"#utility.yul\":40115:40136   */\n      0x596f7520616c7265616479207061796d656e7400000000000000000000000000\n        /* \"#utility.yul\":40111:40112   */\n      0x00\n        /* \"#utility.yul\":40103:40109   */\n      dup3\n        /* \"#utility.yul\":40099:40113   */\n      add\n        /* \"#utility.yul\":40092:40137   */\n      mstore\n        /* \"#utility.yul\":39975:40144   */\n      pop\n      jump\t// out\n        /* \"#utility.yul\":40150:40272   */\n    tag_532:\n        /* \"#utility.yul\":40223:40247   */\n      tag_926\n        /* \"#utility.yul\":40241:40246   */\n      dup2\n        /* \"#utility.yul\":40223:40247   */\n      tag_632\n      jump\t// in\n    tag_926:\n        /* \"#utility.yul\":40216:40221   */\n      dup2\n        /* \"#utility.yul\":40213:40248   */\n      eq\n        /* \"#utility.yul\":40203:40266   */\n      tag_927\n      jumpi\n        /* \"#utility.yul\":40262:40263   */\n      0x00\n        /* \"#utility.yul\":40259:40260   */\n      dup1\n        /* \"#utility.yul\":40252:40264   */\n      revert\n        /* \"#utility.yul\":40203:40266   */\n    tag_927:\n        /* \"#utility.yul\":40150:40272   */\n      pop\n      jump\t// out\n        /* \"#utility.yul\":40278:40400   */\n    tag_542:\n        /* \"#utility.yul\":40351:40375   */\n      tag_929\n        /* \"#utility.yul\":40369:40374   */\n      dup2\n        /* \"#utility.yul\":40351:40375   */\n      tag_762\n      jump\t// in\n    tag_929:\n        /* \"#utility.yul\":40344:40349   */\n      dup2\n        /* \"#utility.yul\":40341:40376   */\n      eq\n        /* \"#utility.yul\":40331:40394   */\n      tag_930\n      jumpi\n        /* \"#utility.yul\":40390:40391   */\n      0x00\n        /* \"#utility.yul\":40387:40388   */\n      dup1\n        /* \"#utility.yul\":40380:40392   */\n      revert\n        /* \"#utility.yul\":40331:40394   */\n    tag_930:\n        /* \"#utility.yul\":40278:40400   */\n      pop\n      jump\t// out\n\n    auxdata: 0xa2646970667358221220b06cae86e21e934bca4427bd6a4525e1b2eacfbd2ac73e32fba2ba43adf54ee864736f6c63430008070033\n}\n",
				"bytecode": {
					"linkReferences": {},
					"object": "608060405234801561001057600080fd5b5030600260006101000a81548173ffffffffffffffffffffffffffffffffffffffff021916908373ffffffffffffffffffffffffffffffffffffffff160217905550614c87806100616000396000f3fe6080604052600436106101d85760003560e01c806364a2864d11610102578063bc16aad711610095578063d7add75f11610064578063d7add75f1461078f578063ef383f49146107ba578063f4b0650d146107e3578063ffd64f8a14610824576101d8565b8063bc16aad7146106ce578063d0c343d6146106f9578063d0c3e90914610736578063d60f5a3814610773576101d8565b80639fff963e116100d15780639fff963e146105ee578063a06c5e3d1461062b578063a56d654414610654578063b19781fe14610691576101d8565b806364a2864d146104fa57806375772c47146105375780637cb060f41461057457806386e9ff0a146105b1576101d8565b80632302ec7e1161017a5780634fcb4a58116101495780634fcb4a581461042457806352943ff51461044d57806359b86a21146104925780635af77fff146104cf576101d8565b80632302ec7e1461035457806325af03161461037d57806330182235146103a857806340f12058146103e7576101d8565b8063168d5d34116101b6578063168d5d34146102825780631a4b3311146102c55780631a779488146103025780631d410da61461032b576101d8565b80630b9a7782146101dd5780630c4a33381461021c57806311452a7b14610259575b600080fd5b3480156101e957600080fd5b5061020460048036038101906101ff91906138d3565b610861565b6040516102139392919061457a565b60405180910390f35b34801561022857600080fd5b50610243600480360381019061023e9190613b52565b61088b565b6040516102509190614282565b60405180910390f35b34801561026557600080fd5b50610280600480360381019061027b91906138d3565b6108bd565b005b34801561028e57600080fd5b506102a960048036038101906102a49190613c26565b6109aa565b6040516102bc97969594939291906144fd565b60405180910390f35b3480156102d157600080fd5b506102ec60048036038101906102e791906138d3565b610b29565b6040516102f99190614440565b60405180910390f35b34801561030e57600080fd5b5061032960048036038101906103249190613a71565b610b41565b005b34801561033757600080fd5b50610352600480360381019061034d91906139e6565b610d10565b005b34801561036057600080fd5b5061037b60048036038101906103769190613b52565b610e5b565b005b34801561038957600080fd5b50610392611115565b60405161039f9190614440565b60405180910390f35b3480156103b457600080fd5b506103cf60048036038101906103ca9190613b7f565b611121565b6040516103de93929190614207565b60405180910390f35b3480156103f357600080fd5b5061040e60048036038101906104099190613953565b611185565b60405161041b9190614282565b60405180910390f35b34801561043057600080fd5b5061044b60048036038101906104469190613c66565b6111b4565b005b34801561045957600080fd5b50610474600480360381019061046f9190613b52565b6115cf565b6040516104899998979695949392919061445b565b60405180910390f35b34801561049e57600080fd5b506104b960048036038101906104b491906138d3565b6117d5565b6040516104c6919061429d565b60405180910390f35b3480156104db57600080fd5b506104e4611ac7565b6040516104f191906141ec565b60405180910390f35b34801561050657600080fd5b50610521600480360381019061051c91906138d3565b611aed565b60405161052e9190614440565b60405180910390f35b34801561054357600080fd5b5061055e60048036038101906105599190613953565b611b05565b60405161056b9190614282565b60405180910390f35b34801561058057600080fd5b5061059b60048036038101906105969190613953565b611b34565b6040516105a89190614440565b60405180910390f35b3480156105bd57600080fd5b506105d860048036038101906105d39190613b52565b611b59565b6040516105e59190614260565b60405180910390f35b3480156105fa57600080fd5b5061061560048036038101906106109190613b7f565b611e29565b6040516106229190614440565b60405180910390f35b34801561063757600080fd5b50610652600480360381019061064d9190613bbf565b611e4e565b005b34801561066057600080fd5b5061067b60048036038101906106769190613993565b6121ae565b6040516106889190614282565b60405180910390f35b34801561069d57600080fd5b506106b860048036038101906106b391906138d3565b6121ea565b6040516106c59190614440565b60405180910390f35b3480156106da57600080fd5b506106e3612202565b6040516106f0919061423e565b60405180910390f35b34801561070557600080fd5b50610720600480360381019061071b91906138d3565b612522565b60405161072d9190614260565b60405180910390f35b34801561074257600080fd5b5061075d600480360381019061075891906138d3565b612895565b60405161076a919061423e565b60405180910390f35b61078d60048036038101906107889190613900565b612c58565b005b34801561079b57600080fd5b506107a4613131565b6040516107b19190614440565b60405180910390f35b3480156107c657600080fd5b506107e160048036038101906107dc91906138d3565b61313d565b005b3480156107ef57600080fd5b5061080a600480360381019061080591906138d3565b6132ba565b60405161081b9594939291906142bf565b60405180910390f35b34801561083057600080fd5b5061084b60048036038101906108469190613b52565b61343a565b6040516108589190614440565b60405180910390f35b600a6020528060005260406000206000915090508060000154908060010154908060020154905083565b6000426006600084815260200190815260200160002060040154116108b357600090506108b8565b600190505b919050565b601060008273ffffffffffffffffffffffffffffffffffffffff1673ffffffffffffffffffffffffffffffffffffffff16815260200190815260200160002060020160159054906101000a900460ff1661094c576040517f08c379a0000000000000000000000000000000000000000000000000000000008152600401610943906143a0565b60405180910390fd5b6000601060008373ffffffffffffffffffffffffffffffffffffffff1673ffffffffffffffffffffffffffffffffffffffff16815260200190815260200160002060020160156101000a81548160ff02191690831515021790555050565b6007602052816000526040600020602052806000526040600020600091509150508060000154908060010154908060020180546109e690614850565b80601f0160208091040260200160405190810160405280929190818152602001828054610a1290614850565b8015610a5f5780601f10610a3457610100808354040283529160200191610a5f565b820191906000526020600020905b815481529060010190602001808311610a4257829003601f168201915b5050505050908060030160009054906101000a900473ffffffffffffffffffffffffffffffffffffffff1690806004015490806005015490806006018054610aa690614850565b80601f0160208091040260200160405190810160405280929190818152602001828054610ad290614850565b8015610b1f5780601f10610af457610100808354040283529160200191610b1f565b820191906000526020600020905b815481529060010190602001808311610b0257829003601f168201915b5050505050905087565b60096020528060005260406000206000915090505481565b610b4b6000613452565b6001600360003373ffffffffffffffffffffffffffffffffffffffff1673ffffffffffffffffffffffffffffffffffffffff1681526020019081526020016000206000828254610b9b91906146b1565b92505081905550604051806101200160405280610bb86000613468565b8152602001878152602001868152602001858152602001603c85610bdc9190614738565b42610be791906146b1565b81526020014281526020018381526020018281526020013373ffffffffffffffffffffffffffffffffffffffff1681525060066000610c266000613468565b8152602001908152602001600020600082015181600001556020820151816001019080519060200190610c5a9291906136a1565b5060408201518160020155606082015181600301556080820151816004015560a0820151816005015560c0820151816006019080519060200190610c9f9291906136a1565b5060e0820151816007019080519060200190610cbc9291906136a1565b506101008201518160080160006101000a81548173ffffffffffffffffffffffffffffffffffffffff021916908373ffffffffffffffffffffffffffffffffffffffff160217905550905050505050505050565b6040518060a001604052808481526020018381526020018273ffffffffffffffffffffffffffffffffffffffff16815260200160011515815260200160001515815250601060008373ffffffffffffffffffffffffffffffffffffffff1673ffffffffffffffffffffffffffffffffffffffff1681526020019081526020016000206000820151816000019080519060200190610dae9291906136a1565b506020820151816001019080519060200190610dcb9291906136a1565b5060408201518160020160006101000a81548173ffffffffffffffffffffffffffffffffffffffff021916908373ffffffffffffffffffffffffffffffffffffffff16021790555060608201518160020160146101000a81548160ff02191690831515021790555060808201518160020160156101000a81548160ff021916908315150217905550905050505050565b600860003373ffffffffffffffffffffffffffffffffffffffff1673ffffffffffffffffffffffffffffffffffffffff168152602001908152602001600020600082815260200190815260200160002060009054906101000a900460ff16610ef8576040517f08c379a0000000000000000000000000000000000000000000000000000000008152600401610eef90614340565b60405180910390fd5b6001600960003373ffffffffffffffffffffffffffffffffffffffff1673ffffffffffffffffffffffffffffffffffffffff1681526020019081526020016000206000828254610f489190614792565b925050819055506001600560008381526020019081526020016000206000828254610f739190614792565b925050819055506000600860003373ffffffffffffffffffffffffffffffffffffffff1673ffffffffffffffffffffffffffffffffffffffff168152602001908152602001600020600083815260200190815260200160002060006101000a81548160ff02191690831515021790555060076000600b600084815260200190815260200160002060003373ffffffffffffffffffffffffffffffffffffffff1673ffffffffffffffffffffffffffffffffffffffff168152602001908152602001600020548152602001908152602001600020600082815260200190815260200160002060008082016000905560018201600090556002820160006110789190613727565b6003820160006101000a81549073ffffffffffffffffffffffffffffffffffffffff0219169055600482016000905560058201600090556006820160006110bf9190613727565b5050600b600082815260200190815260200160002060003373ffffffffffffffffffffffffffffffffffffffff1673ffffffffffffffffffffffffffffffffffffffff1681526020019081526020016000205050565b60018060000154905081565b600c602052816000526040600020602052806000526040600020600091509150508060000160009054906101000a900473ffffffffffffffffffffffffffffffffffffffff16908060010154908060020160009054906101000a900460ff16905083565b60086020528160005260406000206020528060005260406000206000915091509054906101000a900460ff1681565b6111bd8461088b565b6111fc576040517f08c379a00000000000000000000000000000000000000000000000000000000081526004016111f3906143c0565b60405180910390fd5b600860003373ffffffffffffffffffffffffffffffffffffffff1673ffffffffffffffffffffffffffffffffffffffff168152602001908152602001600020600085815260200190815260200160002060009054906101000a900460ff161561129a576040517f08c379a000000000000000000000000000000000000000000000000000000000815260040161129190614400565b60405180910390fd5b3373ffffffffffffffffffffffffffffffffffffffff166006600086815260200190815260200160002060080160009054906101000a900473ffffffffffffffffffffffffffffffffffffffff1673ffffffffffffffffffffffffffffffffffffffff16141561133f576040517f08c379a0000000000000000000000000000000000000000000000000000000008152600401611336906143e0565b60405180910390fd5b6113496001613452565b6001600860003373ffffffffffffffffffffffffffffffffffffffff1673ffffffffffffffffffffffffffffffffffffffff168152602001908152602001600020600086815260200190815260200160002060006101000a81548160ff02191690831515021790555060016005600086815260200190815260200160002060008282546113d691906146b1565b925050819055506001600960003373ffffffffffffffffffffffffffffffffffffffff1673ffffffffffffffffffffffffffffffffffffffff168152602001908152602001600020600082825461142d91906146b1565b9250508190555061143e6001613468565b600b600086815260200190815260200160002060003373ffffffffffffffffffffffffffffffffffffffff1673ffffffffffffffffffffffffffffffffffffffff168152602001908152602001600020819055506040518060e001604052808581526020018481526020018381526020013373ffffffffffffffffffffffffffffffffffffffff16815260200160008152602001603c836114df9190614738565b81526020016114ed336117d5565b815250600760006114fe6001613468565b815260200190815260200160002060008681526020019081526020016000206000820151816000015560208201518160010155604082015181600201908051906020019061154d9291906136a1565b5060608201518160030160006101000a81548173ffffffffffffffffffffffffffffffffffffffff021916908373ffffffffffffffffffffffffffffffffffffffff1602179055506080820151816004015560a0820151816005015560c08201518160060190805190602001906115c59291906136a1565b5090505050505050565b60066020528060005260406000206000915090508060000154908060010180546115f890614850565b80601f016020809104026020016040519081016040528092919081815260200182805461162490614850565b80156116715780601f1061164657610100808354040283529160200191611671565b820191906000526020600020905b81548152906001019060200180831161165457829003601f168201915b50505050509080600201549080600301549080600401549080600501549080600601805461169e90614850565b80601f01602080910402602001604051908101604052809291908181526020018280546116ca90614850565b80156117175780601f106116ec57610100808354040283529160200191611717565b820191906000526020600020905b8154815290600101906020018083116116fa57829003601f168201915b50505050509080600701805461172c90614850565b80601f016020809104026020016040519081016040528092919081815260200182805461175890614850565b80156117a55780601f1061177a576101008083540402835291602001916117a5565b820191906000526020600020905b81548152906001019060200180831161178857829003601f168201915b5050505050908060080160009054906101000a900473ffffffffffffffffffffffffffffffffffffffff16905089565b60606000600a90506000600a60008573ffffffffffffffffffffffffffffffffffffffff1673ffffffffffffffffffffffffffffffffffffffff1681526020019081526020016000206000015411156119ef576000600960008573ffffffffffffffffffffffffffffffffffffffff1673ffffffffffffffffffffffffffffffffffffffff168152602001908152602001600020546028600f60008773ffffffffffffffffffffffffffffffffffffffff1673ffffffffffffffffffffffffffffffffffffffff168152602001908152602001600020546118b69190614738565b6118c09190614707565b600a60008673ffffffffffffffffffffffffffffffffffffffff1673ffffffffffffffffffffffffffffffffffffffff16815260200190815260200160002060000154603c600a60008873ffffffffffffffffffffffffffffffffffffffff1673ffffffffffffffffffffffffffffffffffffffff168152602001908152602001600020600101546119529190614738565b61195c9190614707565b61196691906146b1565b905060006005826119779190614738565b905060006064826119889190614707565b90506000846064868561199b9190614738565b6119a59190614707565b6119af91906148fc565b90506119ba82613476565b6119c382613476565b6040516020016119d49291906141bd565b60405160208183030381529060405295505050505050611ac2565b6000600960008573ffffffffffffffffffffffffffffffffffffffff1673ffffffffffffffffffffffffffffffffffffffff168152602001908152602001600020546014611a3d91906146b1565b90506000600582611a4e9190614738565b90506000606482611a5f9190614707565b905060008460648685611a729190614738565b611a7c9190614707565b611a8691906148fc565b9050611a9182613476565b611a9a82613476565b604051602001611aab9291906141bd565b604051602081830303815290604052955050505050505b919050565b600260009054906101000a900473ffffffffffffffffffffffffffffffffffffffff1681565b600f6020528060005260406000206000915090505481565b60046020528160005260406000206020528060005260406000206000915091509054906101000a900460ff1681565b600e602052816000526040600020602052806000526040600020600091509150505481565b60606000600560008481526020019081526020016000205467ffffffffffffffff811115611b8a57611b896149e9565b5b604051908082528060200260200182016040528015611bc357816020015b611bb0613767565b815260200190600190039081611ba85790505b509050600080600190505b611bd86001613468565b8111611e1e5760076000828152602001908152602001600020600086815260200190815260200160002060000154851415611e0b576007600082815260200190815260200160002060008681526020019081526020016000206040518060e00160405290816000820154815260200160018201548152602001600282018054611c6090614850565b80601f0160208091040260200160405190810160405280929190818152602001828054611c8c90614850565b8015611cd95780601f10611cae57610100808354040283529160200191611cd9565b820191906000526020600020905b815481529060010190602001808311611cbc57829003601f168201915b505050505081526020016003820160009054906101000a900473ffffffffffffffffffffffffffffffffffffffff1673ffffffffffffffffffffffffffffffffffffffff1673ffffffffffffffffffffffffffffffffffffffff1681526020016004820154815260200160058201548152602001600682018054611d5c90614850565b80601f0160208091040260200160405190810160405280929190818152602001828054611d8890614850565b8015611dd55780601f10611daa57610100808354040283529160200191611dd5565b820191906000526020600020905b815481529060010190602001808311611db857829003601f168201915b505050505081525050838381518110611df157611df06149ba565b5b60200260200101819052508180611e07906148b3565b9250505b8080611e16906148b3565b915050611bce565b508192505050919050565b600b602052816000526040600020602052806000526040600020600091509150505481565b60405180606001604052808473ffffffffffffffffffffffffffffffffffffffff16815260200182815260200160011515815250600c600086815260200190815260200160002060008473ffffffffffffffffffffffffffffffffffffffff1673ffffffffffffffffffffffffffffffffffffffff16815260200190815260200160002060008201518160000160006101000a81548173ffffffffffffffffffffffffffffffffffffffff021916908373ffffffffffffffffffffffffffffffffffffffff1602179055506020820151816001015560408201518160020160006101000a81548160ff02191690831515021790555090505042600e60008573ffffffffffffffffffffffffffffffffffffffff1673ffffffffffffffffffffffffffffffffffffffff1681526020019081526020016000206000868152602001908152602001600020819055506001600460008473ffffffffffffffffffffffffffffffffffffffff1673ffffffffffffffffffffffffffffffffffffffff168152602001908152602001600020600086815260200190815260200160002060006101000a81548160ff02191690831515021790555060076000600b600087815260200190815260200160002060008673ffffffffffffffffffffffffffffffffffffffff1673ffffffffffffffffffffffffffffffffffffffff1681526020019081526020016000205481526020019081526020016000206000858152602001908152602001600020600501544261208791906146b1565b60076000600b600088815260200190815260200160002060008773ffffffffffffffffffffffffffffffffffffffff1673ffffffffffffffffffffffffffffffffffffffff1681526020019081526020016000205481526020019081526020016000206000868152602001908152602001600020600401819055506001600d60008473ffffffffffffffffffffffffffffffffffffffff1673ffffffffffffffffffffffffffffffffffffffff168152602001908152602001600020600086815260200190815260200160002060008573ffffffffffffffffffffffffffffffffffffffff1673ffffffffffffffffffffffffffffffffffffffff16815260200190815260200160002060006101000a81548160ff02191690831515021790555050505050565b600d602052826000526040600020602052816000526040600020602052806000526040600020600092509250509054906101000a900460ff1681565b60036020528060005260406000206000915090505481565b606060006122106000613468565b67ffffffffffffffff811115612229576122286149e9565b5b60405190808252806020026020018201604052801561226257816020015b61224f6137ba565b8152602001906001900390816122475790505b509050600080600190505b6122776000613468565b8111612519576006600082815260200190815260200160002060405180610120016040529081600082015481526020016001820180546122b690614850565b80601f01602080910402602001604051908101604052809291908181526020018280546122e290614850565b801561232f5780601f106123045761010080835404028352916020019161232f565b820191906000526020600020905b81548152906001019060200180831161231257829003601f168201915b505050505081526020016002820154815260200160038201548152602001600482015481526020016005820154815260200160068201805461237090614850565b80601f016020809104026020016040519081016040528092919081815260200182805461239c90614850565b80156123e95780601f106123be576101008083540402835291602001916123e9565b820191906000526020600020905b8154815290600101906020018083116123cc57829003601f168201915b5050505050815260200160078201805461240290614850565b80601f016020809104026020016040519081016040528092919081815260200182805461242e90614850565b801561247b5780601f106124505761010080835404028352916020019161247b565b820191906000526020600020905b81548152906001019060200180831161245e57829003601f168201915b505050505081526020016008820160009054906101000a900473ffffffffffffffffffffffffffffffffffffffff1673ffffffffffffffffffffffffffffffffffffffff1673ffffffffffffffffffffffffffffffffffffffff16815250508383815181106124ed576124ec6149ba565b5b60200260200101819052508180612503906148b3565b9250508080612511906148b3565b91505061226d565b50819250505090565b60606000600960008473ffffffffffffffffffffffffffffffffffffffff1673ffffffffffffffffffffffffffffffffffffffff1681526020019081526020016000205467ffffffffffffffff81111561257f5761257e6149e9565b5b6040519080825280602002602001820160405280156125b857816020015b6125a5613767565b81526020019060019003908161259d5790505b509050600080600190505b6125cd6000613468565b811161288a576000600190505b6125e46001613468565b81116128765760076000828152602001908152602001600020600083815260200190815260200160002060030160009054906101000a900473ffffffffffffffffffffffffffffffffffffffff1673ffffffffffffffffffffffffffffffffffffffff168673ffffffffffffffffffffffffffffffffffffffff161415612863576007600082815260200190815260200160002060008381526020019081526020016000206040518060e001604052908160008201548152602001600182015481526020016002820180546126b890614850565b80601f01602080910402602001604051908101604052809291908181526020018280546126e490614850565b80156127315780601f1061270657610100808354040283529160200191612731565b820191906000526020600020905b81548152906001019060200180831161271457829003601f168201915b505050505081526020016003820160009054906101000a900473ffffffffffffffffffffffffffffffffffffffff1673ffffffffffffffffffffffffffffffffffffffff1673ffffffffffffffffffffffffffffffffffffffff16815260200160048201548152602001600582015481526020016006820180546127b490614850565b80601f01602080910402602001604051908101604052809291908181526020018280546127e090614850565b801561282d5780601f106128025761010080835404028352916020019161282d565b820191906000526020600020905b81548152906001019060200180831161281057829003601f168201915b505050505081525050848481518110612849576128486149ba565b5b6020026020010181905250828061285f906148b3565b9350505b808061286e906148b3565b9150506125da565b508080612882906148b3565b9150506125c3565b508192505050919050565b60606000600360008473ffffffffffffffffffffffffffffffffffffffff1673ffffffffffffffffffffffffffffffffffffffff1681526020019081526020016000205467ffffffffffffffff8111156128f2576128f16149e9565b5b60405190808252806020026020018201604052801561292b57816020015b6129186137ba565b8152602001906001900390816129105790505b509050600080600190505b6129406000613468565b8111612c4d576006600082815260200190815260200160002060080160009054906101000a900473ffffffffffffffffffffffffffffffffffffffff1673ffffffffffffffffffffffffffffffffffffffff168573ffffffffffffffffffffffffffffffffffffffff161415612c3a576006600082815260200190815260200160002060405180610120016040529081600082015481526020016001820180546129e990614850565b80601f0160208091040260200160405190810160405280929190818152602001828054612a1590614850565b8015612a625780601f10612a3757610100808354040283529160200191612a62565b820191906000526020600020905b815481529060010190602001808311612a4557829003601f168201915b5050505050815260200160028201548152602001600382015481526020016004820154815260200160058201548152602001600682018054612aa390614850565b80601f0160208091040260200160405190810160405280929190818152602001828054612acf90614850565b8015612b1c5780601f10612af157610100808354040283529160200191612b1c565b820191906000526020600020905b815481529060010190602001808311612aff57829003601f168201915b50505050508152602001600782018054612b3590614850565b80601f0160208091040260200160405190810160405280929190818152602001828054612b6190614850565b8015612bae5780601f10612b8357610100808354040283529160200191612bae565b820191906000526020600020905b815481529060010190602001808311612b9157829003601f168201915b505050505081526020016008820160009054906101000a900473ffffffffffffffffffffffffffffffffffffffff1673ffffffffffffffffffffffffffffffffffffffff1673ffffffffffffffffffffffffffffffffffffffff1681525050838381518110612c2057612c1f6149ba565b5b60200260200101819052508180612c36906148b3565b9250505b8080612c45906148b3565b915050612936565b508192505050919050565b8273ffffffffffffffffffffffffffffffffffffffff16600c600083815260200190815260200160002060008473ffffffffffffffffffffffffffffffffffffffff1673ffffffffffffffffffffffffffffffffffffffff16815260200190815260200160002060000160009054906101000a900473ffffffffffffffffffffffffffffffffffffffff1673ffffffffffffffffffffffffffffffffffffffff1614612d39576040517f08c379a0000000000000000000000000000000000000000000000000000000008152600401612d3090614380565b60405180910390fd5b600c600082815260200190815260200160002060008373ffffffffffffffffffffffffffffffffffffffff1673ffffffffffffffffffffffffffffffffffffffff16815260200190815260200160002060020160009054906101000a900460ff16612dd9576040517f08c379a0000000000000000000000000000000000000000000000000000000008152600401612dd090614420565b60405180910390fd5b603c60076000600b600085815260200190815260200160002060008773ffffffffffffffffffffffffffffffffffffffff1673ffffffffffffffffffffffffffffffffffffffff168152602001908152602001600020548152602001908152602001600020600083815260200190815260200160002060050154612e5d9190614707565b600a60008573ffffffffffffffffffffffffffffffffffffffff1673ffffffffffffffffffffffffffffffffffffffff1681526020019081526020016000206001016000828254612eae91906146b1565b92505081905550603c600e60008573ffffffffffffffffffffffffffffffffffffffff1673ffffffffffffffffffffffffffffffffffffffff16815260200190815260200160002060008381526020019081526020016000205442612f139190614792565b612f1d9190614707565b600a60008573ffffffffffffffffffffffffffffffffffffffff1673ffffffffffffffffffffffffffffffffffffffff1681526020019081526020016000206000016000828254612f6e91906146b1565b925050819055506001600a60008573ffffffffffffffffffffffffffffffffffffffff1673ffffffffffffffffffffffffffffffffffffffff1681526020019081526020016000206002016000828254612fc891906146b1565b925050819055506001600f60008573ffffffffffffffffffffffffffffffffffffffff1673ffffffffffffffffffffffffffffffffffffffff168152602001908152602001600020600082825461301f91906146b1565b925050819055506000600c600083815260200190815260200160002060008473ffffffffffffffffffffffffffffffffffffffff1673ffffffffffffffffffffffffffffffffffffffff16815260200190815260200160002060020160006101000a81548160ff0219169083151502179055508273ffffffffffffffffffffffffffffffffffffffff166108fc600c600084815260200190815260200160002060008573ffffffffffffffffffffffffffffffffffffffff1673ffffffffffffffffffffffffffffffffffffffff168152602001908152602001600020600101549081150290604051600060405180830381858888f1935050505015801561312b573d6000803e3d6000fd5b50505050565b60008060000154905081565b601060008273ffffffffffffffffffffffffffffffffffffffff1673ffffffffffffffffffffffffffffffffffffffff16815260200190815260200160002060020160149054906101000a900460ff166131cc576040517f08c379a00000000000000000000000000000000000000000000000000000000081526004016131c390614320565b60405180910390fd5b601060008273ffffffffffffffffffffffffffffffffffffffff1673ffffffffffffffffffffffffffffffffffffffff16815260200190815260200160002060020160159054906101000a900460ff161561325c576040517f08c379a000000000000000000000000000000000000000000000000000000000815260040161325390614360565b60405180910390fd5b6001601060008373ffffffffffffffffffffffffffffffffffffffff1673ffffffffffffffffffffffffffffffffffffffff16815260200190815260200160002060020160156101000a81548160ff02191690831515021790555050565b60106020528060005260406000206000915090508060000180546132dd90614850565b80601f016020809104026020016040519081016040528092919081815260200182805461330990614850565b80156133565780601f1061332b57610100808354040283529160200191613356565b820191906000526020600020905b81548152906001019060200180831161333957829003601f168201915b50505050509080600101805461336b90614850565b80601f016020809104026020016040519081016040528092919081815260200182805461339790614850565b80156133e45780601f106133b9576101008083540402835291602001916133e4565b820191906000526020600020905b8154815290600101906020018083116133c757829003601f168201915b5050505050908060020160009054906101000a900473ffffffffffffffffffffffffffffffffffffffff16908060020160149054906101000a900460ff16908060020160159054906101000a900460ff16905085565b60056020528060005260406000206000915090505481565b6001816000016000828254019250508190555050565b600081600001549050919050565b6060600060016134858461354e565b01905060008167ffffffffffffffff8111156134a4576134a36149e9565b5b6040519080825280601f01601f1916602001820160405280156134d65781602001600182028036833780820191505090505b509050600082602001820190505b600115613543578080600190039150507f3031323334353637383961626364656600000000000000000000000000000000600a86061a8153600a858161352d5761352c61495c565b5b049450600085141561353e57613543565b6134e4565b819350505050919050565b600080600090507a184f03e93ff9f4daa797ed6e38ed64bf6a1f01000000000000000083106135ac577a184f03e93ff9f4daa797ed6e38ed64bf6a1f01000000000000000083816135a2576135a161495c565b5b0492506040810190505b6d04ee2d6d415b85acef810000000083106135e9576d04ee2d6d415b85acef810000000083816135df576135de61495c565b5b0492506020810190505b662386f26fc10000831061361857662386f26fc10000838161360e5761360d61495c565b5b0492506010810190505b6305f5e1008310613641576305f5e10083816136375761363661495c565b5b0492506008810190505b612710831061366657612710838161365c5761365b61495c565b5b0492506004810190505b60648310613689576064838161367f5761367e61495c565b5b0492506002810190505b600a8310613698576001810190505b80915050919050565b8280546136ad90614850565b90600052602060002090601f0160209004810192826136cf5760008555613716565b82601f106136e857805160ff1916838001178555613716565b82800160010185558215613716579182015b828111156137155782518255916020019190600101906136fa565b5b509050613723919061381c565b5090565b50805461373390614850565b6000825580601f106137455750613764565b601f016020900490600052602060002090810190613763919061381c565b5b50565b6040518060e00160405280600081526020016000815260200160608152602001600073ffffffffffffffffffffffffffffffffffffffff1681526020016000815260200160008152602001606081525090565b6040518061012001604052806000815260200160608152602001600081526020016000815260200160008152602001600081526020016060815260200160608152602001600073ffffffffffffffffffffffffffffffffffffffff1681525090565b5b8082111561383557600081600090555060010161381d565b5090565b600061384c613847846145d6565b6145b1565b90508281526020810184848401111561386857613867614a1d565b5b61387384828561480e565b509392505050565b60008135905061388a81614c23565b92915050565b600082601f8301126138a5576138a4614a18565b5b81356138b5848260208601613839565b91505092915050565b6000813590506138cd81614c3a565b92915050565b6000602082840312156138e9576138e8614a27565b5b60006138f78482850161387b565b91505092915050565b60008060006060848603121561391957613918614a27565b5b60006139278682870161387b565b93505060206139388682870161387b565b9250506040613949868287016138be565b9150509250925092565b6000806040838503121561396a57613969614a27565b5b60006139788582860161387b565b9250506020613989858286016138be565b9150509250929050565b6000806000606084860312156139ac576139ab614a27565b5b60006139ba8682870161387b565b93505060206139cb868287016138be565b92505060406139dc8682870161387b565b9150509250925092565b6000806000606084860312156139ff576139fe614a27565b5b600084013567ffffffffffffffff811115613a1d57613a1c614a22565b5b613a2986828701613890565b935050602084013567ffffffffffffffff811115613a4a57613a49614a22565b5b613a5686828701613890565b9250506040613a678682870161387b565b9150509250925092565b60008060008060008060c08789031215613a8e57613a8d614a27565b5b600087013567ffffffffffffffff811115613aac57613aab614a22565b5b613ab889828a01613890565b9650506020613ac989828a016138be565b9550506040613ada89828a016138be565b9450506060613aeb89828a016138be565b935050608087013567ffffffffffffffff811115613b0c57613b0b614a22565b5b613b1889828a01613890565b92505060a087013567ffffffffffffffff811115613b3957613b38614a22565b5b613b4589828a01613890565b9150509295509295509295565b600060208284031215613b6857613b67614a27565b5b6000613b76848285016138be565b91505092915050565b60008060408385031215613b9657613b95614a27565b5b6000613ba4858286016138be565b9250506020613bb58582860161387b565b9150509250929050565b60008060008060808587031215613bd957613bd8614a27565b5b6000613be7878288016138be565b9450506020613bf88782880161387b565b9350506040613c098782880161387b565b9250506060613c1a878288016138be565b91505092959194509250565b60008060408385031215613c3d57613c3c614a27565b5b6000613c4b858286016138be565b9250506020613c5c858286016138be565b9150509250929050565b60008060008060808587031215613c8057613c7f614a27565b5b6000613c8e878288016138be565b9450506020613c9f878288016138be565b935050604085013567ffffffffffffffff811115613cc057613cbf614a22565b5b613ccc87828801613890565b9250506060613cdd878288016138be565b91505092959194509250565b6000613cf58383614029565b905092915050565b6000613d0983836140fc565b905092915050565b613d1a816147c6565b82525050565b613d29816147c6565b82525050565b6000613d3a82614627565b613d448185614662565b935083602082028501613d5685614607565b8060005b85811015613d925784840389528151613d738582613ce9565b9450613d7e83614648565b925060208a01995050600181019050613d5a565b50829750879550505050505092915050565b6000613daf82614632565b613db98185614673565b935083602082028501613dcb85614617565b8060005b85811015613e075784840389528151613de88582613cfd565b9450613df383614655565b925060208a01995050600181019050613dcf565b50829750879550505050505092915050565b613e22816147d8565b82525050565b6000613e338261463d565b613e3d8185614684565b9350613e4d81856020860161481d565b613e5681614a2c565b840191505092915050565b6000613e6c8261463d565b613e768185614695565b9350613e8681856020860161481d565b613e8f81614a2c565b840191505092915050565b6000613ea58261463d565b613eaf81856146a6565b9350613ebf81856020860161481d565b80840191505092915050565b6000613ed8601383614695565b9150613ee382614a3d565b602082019050919050565b6000613efb601183614695565b9150613f0682614a66565b602082019050919050565b6000613f1e601383614695565b9150613f2982614a8f565b602082019050919050565b6000613f41602483614695565b9150613f4c82614ab8565b604082019050919050565b6000613f646001836146a6565b9150613f6f82614b07565b600182019050919050565b6000613f87601b83614695565b9150613f9282614b30565b602082019050919050565b6000613faa600883614695565b9150613fb582614b59565b602082019050919050565b6000613fcd601c83614695565b9150613fd882614b82565b602082019050919050565b6000613ff0602283614695565b9150613ffb82614bab565b604082019050919050565b6000614013601383614695565b915061401e82614bfa565b602082019050919050565b600061012083016000830151614042600086018261419f565b506020830151848203602086015261405a8282613e28565b915050604083015161406f604086018261419f565b506060830151614082606086018261419f565b506080830151614095608086018261419f565b5060a08301516140a860a086018261419f565b5060c083015184820360c08601526140c08282613e28565b91505060e083015184820360e08601526140da8282613e28565b9150506101008301516140f1610100860182613d11565b508091505092915050565b600060e083016000830151614114600086018261419f565b506020830151614127602086018261419f565b506040830151848203604086015261413f8282613e28565b91505060608301516141546060860182613d11565b506080830151614167608086018261419f565b5060a083015161417a60a086018261419f565b5060c083015184820360c08601526141928282613e28565b9150508091505092915050565b6141a881614804565b82525050565b6141b781614804565b82525050565b60006141c98285613e9a565b91506141d482613f57565b91506141e08284613e9a565b91508190509392505050565b60006020820190506142016000830184613d20565b92915050565b600060608201905061421c6000830186613d20565b61422960208301856141ae565b6142366040830184613e19565b949350505050565b600060208201905081810360008301526142588184613d2f565b905092915050565b6000602082019050818103600083015261427a8184613da4565b905092915050565b60006020820190506142976000830184613e19565b92915050565b600060208201905081810360008301526142b78184613e61565b905092915050565b600060a08201905081810360008301526142d98188613e61565b905081810360208301526142ed8187613e61565b90506142fc6040830186613d20565b6143096060830185613e19565b6143166080830184613e19565b9695505050505050565b6000602082019050818103600083015261433981613ecb565b9050919050565b6000602082019050818103600083015261435981613eee565b9050919050565b6000602082019050818103600083015261437981613f11565b9050919050565b6000602082019050818103600083015261439981613f34565b9050919050565b600060208201905081810360008301526143b981613f7a565b9050919050565b600060208201905081810360008301526143d981613f9d565b9050919050565b600060208201905081810360008301526143f981613fc0565b9050919050565b6000602082019050818103600083015261441981613fe3565b9050919050565b6000602082019050818103600083015261443981614006565b9050919050565b600060208201905061445560008301846141ae565b92915050565b600061012082019050614471600083018c6141ae565b8181036020830152614483818b613e61565b9050614492604083018a6141ae565b61449f60608301896141ae565b6144ac60808301886141ae565b6144b960a08301876141ae565b81810360c08301526144cb8186613e61565b905081810360e08301526144df8185613e61565b90506144ef610100830184613d20565b9a9950505050505050505050565b600060e082019050614512600083018a6141ae565b61451f60208301896141ae565b81810360408301526145318188613e61565b90506145406060830187613d20565b61454d60808301866141ae565b61455a60a08301856141ae565b81810360c083015261456c8184613e61565b905098975050505050505050565b600060608201905061458f60008301866141ae565b61459c60208301856141ae565b6145a960408301846141ae565b949350505050565b60006145bb6145cc565b90506145c78282614882565b919050565b6000604051905090565b600067ffffffffffffffff8211156145f1576145f06149e9565b5b6145fa82614a2c565b9050602081019050919050565b6000819050602082019050919050565b6000819050602082019050919050565b600081519050919050565b600081519050919050565b600081519050919050565b6000602082019050919050565b6000602082019050919050565b600082825260208201905092915050565b600082825260208201905092915050565b600082825260208201905092915050565b600082825260208201905092915050565b600081905092915050565b60006146bc82614804565b91506146c783614804565b9250827fffffffffffffffffffffffffffffffffffffffffffffffffffffffffffffffff038211156146fc576146fb61492d565b5b828201905092915050565b600061471282614804565b915061471d83614804565b92508261472d5761472c61495c565b5b828204905092915050565b600061474382614804565b915061474e83614804565b9250817fffffffffffffffffffffffffffffffffffffffffffffffffffffffffffffffff04831182151516156147875761478661492d565b5b828202905092915050565b600061479d82614804565b91506147a883614804565b9250828210156147bb576147ba61492d565b5b828203905092915050565b60006147d1826147e4565b9050919050565b60008115159050919050565b600073ffffffffffffffffffffffffffffffffffffffff82169050919050565b6000819050919050565b82818337600083830152505050565b60005b8381101561483b578082015181840152602081019050614820565b8381111561484a576000848401525b50505050565b6000600282049050600182168061486857607f821691505b6020821081141561487c5761487b61498b565b5b50919050565b61488b82614a2c565b810181811067ffffffffffffffff821117156148aa576148a96149e9565b5b80604052505050565b60006148be82614804565b91507fffffffffffffffffffffffffffffffffffffffffffffffffffffffffffffffff8214156148f1576148f061492d565b5b600182019050919050565b600061490782614804565b915061491283614804565b9250826149225761492161495c565b5b828206905092915050565b7f4e487b7100000000000000000000000000000000000000000000000000000000600052601160045260246000fd5b7f4e487b7100000000000000000000000000000000000000000000000000000000600052601260045260246000fd5b7f4e487b7100000000000000000000000000000000000000000000000000000000600052602260045260246000fd5b7f4e487b7100000000000000000000000000000000000000000000000000000000600052603260045260246000fd5b7f4e487b7100000000000000000000000000000000000000000000000000000000600052604160045260246000fd5b600080fd5b600080fd5b600080fd5b600080fd5b6000601f19601f8301169050919050565b7f506c65617365205369676e557020466972737400000000000000000000000000600082015250565b7f596f752063616e4e6f742044656c657465000000000000000000000000000000600082015250565b7f596f7520416c7265616479205369676e20496e00000000000000000000000000600082015250565b7f506c656173652053656c6c6563742074686520636f727265637420526563657060008201527f69656e7400000000000000000000000000000000000000000000000000000000602082015250565b7f2e00000000000000000000000000000000000000000000000000000000000000600082015250565b7f506c6561736520596f7520416c7265616479205369676e204f75740000000000600082015250565b7f54696d65204f7574000000000000000000000000000000000000000000000000600082015250565b7f596f7520617265204f776e6572206f6620746869732054656e64657200000000600082015250565b7f596f7520416c7265616479204170706c7920666f72207468697320526571756560008201527f7374000000000000000000000000000000000000000000000000000000000000602082015250565b7f596f7520616c7265616479207061796d656e7400000000000000000000000000600082015250565b614c2c816147c6565b8114614c3757600080fd5b50565b614c4381614804565b8114614c4e57600080fd5b5056fea2646970667358221220b06cae86e21e934bca4427bd6a4525e1b2eacfbd2ac73e32fba2ba43adf54ee864736f6c63430008070033",
					"opcodes": "PUSH1 0x80 PUSH1 0x40 MSTORE CALLVALUE DUP1 ISZERO PUSH2 0x10 JUMPI PUSH1 0x0 DUP1 REVERT JUMPDEST POP ADDRESS PUSH1 0x2 PUSH1 0x0 PUSH2 0x100 EXP DUP2 SLOAD DUP2 PUSH20 0xFFFFFFFFFFFFFFFFFFFFFFFFFFFFFFFFFFFFFFFF MUL NOT AND SWAP1 DUP4 PUSH20 0xFFFFFFFFFFFFFFFFFFFFFFFFFFFFFFFFFFFFFFFF AND MUL OR SWAP1 SSTORE POP PUSH2 0x4C87 DUP1 PUSH2 0x61 PUSH1 0x0 CODECOPY PUSH1 0x0 RETURN INVALID PUSH1 0x80 PUSH1 0x40 MSTORE PUSH1 0x4 CALLDATASIZE LT PUSH2 0x1D8 JUMPI PUSH1 0x0 CALLDATALOAD PUSH1 0xE0 SHR DUP1 PUSH4 0x64A2864D GT PUSH2 0x102 JUMPI DUP1 PUSH4 0xBC16AAD7 GT PUSH2 0x95 JUMPI DUP1 PUSH4 0xD7ADD75F GT PUSH2 0x64 JUMPI DUP1 PUSH4 0xD7ADD75F EQ PUSH2 0x78F JUMPI DUP1 PUSH4 0xEF383F49 EQ PUSH2 0x7BA JUMPI DUP1 PUSH4 0xF4B0650D EQ PUSH2 0x7E3 JUMPI DUP1 PUSH4 0xFFD64F8A EQ PUSH2 0x824 JUMPI PUSH2 0x1D8 JUMP JUMPDEST DUP1 PUSH4 0xBC16AAD7 EQ PUSH2 0x6CE JUMPI DUP1 PUSH4 0xD0C343D6 EQ PUSH2 0x6F9 JUMPI DUP1 PUSH4 0xD0C3E909 EQ PUSH2 0x736 JUMPI DUP1 PUSH4 0xD60F5A38 EQ PUSH2 0x773 JUMPI PUSH2 0x1D8 JUMP JUMPDEST DUP1 PUSH4 0x9FFF963E GT PUSH2 0xD1 JUMPI DUP1 PUSH4 0x9FFF963E EQ PUSH2 0x5EE JUMPI DUP1 PUSH4 0xA06C5E3D EQ PUSH2 0x62B JUMPI DUP1 PUSH4 0xA56D6544 EQ PUSH2 0x654 JUMPI DUP1 PUSH4 0xB19781FE EQ PUSH2 0x691 JUMPI PUSH2 0x1D8 JUMP JUMPDEST DUP1 PUSH4 0x64A2864D EQ PUSH2 0x4FA JUMPI DUP1 PUSH4 0x75772C47 EQ PUSH2 0x537 JUMPI DUP1 PUSH4 0x7CB060F4 EQ PUSH2 0x574 JUMPI DUP1 PUSH4 0x86E9FF0A EQ PUSH2 0x5B1 JUMPI PUSH2 0x1D8 JUMP JUMPDEST DUP1 PUSH4 0x2302EC7E GT PUSH2 0x17A JUMPI DUP1 PUSH4 0x4FCB4A58 GT PUSH2 0x149 JUMPI DUP1 PUSH4 0x4FCB4A58 EQ PUSH2 0x424 JUMPI DUP1 PUSH4 0x52943FF5 EQ PUSH2 0x44D JUMPI DUP1 PUSH4 0x59B86A21 EQ PUSH2 0x492 JUMPI DUP1 PUSH4 0x5AF77FFF EQ PUSH2 0x4CF JUMPI PUSH2 0x1D8 JUMP JUMPDEST DUP1 PUSH4 0x2302EC7E EQ PUSH2 0x354 JUMPI DUP1 PUSH4 0x25AF0316 EQ PUSH2 0x37D JUMPI DUP1 PUSH4 0x30182235 EQ PUSH2 0x3A8 JUMPI DUP1 PUSH4 0x40F12058 EQ PUSH2 0x3E7 JUMPI PUSH2 0x1D8 JUMP JUMPDEST DUP1 PUSH4 0x168D5D34 GT PUSH2 0x1B6 JUMPI DUP1 PUSH4 0x168D5D34 EQ PUSH2 0x282 JUMPI DUP1 PUSH4 0x1A4B3311 EQ PUSH2 0x2C5 JUMPI DUP1 PUSH4 0x1A779488 EQ PUSH2 0x302 JUMPI DUP1 PUSH4 0x1D410DA6 EQ PUSH2 0x32B JUMPI PUSH2 0x1D8 JUMP JUMPDEST DUP1 PUSH4 0xB9A7782 EQ PUSH2 0x1DD JUMPI DUP1 PUSH4 0xC4A3338 EQ PUSH2 0x21C JUMPI DUP1 PUSH4 0x11452A7B EQ PUSH2 0x259 JUMPI JUMPDEST PUSH1 0x0 DUP1 REVERT JUMPDEST CALLVALUE DUP1 ISZERO PUSH2 0x1E9 JUMPI PUSH1 0x0 DUP1 REVERT JUMPDEST POP PUSH2 0x204 PUSH1 0x4 DUP1 CALLDATASIZE SUB DUP2 ADD SWAP1 PUSH2 0x1FF SWAP2 SWAP1 PUSH2 0x38D3 JUMP JUMPDEST PUSH2 0x861 JUMP JUMPDEST PUSH1 0x40 MLOAD PUSH2 0x213 SWAP4 SWAP3 SWAP2 SWAP1 PUSH2 0x457A JUMP JUMPDEST PUSH1 0x40 MLOAD DUP1 SWAP2 SUB SWAP1 RETURN JUMPDEST CALLVALUE DUP1 ISZERO PUSH2 0x228 JUMPI PUSH1 0x0 DUP1 REVERT JUMPDEST POP PUSH2 0x243 PUSH1 0x4 DUP1 CALLDATASIZE SUB DUP2 ADD SWAP1 PUSH2 0x23E SWAP2 SWAP1 PUSH2 0x3B52 JUMP JUMPDEST PUSH2 0x88B JUMP JUMPDEST PUSH1 0x40 MLOAD PUSH2 0x250 SWAP2 SWAP1 PUSH2 0x4282 JUMP JUMPDEST PUSH1 0x40 MLOAD DUP1 SWAP2 SUB SWAP1 RETURN JUMPDEST CALLVALUE DUP1 ISZERO PUSH2 0x265 JUMPI PUSH1 0x0 DUP1 REVERT JUMPDEST POP PUSH2 0x280 PUSH1 0x4 DUP1 CALLDATASIZE SUB DUP2 ADD SWAP1 PUSH2 0x27B SWAP2 SWAP1 PUSH2 0x38D3 JUMP JUMPDEST PUSH2 0x8BD JUMP JUMPDEST STOP JUMPDEST CALLVALUE DUP1 ISZERO PUSH2 0x28E JUMPI PUSH1 0x0 DUP1 REVERT JUMPDEST POP PUSH2 0x2A9 PUSH1 0x4 DUP1 CALLDATASIZE SUB DUP2 ADD SWAP1 PUSH2 0x2A4 SWAP2 SWAP1 PUSH2 0x3C26 JUMP JUMPDEST PUSH2 0x9AA JUMP JUMPDEST PUSH1 0x40 MLOAD PUSH2 0x2BC SWAP8 SWAP7 SWAP6 SWAP5 SWAP4 SWAP3 SWAP2 SWAP1 PUSH2 0x44FD JUMP JUMPDEST PUSH1 0x40 MLOAD DUP1 SWAP2 SUB SWAP1 RETURN JUMPDEST CALLVALUE DUP1 ISZERO PUSH2 0x2D1 JUMPI PUSH1 0x0 DUP1 REVERT JUMPDEST POP PUSH2 0x2EC PUSH1 0x4 DUP1 CALLDATASIZE SUB DUP2 ADD SWAP1 PUSH2 0x2E7 SWAP2 SWAP1 PUSH2 0x38D3 JUMP JUMPDEST PUSH2 0xB29 JUMP JUMPDEST PUSH1 0x40 MLOAD PUSH2 0x2F9 SWAP2 SWAP1 PUSH2 0x4440 JUMP JUMPDEST PUSH1 0x40 MLOAD DUP1 SWAP2 SUB SWAP1 RETURN JUMPDEST CALLVALUE DUP1 ISZERO PUSH2 0x30E JUMPI PUSH1 0x0 DUP1 REVERT JUMPDEST POP PUSH2 0x329 PUSH1 0x4 DUP1 CALLDATASIZE SUB DUP2 ADD SWAP1 PUSH2 0x324 SWAP2 SWAP1 PUSH2 0x3A71 JUMP JUMPDEST PUSH2 0xB41 JUMP JUMPDEST STOP JUMPDEST CALLVALUE DUP1 ISZERO PUSH2 0x337 JUMPI PUSH1 0x0 DUP1 REVERT JUMPDEST POP PUSH2 0x352 PUSH1 0x4 DUP1 CALLDATASIZE SUB DUP2 ADD SWAP1 PUSH2 0x34D SWAP2 SWAP1 PUSH2 0x39E6 JUMP JUMPDEST PUSH2 0xD10 JUMP JUMPDEST STOP JUMPDEST CALLVALUE DUP1 ISZERO PUSH2 0x360 JUMPI PUSH1 0x0 DUP1 REVERT JUMPDEST POP PUSH2 0x37B PUSH1 0x4 DUP1 CALLDATASIZE SUB DUP2 ADD SWAP1 PUSH2 0x376 SWAP2 SWAP1 PUSH2 0x3B52 JUMP JUMPDEST PUSH2 0xE5B JUMP JUMPDEST STOP JUMPDEST CALLVALUE DUP1 ISZERO PUSH2 0x389 JUMPI PUSH1 0x0 DUP1 REVERT JUMPDEST POP PUSH2 0x392 PUSH2 0x1115 JUMP JUMPDEST PUSH1 0x40 MLOAD PUSH2 0x39F SWAP2 SWAP1 PUSH2 0x4440 JUMP JUMPDEST PUSH1 0x40 MLOAD DUP1 SWAP2 SUB SWAP1 RETURN JUMPDEST CALLVALUE DUP1 ISZERO PUSH2 0x3B4 JUMPI PUSH1 0x0 DUP1 REVERT JUMPDEST POP PUSH2 0x3CF PUSH1 0x4 DUP1 CALLDATASIZE SUB DUP2 ADD SWAP1 PUSH2 0x3CA SWAP2 SWAP1 PUSH2 0x3B7F JUMP JUMPDEST PUSH2 0x1121 JUMP JUMPDEST PUSH1 0x40 MLOAD PUSH2 0x3DE SWAP4 SWAP3 SWAP2 SWAP1 PUSH2 0x4207 JUMP JUMPDEST PUSH1 0x40 MLOAD DUP1 SWAP2 SUB SWAP1 RETURN JUMPDEST CALLVALUE DUP1 ISZERO PUSH2 0x3F3 JUMPI PUSH1 0x0 DUP1 REVERT JUMPDEST POP PUSH2 0x40E PUSH1 0x4 DUP1 CALLDATASIZE SUB DUP2 ADD SWAP1 PUSH2 0x409 SWAP2 SWAP1 PUSH2 0x3953 JUMP JUMPDEST PUSH2 0x1185 JUMP JUMPDEST PUSH1 0x40 MLOAD PUSH2 0x41B SWAP2 SWAP1 PUSH2 0x4282 JUMP JUMPDEST PUSH1 0x40 MLOAD DUP1 SWAP2 SUB SWAP1 RETURN JUMPDEST CALLVALUE DUP1 ISZERO PUSH2 0x430 JUMPI PUSH1 0x0 DUP1 REVERT JUMPDEST POP PUSH2 0x44B PUSH1 0x4 DUP1 CALLDATASIZE SUB DUP2 ADD SWAP1 PUSH2 0x446 SWAP2 SWAP1 PUSH2 0x3C66 JUMP JUMPDEST PUSH2 0x11B4 JUMP JUMPDEST STOP JUMPDEST CALLVALUE DUP1 ISZERO PUSH2 0x459 JUMPI PUSH1 0x0 DUP1 REVERT JUMPDEST POP PUSH2 0x474 PUSH1 0x4 DUP1 CALLDATASIZE SUB DUP2 ADD SWAP1 PUSH2 0x46F SWAP2 SWAP1 PUSH2 0x3B52 JUMP JUMPDEST PUSH2 0x15CF JUMP JUMPDEST PUSH1 0x40 MLOAD PUSH2 0x489 SWAP10 SWAP9 SWAP8 SWAP7 SWAP6 SWAP5 SWAP4 SWAP3 SWAP2 SWAP1 PUSH2 0x445B JUMP JUMPDEST PUSH1 0x40 MLOAD DUP1 SWAP2 SUB SWAP1 RETURN JUMPDEST CALLVALUE DUP1 ISZERO PUSH2 0x49E JUMPI PUSH1 0x0 DUP1 REVERT JUMPDEST POP PUSH2 0x4B9 PUSH1 0x4 DUP1 CALLDATASIZE SUB DUP2 ADD SWAP1 PUSH2 0x4B4 SWAP2 SWAP1 PUSH2 0x38D3 JUMP JUMPDEST PUSH2 0x17D5 JUMP JUMPDEST PUSH1 0x40 MLOAD PUSH2 0x4C6 SWAP2 SWAP1 PUSH2 0x429D JUMP JUMPDEST PUSH1 0x40 MLOAD DUP1 SWAP2 SUB SWAP1 RETURN JUMPDEST CALLVALUE DUP1 ISZERO PUSH2 0x4DB JUMPI PUSH1 0x0 DUP1 REVERT JUMPDEST POP PUSH2 0x4E4 PUSH2 0x1AC7 JUMP JUMPDEST PUSH1 0x40 MLOAD PUSH2 0x4F1 SWAP2 SWAP1 PUSH2 0x41EC JUMP JUMPDEST PUSH1 0x40 MLOAD DUP1 SWAP2 SUB SWAP1 RETURN JUMPDEST CALLVALUE DUP1 ISZERO PUSH2 0x506 JUMPI PUSH1 0x0 DUP1 REVERT JUMPDEST POP PUSH2 0x521 PUSH1 0x4 DUP1 CALLDATASIZE SUB DUP2 ADD SWAP1 PUSH2 0x51C SWAP2 SWAP1 PUSH2 0x38D3 JUMP JUMPDEST PUSH2 0x1AED JUMP JUMPDEST PUSH1 0x40 MLOAD PUSH2 0x52E SWAP2 SWAP1 PUSH2 0x4440 JUMP JUMPDEST PUSH1 0x40 MLOAD DUP1 SWAP2 SUB SWAP1 RETURN JUMPDEST CALLVALUE DUP1 ISZERO PUSH2 0x543 JUMPI PUSH1 0x0 DUP1 REVERT JUMPDEST POP PUSH2 0x55E PUSH1 0x4 DUP1 CALLDATASIZE SUB DUP2 ADD SWAP1 PUSH2 0x559 SWAP2 SWAP1 PUSH2 0x3953 JUMP JUMPDEST PUSH2 0x1B05 JUMP JUMPDEST PUSH1 0x40 MLOAD PUSH2 0x56B SWAP2 SWAP1 PUSH2 0x4282 JUMP JUMPDEST PUSH1 0x40 MLOAD DUP1 SWAP2 SUB SWAP1 RETURN JUMPDEST CALLVALUE DUP1 ISZERO PUSH2 0x580 JUMPI PUSH1 0x0 DUP1 REVERT JUMPDEST POP PUSH2 0x59B PUSH1 0x4 DUP1 CALLDATASIZE SUB DUP2 ADD SWAP1 PUSH2 0x596 SWAP2 SWAP1 PUSH2 0x3953 JUMP JUMPDEST PUSH2 0x1B34 JUMP JUMPDEST PUSH1 0x40 MLOAD PUSH2 0x5A8 SWAP2 SWAP1 PUSH2 0x4440 JUMP JUMPDEST PUSH1 0x40 MLOAD DUP1 SWAP2 SUB SWAP1 RETURN JUMPDEST CALLVALUE DUP1 ISZERO PUSH2 0x5BD JUMPI PUSH1 0x0 DUP1 REVERT JUMPDEST POP PUSH2 0x5D8 PUSH1 0x4 DUP1 CALLDATASIZE SUB DUP2 ADD SWAP1 PUSH2 0x5D3 SWAP2 SWAP1 PUSH2 0x3B52 JUMP JUMPDEST PUSH2 0x1B59 JUMP JUMPDEST PUSH1 0x40 MLOAD PUSH2 0x5E5 SWAP2 SWAP1 PUSH2 0x4260 JUMP JUMPDEST PUSH1 0x40 MLOAD DUP1 SWAP2 SUB SWAP1 RETURN JUMPDEST CALLVALUE DUP1 ISZERO PUSH2 0x5FA JUMPI PUSH1 0x0 DUP1 REVERT JUMPDEST POP PUSH2 0x615 PUSH1 0x4 DUP1 CALLDATASIZE SUB DUP2 ADD SWAP1 PUSH2 0x610 SWAP2 SWAP1 PUSH2 0x3B7F JUMP JUMPDEST PUSH2 0x1E29 JUMP JUMPDEST PUSH1 0x40 MLOAD PUSH2 0x622 SWAP2 SWAP1 PUSH2 0x4440 JUMP JUMPDEST PUSH1 0x40 MLOAD DUP1 SWAP2 SUB SWAP1 RETURN JUMPDEST CALLVALUE DUP1 ISZERO PUSH2 0x637 JUMPI PUSH1 0x0 DUP1 REVERT JUMPDEST POP PUSH2 0x652 PUSH1 0x4 DUP1 CALLDATASIZE SUB DUP2 ADD SWAP1 PUSH2 0x64D SWAP2 SWAP1 PUSH2 0x3BBF JUMP JUMPDEST PUSH2 0x1E4E JUMP JUMPDEST STOP JUMPDEST CALLVALUE DUP1 ISZERO PUSH2 0x660 JUMPI PUSH1 0x0 DUP1 REVERT JUMPDEST POP PUSH2 0x67B PUSH1 0x4 DUP1 CALLDATASIZE SUB DUP2 ADD SWAP1 PUSH2 0x676 SWAP2 SWAP1 PUSH2 0x3993 JUMP JUMPDEST PUSH2 0x21AE JUMP JUMPDEST PUSH1 0x40 MLOAD PUSH2 0x688 SWAP2 SWAP1 PUSH2 0x4282 JUMP JUMPDEST PUSH1 0x40 MLOAD DUP1 SWAP2 SUB SWAP1 RETURN JUMPDEST CALLVALUE DUP1 ISZERO PUSH2 0x69D JUMPI PUSH1 0x0 DUP1 REVERT JUMPDEST POP PUSH2 0x6B8 PUSH1 0x4 DUP1 CALLDATASIZE SUB DUP2 ADD SWAP1 PUSH2 0x6B3 SWAP2 SWAP1 PUSH2 0x38D3 JUMP JUMPDEST PUSH2 0x21EA JUMP JUMPDEST PUSH1 0x40 MLOAD PUSH2 0x6C5 SWAP2 SWAP1 PUSH2 0x4440 JUMP JUMPDEST PUSH1 0x40 MLOAD DUP1 SWAP2 SUB SWAP1 RETURN JUMPDEST CALLVALUE DUP1 ISZERO PUSH2 0x6DA JUMPI PUSH1 0x0 DUP1 REVERT JUMPDEST POP PUSH2 0x6E3 PUSH2 0x2202 JUMP JUMPDEST PUSH1 0x40 MLOAD PUSH2 0x6F0 SWAP2 SWAP1 PUSH2 0x423E JUMP JUMPDEST PUSH1 0x40 MLOAD DUP1 SWAP2 SUB SWAP1 RETURN JUMPDEST CALLVALUE DUP1 ISZERO PUSH2 0x705 JUMPI PUSH1 0x0 DUP1 REVERT JUMPDEST POP PUSH2 0x720 PUSH1 0x4 DUP1 CALLDATASIZE SUB DUP2 ADD SWAP1 PUSH2 0x71B SWAP2 SWAP1 PUSH2 0x38D3 JUMP JUMPDEST PUSH2 0x2522 JUMP JUMPDEST PUSH1 0x40 MLOAD PUSH2 0x72D SWAP2 SWAP1 PUSH2 0x4260 JUMP JUMPDEST PUSH1 0x40 MLOAD DUP1 SWAP2 SUB SWAP1 RETURN JUMPDEST CALLVALUE DUP1 ISZERO PUSH2 0x742 JUMPI PUSH1 0x0 DUP1 REVERT JUMPDEST POP PUSH2 0x75D PUSH1 0x4 DUP1 CALLDATASIZE SUB DUP2 ADD SWAP1 PUSH2 0x758 SWAP2 SWAP1 PUSH2 0x38D3 JUMP JUMPDEST PUSH2 0x2895 JUMP JUMPDEST PUSH1 0x40 MLOAD PUSH2 0x76A SWAP2 SWAP1 PUSH2 0x423E JUMP JUMPDEST PUSH1 0x40 MLOAD DUP1 SWAP2 SUB SWAP1 RETURN JUMPDEST PUSH2 0x78D PUSH1 0x4 DUP1 CALLDATASIZE SUB DUP2 ADD SWAP1 PUSH2 0x788 SWAP2 SWAP1 PUSH2 0x3900 JUMP JUMPDEST PUSH2 0x2C58 JUMP JUMPDEST STOP JUMPDEST CALLVALUE DUP1 ISZERO PUSH2 0x79B JUMPI PUSH1 0x0 DUP1 REVERT JUMPDEST POP PUSH2 0x7A4 PUSH2 0x3131 JUMP JUMPDEST PUSH1 0x40 MLOAD PUSH2 0x7B1 SWAP2 SWAP1 PUSH2 0x4440 JUMP JUMPDEST PUSH1 0x40 MLOAD DUP1 SWAP2 SUB SWAP1 RETURN JUMPDEST CALLVALUE DUP1 ISZERO PUSH2 0x7C6 JUMPI PUSH1 0x0 DUP1 REVERT JUMPDEST POP PUSH2 0x7E1 PUSH1 0x4 DUP1 CALLDATASIZE SUB DUP2 ADD SWAP1 PUSH2 0x7DC SWAP2 SWAP1 PUSH2 0x38D3 JUMP JUMPDEST PUSH2 0x313D JUMP JUMPDEST STOP JUMPDEST CALLVALUE DUP1 ISZERO PUSH2 0x7EF JUMPI PUSH1 0x0 DUP1 REVERT JUMPDEST POP PUSH2 0x80A PUSH1 0x4 DUP1 CALLDATASIZE SUB DUP2 ADD SWAP1 PUSH2 0x805 SWAP2 SWAP1 PUSH2 0x38D3 JUMP JUMPDEST PUSH2 0x32BA JUMP JUMPDEST PUSH1 0x40 MLOAD PUSH2 0x81B SWAP6 SWAP5 SWAP4 SWAP3 SWAP2 SWAP1 PUSH2 0x42BF JUMP JUMPDEST PUSH1 0x40 MLOAD DUP1 SWAP2 SUB SWAP1 RETURN JUMPDEST CALLVALUE DUP1 ISZERO PUSH2 0x830 JUMPI PUSH1 0x0 DUP1 REVERT JUMPDEST POP PUSH2 0x84B PUSH1 0x4 DUP1 CALLDATASIZE SUB DUP2 ADD SWAP1 PUSH2 0x846 SWAP2 SWAP1 PUSH2 0x3B52 JUMP JUMPDEST PUSH2 0x343A JUMP JUMPDEST PUSH1 0x40 MLOAD PUSH2 0x858 SWAP2 SWAP1 PUSH2 0x4440 JUMP JUMPDEST PUSH1 0x40 MLOAD DUP1 SWAP2 SUB SWAP1 RETURN JUMPDEST PUSH1 0xA PUSH1 0x20 MSTORE DUP1 PUSH1 0x0 MSTORE PUSH1 0x40 PUSH1 0x0 KECCAK256 PUSH1 0x0 SWAP2 POP SWAP1 POP DUP1 PUSH1 0x0 ADD SLOAD SWAP1 DUP1 PUSH1 0x1 ADD SLOAD SWAP1 DUP1 PUSH1 0x2 ADD SLOAD SWAP1 POP DUP4 JUMP JUMPDEST PUSH1 0x0 TIMESTAMP PUSH1 0x6 PUSH1 0x0 DUP5 DUP2 MSTORE PUSH1 0x20 ADD SWAP1 DUP2 MSTORE PUSH1 0x20 ADD PUSH1 0x0 KECCAK256 PUSH1 0x4 ADD SLOAD GT PUSH2 0x8B3 JUMPI PUSH1 0x0 SWAP1 POP PUSH2 0x8B8 JUMP JUMPDEST PUSH1 0x1 SWAP1 POP JUMPDEST SWAP2 SWAP1 POP JUMP JUMPDEST PUSH1 0x10 PUSH1 0x0 DUP3 PUSH20 0xFFFFFFFFFFFFFFFFFFFFFFFFFFFFFFFFFFFFFFFF AND PUSH20 0xFFFFFFFFFFFFFFFFFFFFFFFFFFFFFFFFFFFFFFFF AND DUP2 MSTORE PUSH1 0x20 ADD SWAP1 DUP2 MSTORE PUSH1 0x20 ADD PUSH1 0x0 KECCAK256 PUSH1 0x2 ADD PUSH1 0x15 SWAP1 SLOAD SWAP1 PUSH2 0x100 EXP SWAP1 DIV PUSH1 0xFF AND PUSH2 0x94C JUMPI PUSH1 0x40 MLOAD PUSH32 0x8C379A000000000000000000000000000000000000000000000000000000000 DUP2 MSTORE PUSH1 0x4 ADD PUSH2 0x943 SWAP1 PUSH2 0x43A0 JUMP JUMPDEST PUSH1 0x40 MLOAD DUP1 SWAP2 SUB SWAP1 REVERT JUMPDEST PUSH1 0x0 PUSH1 0x10 PUSH1 0x0 DUP4 PUSH20 0xFFFFFFFFFFFFFFFFFFFFFFFFFFFFFFFFFFFFFFFF AND PUSH20 0xFFFFFFFFFFFFFFFFFFFFFFFFFFFFFFFFFFFFFFFF AND DUP2 MSTORE PUSH1 0x20 ADD SWAP1 DUP2 MSTORE PUSH1 0x20 ADD PUSH1 0x0 KECCAK256 PUSH1 0x2 ADD PUSH1 0x15 PUSH2 0x100 EXP DUP2 SLOAD DUP2 PUSH1 0xFF MUL NOT AND SWAP1 DUP4 ISZERO ISZERO MUL OR SWAP1 SSTORE POP POP JUMP JUMPDEST PUSH1 0x7 PUSH1 0x20 MSTORE DUP2 PUSH1 0x0 MSTORE PUSH1 0x40 PUSH1 0x0 KECCAK256 PUSH1 0x20 MSTORE DUP1 PUSH1 0x0 MSTORE PUSH1 0x40 PUSH1 0x0 KECCAK256 PUSH1 0x0 SWAP2 POP SWAP2 POP POP DUP1 PUSH1 0x0 ADD SLOAD SWAP1 DUP1 PUSH1 0x1 ADD SLOAD SWAP1 DUP1 PUSH1 0x2 ADD DUP1 SLOAD PUSH2 0x9E6 SWAP1 PUSH2 0x4850 JUMP JUMPDEST DUP1 PUSH1 0x1F ADD PUSH1 0x20 DUP1 SWAP2 DIV MUL PUSH1 0x20 ADD PUSH1 0x40 MLOAD SWAP1 DUP2 ADD PUSH1 0x40 MSTORE DUP1 SWAP3 SWAP2 SWAP1 DUP2 DUP2 MSTORE PUSH1 0x20 ADD DUP3 DUP1 SLOAD PUSH2 0xA12 SWAP1 PUSH2 0x4850 JUMP JUMPDEST DUP1 ISZERO PUSH2 0xA5F JUMPI DUP1 PUSH1 0x1F LT PUSH2 0xA34 JUMPI PUSH2 0x100 DUP1 DUP4 SLOAD DIV MUL DUP4 MSTORE SWAP2 PUSH1 0x20 ADD SWAP2 PUSH2 0xA5F JUMP JUMPDEST DUP3 ADD SWAP2 SWAP1 PUSH1 0x0 MSTORE PUSH1 0x20 PUSH1 0x0 KECCAK256 SWAP1 JUMPDEST DUP2 SLOAD DUP2 MSTORE SWAP1 PUSH1 0x1 ADD SWAP1 PUSH1 0x20 ADD DUP1 DUP4 GT PUSH2 0xA42 JUMPI DUP3 SWAP1 SUB PUSH1 0x1F AND DUP3 ADD SWAP2 JUMPDEST POP POP POP POP POP SWAP1 DUP1 PUSH1 0x3 ADD PUSH1 0x0 SWAP1 SLOAD SWAP1 PUSH2 0x100 EXP SWAP1 DIV PUSH20 0xFFFFFFFFFFFFFFFFFFFFFFFFFFFFFFFFFFFFFFFF AND SWAP1 DUP1 PUSH1 0x4 ADD SLOAD SWAP1 DUP1 PUSH1 0x5 ADD SLOAD SWAP1 DUP1 PUSH1 0x6 ADD DUP1 SLOAD PUSH2 0xAA6 SWAP1 PUSH2 0x4850 JUMP JUMPDEST DUP1 PUSH1 0x1F ADD PUSH1 0x20 DUP1 SWAP2 DIV MUL PUSH1 0x20 ADD PUSH1 0x40 MLOAD SWAP1 DUP2 ADD PUSH1 0x40 MSTORE DUP1 SWAP3 SWAP2 SWAP1 DUP2 DUP2 MSTORE PUSH1 0x20 ADD DUP3 DUP1 SLOAD PUSH2 0xAD2 SWAP1 PUSH2 0x4850 JUMP JUMPDEST DUP1 ISZERO PUSH2 0xB1F JUMPI DUP1 PUSH1 0x1F LT PUSH2 0xAF4 JUMPI PUSH2 0x100 DUP1 DUP4 SLOAD DIV MUL DUP4 MSTORE SWAP2 PUSH1 0x20 ADD SWAP2 PUSH2 0xB1F JUMP JUMPDEST DUP3 ADD SWAP2 SWAP1 PUSH1 0x0 MSTORE PUSH1 0x20 PUSH1 0x0 KECCAK256 SWAP1 JUMPDEST DUP2 SLOAD DUP2 MSTORE SWAP1 PUSH1 0x1 ADD SWAP1 PUSH1 0x20 ADD DUP1 DUP4 GT PUSH2 0xB02 JUMPI DUP3 SWAP1 SUB PUSH1 0x1F AND DUP3 ADD SWAP2 JUMPDEST POP POP POP POP POP SWAP1 POP DUP8 JUMP JUMPDEST PUSH1 0x9 PUSH1 0x20 MSTORE DUP1 PUSH1 0x0 MSTORE PUSH1 0x40 PUSH1 0x0 KECCAK256 PUSH1 0x0 SWAP2 POP SWAP1 POP SLOAD DUP2 JUMP JUMPDEST PUSH2 0xB4B PUSH1 0x0 PUSH2 0x3452 JUMP JUMPDEST PUSH1 0x1 PUSH1 0x3 PUSH1 0x0 CALLER PUSH20 0xFFFFFFFFFFFFFFFFFFFFFFFFFFFFFFFFFFFFFFFF AND PUSH20 0xFFFFFFFFFFFFFFFFFFFFFFFFFFFFFFFFFFFFFFFF AND DUP2 MSTORE PUSH1 0x20 ADD SWAP1 DUP2 MSTORE PUSH1 0x20 ADD PUSH1 0x0 KECCAK256 PUSH1 0x0 DUP3 DUP3 SLOAD PUSH2 0xB9B SWAP2 SWAP1 PUSH2 0x46B1 JUMP JUMPDEST SWAP3 POP POP DUP2 SWAP1 SSTORE POP PUSH1 0x40 MLOAD DUP1 PUSH2 0x120 ADD PUSH1 0x40 MSTORE DUP1 PUSH2 0xBB8 PUSH1 0x0 PUSH2 0x3468 JUMP JUMPDEST DUP2 MSTORE PUSH1 0x20 ADD DUP8 DUP2 MSTORE PUSH1 0x20 ADD DUP7 DUP2 MSTORE PUSH1 0x20 ADD DUP6 DUP2 MSTORE PUSH1 0x20 ADD PUSH1 0x3C DUP6 PUSH2 0xBDC SWAP2 SWAP1 PUSH2 0x4738 JUMP JUMPDEST TIMESTAMP PUSH2 0xBE7 SWAP2 SWAP1 PUSH2 0x46B1 JUMP JUMPDEST DUP2 MSTORE PUSH1 0x20 ADD TIMESTAMP DUP2 MSTORE PUSH1 0x20 ADD DUP4 DUP2 MSTORE PUSH1 0x20 ADD DUP3 DUP2 MSTORE PUSH1 0x20 ADD CALLER PUSH20 0xFFFFFFFFFFFFFFFFFFFFFFFFFFFFFFFFFFFFFFFF AND DUP2 MSTORE POP PUSH1 0x6 PUSH1 0x0 PUSH2 0xC26 PUSH1 0x0 PUSH2 0x3468 JUMP JUMPDEST DUP2 MSTORE PUSH1 0x20 ADD SWAP1 DUP2 MSTORE PUSH1 0x20 ADD PUSH1 0x0 KECCAK256 PUSH1 0x0 DUP3 ADD MLOAD DUP2 PUSH1 0x0 ADD SSTORE PUSH1 0x20 DUP3 ADD MLOAD DUP2 PUSH1 0x1 ADD SWAP1 DUP1 MLOAD SWAP1 PUSH1 0x20 ADD SWAP1 PUSH2 0xC5A SWAP3 SWAP2 SWAP1 PUSH2 0x36A1 JUMP JUMPDEST POP PUSH1 0x40 DUP3 ADD MLOAD DUP2 PUSH1 0x2 ADD SSTORE PUSH1 0x60 DUP3 ADD MLOAD DUP2 PUSH1 0x3 ADD SSTORE PUSH1 0x80 DUP3 ADD MLOAD DUP2 PUSH1 0x4 ADD SSTORE PUSH1 0xA0 DUP3 ADD MLOAD DUP2 PUSH1 0x5 ADD SSTORE PUSH1 0xC0 DUP3 ADD MLOAD DUP2 PUSH1 0x6 ADD SWAP1 DUP1 MLOAD SWAP1 PUSH1 0x20 ADD SWAP1 PUSH2 0xC9F SWAP3 SWAP2 SWAP1 PUSH2 0x36A1 JUMP JUMPDEST POP PUSH1 0xE0 DUP3 ADD MLOAD DUP2 PUSH1 0x7 ADD SWAP1 DUP1 MLOAD SWAP1 PUSH1 0x20 ADD SWAP1 PUSH2 0xCBC SWAP3 SWAP2 SWAP1 PUSH2 0x36A1 JUMP JUMPDEST POP PUSH2 0x100 DUP3 ADD MLOAD DUP2 PUSH1 0x8 ADD PUSH1 0x0 PUSH2 0x100 EXP DUP2 SLOAD DUP2 PUSH20 0xFFFFFFFFFFFFFFFFFFFFFFFFFFFFFFFFFFFFFFFF MUL NOT AND SWAP1 DUP4 PUSH20 0xFFFFFFFFFFFFFFFFFFFFFFFFFFFFFFFFFFFFFFFF AND MUL OR SWAP1 SSTORE POP SWAP1 POP POP POP POP POP POP POP POP JUMP JUMPDEST PUSH1 0x40 MLOAD DUP1 PUSH1 0xA0 ADD PUSH1 0x40 MSTORE DUP1 DUP5 DUP2 MSTORE PUSH1 0x20 ADD DUP4 DUP2 MSTORE PUSH1 0x20 ADD DUP3 PUSH20 0xFFFFFFFFFFFFFFFFFFFFFFFFFFFFFFFFFFFFFFFF AND DUP2 MSTORE PUSH1 0x20 ADD PUSH1 0x1 ISZERO ISZERO DUP2 MSTORE PUSH1 0x20 ADD PUSH1 0x0 ISZERO ISZERO DUP2 MSTORE POP PUSH1 0x10 PUSH1 0x0 DUP4 PUSH20 0xFFFFFFFFFFFFFFFFFFFFFFFFFFFFFFFFFFFFFFFF AND PUSH20 0xFFFFFFFFFFFFFFFFFFFFFFFFFFFFFFFFFFFFFFFF AND DUP2 MSTORE PUSH1 0x20 ADD SWAP1 DUP2 MSTORE PUSH1 0x20 ADD PUSH1 0x0 KECCAK256 PUSH1 0x0 DUP3 ADD MLOAD DUP2 PUSH1 0x0 ADD SWAP1 DUP1 MLOAD SWAP1 PUSH1 0x20 ADD SWAP1 PUSH2 0xDAE SWAP3 SWAP2 SWAP1 PUSH2 0x36A1 JUMP JUMPDEST POP PUSH1 0x20 DUP3 ADD MLOAD DUP2 PUSH1 0x1 ADD SWAP1 DUP1 MLOAD SWAP1 PUSH1 0x20 ADD SWAP1 PUSH2 0xDCB SWAP3 SWAP2 SWAP1 PUSH2 0x36A1 JUMP JUMPDEST POP PUSH1 0x40 DUP3 ADD MLOAD DUP2 PUSH1 0x2 ADD PUSH1 0x0 PUSH2 0x100 EXP DUP2 SLOAD DUP2 PUSH20 0xFFFFFFFFFFFFFFFFFFFFFFFFFFFFFFFFFFFFFFFF MUL NOT AND SWAP1 DUP4 PUSH20 0xFFFFFFFFFFFFFFFFFFFFFFFFFFFFFFFFFFFFFFFF AND MUL OR SWAP1 SSTORE POP PUSH1 0x60 DUP3 ADD MLOAD DUP2 PUSH1 0x2 ADD PUSH1 0x14 PUSH2 0x100 EXP DUP2 SLOAD DUP2 PUSH1 0xFF MUL NOT AND SWAP1 DUP4 ISZERO ISZERO MUL OR SWAP1 SSTORE POP PUSH1 0x80 DUP3 ADD MLOAD DUP2 PUSH1 0x2 ADD PUSH1 0x15 PUSH2 0x100 EXP DUP2 SLOAD DUP2 PUSH1 0xFF MUL NOT AND SWAP1 DUP4 ISZERO ISZERO MUL OR SWAP1 SSTORE POP SWAP1 POP POP POP POP POP JUMP JUMPDEST PUSH1 0x8 PUSH1 0x0 CALLER PUSH20 0xFFFFFFFFFFFFFFFFFFFFFFFFFFFFFFFFFFFFFFFF AND PUSH20 0xFFFFFFFFFFFFFFFFFFFFFFFFFFFFFFFFFFFFFFFF AND DUP2 MSTORE PUSH1 0x20 ADD SWAP1 DUP2 MSTORE PUSH1 0x20 ADD PUSH1 0x0 KECCAK256 PUSH1 0x0 DUP3 DUP2 MSTORE PUSH1 0x20 ADD SWAP1 DUP2 MSTORE PUSH1 0x20 ADD PUSH1 0x0 KECCAK256 PUSH1 0x0 SWAP1 SLOAD SWAP1 PUSH2 0x100 EXP SWAP1 DIV PUSH1 0xFF AND PUSH2 0xEF8 JUMPI PUSH1 0x40 MLOAD PUSH32 0x8C379A000000000000000000000000000000000000000000000000000000000 DUP2 MSTORE PUSH1 0x4 ADD PUSH2 0xEEF SWAP1 PUSH2 0x4340 JUMP JUMPDEST PUSH1 0x40 MLOAD DUP1 SWAP2 SUB SWAP1 REVERT JUMPDEST PUSH1 0x1 PUSH1 0x9 PUSH1 0x0 CALLER PUSH20 0xFFFFFFFFFFFFFFFFFFFFFFFFFFFFFFFFFFFFFFFF AND PUSH20 0xFFFFFFFFFFFFFFFFFFFFFFFFFFFFFFFFFFFFFFFF AND DUP2 MSTORE PUSH1 0x20 ADD SWAP1 DUP2 MSTORE PUSH1 0x20 ADD PUSH1 0x0 KECCAK256 PUSH1 0x0 DUP3 DUP3 SLOAD PUSH2 0xF48 SWAP2 SWAP1 PUSH2 0x4792 JUMP JUMPDEST SWAP3 POP POP DUP2 SWAP1 SSTORE POP PUSH1 0x1 PUSH1 0x5 PUSH1 0x0 DUP4 DUP2 MSTORE PUSH1 0x20 ADD SWAP1 DUP2 MSTORE PUSH1 0x20 ADD PUSH1 0x0 KECCAK256 PUSH1 0x0 DUP3 DUP3 SLOAD PUSH2 0xF73 SWAP2 SWAP1 PUSH2 0x4792 JUMP JUMPDEST SWAP3 POP POP DUP2 SWAP1 SSTORE POP PUSH1 0x0 PUSH1 0x8 PUSH1 0x0 CALLER PUSH20 0xFFFFFFFFFFFFFFFFFFFFFFFFFFFFFFFFFFFFFFFF AND PUSH20 0xFFFFFFFFFFFFFFFFFFFFFFFFFFFFFFFFFFFFFFFF AND DUP2 MSTORE PUSH1 0x20 ADD SWAP1 DUP2 MSTORE PUSH1 0x20 ADD PUSH1 0x0 KECCAK256 PUSH1 0x0 DUP4 DUP2 MSTORE PUSH1 0x20 ADD SWAP1 DUP2 MSTORE PUSH1 0x20 ADD PUSH1 0x0 KECCAK256 PUSH1 0x0 PUSH2 0x100 EXP DUP2 SLOAD DUP2 PUSH1 0xFF MUL NOT AND SWAP1 DUP4 ISZERO ISZERO MUL OR SWAP1 SSTORE POP PUSH1 0x7 PUSH1 0x0 PUSH1 0xB PUSH1 0x0 DUP5 DUP2 MSTORE PUSH1 0x20 ADD SWAP1 DUP2 MSTORE PUSH1 0x20 ADD PUSH1 0x0 KECCAK256 PUSH1 0x0 CALLER PUSH20 0xFFFFFFFFFFFFFFFFFFFFFFFFFFFFFFFFFFFFFFFF AND PUSH20 0xFFFFFFFFFFFFFFFFFFFFFFFFFFFFFFFFFFFFFFFF AND DUP2 MSTORE PUSH1 0x20 ADD SWAP1 DUP2 MSTORE PUSH1 0x20 ADD PUSH1 0x0 KECCAK256 SLOAD DUP2 MSTORE PUSH1 0x20 ADD SWAP1 DUP2 MSTORE PUSH1 0x20 ADD PUSH1 0x0 KECCAK256 PUSH1 0x0 DUP3 DUP2 MSTORE PUSH1 0x20 ADD SWAP1 DUP2 MSTORE PUSH1 0x20 ADD PUSH1 0x0 KECCAK256 PUSH1 0x0 DUP1 DUP3 ADD PUSH1 0x0 SWAP1 SSTORE PUSH1 0x1 DUP3 ADD PUSH1 0x0 SWAP1 SSTORE PUSH1 0x2 DUP3 ADD PUSH1 0x0 PUSH2 0x1078 SWAP2 SWAP1 PUSH2 0x3727 JUMP JUMPDEST PUSH1 0x3 DUP3 ADD PUSH1 0x0 PUSH2 0x100 EXP DUP2 SLOAD SWAP1 PUSH20 0xFFFFFFFFFFFFFFFFFFFFFFFFFFFFFFFFFFFFFFFF MUL NOT AND SWAP1 SSTORE PUSH1 0x4 DUP3 ADD PUSH1 0x0 SWAP1 SSTORE PUSH1 0x5 DUP3 ADD PUSH1 0x0 SWAP1 SSTORE PUSH1 0x6 DUP3 ADD PUSH1 0x0 PUSH2 0x10BF SWAP2 SWAP1 PUSH2 0x3727 JUMP JUMPDEST POP POP PUSH1 0xB PUSH1 0x0 DUP3 DUP2 MSTORE PUSH1 0x20 ADD SWAP1 DUP2 MSTORE PUSH1 0x20 ADD PUSH1 0x0 KECCAK256 PUSH1 0x0 CALLER PUSH20 0xFFFFFFFFFFFFFFFFFFFFFFFFFFFFFFFFFFFFFFFF AND PUSH20 0xFFFFFFFFFFFFFFFFFFFFFFFFFFFFFFFFFFFFFFFF AND DUP2 MSTORE PUSH1 0x20 ADD SWAP1 DUP2 MSTORE PUSH1 0x20 ADD PUSH1 0x0 KECCAK256 POP POP JUMP JUMPDEST PUSH1 0x1 DUP1 PUSH1 0x0 ADD SLOAD SWAP1 POP DUP2 JUMP JUMPDEST PUSH1 0xC PUSH1 0x20 MSTORE DUP2 PUSH1 0x0 MSTORE PUSH1 0x40 PUSH1 0x0 KECCAK256 PUSH1 0x20 MSTORE DUP1 PUSH1 0x0 MSTORE PUSH1 0x40 PUSH1 0x0 KECCAK256 PUSH1 0x0 SWAP2 POP SWAP2 POP POP DUP1 PUSH1 0x0 ADD PUSH1 0x0 SWAP1 SLOAD SWAP1 PUSH2 0x100 EXP SWAP1 DIV PUSH20 0xFFFFFFFFFFFFFFFFFFFFFFFFFFFFFFFFFFFFFFFF AND SWAP1 DUP1 PUSH1 0x1 ADD SLOAD SWAP1 DUP1 PUSH1 0x2 ADD PUSH1 0x0 SWAP1 SLOAD SWAP1 PUSH2 0x100 EXP SWAP1 DIV PUSH1 0xFF AND SWAP1 POP DUP4 JUMP JUMPDEST PUSH1 0x8 PUSH1 0x20 MSTORE DUP2 PUSH1 0x0 MSTORE PUSH1 0x40 PUSH1 0x0 KECCAK256 PUSH1 0x20 MSTORE DUP1 PUSH1 0x0 MSTORE PUSH1 0x40 PUSH1 0x0 KECCAK256 PUSH1 0x0 SWAP2 POP SWAP2 POP SWAP1 SLOAD SWAP1 PUSH2 0x100 EXP SWAP1 DIV PUSH1 0xFF AND DUP2 JUMP JUMPDEST PUSH2 0x11BD DUP5 PUSH2 0x88B JUMP JUMPDEST PUSH2 0x11FC JUMPI PUSH1 0x40 MLOAD PUSH32 0x8C379A000000000000000000000000000000000000000000000000000000000 DUP2 MSTORE PUSH1 0x4 ADD PUSH2 0x11F3 SWAP1 PUSH2 0x43C0 JUMP JUMPDEST PUSH1 0x40 MLOAD DUP1 SWAP2 SUB SWAP1 REVERT JUMPDEST PUSH1 0x8 PUSH1 0x0 CALLER PUSH20 0xFFFFFFFFFFFFFFFFFFFFFFFFFFFFFFFFFFFFFFFF AND PUSH20 0xFFFFFFFFFFFFFFFFFFFFFFFFFFFFFFFFFFFFFFFF AND DUP2 MSTORE PUSH1 0x20 ADD SWAP1 DUP2 MSTORE PUSH1 0x20 ADD PUSH1 0x0 KECCAK256 PUSH1 0x0 DUP6 DUP2 MSTORE PUSH1 0x20 ADD SWAP1 DUP2 MSTORE PUSH1 0x20 ADD PUSH1 0x0 KECCAK256 PUSH1 0x0 SWAP1 SLOAD SWAP1 PUSH2 0x100 EXP SWAP1 DIV PUSH1 0xFF AND ISZERO PUSH2 0x129A JUMPI PUSH1 0x40 MLOAD PUSH32 0x8C379A000000000000000000000000000000000000000000000000000000000 DUP2 MSTORE PUSH1 0x4 ADD PUSH2 0x1291 SWAP1 PUSH2 0x4400 JUMP JUMPDEST PUSH1 0x40 MLOAD DUP1 SWAP2 SUB SWAP1 REVERT JUMPDEST CALLER PUSH20 0xFFFFFFFFFFFFFFFFFFFFFFFFFFFFFFFFFFFFFFFF AND PUSH1 0x6 PUSH1 0x0 DUP7 DUP2 MSTORE PUSH1 0x20 ADD SWAP1 DUP2 MSTORE PUSH1 0x20 ADD PUSH1 0x0 KECCAK256 PUSH1 0x8 ADD PUSH1 0x0 SWAP1 SLOAD SWAP1 PUSH2 0x100 EXP SWAP1 DIV PUSH20 0xFFFFFFFFFFFFFFFFFFFFFFFFFFFFFFFFFFFFFFFF AND PUSH20 0xFFFFFFFFFFFFFFFFFFFFFFFFFFFFFFFFFFFFFFFF AND EQ ISZERO PUSH2 0x133F JUMPI PUSH1 0x40 MLOAD PUSH32 0x8C379A000000000000000000000000000000000000000000000000000000000 DUP2 MSTORE PUSH1 0x4 ADD PUSH2 0x1336 SWAP1 PUSH2 0x43E0 JUMP JUMPDEST PUSH1 0x40 MLOAD DUP1 SWAP2 SUB SWAP1 REVERT JUMPDEST PUSH2 0x1349 PUSH1 0x1 PUSH2 0x3452 JUMP JUMPDEST PUSH1 0x1 PUSH1 0x8 PUSH1 0x0 CALLER PUSH20 0xFFFFFFFFFFFFFFFFFFFFFFFFFFFFFFFFFFFFFFFF AND PUSH20 0xFFFFFFFFFFFFFFFFFFFFFFFFFFFFFFFFFFFFFFFF AND DUP2 MSTORE PUSH1 0x20 ADD SWAP1 DUP2 MSTORE PUSH1 0x20 ADD PUSH1 0x0 KECCAK256 PUSH1 0x0 DUP7 DUP2 MSTORE PUSH1 0x20 ADD SWAP1 DUP2 MSTORE PUSH1 0x20 ADD PUSH1 0x0 KECCAK256 PUSH1 0x0 PUSH2 0x100 EXP DUP2 SLOAD DUP2 PUSH1 0xFF MUL NOT AND SWAP1 DUP4 ISZERO ISZERO MUL OR SWAP1 SSTORE POP PUSH1 0x1 PUSH1 0x5 PUSH1 0x0 DUP7 DUP2 MSTORE PUSH1 0x20 ADD SWAP1 DUP2 MSTORE PUSH1 0x20 ADD PUSH1 0x0 KECCAK256 PUSH1 0x0 DUP3 DUP3 SLOAD PUSH2 0x13D6 SWAP2 SWAP1 PUSH2 0x46B1 JUMP JUMPDEST SWAP3 POP POP DUP2 SWAP1 SSTORE POP PUSH1 0x1 PUSH1 0x9 PUSH1 0x0 CALLER PUSH20 0xFFFFFFFFFFFFFFFFFFFFFFFFFFFFFFFFFFFFFFFF AND PUSH20 0xFFFFFFFFFFFFFFFFFFFFFFFFFFFFFFFFFFFFFFFF AND DUP2 MSTORE PUSH1 0x20 ADD SWAP1 DUP2 MSTORE PUSH1 0x20 ADD PUSH1 0x0 KECCAK256 PUSH1 0x0 DUP3 DUP3 SLOAD PUSH2 0x142D SWAP2 SWAP1 PUSH2 0x46B1 JUMP JUMPDEST SWAP3 POP POP DUP2 SWAP1 SSTORE POP PUSH2 0x143E PUSH1 0x1 PUSH2 0x3468 JUMP JUMPDEST PUSH1 0xB PUSH1 0x0 DUP7 DUP2 MSTORE PUSH1 0x20 ADD SWAP1 DUP2 MSTORE PUSH1 0x20 ADD PUSH1 0x0 KECCAK256 PUSH1 0x0 CALLER PUSH20 0xFFFFFFFFFFFFFFFFFFFFFFFFFFFFFFFFFFFFFFFF AND PUSH20 0xFFFFFFFFFFFFFFFFFFFFFFFFFFFFFFFFFFFFFFFF AND DUP2 MSTORE PUSH1 0x20 ADD SWAP1 DUP2 MSTORE PUSH1 0x20 ADD PUSH1 0x0 KECCAK256 DUP2 SWAP1 SSTORE POP PUSH1 0x40 MLOAD DUP1 PUSH1 0xE0 ADD PUSH1 0x40 MSTORE DUP1 DUP6 DUP2 MSTORE PUSH1 0x20 ADD DUP5 DUP2 MSTORE PUSH1 0x20 ADD DUP4 DUP2 MSTORE PUSH1 0x20 ADD CALLER PUSH20 0xFFFFFFFFFFFFFFFFFFFFFFFFFFFFFFFFFFFFFFFF AND DUP2 MSTORE PUSH1 0x20 ADD PUSH1 0x0 DUP2 MSTORE PUSH1 0x20 ADD PUSH1 0x3C DUP4 PUSH2 0x14DF SWAP2 SWAP1 PUSH2 0x4738 JUMP JUMPDEST DUP2 MSTORE PUSH1 0x20 ADD PUSH2 0x14ED CALLER PUSH2 0x17D5 JUMP JUMPDEST DUP2 MSTORE POP PUSH1 0x7 PUSH1 0x0 PUSH2 0x14FE PUSH1 0x1 PUSH2 0x3468 JUMP JUMPDEST DUP2 MSTORE PUSH1 0x20 ADD SWAP1 DUP2 MSTORE PUSH1 0x20 ADD PUSH1 0x0 KECCAK256 PUSH1 0x0 DUP7 DUP2 MSTORE PUSH1 0x20 ADD SWAP1 DUP2 MSTORE PUSH1 0x20 ADD PUSH1 0x0 KECCAK256 PUSH1 0x0 DUP3 ADD MLOAD DUP2 PUSH1 0x0 ADD SSTORE PUSH1 0x20 DUP3 ADD MLOAD DUP2 PUSH1 0x1 ADD SSTORE PUSH1 0x40 DUP3 ADD MLOAD DUP2 PUSH1 0x2 ADD SWAP1 DUP1 MLOAD SWAP1 PUSH1 0x20 ADD SWAP1 PUSH2 0x154D SWAP3 SWAP2 SWAP1 PUSH2 0x36A1 JUMP JUMPDEST POP PUSH1 0x60 DUP3 ADD MLOAD DUP2 PUSH1 0x3 ADD PUSH1 0x0 PUSH2 0x100 EXP DUP2 SLOAD DUP2 PUSH20 0xFFFFFFFFFFFFFFFFFFFFFFFFFFFFFFFFFFFFFFFF MUL NOT AND SWAP1 DUP4 PUSH20 0xFFFFFFFFFFFFFFFFFFFFFFFFFFFFFFFFFFFFFFFF AND MUL OR SWAP1 SSTORE POP PUSH1 0x80 DUP3 ADD MLOAD DUP2 PUSH1 0x4 ADD SSTORE PUSH1 0xA0 DUP3 ADD MLOAD DUP2 PUSH1 0x5 ADD SSTORE PUSH1 0xC0 DUP3 ADD MLOAD DUP2 PUSH1 0x6 ADD SWAP1 DUP1 MLOAD SWAP1 PUSH1 0x20 ADD SWAP1 PUSH2 0x15C5 SWAP3 SWAP2 SWAP1 PUSH2 0x36A1 JUMP JUMPDEST POP SWAP1 POP POP POP POP POP POP JUMP JUMPDEST PUSH1 0x6 PUSH1 0x20 MSTORE DUP1 PUSH1 0x0 MSTORE PUSH1 0x40 PUSH1 0x0 KECCAK256 PUSH1 0x0 SWAP2 POP SWAP1 POP DUP1 PUSH1 0x0 ADD SLOAD SWAP1 DUP1 PUSH1 0x1 ADD DUP1 SLOAD PUSH2 0x15F8 SWAP1 PUSH2 0x4850 JUMP JUMPDEST DUP1 PUSH1 0x1F ADD PUSH1 0x20 DUP1 SWAP2 DIV MUL PUSH1 0x20 ADD PUSH1 0x40 MLOAD SWAP1 DUP2 ADD PUSH1 0x40 MSTORE DUP1 SWAP3 SWAP2 SWAP1 DUP2 DUP2 MSTORE PUSH1 0x20 ADD DUP3 DUP1 SLOAD PUSH2 0x1624 SWAP1 PUSH2 0x4850 JUMP JUMPDEST DUP1 ISZERO PUSH2 0x1671 JUMPI DUP1 PUSH1 0x1F LT PUSH2 0x1646 JUMPI PUSH2 0x100 DUP1 DUP4 SLOAD DIV MUL DUP4 MSTORE SWAP2 PUSH1 0x20 ADD SWAP2 PUSH2 0x1671 JUMP JUMPDEST DUP3 ADD SWAP2 SWAP1 PUSH1 0x0 MSTORE PUSH1 0x20 PUSH1 0x0 KECCAK256 SWAP1 JUMPDEST DUP2 SLOAD DUP2 MSTORE SWAP1 PUSH1 0x1 ADD SWAP1 PUSH1 0x20 ADD DUP1 DUP4 GT PUSH2 0x1654 JUMPI DUP3 SWAP1 SUB PUSH1 0x1F AND DUP3 ADD SWAP2 JUMPDEST POP POP POP POP POP SWAP1 DUP1 PUSH1 0x2 ADD SLOAD SWAP1 DUP1 PUSH1 0x3 ADD SLOAD SWAP1 DUP1 PUSH1 0x4 ADD SLOAD SWAP1 DUP1 PUSH1 0x5 ADD SLOAD SWAP1 DUP1 PUSH1 0x6 ADD DUP1 SLOAD PUSH2 0x169E SWAP1 PUSH2 0x4850 JUMP JUMPDEST DUP1 PUSH1 0x1F ADD PUSH1 0x20 DUP1 SWAP2 DIV MUL PUSH1 0x20 ADD PUSH1 0x40 MLOAD SWAP1 DUP2 ADD PUSH1 0x40 MSTORE DUP1 SWAP3 SWAP2 SWAP1 DUP2 DUP2 MSTORE PUSH1 0x20 ADD DUP3 DUP1 SLOAD PUSH2 0x16CA SWAP1 PUSH2 0x4850 JUMP JUMPDEST DUP1 ISZERO PUSH2 0x1717 JUMPI DUP1 PUSH1 0x1F LT PUSH2 0x16EC JUMPI PUSH2 0x100 DUP1 DUP4 SLOAD DIV MUL DUP4 MSTORE SWAP2 PUSH1 0x20 ADD SWAP2 PUSH2 0x1717 JUMP JUMPDEST DUP3 ADD SWAP2 SWAP1 PUSH1 0x0 MSTORE PUSH1 0x20 PUSH1 0x0 KECCAK256 SWAP1 JUMPDEST DUP2 SLOAD DUP2 MSTORE SWAP1 PUSH1 0x1 ADD SWAP1 PUSH1 0x20 ADD DUP1 DUP4 GT PUSH2 0x16FA JUMPI DUP3 SWAP1 SUB PUSH1 0x1F AND DUP3 ADD SWAP2 JUMPDEST POP POP POP POP POP SWAP1 DUP1 PUSH1 0x7 ADD DUP1 SLOAD PUSH2 0x172C SWAP1 PUSH2 0x4850 JUMP JUMPDEST DUP1 PUSH1 0x1F ADD PUSH1 0x20 DUP1 SWAP2 DIV MUL PUSH1 0x20 ADD PUSH1 0x40 MLOAD SWAP1 DUP2 ADD PUSH1 0x40 MSTORE DUP1 SWAP3 SWAP2 SWAP1 DUP2 DUP2 MSTORE PUSH1 0x20 ADD DUP3 DUP1 SLOAD PUSH2 0x1758 SWAP1 PUSH2 0x4850 JUMP JUMPDEST DUP1 ISZERO PUSH2 0x17A5 JUMPI DUP1 PUSH1 0x1F LT PUSH2 0x177A JUMPI PUSH2 0x100 DUP1 DUP4 SLOAD DIV MUL DUP4 MSTORE SWAP2 PUSH1 0x20 ADD SWAP2 PUSH2 0x17A5 JUMP JUMPDEST DUP3 ADD SWAP2 SWAP1 PUSH1 0x0 MSTORE PUSH1 0x20 PUSH1 0x0 KECCAK256 SWAP1 JUMPDEST DUP2 SLOAD DUP2 MSTORE SWAP1 PUSH1 0x1 ADD SWAP1 PUSH1 0x20 ADD DUP1 DUP4 GT PUSH2 0x1788 JUMPI DUP3 SWAP1 SUB PUSH1 0x1F AND DUP3 ADD SWAP2 JUMPDEST POP POP POP POP POP SWAP1 DUP1 PUSH1 0x8 ADD PUSH1 0x0 SWAP1 SLOAD SWAP1 PUSH2 0x100 EXP SWAP1 DIV PUSH20 0xFFFFFFFFFFFFFFFFFFFFFFFFFFFFFFFFFFFFFFFF AND SWAP1 POP DUP10 JUMP JUMPDEST PUSH1 0x60 PUSH1 0x0 PUSH1 0xA SWAP1 POP PUSH1 0x0 PUSH1 0xA PUSH1 0x0 DUP6 PUSH20 0xFFFFFFFFFFFFFFFFFFFFFFFFFFFFFFFFFFFFFFFF AND PUSH20 0xFFFFFFFFFFFFFFFFFFFFFFFFFFFFFFFFFFFFFFFF AND DUP2 MSTORE PUSH1 0x20 ADD SWAP1 DUP2 MSTORE PUSH1 0x20 ADD PUSH1 0x0 KECCAK256 PUSH1 0x0 ADD SLOAD GT ISZERO PUSH2 0x19EF JUMPI PUSH1 0x0 PUSH1 0x9 PUSH1 0x0 DUP6 PUSH20 0xFFFFFFFFFFFFFFFFFFFFFFFFFFFFFFFFFFFFFFFF AND PUSH20 0xFFFFFFFFFFFFFFFFFFFFFFFFFFFFFFFFFFFFFFFF AND DUP2 MSTORE PUSH1 0x20 ADD SWAP1 DUP2 MSTORE PUSH1 0x20 ADD PUSH1 0x0 KECCAK256 SLOAD PUSH1 0x28 PUSH1 0xF PUSH1 0x0 DUP8 PUSH20 0xFFFFFFFFFFFFFFFFFFFFFFFFFFFFFFFFFFFFFFFF AND PUSH20 0xFFFFFFFFFFFFFFFFFFFFFFFFFFFFFFFFFFFFFFFF AND DUP2 MSTORE PUSH1 0x20 ADD SWAP1 DUP2 MSTORE PUSH1 0x20 ADD PUSH1 0x0 KECCAK256 SLOAD PUSH2 0x18B6 SWAP2 SWAP1 PUSH2 0x4738 JUMP JUMPDEST PUSH2 0x18C0 SWAP2 SWAP1 PUSH2 0x4707 JUMP JUMPDEST PUSH1 0xA PUSH1 0x0 DUP7 PUSH20 0xFFFFFFFFFFFFFFFFFFFFFFFFFFFFFFFFFFFFFFFF AND PUSH20 0xFFFFFFFFFFFFFFFFFFFFFFFFFFFFFFFFFFFFFFFF AND DUP2 MSTORE PUSH1 0x20 ADD SWAP1 DUP2 MSTORE PUSH1 0x20 ADD PUSH1 0x0 KECCAK256 PUSH1 0x0 ADD SLOAD PUSH1 0x3C PUSH1 0xA PUSH1 0x0 DUP9 PUSH20 0xFFFFFFFFFFFFFFFFFFFFFFFFFFFFFFFFFFFFFFFF AND PUSH20 0xFFFFFFFFFFFFFFFFFFFFFFFFFFFFFFFFFFFFFFFF AND DUP2 MSTORE PUSH1 0x20 ADD SWAP1 DUP2 MSTORE PUSH1 0x20 ADD PUSH1 0x0 KECCAK256 PUSH1 0x1 ADD SLOAD PUSH2 0x1952 SWAP2 SWAP1 PUSH2 0x4738 JUMP JUMPDEST PUSH2 0x195C SWAP2 SWAP1 PUSH2 0x4707 JUMP JUMPDEST PUSH2 0x1966 SWAP2 SWAP1 PUSH2 0x46B1 JUMP JUMPDEST SWAP1 POP PUSH1 0x0 PUSH1 0x5 DUP3 PUSH2 0x1977 SWAP2 SWAP1 PUSH2 0x4738 JUMP JUMPDEST SWAP1 POP PUSH1 0x0 PUSH1 0x64 DUP3 PUSH2 0x1988 SWAP2 SWAP1 PUSH2 0x4707 JUMP JUMPDEST SWAP1 POP PUSH1 0x0 DUP5 PUSH1 0x64 DUP7 DUP6 PUSH2 0x199B SWAP2 SWAP1 PUSH2 0x4738 JUMP JUMPDEST PUSH2 0x19A5 SWAP2 SWAP1 PUSH2 0x4707 JUMP JUMPDEST PUSH2 0x19AF SWAP2 SWAP1 PUSH2 0x48FC JUMP JUMPDEST SWAP1 POP PUSH2 0x19BA DUP3 PUSH2 0x3476 JUMP JUMPDEST PUSH2 0x19C3 DUP3 PUSH2 0x3476 JUMP JUMPDEST PUSH1 0x40 MLOAD PUSH1 0x20 ADD PUSH2 0x19D4 SWAP3 SWAP2 SWAP1 PUSH2 0x41BD JUMP JUMPDEST PUSH1 0x40 MLOAD PUSH1 0x20 DUP2 DUP4 SUB SUB DUP2 MSTORE SWAP1 PUSH1 0x40 MSTORE SWAP6 POP POP POP POP POP POP PUSH2 0x1AC2 JUMP JUMPDEST PUSH1 0x0 PUSH1 0x9 PUSH1 0x0 DUP6 PUSH20 0xFFFFFFFFFFFFFFFFFFFFFFFFFFFFFFFFFFFFFFFF AND PUSH20 0xFFFFFFFFFFFFFFFFFFFFFFFFFFFFFFFFFFFFFFFF AND DUP2 MSTORE PUSH1 0x20 ADD SWAP1 DUP2 MSTORE PUSH1 0x20 ADD PUSH1 0x0 KECCAK256 SLOAD PUSH1 0x14 PUSH2 0x1A3D SWAP2 SWAP1 PUSH2 0x46B1 JUMP JUMPDEST SWAP1 POP PUSH1 0x0 PUSH1 0x5 DUP3 PUSH2 0x1A4E SWAP2 SWAP1 PUSH2 0x4738 JUMP JUMPDEST SWAP1 POP PUSH1 0x0 PUSH1 0x64 DUP3 PUSH2 0x1A5F SWAP2 SWAP1 PUSH2 0x4707 JUMP JUMPDEST SWAP1 POP PUSH1 0x0 DUP5 PUSH1 0x64 DUP7 DUP6 PUSH2 0x1A72 SWAP2 SWAP1 PUSH2 0x4738 JUMP JUMPDEST PUSH2 0x1A7C SWAP2 SWAP1 PUSH2 0x4707 JUMP JUMPDEST PUSH2 0x1A86 SWAP2 SWAP1 PUSH2 0x48FC JUMP JUMPDEST SWAP1 POP PUSH2 0x1A91 DUP3 PUSH2 0x3476 JUMP JUMPDEST PUSH2 0x1A9A DUP3 PUSH2 0x3476 JUMP JUMPDEST PUSH1 0x40 MLOAD PUSH1 0x20 ADD PUSH2 0x1AAB SWAP3 SWAP2 SWAP1 PUSH2 0x41BD JUMP JUMPDEST PUSH1 0x40 MLOAD PUSH1 0x20 DUP2 DUP4 SUB SUB DUP2 MSTORE SWAP1 PUSH1 0x40 MSTORE SWAP6 POP POP POP POP POP POP JUMPDEST SWAP2 SWAP1 POP JUMP JUMPDEST PUSH1 0x2 PUSH1 0x0 SWAP1 SLOAD SWAP1 PUSH2 0x100 EXP SWAP1 DIV PUSH20 0xFFFFFFFFFFFFFFFFFFFFFFFFFFFFFFFFFFFFFFFF AND DUP2 JUMP JUMPDEST PUSH1 0xF PUSH1 0x20 MSTORE DUP1 PUSH1 0x0 MSTORE PUSH1 0x40 PUSH1 0x0 KECCAK256 PUSH1 0x0 SWAP2 POP SWAP1 POP SLOAD DUP2 JUMP JUMPDEST PUSH1 0x4 PUSH1 0x20 MSTORE DUP2 PUSH1 0x0 MSTORE PUSH1 0x40 PUSH1 0x0 KECCAK256 PUSH1 0x20 MSTORE DUP1 PUSH1 0x0 MSTORE PUSH1 0x40 PUSH1 0x0 KECCAK256 PUSH1 0x0 SWAP2 POP SWAP2 POP SWAP1 SLOAD SWAP1 PUSH2 0x100 EXP SWAP1 DIV PUSH1 0xFF AND DUP2 JUMP JUMPDEST PUSH1 0xE PUSH1 0x20 MSTORE DUP2 PUSH1 0x0 MSTORE PUSH1 0x40 PUSH1 0x0 KECCAK256 PUSH1 0x20 MSTORE DUP1 PUSH1 0x0 MSTORE PUSH1 0x40 PUSH1 0x0 KECCAK256 PUSH1 0x0 SWAP2 POP SWAP2 POP POP SLOAD DUP2 JUMP JUMPDEST PUSH1 0x60 PUSH1 0x0 PUSH1 0x5 PUSH1 0x0 DUP5 DUP2 MSTORE PUSH1 0x20 ADD SWAP1 DUP2 MSTORE PUSH1 0x20 ADD PUSH1 0x0 KECCAK256 SLOAD PUSH8 0xFFFFFFFFFFFFFFFF DUP2 GT ISZERO PUSH2 0x1B8A JUMPI PUSH2 0x1B89 PUSH2 0x49E9 JUMP JUMPDEST JUMPDEST PUSH1 0x40 MLOAD SWAP1 DUP1 DUP3 MSTORE DUP1 PUSH1 0x20 MUL PUSH1 0x20 ADD DUP3 ADD PUSH1 0x40 MSTORE DUP1 ISZERO PUSH2 0x1BC3 JUMPI DUP2 PUSH1 0x20 ADD JUMPDEST PUSH2 0x1BB0 PUSH2 0x3767 JUMP JUMPDEST DUP2 MSTORE PUSH1 0x20 ADD SWAP1 PUSH1 0x1 SWAP1 SUB SWAP1 DUP2 PUSH2 0x1BA8 JUMPI SWAP1 POP JUMPDEST POP SWAP1 POP PUSH1 0x0 DUP1 PUSH1 0x1 SWAP1 POP JUMPDEST PUSH2 0x1BD8 PUSH1 0x1 PUSH2 0x3468 JUMP JUMPDEST DUP2 GT PUSH2 0x1E1E JUMPI PUSH1 0x7 PUSH1 0x0 DUP3 DUP2 MSTORE PUSH1 0x20 ADD SWAP1 DUP2 MSTORE PUSH1 0x20 ADD PUSH1 0x0 KECCAK256 PUSH1 0x0 DUP7 DUP2 MSTORE PUSH1 0x20 ADD SWAP1 DUP2 MSTORE PUSH1 0x20 ADD PUSH1 0x0 KECCAK256 PUSH1 0x0 ADD SLOAD DUP6 EQ ISZERO PUSH2 0x1E0B JUMPI PUSH1 0x7 PUSH1 0x0 DUP3 DUP2 MSTORE PUSH1 0x20 ADD SWAP1 DUP2 MSTORE PUSH1 0x20 ADD PUSH1 0x0 KECCAK256 PUSH1 0x0 DUP7 DUP2 MSTORE PUSH1 0x20 ADD SWAP1 DUP2 MSTORE PUSH1 0x20 ADD PUSH1 0x0 KECCAK256 PUSH1 0x40 MLOAD DUP1 PUSH1 0xE0 ADD PUSH1 0x40 MSTORE SWAP1 DUP2 PUSH1 0x0 DUP3 ADD SLOAD DUP2 MSTORE PUSH1 0x20 ADD PUSH1 0x1 DUP3 ADD SLOAD DUP2 MSTORE PUSH1 0x20 ADD PUSH1 0x2 DUP3 ADD DUP1 SLOAD PUSH2 0x1C60 SWAP1 PUSH2 0x4850 JUMP JUMPDEST DUP1 PUSH1 0x1F ADD PUSH1 0x20 DUP1 SWAP2 DIV MUL PUSH1 0x20 ADD PUSH1 0x40 MLOAD SWAP1 DUP2 ADD PUSH1 0x40 MSTORE DUP1 SWAP3 SWAP2 SWAP1 DUP2 DUP2 MSTORE PUSH1 0x20 ADD DUP3 DUP1 SLOAD PUSH2 0x1C8C SWAP1 PUSH2 0x4850 JUMP JUMPDEST DUP1 ISZERO PUSH2 0x1CD9 JUMPI DUP1 PUSH1 0x1F LT PUSH2 0x1CAE JUMPI PUSH2 0x100 DUP1 DUP4 SLOAD DIV MUL DUP4 MSTORE SWAP2 PUSH1 0x20 ADD SWAP2 PUSH2 0x1CD9 JUMP JUMPDEST DUP3 ADD SWAP2 SWAP1 PUSH1 0x0 MSTORE PUSH1 0x20 PUSH1 0x0 KECCAK256 SWAP1 JUMPDEST DUP2 SLOAD DUP2 MSTORE SWAP1 PUSH1 0x1 ADD SWAP1 PUSH1 0x20 ADD DUP1 DUP4 GT PUSH2 0x1CBC JUMPI DUP3 SWAP1 SUB PUSH1 0x1F AND DUP3 ADD SWAP2 JUMPDEST POP POP POP POP POP DUP2 MSTORE PUSH1 0x20 ADD PUSH1 0x3 DUP3 ADD PUSH1 0x0 SWAP1 SLOAD SWAP1 PUSH2 0x100 EXP SWAP1 DIV PUSH20 0xFFFFFFFFFFFFFFFFFFFFFFFFFFFFFFFFFFFFFFFF AND PUSH20 0xFFFFFFFFFFFFFFFFFFFFFFFFFFFFFFFFFFFFFFFF AND PUSH20 0xFFFFFFFFFFFFFFFFFFFFFFFFFFFFFFFFFFFFFFFF AND DUP2 MSTORE PUSH1 0x20 ADD PUSH1 0x4 DUP3 ADD SLOAD DUP2 MSTORE PUSH1 0x20 ADD PUSH1 0x5 DUP3 ADD SLOAD DUP2 MSTORE PUSH1 0x20 ADD PUSH1 0x6 DUP3 ADD DUP1 SLOAD PUSH2 0x1D5C SWAP1 PUSH2 0x4850 JUMP JUMPDEST DUP1 PUSH1 0x1F ADD PUSH1 0x20 DUP1 SWAP2 DIV MUL PUSH1 0x20 ADD PUSH1 0x40 MLOAD SWAP1 DUP2 ADD PUSH1 0x40 MSTORE DUP1 SWAP3 SWAP2 SWAP1 DUP2 DUP2 MSTORE PUSH1 0x20 ADD DUP3 DUP1 SLOAD PUSH2 0x1D88 SWAP1 PUSH2 0x4850 JUMP JUMPDEST DUP1 ISZERO PUSH2 0x1DD5 JUMPI DUP1 PUSH1 0x1F LT PUSH2 0x1DAA JUMPI PUSH2 0x100 DUP1 DUP4 SLOAD DIV MUL DUP4 MSTORE SWAP2 PUSH1 0x20 ADD SWAP2 PUSH2 0x1DD5 JUMP JUMPDEST DUP3 ADD SWAP2 SWAP1 PUSH1 0x0 MSTORE PUSH1 0x20 PUSH1 0x0 KECCAK256 SWAP1 JUMPDEST DUP2 SLOAD DUP2 MSTORE SWAP1 PUSH1 0x1 ADD SWAP1 PUSH1 0x20 ADD DUP1 DUP4 GT PUSH2 0x1DB8 JUMPI DUP3 SWAP1 SUB PUSH1 0x1F AND DUP3 ADD SWAP2 JUMPDEST POP POP POP POP POP DUP2 MSTORE POP POP DUP4 DUP4 DUP2 MLOAD DUP2 LT PUSH2 0x1DF1 JUMPI PUSH2 0x1DF0 PUSH2 0x49BA JUMP JUMPDEST JUMPDEST PUSH1 0x20 MUL PUSH1 0x20 ADD ADD DUP2 SWAP1 MSTORE POP DUP2 DUP1 PUSH2 0x1E07 SWAP1 PUSH2 0x48B3 JUMP JUMPDEST SWAP3 POP POP JUMPDEST DUP1 DUP1 PUSH2 0x1E16 SWAP1 PUSH2 0x48B3 JUMP JUMPDEST SWAP2 POP POP PUSH2 0x1BCE JUMP JUMPDEST POP DUP2 SWAP3 POP POP POP SWAP2 SWAP1 POP JUMP JUMPDEST PUSH1 0xB PUSH1 0x20 MSTORE DUP2 PUSH1 0x0 MSTORE PUSH1 0x40 PUSH1 0x0 KECCAK256 PUSH1 0x20 MSTORE DUP1 PUSH1 0x0 MSTORE PUSH1 0x40 PUSH1 0x0 KECCAK256 PUSH1 0x0 SWAP2 POP SWAP2 POP POP SLOAD DUP2 JUMP JUMPDEST PUSH1 0x40 MLOAD DUP1 PUSH1 0x60 ADD PUSH1 0x40 MSTORE DUP1 DUP5 PUSH20 0xFFFFFFFFFFFFFFFFFFFFFFFFFFFFFFFFFFFFFFFF AND DUP2 MSTORE PUSH1 0x20 ADD DUP3 DUP2 MSTORE PUSH1 0x20 ADD PUSH1 0x1 ISZERO ISZERO DUP2 MSTORE POP PUSH1 0xC PUSH1 0x0 DUP7 DUP2 MSTORE PUSH1 0x20 ADD SWAP1 DUP2 MSTORE PUSH1 0x20 ADD PUSH1 0x0 KECCAK256 PUSH1 0x0 DUP5 PUSH20 0xFFFFFFFFFFFFFFFFFFFFFFFFFFFFFFFFFFFFFFFF AND PUSH20 0xFFFFFFFFFFFFFFFFFFFFFFFFFFFFFFFFFFFFFFFF AND DUP2 MSTORE PUSH1 0x20 ADD SWAP1 DUP2 MSTORE PUSH1 0x20 ADD PUSH1 0x0 KECCAK256 PUSH1 0x0 DUP3 ADD MLOAD DUP2 PUSH1 0x0 ADD PUSH1 0x0 PUSH2 0x100 EXP DUP2 SLOAD DUP2 PUSH20 0xFFFFFFFFFFFFFFFFFFFFFFFFFFFFFFFFFFFFFFFF MUL NOT AND SWAP1 DUP4 PUSH20 0xFFFFFFFFFFFFFFFFFFFFFFFFFFFFFFFFFFFFFFFF AND MUL OR SWAP1 SSTORE POP PUSH1 0x20 DUP3 ADD MLOAD DUP2 PUSH1 0x1 ADD SSTORE PUSH1 0x40 DUP3 ADD MLOAD DUP2 PUSH1 0x2 ADD PUSH1 0x0 PUSH2 0x100 EXP DUP2 SLOAD DUP2 PUSH1 0xFF MUL NOT AND SWAP1 DUP4 ISZERO ISZERO MUL OR SWAP1 SSTORE POP SWAP1 POP POP TIMESTAMP PUSH1 0xE PUSH1 0x0 DUP6 PUSH20 0xFFFFFFFFFFFFFFFFFFFFFFFFFFFFFFFFFFFFFFFF AND PUSH20 0xFFFFFFFFFFFFFFFFFFFFFFFFFFFFFFFFFFFFFFFF AND DUP2 MSTORE PUSH1 0x20 ADD SWAP1 DUP2 MSTORE PUSH1 0x20 ADD PUSH1 0x0 KECCAK256 PUSH1 0x0 DUP7 DUP2 MSTORE PUSH1 0x20 ADD SWAP1 DUP2 MSTORE PUSH1 0x20 ADD PUSH1 0x0 KECCAK256 DUP2 SWAP1 SSTORE POP PUSH1 0x1 PUSH1 0x4 PUSH1 0x0 DUP5 PUSH20 0xFFFFFFFFFFFFFFFFFFFFFFFFFFFFFFFFFFFFFFFF AND PUSH20 0xFFFFFFFFFFFFFFFFFFFFFFFFFFFFFFFFFFFFFFFF AND DUP2 MSTORE PUSH1 0x20 ADD SWAP1 DUP2 MSTORE PUSH1 0x20 ADD PUSH1 0x0 KECCAK256 PUSH1 0x0 DUP7 DUP2 MSTORE PUSH1 0x20 ADD SWAP1 DUP2 MSTORE PUSH1 0x20 ADD PUSH1 0x0 KECCAK256 PUSH1 0x0 PUSH2 0x100 EXP DUP2 SLOAD DUP2 PUSH1 0xFF MUL NOT AND SWAP1 DUP4 ISZERO ISZERO MUL OR SWAP1 SSTORE POP PUSH1 0x7 PUSH1 0x0 PUSH1 0xB PUSH1 0x0 DUP8 DUP2 MSTORE PUSH1 0x20 ADD SWAP1 DUP2 MSTORE PUSH1 0x20 ADD PUSH1 0x0 KECCAK256 PUSH1 0x0 DUP7 PUSH20 0xFFFFFFFFFFFFFFFFFFFFFFFFFFFFFFFFFFFFFFFF AND PUSH20 0xFFFFFFFFFFFFFFFFFFFFFFFFFFFFFFFFFFFFFFFF AND DUP2 MSTORE PUSH1 0x20 ADD SWAP1 DUP2 MSTORE PUSH1 0x20 ADD PUSH1 0x0 KECCAK256 SLOAD DUP2 MSTORE PUSH1 0x20 ADD SWAP1 DUP2 MSTORE PUSH1 0x20 ADD PUSH1 0x0 KECCAK256 PUSH1 0x0 DUP6 DUP2 MSTORE PUSH1 0x20 ADD SWAP1 DUP2 MSTORE PUSH1 0x20 ADD PUSH1 0x0 KECCAK256 PUSH1 0x5 ADD SLOAD TIMESTAMP PUSH2 0x2087 SWAP2 SWAP1 PUSH2 0x46B1 JUMP JUMPDEST PUSH1 0x7 PUSH1 0x0 PUSH1 0xB PUSH1 0x0 DUP9 DUP2 MSTORE PUSH1 0x20 ADD SWAP1 DUP2 MSTORE PUSH1 0x20 ADD PUSH1 0x0 KECCAK256 PUSH1 0x0 DUP8 PUSH20 0xFFFFFFFFFFFFFFFFFFFFFFFFFFFFFFFFFFFFFFFF AND PUSH20 0xFFFFFFFFFFFFFFFFFFFFFFFFFFFFFFFFFFFFFFFF AND DUP2 MSTORE PUSH1 0x20 ADD SWAP1 DUP2 MSTORE PUSH1 0x20 ADD PUSH1 0x0 KECCAK256 SLOAD DUP2 MSTORE PUSH1 0x20 ADD SWAP1 DUP2 MSTORE PUSH1 0x20 ADD PUSH1 0x0 KECCAK256 PUSH1 0x0 DUP7 DUP2 MSTORE PUSH1 0x20 ADD SWAP1 DUP2 MSTORE PUSH1 0x20 ADD PUSH1 0x0 KECCAK256 PUSH1 0x4 ADD DUP2 SWAP1 SSTORE POP PUSH1 0x1 PUSH1 0xD PUSH1 0x0 DUP5 PUSH20 0xFFFFFFFFFFFFFFFFFFFFFFFFFFFFFFFFFFFFFFFF AND PUSH20 0xFFFFFFFFFFFFFFFFFFFFFFFFFFFFFFFFFFFFFFFF AND DUP2 MSTORE PUSH1 0x20 ADD SWAP1 DUP2 MSTORE PUSH1 0x20 ADD PUSH1 0x0 KECCAK256 PUSH1 0x0 DUP7 DUP2 MSTORE PUSH1 0x20 ADD SWAP1 DUP2 MSTORE PUSH1 0x20 ADD PUSH1 0x0 KECCAK256 PUSH1 0x0 DUP6 PUSH20 0xFFFFFFFFFFFFFFFFFFFFFFFFFFFFFFFFFFFFFFFF AND PUSH20 0xFFFFFFFFFFFFFFFFFFFFFFFFFFFFFFFFFFFFFFFF AND DUP2 MSTORE PUSH1 0x20 ADD SWAP1 DUP2 MSTORE PUSH1 0x20 ADD PUSH1 0x0 KECCAK256 PUSH1 0x0 PUSH2 0x100 EXP DUP2 SLOAD DUP2 PUSH1 0xFF MUL NOT AND SWAP1 DUP4 ISZERO ISZERO MUL OR SWAP1 SSTORE POP POP POP POP POP JUMP JUMPDEST PUSH1 0xD PUSH1 0x20 MSTORE DUP3 PUSH1 0x0 MSTORE PUSH1 0x40 PUSH1 0x0 KECCAK256 PUSH1 0x20 MSTORE DUP2 PUSH1 0x0 MSTORE PUSH1 0x40 PUSH1 0x0 KECCAK256 PUSH1 0x20 MSTORE DUP1 PUSH1 0x0 MSTORE PUSH1 0x40 PUSH1 0x0 KECCAK256 PUSH1 0x0 SWAP3 POP SWAP3 POP POP SWAP1 SLOAD SWAP1 PUSH2 0x100 EXP SWAP1 DIV PUSH1 0xFF AND DUP2 JUMP JUMPDEST PUSH1 0x3 PUSH1 0x20 MSTORE DUP1 PUSH1 0x0 MSTORE PUSH1 0x40 PUSH1 0x0 KECCAK256 PUSH1 0x0 SWAP2 POP SWAP1 POP SLOAD DUP2 JUMP JUMPDEST PUSH1 0x60 PUSH1 0x0 PUSH2 0x2210 PUSH1 0x0 PUSH2 0x3468 JUMP JUMPDEST PUSH8 0xFFFFFFFFFFFFFFFF DUP2 GT ISZERO PUSH2 0x2229 JUMPI PUSH2 0x2228 PUSH2 0x49E9 JUMP JUMPDEST JUMPDEST PUSH1 0x40 MLOAD SWAP1 DUP1 DUP3 MSTORE DUP1 PUSH1 0x20 MUL PUSH1 0x20 ADD DUP3 ADD PUSH1 0x40 MSTORE DUP1 ISZERO PUSH2 0x2262 JUMPI DUP2 PUSH1 0x20 ADD JUMPDEST PUSH2 0x224F PUSH2 0x37BA JUMP JUMPDEST DUP2 MSTORE PUSH1 0x20 ADD SWAP1 PUSH1 0x1 SWAP1 SUB SWAP1 DUP2 PUSH2 0x2247 JUMPI SWAP1 POP JUMPDEST POP SWAP1 POP PUSH1 0x0 DUP1 PUSH1 0x1 SWAP1 POP JUMPDEST PUSH2 0x2277 PUSH1 0x0 PUSH2 0x3468 JUMP JUMPDEST DUP2 GT PUSH2 0x2519 JUMPI PUSH1 0x6 PUSH1 0x0 DUP3 DUP2 MSTORE PUSH1 0x20 ADD SWAP1 DUP2 MSTORE PUSH1 0x20 ADD PUSH1 0x0 KECCAK256 PUSH1 0x40 MLOAD DUP1 PUSH2 0x120 ADD PUSH1 0x40 MSTORE SWAP1 DUP2 PUSH1 0x0 DUP3 ADD SLOAD DUP2 MSTORE PUSH1 0x20 ADD PUSH1 0x1 DUP3 ADD DUP1 SLOAD PUSH2 0x22B6 SWAP1 PUSH2 0x4850 JUMP JUMPDEST DUP1 PUSH1 0x1F ADD PUSH1 0x20 DUP1 SWAP2 DIV MUL PUSH1 0x20 ADD PUSH1 0x40 MLOAD SWAP1 DUP2 ADD PUSH1 0x40 MSTORE DUP1 SWAP3 SWAP2 SWAP1 DUP2 DUP2 MSTORE PUSH1 0x20 ADD DUP3 DUP1 SLOAD PUSH2 0x22E2 SWAP1 PUSH2 0x4850 JUMP JUMPDEST DUP1 ISZERO PUSH2 0x232F JUMPI DUP1 PUSH1 0x1F LT PUSH2 0x2304 JUMPI PUSH2 0x100 DUP1 DUP4 SLOAD DIV MUL DUP4 MSTORE SWAP2 PUSH1 0x20 ADD SWAP2 PUSH2 0x232F JUMP JUMPDEST DUP3 ADD SWAP2 SWAP1 PUSH1 0x0 MSTORE PUSH1 0x20 PUSH1 0x0 KECCAK256 SWAP1 JUMPDEST DUP2 SLOAD DUP2 MSTORE SWAP1 PUSH1 0x1 ADD SWAP1 PUSH1 0x20 ADD DUP1 DUP4 GT PUSH2 0x2312 JUMPI DUP3 SWAP1 SUB PUSH1 0x1F AND DUP3 ADD SWAP2 JUMPDEST POP POP POP POP POP DUP2 MSTORE PUSH1 0x20 ADD PUSH1 0x2 DUP3 ADD SLOAD DUP2 MSTORE PUSH1 0x20 ADD PUSH1 0x3 DUP3 ADD SLOAD DUP2 MSTORE PUSH1 0x20 ADD PUSH1 0x4 DUP3 ADD SLOAD DUP2 MSTORE PUSH1 0x20 ADD PUSH1 0x5 DUP3 ADD SLOAD DUP2 MSTORE PUSH1 0x20 ADD PUSH1 0x6 DUP3 ADD DUP1 SLOAD PUSH2 0x2370 SWAP1 PUSH2 0x4850 JUMP JUMPDEST DUP1 PUSH1 0x1F ADD PUSH1 0x20 DUP1 SWAP2 DIV MUL PUSH1 0x20 ADD PUSH1 0x40 MLOAD SWAP1 DUP2 ADD PUSH1 0x40 MSTORE DUP1 SWAP3 SWAP2 SWAP1 DUP2 DUP2 MSTORE PUSH1 0x20 ADD DUP3 DUP1 SLOAD PUSH2 0x239C SWAP1 PUSH2 0x4850 JUMP JUMPDEST DUP1 ISZERO PUSH2 0x23E9 JUMPI DUP1 PUSH1 0x1F LT PUSH2 0x23BE JUMPI PUSH2 0x100 DUP1 DUP4 SLOAD DIV MUL DUP4 MSTORE SWAP2 PUSH1 0x20 ADD SWAP2 PUSH2 0x23E9 JUMP JUMPDEST DUP3 ADD SWAP2 SWAP1 PUSH1 0x0 MSTORE PUSH1 0x20 PUSH1 0x0 KECCAK256 SWAP1 JUMPDEST DUP2 SLOAD DUP2 MSTORE SWAP1 PUSH1 0x1 ADD SWAP1 PUSH1 0x20 ADD DUP1 DUP4 GT PUSH2 0x23CC JUMPI DUP3 SWAP1 SUB PUSH1 0x1F AND DUP3 ADD SWAP2 JUMPDEST POP POP POP POP POP DUP2 MSTORE PUSH1 0x20 ADD PUSH1 0x7 DUP3 ADD DUP1 SLOAD PUSH2 0x2402 SWAP1 PUSH2 0x4850 JUMP JUMPDEST DUP1 PUSH1 0x1F ADD PUSH1 0x20 DUP1 SWAP2 DIV MUL PUSH1 0x20 ADD PUSH1 0x40 MLOAD SWAP1 DUP2 ADD PUSH1 0x40 MSTORE DUP1 SWAP3 SWAP2 SWAP1 DUP2 DUP2 MSTORE PUSH1 0x20 ADD DUP3 DUP1 SLOAD PUSH2 0x242E SWAP1 PUSH2 0x4850 JUMP JUMPDEST DUP1 ISZERO PUSH2 0x247B JUMPI DUP1 PUSH1 0x1F LT PUSH2 0x2450 JUMPI PUSH2 0x100 DUP1 DUP4 SLOAD DIV MUL DUP4 MSTORE SWAP2 PUSH1 0x20 ADD SWAP2 PUSH2 0x247B JUMP JUMPDEST DUP3 ADD SWAP2 SWAP1 PUSH1 0x0 MSTORE PUSH1 0x20 PUSH1 0x0 KECCAK256 SWAP1 JUMPDEST DUP2 SLOAD DUP2 MSTORE SWAP1 PUSH1 0x1 ADD SWAP1 PUSH1 0x20 ADD DUP1 DUP4 GT PUSH2 0x245E JUMPI DUP3 SWAP1 SUB PUSH1 0x1F AND DUP3 ADD SWAP2 JUMPDEST POP POP POP POP POP DUP2 MSTORE PUSH1 0x20 ADD PUSH1 0x8 DUP3 ADD PUSH1 0x0 SWAP1 SLOAD SWAP1 PUSH2 0x100 EXP SWAP1 DIV PUSH20 0xFFFFFFFFFFFFFFFFFFFFFFFFFFFFFFFFFFFFFFFF AND PUSH20 0xFFFFFFFFFFFFFFFFFFFFFFFFFFFFFFFFFFFFFFFF AND PUSH20 0xFFFFFFFFFFFFFFFFFFFFFFFFFFFFFFFFFFFFFFFF AND DUP2 MSTORE POP POP DUP4 DUP4 DUP2 MLOAD DUP2 LT PUSH2 0x24ED JUMPI PUSH2 0x24EC PUSH2 0x49BA JUMP JUMPDEST JUMPDEST PUSH1 0x20 MUL PUSH1 0x20 ADD ADD DUP2 SWAP1 MSTORE POP DUP2 DUP1 PUSH2 0x2503 SWAP1 PUSH2 0x48B3 JUMP JUMPDEST SWAP3 POP POP DUP1 DUP1 PUSH2 0x2511 SWAP1 PUSH2 0x48B3 JUMP JUMPDEST SWAP2 POP POP PUSH2 0x226D JUMP JUMPDEST POP DUP2 SWAP3 POP POP POP SWAP1 JUMP JUMPDEST PUSH1 0x60 PUSH1 0x0 PUSH1 0x9 PUSH1 0x0 DUP5 PUSH20 0xFFFFFFFFFFFFFFFFFFFFFFFFFFFFFFFFFFFFFFFF AND PUSH20 0xFFFFFFFFFFFFFFFFFFFFFFFFFFFFFFFFFFFFFFFF AND DUP2 MSTORE PUSH1 0x20 ADD SWAP1 DUP2 MSTORE PUSH1 0x20 ADD PUSH1 0x0 KECCAK256 SLOAD PUSH8 0xFFFFFFFFFFFFFFFF DUP2 GT ISZERO PUSH2 0x257F JUMPI PUSH2 0x257E PUSH2 0x49E9 JUMP JUMPDEST JUMPDEST PUSH1 0x40 MLOAD SWAP1 DUP1 DUP3 MSTORE DUP1 PUSH1 0x20 MUL PUSH1 0x20 ADD DUP3 ADD PUSH1 0x40 MSTORE DUP1 ISZERO PUSH2 0x25B8 JUMPI DUP2 PUSH1 0x20 ADD JUMPDEST PUSH2 0x25A5 PUSH2 0x3767 JUMP JUMPDEST DUP2 MSTORE PUSH1 0x20 ADD SWAP1 PUSH1 0x1 SWAP1 SUB SWAP1 DUP2 PUSH2 0x259D JUMPI SWAP1 POP JUMPDEST POP SWAP1 POP PUSH1 0x0 DUP1 PUSH1 0x1 SWAP1 POP JUMPDEST PUSH2 0x25CD PUSH1 0x0 PUSH2 0x3468 JUMP JUMPDEST DUP2 GT PUSH2 0x288A JUMPI PUSH1 0x0 PUSH1 0x1 SWAP1 POP JUMPDEST PUSH2 0x25E4 PUSH1 0x1 PUSH2 0x3468 JUMP JUMPDEST DUP2 GT PUSH2 0x2876 JUMPI PUSH1 0x7 PUSH1 0x0 DUP3 DUP2 MSTORE PUSH1 0x20 ADD SWAP1 DUP2 MSTORE PUSH1 0x20 ADD PUSH1 0x0 KECCAK256 PUSH1 0x0 DUP4 DUP2 MSTORE PUSH1 0x20 ADD SWAP1 DUP2 MSTORE PUSH1 0x20 ADD PUSH1 0x0 KECCAK256 PUSH1 0x3 ADD PUSH1 0x0 SWAP1 SLOAD SWAP1 PUSH2 0x100 EXP SWAP1 DIV PUSH20 0xFFFFFFFFFFFFFFFFFFFFFFFFFFFFFFFFFFFFFFFF AND PUSH20 0xFFFFFFFFFFFFFFFFFFFFFFFFFFFFFFFFFFFFFFFF AND DUP7 PUSH20 0xFFFFFFFFFFFFFFFFFFFFFFFFFFFFFFFFFFFFFFFF AND EQ ISZERO PUSH2 0x2863 JUMPI PUSH1 0x7 PUSH1 0x0 DUP3 DUP2 MSTORE PUSH1 0x20 ADD SWAP1 DUP2 MSTORE PUSH1 0x20 ADD PUSH1 0x0 KECCAK256 PUSH1 0x0 DUP4 DUP2 MSTORE PUSH1 0x20 ADD SWAP1 DUP2 MSTORE PUSH1 0x20 ADD PUSH1 0x0 KECCAK256 PUSH1 0x40 MLOAD DUP1 PUSH1 0xE0 ADD PUSH1 0x40 MSTORE SWAP1 DUP2 PUSH1 0x0 DUP3 ADD SLOAD DUP2 MSTORE PUSH1 0x20 ADD PUSH1 0x1 DUP3 ADD SLOAD DUP2 MSTORE PUSH1 0x20 ADD PUSH1 0x2 DUP3 ADD DUP1 SLOAD PUSH2 0x26B8 SWAP1 PUSH2 0x4850 JUMP JUMPDEST DUP1 PUSH1 0x1F ADD PUSH1 0x20 DUP1 SWAP2 DIV MUL PUSH1 0x20 ADD PUSH1 0x40 MLOAD SWAP1 DUP2 ADD PUSH1 0x40 MSTORE DUP1 SWAP3 SWAP2 SWAP1 DUP2 DUP2 MSTORE PUSH1 0x20 ADD DUP3 DUP1 SLOAD PUSH2 0x26E4 SWAP1 PUSH2 0x4850 JUMP JUMPDEST DUP1 ISZERO PUSH2 0x2731 JUMPI DUP1 PUSH1 0x1F LT PUSH2 0x2706 JUMPI PUSH2 0x100 DUP1 DUP4 SLOAD DIV MUL DUP4 MSTORE SWAP2 PUSH1 0x20 ADD SWAP2 PUSH2 0x2731 JUMP JUMPDEST DUP3 ADD SWAP2 SWAP1 PUSH1 0x0 MSTORE PUSH1 0x20 PUSH1 0x0 KECCAK256 SWAP1 JUMPDEST DUP2 SLOAD DUP2 MSTORE SWAP1 PUSH1 0x1 ADD SWAP1 PUSH1 0x20 ADD DUP1 DUP4 GT PUSH2 0x2714 JUMPI DUP3 SWAP1 SUB PUSH1 0x1F AND DUP3 ADD SWAP2 JUMPDEST POP POP POP POP POP DUP2 MSTORE PUSH1 0x20 ADD PUSH1 0x3 DUP3 ADD PUSH1 0x0 SWAP1 SLOAD SWAP1 PUSH2 0x100 EXP SWAP1 DIV PUSH20 0xFFFFFFFFFFFFFFFFFFFFFFFFFFFFFFFFFFFFFFFF AND PUSH20 0xFFFFFFFFFFFFFFFFFFFFFFFFFFFFFFFFFFFFFFFF AND PUSH20 0xFFFFFFFFFFFFFFFFFFFFFFFFFFFFFFFFFFFFFFFF AND DUP2 MSTORE PUSH1 0x20 ADD PUSH1 0x4 DUP3 ADD SLOAD DUP2 MSTORE PUSH1 0x20 ADD PUSH1 0x5 DUP3 ADD SLOAD DUP2 MSTORE PUSH1 0x20 ADD PUSH1 0x6 DUP3 ADD DUP1 SLOAD PUSH2 0x27B4 SWAP1 PUSH2 0x4850 JUMP JUMPDEST DUP1 PUSH1 0x1F ADD PUSH1 0x20 DUP1 SWAP2 DIV MUL PUSH1 0x20 ADD PUSH1 0x40 MLOAD SWAP1 DUP2 ADD PUSH1 0x40 MSTORE DUP1 SWAP3 SWAP2 SWAP1 DUP2 DUP2 MSTORE PUSH1 0x20 ADD DUP3 DUP1 SLOAD PUSH2 0x27E0 SWAP1 PUSH2 0x4850 JUMP JUMPDEST DUP1 ISZERO PUSH2 0x282D JUMPI DUP1 PUSH1 0x1F LT PUSH2 0x2802 JUMPI PUSH2 0x100 DUP1 DUP4 SLOAD DIV MUL DUP4 MSTORE SWAP2 PUSH1 0x20 ADD SWAP2 PUSH2 0x282D JUMP JUMPDEST DUP3 ADD SWAP2 SWAP1 PUSH1 0x0 MSTORE PUSH1 0x20 PUSH1 0x0 KECCAK256 SWAP1 JUMPDEST DUP2 SLOAD DUP2 MSTORE SWAP1 PUSH1 0x1 ADD SWAP1 PUSH1 0x20 ADD DUP1 DUP4 GT PUSH2 0x2810 JUMPI DUP3 SWAP1 SUB PUSH1 0x1F AND DUP3 ADD SWAP2 JUMPDEST POP POP POP POP POP DUP2 MSTORE POP POP DUP5 DUP5 DUP2 MLOAD DUP2 LT PUSH2 0x2849 JUMPI PUSH2 0x2848 PUSH2 0x49BA JUMP JUMPDEST JUMPDEST PUSH1 0x20 MUL PUSH1 0x20 ADD ADD DUP2 SWAP1 MSTORE POP DUP3 DUP1 PUSH2 0x285F SWAP1 PUSH2 0x48B3 JUMP JUMPDEST SWAP4 POP POP JUMPDEST DUP1 DUP1 PUSH2 0x286E SWAP1 PUSH2 0x48B3 JUMP JUMPDEST SWAP2 POP POP PUSH2 0x25DA JUMP JUMPDEST POP DUP1 DUP1 PUSH2 0x2882 SWAP1 PUSH2 0x48B3 JUMP JUMPDEST SWAP2 POP POP PUSH2 0x25C3 JUMP JUMPDEST POP DUP2 SWAP3 POP POP POP SWAP2 SWAP1 POP JUMP JUMPDEST PUSH1 0x60 PUSH1 0x0 PUSH1 0x3 PUSH1 0x0 DUP5 PUSH20 0xFFFFFFFFFFFFFFFFFFFFFFFFFFFFFFFFFFFFFFFF AND PUSH20 0xFFFFFFFFFFFFFFFFFFFFFFFFFFFFFFFFFFFFFFFF AND DUP2 MSTORE PUSH1 0x20 ADD SWAP1 DUP2 MSTORE PUSH1 0x20 ADD PUSH1 0x0 KECCAK256 SLOAD PUSH8 0xFFFFFFFFFFFFFFFF DUP2 GT ISZERO PUSH2 0x28F2 JUMPI PUSH2 0x28F1 PUSH2 0x49E9 JUMP JUMPDEST JUMPDEST PUSH1 0x40 MLOAD SWAP1 DUP1 DUP3 MSTORE DUP1 PUSH1 0x20 MUL PUSH1 0x20 ADD DUP3 ADD PUSH1 0x40 MSTORE DUP1 ISZERO PUSH2 0x292B JUMPI DUP2 PUSH1 0x20 ADD JUMPDEST PUSH2 0x2918 PUSH2 0x37BA JUMP JUMPDEST DUP2 MSTORE PUSH1 0x20 ADD SWAP1 PUSH1 0x1 SWAP1 SUB SWAP1 DUP2 PUSH2 0x2910 JUMPI SWAP1 POP JUMPDEST POP SWAP1 POP PUSH1 0x0 DUP1 PUSH1 0x1 SWAP1 POP JUMPDEST PUSH2 0x2940 PUSH1 0x0 PUSH2 0x3468 JUMP JUMPDEST DUP2 GT PUSH2 0x2C4D JUMPI PUSH1 0x6 PUSH1 0x0 DUP3 DUP2 MSTORE PUSH1 0x20 ADD SWAP1 DUP2 MSTORE PUSH1 0x20 ADD PUSH1 0x0 KECCAK256 PUSH1 0x8 ADD PUSH1 0x0 SWAP1 SLOAD SWAP1 PUSH2 0x100 EXP SWAP1 DIV PUSH20 0xFFFFFFFFFFFFFFFFFFFFFFFFFFFFFFFFFFFFFFFF AND PUSH20 0xFFFFFFFFFFFFFFFFFFFFFFFFFFFFFFFFFFFFFFFF AND DUP6 PUSH20 0xFFFFFFFFFFFFFFFFFFFFFFFFFFFFFFFFFFFFFFFF AND EQ ISZERO PUSH2 0x2C3A JUMPI PUSH1 0x6 PUSH1 0x0 DUP3 DUP2 MSTORE PUSH1 0x20 ADD SWAP1 DUP2 MSTORE PUSH1 0x20 ADD PUSH1 0x0 KECCAK256 PUSH1 0x40 MLOAD DUP1 PUSH2 0x120 ADD PUSH1 0x40 MSTORE SWAP1 DUP2 PUSH1 0x0 DUP3 ADD SLOAD DUP2 MSTORE PUSH1 0x20 ADD PUSH1 0x1 DUP3 ADD DUP1 SLOAD PUSH2 0x29E9 SWAP1 PUSH2 0x4850 JUMP JUMPDEST DUP1 PUSH1 0x1F ADD PUSH1 0x20 DUP1 SWAP2 DIV MUL PUSH1 0x20 ADD PUSH1 0x40 MLOAD SWAP1 DUP2 ADD PUSH1 0x40 MSTORE DUP1 SWAP3 SWAP2 SWAP1 DUP2 DUP2 MSTORE PUSH1 0x20 ADD DUP3 DUP1 SLOAD PUSH2 0x2A15 SWAP1 PUSH2 0x4850 JUMP JUMPDEST DUP1 ISZERO PUSH2 0x2A62 JUMPI DUP1 PUSH1 0x1F LT PUSH2 0x2A37 JUMPI PUSH2 0x100 DUP1 DUP4 SLOAD DIV MUL DUP4 MSTORE SWAP2 PUSH1 0x20 ADD SWAP2 PUSH2 0x2A62 JUMP JUMPDEST DUP3 ADD SWAP2 SWAP1 PUSH1 0x0 MSTORE PUSH1 0x20 PUSH1 0x0 KECCAK256 SWAP1 JUMPDEST DUP2 SLOAD DUP2 MSTORE SWAP1 PUSH1 0x1 ADD SWAP1 PUSH1 0x20 ADD DUP1 DUP4 GT PUSH2 0x2A45 JUMPI DUP3 SWAP1 SUB PUSH1 0x1F AND DUP3 ADD SWAP2 JUMPDEST POP POP POP POP POP DUP2 MSTORE PUSH1 0x20 ADD PUSH1 0x2 DUP3 ADD SLOAD DUP2 MSTORE PUSH1 0x20 ADD PUSH1 0x3 DUP3 ADD SLOAD DUP2 MSTORE PUSH1 0x20 ADD PUSH1 0x4 DUP3 ADD SLOAD DUP2 MSTORE PUSH1 0x20 ADD PUSH1 0x5 DUP3 ADD SLOAD DUP2 MSTORE PUSH1 0x20 ADD PUSH1 0x6 DUP3 ADD DUP1 SLOAD PUSH2 0x2AA3 SWAP1 PUSH2 0x4850 JUMP JUMPDEST DUP1 PUSH1 0x1F ADD PUSH1 0x20 DUP1 SWAP2 DIV MUL PUSH1 0x20 ADD PUSH1 0x40 MLOAD SWAP1 DUP2 ADD PUSH1 0x40 MSTORE DUP1 SWAP3 SWAP2 SWAP1 DUP2 DUP2 MSTORE PUSH1 0x20 ADD DUP3 DUP1 SLOAD PUSH2 0x2ACF SWAP1 PUSH2 0x4850 JUMP JUMPDEST DUP1 ISZERO PUSH2 0x2B1C JUMPI DUP1 PUSH1 0x1F LT PUSH2 0x2AF1 JUMPI PUSH2 0x100 DUP1 DUP4 SLOAD DIV MUL DUP4 MSTORE SWAP2 PUSH1 0x20 ADD SWAP2 PUSH2 0x2B1C JUMP JUMPDEST DUP3 ADD SWAP2 SWAP1 PUSH1 0x0 MSTORE PUSH1 0x20 PUSH1 0x0 KECCAK256 SWAP1 JUMPDEST DUP2 SLOAD DUP2 MSTORE SWAP1 PUSH1 0x1 ADD SWAP1 PUSH1 0x20 ADD DUP1 DUP4 GT PUSH2 0x2AFF JUMPI DUP3 SWAP1 SUB PUSH1 0x1F AND DUP3 ADD SWAP2 JUMPDEST POP POP POP POP POP DUP2 MSTORE PUSH1 0x20 ADD PUSH1 0x7 DUP3 ADD DUP1 SLOAD PUSH2 0x2B35 SWAP1 PUSH2 0x4850 JUMP JUMPDEST DUP1 PUSH1 0x1F ADD PUSH1 0x20 DUP1 SWAP2 DIV MUL PUSH1 0x20 ADD PUSH1 0x40 MLOAD SWAP1 DUP2 ADD PUSH1 0x40 MSTORE DUP1 SWAP3 SWAP2 SWAP1 DUP2 DUP2 MSTORE PUSH1 0x20 ADD DUP3 DUP1 SLOAD PUSH2 0x2B61 SWAP1 PUSH2 0x4850 JUMP JUMPDEST DUP1 ISZERO PUSH2 0x2BAE JUMPI DUP1 PUSH1 0x1F LT PUSH2 0x2B83 JUMPI PUSH2 0x100 DUP1 DUP4 SLOAD DIV MUL DUP4 MSTORE SWAP2 PUSH1 0x20 ADD SWAP2 PUSH2 0x2BAE JUMP JUMPDEST DUP3 ADD SWAP2 SWAP1 PUSH1 0x0 MSTORE PUSH1 0x20 PUSH1 0x0 KECCAK256 SWAP1 JUMPDEST DUP2 SLOAD DUP2 MSTORE SWAP1 PUSH1 0x1 ADD SWAP1 PUSH1 0x20 ADD DUP1 DUP4 GT PUSH2 0x2B91 JUMPI DUP3 SWAP1 SUB PUSH1 0x1F AND DUP3 ADD SWAP2 JUMPDEST POP POP POP POP POP DUP2 MSTORE PUSH1 0x20 ADD PUSH1 0x8 DUP3 ADD PUSH1 0x0 SWAP1 SLOAD SWAP1 PUSH2 0x100 EXP SWAP1 DIV PUSH20 0xFFFFFFFFFFFFFFFFFFFFFFFFFFFFFFFFFFFFFFFF AND PUSH20 0xFFFFFFFFFFFFFFFFFFFFFFFFFFFFFFFFFFFFFFFF AND PUSH20 0xFFFFFFFFFFFFFFFFFFFFFFFFFFFFFFFFFFFFFFFF AND DUP2 MSTORE POP POP DUP4 DUP4 DUP2 MLOAD DUP2 LT PUSH2 0x2C20 JUMPI PUSH2 0x2C1F PUSH2 0x49BA JUMP JUMPDEST JUMPDEST PUSH1 0x20 MUL PUSH1 0x20 ADD ADD DUP2 SWAP1 MSTORE POP DUP2 DUP1 PUSH2 0x2C36 SWAP1 PUSH2 0x48B3 JUMP JUMPDEST SWAP3 POP POP JUMPDEST DUP1 DUP1 PUSH2 0x2C45 SWAP1 PUSH2 0x48B3 JUMP JUMPDEST SWAP2 POP POP PUSH2 0x2936 JUMP JUMPDEST POP DUP2 SWAP3 POP POP POP SWAP2 SWAP1 POP JUMP JUMPDEST DUP3 PUSH20 0xFFFFFFFFFFFFFFFFFFFFFFFFFFFFFFFFFFFFFFFF AND PUSH1 0xC PUSH1 0x0 DUP4 DUP2 MSTORE PUSH1 0x20 ADD SWAP1 DUP2 MSTORE PUSH1 0x20 ADD PUSH1 0x0 KECCAK256 PUSH1 0x0 DUP5 PUSH20 0xFFFFFFFFFFFFFFFFFFFFFFFFFFFFFFFFFFFFFFFF AND PUSH20 0xFFFFFFFFFFFFFFFFFFFFFFFFFFFFFFFFFFFFFFFF AND DUP2 MSTORE PUSH1 0x20 ADD SWAP1 DUP2 MSTORE PUSH1 0x20 ADD PUSH1 0x0 KECCAK256 PUSH1 0x0 ADD PUSH1 0x0 SWAP1 SLOAD SWAP1 PUSH2 0x100 EXP SWAP1 DIV PUSH20 0xFFFFFFFFFFFFFFFFFFFFFFFFFFFFFFFFFFFFFFFF AND PUSH20 0xFFFFFFFFFFFFFFFFFFFFFFFFFFFFFFFFFFFFFFFF AND EQ PUSH2 0x2D39 JUMPI PUSH1 0x40 MLOAD PUSH32 0x8C379A000000000000000000000000000000000000000000000000000000000 DUP2 MSTORE PUSH1 0x4 ADD PUSH2 0x2D30 SWAP1 PUSH2 0x4380 JUMP JUMPDEST PUSH1 0x40 MLOAD DUP1 SWAP2 SUB SWAP1 REVERT JUMPDEST PUSH1 0xC PUSH1 0x0 DUP3 DUP2 MSTORE PUSH1 0x20 ADD SWAP1 DUP2 MSTORE PUSH1 0x20 ADD PUSH1 0x0 KECCAK256 PUSH1 0x0 DUP4 PUSH20 0xFFFFFFFFFFFFFFFFFFFFFFFFFFFFFFFFFFFFFFFF AND PUSH20 0xFFFFFFFFFFFFFFFFFFFFFFFFFFFFFFFFFFFFFFFF AND DUP2 MSTORE PUSH1 0x20 ADD SWAP1 DUP2 MSTORE PUSH1 0x20 ADD PUSH1 0x0 KECCAK256 PUSH1 0x2 ADD PUSH1 0x0 SWAP1 SLOAD SWAP1 PUSH2 0x100 EXP SWAP1 DIV PUSH1 0xFF AND PUSH2 0x2DD9 JUMPI PUSH1 0x40 MLOAD PUSH32 0x8C379A000000000000000000000000000000000000000000000000000000000 DUP2 MSTORE PUSH1 0x4 ADD PUSH2 0x2DD0 SWAP1 PUSH2 0x4420 JUMP JUMPDEST PUSH1 0x40 MLOAD DUP1 SWAP2 SUB SWAP1 REVERT JUMPDEST PUSH1 0x3C PUSH1 0x7 PUSH1 0x0 PUSH1 0xB PUSH1 0x0 DUP6 DUP2 MSTORE PUSH1 0x20 ADD SWAP1 DUP2 MSTORE PUSH1 0x20 ADD PUSH1 0x0 KECCAK256 PUSH1 0x0 DUP8 PUSH20 0xFFFFFFFFFFFFFFFFFFFFFFFFFFFFFFFFFFFFFFFF AND PUSH20 0xFFFFFFFFFFFFFFFFFFFFFFFFFFFFFFFFFFFFFFFF AND DUP2 MSTORE PUSH1 0x20 ADD SWAP1 DUP2 MSTORE PUSH1 0x20 ADD PUSH1 0x0 KECCAK256 SLOAD DUP2 MSTORE PUSH1 0x20 ADD SWAP1 DUP2 MSTORE PUSH1 0x20 ADD PUSH1 0x0 KECCAK256 PUSH1 0x0 DUP4 DUP2 MSTORE PUSH1 0x20 ADD SWAP1 DUP2 MSTORE PUSH1 0x20 ADD PUSH1 0x0 KECCAK256 PUSH1 0x5 ADD SLOAD PUSH2 0x2E5D SWAP2 SWAP1 PUSH2 0x4707 JUMP JUMPDEST PUSH1 0xA PUSH1 0x0 DUP6 PUSH20 0xFFFFFFFFFFFFFFFFFFFFFFFFFFFFFFFFFFFFFFFF AND PUSH20 0xFFFFFFFFFFFFFFFFFFFFFFFFFFFFFFFFFFFFFFFF AND DUP2 MSTORE PUSH1 0x20 ADD SWAP1 DUP2 MSTORE PUSH1 0x20 ADD PUSH1 0x0 KECCAK256 PUSH1 0x1 ADD PUSH1 0x0 DUP3 DUP3 SLOAD PUSH2 0x2EAE SWAP2 SWAP1 PUSH2 0x46B1 JUMP JUMPDEST SWAP3 POP POP DUP2 SWAP1 SSTORE POP PUSH1 0x3C PUSH1 0xE PUSH1 0x0 DUP6 PUSH20 0xFFFFFFFFFFFFFFFFFFFFFFFFFFFFFFFFFFFFFFFF AND PUSH20 0xFFFFFFFFFFFFFFFFFFFFFFFFFFFFFFFFFFFFFFFF AND DUP2 MSTORE PUSH1 0x20 ADD SWAP1 DUP2 MSTORE PUSH1 0x20 ADD PUSH1 0x0 KECCAK256 PUSH1 0x0 DUP4 DUP2 MSTORE PUSH1 0x20 ADD SWAP1 DUP2 MSTORE PUSH1 0x20 ADD PUSH1 0x0 KECCAK256 SLOAD TIMESTAMP PUSH2 0x2F13 SWAP2 SWAP1 PUSH2 0x4792 JUMP JUMPDEST PUSH2 0x2F1D SWAP2 SWAP1 PUSH2 0x4707 JUMP JUMPDEST PUSH1 0xA PUSH1 0x0 DUP6 PUSH20 0xFFFFFFFFFFFFFFFFFFFFFFFFFFFFFFFFFFFFFFFF AND PUSH20 0xFFFFFFFFFFFFFFFFFFFFFFFFFFFFFFFFFFFFFFFF AND DUP2 MSTORE PUSH1 0x20 ADD SWAP1 DUP2 MSTORE PUSH1 0x20 ADD PUSH1 0x0 KECCAK256 PUSH1 0x0 ADD PUSH1 0x0 DUP3 DUP3 SLOAD PUSH2 0x2F6E SWAP2 SWAP1 PUSH2 0x46B1 JUMP JUMPDEST SWAP3 POP POP DUP2 SWAP1 SSTORE POP PUSH1 0x1 PUSH1 0xA PUSH1 0x0 DUP6 PUSH20 0xFFFFFFFFFFFFFFFFFFFFFFFFFFFFFFFFFFFFFFFF AND PUSH20 0xFFFFFFFFFFFFFFFFFFFFFFFFFFFFFFFFFFFFFFFF AND DUP2 MSTORE PUSH1 0x20 ADD SWAP1 DUP2 MSTORE PUSH1 0x20 ADD PUSH1 0x0 KECCAK256 PUSH1 0x2 ADD PUSH1 0x0 DUP3 DUP3 SLOAD PUSH2 0x2FC8 SWAP2 SWAP1 PUSH2 0x46B1 JUMP JUMPDEST SWAP3 POP POP DUP2 SWAP1 SSTORE POP PUSH1 0x1 PUSH1 0xF PUSH1 0x0 DUP6 PUSH20 0xFFFFFFFFFFFFFFFFFFFFFFFFFFFFFFFFFFFFFFFF AND PUSH20 0xFFFFFFFFFFFFFFFFFFFFFFFFFFFFFFFFFFFFFFFF AND DUP2 MSTORE PUSH1 0x20 ADD SWAP1 DUP2 MSTORE PUSH1 0x20 ADD PUSH1 0x0 KECCAK256 PUSH1 0x0 DUP3 DUP3 SLOAD PUSH2 0x301F SWAP2 SWAP1 PUSH2 0x46B1 JUMP JUMPDEST SWAP3 POP POP DUP2 SWAP1 SSTORE POP PUSH1 0x0 PUSH1 0xC PUSH1 0x0 DUP4 DUP2 MSTORE PUSH1 0x20 ADD SWAP1 DUP2 MSTORE PUSH1 0x20 ADD PUSH1 0x0 KECCAK256 PUSH1 0x0 DUP5 PUSH20 0xFFFFFFFFFFFFFFFFFFFFFFFFFFFFFFFFFFFFFFFF AND PUSH20 0xFFFFFFFFFFFFFFFFFFFFFFFFFFFFFFFFFFFFFFFF AND DUP2 MSTORE PUSH1 0x20 ADD SWAP1 DUP2 MSTORE PUSH1 0x20 ADD PUSH1 0x0 KECCAK256 PUSH1 0x2 ADD PUSH1 0x0 PUSH2 0x100 EXP DUP2 SLOAD DUP2 PUSH1 0xFF MUL NOT AND SWAP1 DUP4 ISZERO ISZERO MUL OR SWAP1 SSTORE POP DUP3 PUSH20 0xFFFFFFFFFFFFFFFFFFFFFFFFFFFFFFFFFFFFFFFF AND PUSH2 0x8FC PUSH1 0xC PUSH1 0x0 DUP5 DUP2 MSTORE PUSH1 0x20 ADD SWAP1 DUP2 MSTORE PUSH1 0x20 ADD PUSH1 0x0 KECCAK256 PUSH1 0x0 DUP6 PUSH20 0xFFFFFFFFFFFFFFFFFFFFFFFFFFFFFFFFFFFFFFFF AND PUSH20 0xFFFFFFFFFFFFFFFFFFFFFFFFFFFFFFFFFFFFFFFF AND DUP2 MSTORE PUSH1 0x20 ADD SWAP1 DUP2 MSTORE PUSH1 0x20 ADD PUSH1 0x0 KECCAK256 PUSH1 0x1 ADD SLOAD SWAP1 DUP2 ISZERO MUL SWAP1 PUSH1 0x40 MLOAD PUSH1 0x0 PUSH1 0x40 MLOAD DUP1 DUP4 SUB DUP2 DUP6 DUP9 DUP9 CALL SWAP4 POP POP POP POP ISZERO DUP1 ISZERO PUSH2 0x312B JUMPI RETURNDATASIZE PUSH1 0x0 DUP1 RETURNDATACOPY RETURNDATASIZE PUSH1 0x0 REVERT JUMPDEST POP POP POP POP JUMP JUMPDEST PUSH1 0x0 DUP1 PUSH1 0x0 ADD SLOAD SWAP1 POP DUP2 JUMP JUMPDEST PUSH1 0x10 PUSH1 0x0 DUP3 PUSH20 0xFFFFFFFFFFFFFFFFFFFFFFFFFFFFFFFFFFFFFFFF AND PUSH20 0xFFFFFFFFFFFFFFFFFFFFFFFFFFFFFFFFFFFFFFFF AND DUP2 MSTORE PUSH1 0x20 ADD SWAP1 DUP2 MSTORE PUSH1 0x20 ADD PUSH1 0x0 KECCAK256 PUSH1 0x2 ADD PUSH1 0x14 SWAP1 SLOAD SWAP1 PUSH2 0x100 EXP SWAP1 DIV PUSH1 0xFF AND PUSH2 0x31CC JUMPI PUSH1 0x40 MLOAD PUSH32 0x8C379A000000000000000000000000000000000000000000000000000000000 DUP2 MSTORE PUSH1 0x4 ADD PUSH2 0x31C3 SWAP1 PUSH2 0x4320 JUMP JUMPDEST PUSH1 0x40 MLOAD DUP1 SWAP2 SUB SWAP1 REVERT JUMPDEST PUSH1 0x10 PUSH1 0x0 DUP3 PUSH20 0xFFFFFFFFFFFFFFFFFFFFFFFFFFFFFFFFFFFFFFFF AND PUSH20 0xFFFFFFFFFFFFFFFFFFFFFFFFFFFFFFFFFFFFFFFF AND DUP2 MSTORE PUSH1 0x20 ADD SWAP1 DUP2 MSTORE PUSH1 0x20 ADD PUSH1 0x0 KECCAK256 PUSH1 0x2 ADD PUSH1 0x15 SWAP1 SLOAD SWAP1 PUSH2 0x100 EXP SWAP1 DIV PUSH1 0xFF AND ISZERO PUSH2 0x325C JUMPI PUSH1 0x40 MLOAD PUSH32 0x8C379A000000000000000000000000000000000000000000000000000000000 DUP2 MSTORE PUSH1 0x4 ADD PUSH2 0x3253 SWAP1 PUSH2 0x4360 JUMP JUMPDEST PUSH1 0x40 MLOAD DUP1 SWAP2 SUB SWAP1 REVERT JUMPDEST PUSH1 0x1 PUSH1 0x10 PUSH1 0x0 DUP4 PUSH20 0xFFFFFFFFFFFFFFFFFFFFFFFFFFFFFFFFFFFFFFFF AND PUSH20 0xFFFFFFFFFFFFFFFFFFFFFFFFFFFFFFFFFFFFFFFF AND DUP2 MSTORE PUSH1 0x20 ADD SWAP1 DUP2 MSTORE PUSH1 0x20 ADD PUSH1 0x0 KECCAK256 PUSH1 0x2 ADD PUSH1 0x15 PUSH2 0x100 EXP DUP2 SLOAD DUP2 PUSH1 0xFF MUL NOT AND SWAP1 DUP4 ISZERO ISZERO MUL OR SWAP1 SSTORE POP POP JUMP JUMPDEST PUSH1 0x10 PUSH1 0x20 MSTORE DUP1 PUSH1 0x0 MSTORE PUSH1 0x40 PUSH1 0x0 KECCAK256 PUSH1 0x0 SWAP2 POP SWAP1 POP DUP1 PUSH1 0x0 ADD DUP1 SLOAD PUSH2 0x32DD SWAP1 PUSH2 0x4850 JUMP JUMPDEST DUP1 PUSH1 0x1F ADD PUSH1 0x20 DUP1 SWAP2 DIV MUL PUSH1 0x20 ADD PUSH1 0x40 MLOAD SWAP1 DUP2 ADD PUSH1 0x40 MSTORE DUP1 SWAP3 SWAP2 SWAP1 DUP2 DUP2 MSTORE PUSH1 0x20 ADD DUP3 DUP1 SLOAD PUSH2 0x3309 SWAP1 PUSH2 0x4850 JUMP JUMPDEST DUP1 ISZERO PUSH2 0x3356 JUMPI DUP1 PUSH1 0x1F LT PUSH2 0x332B JUMPI PUSH2 0x100 DUP1 DUP4 SLOAD DIV MUL DUP4 MSTORE SWAP2 PUSH1 0x20 ADD SWAP2 PUSH2 0x3356 JUMP JUMPDEST DUP3 ADD SWAP2 SWAP1 PUSH1 0x0 MSTORE PUSH1 0x20 PUSH1 0x0 KECCAK256 SWAP1 JUMPDEST DUP2 SLOAD DUP2 MSTORE SWAP1 PUSH1 0x1 ADD SWAP1 PUSH1 0x20 ADD DUP1 DUP4 GT PUSH2 0x3339 JUMPI DUP3 SWAP1 SUB PUSH1 0x1F AND DUP3 ADD SWAP2 JUMPDEST POP POP POP POP POP SWAP1 DUP1 PUSH1 0x1 ADD DUP1 SLOAD PUSH2 0x336B SWAP1 PUSH2 0x4850 JUMP JUMPDEST DUP1 PUSH1 0x1F ADD PUSH1 0x20 DUP1 SWAP2 DIV MUL PUSH1 0x20 ADD PUSH1 0x40 MLOAD SWAP1 DUP2 ADD PUSH1 0x40 MSTORE DUP1 SWAP3 SWAP2 SWAP1 DUP2 DUP2 MSTORE PUSH1 0x20 ADD DUP3 DUP1 SLOAD PUSH2 0x3397 SWAP1 PUSH2 0x4850 JUMP JUMPDEST DUP1 ISZERO PUSH2 0x33E4 JUMPI DUP1 PUSH1 0x1F LT PUSH2 0x33B9 JUMPI PUSH2 0x100 DUP1 DUP4 SLOAD DIV MUL DUP4 MSTORE SWAP2 PUSH1 0x20 ADD SWAP2 PUSH2 0x33E4 JUMP JUMPDEST DUP3 ADD SWAP2 SWAP1 PUSH1 0x0 MSTORE PUSH1 0x20 PUSH1 0x0 KECCAK256 SWAP1 JUMPDEST DUP2 SLOAD DUP2 MSTORE SWAP1 PUSH1 0x1 ADD SWAP1 PUSH1 0x20 ADD DUP1 DUP4 GT PUSH2 0x33C7 JUMPI DUP3 SWAP1 SUB PUSH1 0x1F AND DUP3 ADD SWAP2 JUMPDEST POP POP POP POP POP SWAP1 DUP1 PUSH1 0x2 ADD PUSH1 0x0 SWAP1 SLOAD SWAP1 PUSH2 0x100 EXP SWAP1 DIV PUSH20 0xFFFFFFFFFFFFFFFFFFFFFFFFFFFFFFFFFFFFFFFF AND SWAP1 DUP1 PUSH1 0x2 ADD PUSH1 0x14 SWAP1 SLOAD SWAP1 PUSH2 0x100 EXP SWAP1 DIV PUSH1 0xFF AND SWAP1 DUP1 PUSH1 0x2 ADD PUSH1 0x15 SWAP1 SLOAD SWAP1 PUSH2 0x100 EXP SWAP1 DIV PUSH1 0xFF AND SWAP1 POP DUP6 JUMP JUMPDEST PUSH1 0x5 PUSH1 0x20 MSTORE DUP1 PUSH1 0x0 MSTORE PUSH1 0x40 PUSH1 0x0 KECCAK256 PUSH1 0x0 SWAP2 POP SWAP1 POP SLOAD DUP2 JUMP JUMPDEST PUSH1 0x1 DUP2 PUSH1 0x0 ADD PUSH1 0x0 DUP3 DUP3 SLOAD ADD SWAP3 POP POP DUP2 SWAP1 SSTORE POP POP JUMP JUMPDEST PUSH1 0x0 DUP2 PUSH1 0x0 ADD SLOAD SWAP1 POP SWAP2 SWAP1 POP JUMP JUMPDEST PUSH1 0x60 PUSH1 0x0 PUSH1 0x1 PUSH2 0x3485 DUP5 PUSH2 0x354E JUMP JUMPDEST ADD SWAP1 POP PUSH1 0x0 DUP2 PUSH8 0xFFFFFFFFFFFFFFFF DUP2 GT ISZERO PUSH2 0x34A4 JUMPI PUSH2 0x34A3 PUSH2 0x49E9 JUMP JUMPDEST JUMPDEST PUSH1 0x40 MLOAD SWAP1 DUP1 DUP3 MSTORE DUP1 PUSH1 0x1F ADD PUSH1 0x1F NOT AND PUSH1 0x20 ADD DUP3 ADD PUSH1 0x40 MSTORE DUP1 ISZERO PUSH2 0x34D6 JUMPI DUP2 PUSH1 0x20 ADD PUSH1 0x1 DUP3 MUL DUP1 CALLDATASIZE DUP4 CALLDATACOPY DUP1 DUP3 ADD SWAP2 POP POP SWAP1 POP JUMPDEST POP SWAP1 POP PUSH1 0x0 DUP3 PUSH1 0x20 ADD DUP3 ADD SWAP1 POP JUMPDEST PUSH1 0x1 ISZERO PUSH2 0x3543 JUMPI DUP1 DUP1 PUSH1 0x1 SWAP1 SUB SWAP2 POP POP PUSH32 0x3031323334353637383961626364656600000000000000000000000000000000 PUSH1 0xA DUP7 MOD BYTE DUP2 MSTORE8 PUSH1 0xA DUP6 DUP2 PUSH2 0x352D JUMPI PUSH2 0x352C PUSH2 0x495C JUMP JUMPDEST JUMPDEST DIV SWAP5 POP PUSH1 0x0 DUP6 EQ ISZERO PUSH2 0x353E JUMPI PUSH2 0x3543 JUMP JUMPDEST PUSH2 0x34E4 JUMP JUMPDEST DUP2 SWAP4 POP POP POP POP SWAP2 SWAP1 POP JUMP JUMPDEST PUSH1 0x0 DUP1 PUSH1 0x0 SWAP1 POP PUSH27 0x184F03E93FF9F4DAA797ED6E38ED64BF6A1F010000000000000000 DUP4 LT PUSH2 0x35AC JUMPI PUSH27 0x184F03E93FF9F4DAA797ED6E38ED64BF6A1F010000000000000000 DUP4 DUP2 PUSH2 0x35A2 JUMPI PUSH2 0x35A1 PUSH2 0x495C JUMP JUMPDEST JUMPDEST DIV SWAP3 POP PUSH1 0x40 DUP2 ADD SWAP1 POP JUMPDEST PUSH14 0x4EE2D6D415B85ACEF8100000000 DUP4 LT PUSH2 0x35E9 JUMPI PUSH14 0x4EE2D6D415B85ACEF8100000000 DUP4 DUP2 PUSH2 0x35DF JUMPI PUSH2 0x35DE PUSH2 0x495C JUMP JUMPDEST JUMPDEST DIV SWAP3 POP PUSH1 0x20 DUP2 ADD SWAP1 POP JUMPDEST PUSH7 0x2386F26FC10000 DUP4 LT PUSH2 0x3618 JUMPI PUSH7 0x2386F26FC10000 DUP4 DUP2 PUSH2 0x360E JUMPI PUSH2 0x360D PUSH2 0x495C JUMP JUMPDEST JUMPDEST DIV SWAP3 POP PUSH1 0x10 DUP2 ADD SWAP1 POP JUMPDEST PUSH4 0x5F5E100 DUP4 LT PUSH2 0x3641 JUMPI PUSH4 0x5F5E100 DUP4 DUP2 PUSH2 0x3637 JUMPI PUSH2 0x3636 PUSH2 0x495C JUMP JUMPDEST JUMPDEST DIV SWAP3 POP PUSH1 0x8 DUP2 ADD SWAP1 POP JUMPDEST PUSH2 0x2710 DUP4 LT PUSH2 0x3666 JUMPI PUSH2 0x2710 DUP4 DUP2 PUSH2 0x365C JUMPI PUSH2 0x365B PUSH2 0x495C JUMP JUMPDEST JUMPDEST DIV SWAP3 POP PUSH1 0x4 DUP2 ADD SWAP1 POP JUMPDEST PUSH1 0x64 DUP4 LT PUSH2 0x3689 JUMPI PUSH1 0x64 DUP4 DUP2 PUSH2 0x367F JUMPI PUSH2 0x367E PUSH2 0x495C JUMP JUMPDEST JUMPDEST DIV SWAP3 POP PUSH1 0x2 DUP2 ADD SWAP1 POP JUMPDEST PUSH1 0xA DUP4 LT PUSH2 0x3698 JUMPI PUSH1 0x1 DUP2 ADD SWAP1 POP JUMPDEST DUP1 SWAP2 POP POP SWAP2 SWAP1 POP JUMP JUMPDEST DUP3 DUP1 SLOAD PUSH2 0x36AD SWAP1 PUSH2 0x4850 JUMP JUMPDEST SWAP1 PUSH1 0x0 MSTORE PUSH1 0x20 PUSH1 0x0 KECCAK256 SWAP1 PUSH1 0x1F ADD PUSH1 0x20 SWAP1 DIV DUP2 ADD SWAP3 DUP3 PUSH2 0x36CF JUMPI PUSH1 0x0 DUP6 SSTORE PUSH2 0x3716 JUMP JUMPDEST DUP3 PUSH1 0x1F LT PUSH2 0x36E8 JUMPI DUP1 MLOAD PUSH1 0xFF NOT AND DUP4 DUP1 ADD OR DUP6 SSTORE PUSH2 0x3716 JUMP JUMPDEST DUP3 DUP1 ADD PUSH1 0x1 ADD DUP6 SSTORE DUP3 ISZERO PUSH2 0x3716 JUMPI SWAP2 DUP3 ADD JUMPDEST DUP3 DUP2 GT ISZERO PUSH2 0x3715 JUMPI DUP3 MLOAD DUP3 SSTORE SWAP2 PUSH1 0x20 ADD SWAP2 SWAP1 PUSH1 0x1 ADD SWAP1 PUSH2 0x36FA JUMP JUMPDEST JUMPDEST POP SWAP1 POP PUSH2 0x3723 SWAP2 SWAP1 PUSH2 0x381C JUMP JUMPDEST POP SWAP1 JUMP JUMPDEST POP DUP1 SLOAD PUSH2 0x3733 SWAP1 PUSH2 0x4850 JUMP JUMPDEST PUSH1 0x0 DUP3 SSTORE DUP1 PUSH1 0x1F LT PUSH2 0x3745 JUMPI POP PUSH2 0x3764 JUMP JUMPDEST PUSH1 0x1F ADD PUSH1 0x20 SWAP1 DIV SWAP1 PUSH1 0x0 MSTORE PUSH1 0x20 PUSH1 0x0 KECCAK256 SWAP1 DUP2 ADD SWAP1 PUSH2 0x3763 SWAP2 SWAP1 PUSH2 0x381C JUMP JUMPDEST JUMPDEST POP JUMP JUMPDEST PUSH1 0x40 MLOAD DUP1 PUSH1 0xE0 ADD PUSH1 0x40 MSTORE DUP1 PUSH1 0x0 DUP2 MSTORE PUSH1 0x20 ADD PUSH1 0x0 DUP2 MSTORE PUSH1 0x20 ADD PUSH1 0x60 DUP2 MSTORE PUSH1 0x20 ADD PUSH1 0x0 PUSH20 0xFFFFFFFFFFFFFFFFFFFFFFFFFFFFFFFFFFFFFFFF AND DUP2 MSTORE PUSH1 0x20 ADD PUSH1 0x0 DUP2 MSTORE PUSH1 0x20 ADD PUSH1 0x0 DUP2 MSTORE PUSH1 0x20 ADD PUSH1 0x60 DUP2 MSTORE POP SWAP1 JUMP JUMPDEST PUSH1 0x40 MLOAD DUP1 PUSH2 0x120 ADD PUSH1 0x40 MSTORE DUP1 PUSH1 0x0 DUP2 MSTORE PUSH1 0x20 ADD PUSH1 0x60 DUP2 MSTORE PUSH1 0x20 ADD PUSH1 0x0 DUP2 MSTORE PUSH1 0x20 ADD PUSH1 0x0 DUP2 MSTORE PUSH1 0x20 ADD PUSH1 0x0 DUP2 MSTORE PUSH1 0x20 ADD PUSH1 0x0 DUP2 MSTORE PUSH1 0x20 ADD PUSH1 0x60 DUP2 MSTORE PUSH1 0x20 ADD PUSH1 0x60 DUP2 MSTORE PUSH1 0x20 ADD PUSH1 0x0 PUSH20 0xFFFFFFFFFFFFFFFFFFFFFFFFFFFFFFFFFFFFFFFF AND DUP2 MSTORE POP SWAP1 JUMP JUMPDEST JUMPDEST DUP1 DUP3 GT ISZERO PUSH2 0x3835 JUMPI PUSH1 0x0 DUP2 PUSH1 0x0 SWAP1 SSTORE POP PUSH1 0x1 ADD PUSH2 0x381D JUMP JUMPDEST POP SWAP1 JUMP JUMPDEST PUSH1 0x0 PUSH2 0x384C PUSH2 0x3847 DUP5 PUSH2 0x45D6 JUMP JUMPDEST PUSH2 0x45B1 JUMP JUMPDEST SWAP1 POP DUP3 DUP2 MSTORE PUSH1 0x20 DUP2 ADD DUP5 DUP5 DUP5 ADD GT ISZERO PUSH2 0x3868 JUMPI PUSH2 0x3867 PUSH2 0x4A1D JUMP JUMPDEST JUMPDEST PUSH2 0x3873 DUP5 DUP3 DUP6 PUSH2 0x480E JUMP JUMPDEST POP SWAP4 SWAP3 POP POP POP JUMP JUMPDEST PUSH1 0x0 DUP2 CALLDATALOAD SWAP1 POP PUSH2 0x388A DUP2 PUSH2 0x4C23 JUMP JUMPDEST SWAP3 SWAP2 POP POP JUMP JUMPDEST PUSH1 0x0 DUP3 PUSH1 0x1F DUP4 ADD SLT PUSH2 0x38A5 JUMPI PUSH2 0x38A4 PUSH2 0x4A18 JUMP JUMPDEST JUMPDEST DUP2 CALLDATALOAD PUSH2 0x38B5 DUP5 DUP3 PUSH1 0x20 DUP7 ADD PUSH2 0x3839 JUMP JUMPDEST SWAP2 POP POP SWAP3 SWAP2 POP POP JUMP JUMPDEST PUSH1 0x0 DUP2 CALLDATALOAD SWAP1 POP PUSH2 0x38CD DUP2 PUSH2 0x4C3A JUMP JUMPDEST SWAP3 SWAP2 POP POP JUMP JUMPDEST PUSH1 0x0 PUSH1 0x20 DUP3 DUP5 SUB SLT ISZERO PUSH2 0x38E9 JUMPI PUSH2 0x38E8 PUSH2 0x4A27 JUMP JUMPDEST JUMPDEST PUSH1 0x0 PUSH2 0x38F7 DUP5 DUP3 DUP6 ADD PUSH2 0x387B JUMP JUMPDEST SWAP2 POP POP SWAP3 SWAP2 POP POP JUMP JUMPDEST PUSH1 0x0 DUP1 PUSH1 0x0 PUSH1 0x60 DUP5 DUP7 SUB SLT ISZERO PUSH2 0x3919 JUMPI PUSH2 0x3918 PUSH2 0x4A27 JUMP JUMPDEST JUMPDEST PUSH1 0x0 PUSH2 0x3927 DUP7 DUP3 DUP8 ADD PUSH2 0x387B JUMP JUMPDEST SWAP4 POP POP PUSH1 0x20 PUSH2 0x3938 DUP7 DUP3 DUP8 ADD PUSH2 0x387B JUMP JUMPDEST SWAP3 POP POP PUSH1 0x40 PUSH2 0x3949 DUP7 DUP3 DUP8 ADD PUSH2 0x38BE JUMP JUMPDEST SWAP2 POP POP SWAP3 POP SWAP3 POP SWAP3 JUMP JUMPDEST PUSH1 0x0 DUP1 PUSH1 0x40 DUP4 DUP6 SUB SLT ISZERO PUSH2 0x396A JUMPI PUSH2 0x3969 PUSH2 0x4A27 JUMP JUMPDEST JUMPDEST PUSH1 0x0 PUSH2 0x3978 DUP6 DUP3 DUP7 ADD PUSH2 0x387B JUMP JUMPDEST SWAP3 POP POP PUSH1 0x20 PUSH2 0x3989 DUP6 DUP3 DUP7 ADD PUSH2 0x38BE JUMP JUMPDEST SWAP2 POP POP SWAP3 POP SWAP3 SWAP1 POP JUMP JUMPDEST PUSH1 0x0 DUP1 PUSH1 0x0 PUSH1 0x60 DUP5 DUP7 SUB SLT ISZERO PUSH2 0x39AC JUMPI PUSH2 0x39AB PUSH2 0x4A27 JUMP JUMPDEST JUMPDEST PUSH1 0x0 PUSH2 0x39BA DUP7 DUP3 DUP8 ADD PUSH2 0x387B JUMP JUMPDEST SWAP4 POP POP PUSH1 0x20 PUSH2 0x39CB DUP7 DUP3 DUP8 ADD PUSH2 0x38BE JUMP JUMPDEST SWAP3 POP POP PUSH1 0x40 PUSH2 0x39DC DUP7 DUP3 DUP8 ADD PUSH2 0x387B JUMP JUMPDEST SWAP2 POP POP SWAP3 POP SWAP3 POP SWAP3 JUMP JUMPDEST PUSH1 0x0 DUP1 PUSH1 0x0 PUSH1 0x60 DUP5 DUP7 SUB SLT ISZERO PUSH2 0x39FF JUMPI PUSH2 0x39FE PUSH2 0x4A27 JUMP JUMPDEST JUMPDEST PUSH1 0x0 DUP5 ADD CALLDATALOAD PUSH8 0xFFFFFFFFFFFFFFFF DUP2 GT ISZERO PUSH2 0x3A1D JUMPI PUSH2 0x3A1C PUSH2 0x4A22 JUMP JUMPDEST JUMPDEST PUSH2 0x3A29 DUP7 DUP3 DUP8 ADD PUSH2 0x3890 JUMP JUMPDEST SWAP4 POP POP PUSH1 0x20 DUP5 ADD CALLDATALOAD PUSH8 0xFFFFFFFFFFFFFFFF DUP2 GT ISZERO PUSH2 0x3A4A JUMPI PUSH2 0x3A49 PUSH2 0x4A22 JUMP JUMPDEST JUMPDEST PUSH2 0x3A56 DUP7 DUP3 DUP8 ADD PUSH2 0x3890 JUMP JUMPDEST SWAP3 POP POP PUSH1 0x40 PUSH2 0x3A67 DUP7 DUP3 DUP8 ADD PUSH2 0x387B JUMP JUMPDEST SWAP2 POP POP SWAP3 POP SWAP3 POP SWAP3 JUMP JUMPDEST PUSH1 0x0 DUP1 PUSH1 0x0 DUP1 PUSH1 0x0 DUP1 PUSH1 0xC0 DUP8 DUP10 SUB SLT ISZERO PUSH2 0x3A8E JUMPI PUSH2 0x3A8D PUSH2 0x4A27 JUMP JUMPDEST JUMPDEST PUSH1 0x0 DUP8 ADD CALLDATALOAD PUSH8 0xFFFFFFFFFFFFFFFF DUP2 GT ISZERO PUSH2 0x3AAC JUMPI PUSH2 0x3AAB PUSH2 0x4A22 JUMP JUMPDEST JUMPDEST PUSH2 0x3AB8 DUP10 DUP3 DUP11 ADD PUSH2 0x3890 JUMP JUMPDEST SWAP7 POP POP PUSH1 0x20 PUSH2 0x3AC9 DUP10 DUP3 DUP11 ADD PUSH2 0x38BE JUMP JUMPDEST SWAP6 POP POP PUSH1 0x40 PUSH2 0x3ADA DUP10 DUP3 DUP11 ADD PUSH2 0x38BE JUMP JUMPDEST SWAP5 POP POP PUSH1 0x60 PUSH2 0x3AEB DUP10 DUP3 DUP11 ADD PUSH2 0x38BE JUMP JUMPDEST SWAP4 POP POP PUSH1 0x80 DUP8 ADD CALLDATALOAD PUSH8 0xFFFFFFFFFFFFFFFF DUP2 GT ISZERO PUSH2 0x3B0C JUMPI PUSH2 0x3B0B PUSH2 0x4A22 JUMP JUMPDEST JUMPDEST PUSH2 0x3B18 DUP10 DUP3 DUP11 ADD PUSH2 0x3890 JUMP JUMPDEST SWAP3 POP POP PUSH1 0xA0 DUP8 ADD CALLDATALOAD PUSH8 0xFFFFFFFFFFFFFFFF DUP2 GT ISZERO PUSH2 0x3B39 JUMPI PUSH2 0x3B38 PUSH2 0x4A22 JUMP JUMPDEST JUMPDEST PUSH2 0x3B45 DUP10 DUP3 DUP11 ADD PUSH2 0x3890 JUMP JUMPDEST SWAP2 POP POP SWAP3 SWAP6 POP SWAP3 SWAP6 POP SWAP3 SWAP6 JUMP JUMPDEST PUSH1 0x0 PUSH1 0x20 DUP3 DUP5 SUB SLT ISZERO PUSH2 0x3B68 JUMPI PUSH2 0x3B67 PUSH2 0x4A27 JUMP JUMPDEST JUMPDEST PUSH1 0x0 PUSH2 0x3B76 DUP5 DUP3 DUP6 ADD PUSH2 0x38BE JUMP JUMPDEST SWAP2 POP POP SWAP3 SWAP2 POP POP JUMP JUMPDEST PUSH1 0x0 DUP1 PUSH1 0x40 DUP4 DUP6 SUB SLT ISZERO PUSH2 0x3B96 JUMPI PUSH2 0x3B95 PUSH2 0x4A27 JUMP JUMPDEST JUMPDEST PUSH1 0x0 PUSH2 0x3BA4 DUP6 DUP3 DUP7 ADD PUSH2 0x38BE JUMP JUMPDEST SWAP3 POP POP PUSH1 0x20 PUSH2 0x3BB5 DUP6 DUP3 DUP7 ADD PUSH2 0x387B JUMP JUMPDEST SWAP2 POP POP SWAP3 POP SWAP3 SWAP1 POP JUMP JUMPDEST PUSH1 0x0 DUP1 PUSH1 0x0 DUP1 PUSH1 0x80 DUP6 DUP8 SUB SLT ISZERO PUSH2 0x3BD9 JUMPI PUSH2 0x3BD8 PUSH2 0x4A27 JUMP JUMPDEST JUMPDEST PUSH1 0x0 PUSH2 0x3BE7 DUP8 DUP3 DUP9 ADD PUSH2 0x38BE JUMP JUMPDEST SWAP5 POP POP PUSH1 0x20 PUSH2 0x3BF8 DUP8 DUP3 DUP9 ADD PUSH2 0x387B JUMP JUMPDEST SWAP4 POP POP PUSH1 0x40 PUSH2 0x3C09 DUP8 DUP3 DUP9 ADD PUSH2 0x387B JUMP JUMPDEST SWAP3 POP POP PUSH1 0x60 PUSH2 0x3C1A DUP8 DUP3 DUP9 ADD PUSH2 0x38BE JUMP JUMPDEST SWAP2 POP POP SWAP3 SWAP6 SWAP2 SWAP5 POP SWAP3 POP JUMP JUMPDEST PUSH1 0x0 DUP1 PUSH1 0x40 DUP4 DUP6 SUB SLT ISZERO PUSH2 0x3C3D JUMPI PUSH2 0x3C3C PUSH2 0x4A27 JUMP JUMPDEST JUMPDEST PUSH1 0x0 PUSH2 0x3C4B DUP6 DUP3 DUP7 ADD PUSH2 0x38BE JUMP JUMPDEST SWAP3 POP POP PUSH1 0x20 PUSH2 0x3C5C DUP6 DUP3 DUP7 ADD PUSH2 0x38BE JUMP JUMPDEST SWAP2 POP POP SWAP3 POP SWAP3 SWAP1 POP JUMP JUMPDEST PUSH1 0x0 DUP1 PUSH1 0x0 DUP1 PUSH1 0x80 DUP6 DUP8 SUB SLT ISZERO PUSH2 0x3C80 JUMPI PUSH2 0x3C7F PUSH2 0x4A27 JUMP JUMPDEST JUMPDEST PUSH1 0x0 PUSH2 0x3C8E DUP8 DUP3 DUP9 ADD PUSH2 0x38BE JUMP JUMPDEST SWAP5 POP POP PUSH1 0x20 PUSH2 0x3C9F DUP8 DUP3 DUP9 ADD PUSH2 0x38BE JUMP JUMPDEST SWAP4 POP POP PUSH1 0x40 DUP6 ADD CALLDATALOAD PUSH8 0xFFFFFFFFFFFFFFFF DUP2 GT ISZERO PUSH2 0x3CC0 JUMPI PUSH2 0x3CBF PUSH2 0x4A22 JUMP JUMPDEST JUMPDEST PUSH2 0x3CCC DUP8 DUP3 DUP9 ADD PUSH2 0x3890 JUMP JUMPDEST SWAP3 POP POP PUSH1 0x60 PUSH2 0x3CDD DUP8 DUP3 DUP9 ADD PUSH2 0x38BE JUMP JUMPDEST SWAP2 POP POP SWAP3 SWAP6 SWAP2 SWAP5 POP SWAP3 POP JUMP JUMPDEST PUSH1 0x0 PUSH2 0x3CF5 DUP4 DUP4 PUSH2 0x4029 JUMP JUMPDEST SWAP1 POP SWAP3 SWAP2 POP POP JUMP JUMPDEST PUSH1 0x0 PUSH2 0x3D09 DUP4 DUP4 PUSH2 0x40FC JUMP JUMPDEST SWAP1 POP SWAP3 SWAP2 POP POP JUMP JUMPDEST PUSH2 0x3D1A DUP2 PUSH2 0x47C6 JUMP JUMPDEST DUP3 MSTORE POP POP JUMP JUMPDEST PUSH2 0x3D29 DUP2 PUSH2 0x47C6 JUMP JUMPDEST DUP3 MSTORE POP POP JUMP JUMPDEST PUSH1 0x0 PUSH2 0x3D3A DUP3 PUSH2 0x4627 JUMP JUMPDEST PUSH2 0x3D44 DUP2 DUP6 PUSH2 0x4662 JUMP JUMPDEST SWAP4 POP DUP4 PUSH1 0x20 DUP3 MUL DUP6 ADD PUSH2 0x3D56 DUP6 PUSH2 0x4607 JUMP JUMPDEST DUP1 PUSH1 0x0 JUMPDEST DUP6 DUP2 LT ISZERO PUSH2 0x3D92 JUMPI DUP5 DUP5 SUB DUP10 MSTORE DUP2 MLOAD PUSH2 0x3D73 DUP6 DUP3 PUSH2 0x3CE9 JUMP JUMPDEST SWAP5 POP PUSH2 0x3D7E DUP4 PUSH2 0x4648 JUMP JUMPDEST SWAP3 POP PUSH1 0x20 DUP11 ADD SWAP10 POP POP PUSH1 0x1 DUP2 ADD SWAP1 POP PUSH2 0x3D5A JUMP JUMPDEST POP DUP3 SWAP8 POP DUP8 SWAP6 POP POP POP POP POP POP SWAP3 SWAP2 POP POP JUMP JUMPDEST PUSH1 0x0 PUSH2 0x3DAF DUP3 PUSH2 0x4632 JUMP JUMPDEST PUSH2 0x3DB9 DUP2 DUP6 PUSH2 0x4673 JUMP JUMPDEST SWAP4 POP DUP4 PUSH1 0x20 DUP3 MUL DUP6 ADD PUSH2 0x3DCB DUP6 PUSH2 0x4617 JUMP JUMPDEST DUP1 PUSH1 0x0 JUMPDEST DUP6 DUP2 LT ISZERO PUSH2 0x3E07 JUMPI DUP5 DUP5 SUB DUP10 MSTORE DUP2 MLOAD PUSH2 0x3DE8 DUP6 DUP3 PUSH2 0x3CFD JUMP JUMPDEST SWAP5 POP PUSH2 0x3DF3 DUP4 PUSH2 0x4655 JUMP JUMPDEST SWAP3 POP PUSH1 0x20 DUP11 ADD SWAP10 POP POP PUSH1 0x1 DUP2 ADD SWAP1 POP PUSH2 0x3DCF JUMP JUMPDEST POP DUP3 SWAP8 POP DUP8 SWAP6 POP POP POP POP POP POP SWAP3 SWAP2 POP POP JUMP JUMPDEST PUSH2 0x3E22 DUP2 PUSH2 0x47D8 JUMP JUMPDEST DUP3 MSTORE POP POP JUMP JUMPDEST PUSH1 0x0 PUSH2 0x3E33 DUP3 PUSH2 0x463D JUMP JUMPDEST PUSH2 0x3E3D DUP2 DUP6 PUSH2 0x4684 JUMP JUMPDEST SWAP4 POP PUSH2 0x3E4D DUP2 DUP6 PUSH1 0x20 DUP7 ADD PUSH2 0x481D JUMP JUMPDEST PUSH2 0x3E56 DUP2 PUSH2 0x4A2C JUMP JUMPDEST DUP5 ADD SWAP2 POP POP SWAP3 SWAP2 POP POP JUMP JUMPDEST PUSH1 0x0 PUSH2 0x3E6C DUP3 PUSH2 0x463D JUMP JUMPDEST PUSH2 0x3E76 DUP2 DUP6 PUSH2 0x4695 JUMP JUMPDEST SWAP4 POP PUSH2 0x3E86 DUP2 DUP6 PUSH1 0x20 DUP7 ADD PUSH2 0x481D JUMP JUMPDEST PUSH2 0x3E8F DUP2 PUSH2 0x4A2C JUMP JUMPDEST DUP5 ADD SWAP2 POP POP SWAP3 SWAP2 POP POP JUMP JUMPDEST PUSH1 0x0 PUSH2 0x3EA5 DUP3 PUSH2 0x463D JUMP JUMPDEST PUSH2 0x3EAF DUP2 DUP6 PUSH2 0x46A6 JUMP JUMPDEST SWAP4 POP PUSH2 0x3EBF DUP2 DUP6 PUSH1 0x20 DUP7 ADD PUSH2 0x481D JUMP JUMPDEST DUP1 DUP5 ADD SWAP2 POP POP SWAP3 SWAP2 POP POP JUMP JUMPDEST PUSH1 0x0 PUSH2 0x3ED8 PUSH1 0x13 DUP4 PUSH2 0x4695 JUMP JUMPDEST SWAP2 POP PUSH2 0x3EE3 DUP3 PUSH2 0x4A3D JUMP JUMPDEST PUSH1 0x20 DUP3 ADD SWAP1 POP SWAP2 SWAP1 POP JUMP JUMPDEST PUSH1 0x0 PUSH2 0x3EFB PUSH1 0x11 DUP4 PUSH2 0x4695 JUMP JUMPDEST SWAP2 POP PUSH2 0x3F06 DUP3 PUSH2 0x4A66 JUMP JUMPDEST PUSH1 0x20 DUP3 ADD SWAP1 POP SWAP2 SWAP1 POP JUMP JUMPDEST PUSH1 0x0 PUSH2 0x3F1E PUSH1 0x13 DUP4 PUSH2 0x4695 JUMP JUMPDEST SWAP2 POP PUSH2 0x3F29 DUP3 PUSH2 0x4A8F JUMP JUMPDEST PUSH1 0x20 DUP3 ADD SWAP1 POP SWAP2 SWAP1 POP JUMP JUMPDEST PUSH1 0x0 PUSH2 0x3F41 PUSH1 0x24 DUP4 PUSH2 0x4695 JUMP JUMPDEST SWAP2 POP PUSH2 0x3F4C DUP3 PUSH2 0x4AB8 JUMP JUMPDEST PUSH1 0x40 DUP3 ADD SWAP1 POP SWAP2 SWAP1 POP JUMP JUMPDEST PUSH1 0x0 PUSH2 0x3F64 PUSH1 0x1 DUP4 PUSH2 0x46A6 JUMP JUMPDEST SWAP2 POP PUSH2 0x3F6F DUP3 PUSH2 0x4B07 JUMP JUMPDEST PUSH1 0x1 DUP3 ADD SWAP1 POP SWAP2 SWAP1 POP JUMP JUMPDEST PUSH1 0x0 PUSH2 0x3F87 PUSH1 0x1B DUP4 PUSH2 0x4695 JUMP JUMPDEST SWAP2 POP PUSH2 0x3F92 DUP3 PUSH2 0x4B30 JUMP JUMPDEST PUSH1 0x20 DUP3 ADD SWAP1 POP SWAP2 SWAP1 POP JUMP JUMPDEST PUSH1 0x0 PUSH2 0x3FAA PUSH1 0x8 DUP4 PUSH2 0x4695 JUMP JUMPDEST SWAP2 POP PUSH2 0x3FB5 DUP3 PUSH2 0x4B59 JUMP JUMPDEST PUSH1 0x20 DUP3 ADD SWAP1 POP SWAP2 SWAP1 POP JUMP JUMPDEST PUSH1 0x0 PUSH2 0x3FCD PUSH1 0x1C DUP4 PUSH2 0x4695 JUMP JUMPDEST SWAP2 POP PUSH2 0x3FD8 DUP3 PUSH2 0x4B82 JUMP JUMPDEST PUSH1 0x20 DUP3 ADD SWAP1 POP SWAP2 SWAP1 POP JUMP JUMPDEST PUSH1 0x0 PUSH2 0x3FF0 PUSH1 0x22 DUP4 PUSH2 0x4695 JUMP JUMPDEST SWAP2 POP PUSH2 0x3FFB DUP3 PUSH2 0x4BAB JUMP JUMPDEST PUSH1 0x40 DUP3 ADD SWAP1 POP SWAP2 SWAP1 POP JUMP JUMPDEST PUSH1 0x0 PUSH2 0x4013 PUSH1 0x13 DUP4 PUSH2 0x4695 JUMP JUMPDEST SWAP2 POP PUSH2 0x401E DUP3 PUSH2 0x4BFA JUMP JUMPDEST PUSH1 0x20 DUP3 ADD SWAP1 POP SWAP2 SWAP1 POP JUMP JUMPDEST PUSH1 0x0 PUSH2 0x120 DUP4 ADD PUSH1 0x0 DUP4 ADD MLOAD PUSH2 0x4042 PUSH1 0x0 DUP7 ADD DUP3 PUSH2 0x419F JUMP JUMPDEST POP PUSH1 0x20 DUP4 ADD MLOAD DUP5 DUP3 SUB PUSH1 0x20 DUP7 ADD MSTORE PUSH2 0x405A DUP3 DUP3 PUSH2 0x3E28 JUMP JUMPDEST SWAP2 POP POP PUSH1 0x40 DUP4 ADD MLOAD PUSH2 0x406F PUSH1 0x40 DUP7 ADD DUP3 PUSH2 0x419F JUMP JUMPDEST POP PUSH1 0x60 DUP4 ADD MLOAD PUSH2 0x4082 PUSH1 0x60 DUP7 ADD DUP3 PUSH2 0x419F JUMP JUMPDEST POP PUSH1 0x80 DUP4 ADD MLOAD PUSH2 0x4095 PUSH1 0x80 DUP7 ADD DUP3 PUSH2 0x419F JUMP JUMPDEST POP PUSH1 0xA0 DUP4 ADD MLOAD PUSH2 0x40A8 PUSH1 0xA0 DUP7 ADD DUP3 PUSH2 0x419F JUMP JUMPDEST POP PUSH1 0xC0 DUP4 ADD MLOAD DUP5 DUP3 SUB PUSH1 0xC0 DUP7 ADD MSTORE PUSH2 0x40C0 DUP3 DUP3 PUSH2 0x3E28 JUMP JUMPDEST SWAP2 POP POP PUSH1 0xE0 DUP4 ADD MLOAD DUP5 DUP3 SUB PUSH1 0xE0 DUP7 ADD MSTORE PUSH2 0x40DA DUP3 DUP3 PUSH2 0x3E28 JUMP JUMPDEST SWAP2 POP POP PUSH2 0x100 DUP4 ADD MLOAD PUSH2 0x40F1 PUSH2 0x100 DUP7 ADD DUP3 PUSH2 0x3D11 JUMP JUMPDEST POP DUP1 SWAP2 POP POP SWAP3 SWAP2 POP POP JUMP JUMPDEST PUSH1 0x0 PUSH1 0xE0 DUP4 ADD PUSH1 0x0 DUP4 ADD MLOAD PUSH2 0x4114 PUSH1 0x0 DUP7 ADD DUP3 PUSH2 0x419F JUMP JUMPDEST POP PUSH1 0x20 DUP4 ADD MLOAD PUSH2 0x4127 PUSH1 0x20 DUP7 ADD DUP3 PUSH2 0x419F JUMP JUMPDEST POP PUSH1 0x40 DUP4 ADD MLOAD DUP5 DUP3 SUB PUSH1 0x40 DUP7 ADD MSTORE PUSH2 0x413F DUP3 DUP3 PUSH2 0x3E28 JUMP JUMPDEST SWAP2 POP POP PUSH1 0x60 DUP4 ADD MLOAD PUSH2 0x4154 PUSH1 0x60 DUP7 ADD DUP3 PUSH2 0x3D11 JUMP JUMPDEST POP PUSH1 0x80 DUP4 ADD MLOAD PUSH2 0x4167 PUSH1 0x80 DUP7 ADD DUP3 PUSH2 0x419F JUMP JUMPDEST POP PUSH1 0xA0 DUP4 ADD MLOAD PUSH2 0x417A PUSH1 0xA0 DUP7 ADD DUP3 PUSH2 0x419F JUMP JUMPDEST POP PUSH1 0xC0 DUP4 ADD MLOAD DUP5 DUP3 SUB PUSH1 0xC0 DUP7 ADD MSTORE PUSH2 0x4192 DUP3 DUP3 PUSH2 0x3E28 JUMP JUMPDEST SWAP2 POP POP DUP1 SWAP2 POP POP SWAP3 SWAP2 POP POP JUMP JUMPDEST PUSH2 0x41A8 DUP2 PUSH2 0x4804 JUMP JUMPDEST DUP3 MSTORE POP POP JUMP JUMPDEST PUSH2 0x41B7 DUP2 PUSH2 0x4804 JUMP JUMPDEST DUP3 MSTORE POP POP JUMP JUMPDEST PUSH1 0x0 PUSH2 0x41C9 DUP3 DUP6 PUSH2 0x3E9A JUMP JUMPDEST SWAP2 POP PUSH2 0x41D4 DUP3 PUSH2 0x3F57 JUMP JUMPDEST SWAP2 POP PUSH2 0x41E0 DUP3 DUP5 PUSH2 0x3E9A JUMP JUMPDEST SWAP2 POP DUP2 SWAP1 POP SWAP4 SWAP3 POP POP POP JUMP JUMPDEST PUSH1 0x0 PUSH1 0x20 DUP3 ADD SWAP1 POP PUSH2 0x4201 PUSH1 0x0 DUP4 ADD DUP5 PUSH2 0x3D20 JUMP JUMPDEST SWAP3 SWAP2 POP POP JUMP JUMPDEST PUSH1 0x0 PUSH1 0x60 DUP3 ADD SWAP1 POP PUSH2 0x421C PUSH1 0x0 DUP4 ADD DUP7 PUSH2 0x3D20 JUMP JUMPDEST PUSH2 0x4229 PUSH1 0x20 DUP4 ADD DUP6 PUSH2 0x41AE JUMP JUMPDEST PUSH2 0x4236 PUSH1 0x40 DUP4 ADD DUP5 PUSH2 0x3E19 JUMP JUMPDEST SWAP5 SWAP4 POP POP POP POP JUMP JUMPDEST PUSH1 0x0 PUSH1 0x20 DUP3 ADD SWAP1 POP DUP2 DUP2 SUB PUSH1 0x0 DUP4 ADD MSTORE PUSH2 0x4258 DUP2 DUP5 PUSH2 0x3D2F JUMP JUMPDEST SWAP1 POP SWAP3 SWAP2 POP POP JUMP JUMPDEST PUSH1 0x0 PUSH1 0x20 DUP3 ADD SWAP1 POP DUP2 DUP2 SUB PUSH1 0x0 DUP4 ADD MSTORE PUSH2 0x427A DUP2 DUP5 PUSH2 0x3DA4 JUMP JUMPDEST SWAP1 POP SWAP3 SWAP2 POP POP JUMP JUMPDEST PUSH1 0x0 PUSH1 0x20 DUP3 ADD SWAP1 POP PUSH2 0x4297 PUSH1 0x0 DUP4 ADD DUP5 PUSH2 0x3E19 JUMP JUMPDEST SWAP3 SWAP2 POP POP JUMP JUMPDEST PUSH1 0x0 PUSH1 0x20 DUP3 ADD SWAP1 POP DUP2 DUP2 SUB PUSH1 0x0 DUP4 ADD MSTORE PUSH2 0x42B7 DUP2 DUP5 PUSH2 0x3E61 JUMP JUMPDEST SWAP1 POP SWAP3 SWAP2 POP POP JUMP JUMPDEST PUSH1 0x0 PUSH1 0xA0 DUP3 ADD SWAP1 POP DUP2 DUP2 SUB PUSH1 0x0 DUP4 ADD MSTORE PUSH2 0x42D9 DUP2 DUP9 PUSH2 0x3E61 JUMP JUMPDEST SWAP1 POP DUP2 DUP2 SUB PUSH1 0x20 DUP4 ADD MSTORE PUSH2 0x42ED DUP2 DUP8 PUSH2 0x3E61 JUMP JUMPDEST SWAP1 POP PUSH2 0x42FC PUSH1 0x40 DUP4 ADD DUP7 PUSH2 0x3D20 JUMP JUMPDEST PUSH2 0x4309 PUSH1 0x60 DUP4 ADD DUP6 PUSH2 0x3E19 JUMP JUMPDEST PUSH2 0x4316 PUSH1 0x80 DUP4 ADD DUP5 PUSH2 0x3E19 JUMP JUMPDEST SWAP7 SWAP6 POP POP POP POP POP POP JUMP JUMPDEST PUSH1 0x0 PUSH1 0x20 DUP3 ADD SWAP1 POP DUP2 DUP2 SUB PUSH1 0x0 DUP4 ADD MSTORE PUSH2 0x4339 DUP2 PUSH2 0x3ECB JUMP JUMPDEST SWAP1 POP SWAP2 SWAP1 POP JUMP JUMPDEST PUSH1 0x0 PUSH1 0x20 DUP3 ADD SWAP1 POP DUP2 DUP2 SUB PUSH1 0x0 DUP4 ADD MSTORE PUSH2 0x4359 DUP2 PUSH2 0x3EEE JUMP JUMPDEST SWAP1 POP SWAP2 SWAP1 POP JUMP JUMPDEST PUSH1 0x0 PUSH1 0x20 DUP3 ADD SWAP1 POP DUP2 DUP2 SUB PUSH1 0x0 DUP4 ADD MSTORE PUSH2 0x4379 DUP2 PUSH2 0x3F11 JUMP JUMPDEST SWAP1 POP SWAP2 SWAP1 POP JUMP JUMPDEST PUSH1 0x0 PUSH1 0x20 DUP3 ADD SWAP1 POP DUP2 DUP2 SUB PUSH1 0x0 DUP4 ADD MSTORE PUSH2 0x4399 DUP2 PUSH2 0x3F34 JUMP JUMPDEST SWAP1 POP SWAP2 SWAP1 POP JUMP JUMPDEST PUSH1 0x0 PUSH1 0x20 DUP3 ADD SWAP1 POP DUP2 DUP2 SUB PUSH1 0x0 DUP4 ADD MSTORE PUSH2 0x43B9 DUP2 PUSH2 0x3F7A JUMP JUMPDEST SWAP1 POP SWAP2 SWAP1 POP JUMP JUMPDEST PUSH1 0x0 PUSH1 0x20 DUP3 ADD SWAP1 POP DUP2 DUP2 SUB PUSH1 0x0 DUP4 ADD MSTORE PUSH2 0x43D9 DUP2 PUSH2 0x3F9D JUMP JUMPDEST SWAP1 POP SWAP2 SWAP1 POP JUMP JUMPDEST PUSH1 0x0 PUSH1 0x20 DUP3 ADD SWAP1 POP DUP2 DUP2 SUB PUSH1 0x0 DUP4 ADD MSTORE PUSH2 0x43F9 DUP2 PUSH2 0x3FC0 JUMP JUMPDEST SWAP1 POP SWAP2 SWAP1 POP JUMP JUMPDEST PUSH1 0x0 PUSH1 0x20 DUP3 ADD SWAP1 POP DUP2 DUP2 SUB PUSH1 0x0 DUP4 ADD MSTORE PUSH2 0x4419 DUP2 PUSH2 0x3FE3 JUMP JUMPDEST SWAP1 POP SWAP2 SWAP1 POP JUMP JUMPDEST PUSH1 0x0 PUSH1 0x20 DUP3 ADD SWAP1 POP DUP2 DUP2 SUB PUSH1 0x0 DUP4 ADD MSTORE PUSH2 0x4439 DUP2 PUSH2 0x4006 JUMP JUMPDEST SWAP1 POP SWAP2 SWAP1 POP JUMP JUMPDEST PUSH1 0x0 PUSH1 0x20 DUP3 ADD SWAP1 POP PUSH2 0x4455 PUSH1 0x0 DUP4 ADD DUP5 PUSH2 0x41AE JUMP JUMPDEST SWAP3 SWAP2 POP POP JUMP JUMPDEST PUSH1 0x0 PUSH2 0x120 DUP3 ADD SWAP1 POP PUSH2 0x4471 PUSH1 0x0 DUP4 ADD DUP13 PUSH2 0x41AE JUMP JUMPDEST DUP2 DUP2 SUB PUSH1 0x20 DUP4 ADD MSTORE PUSH2 0x4483 DUP2 DUP12 PUSH2 0x3E61 JUMP JUMPDEST SWAP1 POP PUSH2 0x4492 PUSH1 0x40 DUP4 ADD DUP11 PUSH2 0x41AE JUMP JUMPDEST PUSH2 0x449F PUSH1 0x60 DUP4 ADD DUP10 PUSH2 0x41AE JUMP JUMPDEST PUSH2 0x44AC PUSH1 0x80 DUP4 ADD DUP9 PUSH2 0x41AE JUMP JUMPDEST PUSH2 0x44B9 PUSH1 0xA0 DUP4 ADD DUP8 PUSH2 0x41AE JUMP JUMPDEST DUP2 DUP2 SUB PUSH1 0xC0 DUP4 ADD MSTORE PUSH2 0x44CB DUP2 DUP7 PUSH2 0x3E61 JUMP JUMPDEST SWAP1 POP DUP2 DUP2 SUB PUSH1 0xE0 DUP4 ADD MSTORE PUSH2 0x44DF DUP2 DUP6 PUSH2 0x3E61 JUMP JUMPDEST SWAP1 POP PUSH2 0x44EF PUSH2 0x100 DUP4 ADD DUP5 PUSH2 0x3D20 JUMP JUMPDEST SWAP11 SWAP10 POP POP POP POP POP POP POP POP POP POP JUMP JUMPDEST PUSH1 0x0 PUSH1 0xE0 DUP3 ADD SWAP1 POP PUSH2 0x4512 PUSH1 0x0 DUP4 ADD DUP11 PUSH2 0x41AE JUMP JUMPDEST PUSH2 0x451F PUSH1 0x20 DUP4 ADD DUP10 PUSH2 0x41AE JUMP JUMPDEST DUP2 DUP2 SUB PUSH1 0x40 DUP4 ADD MSTORE PUSH2 0x4531 DUP2 DUP9 PUSH2 0x3E61 JUMP JUMPDEST SWAP1 POP PUSH2 0x4540 PUSH1 0x60 DUP4 ADD DUP8 PUSH2 0x3D20 JUMP JUMPDEST PUSH2 0x454D PUSH1 0x80 DUP4 ADD DUP7 PUSH2 0x41AE JUMP JUMPDEST PUSH2 0x455A PUSH1 0xA0 DUP4 ADD DUP6 PUSH2 0x41AE JUMP JUMPDEST DUP2 DUP2 SUB PUSH1 0xC0 DUP4 ADD MSTORE PUSH2 0x456C DUP2 DUP5 PUSH2 0x3E61 JUMP JUMPDEST SWAP1 POP SWAP9 SWAP8 POP POP POP POP POP POP POP POP JUMP JUMPDEST PUSH1 0x0 PUSH1 0x60 DUP3 ADD SWAP1 POP PUSH2 0x458F PUSH1 0x0 DUP4 ADD DUP7 PUSH2 0x41AE JUMP JUMPDEST PUSH2 0x459C PUSH1 0x20 DUP4 ADD DUP6 PUSH2 0x41AE JUMP JUMPDEST PUSH2 0x45A9 PUSH1 0x40 DUP4 ADD DUP5 PUSH2 0x41AE JUMP JUMPDEST SWAP5 SWAP4 POP POP POP POP JUMP JUMPDEST PUSH1 0x0 PUSH2 0x45BB PUSH2 0x45CC JUMP JUMPDEST SWAP1 POP PUSH2 0x45C7 DUP3 DUP3 PUSH2 0x4882 JUMP JUMPDEST SWAP2 SWAP1 POP JUMP JUMPDEST PUSH1 0x0 PUSH1 0x40 MLOAD SWAP1 POP SWAP1 JUMP JUMPDEST PUSH1 0x0 PUSH8 0xFFFFFFFFFFFFFFFF DUP3 GT ISZERO PUSH2 0x45F1 JUMPI PUSH2 0x45F0 PUSH2 0x49E9 JUMP JUMPDEST JUMPDEST PUSH2 0x45FA DUP3 PUSH2 0x4A2C JUMP JUMPDEST SWAP1 POP PUSH1 0x20 DUP2 ADD SWAP1 POP SWAP2 SWAP1 POP JUMP JUMPDEST PUSH1 0x0 DUP2 SWAP1 POP PUSH1 0x20 DUP3 ADD SWAP1 POP SWAP2 SWAP1 POP JUMP JUMPDEST PUSH1 0x0 DUP2 SWAP1 POP PUSH1 0x20 DUP3 ADD SWAP1 POP SWAP2 SWAP1 POP JUMP JUMPDEST PUSH1 0x0 DUP2 MLOAD SWAP1 POP SWAP2 SWAP1 POP JUMP JUMPDEST PUSH1 0x0 DUP2 MLOAD SWAP1 POP SWAP2 SWAP1 POP JUMP JUMPDEST PUSH1 0x0 DUP2 MLOAD SWAP1 POP SWAP2 SWAP1 POP JUMP JUMPDEST PUSH1 0x0 PUSH1 0x20 DUP3 ADD SWAP1 POP SWAP2 SWAP1 POP JUMP JUMPDEST PUSH1 0x0 PUSH1 0x20 DUP3 ADD SWAP1 POP SWAP2 SWAP1 POP JUMP JUMPDEST PUSH1 0x0 DUP3 DUP3 MSTORE PUSH1 0x20 DUP3 ADD SWAP1 POP SWAP3 SWAP2 POP POP JUMP JUMPDEST PUSH1 0x0 DUP3 DUP3 MSTORE PUSH1 0x20 DUP3 ADD SWAP1 POP SWAP3 SWAP2 POP POP JUMP JUMPDEST PUSH1 0x0 DUP3 DUP3 MSTORE PUSH1 0x20 DUP3 ADD SWAP1 POP SWAP3 SWAP2 POP POP JUMP JUMPDEST PUSH1 0x0 DUP3 DUP3 MSTORE PUSH1 0x20 DUP3 ADD SWAP1 POP SWAP3 SWAP2 POP POP JUMP JUMPDEST PUSH1 0x0 DUP2 SWAP1 POP SWAP3 SWAP2 POP POP JUMP JUMPDEST PUSH1 0x0 PUSH2 0x46BC DUP3 PUSH2 0x4804 JUMP JUMPDEST SWAP2 POP PUSH2 0x46C7 DUP4 PUSH2 0x4804 JUMP JUMPDEST SWAP3 POP DUP3 PUSH32 0xFFFFFFFFFFFFFFFFFFFFFFFFFFFFFFFFFFFFFFFFFFFFFFFFFFFFFFFFFFFFFFFF SUB DUP3 GT ISZERO PUSH2 0x46FC JUMPI PUSH2 0x46FB PUSH2 0x492D JUMP JUMPDEST JUMPDEST DUP3 DUP3 ADD SWAP1 POP SWAP3 SWAP2 POP POP JUMP JUMPDEST PUSH1 0x0 PUSH2 0x4712 DUP3 PUSH2 0x4804 JUMP JUMPDEST SWAP2 POP PUSH2 0x471D DUP4 PUSH2 0x4804 JUMP JUMPDEST SWAP3 POP DUP3 PUSH2 0x472D JUMPI PUSH2 0x472C PUSH2 0x495C JUMP JUMPDEST JUMPDEST DUP3 DUP3 DIV SWAP1 POP SWAP3 SWAP2 POP POP JUMP JUMPDEST PUSH1 0x0 PUSH2 0x4743 DUP3 PUSH2 0x4804 JUMP JUMPDEST SWAP2 POP PUSH2 0x474E DUP4 PUSH2 0x4804 JUMP JUMPDEST SWAP3 POP DUP2 PUSH32 0xFFFFFFFFFFFFFFFFFFFFFFFFFFFFFFFFFFFFFFFFFFFFFFFFFFFFFFFFFFFFFFFF DIV DUP4 GT DUP3 ISZERO ISZERO AND ISZERO PUSH2 0x4787 JUMPI PUSH2 0x4786 PUSH2 0x492D JUMP JUMPDEST JUMPDEST DUP3 DUP3 MUL SWAP1 POP SWAP3 SWAP2 POP POP JUMP JUMPDEST PUSH1 0x0 PUSH2 0x479D DUP3 PUSH2 0x4804 JUMP JUMPDEST SWAP2 POP PUSH2 0x47A8 DUP4 PUSH2 0x4804 JUMP JUMPDEST SWAP3 POP DUP3 DUP3 LT ISZERO PUSH2 0x47BB JUMPI PUSH2 0x47BA PUSH2 0x492D JUMP JUMPDEST JUMPDEST DUP3 DUP3 SUB SWAP1 POP SWAP3 SWAP2 POP POP JUMP JUMPDEST PUSH1 0x0 PUSH2 0x47D1 DUP3 PUSH2 0x47E4 JUMP JUMPDEST SWAP1 POP SWAP2 SWAP1 POP JUMP JUMPDEST PUSH1 0x0 DUP2 ISZERO ISZERO SWAP1 POP SWAP2 SWAP1 POP JUMP JUMPDEST PUSH1 0x0 PUSH20 0xFFFFFFFFFFFFFFFFFFFFFFFFFFFFFFFFFFFFFFFF DUP3 AND SWAP1 POP SWAP2 SWAP1 POP JUMP JUMPDEST PUSH1 0x0 DUP2 SWAP1 POP SWAP2 SWAP1 POP JUMP JUMPDEST DUP3 DUP2 DUP4 CALLDATACOPY PUSH1 0x0 DUP4 DUP4 ADD MSTORE POP POP POP JUMP JUMPDEST PUSH1 0x0 JUMPDEST DUP4 DUP2 LT ISZERO PUSH2 0x483B JUMPI DUP1 DUP3 ADD MLOAD DUP2 DUP5 ADD MSTORE PUSH1 0x20 DUP2 ADD SWAP1 POP PUSH2 0x4820 JUMP JUMPDEST DUP4 DUP2 GT ISZERO PUSH2 0x484A JUMPI PUSH1 0x0 DUP5 DUP5 ADD MSTORE JUMPDEST POP POP POP POP JUMP JUMPDEST PUSH1 0x0 PUSH1 0x2 DUP3 DIV SWAP1 POP PUSH1 0x1 DUP3 AND DUP1 PUSH2 0x4868 JUMPI PUSH1 0x7F DUP3 AND SWAP2 POP JUMPDEST PUSH1 0x20 DUP3 LT DUP2 EQ ISZERO PUSH2 0x487C JUMPI PUSH2 0x487B PUSH2 0x498B JUMP JUMPDEST JUMPDEST POP SWAP2 SWAP1 POP JUMP JUMPDEST PUSH2 0x488B DUP3 PUSH2 0x4A2C JUMP JUMPDEST DUP2 ADD DUP2 DUP2 LT PUSH8 0xFFFFFFFFFFFFFFFF DUP3 GT OR ISZERO PUSH2 0x48AA JUMPI PUSH2 0x48A9 PUSH2 0x49E9 JUMP JUMPDEST JUMPDEST DUP1 PUSH1 0x40 MSTORE POP POP POP JUMP JUMPDEST PUSH1 0x0 PUSH2 0x48BE DUP3 PUSH2 0x4804 JUMP JUMPDEST SWAP2 POP PUSH32 0xFFFFFFFFFFFFFFFFFFFFFFFFFFFFFFFFFFFFFFFFFFFFFFFFFFFFFFFFFFFFFFFF DUP3 EQ ISZERO PUSH2 0x48F1 JUMPI PUSH2 0x48F0 PUSH2 0x492D JUMP JUMPDEST JUMPDEST PUSH1 0x1 DUP3 ADD SWAP1 POP SWAP2 SWAP1 POP JUMP JUMPDEST PUSH1 0x0 PUSH2 0x4907 DUP3 PUSH2 0x4804 JUMP JUMPDEST SWAP2 POP PUSH2 0x4912 DUP4 PUSH2 0x4804 JUMP JUMPDEST SWAP3 POP DUP3 PUSH2 0x4922 JUMPI PUSH2 0x4921 PUSH2 0x495C JUMP JUMPDEST JUMPDEST DUP3 DUP3 MOD SWAP1 POP SWAP3 SWAP2 POP POP JUMP JUMPDEST PUSH32 0x4E487B7100000000000000000000000000000000000000000000000000000000 PUSH1 0x0 MSTORE PUSH1 0x11 PUSH1 0x4 MSTORE PUSH1 0x24 PUSH1 0x0 REVERT JUMPDEST PUSH32 0x4E487B7100000000000000000000000000000000000000000000000000000000 PUSH1 0x0 MSTORE PUSH1 0x12 PUSH1 0x4 MSTORE PUSH1 0x24 PUSH1 0x0 REVERT JUMPDEST PUSH32 0x4E487B7100000000000000000000000000000000000000000000000000000000 PUSH1 0x0 MSTORE PUSH1 0x22 PUSH1 0x4 MSTORE PUSH1 0x24 PUSH1 0x0 REVERT JUMPDEST PUSH32 0x4E487B7100000000000000000000000000000000000000000000000000000000 PUSH1 0x0 MSTORE PUSH1 0x32 PUSH1 0x4 MSTORE PUSH1 0x24 PUSH1 0x0 REVERT JUMPDEST PUSH32 0x4E487B7100000000000000000000000000000000000000000000000000000000 PUSH1 0x0 MSTORE PUSH1 0x41 PUSH1 0x4 MSTORE PUSH1 0x24 PUSH1 0x0 REVERT JUMPDEST PUSH1 0x0 DUP1 REVERT JUMPDEST PUSH1 0x0 DUP1 REVERT JUMPDEST PUSH1 0x0 DUP1 REVERT JUMPDEST PUSH1 0x0 DUP1 REVERT JUMPDEST PUSH1 0x0 PUSH1 0x1F NOT PUSH1 0x1F DUP4 ADD AND SWAP1 POP SWAP2 SWAP1 POP JUMP JUMPDEST PUSH32 0x506C65617365205369676E557020466972737400000000000000000000000000 PUSH1 0x0 DUP3 ADD MSTORE POP JUMP JUMPDEST PUSH32 0x596F752063616E4E6F742044656C657465000000000000000000000000000000 PUSH1 0x0 DUP3 ADD MSTORE POP JUMP JUMPDEST PUSH32 0x596F7520416C7265616479205369676E20496E00000000000000000000000000 PUSH1 0x0 DUP3 ADD MSTORE POP JUMP JUMPDEST PUSH32 0x506C656173652053656C6C6563742074686520636F7272656374205265636570 PUSH1 0x0 DUP3 ADD MSTORE PUSH32 0x69656E7400000000000000000000000000000000000000000000000000000000 PUSH1 0x20 DUP3 ADD MSTORE POP JUMP JUMPDEST PUSH32 0x2E00000000000000000000000000000000000000000000000000000000000000 PUSH1 0x0 DUP3 ADD MSTORE POP JUMP JUMPDEST PUSH32 0x506C6561736520596F7520416C7265616479205369676E204F75740000000000 PUSH1 0x0 DUP3 ADD MSTORE POP JUMP JUMPDEST PUSH32 0x54696D65204F7574000000000000000000000000000000000000000000000000 PUSH1 0x0 DUP3 ADD MSTORE POP JUMP JUMPDEST PUSH32 0x596F7520617265204F776E6572206F6620746869732054656E64657200000000 PUSH1 0x0 DUP3 ADD MSTORE POP JUMP JUMPDEST PUSH32 0x596F7520416C7265616479204170706C7920666F722074686973205265717565 PUSH1 0x0 DUP3 ADD MSTORE PUSH32 0x7374000000000000000000000000000000000000000000000000000000000000 PUSH1 0x20 DUP3 ADD MSTORE POP JUMP JUMPDEST PUSH32 0x596F7520616C7265616479207061796D656E7400000000000000000000000000 PUSH1 0x0 DUP3 ADD MSTORE POP JUMP JUMPDEST PUSH2 0x4C2C DUP2 PUSH2 0x47C6 JUMP JUMPDEST DUP2 EQ PUSH2 0x4C37 JUMPI PUSH1 0x0 DUP1 REVERT JUMPDEST POP JUMP JUMPDEST PUSH2 0x4C43 DUP2 PUSH2 0x4804 JUMP JUMPDEST DUP2 EQ PUSH2 0x4C4E JUMPI PUSH1 0x0 DUP1 REVERT JUMPDEST POP JUMP INVALID LOG2 PUSH5 0x6970667358 0x22 SLT KECCAK256 0xB0 PUSH13 0xAE86E21E934BCA4427BD6A4525 0xE1 0xB2 0xEA 0xCF 0xBD 0x2A 0xC7 RETURNDATACOPY ORIGIN 0xFB LOG2 0xBA NUMBER 0xAD CREATE2 0x4E 0xE8 PUSH5 0x736F6C6343 STOP ADDMOD SMOD STOP CALLER "
				},
				"gasEstimates": {
					"creation": {
						"codeDepositCost": "3918200",
						"executionCost": "28728",
						"totalCost": "3946928"
					},
					"external": {
						"AcceptInvitation(uint256,address,address,uint256)": "infinite",
						"AllTender()": "infinite",
						"AllVender(uint256)": "infinite",
						"Ch(address,uint256)": "3199",
						"CheckTime(uint256)": "2894",
						"Communication(uint256,address)": "infinite",
						"Contract()": "2625",
						"DaysDetails(address)": "infinite",
						"DeleteVRequest(uint256)": "infinite",
						"Done(address,address,uint256)": "infinite",
						"Finder(uint256,address)": "infinite",
						"Invite(address,uint256,address)": "infinite",
						"Pending(address,uint256)": "3155",
						"RatAge(address)": "infinite",
						"RattingDetails(address,uint256)": "infinite",
						"Requests(address)": "2882",
						"SignIn(address)": "29535",
						"SignOut(address)": "27258",
						"SignUp(string,string,address)": "infinite",
						"Signer(address)": "infinite",
						"Size(address)": "2925",
						"SizeVender(uint256)": "infinite",
						"Total(uint256)": "infinite",
						"TotalTender()": "2487",
						"TotalVender()": "2511",
						"Venders(uint256,uint256)": "infinite",
						"accceptedReq(address)": "2860",
						"getTender(address)": "infinite",
						"getVender(address)": "infinite",
						"tender(string,uint256,uint256,uint256,string,string)": "infinite",
						"vender(uint256,uint256,string,uint256)": "infinite"
					}
				},
				"methodIdentifiers": {
					"AcceptInvitation(uint256,address,address,uint256)": "a06c5e3d",
					"AllTender()": "bc16aad7",
					"AllVender(uint256)": "86e9ff0a",
					"Ch(address,uint256)": "40f12058",
					"CheckTime(uint256)": "0c4a3338",
					"Communication(uint256,address)": "30182235",
					"Contract()": "5af77fff",
					"DaysDetails(address)": "0b9a7782",
					"DeleteVRequest(uint256)": "2302ec7e",
					"Done(address,address,uint256)": "d60f5a38",
					"Finder(uint256,address)": "9fff963e",
					"Invite(address,uint256,address)": "a56d6544",
					"Pending(address,uint256)": "75772c47",
					"RatAge(address)": "59b86a21",
					"RattingDetails(address,uint256)": "7cb060f4",
					"Requests(address)": "1a4b3311",
					"SignIn(address)": "ef383f49",
					"SignOut(address)": "11452a7b",
					"SignUp(string,string,address)": "1d410da6",
					"Signer(address)": "f4b0650d",
					"Size(address)": "b19781fe",
					"SizeVender(uint256)": "ffd64f8a",
					"Total(uint256)": "52943ff5",
					"TotalTender()": "d7add75f",
					"TotalVender()": "25af0316",
					"Venders(uint256,uint256)": "168d5d34",
					"accceptedReq(address)": "64a2864d",
					"getTender(address)": "d0c3e909",
					"getVender(address)": "d0c343d6",
					"tender(string,uint256,uint256,uint256,string,string)": "1a779488",
					"vender(uint256,uint256,string,uint256)": "4fcb4a58"
				}
			},
			"storageLayout": {
				"storage": [
					{
						"astId": 1125,
						"contract": "contracts/Fast/Contract_1.sol:Storage",
						"label": "TotalTender",
						"offset": 0,
						"slot": "0",
						"type": "t_struct(Counter)5_storage"
					},
					{
						"astId": 1128,
						"contract": "contracts/Fast/Contract_1.sol:Storage",
						"label": "TotalVender",
						"offset": 0,
						"slot": "1",
						"type": "t_struct(Counter)5_storage"
					},
					{
						"astId": 1133,
						"contract": "contracts/Fast/Contract_1.sol:Storage",
						"label": "Contract",
						"offset": 0,
						"slot": "2",
						"type": "t_address"
					},
					{
						"astId": 1203,
						"contract": "contracts/Fast/Contract_1.sol:Storage",
						"label": "Size",
						"offset": 0,
						"slot": "3",
						"type": "t_mapping(t_address,t_uint256)"
					},
					{
						"astId": 1209,
						"contract": "contracts/Fast/Contract_1.sol:Storage",
						"label": "Pending",
						"offset": 0,
						"slot": "4",
						"type": "t_mapping(t_address,t_mapping(t_uint256,t_bool))"
					},
					{
						"astId": 1213,
						"contract": "contracts/Fast/Contract_1.sol:Storage",
						"label": "SizeVender",
						"offset": 0,
						"slot": "5",
						"type": "t_mapping(t_uint256,t_uint256)"
					},
					{
						"astId": 1218,
						"contract": "contracts/Fast/Contract_1.sol:Storage",
						"label": "Total",
						"offset": 0,
						"slot": "6",
						"type": "t_mapping(t_uint256,t_struct(Tender)1178_storage)"
					},
					{
						"astId": 1225,
						"contract": "contracts/Fast/Contract_1.sol:Storage",
						"label": "Venders",
						"offset": 0,
						"slot": "7",
						"type": "t_mapping(t_uint256,t_mapping(t_uint256,t_struct(Vender)1159_storage))"
					},
					{
						"astId": 1231,
						"contract": "contracts/Fast/Contract_1.sol:Storage",
						"label": "Ch",
						"offset": 0,
						"slot": "8",
						"type": "t_mapping(t_address,t_mapping(t_uint256,t_bool))"
					},
					{
						"astId": 1235,
						"contract": "contracts/Fast/Contract_1.sol:Storage",
						"label": "Requests",
						"offset": 0,
						"slot": "9",
						"type": "t_mapping(t_address,t_uint256)"
					},
					{
						"astId": 1240,
						"contract": "contracts/Fast/Contract_1.sol:Storage",
						"label": "DaysDetails",
						"offset": 0,
						"slot": "10",
						"type": "t_mapping(t_address,t_struct(Days)1199_storage)"
					},
					{
						"astId": 1246,
						"contract": "contracts/Fast/Contract_1.sol:Storage",
						"label": "Finder",
						"offset": 0,
						"slot": "11",
						"type": "t_mapping(t_uint256,t_mapping(t_address,t_uint256))"
					},
					{
						"astId": 1253,
						"contract": "contracts/Fast/Contract_1.sol:Storage",
						"label": "Communication",
						"offset": 0,
						"slot": "12",
						"type": "t_mapping(t_uint256,t_mapping(t_address,t_struct(Comm)1192_storage))"
					},
					{
						"astId": 1261,
						"contract": "contracts/Fast/Contract_1.sol:Storage",
						"label": "Invite",
						"offset": 0,
						"slot": "13",
						"type": "t_mapping(t_address,t_mapping(t_uint256,t_mapping(t_address,t_bool)))"
					},
					{
						"astId": 1267,
						"contract": "contracts/Fast/Contract_1.sol:Storage",
						"label": "RattingDetails",
						"offset": 0,
						"slot": "14",
						"type": "t_mapping(t_address,t_mapping(t_uint256,t_uint256))"
					},
					{
						"astId": 1271,
						"contract": "contracts/Fast/Contract_1.sol:Storage",
						"label": "accceptedReq",
						"offset": 0,
						"slot": "15",
						"type": "t_mapping(t_address,t_uint256)"
					},
					{
						"astId": 1276,
						"contract": "contracts/Fast/Contract_1.sol:Storage",
						"label": "Signer",
						"offset": 0,
						"slot": "16",
						"type": "t_mapping(t_address,t_struct(Sign)1144_storage)"
					}
				],
				"types": {
					"t_address": {
						"encoding": "inplace",
						"label": "address",
						"numberOfBytes": "20"
					},
					"t_bool": {
						"encoding": "inplace",
						"label": "bool",
						"numberOfBytes": "1"
					},
					"t_mapping(t_address,t_bool)": {
						"encoding": "mapping",
						"key": "t_address",
						"label": "mapping(address => bool)",
						"numberOfBytes": "32",
						"value": "t_bool"
					},
					"t_mapping(t_address,t_mapping(t_uint256,t_bool))": {
						"encoding": "mapping",
						"key": "t_address",
						"label": "mapping(address => mapping(uint256 => bool))",
						"numberOfBytes": "32",
						"value": "t_mapping(t_uint256,t_bool)"
					},
					"t_mapping(t_address,t_mapping(t_uint256,t_mapping(t_address,t_bool)))": {
						"encoding": "mapping",
						"key": "t_address",
						"label": "mapping(address => mapping(uint256 => mapping(address => bool)))",
						"numberOfBytes": "32",
						"value": "t_mapping(t_uint256,t_mapping(t_address,t_bool))"
					},
					"t_mapping(t_address,t_mapping(t_uint256,t_uint256))": {
						"encoding": "mapping",
						"key": "t_address",
						"label": "mapping(address => mapping(uint256 => uint256))",
						"numberOfBytes": "32",
						"value": "t_mapping(t_uint256,t_uint256)"
					},
					"t_mapping(t_address,t_struct(Comm)1192_storage)": {
						"encoding": "mapping",
						"key": "t_address",
						"label": "mapping(address => struct Storage.Comm)",
						"numberOfBytes": "32",
						"value": "t_struct(Comm)1192_storage"
					},
					"t_mapping(t_address,t_struct(Days)1199_storage)": {
						"encoding": "mapping",
						"key": "t_address",
						"label": "mapping(address => struct Storage.Days)",
						"numberOfBytes": "32",
						"value": "t_struct(Days)1199_storage"
					},
					"t_mapping(t_address,t_struct(Sign)1144_storage)": {
						"encoding": "mapping",
						"key": "t_address",
						"label": "mapping(address => struct Storage.Sign)",
						"numberOfBytes": "32",
						"value": "t_struct(Sign)1144_storage"
					},
					"t_mapping(t_address,t_uint256)": {
						"encoding": "mapping",
						"key": "t_address",
						"label": "mapping(address => uint256)",
						"numberOfBytes": "32",
						"value": "t_uint256"
					},
					"t_mapping(t_uint256,t_bool)": {
						"encoding": "mapping",
						"key": "t_uint256",
						"label": "mapping(uint256 => bool)",
						"numberOfBytes": "32",
						"value": "t_bool"
					},
					"t_mapping(t_uint256,t_mapping(t_address,t_bool))": {
						"encoding": "mapping",
						"key": "t_uint256",
						"label": "mapping(uint256 => mapping(address => bool))",
						"numberOfBytes": "32",
						"value": "t_mapping(t_address,t_bool)"
					},
					"t_mapping(t_uint256,t_mapping(t_address,t_struct(Comm)1192_storage))": {
						"encoding": "mapping",
						"key": "t_uint256",
						"label": "mapping(uint256 => mapping(address => struct Storage.Comm))",
						"numberOfBytes": "32",
						"value": "t_mapping(t_address,t_struct(Comm)1192_storage)"
					},
					"t_mapping(t_uint256,t_mapping(t_address,t_uint256))": {
						"encoding": "mapping",
						"key": "t_uint256",
						"label": "mapping(uint256 => mapping(address => uint256))",
						"numberOfBytes": "32",
						"value": "t_mapping(t_address,t_uint256)"
					},
					"t_mapping(t_uint256,t_mapping(t_uint256,t_struct(Vender)1159_storage))": {
						"encoding": "mapping",
						"key": "t_uint256",
						"label": "mapping(uint256 => mapping(uint256 => struct Storage.Vender))",
						"numberOfBytes": "32",
						"value": "t_mapping(t_uint256,t_struct(Vender)1159_storage)"
					},
					"t_mapping(t_uint256,t_struct(Tender)1178_storage)": {
						"encoding": "mapping",
						"key": "t_uint256",
						"label": "mapping(uint256 => struct Storage.Tender)",
						"numberOfBytes": "32",
						"value": "t_struct(Tender)1178_storage"
					},
					"t_mapping(t_uint256,t_struct(Vender)1159_storage)": {
						"encoding": "mapping",
						"key": "t_uint256",
						"label": "mapping(uint256 => struct Storage.Vender)",
						"numberOfBytes": "32",
						"value": "t_struct(Vender)1159_storage"
					},
					"t_mapping(t_uint256,t_uint256)": {
						"encoding": "mapping",
						"key": "t_uint256",
						"label": "mapping(uint256 => uint256)",
						"numberOfBytes": "32",
						"value": "t_uint256"
					},
					"t_string_storage": {
						"encoding": "bytes",
						"label": "string",
						"numberOfBytes": "32"
					},
					"t_struct(Comm)1192_storage": {
						"encoding": "inplace",
						"label": "struct Storage.Comm",
						"members": [
							{
								"astId": 1187,
								"contract": "contracts/Fast/Contract_1.sol:Storage",
								"label": "receiver",
								"offset": 0,
								"slot": "0",
								"type": "t_address"
							},
							{
								"astId": 1189,
								"contract": "contracts/Fast/Contract_1.sol:Storage",
								"label": "price",
								"offset": 0,
								"slot": "1",
								"type": "t_uint256"
							},
							{
								"astId": 1191,
								"contract": "contracts/Fast/Contract_1.sol:Storage",
								"label": "done",
								"offset": 0,
								"slot": "2",
								"type": "t_bool"
							}
						],
						"numberOfBytes": "96"
					},
					"t_struct(Counter)5_storage": {
						"encoding": "inplace",
						"label": "struct Counters.Counter",
						"members": [
							{
								"astId": 4,
								"contract": "contracts/Fast/Contract_1.sol:Storage",
								"label": "_value",
								"offset": 0,
								"slot": "0",
								"type": "t_uint256"
							}
						],
						"numberOfBytes": "32"
					},
					"t_struct(Days)1199_storage": {
						"encoding": "inplace",
						"label": "struct Storage.Days",
						"members": [
							{
								"astId": 1194,
								"contract": "contracts/Fast/Contract_1.sol:Storage",
								"label": "Delivered",
								"offset": 0,
								"slot": "0",
								"type": "t_uint256"
							},
							{
								"astId": 1196,
								"contract": "contracts/Fast/Contract_1.sol:Storage",
								"label": "Total",
								"offset": 0,
								"slot": "1",
								"type": "t_uint256"
							},
							{
								"astId": 1198,
								"contract": "contracts/Fast/Contract_1.sol:Storage",
								"label": "tender",
								"offset": 0,
								"slot": "2",
								"type": "t_uint256"
							}
						],
						"numberOfBytes": "96"
					},
					"t_struct(Sign)1144_storage": {
						"encoding": "inplace",
						"label": "struct Storage.Sign",
						"members": [
							{
								"astId": 1135,
								"contract": "contracts/Fast/Contract_1.sol:Storage",
								"label": "name",
								"offset": 0,
								"slot": "0",
								"type": "t_string_storage"
							},
							{
								"astId": 1137,
								"contract": "contracts/Fast/Contract_1.sol:Storage",
								"label": "email",
								"offset": 0,
								"slot": "1",
								"type": "t_string_storage"
							},
							{
								"astId": 1139,
								"contract": "contracts/Fast/Contract_1.sol:Storage",
								"label": "_address",
								"offset": 0,
								"slot": "2",
								"type": "t_address"
							},
							{
								"astId": 1141,
								"contract": "contracts/Fast/Contract_1.sol:Storage",
								"label": "Up",
								"offset": 20,
								"slot": "2",
								"type": "t_bool"
							},
							{
								"astId": 1143,
								"contract": "contracts/Fast/Contract_1.sol:Storage",
								"label": "InOut",
								"offset": 21,
								"slot": "2",
								"type": "t_bool"
							}
						],
						"numberOfBytes": "96"
					},
					"t_struct(Tender)1178_storage": {
						"encoding": "inplace",
						"label": "struct Storage.Tender",
						"members": [
							{
								"astId": 1161,
								"contract": "contracts/Fast/Contract_1.sol:Storage",
								"label": "TokenId",
								"offset": 0,
								"slot": "0",
								"type": "t_uint256"
							},
							{
								"astId": 1163,
								"contract": "contracts/Fast/Contract_1.sol:Storage",
								"label": "name",
								"offset": 0,
								"slot": "1",
								"type": "t_string_storage"
							},
							{
								"astId": 1165,
								"contract": "contracts/Fast/Contract_1.sol:Storage",
								"label": "quantity",
								"offset": 0,
								"slot": "2",
								"type": "t_uint256"
							},
							{
								"astId": 1167,
								"contract": "contracts/Fast/Contract_1.sol:Storage",
								"label": "budget",
								"offset": 0,
								"slot": "3",
								"type": "t_uint256"
							},
							{
								"astId": 1169,
								"contract": "contracts/Fast/Contract_1.sol:Storage",
								"label": "time",
								"offset": 0,
								"slot": "4",
								"type": "t_uint256"
							},
							{
								"astId": 1171,
								"contract": "contracts/Fast/Contract_1.sol:Storage",
								"label": "start",
								"offset": 0,
								"slot": "5",
								"type": "t_uint256"
							},
							{
								"astId": 1173,
								"contract": "contracts/Fast/Contract_1.sol:Storage",
								"label": "_address",
								"offset": 0,
								"slot": "6",
								"type": "t_string_storage"
							},
							{
								"astId": 1175,
								"contract": "contracts/Fast/Contract_1.sol:Storage",
								"label": "description",
								"offset": 0,
								"slot": "7",
								"type": "t_string_storage"
							},
							{
								"astId": 1177,
								"contract": "contracts/Fast/Contract_1.sol:Storage",
								"label": "owner",
								"offset": 0,
								"slot": "8",
								"type": "t_address"
							}
						],
						"numberOfBytes": "288"
					},
					"t_struct(Vender)1159_storage": {
						"encoding": "inplace",
						"label": "struct Storage.Vender",
						"members": [
							{
								"astId": 1146,
								"contract": "contracts/Fast/Contract_1.sol:Storage",
								"label": "Token",
								"offset": 0,
								"slot": "0",
								"type": "t_uint256"
							},
							{
								"astId": 1148,
								"contract": "contracts/Fast/Contract_1.sol:Storage",
								"label": "Price",
								"offset": 0,
								"slot": "1",
								"type": "t_uint256"
							},
							{
								"astId": 1150,
								"contract": "contracts/Fast/Contract_1.sol:Storage",
								"label": "Description",
								"offset": 0,
								"slot": "2",
								"type": "t_string_storage"
							},
							{
								"astId": 1152,
								"contract": "contracts/Fast/Contract_1.sol:Storage",
								"label": "owner",
								"offset": 0,
								"slot": "3",
								"type": "t_address"
							},
							{
								"astId": 1154,
								"contract": "contracts/Fast/Contract_1.sol:Storage",
								"label": "DeleveryTime",
								"offset": 0,
								"slot": "4",
								"type": "t_uint256"
							},
							{
								"astId": 1156,
								"contract": "contracts/Fast/Contract_1.sol:Storage",
								"label": "Delivered",
								"offset": 0,
								"slot": "5",
								"type": "t_uint256"
							},
							{
								"astId": 1158,
								"contract": "contracts/Fast/Contract_1.sol:Storage",
								"label": "rating",
								"offset": 0,
								"slot": "6",
								"type": "t_string_storage"
							}
						],
						"numberOfBytes": "224"
					},
					"t_uint256": {
						"encoding": "inplace",
						"label": "uint256",
						"numberOfBytes": "32"
					}
				}
			},
			"userdoc": {
				"kind": "user",
				"methods": {},
				"version": 1
			}
		}
	}
}