{
	"contracts/Fast/contract.sol": {
		"Storage": {
			"abi": [
				{
					"inputs": [],
					"stateMutability": "nonpayable",
					"type": "constructor"
				},
				{
					"inputs": [
						{
							"internalType": "uint256",
							"name": "_token",
							"type": "uint256"
						},
						{
							"internalType": "address",
							"name": "_receiver",
							"type": "address"
						},
						{
							"internalType": "address",
							"name": "_to",
							"type": "address"
						},
						{
							"internalType": "uint256",
							"name": "_price",
							"type": "uint256"
						}
					],
					"name": "AcceptInvitation",
					"outputs": [],
					"stateMutability": "nonpayable",
					"type": "function"
				},
				{
					"inputs": [
						{
							"internalType": "uint256",
							"name": "_token",
							"type": "uint256"
						},
						{
							"internalType": "address",
							"name": "receiver",
							"type": "address"
						},
						{
							"internalType": "address",
							"name": "_to",
							"type": "address"
						}
					],
					"name": "Accepted",
					"outputs": [
						{
							"internalType": "bool",
							"name": "",
							"type": "bool"
						}
					],
					"stateMutability": "view",
					"type": "function"
				},
				{
					"inputs": [],
					"name": "AllTender",
					"outputs": [
						{
							"components": [
								{
									"internalType": "uint256",
									"name": "TokenId",
									"type": "uint256"
								},
								{
									"internalType": "string",
									"name": "name",
									"type": "string"
								},
								{
									"internalType": "uint256",
									"name": "quantity",
									"type": "uint256"
								},
								{
									"internalType": "uint256",
									"name": "budget",
									"type": "uint256"
								},
								{
									"internalType": "uint256",
									"name": "time",
									"type": "uint256"
								},
								{
									"internalType": "uint256",
									"name": "start",
									"type": "uint256"
								},
								{
									"internalType": "string",
									"name": "_address",
									"type": "string"
								},
								{
									"internalType": "string",
									"name": "description",
									"type": "string"
								},
								{
									"internalType": "address",
									"name": "owner",
									"type": "address"
								}
							],
							"internalType": "struct Storage.Tender[]",
							"name": "",
							"type": "tuple[]"
						}
					],
					"stateMutability": "view",
					"type": "function"
				},
				{
					"inputs": [
						{
							"internalType": "uint256",
							"name": "_token",
							"type": "uint256"
						}
					],
					"name": "AllVender",
					"outputs": [
						{
							"components": [
								{
									"internalType": "uint256",
									"name": "Token",
									"type": "uint256"
								},
								{
									"internalType": "uint256",
									"name": "Price",
									"type": "uint256"
								},
								{
									"internalType": "string",
									"name": "Description",
									"type": "string"
								},
								{
									"internalType": "address",
									"name": "owner",
									"type": "address"
								},
								{
									"internalType": "uint256",
									"name": "DeleveryTime",
									"type": "uint256"
								}
							],
							"internalType": "struct Storage.Vender[]",
							"name": "",
							"type": "tuple[]"
						}
					],
					"stateMutability": "view",
					"type": "function"
				},
				{
					"inputs": [
						{
							"internalType": "address",
							"name": "",
							"type": "address"
						},
						{
							"internalType": "uint256",
							"name": "",
							"type": "uint256"
						}
					],
					"name": "Ch",
					"outputs": [
						{
							"internalType": "bool",
							"name": "",
							"type": "bool"
						}
					],
					"stateMutability": "view",
					"type": "function"
				},
				{
					"inputs": [
						{
							"internalType": "uint256",
							"name": "_token",
							"type": "uint256"
						}
					],
					"name": "CheckTime",
					"outputs": [
						{
							"internalType": "bool",
							"name": "",
							"type": "bool"
						}
					],
					"stateMutability": "view",
					"type": "function"
				},
				{
					"inputs": [
						{
							"internalType": "uint256",
							"name": "",
							"type": "uint256"
						},
						{
							"internalType": "address",
							"name": "",
							"type": "address"
						}
					],
					"name": "Communication",
					"outputs": [
						{
							"internalType": "address",
							"name": "receiver",
							"type": "address"
						},
						{
							"internalType": "uint256",
							"name": "price",
							"type": "uint256"
						},
						{
							"internalType": "bool",
							"name": "done",
							"type": "bool"
						}
					],
					"stateMutability": "view",
					"type": "function"
				},
				{
					"inputs": [],
					"name": "Contract",
					"outputs": [
						{
							"internalType": "address",
							"name": "",
							"type": "address"
						}
					],
					"stateMutability": "view",
					"type": "function"
				},
				{
					"inputs": [
						{
							"internalType": "uint256",
							"name": "_token",
							"type": "uint256"
						}
					],
					"name": "DeleteVRequest",
					"outputs": [],
					"stateMutability": "nonpayable",
					"type": "function"
				},
				{
					"inputs": [
						{
							"internalType": "address",
							"name": "_to",
							"type": "address"
						},
						{
							"internalType": "address",
							"name": "from",
							"type": "address"
						},
						{
							"internalType": "uint256",
							"name": "tokenId",
							"type": "uint256"
						}
					],
					"name": "Done",
					"outputs": [],
					"stateMutability": "payable",
					"type": "function"
				},
				{
					"inputs": [
						{
							"internalType": "uint256",
							"name": "",
							"type": "uint256"
						},
						{
							"internalType": "address",
							"name": "",
							"type": "address"
						}
					],
					"name": "Finder",
					"outputs": [
						{
							"internalType": "uint256",
							"name": "",
							"type": "uint256"
						}
					],
					"stateMutability": "view",
					"type": "function"
				},
				{
					"inputs": [
						{
							"internalType": "address",
							"name": "",
							"type": "address"
						},
						{
							"internalType": "uint256",
							"name": "",
							"type": "uint256"
						},
						{
							"internalType": "address",
							"name": "",
							"type": "address"
						}
					],
					"name": "Invite",
					"outputs": [
						{
							"internalType": "bool",
							"name": "",
							"type": "bool"
						}
					],
					"stateMutability": "view",
					"type": "function"
				},
				{
					"inputs": [
						{
							"internalType": "address",
							"name": "",
							"type": "address"
						},
						{
							"internalType": "uint256",
							"name": "",
							"type": "uint256"
						}
					],
					"name": "Pending",
					"outputs": [
						{
							"internalType": "bool",
							"name": "",
							"type": "bool"
						}
					],
					"stateMutability": "view",
					"type": "function"
				},
				{
					"inputs": [
						{
							"internalType": "address",
							"name": "",
							"type": "address"
						}
					],
					"name": "Ratting",
					"outputs": [
						{
							"internalType": "uint256",
							"name": "",
							"type": "uint256"
						}
					],
					"stateMutability": "view",
					"type": "function"
				},
				{
					"inputs": [
						{
							"internalType": "address",
							"name": "",
							"type": "address"
						}
					],
					"name": "Requests",
					"outputs": [
						{
							"internalType": "uint256",
							"name": "",
							"type": "uint256"
						}
					],
					"stateMutability": "view",
					"type": "function"
				},
				{
					"inputs": [
						{
							"internalType": "address",
							"name": "",
							"type": "address"
						}
					],
					"name": "Size",
					"outputs": [
						{
							"internalType": "uint256",
							"name": "",
							"type": "uint256"
						}
					],
					"stateMutability": "view",
					"type": "function"
				},
				{
					"inputs": [
						{
							"internalType": "uint256",
							"name": "",
							"type": "uint256"
						}
					],
					"name": "SizeVender",
					"outputs": [
						{
							"internalType": "uint256",
							"name": "",
							"type": "uint256"
						}
					],
					"stateMutability": "view",
					"type": "function"
				},
				{
					"inputs": [
						{
							"internalType": "uint256",
							"name": "",
							"type": "uint256"
						}
					],
					"name": "Total",
					"outputs": [
						{
							"internalType": "uint256",
							"name": "TokenId",
							"type": "uint256"
						},
						{
							"internalType": "string",
							"name": "name",
							"type": "string"
						},
						{
							"internalType": "uint256",
							"name": "quantity",
							"type": "uint256"
						},
						{
							"internalType": "uint256",
							"name": "budget",
							"type": "uint256"
						},
						{
							"internalType": "uint256",
							"name": "time",
							"type": "uint256"
						},
						{
							"internalType": "uint256",
							"name": "start",
							"type": "uint256"
						},
						{
							"internalType": "string",
							"name": "_address",
							"type": "string"
						},
						{
							"internalType": "string",
							"name": "description",
							"type": "string"
						},
						{
							"internalType": "address",
							"name": "owner",
							"type": "address"
						}
					],
					"stateMutability": "view",
					"type": "function"
				},
				{
					"inputs": [],
					"name": "TotalTender",
					"outputs": [
						{
							"internalType": "uint256",
							"name": "_value",
							"type": "uint256"
						}
					],
					"stateMutability": "view",
					"type": "function"
				},
				{
					"inputs": [],
					"name": "TotalVender",
					"outputs": [
						{
							"internalType": "uint256",
							"name": "_value",
							"type": "uint256"
						}
					],
					"stateMutability": "view",
					"type": "function"
				},
				{
					"inputs": [
						{
							"internalType": "uint256",
							"name": "_token",
							"type": "uint256"
						},
						{
							"internalType": "uint256",
							"name": "_price",
							"type": "uint256"
						},
						{
							"internalType": "string",
							"name": "_description",
							"type": "string"
						},
						{
							"internalType": "uint256",
							"name": "_deleveryTime",
							"type": "uint256"
						}
					],
					"name": "UpdateRequest",
					"outputs": [],
					"stateMutability": "nonpayable",
					"type": "function"
				},
				{
					"inputs": [
						{
							"internalType": "uint256",
							"name": "",
							"type": "uint256"
						},
						{
							"internalType": "uint256",
							"name": "",
							"type": "uint256"
						}
					],
					"name": "Venders",
					"outputs": [
						{
							"internalType": "uint256",
							"name": "Token",
							"type": "uint256"
						},
						{
							"internalType": "uint256",
							"name": "Price",
							"type": "uint256"
						},
						{
							"internalType": "string",
							"name": "Description",
							"type": "string"
						},
						{
							"internalType": "address",
							"name": "owner",
							"type": "address"
						},
						{
							"internalType": "uint256",
							"name": "DeleveryTime",
							"type": "uint256"
						}
					],
					"stateMutability": "view",
					"type": "function"
				},
				{
					"inputs": [
						{
							"internalType": "address",
							"name": "_to",
							"type": "address"
						}
					],
					"name": "getTender",
					"outputs": [
						{
							"components": [
								{
									"internalType": "uint256",
									"name": "TokenId",
									"type": "uint256"
								},
								{
									"internalType": "string",
									"name": "name",
									"type": "string"
								},
								{
									"internalType": "uint256",
									"name": "quantity",
									"type": "uint256"
								},
								{
									"internalType": "uint256",
									"name": "budget",
									"type": "uint256"
								},
								{
									"internalType": "uint256",
									"name": "time",
									"type": "uint256"
								},
								{
									"internalType": "uint256",
									"name": "start",
									"type": "uint256"
								},
								{
									"internalType": "string",
									"name": "_address",
									"type": "string"
								},
								{
									"internalType": "string",
									"name": "description",
									"type": "string"
								},
								{
									"internalType": "address",
									"name": "owner",
									"type": "address"
								}
							],
							"internalType": "struct Storage.Tender[]",
							"name": "",
							"type": "tuple[]"
						}
					],
					"stateMutability": "view",
					"type": "function"
				},
				{
					"inputs": [
						{
							"internalType": "address",
							"name": "_address",
							"type": "address"
						}
					],
					"name": "getVender",
					"outputs": [
						{
							"components": [
								{
									"internalType": "uint256",
									"name": "Token",
									"type": "uint256"
								},
								{
									"internalType": "uint256",
									"name": "Price",
									"type": "uint256"
								},
								{
									"internalType": "string",
									"name": "Description",
									"type": "string"
								},
								{
									"internalType": "address",
									"name": "owner",
									"type": "address"
								},
								{
									"internalType": "uint256",
									"name": "DeleveryTime",
									"type": "uint256"
								}
							],
							"internalType": "struct Storage.Vender[]",
							"name": "",
							"type": "tuple[]"
						}
					],
					"stateMutability": "view",
					"type": "function"
				},
				{
					"inputs": [
						{
							"internalType": "string",
							"name": "_name",
							"type": "string"
						},
						{
							"internalType": "uint256",
							"name": "_quantity",
							"type": "uint256"
						},
						{
							"internalType": "uint256",
							"name": "_budget",
							"type": "uint256"
						},
						{
							"internalType": "uint256",
							"name": "_time",
							"type": "uint256"
						},
						{
							"internalType": "string",
							"name": "Address",
							"type": "string"
						},
						{
							"internalType": "string",
							"name": "_description",
							"type": "string"
						}
					],
					"name": "tender",
					"outputs": [],
					"stateMutability": "nonpayable",
					"type": "function"
				},
				{
					"inputs": [
						{
							"internalType": "uint256",
							"name": "_token",
							"type": "uint256"
						},
						{
							"internalType": "uint256",
							"name": "_price",
							"type": "uint256"
						},
						{
							"internalType": "string",
							"name": "_description",
							"type": "string"
						},
						{
							"internalType": "uint256",
							"name": "_deleveryTime",
							"type": "uint256"
						}
					],
					"name": "vender",
					"outputs": [],
					"stateMutability": "nonpayable",
					"type": "function"
				}
			],
			"devdoc": {
				"custom:dev-run-script": "./scripts/deploy_with_ethers.ts",
				"details": "Store & retrieve value in a variable",
				"kind": "dev",
				"methods": {},
				"title": "Storage",
				"version": 1
			},
			"evm": {
				"assembly": "    /* \"contracts/Fast/contract.sol\":254:5869  contract Storage {... */\n  mstore(0x40, 0x80)\n    /* \"contracts/Fast/contract.sol\":1614:1668  constructor(){... */\n  callvalue\n  dup1\n  iszero\n  tag_1\n  jumpi\n  0x00\n  dup1\n  revert\ntag_1:\n  pop\n    /* \"contracts/Fast/contract.sol\":1656:1660  this */\n  address\n    /* \"contracts/Fast/contract.sol\":1637:1645  Contract */\n  0x02\n  0x00\n    /* \"contracts/Fast/contract.sol\":1637:1661  Contract = address(this) */\n  0x0100\n  exp\n  dup2\n  sload\n  dup2\n  0xffffffffffffffffffffffffffffffffffffffff\n  mul\n  not\n  and\n  swap1\n  dup4\n  0xffffffffffffffffffffffffffffffffffffffff\n  and\n  mul\n  or\n  swap1\n  sstore\n  pop\n    /* \"contracts/Fast/contract.sol\":254:5869  contract Storage {... */\n  dataSize(sub_0)\n  dup1\n  dataOffset(sub_0)\n  0x00\n  codecopy\n  0x00\n  return\nstop\n\nsub_0: assembly {\n        /* \"contracts/Fast/contract.sol\":254:5869  contract Storage {... */\n      mstore(0x40, 0x80)\n      jumpi(tag_1, lt(calldatasize, 0x04))\n      shr(0xe0, calldataload(0x00))\n      dup1\n      0x9d6d10f9\n      gt\n      tag_28\n      jumpi\n      dup1\n      0xbc16aad7\n      gt\n      tag_29\n      jumpi\n      dup1\n      0xd0c3e909\n      gt\n      tag_30\n      jumpi\n      dup1\n      0xd0c3e909\n      eq\n      tag_24\n      jumpi\n      dup1\n      0xd60f5a38\n      eq\n      tag_25\n      jumpi\n      dup1\n      0xd7add75f\n      eq\n      tag_26\n      jumpi\n      dup1\n      0xffd64f8a\n      eq\n      tag_27\n      jumpi\n      jump(tag_1)\n    tag_30:\n      dup1\n      0xbc16aad7\n      eq\n      tag_21\n      jumpi\n      dup1\n      0xcf507bfb\n      eq\n      tag_22\n      jumpi\n      dup1\n      0xd0c343d6\n      eq\n      tag_23\n      jumpi\n      jump(tag_1)\n    tag_29:\n      dup1\n      0x9d6d10f9\n      eq\n      tag_15\n      jumpi\n      dup1\n      0x9fff963e\n      eq\n      tag_16\n      jumpi\n      dup1\n      0xa06c5e3d\n      eq\n      tag_17\n      jumpi\n      dup1\n      0xa56d6544\n      eq\n      tag_18\n      jumpi\n      dup1\n      0xb19781fe\n      eq\n      tag_19\n      jumpi\n      dup1\n      0xb28189fa\n      eq\n      tag_20\n      jumpi\n      jump(tag_1)\n    tag_28:\n      dup1\n      0x30182235\n      gt\n      tag_31\n      jumpi\n      dup1\n      0x52943ff5\n      gt\n      tag_32\n      jumpi\n      dup1\n      0x52943ff5\n      eq\n      tag_11\n      jumpi\n      dup1\n      0x5af77fff\n      eq\n      tag_12\n      jumpi\n      dup1\n      0x75772c47\n      eq\n      tag_13\n      jumpi\n      dup1\n      0x86e9ff0a\n      eq\n      tag_14\n      jumpi\n      jump(tag_1)\n    tag_32:\n      dup1\n      0x30182235\n      eq\n      tag_8\n      jumpi\n      dup1\n      0x40f12058\n      eq\n      tag_9\n      jumpi\n      dup1\n      0x4fcb4a58\n      eq\n      tag_10\n      jumpi\n      jump(tag_1)\n    tag_31:\n      dup1\n      0x0c4a3338\n      eq\n      tag_2\n      jumpi\n      dup1\n      0x168d5d34\n      eq\n      tag_3\n      jumpi\n      dup1\n      0x1a4b3311\n      eq\n      tag_4\n      jumpi\n      dup1\n      0x1a779488\n      eq\n      tag_5\n      jumpi\n      dup1\n      0x2302ec7e\n      eq\n      tag_6\n      jumpi\n      dup1\n      0x25af0316\n      eq\n      tag_7\n      jumpi\n    tag_1:\n      0x00\n      dup1\n      revert\n        /* \"contracts/Fast/contract.sol\":2774:3004  function CheckTime(uint _token) public view returns (bool)  {... */\n    tag_2:\n      callvalue\n      dup1\n      iszero\n      tag_33\n      jumpi\n      0x00\n      dup1\n      revert\n    tag_33:\n      pop\n      tag_34\n      0x04\n      dup1\n      calldatasize\n      sub\n      dup2\n      add\n      swap1\n      tag_35\n      swap2\n      swap1\n      tag_36\n      jump\t// in\n    tag_35:\n      tag_37\n      jump\t// in\n    tag_34:\n      mload(0x40)\n      tag_38\n      swap2\n      swap1\n      tag_39\n      jump\t// in\n    tag_38:\n      mload(0x40)\n      dup1\n      swap2\n      sub\n      swap1\n      return\n        /* \"contracts/Fast/contract.sol\":1181:1238  mapping (uint => mapping(uint => Vender )) public Venders */\n    tag_3:\n      callvalue\n      dup1\n      iszero\n      tag_40\n      jumpi\n      0x00\n      dup1\n      revert\n    tag_40:\n      pop\n      tag_41\n      0x04\n      dup1\n      calldatasize\n      sub\n      dup2\n      add\n      swap1\n      tag_42\n      swap2\n      swap1\n      tag_43\n      jump\t// in\n    tag_42:\n      tag_44\n      jump\t// in\n    tag_41:\n      mload(0x40)\n      tag_45\n      swap6\n      swap5\n      swap4\n      swap3\n      swap2\n      swap1\n      tag_46\n      jump\t// in\n    tag_45:\n      mload(0x40)\n      dup1\n      swap2\n      sub\n      swap1\n      return\n        /* \"contracts/Fast/contract.sol\":1303:1344  mapping (address => uint) public Requests */\n    tag_4:\n      callvalue\n      dup1\n      iszero\n      tag_47\n      jumpi\n      0x00\n      dup1\n      revert\n    tag_47:\n      pop\n      tag_48\n      0x04\n      dup1\n      calldatasize\n      sub\n      dup2\n      add\n      swap1\n      tag_49\n      swap2\n      swap1\n      tag_50\n      jump\t// in\n    tag_49:\n      tag_51\n      jump\t// in\n    tag_48:\n      mload(0x40)\n      tag_52\n      swap2\n      swap1\n      tag_53\n      jump\t// in\n    tag_52:\n      mload(0x40)\n      dup1\n      swap2\n      sub\n      swap1\n      return\n        /* \"contracts/Fast/contract.sol\":1673:2025  function tender(string memory _name,uint _quantity,uint _budget,uint _time,string memory Address,string memory _description) public {... */\n    tag_5:\n      callvalue\n      dup1\n      iszero\n      tag_54\n      jumpi\n      0x00\n      dup1\n      revert\n    tag_54:\n      pop\n      tag_55\n      0x04\n      dup1\n      calldatasize\n      sub\n      dup2\n      add\n      swap1\n      tag_56\n      swap2\n      swap1\n      tag_57\n      jump\t// in\n    tag_56:\n      tag_58\n      jump\t// in\n    tag_55:\n      stop\n        /* \"contracts/Fast/contract.sol\":4546:4863  function DeleteVRequest(uint _token) public {... */\n    tag_6:\n      callvalue\n      dup1\n      iszero\n      tag_59\n      jumpi\n      0x00\n      dup1\n      revert\n    tag_59:\n      pop\n      tag_60\n      0x04\n      dup1\n      calldatasize\n      sub\n      dup2\n      add\n      swap1\n      tag_61\n      swap2\n      swap1\n      tag_36\n      jump\t// in\n    tag_61:\n      tag_62\n      jump\t// in\n    tag_60:\n      stop\n        /* \"contracts/Fast/contract.sol\":359:394  Counters.Counter public TotalVender */\n    tag_7:\n      callvalue\n      dup1\n      iszero\n      tag_63\n      jumpi\n      0x00\n      dup1\n      revert\n    tag_63:\n      pop\n      tag_64\n      tag_65\n      jump\t// in\n    tag_64:\n      mload(0x40)\n      tag_66\n      swap2\n      swap1\n      tag_53\n      jump\t// in\n    tag_66:\n      mload(0x40)\n      dup1\n      swap2\n      sub\n      swap1\n      return\n        /* \"contracts/Fast/contract.sol\":1412:1475  mapping (uint => mapping(address => Comm)) public Communication */\n    tag_8:\n      callvalue\n      dup1\n      iszero\n      tag_67\n      jumpi\n      0x00\n      dup1\n      revert\n    tag_67:\n      pop\n      tag_68\n      0x04\n      dup1\n      calldatasize\n      sub\n      dup2\n      add\n      swap1\n      tag_69\n      swap2\n      swap1\n      tag_70\n      jump\t// in\n    tag_69:\n      tag_71\n      jump\t// in\n    tag_68:\n      mload(0x40)\n      tag_72\n      swap4\n      swap3\n      swap2\n      swap1\n      tag_73\n      jump\t// in\n    tag_72:\n      mload(0x40)\n      dup1\n      swap2\n      sub\n      swap1\n      return\n        /* \"contracts/Fast/contract.sol\":1244:1296  mapping (address => mapping(uint => bool)) public Ch */\n    tag_9:\n      callvalue\n      dup1\n      iszero\n      tag_74\n      jumpi\n      0x00\n      dup1\n      revert\n    tag_74:\n      pop\n      tag_75\n      0x04\n      dup1\n      calldatasize\n      sub\n      dup2\n      add\n      swap1\n      tag_76\n      swap2\n      swap1\n      tag_77\n      jump\t// in\n    tag_76:\n      tag_78\n      jump\t// in\n    tag_75:\n      mload(0x40)\n      tag_79\n      swap2\n      swap1\n      tag_39\n      jump\t// in\n    tag_79:\n      mload(0x40)\n      dup1\n      swap2\n      sub\n      swap1\n      return\n        /* \"contracts/Fast/contract.sol\":3009:3584  function vender(uint _token,uint _price,string memory _description,uint _deleveryTime) public {... */\n    tag_10:\n      callvalue\n      dup1\n      iszero\n      tag_80\n      jumpi\n      0x00\n      dup1\n      revert\n    tag_80:\n      pop\n      tag_81\n      0x04\n      dup1\n      calldatasize\n      sub\n      dup2\n      add\n      swap1\n      tag_82\n      swap2\n      swap1\n      tag_83\n      jump\t// in\n    tag_82:\n      tag_84\n      jump\t// in\n    tag_81:\n      stop\n        /* \"contracts/Fast/contract.sol\":1137:1175  mapping (uint => Tender ) public Total */\n    tag_11:\n      callvalue\n      dup1\n      iszero\n      tag_85\n      jumpi\n      0x00\n      dup1\n      revert\n    tag_85:\n      pop\n      tag_86\n      0x04\n      dup1\n      calldatasize\n      sub\n      dup2\n      add\n      swap1\n      tag_87\n      swap2\n      swap1\n      tag_36\n      jump\t// in\n    tag_87:\n      tag_88\n      jump\t// in\n    tag_86:\n      mload(0x40)\n      tag_89\n      swap10\n      swap9\n      swap8\n      swap7\n      swap6\n      swap5\n      swap4\n      swap3\n      swap2\n      swap1\n      tag_90\n      jump\t// in\n    tag_89:\n      mload(0x40)\n      dup1\n      swap2\n      sub\n      swap1\n      return\n        /* \"contracts/Fast/contract.sol\":401:424  address public Contract */\n    tag_12:\n      callvalue\n      dup1\n      iszero\n      tag_91\n      jumpi\n      0x00\n      dup1\n      revert\n    tag_91:\n      pop\n      tag_92\n      tag_93\n      jump\t// in\n    tag_92:\n      mload(0x40)\n      tag_94\n      swap2\n      swap1\n      tag_95\n      jump\t// in\n    tag_94:\n      mload(0x40)\n      dup1\n      swap2\n      sub\n      swap1\n      return\n        /* \"contracts/Fast/contract.sol\":1028:1085  mapping (address => mapping(uint => bool)) public Pending */\n    tag_13:\n      callvalue\n      dup1\n      iszero\n      tag_96\n      jumpi\n      0x00\n      dup1\n      revert\n    tag_96:\n      pop\n      tag_97\n      0x04\n      dup1\n      calldatasize\n      sub\n      dup2\n      add\n      swap1\n      tag_98\n      swap2\n      swap1\n      tag_77\n      jump\t// in\n    tag_98:\n      tag_99\n      jump\t// in\n    tag_97:\n      mload(0x40)\n      tag_100\n      swap2\n      swap1\n      tag_39\n      jump\t// in\n    tag_100:\n      mload(0x40)\n      dup1\n      swap2\n      sub\n      swap1\n      return\n        /* \"contracts/Fast/contract.sol\":3589:4020  function AllVender(uint _token) public view returns (Vender[] memory)  {... */\n    tag_14:\n      callvalue\n      dup1\n      iszero\n      tag_101\n      jumpi\n      0x00\n      dup1\n      revert\n    tag_101:\n      pop\n      tag_102\n      0x04\n      dup1\n      calldatasize\n      sub\n      dup2\n      add\n      swap1\n      tag_103\n      swap2\n      swap1\n      tag_36\n      jump\t// in\n    tag_103:\n      tag_104\n      jump\t// in\n    tag_102:\n      mload(0x40)\n      tag_105\n      swap2\n      swap1\n      tag_106\n      jump\t// in\n    tag_105:\n      mload(0x40)\n      dup1\n      swap2\n      sub\n      swap1\n      return\n        /* \"contracts/Fast/contract.sol\":1563:1603  mapping (address => uint) public Ratting */\n    tag_15:\n      callvalue\n      dup1\n      iszero\n      tag_107\n      jumpi\n      0x00\n      dup1\n      revert\n    tag_107:\n      pop\n      tag_108\n      0x04\n      dup1\n      calldatasize\n      sub\n      dup2\n      add\n      swap1\n      tag_109\n      swap2\n      swap1\n      tag_50\n      jump\t// in\n    tag_109:\n      tag_110\n      jump\t// in\n    tag_108:\n      mload(0x40)\n      tag_111\n      swap2\n      swap1\n      tag_53\n      jump\t// in\n    tag_111:\n      mload(0x40)\n      dup1\n      swap2\n      sub\n      swap1\n      return\n        /* \"contracts/Fast/contract.sol\":1350:1406  mapping (uint => mapping(address => uint)) public Finder */\n    tag_16:\n      callvalue\n      dup1\n      iszero\n      tag_112\n      jumpi\n      0x00\n      dup1\n      revert\n    tag_112:\n      pop\n      tag_113\n      0x04\n      dup1\n      calldatasize\n      sub\n      dup2\n      add\n      swap1\n      tag_114\n      swap2\n      swap1\n      tag_70\n      jump\t// in\n    tag_114:\n      tag_115\n      jump\t// in\n    tag_113:\n      mload(0x40)\n      tag_116\n      swap2\n      swap1\n      tag_53\n      jump\t// in\n    tag_116:\n      mload(0x40)\n      dup1\n      swap2\n      sub\n      swap1\n      return\n        /* \"contracts/Fast/contract.sol\":5096:5341  function AcceptInvitation(uint _token,address _receiver,address _to,uint _price) public {... */\n    tag_17:\n      callvalue\n      dup1\n      iszero\n      tag_117\n      jumpi\n      0x00\n      dup1\n      revert\n    tag_117:\n      pop\n      tag_118\n      0x04\n      dup1\n      calldatasize\n      sub\n      dup2\n      add\n      swap1\n      tag_119\n      swap2\n      swap1\n      tag_120\n      jump\t// in\n    tag_119:\n      tag_121\n      jump\t// in\n    tag_118:\n      stop\n        /* \"contracts/Fast/contract.sol\":1481:1557  mapping (address => mapping(uint => mapping(address => bool))) public Invite */\n    tag_18:\n      callvalue\n      dup1\n      iszero\n      tag_122\n      jumpi\n      0x00\n      dup1\n      revert\n    tag_122:\n      pop\n      tag_123\n      0x04\n      dup1\n      calldatasize\n      sub\n      dup2\n      add\n      swap1\n      tag_124\n      swap2\n      swap1\n      tag_125\n      jump\t// in\n    tag_124:\n      tag_126\n      jump\t// in\n    tag_123:\n      mload(0x40)\n      tag_127\n      swap2\n      swap1\n      tag_39\n      jump\t// in\n    tag_127:\n      mload(0x40)\n      dup1\n      swap2\n      sub\n      swap1\n      return\n        /* \"contracts/Fast/contract.sol\":985:1022  mapping (address => uint) public Size */\n    tag_19:\n      callvalue\n      dup1\n      iszero\n      tag_128\n      jumpi\n      0x00\n      dup1\n      revert\n    tag_128:\n      pop\n      tag_129\n      0x04\n      dup1\n      calldatasize\n      sub\n      dup2\n      add\n      swap1\n      tag_130\n      swap2\n      swap1\n      tag_50\n      jump\t// in\n    tag_130:\n      tag_131\n      jump\t// in\n    tag_129:\n      mload(0x40)\n      tag_132\n      swap2\n      swap1\n      tag_53\n      jump\t// in\n    tag_132:\n      mload(0x40)\n      dup1\n      swap2\n      sub\n      swap1\n      return\n        /* \"contracts/Fast/contract.sol\":5346:5488  function Accepted(uint _token,address receiver,address _to) public view returns(bool){    ... */\n    tag_20:\n      callvalue\n      dup1\n      iszero\n      tag_133\n      jumpi\n      0x00\n      dup1\n      revert\n    tag_133:\n      pop\n      tag_134\n      0x04\n      dup1\n      calldatasize\n      sub\n      dup2\n      add\n      swap1\n      tag_135\n      swap2\n      swap1\n      tag_136\n      jump\t// in\n    tag_135:\n      tag_137\n      jump\t// in\n    tag_134:\n      mload(0x40)\n      tag_138\n      swap2\n      swap1\n      tag_39\n      jump\t// in\n    tag_138:\n      mload(0x40)\n      dup1\n      swap2\n      sub\n      swap1\n      return\n        /* \"contracts/Fast/contract.sol\":2434:2769  function AllTender() public view returns (Tender[] memory)  {... */\n    tag_21:\n      callvalue\n      dup1\n      iszero\n      tag_139\n      jumpi\n      0x00\n      dup1\n      revert\n    tag_139:\n      pop\n      tag_140\n      tag_141\n      jump\t// in\n    tag_140:\n      mload(0x40)\n      tag_142\n      swap2\n      swap1\n      tag_143\n      jump\t// in\n    tag_142:\n      mload(0x40)\n      dup1\n      swap2\n      sub\n      swap1\n      return\n        /* \"contracts/Fast/contract.sol\":4868:5091  function UpdateRequest(uint _token,uint _price,string memory _description,uint _deleveryTime) public {... */\n    tag_22:\n      callvalue\n      dup1\n      iszero\n      tag_144\n      jumpi\n      0x00\n      dup1\n      revert\n    tag_144:\n      pop\n      tag_145\n      0x04\n      dup1\n      calldatasize\n      sub\n      dup2\n      add\n      swap1\n      tag_146\n      swap2\n      swap1\n      tag_83\n      jump\t// in\n    tag_146:\n      tag_147\n      jump\t// in\n    tag_145:\n      stop\n        /* \"contracts/Fast/contract.sol\":4025:4541  function getVender(address _address) public view returns (Vender[] memory)  {... */\n    tag_23:\n      callvalue\n      dup1\n      iszero\n      tag_148\n      jumpi\n      0x00\n      dup1\n      revert\n    tag_148:\n      pop\n      tag_149\n      0x04\n      dup1\n      calldatasize\n      sub\n      dup2\n      add\n      swap1\n      tag_150\n      swap2\n      swap1\n      tag_50\n      jump\t// in\n    tag_150:\n      tag_151\n      jump\t// in\n    tag_149:\n      mload(0x40)\n      tag_152\n      swap2\n      swap1\n      tag_106\n      jump\t// in\n    tag_152:\n      mload(0x40)\n      dup1\n      swap2\n      sub\n      swap1\n      return\n        /* \"contracts/Fast/contract.sol\":2030:2429  function getTender(address _to) public view returns (Tender[] memory)  {... */\n    tag_24:\n      callvalue\n      dup1\n      iszero\n      tag_153\n      jumpi\n      0x00\n      dup1\n      revert\n    tag_153:\n      pop\n      tag_154\n      0x04\n      dup1\n      calldatasize\n      sub\n      dup2\n      add\n      swap1\n      tag_155\n      swap2\n      swap1\n      tag_50\n      jump\t// in\n    tag_155:\n      tag_156\n      jump\t// in\n    tag_154:\n      mload(0x40)\n      tag_157\n      swap2\n      swap1\n      tag_143\n      jump\t// in\n    tag_157:\n      mload(0x40)\n      dup1\n      swap2\n      sub\n      swap1\n      return\n        /* \"contracts/Fast/contract.sol\":5493:5862  function Done(address _to,address from,uint tokenId) public payable {... */\n    tag_25:\n      tag_158\n      0x04\n      dup1\n      calldatasize\n      sub\n      dup2\n      add\n      swap1\n      tag_159\n      swap2\n      swap1\n      tag_160\n      jump\t// in\n    tag_159:\n      tag_161\n      jump\t// in\n    tag_158:\n      stop\n        /* \"contracts/Fast/contract.sol\":318:353  Counters.Counter public TotalTender */\n    tag_26:\n      callvalue\n      dup1\n      iszero\n      tag_162\n      jumpi\n      0x00\n      dup1\n      revert\n    tag_162:\n      pop\n      tag_163\n      tag_164\n      jump\t// in\n    tag_163:\n      mload(0x40)\n      tag_165\n      swap2\n      swap1\n      tag_53\n      jump\t// in\n    tag_165:\n      mload(0x40)\n      dup1\n      swap2\n      sub\n      swap1\n      return\n        /* \"contracts/Fast/contract.sol\":1091:1131  mapping (uint => uint) public SizeVender */\n    tag_27:\n      callvalue\n      dup1\n      iszero\n      tag_166\n      jumpi\n      0x00\n      dup1\n      revert\n    tag_166:\n      pop\n      tag_167\n      0x04\n      dup1\n      calldatasize\n      sub\n      dup2\n      add\n      swap1\n      tag_168\n      swap2\n      swap1\n      tag_36\n      jump\t// in\n    tag_168:\n      tag_169\n      jump\t// in\n    tag_167:\n      mload(0x40)\n      tag_170\n      swap2\n      swap1\n      tag_53\n      jump\t// in\n    tag_170:\n      mload(0x40)\n      dup1\n      swap2\n      sub\n      swap1\n      return\n        /* \"contracts/Fast/contract.sol\":2774:3004  function CheckTime(uint _token) public view returns (bool)  {... */\n    tag_37:\n        /* \"contracts/Fast/contract.sol\":2827:2831  bool */\n      0x00\n        /* \"contracts/Fast/contract.sol\":2896:2911  block.timestamp */\n      timestamp\n        /* \"contracts/Fast/contract.sol\":2889:2891  60 */\n      0x3c\n        /* \"contracts/Fast/contract.sol\":2870:2875  Total */\n      0x06\n        /* \"contracts/Fast/contract.sol\":2870:2883  Total[_token] */\n      0x00\n        /* \"contracts/Fast/contract.sol\":2876:2882  _token */\n      dup6\n        /* \"contracts/Fast/contract.sol\":2870:2883  Total[_token] */\n      dup2\n      mstore\n      0x20\n      add\n      swap1\n      dup2\n      mstore\n      0x20\n      add\n      0x00\n      keccak256\n        /* \"contracts/Fast/contract.sol\":2870:2888  Total[_token].time */\n      0x04\n      add\n      sload\n        /* \"contracts/Fast/contract.sol\":2870:2891  Total[_token].time*60 */\n      tag_172\n      swap2\n      swap1\n      tag_173\n      jump\t// in\n    tag_172:\n        /* \"contracts/Fast/contract.sol\":2847:2852  Total */\n      0x06\n        /* \"contracts/Fast/contract.sol\":2847:2860  Total[_token] */\n      0x00\n        /* \"contracts/Fast/contract.sol\":2853:2859  _token */\n      dup6\n        /* \"contracts/Fast/contract.sol\":2847:2860  Total[_token] */\n      dup2\n      mstore\n      0x20\n      add\n      swap1\n      dup2\n      mstore\n      0x20\n      add\n      0x00\n      keccak256\n        /* \"contracts/Fast/contract.sol\":2847:2866  Total[_token].start */\n      0x05\n      add\n      sload\n        /* \"contracts/Fast/contract.sol\":2847:2892  Total[_token].start + (Total[_token].time*60) */\n      tag_174\n      swap2\n      swap1\n      tag_175\n      jump\t// in\n    tag_174:\n        /* \"contracts/Fast/contract.sol\":2847:2911  Total[_token].start + (Total[_token].time*60) <= block.timestamp */\n      gt\n        /* \"contracts/Fast/contract.sol\":2844:2998  if(Total[_token].start + (Total[_token].time*60) <= block.timestamp){... */\n      tag_176\n      jumpi\n        /* \"contracts/Fast/contract.sol\":2933:2938  false */\n      0x00\n        /* \"contracts/Fast/contract.sol\":2926:2938  return false */\n      swap1\n      pop\n      jump(tag_171)\n        /* \"contracts/Fast/contract.sol\":2844:2998  if(Total[_token].start + (Total[_token].time*60) <= block.timestamp){... */\n    tag_176:\n        /* \"contracts/Fast/contract.sol\":2983:2987  true */\n      0x01\n        /* \"contracts/Fast/contract.sol\":2976:2987  return true */\n      swap1\n      pop\n        /* \"contracts/Fast/contract.sol\":2774:3004  function CheckTime(uint _token) public view returns (bool)  {... */\n    tag_171:\n      swap2\n      swap1\n      pop\n      jump\t// out\n        /* \"contracts/Fast/contract.sol\":1181:1238  mapping (uint => mapping(uint => Vender )) public Venders */\n    tag_44:\n      mstore(0x20, 0x07)\n      dup2\n      0x00\n      mstore\n      mstore(0x20, keccak256(0x00, 0x40))\n      dup1\n      0x00\n      mstore\n      keccak256(0x00, 0x40)\n      0x00\n      swap2\n      pop\n      swap2\n      pop\n      pop\n      dup1\n      0x00\n      add\n      sload\n      swap1\n      dup1\n      0x01\n      add\n      sload\n      swap1\n      dup1\n      0x02\n      add\n      dup1\n      sload\n      tag_178\n      swap1\n      tag_179\n      jump\t// in\n    tag_178:\n      dup1\n      0x1f\n      add\n      0x20\n      dup1\n      swap2\n      div\n      mul\n      0x20\n      add\n      mload(0x40)\n      swap1\n      dup2\n      add\n      0x40\n      mstore\n      dup1\n      swap3\n      swap2\n      swap1\n      dup2\n      dup2\n      mstore\n      0x20\n      add\n      dup3\n      dup1\n      sload\n      tag_180\n      swap1\n      tag_179\n      jump\t// in\n    tag_180:\n      dup1\n      iszero\n      tag_181\n      jumpi\n      dup1\n      0x1f\n      lt\n      tag_182\n      jumpi\n      0x0100\n      dup1\n      dup4\n      sload\n      div\n      mul\n      dup4\n      mstore\n      swap2\n      0x20\n      add\n      swap2\n      jump(tag_181)\n    tag_182:\n      dup3\n      add\n      swap2\n      swap1\n      0x00\n      mstore\n      keccak256(0x00, 0x20)\n      swap1\n    tag_183:\n      dup2\n      sload\n      dup2\n      mstore\n      swap1\n      0x01\n      add\n      swap1\n      0x20\n      add\n      dup1\n      dup4\n      gt\n      tag_183\n      jumpi\n      dup3\n      swap1\n      sub\n      0x1f\n      and\n      dup3\n      add\n      swap2\n    tag_181:\n      pop\n      pop\n      pop\n      pop\n      pop\n      swap1\n      dup1\n      0x03\n      add\n      0x00\n      swap1\n      sload\n      swap1\n      0x0100\n      exp\n      swap1\n      div\n      0xffffffffffffffffffffffffffffffffffffffff\n      and\n      swap1\n      dup1\n      0x04\n      add\n      sload\n      swap1\n      pop\n      dup6\n      jump\t// out\n        /* \"contracts/Fast/contract.sol\":1303:1344  mapping (address => uint) public Requests */\n    tag_51:\n      mstore(0x20, 0x09)\n      dup1\n      0x00\n      mstore\n      keccak256(0x00, 0x40)\n      0x00\n      swap2\n      pop\n      swap1\n      pop\n      sload\n      dup2\n      jump\t// out\n        /* \"contracts/Fast/contract.sol\":1673:2025  function tender(string memory _name,uint _quantity,uint _budget,uint _time,string memory Address,string memory _description) public {... */\n    tag_58:\n        /* \"contracts/Fast/contract.sol\":1815:1838  TotalTender.increment() */\n      tag_185\n        /* \"contracts/Fast/contract.sol\":1815:1826  TotalTender */\n      0x00\n        /* \"contracts/Fast/contract.sol\":1815:1836  TotalTender.increment */\n      tag_186\n        /* \"contracts/Fast/contract.sol\":1815:1838  TotalTender.increment() */\n      jump\t// in\n    tag_185:\n        /* \"contracts/Fast/contract.sol\":1868:1869  1 */\n      0x01\n        /* \"contracts/Fast/contract.sol\":1848:1852  Size */\n      0x03\n        /* \"contracts/Fast/contract.sol\":1848:1864  Size[msg.sender] */\n      0x00\n        /* \"contracts/Fast/contract.sol\":1853:1863  msg.sender */\n      caller\n        /* \"contracts/Fast/contract.sol\":1848:1864  Size[msg.sender] */\n      0xffffffffffffffffffffffffffffffffffffffff\n      and\n      0xffffffffffffffffffffffffffffffffffffffff\n      and\n      dup2\n      mstore\n      0x20\n      add\n      swap1\n      dup2\n      mstore\n      0x20\n      add\n      0x00\n      keccak256\n      0x00\n        /* \"contracts/Fast/contract.sol\":1848:1869  Size[msg.sender] += 1 */\n      dup3\n      dup3\n      sload\n      tag_187\n      swap2\n      swap1\n      tag_175\n      jump\t// in\n    tag_187:\n      swap3\n      pop\n      pop\n      dup2\n      swap1\n      sstore\n      pop\n        /* \"contracts/Fast/contract.sol\":1911:2018  Tender(TotalTender.current(),_name,_quantity,_budget,_time,block.timestamp,Address,_description,msg.sender) */\n      mload(0x40)\n      dup1\n      0x0120\n      add\n      0x40\n      mstore\n      dup1\n        /* \"contracts/Fast/contract.sol\":1918:1939  TotalTender.current() */\n      tag_188\n        /* \"contracts/Fast/contract.sol\":1918:1929  TotalTender */\n      0x00\n        /* \"contracts/Fast/contract.sol\":1918:1937  TotalTender.current */\n      tag_189\n        /* \"contracts/Fast/contract.sol\":1918:1939  TotalTender.current() */\n      jump\t// in\n    tag_188:\n        /* \"contracts/Fast/contract.sol\":1911:2018  Tender(TotalTender.current(),_name,_quantity,_budget,_time,block.timestamp,Address,_description,msg.sender) */\n      dup2\n      mstore\n      0x20\n      add\n        /* \"contracts/Fast/contract.sol\":1940:1945  _name */\n      dup8\n        /* \"contracts/Fast/contract.sol\":1911:2018  Tender(TotalTender.current(),_name,_quantity,_budget,_time,block.timestamp,Address,_description,msg.sender) */\n      dup2\n      mstore\n      0x20\n      add\n        /* \"contracts/Fast/contract.sol\":1946:1955  _quantity */\n      dup7\n        /* \"contracts/Fast/contract.sol\":1911:2018  Tender(TotalTender.current(),_name,_quantity,_budget,_time,block.timestamp,Address,_description,msg.sender) */\n      dup2\n      mstore\n      0x20\n      add\n        /* \"contracts/Fast/contract.sol\":1956:1963  _budget */\n      dup6\n        /* \"contracts/Fast/contract.sol\":1911:2018  Tender(TotalTender.current(),_name,_quantity,_budget,_time,block.timestamp,Address,_description,msg.sender) */\n      dup2\n      mstore\n      0x20\n      add\n        /* \"contracts/Fast/contract.sol\":1964:1969  _time */\n      dup5\n        /* \"contracts/Fast/contract.sol\":1911:2018  Tender(TotalTender.current(),_name,_quantity,_budget,_time,block.timestamp,Address,_description,msg.sender) */\n      dup2\n      mstore\n      0x20\n      add\n        /* \"contracts/Fast/contract.sol\":1970:1985  block.timestamp */\n      timestamp\n        /* \"contracts/Fast/contract.sol\":1911:2018  Tender(TotalTender.current(),_name,_quantity,_budget,_time,block.timestamp,Address,_description,msg.sender) */\n      dup2\n      mstore\n      0x20\n      add\n        /* \"contracts/Fast/contract.sol\":1986:1993  Address */\n      dup4\n        /* \"contracts/Fast/contract.sol\":1911:2018  Tender(TotalTender.current(),_name,_quantity,_budget,_time,block.timestamp,Address,_description,msg.sender) */\n      dup2\n      mstore\n      0x20\n      add\n        /* \"contracts/Fast/contract.sol\":1994:2006  _description */\n      dup3\n        /* \"contracts/Fast/contract.sol\":1911:2018  Tender(TotalTender.current(),_name,_quantity,_budget,_time,block.timestamp,Address,_description,msg.sender) */\n      dup2\n      mstore\n      0x20\n      add\n        /* \"contracts/Fast/contract.sol\":2007:2017  msg.sender */\n      caller\n        /* \"contracts/Fast/contract.sol\":1911:2018  Tender(TotalTender.current(),_name,_quantity,_budget,_time,block.timestamp,Address,_description,msg.sender) */\n      0xffffffffffffffffffffffffffffffffffffffff\n      and\n      dup2\n      mstore\n      pop\n        /* \"contracts/Fast/contract.sol\":1880:1885  Total */\n      0x06\n        /* \"contracts/Fast/contract.sol\":1880:1908  Total[TotalTender.current()] */\n      0x00\n        /* \"contracts/Fast/contract.sol\":1886:1907  TotalTender.current() */\n      tag_190\n        /* \"contracts/Fast/contract.sol\":1886:1897  TotalTender */\n      0x00\n        /* \"contracts/Fast/contract.sol\":1886:1905  TotalTender.current */\n      tag_189\n        /* \"contracts/Fast/contract.sol\":1886:1907  TotalTender.current() */\n      jump\t// in\n    tag_190:\n        /* \"contracts/Fast/contract.sol\":1880:1908  Total[TotalTender.current()] */\n      dup2\n      mstore\n      0x20\n      add\n      swap1\n      dup2\n      mstore\n      0x20\n      add\n      0x00\n      keccak256\n        /* \"contracts/Fast/contract.sol\":1880:2018  Total[TotalTender.current()] = Tender(TotalTender.current(),_name,_quantity,_budget,_time,block.timestamp,Address,_description,msg.sender) */\n      0x00\n      dup3\n      add\n      mload\n      dup2\n      0x00\n      add\n      sstore\n      0x20\n      dup3\n      add\n      mload\n      dup2\n      0x01\n      add\n      swap1\n      dup1\n      mload\n      swap1\n      0x20\n      add\n      swap1\n      tag_191\n      swap3\n      swap2\n      swap1\n      tag_192\n      jump\t// in\n    tag_191:\n      pop\n      0x40\n      dup3\n      add\n      mload\n      dup2\n      0x02\n      add\n      sstore\n      0x60\n      dup3\n      add\n      mload\n      dup2\n      0x03\n      add\n      sstore\n      0x80\n      dup3\n      add\n      mload\n      dup2\n      0x04\n      add\n      sstore\n      0xa0\n      dup3\n      add\n      mload\n      dup2\n      0x05\n      add\n      sstore\n      0xc0\n      dup3\n      add\n      mload\n      dup2\n      0x06\n      add\n      swap1\n      dup1\n      mload\n      swap1\n      0x20\n      add\n      swap1\n      tag_193\n      swap3\n      swap2\n      swap1\n      tag_192\n      jump\t// in\n    tag_193:\n      pop\n      0xe0\n      dup3\n      add\n      mload\n      dup2\n      0x07\n      add\n      swap1\n      dup1\n      mload\n      swap1\n      0x20\n      add\n      swap1\n      tag_194\n      swap3\n      swap2\n      swap1\n      tag_192\n      jump\t// in\n    tag_194:\n      pop\n      0x0100\n      dup3\n      add\n      mload\n      dup2\n      0x08\n      add\n      exp(0x0100, 0x00)\n      dup2\n      sload\n      dup2\n      0xffffffffffffffffffffffffffffffffffffffff\n      mul\n      not\n      and\n      swap1\n      dup4\n      0xffffffffffffffffffffffffffffffffffffffff\n      and\n      mul\n      or\n      swap1\n      sstore\n      pop\n      swap1\n      pop\n      pop\n        /* \"contracts/Fast/contract.sol\":1673:2025  function tender(string memory _name,uint _quantity,uint _budget,uint _time,string memory Address,string memory _description) public {... */\n      pop\n      pop\n      pop\n      pop\n      pop\n      pop\n      jump\t// out\n        /* \"contracts/Fast/contract.sol\":4546:4863  function DeleteVRequest(uint _token) public {... */\n    tag_62:\n        /* \"contracts/Fast/contract.sol\":4608:4610  Ch */\n      0x08\n        /* \"contracts/Fast/contract.sol\":4608:4622  Ch[msg.sender] */\n      0x00\n        /* \"contracts/Fast/contract.sol\":4611:4621  msg.sender */\n      caller\n        /* \"contracts/Fast/contract.sol\":4608:4622  Ch[msg.sender] */\n      0xffffffffffffffffffffffffffffffffffffffff\n      and\n      0xffffffffffffffffffffffffffffffffffffffff\n      and\n      dup2\n      mstore\n      0x20\n      add\n      swap1\n      dup2\n      mstore\n      0x20\n      add\n      0x00\n      keccak256\n        /* \"contracts/Fast/contract.sol\":4608:4630  Ch[msg.sender][_token] */\n      0x00\n        /* \"contracts/Fast/contract.sol\":4623:4629  _token */\n      dup3\n        /* \"contracts/Fast/contract.sol\":4608:4630  Ch[msg.sender][_token] */\n      dup2\n      mstore\n      0x20\n      add\n      swap1\n      dup2\n      mstore\n      0x20\n      add\n      0x00\n      keccak256\n      0x00\n      swap1\n      sload\n      swap1\n      0x0100\n      exp\n      swap1\n      div\n      0xff\n      and\n        /* \"contracts/Fast/contract.sol\":4600:4651  require(Ch[msg.sender][_token],\"You canNot Delete\") */\n      tag_196\n      jumpi\n      mload(0x40)\n      0x08c379a000000000000000000000000000000000000000000000000000000000\n      dup2\n      mstore\n      0x04\n      add\n      tag_197\n      swap1\n      tag_198\n      jump\t// in\n    tag_197:\n      mload(0x40)\n      dup1\n      swap2\n      sub\n      swap1\n      revert\n    tag_196:\n        /* \"contracts/Fast/contract.sol\":4685:4686  1 */\n      0x01\n        /* \"contracts/Fast/contract.sol\":4661:4669  Requests */\n      0x09\n        /* \"contracts/Fast/contract.sol\":4661:4681  Requests[msg.sender] */\n      0x00\n        /* \"contracts/Fast/contract.sol\":4670:4680  msg.sender */\n      caller\n        /* \"contracts/Fast/contract.sol\":4661:4681  Requests[msg.sender] */\n      0xffffffffffffffffffffffffffffffffffffffff\n      and\n      0xffffffffffffffffffffffffffffffffffffffff\n      and\n      dup2\n      mstore\n      0x20\n      add\n      swap1\n      dup2\n      mstore\n      0x20\n      add\n      0x00\n      keccak256\n      0x00\n        /* \"contracts/Fast/contract.sol\":4661:4686  Requests[msg.sender] -= 1 */\n      dup3\n      dup3\n      sload\n      tag_199\n      swap2\n      swap1\n      tag_200\n      jump\t// in\n    tag_199:\n      swap3\n      pop\n      pop\n      dup2\n      swap1\n      sstore\n      pop\n        /* \"contracts/Fast/contract.sol\":4718:4719  1 */\n      0x01\n        /* \"contracts/Fast/contract.sol\":4696:4706  SizeVender */\n      0x05\n        /* \"contracts/Fast/contract.sol\":4696:4714  SizeVender[_token] */\n      0x00\n        /* \"contracts/Fast/contract.sol\":4707:4713  _token */\n      dup4\n        /* \"contracts/Fast/contract.sol\":4696:4714  SizeVender[_token] */\n      dup2\n      mstore\n      0x20\n      add\n      swap1\n      dup2\n      mstore\n      0x20\n      add\n      0x00\n      keccak256\n      0x00\n        /* \"contracts/Fast/contract.sol\":4696:4719  SizeVender[_token] -= 1 */\n      dup3\n      dup3\n      sload\n      tag_201\n      swap2\n      swap1\n      tag_200\n      jump\t// in\n    tag_201:\n      swap3\n      pop\n      pop\n      dup2\n      swap1\n      sstore\n      pop\n        /* \"contracts/Fast/contract.sol\":4755:4760  false */\n      0x00\n        /* \"contracts/Fast/contract.sol\":4730:4732  Ch */\n      0x08\n        /* \"contracts/Fast/contract.sol\":4730:4744  Ch[msg.sender] */\n      0x00\n        /* \"contracts/Fast/contract.sol\":4733:4743  msg.sender */\n      caller\n        /* \"contracts/Fast/contract.sol\":4730:4744  Ch[msg.sender] */\n      0xffffffffffffffffffffffffffffffffffffffff\n      and\n      0xffffffffffffffffffffffffffffffffffffffff\n      and\n      dup2\n      mstore\n      0x20\n      add\n      swap1\n      dup2\n      mstore\n      0x20\n      add\n      0x00\n      keccak256\n        /* \"contracts/Fast/contract.sol\":4730:4752  Ch[msg.sender][_token] */\n      0x00\n        /* \"contracts/Fast/contract.sol\":4745:4751  _token */\n      dup4\n        /* \"contracts/Fast/contract.sol\":4730:4752  Ch[msg.sender][_token] */\n      dup2\n      mstore\n      0x20\n      add\n      swap1\n      dup2\n      mstore\n      0x20\n      add\n      0x00\n      keccak256\n      0x00\n        /* \"contracts/Fast/contract.sol\":4730:4760  Ch[msg.sender][_token] = false */\n      0x0100\n      exp\n      dup2\n      sload\n      dup2\n      0xff\n      mul\n      not\n      and\n      swap1\n      dup4\n      iszero\n      iszero\n      mul\n      or\n      swap1\n      sstore\n      pop\n        /* \"contracts/Fast/contract.sol\":4777:4784  Venders */\n      0x07\n        /* \"contracts/Fast/contract.sol\":4777:4812  Venders[Finder[_token][msg.sender]] */\n      0x00\n        /* \"contracts/Fast/contract.sol\":4785:4791  Finder */\n      0x0a\n        /* \"contracts/Fast/contract.sol\":4785:4799  Finder[_token] */\n      0x00\n        /* \"contracts/Fast/contract.sol\":4792:4798  _token */\n      dup5\n        /* \"contracts/Fast/contract.sol\":4785:4799  Finder[_token] */\n      dup2\n      mstore\n      0x20\n      add\n      swap1\n      dup2\n      mstore\n      0x20\n      add\n      0x00\n      keccak256\n        /* \"contracts/Fast/contract.sol\":4785:4811  Finder[_token][msg.sender] */\n      0x00\n        /* \"contracts/Fast/contract.sol\":4800:4810  msg.sender */\n      caller\n        /* \"contracts/Fast/contract.sol\":4785:4811  Finder[_token][msg.sender] */\n      0xffffffffffffffffffffffffffffffffffffffff\n      and\n      0xffffffffffffffffffffffffffffffffffffffff\n      and\n      dup2\n      mstore\n      0x20\n      add\n      swap1\n      dup2\n      mstore\n      0x20\n      add\n      0x00\n      keccak256\n      sload\n        /* \"contracts/Fast/contract.sol\":4777:4812  Venders[Finder[_token][msg.sender]] */\n      dup2\n      mstore\n      0x20\n      add\n      swap1\n      dup2\n      mstore\n      0x20\n      add\n      0x00\n      keccak256\n        /* \"contracts/Fast/contract.sol\":4777:4820  Venders[Finder[_token][msg.sender]][_token] */\n      0x00\n        /* \"contracts/Fast/contract.sol\":4813:4819  _token */\n      dup3\n        /* \"contracts/Fast/contract.sol\":4777:4820  Venders[Finder[_token][msg.sender]][_token] */\n      dup2\n      mstore\n      0x20\n      add\n      swap1\n      dup2\n      mstore\n      0x20\n      add\n      0x00\n      keccak256\n      0x00\n        /* \"contracts/Fast/contract.sol\":4770:4820  delete Venders[Finder[_token][msg.sender]][_token] */\n      dup1\n      dup3\n      add\n      0x00\n      swap1\n      sstore\n      0x01\n      dup3\n      add\n      0x00\n      swap1\n      sstore\n      0x02\n      dup3\n      add\n      0x00\n      tag_202\n      swap2\n      swap1\n      tag_203\n      jump\t// in\n    tag_202:\n      0x03\n      dup3\n      add\n      exp(0x0100, 0x00)\n      dup2\n      sload\n      swap1\n      0xffffffffffffffffffffffffffffffffffffffff\n      mul\n      not\n      and\n      swap1\n      sstore\n      0x04\n      dup3\n      add\n      0x00\n      swap1\n      sstore\n      pop\n      pop\n        /* \"contracts/Fast/contract.sol\":4830:4836  Finder */\n      0x0a\n        /* \"contracts/Fast/contract.sol\":4830:4844  Finder[_token] */\n      0x00\n        /* \"contracts/Fast/contract.sol\":4837:4843  _token */\n      dup3\n        /* \"contracts/Fast/contract.sol\":4830:4844  Finder[_token] */\n      dup2\n      mstore\n      0x20\n      add\n      swap1\n      dup2\n      mstore\n      0x20\n      add\n      0x00\n      keccak256\n        /* \"contracts/Fast/contract.sol\":4830:4856  Finder[_token][msg.sender] */\n      0x00\n        /* \"contracts/Fast/contract.sol\":4845:4855  msg.sender */\n      caller\n        /* \"contracts/Fast/contract.sol\":4830:4856  Finder[_token][msg.sender] */\n      0xffffffffffffffffffffffffffffffffffffffff\n      and\n      0xffffffffffffffffffffffffffffffffffffffff\n      and\n      dup2\n      mstore\n      0x20\n      add\n      swap1\n      dup2\n      mstore\n      0x20\n      add\n      0x00\n      keccak256\n      pop\n        /* \"contracts/Fast/contract.sol\":4546:4863  function DeleteVRequest(uint _token) public {... */\n      pop\n      jump\t// out\n        /* \"contracts/Fast/contract.sol\":359:394  Counters.Counter public TotalVender */\n    tag_65:\n      0x01\n      dup1\n      0x00\n      add\n      sload\n      swap1\n      pop\n      dup2\n      jump\t// out\n        /* \"contracts/Fast/contract.sol\":1412:1475  mapping (uint => mapping(address => Comm)) public Communication */\n    tag_71:\n      mstore(0x20, 0x0b)\n      dup2\n      0x00\n      mstore\n      mstore(0x20, keccak256(0x00, 0x40))\n      dup1\n      0x00\n      mstore\n      keccak256(0x00, 0x40)\n      0x00\n      swap2\n      pop\n      swap2\n      pop\n      pop\n      dup1\n      0x00\n      add\n      0x00\n      swap1\n      sload\n      swap1\n      0x0100\n      exp\n      swap1\n      div\n      0xffffffffffffffffffffffffffffffffffffffff\n      and\n      swap1\n      dup1\n      0x01\n      add\n      sload\n      swap1\n      dup1\n      0x02\n      add\n      0x00\n      swap1\n      sload\n      swap1\n      0x0100\n      exp\n      swap1\n      div\n      0xff\n      and\n      swap1\n      pop\n      dup4\n      jump\t// out\n        /* \"contracts/Fast/contract.sol\":1244:1296  mapping (address => mapping(uint => bool)) public Ch */\n    tag_78:\n      mstore(0x20, 0x08)\n      dup2\n      0x00\n      mstore\n      mstore(0x20, keccak256(0x00, 0x40))\n      dup1\n      0x00\n      mstore\n      keccak256(0x00, 0x40)\n      0x00\n      swap2\n      pop\n      swap2\n      pop\n      swap1\n      sload\n      swap1\n      0x0100\n      exp\n      swap1\n      div\n      0xff\n      and\n      dup2\n      jump\t// out\n        /* \"contracts/Fast/contract.sol\":3009:3584  function vender(uint _token,uint _price,string memory _description,uint _deleveryTime) public {... */\n    tag_84:\n        /* \"contracts/Fast/contract.sol\":3122:3124  Ch */\n      0x08\n        /* \"contracts/Fast/contract.sol\":3122:3136  Ch[msg.sender] */\n      0x00\n        /* \"contracts/Fast/contract.sol\":3125:3135  msg.sender */\n      caller\n        /* \"contracts/Fast/contract.sol\":3122:3136  Ch[msg.sender] */\n      0xffffffffffffffffffffffffffffffffffffffff\n      and\n      0xffffffffffffffffffffffffffffffffffffffff\n      and\n      dup2\n      mstore\n      0x20\n      add\n      swap1\n      dup2\n      mstore\n      0x20\n      add\n      0x00\n      keccak256\n        /* \"contracts/Fast/contract.sol\":3122:3144  Ch[msg.sender][_token] */\n      0x00\n        /* \"contracts/Fast/contract.sol\":3137:3143  _token */\n      dup6\n        /* \"contracts/Fast/contract.sol\":3122:3144  Ch[msg.sender][_token] */\n      dup2\n      mstore\n      0x20\n      add\n      swap1\n      dup2\n      mstore\n      0x20\n      add\n      0x00\n      keccak256\n      0x00\n      swap1\n      sload\n      swap1\n      0x0100\n      exp\n      swap1\n      div\n      0xff\n      and\n        /* \"contracts/Fast/contract.sol\":3121:3144  !Ch[msg.sender][_token] */\n      iszero\n        /* \"contracts/Fast/contract.sol\":3113:3182  require(!Ch[msg.sender][_token],\"You Already Apply for this Request\") */\n      tag_205\n      jumpi\n      mload(0x40)\n      0x08c379a000000000000000000000000000000000000000000000000000000000\n      dup2\n      mstore\n      0x04\n      add\n      tag_206\n      swap1\n      tag_207\n      jump\t// in\n    tag_206:\n      mload(0x40)\n      dup1\n      swap2\n      sub\n      swap1\n      revert\n    tag_205:\n        /* \"contracts/Fast/contract.sol\":3223:3233  msg.sender */\n      caller\n        /* \"contracts/Fast/contract.sol\":3200:3233  Total[_token].owner != msg.sender */\n      0xffffffffffffffffffffffffffffffffffffffff\n      and\n        /* \"contracts/Fast/contract.sol\":3200:3205  Total */\n      0x06\n        /* \"contracts/Fast/contract.sol\":3200:3213  Total[_token] */\n      0x00\n        /* \"contracts/Fast/contract.sol\":3206:3212  _token */\n      dup7\n        /* \"contracts/Fast/contract.sol\":3200:3213  Total[_token] */\n      dup2\n      mstore\n      0x20\n      add\n      swap1\n      dup2\n      mstore\n      0x20\n      add\n      0x00\n      keccak256\n        /* \"contracts/Fast/contract.sol\":3200:3219  Total[_token].owner */\n      0x08\n      add\n      0x00\n      swap1\n      sload\n      swap1\n      0x0100\n      exp\n      swap1\n      div\n      0xffffffffffffffffffffffffffffffffffffffff\n      and\n        /* \"contracts/Fast/contract.sol\":3200:3233  Total[_token].owner != msg.sender */\n      0xffffffffffffffffffffffffffffffffffffffff\n      and\n      eq\n      iszero\n        /* \"contracts/Fast/contract.sol\":3192:3265  require(Total[_token].owner != msg.sender,\"You are Owner of this Tender\") */\n      tag_208\n      jumpi\n      mload(0x40)\n      0x08c379a000000000000000000000000000000000000000000000000000000000\n      dup2\n      mstore\n      0x04\n      add\n      tag_209\n      swap1\n      tag_210\n      jump\t// in\n    tag_209:\n      mload(0x40)\n      dup1\n      swap2\n      sub\n      swap1\n      revert\n    tag_208:\n        /* \"contracts/Fast/contract.sol\":3275:3298  TotalVender.increment() */\n      tag_211\n        /* \"contracts/Fast/contract.sol\":3275:3286  TotalVender */\n      0x01\n        /* \"contracts/Fast/contract.sol\":3275:3296  TotalVender.increment */\n      tag_186\n        /* \"contracts/Fast/contract.sol\":3275:3298  TotalVender.increment() */\n      jump\t// in\n    tag_211:\n        /* \"contracts/Fast/contract.sol\":3333:3337  true */\n      0x01\n        /* \"contracts/Fast/contract.sol\":3308:3310  Ch */\n      0x08\n        /* \"contracts/Fast/contract.sol\":3308:3322  Ch[msg.sender] */\n      0x00\n        /* \"contracts/Fast/contract.sol\":3311:3321  msg.sender */\n      caller\n        /* \"contracts/Fast/contract.sol\":3308:3322  Ch[msg.sender] */\n      0xffffffffffffffffffffffffffffffffffffffff\n      and\n      0xffffffffffffffffffffffffffffffffffffffff\n      and\n      dup2\n      mstore\n      0x20\n      add\n      swap1\n      dup2\n      mstore\n      0x20\n      add\n      0x00\n      keccak256\n        /* \"contracts/Fast/contract.sol\":3308:3330  Ch[msg.sender][_token] */\n      0x00\n        /* \"contracts/Fast/contract.sol\":3323:3329  _token */\n      dup7\n        /* \"contracts/Fast/contract.sol\":3308:3330  Ch[msg.sender][_token] */\n      dup2\n      mstore\n      0x20\n      add\n      swap1\n      dup2\n      mstore\n      0x20\n      add\n      0x00\n      keccak256\n      0x00\n        /* \"contracts/Fast/contract.sol\":3308:3337  Ch[msg.sender][_token] = true */\n      0x0100\n      exp\n      dup2\n      sload\n      dup2\n      0xff\n      mul\n      not\n      and\n      swap1\n      dup4\n      iszero\n      iszero\n      mul\n      or\n      swap1\n      sstore\n      pop\n        /* \"contracts/Fast/contract.sol\":3369:3370  1 */\n      0x01\n        /* \"contracts/Fast/contract.sol\":3347:3357  SizeVender */\n      0x05\n        /* \"contracts/Fast/contract.sol\":3347:3365  SizeVender[_token] */\n      0x00\n        /* \"contracts/Fast/contract.sol\":3358:3364  _token */\n      dup7\n        /* \"contracts/Fast/contract.sol\":3347:3365  SizeVender[_token] */\n      dup2\n      mstore\n      0x20\n      add\n      swap1\n      dup2\n      mstore\n      0x20\n      add\n      0x00\n      keccak256\n      0x00\n        /* \"contracts/Fast/contract.sol\":3347:3370  SizeVender[_token] += 1 */\n      dup3\n      dup3\n      sload\n      tag_212\n      swap2\n      swap1\n      tag_175\n      jump\t// in\n    tag_212:\n      swap3\n      pop\n      pop\n      dup2\n      swap1\n      sstore\n      pop\n        /* \"contracts/Fast/contract.sol\":3405:3406  1 */\n      0x01\n        /* \"contracts/Fast/contract.sol\":3381:3389  Requests */\n      0x09\n        /* \"contracts/Fast/contract.sol\":3381:3401  Requests[msg.sender] */\n      0x00\n        /* \"contracts/Fast/contract.sol\":3390:3400  msg.sender */\n      caller\n        /* \"contracts/Fast/contract.sol\":3381:3401  Requests[msg.sender] */\n      0xffffffffffffffffffffffffffffffffffffffff\n      and\n      0xffffffffffffffffffffffffffffffffffffffff\n      and\n      dup2\n      mstore\n      0x20\n      add\n      swap1\n      dup2\n      mstore\n      0x20\n      add\n      0x00\n      keccak256\n      0x00\n        /* \"contracts/Fast/contract.sol\":3381:3406  Requests[msg.sender] += 1 */\n      dup3\n      dup3\n      sload\n      tag_213\n      swap2\n      swap1\n      tag_175\n      jump\t// in\n    tag_213:\n      swap3\n      pop\n      pop\n      dup2\n      swap1\n      sstore\n      pop\n        /* \"contracts/Fast/contract.sol\":3446:3467  TotalVender.current() */\n      tag_214\n        /* \"contracts/Fast/contract.sol\":3446:3457  TotalVender */\n      0x01\n        /* \"contracts/Fast/contract.sol\":3446:3465  TotalVender.current */\n      tag_189\n        /* \"contracts/Fast/contract.sol\":3446:3467  TotalVender.current() */\n      jump\t// in\n    tag_214:\n        /* \"contracts/Fast/contract.sol\":3417:3423  Finder */\n      0x0a\n        /* \"contracts/Fast/contract.sol\":3417:3431  Finder[_token] */\n      0x00\n        /* \"contracts/Fast/contract.sol\":3424:3430  _token */\n      dup7\n        /* \"contracts/Fast/contract.sol\":3417:3431  Finder[_token] */\n      dup2\n      mstore\n      0x20\n      add\n      swap1\n      dup2\n      mstore\n      0x20\n      add\n      0x00\n      keccak256\n        /* \"contracts/Fast/contract.sol\":3417:3443  Finder[_token][msg.sender] */\n      0x00\n        /* \"contracts/Fast/contract.sol\":3432:3442  msg.sender */\n      caller\n        /* \"contracts/Fast/contract.sol\":3417:3443  Finder[_token][msg.sender] */\n      0xffffffffffffffffffffffffffffffffffffffff\n      and\n      0xffffffffffffffffffffffffffffffffffffffff\n      and\n      dup2\n      mstore\n      0x20\n      add\n      swap1\n      dup2\n      mstore\n      0x20\n      add\n      0x00\n      keccak256\n        /* \"contracts/Fast/contract.sol\":3417:3467  Finder[_token][msg.sender] = TotalVender.current() */\n      dup2\n      swap1\n      sstore\n      pop\n        /* \"contracts/Fast/contract.sol\":3518:3577  Vender(_token,_price,_description,msg.sender,_deleveryTime) */\n      mload(0x40)\n      dup1\n      0xa0\n      add\n      0x40\n      mstore\n      dup1\n        /* \"contracts/Fast/contract.sol\":3525:3531  _token */\n      dup6\n        /* \"contracts/Fast/contract.sol\":3518:3577  Vender(_token,_price,_description,msg.sender,_deleveryTime) */\n      dup2\n      mstore\n      0x20\n      add\n        /* \"contracts/Fast/contract.sol\":3532:3538  _price */\n      dup5\n        /* \"contracts/Fast/contract.sol\":3518:3577  Vender(_token,_price,_description,msg.sender,_deleveryTime) */\n      dup2\n      mstore\n      0x20\n      add\n        /* \"contracts/Fast/contract.sol\":3539:3551  _description */\n      dup4\n        /* \"contracts/Fast/contract.sol\":3518:3577  Vender(_token,_price,_description,msg.sender,_deleveryTime) */\n      dup2\n      mstore\n      0x20\n      add\n        /* \"contracts/Fast/contract.sol\":3552:3562  msg.sender */\n      caller\n        /* \"contracts/Fast/contract.sol\":3518:3577  Vender(_token,_price,_description,msg.sender,_deleveryTime) */\n      0xffffffffffffffffffffffffffffffffffffffff\n      and\n      dup2\n      mstore\n      0x20\n      add\n        /* \"contracts/Fast/contract.sol\":3563:3576  _deleveryTime */\n      dup3\n        /* \"contracts/Fast/contract.sol\":3518:3577  Vender(_token,_price,_description,msg.sender,_deleveryTime) */\n      dup2\n      mstore\n      pop\n        /* \"contracts/Fast/contract.sol\":3477:3484  Venders */\n      0x07\n        /* \"contracts/Fast/contract.sol\":3477:3507  Venders[TotalVender.current()] */\n      0x00\n        /* \"contracts/Fast/contract.sol\":3485:3506  TotalVender.current() */\n      tag_215\n        /* \"contracts/Fast/contract.sol\":3485:3496  TotalVender */\n      0x01\n        /* \"contracts/Fast/contract.sol\":3485:3504  TotalVender.current */\n      tag_189\n        /* \"contracts/Fast/contract.sol\":3485:3506  TotalVender.current() */\n      jump\t// in\n    tag_215:\n        /* \"contracts/Fast/contract.sol\":3477:3507  Venders[TotalVender.current()] */\n      dup2\n      mstore\n      0x20\n      add\n      swap1\n      dup2\n      mstore\n      0x20\n      add\n      0x00\n      keccak256\n        /* \"contracts/Fast/contract.sol\":3477:3515  Venders[TotalVender.current()][_token] */\n      0x00\n        /* \"contracts/Fast/contract.sol\":3508:3514  _token */\n      dup7\n        /* \"contracts/Fast/contract.sol\":3477:3515  Venders[TotalVender.current()][_token] */\n      dup2\n      mstore\n      0x20\n      add\n      swap1\n      dup2\n      mstore\n      0x20\n      add\n      0x00\n      keccak256\n        /* \"contracts/Fast/contract.sol\":3477:3577  Venders[TotalVender.current()][_token] = Vender(_token,_price,_description,msg.sender,_deleveryTime) */\n      0x00\n      dup3\n      add\n      mload\n      dup2\n      0x00\n      add\n      sstore\n      0x20\n      dup3\n      add\n      mload\n      dup2\n      0x01\n      add\n      sstore\n      0x40\n      dup3\n      add\n      mload\n      dup2\n      0x02\n      add\n      swap1\n      dup1\n      mload\n      swap1\n      0x20\n      add\n      swap1\n      tag_216\n      swap3\n      swap2\n      swap1\n      tag_192\n      jump\t// in\n    tag_216:\n      pop\n      0x60\n      dup3\n      add\n      mload\n      dup2\n      0x03\n      add\n      exp(0x0100, 0x00)\n      dup2\n      sload\n      dup2\n      0xffffffffffffffffffffffffffffffffffffffff\n      mul\n      not\n      and\n      swap1\n      dup4\n      0xffffffffffffffffffffffffffffffffffffffff\n      and\n      mul\n      or\n      swap1\n      sstore\n      pop\n      0x80\n      dup3\n      add\n      mload\n      dup2\n      0x04\n      add\n      sstore\n      swap1\n      pop\n      pop\n        /* \"contracts/Fast/contract.sol\":3009:3584  function vender(uint _token,uint _price,string memory _description,uint _deleveryTime) public {... */\n      pop\n      pop\n      pop\n      pop\n      jump\t// out\n        /* \"contracts/Fast/contract.sol\":1137:1175  mapping (uint => Tender ) public Total */\n    tag_88:\n      mstore(0x20, 0x06)\n      dup1\n      0x00\n      mstore\n      keccak256(0x00, 0x40)\n      0x00\n      swap2\n      pop\n      swap1\n      pop\n      dup1\n      0x00\n      add\n      sload\n      swap1\n      dup1\n      0x01\n      add\n      dup1\n      sload\n      tag_217\n      swap1\n      tag_179\n      jump\t// in\n    tag_217:\n      dup1\n      0x1f\n      add\n      0x20\n      dup1\n      swap2\n      div\n      mul\n      0x20\n      add\n      mload(0x40)\n      swap1\n      dup2\n      add\n      0x40\n      mstore\n      dup1\n      swap3\n      swap2\n      swap1\n      dup2\n      dup2\n      mstore\n      0x20\n      add\n      dup3\n      dup1\n      sload\n      tag_218\n      swap1\n      tag_179\n      jump\t// in\n    tag_218:\n      dup1\n      iszero\n      tag_219\n      jumpi\n      dup1\n      0x1f\n      lt\n      tag_220\n      jumpi\n      0x0100\n      dup1\n      dup4\n      sload\n      div\n      mul\n      dup4\n      mstore\n      swap2\n      0x20\n      add\n      swap2\n      jump(tag_219)\n    tag_220:\n      dup3\n      add\n      swap2\n      swap1\n      0x00\n      mstore\n      keccak256(0x00, 0x20)\n      swap1\n    tag_221:\n      dup2\n      sload\n      dup2\n      mstore\n      swap1\n      0x01\n      add\n      swap1\n      0x20\n      add\n      dup1\n      dup4\n      gt\n      tag_221\n      jumpi\n      dup3\n      swap1\n      sub\n      0x1f\n      and\n      dup3\n      add\n      swap2\n    tag_219:\n      pop\n      pop\n      pop\n      pop\n      pop\n      swap1\n      dup1\n      0x02\n      add\n      sload\n      swap1\n      dup1\n      0x03\n      add\n      sload\n      swap1\n      dup1\n      0x04\n      add\n      sload\n      swap1\n      dup1\n      0x05\n      add\n      sload\n      swap1\n      dup1\n      0x06\n      add\n      dup1\n      sload\n      tag_222\n      swap1\n      tag_179\n      jump\t// in\n    tag_222:\n      dup1\n      0x1f\n      add\n      0x20\n      dup1\n      swap2\n      div\n      mul\n      0x20\n      add\n      mload(0x40)\n      swap1\n      dup2\n      add\n      0x40\n      mstore\n      dup1\n      swap3\n      swap2\n      swap1\n      dup2\n      dup2\n      mstore\n      0x20\n      add\n      dup3\n      dup1\n      sload\n      tag_223\n      swap1\n      tag_179\n      jump\t// in\n    tag_223:\n      dup1\n      iszero\n      tag_224\n      jumpi\n      dup1\n      0x1f\n      lt\n      tag_225\n      jumpi\n      0x0100\n      dup1\n      dup4\n      sload\n      div\n      mul\n      dup4\n      mstore\n      swap2\n      0x20\n      add\n      swap2\n      jump(tag_224)\n    tag_225:\n      dup3\n      add\n      swap2\n      swap1\n      0x00\n      mstore\n      keccak256(0x00, 0x20)\n      swap1\n    tag_226:\n      dup2\n      sload\n      dup2\n      mstore\n      swap1\n      0x01\n      add\n      swap1\n      0x20\n      add\n      dup1\n      dup4\n      gt\n      tag_226\n      jumpi\n      dup3\n      swap1\n      sub\n      0x1f\n      and\n      dup3\n      add\n      swap2\n    tag_224:\n      pop\n      pop\n      pop\n      pop\n      pop\n      swap1\n      dup1\n      0x07\n      add\n      dup1\n      sload\n      tag_227\n      swap1\n      tag_179\n      jump\t// in\n    tag_227:\n      dup1\n      0x1f\n      add\n      0x20\n      dup1\n      swap2\n      div\n      mul\n      0x20\n      add\n      mload(0x40)\n      swap1\n      dup2\n      add\n      0x40\n      mstore\n      dup1\n      swap3\n      swap2\n      swap1\n      dup2\n      dup2\n      mstore\n      0x20\n      add\n      dup3\n      dup1\n      sload\n      tag_228\n      swap1\n      tag_179\n      jump\t// in\n    tag_228:\n      dup1\n      iszero\n      tag_229\n      jumpi\n      dup1\n      0x1f\n      lt\n      tag_230\n      jumpi\n      0x0100\n      dup1\n      dup4\n      sload\n      div\n      mul\n      dup4\n      mstore\n      swap2\n      0x20\n      add\n      swap2\n      jump(tag_229)\n    tag_230:\n      dup3\n      add\n      swap2\n      swap1\n      0x00\n      mstore\n      keccak256(0x00, 0x20)\n      swap1\n    tag_231:\n      dup2\n      sload\n      dup2\n      mstore\n      swap1\n      0x01\n      add\n      swap1\n      0x20\n      add\n      dup1\n      dup4\n      gt\n      tag_231\n      jumpi\n      dup3\n      swap1\n      sub\n      0x1f\n      and\n      dup3\n      add\n      swap2\n    tag_229:\n      pop\n      pop\n      pop\n      pop\n      pop\n      swap1\n      dup1\n      0x08\n      add\n      0x00\n      swap1\n      sload\n      swap1\n      0x0100\n      exp\n      swap1\n      div\n      0xffffffffffffffffffffffffffffffffffffffff\n      and\n      swap1\n      pop\n      dup10\n      jump\t// out\n        /* \"contracts/Fast/contract.sol\":401:424  address public Contract */\n    tag_93:\n      0x02\n      0x00\n      swap1\n      sload\n      swap1\n      0x0100\n      exp\n      swap1\n      div\n      0xffffffffffffffffffffffffffffffffffffffff\n      and\n      dup2\n      jump\t// out\n        /* \"contracts/Fast/contract.sol\":1028:1085  mapping (address => mapping(uint => bool)) public Pending */\n    tag_99:\n      mstore(0x20, 0x04)\n      dup2\n      0x00\n      mstore\n      mstore(0x20, keccak256(0x00, 0x40))\n      dup1\n      0x00\n      mstore\n      keccak256(0x00, 0x40)\n      0x00\n      swap2\n      pop\n      swap2\n      pop\n      swap1\n      sload\n      swap1\n      0x0100\n      exp\n      swap1\n      div\n      0xff\n      and\n      dup2\n      jump\t// out\n        /* \"contracts/Fast/contract.sol\":3589:4020  function AllVender(uint _token) public view returns (Vender[] memory)  {... */\n    tag_104:\n        /* \"contracts/Fast/contract.sol\":3642:3657  Vender[] memory */\n      0x60\n        /* \"contracts/Fast/contract.sol\":3670:3697  Vender[] memory memoryArray */\n      0x00\n        /* \"contracts/Fast/contract.sol\":3713:3723  SizeVender */\n      0x05\n        /* \"contracts/Fast/contract.sol\":3713:3731  SizeVender[_token] */\n      0x00\n        /* \"contracts/Fast/contract.sol\":3724:3730  _token */\n      dup5\n        /* \"contracts/Fast/contract.sol\":3713:3731  SizeVender[_token] */\n      dup2\n      mstore\n      0x20\n      add\n      swap1\n      dup2\n      mstore\n      0x20\n      add\n      0x00\n      keccak256\n      sload\n        /* \"contracts/Fast/contract.sol\":3700:3732  new Vender[](SizeVender[_token]) */\n      0xffffffffffffffff\n      dup2\n      gt\n      iszero\n      tag_233\n      jumpi\n      tag_234\n      tag_235\n      jump\t// in\n    tag_234:\n    tag_233:\n      mload(0x40)\n      swap1\n      dup1\n      dup3\n      mstore\n      dup1\n      0x20\n      mul\n      0x20\n      add\n      dup3\n      add\n      0x40\n      mstore\n      dup1\n      iszero\n      tag_236\n      jumpi\n      dup2\n      0x20\n      add\n    tag_237:\n      tag_238\n      tag_239\n      jump\t// in\n    tag_238:\n      dup2\n      mstore\n      0x20\n      add\n      swap1\n      0x01\n      swap1\n      sub\n      swap1\n      dup2\n      tag_237\n      jumpi\n      swap1\n      pop\n    tag_236:\n      pop\n        /* \"contracts/Fast/contract.sol\":3670:3732  Vender[] memory memoryArray = new Vender[](SizeVender[_token]) */\n      swap1\n      pop\n        /* \"contracts/Fast/contract.sol\":3742:3754  uint counter */\n      0x00\n        /* \"contracts/Fast/contract.sol\":3770:3776  uint i */\n      dup1\n        /* \"contracts/Fast/contract.sol\":3779:3780  1 */\n      0x01\n        /* \"contracts/Fast/contract.sol\":3770:3780  uint i = 1 */\n      swap1\n      pop\n        /* \"contracts/Fast/contract.sol\":3766:3986  for(uint i = 1; i <= TotalVender.current(); i++) {... */\n    tag_240:\n        /* \"contracts/Fast/contract.sol\":3787:3808  TotalVender.current() */\n      tag_243\n        /* \"contracts/Fast/contract.sol\":3787:3798  TotalVender */\n      0x01\n        /* \"contracts/Fast/contract.sol\":3787:3806  TotalVender.current */\n      tag_189\n        /* \"contracts/Fast/contract.sol\":3787:3808  TotalVender.current() */\n      jump\t// in\n    tag_243:\n        /* \"contracts/Fast/contract.sol\":3782:3783  i */\n      dup2\n        /* \"contracts/Fast/contract.sol\":3782:3808  i <= TotalVender.current() */\n      gt\n        /* \"contracts/Fast/contract.sol\":3766:3986  for(uint i = 1; i <= TotalVender.current(); i++) {... */\n      tag_241\n      jumpi\n        /* \"contracts/Fast/contract.sol\":3842:3849  Venders */\n      0x07\n        /* \"contracts/Fast/contract.sol\":3842:3852  Venders[i] */\n      0x00\n        /* \"contracts/Fast/contract.sol\":3850:3851  i */\n      dup3\n        /* \"contracts/Fast/contract.sol\":3842:3852  Venders[i] */\n      dup2\n      mstore\n      0x20\n      add\n      swap1\n      dup2\n      mstore\n      0x20\n      add\n      0x00\n      keccak256\n        /* \"contracts/Fast/contract.sol\":3842:3860  Venders[i][_token] */\n      0x00\n        /* \"contracts/Fast/contract.sol\":3853:3859  _token */\n      dup7\n        /* \"contracts/Fast/contract.sol\":3842:3860  Venders[i][_token] */\n      dup2\n      mstore\n      0x20\n      add\n      swap1\n      dup2\n      mstore\n      0x20\n      add\n      0x00\n      keccak256\n        /* \"contracts/Fast/contract.sol\":3842:3866  Venders[i][_token].Token */\n      0x00\n      add\n      sload\n        /* \"contracts/Fast/contract.sol\":3832:3838  _token */\n      dup6\n        /* \"contracts/Fast/contract.sol\":3832:3866  _token == Venders[i][_token].Token */\n      eq\n        /* \"contracts/Fast/contract.sol\":3829:3968  if(_token == Venders[i][_token].Token){... */\n      iszero\n      tag_244\n      jumpi\n        /* \"contracts/Fast/contract.sol\":3908:3915  Venders */\n      0x07\n        /* \"contracts/Fast/contract.sol\":3908:3918  Venders[i] */\n      0x00\n        /* \"contracts/Fast/contract.sol\":3916:3917  i */\n      dup3\n        /* \"contracts/Fast/contract.sol\":3908:3918  Venders[i] */\n      dup2\n      mstore\n      0x20\n      add\n      swap1\n      dup2\n      mstore\n      0x20\n      add\n      0x00\n      keccak256\n        /* \"contracts/Fast/contract.sol\":3908:3926  Venders[i][_token] */\n      0x00\n        /* \"contracts/Fast/contract.sol\":3919:3925  _token */\n      dup7\n        /* \"contracts/Fast/contract.sol\":3908:3926  Venders[i][_token] */\n      dup2\n      mstore\n      0x20\n      add\n      swap1\n      dup2\n      mstore\n      0x20\n      add\n      0x00\n      keccak256\n        /* \"contracts/Fast/contract.sol\":3885:3926  memoryArray[counter] = Venders[i][_token] */\n      mload(0x40)\n      dup1\n      0xa0\n      add\n      0x40\n      mstore\n      swap1\n      dup2\n      0x00\n      dup3\n      add\n      sload\n      dup2\n      mstore\n      0x20\n      add\n      0x01\n      dup3\n      add\n      sload\n      dup2\n      mstore\n      0x20\n      add\n      0x02\n      dup3\n      add\n      dup1\n      sload\n      tag_245\n      swap1\n      tag_179\n      jump\t// in\n    tag_245:\n      dup1\n      0x1f\n      add\n      0x20\n      dup1\n      swap2\n      div\n      mul\n      0x20\n      add\n      mload(0x40)\n      swap1\n      dup2\n      add\n      0x40\n      mstore\n      dup1\n      swap3\n      swap2\n      swap1\n      dup2\n      dup2\n      mstore\n      0x20\n      add\n      dup3\n      dup1\n      sload\n      tag_246\n      swap1\n      tag_179\n      jump\t// in\n    tag_246:\n      dup1\n      iszero\n      tag_247\n      jumpi\n      dup1\n      0x1f\n      lt\n      tag_248\n      jumpi\n      0x0100\n      dup1\n      dup4\n      sload\n      div\n      mul\n      dup4\n      mstore\n      swap2\n      0x20\n      add\n      swap2\n      jump(tag_247)\n    tag_248:\n      dup3\n      add\n      swap2\n      swap1\n      0x00\n      mstore\n      keccak256(0x00, 0x20)\n      swap1\n    tag_249:\n      dup2\n      sload\n      dup2\n      mstore\n      swap1\n      0x01\n      add\n      swap1\n      0x20\n      add\n      dup1\n      dup4\n      gt\n      tag_249\n      jumpi\n      dup3\n      swap1\n      sub\n      0x1f\n      and\n      dup3\n      add\n      swap2\n    tag_247:\n      pop\n      pop\n      pop\n      pop\n      pop\n      dup2\n      mstore\n      0x20\n      add\n      0x03\n      dup3\n      add\n      0x00\n      swap1\n      sload\n      swap1\n      0x0100\n      exp\n      swap1\n      div\n      0xffffffffffffffffffffffffffffffffffffffff\n      and\n      0xffffffffffffffffffffffffffffffffffffffff\n      and\n      0xffffffffffffffffffffffffffffffffffffffff\n      and\n      dup2\n      mstore\n      0x20\n      add\n      0x04\n      dup3\n      add\n      sload\n      dup2\n      mstore\n      pop\n      pop\n        /* \"contracts/Fast/contract.sol\":3885:3896  memoryArray */\n      dup4\n        /* \"contracts/Fast/contract.sol\":3897:3904  counter */\n      dup4\n        /* \"contracts/Fast/contract.sol\":3885:3905  memoryArray[counter] */\n      dup2\n      mload\n      dup2\n      lt\n      tag_250\n      jumpi\n      tag_251\n      tag_252\n      jump\t// in\n    tag_251:\n    tag_250:\n      0x20\n      mul\n      0x20\n      add\n      add\n        /* \"contracts/Fast/contract.sol\":3885:3926  memoryArray[counter] = Venders[i][_token] */\n      dup2\n      swap1\n      mstore\n      pop\n        /* \"contracts/Fast/contract.sol\":3944:3953  counter++ */\n      dup2\n      dup1\n      tag_253\n      swap1\n      tag_254\n      jump\t// in\n    tag_253:\n      swap3\n      pop\n      pop\n        /* \"contracts/Fast/contract.sol\":3829:3968  if(_token == Venders[i][_token].Token){... */\n    tag_244:\n        /* \"contracts/Fast/contract.sol\":3810:3813  i++ */\n      dup1\n      dup1\n      tag_255\n      swap1\n      tag_254\n      jump\t// in\n    tag_255:\n      swap2\n      pop\n      pop\n        /* \"contracts/Fast/contract.sol\":3766:3986  for(uint i = 1; i <= TotalVender.current(); i++) {... */\n      jump(tag_240)\n    tag_241:\n      pop\n        /* \"contracts/Fast/contract.sol\":4002:4013  memoryArray */\n      dup2\n        /* \"contracts/Fast/contract.sol\":3995:4013  return memoryArray */\n      swap3\n      pop\n      pop\n      pop\n        /* \"contracts/Fast/contract.sol\":3589:4020  function AllVender(uint _token) public view returns (Vender[] memory)  {... */\n      swap2\n      swap1\n      pop\n      jump\t// out\n        /* \"contracts/Fast/contract.sol\":1563:1603  mapping (address => uint) public Ratting */\n    tag_110:\n      mstore(0x20, 0x0d)\n      dup1\n      0x00\n      mstore\n      keccak256(0x00, 0x40)\n      0x00\n      swap2\n      pop\n      swap1\n      pop\n      sload\n      dup2\n      jump\t// out\n        /* \"contracts/Fast/contract.sol\":1350:1406  mapping (uint => mapping(address => uint)) public Finder */\n    tag_115:\n      mstore(0x20, 0x0a)\n      dup2\n      0x00\n      mstore\n      mstore(0x20, keccak256(0x00, 0x40))\n      dup1\n      0x00\n      mstore\n      keccak256(0x00, 0x40)\n      0x00\n      swap2\n      pop\n      swap2\n      pop\n      pop\n      sload\n      dup2\n      jump\t// out\n        /* \"contracts/Fast/contract.sol\":5096:5341  function AcceptInvitation(uint _token,address _receiver,address _to,uint _price) public {... */\n    tag_121:\n        /* \"contracts/Fast/contract.sol\":5223:5250  Comm(_receiver,_price,true) */\n      mload(0x40)\n      dup1\n      0x60\n      add\n      0x40\n      mstore\n      dup1\n        /* \"contracts/Fast/contract.sol\":5228:5237  _receiver */\n      dup5\n        /* \"contracts/Fast/contract.sol\":5223:5250  Comm(_receiver,_price,true) */\n      0xffffffffffffffffffffffffffffffffffffffff\n      and\n      dup2\n      mstore\n      0x20\n      add\n        /* \"contracts/Fast/contract.sol\":5238:5244  _price */\n      dup3\n        /* \"contracts/Fast/contract.sol\":5223:5250  Comm(_receiver,_price,true) */\n      dup2\n      mstore\n      0x20\n      add\n        /* \"contracts/Fast/contract.sol\":5245:5249  true */\n      0x01\n        /* \"contracts/Fast/contract.sol\":5223:5250  Comm(_receiver,_price,true) */\n      iszero\n      iszero\n      dup2\n      mstore\n      pop\n        /* \"contracts/Fast/contract.sol\":5194:5207  Communication */\n      0x0b\n        /* \"contracts/Fast/contract.sol\":5194:5215  Communication[_token] */\n      0x00\n        /* \"contracts/Fast/contract.sol\":5208:5214  _token */\n      dup7\n        /* \"contracts/Fast/contract.sol\":5194:5215  Communication[_token] */\n      dup2\n      mstore\n      0x20\n      add\n      swap1\n      dup2\n      mstore\n      0x20\n      add\n      0x00\n      keccak256\n        /* \"contracts/Fast/contract.sol\":5194:5220  Communication[_token][_to] */\n      0x00\n        /* \"contracts/Fast/contract.sol\":5216:5219  _to */\n      dup5\n        /* \"contracts/Fast/contract.sol\":5194:5220  Communication[_token][_to] */\n      0xffffffffffffffffffffffffffffffffffffffff\n      and\n      0xffffffffffffffffffffffffffffffffffffffff\n      and\n      dup2\n      mstore\n      0x20\n      add\n      swap1\n      dup2\n      mstore\n      0x20\n      add\n      0x00\n      keccak256\n        /* \"contracts/Fast/contract.sol\":5194:5250  Communication[_token][_to] = Comm(_receiver,_price,true) */\n      0x00\n      dup3\n      add\n      mload\n      dup2\n      0x00\n      add\n      exp(0x0100, 0x00)\n      dup2\n      sload\n      dup2\n      0xffffffffffffffffffffffffffffffffffffffff\n      mul\n      not\n      and\n      swap1\n      dup4\n      0xffffffffffffffffffffffffffffffffffffffff\n      and\n      mul\n      or\n      swap1\n      sstore\n      pop\n      0x20\n      dup3\n      add\n      mload\n      dup2\n      0x01\n      add\n      sstore\n      0x40\n      dup3\n      add\n      mload\n      dup2\n      0x02\n      add\n      exp(0x0100, 0x00)\n      dup2\n      sload\n      dup2\n      0xff\n      mul\n      not\n      and\n      swap1\n      dup4\n      iszero\n      iszero\n      mul\n      or\n      swap1\n      sstore\n      pop\n      swap1\n      pop\n      pop\n        /* \"contracts/Fast/contract.sol\":5283:5287  true */\n      0x01\n        /* \"contracts/Fast/contract.sol\":5260:5267  Pending */\n      0x04\n        /* \"contracts/Fast/contract.sol\":5260:5272  Pending[_to] */\n      0x00\n        /* \"contracts/Fast/contract.sol\":5268:5271  _to */\n      dup5\n        /* \"contracts/Fast/contract.sol\":5260:5272  Pending[_to] */\n      0xffffffffffffffffffffffffffffffffffffffff\n      and\n      0xffffffffffffffffffffffffffffffffffffffff\n      and\n      dup2\n      mstore\n      0x20\n      add\n      swap1\n      dup2\n      mstore\n      0x20\n      add\n      0x00\n      keccak256\n        /* \"contracts/Fast/contract.sol\":5260:5280  Pending[_to][_token] */\n      0x00\n        /* \"contracts/Fast/contract.sol\":5273:5279  _token */\n      dup7\n        /* \"contracts/Fast/contract.sol\":5260:5280  Pending[_to][_token] */\n      dup2\n      mstore\n      0x20\n      add\n      swap1\n      dup2\n      mstore\n      0x20\n      add\n      0x00\n      keccak256\n      0x00\n        /* \"contracts/Fast/contract.sol\":5260:5287  Pending[_to][_token] = true */\n      0x0100\n      exp\n      dup2\n      sload\n      dup2\n      0xff\n      mul\n      not\n      and\n      swap1\n      dup4\n      iszero\n      iszero\n      mul\n      or\n      swap1\n      sstore\n      pop\n        /* \"contracts/Fast/contract.sol\":5330:5334  true */\n      0x01\n        /* \"contracts/Fast/contract.sol\":5297:5303  Invite */\n      0x0c\n        /* \"contracts/Fast/contract.sol\":5297:5308  Invite[_to] */\n      0x00\n        /* \"contracts/Fast/contract.sol\":5304:5307  _to */\n      dup5\n        /* \"contracts/Fast/contract.sol\":5297:5308  Invite[_to] */\n      0xffffffffffffffffffffffffffffffffffffffff\n      and\n      0xffffffffffffffffffffffffffffffffffffffff\n      and\n      dup2\n      mstore\n      0x20\n      add\n      swap1\n      dup2\n      mstore\n      0x20\n      add\n      0x00\n      keccak256\n        /* \"contracts/Fast/contract.sol\":5297:5316  Invite[_to][_token] */\n      0x00\n        /* \"contracts/Fast/contract.sol\":5309:5315  _token */\n      dup7\n        /* \"contracts/Fast/contract.sol\":5297:5316  Invite[_to][_token] */\n      dup2\n      mstore\n      0x20\n      add\n      swap1\n      dup2\n      mstore\n      0x20\n      add\n      0x00\n      keccak256\n        /* \"contracts/Fast/contract.sol\":5297:5327  Invite[_to][_token][_receiver] */\n      0x00\n        /* \"contracts/Fast/contract.sol\":5317:5326  _receiver */\n      dup6\n        /* \"contracts/Fast/contract.sol\":5297:5327  Invite[_to][_token][_receiver] */\n      0xffffffffffffffffffffffffffffffffffffffff\n      and\n      0xffffffffffffffffffffffffffffffffffffffff\n      and\n      dup2\n      mstore\n      0x20\n      add\n      swap1\n      dup2\n      mstore\n      0x20\n      add\n      0x00\n      keccak256\n      0x00\n        /* \"contracts/Fast/contract.sol\":5297:5334  Invite[_to][_token][_receiver] = true */\n      0x0100\n      exp\n      dup2\n      sload\n      dup2\n      0xff\n      mul\n      not\n      and\n      swap1\n      dup4\n      iszero\n      iszero\n      mul\n      or\n      swap1\n      sstore\n      pop\n        /* \"contracts/Fast/contract.sol\":5096:5341  function AcceptInvitation(uint _token,address _receiver,address _to,uint _price) public {... */\n      pop\n      pop\n      pop\n      pop\n      jump\t// out\n        /* \"contracts/Fast/contract.sol\":1481:1557  mapping (address => mapping(uint => mapping(address => bool))) public Invite */\n    tag_126:\n      mstore(0x20, 0x0c)\n      dup3\n      0x00\n      mstore\n      mstore(0x20, keccak256(0x00, 0x40))\n      dup2\n      0x00\n      mstore\n      mstore(0x20, keccak256(0x00, 0x40))\n      dup1\n      0x00\n      mstore\n      keccak256(0x00, 0x40)\n      0x00\n      swap3\n      pop\n      swap3\n      pop\n      pop\n      swap1\n      sload\n      swap1\n      0x0100\n      exp\n      swap1\n      div\n      0xff\n      and\n      dup2\n      jump\t// out\n        /* \"contracts/Fast/contract.sol\":985:1022  mapping (address => uint) public Size */\n    tag_131:\n      mstore(0x20, 0x03)\n      dup1\n      0x00\n      mstore\n      keccak256(0x00, 0x40)\n      0x00\n      swap2\n      pop\n      swap1\n      pop\n      sload\n      dup2\n      jump\t// out\n        /* \"contracts/Fast/contract.sol\":5346:5488  function Accepted(uint _token,address receiver,address _to) public view returns(bool){    ... */\n    tag_137:\n        /* \"contracts/Fast/contract.sol\":5426:5430  bool */\n      0x00\n        /* \"contracts/Fast/contract.sol\":5452:5458  Invite */\n      0x0c\n        /* \"contracts/Fast/contract.sol\":5452:5463  Invite[_to] */\n      0x00\n        /* \"contracts/Fast/contract.sol\":5459:5462  _to */\n      dup4\n        /* \"contracts/Fast/contract.sol\":5452:5463  Invite[_to] */\n      0xffffffffffffffffffffffffffffffffffffffff\n      and\n      0xffffffffffffffffffffffffffffffffffffffff\n      and\n      dup2\n      mstore\n      0x20\n      add\n      swap1\n      dup2\n      mstore\n      0x20\n      add\n      0x00\n      keccak256\n        /* \"contracts/Fast/contract.sol\":5452:5471  Invite[_to][_token] */\n      0x00\n        /* \"contracts/Fast/contract.sol\":5464:5470  _token */\n      dup6\n        /* \"contracts/Fast/contract.sol\":5452:5471  Invite[_to][_token] */\n      dup2\n      mstore\n      0x20\n      add\n      swap1\n      dup2\n      mstore\n      0x20\n      add\n      0x00\n      keccak256\n        /* \"contracts/Fast/contract.sol\":5452:5481  Invite[_to][_token][receiver] */\n      0x00\n        /* \"contracts/Fast/contract.sol\":5472:5480  receiver */\n      dup5\n        /* \"contracts/Fast/contract.sol\":5452:5481  Invite[_to][_token][receiver] */\n      0xffffffffffffffffffffffffffffffffffffffff\n      and\n      0xffffffffffffffffffffffffffffffffffffffff\n      and\n      dup2\n      mstore\n      0x20\n      add\n      swap1\n      dup2\n      mstore\n      0x20\n      add\n      0x00\n      keccak256\n      0x00\n      swap1\n      sload\n      swap1\n      0x0100\n      exp\n      swap1\n      div\n      0xff\n      and\n        /* \"contracts/Fast/contract.sol\":5445:5481  return Invite[_to][_token][receiver] */\n      swap1\n      pop\n        /* \"contracts/Fast/contract.sol\":5346:5488  function Accepted(uint _token,address receiver,address _to) public view returns(bool){    ... */\n      swap4\n      swap3\n      pop\n      pop\n      pop\n      jump\t// out\n        /* \"contracts/Fast/contract.sol\":2434:2769  function AllTender() public view returns (Tender[] memory)  {... */\n    tag_141:\n        /* \"contracts/Fast/contract.sol\":2476:2491  Tender[] memory */\n      0x60\n        /* \"contracts/Fast/contract.sol\":2504:2531  Tender[] memory memoryArray */\n      0x00\n        /* \"contracts/Fast/contract.sol\":2547:2568  TotalTender.current() */\n      tag_259\n        /* \"contracts/Fast/contract.sol\":2547:2558  TotalTender */\n      0x00\n        /* \"contracts/Fast/contract.sol\":2547:2566  TotalTender.current */\n      tag_189\n        /* \"contracts/Fast/contract.sol\":2547:2568  TotalTender.current() */\n      jump\t// in\n    tag_259:\n        /* \"contracts/Fast/contract.sol\":2534:2569  new Tender[](TotalTender.current()) */\n      0xffffffffffffffff\n      dup2\n      gt\n      iszero\n      tag_260\n      jumpi\n      tag_261\n      tag_235\n      jump\t// in\n    tag_261:\n    tag_260:\n      mload(0x40)\n      swap1\n      dup1\n      dup3\n      mstore\n      dup1\n      0x20\n      mul\n      0x20\n      add\n      dup3\n      add\n      0x40\n      mstore\n      dup1\n      iszero\n      tag_262\n      jumpi\n      dup2\n      0x20\n      add\n    tag_263:\n      tag_264\n      tag_265\n      jump\t// in\n    tag_264:\n      dup2\n      mstore\n      0x20\n      add\n      swap1\n      0x01\n      swap1\n      sub\n      swap1\n      dup2\n      tag_263\n      jumpi\n      swap1\n      pop\n    tag_262:\n      pop\n        /* \"contracts/Fast/contract.sol\":2504:2569  Tender[] memory memoryArray = new Tender[](TotalTender.current()) */\n      swap1\n      pop\n        /* \"contracts/Fast/contract.sol\":2579:2591  uint counter */\n      0x00\n        /* \"contracts/Fast/contract.sol\":2607:2613  uint i */\n      dup1\n        /* \"contracts/Fast/contract.sol\":2616:2617  1 */\n      0x01\n        /* \"contracts/Fast/contract.sol\":2607:2617  uint i = 1 */\n      swap1\n      pop\n        /* \"contracts/Fast/contract.sol\":2603:2735  for(uint i = 1; i <= TotalTender.current(); i++) {... */\n    tag_266:\n        /* \"contracts/Fast/contract.sol\":2624:2645  TotalTender.current() */\n      tag_269\n        /* \"contracts/Fast/contract.sol\":2624:2635  TotalTender */\n      0x00\n        /* \"contracts/Fast/contract.sol\":2624:2643  TotalTender.current */\n      tag_189\n        /* \"contracts/Fast/contract.sol\":2624:2645  TotalTender.current() */\n      jump\t// in\n    tag_269:\n        /* \"contracts/Fast/contract.sol\":2619:2620  i */\n      dup2\n        /* \"contracts/Fast/contract.sol\":2619:2645  i <= TotalTender.current() */\n      gt\n        /* \"contracts/Fast/contract.sol\":2603:2735  for(uint i = 1; i <= TotalTender.current(); i++) {... */\n      tag_267\n      jumpi\n        /* \"contracts/Fast/contract.sol\":2689:2694  Total */\n      0x06\n        /* \"contracts/Fast/contract.sol\":2689:2697  Total[i] */\n      0x00\n        /* \"contracts/Fast/contract.sol\":2695:2696  i */\n      dup3\n        /* \"contracts/Fast/contract.sol\":2689:2697  Total[i] */\n      dup2\n      mstore\n      0x20\n      add\n      swap1\n      dup2\n      mstore\n      0x20\n      add\n      0x00\n      keccak256\n        /* \"contracts/Fast/contract.sol\":2666:2697  memoryArray[counter] = Total[i] */\n      mload(0x40)\n      dup1\n      0x0120\n      add\n      0x40\n      mstore\n      swap1\n      dup2\n      0x00\n      dup3\n      add\n      sload\n      dup2\n      mstore\n      0x20\n      add\n      0x01\n      dup3\n      add\n      dup1\n      sload\n      tag_270\n      swap1\n      tag_179\n      jump\t// in\n    tag_270:\n      dup1\n      0x1f\n      add\n      0x20\n      dup1\n      swap2\n      div\n      mul\n      0x20\n      add\n      mload(0x40)\n      swap1\n      dup2\n      add\n      0x40\n      mstore\n      dup1\n      swap3\n      swap2\n      swap1\n      dup2\n      dup2\n      mstore\n      0x20\n      add\n      dup3\n      dup1\n      sload\n      tag_271\n      swap1\n      tag_179\n      jump\t// in\n    tag_271:\n      dup1\n      iszero\n      tag_272\n      jumpi\n      dup1\n      0x1f\n      lt\n      tag_273\n      jumpi\n      0x0100\n      dup1\n      dup4\n      sload\n      div\n      mul\n      dup4\n      mstore\n      swap2\n      0x20\n      add\n      swap2\n      jump(tag_272)\n    tag_273:\n      dup3\n      add\n      swap2\n      swap1\n      0x00\n      mstore\n      keccak256(0x00, 0x20)\n      swap1\n    tag_274:\n      dup2\n      sload\n      dup2\n      mstore\n      swap1\n      0x01\n      add\n      swap1\n      0x20\n      add\n      dup1\n      dup4\n      gt\n      tag_274\n      jumpi\n      dup3\n      swap1\n      sub\n      0x1f\n      and\n      dup3\n      add\n      swap2\n    tag_272:\n      pop\n      pop\n      pop\n      pop\n      pop\n      dup2\n      mstore\n      0x20\n      add\n      0x02\n      dup3\n      add\n      sload\n      dup2\n      mstore\n      0x20\n      add\n      0x03\n      dup3\n      add\n      sload\n      dup2\n      mstore\n      0x20\n      add\n      0x04\n      dup3\n      add\n      sload\n      dup2\n      mstore\n      0x20\n      add\n      0x05\n      dup3\n      add\n      sload\n      dup2\n      mstore\n      0x20\n      add\n      0x06\n      dup3\n      add\n      dup1\n      sload\n      tag_275\n      swap1\n      tag_179\n      jump\t// in\n    tag_275:\n      dup1\n      0x1f\n      add\n      0x20\n      dup1\n      swap2\n      div\n      mul\n      0x20\n      add\n      mload(0x40)\n      swap1\n      dup2\n      add\n      0x40\n      mstore\n      dup1\n      swap3\n      swap2\n      swap1\n      dup2\n      dup2\n      mstore\n      0x20\n      add\n      dup3\n      dup1\n      sload\n      tag_276\n      swap1\n      tag_179\n      jump\t// in\n    tag_276:\n      dup1\n      iszero\n      tag_277\n      jumpi\n      dup1\n      0x1f\n      lt\n      tag_278\n      jumpi\n      0x0100\n      dup1\n      dup4\n      sload\n      div\n      mul\n      dup4\n      mstore\n      swap2\n      0x20\n      add\n      swap2\n      jump(tag_277)\n    tag_278:\n      dup3\n      add\n      swap2\n      swap1\n      0x00\n      mstore\n      keccak256(0x00, 0x20)\n      swap1\n    tag_279:\n      dup2\n      sload\n      dup2\n      mstore\n      swap1\n      0x01\n      add\n      swap1\n      0x20\n      add\n      dup1\n      dup4\n      gt\n      tag_279\n      jumpi\n      dup3\n      swap1\n      sub\n      0x1f\n      and\n      dup3\n      add\n      swap2\n    tag_277:\n      pop\n      pop\n      pop\n      pop\n      pop\n      dup2\n      mstore\n      0x20\n      add\n      0x07\n      dup3\n      add\n      dup1\n      sload\n      tag_280\n      swap1\n      tag_179\n      jump\t// in\n    tag_280:\n      dup1\n      0x1f\n      add\n      0x20\n      dup1\n      swap2\n      div\n      mul\n      0x20\n      add\n      mload(0x40)\n      swap1\n      dup2\n      add\n      0x40\n      mstore\n      dup1\n      swap3\n      swap2\n      swap1\n      dup2\n      dup2\n      mstore\n      0x20\n      add\n      dup3\n      dup1\n      sload\n      tag_281\n      swap1\n      tag_179\n      jump\t// in\n    tag_281:\n      dup1\n      iszero\n      tag_282\n      jumpi\n      dup1\n      0x1f\n      lt\n      tag_283\n      jumpi\n      0x0100\n      dup1\n      dup4\n      sload\n      div\n      mul\n      dup4\n      mstore\n      swap2\n      0x20\n      add\n      swap2\n      jump(tag_282)\n    tag_283:\n      dup3\n      add\n      swap2\n      swap1\n      0x00\n      mstore\n      keccak256(0x00, 0x20)\n      swap1\n    tag_284:\n      dup2\n      sload\n      dup2\n      mstore\n      swap1\n      0x01\n      add\n      swap1\n      0x20\n      add\n      dup1\n      dup4\n      gt\n      tag_284\n      jumpi\n      dup3\n      swap1\n      sub\n      0x1f\n      and\n      dup3\n      add\n      swap2\n    tag_282:\n      pop\n      pop\n      pop\n      pop\n      pop\n      dup2\n      mstore\n      0x20\n      add\n      0x08\n      dup3\n      add\n      0x00\n      swap1\n      sload\n      swap1\n      0x0100\n      exp\n      swap1\n      div\n      0xffffffffffffffffffffffffffffffffffffffff\n      and\n      0xffffffffffffffffffffffffffffffffffffffff\n      and\n      0xffffffffffffffffffffffffffffffffffffffff\n      and\n      dup2\n      mstore\n      pop\n      pop\n        /* \"contracts/Fast/contract.sol\":2666:2677  memoryArray */\n      dup4\n        /* \"contracts/Fast/contract.sol\":2678:2685  counter */\n      dup4\n        /* \"contracts/Fast/contract.sol\":2666:2686  memoryArray[counter] */\n      dup2\n      mload\n      dup2\n      lt\n      tag_285\n      jumpi\n      tag_286\n      tag_252\n      jump\t// in\n    tag_286:\n    tag_285:\n      0x20\n      mul\n      0x20\n      add\n      add\n        /* \"contracts/Fast/contract.sol\":2666:2697  memoryArray[counter] = Total[i] */\n      dup2\n      swap1\n      mstore\n      pop\n        /* \"contracts/Fast/contract.sol\":2711:2720  counter++ */\n      dup2\n      dup1\n      tag_287\n      swap1\n      tag_254\n      jump\t// in\n    tag_287:\n      swap3\n      pop\n      pop\n        /* \"contracts/Fast/contract.sol\":2647:2650  i++ */\n      dup1\n      dup1\n      tag_288\n      swap1\n      tag_254\n      jump\t// in\n    tag_288:\n      swap2\n      pop\n      pop\n        /* \"contracts/Fast/contract.sol\":2603:2735  for(uint i = 1; i <= TotalTender.current(); i++) {... */\n      jump(tag_266)\n    tag_267:\n      pop\n        /* \"contracts/Fast/contract.sol\":2751:2762  memoryArray */\n      dup2\n        /* \"contracts/Fast/contract.sol\":2744:2762  return memoryArray */\n      swap3\n      pop\n      pop\n      pop\n        /* \"contracts/Fast/contract.sol\":2434:2769  function AllTender() public view returns (Tender[] memory)  {... */\n      swap1\n      jump\t// out\n        /* \"contracts/Fast/contract.sol\":4868:5091  function UpdateRequest(uint _token,uint _price,string memory _description,uint _deleveryTime) public {... */\n    tag_147:\n        /* \"contracts/Fast/contract.sol\":5025:5084  Vender(_token,_price,_description,msg.sender,_deleveryTime) */\n      mload(0x40)\n      dup1\n      0xa0\n      add\n      0x40\n      mstore\n      dup1\n        /* \"contracts/Fast/contract.sol\":5032:5038  _token */\n      dup6\n        /* \"contracts/Fast/contract.sol\":5025:5084  Vender(_token,_price,_description,msg.sender,_deleveryTime) */\n      dup2\n      mstore\n      0x20\n      add\n        /* \"contracts/Fast/contract.sol\":5039:5045  _price */\n      dup5\n        /* \"contracts/Fast/contract.sol\":5025:5084  Vender(_token,_price,_description,msg.sender,_deleveryTime) */\n      dup2\n      mstore\n      0x20\n      add\n        /* \"contracts/Fast/contract.sol\":5046:5058  _description */\n      dup4\n        /* \"contracts/Fast/contract.sol\":5025:5084  Vender(_token,_price,_description,msg.sender,_deleveryTime) */\n      dup2\n      mstore\n      0x20\n      add\n        /* \"contracts/Fast/contract.sol\":5059:5069  msg.sender */\n      caller\n        /* \"contracts/Fast/contract.sol\":5025:5084  Vender(_token,_price,_description,msg.sender,_deleveryTime) */\n      0xffffffffffffffffffffffffffffffffffffffff\n      and\n      dup2\n      mstore\n      0x20\n      add\n        /* \"contracts/Fast/contract.sol\":5070:5083  _deleveryTime */\n      dup3\n        /* \"contracts/Fast/contract.sol\":5025:5084  Vender(_token,_price,_description,msg.sender,_deleveryTime) */\n      dup2\n      mstore\n      pop\n        /* \"contracts/Fast/contract.sol\":4979:4986  Venders */\n      0x07\n        /* \"contracts/Fast/contract.sol\":4979:5014  Venders[Finder[_token][msg.sender]] */\n      0x00\n        /* \"contracts/Fast/contract.sol\":4987:4993  Finder */\n      0x0a\n        /* \"contracts/Fast/contract.sol\":4987:5001  Finder[_token] */\n      0x00\n        /* \"contracts/Fast/contract.sol\":4994:5000  _token */\n      dup9\n        /* \"contracts/Fast/contract.sol\":4987:5001  Finder[_token] */\n      dup2\n      mstore\n      0x20\n      add\n      swap1\n      dup2\n      mstore\n      0x20\n      add\n      0x00\n      keccak256\n        /* \"contracts/Fast/contract.sol\":4987:5013  Finder[_token][msg.sender] */\n      0x00\n        /* \"contracts/Fast/contract.sol\":5002:5012  msg.sender */\n      caller\n        /* \"contracts/Fast/contract.sol\":4987:5013  Finder[_token][msg.sender] */\n      0xffffffffffffffffffffffffffffffffffffffff\n      and\n      0xffffffffffffffffffffffffffffffffffffffff\n      and\n      dup2\n      mstore\n      0x20\n      add\n      swap1\n      dup2\n      mstore\n      0x20\n      add\n      0x00\n      keccak256\n      sload\n        /* \"contracts/Fast/contract.sol\":4979:5014  Venders[Finder[_token][msg.sender]] */\n      dup2\n      mstore\n      0x20\n      add\n      swap1\n      dup2\n      mstore\n      0x20\n      add\n      0x00\n      keccak256\n        /* \"contracts/Fast/contract.sol\":4979:5022  Venders[Finder[_token][msg.sender]][_token] */\n      0x00\n        /* \"contracts/Fast/contract.sol\":5015:5021  _token */\n      dup7\n        /* \"contracts/Fast/contract.sol\":4979:5022  Venders[Finder[_token][msg.sender]][_token] */\n      dup2\n      mstore\n      0x20\n      add\n      swap1\n      dup2\n      mstore\n      0x20\n      add\n      0x00\n      keccak256\n        /* \"contracts/Fast/contract.sol\":4979:5084  Venders[Finder[_token][msg.sender]][_token] = Vender(_token,_price,_description,msg.sender,_deleveryTime) */\n      0x00\n      dup3\n      add\n      mload\n      dup2\n      0x00\n      add\n      sstore\n      0x20\n      dup3\n      add\n      mload\n      dup2\n      0x01\n      add\n      sstore\n      0x40\n      dup3\n      add\n      mload\n      dup2\n      0x02\n      add\n      swap1\n      dup1\n      mload\n      swap1\n      0x20\n      add\n      swap1\n      tag_290\n      swap3\n      swap2\n      swap1\n      tag_192\n      jump\t// in\n    tag_290:\n      pop\n      0x60\n      dup3\n      add\n      mload\n      dup2\n      0x03\n      add\n      exp(0x0100, 0x00)\n      dup2\n      sload\n      dup2\n      0xffffffffffffffffffffffffffffffffffffffff\n      mul\n      not\n      and\n      swap1\n      dup4\n      0xffffffffffffffffffffffffffffffffffffffff\n      and\n      mul\n      or\n      swap1\n      sstore\n      pop\n      0x80\n      dup3\n      add\n      mload\n      dup2\n      0x04\n      add\n      sstore\n      swap1\n      pop\n      pop\n        /* \"contracts/Fast/contract.sol\":4868:5091  function UpdateRequest(uint _token,uint _price,string memory _description,uint _deleveryTime) public {... */\n      pop\n      pop\n      pop\n      pop\n      jump\t// out\n        /* \"contracts/Fast/contract.sol\":4025:4541  function getVender(address _address) public view returns (Vender[] memory)  {... */\n    tag_151:\n        /* \"contracts/Fast/contract.sol\":4083:4098  Vender[] memory */\n      0x60\n        /* \"contracts/Fast/contract.sol\":4111:4138  Vender[] memory memoryArray */\n      0x00\n        /* \"contracts/Fast/contract.sol\":4154:4162  Requests */\n      0x09\n        /* \"contracts/Fast/contract.sol\":4154:4172  Requests[_address] */\n      0x00\n        /* \"contracts/Fast/contract.sol\":4163:4171  _address */\n      dup5\n        /* \"contracts/Fast/contract.sol\":4154:4172  Requests[_address] */\n      0xffffffffffffffffffffffffffffffffffffffff\n      and\n      0xffffffffffffffffffffffffffffffffffffffff\n      and\n      dup2\n      mstore\n      0x20\n      add\n      swap1\n      dup2\n      mstore\n      0x20\n      add\n      0x00\n      keccak256\n      sload\n        /* \"contracts/Fast/contract.sol\":4141:4173  new Vender[](Requests[_address]) */\n      0xffffffffffffffff\n      dup2\n      gt\n      iszero\n      tag_292\n      jumpi\n      tag_293\n      tag_235\n      jump\t// in\n    tag_293:\n    tag_292:\n      mload(0x40)\n      swap1\n      dup1\n      dup3\n      mstore\n      dup1\n      0x20\n      mul\n      0x20\n      add\n      dup3\n      add\n      0x40\n      mstore\n      dup1\n      iszero\n      tag_294\n      jumpi\n      dup2\n      0x20\n      add\n    tag_295:\n      tag_296\n      tag_239\n      jump\t// in\n    tag_296:\n      dup2\n      mstore\n      0x20\n      add\n      swap1\n      0x01\n      swap1\n      sub\n      swap1\n      dup2\n      tag_295\n      jumpi\n      swap1\n      pop\n    tag_294:\n      pop\n        /* \"contracts/Fast/contract.sol\":4111:4173  Vender[] memory memoryArray = new Vender[](Requests[_address]) */\n      swap1\n      pop\n        /* \"contracts/Fast/contract.sol\":4183:4195  uint counter */\n      0x00\n        /* \"contracts/Fast/contract.sol\":4211:4217  uint i */\n      dup1\n        /* \"contracts/Fast/contract.sol\":4220:4221  1 */\n      0x01\n        /* \"contracts/Fast/contract.sol\":4211:4221  uint i = 1 */\n      swap1\n      pop\n        /* \"contracts/Fast/contract.sol\":4207:4507  for(uint i = 1; i <=   TotalTender.current(); i++) {... */\n    tag_297:\n        /* \"contracts/Fast/contract.sol\":4230:4251  TotalTender.current() */\n      tag_300\n        /* \"contracts/Fast/contract.sol\":4230:4241  TotalTender */\n      0x00\n        /* \"contracts/Fast/contract.sol\":4230:4249  TotalTender.current */\n      tag_189\n        /* \"contracts/Fast/contract.sol\":4230:4251  TotalTender.current() */\n      jump\t// in\n    tag_300:\n        /* \"contracts/Fast/contract.sol\":4223:4224  i */\n      dup2\n        /* \"contracts/Fast/contract.sol\":4223:4251  i <=   TotalTender.current() */\n      gt\n        /* \"contracts/Fast/contract.sol\":4207:4507  for(uint i = 1; i <=   TotalTender.current(); i++) {... */\n      tag_298\n      jumpi\n        /* \"contracts/Fast/contract.sol\":4276:4282  uint j */\n      0x00\n        /* \"contracts/Fast/contract.sol\":4285:4286  1 */\n      0x01\n        /* \"contracts/Fast/contract.sol\":4276:4286  uint j = 1 */\n      swap1\n      pop\n        /* \"contracts/Fast/contract.sol\":4272:4496  for(uint j = 1; j <= TotalVender.current(); j++){... */\n    tag_301:\n        /* \"contracts/Fast/contract.sol\":4293:4314  TotalVender.current() */\n      tag_304\n        /* \"contracts/Fast/contract.sol\":4293:4304  TotalVender */\n      0x01\n        /* \"contracts/Fast/contract.sol\":4293:4312  TotalVender.current */\n      tag_189\n        /* \"contracts/Fast/contract.sol\":4293:4314  TotalVender.current() */\n      jump\t// in\n    tag_304:\n        /* \"contracts/Fast/contract.sol\":4288:4289  j */\n      dup2\n        /* \"contracts/Fast/contract.sol\":4288:4314  j <= TotalVender.current() */\n      gt\n        /* \"contracts/Fast/contract.sol\":4272:4496  for(uint j = 1; j <= TotalVender.current(); j++){... */\n      tag_302\n      jumpi\n        /* \"contracts/Fast/contract.sol\":4353:4360  Venders */\n      0x07\n        /* \"contracts/Fast/contract.sol\":4353:4363  Venders[j] */\n      0x00\n        /* \"contracts/Fast/contract.sol\":4361:4362  j */\n      dup3\n        /* \"contracts/Fast/contract.sol\":4353:4363  Venders[j] */\n      dup2\n      mstore\n      0x20\n      add\n      swap1\n      dup2\n      mstore\n      0x20\n      add\n      0x00\n      keccak256\n        /* \"contracts/Fast/contract.sol\":4353:4366  Venders[j][i] */\n      0x00\n        /* \"contracts/Fast/contract.sol\":4364:4365  i */\n      dup4\n        /* \"contracts/Fast/contract.sol\":4353:4366  Venders[j][i] */\n      dup2\n      mstore\n      0x20\n      add\n      swap1\n      dup2\n      mstore\n      0x20\n      add\n      0x00\n      keccak256\n        /* \"contracts/Fast/contract.sol\":4353:4372  Venders[j][i].owner */\n      0x03\n      add\n      0x00\n      swap1\n      sload\n      swap1\n      0x0100\n      exp\n      swap1\n      div\n      0xffffffffffffffffffffffffffffffffffffffff\n      and\n        /* \"contracts/Fast/contract.sol\":4341:4372  _address == Venders[j][i].owner */\n      0xffffffffffffffffffffffffffffffffffffffff\n      and\n        /* \"contracts/Fast/contract.sol\":4341:4349  _address */\n      dup7\n        /* \"contracts/Fast/contract.sol\":4341:4372  _address == Venders[j][i].owner */\n      0xffffffffffffffffffffffffffffffffffffffff\n      and\n      eq\n        /* \"contracts/Fast/contract.sol\":4338:4481  if(_address == Venders[j][i].owner){... */\n      iszero\n      tag_305\n      jumpi\n        /* \"contracts/Fast/contract.sol\":4418:4425  Venders */\n      0x07\n        /* \"contracts/Fast/contract.sol\":4418:4428  Venders[j] */\n      0x00\n        /* \"contracts/Fast/contract.sol\":4426:4427  j */\n      dup3\n        /* \"contracts/Fast/contract.sol\":4418:4428  Venders[j] */\n      dup2\n      mstore\n      0x20\n      add\n      swap1\n      dup2\n      mstore\n      0x20\n      add\n      0x00\n      keccak256\n        /* \"contracts/Fast/contract.sol\":4418:4431  Venders[j][i] */\n      0x00\n        /* \"contracts/Fast/contract.sol\":4429:4430  i */\n      dup4\n        /* \"contracts/Fast/contract.sol\":4418:4431  Venders[j][i] */\n      dup2\n      mstore\n      0x20\n      add\n      swap1\n      dup2\n      mstore\n      0x20\n      add\n      0x00\n      keccak256\n        /* \"contracts/Fast/contract.sol\":4395:4431  memoryArray[counter] = Venders[j][i] */\n      mload(0x40)\n      dup1\n      0xa0\n      add\n      0x40\n      mstore\n      swap1\n      dup2\n      0x00\n      dup3\n      add\n      sload\n      dup2\n      mstore\n      0x20\n      add\n      0x01\n      dup3\n      add\n      sload\n      dup2\n      mstore\n      0x20\n      add\n      0x02\n      dup3\n      add\n      dup1\n      sload\n      tag_306\n      swap1\n      tag_179\n      jump\t// in\n    tag_306:\n      dup1\n      0x1f\n      add\n      0x20\n      dup1\n      swap2\n      div\n      mul\n      0x20\n      add\n      mload(0x40)\n      swap1\n      dup2\n      add\n      0x40\n      mstore\n      dup1\n      swap3\n      swap2\n      swap1\n      dup2\n      dup2\n      mstore\n      0x20\n      add\n      dup3\n      dup1\n      sload\n      tag_307\n      swap1\n      tag_179\n      jump\t// in\n    tag_307:\n      dup1\n      iszero\n      tag_308\n      jumpi\n      dup1\n      0x1f\n      lt\n      tag_309\n      jumpi\n      0x0100\n      dup1\n      dup4\n      sload\n      div\n      mul\n      dup4\n      mstore\n      swap2\n      0x20\n      add\n      swap2\n      jump(tag_308)\n    tag_309:\n      dup3\n      add\n      swap2\n      swap1\n      0x00\n      mstore\n      keccak256(0x00, 0x20)\n      swap1\n    tag_310:\n      dup2\n      sload\n      dup2\n      mstore\n      swap1\n      0x01\n      add\n      swap1\n      0x20\n      add\n      dup1\n      dup4\n      gt\n      tag_310\n      jumpi\n      dup3\n      swap1\n      sub\n      0x1f\n      and\n      dup3\n      add\n      swap2\n    tag_308:\n      pop\n      pop\n      pop\n      pop\n      pop\n      dup2\n      mstore\n      0x20\n      add\n      0x03\n      dup3\n      add\n      0x00\n      swap1\n      sload\n      swap1\n      0x0100\n      exp\n      swap1\n      div\n      0xffffffffffffffffffffffffffffffffffffffff\n      and\n      0xffffffffffffffffffffffffffffffffffffffff\n      and\n      0xffffffffffffffffffffffffffffffffffffffff\n      and\n      dup2\n      mstore\n      0x20\n      add\n      0x04\n      dup3\n      add\n      sload\n      dup2\n      mstore\n      pop\n      pop\n        /* \"contracts/Fast/contract.sol\":4395:4406  memoryArray */\n      dup5\n        /* \"contracts/Fast/contract.sol\":4407:4414  counter */\n      dup5\n        /* \"contracts/Fast/contract.sol\":4395:4415  memoryArray[counter] */\n      dup2\n      mload\n      dup2\n      lt\n      tag_311\n      jumpi\n      tag_312\n      tag_252\n      jump\t// in\n    tag_312:\n    tag_311:\n      0x20\n      mul\n      0x20\n      add\n      add\n        /* \"contracts/Fast/contract.sol\":4395:4431  memoryArray[counter] = Venders[j][i] */\n      dup2\n      swap1\n      mstore\n      pop\n        /* \"contracts/Fast/contract.sol\":4453:4462  counter++ */\n      dup3\n      dup1\n      tag_313\n      swap1\n      tag_254\n      jump\t// in\n    tag_313:\n      swap4\n      pop\n      pop\n        /* \"contracts/Fast/contract.sol\":4338:4481  if(_address == Venders[j][i].owner){... */\n    tag_305:\n        /* \"contracts/Fast/contract.sol\":4316:4319  j++ */\n      dup1\n      dup1\n      tag_314\n      swap1\n      tag_254\n      jump\t// in\n    tag_314:\n      swap2\n      pop\n      pop\n        /* \"contracts/Fast/contract.sol\":4272:4496  for(uint j = 1; j <= TotalVender.current(); j++){... */\n      jump(tag_301)\n    tag_302:\n      pop\n        /* \"contracts/Fast/contract.sol\":4253:4256  i++ */\n      dup1\n      dup1\n      tag_315\n      swap1\n      tag_254\n      jump\t// in\n    tag_315:\n      swap2\n      pop\n      pop\n        /* \"contracts/Fast/contract.sol\":4207:4507  for(uint i = 1; i <=   TotalTender.current(); i++) {... */\n      jump(tag_297)\n    tag_298:\n      pop\n        /* \"contracts/Fast/contract.sol\":4523:4534  memoryArray */\n      dup2\n        /* \"contracts/Fast/contract.sol\":4516:4534  return memoryArray */\n      swap3\n      pop\n      pop\n      pop\n        /* \"contracts/Fast/contract.sol\":4025:4541  function getVender(address _address) public view returns (Vender[] memory)  {... */\n      swap2\n      swap1\n      pop\n      jump\t// out\n        /* \"contracts/Fast/contract.sol\":2030:2429  function getTender(address _to) public view returns (Tender[] memory)  {... */\n    tag_156:\n        /* \"contracts/Fast/contract.sol\":2083:2098  Tender[] memory */\n      0x60\n        /* \"contracts/Fast/contract.sol\":2111:2138  Tender[] memory memoryArray */\n      0x00\n        /* \"contracts/Fast/contract.sol\":2154:2158  Size */\n      0x03\n        /* \"contracts/Fast/contract.sol\":2154:2163  Size[_to] */\n      0x00\n        /* \"contracts/Fast/contract.sol\":2159:2162  _to */\n      dup5\n        /* \"contracts/Fast/contract.sol\":2154:2163  Size[_to] */\n      0xffffffffffffffffffffffffffffffffffffffff\n      and\n      0xffffffffffffffffffffffffffffffffffffffff\n      and\n      dup2\n      mstore\n      0x20\n      add\n      swap1\n      dup2\n      mstore\n      0x20\n      add\n      0x00\n      keccak256\n      sload\n        /* \"contracts/Fast/contract.sol\":2141:2164  new Tender[](Size[_to]) */\n      0xffffffffffffffff\n      dup2\n      gt\n      iszero\n      tag_317\n      jumpi\n      tag_318\n      tag_235\n      jump\t// in\n    tag_318:\n    tag_317:\n      mload(0x40)\n      swap1\n      dup1\n      dup3\n      mstore\n      dup1\n      0x20\n      mul\n      0x20\n      add\n      dup3\n      add\n      0x40\n      mstore\n      dup1\n      iszero\n      tag_319\n      jumpi\n      dup2\n      0x20\n      add\n    tag_320:\n      tag_321\n      tag_265\n      jump\t// in\n    tag_321:\n      dup2\n      mstore\n      0x20\n      add\n      swap1\n      0x01\n      swap1\n      sub\n      swap1\n      dup2\n      tag_320\n      jumpi\n      swap1\n      pop\n    tag_319:\n      pop\n        /* \"contracts/Fast/contract.sol\":2111:2164  Tender[] memory memoryArray = new Tender[](Size[_to]) */\n      swap1\n      pop\n        /* \"contracts/Fast/contract.sol\":2174:2186  uint counter */\n      0x00\n        /* \"contracts/Fast/contract.sol\":2202:2208  uint i */\n      dup1\n        /* \"contracts/Fast/contract.sol\":2211:2212  1 */\n      0x01\n        /* \"contracts/Fast/contract.sol\":2202:2212  uint i = 1 */\n      swap1\n      pop\n        /* \"contracts/Fast/contract.sol\":2198:2395  for(uint i = 1; i <= TotalTender.current(); i++) {... */\n    tag_322:\n        /* \"contracts/Fast/contract.sol\":2219:2240  TotalTender.current() */\n      tag_325\n        /* \"contracts/Fast/contract.sol\":2219:2230  TotalTender */\n      0x00\n        /* \"contracts/Fast/contract.sol\":2219:2238  TotalTender.current */\n      tag_189\n        /* \"contracts/Fast/contract.sol\":2219:2240  TotalTender.current() */\n      jump\t// in\n    tag_325:\n        /* \"contracts/Fast/contract.sol\":2214:2215  i */\n      dup2\n        /* \"contracts/Fast/contract.sol\":2214:2240  i <= TotalTender.current() */\n      gt\n        /* \"contracts/Fast/contract.sol\":2198:2395  for(uint i = 1; i <= TotalTender.current(); i++) {... */\n      tag_323\n      jumpi\n        /* \"contracts/Fast/contract.sol\":2271:2276  Total */\n      0x06\n        /* \"contracts/Fast/contract.sol\":2271:2279  Total[i] */\n      0x00\n        /* \"contracts/Fast/contract.sol\":2277:2278  i */\n      dup3\n        /* \"contracts/Fast/contract.sol\":2271:2279  Total[i] */\n      dup2\n      mstore\n      0x20\n      add\n      swap1\n      dup2\n      mstore\n      0x20\n      add\n      0x00\n      keccak256\n        /* \"contracts/Fast/contract.sol\":2271:2285  Total[i].owner */\n      0x08\n      add\n      0x00\n      swap1\n      sload\n      swap1\n      0x0100\n      exp\n      swap1\n      div\n      0xffffffffffffffffffffffffffffffffffffffff\n      and\n        /* \"contracts/Fast/contract.sol\":2264:2285  _to == Total[i].owner */\n      0xffffffffffffffffffffffffffffffffffffffff\n      and\n        /* \"contracts/Fast/contract.sol\":2264:2267  _to */\n      dup6\n        /* \"contracts/Fast/contract.sol\":2264:2285  _to == Total[i].owner */\n      0xffffffffffffffffffffffffffffffffffffffff\n      and\n      eq\n        /* \"contracts/Fast/contract.sol\":2261:2377  if(_to == Total[i].owner){... */\n      iszero\n      tag_326\n      jumpi\n        /* \"contracts/Fast/contract.sol\":2327:2332  Total */\n      0x06\n        /* \"contracts/Fast/contract.sol\":2327:2335  Total[i] */\n      0x00\n        /* \"contracts/Fast/contract.sol\":2333:2334  i */\n      dup3\n        /* \"contracts/Fast/contract.sol\":2327:2335  Total[i] */\n      dup2\n      mstore\n      0x20\n      add\n      swap1\n      dup2\n      mstore\n      0x20\n      add\n      0x00\n      keccak256\n        /* \"contracts/Fast/contract.sol\":2304:2335  memoryArray[counter] = Total[i] */\n      mload(0x40)\n      dup1\n      0x0120\n      add\n      0x40\n      mstore\n      swap1\n      dup2\n      0x00\n      dup3\n      add\n      sload\n      dup2\n      mstore\n      0x20\n      add\n      0x01\n      dup3\n      add\n      dup1\n      sload\n      tag_327\n      swap1\n      tag_179\n      jump\t// in\n    tag_327:\n      dup1\n      0x1f\n      add\n      0x20\n      dup1\n      swap2\n      div\n      mul\n      0x20\n      add\n      mload(0x40)\n      swap1\n      dup2\n      add\n      0x40\n      mstore\n      dup1\n      swap3\n      swap2\n      swap1\n      dup2\n      dup2\n      mstore\n      0x20\n      add\n      dup3\n      dup1\n      sload\n      tag_328\n      swap1\n      tag_179\n      jump\t// in\n    tag_328:\n      dup1\n      iszero\n      tag_329\n      jumpi\n      dup1\n      0x1f\n      lt\n      tag_330\n      jumpi\n      0x0100\n      dup1\n      dup4\n      sload\n      div\n      mul\n      dup4\n      mstore\n      swap2\n      0x20\n      add\n      swap2\n      jump(tag_329)\n    tag_330:\n      dup3\n      add\n      swap2\n      swap1\n      0x00\n      mstore\n      keccak256(0x00, 0x20)\n      swap1\n    tag_331:\n      dup2\n      sload\n      dup2\n      mstore\n      swap1\n      0x01\n      add\n      swap1\n      0x20\n      add\n      dup1\n      dup4\n      gt\n      tag_331\n      jumpi\n      dup3\n      swap1\n      sub\n      0x1f\n      and\n      dup3\n      add\n      swap2\n    tag_329:\n      pop\n      pop\n      pop\n      pop\n      pop\n      dup2\n      mstore\n      0x20\n      add\n      0x02\n      dup3\n      add\n      sload\n      dup2\n      mstore\n      0x20\n      add\n      0x03\n      dup3\n      add\n      sload\n      dup2\n      mstore\n      0x20\n      add\n      0x04\n      dup3\n      add\n      sload\n      dup2\n      mstore\n      0x20\n      add\n      0x05\n      dup3\n      add\n      sload\n      dup2\n      mstore\n      0x20\n      add\n      0x06\n      dup3\n      add\n      dup1\n      sload\n      tag_332\n      swap1\n      tag_179\n      jump\t// in\n    tag_332:\n      dup1\n      0x1f\n      add\n      0x20\n      dup1\n      swap2\n      div\n      mul\n      0x20\n      add\n      mload(0x40)\n      swap1\n      dup2\n      add\n      0x40\n      mstore\n      dup1\n      swap3\n      swap2\n      swap1\n      dup2\n      dup2\n      mstore\n      0x20\n      add\n      dup3\n      dup1\n      sload\n      tag_333\n      swap1\n      tag_179\n      jump\t// in\n    tag_333:\n      dup1\n      iszero\n      tag_334\n      jumpi\n      dup1\n      0x1f\n      lt\n      tag_335\n      jumpi\n      0x0100\n      dup1\n      dup4\n      sload\n      div\n      mul\n      dup4\n      mstore\n      swap2\n      0x20\n      add\n      swap2\n      jump(tag_334)\n    tag_335:\n      dup3\n      add\n      swap2\n      swap1\n      0x00\n      mstore\n      keccak256(0x00, 0x20)\n      swap1\n    tag_336:\n      dup2\n      sload\n      dup2\n      mstore\n      swap1\n      0x01\n      add\n      swap1\n      0x20\n      add\n      dup1\n      dup4\n      gt\n      tag_336\n      jumpi\n      dup3\n      swap1\n      sub\n      0x1f\n      and\n      dup3\n      add\n      swap2\n    tag_334:\n      pop\n      pop\n      pop\n      pop\n      pop\n      dup2\n      mstore\n      0x20\n      add\n      0x07\n      dup3\n      add\n      dup1\n      sload\n      tag_337\n      swap1\n      tag_179\n      jump\t// in\n    tag_337:\n      dup1\n      0x1f\n      add\n      0x20\n      dup1\n      swap2\n      div\n      mul\n      0x20\n      add\n      mload(0x40)\n      swap1\n      dup2\n      add\n      0x40\n      mstore\n      dup1\n      swap3\n      swap2\n      swap1\n      dup2\n      dup2\n      mstore\n      0x20\n      add\n      dup3\n      dup1\n      sload\n      tag_338\n      swap1\n      tag_179\n      jump\t// in\n    tag_338:\n      dup1\n      iszero\n      tag_339\n      jumpi\n      dup1\n      0x1f\n      lt\n      tag_340\n      jumpi\n      0x0100\n      dup1\n      dup4\n      sload\n      div\n      mul\n      dup4\n      mstore\n      swap2\n      0x20\n      add\n      swap2\n      jump(tag_339)\n    tag_340:\n      dup3\n      add\n      swap2\n      swap1\n      0x00\n      mstore\n      keccak256(0x00, 0x20)\n      swap1\n    tag_341:\n      dup2\n      sload\n      dup2\n      mstore\n      swap1\n      0x01\n      add\n      swap1\n      0x20\n      add\n      dup1\n      dup4\n      gt\n      tag_341\n      jumpi\n      dup3\n      swap1\n      sub\n      0x1f\n      and\n      dup3\n      add\n      swap2\n    tag_339:\n      pop\n      pop\n      pop\n      pop\n      pop\n      dup2\n      mstore\n      0x20\n      add\n      0x08\n      dup3\n      add\n      0x00\n      swap1\n      sload\n      swap1\n      0x0100\n      exp\n      swap1\n      div\n      0xffffffffffffffffffffffffffffffffffffffff\n      and\n      0xffffffffffffffffffffffffffffffffffffffff\n      and\n      0xffffffffffffffffffffffffffffffffffffffff\n      and\n      dup2\n      mstore\n      pop\n      pop\n        /* \"contracts/Fast/contract.sol\":2304:2315  memoryArray */\n      dup4\n        /* \"contracts/Fast/contract.sol\":2316:2323  counter */\n      dup4\n        /* \"contracts/Fast/contract.sol\":2304:2324  memoryArray[counter] */\n      dup2\n      mload\n      dup2\n      lt\n      tag_342\n      jumpi\n      tag_343\n      tag_252\n      jump\t// in\n    tag_343:\n    tag_342:\n      0x20\n      mul\n      0x20\n      add\n      add\n        /* \"contracts/Fast/contract.sol\":2304:2335  memoryArray[counter] = Total[i] */\n      dup2\n      swap1\n      mstore\n      pop\n        /* \"contracts/Fast/contract.sol\":2353:2362  counter++ */\n      dup2\n      dup1\n      tag_344\n      swap1\n      tag_254\n      jump\t// in\n    tag_344:\n      swap3\n      pop\n      pop\n        /* \"contracts/Fast/contract.sol\":2261:2377  if(_to == Total[i].owner){... */\n    tag_326:\n        /* \"contracts/Fast/contract.sol\":2242:2245  i++ */\n      dup1\n      dup1\n      tag_345\n      swap1\n      tag_254\n      jump\t// in\n    tag_345:\n      swap2\n      pop\n      pop\n        /* \"contracts/Fast/contract.sol\":2198:2395  for(uint i = 1; i <= TotalTender.current(); i++) {... */\n      jump(tag_322)\n    tag_323:\n      pop\n        /* \"contracts/Fast/contract.sol\":2411:2422  memoryArray */\n      dup2\n        /* \"contracts/Fast/contract.sol\":2404:2422  return memoryArray */\n      swap3\n      pop\n      pop\n      pop\n        /* \"contracts/Fast/contract.sol\":2030:2429  function getTender(address _to) public view returns (Tender[] memory)  {... */\n      swap2\n      swap1\n      pop\n      jump\t// out\n        /* \"contracts/Fast/contract.sol\":5493:5862  function Done(address _to,address from,uint tokenId) public payable {... */\n    tag_161:\n        /* \"contracts/Fast/contract.sol\":5620:5623  _to */\n      dup3\n        /* \"contracts/Fast/contract.sol\":5579:5623  Communication[tokenId][from].receiver == _to */\n      0xffffffffffffffffffffffffffffffffffffffff\n      and\n        /* \"contracts/Fast/contract.sol\":5579:5592  Communication */\n      0x0b\n        /* \"contracts/Fast/contract.sol\":5579:5601  Communication[tokenId] */\n      0x00\n        /* \"contracts/Fast/contract.sol\":5593:5600  tokenId */\n      dup4\n        /* \"contracts/Fast/contract.sol\":5579:5601  Communication[tokenId] */\n      dup2\n      mstore\n      0x20\n      add\n      swap1\n      dup2\n      mstore\n      0x20\n      add\n      0x00\n      keccak256\n        /* \"contracts/Fast/contract.sol\":5579:5607  Communication[tokenId][from] */\n      0x00\n        /* \"contracts/Fast/contract.sol\":5602:5606  from */\n      dup5\n        /* \"contracts/Fast/contract.sol\":5579:5607  Communication[tokenId][from] */\n      0xffffffffffffffffffffffffffffffffffffffff\n      and\n      0xffffffffffffffffffffffffffffffffffffffff\n      and\n      dup2\n      mstore\n      0x20\n      add\n      swap1\n      dup2\n      mstore\n      0x20\n      add\n      0x00\n      keccak256\n        /* \"contracts/Fast/contract.sol\":5579:5616  Communication[tokenId][from].receiver */\n      0x00\n      add\n      0x00\n      swap1\n      sload\n      swap1\n      0x0100\n      exp\n      swap1\n      div\n      0xffffffffffffffffffffffffffffffffffffffff\n      and\n        /* \"contracts/Fast/contract.sol\":5579:5623  Communication[tokenId][from].receiver == _to */\n      0xffffffffffffffffffffffffffffffffffffffff\n      and\n      eq\n        /* \"contracts/Fast/contract.sol\":5571:5663  require(Communication[tokenId][from].receiver == _to,\"Please Sellect the correct Recepient\") */\n      tag_347\n      jumpi\n      mload(0x40)\n      0x08c379a000000000000000000000000000000000000000000000000000000000\n      dup2\n      mstore\n      0x04\n      add\n      tag_348\n      swap1\n      tag_349\n      jump\t// in\n    tag_348:\n      mload(0x40)\n      dup1\n      swap2\n      sub\n      swap1\n      revert\n    tag_347:\n        /* \"contracts/Fast/contract.sol\":5681:5694  Communication */\n      0x0b\n        /* \"contracts/Fast/contract.sol\":5681:5703  Communication[tokenId] */\n      0x00\n        /* \"contracts/Fast/contract.sol\":5695:5702  tokenId */\n      dup3\n        /* \"contracts/Fast/contract.sol\":5681:5703  Communication[tokenId] */\n      dup2\n      mstore\n      0x20\n      add\n      swap1\n      dup2\n      mstore\n      0x20\n      add\n      0x00\n      keccak256\n        /* \"contracts/Fast/contract.sol\":5681:5709  Communication[tokenId][from] */\n      0x00\n        /* \"contracts/Fast/contract.sol\":5704:5708  from */\n      dup4\n        /* \"contracts/Fast/contract.sol\":5681:5709  Communication[tokenId][from] */\n      0xffffffffffffffffffffffffffffffffffffffff\n      and\n      0xffffffffffffffffffffffffffffffffffffffff\n      and\n      dup2\n      mstore\n      0x20\n      add\n      swap1\n      dup2\n      mstore\n      0x20\n      add\n      0x00\n      keccak256\n        /* \"contracts/Fast/contract.sol\":5681:5714  Communication[tokenId][from].done */\n      0x02\n      add\n      0x00\n      swap1\n      sload\n      swap1\n      0x0100\n      exp\n      swap1\n      div\n      0xff\n      and\n        /* \"contracts/Fast/contract.sol\":5673:5737  require(Communication[tokenId][from].done,\"You already payment\") */\n      tag_350\n      jumpi\n      mload(0x40)\n      0x08c379a000000000000000000000000000000000000000000000000000000000\n      dup2\n      mstore\n      0x04\n      add\n      tag_351\n      swap1\n      tag_352\n      jump\t// in\n    tag_351:\n      mload(0x40)\n      dup1\n      swap2\n      sub\n      swap1\n      revert\n    tag_350:\n        /* \"contracts/Fast/contract.sol\":5783:5788  false */\n      0x00\n        /* \"contracts/Fast/contract.sol\":5747:5760  Communication */\n      0x0b\n        /* \"contracts/Fast/contract.sol\":5747:5769  Communication[tokenId] */\n      0x00\n        /* \"contracts/Fast/contract.sol\":5761:5768  tokenId */\n      dup4\n        /* \"contracts/Fast/contract.sol\":5747:5769  Communication[tokenId] */\n      dup2\n      mstore\n      0x20\n      add\n      swap1\n      dup2\n      mstore\n      0x20\n      add\n      0x00\n      keccak256\n        /* \"contracts/Fast/contract.sol\":5747:5775  Communication[tokenId][from] */\n      0x00\n        /* \"contracts/Fast/contract.sol\":5770:5774  from */\n      dup5\n        /* \"contracts/Fast/contract.sol\":5747:5775  Communication[tokenId][from] */\n      0xffffffffffffffffffffffffffffffffffffffff\n      and\n      0xffffffffffffffffffffffffffffffffffffffff\n      and\n      dup2\n      mstore\n      0x20\n      add\n      swap1\n      dup2\n      mstore\n      0x20\n      add\n      0x00\n      keccak256\n        /* \"contracts/Fast/contract.sol\":5747:5780  Communication[tokenId][from].done */\n      0x02\n      add\n      0x00\n        /* \"contracts/Fast/contract.sol\":5747:5788  Communication[tokenId][from].done = false */\n      0x0100\n      exp\n      dup2\n      sload\n      dup2\n      0xff\n      mul\n      not\n      and\n      swap1\n      dup4\n      iszero\n      iszero\n      mul\n      or\n      swap1\n      sstore\n      pop\n        /* \"contracts/Fast/contract.sol\":5806:5809  _to */\n      dup3\n        /* \"contracts/Fast/contract.sol\":5798:5819  payable(_to).transfer */\n      0xffffffffffffffffffffffffffffffffffffffff\n      and\n        /* \"contracts/Fast/contract.sol\":5798:5855  payable(_to).transfer(Communication[tokenId][from].price) */\n      0x08fc\n        /* \"contracts/Fast/contract.sol\":5820:5833  Communication */\n      0x0b\n        /* \"contracts/Fast/contract.sol\":5820:5842  Communication[tokenId] */\n      0x00\n        /* \"contracts/Fast/contract.sol\":5834:5841  tokenId */\n      dup5\n        /* \"contracts/Fast/contract.sol\":5820:5842  Communication[tokenId] */\n      dup2\n      mstore\n      0x20\n      add\n      swap1\n      dup2\n      mstore\n      0x20\n      add\n      0x00\n      keccak256\n        /* \"contracts/Fast/contract.sol\":5820:5848  Communication[tokenId][from] */\n      0x00\n        /* \"contracts/Fast/contract.sol\":5843:5847  from */\n      dup6\n        /* \"contracts/Fast/contract.sol\":5820:5848  Communication[tokenId][from] */\n      0xffffffffffffffffffffffffffffffffffffffff\n      and\n      0xffffffffffffffffffffffffffffffffffffffff\n      and\n      dup2\n      mstore\n      0x20\n      add\n      swap1\n      dup2\n      mstore\n      0x20\n      add\n      0x00\n      keccak256\n        /* \"contracts/Fast/contract.sol\":5820:5854  Communication[tokenId][from].price */\n      0x01\n      add\n      sload\n        /* \"contracts/Fast/contract.sol\":5798:5855  payable(_to).transfer(Communication[tokenId][from].price) */\n      swap1\n      dup2\n      iszero\n      mul\n      swap1\n      mload(0x40)\n      0x00\n      mload(0x40)\n      dup1\n      dup4\n      sub\n      dup2\n      dup6\n      dup9\n      dup9\n      call\n      swap4\n      pop\n      pop\n      pop\n      pop\n      iszero\n      dup1\n      iszero\n      tag_354\n      jumpi\n      returndatasize\n      0x00\n      dup1\n      returndatacopy\n      revert(0x00, returndatasize)\n    tag_354:\n      pop\n        /* \"contracts/Fast/contract.sol\":5493:5862  function Done(address _to,address from,uint tokenId) public payable {... */\n      pop\n      pop\n      pop\n      jump\t// out\n        /* \"contracts/Fast/contract.sol\":318:353  Counters.Counter public TotalTender */\n    tag_164:\n      0x00\n      dup1\n      0x00\n      add\n      sload\n      swap1\n      pop\n      dup2\n      jump\t// out\n        /* \"contracts/Fast/contract.sol\":1091:1131  mapping (uint => uint) public SizeVender */\n    tag_169:\n      mstore(0x20, 0x05)\n      dup1\n      0x00\n      mstore\n      keccak256(0x00, 0x40)\n      0x00\n      swap2\n      pop\n      swap1\n      pop\n      sload\n      dup2\n      jump\t// out\n        /* \"@openzeppelin/contracts/utils/Counters.sol\":945:1068  function increment(Counter storage counter) internal {... */\n    tag_186:\n        /* \"@openzeppelin/contracts/utils/Counters.sol\":1050:1051  1 */\n      0x01\n        /* \"@openzeppelin/contracts/utils/Counters.sol\":1032:1039  counter */\n      dup2\n        /* \"@openzeppelin/contracts/utils/Counters.sol\":1032:1046  counter._value */\n      0x00\n      add\n      0x00\n        /* \"@openzeppelin/contracts/utils/Counters.sol\":1032:1051  counter._value += 1 */\n      dup3\n      dup3\n      sload\n      add\n      swap3\n      pop\n      pop\n      dup2\n      swap1\n      sstore\n      pop\n        /* \"@openzeppelin/contracts/utils/Counters.sol\":945:1068  function increment(Counter storage counter) internal {... */\n      pop\n      jump\t// out\n        /* \"@openzeppelin/contracts/utils/Counters.sol\":827:939  function current(Counter storage counter) internal view returns (uint256) {... */\n    tag_189:\n        /* \"@openzeppelin/contracts/utils/Counters.sol\":892:899  uint256 */\n      0x00\n        /* \"@openzeppelin/contracts/utils/Counters.sol\":918:925  counter */\n      dup2\n        /* \"@openzeppelin/contracts/utils/Counters.sol\":918:932  counter._value */\n      0x00\n      add\n      sload\n        /* \"@openzeppelin/contracts/utils/Counters.sol\":911:932  return counter._value */\n      swap1\n      pop\n        /* \"@openzeppelin/contracts/utils/Counters.sol\":827:939  function current(Counter storage counter) internal view returns (uint256) {... */\n      swap2\n      swap1\n      pop\n      jump\t// out\n    tag_192:\n      dup3\n      dup1\n      sload\n      tag_357\n      swap1\n      tag_179\n      jump\t// in\n    tag_357:\n      swap1\n      0x00\n      mstore\n      keccak256(0x00, 0x20)\n      swap1\n      0x1f\n      add\n      0x20\n      swap1\n      div\n      dup2\n      add\n      swap3\n      dup3\n      tag_359\n      jumpi\n      0x00\n      dup6\n      sstore\n      jump(tag_358)\n    tag_359:\n      dup3\n      0x1f\n      lt\n      tag_360\n      jumpi\n      dup1\n      mload\n      not(0xff)\n      and\n      dup4\n      dup1\n      add\n      or\n      dup6\n      sstore\n      jump(tag_358)\n    tag_360:\n      dup3\n      dup1\n      add\n      0x01\n      add\n      dup6\n      sstore\n      dup3\n      iszero\n      tag_358\n      jumpi\n      swap2\n      dup3\n      add\n    tag_361:\n      dup3\n      dup2\n      gt\n      iszero\n      tag_362\n      jumpi\n      dup3\n      mload\n      dup3\n      sstore\n      swap2\n      0x20\n      add\n      swap2\n      swap1\n      0x01\n      add\n      swap1\n      jump(tag_361)\n    tag_362:\n    tag_358:\n      pop\n      swap1\n      pop\n      tag_363\n      swap2\n      swap1\n      tag_364\n      jump\t// in\n    tag_363:\n      pop\n      swap1\n      jump\t// out\n    tag_203:\n      pop\n      dup1\n      sload\n      tag_365\n      swap1\n      tag_179\n      jump\t// in\n    tag_365:\n      0x00\n      dup3\n      sstore\n      dup1\n      0x1f\n      lt\n      tag_367\n      jumpi\n      pop\n      jump(tag_366)\n    tag_367:\n      0x1f\n      add\n      0x20\n      swap1\n      div\n      swap1\n      0x00\n      mstore\n      keccak256(0x00, 0x20)\n      swap1\n      dup2\n      add\n      swap1\n      tag_368\n      swap2\n      swap1\n      tag_364\n      jump\t// in\n    tag_368:\n    tag_366:\n      pop\n      jump\t// out\n    tag_239:\n      mload(0x40)\n      dup1\n      0xa0\n      add\n      0x40\n      mstore\n      dup1\n      0x00\n      dup2\n      mstore\n      0x20\n      add\n      0x00\n      dup2\n      mstore\n      0x20\n      add\n      0x60\n      dup2\n      mstore\n      0x20\n      add\n      and(0xffffffffffffffffffffffffffffffffffffffff, 0x00)\n      dup2\n      mstore\n      0x20\n      add\n      0x00\n      dup2\n      mstore\n      pop\n      swap1\n      jump\t// out\n    tag_265:\n      mload(0x40)\n      dup1\n      0x0120\n      add\n      0x40\n      mstore\n      dup1\n      0x00\n      dup2\n      mstore\n      0x20\n      add\n      0x60\n      dup2\n      mstore\n      0x20\n      add\n      0x00\n      dup2\n      mstore\n      0x20\n      add\n      0x00\n      dup2\n      mstore\n      0x20\n      add\n      0x00\n      dup2\n      mstore\n      0x20\n      add\n      0x00\n      dup2\n      mstore\n      0x20\n      add\n      0x60\n      dup2\n      mstore\n      0x20\n      add\n      0x60\n      dup2\n      mstore\n      0x20\n      add\n      and(0xffffffffffffffffffffffffffffffffffffffff, 0x00)\n      dup2\n      mstore\n      pop\n      swap1\n      jump\t// out\n    tag_364:\n    tag_369:\n      dup1\n      dup3\n      gt\n      iszero\n      tag_370\n      jumpi\n      0x00\n      dup2\n      0x00\n      swap1\n      sstore\n      pop\n      0x01\n      add\n      jump(tag_369)\n    tag_370:\n      pop\n      swap1\n      jump\t// out\n        /* \"#utility.yul\":7:419   */\n    tag_372:\n        /* \"#utility.yul\":85:90   */\n      0x00\n        /* \"#utility.yul\":110:176   */\n      tag_374\n        /* \"#utility.yul\":126:175   */\n      tag_375\n        /* \"#utility.yul\":168:174   */\n      dup5\n        /* \"#utility.yul\":126:175   */\n      tag_376\n      jump\t// in\n    tag_375:\n        /* \"#utility.yul\":110:176   */\n      tag_377\n      jump\t// in\n    tag_374:\n        /* \"#utility.yul\":101:176   */\n      swap1\n      pop\n        /* \"#utility.yul\":199:205   */\n      dup3\n        /* \"#utility.yul\":192:197   */\n      dup2\n        /* \"#utility.yul\":185:206   */\n      mstore\n        /* \"#utility.yul\":237:241   */\n      0x20\n        /* \"#utility.yul\":230:235   */\n      dup2\n        /* \"#utility.yul\":226:242   */\n      add\n        /* \"#utility.yul\":275:278   */\n      dup5\n        /* \"#utility.yul\":266:272   */\n      dup5\n        /* \"#utility.yul\":261:264   */\n      dup5\n        /* \"#utility.yul\":257:273   */\n      add\n        /* \"#utility.yul\":254:279   */\n      gt\n        /* \"#utility.yul\":251:363   */\n      iszero\n      tag_378\n      jumpi\n        /* \"#utility.yul\":282:361   */\n      tag_379\n      tag_380\n      jump\t// in\n    tag_379:\n        /* \"#utility.yul\":251:363   */\n    tag_378:\n        /* \"#utility.yul\":372:413   */\n      tag_381\n        /* \"#utility.yul\":406:412   */\n      dup5\n        /* \"#utility.yul\":401:404   */\n      dup3\n        /* \"#utility.yul\":396:399   */\n      dup6\n        /* \"#utility.yul\":372:413   */\n      tag_382\n      jump\t// in\n    tag_381:\n        /* \"#utility.yul\":91:419   */\n      pop\n        /* \"#utility.yul\":7:419   */\n      swap4\n      swap3\n      pop\n      pop\n      pop\n      jump\t// out\n        /* \"#utility.yul\":425:564   */\n    tag_383:\n        /* \"#utility.yul\":471:476   */\n      0x00\n        /* \"#utility.yul\":509:515   */\n      dup2\n        /* \"#utility.yul\":496:516   */\n      calldataload\n        /* \"#utility.yul\":487:516   */\n      swap1\n      pop\n        /* \"#utility.yul\":525:558   */\n      tag_385\n        /* \"#utility.yul\":552:557   */\n      dup2\n        /* \"#utility.yul\":525:558   */\n      tag_386\n      jump\t// in\n    tag_385:\n        /* \"#utility.yul\":425:564   */\n      swap3\n      swap2\n      pop\n      pop\n      jump\t// out\n        /* \"#utility.yul\":584:924   */\n    tag_387:\n        /* \"#utility.yul\":640:645   */\n      0x00\n        /* \"#utility.yul\":689:692   */\n      dup3\n        /* \"#utility.yul\":682:686   */\n      0x1f\n        /* \"#utility.yul\":674:680   */\n      dup4\n        /* \"#utility.yul\":670:687   */\n      add\n        /* \"#utility.yul\":666:693   */\n      slt\n        /* \"#utility.yul\":656:778   */\n      tag_389\n      jumpi\n        /* \"#utility.yul\":697:776   */\n      tag_390\n      tag_391\n      jump\t// in\n    tag_390:\n        /* \"#utility.yul\":656:778   */\n    tag_389:\n        /* \"#utility.yul\":814:820   */\n      dup2\n        /* \"#utility.yul\":801:821   */\n      calldataload\n        /* \"#utility.yul\":839:918   */\n      tag_392\n        /* \"#utility.yul\":914:917   */\n      dup5\n        /* \"#utility.yul\":906:912   */\n      dup3\n        /* \"#utility.yul\":899:903   */\n      0x20\n        /* \"#utility.yul\":891:897   */\n      dup7\n        /* \"#utility.yul\":887:904   */\n      add\n        /* \"#utility.yul\":839:918   */\n      tag_372\n      jump\t// in\n    tag_392:\n        /* \"#utility.yul\":830:918   */\n      swap2\n      pop\n        /* \"#utility.yul\":646:924   */\n      pop\n        /* \"#utility.yul\":584:924   */\n      swap3\n      swap2\n      pop\n      pop\n      jump\t// out\n        /* \"#utility.yul\":930:1069   */\n    tag_393:\n        /* \"#utility.yul\":976:981   */\n      0x00\n        /* \"#utility.yul\":1014:1020   */\n      dup2\n        /* \"#utility.yul\":1001:1021   */\n      calldataload\n        /* \"#utility.yul\":992:1021   */\n      swap1\n      pop\n        /* \"#utility.yul\":1030:1063   */\n      tag_395\n        /* \"#utility.yul\":1057:1062   */\n      dup2\n        /* \"#utility.yul\":1030:1063   */\n      tag_396\n      jump\t// in\n    tag_395:\n        /* \"#utility.yul\":930:1069   */\n      swap3\n      swap2\n      pop\n      pop\n      jump\t// out\n        /* \"#utility.yul\":1075:1404   */\n    tag_50:\n        /* \"#utility.yul\":1134:1140   */\n      0x00\n        /* \"#utility.yul\":1183:1185   */\n      0x20\n        /* \"#utility.yul\":1171:1180   */\n      dup3\n        /* \"#utility.yul\":1162:1169   */\n      dup5\n        /* \"#utility.yul\":1158:1181   */\n      sub\n        /* \"#utility.yul\":1154:1186   */\n      slt\n        /* \"#utility.yul\":1151:1270   */\n      iszero\n      tag_398\n      jumpi\n        /* \"#utility.yul\":1189:1268   */\n      tag_399\n      tag_400\n      jump\t// in\n    tag_399:\n        /* \"#utility.yul\":1151:1270   */\n    tag_398:\n        /* \"#utility.yul\":1309:1310   */\n      0x00\n        /* \"#utility.yul\":1334:1387   */\n      tag_401\n        /* \"#utility.yul\":1379:1386   */\n      dup5\n        /* \"#utility.yul\":1370:1376   */\n      dup3\n        /* \"#utility.yul\":1359:1368   */\n      dup6\n        /* \"#utility.yul\":1355:1377   */\n      add\n        /* \"#utility.yul\":1334:1387   */\n      tag_383\n      jump\t// in\n    tag_401:\n        /* \"#utility.yul\":1324:1387   */\n      swap2\n      pop\n        /* \"#utility.yul\":1280:1397   */\n      pop\n        /* \"#utility.yul\":1075:1404   */\n      swap3\n      swap2\n      pop\n      pop\n      jump\t// out\n        /* \"#utility.yul\":1410:2029   */\n    tag_160:\n        /* \"#utility.yul\":1487:1493   */\n      0x00\n        /* \"#utility.yul\":1495:1501   */\n      dup1\n        /* \"#utility.yul\":1503:1509   */\n      0x00\n        /* \"#utility.yul\":1552:1554   */\n      0x60\n        /* \"#utility.yul\":1540:1549   */\n      dup5\n        /* \"#utility.yul\":1531:1538   */\n      dup7\n        /* \"#utility.yul\":1527:1550   */\n      sub\n        /* \"#utility.yul\":1523:1555   */\n      slt\n        /* \"#utility.yul\":1520:1639   */\n      iszero\n      tag_403\n      jumpi\n        /* \"#utility.yul\":1558:1637   */\n      tag_404\n      tag_400\n      jump\t// in\n    tag_404:\n        /* \"#utility.yul\":1520:1639   */\n    tag_403:\n        /* \"#utility.yul\":1678:1679   */\n      0x00\n        /* \"#utility.yul\":1703:1756   */\n      tag_405\n        /* \"#utility.yul\":1748:1755   */\n      dup7\n        /* \"#utility.yul\":1739:1745   */\n      dup3\n        /* \"#utility.yul\":1728:1737   */\n      dup8\n        /* \"#utility.yul\":1724:1746   */\n      add\n        /* \"#utility.yul\":1703:1756   */\n      tag_383\n      jump\t// in\n    tag_405:\n        /* \"#utility.yul\":1693:1756   */\n      swap4\n      pop\n        /* \"#utility.yul\":1649:1766   */\n      pop\n        /* \"#utility.yul\":1805:1807   */\n      0x20\n        /* \"#utility.yul\":1831:1884   */\n      tag_406\n        /* \"#utility.yul\":1876:1883   */\n      dup7\n        /* \"#utility.yul\":1867:1873   */\n      dup3\n        /* \"#utility.yul\":1856:1865   */\n      dup8\n        /* \"#utility.yul\":1852:1874   */\n      add\n        /* \"#utility.yul\":1831:1884   */\n      tag_383\n      jump\t// in\n    tag_406:\n        /* \"#utility.yul\":1821:1884   */\n      swap3\n      pop\n        /* \"#utility.yul\":1776:1894   */\n      pop\n        /* \"#utility.yul\":1933:1935   */\n      0x40\n        /* \"#utility.yul\":1959:2012   */\n      tag_407\n        /* \"#utility.yul\":2004:2011   */\n      dup7\n        /* \"#utility.yul\":1995:2001   */\n      dup3\n        /* \"#utility.yul\":1984:1993   */\n      dup8\n        /* \"#utility.yul\":1980:2002   */\n      add\n        /* \"#utility.yul\":1959:2012   */\n      tag_393\n      jump\t// in\n    tag_407:\n        /* \"#utility.yul\":1949:2012   */\n      swap2\n      pop\n        /* \"#utility.yul\":1904:2022   */\n      pop\n        /* \"#utility.yul\":1410:2029   */\n      swap3\n      pop\n      swap3\n      pop\n      swap3\n      jump\t// out\n        /* \"#utility.yul\":2035:2509   */\n    tag_77:\n        /* \"#utility.yul\":2103:2109   */\n      0x00\n        /* \"#utility.yul\":2111:2117   */\n      dup1\n        /* \"#utility.yul\":2160:2162   */\n      0x40\n        /* \"#utility.yul\":2148:2157   */\n      dup4\n        /* \"#utility.yul\":2139:2146   */\n      dup6\n        /* \"#utility.yul\":2135:2158   */\n      sub\n        /* \"#utility.yul\":2131:2163   */\n      slt\n        /* \"#utility.yul\":2128:2247   */\n      iszero\n      tag_409\n      jumpi\n        /* \"#utility.yul\":2166:2245   */\n      tag_410\n      tag_400\n      jump\t// in\n    tag_410:\n        /* \"#utility.yul\":2128:2247   */\n    tag_409:\n        /* \"#utility.yul\":2286:2287   */\n      0x00\n        /* \"#utility.yul\":2311:2364   */\n      tag_411\n        /* \"#utility.yul\":2356:2363   */\n      dup6\n        /* \"#utility.yul\":2347:2353   */\n      dup3\n        /* \"#utility.yul\":2336:2345   */\n      dup7\n        /* \"#utility.yul\":2332:2354   */\n      add\n        /* \"#utility.yul\":2311:2364   */\n      tag_383\n      jump\t// in\n    tag_411:\n        /* \"#utility.yul\":2301:2364   */\n      swap3\n      pop\n        /* \"#utility.yul\":2257:2374   */\n      pop\n        /* \"#utility.yul\":2413:2415   */\n      0x20\n        /* \"#utility.yul\":2439:2492   */\n      tag_412\n        /* \"#utility.yul\":2484:2491   */\n      dup6\n        /* \"#utility.yul\":2475:2481   */\n      dup3\n        /* \"#utility.yul\":2464:2473   */\n      dup7\n        /* \"#utility.yul\":2460:2482   */\n      add\n        /* \"#utility.yul\":2439:2492   */\n      tag_393\n      jump\t// in\n    tag_412:\n        /* \"#utility.yul\":2429:2492   */\n      swap2\n      pop\n        /* \"#utility.yul\":2384:2502   */\n      pop\n        /* \"#utility.yul\":2035:2509   */\n      swap3\n      pop\n      swap3\n      swap1\n      pop\n      jump\t// out\n        /* \"#utility.yul\":2515:3134   */\n    tag_125:\n        /* \"#utility.yul\":2592:2598   */\n      0x00\n        /* \"#utility.yul\":2600:2606   */\n      dup1\n        /* \"#utility.yul\":2608:2614   */\n      0x00\n        /* \"#utility.yul\":2657:2659   */\n      0x60\n        /* \"#utility.yul\":2645:2654   */\n      dup5\n        /* \"#utility.yul\":2636:2643   */\n      dup7\n        /* \"#utility.yul\":2632:2655   */\n      sub\n        /* \"#utility.yul\":2628:2660   */\n      slt\n        /* \"#utility.yul\":2625:2744   */\n      iszero\n      tag_414\n      jumpi\n        /* \"#utility.yul\":2663:2742   */\n      tag_415\n      tag_400\n      jump\t// in\n    tag_415:\n        /* \"#utility.yul\":2625:2744   */\n    tag_414:\n        /* \"#utility.yul\":2783:2784   */\n      0x00\n        /* \"#utility.yul\":2808:2861   */\n      tag_416\n        /* \"#utility.yul\":2853:2860   */\n      dup7\n        /* \"#utility.yul\":2844:2850   */\n      dup3\n        /* \"#utility.yul\":2833:2842   */\n      dup8\n        /* \"#utility.yul\":2829:2851   */\n      add\n        /* \"#utility.yul\":2808:2861   */\n      tag_383\n      jump\t// in\n    tag_416:\n        /* \"#utility.yul\":2798:2861   */\n      swap4\n      pop\n        /* \"#utility.yul\":2754:2871   */\n      pop\n        /* \"#utility.yul\":2910:2912   */\n      0x20\n        /* \"#utility.yul\":2936:2989   */\n      tag_417\n        /* \"#utility.yul\":2981:2988   */\n      dup7\n        /* \"#utility.yul\":2972:2978   */\n      dup3\n        /* \"#utility.yul\":2961:2970   */\n      dup8\n        /* \"#utility.yul\":2957:2979   */\n      add\n        /* \"#utility.yul\":2936:2989   */\n      tag_393\n      jump\t// in\n    tag_417:\n        /* \"#utility.yul\":2926:2989   */\n      swap3\n      pop\n        /* \"#utility.yul\":2881:2999   */\n      pop\n        /* \"#utility.yul\":3038:3040   */\n      0x40\n        /* \"#utility.yul\":3064:3117   */\n      tag_418\n        /* \"#utility.yul\":3109:3116   */\n      dup7\n        /* \"#utility.yul\":3100:3106   */\n      dup3\n        /* \"#utility.yul\":3089:3098   */\n      dup8\n        /* \"#utility.yul\":3085:3107   */\n      add\n        /* \"#utility.yul\":3064:3117   */\n      tag_383\n      jump\t// in\n    tag_418:\n        /* \"#utility.yul\":3054:3117   */\n      swap2\n      pop\n        /* \"#utility.yul\":3009:3127   */\n      pop\n        /* \"#utility.yul\":2515:3134   */\n      swap3\n      pop\n      swap3\n      pop\n      swap3\n      jump\t// out\n        /* \"#utility.yul\":3140:4737   */\n    tag_57:\n        /* \"#utility.yul\":3274:3280   */\n      0x00\n        /* \"#utility.yul\":3282:3288   */\n      dup1\n        /* \"#utility.yul\":3290:3296   */\n      0x00\n        /* \"#utility.yul\":3298:3304   */\n      dup1\n        /* \"#utility.yul\":3306:3312   */\n      0x00\n        /* \"#utility.yul\":3314:3320   */\n      dup1\n        /* \"#utility.yul\":3363:3366   */\n      0xc0\n        /* \"#utility.yul\":3351:3360   */\n      dup8\n        /* \"#utility.yul\":3342:3349   */\n      dup10\n        /* \"#utility.yul\":3338:3361   */\n      sub\n        /* \"#utility.yul\":3334:3367   */\n      slt\n        /* \"#utility.yul\":3331:3451   */\n      iszero\n      tag_420\n      jumpi\n        /* \"#utility.yul\":3370:3449   */\n      tag_421\n      tag_400\n      jump\t// in\n    tag_421:\n        /* \"#utility.yul\":3331:3451   */\n    tag_420:\n        /* \"#utility.yul\":3518:3519   */\n      0x00\n        /* \"#utility.yul\":3507:3516   */\n      dup8\n        /* \"#utility.yul\":3503:3520   */\n      add\n        /* \"#utility.yul\":3490:3521   */\n      calldataload\n        /* \"#utility.yul\":3548:3566   */\n      0xffffffffffffffff\n        /* \"#utility.yul\":3540:3546   */\n      dup2\n        /* \"#utility.yul\":3537:3567   */\n      gt\n        /* \"#utility.yul\":3534:3651   */\n      iszero\n      tag_422\n      jumpi\n        /* \"#utility.yul\":3570:3649   */\n      tag_423\n      tag_424\n      jump\t// in\n    tag_423:\n        /* \"#utility.yul\":3534:3651   */\n    tag_422:\n        /* \"#utility.yul\":3675:3738   */\n      tag_425\n        /* \"#utility.yul\":3730:3737   */\n      dup10\n        /* \"#utility.yul\":3721:3727   */\n      dup3\n        /* \"#utility.yul\":3710:3719   */\n      dup11\n        /* \"#utility.yul\":3706:3728   */\n      add\n        /* \"#utility.yul\":3675:3738   */\n      tag_387\n      jump\t// in\n    tag_425:\n        /* \"#utility.yul\":3665:3738   */\n      swap7\n      pop\n        /* \"#utility.yul\":3461:3748   */\n      pop\n        /* \"#utility.yul\":3787:3789   */\n      0x20\n        /* \"#utility.yul\":3813:3866   */\n      tag_426\n        /* \"#utility.yul\":3858:3865   */\n      dup10\n        /* \"#utility.yul\":3849:3855   */\n      dup3\n        /* \"#utility.yul\":3838:3847   */\n      dup11\n        /* \"#utility.yul\":3834:3856   */\n      add\n        /* \"#utility.yul\":3813:3866   */\n      tag_393\n      jump\t// in\n    tag_426:\n        /* \"#utility.yul\":3803:3866   */\n      swap6\n      pop\n        /* \"#utility.yul\":3758:3876   */\n      pop\n        /* \"#utility.yul\":3915:3917   */\n      0x40\n        /* \"#utility.yul\":3941:3994   */\n      tag_427\n        /* \"#utility.yul\":3986:3993   */\n      dup10\n        /* \"#utility.yul\":3977:3983   */\n      dup3\n        /* \"#utility.yul\":3966:3975   */\n      dup11\n        /* \"#utility.yul\":3962:3984   */\n      add\n        /* \"#utility.yul\":3941:3994   */\n      tag_393\n      jump\t// in\n    tag_427:\n        /* \"#utility.yul\":3931:3994   */\n      swap5\n      pop\n        /* \"#utility.yul\":3886:4004   */\n      pop\n        /* \"#utility.yul\":4043:4045   */\n      0x60\n        /* \"#utility.yul\":4069:4122   */\n      tag_428\n        /* \"#utility.yul\":4114:4121   */\n      dup10\n        /* \"#utility.yul\":4105:4111   */\n      dup3\n        /* \"#utility.yul\":4094:4103   */\n      dup11\n        /* \"#utility.yul\":4090:4112   */\n      add\n        /* \"#utility.yul\":4069:4122   */\n      tag_393\n      jump\t// in\n    tag_428:\n        /* \"#utility.yul\":4059:4122   */\n      swap4\n      pop\n        /* \"#utility.yul\":4014:4132   */\n      pop\n        /* \"#utility.yul\":4199:4202   */\n      0x80\n        /* \"#utility.yul\":4188:4197   */\n      dup8\n        /* \"#utility.yul\":4184:4203   */\n      add\n        /* \"#utility.yul\":4171:4204   */\n      calldataload\n        /* \"#utility.yul\":4231:4249   */\n      0xffffffffffffffff\n        /* \"#utility.yul\":4223:4229   */\n      dup2\n        /* \"#utility.yul\":4220:4250   */\n      gt\n        /* \"#utility.yul\":4217:4334   */\n      iszero\n      tag_429\n      jumpi\n        /* \"#utility.yul\":4253:4332   */\n      tag_430\n      tag_424\n      jump\t// in\n    tag_430:\n        /* \"#utility.yul\":4217:4334   */\n    tag_429:\n        /* \"#utility.yul\":4358:4421   */\n      tag_431\n        /* \"#utility.yul\":4413:4420   */\n      dup10\n        /* \"#utility.yul\":4404:4410   */\n      dup3\n        /* \"#utility.yul\":4393:4402   */\n      dup11\n        /* \"#utility.yul\":4389:4411   */\n      add\n        /* \"#utility.yul\":4358:4421   */\n      tag_387\n      jump\t// in\n    tag_431:\n        /* \"#utility.yul\":4348:4421   */\n      swap3\n      pop\n        /* \"#utility.yul\":4142:4431   */\n      pop\n        /* \"#utility.yul\":4498:4501   */\n      0xa0\n        /* \"#utility.yul\":4487:4496   */\n      dup8\n        /* \"#utility.yul\":4483:4502   */\n      add\n        /* \"#utility.yul\":4470:4503   */\n      calldataload\n        /* \"#utility.yul\":4530:4548   */\n      0xffffffffffffffff\n        /* \"#utility.yul\":4522:4528   */\n      dup2\n        /* \"#utility.yul\":4519:4549   */\n      gt\n        /* \"#utility.yul\":4516:4633   */\n      iszero\n      tag_432\n      jumpi\n        /* \"#utility.yul\":4552:4631   */\n      tag_433\n      tag_424\n      jump\t// in\n    tag_433:\n        /* \"#utility.yul\":4516:4633   */\n    tag_432:\n        /* \"#utility.yul\":4657:4720   */\n      tag_434\n        /* \"#utility.yul\":4712:4719   */\n      dup10\n        /* \"#utility.yul\":4703:4709   */\n      dup3\n        /* \"#utility.yul\":4692:4701   */\n      dup11\n        /* \"#utility.yul\":4688:4710   */\n      add\n        /* \"#utility.yul\":4657:4720   */\n      tag_387\n      jump\t// in\n    tag_434:\n        /* \"#utility.yul\":4647:4720   */\n      swap2\n      pop\n        /* \"#utility.yul\":4441:4730   */\n      pop\n        /* \"#utility.yul\":3140:4737   */\n      swap3\n      swap6\n      pop\n      swap3\n      swap6\n      pop\n      swap3\n      swap6\n      jump\t// out\n        /* \"#utility.yul\":4743:5072   */\n    tag_36:\n        /* \"#utility.yul\":4802:4808   */\n      0x00\n        /* \"#utility.yul\":4851:4853   */\n      0x20\n        /* \"#utility.yul\":4839:4848   */\n      dup3\n        /* \"#utility.yul\":4830:4837   */\n      dup5\n        /* \"#utility.yul\":4826:4849   */\n      sub\n        /* \"#utility.yul\":4822:4854   */\n      slt\n        /* \"#utility.yul\":4819:4938   */\n      iszero\n      tag_436\n      jumpi\n        /* \"#utility.yul\":4857:4936   */\n      tag_437\n      tag_400\n      jump\t// in\n    tag_437:\n        /* \"#utility.yul\":4819:4938   */\n    tag_436:\n        /* \"#utility.yul\":4977:4978   */\n      0x00\n        /* \"#utility.yul\":5002:5055   */\n      tag_438\n        /* \"#utility.yul\":5047:5054   */\n      dup5\n        /* \"#utility.yul\":5038:5044   */\n      dup3\n        /* \"#utility.yul\":5027:5036   */\n      dup6\n        /* \"#utility.yul\":5023:5045   */\n      add\n        /* \"#utility.yul\":5002:5055   */\n      tag_393\n      jump\t// in\n    tag_438:\n        /* \"#utility.yul\":4992:5055   */\n      swap2\n      pop\n        /* \"#utility.yul\":4948:5065   */\n      pop\n        /* \"#utility.yul\":4743:5072   */\n      swap3\n      swap2\n      pop\n      pop\n      jump\t// out\n        /* \"#utility.yul\":5078:5552   */\n    tag_70:\n        /* \"#utility.yul\":5146:5152   */\n      0x00\n        /* \"#utility.yul\":5154:5160   */\n      dup1\n        /* \"#utility.yul\":5203:5205   */\n      0x40\n        /* \"#utility.yul\":5191:5200   */\n      dup4\n        /* \"#utility.yul\":5182:5189   */\n      dup6\n        /* \"#utility.yul\":5178:5201   */\n      sub\n        /* \"#utility.yul\":5174:5206   */\n      slt\n        /* \"#utility.yul\":5171:5290   */\n      iszero\n      tag_440\n      jumpi\n        /* \"#utility.yul\":5209:5288   */\n      tag_441\n      tag_400\n      jump\t// in\n    tag_441:\n        /* \"#utility.yul\":5171:5290   */\n    tag_440:\n        /* \"#utility.yul\":5329:5330   */\n      0x00\n        /* \"#utility.yul\":5354:5407   */\n      tag_442\n        /* \"#utility.yul\":5399:5406   */\n      dup6\n        /* \"#utility.yul\":5390:5396   */\n      dup3\n        /* \"#utility.yul\":5379:5388   */\n      dup7\n        /* \"#utility.yul\":5375:5397   */\n      add\n        /* \"#utility.yul\":5354:5407   */\n      tag_393\n      jump\t// in\n    tag_442:\n        /* \"#utility.yul\":5344:5407   */\n      swap3\n      pop\n        /* \"#utility.yul\":5300:5417   */\n      pop\n        /* \"#utility.yul\":5456:5458   */\n      0x20\n        /* \"#utility.yul\":5482:5535   */\n      tag_443\n        /* \"#utility.yul\":5527:5534   */\n      dup6\n        /* \"#utility.yul\":5518:5524   */\n      dup3\n        /* \"#utility.yul\":5507:5516   */\n      dup7\n        /* \"#utility.yul\":5503:5525   */\n      add\n        /* \"#utility.yul\":5482:5535   */\n      tag_383\n      jump\t// in\n    tag_443:\n        /* \"#utility.yul\":5472:5535   */\n      swap2\n      pop\n        /* \"#utility.yul\":5427:5545   */\n      pop\n        /* \"#utility.yul\":5078:5552   */\n      swap3\n      pop\n      swap3\n      swap1\n      pop\n      jump\t// out\n        /* \"#utility.yul\":5558:6177   */\n    tag_136:\n        /* \"#utility.yul\":5635:5641   */\n      0x00\n        /* \"#utility.yul\":5643:5649   */\n      dup1\n        /* \"#utility.yul\":5651:5657   */\n      0x00\n        /* \"#utility.yul\":5700:5702   */\n      0x60\n        /* \"#utility.yul\":5688:5697   */\n      dup5\n        /* \"#utility.yul\":5679:5686   */\n      dup7\n        /* \"#utility.yul\":5675:5698   */\n      sub\n        /* \"#utility.yul\":5671:5703   */\n      slt\n        /* \"#utility.yul\":5668:5787   */\n      iszero\n      tag_445\n      jumpi\n        /* \"#utility.yul\":5706:5785   */\n      tag_446\n      tag_400\n      jump\t// in\n    tag_446:\n        /* \"#utility.yul\":5668:5787   */\n    tag_445:\n        /* \"#utility.yul\":5826:5827   */\n      0x00\n        /* \"#utility.yul\":5851:5904   */\n      tag_447\n        /* \"#utility.yul\":5896:5903   */\n      dup7\n        /* \"#utility.yul\":5887:5893   */\n      dup3\n        /* \"#utility.yul\":5876:5885   */\n      dup8\n        /* \"#utility.yul\":5872:5894   */\n      add\n        /* \"#utility.yul\":5851:5904   */\n      tag_393\n      jump\t// in\n    tag_447:\n        /* \"#utility.yul\":5841:5904   */\n      swap4\n      pop\n        /* \"#utility.yul\":5797:5914   */\n      pop\n        /* \"#utility.yul\":5953:5955   */\n      0x20\n        /* \"#utility.yul\":5979:6032   */\n      tag_448\n        /* \"#utility.yul\":6024:6031   */\n      dup7\n        /* \"#utility.yul\":6015:6021   */\n      dup3\n        /* \"#utility.yul\":6004:6013   */\n      dup8\n        /* \"#utility.yul\":6000:6022   */\n      add\n        /* \"#utility.yul\":5979:6032   */\n      tag_383\n      jump\t// in\n    tag_448:\n        /* \"#utility.yul\":5969:6032   */\n      swap3\n      pop\n        /* \"#utility.yul\":5924:6042   */\n      pop\n        /* \"#utility.yul\":6081:6083   */\n      0x40\n        /* \"#utility.yul\":6107:6160   */\n      tag_449\n        /* \"#utility.yul\":6152:6159   */\n      dup7\n        /* \"#utility.yul\":6143:6149   */\n      dup3\n        /* \"#utility.yul\":6132:6141   */\n      dup8\n        /* \"#utility.yul\":6128:6150   */\n      add\n        /* \"#utility.yul\":6107:6160   */\n      tag_383\n      jump\t// in\n    tag_449:\n        /* \"#utility.yul\":6097:6160   */\n      swap2\n      pop\n        /* \"#utility.yul\":6052:6170   */\n      pop\n        /* \"#utility.yul\":5558:6177   */\n      swap3\n      pop\n      swap3\n      pop\n      swap3\n      jump\t// out\n        /* \"#utility.yul\":6183:6948   */\n    tag_120:\n        /* \"#utility.yul\":6269:6275   */\n      0x00\n        /* \"#utility.yul\":6277:6283   */\n      dup1\n        /* \"#utility.yul\":6285:6291   */\n      0x00\n        /* \"#utility.yul\":6293:6299   */\n      dup1\n        /* \"#utility.yul\":6342:6345   */\n      0x80\n        /* \"#utility.yul\":6330:6339   */\n      dup6\n        /* \"#utility.yul\":6321:6328   */\n      dup8\n        /* \"#utility.yul\":6317:6340   */\n      sub\n        /* \"#utility.yul\":6313:6346   */\n      slt\n        /* \"#utility.yul\":6310:6430   */\n      iszero\n      tag_451\n      jumpi\n        /* \"#utility.yul\":6349:6428   */\n      tag_452\n      tag_400\n      jump\t// in\n    tag_452:\n        /* \"#utility.yul\":6310:6430   */\n    tag_451:\n        /* \"#utility.yul\":6469:6470   */\n      0x00\n        /* \"#utility.yul\":6494:6547   */\n      tag_453\n        /* \"#utility.yul\":6539:6546   */\n      dup8\n        /* \"#utility.yul\":6530:6536   */\n      dup3\n        /* \"#utility.yul\":6519:6528   */\n      dup9\n        /* \"#utility.yul\":6515:6537   */\n      add\n        /* \"#utility.yul\":6494:6547   */\n      tag_393\n      jump\t// in\n    tag_453:\n        /* \"#utility.yul\":6484:6547   */\n      swap5\n      pop\n        /* \"#utility.yul\":6440:6557   */\n      pop\n        /* \"#utility.yul\":6596:6598   */\n      0x20\n        /* \"#utility.yul\":6622:6675   */\n      tag_454\n        /* \"#utility.yul\":6667:6674   */\n      dup8\n        /* \"#utility.yul\":6658:6664   */\n      dup3\n        /* \"#utility.yul\":6647:6656   */\n      dup9\n        /* \"#utility.yul\":6643:6665   */\n      add\n        /* \"#utility.yul\":6622:6675   */\n      tag_383\n      jump\t// in\n    tag_454:\n        /* \"#utility.yul\":6612:6675   */\n      swap4\n      pop\n        /* \"#utility.yul\":6567:6685   */\n      pop\n        /* \"#utility.yul\":6724:6726   */\n      0x40\n        /* \"#utility.yul\":6750:6803   */\n      tag_455\n        /* \"#utility.yul\":6795:6802   */\n      dup8\n        /* \"#utility.yul\":6786:6792   */\n      dup3\n        /* \"#utility.yul\":6775:6784   */\n      dup9\n        /* \"#utility.yul\":6771:6793   */\n      add\n        /* \"#utility.yul\":6750:6803   */\n      tag_383\n      jump\t// in\n    tag_455:\n        /* \"#utility.yul\":6740:6803   */\n      swap3\n      pop\n        /* \"#utility.yul\":6695:6813   */\n      pop\n        /* \"#utility.yul\":6852:6854   */\n      0x60\n        /* \"#utility.yul\":6878:6931   */\n      tag_456\n        /* \"#utility.yul\":6923:6930   */\n      dup8\n        /* \"#utility.yul\":6914:6920   */\n      dup3\n        /* \"#utility.yul\":6903:6912   */\n      dup9\n        /* \"#utility.yul\":6899:6921   */\n      add\n        /* \"#utility.yul\":6878:6931   */\n      tag_393\n      jump\t// in\n    tag_456:\n        /* \"#utility.yul\":6868:6931   */\n      swap2\n      pop\n        /* \"#utility.yul\":6823:6941   */\n      pop\n        /* \"#utility.yul\":6183:6948   */\n      swap3\n      swap6\n      swap2\n      swap5\n      pop\n      swap3\n      pop\n      jump\t// out\n        /* \"#utility.yul\":6954:7428   */\n    tag_43:\n        /* \"#utility.yul\":7022:7028   */\n      0x00\n        /* \"#utility.yul\":7030:7036   */\n      dup1\n        /* \"#utility.yul\":7079:7081   */\n      0x40\n        /* \"#utility.yul\":7067:7076   */\n      dup4\n        /* \"#utility.yul\":7058:7065   */\n      dup6\n        /* \"#utility.yul\":7054:7077   */\n      sub\n        /* \"#utility.yul\":7050:7082   */\n      slt\n        /* \"#utility.yul\":7047:7166   */\n      iszero\n      tag_458\n      jumpi\n        /* \"#utility.yul\":7085:7164   */\n      tag_459\n      tag_400\n      jump\t// in\n    tag_459:\n        /* \"#utility.yul\":7047:7166   */\n    tag_458:\n        /* \"#utility.yul\":7205:7206   */\n      0x00\n        /* \"#utility.yul\":7230:7283   */\n      tag_460\n        /* \"#utility.yul\":7275:7282   */\n      dup6\n        /* \"#utility.yul\":7266:7272   */\n      dup3\n        /* \"#utility.yul\":7255:7264   */\n      dup7\n        /* \"#utility.yul\":7251:7273   */\n      add\n        /* \"#utility.yul\":7230:7283   */\n      tag_393\n      jump\t// in\n    tag_460:\n        /* \"#utility.yul\":7220:7283   */\n      swap3\n      pop\n        /* \"#utility.yul\":7176:7293   */\n      pop\n        /* \"#utility.yul\":7332:7334   */\n      0x20\n        /* \"#utility.yul\":7358:7411   */\n      tag_461\n        /* \"#utility.yul\":7403:7410   */\n      dup6\n        /* \"#utility.yul\":7394:7400   */\n      dup3\n        /* \"#utility.yul\":7383:7392   */\n      dup7\n        /* \"#utility.yul\":7379:7401   */\n      add\n        /* \"#utility.yul\":7358:7411   */\n      tag_393\n      jump\t// in\n    tag_461:\n        /* \"#utility.yul\":7348:7411   */\n      swap2\n      pop\n        /* \"#utility.yul\":7303:7421   */\n      pop\n        /* \"#utility.yul\":6954:7428   */\n      swap3\n      pop\n      swap3\n      swap1\n      pop\n      jump\t// out\n        /* \"#utility.yul\":7434:8379   */\n    tag_83:\n        /* \"#utility.yul\":7530:7536   */\n      0x00\n        /* \"#utility.yul\":7538:7544   */\n      dup1\n        /* \"#utility.yul\":7546:7552   */\n      0x00\n        /* \"#utility.yul\":7554:7560   */\n      dup1\n        /* \"#utility.yul\":7603:7606   */\n      0x80\n        /* \"#utility.yul\":7591:7600   */\n      dup6\n        /* \"#utility.yul\":7582:7589   */\n      dup8\n        /* \"#utility.yul\":7578:7601   */\n      sub\n        /* \"#utility.yul\":7574:7607   */\n      slt\n        /* \"#utility.yul\":7571:7691   */\n      iszero\n      tag_463\n      jumpi\n        /* \"#utility.yul\":7610:7689   */\n      tag_464\n      tag_400\n      jump\t// in\n    tag_464:\n        /* \"#utility.yul\":7571:7691   */\n    tag_463:\n        /* \"#utility.yul\":7730:7731   */\n      0x00\n        /* \"#utility.yul\":7755:7808   */\n      tag_465\n        /* \"#utility.yul\":7800:7807   */\n      dup8\n        /* \"#utility.yul\":7791:7797   */\n      dup3\n        /* \"#utility.yul\":7780:7789   */\n      dup9\n        /* \"#utility.yul\":7776:7798   */\n      add\n        /* \"#utility.yul\":7755:7808   */\n      tag_393\n      jump\t// in\n    tag_465:\n        /* \"#utility.yul\":7745:7808   */\n      swap5\n      pop\n        /* \"#utility.yul\":7701:7818   */\n      pop\n        /* \"#utility.yul\":7857:7859   */\n      0x20\n        /* \"#utility.yul\":7883:7936   */\n      tag_466\n        /* \"#utility.yul\":7928:7935   */\n      dup8\n        /* \"#utility.yul\":7919:7925   */\n      dup3\n        /* \"#utility.yul\":7908:7917   */\n      dup9\n        /* \"#utility.yul\":7904:7926   */\n      add\n        /* \"#utility.yul\":7883:7936   */\n      tag_393\n      jump\t// in\n    tag_466:\n        /* \"#utility.yul\":7873:7936   */\n      swap4\n      pop\n        /* \"#utility.yul\":7828:7946   */\n      pop\n        /* \"#utility.yul\":8013:8015   */\n      0x40\n        /* \"#utility.yul\":8002:8011   */\n      dup6\n        /* \"#utility.yul\":7998:8016   */\n      add\n        /* \"#utility.yul\":7985:8017   */\n      calldataload\n        /* \"#utility.yul\":8044:8062   */\n      0xffffffffffffffff\n        /* \"#utility.yul\":8036:8042   */\n      dup2\n        /* \"#utility.yul\":8033:8063   */\n      gt\n        /* \"#utility.yul\":8030:8147   */\n      iszero\n      tag_467\n      jumpi\n        /* \"#utility.yul\":8066:8145   */\n      tag_468\n      tag_424\n      jump\t// in\n    tag_468:\n        /* \"#utility.yul\":8030:8147   */\n    tag_467:\n        /* \"#utility.yul\":8171:8234   */\n      tag_469\n        /* \"#utility.yul\":8226:8233   */\n      dup8\n        /* \"#utility.yul\":8217:8223   */\n      dup3\n        /* \"#utility.yul\":8206:8215   */\n      dup9\n        /* \"#utility.yul\":8202:8224   */\n      add\n        /* \"#utility.yul\":8171:8234   */\n      tag_387\n      jump\t// in\n    tag_469:\n        /* \"#utility.yul\":8161:8234   */\n      swap3\n      pop\n        /* \"#utility.yul\":7956:8244   */\n      pop\n        /* \"#utility.yul\":8283:8285   */\n      0x60\n        /* \"#utility.yul\":8309:8362   */\n      tag_470\n        /* \"#utility.yul\":8354:8361   */\n      dup8\n        /* \"#utility.yul\":8345:8351   */\n      dup3\n        /* \"#utility.yul\":8334:8343   */\n      dup9\n        /* \"#utility.yul\":8330:8352   */\n      add\n        /* \"#utility.yul\":8309:8362   */\n      tag_393\n      jump\t// in\n    tag_470:\n        /* \"#utility.yul\":8299:8362   */\n      swap2\n      pop\n        /* \"#utility.yul\":8254:8372   */\n      pop\n        /* \"#utility.yul\":7434:8379   */\n      swap3\n      swap6\n      swap2\n      swap5\n      pop\n      swap3\n      pop\n      jump\t// out\n        /* \"#utility.yul\":8385:8633   */\n    tag_471:\n        /* \"#utility.yul\":8500:8510   */\n      0x00\n        /* \"#utility.yul\":8535:8627   */\n      tag_473\n        /* \"#utility.yul\":8623:8626   */\n      dup4\n        /* \"#utility.yul\":8615:8621   */\n      dup4\n        /* \"#utility.yul\":8535:8627   */\n      tag_474\n      jump\t// in\n    tag_473:\n        /* \"#utility.yul\":8521:8627   */\n      swap1\n      pop\n        /* \"#utility.yul\":8385:8633   */\n      swap3\n      swap2\n      pop\n      pop\n      jump\t// out\n        /* \"#utility.yul\":8639:8887   */\n    tag_475:\n        /* \"#utility.yul\":8754:8764   */\n      0x00\n        /* \"#utility.yul\":8789:8881   */\n      tag_477\n        /* \"#utility.yul\":8877:8880   */\n      dup4\n        /* \"#utility.yul\":8869:8875   */\n      dup4\n        /* \"#utility.yul\":8789:8881   */\n      tag_478\n      jump\t// in\n    tag_477:\n        /* \"#utility.yul\":8775:8881   */\n      swap1\n      pop\n        /* \"#utility.yul\":8639:8887   */\n      swap3\n      swap2\n      pop\n      pop\n      jump\t// out\n        /* \"#utility.yul\":8893:9001   */\n    tag_479:\n        /* \"#utility.yul\":8970:8994   */\n      tag_481\n        /* \"#utility.yul\":8988:8993   */\n      dup2\n        /* \"#utility.yul\":8970:8994   */\n      tag_482\n      jump\t// in\n    tag_481:\n        /* \"#utility.yul\":8965:8968   */\n      dup3\n        /* \"#utility.yul\":8958:8995   */\n      mstore\n        /* \"#utility.yul\":8893:9001   */\n      pop\n      pop\n      jump\t// out\n        /* \"#utility.yul\":9007:9125   */\n    tag_483:\n        /* \"#utility.yul\":9094:9118   */\n      tag_485\n        /* \"#utility.yul\":9112:9117   */\n      dup2\n        /* \"#utility.yul\":9094:9118   */\n      tag_482\n      jump\t// in\n    tag_485:\n        /* \"#utility.yul\":9089:9092   */\n      dup3\n        /* \"#utility.yul\":9082:9119   */\n      mstore\n        /* \"#utility.yul\":9007:9125   */\n      pop\n      pop\n      jump\t// out\n        /* \"#utility.yul\":9189:10284   */\n    tag_486:\n        /* \"#utility.yul\":9354:9357   */\n      0x00\n        /* \"#utility.yul\":9383:9460   */\n      tag_488\n        /* \"#utility.yul\":9454:9459   */\n      dup3\n        /* \"#utility.yul\":9383:9460   */\n      tag_489\n      jump\t// in\n    tag_488:\n        /* \"#utility.yul\":9476:9585   */\n      tag_490\n        /* \"#utility.yul\":9578:9584   */\n      dup2\n        /* \"#utility.yul\":9573:9576   */\n      dup6\n        /* \"#utility.yul\":9476:9585   */\n      tag_491\n      jump\t// in\n    tag_490:\n        /* \"#utility.yul\":9469:9585   */\n      swap4\n      pop\n        /* \"#utility.yul\":9611:9614   */\n      dup4\n        /* \"#utility.yul\":9656:9660   */\n      0x20\n        /* \"#utility.yul\":9648:9654   */\n      dup3\n        /* \"#utility.yul\":9644:9661   */\n      mul\n        /* \"#utility.yul\":9639:9642   */\n      dup6\n        /* \"#utility.yul\":9635:9662   */\n      add\n        /* \"#utility.yul\":9686:9765   */\n      tag_492\n        /* \"#utility.yul\":9759:9764   */\n      dup6\n        /* \"#utility.yul\":9686:9765   */\n      tag_493\n      jump\t// in\n    tag_492:\n        /* \"#utility.yul\":9788:9795   */\n      dup1\n        /* \"#utility.yul\":9819:9820   */\n      0x00\n        /* \"#utility.yul\":9804:10239   */\n    tag_494:\n        /* \"#utility.yul\":9829:9835   */\n      dup6\n        /* \"#utility.yul\":9826:9827   */\n      dup2\n        /* \"#utility.yul\":9823:9836   */\n      lt\n        /* \"#utility.yul\":9804:10239   */\n      iszero\n      tag_496\n      jumpi\n        /* \"#utility.yul\":9900:9909   */\n      dup5\n        /* \"#utility.yul\":9894:9898   */\n      dup5\n        /* \"#utility.yul\":9890:9910   */\n      sub\n        /* \"#utility.yul\":9885:9888   */\n      dup10\n        /* \"#utility.yul\":9878:9911   */\n      mstore\n        /* \"#utility.yul\":9951:9957   */\n      dup2\n        /* \"#utility.yul\":9945:9958   */\n      mload\n        /* \"#utility.yul\":9979:10089   */\n      tag_497\n        /* \"#utility.yul\":10084:10088   */\n      dup6\n        /* \"#utility.yul\":10069:10082   */\n      dup3\n        /* \"#utility.yul\":9979:10089   */\n      tag_471\n      jump\t// in\n    tag_497:\n        /* \"#utility.yul\":9971:10089   */\n      swap5\n      pop\n        /* \"#utility.yul\":10112:10195   */\n      tag_498\n        /* \"#utility.yul\":10188:10194   */\n      dup4\n        /* \"#utility.yul\":10112:10195   */\n      tag_499\n      jump\t// in\n    tag_498:\n        /* \"#utility.yul\":10102:10195   */\n      swap3\n      pop\n        /* \"#utility.yul\":10224:10228   */\n      0x20\n        /* \"#utility.yul\":10219:10222   */\n      dup11\n        /* \"#utility.yul\":10215:10229   */\n      add\n        /* \"#utility.yul\":10208:10229   */\n      swap10\n      pop\n        /* \"#utility.yul\":9864:10239   */\n      pop\n        /* \"#utility.yul\":9851:9852   */\n      0x01\n        /* \"#utility.yul\":9848:9849   */\n      dup2\n        /* \"#utility.yul\":9844:9853   */\n      add\n        /* \"#utility.yul\":9839:9853   */\n      swap1\n      pop\n        /* \"#utility.yul\":9804:10239   */\n      jump(tag_494)\n    tag_496:\n        /* \"#utility.yul\":9808:9822   */\n      pop\n        /* \"#utility.yul\":10255:10259   */\n      dup3\n        /* \"#utility.yul\":10248:10259   */\n      swap8\n      pop\n        /* \"#utility.yul\":10275:10278   */\n      dup8\n        /* \"#utility.yul\":10268:10278   */\n      swap6\n      pop\n        /* \"#utility.yul\":9359:10284   */\n      pop\n      pop\n      pop\n      pop\n      pop\n        /* \"#utility.yul\":9189:10284   */\n      swap3\n      swap2\n      pop\n      pop\n      jump\t// out\n        /* \"#utility.yul\":10348:11443   */\n    tag_500:\n        /* \"#utility.yul\":10513:10516   */\n      0x00\n        /* \"#utility.yul\":10542:10619   */\n      tag_502\n        /* \"#utility.yul\":10613:10618   */\n      dup3\n        /* \"#utility.yul\":10542:10619   */\n      tag_503\n      jump\t// in\n    tag_502:\n        /* \"#utility.yul\":10635:10744   */\n      tag_504\n        /* \"#utility.yul\":10737:10743   */\n      dup2\n        /* \"#utility.yul\":10732:10735   */\n      dup6\n        /* \"#utility.yul\":10635:10744   */\n      tag_505\n      jump\t// in\n    tag_504:\n        /* \"#utility.yul\":10628:10744   */\n      swap4\n      pop\n        /* \"#utility.yul\":10770:10773   */\n      dup4\n        /* \"#utility.yul\":10815:10819   */\n      0x20\n        /* \"#utility.yul\":10807:10813   */\n      dup3\n        /* \"#utility.yul\":10803:10820   */\n      mul\n        /* \"#utility.yul\":10798:10801   */\n      dup6\n        /* \"#utility.yul\":10794:10821   */\n      add\n        /* \"#utility.yul\":10845:10924   */\n      tag_506\n        /* \"#utility.yul\":10918:10923   */\n      dup6\n        /* \"#utility.yul\":10845:10924   */\n      tag_507\n      jump\t// in\n    tag_506:\n        /* \"#utility.yul\":10947:10954   */\n      dup1\n        /* \"#utility.yul\":10978:10979   */\n      0x00\n        /* \"#utility.yul\":10963:11398   */\n    tag_508:\n        /* \"#utility.yul\":10988:10994   */\n      dup6\n        /* \"#utility.yul\":10985:10986   */\n      dup2\n        /* \"#utility.yul\":10982:10995   */\n      lt\n        /* \"#utility.yul\":10963:11398   */\n      iszero\n      tag_510\n      jumpi\n        /* \"#utility.yul\":11059:11068   */\n      dup5\n        /* \"#utility.yul\":11053:11057   */\n      dup5\n        /* \"#utility.yul\":11049:11069   */\n      sub\n        /* \"#utility.yul\":11044:11047   */\n      dup10\n        /* \"#utility.yul\":11037:11070   */\n      mstore\n        /* \"#utility.yul\":11110:11116   */\n      dup2\n        /* \"#utility.yul\":11104:11117   */\n      mload\n        /* \"#utility.yul\":11138:11248   */\n      tag_511\n        /* \"#utility.yul\":11243:11247   */\n      dup6\n        /* \"#utility.yul\":11228:11241   */\n      dup3\n        /* \"#utility.yul\":11138:11248   */\n      tag_475\n      jump\t// in\n    tag_511:\n        /* \"#utility.yul\":11130:11248   */\n      swap5\n      pop\n        /* \"#utility.yul\":11271:11354   */\n      tag_512\n        /* \"#utility.yul\":11347:11353   */\n      dup4\n        /* \"#utility.yul\":11271:11354   */\n      tag_513\n      jump\t// in\n    tag_512:\n        /* \"#utility.yul\":11261:11354   */\n      swap3\n      pop\n        /* \"#utility.yul\":11383:11387   */\n      0x20\n        /* \"#utility.yul\":11378:11381   */\n      dup11\n        /* \"#utility.yul\":11374:11388   */\n      add\n        /* \"#utility.yul\":11367:11388   */\n      swap10\n      pop\n        /* \"#utility.yul\":11023:11398   */\n      pop\n        /* \"#utility.yul\":11010:11011   */\n      0x01\n        /* \"#utility.yul\":11007:11008   */\n      dup2\n        /* \"#utility.yul\":11003:11012   */\n      add\n        /* \"#utility.yul\":10998:11012   */\n      swap1\n      pop\n        /* \"#utility.yul\":10963:11398   */\n      jump(tag_508)\n    tag_510:\n        /* \"#utility.yul\":10967:10981   */\n      pop\n        /* \"#utility.yul\":11414:11418   */\n      dup3\n        /* \"#utility.yul\":11407:11418   */\n      swap8\n      pop\n        /* \"#utility.yul\":11434:11437   */\n      dup8\n        /* \"#utility.yul\":11427:11437   */\n      swap6\n      pop\n        /* \"#utility.yul\":10518:11443   */\n      pop\n      pop\n      pop\n      pop\n      pop\n        /* \"#utility.yul\":10348:11443   */\n      swap3\n      swap2\n      pop\n      pop\n      jump\t// out\n        /* \"#utility.yul\":11449:11558   */\n    tag_514:\n        /* \"#utility.yul\":11530:11551   */\n      tag_516\n        /* \"#utility.yul\":11545:11550   */\n      dup2\n        /* \"#utility.yul\":11530:11551   */\n      tag_517\n      jump\t// in\n    tag_516:\n        /* \"#utility.yul\":11525:11528   */\n      dup3\n        /* \"#utility.yul\":11518:11552   */\n      mstore\n        /* \"#utility.yul\":11449:11558   */\n      pop\n      pop\n      jump\t// out\n        /* \"#utility.yul\":11564:11908   */\n    tag_518:\n        /* \"#utility.yul\":11642:11645   */\n      0x00\n        /* \"#utility.yul\":11670:11709   */\n      tag_520\n        /* \"#utility.yul\":11703:11708   */\n      dup3\n        /* \"#utility.yul\":11670:11709   */\n      tag_521\n      jump\t// in\n    tag_520:\n        /* \"#utility.yul\":11725:11786   */\n      tag_522\n        /* \"#utility.yul\":11779:11785   */\n      dup2\n        /* \"#utility.yul\":11774:11777   */\n      dup6\n        /* \"#utility.yul\":11725:11786   */\n      tag_523\n      jump\t// in\n    tag_522:\n        /* \"#utility.yul\":11718:11786   */\n      swap4\n      pop\n        /* \"#utility.yul\":11795:11847   */\n      tag_524\n        /* \"#utility.yul\":11840:11846   */\n      dup2\n        /* \"#utility.yul\":11835:11838   */\n      dup6\n        /* \"#utility.yul\":11828:11832   */\n      0x20\n        /* \"#utility.yul\":11821:11826   */\n      dup7\n        /* \"#utility.yul\":11817:11833   */\n      add\n        /* \"#utility.yul\":11795:11847   */\n      tag_525\n      jump\t// in\n    tag_524:\n        /* \"#utility.yul\":11872:11901   */\n      tag_526\n        /* \"#utility.yul\":11894:11900   */\n      dup2\n        /* \"#utility.yul\":11872:11901   */\n      tag_527\n      jump\t// in\n    tag_526:\n        /* \"#utility.yul\":11867:11870   */\n      dup5\n        /* \"#utility.yul\":11863:11902   */\n      add\n        /* \"#utility.yul\":11856:11902   */\n      swap2\n      pop\n        /* \"#utility.yul\":11646:11908   */\n      pop\n        /* \"#utility.yul\":11564:11908   */\n      swap3\n      swap2\n      pop\n      pop\n      jump\t// out\n        /* \"#utility.yul\":11914:12278   */\n    tag_528:\n        /* \"#utility.yul\":12002:12005   */\n      0x00\n        /* \"#utility.yul\":12030:12069   */\n      tag_530\n        /* \"#utility.yul\":12063:12068   */\n      dup3\n        /* \"#utility.yul\":12030:12069   */\n      tag_521\n      jump\t// in\n    tag_530:\n        /* \"#utility.yul\":12085:12156   */\n      tag_531\n        /* \"#utility.yul\":12149:12155   */\n      dup2\n        /* \"#utility.yul\":12144:12147   */\n      dup6\n        /* \"#utility.yul\":12085:12156   */\n      tag_532\n      jump\t// in\n    tag_531:\n        /* \"#utility.yul\":12078:12156   */\n      swap4\n      pop\n        /* \"#utility.yul\":12165:12217   */\n      tag_533\n        /* \"#utility.yul\":12210:12216   */\n      dup2\n        /* \"#utility.yul\":12205:12208   */\n      dup6\n        /* \"#utility.yul\":12198:12202   */\n      0x20\n        /* \"#utility.yul\":12191:12196   */\n      dup7\n        /* \"#utility.yul\":12187:12203   */\n      add\n        /* \"#utility.yul\":12165:12217   */\n      tag_525\n      jump\t// in\n    tag_533:\n        /* \"#utility.yul\":12242:12271   */\n      tag_534\n        /* \"#utility.yul\":12264:12270   */\n      dup2\n        /* \"#utility.yul\":12242:12271   */\n      tag_527\n      jump\t// in\n    tag_534:\n        /* \"#utility.yul\":12237:12240   */\n      dup5\n        /* \"#utility.yul\":12233:12272   */\n      add\n        /* \"#utility.yul\":12226:12272   */\n      swap2\n      pop\n        /* \"#utility.yul\":12006:12278   */\n      pop\n        /* \"#utility.yul\":11914:12278   */\n      swap3\n      swap2\n      pop\n      pop\n      jump\t// out\n        /* \"#utility.yul\":12284:12650   */\n    tag_535:\n        /* \"#utility.yul\":12426:12429   */\n      0x00\n        /* \"#utility.yul\":12447:12514   */\n      tag_537\n        /* \"#utility.yul\":12511:12513   */\n      0x11\n        /* \"#utility.yul\":12506:12509   */\n      dup4\n        /* \"#utility.yul\":12447:12514   */\n      tag_532\n      jump\t// in\n    tag_537:\n        /* \"#utility.yul\":12440:12514   */\n      swap2\n      pop\n        /* \"#utility.yul\":12523:12616   */\n      tag_538\n        /* \"#utility.yul\":12612:12615   */\n      dup3\n        /* \"#utility.yul\":12523:12616   */\n      tag_539\n      jump\t// in\n    tag_538:\n        /* \"#utility.yul\":12641:12643   */\n      0x20\n        /* \"#utility.yul\":12636:12639   */\n      dup3\n        /* \"#utility.yul\":12632:12644   */\n      add\n        /* \"#utility.yul\":12625:12644   */\n      swap1\n      pop\n        /* \"#utility.yul\":12284:12650   */\n      swap2\n      swap1\n      pop\n      jump\t// out\n        /* \"#utility.yul\":12656:13022   */\n    tag_540:\n        /* \"#utility.yul\":12798:12801   */\n      0x00\n        /* \"#utility.yul\":12819:12886   */\n      tag_542\n        /* \"#utility.yul\":12883:12885   */\n      0x24\n        /* \"#utility.yul\":12878:12881   */\n      dup4\n        /* \"#utility.yul\":12819:12886   */\n      tag_532\n      jump\t// in\n    tag_542:\n        /* \"#utility.yul\":12812:12886   */\n      swap2\n      pop\n        /* \"#utility.yul\":12895:12988   */\n      tag_543\n        /* \"#utility.yul\":12984:12987   */\n      dup3\n        /* \"#utility.yul\":12895:12988   */\n      tag_544\n      jump\t// in\n    tag_543:\n        /* \"#utility.yul\":13013:13015   */\n      0x40\n        /* \"#utility.yul\":13008:13011   */\n      dup3\n        /* \"#utility.yul\":13004:13016   */\n      add\n        /* \"#utility.yul\":12997:13016   */\n      swap1\n      pop\n        /* \"#utility.yul\":12656:13022   */\n      swap2\n      swap1\n      pop\n      jump\t// out\n        /* \"#utility.yul\":13028:13394   */\n    tag_545:\n        /* \"#utility.yul\":13170:13173   */\n      0x00\n        /* \"#utility.yul\":13191:13258   */\n      tag_547\n        /* \"#utility.yul\":13255:13257   */\n      0x1c\n        /* \"#utility.yul\":13250:13253   */\n      dup4\n        /* \"#utility.yul\":13191:13258   */\n      tag_532\n      jump\t// in\n    tag_547:\n        /* \"#utility.yul\":13184:13258   */\n      swap2\n      pop\n        /* \"#utility.yul\":13267:13360   */\n      tag_548\n        /* \"#utility.yul\":13356:13359   */\n      dup3\n        /* \"#utility.yul\":13267:13360   */\n      tag_549\n      jump\t// in\n    tag_548:\n        /* \"#utility.yul\":13385:13387   */\n      0x20\n        /* \"#utility.yul\":13380:13383   */\n      dup3\n        /* \"#utility.yul\":13376:13388   */\n      add\n        /* \"#utility.yul\":13369:13388   */\n      swap1\n      pop\n        /* \"#utility.yul\":13028:13394   */\n      swap2\n      swap1\n      pop\n      jump\t// out\n        /* \"#utility.yul\":13400:13766   */\n    tag_550:\n        /* \"#utility.yul\":13542:13545   */\n      0x00\n        /* \"#utility.yul\":13563:13630   */\n      tag_552\n        /* \"#utility.yul\":13627:13629   */\n      0x22\n        /* \"#utility.yul\":13622:13625   */\n      dup4\n        /* \"#utility.yul\":13563:13630   */\n      tag_532\n      jump\t// in\n    tag_552:\n        /* \"#utility.yul\":13556:13630   */\n      swap2\n      pop\n        /* \"#utility.yul\":13639:13732   */\n      tag_553\n        /* \"#utility.yul\":13728:13731   */\n      dup3\n        /* \"#utility.yul\":13639:13732   */\n      tag_554\n      jump\t// in\n    tag_553:\n        /* \"#utility.yul\":13757:13759   */\n      0x40\n        /* \"#utility.yul\":13752:13755   */\n      dup3\n        /* \"#utility.yul\":13748:13760   */\n      add\n        /* \"#utility.yul\":13741:13760   */\n      swap1\n      pop\n        /* \"#utility.yul\":13400:13766   */\n      swap2\n      swap1\n      pop\n      jump\t// out\n        /* \"#utility.yul\":13772:14138   */\n    tag_555:\n        /* \"#utility.yul\":13914:13917   */\n      0x00\n        /* \"#utility.yul\":13935:14002   */\n      tag_557\n        /* \"#utility.yul\":13999:14001   */\n      0x13\n        /* \"#utility.yul\":13994:13997   */\n      dup4\n        /* \"#utility.yul\":13935:14002   */\n      tag_532\n      jump\t// in\n    tag_557:\n        /* \"#utility.yul\":13928:14002   */\n      swap2\n      pop\n        /* \"#utility.yul\":14011:14104   */\n      tag_558\n        /* \"#utility.yul\":14100:14103   */\n      dup3\n        /* \"#utility.yul\":14011:14104   */\n      tag_559\n      jump\t// in\n    tag_558:\n        /* \"#utility.yul\":14129:14131   */\n      0x20\n        /* \"#utility.yul\":14124:14127   */\n      dup3\n        /* \"#utility.yul\":14120:14132   */\n      add\n        /* \"#utility.yul\":14113:14132   */\n      swap1\n      pop\n        /* \"#utility.yul\":13772:14138   */\n      swap2\n      swap1\n      pop\n      jump\t// out\n        /* \"#utility.yul\":14198:16178   */\n    tag_474:\n        /* \"#utility.yul\":14303:14306   */\n      0x00\n        /* \"#utility.yul\":14339:14345   */\n      0x0120\n        /* \"#utility.yul\":14334:14337   */\n      dup4\n        /* \"#utility.yul\":14330:14346   */\n      add\n        /* \"#utility.yul\":14431:14435   */\n      0x00\n        /* \"#utility.yul\":14424:14429   */\n      dup4\n        /* \"#utility.yul\":14420:14436   */\n      add\n        /* \"#utility.yul\":14414:14437   */\n      mload\n        /* \"#utility.yul\":14450:14513   */\n      tag_561\n        /* \"#utility.yul\":14507:14511   */\n      0x00\n        /* \"#utility.yul\":14502:14505   */\n      dup7\n        /* \"#utility.yul\":14498:14512   */\n      add\n        /* \"#utility.yul\":14484:14496   */\n      dup3\n        /* \"#utility.yul\":14450:14513   */\n      tag_562\n      jump\t// in\n    tag_561:\n        /* \"#utility.yul\":14356:14523   */\n      pop\n        /* \"#utility.yul\":14605:14609   */\n      0x20\n        /* \"#utility.yul\":14598:14603   */\n      dup4\n        /* \"#utility.yul\":14594:14610   */\n      add\n        /* \"#utility.yul\":14588:14611   */\n      mload\n        /* \"#utility.yul\":14658:14661   */\n      dup5\n        /* \"#utility.yul\":14652:14656   */\n      dup3\n        /* \"#utility.yul\":14648:14662   */\n      sub\n        /* \"#utility.yul\":14641:14645   */\n      0x20\n        /* \"#utility.yul\":14636:14639   */\n      dup7\n        /* \"#utility.yul\":14632:14646   */\n      add\n        /* \"#utility.yul\":14625:14663   */\n      mstore\n        /* \"#utility.yul\":14684:14757   */\n      tag_563\n        /* \"#utility.yul\":14752:14756   */\n      dup3\n        /* \"#utility.yul\":14738:14750   */\n      dup3\n        /* \"#utility.yul\":14684:14757   */\n      tag_518\n      jump\t// in\n    tag_563:\n        /* \"#utility.yul\":14676:14757   */\n      swap2\n      pop\n        /* \"#utility.yul\":14533:14768   */\n      pop\n        /* \"#utility.yul\":14854:14858   */\n      0x40\n        /* \"#utility.yul\":14847:14852   */\n      dup4\n        /* \"#utility.yul\":14843:14859   */\n      add\n        /* \"#utility.yul\":14837:14860   */\n      mload\n        /* \"#utility.yul\":14873:14936   */\n      tag_564\n        /* \"#utility.yul\":14930:14934   */\n      0x40\n        /* \"#utility.yul\":14925:14928   */\n      dup7\n        /* \"#utility.yul\":14921:14935   */\n      add\n        /* \"#utility.yul\":14907:14919   */\n      dup3\n        /* \"#utility.yul\":14873:14936   */\n      tag_562\n      jump\t// in\n    tag_564:\n        /* \"#utility.yul\":14778:14946   */\n      pop\n        /* \"#utility.yul\":15030:15034   */\n      0x60\n        /* \"#utility.yul\":15023:15028   */\n      dup4\n        /* \"#utility.yul\":15019:15035   */\n      add\n        /* \"#utility.yul\":15013:15036   */\n      mload\n        /* \"#utility.yul\":15049:15112   */\n      tag_565\n        /* \"#utility.yul\":15106:15110   */\n      0x60\n        /* \"#utility.yul\":15101:15104   */\n      dup7\n        /* \"#utility.yul\":15097:15111   */\n      add\n        /* \"#utility.yul\":15083:15095   */\n      dup3\n        /* \"#utility.yul\":15049:15112   */\n      tag_562\n      jump\t// in\n    tag_565:\n        /* \"#utility.yul\":14956:15122   */\n      pop\n        /* \"#utility.yul\":15204:15208   */\n      0x80\n        /* \"#utility.yul\":15197:15202   */\n      dup4\n        /* \"#utility.yul\":15193:15209   */\n      add\n        /* \"#utility.yul\":15187:15210   */\n      mload\n        /* \"#utility.yul\":15223:15286   */\n      tag_566\n        /* \"#utility.yul\":15280:15284   */\n      0x80\n        /* \"#utility.yul\":15275:15278   */\n      dup7\n        /* \"#utility.yul\":15271:15285   */\n      add\n        /* \"#utility.yul\":15257:15269   */\n      dup3\n        /* \"#utility.yul\":15223:15286   */\n      tag_562\n      jump\t// in\n    tag_566:\n        /* \"#utility.yul\":15132:15296   */\n      pop\n        /* \"#utility.yul\":15379:15383   */\n      0xa0\n        /* \"#utility.yul\":15372:15377   */\n      dup4\n        /* \"#utility.yul\":15368:15384   */\n      add\n        /* \"#utility.yul\":15362:15385   */\n      mload\n        /* \"#utility.yul\":15398:15461   */\n      tag_567\n        /* \"#utility.yul\":15455:15459   */\n      0xa0\n        /* \"#utility.yul\":15450:15453   */\n      dup7\n        /* \"#utility.yul\":15446:15460   */\n      add\n        /* \"#utility.yul\":15432:15444   */\n      dup3\n        /* \"#utility.yul\":15398:15461   */\n      tag_562\n      jump\t// in\n    tag_567:\n        /* \"#utility.yul\":15306:15471   */\n      pop\n        /* \"#utility.yul\":15557:15561   */\n      0xc0\n        /* \"#utility.yul\":15550:15555   */\n      dup4\n        /* \"#utility.yul\":15546:15562   */\n      add\n        /* \"#utility.yul\":15540:15563   */\n      mload\n        /* \"#utility.yul\":15610:15613   */\n      dup5\n        /* \"#utility.yul\":15604:15608   */\n      dup3\n        /* \"#utility.yul\":15600:15614   */\n      sub\n        /* \"#utility.yul\":15593:15597   */\n      0xc0\n        /* \"#utility.yul\":15588:15591   */\n      dup7\n        /* \"#utility.yul\":15584:15598   */\n      add\n        /* \"#utility.yul\":15577:15615   */\n      mstore\n        /* \"#utility.yul\":15636:15709   */\n      tag_568\n        /* \"#utility.yul\":15704:15708   */\n      dup3\n        /* \"#utility.yul\":15690:15702   */\n      dup3\n        /* \"#utility.yul\":15636:15709   */\n      tag_518\n      jump\t// in\n    tag_568:\n        /* \"#utility.yul\":15628:15709   */\n      swap2\n      pop\n        /* \"#utility.yul\":15481:15720   */\n      pop\n        /* \"#utility.yul\":15809:15813   */\n      0xe0\n        /* \"#utility.yul\":15802:15807   */\n      dup4\n        /* \"#utility.yul\":15798:15814   */\n      add\n        /* \"#utility.yul\":15792:15815   */\n      mload\n        /* \"#utility.yul\":15862:15865   */\n      dup5\n        /* \"#utility.yul\":15856:15860   */\n      dup3\n        /* \"#utility.yul\":15852:15866   */\n      sub\n        /* \"#utility.yul\":15845:15849   */\n      0xe0\n        /* \"#utility.yul\":15840:15843   */\n      dup7\n        /* \"#utility.yul\":15836:15850   */\n      add\n        /* \"#utility.yul\":15829:15867   */\n      mstore\n        /* \"#utility.yul\":15888:15961   */\n      tag_569\n        /* \"#utility.yul\":15956:15960   */\n      dup3\n        /* \"#utility.yul\":15942:15954   */\n      dup3\n        /* \"#utility.yul\":15888:15961   */\n      tag_518\n      jump\t// in\n    tag_569:\n        /* \"#utility.yul\":15880:15961   */\n      swap2\n      pop\n        /* \"#utility.yul\":15730:15972   */\n      pop\n        /* \"#utility.yul\":16055:16061   */\n      0x0100\n        /* \"#utility.yul\":16048:16053   */\n      dup4\n        /* \"#utility.yul\":16044:16062   */\n      add\n        /* \"#utility.yul\":16038:16063   */\n      mload\n        /* \"#utility.yul\":16076:16141   */\n      tag_570\n        /* \"#utility.yul\":16133:16139   */\n      0x0100\n        /* \"#utility.yul\":16128:16131   */\n      dup7\n        /* \"#utility.yul\":16124:16140   */\n      add\n        /* \"#utility.yul\":16110:16122   */\n      dup3\n        /* \"#utility.yul\":16076:16141   */\n      tag_479\n      jump\t// in\n    tag_570:\n        /* \"#utility.yul\":15982:16151   */\n      pop\n        /* \"#utility.yul\":16168:16172   */\n      dup1\n        /* \"#utility.yul\":16161:16172   */\n      swap2\n      pop\n        /* \"#utility.yul\":14308:16178   */\n      pop\n        /* \"#utility.yul\":14198:16178   */\n      swap3\n      swap2\n      pop\n      pop\n      jump\t// out\n        /* \"#utility.yul\":16238:17370   */\n    tag_478:\n        /* \"#utility.yul\":16343:16346   */\n      0x00\n        /* \"#utility.yul\":16379:16383   */\n      0xa0\n        /* \"#utility.yul\":16374:16377   */\n      dup4\n        /* \"#utility.yul\":16370:16384   */\n      add\n        /* \"#utility.yul\":16467:16471   */\n      0x00\n        /* \"#utility.yul\":16460:16465   */\n      dup4\n        /* \"#utility.yul\":16456:16472   */\n      add\n        /* \"#utility.yul\":16450:16473   */\n      mload\n        /* \"#utility.yul\":16486:16549   */\n      tag_572\n        /* \"#utility.yul\":16543:16547   */\n      0x00\n        /* \"#utility.yul\":16538:16541   */\n      dup7\n        /* \"#utility.yul\":16534:16548   */\n      add\n        /* \"#utility.yul\":16520:16532   */\n      dup3\n        /* \"#utility.yul\":16486:16549   */\n      tag_562\n      jump\t// in\n    tag_572:\n        /* \"#utility.yul\":16394:16559   */\n      pop\n        /* \"#utility.yul\":16642:16646   */\n      0x20\n        /* \"#utility.yul\":16635:16640   */\n      dup4\n        /* \"#utility.yul\":16631:16647   */\n      add\n        /* \"#utility.yul\":16625:16648   */\n      mload\n        /* \"#utility.yul\":16661:16724   */\n      tag_573\n        /* \"#utility.yul\":16718:16722   */\n      0x20\n        /* \"#utility.yul\":16713:16716   */\n      dup7\n        /* \"#utility.yul\":16709:16723   */\n      add\n        /* \"#utility.yul\":16695:16707   */\n      dup3\n        /* \"#utility.yul\":16661:16724   */\n      tag_562\n      jump\t// in\n    tag_573:\n        /* \"#utility.yul\":16569:16734   */\n      pop\n        /* \"#utility.yul\":16823:16827   */\n      0x40\n        /* \"#utility.yul\":16816:16821   */\n      dup4\n        /* \"#utility.yul\":16812:16828   */\n      add\n        /* \"#utility.yul\":16806:16829   */\n      mload\n        /* \"#utility.yul\":16876:16879   */\n      dup5\n        /* \"#utility.yul\":16870:16874   */\n      dup3\n        /* \"#utility.yul\":16866:16880   */\n      sub\n        /* \"#utility.yul\":16859:16863   */\n      0x40\n        /* \"#utility.yul\":16854:16857   */\n      dup7\n        /* \"#utility.yul\":16850:16864   */\n      add\n        /* \"#utility.yul\":16843:16881   */\n      mstore\n        /* \"#utility.yul\":16902:16975   */\n      tag_574\n        /* \"#utility.yul\":16970:16974   */\n      dup3\n        /* \"#utility.yul\":16956:16968   */\n      dup3\n        /* \"#utility.yul\":16902:16975   */\n      tag_518\n      jump\t// in\n    tag_574:\n        /* \"#utility.yul\":16894:16975   */\n      swap2\n      pop\n        /* \"#utility.yul\":16744:16986   */\n      pop\n        /* \"#utility.yul\":17069:17073   */\n      0x60\n        /* \"#utility.yul\":17062:17067   */\n      dup4\n        /* \"#utility.yul\":17058:17074   */\n      add\n        /* \"#utility.yul\":17052:17075   */\n      mload\n        /* \"#utility.yul\":17088:17151   */\n      tag_575\n        /* \"#utility.yul\":17145:17149   */\n      0x60\n        /* \"#utility.yul\":17140:17143   */\n      dup7\n        /* \"#utility.yul\":17136:17150   */\n      add\n        /* \"#utility.yul\":17122:17134   */\n      dup3\n        /* \"#utility.yul\":17088:17151   */\n      tag_479\n      jump\t// in\n    tag_575:\n        /* \"#utility.yul\":16996:17161   */\n      pop\n        /* \"#utility.yul\":17251:17255   */\n      0x80\n        /* \"#utility.yul\":17244:17249   */\n      dup4\n        /* \"#utility.yul\":17240:17256   */\n      add\n        /* \"#utility.yul\":17234:17257   */\n      mload\n        /* \"#utility.yul\":17270:17333   */\n      tag_576\n        /* \"#utility.yul\":17327:17331   */\n      0x80\n        /* \"#utility.yul\":17322:17325   */\n      dup7\n        /* \"#utility.yul\":17318:17332   */\n      add\n        /* \"#utility.yul\":17304:17316   */\n      dup3\n        /* \"#utility.yul\":17270:17333   */\n      tag_562\n      jump\t// in\n    tag_576:\n        /* \"#utility.yul\":17171:17343   */\n      pop\n        /* \"#utility.yul\":17360:17364   */\n      dup1\n        /* \"#utility.yul\":17353:17364   */\n      swap2\n      pop\n        /* \"#utility.yul\":16348:17370   */\n      pop\n        /* \"#utility.yul\":16238:17370   */\n      swap3\n      swap2\n      pop\n      pop\n      jump\t// out\n        /* \"#utility.yul\":17376:17484   */\n    tag_562:\n        /* \"#utility.yul\":17453:17477   */\n      tag_578\n        /* \"#utility.yul\":17471:17476   */\n      dup2\n        /* \"#utility.yul\":17453:17477   */\n      tag_579\n      jump\t// in\n    tag_578:\n        /* \"#utility.yul\":17448:17451   */\n      dup3\n        /* \"#utility.yul\":17441:17478   */\n      mstore\n        /* \"#utility.yul\":17376:17484   */\n      pop\n      pop\n      jump\t// out\n        /* \"#utility.yul\":17490:17608   */\n    tag_580:\n        /* \"#utility.yul\":17577:17601   */\n      tag_582\n        /* \"#utility.yul\":17595:17600   */\n      dup2\n        /* \"#utility.yul\":17577:17601   */\n      tag_579\n      jump\t// in\n    tag_582:\n        /* \"#utility.yul\":17572:17575   */\n      dup3\n        /* \"#utility.yul\":17565:17602   */\n      mstore\n        /* \"#utility.yul\":17490:17608   */\n      pop\n      pop\n      jump\t// out\n        /* \"#utility.yul\":17614:17836   */\n    tag_95:\n        /* \"#utility.yul\":17707:17711   */\n      0x00\n        /* \"#utility.yul\":17745:17747   */\n      0x20\n        /* \"#utility.yul\":17734:17743   */\n      dup3\n        /* \"#utility.yul\":17730:17748   */\n      add\n        /* \"#utility.yul\":17722:17748   */\n      swap1\n      pop\n        /* \"#utility.yul\":17758:17829   */\n      tag_584\n        /* \"#utility.yul\":17826:17827   */\n      0x00\n        /* \"#utility.yul\":17815:17824   */\n      dup4\n        /* \"#utility.yul\":17811:17828   */\n      add\n        /* \"#utility.yul\":17802:17808   */\n      dup5\n        /* \"#utility.yul\":17758:17829   */\n      tag_483\n      jump\t// in\n    tag_584:\n        /* \"#utility.yul\":17614:17836   */\n      swap3\n      swap2\n      pop\n      pop\n      jump\t// out\n        /* \"#utility.yul\":17842:18272   */\n    tag_73:\n        /* \"#utility.yul\":17985:17989   */\n      0x00\n        /* \"#utility.yul\":18023:18025   */\n      0x60\n        /* \"#utility.yul\":18012:18021   */\n      dup3\n        /* \"#utility.yul\":18008:18026   */\n      add\n        /* \"#utility.yul\":18000:18026   */\n      swap1\n      pop\n        /* \"#utility.yul\":18036:18107   */\n      tag_586\n        /* \"#utility.yul\":18104:18105   */\n      0x00\n        /* \"#utility.yul\":18093:18102   */\n      dup4\n        /* \"#utility.yul\":18089:18106   */\n      add\n        /* \"#utility.yul\":18080:18086   */\n      dup7\n        /* \"#utility.yul\":18036:18107   */\n      tag_483\n      jump\t// in\n    tag_586:\n        /* \"#utility.yul\":18117:18189   */\n      tag_587\n        /* \"#utility.yul\":18185:18187   */\n      0x20\n        /* \"#utility.yul\":18174:18183   */\n      dup4\n        /* \"#utility.yul\":18170:18188   */\n      add\n        /* \"#utility.yul\":18161:18167   */\n      dup6\n        /* \"#utility.yul\":18117:18189   */\n      tag_580\n      jump\t// in\n    tag_587:\n        /* \"#utility.yul\":18199:18265   */\n      tag_588\n        /* \"#utility.yul\":18261:18263   */\n      0x40\n        /* \"#utility.yul\":18250:18259   */\n      dup4\n        /* \"#utility.yul\":18246:18264   */\n      add\n        /* \"#utility.yul\":18237:18243   */\n      dup5\n        /* \"#utility.yul\":18199:18265   */\n      tag_514\n      jump\t// in\n    tag_588:\n        /* \"#utility.yul\":17842:18272   */\n      swap5\n      swap4\n      pop\n      pop\n      pop\n      pop\n      jump\t// out\n        /* \"#utility.yul\":18278:18743   */\n    tag_143:\n        /* \"#utility.yul\":18467:18471   */\n      0x00\n        /* \"#utility.yul\":18505:18507   */\n      0x20\n        /* \"#utility.yul\":18494:18503   */\n      dup3\n        /* \"#utility.yul\":18490:18508   */\n      add\n        /* \"#utility.yul\":18482:18508   */\n      swap1\n      pop\n        /* \"#utility.yul\":18554:18563   */\n      dup2\n        /* \"#utility.yul\":18548:18552   */\n      dup2\n        /* \"#utility.yul\":18544:18564   */\n      sub\n        /* \"#utility.yul\":18540:18541   */\n      0x00\n        /* \"#utility.yul\":18529:18538   */\n      dup4\n        /* \"#utility.yul\":18525:18542   */\n      add\n        /* \"#utility.yul\":18518:18565   */\n      mstore\n        /* \"#utility.yul\":18582:18736   */\n      tag_590\n        /* \"#utility.yul\":18731:18735   */\n      dup2\n        /* \"#utility.yul\":18722:18728   */\n      dup5\n        /* \"#utility.yul\":18582:18736   */\n      tag_486\n      jump\t// in\n    tag_590:\n        /* \"#utility.yul\":18574:18736   */\n      swap1\n      pop\n        /* \"#utility.yul\":18278:18743   */\n      swap3\n      swap2\n      pop\n      pop\n      jump\t// out\n        /* \"#utility.yul\":18749:19214   */\n    tag_106:\n        /* \"#utility.yul\":18938:18942   */\n      0x00\n        /* \"#utility.yul\":18976:18978   */\n      0x20\n        /* \"#utility.yul\":18965:18974   */\n      dup3\n        /* \"#utility.yul\":18961:18979   */\n      add\n        /* \"#utility.yul\":18953:18979   */\n      swap1\n      pop\n        /* \"#utility.yul\":19025:19034   */\n      dup2\n        /* \"#utility.yul\":19019:19023   */\n      dup2\n        /* \"#utility.yul\":19015:19035   */\n      sub\n        /* \"#utility.yul\":19011:19012   */\n      0x00\n        /* \"#utility.yul\":19000:19009   */\n      dup4\n        /* \"#utility.yul\":18996:19013   */\n      add\n        /* \"#utility.yul\":18989:19036   */\n      mstore\n        /* \"#utility.yul\":19053:19207   */\n      tag_592\n        /* \"#utility.yul\":19202:19206   */\n      dup2\n        /* \"#utility.yul\":19193:19199   */\n      dup5\n        /* \"#utility.yul\":19053:19207   */\n      tag_500\n      jump\t// in\n    tag_592:\n        /* \"#utility.yul\":19045:19207   */\n      swap1\n      pop\n        /* \"#utility.yul\":18749:19214   */\n      swap3\n      swap2\n      pop\n      pop\n      jump\t// out\n        /* \"#utility.yul\":19220:19430   */\n    tag_39:\n        /* \"#utility.yul\":19307:19311   */\n      0x00\n        /* \"#utility.yul\":19345:19347   */\n      0x20\n        /* \"#utility.yul\":19334:19343   */\n      dup3\n        /* \"#utility.yul\":19330:19348   */\n      add\n        /* \"#utility.yul\":19322:19348   */\n      swap1\n      pop\n        /* \"#utility.yul\":19358:19423   */\n      tag_594\n        /* \"#utility.yul\":19420:19421   */\n      0x00\n        /* \"#utility.yul\":19409:19418   */\n      dup4\n        /* \"#utility.yul\":19405:19422   */\n      add\n        /* \"#utility.yul\":19396:19402   */\n      dup5\n        /* \"#utility.yul\":19358:19423   */\n      tag_514\n      jump\t// in\n    tag_594:\n        /* \"#utility.yul\":19220:19430   */\n      swap3\n      swap2\n      pop\n      pop\n      jump\t// out\n        /* \"#utility.yul\":19436:19855   */\n    tag_198:\n        /* \"#utility.yul\":19602:19606   */\n      0x00\n        /* \"#utility.yul\":19640:19642   */\n      0x20\n        /* \"#utility.yul\":19629:19638   */\n      dup3\n        /* \"#utility.yul\":19625:19643   */\n      add\n        /* \"#utility.yul\":19617:19643   */\n      swap1\n      pop\n        /* \"#utility.yul\":19689:19698   */\n      dup2\n        /* \"#utility.yul\":19683:19687   */\n      dup2\n        /* \"#utility.yul\":19679:19699   */\n      sub\n        /* \"#utility.yul\":19675:19676   */\n      0x00\n        /* \"#utility.yul\":19664:19673   */\n      dup4\n        /* \"#utility.yul\":19660:19677   */\n      add\n        /* \"#utility.yul\":19653:19700   */\n      mstore\n        /* \"#utility.yul\":19717:19848   */\n      tag_596\n        /* \"#utility.yul\":19843:19847   */\n      dup2\n        /* \"#utility.yul\":19717:19848   */\n      tag_535\n      jump\t// in\n    tag_596:\n        /* \"#utility.yul\":19709:19848   */\n      swap1\n      pop\n        /* \"#utility.yul\":19436:19855   */\n      swap2\n      swap1\n      pop\n      jump\t// out\n        /* \"#utility.yul\":19861:20280   */\n    tag_349:\n        /* \"#utility.yul\":20027:20031   */\n      0x00\n        /* \"#utility.yul\":20065:20067   */\n      0x20\n        /* \"#utility.yul\":20054:20063   */\n      dup3\n        /* \"#utility.yul\":20050:20068   */\n      add\n        /* \"#utility.yul\":20042:20068   */\n      swap1\n      pop\n        /* \"#utility.yul\":20114:20123   */\n      dup2\n        /* \"#utility.yul\":20108:20112   */\n      dup2\n        /* \"#utility.yul\":20104:20124   */\n      sub\n        /* \"#utility.yul\":20100:20101   */\n      0x00\n        /* \"#utility.yul\":20089:20098   */\n      dup4\n        /* \"#utility.yul\":20085:20102   */\n      add\n        /* \"#utility.yul\":20078:20125   */\n      mstore\n        /* \"#utility.yul\":20142:20273   */\n      tag_598\n        /* \"#utility.yul\":20268:20272   */\n      dup2\n        /* \"#utility.yul\":20142:20273   */\n      tag_540\n      jump\t// in\n    tag_598:\n        /* \"#utility.yul\":20134:20273   */\n      swap1\n      pop\n        /* \"#utility.yul\":19861:20280   */\n      swap2\n      swap1\n      pop\n      jump\t// out\n        /* \"#utility.yul\":20286:20705   */\n    tag_210:\n        /* \"#utility.yul\":20452:20456   */\n      0x00\n        /* \"#utility.yul\":20490:20492   */\n      0x20\n        /* \"#utility.yul\":20479:20488   */\n      dup3\n        /* \"#utility.yul\":20475:20493   */\n      add\n        /* \"#utility.yul\":20467:20493   */\n      swap1\n      pop\n        /* \"#utility.yul\":20539:20548   */\n      dup2\n        /* \"#utility.yul\":20533:20537   */\n      dup2\n        /* \"#utility.yul\":20529:20549   */\n      sub\n        /* \"#utility.yul\":20525:20526   */\n      0x00\n        /* \"#utility.yul\":20514:20523   */\n      dup4\n        /* \"#utility.yul\":20510:20527   */\n      add\n        /* \"#utility.yul\":20503:20550   */\n      mstore\n        /* \"#utility.yul\":20567:20698   */\n      tag_600\n        /* \"#utility.yul\":20693:20697   */\n      dup2\n        /* \"#utility.yul\":20567:20698   */\n      tag_545\n      jump\t// in\n    tag_600:\n        /* \"#utility.yul\":20559:20698   */\n      swap1\n      pop\n        /* \"#utility.yul\":20286:20705   */\n      swap2\n      swap1\n      pop\n      jump\t// out\n        /* \"#utility.yul\":20711:21130   */\n    tag_207:\n        /* \"#utility.yul\":20877:20881   */\n      0x00\n        /* \"#utility.yul\":20915:20917   */\n      0x20\n        /* \"#utility.yul\":20904:20913   */\n      dup3\n        /* \"#utility.yul\":20900:20918   */\n      add\n        /* \"#utility.yul\":20892:20918   */\n      swap1\n      pop\n        /* \"#utility.yul\":20964:20973   */\n      dup2\n        /* \"#utility.yul\":20958:20962   */\n      dup2\n        /* \"#utility.yul\":20954:20974   */\n      sub\n        /* \"#utility.yul\":20950:20951   */\n      0x00\n        /* \"#utility.yul\":20939:20948   */\n      dup4\n        /* \"#utility.yul\":20935:20952   */\n      add\n        /* \"#utility.yul\":20928:20975   */\n      mstore\n        /* \"#utility.yul\":20992:21123   */\n      tag_602\n        /* \"#utility.yul\":21118:21122   */\n      dup2\n        /* \"#utility.yul\":20992:21123   */\n      tag_550\n      jump\t// in\n    tag_602:\n        /* \"#utility.yul\":20984:21123   */\n      swap1\n      pop\n        /* \"#utility.yul\":20711:21130   */\n      swap2\n      swap1\n      pop\n      jump\t// out\n        /* \"#utility.yul\":21136:21555   */\n    tag_352:\n        /* \"#utility.yul\":21302:21306   */\n      0x00\n        /* \"#utility.yul\":21340:21342   */\n      0x20\n        /* \"#utility.yul\":21329:21338   */\n      dup3\n        /* \"#utility.yul\":21325:21343   */\n      add\n        /* \"#utility.yul\":21317:21343   */\n      swap1\n      pop\n        /* \"#utility.yul\":21389:21398   */\n      dup2\n        /* \"#utility.yul\":21383:21387   */\n      dup2\n        /* \"#utility.yul\":21379:21399   */\n      sub\n        /* \"#utility.yul\":21375:21376   */\n      0x00\n        /* \"#utility.yul\":21364:21373   */\n      dup4\n        /* \"#utility.yul\":21360:21377   */\n      add\n        /* \"#utility.yul\":21353:21400   */\n      mstore\n        /* \"#utility.yul\":21417:21548   */\n      tag_604\n        /* \"#utility.yul\":21543:21547   */\n      dup2\n        /* \"#utility.yul\":21417:21548   */\n      tag_555\n      jump\t// in\n    tag_604:\n        /* \"#utility.yul\":21409:21548   */\n      swap1\n      pop\n        /* \"#utility.yul\":21136:21555   */\n      swap2\n      swap1\n      pop\n      jump\t// out\n        /* \"#utility.yul\":21561:21783   */\n    tag_53:\n        /* \"#utility.yul\":21654:21658   */\n      0x00\n        /* \"#utility.yul\":21692:21694   */\n      0x20\n        /* \"#utility.yul\":21681:21690   */\n      dup3\n        /* \"#utility.yul\":21677:21695   */\n      add\n        /* \"#utility.yul\":21669:21695   */\n      swap1\n      pop\n        /* \"#utility.yul\":21705:21776   */\n      tag_606\n        /* \"#utility.yul\":21773:21774   */\n      0x00\n        /* \"#utility.yul\":21762:21771   */\n      dup4\n        /* \"#utility.yul\":21758:21775   */\n      add\n        /* \"#utility.yul\":21749:21755   */\n      dup5\n        /* \"#utility.yul\":21705:21776   */\n      tag_580\n      jump\t// in\n    tag_606:\n        /* \"#utility.yul\":21561:21783   */\n      swap3\n      swap2\n      pop\n      pop\n      jump\t// out\n        /* \"#utility.yul\":21789:23170   */\n    tag_90:\n        /* \"#utility.yul\":22166:22170   */\n      0x00\n        /* \"#utility.yul\":22204:22207   */\n      0x0120\n        /* \"#utility.yul\":22193:22202   */\n      dup3\n        /* \"#utility.yul\":22189:22208   */\n      add\n        /* \"#utility.yul\":22181:22208   */\n      swap1\n      pop\n        /* \"#utility.yul\":22218:22289   */\n      tag_608\n        /* \"#utility.yul\":22286:22287   */\n      0x00\n        /* \"#utility.yul\":22275:22284   */\n      dup4\n        /* \"#utility.yul\":22271:22288   */\n      add\n        /* \"#utility.yul\":22262:22268   */\n      dup13\n        /* \"#utility.yul\":22218:22289   */\n      tag_580\n      jump\t// in\n    tag_608:\n        /* \"#utility.yul\":22336:22345   */\n      dup2\n        /* \"#utility.yul\":22330:22334   */\n      dup2\n        /* \"#utility.yul\":22326:22346   */\n      sub\n        /* \"#utility.yul\":22321:22323   */\n      0x20\n        /* \"#utility.yul\":22310:22319   */\n      dup4\n        /* \"#utility.yul\":22306:22324   */\n      add\n        /* \"#utility.yul\":22299:22347   */\n      mstore\n        /* \"#utility.yul\":22364:22442   */\n      tag_609\n        /* \"#utility.yul\":22437:22441   */\n      dup2\n        /* \"#utility.yul\":22428:22434   */\n      dup12\n        /* \"#utility.yul\":22364:22442   */\n      tag_528\n      jump\t// in\n    tag_609:\n        /* \"#utility.yul\":22356:22442   */\n      swap1\n      pop\n        /* \"#utility.yul\":22452:22524   */\n      tag_610\n        /* \"#utility.yul\":22520:22522   */\n      0x40\n        /* \"#utility.yul\":22509:22518   */\n      dup4\n        /* \"#utility.yul\":22505:22523   */\n      add\n        /* \"#utility.yul\":22496:22502   */\n      dup11\n        /* \"#utility.yul\":22452:22524   */\n      tag_580\n      jump\t// in\n    tag_610:\n        /* \"#utility.yul\":22534:22606   */\n      tag_611\n        /* \"#utility.yul\":22602:22604   */\n      0x60\n        /* \"#utility.yul\":22591:22600   */\n      dup4\n        /* \"#utility.yul\":22587:22605   */\n      add\n        /* \"#utility.yul\":22578:22584   */\n      dup10\n        /* \"#utility.yul\":22534:22606   */\n      tag_580\n      jump\t// in\n    tag_611:\n        /* \"#utility.yul\":22616:22689   */\n      tag_612\n        /* \"#utility.yul\":22684:22687   */\n      0x80\n        /* \"#utility.yul\":22673:22682   */\n      dup4\n        /* \"#utility.yul\":22669:22688   */\n      add\n        /* \"#utility.yul\":22660:22666   */\n      dup9\n        /* \"#utility.yul\":22616:22689   */\n      tag_580\n      jump\t// in\n    tag_612:\n        /* \"#utility.yul\":22699:22772   */\n      tag_613\n        /* \"#utility.yul\":22767:22770   */\n      0xa0\n        /* \"#utility.yul\":22756:22765   */\n      dup4\n        /* \"#utility.yul\":22752:22771   */\n      add\n        /* \"#utility.yul\":22743:22749   */\n      dup8\n        /* \"#utility.yul\":22699:22772   */\n      tag_580\n      jump\t// in\n    tag_613:\n        /* \"#utility.yul\":22820:22829   */\n      dup2\n        /* \"#utility.yul\":22814:22818   */\n      dup2\n        /* \"#utility.yul\":22810:22830   */\n      sub\n        /* \"#utility.yul\":22804:22807   */\n      0xc0\n        /* \"#utility.yul\":22793:22802   */\n      dup4\n        /* \"#utility.yul\":22789:22808   */\n      add\n        /* \"#utility.yul\":22782:22831   */\n      mstore\n        /* \"#utility.yul\":22848:22926   */\n      tag_614\n        /* \"#utility.yul\":22921:22925   */\n      dup2\n        /* \"#utility.yul\":22912:22918   */\n      dup7\n        /* \"#utility.yul\":22848:22926   */\n      tag_528\n      jump\t// in\n    tag_614:\n        /* \"#utility.yul\":22840:22926   */\n      swap1\n      pop\n        /* \"#utility.yul\":22974:22983   */\n      dup2\n        /* \"#utility.yul\":22968:22972   */\n      dup2\n        /* \"#utility.yul\":22964:22984   */\n      sub\n        /* \"#utility.yul\":22958:22961   */\n      0xe0\n        /* \"#utility.yul\":22947:22956   */\n      dup4\n        /* \"#utility.yul\":22943:22962   */\n      add\n        /* \"#utility.yul\":22936:22985   */\n      mstore\n        /* \"#utility.yul\":23002:23080   */\n      tag_615\n        /* \"#utility.yul\":23075:23079   */\n      dup2\n        /* \"#utility.yul\":23066:23072   */\n      dup6\n        /* \"#utility.yul\":23002:23080   */\n      tag_528\n      jump\t// in\n    tag_615:\n        /* \"#utility.yul\":22994:23080   */\n      swap1\n      pop\n        /* \"#utility.yul\":23090:23163   */\n      tag_616\n        /* \"#utility.yul\":23158:23161   */\n      0x0100\n        /* \"#utility.yul\":23147:23156   */\n      dup4\n        /* \"#utility.yul\":23143:23162   */\n      add\n        /* \"#utility.yul\":23134:23140   */\n      dup5\n        /* \"#utility.yul\":23090:23163   */\n      tag_483\n      jump\t// in\n    tag_616:\n        /* \"#utility.yul\":21789:23170   */\n      swap11\n      swap10\n      pop\n      pop\n      pop\n      pop\n      pop\n      pop\n      pop\n      pop\n      pop\n      pop\n      jump\t// out\n        /* \"#utility.yul\":23176:23931   */\n    tag_46:\n        /* \"#utility.yul\":23401:23405   */\n      0x00\n        /* \"#utility.yul\":23439:23442   */\n      0xa0\n        /* \"#utility.yul\":23428:23437   */\n      dup3\n        /* \"#utility.yul\":23424:23443   */\n      add\n        /* \"#utility.yul\":23416:23443   */\n      swap1\n      pop\n        /* \"#utility.yul\":23453:23524   */\n      tag_618\n        /* \"#utility.yul\":23521:23522   */\n      0x00\n        /* \"#utility.yul\":23510:23519   */\n      dup4\n        /* \"#utility.yul\":23506:23523   */\n      add\n        /* \"#utility.yul\":23497:23503   */\n      dup9\n        /* \"#utility.yul\":23453:23524   */\n      tag_580\n      jump\t// in\n    tag_618:\n        /* \"#utility.yul\":23534:23606   */\n      tag_619\n        /* \"#utility.yul\":23602:23604   */\n      0x20\n        /* \"#utility.yul\":23591:23600   */\n      dup4\n        /* \"#utility.yul\":23587:23605   */\n      add\n        /* \"#utility.yul\":23578:23584   */\n      dup8\n        /* \"#utility.yul\":23534:23606   */\n      tag_580\n      jump\t// in\n    tag_619:\n        /* \"#utility.yul\":23653:23662   */\n      dup2\n        /* \"#utility.yul\":23647:23651   */\n      dup2\n        /* \"#utility.yul\":23643:23663   */\n      sub\n        /* \"#utility.yul\":23638:23640   */\n      0x40\n        /* \"#utility.yul\":23627:23636   */\n      dup4\n        /* \"#utility.yul\":23623:23641   */\n      add\n        /* \"#utility.yul\":23616:23664   */\n      mstore\n        /* \"#utility.yul\":23681:23759   */\n      tag_620\n        /* \"#utility.yul\":23754:23758   */\n      dup2\n        /* \"#utility.yul\":23745:23751   */\n      dup7\n        /* \"#utility.yul\":23681:23759   */\n      tag_528\n      jump\t// in\n    tag_620:\n        /* \"#utility.yul\":23673:23759   */\n      swap1\n      pop\n        /* \"#utility.yul\":23769:23841   */\n      tag_621\n        /* \"#utility.yul\":23837:23839   */\n      0x60\n        /* \"#utility.yul\":23826:23835   */\n      dup4\n        /* \"#utility.yul\":23822:23840   */\n      add\n        /* \"#utility.yul\":23813:23819   */\n      dup6\n        /* \"#utility.yul\":23769:23841   */\n      tag_483\n      jump\t// in\n    tag_621:\n        /* \"#utility.yul\":23851:23924   */\n      tag_622\n        /* \"#utility.yul\":23919:23922   */\n      0x80\n        /* \"#utility.yul\":23908:23917   */\n      dup4\n        /* \"#utility.yul\":23904:23923   */\n      add\n        /* \"#utility.yul\":23895:23901   */\n      dup5\n        /* \"#utility.yul\":23851:23924   */\n      tag_580\n      jump\t// in\n    tag_622:\n        /* \"#utility.yul\":23176:23931   */\n      swap7\n      swap6\n      pop\n      pop\n      pop\n      pop\n      pop\n      pop\n      jump\t// out\n        /* \"#utility.yul\":23937:24066   */\n    tag_377:\n        /* \"#utility.yul\":23971:23977   */\n      0x00\n        /* \"#utility.yul\":23998:24018   */\n      tag_624\n      tag_625\n      jump\t// in\n    tag_624:\n        /* \"#utility.yul\":23988:24018   */\n      swap1\n      pop\n        /* \"#utility.yul\":24027:24060   */\n      tag_626\n        /* \"#utility.yul\":24055:24059   */\n      dup3\n        /* \"#utility.yul\":24047:24053   */\n      dup3\n        /* \"#utility.yul\":24027:24060   */\n      tag_627\n      jump\t// in\n    tag_626:\n        /* \"#utility.yul\":23937:24066   */\n      swap2\n      swap1\n      pop\n      jump\t// out\n        /* \"#utility.yul\":24072:24147   */\n    tag_625:\n        /* \"#utility.yul\":24105:24111   */\n      0x00\n        /* \"#utility.yul\":24138:24140   */\n      0x40\n        /* \"#utility.yul\":24132:24141   */\n      mload\n        /* \"#utility.yul\":24122:24141   */\n      swap1\n      pop\n        /* \"#utility.yul\":24072:24147   */\n      swap1\n      jump\t// out\n        /* \"#utility.yul\":24153:24461   */\n    tag_376:\n        /* \"#utility.yul\":24215:24219   */\n      0x00\n        /* \"#utility.yul\":24305:24323   */\n      0xffffffffffffffff\n        /* \"#utility.yul\":24297:24303   */\n      dup3\n        /* \"#utility.yul\":24294:24324   */\n      gt\n        /* \"#utility.yul\":24291:24347   */\n      iszero\n      tag_630\n      jumpi\n        /* \"#utility.yul\":24327:24345   */\n      tag_631\n      tag_235\n      jump\t// in\n    tag_631:\n        /* \"#utility.yul\":24291:24347   */\n    tag_630:\n        /* \"#utility.yul\":24365:24394   */\n      tag_632\n        /* \"#utility.yul\":24387:24393   */\n      dup3\n        /* \"#utility.yul\":24365:24394   */\n      tag_527\n      jump\t// in\n    tag_632:\n        /* \"#utility.yul\":24357:24394   */\n      swap1\n      pop\n        /* \"#utility.yul\":24449:24453   */\n      0x20\n        /* \"#utility.yul\":24443:24447   */\n      dup2\n        /* \"#utility.yul\":24439:24454   */\n      add\n        /* \"#utility.yul\":24431:24454   */\n      swap1\n      pop\n        /* \"#utility.yul\":24153:24461   */\n      swap2\n      swap1\n      pop\n      jump\t// out\n        /* \"#utility.yul\":24467:24622   */\n    tag_493:\n        /* \"#utility.yul\":24557:24561   */\n      0x00\n        /* \"#utility.yul\":24580:24583   */\n      dup2\n        /* \"#utility.yul\":24572:24583   */\n      swap1\n      pop\n        /* \"#utility.yul\":24610:24614   */\n      0x20\n        /* \"#utility.yul\":24605:24608   */\n      dup3\n        /* \"#utility.yul\":24601:24615   */\n      add\n        /* \"#utility.yul\":24593:24615   */\n      swap1\n      pop\n        /* \"#utility.yul\":24467:24622   */\n      swap2\n      swap1\n      pop\n      jump\t// out\n        /* \"#utility.yul\":24628:24783   */\n    tag_507:\n        /* \"#utility.yul\":24718:24722   */\n      0x00\n        /* \"#utility.yul\":24741:24744   */\n      dup2\n        /* \"#utility.yul\":24733:24744   */\n      swap1\n      pop\n        /* \"#utility.yul\":24771:24775   */\n      0x20\n        /* \"#utility.yul\":24766:24769   */\n      dup3\n        /* \"#utility.yul\":24762:24776   */\n      add\n        /* \"#utility.yul\":24754:24776   */\n      swap1\n      pop\n        /* \"#utility.yul\":24628:24783   */\n      swap2\n      swap1\n      pop\n      jump\t// out\n        /* \"#utility.yul\":24789:24926   */\n    tag_489:\n        /* \"#utility.yul\":24879:24885   */\n      0x00\n        /* \"#utility.yul\":24913:24918   */\n      dup2\n        /* \"#utility.yul\":24907:24919   */\n      mload\n        /* \"#utility.yul\":24897:24919   */\n      swap1\n      pop\n        /* \"#utility.yul\":24789:24926   */\n      swap2\n      swap1\n      pop\n      jump\t// out\n        /* \"#utility.yul\":24932:25069   */\n    tag_503:\n        /* \"#utility.yul\":25022:25028   */\n      0x00\n        /* \"#utility.yul\":25056:25061   */\n      dup2\n        /* \"#utility.yul\":25050:25062   */\n      mload\n        /* \"#utility.yul\":25040:25062   */\n      swap1\n      pop\n        /* \"#utility.yul\":24932:25069   */\n      swap2\n      swap1\n      pop\n      jump\t// out\n        /* \"#utility.yul\":25075:25174   */\n    tag_521:\n        /* \"#utility.yul\":25127:25133   */\n      0x00\n        /* \"#utility.yul\":25161:25166   */\n      dup2\n        /* \"#utility.yul\":25155:25167   */\n      mload\n        /* \"#utility.yul\":25145:25167   */\n      swap1\n      pop\n        /* \"#utility.yul\":25075:25174   */\n      swap2\n      swap1\n      pop\n      jump\t// out\n        /* \"#utility.yul\":25180:25316   */\n    tag_499:\n        /* \"#utility.yul\":25273:25277   */\n      0x00\n        /* \"#utility.yul\":25305:25309   */\n      0x20\n        /* \"#utility.yul\":25300:25303   */\n      dup3\n        /* \"#utility.yul\":25296:25310   */\n      add\n        /* \"#utility.yul\":25288:25310   */\n      swap1\n      pop\n        /* \"#utility.yul\":25180:25316   */\n      swap2\n      swap1\n      pop\n      jump\t// out\n        /* \"#utility.yul\":25322:25458   */\n    tag_513:\n        /* \"#utility.yul\":25415:25419   */\n      0x00\n        /* \"#utility.yul\":25447:25451   */\n      0x20\n        /* \"#utility.yul\":25442:25445   */\n      dup3\n        /* \"#utility.yul\":25438:25452   */\n      add\n        /* \"#utility.yul\":25430:25452   */\n      swap1\n      pop\n        /* \"#utility.yul\":25322:25458   */\n      swap2\n      swap1\n      pop\n      jump\t// out\n        /* \"#utility.yul\":25464:25671   */\n    tag_491:\n        /* \"#utility.yul\":25586:25597   */\n      0x00\n        /* \"#utility.yul\":25620:25626   */\n      dup3\n        /* \"#utility.yul\":25615:25618   */\n      dup3\n        /* \"#utility.yul\":25608:25627   */\n      mstore\n        /* \"#utility.yul\":25660:25664   */\n      0x20\n        /* \"#utility.yul\":25655:25658   */\n      dup3\n        /* \"#utility.yul\":25651:25665   */\n      add\n        /* \"#utility.yul\":25636:25665   */\n      swap1\n      pop\n        /* \"#utility.yul\":25464:25671   */\n      swap3\n      swap2\n      pop\n      pop\n      jump\t// out\n        /* \"#utility.yul\":25677:25884   */\n    tag_505:\n        /* \"#utility.yul\":25799:25810   */\n      0x00\n        /* \"#utility.yul\":25833:25839   */\n      dup3\n        /* \"#utility.yul\":25828:25831   */\n      dup3\n        /* \"#utility.yul\":25821:25840   */\n      mstore\n        /* \"#utility.yul\":25873:25877   */\n      0x20\n        /* \"#utility.yul\":25868:25871   */\n      dup3\n        /* \"#utility.yul\":25864:25878   */\n      add\n        /* \"#utility.yul\":25849:25878   */\n      swap1\n      pop\n        /* \"#utility.yul\":25677:25884   */\n      swap3\n      swap2\n      pop\n      pop\n      jump\t// out\n        /* \"#utility.yul\":25890:26049   */\n    tag_523:\n        /* \"#utility.yul\":25964:25975   */\n      0x00\n        /* \"#utility.yul\":25998:26004   */\n      dup3\n        /* \"#utility.yul\":25993:25996   */\n      dup3\n        /* \"#utility.yul\":25986:26005   */\n      mstore\n        /* \"#utility.yul\":26038:26042   */\n      0x20\n        /* \"#utility.yul\":26033:26036   */\n      dup3\n        /* \"#utility.yul\":26029:26043   */\n      add\n        /* \"#utility.yul\":26014:26043   */\n      swap1\n      pop\n        /* \"#utility.yul\":25890:26049   */\n      swap3\n      swap2\n      pop\n      pop\n      jump\t// out\n        /* \"#utility.yul\":26055:26224   */\n    tag_532:\n        /* \"#utility.yul\":26139:26150   */\n      0x00\n        /* \"#utility.yul\":26173:26179   */\n      dup3\n        /* \"#utility.yul\":26168:26171   */\n      dup3\n        /* \"#utility.yul\":26161:26180   */\n      mstore\n        /* \"#utility.yul\":26213:26217   */\n      0x20\n        /* \"#utility.yul\":26208:26211   */\n      dup3\n        /* \"#utility.yul\":26204:26218   */\n      add\n        /* \"#utility.yul\":26189:26218   */\n      swap1\n      pop\n        /* \"#utility.yul\":26055:26224   */\n      swap3\n      swap2\n      pop\n      pop\n      jump\t// out\n        /* \"#utility.yul\":26230:26535   */\n    tag_175:\n        /* \"#utility.yul\":26270:26273   */\n      0x00\n        /* \"#utility.yul\":26289:26309   */\n      tag_645\n        /* \"#utility.yul\":26307:26308   */\n      dup3\n        /* \"#utility.yul\":26289:26309   */\n      tag_579\n      jump\t// in\n    tag_645:\n        /* \"#utility.yul\":26284:26309   */\n      swap2\n      pop\n        /* \"#utility.yul\":26323:26343   */\n      tag_646\n        /* \"#utility.yul\":26341:26342   */\n      dup4\n        /* \"#utility.yul\":26323:26343   */\n      tag_579\n      jump\t// in\n    tag_646:\n        /* \"#utility.yul\":26318:26343   */\n      swap3\n      pop\n        /* \"#utility.yul\":26477:26478   */\n      dup3\n        /* \"#utility.yul\":26409:26475   */\n      0xffffffffffffffffffffffffffffffffffffffffffffffffffffffffffffffff\n        /* \"#utility.yul\":26405:26479   */\n      sub\n        /* \"#utility.yul\":26402:26403   */\n      dup3\n        /* \"#utility.yul\":26399:26480   */\n      gt\n        /* \"#utility.yul\":26396:26503   */\n      iszero\n      tag_647\n      jumpi\n        /* \"#utility.yul\":26483:26501   */\n      tag_648\n      tag_649\n      jump\t// in\n    tag_648:\n        /* \"#utility.yul\":26396:26503   */\n    tag_647:\n        /* \"#utility.yul\":26527:26528   */\n      dup3\n        /* \"#utility.yul\":26524:26525   */\n      dup3\n        /* \"#utility.yul\":26520:26529   */\n      add\n        /* \"#utility.yul\":26513:26529   */\n      swap1\n      pop\n        /* \"#utility.yul\":26230:26535   */\n      swap3\n      swap2\n      pop\n      pop\n      jump\t// out\n        /* \"#utility.yul\":26541:26889   */\n    tag_173:\n        /* \"#utility.yul\":26581:26588   */\n      0x00\n        /* \"#utility.yul\":26604:26624   */\n      tag_651\n        /* \"#utility.yul\":26622:26623   */\n      dup3\n        /* \"#utility.yul\":26604:26624   */\n      tag_579\n      jump\t// in\n    tag_651:\n        /* \"#utility.yul\":26599:26624   */\n      swap2\n      pop\n        /* \"#utility.yul\":26638:26658   */\n      tag_652\n        /* \"#utility.yul\":26656:26657   */\n      dup4\n        /* \"#utility.yul\":26638:26658   */\n      tag_579\n      jump\t// in\n    tag_652:\n        /* \"#utility.yul\":26633:26658   */\n      swap3\n      pop\n        /* \"#utility.yul\":26826:26827   */\n      dup2\n        /* \"#utility.yul\":26758:26824   */\n      0xffffffffffffffffffffffffffffffffffffffffffffffffffffffffffffffff\n        /* \"#utility.yul\":26754:26828   */\n      div\n        /* \"#utility.yul\":26751:26752   */\n      dup4\n        /* \"#utility.yul\":26748:26829   */\n      gt\n        /* \"#utility.yul\":26743:26744   */\n      dup3\n        /* \"#utility.yul\":26736:26745   */\n      iszero\n        /* \"#utility.yul\":26729:26746   */\n      iszero\n        /* \"#utility.yul\":26725:26830   */\n      and\n        /* \"#utility.yul\":26722:26853   */\n      iszero\n      tag_653\n      jumpi\n        /* \"#utility.yul\":26833:26851   */\n      tag_654\n      tag_649\n      jump\t// in\n    tag_654:\n        /* \"#utility.yul\":26722:26853   */\n    tag_653:\n        /* \"#utility.yul\":26881:26882   */\n      dup3\n        /* \"#utility.yul\":26878:26879   */\n      dup3\n        /* \"#utility.yul\":26874:26883   */\n      mul\n        /* \"#utility.yul\":26863:26883   */\n      swap1\n      pop\n        /* \"#utility.yul\":26541:26889   */\n      swap3\n      swap2\n      pop\n      pop\n      jump\t// out\n        /* \"#utility.yul\":26895:27086   */\n    tag_200:\n        /* \"#utility.yul\":26935:26939   */\n      0x00\n        /* \"#utility.yul\":26955:26975   */\n      tag_656\n        /* \"#utility.yul\":26973:26974   */\n      dup3\n        /* \"#utility.yul\":26955:26975   */\n      tag_579\n      jump\t// in\n    tag_656:\n        /* \"#utility.yul\":26950:26975   */\n      swap2\n      pop\n        /* \"#utility.yul\":26989:27009   */\n      tag_657\n        /* \"#utility.yul\":27007:27008   */\n      dup4\n        /* \"#utility.yul\":26989:27009   */\n      tag_579\n      jump\t// in\n    tag_657:\n        /* \"#utility.yul\":26984:27009   */\n      swap3\n      pop\n        /* \"#utility.yul\":27028:27029   */\n      dup3\n        /* \"#utility.yul\":27025:27026   */\n      dup3\n        /* \"#utility.yul\":27022:27030   */\n      lt\n        /* \"#utility.yul\":27019:27053   */\n      iszero\n      tag_658\n      jumpi\n        /* \"#utility.yul\":27033:27051   */\n      tag_659\n      tag_649\n      jump\t// in\n    tag_659:\n        /* \"#utility.yul\":27019:27053   */\n    tag_658:\n        /* \"#utility.yul\":27078:27079   */\n      dup3\n        /* \"#utility.yul\":27075:27076   */\n      dup3\n        /* \"#utility.yul\":27071:27080   */\n      sub\n        /* \"#utility.yul\":27063:27080   */\n      swap1\n      pop\n        /* \"#utility.yul\":26895:27086   */\n      swap3\n      swap2\n      pop\n      pop\n      jump\t// out\n        /* \"#utility.yul\":27092:27188   */\n    tag_482:\n        /* \"#utility.yul\":27129:27136   */\n      0x00\n        /* \"#utility.yul\":27158:27182   */\n      tag_661\n        /* \"#utility.yul\":27176:27181   */\n      dup3\n        /* \"#utility.yul\":27158:27182   */\n      tag_662\n      jump\t// in\n    tag_661:\n        /* \"#utility.yul\":27147:27182   */\n      swap1\n      pop\n        /* \"#utility.yul\":27092:27188   */\n      swap2\n      swap1\n      pop\n      jump\t// out\n        /* \"#utility.yul\":27194:27284   */\n    tag_517:\n        /* \"#utility.yul\":27228:27235   */\n      0x00\n        /* \"#utility.yul\":27271:27276   */\n      dup2\n        /* \"#utility.yul\":27264:27277   */\n      iszero\n        /* \"#utility.yul\":27257:27278   */\n      iszero\n        /* \"#utility.yul\":27246:27278   */\n      swap1\n      pop\n        /* \"#utility.yul\":27194:27284   */\n      swap2\n      swap1\n      pop\n      jump\t// out\n        /* \"#utility.yul\":27290:27416   */\n    tag_662:\n        /* \"#utility.yul\":27327:27334   */\n      0x00\n        /* \"#utility.yul\":27367:27409   */\n      0xffffffffffffffffffffffffffffffffffffffff\n        /* \"#utility.yul\":27360:27365   */\n      dup3\n        /* \"#utility.yul\":27356:27410   */\n      and\n        /* \"#utility.yul\":27345:27410   */\n      swap1\n      pop\n        /* \"#utility.yul\":27290:27416   */\n      swap2\n      swap1\n      pop\n      jump\t// out\n        /* \"#utility.yul\":27422:27499   */\n    tag_579:\n        /* \"#utility.yul\":27459:27466   */\n      0x00\n        /* \"#utility.yul\":27488:27493   */\n      dup2\n        /* \"#utility.yul\":27477:27493   */\n      swap1\n      pop\n        /* \"#utility.yul\":27422:27499   */\n      swap2\n      swap1\n      pop\n      jump\t// out\n        /* \"#utility.yul\":27505:27659   */\n    tag_382:\n        /* \"#utility.yul\":27589:27595   */\n      dup3\n        /* \"#utility.yul\":27584:27587   */\n      dup2\n        /* \"#utility.yul\":27579:27582   */\n      dup4\n        /* \"#utility.yul\":27566:27596   */\n      calldatacopy\n        /* \"#utility.yul\":27651:27652   */\n      0x00\n        /* \"#utility.yul\":27642:27648   */\n      dup4\n        /* \"#utility.yul\":27637:27640   */\n      dup4\n        /* \"#utility.yul\":27633:27649   */\n      add\n        /* \"#utility.yul\":27626:27653   */\n      mstore\n        /* \"#utility.yul\":27505:27659   */\n      pop\n      pop\n      pop\n      jump\t// out\n        /* \"#utility.yul\":27665:27972   */\n    tag_525:\n        /* \"#utility.yul\":27733:27734   */\n      0x00\n        /* \"#utility.yul\":27743:27856   */\n    tag_668:\n        /* \"#utility.yul\":27757:27763   */\n      dup4\n        /* \"#utility.yul\":27754:27755   */\n      dup2\n        /* \"#utility.yul\":27751:27764   */\n      lt\n        /* \"#utility.yul\":27743:27856   */\n      iszero\n      tag_670\n      jumpi\n        /* \"#utility.yul\":27842:27843   */\n      dup1\n        /* \"#utility.yul\":27837:27840   */\n      dup3\n        /* \"#utility.yul\":27833:27844   */\n      add\n        /* \"#utility.yul\":27827:27845   */\n      mload\n        /* \"#utility.yul\":27823:27824   */\n      dup2\n        /* \"#utility.yul\":27818:27821   */\n      dup5\n        /* \"#utility.yul\":27814:27825   */\n      add\n        /* \"#utility.yul\":27807:27846   */\n      mstore\n        /* \"#utility.yul\":27779:27781   */\n      0x20\n        /* \"#utility.yul\":27776:27777   */\n      dup2\n        /* \"#utility.yul\":27772:27782   */\n      add\n        /* \"#utility.yul\":27767:27782   */\n      swap1\n      pop\n        /* \"#utility.yul\":27743:27856   */\n      jump(tag_668)\n    tag_670:\n        /* \"#utility.yul\":27874:27880   */\n      dup4\n        /* \"#utility.yul\":27871:27872   */\n      dup2\n        /* \"#utility.yul\":27868:27881   */\n      gt\n        /* \"#utility.yul\":27865:27966   */\n      iszero\n      tag_671\n      jumpi\n        /* \"#utility.yul\":27954:27955   */\n      0x00\n        /* \"#utility.yul\":27945:27951   */\n      dup5\n        /* \"#utility.yul\":27940:27943   */\n      dup5\n        /* \"#utility.yul\":27936:27952   */\n      add\n        /* \"#utility.yul\":27929:27956   */\n      mstore\n        /* \"#utility.yul\":27865:27966   */\n    tag_671:\n        /* \"#utility.yul\":27714:27972   */\n      pop\n        /* \"#utility.yul\":27665:27972   */\n      pop\n      pop\n      pop\n      jump\t// out\n        /* \"#utility.yul\":27978:28298   */\n    tag_179:\n        /* \"#utility.yul\":28022:28028   */\n      0x00\n        /* \"#utility.yul\":28059:28060   */\n      0x02\n        /* \"#utility.yul\":28053:28057   */\n      dup3\n        /* \"#utility.yul\":28049:28061   */\n      div\n        /* \"#utility.yul\":28039:28061   */\n      swap1\n      pop\n        /* \"#utility.yul\":28106:28107   */\n      0x01\n        /* \"#utility.yul\":28100:28104   */\n      dup3\n        /* \"#utility.yul\":28096:28108   */\n      and\n        /* \"#utility.yul\":28127:28145   */\n      dup1\n        /* \"#utility.yul\":28117:28198   */\n      tag_673\n      jumpi\n        /* \"#utility.yul\":28183:28187   */\n      0x7f\n        /* \"#utility.yul\":28175:28181   */\n      dup3\n        /* \"#utility.yul\":28171:28188   */\n      and\n        /* \"#utility.yul\":28161:28188   */\n      swap2\n      pop\n        /* \"#utility.yul\":28117:28198   */\n    tag_673:\n        /* \"#utility.yul\":28245:28247   */\n      0x20\n        /* \"#utility.yul\":28237:28243   */\n      dup3\n        /* \"#utility.yul\":28234:28248   */\n      lt\n        /* \"#utility.yul\":28214:28232   */\n      dup2\n        /* \"#utility.yul\":28211:28249   */\n      eq\n        /* \"#utility.yul\":28208:28292   */\n      iszero\n      tag_674\n      jumpi\n        /* \"#utility.yul\":28264:28282   */\n      tag_675\n      tag_676\n      jump\t// in\n    tag_675:\n        /* \"#utility.yul\":28208:28292   */\n    tag_674:\n        /* \"#utility.yul\":28029:28298   */\n      pop\n        /* \"#utility.yul\":27978:28298   */\n      swap2\n      swap1\n      pop\n      jump\t// out\n        /* \"#utility.yul\":28304:28585   */\n    tag_627:\n        /* \"#utility.yul\":28387:28414   */\n      tag_678\n        /* \"#utility.yul\":28409:28413   */\n      dup3\n        /* \"#utility.yul\":28387:28414   */\n      tag_527\n      jump\t// in\n    tag_678:\n        /* \"#utility.yul\":28379:28385   */\n      dup2\n        /* \"#utility.yul\":28375:28415   */\n      add\n        /* \"#utility.yul\":28517:28523   */\n      dup2\n        /* \"#utility.yul\":28505:28515   */\n      dup2\n        /* \"#utility.yul\":28502:28524   */\n      lt\n        /* \"#utility.yul\":28481:28499   */\n      0xffffffffffffffff\n        /* \"#utility.yul\":28469:28479   */\n      dup3\n        /* \"#utility.yul\":28466:28500   */\n      gt\n        /* \"#utility.yul\":28463:28525   */\n      or\n        /* \"#utility.yul\":28460:28548   */\n      iszero\n      tag_679\n      jumpi\n        /* \"#utility.yul\":28528:28546   */\n      tag_680\n      tag_235\n      jump\t// in\n    tag_680:\n        /* \"#utility.yul\":28460:28548   */\n    tag_679:\n        /* \"#utility.yul\":28568:28578   */\n      dup1\n        /* \"#utility.yul\":28564:28566   */\n      0x40\n        /* \"#utility.yul\":28557:28579   */\n      mstore\n        /* \"#utility.yul\":28347:28585   */\n      pop\n        /* \"#utility.yul\":28304:28585   */\n      pop\n      pop\n      jump\t// out\n        /* \"#utility.yul\":28591:28824   */\n    tag_254:\n        /* \"#utility.yul\":28630:28633   */\n      0x00\n        /* \"#utility.yul\":28653:28677   */\n      tag_682\n        /* \"#utility.yul\":28671:28676   */\n      dup3\n        /* \"#utility.yul\":28653:28677   */\n      tag_579\n      jump\t// in\n    tag_682:\n        /* \"#utility.yul\":28644:28677   */\n      swap2\n      pop\n        /* \"#utility.yul\":28699:28765   */\n      0xffffffffffffffffffffffffffffffffffffffffffffffffffffffffffffffff\n        /* \"#utility.yul\":28692:28697   */\n      dup3\n        /* \"#utility.yul\":28689:28766   */\n      eq\n        /* \"#utility.yul\":28686:28789   */\n      iszero\n      tag_683\n      jumpi\n        /* \"#utility.yul\":28769:28787   */\n      tag_684\n      tag_649\n      jump\t// in\n    tag_684:\n        /* \"#utility.yul\":28686:28789   */\n    tag_683:\n        /* \"#utility.yul\":28816:28817   */\n      0x01\n        /* \"#utility.yul\":28809:28814   */\n      dup3\n        /* \"#utility.yul\":28805:28818   */\n      add\n        /* \"#utility.yul\":28798:28818   */\n      swap1\n      pop\n        /* \"#utility.yul\":28591:28824   */\n      swap2\n      swap1\n      pop\n      jump\t// out\n        /* \"#utility.yul\":28830:29010   */\n    tag_649:\n        /* \"#utility.yul\":28878:28955   */\n      0x4e487b7100000000000000000000000000000000000000000000000000000000\n        /* \"#utility.yul\":28875:28876   */\n      0x00\n        /* \"#utility.yul\":28868:28956   */\n      mstore\n        /* \"#utility.yul\":28975:28979   */\n      0x11\n        /* \"#utility.yul\":28972:28973   */\n      0x04\n        /* \"#utility.yul\":28965:28980   */\n      mstore\n        /* \"#utility.yul\":28999:29003   */\n      0x24\n        /* \"#utility.yul\":28996:28997   */\n      0x00\n        /* \"#utility.yul\":28989:29004   */\n      revert\n        /* \"#utility.yul\":29016:29196   */\n    tag_676:\n        /* \"#utility.yul\":29064:29141   */\n      0x4e487b7100000000000000000000000000000000000000000000000000000000\n        /* \"#utility.yul\":29061:29062   */\n      0x00\n        /* \"#utility.yul\":29054:29142   */\n      mstore\n        /* \"#utility.yul\":29161:29165   */\n      0x22\n        /* \"#utility.yul\":29158:29159   */\n      0x04\n        /* \"#utility.yul\":29151:29166   */\n      mstore\n        /* \"#utility.yul\":29185:29189   */\n      0x24\n        /* \"#utility.yul\":29182:29183   */\n      0x00\n        /* \"#utility.yul\":29175:29190   */\n      revert\n        /* \"#utility.yul\":29202:29382   */\n    tag_252:\n        /* \"#utility.yul\":29250:29327   */\n      0x4e487b7100000000000000000000000000000000000000000000000000000000\n        /* \"#utility.yul\":29247:29248   */\n      0x00\n        /* \"#utility.yul\":29240:29328   */\n      mstore\n        /* \"#utility.yul\":29347:29351   */\n      0x32\n        /* \"#utility.yul\":29344:29345   */\n      0x04\n        /* \"#utility.yul\":29337:29352   */\n      mstore\n        /* \"#utility.yul\":29371:29375   */\n      0x24\n        /* \"#utility.yul\":29368:29369   */\n      0x00\n        /* \"#utility.yul\":29361:29376   */\n      revert\n        /* \"#utility.yul\":29388:29568   */\n    tag_235:\n        /* \"#utility.yul\":29436:29513   */\n      0x4e487b7100000000000000000000000000000000000000000000000000000000\n        /* \"#utility.yul\":29433:29434   */\n      0x00\n        /* \"#utility.yul\":29426:29514   */\n      mstore\n        /* \"#utility.yul\":29533:29537   */\n      0x41\n        /* \"#utility.yul\":29530:29531   */\n      0x04\n        /* \"#utility.yul\":29523:29538   */\n      mstore\n        /* \"#utility.yul\":29557:29561   */\n      0x24\n        /* \"#utility.yul\":29554:29555   */\n      0x00\n        /* \"#utility.yul\":29547:29562   */\n      revert\n        /* \"#utility.yul\":29574:29691   */\n    tag_391:\n        /* \"#utility.yul\":29683:29684   */\n      0x00\n        /* \"#utility.yul\":29680:29681   */\n      dup1\n        /* \"#utility.yul\":29673:29685   */\n      revert\n        /* \"#utility.yul\":29697:29814   */\n    tag_380:\n        /* \"#utility.yul\":29806:29807   */\n      0x00\n        /* \"#utility.yul\":29803:29804   */\n      dup1\n        /* \"#utility.yul\":29796:29808   */\n      revert\n        /* \"#utility.yul\":29820:29937   */\n    tag_424:\n        /* \"#utility.yul\":29929:29930   */\n      0x00\n        /* \"#utility.yul\":29926:29927   */\n      dup1\n        /* \"#utility.yul\":29919:29931   */\n      revert\n        /* \"#utility.yul\":29943:30060   */\n    tag_400:\n        /* \"#utility.yul\":30052:30053   */\n      0x00\n        /* \"#utility.yul\":30049:30050   */\n      dup1\n        /* \"#utility.yul\":30042:30054   */\n      revert\n        /* \"#utility.yul\":30066:30168   */\n    tag_527:\n        /* \"#utility.yul\":30107:30113   */\n      0x00\n        /* \"#utility.yul\":30158:30160   */\n      0x1f\n        /* \"#utility.yul\":30154:30161   */\n      not\n        /* \"#utility.yul\":30149:30151   */\n      0x1f\n        /* \"#utility.yul\":30142:30147   */\n      dup4\n        /* \"#utility.yul\":30138:30152   */\n      add\n        /* \"#utility.yul\":30134:30162   */\n      and\n        /* \"#utility.yul\":30124:30162   */\n      swap1\n      pop\n        /* \"#utility.yul\":30066:30168   */\n      swap2\n      swap1\n      pop\n      jump\t// out\n        /* \"#utility.yul\":30174:30341   */\n    tag_539:\n        /* \"#utility.yul\":30314:30333   */\n      0x596f752063616e4e6f742044656c657465000000000000000000000000000000\n        /* \"#utility.yul\":30310:30311   */\n      0x00\n        /* \"#utility.yul\":30302:30308   */\n      dup3\n        /* \"#utility.yul\":30298:30312   */\n      add\n        /* \"#utility.yul\":30291:30334   */\n      mstore\n        /* \"#utility.yul\":30174:30341   */\n      pop\n      jump\t// out\n        /* \"#utility.yul\":30347:30570   */\n    tag_544:\n        /* \"#utility.yul\":30487:30521   */\n      0x506c656173652053656c6c6563742074686520636f7272656374205265636570\n        /* \"#utility.yul\":30483:30484   */\n      0x00\n        /* \"#utility.yul\":30475:30481   */\n      dup3\n        /* \"#utility.yul\":30471:30485   */\n      add\n        /* \"#utility.yul\":30464:30522   */\n      mstore\n        /* \"#utility.yul\":30556:30562   */\n      0x69656e7400000000000000000000000000000000000000000000000000000000\n        /* \"#utility.yul\":30551:30553   */\n      0x20\n        /* \"#utility.yul\":30543:30549   */\n      dup3\n        /* \"#utility.yul\":30539:30554   */\n      add\n        /* \"#utility.yul\":30532:30563   */\n      mstore\n        /* \"#utility.yul\":30347:30570   */\n      pop\n      jump\t// out\n        /* \"#utility.yul\":30576:30754   */\n    tag_549:\n        /* \"#utility.yul\":30716:30746   */\n      0x596f7520617265204f776e6572206f6620746869732054656e64657200000000\n        /* \"#utility.yul\":30712:30713   */\n      0x00\n        /* \"#utility.yul\":30704:30710   */\n      dup3\n        /* \"#utility.yul\":30700:30714   */\n      add\n        /* \"#utility.yul\":30693:30747   */\n      mstore\n        /* \"#utility.yul\":30576:30754   */\n      pop\n      jump\t// out\n        /* \"#utility.yul\":30760:30981   */\n    tag_554:\n        /* \"#utility.yul\":30900:30934   */\n      0x596f7520416c7265616479204170706c7920666f722074686973205265717565\n        /* \"#utility.yul\":30896:30897   */\n      0x00\n        /* \"#utility.yul\":30888:30894   */\n      dup3\n        /* \"#utility.yul\":30884:30898   */\n      add\n        /* \"#utility.yul\":30877:30935   */\n      mstore\n        /* \"#utility.yul\":30969:30973   */\n      0x7374000000000000000000000000000000000000000000000000000000000000\n        /* \"#utility.yul\":30964:30966   */\n      0x20\n        /* \"#utility.yul\":30956:30962   */\n      dup3\n        /* \"#utility.yul\":30952:30967   */\n      add\n        /* \"#utility.yul\":30945:30974   */\n      mstore\n        /* \"#utility.yul\":30760:30981   */\n      pop\n      jump\t// out\n        /* \"#utility.yul\":30987:31156   */\n    tag_559:\n        /* \"#utility.yul\":31127:31148   */\n      0x596f7520616c7265616479207061796d656e7400000000000000000000000000\n        /* \"#utility.yul\":31123:31124   */\n      0x00\n        /* \"#utility.yul\":31115:31121   */\n      dup3\n        /* \"#utility.yul\":31111:31125   */\n      add\n        /* \"#utility.yul\":31104:31149   */\n      mstore\n        /* \"#utility.yul\":30987:31156   */\n      pop\n      jump\t// out\n        /* \"#utility.yul\":31162:31284   */\n    tag_386:\n        /* \"#utility.yul\":31235:31259   */\n      tag_700\n        /* \"#utility.yul\":31253:31258   */\n      dup2\n        /* \"#utility.yul\":31235:31259   */\n      tag_482\n      jump\t// in\n    tag_700:\n        /* \"#utility.yul\":31228:31233   */\n      dup2\n        /* \"#utility.yul\":31225:31260   */\n      eq\n        /* \"#utility.yul\":31215:31278   */\n      tag_701\n      jumpi\n        /* \"#utility.yul\":31274:31275   */\n      0x00\n        /* \"#utility.yul\":31271:31272   */\n      dup1\n        /* \"#utility.yul\":31264:31276   */\n      revert\n        /* \"#utility.yul\":31215:31278   */\n    tag_701:\n        /* \"#utility.yul\":31162:31284   */\n      pop\n      jump\t// out\n        /* \"#utility.yul\":31290:31412   */\n    tag_396:\n        /* \"#utility.yul\":31363:31387   */\n      tag_703\n        /* \"#utility.yul\":31381:31386   */\n      dup2\n        /* \"#utility.yul\":31363:31387   */\n      tag_579\n      jump\t// in\n    tag_703:\n        /* \"#utility.yul\":31356:31361   */\n      dup2\n        /* \"#utility.yul\":31353:31388   */\n      eq\n        /* \"#utility.yul\":31343:31406   */\n      tag_704\n      jumpi\n        /* \"#utility.yul\":31402:31403   */\n      0x00\n        /* \"#utility.yul\":31399:31400   */\n      dup1\n        /* \"#utility.yul\":31392:31404   */\n      revert\n        /* \"#utility.yul\":31343:31406   */\n    tag_704:\n        /* \"#utility.yul\":31290:31412   */\n      pop\n      jump\t// out\n\n    auxdata: 0xa264697066735822122087d26e1e45a974b33b7b561db0baaff8e971b828bcd7085848e661602104fe7a64736f6c63430008070033\n}\n",
				"bytecode": {
					"linkReferences": {},
					"object": "608060405234801561001057600080fd5b5030600260006101000a81548173ffffffffffffffffffffffffffffffffffffffff021916908373ffffffffffffffffffffffffffffffffffffffff16021790555061381a806100616000396000f3fe6080604052600436106101815760003560e01c80639d6d10f9116100d1578063bc16aad71161008a578063d0c3e90911610064578063d0c3e90914610638578063d60f5a3814610675578063d7add75f14610691578063ffd64f8a146106bc57610181565b8063bc16aad7146105a7578063cf507bfb146105d2578063d0c343d6146105fb57610181565b80639d6d10f91461044d5780639fff963e1461048a578063a06c5e3d146104c7578063a56d6544146104f0578063b19781fe1461052d578063b28189fa1461056a57610181565b8063301822351161013e57806352943ff51161011857806352943ff5146103635780635af77fff146103a857806375772c47146103d357806386e9ff0a1461041057610181565b806330182235146102be57806340f12058146102fd5780634fcb4a581461033a57610181565b80630c4a333814610186578063168d5d34146101c35780631a4b3311146102045780631a779488146102415780632302ec7e1461026a57806325af031614610293575b600080fd5b34801561019257600080fd5b506101ad60048036038101906101a89190612a94565b6106f9565b6040516101ba91906130db565b60405180910390f35b3480156101cf57600080fd5b506101ea60048036038101906101e59190612bbb565b610758565b6040516101fb959493929190613253565b60405180910390f35b34801561021057600080fd5b5061022b600480360381019061022691906128a0565b610843565b6040516102389190613196565b60405180910390f35b34801561024d57600080fd5b50610268600480360381019061026391906129b3565b61085b565b005b34801561027657600080fd5b50610291600480360381019061028c9190612a94565b610a13565b005b34801561029f57600080fd5b506102a8610cb5565b6040516102b59190613196565b60405180910390f35b3480156102ca57600080fd5b506102e560048036038101906102e09190612ac1565b610cc1565b6040516102f493929190613060565b60405180910390f35b34801561030957600080fd5b50610324600480360381019061031f9190612920565b610d25565b60405161033191906130db565b60405180910390f35b34801561034657600080fd5b50610361600480360381019061035c9190612bfb565b610d54565b005b34801561036f57600080fd5b5061038a60048036038101906103859190612a94565b6110df565b60405161039f999897969594939291906131b1565b60405180910390f35b3480156103b457600080fd5b506103bd6112e5565b6040516103ca9190613045565b60405180910390f35b3480156103df57600080fd5b506103fa60048036038101906103f59190612920565b61130b565b60405161040791906130db565b60405180910390f35b34801561041c57600080fd5b5061043760048036038101906104329190612a94565b61133a565b60405161044491906130b9565b60405180910390f35b34801561045957600080fd5b50610474600480360381019061046f91906128a0565b61156e565b6040516104819190613196565b60405180910390f35b34801561049657600080fd5b506104b160048036038101906104ac9190612ac1565b611586565b6040516104be9190613196565b60405180910390f35b3480156104d357600080fd5b506104ee60048036038101906104e99190612b54565b6115ab565b005b3480156104fc57600080fd5b5061051760048036038101906105129190612960565b6117b8565b60405161052491906130db565b60405180910390f35b34801561053957600080fd5b50610554600480360381019061054f91906128a0565b6117f4565b6040516105619190613196565b60405180910390f35b34801561057657600080fd5b50610591600480360381019061058c9190612b01565b61180c565b60405161059e91906130db565b60405180910390f35b3480156105b357600080fd5b506105bc6118b2565b6040516105c99190613097565b60405180910390f35b3480156105de57600080fd5b506105f960048036038101906105f49190612bfb565b611bd2565b005b34801561060757600080fd5b50610622600480360381019061061d91906128a0565b611d0e565b60405161062f91906130b9565b60405180910390f35b34801561064457600080fd5b5061065f600480360381019061065a91906128a0565b611fe5565b60405161066c9190613097565b60405180910390f35b61068f600480360381019061068a91906128cd565b6123a8565b005b34801561069d57600080fd5b506106a6612634565b6040516106b39190613196565b60405180910390f35b3480156106c857600080fd5b506106e360048036038101906106de9190612a94565b612640565b6040516106f09190613196565b60405180910390f35b600042603c600660008581526020019081526020016000206004015461071f91906133f8565b600660008581526020019081526020016000206005015461074091906133a2565b1161074e5760009050610753565b600190505b919050565b60076020528160005260406000206020528060005260406000206000915091505080600001549080600101549080600201805461079490613510565b80601f01602080910402602001604051908101604052809291908181526020018280546107c090613510565b801561080d5780601f106107e25761010080835404028352916020019161080d565b820191906000526020600020905b8154815290600101906020018083116107f057829003601f168201915b5050505050908060030160009054906101000a900473ffffffffffffffffffffffffffffffffffffffff16908060040154905085565b60096020528060005260406000206000915090505481565b6108656000612658565b6001600360003373ffffffffffffffffffffffffffffffffffffffff1673ffffffffffffffffffffffffffffffffffffffff16815260200190815260200160002060008282546108b591906133a2565b925050819055506040518061012001604052806108d2600061266e565b81526020018781526020018681526020018581526020018481526020014281526020018381526020018281526020013373ffffffffffffffffffffffffffffffffffffffff1681525060066000610929600061266e565b815260200190815260200160002060008201518160000155602082015181600101908051906020019061095d92919061267c565b5060408201518160020155606082015181600301556080820151816004015560a0820151816005015560c08201518160060190805190602001906109a292919061267c565b5060e08201518160070190805190602001906109bf92919061267c565b506101008201518160080160006101000a81548173ffffffffffffffffffffffffffffffffffffffff021916908373ffffffffffffffffffffffffffffffffffffffff160217905550905050505050505050565b600860003373ffffffffffffffffffffffffffffffffffffffff1673ffffffffffffffffffffffffffffffffffffffff168152602001908152602001600020600082815260200190815260200160002060009054906101000a900460ff16610ab0576040517f08c379a0000000000000000000000000000000000000000000000000000000008152600401610aa7906130f6565b60405180910390fd5b6001600960003373ffffffffffffffffffffffffffffffffffffffff1673ffffffffffffffffffffffffffffffffffffffff1681526020019081526020016000206000828254610b009190613452565b925050819055506001600560008381526020019081526020016000206000828254610b2b9190613452565b925050819055506000600860003373ffffffffffffffffffffffffffffffffffffffff1673ffffffffffffffffffffffffffffffffffffffff168152602001908152602001600020600083815260200190815260200160002060006101000a81548160ff02191690831515021790555060076000600a600084815260200190815260200160002060003373ffffffffffffffffffffffffffffffffffffffff1673ffffffffffffffffffffffffffffffffffffffff16815260200190815260200160002054815260200190815260200160002060008281526020019081526020016000206000808201600090556001820160009055600282016000610c309190612702565b6003820160006101000a81549073ffffffffffffffffffffffffffffffffffffffff021916905560048201600090555050600a600082815260200190815260200160002060003373ffffffffffffffffffffffffffffffffffffffff1673ffffffffffffffffffffffffffffffffffffffff1681526020019081526020016000205050565b60018060000154905081565b600b602052816000526040600020602052806000526040600020600091509150508060000160009054906101000a900473ffffffffffffffffffffffffffffffffffffffff16908060010154908060020160009054906101000a900460ff16905083565b60086020528160005260406000206020528060005260406000206000915091509054906101000a900460ff1681565b600860003373ffffffffffffffffffffffffffffffffffffffff1673ffffffffffffffffffffffffffffffffffffffff168152602001908152602001600020600085815260200190815260200160002060009054906101000a900460ff1615610df2576040517f08c379a0000000000000000000000000000000000000000000000000000000008152600401610de990613156565b60405180910390fd5b3373ffffffffffffffffffffffffffffffffffffffff166006600086815260200190815260200160002060080160009054906101000a900473ffffffffffffffffffffffffffffffffffffffff1673ffffffffffffffffffffffffffffffffffffffff161415610e97576040517f08c379a0000000000000000000000000000000000000000000000000000000008152600401610e8e90613136565b60405180910390fd5b610ea16001612658565b6001600860003373ffffffffffffffffffffffffffffffffffffffff1673ffffffffffffffffffffffffffffffffffffffff168152602001908152602001600020600086815260200190815260200160002060006101000a81548160ff0219169083151502179055506001600560008681526020019081526020016000206000828254610f2e91906133a2565b925050819055506001600960003373ffffffffffffffffffffffffffffffffffffffff1673ffffffffffffffffffffffffffffffffffffffff1681526020019081526020016000206000828254610f8591906133a2565b92505081905550610f96600161266e565b600a600086815260200190815260200160002060003373ffffffffffffffffffffffffffffffffffffffff1673ffffffffffffffffffffffffffffffffffffffff168152602001908152602001600020819055506040518060a001604052808581526020018481526020018381526020013373ffffffffffffffffffffffffffffffffffffffff1681526020018281525060076000611035600161266e565b815260200190815260200160002060008681526020019081526020016000206000820151816000015560208201518160010155604082015181600201908051906020019061108492919061267c565b5060608201518160030160006101000a81548173ffffffffffffffffffffffffffffffffffffffff021916908373ffffffffffffffffffffffffffffffffffffffff1602179055506080820151816004015590505050505050565b600660205280600052604060002060009150905080600001549080600101805461110890613510565b80601f016020809104026020016040519081016040528092919081815260200182805461113490613510565b80156111815780601f1061115657610100808354040283529160200191611181565b820191906000526020600020905b81548152906001019060200180831161116457829003601f168201915b5050505050908060020154908060030154908060040154908060050154908060060180546111ae90613510565b80601f01602080910402602001604051908101604052809291908181526020018280546111da90613510565b80156112275780601f106111fc57610100808354040283529160200191611227565b820191906000526020600020905b81548152906001019060200180831161120a57829003601f168201915b50505050509080600701805461123c90613510565b80601f016020809104026020016040519081016040528092919081815260200182805461126890613510565b80156112b55780601f1061128a576101008083540402835291602001916112b5565b820191906000526020600020905b81548152906001019060200180831161129857829003601f168201915b5050505050908060080160009054906101000a900473ffffffffffffffffffffffffffffffffffffffff16905089565b600260009054906101000a900473ffffffffffffffffffffffffffffffffffffffff1681565b60046020528160005260406000206020528060005260406000206000915091509054906101000a900460ff1681565b60606000600560008481526020019081526020016000205467ffffffffffffffff81111561136b5761136a613649565b5b6040519080825280602002602001820160405280156113a457816020015b611391612742565b8152602001906001900390816113895790505b509050600080600190505b6113b9600161266e565b81116115635760076000828152602001908152602001600020600086815260200190815260200160002060000154851415611550576007600082815260200190815260200160002060008681526020019081526020016000206040518060a0016040529081600082015481526020016001820154815260200160028201805461144190613510565b80601f016020809104026020016040519081016040528092919081815260200182805461146d90613510565b80156114ba5780601f1061148f576101008083540402835291602001916114ba565b820191906000526020600020905b81548152906001019060200180831161149d57829003601f168201915b505050505081526020016003820160009054906101000a900473ffffffffffffffffffffffffffffffffffffffff1673ffffffffffffffffffffffffffffffffffffffff1673ffffffffffffffffffffffffffffffffffffffff1681526020016004820154815250508383815181106115365761153561361a565b5b6020026020010181905250818061154c90613573565b9250505b808061155b90613573565b9150506113af565b508192505050919050565b600d6020528060005260406000206000915090505481565b600a602052816000526040600020602052806000526040600020600091509150505481565b60405180606001604052808473ffffffffffffffffffffffffffffffffffffffff16815260200182815260200160011515815250600b600086815260200190815260200160002060008473ffffffffffffffffffffffffffffffffffffffff1673ffffffffffffffffffffffffffffffffffffffff16815260200190815260200160002060008201518160000160006101000a81548173ffffffffffffffffffffffffffffffffffffffff021916908373ffffffffffffffffffffffffffffffffffffffff1602179055506020820151816001015560408201518160020160006101000a81548160ff0219169083151502179055509050506001600460008473ffffffffffffffffffffffffffffffffffffffff1673ffffffffffffffffffffffffffffffffffffffff168152602001908152602001600020600086815260200190815260200160002060006101000a81548160ff0219169083151502179055506001600c60008473ffffffffffffffffffffffffffffffffffffffff1673ffffffffffffffffffffffffffffffffffffffff168152602001908152602001600020600086815260200190815260200160002060008573ffffffffffffffffffffffffffffffffffffffff1673ffffffffffffffffffffffffffffffffffffffff16815260200190815260200160002060006101000a81548160ff02191690831515021790555050505050565b600c602052826000526040600020602052816000526040600020602052806000526040600020600092509250509054906101000a900460ff1681565b60036020528060005260406000206000915090505481565b6000600c60008373ffffffffffffffffffffffffffffffffffffffff1673ffffffffffffffffffffffffffffffffffffffff168152602001908152602001600020600085815260200190815260200160002060008473ffffffffffffffffffffffffffffffffffffffff1673ffffffffffffffffffffffffffffffffffffffff16815260200190815260200160002060009054906101000a900460ff1690509392505050565b606060006118c0600061266e565b67ffffffffffffffff8111156118d9576118d8613649565b5b60405190808252806020026020018201604052801561191257816020015b6118ff612787565b8152602001906001900390816118f75790505b509050600080600190505b611927600061266e565b8111611bc95760066000828152602001908152602001600020604051806101200160405290816000820154815260200160018201805461196690613510565b80601f016020809104026020016040519081016040528092919081815260200182805461199290613510565b80156119df5780601f106119b4576101008083540402835291602001916119df565b820191906000526020600020905b8154815290600101906020018083116119c257829003601f168201915b5050505050815260200160028201548152602001600382015481526020016004820154815260200160058201548152602001600682018054611a2090613510565b80601f0160208091040260200160405190810160405280929190818152602001828054611a4c90613510565b8015611a995780601f10611a6e57610100808354040283529160200191611a99565b820191906000526020600020905b815481529060010190602001808311611a7c57829003601f168201915b50505050508152602001600782018054611ab290613510565b80601f0160208091040260200160405190810160405280929190818152602001828054611ade90613510565b8015611b2b5780601f10611b0057610100808354040283529160200191611b2b565b820191906000526020600020905b815481529060010190602001808311611b0e57829003601f168201915b505050505081526020016008820160009054906101000a900473ffffffffffffffffffffffffffffffffffffffff1673ffffffffffffffffffffffffffffffffffffffff1673ffffffffffffffffffffffffffffffffffffffff1681525050838381518110611b9d57611b9c61361a565b5b60200260200101819052508180611bb390613573565b9250508080611bc190613573565b91505061191d565b50819250505090565b6040518060a001604052808581526020018481526020018381526020013373ffffffffffffffffffffffffffffffffffffffff1681526020018281525060076000600a600088815260200190815260200160002060003373ffffffffffffffffffffffffffffffffffffffff1673ffffffffffffffffffffffffffffffffffffffff168152602001908152602001600020548152602001908152602001600020600086815260200190815260200160002060008201518160000155602082015181600101556040820151816002019080519060200190611cb392919061267c565b5060608201518160030160006101000a81548173ffffffffffffffffffffffffffffffffffffffff021916908373ffffffffffffffffffffffffffffffffffffffff1602179055506080820151816004015590505050505050565b60606000600960008473ffffffffffffffffffffffffffffffffffffffff1673ffffffffffffffffffffffffffffffffffffffff1681526020019081526020016000205467ffffffffffffffff811115611d6b57611d6a613649565b5b604051908082528060200260200182016040528015611da457816020015b611d91612742565b815260200190600190039081611d895790505b509050600080600190505b611db9600061266e565b8111611fda576000600190505b611dd0600161266e565b8111611fc65760076000828152602001908152602001600020600083815260200190815260200160002060030160009054906101000a900473ffffffffffffffffffffffffffffffffffffffff1673ffffffffffffffffffffffffffffffffffffffff168673ffffffffffffffffffffffffffffffffffffffff161415611fb3576007600082815260200190815260200160002060008381526020019081526020016000206040518060a00160405290816000820154815260200160018201548152602001600282018054611ea490613510565b80601f0160208091040260200160405190810160405280929190818152602001828054611ed090613510565b8015611f1d5780601f10611ef257610100808354040283529160200191611f1d565b820191906000526020600020905b815481529060010190602001808311611f0057829003601f168201915b505050505081526020016003820160009054906101000a900473ffffffffffffffffffffffffffffffffffffffff1673ffffffffffffffffffffffffffffffffffffffff1673ffffffffffffffffffffffffffffffffffffffff168152602001600482015481525050848481518110611f9957611f9861361a565b5b60200260200101819052508280611faf90613573565b9350505b8080611fbe90613573565b915050611dc6565b508080611fd290613573565b915050611daf565b508192505050919050565b60606000600360008473ffffffffffffffffffffffffffffffffffffffff1673ffffffffffffffffffffffffffffffffffffffff1681526020019081526020016000205467ffffffffffffffff81111561204257612041613649565b5b60405190808252806020026020018201604052801561207b57816020015b612068612787565b8152602001906001900390816120605790505b509050600080600190505b612090600061266e565b811161239d576006600082815260200190815260200160002060080160009054906101000a900473ffffffffffffffffffffffffffffffffffffffff1673ffffffffffffffffffffffffffffffffffffffff168573ffffffffffffffffffffffffffffffffffffffff16141561238a5760066000828152602001908152602001600020604051806101200160405290816000820154815260200160018201805461213990613510565b80601f016020809104026020016040519081016040528092919081815260200182805461216590613510565b80156121b25780601f10612187576101008083540402835291602001916121b2565b820191906000526020600020905b81548152906001019060200180831161219557829003601f168201915b50505050508152602001600282015481526020016003820154815260200160048201548152602001600582015481526020016006820180546121f390613510565b80601f016020809104026020016040519081016040528092919081815260200182805461221f90613510565b801561226c5780601f106122415761010080835404028352916020019161226c565b820191906000526020600020905b81548152906001019060200180831161224f57829003601f168201915b5050505050815260200160078201805461228590613510565b80601f01602080910402602001604051908101604052809291908181526020018280546122b190613510565b80156122fe5780601f106122d3576101008083540402835291602001916122fe565b820191906000526020600020905b8154815290600101906020018083116122e157829003601f168201915b505050505081526020016008820160009054906101000a900473ffffffffffffffffffffffffffffffffffffffff1673ffffffffffffffffffffffffffffffffffffffff1673ffffffffffffffffffffffffffffffffffffffff16815250508383815181106123705761236f61361a565b5b6020026020010181905250818061238690613573565b9250505b808061239590613573565b915050612086565b508192505050919050565b8273ffffffffffffffffffffffffffffffffffffffff16600b600083815260200190815260200160002060008473ffffffffffffffffffffffffffffffffffffffff1673ffffffffffffffffffffffffffffffffffffffff16815260200190815260200160002060000160009054906101000a900473ffffffffffffffffffffffffffffffffffffffff1673ffffffffffffffffffffffffffffffffffffffff1614612489576040517f08c379a000000000000000000000000000000000000000000000000000000000815260040161248090613116565b60405180910390fd5b600b600082815260200190815260200160002060008373ffffffffffffffffffffffffffffffffffffffff1673ffffffffffffffffffffffffffffffffffffffff16815260200190815260200160002060020160009054906101000a900460ff16612529576040517f08c379a000000000000000000000000000000000000000000000000000000000815260040161252090613176565b60405180910390fd5b6000600b600083815260200190815260200160002060008473ffffffffffffffffffffffffffffffffffffffff1673ffffffffffffffffffffffffffffffffffffffff16815260200190815260200160002060020160006101000a81548160ff0219169083151502179055508273ffffffffffffffffffffffffffffffffffffffff166108fc600b600084815260200190815260200160002060008573ffffffffffffffffffffffffffffffffffffffff1673ffffffffffffffffffffffffffffffffffffffff168152602001908152602001600020600101549081150290604051600060405180830381858888f1935050505015801561262e573d6000803e3d6000fd5b50505050565b60008060000154905081565b60056020528060005260406000206000915090505481565b6001816000016000828254019250508190555050565b600081600001549050919050565b82805461268890613510565b90600052602060002090601f0160209004810192826126aa57600085556126f1565b82601f106126c357805160ff19168380011785556126f1565b828001600101855582156126f1579182015b828111156126f05782518255916020019190600101906126d5565b5b5090506126fe91906127e9565b5090565b50805461270e90613510565b6000825580601f10612720575061273f565b601f01602090049060005260206000209081019061273e91906127e9565b5b50565b6040518060a00160405280600081526020016000815260200160608152602001600073ffffffffffffffffffffffffffffffffffffffff168152602001600081525090565b6040518061012001604052806000815260200160608152602001600081526020016000815260200160008152602001600081526020016060815260200160608152602001600073ffffffffffffffffffffffffffffffffffffffff1681525090565b5b808211156128025760008160009055506001016127ea565b5090565b6000612819612814846132d2565b6132ad565b9050828152602081018484840111156128355761283461367d565b5b6128408482856134ce565b509392505050565b600081359050612857816137b6565b92915050565b600082601f83011261287257612871613678565b5b8135612882848260208601612806565b91505092915050565b60008135905061289a816137cd565b92915050565b6000602082840312156128b6576128b5613687565b5b60006128c484828501612848565b91505092915050565b6000806000606084860312156128e6576128e5613687565b5b60006128f486828701612848565b935050602061290586828701612848565b92505060406129168682870161288b565b9150509250925092565b6000806040838503121561293757612936613687565b5b600061294585828601612848565b92505060206129568582860161288b565b9150509250929050565b60008060006060848603121561297957612978613687565b5b600061298786828701612848565b93505060206129988682870161288b565b92505060406129a986828701612848565b9150509250925092565b60008060008060008060c087890312156129d0576129cf613687565b5b600087013567ffffffffffffffff8111156129ee576129ed613682565b5b6129fa89828a0161285d565b9650506020612a0b89828a0161288b565b9550506040612a1c89828a0161288b565b9450506060612a2d89828a0161288b565b935050608087013567ffffffffffffffff811115612a4e57612a4d613682565b5b612a5a89828a0161285d565b92505060a087013567ffffffffffffffff811115612a7b57612a7a613682565b5b612a8789828a0161285d565b9150509295509295509295565b600060208284031215612aaa57612aa9613687565b5b6000612ab88482850161288b565b91505092915050565b60008060408385031215612ad857612ad7613687565b5b6000612ae68582860161288b565b9250506020612af785828601612848565b9150509250929050565b600080600060608486031215612b1a57612b19613687565b5b6000612b288682870161288b565b9350506020612b3986828701612848565b9250506040612b4a86828701612848565b9150509250925092565b60008060008060808587031215612b6e57612b6d613687565b5b6000612b7c8782880161288b565b9450506020612b8d87828801612848565b9350506040612b9e87828801612848565b9250506060612baf8782880161288b565b91505092959194509250565b60008060408385031215612bd257612bd1613687565b5b6000612be08582860161288b565b9250506020612bf18582860161288b565b9150509250929050565b60008060008060808587031215612c1557612c14613687565b5b6000612c238782880161288b565b9450506020612c348782880161288b565b935050604085013567ffffffffffffffff811115612c5557612c54613682565b5b612c618782880161285d565b9250506060612c728782880161288b565b91505092959194509250565b6000612c8a8383612ede565b905092915050565b6000612c9e8383612fb1565b905092915050565b612caf81613486565b82525050565b612cbe81613486565b82525050565b6000612ccf82613323565b612cd9818561335e565b935083602082028501612ceb85613303565b8060005b85811015612d275784840389528151612d088582612c7e565b9450612d1383613344565b925060208a01995050600181019050612cef565b50829750879550505050505092915050565b6000612d448261332e565b612d4e818561336f565b935083602082028501612d6085613313565b8060005b85811015612d9c5784840389528151612d7d8582612c92565b9450612d8883613351565b925060208a01995050600181019050612d64565b50829750879550505050505092915050565b612db781613498565b82525050565b6000612dc882613339565b612dd28185613380565b9350612de28185602086016134dd565b612deb8161368c565b840191505092915050565b6000612e0182613339565b612e0b8185613391565b9350612e1b8185602086016134dd565b612e248161368c565b840191505092915050565b6000612e3c601183613391565b9150612e478261369d565b602082019050919050565b6000612e5f602483613391565b9150612e6a826136c6565b604082019050919050565b6000612e82601c83613391565b9150612e8d82613715565b602082019050919050565b6000612ea5602283613391565b9150612eb08261373e565b604082019050919050565b6000612ec8601383613391565b9150612ed38261378d565b602082019050919050565b600061012083016000830151612ef76000860182613027565b5060208301518482036020860152612f0f8282612dbd565b9150506040830151612f246040860182613027565b506060830151612f376060860182613027565b506080830151612f4a6080860182613027565b5060a0830151612f5d60a0860182613027565b5060c083015184820360c0860152612f758282612dbd565b91505060e083015184820360e0860152612f8f8282612dbd565b915050610100830151612fa6610100860182612ca6565b508091505092915050565b600060a083016000830151612fc96000860182613027565b506020830151612fdc6020860182613027565b5060408301518482036040860152612ff48282612dbd565b91505060608301516130096060860182612ca6565b50608083015161301c6080860182613027565b508091505092915050565b613030816134c4565b82525050565b61303f816134c4565b82525050565b600060208201905061305a6000830184612cb5565b92915050565b60006060820190506130756000830186612cb5565b6130826020830185613036565b61308f6040830184612dae565b949350505050565b600060208201905081810360008301526130b18184612cc4565b905092915050565b600060208201905081810360008301526130d38184612d39565b905092915050565b60006020820190506130f06000830184612dae565b92915050565b6000602082019050818103600083015261310f81612e2f565b9050919050565b6000602082019050818103600083015261312f81612e52565b9050919050565b6000602082019050818103600083015261314f81612e75565b9050919050565b6000602082019050818103600083015261316f81612e98565b9050919050565b6000602082019050818103600083015261318f81612ebb565b9050919050565b60006020820190506131ab6000830184613036565b92915050565b6000610120820190506131c7600083018c613036565b81810360208301526131d9818b612df6565b90506131e8604083018a613036565b6131f56060830189613036565b6132026080830188613036565b61320f60a0830187613036565b81810360c08301526132218186612df6565b905081810360e08301526132358185612df6565b9050613245610100830184612cb5565b9a9950505050505050505050565b600060a0820190506132686000830188613036565b6132756020830187613036565b81810360408301526132878186612df6565b90506132966060830185612cb5565b6132a36080830184613036565b9695505050505050565b60006132b76132c8565b90506132c38282613542565b919050565b6000604051905090565b600067ffffffffffffffff8211156132ed576132ec613649565b5b6132f68261368c565b9050602081019050919050565b6000819050602082019050919050565b6000819050602082019050919050565b600081519050919050565b600081519050919050565b600081519050919050565b6000602082019050919050565b6000602082019050919050565b600082825260208201905092915050565b600082825260208201905092915050565b600082825260208201905092915050565b600082825260208201905092915050565b60006133ad826134c4565b91506133b8836134c4565b9250827fffffffffffffffffffffffffffffffffffffffffffffffffffffffffffffffff038211156133ed576133ec6135bc565b5b828201905092915050565b6000613403826134c4565b915061340e836134c4565b9250817fffffffffffffffffffffffffffffffffffffffffffffffffffffffffffffffff0483118215151615613447576134466135bc565b5b828202905092915050565b600061345d826134c4565b9150613468836134c4565b92508282101561347b5761347a6135bc565b5b828203905092915050565b6000613491826134a4565b9050919050565b60008115159050919050565b600073ffffffffffffffffffffffffffffffffffffffff82169050919050565b6000819050919050565b82818337600083830152505050565b60005b838110156134fb5780820151818401526020810190506134e0565b8381111561350a576000848401525b50505050565b6000600282049050600182168061352857607f821691505b6020821081141561353c5761353b6135eb565b5b50919050565b61354b8261368c565b810181811067ffffffffffffffff8211171561356a57613569613649565b5b80604052505050565b600061357e826134c4565b91507fffffffffffffffffffffffffffffffffffffffffffffffffffffffffffffffff8214156135b1576135b06135bc565b5b600182019050919050565b7f4e487b7100000000000000000000000000000000000000000000000000000000600052601160045260246000fd5b7f4e487b7100000000000000000000000000000000000000000000000000000000600052602260045260246000fd5b7f4e487b7100000000000000000000000000000000000000000000000000000000600052603260045260246000fd5b7f4e487b7100000000000000000000000000000000000000000000000000000000600052604160045260246000fd5b600080fd5b600080fd5b600080fd5b600080fd5b6000601f19601f8301169050919050565b7f596f752063616e4e6f742044656c657465000000000000000000000000000000600082015250565b7f506c656173652053656c6c6563742074686520636f727265637420526563657060008201527f69656e7400000000000000000000000000000000000000000000000000000000602082015250565b7f596f7520617265204f776e6572206f6620746869732054656e64657200000000600082015250565b7f596f7520416c7265616479204170706c7920666f72207468697320526571756560008201527f7374000000000000000000000000000000000000000000000000000000000000602082015250565b7f596f7520616c7265616479207061796d656e7400000000000000000000000000600082015250565b6137bf81613486565b81146137ca57600080fd5b50565b6137d6816134c4565b81146137e157600080fd5b5056fea264697066735822122087d26e1e45a974b33b7b561db0baaff8e971b828bcd7085848e661602104fe7a64736f6c63430008070033",
					"opcodes": "PUSH1 0x80 PUSH1 0x40 MSTORE CALLVALUE DUP1 ISZERO PUSH2 0x10 JUMPI PUSH1 0x0 DUP1 REVERT JUMPDEST POP ADDRESS PUSH1 0x2 PUSH1 0x0 PUSH2 0x100 EXP DUP2 SLOAD DUP2 PUSH20 0xFFFFFFFFFFFFFFFFFFFFFFFFFFFFFFFFFFFFFFFF MUL NOT AND SWAP1 DUP4 PUSH20 0xFFFFFFFFFFFFFFFFFFFFFFFFFFFFFFFFFFFFFFFF AND MUL OR SWAP1 SSTORE POP PUSH2 0x381A DUP1 PUSH2 0x61 PUSH1 0x0 CODECOPY PUSH1 0x0 RETURN INVALID PUSH1 0x80 PUSH1 0x40 MSTORE PUSH1 0x4 CALLDATASIZE LT PUSH2 0x181 JUMPI PUSH1 0x0 CALLDATALOAD PUSH1 0xE0 SHR DUP1 PUSH4 0x9D6D10F9 GT PUSH2 0xD1 JUMPI DUP1 PUSH4 0xBC16AAD7 GT PUSH2 0x8A JUMPI DUP1 PUSH4 0xD0C3E909 GT PUSH2 0x64 JUMPI DUP1 PUSH4 0xD0C3E909 EQ PUSH2 0x638 JUMPI DUP1 PUSH4 0xD60F5A38 EQ PUSH2 0x675 JUMPI DUP1 PUSH4 0xD7ADD75F EQ PUSH2 0x691 JUMPI DUP1 PUSH4 0xFFD64F8A EQ PUSH2 0x6BC JUMPI PUSH2 0x181 JUMP JUMPDEST DUP1 PUSH4 0xBC16AAD7 EQ PUSH2 0x5A7 JUMPI DUP1 PUSH4 0xCF507BFB EQ PUSH2 0x5D2 JUMPI DUP1 PUSH4 0xD0C343D6 EQ PUSH2 0x5FB JUMPI PUSH2 0x181 JUMP JUMPDEST DUP1 PUSH4 0x9D6D10F9 EQ PUSH2 0x44D JUMPI DUP1 PUSH4 0x9FFF963E EQ PUSH2 0x48A JUMPI DUP1 PUSH4 0xA06C5E3D EQ PUSH2 0x4C7 JUMPI DUP1 PUSH4 0xA56D6544 EQ PUSH2 0x4F0 JUMPI DUP1 PUSH4 0xB19781FE EQ PUSH2 0x52D JUMPI DUP1 PUSH4 0xB28189FA EQ PUSH2 0x56A JUMPI PUSH2 0x181 JUMP JUMPDEST DUP1 PUSH4 0x30182235 GT PUSH2 0x13E JUMPI DUP1 PUSH4 0x52943FF5 GT PUSH2 0x118 JUMPI DUP1 PUSH4 0x52943FF5 EQ PUSH2 0x363 JUMPI DUP1 PUSH4 0x5AF77FFF EQ PUSH2 0x3A8 JUMPI DUP1 PUSH4 0x75772C47 EQ PUSH2 0x3D3 JUMPI DUP1 PUSH4 0x86E9FF0A EQ PUSH2 0x410 JUMPI PUSH2 0x181 JUMP JUMPDEST DUP1 PUSH4 0x30182235 EQ PUSH2 0x2BE JUMPI DUP1 PUSH4 0x40F12058 EQ PUSH2 0x2FD JUMPI DUP1 PUSH4 0x4FCB4A58 EQ PUSH2 0x33A JUMPI PUSH2 0x181 JUMP JUMPDEST DUP1 PUSH4 0xC4A3338 EQ PUSH2 0x186 JUMPI DUP1 PUSH4 0x168D5D34 EQ PUSH2 0x1C3 JUMPI DUP1 PUSH4 0x1A4B3311 EQ PUSH2 0x204 JUMPI DUP1 PUSH4 0x1A779488 EQ PUSH2 0x241 JUMPI DUP1 PUSH4 0x2302EC7E EQ PUSH2 0x26A JUMPI DUP1 PUSH4 0x25AF0316 EQ PUSH2 0x293 JUMPI JUMPDEST PUSH1 0x0 DUP1 REVERT JUMPDEST CALLVALUE DUP1 ISZERO PUSH2 0x192 JUMPI PUSH1 0x0 DUP1 REVERT JUMPDEST POP PUSH2 0x1AD PUSH1 0x4 DUP1 CALLDATASIZE SUB DUP2 ADD SWAP1 PUSH2 0x1A8 SWAP2 SWAP1 PUSH2 0x2A94 JUMP JUMPDEST PUSH2 0x6F9 JUMP JUMPDEST PUSH1 0x40 MLOAD PUSH2 0x1BA SWAP2 SWAP1 PUSH2 0x30DB JUMP JUMPDEST PUSH1 0x40 MLOAD DUP1 SWAP2 SUB SWAP1 RETURN JUMPDEST CALLVALUE DUP1 ISZERO PUSH2 0x1CF JUMPI PUSH1 0x0 DUP1 REVERT JUMPDEST POP PUSH2 0x1EA PUSH1 0x4 DUP1 CALLDATASIZE SUB DUP2 ADD SWAP1 PUSH2 0x1E5 SWAP2 SWAP1 PUSH2 0x2BBB JUMP JUMPDEST PUSH2 0x758 JUMP JUMPDEST PUSH1 0x40 MLOAD PUSH2 0x1FB SWAP6 SWAP5 SWAP4 SWAP3 SWAP2 SWAP1 PUSH2 0x3253 JUMP JUMPDEST PUSH1 0x40 MLOAD DUP1 SWAP2 SUB SWAP1 RETURN JUMPDEST CALLVALUE DUP1 ISZERO PUSH2 0x210 JUMPI PUSH1 0x0 DUP1 REVERT JUMPDEST POP PUSH2 0x22B PUSH1 0x4 DUP1 CALLDATASIZE SUB DUP2 ADD SWAP1 PUSH2 0x226 SWAP2 SWAP1 PUSH2 0x28A0 JUMP JUMPDEST PUSH2 0x843 JUMP JUMPDEST PUSH1 0x40 MLOAD PUSH2 0x238 SWAP2 SWAP1 PUSH2 0x3196 JUMP JUMPDEST PUSH1 0x40 MLOAD DUP1 SWAP2 SUB SWAP1 RETURN JUMPDEST CALLVALUE DUP1 ISZERO PUSH2 0x24D JUMPI PUSH1 0x0 DUP1 REVERT JUMPDEST POP PUSH2 0x268 PUSH1 0x4 DUP1 CALLDATASIZE SUB DUP2 ADD SWAP1 PUSH2 0x263 SWAP2 SWAP1 PUSH2 0x29B3 JUMP JUMPDEST PUSH2 0x85B JUMP JUMPDEST STOP JUMPDEST CALLVALUE DUP1 ISZERO PUSH2 0x276 JUMPI PUSH1 0x0 DUP1 REVERT JUMPDEST POP PUSH2 0x291 PUSH1 0x4 DUP1 CALLDATASIZE SUB DUP2 ADD SWAP1 PUSH2 0x28C SWAP2 SWAP1 PUSH2 0x2A94 JUMP JUMPDEST PUSH2 0xA13 JUMP JUMPDEST STOP JUMPDEST CALLVALUE DUP1 ISZERO PUSH2 0x29F JUMPI PUSH1 0x0 DUP1 REVERT JUMPDEST POP PUSH2 0x2A8 PUSH2 0xCB5 JUMP JUMPDEST PUSH1 0x40 MLOAD PUSH2 0x2B5 SWAP2 SWAP1 PUSH2 0x3196 JUMP JUMPDEST PUSH1 0x40 MLOAD DUP1 SWAP2 SUB SWAP1 RETURN JUMPDEST CALLVALUE DUP1 ISZERO PUSH2 0x2CA JUMPI PUSH1 0x0 DUP1 REVERT JUMPDEST POP PUSH2 0x2E5 PUSH1 0x4 DUP1 CALLDATASIZE SUB DUP2 ADD SWAP1 PUSH2 0x2E0 SWAP2 SWAP1 PUSH2 0x2AC1 JUMP JUMPDEST PUSH2 0xCC1 JUMP JUMPDEST PUSH1 0x40 MLOAD PUSH2 0x2F4 SWAP4 SWAP3 SWAP2 SWAP1 PUSH2 0x3060 JUMP JUMPDEST PUSH1 0x40 MLOAD DUP1 SWAP2 SUB SWAP1 RETURN JUMPDEST CALLVALUE DUP1 ISZERO PUSH2 0x309 JUMPI PUSH1 0x0 DUP1 REVERT JUMPDEST POP PUSH2 0x324 PUSH1 0x4 DUP1 CALLDATASIZE SUB DUP2 ADD SWAP1 PUSH2 0x31F SWAP2 SWAP1 PUSH2 0x2920 JUMP JUMPDEST PUSH2 0xD25 JUMP JUMPDEST PUSH1 0x40 MLOAD PUSH2 0x331 SWAP2 SWAP1 PUSH2 0x30DB JUMP JUMPDEST PUSH1 0x40 MLOAD DUP1 SWAP2 SUB SWAP1 RETURN JUMPDEST CALLVALUE DUP1 ISZERO PUSH2 0x346 JUMPI PUSH1 0x0 DUP1 REVERT JUMPDEST POP PUSH2 0x361 PUSH1 0x4 DUP1 CALLDATASIZE SUB DUP2 ADD SWAP1 PUSH2 0x35C SWAP2 SWAP1 PUSH2 0x2BFB JUMP JUMPDEST PUSH2 0xD54 JUMP JUMPDEST STOP JUMPDEST CALLVALUE DUP1 ISZERO PUSH2 0x36F JUMPI PUSH1 0x0 DUP1 REVERT JUMPDEST POP PUSH2 0x38A PUSH1 0x4 DUP1 CALLDATASIZE SUB DUP2 ADD SWAP1 PUSH2 0x385 SWAP2 SWAP1 PUSH2 0x2A94 JUMP JUMPDEST PUSH2 0x10DF JUMP JUMPDEST PUSH1 0x40 MLOAD PUSH2 0x39F SWAP10 SWAP9 SWAP8 SWAP7 SWAP6 SWAP5 SWAP4 SWAP3 SWAP2 SWAP1 PUSH2 0x31B1 JUMP JUMPDEST PUSH1 0x40 MLOAD DUP1 SWAP2 SUB SWAP1 RETURN JUMPDEST CALLVALUE DUP1 ISZERO PUSH2 0x3B4 JUMPI PUSH1 0x0 DUP1 REVERT JUMPDEST POP PUSH2 0x3BD PUSH2 0x12E5 JUMP JUMPDEST PUSH1 0x40 MLOAD PUSH2 0x3CA SWAP2 SWAP1 PUSH2 0x3045 JUMP JUMPDEST PUSH1 0x40 MLOAD DUP1 SWAP2 SUB SWAP1 RETURN JUMPDEST CALLVALUE DUP1 ISZERO PUSH2 0x3DF JUMPI PUSH1 0x0 DUP1 REVERT JUMPDEST POP PUSH2 0x3FA PUSH1 0x4 DUP1 CALLDATASIZE SUB DUP2 ADD SWAP1 PUSH2 0x3F5 SWAP2 SWAP1 PUSH2 0x2920 JUMP JUMPDEST PUSH2 0x130B JUMP JUMPDEST PUSH1 0x40 MLOAD PUSH2 0x407 SWAP2 SWAP1 PUSH2 0x30DB JUMP JUMPDEST PUSH1 0x40 MLOAD DUP1 SWAP2 SUB SWAP1 RETURN JUMPDEST CALLVALUE DUP1 ISZERO PUSH2 0x41C JUMPI PUSH1 0x0 DUP1 REVERT JUMPDEST POP PUSH2 0x437 PUSH1 0x4 DUP1 CALLDATASIZE SUB DUP2 ADD SWAP1 PUSH2 0x432 SWAP2 SWAP1 PUSH2 0x2A94 JUMP JUMPDEST PUSH2 0x133A JUMP JUMPDEST PUSH1 0x40 MLOAD PUSH2 0x444 SWAP2 SWAP1 PUSH2 0x30B9 JUMP JUMPDEST PUSH1 0x40 MLOAD DUP1 SWAP2 SUB SWAP1 RETURN JUMPDEST CALLVALUE DUP1 ISZERO PUSH2 0x459 JUMPI PUSH1 0x0 DUP1 REVERT JUMPDEST POP PUSH2 0x474 PUSH1 0x4 DUP1 CALLDATASIZE SUB DUP2 ADD SWAP1 PUSH2 0x46F SWAP2 SWAP1 PUSH2 0x28A0 JUMP JUMPDEST PUSH2 0x156E JUMP JUMPDEST PUSH1 0x40 MLOAD PUSH2 0x481 SWAP2 SWAP1 PUSH2 0x3196 JUMP JUMPDEST PUSH1 0x40 MLOAD DUP1 SWAP2 SUB SWAP1 RETURN JUMPDEST CALLVALUE DUP1 ISZERO PUSH2 0x496 JUMPI PUSH1 0x0 DUP1 REVERT JUMPDEST POP PUSH2 0x4B1 PUSH1 0x4 DUP1 CALLDATASIZE SUB DUP2 ADD SWAP1 PUSH2 0x4AC SWAP2 SWAP1 PUSH2 0x2AC1 JUMP JUMPDEST PUSH2 0x1586 JUMP JUMPDEST PUSH1 0x40 MLOAD PUSH2 0x4BE SWAP2 SWAP1 PUSH2 0x3196 JUMP JUMPDEST PUSH1 0x40 MLOAD DUP1 SWAP2 SUB SWAP1 RETURN JUMPDEST CALLVALUE DUP1 ISZERO PUSH2 0x4D3 JUMPI PUSH1 0x0 DUP1 REVERT JUMPDEST POP PUSH2 0x4EE PUSH1 0x4 DUP1 CALLDATASIZE SUB DUP2 ADD SWAP1 PUSH2 0x4E9 SWAP2 SWAP1 PUSH2 0x2B54 JUMP JUMPDEST PUSH2 0x15AB JUMP JUMPDEST STOP JUMPDEST CALLVALUE DUP1 ISZERO PUSH2 0x4FC JUMPI PUSH1 0x0 DUP1 REVERT JUMPDEST POP PUSH2 0x517 PUSH1 0x4 DUP1 CALLDATASIZE SUB DUP2 ADD SWAP1 PUSH2 0x512 SWAP2 SWAP1 PUSH2 0x2960 JUMP JUMPDEST PUSH2 0x17B8 JUMP JUMPDEST PUSH1 0x40 MLOAD PUSH2 0x524 SWAP2 SWAP1 PUSH2 0x30DB JUMP JUMPDEST PUSH1 0x40 MLOAD DUP1 SWAP2 SUB SWAP1 RETURN JUMPDEST CALLVALUE DUP1 ISZERO PUSH2 0x539 JUMPI PUSH1 0x0 DUP1 REVERT JUMPDEST POP PUSH2 0x554 PUSH1 0x4 DUP1 CALLDATASIZE SUB DUP2 ADD SWAP1 PUSH2 0x54F SWAP2 SWAP1 PUSH2 0x28A0 JUMP JUMPDEST PUSH2 0x17F4 JUMP JUMPDEST PUSH1 0x40 MLOAD PUSH2 0x561 SWAP2 SWAP1 PUSH2 0x3196 JUMP JUMPDEST PUSH1 0x40 MLOAD DUP1 SWAP2 SUB SWAP1 RETURN JUMPDEST CALLVALUE DUP1 ISZERO PUSH2 0x576 JUMPI PUSH1 0x0 DUP1 REVERT JUMPDEST POP PUSH2 0x591 PUSH1 0x4 DUP1 CALLDATASIZE SUB DUP2 ADD SWAP1 PUSH2 0x58C SWAP2 SWAP1 PUSH2 0x2B01 JUMP JUMPDEST PUSH2 0x180C JUMP JUMPDEST PUSH1 0x40 MLOAD PUSH2 0x59E SWAP2 SWAP1 PUSH2 0x30DB JUMP JUMPDEST PUSH1 0x40 MLOAD DUP1 SWAP2 SUB SWAP1 RETURN JUMPDEST CALLVALUE DUP1 ISZERO PUSH2 0x5B3 JUMPI PUSH1 0x0 DUP1 REVERT JUMPDEST POP PUSH2 0x5BC PUSH2 0x18B2 JUMP JUMPDEST PUSH1 0x40 MLOAD PUSH2 0x5C9 SWAP2 SWAP1 PUSH2 0x3097 JUMP JUMPDEST PUSH1 0x40 MLOAD DUP1 SWAP2 SUB SWAP1 RETURN JUMPDEST CALLVALUE DUP1 ISZERO PUSH2 0x5DE JUMPI PUSH1 0x0 DUP1 REVERT JUMPDEST POP PUSH2 0x5F9 PUSH1 0x4 DUP1 CALLDATASIZE SUB DUP2 ADD SWAP1 PUSH2 0x5F4 SWAP2 SWAP1 PUSH2 0x2BFB JUMP JUMPDEST PUSH2 0x1BD2 JUMP JUMPDEST STOP JUMPDEST CALLVALUE DUP1 ISZERO PUSH2 0x607 JUMPI PUSH1 0x0 DUP1 REVERT JUMPDEST POP PUSH2 0x622 PUSH1 0x4 DUP1 CALLDATASIZE SUB DUP2 ADD SWAP1 PUSH2 0x61D SWAP2 SWAP1 PUSH2 0x28A0 JUMP JUMPDEST PUSH2 0x1D0E JUMP JUMPDEST PUSH1 0x40 MLOAD PUSH2 0x62F SWAP2 SWAP1 PUSH2 0x30B9 JUMP JUMPDEST PUSH1 0x40 MLOAD DUP1 SWAP2 SUB SWAP1 RETURN JUMPDEST CALLVALUE DUP1 ISZERO PUSH2 0x644 JUMPI PUSH1 0x0 DUP1 REVERT JUMPDEST POP PUSH2 0x65F PUSH1 0x4 DUP1 CALLDATASIZE SUB DUP2 ADD SWAP1 PUSH2 0x65A SWAP2 SWAP1 PUSH2 0x28A0 JUMP JUMPDEST PUSH2 0x1FE5 JUMP JUMPDEST PUSH1 0x40 MLOAD PUSH2 0x66C SWAP2 SWAP1 PUSH2 0x3097 JUMP JUMPDEST PUSH1 0x40 MLOAD DUP1 SWAP2 SUB SWAP1 RETURN JUMPDEST PUSH2 0x68F PUSH1 0x4 DUP1 CALLDATASIZE SUB DUP2 ADD SWAP1 PUSH2 0x68A SWAP2 SWAP1 PUSH2 0x28CD JUMP JUMPDEST PUSH2 0x23A8 JUMP JUMPDEST STOP JUMPDEST CALLVALUE DUP1 ISZERO PUSH2 0x69D JUMPI PUSH1 0x0 DUP1 REVERT JUMPDEST POP PUSH2 0x6A6 PUSH2 0x2634 JUMP JUMPDEST PUSH1 0x40 MLOAD PUSH2 0x6B3 SWAP2 SWAP1 PUSH2 0x3196 JUMP JUMPDEST PUSH1 0x40 MLOAD DUP1 SWAP2 SUB SWAP1 RETURN JUMPDEST CALLVALUE DUP1 ISZERO PUSH2 0x6C8 JUMPI PUSH1 0x0 DUP1 REVERT JUMPDEST POP PUSH2 0x6E3 PUSH1 0x4 DUP1 CALLDATASIZE SUB DUP2 ADD SWAP1 PUSH2 0x6DE SWAP2 SWAP1 PUSH2 0x2A94 JUMP JUMPDEST PUSH2 0x2640 JUMP JUMPDEST PUSH1 0x40 MLOAD PUSH2 0x6F0 SWAP2 SWAP1 PUSH2 0x3196 JUMP JUMPDEST PUSH1 0x40 MLOAD DUP1 SWAP2 SUB SWAP1 RETURN JUMPDEST PUSH1 0x0 TIMESTAMP PUSH1 0x3C PUSH1 0x6 PUSH1 0x0 DUP6 DUP2 MSTORE PUSH1 0x20 ADD SWAP1 DUP2 MSTORE PUSH1 0x20 ADD PUSH1 0x0 KECCAK256 PUSH1 0x4 ADD SLOAD PUSH2 0x71F SWAP2 SWAP1 PUSH2 0x33F8 JUMP JUMPDEST PUSH1 0x6 PUSH1 0x0 DUP6 DUP2 MSTORE PUSH1 0x20 ADD SWAP1 DUP2 MSTORE PUSH1 0x20 ADD PUSH1 0x0 KECCAK256 PUSH1 0x5 ADD SLOAD PUSH2 0x740 SWAP2 SWAP1 PUSH2 0x33A2 JUMP JUMPDEST GT PUSH2 0x74E JUMPI PUSH1 0x0 SWAP1 POP PUSH2 0x753 JUMP JUMPDEST PUSH1 0x1 SWAP1 POP JUMPDEST SWAP2 SWAP1 POP JUMP JUMPDEST PUSH1 0x7 PUSH1 0x20 MSTORE DUP2 PUSH1 0x0 MSTORE PUSH1 0x40 PUSH1 0x0 KECCAK256 PUSH1 0x20 MSTORE DUP1 PUSH1 0x0 MSTORE PUSH1 0x40 PUSH1 0x0 KECCAK256 PUSH1 0x0 SWAP2 POP SWAP2 POP POP DUP1 PUSH1 0x0 ADD SLOAD SWAP1 DUP1 PUSH1 0x1 ADD SLOAD SWAP1 DUP1 PUSH1 0x2 ADD DUP1 SLOAD PUSH2 0x794 SWAP1 PUSH2 0x3510 JUMP JUMPDEST DUP1 PUSH1 0x1F ADD PUSH1 0x20 DUP1 SWAP2 DIV MUL PUSH1 0x20 ADD PUSH1 0x40 MLOAD SWAP1 DUP2 ADD PUSH1 0x40 MSTORE DUP1 SWAP3 SWAP2 SWAP1 DUP2 DUP2 MSTORE PUSH1 0x20 ADD DUP3 DUP1 SLOAD PUSH2 0x7C0 SWAP1 PUSH2 0x3510 JUMP JUMPDEST DUP1 ISZERO PUSH2 0x80D JUMPI DUP1 PUSH1 0x1F LT PUSH2 0x7E2 JUMPI PUSH2 0x100 DUP1 DUP4 SLOAD DIV MUL DUP4 MSTORE SWAP2 PUSH1 0x20 ADD SWAP2 PUSH2 0x80D JUMP JUMPDEST DUP3 ADD SWAP2 SWAP1 PUSH1 0x0 MSTORE PUSH1 0x20 PUSH1 0x0 KECCAK256 SWAP1 JUMPDEST DUP2 SLOAD DUP2 MSTORE SWAP1 PUSH1 0x1 ADD SWAP1 PUSH1 0x20 ADD DUP1 DUP4 GT PUSH2 0x7F0 JUMPI DUP3 SWAP1 SUB PUSH1 0x1F AND DUP3 ADD SWAP2 JUMPDEST POP POP POP POP POP SWAP1 DUP1 PUSH1 0x3 ADD PUSH1 0x0 SWAP1 SLOAD SWAP1 PUSH2 0x100 EXP SWAP1 DIV PUSH20 0xFFFFFFFFFFFFFFFFFFFFFFFFFFFFFFFFFFFFFFFF AND SWAP1 DUP1 PUSH1 0x4 ADD SLOAD SWAP1 POP DUP6 JUMP JUMPDEST PUSH1 0x9 PUSH1 0x20 MSTORE DUP1 PUSH1 0x0 MSTORE PUSH1 0x40 PUSH1 0x0 KECCAK256 PUSH1 0x0 SWAP2 POP SWAP1 POP SLOAD DUP2 JUMP JUMPDEST PUSH2 0x865 PUSH1 0x0 PUSH2 0x2658 JUMP JUMPDEST PUSH1 0x1 PUSH1 0x3 PUSH1 0x0 CALLER PUSH20 0xFFFFFFFFFFFFFFFFFFFFFFFFFFFFFFFFFFFFFFFF AND PUSH20 0xFFFFFFFFFFFFFFFFFFFFFFFFFFFFFFFFFFFFFFFF AND DUP2 MSTORE PUSH1 0x20 ADD SWAP1 DUP2 MSTORE PUSH1 0x20 ADD PUSH1 0x0 KECCAK256 PUSH1 0x0 DUP3 DUP3 SLOAD PUSH2 0x8B5 SWAP2 SWAP1 PUSH2 0x33A2 JUMP JUMPDEST SWAP3 POP POP DUP2 SWAP1 SSTORE POP PUSH1 0x40 MLOAD DUP1 PUSH2 0x120 ADD PUSH1 0x40 MSTORE DUP1 PUSH2 0x8D2 PUSH1 0x0 PUSH2 0x266E JUMP JUMPDEST DUP2 MSTORE PUSH1 0x20 ADD DUP8 DUP2 MSTORE PUSH1 0x20 ADD DUP7 DUP2 MSTORE PUSH1 0x20 ADD DUP6 DUP2 MSTORE PUSH1 0x20 ADD DUP5 DUP2 MSTORE PUSH1 0x20 ADD TIMESTAMP DUP2 MSTORE PUSH1 0x20 ADD DUP4 DUP2 MSTORE PUSH1 0x20 ADD DUP3 DUP2 MSTORE PUSH1 0x20 ADD CALLER PUSH20 0xFFFFFFFFFFFFFFFFFFFFFFFFFFFFFFFFFFFFFFFF AND DUP2 MSTORE POP PUSH1 0x6 PUSH1 0x0 PUSH2 0x929 PUSH1 0x0 PUSH2 0x266E JUMP JUMPDEST DUP2 MSTORE PUSH1 0x20 ADD SWAP1 DUP2 MSTORE PUSH1 0x20 ADD PUSH1 0x0 KECCAK256 PUSH1 0x0 DUP3 ADD MLOAD DUP2 PUSH1 0x0 ADD SSTORE PUSH1 0x20 DUP3 ADD MLOAD DUP2 PUSH1 0x1 ADD SWAP1 DUP1 MLOAD SWAP1 PUSH1 0x20 ADD SWAP1 PUSH2 0x95D SWAP3 SWAP2 SWAP1 PUSH2 0x267C JUMP JUMPDEST POP PUSH1 0x40 DUP3 ADD MLOAD DUP2 PUSH1 0x2 ADD SSTORE PUSH1 0x60 DUP3 ADD MLOAD DUP2 PUSH1 0x3 ADD SSTORE PUSH1 0x80 DUP3 ADD MLOAD DUP2 PUSH1 0x4 ADD SSTORE PUSH1 0xA0 DUP3 ADD MLOAD DUP2 PUSH1 0x5 ADD SSTORE PUSH1 0xC0 DUP3 ADD MLOAD DUP2 PUSH1 0x6 ADD SWAP1 DUP1 MLOAD SWAP1 PUSH1 0x20 ADD SWAP1 PUSH2 0x9A2 SWAP3 SWAP2 SWAP1 PUSH2 0x267C JUMP JUMPDEST POP PUSH1 0xE0 DUP3 ADD MLOAD DUP2 PUSH1 0x7 ADD SWAP1 DUP1 MLOAD SWAP1 PUSH1 0x20 ADD SWAP1 PUSH2 0x9BF SWAP3 SWAP2 SWAP1 PUSH2 0x267C JUMP JUMPDEST POP PUSH2 0x100 DUP3 ADD MLOAD DUP2 PUSH1 0x8 ADD PUSH1 0x0 PUSH2 0x100 EXP DUP2 SLOAD DUP2 PUSH20 0xFFFFFFFFFFFFFFFFFFFFFFFFFFFFFFFFFFFFFFFF MUL NOT AND SWAP1 DUP4 PUSH20 0xFFFFFFFFFFFFFFFFFFFFFFFFFFFFFFFFFFFFFFFF AND MUL OR SWAP1 SSTORE POP SWAP1 POP POP POP POP POP POP POP POP JUMP JUMPDEST PUSH1 0x8 PUSH1 0x0 CALLER PUSH20 0xFFFFFFFFFFFFFFFFFFFFFFFFFFFFFFFFFFFFFFFF AND PUSH20 0xFFFFFFFFFFFFFFFFFFFFFFFFFFFFFFFFFFFFFFFF AND DUP2 MSTORE PUSH1 0x20 ADD SWAP1 DUP2 MSTORE PUSH1 0x20 ADD PUSH1 0x0 KECCAK256 PUSH1 0x0 DUP3 DUP2 MSTORE PUSH1 0x20 ADD SWAP1 DUP2 MSTORE PUSH1 0x20 ADD PUSH1 0x0 KECCAK256 PUSH1 0x0 SWAP1 SLOAD SWAP1 PUSH2 0x100 EXP SWAP1 DIV PUSH1 0xFF AND PUSH2 0xAB0 JUMPI PUSH1 0x40 MLOAD PUSH32 0x8C379A000000000000000000000000000000000000000000000000000000000 DUP2 MSTORE PUSH1 0x4 ADD PUSH2 0xAA7 SWAP1 PUSH2 0x30F6 JUMP JUMPDEST PUSH1 0x40 MLOAD DUP1 SWAP2 SUB SWAP1 REVERT JUMPDEST PUSH1 0x1 PUSH1 0x9 PUSH1 0x0 CALLER PUSH20 0xFFFFFFFFFFFFFFFFFFFFFFFFFFFFFFFFFFFFFFFF AND PUSH20 0xFFFFFFFFFFFFFFFFFFFFFFFFFFFFFFFFFFFFFFFF AND DUP2 MSTORE PUSH1 0x20 ADD SWAP1 DUP2 MSTORE PUSH1 0x20 ADD PUSH1 0x0 KECCAK256 PUSH1 0x0 DUP3 DUP3 SLOAD PUSH2 0xB00 SWAP2 SWAP1 PUSH2 0x3452 JUMP JUMPDEST SWAP3 POP POP DUP2 SWAP1 SSTORE POP PUSH1 0x1 PUSH1 0x5 PUSH1 0x0 DUP4 DUP2 MSTORE PUSH1 0x20 ADD SWAP1 DUP2 MSTORE PUSH1 0x20 ADD PUSH1 0x0 KECCAK256 PUSH1 0x0 DUP3 DUP3 SLOAD PUSH2 0xB2B SWAP2 SWAP1 PUSH2 0x3452 JUMP JUMPDEST SWAP3 POP POP DUP2 SWAP1 SSTORE POP PUSH1 0x0 PUSH1 0x8 PUSH1 0x0 CALLER PUSH20 0xFFFFFFFFFFFFFFFFFFFFFFFFFFFFFFFFFFFFFFFF AND PUSH20 0xFFFFFFFFFFFFFFFFFFFFFFFFFFFFFFFFFFFFFFFF AND DUP2 MSTORE PUSH1 0x20 ADD SWAP1 DUP2 MSTORE PUSH1 0x20 ADD PUSH1 0x0 KECCAK256 PUSH1 0x0 DUP4 DUP2 MSTORE PUSH1 0x20 ADD SWAP1 DUP2 MSTORE PUSH1 0x20 ADD PUSH1 0x0 KECCAK256 PUSH1 0x0 PUSH2 0x100 EXP DUP2 SLOAD DUP2 PUSH1 0xFF MUL NOT AND SWAP1 DUP4 ISZERO ISZERO MUL OR SWAP1 SSTORE POP PUSH1 0x7 PUSH1 0x0 PUSH1 0xA PUSH1 0x0 DUP5 DUP2 MSTORE PUSH1 0x20 ADD SWAP1 DUP2 MSTORE PUSH1 0x20 ADD PUSH1 0x0 KECCAK256 PUSH1 0x0 CALLER PUSH20 0xFFFFFFFFFFFFFFFFFFFFFFFFFFFFFFFFFFFFFFFF AND PUSH20 0xFFFFFFFFFFFFFFFFFFFFFFFFFFFFFFFFFFFFFFFF AND DUP2 MSTORE PUSH1 0x20 ADD SWAP1 DUP2 MSTORE PUSH1 0x20 ADD PUSH1 0x0 KECCAK256 SLOAD DUP2 MSTORE PUSH1 0x20 ADD SWAP1 DUP2 MSTORE PUSH1 0x20 ADD PUSH1 0x0 KECCAK256 PUSH1 0x0 DUP3 DUP2 MSTORE PUSH1 0x20 ADD SWAP1 DUP2 MSTORE PUSH1 0x20 ADD PUSH1 0x0 KECCAK256 PUSH1 0x0 DUP1 DUP3 ADD PUSH1 0x0 SWAP1 SSTORE PUSH1 0x1 DUP3 ADD PUSH1 0x0 SWAP1 SSTORE PUSH1 0x2 DUP3 ADD PUSH1 0x0 PUSH2 0xC30 SWAP2 SWAP1 PUSH2 0x2702 JUMP JUMPDEST PUSH1 0x3 DUP3 ADD PUSH1 0x0 PUSH2 0x100 EXP DUP2 SLOAD SWAP1 PUSH20 0xFFFFFFFFFFFFFFFFFFFFFFFFFFFFFFFFFFFFFFFF MUL NOT AND SWAP1 SSTORE PUSH1 0x4 DUP3 ADD PUSH1 0x0 SWAP1 SSTORE POP POP PUSH1 0xA PUSH1 0x0 DUP3 DUP2 MSTORE PUSH1 0x20 ADD SWAP1 DUP2 MSTORE PUSH1 0x20 ADD PUSH1 0x0 KECCAK256 PUSH1 0x0 CALLER PUSH20 0xFFFFFFFFFFFFFFFFFFFFFFFFFFFFFFFFFFFFFFFF AND PUSH20 0xFFFFFFFFFFFFFFFFFFFFFFFFFFFFFFFFFFFFFFFF AND DUP2 MSTORE PUSH1 0x20 ADD SWAP1 DUP2 MSTORE PUSH1 0x20 ADD PUSH1 0x0 KECCAK256 POP POP JUMP JUMPDEST PUSH1 0x1 DUP1 PUSH1 0x0 ADD SLOAD SWAP1 POP DUP2 JUMP JUMPDEST PUSH1 0xB PUSH1 0x20 MSTORE DUP2 PUSH1 0x0 MSTORE PUSH1 0x40 PUSH1 0x0 KECCAK256 PUSH1 0x20 MSTORE DUP1 PUSH1 0x0 MSTORE PUSH1 0x40 PUSH1 0x0 KECCAK256 PUSH1 0x0 SWAP2 POP SWAP2 POP POP DUP1 PUSH1 0x0 ADD PUSH1 0x0 SWAP1 SLOAD SWAP1 PUSH2 0x100 EXP SWAP1 DIV PUSH20 0xFFFFFFFFFFFFFFFFFFFFFFFFFFFFFFFFFFFFFFFF AND SWAP1 DUP1 PUSH1 0x1 ADD SLOAD SWAP1 DUP1 PUSH1 0x2 ADD PUSH1 0x0 SWAP1 SLOAD SWAP1 PUSH2 0x100 EXP SWAP1 DIV PUSH1 0xFF AND SWAP1 POP DUP4 JUMP JUMPDEST PUSH1 0x8 PUSH1 0x20 MSTORE DUP2 PUSH1 0x0 MSTORE PUSH1 0x40 PUSH1 0x0 KECCAK256 PUSH1 0x20 MSTORE DUP1 PUSH1 0x0 MSTORE PUSH1 0x40 PUSH1 0x0 KECCAK256 PUSH1 0x0 SWAP2 POP SWAP2 POP SWAP1 SLOAD SWAP1 PUSH2 0x100 EXP SWAP1 DIV PUSH1 0xFF AND DUP2 JUMP JUMPDEST PUSH1 0x8 PUSH1 0x0 CALLER PUSH20 0xFFFFFFFFFFFFFFFFFFFFFFFFFFFFFFFFFFFFFFFF AND PUSH20 0xFFFFFFFFFFFFFFFFFFFFFFFFFFFFFFFFFFFFFFFF AND DUP2 MSTORE PUSH1 0x20 ADD SWAP1 DUP2 MSTORE PUSH1 0x20 ADD PUSH1 0x0 KECCAK256 PUSH1 0x0 DUP6 DUP2 MSTORE PUSH1 0x20 ADD SWAP1 DUP2 MSTORE PUSH1 0x20 ADD PUSH1 0x0 KECCAK256 PUSH1 0x0 SWAP1 SLOAD SWAP1 PUSH2 0x100 EXP SWAP1 DIV PUSH1 0xFF AND ISZERO PUSH2 0xDF2 JUMPI PUSH1 0x40 MLOAD PUSH32 0x8C379A000000000000000000000000000000000000000000000000000000000 DUP2 MSTORE PUSH1 0x4 ADD PUSH2 0xDE9 SWAP1 PUSH2 0x3156 JUMP JUMPDEST PUSH1 0x40 MLOAD DUP1 SWAP2 SUB SWAP1 REVERT JUMPDEST CALLER PUSH20 0xFFFFFFFFFFFFFFFFFFFFFFFFFFFFFFFFFFFFFFFF AND PUSH1 0x6 PUSH1 0x0 DUP7 DUP2 MSTORE PUSH1 0x20 ADD SWAP1 DUP2 MSTORE PUSH1 0x20 ADD PUSH1 0x0 KECCAK256 PUSH1 0x8 ADD PUSH1 0x0 SWAP1 SLOAD SWAP1 PUSH2 0x100 EXP SWAP1 DIV PUSH20 0xFFFFFFFFFFFFFFFFFFFFFFFFFFFFFFFFFFFFFFFF AND PUSH20 0xFFFFFFFFFFFFFFFFFFFFFFFFFFFFFFFFFFFFFFFF AND EQ ISZERO PUSH2 0xE97 JUMPI PUSH1 0x40 MLOAD PUSH32 0x8C379A000000000000000000000000000000000000000000000000000000000 DUP2 MSTORE PUSH1 0x4 ADD PUSH2 0xE8E SWAP1 PUSH2 0x3136 JUMP JUMPDEST PUSH1 0x40 MLOAD DUP1 SWAP2 SUB SWAP1 REVERT JUMPDEST PUSH2 0xEA1 PUSH1 0x1 PUSH2 0x2658 JUMP JUMPDEST PUSH1 0x1 PUSH1 0x8 PUSH1 0x0 CALLER PUSH20 0xFFFFFFFFFFFFFFFFFFFFFFFFFFFFFFFFFFFFFFFF AND PUSH20 0xFFFFFFFFFFFFFFFFFFFFFFFFFFFFFFFFFFFFFFFF AND DUP2 MSTORE PUSH1 0x20 ADD SWAP1 DUP2 MSTORE PUSH1 0x20 ADD PUSH1 0x0 KECCAK256 PUSH1 0x0 DUP7 DUP2 MSTORE PUSH1 0x20 ADD SWAP1 DUP2 MSTORE PUSH1 0x20 ADD PUSH1 0x0 KECCAK256 PUSH1 0x0 PUSH2 0x100 EXP DUP2 SLOAD DUP2 PUSH1 0xFF MUL NOT AND SWAP1 DUP4 ISZERO ISZERO MUL OR SWAP1 SSTORE POP PUSH1 0x1 PUSH1 0x5 PUSH1 0x0 DUP7 DUP2 MSTORE PUSH1 0x20 ADD SWAP1 DUP2 MSTORE PUSH1 0x20 ADD PUSH1 0x0 KECCAK256 PUSH1 0x0 DUP3 DUP3 SLOAD PUSH2 0xF2E SWAP2 SWAP1 PUSH2 0x33A2 JUMP JUMPDEST SWAP3 POP POP DUP2 SWAP1 SSTORE POP PUSH1 0x1 PUSH1 0x9 PUSH1 0x0 CALLER PUSH20 0xFFFFFFFFFFFFFFFFFFFFFFFFFFFFFFFFFFFFFFFF AND PUSH20 0xFFFFFFFFFFFFFFFFFFFFFFFFFFFFFFFFFFFFFFFF AND DUP2 MSTORE PUSH1 0x20 ADD SWAP1 DUP2 MSTORE PUSH1 0x20 ADD PUSH1 0x0 KECCAK256 PUSH1 0x0 DUP3 DUP3 SLOAD PUSH2 0xF85 SWAP2 SWAP1 PUSH2 0x33A2 JUMP JUMPDEST SWAP3 POP POP DUP2 SWAP1 SSTORE POP PUSH2 0xF96 PUSH1 0x1 PUSH2 0x266E JUMP JUMPDEST PUSH1 0xA PUSH1 0x0 DUP7 DUP2 MSTORE PUSH1 0x20 ADD SWAP1 DUP2 MSTORE PUSH1 0x20 ADD PUSH1 0x0 KECCAK256 PUSH1 0x0 CALLER PUSH20 0xFFFFFFFFFFFFFFFFFFFFFFFFFFFFFFFFFFFFFFFF AND PUSH20 0xFFFFFFFFFFFFFFFFFFFFFFFFFFFFFFFFFFFFFFFF AND DUP2 MSTORE PUSH1 0x20 ADD SWAP1 DUP2 MSTORE PUSH1 0x20 ADD PUSH1 0x0 KECCAK256 DUP2 SWAP1 SSTORE POP PUSH1 0x40 MLOAD DUP1 PUSH1 0xA0 ADD PUSH1 0x40 MSTORE DUP1 DUP6 DUP2 MSTORE PUSH1 0x20 ADD DUP5 DUP2 MSTORE PUSH1 0x20 ADD DUP4 DUP2 MSTORE PUSH1 0x20 ADD CALLER PUSH20 0xFFFFFFFFFFFFFFFFFFFFFFFFFFFFFFFFFFFFFFFF AND DUP2 MSTORE PUSH1 0x20 ADD DUP3 DUP2 MSTORE POP PUSH1 0x7 PUSH1 0x0 PUSH2 0x1035 PUSH1 0x1 PUSH2 0x266E JUMP JUMPDEST DUP2 MSTORE PUSH1 0x20 ADD SWAP1 DUP2 MSTORE PUSH1 0x20 ADD PUSH1 0x0 KECCAK256 PUSH1 0x0 DUP7 DUP2 MSTORE PUSH1 0x20 ADD SWAP1 DUP2 MSTORE PUSH1 0x20 ADD PUSH1 0x0 KECCAK256 PUSH1 0x0 DUP3 ADD MLOAD DUP2 PUSH1 0x0 ADD SSTORE PUSH1 0x20 DUP3 ADD MLOAD DUP2 PUSH1 0x1 ADD SSTORE PUSH1 0x40 DUP3 ADD MLOAD DUP2 PUSH1 0x2 ADD SWAP1 DUP1 MLOAD SWAP1 PUSH1 0x20 ADD SWAP1 PUSH2 0x1084 SWAP3 SWAP2 SWAP1 PUSH2 0x267C JUMP JUMPDEST POP PUSH1 0x60 DUP3 ADD MLOAD DUP2 PUSH1 0x3 ADD PUSH1 0x0 PUSH2 0x100 EXP DUP2 SLOAD DUP2 PUSH20 0xFFFFFFFFFFFFFFFFFFFFFFFFFFFFFFFFFFFFFFFF MUL NOT AND SWAP1 DUP4 PUSH20 0xFFFFFFFFFFFFFFFFFFFFFFFFFFFFFFFFFFFFFFFF AND MUL OR SWAP1 SSTORE POP PUSH1 0x80 DUP3 ADD MLOAD DUP2 PUSH1 0x4 ADD SSTORE SWAP1 POP POP POP POP POP POP JUMP JUMPDEST PUSH1 0x6 PUSH1 0x20 MSTORE DUP1 PUSH1 0x0 MSTORE PUSH1 0x40 PUSH1 0x0 KECCAK256 PUSH1 0x0 SWAP2 POP SWAP1 POP DUP1 PUSH1 0x0 ADD SLOAD SWAP1 DUP1 PUSH1 0x1 ADD DUP1 SLOAD PUSH2 0x1108 SWAP1 PUSH2 0x3510 JUMP JUMPDEST DUP1 PUSH1 0x1F ADD PUSH1 0x20 DUP1 SWAP2 DIV MUL PUSH1 0x20 ADD PUSH1 0x40 MLOAD SWAP1 DUP2 ADD PUSH1 0x40 MSTORE DUP1 SWAP3 SWAP2 SWAP1 DUP2 DUP2 MSTORE PUSH1 0x20 ADD DUP3 DUP1 SLOAD PUSH2 0x1134 SWAP1 PUSH2 0x3510 JUMP JUMPDEST DUP1 ISZERO PUSH2 0x1181 JUMPI DUP1 PUSH1 0x1F LT PUSH2 0x1156 JUMPI PUSH2 0x100 DUP1 DUP4 SLOAD DIV MUL DUP4 MSTORE SWAP2 PUSH1 0x20 ADD SWAP2 PUSH2 0x1181 JUMP JUMPDEST DUP3 ADD SWAP2 SWAP1 PUSH1 0x0 MSTORE PUSH1 0x20 PUSH1 0x0 KECCAK256 SWAP1 JUMPDEST DUP2 SLOAD DUP2 MSTORE SWAP1 PUSH1 0x1 ADD SWAP1 PUSH1 0x20 ADD DUP1 DUP4 GT PUSH2 0x1164 JUMPI DUP3 SWAP1 SUB PUSH1 0x1F AND DUP3 ADD SWAP2 JUMPDEST POP POP POP POP POP SWAP1 DUP1 PUSH1 0x2 ADD SLOAD SWAP1 DUP1 PUSH1 0x3 ADD SLOAD SWAP1 DUP1 PUSH1 0x4 ADD SLOAD SWAP1 DUP1 PUSH1 0x5 ADD SLOAD SWAP1 DUP1 PUSH1 0x6 ADD DUP1 SLOAD PUSH2 0x11AE SWAP1 PUSH2 0x3510 JUMP JUMPDEST DUP1 PUSH1 0x1F ADD PUSH1 0x20 DUP1 SWAP2 DIV MUL PUSH1 0x20 ADD PUSH1 0x40 MLOAD SWAP1 DUP2 ADD PUSH1 0x40 MSTORE DUP1 SWAP3 SWAP2 SWAP1 DUP2 DUP2 MSTORE PUSH1 0x20 ADD DUP3 DUP1 SLOAD PUSH2 0x11DA SWAP1 PUSH2 0x3510 JUMP JUMPDEST DUP1 ISZERO PUSH2 0x1227 JUMPI DUP1 PUSH1 0x1F LT PUSH2 0x11FC JUMPI PUSH2 0x100 DUP1 DUP4 SLOAD DIV MUL DUP4 MSTORE SWAP2 PUSH1 0x20 ADD SWAP2 PUSH2 0x1227 JUMP JUMPDEST DUP3 ADD SWAP2 SWAP1 PUSH1 0x0 MSTORE PUSH1 0x20 PUSH1 0x0 KECCAK256 SWAP1 JUMPDEST DUP2 SLOAD DUP2 MSTORE SWAP1 PUSH1 0x1 ADD SWAP1 PUSH1 0x20 ADD DUP1 DUP4 GT PUSH2 0x120A JUMPI DUP3 SWAP1 SUB PUSH1 0x1F AND DUP3 ADD SWAP2 JUMPDEST POP POP POP POP POP SWAP1 DUP1 PUSH1 0x7 ADD DUP1 SLOAD PUSH2 0x123C SWAP1 PUSH2 0x3510 JUMP JUMPDEST DUP1 PUSH1 0x1F ADD PUSH1 0x20 DUP1 SWAP2 DIV MUL PUSH1 0x20 ADD PUSH1 0x40 MLOAD SWAP1 DUP2 ADD PUSH1 0x40 MSTORE DUP1 SWAP3 SWAP2 SWAP1 DUP2 DUP2 MSTORE PUSH1 0x20 ADD DUP3 DUP1 SLOAD PUSH2 0x1268 SWAP1 PUSH2 0x3510 JUMP JUMPDEST DUP1 ISZERO PUSH2 0x12B5 JUMPI DUP1 PUSH1 0x1F LT PUSH2 0x128A JUMPI PUSH2 0x100 DUP1 DUP4 SLOAD DIV MUL DUP4 MSTORE SWAP2 PUSH1 0x20 ADD SWAP2 PUSH2 0x12B5 JUMP JUMPDEST DUP3 ADD SWAP2 SWAP1 PUSH1 0x0 MSTORE PUSH1 0x20 PUSH1 0x0 KECCAK256 SWAP1 JUMPDEST DUP2 SLOAD DUP2 MSTORE SWAP1 PUSH1 0x1 ADD SWAP1 PUSH1 0x20 ADD DUP1 DUP4 GT PUSH2 0x1298 JUMPI DUP3 SWAP1 SUB PUSH1 0x1F AND DUP3 ADD SWAP2 JUMPDEST POP POP POP POP POP SWAP1 DUP1 PUSH1 0x8 ADD PUSH1 0x0 SWAP1 SLOAD SWAP1 PUSH2 0x100 EXP SWAP1 DIV PUSH20 0xFFFFFFFFFFFFFFFFFFFFFFFFFFFFFFFFFFFFFFFF AND SWAP1 POP DUP10 JUMP JUMPDEST PUSH1 0x2 PUSH1 0x0 SWAP1 SLOAD SWAP1 PUSH2 0x100 EXP SWAP1 DIV PUSH20 0xFFFFFFFFFFFFFFFFFFFFFFFFFFFFFFFFFFFFFFFF AND DUP2 JUMP JUMPDEST PUSH1 0x4 PUSH1 0x20 MSTORE DUP2 PUSH1 0x0 MSTORE PUSH1 0x40 PUSH1 0x0 KECCAK256 PUSH1 0x20 MSTORE DUP1 PUSH1 0x0 MSTORE PUSH1 0x40 PUSH1 0x0 KECCAK256 PUSH1 0x0 SWAP2 POP SWAP2 POP SWAP1 SLOAD SWAP1 PUSH2 0x100 EXP SWAP1 DIV PUSH1 0xFF AND DUP2 JUMP JUMPDEST PUSH1 0x60 PUSH1 0x0 PUSH1 0x5 PUSH1 0x0 DUP5 DUP2 MSTORE PUSH1 0x20 ADD SWAP1 DUP2 MSTORE PUSH1 0x20 ADD PUSH1 0x0 KECCAK256 SLOAD PUSH8 0xFFFFFFFFFFFFFFFF DUP2 GT ISZERO PUSH2 0x136B JUMPI PUSH2 0x136A PUSH2 0x3649 JUMP JUMPDEST JUMPDEST PUSH1 0x40 MLOAD SWAP1 DUP1 DUP3 MSTORE DUP1 PUSH1 0x20 MUL PUSH1 0x20 ADD DUP3 ADD PUSH1 0x40 MSTORE DUP1 ISZERO PUSH2 0x13A4 JUMPI DUP2 PUSH1 0x20 ADD JUMPDEST PUSH2 0x1391 PUSH2 0x2742 JUMP JUMPDEST DUP2 MSTORE PUSH1 0x20 ADD SWAP1 PUSH1 0x1 SWAP1 SUB SWAP1 DUP2 PUSH2 0x1389 JUMPI SWAP1 POP JUMPDEST POP SWAP1 POP PUSH1 0x0 DUP1 PUSH1 0x1 SWAP1 POP JUMPDEST PUSH2 0x13B9 PUSH1 0x1 PUSH2 0x266E JUMP JUMPDEST DUP2 GT PUSH2 0x1563 JUMPI PUSH1 0x7 PUSH1 0x0 DUP3 DUP2 MSTORE PUSH1 0x20 ADD SWAP1 DUP2 MSTORE PUSH1 0x20 ADD PUSH1 0x0 KECCAK256 PUSH1 0x0 DUP7 DUP2 MSTORE PUSH1 0x20 ADD SWAP1 DUP2 MSTORE PUSH1 0x20 ADD PUSH1 0x0 KECCAK256 PUSH1 0x0 ADD SLOAD DUP6 EQ ISZERO PUSH2 0x1550 JUMPI PUSH1 0x7 PUSH1 0x0 DUP3 DUP2 MSTORE PUSH1 0x20 ADD SWAP1 DUP2 MSTORE PUSH1 0x20 ADD PUSH1 0x0 KECCAK256 PUSH1 0x0 DUP7 DUP2 MSTORE PUSH1 0x20 ADD SWAP1 DUP2 MSTORE PUSH1 0x20 ADD PUSH1 0x0 KECCAK256 PUSH1 0x40 MLOAD DUP1 PUSH1 0xA0 ADD PUSH1 0x40 MSTORE SWAP1 DUP2 PUSH1 0x0 DUP3 ADD SLOAD DUP2 MSTORE PUSH1 0x20 ADD PUSH1 0x1 DUP3 ADD SLOAD DUP2 MSTORE PUSH1 0x20 ADD PUSH1 0x2 DUP3 ADD DUP1 SLOAD PUSH2 0x1441 SWAP1 PUSH2 0x3510 JUMP JUMPDEST DUP1 PUSH1 0x1F ADD PUSH1 0x20 DUP1 SWAP2 DIV MUL PUSH1 0x20 ADD PUSH1 0x40 MLOAD SWAP1 DUP2 ADD PUSH1 0x40 MSTORE DUP1 SWAP3 SWAP2 SWAP1 DUP2 DUP2 MSTORE PUSH1 0x20 ADD DUP3 DUP1 SLOAD PUSH2 0x146D SWAP1 PUSH2 0x3510 JUMP JUMPDEST DUP1 ISZERO PUSH2 0x14BA JUMPI DUP1 PUSH1 0x1F LT PUSH2 0x148F JUMPI PUSH2 0x100 DUP1 DUP4 SLOAD DIV MUL DUP4 MSTORE SWAP2 PUSH1 0x20 ADD SWAP2 PUSH2 0x14BA JUMP JUMPDEST DUP3 ADD SWAP2 SWAP1 PUSH1 0x0 MSTORE PUSH1 0x20 PUSH1 0x0 KECCAK256 SWAP1 JUMPDEST DUP2 SLOAD DUP2 MSTORE SWAP1 PUSH1 0x1 ADD SWAP1 PUSH1 0x20 ADD DUP1 DUP4 GT PUSH2 0x149D JUMPI DUP3 SWAP1 SUB PUSH1 0x1F AND DUP3 ADD SWAP2 JUMPDEST POP POP POP POP POP DUP2 MSTORE PUSH1 0x20 ADD PUSH1 0x3 DUP3 ADD PUSH1 0x0 SWAP1 SLOAD SWAP1 PUSH2 0x100 EXP SWAP1 DIV PUSH20 0xFFFFFFFFFFFFFFFFFFFFFFFFFFFFFFFFFFFFFFFF AND PUSH20 0xFFFFFFFFFFFFFFFFFFFFFFFFFFFFFFFFFFFFFFFF AND PUSH20 0xFFFFFFFFFFFFFFFFFFFFFFFFFFFFFFFFFFFFFFFF AND DUP2 MSTORE PUSH1 0x20 ADD PUSH1 0x4 DUP3 ADD SLOAD DUP2 MSTORE POP POP DUP4 DUP4 DUP2 MLOAD DUP2 LT PUSH2 0x1536 JUMPI PUSH2 0x1535 PUSH2 0x361A JUMP JUMPDEST JUMPDEST PUSH1 0x20 MUL PUSH1 0x20 ADD ADD DUP2 SWAP1 MSTORE POP DUP2 DUP1 PUSH2 0x154C SWAP1 PUSH2 0x3573 JUMP JUMPDEST SWAP3 POP POP JUMPDEST DUP1 DUP1 PUSH2 0x155B SWAP1 PUSH2 0x3573 JUMP JUMPDEST SWAP2 POP POP PUSH2 0x13AF JUMP JUMPDEST POP DUP2 SWAP3 POP POP POP SWAP2 SWAP1 POP JUMP JUMPDEST PUSH1 0xD PUSH1 0x20 MSTORE DUP1 PUSH1 0x0 MSTORE PUSH1 0x40 PUSH1 0x0 KECCAK256 PUSH1 0x0 SWAP2 POP SWAP1 POP SLOAD DUP2 JUMP JUMPDEST PUSH1 0xA PUSH1 0x20 MSTORE DUP2 PUSH1 0x0 MSTORE PUSH1 0x40 PUSH1 0x0 KECCAK256 PUSH1 0x20 MSTORE DUP1 PUSH1 0x0 MSTORE PUSH1 0x40 PUSH1 0x0 KECCAK256 PUSH1 0x0 SWAP2 POP SWAP2 POP POP SLOAD DUP2 JUMP JUMPDEST PUSH1 0x40 MLOAD DUP1 PUSH1 0x60 ADD PUSH1 0x40 MSTORE DUP1 DUP5 PUSH20 0xFFFFFFFFFFFFFFFFFFFFFFFFFFFFFFFFFFFFFFFF AND DUP2 MSTORE PUSH1 0x20 ADD DUP3 DUP2 MSTORE PUSH1 0x20 ADD PUSH1 0x1 ISZERO ISZERO DUP2 MSTORE POP PUSH1 0xB PUSH1 0x0 DUP7 DUP2 MSTORE PUSH1 0x20 ADD SWAP1 DUP2 MSTORE PUSH1 0x20 ADD PUSH1 0x0 KECCAK256 PUSH1 0x0 DUP5 PUSH20 0xFFFFFFFFFFFFFFFFFFFFFFFFFFFFFFFFFFFFFFFF AND PUSH20 0xFFFFFFFFFFFFFFFFFFFFFFFFFFFFFFFFFFFFFFFF AND DUP2 MSTORE PUSH1 0x20 ADD SWAP1 DUP2 MSTORE PUSH1 0x20 ADD PUSH1 0x0 KECCAK256 PUSH1 0x0 DUP3 ADD MLOAD DUP2 PUSH1 0x0 ADD PUSH1 0x0 PUSH2 0x100 EXP DUP2 SLOAD DUP2 PUSH20 0xFFFFFFFFFFFFFFFFFFFFFFFFFFFFFFFFFFFFFFFF MUL NOT AND SWAP1 DUP4 PUSH20 0xFFFFFFFFFFFFFFFFFFFFFFFFFFFFFFFFFFFFFFFF AND MUL OR SWAP1 SSTORE POP PUSH1 0x20 DUP3 ADD MLOAD DUP2 PUSH1 0x1 ADD SSTORE PUSH1 0x40 DUP3 ADD MLOAD DUP2 PUSH1 0x2 ADD PUSH1 0x0 PUSH2 0x100 EXP DUP2 SLOAD DUP2 PUSH1 0xFF MUL NOT AND SWAP1 DUP4 ISZERO ISZERO MUL OR SWAP1 SSTORE POP SWAP1 POP POP PUSH1 0x1 PUSH1 0x4 PUSH1 0x0 DUP5 PUSH20 0xFFFFFFFFFFFFFFFFFFFFFFFFFFFFFFFFFFFFFFFF AND PUSH20 0xFFFFFFFFFFFFFFFFFFFFFFFFFFFFFFFFFFFFFFFF AND DUP2 MSTORE PUSH1 0x20 ADD SWAP1 DUP2 MSTORE PUSH1 0x20 ADD PUSH1 0x0 KECCAK256 PUSH1 0x0 DUP7 DUP2 MSTORE PUSH1 0x20 ADD SWAP1 DUP2 MSTORE PUSH1 0x20 ADD PUSH1 0x0 KECCAK256 PUSH1 0x0 PUSH2 0x100 EXP DUP2 SLOAD DUP2 PUSH1 0xFF MUL NOT AND SWAP1 DUP4 ISZERO ISZERO MUL OR SWAP1 SSTORE POP PUSH1 0x1 PUSH1 0xC PUSH1 0x0 DUP5 PUSH20 0xFFFFFFFFFFFFFFFFFFFFFFFFFFFFFFFFFFFFFFFF AND PUSH20 0xFFFFFFFFFFFFFFFFFFFFFFFFFFFFFFFFFFFFFFFF AND DUP2 MSTORE PUSH1 0x20 ADD SWAP1 DUP2 MSTORE PUSH1 0x20 ADD PUSH1 0x0 KECCAK256 PUSH1 0x0 DUP7 DUP2 MSTORE PUSH1 0x20 ADD SWAP1 DUP2 MSTORE PUSH1 0x20 ADD PUSH1 0x0 KECCAK256 PUSH1 0x0 DUP6 PUSH20 0xFFFFFFFFFFFFFFFFFFFFFFFFFFFFFFFFFFFFFFFF AND PUSH20 0xFFFFFFFFFFFFFFFFFFFFFFFFFFFFFFFFFFFFFFFF AND DUP2 MSTORE PUSH1 0x20 ADD SWAP1 DUP2 MSTORE PUSH1 0x20 ADD PUSH1 0x0 KECCAK256 PUSH1 0x0 PUSH2 0x100 EXP DUP2 SLOAD DUP2 PUSH1 0xFF MUL NOT AND SWAP1 DUP4 ISZERO ISZERO MUL OR SWAP1 SSTORE POP POP POP POP POP JUMP JUMPDEST PUSH1 0xC PUSH1 0x20 MSTORE DUP3 PUSH1 0x0 MSTORE PUSH1 0x40 PUSH1 0x0 KECCAK256 PUSH1 0x20 MSTORE DUP2 PUSH1 0x0 MSTORE PUSH1 0x40 PUSH1 0x0 KECCAK256 PUSH1 0x20 MSTORE DUP1 PUSH1 0x0 MSTORE PUSH1 0x40 PUSH1 0x0 KECCAK256 PUSH1 0x0 SWAP3 POP SWAP3 POP POP SWAP1 SLOAD SWAP1 PUSH2 0x100 EXP SWAP1 DIV PUSH1 0xFF AND DUP2 JUMP JUMPDEST PUSH1 0x3 PUSH1 0x20 MSTORE DUP1 PUSH1 0x0 MSTORE PUSH1 0x40 PUSH1 0x0 KECCAK256 PUSH1 0x0 SWAP2 POP SWAP1 POP SLOAD DUP2 JUMP JUMPDEST PUSH1 0x0 PUSH1 0xC PUSH1 0x0 DUP4 PUSH20 0xFFFFFFFFFFFFFFFFFFFFFFFFFFFFFFFFFFFFFFFF AND PUSH20 0xFFFFFFFFFFFFFFFFFFFFFFFFFFFFFFFFFFFFFFFF AND DUP2 MSTORE PUSH1 0x20 ADD SWAP1 DUP2 MSTORE PUSH1 0x20 ADD PUSH1 0x0 KECCAK256 PUSH1 0x0 DUP6 DUP2 MSTORE PUSH1 0x20 ADD SWAP1 DUP2 MSTORE PUSH1 0x20 ADD PUSH1 0x0 KECCAK256 PUSH1 0x0 DUP5 PUSH20 0xFFFFFFFFFFFFFFFFFFFFFFFFFFFFFFFFFFFFFFFF AND PUSH20 0xFFFFFFFFFFFFFFFFFFFFFFFFFFFFFFFFFFFFFFFF AND DUP2 MSTORE PUSH1 0x20 ADD SWAP1 DUP2 MSTORE PUSH1 0x20 ADD PUSH1 0x0 KECCAK256 PUSH1 0x0 SWAP1 SLOAD SWAP1 PUSH2 0x100 EXP SWAP1 DIV PUSH1 0xFF AND SWAP1 POP SWAP4 SWAP3 POP POP POP JUMP JUMPDEST PUSH1 0x60 PUSH1 0x0 PUSH2 0x18C0 PUSH1 0x0 PUSH2 0x266E JUMP JUMPDEST PUSH8 0xFFFFFFFFFFFFFFFF DUP2 GT ISZERO PUSH2 0x18D9 JUMPI PUSH2 0x18D8 PUSH2 0x3649 JUMP JUMPDEST JUMPDEST PUSH1 0x40 MLOAD SWAP1 DUP1 DUP3 MSTORE DUP1 PUSH1 0x20 MUL PUSH1 0x20 ADD DUP3 ADD PUSH1 0x40 MSTORE DUP1 ISZERO PUSH2 0x1912 JUMPI DUP2 PUSH1 0x20 ADD JUMPDEST PUSH2 0x18FF PUSH2 0x2787 JUMP JUMPDEST DUP2 MSTORE PUSH1 0x20 ADD SWAP1 PUSH1 0x1 SWAP1 SUB SWAP1 DUP2 PUSH2 0x18F7 JUMPI SWAP1 POP JUMPDEST POP SWAP1 POP PUSH1 0x0 DUP1 PUSH1 0x1 SWAP1 POP JUMPDEST PUSH2 0x1927 PUSH1 0x0 PUSH2 0x266E JUMP JUMPDEST DUP2 GT PUSH2 0x1BC9 JUMPI PUSH1 0x6 PUSH1 0x0 DUP3 DUP2 MSTORE PUSH1 0x20 ADD SWAP1 DUP2 MSTORE PUSH1 0x20 ADD PUSH1 0x0 KECCAK256 PUSH1 0x40 MLOAD DUP1 PUSH2 0x120 ADD PUSH1 0x40 MSTORE SWAP1 DUP2 PUSH1 0x0 DUP3 ADD SLOAD DUP2 MSTORE PUSH1 0x20 ADD PUSH1 0x1 DUP3 ADD DUP1 SLOAD PUSH2 0x1966 SWAP1 PUSH2 0x3510 JUMP JUMPDEST DUP1 PUSH1 0x1F ADD PUSH1 0x20 DUP1 SWAP2 DIV MUL PUSH1 0x20 ADD PUSH1 0x40 MLOAD SWAP1 DUP2 ADD PUSH1 0x40 MSTORE DUP1 SWAP3 SWAP2 SWAP1 DUP2 DUP2 MSTORE PUSH1 0x20 ADD DUP3 DUP1 SLOAD PUSH2 0x1992 SWAP1 PUSH2 0x3510 JUMP JUMPDEST DUP1 ISZERO PUSH2 0x19DF JUMPI DUP1 PUSH1 0x1F LT PUSH2 0x19B4 JUMPI PUSH2 0x100 DUP1 DUP4 SLOAD DIV MUL DUP4 MSTORE SWAP2 PUSH1 0x20 ADD SWAP2 PUSH2 0x19DF JUMP JUMPDEST DUP3 ADD SWAP2 SWAP1 PUSH1 0x0 MSTORE PUSH1 0x20 PUSH1 0x0 KECCAK256 SWAP1 JUMPDEST DUP2 SLOAD DUP2 MSTORE SWAP1 PUSH1 0x1 ADD SWAP1 PUSH1 0x20 ADD DUP1 DUP4 GT PUSH2 0x19C2 JUMPI DUP3 SWAP1 SUB PUSH1 0x1F AND DUP3 ADD SWAP2 JUMPDEST POP POP POP POP POP DUP2 MSTORE PUSH1 0x20 ADD PUSH1 0x2 DUP3 ADD SLOAD DUP2 MSTORE PUSH1 0x20 ADD PUSH1 0x3 DUP3 ADD SLOAD DUP2 MSTORE PUSH1 0x20 ADD PUSH1 0x4 DUP3 ADD SLOAD DUP2 MSTORE PUSH1 0x20 ADD PUSH1 0x5 DUP3 ADD SLOAD DUP2 MSTORE PUSH1 0x20 ADD PUSH1 0x6 DUP3 ADD DUP1 SLOAD PUSH2 0x1A20 SWAP1 PUSH2 0x3510 JUMP JUMPDEST DUP1 PUSH1 0x1F ADD PUSH1 0x20 DUP1 SWAP2 DIV MUL PUSH1 0x20 ADD PUSH1 0x40 MLOAD SWAP1 DUP2 ADD PUSH1 0x40 MSTORE DUP1 SWAP3 SWAP2 SWAP1 DUP2 DUP2 MSTORE PUSH1 0x20 ADD DUP3 DUP1 SLOAD PUSH2 0x1A4C SWAP1 PUSH2 0x3510 JUMP JUMPDEST DUP1 ISZERO PUSH2 0x1A99 JUMPI DUP1 PUSH1 0x1F LT PUSH2 0x1A6E JUMPI PUSH2 0x100 DUP1 DUP4 SLOAD DIV MUL DUP4 MSTORE SWAP2 PUSH1 0x20 ADD SWAP2 PUSH2 0x1A99 JUMP JUMPDEST DUP3 ADD SWAP2 SWAP1 PUSH1 0x0 MSTORE PUSH1 0x20 PUSH1 0x0 KECCAK256 SWAP1 JUMPDEST DUP2 SLOAD DUP2 MSTORE SWAP1 PUSH1 0x1 ADD SWAP1 PUSH1 0x20 ADD DUP1 DUP4 GT PUSH2 0x1A7C JUMPI DUP3 SWAP1 SUB PUSH1 0x1F AND DUP3 ADD SWAP2 JUMPDEST POP POP POP POP POP DUP2 MSTORE PUSH1 0x20 ADD PUSH1 0x7 DUP3 ADD DUP1 SLOAD PUSH2 0x1AB2 SWAP1 PUSH2 0x3510 JUMP JUMPDEST DUP1 PUSH1 0x1F ADD PUSH1 0x20 DUP1 SWAP2 DIV MUL PUSH1 0x20 ADD PUSH1 0x40 MLOAD SWAP1 DUP2 ADD PUSH1 0x40 MSTORE DUP1 SWAP3 SWAP2 SWAP1 DUP2 DUP2 MSTORE PUSH1 0x20 ADD DUP3 DUP1 SLOAD PUSH2 0x1ADE SWAP1 PUSH2 0x3510 JUMP JUMPDEST DUP1 ISZERO PUSH2 0x1B2B JUMPI DUP1 PUSH1 0x1F LT PUSH2 0x1B00 JUMPI PUSH2 0x100 DUP1 DUP4 SLOAD DIV MUL DUP4 MSTORE SWAP2 PUSH1 0x20 ADD SWAP2 PUSH2 0x1B2B JUMP JUMPDEST DUP3 ADD SWAP2 SWAP1 PUSH1 0x0 MSTORE PUSH1 0x20 PUSH1 0x0 KECCAK256 SWAP1 JUMPDEST DUP2 SLOAD DUP2 MSTORE SWAP1 PUSH1 0x1 ADD SWAP1 PUSH1 0x20 ADD DUP1 DUP4 GT PUSH2 0x1B0E JUMPI DUP3 SWAP1 SUB PUSH1 0x1F AND DUP3 ADD SWAP2 JUMPDEST POP POP POP POP POP DUP2 MSTORE PUSH1 0x20 ADD PUSH1 0x8 DUP3 ADD PUSH1 0x0 SWAP1 SLOAD SWAP1 PUSH2 0x100 EXP SWAP1 DIV PUSH20 0xFFFFFFFFFFFFFFFFFFFFFFFFFFFFFFFFFFFFFFFF AND PUSH20 0xFFFFFFFFFFFFFFFFFFFFFFFFFFFFFFFFFFFFFFFF AND PUSH20 0xFFFFFFFFFFFFFFFFFFFFFFFFFFFFFFFFFFFFFFFF AND DUP2 MSTORE POP POP DUP4 DUP4 DUP2 MLOAD DUP2 LT PUSH2 0x1B9D JUMPI PUSH2 0x1B9C PUSH2 0x361A JUMP JUMPDEST JUMPDEST PUSH1 0x20 MUL PUSH1 0x20 ADD ADD DUP2 SWAP1 MSTORE POP DUP2 DUP1 PUSH2 0x1BB3 SWAP1 PUSH2 0x3573 JUMP JUMPDEST SWAP3 POP POP DUP1 DUP1 PUSH2 0x1BC1 SWAP1 PUSH2 0x3573 JUMP JUMPDEST SWAP2 POP POP PUSH2 0x191D JUMP JUMPDEST POP DUP2 SWAP3 POP POP POP SWAP1 JUMP JUMPDEST PUSH1 0x40 MLOAD DUP1 PUSH1 0xA0 ADD PUSH1 0x40 MSTORE DUP1 DUP6 DUP2 MSTORE PUSH1 0x20 ADD DUP5 DUP2 MSTORE PUSH1 0x20 ADD DUP4 DUP2 MSTORE PUSH1 0x20 ADD CALLER PUSH20 0xFFFFFFFFFFFFFFFFFFFFFFFFFFFFFFFFFFFFFFFF AND DUP2 MSTORE PUSH1 0x20 ADD DUP3 DUP2 MSTORE POP PUSH1 0x7 PUSH1 0x0 PUSH1 0xA PUSH1 0x0 DUP9 DUP2 MSTORE PUSH1 0x20 ADD SWAP1 DUP2 MSTORE PUSH1 0x20 ADD PUSH1 0x0 KECCAK256 PUSH1 0x0 CALLER PUSH20 0xFFFFFFFFFFFFFFFFFFFFFFFFFFFFFFFFFFFFFFFF AND PUSH20 0xFFFFFFFFFFFFFFFFFFFFFFFFFFFFFFFFFFFFFFFF AND DUP2 MSTORE PUSH1 0x20 ADD SWAP1 DUP2 MSTORE PUSH1 0x20 ADD PUSH1 0x0 KECCAK256 SLOAD DUP2 MSTORE PUSH1 0x20 ADD SWAP1 DUP2 MSTORE PUSH1 0x20 ADD PUSH1 0x0 KECCAK256 PUSH1 0x0 DUP7 DUP2 MSTORE PUSH1 0x20 ADD SWAP1 DUP2 MSTORE PUSH1 0x20 ADD PUSH1 0x0 KECCAK256 PUSH1 0x0 DUP3 ADD MLOAD DUP2 PUSH1 0x0 ADD SSTORE PUSH1 0x20 DUP3 ADD MLOAD DUP2 PUSH1 0x1 ADD SSTORE PUSH1 0x40 DUP3 ADD MLOAD DUP2 PUSH1 0x2 ADD SWAP1 DUP1 MLOAD SWAP1 PUSH1 0x20 ADD SWAP1 PUSH2 0x1CB3 SWAP3 SWAP2 SWAP1 PUSH2 0x267C JUMP JUMPDEST POP PUSH1 0x60 DUP3 ADD MLOAD DUP2 PUSH1 0x3 ADD PUSH1 0x0 PUSH2 0x100 EXP DUP2 SLOAD DUP2 PUSH20 0xFFFFFFFFFFFFFFFFFFFFFFFFFFFFFFFFFFFFFFFF MUL NOT AND SWAP1 DUP4 PUSH20 0xFFFFFFFFFFFFFFFFFFFFFFFFFFFFFFFFFFFFFFFF AND MUL OR SWAP1 SSTORE POP PUSH1 0x80 DUP3 ADD MLOAD DUP2 PUSH1 0x4 ADD SSTORE SWAP1 POP POP POP POP POP POP JUMP JUMPDEST PUSH1 0x60 PUSH1 0x0 PUSH1 0x9 PUSH1 0x0 DUP5 PUSH20 0xFFFFFFFFFFFFFFFFFFFFFFFFFFFFFFFFFFFFFFFF AND PUSH20 0xFFFFFFFFFFFFFFFFFFFFFFFFFFFFFFFFFFFFFFFF AND DUP2 MSTORE PUSH1 0x20 ADD SWAP1 DUP2 MSTORE PUSH1 0x20 ADD PUSH1 0x0 KECCAK256 SLOAD PUSH8 0xFFFFFFFFFFFFFFFF DUP2 GT ISZERO PUSH2 0x1D6B JUMPI PUSH2 0x1D6A PUSH2 0x3649 JUMP JUMPDEST JUMPDEST PUSH1 0x40 MLOAD SWAP1 DUP1 DUP3 MSTORE DUP1 PUSH1 0x20 MUL PUSH1 0x20 ADD DUP3 ADD PUSH1 0x40 MSTORE DUP1 ISZERO PUSH2 0x1DA4 JUMPI DUP2 PUSH1 0x20 ADD JUMPDEST PUSH2 0x1D91 PUSH2 0x2742 JUMP JUMPDEST DUP2 MSTORE PUSH1 0x20 ADD SWAP1 PUSH1 0x1 SWAP1 SUB SWAP1 DUP2 PUSH2 0x1D89 JUMPI SWAP1 POP JUMPDEST POP SWAP1 POP PUSH1 0x0 DUP1 PUSH1 0x1 SWAP1 POP JUMPDEST PUSH2 0x1DB9 PUSH1 0x0 PUSH2 0x266E JUMP JUMPDEST DUP2 GT PUSH2 0x1FDA JUMPI PUSH1 0x0 PUSH1 0x1 SWAP1 POP JUMPDEST PUSH2 0x1DD0 PUSH1 0x1 PUSH2 0x266E JUMP JUMPDEST DUP2 GT PUSH2 0x1FC6 JUMPI PUSH1 0x7 PUSH1 0x0 DUP3 DUP2 MSTORE PUSH1 0x20 ADD SWAP1 DUP2 MSTORE PUSH1 0x20 ADD PUSH1 0x0 KECCAK256 PUSH1 0x0 DUP4 DUP2 MSTORE PUSH1 0x20 ADD SWAP1 DUP2 MSTORE PUSH1 0x20 ADD PUSH1 0x0 KECCAK256 PUSH1 0x3 ADD PUSH1 0x0 SWAP1 SLOAD SWAP1 PUSH2 0x100 EXP SWAP1 DIV PUSH20 0xFFFFFFFFFFFFFFFFFFFFFFFFFFFFFFFFFFFFFFFF AND PUSH20 0xFFFFFFFFFFFFFFFFFFFFFFFFFFFFFFFFFFFFFFFF AND DUP7 PUSH20 0xFFFFFFFFFFFFFFFFFFFFFFFFFFFFFFFFFFFFFFFF AND EQ ISZERO PUSH2 0x1FB3 JUMPI PUSH1 0x7 PUSH1 0x0 DUP3 DUP2 MSTORE PUSH1 0x20 ADD SWAP1 DUP2 MSTORE PUSH1 0x20 ADD PUSH1 0x0 KECCAK256 PUSH1 0x0 DUP4 DUP2 MSTORE PUSH1 0x20 ADD SWAP1 DUP2 MSTORE PUSH1 0x20 ADD PUSH1 0x0 KECCAK256 PUSH1 0x40 MLOAD DUP1 PUSH1 0xA0 ADD PUSH1 0x40 MSTORE SWAP1 DUP2 PUSH1 0x0 DUP3 ADD SLOAD DUP2 MSTORE PUSH1 0x20 ADD PUSH1 0x1 DUP3 ADD SLOAD DUP2 MSTORE PUSH1 0x20 ADD PUSH1 0x2 DUP3 ADD DUP1 SLOAD PUSH2 0x1EA4 SWAP1 PUSH2 0x3510 JUMP JUMPDEST DUP1 PUSH1 0x1F ADD PUSH1 0x20 DUP1 SWAP2 DIV MUL PUSH1 0x20 ADD PUSH1 0x40 MLOAD SWAP1 DUP2 ADD PUSH1 0x40 MSTORE DUP1 SWAP3 SWAP2 SWAP1 DUP2 DUP2 MSTORE PUSH1 0x20 ADD DUP3 DUP1 SLOAD PUSH2 0x1ED0 SWAP1 PUSH2 0x3510 JUMP JUMPDEST DUP1 ISZERO PUSH2 0x1F1D JUMPI DUP1 PUSH1 0x1F LT PUSH2 0x1EF2 JUMPI PUSH2 0x100 DUP1 DUP4 SLOAD DIV MUL DUP4 MSTORE SWAP2 PUSH1 0x20 ADD SWAP2 PUSH2 0x1F1D JUMP JUMPDEST DUP3 ADD SWAP2 SWAP1 PUSH1 0x0 MSTORE PUSH1 0x20 PUSH1 0x0 KECCAK256 SWAP1 JUMPDEST DUP2 SLOAD DUP2 MSTORE SWAP1 PUSH1 0x1 ADD SWAP1 PUSH1 0x20 ADD DUP1 DUP4 GT PUSH2 0x1F00 JUMPI DUP3 SWAP1 SUB PUSH1 0x1F AND DUP3 ADD SWAP2 JUMPDEST POP POP POP POP POP DUP2 MSTORE PUSH1 0x20 ADD PUSH1 0x3 DUP3 ADD PUSH1 0x0 SWAP1 SLOAD SWAP1 PUSH2 0x100 EXP SWAP1 DIV PUSH20 0xFFFFFFFFFFFFFFFFFFFFFFFFFFFFFFFFFFFFFFFF AND PUSH20 0xFFFFFFFFFFFFFFFFFFFFFFFFFFFFFFFFFFFFFFFF AND PUSH20 0xFFFFFFFFFFFFFFFFFFFFFFFFFFFFFFFFFFFFFFFF AND DUP2 MSTORE PUSH1 0x20 ADD PUSH1 0x4 DUP3 ADD SLOAD DUP2 MSTORE POP POP DUP5 DUP5 DUP2 MLOAD DUP2 LT PUSH2 0x1F99 JUMPI PUSH2 0x1F98 PUSH2 0x361A JUMP JUMPDEST JUMPDEST PUSH1 0x20 MUL PUSH1 0x20 ADD ADD DUP2 SWAP1 MSTORE POP DUP3 DUP1 PUSH2 0x1FAF SWAP1 PUSH2 0x3573 JUMP JUMPDEST SWAP4 POP POP JUMPDEST DUP1 DUP1 PUSH2 0x1FBE SWAP1 PUSH2 0x3573 JUMP JUMPDEST SWAP2 POP POP PUSH2 0x1DC6 JUMP JUMPDEST POP DUP1 DUP1 PUSH2 0x1FD2 SWAP1 PUSH2 0x3573 JUMP JUMPDEST SWAP2 POP POP PUSH2 0x1DAF JUMP JUMPDEST POP DUP2 SWAP3 POP POP POP SWAP2 SWAP1 POP JUMP JUMPDEST PUSH1 0x60 PUSH1 0x0 PUSH1 0x3 PUSH1 0x0 DUP5 PUSH20 0xFFFFFFFFFFFFFFFFFFFFFFFFFFFFFFFFFFFFFFFF AND PUSH20 0xFFFFFFFFFFFFFFFFFFFFFFFFFFFFFFFFFFFFFFFF AND DUP2 MSTORE PUSH1 0x20 ADD SWAP1 DUP2 MSTORE PUSH1 0x20 ADD PUSH1 0x0 KECCAK256 SLOAD PUSH8 0xFFFFFFFFFFFFFFFF DUP2 GT ISZERO PUSH2 0x2042 JUMPI PUSH2 0x2041 PUSH2 0x3649 JUMP JUMPDEST JUMPDEST PUSH1 0x40 MLOAD SWAP1 DUP1 DUP3 MSTORE DUP1 PUSH1 0x20 MUL PUSH1 0x20 ADD DUP3 ADD PUSH1 0x40 MSTORE DUP1 ISZERO PUSH2 0x207B JUMPI DUP2 PUSH1 0x20 ADD JUMPDEST PUSH2 0x2068 PUSH2 0x2787 JUMP JUMPDEST DUP2 MSTORE PUSH1 0x20 ADD SWAP1 PUSH1 0x1 SWAP1 SUB SWAP1 DUP2 PUSH2 0x2060 JUMPI SWAP1 POP JUMPDEST POP SWAP1 POP PUSH1 0x0 DUP1 PUSH1 0x1 SWAP1 POP JUMPDEST PUSH2 0x2090 PUSH1 0x0 PUSH2 0x266E JUMP JUMPDEST DUP2 GT PUSH2 0x239D JUMPI PUSH1 0x6 PUSH1 0x0 DUP3 DUP2 MSTORE PUSH1 0x20 ADD SWAP1 DUP2 MSTORE PUSH1 0x20 ADD PUSH1 0x0 KECCAK256 PUSH1 0x8 ADD PUSH1 0x0 SWAP1 SLOAD SWAP1 PUSH2 0x100 EXP SWAP1 DIV PUSH20 0xFFFFFFFFFFFFFFFFFFFFFFFFFFFFFFFFFFFFFFFF AND PUSH20 0xFFFFFFFFFFFFFFFFFFFFFFFFFFFFFFFFFFFFFFFF AND DUP6 PUSH20 0xFFFFFFFFFFFFFFFFFFFFFFFFFFFFFFFFFFFFFFFF AND EQ ISZERO PUSH2 0x238A JUMPI PUSH1 0x6 PUSH1 0x0 DUP3 DUP2 MSTORE PUSH1 0x20 ADD SWAP1 DUP2 MSTORE PUSH1 0x20 ADD PUSH1 0x0 KECCAK256 PUSH1 0x40 MLOAD DUP1 PUSH2 0x120 ADD PUSH1 0x40 MSTORE SWAP1 DUP2 PUSH1 0x0 DUP3 ADD SLOAD DUP2 MSTORE PUSH1 0x20 ADD PUSH1 0x1 DUP3 ADD DUP1 SLOAD PUSH2 0x2139 SWAP1 PUSH2 0x3510 JUMP JUMPDEST DUP1 PUSH1 0x1F ADD PUSH1 0x20 DUP1 SWAP2 DIV MUL PUSH1 0x20 ADD PUSH1 0x40 MLOAD SWAP1 DUP2 ADD PUSH1 0x40 MSTORE DUP1 SWAP3 SWAP2 SWAP1 DUP2 DUP2 MSTORE PUSH1 0x20 ADD DUP3 DUP1 SLOAD PUSH2 0x2165 SWAP1 PUSH2 0x3510 JUMP JUMPDEST DUP1 ISZERO PUSH2 0x21B2 JUMPI DUP1 PUSH1 0x1F LT PUSH2 0x2187 JUMPI PUSH2 0x100 DUP1 DUP4 SLOAD DIV MUL DUP4 MSTORE SWAP2 PUSH1 0x20 ADD SWAP2 PUSH2 0x21B2 JUMP JUMPDEST DUP3 ADD SWAP2 SWAP1 PUSH1 0x0 MSTORE PUSH1 0x20 PUSH1 0x0 KECCAK256 SWAP1 JUMPDEST DUP2 SLOAD DUP2 MSTORE SWAP1 PUSH1 0x1 ADD SWAP1 PUSH1 0x20 ADD DUP1 DUP4 GT PUSH2 0x2195 JUMPI DUP3 SWAP1 SUB PUSH1 0x1F AND DUP3 ADD SWAP2 JUMPDEST POP POP POP POP POP DUP2 MSTORE PUSH1 0x20 ADD PUSH1 0x2 DUP3 ADD SLOAD DUP2 MSTORE PUSH1 0x20 ADD PUSH1 0x3 DUP3 ADD SLOAD DUP2 MSTORE PUSH1 0x20 ADD PUSH1 0x4 DUP3 ADD SLOAD DUP2 MSTORE PUSH1 0x20 ADD PUSH1 0x5 DUP3 ADD SLOAD DUP2 MSTORE PUSH1 0x20 ADD PUSH1 0x6 DUP3 ADD DUP1 SLOAD PUSH2 0x21F3 SWAP1 PUSH2 0x3510 JUMP JUMPDEST DUP1 PUSH1 0x1F ADD PUSH1 0x20 DUP1 SWAP2 DIV MUL PUSH1 0x20 ADD PUSH1 0x40 MLOAD SWAP1 DUP2 ADD PUSH1 0x40 MSTORE DUP1 SWAP3 SWAP2 SWAP1 DUP2 DUP2 MSTORE PUSH1 0x20 ADD DUP3 DUP1 SLOAD PUSH2 0x221F SWAP1 PUSH2 0x3510 JUMP JUMPDEST DUP1 ISZERO PUSH2 0x226C JUMPI DUP1 PUSH1 0x1F LT PUSH2 0x2241 JUMPI PUSH2 0x100 DUP1 DUP4 SLOAD DIV MUL DUP4 MSTORE SWAP2 PUSH1 0x20 ADD SWAP2 PUSH2 0x226C JUMP JUMPDEST DUP3 ADD SWAP2 SWAP1 PUSH1 0x0 MSTORE PUSH1 0x20 PUSH1 0x0 KECCAK256 SWAP1 JUMPDEST DUP2 SLOAD DUP2 MSTORE SWAP1 PUSH1 0x1 ADD SWAP1 PUSH1 0x20 ADD DUP1 DUP4 GT PUSH2 0x224F JUMPI DUP3 SWAP1 SUB PUSH1 0x1F AND DUP3 ADD SWAP2 JUMPDEST POP POP POP POP POP DUP2 MSTORE PUSH1 0x20 ADD PUSH1 0x7 DUP3 ADD DUP1 SLOAD PUSH2 0x2285 SWAP1 PUSH2 0x3510 JUMP JUMPDEST DUP1 PUSH1 0x1F ADD PUSH1 0x20 DUP1 SWAP2 DIV MUL PUSH1 0x20 ADD PUSH1 0x40 MLOAD SWAP1 DUP2 ADD PUSH1 0x40 MSTORE DUP1 SWAP3 SWAP2 SWAP1 DUP2 DUP2 MSTORE PUSH1 0x20 ADD DUP3 DUP1 SLOAD PUSH2 0x22B1 SWAP1 PUSH2 0x3510 JUMP JUMPDEST DUP1 ISZERO PUSH2 0x22FE JUMPI DUP1 PUSH1 0x1F LT PUSH2 0x22D3 JUMPI PUSH2 0x100 DUP1 DUP4 SLOAD DIV MUL DUP4 MSTORE SWAP2 PUSH1 0x20 ADD SWAP2 PUSH2 0x22FE JUMP JUMPDEST DUP3 ADD SWAP2 SWAP1 PUSH1 0x0 MSTORE PUSH1 0x20 PUSH1 0x0 KECCAK256 SWAP1 JUMPDEST DUP2 SLOAD DUP2 MSTORE SWAP1 PUSH1 0x1 ADD SWAP1 PUSH1 0x20 ADD DUP1 DUP4 GT PUSH2 0x22E1 JUMPI DUP3 SWAP1 SUB PUSH1 0x1F AND DUP3 ADD SWAP2 JUMPDEST POP POP POP POP POP DUP2 MSTORE PUSH1 0x20 ADD PUSH1 0x8 DUP3 ADD PUSH1 0x0 SWAP1 SLOAD SWAP1 PUSH2 0x100 EXP SWAP1 DIV PUSH20 0xFFFFFFFFFFFFFFFFFFFFFFFFFFFFFFFFFFFFFFFF AND PUSH20 0xFFFFFFFFFFFFFFFFFFFFFFFFFFFFFFFFFFFFFFFF AND PUSH20 0xFFFFFFFFFFFFFFFFFFFFFFFFFFFFFFFFFFFFFFFF AND DUP2 MSTORE POP POP DUP4 DUP4 DUP2 MLOAD DUP2 LT PUSH2 0x2370 JUMPI PUSH2 0x236F PUSH2 0x361A JUMP JUMPDEST JUMPDEST PUSH1 0x20 MUL PUSH1 0x20 ADD ADD DUP2 SWAP1 MSTORE POP DUP2 DUP1 PUSH2 0x2386 SWAP1 PUSH2 0x3573 JUMP JUMPDEST SWAP3 POP POP JUMPDEST DUP1 DUP1 PUSH2 0x2395 SWAP1 PUSH2 0x3573 JUMP JUMPDEST SWAP2 POP POP PUSH2 0x2086 JUMP JUMPDEST POP DUP2 SWAP3 POP POP POP SWAP2 SWAP1 POP JUMP JUMPDEST DUP3 PUSH20 0xFFFFFFFFFFFFFFFFFFFFFFFFFFFFFFFFFFFFFFFF AND PUSH1 0xB PUSH1 0x0 DUP4 DUP2 MSTORE PUSH1 0x20 ADD SWAP1 DUP2 MSTORE PUSH1 0x20 ADD PUSH1 0x0 KECCAK256 PUSH1 0x0 DUP5 PUSH20 0xFFFFFFFFFFFFFFFFFFFFFFFFFFFFFFFFFFFFFFFF AND PUSH20 0xFFFFFFFFFFFFFFFFFFFFFFFFFFFFFFFFFFFFFFFF AND DUP2 MSTORE PUSH1 0x20 ADD SWAP1 DUP2 MSTORE PUSH1 0x20 ADD PUSH1 0x0 KECCAK256 PUSH1 0x0 ADD PUSH1 0x0 SWAP1 SLOAD SWAP1 PUSH2 0x100 EXP SWAP1 DIV PUSH20 0xFFFFFFFFFFFFFFFFFFFFFFFFFFFFFFFFFFFFFFFF AND PUSH20 0xFFFFFFFFFFFFFFFFFFFFFFFFFFFFFFFFFFFFFFFF AND EQ PUSH2 0x2489 JUMPI PUSH1 0x40 MLOAD PUSH32 0x8C379A000000000000000000000000000000000000000000000000000000000 DUP2 MSTORE PUSH1 0x4 ADD PUSH2 0x2480 SWAP1 PUSH2 0x3116 JUMP JUMPDEST PUSH1 0x40 MLOAD DUP1 SWAP2 SUB SWAP1 REVERT JUMPDEST PUSH1 0xB PUSH1 0x0 DUP3 DUP2 MSTORE PUSH1 0x20 ADD SWAP1 DUP2 MSTORE PUSH1 0x20 ADD PUSH1 0x0 KECCAK256 PUSH1 0x0 DUP4 PUSH20 0xFFFFFFFFFFFFFFFFFFFFFFFFFFFFFFFFFFFFFFFF AND PUSH20 0xFFFFFFFFFFFFFFFFFFFFFFFFFFFFFFFFFFFFFFFF AND DUP2 MSTORE PUSH1 0x20 ADD SWAP1 DUP2 MSTORE PUSH1 0x20 ADD PUSH1 0x0 KECCAK256 PUSH1 0x2 ADD PUSH1 0x0 SWAP1 SLOAD SWAP1 PUSH2 0x100 EXP SWAP1 DIV PUSH1 0xFF AND PUSH2 0x2529 JUMPI PUSH1 0x40 MLOAD PUSH32 0x8C379A000000000000000000000000000000000000000000000000000000000 DUP2 MSTORE PUSH1 0x4 ADD PUSH2 0x2520 SWAP1 PUSH2 0x3176 JUMP JUMPDEST PUSH1 0x40 MLOAD DUP1 SWAP2 SUB SWAP1 REVERT JUMPDEST PUSH1 0x0 PUSH1 0xB PUSH1 0x0 DUP4 DUP2 MSTORE PUSH1 0x20 ADD SWAP1 DUP2 MSTORE PUSH1 0x20 ADD PUSH1 0x0 KECCAK256 PUSH1 0x0 DUP5 PUSH20 0xFFFFFFFFFFFFFFFFFFFFFFFFFFFFFFFFFFFFFFFF AND PUSH20 0xFFFFFFFFFFFFFFFFFFFFFFFFFFFFFFFFFFFFFFFF AND DUP2 MSTORE PUSH1 0x20 ADD SWAP1 DUP2 MSTORE PUSH1 0x20 ADD PUSH1 0x0 KECCAK256 PUSH1 0x2 ADD PUSH1 0x0 PUSH2 0x100 EXP DUP2 SLOAD DUP2 PUSH1 0xFF MUL NOT AND SWAP1 DUP4 ISZERO ISZERO MUL OR SWAP1 SSTORE POP DUP3 PUSH20 0xFFFFFFFFFFFFFFFFFFFFFFFFFFFFFFFFFFFFFFFF AND PUSH2 0x8FC PUSH1 0xB PUSH1 0x0 DUP5 DUP2 MSTORE PUSH1 0x20 ADD SWAP1 DUP2 MSTORE PUSH1 0x20 ADD PUSH1 0x0 KECCAK256 PUSH1 0x0 DUP6 PUSH20 0xFFFFFFFFFFFFFFFFFFFFFFFFFFFFFFFFFFFFFFFF AND PUSH20 0xFFFFFFFFFFFFFFFFFFFFFFFFFFFFFFFFFFFFFFFF AND DUP2 MSTORE PUSH1 0x20 ADD SWAP1 DUP2 MSTORE PUSH1 0x20 ADD PUSH1 0x0 KECCAK256 PUSH1 0x1 ADD SLOAD SWAP1 DUP2 ISZERO MUL SWAP1 PUSH1 0x40 MLOAD PUSH1 0x0 PUSH1 0x40 MLOAD DUP1 DUP4 SUB DUP2 DUP6 DUP9 DUP9 CALL SWAP4 POP POP POP POP ISZERO DUP1 ISZERO PUSH2 0x262E JUMPI RETURNDATASIZE PUSH1 0x0 DUP1 RETURNDATACOPY RETURNDATASIZE PUSH1 0x0 REVERT JUMPDEST POP POP POP POP JUMP JUMPDEST PUSH1 0x0 DUP1 PUSH1 0x0 ADD SLOAD SWAP1 POP DUP2 JUMP JUMPDEST PUSH1 0x5 PUSH1 0x20 MSTORE DUP1 PUSH1 0x0 MSTORE PUSH1 0x40 PUSH1 0x0 KECCAK256 PUSH1 0x0 SWAP2 POP SWAP1 POP SLOAD DUP2 JUMP JUMPDEST PUSH1 0x1 DUP2 PUSH1 0x0 ADD PUSH1 0x0 DUP3 DUP3 SLOAD ADD SWAP3 POP POP DUP2 SWAP1 SSTORE POP POP JUMP JUMPDEST PUSH1 0x0 DUP2 PUSH1 0x0 ADD SLOAD SWAP1 POP SWAP2 SWAP1 POP JUMP JUMPDEST DUP3 DUP1 SLOAD PUSH2 0x2688 SWAP1 PUSH2 0x3510 JUMP JUMPDEST SWAP1 PUSH1 0x0 MSTORE PUSH1 0x20 PUSH1 0x0 KECCAK256 SWAP1 PUSH1 0x1F ADD PUSH1 0x20 SWAP1 DIV DUP2 ADD SWAP3 DUP3 PUSH2 0x26AA JUMPI PUSH1 0x0 DUP6 SSTORE PUSH2 0x26F1 JUMP JUMPDEST DUP3 PUSH1 0x1F LT PUSH2 0x26C3 JUMPI DUP1 MLOAD PUSH1 0xFF NOT AND DUP4 DUP1 ADD OR DUP6 SSTORE PUSH2 0x26F1 JUMP JUMPDEST DUP3 DUP1 ADD PUSH1 0x1 ADD DUP6 SSTORE DUP3 ISZERO PUSH2 0x26F1 JUMPI SWAP2 DUP3 ADD JUMPDEST DUP3 DUP2 GT ISZERO PUSH2 0x26F0 JUMPI DUP3 MLOAD DUP3 SSTORE SWAP2 PUSH1 0x20 ADD SWAP2 SWAP1 PUSH1 0x1 ADD SWAP1 PUSH2 0x26D5 JUMP JUMPDEST JUMPDEST POP SWAP1 POP PUSH2 0x26FE SWAP2 SWAP1 PUSH2 0x27E9 JUMP JUMPDEST POP SWAP1 JUMP JUMPDEST POP DUP1 SLOAD PUSH2 0x270E SWAP1 PUSH2 0x3510 JUMP JUMPDEST PUSH1 0x0 DUP3 SSTORE DUP1 PUSH1 0x1F LT PUSH2 0x2720 JUMPI POP PUSH2 0x273F JUMP JUMPDEST PUSH1 0x1F ADD PUSH1 0x20 SWAP1 DIV SWAP1 PUSH1 0x0 MSTORE PUSH1 0x20 PUSH1 0x0 KECCAK256 SWAP1 DUP2 ADD SWAP1 PUSH2 0x273E SWAP2 SWAP1 PUSH2 0x27E9 JUMP JUMPDEST JUMPDEST POP JUMP JUMPDEST PUSH1 0x40 MLOAD DUP1 PUSH1 0xA0 ADD PUSH1 0x40 MSTORE DUP1 PUSH1 0x0 DUP2 MSTORE PUSH1 0x20 ADD PUSH1 0x0 DUP2 MSTORE PUSH1 0x20 ADD PUSH1 0x60 DUP2 MSTORE PUSH1 0x20 ADD PUSH1 0x0 PUSH20 0xFFFFFFFFFFFFFFFFFFFFFFFFFFFFFFFFFFFFFFFF AND DUP2 MSTORE PUSH1 0x20 ADD PUSH1 0x0 DUP2 MSTORE POP SWAP1 JUMP JUMPDEST PUSH1 0x40 MLOAD DUP1 PUSH2 0x120 ADD PUSH1 0x40 MSTORE DUP1 PUSH1 0x0 DUP2 MSTORE PUSH1 0x20 ADD PUSH1 0x60 DUP2 MSTORE PUSH1 0x20 ADD PUSH1 0x0 DUP2 MSTORE PUSH1 0x20 ADD PUSH1 0x0 DUP2 MSTORE PUSH1 0x20 ADD PUSH1 0x0 DUP2 MSTORE PUSH1 0x20 ADD PUSH1 0x0 DUP2 MSTORE PUSH1 0x20 ADD PUSH1 0x60 DUP2 MSTORE PUSH1 0x20 ADD PUSH1 0x60 DUP2 MSTORE PUSH1 0x20 ADD PUSH1 0x0 PUSH20 0xFFFFFFFFFFFFFFFFFFFFFFFFFFFFFFFFFFFFFFFF AND DUP2 MSTORE POP SWAP1 JUMP JUMPDEST JUMPDEST DUP1 DUP3 GT ISZERO PUSH2 0x2802 JUMPI PUSH1 0x0 DUP2 PUSH1 0x0 SWAP1 SSTORE POP PUSH1 0x1 ADD PUSH2 0x27EA JUMP JUMPDEST POP SWAP1 JUMP JUMPDEST PUSH1 0x0 PUSH2 0x2819 PUSH2 0x2814 DUP5 PUSH2 0x32D2 JUMP JUMPDEST PUSH2 0x32AD JUMP JUMPDEST SWAP1 POP DUP3 DUP2 MSTORE PUSH1 0x20 DUP2 ADD DUP5 DUP5 DUP5 ADD GT ISZERO PUSH2 0x2835 JUMPI PUSH2 0x2834 PUSH2 0x367D JUMP JUMPDEST JUMPDEST PUSH2 0x2840 DUP5 DUP3 DUP6 PUSH2 0x34CE JUMP JUMPDEST POP SWAP4 SWAP3 POP POP POP JUMP JUMPDEST PUSH1 0x0 DUP2 CALLDATALOAD SWAP1 POP PUSH2 0x2857 DUP2 PUSH2 0x37B6 JUMP JUMPDEST SWAP3 SWAP2 POP POP JUMP JUMPDEST PUSH1 0x0 DUP3 PUSH1 0x1F DUP4 ADD SLT PUSH2 0x2872 JUMPI PUSH2 0x2871 PUSH2 0x3678 JUMP JUMPDEST JUMPDEST DUP2 CALLDATALOAD PUSH2 0x2882 DUP5 DUP3 PUSH1 0x20 DUP7 ADD PUSH2 0x2806 JUMP JUMPDEST SWAP2 POP POP SWAP3 SWAP2 POP POP JUMP JUMPDEST PUSH1 0x0 DUP2 CALLDATALOAD SWAP1 POP PUSH2 0x289A DUP2 PUSH2 0x37CD JUMP JUMPDEST SWAP3 SWAP2 POP POP JUMP JUMPDEST PUSH1 0x0 PUSH1 0x20 DUP3 DUP5 SUB SLT ISZERO PUSH2 0x28B6 JUMPI PUSH2 0x28B5 PUSH2 0x3687 JUMP JUMPDEST JUMPDEST PUSH1 0x0 PUSH2 0x28C4 DUP5 DUP3 DUP6 ADD PUSH2 0x2848 JUMP JUMPDEST SWAP2 POP POP SWAP3 SWAP2 POP POP JUMP JUMPDEST PUSH1 0x0 DUP1 PUSH1 0x0 PUSH1 0x60 DUP5 DUP7 SUB SLT ISZERO PUSH2 0x28E6 JUMPI PUSH2 0x28E5 PUSH2 0x3687 JUMP JUMPDEST JUMPDEST PUSH1 0x0 PUSH2 0x28F4 DUP7 DUP3 DUP8 ADD PUSH2 0x2848 JUMP JUMPDEST SWAP4 POP POP PUSH1 0x20 PUSH2 0x2905 DUP7 DUP3 DUP8 ADD PUSH2 0x2848 JUMP JUMPDEST SWAP3 POP POP PUSH1 0x40 PUSH2 0x2916 DUP7 DUP3 DUP8 ADD PUSH2 0x288B JUMP JUMPDEST SWAP2 POP POP SWAP3 POP SWAP3 POP SWAP3 JUMP JUMPDEST PUSH1 0x0 DUP1 PUSH1 0x40 DUP4 DUP6 SUB SLT ISZERO PUSH2 0x2937 JUMPI PUSH2 0x2936 PUSH2 0x3687 JUMP JUMPDEST JUMPDEST PUSH1 0x0 PUSH2 0x2945 DUP6 DUP3 DUP7 ADD PUSH2 0x2848 JUMP JUMPDEST SWAP3 POP POP PUSH1 0x20 PUSH2 0x2956 DUP6 DUP3 DUP7 ADD PUSH2 0x288B JUMP JUMPDEST SWAP2 POP POP SWAP3 POP SWAP3 SWAP1 POP JUMP JUMPDEST PUSH1 0x0 DUP1 PUSH1 0x0 PUSH1 0x60 DUP5 DUP7 SUB SLT ISZERO PUSH2 0x2979 JUMPI PUSH2 0x2978 PUSH2 0x3687 JUMP JUMPDEST JUMPDEST PUSH1 0x0 PUSH2 0x2987 DUP7 DUP3 DUP8 ADD PUSH2 0x2848 JUMP JUMPDEST SWAP4 POP POP PUSH1 0x20 PUSH2 0x2998 DUP7 DUP3 DUP8 ADD PUSH2 0x288B JUMP JUMPDEST SWAP3 POP POP PUSH1 0x40 PUSH2 0x29A9 DUP7 DUP3 DUP8 ADD PUSH2 0x2848 JUMP JUMPDEST SWAP2 POP POP SWAP3 POP SWAP3 POP SWAP3 JUMP JUMPDEST PUSH1 0x0 DUP1 PUSH1 0x0 DUP1 PUSH1 0x0 DUP1 PUSH1 0xC0 DUP8 DUP10 SUB SLT ISZERO PUSH2 0x29D0 JUMPI PUSH2 0x29CF PUSH2 0x3687 JUMP JUMPDEST JUMPDEST PUSH1 0x0 DUP8 ADD CALLDATALOAD PUSH8 0xFFFFFFFFFFFFFFFF DUP2 GT ISZERO PUSH2 0x29EE JUMPI PUSH2 0x29ED PUSH2 0x3682 JUMP JUMPDEST JUMPDEST PUSH2 0x29FA DUP10 DUP3 DUP11 ADD PUSH2 0x285D JUMP JUMPDEST SWAP7 POP POP PUSH1 0x20 PUSH2 0x2A0B DUP10 DUP3 DUP11 ADD PUSH2 0x288B JUMP JUMPDEST SWAP6 POP POP PUSH1 0x40 PUSH2 0x2A1C DUP10 DUP3 DUP11 ADD PUSH2 0x288B JUMP JUMPDEST SWAP5 POP POP PUSH1 0x60 PUSH2 0x2A2D DUP10 DUP3 DUP11 ADD PUSH2 0x288B JUMP JUMPDEST SWAP4 POP POP PUSH1 0x80 DUP8 ADD CALLDATALOAD PUSH8 0xFFFFFFFFFFFFFFFF DUP2 GT ISZERO PUSH2 0x2A4E JUMPI PUSH2 0x2A4D PUSH2 0x3682 JUMP JUMPDEST JUMPDEST PUSH2 0x2A5A DUP10 DUP3 DUP11 ADD PUSH2 0x285D JUMP JUMPDEST SWAP3 POP POP PUSH1 0xA0 DUP8 ADD CALLDATALOAD PUSH8 0xFFFFFFFFFFFFFFFF DUP2 GT ISZERO PUSH2 0x2A7B JUMPI PUSH2 0x2A7A PUSH2 0x3682 JUMP JUMPDEST JUMPDEST PUSH2 0x2A87 DUP10 DUP3 DUP11 ADD PUSH2 0x285D JUMP JUMPDEST SWAP2 POP POP SWAP3 SWAP6 POP SWAP3 SWAP6 POP SWAP3 SWAP6 JUMP JUMPDEST PUSH1 0x0 PUSH1 0x20 DUP3 DUP5 SUB SLT ISZERO PUSH2 0x2AAA JUMPI PUSH2 0x2AA9 PUSH2 0x3687 JUMP JUMPDEST JUMPDEST PUSH1 0x0 PUSH2 0x2AB8 DUP5 DUP3 DUP6 ADD PUSH2 0x288B JUMP JUMPDEST SWAP2 POP POP SWAP3 SWAP2 POP POP JUMP JUMPDEST PUSH1 0x0 DUP1 PUSH1 0x40 DUP4 DUP6 SUB SLT ISZERO PUSH2 0x2AD8 JUMPI PUSH2 0x2AD7 PUSH2 0x3687 JUMP JUMPDEST JUMPDEST PUSH1 0x0 PUSH2 0x2AE6 DUP6 DUP3 DUP7 ADD PUSH2 0x288B JUMP JUMPDEST SWAP3 POP POP PUSH1 0x20 PUSH2 0x2AF7 DUP6 DUP3 DUP7 ADD PUSH2 0x2848 JUMP JUMPDEST SWAP2 POP POP SWAP3 POP SWAP3 SWAP1 POP JUMP JUMPDEST PUSH1 0x0 DUP1 PUSH1 0x0 PUSH1 0x60 DUP5 DUP7 SUB SLT ISZERO PUSH2 0x2B1A JUMPI PUSH2 0x2B19 PUSH2 0x3687 JUMP JUMPDEST JUMPDEST PUSH1 0x0 PUSH2 0x2B28 DUP7 DUP3 DUP8 ADD PUSH2 0x288B JUMP JUMPDEST SWAP4 POP POP PUSH1 0x20 PUSH2 0x2B39 DUP7 DUP3 DUP8 ADD PUSH2 0x2848 JUMP JUMPDEST SWAP3 POP POP PUSH1 0x40 PUSH2 0x2B4A DUP7 DUP3 DUP8 ADD PUSH2 0x2848 JUMP JUMPDEST SWAP2 POP POP SWAP3 POP SWAP3 POP SWAP3 JUMP JUMPDEST PUSH1 0x0 DUP1 PUSH1 0x0 DUP1 PUSH1 0x80 DUP6 DUP8 SUB SLT ISZERO PUSH2 0x2B6E JUMPI PUSH2 0x2B6D PUSH2 0x3687 JUMP JUMPDEST JUMPDEST PUSH1 0x0 PUSH2 0x2B7C DUP8 DUP3 DUP9 ADD PUSH2 0x288B JUMP JUMPDEST SWAP5 POP POP PUSH1 0x20 PUSH2 0x2B8D DUP8 DUP3 DUP9 ADD PUSH2 0x2848 JUMP JUMPDEST SWAP4 POP POP PUSH1 0x40 PUSH2 0x2B9E DUP8 DUP3 DUP9 ADD PUSH2 0x2848 JUMP JUMPDEST SWAP3 POP POP PUSH1 0x60 PUSH2 0x2BAF DUP8 DUP3 DUP9 ADD PUSH2 0x288B JUMP JUMPDEST SWAP2 POP POP SWAP3 SWAP6 SWAP2 SWAP5 POP SWAP3 POP JUMP JUMPDEST PUSH1 0x0 DUP1 PUSH1 0x40 DUP4 DUP6 SUB SLT ISZERO PUSH2 0x2BD2 JUMPI PUSH2 0x2BD1 PUSH2 0x3687 JUMP JUMPDEST JUMPDEST PUSH1 0x0 PUSH2 0x2BE0 DUP6 DUP3 DUP7 ADD PUSH2 0x288B JUMP JUMPDEST SWAP3 POP POP PUSH1 0x20 PUSH2 0x2BF1 DUP6 DUP3 DUP7 ADD PUSH2 0x288B JUMP JUMPDEST SWAP2 POP POP SWAP3 POP SWAP3 SWAP1 POP JUMP JUMPDEST PUSH1 0x0 DUP1 PUSH1 0x0 DUP1 PUSH1 0x80 DUP6 DUP8 SUB SLT ISZERO PUSH2 0x2C15 JUMPI PUSH2 0x2C14 PUSH2 0x3687 JUMP JUMPDEST JUMPDEST PUSH1 0x0 PUSH2 0x2C23 DUP8 DUP3 DUP9 ADD PUSH2 0x288B JUMP JUMPDEST SWAP5 POP POP PUSH1 0x20 PUSH2 0x2C34 DUP8 DUP3 DUP9 ADD PUSH2 0x288B JUMP JUMPDEST SWAP4 POP POP PUSH1 0x40 DUP6 ADD CALLDATALOAD PUSH8 0xFFFFFFFFFFFFFFFF DUP2 GT ISZERO PUSH2 0x2C55 JUMPI PUSH2 0x2C54 PUSH2 0x3682 JUMP JUMPDEST JUMPDEST PUSH2 0x2C61 DUP8 DUP3 DUP9 ADD PUSH2 0x285D JUMP JUMPDEST SWAP3 POP POP PUSH1 0x60 PUSH2 0x2C72 DUP8 DUP3 DUP9 ADD PUSH2 0x288B JUMP JUMPDEST SWAP2 POP POP SWAP3 SWAP6 SWAP2 SWAP5 POP SWAP3 POP JUMP JUMPDEST PUSH1 0x0 PUSH2 0x2C8A DUP4 DUP4 PUSH2 0x2EDE JUMP JUMPDEST SWAP1 POP SWAP3 SWAP2 POP POP JUMP JUMPDEST PUSH1 0x0 PUSH2 0x2C9E DUP4 DUP4 PUSH2 0x2FB1 JUMP JUMPDEST SWAP1 POP SWAP3 SWAP2 POP POP JUMP JUMPDEST PUSH2 0x2CAF DUP2 PUSH2 0x3486 JUMP JUMPDEST DUP3 MSTORE POP POP JUMP JUMPDEST PUSH2 0x2CBE DUP2 PUSH2 0x3486 JUMP JUMPDEST DUP3 MSTORE POP POP JUMP JUMPDEST PUSH1 0x0 PUSH2 0x2CCF DUP3 PUSH2 0x3323 JUMP JUMPDEST PUSH2 0x2CD9 DUP2 DUP6 PUSH2 0x335E JUMP JUMPDEST SWAP4 POP DUP4 PUSH1 0x20 DUP3 MUL DUP6 ADD PUSH2 0x2CEB DUP6 PUSH2 0x3303 JUMP JUMPDEST DUP1 PUSH1 0x0 JUMPDEST DUP6 DUP2 LT ISZERO PUSH2 0x2D27 JUMPI DUP5 DUP5 SUB DUP10 MSTORE DUP2 MLOAD PUSH2 0x2D08 DUP6 DUP3 PUSH2 0x2C7E JUMP JUMPDEST SWAP5 POP PUSH2 0x2D13 DUP4 PUSH2 0x3344 JUMP JUMPDEST SWAP3 POP PUSH1 0x20 DUP11 ADD SWAP10 POP POP PUSH1 0x1 DUP2 ADD SWAP1 POP PUSH2 0x2CEF JUMP JUMPDEST POP DUP3 SWAP8 POP DUP8 SWAP6 POP POP POP POP POP POP SWAP3 SWAP2 POP POP JUMP JUMPDEST PUSH1 0x0 PUSH2 0x2D44 DUP3 PUSH2 0x332E JUMP JUMPDEST PUSH2 0x2D4E DUP2 DUP6 PUSH2 0x336F JUMP JUMPDEST SWAP4 POP DUP4 PUSH1 0x20 DUP3 MUL DUP6 ADD PUSH2 0x2D60 DUP6 PUSH2 0x3313 JUMP JUMPDEST DUP1 PUSH1 0x0 JUMPDEST DUP6 DUP2 LT ISZERO PUSH2 0x2D9C JUMPI DUP5 DUP5 SUB DUP10 MSTORE DUP2 MLOAD PUSH2 0x2D7D DUP6 DUP3 PUSH2 0x2C92 JUMP JUMPDEST SWAP5 POP PUSH2 0x2D88 DUP4 PUSH2 0x3351 JUMP JUMPDEST SWAP3 POP PUSH1 0x20 DUP11 ADD SWAP10 POP POP PUSH1 0x1 DUP2 ADD SWAP1 POP PUSH2 0x2D64 JUMP JUMPDEST POP DUP3 SWAP8 POP DUP8 SWAP6 POP POP POP POP POP POP SWAP3 SWAP2 POP POP JUMP JUMPDEST PUSH2 0x2DB7 DUP2 PUSH2 0x3498 JUMP JUMPDEST DUP3 MSTORE POP POP JUMP JUMPDEST PUSH1 0x0 PUSH2 0x2DC8 DUP3 PUSH2 0x3339 JUMP JUMPDEST PUSH2 0x2DD2 DUP2 DUP6 PUSH2 0x3380 JUMP JUMPDEST SWAP4 POP PUSH2 0x2DE2 DUP2 DUP6 PUSH1 0x20 DUP7 ADD PUSH2 0x34DD JUMP JUMPDEST PUSH2 0x2DEB DUP2 PUSH2 0x368C JUMP JUMPDEST DUP5 ADD SWAP2 POP POP SWAP3 SWAP2 POP POP JUMP JUMPDEST PUSH1 0x0 PUSH2 0x2E01 DUP3 PUSH2 0x3339 JUMP JUMPDEST PUSH2 0x2E0B DUP2 DUP6 PUSH2 0x3391 JUMP JUMPDEST SWAP4 POP PUSH2 0x2E1B DUP2 DUP6 PUSH1 0x20 DUP7 ADD PUSH2 0x34DD JUMP JUMPDEST PUSH2 0x2E24 DUP2 PUSH2 0x368C JUMP JUMPDEST DUP5 ADD SWAP2 POP POP SWAP3 SWAP2 POP POP JUMP JUMPDEST PUSH1 0x0 PUSH2 0x2E3C PUSH1 0x11 DUP4 PUSH2 0x3391 JUMP JUMPDEST SWAP2 POP PUSH2 0x2E47 DUP3 PUSH2 0x369D JUMP JUMPDEST PUSH1 0x20 DUP3 ADD SWAP1 POP SWAP2 SWAP1 POP JUMP JUMPDEST PUSH1 0x0 PUSH2 0x2E5F PUSH1 0x24 DUP4 PUSH2 0x3391 JUMP JUMPDEST SWAP2 POP PUSH2 0x2E6A DUP3 PUSH2 0x36C6 JUMP JUMPDEST PUSH1 0x40 DUP3 ADD SWAP1 POP SWAP2 SWAP1 POP JUMP JUMPDEST PUSH1 0x0 PUSH2 0x2E82 PUSH1 0x1C DUP4 PUSH2 0x3391 JUMP JUMPDEST SWAP2 POP PUSH2 0x2E8D DUP3 PUSH2 0x3715 JUMP JUMPDEST PUSH1 0x20 DUP3 ADD SWAP1 POP SWAP2 SWAP1 POP JUMP JUMPDEST PUSH1 0x0 PUSH2 0x2EA5 PUSH1 0x22 DUP4 PUSH2 0x3391 JUMP JUMPDEST SWAP2 POP PUSH2 0x2EB0 DUP3 PUSH2 0x373E JUMP JUMPDEST PUSH1 0x40 DUP3 ADD SWAP1 POP SWAP2 SWAP1 POP JUMP JUMPDEST PUSH1 0x0 PUSH2 0x2EC8 PUSH1 0x13 DUP4 PUSH2 0x3391 JUMP JUMPDEST SWAP2 POP PUSH2 0x2ED3 DUP3 PUSH2 0x378D JUMP JUMPDEST PUSH1 0x20 DUP3 ADD SWAP1 POP SWAP2 SWAP1 POP JUMP JUMPDEST PUSH1 0x0 PUSH2 0x120 DUP4 ADD PUSH1 0x0 DUP4 ADD MLOAD PUSH2 0x2EF7 PUSH1 0x0 DUP7 ADD DUP3 PUSH2 0x3027 JUMP JUMPDEST POP PUSH1 0x20 DUP4 ADD MLOAD DUP5 DUP3 SUB PUSH1 0x20 DUP7 ADD MSTORE PUSH2 0x2F0F DUP3 DUP3 PUSH2 0x2DBD JUMP JUMPDEST SWAP2 POP POP PUSH1 0x40 DUP4 ADD MLOAD PUSH2 0x2F24 PUSH1 0x40 DUP7 ADD DUP3 PUSH2 0x3027 JUMP JUMPDEST POP PUSH1 0x60 DUP4 ADD MLOAD PUSH2 0x2F37 PUSH1 0x60 DUP7 ADD DUP3 PUSH2 0x3027 JUMP JUMPDEST POP PUSH1 0x80 DUP4 ADD MLOAD PUSH2 0x2F4A PUSH1 0x80 DUP7 ADD DUP3 PUSH2 0x3027 JUMP JUMPDEST POP PUSH1 0xA0 DUP4 ADD MLOAD PUSH2 0x2F5D PUSH1 0xA0 DUP7 ADD DUP3 PUSH2 0x3027 JUMP JUMPDEST POP PUSH1 0xC0 DUP4 ADD MLOAD DUP5 DUP3 SUB PUSH1 0xC0 DUP7 ADD MSTORE PUSH2 0x2F75 DUP3 DUP3 PUSH2 0x2DBD JUMP JUMPDEST SWAP2 POP POP PUSH1 0xE0 DUP4 ADD MLOAD DUP5 DUP3 SUB PUSH1 0xE0 DUP7 ADD MSTORE PUSH2 0x2F8F DUP3 DUP3 PUSH2 0x2DBD JUMP JUMPDEST SWAP2 POP POP PUSH2 0x100 DUP4 ADD MLOAD PUSH2 0x2FA6 PUSH2 0x100 DUP7 ADD DUP3 PUSH2 0x2CA6 JUMP JUMPDEST POP DUP1 SWAP2 POP POP SWAP3 SWAP2 POP POP JUMP JUMPDEST PUSH1 0x0 PUSH1 0xA0 DUP4 ADD PUSH1 0x0 DUP4 ADD MLOAD PUSH2 0x2FC9 PUSH1 0x0 DUP7 ADD DUP3 PUSH2 0x3027 JUMP JUMPDEST POP PUSH1 0x20 DUP4 ADD MLOAD PUSH2 0x2FDC PUSH1 0x20 DUP7 ADD DUP3 PUSH2 0x3027 JUMP JUMPDEST POP PUSH1 0x40 DUP4 ADD MLOAD DUP5 DUP3 SUB PUSH1 0x40 DUP7 ADD MSTORE PUSH2 0x2FF4 DUP3 DUP3 PUSH2 0x2DBD JUMP JUMPDEST SWAP2 POP POP PUSH1 0x60 DUP4 ADD MLOAD PUSH2 0x3009 PUSH1 0x60 DUP7 ADD DUP3 PUSH2 0x2CA6 JUMP JUMPDEST POP PUSH1 0x80 DUP4 ADD MLOAD PUSH2 0x301C PUSH1 0x80 DUP7 ADD DUP3 PUSH2 0x3027 JUMP JUMPDEST POP DUP1 SWAP2 POP POP SWAP3 SWAP2 POP POP JUMP JUMPDEST PUSH2 0x3030 DUP2 PUSH2 0x34C4 JUMP JUMPDEST DUP3 MSTORE POP POP JUMP JUMPDEST PUSH2 0x303F DUP2 PUSH2 0x34C4 JUMP JUMPDEST DUP3 MSTORE POP POP JUMP JUMPDEST PUSH1 0x0 PUSH1 0x20 DUP3 ADD SWAP1 POP PUSH2 0x305A PUSH1 0x0 DUP4 ADD DUP5 PUSH2 0x2CB5 JUMP JUMPDEST SWAP3 SWAP2 POP POP JUMP JUMPDEST PUSH1 0x0 PUSH1 0x60 DUP3 ADD SWAP1 POP PUSH2 0x3075 PUSH1 0x0 DUP4 ADD DUP7 PUSH2 0x2CB5 JUMP JUMPDEST PUSH2 0x3082 PUSH1 0x20 DUP4 ADD DUP6 PUSH2 0x3036 JUMP JUMPDEST PUSH2 0x308F PUSH1 0x40 DUP4 ADD DUP5 PUSH2 0x2DAE JUMP JUMPDEST SWAP5 SWAP4 POP POP POP POP JUMP JUMPDEST PUSH1 0x0 PUSH1 0x20 DUP3 ADD SWAP1 POP DUP2 DUP2 SUB PUSH1 0x0 DUP4 ADD MSTORE PUSH2 0x30B1 DUP2 DUP5 PUSH2 0x2CC4 JUMP JUMPDEST SWAP1 POP SWAP3 SWAP2 POP POP JUMP JUMPDEST PUSH1 0x0 PUSH1 0x20 DUP3 ADD SWAP1 POP DUP2 DUP2 SUB PUSH1 0x0 DUP4 ADD MSTORE PUSH2 0x30D3 DUP2 DUP5 PUSH2 0x2D39 JUMP JUMPDEST SWAP1 POP SWAP3 SWAP2 POP POP JUMP JUMPDEST PUSH1 0x0 PUSH1 0x20 DUP3 ADD SWAP1 POP PUSH2 0x30F0 PUSH1 0x0 DUP4 ADD DUP5 PUSH2 0x2DAE JUMP JUMPDEST SWAP3 SWAP2 POP POP JUMP JUMPDEST PUSH1 0x0 PUSH1 0x20 DUP3 ADD SWAP1 POP DUP2 DUP2 SUB PUSH1 0x0 DUP4 ADD MSTORE PUSH2 0x310F DUP2 PUSH2 0x2E2F JUMP JUMPDEST SWAP1 POP SWAP2 SWAP1 POP JUMP JUMPDEST PUSH1 0x0 PUSH1 0x20 DUP3 ADD SWAP1 POP DUP2 DUP2 SUB PUSH1 0x0 DUP4 ADD MSTORE PUSH2 0x312F DUP2 PUSH2 0x2E52 JUMP JUMPDEST SWAP1 POP SWAP2 SWAP1 POP JUMP JUMPDEST PUSH1 0x0 PUSH1 0x20 DUP3 ADD SWAP1 POP DUP2 DUP2 SUB PUSH1 0x0 DUP4 ADD MSTORE PUSH2 0x314F DUP2 PUSH2 0x2E75 JUMP JUMPDEST SWAP1 POP SWAP2 SWAP1 POP JUMP JUMPDEST PUSH1 0x0 PUSH1 0x20 DUP3 ADD SWAP1 POP DUP2 DUP2 SUB PUSH1 0x0 DUP4 ADD MSTORE PUSH2 0x316F DUP2 PUSH2 0x2E98 JUMP JUMPDEST SWAP1 POP SWAP2 SWAP1 POP JUMP JUMPDEST PUSH1 0x0 PUSH1 0x20 DUP3 ADD SWAP1 POP DUP2 DUP2 SUB PUSH1 0x0 DUP4 ADD MSTORE PUSH2 0x318F DUP2 PUSH2 0x2EBB JUMP JUMPDEST SWAP1 POP SWAP2 SWAP1 POP JUMP JUMPDEST PUSH1 0x0 PUSH1 0x20 DUP3 ADD SWAP1 POP PUSH2 0x31AB PUSH1 0x0 DUP4 ADD DUP5 PUSH2 0x3036 JUMP JUMPDEST SWAP3 SWAP2 POP POP JUMP JUMPDEST PUSH1 0x0 PUSH2 0x120 DUP3 ADD SWAP1 POP PUSH2 0x31C7 PUSH1 0x0 DUP4 ADD DUP13 PUSH2 0x3036 JUMP JUMPDEST DUP2 DUP2 SUB PUSH1 0x20 DUP4 ADD MSTORE PUSH2 0x31D9 DUP2 DUP12 PUSH2 0x2DF6 JUMP JUMPDEST SWAP1 POP PUSH2 0x31E8 PUSH1 0x40 DUP4 ADD DUP11 PUSH2 0x3036 JUMP JUMPDEST PUSH2 0x31F5 PUSH1 0x60 DUP4 ADD DUP10 PUSH2 0x3036 JUMP JUMPDEST PUSH2 0x3202 PUSH1 0x80 DUP4 ADD DUP9 PUSH2 0x3036 JUMP JUMPDEST PUSH2 0x320F PUSH1 0xA0 DUP4 ADD DUP8 PUSH2 0x3036 JUMP JUMPDEST DUP2 DUP2 SUB PUSH1 0xC0 DUP4 ADD MSTORE PUSH2 0x3221 DUP2 DUP7 PUSH2 0x2DF6 JUMP JUMPDEST SWAP1 POP DUP2 DUP2 SUB PUSH1 0xE0 DUP4 ADD MSTORE PUSH2 0x3235 DUP2 DUP6 PUSH2 0x2DF6 JUMP JUMPDEST SWAP1 POP PUSH2 0x3245 PUSH2 0x100 DUP4 ADD DUP5 PUSH2 0x2CB5 JUMP JUMPDEST SWAP11 SWAP10 POP POP POP POP POP POP POP POP POP POP JUMP JUMPDEST PUSH1 0x0 PUSH1 0xA0 DUP3 ADD SWAP1 POP PUSH2 0x3268 PUSH1 0x0 DUP4 ADD DUP9 PUSH2 0x3036 JUMP JUMPDEST PUSH2 0x3275 PUSH1 0x20 DUP4 ADD DUP8 PUSH2 0x3036 JUMP JUMPDEST DUP2 DUP2 SUB PUSH1 0x40 DUP4 ADD MSTORE PUSH2 0x3287 DUP2 DUP7 PUSH2 0x2DF6 JUMP JUMPDEST SWAP1 POP PUSH2 0x3296 PUSH1 0x60 DUP4 ADD DUP6 PUSH2 0x2CB5 JUMP JUMPDEST PUSH2 0x32A3 PUSH1 0x80 DUP4 ADD DUP5 PUSH2 0x3036 JUMP JUMPDEST SWAP7 SWAP6 POP POP POP POP POP POP JUMP JUMPDEST PUSH1 0x0 PUSH2 0x32B7 PUSH2 0x32C8 JUMP JUMPDEST SWAP1 POP PUSH2 0x32C3 DUP3 DUP3 PUSH2 0x3542 JUMP JUMPDEST SWAP2 SWAP1 POP JUMP JUMPDEST PUSH1 0x0 PUSH1 0x40 MLOAD SWAP1 POP SWAP1 JUMP JUMPDEST PUSH1 0x0 PUSH8 0xFFFFFFFFFFFFFFFF DUP3 GT ISZERO PUSH2 0x32ED JUMPI PUSH2 0x32EC PUSH2 0x3649 JUMP JUMPDEST JUMPDEST PUSH2 0x32F6 DUP3 PUSH2 0x368C JUMP JUMPDEST SWAP1 POP PUSH1 0x20 DUP2 ADD SWAP1 POP SWAP2 SWAP1 POP JUMP JUMPDEST PUSH1 0x0 DUP2 SWAP1 POP PUSH1 0x20 DUP3 ADD SWAP1 POP SWAP2 SWAP1 POP JUMP JUMPDEST PUSH1 0x0 DUP2 SWAP1 POP PUSH1 0x20 DUP3 ADD SWAP1 POP SWAP2 SWAP1 POP JUMP JUMPDEST PUSH1 0x0 DUP2 MLOAD SWAP1 POP SWAP2 SWAP1 POP JUMP JUMPDEST PUSH1 0x0 DUP2 MLOAD SWAP1 POP SWAP2 SWAP1 POP JUMP JUMPDEST PUSH1 0x0 DUP2 MLOAD SWAP1 POP SWAP2 SWAP1 POP JUMP JUMPDEST PUSH1 0x0 PUSH1 0x20 DUP3 ADD SWAP1 POP SWAP2 SWAP1 POP JUMP JUMPDEST PUSH1 0x0 PUSH1 0x20 DUP3 ADD SWAP1 POP SWAP2 SWAP1 POP JUMP JUMPDEST PUSH1 0x0 DUP3 DUP3 MSTORE PUSH1 0x20 DUP3 ADD SWAP1 POP SWAP3 SWAP2 POP POP JUMP JUMPDEST PUSH1 0x0 DUP3 DUP3 MSTORE PUSH1 0x20 DUP3 ADD SWAP1 POP SWAP3 SWAP2 POP POP JUMP JUMPDEST PUSH1 0x0 DUP3 DUP3 MSTORE PUSH1 0x20 DUP3 ADD SWAP1 POP SWAP3 SWAP2 POP POP JUMP JUMPDEST PUSH1 0x0 DUP3 DUP3 MSTORE PUSH1 0x20 DUP3 ADD SWAP1 POP SWAP3 SWAP2 POP POP JUMP JUMPDEST PUSH1 0x0 PUSH2 0x33AD DUP3 PUSH2 0x34C4 JUMP JUMPDEST SWAP2 POP PUSH2 0x33B8 DUP4 PUSH2 0x34C4 JUMP JUMPDEST SWAP3 POP DUP3 PUSH32 0xFFFFFFFFFFFFFFFFFFFFFFFFFFFFFFFFFFFFFFFFFFFFFFFFFFFFFFFFFFFFFFFF SUB DUP3 GT ISZERO PUSH2 0x33ED JUMPI PUSH2 0x33EC PUSH2 0x35BC JUMP JUMPDEST JUMPDEST DUP3 DUP3 ADD SWAP1 POP SWAP3 SWAP2 POP POP JUMP JUMPDEST PUSH1 0x0 PUSH2 0x3403 DUP3 PUSH2 0x34C4 JUMP JUMPDEST SWAP2 POP PUSH2 0x340E DUP4 PUSH2 0x34C4 JUMP JUMPDEST SWAP3 POP DUP2 PUSH32 0xFFFFFFFFFFFFFFFFFFFFFFFFFFFFFFFFFFFFFFFFFFFFFFFFFFFFFFFFFFFFFFFF DIV DUP4 GT DUP3 ISZERO ISZERO AND ISZERO PUSH2 0x3447 JUMPI PUSH2 0x3446 PUSH2 0x35BC JUMP JUMPDEST JUMPDEST DUP3 DUP3 MUL SWAP1 POP SWAP3 SWAP2 POP POP JUMP JUMPDEST PUSH1 0x0 PUSH2 0x345D DUP3 PUSH2 0x34C4 JUMP JUMPDEST SWAP2 POP PUSH2 0x3468 DUP4 PUSH2 0x34C4 JUMP JUMPDEST SWAP3 POP DUP3 DUP3 LT ISZERO PUSH2 0x347B JUMPI PUSH2 0x347A PUSH2 0x35BC JUMP JUMPDEST JUMPDEST DUP3 DUP3 SUB SWAP1 POP SWAP3 SWAP2 POP POP JUMP JUMPDEST PUSH1 0x0 PUSH2 0x3491 DUP3 PUSH2 0x34A4 JUMP JUMPDEST SWAP1 POP SWAP2 SWAP1 POP JUMP JUMPDEST PUSH1 0x0 DUP2 ISZERO ISZERO SWAP1 POP SWAP2 SWAP1 POP JUMP JUMPDEST PUSH1 0x0 PUSH20 0xFFFFFFFFFFFFFFFFFFFFFFFFFFFFFFFFFFFFFFFF DUP3 AND SWAP1 POP SWAP2 SWAP1 POP JUMP JUMPDEST PUSH1 0x0 DUP2 SWAP1 POP SWAP2 SWAP1 POP JUMP JUMPDEST DUP3 DUP2 DUP4 CALLDATACOPY PUSH1 0x0 DUP4 DUP4 ADD MSTORE POP POP POP JUMP JUMPDEST PUSH1 0x0 JUMPDEST DUP4 DUP2 LT ISZERO PUSH2 0x34FB JUMPI DUP1 DUP3 ADD MLOAD DUP2 DUP5 ADD MSTORE PUSH1 0x20 DUP2 ADD SWAP1 POP PUSH2 0x34E0 JUMP JUMPDEST DUP4 DUP2 GT ISZERO PUSH2 0x350A JUMPI PUSH1 0x0 DUP5 DUP5 ADD MSTORE JUMPDEST POP POP POP POP JUMP JUMPDEST PUSH1 0x0 PUSH1 0x2 DUP3 DIV SWAP1 POP PUSH1 0x1 DUP3 AND DUP1 PUSH2 0x3528 JUMPI PUSH1 0x7F DUP3 AND SWAP2 POP JUMPDEST PUSH1 0x20 DUP3 LT DUP2 EQ ISZERO PUSH2 0x353C JUMPI PUSH2 0x353B PUSH2 0x35EB JUMP JUMPDEST JUMPDEST POP SWAP2 SWAP1 POP JUMP JUMPDEST PUSH2 0x354B DUP3 PUSH2 0x368C JUMP JUMPDEST DUP2 ADD DUP2 DUP2 LT PUSH8 0xFFFFFFFFFFFFFFFF DUP3 GT OR ISZERO PUSH2 0x356A JUMPI PUSH2 0x3569 PUSH2 0x3649 JUMP JUMPDEST JUMPDEST DUP1 PUSH1 0x40 MSTORE POP POP POP JUMP JUMPDEST PUSH1 0x0 PUSH2 0x357E DUP3 PUSH2 0x34C4 JUMP JUMPDEST SWAP2 POP PUSH32 0xFFFFFFFFFFFFFFFFFFFFFFFFFFFFFFFFFFFFFFFFFFFFFFFFFFFFFFFFFFFFFFFF DUP3 EQ ISZERO PUSH2 0x35B1 JUMPI PUSH2 0x35B0 PUSH2 0x35BC JUMP JUMPDEST JUMPDEST PUSH1 0x1 DUP3 ADD SWAP1 POP SWAP2 SWAP1 POP JUMP JUMPDEST PUSH32 0x4E487B7100000000000000000000000000000000000000000000000000000000 PUSH1 0x0 MSTORE PUSH1 0x11 PUSH1 0x4 MSTORE PUSH1 0x24 PUSH1 0x0 REVERT JUMPDEST PUSH32 0x4E487B7100000000000000000000000000000000000000000000000000000000 PUSH1 0x0 MSTORE PUSH1 0x22 PUSH1 0x4 MSTORE PUSH1 0x24 PUSH1 0x0 REVERT JUMPDEST PUSH32 0x4E487B7100000000000000000000000000000000000000000000000000000000 PUSH1 0x0 MSTORE PUSH1 0x32 PUSH1 0x4 MSTORE PUSH1 0x24 PUSH1 0x0 REVERT JUMPDEST PUSH32 0x4E487B7100000000000000000000000000000000000000000000000000000000 PUSH1 0x0 MSTORE PUSH1 0x41 PUSH1 0x4 MSTORE PUSH1 0x24 PUSH1 0x0 REVERT JUMPDEST PUSH1 0x0 DUP1 REVERT JUMPDEST PUSH1 0x0 DUP1 REVERT JUMPDEST PUSH1 0x0 DUP1 REVERT JUMPDEST PUSH1 0x0 DUP1 REVERT JUMPDEST PUSH1 0x0 PUSH1 0x1F NOT PUSH1 0x1F DUP4 ADD AND SWAP1 POP SWAP2 SWAP1 POP JUMP JUMPDEST PUSH32 0x596F752063616E4E6F742044656C657465000000000000000000000000000000 PUSH1 0x0 DUP3 ADD MSTORE POP JUMP JUMPDEST PUSH32 0x506C656173652053656C6C6563742074686520636F7272656374205265636570 PUSH1 0x0 DUP3 ADD MSTORE PUSH32 0x69656E7400000000000000000000000000000000000000000000000000000000 PUSH1 0x20 DUP3 ADD MSTORE POP JUMP JUMPDEST PUSH32 0x596F7520617265204F776E6572206F6620746869732054656E64657200000000 PUSH1 0x0 DUP3 ADD MSTORE POP JUMP JUMPDEST PUSH32 0x596F7520416C7265616479204170706C7920666F722074686973205265717565 PUSH1 0x0 DUP3 ADD MSTORE PUSH32 0x7374000000000000000000000000000000000000000000000000000000000000 PUSH1 0x20 DUP3 ADD MSTORE POP JUMP JUMPDEST PUSH32 0x596F7520616C7265616479207061796D656E7400000000000000000000000000 PUSH1 0x0 DUP3 ADD MSTORE POP JUMP JUMPDEST PUSH2 0x37BF DUP2 PUSH2 0x3486 JUMP JUMPDEST DUP2 EQ PUSH2 0x37CA JUMPI PUSH1 0x0 DUP1 REVERT JUMPDEST POP JUMP JUMPDEST PUSH2 0x37D6 DUP2 PUSH2 0x34C4 JUMP JUMPDEST DUP2 EQ PUSH2 0x37E1 JUMPI PUSH1 0x0 DUP1 REVERT JUMPDEST POP JUMP INVALID LOG2 PUSH5 0x6970667358 0x22 SLT KECCAK256 DUP8 0xD2 PUSH15 0x1E45A974B33B7B561DB0BAAFF8E971 0xB8 0x28 0xBC 0xD7 ADDMOD PC BASEFEE 0xE6 PUSH2 0x6021 DIV INVALID PUSH27 0x64736F6C6343000807003300000000000000000000000000000000 "
				},
				"gasEstimates": {
					"creation": {
						"codeDepositCost": "2872400",
						"executionCost": "27404",
						"totalCost": "2899804"
					},
					"external": {
						"AcceptInvitation(uint256,address,address,uint256)": "infinite",
						"Accepted(uint256,address,address)": "infinite",
						"AllTender()": "infinite",
						"AllVender(uint256)": "infinite",
						"Ch(address,uint256)": "3155",
						"CheckTime(uint256)": "infinite",
						"Communication(uint256,address)": "infinite",
						"Contract()": "2581",
						"DeleteVRequest(uint256)": "infinite",
						"Done(address,address,uint256)": "infinite",
						"Finder(uint256,address)": "infinite",
						"Invite(address,uint256,address)": "infinite",
						"Pending(address,uint256)": "3176",
						"Ratting(address)": "2837",
						"Requests(address)": "2882",
						"Size(address)": "2925",
						"SizeVender(uint256)": "infinite",
						"Total(uint256)": "infinite",
						"TotalTender()": "2531",
						"TotalVender()": "2577",
						"UpdateRequest(uint256,uint256,string,uint256)": "infinite",
						"Venders(uint256,uint256)": "infinite",
						"getTender(address)": "infinite",
						"getVender(address)": "infinite",
						"tender(string,uint256,uint256,uint256,string,string)": "infinite",
						"vender(uint256,uint256,string,uint256)": "infinite"
					}
				},
				"methodIdentifiers": {
					"AcceptInvitation(uint256,address,address,uint256)": "a06c5e3d",
					"Accepted(uint256,address,address)": "b28189fa",
					"AllTender()": "bc16aad7",
					"AllVender(uint256)": "86e9ff0a",
					"Ch(address,uint256)": "40f12058",
					"CheckTime(uint256)": "0c4a3338",
					"Communication(uint256,address)": "30182235",
					"Contract()": "5af77fff",
					"DeleteVRequest(uint256)": "2302ec7e",
					"Done(address,address,uint256)": "d60f5a38",
					"Finder(uint256,address)": "9fff963e",
					"Invite(address,uint256,address)": "a56d6544",
					"Pending(address,uint256)": "75772c47",
					"Ratting(address)": "9d6d10f9",
					"Requests(address)": "1a4b3311",
					"Size(address)": "b19781fe",
					"SizeVender(uint256)": "ffd64f8a",
					"Total(uint256)": "52943ff5",
					"TotalTender()": "d7add75f",
					"TotalVender()": "25af0316",
					"UpdateRequest(uint256,uint256,string,uint256)": "cf507bfb",
					"Venders(uint256,uint256)": "168d5d34",
					"getTender(address)": "d0c3e909",
					"getVender(address)": "d0c343d6",
					"tender(string,uint256,uint256,uint256,string,string)": "1a779488",
					"vender(uint256,uint256,string,uint256)": "4fcb4a58"
				}
			},
			"storageLayout": {
				"storage": [
					{
						"astId": 84,
						"contract": "contracts/Fast/contract.sol:Storage",
						"label": "TotalTender",
						"offset": 0,
						"slot": "0",
						"type": "t_struct(Counter)5_storage"
					},
					{
						"astId": 87,
						"contract": "contracts/Fast/contract.sol:Storage",
						"label": "TotalVender",
						"offset": 0,
						"slot": "1",
						"type": "t_struct(Counter)5_storage"
					},
					{
						"astId": 89,
						"contract": "contracts/Fast/contract.sol:Storage",
						"label": "Contract",
						"offset": 0,
						"slot": "2",
						"type": "t_address"
					},
					{
						"astId": 137,
						"contract": "contracts/Fast/contract.sol:Storage",
						"label": "Size",
						"offset": 0,
						"slot": "3",
						"type": "t_mapping(t_address,t_uint256)"
					},
					{
						"astId": 143,
						"contract": "contracts/Fast/contract.sol:Storage",
						"label": "Pending",
						"offset": 0,
						"slot": "4",
						"type": "t_mapping(t_address,t_mapping(t_uint256,t_bool))"
					},
					{
						"astId": 147,
						"contract": "contracts/Fast/contract.sol:Storage",
						"label": "SizeVender",
						"offset": 0,
						"slot": "5",
						"type": "t_mapping(t_uint256,t_uint256)"
					},
					{
						"astId": 152,
						"contract": "contracts/Fast/contract.sol:Storage",
						"label": "Total",
						"offset": 0,
						"slot": "6",
						"type": "t_mapping(t_uint256,t_struct(Tender)119_storage)"
					},
					{
						"astId": 159,
						"contract": "contracts/Fast/contract.sol:Storage",
						"label": "Venders",
						"offset": 0,
						"slot": "7",
						"type": "t_mapping(t_uint256,t_mapping(t_uint256,t_struct(Vender)100_storage))"
					},
					{
						"astId": 165,
						"contract": "contracts/Fast/contract.sol:Storage",
						"label": "Ch",
						"offset": 0,
						"slot": "8",
						"type": "t_mapping(t_address,t_mapping(t_uint256,t_bool))"
					},
					{
						"astId": 169,
						"contract": "contracts/Fast/contract.sol:Storage",
						"label": "Requests",
						"offset": 0,
						"slot": "9",
						"type": "t_mapping(t_address,t_uint256)"
					},
					{
						"astId": 175,
						"contract": "contracts/Fast/contract.sol:Storage",
						"label": "Finder",
						"offset": 0,
						"slot": "10",
						"type": "t_mapping(t_uint256,t_mapping(t_address,t_uint256))"
					},
					{
						"astId": 182,
						"contract": "contracts/Fast/contract.sol:Storage",
						"label": "Communication",
						"offset": 0,
						"slot": "11",
						"type": "t_mapping(t_uint256,t_mapping(t_address,t_struct(Comm)133_storage))"
					},
					{
						"astId": 190,
						"contract": "contracts/Fast/contract.sol:Storage",
						"label": "Invite",
						"offset": 0,
						"slot": "12",
						"type": "t_mapping(t_address,t_mapping(t_uint256,t_mapping(t_address,t_bool)))"
					},
					{
						"astId": 194,
						"contract": "contracts/Fast/contract.sol:Storage",
						"label": "Ratting",
						"offset": 0,
						"slot": "13",
						"type": "t_mapping(t_address,t_uint256)"
					}
				],
				"types": {
					"t_address": {
						"encoding": "inplace",
						"label": "address",
						"numberOfBytes": "20"
					},
					"t_bool": {
						"encoding": "inplace",
						"label": "bool",
						"numberOfBytes": "1"
					},
					"t_mapping(t_address,t_bool)": {
						"encoding": "mapping",
						"key": "t_address",
						"label": "mapping(address => bool)",
						"numberOfBytes": "32",
						"value": "t_bool"
					},
					"t_mapping(t_address,t_mapping(t_uint256,t_bool))": {
						"encoding": "mapping",
						"key": "t_address",
						"label": "mapping(address => mapping(uint256 => bool))",
						"numberOfBytes": "32",
						"value": "t_mapping(t_uint256,t_bool)"
					},
					"t_mapping(t_address,t_mapping(t_uint256,t_mapping(t_address,t_bool)))": {
						"encoding": "mapping",
						"key": "t_address",
						"label": "mapping(address => mapping(uint256 => mapping(address => bool)))",
						"numberOfBytes": "32",
						"value": "t_mapping(t_uint256,t_mapping(t_address,t_bool))"
					},
					"t_mapping(t_address,t_struct(Comm)133_storage)": {
						"encoding": "mapping",
						"key": "t_address",
						"label": "mapping(address => struct Storage.Comm)",
						"numberOfBytes": "32",
						"value": "t_struct(Comm)133_storage"
					},
					"t_mapping(t_address,t_uint256)": {
						"encoding": "mapping",
						"key": "t_address",
						"label": "mapping(address => uint256)",
						"numberOfBytes": "32",
						"value": "t_uint256"
					},
					"t_mapping(t_uint256,t_bool)": {
						"encoding": "mapping",
						"key": "t_uint256",
						"label": "mapping(uint256 => bool)",
						"numberOfBytes": "32",
						"value": "t_bool"
					},
					"t_mapping(t_uint256,t_mapping(t_address,t_bool))": {
						"encoding": "mapping",
						"key": "t_uint256",
						"label": "mapping(uint256 => mapping(address => bool))",
						"numberOfBytes": "32",
						"value": "t_mapping(t_address,t_bool)"
					},
					"t_mapping(t_uint256,t_mapping(t_address,t_struct(Comm)133_storage))": {
						"encoding": "mapping",
						"key": "t_uint256",
						"label": "mapping(uint256 => mapping(address => struct Storage.Comm))",
						"numberOfBytes": "32",
						"value": "t_mapping(t_address,t_struct(Comm)133_storage)"
					},
					"t_mapping(t_uint256,t_mapping(t_address,t_uint256))": {
						"encoding": "mapping",
						"key": "t_uint256",
						"label": "mapping(uint256 => mapping(address => uint256))",
						"numberOfBytes": "32",
						"value": "t_mapping(t_address,t_uint256)"
					},
					"t_mapping(t_uint256,t_mapping(t_uint256,t_struct(Vender)100_storage))": {
						"encoding": "mapping",
						"key": "t_uint256",
						"label": "mapping(uint256 => mapping(uint256 => struct Storage.Vender))",
						"numberOfBytes": "32",
						"value": "t_mapping(t_uint256,t_struct(Vender)100_storage)"
					},
					"t_mapping(t_uint256,t_struct(Tender)119_storage)": {
						"encoding": "mapping",
						"key": "t_uint256",
						"label": "mapping(uint256 => struct Storage.Tender)",
						"numberOfBytes": "32",
						"value": "t_struct(Tender)119_storage"
					},
					"t_mapping(t_uint256,t_struct(Vender)100_storage)": {
						"encoding": "mapping",
						"key": "t_uint256",
						"label": "mapping(uint256 => struct Storage.Vender)",
						"numberOfBytes": "32",
						"value": "t_struct(Vender)100_storage"
					},
					"t_mapping(t_uint256,t_uint256)": {
						"encoding": "mapping",
						"key": "t_uint256",
						"label": "mapping(uint256 => uint256)",
						"numberOfBytes": "32",
						"value": "t_uint256"
					},
					"t_string_storage": {
						"encoding": "bytes",
						"label": "string",
						"numberOfBytes": "32"
					},
					"t_struct(Comm)133_storage": {
						"encoding": "inplace",
						"label": "struct Storage.Comm",
						"members": [
							{
								"astId": 128,
								"contract": "contracts/Fast/contract.sol:Storage",
								"label": "receiver",
								"offset": 0,
								"slot": "0",
								"type": "t_address"
							},
							{
								"astId": 130,
								"contract": "contracts/Fast/contract.sol:Storage",
								"label": "price",
								"offset": 0,
								"slot": "1",
								"type": "t_uint256"
							},
							{
								"astId": 132,
								"contract": "contracts/Fast/contract.sol:Storage",
								"label": "done",
								"offset": 0,
								"slot": "2",
								"type": "t_bool"
							}
						],
						"numberOfBytes": "96"
					},
					"t_struct(Counter)5_storage": {
						"encoding": "inplace",
						"label": "struct Counters.Counter",
						"members": [
							{
								"astId": 4,
								"contract": "contracts/Fast/contract.sol:Storage",
								"label": "_value",
								"offset": 0,
								"slot": "0",
								"type": "t_uint256"
							}
						],
						"numberOfBytes": "32"
					},
					"t_struct(Tender)119_storage": {
						"encoding": "inplace",
						"label": "struct Storage.Tender",
						"members": [
							{
								"astId": 102,
								"contract": "contracts/Fast/contract.sol:Storage",
								"label": "TokenId",
								"offset": 0,
								"slot": "0",
								"type": "t_uint256"
							},
							{
								"astId": 104,
								"contract": "contracts/Fast/contract.sol:Storage",
								"label": "name",
								"offset": 0,
								"slot": "1",
								"type": "t_string_storage"
							},
							{
								"astId": 106,
								"contract": "contracts/Fast/contract.sol:Storage",
								"label": "quantity",
								"offset": 0,
								"slot": "2",
								"type": "t_uint256"
							},
							{
								"astId": 108,
								"contract": "contracts/Fast/contract.sol:Storage",
								"label": "budget",
								"offset": 0,
								"slot": "3",
								"type": "t_uint256"
							},
							{
								"astId": 110,
								"contract": "contracts/Fast/contract.sol:Storage",
								"label": "time",
								"offset": 0,
								"slot": "4",
								"type": "t_uint256"
							},
							{
								"astId": 112,
								"contract": "contracts/Fast/contract.sol:Storage",
								"label": "start",
								"offset": 0,
								"slot": "5",
								"type": "t_uint256"
							},
							{
								"astId": 114,
								"contract": "contracts/Fast/contract.sol:Storage",
								"label": "_address",
								"offset": 0,
								"slot": "6",
								"type": "t_string_storage"
							},
							{
								"astId": 116,
								"contract": "contracts/Fast/contract.sol:Storage",
								"label": "description",
								"offset": 0,
								"slot": "7",
								"type": "t_string_storage"
							},
							{
								"astId": 118,
								"contract": "contracts/Fast/contract.sol:Storage",
								"label": "owner",
								"offset": 0,
								"slot": "8",
								"type": "t_address"
							}
						],
						"numberOfBytes": "288"
					},
					"t_struct(Vender)100_storage": {
						"encoding": "inplace",
						"label": "struct Storage.Vender",
						"members": [
							{
								"astId": 91,
								"contract": "contracts/Fast/contract.sol:Storage",
								"label": "Token",
								"offset": 0,
								"slot": "0",
								"type": "t_uint256"
							},
							{
								"astId": 93,
								"contract": "contracts/Fast/contract.sol:Storage",
								"label": "Price",
								"offset": 0,
								"slot": "1",
								"type": "t_uint256"
							},
							{
								"astId": 95,
								"contract": "contracts/Fast/contract.sol:Storage",
								"label": "Description",
								"offset": 0,
								"slot": "2",
								"type": "t_string_storage"
							},
							{
								"astId": 97,
								"contract": "contracts/Fast/contract.sol:Storage",
								"label": "owner",
								"offset": 0,
								"slot": "3",
								"type": "t_address"
							},
							{
								"astId": 99,
								"contract": "contracts/Fast/contract.sol:Storage",
								"label": "DeleveryTime",
								"offset": 0,
								"slot": "4",
								"type": "t_uint256"
							}
						],
						"numberOfBytes": "160"
					},
					"t_uint256": {
						"encoding": "inplace",
						"label": "uint256",
						"numberOfBytes": "32"
					}
				}
			},
			"userdoc": {
				"kind": "user",
				"methods": {},
				"version": 1
			}
		}
	}
}