{
	"contracts/Fast/contract.sol": {
		"Storage": {
			"abi": [
				{
					"inputs": [],
					"stateMutability": "nonpayable",
					"type": "constructor"
				},
				{
					"inputs": [
						{
							"internalType": "uint256",
							"name": "_token",
							"type": "uint256"
						},
						{
							"internalType": "address",
							"name": "_receiver",
							"type": "address"
						},
						{
							"internalType": "address",
							"name": "_to",
							"type": "address"
						},
						{
							"internalType": "uint256",
							"name": "_price",
							"type": "uint256"
						}
					],
					"name": "AcceptInvitation",
					"outputs": [],
					"stateMutability": "nonpayable",
					"type": "function"
				},
				{
					"inputs": [],
					"name": "AllTender",
					"outputs": [
						{
							"components": [
								{
									"internalType": "uint256",
									"name": "TokenId",
									"type": "uint256"
								},
								{
									"internalType": "string",
									"name": "name",
									"type": "string"
								},
								{
									"internalType": "uint256",
									"name": "quantity",
									"type": "uint256"
								},
								{
									"internalType": "uint256",
									"name": "budget",
									"type": "uint256"
								},
								{
									"internalType": "uint256",
									"name": "time",
									"type": "uint256"
								},
								{
									"internalType": "uint256",
									"name": "start",
									"type": "uint256"
								},
								{
									"internalType": "string",
									"name": "_address",
									"type": "string"
								},
								{
									"internalType": "string",
									"name": "description",
									"type": "string"
								},
								{
									"internalType": "address",
									"name": "owner",
									"type": "address"
								}
							],
							"internalType": "struct Storage.Tender[]",
							"name": "",
							"type": "tuple[]"
						}
					],
					"stateMutability": "view",
					"type": "function"
				},
				{
					"inputs": [
						{
							"internalType": "uint256",
							"name": "_token",
							"type": "uint256"
						}
					],
					"name": "AllVender",
					"outputs": [
						{
							"components": [
								{
									"internalType": "uint256",
									"name": "Token",
									"type": "uint256"
								},
								{
									"internalType": "uint256",
									"name": "Price",
									"type": "uint256"
								},
								{
									"internalType": "string",
									"name": "Description",
									"type": "string"
								},
								{
									"internalType": "address",
									"name": "owner",
									"type": "address"
								},
								{
									"internalType": "uint256",
									"name": "DeleveryTime",
									"type": "uint256"
								}
							],
							"internalType": "struct Storage.Vender[]",
							"name": "",
							"type": "tuple[]"
						}
					],
					"stateMutability": "view",
					"type": "function"
				},
				{
					"inputs": [
						{
							"internalType": "address",
							"name": "",
							"type": "address"
						},
						{
							"internalType": "uint256",
							"name": "",
							"type": "uint256"
						}
					],
					"name": "Ch",
					"outputs": [
						{
							"internalType": "bool",
							"name": "",
							"type": "bool"
						}
					],
					"stateMutability": "view",
					"type": "function"
				},
				{
					"inputs": [
						{
							"internalType": "uint256",
							"name": "_token",
							"type": "uint256"
						}
					],
					"name": "CheckTime",
					"outputs": [
						{
							"internalType": "bool",
							"name": "",
							"type": "bool"
						}
					],
					"stateMutability": "view",
					"type": "function"
				},
				{
					"inputs": [
						{
							"internalType": "uint256",
							"name": "",
							"type": "uint256"
						},
						{
							"internalType": "address",
							"name": "",
							"type": "address"
						}
					],
					"name": "Communication",
					"outputs": [
						{
							"internalType": "address",
							"name": "receiver",
							"type": "address"
						},
						{
							"internalType": "uint256",
							"name": "price",
							"type": "uint256"
						},
						{
							"internalType": "bool",
							"name": "done",
							"type": "bool"
						}
					],
					"stateMutability": "view",
					"type": "function"
				},
				{
					"inputs": [],
					"name": "Contract",
					"outputs": [
						{
							"internalType": "address",
							"name": "",
							"type": "address"
						}
					],
					"stateMutability": "view",
					"type": "function"
				},
				{
					"inputs": [
						{
							"internalType": "uint256",
							"name": "_token",
							"type": "uint256"
						}
					],
					"name": "DeleteVRequest",
					"outputs": [],
					"stateMutability": "nonpayable",
					"type": "function"
				},
				{
					"inputs": [
						{
							"internalType": "address",
							"name": "_to",
							"type": "address"
						},
						{
							"internalType": "address",
							"name": "from",
							"type": "address"
						},
						{
							"internalType": "uint256",
							"name": "tokenId",
							"type": "uint256"
						}
					],
					"name": "Done",
					"outputs": [],
					"stateMutability": "payable",
					"type": "function"
				},
				{
					"inputs": [
						{
							"internalType": "uint256",
							"name": "",
							"type": "uint256"
						},
						{
							"internalType": "address",
							"name": "",
							"type": "address"
						}
					],
					"name": "Finder",
					"outputs": [
						{
							"internalType": "uint256",
							"name": "",
							"type": "uint256"
						}
					],
					"stateMutability": "view",
					"type": "function"
				},
				{
					"inputs": [
						{
							"internalType": "address",
							"name": "",
							"type": "address"
						},
						{
							"internalType": "uint256",
							"name": "",
							"type": "uint256"
						},
						{
							"internalType": "address",
							"name": "",
							"type": "address"
						}
					],
					"name": "Invite",
					"outputs": [
						{
							"internalType": "bool",
							"name": "",
							"type": "bool"
						}
					],
					"stateMutability": "view",
					"type": "function"
				},
				{
					"inputs": [
						{
							"internalType": "address",
							"name": "",
							"type": "address"
						},
						{
							"internalType": "uint256",
							"name": "",
							"type": "uint256"
						}
					],
					"name": "Pending",
					"outputs": [
						{
							"internalType": "bool",
							"name": "",
							"type": "bool"
						}
					],
					"stateMutability": "view",
					"type": "function"
				},
				{
					"inputs": [
						{
							"internalType": "address",
							"name": "",
							"type": "address"
						}
					],
					"name": "Ratting",
					"outputs": [
						{
							"internalType": "uint256",
							"name": "",
							"type": "uint256"
						}
					],
					"stateMutability": "view",
					"type": "function"
				},
				{
					"inputs": [
						{
							"internalType": "address",
							"name": "",
							"type": "address"
						}
					],
					"name": "Requests",
					"outputs": [
						{
							"internalType": "uint256",
							"name": "",
							"type": "uint256"
						}
					],
					"stateMutability": "view",
					"type": "function"
				},
				{
					"inputs": [
						{
							"internalType": "address",
							"name": "",
							"type": "address"
						}
					],
					"name": "Size",
					"outputs": [
						{
							"internalType": "uint256",
							"name": "",
							"type": "uint256"
						}
					],
					"stateMutability": "view",
					"type": "function"
				},
				{
					"inputs": [
						{
							"internalType": "uint256",
							"name": "",
							"type": "uint256"
						}
					],
					"name": "SizeVender",
					"outputs": [
						{
							"internalType": "uint256",
							"name": "",
							"type": "uint256"
						}
					],
					"stateMutability": "view",
					"type": "function"
				},
				{
					"inputs": [
						{
							"internalType": "uint256",
							"name": "",
							"type": "uint256"
						}
					],
					"name": "Total",
					"outputs": [
						{
							"internalType": "uint256",
							"name": "TokenId",
							"type": "uint256"
						},
						{
							"internalType": "string",
							"name": "name",
							"type": "string"
						},
						{
							"internalType": "uint256",
							"name": "quantity",
							"type": "uint256"
						},
						{
							"internalType": "uint256",
							"name": "budget",
							"type": "uint256"
						},
						{
							"internalType": "uint256",
							"name": "time",
							"type": "uint256"
						},
						{
							"internalType": "uint256",
							"name": "start",
							"type": "uint256"
						},
						{
							"internalType": "string",
							"name": "_address",
							"type": "string"
						},
						{
							"internalType": "string",
							"name": "description",
							"type": "string"
						},
						{
							"internalType": "address",
							"name": "owner",
							"type": "address"
						}
					],
					"stateMutability": "view",
					"type": "function"
				},
				{
					"inputs": [],
					"name": "TotalTender",
					"outputs": [
						{
							"internalType": "uint256",
							"name": "_value",
							"type": "uint256"
						}
					],
					"stateMutability": "view",
					"type": "function"
				},
				{
					"inputs": [],
					"name": "TotalVender",
					"outputs": [
						{
							"internalType": "uint256",
							"name": "_value",
							"type": "uint256"
						}
					],
					"stateMutability": "view",
					"type": "function"
				},
				{
					"inputs": [
						{
							"internalType": "uint256",
							"name": "_token",
							"type": "uint256"
						},
						{
							"internalType": "uint256",
							"name": "_price",
							"type": "uint256"
						},
						{
							"internalType": "string",
							"name": "_description",
							"type": "string"
						},
						{
							"internalType": "uint256",
							"name": "_deleveryTime",
							"type": "uint256"
						}
					],
					"name": "UpdateRequest",
					"outputs": [],
					"stateMutability": "nonpayable",
					"type": "function"
				},
				{
					"inputs": [
						{
							"internalType": "uint256",
							"name": "",
							"type": "uint256"
						},
						{
							"internalType": "uint256",
							"name": "",
							"type": "uint256"
						}
					],
					"name": "Venders",
					"outputs": [
						{
							"internalType": "uint256",
							"name": "Token",
							"type": "uint256"
						},
						{
							"internalType": "uint256",
							"name": "Price",
							"type": "uint256"
						},
						{
							"internalType": "string",
							"name": "Description",
							"type": "string"
						},
						{
							"internalType": "address",
							"name": "owner",
							"type": "address"
						},
						{
							"internalType": "uint256",
							"name": "DeleveryTime",
							"type": "uint256"
						}
					],
					"stateMutability": "view",
					"type": "function"
				},
				{
					"inputs": [
						{
							"internalType": "address",
							"name": "_to",
							"type": "address"
						}
					],
					"name": "getTender",
					"outputs": [
						{
							"components": [
								{
									"internalType": "uint256",
									"name": "TokenId",
									"type": "uint256"
								},
								{
									"internalType": "string",
									"name": "name",
									"type": "string"
								},
								{
									"internalType": "uint256",
									"name": "quantity",
									"type": "uint256"
								},
								{
									"internalType": "uint256",
									"name": "budget",
									"type": "uint256"
								},
								{
									"internalType": "uint256",
									"name": "time",
									"type": "uint256"
								},
								{
									"internalType": "uint256",
									"name": "start",
									"type": "uint256"
								},
								{
									"internalType": "string",
									"name": "_address",
									"type": "string"
								},
								{
									"internalType": "string",
									"name": "description",
									"type": "string"
								},
								{
									"internalType": "address",
									"name": "owner",
									"type": "address"
								}
							],
							"internalType": "struct Storage.Tender[]",
							"name": "",
							"type": "tuple[]"
						}
					],
					"stateMutability": "view",
					"type": "function"
				},
				{
					"inputs": [
						{
							"internalType": "address",
							"name": "_address",
							"type": "address"
						}
					],
					"name": "getVender",
					"outputs": [
						{
							"components": [
								{
									"internalType": "uint256",
									"name": "Token",
									"type": "uint256"
								},
								{
									"internalType": "uint256",
									"name": "Price",
									"type": "uint256"
								},
								{
									"internalType": "string",
									"name": "Description",
									"type": "string"
								},
								{
									"internalType": "address",
									"name": "owner",
									"type": "address"
								},
								{
									"internalType": "uint256",
									"name": "DeleveryTime",
									"type": "uint256"
								}
							],
							"internalType": "struct Storage.Vender[]",
							"name": "",
							"type": "tuple[]"
						}
					],
					"stateMutability": "view",
					"type": "function"
				},
				{
					"inputs": [
						{
							"internalType": "string",
							"name": "_name",
							"type": "string"
						},
						{
							"internalType": "uint256",
							"name": "_quantity",
							"type": "uint256"
						},
						{
							"internalType": "uint256",
							"name": "_budget",
							"type": "uint256"
						},
						{
							"internalType": "uint256",
							"name": "_time",
							"type": "uint256"
						},
						{
							"internalType": "string",
							"name": "Address",
							"type": "string"
						},
						{
							"internalType": "string",
							"name": "_description",
							"type": "string"
						}
					],
					"name": "tender",
					"outputs": [],
					"stateMutability": "nonpayable",
					"type": "function"
				},
				{
					"inputs": [
						{
							"internalType": "uint256",
							"name": "_token",
							"type": "uint256"
						},
						{
							"internalType": "uint256",
							"name": "_price",
							"type": "uint256"
						},
						{
							"internalType": "string",
							"name": "_description",
							"type": "string"
						},
						{
							"internalType": "uint256",
							"name": "_deleveryTime",
							"type": "uint256"
						}
					],
					"name": "vender",
					"outputs": [],
					"stateMutability": "nonpayable",
					"type": "function"
				}
			],
			"devdoc": {
				"custom:dev-run-script": "./scripts/deploy_with_ethers.ts",
				"details": "Store & retrieve value in a variable",
				"kind": "dev",
				"methods": {},
				"title": "Storage",
				"version": 1
			},
			"evm": {
				"assembly": "    /* \"contracts/Fast/contract.sol\":254:5722  contract Storage {... */\n  mstore(0x40, 0x80)\n    /* \"contracts/Fast/contract.sol\":1614:1668  constructor(){... */\n  callvalue\n  dup1\n  iszero\n  tag_1\n  jumpi\n  0x00\n  dup1\n  revert\ntag_1:\n  pop\n    /* \"contracts/Fast/contract.sol\":1656:1660  this */\n  address\n    /* \"contracts/Fast/contract.sol\":1637:1645  Contract */\n  0x02\n  0x00\n    /* \"contracts/Fast/contract.sol\":1637:1661  Contract = address(this) */\n  0x0100\n  exp\n  dup2\n  sload\n  dup2\n  0xffffffffffffffffffffffffffffffffffffffff\n  mul\n  not\n  and\n  swap1\n  dup4\n  0xffffffffffffffffffffffffffffffffffffffff\n  and\n  mul\n  or\n  swap1\n  sstore\n  pop\n    /* \"contracts/Fast/contract.sol\":254:5722  contract Storage {... */\n  dataSize(sub_0)\n  dup1\n  dataOffset(sub_0)\n  0x00\n  codecopy\n  0x00\n  return\nstop\n\nsub_0: assembly {\n        /* \"contracts/Fast/contract.sol\":254:5722  contract Storage {... */\n      mstore(0x40, 0x80)\n      jumpi(tag_1, lt(calldatasize, 0x04))\n      shr(0xe0, calldataload(0x00))\n      dup1\n      0x86e9ff0a\n      gt\n      tag_27\n      jumpi\n      dup1\n      0xbc16aad7\n      gt\n      tag_28\n      jumpi\n      dup1\n      0xd0c3e909\n      gt\n      tag_29\n      jumpi\n      dup1\n      0xd0c3e909\n      eq\n      tag_23\n      jumpi\n      dup1\n      0xd60f5a38\n      eq\n      tag_24\n      jumpi\n      dup1\n      0xd7add75f\n      eq\n      tag_25\n      jumpi\n      dup1\n      0xffd64f8a\n      eq\n      tag_26\n      jumpi\n      jump(tag_1)\n    tag_29:\n      dup1\n      0xbc16aad7\n      eq\n      tag_20\n      jumpi\n      dup1\n      0xcf507bfb\n      eq\n      tag_21\n      jumpi\n      dup1\n      0xd0c343d6\n      eq\n      tag_22\n      jumpi\n      jump(tag_1)\n    tag_28:\n      dup1\n      0x86e9ff0a\n      eq\n      tag_14\n      jumpi\n      dup1\n      0x9d6d10f9\n      eq\n      tag_15\n      jumpi\n      dup1\n      0x9fff963e\n      eq\n      tag_16\n      jumpi\n      dup1\n      0xa06c5e3d\n      eq\n      tag_17\n      jumpi\n      dup1\n      0xa56d6544\n      eq\n      tag_18\n      jumpi\n      dup1\n      0xb19781fe\n      eq\n      tag_19\n      jumpi\n      jump(tag_1)\n    tag_27:\n      dup1\n      0x30182235\n      gt\n      tag_30\n      jumpi\n      dup1\n      0x30182235\n      eq\n      tag_8\n      jumpi\n      dup1\n      0x40f12058\n      eq\n      tag_9\n      jumpi\n      dup1\n      0x4fcb4a58\n      eq\n      tag_10\n      jumpi\n      dup1\n      0x52943ff5\n      eq\n      tag_11\n      jumpi\n      dup1\n      0x5af77fff\n      eq\n      tag_12\n      jumpi\n      dup1\n      0x75772c47\n      eq\n      tag_13\n      jumpi\n      jump(tag_1)\n    tag_30:\n      dup1\n      0x0c4a3338\n      eq\n      tag_2\n      jumpi\n      dup1\n      0x168d5d34\n      eq\n      tag_3\n      jumpi\n      dup1\n      0x1a4b3311\n      eq\n      tag_4\n      jumpi\n      dup1\n      0x1a779488\n      eq\n      tag_5\n      jumpi\n      dup1\n      0x2302ec7e\n      eq\n      tag_6\n      jumpi\n      dup1\n      0x25af0316\n      eq\n      tag_7\n      jumpi\n    tag_1:\n      0x00\n      dup1\n      revert\n        /* \"contracts/Fast/contract.sol\":2774:3004  function CheckTime(uint _token) public view returns (bool)  {... */\n    tag_2:\n      callvalue\n      dup1\n      iszero\n      tag_31\n      jumpi\n      0x00\n      dup1\n      revert\n    tag_31:\n      pop\n      tag_32\n      0x04\n      dup1\n      calldatasize\n      sub\n      dup2\n      add\n      swap1\n      tag_33\n      swap2\n      swap1\n      tag_34\n      jump\t// in\n    tag_33:\n      tag_35\n      jump\t// in\n    tag_32:\n      mload(0x40)\n      tag_36\n      swap2\n      swap1\n      tag_37\n      jump\t// in\n    tag_36:\n      mload(0x40)\n      dup1\n      swap2\n      sub\n      swap1\n      return\n        /* \"contracts/Fast/contract.sol\":1181:1238  mapping (uint => mapping(uint => Vender )) public Venders */\n    tag_3:\n      callvalue\n      dup1\n      iszero\n      tag_38\n      jumpi\n      0x00\n      dup1\n      revert\n    tag_38:\n      pop\n      tag_39\n      0x04\n      dup1\n      calldatasize\n      sub\n      dup2\n      add\n      swap1\n      tag_40\n      swap2\n      swap1\n      tag_41\n      jump\t// in\n    tag_40:\n      tag_42\n      jump\t// in\n    tag_39:\n      mload(0x40)\n      tag_43\n      swap6\n      swap5\n      swap4\n      swap3\n      swap2\n      swap1\n      tag_44\n      jump\t// in\n    tag_43:\n      mload(0x40)\n      dup1\n      swap2\n      sub\n      swap1\n      return\n        /* \"contracts/Fast/contract.sol\":1303:1344  mapping (address => uint) public Requests */\n    tag_4:\n      callvalue\n      dup1\n      iszero\n      tag_45\n      jumpi\n      0x00\n      dup1\n      revert\n    tag_45:\n      pop\n      tag_46\n      0x04\n      dup1\n      calldatasize\n      sub\n      dup2\n      add\n      swap1\n      tag_47\n      swap2\n      swap1\n      tag_48\n      jump\t// in\n    tag_47:\n      tag_49\n      jump\t// in\n    tag_46:\n      mload(0x40)\n      tag_50\n      swap2\n      swap1\n      tag_51\n      jump\t// in\n    tag_50:\n      mload(0x40)\n      dup1\n      swap2\n      sub\n      swap1\n      return\n        /* \"contracts/Fast/contract.sol\":1673:2025  function tender(string memory _name,uint _quantity,uint _budget,uint _time,string memory Address,string memory _description) public {... */\n    tag_5:\n      callvalue\n      dup1\n      iszero\n      tag_52\n      jumpi\n      0x00\n      dup1\n      revert\n    tag_52:\n      pop\n      tag_53\n      0x04\n      dup1\n      calldatasize\n      sub\n      dup2\n      add\n      swap1\n      tag_54\n      swap2\n      swap1\n      tag_55\n      jump\t// in\n    tag_54:\n      tag_56\n      jump\t// in\n    tag_53:\n      stop\n        /* \"contracts/Fast/contract.sol\":4546:4863  function DeleteVRequest(uint _token) public {... */\n    tag_6:\n      callvalue\n      dup1\n      iszero\n      tag_57\n      jumpi\n      0x00\n      dup1\n      revert\n    tag_57:\n      pop\n      tag_58\n      0x04\n      dup1\n      calldatasize\n      sub\n      dup2\n      add\n      swap1\n      tag_59\n      swap2\n      swap1\n      tag_34\n      jump\t// in\n    tag_59:\n      tag_60\n      jump\t// in\n    tag_58:\n      stop\n        /* \"contracts/Fast/contract.sol\":359:394  Counters.Counter public TotalVender */\n    tag_7:\n      callvalue\n      dup1\n      iszero\n      tag_61\n      jumpi\n      0x00\n      dup1\n      revert\n    tag_61:\n      pop\n      tag_62\n      tag_63\n      jump\t// in\n    tag_62:\n      mload(0x40)\n      tag_64\n      swap2\n      swap1\n      tag_51\n      jump\t// in\n    tag_64:\n      mload(0x40)\n      dup1\n      swap2\n      sub\n      swap1\n      return\n        /* \"contracts/Fast/contract.sol\":1412:1475  mapping (uint => mapping(address => Comm)) public Communication */\n    tag_8:\n      callvalue\n      dup1\n      iszero\n      tag_65\n      jumpi\n      0x00\n      dup1\n      revert\n    tag_65:\n      pop\n      tag_66\n      0x04\n      dup1\n      calldatasize\n      sub\n      dup2\n      add\n      swap1\n      tag_67\n      swap2\n      swap1\n      tag_68\n      jump\t// in\n    tag_67:\n      tag_69\n      jump\t// in\n    tag_66:\n      mload(0x40)\n      tag_70\n      swap4\n      swap3\n      swap2\n      swap1\n      tag_71\n      jump\t// in\n    tag_70:\n      mload(0x40)\n      dup1\n      swap2\n      sub\n      swap1\n      return\n        /* \"contracts/Fast/contract.sol\":1244:1296  mapping (address => mapping(uint => bool)) public Ch */\n    tag_9:\n      callvalue\n      dup1\n      iszero\n      tag_72\n      jumpi\n      0x00\n      dup1\n      revert\n    tag_72:\n      pop\n      tag_73\n      0x04\n      dup1\n      calldatasize\n      sub\n      dup2\n      add\n      swap1\n      tag_74\n      swap2\n      swap1\n      tag_75\n      jump\t// in\n    tag_74:\n      tag_76\n      jump\t// in\n    tag_73:\n      mload(0x40)\n      tag_77\n      swap2\n      swap1\n      tag_37\n      jump\t// in\n    tag_77:\n      mload(0x40)\n      dup1\n      swap2\n      sub\n      swap1\n      return\n        /* \"contracts/Fast/contract.sol\":3009:3584  function vender(uint _token,uint _price,string memory _description,uint _deleveryTime) public {... */\n    tag_10:\n      callvalue\n      dup1\n      iszero\n      tag_78\n      jumpi\n      0x00\n      dup1\n      revert\n    tag_78:\n      pop\n      tag_79\n      0x04\n      dup1\n      calldatasize\n      sub\n      dup2\n      add\n      swap1\n      tag_80\n      swap2\n      swap1\n      tag_81\n      jump\t// in\n    tag_80:\n      tag_82\n      jump\t// in\n    tag_79:\n      stop\n        /* \"contracts/Fast/contract.sol\":1137:1175  mapping (uint => Tender ) public Total */\n    tag_11:\n      callvalue\n      dup1\n      iszero\n      tag_83\n      jumpi\n      0x00\n      dup1\n      revert\n    tag_83:\n      pop\n      tag_84\n      0x04\n      dup1\n      calldatasize\n      sub\n      dup2\n      add\n      swap1\n      tag_85\n      swap2\n      swap1\n      tag_34\n      jump\t// in\n    tag_85:\n      tag_86\n      jump\t// in\n    tag_84:\n      mload(0x40)\n      tag_87\n      swap10\n      swap9\n      swap8\n      swap7\n      swap6\n      swap5\n      swap4\n      swap3\n      swap2\n      swap1\n      tag_88\n      jump\t// in\n    tag_87:\n      mload(0x40)\n      dup1\n      swap2\n      sub\n      swap1\n      return\n        /* \"contracts/Fast/contract.sol\":401:424  address public Contract */\n    tag_12:\n      callvalue\n      dup1\n      iszero\n      tag_89\n      jumpi\n      0x00\n      dup1\n      revert\n    tag_89:\n      pop\n      tag_90\n      tag_91\n      jump\t// in\n    tag_90:\n      mload(0x40)\n      tag_92\n      swap2\n      swap1\n      tag_93\n      jump\t// in\n    tag_92:\n      mload(0x40)\n      dup1\n      swap2\n      sub\n      swap1\n      return\n        /* \"contracts/Fast/contract.sol\":1028:1085  mapping (address => mapping(uint => bool)) public Pending */\n    tag_13:\n      callvalue\n      dup1\n      iszero\n      tag_94\n      jumpi\n      0x00\n      dup1\n      revert\n    tag_94:\n      pop\n      tag_95\n      0x04\n      dup1\n      calldatasize\n      sub\n      dup2\n      add\n      swap1\n      tag_96\n      swap2\n      swap1\n      tag_75\n      jump\t// in\n    tag_96:\n      tag_97\n      jump\t// in\n    tag_95:\n      mload(0x40)\n      tag_98\n      swap2\n      swap1\n      tag_37\n      jump\t// in\n    tag_98:\n      mload(0x40)\n      dup1\n      swap2\n      sub\n      swap1\n      return\n        /* \"contracts/Fast/contract.sol\":3589:4020  function AllVender(uint _token) public view returns (Vender[] memory)  {... */\n    tag_14:\n      callvalue\n      dup1\n      iszero\n      tag_99\n      jumpi\n      0x00\n      dup1\n      revert\n    tag_99:\n      pop\n      tag_100\n      0x04\n      dup1\n      calldatasize\n      sub\n      dup2\n      add\n      swap1\n      tag_101\n      swap2\n      swap1\n      tag_34\n      jump\t// in\n    tag_101:\n      tag_102\n      jump\t// in\n    tag_100:\n      mload(0x40)\n      tag_103\n      swap2\n      swap1\n      tag_104\n      jump\t// in\n    tag_103:\n      mload(0x40)\n      dup1\n      swap2\n      sub\n      swap1\n      return\n        /* \"contracts/Fast/contract.sol\":1563:1603  mapping (address => uint) public Ratting */\n    tag_15:\n      callvalue\n      dup1\n      iszero\n      tag_105\n      jumpi\n      0x00\n      dup1\n      revert\n    tag_105:\n      pop\n      tag_106\n      0x04\n      dup1\n      calldatasize\n      sub\n      dup2\n      add\n      swap1\n      tag_107\n      swap2\n      swap1\n      tag_48\n      jump\t// in\n    tag_107:\n      tag_108\n      jump\t// in\n    tag_106:\n      mload(0x40)\n      tag_109\n      swap2\n      swap1\n      tag_51\n      jump\t// in\n    tag_109:\n      mload(0x40)\n      dup1\n      swap2\n      sub\n      swap1\n      return\n        /* \"contracts/Fast/contract.sol\":1350:1406  mapping (uint => mapping(address => uint)) public Finder */\n    tag_16:\n      callvalue\n      dup1\n      iszero\n      tag_110\n      jumpi\n      0x00\n      dup1\n      revert\n    tag_110:\n      pop\n      tag_111\n      0x04\n      dup1\n      calldatasize\n      sub\n      dup2\n      add\n      swap1\n      tag_112\n      swap2\n      swap1\n      tag_68\n      jump\t// in\n    tag_112:\n      tag_113\n      jump\t// in\n    tag_111:\n      mload(0x40)\n      tag_114\n      swap2\n      swap1\n      tag_51\n      jump\t// in\n    tag_114:\n      mload(0x40)\n      dup1\n      swap2\n      sub\n      swap1\n      return\n        /* \"contracts/Fast/contract.sol\":5096:5341  function AcceptInvitation(uint _token,address _receiver,address _to,uint _price) public {... */\n    tag_17:\n      callvalue\n      dup1\n      iszero\n      tag_115\n      jumpi\n      0x00\n      dup1\n      revert\n    tag_115:\n      pop\n      tag_116\n      0x04\n      dup1\n      calldatasize\n      sub\n      dup2\n      add\n      swap1\n      tag_117\n      swap2\n      swap1\n      tag_118\n      jump\t// in\n    tag_117:\n      tag_119\n      jump\t// in\n    tag_116:\n      stop\n        /* \"contracts/Fast/contract.sol\":1481:1557  mapping (address => mapping(uint => mapping(address => bool))) public Invite */\n    tag_18:\n      callvalue\n      dup1\n      iszero\n      tag_120\n      jumpi\n      0x00\n      dup1\n      revert\n    tag_120:\n      pop\n      tag_121\n      0x04\n      dup1\n      calldatasize\n      sub\n      dup2\n      add\n      swap1\n      tag_122\n      swap2\n      swap1\n      tag_123\n      jump\t// in\n    tag_122:\n      tag_124\n      jump\t// in\n    tag_121:\n      mload(0x40)\n      tag_125\n      swap2\n      swap1\n      tag_37\n      jump\t// in\n    tag_125:\n      mload(0x40)\n      dup1\n      swap2\n      sub\n      swap1\n      return\n        /* \"contracts/Fast/contract.sol\":985:1022  mapping (address => uint) public Size */\n    tag_19:\n      callvalue\n      dup1\n      iszero\n      tag_126\n      jumpi\n      0x00\n      dup1\n      revert\n    tag_126:\n      pop\n      tag_127\n      0x04\n      dup1\n      calldatasize\n      sub\n      dup2\n      add\n      swap1\n      tag_128\n      swap2\n      swap1\n      tag_48\n      jump\t// in\n    tag_128:\n      tag_129\n      jump\t// in\n    tag_127:\n      mload(0x40)\n      tag_130\n      swap2\n      swap1\n      tag_51\n      jump\t// in\n    tag_130:\n      mload(0x40)\n      dup1\n      swap2\n      sub\n      swap1\n      return\n        /* \"contracts/Fast/contract.sol\":2434:2769  function AllTender() public view returns (Tender[] memory)  {... */\n    tag_20:\n      callvalue\n      dup1\n      iszero\n      tag_131\n      jumpi\n      0x00\n      dup1\n      revert\n    tag_131:\n      pop\n      tag_132\n      tag_133\n      jump\t// in\n    tag_132:\n      mload(0x40)\n      tag_134\n      swap2\n      swap1\n      tag_135\n      jump\t// in\n    tag_134:\n      mload(0x40)\n      dup1\n      swap2\n      sub\n      swap1\n      return\n        /* \"contracts/Fast/contract.sol\":4868:5091  function UpdateRequest(uint _token,uint _price,string memory _description,uint _deleveryTime) public {... */\n    tag_21:\n      callvalue\n      dup1\n      iszero\n      tag_136\n      jumpi\n      0x00\n      dup1\n      revert\n    tag_136:\n      pop\n      tag_137\n      0x04\n      dup1\n      calldatasize\n      sub\n      dup2\n      add\n      swap1\n      tag_138\n      swap2\n      swap1\n      tag_81\n      jump\t// in\n    tag_138:\n      tag_139\n      jump\t// in\n    tag_137:\n      stop\n        /* \"contracts/Fast/contract.sol\":4025:4541  function getVender(address _address) public view returns (Vender[] memory)  {... */\n    tag_22:\n      callvalue\n      dup1\n      iszero\n      tag_140\n      jumpi\n      0x00\n      dup1\n      revert\n    tag_140:\n      pop\n      tag_141\n      0x04\n      dup1\n      calldatasize\n      sub\n      dup2\n      add\n      swap1\n      tag_142\n      swap2\n      swap1\n      tag_48\n      jump\t// in\n    tag_142:\n      tag_143\n      jump\t// in\n    tag_141:\n      mload(0x40)\n      tag_144\n      swap2\n      swap1\n      tag_104\n      jump\t// in\n    tag_144:\n      mload(0x40)\n      dup1\n      swap2\n      sub\n      swap1\n      return\n        /* \"contracts/Fast/contract.sol\":2030:2429  function getTender(address _to) public view returns (Tender[] memory)  {... */\n    tag_23:\n      callvalue\n      dup1\n      iszero\n      tag_145\n      jumpi\n      0x00\n      dup1\n      revert\n    tag_145:\n      pop\n      tag_146\n      0x04\n      dup1\n      calldatasize\n      sub\n      dup2\n      add\n      swap1\n      tag_147\n      swap2\n      swap1\n      tag_48\n      jump\t// in\n    tag_147:\n      tag_148\n      jump\t// in\n    tag_146:\n      mload(0x40)\n      tag_149\n      swap2\n      swap1\n      tag_135\n      jump\t// in\n    tag_149:\n      mload(0x40)\n      dup1\n      swap2\n      sub\n      swap1\n      return\n        /* \"contracts/Fast/contract.sol\":5346:5715  function Done(address _to,address from,uint tokenId) public payable {... */\n    tag_24:\n      tag_150\n      0x04\n      dup1\n      calldatasize\n      sub\n      dup2\n      add\n      swap1\n      tag_151\n      swap2\n      swap1\n      tag_152\n      jump\t// in\n    tag_151:\n      tag_153\n      jump\t// in\n    tag_150:\n      stop\n        /* \"contracts/Fast/contract.sol\":318:353  Counters.Counter public TotalTender */\n    tag_25:\n      callvalue\n      dup1\n      iszero\n      tag_154\n      jumpi\n      0x00\n      dup1\n      revert\n    tag_154:\n      pop\n      tag_155\n      tag_156\n      jump\t// in\n    tag_155:\n      mload(0x40)\n      tag_157\n      swap2\n      swap1\n      tag_51\n      jump\t// in\n    tag_157:\n      mload(0x40)\n      dup1\n      swap2\n      sub\n      swap1\n      return\n        /* \"contracts/Fast/contract.sol\":1091:1131  mapping (uint => uint) public SizeVender */\n    tag_26:\n      callvalue\n      dup1\n      iszero\n      tag_158\n      jumpi\n      0x00\n      dup1\n      revert\n    tag_158:\n      pop\n      tag_159\n      0x04\n      dup1\n      calldatasize\n      sub\n      dup2\n      add\n      swap1\n      tag_160\n      swap2\n      swap1\n      tag_34\n      jump\t// in\n    tag_160:\n      tag_161\n      jump\t// in\n    tag_159:\n      mload(0x40)\n      tag_162\n      swap2\n      swap1\n      tag_51\n      jump\t// in\n    tag_162:\n      mload(0x40)\n      dup1\n      swap2\n      sub\n      swap1\n      return\n        /* \"contracts/Fast/contract.sol\":2774:3004  function CheckTime(uint _token) public view returns (bool)  {... */\n    tag_35:\n        /* \"contracts/Fast/contract.sol\":2827:2831  bool */\n      0x00\n        /* \"contracts/Fast/contract.sol\":2896:2911  block.timestamp */\n      timestamp\n        /* \"contracts/Fast/contract.sol\":2889:2891  60 */\n      0x3c\n        /* \"contracts/Fast/contract.sol\":2870:2875  Total */\n      0x06\n        /* \"contracts/Fast/contract.sol\":2870:2883  Total[_token] */\n      0x00\n        /* \"contracts/Fast/contract.sol\":2876:2882  _token */\n      dup6\n        /* \"contracts/Fast/contract.sol\":2870:2883  Total[_token] */\n      dup2\n      mstore\n      0x20\n      add\n      swap1\n      dup2\n      mstore\n      0x20\n      add\n      0x00\n      keccak256\n        /* \"contracts/Fast/contract.sol\":2870:2888  Total[_token].time */\n      0x04\n      add\n      sload\n        /* \"contracts/Fast/contract.sol\":2870:2891  Total[_token].time*60 */\n      tag_164\n      swap2\n      swap1\n      tag_165\n      jump\t// in\n    tag_164:\n        /* \"contracts/Fast/contract.sol\":2847:2852  Total */\n      0x06\n        /* \"contracts/Fast/contract.sol\":2847:2860  Total[_token] */\n      0x00\n        /* \"contracts/Fast/contract.sol\":2853:2859  _token */\n      dup6\n        /* \"contracts/Fast/contract.sol\":2847:2860  Total[_token] */\n      dup2\n      mstore\n      0x20\n      add\n      swap1\n      dup2\n      mstore\n      0x20\n      add\n      0x00\n      keccak256\n        /* \"contracts/Fast/contract.sol\":2847:2866  Total[_token].start */\n      0x05\n      add\n      sload\n        /* \"contracts/Fast/contract.sol\":2847:2892  Total[_token].start + (Total[_token].time*60) */\n      tag_166\n      swap2\n      swap1\n      tag_167\n      jump\t// in\n    tag_166:\n        /* \"contracts/Fast/contract.sol\":2847:2911  Total[_token].start + (Total[_token].time*60) <= block.timestamp */\n      gt\n        /* \"contracts/Fast/contract.sol\":2844:2998  if(Total[_token].start + (Total[_token].time*60) <= block.timestamp){... */\n      tag_168\n      jumpi\n        /* \"contracts/Fast/contract.sol\":2933:2938  false */\n      0x00\n        /* \"contracts/Fast/contract.sol\":2926:2938  return false */\n      swap1\n      pop\n      jump(tag_163)\n        /* \"contracts/Fast/contract.sol\":2844:2998  if(Total[_token].start + (Total[_token].time*60) <= block.timestamp){... */\n    tag_168:\n        /* \"contracts/Fast/contract.sol\":2983:2987  true */\n      0x01\n        /* \"contracts/Fast/contract.sol\":2976:2987  return true */\n      swap1\n      pop\n        /* \"contracts/Fast/contract.sol\":2774:3004  function CheckTime(uint _token) public view returns (bool)  {... */\n    tag_163:\n      swap2\n      swap1\n      pop\n      jump\t// out\n        /* \"contracts/Fast/contract.sol\":1181:1238  mapping (uint => mapping(uint => Vender )) public Venders */\n    tag_42:\n      mstore(0x20, 0x07)\n      dup2\n      0x00\n      mstore\n      mstore(0x20, keccak256(0x00, 0x40))\n      dup1\n      0x00\n      mstore\n      keccak256(0x00, 0x40)\n      0x00\n      swap2\n      pop\n      swap2\n      pop\n      pop\n      dup1\n      0x00\n      add\n      sload\n      swap1\n      dup1\n      0x01\n      add\n      sload\n      swap1\n      dup1\n      0x02\n      add\n      dup1\n      sload\n      tag_170\n      swap1\n      tag_171\n      jump\t// in\n    tag_170:\n      dup1\n      0x1f\n      add\n      0x20\n      dup1\n      swap2\n      div\n      mul\n      0x20\n      add\n      mload(0x40)\n      swap1\n      dup2\n      add\n      0x40\n      mstore\n      dup1\n      swap3\n      swap2\n      swap1\n      dup2\n      dup2\n      mstore\n      0x20\n      add\n      dup3\n      dup1\n      sload\n      tag_172\n      swap1\n      tag_171\n      jump\t// in\n    tag_172:\n      dup1\n      iszero\n      tag_173\n      jumpi\n      dup1\n      0x1f\n      lt\n      tag_174\n      jumpi\n      0x0100\n      dup1\n      dup4\n      sload\n      div\n      mul\n      dup4\n      mstore\n      swap2\n      0x20\n      add\n      swap2\n      jump(tag_173)\n    tag_174:\n      dup3\n      add\n      swap2\n      swap1\n      0x00\n      mstore\n      keccak256(0x00, 0x20)\n      swap1\n    tag_175:\n      dup2\n      sload\n      dup2\n      mstore\n      swap1\n      0x01\n      add\n      swap1\n      0x20\n      add\n      dup1\n      dup4\n      gt\n      tag_175\n      jumpi\n      dup3\n      swap1\n      sub\n      0x1f\n      and\n      dup3\n      add\n      swap2\n    tag_173:\n      pop\n      pop\n      pop\n      pop\n      pop\n      swap1\n      dup1\n      0x03\n      add\n      0x00\n      swap1\n      sload\n      swap1\n      0x0100\n      exp\n      swap1\n      div\n      0xffffffffffffffffffffffffffffffffffffffff\n      and\n      swap1\n      dup1\n      0x04\n      add\n      sload\n      swap1\n      pop\n      dup6\n      jump\t// out\n        /* \"contracts/Fast/contract.sol\":1303:1344  mapping (address => uint) public Requests */\n    tag_49:\n      mstore(0x20, 0x09)\n      dup1\n      0x00\n      mstore\n      keccak256(0x00, 0x40)\n      0x00\n      swap2\n      pop\n      swap1\n      pop\n      sload\n      dup2\n      jump\t// out\n        /* \"contracts/Fast/contract.sol\":1673:2025  function tender(string memory _name,uint _quantity,uint _budget,uint _time,string memory Address,string memory _description) public {... */\n    tag_56:\n        /* \"contracts/Fast/contract.sol\":1815:1838  TotalTender.increment() */\n      tag_177\n        /* \"contracts/Fast/contract.sol\":1815:1826  TotalTender */\n      0x00\n        /* \"contracts/Fast/contract.sol\":1815:1836  TotalTender.increment */\n      tag_178\n        /* \"contracts/Fast/contract.sol\":1815:1838  TotalTender.increment() */\n      jump\t// in\n    tag_177:\n        /* \"contracts/Fast/contract.sol\":1868:1869  1 */\n      0x01\n        /* \"contracts/Fast/contract.sol\":1848:1852  Size */\n      0x03\n        /* \"contracts/Fast/contract.sol\":1848:1864  Size[msg.sender] */\n      0x00\n        /* \"contracts/Fast/contract.sol\":1853:1863  msg.sender */\n      caller\n        /* \"contracts/Fast/contract.sol\":1848:1864  Size[msg.sender] */\n      0xffffffffffffffffffffffffffffffffffffffff\n      and\n      0xffffffffffffffffffffffffffffffffffffffff\n      and\n      dup2\n      mstore\n      0x20\n      add\n      swap1\n      dup2\n      mstore\n      0x20\n      add\n      0x00\n      keccak256\n      0x00\n        /* \"contracts/Fast/contract.sol\":1848:1869  Size[msg.sender] += 1 */\n      dup3\n      dup3\n      sload\n      tag_179\n      swap2\n      swap1\n      tag_167\n      jump\t// in\n    tag_179:\n      swap3\n      pop\n      pop\n      dup2\n      swap1\n      sstore\n      pop\n        /* \"contracts/Fast/contract.sol\":1911:2018  Tender(TotalTender.current(),_name,_quantity,_budget,_time,block.timestamp,Address,_description,msg.sender) */\n      mload(0x40)\n      dup1\n      0x0120\n      add\n      0x40\n      mstore\n      dup1\n        /* \"contracts/Fast/contract.sol\":1918:1939  TotalTender.current() */\n      tag_180\n        /* \"contracts/Fast/contract.sol\":1918:1929  TotalTender */\n      0x00\n        /* \"contracts/Fast/contract.sol\":1918:1937  TotalTender.current */\n      tag_181\n        /* \"contracts/Fast/contract.sol\":1918:1939  TotalTender.current() */\n      jump\t// in\n    tag_180:\n        /* \"contracts/Fast/contract.sol\":1911:2018  Tender(TotalTender.current(),_name,_quantity,_budget,_time,block.timestamp,Address,_description,msg.sender) */\n      dup2\n      mstore\n      0x20\n      add\n        /* \"contracts/Fast/contract.sol\":1940:1945  _name */\n      dup8\n        /* \"contracts/Fast/contract.sol\":1911:2018  Tender(TotalTender.current(),_name,_quantity,_budget,_time,block.timestamp,Address,_description,msg.sender) */\n      dup2\n      mstore\n      0x20\n      add\n        /* \"contracts/Fast/contract.sol\":1946:1955  _quantity */\n      dup7\n        /* \"contracts/Fast/contract.sol\":1911:2018  Tender(TotalTender.current(),_name,_quantity,_budget,_time,block.timestamp,Address,_description,msg.sender) */\n      dup2\n      mstore\n      0x20\n      add\n        /* \"contracts/Fast/contract.sol\":1956:1963  _budget */\n      dup6\n        /* \"contracts/Fast/contract.sol\":1911:2018  Tender(TotalTender.current(),_name,_quantity,_budget,_time,block.timestamp,Address,_description,msg.sender) */\n      dup2\n      mstore\n      0x20\n      add\n        /* \"contracts/Fast/contract.sol\":1964:1969  _time */\n      dup5\n        /* \"contracts/Fast/contract.sol\":1911:2018  Tender(TotalTender.current(),_name,_quantity,_budget,_time,block.timestamp,Address,_description,msg.sender) */\n      dup2\n      mstore\n      0x20\n      add\n        /* \"contracts/Fast/contract.sol\":1970:1985  block.timestamp */\n      timestamp\n        /* \"contracts/Fast/contract.sol\":1911:2018  Tender(TotalTender.current(),_name,_quantity,_budget,_time,block.timestamp,Address,_description,msg.sender) */\n      dup2\n      mstore\n      0x20\n      add\n        /* \"contracts/Fast/contract.sol\":1986:1993  Address */\n      dup4\n        /* \"contracts/Fast/contract.sol\":1911:2018  Tender(TotalTender.current(),_name,_quantity,_budget,_time,block.timestamp,Address,_description,msg.sender) */\n      dup2\n      mstore\n      0x20\n      add\n        /* \"contracts/Fast/contract.sol\":1994:2006  _description */\n      dup3\n        /* \"contracts/Fast/contract.sol\":1911:2018  Tender(TotalTender.current(),_name,_quantity,_budget,_time,block.timestamp,Address,_description,msg.sender) */\n      dup2\n      mstore\n      0x20\n      add\n        /* \"contracts/Fast/contract.sol\":2007:2017  msg.sender */\n      caller\n        /* \"contracts/Fast/contract.sol\":1911:2018  Tender(TotalTender.current(),_name,_quantity,_budget,_time,block.timestamp,Address,_description,msg.sender) */\n      0xffffffffffffffffffffffffffffffffffffffff\n      and\n      dup2\n      mstore\n      pop\n        /* \"contracts/Fast/contract.sol\":1880:1885  Total */\n      0x06\n        /* \"contracts/Fast/contract.sol\":1880:1908  Total[TotalTender.current()] */\n      0x00\n        /* \"contracts/Fast/contract.sol\":1886:1907  TotalTender.current() */\n      tag_182\n        /* \"contracts/Fast/contract.sol\":1886:1897  TotalTender */\n      0x00\n        /* \"contracts/Fast/contract.sol\":1886:1905  TotalTender.current */\n      tag_181\n        /* \"contracts/Fast/contract.sol\":1886:1907  TotalTender.current() */\n      jump\t// in\n    tag_182:\n        /* \"contracts/Fast/contract.sol\":1880:1908  Total[TotalTender.current()] */\n      dup2\n      mstore\n      0x20\n      add\n      swap1\n      dup2\n      mstore\n      0x20\n      add\n      0x00\n      keccak256\n        /* \"contracts/Fast/contract.sol\":1880:2018  Total[TotalTender.current()] = Tender(TotalTender.current(),_name,_quantity,_budget,_time,block.timestamp,Address,_description,msg.sender) */\n      0x00\n      dup3\n      add\n      mload\n      dup2\n      0x00\n      add\n      sstore\n      0x20\n      dup3\n      add\n      mload\n      dup2\n      0x01\n      add\n      swap1\n      dup1\n      mload\n      swap1\n      0x20\n      add\n      swap1\n      tag_183\n      swap3\n      swap2\n      swap1\n      tag_184\n      jump\t// in\n    tag_183:\n      pop\n      0x40\n      dup3\n      add\n      mload\n      dup2\n      0x02\n      add\n      sstore\n      0x60\n      dup3\n      add\n      mload\n      dup2\n      0x03\n      add\n      sstore\n      0x80\n      dup3\n      add\n      mload\n      dup2\n      0x04\n      add\n      sstore\n      0xa0\n      dup3\n      add\n      mload\n      dup2\n      0x05\n      add\n      sstore\n      0xc0\n      dup3\n      add\n      mload\n      dup2\n      0x06\n      add\n      swap1\n      dup1\n      mload\n      swap1\n      0x20\n      add\n      swap1\n      tag_185\n      swap3\n      swap2\n      swap1\n      tag_184\n      jump\t// in\n    tag_185:\n      pop\n      0xe0\n      dup3\n      add\n      mload\n      dup2\n      0x07\n      add\n      swap1\n      dup1\n      mload\n      swap1\n      0x20\n      add\n      swap1\n      tag_186\n      swap3\n      swap2\n      swap1\n      tag_184\n      jump\t// in\n    tag_186:\n      pop\n      0x0100\n      dup3\n      add\n      mload\n      dup2\n      0x08\n      add\n      exp(0x0100, 0x00)\n      dup2\n      sload\n      dup2\n      0xffffffffffffffffffffffffffffffffffffffff\n      mul\n      not\n      and\n      swap1\n      dup4\n      0xffffffffffffffffffffffffffffffffffffffff\n      and\n      mul\n      or\n      swap1\n      sstore\n      pop\n      swap1\n      pop\n      pop\n        /* \"contracts/Fast/contract.sol\":1673:2025  function tender(string memory _name,uint _quantity,uint _budget,uint _time,string memory Address,string memory _description) public {... */\n      pop\n      pop\n      pop\n      pop\n      pop\n      pop\n      jump\t// out\n        /* \"contracts/Fast/contract.sol\":4546:4863  function DeleteVRequest(uint _token) public {... */\n    tag_60:\n        /* \"contracts/Fast/contract.sol\":4608:4610  Ch */\n      0x08\n        /* \"contracts/Fast/contract.sol\":4608:4622  Ch[msg.sender] */\n      0x00\n        /* \"contracts/Fast/contract.sol\":4611:4621  msg.sender */\n      caller\n        /* \"contracts/Fast/contract.sol\":4608:4622  Ch[msg.sender] */\n      0xffffffffffffffffffffffffffffffffffffffff\n      and\n      0xffffffffffffffffffffffffffffffffffffffff\n      and\n      dup2\n      mstore\n      0x20\n      add\n      swap1\n      dup2\n      mstore\n      0x20\n      add\n      0x00\n      keccak256\n        /* \"contracts/Fast/contract.sol\":4608:4630  Ch[msg.sender][_token] */\n      0x00\n        /* \"contracts/Fast/contract.sol\":4623:4629  _token */\n      dup3\n        /* \"contracts/Fast/contract.sol\":4608:4630  Ch[msg.sender][_token] */\n      dup2\n      mstore\n      0x20\n      add\n      swap1\n      dup2\n      mstore\n      0x20\n      add\n      0x00\n      keccak256\n      0x00\n      swap1\n      sload\n      swap1\n      0x0100\n      exp\n      swap1\n      div\n      0xff\n      and\n        /* \"contracts/Fast/contract.sol\":4600:4651  require(Ch[msg.sender][_token],\"You canNot Delete\") */\n      tag_188\n      jumpi\n      mload(0x40)\n      0x08c379a000000000000000000000000000000000000000000000000000000000\n      dup2\n      mstore\n      0x04\n      add\n      tag_189\n      swap1\n      tag_190\n      jump\t// in\n    tag_189:\n      mload(0x40)\n      dup1\n      swap2\n      sub\n      swap1\n      revert\n    tag_188:\n        /* \"contracts/Fast/contract.sol\":4685:4686  1 */\n      0x01\n        /* \"contracts/Fast/contract.sol\":4661:4669  Requests */\n      0x09\n        /* \"contracts/Fast/contract.sol\":4661:4681  Requests[msg.sender] */\n      0x00\n        /* \"contracts/Fast/contract.sol\":4670:4680  msg.sender */\n      caller\n        /* \"contracts/Fast/contract.sol\":4661:4681  Requests[msg.sender] */\n      0xffffffffffffffffffffffffffffffffffffffff\n      and\n      0xffffffffffffffffffffffffffffffffffffffff\n      and\n      dup2\n      mstore\n      0x20\n      add\n      swap1\n      dup2\n      mstore\n      0x20\n      add\n      0x00\n      keccak256\n      0x00\n        /* \"contracts/Fast/contract.sol\":4661:4686  Requests[msg.sender] -= 1 */\n      dup3\n      dup3\n      sload\n      tag_191\n      swap2\n      swap1\n      tag_192\n      jump\t// in\n    tag_191:\n      swap3\n      pop\n      pop\n      dup2\n      swap1\n      sstore\n      pop\n        /* \"contracts/Fast/contract.sol\":4718:4719  1 */\n      0x01\n        /* \"contracts/Fast/contract.sol\":4696:4706  SizeVender */\n      0x05\n        /* \"contracts/Fast/contract.sol\":4696:4714  SizeVender[_token] */\n      0x00\n        /* \"contracts/Fast/contract.sol\":4707:4713  _token */\n      dup4\n        /* \"contracts/Fast/contract.sol\":4696:4714  SizeVender[_token] */\n      dup2\n      mstore\n      0x20\n      add\n      swap1\n      dup2\n      mstore\n      0x20\n      add\n      0x00\n      keccak256\n      0x00\n        /* \"contracts/Fast/contract.sol\":4696:4719  SizeVender[_token] -= 1 */\n      dup3\n      dup3\n      sload\n      tag_193\n      swap2\n      swap1\n      tag_192\n      jump\t// in\n    tag_193:\n      swap3\n      pop\n      pop\n      dup2\n      swap1\n      sstore\n      pop\n        /* \"contracts/Fast/contract.sol\":4755:4760  false */\n      0x00\n        /* \"contracts/Fast/contract.sol\":4730:4732  Ch */\n      0x08\n        /* \"contracts/Fast/contract.sol\":4730:4744  Ch[msg.sender] */\n      0x00\n        /* \"contracts/Fast/contract.sol\":4733:4743  msg.sender */\n      caller\n        /* \"contracts/Fast/contract.sol\":4730:4744  Ch[msg.sender] */\n      0xffffffffffffffffffffffffffffffffffffffff\n      and\n      0xffffffffffffffffffffffffffffffffffffffff\n      and\n      dup2\n      mstore\n      0x20\n      add\n      swap1\n      dup2\n      mstore\n      0x20\n      add\n      0x00\n      keccak256\n        /* \"contracts/Fast/contract.sol\":4730:4752  Ch[msg.sender][_token] */\n      0x00\n        /* \"contracts/Fast/contract.sol\":4745:4751  _token */\n      dup4\n        /* \"contracts/Fast/contract.sol\":4730:4752  Ch[msg.sender][_token] */\n      dup2\n      mstore\n      0x20\n      add\n      swap1\n      dup2\n      mstore\n      0x20\n      add\n      0x00\n      keccak256\n      0x00\n        /* \"contracts/Fast/contract.sol\":4730:4760  Ch[msg.sender][_token] = false */\n      0x0100\n      exp\n      dup2\n      sload\n      dup2\n      0xff\n      mul\n      not\n      and\n      swap1\n      dup4\n      iszero\n      iszero\n      mul\n      or\n      swap1\n      sstore\n      pop\n        /* \"contracts/Fast/contract.sol\":4777:4784  Venders */\n      0x07\n        /* \"contracts/Fast/contract.sol\":4777:4812  Venders[Finder[_token][msg.sender]] */\n      0x00\n        /* \"contracts/Fast/contract.sol\":4785:4791  Finder */\n      0x0a\n        /* \"contracts/Fast/contract.sol\":4785:4799  Finder[_token] */\n      0x00\n        /* \"contracts/Fast/contract.sol\":4792:4798  _token */\n      dup5\n        /* \"contracts/Fast/contract.sol\":4785:4799  Finder[_token] */\n      dup2\n      mstore\n      0x20\n      add\n      swap1\n      dup2\n      mstore\n      0x20\n      add\n      0x00\n      keccak256\n        /* \"contracts/Fast/contract.sol\":4785:4811  Finder[_token][msg.sender] */\n      0x00\n        /* \"contracts/Fast/contract.sol\":4800:4810  msg.sender */\n      caller\n        /* \"contracts/Fast/contract.sol\":4785:4811  Finder[_token][msg.sender] */\n      0xffffffffffffffffffffffffffffffffffffffff\n      and\n      0xffffffffffffffffffffffffffffffffffffffff\n      and\n      dup2\n      mstore\n      0x20\n      add\n      swap1\n      dup2\n      mstore\n      0x20\n      add\n      0x00\n      keccak256\n      sload\n        /* \"contracts/Fast/contract.sol\":4777:4812  Venders[Finder[_token][msg.sender]] */\n      dup2\n      mstore\n      0x20\n      add\n      swap1\n      dup2\n      mstore\n      0x20\n      add\n      0x00\n      keccak256\n        /* \"contracts/Fast/contract.sol\":4777:4820  Venders[Finder[_token][msg.sender]][_token] */\n      0x00\n        /* \"contracts/Fast/contract.sol\":4813:4819  _token */\n      dup3\n        /* \"contracts/Fast/contract.sol\":4777:4820  Venders[Finder[_token][msg.sender]][_token] */\n      dup2\n      mstore\n      0x20\n      add\n      swap1\n      dup2\n      mstore\n      0x20\n      add\n      0x00\n      keccak256\n      0x00\n        /* \"contracts/Fast/contract.sol\":4770:4820  delete Venders[Finder[_token][msg.sender]][_token] */\n      dup1\n      dup3\n      add\n      0x00\n      swap1\n      sstore\n      0x01\n      dup3\n      add\n      0x00\n      swap1\n      sstore\n      0x02\n      dup3\n      add\n      0x00\n      tag_194\n      swap2\n      swap1\n      tag_195\n      jump\t// in\n    tag_194:\n      0x03\n      dup3\n      add\n      exp(0x0100, 0x00)\n      dup2\n      sload\n      swap1\n      0xffffffffffffffffffffffffffffffffffffffff\n      mul\n      not\n      and\n      swap1\n      sstore\n      0x04\n      dup3\n      add\n      0x00\n      swap1\n      sstore\n      pop\n      pop\n        /* \"contracts/Fast/contract.sol\":4830:4836  Finder */\n      0x0a\n        /* \"contracts/Fast/contract.sol\":4830:4844  Finder[_token] */\n      0x00\n        /* \"contracts/Fast/contract.sol\":4837:4843  _token */\n      dup3\n        /* \"contracts/Fast/contract.sol\":4830:4844  Finder[_token] */\n      dup2\n      mstore\n      0x20\n      add\n      swap1\n      dup2\n      mstore\n      0x20\n      add\n      0x00\n      keccak256\n        /* \"contracts/Fast/contract.sol\":4830:4856  Finder[_token][msg.sender] */\n      0x00\n        /* \"contracts/Fast/contract.sol\":4845:4855  msg.sender */\n      caller\n        /* \"contracts/Fast/contract.sol\":4830:4856  Finder[_token][msg.sender] */\n      0xffffffffffffffffffffffffffffffffffffffff\n      and\n      0xffffffffffffffffffffffffffffffffffffffff\n      and\n      dup2\n      mstore\n      0x20\n      add\n      swap1\n      dup2\n      mstore\n      0x20\n      add\n      0x00\n      keccak256\n      pop\n        /* \"contracts/Fast/contract.sol\":4546:4863  function DeleteVRequest(uint _token) public {... */\n      pop\n      jump\t// out\n        /* \"contracts/Fast/contract.sol\":359:394  Counters.Counter public TotalVender */\n    tag_63:\n      0x01\n      dup1\n      0x00\n      add\n      sload\n      swap1\n      pop\n      dup2\n      jump\t// out\n        /* \"contracts/Fast/contract.sol\":1412:1475  mapping (uint => mapping(address => Comm)) public Communication */\n    tag_69:\n      mstore(0x20, 0x0b)\n      dup2\n      0x00\n      mstore\n      mstore(0x20, keccak256(0x00, 0x40))\n      dup1\n      0x00\n      mstore\n      keccak256(0x00, 0x40)\n      0x00\n      swap2\n      pop\n      swap2\n      pop\n      pop\n      dup1\n      0x00\n      add\n      0x00\n      swap1\n      sload\n      swap1\n      0x0100\n      exp\n      swap1\n      div\n      0xffffffffffffffffffffffffffffffffffffffff\n      and\n      swap1\n      dup1\n      0x01\n      add\n      sload\n      swap1\n      dup1\n      0x02\n      add\n      0x00\n      swap1\n      sload\n      swap1\n      0x0100\n      exp\n      swap1\n      div\n      0xff\n      and\n      swap1\n      pop\n      dup4\n      jump\t// out\n        /* \"contracts/Fast/contract.sol\":1244:1296  mapping (address => mapping(uint => bool)) public Ch */\n    tag_76:\n      mstore(0x20, 0x08)\n      dup2\n      0x00\n      mstore\n      mstore(0x20, keccak256(0x00, 0x40))\n      dup1\n      0x00\n      mstore\n      keccak256(0x00, 0x40)\n      0x00\n      swap2\n      pop\n      swap2\n      pop\n      swap1\n      sload\n      swap1\n      0x0100\n      exp\n      swap1\n      div\n      0xff\n      and\n      dup2\n      jump\t// out\n        /* \"contracts/Fast/contract.sol\":3009:3584  function vender(uint _token,uint _price,string memory _description,uint _deleveryTime) public {... */\n    tag_82:\n        /* \"contracts/Fast/contract.sol\":3122:3124  Ch */\n      0x08\n        /* \"contracts/Fast/contract.sol\":3122:3136  Ch[msg.sender] */\n      0x00\n        /* \"contracts/Fast/contract.sol\":3125:3135  msg.sender */\n      caller\n        /* \"contracts/Fast/contract.sol\":3122:3136  Ch[msg.sender] */\n      0xffffffffffffffffffffffffffffffffffffffff\n      and\n      0xffffffffffffffffffffffffffffffffffffffff\n      and\n      dup2\n      mstore\n      0x20\n      add\n      swap1\n      dup2\n      mstore\n      0x20\n      add\n      0x00\n      keccak256\n        /* \"contracts/Fast/contract.sol\":3122:3144  Ch[msg.sender][_token] */\n      0x00\n        /* \"contracts/Fast/contract.sol\":3137:3143  _token */\n      dup6\n        /* \"contracts/Fast/contract.sol\":3122:3144  Ch[msg.sender][_token] */\n      dup2\n      mstore\n      0x20\n      add\n      swap1\n      dup2\n      mstore\n      0x20\n      add\n      0x00\n      keccak256\n      0x00\n      swap1\n      sload\n      swap1\n      0x0100\n      exp\n      swap1\n      div\n      0xff\n      and\n        /* \"contracts/Fast/contract.sol\":3121:3144  !Ch[msg.sender][_token] */\n      iszero\n        /* \"contracts/Fast/contract.sol\":3113:3182  require(!Ch[msg.sender][_token],\"You Already Apply for this Request\") */\n      tag_197\n      jumpi\n      mload(0x40)\n      0x08c379a000000000000000000000000000000000000000000000000000000000\n      dup2\n      mstore\n      0x04\n      add\n      tag_198\n      swap1\n      tag_199\n      jump\t// in\n    tag_198:\n      mload(0x40)\n      dup1\n      swap2\n      sub\n      swap1\n      revert\n    tag_197:\n        /* \"contracts/Fast/contract.sol\":3223:3233  msg.sender */\n      caller\n        /* \"contracts/Fast/contract.sol\":3200:3233  Total[_token].owner != msg.sender */\n      0xffffffffffffffffffffffffffffffffffffffff\n      and\n        /* \"contracts/Fast/contract.sol\":3200:3205  Total */\n      0x06\n        /* \"contracts/Fast/contract.sol\":3200:3213  Total[_token] */\n      0x00\n        /* \"contracts/Fast/contract.sol\":3206:3212  _token */\n      dup7\n        /* \"contracts/Fast/contract.sol\":3200:3213  Total[_token] */\n      dup2\n      mstore\n      0x20\n      add\n      swap1\n      dup2\n      mstore\n      0x20\n      add\n      0x00\n      keccak256\n        /* \"contracts/Fast/contract.sol\":3200:3219  Total[_token].owner */\n      0x08\n      add\n      0x00\n      swap1\n      sload\n      swap1\n      0x0100\n      exp\n      swap1\n      div\n      0xffffffffffffffffffffffffffffffffffffffff\n      and\n        /* \"contracts/Fast/contract.sol\":3200:3233  Total[_token].owner != msg.sender */\n      0xffffffffffffffffffffffffffffffffffffffff\n      and\n      eq\n      iszero\n        /* \"contracts/Fast/contract.sol\":3192:3265  require(Total[_token].owner != msg.sender,\"You are Owner of this Tender\") */\n      tag_200\n      jumpi\n      mload(0x40)\n      0x08c379a000000000000000000000000000000000000000000000000000000000\n      dup2\n      mstore\n      0x04\n      add\n      tag_201\n      swap1\n      tag_202\n      jump\t// in\n    tag_201:\n      mload(0x40)\n      dup1\n      swap2\n      sub\n      swap1\n      revert\n    tag_200:\n        /* \"contracts/Fast/contract.sol\":3275:3298  TotalVender.increment() */\n      tag_203\n        /* \"contracts/Fast/contract.sol\":3275:3286  TotalVender */\n      0x01\n        /* \"contracts/Fast/contract.sol\":3275:3296  TotalVender.increment */\n      tag_178\n        /* \"contracts/Fast/contract.sol\":3275:3298  TotalVender.increment() */\n      jump\t// in\n    tag_203:\n        /* \"contracts/Fast/contract.sol\":3333:3337  true */\n      0x01\n        /* \"contracts/Fast/contract.sol\":3308:3310  Ch */\n      0x08\n        /* \"contracts/Fast/contract.sol\":3308:3322  Ch[msg.sender] */\n      0x00\n        /* \"contracts/Fast/contract.sol\":3311:3321  msg.sender */\n      caller\n        /* \"contracts/Fast/contract.sol\":3308:3322  Ch[msg.sender] */\n      0xffffffffffffffffffffffffffffffffffffffff\n      and\n      0xffffffffffffffffffffffffffffffffffffffff\n      and\n      dup2\n      mstore\n      0x20\n      add\n      swap1\n      dup2\n      mstore\n      0x20\n      add\n      0x00\n      keccak256\n        /* \"contracts/Fast/contract.sol\":3308:3330  Ch[msg.sender][_token] */\n      0x00\n        /* \"contracts/Fast/contract.sol\":3323:3329  _token */\n      dup7\n        /* \"contracts/Fast/contract.sol\":3308:3330  Ch[msg.sender][_token] */\n      dup2\n      mstore\n      0x20\n      add\n      swap1\n      dup2\n      mstore\n      0x20\n      add\n      0x00\n      keccak256\n      0x00\n        /* \"contracts/Fast/contract.sol\":3308:3337  Ch[msg.sender][_token] = true */\n      0x0100\n      exp\n      dup2\n      sload\n      dup2\n      0xff\n      mul\n      not\n      and\n      swap1\n      dup4\n      iszero\n      iszero\n      mul\n      or\n      swap1\n      sstore\n      pop\n        /* \"contracts/Fast/contract.sol\":3369:3370  1 */\n      0x01\n        /* \"contracts/Fast/contract.sol\":3347:3357  SizeVender */\n      0x05\n        /* \"contracts/Fast/contract.sol\":3347:3365  SizeVender[_token] */\n      0x00\n        /* \"contracts/Fast/contract.sol\":3358:3364  _token */\n      dup7\n        /* \"contracts/Fast/contract.sol\":3347:3365  SizeVender[_token] */\n      dup2\n      mstore\n      0x20\n      add\n      swap1\n      dup2\n      mstore\n      0x20\n      add\n      0x00\n      keccak256\n      0x00\n        /* \"contracts/Fast/contract.sol\":3347:3370  SizeVender[_token] += 1 */\n      dup3\n      dup3\n      sload\n      tag_204\n      swap2\n      swap1\n      tag_167\n      jump\t// in\n    tag_204:\n      swap3\n      pop\n      pop\n      dup2\n      swap1\n      sstore\n      pop\n        /* \"contracts/Fast/contract.sol\":3405:3406  1 */\n      0x01\n        /* \"contracts/Fast/contract.sol\":3381:3389  Requests */\n      0x09\n        /* \"contracts/Fast/contract.sol\":3381:3401  Requests[msg.sender] */\n      0x00\n        /* \"contracts/Fast/contract.sol\":3390:3400  msg.sender */\n      caller\n        /* \"contracts/Fast/contract.sol\":3381:3401  Requests[msg.sender] */\n      0xffffffffffffffffffffffffffffffffffffffff\n      and\n      0xffffffffffffffffffffffffffffffffffffffff\n      and\n      dup2\n      mstore\n      0x20\n      add\n      swap1\n      dup2\n      mstore\n      0x20\n      add\n      0x00\n      keccak256\n      0x00\n        /* \"contracts/Fast/contract.sol\":3381:3406  Requests[msg.sender] += 1 */\n      dup3\n      dup3\n      sload\n      tag_205\n      swap2\n      swap1\n      tag_167\n      jump\t// in\n    tag_205:\n      swap3\n      pop\n      pop\n      dup2\n      swap1\n      sstore\n      pop\n        /* \"contracts/Fast/contract.sol\":3446:3467  TotalVender.current() */\n      tag_206\n        /* \"contracts/Fast/contract.sol\":3446:3457  TotalVender */\n      0x01\n        /* \"contracts/Fast/contract.sol\":3446:3465  TotalVender.current */\n      tag_181\n        /* \"contracts/Fast/contract.sol\":3446:3467  TotalVender.current() */\n      jump\t// in\n    tag_206:\n        /* \"contracts/Fast/contract.sol\":3417:3423  Finder */\n      0x0a\n        /* \"contracts/Fast/contract.sol\":3417:3431  Finder[_token] */\n      0x00\n        /* \"contracts/Fast/contract.sol\":3424:3430  _token */\n      dup7\n        /* \"contracts/Fast/contract.sol\":3417:3431  Finder[_token] */\n      dup2\n      mstore\n      0x20\n      add\n      swap1\n      dup2\n      mstore\n      0x20\n      add\n      0x00\n      keccak256\n        /* \"contracts/Fast/contract.sol\":3417:3443  Finder[_token][msg.sender] */\n      0x00\n        /* \"contracts/Fast/contract.sol\":3432:3442  msg.sender */\n      caller\n        /* \"contracts/Fast/contract.sol\":3417:3443  Finder[_token][msg.sender] */\n      0xffffffffffffffffffffffffffffffffffffffff\n      and\n      0xffffffffffffffffffffffffffffffffffffffff\n      and\n      dup2\n      mstore\n      0x20\n      add\n      swap1\n      dup2\n      mstore\n      0x20\n      add\n      0x00\n      keccak256\n        /* \"contracts/Fast/contract.sol\":3417:3467  Finder[_token][msg.sender] = TotalVender.current() */\n      dup2\n      swap1\n      sstore\n      pop\n        /* \"contracts/Fast/contract.sol\":3518:3577  Vender(_token,_price,_description,msg.sender,_deleveryTime) */\n      mload(0x40)\n      dup1\n      0xa0\n      add\n      0x40\n      mstore\n      dup1\n        /* \"contracts/Fast/contract.sol\":3525:3531  _token */\n      dup6\n        /* \"contracts/Fast/contract.sol\":3518:3577  Vender(_token,_price,_description,msg.sender,_deleveryTime) */\n      dup2\n      mstore\n      0x20\n      add\n        /* \"contracts/Fast/contract.sol\":3532:3538  _price */\n      dup5\n        /* \"contracts/Fast/contract.sol\":3518:3577  Vender(_token,_price,_description,msg.sender,_deleveryTime) */\n      dup2\n      mstore\n      0x20\n      add\n        /* \"contracts/Fast/contract.sol\":3539:3551  _description */\n      dup4\n        /* \"contracts/Fast/contract.sol\":3518:3577  Vender(_token,_price,_description,msg.sender,_deleveryTime) */\n      dup2\n      mstore\n      0x20\n      add\n        /* \"contracts/Fast/contract.sol\":3552:3562  msg.sender */\n      caller\n        /* \"contracts/Fast/contract.sol\":3518:3577  Vender(_token,_price,_description,msg.sender,_deleveryTime) */\n      0xffffffffffffffffffffffffffffffffffffffff\n      and\n      dup2\n      mstore\n      0x20\n      add\n        /* \"contracts/Fast/contract.sol\":3563:3576  _deleveryTime */\n      dup3\n        /* \"contracts/Fast/contract.sol\":3518:3577  Vender(_token,_price,_description,msg.sender,_deleveryTime) */\n      dup2\n      mstore\n      pop\n        /* \"contracts/Fast/contract.sol\":3477:3484  Venders */\n      0x07\n        /* \"contracts/Fast/contract.sol\":3477:3507  Venders[TotalVender.current()] */\n      0x00\n        /* \"contracts/Fast/contract.sol\":3485:3506  TotalVender.current() */\n      tag_207\n        /* \"contracts/Fast/contract.sol\":3485:3496  TotalVender */\n      0x01\n        /* \"contracts/Fast/contract.sol\":3485:3504  TotalVender.current */\n      tag_181\n        /* \"contracts/Fast/contract.sol\":3485:3506  TotalVender.current() */\n      jump\t// in\n    tag_207:\n        /* \"contracts/Fast/contract.sol\":3477:3507  Venders[TotalVender.current()] */\n      dup2\n      mstore\n      0x20\n      add\n      swap1\n      dup2\n      mstore\n      0x20\n      add\n      0x00\n      keccak256\n        /* \"contracts/Fast/contract.sol\":3477:3515  Venders[TotalVender.current()][_token] */\n      0x00\n        /* \"contracts/Fast/contract.sol\":3508:3514  _token */\n      dup7\n        /* \"contracts/Fast/contract.sol\":3477:3515  Venders[TotalVender.current()][_token] */\n      dup2\n      mstore\n      0x20\n      add\n      swap1\n      dup2\n      mstore\n      0x20\n      add\n      0x00\n      keccak256\n        /* \"contracts/Fast/contract.sol\":3477:3577  Venders[TotalVender.current()][_token] = Vender(_token,_price,_description,msg.sender,_deleveryTime) */\n      0x00\n      dup3\n      add\n      mload\n      dup2\n      0x00\n      add\n      sstore\n      0x20\n      dup3\n      add\n      mload\n      dup2\n      0x01\n      add\n      sstore\n      0x40\n      dup3\n      add\n      mload\n      dup2\n      0x02\n      add\n      swap1\n      dup1\n      mload\n      swap1\n      0x20\n      add\n      swap1\n      tag_208\n      swap3\n      swap2\n      swap1\n      tag_184\n      jump\t// in\n    tag_208:\n      pop\n      0x60\n      dup3\n      add\n      mload\n      dup2\n      0x03\n      add\n      exp(0x0100, 0x00)\n      dup2\n      sload\n      dup2\n      0xffffffffffffffffffffffffffffffffffffffff\n      mul\n      not\n      and\n      swap1\n      dup4\n      0xffffffffffffffffffffffffffffffffffffffff\n      and\n      mul\n      or\n      swap1\n      sstore\n      pop\n      0x80\n      dup3\n      add\n      mload\n      dup2\n      0x04\n      add\n      sstore\n      swap1\n      pop\n      pop\n        /* \"contracts/Fast/contract.sol\":3009:3584  function vender(uint _token,uint _price,string memory _description,uint _deleveryTime) public {... */\n      pop\n      pop\n      pop\n      pop\n      jump\t// out\n        /* \"contracts/Fast/contract.sol\":1137:1175  mapping (uint => Tender ) public Total */\n    tag_86:\n      mstore(0x20, 0x06)\n      dup1\n      0x00\n      mstore\n      keccak256(0x00, 0x40)\n      0x00\n      swap2\n      pop\n      swap1\n      pop\n      dup1\n      0x00\n      add\n      sload\n      swap1\n      dup1\n      0x01\n      add\n      dup1\n      sload\n      tag_209\n      swap1\n      tag_171\n      jump\t// in\n    tag_209:\n      dup1\n      0x1f\n      add\n      0x20\n      dup1\n      swap2\n      div\n      mul\n      0x20\n      add\n      mload(0x40)\n      swap1\n      dup2\n      add\n      0x40\n      mstore\n      dup1\n      swap3\n      swap2\n      swap1\n      dup2\n      dup2\n      mstore\n      0x20\n      add\n      dup3\n      dup1\n      sload\n      tag_210\n      swap1\n      tag_171\n      jump\t// in\n    tag_210:\n      dup1\n      iszero\n      tag_211\n      jumpi\n      dup1\n      0x1f\n      lt\n      tag_212\n      jumpi\n      0x0100\n      dup1\n      dup4\n      sload\n      div\n      mul\n      dup4\n      mstore\n      swap2\n      0x20\n      add\n      swap2\n      jump(tag_211)\n    tag_212:\n      dup3\n      add\n      swap2\n      swap1\n      0x00\n      mstore\n      keccak256(0x00, 0x20)\n      swap1\n    tag_213:\n      dup2\n      sload\n      dup2\n      mstore\n      swap1\n      0x01\n      add\n      swap1\n      0x20\n      add\n      dup1\n      dup4\n      gt\n      tag_213\n      jumpi\n      dup3\n      swap1\n      sub\n      0x1f\n      and\n      dup3\n      add\n      swap2\n    tag_211:\n      pop\n      pop\n      pop\n      pop\n      pop\n      swap1\n      dup1\n      0x02\n      add\n      sload\n      swap1\n      dup1\n      0x03\n      add\n      sload\n      swap1\n      dup1\n      0x04\n      add\n      sload\n      swap1\n      dup1\n      0x05\n      add\n      sload\n      swap1\n      dup1\n      0x06\n      add\n      dup1\n      sload\n      tag_214\n      swap1\n      tag_171\n      jump\t// in\n    tag_214:\n      dup1\n      0x1f\n      add\n      0x20\n      dup1\n      swap2\n      div\n      mul\n      0x20\n      add\n      mload(0x40)\n      swap1\n      dup2\n      add\n      0x40\n      mstore\n      dup1\n      swap3\n      swap2\n      swap1\n      dup2\n      dup2\n      mstore\n      0x20\n      add\n      dup3\n      dup1\n      sload\n      tag_215\n      swap1\n      tag_171\n      jump\t// in\n    tag_215:\n      dup1\n      iszero\n      tag_216\n      jumpi\n      dup1\n      0x1f\n      lt\n      tag_217\n      jumpi\n      0x0100\n      dup1\n      dup4\n      sload\n      div\n      mul\n      dup4\n      mstore\n      swap2\n      0x20\n      add\n      swap2\n      jump(tag_216)\n    tag_217:\n      dup3\n      add\n      swap2\n      swap1\n      0x00\n      mstore\n      keccak256(0x00, 0x20)\n      swap1\n    tag_218:\n      dup2\n      sload\n      dup2\n      mstore\n      swap1\n      0x01\n      add\n      swap1\n      0x20\n      add\n      dup1\n      dup4\n      gt\n      tag_218\n      jumpi\n      dup3\n      swap1\n      sub\n      0x1f\n      and\n      dup3\n      add\n      swap2\n    tag_216:\n      pop\n      pop\n      pop\n      pop\n      pop\n      swap1\n      dup1\n      0x07\n      add\n      dup1\n      sload\n      tag_219\n      swap1\n      tag_171\n      jump\t// in\n    tag_219:\n      dup1\n      0x1f\n      add\n      0x20\n      dup1\n      swap2\n      div\n      mul\n      0x20\n      add\n      mload(0x40)\n      swap1\n      dup2\n      add\n      0x40\n      mstore\n      dup1\n      swap3\n      swap2\n      swap1\n      dup2\n      dup2\n      mstore\n      0x20\n      add\n      dup3\n      dup1\n      sload\n      tag_220\n      swap1\n      tag_171\n      jump\t// in\n    tag_220:\n      dup1\n      iszero\n      tag_221\n      jumpi\n      dup1\n      0x1f\n      lt\n      tag_222\n      jumpi\n      0x0100\n      dup1\n      dup4\n      sload\n      div\n      mul\n      dup4\n      mstore\n      swap2\n      0x20\n      add\n      swap2\n      jump(tag_221)\n    tag_222:\n      dup3\n      add\n      swap2\n      swap1\n      0x00\n      mstore\n      keccak256(0x00, 0x20)\n      swap1\n    tag_223:\n      dup2\n      sload\n      dup2\n      mstore\n      swap1\n      0x01\n      add\n      swap1\n      0x20\n      add\n      dup1\n      dup4\n      gt\n      tag_223\n      jumpi\n      dup3\n      swap1\n      sub\n      0x1f\n      and\n      dup3\n      add\n      swap2\n    tag_221:\n      pop\n      pop\n      pop\n      pop\n      pop\n      swap1\n      dup1\n      0x08\n      add\n      0x00\n      swap1\n      sload\n      swap1\n      0x0100\n      exp\n      swap1\n      div\n      0xffffffffffffffffffffffffffffffffffffffff\n      and\n      swap1\n      pop\n      dup10\n      jump\t// out\n        /* \"contracts/Fast/contract.sol\":401:424  address public Contract */\n    tag_91:\n      0x02\n      0x00\n      swap1\n      sload\n      swap1\n      0x0100\n      exp\n      swap1\n      div\n      0xffffffffffffffffffffffffffffffffffffffff\n      and\n      dup2\n      jump\t// out\n        /* \"contracts/Fast/contract.sol\":1028:1085  mapping (address => mapping(uint => bool)) public Pending */\n    tag_97:\n      mstore(0x20, 0x04)\n      dup2\n      0x00\n      mstore\n      mstore(0x20, keccak256(0x00, 0x40))\n      dup1\n      0x00\n      mstore\n      keccak256(0x00, 0x40)\n      0x00\n      swap2\n      pop\n      swap2\n      pop\n      swap1\n      sload\n      swap1\n      0x0100\n      exp\n      swap1\n      div\n      0xff\n      and\n      dup2\n      jump\t// out\n        /* \"contracts/Fast/contract.sol\":3589:4020  function AllVender(uint _token) public view returns (Vender[] memory)  {... */\n    tag_102:\n        /* \"contracts/Fast/contract.sol\":3642:3657  Vender[] memory */\n      0x60\n        /* \"contracts/Fast/contract.sol\":3670:3697  Vender[] memory memoryArray */\n      0x00\n        /* \"contracts/Fast/contract.sol\":3713:3723  SizeVender */\n      0x05\n        /* \"contracts/Fast/contract.sol\":3713:3731  SizeVender[_token] */\n      0x00\n        /* \"contracts/Fast/contract.sol\":3724:3730  _token */\n      dup5\n        /* \"contracts/Fast/contract.sol\":3713:3731  SizeVender[_token] */\n      dup2\n      mstore\n      0x20\n      add\n      swap1\n      dup2\n      mstore\n      0x20\n      add\n      0x00\n      keccak256\n      sload\n        /* \"contracts/Fast/contract.sol\":3700:3732  new Vender[](SizeVender[_token]) */\n      0xffffffffffffffff\n      dup2\n      gt\n      iszero\n      tag_225\n      jumpi\n      tag_226\n      tag_227\n      jump\t// in\n    tag_226:\n    tag_225:\n      mload(0x40)\n      swap1\n      dup1\n      dup3\n      mstore\n      dup1\n      0x20\n      mul\n      0x20\n      add\n      dup3\n      add\n      0x40\n      mstore\n      dup1\n      iszero\n      tag_228\n      jumpi\n      dup2\n      0x20\n      add\n    tag_229:\n      tag_230\n      tag_231\n      jump\t// in\n    tag_230:\n      dup2\n      mstore\n      0x20\n      add\n      swap1\n      0x01\n      swap1\n      sub\n      swap1\n      dup2\n      tag_229\n      jumpi\n      swap1\n      pop\n    tag_228:\n      pop\n        /* \"contracts/Fast/contract.sol\":3670:3732  Vender[] memory memoryArray = new Vender[](SizeVender[_token]) */\n      swap1\n      pop\n        /* \"contracts/Fast/contract.sol\":3742:3754  uint counter */\n      0x00\n        /* \"contracts/Fast/contract.sol\":3770:3776  uint i */\n      dup1\n        /* \"contracts/Fast/contract.sol\":3779:3780  1 */\n      0x01\n        /* \"contracts/Fast/contract.sol\":3770:3780  uint i = 1 */\n      swap1\n      pop\n        /* \"contracts/Fast/contract.sol\":3766:3986  for(uint i = 1; i <= TotalVender.current(); i++) {... */\n    tag_232:\n        /* \"contracts/Fast/contract.sol\":3787:3808  TotalVender.current() */\n      tag_235\n        /* \"contracts/Fast/contract.sol\":3787:3798  TotalVender */\n      0x01\n        /* \"contracts/Fast/contract.sol\":3787:3806  TotalVender.current */\n      tag_181\n        /* \"contracts/Fast/contract.sol\":3787:3808  TotalVender.current() */\n      jump\t// in\n    tag_235:\n        /* \"contracts/Fast/contract.sol\":3782:3783  i */\n      dup2\n        /* \"contracts/Fast/contract.sol\":3782:3808  i <= TotalVender.current() */\n      gt\n        /* \"contracts/Fast/contract.sol\":3766:3986  for(uint i = 1; i <= TotalVender.current(); i++) {... */\n      tag_233\n      jumpi\n        /* \"contracts/Fast/contract.sol\":3842:3849  Venders */\n      0x07\n        /* \"contracts/Fast/contract.sol\":3842:3852  Venders[i] */\n      0x00\n        /* \"contracts/Fast/contract.sol\":3850:3851  i */\n      dup3\n        /* \"contracts/Fast/contract.sol\":3842:3852  Venders[i] */\n      dup2\n      mstore\n      0x20\n      add\n      swap1\n      dup2\n      mstore\n      0x20\n      add\n      0x00\n      keccak256\n        /* \"contracts/Fast/contract.sol\":3842:3860  Venders[i][_token] */\n      0x00\n        /* \"contracts/Fast/contract.sol\":3853:3859  _token */\n      dup7\n        /* \"contracts/Fast/contract.sol\":3842:3860  Venders[i][_token] */\n      dup2\n      mstore\n      0x20\n      add\n      swap1\n      dup2\n      mstore\n      0x20\n      add\n      0x00\n      keccak256\n        /* \"contracts/Fast/contract.sol\":3842:3866  Venders[i][_token].Token */\n      0x00\n      add\n      sload\n        /* \"contracts/Fast/contract.sol\":3832:3838  _token */\n      dup6\n        /* \"contracts/Fast/contract.sol\":3832:3866  _token == Venders[i][_token].Token */\n      eq\n        /* \"contracts/Fast/contract.sol\":3829:3968  if(_token == Venders[i][_token].Token){... */\n      iszero\n      tag_236\n      jumpi\n        /* \"contracts/Fast/contract.sol\":3908:3915  Venders */\n      0x07\n        /* \"contracts/Fast/contract.sol\":3908:3918  Venders[i] */\n      0x00\n        /* \"contracts/Fast/contract.sol\":3916:3917  i */\n      dup3\n        /* \"contracts/Fast/contract.sol\":3908:3918  Venders[i] */\n      dup2\n      mstore\n      0x20\n      add\n      swap1\n      dup2\n      mstore\n      0x20\n      add\n      0x00\n      keccak256\n        /* \"contracts/Fast/contract.sol\":3908:3926  Venders[i][_token] */\n      0x00\n        /* \"contracts/Fast/contract.sol\":3919:3925  _token */\n      dup7\n        /* \"contracts/Fast/contract.sol\":3908:3926  Venders[i][_token] */\n      dup2\n      mstore\n      0x20\n      add\n      swap1\n      dup2\n      mstore\n      0x20\n      add\n      0x00\n      keccak256\n        /* \"contracts/Fast/contract.sol\":3885:3926  memoryArray[counter] = Venders[i][_token] */\n      mload(0x40)\n      dup1\n      0xa0\n      add\n      0x40\n      mstore\n      swap1\n      dup2\n      0x00\n      dup3\n      add\n      sload\n      dup2\n      mstore\n      0x20\n      add\n      0x01\n      dup3\n      add\n      sload\n      dup2\n      mstore\n      0x20\n      add\n      0x02\n      dup3\n      add\n      dup1\n      sload\n      tag_237\n      swap1\n      tag_171\n      jump\t// in\n    tag_237:\n      dup1\n      0x1f\n      add\n      0x20\n      dup1\n      swap2\n      div\n      mul\n      0x20\n      add\n      mload(0x40)\n      swap1\n      dup2\n      add\n      0x40\n      mstore\n      dup1\n      swap3\n      swap2\n      swap1\n      dup2\n      dup2\n      mstore\n      0x20\n      add\n      dup3\n      dup1\n      sload\n      tag_238\n      swap1\n      tag_171\n      jump\t// in\n    tag_238:\n      dup1\n      iszero\n      tag_239\n      jumpi\n      dup1\n      0x1f\n      lt\n      tag_240\n      jumpi\n      0x0100\n      dup1\n      dup4\n      sload\n      div\n      mul\n      dup4\n      mstore\n      swap2\n      0x20\n      add\n      swap2\n      jump(tag_239)\n    tag_240:\n      dup3\n      add\n      swap2\n      swap1\n      0x00\n      mstore\n      keccak256(0x00, 0x20)\n      swap1\n    tag_241:\n      dup2\n      sload\n      dup2\n      mstore\n      swap1\n      0x01\n      add\n      swap1\n      0x20\n      add\n      dup1\n      dup4\n      gt\n      tag_241\n      jumpi\n      dup3\n      swap1\n      sub\n      0x1f\n      and\n      dup3\n      add\n      swap2\n    tag_239:\n      pop\n      pop\n      pop\n      pop\n      pop\n      dup2\n      mstore\n      0x20\n      add\n      0x03\n      dup3\n      add\n      0x00\n      swap1\n      sload\n      swap1\n      0x0100\n      exp\n      swap1\n      div\n      0xffffffffffffffffffffffffffffffffffffffff\n      and\n      0xffffffffffffffffffffffffffffffffffffffff\n      and\n      0xffffffffffffffffffffffffffffffffffffffff\n      and\n      dup2\n      mstore\n      0x20\n      add\n      0x04\n      dup3\n      add\n      sload\n      dup2\n      mstore\n      pop\n      pop\n        /* \"contracts/Fast/contract.sol\":3885:3896  memoryArray */\n      dup4\n        /* \"contracts/Fast/contract.sol\":3897:3904  counter */\n      dup4\n        /* \"contracts/Fast/contract.sol\":3885:3905  memoryArray[counter] */\n      dup2\n      mload\n      dup2\n      lt\n      tag_242\n      jumpi\n      tag_243\n      tag_244\n      jump\t// in\n    tag_243:\n    tag_242:\n      0x20\n      mul\n      0x20\n      add\n      add\n        /* \"contracts/Fast/contract.sol\":3885:3926  memoryArray[counter] = Venders[i][_token] */\n      dup2\n      swap1\n      mstore\n      pop\n        /* \"contracts/Fast/contract.sol\":3944:3953  counter++ */\n      dup2\n      dup1\n      tag_245\n      swap1\n      tag_246\n      jump\t// in\n    tag_245:\n      swap3\n      pop\n      pop\n        /* \"contracts/Fast/contract.sol\":3829:3968  if(_token == Venders[i][_token].Token){... */\n    tag_236:\n        /* \"contracts/Fast/contract.sol\":3810:3813  i++ */\n      dup1\n      dup1\n      tag_247\n      swap1\n      tag_246\n      jump\t// in\n    tag_247:\n      swap2\n      pop\n      pop\n        /* \"contracts/Fast/contract.sol\":3766:3986  for(uint i = 1; i <= TotalVender.current(); i++) {... */\n      jump(tag_232)\n    tag_233:\n      pop\n        /* \"contracts/Fast/contract.sol\":4002:4013  memoryArray */\n      dup2\n        /* \"contracts/Fast/contract.sol\":3995:4013  return memoryArray */\n      swap3\n      pop\n      pop\n      pop\n        /* \"contracts/Fast/contract.sol\":3589:4020  function AllVender(uint _token) public view returns (Vender[] memory)  {... */\n      swap2\n      swap1\n      pop\n      jump\t// out\n        /* \"contracts/Fast/contract.sol\":1563:1603  mapping (address => uint) public Ratting */\n    tag_108:\n      mstore(0x20, 0x0d)\n      dup1\n      0x00\n      mstore\n      keccak256(0x00, 0x40)\n      0x00\n      swap2\n      pop\n      swap1\n      pop\n      sload\n      dup2\n      jump\t// out\n        /* \"contracts/Fast/contract.sol\":1350:1406  mapping (uint => mapping(address => uint)) public Finder */\n    tag_113:\n      mstore(0x20, 0x0a)\n      dup2\n      0x00\n      mstore\n      mstore(0x20, keccak256(0x00, 0x40))\n      dup1\n      0x00\n      mstore\n      keccak256(0x00, 0x40)\n      0x00\n      swap2\n      pop\n      swap2\n      pop\n      pop\n      sload\n      dup2\n      jump\t// out\n        /* \"contracts/Fast/contract.sol\":5096:5341  function AcceptInvitation(uint _token,address _receiver,address _to,uint _price) public {... */\n    tag_119:\n        /* \"contracts/Fast/contract.sol\":5223:5250  Comm(_receiver,_price,true) */\n      mload(0x40)\n      dup1\n      0x60\n      add\n      0x40\n      mstore\n      dup1\n        /* \"contracts/Fast/contract.sol\":5228:5237  _receiver */\n      dup5\n        /* \"contracts/Fast/contract.sol\":5223:5250  Comm(_receiver,_price,true) */\n      0xffffffffffffffffffffffffffffffffffffffff\n      and\n      dup2\n      mstore\n      0x20\n      add\n        /* \"contracts/Fast/contract.sol\":5238:5244  _price */\n      dup3\n        /* \"contracts/Fast/contract.sol\":5223:5250  Comm(_receiver,_price,true) */\n      dup2\n      mstore\n      0x20\n      add\n        /* \"contracts/Fast/contract.sol\":5245:5249  true */\n      0x01\n        /* \"contracts/Fast/contract.sol\":5223:5250  Comm(_receiver,_price,true) */\n      iszero\n      iszero\n      dup2\n      mstore\n      pop\n        /* \"contracts/Fast/contract.sol\":5194:5207  Communication */\n      0x0b\n        /* \"contracts/Fast/contract.sol\":5194:5215  Communication[_token] */\n      0x00\n        /* \"contracts/Fast/contract.sol\":5208:5214  _token */\n      dup7\n        /* \"contracts/Fast/contract.sol\":5194:5215  Communication[_token] */\n      dup2\n      mstore\n      0x20\n      add\n      swap1\n      dup2\n      mstore\n      0x20\n      add\n      0x00\n      keccak256\n        /* \"contracts/Fast/contract.sol\":5194:5220  Communication[_token][_to] */\n      0x00\n        /* \"contracts/Fast/contract.sol\":5216:5219  _to */\n      dup5\n        /* \"contracts/Fast/contract.sol\":5194:5220  Communication[_token][_to] */\n      0xffffffffffffffffffffffffffffffffffffffff\n      and\n      0xffffffffffffffffffffffffffffffffffffffff\n      and\n      dup2\n      mstore\n      0x20\n      add\n      swap1\n      dup2\n      mstore\n      0x20\n      add\n      0x00\n      keccak256\n        /* \"contracts/Fast/contract.sol\":5194:5250  Communication[_token][_to] = Comm(_receiver,_price,true) */\n      0x00\n      dup3\n      add\n      mload\n      dup2\n      0x00\n      add\n      exp(0x0100, 0x00)\n      dup2\n      sload\n      dup2\n      0xffffffffffffffffffffffffffffffffffffffff\n      mul\n      not\n      and\n      swap1\n      dup4\n      0xffffffffffffffffffffffffffffffffffffffff\n      and\n      mul\n      or\n      swap1\n      sstore\n      pop\n      0x20\n      dup3\n      add\n      mload\n      dup2\n      0x01\n      add\n      sstore\n      0x40\n      dup3\n      add\n      mload\n      dup2\n      0x02\n      add\n      exp(0x0100, 0x00)\n      dup2\n      sload\n      dup2\n      0xff\n      mul\n      not\n      and\n      swap1\n      dup4\n      iszero\n      iszero\n      mul\n      or\n      swap1\n      sstore\n      pop\n      swap1\n      pop\n      pop\n        /* \"contracts/Fast/contract.sol\":5283:5287  true */\n      0x01\n        /* \"contracts/Fast/contract.sol\":5260:5267  Pending */\n      0x04\n        /* \"contracts/Fast/contract.sol\":5260:5272  Pending[_to] */\n      0x00\n        /* \"contracts/Fast/contract.sol\":5268:5271  _to */\n      dup5\n        /* \"contracts/Fast/contract.sol\":5260:5272  Pending[_to] */\n      0xffffffffffffffffffffffffffffffffffffffff\n      and\n      0xffffffffffffffffffffffffffffffffffffffff\n      and\n      dup2\n      mstore\n      0x20\n      add\n      swap1\n      dup2\n      mstore\n      0x20\n      add\n      0x00\n      keccak256\n        /* \"contracts/Fast/contract.sol\":5260:5280  Pending[_to][_token] */\n      0x00\n        /* \"contracts/Fast/contract.sol\":5273:5279  _token */\n      dup7\n        /* \"contracts/Fast/contract.sol\":5260:5280  Pending[_to][_token] */\n      dup2\n      mstore\n      0x20\n      add\n      swap1\n      dup2\n      mstore\n      0x20\n      add\n      0x00\n      keccak256\n      0x00\n        /* \"contracts/Fast/contract.sol\":5260:5287  Pending[_to][_token] = true */\n      0x0100\n      exp\n      dup2\n      sload\n      dup2\n      0xff\n      mul\n      not\n      and\n      swap1\n      dup4\n      iszero\n      iszero\n      mul\n      or\n      swap1\n      sstore\n      pop\n        /* \"contracts/Fast/contract.sol\":5330:5334  true */\n      0x01\n        /* \"contracts/Fast/contract.sol\":5297:5303  Invite */\n      0x0c\n        /* \"contracts/Fast/contract.sol\":5297:5308  Invite[_to] */\n      0x00\n        /* \"contracts/Fast/contract.sol\":5304:5307  _to */\n      dup5\n        /* \"contracts/Fast/contract.sol\":5297:5308  Invite[_to] */\n      0xffffffffffffffffffffffffffffffffffffffff\n      and\n      0xffffffffffffffffffffffffffffffffffffffff\n      and\n      dup2\n      mstore\n      0x20\n      add\n      swap1\n      dup2\n      mstore\n      0x20\n      add\n      0x00\n      keccak256\n        /* \"contracts/Fast/contract.sol\":5297:5316  Invite[_to][_token] */\n      0x00\n        /* \"contracts/Fast/contract.sol\":5309:5315  _token */\n      dup7\n        /* \"contracts/Fast/contract.sol\":5297:5316  Invite[_to][_token] */\n      dup2\n      mstore\n      0x20\n      add\n      swap1\n      dup2\n      mstore\n      0x20\n      add\n      0x00\n      keccak256\n        /* \"contracts/Fast/contract.sol\":5297:5327  Invite[_to][_token][_receiver] */\n      0x00\n        /* \"contracts/Fast/contract.sol\":5317:5326  _receiver */\n      dup6\n        /* \"contracts/Fast/contract.sol\":5297:5327  Invite[_to][_token][_receiver] */\n      0xffffffffffffffffffffffffffffffffffffffff\n      and\n      0xffffffffffffffffffffffffffffffffffffffff\n      and\n      dup2\n      mstore\n      0x20\n      add\n      swap1\n      dup2\n      mstore\n      0x20\n      add\n      0x00\n      keccak256\n      0x00\n        /* \"contracts/Fast/contract.sol\":5297:5334  Invite[_to][_token][_receiver] = true */\n      0x0100\n      exp\n      dup2\n      sload\n      dup2\n      0xff\n      mul\n      not\n      and\n      swap1\n      dup4\n      iszero\n      iszero\n      mul\n      or\n      swap1\n      sstore\n      pop\n        /* \"contracts/Fast/contract.sol\":5096:5341  function AcceptInvitation(uint _token,address _receiver,address _to,uint _price) public {... */\n      pop\n      pop\n      pop\n      pop\n      jump\t// out\n        /* \"contracts/Fast/contract.sol\":1481:1557  mapping (address => mapping(uint => mapping(address => bool))) public Invite */\n    tag_124:\n      mstore(0x20, 0x0c)\n      dup3\n      0x00\n      mstore\n      mstore(0x20, keccak256(0x00, 0x40))\n      dup2\n      0x00\n      mstore\n      mstore(0x20, keccak256(0x00, 0x40))\n      dup1\n      0x00\n      mstore\n      keccak256(0x00, 0x40)\n      0x00\n      swap3\n      pop\n      swap3\n      pop\n      pop\n      swap1\n      sload\n      swap1\n      0x0100\n      exp\n      swap1\n      div\n      0xff\n      and\n      dup2\n      jump\t// out\n        /* \"contracts/Fast/contract.sol\":985:1022  mapping (address => uint) public Size */\n    tag_129:\n      mstore(0x20, 0x03)\n      dup1\n      0x00\n      mstore\n      keccak256(0x00, 0x40)\n      0x00\n      swap2\n      pop\n      swap1\n      pop\n      sload\n      dup2\n      jump\t// out\n        /* \"contracts/Fast/contract.sol\":2434:2769  function AllTender() public view returns (Tender[] memory)  {... */\n    tag_133:\n        /* \"contracts/Fast/contract.sol\":2476:2491  Tender[] memory */\n      0x60\n        /* \"contracts/Fast/contract.sol\":2504:2531  Tender[] memory memoryArray */\n      0x00\n        /* \"contracts/Fast/contract.sol\":2547:2568  TotalTender.current() */\n      tag_250\n        /* \"contracts/Fast/contract.sol\":2547:2558  TotalTender */\n      0x00\n        /* \"contracts/Fast/contract.sol\":2547:2566  TotalTender.current */\n      tag_181\n        /* \"contracts/Fast/contract.sol\":2547:2568  TotalTender.current() */\n      jump\t// in\n    tag_250:\n        /* \"contracts/Fast/contract.sol\":2534:2569  new Tender[](TotalTender.current()) */\n      0xffffffffffffffff\n      dup2\n      gt\n      iszero\n      tag_251\n      jumpi\n      tag_252\n      tag_227\n      jump\t// in\n    tag_252:\n    tag_251:\n      mload(0x40)\n      swap1\n      dup1\n      dup3\n      mstore\n      dup1\n      0x20\n      mul\n      0x20\n      add\n      dup3\n      add\n      0x40\n      mstore\n      dup1\n      iszero\n      tag_253\n      jumpi\n      dup2\n      0x20\n      add\n    tag_254:\n      tag_255\n      tag_256\n      jump\t// in\n    tag_255:\n      dup2\n      mstore\n      0x20\n      add\n      swap1\n      0x01\n      swap1\n      sub\n      swap1\n      dup2\n      tag_254\n      jumpi\n      swap1\n      pop\n    tag_253:\n      pop\n        /* \"contracts/Fast/contract.sol\":2504:2569  Tender[] memory memoryArray = new Tender[](TotalTender.current()) */\n      swap1\n      pop\n        /* \"contracts/Fast/contract.sol\":2579:2591  uint counter */\n      0x00\n        /* \"contracts/Fast/contract.sol\":2607:2613  uint i */\n      dup1\n        /* \"contracts/Fast/contract.sol\":2616:2617  1 */\n      0x01\n        /* \"contracts/Fast/contract.sol\":2607:2617  uint i = 1 */\n      swap1\n      pop\n        /* \"contracts/Fast/contract.sol\":2603:2735  for(uint i = 1; i <= TotalTender.current(); i++) {... */\n    tag_257:\n        /* \"contracts/Fast/contract.sol\":2624:2645  TotalTender.current() */\n      tag_260\n        /* \"contracts/Fast/contract.sol\":2624:2635  TotalTender */\n      0x00\n        /* \"contracts/Fast/contract.sol\":2624:2643  TotalTender.current */\n      tag_181\n        /* \"contracts/Fast/contract.sol\":2624:2645  TotalTender.current() */\n      jump\t// in\n    tag_260:\n        /* \"contracts/Fast/contract.sol\":2619:2620  i */\n      dup2\n        /* \"contracts/Fast/contract.sol\":2619:2645  i <= TotalTender.current() */\n      gt\n        /* \"contracts/Fast/contract.sol\":2603:2735  for(uint i = 1; i <= TotalTender.current(); i++) {... */\n      tag_258\n      jumpi\n        /* \"contracts/Fast/contract.sol\":2689:2694  Total */\n      0x06\n        /* \"contracts/Fast/contract.sol\":2689:2697  Total[i] */\n      0x00\n        /* \"contracts/Fast/contract.sol\":2695:2696  i */\n      dup3\n        /* \"contracts/Fast/contract.sol\":2689:2697  Total[i] */\n      dup2\n      mstore\n      0x20\n      add\n      swap1\n      dup2\n      mstore\n      0x20\n      add\n      0x00\n      keccak256\n        /* \"contracts/Fast/contract.sol\":2666:2697  memoryArray[counter] = Total[i] */\n      mload(0x40)\n      dup1\n      0x0120\n      add\n      0x40\n      mstore\n      swap1\n      dup2\n      0x00\n      dup3\n      add\n      sload\n      dup2\n      mstore\n      0x20\n      add\n      0x01\n      dup3\n      add\n      dup1\n      sload\n      tag_261\n      swap1\n      tag_171\n      jump\t// in\n    tag_261:\n      dup1\n      0x1f\n      add\n      0x20\n      dup1\n      swap2\n      div\n      mul\n      0x20\n      add\n      mload(0x40)\n      swap1\n      dup2\n      add\n      0x40\n      mstore\n      dup1\n      swap3\n      swap2\n      swap1\n      dup2\n      dup2\n      mstore\n      0x20\n      add\n      dup3\n      dup1\n      sload\n      tag_262\n      swap1\n      tag_171\n      jump\t// in\n    tag_262:\n      dup1\n      iszero\n      tag_263\n      jumpi\n      dup1\n      0x1f\n      lt\n      tag_264\n      jumpi\n      0x0100\n      dup1\n      dup4\n      sload\n      div\n      mul\n      dup4\n      mstore\n      swap2\n      0x20\n      add\n      swap2\n      jump(tag_263)\n    tag_264:\n      dup3\n      add\n      swap2\n      swap1\n      0x00\n      mstore\n      keccak256(0x00, 0x20)\n      swap1\n    tag_265:\n      dup2\n      sload\n      dup2\n      mstore\n      swap1\n      0x01\n      add\n      swap1\n      0x20\n      add\n      dup1\n      dup4\n      gt\n      tag_265\n      jumpi\n      dup3\n      swap1\n      sub\n      0x1f\n      and\n      dup3\n      add\n      swap2\n    tag_263:\n      pop\n      pop\n      pop\n      pop\n      pop\n      dup2\n      mstore\n      0x20\n      add\n      0x02\n      dup3\n      add\n      sload\n      dup2\n      mstore\n      0x20\n      add\n      0x03\n      dup3\n      add\n      sload\n      dup2\n      mstore\n      0x20\n      add\n      0x04\n      dup3\n      add\n      sload\n      dup2\n      mstore\n      0x20\n      add\n      0x05\n      dup3\n      add\n      sload\n      dup2\n      mstore\n      0x20\n      add\n      0x06\n      dup3\n      add\n      dup1\n      sload\n      tag_266\n      swap1\n      tag_171\n      jump\t// in\n    tag_266:\n      dup1\n      0x1f\n      add\n      0x20\n      dup1\n      swap2\n      div\n      mul\n      0x20\n      add\n      mload(0x40)\n      swap1\n      dup2\n      add\n      0x40\n      mstore\n      dup1\n      swap3\n      swap2\n      swap1\n      dup2\n      dup2\n      mstore\n      0x20\n      add\n      dup3\n      dup1\n      sload\n      tag_267\n      swap1\n      tag_171\n      jump\t// in\n    tag_267:\n      dup1\n      iszero\n      tag_268\n      jumpi\n      dup1\n      0x1f\n      lt\n      tag_269\n      jumpi\n      0x0100\n      dup1\n      dup4\n      sload\n      div\n      mul\n      dup4\n      mstore\n      swap2\n      0x20\n      add\n      swap2\n      jump(tag_268)\n    tag_269:\n      dup3\n      add\n      swap2\n      swap1\n      0x00\n      mstore\n      keccak256(0x00, 0x20)\n      swap1\n    tag_270:\n      dup2\n      sload\n      dup2\n      mstore\n      swap1\n      0x01\n      add\n      swap1\n      0x20\n      add\n      dup1\n      dup4\n      gt\n      tag_270\n      jumpi\n      dup3\n      swap1\n      sub\n      0x1f\n      and\n      dup3\n      add\n      swap2\n    tag_268:\n      pop\n      pop\n      pop\n      pop\n      pop\n      dup2\n      mstore\n      0x20\n      add\n      0x07\n      dup3\n      add\n      dup1\n      sload\n      tag_271\n      swap1\n      tag_171\n      jump\t// in\n    tag_271:\n      dup1\n      0x1f\n      add\n      0x20\n      dup1\n      swap2\n      div\n      mul\n      0x20\n      add\n      mload(0x40)\n      swap1\n      dup2\n      add\n      0x40\n      mstore\n      dup1\n      swap3\n      swap2\n      swap1\n      dup2\n      dup2\n      mstore\n      0x20\n      add\n      dup3\n      dup1\n      sload\n      tag_272\n      swap1\n      tag_171\n      jump\t// in\n    tag_272:\n      dup1\n      iszero\n      tag_273\n      jumpi\n      dup1\n      0x1f\n      lt\n      tag_274\n      jumpi\n      0x0100\n      dup1\n      dup4\n      sload\n      div\n      mul\n      dup4\n      mstore\n      swap2\n      0x20\n      add\n      swap2\n      jump(tag_273)\n    tag_274:\n      dup3\n      add\n      swap2\n      swap1\n      0x00\n      mstore\n      keccak256(0x00, 0x20)\n      swap1\n    tag_275:\n      dup2\n      sload\n      dup2\n      mstore\n      swap1\n      0x01\n      add\n      swap1\n      0x20\n      add\n      dup1\n      dup4\n      gt\n      tag_275\n      jumpi\n      dup3\n      swap1\n      sub\n      0x1f\n      and\n      dup3\n      add\n      swap2\n    tag_273:\n      pop\n      pop\n      pop\n      pop\n      pop\n      dup2\n      mstore\n      0x20\n      add\n      0x08\n      dup3\n      add\n      0x00\n      swap1\n      sload\n      swap1\n      0x0100\n      exp\n      swap1\n      div\n      0xffffffffffffffffffffffffffffffffffffffff\n      and\n      0xffffffffffffffffffffffffffffffffffffffff\n      and\n      0xffffffffffffffffffffffffffffffffffffffff\n      and\n      dup2\n      mstore\n      pop\n      pop\n        /* \"contracts/Fast/contract.sol\":2666:2677  memoryArray */\n      dup4\n        /* \"contracts/Fast/contract.sol\":2678:2685  counter */\n      dup4\n        /* \"contracts/Fast/contract.sol\":2666:2686  memoryArray[counter] */\n      dup2\n      mload\n      dup2\n      lt\n      tag_276\n      jumpi\n      tag_277\n      tag_244\n      jump\t// in\n    tag_277:\n    tag_276:\n      0x20\n      mul\n      0x20\n      add\n      add\n        /* \"contracts/Fast/contract.sol\":2666:2697  memoryArray[counter] = Total[i] */\n      dup2\n      swap1\n      mstore\n      pop\n        /* \"contracts/Fast/contract.sol\":2711:2720  counter++ */\n      dup2\n      dup1\n      tag_278\n      swap1\n      tag_246\n      jump\t// in\n    tag_278:\n      swap3\n      pop\n      pop\n        /* \"contracts/Fast/contract.sol\":2647:2650  i++ */\n      dup1\n      dup1\n      tag_279\n      swap1\n      tag_246\n      jump\t// in\n    tag_279:\n      swap2\n      pop\n      pop\n        /* \"contracts/Fast/contract.sol\":2603:2735  for(uint i = 1; i <= TotalTender.current(); i++) {... */\n      jump(tag_257)\n    tag_258:\n      pop\n        /* \"contracts/Fast/contract.sol\":2751:2762  memoryArray */\n      dup2\n        /* \"contracts/Fast/contract.sol\":2744:2762  return memoryArray */\n      swap3\n      pop\n      pop\n      pop\n        /* \"contracts/Fast/contract.sol\":2434:2769  function AllTender() public view returns (Tender[] memory)  {... */\n      swap1\n      jump\t// out\n        /* \"contracts/Fast/contract.sol\":4868:5091  function UpdateRequest(uint _token,uint _price,string memory _description,uint _deleveryTime) public {... */\n    tag_139:\n        /* \"contracts/Fast/contract.sol\":5025:5084  Vender(_token,_price,_description,msg.sender,_deleveryTime) */\n      mload(0x40)\n      dup1\n      0xa0\n      add\n      0x40\n      mstore\n      dup1\n        /* \"contracts/Fast/contract.sol\":5032:5038  _token */\n      dup6\n        /* \"contracts/Fast/contract.sol\":5025:5084  Vender(_token,_price,_description,msg.sender,_deleveryTime) */\n      dup2\n      mstore\n      0x20\n      add\n        /* \"contracts/Fast/contract.sol\":5039:5045  _price */\n      dup5\n        /* \"contracts/Fast/contract.sol\":5025:5084  Vender(_token,_price,_description,msg.sender,_deleveryTime) */\n      dup2\n      mstore\n      0x20\n      add\n        /* \"contracts/Fast/contract.sol\":5046:5058  _description */\n      dup4\n        /* \"contracts/Fast/contract.sol\":5025:5084  Vender(_token,_price,_description,msg.sender,_deleveryTime) */\n      dup2\n      mstore\n      0x20\n      add\n        /* \"contracts/Fast/contract.sol\":5059:5069  msg.sender */\n      caller\n        /* \"contracts/Fast/contract.sol\":5025:5084  Vender(_token,_price,_description,msg.sender,_deleveryTime) */\n      0xffffffffffffffffffffffffffffffffffffffff\n      and\n      dup2\n      mstore\n      0x20\n      add\n        /* \"contracts/Fast/contract.sol\":5070:5083  _deleveryTime */\n      dup3\n        /* \"contracts/Fast/contract.sol\":5025:5084  Vender(_token,_price,_description,msg.sender,_deleveryTime) */\n      dup2\n      mstore\n      pop\n        /* \"contracts/Fast/contract.sol\":4979:4986  Venders */\n      0x07\n        /* \"contracts/Fast/contract.sol\":4979:5014  Venders[Finder[_token][msg.sender]] */\n      0x00\n        /* \"contracts/Fast/contract.sol\":4987:4993  Finder */\n      0x0a\n        /* \"contracts/Fast/contract.sol\":4987:5001  Finder[_token] */\n      0x00\n        /* \"contracts/Fast/contract.sol\":4994:5000  _token */\n      dup9\n        /* \"contracts/Fast/contract.sol\":4987:5001  Finder[_token] */\n      dup2\n      mstore\n      0x20\n      add\n      swap1\n      dup2\n      mstore\n      0x20\n      add\n      0x00\n      keccak256\n        /* \"contracts/Fast/contract.sol\":4987:5013  Finder[_token][msg.sender] */\n      0x00\n        /* \"contracts/Fast/contract.sol\":5002:5012  msg.sender */\n      caller\n        /* \"contracts/Fast/contract.sol\":4987:5013  Finder[_token][msg.sender] */\n      0xffffffffffffffffffffffffffffffffffffffff\n      and\n      0xffffffffffffffffffffffffffffffffffffffff\n      and\n      dup2\n      mstore\n      0x20\n      add\n      swap1\n      dup2\n      mstore\n      0x20\n      add\n      0x00\n      keccak256\n      sload\n        /* \"contracts/Fast/contract.sol\":4979:5014  Venders[Finder[_token][msg.sender]] */\n      dup2\n      mstore\n      0x20\n      add\n      swap1\n      dup2\n      mstore\n      0x20\n      add\n      0x00\n      keccak256\n        /* \"contracts/Fast/contract.sol\":4979:5022  Venders[Finder[_token][msg.sender]][_token] */\n      0x00\n        /* \"contracts/Fast/contract.sol\":5015:5021  _token */\n      dup7\n        /* \"contracts/Fast/contract.sol\":4979:5022  Venders[Finder[_token][msg.sender]][_token] */\n      dup2\n      mstore\n      0x20\n      add\n      swap1\n      dup2\n      mstore\n      0x20\n      add\n      0x00\n      keccak256\n        /* \"contracts/Fast/contract.sol\":4979:5084  Venders[Finder[_token][msg.sender]][_token] = Vender(_token,_price,_description,msg.sender,_deleveryTime) */\n      0x00\n      dup3\n      add\n      mload\n      dup2\n      0x00\n      add\n      sstore\n      0x20\n      dup3\n      add\n      mload\n      dup2\n      0x01\n      add\n      sstore\n      0x40\n      dup3\n      add\n      mload\n      dup2\n      0x02\n      add\n      swap1\n      dup1\n      mload\n      swap1\n      0x20\n      add\n      swap1\n      tag_281\n      swap3\n      swap2\n      swap1\n      tag_184\n      jump\t// in\n    tag_281:\n      pop\n      0x60\n      dup3\n      add\n      mload\n      dup2\n      0x03\n      add\n      exp(0x0100, 0x00)\n      dup2\n      sload\n      dup2\n      0xffffffffffffffffffffffffffffffffffffffff\n      mul\n      not\n      and\n      swap1\n      dup4\n      0xffffffffffffffffffffffffffffffffffffffff\n      and\n      mul\n      or\n      swap1\n      sstore\n      pop\n      0x80\n      dup3\n      add\n      mload\n      dup2\n      0x04\n      add\n      sstore\n      swap1\n      pop\n      pop\n        /* \"contracts/Fast/contract.sol\":4868:5091  function UpdateRequest(uint _token,uint _price,string memory _description,uint _deleveryTime) public {... */\n      pop\n      pop\n      pop\n      pop\n      jump\t// out\n        /* \"contracts/Fast/contract.sol\":4025:4541  function getVender(address _address) public view returns (Vender[] memory)  {... */\n    tag_143:\n        /* \"contracts/Fast/contract.sol\":4083:4098  Vender[] memory */\n      0x60\n        /* \"contracts/Fast/contract.sol\":4111:4138  Vender[] memory memoryArray */\n      0x00\n        /* \"contracts/Fast/contract.sol\":4154:4162  Requests */\n      0x09\n        /* \"contracts/Fast/contract.sol\":4154:4172  Requests[_address] */\n      0x00\n        /* \"contracts/Fast/contract.sol\":4163:4171  _address */\n      dup5\n        /* \"contracts/Fast/contract.sol\":4154:4172  Requests[_address] */\n      0xffffffffffffffffffffffffffffffffffffffff\n      and\n      0xffffffffffffffffffffffffffffffffffffffff\n      and\n      dup2\n      mstore\n      0x20\n      add\n      swap1\n      dup2\n      mstore\n      0x20\n      add\n      0x00\n      keccak256\n      sload\n        /* \"contracts/Fast/contract.sol\":4141:4173  new Vender[](Requests[_address]) */\n      0xffffffffffffffff\n      dup2\n      gt\n      iszero\n      tag_283\n      jumpi\n      tag_284\n      tag_227\n      jump\t// in\n    tag_284:\n    tag_283:\n      mload(0x40)\n      swap1\n      dup1\n      dup3\n      mstore\n      dup1\n      0x20\n      mul\n      0x20\n      add\n      dup3\n      add\n      0x40\n      mstore\n      dup1\n      iszero\n      tag_285\n      jumpi\n      dup2\n      0x20\n      add\n    tag_286:\n      tag_287\n      tag_231\n      jump\t// in\n    tag_287:\n      dup2\n      mstore\n      0x20\n      add\n      swap1\n      0x01\n      swap1\n      sub\n      swap1\n      dup2\n      tag_286\n      jumpi\n      swap1\n      pop\n    tag_285:\n      pop\n        /* \"contracts/Fast/contract.sol\":4111:4173  Vender[] memory memoryArray = new Vender[](Requests[_address]) */\n      swap1\n      pop\n        /* \"contracts/Fast/contract.sol\":4183:4195  uint counter */\n      0x00\n        /* \"contracts/Fast/contract.sol\":4211:4217  uint i */\n      dup1\n        /* \"contracts/Fast/contract.sol\":4220:4221  1 */\n      0x01\n        /* \"contracts/Fast/contract.sol\":4211:4221  uint i = 1 */\n      swap1\n      pop\n        /* \"contracts/Fast/contract.sol\":4207:4507  for(uint i = 1; i <=   TotalTender.current(); i++) {... */\n    tag_288:\n        /* \"contracts/Fast/contract.sol\":4230:4251  TotalTender.current() */\n      tag_291\n        /* \"contracts/Fast/contract.sol\":4230:4241  TotalTender */\n      0x00\n        /* \"contracts/Fast/contract.sol\":4230:4249  TotalTender.current */\n      tag_181\n        /* \"contracts/Fast/contract.sol\":4230:4251  TotalTender.current() */\n      jump\t// in\n    tag_291:\n        /* \"contracts/Fast/contract.sol\":4223:4224  i */\n      dup2\n        /* \"contracts/Fast/contract.sol\":4223:4251  i <=   TotalTender.current() */\n      gt\n        /* \"contracts/Fast/contract.sol\":4207:4507  for(uint i = 1; i <=   TotalTender.current(); i++) {... */\n      tag_289\n      jumpi\n        /* \"contracts/Fast/contract.sol\":4276:4282  uint j */\n      0x00\n        /* \"contracts/Fast/contract.sol\":4285:4286  1 */\n      0x01\n        /* \"contracts/Fast/contract.sol\":4276:4286  uint j = 1 */\n      swap1\n      pop\n        /* \"contracts/Fast/contract.sol\":4272:4496  for(uint j = 1; j <= TotalVender.current(); j++){... */\n    tag_292:\n        /* \"contracts/Fast/contract.sol\":4293:4314  TotalVender.current() */\n      tag_295\n        /* \"contracts/Fast/contract.sol\":4293:4304  TotalVender */\n      0x01\n        /* \"contracts/Fast/contract.sol\":4293:4312  TotalVender.current */\n      tag_181\n        /* \"contracts/Fast/contract.sol\":4293:4314  TotalVender.current() */\n      jump\t// in\n    tag_295:\n        /* \"contracts/Fast/contract.sol\":4288:4289  j */\n      dup2\n        /* \"contracts/Fast/contract.sol\":4288:4314  j <= TotalVender.current() */\n      gt\n        /* \"contracts/Fast/contract.sol\":4272:4496  for(uint j = 1; j <= TotalVender.current(); j++){... */\n      tag_293\n      jumpi\n        /* \"contracts/Fast/contract.sol\":4353:4360  Venders */\n      0x07\n        /* \"contracts/Fast/contract.sol\":4353:4363  Venders[j] */\n      0x00\n        /* \"contracts/Fast/contract.sol\":4361:4362  j */\n      dup3\n        /* \"contracts/Fast/contract.sol\":4353:4363  Venders[j] */\n      dup2\n      mstore\n      0x20\n      add\n      swap1\n      dup2\n      mstore\n      0x20\n      add\n      0x00\n      keccak256\n        /* \"contracts/Fast/contract.sol\":4353:4366  Venders[j][i] */\n      0x00\n        /* \"contracts/Fast/contract.sol\":4364:4365  i */\n      dup4\n        /* \"contracts/Fast/contract.sol\":4353:4366  Venders[j][i] */\n      dup2\n      mstore\n      0x20\n      add\n      swap1\n      dup2\n      mstore\n      0x20\n      add\n      0x00\n      keccak256\n        /* \"contracts/Fast/contract.sol\":4353:4372  Venders[j][i].owner */\n      0x03\n      add\n      0x00\n      swap1\n      sload\n      swap1\n      0x0100\n      exp\n      swap1\n      div\n      0xffffffffffffffffffffffffffffffffffffffff\n      and\n        /* \"contracts/Fast/contract.sol\":4341:4372  _address == Venders[j][i].owner */\n      0xffffffffffffffffffffffffffffffffffffffff\n      and\n        /* \"contracts/Fast/contract.sol\":4341:4349  _address */\n      dup7\n        /* \"contracts/Fast/contract.sol\":4341:4372  _address == Venders[j][i].owner */\n      0xffffffffffffffffffffffffffffffffffffffff\n      and\n      eq\n        /* \"contracts/Fast/contract.sol\":4338:4481  if(_address == Venders[j][i].owner){... */\n      iszero\n      tag_296\n      jumpi\n        /* \"contracts/Fast/contract.sol\":4418:4425  Venders */\n      0x07\n        /* \"contracts/Fast/contract.sol\":4418:4428  Venders[j] */\n      0x00\n        /* \"contracts/Fast/contract.sol\":4426:4427  j */\n      dup3\n        /* \"contracts/Fast/contract.sol\":4418:4428  Venders[j] */\n      dup2\n      mstore\n      0x20\n      add\n      swap1\n      dup2\n      mstore\n      0x20\n      add\n      0x00\n      keccak256\n        /* \"contracts/Fast/contract.sol\":4418:4431  Venders[j][i] */\n      0x00\n        /* \"contracts/Fast/contract.sol\":4429:4430  i */\n      dup4\n        /* \"contracts/Fast/contract.sol\":4418:4431  Venders[j][i] */\n      dup2\n      mstore\n      0x20\n      add\n      swap1\n      dup2\n      mstore\n      0x20\n      add\n      0x00\n      keccak256\n        /* \"contracts/Fast/contract.sol\":4395:4431  memoryArray[counter] = Venders[j][i] */\n      mload(0x40)\n      dup1\n      0xa0\n      add\n      0x40\n      mstore\n      swap1\n      dup2\n      0x00\n      dup3\n      add\n      sload\n      dup2\n      mstore\n      0x20\n      add\n      0x01\n      dup3\n      add\n      sload\n      dup2\n      mstore\n      0x20\n      add\n      0x02\n      dup3\n      add\n      dup1\n      sload\n      tag_297\n      swap1\n      tag_171\n      jump\t// in\n    tag_297:\n      dup1\n      0x1f\n      add\n      0x20\n      dup1\n      swap2\n      div\n      mul\n      0x20\n      add\n      mload(0x40)\n      swap1\n      dup2\n      add\n      0x40\n      mstore\n      dup1\n      swap3\n      swap2\n      swap1\n      dup2\n      dup2\n      mstore\n      0x20\n      add\n      dup3\n      dup1\n      sload\n      tag_298\n      swap1\n      tag_171\n      jump\t// in\n    tag_298:\n      dup1\n      iszero\n      tag_299\n      jumpi\n      dup1\n      0x1f\n      lt\n      tag_300\n      jumpi\n      0x0100\n      dup1\n      dup4\n      sload\n      div\n      mul\n      dup4\n      mstore\n      swap2\n      0x20\n      add\n      swap2\n      jump(tag_299)\n    tag_300:\n      dup3\n      add\n      swap2\n      swap1\n      0x00\n      mstore\n      keccak256(0x00, 0x20)\n      swap1\n    tag_301:\n      dup2\n      sload\n      dup2\n      mstore\n      swap1\n      0x01\n      add\n      swap1\n      0x20\n      add\n      dup1\n      dup4\n      gt\n      tag_301\n      jumpi\n      dup3\n      swap1\n      sub\n      0x1f\n      and\n      dup3\n      add\n      swap2\n    tag_299:\n      pop\n      pop\n      pop\n      pop\n      pop\n      dup2\n      mstore\n      0x20\n      add\n      0x03\n      dup3\n      add\n      0x00\n      swap1\n      sload\n      swap1\n      0x0100\n      exp\n      swap1\n      div\n      0xffffffffffffffffffffffffffffffffffffffff\n      and\n      0xffffffffffffffffffffffffffffffffffffffff\n      and\n      0xffffffffffffffffffffffffffffffffffffffff\n      and\n      dup2\n      mstore\n      0x20\n      add\n      0x04\n      dup3\n      add\n      sload\n      dup2\n      mstore\n      pop\n      pop\n        /* \"contracts/Fast/contract.sol\":4395:4406  memoryArray */\n      dup5\n        /* \"contracts/Fast/contract.sol\":4407:4414  counter */\n      dup5\n        /* \"contracts/Fast/contract.sol\":4395:4415  memoryArray[counter] */\n      dup2\n      mload\n      dup2\n      lt\n      tag_302\n      jumpi\n      tag_303\n      tag_244\n      jump\t// in\n    tag_303:\n    tag_302:\n      0x20\n      mul\n      0x20\n      add\n      add\n        /* \"contracts/Fast/contract.sol\":4395:4431  memoryArray[counter] = Venders[j][i] */\n      dup2\n      swap1\n      mstore\n      pop\n        /* \"contracts/Fast/contract.sol\":4453:4462  counter++ */\n      dup3\n      dup1\n      tag_304\n      swap1\n      tag_246\n      jump\t// in\n    tag_304:\n      swap4\n      pop\n      pop\n        /* \"contracts/Fast/contract.sol\":4338:4481  if(_address == Venders[j][i].owner){... */\n    tag_296:\n        /* \"contracts/Fast/contract.sol\":4316:4319  j++ */\n      dup1\n      dup1\n      tag_305\n      swap1\n      tag_246\n      jump\t// in\n    tag_305:\n      swap2\n      pop\n      pop\n        /* \"contracts/Fast/contract.sol\":4272:4496  for(uint j = 1; j <= TotalVender.current(); j++){... */\n      jump(tag_292)\n    tag_293:\n      pop\n        /* \"contracts/Fast/contract.sol\":4253:4256  i++ */\n      dup1\n      dup1\n      tag_306\n      swap1\n      tag_246\n      jump\t// in\n    tag_306:\n      swap2\n      pop\n      pop\n        /* \"contracts/Fast/contract.sol\":4207:4507  for(uint i = 1; i <=   TotalTender.current(); i++) {... */\n      jump(tag_288)\n    tag_289:\n      pop\n        /* \"contracts/Fast/contract.sol\":4523:4534  memoryArray */\n      dup2\n        /* \"contracts/Fast/contract.sol\":4516:4534  return memoryArray */\n      swap3\n      pop\n      pop\n      pop\n        /* \"contracts/Fast/contract.sol\":4025:4541  function getVender(address _address) public view returns (Vender[] memory)  {... */\n      swap2\n      swap1\n      pop\n      jump\t// out\n        /* \"contracts/Fast/contract.sol\":2030:2429  function getTender(address _to) public view returns (Tender[] memory)  {... */\n    tag_148:\n        /* \"contracts/Fast/contract.sol\":2083:2098  Tender[] memory */\n      0x60\n        /* \"contracts/Fast/contract.sol\":2111:2138  Tender[] memory memoryArray */\n      0x00\n        /* \"contracts/Fast/contract.sol\":2154:2158  Size */\n      0x03\n        /* \"contracts/Fast/contract.sol\":2154:2163  Size[_to] */\n      0x00\n        /* \"contracts/Fast/contract.sol\":2159:2162  _to */\n      dup5\n        /* \"contracts/Fast/contract.sol\":2154:2163  Size[_to] */\n      0xffffffffffffffffffffffffffffffffffffffff\n      and\n      0xffffffffffffffffffffffffffffffffffffffff\n      and\n      dup2\n      mstore\n      0x20\n      add\n      swap1\n      dup2\n      mstore\n      0x20\n      add\n      0x00\n      keccak256\n      sload\n        /* \"contracts/Fast/contract.sol\":2141:2164  new Tender[](Size[_to]) */\n      0xffffffffffffffff\n      dup2\n      gt\n      iszero\n      tag_308\n      jumpi\n      tag_309\n      tag_227\n      jump\t// in\n    tag_309:\n    tag_308:\n      mload(0x40)\n      swap1\n      dup1\n      dup3\n      mstore\n      dup1\n      0x20\n      mul\n      0x20\n      add\n      dup3\n      add\n      0x40\n      mstore\n      dup1\n      iszero\n      tag_310\n      jumpi\n      dup2\n      0x20\n      add\n    tag_311:\n      tag_312\n      tag_256\n      jump\t// in\n    tag_312:\n      dup2\n      mstore\n      0x20\n      add\n      swap1\n      0x01\n      swap1\n      sub\n      swap1\n      dup2\n      tag_311\n      jumpi\n      swap1\n      pop\n    tag_310:\n      pop\n        /* \"contracts/Fast/contract.sol\":2111:2164  Tender[] memory memoryArray = new Tender[](Size[_to]) */\n      swap1\n      pop\n        /* \"contracts/Fast/contract.sol\":2174:2186  uint counter */\n      0x00\n        /* \"contracts/Fast/contract.sol\":2202:2208  uint i */\n      dup1\n        /* \"contracts/Fast/contract.sol\":2211:2212  1 */\n      0x01\n        /* \"contracts/Fast/contract.sol\":2202:2212  uint i = 1 */\n      swap1\n      pop\n        /* \"contracts/Fast/contract.sol\":2198:2395  for(uint i = 1; i <= TotalTender.current(); i++) {... */\n    tag_313:\n        /* \"contracts/Fast/contract.sol\":2219:2240  TotalTender.current() */\n      tag_316\n        /* \"contracts/Fast/contract.sol\":2219:2230  TotalTender */\n      0x00\n        /* \"contracts/Fast/contract.sol\":2219:2238  TotalTender.current */\n      tag_181\n        /* \"contracts/Fast/contract.sol\":2219:2240  TotalTender.current() */\n      jump\t// in\n    tag_316:\n        /* \"contracts/Fast/contract.sol\":2214:2215  i */\n      dup2\n        /* \"contracts/Fast/contract.sol\":2214:2240  i <= TotalTender.current() */\n      gt\n        /* \"contracts/Fast/contract.sol\":2198:2395  for(uint i = 1; i <= TotalTender.current(); i++) {... */\n      tag_314\n      jumpi\n        /* \"contracts/Fast/contract.sol\":2271:2276  Total */\n      0x06\n        /* \"contracts/Fast/contract.sol\":2271:2279  Total[i] */\n      0x00\n        /* \"contracts/Fast/contract.sol\":2277:2278  i */\n      dup3\n        /* \"contracts/Fast/contract.sol\":2271:2279  Total[i] */\n      dup2\n      mstore\n      0x20\n      add\n      swap1\n      dup2\n      mstore\n      0x20\n      add\n      0x00\n      keccak256\n        /* \"contracts/Fast/contract.sol\":2271:2285  Total[i].owner */\n      0x08\n      add\n      0x00\n      swap1\n      sload\n      swap1\n      0x0100\n      exp\n      swap1\n      div\n      0xffffffffffffffffffffffffffffffffffffffff\n      and\n        /* \"contracts/Fast/contract.sol\":2264:2285  _to == Total[i].owner */\n      0xffffffffffffffffffffffffffffffffffffffff\n      and\n        /* \"contracts/Fast/contract.sol\":2264:2267  _to */\n      dup6\n        /* \"contracts/Fast/contract.sol\":2264:2285  _to == Total[i].owner */\n      0xffffffffffffffffffffffffffffffffffffffff\n      and\n      eq\n        /* \"contracts/Fast/contract.sol\":2261:2377  if(_to == Total[i].owner){... */\n      iszero\n      tag_317\n      jumpi\n        /* \"contracts/Fast/contract.sol\":2327:2332  Total */\n      0x06\n        /* \"contracts/Fast/contract.sol\":2327:2335  Total[i] */\n      0x00\n        /* \"contracts/Fast/contract.sol\":2333:2334  i */\n      dup3\n        /* \"contracts/Fast/contract.sol\":2327:2335  Total[i] */\n      dup2\n      mstore\n      0x20\n      add\n      swap1\n      dup2\n      mstore\n      0x20\n      add\n      0x00\n      keccak256\n        /* \"contracts/Fast/contract.sol\":2304:2335  memoryArray[counter] = Total[i] */\n      mload(0x40)\n      dup1\n      0x0120\n      add\n      0x40\n      mstore\n      swap1\n      dup2\n      0x00\n      dup3\n      add\n      sload\n      dup2\n      mstore\n      0x20\n      add\n      0x01\n      dup3\n      add\n      dup1\n      sload\n      tag_318\n      swap1\n      tag_171\n      jump\t// in\n    tag_318:\n      dup1\n      0x1f\n      add\n      0x20\n      dup1\n      swap2\n      div\n      mul\n      0x20\n      add\n      mload(0x40)\n      swap1\n      dup2\n      add\n      0x40\n      mstore\n      dup1\n      swap3\n      swap2\n      swap1\n      dup2\n      dup2\n      mstore\n      0x20\n      add\n      dup3\n      dup1\n      sload\n      tag_319\n      swap1\n      tag_171\n      jump\t// in\n    tag_319:\n      dup1\n      iszero\n      tag_320\n      jumpi\n      dup1\n      0x1f\n      lt\n      tag_321\n      jumpi\n      0x0100\n      dup1\n      dup4\n      sload\n      div\n      mul\n      dup4\n      mstore\n      swap2\n      0x20\n      add\n      swap2\n      jump(tag_320)\n    tag_321:\n      dup3\n      add\n      swap2\n      swap1\n      0x00\n      mstore\n      keccak256(0x00, 0x20)\n      swap1\n    tag_322:\n      dup2\n      sload\n      dup2\n      mstore\n      swap1\n      0x01\n      add\n      swap1\n      0x20\n      add\n      dup1\n      dup4\n      gt\n      tag_322\n      jumpi\n      dup3\n      swap1\n      sub\n      0x1f\n      and\n      dup3\n      add\n      swap2\n    tag_320:\n      pop\n      pop\n      pop\n      pop\n      pop\n      dup2\n      mstore\n      0x20\n      add\n      0x02\n      dup3\n      add\n      sload\n      dup2\n      mstore\n      0x20\n      add\n      0x03\n      dup3\n      add\n      sload\n      dup2\n      mstore\n      0x20\n      add\n      0x04\n      dup3\n      add\n      sload\n      dup2\n      mstore\n      0x20\n      add\n      0x05\n      dup3\n      add\n      sload\n      dup2\n      mstore\n      0x20\n      add\n      0x06\n      dup3\n      add\n      dup1\n      sload\n      tag_323\n      swap1\n      tag_171\n      jump\t// in\n    tag_323:\n      dup1\n      0x1f\n      add\n      0x20\n      dup1\n      swap2\n      div\n      mul\n      0x20\n      add\n      mload(0x40)\n      swap1\n      dup2\n      add\n      0x40\n      mstore\n      dup1\n      swap3\n      swap2\n      swap1\n      dup2\n      dup2\n      mstore\n      0x20\n      add\n      dup3\n      dup1\n      sload\n      tag_324\n      swap1\n      tag_171\n      jump\t// in\n    tag_324:\n      dup1\n      iszero\n      tag_325\n      jumpi\n      dup1\n      0x1f\n      lt\n      tag_326\n      jumpi\n      0x0100\n      dup1\n      dup4\n      sload\n      div\n      mul\n      dup4\n      mstore\n      swap2\n      0x20\n      add\n      swap2\n      jump(tag_325)\n    tag_326:\n      dup3\n      add\n      swap2\n      swap1\n      0x00\n      mstore\n      keccak256(0x00, 0x20)\n      swap1\n    tag_327:\n      dup2\n      sload\n      dup2\n      mstore\n      swap1\n      0x01\n      add\n      swap1\n      0x20\n      add\n      dup1\n      dup4\n      gt\n      tag_327\n      jumpi\n      dup3\n      swap1\n      sub\n      0x1f\n      and\n      dup3\n      add\n      swap2\n    tag_325:\n      pop\n      pop\n      pop\n      pop\n      pop\n      dup2\n      mstore\n      0x20\n      add\n      0x07\n      dup3\n      add\n      dup1\n      sload\n      tag_328\n      swap1\n      tag_171\n      jump\t// in\n    tag_328:\n      dup1\n      0x1f\n      add\n      0x20\n      dup1\n      swap2\n      div\n      mul\n      0x20\n      add\n      mload(0x40)\n      swap1\n      dup2\n      add\n      0x40\n      mstore\n      dup1\n      swap3\n      swap2\n      swap1\n      dup2\n      dup2\n      mstore\n      0x20\n      add\n      dup3\n      dup1\n      sload\n      tag_329\n      swap1\n      tag_171\n      jump\t// in\n    tag_329:\n      dup1\n      iszero\n      tag_330\n      jumpi\n      dup1\n      0x1f\n      lt\n      tag_331\n      jumpi\n      0x0100\n      dup1\n      dup4\n      sload\n      div\n      mul\n      dup4\n      mstore\n      swap2\n      0x20\n      add\n      swap2\n      jump(tag_330)\n    tag_331:\n      dup3\n      add\n      swap2\n      swap1\n      0x00\n      mstore\n      keccak256(0x00, 0x20)\n      swap1\n    tag_332:\n      dup2\n      sload\n      dup2\n      mstore\n      swap1\n      0x01\n      add\n      swap1\n      0x20\n      add\n      dup1\n      dup4\n      gt\n      tag_332\n      jumpi\n      dup3\n      swap1\n      sub\n      0x1f\n      and\n      dup3\n      add\n      swap2\n    tag_330:\n      pop\n      pop\n      pop\n      pop\n      pop\n      dup2\n      mstore\n      0x20\n      add\n      0x08\n      dup3\n      add\n      0x00\n      swap1\n      sload\n      swap1\n      0x0100\n      exp\n      swap1\n      div\n      0xffffffffffffffffffffffffffffffffffffffff\n      and\n      0xffffffffffffffffffffffffffffffffffffffff\n      and\n      0xffffffffffffffffffffffffffffffffffffffff\n      and\n      dup2\n      mstore\n      pop\n      pop\n        /* \"contracts/Fast/contract.sol\":2304:2315  memoryArray */\n      dup4\n        /* \"contracts/Fast/contract.sol\":2316:2323  counter */\n      dup4\n        /* \"contracts/Fast/contract.sol\":2304:2324  memoryArray[counter] */\n      dup2\n      mload\n      dup2\n      lt\n      tag_333\n      jumpi\n      tag_334\n      tag_244\n      jump\t// in\n    tag_334:\n    tag_333:\n      0x20\n      mul\n      0x20\n      add\n      add\n        /* \"contracts/Fast/contract.sol\":2304:2335  memoryArray[counter] = Total[i] */\n      dup2\n      swap1\n      mstore\n      pop\n        /* \"contracts/Fast/contract.sol\":2353:2362  counter++ */\n      dup2\n      dup1\n      tag_335\n      swap1\n      tag_246\n      jump\t// in\n    tag_335:\n      swap3\n      pop\n      pop\n        /* \"contracts/Fast/contract.sol\":2261:2377  if(_to == Total[i].owner){... */\n    tag_317:\n        /* \"contracts/Fast/contract.sol\":2242:2245  i++ */\n      dup1\n      dup1\n      tag_336\n      swap1\n      tag_246\n      jump\t// in\n    tag_336:\n      swap2\n      pop\n      pop\n        /* \"contracts/Fast/contract.sol\":2198:2395  for(uint i = 1; i <= TotalTender.current(); i++) {... */\n      jump(tag_313)\n    tag_314:\n      pop\n        /* \"contracts/Fast/contract.sol\":2411:2422  memoryArray */\n      dup2\n        /* \"contracts/Fast/contract.sol\":2404:2422  return memoryArray */\n      swap3\n      pop\n      pop\n      pop\n        /* \"contracts/Fast/contract.sol\":2030:2429  function getTender(address _to) public view returns (Tender[] memory)  {... */\n      swap2\n      swap1\n      pop\n      jump\t// out\n        /* \"contracts/Fast/contract.sol\":5346:5715  function Done(address _to,address from,uint tokenId) public payable {... */\n    tag_153:\n        /* \"contracts/Fast/contract.sol\":5473:5476  _to */\n      dup3\n        /* \"contracts/Fast/contract.sol\":5432:5476  Communication[tokenId][from].receiver == _to */\n      0xffffffffffffffffffffffffffffffffffffffff\n      and\n        /* \"contracts/Fast/contract.sol\":5432:5445  Communication */\n      0x0b\n        /* \"contracts/Fast/contract.sol\":5432:5454  Communication[tokenId] */\n      0x00\n        /* \"contracts/Fast/contract.sol\":5446:5453  tokenId */\n      dup4\n        /* \"contracts/Fast/contract.sol\":5432:5454  Communication[tokenId] */\n      dup2\n      mstore\n      0x20\n      add\n      swap1\n      dup2\n      mstore\n      0x20\n      add\n      0x00\n      keccak256\n        /* \"contracts/Fast/contract.sol\":5432:5460  Communication[tokenId][from] */\n      0x00\n        /* \"contracts/Fast/contract.sol\":5455:5459  from */\n      dup5\n        /* \"contracts/Fast/contract.sol\":5432:5460  Communication[tokenId][from] */\n      0xffffffffffffffffffffffffffffffffffffffff\n      and\n      0xffffffffffffffffffffffffffffffffffffffff\n      and\n      dup2\n      mstore\n      0x20\n      add\n      swap1\n      dup2\n      mstore\n      0x20\n      add\n      0x00\n      keccak256\n        /* \"contracts/Fast/contract.sol\":5432:5469  Communication[tokenId][from].receiver */\n      0x00\n      add\n      0x00\n      swap1\n      sload\n      swap1\n      0x0100\n      exp\n      swap1\n      div\n      0xffffffffffffffffffffffffffffffffffffffff\n      and\n        /* \"contracts/Fast/contract.sol\":5432:5476  Communication[tokenId][from].receiver == _to */\n      0xffffffffffffffffffffffffffffffffffffffff\n      and\n      eq\n        /* \"contracts/Fast/contract.sol\":5424:5516  require(Communication[tokenId][from].receiver == _to,\"Please Sellect the correct Recepient\") */\n      tag_338\n      jumpi\n      mload(0x40)\n      0x08c379a000000000000000000000000000000000000000000000000000000000\n      dup2\n      mstore\n      0x04\n      add\n      tag_339\n      swap1\n      tag_340\n      jump\t// in\n    tag_339:\n      mload(0x40)\n      dup1\n      swap2\n      sub\n      swap1\n      revert\n    tag_338:\n        /* \"contracts/Fast/contract.sol\":5534:5547  Communication */\n      0x0b\n        /* \"contracts/Fast/contract.sol\":5534:5556  Communication[tokenId] */\n      0x00\n        /* \"contracts/Fast/contract.sol\":5548:5555  tokenId */\n      dup3\n        /* \"contracts/Fast/contract.sol\":5534:5556  Communication[tokenId] */\n      dup2\n      mstore\n      0x20\n      add\n      swap1\n      dup2\n      mstore\n      0x20\n      add\n      0x00\n      keccak256\n        /* \"contracts/Fast/contract.sol\":5534:5562  Communication[tokenId][from] */\n      0x00\n        /* \"contracts/Fast/contract.sol\":5557:5561  from */\n      dup4\n        /* \"contracts/Fast/contract.sol\":5534:5562  Communication[tokenId][from] */\n      0xffffffffffffffffffffffffffffffffffffffff\n      and\n      0xffffffffffffffffffffffffffffffffffffffff\n      and\n      dup2\n      mstore\n      0x20\n      add\n      swap1\n      dup2\n      mstore\n      0x20\n      add\n      0x00\n      keccak256\n        /* \"contracts/Fast/contract.sol\":5534:5567  Communication[tokenId][from].done */\n      0x02\n      add\n      0x00\n      swap1\n      sload\n      swap1\n      0x0100\n      exp\n      swap1\n      div\n      0xff\n      and\n        /* \"contracts/Fast/contract.sol\":5526:5590  require(Communication[tokenId][from].done,\"You already payment\") */\n      tag_341\n      jumpi\n      mload(0x40)\n      0x08c379a000000000000000000000000000000000000000000000000000000000\n      dup2\n      mstore\n      0x04\n      add\n      tag_342\n      swap1\n      tag_343\n      jump\t// in\n    tag_342:\n      mload(0x40)\n      dup1\n      swap2\n      sub\n      swap1\n      revert\n    tag_341:\n        /* \"contracts/Fast/contract.sol\":5636:5641  false */\n      0x00\n        /* \"contracts/Fast/contract.sol\":5600:5613  Communication */\n      0x0b\n        /* \"contracts/Fast/contract.sol\":5600:5622  Communication[tokenId] */\n      0x00\n        /* \"contracts/Fast/contract.sol\":5614:5621  tokenId */\n      dup4\n        /* \"contracts/Fast/contract.sol\":5600:5622  Communication[tokenId] */\n      dup2\n      mstore\n      0x20\n      add\n      swap1\n      dup2\n      mstore\n      0x20\n      add\n      0x00\n      keccak256\n        /* \"contracts/Fast/contract.sol\":5600:5628  Communication[tokenId][from] */\n      0x00\n        /* \"contracts/Fast/contract.sol\":5623:5627  from */\n      dup5\n        /* \"contracts/Fast/contract.sol\":5600:5628  Communication[tokenId][from] */\n      0xffffffffffffffffffffffffffffffffffffffff\n      and\n      0xffffffffffffffffffffffffffffffffffffffff\n      and\n      dup2\n      mstore\n      0x20\n      add\n      swap1\n      dup2\n      mstore\n      0x20\n      add\n      0x00\n      keccak256\n        /* \"contracts/Fast/contract.sol\":5600:5633  Communication[tokenId][from].done */\n      0x02\n      add\n      0x00\n        /* \"contracts/Fast/contract.sol\":5600:5641  Communication[tokenId][from].done = false */\n      0x0100\n      exp\n      dup2\n      sload\n      dup2\n      0xff\n      mul\n      not\n      and\n      swap1\n      dup4\n      iszero\n      iszero\n      mul\n      or\n      swap1\n      sstore\n      pop\n        /* \"contracts/Fast/contract.sol\":5659:5662  _to */\n      dup3\n        /* \"contracts/Fast/contract.sol\":5651:5672  payable(_to).transfer */\n      0xffffffffffffffffffffffffffffffffffffffff\n      and\n        /* \"contracts/Fast/contract.sol\":5651:5708  payable(_to).transfer(Communication[tokenId][from].price) */\n      0x08fc\n        /* \"contracts/Fast/contract.sol\":5673:5686  Communication */\n      0x0b\n        /* \"contracts/Fast/contract.sol\":5673:5695  Communication[tokenId] */\n      0x00\n        /* \"contracts/Fast/contract.sol\":5687:5694  tokenId */\n      dup5\n        /* \"contracts/Fast/contract.sol\":5673:5695  Communication[tokenId] */\n      dup2\n      mstore\n      0x20\n      add\n      swap1\n      dup2\n      mstore\n      0x20\n      add\n      0x00\n      keccak256\n        /* \"contracts/Fast/contract.sol\":5673:5701  Communication[tokenId][from] */\n      0x00\n        /* \"contracts/Fast/contract.sol\":5696:5700  from */\n      dup6\n        /* \"contracts/Fast/contract.sol\":5673:5701  Communication[tokenId][from] */\n      0xffffffffffffffffffffffffffffffffffffffff\n      and\n      0xffffffffffffffffffffffffffffffffffffffff\n      and\n      dup2\n      mstore\n      0x20\n      add\n      swap1\n      dup2\n      mstore\n      0x20\n      add\n      0x00\n      keccak256\n        /* \"contracts/Fast/contract.sol\":5673:5707  Communication[tokenId][from].price */\n      0x01\n      add\n      sload\n        /* \"contracts/Fast/contract.sol\":5651:5708  payable(_to).transfer(Communication[tokenId][from].price) */\n      swap1\n      dup2\n      iszero\n      mul\n      swap1\n      mload(0x40)\n      0x00\n      mload(0x40)\n      dup1\n      dup4\n      sub\n      dup2\n      dup6\n      dup9\n      dup9\n      call\n      swap4\n      pop\n      pop\n      pop\n      pop\n      iszero\n      dup1\n      iszero\n      tag_345\n      jumpi\n      returndatasize\n      0x00\n      dup1\n      returndatacopy\n      revert(0x00, returndatasize)\n    tag_345:\n      pop\n        /* \"contracts/Fast/contract.sol\":5346:5715  function Done(address _to,address from,uint tokenId) public payable {... */\n      pop\n      pop\n      pop\n      jump\t// out\n        /* \"contracts/Fast/contract.sol\":318:353  Counters.Counter public TotalTender */\n    tag_156:\n      0x00\n      dup1\n      0x00\n      add\n      sload\n      swap1\n      pop\n      dup2\n      jump\t// out\n        /* \"contracts/Fast/contract.sol\":1091:1131  mapping (uint => uint) public SizeVender */\n    tag_161:\n      mstore(0x20, 0x05)\n      dup1\n      0x00\n      mstore\n      keccak256(0x00, 0x40)\n      0x00\n      swap2\n      pop\n      swap1\n      pop\n      sload\n      dup2\n      jump\t// out\n        /* \"@openzeppelin/contracts/utils/Counters.sol\":945:1068  function increment(Counter storage counter) internal {... */\n    tag_178:\n        /* \"@openzeppelin/contracts/utils/Counters.sol\":1050:1051  1 */\n      0x01\n        /* \"@openzeppelin/contracts/utils/Counters.sol\":1032:1039  counter */\n      dup2\n        /* \"@openzeppelin/contracts/utils/Counters.sol\":1032:1046  counter._value */\n      0x00\n      add\n      0x00\n        /* \"@openzeppelin/contracts/utils/Counters.sol\":1032:1051  counter._value += 1 */\n      dup3\n      dup3\n      sload\n      add\n      swap3\n      pop\n      pop\n      dup2\n      swap1\n      sstore\n      pop\n        /* \"@openzeppelin/contracts/utils/Counters.sol\":945:1068  function increment(Counter storage counter) internal {... */\n      pop\n      jump\t// out\n        /* \"@openzeppelin/contracts/utils/Counters.sol\":827:939  function current(Counter storage counter) internal view returns (uint256) {... */\n    tag_181:\n        /* \"@openzeppelin/contracts/utils/Counters.sol\":892:899  uint256 */\n      0x00\n        /* \"@openzeppelin/contracts/utils/Counters.sol\":918:925  counter */\n      dup2\n        /* \"@openzeppelin/contracts/utils/Counters.sol\":918:932  counter._value */\n      0x00\n      add\n      sload\n        /* \"@openzeppelin/contracts/utils/Counters.sol\":911:932  return counter._value */\n      swap1\n      pop\n        /* \"@openzeppelin/contracts/utils/Counters.sol\":827:939  function current(Counter storage counter) internal view returns (uint256) {... */\n      swap2\n      swap1\n      pop\n      jump\t// out\n    tag_184:\n      dup3\n      dup1\n      sload\n      tag_348\n      swap1\n      tag_171\n      jump\t// in\n    tag_348:\n      swap1\n      0x00\n      mstore\n      keccak256(0x00, 0x20)\n      swap1\n      0x1f\n      add\n      0x20\n      swap1\n      div\n      dup2\n      add\n      swap3\n      dup3\n      tag_350\n      jumpi\n      0x00\n      dup6\n      sstore\n      jump(tag_349)\n    tag_350:\n      dup3\n      0x1f\n      lt\n      tag_351\n      jumpi\n      dup1\n      mload\n      not(0xff)\n      and\n      dup4\n      dup1\n      add\n      or\n      dup6\n      sstore\n      jump(tag_349)\n    tag_351:\n      dup3\n      dup1\n      add\n      0x01\n      add\n      dup6\n      sstore\n      dup3\n      iszero\n      tag_349\n      jumpi\n      swap2\n      dup3\n      add\n    tag_352:\n      dup3\n      dup2\n      gt\n      iszero\n      tag_353\n      jumpi\n      dup3\n      mload\n      dup3\n      sstore\n      swap2\n      0x20\n      add\n      swap2\n      swap1\n      0x01\n      add\n      swap1\n      jump(tag_352)\n    tag_353:\n    tag_349:\n      pop\n      swap1\n      pop\n      tag_354\n      swap2\n      swap1\n      tag_355\n      jump\t// in\n    tag_354:\n      pop\n      swap1\n      jump\t// out\n    tag_195:\n      pop\n      dup1\n      sload\n      tag_356\n      swap1\n      tag_171\n      jump\t// in\n    tag_356:\n      0x00\n      dup3\n      sstore\n      dup1\n      0x1f\n      lt\n      tag_358\n      jumpi\n      pop\n      jump(tag_357)\n    tag_358:\n      0x1f\n      add\n      0x20\n      swap1\n      div\n      swap1\n      0x00\n      mstore\n      keccak256(0x00, 0x20)\n      swap1\n      dup2\n      add\n      swap1\n      tag_359\n      swap2\n      swap1\n      tag_355\n      jump\t// in\n    tag_359:\n    tag_357:\n      pop\n      jump\t// out\n    tag_231:\n      mload(0x40)\n      dup1\n      0xa0\n      add\n      0x40\n      mstore\n      dup1\n      0x00\n      dup2\n      mstore\n      0x20\n      add\n      0x00\n      dup2\n      mstore\n      0x20\n      add\n      0x60\n      dup2\n      mstore\n      0x20\n      add\n      and(0xffffffffffffffffffffffffffffffffffffffff, 0x00)\n      dup2\n      mstore\n      0x20\n      add\n      0x00\n      dup2\n      mstore\n      pop\n      swap1\n      jump\t// out\n    tag_256:\n      mload(0x40)\n      dup1\n      0x0120\n      add\n      0x40\n      mstore\n      dup1\n      0x00\n      dup2\n      mstore\n      0x20\n      add\n      0x60\n      dup2\n      mstore\n      0x20\n      add\n      0x00\n      dup2\n      mstore\n      0x20\n      add\n      0x00\n      dup2\n      mstore\n      0x20\n      add\n      0x00\n      dup2\n      mstore\n      0x20\n      add\n      0x00\n      dup2\n      mstore\n      0x20\n      add\n      0x60\n      dup2\n      mstore\n      0x20\n      add\n      0x60\n      dup2\n      mstore\n      0x20\n      add\n      and(0xffffffffffffffffffffffffffffffffffffffff, 0x00)\n      dup2\n      mstore\n      pop\n      swap1\n      jump\t// out\n    tag_355:\n    tag_360:\n      dup1\n      dup3\n      gt\n      iszero\n      tag_361\n      jumpi\n      0x00\n      dup2\n      0x00\n      swap1\n      sstore\n      pop\n      0x01\n      add\n      jump(tag_360)\n    tag_361:\n      pop\n      swap1\n      jump\t// out\n        /* \"#utility.yul\":7:419   */\n    tag_363:\n        /* \"#utility.yul\":85:90   */\n      0x00\n        /* \"#utility.yul\":110:176   */\n      tag_365\n        /* \"#utility.yul\":126:175   */\n      tag_366\n        /* \"#utility.yul\":168:174   */\n      dup5\n        /* \"#utility.yul\":126:175   */\n      tag_367\n      jump\t// in\n    tag_366:\n        /* \"#utility.yul\":110:176   */\n      tag_368\n      jump\t// in\n    tag_365:\n        /* \"#utility.yul\":101:176   */\n      swap1\n      pop\n        /* \"#utility.yul\":199:205   */\n      dup3\n        /* \"#utility.yul\":192:197   */\n      dup2\n        /* \"#utility.yul\":185:206   */\n      mstore\n        /* \"#utility.yul\":237:241   */\n      0x20\n        /* \"#utility.yul\":230:235   */\n      dup2\n        /* \"#utility.yul\":226:242   */\n      add\n        /* \"#utility.yul\":275:278   */\n      dup5\n        /* \"#utility.yul\":266:272   */\n      dup5\n        /* \"#utility.yul\":261:264   */\n      dup5\n        /* \"#utility.yul\":257:273   */\n      add\n        /* \"#utility.yul\":254:279   */\n      gt\n        /* \"#utility.yul\":251:363   */\n      iszero\n      tag_369\n      jumpi\n        /* \"#utility.yul\":282:361   */\n      tag_370\n      tag_371\n      jump\t// in\n    tag_370:\n        /* \"#utility.yul\":251:363   */\n    tag_369:\n        /* \"#utility.yul\":372:413   */\n      tag_372\n        /* \"#utility.yul\":406:412   */\n      dup5\n        /* \"#utility.yul\":401:404   */\n      dup3\n        /* \"#utility.yul\":396:399   */\n      dup6\n        /* \"#utility.yul\":372:413   */\n      tag_373\n      jump\t// in\n    tag_372:\n        /* \"#utility.yul\":91:419   */\n      pop\n        /* \"#utility.yul\":7:419   */\n      swap4\n      swap3\n      pop\n      pop\n      pop\n      jump\t// out\n        /* \"#utility.yul\":425:564   */\n    tag_374:\n        /* \"#utility.yul\":471:476   */\n      0x00\n        /* \"#utility.yul\":509:515   */\n      dup2\n        /* \"#utility.yul\":496:516   */\n      calldataload\n        /* \"#utility.yul\":487:516   */\n      swap1\n      pop\n        /* \"#utility.yul\":525:558   */\n      tag_376\n        /* \"#utility.yul\":552:557   */\n      dup2\n        /* \"#utility.yul\":525:558   */\n      tag_377\n      jump\t// in\n    tag_376:\n        /* \"#utility.yul\":425:564   */\n      swap3\n      swap2\n      pop\n      pop\n      jump\t// out\n        /* \"#utility.yul\":584:924   */\n    tag_378:\n        /* \"#utility.yul\":640:645   */\n      0x00\n        /* \"#utility.yul\":689:692   */\n      dup3\n        /* \"#utility.yul\":682:686   */\n      0x1f\n        /* \"#utility.yul\":674:680   */\n      dup4\n        /* \"#utility.yul\":670:687   */\n      add\n        /* \"#utility.yul\":666:693   */\n      slt\n        /* \"#utility.yul\":656:778   */\n      tag_380\n      jumpi\n        /* \"#utility.yul\":697:776   */\n      tag_381\n      tag_382\n      jump\t// in\n    tag_381:\n        /* \"#utility.yul\":656:778   */\n    tag_380:\n        /* \"#utility.yul\":814:820   */\n      dup2\n        /* \"#utility.yul\":801:821   */\n      calldataload\n        /* \"#utility.yul\":839:918   */\n      tag_383\n        /* \"#utility.yul\":914:917   */\n      dup5\n        /* \"#utility.yul\":906:912   */\n      dup3\n        /* \"#utility.yul\":899:903   */\n      0x20\n        /* \"#utility.yul\":891:897   */\n      dup7\n        /* \"#utility.yul\":887:904   */\n      add\n        /* \"#utility.yul\":839:918   */\n      tag_363\n      jump\t// in\n    tag_383:\n        /* \"#utility.yul\":830:918   */\n      swap2\n      pop\n        /* \"#utility.yul\":646:924   */\n      pop\n        /* \"#utility.yul\":584:924   */\n      swap3\n      swap2\n      pop\n      pop\n      jump\t// out\n        /* \"#utility.yul\":930:1069   */\n    tag_384:\n        /* \"#utility.yul\":976:981   */\n      0x00\n        /* \"#utility.yul\":1014:1020   */\n      dup2\n        /* \"#utility.yul\":1001:1021   */\n      calldataload\n        /* \"#utility.yul\":992:1021   */\n      swap1\n      pop\n        /* \"#utility.yul\":1030:1063   */\n      tag_386\n        /* \"#utility.yul\":1057:1062   */\n      dup2\n        /* \"#utility.yul\":1030:1063   */\n      tag_387\n      jump\t// in\n    tag_386:\n        /* \"#utility.yul\":930:1069   */\n      swap3\n      swap2\n      pop\n      pop\n      jump\t// out\n        /* \"#utility.yul\":1075:1404   */\n    tag_48:\n        /* \"#utility.yul\":1134:1140   */\n      0x00\n        /* \"#utility.yul\":1183:1185   */\n      0x20\n        /* \"#utility.yul\":1171:1180   */\n      dup3\n        /* \"#utility.yul\":1162:1169   */\n      dup5\n        /* \"#utility.yul\":1158:1181   */\n      sub\n        /* \"#utility.yul\":1154:1186   */\n      slt\n        /* \"#utility.yul\":1151:1270   */\n      iszero\n      tag_389\n      jumpi\n        /* \"#utility.yul\":1189:1268   */\n      tag_390\n      tag_391\n      jump\t// in\n    tag_390:\n        /* \"#utility.yul\":1151:1270   */\n    tag_389:\n        /* \"#utility.yul\":1309:1310   */\n      0x00\n        /* \"#utility.yul\":1334:1387   */\n      tag_392\n        /* \"#utility.yul\":1379:1386   */\n      dup5\n        /* \"#utility.yul\":1370:1376   */\n      dup3\n        /* \"#utility.yul\":1359:1368   */\n      dup6\n        /* \"#utility.yul\":1355:1377   */\n      add\n        /* \"#utility.yul\":1334:1387   */\n      tag_374\n      jump\t// in\n    tag_392:\n        /* \"#utility.yul\":1324:1387   */\n      swap2\n      pop\n        /* \"#utility.yul\":1280:1397   */\n      pop\n        /* \"#utility.yul\":1075:1404   */\n      swap3\n      swap2\n      pop\n      pop\n      jump\t// out\n        /* \"#utility.yul\":1410:2029   */\n    tag_152:\n        /* \"#utility.yul\":1487:1493   */\n      0x00\n        /* \"#utility.yul\":1495:1501   */\n      dup1\n        /* \"#utility.yul\":1503:1509   */\n      0x00\n        /* \"#utility.yul\":1552:1554   */\n      0x60\n        /* \"#utility.yul\":1540:1549   */\n      dup5\n        /* \"#utility.yul\":1531:1538   */\n      dup7\n        /* \"#utility.yul\":1527:1550   */\n      sub\n        /* \"#utility.yul\":1523:1555   */\n      slt\n        /* \"#utility.yul\":1520:1639   */\n      iszero\n      tag_394\n      jumpi\n        /* \"#utility.yul\":1558:1637   */\n      tag_395\n      tag_391\n      jump\t// in\n    tag_395:\n        /* \"#utility.yul\":1520:1639   */\n    tag_394:\n        /* \"#utility.yul\":1678:1679   */\n      0x00\n        /* \"#utility.yul\":1703:1756   */\n      tag_396\n        /* \"#utility.yul\":1748:1755   */\n      dup7\n        /* \"#utility.yul\":1739:1745   */\n      dup3\n        /* \"#utility.yul\":1728:1737   */\n      dup8\n        /* \"#utility.yul\":1724:1746   */\n      add\n        /* \"#utility.yul\":1703:1756   */\n      tag_374\n      jump\t// in\n    tag_396:\n        /* \"#utility.yul\":1693:1756   */\n      swap4\n      pop\n        /* \"#utility.yul\":1649:1766   */\n      pop\n        /* \"#utility.yul\":1805:1807   */\n      0x20\n        /* \"#utility.yul\":1831:1884   */\n      tag_397\n        /* \"#utility.yul\":1876:1883   */\n      dup7\n        /* \"#utility.yul\":1867:1873   */\n      dup3\n        /* \"#utility.yul\":1856:1865   */\n      dup8\n        /* \"#utility.yul\":1852:1874   */\n      add\n        /* \"#utility.yul\":1831:1884   */\n      tag_374\n      jump\t// in\n    tag_397:\n        /* \"#utility.yul\":1821:1884   */\n      swap3\n      pop\n        /* \"#utility.yul\":1776:1894   */\n      pop\n        /* \"#utility.yul\":1933:1935   */\n      0x40\n        /* \"#utility.yul\":1959:2012   */\n      tag_398\n        /* \"#utility.yul\":2004:2011   */\n      dup7\n        /* \"#utility.yul\":1995:2001   */\n      dup3\n        /* \"#utility.yul\":1984:1993   */\n      dup8\n        /* \"#utility.yul\":1980:2002   */\n      add\n        /* \"#utility.yul\":1959:2012   */\n      tag_384\n      jump\t// in\n    tag_398:\n        /* \"#utility.yul\":1949:2012   */\n      swap2\n      pop\n        /* \"#utility.yul\":1904:2022   */\n      pop\n        /* \"#utility.yul\":1410:2029   */\n      swap3\n      pop\n      swap3\n      pop\n      swap3\n      jump\t// out\n        /* \"#utility.yul\":2035:2509   */\n    tag_75:\n        /* \"#utility.yul\":2103:2109   */\n      0x00\n        /* \"#utility.yul\":2111:2117   */\n      dup1\n        /* \"#utility.yul\":2160:2162   */\n      0x40\n        /* \"#utility.yul\":2148:2157   */\n      dup4\n        /* \"#utility.yul\":2139:2146   */\n      dup6\n        /* \"#utility.yul\":2135:2158   */\n      sub\n        /* \"#utility.yul\":2131:2163   */\n      slt\n        /* \"#utility.yul\":2128:2247   */\n      iszero\n      tag_400\n      jumpi\n        /* \"#utility.yul\":2166:2245   */\n      tag_401\n      tag_391\n      jump\t// in\n    tag_401:\n        /* \"#utility.yul\":2128:2247   */\n    tag_400:\n        /* \"#utility.yul\":2286:2287   */\n      0x00\n        /* \"#utility.yul\":2311:2364   */\n      tag_402\n        /* \"#utility.yul\":2356:2363   */\n      dup6\n        /* \"#utility.yul\":2347:2353   */\n      dup3\n        /* \"#utility.yul\":2336:2345   */\n      dup7\n        /* \"#utility.yul\":2332:2354   */\n      add\n        /* \"#utility.yul\":2311:2364   */\n      tag_374\n      jump\t// in\n    tag_402:\n        /* \"#utility.yul\":2301:2364   */\n      swap3\n      pop\n        /* \"#utility.yul\":2257:2374   */\n      pop\n        /* \"#utility.yul\":2413:2415   */\n      0x20\n        /* \"#utility.yul\":2439:2492   */\n      tag_403\n        /* \"#utility.yul\":2484:2491   */\n      dup6\n        /* \"#utility.yul\":2475:2481   */\n      dup3\n        /* \"#utility.yul\":2464:2473   */\n      dup7\n        /* \"#utility.yul\":2460:2482   */\n      add\n        /* \"#utility.yul\":2439:2492   */\n      tag_384\n      jump\t// in\n    tag_403:\n        /* \"#utility.yul\":2429:2492   */\n      swap2\n      pop\n        /* \"#utility.yul\":2384:2502   */\n      pop\n        /* \"#utility.yul\":2035:2509   */\n      swap3\n      pop\n      swap3\n      swap1\n      pop\n      jump\t// out\n        /* \"#utility.yul\":2515:3134   */\n    tag_123:\n        /* \"#utility.yul\":2592:2598   */\n      0x00\n        /* \"#utility.yul\":2600:2606   */\n      dup1\n        /* \"#utility.yul\":2608:2614   */\n      0x00\n        /* \"#utility.yul\":2657:2659   */\n      0x60\n        /* \"#utility.yul\":2645:2654   */\n      dup5\n        /* \"#utility.yul\":2636:2643   */\n      dup7\n        /* \"#utility.yul\":2632:2655   */\n      sub\n        /* \"#utility.yul\":2628:2660   */\n      slt\n        /* \"#utility.yul\":2625:2744   */\n      iszero\n      tag_405\n      jumpi\n        /* \"#utility.yul\":2663:2742   */\n      tag_406\n      tag_391\n      jump\t// in\n    tag_406:\n        /* \"#utility.yul\":2625:2744   */\n    tag_405:\n        /* \"#utility.yul\":2783:2784   */\n      0x00\n        /* \"#utility.yul\":2808:2861   */\n      tag_407\n        /* \"#utility.yul\":2853:2860   */\n      dup7\n        /* \"#utility.yul\":2844:2850   */\n      dup3\n        /* \"#utility.yul\":2833:2842   */\n      dup8\n        /* \"#utility.yul\":2829:2851   */\n      add\n        /* \"#utility.yul\":2808:2861   */\n      tag_374\n      jump\t// in\n    tag_407:\n        /* \"#utility.yul\":2798:2861   */\n      swap4\n      pop\n        /* \"#utility.yul\":2754:2871   */\n      pop\n        /* \"#utility.yul\":2910:2912   */\n      0x20\n        /* \"#utility.yul\":2936:2989   */\n      tag_408\n        /* \"#utility.yul\":2981:2988   */\n      dup7\n        /* \"#utility.yul\":2972:2978   */\n      dup3\n        /* \"#utility.yul\":2961:2970   */\n      dup8\n        /* \"#utility.yul\":2957:2979   */\n      add\n        /* \"#utility.yul\":2936:2989   */\n      tag_384\n      jump\t// in\n    tag_408:\n        /* \"#utility.yul\":2926:2989   */\n      swap3\n      pop\n        /* \"#utility.yul\":2881:2999   */\n      pop\n        /* \"#utility.yul\":3038:3040   */\n      0x40\n        /* \"#utility.yul\":3064:3117   */\n      tag_409\n        /* \"#utility.yul\":3109:3116   */\n      dup7\n        /* \"#utility.yul\":3100:3106   */\n      dup3\n        /* \"#utility.yul\":3089:3098   */\n      dup8\n        /* \"#utility.yul\":3085:3107   */\n      add\n        /* \"#utility.yul\":3064:3117   */\n      tag_374\n      jump\t// in\n    tag_409:\n        /* \"#utility.yul\":3054:3117   */\n      swap2\n      pop\n        /* \"#utility.yul\":3009:3127   */\n      pop\n        /* \"#utility.yul\":2515:3134   */\n      swap3\n      pop\n      swap3\n      pop\n      swap3\n      jump\t// out\n        /* \"#utility.yul\":3140:4737   */\n    tag_55:\n        /* \"#utility.yul\":3274:3280   */\n      0x00\n        /* \"#utility.yul\":3282:3288   */\n      dup1\n        /* \"#utility.yul\":3290:3296   */\n      0x00\n        /* \"#utility.yul\":3298:3304   */\n      dup1\n        /* \"#utility.yul\":3306:3312   */\n      0x00\n        /* \"#utility.yul\":3314:3320   */\n      dup1\n        /* \"#utility.yul\":3363:3366   */\n      0xc0\n        /* \"#utility.yul\":3351:3360   */\n      dup8\n        /* \"#utility.yul\":3342:3349   */\n      dup10\n        /* \"#utility.yul\":3338:3361   */\n      sub\n        /* \"#utility.yul\":3334:3367   */\n      slt\n        /* \"#utility.yul\":3331:3451   */\n      iszero\n      tag_411\n      jumpi\n        /* \"#utility.yul\":3370:3449   */\n      tag_412\n      tag_391\n      jump\t// in\n    tag_412:\n        /* \"#utility.yul\":3331:3451   */\n    tag_411:\n        /* \"#utility.yul\":3518:3519   */\n      0x00\n        /* \"#utility.yul\":3507:3516   */\n      dup8\n        /* \"#utility.yul\":3503:3520   */\n      add\n        /* \"#utility.yul\":3490:3521   */\n      calldataload\n        /* \"#utility.yul\":3548:3566   */\n      0xffffffffffffffff\n        /* \"#utility.yul\":3540:3546   */\n      dup2\n        /* \"#utility.yul\":3537:3567   */\n      gt\n        /* \"#utility.yul\":3534:3651   */\n      iszero\n      tag_413\n      jumpi\n        /* \"#utility.yul\":3570:3649   */\n      tag_414\n      tag_415\n      jump\t// in\n    tag_414:\n        /* \"#utility.yul\":3534:3651   */\n    tag_413:\n        /* \"#utility.yul\":3675:3738   */\n      tag_416\n        /* \"#utility.yul\":3730:3737   */\n      dup10\n        /* \"#utility.yul\":3721:3727   */\n      dup3\n        /* \"#utility.yul\":3710:3719   */\n      dup11\n        /* \"#utility.yul\":3706:3728   */\n      add\n        /* \"#utility.yul\":3675:3738   */\n      tag_378\n      jump\t// in\n    tag_416:\n        /* \"#utility.yul\":3665:3738   */\n      swap7\n      pop\n        /* \"#utility.yul\":3461:3748   */\n      pop\n        /* \"#utility.yul\":3787:3789   */\n      0x20\n        /* \"#utility.yul\":3813:3866   */\n      tag_417\n        /* \"#utility.yul\":3858:3865   */\n      dup10\n        /* \"#utility.yul\":3849:3855   */\n      dup3\n        /* \"#utility.yul\":3838:3847   */\n      dup11\n        /* \"#utility.yul\":3834:3856   */\n      add\n        /* \"#utility.yul\":3813:3866   */\n      tag_384\n      jump\t// in\n    tag_417:\n        /* \"#utility.yul\":3803:3866   */\n      swap6\n      pop\n        /* \"#utility.yul\":3758:3876   */\n      pop\n        /* \"#utility.yul\":3915:3917   */\n      0x40\n        /* \"#utility.yul\":3941:3994   */\n      tag_418\n        /* \"#utility.yul\":3986:3993   */\n      dup10\n        /* \"#utility.yul\":3977:3983   */\n      dup3\n        /* \"#utility.yul\":3966:3975   */\n      dup11\n        /* \"#utility.yul\":3962:3984   */\n      add\n        /* \"#utility.yul\":3941:3994   */\n      tag_384\n      jump\t// in\n    tag_418:\n        /* \"#utility.yul\":3931:3994   */\n      swap5\n      pop\n        /* \"#utility.yul\":3886:4004   */\n      pop\n        /* \"#utility.yul\":4043:4045   */\n      0x60\n        /* \"#utility.yul\":4069:4122   */\n      tag_419\n        /* \"#utility.yul\":4114:4121   */\n      dup10\n        /* \"#utility.yul\":4105:4111   */\n      dup3\n        /* \"#utility.yul\":4094:4103   */\n      dup11\n        /* \"#utility.yul\":4090:4112   */\n      add\n        /* \"#utility.yul\":4069:4122   */\n      tag_384\n      jump\t// in\n    tag_419:\n        /* \"#utility.yul\":4059:4122   */\n      swap4\n      pop\n        /* \"#utility.yul\":4014:4132   */\n      pop\n        /* \"#utility.yul\":4199:4202   */\n      0x80\n        /* \"#utility.yul\":4188:4197   */\n      dup8\n        /* \"#utility.yul\":4184:4203   */\n      add\n        /* \"#utility.yul\":4171:4204   */\n      calldataload\n        /* \"#utility.yul\":4231:4249   */\n      0xffffffffffffffff\n        /* \"#utility.yul\":4223:4229   */\n      dup2\n        /* \"#utility.yul\":4220:4250   */\n      gt\n        /* \"#utility.yul\":4217:4334   */\n      iszero\n      tag_420\n      jumpi\n        /* \"#utility.yul\":4253:4332   */\n      tag_421\n      tag_415\n      jump\t// in\n    tag_421:\n        /* \"#utility.yul\":4217:4334   */\n    tag_420:\n        /* \"#utility.yul\":4358:4421   */\n      tag_422\n        /* \"#utility.yul\":4413:4420   */\n      dup10\n        /* \"#utility.yul\":4404:4410   */\n      dup3\n        /* \"#utility.yul\":4393:4402   */\n      dup11\n        /* \"#utility.yul\":4389:4411   */\n      add\n        /* \"#utility.yul\":4358:4421   */\n      tag_378\n      jump\t// in\n    tag_422:\n        /* \"#utility.yul\":4348:4421   */\n      swap3\n      pop\n        /* \"#utility.yul\":4142:4431   */\n      pop\n        /* \"#utility.yul\":4498:4501   */\n      0xa0\n        /* \"#utility.yul\":4487:4496   */\n      dup8\n        /* \"#utility.yul\":4483:4502   */\n      add\n        /* \"#utility.yul\":4470:4503   */\n      calldataload\n        /* \"#utility.yul\":4530:4548   */\n      0xffffffffffffffff\n        /* \"#utility.yul\":4522:4528   */\n      dup2\n        /* \"#utility.yul\":4519:4549   */\n      gt\n        /* \"#utility.yul\":4516:4633   */\n      iszero\n      tag_423\n      jumpi\n        /* \"#utility.yul\":4552:4631   */\n      tag_424\n      tag_415\n      jump\t// in\n    tag_424:\n        /* \"#utility.yul\":4516:4633   */\n    tag_423:\n        /* \"#utility.yul\":4657:4720   */\n      tag_425\n        /* \"#utility.yul\":4712:4719   */\n      dup10\n        /* \"#utility.yul\":4703:4709   */\n      dup3\n        /* \"#utility.yul\":4692:4701   */\n      dup11\n        /* \"#utility.yul\":4688:4710   */\n      add\n        /* \"#utility.yul\":4657:4720   */\n      tag_378\n      jump\t// in\n    tag_425:\n        /* \"#utility.yul\":4647:4720   */\n      swap2\n      pop\n        /* \"#utility.yul\":4441:4730   */\n      pop\n        /* \"#utility.yul\":3140:4737   */\n      swap3\n      swap6\n      pop\n      swap3\n      swap6\n      pop\n      swap3\n      swap6\n      jump\t// out\n        /* \"#utility.yul\":4743:5072   */\n    tag_34:\n        /* \"#utility.yul\":4802:4808   */\n      0x00\n        /* \"#utility.yul\":4851:4853   */\n      0x20\n        /* \"#utility.yul\":4839:4848   */\n      dup3\n        /* \"#utility.yul\":4830:4837   */\n      dup5\n        /* \"#utility.yul\":4826:4849   */\n      sub\n        /* \"#utility.yul\":4822:4854   */\n      slt\n        /* \"#utility.yul\":4819:4938   */\n      iszero\n      tag_427\n      jumpi\n        /* \"#utility.yul\":4857:4936   */\n      tag_428\n      tag_391\n      jump\t// in\n    tag_428:\n        /* \"#utility.yul\":4819:4938   */\n    tag_427:\n        /* \"#utility.yul\":4977:4978   */\n      0x00\n        /* \"#utility.yul\":5002:5055   */\n      tag_429\n        /* \"#utility.yul\":5047:5054   */\n      dup5\n        /* \"#utility.yul\":5038:5044   */\n      dup3\n        /* \"#utility.yul\":5027:5036   */\n      dup6\n        /* \"#utility.yul\":5023:5045   */\n      add\n        /* \"#utility.yul\":5002:5055   */\n      tag_384\n      jump\t// in\n    tag_429:\n        /* \"#utility.yul\":4992:5055   */\n      swap2\n      pop\n        /* \"#utility.yul\":4948:5065   */\n      pop\n        /* \"#utility.yul\":4743:5072   */\n      swap3\n      swap2\n      pop\n      pop\n      jump\t// out\n        /* \"#utility.yul\":5078:5552   */\n    tag_68:\n        /* \"#utility.yul\":5146:5152   */\n      0x00\n        /* \"#utility.yul\":5154:5160   */\n      dup1\n        /* \"#utility.yul\":5203:5205   */\n      0x40\n        /* \"#utility.yul\":5191:5200   */\n      dup4\n        /* \"#utility.yul\":5182:5189   */\n      dup6\n        /* \"#utility.yul\":5178:5201   */\n      sub\n        /* \"#utility.yul\":5174:5206   */\n      slt\n        /* \"#utility.yul\":5171:5290   */\n      iszero\n      tag_431\n      jumpi\n        /* \"#utility.yul\":5209:5288   */\n      tag_432\n      tag_391\n      jump\t// in\n    tag_432:\n        /* \"#utility.yul\":5171:5290   */\n    tag_431:\n        /* \"#utility.yul\":5329:5330   */\n      0x00\n        /* \"#utility.yul\":5354:5407   */\n      tag_433\n        /* \"#utility.yul\":5399:5406   */\n      dup6\n        /* \"#utility.yul\":5390:5396   */\n      dup3\n        /* \"#utility.yul\":5379:5388   */\n      dup7\n        /* \"#utility.yul\":5375:5397   */\n      add\n        /* \"#utility.yul\":5354:5407   */\n      tag_384\n      jump\t// in\n    tag_433:\n        /* \"#utility.yul\":5344:5407   */\n      swap3\n      pop\n        /* \"#utility.yul\":5300:5417   */\n      pop\n        /* \"#utility.yul\":5456:5458   */\n      0x20\n        /* \"#utility.yul\":5482:5535   */\n      tag_434\n        /* \"#utility.yul\":5527:5534   */\n      dup6\n        /* \"#utility.yul\":5518:5524   */\n      dup3\n        /* \"#utility.yul\":5507:5516   */\n      dup7\n        /* \"#utility.yul\":5503:5525   */\n      add\n        /* \"#utility.yul\":5482:5535   */\n      tag_374\n      jump\t// in\n    tag_434:\n        /* \"#utility.yul\":5472:5535   */\n      swap2\n      pop\n        /* \"#utility.yul\":5427:5545   */\n      pop\n        /* \"#utility.yul\":5078:5552   */\n      swap3\n      pop\n      swap3\n      swap1\n      pop\n      jump\t// out\n        /* \"#utility.yul\":5558:6323   */\n    tag_118:\n        /* \"#utility.yul\":5644:5650   */\n      0x00\n        /* \"#utility.yul\":5652:5658   */\n      dup1\n        /* \"#utility.yul\":5660:5666   */\n      0x00\n        /* \"#utility.yul\":5668:5674   */\n      dup1\n        /* \"#utility.yul\":5717:5720   */\n      0x80\n        /* \"#utility.yul\":5705:5714   */\n      dup6\n        /* \"#utility.yul\":5696:5703   */\n      dup8\n        /* \"#utility.yul\":5692:5715   */\n      sub\n        /* \"#utility.yul\":5688:5721   */\n      slt\n        /* \"#utility.yul\":5685:5805   */\n      iszero\n      tag_436\n      jumpi\n        /* \"#utility.yul\":5724:5803   */\n      tag_437\n      tag_391\n      jump\t// in\n    tag_437:\n        /* \"#utility.yul\":5685:5805   */\n    tag_436:\n        /* \"#utility.yul\":5844:5845   */\n      0x00\n        /* \"#utility.yul\":5869:5922   */\n      tag_438\n        /* \"#utility.yul\":5914:5921   */\n      dup8\n        /* \"#utility.yul\":5905:5911   */\n      dup3\n        /* \"#utility.yul\":5894:5903   */\n      dup9\n        /* \"#utility.yul\":5890:5912   */\n      add\n        /* \"#utility.yul\":5869:5922   */\n      tag_384\n      jump\t// in\n    tag_438:\n        /* \"#utility.yul\":5859:5922   */\n      swap5\n      pop\n        /* \"#utility.yul\":5815:5932   */\n      pop\n        /* \"#utility.yul\":5971:5973   */\n      0x20\n        /* \"#utility.yul\":5997:6050   */\n      tag_439\n        /* \"#utility.yul\":6042:6049   */\n      dup8\n        /* \"#utility.yul\":6033:6039   */\n      dup3\n        /* \"#utility.yul\":6022:6031   */\n      dup9\n        /* \"#utility.yul\":6018:6040   */\n      add\n        /* \"#utility.yul\":5997:6050   */\n      tag_374\n      jump\t// in\n    tag_439:\n        /* \"#utility.yul\":5987:6050   */\n      swap4\n      pop\n        /* \"#utility.yul\":5942:6060   */\n      pop\n        /* \"#utility.yul\":6099:6101   */\n      0x40\n        /* \"#utility.yul\":6125:6178   */\n      tag_440\n        /* \"#utility.yul\":6170:6177   */\n      dup8\n        /* \"#utility.yul\":6161:6167   */\n      dup3\n        /* \"#utility.yul\":6150:6159   */\n      dup9\n        /* \"#utility.yul\":6146:6168   */\n      add\n        /* \"#utility.yul\":6125:6178   */\n      tag_374\n      jump\t// in\n    tag_440:\n        /* \"#utility.yul\":6115:6178   */\n      swap3\n      pop\n        /* \"#utility.yul\":6070:6188   */\n      pop\n        /* \"#utility.yul\":6227:6229   */\n      0x60\n        /* \"#utility.yul\":6253:6306   */\n      tag_441\n        /* \"#utility.yul\":6298:6305   */\n      dup8\n        /* \"#utility.yul\":6289:6295   */\n      dup3\n        /* \"#utility.yul\":6278:6287   */\n      dup9\n        /* \"#utility.yul\":6274:6296   */\n      add\n        /* \"#utility.yul\":6253:6306   */\n      tag_384\n      jump\t// in\n    tag_441:\n        /* \"#utility.yul\":6243:6306   */\n      swap2\n      pop\n        /* \"#utility.yul\":6198:6316   */\n      pop\n        /* \"#utility.yul\":5558:6323   */\n      swap3\n      swap6\n      swap2\n      swap5\n      pop\n      swap3\n      pop\n      jump\t// out\n        /* \"#utility.yul\":6329:6803   */\n    tag_41:\n        /* \"#utility.yul\":6397:6403   */\n      0x00\n        /* \"#utility.yul\":6405:6411   */\n      dup1\n        /* \"#utility.yul\":6454:6456   */\n      0x40\n        /* \"#utility.yul\":6442:6451   */\n      dup4\n        /* \"#utility.yul\":6433:6440   */\n      dup6\n        /* \"#utility.yul\":6429:6452   */\n      sub\n        /* \"#utility.yul\":6425:6457   */\n      slt\n        /* \"#utility.yul\":6422:6541   */\n      iszero\n      tag_443\n      jumpi\n        /* \"#utility.yul\":6460:6539   */\n      tag_444\n      tag_391\n      jump\t// in\n    tag_444:\n        /* \"#utility.yul\":6422:6541   */\n    tag_443:\n        /* \"#utility.yul\":6580:6581   */\n      0x00\n        /* \"#utility.yul\":6605:6658   */\n      tag_445\n        /* \"#utility.yul\":6650:6657   */\n      dup6\n        /* \"#utility.yul\":6641:6647   */\n      dup3\n        /* \"#utility.yul\":6630:6639   */\n      dup7\n        /* \"#utility.yul\":6626:6648   */\n      add\n        /* \"#utility.yul\":6605:6658   */\n      tag_384\n      jump\t// in\n    tag_445:\n        /* \"#utility.yul\":6595:6658   */\n      swap3\n      pop\n        /* \"#utility.yul\":6551:6668   */\n      pop\n        /* \"#utility.yul\":6707:6709   */\n      0x20\n        /* \"#utility.yul\":6733:6786   */\n      tag_446\n        /* \"#utility.yul\":6778:6785   */\n      dup6\n        /* \"#utility.yul\":6769:6775   */\n      dup3\n        /* \"#utility.yul\":6758:6767   */\n      dup7\n        /* \"#utility.yul\":6754:6776   */\n      add\n        /* \"#utility.yul\":6733:6786   */\n      tag_384\n      jump\t// in\n    tag_446:\n        /* \"#utility.yul\":6723:6786   */\n      swap2\n      pop\n        /* \"#utility.yul\":6678:6796   */\n      pop\n        /* \"#utility.yul\":6329:6803   */\n      swap3\n      pop\n      swap3\n      swap1\n      pop\n      jump\t// out\n        /* \"#utility.yul\":6809:7754   */\n    tag_81:\n        /* \"#utility.yul\":6905:6911   */\n      0x00\n        /* \"#utility.yul\":6913:6919   */\n      dup1\n        /* \"#utility.yul\":6921:6927   */\n      0x00\n        /* \"#utility.yul\":6929:6935   */\n      dup1\n        /* \"#utility.yul\":6978:6981   */\n      0x80\n        /* \"#utility.yul\":6966:6975   */\n      dup6\n        /* \"#utility.yul\":6957:6964   */\n      dup8\n        /* \"#utility.yul\":6953:6976   */\n      sub\n        /* \"#utility.yul\":6949:6982   */\n      slt\n        /* \"#utility.yul\":6946:7066   */\n      iszero\n      tag_448\n      jumpi\n        /* \"#utility.yul\":6985:7064   */\n      tag_449\n      tag_391\n      jump\t// in\n    tag_449:\n        /* \"#utility.yul\":6946:7066   */\n    tag_448:\n        /* \"#utility.yul\":7105:7106   */\n      0x00\n        /* \"#utility.yul\":7130:7183   */\n      tag_450\n        /* \"#utility.yul\":7175:7182   */\n      dup8\n        /* \"#utility.yul\":7166:7172   */\n      dup3\n        /* \"#utility.yul\":7155:7164   */\n      dup9\n        /* \"#utility.yul\":7151:7173   */\n      add\n        /* \"#utility.yul\":7130:7183   */\n      tag_384\n      jump\t// in\n    tag_450:\n        /* \"#utility.yul\":7120:7183   */\n      swap5\n      pop\n        /* \"#utility.yul\":7076:7193   */\n      pop\n        /* \"#utility.yul\":7232:7234   */\n      0x20\n        /* \"#utility.yul\":7258:7311   */\n      tag_451\n        /* \"#utility.yul\":7303:7310   */\n      dup8\n        /* \"#utility.yul\":7294:7300   */\n      dup3\n        /* \"#utility.yul\":7283:7292   */\n      dup9\n        /* \"#utility.yul\":7279:7301   */\n      add\n        /* \"#utility.yul\":7258:7311   */\n      tag_384\n      jump\t// in\n    tag_451:\n        /* \"#utility.yul\":7248:7311   */\n      swap4\n      pop\n        /* \"#utility.yul\":7203:7321   */\n      pop\n        /* \"#utility.yul\":7388:7390   */\n      0x40\n        /* \"#utility.yul\":7377:7386   */\n      dup6\n        /* \"#utility.yul\":7373:7391   */\n      add\n        /* \"#utility.yul\":7360:7392   */\n      calldataload\n        /* \"#utility.yul\":7419:7437   */\n      0xffffffffffffffff\n        /* \"#utility.yul\":7411:7417   */\n      dup2\n        /* \"#utility.yul\":7408:7438   */\n      gt\n        /* \"#utility.yul\":7405:7522   */\n      iszero\n      tag_452\n      jumpi\n        /* \"#utility.yul\":7441:7520   */\n      tag_453\n      tag_415\n      jump\t// in\n    tag_453:\n        /* \"#utility.yul\":7405:7522   */\n    tag_452:\n        /* \"#utility.yul\":7546:7609   */\n      tag_454\n        /* \"#utility.yul\":7601:7608   */\n      dup8\n        /* \"#utility.yul\":7592:7598   */\n      dup3\n        /* \"#utility.yul\":7581:7590   */\n      dup9\n        /* \"#utility.yul\":7577:7599   */\n      add\n        /* \"#utility.yul\":7546:7609   */\n      tag_378\n      jump\t// in\n    tag_454:\n        /* \"#utility.yul\":7536:7609   */\n      swap3\n      pop\n        /* \"#utility.yul\":7331:7619   */\n      pop\n        /* \"#utility.yul\":7658:7660   */\n      0x60\n        /* \"#utility.yul\":7684:7737   */\n      tag_455\n        /* \"#utility.yul\":7729:7736   */\n      dup8\n        /* \"#utility.yul\":7720:7726   */\n      dup3\n        /* \"#utility.yul\":7709:7718   */\n      dup9\n        /* \"#utility.yul\":7705:7727   */\n      add\n        /* \"#utility.yul\":7684:7737   */\n      tag_384\n      jump\t// in\n    tag_455:\n        /* \"#utility.yul\":7674:7737   */\n      swap2\n      pop\n        /* \"#utility.yul\":7629:7747   */\n      pop\n        /* \"#utility.yul\":6809:7754   */\n      swap3\n      swap6\n      swap2\n      swap5\n      pop\n      swap3\n      pop\n      jump\t// out\n        /* \"#utility.yul\":7760:8008   */\n    tag_456:\n        /* \"#utility.yul\":7875:7885   */\n      0x00\n        /* \"#utility.yul\":7910:8002   */\n      tag_458\n        /* \"#utility.yul\":7998:8001   */\n      dup4\n        /* \"#utility.yul\":7990:7996   */\n      dup4\n        /* \"#utility.yul\":7910:8002   */\n      tag_459\n      jump\t// in\n    tag_458:\n        /* \"#utility.yul\":7896:8002   */\n      swap1\n      pop\n        /* \"#utility.yul\":7760:8008   */\n      swap3\n      swap2\n      pop\n      pop\n      jump\t// out\n        /* \"#utility.yul\":8014:8262   */\n    tag_460:\n        /* \"#utility.yul\":8129:8139   */\n      0x00\n        /* \"#utility.yul\":8164:8256   */\n      tag_462\n        /* \"#utility.yul\":8252:8255   */\n      dup4\n        /* \"#utility.yul\":8244:8250   */\n      dup4\n        /* \"#utility.yul\":8164:8256   */\n      tag_463\n      jump\t// in\n    tag_462:\n        /* \"#utility.yul\":8150:8256   */\n      swap1\n      pop\n        /* \"#utility.yul\":8014:8262   */\n      swap3\n      swap2\n      pop\n      pop\n      jump\t// out\n        /* \"#utility.yul\":8268:8376   */\n    tag_464:\n        /* \"#utility.yul\":8345:8369   */\n      tag_466\n        /* \"#utility.yul\":8363:8368   */\n      dup2\n        /* \"#utility.yul\":8345:8369   */\n      tag_467\n      jump\t// in\n    tag_466:\n        /* \"#utility.yul\":8340:8343   */\n      dup3\n        /* \"#utility.yul\":8333:8370   */\n      mstore\n        /* \"#utility.yul\":8268:8376   */\n      pop\n      pop\n      jump\t// out\n        /* \"#utility.yul\":8382:8500   */\n    tag_468:\n        /* \"#utility.yul\":8469:8493   */\n      tag_470\n        /* \"#utility.yul\":8487:8492   */\n      dup2\n        /* \"#utility.yul\":8469:8493   */\n      tag_467\n      jump\t// in\n    tag_470:\n        /* \"#utility.yul\":8464:8467   */\n      dup3\n        /* \"#utility.yul\":8457:8494   */\n      mstore\n        /* \"#utility.yul\":8382:8500   */\n      pop\n      pop\n      jump\t// out\n        /* \"#utility.yul\":8564:9659   */\n    tag_471:\n        /* \"#utility.yul\":8729:8732   */\n      0x00\n        /* \"#utility.yul\":8758:8835   */\n      tag_473\n        /* \"#utility.yul\":8829:8834   */\n      dup3\n        /* \"#utility.yul\":8758:8835   */\n      tag_474\n      jump\t// in\n    tag_473:\n        /* \"#utility.yul\":8851:8960   */\n      tag_475\n        /* \"#utility.yul\":8953:8959   */\n      dup2\n        /* \"#utility.yul\":8948:8951   */\n      dup6\n        /* \"#utility.yul\":8851:8960   */\n      tag_476\n      jump\t// in\n    tag_475:\n        /* \"#utility.yul\":8844:8960   */\n      swap4\n      pop\n        /* \"#utility.yul\":8986:8989   */\n      dup4\n        /* \"#utility.yul\":9031:9035   */\n      0x20\n        /* \"#utility.yul\":9023:9029   */\n      dup3\n        /* \"#utility.yul\":9019:9036   */\n      mul\n        /* \"#utility.yul\":9014:9017   */\n      dup6\n        /* \"#utility.yul\":9010:9037   */\n      add\n        /* \"#utility.yul\":9061:9140   */\n      tag_477\n        /* \"#utility.yul\":9134:9139   */\n      dup6\n        /* \"#utility.yul\":9061:9140   */\n      tag_478\n      jump\t// in\n    tag_477:\n        /* \"#utility.yul\":9163:9170   */\n      dup1\n        /* \"#utility.yul\":9194:9195   */\n      0x00\n        /* \"#utility.yul\":9179:9614   */\n    tag_479:\n        /* \"#utility.yul\":9204:9210   */\n      dup6\n        /* \"#utility.yul\":9201:9202   */\n      dup2\n        /* \"#utility.yul\":9198:9211   */\n      lt\n        /* \"#utility.yul\":9179:9614   */\n      iszero\n      tag_481\n      jumpi\n        /* \"#utility.yul\":9275:9284   */\n      dup5\n        /* \"#utility.yul\":9269:9273   */\n      dup5\n        /* \"#utility.yul\":9265:9285   */\n      sub\n        /* \"#utility.yul\":9260:9263   */\n      dup10\n        /* \"#utility.yul\":9253:9286   */\n      mstore\n        /* \"#utility.yul\":9326:9332   */\n      dup2\n        /* \"#utility.yul\":9320:9333   */\n      mload\n        /* \"#utility.yul\":9354:9464   */\n      tag_482\n        /* \"#utility.yul\":9459:9463   */\n      dup6\n        /* \"#utility.yul\":9444:9457   */\n      dup3\n        /* \"#utility.yul\":9354:9464   */\n      tag_456\n      jump\t// in\n    tag_482:\n        /* \"#utility.yul\":9346:9464   */\n      swap5\n      pop\n        /* \"#utility.yul\":9487:9570   */\n      tag_483\n        /* \"#utility.yul\":9563:9569   */\n      dup4\n        /* \"#utility.yul\":9487:9570   */\n      tag_484\n      jump\t// in\n    tag_483:\n        /* \"#utility.yul\":9477:9570   */\n      swap3\n      pop\n        /* \"#utility.yul\":9599:9603   */\n      0x20\n        /* \"#utility.yul\":9594:9597   */\n      dup11\n        /* \"#utility.yul\":9590:9604   */\n      add\n        /* \"#utility.yul\":9583:9604   */\n      swap10\n      pop\n        /* \"#utility.yul\":9239:9614   */\n      pop\n        /* \"#utility.yul\":9226:9227   */\n      0x01\n        /* \"#utility.yul\":9223:9224   */\n      dup2\n        /* \"#utility.yul\":9219:9228   */\n      add\n        /* \"#utility.yul\":9214:9228   */\n      swap1\n      pop\n        /* \"#utility.yul\":9179:9614   */\n      jump(tag_479)\n    tag_481:\n        /* \"#utility.yul\":9183:9197   */\n      pop\n        /* \"#utility.yul\":9630:9634   */\n      dup3\n        /* \"#utility.yul\":9623:9634   */\n      swap8\n      pop\n        /* \"#utility.yul\":9650:9653   */\n      dup8\n        /* \"#utility.yul\":9643:9653   */\n      swap6\n      pop\n        /* \"#utility.yul\":8734:9659   */\n      pop\n      pop\n      pop\n      pop\n      pop\n        /* \"#utility.yul\":8564:9659   */\n      swap3\n      swap2\n      pop\n      pop\n      jump\t// out\n        /* \"#utility.yul\":9723:10818   */\n    tag_485:\n        /* \"#utility.yul\":9888:9891   */\n      0x00\n        /* \"#utility.yul\":9917:9994   */\n      tag_487\n        /* \"#utility.yul\":9988:9993   */\n      dup3\n        /* \"#utility.yul\":9917:9994   */\n      tag_488\n      jump\t// in\n    tag_487:\n        /* \"#utility.yul\":10010:10119   */\n      tag_489\n        /* \"#utility.yul\":10112:10118   */\n      dup2\n        /* \"#utility.yul\":10107:10110   */\n      dup6\n        /* \"#utility.yul\":10010:10119   */\n      tag_490\n      jump\t// in\n    tag_489:\n        /* \"#utility.yul\":10003:10119   */\n      swap4\n      pop\n        /* \"#utility.yul\":10145:10148   */\n      dup4\n        /* \"#utility.yul\":10190:10194   */\n      0x20\n        /* \"#utility.yul\":10182:10188   */\n      dup3\n        /* \"#utility.yul\":10178:10195   */\n      mul\n        /* \"#utility.yul\":10173:10176   */\n      dup6\n        /* \"#utility.yul\":10169:10196   */\n      add\n        /* \"#utility.yul\":10220:10299   */\n      tag_491\n        /* \"#utility.yul\":10293:10298   */\n      dup6\n        /* \"#utility.yul\":10220:10299   */\n      tag_492\n      jump\t// in\n    tag_491:\n        /* \"#utility.yul\":10322:10329   */\n      dup1\n        /* \"#utility.yul\":10353:10354   */\n      0x00\n        /* \"#utility.yul\":10338:10773   */\n    tag_493:\n        /* \"#utility.yul\":10363:10369   */\n      dup6\n        /* \"#utility.yul\":10360:10361   */\n      dup2\n        /* \"#utility.yul\":10357:10370   */\n      lt\n        /* \"#utility.yul\":10338:10773   */\n      iszero\n      tag_495\n      jumpi\n        /* \"#utility.yul\":10434:10443   */\n      dup5\n        /* \"#utility.yul\":10428:10432   */\n      dup5\n        /* \"#utility.yul\":10424:10444   */\n      sub\n        /* \"#utility.yul\":10419:10422   */\n      dup10\n        /* \"#utility.yul\":10412:10445   */\n      mstore\n        /* \"#utility.yul\":10485:10491   */\n      dup2\n        /* \"#utility.yul\":10479:10492   */\n      mload\n        /* \"#utility.yul\":10513:10623   */\n      tag_496\n        /* \"#utility.yul\":10618:10622   */\n      dup6\n        /* \"#utility.yul\":10603:10616   */\n      dup3\n        /* \"#utility.yul\":10513:10623   */\n      tag_460\n      jump\t// in\n    tag_496:\n        /* \"#utility.yul\":10505:10623   */\n      swap5\n      pop\n        /* \"#utility.yul\":10646:10729   */\n      tag_497\n        /* \"#utility.yul\":10722:10728   */\n      dup4\n        /* \"#utility.yul\":10646:10729   */\n      tag_498\n      jump\t// in\n    tag_497:\n        /* \"#utility.yul\":10636:10729   */\n      swap3\n      pop\n        /* \"#utility.yul\":10758:10762   */\n      0x20\n        /* \"#utility.yul\":10753:10756   */\n      dup11\n        /* \"#utility.yul\":10749:10763   */\n      add\n        /* \"#utility.yul\":10742:10763   */\n      swap10\n      pop\n        /* \"#utility.yul\":10398:10773   */\n      pop\n        /* \"#utility.yul\":10385:10386   */\n      0x01\n        /* \"#utility.yul\":10382:10383   */\n      dup2\n        /* \"#utility.yul\":10378:10387   */\n      add\n        /* \"#utility.yul\":10373:10387   */\n      swap1\n      pop\n        /* \"#utility.yul\":10338:10773   */\n      jump(tag_493)\n    tag_495:\n        /* \"#utility.yul\":10342:10356   */\n      pop\n        /* \"#utility.yul\":10789:10793   */\n      dup3\n        /* \"#utility.yul\":10782:10793   */\n      swap8\n      pop\n        /* \"#utility.yul\":10809:10812   */\n      dup8\n        /* \"#utility.yul\":10802:10812   */\n      swap6\n      pop\n        /* \"#utility.yul\":9893:10818   */\n      pop\n      pop\n      pop\n      pop\n      pop\n        /* \"#utility.yul\":9723:10818   */\n      swap3\n      swap2\n      pop\n      pop\n      jump\t// out\n        /* \"#utility.yul\":10824:10933   */\n    tag_499:\n        /* \"#utility.yul\":10905:10926   */\n      tag_501\n        /* \"#utility.yul\":10920:10925   */\n      dup2\n        /* \"#utility.yul\":10905:10926   */\n      tag_502\n      jump\t// in\n    tag_501:\n        /* \"#utility.yul\":10900:10903   */\n      dup3\n        /* \"#utility.yul\":10893:10927   */\n      mstore\n        /* \"#utility.yul\":10824:10933   */\n      pop\n      pop\n      jump\t// out\n        /* \"#utility.yul\":10939:11283   */\n    tag_503:\n        /* \"#utility.yul\":11017:11020   */\n      0x00\n        /* \"#utility.yul\":11045:11084   */\n      tag_505\n        /* \"#utility.yul\":11078:11083   */\n      dup3\n        /* \"#utility.yul\":11045:11084   */\n      tag_506\n      jump\t// in\n    tag_505:\n        /* \"#utility.yul\":11100:11161   */\n      tag_507\n        /* \"#utility.yul\":11154:11160   */\n      dup2\n        /* \"#utility.yul\":11149:11152   */\n      dup6\n        /* \"#utility.yul\":11100:11161   */\n      tag_508\n      jump\t// in\n    tag_507:\n        /* \"#utility.yul\":11093:11161   */\n      swap4\n      pop\n        /* \"#utility.yul\":11170:11222   */\n      tag_509\n        /* \"#utility.yul\":11215:11221   */\n      dup2\n        /* \"#utility.yul\":11210:11213   */\n      dup6\n        /* \"#utility.yul\":11203:11207   */\n      0x20\n        /* \"#utility.yul\":11196:11201   */\n      dup7\n        /* \"#utility.yul\":11192:11208   */\n      add\n        /* \"#utility.yul\":11170:11222   */\n      tag_510\n      jump\t// in\n    tag_509:\n        /* \"#utility.yul\":11247:11276   */\n      tag_511\n        /* \"#utility.yul\":11269:11275   */\n      dup2\n        /* \"#utility.yul\":11247:11276   */\n      tag_512\n      jump\t// in\n    tag_511:\n        /* \"#utility.yul\":11242:11245   */\n      dup5\n        /* \"#utility.yul\":11238:11277   */\n      add\n        /* \"#utility.yul\":11231:11277   */\n      swap2\n      pop\n        /* \"#utility.yul\":11021:11283   */\n      pop\n        /* \"#utility.yul\":10939:11283   */\n      swap3\n      swap2\n      pop\n      pop\n      jump\t// out\n        /* \"#utility.yul\":11289:11653   */\n    tag_513:\n        /* \"#utility.yul\":11377:11380   */\n      0x00\n        /* \"#utility.yul\":11405:11444   */\n      tag_515\n        /* \"#utility.yul\":11438:11443   */\n      dup3\n        /* \"#utility.yul\":11405:11444   */\n      tag_506\n      jump\t// in\n    tag_515:\n        /* \"#utility.yul\":11460:11531   */\n      tag_516\n        /* \"#utility.yul\":11524:11530   */\n      dup2\n        /* \"#utility.yul\":11519:11522   */\n      dup6\n        /* \"#utility.yul\":11460:11531   */\n      tag_517\n      jump\t// in\n    tag_516:\n        /* \"#utility.yul\":11453:11531   */\n      swap4\n      pop\n        /* \"#utility.yul\":11540:11592   */\n      tag_518\n        /* \"#utility.yul\":11585:11591   */\n      dup2\n        /* \"#utility.yul\":11580:11583   */\n      dup6\n        /* \"#utility.yul\":11573:11577   */\n      0x20\n        /* \"#utility.yul\":11566:11571   */\n      dup7\n        /* \"#utility.yul\":11562:11578   */\n      add\n        /* \"#utility.yul\":11540:11592   */\n      tag_510\n      jump\t// in\n    tag_518:\n        /* \"#utility.yul\":11617:11646   */\n      tag_519\n        /* \"#utility.yul\":11639:11645   */\n      dup2\n        /* \"#utility.yul\":11617:11646   */\n      tag_512\n      jump\t// in\n    tag_519:\n        /* \"#utility.yul\":11612:11615   */\n      dup5\n        /* \"#utility.yul\":11608:11647   */\n      add\n        /* \"#utility.yul\":11601:11647   */\n      swap2\n      pop\n        /* \"#utility.yul\":11381:11653   */\n      pop\n        /* \"#utility.yul\":11289:11653   */\n      swap3\n      swap2\n      pop\n      pop\n      jump\t// out\n        /* \"#utility.yul\":11659:12025   */\n    tag_520:\n        /* \"#utility.yul\":11801:11804   */\n      0x00\n        /* \"#utility.yul\":11822:11889   */\n      tag_522\n        /* \"#utility.yul\":11886:11888   */\n      0x11\n        /* \"#utility.yul\":11881:11884   */\n      dup4\n        /* \"#utility.yul\":11822:11889   */\n      tag_517\n      jump\t// in\n    tag_522:\n        /* \"#utility.yul\":11815:11889   */\n      swap2\n      pop\n        /* \"#utility.yul\":11898:11991   */\n      tag_523\n        /* \"#utility.yul\":11987:11990   */\n      dup3\n        /* \"#utility.yul\":11898:11991   */\n      tag_524\n      jump\t// in\n    tag_523:\n        /* \"#utility.yul\":12016:12018   */\n      0x20\n        /* \"#utility.yul\":12011:12014   */\n      dup3\n        /* \"#utility.yul\":12007:12019   */\n      add\n        /* \"#utility.yul\":12000:12019   */\n      swap1\n      pop\n        /* \"#utility.yul\":11659:12025   */\n      swap2\n      swap1\n      pop\n      jump\t// out\n        /* \"#utility.yul\":12031:12397   */\n    tag_525:\n        /* \"#utility.yul\":12173:12176   */\n      0x00\n        /* \"#utility.yul\":12194:12261   */\n      tag_527\n        /* \"#utility.yul\":12258:12260   */\n      0x24\n        /* \"#utility.yul\":12253:12256   */\n      dup4\n        /* \"#utility.yul\":12194:12261   */\n      tag_517\n      jump\t// in\n    tag_527:\n        /* \"#utility.yul\":12187:12261   */\n      swap2\n      pop\n        /* \"#utility.yul\":12270:12363   */\n      tag_528\n        /* \"#utility.yul\":12359:12362   */\n      dup3\n        /* \"#utility.yul\":12270:12363   */\n      tag_529\n      jump\t// in\n    tag_528:\n        /* \"#utility.yul\":12388:12390   */\n      0x40\n        /* \"#utility.yul\":12383:12386   */\n      dup3\n        /* \"#utility.yul\":12379:12391   */\n      add\n        /* \"#utility.yul\":12372:12391   */\n      swap1\n      pop\n        /* \"#utility.yul\":12031:12397   */\n      swap2\n      swap1\n      pop\n      jump\t// out\n        /* \"#utility.yul\":12403:12769   */\n    tag_530:\n        /* \"#utility.yul\":12545:12548   */\n      0x00\n        /* \"#utility.yul\":12566:12633   */\n      tag_532\n        /* \"#utility.yul\":12630:12632   */\n      0x1c\n        /* \"#utility.yul\":12625:12628   */\n      dup4\n        /* \"#utility.yul\":12566:12633   */\n      tag_517\n      jump\t// in\n    tag_532:\n        /* \"#utility.yul\":12559:12633   */\n      swap2\n      pop\n        /* \"#utility.yul\":12642:12735   */\n      tag_533\n        /* \"#utility.yul\":12731:12734   */\n      dup3\n        /* \"#utility.yul\":12642:12735   */\n      tag_534\n      jump\t// in\n    tag_533:\n        /* \"#utility.yul\":12760:12762   */\n      0x20\n        /* \"#utility.yul\":12755:12758   */\n      dup3\n        /* \"#utility.yul\":12751:12763   */\n      add\n        /* \"#utility.yul\":12744:12763   */\n      swap1\n      pop\n        /* \"#utility.yul\":12403:12769   */\n      swap2\n      swap1\n      pop\n      jump\t// out\n        /* \"#utility.yul\":12775:13141   */\n    tag_535:\n        /* \"#utility.yul\":12917:12920   */\n      0x00\n        /* \"#utility.yul\":12938:13005   */\n      tag_537\n        /* \"#utility.yul\":13002:13004   */\n      0x22\n        /* \"#utility.yul\":12997:13000   */\n      dup4\n        /* \"#utility.yul\":12938:13005   */\n      tag_517\n      jump\t// in\n    tag_537:\n        /* \"#utility.yul\":12931:13005   */\n      swap2\n      pop\n        /* \"#utility.yul\":13014:13107   */\n      tag_538\n        /* \"#utility.yul\":13103:13106   */\n      dup3\n        /* \"#utility.yul\":13014:13107   */\n      tag_539\n      jump\t// in\n    tag_538:\n        /* \"#utility.yul\":13132:13134   */\n      0x40\n        /* \"#utility.yul\":13127:13130   */\n      dup3\n        /* \"#utility.yul\":13123:13135   */\n      add\n        /* \"#utility.yul\":13116:13135   */\n      swap1\n      pop\n        /* \"#utility.yul\":12775:13141   */\n      swap2\n      swap1\n      pop\n      jump\t// out\n        /* \"#utility.yul\":13147:13513   */\n    tag_540:\n        /* \"#utility.yul\":13289:13292   */\n      0x00\n        /* \"#utility.yul\":13310:13377   */\n      tag_542\n        /* \"#utility.yul\":13374:13376   */\n      0x13\n        /* \"#utility.yul\":13369:13372   */\n      dup4\n        /* \"#utility.yul\":13310:13377   */\n      tag_517\n      jump\t// in\n    tag_542:\n        /* \"#utility.yul\":13303:13377   */\n      swap2\n      pop\n        /* \"#utility.yul\":13386:13479   */\n      tag_543\n        /* \"#utility.yul\":13475:13478   */\n      dup3\n        /* \"#utility.yul\":13386:13479   */\n      tag_544\n      jump\t// in\n    tag_543:\n        /* \"#utility.yul\":13504:13506   */\n      0x20\n        /* \"#utility.yul\":13499:13502   */\n      dup3\n        /* \"#utility.yul\":13495:13507   */\n      add\n        /* \"#utility.yul\":13488:13507   */\n      swap1\n      pop\n        /* \"#utility.yul\":13147:13513   */\n      swap2\n      swap1\n      pop\n      jump\t// out\n        /* \"#utility.yul\":13573:15553   */\n    tag_459:\n        /* \"#utility.yul\":13678:13681   */\n      0x00\n        /* \"#utility.yul\":13714:13720   */\n      0x0120\n        /* \"#utility.yul\":13709:13712   */\n      dup4\n        /* \"#utility.yul\":13705:13721   */\n      add\n        /* \"#utility.yul\":13806:13810   */\n      0x00\n        /* \"#utility.yul\":13799:13804   */\n      dup4\n        /* \"#utility.yul\":13795:13811   */\n      add\n        /* \"#utility.yul\":13789:13812   */\n      mload\n        /* \"#utility.yul\":13825:13888   */\n      tag_546\n        /* \"#utility.yul\":13882:13886   */\n      0x00\n        /* \"#utility.yul\":13877:13880   */\n      dup7\n        /* \"#utility.yul\":13873:13887   */\n      add\n        /* \"#utility.yul\":13859:13871   */\n      dup3\n        /* \"#utility.yul\":13825:13888   */\n      tag_547\n      jump\t// in\n    tag_546:\n        /* \"#utility.yul\":13731:13898   */\n      pop\n        /* \"#utility.yul\":13980:13984   */\n      0x20\n        /* \"#utility.yul\":13973:13978   */\n      dup4\n        /* \"#utility.yul\":13969:13985   */\n      add\n        /* \"#utility.yul\":13963:13986   */\n      mload\n        /* \"#utility.yul\":14033:14036   */\n      dup5\n        /* \"#utility.yul\":14027:14031   */\n      dup3\n        /* \"#utility.yul\":14023:14037   */\n      sub\n        /* \"#utility.yul\":14016:14020   */\n      0x20\n        /* \"#utility.yul\":14011:14014   */\n      dup7\n        /* \"#utility.yul\":14007:14021   */\n      add\n        /* \"#utility.yul\":14000:14038   */\n      mstore\n        /* \"#utility.yul\":14059:14132   */\n      tag_548\n        /* \"#utility.yul\":14127:14131   */\n      dup3\n        /* \"#utility.yul\":14113:14125   */\n      dup3\n        /* \"#utility.yul\":14059:14132   */\n      tag_503\n      jump\t// in\n    tag_548:\n        /* \"#utility.yul\":14051:14132   */\n      swap2\n      pop\n        /* \"#utility.yul\":13908:14143   */\n      pop\n        /* \"#utility.yul\":14229:14233   */\n      0x40\n        /* \"#utility.yul\":14222:14227   */\n      dup4\n        /* \"#utility.yul\":14218:14234   */\n      add\n        /* \"#utility.yul\":14212:14235   */\n      mload\n        /* \"#utility.yul\":14248:14311   */\n      tag_549\n        /* \"#utility.yul\":14305:14309   */\n      0x40\n        /* \"#utility.yul\":14300:14303   */\n      dup7\n        /* \"#utility.yul\":14296:14310   */\n      add\n        /* \"#utility.yul\":14282:14294   */\n      dup3\n        /* \"#utility.yul\":14248:14311   */\n      tag_547\n      jump\t// in\n    tag_549:\n        /* \"#utility.yul\":14153:14321   */\n      pop\n        /* \"#utility.yul\":14405:14409   */\n      0x60\n        /* \"#utility.yul\":14398:14403   */\n      dup4\n        /* \"#utility.yul\":14394:14410   */\n      add\n        /* \"#utility.yul\":14388:14411   */\n      mload\n        /* \"#utility.yul\":14424:14487   */\n      tag_550\n        /* \"#utility.yul\":14481:14485   */\n      0x60\n        /* \"#utility.yul\":14476:14479   */\n      dup7\n        /* \"#utility.yul\":14472:14486   */\n      add\n        /* \"#utility.yul\":14458:14470   */\n      dup3\n        /* \"#utility.yul\":14424:14487   */\n      tag_547\n      jump\t// in\n    tag_550:\n        /* \"#utility.yul\":14331:14497   */\n      pop\n        /* \"#utility.yul\":14579:14583   */\n      0x80\n        /* \"#utility.yul\":14572:14577   */\n      dup4\n        /* \"#utility.yul\":14568:14584   */\n      add\n        /* \"#utility.yul\":14562:14585   */\n      mload\n        /* \"#utility.yul\":14598:14661   */\n      tag_551\n        /* \"#utility.yul\":14655:14659   */\n      0x80\n        /* \"#utility.yul\":14650:14653   */\n      dup7\n        /* \"#utility.yul\":14646:14660   */\n      add\n        /* \"#utility.yul\":14632:14644   */\n      dup3\n        /* \"#utility.yul\":14598:14661   */\n      tag_547\n      jump\t// in\n    tag_551:\n        /* \"#utility.yul\":14507:14671   */\n      pop\n        /* \"#utility.yul\":14754:14758   */\n      0xa0\n        /* \"#utility.yul\":14747:14752   */\n      dup4\n        /* \"#utility.yul\":14743:14759   */\n      add\n        /* \"#utility.yul\":14737:14760   */\n      mload\n        /* \"#utility.yul\":14773:14836   */\n      tag_552\n        /* \"#utility.yul\":14830:14834   */\n      0xa0\n        /* \"#utility.yul\":14825:14828   */\n      dup7\n        /* \"#utility.yul\":14821:14835   */\n      add\n        /* \"#utility.yul\":14807:14819   */\n      dup3\n        /* \"#utility.yul\":14773:14836   */\n      tag_547\n      jump\t// in\n    tag_552:\n        /* \"#utility.yul\":14681:14846   */\n      pop\n        /* \"#utility.yul\":14932:14936   */\n      0xc0\n        /* \"#utility.yul\":14925:14930   */\n      dup4\n        /* \"#utility.yul\":14921:14937   */\n      add\n        /* \"#utility.yul\":14915:14938   */\n      mload\n        /* \"#utility.yul\":14985:14988   */\n      dup5\n        /* \"#utility.yul\":14979:14983   */\n      dup3\n        /* \"#utility.yul\":14975:14989   */\n      sub\n        /* \"#utility.yul\":14968:14972   */\n      0xc0\n        /* \"#utility.yul\":14963:14966   */\n      dup7\n        /* \"#utility.yul\":14959:14973   */\n      add\n        /* \"#utility.yul\":14952:14990   */\n      mstore\n        /* \"#utility.yul\":15011:15084   */\n      tag_553\n        /* \"#utility.yul\":15079:15083   */\n      dup3\n        /* \"#utility.yul\":15065:15077   */\n      dup3\n        /* \"#utility.yul\":15011:15084   */\n      tag_503\n      jump\t// in\n    tag_553:\n        /* \"#utility.yul\":15003:15084   */\n      swap2\n      pop\n        /* \"#utility.yul\":14856:15095   */\n      pop\n        /* \"#utility.yul\":15184:15188   */\n      0xe0\n        /* \"#utility.yul\":15177:15182   */\n      dup4\n        /* \"#utility.yul\":15173:15189   */\n      add\n        /* \"#utility.yul\":15167:15190   */\n      mload\n        /* \"#utility.yul\":15237:15240   */\n      dup5\n        /* \"#utility.yul\":15231:15235   */\n      dup3\n        /* \"#utility.yul\":15227:15241   */\n      sub\n        /* \"#utility.yul\":15220:15224   */\n      0xe0\n        /* \"#utility.yul\":15215:15218   */\n      dup7\n        /* \"#utility.yul\":15211:15225   */\n      add\n        /* \"#utility.yul\":15204:15242   */\n      mstore\n        /* \"#utility.yul\":15263:15336   */\n      tag_554\n        /* \"#utility.yul\":15331:15335   */\n      dup3\n        /* \"#utility.yul\":15317:15329   */\n      dup3\n        /* \"#utility.yul\":15263:15336   */\n      tag_503\n      jump\t// in\n    tag_554:\n        /* \"#utility.yul\":15255:15336   */\n      swap2\n      pop\n        /* \"#utility.yul\":15105:15347   */\n      pop\n        /* \"#utility.yul\":15430:15436   */\n      0x0100\n        /* \"#utility.yul\":15423:15428   */\n      dup4\n        /* \"#utility.yul\":15419:15437   */\n      add\n        /* \"#utility.yul\":15413:15438   */\n      mload\n        /* \"#utility.yul\":15451:15516   */\n      tag_555\n        /* \"#utility.yul\":15508:15514   */\n      0x0100\n        /* \"#utility.yul\":15503:15506   */\n      dup7\n        /* \"#utility.yul\":15499:15515   */\n      add\n        /* \"#utility.yul\":15485:15497   */\n      dup3\n        /* \"#utility.yul\":15451:15516   */\n      tag_464\n      jump\t// in\n    tag_555:\n        /* \"#utility.yul\":15357:15526   */\n      pop\n        /* \"#utility.yul\":15543:15547   */\n      dup1\n        /* \"#utility.yul\":15536:15547   */\n      swap2\n      pop\n        /* \"#utility.yul\":13683:15553   */\n      pop\n        /* \"#utility.yul\":13573:15553   */\n      swap3\n      swap2\n      pop\n      pop\n      jump\t// out\n        /* \"#utility.yul\":15613:16745   */\n    tag_463:\n        /* \"#utility.yul\":15718:15721   */\n      0x00\n        /* \"#utility.yul\":15754:15758   */\n      0xa0\n        /* \"#utility.yul\":15749:15752   */\n      dup4\n        /* \"#utility.yul\":15745:15759   */\n      add\n        /* \"#utility.yul\":15842:15846   */\n      0x00\n        /* \"#utility.yul\":15835:15840   */\n      dup4\n        /* \"#utility.yul\":15831:15847   */\n      add\n        /* \"#utility.yul\":15825:15848   */\n      mload\n        /* \"#utility.yul\":15861:15924   */\n      tag_557\n        /* \"#utility.yul\":15918:15922   */\n      0x00\n        /* \"#utility.yul\":15913:15916   */\n      dup7\n        /* \"#utility.yul\":15909:15923   */\n      add\n        /* \"#utility.yul\":15895:15907   */\n      dup3\n        /* \"#utility.yul\":15861:15924   */\n      tag_547\n      jump\t// in\n    tag_557:\n        /* \"#utility.yul\":15769:15934   */\n      pop\n        /* \"#utility.yul\":16017:16021   */\n      0x20\n        /* \"#utility.yul\":16010:16015   */\n      dup4\n        /* \"#utility.yul\":16006:16022   */\n      add\n        /* \"#utility.yul\":16000:16023   */\n      mload\n        /* \"#utility.yul\":16036:16099   */\n      tag_558\n        /* \"#utility.yul\":16093:16097   */\n      0x20\n        /* \"#utility.yul\":16088:16091   */\n      dup7\n        /* \"#utility.yul\":16084:16098   */\n      add\n        /* \"#utility.yul\":16070:16082   */\n      dup3\n        /* \"#utility.yul\":16036:16099   */\n      tag_547\n      jump\t// in\n    tag_558:\n        /* \"#utility.yul\":15944:16109   */\n      pop\n        /* \"#utility.yul\":16198:16202   */\n      0x40\n        /* \"#utility.yul\":16191:16196   */\n      dup4\n        /* \"#utility.yul\":16187:16203   */\n      add\n        /* \"#utility.yul\":16181:16204   */\n      mload\n        /* \"#utility.yul\":16251:16254   */\n      dup5\n        /* \"#utility.yul\":16245:16249   */\n      dup3\n        /* \"#utility.yul\":16241:16255   */\n      sub\n        /* \"#utility.yul\":16234:16238   */\n      0x40\n        /* \"#utility.yul\":16229:16232   */\n      dup7\n        /* \"#utility.yul\":16225:16239   */\n      add\n        /* \"#utility.yul\":16218:16256   */\n      mstore\n        /* \"#utility.yul\":16277:16350   */\n      tag_559\n        /* \"#utility.yul\":16345:16349   */\n      dup3\n        /* \"#utility.yul\":16331:16343   */\n      dup3\n        /* \"#utility.yul\":16277:16350   */\n      tag_503\n      jump\t// in\n    tag_559:\n        /* \"#utility.yul\":16269:16350   */\n      swap2\n      pop\n        /* \"#utility.yul\":16119:16361   */\n      pop\n        /* \"#utility.yul\":16444:16448   */\n      0x60\n        /* \"#utility.yul\":16437:16442   */\n      dup4\n        /* \"#utility.yul\":16433:16449   */\n      add\n        /* \"#utility.yul\":16427:16450   */\n      mload\n        /* \"#utility.yul\":16463:16526   */\n      tag_560\n        /* \"#utility.yul\":16520:16524   */\n      0x60\n        /* \"#utility.yul\":16515:16518   */\n      dup7\n        /* \"#utility.yul\":16511:16525   */\n      add\n        /* \"#utility.yul\":16497:16509   */\n      dup3\n        /* \"#utility.yul\":16463:16526   */\n      tag_464\n      jump\t// in\n    tag_560:\n        /* \"#utility.yul\":16371:16536   */\n      pop\n        /* \"#utility.yul\":16626:16630   */\n      0x80\n        /* \"#utility.yul\":16619:16624   */\n      dup4\n        /* \"#utility.yul\":16615:16631   */\n      add\n        /* \"#utility.yul\":16609:16632   */\n      mload\n        /* \"#utility.yul\":16645:16708   */\n      tag_561\n        /* \"#utility.yul\":16702:16706   */\n      0x80\n        /* \"#utility.yul\":16697:16700   */\n      dup7\n        /* \"#utility.yul\":16693:16707   */\n      add\n        /* \"#utility.yul\":16679:16691   */\n      dup3\n        /* \"#utility.yul\":16645:16708   */\n      tag_547\n      jump\t// in\n    tag_561:\n        /* \"#utility.yul\":16546:16718   */\n      pop\n        /* \"#utility.yul\":16735:16739   */\n      dup1\n        /* \"#utility.yul\":16728:16739   */\n      swap2\n      pop\n        /* \"#utility.yul\":15723:16745   */\n      pop\n        /* \"#utility.yul\":15613:16745   */\n      swap3\n      swap2\n      pop\n      pop\n      jump\t// out\n        /* \"#utility.yul\":16751:16859   */\n    tag_547:\n        /* \"#utility.yul\":16828:16852   */\n      tag_563\n        /* \"#utility.yul\":16846:16851   */\n      dup2\n        /* \"#utility.yul\":16828:16852   */\n      tag_564\n      jump\t// in\n    tag_563:\n        /* \"#utility.yul\":16823:16826   */\n      dup3\n        /* \"#utility.yul\":16816:16853   */\n      mstore\n        /* \"#utility.yul\":16751:16859   */\n      pop\n      pop\n      jump\t// out\n        /* \"#utility.yul\":16865:16983   */\n    tag_565:\n        /* \"#utility.yul\":16952:16976   */\n      tag_567\n        /* \"#utility.yul\":16970:16975   */\n      dup2\n        /* \"#utility.yul\":16952:16976   */\n      tag_564\n      jump\t// in\n    tag_567:\n        /* \"#utility.yul\":16947:16950   */\n      dup3\n        /* \"#utility.yul\":16940:16977   */\n      mstore\n        /* \"#utility.yul\":16865:16983   */\n      pop\n      pop\n      jump\t// out\n        /* \"#utility.yul\":16989:17211   */\n    tag_93:\n        /* \"#utility.yul\":17082:17086   */\n      0x00\n        /* \"#utility.yul\":17120:17122   */\n      0x20\n        /* \"#utility.yul\":17109:17118   */\n      dup3\n        /* \"#utility.yul\":17105:17123   */\n      add\n        /* \"#utility.yul\":17097:17123   */\n      swap1\n      pop\n        /* \"#utility.yul\":17133:17204   */\n      tag_569\n        /* \"#utility.yul\":17201:17202   */\n      0x00\n        /* \"#utility.yul\":17190:17199   */\n      dup4\n        /* \"#utility.yul\":17186:17203   */\n      add\n        /* \"#utility.yul\":17177:17183   */\n      dup5\n        /* \"#utility.yul\":17133:17204   */\n      tag_468\n      jump\t// in\n    tag_569:\n        /* \"#utility.yul\":16989:17211   */\n      swap3\n      swap2\n      pop\n      pop\n      jump\t// out\n        /* \"#utility.yul\":17217:17647   */\n    tag_71:\n        /* \"#utility.yul\":17360:17364   */\n      0x00\n        /* \"#utility.yul\":17398:17400   */\n      0x60\n        /* \"#utility.yul\":17387:17396   */\n      dup3\n        /* \"#utility.yul\":17383:17401   */\n      add\n        /* \"#utility.yul\":17375:17401   */\n      swap1\n      pop\n        /* \"#utility.yul\":17411:17482   */\n      tag_571\n        /* \"#utility.yul\":17479:17480   */\n      0x00\n        /* \"#utility.yul\":17468:17477   */\n      dup4\n        /* \"#utility.yul\":17464:17481   */\n      add\n        /* \"#utility.yul\":17455:17461   */\n      dup7\n        /* \"#utility.yul\":17411:17482   */\n      tag_468\n      jump\t// in\n    tag_571:\n        /* \"#utility.yul\":17492:17564   */\n      tag_572\n        /* \"#utility.yul\":17560:17562   */\n      0x20\n        /* \"#utility.yul\":17549:17558   */\n      dup4\n        /* \"#utility.yul\":17545:17563   */\n      add\n        /* \"#utility.yul\":17536:17542   */\n      dup6\n        /* \"#utility.yul\":17492:17564   */\n      tag_565\n      jump\t// in\n    tag_572:\n        /* \"#utility.yul\":17574:17640   */\n      tag_573\n        /* \"#utility.yul\":17636:17638   */\n      0x40\n        /* \"#utility.yul\":17625:17634   */\n      dup4\n        /* \"#utility.yul\":17621:17639   */\n      add\n        /* \"#utility.yul\":17612:17618   */\n      dup5\n        /* \"#utility.yul\":17574:17640   */\n      tag_499\n      jump\t// in\n    tag_573:\n        /* \"#utility.yul\":17217:17647   */\n      swap5\n      swap4\n      pop\n      pop\n      pop\n      pop\n      jump\t// out\n        /* \"#utility.yul\":17653:18118   */\n    tag_135:\n        /* \"#utility.yul\":17842:17846   */\n      0x00\n        /* \"#utility.yul\":17880:17882   */\n      0x20\n        /* \"#utility.yul\":17869:17878   */\n      dup3\n        /* \"#utility.yul\":17865:17883   */\n      add\n        /* \"#utility.yul\":17857:17883   */\n      swap1\n      pop\n        /* \"#utility.yul\":17929:17938   */\n      dup2\n        /* \"#utility.yul\":17923:17927   */\n      dup2\n        /* \"#utility.yul\":17919:17939   */\n      sub\n        /* \"#utility.yul\":17915:17916   */\n      0x00\n        /* \"#utility.yul\":17904:17913   */\n      dup4\n        /* \"#utility.yul\":17900:17917   */\n      add\n        /* \"#utility.yul\":17893:17940   */\n      mstore\n        /* \"#utility.yul\":17957:18111   */\n      tag_575\n        /* \"#utility.yul\":18106:18110   */\n      dup2\n        /* \"#utility.yul\":18097:18103   */\n      dup5\n        /* \"#utility.yul\":17957:18111   */\n      tag_471\n      jump\t// in\n    tag_575:\n        /* \"#utility.yul\":17949:18111   */\n      swap1\n      pop\n        /* \"#utility.yul\":17653:18118   */\n      swap3\n      swap2\n      pop\n      pop\n      jump\t// out\n        /* \"#utility.yul\":18124:18589   */\n    tag_104:\n        /* \"#utility.yul\":18313:18317   */\n      0x00\n        /* \"#utility.yul\":18351:18353   */\n      0x20\n        /* \"#utility.yul\":18340:18349   */\n      dup3\n        /* \"#utility.yul\":18336:18354   */\n      add\n        /* \"#utility.yul\":18328:18354   */\n      swap1\n      pop\n        /* \"#utility.yul\":18400:18409   */\n      dup2\n        /* \"#utility.yul\":18394:18398   */\n      dup2\n        /* \"#utility.yul\":18390:18410   */\n      sub\n        /* \"#utility.yul\":18386:18387   */\n      0x00\n        /* \"#utility.yul\":18375:18384   */\n      dup4\n        /* \"#utility.yul\":18371:18388   */\n      add\n        /* \"#utility.yul\":18364:18411   */\n      mstore\n        /* \"#utility.yul\":18428:18582   */\n      tag_577\n        /* \"#utility.yul\":18577:18581   */\n      dup2\n        /* \"#utility.yul\":18568:18574   */\n      dup5\n        /* \"#utility.yul\":18428:18582   */\n      tag_485\n      jump\t// in\n    tag_577:\n        /* \"#utility.yul\":18420:18582   */\n      swap1\n      pop\n        /* \"#utility.yul\":18124:18589   */\n      swap3\n      swap2\n      pop\n      pop\n      jump\t// out\n        /* \"#utility.yul\":18595:18805   */\n    tag_37:\n        /* \"#utility.yul\":18682:18686   */\n      0x00\n        /* \"#utility.yul\":18720:18722   */\n      0x20\n        /* \"#utility.yul\":18709:18718   */\n      dup3\n        /* \"#utility.yul\":18705:18723   */\n      add\n        /* \"#utility.yul\":18697:18723   */\n      swap1\n      pop\n        /* \"#utility.yul\":18733:18798   */\n      tag_579\n        /* \"#utility.yul\":18795:18796   */\n      0x00\n        /* \"#utility.yul\":18784:18793   */\n      dup4\n        /* \"#utility.yul\":18780:18797   */\n      add\n        /* \"#utility.yul\":18771:18777   */\n      dup5\n        /* \"#utility.yul\":18733:18798   */\n      tag_499\n      jump\t// in\n    tag_579:\n        /* \"#utility.yul\":18595:18805   */\n      swap3\n      swap2\n      pop\n      pop\n      jump\t// out\n        /* \"#utility.yul\":18811:19230   */\n    tag_190:\n        /* \"#utility.yul\":18977:18981   */\n      0x00\n        /* \"#utility.yul\":19015:19017   */\n      0x20\n        /* \"#utility.yul\":19004:19013   */\n      dup3\n        /* \"#utility.yul\":19000:19018   */\n      add\n        /* \"#utility.yul\":18992:19018   */\n      swap1\n      pop\n        /* \"#utility.yul\":19064:19073   */\n      dup2\n        /* \"#utility.yul\":19058:19062   */\n      dup2\n        /* \"#utility.yul\":19054:19074   */\n      sub\n        /* \"#utility.yul\":19050:19051   */\n      0x00\n        /* \"#utility.yul\":19039:19048   */\n      dup4\n        /* \"#utility.yul\":19035:19052   */\n      add\n        /* \"#utility.yul\":19028:19075   */\n      mstore\n        /* \"#utility.yul\":19092:19223   */\n      tag_581\n        /* \"#utility.yul\":19218:19222   */\n      dup2\n        /* \"#utility.yul\":19092:19223   */\n      tag_520\n      jump\t// in\n    tag_581:\n        /* \"#utility.yul\":19084:19223   */\n      swap1\n      pop\n        /* \"#utility.yul\":18811:19230   */\n      swap2\n      swap1\n      pop\n      jump\t// out\n        /* \"#utility.yul\":19236:19655   */\n    tag_340:\n        /* \"#utility.yul\":19402:19406   */\n      0x00\n        /* \"#utility.yul\":19440:19442   */\n      0x20\n        /* \"#utility.yul\":19429:19438   */\n      dup3\n        /* \"#utility.yul\":19425:19443   */\n      add\n        /* \"#utility.yul\":19417:19443   */\n      swap1\n      pop\n        /* \"#utility.yul\":19489:19498   */\n      dup2\n        /* \"#utility.yul\":19483:19487   */\n      dup2\n        /* \"#utility.yul\":19479:19499   */\n      sub\n        /* \"#utility.yul\":19475:19476   */\n      0x00\n        /* \"#utility.yul\":19464:19473   */\n      dup4\n        /* \"#utility.yul\":19460:19477   */\n      add\n        /* \"#utility.yul\":19453:19500   */\n      mstore\n        /* \"#utility.yul\":19517:19648   */\n      tag_583\n        /* \"#utility.yul\":19643:19647   */\n      dup2\n        /* \"#utility.yul\":19517:19648   */\n      tag_525\n      jump\t// in\n    tag_583:\n        /* \"#utility.yul\":19509:19648   */\n      swap1\n      pop\n        /* \"#utility.yul\":19236:19655   */\n      swap2\n      swap1\n      pop\n      jump\t// out\n        /* \"#utility.yul\":19661:20080   */\n    tag_202:\n        /* \"#utility.yul\":19827:19831   */\n      0x00\n        /* \"#utility.yul\":19865:19867   */\n      0x20\n        /* \"#utility.yul\":19854:19863   */\n      dup3\n        /* \"#utility.yul\":19850:19868   */\n      add\n        /* \"#utility.yul\":19842:19868   */\n      swap1\n      pop\n        /* \"#utility.yul\":19914:19923   */\n      dup2\n        /* \"#utility.yul\":19908:19912   */\n      dup2\n        /* \"#utility.yul\":19904:19924   */\n      sub\n        /* \"#utility.yul\":19900:19901   */\n      0x00\n        /* \"#utility.yul\":19889:19898   */\n      dup4\n        /* \"#utility.yul\":19885:19902   */\n      add\n        /* \"#utility.yul\":19878:19925   */\n      mstore\n        /* \"#utility.yul\":19942:20073   */\n      tag_585\n        /* \"#utility.yul\":20068:20072   */\n      dup2\n        /* \"#utility.yul\":19942:20073   */\n      tag_530\n      jump\t// in\n    tag_585:\n        /* \"#utility.yul\":19934:20073   */\n      swap1\n      pop\n        /* \"#utility.yul\":19661:20080   */\n      swap2\n      swap1\n      pop\n      jump\t// out\n        /* \"#utility.yul\":20086:20505   */\n    tag_199:\n        /* \"#utility.yul\":20252:20256   */\n      0x00\n        /* \"#utility.yul\":20290:20292   */\n      0x20\n        /* \"#utility.yul\":20279:20288   */\n      dup3\n        /* \"#utility.yul\":20275:20293   */\n      add\n        /* \"#utility.yul\":20267:20293   */\n      swap1\n      pop\n        /* \"#utility.yul\":20339:20348   */\n      dup2\n        /* \"#utility.yul\":20333:20337   */\n      dup2\n        /* \"#utility.yul\":20329:20349   */\n      sub\n        /* \"#utility.yul\":20325:20326   */\n      0x00\n        /* \"#utility.yul\":20314:20323   */\n      dup4\n        /* \"#utility.yul\":20310:20327   */\n      add\n        /* \"#utility.yul\":20303:20350   */\n      mstore\n        /* \"#utility.yul\":20367:20498   */\n      tag_587\n        /* \"#utility.yul\":20493:20497   */\n      dup2\n        /* \"#utility.yul\":20367:20498   */\n      tag_535\n      jump\t// in\n    tag_587:\n        /* \"#utility.yul\":20359:20498   */\n      swap1\n      pop\n        /* \"#utility.yul\":20086:20505   */\n      swap2\n      swap1\n      pop\n      jump\t// out\n        /* \"#utility.yul\":20511:20930   */\n    tag_343:\n        /* \"#utility.yul\":20677:20681   */\n      0x00\n        /* \"#utility.yul\":20715:20717   */\n      0x20\n        /* \"#utility.yul\":20704:20713   */\n      dup3\n        /* \"#utility.yul\":20700:20718   */\n      add\n        /* \"#utility.yul\":20692:20718   */\n      swap1\n      pop\n        /* \"#utility.yul\":20764:20773   */\n      dup2\n        /* \"#utility.yul\":20758:20762   */\n      dup2\n        /* \"#utility.yul\":20754:20774   */\n      sub\n        /* \"#utility.yul\":20750:20751   */\n      0x00\n        /* \"#utility.yul\":20739:20748   */\n      dup4\n        /* \"#utility.yul\":20735:20752   */\n      add\n        /* \"#utility.yul\":20728:20775   */\n      mstore\n        /* \"#utility.yul\":20792:20923   */\n      tag_589\n        /* \"#utility.yul\":20918:20922   */\n      dup2\n        /* \"#utility.yul\":20792:20923   */\n      tag_540\n      jump\t// in\n    tag_589:\n        /* \"#utility.yul\":20784:20923   */\n      swap1\n      pop\n        /* \"#utility.yul\":20511:20930   */\n      swap2\n      swap1\n      pop\n      jump\t// out\n        /* \"#utility.yul\":20936:21158   */\n    tag_51:\n        /* \"#utility.yul\":21029:21033   */\n      0x00\n        /* \"#utility.yul\":21067:21069   */\n      0x20\n        /* \"#utility.yul\":21056:21065   */\n      dup3\n        /* \"#utility.yul\":21052:21070   */\n      add\n        /* \"#utility.yul\":21044:21070   */\n      swap1\n      pop\n        /* \"#utility.yul\":21080:21151   */\n      tag_591\n        /* \"#utility.yul\":21148:21149   */\n      0x00\n        /* \"#utility.yul\":21137:21146   */\n      dup4\n        /* \"#utility.yul\":21133:21150   */\n      add\n        /* \"#utility.yul\":21124:21130   */\n      dup5\n        /* \"#utility.yul\":21080:21151   */\n      tag_565\n      jump\t// in\n    tag_591:\n        /* \"#utility.yul\":20936:21158   */\n      swap3\n      swap2\n      pop\n      pop\n      jump\t// out\n        /* \"#utility.yul\":21164:22545   */\n    tag_88:\n        /* \"#utility.yul\":21541:21545   */\n      0x00\n        /* \"#utility.yul\":21579:21582   */\n      0x0120\n        /* \"#utility.yul\":21568:21577   */\n      dup3\n        /* \"#utility.yul\":21564:21583   */\n      add\n        /* \"#utility.yul\":21556:21583   */\n      swap1\n      pop\n        /* \"#utility.yul\":21593:21664   */\n      tag_593\n        /* \"#utility.yul\":21661:21662   */\n      0x00\n        /* \"#utility.yul\":21650:21659   */\n      dup4\n        /* \"#utility.yul\":21646:21663   */\n      add\n        /* \"#utility.yul\":21637:21643   */\n      dup13\n        /* \"#utility.yul\":21593:21664   */\n      tag_565\n      jump\t// in\n    tag_593:\n        /* \"#utility.yul\":21711:21720   */\n      dup2\n        /* \"#utility.yul\":21705:21709   */\n      dup2\n        /* \"#utility.yul\":21701:21721   */\n      sub\n        /* \"#utility.yul\":21696:21698   */\n      0x20\n        /* \"#utility.yul\":21685:21694   */\n      dup4\n        /* \"#utility.yul\":21681:21699   */\n      add\n        /* \"#utility.yul\":21674:21722   */\n      mstore\n        /* \"#utility.yul\":21739:21817   */\n      tag_594\n        /* \"#utility.yul\":21812:21816   */\n      dup2\n        /* \"#utility.yul\":21803:21809   */\n      dup12\n        /* \"#utility.yul\":21739:21817   */\n      tag_513\n      jump\t// in\n    tag_594:\n        /* \"#utility.yul\":21731:21817   */\n      swap1\n      pop\n        /* \"#utility.yul\":21827:21899   */\n      tag_595\n        /* \"#utility.yul\":21895:21897   */\n      0x40\n        /* \"#utility.yul\":21884:21893   */\n      dup4\n        /* \"#utility.yul\":21880:21898   */\n      add\n        /* \"#utility.yul\":21871:21877   */\n      dup11\n        /* \"#utility.yul\":21827:21899   */\n      tag_565\n      jump\t// in\n    tag_595:\n        /* \"#utility.yul\":21909:21981   */\n      tag_596\n        /* \"#utility.yul\":21977:21979   */\n      0x60\n        /* \"#utility.yul\":21966:21975   */\n      dup4\n        /* \"#utility.yul\":21962:21980   */\n      add\n        /* \"#utility.yul\":21953:21959   */\n      dup10\n        /* \"#utility.yul\":21909:21981   */\n      tag_565\n      jump\t// in\n    tag_596:\n        /* \"#utility.yul\":21991:22064   */\n      tag_597\n        /* \"#utility.yul\":22059:22062   */\n      0x80\n        /* \"#utility.yul\":22048:22057   */\n      dup4\n        /* \"#utility.yul\":22044:22063   */\n      add\n        /* \"#utility.yul\":22035:22041   */\n      dup9\n        /* \"#utility.yul\":21991:22064   */\n      tag_565\n      jump\t// in\n    tag_597:\n        /* \"#utility.yul\":22074:22147   */\n      tag_598\n        /* \"#utility.yul\":22142:22145   */\n      0xa0\n        /* \"#utility.yul\":22131:22140   */\n      dup4\n        /* \"#utility.yul\":22127:22146   */\n      add\n        /* \"#utility.yul\":22118:22124   */\n      dup8\n        /* \"#utility.yul\":22074:22147   */\n      tag_565\n      jump\t// in\n    tag_598:\n        /* \"#utility.yul\":22195:22204   */\n      dup2\n        /* \"#utility.yul\":22189:22193   */\n      dup2\n        /* \"#utility.yul\":22185:22205   */\n      sub\n        /* \"#utility.yul\":22179:22182   */\n      0xc0\n        /* \"#utility.yul\":22168:22177   */\n      dup4\n        /* \"#utility.yul\":22164:22183   */\n      add\n        /* \"#utility.yul\":22157:22206   */\n      mstore\n        /* \"#utility.yul\":22223:22301   */\n      tag_599\n        /* \"#utility.yul\":22296:22300   */\n      dup2\n        /* \"#utility.yul\":22287:22293   */\n      dup7\n        /* \"#utility.yul\":22223:22301   */\n      tag_513\n      jump\t// in\n    tag_599:\n        /* \"#utility.yul\":22215:22301   */\n      swap1\n      pop\n        /* \"#utility.yul\":22349:22358   */\n      dup2\n        /* \"#utility.yul\":22343:22347   */\n      dup2\n        /* \"#utility.yul\":22339:22359   */\n      sub\n        /* \"#utility.yul\":22333:22336   */\n      0xe0\n        /* \"#utility.yul\":22322:22331   */\n      dup4\n        /* \"#utility.yul\":22318:22337   */\n      add\n        /* \"#utility.yul\":22311:22360   */\n      mstore\n        /* \"#utility.yul\":22377:22455   */\n      tag_600\n        /* \"#utility.yul\":22450:22454   */\n      dup2\n        /* \"#utility.yul\":22441:22447   */\n      dup6\n        /* \"#utility.yul\":22377:22455   */\n      tag_513\n      jump\t// in\n    tag_600:\n        /* \"#utility.yul\":22369:22455   */\n      swap1\n      pop\n        /* \"#utility.yul\":22465:22538   */\n      tag_601\n        /* \"#utility.yul\":22533:22536   */\n      0x0100\n        /* \"#utility.yul\":22522:22531   */\n      dup4\n        /* \"#utility.yul\":22518:22537   */\n      add\n        /* \"#utility.yul\":22509:22515   */\n      dup5\n        /* \"#utility.yul\":22465:22538   */\n      tag_468\n      jump\t// in\n    tag_601:\n        /* \"#utility.yul\":21164:22545   */\n      swap11\n      swap10\n      pop\n      pop\n      pop\n      pop\n      pop\n      pop\n      pop\n      pop\n      pop\n      pop\n      jump\t// out\n        /* \"#utility.yul\":22551:23306   */\n    tag_44:\n        /* \"#utility.yul\":22776:22780   */\n      0x00\n        /* \"#utility.yul\":22814:22817   */\n      0xa0\n        /* \"#utility.yul\":22803:22812   */\n      dup3\n        /* \"#utility.yul\":22799:22818   */\n      add\n        /* \"#utility.yul\":22791:22818   */\n      swap1\n      pop\n        /* \"#utility.yul\":22828:22899   */\n      tag_603\n        /* \"#utility.yul\":22896:22897   */\n      0x00\n        /* \"#utility.yul\":22885:22894   */\n      dup4\n        /* \"#utility.yul\":22881:22898   */\n      add\n        /* \"#utility.yul\":22872:22878   */\n      dup9\n        /* \"#utility.yul\":22828:22899   */\n      tag_565\n      jump\t// in\n    tag_603:\n        /* \"#utility.yul\":22909:22981   */\n      tag_604\n        /* \"#utility.yul\":22977:22979   */\n      0x20\n        /* \"#utility.yul\":22966:22975   */\n      dup4\n        /* \"#utility.yul\":22962:22980   */\n      add\n        /* \"#utility.yul\":22953:22959   */\n      dup8\n        /* \"#utility.yul\":22909:22981   */\n      tag_565\n      jump\t// in\n    tag_604:\n        /* \"#utility.yul\":23028:23037   */\n      dup2\n        /* \"#utility.yul\":23022:23026   */\n      dup2\n        /* \"#utility.yul\":23018:23038   */\n      sub\n        /* \"#utility.yul\":23013:23015   */\n      0x40\n        /* \"#utility.yul\":23002:23011   */\n      dup4\n        /* \"#utility.yul\":22998:23016   */\n      add\n        /* \"#utility.yul\":22991:23039   */\n      mstore\n        /* \"#utility.yul\":23056:23134   */\n      tag_605\n        /* \"#utility.yul\":23129:23133   */\n      dup2\n        /* \"#utility.yul\":23120:23126   */\n      dup7\n        /* \"#utility.yul\":23056:23134   */\n      tag_513\n      jump\t// in\n    tag_605:\n        /* \"#utility.yul\":23048:23134   */\n      swap1\n      pop\n        /* \"#utility.yul\":23144:23216   */\n      tag_606\n        /* \"#utility.yul\":23212:23214   */\n      0x60\n        /* \"#utility.yul\":23201:23210   */\n      dup4\n        /* \"#utility.yul\":23197:23215   */\n      add\n        /* \"#utility.yul\":23188:23194   */\n      dup6\n        /* \"#utility.yul\":23144:23216   */\n      tag_468\n      jump\t// in\n    tag_606:\n        /* \"#utility.yul\":23226:23299   */\n      tag_607\n        /* \"#utility.yul\":23294:23297   */\n      0x80\n        /* \"#utility.yul\":23283:23292   */\n      dup4\n        /* \"#utility.yul\":23279:23298   */\n      add\n        /* \"#utility.yul\":23270:23276   */\n      dup5\n        /* \"#utility.yul\":23226:23299   */\n      tag_565\n      jump\t// in\n    tag_607:\n        /* \"#utility.yul\":22551:23306   */\n      swap7\n      swap6\n      pop\n      pop\n      pop\n      pop\n      pop\n      pop\n      jump\t// out\n        /* \"#utility.yul\":23312:23441   */\n    tag_368:\n        /* \"#utility.yul\":23346:23352   */\n      0x00\n        /* \"#utility.yul\":23373:23393   */\n      tag_609\n      tag_610\n      jump\t// in\n    tag_609:\n        /* \"#utility.yul\":23363:23393   */\n      swap1\n      pop\n        /* \"#utility.yul\":23402:23435   */\n      tag_611\n        /* \"#utility.yul\":23430:23434   */\n      dup3\n        /* \"#utility.yul\":23422:23428   */\n      dup3\n        /* \"#utility.yul\":23402:23435   */\n      tag_612\n      jump\t// in\n    tag_611:\n        /* \"#utility.yul\":23312:23441   */\n      swap2\n      swap1\n      pop\n      jump\t// out\n        /* \"#utility.yul\":23447:23522   */\n    tag_610:\n        /* \"#utility.yul\":23480:23486   */\n      0x00\n        /* \"#utility.yul\":23513:23515   */\n      0x40\n        /* \"#utility.yul\":23507:23516   */\n      mload\n        /* \"#utility.yul\":23497:23516   */\n      swap1\n      pop\n        /* \"#utility.yul\":23447:23522   */\n      swap1\n      jump\t// out\n        /* \"#utility.yul\":23528:23836   */\n    tag_367:\n        /* \"#utility.yul\":23590:23594   */\n      0x00\n        /* \"#utility.yul\":23680:23698   */\n      0xffffffffffffffff\n        /* \"#utility.yul\":23672:23678   */\n      dup3\n        /* \"#utility.yul\":23669:23699   */\n      gt\n        /* \"#utility.yul\":23666:23722   */\n      iszero\n      tag_615\n      jumpi\n        /* \"#utility.yul\":23702:23720   */\n      tag_616\n      tag_227\n      jump\t// in\n    tag_616:\n        /* \"#utility.yul\":23666:23722   */\n    tag_615:\n        /* \"#utility.yul\":23740:23769   */\n      tag_617\n        /* \"#utility.yul\":23762:23768   */\n      dup3\n        /* \"#utility.yul\":23740:23769   */\n      tag_512\n      jump\t// in\n    tag_617:\n        /* \"#utility.yul\":23732:23769   */\n      swap1\n      pop\n        /* \"#utility.yul\":23824:23828   */\n      0x20\n        /* \"#utility.yul\":23818:23822   */\n      dup2\n        /* \"#utility.yul\":23814:23829   */\n      add\n        /* \"#utility.yul\":23806:23829   */\n      swap1\n      pop\n        /* \"#utility.yul\":23528:23836   */\n      swap2\n      swap1\n      pop\n      jump\t// out\n        /* \"#utility.yul\":23842:23997   */\n    tag_478:\n        /* \"#utility.yul\":23932:23936   */\n      0x00\n        /* \"#utility.yul\":23955:23958   */\n      dup2\n        /* \"#utility.yul\":23947:23958   */\n      swap1\n      pop\n        /* \"#utility.yul\":23985:23989   */\n      0x20\n        /* \"#utility.yul\":23980:23983   */\n      dup3\n        /* \"#utility.yul\":23976:23990   */\n      add\n        /* \"#utility.yul\":23968:23990   */\n      swap1\n      pop\n        /* \"#utility.yul\":23842:23997   */\n      swap2\n      swap1\n      pop\n      jump\t// out\n        /* \"#utility.yul\":24003:24158   */\n    tag_492:\n        /* \"#utility.yul\":24093:24097   */\n      0x00\n        /* \"#utility.yul\":24116:24119   */\n      dup2\n        /* \"#utility.yul\":24108:24119   */\n      swap1\n      pop\n        /* \"#utility.yul\":24146:24150   */\n      0x20\n        /* \"#utility.yul\":24141:24144   */\n      dup3\n        /* \"#utility.yul\":24137:24151   */\n      add\n        /* \"#utility.yul\":24129:24151   */\n      swap1\n      pop\n        /* \"#utility.yul\":24003:24158   */\n      swap2\n      swap1\n      pop\n      jump\t// out\n        /* \"#utility.yul\":24164:24301   */\n    tag_474:\n        /* \"#utility.yul\":24254:24260   */\n      0x00\n        /* \"#utility.yul\":24288:24293   */\n      dup2\n        /* \"#utility.yul\":24282:24294   */\n      mload\n        /* \"#utility.yul\":24272:24294   */\n      swap1\n      pop\n        /* \"#utility.yul\":24164:24301   */\n      swap2\n      swap1\n      pop\n      jump\t// out\n        /* \"#utility.yul\":24307:24444   */\n    tag_488:\n        /* \"#utility.yul\":24397:24403   */\n      0x00\n        /* \"#utility.yul\":24431:24436   */\n      dup2\n        /* \"#utility.yul\":24425:24437   */\n      mload\n        /* \"#utility.yul\":24415:24437   */\n      swap1\n      pop\n        /* \"#utility.yul\":24307:24444   */\n      swap2\n      swap1\n      pop\n      jump\t// out\n        /* \"#utility.yul\":24450:24549   */\n    tag_506:\n        /* \"#utility.yul\":24502:24508   */\n      0x00\n        /* \"#utility.yul\":24536:24541   */\n      dup2\n        /* \"#utility.yul\":24530:24542   */\n      mload\n        /* \"#utility.yul\":24520:24542   */\n      swap1\n      pop\n        /* \"#utility.yul\":24450:24549   */\n      swap2\n      swap1\n      pop\n      jump\t// out\n        /* \"#utility.yul\":24555:24691   */\n    tag_484:\n        /* \"#utility.yul\":24648:24652   */\n      0x00\n        /* \"#utility.yul\":24680:24684   */\n      0x20\n        /* \"#utility.yul\":24675:24678   */\n      dup3\n        /* \"#utility.yul\":24671:24685   */\n      add\n        /* \"#utility.yul\":24663:24685   */\n      swap1\n      pop\n        /* \"#utility.yul\":24555:24691   */\n      swap2\n      swap1\n      pop\n      jump\t// out\n        /* \"#utility.yul\":24697:24833   */\n    tag_498:\n        /* \"#utility.yul\":24790:24794   */\n      0x00\n        /* \"#utility.yul\":24822:24826   */\n      0x20\n        /* \"#utility.yul\":24817:24820   */\n      dup3\n        /* \"#utility.yul\":24813:24827   */\n      add\n        /* \"#utility.yul\":24805:24827   */\n      swap1\n      pop\n        /* \"#utility.yul\":24697:24833   */\n      swap2\n      swap1\n      pop\n      jump\t// out\n        /* \"#utility.yul\":24839:25046   */\n    tag_476:\n        /* \"#utility.yul\":24961:24972   */\n      0x00\n        /* \"#utility.yul\":24995:25001   */\n      dup3\n        /* \"#utility.yul\":24990:24993   */\n      dup3\n        /* \"#utility.yul\":24983:25002   */\n      mstore\n        /* \"#utility.yul\":25035:25039   */\n      0x20\n        /* \"#utility.yul\":25030:25033   */\n      dup3\n        /* \"#utility.yul\":25026:25040   */\n      add\n        /* \"#utility.yul\":25011:25040   */\n      swap1\n      pop\n        /* \"#utility.yul\":24839:25046   */\n      swap3\n      swap2\n      pop\n      pop\n      jump\t// out\n        /* \"#utility.yul\":25052:25259   */\n    tag_490:\n        /* \"#utility.yul\":25174:25185   */\n      0x00\n        /* \"#utility.yul\":25208:25214   */\n      dup3\n        /* \"#utility.yul\":25203:25206   */\n      dup3\n        /* \"#utility.yul\":25196:25215   */\n      mstore\n        /* \"#utility.yul\":25248:25252   */\n      0x20\n        /* \"#utility.yul\":25243:25246   */\n      dup3\n        /* \"#utility.yul\":25239:25253   */\n      add\n        /* \"#utility.yul\":25224:25253   */\n      swap1\n      pop\n        /* \"#utility.yul\":25052:25259   */\n      swap3\n      swap2\n      pop\n      pop\n      jump\t// out\n        /* \"#utility.yul\":25265:25424   */\n    tag_508:\n        /* \"#utility.yul\":25339:25350   */\n      0x00\n        /* \"#utility.yul\":25373:25379   */\n      dup3\n        /* \"#utility.yul\":25368:25371   */\n      dup3\n        /* \"#utility.yul\":25361:25380   */\n      mstore\n        /* \"#utility.yul\":25413:25417   */\n      0x20\n        /* \"#utility.yul\":25408:25411   */\n      dup3\n        /* \"#utility.yul\":25404:25418   */\n      add\n        /* \"#utility.yul\":25389:25418   */\n      swap1\n      pop\n        /* \"#utility.yul\":25265:25424   */\n      swap3\n      swap2\n      pop\n      pop\n      jump\t// out\n        /* \"#utility.yul\":25430:25599   */\n    tag_517:\n        /* \"#utility.yul\":25514:25525   */\n      0x00\n        /* \"#utility.yul\":25548:25554   */\n      dup3\n        /* \"#utility.yul\":25543:25546   */\n      dup3\n        /* \"#utility.yul\":25536:25555   */\n      mstore\n        /* \"#utility.yul\":25588:25592   */\n      0x20\n        /* \"#utility.yul\":25583:25586   */\n      dup3\n        /* \"#utility.yul\":25579:25593   */\n      add\n        /* \"#utility.yul\":25564:25593   */\n      swap1\n      pop\n        /* \"#utility.yul\":25430:25599   */\n      swap3\n      swap2\n      pop\n      pop\n      jump\t// out\n        /* \"#utility.yul\":25605:25910   */\n    tag_167:\n        /* \"#utility.yul\":25645:25648   */\n      0x00\n        /* \"#utility.yul\":25664:25684   */\n      tag_630\n        /* \"#utility.yul\":25682:25683   */\n      dup3\n        /* \"#utility.yul\":25664:25684   */\n      tag_564\n      jump\t// in\n    tag_630:\n        /* \"#utility.yul\":25659:25684   */\n      swap2\n      pop\n        /* \"#utility.yul\":25698:25718   */\n      tag_631\n        /* \"#utility.yul\":25716:25717   */\n      dup4\n        /* \"#utility.yul\":25698:25718   */\n      tag_564\n      jump\t// in\n    tag_631:\n        /* \"#utility.yul\":25693:25718   */\n      swap3\n      pop\n        /* \"#utility.yul\":25852:25853   */\n      dup3\n        /* \"#utility.yul\":25784:25850   */\n      0xffffffffffffffffffffffffffffffffffffffffffffffffffffffffffffffff\n        /* \"#utility.yul\":25780:25854   */\n      sub\n        /* \"#utility.yul\":25777:25778   */\n      dup3\n        /* \"#utility.yul\":25774:25855   */\n      gt\n        /* \"#utility.yul\":25771:25878   */\n      iszero\n      tag_632\n      jumpi\n        /* \"#utility.yul\":25858:25876   */\n      tag_633\n      tag_634\n      jump\t// in\n    tag_633:\n        /* \"#utility.yul\":25771:25878   */\n    tag_632:\n        /* \"#utility.yul\":25902:25903   */\n      dup3\n        /* \"#utility.yul\":25899:25900   */\n      dup3\n        /* \"#utility.yul\":25895:25904   */\n      add\n        /* \"#utility.yul\":25888:25904   */\n      swap1\n      pop\n        /* \"#utility.yul\":25605:25910   */\n      swap3\n      swap2\n      pop\n      pop\n      jump\t// out\n        /* \"#utility.yul\":25916:26264   */\n    tag_165:\n        /* \"#utility.yul\":25956:25963   */\n      0x00\n        /* \"#utility.yul\":25979:25999   */\n      tag_636\n        /* \"#utility.yul\":25997:25998   */\n      dup3\n        /* \"#utility.yul\":25979:25999   */\n      tag_564\n      jump\t// in\n    tag_636:\n        /* \"#utility.yul\":25974:25999   */\n      swap2\n      pop\n        /* \"#utility.yul\":26013:26033   */\n      tag_637\n        /* \"#utility.yul\":26031:26032   */\n      dup4\n        /* \"#utility.yul\":26013:26033   */\n      tag_564\n      jump\t// in\n    tag_637:\n        /* \"#utility.yul\":26008:26033   */\n      swap3\n      pop\n        /* \"#utility.yul\":26201:26202   */\n      dup2\n        /* \"#utility.yul\":26133:26199   */\n      0xffffffffffffffffffffffffffffffffffffffffffffffffffffffffffffffff\n        /* \"#utility.yul\":26129:26203   */\n      div\n        /* \"#utility.yul\":26126:26127   */\n      dup4\n        /* \"#utility.yul\":26123:26204   */\n      gt\n        /* \"#utility.yul\":26118:26119   */\n      dup3\n        /* \"#utility.yul\":26111:26120   */\n      iszero\n        /* \"#utility.yul\":26104:26121   */\n      iszero\n        /* \"#utility.yul\":26100:26205   */\n      and\n        /* \"#utility.yul\":26097:26228   */\n      iszero\n      tag_638\n      jumpi\n        /* \"#utility.yul\":26208:26226   */\n      tag_639\n      tag_634\n      jump\t// in\n    tag_639:\n        /* \"#utility.yul\":26097:26228   */\n    tag_638:\n        /* \"#utility.yul\":26256:26257   */\n      dup3\n        /* \"#utility.yul\":26253:26254   */\n      dup3\n        /* \"#utility.yul\":26249:26258   */\n      mul\n        /* \"#utility.yul\":26238:26258   */\n      swap1\n      pop\n        /* \"#utility.yul\":25916:26264   */\n      swap3\n      swap2\n      pop\n      pop\n      jump\t// out\n        /* \"#utility.yul\":26270:26461   */\n    tag_192:\n        /* \"#utility.yul\":26310:26314   */\n      0x00\n        /* \"#utility.yul\":26330:26350   */\n      tag_641\n        /* \"#utility.yul\":26348:26349   */\n      dup3\n        /* \"#utility.yul\":26330:26350   */\n      tag_564\n      jump\t// in\n    tag_641:\n        /* \"#utility.yul\":26325:26350   */\n      swap2\n      pop\n        /* \"#utility.yul\":26364:26384   */\n      tag_642\n        /* \"#utility.yul\":26382:26383   */\n      dup4\n        /* \"#utility.yul\":26364:26384   */\n      tag_564\n      jump\t// in\n    tag_642:\n        /* \"#utility.yul\":26359:26384   */\n      swap3\n      pop\n        /* \"#utility.yul\":26403:26404   */\n      dup3\n        /* \"#utility.yul\":26400:26401   */\n      dup3\n        /* \"#utility.yul\":26397:26405   */\n      lt\n        /* \"#utility.yul\":26394:26428   */\n      iszero\n      tag_643\n      jumpi\n        /* \"#utility.yul\":26408:26426   */\n      tag_644\n      tag_634\n      jump\t// in\n    tag_644:\n        /* \"#utility.yul\":26394:26428   */\n    tag_643:\n        /* \"#utility.yul\":26453:26454   */\n      dup3\n        /* \"#utility.yul\":26450:26451   */\n      dup3\n        /* \"#utility.yul\":26446:26455   */\n      sub\n        /* \"#utility.yul\":26438:26455   */\n      swap1\n      pop\n        /* \"#utility.yul\":26270:26461   */\n      swap3\n      swap2\n      pop\n      pop\n      jump\t// out\n        /* \"#utility.yul\":26467:26563   */\n    tag_467:\n        /* \"#utility.yul\":26504:26511   */\n      0x00\n        /* \"#utility.yul\":26533:26557   */\n      tag_646\n        /* \"#utility.yul\":26551:26556   */\n      dup3\n        /* \"#utility.yul\":26533:26557   */\n      tag_647\n      jump\t// in\n    tag_646:\n        /* \"#utility.yul\":26522:26557   */\n      swap1\n      pop\n        /* \"#utility.yul\":26467:26563   */\n      swap2\n      swap1\n      pop\n      jump\t// out\n        /* \"#utility.yul\":26569:26659   */\n    tag_502:\n        /* \"#utility.yul\":26603:26610   */\n      0x00\n        /* \"#utility.yul\":26646:26651   */\n      dup2\n        /* \"#utility.yul\":26639:26652   */\n      iszero\n        /* \"#utility.yul\":26632:26653   */\n      iszero\n        /* \"#utility.yul\":26621:26653   */\n      swap1\n      pop\n        /* \"#utility.yul\":26569:26659   */\n      swap2\n      swap1\n      pop\n      jump\t// out\n        /* \"#utility.yul\":26665:26791   */\n    tag_647:\n        /* \"#utility.yul\":26702:26709   */\n      0x00\n        /* \"#utility.yul\":26742:26784   */\n      0xffffffffffffffffffffffffffffffffffffffff\n        /* \"#utility.yul\":26735:26740   */\n      dup3\n        /* \"#utility.yul\":26731:26785   */\n      and\n        /* \"#utility.yul\":26720:26785   */\n      swap1\n      pop\n        /* \"#utility.yul\":26665:26791   */\n      swap2\n      swap1\n      pop\n      jump\t// out\n        /* \"#utility.yul\":26797:26874   */\n    tag_564:\n        /* \"#utility.yul\":26834:26841   */\n      0x00\n        /* \"#utility.yul\":26863:26868   */\n      dup2\n        /* \"#utility.yul\":26852:26868   */\n      swap1\n      pop\n        /* \"#utility.yul\":26797:26874   */\n      swap2\n      swap1\n      pop\n      jump\t// out\n        /* \"#utility.yul\":26880:27034   */\n    tag_373:\n        /* \"#utility.yul\":26964:26970   */\n      dup3\n        /* \"#utility.yul\":26959:26962   */\n      dup2\n        /* \"#utility.yul\":26954:26957   */\n      dup4\n        /* \"#utility.yul\":26941:26971   */\n      calldatacopy\n        /* \"#utility.yul\":27026:27027   */\n      0x00\n        /* \"#utility.yul\":27017:27023   */\n      dup4\n        /* \"#utility.yul\":27012:27015   */\n      dup4\n        /* \"#utility.yul\":27008:27024   */\n      add\n        /* \"#utility.yul\":27001:27028   */\n      mstore\n        /* \"#utility.yul\":26880:27034   */\n      pop\n      pop\n      pop\n      jump\t// out\n        /* \"#utility.yul\":27040:27347   */\n    tag_510:\n        /* \"#utility.yul\":27108:27109   */\n      0x00\n        /* \"#utility.yul\":27118:27231   */\n    tag_653:\n        /* \"#utility.yul\":27132:27138   */\n      dup4\n        /* \"#utility.yul\":27129:27130   */\n      dup2\n        /* \"#utility.yul\":27126:27139   */\n      lt\n        /* \"#utility.yul\":27118:27231   */\n      iszero\n      tag_655\n      jumpi\n        /* \"#utility.yul\":27217:27218   */\n      dup1\n        /* \"#utility.yul\":27212:27215   */\n      dup3\n        /* \"#utility.yul\":27208:27219   */\n      add\n        /* \"#utility.yul\":27202:27220   */\n      mload\n        /* \"#utility.yul\":27198:27199   */\n      dup2\n        /* \"#utility.yul\":27193:27196   */\n      dup5\n        /* \"#utility.yul\":27189:27200   */\n      add\n        /* \"#utility.yul\":27182:27221   */\n      mstore\n        /* \"#utility.yul\":27154:27156   */\n      0x20\n        /* \"#utility.yul\":27151:27152   */\n      dup2\n        /* \"#utility.yul\":27147:27157   */\n      add\n        /* \"#utility.yul\":27142:27157   */\n      swap1\n      pop\n        /* \"#utility.yul\":27118:27231   */\n      jump(tag_653)\n    tag_655:\n        /* \"#utility.yul\":27249:27255   */\n      dup4\n        /* \"#utility.yul\":27246:27247   */\n      dup2\n        /* \"#utility.yul\":27243:27256   */\n      gt\n        /* \"#utility.yul\":27240:27341   */\n      iszero\n      tag_656\n      jumpi\n        /* \"#utility.yul\":27329:27330   */\n      0x00\n        /* \"#utility.yul\":27320:27326   */\n      dup5\n        /* \"#utility.yul\":27315:27318   */\n      dup5\n        /* \"#utility.yul\":27311:27327   */\n      add\n        /* \"#utility.yul\":27304:27331   */\n      mstore\n        /* \"#utility.yul\":27240:27341   */\n    tag_656:\n        /* \"#utility.yul\":27089:27347   */\n      pop\n        /* \"#utility.yul\":27040:27347   */\n      pop\n      pop\n      pop\n      jump\t// out\n        /* \"#utility.yul\":27353:27673   */\n    tag_171:\n        /* \"#utility.yul\":27397:27403   */\n      0x00\n        /* \"#utility.yul\":27434:27435   */\n      0x02\n        /* \"#utility.yul\":27428:27432   */\n      dup3\n        /* \"#utility.yul\":27424:27436   */\n      div\n        /* \"#utility.yul\":27414:27436   */\n      swap1\n      pop\n        /* \"#utility.yul\":27481:27482   */\n      0x01\n        /* \"#utility.yul\":27475:27479   */\n      dup3\n        /* \"#utility.yul\":27471:27483   */\n      and\n        /* \"#utility.yul\":27502:27520   */\n      dup1\n        /* \"#utility.yul\":27492:27573   */\n      tag_658\n      jumpi\n        /* \"#utility.yul\":27558:27562   */\n      0x7f\n        /* \"#utility.yul\":27550:27556   */\n      dup3\n        /* \"#utility.yul\":27546:27563   */\n      and\n        /* \"#utility.yul\":27536:27563   */\n      swap2\n      pop\n        /* \"#utility.yul\":27492:27573   */\n    tag_658:\n        /* \"#utility.yul\":27620:27622   */\n      0x20\n        /* \"#utility.yul\":27612:27618   */\n      dup3\n        /* \"#utility.yul\":27609:27623   */\n      lt\n        /* \"#utility.yul\":27589:27607   */\n      dup2\n        /* \"#utility.yul\":27586:27624   */\n      eq\n        /* \"#utility.yul\":27583:27667   */\n      iszero\n      tag_659\n      jumpi\n        /* \"#utility.yul\":27639:27657   */\n      tag_660\n      tag_661\n      jump\t// in\n    tag_660:\n        /* \"#utility.yul\":27583:27667   */\n    tag_659:\n        /* \"#utility.yul\":27404:27673   */\n      pop\n        /* \"#utility.yul\":27353:27673   */\n      swap2\n      swap1\n      pop\n      jump\t// out\n        /* \"#utility.yul\":27679:27960   */\n    tag_612:\n        /* \"#utility.yul\":27762:27789   */\n      tag_663\n        /* \"#utility.yul\":27784:27788   */\n      dup3\n        /* \"#utility.yul\":27762:27789   */\n      tag_512\n      jump\t// in\n    tag_663:\n        /* \"#utility.yul\":27754:27760   */\n      dup2\n        /* \"#utility.yul\":27750:27790   */\n      add\n        /* \"#utility.yul\":27892:27898   */\n      dup2\n        /* \"#utility.yul\":27880:27890   */\n      dup2\n        /* \"#utility.yul\":27877:27899   */\n      lt\n        /* \"#utility.yul\":27856:27874   */\n      0xffffffffffffffff\n        /* \"#utility.yul\":27844:27854   */\n      dup3\n        /* \"#utility.yul\":27841:27875   */\n      gt\n        /* \"#utility.yul\":27838:27900   */\n      or\n        /* \"#utility.yul\":27835:27923   */\n      iszero\n      tag_664\n      jumpi\n        /* \"#utility.yul\":27903:27921   */\n      tag_665\n      tag_227\n      jump\t// in\n    tag_665:\n        /* \"#utility.yul\":27835:27923   */\n    tag_664:\n        /* \"#utility.yul\":27943:27953   */\n      dup1\n        /* \"#utility.yul\":27939:27941   */\n      0x40\n        /* \"#utility.yul\":27932:27954   */\n      mstore\n        /* \"#utility.yul\":27722:27960   */\n      pop\n        /* \"#utility.yul\":27679:27960   */\n      pop\n      pop\n      jump\t// out\n        /* \"#utility.yul\":27966:28199   */\n    tag_246:\n        /* \"#utility.yul\":28005:28008   */\n      0x00\n        /* \"#utility.yul\":28028:28052   */\n      tag_667\n        /* \"#utility.yul\":28046:28051   */\n      dup3\n        /* \"#utility.yul\":28028:28052   */\n      tag_564\n      jump\t// in\n    tag_667:\n        /* \"#utility.yul\":28019:28052   */\n      swap2\n      pop\n        /* \"#utility.yul\":28074:28140   */\n      0xffffffffffffffffffffffffffffffffffffffffffffffffffffffffffffffff\n        /* \"#utility.yul\":28067:28072   */\n      dup3\n        /* \"#utility.yul\":28064:28141   */\n      eq\n        /* \"#utility.yul\":28061:28164   */\n      iszero\n      tag_668\n      jumpi\n        /* \"#utility.yul\":28144:28162   */\n      tag_669\n      tag_634\n      jump\t// in\n    tag_669:\n        /* \"#utility.yul\":28061:28164   */\n    tag_668:\n        /* \"#utility.yul\":28191:28192   */\n      0x01\n        /* \"#utility.yul\":28184:28189   */\n      dup3\n        /* \"#utility.yul\":28180:28193   */\n      add\n        /* \"#utility.yul\":28173:28193   */\n      swap1\n      pop\n        /* \"#utility.yul\":27966:28199   */\n      swap2\n      swap1\n      pop\n      jump\t// out\n        /* \"#utility.yul\":28205:28385   */\n    tag_634:\n        /* \"#utility.yul\":28253:28330   */\n      0x4e487b7100000000000000000000000000000000000000000000000000000000\n        /* \"#utility.yul\":28250:28251   */\n      0x00\n        /* \"#utility.yul\":28243:28331   */\n      mstore\n        /* \"#utility.yul\":28350:28354   */\n      0x11\n        /* \"#utility.yul\":28347:28348   */\n      0x04\n        /* \"#utility.yul\":28340:28355   */\n      mstore\n        /* \"#utility.yul\":28374:28378   */\n      0x24\n        /* \"#utility.yul\":28371:28372   */\n      0x00\n        /* \"#utility.yul\":28364:28379   */\n      revert\n        /* \"#utility.yul\":28391:28571   */\n    tag_661:\n        /* \"#utility.yul\":28439:28516   */\n      0x4e487b7100000000000000000000000000000000000000000000000000000000\n        /* \"#utility.yul\":28436:28437   */\n      0x00\n        /* \"#utility.yul\":28429:28517   */\n      mstore\n        /* \"#utility.yul\":28536:28540   */\n      0x22\n        /* \"#utility.yul\":28533:28534   */\n      0x04\n        /* \"#utility.yul\":28526:28541   */\n      mstore\n        /* \"#utility.yul\":28560:28564   */\n      0x24\n        /* \"#utility.yul\":28557:28558   */\n      0x00\n        /* \"#utility.yul\":28550:28565   */\n      revert\n        /* \"#utility.yul\":28577:28757   */\n    tag_244:\n        /* \"#utility.yul\":28625:28702   */\n      0x4e487b7100000000000000000000000000000000000000000000000000000000\n        /* \"#utility.yul\":28622:28623   */\n      0x00\n        /* \"#utility.yul\":28615:28703   */\n      mstore\n        /* \"#utility.yul\":28722:28726   */\n      0x32\n        /* \"#utility.yul\":28719:28720   */\n      0x04\n        /* \"#utility.yul\":28712:28727   */\n      mstore\n        /* \"#utility.yul\":28746:28750   */\n      0x24\n        /* \"#utility.yul\":28743:28744   */\n      0x00\n        /* \"#utility.yul\":28736:28751   */\n      revert\n        /* \"#utility.yul\":28763:28943   */\n    tag_227:\n        /* \"#utility.yul\":28811:28888   */\n      0x4e487b7100000000000000000000000000000000000000000000000000000000\n        /* \"#utility.yul\":28808:28809   */\n      0x00\n        /* \"#utility.yul\":28801:28889   */\n      mstore\n        /* \"#utility.yul\":28908:28912   */\n      0x41\n        /* \"#utility.yul\":28905:28906   */\n      0x04\n        /* \"#utility.yul\":28898:28913   */\n      mstore\n        /* \"#utility.yul\":28932:28936   */\n      0x24\n        /* \"#utility.yul\":28929:28930   */\n      0x00\n        /* \"#utility.yul\":28922:28937   */\n      revert\n        /* \"#utility.yul\":28949:29066   */\n    tag_382:\n        /* \"#utility.yul\":29058:29059   */\n      0x00\n        /* \"#utility.yul\":29055:29056   */\n      dup1\n        /* \"#utility.yul\":29048:29060   */\n      revert\n        /* \"#utility.yul\":29072:29189   */\n    tag_371:\n        /* \"#utility.yul\":29181:29182   */\n      0x00\n        /* \"#utility.yul\":29178:29179   */\n      dup1\n        /* \"#utility.yul\":29171:29183   */\n      revert\n        /* \"#utility.yul\":29195:29312   */\n    tag_415:\n        /* \"#utility.yul\":29304:29305   */\n      0x00\n        /* \"#utility.yul\":29301:29302   */\n      dup1\n        /* \"#utility.yul\":29294:29306   */\n      revert\n        /* \"#utility.yul\":29318:29435   */\n    tag_391:\n        /* \"#utility.yul\":29427:29428   */\n      0x00\n        /* \"#utility.yul\":29424:29425   */\n      dup1\n        /* \"#utility.yul\":29417:29429   */\n      revert\n        /* \"#utility.yul\":29441:29543   */\n    tag_512:\n        /* \"#utility.yul\":29482:29488   */\n      0x00\n        /* \"#utility.yul\":29533:29535   */\n      0x1f\n        /* \"#utility.yul\":29529:29536   */\n      not\n        /* \"#utility.yul\":29524:29526   */\n      0x1f\n        /* \"#utility.yul\":29517:29522   */\n      dup4\n        /* \"#utility.yul\":29513:29527   */\n      add\n        /* \"#utility.yul\":29509:29537   */\n      and\n        /* \"#utility.yul\":29499:29537   */\n      swap1\n      pop\n        /* \"#utility.yul\":29441:29543   */\n      swap2\n      swap1\n      pop\n      jump\t// out\n        /* \"#utility.yul\":29549:29716   */\n    tag_524:\n        /* \"#utility.yul\":29689:29708   */\n      0x596f752063616e4e6f742044656c657465000000000000000000000000000000\n        /* \"#utility.yul\":29685:29686   */\n      0x00\n        /* \"#utility.yul\":29677:29683   */\n      dup3\n        /* \"#utility.yul\":29673:29687   */\n      add\n        /* \"#utility.yul\":29666:29709   */\n      mstore\n        /* \"#utility.yul\":29549:29716   */\n      pop\n      jump\t// out\n        /* \"#utility.yul\":29722:29945   */\n    tag_529:\n        /* \"#utility.yul\":29862:29896   */\n      0x506c656173652053656c6c6563742074686520636f7272656374205265636570\n        /* \"#utility.yul\":29858:29859   */\n      0x00\n        /* \"#utility.yul\":29850:29856   */\n      dup3\n        /* \"#utility.yul\":29846:29860   */\n      add\n        /* \"#utility.yul\":29839:29897   */\n      mstore\n        /* \"#utility.yul\":29931:29937   */\n      0x69656e7400000000000000000000000000000000000000000000000000000000\n        /* \"#utility.yul\":29926:29928   */\n      0x20\n        /* \"#utility.yul\":29918:29924   */\n      dup3\n        /* \"#utility.yul\":29914:29929   */\n      add\n        /* \"#utility.yul\":29907:29938   */\n      mstore\n        /* \"#utility.yul\":29722:29945   */\n      pop\n      jump\t// out\n        /* \"#utility.yul\":29951:30129   */\n    tag_534:\n        /* \"#utility.yul\":30091:30121   */\n      0x596f7520617265204f776e6572206f6620746869732054656e64657200000000\n        /* \"#utility.yul\":30087:30088   */\n      0x00\n        /* \"#utility.yul\":30079:30085   */\n      dup3\n        /* \"#utility.yul\":30075:30089   */\n      add\n        /* \"#utility.yul\":30068:30122   */\n      mstore\n        /* \"#utility.yul\":29951:30129   */\n      pop\n      jump\t// out\n        /* \"#utility.yul\":30135:30356   */\n    tag_539:\n        /* \"#utility.yul\":30275:30309   */\n      0x596f7520416c7265616479204170706c7920666f722074686973205265717565\n        /* \"#utility.yul\":30271:30272   */\n      0x00\n        /* \"#utility.yul\":30263:30269   */\n      dup3\n        /* \"#utility.yul\":30259:30273   */\n      add\n        /* \"#utility.yul\":30252:30310   */\n      mstore\n        /* \"#utility.yul\":30344:30348   */\n      0x7374000000000000000000000000000000000000000000000000000000000000\n        /* \"#utility.yul\":30339:30341   */\n      0x20\n        /* \"#utility.yul\":30331:30337   */\n      dup3\n        /* \"#utility.yul\":30327:30342   */\n      add\n        /* \"#utility.yul\":30320:30349   */\n      mstore\n        /* \"#utility.yul\":30135:30356   */\n      pop\n      jump\t// out\n        /* \"#utility.yul\":30362:30531   */\n    tag_544:\n        /* \"#utility.yul\":30502:30523   */\n      0x596f7520616c7265616479207061796d656e7400000000000000000000000000\n        /* \"#utility.yul\":30498:30499   */\n      0x00\n        /* \"#utility.yul\":30490:30496   */\n      dup3\n        /* \"#utility.yul\":30486:30500   */\n      add\n        /* \"#utility.yul\":30479:30524   */\n      mstore\n        /* \"#utility.yul\":30362:30531   */\n      pop\n      jump\t// out\n        /* \"#utility.yul\":30537:30659   */\n    tag_377:\n        /* \"#utility.yul\":30610:30634   */\n      tag_685\n        /* \"#utility.yul\":30628:30633   */\n      dup2\n        /* \"#utility.yul\":30610:30634   */\n      tag_467\n      jump\t// in\n    tag_685:\n        /* \"#utility.yul\":30603:30608   */\n      dup2\n        /* \"#utility.yul\":30600:30635   */\n      eq\n        /* \"#utility.yul\":30590:30653   */\n      tag_686\n      jumpi\n        /* \"#utility.yul\":30649:30650   */\n      0x00\n        /* \"#utility.yul\":30646:30647   */\n      dup1\n        /* \"#utility.yul\":30639:30651   */\n      revert\n        /* \"#utility.yul\":30590:30653   */\n    tag_686:\n        /* \"#utility.yul\":30537:30659   */\n      pop\n      jump\t// out\n        /* \"#utility.yul\":30665:30787   */\n    tag_387:\n        /* \"#utility.yul\":30738:30762   */\n      tag_688\n        /* \"#utility.yul\":30756:30761   */\n      dup2\n        /* \"#utility.yul\":30738:30762   */\n      tag_564\n      jump\t// in\n    tag_688:\n        /* \"#utility.yul\":30731:30736   */\n      dup2\n        /* \"#utility.yul\":30728:30763   */\n      eq\n        /* \"#utility.yul\":30718:30781   */\n      tag_689\n      jumpi\n        /* \"#utility.yul\":30777:30778   */\n      0x00\n        /* \"#utility.yul\":30774:30775   */\n      dup1\n        /* \"#utility.yul\":30767:30779   */\n      revert\n        /* \"#utility.yul\":30718:30781   */\n    tag_689:\n        /* \"#utility.yul\":30665:30787   */\n      pop\n      jump\t// out\n\n    auxdata: 0xa264697066735822122079d994f08261059c54151e7de7eb35c6a3b245e4cc36c6ccee76bbdfd9a7b09d64736f6c63430008070033\n}\n",
				"bytecode": {
					"linkReferences": {},
					"object": "608060405234801561001057600080fd5b5030600260006101000a81548173ffffffffffffffffffffffffffffffffffffffff021916908373ffffffffffffffffffffffffffffffffffffffff1602179055506136c9806100616000396000f3fe6080604052600436106101665760003560e01c806386e9ff0a116100d1578063bc16aad71161008a578063d0c3e90911610064578063d0c3e909146105e0578063d60f5a381461061d578063d7add75f14610639578063ffd64f8a1461066457610166565b8063bc16aad71461054f578063cf507bfb1461057a578063d0c343d6146105a357610166565b806386e9ff0a146103f55780639d6d10f9146104325780639fff963e1461046f578063a06c5e3d146104ac578063a56d6544146104d5578063b19781fe1461051257610166565b8063301822351161012357806330182235146102a357806340f12058146102e25780634fcb4a581461031f57806352943ff5146103485780635af77fff1461038d57806375772c47146103b857610166565b80630c4a33381461016b578063168d5d34146101a85780631a4b3311146101e95780631a779488146102265780632302ec7e1461024f57806325af031614610278575b600080fd5b34801561017757600080fd5b50610192600480360381019061018d9190612996565b6106a1565b60405161019f9190612f8a565b60405180910390f35b3480156101b457600080fd5b506101cf60048036038101906101ca9190612a6a565b610700565b6040516101e0959493929190613102565b60405180910390f35b3480156101f557600080fd5b50610210600480360381019061020b91906127a2565b6107eb565b60405161021d9190613045565b60405180910390f35b34801561023257600080fd5b5061024d600480360381019061024891906128b5565b610803565b005b34801561025b57600080fd5b5061027660048036038101906102719190612996565b6109bb565b005b34801561028457600080fd5b5061028d610c5d565b60405161029a9190613045565b60405180910390f35b3480156102af57600080fd5b506102ca60048036038101906102c591906129c3565b610c69565b6040516102d993929190612f0f565b60405180910390f35b3480156102ee57600080fd5b5061030960048036038101906103049190612822565b610ccd565b6040516103169190612f8a565b60405180910390f35b34801561032b57600080fd5b5061034660048036038101906103419190612aaa565b610cfc565b005b34801561035457600080fd5b5061036f600480360381019061036a9190612996565b611087565b60405161038499989796959493929190613060565b60405180910390f35b34801561039957600080fd5b506103a261128d565b6040516103af9190612ef4565b60405180910390f35b3480156103c457600080fd5b506103df60048036038101906103da9190612822565b6112b3565b6040516103ec9190612f8a565b60405180910390f35b34801561040157600080fd5b5061041c60048036038101906104179190612996565b6112e2565b6040516104299190612f68565b60405180910390f35b34801561043e57600080fd5b50610459600480360381019061045491906127a2565b611516565b6040516104669190613045565b60405180910390f35b34801561047b57600080fd5b50610496600480360381019061049191906129c3565b61152e565b6040516104a39190613045565b60405180910390f35b3480156104b857600080fd5b506104d360048036038101906104ce9190612a03565b611553565b005b3480156104e157600080fd5b506104fc60048036038101906104f79190612862565b611760565b6040516105099190612f8a565b60405180910390f35b34801561051e57600080fd5b50610539600480360381019061053491906127a2565b61179c565b6040516105469190613045565b60405180910390f35b34801561055b57600080fd5b506105646117b4565b6040516105719190612f46565b60405180910390f35b34801561058657600080fd5b506105a1600480360381019061059c9190612aaa565b611ad4565b005b3480156105af57600080fd5b506105ca60048036038101906105c591906127a2565b611c10565b6040516105d79190612f68565b60405180910390f35b3480156105ec57600080fd5b50610607600480360381019061060291906127a2565b611ee7565b6040516106149190612f46565b60405180910390f35b610637600480360381019061063291906127cf565b6122aa565b005b34801561064557600080fd5b5061064e612536565b60405161065b9190613045565b60405180910390f35b34801561067057600080fd5b5061068b60048036038101906106869190612996565b612542565b6040516106989190613045565b60405180910390f35b600042603c60066000858152602001908152602001600020600401546106c791906132a7565b60066000858152602001908152602001600020600501546106e89190613251565b116106f657600090506106fb565b600190505b919050565b60076020528160005260406000206020528060005260406000206000915091505080600001549080600101549080600201805461073c906133bf565b80601f0160208091040260200160405190810160405280929190818152602001828054610768906133bf565b80156107b55780601f1061078a576101008083540402835291602001916107b5565b820191906000526020600020905b81548152906001019060200180831161079857829003601f168201915b5050505050908060030160009054906101000a900473ffffffffffffffffffffffffffffffffffffffff16908060040154905085565b60096020528060005260406000206000915090505481565b61080d600061255a565b6001600360003373ffffffffffffffffffffffffffffffffffffffff1673ffffffffffffffffffffffffffffffffffffffff168152602001908152602001600020600082825461085d9190613251565b9250508190555060405180610120016040528061087a6000612570565b81526020018781526020018681526020018581526020018481526020014281526020018381526020018281526020013373ffffffffffffffffffffffffffffffffffffffff16815250600660006108d16000612570565b815260200190815260200160002060008201518160000155602082015181600101908051906020019061090592919061257e565b5060408201518160020155606082015181600301556080820151816004015560a0820151816005015560c082015181600601908051906020019061094a92919061257e565b5060e082015181600701908051906020019061096792919061257e565b506101008201518160080160006101000a81548173ffffffffffffffffffffffffffffffffffffffff021916908373ffffffffffffffffffffffffffffffffffffffff160217905550905050505050505050565b600860003373ffffffffffffffffffffffffffffffffffffffff1673ffffffffffffffffffffffffffffffffffffffff168152602001908152602001600020600082815260200190815260200160002060009054906101000a900460ff16610a58576040517f08c379a0000000000000000000000000000000000000000000000000000000008152600401610a4f90612fa5565b60405180910390fd5b6001600960003373ffffffffffffffffffffffffffffffffffffffff1673ffffffffffffffffffffffffffffffffffffffff1681526020019081526020016000206000828254610aa89190613301565b925050819055506001600560008381526020019081526020016000206000828254610ad39190613301565b925050819055506000600860003373ffffffffffffffffffffffffffffffffffffffff1673ffffffffffffffffffffffffffffffffffffffff168152602001908152602001600020600083815260200190815260200160002060006101000a81548160ff02191690831515021790555060076000600a600084815260200190815260200160002060003373ffffffffffffffffffffffffffffffffffffffff1673ffffffffffffffffffffffffffffffffffffffff16815260200190815260200160002054815260200190815260200160002060008281526020019081526020016000206000808201600090556001820160009055600282016000610bd89190612604565b6003820160006101000a81549073ffffffffffffffffffffffffffffffffffffffff021916905560048201600090555050600a600082815260200190815260200160002060003373ffffffffffffffffffffffffffffffffffffffff1673ffffffffffffffffffffffffffffffffffffffff1681526020019081526020016000205050565b60018060000154905081565b600b602052816000526040600020602052806000526040600020600091509150508060000160009054906101000a900473ffffffffffffffffffffffffffffffffffffffff16908060010154908060020160009054906101000a900460ff16905083565b60086020528160005260406000206020528060005260406000206000915091509054906101000a900460ff1681565b600860003373ffffffffffffffffffffffffffffffffffffffff1673ffffffffffffffffffffffffffffffffffffffff168152602001908152602001600020600085815260200190815260200160002060009054906101000a900460ff1615610d9a576040517f08c379a0000000000000000000000000000000000000000000000000000000008152600401610d9190613005565b60405180910390fd5b3373ffffffffffffffffffffffffffffffffffffffff166006600086815260200190815260200160002060080160009054906101000a900473ffffffffffffffffffffffffffffffffffffffff1673ffffffffffffffffffffffffffffffffffffffff161415610e3f576040517f08c379a0000000000000000000000000000000000000000000000000000000008152600401610e3690612fe5565b60405180910390fd5b610e49600161255a565b6001600860003373ffffffffffffffffffffffffffffffffffffffff1673ffffffffffffffffffffffffffffffffffffffff168152602001908152602001600020600086815260200190815260200160002060006101000a81548160ff0219169083151502179055506001600560008681526020019081526020016000206000828254610ed69190613251565b925050819055506001600960003373ffffffffffffffffffffffffffffffffffffffff1673ffffffffffffffffffffffffffffffffffffffff1681526020019081526020016000206000828254610f2d9190613251565b92505081905550610f3e6001612570565b600a600086815260200190815260200160002060003373ffffffffffffffffffffffffffffffffffffffff1673ffffffffffffffffffffffffffffffffffffffff168152602001908152602001600020819055506040518060a001604052808581526020018481526020018381526020013373ffffffffffffffffffffffffffffffffffffffff1681526020018281525060076000610fdd6001612570565b815260200190815260200160002060008681526020019081526020016000206000820151816000015560208201518160010155604082015181600201908051906020019061102c92919061257e565b5060608201518160030160006101000a81548173ffffffffffffffffffffffffffffffffffffffff021916908373ffffffffffffffffffffffffffffffffffffffff1602179055506080820151816004015590505050505050565b60066020528060005260406000206000915090508060000154908060010180546110b0906133bf565b80601f01602080910402602001604051908101604052809291908181526020018280546110dc906133bf565b80156111295780601f106110fe57610100808354040283529160200191611129565b820191906000526020600020905b81548152906001019060200180831161110c57829003601f168201915b505050505090806002015490806003015490806004015490806005015490806006018054611156906133bf565b80601f0160208091040260200160405190810160405280929190818152602001828054611182906133bf565b80156111cf5780601f106111a4576101008083540402835291602001916111cf565b820191906000526020600020905b8154815290600101906020018083116111b257829003601f168201915b5050505050908060070180546111e4906133bf565b80601f0160208091040260200160405190810160405280929190818152602001828054611210906133bf565b801561125d5780601f106112325761010080835404028352916020019161125d565b820191906000526020600020905b81548152906001019060200180831161124057829003601f168201915b5050505050908060080160009054906101000a900473ffffffffffffffffffffffffffffffffffffffff16905089565b600260009054906101000a900473ffffffffffffffffffffffffffffffffffffffff1681565b60046020528160005260406000206020528060005260406000206000915091509054906101000a900460ff1681565b60606000600560008481526020019081526020016000205467ffffffffffffffff811115611313576113126134f8565b5b60405190808252806020026020018201604052801561134c57816020015b611339612644565b8152602001906001900390816113315790505b509050600080600190505b6113616001612570565b811161150b57600760008281526020019081526020016000206000868152602001908152602001600020600001548514156114f8576007600082815260200190815260200160002060008681526020019081526020016000206040518060a001604052908160008201548152602001600182015481526020016002820180546113e9906133bf565b80601f0160208091040260200160405190810160405280929190818152602001828054611415906133bf565b80156114625780601f1061143757610100808354040283529160200191611462565b820191906000526020600020905b81548152906001019060200180831161144557829003601f168201915b505050505081526020016003820160009054906101000a900473ffffffffffffffffffffffffffffffffffffffff1673ffffffffffffffffffffffffffffffffffffffff1673ffffffffffffffffffffffffffffffffffffffff1681526020016004820154815250508383815181106114de576114dd6134c9565b5b602002602001018190525081806114f490613422565b9250505b808061150390613422565b915050611357565b508192505050919050565b600d6020528060005260406000206000915090505481565b600a602052816000526040600020602052806000526040600020600091509150505481565b60405180606001604052808473ffffffffffffffffffffffffffffffffffffffff16815260200182815260200160011515815250600b600086815260200190815260200160002060008473ffffffffffffffffffffffffffffffffffffffff1673ffffffffffffffffffffffffffffffffffffffff16815260200190815260200160002060008201518160000160006101000a81548173ffffffffffffffffffffffffffffffffffffffff021916908373ffffffffffffffffffffffffffffffffffffffff1602179055506020820151816001015560408201518160020160006101000a81548160ff0219169083151502179055509050506001600460008473ffffffffffffffffffffffffffffffffffffffff1673ffffffffffffffffffffffffffffffffffffffff168152602001908152602001600020600086815260200190815260200160002060006101000a81548160ff0219169083151502179055506001600c60008473ffffffffffffffffffffffffffffffffffffffff1673ffffffffffffffffffffffffffffffffffffffff168152602001908152602001600020600086815260200190815260200160002060008573ffffffffffffffffffffffffffffffffffffffff1673ffffffffffffffffffffffffffffffffffffffff16815260200190815260200160002060006101000a81548160ff02191690831515021790555050505050565b600c602052826000526040600020602052816000526040600020602052806000526040600020600092509250509054906101000a900460ff1681565b60036020528060005260406000206000915090505481565b606060006117c26000612570565b67ffffffffffffffff8111156117db576117da6134f8565b5b60405190808252806020026020018201604052801561181457816020015b611801612689565b8152602001906001900390816117f95790505b509050600080600190505b6118296000612570565b8111611acb57600660008281526020019081526020016000206040518061012001604052908160008201548152602001600182018054611868906133bf565b80601f0160208091040260200160405190810160405280929190818152602001828054611894906133bf565b80156118e15780601f106118b6576101008083540402835291602001916118e1565b820191906000526020600020905b8154815290600101906020018083116118c457829003601f168201915b5050505050815260200160028201548152602001600382015481526020016004820154815260200160058201548152602001600682018054611922906133bf565b80601f016020809104026020016040519081016040528092919081815260200182805461194e906133bf565b801561199b5780601f106119705761010080835404028352916020019161199b565b820191906000526020600020905b81548152906001019060200180831161197e57829003601f168201915b505050505081526020016007820180546119b4906133bf565b80601f01602080910402602001604051908101604052809291908181526020018280546119e0906133bf565b8015611a2d5780601f10611a0257610100808354040283529160200191611a2d565b820191906000526020600020905b815481529060010190602001808311611a1057829003601f168201915b505050505081526020016008820160009054906101000a900473ffffffffffffffffffffffffffffffffffffffff1673ffffffffffffffffffffffffffffffffffffffff1673ffffffffffffffffffffffffffffffffffffffff1681525050838381518110611a9f57611a9e6134c9565b5b60200260200101819052508180611ab590613422565b9250508080611ac390613422565b91505061181f565b50819250505090565b6040518060a001604052808581526020018481526020018381526020013373ffffffffffffffffffffffffffffffffffffffff1681526020018281525060076000600a600088815260200190815260200160002060003373ffffffffffffffffffffffffffffffffffffffff1673ffffffffffffffffffffffffffffffffffffffff168152602001908152602001600020548152602001908152602001600020600086815260200190815260200160002060008201518160000155602082015181600101556040820151816002019080519060200190611bb592919061257e565b5060608201518160030160006101000a81548173ffffffffffffffffffffffffffffffffffffffff021916908373ffffffffffffffffffffffffffffffffffffffff1602179055506080820151816004015590505050505050565b60606000600960008473ffffffffffffffffffffffffffffffffffffffff1673ffffffffffffffffffffffffffffffffffffffff1681526020019081526020016000205467ffffffffffffffff811115611c6d57611c6c6134f8565b5b604051908082528060200260200182016040528015611ca657816020015b611c93612644565b815260200190600190039081611c8b5790505b509050600080600190505b611cbb6000612570565b8111611edc576000600190505b611cd26001612570565b8111611ec85760076000828152602001908152602001600020600083815260200190815260200160002060030160009054906101000a900473ffffffffffffffffffffffffffffffffffffffff1673ffffffffffffffffffffffffffffffffffffffff168673ffffffffffffffffffffffffffffffffffffffff161415611eb5576007600082815260200190815260200160002060008381526020019081526020016000206040518060a00160405290816000820154815260200160018201548152602001600282018054611da6906133bf565b80601f0160208091040260200160405190810160405280929190818152602001828054611dd2906133bf565b8015611e1f5780601f10611df457610100808354040283529160200191611e1f565b820191906000526020600020905b815481529060010190602001808311611e0257829003601f168201915b505050505081526020016003820160009054906101000a900473ffffffffffffffffffffffffffffffffffffffff1673ffffffffffffffffffffffffffffffffffffffff1673ffffffffffffffffffffffffffffffffffffffff168152602001600482015481525050848481518110611e9b57611e9a6134c9565b5b60200260200101819052508280611eb190613422565b9350505b8080611ec090613422565b915050611cc8565b508080611ed490613422565b915050611cb1565b508192505050919050565b60606000600360008473ffffffffffffffffffffffffffffffffffffffff1673ffffffffffffffffffffffffffffffffffffffff1681526020019081526020016000205467ffffffffffffffff811115611f4457611f436134f8565b5b604051908082528060200260200182016040528015611f7d57816020015b611f6a612689565b815260200190600190039081611f625790505b509050600080600190505b611f926000612570565b811161229f576006600082815260200190815260200160002060080160009054906101000a900473ffffffffffffffffffffffffffffffffffffffff1673ffffffffffffffffffffffffffffffffffffffff168573ffffffffffffffffffffffffffffffffffffffff16141561228c5760066000828152602001908152602001600020604051806101200160405290816000820154815260200160018201805461203b906133bf565b80601f0160208091040260200160405190810160405280929190818152602001828054612067906133bf565b80156120b45780601f10612089576101008083540402835291602001916120b4565b820191906000526020600020905b81548152906001019060200180831161209757829003601f168201915b50505050508152602001600282015481526020016003820154815260200160048201548152602001600582015481526020016006820180546120f5906133bf565b80601f0160208091040260200160405190810160405280929190818152602001828054612121906133bf565b801561216e5780601f106121435761010080835404028352916020019161216e565b820191906000526020600020905b81548152906001019060200180831161215157829003601f168201915b50505050508152602001600782018054612187906133bf565b80601f01602080910402602001604051908101604052809291908181526020018280546121b3906133bf565b80156122005780601f106121d557610100808354040283529160200191612200565b820191906000526020600020905b8154815290600101906020018083116121e357829003601f168201915b505050505081526020016008820160009054906101000a900473ffffffffffffffffffffffffffffffffffffffff1673ffffffffffffffffffffffffffffffffffffffff1673ffffffffffffffffffffffffffffffffffffffff1681525050838381518110612272576122716134c9565b5b6020026020010181905250818061228890613422565b9250505b808061229790613422565b915050611f88565b508192505050919050565b8273ffffffffffffffffffffffffffffffffffffffff16600b600083815260200190815260200160002060008473ffffffffffffffffffffffffffffffffffffffff1673ffffffffffffffffffffffffffffffffffffffff16815260200190815260200160002060000160009054906101000a900473ffffffffffffffffffffffffffffffffffffffff1673ffffffffffffffffffffffffffffffffffffffff161461238b576040517f08c379a000000000000000000000000000000000000000000000000000000000815260040161238290612fc5565b60405180910390fd5b600b600082815260200190815260200160002060008373ffffffffffffffffffffffffffffffffffffffff1673ffffffffffffffffffffffffffffffffffffffff16815260200190815260200160002060020160009054906101000a900460ff1661242b576040517f08c379a000000000000000000000000000000000000000000000000000000000815260040161242290613025565b60405180910390fd5b6000600b600083815260200190815260200160002060008473ffffffffffffffffffffffffffffffffffffffff1673ffffffffffffffffffffffffffffffffffffffff16815260200190815260200160002060020160006101000a81548160ff0219169083151502179055508273ffffffffffffffffffffffffffffffffffffffff166108fc600b600084815260200190815260200160002060008573ffffffffffffffffffffffffffffffffffffffff1673ffffffffffffffffffffffffffffffffffffffff168152602001908152602001600020600101549081150290604051600060405180830381858888f19350505050158015612530573d6000803e3d6000fd5b50505050565b60008060000154905081565b60056020528060005260406000206000915090505481565b6001816000016000828254019250508190555050565b600081600001549050919050565b82805461258a906133bf565b90600052602060002090601f0160209004810192826125ac57600085556125f3565b82601f106125c557805160ff19168380011785556125f3565b828001600101855582156125f3579182015b828111156125f25782518255916020019190600101906125d7565b5b50905061260091906126eb565b5090565b508054612610906133bf565b6000825580601f106126225750612641565b601f01602090049060005260206000209081019061264091906126eb565b5b50565b6040518060a00160405280600081526020016000815260200160608152602001600073ffffffffffffffffffffffffffffffffffffffff168152602001600081525090565b6040518061012001604052806000815260200160608152602001600081526020016000815260200160008152602001600081526020016060815260200160608152602001600073ffffffffffffffffffffffffffffffffffffffff1681525090565b5b808211156127045760008160009055506001016126ec565b5090565b600061271b61271684613181565b61315c565b9050828152602081018484840111156127375761273661352c565b5b61274284828561337d565b509392505050565b60008135905061275981613665565b92915050565b600082601f83011261277457612773613527565b5b8135612784848260208601612708565b91505092915050565b60008135905061279c8161367c565b92915050565b6000602082840312156127b8576127b7613536565b5b60006127c68482850161274a565b91505092915050565b6000806000606084860312156127e8576127e7613536565b5b60006127f68682870161274a565b93505060206128078682870161274a565b92505060406128188682870161278d565b9150509250925092565b6000806040838503121561283957612838613536565b5b60006128478582860161274a565b92505060206128588582860161278d565b9150509250929050565b60008060006060848603121561287b5761287a613536565b5b60006128898682870161274a565b935050602061289a8682870161278d565b92505060406128ab8682870161274a565b9150509250925092565b60008060008060008060c087890312156128d2576128d1613536565b5b600087013567ffffffffffffffff8111156128f0576128ef613531565b5b6128fc89828a0161275f565b965050602061290d89828a0161278d565b955050604061291e89828a0161278d565b945050606061292f89828a0161278d565b935050608087013567ffffffffffffffff8111156129505761294f613531565b5b61295c89828a0161275f565b92505060a087013567ffffffffffffffff81111561297d5761297c613531565b5b61298989828a0161275f565b9150509295509295509295565b6000602082840312156129ac576129ab613536565b5b60006129ba8482850161278d565b91505092915050565b600080604083850312156129da576129d9613536565b5b60006129e88582860161278d565b92505060206129f98582860161274a565b9150509250929050565b60008060008060808587031215612a1d57612a1c613536565b5b6000612a2b8782880161278d565b9450506020612a3c8782880161274a565b9350506040612a4d8782880161274a565b9250506060612a5e8782880161278d565b91505092959194509250565b60008060408385031215612a8157612a80613536565b5b6000612a8f8582860161278d565b9250506020612aa08582860161278d565b9150509250929050565b60008060008060808587031215612ac457612ac3613536565b5b6000612ad28782880161278d565b9450506020612ae38782880161278d565b935050604085013567ffffffffffffffff811115612b0457612b03613531565b5b612b108782880161275f565b9250506060612b218782880161278d565b91505092959194509250565b6000612b398383612d8d565b905092915050565b6000612b4d8383612e60565b905092915050565b612b5e81613335565b82525050565b612b6d81613335565b82525050565b6000612b7e826131d2565b612b88818561320d565b935083602082028501612b9a856131b2565b8060005b85811015612bd65784840389528151612bb78582612b2d565b9450612bc2836131f3565b925060208a01995050600181019050612b9e565b50829750879550505050505092915050565b6000612bf3826131dd565b612bfd818561321e565b935083602082028501612c0f856131c2565b8060005b85811015612c4b5784840389528151612c2c8582612b41565b9450612c3783613200565b925060208a01995050600181019050612c13565b50829750879550505050505092915050565b612c6681613347565b82525050565b6000612c77826131e8565b612c81818561322f565b9350612c9181856020860161338c565b612c9a8161353b565b840191505092915050565b6000612cb0826131e8565b612cba8185613240565b9350612cca81856020860161338c565b612cd38161353b565b840191505092915050565b6000612ceb601183613240565b9150612cf68261354c565b602082019050919050565b6000612d0e602483613240565b9150612d1982613575565b604082019050919050565b6000612d31601c83613240565b9150612d3c826135c4565b602082019050919050565b6000612d54602283613240565b9150612d5f826135ed565b604082019050919050565b6000612d77601383613240565b9150612d828261363c565b602082019050919050565b600061012083016000830151612da66000860182612ed6565b5060208301518482036020860152612dbe8282612c6c565b9150506040830151612dd36040860182612ed6565b506060830151612de66060860182612ed6565b506080830151612df96080860182612ed6565b5060a0830151612e0c60a0860182612ed6565b5060c083015184820360c0860152612e248282612c6c565b91505060e083015184820360e0860152612e3e8282612c6c565b915050610100830151612e55610100860182612b55565b508091505092915050565b600060a083016000830151612e786000860182612ed6565b506020830151612e8b6020860182612ed6565b5060408301518482036040860152612ea38282612c6c565b9150506060830151612eb86060860182612b55565b506080830151612ecb6080860182612ed6565b508091505092915050565b612edf81613373565b82525050565b612eee81613373565b82525050565b6000602082019050612f096000830184612b64565b92915050565b6000606082019050612f246000830186612b64565b612f316020830185612ee5565b612f3e6040830184612c5d565b949350505050565b60006020820190508181036000830152612f608184612b73565b905092915050565b60006020820190508181036000830152612f828184612be8565b905092915050565b6000602082019050612f9f6000830184612c5d565b92915050565b60006020820190508181036000830152612fbe81612cde565b9050919050565b60006020820190508181036000830152612fde81612d01565b9050919050565b60006020820190508181036000830152612ffe81612d24565b9050919050565b6000602082019050818103600083015261301e81612d47565b9050919050565b6000602082019050818103600083015261303e81612d6a565b9050919050565b600060208201905061305a6000830184612ee5565b92915050565b600061012082019050613076600083018c612ee5565b8181036020830152613088818b612ca5565b9050613097604083018a612ee5565b6130a46060830189612ee5565b6130b16080830188612ee5565b6130be60a0830187612ee5565b81810360c08301526130d08186612ca5565b905081810360e08301526130e48185612ca5565b90506130f4610100830184612b64565b9a9950505050505050505050565b600060a0820190506131176000830188612ee5565b6131246020830187612ee5565b81810360408301526131368186612ca5565b90506131456060830185612b64565b6131526080830184612ee5565b9695505050505050565b6000613166613177565b905061317282826133f1565b919050565b6000604051905090565b600067ffffffffffffffff82111561319c5761319b6134f8565b5b6131a58261353b565b9050602081019050919050565b6000819050602082019050919050565b6000819050602082019050919050565b600081519050919050565b600081519050919050565b600081519050919050565b6000602082019050919050565b6000602082019050919050565b600082825260208201905092915050565b600082825260208201905092915050565b600082825260208201905092915050565b600082825260208201905092915050565b600061325c82613373565b915061326783613373565b9250827fffffffffffffffffffffffffffffffffffffffffffffffffffffffffffffffff0382111561329c5761329b61346b565b5b828201905092915050565b60006132b282613373565b91506132bd83613373565b9250817fffffffffffffffffffffffffffffffffffffffffffffffffffffffffffffffff04831182151516156132f6576132f561346b565b5b828202905092915050565b600061330c82613373565b915061331783613373565b92508282101561332a5761332961346b565b5b828203905092915050565b600061334082613353565b9050919050565b60008115159050919050565b600073ffffffffffffffffffffffffffffffffffffffff82169050919050565b6000819050919050565b82818337600083830152505050565b60005b838110156133aa57808201518184015260208101905061338f565b838111156133b9576000848401525b50505050565b600060028204905060018216806133d757607f821691505b602082108114156133eb576133ea61349a565b5b50919050565b6133fa8261353b565b810181811067ffffffffffffffff82111715613419576134186134f8565b5b80604052505050565b600061342d82613373565b91507fffffffffffffffffffffffffffffffffffffffffffffffffffffffffffffffff8214156134605761345f61346b565b5b600182019050919050565b7f4e487b7100000000000000000000000000000000000000000000000000000000600052601160045260246000fd5b7f4e487b7100000000000000000000000000000000000000000000000000000000600052602260045260246000fd5b7f4e487b7100000000000000000000000000000000000000000000000000000000600052603260045260246000fd5b7f4e487b7100000000000000000000000000000000000000000000000000000000600052604160045260246000fd5b600080fd5b600080fd5b600080fd5b600080fd5b6000601f19601f8301169050919050565b7f596f752063616e4e6f742044656c657465000000000000000000000000000000600082015250565b7f506c656173652053656c6c6563742074686520636f727265637420526563657060008201527f69656e7400000000000000000000000000000000000000000000000000000000602082015250565b7f596f7520617265204f776e6572206f6620746869732054656e64657200000000600082015250565b7f596f7520416c7265616479204170706c7920666f72207468697320526571756560008201527f7374000000000000000000000000000000000000000000000000000000000000602082015250565b7f596f7520616c7265616479207061796d656e7400000000000000000000000000600082015250565b61366e81613335565b811461367957600080fd5b50565b61368581613373565b811461369057600080fd5b5056fea264697066735822122079d994f08261059c54151e7de7eb35c6a3b245e4cc36c6ccee76bbdfd9a7b09d64736f6c63430008070033",
					"opcodes": "PUSH1 0x80 PUSH1 0x40 MSTORE CALLVALUE DUP1 ISZERO PUSH2 0x10 JUMPI PUSH1 0x0 DUP1 REVERT JUMPDEST POP ADDRESS PUSH1 0x2 PUSH1 0x0 PUSH2 0x100 EXP DUP2 SLOAD DUP2 PUSH20 0xFFFFFFFFFFFFFFFFFFFFFFFFFFFFFFFFFFFFFFFF MUL NOT AND SWAP1 DUP4 PUSH20 0xFFFFFFFFFFFFFFFFFFFFFFFFFFFFFFFFFFFFFFFF AND MUL OR SWAP1 SSTORE POP PUSH2 0x36C9 DUP1 PUSH2 0x61 PUSH1 0x0 CODECOPY PUSH1 0x0 RETURN INVALID PUSH1 0x80 PUSH1 0x40 MSTORE PUSH1 0x4 CALLDATASIZE LT PUSH2 0x166 JUMPI PUSH1 0x0 CALLDATALOAD PUSH1 0xE0 SHR DUP1 PUSH4 0x86E9FF0A GT PUSH2 0xD1 JUMPI DUP1 PUSH4 0xBC16AAD7 GT PUSH2 0x8A JUMPI DUP1 PUSH4 0xD0C3E909 GT PUSH2 0x64 JUMPI DUP1 PUSH4 0xD0C3E909 EQ PUSH2 0x5E0 JUMPI DUP1 PUSH4 0xD60F5A38 EQ PUSH2 0x61D JUMPI DUP1 PUSH4 0xD7ADD75F EQ PUSH2 0x639 JUMPI DUP1 PUSH4 0xFFD64F8A EQ PUSH2 0x664 JUMPI PUSH2 0x166 JUMP JUMPDEST DUP1 PUSH4 0xBC16AAD7 EQ PUSH2 0x54F JUMPI DUP1 PUSH4 0xCF507BFB EQ PUSH2 0x57A JUMPI DUP1 PUSH4 0xD0C343D6 EQ PUSH2 0x5A3 JUMPI PUSH2 0x166 JUMP JUMPDEST DUP1 PUSH4 0x86E9FF0A EQ PUSH2 0x3F5 JUMPI DUP1 PUSH4 0x9D6D10F9 EQ PUSH2 0x432 JUMPI DUP1 PUSH4 0x9FFF963E EQ PUSH2 0x46F JUMPI DUP1 PUSH4 0xA06C5E3D EQ PUSH2 0x4AC JUMPI DUP1 PUSH4 0xA56D6544 EQ PUSH2 0x4D5 JUMPI DUP1 PUSH4 0xB19781FE EQ PUSH2 0x512 JUMPI PUSH2 0x166 JUMP JUMPDEST DUP1 PUSH4 0x30182235 GT PUSH2 0x123 JUMPI DUP1 PUSH4 0x30182235 EQ PUSH2 0x2A3 JUMPI DUP1 PUSH4 0x40F12058 EQ PUSH2 0x2E2 JUMPI DUP1 PUSH4 0x4FCB4A58 EQ PUSH2 0x31F JUMPI DUP1 PUSH4 0x52943FF5 EQ PUSH2 0x348 JUMPI DUP1 PUSH4 0x5AF77FFF EQ PUSH2 0x38D JUMPI DUP1 PUSH4 0x75772C47 EQ PUSH2 0x3B8 JUMPI PUSH2 0x166 JUMP JUMPDEST DUP1 PUSH4 0xC4A3338 EQ PUSH2 0x16B JUMPI DUP1 PUSH4 0x168D5D34 EQ PUSH2 0x1A8 JUMPI DUP1 PUSH4 0x1A4B3311 EQ PUSH2 0x1E9 JUMPI DUP1 PUSH4 0x1A779488 EQ PUSH2 0x226 JUMPI DUP1 PUSH4 0x2302EC7E EQ PUSH2 0x24F JUMPI DUP1 PUSH4 0x25AF0316 EQ PUSH2 0x278 JUMPI JUMPDEST PUSH1 0x0 DUP1 REVERT JUMPDEST CALLVALUE DUP1 ISZERO PUSH2 0x177 JUMPI PUSH1 0x0 DUP1 REVERT JUMPDEST POP PUSH2 0x192 PUSH1 0x4 DUP1 CALLDATASIZE SUB DUP2 ADD SWAP1 PUSH2 0x18D SWAP2 SWAP1 PUSH2 0x2996 JUMP JUMPDEST PUSH2 0x6A1 JUMP JUMPDEST PUSH1 0x40 MLOAD PUSH2 0x19F SWAP2 SWAP1 PUSH2 0x2F8A JUMP JUMPDEST PUSH1 0x40 MLOAD DUP1 SWAP2 SUB SWAP1 RETURN JUMPDEST CALLVALUE DUP1 ISZERO PUSH2 0x1B4 JUMPI PUSH1 0x0 DUP1 REVERT JUMPDEST POP PUSH2 0x1CF PUSH1 0x4 DUP1 CALLDATASIZE SUB DUP2 ADD SWAP1 PUSH2 0x1CA SWAP2 SWAP1 PUSH2 0x2A6A JUMP JUMPDEST PUSH2 0x700 JUMP JUMPDEST PUSH1 0x40 MLOAD PUSH2 0x1E0 SWAP6 SWAP5 SWAP4 SWAP3 SWAP2 SWAP1 PUSH2 0x3102 JUMP JUMPDEST PUSH1 0x40 MLOAD DUP1 SWAP2 SUB SWAP1 RETURN JUMPDEST CALLVALUE DUP1 ISZERO PUSH2 0x1F5 JUMPI PUSH1 0x0 DUP1 REVERT JUMPDEST POP PUSH2 0x210 PUSH1 0x4 DUP1 CALLDATASIZE SUB DUP2 ADD SWAP1 PUSH2 0x20B SWAP2 SWAP1 PUSH2 0x27A2 JUMP JUMPDEST PUSH2 0x7EB JUMP JUMPDEST PUSH1 0x40 MLOAD PUSH2 0x21D SWAP2 SWAP1 PUSH2 0x3045 JUMP JUMPDEST PUSH1 0x40 MLOAD DUP1 SWAP2 SUB SWAP1 RETURN JUMPDEST CALLVALUE DUP1 ISZERO PUSH2 0x232 JUMPI PUSH1 0x0 DUP1 REVERT JUMPDEST POP PUSH2 0x24D PUSH1 0x4 DUP1 CALLDATASIZE SUB DUP2 ADD SWAP1 PUSH2 0x248 SWAP2 SWAP1 PUSH2 0x28B5 JUMP JUMPDEST PUSH2 0x803 JUMP JUMPDEST STOP JUMPDEST CALLVALUE DUP1 ISZERO PUSH2 0x25B JUMPI PUSH1 0x0 DUP1 REVERT JUMPDEST POP PUSH2 0x276 PUSH1 0x4 DUP1 CALLDATASIZE SUB DUP2 ADD SWAP1 PUSH2 0x271 SWAP2 SWAP1 PUSH2 0x2996 JUMP JUMPDEST PUSH2 0x9BB JUMP JUMPDEST STOP JUMPDEST CALLVALUE DUP1 ISZERO PUSH2 0x284 JUMPI PUSH1 0x0 DUP1 REVERT JUMPDEST POP PUSH2 0x28D PUSH2 0xC5D JUMP JUMPDEST PUSH1 0x40 MLOAD PUSH2 0x29A SWAP2 SWAP1 PUSH2 0x3045 JUMP JUMPDEST PUSH1 0x40 MLOAD DUP1 SWAP2 SUB SWAP1 RETURN JUMPDEST CALLVALUE DUP1 ISZERO PUSH2 0x2AF JUMPI PUSH1 0x0 DUP1 REVERT JUMPDEST POP PUSH2 0x2CA PUSH1 0x4 DUP1 CALLDATASIZE SUB DUP2 ADD SWAP1 PUSH2 0x2C5 SWAP2 SWAP1 PUSH2 0x29C3 JUMP JUMPDEST PUSH2 0xC69 JUMP JUMPDEST PUSH1 0x40 MLOAD PUSH2 0x2D9 SWAP4 SWAP3 SWAP2 SWAP1 PUSH2 0x2F0F JUMP JUMPDEST PUSH1 0x40 MLOAD DUP1 SWAP2 SUB SWAP1 RETURN JUMPDEST CALLVALUE DUP1 ISZERO PUSH2 0x2EE JUMPI PUSH1 0x0 DUP1 REVERT JUMPDEST POP PUSH2 0x309 PUSH1 0x4 DUP1 CALLDATASIZE SUB DUP2 ADD SWAP1 PUSH2 0x304 SWAP2 SWAP1 PUSH2 0x2822 JUMP JUMPDEST PUSH2 0xCCD JUMP JUMPDEST PUSH1 0x40 MLOAD PUSH2 0x316 SWAP2 SWAP1 PUSH2 0x2F8A JUMP JUMPDEST PUSH1 0x40 MLOAD DUP1 SWAP2 SUB SWAP1 RETURN JUMPDEST CALLVALUE DUP1 ISZERO PUSH2 0x32B JUMPI PUSH1 0x0 DUP1 REVERT JUMPDEST POP PUSH2 0x346 PUSH1 0x4 DUP1 CALLDATASIZE SUB DUP2 ADD SWAP1 PUSH2 0x341 SWAP2 SWAP1 PUSH2 0x2AAA JUMP JUMPDEST PUSH2 0xCFC JUMP JUMPDEST STOP JUMPDEST CALLVALUE DUP1 ISZERO PUSH2 0x354 JUMPI PUSH1 0x0 DUP1 REVERT JUMPDEST POP PUSH2 0x36F PUSH1 0x4 DUP1 CALLDATASIZE SUB DUP2 ADD SWAP1 PUSH2 0x36A SWAP2 SWAP1 PUSH2 0x2996 JUMP JUMPDEST PUSH2 0x1087 JUMP JUMPDEST PUSH1 0x40 MLOAD PUSH2 0x384 SWAP10 SWAP9 SWAP8 SWAP7 SWAP6 SWAP5 SWAP4 SWAP3 SWAP2 SWAP1 PUSH2 0x3060 JUMP JUMPDEST PUSH1 0x40 MLOAD DUP1 SWAP2 SUB SWAP1 RETURN JUMPDEST CALLVALUE DUP1 ISZERO PUSH2 0x399 JUMPI PUSH1 0x0 DUP1 REVERT JUMPDEST POP PUSH2 0x3A2 PUSH2 0x128D JUMP JUMPDEST PUSH1 0x40 MLOAD PUSH2 0x3AF SWAP2 SWAP1 PUSH2 0x2EF4 JUMP JUMPDEST PUSH1 0x40 MLOAD DUP1 SWAP2 SUB SWAP1 RETURN JUMPDEST CALLVALUE DUP1 ISZERO PUSH2 0x3C4 JUMPI PUSH1 0x0 DUP1 REVERT JUMPDEST POP PUSH2 0x3DF PUSH1 0x4 DUP1 CALLDATASIZE SUB DUP2 ADD SWAP1 PUSH2 0x3DA SWAP2 SWAP1 PUSH2 0x2822 JUMP JUMPDEST PUSH2 0x12B3 JUMP JUMPDEST PUSH1 0x40 MLOAD PUSH2 0x3EC SWAP2 SWAP1 PUSH2 0x2F8A JUMP JUMPDEST PUSH1 0x40 MLOAD DUP1 SWAP2 SUB SWAP1 RETURN JUMPDEST CALLVALUE DUP1 ISZERO PUSH2 0x401 JUMPI PUSH1 0x0 DUP1 REVERT JUMPDEST POP PUSH2 0x41C PUSH1 0x4 DUP1 CALLDATASIZE SUB DUP2 ADD SWAP1 PUSH2 0x417 SWAP2 SWAP1 PUSH2 0x2996 JUMP JUMPDEST PUSH2 0x12E2 JUMP JUMPDEST PUSH1 0x40 MLOAD PUSH2 0x429 SWAP2 SWAP1 PUSH2 0x2F68 JUMP JUMPDEST PUSH1 0x40 MLOAD DUP1 SWAP2 SUB SWAP1 RETURN JUMPDEST CALLVALUE DUP1 ISZERO PUSH2 0x43E JUMPI PUSH1 0x0 DUP1 REVERT JUMPDEST POP PUSH2 0x459 PUSH1 0x4 DUP1 CALLDATASIZE SUB DUP2 ADD SWAP1 PUSH2 0x454 SWAP2 SWAP1 PUSH2 0x27A2 JUMP JUMPDEST PUSH2 0x1516 JUMP JUMPDEST PUSH1 0x40 MLOAD PUSH2 0x466 SWAP2 SWAP1 PUSH2 0x3045 JUMP JUMPDEST PUSH1 0x40 MLOAD DUP1 SWAP2 SUB SWAP1 RETURN JUMPDEST CALLVALUE DUP1 ISZERO PUSH2 0x47B JUMPI PUSH1 0x0 DUP1 REVERT JUMPDEST POP PUSH2 0x496 PUSH1 0x4 DUP1 CALLDATASIZE SUB DUP2 ADD SWAP1 PUSH2 0x491 SWAP2 SWAP1 PUSH2 0x29C3 JUMP JUMPDEST PUSH2 0x152E JUMP JUMPDEST PUSH1 0x40 MLOAD PUSH2 0x4A3 SWAP2 SWAP1 PUSH2 0x3045 JUMP JUMPDEST PUSH1 0x40 MLOAD DUP1 SWAP2 SUB SWAP1 RETURN JUMPDEST CALLVALUE DUP1 ISZERO PUSH2 0x4B8 JUMPI PUSH1 0x0 DUP1 REVERT JUMPDEST POP PUSH2 0x4D3 PUSH1 0x4 DUP1 CALLDATASIZE SUB DUP2 ADD SWAP1 PUSH2 0x4CE SWAP2 SWAP1 PUSH2 0x2A03 JUMP JUMPDEST PUSH2 0x1553 JUMP JUMPDEST STOP JUMPDEST CALLVALUE DUP1 ISZERO PUSH2 0x4E1 JUMPI PUSH1 0x0 DUP1 REVERT JUMPDEST POP PUSH2 0x4FC PUSH1 0x4 DUP1 CALLDATASIZE SUB DUP2 ADD SWAP1 PUSH2 0x4F7 SWAP2 SWAP1 PUSH2 0x2862 JUMP JUMPDEST PUSH2 0x1760 JUMP JUMPDEST PUSH1 0x40 MLOAD PUSH2 0x509 SWAP2 SWAP1 PUSH2 0x2F8A JUMP JUMPDEST PUSH1 0x40 MLOAD DUP1 SWAP2 SUB SWAP1 RETURN JUMPDEST CALLVALUE DUP1 ISZERO PUSH2 0x51E JUMPI PUSH1 0x0 DUP1 REVERT JUMPDEST POP PUSH2 0x539 PUSH1 0x4 DUP1 CALLDATASIZE SUB DUP2 ADD SWAP1 PUSH2 0x534 SWAP2 SWAP1 PUSH2 0x27A2 JUMP JUMPDEST PUSH2 0x179C JUMP JUMPDEST PUSH1 0x40 MLOAD PUSH2 0x546 SWAP2 SWAP1 PUSH2 0x3045 JUMP JUMPDEST PUSH1 0x40 MLOAD DUP1 SWAP2 SUB SWAP1 RETURN JUMPDEST CALLVALUE DUP1 ISZERO PUSH2 0x55B JUMPI PUSH1 0x0 DUP1 REVERT JUMPDEST POP PUSH2 0x564 PUSH2 0x17B4 JUMP JUMPDEST PUSH1 0x40 MLOAD PUSH2 0x571 SWAP2 SWAP1 PUSH2 0x2F46 JUMP JUMPDEST PUSH1 0x40 MLOAD DUP1 SWAP2 SUB SWAP1 RETURN JUMPDEST CALLVALUE DUP1 ISZERO PUSH2 0x586 JUMPI PUSH1 0x0 DUP1 REVERT JUMPDEST POP PUSH2 0x5A1 PUSH1 0x4 DUP1 CALLDATASIZE SUB DUP2 ADD SWAP1 PUSH2 0x59C SWAP2 SWAP1 PUSH2 0x2AAA JUMP JUMPDEST PUSH2 0x1AD4 JUMP JUMPDEST STOP JUMPDEST CALLVALUE DUP1 ISZERO PUSH2 0x5AF JUMPI PUSH1 0x0 DUP1 REVERT JUMPDEST POP PUSH2 0x5CA PUSH1 0x4 DUP1 CALLDATASIZE SUB DUP2 ADD SWAP1 PUSH2 0x5C5 SWAP2 SWAP1 PUSH2 0x27A2 JUMP JUMPDEST PUSH2 0x1C10 JUMP JUMPDEST PUSH1 0x40 MLOAD PUSH2 0x5D7 SWAP2 SWAP1 PUSH2 0x2F68 JUMP JUMPDEST PUSH1 0x40 MLOAD DUP1 SWAP2 SUB SWAP1 RETURN JUMPDEST CALLVALUE DUP1 ISZERO PUSH2 0x5EC JUMPI PUSH1 0x0 DUP1 REVERT JUMPDEST POP PUSH2 0x607 PUSH1 0x4 DUP1 CALLDATASIZE SUB DUP2 ADD SWAP1 PUSH2 0x602 SWAP2 SWAP1 PUSH2 0x27A2 JUMP JUMPDEST PUSH2 0x1EE7 JUMP JUMPDEST PUSH1 0x40 MLOAD PUSH2 0x614 SWAP2 SWAP1 PUSH2 0x2F46 JUMP JUMPDEST PUSH1 0x40 MLOAD DUP1 SWAP2 SUB SWAP1 RETURN JUMPDEST PUSH2 0x637 PUSH1 0x4 DUP1 CALLDATASIZE SUB DUP2 ADD SWAP1 PUSH2 0x632 SWAP2 SWAP1 PUSH2 0x27CF JUMP JUMPDEST PUSH2 0x22AA JUMP JUMPDEST STOP JUMPDEST CALLVALUE DUP1 ISZERO PUSH2 0x645 JUMPI PUSH1 0x0 DUP1 REVERT JUMPDEST POP PUSH2 0x64E PUSH2 0x2536 JUMP JUMPDEST PUSH1 0x40 MLOAD PUSH2 0x65B SWAP2 SWAP1 PUSH2 0x3045 JUMP JUMPDEST PUSH1 0x40 MLOAD DUP1 SWAP2 SUB SWAP1 RETURN JUMPDEST CALLVALUE DUP1 ISZERO PUSH2 0x670 JUMPI PUSH1 0x0 DUP1 REVERT JUMPDEST POP PUSH2 0x68B PUSH1 0x4 DUP1 CALLDATASIZE SUB DUP2 ADD SWAP1 PUSH2 0x686 SWAP2 SWAP1 PUSH2 0x2996 JUMP JUMPDEST PUSH2 0x2542 JUMP JUMPDEST PUSH1 0x40 MLOAD PUSH2 0x698 SWAP2 SWAP1 PUSH2 0x3045 JUMP JUMPDEST PUSH1 0x40 MLOAD DUP1 SWAP2 SUB SWAP1 RETURN JUMPDEST PUSH1 0x0 TIMESTAMP PUSH1 0x3C PUSH1 0x6 PUSH1 0x0 DUP6 DUP2 MSTORE PUSH1 0x20 ADD SWAP1 DUP2 MSTORE PUSH1 0x20 ADD PUSH1 0x0 KECCAK256 PUSH1 0x4 ADD SLOAD PUSH2 0x6C7 SWAP2 SWAP1 PUSH2 0x32A7 JUMP JUMPDEST PUSH1 0x6 PUSH1 0x0 DUP6 DUP2 MSTORE PUSH1 0x20 ADD SWAP1 DUP2 MSTORE PUSH1 0x20 ADD PUSH1 0x0 KECCAK256 PUSH1 0x5 ADD SLOAD PUSH2 0x6E8 SWAP2 SWAP1 PUSH2 0x3251 JUMP JUMPDEST GT PUSH2 0x6F6 JUMPI PUSH1 0x0 SWAP1 POP PUSH2 0x6FB JUMP JUMPDEST PUSH1 0x1 SWAP1 POP JUMPDEST SWAP2 SWAP1 POP JUMP JUMPDEST PUSH1 0x7 PUSH1 0x20 MSTORE DUP2 PUSH1 0x0 MSTORE PUSH1 0x40 PUSH1 0x0 KECCAK256 PUSH1 0x20 MSTORE DUP1 PUSH1 0x0 MSTORE PUSH1 0x40 PUSH1 0x0 KECCAK256 PUSH1 0x0 SWAP2 POP SWAP2 POP POP DUP1 PUSH1 0x0 ADD SLOAD SWAP1 DUP1 PUSH1 0x1 ADD SLOAD SWAP1 DUP1 PUSH1 0x2 ADD DUP1 SLOAD PUSH2 0x73C SWAP1 PUSH2 0x33BF JUMP JUMPDEST DUP1 PUSH1 0x1F ADD PUSH1 0x20 DUP1 SWAP2 DIV MUL PUSH1 0x20 ADD PUSH1 0x40 MLOAD SWAP1 DUP2 ADD PUSH1 0x40 MSTORE DUP1 SWAP3 SWAP2 SWAP1 DUP2 DUP2 MSTORE PUSH1 0x20 ADD DUP3 DUP1 SLOAD PUSH2 0x768 SWAP1 PUSH2 0x33BF JUMP JUMPDEST DUP1 ISZERO PUSH2 0x7B5 JUMPI DUP1 PUSH1 0x1F LT PUSH2 0x78A JUMPI PUSH2 0x100 DUP1 DUP4 SLOAD DIV MUL DUP4 MSTORE SWAP2 PUSH1 0x20 ADD SWAP2 PUSH2 0x7B5 JUMP JUMPDEST DUP3 ADD SWAP2 SWAP1 PUSH1 0x0 MSTORE PUSH1 0x20 PUSH1 0x0 KECCAK256 SWAP1 JUMPDEST DUP2 SLOAD DUP2 MSTORE SWAP1 PUSH1 0x1 ADD SWAP1 PUSH1 0x20 ADD DUP1 DUP4 GT PUSH2 0x798 JUMPI DUP3 SWAP1 SUB PUSH1 0x1F AND DUP3 ADD SWAP2 JUMPDEST POP POP POP POP POP SWAP1 DUP1 PUSH1 0x3 ADD PUSH1 0x0 SWAP1 SLOAD SWAP1 PUSH2 0x100 EXP SWAP1 DIV PUSH20 0xFFFFFFFFFFFFFFFFFFFFFFFFFFFFFFFFFFFFFFFF AND SWAP1 DUP1 PUSH1 0x4 ADD SLOAD SWAP1 POP DUP6 JUMP JUMPDEST PUSH1 0x9 PUSH1 0x20 MSTORE DUP1 PUSH1 0x0 MSTORE PUSH1 0x40 PUSH1 0x0 KECCAK256 PUSH1 0x0 SWAP2 POP SWAP1 POP SLOAD DUP2 JUMP JUMPDEST PUSH2 0x80D PUSH1 0x0 PUSH2 0x255A JUMP JUMPDEST PUSH1 0x1 PUSH1 0x3 PUSH1 0x0 CALLER PUSH20 0xFFFFFFFFFFFFFFFFFFFFFFFFFFFFFFFFFFFFFFFF AND PUSH20 0xFFFFFFFFFFFFFFFFFFFFFFFFFFFFFFFFFFFFFFFF AND DUP2 MSTORE PUSH1 0x20 ADD SWAP1 DUP2 MSTORE PUSH1 0x20 ADD PUSH1 0x0 KECCAK256 PUSH1 0x0 DUP3 DUP3 SLOAD PUSH2 0x85D SWAP2 SWAP1 PUSH2 0x3251 JUMP JUMPDEST SWAP3 POP POP DUP2 SWAP1 SSTORE POP PUSH1 0x40 MLOAD DUP1 PUSH2 0x120 ADD PUSH1 0x40 MSTORE DUP1 PUSH2 0x87A PUSH1 0x0 PUSH2 0x2570 JUMP JUMPDEST DUP2 MSTORE PUSH1 0x20 ADD DUP8 DUP2 MSTORE PUSH1 0x20 ADD DUP7 DUP2 MSTORE PUSH1 0x20 ADD DUP6 DUP2 MSTORE PUSH1 0x20 ADD DUP5 DUP2 MSTORE PUSH1 0x20 ADD TIMESTAMP DUP2 MSTORE PUSH1 0x20 ADD DUP4 DUP2 MSTORE PUSH1 0x20 ADD DUP3 DUP2 MSTORE PUSH1 0x20 ADD CALLER PUSH20 0xFFFFFFFFFFFFFFFFFFFFFFFFFFFFFFFFFFFFFFFF AND DUP2 MSTORE POP PUSH1 0x6 PUSH1 0x0 PUSH2 0x8D1 PUSH1 0x0 PUSH2 0x2570 JUMP JUMPDEST DUP2 MSTORE PUSH1 0x20 ADD SWAP1 DUP2 MSTORE PUSH1 0x20 ADD PUSH1 0x0 KECCAK256 PUSH1 0x0 DUP3 ADD MLOAD DUP2 PUSH1 0x0 ADD SSTORE PUSH1 0x20 DUP3 ADD MLOAD DUP2 PUSH1 0x1 ADD SWAP1 DUP1 MLOAD SWAP1 PUSH1 0x20 ADD SWAP1 PUSH2 0x905 SWAP3 SWAP2 SWAP1 PUSH2 0x257E JUMP JUMPDEST POP PUSH1 0x40 DUP3 ADD MLOAD DUP2 PUSH1 0x2 ADD SSTORE PUSH1 0x60 DUP3 ADD MLOAD DUP2 PUSH1 0x3 ADD SSTORE PUSH1 0x80 DUP3 ADD MLOAD DUP2 PUSH1 0x4 ADD SSTORE PUSH1 0xA0 DUP3 ADD MLOAD DUP2 PUSH1 0x5 ADD SSTORE PUSH1 0xC0 DUP3 ADD MLOAD DUP2 PUSH1 0x6 ADD SWAP1 DUP1 MLOAD SWAP1 PUSH1 0x20 ADD SWAP1 PUSH2 0x94A SWAP3 SWAP2 SWAP1 PUSH2 0x257E JUMP JUMPDEST POP PUSH1 0xE0 DUP3 ADD MLOAD DUP2 PUSH1 0x7 ADD SWAP1 DUP1 MLOAD SWAP1 PUSH1 0x20 ADD SWAP1 PUSH2 0x967 SWAP3 SWAP2 SWAP1 PUSH2 0x257E JUMP JUMPDEST POP PUSH2 0x100 DUP3 ADD MLOAD DUP2 PUSH1 0x8 ADD PUSH1 0x0 PUSH2 0x100 EXP DUP2 SLOAD DUP2 PUSH20 0xFFFFFFFFFFFFFFFFFFFFFFFFFFFFFFFFFFFFFFFF MUL NOT AND SWAP1 DUP4 PUSH20 0xFFFFFFFFFFFFFFFFFFFFFFFFFFFFFFFFFFFFFFFF AND MUL OR SWAP1 SSTORE POP SWAP1 POP POP POP POP POP POP POP POP JUMP JUMPDEST PUSH1 0x8 PUSH1 0x0 CALLER PUSH20 0xFFFFFFFFFFFFFFFFFFFFFFFFFFFFFFFFFFFFFFFF AND PUSH20 0xFFFFFFFFFFFFFFFFFFFFFFFFFFFFFFFFFFFFFFFF AND DUP2 MSTORE PUSH1 0x20 ADD SWAP1 DUP2 MSTORE PUSH1 0x20 ADD PUSH1 0x0 KECCAK256 PUSH1 0x0 DUP3 DUP2 MSTORE PUSH1 0x20 ADD SWAP1 DUP2 MSTORE PUSH1 0x20 ADD PUSH1 0x0 KECCAK256 PUSH1 0x0 SWAP1 SLOAD SWAP1 PUSH2 0x100 EXP SWAP1 DIV PUSH1 0xFF AND PUSH2 0xA58 JUMPI PUSH1 0x40 MLOAD PUSH32 0x8C379A000000000000000000000000000000000000000000000000000000000 DUP2 MSTORE PUSH1 0x4 ADD PUSH2 0xA4F SWAP1 PUSH2 0x2FA5 JUMP JUMPDEST PUSH1 0x40 MLOAD DUP1 SWAP2 SUB SWAP1 REVERT JUMPDEST PUSH1 0x1 PUSH1 0x9 PUSH1 0x0 CALLER PUSH20 0xFFFFFFFFFFFFFFFFFFFFFFFFFFFFFFFFFFFFFFFF AND PUSH20 0xFFFFFFFFFFFFFFFFFFFFFFFFFFFFFFFFFFFFFFFF AND DUP2 MSTORE PUSH1 0x20 ADD SWAP1 DUP2 MSTORE PUSH1 0x20 ADD PUSH1 0x0 KECCAK256 PUSH1 0x0 DUP3 DUP3 SLOAD PUSH2 0xAA8 SWAP2 SWAP1 PUSH2 0x3301 JUMP JUMPDEST SWAP3 POP POP DUP2 SWAP1 SSTORE POP PUSH1 0x1 PUSH1 0x5 PUSH1 0x0 DUP4 DUP2 MSTORE PUSH1 0x20 ADD SWAP1 DUP2 MSTORE PUSH1 0x20 ADD PUSH1 0x0 KECCAK256 PUSH1 0x0 DUP3 DUP3 SLOAD PUSH2 0xAD3 SWAP2 SWAP1 PUSH2 0x3301 JUMP JUMPDEST SWAP3 POP POP DUP2 SWAP1 SSTORE POP PUSH1 0x0 PUSH1 0x8 PUSH1 0x0 CALLER PUSH20 0xFFFFFFFFFFFFFFFFFFFFFFFFFFFFFFFFFFFFFFFF AND PUSH20 0xFFFFFFFFFFFFFFFFFFFFFFFFFFFFFFFFFFFFFFFF AND DUP2 MSTORE PUSH1 0x20 ADD SWAP1 DUP2 MSTORE PUSH1 0x20 ADD PUSH1 0x0 KECCAK256 PUSH1 0x0 DUP4 DUP2 MSTORE PUSH1 0x20 ADD SWAP1 DUP2 MSTORE PUSH1 0x20 ADD PUSH1 0x0 KECCAK256 PUSH1 0x0 PUSH2 0x100 EXP DUP2 SLOAD DUP2 PUSH1 0xFF MUL NOT AND SWAP1 DUP4 ISZERO ISZERO MUL OR SWAP1 SSTORE POP PUSH1 0x7 PUSH1 0x0 PUSH1 0xA PUSH1 0x0 DUP5 DUP2 MSTORE PUSH1 0x20 ADD SWAP1 DUP2 MSTORE PUSH1 0x20 ADD PUSH1 0x0 KECCAK256 PUSH1 0x0 CALLER PUSH20 0xFFFFFFFFFFFFFFFFFFFFFFFFFFFFFFFFFFFFFFFF AND PUSH20 0xFFFFFFFFFFFFFFFFFFFFFFFFFFFFFFFFFFFFFFFF AND DUP2 MSTORE PUSH1 0x20 ADD SWAP1 DUP2 MSTORE PUSH1 0x20 ADD PUSH1 0x0 KECCAK256 SLOAD DUP2 MSTORE PUSH1 0x20 ADD SWAP1 DUP2 MSTORE PUSH1 0x20 ADD PUSH1 0x0 KECCAK256 PUSH1 0x0 DUP3 DUP2 MSTORE PUSH1 0x20 ADD SWAP1 DUP2 MSTORE PUSH1 0x20 ADD PUSH1 0x0 KECCAK256 PUSH1 0x0 DUP1 DUP3 ADD PUSH1 0x0 SWAP1 SSTORE PUSH1 0x1 DUP3 ADD PUSH1 0x0 SWAP1 SSTORE PUSH1 0x2 DUP3 ADD PUSH1 0x0 PUSH2 0xBD8 SWAP2 SWAP1 PUSH2 0x2604 JUMP JUMPDEST PUSH1 0x3 DUP3 ADD PUSH1 0x0 PUSH2 0x100 EXP DUP2 SLOAD SWAP1 PUSH20 0xFFFFFFFFFFFFFFFFFFFFFFFFFFFFFFFFFFFFFFFF MUL NOT AND SWAP1 SSTORE PUSH1 0x4 DUP3 ADD PUSH1 0x0 SWAP1 SSTORE POP POP PUSH1 0xA PUSH1 0x0 DUP3 DUP2 MSTORE PUSH1 0x20 ADD SWAP1 DUP2 MSTORE PUSH1 0x20 ADD PUSH1 0x0 KECCAK256 PUSH1 0x0 CALLER PUSH20 0xFFFFFFFFFFFFFFFFFFFFFFFFFFFFFFFFFFFFFFFF AND PUSH20 0xFFFFFFFFFFFFFFFFFFFFFFFFFFFFFFFFFFFFFFFF AND DUP2 MSTORE PUSH1 0x20 ADD SWAP1 DUP2 MSTORE PUSH1 0x20 ADD PUSH1 0x0 KECCAK256 POP POP JUMP JUMPDEST PUSH1 0x1 DUP1 PUSH1 0x0 ADD SLOAD SWAP1 POP DUP2 JUMP JUMPDEST PUSH1 0xB PUSH1 0x20 MSTORE DUP2 PUSH1 0x0 MSTORE PUSH1 0x40 PUSH1 0x0 KECCAK256 PUSH1 0x20 MSTORE DUP1 PUSH1 0x0 MSTORE PUSH1 0x40 PUSH1 0x0 KECCAK256 PUSH1 0x0 SWAP2 POP SWAP2 POP POP DUP1 PUSH1 0x0 ADD PUSH1 0x0 SWAP1 SLOAD SWAP1 PUSH2 0x100 EXP SWAP1 DIV PUSH20 0xFFFFFFFFFFFFFFFFFFFFFFFFFFFFFFFFFFFFFFFF AND SWAP1 DUP1 PUSH1 0x1 ADD SLOAD SWAP1 DUP1 PUSH1 0x2 ADD PUSH1 0x0 SWAP1 SLOAD SWAP1 PUSH2 0x100 EXP SWAP1 DIV PUSH1 0xFF AND SWAP1 POP DUP4 JUMP JUMPDEST PUSH1 0x8 PUSH1 0x20 MSTORE DUP2 PUSH1 0x0 MSTORE PUSH1 0x40 PUSH1 0x0 KECCAK256 PUSH1 0x20 MSTORE DUP1 PUSH1 0x0 MSTORE PUSH1 0x40 PUSH1 0x0 KECCAK256 PUSH1 0x0 SWAP2 POP SWAP2 POP SWAP1 SLOAD SWAP1 PUSH2 0x100 EXP SWAP1 DIV PUSH1 0xFF AND DUP2 JUMP JUMPDEST PUSH1 0x8 PUSH1 0x0 CALLER PUSH20 0xFFFFFFFFFFFFFFFFFFFFFFFFFFFFFFFFFFFFFFFF AND PUSH20 0xFFFFFFFFFFFFFFFFFFFFFFFFFFFFFFFFFFFFFFFF AND DUP2 MSTORE PUSH1 0x20 ADD SWAP1 DUP2 MSTORE PUSH1 0x20 ADD PUSH1 0x0 KECCAK256 PUSH1 0x0 DUP6 DUP2 MSTORE PUSH1 0x20 ADD SWAP1 DUP2 MSTORE PUSH1 0x20 ADD PUSH1 0x0 KECCAK256 PUSH1 0x0 SWAP1 SLOAD SWAP1 PUSH2 0x100 EXP SWAP1 DIV PUSH1 0xFF AND ISZERO PUSH2 0xD9A JUMPI PUSH1 0x40 MLOAD PUSH32 0x8C379A000000000000000000000000000000000000000000000000000000000 DUP2 MSTORE PUSH1 0x4 ADD PUSH2 0xD91 SWAP1 PUSH2 0x3005 JUMP JUMPDEST PUSH1 0x40 MLOAD DUP1 SWAP2 SUB SWAP1 REVERT JUMPDEST CALLER PUSH20 0xFFFFFFFFFFFFFFFFFFFFFFFFFFFFFFFFFFFFFFFF AND PUSH1 0x6 PUSH1 0x0 DUP7 DUP2 MSTORE PUSH1 0x20 ADD SWAP1 DUP2 MSTORE PUSH1 0x20 ADD PUSH1 0x0 KECCAK256 PUSH1 0x8 ADD PUSH1 0x0 SWAP1 SLOAD SWAP1 PUSH2 0x100 EXP SWAP1 DIV PUSH20 0xFFFFFFFFFFFFFFFFFFFFFFFFFFFFFFFFFFFFFFFF AND PUSH20 0xFFFFFFFFFFFFFFFFFFFFFFFFFFFFFFFFFFFFFFFF AND EQ ISZERO PUSH2 0xE3F JUMPI PUSH1 0x40 MLOAD PUSH32 0x8C379A000000000000000000000000000000000000000000000000000000000 DUP2 MSTORE PUSH1 0x4 ADD PUSH2 0xE36 SWAP1 PUSH2 0x2FE5 JUMP JUMPDEST PUSH1 0x40 MLOAD DUP1 SWAP2 SUB SWAP1 REVERT JUMPDEST PUSH2 0xE49 PUSH1 0x1 PUSH2 0x255A JUMP JUMPDEST PUSH1 0x1 PUSH1 0x8 PUSH1 0x0 CALLER PUSH20 0xFFFFFFFFFFFFFFFFFFFFFFFFFFFFFFFFFFFFFFFF AND PUSH20 0xFFFFFFFFFFFFFFFFFFFFFFFFFFFFFFFFFFFFFFFF AND DUP2 MSTORE PUSH1 0x20 ADD SWAP1 DUP2 MSTORE PUSH1 0x20 ADD PUSH1 0x0 KECCAK256 PUSH1 0x0 DUP7 DUP2 MSTORE PUSH1 0x20 ADD SWAP1 DUP2 MSTORE PUSH1 0x20 ADD PUSH1 0x0 KECCAK256 PUSH1 0x0 PUSH2 0x100 EXP DUP2 SLOAD DUP2 PUSH1 0xFF MUL NOT AND SWAP1 DUP4 ISZERO ISZERO MUL OR SWAP1 SSTORE POP PUSH1 0x1 PUSH1 0x5 PUSH1 0x0 DUP7 DUP2 MSTORE PUSH1 0x20 ADD SWAP1 DUP2 MSTORE PUSH1 0x20 ADD PUSH1 0x0 KECCAK256 PUSH1 0x0 DUP3 DUP3 SLOAD PUSH2 0xED6 SWAP2 SWAP1 PUSH2 0x3251 JUMP JUMPDEST SWAP3 POP POP DUP2 SWAP1 SSTORE POP PUSH1 0x1 PUSH1 0x9 PUSH1 0x0 CALLER PUSH20 0xFFFFFFFFFFFFFFFFFFFFFFFFFFFFFFFFFFFFFFFF AND PUSH20 0xFFFFFFFFFFFFFFFFFFFFFFFFFFFFFFFFFFFFFFFF AND DUP2 MSTORE PUSH1 0x20 ADD SWAP1 DUP2 MSTORE PUSH1 0x20 ADD PUSH1 0x0 KECCAK256 PUSH1 0x0 DUP3 DUP3 SLOAD PUSH2 0xF2D SWAP2 SWAP1 PUSH2 0x3251 JUMP JUMPDEST SWAP3 POP POP DUP2 SWAP1 SSTORE POP PUSH2 0xF3E PUSH1 0x1 PUSH2 0x2570 JUMP JUMPDEST PUSH1 0xA PUSH1 0x0 DUP7 DUP2 MSTORE PUSH1 0x20 ADD SWAP1 DUP2 MSTORE PUSH1 0x20 ADD PUSH1 0x0 KECCAK256 PUSH1 0x0 CALLER PUSH20 0xFFFFFFFFFFFFFFFFFFFFFFFFFFFFFFFFFFFFFFFF AND PUSH20 0xFFFFFFFFFFFFFFFFFFFFFFFFFFFFFFFFFFFFFFFF AND DUP2 MSTORE PUSH1 0x20 ADD SWAP1 DUP2 MSTORE PUSH1 0x20 ADD PUSH1 0x0 KECCAK256 DUP2 SWAP1 SSTORE POP PUSH1 0x40 MLOAD DUP1 PUSH1 0xA0 ADD PUSH1 0x40 MSTORE DUP1 DUP6 DUP2 MSTORE PUSH1 0x20 ADD DUP5 DUP2 MSTORE PUSH1 0x20 ADD DUP4 DUP2 MSTORE PUSH1 0x20 ADD CALLER PUSH20 0xFFFFFFFFFFFFFFFFFFFFFFFFFFFFFFFFFFFFFFFF AND DUP2 MSTORE PUSH1 0x20 ADD DUP3 DUP2 MSTORE POP PUSH1 0x7 PUSH1 0x0 PUSH2 0xFDD PUSH1 0x1 PUSH2 0x2570 JUMP JUMPDEST DUP2 MSTORE PUSH1 0x20 ADD SWAP1 DUP2 MSTORE PUSH1 0x20 ADD PUSH1 0x0 KECCAK256 PUSH1 0x0 DUP7 DUP2 MSTORE PUSH1 0x20 ADD SWAP1 DUP2 MSTORE PUSH1 0x20 ADD PUSH1 0x0 KECCAK256 PUSH1 0x0 DUP3 ADD MLOAD DUP2 PUSH1 0x0 ADD SSTORE PUSH1 0x20 DUP3 ADD MLOAD DUP2 PUSH1 0x1 ADD SSTORE PUSH1 0x40 DUP3 ADD MLOAD DUP2 PUSH1 0x2 ADD SWAP1 DUP1 MLOAD SWAP1 PUSH1 0x20 ADD SWAP1 PUSH2 0x102C SWAP3 SWAP2 SWAP1 PUSH2 0x257E JUMP JUMPDEST POP PUSH1 0x60 DUP3 ADD MLOAD DUP2 PUSH1 0x3 ADD PUSH1 0x0 PUSH2 0x100 EXP DUP2 SLOAD DUP2 PUSH20 0xFFFFFFFFFFFFFFFFFFFFFFFFFFFFFFFFFFFFFFFF MUL NOT AND SWAP1 DUP4 PUSH20 0xFFFFFFFFFFFFFFFFFFFFFFFFFFFFFFFFFFFFFFFF AND MUL OR SWAP1 SSTORE POP PUSH1 0x80 DUP3 ADD MLOAD DUP2 PUSH1 0x4 ADD SSTORE SWAP1 POP POP POP POP POP POP JUMP JUMPDEST PUSH1 0x6 PUSH1 0x20 MSTORE DUP1 PUSH1 0x0 MSTORE PUSH1 0x40 PUSH1 0x0 KECCAK256 PUSH1 0x0 SWAP2 POP SWAP1 POP DUP1 PUSH1 0x0 ADD SLOAD SWAP1 DUP1 PUSH1 0x1 ADD DUP1 SLOAD PUSH2 0x10B0 SWAP1 PUSH2 0x33BF JUMP JUMPDEST DUP1 PUSH1 0x1F ADD PUSH1 0x20 DUP1 SWAP2 DIV MUL PUSH1 0x20 ADD PUSH1 0x40 MLOAD SWAP1 DUP2 ADD PUSH1 0x40 MSTORE DUP1 SWAP3 SWAP2 SWAP1 DUP2 DUP2 MSTORE PUSH1 0x20 ADD DUP3 DUP1 SLOAD PUSH2 0x10DC SWAP1 PUSH2 0x33BF JUMP JUMPDEST DUP1 ISZERO PUSH2 0x1129 JUMPI DUP1 PUSH1 0x1F LT PUSH2 0x10FE JUMPI PUSH2 0x100 DUP1 DUP4 SLOAD DIV MUL DUP4 MSTORE SWAP2 PUSH1 0x20 ADD SWAP2 PUSH2 0x1129 JUMP JUMPDEST DUP3 ADD SWAP2 SWAP1 PUSH1 0x0 MSTORE PUSH1 0x20 PUSH1 0x0 KECCAK256 SWAP1 JUMPDEST DUP2 SLOAD DUP2 MSTORE SWAP1 PUSH1 0x1 ADD SWAP1 PUSH1 0x20 ADD DUP1 DUP4 GT PUSH2 0x110C JUMPI DUP3 SWAP1 SUB PUSH1 0x1F AND DUP3 ADD SWAP2 JUMPDEST POP POP POP POP POP SWAP1 DUP1 PUSH1 0x2 ADD SLOAD SWAP1 DUP1 PUSH1 0x3 ADD SLOAD SWAP1 DUP1 PUSH1 0x4 ADD SLOAD SWAP1 DUP1 PUSH1 0x5 ADD SLOAD SWAP1 DUP1 PUSH1 0x6 ADD DUP1 SLOAD PUSH2 0x1156 SWAP1 PUSH2 0x33BF JUMP JUMPDEST DUP1 PUSH1 0x1F ADD PUSH1 0x20 DUP1 SWAP2 DIV MUL PUSH1 0x20 ADD PUSH1 0x40 MLOAD SWAP1 DUP2 ADD PUSH1 0x40 MSTORE DUP1 SWAP3 SWAP2 SWAP1 DUP2 DUP2 MSTORE PUSH1 0x20 ADD DUP3 DUP1 SLOAD PUSH2 0x1182 SWAP1 PUSH2 0x33BF JUMP JUMPDEST DUP1 ISZERO PUSH2 0x11CF JUMPI DUP1 PUSH1 0x1F LT PUSH2 0x11A4 JUMPI PUSH2 0x100 DUP1 DUP4 SLOAD DIV MUL DUP4 MSTORE SWAP2 PUSH1 0x20 ADD SWAP2 PUSH2 0x11CF JUMP JUMPDEST DUP3 ADD SWAP2 SWAP1 PUSH1 0x0 MSTORE PUSH1 0x20 PUSH1 0x0 KECCAK256 SWAP1 JUMPDEST DUP2 SLOAD DUP2 MSTORE SWAP1 PUSH1 0x1 ADD SWAP1 PUSH1 0x20 ADD DUP1 DUP4 GT PUSH2 0x11B2 JUMPI DUP3 SWAP1 SUB PUSH1 0x1F AND DUP3 ADD SWAP2 JUMPDEST POP POP POP POP POP SWAP1 DUP1 PUSH1 0x7 ADD DUP1 SLOAD PUSH2 0x11E4 SWAP1 PUSH2 0x33BF JUMP JUMPDEST DUP1 PUSH1 0x1F ADD PUSH1 0x20 DUP1 SWAP2 DIV MUL PUSH1 0x20 ADD PUSH1 0x40 MLOAD SWAP1 DUP2 ADD PUSH1 0x40 MSTORE DUP1 SWAP3 SWAP2 SWAP1 DUP2 DUP2 MSTORE PUSH1 0x20 ADD DUP3 DUP1 SLOAD PUSH2 0x1210 SWAP1 PUSH2 0x33BF JUMP JUMPDEST DUP1 ISZERO PUSH2 0x125D JUMPI DUP1 PUSH1 0x1F LT PUSH2 0x1232 JUMPI PUSH2 0x100 DUP1 DUP4 SLOAD DIV MUL DUP4 MSTORE SWAP2 PUSH1 0x20 ADD SWAP2 PUSH2 0x125D JUMP JUMPDEST DUP3 ADD SWAP2 SWAP1 PUSH1 0x0 MSTORE PUSH1 0x20 PUSH1 0x0 KECCAK256 SWAP1 JUMPDEST DUP2 SLOAD DUP2 MSTORE SWAP1 PUSH1 0x1 ADD SWAP1 PUSH1 0x20 ADD DUP1 DUP4 GT PUSH2 0x1240 JUMPI DUP3 SWAP1 SUB PUSH1 0x1F AND DUP3 ADD SWAP2 JUMPDEST POP POP POP POP POP SWAP1 DUP1 PUSH1 0x8 ADD PUSH1 0x0 SWAP1 SLOAD SWAP1 PUSH2 0x100 EXP SWAP1 DIV PUSH20 0xFFFFFFFFFFFFFFFFFFFFFFFFFFFFFFFFFFFFFFFF AND SWAP1 POP DUP10 JUMP JUMPDEST PUSH1 0x2 PUSH1 0x0 SWAP1 SLOAD SWAP1 PUSH2 0x100 EXP SWAP1 DIV PUSH20 0xFFFFFFFFFFFFFFFFFFFFFFFFFFFFFFFFFFFFFFFF AND DUP2 JUMP JUMPDEST PUSH1 0x4 PUSH1 0x20 MSTORE DUP2 PUSH1 0x0 MSTORE PUSH1 0x40 PUSH1 0x0 KECCAK256 PUSH1 0x20 MSTORE DUP1 PUSH1 0x0 MSTORE PUSH1 0x40 PUSH1 0x0 KECCAK256 PUSH1 0x0 SWAP2 POP SWAP2 POP SWAP1 SLOAD SWAP1 PUSH2 0x100 EXP SWAP1 DIV PUSH1 0xFF AND DUP2 JUMP JUMPDEST PUSH1 0x60 PUSH1 0x0 PUSH1 0x5 PUSH1 0x0 DUP5 DUP2 MSTORE PUSH1 0x20 ADD SWAP1 DUP2 MSTORE PUSH1 0x20 ADD PUSH1 0x0 KECCAK256 SLOAD PUSH8 0xFFFFFFFFFFFFFFFF DUP2 GT ISZERO PUSH2 0x1313 JUMPI PUSH2 0x1312 PUSH2 0x34F8 JUMP JUMPDEST JUMPDEST PUSH1 0x40 MLOAD SWAP1 DUP1 DUP3 MSTORE DUP1 PUSH1 0x20 MUL PUSH1 0x20 ADD DUP3 ADD PUSH1 0x40 MSTORE DUP1 ISZERO PUSH2 0x134C JUMPI DUP2 PUSH1 0x20 ADD JUMPDEST PUSH2 0x1339 PUSH2 0x2644 JUMP JUMPDEST DUP2 MSTORE PUSH1 0x20 ADD SWAP1 PUSH1 0x1 SWAP1 SUB SWAP1 DUP2 PUSH2 0x1331 JUMPI SWAP1 POP JUMPDEST POP SWAP1 POP PUSH1 0x0 DUP1 PUSH1 0x1 SWAP1 POP JUMPDEST PUSH2 0x1361 PUSH1 0x1 PUSH2 0x2570 JUMP JUMPDEST DUP2 GT PUSH2 0x150B JUMPI PUSH1 0x7 PUSH1 0x0 DUP3 DUP2 MSTORE PUSH1 0x20 ADD SWAP1 DUP2 MSTORE PUSH1 0x20 ADD PUSH1 0x0 KECCAK256 PUSH1 0x0 DUP7 DUP2 MSTORE PUSH1 0x20 ADD SWAP1 DUP2 MSTORE PUSH1 0x20 ADD PUSH1 0x0 KECCAK256 PUSH1 0x0 ADD SLOAD DUP6 EQ ISZERO PUSH2 0x14F8 JUMPI PUSH1 0x7 PUSH1 0x0 DUP3 DUP2 MSTORE PUSH1 0x20 ADD SWAP1 DUP2 MSTORE PUSH1 0x20 ADD PUSH1 0x0 KECCAK256 PUSH1 0x0 DUP7 DUP2 MSTORE PUSH1 0x20 ADD SWAP1 DUP2 MSTORE PUSH1 0x20 ADD PUSH1 0x0 KECCAK256 PUSH1 0x40 MLOAD DUP1 PUSH1 0xA0 ADD PUSH1 0x40 MSTORE SWAP1 DUP2 PUSH1 0x0 DUP3 ADD SLOAD DUP2 MSTORE PUSH1 0x20 ADD PUSH1 0x1 DUP3 ADD SLOAD DUP2 MSTORE PUSH1 0x20 ADD PUSH1 0x2 DUP3 ADD DUP1 SLOAD PUSH2 0x13E9 SWAP1 PUSH2 0x33BF JUMP JUMPDEST DUP1 PUSH1 0x1F ADD PUSH1 0x20 DUP1 SWAP2 DIV MUL PUSH1 0x20 ADD PUSH1 0x40 MLOAD SWAP1 DUP2 ADD PUSH1 0x40 MSTORE DUP1 SWAP3 SWAP2 SWAP1 DUP2 DUP2 MSTORE PUSH1 0x20 ADD DUP3 DUP1 SLOAD PUSH2 0x1415 SWAP1 PUSH2 0x33BF JUMP JUMPDEST DUP1 ISZERO PUSH2 0x1462 JUMPI DUP1 PUSH1 0x1F LT PUSH2 0x1437 JUMPI PUSH2 0x100 DUP1 DUP4 SLOAD DIV MUL DUP4 MSTORE SWAP2 PUSH1 0x20 ADD SWAP2 PUSH2 0x1462 JUMP JUMPDEST DUP3 ADD SWAP2 SWAP1 PUSH1 0x0 MSTORE PUSH1 0x20 PUSH1 0x0 KECCAK256 SWAP1 JUMPDEST DUP2 SLOAD DUP2 MSTORE SWAP1 PUSH1 0x1 ADD SWAP1 PUSH1 0x20 ADD DUP1 DUP4 GT PUSH2 0x1445 JUMPI DUP3 SWAP1 SUB PUSH1 0x1F AND DUP3 ADD SWAP2 JUMPDEST POP POP POP POP POP DUP2 MSTORE PUSH1 0x20 ADD PUSH1 0x3 DUP3 ADD PUSH1 0x0 SWAP1 SLOAD SWAP1 PUSH2 0x100 EXP SWAP1 DIV PUSH20 0xFFFFFFFFFFFFFFFFFFFFFFFFFFFFFFFFFFFFFFFF AND PUSH20 0xFFFFFFFFFFFFFFFFFFFFFFFFFFFFFFFFFFFFFFFF AND PUSH20 0xFFFFFFFFFFFFFFFFFFFFFFFFFFFFFFFFFFFFFFFF AND DUP2 MSTORE PUSH1 0x20 ADD PUSH1 0x4 DUP3 ADD SLOAD DUP2 MSTORE POP POP DUP4 DUP4 DUP2 MLOAD DUP2 LT PUSH2 0x14DE JUMPI PUSH2 0x14DD PUSH2 0x34C9 JUMP JUMPDEST JUMPDEST PUSH1 0x20 MUL PUSH1 0x20 ADD ADD DUP2 SWAP1 MSTORE POP DUP2 DUP1 PUSH2 0x14F4 SWAP1 PUSH2 0x3422 JUMP JUMPDEST SWAP3 POP POP JUMPDEST DUP1 DUP1 PUSH2 0x1503 SWAP1 PUSH2 0x3422 JUMP JUMPDEST SWAP2 POP POP PUSH2 0x1357 JUMP JUMPDEST POP DUP2 SWAP3 POP POP POP SWAP2 SWAP1 POP JUMP JUMPDEST PUSH1 0xD PUSH1 0x20 MSTORE DUP1 PUSH1 0x0 MSTORE PUSH1 0x40 PUSH1 0x0 KECCAK256 PUSH1 0x0 SWAP2 POP SWAP1 POP SLOAD DUP2 JUMP JUMPDEST PUSH1 0xA PUSH1 0x20 MSTORE DUP2 PUSH1 0x0 MSTORE PUSH1 0x40 PUSH1 0x0 KECCAK256 PUSH1 0x20 MSTORE DUP1 PUSH1 0x0 MSTORE PUSH1 0x40 PUSH1 0x0 KECCAK256 PUSH1 0x0 SWAP2 POP SWAP2 POP POP SLOAD DUP2 JUMP JUMPDEST PUSH1 0x40 MLOAD DUP1 PUSH1 0x60 ADD PUSH1 0x40 MSTORE DUP1 DUP5 PUSH20 0xFFFFFFFFFFFFFFFFFFFFFFFFFFFFFFFFFFFFFFFF AND DUP2 MSTORE PUSH1 0x20 ADD DUP3 DUP2 MSTORE PUSH1 0x20 ADD PUSH1 0x1 ISZERO ISZERO DUP2 MSTORE POP PUSH1 0xB PUSH1 0x0 DUP7 DUP2 MSTORE PUSH1 0x20 ADD SWAP1 DUP2 MSTORE PUSH1 0x20 ADD PUSH1 0x0 KECCAK256 PUSH1 0x0 DUP5 PUSH20 0xFFFFFFFFFFFFFFFFFFFFFFFFFFFFFFFFFFFFFFFF AND PUSH20 0xFFFFFFFFFFFFFFFFFFFFFFFFFFFFFFFFFFFFFFFF AND DUP2 MSTORE PUSH1 0x20 ADD SWAP1 DUP2 MSTORE PUSH1 0x20 ADD PUSH1 0x0 KECCAK256 PUSH1 0x0 DUP3 ADD MLOAD DUP2 PUSH1 0x0 ADD PUSH1 0x0 PUSH2 0x100 EXP DUP2 SLOAD DUP2 PUSH20 0xFFFFFFFFFFFFFFFFFFFFFFFFFFFFFFFFFFFFFFFF MUL NOT AND SWAP1 DUP4 PUSH20 0xFFFFFFFFFFFFFFFFFFFFFFFFFFFFFFFFFFFFFFFF AND MUL OR SWAP1 SSTORE POP PUSH1 0x20 DUP3 ADD MLOAD DUP2 PUSH1 0x1 ADD SSTORE PUSH1 0x40 DUP3 ADD MLOAD DUP2 PUSH1 0x2 ADD PUSH1 0x0 PUSH2 0x100 EXP DUP2 SLOAD DUP2 PUSH1 0xFF MUL NOT AND SWAP1 DUP4 ISZERO ISZERO MUL OR SWAP1 SSTORE POP SWAP1 POP POP PUSH1 0x1 PUSH1 0x4 PUSH1 0x0 DUP5 PUSH20 0xFFFFFFFFFFFFFFFFFFFFFFFFFFFFFFFFFFFFFFFF AND PUSH20 0xFFFFFFFFFFFFFFFFFFFFFFFFFFFFFFFFFFFFFFFF AND DUP2 MSTORE PUSH1 0x20 ADD SWAP1 DUP2 MSTORE PUSH1 0x20 ADD PUSH1 0x0 KECCAK256 PUSH1 0x0 DUP7 DUP2 MSTORE PUSH1 0x20 ADD SWAP1 DUP2 MSTORE PUSH1 0x20 ADD PUSH1 0x0 KECCAK256 PUSH1 0x0 PUSH2 0x100 EXP DUP2 SLOAD DUP2 PUSH1 0xFF MUL NOT AND SWAP1 DUP4 ISZERO ISZERO MUL OR SWAP1 SSTORE POP PUSH1 0x1 PUSH1 0xC PUSH1 0x0 DUP5 PUSH20 0xFFFFFFFFFFFFFFFFFFFFFFFFFFFFFFFFFFFFFFFF AND PUSH20 0xFFFFFFFFFFFFFFFFFFFFFFFFFFFFFFFFFFFFFFFF AND DUP2 MSTORE PUSH1 0x20 ADD SWAP1 DUP2 MSTORE PUSH1 0x20 ADD PUSH1 0x0 KECCAK256 PUSH1 0x0 DUP7 DUP2 MSTORE PUSH1 0x20 ADD SWAP1 DUP2 MSTORE PUSH1 0x20 ADD PUSH1 0x0 KECCAK256 PUSH1 0x0 DUP6 PUSH20 0xFFFFFFFFFFFFFFFFFFFFFFFFFFFFFFFFFFFFFFFF AND PUSH20 0xFFFFFFFFFFFFFFFFFFFFFFFFFFFFFFFFFFFFFFFF AND DUP2 MSTORE PUSH1 0x20 ADD SWAP1 DUP2 MSTORE PUSH1 0x20 ADD PUSH1 0x0 KECCAK256 PUSH1 0x0 PUSH2 0x100 EXP DUP2 SLOAD DUP2 PUSH1 0xFF MUL NOT AND SWAP1 DUP4 ISZERO ISZERO MUL OR SWAP1 SSTORE POP POP POP POP POP JUMP JUMPDEST PUSH1 0xC PUSH1 0x20 MSTORE DUP3 PUSH1 0x0 MSTORE PUSH1 0x40 PUSH1 0x0 KECCAK256 PUSH1 0x20 MSTORE DUP2 PUSH1 0x0 MSTORE PUSH1 0x40 PUSH1 0x0 KECCAK256 PUSH1 0x20 MSTORE DUP1 PUSH1 0x0 MSTORE PUSH1 0x40 PUSH1 0x0 KECCAK256 PUSH1 0x0 SWAP3 POP SWAP3 POP POP SWAP1 SLOAD SWAP1 PUSH2 0x100 EXP SWAP1 DIV PUSH1 0xFF AND DUP2 JUMP JUMPDEST PUSH1 0x3 PUSH1 0x20 MSTORE DUP1 PUSH1 0x0 MSTORE PUSH1 0x40 PUSH1 0x0 KECCAK256 PUSH1 0x0 SWAP2 POP SWAP1 POP SLOAD DUP2 JUMP JUMPDEST PUSH1 0x60 PUSH1 0x0 PUSH2 0x17C2 PUSH1 0x0 PUSH2 0x2570 JUMP JUMPDEST PUSH8 0xFFFFFFFFFFFFFFFF DUP2 GT ISZERO PUSH2 0x17DB JUMPI PUSH2 0x17DA PUSH2 0x34F8 JUMP JUMPDEST JUMPDEST PUSH1 0x40 MLOAD SWAP1 DUP1 DUP3 MSTORE DUP1 PUSH1 0x20 MUL PUSH1 0x20 ADD DUP3 ADD PUSH1 0x40 MSTORE DUP1 ISZERO PUSH2 0x1814 JUMPI DUP2 PUSH1 0x20 ADD JUMPDEST PUSH2 0x1801 PUSH2 0x2689 JUMP JUMPDEST DUP2 MSTORE PUSH1 0x20 ADD SWAP1 PUSH1 0x1 SWAP1 SUB SWAP1 DUP2 PUSH2 0x17F9 JUMPI SWAP1 POP JUMPDEST POP SWAP1 POP PUSH1 0x0 DUP1 PUSH1 0x1 SWAP1 POP JUMPDEST PUSH2 0x1829 PUSH1 0x0 PUSH2 0x2570 JUMP JUMPDEST DUP2 GT PUSH2 0x1ACB JUMPI PUSH1 0x6 PUSH1 0x0 DUP3 DUP2 MSTORE PUSH1 0x20 ADD SWAP1 DUP2 MSTORE PUSH1 0x20 ADD PUSH1 0x0 KECCAK256 PUSH1 0x40 MLOAD DUP1 PUSH2 0x120 ADD PUSH1 0x40 MSTORE SWAP1 DUP2 PUSH1 0x0 DUP3 ADD SLOAD DUP2 MSTORE PUSH1 0x20 ADD PUSH1 0x1 DUP3 ADD DUP1 SLOAD PUSH2 0x1868 SWAP1 PUSH2 0x33BF JUMP JUMPDEST DUP1 PUSH1 0x1F ADD PUSH1 0x20 DUP1 SWAP2 DIV MUL PUSH1 0x20 ADD PUSH1 0x40 MLOAD SWAP1 DUP2 ADD PUSH1 0x40 MSTORE DUP1 SWAP3 SWAP2 SWAP1 DUP2 DUP2 MSTORE PUSH1 0x20 ADD DUP3 DUP1 SLOAD PUSH2 0x1894 SWAP1 PUSH2 0x33BF JUMP JUMPDEST DUP1 ISZERO PUSH2 0x18E1 JUMPI DUP1 PUSH1 0x1F LT PUSH2 0x18B6 JUMPI PUSH2 0x100 DUP1 DUP4 SLOAD DIV MUL DUP4 MSTORE SWAP2 PUSH1 0x20 ADD SWAP2 PUSH2 0x18E1 JUMP JUMPDEST DUP3 ADD SWAP2 SWAP1 PUSH1 0x0 MSTORE PUSH1 0x20 PUSH1 0x0 KECCAK256 SWAP1 JUMPDEST DUP2 SLOAD DUP2 MSTORE SWAP1 PUSH1 0x1 ADD SWAP1 PUSH1 0x20 ADD DUP1 DUP4 GT PUSH2 0x18C4 JUMPI DUP3 SWAP1 SUB PUSH1 0x1F AND DUP3 ADD SWAP2 JUMPDEST POP POP POP POP POP DUP2 MSTORE PUSH1 0x20 ADD PUSH1 0x2 DUP3 ADD SLOAD DUP2 MSTORE PUSH1 0x20 ADD PUSH1 0x3 DUP3 ADD SLOAD DUP2 MSTORE PUSH1 0x20 ADD PUSH1 0x4 DUP3 ADD SLOAD DUP2 MSTORE PUSH1 0x20 ADD PUSH1 0x5 DUP3 ADD SLOAD DUP2 MSTORE PUSH1 0x20 ADD PUSH1 0x6 DUP3 ADD DUP1 SLOAD PUSH2 0x1922 SWAP1 PUSH2 0x33BF JUMP JUMPDEST DUP1 PUSH1 0x1F ADD PUSH1 0x20 DUP1 SWAP2 DIV MUL PUSH1 0x20 ADD PUSH1 0x40 MLOAD SWAP1 DUP2 ADD PUSH1 0x40 MSTORE DUP1 SWAP3 SWAP2 SWAP1 DUP2 DUP2 MSTORE PUSH1 0x20 ADD DUP3 DUP1 SLOAD PUSH2 0x194E SWAP1 PUSH2 0x33BF JUMP JUMPDEST DUP1 ISZERO PUSH2 0x199B JUMPI DUP1 PUSH1 0x1F LT PUSH2 0x1970 JUMPI PUSH2 0x100 DUP1 DUP4 SLOAD DIV MUL DUP4 MSTORE SWAP2 PUSH1 0x20 ADD SWAP2 PUSH2 0x199B JUMP JUMPDEST DUP3 ADD SWAP2 SWAP1 PUSH1 0x0 MSTORE PUSH1 0x20 PUSH1 0x0 KECCAK256 SWAP1 JUMPDEST DUP2 SLOAD DUP2 MSTORE SWAP1 PUSH1 0x1 ADD SWAP1 PUSH1 0x20 ADD DUP1 DUP4 GT PUSH2 0x197E JUMPI DUP3 SWAP1 SUB PUSH1 0x1F AND DUP3 ADD SWAP2 JUMPDEST POP POP POP POP POP DUP2 MSTORE PUSH1 0x20 ADD PUSH1 0x7 DUP3 ADD DUP1 SLOAD PUSH2 0x19B4 SWAP1 PUSH2 0x33BF JUMP JUMPDEST DUP1 PUSH1 0x1F ADD PUSH1 0x20 DUP1 SWAP2 DIV MUL PUSH1 0x20 ADD PUSH1 0x40 MLOAD SWAP1 DUP2 ADD PUSH1 0x40 MSTORE DUP1 SWAP3 SWAP2 SWAP1 DUP2 DUP2 MSTORE PUSH1 0x20 ADD DUP3 DUP1 SLOAD PUSH2 0x19E0 SWAP1 PUSH2 0x33BF JUMP JUMPDEST DUP1 ISZERO PUSH2 0x1A2D JUMPI DUP1 PUSH1 0x1F LT PUSH2 0x1A02 JUMPI PUSH2 0x100 DUP1 DUP4 SLOAD DIV MUL DUP4 MSTORE SWAP2 PUSH1 0x20 ADD SWAP2 PUSH2 0x1A2D JUMP JUMPDEST DUP3 ADD SWAP2 SWAP1 PUSH1 0x0 MSTORE PUSH1 0x20 PUSH1 0x0 KECCAK256 SWAP1 JUMPDEST DUP2 SLOAD DUP2 MSTORE SWAP1 PUSH1 0x1 ADD SWAP1 PUSH1 0x20 ADD DUP1 DUP4 GT PUSH2 0x1A10 JUMPI DUP3 SWAP1 SUB PUSH1 0x1F AND DUP3 ADD SWAP2 JUMPDEST POP POP POP POP POP DUP2 MSTORE PUSH1 0x20 ADD PUSH1 0x8 DUP3 ADD PUSH1 0x0 SWAP1 SLOAD SWAP1 PUSH2 0x100 EXP SWAP1 DIV PUSH20 0xFFFFFFFFFFFFFFFFFFFFFFFFFFFFFFFFFFFFFFFF AND PUSH20 0xFFFFFFFFFFFFFFFFFFFFFFFFFFFFFFFFFFFFFFFF AND PUSH20 0xFFFFFFFFFFFFFFFFFFFFFFFFFFFFFFFFFFFFFFFF AND DUP2 MSTORE POP POP DUP4 DUP4 DUP2 MLOAD DUP2 LT PUSH2 0x1A9F JUMPI PUSH2 0x1A9E PUSH2 0x34C9 JUMP JUMPDEST JUMPDEST PUSH1 0x20 MUL PUSH1 0x20 ADD ADD DUP2 SWAP1 MSTORE POP DUP2 DUP1 PUSH2 0x1AB5 SWAP1 PUSH2 0x3422 JUMP JUMPDEST SWAP3 POP POP DUP1 DUP1 PUSH2 0x1AC3 SWAP1 PUSH2 0x3422 JUMP JUMPDEST SWAP2 POP POP PUSH2 0x181F JUMP JUMPDEST POP DUP2 SWAP3 POP POP POP SWAP1 JUMP JUMPDEST PUSH1 0x40 MLOAD DUP1 PUSH1 0xA0 ADD PUSH1 0x40 MSTORE DUP1 DUP6 DUP2 MSTORE PUSH1 0x20 ADD DUP5 DUP2 MSTORE PUSH1 0x20 ADD DUP4 DUP2 MSTORE PUSH1 0x20 ADD CALLER PUSH20 0xFFFFFFFFFFFFFFFFFFFFFFFFFFFFFFFFFFFFFFFF AND DUP2 MSTORE PUSH1 0x20 ADD DUP3 DUP2 MSTORE POP PUSH1 0x7 PUSH1 0x0 PUSH1 0xA PUSH1 0x0 DUP9 DUP2 MSTORE PUSH1 0x20 ADD SWAP1 DUP2 MSTORE PUSH1 0x20 ADD PUSH1 0x0 KECCAK256 PUSH1 0x0 CALLER PUSH20 0xFFFFFFFFFFFFFFFFFFFFFFFFFFFFFFFFFFFFFFFF AND PUSH20 0xFFFFFFFFFFFFFFFFFFFFFFFFFFFFFFFFFFFFFFFF AND DUP2 MSTORE PUSH1 0x20 ADD SWAP1 DUP2 MSTORE PUSH1 0x20 ADD PUSH1 0x0 KECCAK256 SLOAD DUP2 MSTORE PUSH1 0x20 ADD SWAP1 DUP2 MSTORE PUSH1 0x20 ADD PUSH1 0x0 KECCAK256 PUSH1 0x0 DUP7 DUP2 MSTORE PUSH1 0x20 ADD SWAP1 DUP2 MSTORE PUSH1 0x20 ADD PUSH1 0x0 KECCAK256 PUSH1 0x0 DUP3 ADD MLOAD DUP2 PUSH1 0x0 ADD SSTORE PUSH1 0x20 DUP3 ADD MLOAD DUP2 PUSH1 0x1 ADD SSTORE PUSH1 0x40 DUP3 ADD MLOAD DUP2 PUSH1 0x2 ADD SWAP1 DUP1 MLOAD SWAP1 PUSH1 0x20 ADD SWAP1 PUSH2 0x1BB5 SWAP3 SWAP2 SWAP1 PUSH2 0x257E JUMP JUMPDEST POP PUSH1 0x60 DUP3 ADD MLOAD DUP2 PUSH1 0x3 ADD PUSH1 0x0 PUSH2 0x100 EXP DUP2 SLOAD DUP2 PUSH20 0xFFFFFFFFFFFFFFFFFFFFFFFFFFFFFFFFFFFFFFFF MUL NOT AND SWAP1 DUP4 PUSH20 0xFFFFFFFFFFFFFFFFFFFFFFFFFFFFFFFFFFFFFFFF AND MUL OR SWAP1 SSTORE POP PUSH1 0x80 DUP3 ADD MLOAD DUP2 PUSH1 0x4 ADD SSTORE SWAP1 POP POP POP POP POP POP JUMP JUMPDEST PUSH1 0x60 PUSH1 0x0 PUSH1 0x9 PUSH1 0x0 DUP5 PUSH20 0xFFFFFFFFFFFFFFFFFFFFFFFFFFFFFFFFFFFFFFFF AND PUSH20 0xFFFFFFFFFFFFFFFFFFFFFFFFFFFFFFFFFFFFFFFF AND DUP2 MSTORE PUSH1 0x20 ADD SWAP1 DUP2 MSTORE PUSH1 0x20 ADD PUSH1 0x0 KECCAK256 SLOAD PUSH8 0xFFFFFFFFFFFFFFFF DUP2 GT ISZERO PUSH2 0x1C6D JUMPI PUSH2 0x1C6C PUSH2 0x34F8 JUMP JUMPDEST JUMPDEST PUSH1 0x40 MLOAD SWAP1 DUP1 DUP3 MSTORE DUP1 PUSH1 0x20 MUL PUSH1 0x20 ADD DUP3 ADD PUSH1 0x40 MSTORE DUP1 ISZERO PUSH2 0x1CA6 JUMPI DUP2 PUSH1 0x20 ADD JUMPDEST PUSH2 0x1C93 PUSH2 0x2644 JUMP JUMPDEST DUP2 MSTORE PUSH1 0x20 ADD SWAP1 PUSH1 0x1 SWAP1 SUB SWAP1 DUP2 PUSH2 0x1C8B JUMPI SWAP1 POP JUMPDEST POP SWAP1 POP PUSH1 0x0 DUP1 PUSH1 0x1 SWAP1 POP JUMPDEST PUSH2 0x1CBB PUSH1 0x0 PUSH2 0x2570 JUMP JUMPDEST DUP2 GT PUSH2 0x1EDC JUMPI PUSH1 0x0 PUSH1 0x1 SWAP1 POP JUMPDEST PUSH2 0x1CD2 PUSH1 0x1 PUSH2 0x2570 JUMP JUMPDEST DUP2 GT PUSH2 0x1EC8 JUMPI PUSH1 0x7 PUSH1 0x0 DUP3 DUP2 MSTORE PUSH1 0x20 ADD SWAP1 DUP2 MSTORE PUSH1 0x20 ADD PUSH1 0x0 KECCAK256 PUSH1 0x0 DUP4 DUP2 MSTORE PUSH1 0x20 ADD SWAP1 DUP2 MSTORE PUSH1 0x20 ADD PUSH1 0x0 KECCAK256 PUSH1 0x3 ADD PUSH1 0x0 SWAP1 SLOAD SWAP1 PUSH2 0x100 EXP SWAP1 DIV PUSH20 0xFFFFFFFFFFFFFFFFFFFFFFFFFFFFFFFFFFFFFFFF AND PUSH20 0xFFFFFFFFFFFFFFFFFFFFFFFFFFFFFFFFFFFFFFFF AND DUP7 PUSH20 0xFFFFFFFFFFFFFFFFFFFFFFFFFFFFFFFFFFFFFFFF AND EQ ISZERO PUSH2 0x1EB5 JUMPI PUSH1 0x7 PUSH1 0x0 DUP3 DUP2 MSTORE PUSH1 0x20 ADD SWAP1 DUP2 MSTORE PUSH1 0x20 ADD PUSH1 0x0 KECCAK256 PUSH1 0x0 DUP4 DUP2 MSTORE PUSH1 0x20 ADD SWAP1 DUP2 MSTORE PUSH1 0x20 ADD PUSH1 0x0 KECCAK256 PUSH1 0x40 MLOAD DUP1 PUSH1 0xA0 ADD PUSH1 0x40 MSTORE SWAP1 DUP2 PUSH1 0x0 DUP3 ADD SLOAD DUP2 MSTORE PUSH1 0x20 ADD PUSH1 0x1 DUP3 ADD SLOAD DUP2 MSTORE PUSH1 0x20 ADD PUSH1 0x2 DUP3 ADD DUP1 SLOAD PUSH2 0x1DA6 SWAP1 PUSH2 0x33BF JUMP JUMPDEST DUP1 PUSH1 0x1F ADD PUSH1 0x20 DUP1 SWAP2 DIV MUL PUSH1 0x20 ADD PUSH1 0x40 MLOAD SWAP1 DUP2 ADD PUSH1 0x40 MSTORE DUP1 SWAP3 SWAP2 SWAP1 DUP2 DUP2 MSTORE PUSH1 0x20 ADD DUP3 DUP1 SLOAD PUSH2 0x1DD2 SWAP1 PUSH2 0x33BF JUMP JUMPDEST DUP1 ISZERO PUSH2 0x1E1F JUMPI DUP1 PUSH1 0x1F LT PUSH2 0x1DF4 JUMPI PUSH2 0x100 DUP1 DUP4 SLOAD DIV MUL DUP4 MSTORE SWAP2 PUSH1 0x20 ADD SWAP2 PUSH2 0x1E1F JUMP JUMPDEST DUP3 ADD SWAP2 SWAP1 PUSH1 0x0 MSTORE PUSH1 0x20 PUSH1 0x0 KECCAK256 SWAP1 JUMPDEST DUP2 SLOAD DUP2 MSTORE SWAP1 PUSH1 0x1 ADD SWAP1 PUSH1 0x20 ADD DUP1 DUP4 GT PUSH2 0x1E02 JUMPI DUP3 SWAP1 SUB PUSH1 0x1F AND DUP3 ADD SWAP2 JUMPDEST POP POP POP POP POP DUP2 MSTORE PUSH1 0x20 ADD PUSH1 0x3 DUP3 ADD PUSH1 0x0 SWAP1 SLOAD SWAP1 PUSH2 0x100 EXP SWAP1 DIV PUSH20 0xFFFFFFFFFFFFFFFFFFFFFFFFFFFFFFFFFFFFFFFF AND PUSH20 0xFFFFFFFFFFFFFFFFFFFFFFFFFFFFFFFFFFFFFFFF AND PUSH20 0xFFFFFFFFFFFFFFFFFFFFFFFFFFFFFFFFFFFFFFFF AND DUP2 MSTORE PUSH1 0x20 ADD PUSH1 0x4 DUP3 ADD SLOAD DUP2 MSTORE POP POP DUP5 DUP5 DUP2 MLOAD DUP2 LT PUSH2 0x1E9B JUMPI PUSH2 0x1E9A PUSH2 0x34C9 JUMP JUMPDEST JUMPDEST PUSH1 0x20 MUL PUSH1 0x20 ADD ADD DUP2 SWAP1 MSTORE POP DUP3 DUP1 PUSH2 0x1EB1 SWAP1 PUSH2 0x3422 JUMP JUMPDEST SWAP4 POP POP JUMPDEST DUP1 DUP1 PUSH2 0x1EC0 SWAP1 PUSH2 0x3422 JUMP JUMPDEST SWAP2 POP POP PUSH2 0x1CC8 JUMP JUMPDEST POP DUP1 DUP1 PUSH2 0x1ED4 SWAP1 PUSH2 0x3422 JUMP JUMPDEST SWAP2 POP POP PUSH2 0x1CB1 JUMP JUMPDEST POP DUP2 SWAP3 POP POP POP SWAP2 SWAP1 POP JUMP JUMPDEST PUSH1 0x60 PUSH1 0x0 PUSH1 0x3 PUSH1 0x0 DUP5 PUSH20 0xFFFFFFFFFFFFFFFFFFFFFFFFFFFFFFFFFFFFFFFF AND PUSH20 0xFFFFFFFFFFFFFFFFFFFFFFFFFFFFFFFFFFFFFFFF AND DUP2 MSTORE PUSH1 0x20 ADD SWAP1 DUP2 MSTORE PUSH1 0x20 ADD PUSH1 0x0 KECCAK256 SLOAD PUSH8 0xFFFFFFFFFFFFFFFF DUP2 GT ISZERO PUSH2 0x1F44 JUMPI PUSH2 0x1F43 PUSH2 0x34F8 JUMP JUMPDEST JUMPDEST PUSH1 0x40 MLOAD SWAP1 DUP1 DUP3 MSTORE DUP1 PUSH1 0x20 MUL PUSH1 0x20 ADD DUP3 ADD PUSH1 0x40 MSTORE DUP1 ISZERO PUSH2 0x1F7D JUMPI DUP2 PUSH1 0x20 ADD JUMPDEST PUSH2 0x1F6A PUSH2 0x2689 JUMP JUMPDEST DUP2 MSTORE PUSH1 0x20 ADD SWAP1 PUSH1 0x1 SWAP1 SUB SWAP1 DUP2 PUSH2 0x1F62 JUMPI SWAP1 POP JUMPDEST POP SWAP1 POP PUSH1 0x0 DUP1 PUSH1 0x1 SWAP1 POP JUMPDEST PUSH2 0x1F92 PUSH1 0x0 PUSH2 0x2570 JUMP JUMPDEST DUP2 GT PUSH2 0x229F JUMPI PUSH1 0x6 PUSH1 0x0 DUP3 DUP2 MSTORE PUSH1 0x20 ADD SWAP1 DUP2 MSTORE PUSH1 0x20 ADD PUSH1 0x0 KECCAK256 PUSH1 0x8 ADD PUSH1 0x0 SWAP1 SLOAD SWAP1 PUSH2 0x100 EXP SWAP1 DIV PUSH20 0xFFFFFFFFFFFFFFFFFFFFFFFFFFFFFFFFFFFFFFFF AND PUSH20 0xFFFFFFFFFFFFFFFFFFFFFFFFFFFFFFFFFFFFFFFF AND DUP6 PUSH20 0xFFFFFFFFFFFFFFFFFFFFFFFFFFFFFFFFFFFFFFFF AND EQ ISZERO PUSH2 0x228C JUMPI PUSH1 0x6 PUSH1 0x0 DUP3 DUP2 MSTORE PUSH1 0x20 ADD SWAP1 DUP2 MSTORE PUSH1 0x20 ADD PUSH1 0x0 KECCAK256 PUSH1 0x40 MLOAD DUP1 PUSH2 0x120 ADD PUSH1 0x40 MSTORE SWAP1 DUP2 PUSH1 0x0 DUP3 ADD SLOAD DUP2 MSTORE PUSH1 0x20 ADD PUSH1 0x1 DUP3 ADD DUP1 SLOAD PUSH2 0x203B SWAP1 PUSH2 0x33BF JUMP JUMPDEST DUP1 PUSH1 0x1F ADD PUSH1 0x20 DUP1 SWAP2 DIV MUL PUSH1 0x20 ADD PUSH1 0x40 MLOAD SWAP1 DUP2 ADD PUSH1 0x40 MSTORE DUP1 SWAP3 SWAP2 SWAP1 DUP2 DUP2 MSTORE PUSH1 0x20 ADD DUP3 DUP1 SLOAD PUSH2 0x2067 SWAP1 PUSH2 0x33BF JUMP JUMPDEST DUP1 ISZERO PUSH2 0x20B4 JUMPI DUP1 PUSH1 0x1F LT PUSH2 0x2089 JUMPI PUSH2 0x100 DUP1 DUP4 SLOAD DIV MUL DUP4 MSTORE SWAP2 PUSH1 0x20 ADD SWAP2 PUSH2 0x20B4 JUMP JUMPDEST DUP3 ADD SWAP2 SWAP1 PUSH1 0x0 MSTORE PUSH1 0x20 PUSH1 0x0 KECCAK256 SWAP1 JUMPDEST DUP2 SLOAD DUP2 MSTORE SWAP1 PUSH1 0x1 ADD SWAP1 PUSH1 0x20 ADD DUP1 DUP4 GT PUSH2 0x2097 JUMPI DUP3 SWAP1 SUB PUSH1 0x1F AND DUP3 ADD SWAP2 JUMPDEST POP POP POP POP POP DUP2 MSTORE PUSH1 0x20 ADD PUSH1 0x2 DUP3 ADD SLOAD DUP2 MSTORE PUSH1 0x20 ADD PUSH1 0x3 DUP3 ADD SLOAD DUP2 MSTORE PUSH1 0x20 ADD PUSH1 0x4 DUP3 ADD SLOAD DUP2 MSTORE PUSH1 0x20 ADD PUSH1 0x5 DUP3 ADD SLOAD DUP2 MSTORE PUSH1 0x20 ADD PUSH1 0x6 DUP3 ADD DUP1 SLOAD PUSH2 0x20F5 SWAP1 PUSH2 0x33BF JUMP JUMPDEST DUP1 PUSH1 0x1F ADD PUSH1 0x20 DUP1 SWAP2 DIV MUL PUSH1 0x20 ADD PUSH1 0x40 MLOAD SWAP1 DUP2 ADD PUSH1 0x40 MSTORE DUP1 SWAP3 SWAP2 SWAP1 DUP2 DUP2 MSTORE PUSH1 0x20 ADD DUP3 DUP1 SLOAD PUSH2 0x2121 SWAP1 PUSH2 0x33BF JUMP JUMPDEST DUP1 ISZERO PUSH2 0x216E JUMPI DUP1 PUSH1 0x1F LT PUSH2 0x2143 JUMPI PUSH2 0x100 DUP1 DUP4 SLOAD DIV MUL DUP4 MSTORE SWAP2 PUSH1 0x20 ADD SWAP2 PUSH2 0x216E JUMP JUMPDEST DUP3 ADD SWAP2 SWAP1 PUSH1 0x0 MSTORE PUSH1 0x20 PUSH1 0x0 KECCAK256 SWAP1 JUMPDEST DUP2 SLOAD DUP2 MSTORE SWAP1 PUSH1 0x1 ADD SWAP1 PUSH1 0x20 ADD DUP1 DUP4 GT PUSH2 0x2151 JUMPI DUP3 SWAP1 SUB PUSH1 0x1F AND DUP3 ADD SWAP2 JUMPDEST POP POP POP POP POP DUP2 MSTORE PUSH1 0x20 ADD PUSH1 0x7 DUP3 ADD DUP1 SLOAD PUSH2 0x2187 SWAP1 PUSH2 0x33BF JUMP JUMPDEST DUP1 PUSH1 0x1F ADD PUSH1 0x20 DUP1 SWAP2 DIV MUL PUSH1 0x20 ADD PUSH1 0x40 MLOAD SWAP1 DUP2 ADD PUSH1 0x40 MSTORE DUP1 SWAP3 SWAP2 SWAP1 DUP2 DUP2 MSTORE PUSH1 0x20 ADD DUP3 DUP1 SLOAD PUSH2 0x21B3 SWAP1 PUSH2 0x33BF JUMP JUMPDEST DUP1 ISZERO PUSH2 0x2200 JUMPI DUP1 PUSH1 0x1F LT PUSH2 0x21D5 JUMPI PUSH2 0x100 DUP1 DUP4 SLOAD DIV MUL DUP4 MSTORE SWAP2 PUSH1 0x20 ADD SWAP2 PUSH2 0x2200 JUMP JUMPDEST DUP3 ADD SWAP2 SWAP1 PUSH1 0x0 MSTORE PUSH1 0x20 PUSH1 0x0 KECCAK256 SWAP1 JUMPDEST DUP2 SLOAD DUP2 MSTORE SWAP1 PUSH1 0x1 ADD SWAP1 PUSH1 0x20 ADD DUP1 DUP4 GT PUSH2 0x21E3 JUMPI DUP3 SWAP1 SUB PUSH1 0x1F AND DUP3 ADD SWAP2 JUMPDEST POP POP POP POP POP DUP2 MSTORE PUSH1 0x20 ADD PUSH1 0x8 DUP3 ADD PUSH1 0x0 SWAP1 SLOAD SWAP1 PUSH2 0x100 EXP SWAP1 DIV PUSH20 0xFFFFFFFFFFFFFFFFFFFFFFFFFFFFFFFFFFFFFFFF AND PUSH20 0xFFFFFFFFFFFFFFFFFFFFFFFFFFFFFFFFFFFFFFFF AND PUSH20 0xFFFFFFFFFFFFFFFFFFFFFFFFFFFFFFFFFFFFFFFF AND DUP2 MSTORE POP POP DUP4 DUP4 DUP2 MLOAD DUP2 LT PUSH2 0x2272 JUMPI PUSH2 0x2271 PUSH2 0x34C9 JUMP JUMPDEST JUMPDEST PUSH1 0x20 MUL PUSH1 0x20 ADD ADD DUP2 SWAP1 MSTORE POP DUP2 DUP1 PUSH2 0x2288 SWAP1 PUSH2 0x3422 JUMP JUMPDEST SWAP3 POP POP JUMPDEST DUP1 DUP1 PUSH2 0x2297 SWAP1 PUSH2 0x3422 JUMP JUMPDEST SWAP2 POP POP PUSH2 0x1F88 JUMP JUMPDEST POP DUP2 SWAP3 POP POP POP SWAP2 SWAP1 POP JUMP JUMPDEST DUP3 PUSH20 0xFFFFFFFFFFFFFFFFFFFFFFFFFFFFFFFFFFFFFFFF AND PUSH1 0xB PUSH1 0x0 DUP4 DUP2 MSTORE PUSH1 0x20 ADD SWAP1 DUP2 MSTORE PUSH1 0x20 ADD PUSH1 0x0 KECCAK256 PUSH1 0x0 DUP5 PUSH20 0xFFFFFFFFFFFFFFFFFFFFFFFFFFFFFFFFFFFFFFFF AND PUSH20 0xFFFFFFFFFFFFFFFFFFFFFFFFFFFFFFFFFFFFFFFF AND DUP2 MSTORE PUSH1 0x20 ADD SWAP1 DUP2 MSTORE PUSH1 0x20 ADD PUSH1 0x0 KECCAK256 PUSH1 0x0 ADD PUSH1 0x0 SWAP1 SLOAD SWAP1 PUSH2 0x100 EXP SWAP1 DIV PUSH20 0xFFFFFFFFFFFFFFFFFFFFFFFFFFFFFFFFFFFFFFFF AND PUSH20 0xFFFFFFFFFFFFFFFFFFFFFFFFFFFFFFFFFFFFFFFF AND EQ PUSH2 0x238B JUMPI PUSH1 0x40 MLOAD PUSH32 0x8C379A000000000000000000000000000000000000000000000000000000000 DUP2 MSTORE PUSH1 0x4 ADD PUSH2 0x2382 SWAP1 PUSH2 0x2FC5 JUMP JUMPDEST PUSH1 0x40 MLOAD DUP1 SWAP2 SUB SWAP1 REVERT JUMPDEST PUSH1 0xB PUSH1 0x0 DUP3 DUP2 MSTORE PUSH1 0x20 ADD SWAP1 DUP2 MSTORE PUSH1 0x20 ADD PUSH1 0x0 KECCAK256 PUSH1 0x0 DUP4 PUSH20 0xFFFFFFFFFFFFFFFFFFFFFFFFFFFFFFFFFFFFFFFF AND PUSH20 0xFFFFFFFFFFFFFFFFFFFFFFFFFFFFFFFFFFFFFFFF AND DUP2 MSTORE PUSH1 0x20 ADD SWAP1 DUP2 MSTORE PUSH1 0x20 ADD PUSH1 0x0 KECCAK256 PUSH1 0x2 ADD PUSH1 0x0 SWAP1 SLOAD SWAP1 PUSH2 0x100 EXP SWAP1 DIV PUSH1 0xFF AND PUSH2 0x242B JUMPI PUSH1 0x40 MLOAD PUSH32 0x8C379A000000000000000000000000000000000000000000000000000000000 DUP2 MSTORE PUSH1 0x4 ADD PUSH2 0x2422 SWAP1 PUSH2 0x3025 JUMP JUMPDEST PUSH1 0x40 MLOAD DUP1 SWAP2 SUB SWAP1 REVERT JUMPDEST PUSH1 0x0 PUSH1 0xB PUSH1 0x0 DUP4 DUP2 MSTORE PUSH1 0x20 ADD SWAP1 DUP2 MSTORE PUSH1 0x20 ADD PUSH1 0x0 KECCAK256 PUSH1 0x0 DUP5 PUSH20 0xFFFFFFFFFFFFFFFFFFFFFFFFFFFFFFFFFFFFFFFF AND PUSH20 0xFFFFFFFFFFFFFFFFFFFFFFFFFFFFFFFFFFFFFFFF AND DUP2 MSTORE PUSH1 0x20 ADD SWAP1 DUP2 MSTORE PUSH1 0x20 ADD PUSH1 0x0 KECCAK256 PUSH1 0x2 ADD PUSH1 0x0 PUSH2 0x100 EXP DUP2 SLOAD DUP2 PUSH1 0xFF MUL NOT AND SWAP1 DUP4 ISZERO ISZERO MUL OR SWAP1 SSTORE POP DUP3 PUSH20 0xFFFFFFFFFFFFFFFFFFFFFFFFFFFFFFFFFFFFFFFF AND PUSH2 0x8FC PUSH1 0xB PUSH1 0x0 DUP5 DUP2 MSTORE PUSH1 0x20 ADD SWAP1 DUP2 MSTORE PUSH1 0x20 ADD PUSH1 0x0 KECCAK256 PUSH1 0x0 DUP6 PUSH20 0xFFFFFFFFFFFFFFFFFFFFFFFFFFFFFFFFFFFFFFFF AND PUSH20 0xFFFFFFFFFFFFFFFFFFFFFFFFFFFFFFFFFFFFFFFF AND DUP2 MSTORE PUSH1 0x20 ADD SWAP1 DUP2 MSTORE PUSH1 0x20 ADD PUSH1 0x0 KECCAK256 PUSH1 0x1 ADD SLOAD SWAP1 DUP2 ISZERO MUL SWAP1 PUSH1 0x40 MLOAD PUSH1 0x0 PUSH1 0x40 MLOAD DUP1 DUP4 SUB DUP2 DUP6 DUP9 DUP9 CALL SWAP4 POP POP POP POP ISZERO DUP1 ISZERO PUSH2 0x2530 JUMPI RETURNDATASIZE PUSH1 0x0 DUP1 RETURNDATACOPY RETURNDATASIZE PUSH1 0x0 REVERT JUMPDEST POP POP POP POP JUMP JUMPDEST PUSH1 0x0 DUP1 PUSH1 0x0 ADD SLOAD SWAP1 POP DUP2 JUMP JUMPDEST PUSH1 0x5 PUSH1 0x20 MSTORE DUP1 PUSH1 0x0 MSTORE PUSH1 0x40 PUSH1 0x0 KECCAK256 PUSH1 0x0 SWAP2 POP SWAP1 POP SLOAD DUP2 JUMP JUMPDEST PUSH1 0x1 DUP2 PUSH1 0x0 ADD PUSH1 0x0 DUP3 DUP3 SLOAD ADD SWAP3 POP POP DUP2 SWAP1 SSTORE POP POP JUMP JUMPDEST PUSH1 0x0 DUP2 PUSH1 0x0 ADD SLOAD SWAP1 POP SWAP2 SWAP1 POP JUMP JUMPDEST DUP3 DUP1 SLOAD PUSH2 0x258A SWAP1 PUSH2 0x33BF JUMP JUMPDEST SWAP1 PUSH1 0x0 MSTORE PUSH1 0x20 PUSH1 0x0 KECCAK256 SWAP1 PUSH1 0x1F ADD PUSH1 0x20 SWAP1 DIV DUP2 ADD SWAP3 DUP3 PUSH2 0x25AC JUMPI PUSH1 0x0 DUP6 SSTORE PUSH2 0x25F3 JUMP JUMPDEST DUP3 PUSH1 0x1F LT PUSH2 0x25C5 JUMPI DUP1 MLOAD PUSH1 0xFF NOT AND DUP4 DUP1 ADD OR DUP6 SSTORE PUSH2 0x25F3 JUMP JUMPDEST DUP3 DUP1 ADD PUSH1 0x1 ADD DUP6 SSTORE DUP3 ISZERO PUSH2 0x25F3 JUMPI SWAP2 DUP3 ADD JUMPDEST DUP3 DUP2 GT ISZERO PUSH2 0x25F2 JUMPI DUP3 MLOAD DUP3 SSTORE SWAP2 PUSH1 0x20 ADD SWAP2 SWAP1 PUSH1 0x1 ADD SWAP1 PUSH2 0x25D7 JUMP JUMPDEST JUMPDEST POP SWAP1 POP PUSH2 0x2600 SWAP2 SWAP1 PUSH2 0x26EB JUMP JUMPDEST POP SWAP1 JUMP JUMPDEST POP DUP1 SLOAD PUSH2 0x2610 SWAP1 PUSH2 0x33BF JUMP JUMPDEST PUSH1 0x0 DUP3 SSTORE DUP1 PUSH1 0x1F LT PUSH2 0x2622 JUMPI POP PUSH2 0x2641 JUMP JUMPDEST PUSH1 0x1F ADD PUSH1 0x20 SWAP1 DIV SWAP1 PUSH1 0x0 MSTORE PUSH1 0x20 PUSH1 0x0 KECCAK256 SWAP1 DUP2 ADD SWAP1 PUSH2 0x2640 SWAP2 SWAP1 PUSH2 0x26EB JUMP JUMPDEST JUMPDEST POP JUMP JUMPDEST PUSH1 0x40 MLOAD DUP1 PUSH1 0xA0 ADD PUSH1 0x40 MSTORE DUP1 PUSH1 0x0 DUP2 MSTORE PUSH1 0x20 ADD PUSH1 0x0 DUP2 MSTORE PUSH1 0x20 ADD PUSH1 0x60 DUP2 MSTORE PUSH1 0x20 ADD PUSH1 0x0 PUSH20 0xFFFFFFFFFFFFFFFFFFFFFFFFFFFFFFFFFFFFFFFF AND DUP2 MSTORE PUSH1 0x20 ADD PUSH1 0x0 DUP2 MSTORE POP SWAP1 JUMP JUMPDEST PUSH1 0x40 MLOAD DUP1 PUSH2 0x120 ADD PUSH1 0x40 MSTORE DUP1 PUSH1 0x0 DUP2 MSTORE PUSH1 0x20 ADD PUSH1 0x60 DUP2 MSTORE PUSH1 0x20 ADD PUSH1 0x0 DUP2 MSTORE PUSH1 0x20 ADD PUSH1 0x0 DUP2 MSTORE PUSH1 0x20 ADD PUSH1 0x0 DUP2 MSTORE PUSH1 0x20 ADD PUSH1 0x0 DUP2 MSTORE PUSH1 0x20 ADD PUSH1 0x60 DUP2 MSTORE PUSH1 0x20 ADD PUSH1 0x60 DUP2 MSTORE PUSH1 0x20 ADD PUSH1 0x0 PUSH20 0xFFFFFFFFFFFFFFFFFFFFFFFFFFFFFFFFFFFFFFFF AND DUP2 MSTORE POP SWAP1 JUMP JUMPDEST JUMPDEST DUP1 DUP3 GT ISZERO PUSH2 0x2704 JUMPI PUSH1 0x0 DUP2 PUSH1 0x0 SWAP1 SSTORE POP PUSH1 0x1 ADD PUSH2 0x26EC JUMP JUMPDEST POP SWAP1 JUMP JUMPDEST PUSH1 0x0 PUSH2 0x271B PUSH2 0x2716 DUP5 PUSH2 0x3181 JUMP JUMPDEST PUSH2 0x315C JUMP JUMPDEST SWAP1 POP DUP3 DUP2 MSTORE PUSH1 0x20 DUP2 ADD DUP5 DUP5 DUP5 ADD GT ISZERO PUSH2 0x2737 JUMPI PUSH2 0x2736 PUSH2 0x352C JUMP JUMPDEST JUMPDEST PUSH2 0x2742 DUP5 DUP3 DUP6 PUSH2 0x337D JUMP JUMPDEST POP SWAP4 SWAP3 POP POP POP JUMP JUMPDEST PUSH1 0x0 DUP2 CALLDATALOAD SWAP1 POP PUSH2 0x2759 DUP2 PUSH2 0x3665 JUMP JUMPDEST SWAP3 SWAP2 POP POP JUMP JUMPDEST PUSH1 0x0 DUP3 PUSH1 0x1F DUP4 ADD SLT PUSH2 0x2774 JUMPI PUSH2 0x2773 PUSH2 0x3527 JUMP JUMPDEST JUMPDEST DUP2 CALLDATALOAD PUSH2 0x2784 DUP5 DUP3 PUSH1 0x20 DUP7 ADD PUSH2 0x2708 JUMP JUMPDEST SWAP2 POP POP SWAP3 SWAP2 POP POP JUMP JUMPDEST PUSH1 0x0 DUP2 CALLDATALOAD SWAP1 POP PUSH2 0x279C DUP2 PUSH2 0x367C JUMP JUMPDEST SWAP3 SWAP2 POP POP JUMP JUMPDEST PUSH1 0x0 PUSH1 0x20 DUP3 DUP5 SUB SLT ISZERO PUSH2 0x27B8 JUMPI PUSH2 0x27B7 PUSH2 0x3536 JUMP JUMPDEST JUMPDEST PUSH1 0x0 PUSH2 0x27C6 DUP5 DUP3 DUP6 ADD PUSH2 0x274A JUMP JUMPDEST SWAP2 POP POP SWAP3 SWAP2 POP POP JUMP JUMPDEST PUSH1 0x0 DUP1 PUSH1 0x0 PUSH1 0x60 DUP5 DUP7 SUB SLT ISZERO PUSH2 0x27E8 JUMPI PUSH2 0x27E7 PUSH2 0x3536 JUMP JUMPDEST JUMPDEST PUSH1 0x0 PUSH2 0x27F6 DUP7 DUP3 DUP8 ADD PUSH2 0x274A JUMP JUMPDEST SWAP4 POP POP PUSH1 0x20 PUSH2 0x2807 DUP7 DUP3 DUP8 ADD PUSH2 0x274A JUMP JUMPDEST SWAP3 POP POP PUSH1 0x40 PUSH2 0x2818 DUP7 DUP3 DUP8 ADD PUSH2 0x278D JUMP JUMPDEST SWAP2 POP POP SWAP3 POP SWAP3 POP SWAP3 JUMP JUMPDEST PUSH1 0x0 DUP1 PUSH1 0x40 DUP4 DUP6 SUB SLT ISZERO PUSH2 0x2839 JUMPI PUSH2 0x2838 PUSH2 0x3536 JUMP JUMPDEST JUMPDEST PUSH1 0x0 PUSH2 0x2847 DUP6 DUP3 DUP7 ADD PUSH2 0x274A JUMP JUMPDEST SWAP3 POP POP PUSH1 0x20 PUSH2 0x2858 DUP6 DUP3 DUP7 ADD PUSH2 0x278D JUMP JUMPDEST SWAP2 POP POP SWAP3 POP SWAP3 SWAP1 POP JUMP JUMPDEST PUSH1 0x0 DUP1 PUSH1 0x0 PUSH1 0x60 DUP5 DUP7 SUB SLT ISZERO PUSH2 0x287B JUMPI PUSH2 0x287A PUSH2 0x3536 JUMP JUMPDEST JUMPDEST PUSH1 0x0 PUSH2 0x2889 DUP7 DUP3 DUP8 ADD PUSH2 0x274A JUMP JUMPDEST SWAP4 POP POP PUSH1 0x20 PUSH2 0x289A DUP7 DUP3 DUP8 ADD PUSH2 0x278D JUMP JUMPDEST SWAP3 POP POP PUSH1 0x40 PUSH2 0x28AB DUP7 DUP3 DUP8 ADD PUSH2 0x274A JUMP JUMPDEST SWAP2 POP POP SWAP3 POP SWAP3 POP SWAP3 JUMP JUMPDEST PUSH1 0x0 DUP1 PUSH1 0x0 DUP1 PUSH1 0x0 DUP1 PUSH1 0xC0 DUP8 DUP10 SUB SLT ISZERO PUSH2 0x28D2 JUMPI PUSH2 0x28D1 PUSH2 0x3536 JUMP JUMPDEST JUMPDEST PUSH1 0x0 DUP8 ADD CALLDATALOAD PUSH8 0xFFFFFFFFFFFFFFFF DUP2 GT ISZERO PUSH2 0x28F0 JUMPI PUSH2 0x28EF PUSH2 0x3531 JUMP JUMPDEST JUMPDEST PUSH2 0x28FC DUP10 DUP3 DUP11 ADD PUSH2 0x275F JUMP JUMPDEST SWAP7 POP POP PUSH1 0x20 PUSH2 0x290D DUP10 DUP3 DUP11 ADD PUSH2 0x278D JUMP JUMPDEST SWAP6 POP POP PUSH1 0x40 PUSH2 0x291E DUP10 DUP3 DUP11 ADD PUSH2 0x278D JUMP JUMPDEST SWAP5 POP POP PUSH1 0x60 PUSH2 0x292F DUP10 DUP3 DUP11 ADD PUSH2 0x278D JUMP JUMPDEST SWAP4 POP POP PUSH1 0x80 DUP8 ADD CALLDATALOAD PUSH8 0xFFFFFFFFFFFFFFFF DUP2 GT ISZERO PUSH2 0x2950 JUMPI PUSH2 0x294F PUSH2 0x3531 JUMP JUMPDEST JUMPDEST PUSH2 0x295C DUP10 DUP3 DUP11 ADD PUSH2 0x275F JUMP JUMPDEST SWAP3 POP POP PUSH1 0xA0 DUP8 ADD CALLDATALOAD PUSH8 0xFFFFFFFFFFFFFFFF DUP2 GT ISZERO PUSH2 0x297D JUMPI PUSH2 0x297C PUSH2 0x3531 JUMP JUMPDEST JUMPDEST PUSH2 0x2989 DUP10 DUP3 DUP11 ADD PUSH2 0x275F JUMP JUMPDEST SWAP2 POP POP SWAP3 SWAP6 POP SWAP3 SWAP6 POP SWAP3 SWAP6 JUMP JUMPDEST PUSH1 0x0 PUSH1 0x20 DUP3 DUP5 SUB SLT ISZERO PUSH2 0x29AC JUMPI PUSH2 0x29AB PUSH2 0x3536 JUMP JUMPDEST JUMPDEST PUSH1 0x0 PUSH2 0x29BA DUP5 DUP3 DUP6 ADD PUSH2 0x278D JUMP JUMPDEST SWAP2 POP POP SWAP3 SWAP2 POP POP JUMP JUMPDEST PUSH1 0x0 DUP1 PUSH1 0x40 DUP4 DUP6 SUB SLT ISZERO PUSH2 0x29DA JUMPI PUSH2 0x29D9 PUSH2 0x3536 JUMP JUMPDEST JUMPDEST PUSH1 0x0 PUSH2 0x29E8 DUP6 DUP3 DUP7 ADD PUSH2 0x278D JUMP JUMPDEST SWAP3 POP POP PUSH1 0x20 PUSH2 0x29F9 DUP6 DUP3 DUP7 ADD PUSH2 0x274A JUMP JUMPDEST SWAP2 POP POP SWAP3 POP SWAP3 SWAP1 POP JUMP JUMPDEST PUSH1 0x0 DUP1 PUSH1 0x0 DUP1 PUSH1 0x80 DUP6 DUP8 SUB SLT ISZERO PUSH2 0x2A1D JUMPI PUSH2 0x2A1C PUSH2 0x3536 JUMP JUMPDEST JUMPDEST PUSH1 0x0 PUSH2 0x2A2B DUP8 DUP3 DUP9 ADD PUSH2 0x278D JUMP JUMPDEST SWAP5 POP POP PUSH1 0x20 PUSH2 0x2A3C DUP8 DUP3 DUP9 ADD PUSH2 0x274A JUMP JUMPDEST SWAP4 POP POP PUSH1 0x40 PUSH2 0x2A4D DUP8 DUP3 DUP9 ADD PUSH2 0x274A JUMP JUMPDEST SWAP3 POP POP PUSH1 0x60 PUSH2 0x2A5E DUP8 DUP3 DUP9 ADD PUSH2 0x278D JUMP JUMPDEST SWAP2 POP POP SWAP3 SWAP6 SWAP2 SWAP5 POP SWAP3 POP JUMP JUMPDEST PUSH1 0x0 DUP1 PUSH1 0x40 DUP4 DUP6 SUB SLT ISZERO PUSH2 0x2A81 JUMPI PUSH2 0x2A80 PUSH2 0x3536 JUMP JUMPDEST JUMPDEST PUSH1 0x0 PUSH2 0x2A8F DUP6 DUP3 DUP7 ADD PUSH2 0x278D JUMP JUMPDEST SWAP3 POP POP PUSH1 0x20 PUSH2 0x2AA0 DUP6 DUP3 DUP7 ADD PUSH2 0x278D JUMP JUMPDEST SWAP2 POP POP SWAP3 POP SWAP3 SWAP1 POP JUMP JUMPDEST PUSH1 0x0 DUP1 PUSH1 0x0 DUP1 PUSH1 0x80 DUP6 DUP8 SUB SLT ISZERO PUSH2 0x2AC4 JUMPI PUSH2 0x2AC3 PUSH2 0x3536 JUMP JUMPDEST JUMPDEST PUSH1 0x0 PUSH2 0x2AD2 DUP8 DUP3 DUP9 ADD PUSH2 0x278D JUMP JUMPDEST SWAP5 POP POP PUSH1 0x20 PUSH2 0x2AE3 DUP8 DUP3 DUP9 ADD PUSH2 0x278D JUMP JUMPDEST SWAP4 POP POP PUSH1 0x40 DUP6 ADD CALLDATALOAD PUSH8 0xFFFFFFFFFFFFFFFF DUP2 GT ISZERO PUSH2 0x2B04 JUMPI PUSH2 0x2B03 PUSH2 0x3531 JUMP JUMPDEST JUMPDEST PUSH2 0x2B10 DUP8 DUP3 DUP9 ADD PUSH2 0x275F JUMP JUMPDEST SWAP3 POP POP PUSH1 0x60 PUSH2 0x2B21 DUP8 DUP3 DUP9 ADD PUSH2 0x278D JUMP JUMPDEST SWAP2 POP POP SWAP3 SWAP6 SWAP2 SWAP5 POP SWAP3 POP JUMP JUMPDEST PUSH1 0x0 PUSH2 0x2B39 DUP4 DUP4 PUSH2 0x2D8D JUMP JUMPDEST SWAP1 POP SWAP3 SWAP2 POP POP JUMP JUMPDEST PUSH1 0x0 PUSH2 0x2B4D DUP4 DUP4 PUSH2 0x2E60 JUMP JUMPDEST SWAP1 POP SWAP3 SWAP2 POP POP JUMP JUMPDEST PUSH2 0x2B5E DUP2 PUSH2 0x3335 JUMP JUMPDEST DUP3 MSTORE POP POP JUMP JUMPDEST PUSH2 0x2B6D DUP2 PUSH2 0x3335 JUMP JUMPDEST DUP3 MSTORE POP POP JUMP JUMPDEST PUSH1 0x0 PUSH2 0x2B7E DUP3 PUSH2 0x31D2 JUMP JUMPDEST PUSH2 0x2B88 DUP2 DUP6 PUSH2 0x320D JUMP JUMPDEST SWAP4 POP DUP4 PUSH1 0x20 DUP3 MUL DUP6 ADD PUSH2 0x2B9A DUP6 PUSH2 0x31B2 JUMP JUMPDEST DUP1 PUSH1 0x0 JUMPDEST DUP6 DUP2 LT ISZERO PUSH2 0x2BD6 JUMPI DUP5 DUP5 SUB DUP10 MSTORE DUP2 MLOAD PUSH2 0x2BB7 DUP6 DUP3 PUSH2 0x2B2D JUMP JUMPDEST SWAP5 POP PUSH2 0x2BC2 DUP4 PUSH2 0x31F3 JUMP JUMPDEST SWAP3 POP PUSH1 0x20 DUP11 ADD SWAP10 POP POP PUSH1 0x1 DUP2 ADD SWAP1 POP PUSH2 0x2B9E JUMP JUMPDEST POP DUP3 SWAP8 POP DUP8 SWAP6 POP POP POP POP POP POP SWAP3 SWAP2 POP POP JUMP JUMPDEST PUSH1 0x0 PUSH2 0x2BF3 DUP3 PUSH2 0x31DD JUMP JUMPDEST PUSH2 0x2BFD DUP2 DUP6 PUSH2 0x321E JUMP JUMPDEST SWAP4 POP DUP4 PUSH1 0x20 DUP3 MUL DUP6 ADD PUSH2 0x2C0F DUP6 PUSH2 0x31C2 JUMP JUMPDEST DUP1 PUSH1 0x0 JUMPDEST DUP6 DUP2 LT ISZERO PUSH2 0x2C4B JUMPI DUP5 DUP5 SUB DUP10 MSTORE DUP2 MLOAD PUSH2 0x2C2C DUP6 DUP3 PUSH2 0x2B41 JUMP JUMPDEST SWAP5 POP PUSH2 0x2C37 DUP4 PUSH2 0x3200 JUMP JUMPDEST SWAP3 POP PUSH1 0x20 DUP11 ADD SWAP10 POP POP PUSH1 0x1 DUP2 ADD SWAP1 POP PUSH2 0x2C13 JUMP JUMPDEST POP DUP3 SWAP8 POP DUP8 SWAP6 POP POP POP POP POP POP SWAP3 SWAP2 POP POP JUMP JUMPDEST PUSH2 0x2C66 DUP2 PUSH2 0x3347 JUMP JUMPDEST DUP3 MSTORE POP POP JUMP JUMPDEST PUSH1 0x0 PUSH2 0x2C77 DUP3 PUSH2 0x31E8 JUMP JUMPDEST PUSH2 0x2C81 DUP2 DUP6 PUSH2 0x322F JUMP JUMPDEST SWAP4 POP PUSH2 0x2C91 DUP2 DUP6 PUSH1 0x20 DUP7 ADD PUSH2 0x338C JUMP JUMPDEST PUSH2 0x2C9A DUP2 PUSH2 0x353B JUMP JUMPDEST DUP5 ADD SWAP2 POP POP SWAP3 SWAP2 POP POP JUMP JUMPDEST PUSH1 0x0 PUSH2 0x2CB0 DUP3 PUSH2 0x31E8 JUMP JUMPDEST PUSH2 0x2CBA DUP2 DUP6 PUSH2 0x3240 JUMP JUMPDEST SWAP4 POP PUSH2 0x2CCA DUP2 DUP6 PUSH1 0x20 DUP7 ADD PUSH2 0x338C JUMP JUMPDEST PUSH2 0x2CD3 DUP2 PUSH2 0x353B JUMP JUMPDEST DUP5 ADD SWAP2 POP POP SWAP3 SWAP2 POP POP JUMP JUMPDEST PUSH1 0x0 PUSH2 0x2CEB PUSH1 0x11 DUP4 PUSH2 0x3240 JUMP JUMPDEST SWAP2 POP PUSH2 0x2CF6 DUP3 PUSH2 0x354C JUMP JUMPDEST PUSH1 0x20 DUP3 ADD SWAP1 POP SWAP2 SWAP1 POP JUMP JUMPDEST PUSH1 0x0 PUSH2 0x2D0E PUSH1 0x24 DUP4 PUSH2 0x3240 JUMP JUMPDEST SWAP2 POP PUSH2 0x2D19 DUP3 PUSH2 0x3575 JUMP JUMPDEST PUSH1 0x40 DUP3 ADD SWAP1 POP SWAP2 SWAP1 POP JUMP JUMPDEST PUSH1 0x0 PUSH2 0x2D31 PUSH1 0x1C DUP4 PUSH2 0x3240 JUMP JUMPDEST SWAP2 POP PUSH2 0x2D3C DUP3 PUSH2 0x35C4 JUMP JUMPDEST PUSH1 0x20 DUP3 ADD SWAP1 POP SWAP2 SWAP1 POP JUMP JUMPDEST PUSH1 0x0 PUSH2 0x2D54 PUSH1 0x22 DUP4 PUSH2 0x3240 JUMP JUMPDEST SWAP2 POP PUSH2 0x2D5F DUP3 PUSH2 0x35ED JUMP JUMPDEST PUSH1 0x40 DUP3 ADD SWAP1 POP SWAP2 SWAP1 POP JUMP JUMPDEST PUSH1 0x0 PUSH2 0x2D77 PUSH1 0x13 DUP4 PUSH2 0x3240 JUMP JUMPDEST SWAP2 POP PUSH2 0x2D82 DUP3 PUSH2 0x363C JUMP JUMPDEST PUSH1 0x20 DUP3 ADD SWAP1 POP SWAP2 SWAP1 POP JUMP JUMPDEST PUSH1 0x0 PUSH2 0x120 DUP4 ADD PUSH1 0x0 DUP4 ADD MLOAD PUSH2 0x2DA6 PUSH1 0x0 DUP7 ADD DUP3 PUSH2 0x2ED6 JUMP JUMPDEST POP PUSH1 0x20 DUP4 ADD MLOAD DUP5 DUP3 SUB PUSH1 0x20 DUP7 ADD MSTORE PUSH2 0x2DBE DUP3 DUP3 PUSH2 0x2C6C JUMP JUMPDEST SWAP2 POP POP PUSH1 0x40 DUP4 ADD MLOAD PUSH2 0x2DD3 PUSH1 0x40 DUP7 ADD DUP3 PUSH2 0x2ED6 JUMP JUMPDEST POP PUSH1 0x60 DUP4 ADD MLOAD PUSH2 0x2DE6 PUSH1 0x60 DUP7 ADD DUP3 PUSH2 0x2ED6 JUMP JUMPDEST POP PUSH1 0x80 DUP4 ADD MLOAD PUSH2 0x2DF9 PUSH1 0x80 DUP7 ADD DUP3 PUSH2 0x2ED6 JUMP JUMPDEST POP PUSH1 0xA0 DUP4 ADD MLOAD PUSH2 0x2E0C PUSH1 0xA0 DUP7 ADD DUP3 PUSH2 0x2ED6 JUMP JUMPDEST POP PUSH1 0xC0 DUP4 ADD MLOAD DUP5 DUP3 SUB PUSH1 0xC0 DUP7 ADD MSTORE PUSH2 0x2E24 DUP3 DUP3 PUSH2 0x2C6C JUMP JUMPDEST SWAP2 POP POP PUSH1 0xE0 DUP4 ADD MLOAD DUP5 DUP3 SUB PUSH1 0xE0 DUP7 ADD MSTORE PUSH2 0x2E3E DUP3 DUP3 PUSH2 0x2C6C JUMP JUMPDEST SWAP2 POP POP PUSH2 0x100 DUP4 ADD MLOAD PUSH2 0x2E55 PUSH2 0x100 DUP7 ADD DUP3 PUSH2 0x2B55 JUMP JUMPDEST POP DUP1 SWAP2 POP POP SWAP3 SWAP2 POP POP JUMP JUMPDEST PUSH1 0x0 PUSH1 0xA0 DUP4 ADD PUSH1 0x0 DUP4 ADD MLOAD PUSH2 0x2E78 PUSH1 0x0 DUP7 ADD DUP3 PUSH2 0x2ED6 JUMP JUMPDEST POP PUSH1 0x20 DUP4 ADD MLOAD PUSH2 0x2E8B PUSH1 0x20 DUP7 ADD DUP3 PUSH2 0x2ED6 JUMP JUMPDEST POP PUSH1 0x40 DUP4 ADD MLOAD DUP5 DUP3 SUB PUSH1 0x40 DUP7 ADD MSTORE PUSH2 0x2EA3 DUP3 DUP3 PUSH2 0x2C6C JUMP JUMPDEST SWAP2 POP POP PUSH1 0x60 DUP4 ADD MLOAD PUSH2 0x2EB8 PUSH1 0x60 DUP7 ADD DUP3 PUSH2 0x2B55 JUMP JUMPDEST POP PUSH1 0x80 DUP4 ADD MLOAD PUSH2 0x2ECB PUSH1 0x80 DUP7 ADD DUP3 PUSH2 0x2ED6 JUMP JUMPDEST POP DUP1 SWAP2 POP POP SWAP3 SWAP2 POP POP JUMP JUMPDEST PUSH2 0x2EDF DUP2 PUSH2 0x3373 JUMP JUMPDEST DUP3 MSTORE POP POP JUMP JUMPDEST PUSH2 0x2EEE DUP2 PUSH2 0x3373 JUMP JUMPDEST DUP3 MSTORE POP POP JUMP JUMPDEST PUSH1 0x0 PUSH1 0x20 DUP3 ADD SWAP1 POP PUSH2 0x2F09 PUSH1 0x0 DUP4 ADD DUP5 PUSH2 0x2B64 JUMP JUMPDEST SWAP3 SWAP2 POP POP JUMP JUMPDEST PUSH1 0x0 PUSH1 0x60 DUP3 ADD SWAP1 POP PUSH2 0x2F24 PUSH1 0x0 DUP4 ADD DUP7 PUSH2 0x2B64 JUMP JUMPDEST PUSH2 0x2F31 PUSH1 0x20 DUP4 ADD DUP6 PUSH2 0x2EE5 JUMP JUMPDEST PUSH2 0x2F3E PUSH1 0x40 DUP4 ADD DUP5 PUSH2 0x2C5D JUMP JUMPDEST SWAP5 SWAP4 POP POP POP POP JUMP JUMPDEST PUSH1 0x0 PUSH1 0x20 DUP3 ADD SWAP1 POP DUP2 DUP2 SUB PUSH1 0x0 DUP4 ADD MSTORE PUSH2 0x2F60 DUP2 DUP5 PUSH2 0x2B73 JUMP JUMPDEST SWAP1 POP SWAP3 SWAP2 POP POP JUMP JUMPDEST PUSH1 0x0 PUSH1 0x20 DUP3 ADD SWAP1 POP DUP2 DUP2 SUB PUSH1 0x0 DUP4 ADD MSTORE PUSH2 0x2F82 DUP2 DUP5 PUSH2 0x2BE8 JUMP JUMPDEST SWAP1 POP SWAP3 SWAP2 POP POP JUMP JUMPDEST PUSH1 0x0 PUSH1 0x20 DUP3 ADD SWAP1 POP PUSH2 0x2F9F PUSH1 0x0 DUP4 ADD DUP5 PUSH2 0x2C5D JUMP JUMPDEST SWAP3 SWAP2 POP POP JUMP JUMPDEST PUSH1 0x0 PUSH1 0x20 DUP3 ADD SWAP1 POP DUP2 DUP2 SUB PUSH1 0x0 DUP4 ADD MSTORE PUSH2 0x2FBE DUP2 PUSH2 0x2CDE JUMP JUMPDEST SWAP1 POP SWAP2 SWAP1 POP JUMP JUMPDEST PUSH1 0x0 PUSH1 0x20 DUP3 ADD SWAP1 POP DUP2 DUP2 SUB PUSH1 0x0 DUP4 ADD MSTORE PUSH2 0x2FDE DUP2 PUSH2 0x2D01 JUMP JUMPDEST SWAP1 POP SWAP2 SWAP1 POP JUMP JUMPDEST PUSH1 0x0 PUSH1 0x20 DUP3 ADD SWAP1 POP DUP2 DUP2 SUB PUSH1 0x0 DUP4 ADD MSTORE PUSH2 0x2FFE DUP2 PUSH2 0x2D24 JUMP JUMPDEST SWAP1 POP SWAP2 SWAP1 POP JUMP JUMPDEST PUSH1 0x0 PUSH1 0x20 DUP3 ADD SWAP1 POP DUP2 DUP2 SUB PUSH1 0x0 DUP4 ADD MSTORE PUSH2 0x301E DUP2 PUSH2 0x2D47 JUMP JUMPDEST SWAP1 POP SWAP2 SWAP1 POP JUMP JUMPDEST PUSH1 0x0 PUSH1 0x20 DUP3 ADD SWAP1 POP DUP2 DUP2 SUB PUSH1 0x0 DUP4 ADD MSTORE PUSH2 0x303E DUP2 PUSH2 0x2D6A JUMP JUMPDEST SWAP1 POP SWAP2 SWAP1 POP JUMP JUMPDEST PUSH1 0x0 PUSH1 0x20 DUP3 ADD SWAP1 POP PUSH2 0x305A PUSH1 0x0 DUP4 ADD DUP5 PUSH2 0x2EE5 JUMP JUMPDEST SWAP3 SWAP2 POP POP JUMP JUMPDEST PUSH1 0x0 PUSH2 0x120 DUP3 ADD SWAP1 POP PUSH2 0x3076 PUSH1 0x0 DUP4 ADD DUP13 PUSH2 0x2EE5 JUMP JUMPDEST DUP2 DUP2 SUB PUSH1 0x20 DUP4 ADD MSTORE PUSH2 0x3088 DUP2 DUP12 PUSH2 0x2CA5 JUMP JUMPDEST SWAP1 POP PUSH2 0x3097 PUSH1 0x40 DUP4 ADD DUP11 PUSH2 0x2EE5 JUMP JUMPDEST PUSH2 0x30A4 PUSH1 0x60 DUP4 ADD DUP10 PUSH2 0x2EE5 JUMP JUMPDEST PUSH2 0x30B1 PUSH1 0x80 DUP4 ADD DUP9 PUSH2 0x2EE5 JUMP JUMPDEST PUSH2 0x30BE PUSH1 0xA0 DUP4 ADD DUP8 PUSH2 0x2EE5 JUMP JUMPDEST DUP2 DUP2 SUB PUSH1 0xC0 DUP4 ADD MSTORE PUSH2 0x30D0 DUP2 DUP7 PUSH2 0x2CA5 JUMP JUMPDEST SWAP1 POP DUP2 DUP2 SUB PUSH1 0xE0 DUP4 ADD MSTORE PUSH2 0x30E4 DUP2 DUP6 PUSH2 0x2CA5 JUMP JUMPDEST SWAP1 POP PUSH2 0x30F4 PUSH2 0x100 DUP4 ADD DUP5 PUSH2 0x2B64 JUMP JUMPDEST SWAP11 SWAP10 POP POP POP POP POP POP POP POP POP POP JUMP JUMPDEST PUSH1 0x0 PUSH1 0xA0 DUP3 ADD SWAP1 POP PUSH2 0x3117 PUSH1 0x0 DUP4 ADD DUP9 PUSH2 0x2EE5 JUMP JUMPDEST PUSH2 0x3124 PUSH1 0x20 DUP4 ADD DUP8 PUSH2 0x2EE5 JUMP JUMPDEST DUP2 DUP2 SUB PUSH1 0x40 DUP4 ADD MSTORE PUSH2 0x3136 DUP2 DUP7 PUSH2 0x2CA5 JUMP JUMPDEST SWAP1 POP PUSH2 0x3145 PUSH1 0x60 DUP4 ADD DUP6 PUSH2 0x2B64 JUMP JUMPDEST PUSH2 0x3152 PUSH1 0x80 DUP4 ADD DUP5 PUSH2 0x2EE5 JUMP JUMPDEST SWAP7 SWAP6 POP POP POP POP POP POP JUMP JUMPDEST PUSH1 0x0 PUSH2 0x3166 PUSH2 0x3177 JUMP JUMPDEST SWAP1 POP PUSH2 0x3172 DUP3 DUP3 PUSH2 0x33F1 JUMP JUMPDEST SWAP2 SWAP1 POP JUMP JUMPDEST PUSH1 0x0 PUSH1 0x40 MLOAD SWAP1 POP SWAP1 JUMP JUMPDEST PUSH1 0x0 PUSH8 0xFFFFFFFFFFFFFFFF DUP3 GT ISZERO PUSH2 0x319C JUMPI PUSH2 0x319B PUSH2 0x34F8 JUMP JUMPDEST JUMPDEST PUSH2 0x31A5 DUP3 PUSH2 0x353B JUMP JUMPDEST SWAP1 POP PUSH1 0x20 DUP2 ADD SWAP1 POP SWAP2 SWAP1 POP JUMP JUMPDEST PUSH1 0x0 DUP2 SWAP1 POP PUSH1 0x20 DUP3 ADD SWAP1 POP SWAP2 SWAP1 POP JUMP JUMPDEST PUSH1 0x0 DUP2 SWAP1 POP PUSH1 0x20 DUP3 ADD SWAP1 POP SWAP2 SWAP1 POP JUMP JUMPDEST PUSH1 0x0 DUP2 MLOAD SWAP1 POP SWAP2 SWAP1 POP JUMP JUMPDEST PUSH1 0x0 DUP2 MLOAD SWAP1 POP SWAP2 SWAP1 POP JUMP JUMPDEST PUSH1 0x0 DUP2 MLOAD SWAP1 POP SWAP2 SWAP1 POP JUMP JUMPDEST PUSH1 0x0 PUSH1 0x20 DUP3 ADD SWAP1 POP SWAP2 SWAP1 POP JUMP JUMPDEST PUSH1 0x0 PUSH1 0x20 DUP3 ADD SWAP1 POP SWAP2 SWAP1 POP JUMP JUMPDEST PUSH1 0x0 DUP3 DUP3 MSTORE PUSH1 0x20 DUP3 ADD SWAP1 POP SWAP3 SWAP2 POP POP JUMP JUMPDEST PUSH1 0x0 DUP3 DUP3 MSTORE PUSH1 0x20 DUP3 ADD SWAP1 POP SWAP3 SWAP2 POP POP JUMP JUMPDEST PUSH1 0x0 DUP3 DUP3 MSTORE PUSH1 0x20 DUP3 ADD SWAP1 POP SWAP3 SWAP2 POP POP JUMP JUMPDEST PUSH1 0x0 DUP3 DUP3 MSTORE PUSH1 0x20 DUP3 ADD SWAP1 POP SWAP3 SWAP2 POP POP JUMP JUMPDEST PUSH1 0x0 PUSH2 0x325C DUP3 PUSH2 0x3373 JUMP JUMPDEST SWAP2 POP PUSH2 0x3267 DUP4 PUSH2 0x3373 JUMP JUMPDEST SWAP3 POP DUP3 PUSH32 0xFFFFFFFFFFFFFFFFFFFFFFFFFFFFFFFFFFFFFFFFFFFFFFFFFFFFFFFFFFFFFFFF SUB DUP3 GT ISZERO PUSH2 0x329C JUMPI PUSH2 0x329B PUSH2 0x346B JUMP JUMPDEST JUMPDEST DUP3 DUP3 ADD SWAP1 POP SWAP3 SWAP2 POP POP JUMP JUMPDEST PUSH1 0x0 PUSH2 0x32B2 DUP3 PUSH2 0x3373 JUMP JUMPDEST SWAP2 POP PUSH2 0x32BD DUP4 PUSH2 0x3373 JUMP JUMPDEST SWAP3 POP DUP2 PUSH32 0xFFFFFFFFFFFFFFFFFFFFFFFFFFFFFFFFFFFFFFFFFFFFFFFFFFFFFFFFFFFFFFFF DIV DUP4 GT DUP3 ISZERO ISZERO AND ISZERO PUSH2 0x32F6 JUMPI PUSH2 0x32F5 PUSH2 0x346B JUMP JUMPDEST JUMPDEST DUP3 DUP3 MUL SWAP1 POP SWAP3 SWAP2 POP POP JUMP JUMPDEST PUSH1 0x0 PUSH2 0x330C DUP3 PUSH2 0x3373 JUMP JUMPDEST SWAP2 POP PUSH2 0x3317 DUP4 PUSH2 0x3373 JUMP JUMPDEST SWAP3 POP DUP3 DUP3 LT ISZERO PUSH2 0x332A JUMPI PUSH2 0x3329 PUSH2 0x346B JUMP JUMPDEST JUMPDEST DUP3 DUP3 SUB SWAP1 POP SWAP3 SWAP2 POP POP JUMP JUMPDEST PUSH1 0x0 PUSH2 0x3340 DUP3 PUSH2 0x3353 JUMP JUMPDEST SWAP1 POP SWAP2 SWAP1 POP JUMP JUMPDEST PUSH1 0x0 DUP2 ISZERO ISZERO SWAP1 POP SWAP2 SWAP1 POP JUMP JUMPDEST PUSH1 0x0 PUSH20 0xFFFFFFFFFFFFFFFFFFFFFFFFFFFFFFFFFFFFFFFF DUP3 AND SWAP1 POP SWAP2 SWAP1 POP JUMP JUMPDEST PUSH1 0x0 DUP2 SWAP1 POP SWAP2 SWAP1 POP JUMP JUMPDEST DUP3 DUP2 DUP4 CALLDATACOPY PUSH1 0x0 DUP4 DUP4 ADD MSTORE POP POP POP JUMP JUMPDEST PUSH1 0x0 JUMPDEST DUP4 DUP2 LT ISZERO PUSH2 0x33AA JUMPI DUP1 DUP3 ADD MLOAD DUP2 DUP5 ADD MSTORE PUSH1 0x20 DUP2 ADD SWAP1 POP PUSH2 0x338F JUMP JUMPDEST DUP4 DUP2 GT ISZERO PUSH2 0x33B9 JUMPI PUSH1 0x0 DUP5 DUP5 ADD MSTORE JUMPDEST POP POP POP POP JUMP JUMPDEST PUSH1 0x0 PUSH1 0x2 DUP3 DIV SWAP1 POP PUSH1 0x1 DUP3 AND DUP1 PUSH2 0x33D7 JUMPI PUSH1 0x7F DUP3 AND SWAP2 POP JUMPDEST PUSH1 0x20 DUP3 LT DUP2 EQ ISZERO PUSH2 0x33EB JUMPI PUSH2 0x33EA PUSH2 0x349A JUMP JUMPDEST JUMPDEST POP SWAP2 SWAP1 POP JUMP JUMPDEST PUSH2 0x33FA DUP3 PUSH2 0x353B JUMP JUMPDEST DUP2 ADD DUP2 DUP2 LT PUSH8 0xFFFFFFFFFFFFFFFF DUP3 GT OR ISZERO PUSH2 0x3419 JUMPI PUSH2 0x3418 PUSH2 0x34F8 JUMP JUMPDEST JUMPDEST DUP1 PUSH1 0x40 MSTORE POP POP POP JUMP JUMPDEST PUSH1 0x0 PUSH2 0x342D DUP3 PUSH2 0x3373 JUMP JUMPDEST SWAP2 POP PUSH32 0xFFFFFFFFFFFFFFFFFFFFFFFFFFFFFFFFFFFFFFFFFFFFFFFFFFFFFFFFFFFFFFFF DUP3 EQ ISZERO PUSH2 0x3460 JUMPI PUSH2 0x345F PUSH2 0x346B JUMP JUMPDEST JUMPDEST PUSH1 0x1 DUP3 ADD SWAP1 POP SWAP2 SWAP1 POP JUMP JUMPDEST PUSH32 0x4E487B7100000000000000000000000000000000000000000000000000000000 PUSH1 0x0 MSTORE PUSH1 0x11 PUSH1 0x4 MSTORE PUSH1 0x24 PUSH1 0x0 REVERT JUMPDEST PUSH32 0x4E487B7100000000000000000000000000000000000000000000000000000000 PUSH1 0x0 MSTORE PUSH1 0x22 PUSH1 0x4 MSTORE PUSH1 0x24 PUSH1 0x0 REVERT JUMPDEST PUSH32 0x4E487B7100000000000000000000000000000000000000000000000000000000 PUSH1 0x0 MSTORE PUSH1 0x32 PUSH1 0x4 MSTORE PUSH1 0x24 PUSH1 0x0 REVERT JUMPDEST PUSH32 0x4E487B7100000000000000000000000000000000000000000000000000000000 PUSH1 0x0 MSTORE PUSH1 0x41 PUSH1 0x4 MSTORE PUSH1 0x24 PUSH1 0x0 REVERT JUMPDEST PUSH1 0x0 DUP1 REVERT JUMPDEST PUSH1 0x0 DUP1 REVERT JUMPDEST PUSH1 0x0 DUP1 REVERT JUMPDEST PUSH1 0x0 DUP1 REVERT JUMPDEST PUSH1 0x0 PUSH1 0x1F NOT PUSH1 0x1F DUP4 ADD AND SWAP1 POP SWAP2 SWAP1 POP JUMP JUMPDEST PUSH32 0x596F752063616E4E6F742044656C657465000000000000000000000000000000 PUSH1 0x0 DUP3 ADD MSTORE POP JUMP JUMPDEST PUSH32 0x506C656173652053656C6C6563742074686520636F7272656374205265636570 PUSH1 0x0 DUP3 ADD MSTORE PUSH32 0x69656E7400000000000000000000000000000000000000000000000000000000 PUSH1 0x20 DUP3 ADD MSTORE POP JUMP JUMPDEST PUSH32 0x596F7520617265204F776E6572206F6620746869732054656E64657200000000 PUSH1 0x0 DUP3 ADD MSTORE POP JUMP JUMPDEST PUSH32 0x596F7520416C7265616479204170706C7920666F722074686973205265717565 PUSH1 0x0 DUP3 ADD MSTORE PUSH32 0x7374000000000000000000000000000000000000000000000000000000000000 PUSH1 0x20 DUP3 ADD MSTORE POP JUMP JUMPDEST PUSH32 0x596F7520616C7265616479207061796D656E7400000000000000000000000000 PUSH1 0x0 DUP3 ADD MSTORE POP JUMP JUMPDEST PUSH2 0x366E DUP2 PUSH2 0x3335 JUMP JUMPDEST DUP2 EQ PUSH2 0x3679 JUMPI PUSH1 0x0 DUP1 REVERT JUMPDEST POP JUMP JUMPDEST PUSH2 0x3685 DUP2 PUSH2 0x3373 JUMP JUMPDEST DUP2 EQ PUSH2 0x3690 JUMPI PUSH1 0x0 DUP1 REVERT JUMPDEST POP JUMP INVALID LOG2 PUSH5 0x6970667358 0x22 SLT KECCAK256 PUSH26 0xD994F08261059C54151E7DE7EB35C6A3B245E4CC36C6CCEE76BB 0xDF 0xD9 0xA7 0xB0 SWAP14 PUSH5 0x736F6C6343 STOP ADDMOD SMOD STOP CALLER "
				},
				"gasEstimates": {
					"creation": {
						"codeDepositCost": "2805000",
						"executionCost": "27327",
						"totalCost": "2832327"
					},
					"external": {
						"AcceptInvitation(uint256,address,address,uint256)": "infinite",
						"AllTender()": "infinite",
						"AllVender(uint256)": "infinite",
						"Ch(address,uint256)": "3132",
						"CheckTime(uint256)": "infinite",
						"Communication(uint256,address)": "infinite",
						"Contract()": "2625",
						"DeleteVRequest(uint256)": "infinite",
						"Done(address,address,uint256)": "infinite",
						"Finder(uint256,address)": "infinite",
						"Invite(address,uint256,address)": "infinite",
						"Pending(address,uint256)": "3220",
						"Ratting(address)": "2859",
						"Requests(address)": "2882",
						"Size(address)": "2947",
						"SizeVender(uint256)": "infinite",
						"Total(uint256)": "infinite",
						"TotalTender()": "2531",
						"TotalVender()": "2577",
						"UpdateRequest(uint256,uint256,string,uint256)": "infinite",
						"Venders(uint256,uint256)": "infinite",
						"getTender(address)": "infinite",
						"getVender(address)": "infinite",
						"tender(string,uint256,uint256,uint256,string,string)": "infinite",
						"vender(uint256,uint256,string,uint256)": "infinite"
					}
				},
				"methodIdentifiers": {
					"AcceptInvitation(uint256,address,address,uint256)": "a06c5e3d",
					"AllTender()": "bc16aad7",
					"AllVender(uint256)": "86e9ff0a",
					"Ch(address,uint256)": "40f12058",
					"CheckTime(uint256)": "0c4a3338",
					"Communication(uint256,address)": "30182235",
					"Contract()": "5af77fff",
					"DeleteVRequest(uint256)": "2302ec7e",
					"Done(address,address,uint256)": "d60f5a38",
					"Finder(uint256,address)": "9fff963e",
					"Invite(address,uint256,address)": "a56d6544",
					"Pending(address,uint256)": "75772c47",
					"Ratting(address)": "9d6d10f9",
					"Requests(address)": "1a4b3311",
					"Size(address)": "b19781fe",
					"SizeVender(uint256)": "ffd64f8a",
					"Total(uint256)": "52943ff5",
					"TotalTender()": "d7add75f",
					"TotalVender()": "25af0316",
					"UpdateRequest(uint256,uint256,string,uint256)": "cf507bfb",
					"Venders(uint256,uint256)": "168d5d34",
					"getTender(address)": "d0c3e909",
					"getVender(address)": "d0c343d6",
					"tender(string,uint256,uint256,uint256,string,string)": "1a779488",
					"vender(uint256,uint256,string,uint256)": "4fcb4a58"
				}
			},
			"storageLayout": {
				"storage": [
					{
						"astId": 84,
						"contract": "contracts/Fast/contract.sol:Storage",
						"label": "TotalTender",
						"offset": 0,
						"slot": "0",
						"type": "t_struct(Counter)5_storage"
					},
					{
						"astId": 87,
						"contract": "contracts/Fast/contract.sol:Storage",
						"label": "TotalVender",
						"offset": 0,
						"slot": "1",
						"type": "t_struct(Counter)5_storage"
					},
					{
						"astId": 89,
						"contract": "contracts/Fast/contract.sol:Storage",
						"label": "Contract",
						"offset": 0,
						"slot": "2",
						"type": "t_address"
					},
					{
						"astId": 137,
						"contract": "contracts/Fast/contract.sol:Storage",
						"label": "Size",
						"offset": 0,
						"slot": "3",
						"type": "t_mapping(t_address,t_uint256)"
					},
					{
						"astId": 143,
						"contract": "contracts/Fast/contract.sol:Storage",
						"label": "Pending",
						"offset": 0,
						"slot": "4",
						"type": "t_mapping(t_address,t_mapping(t_uint256,t_bool))"
					},
					{
						"astId": 147,
						"contract": "contracts/Fast/contract.sol:Storage",
						"label": "SizeVender",
						"offset": 0,
						"slot": "5",
						"type": "t_mapping(t_uint256,t_uint256)"
					},
					{
						"astId": 152,
						"contract": "contracts/Fast/contract.sol:Storage",
						"label": "Total",
						"offset": 0,
						"slot": "6",
						"type": "t_mapping(t_uint256,t_struct(Tender)119_storage)"
					},
					{
						"astId": 159,
						"contract": "contracts/Fast/contract.sol:Storage",
						"label": "Venders",
						"offset": 0,
						"slot": "7",
						"type": "t_mapping(t_uint256,t_mapping(t_uint256,t_struct(Vender)100_storage))"
					},
					{
						"astId": 165,
						"contract": "contracts/Fast/contract.sol:Storage",
						"label": "Ch",
						"offset": 0,
						"slot": "8",
						"type": "t_mapping(t_address,t_mapping(t_uint256,t_bool))"
					},
					{
						"astId": 169,
						"contract": "contracts/Fast/contract.sol:Storage",
						"label": "Requests",
						"offset": 0,
						"slot": "9",
						"type": "t_mapping(t_address,t_uint256)"
					},
					{
						"astId": 175,
						"contract": "contracts/Fast/contract.sol:Storage",
						"label": "Finder",
						"offset": 0,
						"slot": "10",
						"type": "t_mapping(t_uint256,t_mapping(t_address,t_uint256))"
					},
					{
						"astId": 182,
						"contract": "contracts/Fast/contract.sol:Storage",
						"label": "Communication",
						"offset": 0,
						"slot": "11",
						"type": "t_mapping(t_uint256,t_mapping(t_address,t_struct(Comm)133_storage))"
					},
					{
						"astId": 190,
						"contract": "contracts/Fast/contract.sol:Storage",
						"label": "Invite",
						"offset": 0,
						"slot": "12",
						"type": "t_mapping(t_address,t_mapping(t_uint256,t_mapping(t_address,t_bool)))"
					},
					{
						"astId": 194,
						"contract": "contracts/Fast/contract.sol:Storage",
						"label": "Ratting",
						"offset": 0,
						"slot": "13",
						"type": "t_mapping(t_address,t_uint256)"
					}
				],
				"types": {
					"t_address": {
						"encoding": "inplace",
						"label": "address",
						"numberOfBytes": "20"
					},
					"t_bool": {
						"encoding": "inplace",
						"label": "bool",
						"numberOfBytes": "1"
					},
					"t_mapping(t_address,t_bool)": {
						"encoding": "mapping",
						"key": "t_address",
						"label": "mapping(address => bool)",
						"numberOfBytes": "32",
						"value": "t_bool"
					},
					"t_mapping(t_address,t_mapping(t_uint256,t_bool))": {
						"encoding": "mapping",
						"key": "t_address",
						"label": "mapping(address => mapping(uint256 => bool))",
						"numberOfBytes": "32",
						"value": "t_mapping(t_uint256,t_bool)"
					},
					"t_mapping(t_address,t_mapping(t_uint256,t_mapping(t_address,t_bool)))": {
						"encoding": "mapping",
						"key": "t_address",
						"label": "mapping(address => mapping(uint256 => mapping(address => bool)))",
						"numberOfBytes": "32",
						"value": "t_mapping(t_uint256,t_mapping(t_address,t_bool))"
					},
					"t_mapping(t_address,t_struct(Comm)133_storage)": {
						"encoding": "mapping",
						"key": "t_address",
						"label": "mapping(address => struct Storage.Comm)",
						"numberOfBytes": "32",
						"value": "t_struct(Comm)133_storage"
					},
					"t_mapping(t_address,t_uint256)": {
						"encoding": "mapping",
						"key": "t_address",
						"label": "mapping(address => uint256)",
						"numberOfBytes": "32",
						"value": "t_uint256"
					},
					"t_mapping(t_uint256,t_bool)": {
						"encoding": "mapping",
						"key": "t_uint256",
						"label": "mapping(uint256 => bool)",
						"numberOfBytes": "32",
						"value": "t_bool"
					},
					"t_mapping(t_uint256,t_mapping(t_address,t_bool))": {
						"encoding": "mapping",
						"key": "t_uint256",
						"label": "mapping(uint256 => mapping(address => bool))",
						"numberOfBytes": "32",
						"value": "t_mapping(t_address,t_bool)"
					},
					"t_mapping(t_uint256,t_mapping(t_address,t_struct(Comm)133_storage))": {
						"encoding": "mapping",
						"key": "t_uint256",
						"label": "mapping(uint256 => mapping(address => struct Storage.Comm))",
						"numberOfBytes": "32",
						"value": "t_mapping(t_address,t_struct(Comm)133_storage)"
					},
					"t_mapping(t_uint256,t_mapping(t_address,t_uint256))": {
						"encoding": "mapping",
						"key": "t_uint256",
						"label": "mapping(uint256 => mapping(address => uint256))",
						"numberOfBytes": "32",
						"value": "t_mapping(t_address,t_uint256)"
					},
					"t_mapping(t_uint256,t_mapping(t_uint256,t_struct(Vender)100_storage))": {
						"encoding": "mapping",
						"key": "t_uint256",
						"label": "mapping(uint256 => mapping(uint256 => struct Storage.Vender))",
						"numberOfBytes": "32",
						"value": "t_mapping(t_uint256,t_struct(Vender)100_storage)"
					},
					"t_mapping(t_uint256,t_struct(Tender)119_storage)": {
						"encoding": "mapping",
						"key": "t_uint256",
						"label": "mapping(uint256 => struct Storage.Tender)",
						"numberOfBytes": "32",
						"value": "t_struct(Tender)119_storage"
					},
					"t_mapping(t_uint256,t_struct(Vender)100_storage)": {
						"encoding": "mapping",
						"key": "t_uint256",
						"label": "mapping(uint256 => struct Storage.Vender)",
						"numberOfBytes": "32",
						"value": "t_struct(Vender)100_storage"
					},
					"t_mapping(t_uint256,t_uint256)": {
						"encoding": "mapping",
						"key": "t_uint256",
						"label": "mapping(uint256 => uint256)",
						"numberOfBytes": "32",
						"value": "t_uint256"
					},
					"t_string_storage": {
						"encoding": "bytes",
						"label": "string",
						"numberOfBytes": "32"
					},
					"t_struct(Comm)133_storage": {
						"encoding": "inplace",
						"label": "struct Storage.Comm",
						"members": [
							{
								"astId": 128,
								"contract": "contracts/Fast/contract.sol:Storage",
								"label": "receiver",
								"offset": 0,
								"slot": "0",
								"type": "t_address"
							},
							{
								"astId": 130,
								"contract": "contracts/Fast/contract.sol:Storage",
								"label": "price",
								"offset": 0,
								"slot": "1",
								"type": "t_uint256"
							},
							{
								"astId": 132,
								"contract": "contracts/Fast/contract.sol:Storage",
								"label": "done",
								"offset": 0,
								"slot": "2",
								"type": "t_bool"
							}
						],
						"numberOfBytes": "96"
					},
					"t_struct(Counter)5_storage": {
						"encoding": "inplace",
						"label": "struct Counters.Counter",
						"members": [
							{
								"astId": 4,
								"contract": "contracts/Fast/contract.sol:Storage",
								"label": "_value",
								"offset": 0,
								"slot": "0",
								"type": "t_uint256"
							}
						],
						"numberOfBytes": "32"
					},
					"t_struct(Tender)119_storage": {
						"encoding": "inplace",
						"label": "struct Storage.Tender",
						"members": [
							{
								"astId": 102,
								"contract": "contracts/Fast/contract.sol:Storage",
								"label": "TokenId",
								"offset": 0,
								"slot": "0",
								"type": "t_uint256"
							},
							{
								"astId": 104,
								"contract": "contracts/Fast/contract.sol:Storage",
								"label": "name",
								"offset": 0,
								"slot": "1",
								"type": "t_string_storage"
							},
							{
								"astId": 106,
								"contract": "contracts/Fast/contract.sol:Storage",
								"label": "quantity",
								"offset": 0,
								"slot": "2",
								"type": "t_uint256"
							},
							{
								"astId": 108,
								"contract": "contracts/Fast/contract.sol:Storage",
								"label": "budget",
								"offset": 0,
								"slot": "3",
								"type": "t_uint256"
							},
							{
								"astId": 110,
								"contract": "contracts/Fast/contract.sol:Storage",
								"label": "time",
								"offset": 0,
								"slot": "4",
								"type": "t_uint256"
							},
							{
								"astId": 112,
								"contract": "contracts/Fast/contract.sol:Storage",
								"label": "start",
								"offset": 0,
								"slot": "5",
								"type": "t_uint256"
							},
							{
								"astId": 114,
								"contract": "contracts/Fast/contract.sol:Storage",
								"label": "_address",
								"offset": 0,
								"slot": "6",
								"type": "t_string_storage"
							},
							{
								"astId": 116,
								"contract": "contracts/Fast/contract.sol:Storage",
								"label": "description",
								"offset": 0,
								"slot": "7",
								"type": "t_string_storage"
							},
							{
								"astId": 118,
								"contract": "contracts/Fast/contract.sol:Storage",
								"label": "owner",
								"offset": 0,
								"slot": "8",
								"type": "t_address"
							}
						],
						"numberOfBytes": "288"
					},
					"t_struct(Vender)100_storage": {
						"encoding": "inplace",
						"label": "struct Storage.Vender",
						"members": [
							{
								"astId": 91,
								"contract": "contracts/Fast/contract.sol:Storage",
								"label": "Token",
								"offset": 0,
								"slot": "0",
								"type": "t_uint256"
							},
							{
								"astId": 93,
								"contract": "contracts/Fast/contract.sol:Storage",
								"label": "Price",
								"offset": 0,
								"slot": "1",
								"type": "t_uint256"
							},
							{
								"astId": 95,
								"contract": "contracts/Fast/contract.sol:Storage",
								"label": "Description",
								"offset": 0,
								"slot": "2",
								"type": "t_string_storage"
							},
							{
								"astId": 97,
								"contract": "contracts/Fast/contract.sol:Storage",
								"label": "owner",
								"offset": 0,
								"slot": "3",
								"type": "t_address"
							},
							{
								"astId": 99,
								"contract": "contracts/Fast/contract.sol:Storage",
								"label": "DeleveryTime",
								"offset": 0,
								"slot": "4",
								"type": "t_uint256"
							}
						],
						"numberOfBytes": "160"
					},
					"t_uint256": {
						"encoding": "inplace",
						"label": "uint256",
						"numberOfBytes": "32"
					}
				}
			},
			"userdoc": {
				"kind": "user",
				"methods": {},
				"version": 1
			}
		}
	}
}