{
	"contracts/Liberswap/swaping.sol": {
		"TokenSwap": {
			"abi": [
				{
					"inputs": [
						{
							"internalType": "address",
							"name": "initialOwner",
							"type": "address"
						}
					],
					"stateMutability": "nonpayable",
					"type": "constructor"
				},
				{
					"inputs": [
						{
							"internalType": "address",
							"name": "target",
							"type": "address"
						}
					],
					"name": "AddressEmptyCode",
					"type": "error"
				},
				{
					"inputs": [
						{
							"internalType": "address",
							"name": "account",
							"type": "address"
						}
					],
					"name": "AddressInsufficientBalance",
					"type": "error"
				},
				{
					"inputs": [],
					"name": "FailedInnerCall",
					"type": "error"
				},
				{
					"inputs": [
						{
							"internalType": "address",
							"name": "owner",
							"type": "address"
						}
					],
					"name": "OwnableInvalidOwner",
					"type": "error"
				},
				{
					"inputs": [
						{
							"internalType": "address",
							"name": "account",
							"type": "address"
						}
					],
					"name": "OwnableUnauthorizedAccount",
					"type": "error"
				},
				{
					"inputs": [
						{
							"internalType": "address",
							"name": "token",
							"type": "address"
						}
					],
					"name": "SafeERC20FailedOperation",
					"type": "error"
				},
				{
					"anonymous": false,
					"inputs": [
						{
							"indexed": false,
							"internalType": "address",
							"name": "sender",
							"type": "address"
						},
						{
							"indexed": false,
							"internalType": "uint256",
							"name": "amount",
							"type": "uint256"
						}
					],
					"name": "Hold_USDM_Token",
					"type": "event"
				},
				{
					"anonymous": false,
					"inputs": [
						{
							"indexed": true,
							"internalType": "address",
							"name": "previousOwner",
							"type": "address"
						},
						{
							"indexed": true,
							"internalType": "address",
							"name": "newOwner",
							"type": "address"
						}
					],
					"name": "OwnershipTransferred",
					"type": "event"
				},
				{
					"anonymous": false,
					"inputs": [
						{
							"indexed": false,
							"internalType": "address",
							"name": "sender",
							"type": "address"
						},
						{
							"indexed": false,
							"internalType": "uint256",
							"name": "amount",
							"type": "uint256"
						}
					],
					"name": "substrateSwapToken",
					"type": "event"
				},
				{
					"anonymous": false,
					"inputs": [
						{
							"indexed": false,
							"internalType": "address",
							"name": "sender",
							"type": "address"
						},
						{
							"indexed": false,
							"internalType": "uint256",
							"name": "amount",
							"type": "uint256"
						}
					],
					"name": "swapToken",
					"type": "event"
				},
				{
					"inputs": [],
					"name": "Owner",
					"outputs": [
						{
							"internalType": "address",
							"name": "",
							"type": "address"
						}
					],
					"stateMutability": "view",
					"type": "function"
				},
				{
					"inputs": [
						{
							"internalType": "address",
							"name": "_address",
							"type": "address"
						}
					],
					"name": "WhiteList",
					"outputs": [],
					"stateMutability": "nonpayable",
					"type": "function"
				},
				{
					"inputs": [],
					"name": "currentHoldings",
					"outputs": [
						{
							"internalType": "uint256",
							"name": "",
							"type": "uint256"
						}
					],
					"stateMutability": "view",
					"type": "function"
				},
				{
					"inputs": [
						{
							"internalType": "address",
							"name": "_ethToken",
							"type": "address"
						}
					],
					"name": "holdingOfTokens",
					"outputs": [
						{
							"internalType": "uint256",
							"name": "holdings",
							"type": "uint256"
						}
					],
					"stateMutability": "view",
					"type": "function"
				},
				{
					"inputs": [
						{
							"internalType": "address",
							"name": "holder",
							"type": "address"
						}
					],
					"name": "holdingOf_DAI",
					"outputs": [
						{
							"internalType": "uint256",
							"name": "holdings",
							"type": "uint256"
						}
					],
					"stateMutability": "view",
					"type": "function"
				},
				{
					"inputs": [
						{
							"internalType": "address",
							"name": "holder",
							"type": "address"
						}
					],
					"name": "holdingOf_USDC",
					"outputs": [
						{
							"internalType": "uint256",
							"name": "holdings",
							"type": "uint256"
						}
					],
					"stateMutability": "view",
					"type": "function"
				},
				{
					"inputs": [
						{
							"internalType": "address",
							"name": "holder",
							"type": "address"
						}
					],
					"name": "holdingOf_USDM",
					"outputs": [
						{
							"internalType": "uint256",
							"name": "holdings",
							"type": "uint256"
						}
					],
					"stateMutability": "view",
					"type": "function"
				},
				{
					"inputs": [
						{
							"internalType": "address",
							"name": "holder",
							"type": "address"
						}
					],
					"name": "holdingOf_USDT",
					"outputs": [
						{
							"internalType": "uint256",
							"name": "holdings",
							"type": "uint256"
						}
					],
					"stateMutability": "view",
					"type": "function"
				},
				{
					"inputs": [],
					"name": "overColleteralFeeAmount",
					"outputs": [
						{
							"internalType": "uint256",
							"name": "",
							"type": "uint256"
						}
					],
					"stateMutability": "view",
					"type": "function"
				},
				{
					"inputs": [],
					"name": "owner",
					"outputs": [
						{
							"internalType": "address",
							"name": "",
							"type": "address"
						}
					],
					"stateMutability": "view",
					"type": "function"
				},
				{
					"inputs": [
						{
							"internalType": "address",
							"name": "_address",
							"type": "address"
						}
					],
					"name": "removeFromWhiteList",
					"outputs": [],
					"stateMutability": "nonpayable",
					"type": "function"
				},
				{
					"inputs": [],
					"name": "renounceOwnership",
					"outputs": [],
					"stateMutability": "nonpayable",
					"type": "function"
				},
				{
					"inputs": [
						{
							"internalType": "address",
							"name": "_ethToken",
							"type": "address"
						},
						{
							"internalType": "uint256",
							"name": "_amount",
							"type": "uint256"
						},
						{
							"internalType": "address",
							"name": "_to",
							"type": "address"
						}
					],
					"name": "substrateSwapTokens",
					"outputs": [],
					"stateMutability": "nonpayable",
					"type": "function"
				},
				{
					"inputs": [
						{
							"internalType": "address",
							"name": "_ethToken",
							"type": "address"
						},
						{
							"internalType": "uint256",
							"name": "_amount",
							"type": "uint256"
						},
						{
							"internalType": "string",
							"name": "substrateAddress",
							"type": "string"
						}
					],
					"name": "swapTokens",
					"outputs": [],
					"stateMutability": "nonpayable",
					"type": "function"
				},
				{
					"inputs": [
						{
							"internalType": "address",
							"name": "newOwner",
							"type": "address"
						}
					],
					"name": "transferOwnership",
					"outputs": [],
					"stateMutability": "nonpayable",
					"type": "function"
				},
				{
					"inputs": [
						{
							"internalType": "address",
							"name": "UserAddress",
							"type": "address"
						}
					],
					"name": "userAmount",
					"outputs": [
						{
							"internalType": "uint256",
							"name": "",
							"type": "uint256"
						}
					],
					"stateMutability": "view",
					"type": "function"
				},
				{
					"inputs": [
						{
							"internalType": "address",
							"name": "UserAddress",
							"type": "address"
						},
						{
							"internalType": "address",
							"name": "TokenAddress",
							"type": "address"
						}
					],
					"name": "userTokenAmount",
					"outputs": [
						{
							"internalType": "uint256",
							"name": "",
							"type": "uint256"
						}
					],
					"stateMutability": "view",
					"type": "function"
				},
				{
					"inputs": [
						{
							"internalType": "address",
							"name": "UserAddress",
							"type": "address"
						},
						{
							"internalType": "string",
							"name": "",
							"type": "string"
						}
					],
					"name": "userTotalSwapAmount",
					"outputs": [
						{
							"internalType": "uint256",
							"name": "Amount",
							"type": "uint256"
						}
					],
					"stateMutability": "view",
					"type": "function"
				},
				{
					"inputs": [
						{
							"internalType": "uint256",
							"name": "",
							"type": "uint256"
						}
					],
					"name": "whilistedAddress",
					"outputs": [
						{
							"internalType": "address",
							"name": "",
							"type": "address"
						}
					],
					"stateMutability": "view",
					"type": "function"
				},
				{
					"inputs": [
						{
							"internalType": "address",
							"name": "",
							"type": "address"
						}
					],
					"name": "whiteList",
					"outputs": [
						{
							"internalType": "bool",
							"name": "",
							"type": "bool"
						}
					],
					"stateMutability": "view",
					"type": "function"
				},
				{
					"inputs": [
						{
							"internalType": "address",
							"name": "_ethToken",
							"type": "address"
						}
					],
					"name": "withdrawBalanceTokens",
					"outputs": [],
					"stateMutability": "nonpayable",
					"type": "function"
				}
			],
			"devdoc": {
				"author": "LiberSwap Team",
				"errors": {
					"AddressEmptyCode(address)": [
						{
							"details": "There's no code at `target` (it is not a contract)."
						}
					],
					"AddressInsufficientBalance(address)": [
						{
							"details": "The ETH balance of the account is not enough to perform the operation."
						}
					],
					"FailedInnerCall()": [
						{
							"details": "A call to an address target failed. The target may have reverted."
						}
					],
					"OwnableInvalidOwner(address)": [
						{
							"details": "The owner is not a valid owner account. (eg. `address(0)`)"
						}
					],
					"OwnableUnauthorizedAccount(address)": [
						{
							"details": "The caller account is not authorized to perform an operation."
						}
					],
					"SafeERC20FailedOperation(address)": [
						{
							"details": "An operation with an ERC20 token failed."
						}
					]
				},
				"kind": "dev",
				"methods": {
					"WhiteList(address)": {
						"details": "Adds an address to the whitelist. Only the owner of the contract can call this function. Emits an event once an address is successfully whitelisted. ",
						"params": {
							"_address": "The address to be added to the whitelist."
						}
					},
					"holdingOfTokens(address)": {
						"details": "Returns the balance of a specific ERC20 token held by this contract.",
						"params": {
							"_ethToken": "The address of the ERC20 token."
						},
						"returns": {
							"holdings": "The amount of the specified tokens held by this contract."
						}
					},
					"holdingOf_DAI(address)": {
						"details": "Returns the DAI token balance of this contract.",
						"returns": {
							"holdings": "The amount of DAI tokens held by this contract."
						}
					},
					"holdingOf_USDC(address)": {
						"details": "Returns the USDC token balance of this contract.",
						"returns": {
							"holdings": "The amount of USDC tokens held by this contract."
						}
					},
					"holdingOf_USDM(address)": {
						"details": "Returns the USDM token balance of this contract.",
						"returns": {
							"holdings": "The amount of USDM tokens held by this contract."
						}
					},
					"holdingOf_USDT(address)": {
						"details": "Returns the USDT token balance of this contract.",
						"returns": {
							"holdings": "The amount of USDT tokens held by this contract."
						}
					},
					"owner()": {
						"details": "Returns the address of the current owner."
					},
					"removeFromWhiteList(address)": {
						"details": "Removes an address from the whitelist. Only the owner can call this function.",
						"params": {
							"_address": "The address to be removed from the whitelist."
						}
					},
					"renounceOwnership()": {
						"details": "Leaves the contract without owner. It will not be possible to call `onlyOwner` functions. Can only be called by the current owner. NOTE: Renouncing ownership will leave the contract without an owner, thereby disabling any functionality that is only available to the owner."
					},
					"substrateSwapTokens(address,uint256,address)": {
						"details": "Allows users to swap tokens back from the contract or distribute a fee among whitelisted addresses before sending back the tokens. If the token being swapped back is USDM, it is directly transferred to the sender. For other tokens, a 0.3% fee is distributed among all whitelisted addresses before sending the remaining tokens back to the sender. ",
						"params": {
							"_amount": "The amount of the token to be swapped back.",
							"_ethToken": "The address of the ERC20 token to be swapped back."
						}
					},
					"swapTokens(address,uint256,string)": {
						"details": "Allows users to swap tokens by transferring them to the contract or distribute a fee among whitelisted addresses. If the token being swapped is USDM, it is simply collected by the contract. For other tokens, a 0.3% fee is distributed among all whitelisted addresses, and the rest is collected by the contract. ",
						"params": {
							"_amount": "The amount of the token to be swapped.",
							"_ethToken": "The address of the ERC20 token to be swapped."
						}
					},
					"transferOwnership(address)": {
						"details": "Transfers ownership of the contract to a new account (`newOwner`). Can only be called by the current owner."
					},
					"withdrawBalanceTokens(address)": {
						"params": {
							"_ethToken": "The address of the ERC20 token to be swapped back. Only owner can withdaraw the Overcolleteral fee."
						}
					}
				},
				"title": "TokenSwap contract for swapping tokens, inheriting from Ownable for access control",
				"version": 1
			},
			"evm": {
				"assembly": "    /* \"contracts/Liberswap/swaping.sol\":514:9011  contract TokenSwap is Ownable {... */\n  mstore(0x40, 0x80)\n    /* \"contracts/Liberswap/swaping.sol\":2181:2274  constructor(address initialOwner) Ownable(initialOwner) {... */\n  callvalue\n  dup1\n  iszero\n  tag_1\n  jumpi\n  0x00\n  dup1\n  revert\ntag_1:\n  pop\n  mload(0x40)\n  sub(codesize, bytecodeSize)\n  dup1\n  bytecodeSize\n  dup4\n  codecopy\n  dup2\n  dup2\n  add\n  0x40\n  mstore\n  dup2\n  add\n  swap1\n  tag_2\n  swap2\n  swap1\n  tag_3\n  jump\t// in\ntag_2:\n    /* \"contracts/Liberswap/swaping.sol\":2223:2235  initialOwner */\n  dup1\n    /* \"@openzeppelin/contracts/access/Ownable.sol\":1297:1298  0 */\n  0x00\n    /* \"@openzeppelin/contracts/access/Ownable.sol\":1273:1299  initialOwner == address(0) */\n  0xffffffffffffffffffffffffffffffffffffffff\n  and\n    /* \"@openzeppelin/contracts/access/Ownable.sol\":1273:1285  initialOwner */\n  dup2\n    /* \"@openzeppelin/contracts/access/Ownable.sol\":1273:1299  initialOwner == address(0) */\n  0xffffffffffffffffffffffffffffffffffffffff\n  and\n  sub\n    /* \"@openzeppelin/contracts/access/Ownable.sol\":1269:1364  if (initialOwner == address(0)) {... */\n  tag_7\n  jumpi\n    /* \"@openzeppelin/contracts/access/Ownable.sol\":1350:1351  0 */\n  0x00\n    /* \"@openzeppelin/contracts/access/Ownable.sol\":1322:1353  OwnableInvalidOwner(address(0)) */\n  mload(0x40)\n  0x1e4fbdf700000000000000000000000000000000000000000000000000000000\n  dup2\n  mstore\n  0x04\n  add\n  tag_8\n  swap2\n  swap1\n  tag_9\n  jump\t// in\ntag_8:\n  mload(0x40)\n  dup1\n  swap2\n  sub\n  swap1\n  revert\n    /* \"@openzeppelin/contracts/access/Ownable.sol\":1269:1364  if (initialOwner == address(0)) {... */\ntag_7:\n    /* \"@openzeppelin/contracts/access/Ownable.sol\":1373:1405  _transferOwnership(initialOwner) */\n  tag_10\n    /* \"@openzeppelin/contracts/access/Ownable.sol\":1392:1404  initialOwner */\n  dup2\n    /* \"@openzeppelin/contracts/access/Ownable.sol\":1373:1391  _transferOwnership */\n  shl(0x20, tag_11)\n    /* \"@openzeppelin/contracts/access/Ownable.sol\":1373:1405  _transferOwnership(initialOwner) */\n  0x20\n  shr\n  jump\t// in\ntag_10:\n    /* \"@openzeppelin/contracts/access/Ownable.sol\":1225:1412  constructor(address initialOwner) {... */\n  pop\n    /* \"contracts/Liberswap/swaping.sol\":2255:2267  initialOwner */\n  dup1\n    /* \"contracts/Liberswap/swaping.sol\":2247:2252  Owner */\n  0x01\n  0x00\n    /* \"contracts/Liberswap/swaping.sol\":2247:2267  Owner = initialOwner */\n  0x0100\n  exp\n  dup2\n  sload\n  dup2\n  0xffffffffffffffffffffffffffffffffffffffff\n  mul\n  not\n  and\n  swap1\n  dup4\n  0xffffffffffffffffffffffffffffffffffffffff\n  and\n  mul\n  or\n  swap1\n  sstore\n  pop\n    /* \"contracts/Liberswap/swaping.sol\":2181:2274  constructor(address initialOwner) Ownable(initialOwner) {... */\n  pop\n    /* \"contracts/Liberswap/swaping.sol\":514:9011  contract TokenSwap is Ownable {... */\n  jump(tag_13)\n    /* \"@openzeppelin/contracts/access/Ownable.sol\":2912:3099  function _transferOwnership(address newOwner) internal virtual {... */\ntag_11:\n    /* \"@openzeppelin/contracts/access/Ownable.sol\":2985:3001  address oldOwner */\n  0x00\n    /* \"@openzeppelin/contracts/access/Ownable.sol\":3004:3010  _owner */\n  dup1\n  0x00\n  swap1\n  sload\n  swap1\n  0x0100\n  exp\n  swap1\n  div\n  0xffffffffffffffffffffffffffffffffffffffff\n  and\n    /* \"@openzeppelin/contracts/access/Ownable.sol\":2985:3010  address oldOwner = _owner */\n  swap1\n  pop\n    /* \"@openzeppelin/contracts/access/Ownable.sol\":3029:3037  newOwner */\n  dup2\n    /* \"@openzeppelin/contracts/access/Ownable.sol\":3020:3026  _owner */\n  0x00\n  dup1\n    /* \"@openzeppelin/contracts/access/Ownable.sol\":3020:3037  _owner = newOwner */\n  0x0100\n  exp\n  dup2\n  sload\n  dup2\n  0xffffffffffffffffffffffffffffffffffffffff\n  mul\n  not\n  and\n  swap1\n  dup4\n  0xffffffffffffffffffffffffffffffffffffffff\n  and\n  mul\n  or\n  swap1\n  sstore\n  pop\n    /* \"@openzeppelin/contracts/access/Ownable.sol\":3083:3091  newOwner */\n  dup2\n    /* \"@openzeppelin/contracts/access/Ownable.sol\":3052:3092  OwnershipTransferred(oldOwner, newOwner) */\n  0xffffffffffffffffffffffffffffffffffffffff\n  and\n    /* \"@openzeppelin/contracts/access/Ownable.sol\":3073:3081  oldOwner */\n  dup2\n    /* \"@openzeppelin/contracts/access/Ownable.sol\":3052:3092  OwnershipTransferred(oldOwner, newOwner) */\n  0xffffffffffffffffffffffffffffffffffffffff\n  and\n  0x8be0079c531659141344cd1fd0a4f28419497f9722a3daafe3b4186f6b6457e0\n  mload(0x40)\n  mload(0x40)\n  dup1\n  swap2\n  sub\n  swap1\n  log3\n    /* \"@openzeppelin/contracts/access/Ownable.sol\":2975:3099  {... */\n  pop\n    /* \"@openzeppelin/contracts/access/Ownable.sol\":2912:3099  function _transferOwnership(address newOwner) internal virtual {... */\n  pop\n  jump\t// out\n    /* \"#utility.yul\":88:205   */\ntag_16:\n    /* \"#utility.yul\":197:198   */\n  0x00\n    /* \"#utility.yul\":194:195   */\n  dup1\n    /* \"#utility.yul\":187:199   */\n  revert\n    /* \"#utility.yul\":334:460   */\ntag_18:\n    /* \"#utility.yul\":371:378   */\n  0x00\n    /* \"#utility.yul\":411:453   */\n  0xffffffffffffffffffffffffffffffffffffffff\n    /* \"#utility.yul\":404:409   */\n  dup3\n    /* \"#utility.yul\":400:454   */\n  and\n    /* \"#utility.yul\":389:454   */\n  swap1\n  pop\n    /* \"#utility.yul\":334:460   */\n  swap2\n  swap1\n  pop\n  jump\t// out\n    /* \"#utility.yul\":466:562   */\ntag_19:\n    /* \"#utility.yul\":503:510   */\n  0x00\n    /* \"#utility.yul\":532:556   */\n  tag_29\n    /* \"#utility.yul\":550:555   */\n  dup3\n    /* \"#utility.yul\":532:556   */\n  tag_18\n  jump\t// in\ntag_29:\n    /* \"#utility.yul\":521:556   */\n  swap1\n  pop\n    /* \"#utility.yul\":466:562   */\n  swap2\n  swap1\n  pop\n  jump\t// out\n    /* \"#utility.yul\":568:690   */\ntag_20:\n    /* \"#utility.yul\":641:665   */\n  tag_31\n    /* \"#utility.yul\":659:664   */\n  dup2\n    /* \"#utility.yul\":641:665   */\n  tag_19\n  jump\t// in\ntag_31:\n    /* \"#utility.yul\":634:639   */\n  dup2\n    /* \"#utility.yul\":631:666   */\n  eq\n    /* \"#utility.yul\":621:684   */\n  tag_32\n  jumpi\n    /* \"#utility.yul\":680:681   */\n  0x00\n    /* \"#utility.yul\":677:678   */\n  dup1\n    /* \"#utility.yul\":670:682   */\n  revert\n    /* \"#utility.yul\":621:684   */\ntag_32:\n    /* \"#utility.yul\":568:690   */\n  pop\n  jump\t// out\n    /* \"#utility.yul\":696:839   */\ntag_21:\n    /* \"#utility.yul\":753:758   */\n  0x00\n    /* \"#utility.yul\":784:790   */\n  dup2\n    /* \"#utility.yul\":778:791   */\n  mload\n    /* \"#utility.yul\":769:791   */\n  swap1\n  pop\n    /* \"#utility.yul\":800:833   */\n  tag_34\n    /* \"#utility.yul\":827:832   */\n  dup2\n    /* \"#utility.yul\":800:833   */\n  tag_20\n  jump\t// in\ntag_34:\n    /* \"#utility.yul\":696:839   */\n  swap3\n  swap2\n  pop\n  pop\n  jump\t// out\n    /* \"#utility.yul\":845:1196   */\ntag_3:\n    /* \"#utility.yul\":915:921   */\n  0x00\n    /* \"#utility.yul\":964:966   */\n  0x20\n    /* \"#utility.yul\":952:961   */\n  dup3\n    /* \"#utility.yul\":943:950   */\n  dup5\n    /* \"#utility.yul\":939:962   */\n  sub\n    /* \"#utility.yul\":935:967   */\n  slt\n    /* \"#utility.yul\":932:1051   */\n  iszero\n  tag_36\n  jumpi\n    /* \"#utility.yul\":970:1049   */\n  tag_37\n  tag_16\n  jump\t// in\ntag_37:\n    /* \"#utility.yul\":932:1051   */\ntag_36:\n    /* \"#utility.yul\":1090:1091   */\n  0x00\n    /* \"#utility.yul\":1115:1179   */\n  tag_38\n    /* \"#utility.yul\":1171:1178   */\n  dup5\n    /* \"#utility.yul\":1162:1168   */\n  dup3\n    /* \"#utility.yul\":1151:1160   */\n  dup6\n    /* \"#utility.yul\":1147:1169   */\n  add\n    /* \"#utility.yul\":1115:1179   */\n  tag_21\n  jump\t// in\ntag_38:\n    /* \"#utility.yul\":1105:1179   */\n  swap2\n  pop\n    /* \"#utility.yul\":1061:1189   */\n  pop\n    /* \"#utility.yul\":845:1196   */\n  swap3\n  swap2\n  pop\n  pop\n  jump\t// out\n    /* \"#utility.yul\":1202:1320   */\ntag_22:\n    /* \"#utility.yul\":1289:1313   */\n  tag_40\n    /* \"#utility.yul\":1307:1312   */\n  dup2\n    /* \"#utility.yul\":1289:1313   */\n  tag_19\n  jump\t// in\ntag_40:\n    /* \"#utility.yul\":1284:1287   */\n  dup3\n    /* \"#utility.yul\":1277:1314   */\n  mstore\n    /* \"#utility.yul\":1202:1320   */\n  pop\n  pop\n  jump\t// out\n    /* \"#utility.yul\":1326:1548   */\ntag_9:\n    /* \"#utility.yul\":1419:1423   */\n  0x00\n    /* \"#utility.yul\":1457:1459   */\n  0x20\n    /* \"#utility.yul\":1446:1455   */\n  dup3\n    /* \"#utility.yul\":1442:1460   */\n  add\n    /* \"#utility.yul\":1434:1460   */\n  swap1\n  pop\n    /* \"#utility.yul\":1470:1541   */\n  tag_42\n    /* \"#utility.yul\":1538:1539   */\n  0x00\n    /* \"#utility.yul\":1527:1536   */\n  dup4\n    /* \"#utility.yul\":1523:1540   */\n  add\n    /* \"#utility.yul\":1514:1520   */\n  dup5\n    /* \"#utility.yul\":1470:1541   */\n  tag_22\n  jump\t// in\ntag_42:\n    /* \"#utility.yul\":1326:1548   */\n  swap3\n  swap2\n  pop\n  pop\n  jump\t// out\n    /* \"contracts/Liberswap/swaping.sol\":514:9011  contract TokenSwap is Ownable {... */\ntag_13:\n  dataSize(sub_0)\n  dup1\n  dataOffset(sub_0)\n  0x00\n  codecopy\n  0x00\n  return\nstop\n\nsub_0: assembly {\n        /* \"contracts/Liberswap/swaping.sol\":514:9011  contract TokenSwap is Ownable {... */\n      mstore(0x40, 0x80)\n      callvalue\n      dup1\n      iszero\n      tag_1\n      jumpi\n      0x00\n      dup1\n      revert\n    tag_1:\n      pop\n      jumpi(tag_2, lt(calldatasize, 0x04))\n      shr(0xe0, calldataload(0x00))\n      dup1\n      0xa4329677\n      gt\n      tag_24\n      jumpi\n      dup1\n      0xdf77a3aa\n      gt\n      tag_25\n      jumpi\n      dup1\n      0xdf77a3aa\n      eq\n      tag_18\n      jumpi\n      dup1\n      0xe1ad418e\n      eq\n      tag_19\n      jumpi\n      dup1\n      0xf09f0aac\n      eq\n      tag_20\n      jumpi\n      dup1\n      0xf2fde38b\n      eq\n      tag_21\n      jumpi\n      dup1\n      0xfca0a3d2\n      eq\n      tag_22\n      jumpi\n      dup1\n      0xfd03fe90\n      eq\n      tag_23\n      jumpi\n      jump(tag_2)\n    tag_25:\n      dup1\n      0xa4329677\n      eq\n      tag_13\n      jumpi\n      dup1\n      0xa7f696cf\n      eq\n      tag_14\n      jumpi\n      dup1\n      0xb4a99a4e\n      eq\n      tag_15\n      jumpi\n      dup1\n      0xcb8ff545\n      eq\n      tag_16\n      jumpi\n      dup1\n      0xcdb43478\n      eq\n      tag_17\n      jumpi\n      jump(tag_2)\n    tag_24:\n      dup1\n      0x70181206\n      gt\n      tag_26\n      jumpi\n      dup1\n      0x70181206\n      eq\n      tag_8\n      jumpi\n      dup1\n      0x715018a6\n      eq\n      tag_9\n      jumpi\n      dup1\n      0x8da5cb5b\n      eq\n      tag_10\n      jumpi\n      dup1\n      0x9c2c67c9\n      eq\n      tag_11\n      jumpi\n      dup1\n      0xa3150978\n      eq\n      tag_12\n      jumpi\n      jump(tag_2)\n    tag_26:\n      dup1\n      0x01bf6648\n      eq\n      tag_3\n      jumpi\n      dup1\n      0x1f1a675d\n      eq\n      tag_4\n      jumpi\n      dup1\n      0x2dd91a4c\n      eq\n      tag_5\n      jumpi\n      dup1\n      0x372c12b1\n      eq\n      tag_6\n      jumpi\n      dup1\n      0x6bc20157\n      eq\n      tag_7\n      jumpi\n    tag_2:\n      0x00\n      dup1\n      revert\n        /* \"contracts/Liberswap/swaping.sol\":7050:7228  function removeFromWhiteList(address _address) public onlyOwner {... */\n    tag_3:\n      tag_27\n      0x04\n      dup1\n      calldatasize\n      sub\n      dup2\n      add\n      swap1\n      tag_28\n      swap2\n      swap1\n      tag_29\n      jump\t// in\n    tag_28:\n      tag_30\n      jump\t// in\n    tag_27:\n      stop\n        /* \"contracts/Liberswap/swaping.sol\":1591:1685  mapping (address UserAddress=> mapping (address TokenAddress  => uint)) public userTokenAmount */\n    tag_4:\n      tag_31\n      0x04\n      dup1\n      calldatasize\n      sub\n      dup2\n      add\n      swap1\n      tag_32\n      swap2\n      swap1\n      tag_33\n      jump\t// in\n    tag_32:\n      tag_34\n      jump\t// in\n    tag_31:\n      mload(0x40)\n      tag_35\n      swap2\n      swap1\n      tag_36\n      jump\t// in\n    tag_35:\n      mload(0x40)\n      dup1\n      swap2\n      sub\n      swap1\n      return\n        /* \"contracts/Liberswap/swaping.sol\":2079:2114  uint public overColleteralFeeAmount */\n    tag_5:\n      tag_37\n      tag_38\n      jump\t// in\n    tag_37:\n      mload(0x40)\n      tag_39\n      swap2\n      swap1\n      tag_36\n      jump\t// in\n    tag_39:\n      mload(0x40)\n      dup1\n      swap2\n      sub\n      swap1\n      return\n        /* \"contracts/Liberswap/swaping.sol\":1380:1421  mapping(address => bool) public whiteList */\n    tag_6:\n      tag_40\n      0x04\n      dup1\n      calldatasize\n      sub\n      dup2\n      add\n      swap1\n      tag_41\n      swap2\n      swap1\n      tag_29\n      jump\t// in\n    tag_41:\n      tag_42\n      jump\t// in\n    tag_40:\n      mload(0x40)\n      tag_43\n      swap2\n      swap1\n      tag_44\n      jump\t// in\n    tag_43:\n      mload(0x40)\n      dup1\n      swap2\n      sub\n      swap1\n      return\n        /* \"contracts/Liberswap/swaping.sol\":2544:2759  function WhiteList(address _address) public onlyOwner{... */\n    tag_7:\n      tag_45\n      0x04\n      dup1\n      calldatasize\n      sub\n      dup2\n      add\n      swap1\n      tag_46\n      swap2\n      swap1\n      tag_29\n      jump\t// in\n    tag_46:\n      tag_47\n      jump\t// in\n    tag_45:\n      stop\n        /* \"contracts/Liberswap/swaping.sol\":8049:8228  function holdingOf_USDC(address holder) public view returns (uint holdings) {... */\n    tag_8:\n      tag_48\n      0x04\n      dup1\n      calldatasize\n      sub\n      dup2\n      add\n      swap1\n      tag_49\n      swap2\n      swap1\n      tag_29\n      jump\t// in\n    tag_49:\n      tag_50\n      jump\t// in\n    tag_48:\n      mload(0x40)\n      tag_51\n      swap2\n      swap1\n      tag_36\n      jump\t// in\n    tag_51:\n      mload(0x40)\n      dup1\n      swap2\n      sub\n      swap1\n      return\n        /* \"@openzeppelin/contracts/access/Ownable.sol\":2293:2394  function renounceOwnership() public virtual onlyOwner {... */\n    tag_9:\n      tag_52\n      tag_53\n      jump\t// in\n    tag_52:\n      stop\n        /* \"@openzeppelin/contracts/access/Ownable.sol\":1638:1723  function owner() public view virtual returns (address) {... */\n    tag_10:\n      tag_54\n      tag_55\n      jump\t// in\n    tag_54:\n      mload(0x40)\n      tag_56\n      swap2\n      swap1\n      tag_57\n      jump\t// in\n    tag_56:\n      mload(0x40)\n      dup1\n      swap2\n      sub\n      swap1\n      return\n        /* \"contracts/Liberswap/swaping.sol\":1988:2015  uint public currentHoldings */\n    tag_11:\n      tag_58\n      tag_59\n      jump\t// in\n    tag_58:\n      mload(0x40)\n      tag_60\n      swap2\n      swap1\n      tag_36\n      jump\t// in\n    tag_60:\n      mload(0x40)\n      dup1\n      swap2\n      sub\n      swap1\n      return\n        /* \"contracts/Liberswap/swaping.sol\":7384:7563  function holdingOf_USDT(address holder) public view returns (uint holdings) {... */\n    tag_12:\n      tag_61\n      0x04\n      dup1\n      calldatasize\n      sub\n      dup2\n      add\n      swap1\n      tag_62\n      swap2\n      swap1\n      tag_29\n      jump\t// in\n    tag_62:\n      tag_63\n      jump\t// in\n    tag_61:\n      mload(0x40)\n      tag_64\n      swap2\n      swap1\n      tag_36\n      jump\t// in\n    tag_64:\n      mload(0x40)\n      dup1\n      swap2\n      sub\n      swap1\n      return\n        /* \"contracts/Liberswap/swaping.sol\":8804:9008  function holdingOfTokens(address _ethToken) public view returns (uint holdings) {... */\n    tag_13:\n      tag_65\n      0x04\n      dup1\n      calldatasize\n      sub\n      dup2\n      add\n      swap1\n      tag_66\n      swap2\n      swap1\n      tag_29\n      jump\t// in\n    tag_66:\n      tag_67\n      jump\t// in\n    tag_65:\n      mload(0x40)\n      tag_68\n      swap2\n      swap1\n      tag_36\n      jump\t// in\n    tag_68:\n      mload(0x40)\n      dup1\n      swap2\n      sub\n      swap1\n      return\n        /* \"contracts/Liberswap/swaping.sol\":7717:7893  function holdingOf_DAI(address holder) public view returns (uint holdings) {... */\n    tag_14:\n      tag_69\n      0x04\n      dup1\n      calldatasize\n      sub\n      dup2\n      add\n      swap1\n      tag_70\n      swap2\n      swap1\n      tag_29\n      jump\t// in\n    tag_70:\n      tag_71\n      jump\t// in\n    tag_69:\n      mload(0x40)\n      tag_72\n      swap2\n      swap1\n      tag_36\n      jump\t// in\n    tag_72:\n      mload(0x40)\n      dup1\n      swap2\n      sub\n      swap1\n      return\n        /* \"contracts/Liberswap/swaping.sol\":658:678  address public Owner */\n    tag_15:\n      tag_73\n      tag_74\n      jump\t// in\n    tag_73:\n      mload(0x40)\n      tag_75\n      swap2\n      swap1\n      tag_57\n      jump\t// in\n    tag_75:\n      mload(0x40)\n      dup1\n      swap2\n      sub\n      swap1\n      return\n        /* \"contracts/Liberswap/swaping.sol\":3257:4830  function swapTokens(address _ethToken,uint256 _amount,string memory substrateAddress) public {... */\n    tag_16:\n      tag_76\n      0x04\n      dup1\n      calldatasize\n      sub\n      dup2\n      add\n      swap1\n      tag_77\n      swap2\n      swap1\n      tag_78\n      jump\t// in\n    tag_77:\n      tag_79\n      jump\t// in\n    tag_76:\n      stop\n        /* \"contracts/Liberswap/swaping.sol\":6716:6867  function withdrawBalanceTokens(address _ethToken) public onlyOwner {... */\n    tag_17:\n      tag_80\n      0x04\n      dup1\n      calldatasize\n      sub\n      dup2\n      add\n      swap1\n      tag_81\n      swap2\n      swap1\n      tag_29\n      jump\t// in\n    tag_81:\n      tag_82\n      jump\t// in\n    tag_80:\n      stop\n        /* \"contracts/Liberswap/swaping.sol\":5372:6564  function substrateSwapTokens(address _ethToken,uint256 _amount,address _to) public {... */\n    tag_18:\n      tag_83\n      0x04\n      dup1\n      calldatasize\n      sub\n      dup2\n      add\n      swap1\n      tag_84\n      swap2\n      swap1\n      tag_85\n      jump\t// in\n    tag_84:\n      tag_86\n      jump\t// in\n    tag_83:\n      stop\n        /* \"contracts/Liberswap/swaping.sol\":1691:1746  mapping (address UserAddress => uint) public userAmount */\n    tag_19:\n      tag_87\n      0x04\n      dup1\n      calldatasize\n      sub\n      dup2\n      add\n      swap1\n      tag_88\n      swap2\n      swap1\n      tag_29\n      jump\t// in\n    tag_88:\n      tag_89\n      jump\t// in\n    tag_87:\n      mload(0x40)\n      tag_90\n      swap2\n      swap1\n      tag_36\n      jump\t// in\n    tag_90:\n      mload(0x40)\n      dup1\n      swap2\n      sub\n      swap1\n      return\n        /* \"contracts/Liberswap/swaping.sol\":1489:1522  address[] public whilistedAddress */\n    tag_20:\n      tag_91\n      0x04\n      dup1\n      calldatasize\n      sub\n      dup2\n      add\n      swap1\n      tag_92\n      swap2\n      swap1\n      tag_93\n      jump\t// in\n    tag_92:\n      tag_94\n      jump\t// in\n    tag_91:\n      mload(0x40)\n      tag_95\n      swap2\n      swap1\n      tag_57\n      jump\t// in\n    tag_95:\n      mload(0x40)\n      dup1\n      swap2\n      sub\n      swap1\n      return\n        /* \"@openzeppelin/contracts/access/Ownable.sol\":2543:2758  function transferOwnership(address newOwner) public virtual onlyOwner {... */\n    tag_21:\n      tag_96\n      0x04\n      dup1\n      calldatasize\n      sub\n      dup2\n      add\n      swap1\n      tag_97\n      swap2\n      swap1\n      tag_29\n      jump\t// in\n    tag_97:\n      tag_98\n      jump\t// in\n    tag_96:\n      stop\n        /* \"contracts/Liberswap/swaping.sol\":8384:8563  function holdingOf_USDM(address holder) public view returns (uint holdings) {... */\n    tag_22:\n      tag_99\n      0x04\n      dup1\n      calldatasize\n      sub\n      dup2\n      add\n      swap1\n      tag_100\n      swap2\n      swap1\n      tag_29\n      jump\t// in\n    tag_100:\n      tag_101\n      jump\t// in\n    tag_99:\n      mload(0x40)\n      tag_102\n      swap2\n      swap1\n      tag_36\n      jump\t// in\n    tag_102:\n      mload(0x40)\n      dup1\n      swap2\n      sub\n      swap1\n      return\n        /* \"contracts/Liberswap/swaping.sol\":1832:1923  mapping (address UserAddress =>  mapping(string => uint Amount)) public userTotalSwapAmount */\n    tag_23:\n      tag_103\n      0x04\n      dup1\n      calldatasize\n      sub\n      dup2\n      add\n      swap1\n      tag_104\n      swap2\n      swap1\n      tag_105\n      jump\t// in\n    tag_104:\n      tag_106\n      jump\t// in\n    tag_103:\n      mload(0x40)\n      tag_107\n      swap2\n      swap1\n      tag_36\n      jump\t// in\n    tag_107:\n      mload(0x40)\n      dup1\n      swap2\n      sub\n      swap1\n      return\n        /* \"contracts/Liberswap/swaping.sol\":7050:7228  function removeFromWhiteList(address _address) public onlyOwner {... */\n    tag_30:\n        /* \"@openzeppelin/contracts/access/Ownable.sol\":1531:1544  _checkOwner() */\n      tag_109\n        /* \"@openzeppelin/contracts/access/Ownable.sol\":1531:1542  _checkOwner */\n      tag_110\n        /* \"@openzeppelin/contracts/access/Ownable.sol\":1531:1544  _checkOwner() */\n      jump\t// in\n    tag_109:\n        /* \"contracts/Liberswap/swaping.sol\":7132:7141  whiteList */\n      0x02\n        /* \"contracts/Liberswap/swaping.sol\":7132:7151  whiteList[_address] */\n      0x00\n        /* \"contracts/Liberswap/swaping.sol\":7142:7150  _address */\n      dup3\n        /* \"contracts/Liberswap/swaping.sol\":7132:7151  whiteList[_address] */\n      0xffffffffffffffffffffffffffffffffffffffff\n      and\n      0xffffffffffffffffffffffffffffffffffffffff\n      and\n      dup2\n      mstore\n      0x20\n      add\n      swap1\n      dup2\n      mstore\n      0x20\n      add\n      0x00\n      keccak256\n      0x00\n      swap1\n      sload\n      swap1\n      0x0100\n      exp\n      swap1\n      div\n      0xff\n      and\n        /* \"contracts/Liberswap/swaping.sol\":7124:7184  require(whiteList[_address], \"This Address does not exist!\") */\n      tag_112\n      jumpi\n      mload(0x40)\n      0x08c379a000000000000000000000000000000000000000000000000000000000\n      dup2\n      mstore\n      0x04\n      add\n      tag_113\n      swap1\n      tag_114\n      jump\t// in\n    tag_113:\n      mload(0x40)\n      dup1\n      swap2\n      sub\n      swap1\n      revert\n    tag_112:\n        /* \"contracts/Liberswap/swaping.sol\":7216:7221  false */\n      0x00\n        /* \"contracts/Liberswap/swaping.sol\":7194:7203  whiteList */\n      0x02\n        /* \"contracts/Liberswap/swaping.sol\":7194:7213  whiteList[_address] */\n      0x00\n        /* \"contracts/Liberswap/swaping.sol\":7204:7212  _address */\n      dup4\n        /* \"contracts/Liberswap/swaping.sol\":7194:7213  whiteList[_address] */\n      0xffffffffffffffffffffffffffffffffffffffff\n      and\n      0xffffffffffffffffffffffffffffffffffffffff\n      and\n      dup2\n      mstore\n      0x20\n      add\n      swap1\n      dup2\n      mstore\n      0x20\n      add\n      0x00\n      keccak256\n      0x00\n        /* \"contracts/Liberswap/swaping.sol\":7194:7221  whiteList[_address] = false */\n      0x0100\n      exp\n      dup2\n      sload\n      dup2\n      0xff\n      mul\n      not\n      and\n      swap1\n      dup4\n      iszero\n      iszero\n      mul\n      or\n      swap1\n      sstore\n      pop\n        /* \"contracts/Liberswap/swaping.sol\":7050:7228  function removeFromWhiteList(address _address) public onlyOwner {... */\n      pop\n      jump\t// out\n        /* \"contracts/Liberswap/swaping.sol\":1591:1685  mapping (address UserAddress=> mapping (address TokenAddress  => uint)) public userTokenAmount */\n    tag_34:\n      mstore(0x20, 0x04)\n      dup2\n      0x00\n      mstore\n      mstore(0x20, keccak256(0x00, 0x40))\n      dup1\n      0x00\n      mstore\n      keccak256(0x00, 0x40)\n      0x00\n      swap2\n      pop\n      swap2\n      pop\n      pop\n      sload\n      dup2\n      jump\t// out\n        /* \"contracts/Liberswap/swaping.sol\":2079:2114  uint public overColleteralFeeAmount */\n    tag_38:\n      sload(0x08)\n      dup2\n      jump\t// out\n        /* \"contracts/Liberswap/swaping.sol\":1380:1421  mapping(address => bool) public whiteList */\n    tag_42:\n      mstore(0x20, 0x02)\n      dup1\n      0x00\n      mstore\n      keccak256(0x00, 0x40)\n      0x00\n      swap2\n      pop\n      sload\n      swap1\n      0x0100\n      exp\n      swap1\n      div\n      0xff\n      and\n      dup2\n      jump\t// out\n        /* \"contracts/Liberswap/swaping.sol\":2544:2759  function WhiteList(address _address) public onlyOwner{... */\n    tag_47:\n        /* \"@openzeppelin/contracts/access/Ownable.sol\":1531:1544  _checkOwner() */\n      tag_116\n        /* \"@openzeppelin/contracts/access/Ownable.sol\":1531:1542  _checkOwner */\n      tag_110\n        /* \"@openzeppelin/contracts/access/Ownable.sol\":1531:1544  _checkOwner() */\n      jump\t// in\n    tag_116:\n        /* \"contracts/Liberswap/swaping.sol\":2616:2625  whiteList */\n      0x02\n        /* \"contracts/Liberswap/swaping.sol\":2616:2635  whiteList[_address] */\n      0x00\n        /* \"contracts/Liberswap/swaping.sol\":2626:2634  _address */\n      dup3\n        /* \"contracts/Liberswap/swaping.sol\":2616:2635  whiteList[_address] */\n      0xffffffffffffffffffffffffffffffffffffffff\n      and\n      0xffffffffffffffffffffffffffffffffffffffff\n      and\n      dup2\n      mstore\n      0x20\n      add\n      swap1\n      dup2\n      mstore\n      0x20\n      add\n      0x00\n      keccak256\n      0x00\n      swap1\n      sload\n      swap1\n      0x0100\n      exp\n      swap1\n      div\n      0xff\n      and\n        /* \"contracts/Liberswap/swaping.sol\":2615:2635  !whiteList[_address] */\n      iszero\n        /* \"contracts/Liberswap/swaping.sol\":2607:2675  require(!whiteList[_address],\"This Address is already WhiteListed!\") */\n      tag_118\n      jumpi\n      mload(0x40)\n      0x08c379a000000000000000000000000000000000000000000000000000000000\n      dup2\n      mstore\n      0x04\n      add\n      tag_119\n      swap1\n      tag_120\n      jump\t// in\n    tag_119:\n      mload(0x40)\n      dup1\n      swap2\n      sub\n      swap1\n      revert\n    tag_118:\n        /* \"contracts/Liberswap/swaping.sol\":2685:2701  whilistedAddress */\n      0x03\n        /* \"contracts/Liberswap/swaping.sol\":2707:2715  _address */\n      dup2\n        /* \"contracts/Liberswap/swaping.sol\":2685:2716  whilistedAddress.push(_address) */\n      swap1\n      dup1\n      0x01\n      dup2\n      sload\n      add\n      dup1\n      dup3\n      sstore\n      dup1\n      swap2\n      pop\n      pop\n      0x01\n      swap1\n      sub\n      swap1\n      0x00\n      mstore\n      keccak256(0x00, 0x20)\n      add\n      0x00\n      swap1\n      swap2\n      swap1\n      swap2\n      swap1\n      swap2\n      0x0100\n      exp\n      dup2\n      sload\n      dup2\n      0xffffffffffffffffffffffffffffffffffffffff\n      mul\n      not\n      and\n      swap1\n      dup4\n      0xffffffffffffffffffffffffffffffffffffffff\n      and\n      mul\n      or\n      swap1\n      sstore\n      pop\n        /* \"contracts/Liberswap/swaping.sol\":2748:2752  true */\n      0x01\n        /* \"contracts/Liberswap/swaping.sol\":2726:2735  whiteList */\n      0x02\n        /* \"contracts/Liberswap/swaping.sol\":2726:2745  whiteList[_address] */\n      0x00\n        /* \"contracts/Liberswap/swaping.sol\":2736:2744  _address */\n      dup4\n        /* \"contracts/Liberswap/swaping.sol\":2726:2745  whiteList[_address] */\n      0xffffffffffffffffffffffffffffffffffffffff\n      and\n      0xffffffffffffffffffffffffffffffffffffffff\n      and\n      dup2\n      mstore\n      0x20\n      add\n      swap1\n      dup2\n      mstore\n      0x20\n      add\n      0x00\n      keccak256\n      0x00\n        /* \"contracts/Liberswap/swaping.sol\":2726:2752  whiteList[_address] = true */\n      0x0100\n      exp\n      dup2\n      sload\n      dup2\n      0xff\n      mul\n      not\n      and\n      swap1\n      dup4\n      iszero\n      iszero\n      mul\n      or\n      swap1\n      sstore\n      pop\n        /* \"contracts/Liberswap/swaping.sol\":2544:2759  function WhiteList(address _address) public onlyOwner{... */\n      pop\n      jump\t// out\n        /* \"contracts/Liberswap/swaping.sol\":8049:8228  function holdingOf_USDC(address holder) public view returns (uint holdings) {... */\n    tag_50:\n        /* \"contracts/Liberswap/swaping.sol\":8110:8123  uint holdings */\n      0x00\n        /* \"contracts/Liberswap/swaping.sol\":8142:8157  userTokenAmount */\n      0x04\n        /* \"contracts/Liberswap/swaping.sol\":8142:8165  userTokenAmount[holder] */\n      0x00\n        /* \"contracts/Liberswap/swaping.sol\":8158:8164  holder */\n      dup4\n        /* \"contracts/Liberswap/swaping.sol\":8142:8165  userTokenAmount[holder] */\n      0xffffffffffffffffffffffffffffffffffffffff\n      and\n      0xffffffffffffffffffffffffffffffffffffffff\n      and\n      dup2\n      mstore\n      0x20\n      add\n      swap1\n      dup2\n      mstore\n      0x20\n      add\n      0x00\n      keccak256\n        /* \"contracts/Liberswap/swaping.sol\":8142:8171  userTokenAmount[holder][usdc] */\n      0x00\n        /* \"contracts/Liberswap/swaping.sol\":1142:1184  0x9951342D994001468506DF88F71A582867B50dd4 */\n      0x9951342d994001468506df88f71a582867b50dd4\n        /* \"contracts/Liberswap/swaping.sol\":8142:8171  userTokenAmount[holder][usdc] */\n      0xffffffffffffffffffffffffffffffffffffffff\n      and\n      0xffffffffffffffffffffffffffffffffffffffff\n      and\n      dup2\n      mstore\n      0x20\n      add\n      swap1\n      dup2\n      mstore\n      0x20\n      add\n      0x00\n      keccak256\n      sload\n        /* \"contracts/Liberswap/swaping.sol\":8135:8171  return userTokenAmount[holder][usdc] */\n      swap1\n      pop\n        /* \"contracts/Liberswap/swaping.sol\":8049:8228  function holdingOf_USDC(address holder) public view returns (uint holdings) {... */\n      swap2\n      swap1\n      pop\n      jump\t// out\n        /* \"@openzeppelin/contracts/access/Ownable.sol\":2293:2394  function renounceOwnership() public virtual onlyOwner {... */\n    tag_53:\n        /* \"@openzeppelin/contracts/access/Ownable.sol\":1531:1544  _checkOwner() */\n      tag_124\n        /* \"@openzeppelin/contracts/access/Ownable.sol\":1531:1542  _checkOwner */\n      tag_110\n        /* \"@openzeppelin/contracts/access/Ownable.sol\":1531:1544  _checkOwner() */\n      jump\t// in\n    tag_124:\n        /* \"@openzeppelin/contracts/access/Ownable.sol\":2357:2387  _transferOwnership(address(0)) */\n      tag_126\n        /* \"@openzeppelin/contracts/access/Ownable.sol\":2384:2385  0 */\n      0x00\n        /* \"@openzeppelin/contracts/access/Ownable.sol\":2357:2375  _transferOwnership */\n      tag_127\n        /* \"@openzeppelin/contracts/access/Ownable.sol\":2357:2387  _transferOwnership(address(0)) */\n      jump\t// in\n    tag_126:\n        /* \"@openzeppelin/contracts/access/Ownable.sol\":2293:2394  function renounceOwnership() public virtual onlyOwner {... */\n      jump\t// out\n        /* \"@openzeppelin/contracts/access/Ownable.sol\":1638:1723  function owner() public view virtual returns (address) {... */\n    tag_55:\n        /* \"@openzeppelin/contracts/access/Ownable.sol\":1684:1691  address */\n      0x00\n        /* \"@openzeppelin/contracts/access/Ownable.sol\":1710:1716  _owner */\n      dup1\n      0x00\n      swap1\n      sload\n      swap1\n      0x0100\n      exp\n      swap1\n      div\n      0xffffffffffffffffffffffffffffffffffffffff\n      and\n        /* \"@openzeppelin/contracts/access/Ownable.sol\":1703:1716  return _owner */\n      swap1\n      pop\n        /* \"@openzeppelin/contracts/access/Ownable.sol\":1638:1723  function owner() public view virtual returns (address) {... */\n      swap1\n      jump\t// out\n        /* \"contracts/Liberswap/swaping.sol\":1988:2015  uint public currentHoldings */\n    tag_59:\n      sload(0x07)\n      dup2\n      jump\t// out\n        /* \"contracts/Liberswap/swaping.sol\":7384:7563  function holdingOf_USDT(address holder) public view returns (uint holdings) {... */\n    tag_63:\n        /* \"contracts/Liberswap/swaping.sol\":7445:7458  uint holdings */\n      0x00\n        /* \"contracts/Liberswap/swaping.sol\":7477:7492  userTokenAmount */\n      0x04\n        /* \"contracts/Liberswap/swaping.sol\":7477:7500  userTokenAmount[holder] */\n      0x00\n        /* \"contracts/Liberswap/swaping.sol\":7493:7499  holder */\n      dup4\n        /* \"contracts/Liberswap/swaping.sol\":7477:7500  userTokenAmount[holder] */\n      0xffffffffffffffffffffffffffffffffffffffff\n      and\n      0xffffffffffffffffffffffffffffffffffffffff\n      and\n      dup2\n      mstore\n      0x20\n      add\n      swap1\n      dup2\n      mstore\n      0x20\n      add\n      0x00\n      keccak256\n        /* \"contracts/Liberswap/swaping.sol\":7477:7506  userTokenAmount[holder][usdt] */\n      0x00\n        /* \"contracts/Liberswap/swaping.sol\":1070:1112  0xa5014eA627Ac22A63f2Bf3b46e26d408e72f55c1 */\n      0xa5014ea627ac22a63f2bf3b46e26d408e72f55c1\n        /* \"contracts/Liberswap/swaping.sol\":7477:7506  userTokenAmount[holder][usdt] */\n      0xffffffffffffffffffffffffffffffffffffffff\n      and\n      0xffffffffffffffffffffffffffffffffffffffff\n      and\n      dup2\n      mstore\n      0x20\n      add\n      swap1\n      dup2\n      mstore\n      0x20\n      add\n      0x00\n      keccak256\n      sload\n        /* \"contracts/Liberswap/swaping.sol\":7470:7506  return userTokenAmount[holder][usdt] */\n      swap1\n      pop\n        /* \"contracts/Liberswap/swaping.sol\":7384:7563  function holdingOf_USDT(address holder) public view returns (uint holdings) {... */\n      swap2\n      swap1\n      pop\n      jump\t// out\n        /* \"contracts/Liberswap/swaping.sol\":8804:9008  function holdingOfTokens(address _ethToken) public view returns (uint holdings) {... */\n    tag_67:\n        /* \"contracts/Liberswap/swaping.sol\":8869:8882  uint holdings */\n      0x00\n        /* \"contracts/Liberswap/swaping.sol\":8901:8916  userTokenAmount */\n      0x04\n        /* \"contracts/Liberswap/swaping.sol\":8901:8928  userTokenAmount[msg.sender] */\n      0x00\n        /* \"contracts/Liberswap/swaping.sol\":8917:8927  msg.sender */\n      caller\n        /* \"contracts/Liberswap/swaping.sol\":8901:8928  userTokenAmount[msg.sender] */\n      0xffffffffffffffffffffffffffffffffffffffff\n      and\n      0xffffffffffffffffffffffffffffffffffffffff\n      and\n      dup2\n      mstore\n      0x20\n      add\n      swap1\n      dup2\n      mstore\n      0x20\n      add\n      0x00\n      keccak256\n        /* \"contracts/Liberswap/swaping.sol\":8901:8939  userTokenAmount[msg.sender][_ethToken] */\n      0x00\n        /* \"contracts/Liberswap/swaping.sol\":8929:8938  _ethToken */\n      dup4\n        /* \"contracts/Liberswap/swaping.sol\":8901:8939  userTokenAmount[msg.sender][_ethToken] */\n      0xffffffffffffffffffffffffffffffffffffffff\n      and\n      0xffffffffffffffffffffffffffffffffffffffff\n      and\n      dup2\n      mstore\n      0x20\n      add\n      swap1\n      dup2\n      mstore\n      0x20\n      add\n      0x00\n      keccak256\n      sload\n        /* \"contracts/Liberswap/swaping.sol\":8894:8939  return userTokenAmount[msg.sender][_ethToken] */\n      swap1\n      pop\n        /* \"contracts/Liberswap/swaping.sol\":8804:9008  function holdingOfTokens(address _ethToken) public view returns (uint holdings) {... */\n      swap2\n      swap1\n      pop\n      jump\t// out\n        /* \"contracts/Liberswap/swaping.sol\":7717:7893  function holdingOf_DAI(address holder) public view returns (uint holdings) {... */\n    tag_71:\n        /* \"contracts/Liberswap/swaping.sol\":7777:7790  uint holdings */\n      0x00\n        /* \"contracts/Liberswap/swaping.sol\":7809:7824  userTokenAmount */\n      0x04\n        /* \"contracts/Liberswap/swaping.sol\":7809:7832  userTokenAmount[holder] */\n      0x00\n        /* \"contracts/Liberswap/swaping.sol\":7825:7831  holder */\n      dup4\n        /* \"contracts/Liberswap/swaping.sol\":7809:7832  userTokenAmount[holder] */\n      0xffffffffffffffffffffffffffffffffffffffff\n      and\n      0xffffffffffffffffffffffffffffffffffffffff\n      and\n      dup2\n      mstore\n      0x20\n      add\n      swap1\n      dup2\n      mstore\n      0x20\n      add\n      0x00\n      keccak256\n        /* \"contracts/Liberswap/swaping.sol\":7809:7837  userTokenAmount[holder][dai] */\n      0x00\n        /* \"contracts/Liberswap/swaping.sol\":1213:1255  0x77F146ca2943294CC53e6c3B5980B572c961ae23 */\n      0x77f146ca2943294cc53e6c3b5980b572c961ae23\n        /* \"contracts/Liberswap/swaping.sol\":7809:7837  userTokenAmount[holder][dai] */\n      0xffffffffffffffffffffffffffffffffffffffff\n      and\n      0xffffffffffffffffffffffffffffffffffffffff\n      and\n      dup2\n      mstore\n      0x20\n      add\n      swap1\n      dup2\n      mstore\n      0x20\n      add\n      0x00\n      keccak256\n      sload\n        /* \"contracts/Liberswap/swaping.sol\":7802:7837  return userTokenAmount[holder][dai] */\n      swap1\n      pop\n        /* \"contracts/Liberswap/swaping.sol\":7717:7893  function holdingOf_DAI(address holder) public view returns (uint holdings) {... */\n      swap2\n      swap1\n      pop\n      jump\t// out\n        /* \"contracts/Liberswap/swaping.sol\":658:678  address public Owner */\n    tag_74:\n      0x01\n      0x00\n      swap1\n      sload\n      swap1\n      0x0100\n      exp\n      swap1\n      div\n      0xffffffffffffffffffffffffffffffffffffffff\n      and\n      dup2\n      jump\t// out\n        /* \"contracts/Liberswap/swaping.sol\":3257:4830  function swapTokens(address _ethToken,uint256 _amount,string memory substrateAddress) public {... */\n    tag_79:\n        /* \"contracts/Liberswap/swaping.sol\":3426:3433  _amount */\n      dup2\n        /* \"contracts/Liberswap/swaping.sol\":3375:3384  _ethToken */\n      dup4\n        /* \"contracts/Liberswap/swaping.sol\":3368:3395  IERC20(_ethToken).allowance */\n      0xffffffffffffffffffffffffffffffffffffffff\n      and\n      0xdd62ed3e\n        /* \"contracts/Liberswap/swaping.sol\":3396:3406  msg.sender */\n      caller\n        /* \"contracts/Liberswap/swaping.sol\":3416:3420  this */\n      address\n        /* \"contracts/Liberswap/swaping.sol\":3368:3422  IERC20(_ethToken).allowance(msg.sender, address(this)) */\n      mload(0x40)\n      dup4\n      0xffffffff\n      and\n      0xe0\n      shl\n      dup2\n      mstore\n      0x04\n      add\n      tag_133\n      swap3\n      swap2\n      swap1\n      tag_134\n      jump\t// in\n    tag_133:\n      0x20\n      mload(0x40)\n      dup1\n      dup4\n      sub\n      dup2\n      dup7\n      gas\n      staticcall\n      iszero\n      dup1\n      iszero\n      tag_136\n      jumpi\n      returndatasize\n      0x00\n      dup1\n      returndatacopy\n      revert(0x00, returndatasize)\n    tag_136:\n      pop\n      pop\n      pop\n      pop\n      mload(0x40)\n      returndatasize\n      not(0x1f)\n      0x1f\n      dup3\n      add\n      and\n      dup3\n      add\n      dup1\n      0x40\n      mstore\n      pop\n      dup2\n      add\n      swap1\n      tag_137\n      swap2\n      swap1\n      tag_138\n      jump\t// in\n    tag_137:\n        /* \"contracts/Liberswap/swaping.sol\":3368:3433  IERC20(_ethToken).allowance(msg.sender, address(this)) >= _amount */\n      lt\n      iszero\n        /* \"contracts/Liberswap/swaping.sol\":3360:3455  require(IERC20(_ethToken).allowance(msg.sender, address(this)) >= _amount, \"Allowance not set\") */\n      tag_139\n      jumpi\n      mload(0x40)\n      0x08c379a000000000000000000000000000000000000000000000000000000000\n      dup2\n      mstore\n      0x04\n      add\n      tag_140\n      swap1\n      tag_141\n      jump\t// in\n    tag_140:\n      mload(0x40)\n      dup1\n      swap2\n      sub\n      swap1\n      revert\n    tag_139:\n        /* \"contracts/Liberswap/swaping.sol\":3516:3523  _amount */\n      dup2\n        /* \"contracts/Liberswap/swaping.sol\":3480:3489  _ethToken */\n      dup4\n        /* \"contracts/Liberswap/swaping.sol\":3473:3500  IERC20(_ethToken).balanceOf */\n      0xffffffffffffffffffffffffffffffffffffffff\n      and\n      0x70a08231\n        /* \"contracts/Liberswap/swaping.sol\":3501:3511  msg.sender */\n      caller\n        /* \"contracts/Liberswap/swaping.sol\":3473:3512  IERC20(_ethToken).balanceOf(msg.sender) */\n      mload(0x40)\n      dup3\n      0xffffffff\n      and\n      0xe0\n      shl\n      dup2\n      mstore\n      0x04\n      add\n      tag_142\n      swap2\n      swap1\n      tag_57\n      jump\t// in\n    tag_142:\n      0x20\n      mload(0x40)\n      dup1\n      dup4\n      sub\n      dup2\n      dup7\n      gas\n      staticcall\n      iszero\n      dup1\n      iszero\n      tag_144\n      jumpi\n      returndatasize\n      0x00\n      dup1\n      returndatacopy\n      revert(0x00, returndatasize)\n    tag_144:\n      pop\n      pop\n      pop\n      pop\n      mload(0x40)\n      returndatasize\n      not(0x1f)\n      0x1f\n      dup3\n      add\n      and\n      dup3\n      add\n      dup1\n      0x40\n      mstore\n      pop\n      dup2\n      add\n      swap1\n      tag_145\n      swap2\n      swap1\n      tag_138\n      jump\t// in\n    tag_145:\n        /* \"contracts/Liberswap/swaping.sol\":3473:3523  IERC20(_ethToken).balanceOf(msg.sender) >= _amount */\n      lt\n      iszero\n        /* \"contracts/Liberswap/swaping.sol\":3465:3548  require(IERC20(_ethToken).balanceOf(msg.sender) >= _amount, \"Insufficient balance\") */\n      tag_146\n      jumpi\n      mload(0x40)\n      0x08c379a000000000000000000000000000000000000000000000000000000000\n      dup2\n      mstore\n      0x04\n      add\n      tag_147\n      swap1\n      tag_148\n      jump\t// in\n    tag_147:\n      mload(0x40)\n      dup1\n      swap2\n      sub\n      swap1\n      revert\n    tag_146:\n        /* \"contracts/Liberswap/swaping.sol\":1285:1327  0x4b3a514Dd71850277bBa82491f26dACDF089cb68 */\n      0x4b3a514dd71850277bba82491f26dacdf089cb68\n        /* \"contracts/Liberswap/swaping.sol\":3561:3578  _ethToken == usdm */\n      0xffffffffffffffffffffffffffffffffffffffff\n      and\n        /* \"contracts/Liberswap/swaping.sol\":3561:3570  _ethToken */\n      dup4\n        /* \"contracts/Liberswap/swaping.sol\":3561:3578  _ethToken == usdm */\n      0xffffffffffffffffffffffffffffffffffffffff\n      and\n      sub\n        /* \"contracts/Liberswap/swaping.sol\":3558:4816  if(_ethToken == usdm){... */\n      tag_149\n      jumpi\n        /* \"contracts/Liberswap/swaping.sol\":3600:3609  _ethToken */\n      dup3\n        /* \"contracts/Liberswap/swaping.sol\":3593:3623  IERC20(_ethToken).transferFrom */\n      0xffffffffffffffffffffffffffffffffffffffff\n      and\n      0x23b872dd\n        /* \"contracts/Liberswap/swaping.sol\":3624:3634  msg.sender */\n      caller\n        /* \"contracts/Liberswap/swaping.sol\":3644:3648  this */\n      address\n        /* \"contracts/Liberswap/swaping.sol\":3652:3659  _amount */\n      dup6\n        /* \"contracts/Liberswap/swaping.sol\":3593:3661  IERC20(_ethToken).transferFrom(msg.sender, address(this), (_amount)) */\n      mload(0x40)\n      dup5\n      0xffffffff\n      and\n      0xe0\n      shl\n      dup2\n      mstore\n      0x04\n      add\n      tag_150\n      swap4\n      swap3\n      swap2\n      swap1\n      tag_151\n      jump\t// in\n    tag_150:\n      0x20\n      mload(0x40)\n      dup1\n      dup4\n      sub\n      dup2\n      0x00\n      dup8\n      gas\n      call\n      iszero\n      dup1\n      iszero\n      tag_153\n      jumpi\n      returndatasize\n      0x00\n      dup1\n      returndatacopy\n      revert(0x00, returndatasize)\n    tag_153:\n      pop\n      pop\n      pop\n      pop\n      mload(0x40)\n      returndatasize\n      not(0x1f)\n      0x1f\n      dup3\n      add\n      and\n      dup3\n      add\n      dup1\n      0x40\n      mstore\n      pop\n      dup2\n      add\n      swap1\n      tag_154\n      swap2\n      swap1\n      tag_155\n      jump\t// in\n    tag_154:\n      pop\n        /* \"contracts/Liberswap/swaping.sol\":3695:3702  _amount */\n      dup2\n        /* \"contracts/Liberswap/swaping.sol\":3675:3690  currentHoldings */\n      0x07\n      0x00\n        /* \"contracts/Liberswap/swaping.sol\":3675:3703  currentHoldings += (_amount) */\n      dup3\n      dup3\n      sload\n      tag_156\n      swap2\n      swap1\n      tag_157\n      jump\t// in\n    tag_156:\n      swap3\n      pop\n      pop\n      dup2\n      swap1\n      sstore\n      pop\n        /* \"contracts/Liberswap/swaping.sol\":3742:3749  _amount */\n      dup2\n        /* \"contracts/Liberswap/swaping.sol\":3717:3727  userAmount */\n      0x05\n        /* \"contracts/Liberswap/swaping.sol\":3717:3739  userAmount[msg.sender] */\n      0x00\n        /* \"contracts/Liberswap/swaping.sol\":3728:3738  msg.sender */\n      caller\n        /* \"contracts/Liberswap/swaping.sol\":3717:3739  userAmount[msg.sender] */\n      0xffffffffffffffffffffffffffffffffffffffff\n      and\n      0xffffffffffffffffffffffffffffffffffffffff\n      and\n      dup2\n      mstore\n      0x20\n      add\n      swap1\n      dup2\n      mstore\n      0x20\n      add\n      0x00\n      keccak256\n        /* \"contracts/Liberswap/swaping.sol\":3717:3749  userAmount[msg.sender] = _amount */\n      dup2\n      swap1\n      sstore\n      pop\n        /* \"contracts/Liberswap/swaping.sol\":3816:3823  _amount */\n      dup2\n        /* \"contracts/Liberswap/swaping.sol\":3763:3782  userTotalSwapAmount */\n      0x06\n        /* \"contracts/Liberswap/swaping.sol\":3763:3794  userTotalSwapAmount[msg.sender] */\n      0x00\n        /* \"contracts/Liberswap/swaping.sol\":3783:3793  msg.sender */\n      caller\n        /* \"contracts/Liberswap/swaping.sol\":3763:3794  userTotalSwapAmount[msg.sender] */\n      0xffffffffffffffffffffffffffffffffffffffff\n      and\n      0xffffffffffffffffffffffffffffffffffffffff\n      and\n      dup2\n      mstore\n      0x20\n      add\n      swap1\n      dup2\n      mstore\n      0x20\n      add\n      0x00\n      keccak256\n        /* \"contracts/Liberswap/swaping.sol\":3795:3811  substrateAddress */\n      dup3\n        /* \"contracts/Liberswap/swaping.sol\":3763:3812  userTotalSwapAmount[msg.sender][substrateAddress] */\n      mload(0x40)\n      tag_158\n      swap2\n      swap1\n      tag_159\n      jump\t// in\n    tag_158:\n      swap1\n      dup2\n      mstore\n      0x20\n      add\n      mload(0x40)\n      dup1\n      swap2\n      sub\n      swap1\n      keccak256\n      0x00\n        /* \"contracts/Liberswap/swaping.sol\":3763:3823  userTotalSwapAmount[msg.sender][substrateAddress] += _amount */\n      dup3\n      dup3\n      sload\n      tag_160\n      swap2\n      swap1\n      tag_157\n      jump\t// in\n    tag_160:\n      swap3\n      pop\n      pop\n      dup2\n      swap1\n      sstore\n      pop\n        /* \"contracts/Liberswap/swaping.sol\":3879:3886  _amount */\n      dup2\n        /* \"contracts/Liberswap/swaping.sol\":3837:3852  userTokenAmount */\n      0x04\n        /* \"contracts/Liberswap/swaping.sol\":3837:3864  userTokenAmount[msg.sender] */\n      0x00\n        /* \"contracts/Liberswap/swaping.sol\":3853:3863  msg.sender */\n      caller\n        /* \"contracts/Liberswap/swaping.sol\":3837:3864  userTokenAmount[msg.sender] */\n      0xffffffffffffffffffffffffffffffffffffffff\n      and\n      0xffffffffffffffffffffffffffffffffffffffff\n      and\n      dup2\n      mstore\n      0x20\n      add\n      swap1\n      dup2\n      mstore\n      0x20\n      add\n      0x00\n      keccak256\n        /* \"contracts/Liberswap/swaping.sol\":3837:3875  userTokenAmount[msg.sender][_ethToken] */\n      0x00\n        /* \"contracts/Liberswap/swaping.sol\":3865:3874  _ethToken */\n      dup6\n        /* \"contracts/Liberswap/swaping.sol\":3837:3875  userTokenAmount[msg.sender][_ethToken] */\n      0xffffffffffffffffffffffffffffffffffffffff\n      and\n      0xffffffffffffffffffffffffffffffffffffffff\n      and\n      dup2\n      mstore\n      0x20\n      add\n      swap1\n      dup2\n      mstore\n      0x20\n      add\n      0x00\n      keccak256\n      0x00\n        /* \"contracts/Liberswap/swaping.sol\":3837:3886  userTokenAmount[msg.sender][_ethToken] += _amount */\n      dup3\n      dup3\n      sload\n      tag_161\n      swap2\n      swap1\n      tag_157\n      jump\t// in\n    tag_161:\n      swap3\n      pop\n      pop\n      dup2\n      swap1\n      sstore\n      pop\n        /* \"contracts/Liberswap/swaping.sol\":3905:3934  swapToken(msg.sender,_amount) */\n      0xcc87ab2abfe87b272af9b77691e40b3d9186a0431f3d41a8e06d39614f460722\n        /* \"contracts/Liberswap/swaping.sol\":3915:3925  msg.sender */\n      caller\n        /* \"contracts/Liberswap/swaping.sol\":3926:3933  _amount */\n      dup4\n        /* \"contracts/Liberswap/swaping.sol\":3905:3934  swapToken(msg.sender,_amount) */\n      mload(0x40)\n      tag_162\n      swap3\n      swap2\n      swap1\n      tag_163\n      jump\t// in\n    tag_162:\n      mload(0x40)\n      dup1\n      swap2\n      sub\n      swap1\n      log1\n        /* \"contracts/Liberswap/swaping.sol\":3558:4816  if(_ethToken == usdm){... */\n      jump(tag_164)\n    tag_149:\n        /* \"contracts/Liberswap/swaping.sol\":4010:4014  1000 */\n      0x03e8\n        /* \"contracts/Liberswap/swaping.sol\":4007:4008  3 */\n      0x03\n        /* \"contracts/Liberswap/swaping.sol\":3999:4006  _amount */\n      dup4\n        /* \"contracts/Liberswap/swaping.sol\":3999:4008  _amount*3 */\n      tag_165\n      swap2\n      swap1\n      tag_166\n      jump\t// in\n    tag_165:\n        /* \"contracts/Liberswap/swaping.sol\":3998:4014  (_amount*3)/1000 */\n      tag_167\n      swap2\n      swap1\n      tag_168\n      jump\t// in\n    tag_167:\n        /* \"contracts/Liberswap/swaping.sol\":3972:3995  overColleteralFeeAmount */\n      0x08\n        /* \"contracts/Liberswap/swaping.sol\":3972:4014  overColleteralFeeAmount = (_amount*3)/1000 */\n      dup2\n      swap1\n      sstore\n      pop\n        /* \"contracts/Liberswap/swaping.sol\":4028:4055  uint eachWhilitedAddressFee */\n      0x00\n        /* \"contracts/Liberswap/swaping.sol\":4082:4098  whilistedAddress */\n      0x03\n        /* \"contracts/Liberswap/swaping.sol\":4082:4105  whilistedAddress.length */\n      dup1\n      sload\n      swap1\n      pop\n        /* \"contracts/Liberswap/swaping.sol\":4058:4081  overColleteralFeeAmount */\n      sload(0x08)\n        /* \"contracts/Liberswap/swaping.sol\":4058:4105  overColleteralFeeAmount/whilistedAddress.length */\n      tag_169\n      swap2\n      swap1\n      tag_168\n      jump\t// in\n    tag_169:\n        /* \"contracts/Liberswap/swaping.sol\":4028:4105  uint eachWhilitedAddressFee = overColleteralFeeAmount/whilistedAddress.length */\n      swap1\n      pop\n        /* \"contracts/Liberswap/swaping.sol\":4124:4130  uint i */\n      0x00\n        /* \"contracts/Liberswap/swaping.sol\":4119:4299  for (uint i=0; i<whilistedAddress.length; i++) ... */\n    tag_170:\n        /* \"contracts/Liberswap/swaping.sol\":4136:4152  whilistedAddress */\n      0x03\n        /* \"contracts/Liberswap/swaping.sol\":4136:4159  whilistedAddress.length */\n      dup1\n      sload\n      swap1\n      pop\n        /* \"contracts/Liberswap/swaping.sol\":4134:4135  i */\n      dup2\n        /* \"contracts/Liberswap/swaping.sol\":4134:4159  i<whilistedAddress.length */\n      lt\n        /* \"contracts/Liberswap/swaping.sol\":4119:4299  for (uint i=0; i<whilistedAddress.length; i++) ... */\n      iszero\n      tag_171\n      jumpi\n        /* \"contracts/Liberswap/swaping.sol\":4204:4213  _ethToken */\n      dup5\n        /* \"contracts/Liberswap/swaping.sol\":4197:4227  IERC20(_ethToken).transferFrom */\n      0xffffffffffffffffffffffffffffffffffffffff\n      and\n      0x23b872dd\n        /* \"contracts/Liberswap/swaping.sol\":4228:4238  msg.sender */\n      caller\n        /* \"contracts/Liberswap/swaping.sol\":4240:4256  whilistedAddress */\n      0x03\n        /* \"contracts/Liberswap/swaping.sol\":4257:4258  i */\n      dup5\n        /* \"contracts/Liberswap/swaping.sol\":4240:4259  whilistedAddress[i] */\n      dup2\n      sload\n      dup2\n      lt\n      tag_173\n      jumpi\n      tag_174\n      tag_175\n      jump\t// in\n    tag_174:\n    tag_173:\n      swap1\n      0x00\n      mstore\n      keccak256(0x00, 0x20)\n      add\n      0x00\n      swap1\n      sload\n      swap1\n      0x0100\n      exp\n      swap1\n      div\n      0xffffffffffffffffffffffffffffffffffffffff\n      and\n        /* \"contracts/Liberswap/swaping.sol\":4261:4283  eachWhilitedAddressFee */\n      dup6\n        /* \"contracts/Liberswap/swaping.sol\":4197:4284  IERC20(_ethToken).transferFrom(msg.sender, whilistedAddress[i], eachWhilitedAddressFee) */\n      mload(0x40)\n      dup5\n      0xffffffff\n      and\n      0xe0\n      shl\n      dup2\n      mstore\n      0x04\n      add\n      tag_177\n      swap4\n      swap3\n      swap2\n      swap1\n      tag_151\n      jump\t// in\n    tag_177:\n      0x20\n      mload(0x40)\n      dup1\n      dup4\n      sub\n      dup2\n      0x00\n      dup8\n      gas\n      call\n      iszero\n      dup1\n      iszero\n      tag_179\n      jumpi\n      returndatasize\n      0x00\n      dup1\n      returndatacopy\n      revert(0x00, returndatasize)\n    tag_179:\n      pop\n      pop\n      pop\n      pop\n      mload(0x40)\n      returndatasize\n      not(0x1f)\n      0x1f\n      dup3\n      add\n      and\n      dup3\n      add\n      dup1\n      0x40\n      mstore\n      pop\n      dup2\n      add\n      swap1\n      tag_180\n      swap2\n      swap1\n      tag_155\n      jump\t// in\n    tag_180:\n      pop\n        /* \"contracts/Liberswap/swaping.sol\":4161:4164  i++ */\n      dup1\n      dup1\n      0x01\n      add\n      swap2\n      pop\n      pop\n        /* \"contracts/Liberswap/swaping.sol\":4119:4299  for (uint i=0; i<whilistedAddress.length; i++) ... */\n      jump(tag_170)\n    tag_171:\n      pop\n        /* \"contracts/Liberswap/swaping.sol\":4319:4328  _ethToken */\n      dup4\n        /* \"contracts/Liberswap/swaping.sol\":4312:4342  IERC20(_ethToken).transferFrom */\n      0xffffffffffffffffffffffffffffffffffffffff\n      and\n      0x23b872dd\n        /* \"contracts/Liberswap/swaping.sol\":4343:4353  msg.sender */\n      caller\n        /* \"contracts/Liberswap/swaping.sol\":4363:4367  this */\n      address\n        /* \"contracts/Liberswap/swaping.sol\":4379:4402  overColleteralFeeAmount */\n      sload(0x08)\n        /* \"contracts/Liberswap/swaping.sol\":4371:4378  _amount */\n      dup8\n        /* \"contracts/Liberswap/swaping.sol\":4371:4402  _amount-overColleteralFeeAmount */\n      tag_181\n      swap2\n      swap1\n      tag_182\n      jump\t// in\n    tag_181:\n        /* \"contracts/Liberswap/swaping.sol\":4312:4404  IERC20(_ethToken).transferFrom(msg.sender, address(this), (_amount-overColleteralFeeAmount)) */\n      mload(0x40)\n      dup5\n      0xffffffff\n      and\n      0xe0\n      shl\n      dup2\n      mstore\n      0x04\n      add\n      tag_183\n      swap4\n      swap3\n      swap2\n      swap1\n      tag_151\n      jump\t// in\n    tag_183:\n      0x20\n      mload(0x40)\n      dup1\n      dup4\n      sub\n      dup2\n      0x00\n      dup8\n      gas\n      call\n      iszero\n      dup1\n      iszero\n      tag_185\n      jumpi\n      returndatasize\n      0x00\n      dup1\n      returndatacopy\n      revert(0x00, returndatasize)\n    tag_185:\n      pop\n      pop\n      pop\n      pop\n      mload(0x40)\n      returndatasize\n      not(0x1f)\n      0x1f\n      dup3\n      add\n      and\n      dup3\n      add\n      dup1\n      0x40\n      mstore\n      pop\n      dup2\n      add\n      swap1\n      tag_186\n      swap2\n      swap1\n      tag_155\n      jump\t// in\n    tag_186:\n      pop\n        /* \"contracts/Liberswap/swaping.sol\":4446:4469  overColleteralFeeAmount */\n      sload(0x08)\n        /* \"contracts/Liberswap/swaping.sol\":4438:4445  _amount */\n      dup4\n        /* \"contracts/Liberswap/swaping.sol\":4438:4469  _amount-overColleteralFeeAmount */\n      tag_187\n      swap2\n      swap1\n      tag_182\n      jump\t// in\n    tag_187:\n        /* \"contracts/Liberswap/swaping.sol\":4418:4433  currentHoldings */\n      0x07\n      0x00\n        /* \"contracts/Liberswap/swaping.sol\":4418:4470  currentHoldings += (_amount-overColleteralFeeAmount) */\n      dup3\n      dup3\n      sload\n      tag_188\n      swap2\n      swap1\n      tag_157\n      jump\t// in\n    tag_188:\n      swap3\n      pop\n      pop\n      dup2\n      swap1\n      sstore\n      pop\n        /* \"contracts/Liberswap/swaping.sol\":4518:4541  overColleteralFeeAmount */\n      sload(0x08)\n        /* \"contracts/Liberswap/swaping.sol\":4510:4517  _amount */\n      dup4\n        /* \"contracts/Liberswap/swaping.sol\":4510:4541  _amount-overColleteralFeeAmount */\n      tag_189\n      swap2\n      swap1\n      tag_182\n      jump\t// in\n    tag_189:\n        /* \"contracts/Liberswap/swaping.sol\":4484:4494  userAmount */\n      0x05\n        /* \"contracts/Liberswap/swaping.sol\":4484:4506  userAmount[msg.sender] */\n      0x00\n        /* \"contracts/Liberswap/swaping.sol\":4495:4505  msg.sender */\n      caller\n        /* \"contracts/Liberswap/swaping.sol\":4484:4506  userAmount[msg.sender] */\n      0xffffffffffffffffffffffffffffffffffffffff\n      and\n      0xffffffffffffffffffffffffffffffffffffffff\n      and\n      dup2\n      mstore\n      0x20\n      add\n      swap1\n      dup2\n      mstore\n      0x20\n      add\n      0x00\n      keccak256\n        /* \"contracts/Liberswap/swaping.sol\":4484:4542  userAmount[msg.sender] = (_amount-overColleteralFeeAmount) */\n      dup2\n      swap1\n      sstore\n      pop\n        /* \"contracts/Liberswap/swaping.sol\":4618:4641  overColleteralFeeAmount */\n      sload(0x08)\n        /* \"contracts/Liberswap/swaping.sol\":4610:4617  _amount */\n      dup4\n        /* \"contracts/Liberswap/swaping.sol\":4610:4641  _amount-overColleteralFeeAmount */\n      tag_190\n      swap2\n      swap1\n      tag_182\n      jump\t// in\n    tag_190:\n        /* \"contracts/Liberswap/swaping.sol\":4556:4575  userTotalSwapAmount */\n      0x06\n        /* \"contracts/Liberswap/swaping.sol\":4556:4587  userTotalSwapAmount[msg.sender] */\n      0x00\n        /* \"contracts/Liberswap/swaping.sol\":4576:4586  msg.sender */\n      caller\n        /* \"contracts/Liberswap/swaping.sol\":4556:4587  userTotalSwapAmount[msg.sender] */\n      0xffffffffffffffffffffffffffffffffffffffff\n      and\n      0xffffffffffffffffffffffffffffffffffffffff\n      and\n      dup2\n      mstore\n      0x20\n      add\n      swap1\n      dup2\n      mstore\n      0x20\n      add\n      0x00\n      keccak256\n        /* \"contracts/Liberswap/swaping.sol\":4588:4604  substrateAddress */\n      dup4\n        /* \"contracts/Liberswap/swaping.sol\":4556:4605  userTotalSwapAmount[msg.sender][substrateAddress] */\n      mload(0x40)\n      tag_191\n      swap2\n      swap1\n      tag_159\n      jump\t// in\n    tag_191:\n      swap1\n      dup2\n      mstore\n      0x20\n      add\n      mload(0x40)\n      dup1\n      swap2\n      sub\n      swap1\n      keccak256\n      0x00\n        /* \"contracts/Liberswap/swaping.sol\":4556:4642  userTotalSwapAmount[msg.sender][substrateAddress] += (_amount-overColleteralFeeAmount) */\n      dup3\n      dup3\n      sload\n      tag_192\n      swap2\n      swap1\n      tag_157\n      jump\t// in\n    tag_192:\n      swap3\n      pop\n      pop\n      dup2\n      swap1\n      sstore\n      pop\n        /* \"contracts/Liberswap/swaping.sol\":4707:4730  overColleteralFeeAmount */\n      sload(0x08)\n        /* \"contracts/Liberswap/swaping.sol\":4699:4706  _amount */\n      dup4\n        /* \"contracts/Liberswap/swaping.sol\":4699:4730  _amount-overColleteralFeeAmount */\n      tag_193\n      swap2\n      swap1\n      tag_182\n      jump\t// in\n    tag_193:\n        /* \"contracts/Liberswap/swaping.sol\":4656:4671  userTokenAmount */\n      0x04\n        /* \"contracts/Liberswap/swaping.sol\":4656:4683  userTokenAmount[msg.sender] */\n      0x00\n        /* \"contracts/Liberswap/swaping.sol\":4672:4682  msg.sender */\n      caller\n        /* \"contracts/Liberswap/swaping.sol\":4656:4683  userTokenAmount[msg.sender] */\n      0xffffffffffffffffffffffffffffffffffffffff\n      and\n      0xffffffffffffffffffffffffffffffffffffffff\n      and\n      dup2\n      mstore\n      0x20\n      add\n      swap1\n      dup2\n      mstore\n      0x20\n      add\n      0x00\n      keccak256\n        /* \"contracts/Liberswap/swaping.sol\":4656:4694  userTokenAmount[msg.sender][_ethToken] */\n      0x00\n        /* \"contracts/Liberswap/swaping.sol\":4684:4693  _ethToken */\n      dup7\n        /* \"contracts/Liberswap/swaping.sol\":4656:4694  userTokenAmount[msg.sender][_ethToken] */\n      0xffffffffffffffffffffffffffffffffffffffff\n      and\n      0xffffffffffffffffffffffffffffffffffffffff\n      and\n      dup2\n      mstore\n      0x20\n      add\n      swap1\n      dup2\n      mstore\n      0x20\n      add\n      0x00\n      keccak256\n      0x00\n        /* \"contracts/Liberswap/swaping.sol\":4656:4731  userTokenAmount[msg.sender][_ethToken] += (_amount-overColleteralFeeAmount) */\n      dup3\n      dup3\n      sload\n      tag_194\n      swap2\n      swap1\n      tag_157\n      jump\t// in\n    tag_194:\n      swap3\n      pop\n      pop\n      dup2\n      swap1\n      sstore\n      pop\n        /* \"contracts/Liberswap/swaping.sol\":4750:4805  swapToken(msg.sender,(_amount-overColleteralFeeAmount)) */\n      0xcc87ab2abfe87b272af9b77691e40b3d9186a0431f3d41a8e06d39614f460722\n        /* \"contracts/Liberswap/swaping.sol\":4760:4770  msg.sender */\n      caller\n        /* \"contracts/Liberswap/swaping.sol\":4780:4803  overColleteralFeeAmount */\n      sload(0x08)\n        /* \"contracts/Liberswap/swaping.sol\":4772:4779  _amount */\n      dup6\n        /* \"contracts/Liberswap/swaping.sol\":4772:4803  _amount-overColleteralFeeAmount */\n      tag_195\n      swap2\n      swap1\n      tag_182\n      jump\t// in\n    tag_195:\n        /* \"contracts/Liberswap/swaping.sol\":4750:4805  swapToken(msg.sender,(_amount-overColleteralFeeAmount)) */\n      mload(0x40)\n      tag_196\n      swap3\n      swap2\n      swap1\n      tag_163\n      jump\t// in\n    tag_196:\n      mload(0x40)\n      dup1\n      swap2\n      sub\n      swap1\n      log1\n        /* \"contracts/Liberswap/swaping.sol\":3958:4816  {... */\n      pop\n        /* \"contracts/Liberswap/swaping.sol\":3558:4816  if(_ethToken == usdm){... */\n    tag_164:\n        /* \"contracts/Liberswap/swaping.sol\":3257:4830  function swapTokens(address _ethToken,uint256 _amount,string memory substrateAddress) public {... */\n      pop\n      pop\n      pop\n      jump\t// out\n        /* \"contracts/Liberswap/swaping.sol\":6716:6867  function withdrawBalanceTokens(address _ethToken) public onlyOwner {... */\n    tag_82:\n        /* \"@openzeppelin/contracts/access/Ownable.sol\":1531:1544  _checkOwner() */\n      tag_198\n        /* \"@openzeppelin/contracts/access/Ownable.sol\":1531:1542  _checkOwner */\n      tag_110\n        /* \"@openzeppelin/contracts/access/Ownable.sol\":1531:1544  _checkOwner() */\n      jump\t// in\n    tag_198:\n        /* \"contracts/Liberswap/swaping.sol\":6793:6860  IERC20(_ethToken).safeTransfer(msg.sender, overColleteralFeeAmount) */\n      tag_200\n        /* \"contracts/Liberswap/swaping.sol\":6824:6834  msg.sender */\n      caller\n        /* \"contracts/Liberswap/swaping.sol\":6836:6859  overColleteralFeeAmount */\n      sload(0x08)\n        /* \"contracts/Liberswap/swaping.sol\":6800:6809  _ethToken */\n      dup4\n        /* \"contracts/Liberswap/swaping.sol\":6793:6823  IERC20(_ethToken).safeTransfer */\n      0xffffffffffffffffffffffffffffffffffffffff\n      and\n      tag_201\n      swap1\n        /* \"contracts/Liberswap/swaping.sol\":6793:6860  IERC20(_ethToken).safeTransfer(msg.sender, overColleteralFeeAmount) */\n      swap3\n      swap2\n      swap1\n      0xffffffff\n      and\n      jump\t// in\n    tag_200:\n        /* \"contracts/Liberswap/swaping.sol\":6716:6867  function withdrawBalanceTokens(address _ethToken) public onlyOwner {... */\n      pop\n      jump\t// out\n        /* \"contracts/Liberswap/swaping.sol\":5372:6564  function substrateSwapTokens(address _ethToken,uint256 _amount,address _to) public {... */\n    tag_86:\n        /* \"contracts/Liberswap/swaping.sol\":5519:5526  _amount */\n      dup2\n        /* \"contracts/Liberswap/swaping.sol\":5480:5489  _ethToken */\n      dup4\n        /* \"contracts/Liberswap/swaping.sol\":5473:5500  IERC20(_ethToken).balanceOf */\n      0xffffffffffffffffffffffffffffffffffffffff\n      and\n      0x70a08231\n        /* \"contracts/Liberswap/swaping.sol\":5509:5513  this */\n      address\n        /* \"contracts/Liberswap/swaping.sol\":5473:5515  IERC20(_ethToken).balanceOf(address(this)) */\n      mload(0x40)\n      dup3\n      0xffffffff\n      and\n      0xe0\n      shl\n      dup2\n      mstore\n      0x04\n      add\n      tag_203\n      swap2\n      swap1\n      tag_57\n      jump\t// in\n    tag_203:\n      0x20\n      mload(0x40)\n      dup1\n      dup4\n      sub\n      dup2\n      dup7\n      gas\n      staticcall\n      iszero\n      dup1\n      iszero\n      tag_205\n      jumpi\n      returndatasize\n      0x00\n      dup1\n      returndatacopy\n      revert(0x00, returndatasize)\n    tag_205:\n      pop\n      pop\n      pop\n      pop\n      mload(0x40)\n      returndatasize\n      not(0x1f)\n      0x1f\n      dup3\n      add\n      and\n      dup3\n      add\n      dup1\n      0x40\n      mstore\n      pop\n      dup2\n      add\n      swap1\n      tag_206\n      swap2\n      swap1\n      tag_138\n      jump\t// in\n    tag_206:\n        /* \"contracts/Liberswap/swaping.sol\":5473:5526  IERC20(_ethToken).balanceOf(address(this)) >= _amount */\n      lt\n      iszero\n        /* \"contracts/Liberswap/swaping.sol\":5465:5551  require(IERC20(_ethToken).balanceOf(address(this)) >= _amount, \"Insufficient balance\") */\n      tag_207\n      jumpi\n      mload(0x40)\n      0x08c379a000000000000000000000000000000000000000000000000000000000\n      dup2\n      mstore\n      0x04\n      add\n      tag_208\n      swap1\n      tag_148\n      jump\t// in\n    tag_208:\n      mload(0x40)\n      dup1\n      swap2\n      sub\n      swap1\n      revert\n    tag_207:\n        /* \"contracts/Liberswap/swaping.sol\":1285:1327  0x4b3a514Dd71850277bBa82491f26dACDF089cb68 */\n      0x4b3a514dd71850277bba82491f26dacdf089cb68\n        /* \"contracts/Liberswap/swaping.sol\":5564:5581  _ethToken == usdm */\n      0xffffffffffffffffffffffffffffffffffffffff\n      and\n        /* \"contracts/Liberswap/swaping.sol\":5564:5573  _ethToken */\n      dup4\n        /* \"contracts/Liberswap/swaping.sol\":5564:5581  _ethToken == usdm */\n      0xffffffffffffffffffffffffffffffffffffffff\n      and\n      sub\n        /* \"contracts/Liberswap/swaping.sol\":5561:6553  if(_ethToken == usdm){... */\n      tag_209\n      jumpi\n        /* \"contracts/Liberswap/swaping.sol\":5596:5639  IERC20(_ethToken).safeTransfer(_to,_amount) */\n      tag_210\n        /* \"contracts/Liberswap/swaping.sol\":5627:5630  _to */\n      dup2\n        /* \"contracts/Liberswap/swaping.sol\":5631:5638  _amount */\n      dup4\n        /* \"contracts/Liberswap/swaping.sol\":5603:5612  _ethToken */\n      dup6\n        /* \"contracts/Liberswap/swaping.sol\":5596:5626  IERC20(_ethToken).safeTransfer */\n      0xffffffffffffffffffffffffffffffffffffffff\n      and\n      tag_201\n      swap1\n        /* \"contracts/Liberswap/swaping.sol\":5596:5639  IERC20(_ethToken).safeTransfer(_to,_amount) */\n      swap3\n      swap2\n      swap1\n      0xffffffff\n      and\n      jump\t// in\n    tag_210:\n        /* \"contracts/Liberswap/swaping.sol\":5673:5680  _amount */\n      dup2\n        /* \"contracts/Liberswap/swaping.sol\":5653:5668  currentHoldings */\n      0x07\n      0x00\n        /* \"contracts/Liberswap/swaping.sol\":5653:5681  currentHoldings -= (_amount) */\n      dup3\n      dup3\n      sload\n      tag_211\n      swap2\n      swap1\n      tag_182\n      jump\t// in\n    tag_211:\n      swap3\n      pop\n      pop\n      dup2\n      swap1\n      sstore\n      pop\n        /* \"contracts/Liberswap/swaping.sol\":5713:5720  _amount */\n      dup2\n        /* \"contracts/Liberswap/swaping.sol\":5695:5705  userAmount */\n      0x05\n        /* \"contracts/Liberswap/swaping.sol\":5695:5710  userAmount[_to] */\n      0x00\n        /* \"contracts/Liberswap/swaping.sol\":5706:5709  _to */\n      dup4\n        /* \"contracts/Liberswap/swaping.sol\":5695:5710  userAmount[_to] */\n      0xffffffffffffffffffffffffffffffffffffffff\n      and\n      0xffffffffffffffffffffffffffffffffffffffff\n      and\n      dup2\n      mstore\n      0x20\n      add\n      swap1\n      dup2\n      mstore\n      0x20\n      add\n      0x00\n      keccak256\n        /* \"contracts/Liberswap/swaping.sol\":5695:5720  userAmount[_to] = _amount */\n      dup2\n      swap1\n      sstore\n      pop\n        /* \"contracts/Liberswap/swaping.sol\":5769:5776  _amount */\n      dup2\n        /* \"contracts/Liberswap/swaping.sol\":5734:5749  userTokenAmount */\n      0x04\n        /* \"contracts/Liberswap/swaping.sol\":5734:5754  userTokenAmount[_to] */\n      0x00\n        /* \"contracts/Liberswap/swaping.sol\":5750:5753  _to */\n      dup4\n        /* \"contracts/Liberswap/swaping.sol\":5734:5754  userTokenAmount[_to] */\n      0xffffffffffffffffffffffffffffffffffffffff\n      and\n      0xffffffffffffffffffffffffffffffffffffffff\n      and\n      dup2\n      mstore\n      0x20\n      add\n      swap1\n      dup2\n      mstore\n      0x20\n      add\n      0x00\n      keccak256\n        /* \"contracts/Liberswap/swaping.sol\":5734:5765  userTokenAmount[_to][_ethToken] */\n      0x00\n        /* \"contracts/Liberswap/swaping.sol\":5755:5764  _ethToken */\n      dup6\n        /* \"contracts/Liberswap/swaping.sol\":5734:5765  userTokenAmount[_to][_ethToken] */\n      0xffffffffffffffffffffffffffffffffffffffff\n      and\n      0xffffffffffffffffffffffffffffffffffffffff\n      and\n      dup2\n      mstore\n      0x20\n      add\n      swap1\n      dup2\n      mstore\n      0x20\n      add\n      0x00\n      keccak256\n      0x00\n        /* \"contracts/Liberswap/swaping.sol\":5734:5776  userTokenAmount[_to][_ethToken] -= _amount */\n      dup3\n      dup3\n      sload\n      tag_212\n      swap2\n      swap1\n      tag_182\n      jump\t// in\n    tag_212:\n      swap3\n      pop\n      pop\n      dup2\n      swap1\n      sstore\n      pop\n        /* \"contracts/Liberswap/swaping.sol\":5795:5817  swapToken(_to,_amount) */\n      0xcc87ab2abfe87b272af9b77691e40b3d9186a0431f3d41a8e06d39614f460722\n        /* \"contracts/Liberswap/swaping.sol\":5805:5808  _to */\n      dup2\n        /* \"contracts/Liberswap/swaping.sol\":5809:5816  _amount */\n      dup4\n        /* \"contracts/Liberswap/swaping.sol\":5795:5817  swapToken(_to,_amount) */\n      mload(0x40)\n      tag_213\n      swap3\n      swap2\n      swap1\n      tag_163\n      jump\t// in\n    tag_213:\n      mload(0x40)\n      dup1\n      swap2\n      sub\n      swap1\n      log1\n        /* \"contracts/Liberswap/swaping.sol\":5561:6553  if(_ethToken == usdm){... */\n      jump(tag_214)\n    tag_209:\n        /* \"contracts/Liberswap/swaping.sol\":5894:5898  1000 */\n      0x03e8\n        /* \"contracts/Liberswap/swaping.sol\":5891:5892  3 */\n      0x03\n        /* \"contracts/Liberswap/swaping.sol\":5883:5890  _amount */\n      dup4\n        /* \"contracts/Liberswap/swaping.sol\":5883:5892  _amount*3 */\n      tag_215\n      swap2\n      swap1\n      tag_166\n      jump\t// in\n    tag_215:\n        /* \"contracts/Liberswap/swaping.sol\":5882:5898  (_amount*3)/1000 */\n      tag_216\n      swap2\n      swap1\n      tag_168\n      jump\t// in\n    tag_216:\n        /* \"contracts/Liberswap/swaping.sol\":5856:5879  overColleteralFeeAmount */\n      0x08\n        /* \"contracts/Liberswap/swaping.sol\":5856:5898  overColleteralFeeAmount = (_amount*3)/1000 */\n      dup2\n      swap1\n      sstore\n      pop\n        /* \"contracts/Liberswap/swaping.sol\":5912:5939  uint eachWhilitedAddressFee */\n      0x00\n        /* \"contracts/Liberswap/swaping.sol\":5966:5982  whilistedAddress */\n      0x03\n        /* \"contracts/Liberswap/swaping.sol\":5966:5989  whilistedAddress.length */\n      dup1\n      sload\n      swap1\n      pop\n        /* \"contracts/Liberswap/swaping.sol\":5942:5965  overColleteralFeeAmount */\n      sload(0x08)\n        /* \"contracts/Liberswap/swaping.sol\":5942:5989  overColleteralFeeAmount/whilistedAddress.length */\n      tag_217\n      swap2\n      swap1\n      tag_168\n      jump\t// in\n    tag_217:\n        /* \"contracts/Liberswap/swaping.sol\":5912:5989  uint eachWhilitedAddressFee = overColleteralFeeAmount/whilistedAddress.length */\n      swap1\n      pop\n        /* \"contracts/Liberswap/swaping.sol\":6008:6014  uint i */\n      0x00\n        /* \"contracts/Liberswap/swaping.sol\":6003:6170  for (uint i=0; i<whilistedAddress.length; i++) ... */\n    tag_218:\n        /* \"contracts/Liberswap/swaping.sol\":6020:6036  whilistedAddress */\n      0x03\n        /* \"contracts/Liberswap/swaping.sol\":6020:6043  whilistedAddress.length */\n      dup1\n      sload\n      swap1\n      pop\n        /* \"contracts/Liberswap/swaping.sol\":6018:6019  i */\n      dup2\n        /* \"contracts/Liberswap/swaping.sol\":6018:6043  i<whilistedAddress.length */\n      lt\n        /* \"contracts/Liberswap/swaping.sol\":6003:6170  for (uint i=0; i<whilistedAddress.length; i++) ... */\n      iszero\n      tag_219\n      jumpi\n        /* \"contracts/Liberswap/swaping.sol\":6081:6155  IERC20(_ethToken).safeTransfer(whilistedAddress[i],eachWhilitedAddressFee) */\n      tag_221\n        /* \"contracts/Liberswap/swaping.sol\":6112:6128  whilistedAddress */\n      0x03\n        /* \"contracts/Liberswap/swaping.sol\":6129:6130  i */\n      dup3\n        /* \"contracts/Liberswap/swaping.sol\":6112:6131  whilistedAddress[i] */\n      dup2\n      sload\n      dup2\n      lt\n      tag_222\n      jumpi\n      tag_223\n      tag_175\n      jump\t// in\n    tag_223:\n    tag_222:\n      swap1\n      0x00\n      mstore\n      keccak256(0x00, 0x20)\n      add\n      0x00\n      swap1\n      sload\n      swap1\n      0x0100\n      exp\n      swap1\n      div\n      0xffffffffffffffffffffffffffffffffffffffff\n      and\n        /* \"contracts/Liberswap/swaping.sol\":6132:6154  eachWhilitedAddressFee */\n      dup4\n        /* \"contracts/Liberswap/swaping.sol\":6088:6097  _ethToken */\n      dup8\n        /* \"contracts/Liberswap/swaping.sol\":6081:6111  IERC20(_ethToken).safeTransfer */\n      0xffffffffffffffffffffffffffffffffffffffff\n      and\n      tag_201\n      swap1\n        /* \"contracts/Liberswap/swaping.sol\":6081:6155  IERC20(_ethToken).safeTransfer(whilistedAddress[i],eachWhilitedAddressFee) */\n      swap3\n      swap2\n      swap1\n      0xffffffff\n      and\n      jump\t// in\n    tag_221:\n        /* \"contracts/Liberswap/swaping.sol\":6045:6048  i++ */\n      dup1\n      dup1\n      0x01\n      add\n      swap2\n      pop\n      pop\n        /* \"contracts/Liberswap/swaping.sol\":6003:6170  for (uint i=0; i<whilistedAddress.length; i++) ... */\n      jump(tag_218)\n    tag_219:\n      pop\n        /* \"contracts/Liberswap/swaping.sol\":6184:6253  IERC20(_ethToken).safeTransfer(_to,(_amount-overColleteralFeeAmount)) */\n      tag_225\n        /* \"contracts/Liberswap/swaping.sol\":6215:6218  _to */\n      dup3\n        /* \"contracts/Liberswap/swaping.sol\":6228:6251  overColleteralFeeAmount */\n      sload(0x08)\n        /* \"contracts/Liberswap/swaping.sol\":6220:6227  _amount */\n      dup6\n        /* \"contracts/Liberswap/swaping.sol\":6220:6251  _amount-overColleteralFeeAmount */\n      tag_226\n      swap2\n      swap1\n      tag_182\n      jump\t// in\n    tag_226:\n        /* \"contracts/Liberswap/swaping.sol\":6191:6200  _ethToken */\n      dup7\n        /* \"contracts/Liberswap/swaping.sol\":6184:6214  IERC20(_ethToken).safeTransfer */\n      0xffffffffffffffffffffffffffffffffffffffff\n      and\n      tag_201\n      swap1\n        /* \"contracts/Liberswap/swaping.sol\":6184:6253  IERC20(_ethToken).safeTransfer(_to,(_amount-overColleteralFeeAmount)) */\n      swap3\n      swap2\n      swap1\n      0xffffffff\n      and\n      jump\t// in\n    tag_225:\n        /* \"contracts/Liberswap/swaping.sol\":6295:6318  overColleteralFeeAmount */\n      sload(0x08)\n        /* \"contracts/Liberswap/swaping.sol\":6287:6294  _amount */\n      dup4\n        /* \"contracts/Liberswap/swaping.sol\":6287:6318  _amount-overColleteralFeeAmount */\n      tag_227\n      swap2\n      swap1\n      tag_182\n      jump\t// in\n    tag_227:\n        /* \"contracts/Liberswap/swaping.sol\":6267:6282  currentHoldings */\n      0x07\n      0x00\n        /* \"contracts/Liberswap/swaping.sol\":6267:6319  currentHoldings -= (_amount-overColleteralFeeAmount) */\n      dup3\n      dup3\n      sload\n      tag_228\n      swap2\n      swap1\n      tag_182\n      jump\t// in\n    tag_228:\n      swap3\n      pop\n      pop\n      dup2\n      swap1\n      sstore\n      pop\n        /* \"contracts/Liberswap/swaping.sol\":6360:6383  overColleteralFeeAmount */\n      sload(0x08)\n        /* \"contracts/Liberswap/swaping.sol\":6352:6359  _amount */\n      dup4\n        /* \"contracts/Liberswap/swaping.sol\":6352:6383  _amount-overColleteralFeeAmount */\n      tag_229\n      swap2\n      swap1\n      tag_182\n      jump\t// in\n    tag_229:\n        /* \"contracts/Liberswap/swaping.sol\":6333:6343  userAmount */\n      0x05\n        /* \"contracts/Liberswap/swaping.sol\":6333:6348  userAmount[_to] */\n      0x00\n        /* \"contracts/Liberswap/swaping.sol\":6344:6347  _to */\n      dup5\n        /* \"contracts/Liberswap/swaping.sol\":6333:6348  userAmount[_to] */\n      0xffffffffffffffffffffffffffffffffffffffff\n      and\n      0xffffffffffffffffffffffffffffffffffffffff\n      and\n      dup2\n      mstore\n      0x20\n      add\n      swap1\n      dup2\n      mstore\n      0x20\n      add\n      0x00\n      keccak256\n        /* \"contracts/Liberswap/swaping.sol\":6333:6384  userAmount[_to] = (_amount-overColleteralFeeAmount) */\n      dup2\n      swap1\n      sstore\n      pop\n        /* \"contracts/Liberswap/swaping.sol\":6442:6465  overColleteralFeeAmount */\n      sload(0x08)\n        /* \"contracts/Liberswap/swaping.sol\":6434:6441  _amount */\n      dup4\n        /* \"contracts/Liberswap/swaping.sol\":6434:6465  _amount-overColleteralFeeAmount */\n      tag_230\n      swap2\n      swap1\n      tag_182\n      jump\t// in\n    tag_230:\n        /* \"contracts/Liberswap/swaping.sol\":6398:6413  userTokenAmount */\n      0x04\n        /* \"contracts/Liberswap/swaping.sol\":6398:6418  userTokenAmount[_to] */\n      0x00\n        /* \"contracts/Liberswap/swaping.sol\":6414:6417  _to */\n      dup5\n        /* \"contracts/Liberswap/swaping.sol\":6398:6418  userTokenAmount[_to] */\n      0xffffffffffffffffffffffffffffffffffffffff\n      and\n      0xffffffffffffffffffffffffffffffffffffffff\n      and\n      dup2\n      mstore\n      0x20\n      add\n      swap1\n      dup2\n      mstore\n      0x20\n      add\n      0x00\n      keccak256\n        /* \"contracts/Liberswap/swaping.sol\":6398:6429  userTokenAmount[_to][_ethToken] */\n      0x00\n        /* \"contracts/Liberswap/swaping.sol\":6419:6428  _ethToken */\n      dup7\n        /* \"contracts/Liberswap/swaping.sol\":6398:6429  userTokenAmount[_to][_ethToken] */\n      0xffffffffffffffffffffffffffffffffffffffff\n      and\n      0xffffffffffffffffffffffffffffffffffffffff\n      and\n      dup2\n      mstore\n      0x20\n      add\n      swap1\n      dup2\n      mstore\n      0x20\n      add\n      0x00\n      keccak256\n      0x00\n        /* \"contracts/Liberswap/swaping.sol\":6398:6466  userTokenAmount[_to][_ethToken] -= (_amount-overColleteralFeeAmount) */\n      dup3\n      dup3\n      sload\n      tag_231\n      swap2\n      swap1\n      tag_182\n      jump\t// in\n    tag_231:\n      swap3\n      pop\n      pop\n      dup2\n      swap1\n      sstore\n      pop\n        /* \"contracts/Liberswap/swaping.sol\":6485:6542  substrateSwapToken(_to,(_amount-overColleteralFeeAmount)) */\n      0xcf53ae9736a409c662fa8b1187549847acd41beb1b89fd026293fc2e19adaca7\n        /* \"contracts/Liberswap/swaping.sol\":6504:6507  _to */\n      dup3\n        /* \"contracts/Liberswap/swaping.sol\":6517:6540  overColleteralFeeAmount */\n      sload(0x08)\n        /* \"contracts/Liberswap/swaping.sol\":6509:6516  _amount */\n      dup6\n        /* \"contracts/Liberswap/swaping.sol\":6509:6540  _amount-overColleteralFeeAmount */\n      tag_232\n      swap2\n      swap1\n      tag_182\n      jump\t// in\n    tag_232:\n        /* \"contracts/Liberswap/swaping.sol\":6485:6542  substrateSwapToken(_to,(_amount-overColleteralFeeAmount)) */\n      mload(0x40)\n      tag_233\n      swap3\n      swap2\n      swap1\n      tag_163\n      jump\t// in\n    tag_233:\n      mload(0x40)\n      dup1\n      swap2\n      sub\n      swap1\n      log1\n        /* \"contracts/Liberswap/swaping.sol\":5841:6553  {... */\n      pop\n        /* \"contracts/Liberswap/swaping.sol\":5561:6553  if(_ethToken == usdm){... */\n    tag_214:\n        /* \"contracts/Liberswap/swaping.sol\":5372:6564  function substrateSwapTokens(address _ethToken,uint256 _amount,address _to) public {... */\n      pop\n      pop\n      pop\n      jump\t// out\n        /* \"contracts/Liberswap/swaping.sol\":1691:1746  mapping (address UserAddress => uint) public userAmount */\n    tag_89:\n      mstore(0x20, 0x05)\n      dup1\n      0x00\n      mstore\n      keccak256(0x00, 0x40)\n      0x00\n      swap2\n      pop\n      swap1\n      pop\n      sload\n      dup2\n      jump\t// out\n        /* \"contracts/Liberswap/swaping.sol\":1489:1522  address[] public whilistedAddress */\n    tag_94:\n      0x03\n      dup2\n      dup2\n      sload\n      dup2\n      lt\n      tag_234\n      jumpi\n      0x00\n      dup1\n      revert\n    tag_234:\n      swap1\n      0x00\n      mstore\n      keccak256(0x00, 0x20)\n      add\n      0x00\n      swap2\n      pop\n      sload\n      swap1\n      0x0100\n      exp\n      swap1\n      div\n      0xffffffffffffffffffffffffffffffffffffffff\n      and\n      dup2\n      jump\t// out\n        /* \"@openzeppelin/contracts/access/Ownable.sol\":2543:2758  function transferOwnership(address newOwner) public virtual onlyOwner {... */\n    tag_98:\n        /* \"@openzeppelin/contracts/access/Ownable.sol\":1531:1544  _checkOwner() */\n      tag_237\n        /* \"@openzeppelin/contracts/access/Ownable.sol\":1531:1542  _checkOwner */\n      tag_110\n        /* \"@openzeppelin/contracts/access/Ownable.sol\":1531:1544  _checkOwner() */\n      jump\t// in\n    tag_237:\n        /* \"@openzeppelin/contracts/access/Ownable.sol\":2647:2648  0 */\n      0x00\n        /* \"@openzeppelin/contracts/access/Ownable.sol\":2627:2649  newOwner == address(0) */\n      0xffffffffffffffffffffffffffffffffffffffff\n      and\n        /* \"@openzeppelin/contracts/access/Ownable.sol\":2627:2635  newOwner */\n      dup2\n        /* \"@openzeppelin/contracts/access/Ownable.sol\":2627:2649  newOwner == address(0) */\n      0xffffffffffffffffffffffffffffffffffffffff\n      and\n      sub\n        /* \"@openzeppelin/contracts/access/Ownable.sol\":2623:2714  if (newOwner == address(0)) {... */\n      tag_239\n      jumpi\n        /* \"@openzeppelin/contracts/access/Ownable.sol\":2700:2701  0 */\n      0x00\n        /* \"@openzeppelin/contracts/access/Ownable.sol\":2672:2703  OwnableInvalidOwner(address(0)) */\n      mload(0x40)\n      0x1e4fbdf700000000000000000000000000000000000000000000000000000000\n      dup2\n      mstore\n      0x04\n      add\n      tag_240\n      swap2\n      swap1\n      tag_57\n      jump\t// in\n    tag_240:\n      mload(0x40)\n      dup1\n      swap2\n      sub\n      swap1\n      revert\n        /* \"@openzeppelin/contracts/access/Ownable.sol\":2623:2714  if (newOwner == address(0)) {... */\n    tag_239:\n        /* \"@openzeppelin/contracts/access/Ownable.sol\":2723:2751  _transferOwnership(newOwner) */\n      tag_241\n        /* \"@openzeppelin/contracts/access/Ownable.sol\":2742:2750  newOwner */\n      dup2\n        /* \"@openzeppelin/contracts/access/Ownable.sol\":2723:2741  _transferOwnership */\n      tag_127\n        /* \"@openzeppelin/contracts/access/Ownable.sol\":2723:2751  _transferOwnership(newOwner) */\n      jump\t// in\n    tag_241:\n        /* \"@openzeppelin/contracts/access/Ownable.sol\":2543:2758  function transferOwnership(address newOwner) public virtual onlyOwner {... */\n      pop\n      jump\t// out\n        /* \"contracts/Liberswap/swaping.sol\":8384:8563  function holdingOf_USDM(address holder) public view returns (uint holdings) {... */\n    tag_101:\n        /* \"contracts/Liberswap/swaping.sol\":8445:8458  uint holdings */\n      0x00\n        /* \"contracts/Liberswap/swaping.sol\":8477:8492  userTokenAmount */\n      0x04\n        /* \"contracts/Liberswap/swaping.sol\":8477:8500  userTokenAmount[holder] */\n      0x00\n        /* \"contracts/Liberswap/swaping.sol\":8493:8499  holder */\n      dup4\n        /* \"contracts/Liberswap/swaping.sol\":8477:8500  userTokenAmount[holder] */\n      0xffffffffffffffffffffffffffffffffffffffff\n      and\n      0xffffffffffffffffffffffffffffffffffffffff\n      and\n      dup2\n      mstore\n      0x20\n      add\n      swap1\n      dup2\n      mstore\n      0x20\n      add\n      0x00\n      keccak256\n        /* \"contracts/Liberswap/swaping.sol\":8477:8506  userTokenAmount[holder][usdm] */\n      0x00\n        /* \"contracts/Liberswap/swaping.sol\":1285:1327  0x4b3a514Dd71850277bBa82491f26dACDF089cb68 */\n      0x4b3a514dd71850277bba82491f26dacdf089cb68\n        /* \"contracts/Liberswap/swaping.sol\":8477:8506  userTokenAmount[holder][usdm] */\n      0xffffffffffffffffffffffffffffffffffffffff\n      and\n      0xffffffffffffffffffffffffffffffffffffffff\n      and\n      dup2\n      mstore\n      0x20\n      add\n      swap1\n      dup2\n      mstore\n      0x20\n      add\n      0x00\n      keccak256\n      sload\n        /* \"contracts/Liberswap/swaping.sol\":8470:8506  return userTokenAmount[holder][usdm] */\n      swap1\n      pop\n        /* \"contracts/Liberswap/swaping.sol\":8384:8563  function holdingOf_USDM(address holder) public view returns (uint holdings) {... */\n      swap2\n      swap1\n      pop\n      jump\t// out\n        /* \"contracts/Liberswap/swaping.sol\":1832:1923  mapping (address UserAddress =>  mapping(string => uint Amount)) public userTotalSwapAmount */\n    tag_106:\n      mstore(0x20, 0x06)\n      dup2\n      0x00\n      mstore\n      keccak256(0x00, 0x40)\n      dup2\n      dup1\n      mload\n      0x20\n      dup2\n      add\n      dup3\n      add\n      dup1\n      mload\n      dup5\n      dup3\n      mstore\n      0x20\n      dup4\n      add\n      0x20\n      dup6\n      add\n      keccak256\n      dup2\n      dup4\n      mstore\n      dup1\n      swap6\n      pop\n      pop\n      pop\n      pop\n      pop\n      pop\n      0x00\n      swap2\n      pop\n      swap2\n      pop\n      pop\n      sload\n      dup2\n      jump\t// out\n        /* \"@openzeppelin/contracts/access/Ownable.sol\":1796:1958  function _checkOwner() internal view virtual {... */\n    tag_110:\n        /* \"@openzeppelin/contracts/access/Ownable.sol\":1866:1878  _msgSender() */\n      tag_244\n        /* \"@openzeppelin/contracts/access/Ownable.sol\":1866:1876  _msgSender */\n      tag_245\n        /* \"@openzeppelin/contracts/access/Ownable.sol\":1866:1878  _msgSender() */\n      jump\t// in\n    tag_244:\n        /* \"@openzeppelin/contracts/access/Ownable.sol\":1855:1878  owner() != _msgSender() */\n      0xffffffffffffffffffffffffffffffffffffffff\n      and\n        /* \"@openzeppelin/contracts/access/Ownable.sol\":1855:1862  owner() */\n      tag_246\n        /* \"@openzeppelin/contracts/access/Ownable.sol\":1855:1860  owner */\n      tag_55\n        /* \"@openzeppelin/contracts/access/Ownable.sol\":1855:1862  owner() */\n      jump\t// in\n    tag_246:\n        /* \"@openzeppelin/contracts/access/Ownable.sol\":1855:1878  owner() != _msgSender() */\n      0xffffffffffffffffffffffffffffffffffffffff\n      and\n      eq\n        /* \"@openzeppelin/contracts/access/Ownable.sol\":1851:1952  if (owner() != _msgSender()) {... */\n      tag_247\n      jumpi\n        /* \"@openzeppelin/contracts/access/Ownable.sol\":1928:1940  _msgSender() */\n      tag_248\n        /* \"@openzeppelin/contracts/access/Ownable.sol\":1928:1938  _msgSender */\n      tag_245\n        /* \"@openzeppelin/contracts/access/Ownable.sol\":1928:1940  _msgSender() */\n      jump\t// in\n    tag_248:\n        /* \"@openzeppelin/contracts/access/Ownable.sol\":1901:1941  OwnableUnauthorizedAccount(_msgSender()) */\n      mload(0x40)\n      0x118cdaa700000000000000000000000000000000000000000000000000000000\n      dup2\n      mstore\n      0x04\n      add\n      tag_249\n      swap2\n      swap1\n      tag_57\n      jump\t// in\n    tag_249:\n      mload(0x40)\n      dup1\n      swap2\n      sub\n      swap1\n      revert\n        /* \"@openzeppelin/contracts/access/Ownable.sol\":1851:1952  if (owner() != _msgSender()) {... */\n    tag_247:\n        /* \"@openzeppelin/contracts/access/Ownable.sol\":1796:1958  function _checkOwner() internal view virtual {... */\n      jump\t// out\n        /* \"@openzeppelin/contracts/access/Ownable.sol\":2912:3099  function _transferOwnership(address newOwner) internal virtual {... */\n    tag_127:\n        /* \"@openzeppelin/contracts/access/Ownable.sol\":2985:3001  address oldOwner */\n      0x00\n        /* \"@openzeppelin/contracts/access/Ownable.sol\":3004:3010  _owner */\n      dup1\n      0x00\n      swap1\n      sload\n      swap1\n      0x0100\n      exp\n      swap1\n      div\n      0xffffffffffffffffffffffffffffffffffffffff\n      and\n        /* \"@openzeppelin/contracts/access/Ownable.sol\":2985:3010  address oldOwner = _owner */\n      swap1\n      pop\n        /* \"@openzeppelin/contracts/access/Ownable.sol\":3029:3037  newOwner */\n      dup2\n        /* \"@openzeppelin/contracts/access/Ownable.sol\":3020:3026  _owner */\n      0x00\n      dup1\n        /* \"@openzeppelin/contracts/access/Ownable.sol\":3020:3037  _owner = newOwner */\n      0x0100\n      exp\n      dup2\n      sload\n      dup2\n      0xffffffffffffffffffffffffffffffffffffffff\n      mul\n      not\n      and\n      swap1\n      dup4\n      0xffffffffffffffffffffffffffffffffffffffff\n      and\n      mul\n      or\n      swap1\n      sstore\n      pop\n        /* \"@openzeppelin/contracts/access/Ownable.sol\":3083:3091  newOwner */\n      dup2\n        /* \"@openzeppelin/contracts/access/Ownable.sol\":3052:3092  OwnershipTransferred(oldOwner, newOwner) */\n      0xffffffffffffffffffffffffffffffffffffffff\n      and\n        /* \"@openzeppelin/contracts/access/Ownable.sol\":3073:3081  oldOwner */\n      dup2\n        /* \"@openzeppelin/contracts/access/Ownable.sol\":3052:3092  OwnershipTransferred(oldOwner, newOwner) */\n      0xffffffffffffffffffffffffffffffffffffffff\n      and\n      0x8be0079c531659141344cd1fd0a4f28419497f9722a3daafe3b4186f6b6457e0\n      mload(0x40)\n      mload(0x40)\n      dup1\n      swap2\n      sub\n      swap1\n      log3\n        /* \"@openzeppelin/contracts/access/Ownable.sol\":2975:3099  {... */\n      pop\n        /* \"@openzeppelin/contracts/access/Ownable.sol\":2912:3099  function _transferOwnership(address newOwner) internal virtual {... */\n      pop\n      jump\t// out\n        /* \"@openzeppelin/contracts/token/ERC20/utils/SafeERC20.sol\":1303:1463  function safeTransfer(IERC20 token, address to, uint256 value) internal {... */\n    tag_201:\n        /* \"@openzeppelin/contracts/token/ERC20/utils/SafeERC20.sol\":1385:1456  _callOptionalReturn(token, abi.encodeCall(token.transfer, (to, value))) */\n      tag_252\n        /* \"@openzeppelin/contracts/token/ERC20/utils/SafeERC20.sol\":1405:1410  token */\n      dup4\n        /* \"@openzeppelin/contracts/token/ERC20/utils/SafeERC20.sol\":1427:1432  token */\n      dup5\n        /* \"@openzeppelin/contracts/token/ERC20/utils/SafeERC20.sol\":1427:1441  token.transfer */\n      0xffffffffffffffffffffffffffffffffffffffff\n      and\n      0xa9059cbb\n        /* \"@openzeppelin/contracts/token/ERC20/utils/SafeERC20.sol\":1444:1446  to */\n      dup6\n        /* \"@openzeppelin/contracts/token/ERC20/utils/SafeERC20.sol\":1448:1453  value */\n      dup6\n        /* \"@openzeppelin/contracts/token/ERC20/utils/SafeERC20.sol\":1412:1455  abi.encodeCall(token.transfer, (to, value)) */\n      add(0x24, mload(0x40))\n      tag_253\n      swap3\n      swap2\n      swap1\n      tag_163\n      jump\t// in\n    tag_253:\n      mload(0x40)\n      0x20\n      dup2\n      dup4\n      sub\n      sub\n      dup2\n      mstore\n      swap1\n      0x40\n      mstore\n      swap2\n      pop\n      0xe0\n      shl\n      0x20\n      dup3\n      add\n      dup1\n      mload\n      0xffffffffffffffffffffffffffffffffffffffffffffffffffffffff\n      dup4\n      dup2\n      dup4\n      and\n      or\n      dup4\n      mstore\n      pop\n      pop\n      pop\n      pop\n        /* \"@openzeppelin/contracts/token/ERC20/utils/SafeERC20.sol\":1385:1404  _callOptionalReturn */\n      tag_254\n        /* \"@openzeppelin/contracts/token/ERC20/utils/SafeERC20.sol\":1385:1456  _callOptionalReturn(token, abi.encodeCall(token.transfer, (to, value))) */\n      jump\t// in\n    tag_252:\n        /* \"@openzeppelin/contracts/token/ERC20/utils/SafeERC20.sol\":1303:1463  function safeTransfer(IERC20 token, address to, uint256 value) internal {... */\n      pop\n      pop\n      pop\n      jump\t// out\n        /* \"@openzeppelin/contracts/utils/Context.sol\":656:752  function _msgSender() internal view virtual returns (address) {... */\n    tag_245:\n        /* \"@openzeppelin/contracts/utils/Context.sol\":709:716  address */\n      0x00\n        /* \"@openzeppelin/contracts/utils/Context.sol\":735:745  msg.sender */\n      caller\n        /* \"@openzeppelin/contracts/utils/Context.sol\":728:745  return msg.sender */\n      swap1\n      pop\n        /* \"@openzeppelin/contracts/utils/Context.sol\":656:752  function _msgSender() internal view virtual returns (address) {... */\n      swap1\n      jump\t// out\n        /* \"@openzeppelin/contracts/token/ERC20/utils/SafeERC20.sol\":4059:4688  function _callOptionalReturn(IERC20 token, bytes memory data) private {... */\n    tag_254:\n        /* \"@openzeppelin/contracts/token/ERC20/utils/SafeERC20.sol\":4478:4501  bytes memory returndata */\n      0x00\n        /* \"@openzeppelin/contracts/token/ERC20/utils/SafeERC20.sol\":4504:4537  address(token).functionCall(data) */\n      tag_257\n        /* \"@openzeppelin/contracts/token/ERC20/utils/SafeERC20.sol\":4532:4536  data */\n      dup3\n        /* \"@openzeppelin/contracts/token/ERC20/utils/SafeERC20.sol\":4512:4517  token */\n      dup5\n        /* \"@openzeppelin/contracts/token/ERC20/utils/SafeERC20.sol\":4504:4531  address(token).functionCall */\n      0xffffffffffffffffffffffffffffffffffffffff\n      and\n      tag_258\n      swap1\n        /* \"@openzeppelin/contracts/token/ERC20/utils/SafeERC20.sol\":4504:4537  address(token).functionCall(data) */\n      swap2\n      swap1\n      0xffffffff\n      and\n      jump\t// in\n    tag_257:\n        /* \"@openzeppelin/contracts/token/ERC20/utils/SafeERC20.sol\":4478:4537  bytes memory returndata = address(token).functionCall(data) */\n      swap1\n      pop\n        /* \"@openzeppelin/contracts/token/ERC20/utils/SafeERC20.sol\":4572:4573  0 */\n      0x00\n        /* \"@openzeppelin/contracts/token/ERC20/utils/SafeERC20.sol\":4551:4561  returndata */\n      dup2\n        /* \"@openzeppelin/contracts/token/ERC20/utils/SafeERC20.sol\":4551:4568  returndata.length */\n      mload\n        /* \"@openzeppelin/contracts/token/ERC20/utils/SafeERC20.sol\":4551:4573  returndata.length != 0 */\n      eq\n      iszero\n        /* \"@openzeppelin/contracts/token/ERC20/utils/SafeERC20.sol\":4551:4608  returndata.length != 0 && !abi.decode(returndata, (bool)) */\n      dup1\n      iszero\n      tag_259\n      jumpi\n      pop\n        /* \"@openzeppelin/contracts/token/ERC20/utils/SafeERC20.sol\":4589:4599  returndata */\n      dup1\n        /* \"@openzeppelin/contracts/token/ERC20/utils/SafeERC20.sol\":4578:4608  abi.decode(returndata, (bool)) */\n      dup1\n      0x20\n      add\n      swap1\n      mload\n      dup2\n      add\n      swap1\n      tag_260\n      swap2\n      swap1\n      tag_155\n      jump\t// in\n    tag_260:\n        /* \"@openzeppelin/contracts/token/ERC20/utils/SafeERC20.sol\":4577:4608  !abi.decode(returndata, (bool)) */\n      iszero\n        /* \"@openzeppelin/contracts/token/ERC20/utils/SafeERC20.sol\":4551:4608  returndata.length != 0 && !abi.decode(returndata, (bool)) */\n    tag_259:\n        /* \"@openzeppelin/contracts/token/ERC20/utils/SafeERC20.sol\":4547:4682  if (returndata.length != 0 && !abi.decode(returndata, (bool))) {... */\n      iszero\n      tag_261\n      jumpi\n        /* \"@openzeppelin/contracts/token/ERC20/utils/SafeERC20.sol\":4664:4669  token */\n      dup3\n        /* \"@openzeppelin/contracts/token/ERC20/utils/SafeERC20.sol\":4631:4671  SafeERC20FailedOperation(address(token)) */\n      mload(0x40)\n      0x5274afe700000000000000000000000000000000000000000000000000000000\n      dup2\n      mstore\n      0x04\n      add\n      tag_262\n      swap2\n      swap1\n      tag_57\n      jump\t// in\n    tag_262:\n      mload(0x40)\n      dup1\n      swap2\n      sub\n      swap1\n      revert\n        /* \"@openzeppelin/contracts/token/ERC20/utils/SafeERC20.sol\":4547:4682  if (returndata.length != 0 && !abi.decode(returndata, (bool))) {... */\n    tag_261:\n        /* \"@openzeppelin/contracts/token/ERC20/utils/SafeERC20.sol\":4129:4688  {... */\n      pop\n        /* \"@openzeppelin/contracts/token/ERC20/utils/SafeERC20.sol\":4059:4688  function _callOptionalReturn(IERC20 token, bytes memory data) private {... */\n      pop\n      pop\n      jump\t// out\n        /* \"@openzeppelin/contracts/utils/Address.sol\":2705:2856  function functionCall(address target, bytes memory data) internal returns (bytes memory) {... */\n    tag_258:\n        /* \"@openzeppelin/contracts/utils/Address.sol\":2780:2792  bytes memory */\n      0x60\n        /* \"@openzeppelin/contracts/utils/Address.sol\":2811:2849  functionCallWithValue(target, data, 0) */\n      tag_264\n        /* \"@openzeppelin/contracts/utils/Address.sol\":2833:2839  target */\n      dup4\n        /* \"@openzeppelin/contracts/utils/Address.sol\":2841:2845  data */\n      dup4\n        /* \"@openzeppelin/contracts/utils/Address.sol\":2847:2848  0 */\n      0x00\n        /* \"@openzeppelin/contracts/utils/Address.sol\":2811:2832  functionCallWithValue */\n      tag_265\n        /* \"@openzeppelin/contracts/utils/Address.sol\":2811:2849  functionCallWithValue(target, data, 0) */\n      jump\t// in\n    tag_264:\n        /* \"@openzeppelin/contracts/utils/Address.sol\":2804:2849  return functionCallWithValue(target, data, 0) */\n      swap1\n      pop\n        /* \"@openzeppelin/contracts/utils/Address.sol\":2705:2856  function functionCall(address target, bytes memory data) internal returns (bytes memory) {... */\n      swap3\n      swap2\n      pop\n      pop\n      jump\t// out\n        /* \"@openzeppelin/contracts/utils/Address.sol\":3180:3572  function functionCallWithValue(address target, bytes memory data, uint256 value) internal returns (bytes memory) {... */\n    tag_265:\n        /* \"@openzeppelin/contracts/utils/Address.sol\":3279:3291  bytes memory */\n      0x60\n        /* \"@openzeppelin/contracts/utils/Address.sol\":3331:3336  value */\n      dup2\n        /* \"@openzeppelin/contracts/utils/Address.sol\":3307:3328  address(this).balance */\n      selfbalance\n        /* \"@openzeppelin/contracts/utils/Address.sol\":3307:3336  address(this).balance < value */\n      lt\n        /* \"@openzeppelin/contracts/utils/Address.sol\":3303:3411  if (address(this).balance < value) {... */\n      iszero\n      tag_267\n      jumpi\n        /* \"@openzeppelin/contracts/utils/Address.sol\":3394:3398  this */\n      address\n        /* \"@openzeppelin/contracts/utils/Address.sol\":3359:3400  AddressInsufficientBalance(address(this)) */\n      mload(0x40)\n      0xcd78605900000000000000000000000000000000000000000000000000000000\n      dup2\n      mstore\n      0x04\n      add\n      tag_268\n      swap2\n      swap1\n      tag_57\n      jump\t// in\n    tag_268:\n      mload(0x40)\n      dup1\n      swap2\n      sub\n      swap1\n      revert\n        /* \"@openzeppelin/contracts/utils/Address.sol\":3303:3411  if (address(this).balance < value) {... */\n    tag_267:\n        /* \"@openzeppelin/contracts/utils/Address.sol\":3421:3433  bool success */\n      0x00\n        /* \"@openzeppelin/contracts/utils/Address.sol\":3435:3458  bytes memory returndata */\n      dup1\n        /* \"@openzeppelin/contracts/utils/Address.sol\":3462:3468  target */\n      dup6\n        /* \"@openzeppelin/contracts/utils/Address.sol\":3462:3473  target.call */\n      0xffffffffffffffffffffffffffffffffffffffff\n      and\n        /* \"@openzeppelin/contracts/utils/Address.sol\":3481:3486  value */\n      dup5\n        /* \"@openzeppelin/contracts/utils/Address.sol\":3488:3492  data */\n      dup7\n        /* \"@openzeppelin/contracts/utils/Address.sol\":3462:3493  target.call{value: value}(data) */\n      mload(0x40)\n      tag_269\n      swap2\n      swap1\n      tag_270\n      jump\t// in\n    tag_269:\n      0x00\n      mload(0x40)\n      dup1\n      dup4\n      sub\n      dup2\n      dup6\n      dup8\n      gas\n      call\n      swap3\n      pop\n      pop\n      pop\n      returndatasize\n      dup1\n      0x00\n      dup2\n      eq\n      tag_273\n      jumpi\n      mload(0x40)\n      swap2\n      pop\n      and(add(returndatasize, 0x3f), not(0x1f))\n      dup3\n      add\n      0x40\n      mstore\n      returndatasize\n      dup3\n      mstore\n      returndatasize\n      0x00\n      0x20\n      dup5\n      add\n      returndatacopy\n      jump(tag_272)\n    tag_273:\n      0x60\n      swap2\n      pop\n    tag_272:\n      pop\n        /* \"@openzeppelin/contracts/utils/Address.sol\":3420:3493  (bool success, bytes memory returndata) = target.call{value: value}(data) */\n      swap2\n      pop\n      swap2\n      pop\n        /* \"@openzeppelin/contracts/utils/Address.sol\":3510:3565  verifyCallResultFromTarget(target, success, returndata) */\n      tag_274\n        /* \"@openzeppelin/contracts/utils/Address.sol\":3537:3543  target */\n      dup7\n        /* \"@openzeppelin/contracts/utils/Address.sol\":3545:3552  success */\n      dup4\n        /* \"@openzeppelin/contracts/utils/Address.sol\":3554:3564  returndata */\n      dup4\n        /* \"@openzeppelin/contracts/utils/Address.sol\":3510:3536  verifyCallResultFromTarget */\n      tag_275\n        /* \"@openzeppelin/contracts/utils/Address.sol\":3510:3565  verifyCallResultFromTarget(target, success, returndata) */\n      jump\t// in\n    tag_274:\n        /* \"@openzeppelin/contracts/utils/Address.sol\":3503:3565  return verifyCallResultFromTarget(target, success, returndata) */\n      swap3\n      pop\n      pop\n      pop\n        /* \"@openzeppelin/contracts/utils/Address.sol\":3180:3572  function functionCallWithValue(address target, bytes memory data, uint256 value) internal returns (bytes memory) {... */\n      swap4\n      swap3\n      pop\n      pop\n      pop\n      jump\t// out\n        /* \"@openzeppelin/contracts/utils/Address.sol\":4625:5207  function verifyCallResultFromTarget(... */\n    tag_275:\n        /* \"@openzeppelin/contracts/utils/Address.sol\":4769:4781  bytes memory */\n      0x60\n        /* \"@openzeppelin/contracts/utils/Address.sol\":4798:4805  success */\n      dup3\n        /* \"@openzeppelin/contracts/utils/Address.sol\":4793:5201  if (!success) {... */\n      tag_277\n      jumpi\n        /* \"@openzeppelin/contracts/utils/Address.sol\":4821:4840  _revert(returndata) */\n      tag_278\n        /* \"@openzeppelin/contracts/utils/Address.sol\":4829:4839  returndata */\n      dup3\n        /* \"@openzeppelin/contracts/utils/Address.sol\":4821:4828  _revert */\n      tag_279\n        /* \"@openzeppelin/contracts/utils/Address.sol\":4821:4840  _revert(returndata) */\n      jump\t// in\n    tag_278:\n        /* \"@openzeppelin/contracts/utils/Address.sol\":4793:5201  if (!success) {... */\n      jump(tag_280)\n    tag_277:\n        /* \"@openzeppelin/contracts/utils/Address.sol\":5066:5067  0 */\n      0x00\n        /* \"@openzeppelin/contracts/utils/Address.sol\":5045:5055  returndata */\n      dup3\n        /* \"@openzeppelin/contracts/utils/Address.sol\":5045:5062  returndata.length */\n      mload\n        /* \"@openzeppelin/contracts/utils/Address.sol\":5045:5067  returndata.length == 0 */\n      eq\n        /* \"@openzeppelin/contracts/utils/Address.sol\":5045:5094  returndata.length == 0 && target.code.length == 0 */\n      dup1\n      iszero\n      tag_281\n      jumpi\n      pop\n        /* \"@openzeppelin/contracts/utils/Address.sol\":5093:5094  0 */\n      0x00\n        /* \"@openzeppelin/contracts/utils/Address.sol\":5071:5077  target */\n      dup5\n        /* \"@openzeppelin/contracts/utils/Address.sol\":5071:5089  target.code.length */\n      0xffffffffffffffffffffffffffffffffffffffff\n      and\n      extcodesize\n        /* \"@openzeppelin/contracts/utils/Address.sol\":5071:5094  target.code.length == 0 */\n      eq\n        /* \"@openzeppelin/contracts/utils/Address.sol\":5045:5094  returndata.length == 0 && target.code.length == 0 */\n    tag_281:\n        /* \"@openzeppelin/contracts/utils/Address.sol\":5041:5160  if (returndata.length == 0 && target.code.length == 0) {... */\n      iszero\n      tag_282\n      jumpi\n        /* \"@openzeppelin/contracts/utils/Address.sol\":5138:5144  target */\n      dup4\n        /* \"@openzeppelin/contracts/utils/Address.sol\":5121:5145  AddressEmptyCode(target) */\n      mload(0x40)\n      0x9996b31500000000000000000000000000000000000000000000000000000000\n      dup2\n      mstore\n      0x04\n      add\n      tag_283\n      swap2\n      swap1\n      tag_57\n      jump\t// in\n    tag_283:\n      mload(0x40)\n      dup1\n      swap2\n      sub\n      swap1\n      revert\n        /* \"@openzeppelin/contracts/utils/Address.sol\":5041:5160  if (returndata.length == 0 && target.code.length == 0) {... */\n    tag_282:\n        /* \"@openzeppelin/contracts/utils/Address.sol\":5180:5190  returndata */\n      dup2\n        /* \"@openzeppelin/contracts/utils/Address.sol\":5173:5190  return returndata */\n      swap1\n      pop\n      jump(tag_276)\n        /* \"@openzeppelin/contracts/utils/Address.sol\":4793:5201  if (!success) {... */\n    tag_280:\n        /* \"@openzeppelin/contracts/utils/Address.sol\":4625:5207  function verifyCallResultFromTarget(... */\n    tag_276:\n      swap4\n      swap3\n      pop\n      pop\n      pop\n      jump\t// out\n        /* \"@openzeppelin/contracts/utils/Address.sol\":5743:6259  function _revert(bytes memory returndata) private pure {... */\n    tag_279:\n        /* \"@openzeppelin/contracts/utils/Address.sol\":5894:5895  0 */\n      0x00\n        /* \"@openzeppelin/contracts/utils/Address.sol\":5874:5884  returndata */\n      dup2\n        /* \"@openzeppelin/contracts/utils/Address.sol\":5874:5891  returndata.length */\n      mload\n        /* \"@openzeppelin/contracts/utils/Address.sol\":5874:5895  returndata.length > 0 */\n      gt\n        /* \"@openzeppelin/contracts/utils/Address.sol\":5870:6253  if (returndata.length > 0) {... */\n      iszero\n      tag_285\n      jumpi\n        /* \"@openzeppelin/contracts/utils/Address.sol\":6102:6112  returndata */\n      dup1\n        /* \"@openzeppelin/contracts/utils/Address.sol\":6096:6113  mload(returndata) */\n      mload\n        /* \"@openzeppelin/contracts/utils/Address.sol\":6158:6173  returndata_size */\n      dup1\n        /* \"@openzeppelin/contracts/utils/Address.sol\":6145:6155  returndata */\n      dup3\n        /* \"@openzeppelin/contracts/utils/Address.sol\":6141:6143  32 */\n      0x20\n        /* \"@openzeppelin/contracts/utils/Address.sol\":6137:6156  add(32, returndata) */\n      add\n        /* \"@openzeppelin/contracts/utils/Address.sol\":6130:6174  revert(add(32, returndata), returndata_size) */\n      revert\n        /* \"@openzeppelin/contracts/utils/Address.sol\":5870:6253  if (returndata.length > 0) {... */\n    tag_285:\n        /* \"@openzeppelin/contracts/utils/Address.sol\":6225:6242  FailedInnerCall() */\n      mload(0x40)\n      0x1425ea4200000000000000000000000000000000000000000000000000000000\n      dup2\n      mstore\n      0x04\n      add\n      mload(0x40)\n      dup1\n      swap2\n      sub\n      swap1\n      revert\n        /* \"#utility.yul\":7:82   */\n    tag_287:\n        /* \"#utility.yul\":40:46   */\n      0x00\n        /* \"#utility.yul\":73:75   */\n      0x40\n        /* \"#utility.yul\":67:76   */\n      mload\n        /* \"#utility.yul\":57:76   */\n      swap1\n      pop\n        /* \"#utility.yul\":7:82   */\n      swap1\n      jump\t// out\n        /* \"#utility.yul\":88:205   */\n    tag_288:\n        /* \"#utility.yul\":197:198   */\n      0x00\n        /* \"#utility.yul\":194:195   */\n      dup1\n        /* \"#utility.yul\":187:199   */\n      revert\n        /* \"#utility.yul\":211:328   */\n    tag_289:\n        /* \"#utility.yul\":320:321   */\n      0x00\n        /* \"#utility.yul\":317:318   */\n      dup1\n        /* \"#utility.yul\":310:322   */\n      revert\n        /* \"#utility.yul\":334:460   */\n    tag_290:\n        /* \"#utility.yul\":371:378   */\n      0x00\n        /* \"#utility.yul\":411:453   */\n      0xffffffffffffffffffffffffffffffffffffffff\n        /* \"#utility.yul\":404:409   */\n      dup3\n        /* \"#utility.yul\":400:454   */\n      and\n        /* \"#utility.yul\":389:454   */\n      swap1\n      pop\n        /* \"#utility.yul\":334:460   */\n      swap2\n      swap1\n      pop\n      jump\t// out\n        /* \"#utility.yul\":466:562   */\n    tag_291:\n        /* \"#utility.yul\":503:510   */\n      0x00\n        /* \"#utility.yul\":532:556   */\n      tag_338\n        /* \"#utility.yul\":550:555   */\n      dup3\n        /* \"#utility.yul\":532:556   */\n      tag_290\n      jump\t// in\n    tag_338:\n        /* \"#utility.yul\":521:556   */\n      swap1\n      pop\n        /* \"#utility.yul\":466:562   */\n      swap2\n      swap1\n      pop\n      jump\t// out\n        /* \"#utility.yul\":568:690   */\n    tag_292:\n        /* \"#utility.yul\":641:665   */\n      tag_340\n        /* \"#utility.yul\":659:664   */\n      dup2\n        /* \"#utility.yul\":641:665   */\n      tag_291\n      jump\t// in\n    tag_340:\n        /* \"#utility.yul\":634:639   */\n      dup2\n        /* \"#utility.yul\":631:666   */\n      eq\n        /* \"#utility.yul\":621:684   */\n      tag_341\n      jumpi\n        /* \"#utility.yul\":680:681   */\n      0x00\n        /* \"#utility.yul\":677:678   */\n      dup1\n        /* \"#utility.yul\":670:682   */\n      revert\n        /* \"#utility.yul\":621:684   */\n    tag_341:\n        /* \"#utility.yul\":568:690   */\n      pop\n      jump\t// out\n        /* \"#utility.yul\":696:835   */\n    tag_293:\n        /* \"#utility.yul\":742:747   */\n      0x00\n        /* \"#utility.yul\":780:786   */\n      dup2\n        /* \"#utility.yul\":767:787   */\n      calldataload\n        /* \"#utility.yul\":758:787   */\n      swap1\n      pop\n        /* \"#utility.yul\":796:829   */\n      tag_343\n        /* \"#utility.yul\":823:828   */\n      dup2\n        /* \"#utility.yul\":796:829   */\n      tag_292\n      jump\t// in\n    tag_343:\n        /* \"#utility.yul\":696:835   */\n      swap3\n      swap2\n      pop\n      pop\n      jump\t// out\n        /* \"#utility.yul\":841:1170   */\n    tag_29:\n        /* \"#utility.yul\":900:906   */\n      0x00\n        /* \"#utility.yul\":949:951   */\n      0x20\n        /* \"#utility.yul\":937:946   */\n      dup3\n        /* \"#utility.yul\":928:935   */\n      dup5\n        /* \"#utility.yul\":924:947   */\n      sub\n        /* \"#utility.yul\":920:952   */\n      slt\n        /* \"#utility.yul\":917:1036   */\n      iszero\n      tag_345\n      jumpi\n        /* \"#utility.yul\":955:1034   */\n      tag_346\n      tag_288\n      jump\t// in\n    tag_346:\n        /* \"#utility.yul\":917:1036   */\n    tag_345:\n        /* \"#utility.yul\":1075:1076   */\n      0x00\n        /* \"#utility.yul\":1100:1153   */\n      tag_347\n        /* \"#utility.yul\":1145:1152   */\n      dup5\n        /* \"#utility.yul\":1136:1142   */\n      dup3\n        /* \"#utility.yul\":1125:1134   */\n      dup6\n        /* \"#utility.yul\":1121:1143   */\n      add\n        /* \"#utility.yul\":1100:1153   */\n      tag_293\n      jump\t// in\n    tag_347:\n        /* \"#utility.yul\":1090:1153   */\n      swap2\n      pop\n        /* \"#utility.yul\":1046:1163   */\n      pop\n        /* \"#utility.yul\":841:1170   */\n      swap3\n      swap2\n      pop\n      pop\n      jump\t// out\n        /* \"#utility.yul\":1176:1650   */\n    tag_33:\n        /* \"#utility.yul\":1244:1250   */\n      0x00\n        /* \"#utility.yul\":1252:1258   */\n      dup1\n        /* \"#utility.yul\":1301:1303   */\n      0x40\n        /* \"#utility.yul\":1289:1298   */\n      dup4\n        /* \"#utility.yul\":1280:1287   */\n      dup6\n        /* \"#utility.yul\":1276:1299   */\n      sub\n        /* \"#utility.yul\":1272:1304   */\n      slt\n        /* \"#utility.yul\":1269:1388   */\n      iszero\n      tag_349\n      jumpi\n        /* \"#utility.yul\":1307:1386   */\n      tag_350\n      tag_288\n      jump\t// in\n    tag_350:\n        /* \"#utility.yul\":1269:1388   */\n    tag_349:\n        /* \"#utility.yul\":1427:1428   */\n      0x00\n        /* \"#utility.yul\":1452:1505   */\n      tag_351\n        /* \"#utility.yul\":1497:1504   */\n      dup6\n        /* \"#utility.yul\":1488:1494   */\n      dup3\n        /* \"#utility.yul\":1477:1486   */\n      dup7\n        /* \"#utility.yul\":1473:1495   */\n      add\n        /* \"#utility.yul\":1452:1505   */\n      tag_293\n      jump\t// in\n    tag_351:\n        /* \"#utility.yul\":1442:1505   */\n      swap3\n      pop\n        /* \"#utility.yul\":1398:1515   */\n      pop\n        /* \"#utility.yul\":1554:1556   */\n      0x20\n        /* \"#utility.yul\":1580:1633   */\n      tag_352\n        /* \"#utility.yul\":1625:1632   */\n      dup6\n        /* \"#utility.yul\":1616:1622   */\n      dup3\n        /* \"#utility.yul\":1605:1614   */\n      dup7\n        /* \"#utility.yul\":1601:1623   */\n      add\n        /* \"#utility.yul\":1580:1633   */\n      tag_293\n      jump\t// in\n    tag_352:\n        /* \"#utility.yul\":1570:1633   */\n      swap2\n      pop\n        /* \"#utility.yul\":1525:1643   */\n      pop\n        /* \"#utility.yul\":1176:1650   */\n      swap3\n      pop\n      swap3\n      swap1\n      pop\n      jump\t// out\n        /* \"#utility.yul\":1656:1733   */\n    tag_294:\n        /* \"#utility.yul\":1693:1700   */\n      0x00\n        /* \"#utility.yul\":1722:1727   */\n      dup2\n        /* \"#utility.yul\":1711:1727   */\n      swap1\n      pop\n        /* \"#utility.yul\":1656:1733   */\n      swap2\n      swap1\n      pop\n      jump\t// out\n        /* \"#utility.yul\":1739:1857   */\n    tag_295:\n        /* \"#utility.yul\":1826:1850   */\n      tag_355\n        /* \"#utility.yul\":1844:1849   */\n      dup2\n        /* \"#utility.yul\":1826:1850   */\n      tag_294\n      jump\t// in\n    tag_355:\n        /* \"#utility.yul\":1821:1824   */\n      dup3\n        /* \"#utility.yul\":1814:1851   */\n      mstore\n        /* \"#utility.yul\":1739:1857   */\n      pop\n      pop\n      jump\t// out\n        /* \"#utility.yul\":1863:2085   */\n    tag_36:\n        /* \"#utility.yul\":1956:1960   */\n      0x00\n        /* \"#utility.yul\":1994:1996   */\n      0x20\n        /* \"#utility.yul\":1983:1992   */\n      dup3\n        /* \"#utility.yul\":1979:1997   */\n      add\n        /* \"#utility.yul\":1971:1997   */\n      swap1\n      pop\n        /* \"#utility.yul\":2007:2078   */\n      tag_357\n        /* \"#utility.yul\":2075:2076   */\n      0x00\n        /* \"#utility.yul\":2064:2073   */\n      dup4\n        /* \"#utility.yul\":2060:2077   */\n      add\n        /* \"#utility.yul\":2051:2057   */\n      dup5\n        /* \"#utility.yul\":2007:2078   */\n      tag_295\n      jump\t// in\n    tag_357:\n        /* \"#utility.yul\":1863:2085   */\n      swap3\n      swap2\n      pop\n      pop\n      jump\t// out\n        /* \"#utility.yul\":2091:2181   */\n    tag_296:\n        /* \"#utility.yul\":2125:2132   */\n      0x00\n        /* \"#utility.yul\":2168:2173   */\n      dup2\n        /* \"#utility.yul\":2161:2174   */\n      iszero\n        /* \"#utility.yul\":2154:2175   */\n      iszero\n        /* \"#utility.yul\":2143:2175   */\n      swap1\n      pop\n        /* \"#utility.yul\":2091:2181   */\n      swap2\n      swap1\n      pop\n      jump\t// out\n        /* \"#utility.yul\":2187:2296   */\n    tag_297:\n        /* \"#utility.yul\":2268:2289   */\n      tag_360\n        /* \"#utility.yul\":2283:2288   */\n      dup2\n        /* \"#utility.yul\":2268:2289   */\n      tag_296\n      jump\t// in\n    tag_360:\n        /* \"#utility.yul\":2263:2266   */\n      dup3\n        /* \"#utility.yul\":2256:2290   */\n      mstore\n        /* \"#utility.yul\":2187:2296   */\n      pop\n      pop\n      jump\t// out\n        /* \"#utility.yul\":2302:2512   */\n    tag_44:\n        /* \"#utility.yul\":2389:2393   */\n      0x00\n        /* \"#utility.yul\":2427:2429   */\n      0x20\n        /* \"#utility.yul\":2416:2425   */\n      dup3\n        /* \"#utility.yul\":2412:2430   */\n      add\n        /* \"#utility.yul\":2404:2430   */\n      swap1\n      pop\n        /* \"#utility.yul\":2440:2505   */\n      tag_362\n        /* \"#utility.yul\":2502:2503   */\n      0x00\n        /* \"#utility.yul\":2491:2500   */\n      dup4\n        /* \"#utility.yul\":2487:2504   */\n      add\n        /* \"#utility.yul\":2478:2484   */\n      dup5\n        /* \"#utility.yul\":2440:2505   */\n      tag_297\n      jump\t// in\n    tag_362:\n        /* \"#utility.yul\":2302:2512   */\n      swap3\n      swap2\n      pop\n      pop\n      jump\t// out\n        /* \"#utility.yul\":2518:2636   */\n    tag_298:\n        /* \"#utility.yul\":2605:2629   */\n      tag_364\n        /* \"#utility.yul\":2623:2628   */\n      dup2\n        /* \"#utility.yul\":2605:2629   */\n      tag_291\n      jump\t// in\n    tag_364:\n        /* \"#utility.yul\":2600:2603   */\n      dup3\n        /* \"#utility.yul\":2593:2630   */\n      mstore\n        /* \"#utility.yul\":2518:2636   */\n      pop\n      pop\n      jump\t// out\n        /* \"#utility.yul\":2642:2864   */\n    tag_57:\n        /* \"#utility.yul\":2735:2739   */\n      0x00\n        /* \"#utility.yul\":2773:2775   */\n      0x20\n        /* \"#utility.yul\":2762:2771   */\n      dup3\n        /* \"#utility.yul\":2758:2776   */\n      add\n        /* \"#utility.yul\":2750:2776   */\n      swap1\n      pop\n        /* \"#utility.yul\":2786:2857   */\n      tag_366\n        /* \"#utility.yul\":2854:2855   */\n      0x00\n        /* \"#utility.yul\":2843:2852   */\n      dup4\n        /* \"#utility.yul\":2839:2856   */\n      add\n        /* \"#utility.yul\":2830:2836   */\n      dup5\n        /* \"#utility.yul\":2786:2857   */\n      tag_298\n      jump\t// in\n    tag_366:\n        /* \"#utility.yul\":2642:2864   */\n      swap3\n      swap2\n      pop\n      pop\n      jump\t// out\n        /* \"#utility.yul\":2870:2992   */\n    tag_299:\n        /* \"#utility.yul\":2943:2967   */\n      tag_368\n        /* \"#utility.yul\":2961:2966   */\n      dup2\n        /* \"#utility.yul\":2943:2967   */\n      tag_294\n      jump\t// in\n    tag_368:\n        /* \"#utility.yul\":2936:2941   */\n      dup2\n        /* \"#utility.yul\":2933:2968   */\n      eq\n        /* \"#utility.yul\":2923:2986   */\n      tag_369\n      jumpi\n        /* \"#utility.yul\":2982:2983   */\n      0x00\n        /* \"#utility.yul\":2979:2980   */\n      dup1\n        /* \"#utility.yul\":2972:2984   */\n      revert\n        /* \"#utility.yul\":2923:2986   */\n    tag_369:\n        /* \"#utility.yul\":2870:2992   */\n      pop\n      jump\t// out\n        /* \"#utility.yul\":2998:3137   */\n    tag_300:\n        /* \"#utility.yul\":3044:3049   */\n      0x00\n        /* \"#utility.yul\":3082:3088   */\n      dup2\n        /* \"#utility.yul\":3069:3089   */\n      calldataload\n        /* \"#utility.yul\":3060:3089   */\n      swap1\n      pop\n        /* \"#utility.yul\":3098:3131   */\n      tag_371\n        /* \"#utility.yul\":3125:3130   */\n      dup2\n        /* \"#utility.yul\":3098:3131   */\n      tag_299\n      jump\t// in\n    tag_371:\n        /* \"#utility.yul\":2998:3137   */\n      swap3\n      swap2\n      pop\n      pop\n      jump\t// out\n        /* \"#utility.yul\":3143:3260   */\n    tag_301:\n        /* \"#utility.yul\":3252:3253   */\n      0x00\n        /* \"#utility.yul\":3249:3250   */\n      dup1\n        /* \"#utility.yul\":3242:3254   */\n      revert\n        /* \"#utility.yul\":3266:3383   */\n    tag_302:\n        /* \"#utility.yul\":3375:3376   */\n      0x00\n        /* \"#utility.yul\":3372:3373   */\n      dup1\n        /* \"#utility.yul\":3365:3377   */\n      revert\n        /* \"#utility.yul\":3389:3491   */\n    tag_303:\n        /* \"#utility.yul\":3430:3436   */\n      0x00\n        /* \"#utility.yul\":3481:3483   */\n      0x1f\n        /* \"#utility.yul\":3477:3484   */\n      not\n        /* \"#utility.yul\":3472:3474   */\n      0x1f\n        /* \"#utility.yul\":3465:3470   */\n      dup4\n        /* \"#utility.yul\":3461:3475   */\n      add\n        /* \"#utility.yul\":3457:3485   */\n      and\n        /* \"#utility.yul\":3447:3485   */\n      swap1\n      pop\n        /* \"#utility.yul\":3389:3491   */\n      swap2\n      swap1\n      pop\n      jump\t// out\n        /* \"#utility.yul\":3497:3677   */\n    tag_304:\n        /* \"#utility.yul\":3545:3622   */\n      0x4e487b7100000000000000000000000000000000000000000000000000000000\n        /* \"#utility.yul\":3542:3543   */\n      0x00\n        /* \"#utility.yul\":3535:3623   */\n      mstore\n        /* \"#utility.yul\":3642:3646   */\n      0x41\n        /* \"#utility.yul\":3639:3640   */\n      0x04\n        /* \"#utility.yul\":3632:3647   */\n      mstore\n        /* \"#utility.yul\":3666:3670   */\n      0x24\n        /* \"#utility.yul\":3663:3664   */\n      0x00\n        /* \"#utility.yul\":3656:3671   */\n      revert\n        /* \"#utility.yul\":3683:3964   */\n    tag_305:\n        /* \"#utility.yul\":3766:3793   */\n      tag_377\n        /* \"#utility.yul\":3788:3792   */\n      dup3\n        /* \"#utility.yul\":3766:3793   */\n      tag_303\n      jump\t// in\n    tag_377:\n        /* \"#utility.yul\":3758:3764   */\n      dup2\n        /* \"#utility.yul\":3754:3794   */\n      add\n        /* \"#utility.yul\":3896:3902   */\n      dup2\n        /* \"#utility.yul\":3884:3894   */\n      dup2\n        /* \"#utility.yul\":3881:3903   */\n      lt\n        /* \"#utility.yul\":3860:3878   */\n      0xffffffffffffffff\n        /* \"#utility.yul\":3848:3858   */\n      dup3\n        /* \"#utility.yul\":3845:3879   */\n      gt\n        /* \"#utility.yul\":3842:3904   */\n      or\n        /* \"#utility.yul\":3839:3927   */\n      iszero\n      tag_378\n      jumpi\n        /* \"#utility.yul\":3907:3925   */\n      tag_379\n      tag_304\n      jump\t// in\n    tag_379:\n        /* \"#utility.yul\":3839:3927   */\n    tag_378:\n        /* \"#utility.yul\":3947:3957   */\n      dup1\n        /* \"#utility.yul\":3943:3945   */\n      0x40\n        /* \"#utility.yul\":3936:3958   */\n      mstore\n        /* \"#utility.yul\":3726:3964   */\n      pop\n        /* \"#utility.yul\":3683:3964   */\n      pop\n      pop\n      jump\t// out\n        /* \"#utility.yul\":3970:4099   */\n    tag_306:\n        /* \"#utility.yul\":4004:4010   */\n      0x00\n        /* \"#utility.yul\":4031:4051   */\n      tag_381\n      tag_287\n      jump\t// in\n    tag_381:\n        /* \"#utility.yul\":4021:4051   */\n      swap1\n      pop\n        /* \"#utility.yul\":4060:4093   */\n      tag_382\n        /* \"#utility.yul\":4088:4092   */\n      dup3\n        /* \"#utility.yul\":4080:4086   */\n      dup3\n        /* \"#utility.yul\":4060:4093   */\n      tag_305\n      jump\t// in\n    tag_382:\n        /* \"#utility.yul\":3970:4099   */\n      swap2\n      swap1\n      pop\n      jump\t// out\n        /* \"#utility.yul\":4105:4413   */\n    tag_307:\n        /* \"#utility.yul\":4167:4171   */\n      0x00\n        /* \"#utility.yul\":4257:4275   */\n      0xffffffffffffffff\n        /* \"#utility.yul\":4249:4255   */\n      dup3\n        /* \"#utility.yul\":4246:4276   */\n      gt\n        /* \"#utility.yul\":4243:4299   */\n      iszero\n      tag_384\n      jumpi\n        /* \"#utility.yul\":4279:4297   */\n      tag_385\n      tag_304\n      jump\t// in\n    tag_385:\n        /* \"#utility.yul\":4243:4299   */\n    tag_384:\n        /* \"#utility.yul\":4317:4346   */\n      tag_386\n        /* \"#utility.yul\":4339:4345   */\n      dup3\n        /* \"#utility.yul\":4317:4346   */\n      tag_303\n      jump\t// in\n    tag_386:\n        /* \"#utility.yul\":4309:4346   */\n      swap1\n      pop\n        /* \"#utility.yul\":4401:4405   */\n      0x20\n        /* \"#utility.yul\":4395:4399   */\n      dup2\n        /* \"#utility.yul\":4391:4406   */\n      add\n        /* \"#utility.yul\":4383:4406   */\n      swap1\n      pop\n        /* \"#utility.yul\":4105:4413   */\n      swap2\n      swap1\n      pop\n      jump\t// out\n        /* \"#utility.yul\":4419:4565   */\n    tag_308:\n        /* \"#utility.yul\":4516:4522   */\n      dup3\n        /* \"#utility.yul\":4511:4514   */\n      dup2\n        /* \"#utility.yul\":4506:4509   */\n      dup4\n        /* \"#utility.yul\":4493:4523   */\n      calldatacopy\n        /* \"#utility.yul\":4557:4558   */\n      0x00\n        /* \"#utility.yul\":4548:4554   */\n      dup4\n        /* \"#utility.yul\":4543:4546   */\n      dup4\n        /* \"#utility.yul\":4539:4555   */\n      add\n        /* \"#utility.yul\":4532:4559   */\n      mstore\n        /* \"#utility.yul\":4419:4565   */\n      pop\n      pop\n      pop\n      jump\t// out\n        /* \"#utility.yul\":4571:4996   */\n    tag_309:\n        /* \"#utility.yul\":4649:4654   */\n      0x00\n        /* \"#utility.yul\":4674:4740   */\n      tag_389\n        /* \"#utility.yul\":4690:4739   */\n      tag_390\n        /* \"#utility.yul\":4732:4738   */\n      dup5\n        /* \"#utility.yul\":4690:4739   */\n      tag_307\n      jump\t// in\n    tag_390:\n        /* \"#utility.yul\":4674:4740   */\n      tag_306\n      jump\t// in\n    tag_389:\n        /* \"#utility.yul\":4665:4740   */\n      swap1\n      pop\n        /* \"#utility.yul\":4763:4769   */\n      dup3\n        /* \"#utility.yul\":4756:4761   */\n      dup2\n        /* \"#utility.yul\":4749:4770   */\n      mstore\n        /* \"#utility.yul\":4801:4805   */\n      0x20\n        /* \"#utility.yul\":4794:4799   */\n      dup2\n        /* \"#utility.yul\":4790:4806   */\n      add\n        /* \"#utility.yul\":4839:4842   */\n      dup5\n        /* \"#utility.yul\":4830:4836   */\n      dup5\n        /* \"#utility.yul\":4825:4828   */\n      dup5\n        /* \"#utility.yul\":4821:4837   */\n      add\n        /* \"#utility.yul\":4818:4843   */\n      gt\n        /* \"#utility.yul\":4815:4927   */\n      iszero\n      tag_391\n      jumpi\n        /* \"#utility.yul\":4846:4925   */\n      tag_392\n      tag_302\n      jump\t// in\n    tag_392:\n        /* \"#utility.yul\":4815:4927   */\n    tag_391:\n        /* \"#utility.yul\":4936:4990   */\n      tag_393\n        /* \"#utility.yul\":4983:4989   */\n      dup5\n        /* \"#utility.yul\":4978:4981   */\n      dup3\n        /* \"#utility.yul\":4973:4976   */\n      dup6\n        /* \"#utility.yul\":4936:4990   */\n      tag_308\n      jump\t// in\n    tag_393:\n        /* \"#utility.yul\":4655:4996   */\n      pop\n        /* \"#utility.yul\":4571:4996   */\n      swap4\n      swap3\n      pop\n      pop\n      pop\n      jump\t// out\n        /* \"#utility.yul\":5016:5356   */\n    tag_310:\n        /* \"#utility.yul\":5072:5077   */\n      0x00\n        /* \"#utility.yul\":5121:5124   */\n      dup3\n        /* \"#utility.yul\":5114:5118   */\n      0x1f\n        /* \"#utility.yul\":5106:5112   */\n      dup4\n        /* \"#utility.yul\":5102:5119   */\n      add\n        /* \"#utility.yul\":5098:5125   */\n      slt\n        /* \"#utility.yul\":5088:5210   */\n      tag_395\n      jumpi\n        /* \"#utility.yul\":5129:5208   */\n      tag_396\n      tag_301\n      jump\t// in\n    tag_396:\n        /* \"#utility.yul\":5088:5210   */\n    tag_395:\n        /* \"#utility.yul\":5246:5252   */\n      dup2\n        /* \"#utility.yul\":5233:5253   */\n      calldataload\n        /* \"#utility.yul\":5271:5350   */\n      tag_397\n        /* \"#utility.yul\":5346:5349   */\n      dup5\n        /* \"#utility.yul\":5338:5344   */\n      dup3\n        /* \"#utility.yul\":5331:5335   */\n      0x20\n        /* \"#utility.yul\":5323:5329   */\n      dup7\n        /* \"#utility.yul\":5319:5336   */\n      add\n        /* \"#utility.yul\":5271:5350   */\n      tag_309\n      jump\t// in\n    tag_397:\n        /* \"#utility.yul\":5262:5350   */\n      swap2\n      pop\n        /* \"#utility.yul\":5078:5356   */\n      pop\n        /* \"#utility.yul\":5016:5356   */\n      swap3\n      swap2\n      pop\n      pop\n      jump\t// out\n        /* \"#utility.yul\":5362:6161   */\n    tag_78:\n        /* \"#utility.yul\":5449:5455   */\n      0x00\n        /* \"#utility.yul\":5457:5463   */\n      dup1\n        /* \"#utility.yul\":5465:5471   */\n      0x00\n        /* \"#utility.yul\":5514:5516   */\n      0x60\n        /* \"#utility.yul\":5502:5511   */\n      dup5\n        /* \"#utility.yul\":5493:5500   */\n      dup7\n        /* \"#utility.yul\":5489:5512   */\n      sub\n        /* \"#utility.yul\":5485:5517   */\n      slt\n        /* \"#utility.yul\":5482:5601   */\n      iszero\n      tag_399\n      jumpi\n        /* \"#utility.yul\":5520:5599   */\n      tag_400\n      tag_288\n      jump\t// in\n    tag_400:\n        /* \"#utility.yul\":5482:5601   */\n    tag_399:\n        /* \"#utility.yul\":5640:5641   */\n      0x00\n        /* \"#utility.yul\":5665:5718   */\n      tag_401\n        /* \"#utility.yul\":5710:5717   */\n      dup7\n        /* \"#utility.yul\":5701:5707   */\n      dup3\n        /* \"#utility.yul\":5690:5699   */\n      dup8\n        /* \"#utility.yul\":5686:5708   */\n      add\n        /* \"#utility.yul\":5665:5718   */\n      tag_293\n      jump\t// in\n    tag_401:\n        /* \"#utility.yul\":5655:5718   */\n      swap4\n      pop\n        /* \"#utility.yul\":5611:5728   */\n      pop\n        /* \"#utility.yul\":5767:5769   */\n      0x20\n        /* \"#utility.yul\":5793:5846   */\n      tag_402\n        /* \"#utility.yul\":5838:5845   */\n      dup7\n        /* \"#utility.yul\":5829:5835   */\n      dup3\n        /* \"#utility.yul\":5818:5827   */\n      dup8\n        /* \"#utility.yul\":5814:5836   */\n      add\n        /* \"#utility.yul\":5793:5846   */\n      tag_300\n      jump\t// in\n    tag_402:\n        /* \"#utility.yul\":5783:5846   */\n      swap3\n      pop\n        /* \"#utility.yul\":5738:5856   */\n      pop\n        /* \"#utility.yul\":5923:5925   */\n      0x40\n        /* \"#utility.yul\":5912:5921   */\n      dup5\n        /* \"#utility.yul\":5908:5926   */\n      add\n        /* \"#utility.yul\":5895:5927   */\n      calldataload\n        /* \"#utility.yul\":5954:5972   */\n      0xffffffffffffffff\n        /* \"#utility.yul\":5946:5952   */\n      dup2\n        /* \"#utility.yul\":5943:5973   */\n      gt\n        /* \"#utility.yul\":5940:6057   */\n      iszero\n      tag_403\n      jumpi\n        /* \"#utility.yul\":5976:6055   */\n      tag_404\n      tag_289\n      jump\t// in\n    tag_404:\n        /* \"#utility.yul\":5940:6057   */\n    tag_403:\n        /* \"#utility.yul\":6081:6144   */\n      tag_405\n        /* \"#utility.yul\":6136:6143   */\n      dup7\n        /* \"#utility.yul\":6127:6133   */\n      dup3\n        /* \"#utility.yul\":6116:6125   */\n      dup8\n        /* \"#utility.yul\":6112:6134   */\n      add\n        /* \"#utility.yul\":6081:6144   */\n      tag_310\n      jump\t// in\n    tag_405:\n        /* \"#utility.yul\":6071:6144   */\n      swap2\n      pop\n        /* \"#utility.yul\":5866:6154   */\n      pop\n        /* \"#utility.yul\":5362:6161   */\n      swap3\n      pop\n      swap3\n      pop\n      swap3\n      jump\t// out\n        /* \"#utility.yul\":6167:6786   */\n    tag_85:\n        /* \"#utility.yul\":6244:6250   */\n      0x00\n        /* \"#utility.yul\":6252:6258   */\n      dup1\n        /* \"#utility.yul\":6260:6266   */\n      0x00\n        /* \"#utility.yul\":6309:6311   */\n      0x60\n        /* \"#utility.yul\":6297:6306   */\n      dup5\n        /* \"#utility.yul\":6288:6295   */\n      dup7\n        /* \"#utility.yul\":6284:6307   */\n      sub\n        /* \"#utility.yul\":6280:6312   */\n      slt\n        /* \"#utility.yul\":6277:6396   */\n      iszero\n      tag_407\n      jumpi\n        /* \"#utility.yul\":6315:6394   */\n      tag_408\n      tag_288\n      jump\t// in\n    tag_408:\n        /* \"#utility.yul\":6277:6396   */\n    tag_407:\n        /* \"#utility.yul\":6435:6436   */\n      0x00\n        /* \"#utility.yul\":6460:6513   */\n      tag_409\n        /* \"#utility.yul\":6505:6512   */\n      dup7\n        /* \"#utility.yul\":6496:6502   */\n      dup3\n        /* \"#utility.yul\":6485:6494   */\n      dup8\n        /* \"#utility.yul\":6481:6503   */\n      add\n        /* \"#utility.yul\":6460:6513   */\n      tag_293\n      jump\t// in\n    tag_409:\n        /* \"#utility.yul\":6450:6513   */\n      swap4\n      pop\n        /* \"#utility.yul\":6406:6523   */\n      pop\n        /* \"#utility.yul\":6562:6564   */\n      0x20\n        /* \"#utility.yul\":6588:6641   */\n      tag_410\n        /* \"#utility.yul\":6633:6640   */\n      dup7\n        /* \"#utility.yul\":6624:6630   */\n      dup3\n        /* \"#utility.yul\":6613:6622   */\n      dup8\n        /* \"#utility.yul\":6609:6631   */\n      add\n        /* \"#utility.yul\":6588:6641   */\n      tag_300\n      jump\t// in\n    tag_410:\n        /* \"#utility.yul\":6578:6641   */\n      swap3\n      pop\n        /* \"#utility.yul\":6533:6651   */\n      pop\n        /* \"#utility.yul\":6690:6692   */\n      0x40\n        /* \"#utility.yul\":6716:6769   */\n      tag_411\n        /* \"#utility.yul\":6761:6768   */\n      dup7\n        /* \"#utility.yul\":6752:6758   */\n      dup3\n        /* \"#utility.yul\":6741:6750   */\n      dup8\n        /* \"#utility.yul\":6737:6759   */\n      add\n        /* \"#utility.yul\":6716:6769   */\n      tag_293\n      jump\t// in\n    tag_411:\n        /* \"#utility.yul\":6706:6769   */\n      swap2\n      pop\n        /* \"#utility.yul\":6661:6779   */\n      pop\n        /* \"#utility.yul\":6167:6786   */\n      swap3\n      pop\n      swap3\n      pop\n      swap3\n      jump\t// out\n        /* \"#utility.yul\":6792:7121   */\n    tag_93:\n        /* \"#utility.yul\":6851:6857   */\n      0x00\n        /* \"#utility.yul\":6900:6902   */\n      0x20\n        /* \"#utility.yul\":6888:6897   */\n      dup3\n        /* \"#utility.yul\":6879:6886   */\n      dup5\n        /* \"#utility.yul\":6875:6898   */\n      sub\n        /* \"#utility.yul\":6871:6903   */\n      slt\n        /* \"#utility.yul\":6868:6987   */\n      iszero\n      tag_413\n      jumpi\n        /* \"#utility.yul\":6906:6985   */\n      tag_414\n      tag_288\n      jump\t// in\n    tag_414:\n        /* \"#utility.yul\":6868:6987   */\n    tag_413:\n        /* \"#utility.yul\":7026:7027   */\n      0x00\n        /* \"#utility.yul\":7051:7104   */\n      tag_415\n        /* \"#utility.yul\":7096:7103   */\n      dup5\n        /* \"#utility.yul\":7087:7093   */\n      dup3\n        /* \"#utility.yul\":7076:7085   */\n      dup6\n        /* \"#utility.yul\":7072:7094   */\n      add\n        /* \"#utility.yul\":7051:7104   */\n      tag_300\n      jump\t// in\n    tag_415:\n        /* \"#utility.yul\":7041:7104   */\n      swap2\n      pop\n        /* \"#utility.yul\":6997:7114   */\n      pop\n        /* \"#utility.yul\":6792:7121   */\n      swap3\n      swap2\n      pop\n      pop\n      jump\t// out\n        /* \"#utility.yul\":7127:7781   */\n    tag_105:\n        /* \"#utility.yul\":7205:7211   */\n      0x00\n        /* \"#utility.yul\":7213:7219   */\n      dup1\n        /* \"#utility.yul\":7262:7264   */\n      0x40\n        /* \"#utility.yul\":7250:7259   */\n      dup4\n        /* \"#utility.yul\":7241:7248   */\n      dup6\n        /* \"#utility.yul\":7237:7260   */\n      sub\n        /* \"#utility.yul\":7233:7265   */\n      slt\n        /* \"#utility.yul\":7230:7349   */\n      iszero\n      tag_417\n      jumpi\n        /* \"#utility.yul\":7268:7347   */\n      tag_418\n      tag_288\n      jump\t// in\n    tag_418:\n        /* \"#utility.yul\":7230:7349   */\n    tag_417:\n        /* \"#utility.yul\":7388:7389   */\n      0x00\n        /* \"#utility.yul\":7413:7466   */\n      tag_419\n        /* \"#utility.yul\":7458:7465   */\n      dup6\n        /* \"#utility.yul\":7449:7455   */\n      dup3\n        /* \"#utility.yul\":7438:7447   */\n      dup7\n        /* \"#utility.yul\":7434:7456   */\n      add\n        /* \"#utility.yul\":7413:7466   */\n      tag_293\n      jump\t// in\n    tag_419:\n        /* \"#utility.yul\":7403:7466   */\n      swap3\n      pop\n        /* \"#utility.yul\":7359:7476   */\n      pop\n        /* \"#utility.yul\":7543:7545   */\n      0x20\n        /* \"#utility.yul\":7532:7541   */\n      dup4\n        /* \"#utility.yul\":7528:7546   */\n      add\n        /* \"#utility.yul\":7515:7547   */\n      calldataload\n        /* \"#utility.yul\":7574:7592   */\n      0xffffffffffffffff\n        /* \"#utility.yul\":7566:7572   */\n      dup2\n        /* \"#utility.yul\":7563:7593   */\n      gt\n        /* \"#utility.yul\":7560:7677   */\n      iszero\n      tag_420\n      jumpi\n        /* \"#utility.yul\":7596:7675   */\n      tag_421\n      tag_289\n      jump\t// in\n    tag_421:\n        /* \"#utility.yul\":7560:7677   */\n    tag_420:\n        /* \"#utility.yul\":7701:7764   */\n      tag_422\n        /* \"#utility.yul\":7756:7763   */\n      dup6\n        /* \"#utility.yul\":7747:7753   */\n      dup3\n        /* \"#utility.yul\":7736:7745   */\n      dup7\n        /* \"#utility.yul\":7732:7754   */\n      add\n        /* \"#utility.yul\":7701:7764   */\n      tag_310\n      jump\t// in\n    tag_422:\n        /* \"#utility.yul\":7691:7764   */\n      swap2\n      pop\n        /* \"#utility.yul\":7486:7774   */\n      pop\n        /* \"#utility.yul\":7127:7781   */\n      swap3\n      pop\n      swap3\n      swap1\n      pop\n      jump\t// out\n        /* \"#utility.yul\":7787:7956   */\n    tag_311:\n        /* \"#utility.yul\":7871:7882   */\n      0x00\n        /* \"#utility.yul\":7905:7911   */\n      dup3\n        /* \"#utility.yul\":7900:7903   */\n      dup3\n        /* \"#utility.yul\":7893:7912   */\n      mstore\n        /* \"#utility.yul\":7945:7949   */\n      0x20\n        /* \"#utility.yul\":7940:7943   */\n      dup3\n        /* \"#utility.yul\":7936:7950   */\n      add\n        /* \"#utility.yul\":7921:7950   */\n      swap1\n      pop\n        /* \"#utility.yul\":7787:7956   */\n      swap3\n      swap2\n      pop\n      pop\n      jump\t// out\n        /* \"#utility.yul\":7962:8140   */\n    tag_312:\n        /* \"#utility.yul\":8102:8132   */\n      0x54686973204164647265737320646f6573206e6f742065786973742100000000\n        /* \"#utility.yul\":8098:8099   */\n      0x00\n        /* \"#utility.yul\":8090:8096   */\n      dup3\n        /* \"#utility.yul\":8086:8100   */\n      add\n        /* \"#utility.yul\":8079:8133   */\n      mstore\n        /* \"#utility.yul\":7962:8140   */\n      pop\n      jump\t// out\n        /* \"#utility.yul\":8146:8512   */\n    tag_313:\n        /* \"#utility.yul\":8288:8291   */\n      0x00\n        /* \"#utility.yul\":8309:8376   */\n      tag_426\n        /* \"#utility.yul\":8373:8375   */\n      0x1c\n        /* \"#utility.yul\":8368:8371   */\n      dup4\n        /* \"#utility.yul\":8309:8376   */\n      tag_311\n      jump\t// in\n    tag_426:\n        /* \"#utility.yul\":8302:8376   */\n      swap2\n      pop\n        /* \"#utility.yul\":8385:8478   */\n      tag_427\n        /* \"#utility.yul\":8474:8477   */\n      dup3\n        /* \"#utility.yul\":8385:8478   */\n      tag_312\n      jump\t// in\n    tag_427:\n        /* \"#utility.yul\":8503:8505   */\n      0x20\n        /* \"#utility.yul\":8498:8501   */\n      dup3\n        /* \"#utility.yul\":8494:8506   */\n      add\n        /* \"#utility.yul\":8487:8506   */\n      swap1\n      pop\n        /* \"#utility.yul\":8146:8512   */\n      swap2\n      swap1\n      pop\n      jump\t// out\n        /* \"#utility.yul\":8518:8937   */\n    tag_114:\n        /* \"#utility.yul\":8684:8688   */\n      0x00\n        /* \"#utility.yul\":8722:8724   */\n      0x20\n        /* \"#utility.yul\":8711:8720   */\n      dup3\n        /* \"#utility.yul\":8707:8725   */\n      add\n        /* \"#utility.yul\":8699:8725   */\n      swap1\n      pop\n        /* \"#utility.yul\":8771:8780   */\n      dup2\n        /* \"#utility.yul\":8765:8769   */\n      dup2\n        /* \"#utility.yul\":8761:8781   */\n      sub\n        /* \"#utility.yul\":8757:8758   */\n      0x00\n        /* \"#utility.yul\":8746:8755   */\n      dup4\n        /* \"#utility.yul\":8742:8759   */\n      add\n        /* \"#utility.yul\":8735:8782   */\n      mstore\n        /* \"#utility.yul\":8799:8930   */\n      tag_429\n        /* \"#utility.yul\":8925:8929   */\n      dup2\n        /* \"#utility.yul\":8799:8930   */\n      tag_313\n      jump\t// in\n    tag_429:\n        /* \"#utility.yul\":8791:8930   */\n      swap1\n      pop\n        /* \"#utility.yul\":8518:8937   */\n      swap2\n      swap1\n      pop\n      jump\t// out\n        /* \"#utility.yul\":8943:9166   */\n    tag_314:\n        /* \"#utility.yul\":9083:9117   */\n      0x54686973204164647265737320697320616c72656164792057686974654c6973\n        /* \"#utility.yul\":9079:9080   */\n      0x00\n        /* \"#utility.yul\":9071:9077   */\n      dup3\n        /* \"#utility.yul\":9067:9081   */\n      add\n        /* \"#utility.yul\":9060:9118   */\n      mstore\n        /* \"#utility.yul\":9152:9158   */\n      0x7465642100000000000000000000000000000000000000000000000000000000\n        /* \"#utility.yul\":9147:9149   */\n      0x20\n        /* \"#utility.yul\":9139:9145   */\n      dup3\n        /* \"#utility.yul\":9135:9150   */\n      add\n        /* \"#utility.yul\":9128:9159   */\n      mstore\n        /* \"#utility.yul\":8943:9166   */\n      pop\n      jump\t// out\n        /* \"#utility.yul\":9172:9538   */\n    tag_315:\n        /* \"#utility.yul\":9314:9317   */\n      0x00\n        /* \"#utility.yul\":9335:9402   */\n      tag_432\n        /* \"#utility.yul\":9399:9401   */\n      0x24\n        /* \"#utility.yul\":9394:9397   */\n      dup4\n        /* \"#utility.yul\":9335:9402   */\n      tag_311\n      jump\t// in\n    tag_432:\n        /* \"#utility.yul\":9328:9402   */\n      swap2\n      pop\n        /* \"#utility.yul\":9411:9504   */\n      tag_433\n        /* \"#utility.yul\":9500:9503   */\n      dup3\n        /* \"#utility.yul\":9411:9504   */\n      tag_314\n      jump\t// in\n    tag_433:\n        /* \"#utility.yul\":9529:9531   */\n      0x40\n        /* \"#utility.yul\":9524:9527   */\n      dup3\n        /* \"#utility.yul\":9520:9532   */\n      add\n        /* \"#utility.yul\":9513:9532   */\n      swap1\n      pop\n        /* \"#utility.yul\":9172:9538   */\n      swap2\n      swap1\n      pop\n      jump\t// out\n        /* \"#utility.yul\":9544:9963   */\n    tag_120:\n        /* \"#utility.yul\":9710:9714   */\n      0x00\n        /* \"#utility.yul\":9748:9750   */\n      0x20\n        /* \"#utility.yul\":9737:9746   */\n      dup3\n        /* \"#utility.yul\":9733:9751   */\n      add\n        /* \"#utility.yul\":9725:9751   */\n      swap1\n      pop\n        /* \"#utility.yul\":9797:9806   */\n      dup2\n        /* \"#utility.yul\":9791:9795   */\n      dup2\n        /* \"#utility.yul\":9787:9807   */\n      sub\n        /* \"#utility.yul\":9783:9784   */\n      0x00\n        /* \"#utility.yul\":9772:9781   */\n      dup4\n        /* \"#utility.yul\":9768:9785   */\n      add\n        /* \"#utility.yul\":9761:9808   */\n      mstore\n        /* \"#utility.yul\":9825:9956   */\n      tag_435\n        /* \"#utility.yul\":9951:9955   */\n      dup2\n        /* \"#utility.yul\":9825:9956   */\n      tag_315\n      jump\t// in\n    tag_435:\n        /* \"#utility.yul\":9817:9956   */\n      swap1\n      pop\n        /* \"#utility.yul\":9544:9963   */\n      swap2\n      swap1\n      pop\n      jump\t// out\n        /* \"#utility.yul\":9969:10301   */\n    tag_134:\n        /* \"#utility.yul\":10090:10094   */\n      0x00\n        /* \"#utility.yul\":10128:10130   */\n      0x40\n        /* \"#utility.yul\":10117:10126   */\n      dup3\n        /* \"#utility.yul\":10113:10131   */\n      add\n        /* \"#utility.yul\":10105:10131   */\n      swap1\n      pop\n        /* \"#utility.yul\":10141:10212   */\n      tag_437\n        /* \"#utility.yul\":10209:10210   */\n      0x00\n        /* \"#utility.yul\":10198:10207   */\n      dup4\n        /* \"#utility.yul\":10194:10211   */\n      add\n        /* \"#utility.yul\":10185:10191   */\n      dup6\n        /* \"#utility.yul\":10141:10212   */\n      tag_298\n      jump\t// in\n    tag_437:\n        /* \"#utility.yul\":10222:10294   */\n      tag_438\n        /* \"#utility.yul\":10290:10292   */\n      0x20\n        /* \"#utility.yul\":10279:10288   */\n      dup4\n        /* \"#utility.yul\":10275:10293   */\n      add\n        /* \"#utility.yul\":10266:10272   */\n      dup5\n        /* \"#utility.yul\":10222:10294   */\n      tag_298\n      jump\t// in\n    tag_438:\n        /* \"#utility.yul\":9969:10301   */\n      swap4\n      swap3\n      pop\n      pop\n      pop\n      jump\t// out\n        /* \"#utility.yul\":10307:10450   */\n    tag_316:\n        /* \"#utility.yul\":10364:10369   */\n      0x00\n        /* \"#utility.yul\":10395:10401   */\n      dup2\n        /* \"#utility.yul\":10389:10402   */\n      mload\n        /* \"#utility.yul\":10380:10402   */\n      swap1\n      pop\n        /* \"#utility.yul\":10411:10444   */\n      tag_440\n        /* \"#utility.yul\":10438:10443   */\n      dup2\n        /* \"#utility.yul\":10411:10444   */\n      tag_299\n      jump\t// in\n    tag_440:\n        /* \"#utility.yul\":10307:10450   */\n      swap3\n      swap2\n      pop\n      pop\n      jump\t// out\n        /* \"#utility.yul\":10456:10807   */\n    tag_138:\n        /* \"#utility.yul\":10526:10532   */\n      0x00\n        /* \"#utility.yul\":10575:10577   */\n      0x20\n        /* \"#utility.yul\":10563:10572   */\n      dup3\n        /* \"#utility.yul\":10554:10561   */\n      dup5\n        /* \"#utility.yul\":10550:10573   */\n      sub\n        /* \"#utility.yul\":10546:10578   */\n      slt\n        /* \"#utility.yul\":10543:10662   */\n      iszero\n      tag_442\n      jumpi\n        /* \"#utility.yul\":10581:10660   */\n      tag_443\n      tag_288\n      jump\t// in\n    tag_443:\n        /* \"#utility.yul\":10543:10662   */\n    tag_442:\n        /* \"#utility.yul\":10701:10702   */\n      0x00\n        /* \"#utility.yul\":10726:10790   */\n      tag_444\n        /* \"#utility.yul\":10782:10789   */\n      dup5\n        /* \"#utility.yul\":10773:10779   */\n      dup3\n        /* \"#utility.yul\":10762:10771   */\n      dup6\n        /* \"#utility.yul\":10758:10780   */\n      add\n        /* \"#utility.yul\":10726:10790   */\n      tag_316\n      jump\t// in\n    tag_444:\n        /* \"#utility.yul\":10716:10790   */\n      swap2\n      pop\n        /* \"#utility.yul\":10672:10800   */\n      pop\n        /* \"#utility.yul\":10456:10807   */\n      swap3\n      swap2\n      pop\n      pop\n      jump\t// out\n        /* \"#utility.yul\":10813:10980   */\n    tag_317:\n        /* \"#utility.yul\":10953:10972   */\n      0x416c6c6f77616e6365206e6f7420736574000000000000000000000000000000\n        /* \"#utility.yul\":10949:10950   */\n      0x00\n        /* \"#utility.yul\":10941:10947   */\n      dup3\n        /* \"#utility.yul\":10937:10951   */\n      add\n        /* \"#utility.yul\":10930:10973   */\n      mstore\n        /* \"#utility.yul\":10813:10980   */\n      pop\n      jump\t// out\n        /* \"#utility.yul\":10986:11352   */\n    tag_318:\n        /* \"#utility.yul\":11128:11131   */\n      0x00\n        /* \"#utility.yul\":11149:11216   */\n      tag_447\n        /* \"#utility.yul\":11213:11215   */\n      0x11\n        /* \"#utility.yul\":11208:11211   */\n      dup4\n        /* \"#utility.yul\":11149:11216   */\n      tag_311\n      jump\t// in\n    tag_447:\n        /* \"#utility.yul\":11142:11216   */\n      swap2\n      pop\n        /* \"#utility.yul\":11225:11318   */\n      tag_448\n        /* \"#utility.yul\":11314:11317   */\n      dup3\n        /* \"#utility.yul\":11225:11318   */\n      tag_317\n      jump\t// in\n    tag_448:\n        /* \"#utility.yul\":11343:11345   */\n      0x20\n        /* \"#utility.yul\":11338:11341   */\n      dup3\n        /* \"#utility.yul\":11334:11346   */\n      add\n        /* \"#utility.yul\":11327:11346   */\n      swap1\n      pop\n        /* \"#utility.yul\":10986:11352   */\n      swap2\n      swap1\n      pop\n      jump\t// out\n        /* \"#utility.yul\":11358:11777   */\n    tag_141:\n        /* \"#utility.yul\":11524:11528   */\n      0x00\n        /* \"#utility.yul\":11562:11564   */\n      0x20\n        /* \"#utility.yul\":11551:11560   */\n      dup3\n        /* \"#utility.yul\":11547:11565   */\n      add\n        /* \"#utility.yul\":11539:11565   */\n      swap1\n      pop\n        /* \"#utility.yul\":11611:11620   */\n      dup2\n        /* \"#utility.yul\":11605:11609   */\n      dup2\n        /* \"#utility.yul\":11601:11621   */\n      sub\n        /* \"#utility.yul\":11597:11598   */\n      0x00\n        /* \"#utility.yul\":11586:11595   */\n      dup4\n        /* \"#utility.yul\":11582:11599   */\n      add\n        /* \"#utility.yul\":11575:11622   */\n      mstore\n        /* \"#utility.yul\":11639:11770   */\n      tag_450\n        /* \"#utility.yul\":11765:11769   */\n      dup2\n        /* \"#utility.yul\":11639:11770   */\n      tag_318\n      jump\t// in\n    tag_450:\n        /* \"#utility.yul\":11631:11770   */\n      swap1\n      pop\n        /* \"#utility.yul\":11358:11777   */\n      swap2\n      swap1\n      pop\n      jump\t// out\n        /* \"#utility.yul\":11783:11953   */\n    tag_319:\n        /* \"#utility.yul\":11923:11945   */\n      0x496e73756666696369656e742062616c616e6365000000000000000000000000\n        /* \"#utility.yul\":11919:11920   */\n      0x00\n        /* \"#utility.yul\":11911:11917   */\n      dup3\n        /* \"#utility.yul\":11907:11921   */\n      add\n        /* \"#utility.yul\":11900:11946   */\n      mstore\n        /* \"#utility.yul\":11783:11953   */\n      pop\n      jump\t// out\n        /* \"#utility.yul\":11959:12325   */\n    tag_320:\n        /* \"#utility.yul\":12101:12104   */\n      0x00\n        /* \"#utility.yul\":12122:12189   */\n      tag_453\n        /* \"#utility.yul\":12186:12188   */\n      0x14\n        /* \"#utility.yul\":12181:12184   */\n      dup4\n        /* \"#utility.yul\":12122:12189   */\n      tag_311\n      jump\t// in\n    tag_453:\n        /* \"#utility.yul\":12115:12189   */\n      swap2\n      pop\n        /* \"#utility.yul\":12198:12291   */\n      tag_454\n        /* \"#utility.yul\":12287:12290   */\n      dup3\n        /* \"#utility.yul\":12198:12291   */\n      tag_319\n      jump\t// in\n    tag_454:\n        /* \"#utility.yul\":12316:12318   */\n      0x20\n        /* \"#utility.yul\":12311:12314   */\n      dup3\n        /* \"#utility.yul\":12307:12319   */\n      add\n        /* \"#utility.yul\":12300:12319   */\n      swap1\n      pop\n        /* \"#utility.yul\":11959:12325   */\n      swap2\n      swap1\n      pop\n      jump\t// out\n        /* \"#utility.yul\":12331:12750   */\n    tag_148:\n        /* \"#utility.yul\":12497:12501   */\n      0x00\n        /* \"#utility.yul\":12535:12537   */\n      0x20\n        /* \"#utility.yul\":12524:12533   */\n      dup3\n        /* \"#utility.yul\":12520:12538   */\n      add\n        /* \"#utility.yul\":12512:12538   */\n      swap1\n      pop\n        /* \"#utility.yul\":12584:12593   */\n      dup2\n        /* \"#utility.yul\":12578:12582   */\n      dup2\n        /* \"#utility.yul\":12574:12594   */\n      sub\n        /* \"#utility.yul\":12570:12571   */\n      0x00\n        /* \"#utility.yul\":12559:12568   */\n      dup4\n        /* \"#utility.yul\":12555:12572   */\n      add\n        /* \"#utility.yul\":12548:12595   */\n      mstore\n        /* \"#utility.yul\":12612:12743   */\n      tag_456\n        /* \"#utility.yul\":12738:12742   */\n      dup2\n        /* \"#utility.yul\":12612:12743   */\n      tag_320\n      jump\t// in\n    tag_456:\n        /* \"#utility.yul\":12604:12743   */\n      swap1\n      pop\n        /* \"#utility.yul\":12331:12750   */\n      swap2\n      swap1\n      pop\n      jump\t// out\n        /* \"#utility.yul\":12756:13198   */\n    tag_151:\n        /* \"#utility.yul\":12905:12909   */\n      0x00\n        /* \"#utility.yul\":12943:12945   */\n      0x60\n        /* \"#utility.yul\":12932:12941   */\n      dup3\n        /* \"#utility.yul\":12928:12946   */\n      add\n        /* \"#utility.yul\":12920:12946   */\n      swap1\n      pop\n        /* \"#utility.yul\":12956:13027   */\n      tag_458\n        /* \"#utility.yul\":13024:13025   */\n      0x00\n        /* \"#utility.yul\":13013:13022   */\n      dup4\n        /* \"#utility.yul\":13009:13026   */\n      add\n        /* \"#utility.yul\":13000:13006   */\n      dup7\n        /* \"#utility.yul\":12956:13027   */\n      tag_298\n      jump\t// in\n    tag_458:\n        /* \"#utility.yul\":13037:13109   */\n      tag_459\n        /* \"#utility.yul\":13105:13107   */\n      0x20\n        /* \"#utility.yul\":13094:13103   */\n      dup4\n        /* \"#utility.yul\":13090:13108   */\n      add\n        /* \"#utility.yul\":13081:13087   */\n      dup6\n        /* \"#utility.yul\":13037:13109   */\n      tag_298\n      jump\t// in\n    tag_459:\n        /* \"#utility.yul\":13119:13191   */\n      tag_460\n        /* \"#utility.yul\":13187:13189   */\n      0x40\n        /* \"#utility.yul\":13176:13185   */\n      dup4\n        /* \"#utility.yul\":13172:13190   */\n      add\n        /* \"#utility.yul\":13163:13169   */\n      dup5\n        /* \"#utility.yul\":13119:13191   */\n      tag_295\n      jump\t// in\n    tag_460:\n        /* \"#utility.yul\":12756:13198   */\n      swap5\n      swap4\n      pop\n      pop\n      pop\n      pop\n      jump\t// out\n        /* \"#utility.yul\":13204:13320   */\n    tag_321:\n        /* \"#utility.yul\":13274:13295   */\n      tag_462\n        /* \"#utility.yul\":13289:13294   */\n      dup2\n        /* \"#utility.yul\":13274:13295   */\n      tag_296\n      jump\t// in\n    tag_462:\n        /* \"#utility.yul\":13267:13272   */\n      dup2\n        /* \"#utility.yul\":13264:13296   */\n      eq\n        /* \"#utility.yul\":13254:13314   */\n      tag_463\n      jumpi\n        /* \"#utility.yul\":13310:13311   */\n      0x00\n        /* \"#utility.yul\":13307:13308   */\n      dup1\n        /* \"#utility.yul\":13300:13312   */\n      revert\n        /* \"#utility.yul\":13254:13314   */\n    tag_463:\n        /* \"#utility.yul\":13204:13320   */\n      pop\n      jump\t// out\n        /* \"#utility.yul\":13326:13463   */\n    tag_322:\n        /* \"#utility.yul\":13380:13385   */\n      0x00\n        /* \"#utility.yul\":13411:13417   */\n      dup2\n        /* \"#utility.yul\":13405:13418   */\n      mload\n        /* \"#utility.yul\":13396:13418   */\n      swap1\n      pop\n        /* \"#utility.yul\":13427:13457   */\n      tag_465\n        /* \"#utility.yul\":13451:13456   */\n      dup2\n        /* \"#utility.yul\":13427:13457   */\n      tag_321\n      jump\t// in\n    tag_465:\n        /* \"#utility.yul\":13326:13463   */\n      swap3\n      swap2\n      pop\n      pop\n      jump\t// out\n        /* \"#utility.yul\":13469:13814   */\n    tag_155:\n        /* \"#utility.yul\":13536:13542   */\n      0x00\n        /* \"#utility.yul\":13585:13587   */\n      0x20\n        /* \"#utility.yul\":13573:13582   */\n      dup3\n        /* \"#utility.yul\":13564:13571   */\n      dup5\n        /* \"#utility.yul\":13560:13583   */\n      sub\n        /* \"#utility.yul\":13556:13588   */\n      slt\n        /* \"#utility.yul\":13553:13672   */\n      iszero\n      tag_467\n      jumpi\n        /* \"#utility.yul\":13591:13670   */\n      tag_468\n      tag_288\n      jump\t// in\n    tag_468:\n        /* \"#utility.yul\":13553:13672   */\n    tag_467:\n        /* \"#utility.yul\":13711:13712   */\n      0x00\n        /* \"#utility.yul\":13736:13797   */\n      tag_469\n        /* \"#utility.yul\":13789:13796   */\n      dup5\n        /* \"#utility.yul\":13780:13786   */\n      dup3\n        /* \"#utility.yul\":13769:13778   */\n      dup6\n        /* \"#utility.yul\":13765:13787   */\n      add\n        /* \"#utility.yul\":13736:13797   */\n      tag_322\n      jump\t// in\n    tag_469:\n        /* \"#utility.yul\":13726:13797   */\n      swap2\n      pop\n        /* \"#utility.yul\":13682:13807   */\n      pop\n        /* \"#utility.yul\":13469:13814   */\n      swap3\n      swap2\n      pop\n      pop\n      jump\t// out\n        /* \"#utility.yul\":13820:14000   */\n    tag_323:\n        /* \"#utility.yul\":13868:13945   */\n      0x4e487b7100000000000000000000000000000000000000000000000000000000\n        /* \"#utility.yul\":13865:13866   */\n      0x00\n        /* \"#utility.yul\":13858:13946   */\n      mstore\n        /* \"#utility.yul\":13965:13969   */\n      0x11\n        /* \"#utility.yul\":13962:13963   */\n      0x04\n        /* \"#utility.yul\":13955:13970   */\n      mstore\n        /* \"#utility.yul\":13989:13993   */\n      0x24\n        /* \"#utility.yul\":13986:13987   */\n      0x00\n        /* \"#utility.yul\":13979:13994   */\n      revert\n        /* \"#utility.yul\":14006:14197   */\n    tag_157:\n        /* \"#utility.yul\":14046:14049   */\n      0x00\n        /* \"#utility.yul\":14065:14085   */\n      tag_472\n        /* \"#utility.yul\":14083:14084   */\n      dup3\n        /* \"#utility.yul\":14065:14085   */\n      tag_294\n      jump\t// in\n    tag_472:\n        /* \"#utility.yul\":14060:14085   */\n      swap2\n      pop\n        /* \"#utility.yul\":14099:14119   */\n      tag_473\n        /* \"#utility.yul\":14117:14118   */\n      dup4\n        /* \"#utility.yul\":14099:14119   */\n      tag_294\n      jump\t// in\n    tag_473:\n        /* \"#utility.yul\":14094:14119   */\n      swap3\n      pop\n        /* \"#utility.yul\":14142:14143   */\n      dup3\n        /* \"#utility.yul\":14139:14140   */\n      dup3\n        /* \"#utility.yul\":14135:14144   */\n      add\n        /* \"#utility.yul\":14128:14144   */\n      swap1\n      pop\n        /* \"#utility.yul\":14163:14166   */\n      dup1\n        /* \"#utility.yul\":14160:14161   */\n      dup3\n        /* \"#utility.yul\":14157:14167   */\n      gt\n        /* \"#utility.yul\":14154:14190   */\n      iszero\n      tag_474\n      jumpi\n        /* \"#utility.yul\":14170:14188   */\n      tag_475\n      tag_323\n      jump\t// in\n    tag_475:\n        /* \"#utility.yul\":14154:14190   */\n    tag_474:\n        /* \"#utility.yul\":14006:14197   */\n      swap3\n      swap2\n      pop\n      pop\n      jump\t// out\n        /* \"#utility.yul\":14203:14302   */\n    tag_324:\n        /* \"#utility.yul\":14255:14261   */\n      0x00\n        /* \"#utility.yul\":14289:14294   */\n      dup2\n        /* \"#utility.yul\":14283:14295   */\n      mload\n        /* \"#utility.yul\":14273:14295   */\n      swap1\n      pop\n        /* \"#utility.yul\":14203:14302   */\n      swap2\n      swap1\n      pop\n      jump\t// out\n        /* \"#utility.yul\":14308:14456   */\n    tag_325:\n        /* \"#utility.yul\":14410:14421   */\n      0x00\n        /* \"#utility.yul\":14447:14450   */\n      dup2\n        /* \"#utility.yul\":14432:14450   */\n      swap1\n      pop\n        /* \"#utility.yul\":14308:14456   */\n      swap3\n      swap2\n      pop\n      pop\n      jump\t// out\n        /* \"#utility.yul\":14462:14708   */\n    tag_326:\n        /* \"#utility.yul\":14543:14544   */\n      0x00\n        /* \"#utility.yul\":14553:14666   */\n    tag_479:\n        /* \"#utility.yul\":14567:14573   */\n      dup4\n        /* \"#utility.yul\":14564:14565   */\n      dup2\n        /* \"#utility.yul\":14561:14574   */\n      lt\n        /* \"#utility.yul\":14553:14666   */\n      iszero\n      tag_481\n      jumpi\n        /* \"#utility.yul\":14652:14653   */\n      dup1\n        /* \"#utility.yul\":14647:14650   */\n      dup3\n        /* \"#utility.yul\":14643:14654   */\n      add\n        /* \"#utility.yul\":14637:14655   */\n      mload\n        /* \"#utility.yul\":14633:14634   */\n      dup2\n        /* \"#utility.yul\":14628:14631   */\n      dup5\n        /* \"#utility.yul\":14624:14635   */\n      add\n        /* \"#utility.yul\":14617:14656   */\n      mstore\n        /* \"#utility.yul\":14589:14591   */\n      0x20\n        /* \"#utility.yul\":14586:14587   */\n      dup2\n        /* \"#utility.yul\":14582:14592   */\n      add\n        /* \"#utility.yul\":14577:14592   */\n      swap1\n      pop\n        /* \"#utility.yul\":14553:14666   */\n      jump(tag_479)\n    tag_481:\n        /* \"#utility.yul\":14700:14701   */\n      0x00\n        /* \"#utility.yul\":14691:14697   */\n      dup5\n        /* \"#utility.yul\":14686:14689   */\n      dup5\n        /* \"#utility.yul\":14682:14698   */\n      add\n        /* \"#utility.yul\":14675:14702   */\n      mstore\n        /* \"#utility.yul\":14524:14708   */\n      pop\n        /* \"#utility.yul\":14462:14708   */\n      pop\n      pop\n      pop\n      jump\t// out\n        /* \"#utility.yul\":14714:15104   */\n    tag_327:\n        /* \"#utility.yul\":14820:14823   */\n      0x00\n        /* \"#utility.yul\":14848:14887   */\n      tag_483\n        /* \"#utility.yul\":14881:14886   */\n      dup3\n        /* \"#utility.yul\":14848:14887   */\n      tag_324\n      jump\t// in\n    tag_483:\n        /* \"#utility.yul\":14903:14992   */\n      tag_484\n        /* \"#utility.yul\":14985:14991   */\n      dup2\n        /* \"#utility.yul\":14980:14983   */\n      dup6\n        /* \"#utility.yul\":14903:14992   */\n      tag_325\n      jump\t// in\n    tag_484:\n        /* \"#utility.yul\":14896:14992   */\n      swap4\n      pop\n        /* \"#utility.yul\":15001:15066   */\n      tag_485\n        /* \"#utility.yul\":15059:15065   */\n      dup2\n        /* \"#utility.yul\":15054:15057   */\n      dup6\n        /* \"#utility.yul\":15047:15051   */\n      0x20\n        /* \"#utility.yul\":15040:15045   */\n      dup7\n        /* \"#utility.yul\":15036:15052   */\n      add\n        /* \"#utility.yul\":15001:15066   */\n      tag_326\n      jump\t// in\n    tag_485:\n        /* \"#utility.yul\":15091:15097   */\n      dup1\n        /* \"#utility.yul\":15086:15089   */\n      dup5\n        /* \"#utility.yul\":15082:15098   */\n      add\n        /* \"#utility.yul\":15075:15098   */\n      swap2\n      pop\n        /* \"#utility.yul\":14824:15104   */\n      pop\n        /* \"#utility.yul\":14714:15104   */\n      swap3\n      swap2\n      pop\n      pop\n      jump\t// out\n        /* \"#utility.yul\":15110:15385   */\n    tag_159:\n        /* \"#utility.yul\":15242:15245   */\n      0x00\n        /* \"#utility.yul\":15264:15359   */\n      tag_487\n        /* \"#utility.yul\":15355:15358   */\n      dup3\n        /* \"#utility.yul\":15346:15352   */\n      dup5\n        /* \"#utility.yul\":15264:15359   */\n      tag_327\n      jump\t// in\n    tag_487:\n        /* \"#utility.yul\":15257:15359   */\n      swap2\n      pop\n        /* \"#utility.yul\":15376:15379   */\n      dup2\n        /* \"#utility.yul\":15369:15379   */\n      swap1\n      pop\n        /* \"#utility.yul\":15110:15385   */\n      swap3\n      swap2\n      pop\n      pop\n      jump\t// out\n        /* \"#utility.yul\":15391:15723   */\n    tag_163:\n        /* \"#utility.yul\":15512:15516   */\n      0x00\n        /* \"#utility.yul\":15550:15552   */\n      0x40\n        /* \"#utility.yul\":15539:15548   */\n      dup3\n        /* \"#utility.yul\":15535:15553   */\n      add\n        /* \"#utility.yul\":15527:15553   */\n      swap1\n      pop\n        /* \"#utility.yul\":15563:15634   */\n      tag_489\n        /* \"#utility.yul\":15631:15632   */\n      0x00\n        /* \"#utility.yul\":15620:15629   */\n      dup4\n        /* \"#utility.yul\":15616:15633   */\n      add\n        /* \"#utility.yul\":15607:15613   */\n      dup6\n        /* \"#utility.yul\":15563:15634   */\n      tag_298\n      jump\t// in\n    tag_489:\n        /* \"#utility.yul\":15644:15716   */\n      tag_490\n        /* \"#utility.yul\":15712:15714   */\n      0x20\n        /* \"#utility.yul\":15701:15710   */\n      dup4\n        /* \"#utility.yul\":15697:15715   */\n      add\n        /* \"#utility.yul\":15688:15694   */\n      dup5\n        /* \"#utility.yul\":15644:15716   */\n      tag_295\n      jump\t// in\n    tag_490:\n        /* \"#utility.yul\":15391:15723   */\n      swap4\n      swap3\n      pop\n      pop\n      pop\n      jump\t// out\n        /* \"#utility.yul\":15729:16139   */\n    tag_166:\n        /* \"#utility.yul\":15769:15776   */\n      0x00\n        /* \"#utility.yul\":15792:15812   */\n      tag_492\n        /* \"#utility.yul\":15810:15811   */\n      dup3\n        /* \"#utility.yul\":15792:15812   */\n      tag_294\n      jump\t// in\n    tag_492:\n        /* \"#utility.yul\":15787:15812   */\n      swap2\n      pop\n        /* \"#utility.yul\":15826:15846   */\n      tag_493\n        /* \"#utility.yul\":15844:15845   */\n      dup4\n        /* \"#utility.yul\":15826:15846   */\n      tag_294\n      jump\t// in\n    tag_493:\n        /* \"#utility.yul\":15821:15846   */\n      swap3\n      pop\n        /* \"#utility.yul\":15881:15882   */\n      dup3\n        /* \"#utility.yul\":15878:15879   */\n      dup3\n        /* \"#utility.yul\":15874:15883   */\n      mul\n        /* \"#utility.yul\":15903:15933   */\n      tag_494\n        /* \"#utility.yul\":15921:15932   */\n      dup2\n        /* \"#utility.yul\":15903:15933   */\n      tag_294\n      jump\t// in\n    tag_494:\n        /* \"#utility.yul\":15892:15933   */\n      swap2\n      pop\n        /* \"#utility.yul\":16082:16083   */\n      dup3\n        /* \"#utility.yul\":16073:16080   */\n      dup3\n        /* \"#utility.yul\":16069:16084   */\n      div\n        /* \"#utility.yul\":16066:16067   */\n      dup5\n        /* \"#utility.yul\":16063:16085   */\n      eq\n        /* \"#utility.yul\":16043:16044   */\n      dup4\n        /* \"#utility.yul\":16036:16045   */\n      iszero\n        /* \"#utility.yul\":16016:16099   */\n      or\n        /* \"#utility.yul\":15993:16132   */\n      tag_495\n      jumpi\n        /* \"#utility.yul\":16112:16130   */\n      tag_496\n      tag_323\n      jump\t// in\n    tag_496:\n        /* \"#utility.yul\":15993:16132   */\n    tag_495:\n        /* \"#utility.yul\":15777:16139   */\n      pop\n        /* \"#utility.yul\":15729:16139   */\n      swap3\n      swap2\n      pop\n      pop\n      jump\t// out\n        /* \"#utility.yul\":16145:16325   */\n    tag_328:\n        /* \"#utility.yul\":16193:16270   */\n      0x4e487b7100000000000000000000000000000000000000000000000000000000\n        /* \"#utility.yul\":16190:16191   */\n      0x00\n        /* \"#utility.yul\":16183:16271   */\n      mstore\n        /* \"#utility.yul\":16290:16294   */\n      0x12\n        /* \"#utility.yul\":16287:16288   */\n      0x04\n        /* \"#utility.yul\":16280:16295   */\n      mstore\n        /* \"#utility.yul\":16314:16318   */\n      0x24\n        /* \"#utility.yul\":16311:16312   */\n      0x00\n        /* \"#utility.yul\":16304:16319   */\n      revert\n        /* \"#utility.yul\":16331:16516   */\n    tag_168:\n        /* \"#utility.yul\":16371:16372   */\n      0x00\n        /* \"#utility.yul\":16388:16408   */\n      tag_499\n        /* \"#utility.yul\":16406:16407   */\n      dup3\n        /* \"#utility.yul\":16388:16408   */\n      tag_294\n      jump\t// in\n    tag_499:\n        /* \"#utility.yul\":16383:16408   */\n      swap2\n      pop\n        /* \"#utility.yul\":16422:16442   */\n      tag_500\n        /* \"#utility.yul\":16440:16441   */\n      dup4\n        /* \"#utility.yul\":16422:16442   */\n      tag_294\n      jump\t// in\n    tag_500:\n        /* \"#utility.yul\":16417:16442   */\n      swap3\n      pop\n        /* \"#utility.yul\":16461:16462   */\n      dup3\n        /* \"#utility.yul\":16451:16486   */\n      tag_501\n      jumpi\n        /* \"#utility.yul\":16466:16484   */\n      tag_502\n      tag_328\n      jump\t// in\n    tag_502:\n        /* \"#utility.yul\":16451:16486   */\n    tag_501:\n        /* \"#utility.yul\":16508:16509   */\n      dup3\n        /* \"#utility.yul\":16505:16506   */\n      dup3\n        /* \"#utility.yul\":16501:16510   */\n      div\n        /* \"#utility.yul\":16496:16510   */\n      swap1\n      pop\n        /* \"#utility.yul\":16331:16516   */\n      swap3\n      swap2\n      pop\n      pop\n      jump\t// out\n        /* \"#utility.yul\":16522:16702   */\n    tag_175:\n        /* \"#utility.yul\":16570:16647   */\n      0x4e487b7100000000000000000000000000000000000000000000000000000000\n        /* \"#utility.yul\":16567:16568   */\n      0x00\n        /* \"#utility.yul\":16560:16648   */\n      mstore\n        /* \"#utility.yul\":16667:16671   */\n      0x32\n        /* \"#utility.yul\":16664:16665   */\n      0x04\n        /* \"#utility.yul\":16657:16672   */\n      mstore\n        /* \"#utility.yul\":16691:16695   */\n      0x24\n        /* \"#utility.yul\":16688:16689   */\n      0x00\n        /* \"#utility.yul\":16681:16696   */\n      revert\n        /* \"#utility.yul\":16708:16902   */\n    tag_182:\n        /* \"#utility.yul\":16748:16752   */\n      0x00\n        /* \"#utility.yul\":16768:16788   */\n      tag_505\n        /* \"#utility.yul\":16786:16787   */\n      dup3\n        /* \"#utility.yul\":16768:16788   */\n      tag_294\n      jump\t// in\n    tag_505:\n        /* \"#utility.yul\":16763:16788   */\n      swap2\n      pop\n        /* \"#utility.yul\":16802:16822   */\n      tag_506\n        /* \"#utility.yul\":16820:16821   */\n      dup4\n        /* \"#utility.yul\":16802:16822   */\n      tag_294\n      jump\t// in\n    tag_506:\n        /* \"#utility.yul\":16797:16822   */\n      swap3\n      pop\n        /* \"#utility.yul\":16846:16847   */\n      dup3\n        /* \"#utility.yul\":16843:16844   */\n      dup3\n        /* \"#utility.yul\":16839:16848   */\n      sub\n        /* \"#utility.yul\":16831:16848   */\n      swap1\n      pop\n        /* \"#utility.yul\":16870:16871   */\n      dup2\n        /* \"#utility.yul\":16864:16868   */\n      dup2\n        /* \"#utility.yul\":16861:16872   */\n      gt\n        /* \"#utility.yul\":16858:16895   */\n      iszero\n      tag_507\n      jumpi\n        /* \"#utility.yul\":16875:16893   */\n      tag_508\n      tag_323\n      jump\t// in\n    tag_508:\n        /* \"#utility.yul\":16858:16895   */\n    tag_507:\n        /* \"#utility.yul\":16708:16902   */\n      swap3\n      swap2\n      pop\n      pop\n      jump\t// out\n        /* \"#utility.yul\":16908:17006   */\n    tag_329:\n        /* \"#utility.yul\":16959:16965   */\n      0x00\n        /* \"#utility.yul\":16993:16998   */\n      dup2\n        /* \"#utility.yul\":16987:16999   */\n      mload\n        /* \"#utility.yul\":16977:16999   */\n      swap1\n      pop\n        /* \"#utility.yul\":16908:17006   */\n      swap2\n      swap1\n      pop\n      jump\t// out\n        /* \"#utility.yul\":17012:17159   */\n    tag_330:\n        /* \"#utility.yul\":17113:17124   */\n      0x00\n        /* \"#utility.yul\":17150:17153   */\n      dup2\n        /* \"#utility.yul\":17135:17153   */\n      swap1\n      pop\n        /* \"#utility.yul\":17012:17159   */\n      swap3\n      swap2\n      pop\n      pop\n      jump\t// out\n        /* \"#utility.yul\":17165:17551   */\n    tag_331:\n        /* \"#utility.yul\":17269:17272   */\n      0x00\n        /* \"#utility.yul\":17297:17335   */\n      tag_512\n        /* \"#utility.yul\":17329:17334   */\n      dup3\n        /* \"#utility.yul\":17297:17335   */\n      tag_329\n      jump\t// in\n    tag_512:\n        /* \"#utility.yul\":17351:17439   */\n      tag_513\n        /* \"#utility.yul\":17432:17438   */\n      dup2\n        /* \"#utility.yul\":17427:17430   */\n      dup6\n        /* \"#utility.yul\":17351:17439   */\n      tag_330\n      jump\t// in\n    tag_513:\n        /* \"#utility.yul\":17344:17439   */\n      swap4\n      pop\n        /* \"#utility.yul\":17448:17513   */\n      tag_514\n        /* \"#utility.yul\":17506:17512   */\n      dup2\n        /* \"#utility.yul\":17501:17504   */\n      dup6\n        /* \"#utility.yul\":17494:17498   */\n      0x20\n        /* \"#utility.yul\":17487:17492   */\n      dup7\n        /* \"#utility.yul\":17483:17499   */\n      add\n        /* \"#utility.yul\":17448:17513   */\n      tag_326\n      jump\t// in\n    tag_514:\n        /* \"#utility.yul\":17538:17544   */\n      dup1\n        /* \"#utility.yul\":17533:17536   */\n      dup5\n        /* \"#utility.yul\":17529:17545   */\n      add\n        /* \"#utility.yul\":17522:17545   */\n      swap2\n      pop\n        /* \"#utility.yul\":17273:17551   */\n      pop\n        /* \"#utility.yul\":17165:17551   */\n      swap3\n      swap2\n      pop\n      pop\n      jump\t// out\n        /* \"#utility.yul\":17557:17828   */\n    tag_270:\n        /* \"#utility.yul\":17687:17690   */\n      0x00\n        /* \"#utility.yul\":17709:17802   */\n      tag_516\n        /* \"#utility.yul\":17798:17801   */\n      dup3\n        /* \"#utility.yul\":17789:17795   */\n      dup5\n        /* \"#utility.yul\":17709:17802   */\n      tag_331\n      jump\t// in\n    tag_516:\n        /* \"#utility.yul\":17702:17802   */\n      swap2\n      pop\n        /* \"#utility.yul\":17819:17822   */\n      dup2\n        /* \"#utility.yul\":17812:17822   */\n      swap1\n      pop\n        /* \"#utility.yul\":17557:17828   */\n      swap3\n      swap2\n      pop\n      pop\n      jump\t// out\n\n    auxdata: 0xa26469706673582212202be7431e52000d5e678a830612f2a9f6d8d0f94d4f9efd6c89da98877e94edff64736f6c63430008160033\n}\n",
				"bytecode": {
					"linkReferences": {},
					"object": "608060405234801562000010575f80fd5b506040516200271d3803806200271d833981810160405281019062000036919062000229565b805f73ffffffffffffffffffffffffffffffffffffffff168173ffffffffffffffffffffffffffffffffffffffff1603620000aa575f6040517f1e4fbdf7000000000000000000000000000000000000000000000000000000008152600401620000a191906200026a565b60405180910390fd5b620000bb816200010360201b60201c565b508060015f6101000a81548173ffffffffffffffffffffffffffffffffffffffff021916908373ffffffffffffffffffffffffffffffffffffffff1602179055505062000285565b5f805f9054906101000a900473ffffffffffffffffffffffffffffffffffffffff169050815f806101000a81548173ffffffffffffffffffffffffffffffffffffffff021916908373ffffffffffffffffffffffffffffffffffffffff1602179055508173ffffffffffffffffffffffffffffffffffffffff168173ffffffffffffffffffffffffffffffffffffffff167f8be0079c531659141344cd1fd0a4f28419497f9722a3daafe3b4186f6b6457e060405160405180910390a35050565b5f80fd5b5f73ffffffffffffffffffffffffffffffffffffffff82169050919050565b5f620001f382620001c8565b9050919050565b6200020581620001e7565b811462000210575f80fd5b50565b5f815190506200022381620001fa565b92915050565b5f60208284031215620002415762000240620001c4565b5b5f620002508482850162000213565b91505092915050565b6200026481620001e7565b82525050565b5f6020820190506200027f5f83018462000259565b92915050565b61248a80620002935f395ff3fe608060405234801561000f575f80fd5b5060043610610135575f3560e01c8063a4329677116100b6578063df77a3aa1161007a578063df77a3aa1461034b578063e1ad418e14610367578063f09f0aac14610397578063f2fde38b146103c7578063fca0a3d2146103e3578063fd03fe901461041357610135565b8063a432967714610295578063a7f696cf146102c5578063b4a99a4e146102f5578063cb8ff54514610313578063cdb434781461032f57610135565b806370181206116100fd57806370181206146101ef578063715018a61461021f5780638da5cb5b146102295780639c2c67c914610247578063a31509781461026557610135565b806301bf6648146101395780631f1a675d146101555780632dd91a4c14610185578063372c12b1146101a35780636bc20157146101d3575b5f80fd5b610153600480360381019061014e9190611b91565b610443565b005b61016f600480360381019061016a9190611bbc565b61052b565b60405161017c9190611c12565b60405180910390f35b61018d61054b565b60405161019a9190611c12565b60405180910390f35b6101bd60048036038101906101b89190611b91565b610551565b6040516101ca9190611c45565b60405180910390f35b6101ed60048036038101906101e89190611b91565b61056e565b005b61020960048036038101906102049190611b91565b6106b8565b6040516102169190611c12565b60405180910390f35b61022761074d565b005b610231610760565b60405161023e9190611c6d565b60405180910390f35b61024f610787565b60405161025c9190611c12565b60405180910390f35b61027f600480360381019061027a9190611b91565b61078d565b60405161028c9190611c12565b60405180910390f35b6102af60048036038101906102aa9190611b91565b610822565b6040516102bc9190611c12565b60405180910390f35b6102df60048036038101906102da9190611b91565b6108a3565b6040516102ec9190611c12565b60405180910390f35b6102fd610938565b60405161030a9190611c6d565b60405180910390f35b61032d60048036038101906103289190611dec565b61095d565b005b61034960048036038101906103449190611b91565b61109c565b005b61036560048036038101906103609190611e58565b6110d4565b005b610381600480360381019061037c9190611b91565b611573565b60405161038e9190611c12565b60405180910390f35b6103b160048036038101906103ac9190611ea8565b611588565b6040516103be9190611c6d565b60405180910390f35b6103e160048036038101906103dc9190611b91565b6115c3565b005b6103fd60048036038101906103f89190611b91565b611647565b60405161040a9190611c12565b60405180910390f35b61042d60048036038101906104289190611ed3565b6116dc565b60405161043a9190611c12565b60405180910390f35b61044b611714565b60025f8273ffffffffffffffffffffffffffffffffffffffff1673ffffffffffffffffffffffffffffffffffffffff1681526020019081526020015f205f9054906101000a900460ff166104d4576040517f08c379a00000000000000000000000000000000000000000000000000000000081526004016104cb90611f87565b60405180910390fd5b5f60025f8373ffffffffffffffffffffffffffffffffffffffff1673ffffffffffffffffffffffffffffffffffffffff1681526020019081526020015f205f6101000a81548160ff02191690831515021790555050565b6004602052815f5260405f20602052805f5260405f205f91509150505481565b60085481565b6002602052805f5260405f205f915054906101000a900460ff1681565b610576611714565b60025f8273ffffffffffffffffffffffffffffffffffffffff1673ffffffffffffffffffffffffffffffffffffffff1681526020019081526020015f205f9054906101000a900460ff1615610600576040517f08c379a00000000000000000000000000000000000000000000000000000000081526004016105f790612015565b60405180910390fd5b600381908060018154018082558091505060019003905f5260205f20015f9091909190916101000a81548173ffffffffffffffffffffffffffffffffffffffff021916908373ffffffffffffffffffffffffffffffffffffffff160217905550600160025f8373ffffffffffffffffffffffffffffffffffffffff1673ffffffffffffffffffffffffffffffffffffffff1681526020019081526020015f205f6101000a81548160ff02191690831515021790555050565b5f60045f8373ffffffffffffffffffffffffffffffffffffffff1673ffffffffffffffffffffffffffffffffffffffff1681526020019081526020015f205f739951342d994001468506df88f71a582867b50dd473ffffffffffffffffffffffffffffffffffffffff1673ffffffffffffffffffffffffffffffffffffffff1681526020019081526020015f20549050919050565b610755611714565b61075e5f61179b565b565b5f805f9054906101000a900473ffffffffffffffffffffffffffffffffffffffff16905090565b60075481565b5f60045f8373ffffffffffffffffffffffffffffffffffffffff1673ffffffffffffffffffffffffffffffffffffffff1681526020019081526020015f205f73a5014ea627ac22a63f2bf3b46e26d408e72f55c173ffffffffffffffffffffffffffffffffffffffff1673ffffffffffffffffffffffffffffffffffffffff1681526020019081526020015f20549050919050565b5f60045f3373ffffffffffffffffffffffffffffffffffffffff1673ffffffffffffffffffffffffffffffffffffffff1681526020019081526020015f205f8373ffffffffffffffffffffffffffffffffffffffff1673ffffffffffffffffffffffffffffffffffffffff1681526020019081526020015f20549050919050565b5f60045f8373ffffffffffffffffffffffffffffffffffffffff1673ffffffffffffffffffffffffffffffffffffffff1681526020019081526020015f205f7377f146ca2943294cc53e6c3b5980b572c961ae2373ffffffffffffffffffffffffffffffffffffffff1673ffffffffffffffffffffffffffffffffffffffff1681526020019081526020015f20549050919050565b60015f9054906101000a900473ffffffffffffffffffffffffffffffffffffffff1681565b818373ffffffffffffffffffffffffffffffffffffffff1663dd62ed3e33306040518363ffffffff1660e01b8152600401610999929190612033565b602060405180830381865afa1580156109b4573d5f803e3d5ffd5b505050506040513d601f19601f820116820180604052508101906109d8919061206e565b1015610a19576040517f08c379a0000000000000000000000000000000000000000000000000000000008152600401610a10906120e3565b60405180910390fd5b818373ffffffffffffffffffffffffffffffffffffffff166370a08231336040518263ffffffff1660e01b8152600401610a539190611c6d565b602060405180830381865afa158015610a6e573d5f803e3d5ffd5b505050506040513d601f19601f82011682018060405250810190610a92919061206e565b1015610ad3576040517f08c379a0000000000000000000000000000000000000000000000000000000008152600401610aca9061214b565b60405180910390fd5b734b3a514dd71850277bba82491f26dacdf089cb6873ffffffffffffffffffffffffffffffffffffffff168373ffffffffffffffffffffffffffffffffffffffff1603610d2d578273ffffffffffffffffffffffffffffffffffffffff166323b872dd3330856040518463ffffffff1660e01b8152600401610b5793929190612169565b6020604051808303815f875af1158015610b73573d5f803e3d5ffd5b505050506040513d601f19601f82011682018060405250810190610b9791906121c8565b508160075f828254610ba99190612220565b925050819055508160055f3373ffffffffffffffffffffffffffffffffffffffff1673ffffffffffffffffffffffffffffffffffffffff1681526020019081526020015f20819055508160065f3373ffffffffffffffffffffffffffffffffffffffff1673ffffffffffffffffffffffffffffffffffffffff1681526020019081526020015f2082604051610c3e91906122bf565b90815260200160405180910390205f828254610c5a9190612220565b925050819055508160045f3373ffffffffffffffffffffffffffffffffffffffff1673ffffffffffffffffffffffffffffffffffffffff1681526020019081526020015f205f8573ffffffffffffffffffffffffffffffffffffffff1673ffffffffffffffffffffffffffffffffffffffff1681526020019081526020015f205f828254610ce89190612220565b925050819055507fcc87ab2abfe87b272af9b77691e40b3d9186a0431f3d41a8e06d39614f4607223383604051610d209291906122d5565b60405180910390a1611097565b6103e8600383610d3d91906122fc565b610d47919061236a565b6008819055505f600380549050600854610d61919061236a565b90505f5b600380549050811015610e38578473ffffffffffffffffffffffffffffffffffffffff166323b872dd3360038481548110610da357610da261239a565b5b905f5260205f20015f9054906101000a900473ffffffffffffffffffffffffffffffffffffffff16856040518463ffffffff1660e01b8152600401610dea93929190612169565b6020604051808303815f875af1158015610e06573d5f803e3d5ffd5b505050506040513d601f19601f82011682018060405250810190610e2a91906121c8565b508080600101915050610d65565b508373ffffffffffffffffffffffffffffffffffffffff166323b872dd333060085487610e6591906123c7565b6040518463ffffffff1660e01b8152600401610e8393929190612169565b6020604051808303815f875af1158015610e9f573d5f803e3d5ffd5b505050506040513d601f19601f82011682018060405250810190610ec391906121c8565b5060085483610ed291906123c7565b60075f828254610ee29190612220565b9250508190555060085483610ef791906123c7565b60055f3373ffffffffffffffffffffffffffffffffffffffff1673ffffffffffffffffffffffffffffffffffffffff1681526020019081526020015f208190555060085483610f4691906123c7565b60065f3373ffffffffffffffffffffffffffffffffffffffff1673ffffffffffffffffffffffffffffffffffffffff1681526020019081526020015f2083604051610f9191906122bf565b90815260200160405180910390205f828254610fad9190612220565b9250508190555060085483610fc291906123c7565b60045f3373ffffffffffffffffffffffffffffffffffffffff1673ffffffffffffffffffffffffffffffffffffffff1681526020019081526020015f205f8673ffffffffffffffffffffffffffffffffffffffff1673ffffffffffffffffffffffffffffffffffffffff1681526020019081526020015f205f8282546110489190612220565b925050819055507fcc87ab2abfe87b272af9b77691e40b3d9186a0431f3d41a8e06d39614f460722336008548561107f91906123c7565b60405161108d9291906122d5565b60405180910390a1505b505050565b6110a4611714565b6110d1336008548373ffffffffffffffffffffffffffffffffffffffff1661185c9092919063ffffffff16565b50565b818373ffffffffffffffffffffffffffffffffffffffff166370a08231306040518263ffffffff1660e01b815260040161110e9190611c6d565b602060405180830381865afa158015611129573d5f803e3d5ffd5b505050506040513d601f19601f8201168201806040525081019061114d919061206e565b101561118e576040517f08c379a00000000000000000000000000000000000000000000000000000000081526004016111859061214b565b60405180910390fd5b734b3a514dd71850277bba82491f26dacdf089cb6873ffffffffffffffffffffffffffffffffffffffff168373ffffffffffffffffffffffffffffffffffffffff16036113265761120081838573ffffffffffffffffffffffffffffffffffffffff1661185c9092919063ffffffff16565b8160075f82825461121191906123c7565b925050819055508160055f8373ffffffffffffffffffffffffffffffffffffffff1673ffffffffffffffffffffffffffffffffffffffff1681526020019081526020015f20819055508160045f8373ffffffffffffffffffffffffffffffffffffffff1673ffffffffffffffffffffffffffffffffffffffff1681526020019081526020015f205f8573ffffffffffffffffffffffffffffffffffffffff1673ffffffffffffffffffffffffffffffffffffffff1681526020019081526020015f205f8282546112e191906123c7565b925050819055507fcc87ab2abfe87b272af9b77691e40b3d9186a0431f3d41a8e06d39614f46072281836040516113199291906122d5565b60405180910390a161156e565b6103e860038361133691906122fc565b611340919061236a565b6008819055505f60038054905060085461135a919061236a565b90505f5b6003805490508110156113de576113d1600382815481106113825761138161239a565b5b905f5260205f20015f9054906101000a900473ffffffffffffffffffffffffffffffffffffffff16838773ffffffffffffffffffffffffffffffffffffffff1661185c9092919063ffffffff16565b808060010191505061135e565b5061141782600854856113f191906123c7565b8673ffffffffffffffffffffffffffffffffffffffff1661185c9092919063ffffffff16565b6008548361142591906123c7565b60075f82825461143591906123c7565b925050819055506008548361144a91906123c7565b60055f8473ffffffffffffffffffffffffffffffffffffffff1673ffffffffffffffffffffffffffffffffffffffff1681526020019081526020015f20819055506008548361149991906123c7565b60045f8473ffffffffffffffffffffffffffffffffffffffff1673ffffffffffffffffffffffffffffffffffffffff1681526020019081526020015f205f8673ffffffffffffffffffffffffffffffffffffffff1673ffffffffffffffffffffffffffffffffffffffff1681526020019081526020015f205f82825461151f91906123c7565b925050819055507fcf53ae9736a409c662fa8b1187549847acd41beb1b89fd026293fc2e19adaca7826008548561155691906123c7565b6040516115649291906122d5565b60405180910390a1505b505050565b6005602052805f5260405f205f915090505481565b60038181548110611597575f80fd5b905f5260205f20015f915054906101000a900473ffffffffffffffffffffffffffffffffffffffff1681565b6115cb611714565b5f73ffffffffffffffffffffffffffffffffffffffff168173ffffffffffffffffffffffffffffffffffffffff160361163b575f6040517f1e4fbdf70000000000000000000000000000000000000000000000000000000081526004016116329190611c6d565b60405180910390fd5b6116448161179b565b50565b5f60045f8373ffffffffffffffffffffffffffffffffffffffff1673ffffffffffffffffffffffffffffffffffffffff1681526020019081526020015f205f734b3a514dd71850277bba82491f26dacdf089cb6873ffffffffffffffffffffffffffffffffffffffff1673ffffffffffffffffffffffffffffffffffffffff1681526020019081526020015f20549050919050565b6006602052815f5260405f20818051602081018201805184825260208301602085012081835280955050505050505f91509150505481565b61171c6118db565b73ffffffffffffffffffffffffffffffffffffffff1661173a610760565b73ffffffffffffffffffffffffffffffffffffffff16146117995761175d6118db565b6040517f118cdaa70000000000000000000000000000000000000000000000000000000081526004016117909190611c6d565b60405180910390fd5b565b5f805f9054906101000a900473ffffffffffffffffffffffffffffffffffffffff169050815f806101000a81548173ffffffffffffffffffffffffffffffffffffffff021916908373ffffffffffffffffffffffffffffffffffffffff1602179055508173ffffffffffffffffffffffffffffffffffffffff168173ffffffffffffffffffffffffffffffffffffffff167f8be0079c531659141344cd1fd0a4f28419497f9722a3daafe3b4186f6b6457e060405160405180910390a35050565b6118d6838473ffffffffffffffffffffffffffffffffffffffff1663a9059cbb858560405160240161188f9291906122d5565b604051602081830303815290604052915060e01b6020820180517bffffffffffffffffffffffffffffffffffffffffffffffffffffffff83818316178352505050506118e2565b505050565b5f33905090565b5f61190c828473ffffffffffffffffffffffffffffffffffffffff1661197790919063ffffffff16565b90505f81511415801561193057508080602001905181019061192e91906121c8565b155b1561197257826040517f5274afe70000000000000000000000000000000000000000000000000000000081526004016119699190611c6d565b60405180910390fd5b505050565b606061198483835f61198c565b905092915050565b6060814710156119d357306040517fcd7860590000000000000000000000000000000000000000000000000000000081526004016119ca9190611c6d565b60405180910390fd5b5f808573ffffffffffffffffffffffffffffffffffffffff1684866040516119fb919061243e565b5f6040518083038185875af1925050503d805f8114611a35576040519150601f19603f3d011682016040523d82523d5f602084013e611a3a565b606091505b5091509150611a4a868383611a55565b925050509392505050565b606082611a6a57611a6582611ae2565b611ada565b5f8251148015611a9057505f8473ffffffffffffffffffffffffffffffffffffffff163b145b15611ad257836040517f9996b315000000000000000000000000000000000000000000000000000000008152600401611ac99190611c6d565b60405180910390fd5b819050611adb565b5b9392505050565b5f81511115611af45780518082602001fd5b6040517f1425ea4200000000000000000000000000000000000000000000000000000000815260040160405180910390fd5b5f604051905090565b5f80fd5b5f80fd5b5f73ffffffffffffffffffffffffffffffffffffffff82169050919050565b5f611b6082611b37565b9050919050565b611b7081611b56565b8114611b7a575f80fd5b50565b5f81359050611b8b81611b67565b92915050565b5f60208284031215611ba657611ba5611b2f565b5b5f611bb384828501611b7d565b91505092915050565b5f8060408385031215611bd257611bd1611b2f565b5b5f611bdf85828601611b7d565b9250506020611bf085828601611b7d565b9150509250929050565b5f819050919050565b611c0c81611bfa565b82525050565b5f602082019050611c255f830184611c03565b92915050565b5f8115159050919050565b611c3f81611c2b565b82525050565b5f602082019050611c585f830184611c36565b92915050565b611c6781611b56565b82525050565b5f602082019050611c805f830184611c5e565b92915050565b611c8f81611bfa565b8114611c99575f80fd5b50565b5f81359050611caa81611c86565b92915050565b5f80fd5b5f80fd5b5f601f19601f8301169050919050565b7f4e487b71000000000000000000000000000000000000000000000000000000005f52604160045260245ffd5b611cfe82611cb8565b810181811067ffffffffffffffff82111715611d1d57611d1c611cc8565b5b80604052505050565b5f611d2f611b26565b9050611d3b8282611cf5565b919050565b5f67ffffffffffffffff821115611d5a57611d59611cc8565b5b611d6382611cb8565b9050602081019050919050565b828183375f83830152505050565b5f611d90611d8b84611d40565b611d26565b905082815260208101848484011115611dac57611dab611cb4565b5b611db7848285611d70565b509392505050565b5f82601f830112611dd357611dd2611cb0565b5b8135611de3848260208601611d7e565b91505092915050565b5f805f60608486031215611e0357611e02611b2f565b5b5f611e1086828701611b7d565b9350506020611e2186828701611c9c565b925050604084013567ffffffffffffffff811115611e4257611e41611b33565b5b611e4e86828701611dbf565b9150509250925092565b5f805f60608486031215611e6f57611e6e611b2f565b5b5f611e7c86828701611b7d565b9350506020611e8d86828701611c9c565b9250506040611e9e86828701611b7d565b9150509250925092565b5f60208284031215611ebd57611ebc611b2f565b5b5f611eca84828501611c9c565b91505092915050565b5f8060408385031215611ee957611ee8611b2f565b5b5f611ef685828601611b7d565b925050602083013567ffffffffffffffff811115611f1757611f16611b33565b5b611f2385828601611dbf565b9150509250929050565b5f82825260208201905092915050565b7f54686973204164647265737320646f6573206e6f7420657869737421000000005f82015250565b5f611f71601c83611f2d565b9150611f7c82611f3d565b602082019050919050565b5f6020820190508181035f830152611f9e81611f65565b9050919050565b7f54686973204164647265737320697320616c72656164792057686974654c69735f8201527f7465642100000000000000000000000000000000000000000000000000000000602082015250565b5f611fff602483611f2d565b915061200a82611fa5565b604082019050919050565b5f6020820190508181035f83015261202c81611ff3565b9050919050565b5f6040820190506120465f830185611c5e565b6120536020830184611c5e565b9392505050565b5f8151905061206881611c86565b92915050565b5f6020828403121561208357612082611b2f565b5b5f6120908482850161205a565b91505092915050565b7f416c6c6f77616e6365206e6f74207365740000000000000000000000000000005f82015250565b5f6120cd601183611f2d565b91506120d882612099565b602082019050919050565b5f6020820190508181035f8301526120fa816120c1565b9050919050565b7f496e73756666696369656e742062616c616e63650000000000000000000000005f82015250565b5f612135601483611f2d565b915061214082612101565b602082019050919050565b5f6020820190508181035f83015261216281612129565b9050919050565b5f60608201905061217c5f830186611c5e565b6121896020830185611c5e565b6121966040830184611c03565b949350505050565b6121a781611c2b565b81146121b1575f80fd5b50565b5f815190506121c28161219e565b92915050565b5f602082840312156121dd576121dc611b2f565b5b5f6121ea848285016121b4565b91505092915050565b7f4e487b71000000000000000000000000000000000000000000000000000000005f52601160045260245ffd5b5f61222a82611bfa565b915061223583611bfa565b925082820190508082111561224d5761224c6121f3565b5b92915050565b5f81519050919050565b5f81905092915050565b5f5b83811015612284578082015181840152602081019050612269565b5f8484015250505050565b5f61229982612253565b6122a3818561225d565b93506122b3818560208601612267565b80840191505092915050565b5f6122ca828461228f565b915081905092915050565b5f6040820190506122e85f830185611c5e565b6122f56020830184611c03565b9392505050565b5f61230682611bfa565b915061231183611bfa565b925082820261231f81611bfa565b91508282048414831517612336576123356121f3565b5b5092915050565b7f4e487b71000000000000000000000000000000000000000000000000000000005f52601260045260245ffd5b5f61237482611bfa565b915061237f83611bfa565b92508261238f5761238e61233d565b5b828204905092915050565b7f4e487b71000000000000000000000000000000000000000000000000000000005f52603260045260245ffd5b5f6123d182611bfa565b91506123dc83611bfa565b92508282039050818111156123f4576123f36121f3565b5b92915050565b5f81519050919050565b5f81905092915050565b5f612418826123fa565b6124228185612404565b9350612432818560208601612267565b80840191505092915050565b5f612449828461240e565b91508190509291505056fea26469706673582212202be7431e52000d5e678a830612f2a9f6d8d0f94d4f9efd6c89da98877e94edff64736f6c63430008160033",
					"opcodes": "PUSH1 0x80 PUSH1 0x40 MSTORE CALLVALUE DUP1 ISZERO PUSH3 0x10 JUMPI PUSH0 DUP1 REVERT JUMPDEST POP PUSH1 0x40 MLOAD PUSH3 0x271D CODESIZE SUB DUP1 PUSH3 0x271D DUP4 CODECOPY DUP2 DUP2 ADD PUSH1 0x40 MSTORE DUP2 ADD SWAP1 PUSH3 0x36 SWAP2 SWAP1 PUSH3 0x229 JUMP JUMPDEST DUP1 PUSH0 PUSH20 0xFFFFFFFFFFFFFFFFFFFFFFFFFFFFFFFFFFFFFFFF AND DUP2 PUSH20 0xFFFFFFFFFFFFFFFFFFFFFFFFFFFFFFFFFFFFFFFF AND SUB PUSH3 0xAA JUMPI PUSH0 PUSH1 0x40 MLOAD PUSH32 0x1E4FBDF700000000000000000000000000000000000000000000000000000000 DUP2 MSTORE PUSH1 0x4 ADD PUSH3 0xA1 SWAP2 SWAP1 PUSH3 0x26A JUMP JUMPDEST PUSH1 0x40 MLOAD DUP1 SWAP2 SUB SWAP1 REVERT JUMPDEST PUSH3 0xBB DUP2 PUSH3 0x103 PUSH1 0x20 SHL PUSH1 0x20 SHR JUMP JUMPDEST POP DUP1 PUSH1 0x1 PUSH0 PUSH2 0x100 EXP DUP2 SLOAD DUP2 PUSH20 0xFFFFFFFFFFFFFFFFFFFFFFFFFFFFFFFFFFFFFFFF MUL NOT AND SWAP1 DUP4 PUSH20 0xFFFFFFFFFFFFFFFFFFFFFFFFFFFFFFFFFFFFFFFF AND MUL OR SWAP1 SSTORE POP POP PUSH3 0x285 JUMP JUMPDEST PUSH0 DUP1 PUSH0 SWAP1 SLOAD SWAP1 PUSH2 0x100 EXP SWAP1 DIV PUSH20 0xFFFFFFFFFFFFFFFFFFFFFFFFFFFFFFFFFFFFFFFF AND SWAP1 POP DUP2 PUSH0 DUP1 PUSH2 0x100 EXP DUP2 SLOAD DUP2 PUSH20 0xFFFFFFFFFFFFFFFFFFFFFFFFFFFFFFFFFFFFFFFF MUL NOT AND SWAP1 DUP4 PUSH20 0xFFFFFFFFFFFFFFFFFFFFFFFFFFFFFFFFFFFFFFFF AND MUL OR SWAP1 SSTORE POP DUP2 PUSH20 0xFFFFFFFFFFFFFFFFFFFFFFFFFFFFFFFFFFFFFFFF AND DUP2 PUSH20 0xFFFFFFFFFFFFFFFFFFFFFFFFFFFFFFFFFFFFFFFF AND PUSH32 0x8BE0079C531659141344CD1FD0A4F28419497F9722A3DAAFE3B4186F6B6457E0 PUSH1 0x40 MLOAD PUSH1 0x40 MLOAD DUP1 SWAP2 SUB SWAP1 LOG3 POP POP JUMP JUMPDEST PUSH0 DUP1 REVERT JUMPDEST PUSH0 PUSH20 0xFFFFFFFFFFFFFFFFFFFFFFFFFFFFFFFFFFFFFFFF DUP3 AND SWAP1 POP SWAP2 SWAP1 POP JUMP JUMPDEST PUSH0 PUSH3 0x1F3 DUP3 PUSH3 0x1C8 JUMP JUMPDEST SWAP1 POP SWAP2 SWAP1 POP JUMP JUMPDEST PUSH3 0x205 DUP2 PUSH3 0x1E7 JUMP JUMPDEST DUP2 EQ PUSH3 0x210 JUMPI PUSH0 DUP1 REVERT JUMPDEST POP JUMP JUMPDEST PUSH0 DUP2 MLOAD SWAP1 POP PUSH3 0x223 DUP2 PUSH3 0x1FA JUMP JUMPDEST SWAP3 SWAP2 POP POP JUMP JUMPDEST PUSH0 PUSH1 0x20 DUP3 DUP5 SUB SLT ISZERO PUSH3 0x241 JUMPI PUSH3 0x240 PUSH3 0x1C4 JUMP JUMPDEST JUMPDEST PUSH0 PUSH3 0x250 DUP5 DUP3 DUP6 ADD PUSH3 0x213 JUMP JUMPDEST SWAP2 POP POP SWAP3 SWAP2 POP POP JUMP JUMPDEST PUSH3 0x264 DUP2 PUSH3 0x1E7 JUMP JUMPDEST DUP3 MSTORE POP POP JUMP JUMPDEST PUSH0 PUSH1 0x20 DUP3 ADD SWAP1 POP PUSH3 0x27F PUSH0 DUP4 ADD DUP5 PUSH3 0x259 JUMP JUMPDEST SWAP3 SWAP2 POP POP JUMP JUMPDEST PUSH2 0x248A DUP1 PUSH3 0x293 PUSH0 CODECOPY PUSH0 RETURN INVALID PUSH1 0x80 PUSH1 0x40 MSTORE CALLVALUE DUP1 ISZERO PUSH2 0xF JUMPI PUSH0 DUP1 REVERT JUMPDEST POP PUSH1 0x4 CALLDATASIZE LT PUSH2 0x135 JUMPI PUSH0 CALLDATALOAD PUSH1 0xE0 SHR DUP1 PUSH4 0xA4329677 GT PUSH2 0xB6 JUMPI DUP1 PUSH4 0xDF77A3AA GT PUSH2 0x7A JUMPI DUP1 PUSH4 0xDF77A3AA EQ PUSH2 0x34B JUMPI DUP1 PUSH4 0xE1AD418E EQ PUSH2 0x367 JUMPI DUP1 PUSH4 0xF09F0AAC EQ PUSH2 0x397 JUMPI DUP1 PUSH4 0xF2FDE38B EQ PUSH2 0x3C7 JUMPI DUP1 PUSH4 0xFCA0A3D2 EQ PUSH2 0x3E3 JUMPI DUP1 PUSH4 0xFD03FE90 EQ PUSH2 0x413 JUMPI PUSH2 0x135 JUMP JUMPDEST DUP1 PUSH4 0xA4329677 EQ PUSH2 0x295 JUMPI DUP1 PUSH4 0xA7F696CF EQ PUSH2 0x2C5 JUMPI DUP1 PUSH4 0xB4A99A4E EQ PUSH2 0x2F5 JUMPI DUP1 PUSH4 0xCB8FF545 EQ PUSH2 0x313 JUMPI DUP1 PUSH4 0xCDB43478 EQ PUSH2 0x32F JUMPI PUSH2 0x135 JUMP JUMPDEST DUP1 PUSH4 0x70181206 GT PUSH2 0xFD JUMPI DUP1 PUSH4 0x70181206 EQ PUSH2 0x1EF JUMPI DUP1 PUSH4 0x715018A6 EQ PUSH2 0x21F JUMPI DUP1 PUSH4 0x8DA5CB5B EQ PUSH2 0x229 JUMPI DUP1 PUSH4 0x9C2C67C9 EQ PUSH2 0x247 JUMPI DUP1 PUSH4 0xA3150978 EQ PUSH2 0x265 JUMPI PUSH2 0x135 JUMP JUMPDEST DUP1 PUSH4 0x1BF6648 EQ PUSH2 0x139 JUMPI DUP1 PUSH4 0x1F1A675D EQ PUSH2 0x155 JUMPI DUP1 PUSH4 0x2DD91A4C EQ PUSH2 0x185 JUMPI DUP1 PUSH4 0x372C12B1 EQ PUSH2 0x1A3 JUMPI DUP1 PUSH4 0x6BC20157 EQ PUSH2 0x1D3 JUMPI JUMPDEST PUSH0 DUP1 REVERT JUMPDEST PUSH2 0x153 PUSH1 0x4 DUP1 CALLDATASIZE SUB DUP2 ADD SWAP1 PUSH2 0x14E SWAP2 SWAP1 PUSH2 0x1B91 JUMP JUMPDEST PUSH2 0x443 JUMP JUMPDEST STOP JUMPDEST PUSH2 0x16F PUSH1 0x4 DUP1 CALLDATASIZE SUB DUP2 ADD SWAP1 PUSH2 0x16A SWAP2 SWAP1 PUSH2 0x1BBC JUMP JUMPDEST PUSH2 0x52B JUMP JUMPDEST PUSH1 0x40 MLOAD PUSH2 0x17C SWAP2 SWAP1 PUSH2 0x1C12 JUMP JUMPDEST PUSH1 0x40 MLOAD DUP1 SWAP2 SUB SWAP1 RETURN JUMPDEST PUSH2 0x18D PUSH2 0x54B JUMP JUMPDEST PUSH1 0x40 MLOAD PUSH2 0x19A SWAP2 SWAP1 PUSH2 0x1C12 JUMP JUMPDEST PUSH1 0x40 MLOAD DUP1 SWAP2 SUB SWAP1 RETURN JUMPDEST PUSH2 0x1BD PUSH1 0x4 DUP1 CALLDATASIZE SUB DUP2 ADD SWAP1 PUSH2 0x1B8 SWAP2 SWAP1 PUSH2 0x1B91 JUMP JUMPDEST PUSH2 0x551 JUMP JUMPDEST PUSH1 0x40 MLOAD PUSH2 0x1CA SWAP2 SWAP1 PUSH2 0x1C45 JUMP JUMPDEST PUSH1 0x40 MLOAD DUP1 SWAP2 SUB SWAP1 RETURN JUMPDEST PUSH2 0x1ED PUSH1 0x4 DUP1 CALLDATASIZE SUB DUP2 ADD SWAP1 PUSH2 0x1E8 SWAP2 SWAP1 PUSH2 0x1B91 JUMP JUMPDEST PUSH2 0x56E JUMP JUMPDEST STOP JUMPDEST PUSH2 0x209 PUSH1 0x4 DUP1 CALLDATASIZE SUB DUP2 ADD SWAP1 PUSH2 0x204 SWAP2 SWAP1 PUSH2 0x1B91 JUMP JUMPDEST PUSH2 0x6B8 JUMP JUMPDEST PUSH1 0x40 MLOAD PUSH2 0x216 SWAP2 SWAP1 PUSH2 0x1C12 JUMP JUMPDEST PUSH1 0x40 MLOAD DUP1 SWAP2 SUB SWAP1 RETURN JUMPDEST PUSH2 0x227 PUSH2 0x74D JUMP JUMPDEST STOP JUMPDEST PUSH2 0x231 PUSH2 0x760 JUMP JUMPDEST PUSH1 0x40 MLOAD PUSH2 0x23E SWAP2 SWAP1 PUSH2 0x1C6D JUMP JUMPDEST PUSH1 0x40 MLOAD DUP1 SWAP2 SUB SWAP1 RETURN JUMPDEST PUSH2 0x24F PUSH2 0x787 JUMP JUMPDEST PUSH1 0x40 MLOAD PUSH2 0x25C SWAP2 SWAP1 PUSH2 0x1C12 JUMP JUMPDEST PUSH1 0x40 MLOAD DUP1 SWAP2 SUB SWAP1 RETURN JUMPDEST PUSH2 0x27F PUSH1 0x4 DUP1 CALLDATASIZE SUB DUP2 ADD SWAP1 PUSH2 0x27A SWAP2 SWAP1 PUSH2 0x1B91 JUMP JUMPDEST PUSH2 0x78D JUMP JUMPDEST PUSH1 0x40 MLOAD PUSH2 0x28C SWAP2 SWAP1 PUSH2 0x1C12 JUMP JUMPDEST PUSH1 0x40 MLOAD DUP1 SWAP2 SUB SWAP1 RETURN JUMPDEST PUSH2 0x2AF PUSH1 0x4 DUP1 CALLDATASIZE SUB DUP2 ADD SWAP1 PUSH2 0x2AA SWAP2 SWAP1 PUSH2 0x1B91 JUMP JUMPDEST PUSH2 0x822 JUMP JUMPDEST PUSH1 0x40 MLOAD PUSH2 0x2BC SWAP2 SWAP1 PUSH2 0x1C12 JUMP JUMPDEST PUSH1 0x40 MLOAD DUP1 SWAP2 SUB SWAP1 RETURN JUMPDEST PUSH2 0x2DF PUSH1 0x4 DUP1 CALLDATASIZE SUB DUP2 ADD SWAP1 PUSH2 0x2DA SWAP2 SWAP1 PUSH2 0x1B91 JUMP JUMPDEST PUSH2 0x8A3 JUMP JUMPDEST PUSH1 0x40 MLOAD PUSH2 0x2EC SWAP2 SWAP1 PUSH2 0x1C12 JUMP JUMPDEST PUSH1 0x40 MLOAD DUP1 SWAP2 SUB SWAP1 RETURN JUMPDEST PUSH2 0x2FD PUSH2 0x938 JUMP JUMPDEST PUSH1 0x40 MLOAD PUSH2 0x30A SWAP2 SWAP1 PUSH2 0x1C6D JUMP JUMPDEST PUSH1 0x40 MLOAD DUP1 SWAP2 SUB SWAP1 RETURN JUMPDEST PUSH2 0x32D PUSH1 0x4 DUP1 CALLDATASIZE SUB DUP2 ADD SWAP1 PUSH2 0x328 SWAP2 SWAP1 PUSH2 0x1DEC JUMP JUMPDEST PUSH2 0x95D JUMP JUMPDEST STOP JUMPDEST PUSH2 0x349 PUSH1 0x4 DUP1 CALLDATASIZE SUB DUP2 ADD SWAP1 PUSH2 0x344 SWAP2 SWAP1 PUSH2 0x1B91 JUMP JUMPDEST PUSH2 0x109C JUMP JUMPDEST STOP JUMPDEST PUSH2 0x365 PUSH1 0x4 DUP1 CALLDATASIZE SUB DUP2 ADD SWAP1 PUSH2 0x360 SWAP2 SWAP1 PUSH2 0x1E58 JUMP JUMPDEST PUSH2 0x10D4 JUMP JUMPDEST STOP JUMPDEST PUSH2 0x381 PUSH1 0x4 DUP1 CALLDATASIZE SUB DUP2 ADD SWAP1 PUSH2 0x37C SWAP2 SWAP1 PUSH2 0x1B91 JUMP JUMPDEST PUSH2 0x1573 JUMP JUMPDEST PUSH1 0x40 MLOAD PUSH2 0x38E SWAP2 SWAP1 PUSH2 0x1C12 JUMP JUMPDEST PUSH1 0x40 MLOAD DUP1 SWAP2 SUB SWAP1 RETURN JUMPDEST PUSH2 0x3B1 PUSH1 0x4 DUP1 CALLDATASIZE SUB DUP2 ADD SWAP1 PUSH2 0x3AC SWAP2 SWAP1 PUSH2 0x1EA8 JUMP JUMPDEST PUSH2 0x1588 JUMP JUMPDEST PUSH1 0x40 MLOAD PUSH2 0x3BE SWAP2 SWAP1 PUSH2 0x1C6D JUMP JUMPDEST PUSH1 0x40 MLOAD DUP1 SWAP2 SUB SWAP1 RETURN JUMPDEST PUSH2 0x3E1 PUSH1 0x4 DUP1 CALLDATASIZE SUB DUP2 ADD SWAP1 PUSH2 0x3DC SWAP2 SWAP1 PUSH2 0x1B91 JUMP JUMPDEST PUSH2 0x15C3 JUMP JUMPDEST STOP JUMPDEST PUSH2 0x3FD PUSH1 0x4 DUP1 CALLDATASIZE SUB DUP2 ADD SWAP1 PUSH2 0x3F8 SWAP2 SWAP1 PUSH2 0x1B91 JUMP JUMPDEST PUSH2 0x1647 JUMP JUMPDEST PUSH1 0x40 MLOAD PUSH2 0x40A SWAP2 SWAP1 PUSH2 0x1C12 JUMP JUMPDEST PUSH1 0x40 MLOAD DUP1 SWAP2 SUB SWAP1 RETURN JUMPDEST PUSH2 0x42D PUSH1 0x4 DUP1 CALLDATASIZE SUB DUP2 ADD SWAP1 PUSH2 0x428 SWAP2 SWAP1 PUSH2 0x1ED3 JUMP JUMPDEST PUSH2 0x16DC JUMP JUMPDEST PUSH1 0x40 MLOAD PUSH2 0x43A SWAP2 SWAP1 PUSH2 0x1C12 JUMP JUMPDEST PUSH1 0x40 MLOAD DUP1 SWAP2 SUB SWAP1 RETURN JUMPDEST PUSH2 0x44B PUSH2 0x1714 JUMP JUMPDEST PUSH1 0x2 PUSH0 DUP3 PUSH20 0xFFFFFFFFFFFFFFFFFFFFFFFFFFFFFFFFFFFFFFFF AND PUSH20 0xFFFFFFFFFFFFFFFFFFFFFFFFFFFFFFFFFFFFFFFF AND DUP2 MSTORE PUSH1 0x20 ADD SWAP1 DUP2 MSTORE PUSH1 0x20 ADD PUSH0 KECCAK256 PUSH0 SWAP1 SLOAD SWAP1 PUSH2 0x100 EXP SWAP1 DIV PUSH1 0xFF AND PUSH2 0x4D4 JUMPI PUSH1 0x40 MLOAD PUSH32 0x8C379A000000000000000000000000000000000000000000000000000000000 DUP2 MSTORE PUSH1 0x4 ADD PUSH2 0x4CB SWAP1 PUSH2 0x1F87 JUMP JUMPDEST PUSH1 0x40 MLOAD DUP1 SWAP2 SUB SWAP1 REVERT JUMPDEST PUSH0 PUSH1 0x2 PUSH0 DUP4 PUSH20 0xFFFFFFFFFFFFFFFFFFFFFFFFFFFFFFFFFFFFFFFF AND PUSH20 0xFFFFFFFFFFFFFFFFFFFFFFFFFFFFFFFFFFFFFFFF AND DUP2 MSTORE PUSH1 0x20 ADD SWAP1 DUP2 MSTORE PUSH1 0x20 ADD PUSH0 KECCAK256 PUSH0 PUSH2 0x100 EXP DUP2 SLOAD DUP2 PUSH1 0xFF MUL NOT AND SWAP1 DUP4 ISZERO ISZERO MUL OR SWAP1 SSTORE POP POP JUMP JUMPDEST PUSH1 0x4 PUSH1 0x20 MSTORE DUP2 PUSH0 MSTORE PUSH1 0x40 PUSH0 KECCAK256 PUSH1 0x20 MSTORE DUP1 PUSH0 MSTORE PUSH1 0x40 PUSH0 KECCAK256 PUSH0 SWAP2 POP SWAP2 POP POP SLOAD DUP2 JUMP JUMPDEST PUSH1 0x8 SLOAD DUP2 JUMP JUMPDEST PUSH1 0x2 PUSH1 0x20 MSTORE DUP1 PUSH0 MSTORE PUSH1 0x40 PUSH0 KECCAK256 PUSH0 SWAP2 POP SLOAD SWAP1 PUSH2 0x100 EXP SWAP1 DIV PUSH1 0xFF AND DUP2 JUMP JUMPDEST PUSH2 0x576 PUSH2 0x1714 JUMP JUMPDEST PUSH1 0x2 PUSH0 DUP3 PUSH20 0xFFFFFFFFFFFFFFFFFFFFFFFFFFFFFFFFFFFFFFFF AND PUSH20 0xFFFFFFFFFFFFFFFFFFFFFFFFFFFFFFFFFFFFFFFF AND DUP2 MSTORE PUSH1 0x20 ADD SWAP1 DUP2 MSTORE PUSH1 0x20 ADD PUSH0 KECCAK256 PUSH0 SWAP1 SLOAD SWAP1 PUSH2 0x100 EXP SWAP1 DIV PUSH1 0xFF AND ISZERO PUSH2 0x600 JUMPI PUSH1 0x40 MLOAD PUSH32 0x8C379A000000000000000000000000000000000000000000000000000000000 DUP2 MSTORE PUSH1 0x4 ADD PUSH2 0x5F7 SWAP1 PUSH2 0x2015 JUMP JUMPDEST PUSH1 0x40 MLOAD DUP1 SWAP2 SUB SWAP1 REVERT JUMPDEST PUSH1 0x3 DUP2 SWAP1 DUP1 PUSH1 0x1 DUP2 SLOAD ADD DUP1 DUP3 SSTORE DUP1 SWAP2 POP POP PUSH1 0x1 SWAP1 SUB SWAP1 PUSH0 MSTORE PUSH1 0x20 PUSH0 KECCAK256 ADD PUSH0 SWAP1 SWAP2 SWAP1 SWAP2 SWAP1 SWAP2 PUSH2 0x100 EXP DUP2 SLOAD DUP2 PUSH20 0xFFFFFFFFFFFFFFFFFFFFFFFFFFFFFFFFFFFFFFFF MUL NOT AND SWAP1 DUP4 PUSH20 0xFFFFFFFFFFFFFFFFFFFFFFFFFFFFFFFFFFFFFFFF AND MUL OR SWAP1 SSTORE POP PUSH1 0x1 PUSH1 0x2 PUSH0 DUP4 PUSH20 0xFFFFFFFFFFFFFFFFFFFFFFFFFFFFFFFFFFFFFFFF AND PUSH20 0xFFFFFFFFFFFFFFFFFFFFFFFFFFFFFFFFFFFFFFFF AND DUP2 MSTORE PUSH1 0x20 ADD SWAP1 DUP2 MSTORE PUSH1 0x20 ADD PUSH0 KECCAK256 PUSH0 PUSH2 0x100 EXP DUP2 SLOAD DUP2 PUSH1 0xFF MUL NOT AND SWAP1 DUP4 ISZERO ISZERO MUL OR SWAP1 SSTORE POP POP JUMP JUMPDEST PUSH0 PUSH1 0x4 PUSH0 DUP4 PUSH20 0xFFFFFFFFFFFFFFFFFFFFFFFFFFFFFFFFFFFFFFFF AND PUSH20 0xFFFFFFFFFFFFFFFFFFFFFFFFFFFFFFFFFFFFFFFF AND DUP2 MSTORE PUSH1 0x20 ADD SWAP1 DUP2 MSTORE PUSH1 0x20 ADD PUSH0 KECCAK256 PUSH0 PUSH20 0x9951342D994001468506DF88F71A582867B50DD4 PUSH20 0xFFFFFFFFFFFFFFFFFFFFFFFFFFFFFFFFFFFFFFFF AND PUSH20 0xFFFFFFFFFFFFFFFFFFFFFFFFFFFFFFFFFFFFFFFF AND DUP2 MSTORE PUSH1 0x20 ADD SWAP1 DUP2 MSTORE PUSH1 0x20 ADD PUSH0 KECCAK256 SLOAD SWAP1 POP SWAP2 SWAP1 POP JUMP JUMPDEST PUSH2 0x755 PUSH2 0x1714 JUMP JUMPDEST PUSH2 0x75E PUSH0 PUSH2 0x179B JUMP JUMPDEST JUMP JUMPDEST PUSH0 DUP1 PUSH0 SWAP1 SLOAD SWAP1 PUSH2 0x100 EXP SWAP1 DIV PUSH20 0xFFFFFFFFFFFFFFFFFFFFFFFFFFFFFFFFFFFFFFFF AND SWAP1 POP SWAP1 JUMP JUMPDEST PUSH1 0x7 SLOAD DUP2 JUMP JUMPDEST PUSH0 PUSH1 0x4 PUSH0 DUP4 PUSH20 0xFFFFFFFFFFFFFFFFFFFFFFFFFFFFFFFFFFFFFFFF AND PUSH20 0xFFFFFFFFFFFFFFFFFFFFFFFFFFFFFFFFFFFFFFFF AND DUP2 MSTORE PUSH1 0x20 ADD SWAP1 DUP2 MSTORE PUSH1 0x20 ADD PUSH0 KECCAK256 PUSH0 PUSH20 0xA5014EA627AC22A63F2BF3B46E26D408E72F55C1 PUSH20 0xFFFFFFFFFFFFFFFFFFFFFFFFFFFFFFFFFFFFFFFF AND PUSH20 0xFFFFFFFFFFFFFFFFFFFFFFFFFFFFFFFFFFFFFFFF AND DUP2 MSTORE PUSH1 0x20 ADD SWAP1 DUP2 MSTORE PUSH1 0x20 ADD PUSH0 KECCAK256 SLOAD SWAP1 POP SWAP2 SWAP1 POP JUMP JUMPDEST PUSH0 PUSH1 0x4 PUSH0 CALLER PUSH20 0xFFFFFFFFFFFFFFFFFFFFFFFFFFFFFFFFFFFFFFFF AND PUSH20 0xFFFFFFFFFFFFFFFFFFFFFFFFFFFFFFFFFFFFFFFF AND DUP2 MSTORE PUSH1 0x20 ADD SWAP1 DUP2 MSTORE PUSH1 0x20 ADD PUSH0 KECCAK256 PUSH0 DUP4 PUSH20 0xFFFFFFFFFFFFFFFFFFFFFFFFFFFFFFFFFFFFFFFF AND PUSH20 0xFFFFFFFFFFFFFFFFFFFFFFFFFFFFFFFFFFFFFFFF AND DUP2 MSTORE PUSH1 0x20 ADD SWAP1 DUP2 MSTORE PUSH1 0x20 ADD PUSH0 KECCAK256 SLOAD SWAP1 POP SWAP2 SWAP1 POP JUMP JUMPDEST PUSH0 PUSH1 0x4 PUSH0 DUP4 PUSH20 0xFFFFFFFFFFFFFFFFFFFFFFFFFFFFFFFFFFFFFFFF AND PUSH20 0xFFFFFFFFFFFFFFFFFFFFFFFFFFFFFFFFFFFFFFFF AND DUP2 MSTORE PUSH1 0x20 ADD SWAP1 DUP2 MSTORE PUSH1 0x20 ADD PUSH0 KECCAK256 PUSH0 PUSH20 0x77F146CA2943294CC53E6C3B5980B572C961AE23 PUSH20 0xFFFFFFFFFFFFFFFFFFFFFFFFFFFFFFFFFFFFFFFF AND PUSH20 0xFFFFFFFFFFFFFFFFFFFFFFFFFFFFFFFFFFFFFFFF AND DUP2 MSTORE PUSH1 0x20 ADD SWAP1 DUP2 MSTORE PUSH1 0x20 ADD PUSH0 KECCAK256 SLOAD SWAP1 POP SWAP2 SWAP1 POP JUMP JUMPDEST PUSH1 0x1 PUSH0 SWAP1 SLOAD SWAP1 PUSH2 0x100 EXP SWAP1 DIV PUSH20 0xFFFFFFFFFFFFFFFFFFFFFFFFFFFFFFFFFFFFFFFF AND DUP2 JUMP JUMPDEST DUP2 DUP4 PUSH20 0xFFFFFFFFFFFFFFFFFFFFFFFFFFFFFFFFFFFFFFFF AND PUSH4 0xDD62ED3E CALLER ADDRESS PUSH1 0x40 MLOAD DUP4 PUSH4 0xFFFFFFFF AND PUSH1 0xE0 SHL DUP2 MSTORE PUSH1 0x4 ADD PUSH2 0x999 SWAP3 SWAP2 SWAP1 PUSH2 0x2033 JUMP JUMPDEST PUSH1 0x20 PUSH1 0x40 MLOAD DUP1 DUP4 SUB DUP2 DUP7 GAS STATICCALL ISZERO DUP1 ISZERO PUSH2 0x9B4 JUMPI RETURNDATASIZE PUSH0 DUP1 RETURNDATACOPY RETURNDATASIZE PUSH0 REVERT JUMPDEST POP POP POP POP PUSH1 0x40 MLOAD RETURNDATASIZE PUSH1 0x1F NOT PUSH1 0x1F DUP3 ADD AND DUP3 ADD DUP1 PUSH1 0x40 MSTORE POP DUP2 ADD SWAP1 PUSH2 0x9D8 SWAP2 SWAP1 PUSH2 0x206E JUMP JUMPDEST LT ISZERO PUSH2 0xA19 JUMPI PUSH1 0x40 MLOAD PUSH32 0x8C379A000000000000000000000000000000000000000000000000000000000 DUP2 MSTORE PUSH1 0x4 ADD PUSH2 0xA10 SWAP1 PUSH2 0x20E3 JUMP JUMPDEST PUSH1 0x40 MLOAD DUP1 SWAP2 SUB SWAP1 REVERT JUMPDEST DUP2 DUP4 PUSH20 0xFFFFFFFFFFFFFFFFFFFFFFFFFFFFFFFFFFFFFFFF AND PUSH4 0x70A08231 CALLER PUSH1 0x40 MLOAD DUP3 PUSH4 0xFFFFFFFF AND PUSH1 0xE0 SHL DUP2 MSTORE PUSH1 0x4 ADD PUSH2 0xA53 SWAP2 SWAP1 PUSH2 0x1C6D JUMP JUMPDEST PUSH1 0x20 PUSH1 0x40 MLOAD DUP1 DUP4 SUB DUP2 DUP7 GAS STATICCALL ISZERO DUP1 ISZERO PUSH2 0xA6E JUMPI RETURNDATASIZE PUSH0 DUP1 RETURNDATACOPY RETURNDATASIZE PUSH0 REVERT JUMPDEST POP POP POP POP PUSH1 0x40 MLOAD RETURNDATASIZE PUSH1 0x1F NOT PUSH1 0x1F DUP3 ADD AND DUP3 ADD DUP1 PUSH1 0x40 MSTORE POP DUP2 ADD SWAP1 PUSH2 0xA92 SWAP2 SWAP1 PUSH2 0x206E JUMP JUMPDEST LT ISZERO PUSH2 0xAD3 JUMPI PUSH1 0x40 MLOAD PUSH32 0x8C379A000000000000000000000000000000000000000000000000000000000 DUP2 MSTORE PUSH1 0x4 ADD PUSH2 0xACA SWAP1 PUSH2 0x214B JUMP JUMPDEST PUSH1 0x40 MLOAD DUP1 SWAP2 SUB SWAP1 REVERT JUMPDEST PUSH20 0x4B3A514DD71850277BBA82491F26DACDF089CB68 PUSH20 0xFFFFFFFFFFFFFFFFFFFFFFFFFFFFFFFFFFFFFFFF AND DUP4 PUSH20 0xFFFFFFFFFFFFFFFFFFFFFFFFFFFFFFFFFFFFFFFF AND SUB PUSH2 0xD2D JUMPI DUP3 PUSH20 0xFFFFFFFFFFFFFFFFFFFFFFFFFFFFFFFFFFFFFFFF AND PUSH4 0x23B872DD CALLER ADDRESS DUP6 PUSH1 0x40 MLOAD DUP5 PUSH4 0xFFFFFFFF AND PUSH1 0xE0 SHL DUP2 MSTORE PUSH1 0x4 ADD PUSH2 0xB57 SWAP4 SWAP3 SWAP2 SWAP1 PUSH2 0x2169 JUMP JUMPDEST PUSH1 0x20 PUSH1 0x40 MLOAD DUP1 DUP4 SUB DUP2 PUSH0 DUP8 GAS CALL ISZERO DUP1 ISZERO PUSH2 0xB73 JUMPI RETURNDATASIZE PUSH0 DUP1 RETURNDATACOPY RETURNDATASIZE PUSH0 REVERT JUMPDEST POP POP POP POP PUSH1 0x40 MLOAD RETURNDATASIZE PUSH1 0x1F NOT PUSH1 0x1F DUP3 ADD AND DUP3 ADD DUP1 PUSH1 0x40 MSTORE POP DUP2 ADD SWAP1 PUSH2 0xB97 SWAP2 SWAP1 PUSH2 0x21C8 JUMP JUMPDEST POP DUP2 PUSH1 0x7 PUSH0 DUP3 DUP3 SLOAD PUSH2 0xBA9 SWAP2 SWAP1 PUSH2 0x2220 JUMP JUMPDEST SWAP3 POP POP DUP2 SWAP1 SSTORE POP DUP2 PUSH1 0x5 PUSH0 CALLER PUSH20 0xFFFFFFFFFFFFFFFFFFFFFFFFFFFFFFFFFFFFFFFF AND PUSH20 0xFFFFFFFFFFFFFFFFFFFFFFFFFFFFFFFFFFFFFFFF AND DUP2 MSTORE PUSH1 0x20 ADD SWAP1 DUP2 MSTORE PUSH1 0x20 ADD PUSH0 KECCAK256 DUP2 SWAP1 SSTORE POP DUP2 PUSH1 0x6 PUSH0 CALLER PUSH20 0xFFFFFFFFFFFFFFFFFFFFFFFFFFFFFFFFFFFFFFFF AND PUSH20 0xFFFFFFFFFFFFFFFFFFFFFFFFFFFFFFFFFFFFFFFF AND DUP2 MSTORE PUSH1 0x20 ADD SWAP1 DUP2 MSTORE PUSH1 0x20 ADD PUSH0 KECCAK256 DUP3 PUSH1 0x40 MLOAD PUSH2 0xC3E SWAP2 SWAP1 PUSH2 0x22BF JUMP JUMPDEST SWAP1 DUP2 MSTORE PUSH1 0x20 ADD PUSH1 0x40 MLOAD DUP1 SWAP2 SUB SWAP1 KECCAK256 PUSH0 DUP3 DUP3 SLOAD PUSH2 0xC5A SWAP2 SWAP1 PUSH2 0x2220 JUMP JUMPDEST SWAP3 POP POP DUP2 SWAP1 SSTORE POP DUP2 PUSH1 0x4 PUSH0 CALLER PUSH20 0xFFFFFFFFFFFFFFFFFFFFFFFFFFFFFFFFFFFFFFFF AND PUSH20 0xFFFFFFFFFFFFFFFFFFFFFFFFFFFFFFFFFFFFFFFF AND DUP2 MSTORE PUSH1 0x20 ADD SWAP1 DUP2 MSTORE PUSH1 0x20 ADD PUSH0 KECCAK256 PUSH0 DUP6 PUSH20 0xFFFFFFFFFFFFFFFFFFFFFFFFFFFFFFFFFFFFFFFF AND PUSH20 0xFFFFFFFFFFFFFFFFFFFFFFFFFFFFFFFFFFFFFFFF AND DUP2 MSTORE PUSH1 0x20 ADD SWAP1 DUP2 MSTORE PUSH1 0x20 ADD PUSH0 KECCAK256 PUSH0 DUP3 DUP3 SLOAD PUSH2 0xCE8 SWAP2 SWAP1 PUSH2 0x2220 JUMP JUMPDEST SWAP3 POP POP DUP2 SWAP1 SSTORE POP PUSH32 0xCC87AB2ABFE87B272AF9B77691E40B3D9186A0431F3D41A8E06D39614F460722 CALLER DUP4 PUSH1 0x40 MLOAD PUSH2 0xD20 SWAP3 SWAP2 SWAP1 PUSH2 0x22D5 JUMP JUMPDEST PUSH1 0x40 MLOAD DUP1 SWAP2 SUB SWAP1 LOG1 PUSH2 0x1097 JUMP JUMPDEST PUSH2 0x3E8 PUSH1 0x3 DUP4 PUSH2 0xD3D SWAP2 SWAP1 PUSH2 0x22FC JUMP JUMPDEST PUSH2 0xD47 SWAP2 SWAP1 PUSH2 0x236A JUMP JUMPDEST PUSH1 0x8 DUP2 SWAP1 SSTORE POP PUSH0 PUSH1 0x3 DUP1 SLOAD SWAP1 POP PUSH1 0x8 SLOAD PUSH2 0xD61 SWAP2 SWAP1 PUSH2 0x236A JUMP JUMPDEST SWAP1 POP PUSH0 JUMPDEST PUSH1 0x3 DUP1 SLOAD SWAP1 POP DUP2 LT ISZERO PUSH2 0xE38 JUMPI DUP5 PUSH20 0xFFFFFFFFFFFFFFFFFFFFFFFFFFFFFFFFFFFFFFFF AND PUSH4 0x23B872DD CALLER PUSH1 0x3 DUP5 DUP2 SLOAD DUP2 LT PUSH2 0xDA3 JUMPI PUSH2 0xDA2 PUSH2 0x239A JUMP JUMPDEST JUMPDEST SWAP1 PUSH0 MSTORE PUSH1 0x20 PUSH0 KECCAK256 ADD PUSH0 SWAP1 SLOAD SWAP1 PUSH2 0x100 EXP SWAP1 DIV PUSH20 0xFFFFFFFFFFFFFFFFFFFFFFFFFFFFFFFFFFFFFFFF AND DUP6 PUSH1 0x40 MLOAD DUP5 PUSH4 0xFFFFFFFF AND PUSH1 0xE0 SHL DUP2 MSTORE PUSH1 0x4 ADD PUSH2 0xDEA SWAP4 SWAP3 SWAP2 SWAP1 PUSH2 0x2169 JUMP JUMPDEST PUSH1 0x20 PUSH1 0x40 MLOAD DUP1 DUP4 SUB DUP2 PUSH0 DUP8 GAS CALL ISZERO DUP1 ISZERO PUSH2 0xE06 JUMPI RETURNDATASIZE PUSH0 DUP1 RETURNDATACOPY RETURNDATASIZE PUSH0 REVERT JUMPDEST POP POP POP POP PUSH1 0x40 MLOAD RETURNDATASIZE PUSH1 0x1F NOT PUSH1 0x1F DUP3 ADD AND DUP3 ADD DUP1 PUSH1 0x40 MSTORE POP DUP2 ADD SWAP1 PUSH2 0xE2A SWAP2 SWAP1 PUSH2 0x21C8 JUMP JUMPDEST POP DUP1 DUP1 PUSH1 0x1 ADD SWAP2 POP POP PUSH2 0xD65 JUMP JUMPDEST POP DUP4 PUSH20 0xFFFFFFFFFFFFFFFFFFFFFFFFFFFFFFFFFFFFFFFF AND PUSH4 0x23B872DD CALLER ADDRESS PUSH1 0x8 SLOAD DUP8 PUSH2 0xE65 SWAP2 SWAP1 PUSH2 0x23C7 JUMP JUMPDEST PUSH1 0x40 MLOAD DUP5 PUSH4 0xFFFFFFFF AND PUSH1 0xE0 SHL DUP2 MSTORE PUSH1 0x4 ADD PUSH2 0xE83 SWAP4 SWAP3 SWAP2 SWAP1 PUSH2 0x2169 JUMP JUMPDEST PUSH1 0x20 PUSH1 0x40 MLOAD DUP1 DUP4 SUB DUP2 PUSH0 DUP8 GAS CALL ISZERO DUP1 ISZERO PUSH2 0xE9F JUMPI RETURNDATASIZE PUSH0 DUP1 RETURNDATACOPY RETURNDATASIZE PUSH0 REVERT JUMPDEST POP POP POP POP PUSH1 0x40 MLOAD RETURNDATASIZE PUSH1 0x1F NOT PUSH1 0x1F DUP3 ADD AND DUP3 ADD DUP1 PUSH1 0x40 MSTORE POP DUP2 ADD SWAP1 PUSH2 0xEC3 SWAP2 SWAP1 PUSH2 0x21C8 JUMP JUMPDEST POP PUSH1 0x8 SLOAD DUP4 PUSH2 0xED2 SWAP2 SWAP1 PUSH2 0x23C7 JUMP JUMPDEST PUSH1 0x7 PUSH0 DUP3 DUP3 SLOAD PUSH2 0xEE2 SWAP2 SWAP1 PUSH2 0x2220 JUMP JUMPDEST SWAP3 POP POP DUP2 SWAP1 SSTORE POP PUSH1 0x8 SLOAD DUP4 PUSH2 0xEF7 SWAP2 SWAP1 PUSH2 0x23C7 JUMP JUMPDEST PUSH1 0x5 PUSH0 CALLER PUSH20 0xFFFFFFFFFFFFFFFFFFFFFFFFFFFFFFFFFFFFFFFF AND PUSH20 0xFFFFFFFFFFFFFFFFFFFFFFFFFFFFFFFFFFFFFFFF AND DUP2 MSTORE PUSH1 0x20 ADD SWAP1 DUP2 MSTORE PUSH1 0x20 ADD PUSH0 KECCAK256 DUP2 SWAP1 SSTORE POP PUSH1 0x8 SLOAD DUP4 PUSH2 0xF46 SWAP2 SWAP1 PUSH2 0x23C7 JUMP JUMPDEST PUSH1 0x6 PUSH0 CALLER PUSH20 0xFFFFFFFFFFFFFFFFFFFFFFFFFFFFFFFFFFFFFFFF AND PUSH20 0xFFFFFFFFFFFFFFFFFFFFFFFFFFFFFFFFFFFFFFFF AND DUP2 MSTORE PUSH1 0x20 ADD SWAP1 DUP2 MSTORE PUSH1 0x20 ADD PUSH0 KECCAK256 DUP4 PUSH1 0x40 MLOAD PUSH2 0xF91 SWAP2 SWAP1 PUSH2 0x22BF JUMP JUMPDEST SWAP1 DUP2 MSTORE PUSH1 0x20 ADD PUSH1 0x40 MLOAD DUP1 SWAP2 SUB SWAP1 KECCAK256 PUSH0 DUP3 DUP3 SLOAD PUSH2 0xFAD SWAP2 SWAP1 PUSH2 0x2220 JUMP JUMPDEST SWAP3 POP POP DUP2 SWAP1 SSTORE POP PUSH1 0x8 SLOAD DUP4 PUSH2 0xFC2 SWAP2 SWAP1 PUSH2 0x23C7 JUMP JUMPDEST PUSH1 0x4 PUSH0 CALLER PUSH20 0xFFFFFFFFFFFFFFFFFFFFFFFFFFFFFFFFFFFFFFFF AND PUSH20 0xFFFFFFFFFFFFFFFFFFFFFFFFFFFFFFFFFFFFFFFF AND DUP2 MSTORE PUSH1 0x20 ADD SWAP1 DUP2 MSTORE PUSH1 0x20 ADD PUSH0 KECCAK256 PUSH0 DUP7 PUSH20 0xFFFFFFFFFFFFFFFFFFFFFFFFFFFFFFFFFFFFFFFF AND PUSH20 0xFFFFFFFFFFFFFFFFFFFFFFFFFFFFFFFFFFFFFFFF AND DUP2 MSTORE PUSH1 0x20 ADD SWAP1 DUP2 MSTORE PUSH1 0x20 ADD PUSH0 KECCAK256 PUSH0 DUP3 DUP3 SLOAD PUSH2 0x1048 SWAP2 SWAP1 PUSH2 0x2220 JUMP JUMPDEST SWAP3 POP POP DUP2 SWAP1 SSTORE POP PUSH32 0xCC87AB2ABFE87B272AF9B77691E40B3D9186A0431F3D41A8E06D39614F460722 CALLER PUSH1 0x8 SLOAD DUP6 PUSH2 0x107F SWAP2 SWAP1 PUSH2 0x23C7 JUMP JUMPDEST PUSH1 0x40 MLOAD PUSH2 0x108D SWAP3 SWAP2 SWAP1 PUSH2 0x22D5 JUMP JUMPDEST PUSH1 0x40 MLOAD DUP1 SWAP2 SUB SWAP1 LOG1 POP JUMPDEST POP POP POP JUMP JUMPDEST PUSH2 0x10A4 PUSH2 0x1714 JUMP JUMPDEST PUSH2 0x10D1 CALLER PUSH1 0x8 SLOAD DUP4 PUSH20 0xFFFFFFFFFFFFFFFFFFFFFFFFFFFFFFFFFFFFFFFF AND PUSH2 0x185C SWAP1 SWAP3 SWAP2 SWAP1 PUSH4 0xFFFFFFFF AND JUMP JUMPDEST POP JUMP JUMPDEST DUP2 DUP4 PUSH20 0xFFFFFFFFFFFFFFFFFFFFFFFFFFFFFFFFFFFFFFFF AND PUSH4 0x70A08231 ADDRESS PUSH1 0x40 MLOAD DUP3 PUSH4 0xFFFFFFFF AND PUSH1 0xE0 SHL DUP2 MSTORE PUSH1 0x4 ADD PUSH2 0x110E SWAP2 SWAP1 PUSH2 0x1C6D JUMP JUMPDEST PUSH1 0x20 PUSH1 0x40 MLOAD DUP1 DUP4 SUB DUP2 DUP7 GAS STATICCALL ISZERO DUP1 ISZERO PUSH2 0x1129 JUMPI RETURNDATASIZE PUSH0 DUP1 RETURNDATACOPY RETURNDATASIZE PUSH0 REVERT JUMPDEST POP POP POP POP PUSH1 0x40 MLOAD RETURNDATASIZE PUSH1 0x1F NOT PUSH1 0x1F DUP3 ADD AND DUP3 ADD DUP1 PUSH1 0x40 MSTORE POP DUP2 ADD SWAP1 PUSH2 0x114D SWAP2 SWAP1 PUSH2 0x206E JUMP JUMPDEST LT ISZERO PUSH2 0x118E JUMPI PUSH1 0x40 MLOAD PUSH32 0x8C379A000000000000000000000000000000000000000000000000000000000 DUP2 MSTORE PUSH1 0x4 ADD PUSH2 0x1185 SWAP1 PUSH2 0x214B JUMP JUMPDEST PUSH1 0x40 MLOAD DUP1 SWAP2 SUB SWAP1 REVERT JUMPDEST PUSH20 0x4B3A514DD71850277BBA82491F26DACDF089CB68 PUSH20 0xFFFFFFFFFFFFFFFFFFFFFFFFFFFFFFFFFFFFFFFF AND DUP4 PUSH20 0xFFFFFFFFFFFFFFFFFFFFFFFFFFFFFFFFFFFFFFFF AND SUB PUSH2 0x1326 JUMPI PUSH2 0x1200 DUP2 DUP4 DUP6 PUSH20 0xFFFFFFFFFFFFFFFFFFFFFFFFFFFFFFFFFFFFFFFF AND PUSH2 0x185C SWAP1 SWAP3 SWAP2 SWAP1 PUSH4 0xFFFFFFFF AND JUMP JUMPDEST DUP2 PUSH1 0x7 PUSH0 DUP3 DUP3 SLOAD PUSH2 0x1211 SWAP2 SWAP1 PUSH2 0x23C7 JUMP JUMPDEST SWAP3 POP POP DUP2 SWAP1 SSTORE POP DUP2 PUSH1 0x5 PUSH0 DUP4 PUSH20 0xFFFFFFFFFFFFFFFFFFFFFFFFFFFFFFFFFFFFFFFF AND PUSH20 0xFFFFFFFFFFFFFFFFFFFFFFFFFFFFFFFFFFFFFFFF AND DUP2 MSTORE PUSH1 0x20 ADD SWAP1 DUP2 MSTORE PUSH1 0x20 ADD PUSH0 KECCAK256 DUP2 SWAP1 SSTORE POP DUP2 PUSH1 0x4 PUSH0 DUP4 PUSH20 0xFFFFFFFFFFFFFFFFFFFFFFFFFFFFFFFFFFFFFFFF AND PUSH20 0xFFFFFFFFFFFFFFFFFFFFFFFFFFFFFFFFFFFFFFFF AND DUP2 MSTORE PUSH1 0x20 ADD SWAP1 DUP2 MSTORE PUSH1 0x20 ADD PUSH0 KECCAK256 PUSH0 DUP6 PUSH20 0xFFFFFFFFFFFFFFFFFFFFFFFFFFFFFFFFFFFFFFFF AND PUSH20 0xFFFFFFFFFFFFFFFFFFFFFFFFFFFFFFFFFFFFFFFF AND DUP2 MSTORE PUSH1 0x20 ADD SWAP1 DUP2 MSTORE PUSH1 0x20 ADD PUSH0 KECCAK256 PUSH0 DUP3 DUP3 SLOAD PUSH2 0x12E1 SWAP2 SWAP1 PUSH2 0x23C7 JUMP JUMPDEST SWAP3 POP POP DUP2 SWAP1 SSTORE POP PUSH32 0xCC87AB2ABFE87B272AF9B77691E40B3D9186A0431F3D41A8E06D39614F460722 DUP2 DUP4 PUSH1 0x40 MLOAD PUSH2 0x1319 SWAP3 SWAP2 SWAP1 PUSH2 0x22D5 JUMP JUMPDEST PUSH1 0x40 MLOAD DUP1 SWAP2 SUB SWAP1 LOG1 PUSH2 0x156E JUMP JUMPDEST PUSH2 0x3E8 PUSH1 0x3 DUP4 PUSH2 0x1336 SWAP2 SWAP1 PUSH2 0x22FC JUMP JUMPDEST PUSH2 0x1340 SWAP2 SWAP1 PUSH2 0x236A JUMP JUMPDEST PUSH1 0x8 DUP2 SWAP1 SSTORE POP PUSH0 PUSH1 0x3 DUP1 SLOAD SWAP1 POP PUSH1 0x8 SLOAD PUSH2 0x135A SWAP2 SWAP1 PUSH2 0x236A JUMP JUMPDEST SWAP1 POP PUSH0 JUMPDEST PUSH1 0x3 DUP1 SLOAD SWAP1 POP DUP2 LT ISZERO PUSH2 0x13DE JUMPI PUSH2 0x13D1 PUSH1 0x3 DUP3 DUP2 SLOAD DUP2 LT PUSH2 0x1382 JUMPI PUSH2 0x1381 PUSH2 0x239A JUMP JUMPDEST JUMPDEST SWAP1 PUSH0 MSTORE PUSH1 0x20 PUSH0 KECCAK256 ADD PUSH0 SWAP1 SLOAD SWAP1 PUSH2 0x100 EXP SWAP1 DIV PUSH20 0xFFFFFFFFFFFFFFFFFFFFFFFFFFFFFFFFFFFFFFFF AND DUP4 DUP8 PUSH20 0xFFFFFFFFFFFFFFFFFFFFFFFFFFFFFFFFFFFFFFFF AND PUSH2 0x185C SWAP1 SWAP3 SWAP2 SWAP1 PUSH4 0xFFFFFFFF AND JUMP JUMPDEST DUP1 DUP1 PUSH1 0x1 ADD SWAP2 POP POP PUSH2 0x135E JUMP JUMPDEST POP PUSH2 0x1417 DUP3 PUSH1 0x8 SLOAD DUP6 PUSH2 0x13F1 SWAP2 SWAP1 PUSH2 0x23C7 JUMP JUMPDEST DUP7 PUSH20 0xFFFFFFFFFFFFFFFFFFFFFFFFFFFFFFFFFFFFFFFF AND PUSH2 0x185C SWAP1 SWAP3 SWAP2 SWAP1 PUSH4 0xFFFFFFFF AND JUMP JUMPDEST PUSH1 0x8 SLOAD DUP4 PUSH2 0x1425 SWAP2 SWAP1 PUSH2 0x23C7 JUMP JUMPDEST PUSH1 0x7 PUSH0 DUP3 DUP3 SLOAD PUSH2 0x1435 SWAP2 SWAP1 PUSH2 0x23C7 JUMP JUMPDEST SWAP3 POP POP DUP2 SWAP1 SSTORE POP PUSH1 0x8 SLOAD DUP4 PUSH2 0x144A SWAP2 SWAP1 PUSH2 0x23C7 JUMP JUMPDEST PUSH1 0x5 PUSH0 DUP5 PUSH20 0xFFFFFFFFFFFFFFFFFFFFFFFFFFFFFFFFFFFFFFFF AND PUSH20 0xFFFFFFFFFFFFFFFFFFFFFFFFFFFFFFFFFFFFFFFF AND DUP2 MSTORE PUSH1 0x20 ADD SWAP1 DUP2 MSTORE PUSH1 0x20 ADD PUSH0 KECCAK256 DUP2 SWAP1 SSTORE POP PUSH1 0x8 SLOAD DUP4 PUSH2 0x1499 SWAP2 SWAP1 PUSH2 0x23C7 JUMP JUMPDEST PUSH1 0x4 PUSH0 DUP5 PUSH20 0xFFFFFFFFFFFFFFFFFFFFFFFFFFFFFFFFFFFFFFFF AND PUSH20 0xFFFFFFFFFFFFFFFFFFFFFFFFFFFFFFFFFFFFFFFF AND DUP2 MSTORE PUSH1 0x20 ADD SWAP1 DUP2 MSTORE PUSH1 0x20 ADD PUSH0 KECCAK256 PUSH0 DUP7 PUSH20 0xFFFFFFFFFFFFFFFFFFFFFFFFFFFFFFFFFFFFFFFF AND PUSH20 0xFFFFFFFFFFFFFFFFFFFFFFFFFFFFFFFFFFFFFFFF AND DUP2 MSTORE PUSH1 0x20 ADD SWAP1 DUP2 MSTORE PUSH1 0x20 ADD PUSH0 KECCAK256 PUSH0 DUP3 DUP3 SLOAD PUSH2 0x151F SWAP2 SWAP1 PUSH2 0x23C7 JUMP JUMPDEST SWAP3 POP POP DUP2 SWAP1 SSTORE POP PUSH32 0xCF53AE9736A409C662FA8B1187549847ACD41BEB1B89FD026293FC2E19ADACA7 DUP3 PUSH1 0x8 SLOAD DUP6 PUSH2 0x1556 SWAP2 SWAP1 PUSH2 0x23C7 JUMP JUMPDEST PUSH1 0x40 MLOAD PUSH2 0x1564 SWAP3 SWAP2 SWAP1 PUSH2 0x22D5 JUMP JUMPDEST PUSH1 0x40 MLOAD DUP1 SWAP2 SUB SWAP1 LOG1 POP JUMPDEST POP POP POP JUMP JUMPDEST PUSH1 0x5 PUSH1 0x20 MSTORE DUP1 PUSH0 MSTORE PUSH1 0x40 PUSH0 KECCAK256 PUSH0 SWAP2 POP SWAP1 POP SLOAD DUP2 JUMP JUMPDEST PUSH1 0x3 DUP2 DUP2 SLOAD DUP2 LT PUSH2 0x1597 JUMPI PUSH0 DUP1 REVERT JUMPDEST SWAP1 PUSH0 MSTORE PUSH1 0x20 PUSH0 KECCAK256 ADD PUSH0 SWAP2 POP SLOAD SWAP1 PUSH2 0x100 EXP SWAP1 DIV PUSH20 0xFFFFFFFFFFFFFFFFFFFFFFFFFFFFFFFFFFFFFFFF AND DUP2 JUMP JUMPDEST PUSH2 0x15CB PUSH2 0x1714 JUMP JUMPDEST PUSH0 PUSH20 0xFFFFFFFFFFFFFFFFFFFFFFFFFFFFFFFFFFFFFFFF AND DUP2 PUSH20 0xFFFFFFFFFFFFFFFFFFFFFFFFFFFFFFFFFFFFFFFF AND SUB PUSH2 0x163B JUMPI PUSH0 PUSH1 0x40 MLOAD PUSH32 0x1E4FBDF700000000000000000000000000000000000000000000000000000000 DUP2 MSTORE PUSH1 0x4 ADD PUSH2 0x1632 SWAP2 SWAP1 PUSH2 0x1C6D JUMP JUMPDEST PUSH1 0x40 MLOAD DUP1 SWAP2 SUB SWAP1 REVERT JUMPDEST PUSH2 0x1644 DUP2 PUSH2 0x179B JUMP JUMPDEST POP JUMP JUMPDEST PUSH0 PUSH1 0x4 PUSH0 DUP4 PUSH20 0xFFFFFFFFFFFFFFFFFFFFFFFFFFFFFFFFFFFFFFFF AND PUSH20 0xFFFFFFFFFFFFFFFFFFFFFFFFFFFFFFFFFFFFFFFF AND DUP2 MSTORE PUSH1 0x20 ADD SWAP1 DUP2 MSTORE PUSH1 0x20 ADD PUSH0 KECCAK256 PUSH0 PUSH20 0x4B3A514DD71850277BBA82491F26DACDF089CB68 PUSH20 0xFFFFFFFFFFFFFFFFFFFFFFFFFFFFFFFFFFFFFFFF AND PUSH20 0xFFFFFFFFFFFFFFFFFFFFFFFFFFFFFFFFFFFFFFFF AND DUP2 MSTORE PUSH1 0x20 ADD SWAP1 DUP2 MSTORE PUSH1 0x20 ADD PUSH0 KECCAK256 SLOAD SWAP1 POP SWAP2 SWAP1 POP JUMP JUMPDEST PUSH1 0x6 PUSH1 0x20 MSTORE DUP2 PUSH0 MSTORE PUSH1 0x40 PUSH0 KECCAK256 DUP2 DUP1 MLOAD PUSH1 0x20 DUP2 ADD DUP3 ADD DUP1 MLOAD DUP5 DUP3 MSTORE PUSH1 0x20 DUP4 ADD PUSH1 0x20 DUP6 ADD KECCAK256 DUP2 DUP4 MSTORE DUP1 SWAP6 POP POP POP POP POP POP PUSH0 SWAP2 POP SWAP2 POP POP SLOAD DUP2 JUMP JUMPDEST PUSH2 0x171C PUSH2 0x18DB JUMP JUMPDEST PUSH20 0xFFFFFFFFFFFFFFFFFFFFFFFFFFFFFFFFFFFFFFFF AND PUSH2 0x173A PUSH2 0x760 JUMP JUMPDEST PUSH20 0xFFFFFFFFFFFFFFFFFFFFFFFFFFFFFFFFFFFFFFFF AND EQ PUSH2 0x1799 JUMPI PUSH2 0x175D PUSH2 0x18DB JUMP JUMPDEST PUSH1 0x40 MLOAD PUSH32 0x118CDAA700000000000000000000000000000000000000000000000000000000 DUP2 MSTORE PUSH1 0x4 ADD PUSH2 0x1790 SWAP2 SWAP1 PUSH2 0x1C6D JUMP JUMPDEST PUSH1 0x40 MLOAD DUP1 SWAP2 SUB SWAP1 REVERT JUMPDEST JUMP JUMPDEST PUSH0 DUP1 PUSH0 SWAP1 SLOAD SWAP1 PUSH2 0x100 EXP SWAP1 DIV PUSH20 0xFFFFFFFFFFFFFFFFFFFFFFFFFFFFFFFFFFFFFFFF AND SWAP1 POP DUP2 PUSH0 DUP1 PUSH2 0x100 EXP DUP2 SLOAD DUP2 PUSH20 0xFFFFFFFFFFFFFFFFFFFFFFFFFFFFFFFFFFFFFFFF MUL NOT AND SWAP1 DUP4 PUSH20 0xFFFFFFFFFFFFFFFFFFFFFFFFFFFFFFFFFFFFFFFF AND MUL OR SWAP1 SSTORE POP DUP2 PUSH20 0xFFFFFFFFFFFFFFFFFFFFFFFFFFFFFFFFFFFFFFFF AND DUP2 PUSH20 0xFFFFFFFFFFFFFFFFFFFFFFFFFFFFFFFFFFFFFFFF AND PUSH32 0x8BE0079C531659141344CD1FD0A4F28419497F9722A3DAAFE3B4186F6B6457E0 PUSH1 0x40 MLOAD PUSH1 0x40 MLOAD DUP1 SWAP2 SUB SWAP1 LOG3 POP POP JUMP JUMPDEST PUSH2 0x18D6 DUP4 DUP5 PUSH20 0xFFFFFFFFFFFFFFFFFFFFFFFFFFFFFFFFFFFFFFFF AND PUSH4 0xA9059CBB DUP6 DUP6 PUSH1 0x40 MLOAD PUSH1 0x24 ADD PUSH2 0x188F SWAP3 SWAP2 SWAP1 PUSH2 0x22D5 JUMP JUMPDEST PUSH1 0x40 MLOAD PUSH1 0x20 DUP2 DUP4 SUB SUB DUP2 MSTORE SWAP1 PUSH1 0x40 MSTORE SWAP2 POP PUSH1 0xE0 SHL PUSH1 0x20 DUP3 ADD DUP1 MLOAD PUSH28 0xFFFFFFFFFFFFFFFFFFFFFFFFFFFFFFFFFFFFFFFFFFFFFFFFFFFFFFFF DUP4 DUP2 DUP4 AND OR DUP4 MSTORE POP POP POP POP PUSH2 0x18E2 JUMP JUMPDEST POP POP POP JUMP JUMPDEST PUSH0 CALLER SWAP1 POP SWAP1 JUMP JUMPDEST PUSH0 PUSH2 0x190C DUP3 DUP5 PUSH20 0xFFFFFFFFFFFFFFFFFFFFFFFFFFFFFFFFFFFFFFFF AND PUSH2 0x1977 SWAP1 SWAP2 SWAP1 PUSH4 0xFFFFFFFF AND JUMP JUMPDEST SWAP1 POP PUSH0 DUP2 MLOAD EQ ISZERO DUP1 ISZERO PUSH2 0x1930 JUMPI POP DUP1 DUP1 PUSH1 0x20 ADD SWAP1 MLOAD DUP2 ADD SWAP1 PUSH2 0x192E SWAP2 SWAP1 PUSH2 0x21C8 JUMP JUMPDEST ISZERO JUMPDEST ISZERO PUSH2 0x1972 JUMPI DUP3 PUSH1 0x40 MLOAD PUSH32 0x5274AFE700000000000000000000000000000000000000000000000000000000 DUP2 MSTORE PUSH1 0x4 ADD PUSH2 0x1969 SWAP2 SWAP1 PUSH2 0x1C6D JUMP JUMPDEST PUSH1 0x40 MLOAD DUP1 SWAP2 SUB SWAP1 REVERT JUMPDEST POP POP POP JUMP JUMPDEST PUSH1 0x60 PUSH2 0x1984 DUP4 DUP4 PUSH0 PUSH2 0x198C JUMP JUMPDEST SWAP1 POP SWAP3 SWAP2 POP POP JUMP JUMPDEST PUSH1 0x60 DUP2 SELFBALANCE LT ISZERO PUSH2 0x19D3 JUMPI ADDRESS PUSH1 0x40 MLOAD PUSH32 0xCD78605900000000000000000000000000000000000000000000000000000000 DUP2 MSTORE PUSH1 0x4 ADD PUSH2 0x19CA SWAP2 SWAP1 PUSH2 0x1C6D JUMP JUMPDEST PUSH1 0x40 MLOAD DUP1 SWAP2 SUB SWAP1 REVERT JUMPDEST PUSH0 DUP1 DUP6 PUSH20 0xFFFFFFFFFFFFFFFFFFFFFFFFFFFFFFFFFFFFFFFF AND DUP5 DUP7 PUSH1 0x40 MLOAD PUSH2 0x19FB SWAP2 SWAP1 PUSH2 0x243E JUMP JUMPDEST PUSH0 PUSH1 0x40 MLOAD DUP1 DUP4 SUB DUP2 DUP6 DUP8 GAS CALL SWAP3 POP POP POP RETURNDATASIZE DUP1 PUSH0 DUP2 EQ PUSH2 0x1A35 JUMPI PUSH1 0x40 MLOAD SWAP2 POP PUSH1 0x1F NOT PUSH1 0x3F RETURNDATASIZE ADD AND DUP3 ADD PUSH1 0x40 MSTORE RETURNDATASIZE DUP3 MSTORE RETURNDATASIZE PUSH0 PUSH1 0x20 DUP5 ADD RETURNDATACOPY PUSH2 0x1A3A JUMP JUMPDEST PUSH1 0x60 SWAP2 POP JUMPDEST POP SWAP2 POP SWAP2 POP PUSH2 0x1A4A DUP7 DUP4 DUP4 PUSH2 0x1A55 JUMP JUMPDEST SWAP3 POP POP POP SWAP4 SWAP3 POP POP POP JUMP JUMPDEST PUSH1 0x60 DUP3 PUSH2 0x1A6A JUMPI PUSH2 0x1A65 DUP3 PUSH2 0x1AE2 JUMP JUMPDEST PUSH2 0x1ADA JUMP JUMPDEST PUSH0 DUP3 MLOAD EQ DUP1 ISZERO PUSH2 0x1A90 JUMPI POP PUSH0 DUP5 PUSH20 0xFFFFFFFFFFFFFFFFFFFFFFFFFFFFFFFFFFFFFFFF AND EXTCODESIZE EQ JUMPDEST ISZERO PUSH2 0x1AD2 JUMPI DUP4 PUSH1 0x40 MLOAD PUSH32 0x9996B31500000000000000000000000000000000000000000000000000000000 DUP2 MSTORE PUSH1 0x4 ADD PUSH2 0x1AC9 SWAP2 SWAP1 PUSH2 0x1C6D JUMP JUMPDEST PUSH1 0x40 MLOAD DUP1 SWAP2 SUB SWAP1 REVERT JUMPDEST DUP2 SWAP1 POP PUSH2 0x1ADB JUMP JUMPDEST JUMPDEST SWAP4 SWAP3 POP POP POP JUMP JUMPDEST PUSH0 DUP2 MLOAD GT ISZERO PUSH2 0x1AF4 JUMPI DUP1 MLOAD DUP1 DUP3 PUSH1 0x20 ADD REVERT JUMPDEST PUSH1 0x40 MLOAD PUSH32 0x1425EA4200000000000000000000000000000000000000000000000000000000 DUP2 MSTORE PUSH1 0x4 ADD PUSH1 0x40 MLOAD DUP1 SWAP2 SUB SWAP1 REVERT JUMPDEST PUSH0 PUSH1 0x40 MLOAD SWAP1 POP SWAP1 JUMP JUMPDEST PUSH0 DUP1 REVERT JUMPDEST PUSH0 DUP1 REVERT JUMPDEST PUSH0 PUSH20 0xFFFFFFFFFFFFFFFFFFFFFFFFFFFFFFFFFFFFFFFF DUP3 AND SWAP1 POP SWAP2 SWAP1 POP JUMP JUMPDEST PUSH0 PUSH2 0x1B60 DUP3 PUSH2 0x1B37 JUMP JUMPDEST SWAP1 POP SWAP2 SWAP1 POP JUMP JUMPDEST PUSH2 0x1B70 DUP2 PUSH2 0x1B56 JUMP JUMPDEST DUP2 EQ PUSH2 0x1B7A JUMPI PUSH0 DUP1 REVERT JUMPDEST POP JUMP JUMPDEST PUSH0 DUP2 CALLDATALOAD SWAP1 POP PUSH2 0x1B8B DUP2 PUSH2 0x1B67 JUMP JUMPDEST SWAP3 SWAP2 POP POP JUMP JUMPDEST PUSH0 PUSH1 0x20 DUP3 DUP5 SUB SLT ISZERO PUSH2 0x1BA6 JUMPI PUSH2 0x1BA5 PUSH2 0x1B2F JUMP JUMPDEST JUMPDEST PUSH0 PUSH2 0x1BB3 DUP5 DUP3 DUP6 ADD PUSH2 0x1B7D JUMP JUMPDEST SWAP2 POP POP SWAP3 SWAP2 POP POP JUMP JUMPDEST PUSH0 DUP1 PUSH1 0x40 DUP4 DUP6 SUB SLT ISZERO PUSH2 0x1BD2 JUMPI PUSH2 0x1BD1 PUSH2 0x1B2F JUMP JUMPDEST JUMPDEST PUSH0 PUSH2 0x1BDF DUP6 DUP3 DUP7 ADD PUSH2 0x1B7D JUMP JUMPDEST SWAP3 POP POP PUSH1 0x20 PUSH2 0x1BF0 DUP6 DUP3 DUP7 ADD PUSH2 0x1B7D JUMP JUMPDEST SWAP2 POP POP SWAP3 POP SWAP3 SWAP1 POP JUMP JUMPDEST PUSH0 DUP2 SWAP1 POP SWAP2 SWAP1 POP JUMP JUMPDEST PUSH2 0x1C0C DUP2 PUSH2 0x1BFA JUMP JUMPDEST DUP3 MSTORE POP POP JUMP JUMPDEST PUSH0 PUSH1 0x20 DUP3 ADD SWAP1 POP PUSH2 0x1C25 PUSH0 DUP4 ADD DUP5 PUSH2 0x1C03 JUMP JUMPDEST SWAP3 SWAP2 POP POP JUMP JUMPDEST PUSH0 DUP2 ISZERO ISZERO SWAP1 POP SWAP2 SWAP1 POP JUMP JUMPDEST PUSH2 0x1C3F DUP2 PUSH2 0x1C2B JUMP JUMPDEST DUP3 MSTORE POP POP JUMP JUMPDEST PUSH0 PUSH1 0x20 DUP3 ADD SWAP1 POP PUSH2 0x1C58 PUSH0 DUP4 ADD DUP5 PUSH2 0x1C36 JUMP JUMPDEST SWAP3 SWAP2 POP POP JUMP JUMPDEST PUSH2 0x1C67 DUP2 PUSH2 0x1B56 JUMP JUMPDEST DUP3 MSTORE POP POP JUMP JUMPDEST PUSH0 PUSH1 0x20 DUP3 ADD SWAP1 POP PUSH2 0x1C80 PUSH0 DUP4 ADD DUP5 PUSH2 0x1C5E JUMP JUMPDEST SWAP3 SWAP2 POP POP JUMP JUMPDEST PUSH2 0x1C8F DUP2 PUSH2 0x1BFA JUMP JUMPDEST DUP2 EQ PUSH2 0x1C99 JUMPI PUSH0 DUP1 REVERT JUMPDEST POP JUMP JUMPDEST PUSH0 DUP2 CALLDATALOAD SWAP1 POP PUSH2 0x1CAA DUP2 PUSH2 0x1C86 JUMP JUMPDEST SWAP3 SWAP2 POP POP JUMP JUMPDEST PUSH0 DUP1 REVERT JUMPDEST PUSH0 DUP1 REVERT JUMPDEST PUSH0 PUSH1 0x1F NOT PUSH1 0x1F DUP4 ADD AND SWAP1 POP SWAP2 SWAP1 POP JUMP JUMPDEST PUSH32 0x4E487B7100000000000000000000000000000000000000000000000000000000 PUSH0 MSTORE PUSH1 0x41 PUSH1 0x4 MSTORE PUSH1 0x24 PUSH0 REVERT JUMPDEST PUSH2 0x1CFE DUP3 PUSH2 0x1CB8 JUMP JUMPDEST DUP2 ADD DUP2 DUP2 LT PUSH8 0xFFFFFFFFFFFFFFFF DUP3 GT OR ISZERO PUSH2 0x1D1D JUMPI PUSH2 0x1D1C PUSH2 0x1CC8 JUMP JUMPDEST JUMPDEST DUP1 PUSH1 0x40 MSTORE POP POP POP JUMP JUMPDEST PUSH0 PUSH2 0x1D2F PUSH2 0x1B26 JUMP JUMPDEST SWAP1 POP PUSH2 0x1D3B DUP3 DUP3 PUSH2 0x1CF5 JUMP JUMPDEST SWAP2 SWAP1 POP JUMP JUMPDEST PUSH0 PUSH8 0xFFFFFFFFFFFFFFFF DUP3 GT ISZERO PUSH2 0x1D5A JUMPI PUSH2 0x1D59 PUSH2 0x1CC8 JUMP JUMPDEST JUMPDEST PUSH2 0x1D63 DUP3 PUSH2 0x1CB8 JUMP JUMPDEST SWAP1 POP PUSH1 0x20 DUP2 ADD SWAP1 POP SWAP2 SWAP1 POP JUMP JUMPDEST DUP3 DUP2 DUP4 CALLDATACOPY PUSH0 DUP4 DUP4 ADD MSTORE POP POP POP JUMP JUMPDEST PUSH0 PUSH2 0x1D90 PUSH2 0x1D8B DUP5 PUSH2 0x1D40 JUMP JUMPDEST PUSH2 0x1D26 JUMP JUMPDEST SWAP1 POP DUP3 DUP2 MSTORE PUSH1 0x20 DUP2 ADD DUP5 DUP5 DUP5 ADD GT ISZERO PUSH2 0x1DAC JUMPI PUSH2 0x1DAB PUSH2 0x1CB4 JUMP JUMPDEST JUMPDEST PUSH2 0x1DB7 DUP5 DUP3 DUP6 PUSH2 0x1D70 JUMP JUMPDEST POP SWAP4 SWAP3 POP POP POP JUMP JUMPDEST PUSH0 DUP3 PUSH1 0x1F DUP4 ADD SLT PUSH2 0x1DD3 JUMPI PUSH2 0x1DD2 PUSH2 0x1CB0 JUMP JUMPDEST JUMPDEST DUP2 CALLDATALOAD PUSH2 0x1DE3 DUP5 DUP3 PUSH1 0x20 DUP7 ADD PUSH2 0x1D7E JUMP JUMPDEST SWAP2 POP POP SWAP3 SWAP2 POP POP JUMP JUMPDEST PUSH0 DUP1 PUSH0 PUSH1 0x60 DUP5 DUP7 SUB SLT ISZERO PUSH2 0x1E03 JUMPI PUSH2 0x1E02 PUSH2 0x1B2F JUMP JUMPDEST JUMPDEST PUSH0 PUSH2 0x1E10 DUP7 DUP3 DUP8 ADD PUSH2 0x1B7D JUMP JUMPDEST SWAP4 POP POP PUSH1 0x20 PUSH2 0x1E21 DUP7 DUP3 DUP8 ADD PUSH2 0x1C9C JUMP JUMPDEST SWAP3 POP POP PUSH1 0x40 DUP5 ADD CALLDATALOAD PUSH8 0xFFFFFFFFFFFFFFFF DUP2 GT ISZERO PUSH2 0x1E42 JUMPI PUSH2 0x1E41 PUSH2 0x1B33 JUMP JUMPDEST JUMPDEST PUSH2 0x1E4E DUP7 DUP3 DUP8 ADD PUSH2 0x1DBF JUMP JUMPDEST SWAP2 POP POP SWAP3 POP SWAP3 POP SWAP3 JUMP JUMPDEST PUSH0 DUP1 PUSH0 PUSH1 0x60 DUP5 DUP7 SUB SLT ISZERO PUSH2 0x1E6F JUMPI PUSH2 0x1E6E PUSH2 0x1B2F JUMP JUMPDEST JUMPDEST PUSH0 PUSH2 0x1E7C DUP7 DUP3 DUP8 ADD PUSH2 0x1B7D JUMP JUMPDEST SWAP4 POP POP PUSH1 0x20 PUSH2 0x1E8D DUP7 DUP3 DUP8 ADD PUSH2 0x1C9C JUMP JUMPDEST SWAP3 POP POP PUSH1 0x40 PUSH2 0x1E9E DUP7 DUP3 DUP8 ADD PUSH2 0x1B7D JUMP JUMPDEST SWAP2 POP POP SWAP3 POP SWAP3 POP SWAP3 JUMP JUMPDEST PUSH0 PUSH1 0x20 DUP3 DUP5 SUB SLT ISZERO PUSH2 0x1EBD JUMPI PUSH2 0x1EBC PUSH2 0x1B2F JUMP JUMPDEST JUMPDEST PUSH0 PUSH2 0x1ECA DUP5 DUP3 DUP6 ADD PUSH2 0x1C9C JUMP JUMPDEST SWAP2 POP POP SWAP3 SWAP2 POP POP JUMP JUMPDEST PUSH0 DUP1 PUSH1 0x40 DUP4 DUP6 SUB SLT ISZERO PUSH2 0x1EE9 JUMPI PUSH2 0x1EE8 PUSH2 0x1B2F JUMP JUMPDEST JUMPDEST PUSH0 PUSH2 0x1EF6 DUP6 DUP3 DUP7 ADD PUSH2 0x1B7D JUMP JUMPDEST SWAP3 POP POP PUSH1 0x20 DUP4 ADD CALLDATALOAD PUSH8 0xFFFFFFFFFFFFFFFF DUP2 GT ISZERO PUSH2 0x1F17 JUMPI PUSH2 0x1F16 PUSH2 0x1B33 JUMP JUMPDEST JUMPDEST PUSH2 0x1F23 DUP6 DUP3 DUP7 ADD PUSH2 0x1DBF JUMP JUMPDEST SWAP2 POP POP SWAP3 POP SWAP3 SWAP1 POP JUMP JUMPDEST PUSH0 DUP3 DUP3 MSTORE PUSH1 0x20 DUP3 ADD SWAP1 POP SWAP3 SWAP2 POP POP JUMP JUMPDEST PUSH32 0x54686973204164647265737320646F6573206E6F742065786973742100000000 PUSH0 DUP3 ADD MSTORE POP JUMP JUMPDEST PUSH0 PUSH2 0x1F71 PUSH1 0x1C DUP4 PUSH2 0x1F2D JUMP JUMPDEST SWAP2 POP PUSH2 0x1F7C DUP3 PUSH2 0x1F3D JUMP JUMPDEST PUSH1 0x20 DUP3 ADD SWAP1 POP SWAP2 SWAP1 POP JUMP JUMPDEST PUSH0 PUSH1 0x20 DUP3 ADD SWAP1 POP DUP2 DUP2 SUB PUSH0 DUP4 ADD MSTORE PUSH2 0x1F9E DUP2 PUSH2 0x1F65 JUMP JUMPDEST SWAP1 POP SWAP2 SWAP1 POP JUMP JUMPDEST PUSH32 0x54686973204164647265737320697320616C72656164792057686974654C6973 PUSH0 DUP3 ADD MSTORE PUSH32 0x7465642100000000000000000000000000000000000000000000000000000000 PUSH1 0x20 DUP3 ADD MSTORE POP JUMP JUMPDEST PUSH0 PUSH2 0x1FFF PUSH1 0x24 DUP4 PUSH2 0x1F2D JUMP JUMPDEST SWAP2 POP PUSH2 0x200A DUP3 PUSH2 0x1FA5 JUMP JUMPDEST PUSH1 0x40 DUP3 ADD SWAP1 POP SWAP2 SWAP1 POP JUMP JUMPDEST PUSH0 PUSH1 0x20 DUP3 ADD SWAP1 POP DUP2 DUP2 SUB PUSH0 DUP4 ADD MSTORE PUSH2 0x202C DUP2 PUSH2 0x1FF3 JUMP JUMPDEST SWAP1 POP SWAP2 SWAP1 POP JUMP JUMPDEST PUSH0 PUSH1 0x40 DUP3 ADD SWAP1 POP PUSH2 0x2046 PUSH0 DUP4 ADD DUP6 PUSH2 0x1C5E JUMP JUMPDEST PUSH2 0x2053 PUSH1 0x20 DUP4 ADD DUP5 PUSH2 0x1C5E JUMP JUMPDEST SWAP4 SWAP3 POP POP POP JUMP JUMPDEST PUSH0 DUP2 MLOAD SWAP1 POP PUSH2 0x2068 DUP2 PUSH2 0x1C86 JUMP JUMPDEST SWAP3 SWAP2 POP POP JUMP JUMPDEST PUSH0 PUSH1 0x20 DUP3 DUP5 SUB SLT ISZERO PUSH2 0x2083 JUMPI PUSH2 0x2082 PUSH2 0x1B2F JUMP JUMPDEST JUMPDEST PUSH0 PUSH2 0x2090 DUP5 DUP3 DUP6 ADD PUSH2 0x205A JUMP JUMPDEST SWAP2 POP POP SWAP3 SWAP2 POP POP JUMP JUMPDEST PUSH32 0x416C6C6F77616E6365206E6F7420736574000000000000000000000000000000 PUSH0 DUP3 ADD MSTORE POP JUMP JUMPDEST PUSH0 PUSH2 0x20CD PUSH1 0x11 DUP4 PUSH2 0x1F2D JUMP JUMPDEST SWAP2 POP PUSH2 0x20D8 DUP3 PUSH2 0x2099 JUMP JUMPDEST PUSH1 0x20 DUP3 ADD SWAP1 POP SWAP2 SWAP1 POP JUMP JUMPDEST PUSH0 PUSH1 0x20 DUP3 ADD SWAP1 POP DUP2 DUP2 SUB PUSH0 DUP4 ADD MSTORE PUSH2 0x20FA DUP2 PUSH2 0x20C1 JUMP JUMPDEST SWAP1 POP SWAP2 SWAP1 POP JUMP JUMPDEST PUSH32 0x496E73756666696369656E742062616C616E6365000000000000000000000000 PUSH0 DUP3 ADD MSTORE POP JUMP JUMPDEST PUSH0 PUSH2 0x2135 PUSH1 0x14 DUP4 PUSH2 0x1F2D JUMP JUMPDEST SWAP2 POP PUSH2 0x2140 DUP3 PUSH2 0x2101 JUMP JUMPDEST PUSH1 0x20 DUP3 ADD SWAP1 POP SWAP2 SWAP1 POP JUMP JUMPDEST PUSH0 PUSH1 0x20 DUP3 ADD SWAP1 POP DUP2 DUP2 SUB PUSH0 DUP4 ADD MSTORE PUSH2 0x2162 DUP2 PUSH2 0x2129 JUMP JUMPDEST SWAP1 POP SWAP2 SWAP1 POP JUMP JUMPDEST PUSH0 PUSH1 0x60 DUP3 ADD SWAP1 POP PUSH2 0x217C PUSH0 DUP4 ADD DUP7 PUSH2 0x1C5E JUMP JUMPDEST PUSH2 0x2189 PUSH1 0x20 DUP4 ADD DUP6 PUSH2 0x1C5E JUMP JUMPDEST PUSH2 0x2196 PUSH1 0x40 DUP4 ADD DUP5 PUSH2 0x1C03 JUMP JUMPDEST SWAP5 SWAP4 POP POP POP POP JUMP JUMPDEST PUSH2 0x21A7 DUP2 PUSH2 0x1C2B JUMP JUMPDEST DUP2 EQ PUSH2 0x21B1 JUMPI PUSH0 DUP1 REVERT JUMPDEST POP JUMP JUMPDEST PUSH0 DUP2 MLOAD SWAP1 POP PUSH2 0x21C2 DUP2 PUSH2 0x219E JUMP JUMPDEST SWAP3 SWAP2 POP POP JUMP JUMPDEST PUSH0 PUSH1 0x20 DUP3 DUP5 SUB SLT ISZERO PUSH2 0x21DD JUMPI PUSH2 0x21DC PUSH2 0x1B2F JUMP JUMPDEST JUMPDEST PUSH0 PUSH2 0x21EA DUP5 DUP3 DUP6 ADD PUSH2 0x21B4 JUMP JUMPDEST SWAP2 POP POP SWAP3 SWAP2 POP POP JUMP JUMPDEST PUSH32 0x4E487B7100000000000000000000000000000000000000000000000000000000 PUSH0 MSTORE PUSH1 0x11 PUSH1 0x4 MSTORE PUSH1 0x24 PUSH0 REVERT JUMPDEST PUSH0 PUSH2 0x222A DUP3 PUSH2 0x1BFA JUMP JUMPDEST SWAP2 POP PUSH2 0x2235 DUP4 PUSH2 0x1BFA JUMP JUMPDEST SWAP3 POP DUP3 DUP3 ADD SWAP1 POP DUP1 DUP3 GT ISZERO PUSH2 0x224D JUMPI PUSH2 0x224C PUSH2 0x21F3 JUMP JUMPDEST JUMPDEST SWAP3 SWAP2 POP POP JUMP JUMPDEST PUSH0 DUP2 MLOAD SWAP1 POP SWAP2 SWAP1 POP JUMP JUMPDEST PUSH0 DUP2 SWAP1 POP SWAP3 SWAP2 POP POP JUMP JUMPDEST PUSH0 JUMPDEST DUP4 DUP2 LT ISZERO PUSH2 0x2284 JUMPI DUP1 DUP3 ADD MLOAD DUP2 DUP5 ADD MSTORE PUSH1 0x20 DUP2 ADD SWAP1 POP PUSH2 0x2269 JUMP JUMPDEST PUSH0 DUP5 DUP5 ADD MSTORE POP POP POP POP JUMP JUMPDEST PUSH0 PUSH2 0x2299 DUP3 PUSH2 0x2253 JUMP JUMPDEST PUSH2 0x22A3 DUP2 DUP6 PUSH2 0x225D JUMP JUMPDEST SWAP4 POP PUSH2 0x22B3 DUP2 DUP6 PUSH1 0x20 DUP7 ADD PUSH2 0x2267 JUMP JUMPDEST DUP1 DUP5 ADD SWAP2 POP POP SWAP3 SWAP2 POP POP JUMP JUMPDEST PUSH0 PUSH2 0x22CA DUP3 DUP5 PUSH2 0x228F JUMP JUMPDEST SWAP2 POP DUP2 SWAP1 POP SWAP3 SWAP2 POP POP JUMP JUMPDEST PUSH0 PUSH1 0x40 DUP3 ADD SWAP1 POP PUSH2 0x22E8 PUSH0 DUP4 ADD DUP6 PUSH2 0x1C5E JUMP JUMPDEST PUSH2 0x22F5 PUSH1 0x20 DUP4 ADD DUP5 PUSH2 0x1C03 JUMP JUMPDEST SWAP4 SWAP3 POP POP POP JUMP JUMPDEST PUSH0 PUSH2 0x2306 DUP3 PUSH2 0x1BFA JUMP JUMPDEST SWAP2 POP PUSH2 0x2311 DUP4 PUSH2 0x1BFA JUMP JUMPDEST SWAP3 POP DUP3 DUP3 MUL PUSH2 0x231F DUP2 PUSH2 0x1BFA JUMP JUMPDEST SWAP2 POP DUP3 DUP3 DIV DUP5 EQ DUP4 ISZERO OR PUSH2 0x2336 JUMPI PUSH2 0x2335 PUSH2 0x21F3 JUMP JUMPDEST JUMPDEST POP SWAP3 SWAP2 POP POP JUMP JUMPDEST PUSH32 0x4E487B7100000000000000000000000000000000000000000000000000000000 PUSH0 MSTORE PUSH1 0x12 PUSH1 0x4 MSTORE PUSH1 0x24 PUSH0 REVERT JUMPDEST PUSH0 PUSH2 0x2374 DUP3 PUSH2 0x1BFA JUMP JUMPDEST SWAP2 POP PUSH2 0x237F DUP4 PUSH2 0x1BFA JUMP JUMPDEST SWAP3 POP DUP3 PUSH2 0x238F JUMPI PUSH2 0x238E PUSH2 0x233D JUMP JUMPDEST JUMPDEST DUP3 DUP3 DIV SWAP1 POP SWAP3 SWAP2 POP POP JUMP JUMPDEST PUSH32 0x4E487B7100000000000000000000000000000000000000000000000000000000 PUSH0 MSTORE PUSH1 0x32 PUSH1 0x4 MSTORE PUSH1 0x24 PUSH0 REVERT JUMPDEST PUSH0 PUSH2 0x23D1 DUP3 PUSH2 0x1BFA JUMP JUMPDEST SWAP2 POP PUSH2 0x23DC DUP4 PUSH2 0x1BFA JUMP JUMPDEST SWAP3 POP DUP3 DUP3 SUB SWAP1 POP DUP2 DUP2 GT ISZERO PUSH2 0x23F4 JUMPI PUSH2 0x23F3 PUSH2 0x21F3 JUMP JUMPDEST JUMPDEST SWAP3 SWAP2 POP POP JUMP JUMPDEST PUSH0 DUP2 MLOAD SWAP1 POP SWAP2 SWAP1 POP JUMP JUMPDEST PUSH0 DUP2 SWAP1 POP SWAP3 SWAP2 POP POP JUMP JUMPDEST PUSH0 PUSH2 0x2418 DUP3 PUSH2 0x23FA JUMP JUMPDEST PUSH2 0x2422 DUP2 DUP6 PUSH2 0x2404 JUMP JUMPDEST SWAP4 POP PUSH2 0x2432 DUP2 DUP6 PUSH1 0x20 DUP7 ADD PUSH2 0x2267 JUMP JUMPDEST DUP1 DUP5 ADD SWAP2 POP POP SWAP3 SWAP2 POP POP JUMP JUMPDEST PUSH0 PUSH2 0x2449 DUP3 DUP5 PUSH2 0x240E JUMP JUMPDEST SWAP2 POP DUP2 SWAP1 POP SWAP3 SWAP2 POP POP JUMP INVALID LOG2 PUSH5 0x6970667358 0x22 SLT KECCAK256 0x2B 0xE7 NUMBER 0x1E MSTORE STOP 0xD 0x5E PUSH8 0x8A830612F2A9F6D8 0xD0 0xF9 0x4D 0x4F SWAP15 REVERT PUSH13 0x89DA98877E94EDFF64736F6C63 NUMBER STOP ADDMOD AND STOP CALLER "
				},
				"gasEstimates": {
					"creation": {
						"codeDepositCost": "1870800",
						"executionCost": "infinite",
						"totalCost": "infinite"
					},
					"external": {
						"Owner()": "2575",
						"WhiteList(address)": "infinite",
						"currentHoldings()": "2514",
						"holdingOfTokens(address)": "2939",
						"holdingOf_DAI(address)": "2962",
						"holdingOf_USDC(address)": "2940",
						"holdingOf_USDM(address)": "3027",
						"holdingOf_USDT(address)": "3028",
						"overColleteralFeeAmount()": "2493",
						"owner()": "2582",
						"removeFromWhiteList(address)": "infinite",
						"renounceOwnership()": "infinite",
						"substrateSwapTokens(address,uint256,address)": "infinite",
						"swapTokens(address,uint256,string)": "infinite",
						"transferOwnership(address)": "infinite",
						"userAmount(address)": "2846",
						"userTokenAmount(address,address)": "infinite",
						"userTotalSwapAmount(address,string)": "infinite",
						"whilistedAddress(uint256)": "5010",
						"whiteList(address)": "2923",
						"withdrawBalanceTokens(address)": "infinite"
					}
				},
				"methodIdentifiers": {
					"Owner()": "b4a99a4e",
					"WhiteList(address)": "6bc20157",
					"currentHoldings()": "9c2c67c9",
					"holdingOfTokens(address)": "a4329677",
					"holdingOf_DAI(address)": "a7f696cf",
					"holdingOf_USDC(address)": "70181206",
					"holdingOf_USDM(address)": "fca0a3d2",
					"holdingOf_USDT(address)": "a3150978",
					"overColleteralFeeAmount()": "2dd91a4c",
					"owner()": "8da5cb5b",
					"removeFromWhiteList(address)": "01bf6648",
					"renounceOwnership()": "715018a6",
					"substrateSwapTokens(address,uint256,address)": "df77a3aa",
					"swapTokens(address,uint256,string)": "cb8ff545",
					"transferOwnership(address)": "f2fde38b",
					"userAmount(address)": "e1ad418e",
					"userTokenAmount(address,address)": "1f1a675d",
					"userTotalSwapAmount(address,string)": "fd03fe90",
					"whilistedAddress(uint256)": "f09f0aac",
					"whiteList(address)": "372c12b1",
					"withdrawBalanceTokens(address)": "cdb43478"
				}
			},
			"storageLayout": {
				"storage": [
					{
						"astId": 8,
						"contract": "contracts/Liberswap/swaping.sol:TokenSwap",
						"label": "_owner",
						"offset": 0,
						"slot": "0",
						"type": "t_address"
					},
					{
						"astId": 840,
						"contract": "contracts/Liberswap/swaping.sol:TokenSwap",
						"label": "Owner",
						"offset": 0,
						"slot": "1",
						"type": "t_address"
					},
					{
						"astId": 874,
						"contract": "contracts/Liberswap/swaping.sol:TokenSwap",
						"label": "whiteList",
						"offset": 0,
						"slot": "2",
						"type": "t_mapping(t_address,t_bool)"
					},
					{
						"astId": 877,
						"contract": "contracts/Liberswap/swaping.sol:TokenSwap",
						"label": "whilistedAddress",
						"offset": 0,
						"slot": "3",
						"type": "t_array(t_address)dyn_storage"
					},
					{
						"astId": 883,
						"contract": "contracts/Liberswap/swaping.sol:TokenSwap",
						"label": "userTokenAmount",
						"offset": 0,
						"slot": "4",
						"type": "t_mapping(t_address,t_mapping(t_address,t_uint256))"
					},
					{
						"astId": 887,
						"contract": "contracts/Liberswap/swaping.sol:TokenSwap",
						"label": "userAmount",
						"offset": 0,
						"slot": "5",
						"type": "t_mapping(t_address,t_uint256)"
					},
					{
						"astId": 893,
						"contract": "contracts/Liberswap/swaping.sol:TokenSwap",
						"label": "userTotalSwapAmount",
						"offset": 0,
						"slot": "6",
						"type": "t_mapping(t_address,t_mapping(t_string_memory_ptr,t_uint256))"
					},
					{
						"astId": 895,
						"contract": "contracts/Liberswap/swaping.sol:TokenSwap",
						"label": "currentHoldings",
						"offset": 0,
						"slot": "7",
						"type": "t_uint256"
					},
					{
						"astId": 897,
						"contract": "contracts/Liberswap/swaping.sol:TokenSwap",
						"label": "overColleteralFeeAmount",
						"offset": 0,
						"slot": "8",
						"type": "t_uint256"
					}
				],
				"types": {
					"t_address": {
						"encoding": "inplace",
						"label": "address",
						"numberOfBytes": "20"
					},
					"t_array(t_address)dyn_storage": {
						"base": "t_address",
						"encoding": "dynamic_array",
						"label": "address[]",
						"numberOfBytes": "32"
					},
					"t_bool": {
						"encoding": "inplace",
						"label": "bool",
						"numberOfBytes": "1"
					},
					"t_mapping(t_address,t_bool)": {
						"encoding": "mapping",
						"key": "t_address",
						"label": "mapping(address => bool)",
						"numberOfBytes": "32",
						"value": "t_bool"
					},
					"t_mapping(t_address,t_mapping(t_address,t_uint256))": {
						"encoding": "mapping",
						"key": "t_address",
						"label": "mapping(address => mapping(address => uint256))",
						"numberOfBytes": "32",
						"value": "t_mapping(t_address,t_uint256)"
					},
					"t_mapping(t_address,t_mapping(t_string_memory_ptr,t_uint256))": {
						"encoding": "mapping",
						"key": "t_address",
						"label": "mapping(address => mapping(string => uint256))",
						"numberOfBytes": "32",
						"value": "t_mapping(t_string_memory_ptr,t_uint256)"
					},
					"t_mapping(t_address,t_uint256)": {
						"encoding": "mapping",
						"key": "t_address",
						"label": "mapping(address => uint256)",
						"numberOfBytes": "32",
						"value": "t_uint256"
					},
					"t_mapping(t_string_memory_ptr,t_uint256)": {
						"encoding": "mapping",
						"key": "t_string_memory_ptr",
						"label": "mapping(string => uint256)",
						"numberOfBytes": "32",
						"value": "t_uint256"
					},
					"t_string_memory_ptr": {
						"encoding": "bytes",
						"label": "string",
						"numberOfBytes": "32"
					},
					"t_uint256": {
						"encoding": "inplace",
						"label": "uint256",
						"numberOfBytes": "32"
					}
				}
			},
			"userdoc": {
				"kind": "user",
				"methods": {},
				"notice": "Contarct is based on swaping the usd tokens to substrate and vice versa  ",
				"version": 1
			}
		}
	}
}