{
	"contracts/Staking/StakingFinal.sol": {
		"TokenStaking": {
			"abi": [
				{
					"inputs": [
						{
							"internalType": "address",
							"name": "_ERC20Address",
							"type": "address"
						}
					],
					"stateMutability": "nonpayable",
					"type": "constructor"
				},
				{
					"anonymous": false,
					"inputs": [
						{
							"indexed": true,
							"internalType": "address",
							"name": "previousOwner",
							"type": "address"
						},
						{
							"indexed": true,
							"internalType": "address",
							"name": "newOwner",
							"type": "address"
						}
					],
					"name": "OwnershipTransferred",
					"type": "event"
				},
				{
					"inputs": [
						{
							"internalType": "uint256",
							"name": "",
							"type": "uint256"
						}
					],
					"name": "APY",
					"outputs": [
						{
							"internalType": "uint256",
							"name": "",
							"type": "uint256"
						}
					],
					"stateMutability": "view",
					"type": "function"
				},
				{
					"inputs": [
						{
							"internalType": "uint256",
							"name": "",
							"type": "uint256"
						}
					],
					"name": "APYPer",
					"outputs": [
						{
							"internalType": "uint256",
							"name": "",
							"type": "uint256"
						}
					],
					"stateMutability": "view",
					"type": "function"
				},
				{
					"inputs": [
						{
							"internalType": "uint256",
							"name": "_amount",
							"type": "uint256"
						}
					],
					"name": "AdminAddToken",
					"outputs": [],
					"stateMutability": "nonpayable",
					"type": "function"
				},
				{
					"inputs": [
						{
							"internalType": "address",
							"name": "",
							"type": "address"
						}
					],
					"name": "BurnAmount",
					"outputs": [
						{
							"internalType": "uint256",
							"name": "",
							"type": "uint256"
						}
					],
					"stateMutability": "view",
					"type": "function"
				},
				{
					"inputs": [
						{
							"internalType": "address",
							"name": "to",
							"type": "address"
						}
					],
					"name": "ClaimRewards",
					"outputs": [],
					"stateMutability": "nonpayable",
					"type": "function"
				},
				{
					"inputs": [
						{
							"internalType": "address",
							"name": "to",
							"type": "address"
						},
						{
							"internalType": "uint256",
							"name": "_payment",
							"type": "uint256"
						},
						{
							"internalType": "uint256",
							"name": "StakeMonth",
							"type": "uint256"
						},
						{
							"internalType": "uint256",
							"name": "EarnPersentage",
							"type": "uint256"
						}
					],
					"name": "DepositTokens",
					"outputs": [],
					"stateMutability": "nonpayable",
					"type": "function"
				},
				{
					"inputs": [
						{
							"internalType": "address",
							"name": "",
							"type": "address"
						}
					],
					"name": "Details",
					"outputs": [
						{
							"internalType": "uint256",
							"name": "depositTokens",
							"type": "uint256"
						},
						{
							"internalType": "uint256",
							"name": "stakeTime",
							"type": "uint256"
						},
						{
							"internalType": "uint256",
							"name": "StakeMonth",
							"type": "uint256"
						},
						{
							"internalType": "uint256",
							"name": "EarnPersentage",
							"type": "uint256"
						},
						{
							"internalType": "bool",
							"name": "check",
							"type": "bool"
						}
					],
					"stateMutability": "view",
					"type": "function"
				},
				{
					"inputs": [],
					"name": "ERC20Address",
					"outputs": [
						{
							"internalType": "address",
							"name": "",
							"type": "address"
						}
					],
					"stateMutability": "view",
					"type": "function"
				},
				{
					"inputs": [
						{
							"internalType": "address",
							"name": "",
							"type": "address"
						}
					],
					"name": "InterestAmount",
					"outputs": [
						{
							"internalType": "uint256",
							"name": "",
							"type": "uint256"
						}
					],
					"stateMutability": "view",
					"type": "function"
				},
				{
					"inputs": [
						{
							"internalType": "address",
							"name": "",
							"type": "address"
						}
					],
					"name": "RewardAmount",
					"outputs": [
						{
							"internalType": "uint256",
							"name": "",
							"type": "uint256"
						}
					],
					"stateMutability": "view",
					"type": "function"
				},
				{
					"inputs": [
						{
							"internalType": "uint256",
							"name": "Month1",
							"type": "uint256"
						},
						{
							"internalType": "uint256",
							"name": "Month2",
							"type": "uint256"
						},
						{
							"internalType": "uint256",
							"name": "Month3",
							"type": "uint256"
						}
					],
					"name": "SetAPY",
					"outputs": [],
					"stateMutability": "nonpayable",
					"type": "function"
				},
				{
					"inputs": [
						{
							"internalType": "uint256",
							"name": "Month1Per",
							"type": "uint256"
						},
						{
							"internalType": "uint256",
							"name": "Month2Per",
							"type": "uint256"
						},
						{
							"internalType": "uint256",
							"name": "Month3Per",
							"type": "uint256"
						}
					],
					"name": "SetRewardPersentage",
					"outputs": [],
					"stateMutability": "nonpayable",
					"type": "function"
				},
				{
					"inputs": [
						{
							"internalType": "address",
							"name": "",
							"type": "address"
						}
					],
					"name": "Tokens",
					"outputs": [
						{
							"internalType": "uint256",
							"name": "",
							"type": "uint256"
						}
					],
					"stateMutability": "view",
					"type": "function"
				},
				{
					"inputs": [
						{
							"internalType": "address",
							"name": "to",
							"type": "address"
						}
					],
					"name": "WithdrawTokens",
					"outputs": [],
					"stateMutability": "nonpayable",
					"type": "function"
				},
				{
					"inputs": [],
					"name": "getTaxPenalty",
					"outputs": [
						{
							"internalType": "uint256",
							"name": "tax",
							"type": "uint256"
						},
						{
							"internalType": "uint256",
							"name": "pen",
							"type": "uint256"
						}
					],
					"stateMutability": "view",
					"type": "function"
				},
				{
					"inputs": [],
					"name": "owner",
					"outputs": [
						{
							"internalType": "address",
							"name": "",
							"type": "address"
						}
					],
					"stateMutability": "view",
					"type": "function"
				},
				{
					"inputs": [],
					"name": "renounceOwnership",
					"outputs": [],
					"stateMutability": "nonpayable",
					"type": "function"
				},
				{
					"inputs": [
						{
							"internalType": "uint256",
							"name": "taxFee",
							"type": "uint256"
						},
						{
							"internalType": "uint256",
							"name": "_penalty",
							"type": "uint256"
						}
					],
					"name": "setTexAndPenalty",
					"outputs": [],
					"stateMutability": "nonpayable",
					"type": "function"
				},
				{
					"inputs": [],
					"name": "totalStakedTokens",
					"outputs": [
						{
							"internalType": "uint256",
							"name": "",
							"type": "uint256"
						}
					],
					"stateMutability": "view",
					"type": "function"
				},
				{
					"inputs": [
						{
							"internalType": "address",
							"name": "newOwner",
							"type": "address"
						}
					],
					"name": "transferOwnership",
					"outputs": [],
					"stateMutability": "nonpayable",
					"type": "function"
				},
				{
					"inputs": [
						{
							"internalType": "address",
							"name": "to",
							"type": "address"
						}
					],
					"name": "viewBurnRewards",
					"outputs": [
						{
							"internalType": "uint256",
							"name": "reward",
							"type": "uint256"
						}
					],
					"stateMutability": "view",
					"type": "function"
				},
				{
					"inputs": [
						{
							"internalType": "address",
							"name": "to",
							"type": "address"
						}
					],
					"name": "viewRewards",
					"outputs": [
						{
							"internalType": "uint256",
							"name": "reward",
							"type": "uint256"
						}
					],
					"stateMutability": "view",
					"type": "function"
				}
			],
			"devdoc": {
				"kind": "dev",
				"methods": {
					"owner()": {
						"details": "Returns the address of the current owner."
					},
					"renounceOwnership()": {
						"details": "Leaves the contract without owner. It will not be possible to call `onlyOwner` functions anymore. Can only be called by the current owner. NOTE: Renouncing ownership will leave the contract without an owner, thereby removing any functionality that is only available to the owner."
					},
					"transferOwnership(address)": {
						"details": "Transfers ownership of the contract to a new account (`newOwner`). Can only be called by the current owner."
					}
				},
				"version": 1
			},
			"evm": {
				"assembly": "    /* \"contracts/Staking/StakingFinal.sol\":281:12169  contract TokenStaking is Ownable {... */\n  mstore(0x40, 0x80)\n    /* \"contracts/Staking/StakingFinal.sol\":1244:1359  constructor(address _ERC20Address) {... */\n  callvalue\n  dup1\n  iszero\n  tag_1\n  jumpi\n  0x00\n  dup1\n  revert\ntag_1:\n  pop\n  mload(0x40)\n  sub(codesize, bytecodeSize)\n  dup1\n  bytecodeSize\n  dup4\n  codecopy\n  dup2\n  add\n  0x40\n  dup2\n  swap1\n  mstore\n  tag_2\n  swap2\n  tag_3\n  jump\t// in\ntag_2:\n    /* \"@openzeppelin/contracts/access/Ownable.sol\":936:968  _transferOwnership(_msgSender()) */\n  tag_7\n    /* \"@openzeppelin/contracts/utils/Context.sol\":719:729  msg.sender */\n  caller\n    /* \"@openzeppelin/contracts/access/Ownable.sol\":936:954  _transferOwnership */\n  tag_10\n    /* \"@openzeppelin/contracts/access/Ownable.sol\":936:968  _transferOwnership(_msgSender()) */\n  jump\t// in\ntag_7:\n    /* \"contracts/Staking/StakingFinal.sol\":1289:1301  ERC20Address */\n  0x01\n    /* \"contracts/Staking/StakingFinal.sol\":1289:1317  ERC20Address = _ERC20Address */\n  dup1\n  sload\n  sub(shl(0xa0, 0x01), 0x01)\n  swap1\n  swap3\n  and\n  not(sub(shl(0xa0, 0x01), 0x01))\n  swap3\n  dup4\n  and\n  or\n  swap1\n  sstore\n    /* \"contracts/Staking/StakingFinal.sol\":1327:1339  ownerAddress */\n  0x02\n    /* \"contracts/Staking/StakingFinal.sol\":1327:1352  ownerAddress = msg.sender */\n  dup1\n  sload\n  swap1\n  swap2\n  and\n    /* \"contracts/Staking/StakingFinal.sol\":1342:1352  msg.sender */\n  caller\n    /* \"contracts/Staking/StakingFinal.sol\":1327:1352  ownerAddress = msg.sender */\n  or\n  swap1\n  sstore\n    /* \"contracts/Staking/StakingFinal.sol\":281:12169  contract TokenStaking is Ownable {... */\n  jump(tag_15)\n    /* \"@openzeppelin/contracts/access/Ownable.sol\":2433:2620  function _transferOwnership(address newOwner) internal virtual {... */\ntag_10:\n    /* \"@openzeppelin/contracts/access/Ownable.sol\":2506:2522  address oldOwner */\n  0x00\n    /* \"@openzeppelin/contracts/access/Ownable.sol\":2525:2531  _owner */\n  dup1\n  sload\n  sub(shl(0xa0, 0x01), 0x01)\n    /* \"@openzeppelin/contracts/access/Ownable.sol\":2541:2558  _owner = newOwner */\n  dup4\n  dup2\n  and\n  not(sub(shl(0xa0, 0x01), 0x01))\n  dup4\n  and\n  dup2\n  or\n  dup5\n  sstore\n    /* \"@openzeppelin/contracts/access/Ownable.sol\":2573:2613  OwnershipTransferred(oldOwner, newOwner) */\n  mload(0x40)\n    /* \"@openzeppelin/contracts/access/Ownable.sol\":2525:2531  _owner */\n  swap2\n  swap1\n  swap3\n  and\n  swap3\n  dup4\n  swap2\n    /* \"@openzeppelin/contracts/access/Ownable.sol\":2573:2613  OwnershipTransferred(oldOwner, newOwner) */\n  0x8be0079c531659141344cd1fd0a4f28419497f9722a3daafe3b4186f6b6457e0\n  swap2\n    /* \"@openzeppelin/contracts/access/Ownable.sol\":2506:2522  address oldOwner */\n  swap1\n    /* \"@openzeppelin/contracts/access/Ownable.sol\":2573:2613  OwnershipTransferred(oldOwner, newOwner) */\n  log3\n    /* \"@openzeppelin/contracts/access/Ownable.sol\":2496:2620  {... */\n  pop\n    /* \"@openzeppelin/contracts/access/Ownable.sol\":2433:2620  function _transferOwnership(address newOwner) internal virtual {... */\n  pop\n  jump\t// out\n    /* \"#utility.yul\":14:304   */\ntag_3:\n    /* \"#utility.yul\":84:90   */\n  0x00\n    /* \"#utility.yul\":137:139   */\n  0x20\n    /* \"#utility.yul\":125:134   */\n  dup3\n    /* \"#utility.yul\":116:123   */\n  dup5\n    /* \"#utility.yul\":112:135   */\n  sub\n    /* \"#utility.yul\":108:140   */\n  slt\n    /* \"#utility.yul\":105:157   */\n  iszero\n  tag_17\n  jumpi\n    /* \"#utility.yul\":153:154   */\n  0x00\n    /* \"#utility.yul\":150:151   */\n  dup1\n    /* \"#utility.yul\":143:155   */\n  revert\n    /* \"#utility.yul\":105:157   */\ntag_17:\n    /* \"#utility.yul\":179:195   */\n  dup2\n  mload\n  sub(shl(0xa0, 0x01), 0x01)\n    /* \"#utility.yul\":224:255   */\n  dup2\n  and\n    /* \"#utility.yul\":214:256   */\n  dup2\n  eq\n    /* \"#utility.yul\":204:274   */\n  tag_18\n  jumpi\n    /* \"#utility.yul\":270:271   */\n  0x00\n    /* \"#utility.yul\":267:268   */\n  dup1\n    /* \"#utility.yul\":260:272   */\n  revert\n    /* \"#utility.yul\":204:274   */\ntag_18:\n    /* \"#utility.yul\":293:298   */\n  swap4\n    /* \"#utility.yul\":14:304   */\n  swap3\n  pop\n  pop\n  pop\n  jump\t// out\ntag_15:\n    /* \"contracts/Staking/StakingFinal.sol\":281:12169  contract TokenStaking is Ownable {... */\n  dataSize(sub_0)\n  dup1\n  dataOffset(sub_0)\n  0x00\n  codecopy\n  0x00\n  return\nstop\n\nsub_0: assembly {\n        /* \"contracts/Staking/StakingFinal.sol\":281:12169  contract TokenStaking is Ownable {... */\n      mstore(0x40, 0x80)\n      callvalue\n      dup1\n      iszero\n      tag_1\n      jumpi\n      0x00\n      dup1\n      revert\n    tag_1:\n      pop\n      jumpi(tag_2, lt(calldatasize, 0x04))\n      shr(0xe0, calldataload(0x00))\n      dup1\n      0x715018a6\n      gt\n      tag_25\n      jumpi\n      dup1\n      0xa6021ace\n      gt\n      tag_26\n      jumpi\n      dup1\n      0xa6021ace\n      eq\n      tag_19\n      jumpi\n      dup1\n      0xc0cd40ee\n      eq\n      tag_20\n      jumpi\n      dup1\n      0xd6f80a25\n      eq\n      tag_21\n      jumpi\n      dup1\n      0xda40ef80\n      eq\n      tag_22\n      jumpi\n      dup1\n      0xe88cc2be\n      eq\n      tag_23\n      jumpi\n      dup1\n      0xf2fde38b\n      eq\n      tag_24\n      jumpi\n      0x00\n      dup1\n      revert\n    tag_26:\n      dup1\n      0x715018a6\n      eq\n      tag_14\n      jumpi\n      dup1\n      0x777b4cd8\n      eq\n      tag_15\n      jumpi\n      dup1\n      0x897b3a68\n      eq\n      tag_16\n      jumpi\n      dup1\n      0x8da5cb5b\n      eq\n      tag_17\n      jumpi\n      dup1\n      0x9131a05a\n      eq\n      tag_18\n      jumpi\n      0x00\n      dup1\n      revert\n    tag_25:\n      dup1\n      0x21736665\n      gt\n      tag_27\n      jumpi\n      dup1\n      0x21736665\n      eq\n      tag_8\n      jumpi\n      dup1\n      0x22b72666\n      eq\n      tag_9\n      jumpi\n      dup1\n      0x264b4af6\n      eq\n      tag_10\n      jumpi\n      dup1\n      0x2e886f1f\n      eq\n      tag_11\n      jumpi\n      dup1\n      0x3ae73259\n      eq\n      tag_12\n      jumpi\n      dup1\n      0x662b12c9\n      eq\n      tag_13\n      jumpi\n      0x00\n      dup1\n      revert\n    tag_27:\n      dup1\n      0x0178be5f\n      eq\n      tag_3\n      jumpi\n      dup1\n      0x032ad8fb\n      eq\n      tag_4\n      jumpi\n      dup1\n      0x0deef63a\n      eq\n      tag_5\n      jumpi\n      dup1\n      0x10c404da\n      eq\n      tag_6\n      jumpi\n      dup1\n      0x186cb65b\n      eq\n      tag_7\n      jumpi\n    tag_2:\n      0x00\n      dup1\n      revert\n        /* \"contracts/Staking/StakingFinal.sol\":9556:10255  function ClaimRewards(address to) public {... */\n    tag_3:\n      tag_28\n      tag_29\n      calldatasize\n      0x04\n      tag_30\n      jump\t// in\n    tag_29:\n      tag_31\n      jump\t// in\n    tag_28:\n      stop\n        /* \"contracts/Staking/StakingFinal.sol\":10260:10522  function viewBurnRewards(address to) public view returns (uint256 reward) {... */\n    tag_4:\n      tag_32\n      tag_33\n      calldatasize\n      0x04\n      tag_30\n      jump\t// in\n    tag_33:\n      tag_34\n      jump\t// in\n    tag_32:\n      mload(0x40)\n        /* \"#utility.yul\":529:554   */\n      swap1\n      dup2\n      mstore\n        /* \"#utility.yul\":517:519   */\n      0x20\n        /* \"#utility.yul\":502:520   */\n      add\n        /* \"contracts/Staking/StakingFinal.sol\":10260:10522  function viewBurnRewards(address to) public view returns (uint256 reward) {... */\n    tag_35:\n      mload(0x40)\n      dup1\n      swap2\n      sub\n      swap1\n      return\n        /* \"contracts/Staking/StakingFinal.sol\":860:901  mapping(address => uint256) public Tokens */\n    tag_5:\n      tag_32\n      tag_38\n      calldatasize\n      0x04\n      tag_30\n      jump\t// in\n    tag_38:\n      mstore(0x20, 0x0b)\n      0x00\n      swap1\n      dup2\n      mstore\n      0x40\n      swap1\n      keccak256\n      sload\n      dup2\n      jump\n        /* \"contracts/Staking/StakingFinal.sol\":2114:4628  function DepositTokens(... */\n    tag_6:\n      tag_28\n      tag_42\n      calldatasize\n      0x04\n      tag_43\n      jump\t// in\n    tag_42:\n      tag_44\n      jump\t// in\n        /* \"contracts/Staking/StakingFinal.sol\":769:807  mapping(uint256 => uint256) public APY */\n    tag_7:\n      tag_32\n      tag_46\n      calldatasize\n      0x04\n      tag_47\n      jump\t// in\n    tag_46:\n      mstore(0x20, 0x09)\n      0x00\n      swap1\n      dup2\n      mstore\n      0x40\n      swap1\n      keccak256\n      sload\n      dup2\n      jump\n        /* \"contracts/Staking/StakingFinal.sol\":11258:11451  function SetAPY(... */\n    tag_8:\n      tag_28\n      tag_51\n      calldatasize\n      0x04\n      tag_52\n      jump\t// in\n    tag_51:\n      tag_53\n      jump\t// in\n        /* \"contracts/Staking/StakingFinal.sol\":960:1005  mapping(address => uint256) public BurnAmount */\n    tag_9:\n      tag_32\n      tag_55\n      calldatasize\n      0x04\n      tag_30\n      jump\t// in\n    tag_55:\n      mstore(0x20, 0x0d)\n      0x00\n      swap1\n      dup2\n      mstore\n      0x40\n      swap1\n      keccak256\n      sload\n      dup2\n      jump\n        /* \"contracts/Staking/StakingFinal.sol\":11927:12051  function setTexAndPenalty(uint256 taxFee, uint256 _penalty) public {... */\n    tag_10:\n      tag_28\n      tag_59\n      calldatasize\n      0x04\n      tag_60\n      jump\t// in\n    tag_59:\n        /* \"contracts/Staking/StakingFinal.sol\":12004:12007  Tax */\n      0x05\n        /* \"contracts/Staking/StakingFinal.sol\":12004:12016  Tax = taxFee */\n      swap2\n      swap1\n      swap2\n      sstore\n        /* \"contracts/Staking/StakingFinal.sol\":12026:12033  penalty */\n      0x06\n        /* \"contracts/Staking/StakingFinal.sol\":12026:12044  penalty = _penalty */\n      sstore\n        /* \"contracts/Staking/StakingFinal.sol\":11927:12051  function setTexAndPenalty(uint256 taxFee, uint256 _penalty) public {... */\n      jump\n        /* \"contracts/Staking/StakingFinal.sol\":12057:12167  function getTaxPenalty() public view returns (uint256 tax, uint256 pen) {... */\n    tag_11:\n        /* \"contracts/Staking/StakingFinal.sol\":12147:12150  Tax */\n      sload(0x05)\n        /* \"contracts/Staking/StakingFinal.sol\":12152:12159  penalty */\n      sload(0x06)\n        /* \"contracts/Staking/StakingFinal.sol\":12057:12167  function getTaxPenalty() public view returns (uint256 tax, uint256 pen) {... */\n      0x40\n      dup1\n      mload\n        /* \"#utility.yul\":1894:1919   */\n      swap3\n      dup4\n      mstore\n        /* \"#utility.yul\":1950:1952   */\n      0x20\n        /* \"#utility.yul\":1935:1953   */\n      dup4\n      add\n        /* \"#utility.yul\":1928:1962   */\n      swap2\n      swap1\n      swap2\n      mstore\n        /* \"#utility.yul\":1867:1885   */\n      add\n        /* \"contracts/Staking/StakingFinal.sol\":12057:12167  function getTaxPenalty() public view returns (uint256 tax, uint256 pen) {... */\n      tag_35\n        /* \"#utility.yul\":1720:1968   */\n      jump\n        /* \"contracts/Staking/StakingFinal.sol\":411:443  uint256 public totalStakedTokens */\n    tag_12:\n      tag_32\n      sload(0x03)\n      dup2\n      jump\n        /* \"contracts/Staking/StakingFinal.sol\":714:763  mapping(address => uint256) public InterestAmount */\n    tag_13:\n      tag_32\n      tag_70\n      calldatasize\n      0x04\n      tag_30\n      jump\t// in\n    tag_70:\n      mstore(0x20, 0x08)\n      0x00\n      swap1\n      dup2\n      mstore\n      0x40\n      swap1\n      keccak256\n      sload\n      dup2\n      jump\n        /* \"@openzeppelin/contracts/access/Ownable.sol\":1831:1932  function renounceOwnership() public virtual onlyOwner {... */\n    tag_14:\n      tag_28\n      tag_74\n      jump\t// in\n        /* \"contracts/Staking/StakingFinal.sol\":907:954  mapping(address => uint256) public RewardAmount */\n    tag_15:\n      tag_32\n      tag_76\n      calldatasize\n      0x04\n      tag_30\n      jump\t// in\n    tag_76:\n      mstore(0x20, 0x0c)\n      0x00\n      swap1\n      dup2\n      mstore\n      0x40\n      swap1\n      keccak256\n      sload\n      dup2\n      jump\n        /* \"contracts/Staking/StakingFinal.sol\":813:854  mapping(uint256 => uint256) public APYPer */\n    tag_16:\n      tag_32\n      tag_80\n      calldatasize\n      0x04\n      tag_47\n      jump\t// in\n    tag_80:\n      mstore(0x20, 0x0a)\n      0x00\n      swap1\n      dup2\n      mstore\n      0x40\n      swap1\n      keccak256\n      sload\n      dup2\n      jump\n        /* \"@openzeppelin/contracts/access/Ownable.sol\":1201:1286  function owner() public view virtual returns (address) {... */\n    tag_17:\n        /* \"@openzeppelin/contracts/access/Ownable.sol\":1247:1254  address */\n      0x00\n        /* \"@openzeppelin/contracts/access/Ownable.sol\":1273:1279  _owner */\n      sload\n      sub(shl(0xa0, 0x01), 0x01)\n      and\n        /* \"@openzeppelin/contracts/access/Ownable.sol\":1201:1286  function owner() public view virtual returns (address) {... */\n    tag_83:\n      mload(0x40)\n      sub(shl(0xa0, 0x01), 0x01)\n        /* \"#utility.yul\":2137:2169   */\n      swap1\n      swap2\n      and\n        /* \"#utility.yul\":2119:2170   */\n      dup2\n      mstore\n        /* \"#utility.yul\":2107:2109   */\n      0x20\n        /* \"#utility.yul\":2092:2110   */\n      add\n        /* \"@openzeppelin/contracts/access/Ownable.sol\":1201:1286  function owner() public view virtual returns (address) {... */\n      tag_35\n        /* \"#utility.yul\":1973:2176   */\n      jump\n        /* \"contracts/Staking/StakingFinal.sol\":4824:9361  function WithdrawTokens(address to) public {... */\n    tag_18:\n      tag_28\n      tag_88\n      calldatasize\n      0x04\n      tag_30\n      jump\t// in\n    tag_88:\n      tag_89\n      jump\t// in\n        /* \"contracts/Staking/StakingFinal.sol\":352:379  address public ERC20Address */\n    tag_19:\n      sload(0x01)\n      tag_83\n      swap1\n      sub(shl(0xa0, 0x01), 0x01)\n      and\n      dup2\n      jump\n        /* \"contracts/Staking/StakingFinal.sol\":1586:1818  function AdminAddToken(uint256 _amount) public onlyOwner {... */\n    tag_20:\n      tag_28\n      tag_94\n      calldatasize\n      0x04\n      tag_47\n      jump\t// in\n    tag_94:\n      tag_95\n      jump\t// in\n        /* \"contracts/Staking/StakingFinal.sol\":11562:11795  function SetRewardPersentage(... */\n    tag_21:\n      tag_28\n      tag_97\n      calldatasize\n      0x04\n      tag_52\n      jump\t// in\n    tag_97:\n      tag_98\n      jump\t// in\n        /* \"contracts/Staking/StakingFinal.sol\":10528:11147  function viewRewards(address to) public view returns (uint256 reward) {... */\n    tag_22:\n      tag_32\n      tag_100\n      calldatasize\n      0x04\n      tag_30\n      jump\t// in\n    tag_100:\n      tag_101\n      jump\t// in\n        /* \"contracts/Staking/StakingFinal.sol\":667:708  mapping(address => Staker) public Details */\n    tag_23:\n      tag_103\n      tag_104\n      calldatasize\n      0x04\n      tag_30\n      jump\t// in\n    tag_104:\n      mstore(0x20, 0x07)\n      0x00\n      swap1\n      dup2\n      mstore\n      0x40\n      swap1\n      keccak256\n      dup1\n      sload\n      0x01\n      dup3\n      add\n      sload\n      0x02\n      dup4\n      add\n      sload\n      0x03\n      dup5\n      add\n      sload\n      0x04\n      swap1\n      swap5\n      add\n      sload\n      swap3\n      swap4\n      swap2\n      swap3\n      swap1\n      swap2\n      swap1\n      0xff\n      and\n      dup6\n      jump\n    tag_103:\n      0x40\n      dup1\n      mload\n        /* \"#utility.yul\":2434:2459   */\n      swap6\n      dup7\n      mstore\n        /* \"#utility.yul\":2490:2492   */\n      0x20\n        /* \"#utility.yul\":2475:2493   */\n      dup7\n      add\n        /* \"#utility.yul\":2468:2502   */\n      swap5\n      swap1\n      swap5\n      mstore\n        /* \"#utility.yul\":2518:2536   */\n      swap3\n      dup5\n      add\n        /* \"#utility.yul\":2511:2545   */\n      swap2\n      swap1\n      swap2\n      mstore\n        /* \"#utility.yul\":2576:2578   */\n      0x60\n        /* \"#utility.yul\":2561:2579   */\n      dup4\n      add\n        /* \"#utility.yul\":2554:2588   */\n      mstore\n        /* \"#utility.yul\":2632:2646   */\n      iszero\n        /* \"#utility.yul\":2625:2647   */\n      iszero\n        /* \"#utility.yul\":2619:2622   */\n      0x80\n        /* \"#utility.yul\":2604:2623   */\n      dup3\n      add\n        /* \"#utility.yul\":2597:2648   */\n      mstore\n        /* \"#utility.yul\":2421:2424   */\n      0xa0\n        /* \"#utility.yul\":2406:2425   */\n      add\n        /* \"contracts/Staking/StakingFinal.sol\":667:708  mapping(address => Staker) public Details */\n      tag_35\n        /* \"#utility.yul\":2181:2654   */\n      jump\n        /* \"@openzeppelin/contracts/access/Ownable.sol\":2081:2279  function transferOwnership(address newOwner) public virtual onlyOwner {... */\n    tag_24:\n      tag_28\n      tag_109\n      calldatasize\n      0x04\n      tag_30\n      jump\t// in\n    tag_109:\n      tag_110\n      jump\t// in\n        /* \"contracts/Staking/StakingFinal.sol\":9556:10255  function ClaimRewards(address to) public {... */\n    tag_31:\n      sub(shl(0xa0, 0x01), 0x01)\n        /* \"contracts/Staking/StakingFinal.sol\":9676:9687  Details[to] */\n      dup2\n      and\n      0x00\n      swap1\n      dup2\n      mstore\n        /* \"contracts/Staking/StakingFinal.sol\":9676:9683  Details */\n      0x07\n        /* \"contracts/Staking/StakingFinal.sol\":9676:9687  Details[to] */\n      0x20\n      mstore\n      0x40\n      swap1\n      keccak256\n        /* \"contracts/Staking/StakingFinal.sol\":9676:9697  Details[to].stakeTime */\n      0x01\n      dup2\n      add\n      sload\n        /* \"contracts/Staking/StakingFinal.sol\":9630:9652  Details[to].StakeMonth */\n      0x02\n      swap1\n      swap2\n      add\n      sload\n        /* \"contracts/Staking/StakingFinal.sol\":9717:9732  block.timestamp */\n      timestamp\n      swap2\n        /* \"contracts/Staking/StakingFinal.sol\":9676:9697  Details[to].stakeTime */\n      swap1\n        /* \"contracts/Staking/StakingFinal.sol\":9630:9657  Details[to].StakeMonth * 30 */\n      tag_112\n      swap1\n        /* \"contracts/Staking/StakingFinal.sol\":9655:9657  30 */\n      0x1e\n        /* \"contracts/Staking/StakingFinal.sol\":9630:9657  Details[to].StakeMonth * 30 */\n      tag_113\n      jump\t// in\n    tag_112:\n        /* \"contracts/Staking/StakingFinal.sol\":9630:9662  Details[to].StakeMonth * 30 * 24 */\n      tag_114\n      swap1\n        /* \"contracts/Staking/StakingFinal.sol\":9660:9662  24 */\n      0x18\n        /* \"contracts/Staking/StakingFinal.sol\":9630:9662  Details[to].StakeMonth * 30 * 24 */\n      tag_113\n      jump\t// in\n    tag_114:\n        /* \"contracts/Staking/StakingFinal.sol\":9630:9667  Details[to].StakeMonth * 30 * 24 * 60 */\n      tag_115\n      swap1\n        /* \"contracts/Staking/StakingFinal.sol\":9665:9667  60 */\n      0x3c\n        /* \"contracts/Staking/StakingFinal.sol\":9630:9667  Details[to].StakeMonth * 30 * 24 * 60 */\n      tag_113\n      jump\t// in\n    tag_115:\n        /* \"contracts/Staking/StakingFinal.sol\":9630:9672  Details[to].StakeMonth * 30 * 24 * 60 * 60 */\n      tag_116\n      swap1\n        /* \"contracts/Staking/StakingFinal.sol\":9670:9672  60 */\n      0x3c\n        /* \"contracts/Staking/StakingFinal.sol\":9630:9672  Details[to].StakeMonth * 30 * 24 * 60 * 60 */\n      tag_113\n      jump\t// in\n    tag_116:\n        /* \"contracts/Staking/StakingFinal.sol\":9629:9697  (Details[to].StakeMonth * 30 * 24 * 60 * 60) + Details[to].stakeTime */\n      tag_117\n      swap2\n      swap1\n      tag_118\n      jump\t// in\n    tag_117:\n        /* \"contracts/Staking/StakingFinal.sol\":9628:9732  ((Details[to].StakeMonth * 30 * 24 * 60 * 60) + Details[to].stakeTime) >... */\n      gt\n        /* \"contracts/Staking/StakingFinal.sol\":9607:9815  require(... */\n      tag_119\n      jumpi\n      mload(0x40)\n      shl(0xe5, 0x461bcd)\n      dup2\n      mstore\n        /* \"#utility.yul\":3299:3301   */\n      0x20\n        /* \"contracts/Staking/StakingFinal.sol\":9607:9815  require(... */\n      0x04\n      dup3\n      add\n        /* \"#utility.yul\":3281:3302   */\n      mstore\n        /* \"#utility.yul\":3338:3340   */\n      0x39\n        /* \"#utility.yul\":3318:3336   */\n      0x24\n      dup3\n      add\n        /* \"#utility.yul\":3311:3341   */\n      mstore\n        /* \"#utility.yul\":3377:3411   */\n      0x596f7572205374616b652054696d6520436f6d706c6574652c20506c65617365\n        /* \"#utility.yul\":3357:3375   */\n      0x44\n      dup3\n      add\n        /* \"#utility.yul\":3350:3412   */\n      mstore\n        /* \"#utility.yul\":3448:3475   */\n      0x2043616c6c2057697468647261772046756e6374696f6e202100000000000000\n        /* \"#utility.yul\":3428:3446   */\n      0x64\n      dup3\n      add\n        /* \"#utility.yul\":3421:3476   */\n      mstore\n        /* \"#utility.yul\":3493:3512   */\n      0x84\n      add\n        /* \"contracts/Staking/StakingFinal.sol\":9607:9815  require(... */\n    tag_120:\n      mload(0x40)\n      dup1\n      swap2\n      sub\n      swap1\n      revert\n    tag_119:\n      sub(shl(0xa0, 0x01), 0x01)\n        /* \"contracts/Staking/StakingFinal.sol\":9863:9874  Details[to] */\n      dup2\n      and\n        /* \"contracts/Staking/StakingFinal.sol\":9825:9841  uint256 Stakdays */\n      0x00\n        /* \"contracts/Staking/StakingFinal.sol\":9863:9874  Details[to] */\n      swap1\n      dup2\n      mstore\n        /* \"contracts/Staking/StakingFinal.sol\":9863:9870  Details */\n      0x07\n        /* \"contracts/Staking/StakingFinal.sol\":9863:9874  Details[to] */\n      0x20\n      mstore\n      0x40\n      dup2\n      keccak256\n        /* \"contracts/Staking/StakingFinal.sol\":9863:9884  Details[to].stakeTime */\n      0x01\n      add\n      sload\n        /* \"contracts/Staking/StakingFinal.sol\":9889:9901  24 * 60 * 60 */\n      0x015180\n      swap1\n        /* \"contracts/Staking/StakingFinal.sol\":9845:9884  block.timestamp - Details[to].stakeTime */\n      tag_122\n      swap1\n        /* \"contracts/Staking/StakingFinal.sol\":9845:9860  block.timestamp */\n      timestamp\n        /* \"contracts/Staking/StakingFinal.sol\":9845:9884  block.timestamp - Details[to].stakeTime */\n      tag_123\n      jump\t// in\n    tag_122:\n        /* \"contracts/Staking/StakingFinal.sol\":9844:9902  (block.timestamp - Details[to].stakeTime) / (24 * 60 * 60) */\n      tag_124\n      swap2\n      swap1\n      tag_125\n      jump\t// in\n    tag_124:\n      sub(shl(0xa0, 0x01), 0x01)\n        /* \"contracts/Staking/StakingFinal.sol\":9977:9988  Details[to] */\n      dup4\n      and\n        /* \"contracts/Staking/StakingFinal.sol\":9912:9940  uint256 InterestAmountperday */\n      0x00\n        /* \"contracts/Staking/StakingFinal.sol\":9977:9988  Details[to] */\n      swap1\n      dup2\n      mstore\n        /* \"contracts/Staking/StakingFinal.sol\":9977:9984  Details */\n      0x07\n        /* \"contracts/Staking/StakingFinal.sol\":9977:9988  Details[to] */\n      0x20\n      mstore\n      0x40\n      dup2\n      keccak256\n        /* \"contracts/Staking/StakingFinal.sol\":9977:9999  Details[to].StakeMonth */\n      0x02\n      add\n      sload\n        /* \"contracts/Staking/StakingFinal.sol\":9825:9902  uint256 Stakdays = (block.timestamp - Details[to].stakeTime) / (24 * 60 * 60) */\n      swap2\n      swap3\n      pop\n        /* \"contracts/Staking/StakingFinal.sol\":9912:9940  uint256 InterestAmountperday */\n      swap1\n        /* \"contracts/Staking/StakingFinal.sol\":9977:10004  Details[to].StakeMonth * 30 */\n      tag_126\n      swap1\n        /* \"contracts/Staking/StakingFinal.sol\":10002:10004  30 */\n      0x1e\n        /* \"contracts/Staking/StakingFinal.sol\":9977:10004  Details[to].StakeMonth * 30 */\n      tag_113\n      jump\t// in\n    tag_126:\n      sub(shl(0xa0, 0x01), 0x01)\n        /* \"contracts/Staking/StakingFinal.sol\":9943:9961  InterestAmount[to] */\n      dup5\n      and\n      0x00\n      swap1\n      dup2\n      mstore\n        /* \"contracts/Staking/StakingFinal.sol\":9943:9957  InterestAmount */\n      0x08\n        /* \"contracts/Staking/StakingFinal.sol\":9943:9961  InterestAmount[to] */\n      0x20\n      mstore\n      0x40\n      swap1\n      keccak256\n      sload\n        /* \"contracts/Staking/StakingFinal.sol\":9943:10005  InterestAmount[to] /... */\n      tag_127\n      swap2\n      swap1\n      tag_125\n      jump\t// in\n    tag_127:\n        /* \"contracts/Staking/StakingFinal.sol\":9912:10005  uint256 InterestAmountperday = InterestAmount[to] /... */\n      swap1\n      pop\n        /* \"contracts/Staking/StakingFinal.sol\":10015:10032  uint256 EarnToken */\n      0x00\n        /* \"contracts/Staking/StakingFinal.sol\":10035:10066  InterestAmountperday * Stakdays */\n      tag_128\n        /* \"contracts/Staking/StakingFinal.sol\":10058:10066  Stakdays */\n      dup4\n        /* \"contracts/Staking/StakingFinal.sol\":9912:10005  uint256 InterestAmountperday = InterestAmount[to] /... */\n      dup4\n        /* \"contracts/Staking/StakingFinal.sol\":10035:10066  InterestAmountperday * Stakdays */\n      tag_113\n      jump\t// in\n    tag_128:\n        /* \"contracts/Staking/StakingFinal.sol\":10015:10066  uint256 EarnToken = InterestAmountperday * Stakdays */\n      swap1\n      pop\n        /* \"contracts/Staking/StakingFinal.sol\":10096:10097  0 */\n      0x00\n        /* \"contracts/Staking/StakingFinal.sol\":10084:10093  EarnToken */\n      dup2\n        /* \"contracts/Staking/StakingFinal.sol\":10084:10097  EarnToken > 0 */\n      gt\n        /* \"contracts/Staking/StakingFinal.sol\":10076:10135  require(EarnToken > 0, \"Reward must be greater than zero.\") */\n      tag_129\n      jumpi\n      mload(0x40)\n      shl(0xe5, 0x461bcd)\n      dup2\n      mstore\n        /* \"#utility.yul\":4077:4079   */\n      0x20\n        /* \"contracts/Staking/StakingFinal.sol\":10076:10135  require(EarnToken > 0, \"Reward must be greater than zero.\") */\n      0x04\n      dup3\n      add\n        /* \"#utility.yul\":4059:4080   */\n      mstore\n        /* \"#utility.yul\":4116:4118   */\n      0x21\n        /* \"#utility.yul\":4096:4114   */\n      0x24\n      dup3\n      add\n        /* \"#utility.yul\":4089:4119   */\n      mstore\n        /* \"#utility.yul\":4155:4189   */\n      0x526577617264206d7573742062652067726561746572207468616e207a65726f\n        /* \"#utility.yul\":4135:4153   */\n      0x44\n      dup3\n      add\n        /* \"#utility.yul\":4128:4190   */\n      mstore\n      shl(0xf9, 0x17)\n        /* \"#utility.yul\":4206:4224   */\n      0x64\n      dup3\n      add\n        /* \"#utility.yul\":4199:4230   */\n      mstore\n        /* \"#utility.yul\":4247:4266   */\n      0x84\n      add\n        /* \"contracts/Staking/StakingFinal.sol\":10076:10135  require(EarnToken > 0, \"Reward must be greater than zero.\") */\n      tag_120\n        /* \"#utility.yul\":3875:4272   */\n      jump\n        /* \"contracts/Staking/StakingFinal.sol\":10076:10135  require(EarnToken > 0, \"Reward must be greater than zero.\") */\n    tag_129:\n      sub(shl(0xa0, 0x01), 0x01)\n        /* \"contracts/Staking/StakingFinal.sol\":10177:10193  RewardAmount[to] */\n      dup5\n      and\n      0x00\n      swap1\n      dup2\n      mstore\n        /* \"contracts/Staking/StakingFinal.sol\":10177:10189  RewardAmount */\n      0x0c\n        /* \"contracts/Staking/StakingFinal.sol\":10177:10193  RewardAmount[to] */\n      0x20\n      mstore\n      0x40\n      swap1\n      keccak256\n      sload\n        /* \"contracts/Staking/StakingFinal.sol\":10165:10193  EarnToken - RewardAmount[to] */\n      tag_132\n      swap1\n        /* \"contracts/Staking/StakingFinal.sol\":10165:10174  EarnToken */\n      dup3\n        /* \"contracts/Staking/StakingFinal.sol\":10165:10193  EarnToken - RewardAmount[to] */\n      tag_123\n      jump\t// in\n    tag_132:\n      sub(shl(0xa0, 0x01), 0x01)\n        /* \"contracts/Staking/StakingFinal.sol\":10145:10161  RewardAmount[to] */\n      dup6\n      and\n      0x00\n      swap1\n      dup2\n      mstore\n        /* \"contracts/Staking/StakingFinal.sol\":10145:10157  RewardAmount */\n      0x0c\n        /* \"contracts/Staking/StakingFinal.sol\":10145:10161  RewardAmount[to] */\n      0x20\n      mstore\n      0x40\n      dup2\n      keccak256\n        /* \"contracts/Staking/StakingFinal.sol\":10145:10193  RewardAmount[to] += EarnToken - RewardAmount[to] */\n      dup1\n      sload\n        /* \"contracts/Staking/StakingFinal.sol\":10145:10161  RewardAmount[to] */\n      swap1\n      swap2\n      swap1\n        /* \"contracts/Staking/StakingFinal.sol\":10145:10193  RewardAmount[to] += EarnToken - RewardAmount[to] */\n      tag_133\n      swap1\n      dup5\n      swap1\n      tag_118\n      jump\t// in\n    tag_133:\n      swap1\n      swap2\n      sstore\n      pop\n      pop\n        /* \"contracts/Staking/StakingFinal.sol\":10211:10223  ERC20Address */\n      sload(0x01)\n        /* \"contracts/Staking/StakingFinal.sol\":10204:10248  IERC20(ERC20Address).transfer(to, EarnToken) */\n      mload(0x40)\n      shl(0xe0, 0xa9059cbb)\n      dup2\n      mstore\n      sub(shl(0xa0, 0x01), 0x01)\n        /* \"contracts/Staking/StakingFinal.sol\":10211:10223  ERC20Address */\n      swap1\n      swap2\n      and\n      swap1\n        /* \"contracts/Staking/StakingFinal.sol\":10204:10233  IERC20(ERC20Address).transfer */\n      0xa9059cbb\n      swap1\n        /* \"contracts/Staking/StakingFinal.sol\":10204:10248  IERC20(ERC20Address).transfer(to, EarnToken) */\n      tag_134\n      swap1\n        /* \"contracts/Staking/StakingFinal.sol\":10234:10236  to */\n      dup8\n      swap1\n        /* \"contracts/Staking/StakingFinal.sol\":10238:10247  EarnToken */\n      dup6\n      swap1\n        /* \"contracts/Staking/StakingFinal.sol\":10204:10248  IERC20(ERC20Address).transfer(to, EarnToken) */\n      0x04\n      add\n      tag_135\n      jump\t// in\n    tag_134:\n      0x20\n      mload(0x40)\n      dup1\n      dup4\n      sub\n      dup2\n      0x00\n      dup8\n      gas\n      call\n      iszero\n      dup1\n      iszero\n      tag_137\n      jumpi\n      returndatasize\n      0x00\n      dup1\n      returndatacopy\n      revert(0x00, returndatasize)\n    tag_137:\n      pop\n      pop\n      pop\n      pop\n      mload(0x40)\n      returndatasize\n      not(0x1f)\n      0x1f\n      dup3\n      add\n      and\n      dup3\n      add\n      dup1\n      0x40\n      mstore\n      pop\n      dup2\n      add\n      swap1\n      tag_138\n      swap2\n      swap1\n      tag_139\n      jump\t// in\n    tag_138:\n      pop\n        /* \"contracts/Staking/StakingFinal.sol\":9597:10255  {... */\n      pop\n      pop\n      pop\n        /* \"contracts/Staking/StakingFinal.sol\":9556:10255  function ClaimRewards(address to) public {... */\n      pop\n      jump\t// out\n        /* \"contracts/Staking/StakingFinal.sol\":10260:10522  function viewBurnRewards(address to) public view returns (uint256 reward) {... */\n    tag_34:\n      sub(shl(0xa0, 0x01), 0x01)\n        /* \"contracts/Staking/StakingFinal.sol\":10347:10358  Details[to] */\n      dup2\n      and\n        /* \"contracts/Staking/StakingFinal.sol\":10318:10332  uint256 reward */\n      0x00\n        /* \"contracts/Staking/StakingFinal.sol\":10347:10358  Details[to] */\n      swap1\n      dup2\n      mstore\n        /* \"contracts/Staking/StakingFinal.sol\":10347:10354  Details */\n      0x07\n        /* \"contracts/Staking/StakingFinal.sol\":10347:10358  Details[to] */\n      0x20\n      mstore\n      0x40\n      dup2\n      keccak256\n        /* \"contracts/Staking/StakingFinal.sol\":10347:10373  Details[to].EarnPersentage */\n      0x03\n      add\n      sload\n        /* \"contracts/Staking/StakingFinal.sol\":10377:10380  100 */\n      0x64\n        /* \"contracts/Staking/StakingFinal.sol\":10347:10380  Details[to].EarnPersentage == 100 */\n      sub\n        /* \"contracts/Staking/StakingFinal.sol\":10344:10516  if(Details[to].EarnPersentage == 100){... */\n      tag_141\n      jumpi\n      pop\n        /* \"contracts/Staking/StakingFinal.sol\":10402:10403  0 */\n      0x00\n      swap2\n        /* \"contracts/Staking/StakingFinal.sol\":10260:10522  function viewBurnRewards(address to) public view returns (uint256 reward) {... */\n      swap1\n      pop\n      jump\t// out\n        /* \"contracts/Staking/StakingFinal.sol\":10344:10516  if(Details[to].EarnPersentage == 100){... */\n    tag_141:\n      sub(shl(0xa0, 0x01), 0x01)\n        /* \"contracts/Staking/StakingFinal.sol\":10473:10484  Details[to] */\n      dup3\n      and\n      0x00\n      swap1\n      dup2\n      mstore\n        /* \"contracts/Staking/StakingFinal.sol\":10473:10480  Details */\n      0x07\n        /* \"contracts/Staking/StakingFinal.sol\":10473:10484  Details[to] */\n      0x20\n      mstore\n      0x40\n      swap1\n      keccak256\n        /* \"contracts/Staking/StakingFinal.sol\":10473:10499  Details[to].EarnPersentage */\n      0x03\n      add\n      sload\n        /* \"contracts/Staking/StakingFinal.sol\":10502:10505  100 */\n      0x64\n      swap1\n        /* \"contracts/Staking/StakingFinal.sol\":10469:10499  100-Details[to].EarnPersentage */\n      tag_143\n      swap1\n        /* \"contracts/Staking/StakingFinal.sol\":10502:10505  100 */\n      dup3\n        /* \"contracts/Staking/StakingFinal.sol\":10469:10499  100-Details[to].EarnPersentage */\n      tag_123\n      jump\t// in\n    tag_143:\n      sub(shl(0xa0, 0x01), 0x01)\n        /* \"contracts/Staking/StakingFinal.sol\":10449:10467  InterestAmount[to] */\n      dup5\n      and\n      0x00\n      swap1\n      dup2\n      mstore\n        /* \"contracts/Staking/StakingFinal.sol\":10449:10463  InterestAmount */\n      0x08\n        /* \"contracts/Staking/StakingFinal.sol\":10449:10467  InterestAmount[to] */\n      0x20\n      mstore\n      0x40\n      swap1\n      keccak256\n      sload\n        /* \"contracts/Staking/StakingFinal.sol\":10449:10500  InterestAmount[to]*(100-Details[to].EarnPersentage) */\n      tag_144\n      swap2\n      swap1\n      tag_113\n      jump\t// in\n    tag_144:\n        /* \"contracts/Staking/StakingFinal.sol\":10448:10505  (InterestAmount[to]*(100-Details[to].EarnPersentage))/100 */\n      tag_145\n      swap2\n      swap1\n      tag_125\n      jump\t// in\n    tag_145:\n        /* \"contracts/Staking/StakingFinal.sol\":10441:10505  return (InterestAmount[to]*(100-Details[to].EarnPersentage))/100 */\n      swap3\n        /* \"contracts/Staking/StakingFinal.sol\":10260:10522  function viewBurnRewards(address to) public view returns (uint256 reward) {... */\n      swap2\n      pop\n      pop\n      jump\t// out\n        /* \"contracts/Staking/StakingFinal.sol\":10344:10516  if(Details[to].EarnPersentage == 100){... */\n    tag_142:\n        /* \"contracts/Staking/StakingFinal.sol\":10260:10522  function viewBurnRewards(address to) public view returns (uint256 reward) {... */\n      swap2\n      swap1\n      pop\n      jump\t// out\n        /* \"contracts/Staking/StakingFinal.sol\":2114:4628  function DepositTokens(... */\n    tag_44:\n        /* \"contracts/Staking/StakingFinal.sol\":2281:2293  ownerAddress */\n      and(sub(shl(0xa0, 0x01), 0x01), sload(0x02))\n        /* \"contracts/Staking/StakingFinal.sol\":2297:2298  0 */\n      0x00\n        /* \"contracts/Staking/StakingFinal.sol\":2274:2294  Tokens[ownerAddress] */\n      swap1\n      dup2\n      mstore\n        /* \"contracts/Staking/StakingFinal.sol\":2274:2280  Tokens */\n      0x0b\n        /* \"contracts/Staking/StakingFinal.sol\":2274:2294  Tokens[ownerAddress] */\n      0x20\n      mstore\n      0x40\n      swap1\n      keccak256\n      sload\n        /* \"contracts/Staking/StakingFinal.sol\":2266:2318  require(Tokens[ownerAddress] > 0, \"Please Wait !!!\") */\n      tag_147\n      jumpi\n      mload(0x40)\n      shl(0xe5, 0x461bcd)\n      dup2\n      mstore\n        /* \"#utility.yul\":5040:5042   */\n      0x20\n        /* \"contracts/Staking/StakingFinal.sol\":2266:2318  require(Tokens[ownerAddress] > 0, \"Please Wait !!!\") */\n      0x04\n      dup3\n      add\n        /* \"#utility.yul\":5022:5043   */\n      mstore\n        /* \"#utility.yul\":5079:5081   */\n      0x0f\n        /* \"#utility.yul\":5059:5077   */\n      0x24\n      dup3\n      add\n        /* \"#utility.yul\":5052:5082   */\n      mstore\n      shl(0x88, 0x506c65617365205761697420212121)\n        /* \"#utility.yul\":5098:5116   */\n      0x44\n      dup3\n      add\n        /* \"#utility.yul\":5091:5136   */\n      mstore\n        /* \"#utility.yul\":5153:5171   */\n      0x64\n      add\n        /* \"contracts/Staking/StakingFinal.sol\":2266:2318  require(Tokens[ownerAddress] > 0, \"Please Wait !!!\") */\n      tag_120\n        /* \"#utility.yul\":4838:5177   */\n      jump\n        /* \"contracts/Staking/StakingFinal.sol\":2266:2318  require(Tokens[ownerAddress] > 0, \"Please Wait !!!\") */\n    tag_147:\n        /* \"contracts/Staking/StakingFinal.sol\":2328:2343  uint256 _amount */\n      0x00\n        /* \"contracts/Staking/StakingFinal.sol\":2346:2367  _payment * 1000000000 */\n      tag_150\n        /* \"contracts/Staking/StakingFinal.sol\":2346:2354  _payment */\n      dup5\n        /* \"contracts/Staking/StakingFinal.sol\":2357:2367  1000000000 */\n      0x3b9aca00\n        /* \"contracts/Staking/StakingFinal.sol\":2346:2367  _payment * 1000000000 */\n      tag_113\n      jump\t// in\n    tag_150:\n      sub(shl(0xa0, 0x01), 0x01)\n        /* \"contracts/Staking/StakingFinal.sol\":2381:2392  Details[to] */\n      dup7\n      and\n      0x00\n      swap1\n      dup2\n      mstore\n        /* \"contracts/Staking/StakingFinal.sol\":2381:2388  Details */\n      0x07\n        /* \"contracts/Staking/StakingFinal.sol\":2381:2392  Details[to] */\n      0x20\n      mstore\n      0x40\n      swap1\n      keccak256\n        /* \"contracts/Staking/StakingFinal.sol\":2381:2398  Details[to].check */\n      0x04\n      add\n      sload\n        /* \"contracts/Staking/StakingFinal.sol\":2328:2367  uint256 _amount = _payment * 1000000000 */\n      swap1\n      swap2\n      pop\n        /* \"contracts/Staking/StakingFinal.sol\":2381:2398  Details[to].check */\n      0xff\n      and\n        /* \"contracts/Staking/StakingFinal.sol\":2377:4553  if (Details[to].check) {... */\n      iszero\n      tag_151\n      jumpi\n      sub(shl(0xa0, 0x01), 0x01)\n        /* \"contracts/Staking/StakingFinal.sol\":2470:2481  Details[to] */\n      dup6\n      and\n      0x00\n      swap1\n      dup2\n      mstore\n        /* \"contracts/Staking/StakingFinal.sol\":2470:2477  Details */\n      0x07\n        /* \"contracts/Staking/StakingFinal.sol\":2470:2481  Details[to] */\n      0x20\n      mstore\n      0x40\n      swap1\n      keccak256\n        /* \"contracts/Staking/StakingFinal.sol\":2470:2491  Details[to].stakeTime */\n      0x01\n      dup2\n      add\n      sload\n        /* \"contracts/Staking/StakingFinal.sol\":2424:2446  Details[to].StakeMonth */\n      0x02\n      swap1\n      swap2\n      add\n      sload\n        /* \"contracts/Staking/StakingFinal.sol\":2494:2509  block.timestamp */\n      timestamp\n      swap2\n        /* \"contracts/Staking/StakingFinal.sol\":2470:2491  Details[to].stakeTime */\n      swap1\n        /* \"contracts/Staking/StakingFinal.sol\":2424:2451  Details[to].StakeMonth * 30 */\n      tag_152\n      swap1\n        /* \"contracts/Staking/StakingFinal.sol\":2449:2451  30 */\n      0x1e\n        /* \"contracts/Staking/StakingFinal.sol\":2424:2451  Details[to].StakeMonth * 30 */\n      tag_113\n      jump\t// in\n    tag_152:\n        /* \"contracts/Staking/StakingFinal.sol\":2424:2456  Details[to].StakeMonth * 30 * 24 */\n      tag_153\n      swap1\n        /* \"contracts/Staking/StakingFinal.sol\":2454:2456  24 */\n      0x18\n        /* \"contracts/Staking/StakingFinal.sol\":2424:2456  Details[to].StakeMonth * 30 * 24 */\n      tag_113\n      jump\t// in\n    tag_153:\n        /* \"contracts/Staking/StakingFinal.sol\":2424:2461  Details[to].StakeMonth * 30 * 24 * 60 */\n      tag_154\n      swap1\n        /* \"contracts/Staking/StakingFinal.sol\":2459:2461  60 */\n      0x3c\n        /* \"contracts/Staking/StakingFinal.sol\":2424:2461  Details[to].StakeMonth * 30 * 24 * 60 */\n      tag_113\n      jump\t// in\n    tag_154:\n        /* \"contracts/Staking/StakingFinal.sol\":2424:2466  Details[to].StakeMonth * 30 * 24 * 60 * 60 */\n      tag_155\n      swap1\n        /* \"contracts/Staking/StakingFinal.sol\":2464:2466  60 */\n      0x3c\n        /* \"contracts/Staking/StakingFinal.sol\":2424:2466  Details[to].StakeMonth * 30 * 24 * 60 * 60 */\n      tag_113\n      jump\t// in\n    tag_155:\n        /* \"contracts/Staking/StakingFinal.sol\":2423:2491  (Details[to].StakeMonth * 30 * 24 * 60 * 60) + Details[to].stakeTime */\n      tag_156\n      swap2\n      swap1\n      tag_118\n      jump\t// in\n    tag_156:\n        /* \"contracts/Staking/StakingFinal.sol\":2422:2509  ((Details[to].StakeMonth * 30 * 24 * 60 * 60) + Details[to].stakeTime) >block.timestamp */\n      gt\n        /* \"contracts/Staking/StakingFinal.sol\":2414:2539  require(((Details[to].StakeMonth * 30 * 24 * 60 * 60) + Details[to].stakeTime) >block.timestamp,\"Your Time Period Complete.\") */\n      tag_157\n      jumpi\n      mload(0x40)\n      shl(0xe5, 0x461bcd)\n      dup2\n      mstore\n        /* \"#utility.yul\":5384:5386   */\n      0x20\n        /* \"contracts/Staking/StakingFinal.sol\":2414:2539  require(((Details[to].StakeMonth * 30 * 24 * 60 * 60) + Details[to].stakeTime) >block.timestamp,\"Your Time Period Complete.\") */\n      0x04\n      dup3\n      add\n        /* \"#utility.yul\":5366:5387   */\n      mstore\n        /* \"#utility.yul\":5423:5425   */\n      0x1a\n        /* \"#utility.yul\":5403:5421   */\n      0x24\n      dup3\n      add\n        /* \"#utility.yul\":5396:5426   */\n      mstore\n        /* \"#utility.yul\":5462:5490   */\n      0x596f75722054696d6520506572696f6420436f6d706c6574652e000000000000\n        /* \"#utility.yul\":5442:5460   */\n      0x44\n      dup3\n      add\n        /* \"#utility.yul\":5435:5491   */\n      mstore\n        /* \"#utility.yul\":5508:5526   */\n      0x64\n      add\n        /* \"contracts/Staking/StakingFinal.sol\":2414:2539  require(((Details[to].StakeMonth * 30 * 24 * 60 * 60) + Details[to].stakeTime) >block.timestamp,\"Your Time Period Complete.\") */\n      tag_120\n        /* \"#utility.yul\":5182:5532   */\n      jump\n        /* \"contracts/Staking/StakingFinal.sol\":2414:2539  require(((Details[to].StakeMonth * 30 * 24 * 60 * 60) + Details[to].stakeTime) >block.timestamp,\"Your Time Period Complete.\") */\n    tag_157:\n      sub(shl(0xa0, 0x01), 0x01)\n        /* \"contracts/Staking/StakingFinal.sol\":2578:2589  Details[to] */\n      dup6\n      and\n      0x00\n      swap1\n      dup2\n      mstore\n        /* \"contracts/Staking/StakingFinal.sol\":2578:2585  Details */\n      0x07\n        /* \"contracts/Staking/StakingFinal.sol\":2578:2589  Details[to] */\n      0x20\n      mstore\n      0x40\n      swap1\n      keccak256\n        /* \"contracts/Staking/StakingFinal.sol\":2578:2600  Details[to].StakeMonth */\n      0x02\n      add\n      sload\n        /* \"contracts/Staking/StakingFinal.sol\":2578:2614  Details[to].StakeMonth == StakeMonth */\n      dup4\n      eq\n        /* \"contracts/Staking/StakingFinal.sol\":2553:2670  require(... */\n      tag_160\n      jumpi\n      mload(0x40)\n      shl(0xe5, 0x461bcd)\n      dup2\n      mstore\n        /* \"#utility.yul\":5739:5741   */\n      0x20\n        /* \"contracts/Staking/StakingFinal.sol\":2553:2670  require(... */\n      0x04\n      dup3\n      add\n        /* \"#utility.yul\":5721:5742   */\n      mstore\n        /* \"#utility.yul\":5778:5780   */\n      0x16\n        /* \"#utility.yul\":5758:5776   */\n      0x24\n      dup3\n      add\n        /* \"#utility.yul\":5751:5781   */\n      mstore\n      shl(0x53, 0x08adce8cae440a4d2ced0e840a6e8c2d6ca9adedce8d)\n        /* \"#utility.yul\":5797:5815   */\n      0x44\n      dup3\n      add\n        /* \"#utility.yul\":5790:5842   */\n      mstore\n        /* \"#utility.yul\":5859:5877   */\n      0x64\n      add\n        /* \"contracts/Staking/StakingFinal.sol\":2553:2670  require(... */\n      tag_120\n        /* \"#utility.yul\":5537:5883   */\n      jump\n        /* \"contracts/Staking/StakingFinal.sol\":2553:2670  require(... */\n    tag_160:\n      sub(shl(0xa0, 0x01), 0x01)\n        /* \"contracts/Staking/StakingFinal.sol\":2709:2720  Details[to] */\n      dup6\n      and\n      0x00\n      swap1\n      dup2\n      mstore\n        /* \"contracts/Staking/StakingFinal.sol\":2709:2716  Details */\n      0x07\n        /* \"contracts/Staking/StakingFinal.sol\":2709:2720  Details[to] */\n      0x20\n      mstore\n      0x40\n      swap1\n      keccak256\n        /* \"contracts/Staking/StakingFinal.sol\":2709:2735  Details[to].EarnPersentage */\n      0x03\n      add\n      sload\n        /* \"contracts/Staking/StakingFinal.sol\":2709:2753  Details[to].EarnPersentage == EarnPersentage */\n      dup3\n      eq\n        /* \"contracts/Staking/StakingFinal.sol\":2684:2813  require(... */\n      tag_163\n      jumpi\n      mload(0x40)\n      shl(0xe5, 0x461bcd)\n      dup2\n      mstore\n        /* \"#utility.yul\":6090:6092   */\n      0x20\n        /* \"contracts/Staking/StakingFinal.sol\":2684:2813  require(... */\n      0x04\n      dup3\n      add\n        /* \"#utility.yul\":6072:6093   */\n      mstore\n        /* \"#utility.yul\":6129:6131   */\n      0x1a\n        /* \"#utility.yul\":6109:6127   */\n      0x24\n      dup3\n      add\n        /* \"#utility.yul\":6102:6132   */\n      mstore\n        /* \"#utility.yul\":6168:6196   */\n      0x456e746572205269676874204561726e50657273656e74616765000000000000\n        /* \"#utility.yul\":6148:6166   */\n      0x44\n      dup3\n      add\n        /* \"#utility.yul\":6141:6197   */\n      mstore\n        /* \"#utility.yul\":6214:6232   */\n      0x64\n      add\n        /* \"contracts/Staking/StakingFinal.sol\":2684:2813  require(... */\n      tag_120\n        /* \"#utility.yul\":5888:6238   */\n      jump\n        /* \"contracts/Staking/StakingFinal.sol\":2684:2813  require(... */\n    tag_163:\n      sub(shl(0xa0, 0x01), 0x01)\n        /* \"contracts/Staking/StakingFinal.sol\":2855:2866  Details[to] */\n      dup6\n      and\n      0x00\n      swap1\n      dup2\n      mstore\n        /* \"contracts/Staking/StakingFinal.sol\":2855:2862  Details */\n      0x07\n        /* \"contracts/Staking/StakingFinal.sol\":2855:2866  Details[to] */\n      0x20\n      mstore\n      0x40\n      swap1\n      keccak256\n        /* \"contracts/Staking/StakingFinal.sol\":2855:2880  Details[to].depositTokens */\n      sload\n        /* \"contracts/Staking/StakingFinal.sol\":2855:2890  Details[to].depositTokens + _amount */\n      tag_166\n      swap1\n        /* \"contracts/Staking/StakingFinal.sol\":2883:2890  _amount */\n      dup3\n      swap1\n        /* \"contracts/Staking/StakingFinal.sol\":2855:2890  Details[to].depositTokens + _amount */\n      tag_118\n      jump\t// in\n    tag_166:\n      sub(shl(0xa0, 0x01), 0x01)\n        /* \"contracts/Staking/StakingFinal.sol\":2827:2838  Details[to] */\n      dup7\n      and\n      0x00\n      swap1\n      dup2\n      mstore\n        /* \"contracts/Staking/StakingFinal.sol\":2827:2834  Details */\n      0x07\n        /* \"contracts/Staking/StakingFinal.sol\":2827:2838  Details[to] */\n      0x20\n      mstore\n      0x40\n      swap1\n      keccak256\n        /* \"contracts/Staking/StakingFinal.sol\":2827:2890  Details[to].depositTokens = Details[to].depositTokens + _amount */\n      swap1\n      dup2\n      sstore\n      0x00\n      dup1\n      mload\n      0x20\n      data_f5918152dffd4c0c585ca2588ca9b8191bd01a7fbff2737f8e5b9361e056218e\n      dup4\n      codecopy\n      dup2\n      mload\n      swap2\n      mstore\n        /* \"contracts/Staking/StakingFinal.sol\":2934:2940  APY[1] */\n      sload\n        /* \"contracts/Staking/StakingFinal.sol\":2908:2930  Details[to].StakeMonth */\n      0x02\n      swap1\n      swap2\n      add\n      sload\n        /* \"contracts/Staking/StakingFinal.sol\":2908:2940  Details[to].StakeMonth == APY[1] */\n      sub\n        /* \"contracts/Staking/StakingFinal.sol\":2904:3279  if (Details[to].StakeMonth == APY[1]) {... */\n      tag_167\n      jumpi\n        /* \"contracts/Staking/StakingFinal.sol\":3000:3001  1 */\n      0x01\n        /* \"contracts/Staking/StakingFinal.sol\":2993:3002  APYPer[1] */\n      0x00\n      mstore\n        /* \"contracts/Staking/StakingFinal.sol\":2993:2999  APYPer */\n      0x0a\n        /* \"contracts/Staking/StakingFinal.sol\":2993:3002  APYPer[1] */\n      0x20\n      mstore\n      sload(0xbbc70db1b6c7afd11e79c0fb0051300458f1a3acb8ee9789d9b6b26c61ad9bc7)\n        /* \"contracts/Staking/StakingFinal.sol\":3006:3010  1000 */\n      0x03e8\n      swap1\n        /* \"contracts/Staking/StakingFinal.sol\":2983:3002  _amount * APYPer[1] */\n      tag_168\n      swap1\n        /* \"contracts/Staking/StakingFinal.sol\":2983:2990  _amount */\n      dup4\n        /* \"contracts/Staking/StakingFinal.sol\":2983:3002  _amount * APYPer[1] */\n      tag_113\n      jump\t// in\n    tag_168:\n        /* \"contracts/Staking/StakingFinal.sol\":2982:3010  (_amount * APYPer[1]) / 1000 */\n      tag_169\n      swap2\n      swap1\n      tag_125\n      jump\t// in\n    tag_169:\n      sub(shl(0xa0, 0x01), 0x01)\n        /* \"contracts/Staking/StakingFinal.sol\":2960:2978  InterestAmount[to] */\n      dup7\n      and\n      0x00\n      swap1\n      dup2\n      mstore\n        /* \"contracts/Staking/StakingFinal.sol\":2960:2974  InterestAmount */\n      0x08\n        /* \"contracts/Staking/StakingFinal.sol\":2960:2978  InterestAmount[to] */\n      0x20\n      mstore\n      0x40\n      dup2\n      keccak256\n        /* \"contracts/Staking/StakingFinal.sol\":2960:3010  InterestAmount[to] += (_amount * APYPer[1]) / 1000 */\n      dup1\n      sload\n        /* \"contracts/Staking/StakingFinal.sol\":2960:2978  InterestAmount[to] */\n      swap1\n      swap2\n      swap1\n        /* \"contracts/Staking/StakingFinal.sol\":2960:3010  InterestAmount[to] += (_amount * APYPer[1]) / 1000 */\n      tag_170\n      swap1\n      dup5\n      swap1\n      tag_118\n      jump\t// in\n    tag_170:\n      swap1\n      swap2\n      sstore\n      pop\n        /* \"contracts/Staking/StakingFinal.sol\":2904:3279  if (Details[to].StakeMonth == APY[1]) {... */\n      tag_177\n      swap1\n      pop\n      jump\n    tag_167:\n      0x00\n      dup1\n      mload\n      0x20\n      data_0ada41edf8798b24cf95700ae04a399923583f100f59bcda0e41724a1960ba8b\n      dup4\n      codecopy\n      dup2\n      mload\n      swap2\n      mstore\n        /* \"contracts/Staking/StakingFinal.sol\":3061:3067  APY[2] */\n      sload\n      sub(shl(0xa0, 0x01), 0x01)\n        /* \"contracts/Staking/StakingFinal.sol\":3035:3046  Details[to] */\n      dup7\n      and\n        /* \"contracts/Staking/StakingFinal.sol\":3061:3067  APY[2] */\n      0x00\n        /* \"contracts/Staking/StakingFinal.sol\":3035:3046  Details[to] */\n      swap1\n      dup2\n      mstore\n        /* \"contracts/Staking/StakingFinal.sol\":3035:3042  Details */\n      0x07\n        /* \"contracts/Staking/StakingFinal.sol\":3061:3067  APY[2] */\n      0x20\n        /* \"contracts/Staking/StakingFinal.sol\":3035:3046  Details[to] */\n      mstore\n        /* \"contracts/Staking/StakingFinal.sol\":3061:3067  APY[2] */\n      0x40\n        /* \"contracts/Staking/StakingFinal.sol\":3035:3046  Details[to] */\n      swap1\n      keccak256\n        /* \"contracts/Staking/StakingFinal.sol\":3065:3066  2 */\n      0x02\n        /* \"contracts/Staking/StakingFinal.sol\":3035:3057  Details[to].StakeMonth */\n      add\n      sload\n        /* \"contracts/Staking/StakingFinal.sol\":3035:3067  Details[to].StakeMonth == APY[2] */\n      sub\n        /* \"contracts/Staking/StakingFinal.sol\":3031:3279  if (Details[to].StakeMonth == APY[2]) {... */\n      tag_172\n      jumpi\n        /* \"contracts/Staking/StakingFinal.sol\":3127:3128  2 */\n      0x02\n        /* \"contracts/Staking/StakingFinal.sol\":3120:3129  APYPer[2] */\n      0x00\n      mstore\n        /* \"contracts/Staking/StakingFinal.sol\":3120:3126  APYPer */\n      0x0a\n        /* \"contracts/Staking/StakingFinal.sol\":3120:3129  APYPer[2] */\n      0x20\n      mstore\n      sload(0xbff4442b8ed600beeb8e26b1279a0f0d14c6edfaec26d968ee13c86f7d4c2ba8)\n        /* \"contracts/Staking/StakingFinal.sol\":3133:3137  1000 */\n      0x03e8\n      swap1\n        /* \"contracts/Staking/StakingFinal.sol\":3110:3129  _amount * APYPer[2] */\n      tag_168\n      swap1\n        /* \"contracts/Staking/StakingFinal.sol\":3110:3117  _amount */\n      dup4\n        /* \"contracts/Staking/StakingFinal.sol\":3110:3129  _amount * APYPer[2] */\n      tag_113\n      jump\t// in\n        /* \"contracts/Staking/StakingFinal.sol\":3031:3279  if (Details[to].StakeMonth == APY[2]) {... */\n    tag_172:\n      0x00\n      dup1\n      mload\n      0x20\n      data_0c4bcf2d962d2967567161e2c07ee166d0a7fbac816b34859338e95768fe2ad4\n      dup4\n      codecopy\n      dup2\n      mload\n      swap2\n      mstore\n        /* \"contracts/Staking/StakingFinal.sol\":3188:3194  APY[3] */\n      sload\n      sub(shl(0xa0, 0x01), 0x01)\n        /* \"contracts/Staking/StakingFinal.sol\":3162:3173  Details[to] */\n      dup7\n      and\n        /* \"contracts/Staking/StakingFinal.sol\":3188:3194  APY[3] */\n      0x00\n        /* \"contracts/Staking/StakingFinal.sol\":3162:3173  Details[to] */\n      swap1\n      dup2\n      mstore\n        /* \"contracts/Staking/StakingFinal.sol\":3162:3169  Details */\n      0x07\n        /* \"contracts/Staking/StakingFinal.sol\":3188:3194  APY[3] */\n      0x20\n        /* \"contracts/Staking/StakingFinal.sol\":3162:3173  Details[to] */\n      mstore\n        /* \"contracts/Staking/StakingFinal.sol\":3188:3194  APY[3] */\n      0x40\n        /* \"contracts/Staking/StakingFinal.sol\":3162:3173  Details[to] */\n      swap1\n      keccak256\n        /* \"contracts/Staking/StakingFinal.sol\":3162:3184  Details[to].StakeMonth */\n      0x02\n      add\n      sload\n        /* \"contracts/Staking/StakingFinal.sol\":3162:3194  Details[to].StakeMonth == APY[3] */\n      sub\n        /* \"contracts/Staking/StakingFinal.sol\":3158:3279  if (Details[to].StakeMonth == APY[3]) {... */\n      tag_177\n      jumpi\n        /* \"contracts/Staking/StakingFinal.sol\":3254:3255  3 */\n      0x03\n        /* \"contracts/Staking/StakingFinal.sol\":3247:3256  APYPer[3] */\n      0x00\n      mstore\n        /* \"contracts/Staking/StakingFinal.sol\":3247:3253  APYPer */\n      0x0a\n        /* \"contracts/Staking/StakingFinal.sol\":3247:3256  APYPer[3] */\n      0x20\n      mstore\n      sload(0xa856840544dc26124927add067d799967eac11be13e14d82cc281ea46fa39759)\n        /* \"contracts/Staking/StakingFinal.sol\":3260:3264  1000 */\n      0x03e8\n      swap1\n        /* \"contracts/Staking/StakingFinal.sol\":3237:3256  _amount * APYPer[3] */\n      tag_178\n      swap1\n        /* \"contracts/Staking/StakingFinal.sol\":3237:3244  _amount */\n      dup4\n        /* \"contracts/Staking/StakingFinal.sol\":3237:3256  _amount * APYPer[3] */\n      tag_113\n      jump\t// in\n    tag_178:\n        /* \"contracts/Staking/StakingFinal.sol\":3236:3264  (_amount * APYPer[3]) / 1000 */\n      tag_179\n      swap2\n      swap1\n      tag_125\n      jump\t// in\n    tag_179:\n      sub(shl(0xa0, 0x01), 0x01)\n        /* \"contracts/Staking/StakingFinal.sol\":3214:3232  InterestAmount[to] */\n      dup7\n      and\n      0x00\n      swap1\n      dup2\n      mstore\n        /* \"contracts/Staking/StakingFinal.sol\":3214:3228  InterestAmount */\n      0x08\n        /* \"contracts/Staking/StakingFinal.sol\":3214:3232  InterestAmount[to] */\n      0x20\n      mstore\n      0x40\n      dup2\n      keccak256\n        /* \"contracts/Staking/StakingFinal.sol\":3214:3264  InterestAmount[to] += (_amount * APYPer[3]) / 1000 */\n      dup1\n      sload\n        /* \"contracts/Staking/StakingFinal.sol\":3214:3232  InterestAmount[to] */\n      swap1\n      swap2\n      swap1\n        /* \"contracts/Staking/StakingFinal.sol\":3214:3264  InterestAmount[to] += (_amount * APYPer[3]) / 1000 */\n      tag_180\n      swap1\n      dup5\n      swap1\n      tag_118\n      jump\t// in\n    tag_180:\n      swap1\n      swap2\n      sstore\n      pop\n      pop\n        /* \"contracts/Staking/StakingFinal.sol\":3158:3279  if (Details[to].StakeMonth == APY[3]) {... */\n    tag_177:\n        /* \"contracts/Staking/StakingFinal.sol\":3299:3311  ERC20Address */\n      sload(0x01)\n        /* \"contracts/Staking/StakingFinal.sol\":3292:3357  IERC20(ERC20Address).safeTransferFrom(to, address(this), _amount) */\n      tag_181\n      swap1\n      sub(shl(0xa0, 0x01), 0x01)\n        /* \"contracts/Staking/StakingFinal.sol\":3299:3311  ERC20Address */\n      and\n        /* \"contracts/Staking/StakingFinal.sol\":3330:3332  to */\n      dup7\n        /* \"contracts/Staking/StakingFinal.sol\":3342:3346  this */\n      address\n        /* \"contracts/Staking/StakingFinal.sol\":3349:3356  _amount */\n      dup5\n        /* \"contracts/Staking/StakingFinal.sol\":3292:3329  IERC20(ERC20Address).safeTransferFrom */\n      tag_182\n        /* \"contracts/Staking/StakingFinal.sol\":3292:3357  IERC20(ERC20Address).safeTransferFrom(to, address(this), _amount) */\n      jump\t// in\n    tag_181:\n        /* \"contracts/Staking/StakingFinal.sol\":2377:4553  if (Details[to].check) {... */\n      jump(tag_183)\n    tag_151:\n        /* \"contracts/Staking/StakingFinal.sol\":3431:3432  1 */\n      0x01\n        /* \"contracts/Staking/StakingFinal.sol\":3427:3433  APY[1] */\n      0x00\n      mstore\n        /* \"contracts/Staking/StakingFinal.sol\":3427:3430  APY */\n      0x09\n        /* \"contracts/Staking/StakingFinal.sol\":3427:3433  APY[1] */\n      0x20\n      mstore\n      0x00\n      dup1\n      mload\n      0x20\n      data_f5918152dffd4c0c585ca2588ca9b8191bd01a7fbff2737f8e5b9361e056218e\n      dup4\n      codecopy\n      dup2\n      mload\n      swap2\n      mstore\n      sload\n        /* \"contracts/Staking/StakingFinal.sol\":3413:3433  StakeMonth == APY[1] */\n      dup4\n      eq\n      dup1\n        /* \"contracts/Staking/StakingFinal.sol\":3413:3477  StakeMonth == APY[1] ||... */\n      tag_184\n      jumpi\n      pop\n        /* \"contracts/Staking/StakingFinal.sol\":3475:3476  2 */\n      0x02\n        /* \"contracts/Staking/StakingFinal.sol\":3471:3477  APY[2] */\n      0x00\n      mstore\n        /* \"contracts/Staking/StakingFinal.sol\":3471:3474  APY */\n      0x09\n        /* \"contracts/Staking/StakingFinal.sol\":3471:3477  APY[2] */\n      0x20\n      mstore\n      0x00\n      dup1\n      mload\n      0x20\n      data_0ada41edf8798b24cf95700ae04a399923583f100f59bcda0e41724a1960ba8b\n      dup4\n      codecopy\n      dup2\n      mload\n      swap2\n      mstore\n      sload\n        /* \"contracts/Staking/StakingFinal.sol\":3457:3477  StakeMonth == APY[2] */\n      dup4\n      eq\n        /* \"contracts/Staking/StakingFinal.sol\":3413:3477  StakeMonth == APY[1] ||... */\n    tag_184:\n        /* \"contracts/Staking/StakingFinal.sol\":3413:3521  StakeMonth == APY[1] ||... */\n      dup1\n      tag_185\n      jumpi\n      pop\n        /* \"contracts/Staking/StakingFinal.sol\":3519:3520  3 */\n      0x03\n        /* \"contracts/Staking/StakingFinal.sol\":3515:3521  APY[3] */\n      0x00\n      mstore\n        /* \"contracts/Staking/StakingFinal.sol\":3515:3518  APY */\n      0x09\n        /* \"contracts/Staking/StakingFinal.sol\":3515:3521  APY[3] */\n      0x20\n      mstore\n      0x00\n      dup1\n      mload\n      0x20\n      data_0c4bcf2d962d2967567161e2c07ee166d0a7fbac816b34859338e95768fe2ad4\n      dup4\n      codecopy\n      dup2\n      mload\n      swap2\n      mstore\n      sload\n        /* \"contracts/Staking/StakingFinal.sol\":3501:3521  StakeMonth == APY[3] */\n      dup4\n      eq\n        /* \"contracts/Staking/StakingFinal.sol\":3413:3521  StakeMonth == APY[1] ||... */\n    tag_185:\n        /* \"contracts/Staking/StakingFinal.sol\":3388:3577  require(... */\n      tag_186\n      jumpi\n      mload(0x40)\n      shl(0xe5, 0x461bcd)\n      dup2\n      mstore\n        /* \"#utility.yul\":5739:5741   */\n      0x20\n        /* \"contracts/Staking/StakingFinal.sol\":3388:3577  require(... */\n      0x04\n      dup3\n      add\n        /* \"#utility.yul\":5721:5742   */\n      mstore\n        /* \"#utility.yul\":5778:5780   */\n      0x16\n        /* \"#utility.yul\":5758:5776   */\n      0x24\n      dup3\n      add\n        /* \"#utility.yul\":5751:5781   */\n      mstore\n      shl(0x53, 0x08adce8cae440a4d2ced0e840a6e8c2d6ca9adedce8d)\n        /* \"#utility.yul\":5797:5815   */\n      0x44\n      dup3\n      add\n        /* \"#utility.yul\":5790:5842   */\n      mstore\n        /* \"#utility.yul\":5859:5877   */\n      0x64\n      add\n        /* \"contracts/Staking/StakingFinal.sol\":3388:3577  require(... */\n      tag_120\n        /* \"#utility.yul\":5537:5883   */\n      jump\n        /* \"contracts/Staking/StakingFinal.sol\":3388:3577  require(... */\n    tag_186:\n        /* \"contracts/Staking/StakingFinal.sol\":3616:3630  EarnPersentage */\n      dup2\n        /* \"contracts/Staking/StakingFinal.sol\":3634:3637  100 */\n      0x64\n        /* \"contracts/Staking/StakingFinal.sol\":3616:3637  EarnPersentage == 100 */\n      eq\n        /* \"contracts/Staking/StakingFinal.sol\":3616:3681  EarnPersentage == 100 ||... */\n      dup1\n      tag_188\n      jumpi\n      pop\n        /* \"contracts/Staking/StakingFinal.sol\":3661:3675  EarnPersentage */\n      dup2\n        /* \"contracts/Staking/StakingFinal.sol\":3679:3681  75 */\n      0x4b\n        /* \"contracts/Staking/StakingFinal.sol\":3661:3681  EarnPersentage == 75 */\n      eq\n        /* \"contracts/Staking/StakingFinal.sol\":3616:3681  EarnPersentage == 100 ||... */\n    tag_188:\n        /* \"contracts/Staking/StakingFinal.sol\":3616:3725  EarnPersentage == 100 ||... */\n      dup1\n      tag_189\n      jumpi\n      pop\n        /* \"contracts/Staking/StakingFinal.sol\":3705:3719  EarnPersentage */\n      dup2\n        /* \"contracts/Staking/StakingFinal.sol\":3723:3725  50 */\n      0x32\n        /* \"contracts/Staking/StakingFinal.sol\":3705:3725  EarnPersentage == 50 */\n      eq\n        /* \"contracts/Staking/StakingFinal.sol\":3616:3725  EarnPersentage == 100 ||... */\n    tag_189:\n        /* \"contracts/Staking/StakingFinal.sol\":3591:3785  require(... */\n      tag_190\n      jumpi\n      mload(0x40)\n      shl(0xe5, 0x461bcd)\n      dup2\n      mstore\n        /* \"#utility.yul\":6090:6092   */\n      0x20\n        /* \"contracts/Staking/StakingFinal.sol\":3591:3785  require(... */\n      0x04\n      dup3\n      add\n        /* \"#utility.yul\":6072:6093   */\n      mstore\n        /* \"#utility.yul\":6129:6131   */\n      0x1a\n        /* \"#utility.yul\":6109:6127   */\n      0x24\n      dup3\n      add\n        /* \"#utility.yul\":6102:6132   */\n      mstore\n        /* \"#utility.yul\":6168:6196   */\n      0x456e746572205269676874204561726e50657273656e74616765000000000000\n        /* \"#utility.yul\":6148:6166   */\n      0x44\n      dup3\n      add\n        /* \"#utility.yul\":6141:6197   */\n      mstore\n        /* \"#utility.yul\":6214:6232   */\n      0x64\n      add\n        /* \"contracts/Staking/StakingFinal.sol\":3591:3785  require(... */\n      tag_120\n        /* \"#utility.yul\":5888:6238   */\n      jump\n        /* \"contracts/Staking/StakingFinal.sol\":3591:3785  require(... */\n    tag_190:\n        /* \"contracts/Staking/StakingFinal.sol\":3799:3815  uint256 AdminFee */\n      0x00\n        /* \"contracts/Staking/StakingFinal.sol\":3836:3840  1000 */\n      0x03e8\n        /* \"contracts/Staking/StakingFinal.sol\":3829:3832  Tax */\n      sload(0x05)\n        /* \"contracts/Staking/StakingFinal.sol\":3819:3826  _amount */\n      dup4\n        /* \"contracts/Staking/StakingFinal.sol\":3819:3832  _amount * Tax */\n      tag_192\n      swap2\n      swap1\n      tag_113\n      jump\t// in\n    tag_192:\n        /* \"contracts/Staking/StakingFinal.sol\":3818:3840  (_amount * Tax) / 1000 */\n      tag_193\n      swap2\n      swap1\n      tag_125\n      jump\t// in\n    tag_193:\n        /* \"contracts/Staking/StakingFinal.sol\":3799:3840  uint256 AdminFee = (_amount * Tax) / 1000 */\n      swap1\n      pop\n        /* \"contracts/Staking/StakingFinal.sol\":3868:4039  Staker(... */\n      mload(0x40)\n      dup1\n      0xa0\n      add\n      0x40\n      mstore\n      dup1\n        /* \"contracts/Staking/StakingFinal.sol\":3902:3910  AdminFee */\n      dup3\n        /* \"contracts/Staking/StakingFinal.sol\":3892:3899  _amount */\n      dup5\n        /* \"contracts/Staking/StakingFinal.sol\":3892:3910  _amount - AdminFee */\n      tag_194\n      swap2\n      swap1\n      tag_123\n      jump\t// in\n    tag_194:\n        /* \"contracts/Staking/StakingFinal.sol\":3868:4039  Staker(... */\n      dup2\n      mstore\n        /* \"contracts/Staking/StakingFinal.sol\":3928:3943  block.timestamp */\n      timestamp\n        /* \"contracts/Staking/StakingFinal.sol\":3868:4039  Staker(... */\n      0x20\n      dup1\n      dup4\n      add\n      swap2\n      swap1\n      swap2\n      mstore\n      0x40\n      dup1\n      dup4\n      add\n      dup9\n      swap1\n      mstore\n      0x60\n      dup1\n      dup5\n      add\n      dup9\n      swap1\n      mstore\n        /* \"contracts/Staking/StakingFinal.sol\":4021:4025  true */\n      0x01\n        /* \"contracts/Staking/StakingFinal.sol\":3868:4039  Staker(... */\n      0x80\n      swap5\n      dup6\n      add\n      dup2\n      swap1\n      mstore\n      sub(shl(0xa0, 0x01), 0x01)\n        /* \"contracts/Staking/StakingFinal.sol\":3854:3865  Details[to] */\n      dup13\n      and\n      0x00\n      swap1\n      dup2\n      mstore\n        /* \"contracts/Staking/StakingFinal.sol\":3854:3861  Details */\n      0x07\n        /* \"contracts/Staking/StakingFinal.sol\":3854:3865  Details[to] */\n      dup6\n      mstore\n      dup4\n      swap1\n      keccak256\n        /* \"contracts/Staking/StakingFinal.sol\":3854:4039  Details[to] = Staker(... */\n      dup7\n      mload\n      dup2\n      sstore\n      swap4\n      dup7\n      add\n      mload\n      swap1\n      dup5\n      add\n      sstore\n      swap1\n      dup5\n      add\n      mload\n      0x02\n      dup4\n      add\n      dup2\n      swap1\n      sstore\n      swap1\n      dup5\n      add\n      mload\n      0x03\n      dup4\n      add\n      sstore\n      swap3\n      swap1\n      swap2\n      add\n      mload\n      0x04\n      swap1\n      swap2\n      add\n      dup1\n      sload\n      not(0xff)\n      and\n      swap2\n      iszero\n      iszero\n      swap2\n      swap1\n      swap2\n      or\n      swap1\n      sstore\n      0x00\n      dup1\n      mload\n      0x20\n      data_f5918152dffd4c0c585ca2588ca9b8191bd01a7fbff2737f8e5b9361e056218e\n      dup4\n      codecopy\n      dup2\n      mload\n      swap2\n      mstore\n        /* \"contracts/Staking/StakingFinal.sol\":4083:4089  APY[1] */\n      sload\n        /* \"contracts/Staking/StakingFinal.sol\":4057:4089  Details[to].StakeMonth == APY[1] */\n      swap1\n      sub\n        /* \"contracts/Staking/StakingFinal.sol\":4053:4464  if (Details[to].StakeMonth == APY[1]) {... */\n      tag_195\n      jumpi\n        /* \"contracts/Staking/StakingFinal.sol\":4161:4162  1 */\n      0x01\n        /* \"contracts/Staking/StakingFinal.sol\":4154:4163  APYPer[1] */\n      0x00\n      mstore\n        /* \"contracts/Staking/StakingFinal.sol\":4154:4160  APYPer */\n      0x0a\n        /* \"contracts/Staking/StakingFinal.sol\":4154:4163  APYPer[1] */\n      0x20\n      mstore\n      sload(0xbbc70db1b6c7afd11e79c0fb0051300458f1a3acb8ee9789d9b6b26c61ad9bc7)\n        /* \"contracts/Staking/StakingFinal.sol\":4167:4171  1000 */\n      0x03e8\n      swap1\n        /* \"contracts/Staking/StakingFinal.sol\":4132:4150  _amount - AdminFee */\n      tag_196\n        /* \"contracts/Staking/StakingFinal.sol\":4142:4150  AdminFee */\n      dup4\n        /* \"contracts/Staking/StakingFinal.sol\":4132:4139  _amount */\n      dup6\n        /* \"contracts/Staking/StakingFinal.sol\":4132:4150  _amount - AdminFee */\n      tag_123\n      jump\t// in\n    tag_196:\n        /* \"contracts/Staking/StakingFinal.sol\":4131:4163  (_amount - AdminFee) * APYPer[1] */\n      tag_197\n      swap2\n      swap1\n      tag_113\n      jump\t// in\n    tag_197:\n        /* \"contracts/Staking/StakingFinal.sol\":4130:4171  ((_amount - AdminFee) * APYPer[1]) / 1000 */\n      tag_198\n      swap2\n      swap1\n      tag_125\n      jump\t// in\n    tag_198:\n      sub(shl(0xa0, 0x01), 0x01)\n        /* \"contracts/Staking/StakingFinal.sol\":4109:4127  InterestAmount[to] */\n      dup8\n      and\n      0x00\n      swap1\n      dup2\n      mstore\n        /* \"contracts/Staking/StakingFinal.sol\":4109:4123  InterestAmount */\n      0x08\n        /* \"contracts/Staking/StakingFinal.sol\":4109:4127  InterestAmount[to] */\n      0x20\n      mstore\n      0x40\n      swap1\n      keccak256\n        /* \"contracts/Staking/StakingFinal.sol\":4109:4171  InterestAmount[to] = ((_amount - AdminFee) * APYPer[1]) / 1000 */\n      sstore\n        /* \"contracts/Staking/StakingFinal.sol\":4053:4464  if (Details[to].StakeMonth == APY[1]) {... */\n      jump(tag_205)\n    tag_195:\n      0x00\n      dup1\n      mload\n      0x20\n      data_0ada41edf8798b24cf95700ae04a399923583f100f59bcda0e41724a1960ba8b\n      dup4\n      codecopy\n      dup2\n      mload\n      swap2\n      mstore\n        /* \"contracts/Staking/StakingFinal.sol\":4222:4228  APY[2] */\n      sload\n      sub(shl(0xa0, 0x01), 0x01)\n        /* \"contracts/Staking/StakingFinal.sol\":4196:4207  Details[to] */\n      dup8\n      and\n        /* \"contracts/Staking/StakingFinal.sol\":4222:4228  APY[2] */\n      0x00\n        /* \"contracts/Staking/StakingFinal.sol\":4196:4207  Details[to] */\n      swap1\n      dup2\n      mstore\n        /* \"contracts/Staking/StakingFinal.sol\":4196:4203  Details */\n      0x07\n        /* \"contracts/Staking/StakingFinal.sol\":4222:4228  APY[2] */\n      0x20\n        /* \"contracts/Staking/StakingFinal.sol\":4196:4207  Details[to] */\n      mstore\n        /* \"contracts/Staking/StakingFinal.sol\":4222:4228  APY[2] */\n      0x40\n        /* \"contracts/Staking/StakingFinal.sol\":4196:4207  Details[to] */\n      swap1\n      keccak256\n        /* \"contracts/Staking/StakingFinal.sol\":4226:4227  2 */\n      0x02\n        /* \"contracts/Staking/StakingFinal.sol\":4196:4218  Details[to].StakeMonth */\n      add\n      sload\n        /* \"contracts/Staking/StakingFinal.sol\":4196:4228  Details[to].StakeMonth == APY[2] */\n      sub\n        /* \"contracts/Staking/StakingFinal.sol\":4192:4464  if (Details[to].StakeMonth == APY[2]) {... */\n      tag_200\n      jumpi\n        /* \"contracts/Staking/StakingFinal.sol\":4300:4301  2 */\n      0x02\n        /* \"contracts/Staking/StakingFinal.sol\":4293:4302  APYPer[2] */\n      0x00\n      mstore\n        /* \"contracts/Staking/StakingFinal.sol\":4293:4299  APYPer */\n      0x0a\n        /* \"contracts/Staking/StakingFinal.sol\":4293:4302  APYPer[2] */\n      0x20\n      mstore\n      sload(0xbff4442b8ed600beeb8e26b1279a0f0d14c6edfaec26d968ee13c86f7d4c2ba8)\n        /* \"contracts/Staking/StakingFinal.sol\":4306:4310  1000 */\n      0x03e8\n      swap1\n        /* \"contracts/Staking/StakingFinal.sol\":4271:4289  _amount - AdminFee */\n      tag_196\n        /* \"contracts/Staking/StakingFinal.sol\":4281:4289  AdminFee */\n      dup4\n        /* \"contracts/Staking/StakingFinal.sol\":4271:4278  _amount */\n      dup6\n        /* \"contracts/Staking/StakingFinal.sol\":4271:4289  _amount - AdminFee */\n      tag_123\n      jump\t// in\n        /* \"contracts/Staking/StakingFinal.sol\":4192:4464  if (Details[to].StakeMonth == APY[2]) {... */\n    tag_200:\n      0x00\n      dup1\n      mload\n      0x20\n      data_0c4bcf2d962d2967567161e2c07ee166d0a7fbac816b34859338e95768fe2ad4\n      dup4\n      codecopy\n      dup2\n      mload\n      swap2\n      mstore\n        /* \"contracts/Staking/StakingFinal.sol\":4361:4367  APY[3] */\n      sload\n      sub(shl(0xa0, 0x01), 0x01)\n        /* \"contracts/Staking/StakingFinal.sol\":4335:4346  Details[to] */\n      dup8\n      and\n        /* \"contracts/Staking/StakingFinal.sol\":4361:4367  APY[3] */\n      0x00\n        /* \"contracts/Staking/StakingFinal.sol\":4335:4346  Details[to] */\n      swap1\n      dup2\n      mstore\n        /* \"contracts/Staking/StakingFinal.sol\":4335:4342  Details */\n      0x07\n        /* \"contracts/Staking/StakingFinal.sol\":4361:4367  APY[3] */\n      0x20\n        /* \"contracts/Staking/StakingFinal.sol\":4335:4346  Details[to] */\n      mstore\n        /* \"contracts/Staking/StakingFinal.sol\":4361:4367  APY[3] */\n      0x40\n        /* \"contracts/Staking/StakingFinal.sol\":4335:4346  Details[to] */\n      swap1\n      keccak256\n        /* \"contracts/Staking/StakingFinal.sol\":4335:4357  Details[to].StakeMonth */\n      0x02\n      add\n      sload\n        /* \"contracts/Staking/StakingFinal.sol\":4335:4367  Details[to].StakeMonth == APY[3] */\n      sub\n        /* \"contracts/Staking/StakingFinal.sol\":4331:4464  if (Details[to].StakeMonth == APY[3]) {... */\n      tag_205\n      jumpi\n        /* \"contracts/Staking/StakingFinal.sol\":4439:4440  3 */\n      0x03\n        /* \"contracts/Staking/StakingFinal.sol\":4432:4441  APYPer[3] */\n      0x00\n      mstore\n        /* \"contracts/Staking/StakingFinal.sol\":4432:4438  APYPer */\n      0x0a\n        /* \"contracts/Staking/StakingFinal.sol\":4432:4441  APYPer[3] */\n      0x20\n      mstore\n      sload(0xa856840544dc26124927add067d799967eac11be13e14d82cc281ea46fa39759)\n        /* \"contracts/Staking/StakingFinal.sol\":4445:4449  1000 */\n      0x03e8\n      swap1\n        /* \"contracts/Staking/StakingFinal.sol\":4410:4428  _amount - AdminFee */\n      tag_206\n        /* \"contracts/Staking/StakingFinal.sol\":4420:4428  AdminFee */\n      dup4\n        /* \"contracts/Staking/StakingFinal.sol\":4410:4417  _amount */\n      dup6\n        /* \"contracts/Staking/StakingFinal.sol\":4410:4428  _amount - AdminFee */\n      tag_123\n      jump\t// in\n    tag_206:\n        /* \"contracts/Staking/StakingFinal.sol\":4409:4441  (_amount - AdminFee) * APYPer[3] */\n      tag_207\n      swap2\n      swap1\n      tag_113\n      jump\t// in\n    tag_207:\n        /* \"contracts/Staking/StakingFinal.sol\":4408:4449  ((_amount - AdminFee) * APYPer[3]) / 1000 */\n      tag_208\n      swap2\n      swap1\n      tag_125\n      jump\t// in\n    tag_208:\n      sub(shl(0xa0, 0x01), 0x01)\n        /* \"contracts/Staking/StakingFinal.sol\":4387:4405  InterestAmount[to] */\n      dup8\n      and\n      0x00\n      swap1\n      dup2\n      mstore\n        /* \"contracts/Staking/StakingFinal.sol\":4387:4401  InterestAmount */\n      0x08\n        /* \"contracts/Staking/StakingFinal.sol\":4387:4405  InterestAmount[to] */\n      0x20\n      mstore\n      0x40\n      swap1\n      keccak256\n        /* \"contracts/Staking/StakingFinal.sol\":4387:4449  InterestAmount[to] = ((_amount - AdminFee) * APYPer[3]) / 1000 */\n      sstore\n        /* \"contracts/Staking/StakingFinal.sol\":4331:4464  if (Details[to].StakeMonth == APY[3]) {... */\n    tag_205:\n        /* \"contracts/Staking/StakingFinal.sol\":4484:4496  ERC20Address */\n      sload(0x01)\n        /* \"contracts/Staking/StakingFinal.sol\":4477:4542  IERC20(ERC20Address).safeTransferFrom(to, address(this), _amount) */\n      tag_209\n      swap1\n      sub(shl(0xa0, 0x01), 0x01)\n        /* \"contracts/Staking/StakingFinal.sol\":4484:4496  ERC20Address */\n      and\n        /* \"contracts/Staking/StakingFinal.sol\":4515:4517  to */\n      dup8\n        /* \"contracts/Staking/StakingFinal.sol\":4527:4531  this */\n      address\n        /* \"contracts/Staking/StakingFinal.sol\":4534:4541  _amount */\n      dup6\n        /* \"contracts/Staking/StakingFinal.sol\":4477:4514  IERC20(ERC20Address).safeTransferFrom */\n      tag_182\n        /* \"contracts/Staking/StakingFinal.sol\":4477:4542  IERC20(ERC20Address).safeTransferFrom(to, address(this), _amount) */\n      jump\t// in\n    tag_209:\n        /* \"contracts/Staking/StakingFinal.sol\":3374:4553  {... */\n      pop\n        /* \"contracts/Staking/StakingFinal.sol\":2377:4553  if (Details[to].check) {... */\n    tag_183:\n      sub(shl(0xa0, 0x01), 0x01)\n        /* \"contracts/Staking/StakingFinal.sol\":4562:4572  Tokens[to] */\n      dup6\n      and\n      0x00\n      swap1\n      dup2\n      mstore\n        /* \"contracts/Staking/StakingFinal.sol\":4562:4568  Tokens */\n      0x0b\n        /* \"contracts/Staking/StakingFinal.sol\":4562:4572  Tokens[to] */\n      0x20\n      mstore\n      0x40\n      dup2\n      keccak256\n        /* \"contracts/Staking/StakingFinal.sol\":4562:4583  Tokens[to] += _amount */\n      dup1\n      sload\n        /* \"contracts/Staking/StakingFinal.sol\":4576:4583  _amount */\n      dup4\n      swap3\n        /* \"contracts/Staking/StakingFinal.sol\":4562:4572  Tokens[to] */\n      swap1\n        /* \"contracts/Staking/StakingFinal.sol\":4562:4583  Tokens[to] += _amount */\n      tag_210\n      swap1\n        /* \"contracts/Staking/StakingFinal.sol\":4576:4583  _amount */\n      dup5\n      swap1\n        /* \"contracts/Staking/StakingFinal.sol\":4562:4583  Tokens[to] += _amount */\n      tag_118\n      jump\t// in\n    tag_210:\n      swap3\n      pop\n      pop\n      dup2\n      swap1\n      sstore\n      pop\n        /* \"contracts/Staking/StakingFinal.sol\":4614:4621  _amount */\n      dup1\n        /* \"contracts/Staking/StakingFinal.sol\":4593:4610  totalStakedTokens */\n      0x03\n      0x00\n        /* \"contracts/Staking/StakingFinal.sol\":4593:4621  totalStakedTokens += _amount */\n      dup3\n      dup3\n      sload\n      tag_211\n      swap2\n      swap1\n      tag_118\n      jump\t// in\n    tag_211:\n      swap1\n      swap2\n      sstore\n      pop\n      pop\n      pop\n      pop\n      pop\n      pop\n      pop\n        /* \"contracts/Staking/StakingFinal.sol\":2114:4628  function DepositTokens(... */\n      jump\t// out\n        /* \"contracts/Staking/StakingFinal.sol\":11258:11451  function SetAPY(... */\n    tag_53:\n        /* \"@openzeppelin/contracts/access/Ownable.sol\":1094:1107  _checkOwner() */\n      tag_213\n        /* \"@openzeppelin/contracts/access/Ownable.sol\":1094:1105  _checkOwner */\n      tag_214\n        /* \"@openzeppelin/contracts/access/Ownable.sol\":1094:1107  _checkOwner() */\n      jump\t// in\n    tag_213:\n        /* \"contracts/Staking/StakingFinal.sol\":11379:11382  APY */\n      0x09\n        /* \"contracts/Staking/StakingFinal.sol\":11379:11385  APY[1] */\n      0x20\n      mstore\n      0x00\n      dup1\n      mload\n      0x20\n      data_f5918152dffd4c0c585ca2588ca9b8191bd01a7fbff2737f8e5b9361e056218e\n      dup4\n      codecopy\n      dup2\n      mload\n      swap2\n      mstore\n        /* \"contracts/Staking/StakingFinal.sol\":11379:11394  APY[1] = Month1 */\n      swap3\n      swap1\n      swap3\n      sstore\n      0x00\n      dup1\n      mload\n      0x20\n      data_0ada41edf8798b24cf95700ae04a399923583f100f59bcda0e41724a1960ba8b\n      dup4\n      codecopy\n      dup2\n      mload\n      swap2\n      mstore\n        /* \"contracts/Staking/StakingFinal.sol\":11404:11419  APY[2] = Month2 */\n      sstore\n        /* \"contracts/Staking/StakingFinal.sol\":11433:11434  3 */\n      0x03\n        /* \"contracts/Staking/StakingFinal.sol\":11379:11385  APY[1] */\n      0x00\n        /* \"contracts/Staking/StakingFinal.sol\":11429:11435  APY[3] */\n      mstore\n      0x00\n      dup1\n      mload\n      0x20\n      data_0c4bcf2d962d2967567161e2c07ee166d0a7fbac816b34859338e95768fe2ad4\n      dup4\n      codecopy\n      dup2\n      mload\n      swap2\n      mstore\n        /* \"contracts/Staking/StakingFinal.sol\":11429:11444  APY[3] = Month3 */\n      sstore\n        /* \"contracts/Staking/StakingFinal.sol\":11258:11451  function SetAPY(... */\n      jump\t// out\n        /* \"@openzeppelin/contracts/access/Ownable.sol\":1831:1932  function renounceOwnership() public virtual onlyOwner {... */\n    tag_74:\n        /* \"@openzeppelin/contracts/access/Ownable.sol\":1094:1107  _checkOwner() */\n      tag_219\n        /* \"@openzeppelin/contracts/access/Ownable.sol\":1094:1105  _checkOwner */\n      tag_214\n        /* \"@openzeppelin/contracts/access/Ownable.sol\":1094:1107  _checkOwner() */\n      jump\t// in\n    tag_219:\n        /* \"@openzeppelin/contracts/access/Ownable.sol\":1895:1925  _transferOwnership(address(0)) */\n      tag_221\n        /* \"@openzeppelin/contracts/access/Ownable.sol\":1922:1923  0 */\n      0x00\n        /* \"@openzeppelin/contracts/access/Ownable.sol\":1895:1913  _transferOwnership */\n      tag_222\n        /* \"@openzeppelin/contracts/access/Ownable.sol\":1895:1925  _transferOwnership(address(0)) */\n      jump\t// in\n    tag_221:\n        /* \"@openzeppelin/contracts/access/Ownable.sol\":1831:1932  function renounceOwnership() public virtual onlyOwner {... */\n      jump\t// out\n        /* \"contracts/Staking/StakingFinal.sol\":4824:9361  function WithdrawTokens(address to) public {... */\n    tag_89:\n      sub(shl(0xa0, 0x01), 0x01)\n        /* \"contracts/Staking/StakingFinal.sol\":4885:4896  Details[to] */\n      dup2\n      and\n      0x00\n      swap1\n      dup2\n      mstore\n        /* \"contracts/Staking/StakingFinal.sol\":4885:4892  Details */\n      0x07\n        /* \"contracts/Staking/StakingFinal.sol\":4885:4896  Details[to] */\n      0x20\n      mstore\n      0x40\n      swap1\n      keccak256\n        /* \"contracts/Staking/StakingFinal.sol\":4885:4902  Details[to].check */\n      0x04\n      add\n      sload\n      0xff\n      and\n        /* \"contracts/Staking/StakingFinal.sol\":4877:4925  require(Details[to].check, \"First Stake Tokens\") */\n      tag_225\n      jumpi\n      mload(0x40)\n      shl(0xe5, 0x461bcd)\n      dup2\n      mstore\n        /* \"#utility.yul\":6445:6447   */\n      0x20\n        /* \"contracts/Staking/StakingFinal.sol\":4877:4925  require(Details[to].check, \"First Stake Tokens\") */\n      0x04\n      dup3\n      add\n        /* \"#utility.yul\":6427:6448   */\n      mstore\n        /* \"#utility.yul\":6484:6486   */\n      0x12\n        /* \"#utility.yul\":6464:6482   */\n      0x24\n      dup3\n      add\n        /* \"#utility.yul\":6457:6487   */\n      mstore\n      shl(0x70, 0x4669727374205374616b6520546f6b656e73)\n        /* \"#utility.yul\":6503:6521   */\n      0x44\n      dup3\n      add\n        /* \"#utility.yul\":6496:6544   */\n      mstore\n        /* \"#utility.yul\":6561:6579   */\n      0x64\n      add\n        /* \"contracts/Staking/StakingFinal.sol\":4877:4925  require(Details[to].check, \"First Stake Tokens\") */\n      tag_120\n        /* \"#utility.yul\":6243:6585   */\n      jump\n        /* \"contracts/Staking/StakingFinal.sol\":4877:4925  require(Details[to].check, \"First Stake Tokens\") */\n    tag_225:\n      sub(shl(0xa0, 0x01), 0x01)\n        /* \"contracts/Staking/StakingFinal.sol\":5054:5065  Details[to] */\n      dup2\n      and\n        /* \"contracts/Staking/StakingFinal.sol\":4935:4952  uint256 EarnToken */\n      0x00\n        /* \"contracts/Staking/StakingFinal.sol\":5054:5065  Details[to] */\n      swap1\n      dup2\n      mstore\n        /* \"contracts/Staking/StakingFinal.sol\":5054:5061  Details */\n      0x07\n        /* \"contracts/Staking/StakingFinal.sol\":5054:5065  Details[to] */\n      0x20\n      mstore\n      0x40\n      dup2\n      keccak256\n        /* \"contracts/Staking/StakingFinal.sol\":5054:5075  Details[to].stakeTime */\n      0x01\n      dup2\n      add\n      sload\n        /* \"contracts/Staking/StakingFinal.sol\":5008:5030  Details[to].StakeMonth */\n      0x02\n      swap1\n      swap2\n      add\n      sload\n        /* \"contracts/Staking/StakingFinal.sol\":4935:4952  uint256 EarnToken */\n      dup3\n      swap2\n        /* \"contracts/Staking/StakingFinal.sol\":5079:5094  block.timestamp */\n      timestamp\n      swap2\n        /* \"contracts/Staking/StakingFinal.sol\":5008:5035  Details[to].StakeMonth * 30 */\n      tag_228\n      swap1\n        /* \"contracts/Staking/StakingFinal.sol\":5033:5035  30 */\n      0x1e\n        /* \"contracts/Staking/StakingFinal.sol\":5008:5035  Details[to].StakeMonth * 30 */\n      tag_113\n      jump\t// in\n    tag_228:\n        /* \"contracts/Staking/StakingFinal.sol\":5008:5040  Details[to].StakeMonth * 30 * 24 */\n      tag_229\n      swap1\n        /* \"contracts/Staking/StakingFinal.sol\":5038:5040  24 */\n      0x18\n        /* \"contracts/Staking/StakingFinal.sol\":5008:5040  Details[to].StakeMonth * 30 * 24 */\n      tag_113\n      jump\t// in\n    tag_229:\n        /* \"contracts/Staking/StakingFinal.sol\":5008:5045  Details[to].StakeMonth * 30 * 24 * 60 */\n      tag_230\n      swap1\n        /* \"contracts/Staking/StakingFinal.sol\":5043:5045  60 */\n      0x3c\n        /* \"contracts/Staking/StakingFinal.sol\":5008:5045  Details[to].StakeMonth * 30 * 24 * 60 */\n      tag_113\n      jump\t// in\n    tag_230:\n        /* \"contracts/Staking/StakingFinal.sol\":5008:5050  Details[to].StakeMonth * 30 * 24 * 60 * 60 */\n      tag_231\n      swap1\n        /* \"contracts/Staking/StakingFinal.sol\":5048:5050  60 */\n      0x3c\n        /* \"contracts/Staking/StakingFinal.sol\":5008:5050  Details[to].StakeMonth * 30 * 24 * 60 * 60 */\n      tag_113\n      jump\t// in\n    tag_231:\n        /* \"contracts/Staking/StakingFinal.sol\":5007:5075  (Details[to].StakeMonth * 30 * 24 * 60 * 60) + Details[to].stakeTime */\n      tag_232\n      swap2\n      swap1\n      tag_118\n      jump\t// in\n    tag_232:\n        /* \"contracts/Staking/StakingFinal.sol\":5006:5094  ((Details[to].StakeMonth * 30 * 24 * 60 * 60) + Details[to].stakeTime) < block.timestamp */\n      lt\n        /* \"contracts/Staking/StakingFinal.sol\":4989:9147  if (... */\n      iszero\n      tag_233\n      jumpi\n      sub(shl(0xa0, 0x01), 0x01)\n        /* \"contracts/Staking/StakingFinal.sol\":5114:5125  Details[to] */\n      dup4\n      and\n      0x00\n      swap1\n      dup2\n      mstore\n        /* \"contracts/Staking/StakingFinal.sol\":5114:5121  Details */\n      0x07\n        /* \"contracts/Staking/StakingFinal.sol\":5114:5125  Details[to] */\n      0x20\n      mstore\n      0x40\n      swap1\n      keccak256\n        /* \"contracts/Staking/StakingFinal.sol\":5114:5140  Details[to].EarnPersentage */\n      0x03\n      add\n      sload\n        /* \"contracts/Staking/StakingFinal.sol\":5144:5147  100 */\n      0x64\n        /* \"contracts/Staking/StakingFinal.sol\":5114:5147  Details[to].EarnPersentage == 100 */\n      sub\n        /* \"contracts/Staking/StakingFinal.sol\":5110:6676  if (Details[to].EarnPersentage == 100) {... */\n      tag_234\n      jumpi\n        /* \"contracts/Staking/StakingFinal.sol\":5174:5186  ERC20Address */\n      sload(0x01)\n      sub(shl(0xa0, 0x01), 0x01)\n        /* \"contracts/Staking/StakingFinal.sol\":5316:5332  RewardAmount[to] */\n      dup5\n      dup2\n      and\n        /* \"contracts/Staking/StakingFinal.sol\":5174:5186  ERC20Address */\n      0x00\n        /* \"contracts/Staking/StakingFinal.sol\":5316:5332  RewardAmount[to] */\n      swap1\n      dup2\n      mstore\n        /* \"contracts/Staking/StakingFinal.sol\":5316:5328  RewardAmount */\n      0x0c\n        /* \"contracts/Staking/StakingFinal.sol\":5316:5332  RewardAmount[to] */\n      0x20\n      swap1\n      dup2\n      mstore\n      0x40\n      dup1\n      dup4\n      keccak256\n      sload\n        /* \"contracts/Staking/StakingFinal.sol\":5295:5309  InterestAmount */\n      0x08\n        /* \"contracts/Staking/StakingFinal.sol\":5295:5313  InterestAmount[to] */\n      swap1\n      swap3\n      mstore\n      swap1\n      swap2\n      keccak256\n      sload\n        /* \"contracts/Staking/StakingFinal.sol\":5174:5186  ERC20Address */\n      swap2\n      swap1\n      swap3\n      and\n      swap2\n        /* \"contracts/Staking/StakingFinal.sol\":5167:5196  IERC20(ERC20Address).transfer */\n      0xa9059cbb\n      swap2\n        /* \"contracts/Staking/StakingFinal.sol\":5218:5220  to */\n      dup7\n      swap2\n        /* \"contracts/Staking/StakingFinal.sol\":5295:5332  InterestAmount[to] - RewardAmount[to] */\n      tag_235\n      swap2\n      tag_123\n      jump\t// in\n    tag_235:\n      sub(shl(0xa0, 0x01), 0x01)\n        /* \"contracts/Staking/StakingFinal.sol\":5242:5253  Details[to] */\n      dup8\n      and\n      0x00\n      swap1\n      dup2\n      mstore\n        /* \"contracts/Staking/StakingFinal.sol\":5242:5249  Details */\n      0x07\n        /* \"contracts/Staking/StakingFinal.sol\":5242:5253  Details[to] */\n      0x20\n      mstore\n      0x40\n      swap1\n      keccak256\n        /* \"contracts/Staking/StakingFinal.sol\":5242:5267  Details[to].depositTokens */\n      sload\n        /* \"contracts/Staking/StakingFinal.sol\":5242:5333  Details[to].depositTokens +... */\n      tag_236\n      swap2\n      swap1\n      tag_118\n      jump\t// in\n    tag_236:\n        /* \"contracts/Staking/StakingFinal.sol\":5167:5351  IERC20(ERC20Address).transfer(... */\n      mload(0x40)\n      dup4\n      0xffffffff\n      and\n      0xe0\n      shl\n      dup2\n      mstore\n      0x04\n      add\n      tag_237\n      swap3\n      swap2\n      swap1\n      tag_135\n      jump\t// in\n    tag_237:\n      0x20\n      mload(0x40)\n      dup1\n      dup4\n      sub\n      dup2\n      0x00\n      dup8\n      gas\n      call\n      iszero\n      dup1\n      iszero\n      tag_239\n      jumpi\n      returndatasize\n      0x00\n      dup1\n      returndatacopy\n      revert(0x00, returndatasize)\n    tag_239:\n      pop\n      pop\n      pop\n      pop\n      mload(0x40)\n      returndatasize\n      not(0x1f)\n      0x1f\n      dup3\n      add\n      and\n      dup3\n      add\n      dup1\n      0x40\n      mstore\n      pop\n      dup2\n      add\n      swap1\n      tag_240\n      swap2\n      swap1\n      tag_139\n      jump\t// in\n    tag_240:\n      pop\n        /* \"contracts/Staking/StakingFinal.sol\":4989:9147  if (... */\n      jump(tag_275)\n        /* \"contracts/Staking/StakingFinal.sol\":5110:6676  if (Details[to].EarnPersentage == 100) {... */\n    tag_234:\n      sub(shl(0xa0, 0x01), 0x01)\n        /* \"contracts/Staking/StakingFinal.sol\":5376:5387  Details[to] */\n      dup4\n      and\n      0x00\n      swap1\n      dup2\n      mstore\n        /* \"contracts/Staking/StakingFinal.sol\":5376:5383  Details */\n      0x07\n        /* \"contracts/Staking/StakingFinal.sol\":5376:5387  Details[to] */\n      0x20\n      mstore\n      0x40\n      swap1\n      keccak256\n        /* \"contracts/Staking/StakingFinal.sol\":5376:5402  Details[to].EarnPersentage */\n      0x03\n      add\n      sload\n        /* \"contracts/Staking/StakingFinal.sol\":5406:5408  75 */\n      0x4b\n        /* \"contracts/Staking/StakingFinal.sol\":5376:5408  Details[to].EarnPersentage == 75 */\n      sub\n        /* \"contracts/Staking/StakingFinal.sol\":5372:6676  if (Details[to].EarnPersentage == 75) {... */\n      tag_242\n      jumpi\n      sub(shl(0xa0, 0x01), 0x01)\n        /* \"contracts/Staking/StakingFinal.sol\":5483:5499  RewardAmount[to] */\n      dup4\n      and\n      0x00\n      swap1\n      dup2\n      mstore\n        /* \"contracts/Staking/StakingFinal.sol\":5483:5495  RewardAmount */\n      0x0c\n        /* \"contracts/Staking/StakingFinal.sol\":5483:5499  RewardAmount[to] */\n      0x20\n      swap1\n      dup2\n      mstore\n      0x40\n      dup1\n      dup4\n      keccak256\n      sload\n        /* \"contracts/Staking/StakingFinal.sol\":5462:5476  InterestAmount */\n      0x08\n        /* \"contracts/Staking/StakingFinal.sol\":5462:5480  InterestAmount[to] */\n      swap1\n      swap3\n      mstore\n      swap1\n      swap2\n      keccak256\n      sload\n        /* \"contracts/Staking/StakingFinal.sol\":5529:5532  100 */\n      0x64\n      swap2\n        /* \"contracts/Staking/StakingFinal.sol\":5462:5499  InterestAmount[to] - RewardAmount[to] */\n      tag_243\n      swap2\n      tag_123\n      jump\t// in\n    tag_243:\n        /* \"contracts/Staking/StakingFinal.sol\":5461:5505  (InterestAmount[to] - RewardAmount[to]) * 75 */\n      tag_244\n      swap1\n        /* \"contracts/Staking/StakingFinal.sol\":5503:5505  75 */\n      0x4b\n        /* \"contracts/Staking/StakingFinal.sol\":5461:5505  (InterestAmount[to] - RewardAmount[to]) * 75 */\n      tag_113\n      jump\t// in\n    tag_244:\n        /* \"contracts/Staking/StakingFinal.sol\":5460:5532  ((InterestAmount[to] - RewardAmount[to]) * 75) /... */\n      tag_245\n      swap2\n      swap1\n      tag_125\n      jump\t// in\n    tag_245:\n        /* \"contracts/Staking/StakingFinal.sol\":5557:5569  ERC20Address */\n      sload(0x01)\n      sub(shl(0xa0, 0x01), 0x01)\n        /* \"contracts/Staking/StakingFinal.sol\":5625:5636  Details[to] */\n      dup6\n      dup2\n      and\n        /* \"contracts/Staking/StakingFinal.sol\":5557:5569  ERC20Address */\n      0x00\n        /* \"contracts/Staking/StakingFinal.sol\":5625:5636  Details[to] */\n      swap1\n      dup2\n      mstore\n        /* \"contracts/Staking/StakingFinal.sol\":5625:5632  Details */\n      0x07\n        /* \"contracts/Staking/StakingFinal.sol\":5625:5636  Details[to] */\n      0x20\n      mstore\n      0x40\n      swap1\n      keccak256\n        /* \"contracts/Staking/StakingFinal.sol\":5625:5650  Details[to].depositTokens */\n      sload\n        /* \"contracts/Staking/StakingFinal.sol\":5428:5532  EarnToken =... */\n      swap3\n      swap5\n      pop\n        /* \"contracts/Staking/StakingFinal.sol\":5557:5569  ERC20Address */\n      and\n      swap1\n        /* \"contracts/Staking/StakingFinal.sol\":5550:5579  IERC20(ERC20Address).transfer */\n      0xa9059cbb\n      swap1\n        /* \"contracts/Staking/StakingFinal.sol\":5601:5603  to */\n      dup6\n      swap1\n        /* \"contracts/Staking/StakingFinal.sol\":5625:5662  Details[to].depositTokens + EarnToken */\n      tag_246\n      swap1\n        /* \"contracts/Staking/StakingFinal.sol\":5428:5532  EarnToken =... */\n      dup7\n      swap1\n        /* \"contracts/Staking/StakingFinal.sol\":5625:5662  Details[to].depositTokens + EarnToken */\n      tag_118\n      jump\t// in\n    tag_246:\n        /* \"contracts/Staking/StakingFinal.sol\":5550:5680  IERC20(ERC20Address).transfer(... */\n      mload(0x40)\n      dup4\n      0xffffffff\n      and\n      0xe0\n      shl\n      dup2\n      mstore\n      0x04\n      add\n      tag_247\n      swap3\n      swap2\n      swap1\n      tag_135\n      jump\t// in\n    tag_247:\n      0x20\n      mload(0x40)\n      dup1\n      dup4\n      sub\n      dup2\n      0x00\n      dup8\n      gas\n      call\n      iszero\n      dup1\n      iszero\n      tag_249\n      jumpi\n      returndatasize\n      0x00\n      dup1\n      returndatacopy\n      revert(0x00, returndatasize)\n    tag_249:\n      pop\n      pop\n      pop\n      pop\n      mload(0x40)\n      returndatasize\n      not(0x1f)\n      0x1f\n      dup3\n      add\n      and\n      dup3\n      add\n      dup1\n      0x40\n      mstore\n      pop\n      dup2\n      add\n      swap1\n      tag_250\n      swap2\n      swap1\n      tag_139\n      jump\t// in\n    tag_250:\n      pop\n      sub(shl(0xa0, 0x01), 0x01)\n        /* \"contracts/Staking/StakingFinal.sol\":5753:5769  RewardAmount[to] */\n      dup4\n      and\n      0x00\n      swap1\n      dup2\n      mstore\n        /* \"contracts/Staking/StakingFinal.sol\":5753:5765  RewardAmount */\n      0x0c\n        /* \"contracts/Staking/StakingFinal.sol\":5753:5769  RewardAmount[to] */\n      0x20\n      swap1\n      dup2\n      mstore\n      0x40\n      dup1\n      dup4\n      keccak256\n      sload\n        /* \"contracts/Staking/StakingFinal.sol\":5732:5746  InterestAmount */\n      0x08\n        /* \"contracts/Staking/StakingFinal.sol\":5732:5750  InterestAmount[to] */\n      swap1\n      swap3\n      mstore\n      swap1\n      swap2\n      keccak256\n      sload\n        /* \"contracts/Staking/StakingFinal.sol\":5799:5802  100 */\n      0x64\n      swap2\n        /* \"contracts/Staking/StakingFinal.sol\":5732:5769  InterestAmount[to] - RewardAmount[to] */\n      tag_251\n      swap2\n      tag_123\n      jump\t// in\n    tag_251:\n        /* \"contracts/Staking/StakingFinal.sol\":5731:5775  (InterestAmount[to] - RewardAmount[to]) * 25 */\n      tag_252\n      swap1\n        /* \"contracts/Staking/StakingFinal.sol\":5773:5775  25 */\n      0x19\n        /* \"contracts/Staking/StakingFinal.sol\":5731:5775  (InterestAmount[to] - RewardAmount[to]) * 25 */\n      tag_113\n      jump\t// in\n    tag_252:\n        /* \"contracts/Staking/StakingFinal.sol\":5730:5802  ((InterestAmount[to] - RewardAmount[to]) * 25) /... */\n      tag_253\n      swap2\n      swap1\n      tag_125\n      jump\t// in\n    tag_253:\n      sub(shl(0xa0, 0x01), 0x01)\n        /* \"contracts/Staking/StakingFinal.sol\":5820:5834  BurnAmount[to] */\n      dup1\n      dup6\n      and\n      0x00\n      swap1\n      dup2\n      mstore\n        /* \"contracts/Staking/StakingFinal.sol\":5820:5830  BurnAmount */\n      0x0d\n        /* \"contracts/Staking/StakingFinal.sol\":5820:5834  BurnAmount[to] */\n      0x20\n      mstore\n      0x40\n      swap1\n      dup2\n      swap1\n      keccak256\n        /* \"contracts/Staking/StakingFinal.sol\":5820:5846  BurnAmount[to] = BurnToken */\n      dup4\n      swap1\n      sstore\n        /* \"contracts/Staking/StakingFinal.sol\":5871:5883  ERC20Address */\n      sload(0x01)\n        /* \"contracts/Staking/StakingFinal.sol\":5864:6006  IERC20(ERC20Address).transfer(... */\n      swap1\n      mload\n      shl(0xe0, 0xa9059cbb)\n      dup2\n      mstore\n        /* \"contracts/Staking/StakingFinal.sol\":5698:5802  BurnToken =... */\n      swap3\n      swap4\n      pop\n        /* \"contracts/Staking/StakingFinal.sol\":5871:5883  ERC20Address */\n      and\n      swap1\n        /* \"contracts/Staking/StakingFinal.sol\":5864:5893  IERC20(ERC20Address).transfer */\n      0xa9059cbb\n      swap1\n        /* \"contracts/Staking/StakingFinal.sol\":5864:6006  IERC20(ERC20Address).transfer(... */\n      tag_237\n      swap1\n        /* \"contracts/Staking/StakingFinal.sol\":5915:5957  0x000000000000000000000000000000000000dEaD */\n      0xdead\n      swap1\n        /* \"contracts/Staking/StakingFinal.sol\":5698:5802  BurnToken =... */\n      dup6\n      swap1\n        /* \"contracts/Staking/StakingFinal.sol\":5864:6006  IERC20(ERC20Address).transfer(... */\n      0x04\n      add\n      tag_135\n      jump\t// in\n        /* \"contracts/Staking/StakingFinal.sol\":5372:6676  if (Details[to].EarnPersentage == 75) {... */\n    tag_242:\n      sub(shl(0xa0, 0x01), 0x01)\n        /* \"contracts/Staking/StakingFinal.sol\":6031:6042  Details[to] */\n      dup4\n      and\n      0x00\n      swap1\n      dup2\n      mstore\n        /* \"contracts/Staking/StakingFinal.sol\":6031:6038  Details */\n      0x07\n        /* \"contracts/Staking/StakingFinal.sol\":6031:6042  Details[to] */\n      0x20\n      mstore\n      0x40\n      swap1\n      keccak256\n        /* \"contracts/Staking/StakingFinal.sol\":6031:6057  Details[to].EarnPersentage */\n      0x03\n      add\n      sload\n        /* \"contracts/Staking/StakingFinal.sol\":6061:6063  50 */\n      0x32\n        /* \"contracts/Staking/StakingFinal.sol\":6031:6063  Details[to].EarnPersentage == 50 */\n      sub\n        /* \"contracts/Staking/StakingFinal.sol\":6027:6676  if (Details[to].EarnPersentage == 50) {... */\n      tag_259\n      jumpi\n      sub(shl(0xa0, 0x01), 0x01)\n        /* \"contracts/Staking/StakingFinal.sol\":6138:6154  RewardAmount[to] */\n      dup4\n      and\n      0x00\n      swap1\n      dup2\n      mstore\n        /* \"contracts/Staking/StakingFinal.sol\":6138:6150  RewardAmount */\n      0x0c\n        /* \"contracts/Staking/StakingFinal.sol\":6138:6154  RewardAmount[to] */\n      0x20\n      swap1\n      dup2\n      mstore\n      0x40\n      dup1\n      dup4\n      keccak256\n      sload\n        /* \"contracts/Staking/StakingFinal.sol\":6117:6131  InterestAmount */\n      0x08\n        /* \"contracts/Staking/StakingFinal.sol\":6117:6135  InterestAmount[to] */\n      swap1\n      swap3\n      mstore\n      swap1\n      swap2\n      keccak256\n      sload\n        /* \"contracts/Staking/StakingFinal.sol\":6184:6187  100 */\n      0x64\n      swap2\n        /* \"contracts/Staking/StakingFinal.sol\":6117:6154  InterestAmount[to] - RewardAmount[to] */\n      tag_260\n      swap2\n      tag_123\n      jump\t// in\n    tag_260:\n        /* \"contracts/Staking/StakingFinal.sol\":6116:6160  (InterestAmount[to] - RewardAmount[to]) * 50 */\n      tag_261\n      swap1\n        /* \"contracts/Staking/StakingFinal.sol\":6158:6160  50 */\n      0x32\n        /* \"contracts/Staking/StakingFinal.sol\":6116:6160  (InterestAmount[to] - RewardAmount[to]) * 50 */\n      tag_113\n      jump\t// in\n    tag_261:\n        /* \"contracts/Staking/StakingFinal.sol\":6115:6187  ((InterestAmount[to] - RewardAmount[to]) * 50) /... */\n      tag_262\n      swap2\n      swap1\n      tag_125\n      jump\t// in\n    tag_262:\n        /* \"contracts/Staking/StakingFinal.sol\":6212:6224  ERC20Address */\n      sload(0x01)\n      sub(shl(0xa0, 0x01), 0x01)\n        /* \"contracts/Staking/StakingFinal.sol\":6280:6291  Details[to] */\n      dup6\n      dup2\n      and\n        /* \"contracts/Staking/StakingFinal.sol\":6212:6224  ERC20Address */\n      0x00\n        /* \"contracts/Staking/StakingFinal.sol\":6280:6291  Details[to] */\n      swap1\n      dup2\n      mstore\n        /* \"contracts/Staking/StakingFinal.sol\":6280:6287  Details */\n      0x07\n        /* \"contracts/Staking/StakingFinal.sol\":6280:6291  Details[to] */\n      0x20\n      mstore\n      0x40\n      swap1\n      keccak256\n        /* \"contracts/Staking/StakingFinal.sol\":6280:6305  Details[to].depositTokens */\n      sload\n        /* \"contracts/Staking/StakingFinal.sol\":6083:6187  EarnToken =... */\n      swap3\n      swap5\n      pop\n        /* \"contracts/Staking/StakingFinal.sol\":6212:6224  ERC20Address */\n      and\n      swap1\n        /* \"contracts/Staking/StakingFinal.sol\":6205:6234  IERC20(ERC20Address).transfer */\n      0xa9059cbb\n      swap1\n        /* \"contracts/Staking/StakingFinal.sol\":6256:6258  to */\n      dup6\n      swap1\n        /* \"contracts/Staking/StakingFinal.sol\":6280:6317  Details[to].depositTokens + EarnToken */\n      tag_263\n      swap1\n        /* \"contracts/Staking/StakingFinal.sol\":6083:6187  EarnToken =... */\n      dup7\n      swap1\n        /* \"contracts/Staking/StakingFinal.sol\":6280:6317  Details[to].depositTokens + EarnToken */\n      tag_118\n      jump\t// in\n    tag_263:\n        /* \"contracts/Staking/StakingFinal.sol\":6205:6335  IERC20(ERC20Address).transfer(... */\n      mload(0x40)\n      dup4\n      0xffffffff\n      and\n      0xe0\n      shl\n      dup2\n      mstore\n      0x04\n      add\n      tag_264\n      swap3\n      swap2\n      swap1\n      tag_135\n      jump\t// in\n    tag_264:\n      0x20\n      mload(0x40)\n      dup1\n      dup4\n      sub\n      dup2\n      0x00\n      dup8\n      gas\n      call\n      iszero\n      dup1\n      iszero\n      tag_266\n      jumpi\n      returndatasize\n      0x00\n      dup1\n      returndatacopy\n      revert(0x00, returndatasize)\n    tag_266:\n      pop\n      pop\n      pop\n      pop\n      mload(0x40)\n      returndatasize\n      not(0x1f)\n      0x1f\n      dup3\n      add\n      and\n      dup3\n      add\n      dup1\n      0x40\n      mstore\n      pop\n      dup2\n      add\n      swap1\n      tag_267\n      swap2\n      swap1\n      tag_139\n      jump\t// in\n    tag_267:\n      pop\n      sub(shl(0xa0, 0x01), 0x01)\n        /* \"contracts/Staking/StakingFinal.sol\":6408:6424  RewardAmount[to] */\n      dup4\n      and\n      0x00\n      swap1\n      dup2\n      mstore\n        /* \"contracts/Staking/StakingFinal.sol\":6408:6420  RewardAmount */\n      0x0c\n        /* \"contracts/Staking/StakingFinal.sol\":6408:6424  RewardAmount[to] */\n      0x20\n      swap1\n      dup2\n      mstore\n      0x40\n      dup1\n      dup4\n      keccak256\n      sload\n        /* \"contracts/Staking/StakingFinal.sol\":6387:6401  InterestAmount */\n      0x08\n        /* \"contracts/Staking/StakingFinal.sol\":6387:6405  InterestAmount[to] */\n      swap1\n      swap3\n      mstore\n      swap1\n      swap2\n      keccak256\n      sload\n        /* \"contracts/Staking/StakingFinal.sol\":6454:6457  100 */\n      0x64\n      swap2\n        /* \"contracts/Staking/StakingFinal.sol\":6387:6424  InterestAmount[to] - RewardAmount[to] */\n      tag_268\n      swap2\n      tag_123\n      jump\t// in\n    tag_268:\n        /* \"contracts/Staking/StakingFinal.sol\":6386:6430  (InterestAmount[to] - RewardAmount[to]) * 50 */\n      tag_252\n      swap1\n        /* \"contracts/Staking/StakingFinal.sol\":6428:6430  50 */\n      0x32\n        /* \"contracts/Staking/StakingFinal.sol\":6386:6430  (InterestAmount[to] - RewardAmount[to]) * 50 */\n      tag_113\n      jump\t// in\n        /* \"contracts/Staking/StakingFinal.sol\":6027:6676  if (Details[to].EarnPersentage == 50) {... */\n    tag_259:\n        /* \"contracts/Staking/StakingFinal.sol\":4989:9147  if (... */\n      jump(tag_275)\n    tag_233:\n      sub(shl(0xa0, 0x01), 0x01)\n        /* \"contracts/Staking/StakingFinal.sol\":6848:6859  Details[to] */\n      dup4\n      and\n        /* \"contracts/Staking/StakingFinal.sol\":6706:6734  uint256 InterestAmountperday */\n      0x00\n        /* \"contracts/Staking/StakingFinal.sol\":6848:6859  Details[to] */\n      swap1\n      dup2\n      mstore\n        /* \"contracts/Staking/StakingFinal.sol\":6848:6855  Details */\n      0x07\n        /* \"contracts/Staking/StakingFinal.sol\":6848:6859  Details[to] */\n      0x20\n      mstore\n      0x40\n      dup2\n      keccak256\n        /* \"contracts/Staking/StakingFinal.sol\":6848:6869  Details[to].stakeTime */\n      0x01\n      add\n      sload\n        /* \"contracts/Staking/StakingFinal.sol\":6706:6734  uint256 InterestAmountperday */\n      dup2\n      swap1\n      dup2\n      swap1\n      dup2\n      swap1\n        /* \"contracts/Staking/StakingFinal.sol\":6874:6886  24 * 60 * 60 */\n      0x015180\n      swap1\n        /* \"contracts/Staking/StakingFinal.sol\":6830:6869  block.timestamp - Details[to].stakeTime */\n      tag_276\n      swap1\n        /* \"contracts/Staking/StakingFinal.sol\":6830:6845  block.timestamp */\n      timestamp\n        /* \"contracts/Staking/StakingFinal.sol\":6830:6869  block.timestamp - Details[to].stakeTime */\n      tag_123\n      jump\t// in\n    tag_276:\n        /* \"contracts/Staking/StakingFinal.sol\":6829:6887  (block.timestamp - Details[to].stakeTime) / (24 * 60 * 60) */\n      tag_277\n      swap2\n      swap1\n      tag_125\n      jump\t// in\n    tag_277:\n      sub(shl(0xa0, 0x01), 0x01)\n        /* \"contracts/Staking/StakingFinal.sol\":6978:6989  Details[to] */\n      dup9\n      and\n      0x00\n      swap1\n      dup2\n      mstore\n        /* \"contracts/Staking/StakingFinal.sol\":6978:6985  Details */\n      0x07\n        /* \"contracts/Staking/StakingFinal.sol\":6978:6989  Details[to] */\n      0x20\n      mstore\n      0x40\n      swap1\n      keccak256\n        /* \"contracts/Staking/StakingFinal.sol\":6978:7000  Details[to].StakeMonth */\n      0x02\n      add\n      sload\n        /* \"contracts/Staking/StakingFinal.sol\":6810:6887  uint256 Stakdays = (block.timestamp - Details[to].stakeTime) / (24 * 60 * 60) */\n      swap1\n      swap2\n      pop\n        /* \"contracts/Staking/StakingFinal.sol\":6978:7005  Details[to].StakeMonth * 30 */\n      tag_278\n      swap1\n        /* \"contracts/Staking/StakingFinal.sol\":7003:7005  30 */\n      0x1e\n        /* \"contracts/Staking/StakingFinal.sol\":6978:7005  Details[to].StakeMonth * 30 */\n      tag_113\n      jump\t// in\n    tag_278:\n      sub(shl(0xa0, 0x01), 0x01)\n        /* \"contracts/Staking/StakingFinal.sol\":6940:6958  InterestAmount[to] */\n      dup9\n      and\n      0x00\n      swap1\n      dup2\n      mstore\n        /* \"contracts/Staking/StakingFinal.sol\":6940:6954  InterestAmount */\n      0x08\n        /* \"contracts/Staking/StakingFinal.sol\":6940:6958  InterestAmount[to] */\n      0x20\n      mstore\n      0x40\n      swap1\n      keccak256\n      sload\n        /* \"contracts/Staking/StakingFinal.sol\":6940:7006  InterestAmount[to] /... */\n      tag_279\n      swap2\n      swap1\n      tag_125\n      jump\t// in\n    tag_279:\n      sub(shl(0xa0, 0x01), 0x01)\n        /* \"contracts/Staking/StakingFinal.sol\":7068:7079  Details[to] */\n      dup9\n      and\n      0x00\n      swap1\n      dup2\n      mstore\n        /* \"contracts/Staking/StakingFinal.sol\":7068:7075  Details */\n      0x07\n        /* \"contracts/Staking/StakingFinal.sol\":7068:7079  Details[to] */\n      0x20\n      mstore\n      0x40\n      swap1\n      keccak256\n        /* \"contracts/Staking/StakingFinal.sol\":7068:7094  Details[to].EarnPersentage */\n      0x03\n      add\n      sload\n        /* \"contracts/Staking/StakingFinal.sol\":6901:7006  InterestAmountperday =... */\n      swap1\n      swap5\n      pop\n        /* \"contracts/Staking/StakingFinal.sol\":7098:7101  100 */\n      0x64\n        /* \"contracts/Staking/StakingFinal.sol\":7068:7101  Details[to].EarnPersentage == 100 */\n      sub\n        /* \"contracts/Staking/StakingFinal.sol\":7064:9137  if (Details[to].EarnPersentage == 100) {... */\n      tag_280\n      jumpi\n        /* \"contracts/Staking/StakingFinal.sol\":7134:7165  InterestAmountperday * Stakdays */\n      tag_281\n        /* \"contracts/Staking/StakingFinal.sol\":7157:7165  Stakdays */\n      dup2\n        /* \"contracts/Staking/StakingFinal.sol\":7134:7154  InterestAmountperday */\n      dup6\n        /* \"contracts/Staking/StakingFinal.sol\":7134:7165  InterestAmountperday * Stakdays */\n      tag_113\n      jump\t// in\n    tag_281:\n      sub(shl(0xa0, 0x01), 0x01)\n        /* \"contracts/Staking/StakingFinal.sol\":7273:7289  RewardAmount[to] */\n      dup9\n      and\n      0x00\n      swap1\n      dup2\n      mstore\n        /* \"contracts/Staking/StakingFinal.sol\":7273:7285  RewardAmount */\n      0x0c\n        /* \"contracts/Staking/StakingFinal.sol\":7273:7289  RewardAmount[to] */\n      0x20\n      mstore\n      0x40\n      swap1\n      keccak256\n      sload\n        /* \"contracts/Staking/StakingFinal.sol\":7121:7166  EarnToken = (InterestAmountperday * Stakdays) */\n      swap1\n      swap7\n      pop\n        /* \"contracts/Staking/StakingFinal.sol\":7261:7289  EarnToken - RewardAmount[to] */\n      tag_282\n      swap1\n        /* \"contracts/Staking/StakingFinal.sol\":7121:7166  EarnToken = (InterestAmountperday * Stakdays) */\n      dup8\n        /* \"contracts/Staking/StakingFinal.sol\":7261:7289  EarnToken - RewardAmount[to] */\n      tag_123\n      jump\t// in\n    tag_282:\n      sub(shl(0xa0, 0x01), 0x01)\n        /* \"contracts/Staking/StakingFinal.sol\":7212:7223  Details[to] */\n      dup9\n      and\n      0x00\n      swap1\n      dup2\n      mstore\n        /* \"contracts/Staking/StakingFinal.sol\":7212:7219  Details */\n      0x07\n        /* \"contracts/Staking/StakingFinal.sol\":7212:7223  Details[to] */\n      0x20\n      mstore\n      0x40\n      swap1\n      keccak256\n        /* \"contracts/Staking/StakingFinal.sol\":7212:7237  Details[to].depositTokens */\n      sload\n        /* \"contracts/Staking/StakingFinal.sol\":7212:7290  Details[to].depositTokens +... */\n      tag_283\n      swap2\n      swap1\n      tag_118\n      jump\t// in\n    tag_283:\n        /* \"contracts/Staking/StakingFinal.sol\":7184:7290  Total =... */\n      swap3\n      pop\n        /* \"contracts/Staking/StakingFinal.sol\":7344:7348  1000 */\n      0x03e8\n        /* \"contracts/Staking/StakingFinal.sol\":7333:7340  penalty */\n      sload(0x06)\n        /* \"contracts/Staking/StakingFinal.sol\":7325:7330  Total */\n      dup5\n        /* \"contracts/Staking/StakingFinal.sol\":7325:7340  Total * penalty */\n      tag_284\n      swap2\n      swap1\n      tag_113\n      jump\t// in\n    tag_284:\n        /* \"contracts/Staking/StakingFinal.sol\":7324:7348  (Total * penalty) / 1000 */\n      tag_285\n      swap2\n      swap1\n      tag_125\n      jump\t// in\n    tag_285:\n        /* \"contracts/Staking/StakingFinal.sol\":7373:7385  ERC20Address */\n      sload(0x01)\n        /* \"contracts/Staking/StakingFinal.sol\":7308:7348  PenaltyResult = (Total * penalty) / 1000 */\n      swap1\n      swap3\n      pop\n      sub(shl(0xa0, 0x01), 0x01)\n        /* \"contracts/Staking/StakingFinal.sol\":7373:7385  ERC20Address */\n      and\n        /* \"contracts/Staking/StakingFinal.sol\":7366:7395  IERC20(ERC20Address).transfer */\n      0xa9059cbb\n        /* \"contracts/Staking/StakingFinal.sol\":7396:7398  to */\n      dup9\n        /* \"contracts/Staking/StakingFinal.sol\":7401:7422  Total - PenaltyResult */\n      tag_286\n        /* \"contracts/Staking/StakingFinal.sol\":7308:7348  PenaltyResult = (Total * penalty) / 1000 */\n      dup6\n        /* \"contracts/Staking/StakingFinal.sol\":7401:7406  Total */\n      dup8\n        /* \"contracts/Staking/StakingFinal.sol\":7401:7422  Total - PenaltyResult */\n      tag_123\n      jump\t// in\n    tag_286:\n        /* \"contracts/Staking/StakingFinal.sol\":7366:7424  IERC20(ERC20Address).transfer(to, (Total - PenaltyResult)) */\n      mload(0x40)\n      dup4\n      0xffffffff\n      and\n      0xe0\n      shl\n      dup2\n      mstore\n      0x04\n      add\n      tag_287\n      swap3\n      swap2\n      swap1\n      tag_135\n      jump\t// in\n    tag_287:\n      0x20\n      mload(0x40)\n      dup1\n      dup4\n      sub\n      dup2\n      0x00\n      dup8\n      gas\n      call\n      iszero\n      dup1\n      iszero\n      tag_289\n      jumpi\n      returndatasize\n      0x00\n      dup1\n      returndatacopy\n      revert(0x00, returndatasize)\n    tag_289:\n      pop\n      pop\n      pop\n      pop\n      mload(0x40)\n      returndatasize\n      not(0x1f)\n      0x1f\n      dup3\n      add\n      and\n      dup3\n      add\n      dup1\n      0x40\n      mstore\n      pop\n      dup2\n      add\n      swap1\n      tag_290\n      swap2\n      swap1\n      tag_139\n      jump\t// in\n    tag_290:\n      pop\n        /* \"contracts/Staking/StakingFinal.sol\":7064:9137  if (Details[to].EarnPersentage == 100) {... */\n      jump(tag_314)\n    tag_280:\n      sub(shl(0xa0, 0x01), 0x01)\n        /* \"contracts/Staking/StakingFinal.sol\":7516:7527  Details[to] */\n      dup8\n      and\n      0x00\n      swap1\n      dup2\n      mstore\n        /* \"contracts/Staking/StakingFinal.sol\":7516:7523  Details */\n      0x07\n        /* \"contracts/Staking/StakingFinal.sol\":7516:7527  Details[to] */\n      0x20\n      mstore\n      0x40\n      swap1\n      keccak256\n        /* \"contracts/Staking/StakingFinal.sol\":7516:7542  Details[to].EarnPersentage */\n      0x03\n      add\n      sload\n        /* \"contracts/Staking/StakingFinal.sol\":7546:7548  75 */\n      0x4b\n        /* \"contracts/Staking/StakingFinal.sol\":7516:7548  Details[to].EarnPersentage == 75 */\n      sub\n        /* \"contracts/Staking/StakingFinal.sol\":7512:9137  if (Details[to].EarnPersentage == 75) {... */\n      tag_292\n      jumpi\n      sub(shl(0xa0, 0x01), 0x01)\n        /* \"contracts/Staking/StakingFinal.sol\":7638:7654  RewardAmount[to] */\n      dup8\n      and\n      0x00\n      swap1\n      dup2\n      mstore\n        /* \"contracts/Staking/StakingFinal.sol\":7638:7650  RewardAmount */\n      0x0c\n        /* \"contracts/Staking/StakingFinal.sol\":7638:7654  RewardAmount[to] */\n      0x20\n      mstore\n      0x40\n      swap1\n      keccak256\n      sload\n        /* \"contracts/Staking/StakingFinal.sol\":7708:7711  100 */\n      0x64\n      swap1\n        /* \"contracts/Staking/StakingFinal.sol\":7603:7634  InterestAmountperday * Stakdays */\n      tag_293\n        /* \"contracts/Staking/StakingFinal.sol\":7626:7634  Stakdays */\n      dup4\n        /* \"contracts/Staking/StakingFinal.sol\":7603:7623  InterestAmountperday */\n      dup8\n        /* \"contracts/Staking/StakingFinal.sol\":7603:7634  InterestAmountperday * Stakdays */\n      tag_113\n      jump\t// in\n    tag_293:\n        /* \"contracts/Staking/StakingFinal.sol\":7602:7654  (InterestAmountperday * Stakdays) - RewardAmount[to] */\n      tag_294\n      swap2\n      swap1\n      tag_123\n      jump\t// in\n    tag_294:\n        /* \"contracts/Staking/StakingFinal.sol\":7601:7684  ((InterestAmountperday * Stakdays) - RewardAmount[to]) *... */\n      tag_295\n      swap1\n        /* \"contracts/Staking/StakingFinal.sol\":7682:7684  75 */\n      0x4b\n        /* \"contracts/Staking/StakingFinal.sol\":7601:7684  ((InterestAmountperday * Stakdays) - RewardAmount[to]) *... */\n      tag_113\n      jump\t// in\n    tag_295:\n        /* \"contracts/Staking/StakingFinal.sol\":7600:7711  (((InterestAmountperday * Stakdays) - RewardAmount[to]) *... */\n      tag_296\n      swap2\n      swap1\n      tag_125\n      jump\t// in\n    tag_296:\n      sub(shl(0xa0, 0x01), 0x01)\n        /* \"contracts/Staking/StakingFinal.sol\":7737:7748  Details[to] */\n      dup9\n      and\n      0x00\n      swap1\n      dup2\n      mstore\n        /* \"contracts/Staking/StakingFinal.sol\":7737:7744  Details */\n      0x07\n        /* \"contracts/Staking/StakingFinal.sol\":7737:7748  Details[to] */\n      0x20\n      mstore\n      0x40\n      swap1\n      keccak256\n        /* \"contracts/Staking/StakingFinal.sol\":7737:7762  Details[to].depositTokens */\n      sload\n        /* \"contracts/Staking/StakingFinal.sol\":7568:7711  EarnToken =... */\n      swap1\n      swap7\n      pop\n        /* \"contracts/Staking/StakingFinal.sol\":7737:7774  Details[to].depositTokens + EarnToken */\n      tag_297\n      swap1\n        /* \"contracts/Staking/StakingFinal.sol\":7568:7711  EarnToken =... */\n      dup8\n      swap1\n        /* \"contracts/Staking/StakingFinal.sol\":7737:7774  Details[to].depositTokens + EarnToken */\n      tag_118\n      jump\t// in\n    tag_297:\n        /* \"contracts/Staking/StakingFinal.sol\":7729:7774  Total = Details[to].depositTokens + EarnToken */\n      swap3\n      pop\n        /* \"contracts/Staking/StakingFinal.sol\":7828:7832  1000 */\n      0x03e8\n        /* \"contracts/Staking/StakingFinal.sol\":7817:7824  penalty */\n      sload(0x06)\n        /* \"contracts/Staking/StakingFinal.sol\":7809:7814  Total */\n      dup5\n        /* \"contracts/Staking/StakingFinal.sol\":7809:7824  Total * penalty */\n      tag_298\n      swap2\n      swap1\n      tag_113\n      jump\t// in\n    tag_298:\n        /* \"contracts/Staking/StakingFinal.sol\":7808:7832  (Total * penalty) / 1000 */\n      tag_299\n      swap2\n      swap1\n      tag_125\n      jump\t// in\n    tag_299:\n        /* \"contracts/Staking/StakingFinal.sol\":7857:7869  ERC20Address */\n      sload(0x01)\n        /* \"contracts/Staking/StakingFinal.sol\":7792:7832  PenaltyResult = (Total * penalty) / 1000 */\n      swap1\n      swap3\n      pop\n      sub(shl(0xa0, 0x01), 0x01)\n        /* \"contracts/Staking/StakingFinal.sol\":7857:7869  ERC20Address */\n      and\n        /* \"contracts/Staking/StakingFinal.sol\":7850:7879  IERC20(ERC20Address).transfer */\n      0xa9059cbb\n        /* \"contracts/Staking/StakingFinal.sol\":7880:7882  to */\n      dup9\n        /* \"contracts/Staking/StakingFinal.sol\":7885:7906  Total - PenaltyResult */\n      tag_300\n        /* \"contracts/Staking/StakingFinal.sol\":7792:7832  PenaltyResult = (Total * penalty) / 1000 */\n      dup6\n        /* \"contracts/Staking/StakingFinal.sol\":7885:7890  Total */\n      dup8\n        /* \"contracts/Staking/StakingFinal.sol\":7885:7906  Total - PenaltyResult */\n      tag_123\n      jump\t// in\n    tag_300:\n        /* \"contracts/Staking/StakingFinal.sol\":7850:7908  IERC20(ERC20Address).transfer(to, (Total - PenaltyResult)) */\n      mload(0x40)\n      dup4\n      0xffffffff\n      and\n      0xe0\n      shl\n      dup2\n      mstore\n      0x04\n      add\n      tag_301\n      swap3\n      swap2\n      swap1\n      tag_135\n      jump\t// in\n    tag_301:\n      0x20\n      mload(0x40)\n      dup1\n      dup4\n      sub\n      dup2\n      0x00\n      dup8\n      gas\n      call\n      iszero\n      dup1\n      iszero\n      tag_303\n      jumpi\n      returndatasize\n      0x00\n      dup1\n      returndatacopy\n      revert(0x00, returndatasize)\n    tag_303:\n      pop\n      pop\n      pop\n      pop\n      mload(0x40)\n      returndatasize\n      not(0x1f)\n      0x1f\n      dup3\n      add\n      and\n      dup3\n      add\n      dup1\n      0x40\n      mstore\n      pop\n      dup2\n      add\n      swap1\n      tag_304\n      swap2\n      swap1\n      tag_139\n      jump\t// in\n    tag_304:\n      pop\n      sub(shl(0xa0, 0x01), 0x01)\n        /* \"contracts/Staking/StakingFinal.sol\":7996:8012  RewardAmount[to] */\n      dup8\n      and\n      0x00\n      swap1\n      dup2\n      mstore\n        /* \"contracts/Staking/StakingFinal.sol\":7996:8008  RewardAmount */\n      0x0c\n        /* \"contracts/Staking/StakingFinal.sol\":7996:8012  RewardAmount[to] */\n      0x20\n      mstore\n      0x40\n      swap1\n      keccak256\n      sload\n        /* \"contracts/Staking/StakingFinal.sol\":8066:8069  100 */\n      0x64\n      swap1\n        /* \"contracts/Staking/StakingFinal.sol\":7961:7992  InterestAmountperday * Stakdays */\n      tag_305\n        /* \"contracts/Staking/StakingFinal.sol\":7984:7992  Stakdays */\n      dup4\n        /* \"contracts/Staking/StakingFinal.sol\":7961:7981  InterestAmountperday */\n      dup8\n        /* \"contracts/Staking/StakingFinal.sol\":7961:7992  InterestAmountperday * Stakdays */\n      tag_113\n      jump\t// in\n    tag_305:\n        /* \"contracts/Staking/StakingFinal.sol\":7960:8012  (InterestAmountperday * Stakdays) - RewardAmount[to] */\n      tag_306\n      swap2\n      swap1\n      tag_123\n      jump\t// in\n    tag_306:\n        /* \"contracts/Staking/StakingFinal.sol\":7959:8042  ((InterestAmountperday * Stakdays) - RewardAmount[to]) *... */\n      tag_307\n      swap1\n        /* \"contracts/Staking/StakingFinal.sol\":8040:8042  25 */\n      0x19\n        /* \"contracts/Staking/StakingFinal.sol\":7959:8042  ((InterestAmountperday * Stakdays) - RewardAmount[to]) *... */\n      tag_113\n      jump\t// in\n    tag_307:\n        /* \"contracts/Staking/StakingFinal.sol\":7958:8069  (((InterestAmountperday * Stakdays) - RewardAmount[to]) *... */\n      tag_308\n      swap2\n      swap1\n      tag_125\n      jump\t// in\n    tag_308:\n      sub(shl(0xa0, 0x01), 0x01)\n        /* \"contracts/Staking/StakingFinal.sol\":8087:8101  BurnAmount[to] */\n      dup1\n      dup10\n      and\n      0x00\n      swap1\n      dup2\n      mstore\n        /* \"contracts/Staking/StakingFinal.sol\":8087:8097  BurnAmount */\n      0x0d\n        /* \"contracts/Staking/StakingFinal.sol\":8087:8101  BurnAmount[to] */\n      0x20\n      mstore\n      0x40\n      swap1\n      dup2\n      swap1\n      keccak256\n        /* \"contracts/Staking/StakingFinal.sol\":8087:8113  BurnAmount[to] = BurnToken */\n      dup4\n      swap1\n      sstore\n        /* \"contracts/Staking/StakingFinal.sol\":8138:8150  ERC20Address */\n      sload(0x01)\n        /* \"contracts/Staking/StakingFinal.sol\":8131:8273  IERC20(ERC20Address).transfer(... */\n      swap1\n      mload\n      shl(0xe0, 0xa9059cbb)\n      dup2\n      mstore\n        /* \"contracts/Staking/StakingFinal.sol\":7926:8069  BurnToken =... */\n      swap3\n      swap8\n      pop\n        /* \"contracts/Staking/StakingFinal.sol\":8138:8150  ERC20Address */\n      and\n      swap1\n        /* \"contracts/Staking/StakingFinal.sol\":8131:8160  IERC20(ERC20Address).transfer */\n      0xa9059cbb\n      swap1\n        /* \"contracts/Staking/StakingFinal.sol\":8131:8273  IERC20(ERC20Address).transfer(... */\n      tag_287\n      swap1\n        /* \"contracts/Staking/StakingFinal.sol\":8182:8224  0x000000000000000000000000000000000000dEaD */\n      0xdead\n      swap1\n        /* \"contracts/Staking/StakingFinal.sol\":7926:8069  BurnToken =... */\n      dup10\n      swap1\n        /* \"contracts/Staking/StakingFinal.sol\":8131:8273  IERC20(ERC20Address).transfer(... */\n      0x04\n      add\n      tag_135\n      jump\t// in\n        /* \"contracts/Staking/StakingFinal.sol\":7512:9137  if (Details[to].EarnPersentage == 75) {... */\n    tag_292:\n      sub(shl(0xa0, 0x01), 0x01)\n        /* \"contracts/Staking/StakingFinal.sol\":8365:8376  Details[to] */\n      dup8\n      and\n      0x00\n      swap1\n      dup2\n      mstore\n        /* \"contracts/Staking/StakingFinal.sol\":8365:8372  Details */\n      0x07\n        /* \"contracts/Staking/StakingFinal.sol\":8365:8376  Details[to] */\n      0x20\n      mstore\n      0x40\n      swap1\n      keccak256\n        /* \"contracts/Staking/StakingFinal.sol\":8365:8391  Details[to].EarnPersentage */\n      0x03\n      add\n      sload\n        /* \"contracts/Staking/StakingFinal.sol\":8395:8397  50 */\n      0x32\n        /* \"contracts/Staking/StakingFinal.sol\":8365:8397  Details[to].EarnPersentage == 50 */\n      sub\n        /* \"contracts/Staking/StakingFinal.sol\":8361:9137  if (Details[to].EarnPersentage == 50) {... */\n      tag_314\n      jumpi\n      sub(shl(0xa0, 0x01), 0x01)\n        /* \"contracts/Staking/StakingFinal.sol\":8487:8503  RewardAmount[to] */\n      dup8\n      and\n      0x00\n      swap1\n      dup2\n      mstore\n        /* \"contracts/Staking/StakingFinal.sol\":8487:8499  RewardAmount */\n      0x0c\n        /* \"contracts/Staking/StakingFinal.sol\":8487:8503  RewardAmount[to] */\n      0x20\n      mstore\n      0x40\n      swap1\n      keccak256\n      sload\n        /* \"contracts/Staking/StakingFinal.sol\":8557:8560  100 */\n      0x64\n      swap1\n        /* \"contracts/Staking/StakingFinal.sol\":8452:8483  InterestAmountperday * Stakdays */\n      tag_315\n        /* \"contracts/Staking/StakingFinal.sol\":8475:8483  Stakdays */\n      dup4\n        /* \"contracts/Staking/StakingFinal.sol\":8452:8472  InterestAmountperday */\n      dup8\n        /* \"contracts/Staking/StakingFinal.sol\":8452:8483  InterestAmountperday * Stakdays */\n      tag_113\n      jump\t// in\n    tag_315:\n        /* \"contracts/Staking/StakingFinal.sol\":8451:8503  (InterestAmountperday * Stakdays) - RewardAmount[to] */\n      tag_316\n      swap2\n      swap1\n      tag_123\n      jump\t// in\n    tag_316:\n        /* \"contracts/Staking/StakingFinal.sol\":8450:8533  ((InterestAmountperday * Stakdays) - RewardAmount[to]) *... */\n      tag_317\n      swap1\n        /* \"contracts/Staking/StakingFinal.sol\":8531:8533  50 */\n      0x32\n        /* \"contracts/Staking/StakingFinal.sol\":8450:8533  ((InterestAmountperday * Stakdays) - RewardAmount[to]) *... */\n      tag_113\n      jump\t// in\n    tag_317:\n        /* \"contracts/Staking/StakingFinal.sol\":8449:8560  (((InterestAmountperday * Stakdays) - RewardAmount[to]) *... */\n      tag_318\n      swap2\n      swap1\n      tag_125\n      jump\t// in\n    tag_318:\n      sub(shl(0xa0, 0x01), 0x01)\n        /* \"contracts/Staking/StakingFinal.sol\":8586:8597  Details[to] */\n      dup9\n      and\n      0x00\n      swap1\n      dup2\n      mstore\n        /* \"contracts/Staking/StakingFinal.sol\":8586:8593  Details */\n      0x07\n        /* \"contracts/Staking/StakingFinal.sol\":8586:8597  Details[to] */\n      0x20\n      mstore\n      0x40\n      swap1\n      keccak256\n        /* \"contracts/Staking/StakingFinal.sol\":8586:8611  Details[to].depositTokens */\n      sload\n        /* \"contracts/Staking/StakingFinal.sol\":8417:8560  EarnToken =... */\n      swap1\n      swap7\n      pop\n        /* \"contracts/Staking/StakingFinal.sol\":8586:8623  Details[to].depositTokens + EarnToken */\n      tag_319\n      swap1\n        /* \"contracts/Staking/StakingFinal.sol\":8417:8560  EarnToken =... */\n      dup8\n      swap1\n        /* \"contracts/Staking/StakingFinal.sol\":8586:8623  Details[to].depositTokens + EarnToken */\n      tag_118\n      jump\t// in\n    tag_319:\n        /* \"contracts/Staking/StakingFinal.sol\":8578:8623  Total = Details[to].depositTokens + EarnToken */\n      swap3\n      pop\n        /* \"contracts/Staking/StakingFinal.sol\":8677:8681  1000 */\n      0x03e8\n        /* \"contracts/Staking/StakingFinal.sol\":8666:8673  penalty */\n      sload(0x06)\n        /* \"contracts/Staking/StakingFinal.sol\":8658:8663  Total */\n      dup5\n        /* \"contracts/Staking/StakingFinal.sol\":8658:8673  Total * penalty */\n      tag_320\n      swap2\n      swap1\n      tag_113\n      jump\t// in\n    tag_320:\n        /* \"contracts/Staking/StakingFinal.sol\":8657:8681  (Total * penalty) / 1000 */\n      tag_321\n      swap2\n      swap1\n      tag_125\n      jump\t// in\n    tag_321:\n        /* \"contracts/Staking/StakingFinal.sol\":8706:8718  ERC20Address */\n      sload(0x01)\n        /* \"contracts/Staking/StakingFinal.sol\":8641:8681  PenaltyResult = (Total * penalty) / 1000 */\n      swap1\n      swap3\n      pop\n      sub(shl(0xa0, 0x01), 0x01)\n        /* \"contracts/Staking/StakingFinal.sol\":8706:8718  ERC20Address */\n      and\n        /* \"contracts/Staking/StakingFinal.sol\":8699:8728  IERC20(ERC20Address).transfer */\n      0xa9059cbb\n        /* \"contracts/Staking/StakingFinal.sol\":8729:8731  to */\n      dup9\n        /* \"contracts/Staking/StakingFinal.sol\":8734:8755  Total - PenaltyResult */\n      tag_322\n        /* \"contracts/Staking/StakingFinal.sol\":8641:8681  PenaltyResult = (Total * penalty) / 1000 */\n      dup6\n        /* \"contracts/Staking/StakingFinal.sol\":8734:8739  Total */\n      dup8\n        /* \"contracts/Staking/StakingFinal.sol\":8734:8755  Total - PenaltyResult */\n      tag_123\n      jump\t// in\n    tag_322:\n        /* \"contracts/Staking/StakingFinal.sol\":8699:8757  IERC20(ERC20Address).transfer(to, (Total - PenaltyResult)) */\n      mload(0x40)\n      dup4\n      0xffffffff\n      and\n      0xe0\n      shl\n      dup2\n      mstore\n      0x04\n      add\n      tag_323\n      swap3\n      swap2\n      swap1\n      tag_135\n      jump\t// in\n    tag_323:\n      0x20\n      mload(0x40)\n      dup1\n      dup4\n      sub\n      dup2\n      0x00\n      dup8\n      gas\n      call\n      iszero\n      dup1\n      iszero\n      tag_325\n      jumpi\n      returndatasize\n      0x00\n      dup1\n      returndatacopy\n      revert(0x00, returndatasize)\n    tag_325:\n      pop\n      pop\n      pop\n      pop\n      mload(0x40)\n      returndatasize\n      not(0x1f)\n      0x1f\n      dup3\n      add\n      and\n      dup3\n      add\n      dup1\n      0x40\n      mstore\n      pop\n      dup2\n      add\n      swap1\n      tag_326\n      swap2\n      swap1\n      tag_139\n      jump\t// in\n    tag_326:\n      pop\n      sub(shl(0xa0, 0x01), 0x01)\n        /* \"contracts/Staking/StakingFinal.sol\":8845:8861  RewardAmount[to] */\n      dup8\n      and\n      0x00\n      swap1\n      dup2\n      mstore\n        /* \"contracts/Staking/StakingFinal.sol\":8845:8857  RewardAmount */\n      0x0c\n        /* \"contracts/Staking/StakingFinal.sol\":8845:8861  RewardAmount[to] */\n      0x20\n      mstore\n      0x40\n      swap1\n      keccak256\n      sload\n        /* \"contracts/Staking/StakingFinal.sol\":8915:8918  100 */\n      0x64\n      swap1\n        /* \"contracts/Staking/StakingFinal.sol\":8810:8841  InterestAmountperday * Stakdays */\n      tag_327\n        /* \"contracts/Staking/StakingFinal.sol\":8833:8841  Stakdays */\n      dup4\n        /* \"contracts/Staking/StakingFinal.sol\":8810:8830  InterestAmountperday */\n      dup8\n        /* \"contracts/Staking/StakingFinal.sol\":8810:8841  InterestAmountperday * Stakdays */\n      tag_113\n      jump\t// in\n    tag_327:\n        /* \"contracts/Staking/StakingFinal.sol\":8809:8861  (InterestAmountperday * Stakdays) - RewardAmount[to] */\n      tag_328\n      swap2\n      swap1\n      tag_123\n      jump\t// in\n    tag_328:\n        /* \"contracts/Staking/StakingFinal.sol\":8808:8891  ((InterestAmountperday * Stakdays) - RewardAmount[to]) *... */\n      tag_329\n      swap1\n        /* \"contracts/Staking/StakingFinal.sol\":8889:8891  50 */\n      0x32\n        /* \"contracts/Staking/StakingFinal.sol\":8808:8891  ((InterestAmountperday * Stakdays) - RewardAmount[to]) *... */\n      tag_113\n      jump\t// in\n    tag_329:\n        /* \"contracts/Staking/StakingFinal.sol\":8807:8918  (((InterestAmountperday * Stakdays) - RewardAmount[to]) *... */\n      tag_330\n      swap2\n      swap1\n      tag_125\n      jump\t// in\n    tag_330:\n      sub(shl(0xa0, 0x01), 0x01)\n        /* \"contracts/Staking/StakingFinal.sol\":8936:8950  BurnAmount[to] */\n      dup1\n      dup10\n      and\n      0x00\n      swap1\n      dup2\n      mstore\n        /* \"contracts/Staking/StakingFinal.sol\":8936:8946  BurnAmount */\n      0x0d\n        /* \"contracts/Staking/StakingFinal.sol\":8936:8950  BurnAmount[to] */\n      0x20\n      mstore\n      0x40\n      swap1\n      dup2\n      swap1\n      keccak256\n        /* \"contracts/Staking/StakingFinal.sol\":8936:8962  BurnAmount[to] = BurnToken */\n      dup4\n      swap1\n      sstore\n        /* \"contracts/Staking/StakingFinal.sol\":8987:8999  ERC20Address */\n      sload(0x01)\n        /* \"contracts/Staking/StakingFinal.sol\":8980:9122  IERC20(ERC20Address).transfer(... */\n      swap1\n      mload\n      shl(0xe0, 0xa9059cbb)\n      dup2\n      mstore\n        /* \"contracts/Staking/StakingFinal.sol\":8775:8918  BurnToken =... */\n      swap3\n      swap8\n      pop\n        /* \"contracts/Staking/StakingFinal.sol\":8987:8999  ERC20Address */\n      and\n      swap1\n        /* \"contracts/Staking/StakingFinal.sol\":8980:9009  IERC20(ERC20Address).transfer */\n      0xa9059cbb\n      swap1\n        /* \"contracts/Staking/StakingFinal.sol\":8980:9122  IERC20(ERC20Address).transfer(... */\n      tag_331\n      swap1\n        /* \"contracts/Staking/StakingFinal.sol\":9031:9073  0x000000000000000000000000000000000000dEaD */\n      0xdead\n      swap1\n        /* \"contracts/Staking/StakingFinal.sol\":8775:8918  BurnToken =... */\n      dup10\n      swap1\n        /* \"contracts/Staking/StakingFinal.sol\":8980:9122  IERC20(ERC20Address).transfer(... */\n      0x04\n      add\n      tag_135\n      jump\t// in\n    tag_331:\n      0x20\n      mload(0x40)\n      dup1\n      dup4\n      sub\n      dup2\n      0x00\n      dup8\n      gas\n      call\n      iszero\n      dup1\n      iszero\n      tag_333\n      jumpi\n      returndatasize\n      0x00\n      dup1\n      returndatacopy\n      revert(0x00, returndatasize)\n    tag_333:\n      pop\n      pop\n      pop\n      pop\n      mload(0x40)\n      returndatasize\n      not(0x1f)\n      0x1f\n      dup3\n      add\n      and\n      dup3\n      add\n      dup1\n      0x40\n      mstore\n      pop\n      dup2\n      add\n      swap1\n      tag_334\n      swap2\n      swap1\n      tag_139\n      jump\t// in\n    tag_334:\n      pop\n        /* \"contracts/Staking/StakingFinal.sol\":8361:9137  if (Details[to].EarnPersentage == 50) {... */\n    tag_314:\n        /* \"contracts/Staking/StakingFinal.sol\":6692:9147  {... */\n      pop\n      pop\n      pop\n      pop\n        /* \"contracts/Staking/StakingFinal.sol\":4989:9147  if (... */\n    tag_275:\n      sub(shl(0xa0, 0x01), 0x01)\n        /* \"contracts/Staking/StakingFinal.sol\":9156:9167  Details[to] */\n      dup4\n      and\n        /* \"contracts/Staking/StakingFinal.sol\":9176:9181  false */\n      0x00\n        /* \"contracts/Staking/StakingFinal.sol\":9156:9167  Details[to] */\n      swap1\n      dup2\n      mstore\n        /* \"contracts/Staking/StakingFinal.sol\":9156:9163  Details */\n      0x07\n        /* \"contracts/Staking/StakingFinal.sol\":9156:9167  Details[to] */\n      0x20\n      swap1\n      dup2\n      mstore\n      0x40\n      dup1\n      dup4\n      keccak256\n        /* \"contracts/Staking/StakingFinal.sol\":9156:9173  Details[to].check */\n      0x04\n      dup2\n      add\n        /* \"contracts/Staking/StakingFinal.sol\":9156:9181  Details[to].check = false */\n      dup1\n      sload\n      not(0xff)\n      and\n      swap1\n      sstore\n        /* \"contracts/Staking/StakingFinal.sol\":9198:9210  RewardAmount */\n      0x0c\n        /* \"contracts/Staking/StakingFinal.sol\":9198:9214  RewardAmount[to] */\n      dup4\n      mstore\n      dup2\n      dup5\n      keccak256\n        /* \"contracts/Staking/StakingFinal.sol\":9191:9214  delete RewardAmount[to] */\n      dup5\n      swap1\n      sstore\n        /* \"contracts/Staking/StakingFinal.sol\":9231:9245  InterestAmount */\n      0x08\n        /* \"contracts/Staking/StakingFinal.sol\":9231:9249  InterestAmount[to] */\n      dup4\n      mstore\n      dup2\n      dup5\n      keccak256\n        /* \"contracts/Staking/StakingFinal.sol\":9224:9249  delete InterestAmount[to] */\n      dup5\n      swap1\n      sstore\n        /* \"contracts/Staking/StakingFinal.sol\":9273:9298  Details[to].depositTokens */\n      sload\n        /* \"contracts/Staking/StakingFinal.sol\":9259:9265  Tokens */\n      0x0b\n        /* \"contracts/Staking/StakingFinal.sol\":9259:9269  Tokens[to] */\n      swap1\n      swap3\n      mstore\n      dup3\n      keccak256\n        /* \"contracts/Staking/StakingFinal.sol\":9259:9298  Tokens[to] -= Details[to].depositTokens */\n      dup1\n      sload\n        /* \"contracts/Staking/StakingFinal.sol\":9273:9298  Details[to].depositTokens */\n      swap2\n      swap3\n        /* \"contracts/Staking/StakingFinal.sol\":9259:9269  Tokens[to] */\n      swap1\n      swap2\n        /* \"contracts/Staking/StakingFinal.sol\":9259:9298  Tokens[to] -= Details[to].depositTokens */\n      tag_335\n      swap1\n        /* \"contracts/Staking/StakingFinal.sol\":9273:9298  Details[to].depositTokens */\n      dup5\n      swap1\n        /* \"contracts/Staking/StakingFinal.sol\":9259:9298  Tokens[to] -= Details[to].depositTokens */\n      tag_123\n      jump\t// in\n    tag_335:\n      swap1\n      swap2\n      sstore\n      pop\n      pop\n      sub(shl(0xa0, 0x01), 0x01)\n        /* \"contracts/Staking/StakingFinal.sol\":9329:9340  Details[to] */\n      dup4\n      and\n      0x00\n      swap1\n      dup2\n      mstore\n        /* \"contracts/Staking/StakingFinal.sol\":9329:9336  Details */\n      0x07\n        /* \"contracts/Staking/StakingFinal.sol\":9329:9340  Details[to] */\n      0x20\n      mstore\n      0x40\n      dup2\n      keccak256\n        /* \"contracts/Staking/StakingFinal.sol\":9329:9354  Details[to].depositTokens */\n      sload\n        /* \"contracts/Staking/StakingFinal.sol\":9308:9325  totalStakedTokens */\n      0x03\n        /* \"contracts/Staking/StakingFinal.sol\":9308:9354  totalStakedTokens -= Details[to].depositTokens */\n      dup1\n      sload\n        /* \"contracts/Staking/StakingFinal.sol\":9329:9354  Details[to].depositTokens */\n      swap2\n      swap3\n        /* \"contracts/Staking/StakingFinal.sol\":9308:9325  totalStakedTokens */\n      swap1\n      swap2\n        /* \"contracts/Staking/StakingFinal.sol\":9308:9354  totalStakedTokens -= Details[to].depositTokens */\n      tag_336\n      swap1\n        /* \"contracts/Staking/StakingFinal.sol\":9329:9354  Details[to].depositTokens */\n      dup5\n      swap1\n        /* \"contracts/Staking/StakingFinal.sol\":9308:9354  totalStakedTokens -= Details[to].depositTokens */\n      tag_123\n      jump\t// in\n    tag_336:\n      swap1\n      swap2\n      sstore\n      pop\n      pop\n      pop\n      pop\n      pop\n        /* \"contracts/Staking/StakingFinal.sol\":4824:9361  function WithdrawTokens(address to) public {... */\n      jump\t// out\n        /* \"contracts/Staking/StakingFinal.sol\":1586:1818  function AdminAddToken(uint256 _amount) public onlyOwner {... */\n    tag_95:\n        /* \"@openzeppelin/contracts/access/Ownable.sol\":1094:1107  _checkOwner() */\n      tag_338\n        /* \"@openzeppelin/contracts/access/Ownable.sol\":1094:1105  _checkOwner */\n      tag_214\n        /* \"@openzeppelin/contracts/access/Ownable.sol\":1094:1107  _checkOwner() */\n      jump\t// in\n    tag_338:\n        /* \"contracts/Staking/StakingFinal.sol\":1660:1670  msg.sender */\n      caller\n        /* \"contracts/Staking/StakingFinal.sol\":1653:1671  Tokens[msg.sender] */\n      0x00\n      swap1\n      dup2\n      mstore\n        /* \"contracts/Staking/StakingFinal.sol\":1653:1659  Tokens */\n      0x0b\n        /* \"contracts/Staking/StakingFinal.sol\":1653:1671  Tokens[msg.sender] */\n      0x20\n      mstore\n      0x40\n      dup2\n      keccak256\n        /* \"contracts/Staking/StakingFinal.sol\":1653:1682  Tokens[msg.sender] += _amount */\n      dup1\n      sload\n        /* \"contracts/Staking/StakingFinal.sol\":1675:1682  _amount */\n      dup4\n      swap3\n        /* \"contracts/Staking/StakingFinal.sol\":1653:1671  Tokens[msg.sender] */\n      swap1\n        /* \"contracts/Staking/StakingFinal.sol\":1653:1682  Tokens[msg.sender] += _amount */\n      tag_340\n      swap1\n        /* \"contracts/Staking/StakingFinal.sol\":1675:1682  _amount */\n      dup5\n      swap1\n        /* \"contracts/Staking/StakingFinal.sol\":1653:1682  Tokens[msg.sender] += _amount */\n      tag_118\n      jump\t// in\n    tag_340:\n      swap1\n      swap2\n      sstore\n      pop\n      pop\n        /* \"contracts/Staking/StakingFinal.sol\":1699:1711  ERC20Address */\n      sload(0x01)\n        /* \"contracts/Staking/StakingFinal.sol\":1692:1811  IERC20(ERC20Address).safeTransferFrom(... */\n      tag_341\n      swap1\n      sub(shl(0xa0, 0x01), 0x01)\n        /* \"contracts/Staking/StakingFinal.sol\":1699:1711  ERC20Address */\n      and\n        /* \"contracts/Staking/StakingFinal.sol\":1743:1753  msg.sender */\n      caller\n        /* \"contracts/Staking/StakingFinal.sol\":1775:1779  this */\n      address\n        /* \"contracts/Staking/StakingFinal.sol\":1794:1801  _amount */\n      dup5\n        /* \"contracts/Staking/StakingFinal.sol\":1692:1729  IERC20(ERC20Address).safeTransferFrom */\n      tag_182\n        /* \"contracts/Staking/StakingFinal.sol\":1692:1811  IERC20(ERC20Address).safeTransferFrom(... */\n      jump\t// in\n    tag_341:\n        /* \"contracts/Staking/StakingFinal.sol\":1586:1818  function AdminAddToken(uint256 _amount) public onlyOwner {... */\n      pop\n      jump\t// out\n        /* \"contracts/Staking/StakingFinal.sol\":11562:11795  function SetRewardPersentage(... */\n    tag_98:\n        /* \"@openzeppelin/contracts/access/Ownable.sol\":1094:1107  _checkOwner() */\n      tag_343\n        /* \"@openzeppelin/contracts/access/Ownable.sol\":1094:1105  _checkOwner */\n      tag_214\n        /* \"@openzeppelin/contracts/access/Ownable.sol\":1094:1107  _checkOwner() */\n      jump\t// in\n    tag_343:\n        /* \"contracts/Staking/StakingFinal.sol\":11705:11711  APYPer */\n      0x0a\n        /* \"contracts/Staking/StakingFinal.sol\":11705:11714  APYPer[1] */\n      0x20\n      mstore\n      0xbbc70db1b6c7afd11e79c0fb0051300458f1a3acb8ee9789d9b6b26c61ad9bc7\n        /* \"contracts/Staking/StakingFinal.sol\":11705:11726  APYPer[1] = Month1Per */\n      swap3\n      swap1\n      swap3\n      sstore\n        /* \"contracts/Staking/StakingFinal.sol\":11736:11745  APYPer[2] */\n      0xbff4442b8ed600beeb8e26b1279a0f0d14c6edfaec26d968ee13c86f7d4c2ba8\n        /* \"contracts/Staking/StakingFinal.sol\":11736:11757  APYPer[2] = Month2Per */\n      sstore\n        /* \"contracts/Staking/StakingFinal.sol\":11774:11775  3 */\n      0x03\n        /* \"contracts/Staking/StakingFinal.sol\":11705:11714  APYPer[1] */\n      0x00\n        /* \"contracts/Staking/StakingFinal.sol\":11767:11776  APYPer[3] */\n      mstore\n      0xa856840544dc26124927add067d799967eac11be13e14d82cc281ea46fa39759\n        /* \"contracts/Staking/StakingFinal.sol\":11767:11788  APYPer[3] = Month3Per */\n      sstore\n        /* \"contracts/Staking/StakingFinal.sol\":11562:11795  function SetRewardPersentage(... */\n      jump\t// out\n        /* \"contracts/Staking/StakingFinal.sol\":10528:11147  function viewRewards(address to) public view returns (uint256 reward) {... */\n    tag_101:\n      sub(shl(0xa0, 0x01), 0x01)\n        /* \"contracts/Staking/StakingFinal.sol\":10673:10684  Details[to] */\n      dup2\n      and\n        /* \"contracts/Staking/StakingFinal.sol\":10582:10596  uint256 reward */\n      0x00\n        /* \"contracts/Staking/StakingFinal.sol\":10673:10684  Details[to] */\n      swap1\n      dup2\n      mstore\n        /* \"contracts/Staking/StakingFinal.sol\":10673:10680  Details */\n      0x07\n        /* \"contracts/Staking/StakingFinal.sol\":10673:10684  Details[to] */\n      0x20\n      mstore\n      0x40\n      dup2\n      keccak256\n        /* \"contracts/Staking/StakingFinal.sol\":10673:10694  Details[to].stakeTime */\n      0x01\n      dup2\n      add\n      sload\n        /* \"contracts/Staking/StakingFinal.sol\":10627:10649  Details[to].StakeMonth */\n      0x02\n      swap1\n      swap2\n      add\n      sload\n        /* \"contracts/Staking/StakingFinal.sol\":10710:10725  block.timestamp */\n      timestamp\n      swap2\n        /* \"contracts/Staking/StakingFinal.sol\":10673:10694  Details[to].stakeTime */\n      swap1\n        /* \"contracts/Staking/StakingFinal.sol\":10627:10654  Details[to].StakeMonth * 30 */\n      tag_346\n      swap1\n        /* \"contracts/Staking/StakingFinal.sol\":10652:10654  30 */\n      0x1e\n        /* \"contracts/Staking/StakingFinal.sol\":10627:10654  Details[to].StakeMonth * 30 */\n      tag_113\n      jump\t// in\n    tag_346:\n        /* \"contracts/Staking/StakingFinal.sol\":10627:10659  Details[to].StakeMonth * 30 * 24 */\n      tag_347\n      swap1\n        /* \"contracts/Staking/StakingFinal.sol\":10657:10659  24 */\n      0x18\n        /* \"contracts/Staking/StakingFinal.sol\":10627:10659  Details[to].StakeMonth * 30 * 24 */\n      tag_113\n      jump\t// in\n    tag_347:\n        /* \"contracts/Staking/StakingFinal.sol\":10627:10664  Details[to].StakeMonth * 30 * 24 * 60 */\n      tag_348\n      swap1\n        /* \"contracts/Staking/StakingFinal.sol\":10662:10664  60 */\n      0x3c\n        /* \"contracts/Staking/StakingFinal.sol\":10627:10664  Details[to].StakeMonth * 30 * 24 * 60 */\n      tag_113\n      jump\t// in\n    tag_348:\n        /* \"contracts/Staking/StakingFinal.sol\":10627:10669  Details[to].StakeMonth * 30 * 24 * 60 * 60 */\n      tag_349\n      swap1\n        /* \"contracts/Staking/StakingFinal.sol\":10667:10669  60 */\n      0x3c\n        /* \"contracts/Staking/StakingFinal.sol\":10627:10669  Details[to].StakeMonth * 30 * 24 * 60 * 60 */\n      tag_113\n      jump\t// in\n    tag_349:\n        /* \"contracts/Staking/StakingFinal.sol\":10626:10694  (Details[to].StakeMonth * 30 * 24 * 60 * 60) + Details[to].stakeTime */\n      tag_350\n      swap2\n      swap1\n      tag_118\n      jump\t// in\n    tag_350:\n        /* \"contracts/Staking/StakingFinal.sol\":10625:10725  ((Details[to].StakeMonth * 30 * 24 * 60 * 60) + Details[to].stakeTime) <... */\n      lt\n        /* \"contracts/Staking/StakingFinal.sol\":10608:11141  if (... */\n      iszero\n      tag_351\n      jumpi\n      pop\n      sub(shl(0xa0, 0x01), 0x01)\n        /* \"contracts/Staking/StakingFinal.sol\":10758:10776  InterestAmount[to] */\n      and\n      0x00\n      swap1\n      dup2\n      mstore\n        /* \"contracts/Staking/StakingFinal.sol\":10758:10772  InterestAmount */\n      0x08\n        /* \"contracts/Staking/StakingFinal.sol\":10758:10776  InterestAmount[to] */\n      0x20\n      mstore\n      0x40\n      swap1\n      keccak256\n      sload\n      swap1\n        /* \"contracts/Staking/StakingFinal.sol\":10528:11147  function viewRewards(address to) public view returns (uint256 reward) {... */\n      jump\t// out\n        /* \"contracts/Staking/StakingFinal.sol\":10608:11141  if (... */\n    tag_351:\n      sub(shl(0xa0, 0x01), 0x01)\n        /* \"contracts/Staking/StakingFinal.sol\":10846:10857  Details[to] */\n      dup3\n      and\n        /* \"contracts/Staking/StakingFinal.sol\":10808:10824  uint256 Stakdays */\n      0x00\n        /* \"contracts/Staking/StakingFinal.sol\":10846:10857  Details[to] */\n      swap1\n      dup2\n      mstore\n        /* \"contracts/Staking/StakingFinal.sol\":10846:10853  Details */\n      0x07\n        /* \"contracts/Staking/StakingFinal.sol\":10846:10857  Details[to] */\n      0x20\n      mstore\n      0x40\n      dup2\n      keccak256\n        /* \"contracts/Staking/StakingFinal.sol\":10846:10867  Details[to].stakeTime */\n      0x01\n      add\n      sload\n        /* \"contracts/Staking/StakingFinal.sol\":10872:10884  24 * 60 * 60 */\n      0x015180\n      swap1\n        /* \"contracts/Staking/StakingFinal.sol\":10828:10867  block.timestamp - Details[to].stakeTime */\n      tag_353\n      swap1\n        /* \"contracts/Staking/StakingFinal.sol\":10828:10843  block.timestamp */\n      timestamp\n        /* \"contracts/Staking/StakingFinal.sol\":10828:10867  block.timestamp - Details[to].stakeTime */\n      tag_123\n      jump\t// in\n    tag_353:\n        /* \"contracts/Staking/StakingFinal.sol\":10827:10885  (block.timestamp - Details[to].stakeTime) / (24 * 60 * 60) */\n      tag_354\n      swap2\n      swap1\n      tag_125\n      jump\t// in\n    tag_354:\n      sub(shl(0xa0, 0x01), 0x01)\n        /* \"contracts/Staking/StakingFinal.sol\":10968:10979  Details[to] */\n      dup5\n      and\n        /* \"contracts/Staking/StakingFinal.sol\":10899:10927  uint256 InterestAmountperday */\n      0x00\n        /* \"contracts/Staking/StakingFinal.sol\":10968:10979  Details[to] */\n      swap1\n      dup2\n      mstore\n        /* \"contracts/Staking/StakingFinal.sol\":10968:10975  Details */\n      0x07\n        /* \"contracts/Staking/StakingFinal.sol\":10968:10979  Details[to] */\n      0x20\n      mstore\n      0x40\n      dup2\n      keccak256\n        /* \"contracts/Staking/StakingFinal.sol\":10968:10990  Details[to].StakeMonth */\n      0x02\n      add\n      sload\n        /* \"contracts/Staking/StakingFinal.sol\":10808:10885  uint256 Stakdays = (block.timestamp - Details[to].stakeTime) / (24 * 60 * 60) */\n      swap2\n      swap3\n      pop\n        /* \"contracts/Staking/StakingFinal.sol\":10899:10927  uint256 InterestAmountperday */\n      swap1\n        /* \"contracts/Staking/StakingFinal.sol\":10968:10995  Details[to].StakeMonth * 30 */\n      tag_355\n      swap1\n        /* \"contracts/Staking/StakingFinal.sol\":10993:10995  30 */\n      0x1e\n        /* \"contracts/Staking/StakingFinal.sol\":10968:10995  Details[to].StakeMonth * 30 */\n      tag_113\n      jump\t// in\n    tag_355:\n      sub(shl(0xa0, 0x01), 0x01)\n        /* \"contracts/Staking/StakingFinal.sol\":10930:10948  InterestAmount[to] */\n      dup6\n      and\n      0x00\n      swap1\n      dup2\n      mstore\n        /* \"contracts/Staking/StakingFinal.sol\":10930:10944  InterestAmount */\n      0x08\n        /* \"contracts/Staking/StakingFinal.sol\":10930:10948  InterestAmount[to] */\n      0x20\n      mstore\n      0x40\n      swap1\n      keccak256\n      sload\n        /* \"contracts/Staking/StakingFinal.sol\":10930:10996  InterestAmount[to] /... */\n      tag_356\n      swap2\n      swap1\n      tag_125\n      jump\t// in\n    tag_356:\n      sub(shl(0xa0, 0x01), 0x01)\n        /* \"contracts/Staking/StakingFinal.sol\":11082:11098  RewardAmount[to] */\n      dup6\n      and\n        /* \"contracts/Staking/StakingFinal.sol\":11010:11027  uint256 EarnToken */\n      0x00\n        /* \"contracts/Staking/StakingFinal.sol\":11082:11098  RewardAmount[to] */\n      swap1\n      dup2\n      mstore\n        /* \"contracts/Staking/StakingFinal.sol\":11082:11094  RewardAmount */\n      0x0c\n        /* \"contracts/Staking/StakingFinal.sol\":11082:11098  RewardAmount[to] */\n      0x20\n      mstore\n      0x40\n      dup2\n      keccak256\n      sload\n        /* \"contracts/Staking/StakingFinal.sol\":10899:10996  uint256 InterestAmountperday = InterestAmount[to] /... */\n      swap2\n      swap3\n      pop\n        /* \"contracts/Staking/StakingFinal.sol\":11010:11027  uint256 EarnToken */\n      swap1\n        /* \"contracts/Staking/StakingFinal.sol\":11031:11062  InterestAmountperday * Stakdays */\n      tag_357\n        /* \"contracts/Staking/StakingFinal.sol\":11054:11062  Stakdays */\n      dup5\n        /* \"contracts/Staking/StakingFinal.sol\":10899:10996  uint256 InterestAmountperday = InterestAmount[to] /... */\n      dup5\n        /* \"contracts/Staking/StakingFinal.sol\":11031:11062  InterestAmountperday * Stakdays */\n      tag_113\n      jump\t// in\n    tag_357:\n        /* \"contracts/Staking/StakingFinal.sol\":11030:11098  (InterestAmountperday * Stakdays) -... */\n      tag_358\n      swap2\n      swap1\n      tag_123\n      jump\t// in\n    tag_358:\n        /* \"contracts/Staking/StakingFinal.sol\":11010:11098  uint256 EarnToken = (InterestAmountperday * Stakdays) -... */\n      swap6\n        /* \"contracts/Staking/StakingFinal.sol\":10528:11147  function viewRewards(address to) public view returns (uint256 reward) {... */\n      swap5\n      pop\n      pop\n      pop\n      pop\n      pop\n      jump\t// out\n        /* \"@openzeppelin/contracts/access/Ownable.sol\":2081:2279  function transferOwnership(address newOwner) public virtual onlyOwner {... */\n    tag_110:\n        /* \"@openzeppelin/contracts/access/Ownable.sol\":1094:1107  _checkOwner() */\n      tag_360\n        /* \"@openzeppelin/contracts/access/Ownable.sol\":1094:1105  _checkOwner */\n      tag_214\n        /* \"@openzeppelin/contracts/access/Ownable.sol\":1094:1107  _checkOwner() */\n      jump\t// in\n    tag_360:\n      sub(shl(0xa0, 0x01), 0x01)\n        /* \"@openzeppelin/contracts/access/Ownable.sol\":2169:2191  newOwner != address(0) */\n      dup2\n      and\n        /* \"@openzeppelin/contracts/access/Ownable.sol\":2161:2234  require(newOwner != address(0), \"Ownable: new owner is the zero address\") */\n      tag_362\n      jumpi\n      mload(0x40)\n      shl(0xe5, 0x461bcd)\n      dup2\n      mstore\n        /* \"#utility.yul\":6792:6794   */\n      0x20\n        /* \"@openzeppelin/contracts/access/Ownable.sol\":2161:2234  require(newOwner != address(0), \"Ownable: new owner is the zero address\") */\n      0x04\n      dup3\n      add\n        /* \"#utility.yul\":6774:6795   */\n      mstore\n        /* \"#utility.yul\":6831:6833   */\n      0x26\n        /* \"#utility.yul\":6811:6829   */\n      0x24\n      dup3\n      add\n        /* \"#utility.yul\":6804:6834   */\n      mstore\n        /* \"#utility.yul\":6870:6904   */\n      0x4f776e61626c653a206e6577206f776e657220697320746865207a65726f2061\n        /* \"#utility.yul\":6850:6868   */\n      0x44\n      dup3\n      add\n        /* \"#utility.yul\":6843:6905   */\n      mstore\n      shl(0xd0, 0x646472657373)\n        /* \"#utility.yul\":6921:6939   */\n      0x64\n      dup3\n      add\n        /* \"#utility.yul\":6914:6950   */\n      mstore\n        /* \"#utility.yul\":6967:6986   */\n      0x84\n      add\n        /* \"@openzeppelin/contracts/access/Ownable.sol\":2161:2234  require(newOwner != address(0), \"Ownable: new owner is the zero address\") */\n      tag_120\n        /* \"#utility.yul\":6590:6992   */\n      jump\n        /* \"@openzeppelin/contracts/access/Ownable.sol\":2161:2234  require(newOwner != address(0), \"Ownable: new owner is the zero address\") */\n    tag_362:\n        /* \"@openzeppelin/contracts/access/Ownable.sol\":2244:2272  _transferOwnership(newOwner) */\n      tag_341\n        /* \"@openzeppelin/contracts/access/Ownable.sol\":2263:2271  newOwner */\n      dup2\n        /* \"@openzeppelin/contracts/access/Ownable.sol\":2244:2262  _transferOwnership */\n      tag_222\n        /* \"@openzeppelin/contracts/access/Ownable.sol\":2244:2272  _transferOwnership(newOwner) */\n      jump\t// in\n        /* \"@openzeppelin/contracts/token/ERC20/utils/SafeERC20.sol\":974:1215  function safeTransferFrom(... */\n    tag_182:\n        /* \"@openzeppelin/contracts/token/ERC20/utils/SafeERC20.sol\":1139:1207  abi.encodeWithSelector(token.transferFrom.selector, from, to, value) */\n      0x40\n      dup1\n      mload\n      sub(shl(0xa0, 0x01), 0x01)\n        /* \"#utility.yul\":7255:7270   */\n      dup6\n      dup2\n      and\n        /* \"@openzeppelin/contracts/token/ERC20/utils/SafeERC20.sol\":1139:1207  abi.encodeWithSelector(token.transferFrom.selector, from, to, value) */\n      0x24\n      dup4\n      add\n        /* \"#utility.yul\":7237:7271   */\n      mstore\n        /* \"#utility.yul\":7307:7322   */\n      dup5\n      and\n        /* \"#utility.yul\":7287:7305   */\n      0x44\n      dup3\n      add\n        /* \"#utility.yul\":7280:7323   */\n      mstore\n        /* \"#utility.yul\":7339:7357   */\n      0x64\n      dup1\n      dup3\n      add\n        /* \"#utility.yul\":7332:7366   */\n      dup5\n      swap1\n      mstore\n        /* \"@openzeppelin/contracts/token/ERC20/utils/SafeERC20.sol\":1139:1207  abi.encodeWithSelector(token.transferFrom.selector, from, to, value) */\n      dup3\n      mload\n      dup1\n      dup4\n      sub\n      swap1\n      swap2\n      add\n      dup2\n      mstore\n        /* \"#utility.yul\":7172:7190   */\n      0x84\n      swap1\n      swap2\n      add\n        /* \"@openzeppelin/contracts/token/ERC20/utils/SafeERC20.sol\":1139:1207  abi.encodeWithSelector(token.transferFrom.selector, from, to, value) */\n      swap1\n      swap2\n      mstore\n      0x20\n      dup2\n      add\n      dup1\n      mload\n      sub(shl(0xe0, 0x01), 0x01)\n      and\n      shl(0xe0, 0x23b872dd)\n      or\n      swap1\n      mstore\n        /* \"@openzeppelin/contracts/token/ERC20/utils/SafeERC20.sol\":1112:1208  _callOptionalReturn(token, abi.encodeWithSelector(token.transferFrom.selector, from, to, value)) */\n      tag_367\n      swap1\n        /* \"@openzeppelin/contracts/token/ERC20/utils/SafeERC20.sol\":1132:1137  token */\n      dup6\n      swap1\n        /* \"@openzeppelin/contracts/token/ERC20/utils/SafeERC20.sol\":1112:1131  _callOptionalReturn */\n      tag_370\n        /* \"@openzeppelin/contracts/token/ERC20/utils/SafeERC20.sol\":1112:1208  _callOptionalReturn(token, abi.encodeWithSelector(token.transferFrom.selector, from, to, value)) */\n      jump\t// in\n    tag_367:\n        /* \"@openzeppelin/contracts/token/ERC20/utils/SafeERC20.sol\":974:1215  function safeTransferFrom(... */\n      pop\n      pop\n      pop\n      pop\n      jump\t// out\n        /* \"@openzeppelin/contracts/access/Ownable.sol\":1359:1489  function _checkOwner() internal view virtual {... */\n    tag_214:\n        /* \"@openzeppelin/contracts/access/Ownable.sol\":1247:1254  address */\n      0x00\n        /* \"@openzeppelin/contracts/access/Ownable.sol\":1273:1279  _owner */\n      sload\n      sub(shl(0xa0, 0x01), 0x01)\n      and\n        /* \"@openzeppelin/contracts/utils/Context.sol\":719:729  msg.sender */\n      caller\n        /* \"@openzeppelin/contracts/access/Ownable.sol\":1422:1445  owner() == _msgSender() */\n      eq\n        /* \"@openzeppelin/contracts/access/Ownable.sol\":1414:1482  require(owner() == _msgSender(), \"Ownable: caller is not the owner\") */\n      tag_221\n      jumpi\n      mload(0x40)\n      shl(0xe5, 0x461bcd)\n      dup2\n      mstore\n        /* \"#utility.yul\":7579:7581   */\n      0x20\n        /* \"@openzeppelin/contracts/access/Ownable.sol\":1414:1482  require(owner() == _msgSender(), \"Ownable: caller is not the owner\") */\n      0x04\n      dup3\n      add\n        /* \"#utility.yul\":7561:7582   */\n      dup2\n      swap1\n      mstore\n        /* \"#utility.yul\":7598:7616   */\n      0x24\n      dup3\n      add\n        /* \"#utility.yul\":7591:7621   */\n      mstore\n        /* \"#utility.yul\":7657:7691   */\n      0x4f776e61626c653a2063616c6c6572206973206e6f7420746865206f776e6572\n        /* \"#utility.yul\":7637:7655   */\n      0x44\n      dup3\n      add\n        /* \"#utility.yul\":7630:7692   */\n      mstore\n        /* \"#utility.yul\":7709:7727   */\n      0x64\n      add\n        /* \"@openzeppelin/contracts/access/Ownable.sol\":1414:1482  require(owner() == _msgSender(), \"Ownable: caller is not the owner\") */\n      tag_120\n        /* \"#utility.yul\":7377:7733   */\n      jump\n        /* \"@openzeppelin/contracts/access/Ownable.sol\":2433:2620  function _transferOwnership(address newOwner) internal virtual {... */\n    tag_222:\n        /* \"@openzeppelin/contracts/access/Ownable.sol\":2506:2522  address oldOwner */\n      0x00\n        /* \"@openzeppelin/contracts/access/Ownable.sol\":2525:2531  _owner */\n      dup1\n      sload\n      sub(shl(0xa0, 0x01), 0x01)\n        /* \"@openzeppelin/contracts/access/Ownable.sol\":2541:2558  _owner = newOwner */\n      dup4\n      dup2\n      and\n      not(sub(shl(0xa0, 0x01), 0x01))\n      dup4\n      and\n      dup2\n      or\n      dup5\n      sstore\n        /* \"@openzeppelin/contracts/access/Ownable.sol\":2573:2613  OwnershipTransferred(oldOwner, newOwner) */\n      mload(0x40)\n        /* \"@openzeppelin/contracts/access/Ownable.sol\":2525:2531  _owner */\n      swap2\n      swap1\n      swap3\n      and\n      swap3\n      dup4\n      swap2\n        /* \"@openzeppelin/contracts/access/Ownable.sol\":2573:2613  OwnershipTransferred(oldOwner, newOwner) */\n      0x8be0079c531659141344cd1fd0a4f28419497f9722a3daafe3b4186f6b6457e0\n      swap2\n        /* \"@openzeppelin/contracts/access/Ownable.sol\":2506:2522  address oldOwner */\n      swap1\n        /* \"@openzeppelin/contracts/access/Ownable.sol\":2573:2613  OwnershipTransferred(oldOwner, newOwner) */\n      log3\n        /* \"@openzeppelin/contracts/access/Ownable.sol\":2496:2620  {... */\n      pop\n        /* \"@openzeppelin/contracts/access/Ownable.sol\":2433:2620  function _transferOwnership(address newOwner) internal virtual {... */\n      pop\n      jump\t// out\n        /* \"@openzeppelin/contracts/token/ERC20/utils/SafeERC20.sol\":3747:4453  function _callOptionalReturn(IERC20 token, bytes memory data) private {... */\n    tag_370:\n        /* \"@openzeppelin/contracts/token/ERC20/utils/SafeERC20.sol\":4166:4189  bytes memory returndata */\n      0x00\n        /* \"@openzeppelin/contracts/token/ERC20/utils/SafeERC20.sol\":4192:4261  address(token).functionCall(data, \"SafeERC20: low-level call failed\") */\n      tag_380\n        /* \"@openzeppelin/contracts/token/ERC20/utils/SafeERC20.sol\":4220:4224  data */\n      dup3\n        /* \"@openzeppelin/contracts/token/ERC20/utils/SafeERC20.sol\":4192:4261  address(token).functionCall(data, \"SafeERC20: low-level call failed\") */\n      mload(0x40)\n      dup1\n      0x40\n      add\n      0x40\n      mstore\n      dup1\n      0x20\n      dup2\n      mstore\n      0x20\n      add\n      0x5361666545524332303a206c6f772d6c6576656c2063616c6c206661696c6564\n      dup2\n      mstore\n      pop\n        /* \"@openzeppelin/contracts/token/ERC20/utils/SafeERC20.sol\":4200:4205  token */\n      dup6\n      sub(shl(0xa0, 0x01), 0x01)\n        /* \"@openzeppelin/contracts/token/ERC20/utils/SafeERC20.sol\":4192:4219  address(token).functionCall */\n      and\n      tag_381\n      swap1\n        /* \"@openzeppelin/contracts/token/ERC20/utils/SafeERC20.sol\":4192:4261  address(token).functionCall(data, \"SafeERC20: low-level call failed\") */\n      swap3\n      swap2\n      swap1\n      0xffffffff\n      and\n      jump\t// in\n    tag_380:\n        /* \"@openzeppelin/contracts/token/ERC20/utils/SafeERC20.sol\":4275:4292  returndata.length */\n      dup1\n      mload\n        /* \"@openzeppelin/contracts/token/ERC20/utils/SafeERC20.sol\":4166:4261  bytes memory returndata = address(token).functionCall(data, \"SafeERC20: low-level call failed\") */\n      swap1\n      swap2\n      pop\n        /* \"@openzeppelin/contracts/token/ERC20/utils/SafeERC20.sol\":4275:4296  returndata.length > 0 */\n      iszero\n        /* \"@openzeppelin/contracts/token/ERC20/utils/SafeERC20.sol\":4271:4447  if (returndata.length > 0) {... */\n      tag_384\n      jumpi\n        /* \"@openzeppelin/contracts/token/ERC20/utils/SafeERC20.sol\":4370:4380  returndata */\n      dup1\n        /* \"@openzeppelin/contracts/token/ERC20/utils/SafeERC20.sol\":4359:4389  abi.decode(returndata, (bool)) */\n      dup1\n      0x20\n      add\n      swap1\n      mload\n      dup2\n      add\n      swap1\n      tag_383\n      swap2\n      swap1\n      tag_139\n      jump\t// in\n    tag_383:\n        /* \"@openzeppelin/contracts/token/ERC20/utils/SafeERC20.sol\":4351:4436  require(abi.decode(returndata, (bool)), \"SafeERC20: ERC20 operation did not succeed\") */\n      tag_384\n      jumpi\n      mload(0x40)\n      shl(0xe5, 0x461bcd)\n      dup2\n      mstore\n        /* \"#utility.yul\":7940:7942   */\n      0x20\n        /* \"@openzeppelin/contracts/token/ERC20/utils/SafeERC20.sol\":4351:4436  require(abi.decode(returndata, (bool)), \"SafeERC20: ERC20 operation did not succeed\") */\n      0x04\n      dup3\n      add\n        /* \"#utility.yul\":7922:7943   */\n      mstore\n        /* \"#utility.yul\":7979:7981   */\n      0x2a\n        /* \"#utility.yul\":7959:7977   */\n      0x24\n      dup3\n      add\n        /* \"#utility.yul\":7952:7982   */\n      mstore\n        /* \"#utility.yul\":8018:8052   */\n      0x5361666545524332303a204552433230206f7065726174696f6e20646964206e\n        /* \"#utility.yul\":7998:8016   */\n      0x44\n      dup3\n      add\n        /* \"#utility.yul\":7991:8053   */\n      mstore\n      shl(0xb2, 0x1bdd081cdd58d8d95959)\n        /* \"#utility.yul\":8069:8087   */\n      0x64\n      dup3\n      add\n        /* \"#utility.yul\":8062:8102   */\n      mstore\n        /* \"#utility.yul\":8119:8138   */\n      0x84\n      add\n        /* \"@openzeppelin/contracts/token/ERC20/utils/SafeERC20.sol\":4351:4436  require(abi.decode(returndata, (bool)), \"SafeERC20: ERC20 operation did not succeed\") */\n      tag_120\n        /* \"#utility.yul\":7738:8144   */\n      jump\n        /* \"@openzeppelin/contracts/token/ERC20/utils/SafeERC20.sol\":4351:4436  require(abi.decode(returndata, (bool)), \"SafeERC20: ERC20 operation did not succeed\") */\n    tag_384:\n        /* \"@openzeppelin/contracts/token/ERC20/utils/SafeERC20.sol\":3817:4453  {... */\n      pop\n        /* \"@openzeppelin/contracts/token/ERC20/utils/SafeERC20.sol\":3747:4453  function _callOptionalReturn(IERC20 token, bytes memory data) private {... */\n      pop\n      pop\n      jump\t// out\n        /* \"@openzeppelin/contracts/utils/Address.sol\":3873:4096  function functionCall(... */\n    tag_381:\n        /* \"@openzeppelin/contracts/utils/Address.sol\":4006:4018  bytes memory */\n      0x60\n        /* \"@openzeppelin/contracts/utils/Address.sol\":4037:4089  functionCallWithValue(target, data, 0, errorMessage) */\n      tag_389\n        /* \"@openzeppelin/contracts/utils/Address.sol\":4059:4065  target */\n      dup5\n        /* \"@openzeppelin/contracts/utils/Address.sol\":4067:4071  data */\n      dup5\n        /* \"@openzeppelin/contracts/utils/Address.sol\":4073:4074  0 */\n      0x00\n        /* \"@openzeppelin/contracts/utils/Address.sol\":4076:4088  errorMessage */\n      dup6\n        /* \"@openzeppelin/contracts/utils/Address.sol\":4037:4058  functionCallWithValue */\n      tag_390\n        /* \"@openzeppelin/contracts/utils/Address.sol\":4037:4089  functionCallWithValue(target, data, 0, errorMessage) */\n      jump\t// in\n    tag_389:\n        /* \"@openzeppelin/contracts/utils/Address.sol\":4030:4089  return functionCallWithValue(target, data, 0, errorMessage) */\n      swap5\n        /* \"@openzeppelin/contracts/utils/Address.sol\":3873:4096  function functionCall(... */\n      swap4\n      pop\n      pop\n      pop\n      pop\n      jump\t// out\n        /* \"@openzeppelin/contracts/utils/Address.sol\":4960:5406  function functionCallWithValue(... */\n    tag_390:\n        /* \"@openzeppelin/contracts/utils/Address.sol\":5125:5137  bytes memory */\n      0x60\n        /* \"@openzeppelin/contracts/utils/Address.sol\":5182:5187  value */\n      dup3\n        /* \"@openzeppelin/contracts/utils/Address.sol\":5157:5178  address(this).balance */\n      selfbalance\n        /* \"@openzeppelin/contracts/utils/Address.sol\":5157:5187  address(this).balance >= value */\n      lt\n      iszero\n        /* \"@openzeppelin/contracts/utils/Address.sol\":5149:5230  require(address(this).balance >= value, \"Address: insufficient balance for call\") */\n      tag_392\n      jumpi\n      mload(0x40)\n      shl(0xe5, 0x461bcd)\n      dup2\n      mstore\n        /* \"#utility.yul\":8351:8353   */\n      0x20\n        /* \"@openzeppelin/contracts/utils/Address.sol\":5149:5230  require(address(this).balance >= value, \"Address: insufficient balance for call\") */\n      0x04\n      dup3\n      add\n        /* \"#utility.yul\":8333:8354   */\n      mstore\n        /* \"#utility.yul\":8390:8392   */\n      0x26\n        /* \"#utility.yul\":8370:8388   */\n      0x24\n      dup3\n      add\n        /* \"#utility.yul\":8363:8393   */\n      mstore\n        /* \"#utility.yul\":8429:8463   */\n      0x416464726573733a20696e73756666696369656e742062616c616e636520666f\n        /* \"#utility.yul\":8409:8427   */\n      0x44\n      dup3\n      add\n        /* \"#utility.yul\":8402:8464   */\n      mstore\n      shl(0xd2, 0x1c8818d85b1b)\n        /* \"#utility.yul\":8480:8498   */\n      0x64\n      dup3\n      add\n        /* \"#utility.yul\":8473:8509   */\n      mstore\n        /* \"#utility.yul\":8526:8545   */\n      0x84\n      add\n        /* \"@openzeppelin/contracts/utils/Address.sol\":5149:5230  require(address(this).balance >= value, \"Address: insufficient balance for call\") */\n      tag_120\n        /* \"#utility.yul\":8149:8551   */\n      jump\n        /* \"@openzeppelin/contracts/utils/Address.sol\":5149:5230  require(address(this).balance >= value, \"Address: insufficient balance for call\") */\n    tag_392:\n        /* \"@openzeppelin/contracts/utils/Address.sol\":5241:5253  bool success */\n      0x00\n        /* \"@openzeppelin/contracts/utils/Address.sol\":5255:5278  bytes memory returndata */\n      dup1\n        /* \"@openzeppelin/contracts/utils/Address.sol\":5282:5288  target */\n      dup7\n      sub(shl(0xa0, 0x01), 0x01)\n        /* \"@openzeppelin/contracts/utils/Address.sol\":5282:5293  target.call */\n      and\n        /* \"@openzeppelin/contracts/utils/Address.sol\":5301:5306  value */\n      dup6\n        /* \"@openzeppelin/contracts/utils/Address.sol\":5308:5312  data */\n      dup8\n        /* \"@openzeppelin/contracts/utils/Address.sol\":5282:5313  target.call{value: value}(data) */\n      mload(0x40)\n      tag_395\n      swap2\n      swap1\n      tag_396\n      jump\t// in\n    tag_395:\n      0x00\n      mload(0x40)\n      dup1\n      dup4\n      sub\n      dup2\n      dup6\n      dup8\n      gas\n      call\n      swap3\n      pop\n      pop\n      pop\n      returndatasize\n      dup1\n      0x00\n      dup2\n      eq\n      tag_399\n      jumpi\n      mload(0x40)\n      swap2\n      pop\n      and(add(returndatasize, 0x3f), not(0x1f))\n      dup3\n      add\n      0x40\n      mstore\n      returndatasize\n      dup3\n      mstore\n      returndatasize\n      0x00\n      0x20\n      dup5\n      add\n      returndatacopy\n      jump(tag_398)\n    tag_399:\n      0x60\n      swap2\n      pop\n    tag_398:\n      pop\n        /* \"@openzeppelin/contracts/utils/Address.sol\":5240:5313  (bool success, bytes memory returndata) = target.call{value: value}(data) */\n      swap2\n      pop\n      swap2\n      pop\n        /* \"@openzeppelin/contracts/utils/Address.sol\":5330:5399  verifyCallResultFromTarget(target, success, returndata, errorMessage) */\n      tag_400\n        /* \"@openzeppelin/contracts/utils/Address.sol\":5357:5363  target */\n      dup8\n        /* \"@openzeppelin/contracts/utils/Address.sol\":5365:5372  success */\n      dup4\n        /* \"@openzeppelin/contracts/utils/Address.sol\":5374:5384  returndata */\n      dup4\n        /* \"@openzeppelin/contracts/utils/Address.sol\":5386:5398  errorMessage */\n      dup8\n        /* \"@openzeppelin/contracts/utils/Address.sol\":5330:5356  verifyCallResultFromTarget */\n      tag_401\n        /* \"@openzeppelin/contracts/utils/Address.sol\":5330:5399  verifyCallResultFromTarget(target, success, returndata, errorMessage) */\n      jump\t// in\n    tag_400:\n        /* \"@openzeppelin/contracts/utils/Address.sol\":5323:5399  return verifyCallResultFromTarget(target, success, returndata, errorMessage) */\n      swap8\n        /* \"@openzeppelin/contracts/utils/Address.sol\":4960:5406  function functionCallWithValue(... */\n      swap7\n      pop\n      pop\n      pop\n      pop\n      pop\n      pop\n      pop\n      jump\t// out\n        /* \"@openzeppelin/contracts/utils/Address.sol\":7466:8094  function verifyCallResultFromTarget(... */\n    tag_401:\n        /* \"@openzeppelin/contracts/utils/Address.sol\":7646:7658  bytes memory */\n      0x60\n        /* \"@openzeppelin/contracts/utils/Address.sol\":7674:7681  success */\n      dup4\n        /* \"@openzeppelin/contracts/utils/Address.sol\":7670:8088  if (success) {... */\n      iszero\n      tag_403\n      jumpi\n        /* \"@openzeppelin/contracts/utils/Address.sol\":7701:7711  returndata */\n      dup3\n        /* \"@openzeppelin/contracts/utils/Address.sol\":7701:7718  returndata.length */\n      mload\n        /* \"@openzeppelin/contracts/utils/Address.sol\":7722:7723  0 */\n      0x00\n        /* \"@openzeppelin/contracts/utils/Address.sol\":7701:7723  returndata.length == 0 */\n      sub\n        /* \"@openzeppelin/contracts/utils/Address.sol\":7697:7983  if (returndata.length == 0) {... */\n      tag_407\n      jumpi\n      sub(shl(0xa0, 0x01), 0x01)\n        /* \"@openzeppelin/contracts/utils/Address.sol\":1465:1484  account.code.length */\n      dup6\n      and\n      extcodesize\n        /* \"@openzeppelin/contracts/utils/Address.sol\":7908:7968  require(isContract(target), \"Address: call to non-contract\") */\n      tag_407\n      jumpi\n      mload(0x40)\n      shl(0xe5, 0x461bcd)\n      dup2\n      mstore\n        /* \"#utility.yul\":9300:9302   */\n      0x20\n        /* \"@openzeppelin/contracts/utils/Address.sol\":7908:7968  require(isContract(target), \"Address: call to non-contract\") */\n      0x04\n      dup3\n      add\n        /* \"#utility.yul\":9282:9303   */\n      mstore\n        /* \"#utility.yul\":9339:9341   */\n      0x1d\n        /* \"#utility.yul\":9319:9337   */\n      0x24\n      dup3\n      add\n        /* \"#utility.yul\":9312:9342   */\n      mstore\n        /* \"#utility.yul\":9378:9409   */\n      0x416464726573733a2063616c6c20746f206e6f6e2d636f6e7472616374000000\n        /* \"#utility.yul\":9358:9376   */\n      0x44\n      dup3\n      add\n        /* \"#utility.yul\":9351:9410   */\n      mstore\n        /* \"#utility.yul\":9427:9445   */\n      0x64\n      add\n        /* \"@openzeppelin/contracts/utils/Address.sol\":7908:7968  require(isContract(target), \"Address: call to non-contract\") */\n      tag_120\n        /* \"#utility.yul\":9098:9451   */\n      jump\n        /* \"@openzeppelin/contracts/utils/Address.sol\":7908:7968  require(isContract(target), \"Address: call to non-contract\") */\n    tag_407:\n      pop\n        /* \"@openzeppelin/contracts/utils/Address.sol\":8003:8013  returndata */\n      dup2\n        /* \"@openzeppelin/contracts/utils/Address.sol\":7996:8013  return returndata */\n      jump(tag_389)\n        /* \"@openzeppelin/contracts/utils/Address.sol\":7670:8088  if (success) {... */\n    tag_403:\n        /* \"@openzeppelin/contracts/utils/Address.sol\":8044:8077  _revert(returndata, errorMessage) */\n      tag_389\n        /* \"@openzeppelin/contracts/utils/Address.sol\":8052:8062  returndata */\n      dup4\n        /* \"@openzeppelin/contracts/utils/Address.sol\":8064:8076  errorMessage */\n      dup4\n        /* \"@openzeppelin/contracts/utils/Address.sol\":8775:8792  returndata.length */\n      dup2\n      mload\n        /* \"@openzeppelin/contracts/utils/Address.sol\":8775:8796  returndata.length > 0 */\n      iszero\n        /* \"@openzeppelin/contracts/utils/Address.sol\":8771:9150  if (returndata.length > 0) {... */\n      tag_415\n      jumpi\n        /* \"@openzeppelin/contracts/utils/Address.sol\":9003:9013  returndata */\n      dup2\n        /* \"@openzeppelin/contracts/utils/Address.sol\":8997:9014  mload(returndata) */\n      mload\n        /* \"@openzeppelin/contracts/utils/Address.sol\":9059:9074  returndata_size */\n      dup1\n        /* \"@openzeppelin/contracts/utils/Address.sol\":9046:9056  returndata */\n      dup4\n        /* \"@openzeppelin/contracts/utils/Address.sol\":9042:9044  32 */\n      0x20\n        /* \"@openzeppelin/contracts/utils/Address.sol\":9038:9057  add(32, returndata) */\n      add\n        /* \"@openzeppelin/contracts/utils/Address.sol\":9031:9075  revert(add(32, returndata), returndata_size) */\n      revert\n        /* \"@openzeppelin/contracts/utils/Address.sol\":8771:9150  if (returndata.length > 0) {... */\n    tag_415:\n        /* \"@openzeppelin/contracts/utils/Address.sol\":9126:9138  errorMessage */\n      dup1\n        /* \"@openzeppelin/contracts/utils/Address.sol\":9119:9139  revert(errorMessage) */\n      mload(0x40)\n      shl(0xe5, 0x461bcd)\n      dup2\n      mstore\n      0x04\n      add\n      tag_120\n      swap2\n      swap1\n      tag_418\n      jump\t// in\n        /* \"#utility.yul\":14:187   */\n    tag_419:\n        /* \"#utility.yul\":82:102   */\n      dup1\n      calldataload\n      sub(shl(0xa0, 0x01), 0x01)\n        /* \"#utility.yul\":131:162   */\n      dup2\n      and\n        /* \"#utility.yul\":121:163   */\n      dup2\n      eq\n        /* \"#utility.yul\":111:181   */\n      tag_142\n      jumpi\n        /* \"#utility.yul\":177:178   */\n      0x00\n        /* \"#utility.yul\":174:175   */\n      dup1\n        /* \"#utility.yul\":167:179   */\n      revert\n        /* \"#utility.yul\":192:378   */\n    tag_30:\n        /* \"#utility.yul\":251:257   */\n      0x00\n        /* \"#utility.yul\":304:306   */\n      0x20\n        /* \"#utility.yul\":292:301   */\n      dup3\n        /* \"#utility.yul\":283:290   */\n      dup5\n        /* \"#utility.yul\":279:302   */\n      sub\n        /* \"#utility.yul\":275:307   */\n      slt\n        /* \"#utility.yul\":272:324   */\n      iszero\n      tag_426\n      jumpi\n        /* \"#utility.yul\":320:321   */\n      0x00\n        /* \"#utility.yul\":317:318   */\n      dup1\n        /* \"#utility.yul\":310:322   */\n      revert\n        /* \"#utility.yul\":272:324   */\n    tag_426:\n        /* \"#utility.yul\":343:372   */\n      tag_427\n        /* \"#utility.yul\":362:371   */\n      dup3\n        /* \"#utility.yul\":343:372   */\n      tag_419\n      jump\t// in\n    tag_427:\n        /* \"#utility.yul\":333:372   */\n      swap4\n        /* \"#utility.yul\":192:378   */\n      swap3\n      pop\n      pop\n      pop\n      jump\t// out\n        /* \"#utility.yul\":565:956   */\n    tag_43:\n        /* \"#utility.yul\":651:657   */\n      0x00\n        /* \"#utility.yul\":659:665   */\n      dup1\n        /* \"#utility.yul\":667:673   */\n      0x00\n        /* \"#utility.yul\":675:681   */\n      dup1\n        /* \"#utility.yul\":728:731   */\n      0x80\n        /* \"#utility.yul\":716:725   */\n      dup6\n        /* \"#utility.yul\":707:714   */\n      dup8\n        /* \"#utility.yul\":703:726   */\n      sub\n        /* \"#utility.yul\":699:732   */\n      slt\n        /* \"#utility.yul\":696:749   */\n      iszero\n      tag_430\n      jumpi\n        /* \"#utility.yul\":745:746   */\n      0x00\n        /* \"#utility.yul\":742:743   */\n      dup1\n        /* \"#utility.yul\":735:747   */\n      revert\n        /* \"#utility.yul\":696:749   */\n    tag_430:\n        /* \"#utility.yul\":768:797   */\n      tag_431\n        /* \"#utility.yul\":787:796   */\n      dup6\n        /* \"#utility.yul\":768:797   */\n      tag_419\n      jump\t// in\n    tag_431:\n        /* \"#utility.yul\":758:797   */\n      swap7\n        /* \"#utility.yul\":844:846   */\n      0x20\n        /* \"#utility.yul\":829:847   */\n      dup7\n      add\n        /* \"#utility.yul\":816:848   */\n      calldataload\n      swap7\n      pop\n        /* \"#utility.yul\":895:897   */\n      0x40\n        /* \"#utility.yul\":880:898   */\n      dup7\n      add\n        /* \"#utility.yul\":867:899   */\n      calldataload\n      swap6\n        /* \"#utility.yul\":946:948   */\n      0x60\n        /* \"#utility.yul\":931:949   */\n      add\n        /* \"#utility.yul\":918:950   */\n      calldataload\n      swap5\n      pop\n        /* \"#utility.yul\":565:956   */\n      swap3\n      pop\n      pop\n      pop\n      jump\t// out\n        /* \"#utility.yul\":961:1141   */\n    tag_47:\n        /* \"#utility.yul\":1020:1026   */\n      0x00\n        /* \"#utility.yul\":1073:1075   */\n      0x20\n        /* \"#utility.yul\":1061:1070   */\n      dup3\n        /* \"#utility.yul\":1052:1059   */\n      dup5\n        /* \"#utility.yul\":1048:1071   */\n      sub\n        /* \"#utility.yul\":1044:1076   */\n      slt\n        /* \"#utility.yul\":1041:1093   */\n      iszero\n      tag_433\n      jumpi\n        /* \"#utility.yul\":1089:1090   */\n      0x00\n        /* \"#utility.yul\":1086:1087   */\n      dup1\n        /* \"#utility.yul\":1079:1091   */\n      revert\n        /* \"#utility.yul\":1041:1093   */\n    tag_433:\n      pop\n        /* \"#utility.yul\":1112:1135   */\n      calldataload\n      swap2\n        /* \"#utility.yul\":961:1141   */\n      swap1\n      pop\n      jump\t// out\n        /* \"#utility.yul\":1146:1462   */\n    tag_52:\n        /* \"#utility.yul\":1223:1229   */\n      0x00\n        /* \"#utility.yul\":1231:1237   */\n      dup1\n        /* \"#utility.yul\":1239:1245   */\n      0x00\n        /* \"#utility.yul\":1292:1294   */\n      0x60\n        /* \"#utility.yul\":1280:1289   */\n      dup5\n        /* \"#utility.yul\":1271:1278   */\n      dup7\n        /* \"#utility.yul\":1267:1290   */\n      sub\n        /* \"#utility.yul\":1263:1295   */\n      slt\n        /* \"#utility.yul\":1260:1312   */\n      iszero\n      tag_435\n      jumpi\n        /* \"#utility.yul\":1308:1309   */\n      0x00\n        /* \"#utility.yul\":1305:1306   */\n      dup1\n        /* \"#utility.yul\":1298:1310   */\n      revert\n        /* \"#utility.yul\":1260:1312   */\n    tag_435:\n      pop\n      pop\n        /* \"#utility.yul\":1331:1354   */\n      dup2\n      calldataload\n      swap4\n        /* \"#utility.yul\":1401:1403   */\n      0x20\n        /* \"#utility.yul\":1386:1404   */\n      dup4\n      add\n        /* \"#utility.yul\":1373:1405   */\n      calldataload\n      swap4\n      pop\n        /* \"#utility.yul\":1452:1454   */\n      0x40\n        /* \"#utility.yul\":1437:1455   */\n      swap1\n      swap3\n      add\n        /* \"#utility.yul\":1424:1456   */\n      calldataload\n      swap2\n        /* \"#utility.yul\":1146:1462   */\n      swap1\n      pop\n      jump\t// out\n        /* \"#utility.yul\":1467:1715   */\n    tag_60:\n        /* \"#utility.yul\":1535:1541   */\n      0x00\n        /* \"#utility.yul\":1543:1549   */\n      dup1\n        /* \"#utility.yul\":1596:1598   */\n      0x40\n        /* \"#utility.yul\":1584:1593   */\n      dup4\n        /* \"#utility.yul\":1575:1582   */\n      dup6\n        /* \"#utility.yul\":1571:1594   */\n      sub\n        /* \"#utility.yul\":1567:1599   */\n      slt\n        /* \"#utility.yul\":1564:1616   */\n      iszero\n      tag_437\n      jumpi\n        /* \"#utility.yul\":1612:1613   */\n      0x00\n        /* \"#utility.yul\":1609:1610   */\n      dup1\n        /* \"#utility.yul\":1602:1614   */\n      revert\n        /* \"#utility.yul\":1564:1616   */\n    tag_437:\n      pop\n      pop\n        /* \"#utility.yul\":1635:1658   */\n      dup1\n      calldataload\n      swap3\n        /* \"#utility.yul\":1705:1707   */\n      0x20\n        /* \"#utility.yul\":1690:1708   */\n      swap1\n      swap2\n      add\n        /* \"#utility.yul\":1677:1709   */\n      calldataload\n      swap2\n      pop\n        /* \"#utility.yul\":1467:1715   */\n      jump\t// out\n        /* \"#utility.yul\":2659:2786   */\n    tag_420:\n        /* \"#utility.yul\":2720:2730   */\n      0x4e487b71\n        /* \"#utility.yul\":2715:2718   */\n      0xe0\n        /* \"#utility.yul\":2711:2731   */\n      shl\n        /* \"#utility.yul\":2708:2709   */\n      0x00\n        /* \"#utility.yul\":2701:2732   */\n      mstore\n        /* \"#utility.yul\":2751:2755   */\n      0x11\n        /* \"#utility.yul\":2748:2749   */\n      0x04\n        /* \"#utility.yul\":2741:2756   */\n      mstore\n        /* \"#utility.yul\":2775:2779   */\n      0x24\n        /* \"#utility.yul\":2772:2773   */\n      0x00\n        /* \"#utility.yul\":2765:2780   */\n      revert\n        /* \"#utility.yul\":2791:2959   */\n    tag_113:\n        /* \"#utility.yul\":2831:2838   */\n      0x00\n        /* \"#utility.yul\":2897:2898   */\n      dup2\n        /* \"#utility.yul\":2893:2894   */\n      0x00\n        /* \"#utility.yul\":2889:2895   */\n      not\n        /* \"#utility.yul\":2885:2899   */\n      div\n        /* \"#utility.yul\":2882:2883   */\n      dup4\n        /* \"#utility.yul\":2879:2900   */\n      gt\n        /* \"#utility.yul\":2874:2875   */\n      dup3\n        /* \"#utility.yul\":2867:2876   */\n      iszero\n        /* \"#utility.yul\":2860:2877   */\n      iszero\n        /* \"#utility.yul\":2856:2901   */\n      and\n        /* \"#utility.yul\":2853:2924   */\n      iszero\n      tag_444\n      jumpi\n        /* \"#utility.yul\":2904:2922   */\n      tag_444\n      tag_420\n      jump\t// in\n    tag_444:\n      pop\n        /* \"#utility.yul\":2944:2953   */\n      mul\n      swap1\n        /* \"#utility.yul\":2791:2959   */\n      jump\t// out\n        /* \"#utility.yul\":2964:3092   */\n    tag_118:\n        /* \"#utility.yul\":3004:3007   */\n      0x00\n        /* \"#utility.yul\":3035:3036   */\n      dup3\n        /* \"#utility.yul\":3031:3037   */\n      not\n        /* \"#utility.yul\":3028:3029   */\n      dup3\n        /* \"#utility.yul\":3025:3038   */\n      gt\n        /* \"#utility.yul\":3022:3061   */\n      iszero\n      tag_447\n      jumpi\n        /* \"#utility.yul\":3041:3059   */\n      tag_447\n      tag_420\n      jump\t// in\n    tag_447:\n      pop\n        /* \"#utility.yul\":3077:3086   */\n      add\n      swap1\n        /* \"#utility.yul\":2964:3092   */\n      jump\t// out\n        /* \"#utility.yul\":3523:3648   */\n    tag_123:\n        /* \"#utility.yul\":3563:3567   */\n      0x00\n        /* \"#utility.yul\":3591:3592   */\n      dup3\n        /* \"#utility.yul\":3588:3589   */\n      dup3\n        /* \"#utility.yul\":3585:3593   */\n      lt\n        /* \"#utility.yul\":3582:3616   */\n      iszero\n      tag_451\n      jumpi\n        /* \"#utility.yul\":3596:3614   */\n      tag_451\n      tag_420\n      jump\t// in\n    tag_451:\n      pop\n        /* \"#utility.yul\":3633:3642   */\n      sub\n      swap1\n        /* \"#utility.yul\":3523:3648   */\n      jump\t// out\n        /* \"#utility.yul\":3653:3870   */\n    tag_125:\n        /* \"#utility.yul\":3693:3694   */\n      0x00\n        /* \"#utility.yul\":3719:3720   */\n      dup3\n        /* \"#utility.yul\":3709:3841   */\n      tag_453\n      jumpi\n        /* \"#utility.yul\":3763:3773   */\n      0x4e487b71\n        /* \"#utility.yul\":3758:3761   */\n      0xe0\n        /* \"#utility.yul\":3754:3774   */\n      shl\n        /* \"#utility.yul\":3751:3752   */\n      0x00\n        /* \"#utility.yul\":3744:3775   */\n      mstore\n        /* \"#utility.yul\":3798:3802   */\n      0x12\n        /* \"#utility.yul\":3795:3796   */\n      0x04\n        /* \"#utility.yul\":3788:3803   */\n      mstore\n        /* \"#utility.yul\":3826:3830   */\n      0x24\n        /* \"#utility.yul\":3823:3824   */\n      0x00\n        /* \"#utility.yul\":3816:3831   */\n      revert\n        /* \"#utility.yul\":3709:3841   */\n    tag_453:\n      pop\n        /* \"#utility.yul\":3855:3864   */\n      div\n      swap1\n        /* \"#utility.yul\":3653:3870   */\n      jump\t// out\n        /* \"#utility.yul\":4277:4551   */\n    tag_135:\n      sub(shl(0xa0, 0x01), 0x01)\n        /* \"#utility.yul\":4469:4501   */\n      swap3\n      swap1\n      swap3\n      and\n        /* \"#utility.yul\":4451:4502   */\n      dup3\n      mstore\n        /* \"#utility.yul\":4533:4535   */\n      0x20\n        /* \"#utility.yul\":4518:4536   */\n      dup3\n      add\n        /* \"#utility.yul\":4511:4545   */\n      mstore\n        /* \"#utility.yul\":4439:4441   */\n      0x40\n        /* \"#utility.yul\":4424:4442   */\n      add\n      swap1\n        /* \"#utility.yul\":4277:4551   */\n      jump\t// out\n        /* \"#utility.yul\":4556:4833   */\n    tag_139:\n        /* \"#utility.yul\":4623:4629   */\n      0x00\n        /* \"#utility.yul\":4676:4678   */\n      0x20\n        /* \"#utility.yul\":4664:4673   */\n      dup3\n        /* \"#utility.yul\":4655:4662   */\n      dup5\n        /* \"#utility.yul\":4651:4674   */\n      sub\n        /* \"#utility.yul\":4647:4679   */\n      slt\n        /* \"#utility.yul\":4644:4696   */\n      iszero\n      tag_457\n      jumpi\n        /* \"#utility.yul\":4692:4693   */\n      0x00\n        /* \"#utility.yul\":4689:4690   */\n      dup1\n        /* \"#utility.yul\":4682:4694   */\n      revert\n        /* \"#utility.yul\":4644:4696   */\n    tag_457:\n        /* \"#utility.yul\":4724:4733   */\n      dup2\n        /* \"#utility.yul\":4718:4734   */\n      mload\n        /* \"#utility.yul\":4777:4782   */\n      dup1\n        /* \"#utility.yul\":4770:4783   */\n      iszero\n        /* \"#utility.yul\":4763:4784   */\n      iszero\n        /* \"#utility.yul\":4756:4761   */\n      dup2\n        /* \"#utility.yul\":4753:4785   */\n      eq\n        /* \"#utility.yul\":4743:4803   */\n      tag_427\n      jumpi\n        /* \"#utility.yul\":4799:4800   */\n      0x00\n        /* \"#utility.yul\":4796:4797   */\n      dup1\n        /* \"#utility.yul\":4789:4801   */\n      revert\n        /* \"#utility.yul\":8556:8814   */\n    tag_421:\n        /* \"#utility.yul\":8628:8629   */\n      0x00\n        /* \"#utility.yul\":8638:8751   */\n    tag_470:\n        /* \"#utility.yul\":8652:8658   */\n      dup4\n        /* \"#utility.yul\":8649:8650   */\n      dup2\n        /* \"#utility.yul\":8646:8659   */\n      lt\n        /* \"#utility.yul\":8638:8751   */\n      iszero\n      tag_472\n      jumpi\n        /* \"#utility.yul\":8728:8739   */\n      dup2\n      dup2\n      add\n        /* \"#utility.yul\":8722:8740   */\n      mload\n        /* \"#utility.yul\":8709:8720   */\n      dup4\n      dup3\n      add\n        /* \"#utility.yul\":8702:8741   */\n      mstore\n        /* \"#utility.yul\":8674:8676   */\n      0x20\n        /* \"#utility.yul\":8667:8677   */\n      add\n        /* \"#utility.yul\":8638:8751   */\n      jump(tag_470)\n    tag_472:\n        /* \"#utility.yul\":8769:8775   */\n      dup4\n        /* \"#utility.yul\":8766:8767   */\n      dup2\n        /* \"#utility.yul\":8763:8776   */\n      gt\n        /* \"#utility.yul\":8760:8808   */\n      iszero\n      tag_367\n      jumpi\n      pop\n      pop\n        /* \"#utility.yul\":8804:8805   */\n      0x00\n        /* \"#utility.yul\":8786:8802   */\n      swap2\n      add\n        /* \"#utility.yul\":8779:8806   */\n      mstore\n        /* \"#utility.yul\":8556:8814   */\n      jump\t// out\n        /* \"#utility.yul\":8819:9093   */\n    tag_396:\n        /* \"#utility.yul\":8948:8951   */\n      0x00\n        /* \"#utility.yul\":8986:8992   */\n      dup3\n        /* \"#utility.yul\":8980:8993   */\n      mload\n        /* \"#utility.yul\":9002:9055   */\n      tag_475\n        /* \"#utility.yul\":9048:9054   */\n      dup2\n        /* \"#utility.yul\":9043:9046   */\n      dup5\n        /* \"#utility.yul\":9036:9040   */\n      0x20\n        /* \"#utility.yul\":9028:9034   */\n      dup8\n        /* \"#utility.yul\":9024:9041   */\n      add\n        /* \"#utility.yul\":9002:9055   */\n      tag_421\n      jump\t// in\n    tag_475:\n        /* \"#utility.yul\":9071:9087   */\n      swap2\n      swap1\n      swap2\n      add\n      swap3\n        /* \"#utility.yul\":8819:9093   */\n      swap2\n      pop\n      pop\n      jump\t// out\n        /* \"#utility.yul\":9456:9839   */\n    tag_418:\n        /* \"#utility.yul\":9605:9607   */\n      0x20\n        /* \"#utility.yul\":9594:9603   */\n      dup2\n        /* \"#utility.yul\":9587:9608   */\n      mstore\n        /* \"#utility.yul\":9568:9572   */\n      0x00\n        /* \"#utility.yul\":9637:9643   */\n      dup3\n        /* \"#utility.yul\":9631:9644   */\n      mload\n        /* \"#utility.yul\":9680:9686   */\n      dup1\n        /* \"#utility.yul\":9675:9677   */\n      0x20\n        /* \"#utility.yul\":9664:9673   */\n      dup5\n        /* \"#utility.yul\":9660:9678   */\n      add\n        /* \"#utility.yul\":9653:9687   */\n      mstore\n        /* \"#utility.yul\":9696:9762   */\n      tag_478\n        /* \"#utility.yul\":9755:9761   */\n      dup2\n        /* \"#utility.yul\":9750:9752   */\n      0x40\n        /* \"#utility.yul\":9739:9748   */\n      dup6\n        /* \"#utility.yul\":9735:9753   */\n      add\n        /* \"#utility.yul\":9730:9732   */\n      0x20\n        /* \"#utility.yul\":9722:9728   */\n      dup8\n        /* \"#utility.yul\":9718:9733   */\n      add\n        /* \"#utility.yul\":9696:9762   */\n      tag_421\n      jump\t// in\n    tag_478:\n        /* \"#utility.yul\":9823:9825   */\n      0x1f\n        /* \"#utility.yul\":9802:9817   */\n      add\n      not(0x1f)\n        /* \"#utility.yul\":9798:9827   */\n      and\n        /* \"#utility.yul\":9783:9828   */\n      swap2\n      swap1\n      swap2\n      add\n        /* \"#utility.yul\":9830:9832   */\n      0x40\n        /* \"#utility.yul\":9779:9833   */\n      add\n      swap3\n        /* \"#utility.yul\":9456:9839   */\n      swap2\n      pop\n      pop\n      jump\t// out\n    stop\n    data_0ada41edf8798b24cf95700ae04a399923583f100f59bcda0e41724a1960ba8b 6cde3cea4b3a3fb2488b2808bae7556f4a405e50f65e1794383bc026131b13c3\n    data_0c4bcf2d962d2967567161e2c07ee166d0a7fbac816b34859338e95768fe2ad4 c575c31fea594a6eb97c8e9d3f9caee4c16218c6ef37e923234c0fe9014a61e7\n    data_f5918152dffd4c0c585ca2588ca9b8191bd01a7fbff2737f8e5b9361e056218e 92e85d02570a8092d09a6e3a57665bc3815a2699a4074001bf1ccabf660f5a36\n\n    auxdata: 0xa26469706673582212204176c5387f98ce649db477dd21dc0ac4370bb46c7b3b50d75533537794a4832364736f6c634300080d0033\n}\n",
				"bytecode": {
					"linkReferences": {},
					"object": "60806040523480156200001157600080fd5b50604051620022c9380380620022c98339810160408190526200003491620000be565b6200003f336200006e565b600180546001600160a01b039092166001600160a01b03199283161790556002805490911633179055620000f0565b600080546001600160a01b038381166001600160a01b0319831681178455604051919092169283917f8be0079c531659141344cd1fd0a4f28419497f9722a3daafe3b4186f6b6457e09190a35050565b600060208284031215620000d157600080fd5b81516001600160a01b0381168114620000e957600080fd5b9392505050565b6121c980620001006000396000f3fe608060405234801561001057600080fd5b50600436106101425760003560e01c8063715018a6116100b8578063a6021ace1161007c578063a6021ace146102e5578063c0cd40ee146102f8578063d6f80a251461030b578063da40ef801461031e578063e88cc2be14610331578063f2fde38b1461039b57600080fd5b8063715018a614610265578063777b4cd81461026d578063897b3a681461028d5780638da5cb5b146102ad5780639131a05a146102d257600080fd5b8063217366651161010a57806321736665146101d557806322b72666146101e8578063264b4af6146102085780632e886f1f146102215780633ae732591461023c578063662b12c91461024557600080fd5b80630178be5f14610147578063032ad8fb1461015c5780630deef63a1461018257806310c404da146101a2578063186cb65b146101b5575b600080fd5b61015a610155366004611f35565b6103ae565b005b61016f61016a366004611f35565b61063b565b6040519081526020015b60405180910390f35b61016f610190366004611f35565b600b6020526000908152604090205481565b61015a6101b0366004611f57565b6106c7565b61016f6101c3366004611f90565b60096020526000908152604090205481565b61015a6101e3366004611fa9565b610e6e565b61016f6101f6366004611f35565b600d6020526000908152604090205481565b61015a610216366004611fd5565b600591909155600655565b60055460065460408051928352602083019190915201610179565b61016f60035481565b61016f610253366004611f35565b60086020526000908152604090205481565b61015a610eb5565b61016f61027b366004611f35565b600c6020526000908152604090205481565b61016f61029b366004611f90565b600a6020526000908152604090205481565b6000546001600160a01b03165b6040516001600160a01b039091168152602001610179565b61015a6102e0366004611f35565b610ec9565b6001546102ba906001600160a01b031681565b61015a610306366004611f90565b611938565b61015a610319366004611fa9565b61197f565b61016f61032c366004611f35565b6119fc565b61037161033f366004611f35565b600760205260009081526040902080546001820154600283015460038401546004909401549293919290919060ff1685565b6040805195865260208601949094529284019190915260608301521515608082015260a001610179565b61015a6103a9366004611f35565b611b37565b6001600160a01b038116600090815260076020526040902060018101546002909101544291906103df90601e61200d565b6103ea90601861200d565b6103f590603c61200d565b61040090603c61200d565b61040a919061202c565b116104825760405162461bcd60e51b815260206004820152603960248201527f596f7572205374616b652054696d6520436f6d706c6574652c20506c6561736560448201527f2043616c6c2057697468647261772046756e6374696f6e20210000000000000060648201526084015b60405180910390fd5b6001600160a01b03811660009081526007602052604081206001015462015180906104ad9042612044565b6104b7919061205b565b6001600160a01b038316600090815260076020526040812060020154919250906104e290601e61200d565b6001600160a01b038416600090815260086020526040902054610505919061205b565b90506000610513838361200d565b90506000811161056f5760405162461bcd60e51b815260206004820152602160248201527f526577617264206d7573742062652067726561746572207468616e207a65726f6044820152601760f91b6064820152608401610479565b6001600160a01b0384166000908152600c60205260409020546105929082612044565b6001600160a01b0385166000908152600c6020526040812080549091906105ba90849061202c565b909155505060015460405163a9059cbb60e01b81526001600160a01b039091169063a9059cbb906105f1908790859060040161207d565b6020604051808303816000875af1158015610610573d6000803e3d6000fd5b505050506040513d601f19601f820116820180604052508101906106349190612096565b5050505050565b6001600160a01b03811660009081526007602052604081206003015460640361066657506000919050565b6001600160a01b03821660009081526007602052604090206003015460649061068f9082612044565b6001600160a01b0384166000908152600860205260409020546106b2919061200d565b6106bc919061205b565b92915050565b919050565b6002546001600160a01b03166000908152600b60205260409020546107205760405162461bcd60e51b815260206004820152600f60248201526e506c6561736520576169742021212160881b6044820152606401610479565b600061073084633b9aca0061200d565b6001600160a01b03861660009081526007602052604090206004015490915060ff1615610ac9576001600160a01b0385166000908152600760205260409020600181015460029091015442919061078890601e61200d565b61079390601861200d565b61079e90603c61200d565b6107a990603c61200d565b6107b3919061202c565b116108005760405162461bcd60e51b815260206004820152601a60248201527f596f75722054696d6520506572696f6420436f6d706c6574652e0000000000006044820152606401610479565b6001600160a01b03851660009081526007602052604090206002015483146108635760405162461bcd60e51b815260206004820152601660248201527508adce8cae440a4d2ced0e840a6e8c2d6ca9adedce8d60531b6044820152606401610479565b6001600160a01b03851660009081526007602052604090206003015482146108cd5760405162461bcd60e51b815260206004820152601a60248201527f456e746572205269676874204561726e50657273656e746167650000000000006044820152606401610479565b6001600160a01b0385166000908152600760205260409020546108f190829061202c565b6001600160a01b0386166000908152600760205260409020908155600080516020612174833981519152546002909101540361099e576001600052600a6020527fbbc70db1b6c7afd11e79c0fb0051300458f1a3acb8ee9789d9b6b26c61ad9bc7546103e890610961908361200d565b61096b919061205b565b6001600160a01b0386166000908152600860205260408120805490919061099390849061202c565b90915550610aac9050565b600080516020612134833981519152546001600160a01b03861660009081526007602052604090206002015403610a09576002600052600a6020527fbff4442b8ed600beeb8e26b1279a0f0d14c6edfaec26d968ee13c86f7d4c2ba8546103e890610961908361200d565b600080516020612154833981519152546001600160a01b03861660009081526007602052604090206002015403610aac576003600052600a6020527fa856840544dc26124927add067d799967eac11be13e14d82cc281ea46fa39759546103e890610a74908361200d565b610a7e919061205b565b6001600160a01b03861660009081526008602052604081208054909190610aa690849061202c565b90915550505b600154610ac4906001600160a01b0316863084611bad565b610e21565b6001600052600960205260008051602061217483398151915254831480610b085750600260005260096020526000805160206121348339815191525483145b80610b2b5750600360005260096020526000805160206121548339815191525483145b610b705760405162461bcd60e51b815260206004820152601660248201527508adce8cae440a4d2ced0e840a6e8c2d6ca9adedce8d60531b6044820152606401610479565b8160641480610b7f575081604b145b80610b8a5750816032145b610bd65760405162461bcd60e51b815260206004820152601a60248201527f456e746572205269676874204561726e50657273656e746167650000000000006044820152606401610479565b60006103e860055483610be9919061200d565b610bf3919061205b565b90506040518060a001604052808284610c0c9190612044565b81524260208083019190915260408083018890526060808401889052600160809485018190526001600160a01b038c16600090815260078552839020865181559386015190840155908401516002830181905590840151600383015592909101516004909101805460ff1916911515919091179055600080516020612174833981519152549003610d03576001600052600a6020527fbbc70db1b6c7afd11e79c0fb0051300458f1a3acb8ee9789d9b6b26c61ad9bc7546103e890610cd18385612044565b610cdb919061200d565b610ce5919061205b565b6001600160a01b038716600090815260086020526040902055610e07565b600080516020612134833981519152546001600160a01b03871660009081526007602052604090206002015403610d6e576002600052600a6020527fbff4442b8ed600beeb8e26b1279a0f0d14c6edfaec26d968ee13c86f7d4c2ba8546103e890610cd18385612044565b600080516020612154833981519152546001600160a01b03871660009081526007602052604090206002015403610e07576003600052600a6020527fa856840544dc26124927add067d799967eac11be13e14d82cc281ea46fa39759546103e890610dd98385612044565b610de3919061200d565b610ded919061205b565b6001600160a01b0387166000908152600860205260409020555b600154610e1f906001600160a01b0316873085611bad565b505b6001600160a01b0385166000908152600b602052604081208054839290610e4990849061202c565b925050819055508060036000828254610e62919061202c565b90915550505050505050565b610e76611c0d565b60096020526000805160206121748339815191529290925560008051602061213483398151915255600360005260008051602061215483398151915255565b610ebd611c0d565b610ec76000611c67565b565b6001600160a01b03811660009081526007602052604090206004015460ff16610f295760405162461bcd60e51b81526020600482015260126024820152714669727374205374616b6520546f6b656e7360701b6044820152606401610479565b6001600160a01b0381166000908152600760205260408120600181015460029091015482914291610f5b90601e61200d565b610f6690601861200d565b610f7190603c61200d565b610f7c90603c61200d565b610f86919061202c565b1015611346576001600160a01b038316600090815260076020526040902060030154606403611077576001546001600160a01b038481166000908152600c6020908152604080832054600890925290912054919092169163a9059cbb918691610fee91612044565b6001600160a01b038716600090815260076020526040902054611011919061202c565b6040518363ffffffff1660e01b815260040161102e92919061207d565b6020604051808303816000875af115801561104d573d6000803e3d6000fd5b505050506040513d601f19601f820116820180604052508101906110719190612096565b506118a9565b6001600160a01b038316600090815260076020526040902060030154604b03611206576001600160a01b0383166000908152600c60209081526040808320546008909252909120546064916110cb91612044565b6110d690604b61200d565b6110e0919061205b565b6001546001600160a01b03858116600090815260076020526040902054929450169063a9059cbb90859061111590869061202c565b6040518363ffffffff1660e01b815260040161113292919061207d565b6020604051808303816000875af1158015611151573d6000803e3d6000fd5b505050506040513d601f19601f820116820180604052508101906111759190612096565b506001600160a01b0383166000908152600c60209081526040808320546008909252909120546064916111a791612044565b6111b290601961200d565b6111bc919061205b565b6001600160a01b038085166000908152600d602052604090819020839055600154905163a9059cbb60e01b8152929350169063a9059cbb9061102e9061dead90859060040161207d565b6001600160a01b038316600090815260076020526040902060030154603203611341576001600160a01b0383166000908152600c602090815260408083205460089092529091205460649161125a91612044565b61126590603261200d565b61126f919061205b565b6001546001600160a01b03858116600090815260076020526040902054929450169063a9059cbb9085906112a490869061202c565b6040518363ffffffff1660e01b81526004016112c192919061207d565b6020604051808303816000875af11580156112e0573d6000803e3d6000fd5b505050506040513d601f19601f820116820180604052508101906113049190612096565b506001600160a01b0383166000908152600c602090815260408083205460089092529091205460649161133691612044565b6111b290603261200d565b6118a9565b6001600160a01b03831660009081526007602052604081206001015481908190819062015180906113779042612044565b611381919061205b565b6001600160a01b0388166000908152600760205260409020600201549091506113ab90601e61200d565b6001600160a01b0388166000908152600860205260409020546113ce919061205b565b6001600160a01b0388166000908152600760205260409020600301549094506064036114e9576113fe818561200d565b6001600160a01b0388166000908152600c60205260409020549096506114249087612044565b6001600160a01b038816600090815260076020526040902054611447919061202c565b92506103e86006548461145a919061200d565b611464919061205b565b6001549092506001600160a01b031663a9059cbb886114838587612044565b6040518363ffffffff1660e01b81526004016114a092919061207d565b6020604051808303816000875af11580156114bf573d6000803e3d6000fd5b505050506040513d601f19601f820116820180604052508101906114e39190612096565b506118a4565b6001600160a01b038716600090815260076020526040902060030154604b036116a4576001600160a01b0387166000908152600c6020526040902054606490611532838761200d565b61153c9190612044565b61154790604b61200d565b611551919061205b565b6001600160a01b03881660009081526007602052604090205490965061157890879061202c565b92506103e86006548461158b919061200d565b611595919061205b565b6001549092506001600160a01b031663a9059cbb886115b48587612044565b6040518363ffffffff1660e01b81526004016115d192919061207d565b6020604051808303816000875af11580156115f0573d6000803e3d6000fd5b505050506040513d601f19601f820116820180604052508101906116149190612096565b506001600160a01b0387166000908152600c602052604090205460649061163b838761200d565b6116459190612044565b61165090601961200d565b61165a919061205b565b6001600160a01b038089166000908152600d602052604090819020839055600154905163a9059cbb60e01b8152929750169063a9059cbb906114a09061dead90899060040161207d565b6001600160a01b0387166000908152600760205260409020600301546032036118a4576001600160a01b0387166000908152600c60205260409020546064906116ed838761200d565b6116f79190612044565b61170290603261200d565b61170c919061205b565b6001600160a01b03881660009081526007602052604090205490965061173390879061202c565b92506103e860065484611746919061200d565b611750919061205b565b6001549092506001600160a01b031663a9059cbb8861176f8587612044565b6040518363ffffffff1660e01b815260040161178c92919061207d565b6020604051808303816000875af11580156117ab573d6000803e3d6000fd5b505050506040513d601f19601f820116820180604052508101906117cf9190612096565b506001600160a01b0387166000908152600c60205260409020546064906117f6838761200d565b6118009190612044565b61180b90603261200d565b611815919061205b565b6001600160a01b038089166000908152600d602052604090819020839055600154905163a9059cbb60e01b8152929750169063a9059cbb9061185f9061dead90899060040161207d565b6020604051808303816000875af115801561187e573d6000803e3d6000fd5b505050506040513d601f19601f820116820180604052508101906118a29190612096565b505b505050505b6001600160a01b038316600090815260076020908152604080832060048101805460ff19169055600c83528184208490556008835281842084905554600b90925282208054919290916118fd908490612044565b90915550506001600160a01b038316600090815260076020526040812054600380549192909161192e908490612044565b9091555050505050565b611940611c0d565b336000908152600b60205260408120805483929061195f90849061202c565b909155505060015461197c906001600160a01b0316333084611bad565b50565b611987611c0d565b600a6020527fbbc70db1b6c7afd11e79c0fb0051300458f1a3acb8ee9789d9b6b26c61ad9bc7929092557fbff4442b8ed600beeb8e26b1279a0f0d14c6edfaec26d968ee13c86f7d4c2ba85560036000527fa856840544dc26124927add067d799967eac11be13e14d82cc281ea46fa3975955565b6001600160a01b03811660009081526007602052604081206001810154600290910154429190611a2d90601e61200d565b611a3890601861200d565b611a4390603c61200d565b611a4e90603c61200d565b611a58919061202c565b1015611a7a57506001600160a01b031660009081526008602052604090205490565b6001600160a01b0382166000908152600760205260408120600101546201518090611aa59042612044565b611aaf919061205b565b6001600160a01b03841660009081526007602052604081206002015491925090611ada90601e61200d565b6001600160a01b038516600090815260086020526040902054611afd919061205b565b6001600160a01b0385166000908152600c602052604081205491925090611b24848461200d565b611b2e9190612044565b95945050505050565b611b3f611c0d565b6001600160a01b038116611ba45760405162461bcd60e51b815260206004820152602660248201527f4f776e61626c653a206e6577206f776e657220697320746865207a65726f206160448201526564647265737360d01b6064820152608401610479565b61197c81611c67565b604080516001600160a01b0385811660248301528416604482015260648082018490528251808303909101815260849091019091526020810180516001600160e01b03166323b872dd60e01b179052611c07908590611cb7565b50505050565b6000546001600160a01b03163314610ec75760405162461bcd60e51b815260206004820181905260248201527f4f776e61626c653a2063616c6c6572206973206e6f7420746865206f776e65726044820152606401610479565b600080546001600160a01b038381166001600160a01b0319831681178455604051919092169283917f8be0079c531659141344cd1fd0a4f28419497f9722a3daafe3b4186f6b6457e09190a35050565b6000611d0c826040518060400160405280602081526020017f5361666545524332303a206c6f772d6c6576656c2063616c6c206661696c6564815250856001600160a01b0316611d8e9092919063ffffffff16565b805190915015611d895780806020019051810190611d2a9190612096565b611d895760405162461bcd60e51b815260206004820152602a60248201527f5361666545524332303a204552433230206f7065726174696f6e20646964206e6044820152691bdd081cdd58d8d9595960b21b6064820152608401610479565b505050565b6060611d9d8484600085611da5565b949350505050565b606082471015611e065760405162461bcd60e51b815260206004820152602660248201527f416464726573733a20696e73756666696369656e742062616c616e636520666f6044820152651c8818d85b1b60d21b6064820152608401610479565b600080866001600160a01b03168587604051611e2291906120e4565b60006040518083038185875af1925050503d8060008114611e5f576040519150601f19603f3d011682016040523d82523d6000602084013e611e64565b606091505b5091509150611e7587838387611e80565b979650505050505050565b60608315611eef578251600003611ee8576001600160a01b0385163b611ee85760405162461bcd60e51b815260206004820152601d60248201527f416464726573733a2063616c6c20746f206e6f6e2d636f6e74726163740000006044820152606401610479565b5081611d9d565b611d9d8383815115611f045781518083602001fd5b8060405162461bcd60e51b81526004016104799190612100565b80356001600160a01b03811681146106c257600080fd5b600060208284031215611f4757600080fd5b611f5082611f1e565b9392505050565b60008060008060808587031215611f6d57600080fd5b611f7685611f1e565b966020860135965060408601359560600135945092505050565b600060208284031215611fa257600080fd5b5035919050565b600080600060608486031215611fbe57600080fd5b505081359360208301359350604090920135919050565b60008060408385031215611fe857600080fd5b50508035926020909101359150565b634e487b7160e01b600052601160045260246000fd5b600081600019048311821515161561202757612027611ff7565b500290565b6000821982111561203f5761203f611ff7565b500190565b60008282101561205657612056611ff7565b500390565b60008261207857634e487b7160e01b600052601260045260246000fd5b500490565b6001600160a01b03929092168252602082015260400190565b6000602082840312156120a857600080fd5b81518015158114611f5057600080fd5b60005b838110156120d35781810151838201526020016120bb565b83811115611c075750506000910152565b600082516120f68184602087016120b8565b9190910192915050565b602081526000825180602084015261211f8160408501602087016120b8565b601f01601f1916919091016040019291505056fe6cde3cea4b3a3fb2488b2808bae7556f4a405e50f65e1794383bc026131b13c3c575c31fea594a6eb97c8e9d3f9caee4c16218c6ef37e923234c0fe9014a61e792e85d02570a8092d09a6e3a57665bc3815a2699a4074001bf1ccabf660f5a36a26469706673582212204176c5387f98ce649db477dd21dc0ac4370bb46c7b3b50d75533537794a4832364736f6c634300080d0033",
					"opcodes": "PUSH1 0x80 PUSH1 0x40 MSTORE CALLVALUE DUP1 ISZERO PUSH3 0x11 JUMPI PUSH1 0x0 DUP1 REVERT JUMPDEST POP PUSH1 0x40 MLOAD PUSH3 0x22C9 CODESIZE SUB DUP1 PUSH3 0x22C9 DUP4 CODECOPY DUP2 ADD PUSH1 0x40 DUP2 SWAP1 MSTORE PUSH3 0x34 SWAP2 PUSH3 0xBE JUMP JUMPDEST PUSH3 0x3F CALLER PUSH3 0x6E JUMP JUMPDEST PUSH1 0x1 DUP1 SLOAD PUSH1 0x1 PUSH1 0x1 PUSH1 0xA0 SHL SUB SWAP1 SWAP3 AND PUSH1 0x1 PUSH1 0x1 PUSH1 0xA0 SHL SUB NOT SWAP3 DUP4 AND OR SWAP1 SSTORE PUSH1 0x2 DUP1 SLOAD SWAP1 SWAP2 AND CALLER OR SWAP1 SSTORE PUSH3 0xF0 JUMP JUMPDEST PUSH1 0x0 DUP1 SLOAD PUSH1 0x1 PUSH1 0x1 PUSH1 0xA0 SHL SUB DUP4 DUP2 AND PUSH1 0x1 PUSH1 0x1 PUSH1 0xA0 SHL SUB NOT DUP4 AND DUP2 OR DUP5 SSTORE PUSH1 0x40 MLOAD SWAP2 SWAP1 SWAP3 AND SWAP3 DUP4 SWAP2 PUSH32 0x8BE0079C531659141344CD1FD0A4F28419497F9722A3DAAFE3B4186F6B6457E0 SWAP2 SWAP1 LOG3 POP POP JUMP JUMPDEST PUSH1 0x0 PUSH1 0x20 DUP3 DUP5 SUB SLT ISZERO PUSH3 0xD1 JUMPI PUSH1 0x0 DUP1 REVERT JUMPDEST DUP2 MLOAD PUSH1 0x1 PUSH1 0x1 PUSH1 0xA0 SHL SUB DUP2 AND DUP2 EQ PUSH3 0xE9 JUMPI PUSH1 0x0 DUP1 REVERT JUMPDEST SWAP4 SWAP3 POP POP POP JUMP JUMPDEST PUSH2 0x21C9 DUP1 PUSH3 0x100 PUSH1 0x0 CODECOPY PUSH1 0x0 RETURN INVALID PUSH1 0x80 PUSH1 0x40 MSTORE CALLVALUE DUP1 ISZERO PUSH2 0x10 JUMPI PUSH1 0x0 DUP1 REVERT JUMPDEST POP PUSH1 0x4 CALLDATASIZE LT PUSH2 0x142 JUMPI PUSH1 0x0 CALLDATALOAD PUSH1 0xE0 SHR DUP1 PUSH4 0x715018A6 GT PUSH2 0xB8 JUMPI DUP1 PUSH4 0xA6021ACE GT PUSH2 0x7C JUMPI DUP1 PUSH4 0xA6021ACE EQ PUSH2 0x2E5 JUMPI DUP1 PUSH4 0xC0CD40EE EQ PUSH2 0x2F8 JUMPI DUP1 PUSH4 0xD6F80A25 EQ PUSH2 0x30B JUMPI DUP1 PUSH4 0xDA40EF80 EQ PUSH2 0x31E JUMPI DUP1 PUSH4 0xE88CC2BE EQ PUSH2 0x331 JUMPI DUP1 PUSH4 0xF2FDE38B EQ PUSH2 0x39B JUMPI PUSH1 0x0 DUP1 REVERT JUMPDEST DUP1 PUSH4 0x715018A6 EQ PUSH2 0x265 JUMPI DUP1 PUSH4 0x777B4CD8 EQ PUSH2 0x26D JUMPI DUP1 PUSH4 0x897B3A68 EQ PUSH2 0x28D JUMPI DUP1 PUSH4 0x8DA5CB5B EQ PUSH2 0x2AD JUMPI DUP1 PUSH4 0x9131A05A EQ PUSH2 0x2D2 JUMPI PUSH1 0x0 DUP1 REVERT JUMPDEST DUP1 PUSH4 0x21736665 GT PUSH2 0x10A JUMPI DUP1 PUSH4 0x21736665 EQ PUSH2 0x1D5 JUMPI DUP1 PUSH4 0x22B72666 EQ PUSH2 0x1E8 JUMPI DUP1 PUSH4 0x264B4AF6 EQ PUSH2 0x208 JUMPI DUP1 PUSH4 0x2E886F1F EQ PUSH2 0x221 JUMPI DUP1 PUSH4 0x3AE73259 EQ PUSH2 0x23C JUMPI DUP1 PUSH4 0x662B12C9 EQ PUSH2 0x245 JUMPI PUSH1 0x0 DUP1 REVERT JUMPDEST DUP1 PUSH4 0x178BE5F EQ PUSH2 0x147 JUMPI DUP1 PUSH4 0x32AD8FB EQ PUSH2 0x15C JUMPI DUP1 PUSH4 0xDEEF63A EQ PUSH2 0x182 JUMPI DUP1 PUSH4 0x10C404DA EQ PUSH2 0x1A2 JUMPI DUP1 PUSH4 0x186CB65B EQ PUSH2 0x1B5 JUMPI JUMPDEST PUSH1 0x0 DUP1 REVERT JUMPDEST PUSH2 0x15A PUSH2 0x155 CALLDATASIZE PUSH1 0x4 PUSH2 0x1F35 JUMP JUMPDEST PUSH2 0x3AE JUMP JUMPDEST STOP JUMPDEST PUSH2 0x16F PUSH2 0x16A CALLDATASIZE PUSH1 0x4 PUSH2 0x1F35 JUMP JUMPDEST PUSH2 0x63B JUMP JUMPDEST PUSH1 0x40 MLOAD SWAP1 DUP2 MSTORE PUSH1 0x20 ADD JUMPDEST PUSH1 0x40 MLOAD DUP1 SWAP2 SUB SWAP1 RETURN JUMPDEST PUSH2 0x16F PUSH2 0x190 CALLDATASIZE PUSH1 0x4 PUSH2 0x1F35 JUMP JUMPDEST PUSH1 0xB PUSH1 0x20 MSTORE PUSH1 0x0 SWAP1 DUP2 MSTORE PUSH1 0x40 SWAP1 KECCAK256 SLOAD DUP2 JUMP JUMPDEST PUSH2 0x15A PUSH2 0x1B0 CALLDATASIZE PUSH1 0x4 PUSH2 0x1F57 JUMP JUMPDEST PUSH2 0x6C7 JUMP JUMPDEST PUSH2 0x16F PUSH2 0x1C3 CALLDATASIZE PUSH1 0x4 PUSH2 0x1F90 JUMP JUMPDEST PUSH1 0x9 PUSH1 0x20 MSTORE PUSH1 0x0 SWAP1 DUP2 MSTORE PUSH1 0x40 SWAP1 KECCAK256 SLOAD DUP2 JUMP JUMPDEST PUSH2 0x15A PUSH2 0x1E3 CALLDATASIZE PUSH1 0x4 PUSH2 0x1FA9 JUMP JUMPDEST PUSH2 0xE6E JUMP JUMPDEST PUSH2 0x16F PUSH2 0x1F6 CALLDATASIZE PUSH1 0x4 PUSH2 0x1F35 JUMP JUMPDEST PUSH1 0xD PUSH1 0x20 MSTORE PUSH1 0x0 SWAP1 DUP2 MSTORE PUSH1 0x40 SWAP1 KECCAK256 SLOAD DUP2 JUMP JUMPDEST PUSH2 0x15A PUSH2 0x216 CALLDATASIZE PUSH1 0x4 PUSH2 0x1FD5 JUMP JUMPDEST PUSH1 0x5 SWAP2 SWAP1 SWAP2 SSTORE PUSH1 0x6 SSTORE JUMP JUMPDEST PUSH1 0x5 SLOAD PUSH1 0x6 SLOAD PUSH1 0x40 DUP1 MLOAD SWAP3 DUP4 MSTORE PUSH1 0x20 DUP4 ADD SWAP2 SWAP1 SWAP2 MSTORE ADD PUSH2 0x179 JUMP JUMPDEST PUSH2 0x16F PUSH1 0x3 SLOAD DUP2 JUMP JUMPDEST PUSH2 0x16F PUSH2 0x253 CALLDATASIZE PUSH1 0x4 PUSH2 0x1F35 JUMP JUMPDEST PUSH1 0x8 PUSH1 0x20 MSTORE PUSH1 0x0 SWAP1 DUP2 MSTORE PUSH1 0x40 SWAP1 KECCAK256 SLOAD DUP2 JUMP JUMPDEST PUSH2 0x15A PUSH2 0xEB5 JUMP JUMPDEST PUSH2 0x16F PUSH2 0x27B CALLDATASIZE PUSH1 0x4 PUSH2 0x1F35 JUMP JUMPDEST PUSH1 0xC PUSH1 0x20 MSTORE PUSH1 0x0 SWAP1 DUP2 MSTORE PUSH1 0x40 SWAP1 KECCAK256 SLOAD DUP2 JUMP JUMPDEST PUSH2 0x16F PUSH2 0x29B CALLDATASIZE PUSH1 0x4 PUSH2 0x1F90 JUMP JUMPDEST PUSH1 0xA PUSH1 0x20 MSTORE PUSH1 0x0 SWAP1 DUP2 MSTORE PUSH1 0x40 SWAP1 KECCAK256 SLOAD DUP2 JUMP JUMPDEST PUSH1 0x0 SLOAD PUSH1 0x1 PUSH1 0x1 PUSH1 0xA0 SHL SUB AND JUMPDEST PUSH1 0x40 MLOAD PUSH1 0x1 PUSH1 0x1 PUSH1 0xA0 SHL SUB SWAP1 SWAP2 AND DUP2 MSTORE PUSH1 0x20 ADD PUSH2 0x179 JUMP JUMPDEST PUSH2 0x15A PUSH2 0x2E0 CALLDATASIZE PUSH1 0x4 PUSH2 0x1F35 JUMP JUMPDEST PUSH2 0xEC9 JUMP JUMPDEST PUSH1 0x1 SLOAD PUSH2 0x2BA SWAP1 PUSH1 0x1 PUSH1 0x1 PUSH1 0xA0 SHL SUB AND DUP2 JUMP JUMPDEST PUSH2 0x15A PUSH2 0x306 CALLDATASIZE PUSH1 0x4 PUSH2 0x1F90 JUMP JUMPDEST PUSH2 0x1938 JUMP JUMPDEST PUSH2 0x15A PUSH2 0x319 CALLDATASIZE PUSH1 0x4 PUSH2 0x1FA9 JUMP JUMPDEST PUSH2 0x197F JUMP JUMPDEST PUSH2 0x16F PUSH2 0x32C CALLDATASIZE PUSH1 0x4 PUSH2 0x1F35 JUMP JUMPDEST PUSH2 0x19FC JUMP JUMPDEST PUSH2 0x371 PUSH2 0x33F CALLDATASIZE PUSH1 0x4 PUSH2 0x1F35 JUMP JUMPDEST PUSH1 0x7 PUSH1 0x20 MSTORE PUSH1 0x0 SWAP1 DUP2 MSTORE PUSH1 0x40 SWAP1 KECCAK256 DUP1 SLOAD PUSH1 0x1 DUP3 ADD SLOAD PUSH1 0x2 DUP4 ADD SLOAD PUSH1 0x3 DUP5 ADD SLOAD PUSH1 0x4 SWAP1 SWAP5 ADD SLOAD SWAP3 SWAP4 SWAP2 SWAP3 SWAP1 SWAP2 SWAP1 PUSH1 0xFF AND DUP6 JUMP JUMPDEST PUSH1 0x40 DUP1 MLOAD SWAP6 DUP7 MSTORE PUSH1 0x20 DUP7 ADD SWAP5 SWAP1 SWAP5 MSTORE SWAP3 DUP5 ADD SWAP2 SWAP1 SWAP2 MSTORE PUSH1 0x60 DUP4 ADD MSTORE ISZERO ISZERO PUSH1 0x80 DUP3 ADD MSTORE PUSH1 0xA0 ADD PUSH2 0x179 JUMP JUMPDEST PUSH2 0x15A PUSH2 0x3A9 CALLDATASIZE PUSH1 0x4 PUSH2 0x1F35 JUMP JUMPDEST PUSH2 0x1B37 JUMP JUMPDEST PUSH1 0x1 PUSH1 0x1 PUSH1 0xA0 SHL SUB DUP2 AND PUSH1 0x0 SWAP1 DUP2 MSTORE PUSH1 0x7 PUSH1 0x20 MSTORE PUSH1 0x40 SWAP1 KECCAK256 PUSH1 0x1 DUP2 ADD SLOAD PUSH1 0x2 SWAP1 SWAP2 ADD SLOAD TIMESTAMP SWAP2 SWAP1 PUSH2 0x3DF SWAP1 PUSH1 0x1E PUSH2 0x200D JUMP JUMPDEST PUSH2 0x3EA SWAP1 PUSH1 0x18 PUSH2 0x200D JUMP JUMPDEST PUSH2 0x3F5 SWAP1 PUSH1 0x3C PUSH2 0x200D JUMP JUMPDEST PUSH2 0x400 SWAP1 PUSH1 0x3C PUSH2 0x200D JUMP JUMPDEST PUSH2 0x40A SWAP2 SWAP1 PUSH2 0x202C JUMP JUMPDEST GT PUSH2 0x482 JUMPI PUSH1 0x40 MLOAD PUSH3 0x461BCD PUSH1 0xE5 SHL DUP2 MSTORE PUSH1 0x20 PUSH1 0x4 DUP3 ADD MSTORE PUSH1 0x39 PUSH1 0x24 DUP3 ADD MSTORE PUSH32 0x596F7572205374616B652054696D6520436F6D706C6574652C20506C65617365 PUSH1 0x44 DUP3 ADD MSTORE PUSH32 0x2043616C6C2057697468647261772046756E6374696F6E202100000000000000 PUSH1 0x64 DUP3 ADD MSTORE PUSH1 0x84 ADD JUMPDEST PUSH1 0x40 MLOAD DUP1 SWAP2 SUB SWAP1 REVERT JUMPDEST PUSH1 0x1 PUSH1 0x1 PUSH1 0xA0 SHL SUB DUP2 AND PUSH1 0x0 SWAP1 DUP2 MSTORE PUSH1 0x7 PUSH1 0x20 MSTORE PUSH1 0x40 DUP2 KECCAK256 PUSH1 0x1 ADD SLOAD PUSH3 0x15180 SWAP1 PUSH2 0x4AD SWAP1 TIMESTAMP PUSH2 0x2044 JUMP JUMPDEST PUSH2 0x4B7 SWAP2 SWAP1 PUSH2 0x205B JUMP JUMPDEST PUSH1 0x1 PUSH1 0x1 PUSH1 0xA0 SHL SUB DUP4 AND PUSH1 0x0 SWAP1 DUP2 MSTORE PUSH1 0x7 PUSH1 0x20 MSTORE PUSH1 0x40 DUP2 KECCAK256 PUSH1 0x2 ADD SLOAD SWAP2 SWAP3 POP SWAP1 PUSH2 0x4E2 SWAP1 PUSH1 0x1E PUSH2 0x200D JUMP JUMPDEST PUSH1 0x1 PUSH1 0x1 PUSH1 0xA0 SHL SUB DUP5 AND PUSH1 0x0 SWAP1 DUP2 MSTORE PUSH1 0x8 PUSH1 0x20 MSTORE PUSH1 0x40 SWAP1 KECCAK256 SLOAD PUSH2 0x505 SWAP2 SWAP1 PUSH2 0x205B JUMP JUMPDEST SWAP1 POP PUSH1 0x0 PUSH2 0x513 DUP4 DUP4 PUSH2 0x200D JUMP JUMPDEST SWAP1 POP PUSH1 0x0 DUP2 GT PUSH2 0x56F JUMPI PUSH1 0x40 MLOAD PUSH3 0x461BCD PUSH1 0xE5 SHL DUP2 MSTORE PUSH1 0x20 PUSH1 0x4 DUP3 ADD MSTORE PUSH1 0x21 PUSH1 0x24 DUP3 ADD MSTORE PUSH32 0x526577617264206D7573742062652067726561746572207468616E207A65726F PUSH1 0x44 DUP3 ADD MSTORE PUSH1 0x17 PUSH1 0xF9 SHL PUSH1 0x64 DUP3 ADD MSTORE PUSH1 0x84 ADD PUSH2 0x479 JUMP JUMPDEST PUSH1 0x1 PUSH1 0x1 PUSH1 0xA0 SHL SUB DUP5 AND PUSH1 0x0 SWAP1 DUP2 MSTORE PUSH1 0xC PUSH1 0x20 MSTORE PUSH1 0x40 SWAP1 KECCAK256 SLOAD PUSH2 0x592 SWAP1 DUP3 PUSH2 0x2044 JUMP JUMPDEST PUSH1 0x1 PUSH1 0x1 PUSH1 0xA0 SHL SUB DUP6 AND PUSH1 0x0 SWAP1 DUP2 MSTORE PUSH1 0xC PUSH1 0x20 MSTORE PUSH1 0x40 DUP2 KECCAK256 DUP1 SLOAD SWAP1 SWAP2 SWAP1 PUSH2 0x5BA SWAP1 DUP5 SWAP1 PUSH2 0x202C JUMP JUMPDEST SWAP1 SWAP2 SSTORE POP POP PUSH1 0x1 SLOAD PUSH1 0x40 MLOAD PUSH4 0xA9059CBB PUSH1 0xE0 SHL DUP2 MSTORE PUSH1 0x1 PUSH1 0x1 PUSH1 0xA0 SHL SUB SWAP1 SWAP2 AND SWAP1 PUSH4 0xA9059CBB SWAP1 PUSH2 0x5F1 SWAP1 DUP8 SWAP1 DUP6 SWAP1 PUSH1 0x4 ADD PUSH2 0x207D JUMP JUMPDEST PUSH1 0x20 PUSH1 0x40 MLOAD DUP1 DUP4 SUB DUP2 PUSH1 0x0 DUP8 GAS CALL ISZERO DUP1 ISZERO PUSH2 0x610 JUMPI RETURNDATASIZE PUSH1 0x0 DUP1 RETURNDATACOPY RETURNDATASIZE PUSH1 0x0 REVERT JUMPDEST POP POP POP POP PUSH1 0x40 MLOAD RETURNDATASIZE PUSH1 0x1F NOT PUSH1 0x1F DUP3 ADD AND DUP3 ADD DUP1 PUSH1 0x40 MSTORE POP DUP2 ADD SWAP1 PUSH2 0x634 SWAP2 SWAP1 PUSH2 0x2096 JUMP JUMPDEST POP POP POP POP POP JUMP JUMPDEST PUSH1 0x1 PUSH1 0x1 PUSH1 0xA0 SHL SUB DUP2 AND PUSH1 0x0 SWAP1 DUP2 MSTORE PUSH1 0x7 PUSH1 0x20 MSTORE PUSH1 0x40 DUP2 KECCAK256 PUSH1 0x3 ADD SLOAD PUSH1 0x64 SUB PUSH2 0x666 JUMPI POP PUSH1 0x0 SWAP2 SWAP1 POP JUMP JUMPDEST PUSH1 0x1 PUSH1 0x1 PUSH1 0xA0 SHL SUB DUP3 AND PUSH1 0x0 SWAP1 DUP2 MSTORE PUSH1 0x7 PUSH1 0x20 MSTORE PUSH1 0x40 SWAP1 KECCAK256 PUSH1 0x3 ADD SLOAD PUSH1 0x64 SWAP1 PUSH2 0x68F SWAP1 DUP3 PUSH2 0x2044 JUMP JUMPDEST PUSH1 0x1 PUSH1 0x1 PUSH1 0xA0 SHL SUB DUP5 AND PUSH1 0x0 SWAP1 DUP2 MSTORE PUSH1 0x8 PUSH1 0x20 MSTORE PUSH1 0x40 SWAP1 KECCAK256 SLOAD PUSH2 0x6B2 SWAP2 SWAP1 PUSH2 0x200D JUMP JUMPDEST PUSH2 0x6BC SWAP2 SWAP1 PUSH2 0x205B JUMP JUMPDEST SWAP3 SWAP2 POP POP JUMP JUMPDEST SWAP2 SWAP1 POP JUMP JUMPDEST PUSH1 0x2 SLOAD PUSH1 0x1 PUSH1 0x1 PUSH1 0xA0 SHL SUB AND PUSH1 0x0 SWAP1 DUP2 MSTORE PUSH1 0xB PUSH1 0x20 MSTORE PUSH1 0x40 SWAP1 KECCAK256 SLOAD PUSH2 0x720 JUMPI PUSH1 0x40 MLOAD PUSH3 0x461BCD PUSH1 0xE5 SHL DUP2 MSTORE PUSH1 0x20 PUSH1 0x4 DUP3 ADD MSTORE PUSH1 0xF PUSH1 0x24 DUP3 ADD MSTORE PUSH15 0x506C65617365205761697420212121 PUSH1 0x88 SHL PUSH1 0x44 DUP3 ADD MSTORE PUSH1 0x64 ADD PUSH2 0x479 JUMP JUMPDEST PUSH1 0x0 PUSH2 0x730 DUP5 PUSH4 0x3B9ACA00 PUSH2 0x200D JUMP JUMPDEST PUSH1 0x1 PUSH1 0x1 PUSH1 0xA0 SHL SUB DUP7 AND PUSH1 0x0 SWAP1 DUP2 MSTORE PUSH1 0x7 PUSH1 0x20 MSTORE PUSH1 0x40 SWAP1 KECCAK256 PUSH1 0x4 ADD SLOAD SWAP1 SWAP2 POP PUSH1 0xFF AND ISZERO PUSH2 0xAC9 JUMPI PUSH1 0x1 PUSH1 0x1 PUSH1 0xA0 SHL SUB DUP6 AND PUSH1 0x0 SWAP1 DUP2 MSTORE PUSH1 0x7 PUSH1 0x20 MSTORE PUSH1 0x40 SWAP1 KECCAK256 PUSH1 0x1 DUP2 ADD SLOAD PUSH1 0x2 SWAP1 SWAP2 ADD SLOAD TIMESTAMP SWAP2 SWAP1 PUSH2 0x788 SWAP1 PUSH1 0x1E PUSH2 0x200D JUMP JUMPDEST PUSH2 0x793 SWAP1 PUSH1 0x18 PUSH2 0x200D JUMP JUMPDEST PUSH2 0x79E SWAP1 PUSH1 0x3C PUSH2 0x200D JUMP JUMPDEST PUSH2 0x7A9 SWAP1 PUSH1 0x3C PUSH2 0x200D JUMP JUMPDEST PUSH2 0x7B3 SWAP2 SWAP1 PUSH2 0x202C JUMP JUMPDEST GT PUSH2 0x800 JUMPI PUSH1 0x40 MLOAD PUSH3 0x461BCD PUSH1 0xE5 SHL DUP2 MSTORE PUSH1 0x20 PUSH1 0x4 DUP3 ADD MSTORE PUSH1 0x1A PUSH1 0x24 DUP3 ADD MSTORE PUSH32 0x596F75722054696D6520506572696F6420436F6D706C6574652E000000000000 PUSH1 0x44 DUP3 ADD MSTORE PUSH1 0x64 ADD PUSH2 0x479 JUMP JUMPDEST PUSH1 0x1 PUSH1 0x1 PUSH1 0xA0 SHL SUB DUP6 AND PUSH1 0x0 SWAP1 DUP2 MSTORE PUSH1 0x7 PUSH1 0x20 MSTORE PUSH1 0x40 SWAP1 KECCAK256 PUSH1 0x2 ADD SLOAD DUP4 EQ PUSH2 0x863 JUMPI PUSH1 0x40 MLOAD PUSH3 0x461BCD PUSH1 0xE5 SHL DUP2 MSTORE PUSH1 0x20 PUSH1 0x4 DUP3 ADD MSTORE PUSH1 0x16 PUSH1 0x24 DUP3 ADD MSTORE PUSH22 0x8ADCE8CAE440A4D2CED0E840A6E8C2D6CA9ADEDCE8D PUSH1 0x53 SHL PUSH1 0x44 DUP3 ADD MSTORE PUSH1 0x64 ADD PUSH2 0x479 JUMP JUMPDEST PUSH1 0x1 PUSH1 0x1 PUSH1 0xA0 SHL SUB DUP6 AND PUSH1 0x0 SWAP1 DUP2 MSTORE PUSH1 0x7 PUSH1 0x20 MSTORE PUSH1 0x40 SWAP1 KECCAK256 PUSH1 0x3 ADD SLOAD DUP3 EQ PUSH2 0x8CD JUMPI PUSH1 0x40 MLOAD PUSH3 0x461BCD PUSH1 0xE5 SHL DUP2 MSTORE PUSH1 0x20 PUSH1 0x4 DUP3 ADD MSTORE PUSH1 0x1A PUSH1 0x24 DUP3 ADD MSTORE PUSH32 0x456E746572205269676874204561726E50657273656E74616765000000000000 PUSH1 0x44 DUP3 ADD MSTORE PUSH1 0x64 ADD PUSH2 0x479 JUMP JUMPDEST PUSH1 0x1 PUSH1 0x1 PUSH1 0xA0 SHL SUB DUP6 AND PUSH1 0x0 SWAP1 DUP2 MSTORE PUSH1 0x7 PUSH1 0x20 MSTORE PUSH1 0x40 SWAP1 KECCAK256 SLOAD PUSH2 0x8F1 SWAP1 DUP3 SWAP1 PUSH2 0x202C JUMP JUMPDEST PUSH1 0x1 PUSH1 0x1 PUSH1 0xA0 SHL SUB DUP7 AND PUSH1 0x0 SWAP1 DUP2 MSTORE PUSH1 0x7 PUSH1 0x20 MSTORE PUSH1 0x40 SWAP1 KECCAK256 SWAP1 DUP2 SSTORE PUSH1 0x0 DUP1 MLOAD PUSH1 0x20 PUSH2 0x2174 DUP4 CODECOPY DUP2 MLOAD SWAP2 MSTORE SLOAD PUSH1 0x2 SWAP1 SWAP2 ADD SLOAD SUB PUSH2 0x99E JUMPI PUSH1 0x1 PUSH1 0x0 MSTORE PUSH1 0xA PUSH1 0x20 MSTORE PUSH32 0xBBC70DB1B6C7AFD11E79C0FB0051300458F1A3ACB8EE9789D9B6B26C61AD9BC7 SLOAD PUSH2 0x3E8 SWAP1 PUSH2 0x961 SWAP1 DUP4 PUSH2 0x200D JUMP JUMPDEST PUSH2 0x96B SWAP2 SWAP1 PUSH2 0x205B JUMP JUMPDEST PUSH1 0x1 PUSH1 0x1 PUSH1 0xA0 SHL SUB DUP7 AND PUSH1 0x0 SWAP1 DUP2 MSTORE PUSH1 0x8 PUSH1 0x20 MSTORE PUSH1 0x40 DUP2 KECCAK256 DUP1 SLOAD SWAP1 SWAP2 SWAP1 PUSH2 0x993 SWAP1 DUP5 SWAP1 PUSH2 0x202C JUMP JUMPDEST SWAP1 SWAP2 SSTORE POP PUSH2 0xAAC SWAP1 POP JUMP JUMPDEST PUSH1 0x0 DUP1 MLOAD PUSH1 0x20 PUSH2 0x2134 DUP4 CODECOPY DUP2 MLOAD SWAP2 MSTORE SLOAD PUSH1 0x1 PUSH1 0x1 PUSH1 0xA0 SHL SUB DUP7 AND PUSH1 0x0 SWAP1 DUP2 MSTORE PUSH1 0x7 PUSH1 0x20 MSTORE PUSH1 0x40 SWAP1 KECCAK256 PUSH1 0x2 ADD SLOAD SUB PUSH2 0xA09 JUMPI PUSH1 0x2 PUSH1 0x0 MSTORE PUSH1 0xA PUSH1 0x20 MSTORE PUSH32 0xBFF4442B8ED600BEEB8E26B1279A0F0D14C6EDFAEC26D968EE13C86F7D4C2BA8 SLOAD PUSH2 0x3E8 SWAP1 PUSH2 0x961 SWAP1 DUP4 PUSH2 0x200D JUMP JUMPDEST PUSH1 0x0 DUP1 MLOAD PUSH1 0x20 PUSH2 0x2154 DUP4 CODECOPY DUP2 MLOAD SWAP2 MSTORE SLOAD PUSH1 0x1 PUSH1 0x1 PUSH1 0xA0 SHL SUB DUP7 AND PUSH1 0x0 SWAP1 DUP2 MSTORE PUSH1 0x7 PUSH1 0x20 MSTORE PUSH1 0x40 SWAP1 KECCAK256 PUSH1 0x2 ADD SLOAD SUB PUSH2 0xAAC JUMPI PUSH1 0x3 PUSH1 0x0 MSTORE PUSH1 0xA PUSH1 0x20 MSTORE PUSH32 0xA856840544DC26124927ADD067D799967EAC11BE13E14D82CC281EA46FA39759 SLOAD PUSH2 0x3E8 SWAP1 PUSH2 0xA74 SWAP1 DUP4 PUSH2 0x200D JUMP JUMPDEST PUSH2 0xA7E SWAP2 SWAP1 PUSH2 0x205B JUMP JUMPDEST PUSH1 0x1 PUSH1 0x1 PUSH1 0xA0 SHL SUB DUP7 AND PUSH1 0x0 SWAP1 DUP2 MSTORE PUSH1 0x8 PUSH1 0x20 MSTORE PUSH1 0x40 DUP2 KECCAK256 DUP1 SLOAD SWAP1 SWAP2 SWAP1 PUSH2 0xAA6 SWAP1 DUP5 SWAP1 PUSH2 0x202C JUMP JUMPDEST SWAP1 SWAP2 SSTORE POP POP JUMPDEST PUSH1 0x1 SLOAD PUSH2 0xAC4 SWAP1 PUSH1 0x1 PUSH1 0x1 PUSH1 0xA0 SHL SUB AND DUP7 ADDRESS DUP5 PUSH2 0x1BAD JUMP JUMPDEST PUSH2 0xE21 JUMP JUMPDEST PUSH1 0x1 PUSH1 0x0 MSTORE PUSH1 0x9 PUSH1 0x20 MSTORE PUSH1 0x0 DUP1 MLOAD PUSH1 0x20 PUSH2 0x2174 DUP4 CODECOPY DUP2 MLOAD SWAP2 MSTORE SLOAD DUP4 EQ DUP1 PUSH2 0xB08 JUMPI POP PUSH1 0x2 PUSH1 0x0 MSTORE PUSH1 0x9 PUSH1 0x20 MSTORE PUSH1 0x0 DUP1 MLOAD PUSH1 0x20 PUSH2 0x2134 DUP4 CODECOPY DUP2 MLOAD SWAP2 MSTORE SLOAD DUP4 EQ JUMPDEST DUP1 PUSH2 0xB2B JUMPI POP PUSH1 0x3 PUSH1 0x0 MSTORE PUSH1 0x9 PUSH1 0x20 MSTORE PUSH1 0x0 DUP1 MLOAD PUSH1 0x20 PUSH2 0x2154 DUP4 CODECOPY DUP2 MLOAD SWAP2 MSTORE SLOAD DUP4 EQ JUMPDEST PUSH2 0xB70 JUMPI PUSH1 0x40 MLOAD PUSH3 0x461BCD PUSH1 0xE5 SHL DUP2 MSTORE PUSH1 0x20 PUSH1 0x4 DUP3 ADD MSTORE PUSH1 0x16 PUSH1 0x24 DUP3 ADD MSTORE PUSH22 0x8ADCE8CAE440A4D2CED0E840A6E8C2D6CA9ADEDCE8D PUSH1 0x53 SHL PUSH1 0x44 DUP3 ADD MSTORE PUSH1 0x64 ADD PUSH2 0x479 JUMP JUMPDEST DUP2 PUSH1 0x64 EQ DUP1 PUSH2 0xB7F JUMPI POP DUP2 PUSH1 0x4B EQ JUMPDEST DUP1 PUSH2 0xB8A JUMPI POP DUP2 PUSH1 0x32 EQ JUMPDEST PUSH2 0xBD6 JUMPI PUSH1 0x40 MLOAD PUSH3 0x461BCD PUSH1 0xE5 SHL DUP2 MSTORE PUSH1 0x20 PUSH1 0x4 DUP3 ADD MSTORE PUSH1 0x1A PUSH1 0x24 DUP3 ADD MSTORE PUSH32 0x456E746572205269676874204561726E50657273656E74616765000000000000 PUSH1 0x44 DUP3 ADD MSTORE PUSH1 0x64 ADD PUSH2 0x479 JUMP JUMPDEST PUSH1 0x0 PUSH2 0x3E8 PUSH1 0x5 SLOAD DUP4 PUSH2 0xBE9 SWAP2 SWAP1 PUSH2 0x200D JUMP JUMPDEST PUSH2 0xBF3 SWAP2 SWAP1 PUSH2 0x205B JUMP JUMPDEST SWAP1 POP PUSH1 0x40 MLOAD DUP1 PUSH1 0xA0 ADD PUSH1 0x40 MSTORE DUP1 DUP3 DUP5 PUSH2 0xC0C SWAP2 SWAP1 PUSH2 0x2044 JUMP JUMPDEST DUP2 MSTORE TIMESTAMP PUSH1 0x20 DUP1 DUP4 ADD SWAP2 SWAP1 SWAP2 MSTORE PUSH1 0x40 DUP1 DUP4 ADD DUP9 SWAP1 MSTORE PUSH1 0x60 DUP1 DUP5 ADD DUP9 SWAP1 MSTORE PUSH1 0x1 PUSH1 0x80 SWAP5 DUP6 ADD DUP2 SWAP1 MSTORE PUSH1 0x1 PUSH1 0x1 PUSH1 0xA0 SHL SUB DUP13 AND PUSH1 0x0 SWAP1 DUP2 MSTORE PUSH1 0x7 DUP6 MSTORE DUP4 SWAP1 KECCAK256 DUP7 MLOAD DUP2 SSTORE SWAP4 DUP7 ADD MLOAD SWAP1 DUP5 ADD SSTORE SWAP1 DUP5 ADD MLOAD PUSH1 0x2 DUP4 ADD DUP2 SWAP1 SSTORE SWAP1 DUP5 ADD MLOAD PUSH1 0x3 DUP4 ADD SSTORE SWAP3 SWAP1 SWAP2 ADD MLOAD PUSH1 0x4 SWAP1 SWAP2 ADD DUP1 SLOAD PUSH1 0xFF NOT AND SWAP2 ISZERO ISZERO SWAP2 SWAP1 SWAP2 OR SWAP1 SSTORE PUSH1 0x0 DUP1 MLOAD PUSH1 0x20 PUSH2 0x2174 DUP4 CODECOPY DUP2 MLOAD SWAP2 MSTORE SLOAD SWAP1 SUB PUSH2 0xD03 JUMPI PUSH1 0x1 PUSH1 0x0 MSTORE PUSH1 0xA PUSH1 0x20 MSTORE PUSH32 0xBBC70DB1B6C7AFD11E79C0FB0051300458F1A3ACB8EE9789D9B6B26C61AD9BC7 SLOAD PUSH2 0x3E8 SWAP1 PUSH2 0xCD1 DUP4 DUP6 PUSH2 0x2044 JUMP JUMPDEST PUSH2 0xCDB SWAP2 SWAP1 PUSH2 0x200D JUMP JUMPDEST PUSH2 0xCE5 SWAP2 SWAP1 PUSH2 0x205B JUMP JUMPDEST PUSH1 0x1 PUSH1 0x1 PUSH1 0xA0 SHL SUB DUP8 AND PUSH1 0x0 SWAP1 DUP2 MSTORE PUSH1 0x8 PUSH1 0x20 MSTORE PUSH1 0x40 SWAP1 KECCAK256 SSTORE PUSH2 0xE07 JUMP JUMPDEST PUSH1 0x0 DUP1 MLOAD PUSH1 0x20 PUSH2 0x2134 DUP4 CODECOPY DUP2 MLOAD SWAP2 MSTORE SLOAD PUSH1 0x1 PUSH1 0x1 PUSH1 0xA0 SHL SUB DUP8 AND PUSH1 0x0 SWAP1 DUP2 MSTORE PUSH1 0x7 PUSH1 0x20 MSTORE PUSH1 0x40 SWAP1 KECCAK256 PUSH1 0x2 ADD SLOAD SUB PUSH2 0xD6E JUMPI PUSH1 0x2 PUSH1 0x0 MSTORE PUSH1 0xA PUSH1 0x20 MSTORE PUSH32 0xBFF4442B8ED600BEEB8E26B1279A0F0D14C6EDFAEC26D968EE13C86F7D4C2BA8 SLOAD PUSH2 0x3E8 SWAP1 PUSH2 0xCD1 DUP4 DUP6 PUSH2 0x2044 JUMP JUMPDEST PUSH1 0x0 DUP1 MLOAD PUSH1 0x20 PUSH2 0x2154 DUP4 CODECOPY DUP2 MLOAD SWAP2 MSTORE SLOAD PUSH1 0x1 PUSH1 0x1 PUSH1 0xA0 SHL SUB DUP8 AND PUSH1 0x0 SWAP1 DUP2 MSTORE PUSH1 0x7 PUSH1 0x20 MSTORE PUSH1 0x40 SWAP1 KECCAK256 PUSH1 0x2 ADD SLOAD SUB PUSH2 0xE07 JUMPI PUSH1 0x3 PUSH1 0x0 MSTORE PUSH1 0xA PUSH1 0x20 MSTORE PUSH32 0xA856840544DC26124927ADD067D799967EAC11BE13E14D82CC281EA46FA39759 SLOAD PUSH2 0x3E8 SWAP1 PUSH2 0xDD9 DUP4 DUP6 PUSH2 0x2044 JUMP JUMPDEST PUSH2 0xDE3 SWAP2 SWAP1 PUSH2 0x200D JUMP JUMPDEST PUSH2 0xDED SWAP2 SWAP1 PUSH2 0x205B JUMP JUMPDEST PUSH1 0x1 PUSH1 0x1 PUSH1 0xA0 SHL SUB DUP8 AND PUSH1 0x0 SWAP1 DUP2 MSTORE PUSH1 0x8 PUSH1 0x20 MSTORE PUSH1 0x40 SWAP1 KECCAK256 SSTORE JUMPDEST PUSH1 0x1 SLOAD PUSH2 0xE1F SWAP1 PUSH1 0x1 PUSH1 0x1 PUSH1 0xA0 SHL SUB AND DUP8 ADDRESS DUP6 PUSH2 0x1BAD JUMP JUMPDEST POP JUMPDEST PUSH1 0x1 PUSH1 0x1 PUSH1 0xA0 SHL SUB DUP6 AND PUSH1 0x0 SWAP1 DUP2 MSTORE PUSH1 0xB PUSH1 0x20 MSTORE PUSH1 0x40 DUP2 KECCAK256 DUP1 SLOAD DUP4 SWAP3 SWAP1 PUSH2 0xE49 SWAP1 DUP5 SWAP1 PUSH2 0x202C JUMP JUMPDEST SWAP3 POP POP DUP2 SWAP1 SSTORE POP DUP1 PUSH1 0x3 PUSH1 0x0 DUP3 DUP3 SLOAD PUSH2 0xE62 SWAP2 SWAP1 PUSH2 0x202C JUMP JUMPDEST SWAP1 SWAP2 SSTORE POP POP POP POP POP POP POP JUMP JUMPDEST PUSH2 0xE76 PUSH2 0x1C0D JUMP JUMPDEST PUSH1 0x9 PUSH1 0x20 MSTORE PUSH1 0x0 DUP1 MLOAD PUSH1 0x20 PUSH2 0x2174 DUP4 CODECOPY DUP2 MLOAD SWAP2 MSTORE SWAP3 SWAP1 SWAP3 SSTORE PUSH1 0x0 DUP1 MLOAD PUSH1 0x20 PUSH2 0x2134 DUP4 CODECOPY DUP2 MLOAD SWAP2 MSTORE SSTORE PUSH1 0x3 PUSH1 0x0 MSTORE PUSH1 0x0 DUP1 MLOAD PUSH1 0x20 PUSH2 0x2154 DUP4 CODECOPY DUP2 MLOAD SWAP2 MSTORE SSTORE JUMP JUMPDEST PUSH2 0xEBD PUSH2 0x1C0D JUMP JUMPDEST PUSH2 0xEC7 PUSH1 0x0 PUSH2 0x1C67 JUMP JUMPDEST JUMP JUMPDEST PUSH1 0x1 PUSH1 0x1 PUSH1 0xA0 SHL SUB DUP2 AND PUSH1 0x0 SWAP1 DUP2 MSTORE PUSH1 0x7 PUSH1 0x20 MSTORE PUSH1 0x40 SWAP1 KECCAK256 PUSH1 0x4 ADD SLOAD PUSH1 0xFF AND PUSH2 0xF29 JUMPI PUSH1 0x40 MLOAD PUSH3 0x461BCD PUSH1 0xE5 SHL DUP2 MSTORE PUSH1 0x20 PUSH1 0x4 DUP3 ADD MSTORE PUSH1 0x12 PUSH1 0x24 DUP3 ADD MSTORE PUSH18 0x4669727374205374616B6520546F6B656E73 PUSH1 0x70 SHL PUSH1 0x44 DUP3 ADD MSTORE PUSH1 0x64 ADD PUSH2 0x479 JUMP JUMPDEST PUSH1 0x1 PUSH1 0x1 PUSH1 0xA0 SHL SUB DUP2 AND PUSH1 0x0 SWAP1 DUP2 MSTORE PUSH1 0x7 PUSH1 0x20 MSTORE PUSH1 0x40 DUP2 KECCAK256 PUSH1 0x1 DUP2 ADD SLOAD PUSH1 0x2 SWAP1 SWAP2 ADD SLOAD DUP3 SWAP2 TIMESTAMP SWAP2 PUSH2 0xF5B SWAP1 PUSH1 0x1E PUSH2 0x200D JUMP JUMPDEST PUSH2 0xF66 SWAP1 PUSH1 0x18 PUSH2 0x200D JUMP JUMPDEST PUSH2 0xF71 SWAP1 PUSH1 0x3C PUSH2 0x200D JUMP JUMPDEST PUSH2 0xF7C SWAP1 PUSH1 0x3C PUSH2 0x200D JUMP JUMPDEST PUSH2 0xF86 SWAP2 SWAP1 PUSH2 0x202C JUMP JUMPDEST LT ISZERO PUSH2 0x1346 JUMPI PUSH1 0x1 PUSH1 0x1 PUSH1 0xA0 SHL SUB DUP4 AND PUSH1 0x0 SWAP1 DUP2 MSTORE PUSH1 0x7 PUSH1 0x20 MSTORE PUSH1 0x40 SWAP1 KECCAK256 PUSH1 0x3 ADD SLOAD PUSH1 0x64 SUB PUSH2 0x1077 JUMPI PUSH1 0x1 SLOAD PUSH1 0x1 PUSH1 0x1 PUSH1 0xA0 SHL SUB DUP5 DUP2 AND PUSH1 0x0 SWAP1 DUP2 MSTORE PUSH1 0xC PUSH1 0x20 SWAP1 DUP2 MSTORE PUSH1 0x40 DUP1 DUP4 KECCAK256 SLOAD PUSH1 0x8 SWAP1 SWAP3 MSTORE SWAP1 SWAP2 KECCAK256 SLOAD SWAP2 SWAP1 SWAP3 AND SWAP2 PUSH4 0xA9059CBB SWAP2 DUP7 SWAP2 PUSH2 0xFEE SWAP2 PUSH2 0x2044 JUMP JUMPDEST PUSH1 0x1 PUSH1 0x1 PUSH1 0xA0 SHL SUB DUP8 AND PUSH1 0x0 SWAP1 DUP2 MSTORE PUSH1 0x7 PUSH1 0x20 MSTORE PUSH1 0x40 SWAP1 KECCAK256 SLOAD PUSH2 0x1011 SWAP2 SWAP1 PUSH2 0x202C JUMP JUMPDEST PUSH1 0x40 MLOAD DUP4 PUSH4 0xFFFFFFFF AND PUSH1 0xE0 SHL DUP2 MSTORE PUSH1 0x4 ADD PUSH2 0x102E SWAP3 SWAP2 SWAP1 PUSH2 0x207D JUMP JUMPDEST PUSH1 0x20 PUSH1 0x40 MLOAD DUP1 DUP4 SUB DUP2 PUSH1 0x0 DUP8 GAS CALL ISZERO DUP1 ISZERO PUSH2 0x104D JUMPI RETURNDATASIZE PUSH1 0x0 DUP1 RETURNDATACOPY RETURNDATASIZE PUSH1 0x0 REVERT JUMPDEST POP POP POP POP PUSH1 0x40 MLOAD RETURNDATASIZE PUSH1 0x1F NOT PUSH1 0x1F DUP3 ADD AND DUP3 ADD DUP1 PUSH1 0x40 MSTORE POP DUP2 ADD SWAP1 PUSH2 0x1071 SWAP2 SWAP1 PUSH2 0x2096 JUMP JUMPDEST POP PUSH2 0x18A9 JUMP JUMPDEST PUSH1 0x1 PUSH1 0x1 PUSH1 0xA0 SHL SUB DUP4 AND PUSH1 0x0 SWAP1 DUP2 MSTORE PUSH1 0x7 PUSH1 0x20 MSTORE PUSH1 0x40 SWAP1 KECCAK256 PUSH1 0x3 ADD SLOAD PUSH1 0x4B SUB PUSH2 0x1206 JUMPI PUSH1 0x1 PUSH1 0x1 PUSH1 0xA0 SHL SUB DUP4 AND PUSH1 0x0 SWAP1 DUP2 MSTORE PUSH1 0xC PUSH1 0x20 SWAP1 DUP2 MSTORE PUSH1 0x40 DUP1 DUP4 KECCAK256 SLOAD PUSH1 0x8 SWAP1 SWAP3 MSTORE SWAP1 SWAP2 KECCAK256 SLOAD PUSH1 0x64 SWAP2 PUSH2 0x10CB SWAP2 PUSH2 0x2044 JUMP JUMPDEST PUSH2 0x10D6 SWAP1 PUSH1 0x4B PUSH2 0x200D JUMP JUMPDEST PUSH2 0x10E0 SWAP2 SWAP1 PUSH2 0x205B JUMP JUMPDEST PUSH1 0x1 SLOAD PUSH1 0x1 PUSH1 0x1 PUSH1 0xA0 SHL SUB DUP6 DUP2 AND PUSH1 0x0 SWAP1 DUP2 MSTORE PUSH1 0x7 PUSH1 0x20 MSTORE PUSH1 0x40 SWAP1 KECCAK256 SLOAD SWAP3 SWAP5 POP AND SWAP1 PUSH4 0xA9059CBB SWAP1 DUP6 SWAP1 PUSH2 0x1115 SWAP1 DUP7 SWAP1 PUSH2 0x202C JUMP JUMPDEST PUSH1 0x40 MLOAD DUP4 PUSH4 0xFFFFFFFF AND PUSH1 0xE0 SHL DUP2 MSTORE PUSH1 0x4 ADD PUSH2 0x1132 SWAP3 SWAP2 SWAP1 PUSH2 0x207D JUMP JUMPDEST PUSH1 0x20 PUSH1 0x40 MLOAD DUP1 DUP4 SUB DUP2 PUSH1 0x0 DUP8 GAS CALL ISZERO DUP1 ISZERO PUSH2 0x1151 JUMPI RETURNDATASIZE PUSH1 0x0 DUP1 RETURNDATACOPY RETURNDATASIZE PUSH1 0x0 REVERT JUMPDEST POP POP POP POP PUSH1 0x40 MLOAD RETURNDATASIZE PUSH1 0x1F NOT PUSH1 0x1F DUP3 ADD AND DUP3 ADD DUP1 PUSH1 0x40 MSTORE POP DUP2 ADD SWAP1 PUSH2 0x1175 SWAP2 SWAP1 PUSH2 0x2096 JUMP JUMPDEST POP PUSH1 0x1 PUSH1 0x1 PUSH1 0xA0 SHL SUB DUP4 AND PUSH1 0x0 SWAP1 DUP2 MSTORE PUSH1 0xC PUSH1 0x20 SWAP1 DUP2 MSTORE PUSH1 0x40 DUP1 DUP4 KECCAK256 SLOAD PUSH1 0x8 SWAP1 SWAP3 MSTORE SWAP1 SWAP2 KECCAK256 SLOAD PUSH1 0x64 SWAP2 PUSH2 0x11A7 SWAP2 PUSH2 0x2044 JUMP JUMPDEST PUSH2 0x11B2 SWAP1 PUSH1 0x19 PUSH2 0x200D JUMP JUMPDEST PUSH2 0x11BC SWAP2 SWAP1 PUSH2 0x205B JUMP JUMPDEST PUSH1 0x1 PUSH1 0x1 PUSH1 0xA0 SHL SUB DUP1 DUP6 AND PUSH1 0x0 SWAP1 DUP2 MSTORE PUSH1 0xD PUSH1 0x20 MSTORE PUSH1 0x40 SWAP1 DUP2 SWAP1 KECCAK256 DUP4 SWAP1 SSTORE PUSH1 0x1 SLOAD SWAP1 MLOAD PUSH4 0xA9059CBB PUSH1 0xE0 SHL DUP2 MSTORE SWAP3 SWAP4 POP AND SWAP1 PUSH4 0xA9059CBB SWAP1 PUSH2 0x102E SWAP1 PUSH2 0xDEAD SWAP1 DUP6 SWAP1 PUSH1 0x4 ADD PUSH2 0x207D JUMP JUMPDEST PUSH1 0x1 PUSH1 0x1 PUSH1 0xA0 SHL SUB DUP4 AND PUSH1 0x0 SWAP1 DUP2 MSTORE PUSH1 0x7 PUSH1 0x20 MSTORE PUSH1 0x40 SWAP1 KECCAK256 PUSH1 0x3 ADD SLOAD PUSH1 0x32 SUB PUSH2 0x1341 JUMPI PUSH1 0x1 PUSH1 0x1 PUSH1 0xA0 SHL SUB DUP4 AND PUSH1 0x0 SWAP1 DUP2 MSTORE PUSH1 0xC PUSH1 0x20 SWAP1 DUP2 MSTORE PUSH1 0x40 DUP1 DUP4 KECCAK256 SLOAD PUSH1 0x8 SWAP1 SWAP3 MSTORE SWAP1 SWAP2 KECCAK256 SLOAD PUSH1 0x64 SWAP2 PUSH2 0x125A SWAP2 PUSH2 0x2044 JUMP JUMPDEST PUSH2 0x1265 SWAP1 PUSH1 0x32 PUSH2 0x200D JUMP JUMPDEST PUSH2 0x126F SWAP2 SWAP1 PUSH2 0x205B JUMP JUMPDEST PUSH1 0x1 SLOAD PUSH1 0x1 PUSH1 0x1 PUSH1 0xA0 SHL SUB DUP6 DUP2 AND PUSH1 0x0 SWAP1 DUP2 MSTORE PUSH1 0x7 PUSH1 0x20 MSTORE PUSH1 0x40 SWAP1 KECCAK256 SLOAD SWAP3 SWAP5 POP AND SWAP1 PUSH4 0xA9059CBB SWAP1 DUP6 SWAP1 PUSH2 0x12A4 SWAP1 DUP7 SWAP1 PUSH2 0x202C JUMP JUMPDEST PUSH1 0x40 MLOAD DUP4 PUSH4 0xFFFFFFFF AND PUSH1 0xE0 SHL DUP2 MSTORE PUSH1 0x4 ADD PUSH2 0x12C1 SWAP3 SWAP2 SWAP1 PUSH2 0x207D JUMP JUMPDEST PUSH1 0x20 PUSH1 0x40 MLOAD DUP1 DUP4 SUB DUP2 PUSH1 0x0 DUP8 GAS CALL ISZERO DUP1 ISZERO PUSH2 0x12E0 JUMPI RETURNDATASIZE PUSH1 0x0 DUP1 RETURNDATACOPY RETURNDATASIZE PUSH1 0x0 REVERT JUMPDEST POP POP POP POP PUSH1 0x40 MLOAD RETURNDATASIZE PUSH1 0x1F NOT PUSH1 0x1F DUP3 ADD AND DUP3 ADD DUP1 PUSH1 0x40 MSTORE POP DUP2 ADD SWAP1 PUSH2 0x1304 SWAP2 SWAP1 PUSH2 0x2096 JUMP JUMPDEST POP PUSH1 0x1 PUSH1 0x1 PUSH1 0xA0 SHL SUB DUP4 AND PUSH1 0x0 SWAP1 DUP2 MSTORE PUSH1 0xC PUSH1 0x20 SWAP1 DUP2 MSTORE PUSH1 0x40 DUP1 DUP4 KECCAK256 SLOAD PUSH1 0x8 SWAP1 SWAP3 MSTORE SWAP1 SWAP2 KECCAK256 SLOAD PUSH1 0x64 SWAP2 PUSH2 0x1336 SWAP2 PUSH2 0x2044 JUMP JUMPDEST PUSH2 0x11B2 SWAP1 PUSH1 0x32 PUSH2 0x200D JUMP JUMPDEST PUSH2 0x18A9 JUMP JUMPDEST PUSH1 0x1 PUSH1 0x1 PUSH1 0xA0 SHL SUB DUP4 AND PUSH1 0x0 SWAP1 DUP2 MSTORE PUSH1 0x7 PUSH1 0x20 MSTORE PUSH1 0x40 DUP2 KECCAK256 PUSH1 0x1 ADD SLOAD DUP2 SWAP1 DUP2 SWAP1 DUP2 SWAP1 PUSH3 0x15180 SWAP1 PUSH2 0x1377 SWAP1 TIMESTAMP PUSH2 0x2044 JUMP JUMPDEST PUSH2 0x1381 SWAP2 SWAP1 PUSH2 0x205B JUMP JUMPDEST PUSH1 0x1 PUSH1 0x1 PUSH1 0xA0 SHL SUB DUP9 AND PUSH1 0x0 SWAP1 DUP2 MSTORE PUSH1 0x7 PUSH1 0x20 MSTORE PUSH1 0x40 SWAP1 KECCAK256 PUSH1 0x2 ADD SLOAD SWAP1 SWAP2 POP PUSH2 0x13AB SWAP1 PUSH1 0x1E PUSH2 0x200D JUMP JUMPDEST PUSH1 0x1 PUSH1 0x1 PUSH1 0xA0 SHL SUB DUP9 AND PUSH1 0x0 SWAP1 DUP2 MSTORE PUSH1 0x8 PUSH1 0x20 MSTORE PUSH1 0x40 SWAP1 KECCAK256 SLOAD PUSH2 0x13CE SWAP2 SWAP1 PUSH2 0x205B JUMP JUMPDEST PUSH1 0x1 PUSH1 0x1 PUSH1 0xA0 SHL SUB DUP9 AND PUSH1 0x0 SWAP1 DUP2 MSTORE PUSH1 0x7 PUSH1 0x20 MSTORE PUSH1 0x40 SWAP1 KECCAK256 PUSH1 0x3 ADD SLOAD SWAP1 SWAP5 POP PUSH1 0x64 SUB PUSH2 0x14E9 JUMPI PUSH2 0x13FE DUP2 DUP6 PUSH2 0x200D JUMP JUMPDEST PUSH1 0x1 PUSH1 0x1 PUSH1 0xA0 SHL SUB DUP9 AND PUSH1 0x0 SWAP1 DUP2 MSTORE PUSH1 0xC PUSH1 0x20 MSTORE PUSH1 0x40 SWAP1 KECCAK256 SLOAD SWAP1 SWAP7 POP PUSH2 0x1424 SWAP1 DUP8 PUSH2 0x2044 JUMP JUMPDEST PUSH1 0x1 PUSH1 0x1 PUSH1 0xA0 SHL SUB DUP9 AND PUSH1 0x0 SWAP1 DUP2 MSTORE PUSH1 0x7 PUSH1 0x20 MSTORE PUSH1 0x40 SWAP1 KECCAK256 SLOAD PUSH2 0x1447 SWAP2 SWAP1 PUSH2 0x202C JUMP JUMPDEST SWAP3 POP PUSH2 0x3E8 PUSH1 0x6 SLOAD DUP5 PUSH2 0x145A SWAP2 SWAP1 PUSH2 0x200D JUMP JUMPDEST PUSH2 0x1464 SWAP2 SWAP1 PUSH2 0x205B JUMP JUMPDEST PUSH1 0x1 SLOAD SWAP1 SWAP3 POP PUSH1 0x1 PUSH1 0x1 PUSH1 0xA0 SHL SUB AND PUSH4 0xA9059CBB DUP9 PUSH2 0x1483 DUP6 DUP8 PUSH2 0x2044 JUMP JUMPDEST PUSH1 0x40 MLOAD DUP4 PUSH4 0xFFFFFFFF AND PUSH1 0xE0 SHL DUP2 MSTORE PUSH1 0x4 ADD PUSH2 0x14A0 SWAP3 SWAP2 SWAP1 PUSH2 0x207D JUMP JUMPDEST PUSH1 0x20 PUSH1 0x40 MLOAD DUP1 DUP4 SUB DUP2 PUSH1 0x0 DUP8 GAS CALL ISZERO DUP1 ISZERO PUSH2 0x14BF JUMPI RETURNDATASIZE PUSH1 0x0 DUP1 RETURNDATACOPY RETURNDATASIZE PUSH1 0x0 REVERT JUMPDEST POP POP POP POP PUSH1 0x40 MLOAD RETURNDATASIZE PUSH1 0x1F NOT PUSH1 0x1F DUP3 ADD AND DUP3 ADD DUP1 PUSH1 0x40 MSTORE POP DUP2 ADD SWAP1 PUSH2 0x14E3 SWAP2 SWAP1 PUSH2 0x2096 JUMP JUMPDEST POP PUSH2 0x18A4 JUMP JUMPDEST PUSH1 0x1 PUSH1 0x1 PUSH1 0xA0 SHL SUB DUP8 AND PUSH1 0x0 SWAP1 DUP2 MSTORE PUSH1 0x7 PUSH1 0x20 MSTORE PUSH1 0x40 SWAP1 KECCAK256 PUSH1 0x3 ADD SLOAD PUSH1 0x4B SUB PUSH2 0x16A4 JUMPI PUSH1 0x1 PUSH1 0x1 PUSH1 0xA0 SHL SUB DUP8 AND PUSH1 0x0 SWAP1 DUP2 MSTORE PUSH1 0xC PUSH1 0x20 MSTORE PUSH1 0x40 SWAP1 KECCAK256 SLOAD PUSH1 0x64 SWAP1 PUSH2 0x1532 DUP4 DUP8 PUSH2 0x200D JUMP JUMPDEST PUSH2 0x153C SWAP2 SWAP1 PUSH2 0x2044 JUMP JUMPDEST PUSH2 0x1547 SWAP1 PUSH1 0x4B PUSH2 0x200D JUMP JUMPDEST PUSH2 0x1551 SWAP2 SWAP1 PUSH2 0x205B JUMP JUMPDEST PUSH1 0x1 PUSH1 0x1 PUSH1 0xA0 SHL SUB DUP9 AND PUSH1 0x0 SWAP1 DUP2 MSTORE PUSH1 0x7 PUSH1 0x20 MSTORE PUSH1 0x40 SWAP1 KECCAK256 SLOAD SWAP1 SWAP7 POP PUSH2 0x1578 SWAP1 DUP8 SWAP1 PUSH2 0x202C JUMP JUMPDEST SWAP3 POP PUSH2 0x3E8 PUSH1 0x6 SLOAD DUP5 PUSH2 0x158B SWAP2 SWAP1 PUSH2 0x200D JUMP JUMPDEST PUSH2 0x1595 SWAP2 SWAP1 PUSH2 0x205B JUMP JUMPDEST PUSH1 0x1 SLOAD SWAP1 SWAP3 POP PUSH1 0x1 PUSH1 0x1 PUSH1 0xA0 SHL SUB AND PUSH4 0xA9059CBB DUP9 PUSH2 0x15B4 DUP6 DUP8 PUSH2 0x2044 JUMP JUMPDEST PUSH1 0x40 MLOAD DUP4 PUSH4 0xFFFFFFFF AND PUSH1 0xE0 SHL DUP2 MSTORE PUSH1 0x4 ADD PUSH2 0x15D1 SWAP3 SWAP2 SWAP1 PUSH2 0x207D JUMP JUMPDEST PUSH1 0x20 PUSH1 0x40 MLOAD DUP1 DUP4 SUB DUP2 PUSH1 0x0 DUP8 GAS CALL ISZERO DUP1 ISZERO PUSH2 0x15F0 JUMPI RETURNDATASIZE PUSH1 0x0 DUP1 RETURNDATACOPY RETURNDATASIZE PUSH1 0x0 REVERT JUMPDEST POP POP POP POP PUSH1 0x40 MLOAD RETURNDATASIZE PUSH1 0x1F NOT PUSH1 0x1F DUP3 ADD AND DUP3 ADD DUP1 PUSH1 0x40 MSTORE POP DUP2 ADD SWAP1 PUSH2 0x1614 SWAP2 SWAP1 PUSH2 0x2096 JUMP JUMPDEST POP PUSH1 0x1 PUSH1 0x1 PUSH1 0xA0 SHL SUB DUP8 AND PUSH1 0x0 SWAP1 DUP2 MSTORE PUSH1 0xC PUSH1 0x20 MSTORE PUSH1 0x40 SWAP1 KECCAK256 SLOAD PUSH1 0x64 SWAP1 PUSH2 0x163B DUP4 DUP8 PUSH2 0x200D JUMP JUMPDEST PUSH2 0x1645 SWAP2 SWAP1 PUSH2 0x2044 JUMP JUMPDEST PUSH2 0x1650 SWAP1 PUSH1 0x19 PUSH2 0x200D JUMP JUMPDEST PUSH2 0x165A SWAP2 SWAP1 PUSH2 0x205B JUMP JUMPDEST PUSH1 0x1 PUSH1 0x1 PUSH1 0xA0 SHL SUB DUP1 DUP10 AND PUSH1 0x0 SWAP1 DUP2 MSTORE PUSH1 0xD PUSH1 0x20 MSTORE PUSH1 0x40 SWAP1 DUP2 SWAP1 KECCAK256 DUP4 SWAP1 SSTORE PUSH1 0x1 SLOAD SWAP1 MLOAD PUSH4 0xA9059CBB PUSH1 0xE0 SHL DUP2 MSTORE SWAP3 SWAP8 POP AND SWAP1 PUSH4 0xA9059CBB SWAP1 PUSH2 0x14A0 SWAP1 PUSH2 0xDEAD SWAP1 DUP10 SWAP1 PUSH1 0x4 ADD PUSH2 0x207D JUMP JUMPDEST PUSH1 0x1 PUSH1 0x1 PUSH1 0xA0 SHL SUB DUP8 AND PUSH1 0x0 SWAP1 DUP2 MSTORE PUSH1 0x7 PUSH1 0x20 MSTORE PUSH1 0x40 SWAP1 KECCAK256 PUSH1 0x3 ADD SLOAD PUSH1 0x32 SUB PUSH2 0x18A4 JUMPI PUSH1 0x1 PUSH1 0x1 PUSH1 0xA0 SHL SUB DUP8 AND PUSH1 0x0 SWAP1 DUP2 MSTORE PUSH1 0xC PUSH1 0x20 MSTORE PUSH1 0x40 SWAP1 KECCAK256 SLOAD PUSH1 0x64 SWAP1 PUSH2 0x16ED DUP4 DUP8 PUSH2 0x200D JUMP JUMPDEST PUSH2 0x16F7 SWAP2 SWAP1 PUSH2 0x2044 JUMP JUMPDEST PUSH2 0x1702 SWAP1 PUSH1 0x32 PUSH2 0x200D JUMP JUMPDEST PUSH2 0x170C SWAP2 SWAP1 PUSH2 0x205B JUMP JUMPDEST PUSH1 0x1 PUSH1 0x1 PUSH1 0xA0 SHL SUB DUP9 AND PUSH1 0x0 SWAP1 DUP2 MSTORE PUSH1 0x7 PUSH1 0x20 MSTORE PUSH1 0x40 SWAP1 KECCAK256 SLOAD SWAP1 SWAP7 POP PUSH2 0x1733 SWAP1 DUP8 SWAP1 PUSH2 0x202C JUMP JUMPDEST SWAP3 POP PUSH2 0x3E8 PUSH1 0x6 SLOAD DUP5 PUSH2 0x1746 SWAP2 SWAP1 PUSH2 0x200D JUMP JUMPDEST PUSH2 0x1750 SWAP2 SWAP1 PUSH2 0x205B JUMP JUMPDEST PUSH1 0x1 SLOAD SWAP1 SWAP3 POP PUSH1 0x1 PUSH1 0x1 PUSH1 0xA0 SHL SUB AND PUSH4 0xA9059CBB DUP9 PUSH2 0x176F DUP6 DUP8 PUSH2 0x2044 JUMP JUMPDEST PUSH1 0x40 MLOAD DUP4 PUSH4 0xFFFFFFFF AND PUSH1 0xE0 SHL DUP2 MSTORE PUSH1 0x4 ADD PUSH2 0x178C SWAP3 SWAP2 SWAP1 PUSH2 0x207D JUMP JUMPDEST PUSH1 0x20 PUSH1 0x40 MLOAD DUP1 DUP4 SUB DUP2 PUSH1 0x0 DUP8 GAS CALL ISZERO DUP1 ISZERO PUSH2 0x17AB JUMPI RETURNDATASIZE PUSH1 0x0 DUP1 RETURNDATACOPY RETURNDATASIZE PUSH1 0x0 REVERT JUMPDEST POP POP POP POP PUSH1 0x40 MLOAD RETURNDATASIZE PUSH1 0x1F NOT PUSH1 0x1F DUP3 ADD AND DUP3 ADD DUP1 PUSH1 0x40 MSTORE POP DUP2 ADD SWAP1 PUSH2 0x17CF SWAP2 SWAP1 PUSH2 0x2096 JUMP JUMPDEST POP PUSH1 0x1 PUSH1 0x1 PUSH1 0xA0 SHL SUB DUP8 AND PUSH1 0x0 SWAP1 DUP2 MSTORE PUSH1 0xC PUSH1 0x20 MSTORE PUSH1 0x40 SWAP1 KECCAK256 SLOAD PUSH1 0x64 SWAP1 PUSH2 0x17F6 DUP4 DUP8 PUSH2 0x200D JUMP JUMPDEST PUSH2 0x1800 SWAP2 SWAP1 PUSH2 0x2044 JUMP JUMPDEST PUSH2 0x180B SWAP1 PUSH1 0x32 PUSH2 0x200D JUMP JUMPDEST PUSH2 0x1815 SWAP2 SWAP1 PUSH2 0x205B JUMP JUMPDEST PUSH1 0x1 PUSH1 0x1 PUSH1 0xA0 SHL SUB DUP1 DUP10 AND PUSH1 0x0 SWAP1 DUP2 MSTORE PUSH1 0xD PUSH1 0x20 MSTORE PUSH1 0x40 SWAP1 DUP2 SWAP1 KECCAK256 DUP4 SWAP1 SSTORE PUSH1 0x1 SLOAD SWAP1 MLOAD PUSH4 0xA9059CBB PUSH1 0xE0 SHL DUP2 MSTORE SWAP3 SWAP8 POP AND SWAP1 PUSH4 0xA9059CBB SWAP1 PUSH2 0x185F SWAP1 PUSH2 0xDEAD SWAP1 DUP10 SWAP1 PUSH1 0x4 ADD PUSH2 0x207D JUMP JUMPDEST PUSH1 0x20 PUSH1 0x40 MLOAD DUP1 DUP4 SUB DUP2 PUSH1 0x0 DUP8 GAS CALL ISZERO DUP1 ISZERO PUSH2 0x187E JUMPI RETURNDATASIZE PUSH1 0x0 DUP1 RETURNDATACOPY RETURNDATASIZE PUSH1 0x0 REVERT JUMPDEST POP POP POP POP PUSH1 0x40 MLOAD RETURNDATASIZE PUSH1 0x1F NOT PUSH1 0x1F DUP3 ADD AND DUP3 ADD DUP1 PUSH1 0x40 MSTORE POP DUP2 ADD SWAP1 PUSH2 0x18A2 SWAP2 SWAP1 PUSH2 0x2096 JUMP JUMPDEST POP JUMPDEST POP POP POP POP JUMPDEST PUSH1 0x1 PUSH1 0x1 PUSH1 0xA0 SHL SUB DUP4 AND PUSH1 0x0 SWAP1 DUP2 MSTORE PUSH1 0x7 PUSH1 0x20 SWAP1 DUP2 MSTORE PUSH1 0x40 DUP1 DUP4 KECCAK256 PUSH1 0x4 DUP2 ADD DUP1 SLOAD PUSH1 0xFF NOT AND SWAP1 SSTORE PUSH1 0xC DUP4 MSTORE DUP2 DUP5 KECCAK256 DUP5 SWAP1 SSTORE PUSH1 0x8 DUP4 MSTORE DUP2 DUP5 KECCAK256 DUP5 SWAP1 SSTORE SLOAD PUSH1 0xB SWAP1 SWAP3 MSTORE DUP3 KECCAK256 DUP1 SLOAD SWAP2 SWAP3 SWAP1 SWAP2 PUSH2 0x18FD SWAP1 DUP5 SWAP1 PUSH2 0x2044 JUMP JUMPDEST SWAP1 SWAP2 SSTORE POP POP PUSH1 0x1 PUSH1 0x1 PUSH1 0xA0 SHL SUB DUP4 AND PUSH1 0x0 SWAP1 DUP2 MSTORE PUSH1 0x7 PUSH1 0x20 MSTORE PUSH1 0x40 DUP2 KECCAK256 SLOAD PUSH1 0x3 DUP1 SLOAD SWAP2 SWAP3 SWAP1 SWAP2 PUSH2 0x192E SWAP1 DUP5 SWAP1 PUSH2 0x2044 JUMP JUMPDEST SWAP1 SWAP2 SSTORE POP POP POP POP POP JUMP JUMPDEST PUSH2 0x1940 PUSH2 0x1C0D JUMP JUMPDEST CALLER PUSH1 0x0 SWAP1 DUP2 MSTORE PUSH1 0xB PUSH1 0x20 MSTORE PUSH1 0x40 DUP2 KECCAK256 DUP1 SLOAD DUP4 SWAP3 SWAP1 PUSH2 0x195F SWAP1 DUP5 SWAP1 PUSH2 0x202C JUMP JUMPDEST SWAP1 SWAP2 SSTORE POP POP PUSH1 0x1 SLOAD PUSH2 0x197C SWAP1 PUSH1 0x1 PUSH1 0x1 PUSH1 0xA0 SHL SUB AND CALLER ADDRESS DUP5 PUSH2 0x1BAD JUMP JUMPDEST POP JUMP JUMPDEST PUSH2 0x1987 PUSH2 0x1C0D JUMP JUMPDEST PUSH1 0xA PUSH1 0x20 MSTORE PUSH32 0xBBC70DB1B6C7AFD11E79C0FB0051300458F1A3ACB8EE9789D9B6B26C61AD9BC7 SWAP3 SWAP1 SWAP3 SSTORE PUSH32 0xBFF4442B8ED600BEEB8E26B1279A0F0D14C6EDFAEC26D968EE13C86F7D4C2BA8 SSTORE PUSH1 0x3 PUSH1 0x0 MSTORE PUSH32 0xA856840544DC26124927ADD067D799967EAC11BE13E14D82CC281EA46FA39759 SSTORE JUMP JUMPDEST PUSH1 0x1 PUSH1 0x1 PUSH1 0xA0 SHL SUB DUP2 AND PUSH1 0x0 SWAP1 DUP2 MSTORE PUSH1 0x7 PUSH1 0x20 MSTORE PUSH1 0x40 DUP2 KECCAK256 PUSH1 0x1 DUP2 ADD SLOAD PUSH1 0x2 SWAP1 SWAP2 ADD SLOAD TIMESTAMP SWAP2 SWAP1 PUSH2 0x1A2D SWAP1 PUSH1 0x1E PUSH2 0x200D JUMP JUMPDEST PUSH2 0x1A38 SWAP1 PUSH1 0x18 PUSH2 0x200D JUMP JUMPDEST PUSH2 0x1A43 SWAP1 PUSH1 0x3C PUSH2 0x200D JUMP JUMPDEST PUSH2 0x1A4E SWAP1 PUSH1 0x3C PUSH2 0x200D JUMP JUMPDEST PUSH2 0x1A58 SWAP2 SWAP1 PUSH2 0x202C JUMP JUMPDEST LT ISZERO PUSH2 0x1A7A JUMPI POP PUSH1 0x1 PUSH1 0x1 PUSH1 0xA0 SHL SUB AND PUSH1 0x0 SWAP1 DUP2 MSTORE PUSH1 0x8 PUSH1 0x20 MSTORE PUSH1 0x40 SWAP1 KECCAK256 SLOAD SWAP1 JUMP JUMPDEST PUSH1 0x1 PUSH1 0x1 PUSH1 0xA0 SHL SUB DUP3 AND PUSH1 0x0 SWAP1 DUP2 MSTORE PUSH1 0x7 PUSH1 0x20 MSTORE PUSH1 0x40 DUP2 KECCAK256 PUSH1 0x1 ADD SLOAD PUSH3 0x15180 SWAP1 PUSH2 0x1AA5 SWAP1 TIMESTAMP PUSH2 0x2044 JUMP JUMPDEST PUSH2 0x1AAF SWAP2 SWAP1 PUSH2 0x205B JUMP JUMPDEST PUSH1 0x1 PUSH1 0x1 PUSH1 0xA0 SHL SUB DUP5 AND PUSH1 0x0 SWAP1 DUP2 MSTORE PUSH1 0x7 PUSH1 0x20 MSTORE PUSH1 0x40 DUP2 KECCAK256 PUSH1 0x2 ADD SLOAD SWAP2 SWAP3 POP SWAP1 PUSH2 0x1ADA SWAP1 PUSH1 0x1E PUSH2 0x200D JUMP JUMPDEST PUSH1 0x1 PUSH1 0x1 PUSH1 0xA0 SHL SUB DUP6 AND PUSH1 0x0 SWAP1 DUP2 MSTORE PUSH1 0x8 PUSH1 0x20 MSTORE PUSH1 0x40 SWAP1 KECCAK256 SLOAD PUSH2 0x1AFD SWAP2 SWAP1 PUSH2 0x205B JUMP JUMPDEST PUSH1 0x1 PUSH1 0x1 PUSH1 0xA0 SHL SUB DUP6 AND PUSH1 0x0 SWAP1 DUP2 MSTORE PUSH1 0xC PUSH1 0x20 MSTORE PUSH1 0x40 DUP2 KECCAK256 SLOAD SWAP2 SWAP3 POP SWAP1 PUSH2 0x1B24 DUP5 DUP5 PUSH2 0x200D JUMP JUMPDEST PUSH2 0x1B2E SWAP2 SWAP1 PUSH2 0x2044 JUMP JUMPDEST SWAP6 SWAP5 POP POP POP POP POP JUMP JUMPDEST PUSH2 0x1B3F PUSH2 0x1C0D JUMP JUMPDEST PUSH1 0x1 PUSH1 0x1 PUSH1 0xA0 SHL SUB DUP2 AND PUSH2 0x1BA4 JUMPI PUSH1 0x40 MLOAD PUSH3 0x461BCD PUSH1 0xE5 SHL DUP2 MSTORE PUSH1 0x20 PUSH1 0x4 DUP3 ADD MSTORE PUSH1 0x26 PUSH1 0x24 DUP3 ADD MSTORE PUSH32 0x4F776E61626C653A206E6577206F776E657220697320746865207A65726F2061 PUSH1 0x44 DUP3 ADD MSTORE PUSH6 0x646472657373 PUSH1 0xD0 SHL PUSH1 0x64 DUP3 ADD MSTORE PUSH1 0x84 ADD PUSH2 0x479 JUMP JUMPDEST PUSH2 0x197C DUP2 PUSH2 0x1C67 JUMP JUMPDEST PUSH1 0x40 DUP1 MLOAD PUSH1 0x1 PUSH1 0x1 PUSH1 0xA0 SHL SUB DUP6 DUP2 AND PUSH1 0x24 DUP4 ADD MSTORE DUP5 AND PUSH1 0x44 DUP3 ADD MSTORE PUSH1 0x64 DUP1 DUP3 ADD DUP5 SWAP1 MSTORE DUP3 MLOAD DUP1 DUP4 SUB SWAP1 SWAP2 ADD DUP2 MSTORE PUSH1 0x84 SWAP1 SWAP2 ADD SWAP1 SWAP2 MSTORE PUSH1 0x20 DUP2 ADD DUP1 MLOAD PUSH1 0x1 PUSH1 0x1 PUSH1 0xE0 SHL SUB AND PUSH4 0x23B872DD PUSH1 0xE0 SHL OR SWAP1 MSTORE PUSH2 0x1C07 SWAP1 DUP6 SWAP1 PUSH2 0x1CB7 JUMP JUMPDEST POP POP POP POP JUMP JUMPDEST PUSH1 0x0 SLOAD PUSH1 0x1 PUSH1 0x1 PUSH1 0xA0 SHL SUB AND CALLER EQ PUSH2 0xEC7 JUMPI PUSH1 0x40 MLOAD PUSH3 0x461BCD PUSH1 0xE5 SHL DUP2 MSTORE PUSH1 0x20 PUSH1 0x4 DUP3 ADD DUP2 SWAP1 MSTORE PUSH1 0x24 DUP3 ADD MSTORE PUSH32 0x4F776E61626C653A2063616C6C6572206973206E6F7420746865206F776E6572 PUSH1 0x44 DUP3 ADD MSTORE PUSH1 0x64 ADD PUSH2 0x479 JUMP JUMPDEST PUSH1 0x0 DUP1 SLOAD PUSH1 0x1 PUSH1 0x1 PUSH1 0xA0 SHL SUB DUP4 DUP2 AND PUSH1 0x1 PUSH1 0x1 PUSH1 0xA0 SHL SUB NOT DUP4 AND DUP2 OR DUP5 SSTORE PUSH1 0x40 MLOAD SWAP2 SWAP1 SWAP3 AND SWAP3 DUP4 SWAP2 PUSH32 0x8BE0079C531659141344CD1FD0A4F28419497F9722A3DAAFE3B4186F6B6457E0 SWAP2 SWAP1 LOG3 POP POP JUMP JUMPDEST PUSH1 0x0 PUSH2 0x1D0C DUP3 PUSH1 0x40 MLOAD DUP1 PUSH1 0x40 ADD PUSH1 0x40 MSTORE DUP1 PUSH1 0x20 DUP2 MSTORE PUSH1 0x20 ADD PUSH32 0x5361666545524332303A206C6F772D6C6576656C2063616C6C206661696C6564 DUP2 MSTORE POP DUP6 PUSH1 0x1 PUSH1 0x1 PUSH1 0xA0 SHL SUB AND PUSH2 0x1D8E SWAP1 SWAP3 SWAP2 SWAP1 PUSH4 0xFFFFFFFF AND JUMP JUMPDEST DUP1 MLOAD SWAP1 SWAP2 POP ISZERO PUSH2 0x1D89 JUMPI DUP1 DUP1 PUSH1 0x20 ADD SWAP1 MLOAD DUP2 ADD SWAP1 PUSH2 0x1D2A SWAP2 SWAP1 PUSH2 0x2096 JUMP JUMPDEST PUSH2 0x1D89 JUMPI PUSH1 0x40 MLOAD PUSH3 0x461BCD PUSH1 0xE5 SHL DUP2 MSTORE PUSH1 0x20 PUSH1 0x4 DUP3 ADD MSTORE PUSH1 0x2A PUSH1 0x24 DUP3 ADD MSTORE PUSH32 0x5361666545524332303A204552433230206F7065726174696F6E20646964206E PUSH1 0x44 DUP3 ADD MSTORE PUSH10 0x1BDD081CDD58D8D95959 PUSH1 0xB2 SHL PUSH1 0x64 DUP3 ADD MSTORE PUSH1 0x84 ADD PUSH2 0x479 JUMP JUMPDEST POP POP POP JUMP JUMPDEST PUSH1 0x60 PUSH2 0x1D9D DUP5 DUP5 PUSH1 0x0 DUP6 PUSH2 0x1DA5 JUMP JUMPDEST SWAP5 SWAP4 POP POP POP POP JUMP JUMPDEST PUSH1 0x60 DUP3 SELFBALANCE LT ISZERO PUSH2 0x1E06 JUMPI PUSH1 0x40 MLOAD PUSH3 0x461BCD PUSH1 0xE5 SHL DUP2 MSTORE PUSH1 0x20 PUSH1 0x4 DUP3 ADD MSTORE PUSH1 0x26 PUSH1 0x24 DUP3 ADD MSTORE PUSH32 0x416464726573733A20696E73756666696369656E742062616C616E636520666F PUSH1 0x44 DUP3 ADD MSTORE PUSH6 0x1C8818D85B1B PUSH1 0xD2 SHL PUSH1 0x64 DUP3 ADD MSTORE PUSH1 0x84 ADD PUSH2 0x479 JUMP JUMPDEST PUSH1 0x0 DUP1 DUP7 PUSH1 0x1 PUSH1 0x1 PUSH1 0xA0 SHL SUB AND DUP6 DUP8 PUSH1 0x40 MLOAD PUSH2 0x1E22 SWAP2 SWAP1 PUSH2 0x20E4 JUMP JUMPDEST PUSH1 0x0 PUSH1 0x40 MLOAD DUP1 DUP4 SUB DUP2 DUP6 DUP8 GAS CALL SWAP3 POP POP POP RETURNDATASIZE DUP1 PUSH1 0x0 DUP2 EQ PUSH2 0x1E5F JUMPI PUSH1 0x40 MLOAD SWAP2 POP PUSH1 0x1F NOT PUSH1 0x3F RETURNDATASIZE ADD AND DUP3 ADD PUSH1 0x40 MSTORE RETURNDATASIZE DUP3 MSTORE RETURNDATASIZE PUSH1 0x0 PUSH1 0x20 DUP5 ADD RETURNDATACOPY PUSH2 0x1E64 JUMP JUMPDEST PUSH1 0x60 SWAP2 POP JUMPDEST POP SWAP2 POP SWAP2 POP PUSH2 0x1E75 DUP8 DUP4 DUP4 DUP8 PUSH2 0x1E80 JUMP JUMPDEST SWAP8 SWAP7 POP POP POP POP POP POP POP JUMP JUMPDEST PUSH1 0x60 DUP4 ISZERO PUSH2 0x1EEF JUMPI DUP3 MLOAD PUSH1 0x0 SUB PUSH2 0x1EE8 JUMPI PUSH1 0x1 PUSH1 0x1 PUSH1 0xA0 SHL SUB DUP6 AND EXTCODESIZE PUSH2 0x1EE8 JUMPI PUSH1 0x40 MLOAD PUSH3 0x461BCD PUSH1 0xE5 SHL DUP2 MSTORE PUSH1 0x20 PUSH1 0x4 DUP3 ADD MSTORE PUSH1 0x1D PUSH1 0x24 DUP3 ADD MSTORE PUSH32 0x416464726573733A2063616C6C20746F206E6F6E2D636F6E7472616374000000 PUSH1 0x44 DUP3 ADD MSTORE PUSH1 0x64 ADD PUSH2 0x479 JUMP JUMPDEST POP DUP2 PUSH2 0x1D9D JUMP JUMPDEST PUSH2 0x1D9D DUP4 DUP4 DUP2 MLOAD ISZERO PUSH2 0x1F04 JUMPI DUP2 MLOAD DUP1 DUP4 PUSH1 0x20 ADD REVERT JUMPDEST DUP1 PUSH1 0x40 MLOAD PUSH3 0x461BCD PUSH1 0xE5 SHL DUP2 MSTORE PUSH1 0x4 ADD PUSH2 0x479 SWAP2 SWAP1 PUSH2 0x2100 JUMP JUMPDEST DUP1 CALLDATALOAD PUSH1 0x1 PUSH1 0x1 PUSH1 0xA0 SHL SUB DUP2 AND DUP2 EQ PUSH2 0x6C2 JUMPI PUSH1 0x0 DUP1 REVERT JUMPDEST PUSH1 0x0 PUSH1 0x20 DUP3 DUP5 SUB SLT ISZERO PUSH2 0x1F47 JUMPI PUSH1 0x0 DUP1 REVERT JUMPDEST PUSH2 0x1F50 DUP3 PUSH2 0x1F1E JUMP JUMPDEST SWAP4 SWAP3 POP POP POP JUMP JUMPDEST PUSH1 0x0 DUP1 PUSH1 0x0 DUP1 PUSH1 0x80 DUP6 DUP8 SUB SLT ISZERO PUSH2 0x1F6D JUMPI PUSH1 0x0 DUP1 REVERT JUMPDEST PUSH2 0x1F76 DUP6 PUSH2 0x1F1E JUMP JUMPDEST SWAP7 PUSH1 0x20 DUP7 ADD CALLDATALOAD SWAP7 POP PUSH1 0x40 DUP7 ADD CALLDATALOAD SWAP6 PUSH1 0x60 ADD CALLDATALOAD SWAP5 POP SWAP3 POP POP POP JUMP JUMPDEST PUSH1 0x0 PUSH1 0x20 DUP3 DUP5 SUB SLT ISZERO PUSH2 0x1FA2 JUMPI PUSH1 0x0 DUP1 REVERT JUMPDEST POP CALLDATALOAD SWAP2 SWAP1 POP JUMP JUMPDEST PUSH1 0x0 DUP1 PUSH1 0x0 PUSH1 0x60 DUP5 DUP7 SUB SLT ISZERO PUSH2 0x1FBE JUMPI PUSH1 0x0 DUP1 REVERT JUMPDEST POP POP DUP2 CALLDATALOAD SWAP4 PUSH1 0x20 DUP4 ADD CALLDATALOAD SWAP4 POP PUSH1 0x40 SWAP1 SWAP3 ADD CALLDATALOAD SWAP2 SWAP1 POP JUMP JUMPDEST PUSH1 0x0 DUP1 PUSH1 0x40 DUP4 DUP6 SUB SLT ISZERO PUSH2 0x1FE8 JUMPI PUSH1 0x0 DUP1 REVERT JUMPDEST POP POP DUP1 CALLDATALOAD SWAP3 PUSH1 0x20 SWAP1 SWAP2 ADD CALLDATALOAD SWAP2 POP JUMP JUMPDEST PUSH4 0x4E487B71 PUSH1 0xE0 SHL PUSH1 0x0 MSTORE PUSH1 0x11 PUSH1 0x4 MSTORE PUSH1 0x24 PUSH1 0x0 REVERT JUMPDEST PUSH1 0x0 DUP2 PUSH1 0x0 NOT DIV DUP4 GT DUP3 ISZERO ISZERO AND ISZERO PUSH2 0x2027 JUMPI PUSH2 0x2027 PUSH2 0x1FF7 JUMP JUMPDEST POP MUL SWAP1 JUMP JUMPDEST PUSH1 0x0 DUP3 NOT DUP3 GT ISZERO PUSH2 0x203F JUMPI PUSH2 0x203F PUSH2 0x1FF7 JUMP JUMPDEST POP ADD SWAP1 JUMP JUMPDEST PUSH1 0x0 DUP3 DUP3 LT ISZERO PUSH2 0x2056 JUMPI PUSH2 0x2056 PUSH2 0x1FF7 JUMP JUMPDEST POP SUB SWAP1 JUMP JUMPDEST PUSH1 0x0 DUP3 PUSH2 0x2078 JUMPI PUSH4 0x4E487B71 PUSH1 0xE0 SHL PUSH1 0x0 MSTORE PUSH1 0x12 PUSH1 0x4 MSTORE PUSH1 0x24 PUSH1 0x0 REVERT JUMPDEST POP DIV SWAP1 JUMP JUMPDEST PUSH1 0x1 PUSH1 0x1 PUSH1 0xA0 SHL SUB SWAP3 SWAP1 SWAP3 AND DUP3 MSTORE PUSH1 0x20 DUP3 ADD MSTORE PUSH1 0x40 ADD SWAP1 JUMP JUMPDEST PUSH1 0x0 PUSH1 0x20 DUP3 DUP5 SUB SLT ISZERO PUSH2 0x20A8 JUMPI PUSH1 0x0 DUP1 REVERT JUMPDEST DUP2 MLOAD DUP1 ISZERO ISZERO DUP2 EQ PUSH2 0x1F50 JUMPI PUSH1 0x0 DUP1 REVERT JUMPDEST PUSH1 0x0 JUMPDEST DUP4 DUP2 LT ISZERO PUSH2 0x20D3 JUMPI DUP2 DUP2 ADD MLOAD DUP4 DUP3 ADD MSTORE PUSH1 0x20 ADD PUSH2 0x20BB JUMP JUMPDEST DUP4 DUP2 GT ISZERO PUSH2 0x1C07 JUMPI POP POP PUSH1 0x0 SWAP2 ADD MSTORE JUMP JUMPDEST PUSH1 0x0 DUP3 MLOAD PUSH2 0x20F6 DUP2 DUP5 PUSH1 0x20 DUP8 ADD PUSH2 0x20B8 JUMP JUMPDEST SWAP2 SWAP1 SWAP2 ADD SWAP3 SWAP2 POP POP JUMP JUMPDEST PUSH1 0x20 DUP2 MSTORE PUSH1 0x0 DUP3 MLOAD DUP1 PUSH1 0x20 DUP5 ADD MSTORE PUSH2 0x211F DUP2 PUSH1 0x40 DUP6 ADD PUSH1 0x20 DUP8 ADD PUSH2 0x20B8 JUMP JUMPDEST PUSH1 0x1F ADD PUSH1 0x1F NOT AND SWAP2 SWAP1 SWAP2 ADD PUSH1 0x40 ADD SWAP3 SWAP2 POP POP JUMP INVALID PUSH13 0xDE3CEA4B3A3FB2488B2808BAE7 SSTORE PUSH16 0x4A405E50F65E1794383BC026131B13C3 0xC5 PUSH22 0xC31FEA594A6EB97C8E9D3F9CAEE4C16218C6EF37E923 0x23 0x4C 0xF 0xE9 ADD 0x4A PUSH2 0xE792 0xE8 0x5D MUL JUMPI EXP DUP1 SWAP3 0xD0 SWAP11 PUSH15 0x3A57665BC3815A2699A4074001BF1C 0xCA 0xBF PUSH7 0xF5A36A2646970 PUSH7 0x73582212204176 0xC5 CODESIZE PUSH32 0x98CE649DB477DD21DC0AC4370BB46C7B3B50D75533537794A4832364736F6C63 NUMBER STOP ADDMOD 0xD STOP CALLER "
				},
				"gasEstimates": {
					"creation": {
						"codeDepositCost": "1729800",
						"executionCost": "infinite",
						"totalCost": "infinite"
					},
					"external": {
						"APY(uint256)": "2539",
						"APYPer(uint256)": "2494",
						"AdminAddToken(uint256)": "infinite",
						"BurnAmount(address)": "2553",
						"ClaimRewards(address)": "infinite",
						"DepositTokens(address,uint256,uint256,uint256)": "infinite",
						"Details(address)": "11185",
						"ERC20Address()": "2359",
						"InterestAmount(address)": "2641",
						"RewardAmount(address)": "2553",
						"SetAPY(uint256,uint256,uint256)": "68889",
						"SetRewardPersentage(uint256,uint256,uint256)": "68833",
						"Tokens(address)": "2576",
						"WithdrawTokens(address)": "infinite",
						"getTaxPenalty()": "4496",
						"owner()": "2409",
						"renounceOwnership()": "infinite",
						"setTexAndPenalty(uint256,uint256)": "44514",
						"totalStakedTokens()": "2395",
						"transferOwnership(address)": "28465",
						"viewBurnRewards(address)": "7231",
						"viewRewards(address)": "infinite"
					}
				},
				"methodIdentifiers": {
					"APY(uint256)": "186cb65b",
					"APYPer(uint256)": "897b3a68",
					"AdminAddToken(uint256)": "c0cd40ee",
					"BurnAmount(address)": "22b72666",
					"ClaimRewards(address)": "0178be5f",
					"DepositTokens(address,uint256,uint256,uint256)": "10c404da",
					"Details(address)": "e88cc2be",
					"ERC20Address()": "a6021ace",
					"InterestAmount(address)": "662b12c9",
					"RewardAmount(address)": "777b4cd8",
					"SetAPY(uint256,uint256,uint256)": "21736665",
					"SetRewardPersentage(uint256,uint256,uint256)": "d6f80a25",
					"Tokens(address)": "0deef63a",
					"WithdrawTokens(address)": "9131a05a",
					"getTaxPenalty()": "2e886f1f",
					"owner()": "8da5cb5b",
					"renounceOwnership()": "715018a6",
					"setTexAndPenalty(uint256,uint256)": "264b4af6",
					"totalStakedTokens()": "3ae73259",
					"transferOwnership(address)": "f2fde38b",
					"viewBurnRewards(address)": "032ad8fb",
					"viewRewards(address)": "da40ef80"
				}
			},
			"storageLayout": {
				"storage": [
					{
						"astId": 7,
						"contract": "contracts/Staking/StakingFinal.sol:TokenStaking",
						"label": "_owner",
						"offset": 0,
						"slot": "0",
						"type": "t_address"
					},
					{
						"astId": 1031,
						"contract": "contracts/Staking/StakingFinal.sol:TokenStaking",
						"label": "ERC20Address",
						"offset": 0,
						"slot": "1",
						"type": "t_address"
					},
					{
						"astId": 1033,
						"contract": "contracts/Staking/StakingFinal.sol:TokenStaking",
						"label": "ownerAddress",
						"offset": 0,
						"slot": "2",
						"type": "t_address"
					},
					{
						"astId": 1035,
						"contract": "contracts/Staking/StakingFinal.sol:TokenStaking",
						"label": "totalStakedTokens",
						"offset": 0,
						"slot": "3",
						"type": "t_uint256"
					},
					{
						"astId": 1037,
						"contract": "contracts/Staking/StakingFinal.sol:TokenStaking",
						"label": "Check",
						"offset": 0,
						"slot": "4",
						"type": "t_bool"
					},
					{
						"astId": 1039,
						"contract": "contracts/Staking/StakingFinal.sol:TokenStaking",
						"label": "Tax",
						"offset": 0,
						"slot": "5",
						"type": "t_uint256"
					},
					{
						"astId": 1041,
						"contract": "contracts/Staking/StakingFinal.sol:TokenStaking",
						"label": "penalty",
						"offset": 0,
						"slot": "6",
						"type": "t_uint256"
					},
					{
						"astId": 1057,
						"contract": "contracts/Staking/StakingFinal.sol:TokenStaking",
						"label": "Details",
						"offset": 0,
						"slot": "7",
						"type": "t_mapping(t_address,t_struct(Staker)1052_storage)"
					},
					{
						"astId": 1061,
						"contract": "contracts/Staking/StakingFinal.sol:TokenStaking",
						"label": "InterestAmount",
						"offset": 0,
						"slot": "8",
						"type": "t_mapping(t_address,t_uint256)"
					},
					{
						"astId": 1065,
						"contract": "contracts/Staking/StakingFinal.sol:TokenStaking",
						"label": "APY",
						"offset": 0,
						"slot": "9",
						"type": "t_mapping(t_uint256,t_uint256)"
					},
					{
						"astId": 1069,
						"contract": "contracts/Staking/StakingFinal.sol:TokenStaking",
						"label": "APYPer",
						"offset": 0,
						"slot": "10",
						"type": "t_mapping(t_uint256,t_uint256)"
					},
					{
						"astId": 1073,
						"contract": "contracts/Staking/StakingFinal.sol:TokenStaking",
						"label": "Tokens",
						"offset": 0,
						"slot": "11",
						"type": "t_mapping(t_address,t_uint256)"
					},
					{
						"astId": 1077,
						"contract": "contracts/Staking/StakingFinal.sol:TokenStaking",
						"label": "RewardAmount",
						"offset": 0,
						"slot": "12",
						"type": "t_mapping(t_address,t_uint256)"
					},
					{
						"astId": 1081,
						"contract": "contracts/Staking/StakingFinal.sol:TokenStaking",
						"label": "BurnAmount",
						"offset": 0,
						"slot": "13",
						"type": "t_mapping(t_address,t_uint256)"
					}
				],
				"types": {
					"t_address": {
						"encoding": "inplace",
						"label": "address",
						"numberOfBytes": "20"
					},
					"t_bool": {
						"encoding": "inplace",
						"label": "bool",
						"numberOfBytes": "1"
					},
					"t_mapping(t_address,t_struct(Staker)1052_storage)": {
						"encoding": "mapping",
						"key": "t_address",
						"label": "mapping(address => struct TokenStaking.Staker)",
						"numberOfBytes": "32",
						"value": "t_struct(Staker)1052_storage"
					},
					"t_mapping(t_address,t_uint256)": {
						"encoding": "mapping",
						"key": "t_address",
						"label": "mapping(address => uint256)",
						"numberOfBytes": "32",
						"value": "t_uint256"
					},
					"t_mapping(t_uint256,t_uint256)": {
						"encoding": "mapping",
						"key": "t_uint256",
						"label": "mapping(uint256 => uint256)",
						"numberOfBytes": "32",
						"value": "t_uint256"
					},
					"t_struct(Staker)1052_storage": {
						"encoding": "inplace",
						"label": "struct TokenStaking.Staker",
						"members": [
							{
								"astId": 1043,
								"contract": "contracts/Staking/StakingFinal.sol:TokenStaking",
								"label": "depositTokens",
								"offset": 0,
								"slot": "0",
								"type": "t_uint256"
							},
							{
								"astId": 1045,
								"contract": "contracts/Staking/StakingFinal.sol:TokenStaking",
								"label": "stakeTime",
								"offset": 0,
								"slot": "1",
								"type": "t_uint256"
							},
							{
								"astId": 1047,
								"contract": "contracts/Staking/StakingFinal.sol:TokenStaking",
								"label": "StakeMonth",
								"offset": 0,
								"slot": "2",
								"type": "t_uint256"
							},
							{
								"astId": 1049,
								"contract": "contracts/Staking/StakingFinal.sol:TokenStaking",
								"label": "EarnPersentage",
								"offset": 0,
								"slot": "3",
								"type": "t_uint256"
							},
							{
								"astId": 1051,
								"contract": "contracts/Staking/StakingFinal.sol:TokenStaking",
								"label": "check",
								"offset": 0,
								"slot": "4",
								"type": "t_bool"
							}
						],
						"numberOfBytes": "160"
					},
					"t_uint256": {
						"encoding": "inplace",
						"label": "uint256",
						"numberOfBytes": "32"
					}
				}
			},
			"userdoc": {
				"kind": "user",
				"methods": {},
				"version": 1
			}
		}
	}
}