{
	"contracts/Staking/ERC20_flattened.sol": {
		"ERC20FT": {
			"abi": [
				{
					"inputs": [],
					"stateMutability": "nonpayable",
					"type": "constructor"
				},
				{
					"anonymous": false,
					"inputs": [
						{
							"indexed": true,
							"internalType": "address",
							"name": "owner",
							"type": "address"
						},
						{
							"indexed": true,
							"internalType": "address",
							"name": "spender",
							"type": "address"
						},
						{
							"indexed": false,
							"internalType": "uint256",
							"name": "value",
							"type": "uint256"
						}
					],
					"name": "Approval",
					"type": "event"
				},
				{
					"anonymous": false,
					"inputs": [
						{
							"indexed": true,
							"internalType": "address",
							"name": "previousOwner",
							"type": "address"
						},
						{
							"indexed": true,
							"internalType": "address",
							"name": "newOwner",
							"type": "address"
						}
					],
					"name": "OwnershipTransferred",
					"type": "event"
				},
				{
					"anonymous": false,
					"inputs": [
						{
							"indexed": true,
							"internalType": "address",
							"name": "from",
							"type": "address"
						},
						{
							"indexed": true,
							"internalType": "address",
							"name": "to",
							"type": "address"
						},
						{
							"indexed": false,
							"internalType": "uint256",
							"name": "value",
							"type": "uint256"
						}
					],
					"name": "Transfer",
					"type": "event"
				},
				{
					"inputs": [
						{
							"internalType": "address",
							"name": "owner",
							"type": "address"
						},
						{
							"internalType": "address",
							"name": "spender",
							"type": "address"
						}
					],
					"name": "allowance",
					"outputs": [
						{
							"internalType": "uint256",
							"name": "",
							"type": "uint256"
						}
					],
					"stateMutability": "view",
					"type": "function"
				},
				{
					"inputs": [
						{
							"internalType": "address",
							"name": "spender",
							"type": "address"
						},
						{
							"internalType": "uint256",
							"name": "amount",
							"type": "uint256"
						}
					],
					"name": "approve",
					"outputs": [
						{
							"internalType": "bool",
							"name": "",
							"type": "bool"
						}
					],
					"stateMutability": "nonpayable",
					"type": "function"
				},
				{
					"inputs": [
						{
							"internalType": "address",
							"name": "account",
							"type": "address"
						}
					],
					"name": "balanceOf",
					"outputs": [
						{
							"internalType": "uint256",
							"name": "",
							"type": "uint256"
						}
					],
					"stateMutability": "view",
					"type": "function"
				},
				{
					"inputs": [],
					"name": "decimals",
					"outputs": [
						{
							"internalType": "uint8",
							"name": "",
							"type": "uint8"
						}
					],
					"stateMutability": "view",
					"type": "function"
				},
				{
					"inputs": [
						{
							"internalType": "address",
							"name": "spender",
							"type": "address"
						},
						{
							"internalType": "uint256",
							"name": "subtractedValue",
							"type": "uint256"
						}
					],
					"name": "decreaseAllowance",
					"outputs": [
						{
							"internalType": "bool",
							"name": "",
							"type": "bool"
						}
					],
					"stateMutability": "nonpayable",
					"type": "function"
				},
				{
					"inputs": [
						{
							"internalType": "address",
							"name": "spender",
							"type": "address"
						},
						{
							"internalType": "uint256",
							"name": "addedValue",
							"type": "uint256"
						}
					],
					"name": "increaseAllowance",
					"outputs": [
						{
							"internalType": "bool",
							"name": "",
							"type": "bool"
						}
					],
					"stateMutability": "nonpayable",
					"type": "function"
				},
				{
					"inputs": [],
					"name": "name",
					"outputs": [
						{
							"internalType": "string",
							"name": "",
							"type": "string"
						}
					],
					"stateMutability": "view",
					"type": "function"
				},
				{
					"inputs": [],
					"name": "owner",
					"outputs": [
						{
							"internalType": "address",
							"name": "",
							"type": "address"
						}
					],
					"stateMutability": "view",
					"type": "function"
				},
				{
					"inputs": [],
					"name": "renounceOwnership",
					"outputs": [],
					"stateMutability": "nonpayable",
					"type": "function"
				},
				{
					"inputs": [],
					"name": "symbol",
					"outputs": [
						{
							"internalType": "string",
							"name": "",
							"type": "string"
						}
					],
					"stateMutability": "view",
					"type": "function"
				},
				{
					"inputs": [],
					"name": "totalSupply",
					"outputs": [
						{
							"internalType": "uint256",
							"name": "",
							"type": "uint256"
						}
					],
					"stateMutability": "view",
					"type": "function"
				},
				{
					"inputs": [
						{
							"internalType": "address",
							"name": "to",
							"type": "address"
						},
						{
							"internalType": "uint256",
							"name": "amount",
							"type": "uint256"
						}
					],
					"name": "transfer",
					"outputs": [
						{
							"internalType": "bool",
							"name": "",
							"type": "bool"
						}
					],
					"stateMutability": "nonpayable",
					"type": "function"
				},
				{
					"inputs": [
						{
							"internalType": "address",
							"name": "from",
							"type": "address"
						},
						{
							"internalType": "address",
							"name": "to",
							"type": "address"
						},
						{
							"internalType": "uint256",
							"name": "amount",
							"type": "uint256"
						}
					],
					"name": "transferFrom",
					"outputs": [
						{
							"internalType": "bool",
							"name": "",
							"type": "bool"
						}
					],
					"stateMutability": "nonpayable",
					"type": "function"
				},
				{
					"inputs": [
						{
							"internalType": "address",
							"name": "newOwner",
							"type": "address"
						}
					],
					"name": "transferOwnership",
					"outputs": [],
					"stateMutability": "nonpayable",
					"type": "function"
				}
			],
			"devdoc": {
				"events": {
					"Approval(address,address,uint256)": {
						"details": "Emitted when the allowance of a `spender` for an `owner` is set by a call to {approve}. `value` is the new allowance."
					},
					"Transfer(address,address,uint256)": {
						"details": "Emitted when `value` tokens are moved from one account (`from`) to another (`to`). Note that `value` may be zero."
					}
				},
				"kind": "dev",
				"methods": {
					"allowance(address,address)": {
						"details": "See {IERC20-allowance}."
					},
					"approve(address,uint256)": {
						"details": "See {IERC20-approve}. NOTE: If `amount` is the maximum `uint256`, the allowance is not updated on `transferFrom`. This is semantically equivalent to an infinite approval. Requirements: - `spender` cannot be the zero address."
					},
					"balanceOf(address)": {
						"details": "See {IERC20-balanceOf}."
					},
					"decimals()": {
						"details": "Returns the number of decimals used to get its user representation. For example, if `decimals` equals `2`, a balance of `505` tokens should be displayed to a user as `5.05` (`505 / 10 ** 2`). Tokens usually opt for a value of 18, imitating the relationship between Ether and Wei. This is the value {ERC20} uses, unless this function is overridden; NOTE: This information is only used for _display_ purposes: it in no way affects any of the arithmetic of the contract, including {IERC20-balanceOf} and {IERC20-transfer}."
					},
					"decreaseAllowance(address,uint256)": {
						"details": "Atomically decreases the allowance granted to `spender` by the caller. This is an alternative to {approve} that can be used as a mitigation for problems described in {IERC20-approve}. Emits an {Approval} event indicating the updated allowance. Requirements: - `spender` cannot be the zero address. - `spender` must have allowance for the caller of at least `subtractedValue`."
					},
					"increaseAllowance(address,uint256)": {
						"details": "Atomically increases the allowance granted to `spender` by the caller. This is an alternative to {approve} that can be used as a mitigation for problems described in {IERC20-approve}. Emits an {Approval} event indicating the updated allowance. Requirements: - `spender` cannot be the zero address."
					},
					"name()": {
						"details": "Returns the name of the token."
					},
					"owner()": {
						"details": "Returns the address of the current owner."
					},
					"renounceOwnership()": {
						"details": "Leaves the contract without owner. It will not be possible to call `onlyOwner` functions anymore. Can only be called by the current owner. NOTE: Renouncing ownership will leave the contract without an owner, thereby removing any functionality that is only available to the owner."
					},
					"symbol()": {
						"details": "Returns the symbol of the token, usually a shorter version of the name."
					},
					"totalSupply()": {
						"details": "See {IERC20-totalSupply}."
					},
					"transfer(address,uint256)": {
						"details": "See {IERC20-transfer}. Requirements: - `to` cannot be the zero address. - the caller must have a balance of at least `amount`."
					},
					"transferFrom(address,address,uint256)": {
						"details": "See {IERC20-transferFrom}. Emits an {Approval} event indicating the updated allowance. This is not required by the EIP. See the note at the beginning of {ERC20}. NOTE: Does not update the allowance if the current allowance is the maximum `uint256`. Requirements: - `from` and `to` cannot be the zero address. - `from` must have a balance of at least `amount`. - the caller must have allowance for ``from``'s tokens of at least `amount`."
					},
					"transferOwnership(address)": {
						"details": "Transfers ownership of the contract to a new account (`newOwner`). Can only be called by the current owner."
					}
				},
				"version": 1
			},
			"evm": {
				"assembly": "    /* \"contracts/Staking/ERC20_flattened.sol\":19988:20127  contract ERC20FT is ERC20, Ownable {... */\n  mstore(0x40, 0x80)\n    /* \"contracts/Staking/ERC20_flattened.sol\":20029:20125  constructor() ERC20(\"MyToken\", \"MTK\") {... */\n  callvalue\n  dup1\n  iszero\n  tag_1\n  jumpi\n  0x00\n  dup1\n  revert\ntag_1:\n  pop\n    /* \"contracts/Staking/ERC20_flattened.sol\":8885:8998  constructor(string memory name_, string memory symbol_) {... */\n  mload(0x40)\n  dup1\n  0x40\n  add\n  0x40\n  mstore\n  dup1\n  0x07\n  dup2\n  mstore\n  0x20\n  add\n  shl(0xc9, 0x26bcaa37b5b2b7)\n  dup2\n  mstore\n  pop\n  mload(0x40)\n  dup1\n  0x40\n  add\n  0x40\n  mstore\n  dup1\n  0x03\n  dup2\n  mstore\n  0x20\n  add\n  shl(0xe8, 0x4d544b)\n  dup2\n  mstore\n  pop\n    /* \"contracts/Staking/ERC20_flattened.sol\":8959:8964  name_ */\n  dup2\n    /* \"contracts/Staking/ERC20_flattened.sol\":8951:8956  _name */\n  0x03\n    /* \"contracts/Staking/ERC20_flattened.sol\":8951:8964  _name = name_ */\n  swap1\n  dup2\n  tag_6\n  swap2\n  swap1\n  tag_7\n  jump\t// in\ntag_6:\n  pop\n    /* \"contracts/Staking/ERC20_flattened.sol\":8974:8981  _symbol */\n  0x04\n    /* \"contracts/Staking/ERC20_flattened.sol\":8974:8991  _symbol = symbol_ */\n  tag_8\n    /* \"contracts/Staking/ERC20_flattened.sol\":8984:8991  symbol_ */\n  dup3\n    /* \"contracts/Staking/ERC20_flattened.sol\":8974:8981  _symbol */\n  dup3\n    /* \"contracts/Staking/ERC20_flattened.sol\":8974:8991  _symbol = symbol_ */\n  tag_7\n  jump\t// in\ntag_8:\n  pop\n    /* \"contracts/Staking/ERC20_flattened.sol\":8885:8998  constructor(string memory name_, string memory symbol_) {... */\n  pop\n  pop\n    /* \"contracts/Staking/ERC20_flattened.sol\":1794:1826  _transferOwnership(_msgSender()) */\n  tag_10\n    /* \"contracts/Staking/ERC20_flattened.sol\":1813:1825  _msgSender() */\n  tag_11\n    /* \"contracts/Staking/ERC20_flattened.sol\":1813:1823  _msgSender */\n  shl(0x20, tag_12)\n    /* \"contracts/Staking/ERC20_flattened.sol\":1813:1825  _msgSender() */\n  0x20\n  shr\n  jump\t// in\ntag_11:\n    /* \"contracts/Staking/ERC20_flattened.sol\":1794:1812  _transferOwnership */\n  tag_13\n    /* \"contracts/Staking/ERC20_flattened.sol\":1794:1826  _transferOwnership(_msgSender()) */\n  jump\t// in\ntag_10:\n    /* \"contracts/Staking/ERC20_flattened.sol\":20077:20118  _mint(msg.sender, 1000000000 *1000000000) */\n  tag_15\n    /* \"contracts/Staking/ERC20_flattened.sol\":20083:20093  msg.sender */\n  caller\n    /* \"contracts/Staking/ERC20_flattened.sol\":20095:20117  1000000000 *1000000000 */\n  0x0de0b6b3a7640000\n    /* \"contracts/Staking/ERC20_flattened.sol\":20077:20082  _mint */\n  tag_16\n    /* \"contracts/Staking/ERC20_flattened.sol\":20077:20118  _mint(msg.sender, 1000000000 *1000000000) */\n  jump\t// in\ntag_15:\n    /* \"contracts/Staking/ERC20_flattened.sol\":19988:20127  contract ERC20FT is ERC20, Ownable {... */\n  jump(tag_39)\n    /* \"contracts/Staking/ERC20_flattened.sol\":662:758  function _msgSender() internal view virtual returns (address) {... */\ntag_12:\n    /* \"contracts/Staking/ERC20_flattened.sol\":741:751  msg.sender */\n  caller\n  swap1\n    /* \"contracts/Staking/ERC20_flattened.sol\":662:758  function _msgSender() internal view virtual returns (address) {... */\n  jump\t// out\n    /* \"contracts/Staking/ERC20_flattened.sol\":3291:3478  function _transferOwnership(address newOwner) internal virtual {... */\ntag_13:\n    /* \"contracts/Staking/ERC20_flattened.sol\":3383:3389  _owner */\n  0x05\n  dup1\n  sload\n  sub(shl(0xa0, 0x01), 0x01)\n    /* \"contracts/Staking/ERC20_flattened.sol\":3399:3416  _owner = newOwner */\n  dup4\n  dup2\n  and\n  not(sub(shl(0xa0, 0x01), 0x01))\n  dup4\n  and\n  dup2\n  or\n  swap1\n  swap4\n  sstore\n    /* \"contracts/Staking/ERC20_flattened.sol\":3431:3471  OwnershipTransferred(oldOwner, newOwner) */\n  mload(0x40)\n    /* \"contracts/Staking/ERC20_flattened.sol\":3383:3389  _owner */\n  swap2\n  and\n  swap2\n    /* \"contracts/Staking/ERC20_flattened.sol\":3399:3416  _owner = newOwner */\n  swap1\n    /* \"contracts/Staking/ERC20_flattened.sol\":3383:3389  _owner */\n  dup3\n  swap1\n    /* \"contracts/Staking/ERC20_flattened.sol\":3431:3471  OwnershipTransferred(oldOwner, newOwner) */\n  0x8be0079c531659141344cd1fd0a4f28419497f9722a3daafe3b4186f6b6457e0\n  swap1\n    /* \"contracts/Staking/ERC20_flattened.sol\":3364:3380  address oldOwner */\n  0x00\n  swap1\n    /* \"contracts/Staking/ERC20_flattened.sol\":3431:3471  OwnershipTransferred(oldOwner, newOwner) */\n  log3\n    /* \"contracts/Staking/ERC20_flattened.sol\":3354:3478  {... */\n  pop\n    /* \"contracts/Staking/ERC20_flattened.sol\":3291:3478  function _transferOwnership(address newOwner) internal virtual {... */\n  pop\n  jump\t// out\n    /* \"contracts/Staking/ERC20_flattened.sol\":15476:16011  function _mint(address account, uint256 amount) internal virtual {... */\ntag_16:\n  sub(shl(0xa0, 0x01), 0x01)\n    /* \"contracts/Staking/ERC20_flattened.sol\":15559:15580  account != address(0) */\n  dup3\n  and\n    /* \"contracts/Staking/ERC20_flattened.sol\":15551:15616  require(account != address(0), \"ERC20: mint to the zero address\") */\n  tag_21\n  jumpi\n  mload(0x40)\n  shl(0xe5, 0x461bcd)\n  dup2\n  mstore\n    /* \"#utility.yul\":2937:2939   */\n  0x20\n    /* \"contracts/Staking/ERC20_flattened.sol\":15551:15616  require(account != address(0), \"ERC20: mint to the zero address\") */\n  0x04\n  dup3\n  add\n    /* \"#utility.yul\":2919:2940   */\n  mstore\n    /* \"#utility.yul\":2976:2978   */\n  0x1f\n    /* \"#utility.yul\":2956:2974   */\n  0x24\n  dup3\n  add\n    /* \"#utility.yul\":2949:2979   */\n  mstore\n    /* \"#utility.yul\":3015:3048   */\n  0x45524332303a206d696e7420746f20746865207a65726f206164647265737300\n    /* \"#utility.yul\":2995:3013   */\n  0x44\n  dup3\n  add\n    /* \"#utility.yul\":2988:3049   */\n  mstore\n    /* \"#utility.yul\":3066:3084   */\n  0x64\n  add\n    /* \"contracts/Staking/ERC20_flattened.sol\":15551:15616  require(account != address(0), \"ERC20: mint to the zero address\") */\n  mload(0x40)\n  dup1\n  swap2\n  sub\n  swap1\n  revert\ntag_21:\n    /* \"contracts/Staking/ERC20_flattened.sol\":15703:15709  amount */\n  dup1\n    /* \"contracts/Staking/ERC20_flattened.sol\":15687:15699  _totalSupply */\n  0x02\n  0x00\n    /* \"contracts/Staking/ERC20_flattened.sol\":15687:15709  _totalSupply += amount */\n  dup3\n  dup3\n  sload\n  tag_26\n  swap2\n  swap1\n  tag_27\n  jump\t// in\ntag_26:\n  swap1\n  swap2\n  sstore\n  pop\n  pop\n  sub(shl(0xa0, 0x01), 0x01)\n    /* \"contracts/Staking/ERC20_flattened.sol\":15855:15873  _balances[account] */\n  dup3\n  and\n    /* \"contracts/Staking/ERC20_flattened.sol\":15855:15864  _balances */\n  0x00\n    /* \"contracts/Staking/ERC20_flattened.sol\":15855:15873  _balances[account] */\n  dup2\n  dup2\n  mstore\n  0x20\n  dup2\n  dup2\n  mstore\n  0x40\n  dup1\n  dup4\n  keccak256\n    /* \"contracts/Staking/ERC20_flattened.sol\":15855:15883  _balances[account] += amount */\n  dup1\n  sload\n  dup7\n  add\n  swap1\n  sstore\n    /* \"contracts/Staking/ERC20_flattened.sol\":15908:15945  Transfer(address(0), account, amount) */\n  mload\n    /* \"#utility.yul\":3468:3493   */\n  dup5\n  dup2\n  mstore\n    /* \"contracts/Staking/ERC20_flattened.sol\":15908:15945  Transfer(address(0), account, amount) */\n  0xddf252ad1be2c89b69c2b068fc378daa952ba7f163c4a11628f55a4df523b3ef\n  swap2\n    /* \"#utility.yul\":3441:3459   */\n  add\n    /* \"contracts/Staking/ERC20_flattened.sol\":15908:15945  Transfer(address(0), account, amount) */\n  mload(0x40)\n  dup1\n  swap2\n  sub\n  swap1\n  log3\n    /* \"contracts/Staking/ERC20_flattened.sol\":15476:16011  function _mint(address account, uint256 amount) internal virtual {... */\n  pop\n  pop\n  jump\t// out\n    /* \"contracts/Staking/ERC20_flattened.sol\":19089:19210  function _beforeTokenTransfer(... */\ntag_25:\n  pop\n  pop\n  pop\n  jump\t// out\n    /* \"#utility.yul\":14:141   */\ntag_34:\n    /* \"#utility.yul\":75:85   */\n  0x4e487b71\n    /* \"#utility.yul\":70:73   */\n  0xe0\n    /* \"#utility.yul\":66:86   */\n  shl\n    /* \"#utility.yul\":63:64   */\n  0x00\n    /* \"#utility.yul\":56:87   */\n  mstore\n    /* \"#utility.yul\":106:110   */\n  0x41\n    /* \"#utility.yul\":103:104   */\n  0x04\n    /* \"#utility.yul\":96:111   */\n  mstore\n    /* \"#utility.yul\":130:134   */\n  0x24\n    /* \"#utility.yul\":127:128   */\n  0x00\n    /* \"#utility.yul\":120:135   */\n  revert\n    /* \"#utility.yul\":146:526   */\ntag_35:\n    /* \"#utility.yul\":225:226   */\n  0x01\n    /* \"#utility.yul\":221:233   */\n  dup2\n  dup2\n  shr\n  swap1\n    /* \"#utility.yul\":268:280   */\n  dup3\n  and\n  dup1\n    /* \"#utility.yul\":289:350   */\n  tag_42\n  jumpi\n    /* \"#utility.yul\":343:347   */\n  0x7f\n    /* \"#utility.yul\":335:341   */\n  dup3\n    /* \"#utility.yul\":331:348   */\n  and\n    /* \"#utility.yul\":321:348   */\n  swap2\n  pop\n    /* \"#utility.yul\":289:350   */\ntag_42:\n    /* \"#utility.yul\":396:398   */\n  0x20\n    /* \"#utility.yul\":388:394   */\n  dup3\n    /* \"#utility.yul\":385:399   */\n  lt\n    /* \"#utility.yul\":365:383   */\n  dup2\n    /* \"#utility.yul\":362:400   */\n  sub\n    /* \"#utility.yul\":359:520   */\n  tag_43\n  jumpi\n    /* \"#utility.yul\":442:452   */\n  0x4e487b71\n    /* \"#utility.yul\":437:440   */\n  0xe0\n    /* \"#utility.yul\":433:453   */\n  shl\n    /* \"#utility.yul\":430:431   */\n  0x00\n    /* \"#utility.yul\":423:454   */\n  mstore\n    /* \"#utility.yul\":477:481   */\n  0x22\n    /* \"#utility.yul\":474:475   */\n  0x04\n    /* \"#utility.yul\":467:482   */\n  mstore\n    /* \"#utility.yul\":505:509   */\n  0x24\n    /* \"#utility.yul\":502:503   */\n  0x00\n    /* \"#utility.yul\":495:510   */\n  revert\n    /* \"#utility.yul\":359:520   */\ntag_43:\n  pop\n    /* \"#utility.yul\":146:526   */\n  swap2\n  swap1\n  pop\n  jump\t// out\n    /* \"#utility.yul\":657:1202   */\ntag_37:\n    /* \"#utility.yul\":759:761   */\n  0x1f\n    /* \"#utility.yul\":754:757   */\n  dup3\n    /* \"#utility.yul\":751:762   */\n  gt\n    /* \"#utility.yul\":748:1196   */\n  iszero\n  tag_25\n  jumpi\n    /* \"#utility.yul\":795:796   */\n  0x00\n    /* \"#utility.yul\":820:825   */\n  dup2\n    /* \"#utility.yul\":816:818   */\n  dup2\n    /* \"#utility.yul\":809:826   */\n  mstore\n    /* \"#utility.yul\":865:869   */\n  0x20\n    /* \"#utility.yul\":861:863   */\n  dup2\n    /* \"#utility.yul\":851:870   */\n  keccak256\n    /* \"#utility.yul\":935:937   */\n  0x1f\n    /* \"#utility.yul\":923:933   */\n  dup6\n    /* \"#utility.yul\":919:938   */\n  add\n    /* \"#utility.yul\":916:917   */\n  0x05\n    /* \"#utility.yul\":912:939   */\n  shr\n    /* \"#utility.yul\":906:910   */\n  dup2\n    /* \"#utility.yul\":902:940   */\n  add\n    /* \"#utility.yul\":971:975   */\n  0x20\n    /* \"#utility.yul\":959:969   */\n  dup7\n    /* \"#utility.yul\":956:976   */\n  lt\n    /* \"#utility.yul\":953:1000   */\n  iszero\n  tag_47\n  jumpi\n  pop\n    /* \"#utility.yul\":994:998   */\n  dup1\n    /* \"#utility.yul\":953:1000   */\ntag_47:\n    /* \"#utility.yul\":1049:1051   */\n  0x1f\n    /* \"#utility.yul\":1044:1047   */\n  dup6\n    /* \"#utility.yul\":1040:1052   */\n  add\n    /* \"#utility.yul\":1037:1038   */\n  0x05\n    /* \"#utility.yul\":1033:1053   */\n  shr\n    /* \"#utility.yul\":1027:1031   */\n  dup3\n    /* \"#utility.yul\":1023:1054   */\n  add\n    /* \"#utility.yul\":1013:1054   */\n  swap2\n  pop\n    /* \"#utility.yul\":1104:1186   */\ntag_48:\n    /* \"#utility.yul\":1122:1124   */\n  dup2\n    /* \"#utility.yul\":1115:1120   */\n  dup2\n    /* \"#utility.yul\":1112:1125   */\n  lt\n    /* \"#utility.yul\":1104:1186   */\n  iszero\n  tag_50\n  jumpi\n    /* \"#utility.yul\":1167:1184   */\n  dup3\n  dup2\n  sstore\n    /* \"#utility.yul\":1148:1149   */\n  0x01\n    /* \"#utility.yul\":1137:1150   */\n  add\n    /* \"#utility.yul\":1104:1186   */\n  jump(tag_48)\ntag_50:\n    /* \"#utility.yul\":1108:1111   */\n  pop\n  pop\n  pop\n    /* \"#utility.yul\":657:1202   */\n  pop\n  pop\n  pop\n  jump\t// out\n    /* \"#utility.yul\":1378:2730   */\ntag_7:\n    /* \"#utility.yul\":1498:1508   */\n  dup2\n  mload\n  sub(shl(0x40, 0x01), 0x01)\n    /* \"#utility.yul\":1520:1550   */\n  dup2\n  gt\n    /* \"#utility.yul\":1517:1573   */\n  iszero\n  tag_54\n  jumpi\n    /* \"#utility.yul\":1553:1571   */\n  tag_54\n  tag_34\n  jump\t// in\ntag_54:\n    /* \"#utility.yul\":1582:1679   */\n  tag_55\n    /* \"#utility.yul\":1672:1678   */\n  dup2\n    /* \"#utility.yul\":1632:1670   */\n  tag_56\n    /* \"#utility.yul\":1664:1668   */\n  dup5\n    /* \"#utility.yul\":1658:1669   */\n  sload\n    /* \"#utility.yul\":1632:1670   */\n  tag_35\n  jump\t// in\ntag_56:\n    /* \"#utility.yul\":1626:1630   */\n  dup5\n    /* \"#utility.yul\":1582:1679   */\n  tag_37\n  jump\t// in\ntag_55:\n    /* \"#utility.yul\":1734:1738   */\n  0x20\n  dup1\n    /* \"#utility.yul\":1798:1800   */\n  0x1f\n    /* \"#utility.yul\":1787:1801   */\n  dup4\n  gt\n    /* \"#utility.yul\":1815:1816   */\n  0x01\n    /* \"#utility.yul\":1810:2473   */\n  dup2\n  eq\n  tag_58\n  jumpi\n    /* \"#utility.yul\":2517:2518   */\n  0x00\n    /* \"#utility.yul\":2534:2540   */\n  dup5\n    /* \"#utility.yul\":2531:2620   */\n  iszero\n  tag_59\n  jumpi\n  pop\n    /* \"#utility.yul\":2586:2605   */\n  dup6\n  dup4\n  add\n    /* \"#utility.yul\":2580:2606   */\n  mload\n    /* \"#utility.yul\":2531:2620   */\ntag_59:\n  not(0x00)\n    /* \"#utility.yul\":1335:1336   */\n  0x03\n    /* \"#utility.yul\":1331:1342   */\n  dup7\n  swap1\n  shl\n    /* \"#utility.yul\":1327:1351   */\n  shr\n    /* \"#utility.yul\":1323:1352   */\n  not\n    /* \"#utility.yul\":1313:1353   */\n  and\n    /* \"#utility.yul\":1359:1360   */\n  0x01\n    /* \"#utility.yul\":1355:1366   */\n  dup6\n  swap1\n  shl\n    /* \"#utility.yul\":1310:1367   */\n  or\n    /* \"#utility.yul\":2633:2714   */\n  dup6\n  sstore\n    /* \"#utility.yul\":1780:2724   */\n  jump(tag_50)\n    /* \"#utility.yul\":1810:2473   */\ntag_58:\n    /* \"#utility.yul\":604:605   */\n  0x00\n    /* \"#utility.yul\":597:611   */\n  dup6\n  dup2\n  mstore\n    /* \"#utility.yul\":641:645   */\n  0x20\n    /* \"#utility.yul\":628:646   */\n  dup2\n  keccak256\n  not(0x1f)\n    /* \"#utility.yul\":1846:1866   */\n  dup7\n  and\n  swap2\n    /* \"#utility.yul\":1964:2200   */\ntag_62:\n    /* \"#utility.yul\":1978:1985   */\n  dup3\n    /* \"#utility.yul\":1975:1976   */\n  dup2\n    /* \"#utility.yul\":1972:1986   */\n  lt\n    /* \"#utility.yul\":1964:2200   */\n  iszero\n  tag_64\n  jumpi\n    /* \"#utility.yul\":2067:2086   */\n  dup9\n  dup7\n  add\n    /* \"#utility.yul\":2061:2087   */\n  mload\n    /* \"#utility.yul\":2046:2088   */\n  dup3\n  sstore\n    /* \"#utility.yul\":2159:2186   */\n  swap5\n  dup5\n  add\n  swap5\n    /* \"#utility.yul\":2127:2128   */\n  0x01\n    /* \"#utility.yul\":2115:2129   */\n  swap1\n  swap2\n  add\n  swap1\n    /* \"#utility.yul\":1994:2013   */\n  dup5\n  add\n    /* \"#utility.yul\":1964:2200   */\n  jump(tag_62)\ntag_64:\n    /* \"#utility.yul\":1968:1971   */\n  pop\n    /* \"#utility.yul\":2228:2234   */\n  dup6\n    /* \"#utility.yul\":2219:2226   */\n  dup3\n    /* \"#utility.yul\":2216:2235   */\n  lt\n    /* \"#utility.yul\":2213:2414   */\n  iszero\n  tag_65\n  jumpi\n    /* \"#utility.yul\":2289:2308   */\n  dup8\n  dup6\n  add\n    /* \"#utility.yul\":2283:2309   */\n  mload\n  not(0x00)\n    /* \"#utility.yul\":2372:2373   */\n  0x03\n    /* \"#utility.yul\":2368:2382   */\n  dup9\n  swap1\n  shl\n    /* \"#utility.yul\":2384:2387   */\n  0xf8\n    /* \"#utility.yul\":2364:2388   */\n  and\n    /* \"#utility.yul\":2360:2397   */\n  shr\n    /* \"#utility.yul\":2356:2398   */\n  not\n    /* \"#utility.yul\":2341:2399   */\n  and\n    /* \"#utility.yul\":2326:2400   */\n  dup2\n  sstore\n    /* \"#utility.yul\":2213:2414   */\ntag_65:\n  pop\n  pop\n  pop\n  pop\n  pop\n    /* \"#utility.yul\":2460:2461   */\n  0x01\n    /* \"#utility.yul\":2444:2458   */\n  swap1\n  dup2\n  shl\n    /* \"#utility.yul\":2440:2462   */\n  add\n    /* \"#utility.yul\":2427:2463   */\n  swap1\n  sstore\n  pop\n    /* \"#utility.yul\":1378:2730   */\n  jump\t// out\n    /* \"#utility.yul\":3095:3317   */\ntag_27:\n    /* \"#utility.yul\":3160:3169   */\n  dup1\n  dup3\n  add\n    /* \"#utility.yul\":3181:3191   */\n  dup1\n  dup3\n  gt\n    /* \"#utility.yul\":3178:3311   */\n  iszero\n  tag_68\n  jumpi\n    /* \"#utility.yul\":3233:3243   */\n  0x4e487b71\n    /* \"#utility.yul\":3228:3231   */\n  0xe0\n    /* \"#utility.yul\":3224:3244   */\n  shl\n    /* \"#utility.yul\":3221:3222   */\n  0x00\n    /* \"#utility.yul\":3214:3245   */\n  mstore\n    /* \"#utility.yul\":3268:3272   */\n  0x11\n    /* \"#utility.yul\":3265:3266   */\n  0x04\n    /* \"#utility.yul\":3258:3273   */\n  mstore\n    /* \"#utility.yul\":3296:3300   */\n  0x24\n    /* \"#utility.yul\":3293:3294   */\n  0x00\n    /* \"#utility.yul\":3286:3301   */\n  revert\n    /* \"#utility.yul\":3178:3311   */\ntag_68:\n    /* \"#utility.yul\":3095:3317   */\n  swap3\n  swap2\n  pop\n  pop\n  jump\t// out\n    /* \"#utility.yul\":3322:3499   */\ntag_39:\n    /* \"contracts/Staking/ERC20_flattened.sol\":19988:20127  contract ERC20FT is ERC20, Ownable {... */\n  dataSize(sub_0)\n  dup1\n  dataOffset(sub_0)\n  0x00\n  codecopy\n  0x00\n  return\nstop\n\nsub_0: assembly {\n        /* \"contracts/Staking/ERC20_flattened.sol\":19988:20127  contract ERC20FT is ERC20, Ownable {... */\n      mstore(0x40, 0x80)\n      callvalue\n      dup1\n      iszero\n      tag_1\n      jumpi\n      0x00\n      dup1\n      revert\n    tag_1:\n      pop\n      jumpi(tag_2, lt(calldatasize, 0x04))\n      shr(0xe0, calldataload(0x00))\n      dup1\n      0x715018a6\n      gt\n      tag_17\n      jumpi\n      dup1\n      0xa457c2d7\n      gt\n      tag_18\n      jumpi\n      dup1\n      0xa457c2d7\n      eq\n      tag_13\n      jumpi\n      dup1\n      0xa9059cbb\n      eq\n      tag_14\n      jumpi\n      dup1\n      0xdd62ed3e\n      eq\n      tag_15\n      jumpi\n      dup1\n      0xf2fde38b\n      eq\n      tag_16\n      jumpi\n      0x00\n      dup1\n      revert\n    tag_18:\n      dup1\n      0x715018a6\n      eq\n      tag_10\n      jumpi\n      dup1\n      0x8da5cb5b\n      eq\n      tag_11\n      jumpi\n      dup1\n      0x95d89b41\n      eq\n      tag_12\n      jumpi\n      0x00\n      dup1\n      revert\n    tag_17:\n      dup1\n      0x23b872dd\n      gt\n      tag_19\n      jumpi\n      dup1\n      0x23b872dd\n      eq\n      tag_6\n      jumpi\n      dup1\n      0x313ce567\n      eq\n      tag_7\n      jumpi\n      dup1\n      0x39509351\n      eq\n      tag_8\n      jumpi\n      dup1\n      0x70a08231\n      eq\n      tag_9\n      jumpi\n      0x00\n      dup1\n      revert\n    tag_19:\n      dup1\n      0x06fdde03\n      eq\n      tag_3\n      jumpi\n      dup1\n      0x095ea7b3\n      eq\n      tag_4\n      jumpi\n      dup1\n      0x18160ddd\n      eq\n      tag_5\n      jumpi\n    tag_2:\n      0x00\n      dup1\n      revert\n        /* \"contracts/Staking/ERC20_flattened.sol\":9063:9161  function name() public view virtual override returns (string memory) {... */\n    tag_3:\n      tag_20\n      tag_21\n      jump\t// in\n    tag_20:\n      mload(0x40)\n      tag_22\n      swap2\n      swap1\n      tag_23\n      jump\t// in\n    tag_22:\n      mload(0x40)\n      dup1\n      swap2\n      sub\n      swap1\n      return\n        /* \"contracts/Staking/ERC20_flattened.sol\":11340:11537  function approve(address spender, uint256 amount) public virtual override returns (bool) {... */\n    tag_4:\n      tag_24\n      tag_25\n      calldatasize\n      0x04\n      tag_26\n      jump\t// in\n    tag_25:\n      tag_27\n      jump\t// in\n    tag_24:\n      mload(0x40)\n        /* \"#utility.yul\":1169:1183   */\n      swap1\n      iszero\n        /* \"#utility.yul\":1162:1184   */\n      iszero\n        /* \"#utility.yul\":1144:1185   */\n      dup2\n      mstore\n        /* \"#utility.yul\":1132:1134   */\n      0x20\n        /* \"#utility.yul\":1117:1135   */\n      add\n        /* \"contracts/Staking/ERC20_flattened.sol\":11340:11537  function approve(address spender, uint256 amount) public virtual override returns (bool) {... */\n      tag_22\n        /* \"#utility.yul\":1004:1191   */\n      jump\n        /* \"contracts/Staking/ERC20_flattened.sol\":10151:10257  function totalSupply() public view virtual override returns (uint256) {... */\n    tag_5:\n        /* \"contracts/Staking/ERC20_flattened.sol\":10238:10250  _totalSupply */\n      sload(0x02)\n        /* \"contracts/Staking/ERC20_flattened.sol\":10151:10257  function totalSupply() public view virtual override returns (uint256) {... */\n    tag_30:\n      mload(0x40)\n        /* \"#utility.yul\":1342:1367   */\n      swap1\n      dup2\n      mstore\n        /* \"#utility.yul\":1330:1332   */\n      0x20\n        /* \"#utility.yul\":1315:1333   */\n      add\n        /* \"contracts/Staking/ERC20_flattened.sol\":10151:10257  function totalSupply() public view virtual override returns (uint256) {... */\n      tag_22\n        /* \"#utility.yul\":1196:1373   */\n      jump\n        /* \"contracts/Staking/ERC20_flattened.sol\":12099:12385  function transferFrom(... */\n    tag_6:\n      tag_24\n      tag_35\n      calldatasize\n      0x04\n      tag_36\n      jump\t// in\n    tag_35:\n      tag_37\n      jump\t// in\n        /* \"contracts/Staking/ERC20_flattened.sol\":10000:10091  function decimals() public view virtual override returns (uint8) {... */\n    tag_7:\n      mload(0x40)\n        /* \"contracts/Staking/ERC20_flattened.sol\":10082:10084  18 */\n      0x12\n        /* \"#utility.yul\":1853:1889   */\n      dup2\n      mstore\n        /* \"#utility.yul\":1841:1843   */\n      0x20\n        /* \"#utility.yul\":1826:1844   */\n      add\n        /* \"contracts/Staking/ERC20_flattened.sol\":10000:10091  function decimals() public view virtual override returns (uint8) {... */\n      tag_22\n        /* \"#utility.yul\":1711:1895   */\n      jump\n        /* \"contracts/Staking/ERC20_flattened.sol\":12780:13014  function increaseAllowance(address spender, uint256 addedValue) public virtual returns (bool) {... */\n    tag_8:\n      tag_24\n      tag_44\n      calldatasize\n      0x04\n      tag_26\n      jump\t// in\n    tag_44:\n      tag_45\n      jump\t// in\n        /* \"contracts/Staking/ERC20_flattened.sol\":10315:10440  function balanceOf(address account) public view virtual override returns (uint256) {... */\n    tag_9:\n      tag_30\n      tag_48\n      calldatasize\n      0x04\n      tag_49\n      jump\t// in\n    tag_48:\n      sub(shl(0xa0, 0x01), 0x01)\n        /* \"contracts/Staking/ERC20_flattened.sol\":10415:10433  _balances[account] */\n      and\n        /* \"contracts/Staking/ERC20_flattened.sol\":10389:10396  uint256 */\n      0x00\n        /* \"contracts/Staking/ERC20_flattened.sol\":10415:10433  _balances[account] */\n      swap1\n      dup2\n      mstore\n      0x20\n      dup2\n      swap1\n      mstore\n      0x40\n      swap1\n      keccak256\n      sload\n      swap1\n        /* \"contracts/Staking/ERC20_flattened.sol\":10315:10440  function balanceOf(address account) public view virtual override returns (uint256) {... */\n      jump\n        /* \"contracts/Staking/ERC20_flattened.sol\":2689:2790  function renounceOwnership() public virtual onlyOwner {... */\n    tag_10:\n      tag_52\n      tag_53\n      jump\t// in\n    tag_52:\n      stop\n        /* \"contracts/Staking/ERC20_flattened.sol\":2059:2144  function owner() public view virtual returns (address) {... */\n    tag_11:\n        /* \"contracts/Staking/ERC20_flattened.sol\":2131:2137  _owner */\n      sload(0x05)\n        /* \"contracts/Staking/ERC20_flattened.sol\":2059:2144  function owner() public view virtual returns (address) {... */\n      mload(0x40)\n      sub(shl(0xa0, 0x01), 0x01)\n        /* \"contracts/Staking/ERC20_flattened.sol\":2131:2137  _owner */\n      swap1\n      swap2\n      and\n        /* \"#utility.yul\":2237:2288   */\n      dup2\n      mstore\n        /* \"#utility.yul\":2225:2227   */\n      0x20\n        /* \"#utility.yul\":2210:2228   */\n      add\n        /* \"contracts/Staking/ERC20_flattened.sol\":2059:2144  function owner() public view virtual returns (address) {... */\n      tag_22\n        /* \"#utility.yul\":2091:2294   */\n      jump\n        /* \"contracts/Staking/ERC20_flattened.sol\":9274:9376  function symbol() public view virtual override returns (string memory) {... */\n    tag_12:\n      tag_20\n      tag_59\n      jump\t// in\n        /* \"contracts/Staking/ERC20_flattened.sol\":13501:13928  function decreaseAllowance(address spender, uint256 subtractedValue) public virtual returns (bool) {... */\n    tag_13:\n      tag_24\n      tag_62\n      calldatasize\n      0x04\n      tag_26\n      jump\t// in\n    tag_62:\n      tag_63\n      jump\t// in\n        /* \"contracts/Staking/ERC20_flattened.sol\":10636:10825  function transfer(address to, uint256 amount) public virtual override returns (bool) {... */\n    tag_14:\n      tag_24\n      tag_66\n      calldatasize\n      0x04\n      tag_26\n      jump\t// in\n    tag_66:\n      tag_67\n      jump\t// in\n        /* \"contracts/Staking/ERC20_flattened.sol\":10883:11032  function allowance(address owner, address spender) public view virtual override returns (uint256) {... */\n    tag_15:\n      tag_30\n      tag_70\n      calldatasize\n      0x04\n      tag_71\n      jump\t// in\n    tag_70:\n      tag_72\n      jump\t// in\n        /* \"contracts/Staking/ERC20_flattened.sol\":2939:3137  function transferOwnership(address newOwner) public virtual onlyOwner {... */\n    tag_16:\n      tag_52\n      tag_75\n      calldatasize\n      0x04\n      tag_49\n      jump\t// in\n    tag_75:\n      tag_76\n      jump\t// in\n        /* \"contracts/Staking/ERC20_flattened.sol\":9063:9161  function name() public view virtual override returns (string memory) {... */\n    tag_21:\n        /* \"contracts/Staking/ERC20_flattened.sol\":9117:9130  string memory */\n      0x60\n        /* \"contracts/Staking/ERC20_flattened.sol\":9149:9154  _name */\n      0x03\n        /* \"contracts/Staking/ERC20_flattened.sol\":9142:9154  return _name */\n      dup1\n      sload\n      tag_78\n      swap1\n      tag_79\n      jump\t// in\n    tag_78:\n      dup1\n      0x1f\n      add\n      0x20\n      dup1\n      swap2\n      div\n      mul\n      0x20\n      add\n      mload(0x40)\n      swap1\n      dup2\n      add\n      0x40\n      mstore\n      dup1\n      swap3\n      swap2\n      swap1\n      dup2\n      dup2\n      mstore\n      0x20\n      add\n      dup3\n      dup1\n      sload\n      tag_80\n      swap1\n      tag_79\n      jump\t// in\n    tag_80:\n      dup1\n      iszero\n      tag_81\n      jumpi\n      dup1\n      0x1f\n      lt\n      tag_82\n      jumpi\n      0x0100\n      dup1\n      dup4\n      sload\n      div\n      mul\n      dup4\n      mstore\n      swap2\n      0x20\n      add\n      swap2\n      jump(tag_81)\n    tag_82:\n      dup3\n      add\n      swap2\n      swap1\n      0x00\n      mstore\n      keccak256(0x00, 0x20)\n      swap1\n    tag_83:\n      dup2\n      sload\n      dup2\n      mstore\n      swap1\n      0x01\n      add\n      swap1\n      0x20\n      add\n      dup1\n      dup4\n      gt\n      tag_83\n      jumpi\n      dup3\n      swap1\n      sub\n      0x1f\n      and\n      dup3\n      add\n      swap2\n    tag_81:\n      pop\n      pop\n      pop\n      pop\n      pop\n      swap1\n      pop\n        /* \"contracts/Staking/ERC20_flattened.sol\":9063:9161  function name() public view virtual override returns (string memory) {... */\n      swap1\n      jump\t// out\n        /* \"contracts/Staking/ERC20_flattened.sol\":11340:11537  function approve(address spender, uint256 amount) public virtual override returns (bool) {... */\n    tag_27:\n        /* \"contracts/Staking/ERC20_flattened.sol\":11423:11427  bool */\n      0x00\n        /* \"contracts/Staking/ERC20_flattened.sol\":741:751  msg.sender */\n      caller\n        /* \"contracts/Staking/ERC20_flattened.sol\":11477:11509  _approve(owner, spender, amount) */\n      tag_87\n        /* \"contracts/Staking/ERC20_flattened.sol\":741:751  msg.sender */\n      dup2\n        /* \"contracts/Staking/ERC20_flattened.sol\":11493:11500  spender */\n      dup6\n        /* \"contracts/Staking/ERC20_flattened.sol\":11502:11508  amount */\n      dup6\n        /* \"contracts/Staking/ERC20_flattened.sol\":11477:11485  _approve */\n      tag_88\n        /* \"contracts/Staking/ERC20_flattened.sol\":11477:11509  _approve(owner, spender, amount) */\n      jump\t// in\n    tag_87:\n        /* \"contracts/Staking/ERC20_flattened.sol\":11526:11530  true */\n      0x01\n        /* \"contracts/Staking/ERC20_flattened.sol\":11519:11530  return true */\n      swap2\n      pop\n      pop\n        /* \"contracts/Staking/ERC20_flattened.sol\":11340:11537  function approve(address spender, uint256 amount) public virtual override returns (bool) {... */\n    tag_84:\n      swap3\n      swap2\n      pop\n      pop\n      jump\t// out\n        /* \"contracts/Staking/ERC20_flattened.sol\":12099:12385  function transferFrom(... */\n    tag_37:\n        /* \"contracts/Staking/ERC20_flattened.sol\":12226:12230  bool */\n      0x00\n        /* \"contracts/Staking/ERC20_flattened.sol\":741:751  msg.sender */\n      caller\n        /* \"contracts/Staking/ERC20_flattened.sol\":12282:12320  _spendAllowance(from, spender, amount) */\n      tag_92\n        /* \"contracts/Staking/ERC20_flattened.sol\":12298:12302  from */\n      dup6\n        /* \"contracts/Staking/ERC20_flattened.sol\":741:751  msg.sender */\n      dup3\n        /* \"contracts/Staking/ERC20_flattened.sol\":12313:12319  amount */\n      dup6\n        /* \"contracts/Staking/ERC20_flattened.sol\":12282:12297  _spendAllowance */\n      tag_93\n        /* \"contracts/Staking/ERC20_flattened.sol\":12282:12320  _spendAllowance(from, spender, amount) */\n      jump\t// in\n    tag_92:\n        /* \"contracts/Staking/ERC20_flattened.sol\":12330:12357  _transfer(from, to, amount) */\n      tag_94\n        /* \"contracts/Staking/ERC20_flattened.sol\":12340:12344  from */\n      dup6\n        /* \"contracts/Staking/ERC20_flattened.sol\":12346:12348  to */\n      dup6\n        /* \"contracts/Staking/ERC20_flattened.sol\":12350:12356  amount */\n      dup6\n        /* \"contracts/Staking/ERC20_flattened.sol\":12330:12339  _transfer */\n      tag_95\n        /* \"contracts/Staking/ERC20_flattened.sol\":12330:12357  _transfer(from, to, amount) */\n      jump\t// in\n    tag_94:\n      pop\n        /* \"contracts/Staking/ERC20_flattened.sol\":12374:12378  true */\n      0x01\n      swap5\n        /* \"contracts/Staking/ERC20_flattened.sol\":12099:12385  function transferFrom(... */\n      swap4\n      pop\n      pop\n      pop\n      pop\n      jump\t// out\n        /* \"contracts/Staking/ERC20_flattened.sol\":12780:13014  function increaseAllowance(address spender, uint256 addedValue) public virtual returns (bool) {... */\n    tag_45:\n        /* \"contracts/Staking/ERC20_flattened.sol\":12868:12872  bool */\n      0x00\n        /* \"contracts/Staking/ERC20_flattened.sol\":741:751  msg.sender */\n      caller\n        /* \"contracts/Staking/ERC20_flattened.sol\":12922:12986  _approve(owner, spender, allowance(owner, spender) + addedValue) */\n      tag_87\n        /* \"contracts/Staking/ERC20_flattened.sol\":741:751  msg.sender */\n      dup2\n        /* \"contracts/Staking/ERC20_flattened.sol\":12938:12945  spender */\n      dup6\n        /* \"contracts/Staking/ERC20_flattened.sol\":12975:12985  addedValue */\n      dup6\n        /* \"contracts/Staking/ERC20_flattened.sol\":12947:12972  allowance(owner, spender) */\n      tag_100\n        /* \"contracts/Staking/ERC20_flattened.sol\":741:751  msg.sender */\n      dup4\n        /* \"contracts/Staking/ERC20_flattened.sol\":12938:12945  spender */\n      dup4\n        /* \"contracts/Staking/ERC20_flattened.sol\":12947:12956  allowance */\n      tag_72\n        /* \"contracts/Staking/ERC20_flattened.sol\":12947:12972  allowance(owner, spender) */\n      jump\t// in\n    tag_100:\n        /* \"contracts/Staking/ERC20_flattened.sol\":12947:12985  allowance(owner, spender) + addedValue */\n      tag_101\n      swap2\n      swap1\n      tag_102\n      jump\t// in\n    tag_101:\n        /* \"contracts/Staking/ERC20_flattened.sol\":12922:12930  _approve */\n      tag_88\n        /* \"contracts/Staking/ERC20_flattened.sol\":12922:12986  _approve(owner, spender, allowance(owner, spender) + addedValue) */\n      jump\t// in\n        /* \"contracts/Staking/ERC20_flattened.sol\":2689:2790  function renounceOwnership() public virtual onlyOwner {... */\n    tag_53:\n        /* \"contracts/Staking/ERC20_flattened.sol\":1952:1965  _checkOwner() */\n      tag_105\n        /* \"contracts/Staking/ERC20_flattened.sol\":1952:1963  _checkOwner */\n      tag_106\n        /* \"contracts/Staking/ERC20_flattened.sol\":1952:1965  _checkOwner() */\n      jump\t// in\n    tag_105:\n        /* \"contracts/Staking/ERC20_flattened.sol\":2753:2783  _transferOwnership(address(0)) */\n      tag_108\n        /* \"contracts/Staking/ERC20_flattened.sol\":2780:2781  0 */\n      0x00\n        /* \"contracts/Staking/ERC20_flattened.sol\":2753:2771  _transferOwnership */\n      tag_109\n        /* \"contracts/Staking/ERC20_flattened.sol\":2753:2783  _transferOwnership(address(0)) */\n      jump\t// in\n    tag_108:\n        /* \"contracts/Staking/ERC20_flattened.sol\":2689:2790  function renounceOwnership() public virtual onlyOwner {... */\n      jump\t// out\n        /* \"contracts/Staking/ERC20_flattened.sol\":9274:9376  function symbol() public view virtual override returns (string memory) {... */\n    tag_59:\n        /* \"contracts/Staking/ERC20_flattened.sol\":9330:9343  string memory */\n      0x60\n        /* \"contracts/Staking/ERC20_flattened.sol\":9362:9369  _symbol */\n      0x04\n        /* \"contracts/Staking/ERC20_flattened.sol\":9355:9369  return _symbol */\n      dup1\n      sload\n      tag_78\n      swap1\n      tag_79\n      jump\t// in\n        /* \"contracts/Staking/ERC20_flattened.sol\":13501:13928  function decreaseAllowance(address spender, uint256 subtractedValue) public virtual returns (bool) {... */\n    tag_63:\n        /* \"contracts/Staking/ERC20_flattened.sol\":13594:13598  bool */\n      0x00\n        /* \"contracts/Staking/ERC20_flattened.sol\":741:751  msg.sender */\n      caller\n        /* \"contracts/Staking/ERC20_flattened.sol\":13594:13598  bool */\n      dup2\n        /* \"contracts/Staking/ERC20_flattened.sol\":13675:13700  allowance(owner, spender) */\n      tag_119\n        /* \"contracts/Staking/ERC20_flattened.sol\":741:751  msg.sender */\n      dup3\n        /* \"contracts/Staking/ERC20_flattened.sol\":13692:13699  spender */\n      dup7\n        /* \"contracts/Staking/ERC20_flattened.sol\":13675:13684  allowance */\n      tag_72\n        /* \"contracts/Staking/ERC20_flattened.sol\":13675:13700  allowance(owner, spender) */\n      jump\t// in\n    tag_119:\n        /* \"contracts/Staking/ERC20_flattened.sol\":13648:13700  uint256 currentAllowance = allowance(owner, spender) */\n      swap1\n      pop\n        /* \"contracts/Staking/ERC20_flattened.sol\":13738:13753  subtractedValue */\n      dup4\n        /* \"contracts/Staking/ERC20_flattened.sol\":13718:13734  currentAllowance */\n      dup2\n        /* \"contracts/Staking/ERC20_flattened.sol\":13718:13753  currentAllowance >= subtractedValue */\n      lt\n      iszero\n        /* \"contracts/Staking/ERC20_flattened.sol\":13710:13795  require(currentAllowance >= subtractedValue, \"ERC20: decreased allowance below zero\") */\n      tag_120\n      jumpi\n      mload(0x40)\n      shl(0xe5, 0x461bcd)\n      dup2\n      mstore\n        /* \"#utility.yul\":3378:3380   */\n      0x20\n        /* \"contracts/Staking/ERC20_flattened.sol\":13710:13795  require(currentAllowance >= subtractedValue, \"ERC20: decreased allowance below zero\") */\n      0x04\n      dup3\n      add\n        /* \"#utility.yul\":3360:3381   */\n      mstore\n        /* \"#utility.yul\":3417:3419   */\n      0x25\n        /* \"#utility.yul\":3397:3415   */\n      0x24\n      dup3\n      add\n        /* \"#utility.yul\":3390:3420   */\n      mstore\n        /* \"#utility.yul\":3456:3490   */\n      0x45524332303a2064656372656173656420616c6c6f77616e63652062656c6f77\n        /* \"#utility.yul\":3436:3454   */\n      0x44\n      dup3\n      add\n        /* \"#utility.yul\":3429:3491   */\n      mstore\n      shl(0xd8, 0x207a65726f)\n        /* \"#utility.yul\":3507:3525   */\n      0x64\n      dup3\n      add\n        /* \"#utility.yul\":3500:3535   */\n      mstore\n        /* \"#utility.yul\":3552:3571   */\n      0x84\n      add\n        /* \"contracts/Staking/ERC20_flattened.sol\":13710:13795  require(currentAllowance >= subtractedValue, \"ERC20: decreased allowance below zero\") */\n    tag_121:\n      mload(0x40)\n      dup1\n      swap2\n      sub\n      swap1\n      revert\n    tag_120:\n        /* \"contracts/Staking/ERC20_flattened.sol\":13829:13889  _approve(owner, spender, currentAllowance - subtractedValue) */\n      tag_94\n        /* \"contracts/Staking/ERC20_flattened.sol\":13838:13843  owner */\n      dup3\n        /* \"contracts/Staking/ERC20_flattened.sol\":13845:13852  spender */\n      dup7\n        /* \"contracts/Staking/ERC20_flattened.sol\":13873:13888  subtractedValue */\n      dup7\n        /* \"contracts/Staking/ERC20_flattened.sol\":13854:13870  currentAllowance */\n      dup5\n        /* \"contracts/Staking/ERC20_flattened.sol\":13854:13888  currentAllowance - subtractedValue */\n      sub\n        /* \"contracts/Staking/ERC20_flattened.sol\":13829:13837  _approve */\n      tag_88\n        /* \"contracts/Staking/ERC20_flattened.sol\":13829:13889  _approve(owner, spender, currentAllowance - subtractedValue) */\n      jump\t// in\n        /* \"contracts/Staking/ERC20_flattened.sol\":10636:10825  function transfer(address to, uint256 amount) public virtual override returns (bool) {... */\n    tag_67:\n        /* \"contracts/Staking/ERC20_flattened.sol\":10715:10719  bool */\n      0x00\n        /* \"contracts/Staking/ERC20_flattened.sol\":741:751  msg.sender */\n      caller\n        /* \"contracts/Staking/ERC20_flattened.sol\":10769:10797  _transfer(owner, to, amount) */\n      tag_87\n        /* \"contracts/Staking/ERC20_flattened.sol\":741:751  msg.sender */\n      dup2\n        /* \"contracts/Staking/ERC20_flattened.sol\":10786:10788  to */\n      dup6\n        /* \"contracts/Staking/ERC20_flattened.sol\":10790:10796  amount */\n      dup6\n        /* \"contracts/Staking/ERC20_flattened.sol\":10769:10778  _transfer */\n      tag_95\n        /* \"contracts/Staking/ERC20_flattened.sol\":10769:10797  _transfer(owner, to, amount) */\n      jump\t// in\n        /* \"contracts/Staking/ERC20_flattened.sol\":10883:11032  function allowance(address owner, address spender) public view virtual override returns (uint256) {... */\n    tag_72:\n      sub(shl(0xa0, 0x01), 0x01)\n        /* \"contracts/Staking/ERC20_flattened.sol\":10998:11016  _allowances[owner] */\n      swap2\n      dup3\n      and\n        /* \"contracts/Staking/ERC20_flattened.sol\":10972:10979  uint256 */\n      0x00\n        /* \"contracts/Staking/ERC20_flattened.sol\":10998:11016  _allowances[owner] */\n      swap1\n      dup2\n      mstore\n        /* \"contracts/Staking/ERC20_flattened.sol\":10998:11009  _allowances */\n      0x01\n        /* \"contracts/Staking/ERC20_flattened.sol\":10998:11016  _allowances[owner] */\n      0x20\n      swap1\n      dup2\n      mstore\n      0x40\n      dup1\n      dup4\n      keccak256\n        /* \"contracts/Staking/ERC20_flattened.sol\":10998:11025  _allowances[owner][spender] */\n      swap4\n      swap1\n      swap5\n      and\n      dup3\n      mstore\n      swap2\n      swap1\n      swap2\n      mstore\n      keccak256\n      sload\n      swap1\n        /* \"contracts/Staking/ERC20_flattened.sol\":10883:11032  function allowance(address owner, address spender) public view virtual override returns (uint256) {... */\n      jump\t// out\n        /* \"contracts/Staking/ERC20_flattened.sol\":2939:3137  function transferOwnership(address newOwner) public virtual onlyOwner {... */\n    tag_76:\n        /* \"contracts/Staking/ERC20_flattened.sol\":1952:1965  _checkOwner() */\n      tag_129\n        /* \"contracts/Staking/ERC20_flattened.sol\":1952:1963  _checkOwner */\n      tag_106\n        /* \"contracts/Staking/ERC20_flattened.sol\":1952:1965  _checkOwner() */\n      jump\t// in\n    tag_129:\n      sub(shl(0xa0, 0x01), 0x01)\n        /* \"contracts/Staking/ERC20_flattened.sol\":3027:3049  newOwner != address(0) */\n      dup2\n      and\n        /* \"contracts/Staking/ERC20_flattened.sol\":3019:3092  require(newOwner != address(0), \"Ownable: new owner is the zero address\") */\n      tag_131\n      jumpi\n      mload(0x40)\n      shl(0xe5, 0x461bcd)\n      dup2\n      mstore\n        /* \"#utility.yul\":3784:3786   */\n      0x20\n        /* \"contracts/Staking/ERC20_flattened.sol\":3019:3092  require(newOwner != address(0), \"Ownable: new owner is the zero address\") */\n      0x04\n      dup3\n      add\n        /* \"#utility.yul\":3766:3787   */\n      mstore\n        /* \"#utility.yul\":3823:3825   */\n      0x26\n        /* \"#utility.yul\":3803:3821   */\n      0x24\n      dup3\n      add\n        /* \"#utility.yul\":3796:3826   */\n      mstore\n        /* \"#utility.yul\":3862:3896   */\n      0x4f776e61626c653a206e6577206f776e657220697320746865207a65726f2061\n        /* \"#utility.yul\":3842:3860   */\n      0x44\n      dup3\n      add\n        /* \"#utility.yul\":3835:3897   */\n      mstore\n      shl(0xd0, 0x646472657373)\n        /* \"#utility.yul\":3913:3931   */\n      0x64\n      dup3\n      add\n        /* \"#utility.yul\":3906:3942   */\n      mstore\n        /* \"#utility.yul\":3959:3978   */\n      0x84\n      add\n        /* \"contracts/Staking/ERC20_flattened.sol\":3019:3092  require(newOwner != address(0), \"Ownable: new owner is the zero address\") */\n      tag_121\n        /* \"#utility.yul\":3582:3984   */\n      jump\n        /* \"contracts/Staking/ERC20_flattened.sol\":3019:3092  require(newOwner != address(0), \"Ownable: new owner is the zero address\") */\n    tag_131:\n        /* \"contracts/Staking/ERC20_flattened.sol\":3102:3130  _transferOwnership(newOwner) */\n      tag_134\n        /* \"contracts/Staking/ERC20_flattened.sol\":3121:3129  newOwner */\n      dup2\n        /* \"contracts/Staking/ERC20_flattened.sol\":3102:3120  _transferOwnership */\n      tag_109\n        /* \"contracts/Staking/ERC20_flattened.sol\":3102:3130  _transferOwnership(newOwner) */\n      jump\t// in\n    tag_134:\n        /* \"contracts/Staking/ERC20_flattened.sol\":2939:3137  function transferOwnership(address newOwner) public virtual onlyOwner {... */\n      pop\n      jump\t// out\n        /* \"contracts/Staking/ERC20_flattened.sol\":17413:17783  function _approve(... */\n    tag_88:\n      sub(shl(0xa0, 0x01), 0x01)\n        /* \"contracts/Staking/ERC20_flattened.sol\":17544:17563  owner != address(0) */\n      dup4\n      and\n        /* \"contracts/Staking/ERC20_flattened.sol\":17536:17604  require(owner != address(0), \"ERC20: approve from the zero address\") */\n      tag_137\n      jumpi\n      mload(0x40)\n      shl(0xe5, 0x461bcd)\n      dup2\n      mstore\n        /* \"#utility.yul\":4191:4193   */\n      0x20\n        /* \"contracts/Staking/ERC20_flattened.sol\":17536:17604  require(owner != address(0), \"ERC20: approve from the zero address\") */\n      0x04\n      dup3\n      add\n        /* \"#utility.yul\":4173:4194   */\n      mstore\n        /* \"#utility.yul\":4230:4232   */\n      0x24\n        /* \"#utility.yul\":4210:4228   */\n      dup1\n      dup3\n      add\n        /* \"#utility.yul\":4203:4233   */\n      mstore\n        /* \"#utility.yul\":4269:4303   */\n      0x45524332303a20617070726f76652066726f6d20746865207a65726f20616464\n        /* \"#utility.yul\":4249:4267   */\n      0x44\n      dup3\n      add\n        /* \"#utility.yul\":4242:4304   */\n      mstore\n      shl(0xe0, 0x72657373)\n        /* \"#utility.yul\":4320:4338   */\n      0x64\n      dup3\n      add\n        /* \"#utility.yul\":4313:4347   */\n      mstore\n        /* \"#utility.yul\":4364:4383   */\n      0x84\n      add\n        /* \"contracts/Staking/ERC20_flattened.sol\":17536:17604  require(owner != address(0), \"ERC20: approve from the zero address\") */\n      tag_121\n        /* \"#utility.yul\":3989:4389   */\n      jump\n        /* \"contracts/Staking/ERC20_flattened.sol\":17536:17604  require(owner != address(0), \"ERC20: approve from the zero address\") */\n    tag_137:\n      sub(shl(0xa0, 0x01), 0x01)\n        /* \"contracts/Staking/ERC20_flattened.sol\":17622:17643  spender != address(0) */\n      dup3\n      and\n        /* \"contracts/Staking/ERC20_flattened.sol\":17614:17682  require(spender != address(0), \"ERC20: approve to the zero address\") */\n      tag_140\n      jumpi\n      mload(0x40)\n      shl(0xe5, 0x461bcd)\n      dup2\n      mstore\n        /* \"#utility.yul\":4596:4598   */\n      0x20\n        /* \"contracts/Staking/ERC20_flattened.sol\":17614:17682  require(spender != address(0), \"ERC20: approve to the zero address\") */\n      0x04\n      dup3\n      add\n        /* \"#utility.yul\":4578:4599   */\n      mstore\n        /* \"#utility.yul\":4635:4637   */\n      0x22\n        /* \"#utility.yul\":4615:4633   */\n      0x24\n      dup3\n      add\n        /* \"#utility.yul\":4608:4638   */\n      mstore\n        /* \"#utility.yul\":4674:4708   */\n      0x45524332303a20617070726f766520746f20746865207a65726f206164647265\n        /* \"#utility.yul\":4654:4672   */\n      0x44\n      dup3\n      add\n        /* \"#utility.yul\":4647:4709   */\n      mstore\n      shl(0xf0, 0x7373)\n        /* \"#utility.yul\":4725:4743   */\n      0x64\n      dup3\n      add\n        /* \"#utility.yul\":4718:4750   */\n      mstore\n        /* \"#utility.yul\":4767:4786   */\n      0x84\n      add\n        /* \"contracts/Staking/ERC20_flattened.sol\":17614:17682  require(spender != address(0), \"ERC20: approve to the zero address\") */\n      tag_121\n        /* \"#utility.yul\":4394:4792   */\n      jump\n        /* \"contracts/Staking/ERC20_flattened.sol\":17614:17682  require(spender != address(0), \"ERC20: approve to the zero address\") */\n    tag_140:\n      sub(shl(0xa0, 0x01), 0x01)\n        /* \"contracts/Staking/ERC20_flattened.sol\":17693:17711  _allowances[owner] */\n      dup4\n      dup2\n      and\n      0x00\n      dup2\n      dup2\n      mstore\n        /* \"contracts/Staking/ERC20_flattened.sol\":17693:17704  _allowances */\n      0x01\n        /* \"contracts/Staking/ERC20_flattened.sol\":17693:17711  _allowances[owner] */\n      0x20\n      swap1\n      dup2\n      mstore\n      0x40\n      dup1\n      dup4\n      keccak256\n        /* \"contracts/Staking/ERC20_flattened.sol\":17693:17720  _allowances[owner][spender] */\n      swap5\n      dup8\n      and\n      dup1\n      dup5\n      mstore\n      swap5\n      dup3\n      mstore\n      swap2\n      dup3\n      swap1\n      keccak256\n        /* \"contracts/Staking/ERC20_flattened.sol\":17693:17729  _allowances[owner][spender] = amount */\n      dup6\n      swap1\n      sstore\n        /* \"contracts/Staking/ERC20_flattened.sol\":17744:17776  Approval(owner, spender, amount) */\n      swap1\n      mload\n        /* \"#utility.yul\":1342:1367   */\n      dup5\n      dup2\n      mstore\n        /* \"contracts/Staking/ERC20_flattened.sol\":17744:17776  Approval(owner, spender, amount) */\n      0x8c5be1e5ebec7d5bd14f71427d1e84f3dd0314c0f7b2291e5b200ac8c7c3b925\n      swap2\n        /* \"#utility.yul\":1315:1333   */\n      add\n        /* \"contracts/Staking/ERC20_flattened.sol\":17744:17776  Approval(owner, spender, amount) */\n      mload(0x40)\n      dup1\n      swap2\n      sub\n      swap1\n      log3\n        /* \"contracts/Staking/ERC20_flattened.sol\":17413:17783  function _approve(... */\n      pop\n      pop\n      pop\n      jump\t// out\n        /* \"contracts/Staking/ERC20_flattened.sol\":18064:18505  function _spendAllowance(... */\n    tag_93:\n        /* \"contracts/Staking/ERC20_flattened.sol\":18194:18218  uint256 currentAllowance */\n      0x00\n        /* \"contracts/Staking/ERC20_flattened.sol\":18221:18246  allowance(owner, spender) */\n      tag_145\n        /* \"contracts/Staking/ERC20_flattened.sol\":18231:18236  owner */\n      dup5\n        /* \"contracts/Staking/ERC20_flattened.sol\":18238:18245  spender */\n      dup5\n        /* \"contracts/Staking/ERC20_flattened.sol\":18221:18230  allowance */\n      tag_72\n        /* \"contracts/Staking/ERC20_flattened.sol\":18221:18246  allowance(owner, spender) */\n      jump\t// in\n    tag_145:\n        /* \"contracts/Staking/ERC20_flattened.sol\":18194:18246  uint256 currentAllowance = allowance(owner, spender) */\n      swap1\n      pop\n      not(0x00)\n        /* \"contracts/Staking/ERC20_flattened.sol\":18260:18276  currentAllowance */\n      dup2\n        /* \"contracts/Staking/ERC20_flattened.sol\":18260:18297  currentAllowance != type(uint256).max */\n      eq\n        /* \"contracts/Staking/ERC20_flattened.sol\":18256:18499  if (currentAllowance != type(uint256).max) {... */\n      tag_150\n      jumpi\n        /* \"contracts/Staking/ERC20_flattened.sol\":18341:18347  amount */\n      dup2\n        /* \"contracts/Staking/ERC20_flattened.sol\":18321:18337  currentAllowance */\n      dup2\n        /* \"contracts/Staking/ERC20_flattened.sol\":18321:18347  currentAllowance >= amount */\n      lt\n      iszero\n        /* \"contracts/Staking/ERC20_flattened.sol\":18313:18381  require(currentAllowance >= amount, \"ERC20: insufficient allowance\") */\n      tag_147\n      jumpi\n      mload(0x40)\n      shl(0xe5, 0x461bcd)\n      dup2\n      mstore\n        /* \"#utility.yul\":4999:5001   */\n      0x20\n        /* \"contracts/Staking/ERC20_flattened.sol\":18313:18381  require(currentAllowance >= amount, \"ERC20: insufficient allowance\") */\n      0x04\n      dup3\n      add\n        /* \"#utility.yul\":4981:5002   */\n      mstore\n        /* \"#utility.yul\":5038:5040   */\n      0x1d\n        /* \"#utility.yul\":5018:5036   */\n      0x24\n      dup3\n      add\n        /* \"#utility.yul\":5011:5041   */\n      mstore\n        /* \"#utility.yul\":5077:5108   */\n      0x45524332303a20696e73756666696369656e7420616c6c6f77616e6365000000\n        /* \"#utility.yul\":5057:5075   */\n      0x44\n      dup3\n      add\n        /* \"#utility.yul\":5050:5109   */\n      mstore\n        /* \"#utility.yul\":5126:5144   */\n      0x64\n      add\n        /* \"contracts/Staking/ERC20_flattened.sol\":18313:18381  require(currentAllowance >= amount, \"ERC20: insufficient allowance\") */\n      tag_121\n        /* \"#utility.yul\":4797:5150   */\n      jump\n        /* \"contracts/Staking/ERC20_flattened.sol\":18313:18381  require(currentAllowance >= amount, \"ERC20: insufficient allowance\") */\n    tag_147:\n        /* \"contracts/Staking/ERC20_flattened.sol\":18423:18474  _approve(owner, spender, currentAllowance - amount) */\n      tag_150\n        /* \"contracts/Staking/ERC20_flattened.sol\":18432:18437  owner */\n      dup5\n        /* \"contracts/Staking/ERC20_flattened.sol\":18439:18446  spender */\n      dup5\n        /* \"contracts/Staking/ERC20_flattened.sol\":18467:18473  amount */\n      dup5\n        /* \"contracts/Staking/ERC20_flattened.sol\":18448:18464  currentAllowance */\n      dup5\n        /* \"contracts/Staking/ERC20_flattened.sol\":18448:18473  currentAllowance - amount */\n      sub\n        /* \"contracts/Staking/ERC20_flattened.sol\":18423:18431  _approve */\n      tag_88\n        /* \"contracts/Staking/ERC20_flattened.sol\":18423:18474  _approve(owner, spender, currentAllowance - amount) */\n      jump\t// in\n    tag_150:\n        /* \"contracts/Staking/ERC20_flattened.sol\":18184:18505  {... */\n      pop\n        /* \"contracts/Staking/ERC20_flattened.sol\":18064:18505  function _spendAllowance(... */\n      pop\n      pop\n      pop\n      jump\t// out\n        /* \"contracts/Staking/ERC20_flattened.sol\":14382:15200  function _transfer(... */\n    tag_95:\n      sub(shl(0xa0, 0x01), 0x01)\n        /* \"contracts/Staking/ERC20_flattened.sol\":14508:14526  from != address(0) */\n      dup4\n      and\n        /* \"contracts/Staking/ERC20_flattened.sol\":14500:14568  require(from != address(0), \"ERC20: transfer from the zero address\") */\n      tag_152\n      jumpi\n      mload(0x40)\n      shl(0xe5, 0x461bcd)\n      dup2\n      mstore\n        /* \"#utility.yul\":5357:5359   */\n      0x20\n        /* \"contracts/Staking/ERC20_flattened.sol\":14500:14568  require(from != address(0), \"ERC20: transfer from the zero address\") */\n      0x04\n      dup3\n      add\n        /* \"#utility.yul\":5339:5360   */\n      mstore\n        /* \"#utility.yul\":5396:5398   */\n      0x25\n        /* \"#utility.yul\":5376:5394   */\n      0x24\n      dup3\n      add\n        /* \"#utility.yul\":5369:5399   */\n      mstore\n        /* \"#utility.yul\":5435:5469   */\n      0x45524332303a207472616e736665722066726f6d20746865207a65726f206164\n        /* \"#utility.yul\":5415:5433   */\n      0x44\n      dup3\n      add\n        /* \"#utility.yul\":5408:5470   */\n      mstore\n      shl(0xd8, 0x6472657373)\n        /* \"#utility.yul\":5486:5504   */\n      0x64\n      dup3\n      add\n        /* \"#utility.yul\":5479:5514   */\n      mstore\n        /* \"#utility.yul\":5531:5550   */\n      0x84\n      add\n        /* \"contracts/Staking/ERC20_flattened.sol\":14500:14568  require(from != address(0), \"ERC20: transfer from the zero address\") */\n      tag_121\n        /* \"#utility.yul\":5155:5556   */\n      jump\n        /* \"contracts/Staking/ERC20_flattened.sol\":14500:14568  require(from != address(0), \"ERC20: transfer from the zero address\") */\n    tag_152:\n      sub(shl(0xa0, 0x01), 0x01)\n        /* \"contracts/Staking/ERC20_flattened.sol\":14586:14602  to != address(0) */\n      dup3\n      and\n        /* \"contracts/Staking/ERC20_flattened.sol\":14578:14642  require(to != address(0), \"ERC20: transfer to the zero address\") */\n      tag_155\n      jumpi\n      mload(0x40)\n      shl(0xe5, 0x461bcd)\n      dup2\n      mstore\n        /* \"#utility.yul\":5763:5765   */\n      0x20\n        /* \"contracts/Staking/ERC20_flattened.sol\":14578:14642  require(to != address(0), \"ERC20: transfer to the zero address\") */\n      0x04\n      dup3\n      add\n        /* \"#utility.yul\":5745:5766   */\n      mstore\n        /* \"#utility.yul\":5802:5804   */\n      0x23\n        /* \"#utility.yul\":5782:5800   */\n      0x24\n      dup3\n      add\n        /* \"#utility.yul\":5775:5805   */\n      mstore\n        /* \"#utility.yul\":5841:5875   */\n      0x45524332303a207472616e7366657220746f20746865207a65726f2061646472\n        /* \"#utility.yul\":5821:5839   */\n      0x44\n      dup3\n      add\n        /* \"#utility.yul\":5814:5876   */\n      mstore\n      shl(0xe8, 0x657373)\n        /* \"#utility.yul\":5892:5910   */\n      0x64\n      dup3\n      add\n        /* \"#utility.yul\":5885:5918   */\n      mstore\n        /* \"#utility.yul\":5935:5954   */\n      0x84\n      add\n        /* \"contracts/Staking/ERC20_flattened.sol\":14578:14642  require(to != address(0), \"ERC20: transfer to the zero address\") */\n      tag_121\n        /* \"#utility.yul\":5561:5960   */\n      jump\n        /* \"contracts/Staking/ERC20_flattened.sol\":14578:14642  require(to != address(0), \"ERC20: transfer to the zero address\") */\n    tag_155:\n      sub(shl(0xa0, 0x01), 0x01)\n        /* \"contracts/Staking/ERC20_flattened.sol\":14724:14739  _balances[from] */\n      dup4\n      and\n        /* \"contracts/Staking/ERC20_flattened.sol\":14702:14721  uint256 fromBalance */\n      0x00\n        /* \"contracts/Staking/ERC20_flattened.sol\":14724:14739  _balances[from] */\n      swap1\n      dup2\n      mstore\n      0x20\n      dup2\n      swap1\n      mstore\n      0x40\n      swap1\n      keccak256\n      sload\n        /* \"contracts/Staking/ERC20_flattened.sol\":14757:14778  fromBalance >= amount */\n      dup2\n      dup2\n      lt\n      iszero\n        /* \"contracts/Staking/ERC20_flattened.sol\":14749:14821  require(fromBalance >= amount, \"ERC20: transfer amount exceeds balance\") */\n      tag_160\n      jumpi\n      mload(0x40)\n      shl(0xe5, 0x461bcd)\n      dup2\n      mstore\n        /* \"#utility.yul\":6167:6169   */\n      0x20\n        /* \"contracts/Staking/ERC20_flattened.sol\":14749:14821  require(fromBalance >= amount, \"ERC20: transfer amount exceeds balance\") */\n      0x04\n      dup3\n      add\n        /* \"#utility.yul\":6149:6170   */\n      mstore\n        /* \"#utility.yul\":6206:6208   */\n      0x26\n        /* \"#utility.yul\":6186:6204   */\n      0x24\n      dup3\n      add\n        /* \"#utility.yul\":6179:6209   */\n      mstore\n        /* \"#utility.yul\":6245:6279   */\n      0x45524332303a207472616e7366657220616d6f756e7420657863656564732062\n        /* \"#utility.yul\":6225:6243   */\n      0x44\n      dup3\n      add\n        /* \"#utility.yul\":6218:6280   */\n      mstore\n      shl(0xd0, 0x616c616e6365)\n        /* \"#utility.yul\":6296:6314   */\n      0x64\n      dup3\n      add\n        /* \"#utility.yul\":6289:6325   */\n      mstore\n        /* \"#utility.yul\":6342:6361   */\n      0x84\n      add\n        /* \"contracts/Staking/ERC20_flattened.sol\":14749:14821  require(fromBalance >= amount, \"ERC20: transfer amount exceeds balance\") */\n      tag_121\n        /* \"#utility.yul\":5965:6367   */\n      jump\n        /* \"contracts/Staking/ERC20_flattened.sol\":14749:14821  require(fromBalance >= amount, \"ERC20: transfer amount exceeds balance\") */\n    tag_160:\n      sub(shl(0xa0, 0x01), 0x01)\n        /* \"contracts/Staking/ERC20_flattened.sol\":14855:14870  _balances[from] */\n      dup5\n      dup2\n      and\n        /* \"contracts/Staking/ERC20_flattened.sol\":14855:14864  _balances */\n      0x00\n        /* \"contracts/Staking/ERC20_flattened.sol\":14855:14870  _balances[from] */\n      dup2\n      dup2\n      mstore\n      0x20\n      dup2\n      dup2\n      mstore\n      0x40\n      dup1\n      dup4\n      keccak256\n        /* \"contracts/Staking/ERC20_flattened.sol\":14873:14893  fromBalance - amount */\n      dup8\n      dup8\n      sub\n        /* \"contracts/Staking/ERC20_flattened.sol\":14855:14893  _balances[from] = fromBalance - amount */\n      swap1\n      sstore\n        /* \"contracts/Staking/ERC20_flattened.sol\":15070:15083  _balances[to] */\n      swap4\n      dup8\n      and\n      dup1\n      dup4\n      mstore\n      swap2\n      dup5\n      swap1\n      keccak256\n        /* \"contracts/Staking/ERC20_flattened.sol\":15070:15093  _balances[to] += amount */\n      dup1\n      sload\n      dup8\n      add\n      swap1\n      sstore\n        /* \"contracts/Staking/ERC20_flattened.sol\":15119:15145  Transfer(from, to, amount) */\n      swap3\n      mload\n        /* \"#utility.yul\":1342:1367   */\n      dup6\n      dup2\n      mstore\n        /* \"contracts/Staking/ERC20_flattened.sol\":15070:15083  _balances[to] */\n      swap1\n      swap3\n        /* \"contracts/Staking/ERC20_flattened.sol\":15119:15145  Transfer(from, to, amount) */\n      0xddf252ad1be2c89b69c2b068fc378daa952ba7f163c4a11628f55a4df523b3ef\n      swap2\n        /* \"#utility.yul\":1315:1333   */\n      add\n        /* \"contracts/Staking/ERC20_flattened.sol\":15119:15145  Transfer(from, to, amount) */\n      mload(0x40)\n      dup1\n      swap2\n      sub\n      swap1\n      log3\n        /* \"contracts/Staking/ERC20_flattened.sol\":15156:15193  _afterTokenTransfer(from, to, amount) */\n      tag_150\n        /* \"contracts/Staking/ERC20_flattened.sol\":19089:19210  function _beforeTokenTransfer(... */\n      jump\n        /* \"contracts/Staking/ERC20_flattened.sol\":2217:2347  function _checkOwner() internal view virtual {... */\n    tag_106:\n        /* \"contracts/Staking/ERC20_flattened.sol\":2131:2137  _owner */\n      and(sub(shl(0xa0, 0x01), 0x01), sload(0x05))\n        /* \"contracts/Staking/ERC20_flattened.sol\":741:751  msg.sender */\n      caller\n        /* \"contracts/Staking/ERC20_flattened.sol\":2280:2303  owner() == _msgSender() */\n      eq\n        /* \"contracts/Staking/ERC20_flattened.sol\":2272:2340  require(owner() == _msgSender(), \"Ownable: caller is not the owner\") */\n      tag_108\n      jumpi\n      mload(0x40)\n      shl(0xe5, 0x461bcd)\n      dup2\n      mstore\n        /* \"#utility.yul\":6574:6576   */\n      0x20\n        /* \"contracts/Staking/ERC20_flattened.sol\":2272:2340  require(owner() == _msgSender(), \"Ownable: caller is not the owner\") */\n      0x04\n      dup3\n      add\n        /* \"#utility.yul\":6556:6577   */\n      dup2\n      swap1\n      mstore\n        /* \"#utility.yul\":6593:6611   */\n      0x24\n      dup3\n      add\n        /* \"#utility.yul\":6586:6616   */\n      mstore\n        /* \"#utility.yul\":6652:6686   */\n      0x4f776e61626c653a2063616c6c6572206973206e6f7420746865206f776e6572\n        /* \"#utility.yul\":6632:6650   */\n      0x44\n      dup3\n      add\n        /* \"#utility.yul\":6625:6687   */\n      mstore\n        /* \"#utility.yul\":6704:6722   */\n      0x64\n      add\n        /* \"contracts/Staking/ERC20_flattened.sol\":2272:2340  require(owner() == _msgSender(), \"Ownable: caller is not the owner\") */\n      tag_121\n        /* \"#utility.yul\":6372:6728   */\n      jump\n        /* \"contracts/Staking/ERC20_flattened.sol\":3291:3478  function _transferOwnership(address newOwner) internal virtual {... */\n    tag_109:\n        /* \"contracts/Staking/ERC20_flattened.sol\":3383:3389  _owner */\n      0x05\n      dup1\n      sload\n      sub(shl(0xa0, 0x01), 0x01)\n        /* \"contracts/Staking/ERC20_flattened.sol\":3399:3416  _owner = newOwner */\n      dup4\n      dup2\n      and\n      not(sub(shl(0xa0, 0x01), 0x01))\n      dup4\n      and\n      dup2\n      or\n      swap1\n      swap4\n      sstore\n        /* \"contracts/Staking/ERC20_flattened.sol\":3431:3471  OwnershipTransferred(oldOwner, newOwner) */\n      mload(0x40)\n        /* \"contracts/Staking/ERC20_flattened.sol\":3383:3389  _owner */\n      swap2\n      and\n      swap2\n        /* \"contracts/Staking/ERC20_flattened.sol\":3399:3416  _owner = newOwner */\n      swap1\n        /* \"contracts/Staking/ERC20_flattened.sol\":3383:3389  _owner */\n      dup3\n      swap1\n        /* \"contracts/Staking/ERC20_flattened.sol\":3431:3471  OwnershipTransferred(oldOwner, newOwner) */\n      0x8be0079c531659141344cd1fd0a4f28419497f9722a3daafe3b4186f6b6457e0\n      swap1\n        /* \"contracts/Staking/ERC20_flattened.sol\":3364:3380  address oldOwner */\n      0x00\n      swap1\n        /* \"contracts/Staking/ERC20_flattened.sol\":3431:3471  OwnershipTransferred(oldOwner, newOwner) */\n      log3\n        /* \"contracts/Staking/ERC20_flattened.sol\":3354:3478  {... */\n      pop\n        /* \"contracts/Staking/ERC20_flattened.sol\":3291:3478  function _transferOwnership(address newOwner) internal virtual {... */\n      pop\n      jump\t// out\n        /* \"#utility.yul\":14:562   */\n    tag_23:\n        /* \"#utility.yul\":126:130   */\n      0x00\n        /* \"#utility.yul\":155:157   */\n      0x20\n        /* \"#utility.yul\":184:186   */\n      dup1\n        /* \"#utility.yul\":173:182   */\n      dup4\n        /* \"#utility.yul\":166:187   */\n      mstore\n        /* \"#utility.yul\":216:222   */\n      dup4\n        /* \"#utility.yul\":210:223   */\n      mload\n        /* \"#utility.yul\":259:265   */\n      dup1\n        /* \"#utility.yul\":254:256   */\n      dup3\n        /* \"#utility.yul\":243:252   */\n      dup6\n        /* \"#utility.yul\":239:257   */\n      add\n        /* \"#utility.yul\":232:266   */\n      mstore\n        /* \"#utility.yul\":284:285   */\n      0x00\n        /* \"#utility.yul\":294:434   */\n    tag_178:\n        /* \"#utility.yul\":308:314   */\n      dup2\n        /* \"#utility.yul\":305:306   */\n      dup2\n        /* \"#utility.yul\":302:315   */\n      lt\n        /* \"#utility.yul\":294:434   */\n      iszero\n      tag_180\n      jumpi\n        /* \"#utility.yul\":403:417   */\n      dup6\n      dup2\n      add\n        /* \"#utility.yul\":399:422   */\n      dup4\n      add\n        /* \"#utility.yul\":393:423   */\n      mload\n        /* \"#utility.yul\":369:386   */\n      dup6\n      dup3\n      add\n        /* \"#utility.yul\":388:390   */\n      0x40\n        /* \"#utility.yul\":365:391   */\n      add\n        /* \"#utility.yul\":358:424   */\n      mstore\n        /* \"#utility.yul\":323:333   */\n      dup3\n      add\n        /* \"#utility.yul\":294:434   */\n      jump(tag_178)\n    tag_180:\n        /* \"#utility.yul\":298:301   */\n      pop\n        /* \"#utility.yul\":483:484   */\n      0x00\n        /* \"#utility.yul\":478:480   */\n      0x40\n        /* \"#utility.yul\":469:475   */\n      dup3\n        /* \"#utility.yul\":458:467   */\n      dup7\n        /* \"#utility.yul\":454:476   */\n      add\n        /* \"#utility.yul\":450:481   */\n      add\n        /* \"#utility.yul\":443:485   */\n      mstore\n        /* \"#utility.yul\":553:555   */\n      0x40\n        /* \"#utility.yul\":546:548   */\n      0x1f\n        /* \"#utility.yul\":542:549   */\n      not\n        /* \"#utility.yul\":537:539   */\n      0x1f\n        /* \"#utility.yul\":529:535   */\n      dup4\n        /* \"#utility.yul\":525:540   */\n      add\n        /* \"#utility.yul\":521:550   */\n      and\n        /* \"#utility.yul\":510:519   */\n      dup6\n        /* \"#utility.yul\":506:551   */\n      add\n        /* \"#utility.yul\":502:556   */\n      add\n        /* \"#utility.yul\":494:556   */\n      swap3\n      pop\n      pop\n      pop\n        /* \"#utility.yul\":14:562   */\n      swap3\n      swap2\n      pop\n      pop\n      jump\t// out\n        /* \"#utility.yul\":567:740   */\n    tag_175:\n        /* \"#utility.yul\":635:655   */\n      dup1\n      calldataload\n      sub(shl(0xa0, 0x01), 0x01)\n        /* \"#utility.yul\":684:715   */\n      dup2\n      and\n        /* \"#utility.yul\":674:716   */\n      dup2\n      eq\n        /* \"#utility.yul\":664:734   */\n      tag_182\n      jumpi\n        /* \"#utility.yul\":730:731   */\n      0x00\n        /* \"#utility.yul\":727:728   */\n      dup1\n        /* \"#utility.yul\":720:732   */\n      revert\n        /* \"#utility.yul\":664:734   */\n    tag_182:\n        /* \"#utility.yul\":567:740   */\n      swap2\n      swap1\n      pop\n      jump\t// out\n        /* \"#utility.yul\":745:999   */\n    tag_26:\n        /* \"#utility.yul\":813:819   */\n      0x00\n        /* \"#utility.yul\":821:827   */\n      dup1\n        /* \"#utility.yul\":874:876   */\n      0x40\n        /* \"#utility.yul\":862:871   */\n      dup4\n        /* \"#utility.yul\":853:860   */\n      dup6\n        /* \"#utility.yul\":849:872   */\n      sub\n        /* \"#utility.yul\":845:877   */\n      slt\n        /* \"#utility.yul\":842:894   */\n      iszero\n      tag_184\n      jumpi\n        /* \"#utility.yul\":890:891   */\n      0x00\n        /* \"#utility.yul\":887:888   */\n      dup1\n        /* \"#utility.yul\":880:892   */\n      revert\n        /* \"#utility.yul\":842:894   */\n    tag_184:\n        /* \"#utility.yul\":913:942   */\n      tag_185\n        /* \"#utility.yul\":932:941   */\n      dup4\n        /* \"#utility.yul\":913:942   */\n      tag_175\n      jump\t// in\n    tag_185:\n        /* \"#utility.yul\":903:942   */\n      swap5\n        /* \"#utility.yul\":989:991   */\n      0x20\n        /* \"#utility.yul\":974:992   */\n      swap4\n      swap1\n      swap4\n      add\n        /* \"#utility.yul\":961:993   */\n      calldataload\n      swap4\n      pop\n      pop\n      pop\n        /* \"#utility.yul\":745:999   */\n      jump\t// out\n        /* \"#utility.yul\":1378:1706   */\n    tag_36:\n        /* \"#utility.yul\":1455:1461   */\n      0x00\n        /* \"#utility.yul\":1463:1469   */\n      dup1\n        /* \"#utility.yul\":1471:1477   */\n      0x00\n        /* \"#utility.yul\":1524:1526   */\n      0x60\n        /* \"#utility.yul\":1512:1521   */\n      dup5\n        /* \"#utility.yul\":1503:1510   */\n      dup7\n        /* \"#utility.yul\":1499:1522   */\n      sub\n        /* \"#utility.yul\":1495:1527   */\n      slt\n        /* \"#utility.yul\":1492:1544   */\n      iszero\n      tag_189\n      jumpi\n        /* \"#utility.yul\":1540:1541   */\n      0x00\n        /* \"#utility.yul\":1537:1538   */\n      dup1\n        /* \"#utility.yul\":1530:1542   */\n      revert\n        /* \"#utility.yul\":1492:1544   */\n    tag_189:\n        /* \"#utility.yul\":1563:1592   */\n      tag_190\n        /* \"#utility.yul\":1582:1591   */\n      dup5\n        /* \"#utility.yul\":1563:1592   */\n      tag_175\n      jump\t// in\n    tag_190:\n        /* \"#utility.yul\":1553:1592   */\n      swap3\n      pop\n        /* \"#utility.yul\":1611:1649   */\n      tag_191\n        /* \"#utility.yul\":1645:1647   */\n      0x20\n        /* \"#utility.yul\":1634:1643   */\n      dup6\n        /* \"#utility.yul\":1630:1648   */\n      add\n        /* \"#utility.yul\":1611:1649   */\n      tag_175\n      jump\t// in\n    tag_191:\n        /* \"#utility.yul\":1601:1649   */\n      swap2\n      pop\n        /* \"#utility.yul\":1696:1698   */\n      0x40\n        /* \"#utility.yul\":1685:1694   */\n      dup5\n        /* \"#utility.yul\":1681:1699   */\n      add\n        /* \"#utility.yul\":1668:1700   */\n      calldataload\n        /* \"#utility.yul\":1658:1700   */\n      swap1\n      pop\n        /* \"#utility.yul\":1378:1706   */\n      swap3\n      pop\n      swap3\n      pop\n      swap3\n      jump\t// out\n        /* \"#utility.yul\":1900:2086   */\n    tag_49:\n        /* \"#utility.yul\":1959:1965   */\n      0x00\n        /* \"#utility.yul\":2012:2014   */\n      0x20\n        /* \"#utility.yul\":2000:2009   */\n      dup3\n        /* \"#utility.yul\":1991:1998   */\n      dup5\n        /* \"#utility.yul\":1987:2010   */\n      sub\n        /* \"#utility.yul\":1983:2015   */\n      slt\n        /* \"#utility.yul\":1980:2032   */\n      iszero\n      tag_194\n      jumpi\n        /* \"#utility.yul\":2028:2029   */\n      0x00\n        /* \"#utility.yul\":2025:2026   */\n      dup1\n        /* \"#utility.yul\":2018:2030   */\n      revert\n        /* \"#utility.yul\":1980:2032   */\n    tag_194:\n        /* \"#utility.yul\":2051:2080   */\n      tag_195\n        /* \"#utility.yul\":2070:2079   */\n      dup3\n        /* \"#utility.yul\":2051:2080   */\n      tag_175\n      jump\t// in\n    tag_195:\n        /* \"#utility.yul\":2041:2080   */\n      swap4\n        /* \"#utility.yul\":1900:2086   */\n      swap3\n      pop\n      pop\n      pop\n      jump\t// out\n        /* \"#utility.yul\":2299:2559   */\n    tag_71:\n        /* \"#utility.yul\":2367:2373   */\n      0x00\n        /* \"#utility.yul\":2375:2381   */\n      dup1\n        /* \"#utility.yul\":2428:2430   */\n      0x40\n        /* \"#utility.yul\":2416:2425   */\n      dup4\n        /* \"#utility.yul\":2407:2414   */\n      dup6\n        /* \"#utility.yul\":2403:2426   */\n      sub\n        /* \"#utility.yul\":2399:2431   */\n      slt\n        /* \"#utility.yul\":2396:2448   */\n      iszero\n      tag_198\n      jumpi\n        /* \"#utility.yul\":2444:2445   */\n      0x00\n        /* \"#utility.yul\":2441:2442   */\n      dup1\n        /* \"#utility.yul\":2434:2446   */\n      revert\n        /* \"#utility.yul\":2396:2448   */\n    tag_198:\n        /* \"#utility.yul\":2467:2496   */\n      tag_199\n        /* \"#utility.yul\":2486:2495   */\n      dup4\n        /* \"#utility.yul\":2467:2496   */\n      tag_175\n      jump\t// in\n    tag_199:\n        /* \"#utility.yul\":2457:2496   */\n      swap2\n      pop\n        /* \"#utility.yul\":2515:2553   */\n      tag_200\n        /* \"#utility.yul\":2549:2551   */\n      0x20\n        /* \"#utility.yul\":2538:2547   */\n      dup5\n        /* \"#utility.yul\":2534:2552   */\n      add\n        /* \"#utility.yul\":2515:2553   */\n      tag_175\n      jump\t// in\n    tag_200:\n        /* \"#utility.yul\":2505:2553   */\n      swap1\n      pop\n        /* \"#utility.yul\":2299:2559   */\n      swap3\n      pop\n      swap3\n      swap1\n      pop\n      jump\t// out\n        /* \"#utility.yul\":2564:2944   */\n    tag_79:\n        /* \"#utility.yul\":2643:2644   */\n      0x01\n        /* \"#utility.yul\":2639:2651   */\n      dup2\n      dup2\n      shr\n      swap1\n        /* \"#utility.yul\":2686:2698   */\n      dup3\n      and\n      dup1\n        /* \"#utility.yul\":2707:2768   */\n      tag_202\n      jumpi\n        /* \"#utility.yul\":2761:2765   */\n      0x7f\n        /* \"#utility.yul\":2753:2759   */\n      dup3\n        /* \"#utility.yul\":2749:2766   */\n      and\n        /* \"#utility.yul\":2739:2766   */\n      swap2\n      pop\n        /* \"#utility.yul\":2707:2768   */\n    tag_202:\n        /* \"#utility.yul\":2814:2816   */\n      0x20\n        /* \"#utility.yul\":2806:2812   */\n      dup3\n        /* \"#utility.yul\":2803:2817   */\n      lt\n        /* \"#utility.yul\":2783:2801   */\n      dup2\n        /* \"#utility.yul\":2780:2818   */\n      sub\n        /* \"#utility.yul\":2777:2938   */\n      tag_203\n      jumpi\n        /* \"#utility.yul\":2860:2870   */\n      0x4e487b71\n        /* \"#utility.yul\":2855:2858   */\n      0xe0\n        /* \"#utility.yul\":2851:2871   */\n      shl\n        /* \"#utility.yul\":2848:2849   */\n      0x00\n        /* \"#utility.yul\":2841:2872   */\n      mstore\n        /* \"#utility.yul\":2895:2899   */\n      0x22\n        /* \"#utility.yul\":2892:2893   */\n      0x04\n        /* \"#utility.yul\":2885:2900   */\n      mstore\n        /* \"#utility.yul\":2923:2927   */\n      0x24\n        /* \"#utility.yul\":2920:2921   */\n      0x00\n        /* \"#utility.yul\":2913:2928   */\n      revert\n        /* \"#utility.yul\":2777:2938   */\n    tag_203:\n      pop\n        /* \"#utility.yul\":2564:2944   */\n      swap2\n      swap1\n      pop\n      jump\t// out\n        /* \"#utility.yul\":2949:3171   */\n    tag_102:\n        /* \"#utility.yul\":3014:3023   */\n      dup1\n      dup3\n      add\n        /* \"#utility.yul\":3035:3045   */\n      dup1\n      dup3\n      gt\n        /* \"#utility.yul\":3032:3165   */\n      iszero\n      tag_84\n      jumpi\n        /* \"#utility.yul\":3087:3097   */\n      0x4e487b71\n        /* \"#utility.yul\":3082:3085   */\n      0xe0\n        /* \"#utility.yul\":3078:3098   */\n      shl\n        /* \"#utility.yul\":3075:3076   */\n      0x00\n        /* \"#utility.yul\":3068:3099   */\n      mstore\n        /* \"#utility.yul\":3122:3126   */\n      0x11\n        /* \"#utility.yul\":3119:3120   */\n      0x04\n        /* \"#utility.yul\":3112:3127   */\n      mstore\n        /* \"#utility.yul\":3150:3154   */\n      0x24\n        /* \"#utility.yul\":3147:3148   */\n      0x00\n        /* \"#utility.yul\":3140:3155   */\n      revert\n\n    auxdata: 0xa2646970667358221220dc9b813c5912fb4aa854b6411f90f665190da5a6c3b606bca68d6ee22ea4ba1964736f6c63430008130033\n}\n",
				"bytecode": {
					"linkReferences": {},
					"object": "60806040523480156200001157600080fd5b506040518060400160405280600781526020016626bcaa37b5b2b760c91b815250604051806040016040528060038152602001624d544b60e81b81525081600390816200005f91906200026a565b5060046200006e82826200026a565b5050506200008b62000085620000a560201b60201c565b620000a9565b6200009f33670de0b6b3a7640000620000fb565b6200035e565b3390565b600580546001600160a01b038381166001600160a01b0319831681179093556040519116919082907f8be0079c531659141344cd1fd0a4f28419497f9722a3daafe3b4186f6b6457e090600090a35050565b6001600160a01b038216620001565760405162461bcd60e51b815260206004820152601f60248201527f45524332303a206d696e7420746f20746865207a65726f206164647265737300604482015260640160405180910390fd5b80600260008282546200016a919062000336565b90915550506001600160a01b038216600081815260208181526040808320805486019055518481527fddf252ad1be2c89b69c2b068fc378daa952ba7f163c4a11628f55a4df523b3ef910160405180910390a35050565b505050565b634e487b7160e01b600052604160045260246000fd5b600181811c90821680620001f157607f821691505b6020821081036200021257634e487b7160e01b600052602260045260246000fd5b50919050565b601f821115620001c157600081815260208120601f850160051c81016020861015620002415750805b601f850160051c820191505b8181101562000262578281556001016200024d565b505050505050565b81516001600160401b03811115620002865762000286620001c6565b6200029e81620002978454620001dc565b8462000218565b602080601f831160018114620002d65760008415620002bd5750858301515b600019600386901b1c1916600185901b17855562000262565b600085815260208120601f198616915b828110156200030757888601518255948401946001909101908401620002e6565b5085821015620003265787850151600019600388901b60f8161c191681555b5050505050600190811b01905550565b808201808211156200035857634e487b7160e01b600052601160045260246000fd5b92915050565b610a04806200036e6000396000f3fe608060405234801561001057600080fd5b50600436106100ea5760003560e01c8063715018a61161008c578063a457c2d711610066578063a457c2d7146101cd578063a9059cbb146101e0578063dd62ed3e146101f3578063f2fde38b1461020657600080fd5b8063715018a6146101a05780638da5cb5b146101aa57806395d89b41146101c557600080fd5b806323b872dd116100c857806323b872dd14610142578063313ce56714610155578063395093511461016457806370a082311461017757600080fd5b806306fdde03146100ef578063095ea7b31461010d57806318160ddd14610130575b600080fd5b6100f7610219565b604051610104919061084e565b60405180910390f35b61012061011b3660046108b8565b6102ab565b6040519015158152602001610104565b6002545b604051908152602001610104565b6101206101503660046108e2565b6102c5565b60405160128152602001610104565b6101206101723660046108b8565b6102e9565b61013461018536600461091e565b6001600160a01b031660009081526020819052604090205490565b6101a861030b565b005b6005546040516001600160a01b039091168152602001610104565b6100f761031f565b6101206101db3660046108b8565b61032e565b6101206101ee3660046108b8565b6103ae565b610134610201366004610940565b6103bc565b6101a861021436600461091e565b6103e7565b60606003805461022890610973565b80601f016020809104026020016040519081016040528092919081815260200182805461025490610973565b80156102a15780601f10610276576101008083540402835291602001916102a1565b820191906000526020600020905b81548152906001019060200180831161028457829003601f168201915b5050505050905090565b6000336102b9818585610460565b60019150505b92915050565b6000336102d3858285610584565b6102de8585856105fe565b506001949350505050565b6000336102b98185856102fc83836103bc565b61030691906109ad565b610460565b6103136107a2565b61031d60006107fc565b565b60606004805461022890610973565b6000338161033c82866103bc565b9050838110156103a15760405162461bcd60e51b815260206004820152602560248201527f45524332303a2064656372656173656420616c6c6f77616e63652062656c6f77604482015264207a65726f60d81b60648201526084015b60405180910390fd5b6102de8286868403610460565b6000336102b98185856105fe565b6001600160a01b03918216600090815260016020908152604080832093909416825291909152205490565b6103ef6107a2565b6001600160a01b0381166104545760405162461bcd60e51b815260206004820152602660248201527f4f776e61626c653a206e6577206f776e657220697320746865207a65726f206160448201526564647265737360d01b6064820152608401610398565b61045d816107fc565b50565b6001600160a01b0383166104c25760405162461bcd60e51b8152602060048201526024808201527f45524332303a20617070726f76652066726f6d20746865207a65726f206164646044820152637265737360e01b6064820152608401610398565b6001600160a01b0382166105235760405162461bcd60e51b815260206004820152602260248201527f45524332303a20617070726f766520746f20746865207a65726f206164647265604482015261737360f01b6064820152608401610398565b6001600160a01b0383811660008181526001602090815260408083209487168084529482529182902085905590518481527f8c5be1e5ebec7d5bd14f71427d1e84f3dd0314c0f7b2291e5b200ac8c7c3b925910160405180910390a3505050565b600061059084846103bc565b905060001981146105f857818110156105eb5760405162461bcd60e51b815260206004820152601d60248201527f45524332303a20696e73756666696369656e7420616c6c6f77616e63650000006044820152606401610398565b6105f88484848403610460565b50505050565b6001600160a01b0383166106625760405162461bcd60e51b815260206004820152602560248201527f45524332303a207472616e736665722066726f6d20746865207a65726f206164604482015264647265737360d81b6064820152608401610398565b6001600160a01b0382166106c45760405162461bcd60e51b815260206004820152602360248201527f45524332303a207472616e7366657220746f20746865207a65726f206164647260448201526265737360e81b6064820152608401610398565b6001600160a01b0383166000908152602081905260409020548181101561073c5760405162461bcd60e51b815260206004820152602660248201527f45524332303a207472616e7366657220616d6f756e7420657863656564732062604482015265616c616e636560d01b6064820152608401610398565b6001600160a01b03848116600081815260208181526040808320878703905593871680835291849020805487019055925185815290927fddf252ad1be2c89b69c2b068fc378daa952ba7f163c4a11628f55a4df523b3ef910160405180910390a36105f8565b6005546001600160a01b0316331461031d5760405162461bcd60e51b815260206004820181905260248201527f4f776e61626c653a2063616c6c6572206973206e6f7420746865206f776e65726044820152606401610398565b600580546001600160a01b038381166001600160a01b0319831681179093556040519116919082907f8be0079c531659141344cd1fd0a4f28419497f9722a3daafe3b4186f6b6457e090600090a35050565b600060208083528351808285015260005b8181101561087b5785810183015185820160400152820161085f565b506000604082860101526040601f19601f8301168501019250505092915050565b80356001600160a01b03811681146108b357600080fd5b919050565b600080604083850312156108cb57600080fd5b6108d48361089c565b946020939093013593505050565b6000806000606084860312156108f757600080fd5b6109008461089c565b925061090e6020850161089c565b9150604084013590509250925092565b60006020828403121561093057600080fd5b6109398261089c565b9392505050565b6000806040838503121561095357600080fd5b61095c8361089c565b915061096a6020840161089c565b90509250929050565b600181811c9082168061098757607f821691505b6020821081036109a757634e487b7160e01b600052602260045260246000fd5b50919050565b808201808211156102bf57634e487b7160e01b600052601160045260246000fdfea2646970667358221220dc9b813c5912fb4aa854b6411f90f665190da5a6c3b606bca68d6ee22ea4ba1964736f6c63430008130033",
					"opcodes": "PUSH1 0x80 PUSH1 0x40 MSTORE CALLVALUE DUP1 ISZERO PUSH3 0x11 JUMPI PUSH1 0x0 DUP1 REVERT JUMPDEST POP PUSH1 0x40 MLOAD DUP1 PUSH1 0x40 ADD PUSH1 0x40 MSTORE DUP1 PUSH1 0x7 DUP2 MSTORE PUSH1 0x20 ADD PUSH7 0x26BCAA37B5B2B7 PUSH1 0xC9 SHL DUP2 MSTORE POP PUSH1 0x40 MLOAD DUP1 PUSH1 0x40 ADD PUSH1 0x40 MSTORE DUP1 PUSH1 0x3 DUP2 MSTORE PUSH1 0x20 ADD PUSH3 0x4D544B PUSH1 0xE8 SHL DUP2 MSTORE POP DUP2 PUSH1 0x3 SWAP1 DUP2 PUSH3 0x5F SWAP2 SWAP1 PUSH3 0x26A JUMP JUMPDEST POP PUSH1 0x4 PUSH3 0x6E DUP3 DUP3 PUSH3 0x26A JUMP JUMPDEST POP POP POP PUSH3 0x8B PUSH3 0x85 PUSH3 0xA5 PUSH1 0x20 SHL PUSH1 0x20 SHR JUMP JUMPDEST PUSH3 0xA9 JUMP JUMPDEST PUSH3 0x9F CALLER PUSH8 0xDE0B6B3A7640000 PUSH3 0xFB JUMP JUMPDEST PUSH3 0x35E JUMP JUMPDEST CALLER SWAP1 JUMP JUMPDEST PUSH1 0x5 DUP1 SLOAD PUSH1 0x1 PUSH1 0x1 PUSH1 0xA0 SHL SUB DUP4 DUP2 AND PUSH1 0x1 PUSH1 0x1 PUSH1 0xA0 SHL SUB NOT DUP4 AND DUP2 OR SWAP1 SWAP4 SSTORE PUSH1 0x40 MLOAD SWAP2 AND SWAP2 SWAP1 DUP3 SWAP1 PUSH32 0x8BE0079C531659141344CD1FD0A4F28419497F9722A3DAAFE3B4186F6B6457E0 SWAP1 PUSH1 0x0 SWAP1 LOG3 POP POP JUMP JUMPDEST PUSH1 0x1 PUSH1 0x1 PUSH1 0xA0 SHL SUB DUP3 AND PUSH3 0x156 JUMPI PUSH1 0x40 MLOAD PUSH3 0x461BCD PUSH1 0xE5 SHL DUP2 MSTORE PUSH1 0x20 PUSH1 0x4 DUP3 ADD MSTORE PUSH1 0x1F PUSH1 0x24 DUP3 ADD MSTORE PUSH32 0x45524332303A206D696E7420746F20746865207A65726F206164647265737300 PUSH1 0x44 DUP3 ADD MSTORE PUSH1 0x64 ADD PUSH1 0x40 MLOAD DUP1 SWAP2 SUB SWAP1 REVERT JUMPDEST DUP1 PUSH1 0x2 PUSH1 0x0 DUP3 DUP3 SLOAD PUSH3 0x16A SWAP2 SWAP1 PUSH3 0x336 JUMP JUMPDEST SWAP1 SWAP2 SSTORE POP POP PUSH1 0x1 PUSH1 0x1 PUSH1 0xA0 SHL SUB DUP3 AND PUSH1 0x0 DUP2 DUP2 MSTORE PUSH1 0x20 DUP2 DUP2 MSTORE PUSH1 0x40 DUP1 DUP4 KECCAK256 DUP1 SLOAD DUP7 ADD SWAP1 SSTORE MLOAD DUP5 DUP2 MSTORE PUSH32 0xDDF252AD1BE2C89B69C2B068FC378DAA952BA7F163C4A11628F55A4DF523B3EF SWAP2 ADD PUSH1 0x40 MLOAD DUP1 SWAP2 SUB SWAP1 LOG3 POP POP JUMP JUMPDEST POP POP POP JUMP JUMPDEST PUSH4 0x4E487B71 PUSH1 0xE0 SHL PUSH1 0x0 MSTORE PUSH1 0x41 PUSH1 0x4 MSTORE PUSH1 0x24 PUSH1 0x0 REVERT JUMPDEST PUSH1 0x1 DUP2 DUP2 SHR SWAP1 DUP3 AND DUP1 PUSH3 0x1F1 JUMPI PUSH1 0x7F DUP3 AND SWAP2 POP JUMPDEST PUSH1 0x20 DUP3 LT DUP2 SUB PUSH3 0x212 JUMPI PUSH4 0x4E487B71 PUSH1 0xE0 SHL PUSH1 0x0 MSTORE PUSH1 0x22 PUSH1 0x4 MSTORE PUSH1 0x24 PUSH1 0x0 REVERT JUMPDEST POP SWAP2 SWAP1 POP JUMP JUMPDEST PUSH1 0x1F DUP3 GT ISZERO PUSH3 0x1C1 JUMPI PUSH1 0x0 DUP2 DUP2 MSTORE PUSH1 0x20 DUP2 KECCAK256 PUSH1 0x1F DUP6 ADD PUSH1 0x5 SHR DUP2 ADD PUSH1 0x20 DUP7 LT ISZERO PUSH3 0x241 JUMPI POP DUP1 JUMPDEST PUSH1 0x1F DUP6 ADD PUSH1 0x5 SHR DUP3 ADD SWAP2 POP JUMPDEST DUP2 DUP2 LT ISZERO PUSH3 0x262 JUMPI DUP3 DUP2 SSTORE PUSH1 0x1 ADD PUSH3 0x24D JUMP JUMPDEST POP POP POP POP POP POP JUMP JUMPDEST DUP2 MLOAD PUSH1 0x1 PUSH1 0x1 PUSH1 0x40 SHL SUB DUP2 GT ISZERO PUSH3 0x286 JUMPI PUSH3 0x286 PUSH3 0x1C6 JUMP JUMPDEST PUSH3 0x29E DUP2 PUSH3 0x297 DUP5 SLOAD PUSH3 0x1DC JUMP JUMPDEST DUP5 PUSH3 0x218 JUMP JUMPDEST PUSH1 0x20 DUP1 PUSH1 0x1F DUP4 GT PUSH1 0x1 DUP2 EQ PUSH3 0x2D6 JUMPI PUSH1 0x0 DUP5 ISZERO PUSH3 0x2BD JUMPI POP DUP6 DUP4 ADD MLOAD JUMPDEST PUSH1 0x0 NOT PUSH1 0x3 DUP7 SWAP1 SHL SHR NOT AND PUSH1 0x1 DUP6 SWAP1 SHL OR DUP6 SSTORE PUSH3 0x262 JUMP JUMPDEST PUSH1 0x0 DUP6 DUP2 MSTORE PUSH1 0x20 DUP2 KECCAK256 PUSH1 0x1F NOT DUP7 AND SWAP2 JUMPDEST DUP3 DUP2 LT ISZERO PUSH3 0x307 JUMPI DUP9 DUP7 ADD MLOAD DUP3 SSTORE SWAP5 DUP5 ADD SWAP5 PUSH1 0x1 SWAP1 SWAP2 ADD SWAP1 DUP5 ADD PUSH3 0x2E6 JUMP JUMPDEST POP DUP6 DUP3 LT ISZERO PUSH3 0x326 JUMPI DUP8 DUP6 ADD MLOAD PUSH1 0x0 NOT PUSH1 0x3 DUP9 SWAP1 SHL PUSH1 0xF8 AND SHR NOT AND DUP2 SSTORE JUMPDEST POP POP POP POP POP PUSH1 0x1 SWAP1 DUP2 SHL ADD SWAP1 SSTORE POP JUMP JUMPDEST DUP1 DUP3 ADD DUP1 DUP3 GT ISZERO PUSH3 0x358 JUMPI PUSH4 0x4E487B71 PUSH1 0xE0 SHL PUSH1 0x0 MSTORE PUSH1 0x11 PUSH1 0x4 MSTORE PUSH1 0x24 PUSH1 0x0 REVERT JUMPDEST SWAP3 SWAP2 POP POP JUMP JUMPDEST PUSH2 0xA04 DUP1 PUSH3 0x36E PUSH1 0x0 CODECOPY PUSH1 0x0 RETURN INVALID PUSH1 0x80 PUSH1 0x40 MSTORE CALLVALUE DUP1 ISZERO PUSH2 0x10 JUMPI PUSH1 0x0 DUP1 REVERT JUMPDEST POP PUSH1 0x4 CALLDATASIZE LT PUSH2 0xEA JUMPI PUSH1 0x0 CALLDATALOAD PUSH1 0xE0 SHR DUP1 PUSH4 0x715018A6 GT PUSH2 0x8C JUMPI DUP1 PUSH4 0xA457C2D7 GT PUSH2 0x66 JUMPI DUP1 PUSH4 0xA457C2D7 EQ PUSH2 0x1CD JUMPI DUP1 PUSH4 0xA9059CBB EQ PUSH2 0x1E0 JUMPI DUP1 PUSH4 0xDD62ED3E EQ PUSH2 0x1F3 JUMPI DUP1 PUSH4 0xF2FDE38B EQ PUSH2 0x206 JUMPI PUSH1 0x0 DUP1 REVERT JUMPDEST DUP1 PUSH4 0x715018A6 EQ PUSH2 0x1A0 JUMPI DUP1 PUSH4 0x8DA5CB5B EQ PUSH2 0x1AA JUMPI DUP1 PUSH4 0x95D89B41 EQ PUSH2 0x1C5 JUMPI PUSH1 0x0 DUP1 REVERT JUMPDEST DUP1 PUSH4 0x23B872DD GT PUSH2 0xC8 JUMPI DUP1 PUSH4 0x23B872DD EQ PUSH2 0x142 JUMPI DUP1 PUSH4 0x313CE567 EQ PUSH2 0x155 JUMPI DUP1 PUSH4 0x39509351 EQ PUSH2 0x164 JUMPI DUP1 PUSH4 0x70A08231 EQ PUSH2 0x177 JUMPI PUSH1 0x0 DUP1 REVERT JUMPDEST DUP1 PUSH4 0x6FDDE03 EQ PUSH2 0xEF JUMPI DUP1 PUSH4 0x95EA7B3 EQ PUSH2 0x10D JUMPI DUP1 PUSH4 0x18160DDD EQ PUSH2 0x130 JUMPI JUMPDEST PUSH1 0x0 DUP1 REVERT JUMPDEST PUSH2 0xF7 PUSH2 0x219 JUMP JUMPDEST PUSH1 0x40 MLOAD PUSH2 0x104 SWAP2 SWAP1 PUSH2 0x84E JUMP JUMPDEST PUSH1 0x40 MLOAD DUP1 SWAP2 SUB SWAP1 RETURN JUMPDEST PUSH2 0x120 PUSH2 0x11B CALLDATASIZE PUSH1 0x4 PUSH2 0x8B8 JUMP JUMPDEST PUSH2 0x2AB JUMP JUMPDEST PUSH1 0x40 MLOAD SWAP1 ISZERO ISZERO DUP2 MSTORE PUSH1 0x20 ADD PUSH2 0x104 JUMP JUMPDEST PUSH1 0x2 SLOAD JUMPDEST PUSH1 0x40 MLOAD SWAP1 DUP2 MSTORE PUSH1 0x20 ADD PUSH2 0x104 JUMP JUMPDEST PUSH2 0x120 PUSH2 0x150 CALLDATASIZE PUSH1 0x4 PUSH2 0x8E2 JUMP JUMPDEST PUSH2 0x2C5 JUMP JUMPDEST PUSH1 0x40 MLOAD PUSH1 0x12 DUP2 MSTORE PUSH1 0x20 ADD PUSH2 0x104 JUMP JUMPDEST PUSH2 0x120 PUSH2 0x172 CALLDATASIZE PUSH1 0x4 PUSH2 0x8B8 JUMP JUMPDEST PUSH2 0x2E9 JUMP JUMPDEST PUSH2 0x134 PUSH2 0x185 CALLDATASIZE PUSH1 0x4 PUSH2 0x91E JUMP JUMPDEST PUSH1 0x1 PUSH1 0x1 PUSH1 0xA0 SHL SUB AND PUSH1 0x0 SWAP1 DUP2 MSTORE PUSH1 0x20 DUP2 SWAP1 MSTORE PUSH1 0x40 SWAP1 KECCAK256 SLOAD SWAP1 JUMP JUMPDEST PUSH2 0x1A8 PUSH2 0x30B JUMP JUMPDEST STOP JUMPDEST PUSH1 0x5 SLOAD PUSH1 0x40 MLOAD PUSH1 0x1 PUSH1 0x1 PUSH1 0xA0 SHL SUB SWAP1 SWAP2 AND DUP2 MSTORE PUSH1 0x20 ADD PUSH2 0x104 JUMP JUMPDEST PUSH2 0xF7 PUSH2 0x31F JUMP JUMPDEST PUSH2 0x120 PUSH2 0x1DB CALLDATASIZE PUSH1 0x4 PUSH2 0x8B8 JUMP JUMPDEST PUSH2 0x32E JUMP JUMPDEST PUSH2 0x120 PUSH2 0x1EE CALLDATASIZE PUSH1 0x4 PUSH2 0x8B8 JUMP JUMPDEST PUSH2 0x3AE JUMP JUMPDEST PUSH2 0x134 PUSH2 0x201 CALLDATASIZE PUSH1 0x4 PUSH2 0x940 JUMP JUMPDEST PUSH2 0x3BC JUMP JUMPDEST PUSH2 0x1A8 PUSH2 0x214 CALLDATASIZE PUSH1 0x4 PUSH2 0x91E JUMP JUMPDEST PUSH2 0x3E7 JUMP JUMPDEST PUSH1 0x60 PUSH1 0x3 DUP1 SLOAD PUSH2 0x228 SWAP1 PUSH2 0x973 JUMP JUMPDEST DUP1 PUSH1 0x1F ADD PUSH1 0x20 DUP1 SWAP2 DIV MUL PUSH1 0x20 ADD PUSH1 0x40 MLOAD SWAP1 DUP2 ADD PUSH1 0x40 MSTORE DUP1 SWAP3 SWAP2 SWAP1 DUP2 DUP2 MSTORE PUSH1 0x20 ADD DUP3 DUP1 SLOAD PUSH2 0x254 SWAP1 PUSH2 0x973 JUMP JUMPDEST DUP1 ISZERO PUSH2 0x2A1 JUMPI DUP1 PUSH1 0x1F LT PUSH2 0x276 JUMPI PUSH2 0x100 DUP1 DUP4 SLOAD DIV MUL DUP4 MSTORE SWAP2 PUSH1 0x20 ADD SWAP2 PUSH2 0x2A1 JUMP JUMPDEST DUP3 ADD SWAP2 SWAP1 PUSH1 0x0 MSTORE PUSH1 0x20 PUSH1 0x0 KECCAK256 SWAP1 JUMPDEST DUP2 SLOAD DUP2 MSTORE SWAP1 PUSH1 0x1 ADD SWAP1 PUSH1 0x20 ADD DUP1 DUP4 GT PUSH2 0x284 JUMPI DUP3 SWAP1 SUB PUSH1 0x1F AND DUP3 ADD SWAP2 JUMPDEST POP POP POP POP POP SWAP1 POP SWAP1 JUMP JUMPDEST PUSH1 0x0 CALLER PUSH2 0x2B9 DUP2 DUP6 DUP6 PUSH2 0x460 JUMP JUMPDEST PUSH1 0x1 SWAP2 POP POP JUMPDEST SWAP3 SWAP2 POP POP JUMP JUMPDEST PUSH1 0x0 CALLER PUSH2 0x2D3 DUP6 DUP3 DUP6 PUSH2 0x584 JUMP JUMPDEST PUSH2 0x2DE DUP6 DUP6 DUP6 PUSH2 0x5FE JUMP JUMPDEST POP PUSH1 0x1 SWAP5 SWAP4 POP POP POP POP JUMP JUMPDEST PUSH1 0x0 CALLER PUSH2 0x2B9 DUP2 DUP6 DUP6 PUSH2 0x2FC DUP4 DUP4 PUSH2 0x3BC JUMP JUMPDEST PUSH2 0x306 SWAP2 SWAP1 PUSH2 0x9AD JUMP JUMPDEST PUSH2 0x460 JUMP JUMPDEST PUSH2 0x313 PUSH2 0x7A2 JUMP JUMPDEST PUSH2 0x31D PUSH1 0x0 PUSH2 0x7FC JUMP JUMPDEST JUMP JUMPDEST PUSH1 0x60 PUSH1 0x4 DUP1 SLOAD PUSH2 0x228 SWAP1 PUSH2 0x973 JUMP JUMPDEST PUSH1 0x0 CALLER DUP2 PUSH2 0x33C DUP3 DUP7 PUSH2 0x3BC JUMP JUMPDEST SWAP1 POP DUP4 DUP2 LT ISZERO PUSH2 0x3A1 JUMPI PUSH1 0x40 MLOAD PUSH3 0x461BCD PUSH1 0xE5 SHL DUP2 MSTORE PUSH1 0x20 PUSH1 0x4 DUP3 ADD MSTORE PUSH1 0x25 PUSH1 0x24 DUP3 ADD MSTORE PUSH32 0x45524332303A2064656372656173656420616C6C6F77616E63652062656C6F77 PUSH1 0x44 DUP3 ADD MSTORE PUSH5 0x207A65726F PUSH1 0xD8 SHL PUSH1 0x64 DUP3 ADD MSTORE PUSH1 0x84 ADD JUMPDEST PUSH1 0x40 MLOAD DUP1 SWAP2 SUB SWAP1 REVERT JUMPDEST PUSH2 0x2DE DUP3 DUP7 DUP7 DUP5 SUB PUSH2 0x460 JUMP JUMPDEST PUSH1 0x0 CALLER PUSH2 0x2B9 DUP2 DUP6 DUP6 PUSH2 0x5FE JUMP JUMPDEST PUSH1 0x1 PUSH1 0x1 PUSH1 0xA0 SHL SUB SWAP2 DUP3 AND PUSH1 0x0 SWAP1 DUP2 MSTORE PUSH1 0x1 PUSH1 0x20 SWAP1 DUP2 MSTORE PUSH1 0x40 DUP1 DUP4 KECCAK256 SWAP4 SWAP1 SWAP5 AND DUP3 MSTORE SWAP2 SWAP1 SWAP2 MSTORE KECCAK256 SLOAD SWAP1 JUMP JUMPDEST PUSH2 0x3EF PUSH2 0x7A2 JUMP JUMPDEST PUSH1 0x1 PUSH1 0x1 PUSH1 0xA0 SHL SUB DUP2 AND PUSH2 0x454 JUMPI PUSH1 0x40 MLOAD PUSH3 0x461BCD PUSH1 0xE5 SHL DUP2 MSTORE PUSH1 0x20 PUSH1 0x4 DUP3 ADD MSTORE PUSH1 0x26 PUSH1 0x24 DUP3 ADD MSTORE PUSH32 0x4F776E61626C653A206E6577206F776E657220697320746865207A65726F2061 PUSH1 0x44 DUP3 ADD MSTORE PUSH6 0x646472657373 PUSH1 0xD0 SHL PUSH1 0x64 DUP3 ADD MSTORE PUSH1 0x84 ADD PUSH2 0x398 JUMP JUMPDEST PUSH2 0x45D DUP2 PUSH2 0x7FC JUMP JUMPDEST POP JUMP JUMPDEST PUSH1 0x1 PUSH1 0x1 PUSH1 0xA0 SHL SUB DUP4 AND PUSH2 0x4C2 JUMPI PUSH1 0x40 MLOAD PUSH3 0x461BCD PUSH1 0xE5 SHL DUP2 MSTORE PUSH1 0x20 PUSH1 0x4 DUP3 ADD MSTORE PUSH1 0x24 DUP1 DUP3 ADD MSTORE PUSH32 0x45524332303A20617070726F76652066726F6D20746865207A65726F20616464 PUSH1 0x44 DUP3 ADD MSTORE PUSH4 0x72657373 PUSH1 0xE0 SHL PUSH1 0x64 DUP3 ADD MSTORE PUSH1 0x84 ADD PUSH2 0x398 JUMP JUMPDEST PUSH1 0x1 PUSH1 0x1 PUSH1 0xA0 SHL SUB DUP3 AND PUSH2 0x523 JUMPI PUSH1 0x40 MLOAD PUSH3 0x461BCD PUSH1 0xE5 SHL DUP2 MSTORE PUSH1 0x20 PUSH1 0x4 DUP3 ADD MSTORE PUSH1 0x22 PUSH1 0x24 DUP3 ADD MSTORE PUSH32 0x45524332303A20617070726F766520746F20746865207A65726F206164647265 PUSH1 0x44 DUP3 ADD MSTORE PUSH2 0x7373 PUSH1 0xF0 SHL PUSH1 0x64 DUP3 ADD MSTORE PUSH1 0x84 ADD PUSH2 0x398 JUMP JUMPDEST PUSH1 0x1 PUSH1 0x1 PUSH1 0xA0 SHL SUB DUP4 DUP2 AND PUSH1 0x0 DUP2 DUP2 MSTORE PUSH1 0x1 PUSH1 0x20 SWAP1 DUP2 MSTORE PUSH1 0x40 DUP1 DUP4 KECCAK256 SWAP5 DUP8 AND DUP1 DUP5 MSTORE SWAP5 DUP3 MSTORE SWAP2 DUP3 SWAP1 KECCAK256 DUP6 SWAP1 SSTORE SWAP1 MLOAD DUP5 DUP2 MSTORE PUSH32 0x8C5BE1E5EBEC7D5BD14F71427D1E84F3DD0314C0F7B2291E5B200AC8C7C3B925 SWAP2 ADD PUSH1 0x40 MLOAD DUP1 SWAP2 SUB SWAP1 LOG3 POP POP POP JUMP JUMPDEST PUSH1 0x0 PUSH2 0x590 DUP5 DUP5 PUSH2 0x3BC JUMP JUMPDEST SWAP1 POP PUSH1 0x0 NOT DUP2 EQ PUSH2 0x5F8 JUMPI DUP2 DUP2 LT ISZERO PUSH2 0x5EB JUMPI PUSH1 0x40 MLOAD PUSH3 0x461BCD PUSH1 0xE5 SHL DUP2 MSTORE PUSH1 0x20 PUSH1 0x4 DUP3 ADD MSTORE PUSH1 0x1D PUSH1 0x24 DUP3 ADD MSTORE PUSH32 0x45524332303A20696E73756666696369656E7420616C6C6F77616E6365000000 PUSH1 0x44 DUP3 ADD MSTORE PUSH1 0x64 ADD PUSH2 0x398 JUMP JUMPDEST PUSH2 0x5F8 DUP5 DUP5 DUP5 DUP5 SUB PUSH2 0x460 JUMP JUMPDEST POP POP POP POP JUMP JUMPDEST PUSH1 0x1 PUSH1 0x1 PUSH1 0xA0 SHL SUB DUP4 AND PUSH2 0x662 JUMPI PUSH1 0x40 MLOAD PUSH3 0x461BCD PUSH1 0xE5 SHL DUP2 MSTORE PUSH1 0x20 PUSH1 0x4 DUP3 ADD MSTORE PUSH1 0x25 PUSH1 0x24 DUP3 ADD MSTORE PUSH32 0x45524332303A207472616E736665722066726F6D20746865207A65726F206164 PUSH1 0x44 DUP3 ADD MSTORE PUSH5 0x6472657373 PUSH1 0xD8 SHL PUSH1 0x64 DUP3 ADD MSTORE PUSH1 0x84 ADD PUSH2 0x398 JUMP JUMPDEST PUSH1 0x1 PUSH1 0x1 PUSH1 0xA0 SHL SUB DUP3 AND PUSH2 0x6C4 JUMPI PUSH1 0x40 MLOAD PUSH3 0x461BCD PUSH1 0xE5 SHL DUP2 MSTORE PUSH1 0x20 PUSH1 0x4 DUP3 ADD MSTORE PUSH1 0x23 PUSH1 0x24 DUP3 ADD MSTORE PUSH32 0x45524332303A207472616E7366657220746F20746865207A65726F2061646472 PUSH1 0x44 DUP3 ADD MSTORE PUSH3 0x657373 PUSH1 0xE8 SHL PUSH1 0x64 DUP3 ADD MSTORE PUSH1 0x84 ADD PUSH2 0x398 JUMP JUMPDEST PUSH1 0x1 PUSH1 0x1 PUSH1 0xA0 SHL SUB DUP4 AND PUSH1 0x0 SWAP1 DUP2 MSTORE PUSH1 0x20 DUP2 SWAP1 MSTORE PUSH1 0x40 SWAP1 KECCAK256 SLOAD DUP2 DUP2 LT ISZERO PUSH2 0x73C JUMPI PUSH1 0x40 MLOAD PUSH3 0x461BCD PUSH1 0xE5 SHL DUP2 MSTORE PUSH1 0x20 PUSH1 0x4 DUP3 ADD MSTORE PUSH1 0x26 PUSH1 0x24 DUP3 ADD MSTORE PUSH32 0x45524332303A207472616E7366657220616D6F756E7420657863656564732062 PUSH1 0x44 DUP3 ADD MSTORE PUSH6 0x616C616E6365 PUSH1 0xD0 SHL PUSH1 0x64 DUP3 ADD MSTORE PUSH1 0x84 ADD PUSH2 0x398 JUMP JUMPDEST PUSH1 0x1 PUSH1 0x1 PUSH1 0xA0 SHL SUB DUP5 DUP2 AND PUSH1 0x0 DUP2 DUP2 MSTORE PUSH1 0x20 DUP2 DUP2 MSTORE PUSH1 0x40 DUP1 DUP4 KECCAK256 DUP8 DUP8 SUB SWAP1 SSTORE SWAP4 DUP8 AND DUP1 DUP4 MSTORE SWAP2 DUP5 SWAP1 KECCAK256 DUP1 SLOAD DUP8 ADD SWAP1 SSTORE SWAP3 MLOAD DUP6 DUP2 MSTORE SWAP1 SWAP3 PUSH32 0xDDF252AD1BE2C89B69C2B068FC378DAA952BA7F163C4A11628F55A4DF523B3EF SWAP2 ADD PUSH1 0x40 MLOAD DUP1 SWAP2 SUB SWAP1 LOG3 PUSH2 0x5F8 JUMP JUMPDEST PUSH1 0x5 SLOAD PUSH1 0x1 PUSH1 0x1 PUSH1 0xA0 SHL SUB AND CALLER EQ PUSH2 0x31D JUMPI PUSH1 0x40 MLOAD PUSH3 0x461BCD PUSH1 0xE5 SHL DUP2 MSTORE PUSH1 0x20 PUSH1 0x4 DUP3 ADD DUP2 SWAP1 MSTORE PUSH1 0x24 DUP3 ADD MSTORE PUSH32 0x4F776E61626C653A2063616C6C6572206973206E6F7420746865206F776E6572 PUSH1 0x44 DUP3 ADD MSTORE PUSH1 0x64 ADD PUSH2 0x398 JUMP JUMPDEST PUSH1 0x5 DUP1 SLOAD PUSH1 0x1 PUSH1 0x1 PUSH1 0xA0 SHL SUB DUP4 DUP2 AND PUSH1 0x1 PUSH1 0x1 PUSH1 0xA0 SHL SUB NOT DUP4 AND DUP2 OR SWAP1 SWAP4 SSTORE PUSH1 0x40 MLOAD SWAP2 AND SWAP2 SWAP1 DUP3 SWAP1 PUSH32 0x8BE0079C531659141344CD1FD0A4F28419497F9722A3DAAFE3B4186F6B6457E0 SWAP1 PUSH1 0x0 SWAP1 LOG3 POP POP JUMP JUMPDEST PUSH1 0x0 PUSH1 0x20 DUP1 DUP4 MSTORE DUP4 MLOAD DUP1 DUP3 DUP6 ADD MSTORE PUSH1 0x0 JUMPDEST DUP2 DUP2 LT ISZERO PUSH2 0x87B JUMPI DUP6 DUP2 ADD DUP4 ADD MLOAD DUP6 DUP3 ADD PUSH1 0x40 ADD MSTORE DUP3 ADD PUSH2 0x85F JUMP JUMPDEST POP PUSH1 0x0 PUSH1 0x40 DUP3 DUP7 ADD ADD MSTORE PUSH1 0x40 PUSH1 0x1F NOT PUSH1 0x1F DUP4 ADD AND DUP6 ADD ADD SWAP3 POP POP POP SWAP3 SWAP2 POP POP JUMP JUMPDEST DUP1 CALLDATALOAD PUSH1 0x1 PUSH1 0x1 PUSH1 0xA0 SHL SUB DUP2 AND DUP2 EQ PUSH2 0x8B3 JUMPI PUSH1 0x0 DUP1 REVERT JUMPDEST SWAP2 SWAP1 POP JUMP JUMPDEST PUSH1 0x0 DUP1 PUSH1 0x40 DUP4 DUP6 SUB SLT ISZERO PUSH2 0x8CB JUMPI PUSH1 0x0 DUP1 REVERT JUMPDEST PUSH2 0x8D4 DUP4 PUSH2 0x89C JUMP JUMPDEST SWAP5 PUSH1 0x20 SWAP4 SWAP1 SWAP4 ADD CALLDATALOAD SWAP4 POP POP POP JUMP JUMPDEST PUSH1 0x0 DUP1 PUSH1 0x0 PUSH1 0x60 DUP5 DUP7 SUB SLT ISZERO PUSH2 0x8F7 JUMPI PUSH1 0x0 DUP1 REVERT JUMPDEST PUSH2 0x900 DUP5 PUSH2 0x89C JUMP JUMPDEST SWAP3 POP PUSH2 0x90E PUSH1 0x20 DUP6 ADD PUSH2 0x89C JUMP JUMPDEST SWAP2 POP PUSH1 0x40 DUP5 ADD CALLDATALOAD SWAP1 POP SWAP3 POP SWAP3 POP SWAP3 JUMP JUMPDEST PUSH1 0x0 PUSH1 0x20 DUP3 DUP5 SUB SLT ISZERO PUSH2 0x930 JUMPI PUSH1 0x0 DUP1 REVERT JUMPDEST PUSH2 0x939 DUP3 PUSH2 0x89C JUMP JUMPDEST SWAP4 SWAP3 POP POP POP JUMP JUMPDEST PUSH1 0x0 DUP1 PUSH1 0x40 DUP4 DUP6 SUB SLT ISZERO PUSH2 0x953 JUMPI PUSH1 0x0 DUP1 REVERT JUMPDEST PUSH2 0x95C DUP4 PUSH2 0x89C JUMP JUMPDEST SWAP2 POP PUSH2 0x96A PUSH1 0x20 DUP5 ADD PUSH2 0x89C JUMP JUMPDEST SWAP1 POP SWAP3 POP SWAP3 SWAP1 POP JUMP JUMPDEST PUSH1 0x1 DUP2 DUP2 SHR SWAP1 DUP3 AND DUP1 PUSH2 0x987 JUMPI PUSH1 0x7F DUP3 AND SWAP2 POP JUMPDEST PUSH1 0x20 DUP3 LT DUP2 SUB PUSH2 0x9A7 JUMPI PUSH4 0x4E487B71 PUSH1 0xE0 SHL PUSH1 0x0 MSTORE PUSH1 0x22 PUSH1 0x4 MSTORE PUSH1 0x24 PUSH1 0x0 REVERT JUMPDEST POP SWAP2 SWAP1 POP JUMP JUMPDEST DUP1 DUP3 ADD DUP1 DUP3 GT ISZERO PUSH2 0x2BF JUMPI PUSH4 0x4E487B71 PUSH1 0xE0 SHL PUSH1 0x0 MSTORE PUSH1 0x11 PUSH1 0x4 MSTORE PUSH1 0x24 PUSH1 0x0 REVERT INVALID LOG2 PUSH5 0x6970667358 0x22 SLT KECCAK256 0xDC SWAP12 DUP2 EXTCODECOPY MSIZE SLT 0xFB 0x4A 0xA8 SLOAD 0xB6 COINBASE 0x1F SWAP1 0xF6 PUSH6 0x190DA5A6C3B6 MOD 0xBC 0xA6 DUP14 PUSH15 0xE22EA4BA1964736F6C634300081300 CALLER "
				},
				"gasEstimates": {
					"creation": {
						"codeDepositCost": "512800",
						"executionCost": "infinite",
						"totalCost": "infinite"
					},
					"external": {
						"allowance(address,address)": "infinite",
						"approve(address,uint256)": "24651",
						"balanceOf(address)": "2629",
						"decimals()": "222",
						"decreaseAllowance(address,uint256)": "26972",
						"increaseAllowance(address,uint256)": "infinite",
						"name()": "infinite",
						"owner()": "2346",
						"renounceOwnership()": "infinite",
						"symbol()": "infinite",
						"totalSupply()": "2349",
						"transfer(address,uint256)": "51094",
						"transferFrom(address,address,uint256)": "infinite",
						"transferOwnership(address)": "28424"
					}
				},
				"methodIdentifiers": {
					"allowance(address,address)": "dd62ed3e",
					"approve(address,uint256)": "095ea7b3",
					"balanceOf(address)": "70a08231",
					"decimals()": "313ce567",
					"decreaseAllowance(address,uint256)": "a457c2d7",
					"increaseAllowance(address,uint256)": "39509351",
					"name()": "06fdde03",
					"owner()": "8da5cb5b",
					"renounceOwnership()": "715018a6",
					"symbol()": "95d89b41",
					"totalSupply()": "18160ddd",
					"transfer(address,uint256)": "a9059cbb",
					"transferFrom(address,address,uint256)": "23b872dd",
					"transferOwnership(address)": "f2fde38b"
				}
			},
			"storageLayout": {
				"storage": [
					{
						"astId": 244,
						"contract": "contracts/Staking/ERC20_flattened.sol:ERC20FT",
						"label": "_balances",
						"offset": 0,
						"slot": "0",
						"type": "t_mapping(t_address,t_uint256)"
					},
					{
						"astId": 250,
						"contract": "contracts/Staking/ERC20_flattened.sol:ERC20FT",
						"label": "_allowances",
						"offset": 0,
						"slot": "1",
						"type": "t_mapping(t_address,t_mapping(t_address,t_uint256))"
					},
					{
						"astId": 252,
						"contract": "contracts/Staking/ERC20_flattened.sol:ERC20FT",
						"label": "_totalSupply",
						"offset": 0,
						"slot": "2",
						"type": "t_uint256"
					},
					{
						"astId": 254,
						"contract": "contracts/Staking/ERC20_flattened.sol:ERC20FT",
						"label": "_name",
						"offset": 0,
						"slot": "3",
						"type": "t_string_storage"
					},
					{
						"astId": 256,
						"contract": "contracts/Staking/ERC20_flattened.sol:ERC20FT",
						"label": "_symbol",
						"offset": 0,
						"slot": "4",
						"type": "t_string_storage"
					},
					{
						"astId": 27,
						"contract": "contracts/Staking/ERC20_flattened.sol:ERC20FT",
						"label": "_owner",
						"offset": 0,
						"slot": "5",
						"type": "t_address"
					}
				],
				"types": {
					"t_address": {
						"encoding": "inplace",
						"label": "address",
						"numberOfBytes": "20"
					},
					"t_mapping(t_address,t_mapping(t_address,t_uint256))": {
						"encoding": "mapping",
						"key": "t_address",
						"label": "mapping(address => mapping(address => uint256))",
						"numberOfBytes": "32",
						"value": "t_mapping(t_address,t_uint256)"
					},
					"t_mapping(t_address,t_uint256)": {
						"encoding": "mapping",
						"key": "t_address",
						"label": "mapping(address => uint256)",
						"numberOfBytes": "32",
						"value": "t_uint256"
					},
					"t_string_storage": {
						"encoding": "bytes",
						"label": "string",
						"numberOfBytes": "32"
					},
					"t_uint256": {
						"encoding": "inplace",
						"label": "uint256",
						"numberOfBytes": "32"
					}
				}
			},
			"userdoc": {
				"kind": "user",
				"methods": {},
				"version": 1
			}
		}
	}
}