{
	"contracts/Staking/ERC20_flattened.sol": {
		"ERC20FT": {
			"abi": [
				{
					"inputs": [],
					"stateMutability": "nonpayable",
					"type": "constructor"
				},
				{
					"anonymous": false,
					"inputs": [
						{
							"indexed": true,
							"internalType": "address",
							"name": "owner",
							"type": "address"
						},
						{
							"indexed": true,
							"internalType": "address",
							"name": "spender",
							"type": "address"
						},
						{
							"indexed": false,
							"internalType": "uint256",
							"name": "value",
							"type": "uint256"
						}
					],
					"name": "Approval",
					"type": "event"
				},
				{
					"anonymous": false,
					"inputs": [
						{
							"indexed": true,
							"internalType": "address",
							"name": "previousOwner",
							"type": "address"
						},
						{
							"indexed": true,
							"internalType": "address",
							"name": "newOwner",
							"type": "address"
						}
					],
					"name": "OwnershipTransferred",
					"type": "event"
				},
				{
					"anonymous": false,
					"inputs": [
						{
							"indexed": true,
							"internalType": "address",
							"name": "from",
							"type": "address"
						},
						{
							"indexed": true,
							"internalType": "address",
							"name": "to",
							"type": "address"
						},
						{
							"indexed": false,
							"internalType": "uint256",
							"name": "value",
							"type": "uint256"
						}
					],
					"name": "Transfer",
					"type": "event"
				},
				{
					"inputs": [
						{
							"internalType": "address",
							"name": "owner",
							"type": "address"
						},
						{
							"internalType": "address",
							"name": "spender",
							"type": "address"
						}
					],
					"name": "allowance",
					"outputs": [
						{
							"internalType": "uint256",
							"name": "",
							"type": "uint256"
						}
					],
					"stateMutability": "view",
					"type": "function"
				},
				{
					"inputs": [
						{
							"internalType": "address",
							"name": "spender",
							"type": "address"
						},
						{
							"internalType": "uint256",
							"name": "amount",
							"type": "uint256"
						}
					],
					"name": "approve",
					"outputs": [
						{
							"internalType": "bool",
							"name": "",
							"type": "bool"
						}
					],
					"stateMutability": "nonpayable",
					"type": "function"
				},
				{
					"inputs": [
						{
							"internalType": "address",
							"name": "account",
							"type": "address"
						}
					],
					"name": "balanceOf",
					"outputs": [
						{
							"internalType": "uint256",
							"name": "",
							"type": "uint256"
						}
					],
					"stateMutability": "view",
					"type": "function"
				},
				{
					"inputs": [],
					"name": "decimals",
					"outputs": [
						{
							"internalType": "uint8",
							"name": "",
							"type": "uint8"
						}
					],
					"stateMutability": "view",
					"type": "function"
				},
				{
					"inputs": [
						{
							"internalType": "address",
							"name": "spender",
							"type": "address"
						},
						{
							"internalType": "uint256",
							"name": "subtractedValue",
							"type": "uint256"
						}
					],
					"name": "decreaseAllowance",
					"outputs": [
						{
							"internalType": "bool",
							"name": "",
							"type": "bool"
						}
					],
					"stateMutability": "nonpayable",
					"type": "function"
				},
				{
					"inputs": [
						{
							"internalType": "address",
							"name": "spender",
							"type": "address"
						},
						{
							"internalType": "uint256",
							"name": "addedValue",
							"type": "uint256"
						}
					],
					"name": "increaseAllowance",
					"outputs": [
						{
							"internalType": "bool",
							"name": "",
							"type": "bool"
						}
					],
					"stateMutability": "nonpayable",
					"type": "function"
				},
				{
					"inputs": [],
					"name": "name",
					"outputs": [
						{
							"internalType": "string",
							"name": "",
							"type": "string"
						}
					],
					"stateMutability": "view",
					"type": "function"
				},
				{
					"inputs": [],
					"name": "owner",
					"outputs": [
						{
							"internalType": "address",
							"name": "",
							"type": "address"
						}
					],
					"stateMutability": "view",
					"type": "function"
				},
				{
					"inputs": [],
					"name": "renounceOwnership",
					"outputs": [],
					"stateMutability": "nonpayable",
					"type": "function"
				},
				{
					"inputs": [],
					"name": "symbol",
					"outputs": [
						{
							"internalType": "string",
							"name": "",
							"type": "string"
						}
					],
					"stateMutability": "view",
					"type": "function"
				},
				{
					"inputs": [],
					"name": "totalSupply",
					"outputs": [
						{
							"internalType": "uint256",
							"name": "",
							"type": "uint256"
						}
					],
					"stateMutability": "view",
					"type": "function"
				},
				{
					"inputs": [
						{
							"internalType": "address",
							"name": "to",
							"type": "address"
						},
						{
							"internalType": "uint256",
							"name": "amount",
							"type": "uint256"
						}
					],
					"name": "transfer",
					"outputs": [
						{
							"internalType": "bool",
							"name": "",
							"type": "bool"
						}
					],
					"stateMutability": "nonpayable",
					"type": "function"
				},
				{
					"inputs": [
						{
							"internalType": "address",
							"name": "from",
							"type": "address"
						},
						{
							"internalType": "address",
							"name": "to",
							"type": "address"
						},
						{
							"internalType": "uint256",
							"name": "amount",
							"type": "uint256"
						}
					],
					"name": "transferFrom",
					"outputs": [
						{
							"internalType": "bool",
							"name": "",
							"type": "bool"
						}
					],
					"stateMutability": "nonpayable",
					"type": "function"
				},
				{
					"inputs": [
						{
							"internalType": "address",
							"name": "newOwner",
							"type": "address"
						}
					],
					"name": "transferOwnership",
					"outputs": [],
					"stateMutability": "nonpayable",
					"type": "function"
				}
			],
			"devdoc": {
				"events": {
					"Approval(address,address,uint256)": {
						"details": "Emitted when the allowance of a `spender` for an `owner` is set by a call to {approve}. `value` is the new allowance."
					},
					"Transfer(address,address,uint256)": {
						"details": "Emitted when `value` tokens are moved from one account (`from`) to another (`to`). Note that `value` may be zero."
					}
				},
				"kind": "dev",
				"methods": {
					"allowance(address,address)": {
						"details": "See {IERC20-allowance}."
					},
					"approve(address,uint256)": {
						"details": "See {IERC20-approve}. NOTE: If `amount` is the maximum `uint256`, the allowance is not updated on `transferFrom`. This is semantically equivalent to an infinite approval. Requirements: - `spender` cannot be the zero address."
					},
					"balanceOf(address)": {
						"details": "See {IERC20-balanceOf}."
					},
					"decimals()": {
						"details": "Returns the number of decimals used to get its user representation. For example, if `decimals` equals `2`, a balance of `505` tokens should be displayed to a user as `5.05` (`505 / 10 ** 2`). Tokens usually opt for a value of 18, imitating the relationship between Ether and Wei. This is the value {ERC20} uses, unless this function is overridden; NOTE: This information is only used for _display_ purposes: it in no way affects any of the arithmetic of the contract, including {IERC20-balanceOf} and {IERC20-transfer}."
					},
					"decreaseAllowance(address,uint256)": {
						"details": "Atomically decreases the allowance granted to `spender` by the caller. This is an alternative to {approve} that can be used as a mitigation for problems described in {IERC20-approve}. Emits an {Approval} event indicating the updated allowance. Requirements: - `spender` cannot be the zero address. - `spender` must have allowance for the caller of at least `subtractedValue`."
					},
					"increaseAllowance(address,uint256)": {
						"details": "Atomically increases the allowance granted to `spender` by the caller. This is an alternative to {approve} that can be used as a mitigation for problems described in {IERC20-approve}. Emits an {Approval} event indicating the updated allowance. Requirements: - `spender` cannot be the zero address."
					},
					"name()": {
						"details": "Returns the name of the token."
					},
					"owner()": {
						"details": "Returns the address of the current owner."
					},
					"renounceOwnership()": {
						"details": "Leaves the contract without owner. It will not be possible to call `onlyOwner` functions anymore. Can only be called by the current owner. NOTE: Renouncing ownership will leave the contract without an owner, thereby removing any functionality that is only available to the owner."
					},
					"symbol()": {
						"details": "Returns the symbol of the token, usually a shorter version of the name."
					},
					"totalSupply()": {
						"details": "See {IERC20-totalSupply}."
					},
					"transfer(address,uint256)": {
						"details": "See {IERC20-transfer}. Requirements: - `to` cannot be the zero address. - the caller must have a balance of at least `amount`."
					},
					"transferFrom(address,address,uint256)": {
						"details": "See {IERC20-transferFrom}. Emits an {Approval} event indicating the updated allowance. This is not required by the EIP. See the note at the beginning of {ERC20}. NOTE: Does not update the allowance if the current allowance is the maximum `uint256`. Requirements: - `from` and `to` cannot be the zero address. - `from` must have a balance of at least `amount`. - the caller must have allowance for ``from``'s tokens of at least `amount`."
					},
					"transferOwnership(address)": {
						"details": "Transfers ownership of the contract to a new account (`newOwner`). Can only be called by the current owner."
					}
				},
				"version": 1
			},
			"evm": {
				"assembly": "    /* \"contracts/Staking/ERC20_flattened.sol\":19988:20127  contract ERC20FT is ERC20, Ownable {... */\n  mstore(0x40, 0x80)\n    /* \"contracts/Staking/ERC20_flattened.sol\":20029:20125  constructor() ERC20(\"MyToken\", \"MTK\") {... */\n  callvalue\n  dup1\n  iszero\n  tag_1\n  jumpi\n  0x00\n  dup1\n  revert\ntag_1:\n  pop\n    /* \"contracts/Staking/ERC20_flattened.sol\":8885:8998  constructor(string memory name_, string memory symbol_) {... */\n  mload(0x40)\n  dup1\n  0x40\n  add\n  0x40\n  mstore\n  dup1\n  0x07\n  dup2\n  mstore\n  0x20\n  add\n  0x4d79546f6b656e00000000000000000000000000000000000000000000000000\n  dup2\n  mstore\n  pop\n  mload(0x40)\n  dup1\n  0x40\n  add\n  0x40\n  mstore\n  dup1\n  0x03\n  dup2\n  mstore\n  0x20\n  add\n  0x4d544b0000000000000000000000000000000000000000000000000000000000\n  dup2\n  mstore\n  pop\n    /* \"contracts/Staking/ERC20_flattened.sol\":8959:8964  name_ */\n  dup2\n    /* \"contracts/Staking/ERC20_flattened.sol\":8951:8956  _name */\n  0x03\n    /* \"contracts/Staking/ERC20_flattened.sol\":8951:8964  _name = name_ */\n  swap1\n  dup2\n  tag_6\n  swap2\n  swap1\n  tag_7\n  jump\t// in\ntag_6:\n  pop\n    /* \"contracts/Staking/ERC20_flattened.sol\":8984:8991  symbol_ */\n  dup1\n    /* \"contracts/Staking/ERC20_flattened.sol\":8974:8981  _symbol */\n  0x04\n    /* \"contracts/Staking/ERC20_flattened.sol\":8974:8991  _symbol = symbol_ */\n  swap1\n  dup2\n  tag_8\n  swap2\n  swap1\n  tag_7\n  jump\t// in\ntag_8:\n  pop\n    /* \"contracts/Staking/ERC20_flattened.sol\":8885:8998  constructor(string memory name_, string memory symbol_) {... */\n  pop\n  pop\n    /* \"contracts/Staking/ERC20_flattened.sol\":1794:1826  _transferOwnership(_msgSender()) */\n  tag_10\n    /* \"contracts/Staking/ERC20_flattened.sol\":1813:1825  _msgSender() */\n  tag_11\n    /* \"contracts/Staking/ERC20_flattened.sol\":1813:1823  _msgSender */\n  shl(0x20, tag_12)\n    /* \"contracts/Staking/ERC20_flattened.sol\":1813:1825  _msgSender() */\n  0x20\n  shr\n  jump\t// in\ntag_11:\n    /* \"contracts/Staking/ERC20_flattened.sol\":1794:1812  _transferOwnership */\n  shl(0x20, tag_13)\n    /* \"contracts/Staking/ERC20_flattened.sol\":1794:1826  _transferOwnership(_msgSender()) */\n  0x20\n  shr\n  jump\t// in\ntag_10:\n    /* \"contracts/Staking/ERC20_flattened.sol\":20077:20118  _mint(msg.sender, 1000000000 *1000000000) */\n  tag_15\n    /* \"contracts/Staking/ERC20_flattened.sol\":20083:20093  msg.sender */\n  caller\n    /* \"contracts/Staking/ERC20_flattened.sol\":20095:20117  1000000000 *1000000000 */\n  0x0de0b6b3a7640000\n    /* \"contracts/Staking/ERC20_flattened.sol\":20077:20082  _mint */\n  shl(0x20, tag_16)\n    /* \"contracts/Staking/ERC20_flattened.sol\":20077:20118  _mint(msg.sender, 1000000000 *1000000000) */\n  0x20\n  shr\n  jump\t// in\ntag_15:\n    /* \"contracts/Staking/ERC20_flattened.sol\":19988:20127  contract ERC20FT is ERC20, Ownable {... */\n  jump(tag_17)\n    /* \"contracts/Staking/ERC20_flattened.sol\":662:758  function _msgSender() internal view virtual returns (address) {... */\ntag_12:\n    /* \"contracts/Staking/ERC20_flattened.sol\":715:722  address */\n  0x00\n    /* \"contracts/Staking/ERC20_flattened.sol\":741:751  msg.sender */\n  caller\n    /* \"contracts/Staking/ERC20_flattened.sol\":734:751  return msg.sender */\n  swap1\n  pop\n    /* \"contracts/Staking/ERC20_flattened.sol\":662:758  function _msgSender() internal view virtual returns (address) {... */\n  swap1\n  jump\t// out\n    /* \"contracts/Staking/ERC20_flattened.sol\":3291:3478  function _transferOwnership(address newOwner) internal virtual {... */\ntag_13:\n    /* \"contracts/Staking/ERC20_flattened.sol\":3364:3380  address oldOwner */\n  0x00\n    /* \"contracts/Staking/ERC20_flattened.sol\":3383:3389  _owner */\n  0x05\n  0x00\n  swap1\n  sload\n  swap1\n  0x0100\n  exp\n  swap1\n  div\n  0xffffffffffffffffffffffffffffffffffffffff\n  and\n    /* \"contracts/Staking/ERC20_flattened.sol\":3364:3389  address oldOwner = _owner */\n  swap1\n  pop\n    /* \"contracts/Staking/ERC20_flattened.sol\":3408:3416  newOwner */\n  dup2\n    /* \"contracts/Staking/ERC20_flattened.sol\":3399:3405  _owner */\n  0x05\n  0x00\n    /* \"contracts/Staking/ERC20_flattened.sol\":3399:3416  _owner = newOwner */\n  0x0100\n  exp\n  dup2\n  sload\n  dup2\n  0xffffffffffffffffffffffffffffffffffffffff\n  mul\n  not\n  and\n  swap1\n  dup4\n  0xffffffffffffffffffffffffffffffffffffffff\n  and\n  mul\n  or\n  swap1\n  sstore\n  pop\n    /* \"contracts/Staking/ERC20_flattened.sol\":3462:3470  newOwner */\n  dup2\n    /* \"contracts/Staking/ERC20_flattened.sol\":3431:3471  OwnershipTransferred(oldOwner, newOwner) */\n  0xffffffffffffffffffffffffffffffffffffffff\n  and\n    /* \"contracts/Staking/ERC20_flattened.sol\":3452:3460  oldOwner */\n  dup2\n    /* \"contracts/Staking/ERC20_flattened.sol\":3431:3471  OwnershipTransferred(oldOwner, newOwner) */\n  0xffffffffffffffffffffffffffffffffffffffff\n  and\n  0x8be0079c531659141344cd1fd0a4f28419497f9722a3daafe3b4186f6b6457e0\n  mload(0x40)\n  mload(0x40)\n  dup1\n  swap2\n  sub\n  swap1\n  log3\n    /* \"contracts/Staking/ERC20_flattened.sol\":3354:3478  {... */\n  pop\n    /* \"contracts/Staking/ERC20_flattened.sol\":3291:3478  function _transferOwnership(address newOwner) internal virtual {... */\n  pop\n  jump\t// out\n    /* \"contracts/Staking/ERC20_flattened.sol\":15476:16011  function _mint(address account, uint256 amount) internal virtual {... */\ntag_16:\n    /* \"contracts/Staking/ERC20_flattened.sol\":15578:15579  0 */\n  0x00\n    /* \"contracts/Staking/ERC20_flattened.sol\":15559:15580  account != address(0) */\n  0xffffffffffffffffffffffffffffffffffffffff\n  and\n    /* \"contracts/Staking/ERC20_flattened.sol\":15559:15566  account */\n  dup3\n    /* \"contracts/Staking/ERC20_flattened.sol\":15559:15580  account != address(0) */\n  0xffffffffffffffffffffffffffffffffffffffff\n  and\n  sub\n    /* \"contracts/Staking/ERC20_flattened.sol\":15551:15616  require(account != address(0), \"ERC20: mint to the zero address\") */\n  tag_21\n  jumpi\n  mload(0x40)\n  0x08c379a000000000000000000000000000000000000000000000000000000000\n  dup2\n  mstore\n  0x04\n  add\n  tag_22\n  swap1\n  tag_23\n  jump\t// in\ntag_22:\n  mload(0x40)\n  dup1\n  swap2\n  sub\n  swap1\n  revert\ntag_21:\n    /* \"contracts/Staking/ERC20_flattened.sol\":15627:15676  _beforeTokenTransfer(address(0), account, amount) */\n  tag_24\n    /* \"contracts/Staking/ERC20_flattened.sol\":15656:15657  0 */\n  0x00\n    /* \"contracts/Staking/ERC20_flattened.sol\":15660:15667  account */\n  dup4\n    /* \"contracts/Staking/ERC20_flattened.sol\":15669:15675  amount */\n  dup4\n    /* \"contracts/Staking/ERC20_flattened.sol\":15627:15647  _beforeTokenTransfer */\n  shl(0x20, tag_25)\n    /* \"contracts/Staking/ERC20_flattened.sol\":15627:15676  _beforeTokenTransfer(address(0), account, amount) */\n  0x20\n  shr\n  jump\t// in\ntag_24:\n    /* \"contracts/Staking/ERC20_flattened.sol\":15703:15709  amount */\n  dup1\n    /* \"contracts/Staking/ERC20_flattened.sol\":15687:15699  _totalSupply */\n  0x02\n  0x00\n    /* \"contracts/Staking/ERC20_flattened.sol\":15687:15709  _totalSupply += amount */\n  dup3\n  dup3\n  sload\n  tag_26\n  swap2\n  swap1\n  tag_27\n  jump\t// in\ntag_26:\n  swap3\n  pop\n  pop\n  dup2\n  swap1\n  sstore\n  pop\n    /* \"contracts/Staking/ERC20_flattened.sol\":15877:15883  amount */\n  dup1\n    /* \"contracts/Staking/ERC20_flattened.sol\":15855:15864  _balances */\n  0x00\n    /* \"contracts/Staking/ERC20_flattened.sol\":15855:15873  _balances[account] */\n  dup1\n    /* \"contracts/Staking/ERC20_flattened.sol\":15865:15872  account */\n  dup5\n    /* \"contracts/Staking/ERC20_flattened.sol\":15855:15873  _balances[account] */\n  0xffffffffffffffffffffffffffffffffffffffff\n  and\n  0xffffffffffffffffffffffffffffffffffffffff\n  and\n  dup2\n  mstore\n  0x20\n  add\n  swap1\n  dup2\n  mstore\n  0x20\n  add\n  0x00\n  keccak256\n  0x00\n    /* \"contracts/Staking/ERC20_flattened.sol\":15855:15883  _balances[account] += amount */\n  dup3\n  dup3\n  sload\n  add\n  swap3\n  pop\n  pop\n  dup2\n  swap1\n  sstore\n  pop\n    /* \"contracts/Staking/ERC20_flattened.sol\":15929:15936  account */\n  dup2\n    /* \"contracts/Staking/ERC20_flattened.sol\":15908:15945  Transfer(address(0), account, amount) */\n  0xffffffffffffffffffffffffffffffffffffffff\n  and\n    /* \"contracts/Staking/ERC20_flattened.sol\":15925:15926  0 */\n  0x00\n    /* \"contracts/Staking/ERC20_flattened.sol\":15908:15945  Transfer(address(0), account, amount) */\n  0xffffffffffffffffffffffffffffffffffffffff\n  and\n  0xddf252ad1be2c89b69c2b068fc378daa952ba7f163c4a11628f55a4df523b3ef\n    /* \"contracts/Staking/ERC20_flattened.sol\":15938:15944  amount */\n  dup4\n    /* \"contracts/Staking/ERC20_flattened.sol\":15908:15945  Transfer(address(0), account, amount) */\n  mload(0x40)\n  tag_28\n  swap2\n  swap1\n  tag_29\n  jump\t// in\ntag_28:\n  mload(0x40)\n  dup1\n  swap2\n  sub\n  swap1\n  log3\n    /* \"contracts/Staking/ERC20_flattened.sol\":15956:16004  _afterTokenTransfer(address(0), account, amount) */\n  tag_30\n    /* \"contracts/Staking/ERC20_flattened.sol\":15984:15985  0 */\n  0x00\n    /* \"contracts/Staking/ERC20_flattened.sol\":15988:15995  account */\n  dup4\n    /* \"contracts/Staking/ERC20_flattened.sol\":15997:16003  amount */\n  dup4\n    /* \"contracts/Staking/ERC20_flattened.sol\":15956:15975  _afterTokenTransfer */\n  shl(0x20, tag_31)\n    /* \"contracts/Staking/ERC20_flattened.sol\":15956:16004  _afterTokenTransfer(address(0), account, amount) */\n  0x20\n  shr\n  jump\t// in\ntag_30:\n    /* \"contracts/Staking/ERC20_flattened.sol\":15476:16011  function _mint(address account, uint256 amount) internal virtual {... */\n  pop\n  pop\n  jump\t// out\n    /* \"contracts/Staking/ERC20_flattened.sol\":19089:19210  function _beforeTokenTransfer(... */\ntag_25:\n  pop\n  pop\n  pop\n  jump\t// out\n    /* \"contracts/Staking/ERC20_flattened.sol\":19798:19918  function _afterTokenTransfer(... */\ntag_31:\n  pop\n  pop\n  pop\n  jump\t// out\n    /* \"#utility.yul\":7:106   */\ntag_34:\n    /* \"#utility.yul\":59:65   */\n  0x00\n    /* \"#utility.yul\":93:98   */\n  dup2\n    /* \"#utility.yul\":87:99   */\n  mload\n    /* \"#utility.yul\":77:99   */\n  swap1\n  pop\n    /* \"#utility.yul\":7:106   */\n  swap2\n  swap1\n  pop\n  jump\t// out\n    /* \"#utility.yul\":112:292   */\ntag_35:\n    /* \"#utility.yul\":160:237   */\n  0x4e487b7100000000000000000000000000000000000000000000000000000000\n    /* \"#utility.yul\":157:158   */\n  0x00\n    /* \"#utility.yul\":150:238   */\n  mstore\n    /* \"#utility.yul\":257:261   */\n  0x41\n    /* \"#utility.yul\":254:255   */\n  0x04\n    /* \"#utility.yul\":247:262   */\n  mstore\n    /* \"#utility.yul\":281:285   */\n  0x24\n    /* \"#utility.yul\":278:279   */\n  0x00\n    /* \"#utility.yul\":271:286   */\n  revert\n    /* \"#utility.yul\":298:478   */\ntag_36:\n    /* \"#utility.yul\":346:423   */\n  0x4e487b7100000000000000000000000000000000000000000000000000000000\n    /* \"#utility.yul\":343:344   */\n  0x00\n    /* \"#utility.yul\":336:424   */\n  mstore\n    /* \"#utility.yul\":443:447   */\n  0x22\n    /* \"#utility.yul\":440:441   */\n  0x04\n    /* \"#utility.yul\":433:448   */\n  mstore\n    /* \"#utility.yul\":467:471   */\n  0x24\n    /* \"#utility.yul\":464:465   */\n  0x00\n    /* \"#utility.yul\":457:472   */\n  revert\n    /* \"#utility.yul\":484:804   */\ntag_37:\n    /* \"#utility.yul\":528:534   */\n  0x00\n    /* \"#utility.yul\":565:566   */\n  0x02\n    /* \"#utility.yul\":559:563   */\n  dup3\n    /* \"#utility.yul\":555:567   */\n  div\n    /* \"#utility.yul\":545:567   */\n  swap1\n  pop\n    /* \"#utility.yul\":612:613   */\n  0x01\n    /* \"#utility.yul\":606:610   */\n  dup3\n    /* \"#utility.yul\":602:614   */\n  and\n    /* \"#utility.yul\":633:651   */\n  dup1\n    /* \"#utility.yul\":623:704   */\n  tag_64\n  jumpi\n    /* \"#utility.yul\":689:693   */\n  0x7f\n    /* \"#utility.yul\":681:687   */\n  dup3\n    /* \"#utility.yul\":677:694   */\n  and\n    /* \"#utility.yul\":667:694   */\n  swap2\n  pop\n    /* \"#utility.yul\":623:704   */\ntag_64:\n    /* \"#utility.yul\":751:753   */\n  0x20\n    /* \"#utility.yul\":743:749   */\n  dup3\n    /* \"#utility.yul\":740:754   */\n  lt\n    /* \"#utility.yul\":720:738   */\n  dup2\n    /* \"#utility.yul\":717:755   */\n  sub\n    /* \"#utility.yul\":714:798   */\n  tag_65\n  jumpi\n    /* \"#utility.yul\":770:788   */\n  tag_66\n  tag_36\n  jump\t// in\ntag_66:\n    /* \"#utility.yul\":714:798   */\ntag_65:\n    /* \"#utility.yul\":535:804   */\n  pop\n    /* \"#utility.yul\":484:804   */\n  swap2\n  swap1\n  pop\n  jump\t// out\n    /* \"#utility.yul\":810:951   */\ntag_38:\n    /* \"#utility.yul\":859:863   */\n  0x00\n    /* \"#utility.yul\":882:885   */\n  dup2\n    /* \"#utility.yul\":874:885   */\n  swap1\n  pop\n    /* \"#utility.yul\":905:908   */\n  dup2\n    /* \"#utility.yul\":902:903   */\n  0x00\n    /* \"#utility.yul\":895:909   */\n  mstore\n    /* \"#utility.yul\":939:943   */\n  0x20\n    /* \"#utility.yul\":936:937   */\n  0x00\n    /* \"#utility.yul\":926:944   */\n  keccak256\n    /* \"#utility.yul\":918:944   */\n  swap1\n  pop\n    /* \"#utility.yul\":810:951   */\n  swap2\n  swap1\n  pop\n  jump\t// out\n    /* \"#utility.yul\":957:1050   */\ntag_39:\n    /* \"#utility.yul\":994:1000   */\n  0x00\n    /* \"#utility.yul\":1041:1043   */\n  0x20\n    /* \"#utility.yul\":1036:1038   */\n  0x1f\n    /* \"#utility.yul\":1029:1034   */\n  dup4\n    /* \"#utility.yul\":1025:1039   */\n  add\n    /* \"#utility.yul\":1021:1044   */\n  div\n    /* \"#utility.yul\":1011:1044   */\n  swap1\n  pop\n    /* \"#utility.yul\":957:1050   */\n  swap2\n  swap1\n  pop\n  jump\t// out\n    /* \"#utility.yul\":1056:1163   */\ntag_40:\n    /* \"#utility.yul\":1100:1108   */\n  0x00\n    /* \"#utility.yul\":1150:1155   */\n  dup3\n    /* \"#utility.yul\":1144:1148   */\n  dup3\n    /* \"#utility.yul\":1140:1156   */\n  shl\n    /* \"#utility.yul\":1119:1156   */\n  swap1\n  pop\n    /* \"#utility.yul\":1056:1163   */\n  swap3\n  swap2\n  pop\n  pop\n  jump\t// out\n    /* \"#utility.yul\":1169:1562   */\ntag_41:\n    /* \"#utility.yul\":1238:1244   */\n  0x00\n    /* \"#utility.yul\":1288:1289   */\n  0x08\n    /* \"#utility.yul\":1276:1286   */\n  dup4\n    /* \"#utility.yul\":1272:1290   */\n  mul\n    /* \"#utility.yul\":1311:1408   */\n  tag_71\n    /* \"#utility.yul\":1341:1407   */\n  0xffffffffffffffffffffffffffffffffffffffffffffffffffffffffffffffff\n    /* \"#utility.yul\":1330:1339   */\n  dup3\n    /* \"#utility.yul\":1311:1408   */\n  tag_40\n  jump\t// in\ntag_71:\n    /* \"#utility.yul\":1429:1468   */\n  tag_72\n    /* \"#utility.yul\":1459:1467   */\n  dup7\n    /* \"#utility.yul\":1448:1457   */\n  dup4\n    /* \"#utility.yul\":1429:1468   */\n  tag_40\n  jump\t// in\ntag_72:\n    /* \"#utility.yul\":1417:1468   */\n  swap6\n  pop\n    /* \"#utility.yul\":1501:1505   */\n  dup1\n    /* \"#utility.yul\":1497:1506   */\n  not\n    /* \"#utility.yul\":1490:1495   */\n  dup5\n    /* \"#utility.yul\":1486:1507   */\n  and\n    /* \"#utility.yul\":1477:1507   */\n  swap4\n  pop\n    /* \"#utility.yul\":1550:1554   */\n  dup1\n    /* \"#utility.yul\":1540:1548   */\n  dup7\n    /* \"#utility.yul\":1536:1555   */\n  and\n    /* \"#utility.yul\":1529:1534   */\n  dup5\n    /* \"#utility.yul\":1526:1556   */\n  or\n    /* \"#utility.yul\":1516:1556   */\n  swap3\n  pop\n    /* \"#utility.yul\":1245:1562   */\n  pop\n  pop\n    /* \"#utility.yul\":1169:1562   */\n  swap4\n  swap3\n  pop\n  pop\n  pop\n  jump\t// out\n    /* \"#utility.yul\":1568:1645   */\ntag_42:\n    /* \"#utility.yul\":1605:1612   */\n  0x00\n    /* \"#utility.yul\":1634:1639   */\n  dup2\n    /* \"#utility.yul\":1623:1639   */\n  swap1\n  pop\n    /* \"#utility.yul\":1568:1645   */\n  swap2\n  swap1\n  pop\n  jump\t// out\n    /* \"#utility.yul\":1651:1711   */\ntag_43:\n    /* \"#utility.yul\":1679:1682   */\n  0x00\n    /* \"#utility.yul\":1700:1705   */\n  dup2\n    /* \"#utility.yul\":1693:1705   */\n  swap1\n  pop\n    /* \"#utility.yul\":1651:1711   */\n  swap2\n  swap1\n  pop\n  jump\t// out\n    /* \"#utility.yul\":1717:1859   */\ntag_44:\n    /* \"#utility.yul\":1767:1776   */\n  0x00\n    /* \"#utility.yul\":1800:1853   */\n  tag_76\n    /* \"#utility.yul\":1818:1852   */\n  tag_77\n    /* \"#utility.yul\":1827:1851   */\n  tag_78\n    /* \"#utility.yul\":1845:1850   */\n  dup5\n    /* \"#utility.yul\":1827:1851   */\n  tag_42\n  jump\t// in\ntag_78:\n    /* \"#utility.yul\":1818:1852   */\n  tag_43\n  jump\t// in\ntag_77:\n    /* \"#utility.yul\":1800:1853   */\n  tag_42\n  jump\t// in\ntag_76:\n    /* \"#utility.yul\":1787:1853   */\n  swap1\n  pop\n    /* \"#utility.yul\":1717:1859   */\n  swap2\n  swap1\n  pop\n  jump\t// out\n    /* \"#utility.yul\":1865:1940   */\ntag_45:\n    /* \"#utility.yul\":1908:1911   */\n  0x00\n    /* \"#utility.yul\":1929:1934   */\n  dup2\n    /* \"#utility.yul\":1922:1934   */\n  swap1\n  pop\n    /* \"#utility.yul\":1865:1940   */\n  swap2\n  swap1\n  pop\n  jump\t// out\n    /* \"#utility.yul\":1946:2215   */\ntag_46:\n    /* \"#utility.yul\":2056:2095   */\n  tag_81\n    /* \"#utility.yul\":2087:2094   */\n  dup4\n    /* \"#utility.yul\":2056:2095   */\n  tag_44\n  jump\t// in\ntag_81:\n    /* \"#utility.yul\":2117:2208   */\n  tag_82\n    /* \"#utility.yul\":2166:2207   */\n  tag_83\n    /* \"#utility.yul\":2190:2206   */\n  dup3\n    /* \"#utility.yul\":2166:2207   */\n  tag_45\n  jump\t// in\ntag_83:\n    /* \"#utility.yul\":2158:2164   */\n  dup5\n    /* \"#utility.yul\":2151:2155   */\n  dup5\n    /* \"#utility.yul\":2145:2156   */\n  sload\n    /* \"#utility.yul\":2117:2208   */\n  tag_41\n  jump\t// in\ntag_82:\n    /* \"#utility.yul\":2111:2115   */\n  dup3\n    /* \"#utility.yul\":2104:2209   */\n  sstore\n    /* \"#utility.yul\":2022:2215   */\n  pop\n    /* \"#utility.yul\":1946:2215   */\n  pop\n  pop\n  pop\n  jump\t// out\n    /* \"#utility.yul\":2221:2294   */\ntag_47:\n    /* \"#utility.yul\":2266:2269   */\n  0x00\n    /* \"#utility.yul\":2221:2294   */\n  swap1\n  jump\t// out\n    /* \"#utility.yul\":2300:2489   */\ntag_48:\n    /* \"#utility.yul\":2377:2409   */\n  tag_86\n  tag_47\n  jump\t// in\ntag_86:\n    /* \"#utility.yul\":2418:2483   */\n  tag_87\n    /* \"#utility.yul\":2476:2482   */\n  dup2\n    /* \"#utility.yul\":2468:2474   */\n  dup5\n    /* \"#utility.yul\":2462:2466   */\n  dup5\n    /* \"#utility.yul\":2418:2483   */\n  tag_46\n  jump\t// in\ntag_87:\n    /* \"#utility.yul\":2353:2489   */\n  pop\n    /* \"#utility.yul\":2300:2489   */\n  pop\n  pop\n  jump\t// out\n    /* \"#utility.yul\":2495:2681   */\ntag_49:\n    /* \"#utility.yul\":2555:2675   */\ntag_89:\n    /* \"#utility.yul\":2572:2575   */\n  dup2\n    /* \"#utility.yul\":2565:2570   */\n  dup2\n    /* \"#utility.yul\":2562:2576   */\n  lt\n    /* \"#utility.yul\":2555:2675   */\n  iszero\n  tag_91\n  jumpi\n    /* \"#utility.yul\":2626:2665   */\n  tag_92\n    /* \"#utility.yul\":2663:2664   */\n  0x00\n    /* \"#utility.yul\":2656:2661   */\n  dup3\n    /* \"#utility.yul\":2626:2665   */\n  tag_48\n  jump\t// in\ntag_92:\n    /* \"#utility.yul\":2599:2600   */\n  0x01\n    /* \"#utility.yul\":2592:2597   */\n  dup2\n    /* \"#utility.yul\":2588:2601   */\n  add\n    /* \"#utility.yul\":2579:2601   */\n  swap1\n  pop\n    /* \"#utility.yul\":2555:2675   */\n  jump(tag_89)\ntag_91:\n    /* \"#utility.yul\":2495:2681   */\n  pop\n  pop\n  jump\t// out\n    /* \"#utility.yul\":2687:3230   */\ntag_50:\n    /* \"#utility.yul\":2788:2790   */\n  0x1f\n    /* \"#utility.yul\":2783:2786   */\n  dup3\n    /* \"#utility.yul\":2780:2791   */\n  gt\n    /* \"#utility.yul\":2777:3223   */\n  iszero\n  tag_94\n  jumpi\n    /* \"#utility.yul\":2822:2860   */\n  tag_95\n    /* \"#utility.yul\":2854:2859   */\n  dup2\n    /* \"#utility.yul\":2822:2860   */\n  tag_38\n  jump\t// in\ntag_95:\n    /* \"#utility.yul\":2906:2935   */\n  tag_96\n    /* \"#utility.yul\":2924:2934   */\n  dup5\n    /* \"#utility.yul\":2906:2935   */\n  tag_39\n  jump\t// in\ntag_96:\n    /* \"#utility.yul\":2896:2904   */\n  dup2\n    /* \"#utility.yul\":2892:2936   */\n  add\n    /* \"#utility.yul\":3089:3091   */\n  0x20\n    /* \"#utility.yul\":3077:3087   */\n  dup6\n    /* \"#utility.yul\":3074:3092   */\n  lt\n    /* \"#utility.yul\":3071:3120   */\n  iszero\n  tag_97\n  jumpi\n    /* \"#utility.yul\":3110:3118   */\n  dup2\n    /* \"#utility.yul\":3095:3118   */\n  swap1\n  pop\n    /* \"#utility.yul\":3071:3120   */\ntag_97:\n    /* \"#utility.yul\":3133:3213   */\n  tag_98\n    /* \"#utility.yul\":3189:3211   */\n  tag_99\n    /* \"#utility.yul\":3207:3210   */\n  dup6\n    /* \"#utility.yul\":3189:3211   */\n  tag_39\n  jump\t// in\ntag_99:\n    /* \"#utility.yul\":3179:3187   */\n  dup4\n    /* \"#utility.yul\":3175:3212   */\n  add\n    /* \"#utility.yul\":3162:3173   */\n  dup3\n    /* \"#utility.yul\":3133:3213   */\n  tag_49\n  jump\t// in\ntag_98:\n    /* \"#utility.yul\":2792:3223   */\n  pop\n  pop\n    /* \"#utility.yul\":2777:3223   */\ntag_94:\n    /* \"#utility.yul\":2687:3230   */\n  pop\n  pop\n  pop\n  jump\t// out\n    /* \"#utility.yul\":3236:3353   */\ntag_51:\n    /* \"#utility.yul\":3290:3298   */\n  0x00\n    /* \"#utility.yul\":3340:3345   */\n  dup3\n    /* \"#utility.yul\":3334:3338   */\n  dup3\n    /* \"#utility.yul\":3330:3346   */\n  shr\n    /* \"#utility.yul\":3309:3346   */\n  swap1\n  pop\n    /* \"#utility.yul\":3236:3353   */\n  swap3\n  swap2\n  pop\n  pop\n  jump\t// out\n    /* \"#utility.yul\":3359:3528   */\ntag_52:\n    /* \"#utility.yul\":3403:3409   */\n  0x00\n    /* \"#utility.yul\":3436:3487   */\n  tag_102\n    /* \"#utility.yul\":3484:3485   */\n  0x00\n    /* \"#utility.yul\":3480:3486   */\n  not\n    /* \"#utility.yul\":3472:3477   */\n  dup5\n    /* \"#utility.yul\":3469:3470   */\n  0x08\n    /* \"#utility.yul\":3465:3478   */\n  mul\n    /* \"#utility.yul\":3436:3487   */\n  tag_51\n  jump\t// in\ntag_102:\n    /* \"#utility.yul\":3432:3488   */\n  not\n    /* \"#utility.yul\":3517:3521   */\n  dup1\n    /* \"#utility.yul\":3511:3515   */\n  dup4\n    /* \"#utility.yul\":3507:3522   */\n  and\n    /* \"#utility.yul\":3497:3522   */\n  swap2\n  pop\n    /* \"#utility.yul\":3410:3528   */\n  pop\n    /* \"#utility.yul\":3359:3528   */\n  swap3\n  swap2\n  pop\n  pop\n  jump\t// out\n    /* \"#utility.yul\":3533:3828   */\ntag_53:\n    /* \"#utility.yul\":3609:3613   */\n  0x00\n    /* \"#utility.yul\":3755:3784   */\n  tag_104\n    /* \"#utility.yul\":3780:3783   */\n  dup4\n    /* \"#utility.yul\":3774:3778   */\n  dup4\n    /* \"#utility.yul\":3755:3784   */\n  tag_52\n  jump\t// in\ntag_104:\n    /* \"#utility.yul\":3747:3784   */\n  swap2\n  pop\n    /* \"#utility.yul\":3817:3820   */\n  dup3\n    /* \"#utility.yul\":3814:3815   */\n  0x02\n    /* \"#utility.yul\":3810:3821   */\n  mul\n    /* \"#utility.yul\":3804:3808   */\n  dup3\n    /* \"#utility.yul\":3801:3822   */\n  or\n    /* \"#utility.yul\":3793:3822   */\n  swap1\n  pop\n    /* \"#utility.yul\":3533:3828   */\n  swap3\n  swap2\n  pop\n  pop\n  jump\t// out\n    /* \"#utility.yul\":3833:5228   */\ntag_7:\n    /* \"#utility.yul\":3950:3987   */\n  tag_106\n    /* \"#utility.yul\":3983:3986   */\n  dup3\n    /* \"#utility.yul\":3950:3987   */\n  tag_34\n  jump\t// in\ntag_106:\n    /* \"#utility.yul\":4052:4070   */\n  0xffffffffffffffff\n    /* \"#utility.yul\":4044:4050   */\n  dup2\n    /* \"#utility.yul\":4041:4071   */\n  gt\n    /* \"#utility.yul\":4038:4094   */\n  iszero\n  tag_107\n  jumpi\n    /* \"#utility.yul\":4074:4092   */\n  tag_108\n  tag_35\n  jump\t// in\ntag_108:\n    /* \"#utility.yul\":4038:4094   */\ntag_107:\n    /* \"#utility.yul\":4118:4156   */\n  tag_109\n    /* \"#utility.yul\":4150:4154   */\n  dup3\n    /* \"#utility.yul\":4144:4155   */\n  sload\n    /* \"#utility.yul\":4118:4156   */\n  tag_37\n  jump\t// in\ntag_109:\n    /* \"#utility.yul\":4203:4270   */\n  tag_110\n    /* \"#utility.yul\":4263:4269   */\n  dup3\n    /* \"#utility.yul\":4255:4261   */\n  dup3\n    /* \"#utility.yul\":4249:4253   */\n  dup6\n    /* \"#utility.yul\":4203:4270   */\n  tag_50\n  jump\t// in\ntag_110:\n    /* \"#utility.yul\":4297:4298   */\n  0x00\n    /* \"#utility.yul\":4321:4325   */\n  0x20\n    /* \"#utility.yul\":4308:4325   */\n  swap1\n  pop\n    /* \"#utility.yul\":4353:4355   */\n  0x1f\n    /* \"#utility.yul\":4345:4351   */\n  dup4\n    /* \"#utility.yul\":4342:4356   */\n  gt\n    /* \"#utility.yul\":4370:4371   */\n  0x01\n    /* \"#utility.yul\":4365:4983   */\n  dup2\n  eq\n  tag_112\n  jumpi\n    /* \"#utility.yul\":5027:5028   */\n  0x00\n    /* \"#utility.yul\":5044:5050   */\n  dup5\n    /* \"#utility.yul\":5041:5118   */\n  iszero\n  tag_113\n  jumpi\n    /* \"#utility.yul\":5093:5102   */\n  dup3\n    /* \"#utility.yul\":5088:5091   */\n  dup8\n    /* \"#utility.yul\":5084:5103   */\n  add\n    /* \"#utility.yul\":5078:5104   */\n  mload\n    /* \"#utility.yul\":5069:5104   */\n  swap1\n  pop\n    /* \"#utility.yul\":5041:5118   */\ntag_113:\n    /* \"#utility.yul\":5144:5211   */\n  tag_114\n    /* \"#utility.yul\":5204:5210   */\n  dup6\n    /* \"#utility.yul\":5197:5202   */\n  dup3\n    /* \"#utility.yul\":5144:5211   */\n  tag_53\n  jump\t// in\ntag_114:\n    /* \"#utility.yul\":5138:5142   */\n  dup7\n    /* \"#utility.yul\":5131:5212   */\n  sstore\n    /* \"#utility.yul\":5000:5222   */\n  pop\n    /* \"#utility.yul\":4335:5222   */\n  jump(tag_111)\n    /* \"#utility.yul\":4365:4983   */\ntag_112:\n    /* \"#utility.yul\":4417:4421   */\n  0x1f\n    /* \"#utility.yul\":4413:4422   */\n  not\n    /* \"#utility.yul\":4405:4411   */\n  dup5\n    /* \"#utility.yul\":4401:4423   */\n  and\n    /* \"#utility.yul\":4451:4488   */\n  tag_115\n    /* \"#utility.yul\":4483:4487   */\n  dup7\n    /* \"#utility.yul\":4451:4488   */\n  tag_38\n  jump\t// in\ntag_115:\n    /* \"#utility.yul\":4510:4511   */\n  0x00\n    /* \"#utility.yul\":4524:4732   */\ntag_116:\n    /* \"#utility.yul\":4538:4545   */\n  dup3\n    /* \"#utility.yul\":4535:4536   */\n  dup2\n    /* \"#utility.yul\":4532:4546   */\n  lt\n    /* \"#utility.yul\":4524:4732   */\n  iszero\n  tag_118\n  jumpi\n    /* \"#utility.yul\":4617:4626   */\n  dup5\n    /* \"#utility.yul\":4612:4615   */\n  dup10\n    /* \"#utility.yul\":4608:4627   */\n  add\n    /* \"#utility.yul\":4602:4628   */\n  mload\n    /* \"#utility.yul\":4594:4600   */\n  dup3\n    /* \"#utility.yul\":4587:4629   */\n  sstore\n    /* \"#utility.yul\":4668:4669   */\n  0x01\n    /* \"#utility.yul\":4660:4666   */\n  dup3\n    /* \"#utility.yul\":4656:4670   */\n  add\n    /* \"#utility.yul\":4646:4670   */\n  swap2\n  pop\n    /* \"#utility.yul\":4715:4717   */\n  0x20\n    /* \"#utility.yul\":4704:4713   */\n  dup6\n    /* \"#utility.yul\":4700:4718   */\n  add\n    /* \"#utility.yul\":4687:4718   */\n  swap5\n  pop\n    /* \"#utility.yul\":4561:4565   */\n  0x20\n    /* \"#utility.yul\":4558:4559   */\n  dup2\n    /* \"#utility.yul\":4554:4566   */\n  add\n    /* \"#utility.yul\":4549:4566   */\n  swap1\n  pop\n    /* \"#utility.yul\":4524:4732   */\n  jump(tag_116)\ntag_118:\n    /* \"#utility.yul\":4760:4766   */\n  dup7\n    /* \"#utility.yul\":4751:4758   */\n  dup4\n    /* \"#utility.yul\":4748:4767   */\n  lt\n    /* \"#utility.yul\":4745:4924   */\n  iszero\n  tag_119\n  jumpi\n    /* \"#utility.yul\":4818:4827   */\n  dup5\n    /* \"#utility.yul\":4813:4816   */\n  dup10\n    /* \"#utility.yul\":4809:4828   */\n  add\n    /* \"#utility.yul\":4803:4829   */\n  mload\n    /* \"#utility.yul\":4861:4909   */\n  tag_120\n    /* \"#utility.yul\":4903:4907   */\n  0x1f\n    /* \"#utility.yul\":4895:4901   */\n  dup10\n    /* \"#utility.yul\":4891:4908   */\n  and\n    /* \"#utility.yul\":4880:4889   */\n  dup3\n    /* \"#utility.yul\":4861:4909   */\n  tag_52\n  jump\t// in\ntag_120:\n    /* \"#utility.yul\":4853:4859   */\n  dup4\n    /* \"#utility.yul\":4846:4910   */\n  sstore\n    /* \"#utility.yul\":4768:4924   */\n  pop\n    /* \"#utility.yul\":4745:4924   */\ntag_119:\n    /* \"#utility.yul\":4970:4971   */\n  0x01\n    /* \"#utility.yul\":4966:4967   */\n  0x02\n    /* \"#utility.yul\":4958:4964   */\n  dup9\n    /* \"#utility.yul\":4954:4968   */\n  mul\n    /* \"#utility.yul\":4950:4972   */\n  add\n    /* \"#utility.yul\":4944:4948   */\n  dup9\n    /* \"#utility.yul\":4937:4973   */\n  sstore\n    /* \"#utility.yul\":4372:4983   */\n  pop\n  pop\n  pop\n    /* \"#utility.yul\":4335:5222   */\ntag_111:\n  pop\n    /* \"#utility.yul\":3925:5228   */\n  pop\n  pop\n  pop\n    /* \"#utility.yul\":3833:5228   */\n  pop\n  pop\n  jump\t// out\n    /* \"#utility.yul\":5234:5403   */\ntag_54:\n    /* \"#utility.yul\":5318:5329   */\n  0x00\n    /* \"#utility.yul\":5352:5358   */\n  dup3\n    /* \"#utility.yul\":5347:5350   */\n  dup3\n    /* \"#utility.yul\":5340:5359   */\n  mstore\n    /* \"#utility.yul\":5392:5396   */\n  0x20\n    /* \"#utility.yul\":5387:5390   */\n  dup3\n    /* \"#utility.yul\":5383:5397   */\n  add\n    /* \"#utility.yul\":5368:5397   */\n  swap1\n  pop\n    /* \"#utility.yul\":5234:5403   */\n  swap3\n  swap2\n  pop\n  pop\n  jump\t// out\n    /* \"#utility.yul\":5409:5590   */\ntag_55:\n    /* \"#utility.yul\":5549:5582   */\n  0x45524332303a206d696e7420746f20746865207a65726f206164647265737300\n    /* \"#utility.yul\":5545:5546   */\n  0x00\n    /* \"#utility.yul\":5537:5543   */\n  dup3\n    /* \"#utility.yul\":5533:5547   */\n  add\n    /* \"#utility.yul\":5526:5583   */\n  mstore\n    /* \"#utility.yul\":5409:5590   */\n  pop\n  jump\t// out\n    /* \"#utility.yul\":5596:5962   */\ntag_56:\n    /* \"#utility.yul\":5738:5741   */\n  0x00\n    /* \"#utility.yul\":5759:5826   */\n  tag_124\n    /* \"#utility.yul\":5823:5825   */\n  0x1f\n    /* \"#utility.yul\":5818:5821   */\n  dup4\n    /* \"#utility.yul\":5759:5826   */\n  tag_54\n  jump\t// in\ntag_124:\n    /* \"#utility.yul\":5752:5826   */\n  swap2\n  pop\n    /* \"#utility.yul\":5835:5928   */\n  tag_125\n    /* \"#utility.yul\":5924:5927   */\n  dup3\n    /* \"#utility.yul\":5835:5928   */\n  tag_55\n  jump\t// in\ntag_125:\n    /* \"#utility.yul\":5953:5955   */\n  0x20\n    /* \"#utility.yul\":5948:5951   */\n  dup3\n    /* \"#utility.yul\":5944:5956   */\n  add\n    /* \"#utility.yul\":5937:5956   */\n  swap1\n  pop\n    /* \"#utility.yul\":5596:5962   */\n  swap2\n  swap1\n  pop\n  jump\t// out\n    /* \"#utility.yul\":5968:6387   */\ntag_23:\n    /* \"#utility.yul\":6134:6138   */\n  0x00\n    /* \"#utility.yul\":6172:6174   */\n  0x20\n    /* \"#utility.yul\":6161:6170   */\n  dup3\n    /* \"#utility.yul\":6157:6175   */\n  add\n    /* \"#utility.yul\":6149:6175   */\n  swap1\n  pop\n    /* \"#utility.yul\":6221:6230   */\n  dup2\n    /* \"#utility.yul\":6215:6219   */\n  dup2\n    /* \"#utility.yul\":6211:6231   */\n  sub\n    /* \"#utility.yul\":6207:6208   */\n  0x00\n    /* \"#utility.yul\":6196:6205   */\n  dup4\n    /* \"#utility.yul\":6192:6209   */\n  add\n    /* \"#utility.yul\":6185:6232   */\n  mstore\n    /* \"#utility.yul\":6249:6380   */\n  tag_127\n    /* \"#utility.yul\":6375:6379   */\n  dup2\n    /* \"#utility.yul\":6249:6380   */\n  tag_56\n  jump\t// in\ntag_127:\n    /* \"#utility.yul\":6241:6380   */\n  swap1\n  pop\n    /* \"#utility.yul\":5968:6387   */\n  swap2\n  swap1\n  pop\n  jump\t// out\n    /* \"#utility.yul\":6393:6573   */\ntag_57:\n    /* \"#utility.yul\":6441:6518   */\n  0x4e487b7100000000000000000000000000000000000000000000000000000000\n    /* \"#utility.yul\":6438:6439   */\n  0x00\n    /* \"#utility.yul\":6431:6519   */\n  mstore\n    /* \"#utility.yul\":6538:6542   */\n  0x11\n    /* \"#utility.yul\":6535:6536   */\n  0x04\n    /* \"#utility.yul\":6528:6543   */\n  mstore\n    /* \"#utility.yul\":6562:6566   */\n  0x24\n    /* \"#utility.yul\":6559:6560   */\n  0x00\n    /* \"#utility.yul\":6552:6567   */\n  revert\n    /* \"#utility.yul\":6579:6770   */\ntag_27:\n    /* \"#utility.yul\":6619:6622   */\n  0x00\n    /* \"#utility.yul\":6638:6658   */\n  tag_130\n    /* \"#utility.yul\":6656:6657   */\n  dup3\n    /* \"#utility.yul\":6638:6658   */\n  tag_42\n  jump\t// in\ntag_130:\n    /* \"#utility.yul\":6633:6658   */\n  swap2\n  pop\n    /* \"#utility.yul\":6672:6692   */\n  tag_131\n    /* \"#utility.yul\":6690:6691   */\n  dup4\n    /* \"#utility.yul\":6672:6692   */\n  tag_42\n  jump\t// in\ntag_131:\n    /* \"#utility.yul\":6667:6692   */\n  swap3\n  pop\n    /* \"#utility.yul\":6715:6716   */\n  dup3\n    /* \"#utility.yul\":6712:6713   */\n  dup3\n    /* \"#utility.yul\":6708:6717   */\n  add\n    /* \"#utility.yul\":6701:6717   */\n  swap1\n  pop\n    /* \"#utility.yul\":6736:6739   */\n  dup1\n    /* \"#utility.yul\":6733:6734   */\n  dup3\n    /* \"#utility.yul\":6730:6740   */\n  gt\n    /* \"#utility.yul\":6727:6763   */\n  iszero\n  tag_132\n  jumpi\n    /* \"#utility.yul\":6743:6761   */\n  tag_133\n  tag_57\n  jump\t// in\ntag_133:\n    /* \"#utility.yul\":6727:6763   */\ntag_132:\n    /* \"#utility.yul\":6579:6770   */\n  swap3\n  swap2\n  pop\n  pop\n  jump\t// out\n    /* \"#utility.yul\":6776:6894   */\ntag_58:\n    /* \"#utility.yul\":6863:6887   */\n  tag_135\n    /* \"#utility.yul\":6881:6886   */\n  dup2\n    /* \"#utility.yul\":6863:6887   */\n  tag_42\n  jump\t// in\ntag_135:\n    /* \"#utility.yul\":6858:6861   */\n  dup3\n    /* \"#utility.yul\":6851:6888   */\n  mstore\n    /* \"#utility.yul\":6776:6894   */\n  pop\n  pop\n  jump\t// out\n    /* \"#utility.yul\":6900:7122   */\ntag_29:\n    /* \"#utility.yul\":6993:6997   */\n  0x00\n    /* \"#utility.yul\":7031:7033   */\n  0x20\n    /* \"#utility.yul\":7020:7029   */\n  dup3\n    /* \"#utility.yul\":7016:7034   */\n  add\n    /* \"#utility.yul\":7008:7034   */\n  swap1\n  pop\n    /* \"#utility.yul\":7044:7115   */\n  tag_137\n    /* \"#utility.yul\":7112:7113   */\n  0x00\n    /* \"#utility.yul\":7101:7110   */\n  dup4\n    /* \"#utility.yul\":7097:7114   */\n  add\n    /* \"#utility.yul\":7088:7094   */\n  dup5\n    /* \"#utility.yul\":7044:7115   */\n  tag_58\n  jump\t// in\ntag_137:\n    /* \"#utility.yul\":6900:7122   */\n  swap3\n  swap2\n  pop\n  pop\n  jump\t// out\n    /* \"contracts/Staking/ERC20_flattened.sol\":19988:20127  contract ERC20FT is ERC20, Ownable {... */\ntag_17:\n  dataSize(sub_0)\n  dup1\n  dataOffset(sub_0)\n  0x00\n  codecopy\n  0x00\n  return\nstop\n\nsub_0: assembly {\n        /* \"contracts/Staking/ERC20_flattened.sol\":19988:20127  contract ERC20FT is ERC20, Ownable {... */\n      mstore(0x40, 0x80)\n      callvalue\n      dup1\n      iszero\n      tag_1\n      jumpi\n      0x00\n      dup1\n      revert\n    tag_1:\n      pop\n      jumpi(tag_2, lt(calldatasize, 0x04))\n      shr(0xe0, calldataload(0x00))\n      dup1\n      0x715018a6\n      gt\n      tag_17\n      jumpi\n      dup1\n      0xa457c2d7\n      gt\n      tag_18\n      jumpi\n      dup1\n      0xa457c2d7\n      eq\n      tag_13\n      jumpi\n      dup1\n      0xa9059cbb\n      eq\n      tag_14\n      jumpi\n      dup1\n      0xdd62ed3e\n      eq\n      tag_15\n      jumpi\n      dup1\n      0xf2fde38b\n      eq\n      tag_16\n      jumpi\n      jump(tag_2)\n    tag_18:\n      dup1\n      0x715018a6\n      eq\n      tag_10\n      jumpi\n      dup1\n      0x8da5cb5b\n      eq\n      tag_11\n      jumpi\n      dup1\n      0x95d89b41\n      eq\n      tag_12\n      jumpi\n      jump(tag_2)\n    tag_17:\n      dup1\n      0x23b872dd\n      gt\n      tag_19\n      jumpi\n      dup1\n      0x23b872dd\n      eq\n      tag_6\n      jumpi\n      dup1\n      0x313ce567\n      eq\n      tag_7\n      jumpi\n      dup1\n      0x39509351\n      eq\n      tag_8\n      jumpi\n      dup1\n      0x70a08231\n      eq\n      tag_9\n      jumpi\n      jump(tag_2)\n    tag_19:\n      dup1\n      0x06fdde03\n      eq\n      tag_3\n      jumpi\n      dup1\n      0x095ea7b3\n      eq\n      tag_4\n      jumpi\n      dup1\n      0x18160ddd\n      eq\n      tag_5\n      jumpi\n    tag_2:\n      0x00\n      dup1\n      revert\n        /* \"contracts/Staking/ERC20_flattened.sol\":9063:9161  function name() public view virtual override returns (string memory) {... */\n    tag_3:\n      tag_20\n      tag_21\n      jump\t// in\n    tag_20:\n      mload(0x40)\n      tag_22\n      swap2\n      swap1\n      tag_23\n      jump\t// in\n    tag_22:\n      mload(0x40)\n      dup1\n      swap2\n      sub\n      swap1\n      return\n        /* \"contracts/Staking/ERC20_flattened.sol\":11340:11537  function approve(address spender, uint256 amount) public virtual override returns (bool) {... */\n    tag_4:\n      tag_24\n      0x04\n      dup1\n      calldatasize\n      sub\n      dup2\n      add\n      swap1\n      tag_25\n      swap2\n      swap1\n      tag_26\n      jump\t// in\n    tag_25:\n      tag_27\n      jump\t// in\n    tag_24:\n      mload(0x40)\n      tag_28\n      swap2\n      swap1\n      tag_29\n      jump\t// in\n    tag_28:\n      mload(0x40)\n      dup1\n      swap2\n      sub\n      swap1\n      return\n        /* \"contracts/Staking/ERC20_flattened.sol\":10151:10257  function totalSupply() public view virtual override returns (uint256) {... */\n    tag_5:\n      tag_30\n      tag_31\n      jump\t// in\n    tag_30:\n      mload(0x40)\n      tag_32\n      swap2\n      swap1\n      tag_33\n      jump\t// in\n    tag_32:\n      mload(0x40)\n      dup1\n      swap2\n      sub\n      swap1\n      return\n        /* \"contracts/Staking/ERC20_flattened.sol\":12099:12385  function transferFrom(... */\n    tag_6:\n      tag_34\n      0x04\n      dup1\n      calldatasize\n      sub\n      dup2\n      add\n      swap1\n      tag_35\n      swap2\n      swap1\n      tag_36\n      jump\t// in\n    tag_35:\n      tag_37\n      jump\t// in\n    tag_34:\n      mload(0x40)\n      tag_38\n      swap2\n      swap1\n      tag_29\n      jump\t// in\n    tag_38:\n      mload(0x40)\n      dup1\n      swap2\n      sub\n      swap1\n      return\n        /* \"contracts/Staking/ERC20_flattened.sol\":10000:10091  function decimals() public view virtual override returns (uint8) {... */\n    tag_7:\n      tag_39\n      tag_40\n      jump\t// in\n    tag_39:\n      mload(0x40)\n      tag_41\n      swap2\n      swap1\n      tag_42\n      jump\t// in\n    tag_41:\n      mload(0x40)\n      dup1\n      swap2\n      sub\n      swap1\n      return\n        /* \"contracts/Staking/ERC20_flattened.sol\":12780:13014  function increaseAllowance(address spender, uint256 addedValue) public virtual returns (bool) {... */\n    tag_8:\n      tag_43\n      0x04\n      dup1\n      calldatasize\n      sub\n      dup2\n      add\n      swap1\n      tag_44\n      swap2\n      swap1\n      tag_26\n      jump\t// in\n    tag_44:\n      tag_45\n      jump\t// in\n    tag_43:\n      mload(0x40)\n      tag_46\n      swap2\n      swap1\n      tag_29\n      jump\t// in\n    tag_46:\n      mload(0x40)\n      dup1\n      swap2\n      sub\n      swap1\n      return\n        /* \"contracts/Staking/ERC20_flattened.sol\":10315:10440  function balanceOf(address account) public view virtual override returns (uint256) {... */\n    tag_9:\n      tag_47\n      0x04\n      dup1\n      calldatasize\n      sub\n      dup2\n      add\n      swap1\n      tag_48\n      swap2\n      swap1\n      tag_49\n      jump\t// in\n    tag_48:\n      tag_50\n      jump\t// in\n    tag_47:\n      mload(0x40)\n      tag_51\n      swap2\n      swap1\n      tag_33\n      jump\t// in\n    tag_51:\n      mload(0x40)\n      dup1\n      swap2\n      sub\n      swap1\n      return\n        /* \"contracts/Staking/ERC20_flattened.sol\":2689:2790  function renounceOwnership() public virtual onlyOwner {... */\n    tag_10:\n      tag_52\n      tag_53\n      jump\t// in\n    tag_52:\n      stop\n        /* \"contracts/Staking/ERC20_flattened.sol\":2059:2144  function owner() public view virtual returns (address) {... */\n    tag_11:\n      tag_54\n      tag_55\n      jump\t// in\n    tag_54:\n      mload(0x40)\n      tag_56\n      swap2\n      swap1\n      tag_57\n      jump\t// in\n    tag_56:\n      mload(0x40)\n      dup1\n      swap2\n      sub\n      swap1\n      return\n        /* \"contracts/Staking/ERC20_flattened.sol\":9274:9376  function symbol() public view virtual override returns (string memory) {... */\n    tag_12:\n      tag_58\n      tag_59\n      jump\t// in\n    tag_58:\n      mload(0x40)\n      tag_60\n      swap2\n      swap1\n      tag_23\n      jump\t// in\n    tag_60:\n      mload(0x40)\n      dup1\n      swap2\n      sub\n      swap1\n      return\n        /* \"contracts/Staking/ERC20_flattened.sol\":13501:13928  function decreaseAllowance(address spender, uint256 subtractedValue) public virtual returns (bool) {... */\n    tag_13:\n      tag_61\n      0x04\n      dup1\n      calldatasize\n      sub\n      dup2\n      add\n      swap1\n      tag_62\n      swap2\n      swap1\n      tag_26\n      jump\t// in\n    tag_62:\n      tag_63\n      jump\t// in\n    tag_61:\n      mload(0x40)\n      tag_64\n      swap2\n      swap1\n      tag_29\n      jump\t// in\n    tag_64:\n      mload(0x40)\n      dup1\n      swap2\n      sub\n      swap1\n      return\n        /* \"contracts/Staking/ERC20_flattened.sol\":10636:10825  function transfer(address to, uint256 amount) public virtual override returns (bool) {... */\n    tag_14:\n      tag_65\n      0x04\n      dup1\n      calldatasize\n      sub\n      dup2\n      add\n      swap1\n      tag_66\n      swap2\n      swap1\n      tag_26\n      jump\t// in\n    tag_66:\n      tag_67\n      jump\t// in\n    tag_65:\n      mload(0x40)\n      tag_68\n      swap2\n      swap1\n      tag_29\n      jump\t// in\n    tag_68:\n      mload(0x40)\n      dup1\n      swap2\n      sub\n      swap1\n      return\n        /* \"contracts/Staking/ERC20_flattened.sol\":10883:11032  function allowance(address owner, address spender) public view virtual override returns (uint256) {... */\n    tag_15:\n      tag_69\n      0x04\n      dup1\n      calldatasize\n      sub\n      dup2\n      add\n      swap1\n      tag_70\n      swap2\n      swap1\n      tag_71\n      jump\t// in\n    tag_70:\n      tag_72\n      jump\t// in\n    tag_69:\n      mload(0x40)\n      tag_73\n      swap2\n      swap1\n      tag_33\n      jump\t// in\n    tag_73:\n      mload(0x40)\n      dup1\n      swap2\n      sub\n      swap1\n      return\n        /* \"contracts/Staking/ERC20_flattened.sol\":2939:3137  function transferOwnership(address newOwner) public virtual onlyOwner {... */\n    tag_16:\n      tag_74\n      0x04\n      dup1\n      calldatasize\n      sub\n      dup2\n      add\n      swap1\n      tag_75\n      swap2\n      swap1\n      tag_49\n      jump\t// in\n    tag_75:\n      tag_76\n      jump\t// in\n    tag_74:\n      stop\n        /* \"contracts/Staking/ERC20_flattened.sol\":9063:9161  function name() public view virtual override returns (string memory) {... */\n    tag_21:\n        /* \"contracts/Staking/ERC20_flattened.sol\":9117:9130  string memory */\n      0x60\n        /* \"contracts/Staking/ERC20_flattened.sol\":9149:9154  _name */\n      0x03\n        /* \"contracts/Staking/ERC20_flattened.sol\":9142:9154  return _name */\n      dup1\n      sload\n      tag_78\n      swap1\n      tag_79\n      jump\t// in\n    tag_78:\n      dup1\n      0x1f\n      add\n      0x20\n      dup1\n      swap2\n      div\n      mul\n      0x20\n      add\n      mload(0x40)\n      swap1\n      dup2\n      add\n      0x40\n      mstore\n      dup1\n      swap3\n      swap2\n      swap1\n      dup2\n      dup2\n      mstore\n      0x20\n      add\n      dup3\n      dup1\n      sload\n      tag_80\n      swap1\n      tag_79\n      jump\t// in\n    tag_80:\n      dup1\n      iszero\n      tag_81\n      jumpi\n      dup1\n      0x1f\n      lt\n      tag_82\n      jumpi\n      0x0100\n      dup1\n      dup4\n      sload\n      div\n      mul\n      dup4\n      mstore\n      swap2\n      0x20\n      add\n      swap2\n      jump(tag_81)\n    tag_82:\n      dup3\n      add\n      swap2\n      swap1\n      0x00\n      mstore\n      keccak256(0x00, 0x20)\n      swap1\n    tag_83:\n      dup2\n      sload\n      dup2\n      mstore\n      swap1\n      0x01\n      add\n      swap1\n      0x20\n      add\n      dup1\n      dup4\n      gt\n      tag_83\n      jumpi\n      dup3\n      swap1\n      sub\n      0x1f\n      and\n      dup3\n      add\n      swap2\n    tag_81:\n      pop\n      pop\n      pop\n      pop\n      pop\n      swap1\n      pop\n        /* \"contracts/Staking/ERC20_flattened.sol\":9063:9161  function name() public view virtual override returns (string memory) {... */\n      swap1\n      jump\t// out\n        /* \"contracts/Staking/ERC20_flattened.sol\":11340:11537  function approve(address spender, uint256 amount) public virtual override returns (bool) {... */\n    tag_27:\n        /* \"contracts/Staking/ERC20_flattened.sol\":11423:11427  bool */\n      0x00\n        /* \"contracts/Staking/ERC20_flattened.sol\":11439:11452  address owner */\n      dup1\n        /* \"contracts/Staking/ERC20_flattened.sol\":11455:11467  _msgSender() */\n      tag_85\n        /* \"contracts/Staking/ERC20_flattened.sol\":11455:11465  _msgSender */\n      tag_86\n        /* \"contracts/Staking/ERC20_flattened.sol\":11455:11467  _msgSender() */\n      jump\t// in\n    tag_85:\n        /* \"contracts/Staking/ERC20_flattened.sol\":11439:11467  address owner = _msgSender() */\n      swap1\n      pop\n        /* \"contracts/Staking/ERC20_flattened.sol\":11477:11509  _approve(owner, spender, amount) */\n      tag_87\n        /* \"contracts/Staking/ERC20_flattened.sol\":11486:11491  owner */\n      dup2\n        /* \"contracts/Staking/ERC20_flattened.sol\":11493:11500  spender */\n      dup6\n        /* \"contracts/Staking/ERC20_flattened.sol\":11502:11508  amount */\n      dup6\n        /* \"contracts/Staking/ERC20_flattened.sol\":11477:11485  _approve */\n      tag_88\n        /* \"contracts/Staking/ERC20_flattened.sol\":11477:11509  _approve(owner, spender, amount) */\n      jump\t// in\n    tag_87:\n        /* \"contracts/Staking/ERC20_flattened.sol\":11526:11530  true */\n      0x01\n        /* \"contracts/Staking/ERC20_flattened.sol\":11519:11530  return true */\n      swap2\n      pop\n      pop\n        /* \"contracts/Staking/ERC20_flattened.sol\":11340:11537  function approve(address spender, uint256 amount) public virtual override returns (bool) {... */\n      swap3\n      swap2\n      pop\n      pop\n      jump\t// out\n        /* \"contracts/Staking/ERC20_flattened.sol\":10151:10257  function totalSupply() public view virtual override returns (uint256) {... */\n    tag_31:\n        /* \"contracts/Staking/ERC20_flattened.sol\":10212:10219  uint256 */\n      0x00\n        /* \"contracts/Staking/ERC20_flattened.sol\":10238:10250  _totalSupply */\n      sload(0x02)\n        /* \"contracts/Staking/ERC20_flattened.sol\":10231:10250  return _totalSupply */\n      swap1\n      pop\n        /* \"contracts/Staking/ERC20_flattened.sol\":10151:10257  function totalSupply() public view virtual override returns (uint256) {... */\n      swap1\n      jump\t// out\n        /* \"contracts/Staking/ERC20_flattened.sol\":12099:12385  function transferFrom(... */\n    tag_37:\n        /* \"contracts/Staking/ERC20_flattened.sol\":12226:12230  bool */\n      0x00\n        /* \"contracts/Staking/ERC20_flattened.sol\":12242:12257  address spender */\n      dup1\n        /* \"contracts/Staking/ERC20_flattened.sol\":12260:12272  _msgSender() */\n      tag_91\n        /* \"contracts/Staking/ERC20_flattened.sol\":12260:12270  _msgSender */\n      tag_86\n        /* \"contracts/Staking/ERC20_flattened.sol\":12260:12272  _msgSender() */\n      jump\t// in\n    tag_91:\n        /* \"contracts/Staking/ERC20_flattened.sol\":12242:12272  address spender = _msgSender() */\n      swap1\n      pop\n        /* \"contracts/Staking/ERC20_flattened.sol\":12282:12320  _spendAllowance(from, spender, amount) */\n      tag_92\n        /* \"contracts/Staking/ERC20_flattened.sol\":12298:12302  from */\n      dup6\n        /* \"contracts/Staking/ERC20_flattened.sol\":12304:12311  spender */\n      dup3\n        /* \"contracts/Staking/ERC20_flattened.sol\":12313:12319  amount */\n      dup6\n        /* \"contracts/Staking/ERC20_flattened.sol\":12282:12297  _spendAllowance */\n      tag_93\n        /* \"contracts/Staking/ERC20_flattened.sol\":12282:12320  _spendAllowance(from, spender, amount) */\n      jump\t// in\n    tag_92:\n        /* \"contracts/Staking/ERC20_flattened.sol\":12330:12357  _transfer(from, to, amount) */\n      tag_94\n        /* \"contracts/Staking/ERC20_flattened.sol\":12340:12344  from */\n      dup6\n        /* \"contracts/Staking/ERC20_flattened.sol\":12346:12348  to */\n      dup6\n        /* \"contracts/Staking/ERC20_flattened.sol\":12350:12356  amount */\n      dup6\n        /* \"contracts/Staking/ERC20_flattened.sol\":12330:12339  _transfer */\n      tag_95\n        /* \"contracts/Staking/ERC20_flattened.sol\":12330:12357  _transfer(from, to, amount) */\n      jump\t// in\n    tag_94:\n        /* \"contracts/Staking/ERC20_flattened.sol\":12374:12378  true */\n      0x01\n        /* \"contracts/Staking/ERC20_flattened.sol\":12367:12378  return true */\n      swap2\n      pop\n      pop\n        /* \"contracts/Staking/ERC20_flattened.sol\":12099:12385  function transferFrom(... */\n      swap4\n      swap3\n      pop\n      pop\n      pop\n      jump\t// out\n        /* \"contracts/Staking/ERC20_flattened.sol\":10000:10091  function decimals() public view virtual override returns (uint8) {... */\n    tag_40:\n        /* \"contracts/Staking/ERC20_flattened.sol\":10058:10063  uint8 */\n      0x00\n        /* \"contracts/Staking/ERC20_flattened.sol\":10082:10084  18 */\n      0x12\n        /* \"contracts/Staking/ERC20_flattened.sol\":10075:10084  return 18 */\n      swap1\n      pop\n        /* \"contracts/Staking/ERC20_flattened.sol\":10000:10091  function decimals() public view virtual override returns (uint8) {... */\n      swap1\n      jump\t// out\n        /* \"contracts/Staking/ERC20_flattened.sol\":12780:13014  function increaseAllowance(address spender, uint256 addedValue) public virtual returns (bool) {... */\n    tag_45:\n        /* \"contracts/Staking/ERC20_flattened.sol\":12868:12872  bool */\n      0x00\n        /* \"contracts/Staking/ERC20_flattened.sol\":12884:12897  address owner */\n      dup1\n        /* \"contracts/Staking/ERC20_flattened.sol\":12900:12912  _msgSender() */\n      tag_98\n        /* \"contracts/Staking/ERC20_flattened.sol\":12900:12910  _msgSender */\n      tag_86\n        /* \"contracts/Staking/ERC20_flattened.sol\":12900:12912  _msgSender() */\n      jump\t// in\n    tag_98:\n        /* \"contracts/Staking/ERC20_flattened.sol\":12884:12912  address owner = _msgSender() */\n      swap1\n      pop\n        /* \"contracts/Staking/ERC20_flattened.sol\":12922:12986  _approve(owner, spender, allowance(owner, spender) + addedValue) */\n      tag_99\n        /* \"contracts/Staking/ERC20_flattened.sol\":12931:12936  owner */\n      dup2\n        /* \"contracts/Staking/ERC20_flattened.sol\":12938:12945  spender */\n      dup6\n        /* \"contracts/Staking/ERC20_flattened.sol\":12975:12985  addedValue */\n      dup6\n        /* \"contracts/Staking/ERC20_flattened.sol\":12947:12972  allowance(owner, spender) */\n      tag_100\n        /* \"contracts/Staking/ERC20_flattened.sol\":12957:12962  owner */\n      dup6\n        /* \"contracts/Staking/ERC20_flattened.sol\":12964:12971  spender */\n      dup10\n        /* \"contracts/Staking/ERC20_flattened.sol\":12947:12956  allowance */\n      tag_72\n        /* \"contracts/Staking/ERC20_flattened.sol\":12947:12972  allowance(owner, spender) */\n      jump\t// in\n    tag_100:\n        /* \"contracts/Staking/ERC20_flattened.sol\":12947:12985  allowance(owner, spender) + addedValue */\n      tag_101\n      swap2\n      swap1\n      tag_102\n      jump\t// in\n    tag_101:\n        /* \"contracts/Staking/ERC20_flattened.sol\":12922:12930  _approve */\n      tag_88\n        /* \"contracts/Staking/ERC20_flattened.sol\":12922:12986  _approve(owner, spender, allowance(owner, spender) + addedValue) */\n      jump\t// in\n    tag_99:\n        /* \"contracts/Staking/ERC20_flattened.sol\":13003:13007  true */\n      0x01\n        /* \"contracts/Staking/ERC20_flattened.sol\":12996:13007  return true */\n      swap2\n      pop\n      pop\n        /* \"contracts/Staking/ERC20_flattened.sol\":12780:13014  function increaseAllowance(address spender, uint256 addedValue) public virtual returns (bool) {... */\n      swap3\n      swap2\n      pop\n      pop\n      jump\t// out\n        /* \"contracts/Staking/ERC20_flattened.sol\":10315:10440  function balanceOf(address account) public view virtual override returns (uint256) {... */\n    tag_50:\n        /* \"contracts/Staking/ERC20_flattened.sol\":10389:10396  uint256 */\n      0x00\n        /* \"contracts/Staking/ERC20_flattened.sol\":10415:10424  _balances */\n      dup1\n        /* \"contracts/Staking/ERC20_flattened.sol\":10415:10433  _balances[account] */\n      0x00\n        /* \"contracts/Staking/ERC20_flattened.sol\":10425:10432  account */\n      dup4\n        /* \"contracts/Staking/ERC20_flattened.sol\":10415:10433  _balances[account] */\n      0xffffffffffffffffffffffffffffffffffffffff\n      and\n      0xffffffffffffffffffffffffffffffffffffffff\n      and\n      dup2\n      mstore\n      0x20\n      add\n      swap1\n      dup2\n      mstore\n      0x20\n      add\n      0x00\n      keccak256\n      sload\n        /* \"contracts/Staking/ERC20_flattened.sol\":10408:10433  return _balances[account] */\n      swap1\n      pop\n        /* \"contracts/Staking/ERC20_flattened.sol\":10315:10440  function balanceOf(address account) public view virtual override returns (uint256) {... */\n      swap2\n      swap1\n      pop\n      jump\t// out\n        /* \"contracts/Staking/ERC20_flattened.sol\":2689:2790  function renounceOwnership() public virtual onlyOwner {... */\n    tag_53:\n        /* \"contracts/Staking/ERC20_flattened.sol\":1952:1965  _checkOwner() */\n      tag_105\n        /* \"contracts/Staking/ERC20_flattened.sol\":1952:1963  _checkOwner */\n      tag_106\n        /* \"contracts/Staking/ERC20_flattened.sol\":1952:1965  _checkOwner() */\n      jump\t// in\n    tag_105:\n        /* \"contracts/Staking/ERC20_flattened.sol\":2753:2783  _transferOwnership(address(0)) */\n      tag_108\n        /* \"contracts/Staking/ERC20_flattened.sol\":2780:2781  0 */\n      0x00\n        /* \"contracts/Staking/ERC20_flattened.sol\":2753:2771  _transferOwnership */\n      tag_109\n        /* \"contracts/Staking/ERC20_flattened.sol\":2753:2783  _transferOwnership(address(0)) */\n      jump\t// in\n    tag_108:\n        /* \"contracts/Staking/ERC20_flattened.sol\":2689:2790  function renounceOwnership() public virtual onlyOwner {... */\n      jump\t// out\n        /* \"contracts/Staking/ERC20_flattened.sol\":2059:2144  function owner() public view virtual returns (address) {... */\n    tag_55:\n        /* \"contracts/Staking/ERC20_flattened.sol\":2105:2112  address */\n      0x00\n        /* \"contracts/Staking/ERC20_flattened.sol\":2131:2137  _owner */\n      0x05\n      0x00\n      swap1\n      sload\n      swap1\n      0x0100\n      exp\n      swap1\n      div\n      0xffffffffffffffffffffffffffffffffffffffff\n      and\n        /* \"contracts/Staking/ERC20_flattened.sol\":2124:2137  return _owner */\n      swap1\n      pop\n        /* \"contracts/Staking/ERC20_flattened.sol\":2059:2144  function owner() public view virtual returns (address) {... */\n      swap1\n      jump\t// out\n        /* \"contracts/Staking/ERC20_flattened.sol\":9274:9376  function symbol() public view virtual override returns (string memory) {... */\n    tag_59:\n        /* \"contracts/Staking/ERC20_flattened.sol\":9330:9343  string memory */\n      0x60\n        /* \"contracts/Staking/ERC20_flattened.sol\":9362:9369  _symbol */\n      0x04\n        /* \"contracts/Staking/ERC20_flattened.sol\":9355:9369  return _symbol */\n      dup1\n      sload\n      tag_112\n      swap1\n      tag_79\n      jump\t// in\n    tag_112:\n      dup1\n      0x1f\n      add\n      0x20\n      dup1\n      swap2\n      div\n      mul\n      0x20\n      add\n      mload(0x40)\n      swap1\n      dup2\n      add\n      0x40\n      mstore\n      dup1\n      swap3\n      swap2\n      swap1\n      dup2\n      dup2\n      mstore\n      0x20\n      add\n      dup3\n      dup1\n      sload\n      tag_113\n      swap1\n      tag_79\n      jump\t// in\n    tag_113:\n      dup1\n      iszero\n      tag_114\n      jumpi\n      dup1\n      0x1f\n      lt\n      tag_115\n      jumpi\n      0x0100\n      dup1\n      dup4\n      sload\n      div\n      mul\n      dup4\n      mstore\n      swap2\n      0x20\n      add\n      swap2\n      jump(tag_114)\n    tag_115:\n      dup3\n      add\n      swap2\n      swap1\n      0x00\n      mstore\n      keccak256(0x00, 0x20)\n      swap1\n    tag_116:\n      dup2\n      sload\n      dup2\n      mstore\n      swap1\n      0x01\n      add\n      swap1\n      0x20\n      add\n      dup1\n      dup4\n      gt\n      tag_116\n      jumpi\n      dup3\n      swap1\n      sub\n      0x1f\n      and\n      dup3\n      add\n      swap2\n    tag_114:\n      pop\n      pop\n      pop\n      pop\n      pop\n      swap1\n      pop\n        /* \"contracts/Staking/ERC20_flattened.sol\":9274:9376  function symbol() public view virtual override returns (string memory) {... */\n      swap1\n      jump\t// out\n        /* \"contracts/Staking/ERC20_flattened.sol\":13501:13928  function decreaseAllowance(address spender, uint256 subtractedValue) public virtual returns (bool) {... */\n    tag_63:\n        /* \"contracts/Staking/ERC20_flattened.sol\":13594:13598  bool */\n      0x00\n        /* \"contracts/Staking/ERC20_flattened.sol\":13610:13623  address owner */\n      dup1\n        /* \"contracts/Staking/ERC20_flattened.sol\":13626:13638  _msgSender() */\n      tag_118\n        /* \"contracts/Staking/ERC20_flattened.sol\":13626:13636  _msgSender */\n      tag_86\n        /* \"contracts/Staking/ERC20_flattened.sol\":13626:13638  _msgSender() */\n      jump\t// in\n    tag_118:\n        /* \"contracts/Staking/ERC20_flattened.sol\":13610:13638  address owner = _msgSender() */\n      swap1\n      pop\n        /* \"contracts/Staking/ERC20_flattened.sol\":13648:13672  uint256 currentAllowance */\n      0x00\n        /* \"contracts/Staking/ERC20_flattened.sol\":13675:13700  allowance(owner, spender) */\n      tag_119\n        /* \"contracts/Staking/ERC20_flattened.sol\":13685:13690  owner */\n      dup3\n        /* \"contracts/Staking/ERC20_flattened.sol\":13692:13699  spender */\n      dup7\n        /* \"contracts/Staking/ERC20_flattened.sol\":13675:13684  allowance */\n      tag_72\n        /* \"contracts/Staking/ERC20_flattened.sol\":13675:13700  allowance(owner, spender) */\n      jump\t// in\n    tag_119:\n        /* \"contracts/Staking/ERC20_flattened.sol\":13648:13700  uint256 currentAllowance = allowance(owner, spender) */\n      swap1\n      pop\n        /* \"contracts/Staking/ERC20_flattened.sol\":13738:13753  subtractedValue */\n      dup4\n        /* \"contracts/Staking/ERC20_flattened.sol\":13718:13734  currentAllowance */\n      dup2\n        /* \"contracts/Staking/ERC20_flattened.sol\":13718:13753  currentAllowance >= subtractedValue */\n      lt\n      iszero\n        /* \"contracts/Staking/ERC20_flattened.sol\":13710:13795  require(currentAllowance >= subtractedValue, \"ERC20: decreased allowance below zero\") */\n      tag_120\n      jumpi\n      mload(0x40)\n      0x08c379a000000000000000000000000000000000000000000000000000000000\n      dup2\n      mstore\n      0x04\n      add\n      tag_121\n      swap1\n      tag_122\n      jump\t// in\n    tag_121:\n      mload(0x40)\n      dup1\n      swap2\n      sub\n      swap1\n      revert\n    tag_120:\n        /* \"contracts/Staking/ERC20_flattened.sol\":13829:13889  _approve(owner, spender, currentAllowance - subtractedValue) */\n      tag_123\n        /* \"contracts/Staking/ERC20_flattened.sol\":13838:13843  owner */\n      dup3\n        /* \"contracts/Staking/ERC20_flattened.sol\":13845:13852  spender */\n      dup7\n        /* \"contracts/Staking/ERC20_flattened.sol\":13873:13888  subtractedValue */\n      dup7\n        /* \"contracts/Staking/ERC20_flattened.sol\":13854:13870  currentAllowance */\n      dup5\n        /* \"contracts/Staking/ERC20_flattened.sol\":13854:13888  currentAllowance - subtractedValue */\n      sub\n        /* \"contracts/Staking/ERC20_flattened.sol\":13829:13837  _approve */\n      tag_88\n        /* \"contracts/Staking/ERC20_flattened.sol\":13829:13889  _approve(owner, spender, currentAllowance - subtractedValue) */\n      jump\t// in\n    tag_123:\n        /* \"contracts/Staking/ERC20_flattened.sol\":13917:13921  true */\n      0x01\n        /* \"contracts/Staking/ERC20_flattened.sol\":13910:13921  return true */\n      swap3\n      pop\n      pop\n      pop\n        /* \"contracts/Staking/ERC20_flattened.sol\":13501:13928  function decreaseAllowance(address spender, uint256 subtractedValue) public virtual returns (bool) {... */\n      swap3\n      swap2\n      pop\n      pop\n      jump\t// out\n        /* \"contracts/Staking/ERC20_flattened.sol\":10636:10825  function transfer(address to, uint256 amount) public virtual override returns (bool) {... */\n    tag_67:\n        /* \"contracts/Staking/ERC20_flattened.sol\":10715:10719  bool */\n      0x00\n        /* \"contracts/Staking/ERC20_flattened.sol\":10731:10744  address owner */\n      dup1\n        /* \"contracts/Staking/ERC20_flattened.sol\":10747:10759  _msgSender() */\n      tag_125\n        /* \"contracts/Staking/ERC20_flattened.sol\":10747:10757  _msgSender */\n      tag_86\n        /* \"contracts/Staking/ERC20_flattened.sol\":10747:10759  _msgSender() */\n      jump\t// in\n    tag_125:\n        /* \"contracts/Staking/ERC20_flattened.sol\":10731:10759  address owner = _msgSender() */\n      swap1\n      pop\n        /* \"contracts/Staking/ERC20_flattened.sol\":10769:10797  _transfer(owner, to, amount) */\n      tag_126\n        /* \"contracts/Staking/ERC20_flattened.sol\":10779:10784  owner */\n      dup2\n        /* \"contracts/Staking/ERC20_flattened.sol\":10786:10788  to */\n      dup6\n        /* \"contracts/Staking/ERC20_flattened.sol\":10790:10796  amount */\n      dup6\n        /* \"contracts/Staking/ERC20_flattened.sol\":10769:10778  _transfer */\n      tag_95\n        /* \"contracts/Staking/ERC20_flattened.sol\":10769:10797  _transfer(owner, to, amount) */\n      jump\t// in\n    tag_126:\n        /* \"contracts/Staking/ERC20_flattened.sol\":10814:10818  true */\n      0x01\n        /* \"contracts/Staking/ERC20_flattened.sol\":10807:10818  return true */\n      swap2\n      pop\n      pop\n        /* \"contracts/Staking/ERC20_flattened.sol\":10636:10825  function transfer(address to, uint256 amount) public virtual override returns (bool) {... */\n      swap3\n      swap2\n      pop\n      pop\n      jump\t// out\n        /* \"contracts/Staking/ERC20_flattened.sol\":10883:11032  function allowance(address owner, address spender) public view virtual override returns (uint256) {... */\n    tag_72:\n        /* \"contracts/Staking/ERC20_flattened.sol\":10972:10979  uint256 */\n      0x00\n        /* \"contracts/Staking/ERC20_flattened.sol\":10998:11009  _allowances */\n      0x01\n        /* \"contracts/Staking/ERC20_flattened.sol\":10998:11016  _allowances[owner] */\n      0x00\n        /* \"contracts/Staking/ERC20_flattened.sol\":11010:11015  owner */\n      dup5\n        /* \"contracts/Staking/ERC20_flattened.sol\":10998:11016  _allowances[owner] */\n      0xffffffffffffffffffffffffffffffffffffffff\n      and\n      0xffffffffffffffffffffffffffffffffffffffff\n      and\n      dup2\n      mstore\n      0x20\n      add\n      swap1\n      dup2\n      mstore\n      0x20\n      add\n      0x00\n      keccak256\n        /* \"contracts/Staking/ERC20_flattened.sol\":10998:11025  _allowances[owner][spender] */\n      0x00\n        /* \"contracts/Staking/ERC20_flattened.sol\":11017:11024  spender */\n      dup4\n        /* \"contracts/Staking/ERC20_flattened.sol\":10998:11025  _allowances[owner][spender] */\n      0xffffffffffffffffffffffffffffffffffffffff\n      and\n      0xffffffffffffffffffffffffffffffffffffffff\n      and\n      dup2\n      mstore\n      0x20\n      add\n      swap1\n      dup2\n      mstore\n      0x20\n      add\n      0x00\n      keccak256\n      sload\n        /* \"contracts/Staking/ERC20_flattened.sol\":10991:11025  return _allowances[owner][spender] */\n      swap1\n      pop\n        /* \"contracts/Staking/ERC20_flattened.sol\":10883:11032  function allowance(address owner, address spender) public view virtual override returns (uint256) {... */\n      swap3\n      swap2\n      pop\n      pop\n      jump\t// out\n        /* \"contracts/Staking/ERC20_flattened.sol\":2939:3137  function transferOwnership(address newOwner) public virtual onlyOwner {... */\n    tag_76:\n        /* \"contracts/Staking/ERC20_flattened.sol\":1952:1965  _checkOwner() */\n      tag_129\n        /* \"contracts/Staking/ERC20_flattened.sol\":1952:1963  _checkOwner */\n      tag_106\n        /* \"contracts/Staking/ERC20_flattened.sol\":1952:1965  _checkOwner() */\n      jump\t// in\n    tag_129:\n        /* \"contracts/Staking/ERC20_flattened.sol\":3047:3048  0 */\n      0x00\n        /* \"contracts/Staking/ERC20_flattened.sol\":3027:3049  newOwner != address(0) */\n      0xffffffffffffffffffffffffffffffffffffffff\n      and\n        /* \"contracts/Staking/ERC20_flattened.sol\":3027:3035  newOwner */\n      dup2\n        /* \"contracts/Staking/ERC20_flattened.sol\":3027:3049  newOwner != address(0) */\n      0xffffffffffffffffffffffffffffffffffffffff\n      and\n      sub\n        /* \"contracts/Staking/ERC20_flattened.sol\":3019:3092  require(newOwner != address(0), \"Ownable: new owner is the zero address\") */\n      tag_131\n      jumpi\n      mload(0x40)\n      0x08c379a000000000000000000000000000000000000000000000000000000000\n      dup2\n      mstore\n      0x04\n      add\n      tag_132\n      swap1\n      tag_133\n      jump\t// in\n    tag_132:\n      mload(0x40)\n      dup1\n      swap2\n      sub\n      swap1\n      revert\n    tag_131:\n        /* \"contracts/Staking/ERC20_flattened.sol\":3102:3130  _transferOwnership(newOwner) */\n      tag_134\n        /* \"contracts/Staking/ERC20_flattened.sol\":3121:3129  newOwner */\n      dup2\n        /* \"contracts/Staking/ERC20_flattened.sol\":3102:3120  _transferOwnership */\n      tag_109\n        /* \"contracts/Staking/ERC20_flattened.sol\":3102:3130  _transferOwnership(newOwner) */\n      jump\t// in\n    tag_134:\n        /* \"contracts/Staking/ERC20_flattened.sol\":2939:3137  function transferOwnership(address newOwner) public virtual onlyOwner {... */\n      pop\n      jump\t// out\n        /* \"contracts/Staking/ERC20_flattened.sol\":662:758  function _msgSender() internal view virtual returns (address) {... */\n    tag_86:\n        /* \"contracts/Staking/ERC20_flattened.sol\":715:722  address */\n      0x00\n        /* \"contracts/Staking/ERC20_flattened.sol\":741:751  msg.sender */\n      caller\n        /* \"contracts/Staking/ERC20_flattened.sol\":734:751  return msg.sender */\n      swap1\n      pop\n        /* \"contracts/Staking/ERC20_flattened.sol\":662:758  function _msgSender() internal view virtual returns (address) {... */\n      swap1\n      jump\t// out\n        /* \"contracts/Staking/ERC20_flattened.sol\":17413:17783  function _approve(... */\n    tag_88:\n        /* \"contracts/Staking/ERC20_flattened.sol\":17561:17562  0 */\n      0x00\n        /* \"contracts/Staking/ERC20_flattened.sol\":17544:17563  owner != address(0) */\n      0xffffffffffffffffffffffffffffffffffffffff\n      and\n        /* \"contracts/Staking/ERC20_flattened.sol\":17544:17549  owner */\n      dup4\n        /* \"contracts/Staking/ERC20_flattened.sol\":17544:17563  owner != address(0) */\n      0xffffffffffffffffffffffffffffffffffffffff\n      and\n      sub\n        /* \"contracts/Staking/ERC20_flattened.sol\":17536:17604  require(owner != address(0), \"ERC20: approve from the zero address\") */\n      tag_137\n      jumpi\n      mload(0x40)\n      0x08c379a000000000000000000000000000000000000000000000000000000000\n      dup2\n      mstore\n      0x04\n      add\n      tag_138\n      swap1\n      tag_139\n      jump\t// in\n    tag_138:\n      mload(0x40)\n      dup1\n      swap2\n      sub\n      swap1\n      revert\n    tag_137:\n        /* \"contracts/Staking/ERC20_flattened.sol\":17641:17642  0 */\n      0x00\n        /* \"contracts/Staking/ERC20_flattened.sol\":17622:17643  spender != address(0) */\n      0xffffffffffffffffffffffffffffffffffffffff\n      and\n        /* \"contracts/Staking/ERC20_flattened.sol\":17622:17629  spender */\n      dup3\n        /* \"contracts/Staking/ERC20_flattened.sol\":17622:17643  spender != address(0) */\n      0xffffffffffffffffffffffffffffffffffffffff\n      and\n      sub\n        /* \"contracts/Staking/ERC20_flattened.sol\":17614:17682  require(spender != address(0), \"ERC20: approve to the zero address\") */\n      tag_140\n      jumpi\n      mload(0x40)\n      0x08c379a000000000000000000000000000000000000000000000000000000000\n      dup2\n      mstore\n      0x04\n      add\n      tag_141\n      swap1\n      tag_142\n      jump\t// in\n    tag_141:\n      mload(0x40)\n      dup1\n      swap2\n      sub\n      swap1\n      revert\n    tag_140:\n        /* \"contracts/Staking/ERC20_flattened.sol\":17723:17729  amount */\n      dup1\n        /* \"contracts/Staking/ERC20_flattened.sol\":17693:17704  _allowances */\n      0x01\n        /* \"contracts/Staking/ERC20_flattened.sol\":17693:17711  _allowances[owner] */\n      0x00\n        /* \"contracts/Staking/ERC20_flattened.sol\":17705:17710  owner */\n      dup6\n        /* \"contracts/Staking/ERC20_flattened.sol\":17693:17711  _allowances[owner] */\n      0xffffffffffffffffffffffffffffffffffffffff\n      and\n      0xffffffffffffffffffffffffffffffffffffffff\n      and\n      dup2\n      mstore\n      0x20\n      add\n      swap1\n      dup2\n      mstore\n      0x20\n      add\n      0x00\n      keccak256\n        /* \"contracts/Staking/ERC20_flattened.sol\":17693:17720  _allowances[owner][spender] */\n      0x00\n        /* \"contracts/Staking/ERC20_flattened.sol\":17712:17719  spender */\n      dup5\n        /* \"contracts/Staking/ERC20_flattened.sol\":17693:17720  _allowances[owner][spender] */\n      0xffffffffffffffffffffffffffffffffffffffff\n      and\n      0xffffffffffffffffffffffffffffffffffffffff\n      and\n      dup2\n      mstore\n      0x20\n      add\n      swap1\n      dup2\n      mstore\n      0x20\n      add\n      0x00\n      keccak256\n        /* \"contracts/Staking/ERC20_flattened.sol\":17693:17729  _allowances[owner][spender] = amount */\n      dup2\n      swap1\n      sstore\n      pop\n        /* \"contracts/Staking/ERC20_flattened.sol\":17760:17767  spender */\n      dup2\n        /* \"contracts/Staking/ERC20_flattened.sol\":17744:17776  Approval(owner, spender, amount) */\n      0xffffffffffffffffffffffffffffffffffffffff\n      and\n        /* \"contracts/Staking/ERC20_flattened.sol\":17753:17758  owner */\n      dup4\n        /* \"contracts/Staking/ERC20_flattened.sol\":17744:17776  Approval(owner, spender, amount) */\n      0xffffffffffffffffffffffffffffffffffffffff\n      and\n      0x8c5be1e5ebec7d5bd14f71427d1e84f3dd0314c0f7b2291e5b200ac8c7c3b925\n        /* \"contracts/Staking/ERC20_flattened.sol\":17769:17775  amount */\n      dup4\n        /* \"contracts/Staking/ERC20_flattened.sol\":17744:17776  Approval(owner, spender, amount) */\n      mload(0x40)\n      tag_143\n      swap2\n      swap1\n      tag_33\n      jump\t// in\n    tag_143:\n      mload(0x40)\n      dup1\n      swap2\n      sub\n      swap1\n      log3\n        /* \"contracts/Staking/ERC20_flattened.sol\":17413:17783  function _approve(... */\n      pop\n      pop\n      pop\n      jump\t// out\n        /* \"contracts/Staking/ERC20_flattened.sol\":18064:18505  function _spendAllowance(... */\n    tag_93:\n        /* \"contracts/Staking/ERC20_flattened.sol\":18194:18218  uint256 currentAllowance */\n      0x00\n        /* \"contracts/Staking/ERC20_flattened.sol\":18221:18246  allowance(owner, spender) */\n      tag_145\n        /* \"contracts/Staking/ERC20_flattened.sol\":18231:18236  owner */\n      dup5\n        /* \"contracts/Staking/ERC20_flattened.sol\":18238:18245  spender */\n      dup5\n        /* \"contracts/Staking/ERC20_flattened.sol\":18221:18230  allowance */\n      tag_72\n        /* \"contracts/Staking/ERC20_flattened.sol\":18221:18246  allowance(owner, spender) */\n      jump\t// in\n    tag_145:\n        /* \"contracts/Staking/ERC20_flattened.sol\":18194:18246  uint256 currentAllowance = allowance(owner, spender) */\n      swap1\n      pop\n        /* \"contracts/Staking/ERC20_flattened.sol\":18280:18297  type(uint256).max */\n      0xffffffffffffffffffffffffffffffffffffffffffffffffffffffffffffffff\n        /* \"contracts/Staking/ERC20_flattened.sol\":18260:18276  currentAllowance */\n      dup2\n        /* \"contracts/Staking/ERC20_flattened.sol\":18260:18297  currentAllowance != type(uint256).max */\n      eq\n        /* \"contracts/Staking/ERC20_flattened.sol\":18256:18499  if (currentAllowance != type(uint256).max) {... */\n      tag_146\n      jumpi\n        /* \"contracts/Staking/ERC20_flattened.sol\":18341:18347  amount */\n      dup2\n        /* \"contracts/Staking/ERC20_flattened.sol\":18321:18337  currentAllowance */\n      dup2\n        /* \"contracts/Staking/ERC20_flattened.sol\":18321:18347  currentAllowance >= amount */\n      lt\n      iszero\n        /* \"contracts/Staking/ERC20_flattened.sol\":18313:18381  require(currentAllowance >= amount, \"ERC20: insufficient allowance\") */\n      tag_147\n      jumpi\n      mload(0x40)\n      0x08c379a000000000000000000000000000000000000000000000000000000000\n      dup2\n      mstore\n      0x04\n      add\n      tag_148\n      swap1\n      tag_149\n      jump\t// in\n    tag_148:\n      mload(0x40)\n      dup1\n      swap2\n      sub\n      swap1\n      revert\n    tag_147:\n        /* \"contracts/Staking/ERC20_flattened.sol\":18423:18474  _approve(owner, spender, currentAllowance - amount) */\n      tag_150\n        /* \"contracts/Staking/ERC20_flattened.sol\":18432:18437  owner */\n      dup5\n        /* \"contracts/Staking/ERC20_flattened.sol\":18439:18446  spender */\n      dup5\n        /* \"contracts/Staking/ERC20_flattened.sol\":18467:18473  amount */\n      dup5\n        /* \"contracts/Staking/ERC20_flattened.sol\":18448:18464  currentAllowance */\n      dup5\n        /* \"contracts/Staking/ERC20_flattened.sol\":18448:18473  currentAllowance - amount */\n      sub\n        /* \"contracts/Staking/ERC20_flattened.sol\":18423:18431  _approve */\n      tag_88\n        /* \"contracts/Staking/ERC20_flattened.sol\":18423:18474  _approve(owner, spender, currentAllowance - amount) */\n      jump\t// in\n    tag_150:\n        /* \"contracts/Staking/ERC20_flattened.sol\":18256:18499  if (currentAllowance != type(uint256).max) {... */\n    tag_146:\n        /* \"contracts/Staking/ERC20_flattened.sol\":18184:18505  {... */\n      pop\n        /* \"contracts/Staking/ERC20_flattened.sol\":18064:18505  function _spendAllowance(... */\n      pop\n      pop\n      pop\n      jump\t// out\n        /* \"contracts/Staking/ERC20_flattened.sol\":14382:15200  function _transfer(... */\n    tag_95:\n        /* \"contracts/Staking/ERC20_flattened.sol\":14524:14525  0 */\n      0x00\n        /* \"contracts/Staking/ERC20_flattened.sol\":14508:14526  from != address(0) */\n      0xffffffffffffffffffffffffffffffffffffffff\n      and\n        /* \"contracts/Staking/ERC20_flattened.sol\":14508:14512  from */\n      dup4\n        /* \"contracts/Staking/ERC20_flattened.sol\":14508:14526  from != address(0) */\n      0xffffffffffffffffffffffffffffffffffffffff\n      and\n      sub\n        /* \"contracts/Staking/ERC20_flattened.sol\":14500:14568  require(from != address(0), \"ERC20: transfer from the zero address\") */\n      tag_152\n      jumpi\n      mload(0x40)\n      0x08c379a000000000000000000000000000000000000000000000000000000000\n      dup2\n      mstore\n      0x04\n      add\n      tag_153\n      swap1\n      tag_154\n      jump\t// in\n    tag_153:\n      mload(0x40)\n      dup1\n      swap2\n      sub\n      swap1\n      revert\n    tag_152:\n        /* \"contracts/Staking/ERC20_flattened.sol\":14600:14601  0 */\n      0x00\n        /* \"contracts/Staking/ERC20_flattened.sol\":14586:14602  to != address(0) */\n      0xffffffffffffffffffffffffffffffffffffffff\n      and\n        /* \"contracts/Staking/ERC20_flattened.sol\":14586:14588  to */\n      dup3\n        /* \"contracts/Staking/ERC20_flattened.sol\":14586:14602  to != address(0) */\n      0xffffffffffffffffffffffffffffffffffffffff\n      and\n      sub\n        /* \"contracts/Staking/ERC20_flattened.sol\":14578:14642  require(to != address(0), \"ERC20: transfer to the zero address\") */\n      tag_155\n      jumpi\n      mload(0x40)\n      0x08c379a000000000000000000000000000000000000000000000000000000000\n      dup2\n      mstore\n      0x04\n      add\n      tag_156\n      swap1\n      tag_157\n      jump\t// in\n    tag_156:\n      mload(0x40)\n      dup1\n      swap2\n      sub\n      swap1\n      revert\n    tag_155:\n        /* \"contracts/Staking/ERC20_flattened.sol\":14653:14691  _beforeTokenTransfer(from, to, amount) */\n      tag_158\n        /* \"contracts/Staking/ERC20_flattened.sol\":14674:14678  from */\n      dup4\n        /* \"contracts/Staking/ERC20_flattened.sol\":14680:14682  to */\n      dup4\n        /* \"contracts/Staking/ERC20_flattened.sol\":14684:14690  amount */\n      dup4\n        /* \"contracts/Staking/ERC20_flattened.sol\":14653:14673  _beforeTokenTransfer */\n      tag_159\n        /* \"contracts/Staking/ERC20_flattened.sol\":14653:14691  _beforeTokenTransfer(from, to, amount) */\n      jump\t// in\n    tag_158:\n        /* \"contracts/Staking/ERC20_flattened.sol\":14702:14721  uint256 fromBalance */\n      0x00\n        /* \"contracts/Staking/ERC20_flattened.sol\":14724:14733  _balances */\n      dup1\n        /* \"contracts/Staking/ERC20_flattened.sol\":14724:14739  _balances[from] */\n      0x00\n        /* \"contracts/Staking/ERC20_flattened.sol\":14734:14738  from */\n      dup6\n        /* \"contracts/Staking/ERC20_flattened.sol\":14724:14739  _balances[from] */\n      0xffffffffffffffffffffffffffffffffffffffff\n      and\n      0xffffffffffffffffffffffffffffffffffffffff\n      and\n      dup2\n      mstore\n      0x20\n      add\n      swap1\n      dup2\n      mstore\n      0x20\n      add\n      0x00\n      keccak256\n      sload\n        /* \"contracts/Staking/ERC20_flattened.sol\":14702:14739  uint256 fromBalance = _balances[from] */\n      swap1\n      pop\n        /* \"contracts/Staking/ERC20_flattened.sol\":14772:14778  amount */\n      dup2\n        /* \"contracts/Staking/ERC20_flattened.sol\":14757:14768  fromBalance */\n      dup2\n        /* \"contracts/Staking/ERC20_flattened.sol\":14757:14778  fromBalance >= amount */\n      lt\n      iszero\n        /* \"contracts/Staking/ERC20_flattened.sol\":14749:14821  require(fromBalance >= amount, \"ERC20: transfer amount exceeds balance\") */\n      tag_160\n      jumpi\n      mload(0x40)\n      0x08c379a000000000000000000000000000000000000000000000000000000000\n      dup2\n      mstore\n      0x04\n      add\n      tag_161\n      swap1\n      tag_162\n      jump\t// in\n    tag_161:\n      mload(0x40)\n      dup1\n      swap2\n      sub\n      swap1\n      revert\n    tag_160:\n        /* \"contracts/Staking/ERC20_flattened.sol\":14887:14893  amount */\n      dup2\n        /* \"contracts/Staking/ERC20_flattened.sol\":14873:14884  fromBalance */\n      dup2\n        /* \"contracts/Staking/ERC20_flattened.sol\":14873:14893  fromBalance - amount */\n      sub\n        /* \"contracts/Staking/ERC20_flattened.sol\":14855:14864  _balances */\n      0x00\n        /* \"contracts/Staking/ERC20_flattened.sol\":14855:14870  _balances[from] */\n      dup1\n        /* \"contracts/Staking/ERC20_flattened.sol\":14865:14869  from */\n      dup7\n        /* \"contracts/Staking/ERC20_flattened.sol\":14855:14870  _balances[from] */\n      0xffffffffffffffffffffffffffffffffffffffff\n      and\n      0xffffffffffffffffffffffffffffffffffffffff\n      and\n      dup2\n      mstore\n      0x20\n      add\n      swap1\n      dup2\n      mstore\n      0x20\n      add\n      0x00\n      keccak256\n        /* \"contracts/Staking/ERC20_flattened.sol\":14855:14893  _balances[from] = fromBalance - amount */\n      dup2\n      swap1\n      sstore\n      pop\n        /* \"contracts/Staking/ERC20_flattened.sol\":15087:15093  amount */\n      dup2\n        /* \"contracts/Staking/ERC20_flattened.sol\":15070:15079  _balances */\n      0x00\n        /* \"contracts/Staking/ERC20_flattened.sol\":15070:15083  _balances[to] */\n      dup1\n        /* \"contracts/Staking/ERC20_flattened.sol\":15080:15082  to */\n      dup6\n        /* \"contracts/Staking/ERC20_flattened.sol\":15070:15083  _balances[to] */\n      0xffffffffffffffffffffffffffffffffffffffff\n      and\n      0xffffffffffffffffffffffffffffffffffffffff\n      and\n      dup2\n      mstore\n      0x20\n      add\n      swap1\n      dup2\n      mstore\n      0x20\n      add\n      0x00\n      keccak256\n      0x00\n        /* \"contracts/Staking/ERC20_flattened.sol\":15070:15093  _balances[to] += amount */\n      dup3\n      dup3\n      sload\n      add\n      swap3\n      pop\n      pop\n      dup2\n      swap1\n      sstore\n      pop\n        /* \"contracts/Staking/ERC20_flattened.sol\":15134:15136  to */\n      dup3\n        /* \"contracts/Staking/ERC20_flattened.sol\":15119:15145  Transfer(from, to, amount) */\n      0xffffffffffffffffffffffffffffffffffffffff\n      and\n        /* \"contracts/Staking/ERC20_flattened.sol\":15128:15132  from */\n      dup5\n        /* \"contracts/Staking/ERC20_flattened.sol\":15119:15145  Transfer(from, to, amount) */\n      0xffffffffffffffffffffffffffffffffffffffff\n      and\n      0xddf252ad1be2c89b69c2b068fc378daa952ba7f163c4a11628f55a4df523b3ef\n        /* \"contracts/Staking/ERC20_flattened.sol\":15138:15144  amount */\n      dup5\n        /* \"contracts/Staking/ERC20_flattened.sol\":15119:15145  Transfer(from, to, amount) */\n      mload(0x40)\n      tag_163\n      swap2\n      swap1\n      tag_33\n      jump\t// in\n    tag_163:\n      mload(0x40)\n      dup1\n      swap2\n      sub\n      swap1\n      log3\n        /* \"contracts/Staking/ERC20_flattened.sol\":15156:15193  _afterTokenTransfer(from, to, amount) */\n      tag_164\n        /* \"contracts/Staking/ERC20_flattened.sol\":15176:15180  from */\n      dup5\n        /* \"contracts/Staking/ERC20_flattened.sol\":15182:15184  to */\n      dup5\n        /* \"contracts/Staking/ERC20_flattened.sol\":15186:15192  amount */\n      dup5\n        /* \"contracts/Staking/ERC20_flattened.sol\":15156:15175  _afterTokenTransfer */\n      tag_165\n        /* \"contracts/Staking/ERC20_flattened.sol\":15156:15193  _afterTokenTransfer(from, to, amount) */\n      jump\t// in\n    tag_164:\n        /* \"contracts/Staking/ERC20_flattened.sol\":14490:15200  {... */\n      pop\n        /* \"contracts/Staking/ERC20_flattened.sol\":14382:15200  function _transfer(... */\n      pop\n      pop\n      pop\n      jump\t// out\n        /* \"contracts/Staking/ERC20_flattened.sol\":2217:2347  function _checkOwner() internal view virtual {... */\n    tag_106:\n        /* \"contracts/Staking/ERC20_flattened.sol\":2291:2303  _msgSender() */\n      tag_167\n        /* \"contracts/Staking/ERC20_flattened.sol\":2291:2301  _msgSender */\n      tag_86\n        /* \"contracts/Staking/ERC20_flattened.sol\":2291:2303  _msgSender() */\n      jump\t// in\n    tag_167:\n        /* \"contracts/Staking/ERC20_flattened.sol\":2280:2303  owner() == _msgSender() */\n      0xffffffffffffffffffffffffffffffffffffffff\n      and\n        /* \"contracts/Staking/ERC20_flattened.sol\":2280:2287  owner() */\n      tag_168\n        /* \"contracts/Staking/ERC20_flattened.sol\":2280:2285  owner */\n      tag_55\n        /* \"contracts/Staking/ERC20_flattened.sol\":2280:2287  owner() */\n      jump\t// in\n    tag_168:\n        /* \"contracts/Staking/ERC20_flattened.sol\":2280:2303  owner() == _msgSender() */\n      0xffffffffffffffffffffffffffffffffffffffff\n      and\n      eq\n        /* \"contracts/Staking/ERC20_flattened.sol\":2272:2340  require(owner() == _msgSender(), \"Ownable: caller is not the owner\") */\n      tag_169\n      jumpi\n      mload(0x40)\n      0x08c379a000000000000000000000000000000000000000000000000000000000\n      dup2\n      mstore\n      0x04\n      add\n      tag_170\n      swap1\n      tag_171\n      jump\t// in\n    tag_170:\n      mload(0x40)\n      dup1\n      swap2\n      sub\n      swap1\n      revert\n    tag_169:\n        /* \"contracts/Staking/ERC20_flattened.sol\":2217:2347  function _checkOwner() internal view virtual {... */\n      jump\t// out\n        /* \"contracts/Staking/ERC20_flattened.sol\":3291:3478  function _transferOwnership(address newOwner) internal virtual {... */\n    tag_109:\n        /* \"contracts/Staking/ERC20_flattened.sol\":3364:3380  address oldOwner */\n      0x00\n        /* \"contracts/Staking/ERC20_flattened.sol\":3383:3389  _owner */\n      0x05\n      0x00\n      swap1\n      sload\n      swap1\n      0x0100\n      exp\n      swap1\n      div\n      0xffffffffffffffffffffffffffffffffffffffff\n      and\n        /* \"contracts/Staking/ERC20_flattened.sol\":3364:3389  address oldOwner = _owner */\n      swap1\n      pop\n        /* \"contracts/Staking/ERC20_flattened.sol\":3408:3416  newOwner */\n      dup2\n        /* \"contracts/Staking/ERC20_flattened.sol\":3399:3405  _owner */\n      0x05\n      0x00\n        /* \"contracts/Staking/ERC20_flattened.sol\":3399:3416  _owner = newOwner */\n      0x0100\n      exp\n      dup2\n      sload\n      dup2\n      0xffffffffffffffffffffffffffffffffffffffff\n      mul\n      not\n      and\n      swap1\n      dup4\n      0xffffffffffffffffffffffffffffffffffffffff\n      and\n      mul\n      or\n      swap1\n      sstore\n      pop\n        /* \"contracts/Staking/ERC20_flattened.sol\":3462:3470  newOwner */\n      dup2\n        /* \"contracts/Staking/ERC20_flattened.sol\":3431:3471  OwnershipTransferred(oldOwner, newOwner) */\n      0xffffffffffffffffffffffffffffffffffffffff\n      and\n        /* \"contracts/Staking/ERC20_flattened.sol\":3452:3460  oldOwner */\n      dup2\n        /* \"contracts/Staking/ERC20_flattened.sol\":3431:3471  OwnershipTransferred(oldOwner, newOwner) */\n      0xffffffffffffffffffffffffffffffffffffffff\n      and\n      0x8be0079c531659141344cd1fd0a4f28419497f9722a3daafe3b4186f6b6457e0\n      mload(0x40)\n      mload(0x40)\n      dup1\n      swap2\n      sub\n      swap1\n      log3\n        /* \"contracts/Staking/ERC20_flattened.sol\":3354:3478  {... */\n      pop\n        /* \"contracts/Staking/ERC20_flattened.sol\":3291:3478  function _transferOwnership(address newOwner) internal virtual {... */\n      pop\n      jump\t// out\n        /* \"contracts/Staking/ERC20_flattened.sol\":19089:19210  function _beforeTokenTransfer(... */\n    tag_159:\n      pop\n      pop\n      pop\n      jump\t// out\n        /* \"contracts/Staking/ERC20_flattened.sol\":19798:19918  function _afterTokenTransfer(... */\n    tag_165:\n      pop\n      pop\n      pop\n      jump\t// out\n        /* \"#utility.yul\":7:106   */\n    tag_175:\n        /* \"#utility.yul\":59:65   */\n      0x00\n        /* \"#utility.yul\":93:98   */\n      dup2\n        /* \"#utility.yul\":87:99   */\n      mload\n        /* \"#utility.yul\":77:99   */\n      swap1\n      pop\n        /* \"#utility.yul\":7:106   */\n      swap2\n      swap1\n      pop\n      jump\t// out\n        /* \"#utility.yul\":112:281   */\n    tag_176:\n        /* \"#utility.yul\":196:207   */\n      0x00\n        /* \"#utility.yul\":230:236   */\n      dup3\n        /* \"#utility.yul\":225:228   */\n      dup3\n        /* \"#utility.yul\":218:237   */\n      mstore\n        /* \"#utility.yul\":270:274   */\n      0x20\n        /* \"#utility.yul\":265:268   */\n      dup3\n        /* \"#utility.yul\":261:275   */\n      add\n        /* \"#utility.yul\":246:275   */\n      swap1\n      pop\n        /* \"#utility.yul\":112:281   */\n      swap3\n      swap2\n      pop\n      pop\n      jump\t// out\n        /* \"#utility.yul\":287:533   */\n    tag_177:\n        /* \"#utility.yul\":368:369   */\n      0x00\n        /* \"#utility.yul\":378:491   */\n    tag_220:\n        /* \"#utility.yul\":392:398   */\n      dup4\n        /* \"#utility.yul\":389:390   */\n      dup2\n        /* \"#utility.yul\":386:399   */\n      lt\n        /* \"#utility.yul\":378:491   */\n      iszero\n      tag_222\n      jumpi\n        /* \"#utility.yul\":477:478   */\n      dup1\n        /* \"#utility.yul\":472:475   */\n      dup3\n        /* \"#utility.yul\":468:479   */\n      add\n        /* \"#utility.yul\":462:480   */\n      mload\n        /* \"#utility.yul\":458:459   */\n      dup2\n        /* \"#utility.yul\":453:456   */\n      dup5\n        /* \"#utility.yul\":449:460   */\n      add\n        /* \"#utility.yul\":442:481   */\n      mstore\n        /* \"#utility.yul\":414:416   */\n      0x20\n        /* \"#utility.yul\":411:412   */\n      dup2\n        /* \"#utility.yul\":407:417   */\n      add\n        /* \"#utility.yul\":402:417   */\n      swap1\n      pop\n        /* \"#utility.yul\":378:491   */\n      jump(tag_220)\n    tag_222:\n        /* \"#utility.yul\":525:526   */\n      0x00\n        /* \"#utility.yul\":516:522   */\n      dup5\n        /* \"#utility.yul\":511:514   */\n      dup5\n        /* \"#utility.yul\":507:523   */\n      add\n        /* \"#utility.yul\":500:527   */\n      mstore\n        /* \"#utility.yul\":349:533   */\n      pop\n        /* \"#utility.yul\":287:533   */\n      pop\n      pop\n      pop\n      jump\t// out\n        /* \"#utility.yul\":539:641   */\n    tag_178:\n        /* \"#utility.yul\":580:586   */\n      0x00\n        /* \"#utility.yul\":631:633   */\n      0x1f\n        /* \"#utility.yul\":627:634   */\n      not\n        /* \"#utility.yul\":622:624   */\n      0x1f\n        /* \"#utility.yul\":615:620   */\n      dup4\n        /* \"#utility.yul\":611:625   */\n      add\n        /* \"#utility.yul\":607:635   */\n      and\n        /* \"#utility.yul\":597:635   */\n      swap1\n      pop\n        /* \"#utility.yul\":539:641   */\n      swap2\n      swap1\n      pop\n      jump\t// out\n        /* \"#utility.yul\":647:1024   */\n    tag_179:\n        /* \"#utility.yul\":735:738   */\n      0x00\n        /* \"#utility.yul\":763:802   */\n      tag_225\n        /* \"#utility.yul\":796:801   */\n      dup3\n        /* \"#utility.yul\":763:802   */\n      tag_175\n      jump\t// in\n    tag_225:\n        /* \"#utility.yul\":818:889   */\n      tag_226\n        /* \"#utility.yul\":882:888   */\n      dup2\n        /* \"#utility.yul\":877:880   */\n      dup6\n        /* \"#utility.yul\":818:889   */\n      tag_176\n      jump\t// in\n    tag_226:\n        /* \"#utility.yul\":811:889   */\n      swap4\n      pop\n        /* \"#utility.yul\":898:963   */\n      tag_227\n        /* \"#utility.yul\":956:962   */\n      dup2\n        /* \"#utility.yul\":951:954   */\n      dup6\n        /* \"#utility.yul\":944:948   */\n      0x20\n        /* \"#utility.yul\":937:942   */\n      dup7\n        /* \"#utility.yul\":933:949   */\n      add\n        /* \"#utility.yul\":898:963   */\n      tag_177\n      jump\t// in\n    tag_227:\n        /* \"#utility.yul\":988:1017   */\n      tag_228\n        /* \"#utility.yul\":1010:1016   */\n      dup2\n        /* \"#utility.yul\":988:1017   */\n      tag_178\n      jump\t// in\n    tag_228:\n        /* \"#utility.yul\":983:986   */\n      dup5\n        /* \"#utility.yul\":979:1018   */\n      add\n        /* \"#utility.yul\":972:1018   */\n      swap2\n      pop\n        /* \"#utility.yul\":739:1024   */\n      pop\n        /* \"#utility.yul\":647:1024   */\n      swap3\n      swap2\n      pop\n      pop\n      jump\t// out\n        /* \"#utility.yul\":1030:1343   */\n    tag_23:\n        /* \"#utility.yul\":1143:1147   */\n      0x00\n        /* \"#utility.yul\":1181:1183   */\n      0x20\n        /* \"#utility.yul\":1170:1179   */\n      dup3\n        /* \"#utility.yul\":1166:1184   */\n      add\n        /* \"#utility.yul\":1158:1184   */\n      swap1\n      pop\n        /* \"#utility.yul\":1230:1239   */\n      dup2\n        /* \"#utility.yul\":1224:1228   */\n      dup2\n        /* \"#utility.yul\":1220:1240   */\n      sub\n        /* \"#utility.yul\":1216:1217   */\n      0x00\n        /* \"#utility.yul\":1205:1214   */\n      dup4\n        /* \"#utility.yul\":1201:1218   */\n      add\n        /* \"#utility.yul\":1194:1241   */\n      mstore\n        /* \"#utility.yul\":1258:1336   */\n      tag_230\n        /* \"#utility.yul\":1331:1335   */\n      dup2\n        /* \"#utility.yul\":1322:1328   */\n      dup5\n        /* \"#utility.yul\":1258:1336   */\n      tag_179\n      jump\t// in\n    tag_230:\n        /* \"#utility.yul\":1250:1336   */\n      swap1\n      pop\n        /* \"#utility.yul\":1030:1343   */\n      swap3\n      swap2\n      pop\n      pop\n      jump\t// out\n        /* \"#utility.yul\":1430:1547   */\n    tag_181:\n        /* \"#utility.yul\":1539:1540   */\n      0x00\n        /* \"#utility.yul\":1536:1537   */\n      dup1\n        /* \"#utility.yul\":1529:1541   */\n      revert\n        /* \"#utility.yul\":1676:1802   */\n    tag_183:\n        /* \"#utility.yul\":1713:1720   */\n      0x00\n        /* \"#utility.yul\":1753:1795   */\n      0xffffffffffffffffffffffffffffffffffffffff\n        /* \"#utility.yul\":1746:1751   */\n      dup3\n        /* \"#utility.yul\":1742:1796   */\n      and\n        /* \"#utility.yul\":1731:1796   */\n      swap1\n      pop\n        /* \"#utility.yul\":1676:1802   */\n      swap2\n      swap1\n      pop\n      jump\t// out\n        /* \"#utility.yul\":1808:1904   */\n    tag_184:\n        /* \"#utility.yul\":1845:1852   */\n      0x00\n        /* \"#utility.yul\":1874:1898   */\n      tag_236\n        /* \"#utility.yul\":1892:1897   */\n      dup3\n        /* \"#utility.yul\":1874:1898   */\n      tag_183\n      jump\t// in\n    tag_236:\n        /* \"#utility.yul\":1863:1898   */\n      swap1\n      pop\n        /* \"#utility.yul\":1808:1904   */\n      swap2\n      swap1\n      pop\n      jump\t// out\n        /* \"#utility.yul\":1910:2032   */\n    tag_185:\n        /* \"#utility.yul\":1983:2007   */\n      tag_238\n        /* \"#utility.yul\":2001:2006   */\n      dup2\n        /* \"#utility.yul\":1983:2007   */\n      tag_184\n      jump\t// in\n    tag_238:\n        /* \"#utility.yul\":1976:1981   */\n      dup2\n        /* \"#utility.yul\":1973:2008   */\n      eq\n        /* \"#utility.yul\":1963:2026   */\n      tag_239\n      jumpi\n        /* \"#utility.yul\":2022:2023   */\n      0x00\n        /* \"#utility.yul\":2019:2020   */\n      dup1\n        /* \"#utility.yul\":2012:2024   */\n      revert\n        /* \"#utility.yul\":1963:2026   */\n    tag_239:\n        /* \"#utility.yul\":1910:2032   */\n      pop\n      jump\t// out\n        /* \"#utility.yul\":2038:2177   */\n    tag_186:\n        /* \"#utility.yul\":2084:2089   */\n      0x00\n        /* \"#utility.yul\":2122:2128   */\n      dup2\n        /* \"#utility.yul\":2109:2129   */\n      calldataload\n        /* \"#utility.yul\":2100:2129   */\n      swap1\n      pop\n        /* \"#utility.yul\":2138:2171   */\n      tag_241\n        /* \"#utility.yul\":2165:2170   */\n      dup2\n        /* \"#utility.yul\":2138:2171   */\n      tag_185\n      jump\t// in\n    tag_241:\n        /* \"#utility.yul\":2038:2177   */\n      swap3\n      swap2\n      pop\n      pop\n      jump\t// out\n        /* \"#utility.yul\":2183:2260   */\n    tag_187:\n        /* \"#utility.yul\":2220:2227   */\n      0x00\n        /* \"#utility.yul\":2249:2254   */\n      dup2\n        /* \"#utility.yul\":2238:2254   */\n      swap1\n      pop\n        /* \"#utility.yul\":2183:2260   */\n      swap2\n      swap1\n      pop\n      jump\t// out\n        /* \"#utility.yul\":2266:2388   */\n    tag_188:\n        /* \"#utility.yul\":2339:2363   */\n      tag_244\n        /* \"#utility.yul\":2357:2362   */\n      dup2\n        /* \"#utility.yul\":2339:2363   */\n      tag_187\n      jump\t// in\n    tag_244:\n        /* \"#utility.yul\":2332:2337   */\n      dup2\n        /* \"#utility.yul\":2329:2364   */\n      eq\n        /* \"#utility.yul\":2319:2382   */\n      tag_245\n      jumpi\n        /* \"#utility.yul\":2378:2379   */\n      0x00\n        /* \"#utility.yul\":2375:2376   */\n      dup1\n        /* \"#utility.yul\":2368:2380   */\n      revert\n        /* \"#utility.yul\":2319:2382   */\n    tag_245:\n        /* \"#utility.yul\":2266:2388   */\n      pop\n      jump\t// out\n        /* \"#utility.yul\":2394:2533   */\n    tag_189:\n        /* \"#utility.yul\":2440:2445   */\n      0x00\n        /* \"#utility.yul\":2478:2484   */\n      dup2\n        /* \"#utility.yul\":2465:2485   */\n      calldataload\n        /* \"#utility.yul\":2456:2485   */\n      swap1\n      pop\n        /* \"#utility.yul\":2494:2527   */\n      tag_247\n        /* \"#utility.yul\":2521:2526   */\n      dup2\n        /* \"#utility.yul\":2494:2527   */\n      tag_188\n      jump\t// in\n    tag_247:\n        /* \"#utility.yul\":2394:2533   */\n      swap3\n      swap2\n      pop\n      pop\n      jump\t// out\n        /* \"#utility.yul\":2539:3013   */\n    tag_26:\n        /* \"#utility.yul\":2607:2613   */\n      0x00\n        /* \"#utility.yul\":2615:2621   */\n      dup1\n        /* \"#utility.yul\":2664:2666   */\n      0x40\n        /* \"#utility.yul\":2652:2661   */\n      dup4\n        /* \"#utility.yul\":2643:2650   */\n      dup6\n        /* \"#utility.yul\":2639:2662   */\n      sub\n        /* \"#utility.yul\":2635:2667   */\n      slt\n        /* \"#utility.yul\":2632:2751   */\n      iszero\n      tag_249\n      jumpi\n        /* \"#utility.yul\":2670:2749   */\n      tag_250\n      tag_181\n      jump\t// in\n    tag_250:\n        /* \"#utility.yul\":2632:2751   */\n    tag_249:\n        /* \"#utility.yul\":2790:2791   */\n      0x00\n        /* \"#utility.yul\":2815:2868   */\n      tag_251\n        /* \"#utility.yul\":2860:2867   */\n      dup6\n        /* \"#utility.yul\":2851:2857   */\n      dup3\n        /* \"#utility.yul\":2840:2849   */\n      dup7\n        /* \"#utility.yul\":2836:2858   */\n      add\n        /* \"#utility.yul\":2815:2868   */\n      tag_186\n      jump\t// in\n    tag_251:\n        /* \"#utility.yul\":2805:2868   */\n      swap3\n      pop\n        /* \"#utility.yul\":2761:2878   */\n      pop\n        /* \"#utility.yul\":2917:2919   */\n      0x20\n        /* \"#utility.yul\":2943:2996   */\n      tag_252\n        /* \"#utility.yul\":2988:2995   */\n      dup6\n        /* \"#utility.yul\":2979:2985   */\n      dup3\n        /* \"#utility.yul\":2968:2977   */\n      dup7\n        /* \"#utility.yul\":2964:2986   */\n      add\n        /* \"#utility.yul\":2943:2996   */\n      tag_189\n      jump\t// in\n    tag_252:\n        /* \"#utility.yul\":2933:2996   */\n      swap2\n      pop\n        /* \"#utility.yul\":2888:3006   */\n      pop\n        /* \"#utility.yul\":2539:3013   */\n      swap3\n      pop\n      swap3\n      swap1\n      pop\n      jump\t// out\n        /* \"#utility.yul\":3019:3109   */\n    tag_190:\n        /* \"#utility.yul\":3053:3060   */\n      0x00\n        /* \"#utility.yul\":3096:3101   */\n      dup2\n        /* \"#utility.yul\":3089:3102   */\n      iszero\n        /* \"#utility.yul\":3082:3103   */\n      iszero\n        /* \"#utility.yul\":3071:3103   */\n      swap1\n      pop\n        /* \"#utility.yul\":3019:3109   */\n      swap2\n      swap1\n      pop\n      jump\t// out\n        /* \"#utility.yul\":3115:3224   */\n    tag_191:\n        /* \"#utility.yul\":3196:3217   */\n      tag_255\n        /* \"#utility.yul\":3211:3216   */\n      dup2\n        /* \"#utility.yul\":3196:3217   */\n      tag_190\n      jump\t// in\n    tag_255:\n        /* \"#utility.yul\":3191:3194   */\n      dup3\n        /* \"#utility.yul\":3184:3218   */\n      mstore\n        /* \"#utility.yul\":3115:3224   */\n      pop\n      pop\n      jump\t// out\n        /* \"#utility.yul\":3230:3440   */\n    tag_29:\n        /* \"#utility.yul\":3317:3321   */\n      0x00\n        /* \"#utility.yul\":3355:3357   */\n      0x20\n        /* \"#utility.yul\":3344:3353   */\n      dup3\n        /* \"#utility.yul\":3340:3358   */\n      add\n        /* \"#utility.yul\":3332:3358   */\n      swap1\n      pop\n        /* \"#utility.yul\":3368:3433   */\n      tag_257\n        /* \"#utility.yul\":3430:3431   */\n      0x00\n        /* \"#utility.yul\":3419:3428   */\n      dup4\n        /* \"#utility.yul\":3415:3432   */\n      add\n        /* \"#utility.yul\":3406:3412   */\n      dup5\n        /* \"#utility.yul\":3368:3433   */\n      tag_191\n      jump\t// in\n    tag_257:\n        /* \"#utility.yul\":3230:3440   */\n      swap3\n      swap2\n      pop\n      pop\n      jump\t// out\n        /* \"#utility.yul\":3446:3564   */\n    tag_192:\n        /* \"#utility.yul\":3533:3557   */\n      tag_259\n        /* \"#utility.yul\":3551:3556   */\n      dup2\n        /* \"#utility.yul\":3533:3557   */\n      tag_187\n      jump\t// in\n    tag_259:\n        /* \"#utility.yul\":3528:3531   */\n      dup3\n        /* \"#utility.yul\":3521:3558   */\n      mstore\n        /* \"#utility.yul\":3446:3564   */\n      pop\n      pop\n      jump\t// out\n        /* \"#utility.yul\":3570:3792   */\n    tag_33:\n        /* \"#utility.yul\":3663:3667   */\n      0x00\n        /* \"#utility.yul\":3701:3703   */\n      0x20\n        /* \"#utility.yul\":3690:3699   */\n      dup3\n        /* \"#utility.yul\":3686:3704   */\n      add\n        /* \"#utility.yul\":3678:3704   */\n      swap1\n      pop\n        /* \"#utility.yul\":3714:3785   */\n      tag_261\n        /* \"#utility.yul\":3782:3783   */\n      0x00\n        /* \"#utility.yul\":3771:3780   */\n      dup4\n        /* \"#utility.yul\":3767:3784   */\n      add\n        /* \"#utility.yul\":3758:3764   */\n      dup5\n        /* \"#utility.yul\":3714:3785   */\n      tag_192\n      jump\t// in\n    tag_261:\n        /* \"#utility.yul\":3570:3792   */\n      swap3\n      swap2\n      pop\n      pop\n      jump\t// out\n        /* \"#utility.yul\":3798:4417   */\n    tag_36:\n        /* \"#utility.yul\":3875:3881   */\n      0x00\n        /* \"#utility.yul\":3883:3889   */\n      dup1\n        /* \"#utility.yul\":3891:3897   */\n      0x00\n        /* \"#utility.yul\":3940:3942   */\n      0x60\n        /* \"#utility.yul\":3928:3937   */\n      dup5\n        /* \"#utility.yul\":3919:3926   */\n      dup7\n        /* \"#utility.yul\":3915:3938   */\n      sub\n        /* \"#utility.yul\":3911:3943   */\n      slt\n        /* \"#utility.yul\":3908:4027   */\n      iszero\n      tag_263\n      jumpi\n        /* \"#utility.yul\":3946:4025   */\n      tag_264\n      tag_181\n      jump\t// in\n    tag_264:\n        /* \"#utility.yul\":3908:4027   */\n    tag_263:\n        /* \"#utility.yul\":4066:4067   */\n      0x00\n        /* \"#utility.yul\":4091:4144   */\n      tag_265\n        /* \"#utility.yul\":4136:4143   */\n      dup7\n        /* \"#utility.yul\":4127:4133   */\n      dup3\n        /* \"#utility.yul\":4116:4125   */\n      dup8\n        /* \"#utility.yul\":4112:4134   */\n      add\n        /* \"#utility.yul\":4091:4144   */\n      tag_186\n      jump\t// in\n    tag_265:\n        /* \"#utility.yul\":4081:4144   */\n      swap4\n      pop\n        /* \"#utility.yul\":4037:4154   */\n      pop\n        /* \"#utility.yul\":4193:4195   */\n      0x20\n        /* \"#utility.yul\":4219:4272   */\n      tag_266\n        /* \"#utility.yul\":4264:4271   */\n      dup7\n        /* \"#utility.yul\":4255:4261   */\n      dup3\n        /* \"#utility.yul\":4244:4253   */\n      dup8\n        /* \"#utility.yul\":4240:4262   */\n      add\n        /* \"#utility.yul\":4219:4272   */\n      tag_186\n      jump\t// in\n    tag_266:\n        /* \"#utility.yul\":4209:4272   */\n      swap3\n      pop\n        /* \"#utility.yul\":4164:4282   */\n      pop\n        /* \"#utility.yul\":4321:4323   */\n      0x40\n        /* \"#utility.yul\":4347:4400   */\n      tag_267\n        /* \"#utility.yul\":4392:4399   */\n      dup7\n        /* \"#utility.yul\":4383:4389   */\n      dup3\n        /* \"#utility.yul\":4372:4381   */\n      dup8\n        /* \"#utility.yul\":4368:4390   */\n      add\n        /* \"#utility.yul\":4347:4400   */\n      tag_189\n      jump\t// in\n    tag_267:\n        /* \"#utility.yul\":4337:4400   */\n      swap2\n      pop\n        /* \"#utility.yul\":4292:4410   */\n      pop\n        /* \"#utility.yul\":3798:4417   */\n      swap3\n      pop\n      swap3\n      pop\n      swap3\n      jump\t// out\n        /* \"#utility.yul\":4423:4509   */\n    tag_193:\n        /* \"#utility.yul\":4458:4465   */\n      0x00\n        /* \"#utility.yul\":4498:4502   */\n      0xff\n        /* \"#utility.yul\":4491:4496   */\n      dup3\n        /* \"#utility.yul\":4487:4503   */\n      and\n        /* \"#utility.yul\":4476:4503   */\n      swap1\n      pop\n        /* \"#utility.yul\":4423:4509   */\n      swap2\n      swap1\n      pop\n      jump\t// out\n        /* \"#utility.yul\":4515:4627   */\n    tag_194:\n        /* \"#utility.yul\":4598:4620   */\n      tag_270\n        /* \"#utility.yul\":4614:4619   */\n      dup2\n        /* \"#utility.yul\":4598:4620   */\n      tag_193\n      jump\t// in\n    tag_270:\n        /* \"#utility.yul\":4593:4596   */\n      dup3\n        /* \"#utility.yul\":4586:4621   */\n      mstore\n        /* \"#utility.yul\":4515:4627   */\n      pop\n      pop\n      jump\t// out\n        /* \"#utility.yul\":4633:4847   */\n    tag_42:\n        /* \"#utility.yul\":4722:4726   */\n      0x00\n        /* \"#utility.yul\":4760:4762   */\n      0x20\n        /* \"#utility.yul\":4749:4758   */\n      dup3\n        /* \"#utility.yul\":4745:4763   */\n      add\n        /* \"#utility.yul\":4737:4763   */\n      swap1\n      pop\n        /* \"#utility.yul\":4773:4840   */\n      tag_272\n        /* \"#utility.yul\":4837:4838   */\n      0x00\n        /* \"#utility.yul\":4826:4835   */\n      dup4\n        /* \"#utility.yul\":4822:4839   */\n      add\n        /* \"#utility.yul\":4813:4819   */\n      dup5\n        /* \"#utility.yul\":4773:4840   */\n      tag_194\n      jump\t// in\n    tag_272:\n        /* \"#utility.yul\":4633:4847   */\n      swap3\n      swap2\n      pop\n      pop\n      jump\t// out\n        /* \"#utility.yul\":4853:5182   */\n    tag_49:\n        /* \"#utility.yul\":4912:4918   */\n      0x00\n        /* \"#utility.yul\":4961:4963   */\n      0x20\n        /* \"#utility.yul\":4949:4958   */\n      dup3\n        /* \"#utility.yul\":4940:4947   */\n      dup5\n        /* \"#utility.yul\":4936:4959   */\n      sub\n        /* \"#utility.yul\":4932:4964   */\n      slt\n        /* \"#utility.yul\":4929:5048   */\n      iszero\n      tag_274\n      jumpi\n        /* \"#utility.yul\":4967:5046   */\n      tag_275\n      tag_181\n      jump\t// in\n    tag_275:\n        /* \"#utility.yul\":4929:5048   */\n    tag_274:\n        /* \"#utility.yul\":5087:5088   */\n      0x00\n        /* \"#utility.yul\":5112:5165   */\n      tag_276\n        /* \"#utility.yul\":5157:5164   */\n      dup5\n        /* \"#utility.yul\":5148:5154   */\n      dup3\n        /* \"#utility.yul\":5137:5146   */\n      dup6\n        /* \"#utility.yul\":5133:5155   */\n      add\n        /* \"#utility.yul\":5112:5165   */\n      tag_186\n      jump\t// in\n    tag_276:\n        /* \"#utility.yul\":5102:5165   */\n      swap2\n      pop\n        /* \"#utility.yul\":5058:5175   */\n      pop\n        /* \"#utility.yul\":4853:5182   */\n      swap3\n      swap2\n      pop\n      pop\n      jump\t// out\n        /* \"#utility.yul\":5188:5306   */\n    tag_195:\n        /* \"#utility.yul\":5275:5299   */\n      tag_278\n        /* \"#utility.yul\":5293:5298   */\n      dup2\n        /* \"#utility.yul\":5275:5299   */\n      tag_184\n      jump\t// in\n    tag_278:\n        /* \"#utility.yul\":5270:5273   */\n      dup3\n        /* \"#utility.yul\":5263:5300   */\n      mstore\n        /* \"#utility.yul\":5188:5306   */\n      pop\n      pop\n      jump\t// out\n        /* \"#utility.yul\":5312:5534   */\n    tag_57:\n        /* \"#utility.yul\":5405:5409   */\n      0x00\n        /* \"#utility.yul\":5443:5445   */\n      0x20\n        /* \"#utility.yul\":5432:5441   */\n      dup3\n        /* \"#utility.yul\":5428:5446   */\n      add\n        /* \"#utility.yul\":5420:5446   */\n      swap1\n      pop\n        /* \"#utility.yul\":5456:5527   */\n      tag_280\n        /* \"#utility.yul\":5524:5525   */\n      0x00\n        /* \"#utility.yul\":5513:5522   */\n      dup4\n        /* \"#utility.yul\":5509:5526   */\n      add\n        /* \"#utility.yul\":5500:5506   */\n      dup5\n        /* \"#utility.yul\":5456:5527   */\n      tag_195\n      jump\t// in\n    tag_280:\n        /* \"#utility.yul\":5312:5534   */\n      swap3\n      swap2\n      pop\n      pop\n      jump\t// out\n        /* \"#utility.yul\":5540:6014   */\n    tag_71:\n        /* \"#utility.yul\":5608:5614   */\n      0x00\n        /* \"#utility.yul\":5616:5622   */\n      dup1\n        /* \"#utility.yul\":5665:5667   */\n      0x40\n        /* \"#utility.yul\":5653:5662   */\n      dup4\n        /* \"#utility.yul\":5644:5651   */\n      dup6\n        /* \"#utility.yul\":5640:5663   */\n      sub\n        /* \"#utility.yul\":5636:5668   */\n      slt\n        /* \"#utility.yul\":5633:5752   */\n      iszero\n      tag_282\n      jumpi\n        /* \"#utility.yul\":5671:5750   */\n      tag_283\n      tag_181\n      jump\t// in\n    tag_283:\n        /* \"#utility.yul\":5633:5752   */\n    tag_282:\n        /* \"#utility.yul\":5791:5792   */\n      0x00\n        /* \"#utility.yul\":5816:5869   */\n      tag_284\n        /* \"#utility.yul\":5861:5868   */\n      dup6\n        /* \"#utility.yul\":5852:5858   */\n      dup3\n        /* \"#utility.yul\":5841:5850   */\n      dup7\n        /* \"#utility.yul\":5837:5859   */\n      add\n        /* \"#utility.yul\":5816:5869   */\n      tag_186\n      jump\t// in\n    tag_284:\n        /* \"#utility.yul\":5806:5869   */\n      swap3\n      pop\n        /* \"#utility.yul\":5762:5879   */\n      pop\n        /* \"#utility.yul\":5918:5920   */\n      0x20\n        /* \"#utility.yul\":5944:5997   */\n      tag_285\n        /* \"#utility.yul\":5989:5996   */\n      dup6\n        /* \"#utility.yul\":5980:5986   */\n      dup3\n        /* \"#utility.yul\":5969:5978   */\n      dup7\n        /* \"#utility.yul\":5965:5987   */\n      add\n        /* \"#utility.yul\":5944:5997   */\n      tag_186\n      jump\t// in\n    tag_285:\n        /* \"#utility.yul\":5934:5997   */\n      swap2\n      pop\n        /* \"#utility.yul\":5889:6007   */\n      pop\n        /* \"#utility.yul\":5540:6014   */\n      swap3\n      pop\n      swap3\n      swap1\n      pop\n      jump\t// out\n        /* \"#utility.yul\":6020:6200   */\n    tag_196:\n        /* \"#utility.yul\":6068:6145   */\n      0x4e487b7100000000000000000000000000000000000000000000000000000000\n        /* \"#utility.yul\":6065:6066   */\n      0x00\n        /* \"#utility.yul\":6058:6146   */\n      mstore\n        /* \"#utility.yul\":6165:6169   */\n      0x22\n        /* \"#utility.yul\":6162:6163   */\n      0x04\n        /* \"#utility.yul\":6155:6170   */\n      mstore\n        /* \"#utility.yul\":6189:6193   */\n      0x24\n        /* \"#utility.yul\":6186:6187   */\n      0x00\n        /* \"#utility.yul\":6179:6194   */\n      revert\n        /* \"#utility.yul\":6206:6526   */\n    tag_79:\n        /* \"#utility.yul\":6250:6256   */\n      0x00\n        /* \"#utility.yul\":6287:6288   */\n      0x02\n        /* \"#utility.yul\":6281:6285   */\n      dup3\n        /* \"#utility.yul\":6277:6289   */\n      div\n        /* \"#utility.yul\":6267:6289   */\n      swap1\n      pop\n        /* \"#utility.yul\":6334:6335   */\n      0x01\n        /* \"#utility.yul\":6328:6332   */\n      dup3\n        /* \"#utility.yul\":6324:6336   */\n      and\n        /* \"#utility.yul\":6355:6373   */\n      dup1\n        /* \"#utility.yul\":6345:6426   */\n      tag_288\n      jumpi\n        /* \"#utility.yul\":6411:6415   */\n      0x7f\n        /* \"#utility.yul\":6403:6409   */\n      dup3\n        /* \"#utility.yul\":6399:6416   */\n      and\n        /* \"#utility.yul\":6389:6416   */\n      swap2\n      pop\n        /* \"#utility.yul\":6345:6426   */\n    tag_288:\n        /* \"#utility.yul\":6473:6475   */\n      0x20\n        /* \"#utility.yul\":6465:6471   */\n      dup3\n        /* \"#utility.yul\":6462:6476   */\n      lt\n        /* \"#utility.yul\":6442:6460   */\n      dup2\n        /* \"#utility.yul\":6439:6477   */\n      sub\n        /* \"#utility.yul\":6436:6520   */\n      tag_289\n      jumpi\n        /* \"#utility.yul\":6492:6510   */\n      tag_290\n      tag_196\n      jump\t// in\n    tag_290:\n        /* \"#utility.yul\":6436:6520   */\n    tag_289:\n        /* \"#utility.yul\":6257:6526   */\n      pop\n        /* \"#utility.yul\":6206:6526   */\n      swap2\n      swap1\n      pop\n      jump\t// out\n        /* \"#utility.yul\":6532:6712   */\n    tag_197:\n        /* \"#utility.yul\":6580:6657   */\n      0x4e487b7100000000000000000000000000000000000000000000000000000000\n        /* \"#utility.yul\":6577:6578   */\n      0x00\n        /* \"#utility.yul\":6570:6658   */\n      mstore\n        /* \"#utility.yul\":6677:6681   */\n      0x11\n        /* \"#utility.yul\":6674:6675   */\n      0x04\n        /* \"#utility.yul\":6667:6682   */\n      mstore\n        /* \"#utility.yul\":6701:6705   */\n      0x24\n        /* \"#utility.yul\":6698:6699   */\n      0x00\n        /* \"#utility.yul\":6691:6706   */\n      revert\n        /* \"#utility.yul\":6718:6909   */\n    tag_102:\n        /* \"#utility.yul\":6758:6761   */\n      0x00\n        /* \"#utility.yul\":6777:6797   */\n      tag_293\n        /* \"#utility.yul\":6795:6796   */\n      dup3\n        /* \"#utility.yul\":6777:6797   */\n      tag_187\n      jump\t// in\n    tag_293:\n        /* \"#utility.yul\":6772:6797   */\n      swap2\n      pop\n        /* \"#utility.yul\":6811:6831   */\n      tag_294\n        /* \"#utility.yul\":6829:6830   */\n      dup4\n        /* \"#utility.yul\":6811:6831   */\n      tag_187\n      jump\t// in\n    tag_294:\n        /* \"#utility.yul\":6806:6831   */\n      swap3\n      pop\n        /* \"#utility.yul\":6854:6855   */\n      dup3\n        /* \"#utility.yul\":6851:6852   */\n      dup3\n        /* \"#utility.yul\":6847:6856   */\n      add\n        /* \"#utility.yul\":6840:6856   */\n      swap1\n      pop\n        /* \"#utility.yul\":6875:6878   */\n      dup1\n        /* \"#utility.yul\":6872:6873   */\n      dup3\n        /* \"#utility.yul\":6869:6879   */\n      gt\n        /* \"#utility.yul\":6866:6902   */\n      iszero\n      tag_295\n      jumpi\n        /* \"#utility.yul\":6882:6900   */\n      tag_296\n      tag_197\n      jump\t// in\n    tag_296:\n        /* \"#utility.yul\":6866:6902   */\n    tag_295:\n        /* \"#utility.yul\":6718:6909   */\n      swap3\n      swap2\n      pop\n      pop\n      jump\t// out\n        /* \"#utility.yul\":6915:7139   */\n    tag_198:\n        /* \"#utility.yul\":7055:7089   */\n      0x45524332303a2064656372656173656420616c6c6f77616e63652062656c6f77\n        /* \"#utility.yul\":7051:7052   */\n      0x00\n        /* \"#utility.yul\":7043:7049   */\n      dup3\n        /* \"#utility.yul\":7039:7053   */\n      add\n        /* \"#utility.yul\":7032:7090   */\n      mstore\n        /* \"#utility.yul\":7124:7131   */\n      0x207a65726f000000000000000000000000000000000000000000000000000000\n        /* \"#utility.yul\":7119:7121   */\n      0x20\n        /* \"#utility.yul\":7111:7117   */\n      dup3\n        /* \"#utility.yul\":7107:7122   */\n      add\n        /* \"#utility.yul\":7100:7132   */\n      mstore\n        /* \"#utility.yul\":6915:7139   */\n      pop\n      jump\t// out\n        /* \"#utility.yul\":7145:7511   */\n    tag_199:\n        /* \"#utility.yul\":7287:7290   */\n      0x00\n        /* \"#utility.yul\":7308:7375   */\n      tag_299\n        /* \"#utility.yul\":7372:7374   */\n      0x25\n        /* \"#utility.yul\":7367:7370   */\n      dup4\n        /* \"#utility.yul\":7308:7375   */\n      tag_176\n      jump\t// in\n    tag_299:\n        /* \"#utility.yul\":7301:7375   */\n      swap2\n      pop\n        /* \"#utility.yul\":7384:7477   */\n      tag_300\n        /* \"#utility.yul\":7473:7476   */\n      dup3\n        /* \"#utility.yul\":7384:7477   */\n      tag_198\n      jump\t// in\n    tag_300:\n        /* \"#utility.yul\":7502:7504   */\n      0x40\n        /* \"#utility.yul\":7497:7500   */\n      dup3\n        /* \"#utility.yul\":7493:7505   */\n      add\n        /* \"#utility.yul\":7486:7505   */\n      swap1\n      pop\n        /* \"#utility.yul\":7145:7511   */\n      swap2\n      swap1\n      pop\n      jump\t// out\n        /* \"#utility.yul\":7517:7936   */\n    tag_122:\n        /* \"#utility.yul\":7683:7687   */\n      0x00\n        /* \"#utility.yul\":7721:7723   */\n      0x20\n        /* \"#utility.yul\":7710:7719   */\n      dup3\n        /* \"#utility.yul\":7706:7724   */\n      add\n        /* \"#utility.yul\":7698:7724   */\n      swap1\n      pop\n        /* \"#utility.yul\":7770:7779   */\n      dup2\n        /* \"#utility.yul\":7764:7768   */\n      dup2\n        /* \"#utility.yul\":7760:7780   */\n      sub\n        /* \"#utility.yul\":7756:7757   */\n      0x00\n        /* \"#utility.yul\":7745:7754   */\n      dup4\n        /* \"#utility.yul\":7741:7758   */\n      add\n        /* \"#utility.yul\":7734:7781   */\n      mstore\n        /* \"#utility.yul\":7798:7929   */\n      tag_302\n        /* \"#utility.yul\":7924:7928   */\n      dup2\n        /* \"#utility.yul\":7798:7929   */\n      tag_199\n      jump\t// in\n    tag_302:\n        /* \"#utility.yul\":7790:7929   */\n      swap1\n      pop\n        /* \"#utility.yul\":7517:7936   */\n      swap2\n      swap1\n      pop\n      jump\t// out\n        /* \"#utility.yul\":7942:8167   */\n    tag_200:\n        /* \"#utility.yul\":8082:8116   */\n      0x4f776e61626c653a206e6577206f776e657220697320746865207a65726f2061\n        /* \"#utility.yul\":8078:8079   */\n      0x00\n        /* \"#utility.yul\":8070:8076   */\n      dup3\n        /* \"#utility.yul\":8066:8080   */\n      add\n        /* \"#utility.yul\":8059:8117   */\n      mstore\n        /* \"#utility.yul\":8151:8159   */\n      0x6464726573730000000000000000000000000000000000000000000000000000\n        /* \"#utility.yul\":8146:8148   */\n      0x20\n        /* \"#utility.yul\":8138:8144   */\n      dup3\n        /* \"#utility.yul\":8134:8149   */\n      add\n        /* \"#utility.yul\":8127:8160   */\n      mstore\n        /* \"#utility.yul\":7942:8167   */\n      pop\n      jump\t// out\n        /* \"#utility.yul\":8173:8539   */\n    tag_201:\n        /* \"#utility.yul\":8315:8318   */\n      0x00\n        /* \"#utility.yul\":8336:8403   */\n      tag_305\n        /* \"#utility.yul\":8400:8402   */\n      0x26\n        /* \"#utility.yul\":8395:8398   */\n      dup4\n        /* \"#utility.yul\":8336:8403   */\n      tag_176\n      jump\t// in\n    tag_305:\n        /* \"#utility.yul\":8329:8403   */\n      swap2\n      pop\n        /* \"#utility.yul\":8412:8505   */\n      tag_306\n        /* \"#utility.yul\":8501:8504   */\n      dup3\n        /* \"#utility.yul\":8412:8505   */\n      tag_200\n      jump\t// in\n    tag_306:\n        /* \"#utility.yul\":8530:8532   */\n      0x40\n        /* \"#utility.yul\":8525:8528   */\n      dup3\n        /* \"#utility.yul\":8521:8533   */\n      add\n        /* \"#utility.yul\":8514:8533   */\n      swap1\n      pop\n        /* \"#utility.yul\":8173:8539   */\n      swap2\n      swap1\n      pop\n      jump\t// out\n        /* \"#utility.yul\":8545:8964   */\n    tag_133:\n        /* \"#utility.yul\":8711:8715   */\n      0x00\n        /* \"#utility.yul\":8749:8751   */\n      0x20\n        /* \"#utility.yul\":8738:8747   */\n      dup3\n        /* \"#utility.yul\":8734:8752   */\n      add\n        /* \"#utility.yul\":8726:8752   */\n      swap1\n      pop\n        /* \"#utility.yul\":8798:8807   */\n      dup2\n        /* \"#utility.yul\":8792:8796   */\n      dup2\n        /* \"#utility.yul\":8788:8808   */\n      sub\n        /* \"#utility.yul\":8784:8785   */\n      0x00\n        /* \"#utility.yul\":8773:8782   */\n      dup4\n        /* \"#utility.yul\":8769:8786   */\n      add\n        /* \"#utility.yul\":8762:8809   */\n      mstore\n        /* \"#utility.yul\":8826:8957   */\n      tag_308\n        /* \"#utility.yul\":8952:8956   */\n      dup2\n        /* \"#utility.yul\":8826:8957   */\n      tag_201\n      jump\t// in\n    tag_308:\n        /* \"#utility.yul\":8818:8957   */\n      swap1\n      pop\n        /* \"#utility.yul\":8545:8964   */\n      swap2\n      swap1\n      pop\n      jump\t// out\n        /* \"#utility.yul\":8970:9193   */\n    tag_202:\n        /* \"#utility.yul\":9110:9144   */\n      0x45524332303a20617070726f76652066726f6d20746865207a65726f20616464\n        /* \"#utility.yul\":9106:9107   */\n      0x00\n        /* \"#utility.yul\":9098:9104   */\n      dup3\n        /* \"#utility.yul\":9094:9108   */\n      add\n        /* \"#utility.yul\":9087:9145   */\n      mstore\n        /* \"#utility.yul\":9179:9185   */\n      0x7265737300000000000000000000000000000000000000000000000000000000\n        /* \"#utility.yul\":9174:9176   */\n      0x20\n        /* \"#utility.yul\":9166:9172   */\n      dup3\n        /* \"#utility.yul\":9162:9177   */\n      add\n        /* \"#utility.yul\":9155:9186   */\n      mstore\n        /* \"#utility.yul\":8970:9193   */\n      pop\n      jump\t// out\n        /* \"#utility.yul\":9199:9565   */\n    tag_203:\n        /* \"#utility.yul\":9341:9344   */\n      0x00\n        /* \"#utility.yul\":9362:9429   */\n      tag_311\n        /* \"#utility.yul\":9426:9428   */\n      0x24\n        /* \"#utility.yul\":9421:9424   */\n      dup4\n        /* \"#utility.yul\":9362:9429   */\n      tag_176\n      jump\t// in\n    tag_311:\n        /* \"#utility.yul\":9355:9429   */\n      swap2\n      pop\n        /* \"#utility.yul\":9438:9531   */\n      tag_312\n        /* \"#utility.yul\":9527:9530   */\n      dup3\n        /* \"#utility.yul\":9438:9531   */\n      tag_202\n      jump\t// in\n    tag_312:\n        /* \"#utility.yul\":9556:9558   */\n      0x40\n        /* \"#utility.yul\":9551:9554   */\n      dup3\n        /* \"#utility.yul\":9547:9559   */\n      add\n        /* \"#utility.yul\":9540:9559   */\n      swap1\n      pop\n        /* \"#utility.yul\":9199:9565   */\n      swap2\n      swap1\n      pop\n      jump\t// out\n        /* \"#utility.yul\":9571:9990   */\n    tag_139:\n        /* \"#utility.yul\":9737:9741   */\n      0x00\n        /* \"#utility.yul\":9775:9777   */\n      0x20\n        /* \"#utility.yul\":9764:9773   */\n      dup3\n        /* \"#utility.yul\":9760:9778   */\n      add\n        /* \"#utility.yul\":9752:9778   */\n      swap1\n      pop\n        /* \"#utility.yul\":9824:9833   */\n      dup2\n        /* \"#utility.yul\":9818:9822   */\n      dup2\n        /* \"#utility.yul\":9814:9834   */\n      sub\n        /* \"#utility.yul\":9810:9811   */\n      0x00\n        /* \"#utility.yul\":9799:9808   */\n      dup4\n        /* \"#utility.yul\":9795:9812   */\n      add\n        /* \"#utility.yul\":9788:9835   */\n      mstore\n        /* \"#utility.yul\":9852:9983   */\n      tag_314\n        /* \"#utility.yul\":9978:9982   */\n      dup2\n        /* \"#utility.yul\":9852:9983   */\n      tag_203\n      jump\t// in\n    tag_314:\n        /* \"#utility.yul\":9844:9983   */\n      swap1\n      pop\n        /* \"#utility.yul\":9571:9990   */\n      swap2\n      swap1\n      pop\n      jump\t// out\n        /* \"#utility.yul\":9996:10217   */\n    tag_204:\n        /* \"#utility.yul\":10136:10170   */\n      0x45524332303a20617070726f766520746f20746865207a65726f206164647265\n        /* \"#utility.yul\":10132:10133   */\n      0x00\n        /* \"#utility.yul\":10124:10130   */\n      dup3\n        /* \"#utility.yul\":10120:10134   */\n      add\n        /* \"#utility.yul\":10113:10171   */\n      mstore\n        /* \"#utility.yul\":10205:10209   */\n      0x7373000000000000000000000000000000000000000000000000000000000000\n        /* \"#utility.yul\":10200:10202   */\n      0x20\n        /* \"#utility.yul\":10192:10198   */\n      dup3\n        /* \"#utility.yul\":10188:10203   */\n      add\n        /* \"#utility.yul\":10181:10210   */\n      mstore\n        /* \"#utility.yul\":9996:10217   */\n      pop\n      jump\t// out\n        /* \"#utility.yul\":10223:10589   */\n    tag_205:\n        /* \"#utility.yul\":10365:10368   */\n      0x00\n        /* \"#utility.yul\":10386:10453   */\n      tag_317\n        /* \"#utility.yul\":10450:10452   */\n      0x22\n        /* \"#utility.yul\":10445:10448   */\n      dup4\n        /* \"#utility.yul\":10386:10453   */\n      tag_176\n      jump\t// in\n    tag_317:\n        /* \"#utility.yul\":10379:10453   */\n      swap2\n      pop\n        /* \"#utility.yul\":10462:10555   */\n      tag_318\n        /* \"#utility.yul\":10551:10554   */\n      dup3\n        /* \"#utility.yul\":10462:10555   */\n      tag_204\n      jump\t// in\n    tag_318:\n        /* \"#utility.yul\":10580:10582   */\n      0x40\n        /* \"#utility.yul\":10575:10578   */\n      dup3\n        /* \"#utility.yul\":10571:10583   */\n      add\n        /* \"#utility.yul\":10564:10583   */\n      swap1\n      pop\n        /* \"#utility.yul\":10223:10589   */\n      swap2\n      swap1\n      pop\n      jump\t// out\n        /* \"#utility.yul\":10595:11014   */\n    tag_142:\n        /* \"#utility.yul\":10761:10765   */\n      0x00\n        /* \"#utility.yul\":10799:10801   */\n      0x20\n        /* \"#utility.yul\":10788:10797   */\n      dup3\n        /* \"#utility.yul\":10784:10802   */\n      add\n        /* \"#utility.yul\":10776:10802   */\n      swap1\n      pop\n        /* \"#utility.yul\":10848:10857   */\n      dup2\n        /* \"#utility.yul\":10842:10846   */\n      dup2\n        /* \"#utility.yul\":10838:10858   */\n      sub\n        /* \"#utility.yul\":10834:10835   */\n      0x00\n        /* \"#utility.yul\":10823:10832   */\n      dup4\n        /* \"#utility.yul\":10819:10836   */\n      add\n        /* \"#utility.yul\":10812:10859   */\n      mstore\n        /* \"#utility.yul\":10876:11007   */\n      tag_320\n        /* \"#utility.yul\":11002:11006   */\n      dup2\n        /* \"#utility.yul\":10876:11007   */\n      tag_205\n      jump\t// in\n    tag_320:\n        /* \"#utility.yul\":10868:11007   */\n      swap1\n      pop\n        /* \"#utility.yul\":10595:11014   */\n      swap2\n      swap1\n      pop\n      jump\t// out\n        /* \"#utility.yul\":11020:11199   */\n    tag_206:\n        /* \"#utility.yul\":11160:11191   */\n      0x45524332303a20696e73756666696369656e7420616c6c6f77616e6365000000\n        /* \"#utility.yul\":11156:11157   */\n      0x00\n        /* \"#utility.yul\":11148:11154   */\n      dup3\n        /* \"#utility.yul\":11144:11158   */\n      add\n        /* \"#utility.yul\":11137:11192   */\n      mstore\n        /* \"#utility.yul\":11020:11199   */\n      pop\n      jump\t// out\n        /* \"#utility.yul\":11205:11571   */\n    tag_207:\n        /* \"#utility.yul\":11347:11350   */\n      0x00\n        /* \"#utility.yul\":11368:11435   */\n      tag_323\n        /* \"#utility.yul\":11432:11434   */\n      0x1d\n        /* \"#utility.yul\":11427:11430   */\n      dup4\n        /* \"#utility.yul\":11368:11435   */\n      tag_176\n      jump\t// in\n    tag_323:\n        /* \"#utility.yul\":11361:11435   */\n      swap2\n      pop\n        /* \"#utility.yul\":11444:11537   */\n      tag_324\n        /* \"#utility.yul\":11533:11536   */\n      dup3\n        /* \"#utility.yul\":11444:11537   */\n      tag_206\n      jump\t// in\n    tag_324:\n        /* \"#utility.yul\":11562:11564   */\n      0x20\n        /* \"#utility.yul\":11557:11560   */\n      dup3\n        /* \"#utility.yul\":11553:11565   */\n      add\n        /* \"#utility.yul\":11546:11565   */\n      swap1\n      pop\n        /* \"#utility.yul\":11205:11571   */\n      swap2\n      swap1\n      pop\n      jump\t// out\n        /* \"#utility.yul\":11577:11996   */\n    tag_149:\n        /* \"#utility.yul\":11743:11747   */\n      0x00\n        /* \"#utility.yul\":11781:11783   */\n      0x20\n        /* \"#utility.yul\":11770:11779   */\n      dup3\n        /* \"#utility.yul\":11766:11784   */\n      add\n        /* \"#utility.yul\":11758:11784   */\n      swap1\n      pop\n        /* \"#utility.yul\":11830:11839   */\n      dup2\n        /* \"#utility.yul\":11824:11828   */\n      dup2\n        /* \"#utility.yul\":11820:11840   */\n      sub\n        /* \"#utility.yul\":11816:11817   */\n      0x00\n        /* \"#utility.yul\":11805:11814   */\n      dup4\n        /* \"#utility.yul\":11801:11818   */\n      add\n        /* \"#utility.yul\":11794:11841   */\n      mstore\n        /* \"#utility.yul\":11858:11989   */\n      tag_326\n        /* \"#utility.yul\":11984:11988   */\n      dup2\n        /* \"#utility.yul\":11858:11989   */\n      tag_207\n      jump\t// in\n    tag_326:\n        /* \"#utility.yul\":11850:11989   */\n      swap1\n      pop\n        /* \"#utility.yul\":11577:11996   */\n      swap2\n      swap1\n      pop\n      jump\t// out\n        /* \"#utility.yul\":12002:12226   */\n    tag_208:\n        /* \"#utility.yul\":12142:12176   */\n      0x45524332303a207472616e736665722066726f6d20746865207a65726f206164\n        /* \"#utility.yul\":12138:12139   */\n      0x00\n        /* \"#utility.yul\":12130:12136   */\n      dup3\n        /* \"#utility.yul\":12126:12140   */\n      add\n        /* \"#utility.yul\":12119:12177   */\n      mstore\n        /* \"#utility.yul\":12211:12218   */\n      0x6472657373000000000000000000000000000000000000000000000000000000\n        /* \"#utility.yul\":12206:12208   */\n      0x20\n        /* \"#utility.yul\":12198:12204   */\n      dup3\n        /* \"#utility.yul\":12194:12209   */\n      add\n        /* \"#utility.yul\":12187:12219   */\n      mstore\n        /* \"#utility.yul\":12002:12226   */\n      pop\n      jump\t// out\n        /* \"#utility.yul\":12232:12598   */\n    tag_209:\n        /* \"#utility.yul\":12374:12377   */\n      0x00\n        /* \"#utility.yul\":12395:12462   */\n      tag_329\n        /* \"#utility.yul\":12459:12461   */\n      0x25\n        /* \"#utility.yul\":12454:12457   */\n      dup4\n        /* \"#utility.yul\":12395:12462   */\n      tag_176\n      jump\t// in\n    tag_329:\n        /* \"#utility.yul\":12388:12462   */\n      swap2\n      pop\n        /* \"#utility.yul\":12471:12564   */\n      tag_330\n        /* \"#utility.yul\":12560:12563   */\n      dup3\n        /* \"#utility.yul\":12471:12564   */\n      tag_208\n      jump\t// in\n    tag_330:\n        /* \"#utility.yul\":12589:12591   */\n      0x40\n        /* \"#utility.yul\":12584:12587   */\n      dup3\n        /* \"#utility.yul\":12580:12592   */\n      add\n        /* \"#utility.yul\":12573:12592   */\n      swap1\n      pop\n        /* \"#utility.yul\":12232:12598   */\n      swap2\n      swap1\n      pop\n      jump\t// out\n        /* \"#utility.yul\":12604:13023   */\n    tag_154:\n        /* \"#utility.yul\":12770:12774   */\n      0x00\n        /* \"#utility.yul\":12808:12810   */\n      0x20\n        /* \"#utility.yul\":12797:12806   */\n      dup3\n        /* \"#utility.yul\":12793:12811   */\n      add\n        /* \"#utility.yul\":12785:12811   */\n      swap1\n      pop\n        /* \"#utility.yul\":12857:12866   */\n      dup2\n        /* \"#utility.yul\":12851:12855   */\n      dup2\n        /* \"#utility.yul\":12847:12867   */\n      sub\n        /* \"#utility.yul\":12843:12844   */\n      0x00\n        /* \"#utility.yul\":12832:12841   */\n      dup4\n        /* \"#utility.yul\":12828:12845   */\n      add\n        /* \"#utility.yul\":12821:12868   */\n      mstore\n        /* \"#utility.yul\":12885:13016   */\n      tag_332\n        /* \"#utility.yul\":13011:13015   */\n      dup2\n        /* \"#utility.yul\":12885:13016   */\n      tag_209\n      jump\t// in\n    tag_332:\n        /* \"#utility.yul\":12877:13016   */\n      swap1\n      pop\n        /* \"#utility.yul\":12604:13023   */\n      swap2\n      swap1\n      pop\n      jump\t// out\n        /* \"#utility.yul\":13029:13251   */\n    tag_210:\n        /* \"#utility.yul\":13169:13203   */\n      0x45524332303a207472616e7366657220746f20746865207a65726f2061646472\n        /* \"#utility.yul\":13165:13166   */\n      0x00\n        /* \"#utility.yul\":13157:13163   */\n      dup3\n        /* \"#utility.yul\":13153:13167   */\n      add\n        /* \"#utility.yul\":13146:13204   */\n      mstore\n        /* \"#utility.yul\":13238:13243   */\n      0x6573730000000000000000000000000000000000000000000000000000000000\n        /* \"#utility.yul\":13233:13235   */\n      0x20\n        /* \"#utility.yul\":13225:13231   */\n      dup3\n        /* \"#utility.yul\":13221:13236   */\n      add\n        /* \"#utility.yul\":13214:13244   */\n      mstore\n        /* \"#utility.yul\":13029:13251   */\n      pop\n      jump\t// out\n        /* \"#utility.yul\":13257:13623   */\n    tag_211:\n        /* \"#utility.yul\":13399:13402   */\n      0x00\n        /* \"#utility.yul\":13420:13487   */\n      tag_335\n        /* \"#utility.yul\":13484:13486   */\n      0x23\n        /* \"#utility.yul\":13479:13482   */\n      dup4\n        /* \"#utility.yul\":13420:13487   */\n      tag_176\n      jump\t// in\n    tag_335:\n        /* \"#utility.yul\":13413:13487   */\n      swap2\n      pop\n        /* \"#utility.yul\":13496:13589   */\n      tag_336\n        /* \"#utility.yul\":13585:13588   */\n      dup3\n        /* \"#utility.yul\":13496:13589   */\n      tag_210\n      jump\t// in\n    tag_336:\n        /* \"#utility.yul\":13614:13616   */\n      0x40\n        /* \"#utility.yul\":13609:13612   */\n      dup3\n        /* \"#utility.yul\":13605:13617   */\n      add\n        /* \"#utility.yul\":13598:13617   */\n      swap1\n      pop\n        /* \"#utility.yul\":13257:13623   */\n      swap2\n      swap1\n      pop\n      jump\t// out\n        /* \"#utility.yul\":13629:14048   */\n    tag_157:\n        /* \"#utility.yul\":13795:13799   */\n      0x00\n        /* \"#utility.yul\":13833:13835   */\n      0x20\n        /* \"#utility.yul\":13822:13831   */\n      dup3\n        /* \"#utility.yul\":13818:13836   */\n      add\n        /* \"#utility.yul\":13810:13836   */\n      swap1\n      pop\n        /* \"#utility.yul\":13882:13891   */\n      dup2\n        /* \"#utility.yul\":13876:13880   */\n      dup2\n        /* \"#utility.yul\":13872:13892   */\n      sub\n        /* \"#utility.yul\":13868:13869   */\n      0x00\n        /* \"#utility.yul\":13857:13866   */\n      dup4\n        /* \"#utility.yul\":13853:13870   */\n      add\n        /* \"#utility.yul\":13846:13893   */\n      mstore\n        /* \"#utility.yul\":13910:14041   */\n      tag_338\n        /* \"#utility.yul\":14036:14040   */\n      dup2\n        /* \"#utility.yul\":13910:14041   */\n      tag_211\n      jump\t// in\n    tag_338:\n        /* \"#utility.yul\":13902:14041   */\n      swap1\n      pop\n        /* \"#utility.yul\":13629:14048   */\n      swap2\n      swap1\n      pop\n      jump\t// out\n        /* \"#utility.yul\":14054:14279   */\n    tag_212:\n        /* \"#utility.yul\":14194:14228   */\n      0x45524332303a207472616e7366657220616d6f756e7420657863656564732062\n        /* \"#utility.yul\":14190:14191   */\n      0x00\n        /* \"#utility.yul\":14182:14188   */\n      dup3\n        /* \"#utility.yul\":14178:14192   */\n      add\n        /* \"#utility.yul\":14171:14229   */\n      mstore\n        /* \"#utility.yul\":14263:14271   */\n      0x616c616e63650000000000000000000000000000000000000000000000000000\n        /* \"#utility.yul\":14258:14260   */\n      0x20\n        /* \"#utility.yul\":14250:14256   */\n      dup3\n        /* \"#utility.yul\":14246:14261   */\n      add\n        /* \"#utility.yul\":14239:14272   */\n      mstore\n        /* \"#utility.yul\":14054:14279   */\n      pop\n      jump\t// out\n        /* \"#utility.yul\":14285:14651   */\n    tag_213:\n        /* \"#utility.yul\":14427:14430   */\n      0x00\n        /* \"#utility.yul\":14448:14515   */\n      tag_341\n        /* \"#utility.yul\":14512:14514   */\n      0x26\n        /* \"#utility.yul\":14507:14510   */\n      dup4\n        /* \"#utility.yul\":14448:14515   */\n      tag_176\n      jump\t// in\n    tag_341:\n        /* \"#utility.yul\":14441:14515   */\n      swap2\n      pop\n        /* \"#utility.yul\":14524:14617   */\n      tag_342\n        /* \"#utility.yul\":14613:14616   */\n      dup3\n        /* \"#utility.yul\":14524:14617   */\n      tag_212\n      jump\t// in\n    tag_342:\n        /* \"#utility.yul\":14642:14644   */\n      0x40\n        /* \"#utility.yul\":14637:14640   */\n      dup3\n        /* \"#utility.yul\":14633:14645   */\n      add\n        /* \"#utility.yul\":14626:14645   */\n      swap1\n      pop\n        /* \"#utility.yul\":14285:14651   */\n      swap2\n      swap1\n      pop\n      jump\t// out\n        /* \"#utility.yul\":14657:15076   */\n    tag_162:\n        /* \"#utility.yul\":14823:14827   */\n      0x00\n        /* \"#utility.yul\":14861:14863   */\n      0x20\n        /* \"#utility.yul\":14850:14859   */\n      dup3\n        /* \"#utility.yul\":14846:14864   */\n      add\n        /* \"#utility.yul\":14838:14864   */\n      swap1\n      pop\n        /* \"#utility.yul\":14910:14919   */\n      dup2\n        /* \"#utility.yul\":14904:14908   */\n      dup2\n        /* \"#utility.yul\":14900:14920   */\n      sub\n        /* \"#utility.yul\":14896:14897   */\n      0x00\n        /* \"#utility.yul\":14885:14894   */\n      dup4\n        /* \"#utility.yul\":14881:14898   */\n      add\n        /* \"#utility.yul\":14874:14921   */\n      mstore\n        /* \"#utility.yul\":14938:15069   */\n      tag_344\n        /* \"#utility.yul\":15064:15068   */\n      dup2\n        /* \"#utility.yul\":14938:15069   */\n      tag_213\n      jump\t// in\n    tag_344:\n        /* \"#utility.yul\":14930:15069   */\n      swap1\n      pop\n        /* \"#utility.yul\":14657:15076   */\n      swap2\n      swap1\n      pop\n      jump\t// out\n        /* \"#utility.yul\":15082:15264   */\n    tag_214:\n        /* \"#utility.yul\":15222:15256   */\n      0x4f776e61626c653a2063616c6c6572206973206e6f7420746865206f776e6572\n        /* \"#utility.yul\":15218:15219   */\n      0x00\n        /* \"#utility.yul\":15210:15216   */\n      dup3\n        /* \"#utility.yul\":15206:15220   */\n      add\n        /* \"#utility.yul\":15199:15257   */\n      mstore\n        /* \"#utility.yul\":15082:15264   */\n      pop\n      jump\t// out\n        /* \"#utility.yul\":15270:15636   */\n    tag_215:\n        /* \"#utility.yul\":15412:15415   */\n      0x00\n        /* \"#utility.yul\":15433:15500   */\n      tag_347\n        /* \"#utility.yul\":15497:15499   */\n      0x20\n        /* \"#utility.yul\":15492:15495   */\n      dup4\n        /* \"#utility.yul\":15433:15500   */\n      tag_176\n      jump\t// in\n    tag_347:\n        /* \"#utility.yul\":15426:15500   */\n      swap2\n      pop\n        /* \"#utility.yul\":15509:15602   */\n      tag_348\n        /* \"#utility.yul\":15598:15601   */\n      dup3\n        /* \"#utility.yul\":15509:15602   */\n      tag_214\n      jump\t// in\n    tag_348:\n        /* \"#utility.yul\":15627:15629   */\n      0x20\n        /* \"#utility.yul\":15622:15625   */\n      dup3\n        /* \"#utility.yul\":15618:15630   */\n      add\n        /* \"#utility.yul\":15611:15630   */\n      swap1\n      pop\n        /* \"#utility.yul\":15270:15636   */\n      swap2\n      swap1\n      pop\n      jump\t// out\n        /* \"#utility.yul\":15642:16061   */\n    tag_171:\n        /* \"#utility.yul\":15808:15812   */\n      0x00\n        /* \"#utility.yul\":15846:15848   */\n      0x20\n        /* \"#utility.yul\":15835:15844   */\n      dup3\n        /* \"#utility.yul\":15831:15849   */\n      add\n        /* \"#utility.yul\":15823:15849   */\n      swap1\n      pop\n        /* \"#utility.yul\":15895:15904   */\n      dup2\n        /* \"#utility.yul\":15889:15893   */\n      dup2\n        /* \"#utility.yul\":15885:15905   */\n      sub\n        /* \"#utility.yul\":15881:15882   */\n      0x00\n        /* \"#utility.yul\":15870:15879   */\n      dup4\n        /* \"#utility.yul\":15866:15883   */\n      add\n        /* \"#utility.yul\":15859:15906   */\n      mstore\n        /* \"#utility.yul\":15923:16054   */\n      tag_350\n        /* \"#utility.yul\":16049:16053   */\n      dup2\n        /* \"#utility.yul\":15923:16054   */\n      tag_215\n      jump\t// in\n    tag_350:\n        /* \"#utility.yul\":15915:16054   */\n      swap1\n      pop\n        /* \"#utility.yul\":15642:16061   */\n      swap2\n      swap1\n      pop\n      jump\t// out\n\n    auxdata: 0xa2646970667358221220246f4dbad35ffeb75e50079ff25d586191bfafa3f37e04b3bdf2725637eb5ef464736f6c63430008140033\n}\n",
				"bytecode": {
					"linkReferences": {},
					"object": "608060405234801562000010575f80fd5b506040518060400160405280600781526020017f4d79546f6b656e000000000000000000000000000000000000000000000000008152506040518060400160405280600381526020017f4d544b000000000000000000000000000000000000000000000000000000000081525081600390816200008e919062000580565b508060049081620000a0919062000580565b505050620000c3620000b7620000e360201b60201c565b620000ea60201b60201c565b620000dd33670de0b6b3a7640000620001ad60201b60201c565b62000775565b5f33905090565b5f60055f9054906101000a900473ffffffffffffffffffffffffffffffffffffffff1690508160055f6101000a81548173ffffffffffffffffffffffffffffffffffffffff021916908373ffffffffffffffffffffffffffffffffffffffff1602179055508173ffffffffffffffffffffffffffffffffffffffff168173ffffffffffffffffffffffffffffffffffffffff167f8be0079c531659141344cd1fd0a4f28419497f9722a3daafe3b4186f6b6457e060405160405180910390a35050565b5f73ffffffffffffffffffffffffffffffffffffffff168273ffffffffffffffffffffffffffffffffffffffff16036200021e576040517f08c379a00000000000000000000000000000000000000000000000000000000081526004016200021590620006c2565b60405180910390fd5b620002315f83836200031260201b60201c565b8060025f8282546200024491906200070f565b92505081905550805f808473ffffffffffffffffffffffffffffffffffffffff1673ffffffffffffffffffffffffffffffffffffffff1681526020019081526020015f205f82825401925050819055508173ffffffffffffffffffffffffffffffffffffffff165f73ffffffffffffffffffffffffffffffffffffffff167fddf252ad1be2c89b69c2b068fc378daa952ba7f163c4a11628f55a4df523b3ef83604051620002f391906200075a565b60405180910390a36200030e5f83836200031760201b60201c565b5050565b505050565b505050565b5f81519050919050565b7f4e487b71000000000000000000000000000000000000000000000000000000005f52604160045260245ffd5b7f4e487b71000000000000000000000000000000000000000000000000000000005f52602260045260245ffd5b5f60028204905060018216806200039857607f821691505b602082108103620003ae57620003ad62000353565b5b50919050565b5f819050815f5260205f209050919050565b5f6020601f8301049050919050565b5f82821b905092915050565b5f60088302620004127fffffffffffffffffffffffffffffffffffffffffffffffffffffffffffffffff82620003d5565b6200041e8683620003d5565b95508019841693508086168417925050509392505050565b5f819050919050565b5f819050919050565b5f62000468620004626200045c8462000436565b6200043f565b62000436565b9050919050565b5f819050919050565b620004838362000448565b6200049b62000492826200046f565b848454620003e1565b825550505050565b5f90565b620004b1620004a3565b620004be81848462000478565b505050565b5b81811015620004e557620004d95f82620004a7565b600181019050620004c4565b5050565b601f8211156200053457620004fe81620003b4565b6200050984620003c6565b8101602085101562000519578190505b620005316200052885620003c6565b830182620004c3565b50505b505050565b5f82821c905092915050565b5f620005565f198460080262000539565b1980831691505092915050565b5f62000570838362000545565b9150826002028217905092915050565b6200058b826200031c565b67ffffffffffffffff811115620005a757620005a662000326565b5b620005b3825462000380565b620005c0828285620004e9565b5f60209050601f831160018114620005f6575f8415620005e1578287015190505b620005ed858262000563565b8655506200065c565b601f1984166200060686620003b4565b5f5b828110156200062f5784890151825560018201915060208501945060208101905062000608565b868310156200064f57848901516200064b601f89168262000545565b8355505b6001600288020188555050505b505050505050565b5f82825260208201905092915050565b7f45524332303a206d696e7420746f20746865207a65726f2061646472657373005f82015250565b5f620006aa601f8362000664565b9150620006b78262000674565b602082019050919050565b5f6020820190508181035f830152620006db816200069c565b9050919050565b7f4e487b71000000000000000000000000000000000000000000000000000000005f52601160045260245ffd5b5f6200071b8262000436565b9150620007288362000436565b9250828201905080821115620007435762000742620006e2565b5b92915050565b620007548162000436565b82525050565b5f6020820190506200076f5f83018462000749565b92915050565b61156480620007835f395ff3fe608060405234801561000f575f80fd5b50600436106100e8575f3560e01c8063715018a61161008a578063a457c2d711610064578063a457c2d71461024c578063a9059cbb1461027c578063dd62ed3e146102ac578063f2fde38b146102dc576100e8565b8063715018a6146102065780638da5cb5b1461021057806395d89b411461022e576100e8565b806323b872dd116100c657806323b872dd14610158578063313ce5671461018857806339509351146101a657806370a08231146101d6576100e8565b806306fdde03146100ec578063095ea7b31461010a57806318160ddd1461013a575b5f80fd5b6100f46102f8565b6040516101019190610d60565b60405180910390f35b610124600480360381019061011f9190610e11565b610388565b6040516101319190610e69565b60405180910390f35b6101426103aa565b60405161014f9190610e91565b60405180910390f35b610172600480360381019061016d9190610eaa565b6103b3565b60405161017f9190610e69565b60405180910390f35b6101906103e1565b60405161019d9190610f15565b60405180910390f35b6101c060048036038101906101bb9190610e11565b6103e9565b6040516101cd9190610e69565b60405180910390f35b6101f060048036038101906101eb9190610f2e565b61041f565b6040516101fd9190610e91565b60405180910390f35b61020e610464565b005b610218610477565b6040516102259190610f68565b60405180910390f35b61023661049f565b6040516102439190610d60565b60405180910390f35b61026660048036038101906102619190610e11565b61052f565b6040516102739190610e69565b60405180910390f35b61029660048036038101906102919190610e11565b6105a4565b6040516102a39190610e69565b60405180910390f35b6102c660048036038101906102c19190610f81565b6105c6565b6040516102d39190610e91565b60405180910390f35b6102f660048036038101906102f19190610f2e565b610648565b005b60606003805461030790610fec565b80601f016020809104026020016040519081016040528092919081815260200182805461033390610fec565b801561037e5780601f106103555761010080835404028352916020019161037e565b820191905f5260205f20905b81548152906001019060200180831161036157829003601f168201915b5050505050905090565b5f806103926106ca565b905061039f8185856106d1565b600191505092915050565b5f600254905090565b5f806103bd6106ca565b90506103ca858285610894565b6103d585858561091f565b60019150509392505050565b5f6012905090565b5f806103f36106ca565b905061041481858561040585896105c6565b61040f9190611049565b6106d1565b600191505092915050565b5f805f8373ffffffffffffffffffffffffffffffffffffffff1673ffffffffffffffffffffffffffffffffffffffff1681526020019081526020015f20549050919050565b61046c610b8b565b6104755f610c09565b565b5f60055f9054906101000a900473ffffffffffffffffffffffffffffffffffffffff16905090565b6060600480546104ae90610fec565b80601f01602080910402602001604051908101604052809291908181526020018280546104da90610fec565b80156105255780601f106104fc57610100808354040283529160200191610525565b820191905f5260205f20905b81548152906001019060200180831161050857829003601f168201915b5050505050905090565b5f806105396106ca565b90505f61054682866105c6565b90508381101561058b576040517f08c379a0000000000000000000000000000000000000000000000000000000008152600401610582906110ec565b60405180910390fd5b61059882868684036106d1565b60019250505092915050565b5f806105ae6106ca565b90506105bb81858561091f565b600191505092915050565b5f60015f8473ffffffffffffffffffffffffffffffffffffffff1673ffffffffffffffffffffffffffffffffffffffff1681526020019081526020015f205f8373ffffffffffffffffffffffffffffffffffffffff1673ffffffffffffffffffffffffffffffffffffffff1681526020019081526020015f2054905092915050565b610650610b8b565b5f73ffffffffffffffffffffffffffffffffffffffff168173ffffffffffffffffffffffffffffffffffffffff16036106be576040517f08c379a00000000000000000000000000000000000000000000000000000000081526004016106b59061117a565b60405180910390fd5b6106c781610c09565b50565b5f33905090565b5f73ffffffffffffffffffffffffffffffffffffffff168373ffffffffffffffffffffffffffffffffffffffff160361073f576040517f08c379a000000000000000000000000000000000000000000000000000000000815260040161073690611208565b60405180910390fd5b5f73ffffffffffffffffffffffffffffffffffffffff168273ffffffffffffffffffffffffffffffffffffffff16036107ad576040517f08c379a00000000000000000000000000000000000000000000000000000000081526004016107a490611296565b60405180910390fd5b8060015f8573ffffffffffffffffffffffffffffffffffffffff1673ffffffffffffffffffffffffffffffffffffffff1681526020019081526020015f205f8473ffffffffffffffffffffffffffffffffffffffff1673ffffffffffffffffffffffffffffffffffffffff1681526020019081526020015f20819055508173ffffffffffffffffffffffffffffffffffffffff168373ffffffffffffffffffffffffffffffffffffffff167f8c5be1e5ebec7d5bd14f71427d1e84f3dd0314c0f7b2291e5b200ac8c7c3b925836040516108879190610e91565b60405180910390a3505050565b5f61089f84846105c6565b90507fffffffffffffffffffffffffffffffffffffffffffffffffffffffffffffffff8114610919578181101561090b576040517f08c379a0000000000000000000000000000000000000000000000000000000008152600401610902906112fe565b60405180910390fd5b61091884848484036106d1565b5b50505050565b5f73ffffffffffffffffffffffffffffffffffffffff168373ffffffffffffffffffffffffffffffffffffffff160361098d576040517f08c379a00000000000000000000000000000000000000000000000000000000081526004016109849061138c565b60405180910390fd5b5f73ffffffffffffffffffffffffffffffffffffffff168273ffffffffffffffffffffffffffffffffffffffff16036109fb576040517f08c379a00000000000000000000000000000000000000000000000000000000081526004016109f29061141a565b60405180910390fd5b610a06838383610ccc565b5f805f8573ffffffffffffffffffffffffffffffffffffffff1673ffffffffffffffffffffffffffffffffffffffff1681526020019081526020015f2054905081811015610a89576040517f08c379a0000000000000000000000000000000000000000000000000000000008152600401610a80906114a8565b60405180910390fd5b8181035f808673ffffffffffffffffffffffffffffffffffffffff1673ffffffffffffffffffffffffffffffffffffffff1681526020019081526020015f2081905550815f808573ffffffffffffffffffffffffffffffffffffffff1673ffffffffffffffffffffffffffffffffffffffff1681526020019081526020015f205f82825401925050819055508273ffffffffffffffffffffffffffffffffffffffff168473ffffffffffffffffffffffffffffffffffffffff167fddf252ad1be2c89b69c2b068fc378daa952ba7f163c4a11628f55a4df523b3ef84604051610b729190610e91565b60405180910390a3610b85848484610cd1565b50505050565b610b936106ca565b73ffffffffffffffffffffffffffffffffffffffff16610bb1610477565b73ffffffffffffffffffffffffffffffffffffffff1614610c07576040517f08c379a0000000000000000000000000000000000000000000000000000000008152600401610bfe90611510565b60405180910390fd5b565b5f60055f9054906101000a900473ffffffffffffffffffffffffffffffffffffffff1690508160055f6101000a81548173ffffffffffffffffffffffffffffffffffffffff021916908373ffffffffffffffffffffffffffffffffffffffff1602179055508173ffffffffffffffffffffffffffffffffffffffff168173ffffffffffffffffffffffffffffffffffffffff167f8be0079c531659141344cd1fd0a4f28419497f9722a3daafe3b4186f6b6457e060405160405180910390a35050565b505050565b505050565b5f81519050919050565b5f82825260208201905092915050565b5f5b83811015610d0d578082015181840152602081019050610cf2565b5f8484015250505050565b5f601f19601f8301169050919050565b5f610d3282610cd6565b610d3c8185610ce0565b9350610d4c818560208601610cf0565b610d5581610d18565b840191505092915050565b5f6020820190508181035f830152610d788184610d28565b905092915050565b5f80fd5b5f73ffffffffffffffffffffffffffffffffffffffff82169050919050565b5f610dad82610d84565b9050919050565b610dbd81610da3565b8114610dc7575f80fd5b50565b5f81359050610dd881610db4565b92915050565b5f819050919050565b610df081610dde565b8114610dfa575f80fd5b50565b5f81359050610e0b81610de7565b92915050565b5f8060408385031215610e2757610e26610d80565b5b5f610e3485828601610dca565b9250506020610e4585828601610dfd565b9150509250929050565b5f8115159050919050565b610e6381610e4f565b82525050565b5f602082019050610e7c5f830184610e5a565b92915050565b610e8b81610dde565b82525050565b5f602082019050610ea45f830184610e82565b92915050565b5f805f60608486031215610ec157610ec0610d80565b5b5f610ece86828701610dca565b9350506020610edf86828701610dca565b9250506040610ef086828701610dfd565b9150509250925092565b5f60ff82169050919050565b610f0f81610efa565b82525050565b5f602082019050610f285f830184610f06565b92915050565b5f60208284031215610f4357610f42610d80565b5b5f610f5084828501610dca565b91505092915050565b610f6281610da3565b82525050565b5f602082019050610f7b5f830184610f59565b92915050565b5f8060408385031215610f9757610f96610d80565b5b5f610fa485828601610dca565b9250506020610fb585828601610dca565b9150509250929050565b7f4e487b71000000000000000000000000000000000000000000000000000000005f52602260045260245ffd5b5f600282049050600182168061100357607f821691505b60208210810361101657611015610fbf565b5b50919050565b7f4e487b71000000000000000000000000000000000000000000000000000000005f52601160045260245ffd5b5f61105382610dde565b915061105e83610dde565b92508282019050808211156110765761107561101c565b5b92915050565b7f45524332303a2064656372656173656420616c6c6f77616e63652062656c6f775f8201527f207a65726f000000000000000000000000000000000000000000000000000000602082015250565b5f6110d6602583610ce0565b91506110e18261107c565b604082019050919050565b5f6020820190508181035f830152611103816110ca565b9050919050565b7f4f776e61626c653a206e6577206f776e657220697320746865207a65726f20615f8201527f6464726573730000000000000000000000000000000000000000000000000000602082015250565b5f611164602683610ce0565b915061116f8261110a565b604082019050919050565b5f6020820190508181035f83015261119181611158565b9050919050565b7f45524332303a20617070726f76652066726f6d20746865207a65726f206164645f8201527f7265737300000000000000000000000000000000000000000000000000000000602082015250565b5f6111f2602483610ce0565b91506111fd82611198565b604082019050919050565b5f6020820190508181035f83015261121f816111e6565b9050919050565b7f45524332303a20617070726f766520746f20746865207a65726f2061646472655f8201527f7373000000000000000000000000000000000000000000000000000000000000602082015250565b5f611280602283610ce0565b915061128b82611226565b604082019050919050565b5f6020820190508181035f8301526112ad81611274565b9050919050565b7f45524332303a20696e73756666696369656e7420616c6c6f77616e63650000005f82015250565b5f6112e8601d83610ce0565b91506112f3826112b4565b602082019050919050565b5f6020820190508181035f830152611315816112dc565b9050919050565b7f45524332303a207472616e736665722066726f6d20746865207a65726f2061645f8201527f6472657373000000000000000000000000000000000000000000000000000000602082015250565b5f611376602583610ce0565b91506113818261131c565b604082019050919050565b5f6020820190508181035f8301526113a38161136a565b9050919050565b7f45524332303a207472616e7366657220746f20746865207a65726f20616464725f8201527f6573730000000000000000000000000000000000000000000000000000000000602082015250565b5f611404602383610ce0565b915061140f826113aa565b604082019050919050565b5f6020820190508181035f830152611431816113f8565b9050919050565b7f45524332303a207472616e7366657220616d6f756e74206578636565647320625f8201527f616c616e63650000000000000000000000000000000000000000000000000000602082015250565b5f611492602683610ce0565b915061149d82611438565b604082019050919050565b5f6020820190508181035f8301526114bf81611486565b9050919050565b7f4f776e61626c653a2063616c6c6572206973206e6f7420746865206f776e65725f82015250565b5f6114fa602083610ce0565b9150611505826114c6565b602082019050919050565b5f6020820190508181035f830152611527816114ee565b905091905056fea2646970667358221220246f4dbad35ffeb75e50079ff25d586191bfafa3f37e04b3bdf2725637eb5ef464736f6c63430008140033",
					"opcodes": "PUSH1 0x80 PUSH1 0x40 MSTORE CALLVALUE DUP1 ISZERO PUSH3 0x10 JUMPI PUSH0 DUP1 REVERT JUMPDEST POP PUSH1 0x40 MLOAD DUP1 PUSH1 0x40 ADD PUSH1 0x40 MSTORE DUP1 PUSH1 0x7 DUP2 MSTORE PUSH1 0x20 ADD PUSH32 0x4D79546F6B656E00000000000000000000000000000000000000000000000000 DUP2 MSTORE POP PUSH1 0x40 MLOAD DUP1 PUSH1 0x40 ADD PUSH1 0x40 MSTORE DUP1 PUSH1 0x3 DUP2 MSTORE PUSH1 0x20 ADD PUSH32 0x4D544B0000000000000000000000000000000000000000000000000000000000 DUP2 MSTORE POP DUP2 PUSH1 0x3 SWAP1 DUP2 PUSH3 0x8E SWAP2 SWAP1 PUSH3 0x580 JUMP JUMPDEST POP DUP1 PUSH1 0x4 SWAP1 DUP2 PUSH3 0xA0 SWAP2 SWAP1 PUSH3 0x580 JUMP JUMPDEST POP POP POP PUSH3 0xC3 PUSH3 0xB7 PUSH3 0xE3 PUSH1 0x20 SHL PUSH1 0x20 SHR JUMP JUMPDEST PUSH3 0xEA PUSH1 0x20 SHL PUSH1 0x20 SHR JUMP JUMPDEST PUSH3 0xDD CALLER PUSH8 0xDE0B6B3A7640000 PUSH3 0x1AD PUSH1 0x20 SHL PUSH1 0x20 SHR JUMP JUMPDEST PUSH3 0x775 JUMP JUMPDEST PUSH0 CALLER SWAP1 POP SWAP1 JUMP JUMPDEST PUSH0 PUSH1 0x5 PUSH0 SWAP1 SLOAD SWAP1 PUSH2 0x100 EXP SWAP1 DIV PUSH20 0xFFFFFFFFFFFFFFFFFFFFFFFFFFFFFFFFFFFFFFFF AND SWAP1 POP DUP2 PUSH1 0x5 PUSH0 PUSH2 0x100 EXP DUP2 SLOAD DUP2 PUSH20 0xFFFFFFFFFFFFFFFFFFFFFFFFFFFFFFFFFFFFFFFF MUL NOT AND SWAP1 DUP4 PUSH20 0xFFFFFFFFFFFFFFFFFFFFFFFFFFFFFFFFFFFFFFFF AND MUL OR SWAP1 SSTORE POP DUP2 PUSH20 0xFFFFFFFFFFFFFFFFFFFFFFFFFFFFFFFFFFFFFFFF AND DUP2 PUSH20 0xFFFFFFFFFFFFFFFFFFFFFFFFFFFFFFFFFFFFFFFF AND PUSH32 0x8BE0079C531659141344CD1FD0A4F28419497F9722A3DAAFE3B4186F6B6457E0 PUSH1 0x40 MLOAD PUSH1 0x40 MLOAD DUP1 SWAP2 SUB SWAP1 LOG3 POP POP JUMP JUMPDEST PUSH0 PUSH20 0xFFFFFFFFFFFFFFFFFFFFFFFFFFFFFFFFFFFFFFFF AND DUP3 PUSH20 0xFFFFFFFFFFFFFFFFFFFFFFFFFFFFFFFFFFFFFFFF AND SUB PUSH3 0x21E JUMPI PUSH1 0x40 MLOAD PUSH32 0x8C379A000000000000000000000000000000000000000000000000000000000 DUP2 MSTORE PUSH1 0x4 ADD PUSH3 0x215 SWAP1 PUSH3 0x6C2 JUMP JUMPDEST PUSH1 0x40 MLOAD DUP1 SWAP2 SUB SWAP1 REVERT JUMPDEST PUSH3 0x231 PUSH0 DUP4 DUP4 PUSH3 0x312 PUSH1 0x20 SHL PUSH1 0x20 SHR JUMP JUMPDEST DUP1 PUSH1 0x2 PUSH0 DUP3 DUP3 SLOAD PUSH3 0x244 SWAP2 SWAP1 PUSH3 0x70F JUMP JUMPDEST SWAP3 POP POP DUP2 SWAP1 SSTORE POP DUP1 PUSH0 DUP1 DUP5 PUSH20 0xFFFFFFFFFFFFFFFFFFFFFFFFFFFFFFFFFFFFFFFF AND PUSH20 0xFFFFFFFFFFFFFFFFFFFFFFFFFFFFFFFFFFFFFFFF AND DUP2 MSTORE PUSH1 0x20 ADD SWAP1 DUP2 MSTORE PUSH1 0x20 ADD PUSH0 KECCAK256 PUSH0 DUP3 DUP3 SLOAD ADD SWAP3 POP POP DUP2 SWAP1 SSTORE POP DUP2 PUSH20 0xFFFFFFFFFFFFFFFFFFFFFFFFFFFFFFFFFFFFFFFF AND PUSH0 PUSH20 0xFFFFFFFFFFFFFFFFFFFFFFFFFFFFFFFFFFFFFFFF AND PUSH32 0xDDF252AD1BE2C89B69C2B068FC378DAA952BA7F163C4A11628F55A4DF523B3EF DUP4 PUSH1 0x40 MLOAD PUSH3 0x2F3 SWAP2 SWAP1 PUSH3 0x75A JUMP JUMPDEST PUSH1 0x40 MLOAD DUP1 SWAP2 SUB SWAP1 LOG3 PUSH3 0x30E PUSH0 DUP4 DUP4 PUSH3 0x317 PUSH1 0x20 SHL PUSH1 0x20 SHR JUMP JUMPDEST POP POP JUMP JUMPDEST POP POP POP JUMP JUMPDEST POP POP POP JUMP JUMPDEST PUSH0 DUP2 MLOAD SWAP1 POP SWAP2 SWAP1 POP JUMP JUMPDEST PUSH32 0x4E487B7100000000000000000000000000000000000000000000000000000000 PUSH0 MSTORE PUSH1 0x41 PUSH1 0x4 MSTORE PUSH1 0x24 PUSH0 REVERT JUMPDEST PUSH32 0x4E487B7100000000000000000000000000000000000000000000000000000000 PUSH0 MSTORE PUSH1 0x22 PUSH1 0x4 MSTORE PUSH1 0x24 PUSH0 REVERT JUMPDEST PUSH0 PUSH1 0x2 DUP3 DIV SWAP1 POP PUSH1 0x1 DUP3 AND DUP1 PUSH3 0x398 JUMPI PUSH1 0x7F DUP3 AND SWAP2 POP JUMPDEST PUSH1 0x20 DUP3 LT DUP2 SUB PUSH3 0x3AE JUMPI PUSH3 0x3AD PUSH3 0x353 JUMP JUMPDEST JUMPDEST POP SWAP2 SWAP1 POP JUMP JUMPDEST PUSH0 DUP2 SWAP1 POP DUP2 PUSH0 MSTORE PUSH1 0x20 PUSH0 KECCAK256 SWAP1 POP SWAP2 SWAP1 POP JUMP JUMPDEST PUSH0 PUSH1 0x20 PUSH1 0x1F DUP4 ADD DIV SWAP1 POP SWAP2 SWAP1 POP JUMP JUMPDEST PUSH0 DUP3 DUP3 SHL SWAP1 POP SWAP3 SWAP2 POP POP JUMP JUMPDEST PUSH0 PUSH1 0x8 DUP4 MUL PUSH3 0x412 PUSH32 0xFFFFFFFFFFFFFFFFFFFFFFFFFFFFFFFFFFFFFFFFFFFFFFFFFFFFFFFFFFFFFFFF DUP3 PUSH3 0x3D5 JUMP JUMPDEST PUSH3 0x41E DUP7 DUP4 PUSH3 0x3D5 JUMP JUMPDEST SWAP6 POP DUP1 NOT DUP5 AND SWAP4 POP DUP1 DUP7 AND DUP5 OR SWAP3 POP POP POP SWAP4 SWAP3 POP POP POP JUMP JUMPDEST PUSH0 DUP2 SWAP1 POP SWAP2 SWAP1 POP JUMP JUMPDEST PUSH0 DUP2 SWAP1 POP SWAP2 SWAP1 POP JUMP JUMPDEST PUSH0 PUSH3 0x468 PUSH3 0x462 PUSH3 0x45C DUP5 PUSH3 0x436 JUMP JUMPDEST PUSH3 0x43F JUMP JUMPDEST PUSH3 0x436 JUMP JUMPDEST SWAP1 POP SWAP2 SWAP1 POP JUMP JUMPDEST PUSH0 DUP2 SWAP1 POP SWAP2 SWAP1 POP JUMP JUMPDEST PUSH3 0x483 DUP4 PUSH3 0x448 JUMP JUMPDEST PUSH3 0x49B PUSH3 0x492 DUP3 PUSH3 0x46F JUMP JUMPDEST DUP5 DUP5 SLOAD PUSH3 0x3E1 JUMP JUMPDEST DUP3 SSTORE POP POP POP POP JUMP JUMPDEST PUSH0 SWAP1 JUMP JUMPDEST PUSH3 0x4B1 PUSH3 0x4A3 JUMP JUMPDEST PUSH3 0x4BE DUP2 DUP5 DUP5 PUSH3 0x478 JUMP JUMPDEST POP POP POP JUMP JUMPDEST JUMPDEST DUP2 DUP2 LT ISZERO PUSH3 0x4E5 JUMPI PUSH3 0x4D9 PUSH0 DUP3 PUSH3 0x4A7 JUMP JUMPDEST PUSH1 0x1 DUP2 ADD SWAP1 POP PUSH3 0x4C4 JUMP JUMPDEST POP POP JUMP JUMPDEST PUSH1 0x1F DUP3 GT ISZERO PUSH3 0x534 JUMPI PUSH3 0x4FE DUP2 PUSH3 0x3B4 JUMP JUMPDEST PUSH3 0x509 DUP5 PUSH3 0x3C6 JUMP JUMPDEST DUP2 ADD PUSH1 0x20 DUP6 LT ISZERO PUSH3 0x519 JUMPI DUP2 SWAP1 POP JUMPDEST PUSH3 0x531 PUSH3 0x528 DUP6 PUSH3 0x3C6 JUMP JUMPDEST DUP4 ADD DUP3 PUSH3 0x4C3 JUMP JUMPDEST POP POP JUMPDEST POP POP POP JUMP JUMPDEST PUSH0 DUP3 DUP3 SHR SWAP1 POP SWAP3 SWAP2 POP POP JUMP JUMPDEST PUSH0 PUSH3 0x556 PUSH0 NOT DUP5 PUSH1 0x8 MUL PUSH3 0x539 JUMP JUMPDEST NOT DUP1 DUP4 AND SWAP2 POP POP SWAP3 SWAP2 POP POP JUMP JUMPDEST PUSH0 PUSH3 0x570 DUP4 DUP4 PUSH3 0x545 JUMP JUMPDEST SWAP2 POP DUP3 PUSH1 0x2 MUL DUP3 OR SWAP1 POP SWAP3 SWAP2 POP POP JUMP JUMPDEST PUSH3 0x58B DUP3 PUSH3 0x31C JUMP JUMPDEST PUSH8 0xFFFFFFFFFFFFFFFF DUP2 GT ISZERO PUSH3 0x5A7 JUMPI PUSH3 0x5A6 PUSH3 0x326 JUMP JUMPDEST JUMPDEST PUSH3 0x5B3 DUP3 SLOAD PUSH3 0x380 JUMP JUMPDEST PUSH3 0x5C0 DUP3 DUP3 DUP6 PUSH3 0x4E9 JUMP JUMPDEST PUSH0 PUSH1 0x20 SWAP1 POP PUSH1 0x1F DUP4 GT PUSH1 0x1 DUP2 EQ PUSH3 0x5F6 JUMPI PUSH0 DUP5 ISZERO PUSH3 0x5E1 JUMPI DUP3 DUP8 ADD MLOAD SWAP1 POP JUMPDEST PUSH3 0x5ED DUP6 DUP3 PUSH3 0x563 JUMP JUMPDEST DUP7 SSTORE POP PUSH3 0x65C JUMP JUMPDEST PUSH1 0x1F NOT DUP5 AND PUSH3 0x606 DUP7 PUSH3 0x3B4 JUMP JUMPDEST PUSH0 JUMPDEST DUP3 DUP2 LT ISZERO PUSH3 0x62F JUMPI DUP5 DUP10 ADD MLOAD DUP3 SSTORE PUSH1 0x1 DUP3 ADD SWAP2 POP PUSH1 0x20 DUP6 ADD SWAP5 POP PUSH1 0x20 DUP2 ADD SWAP1 POP PUSH3 0x608 JUMP JUMPDEST DUP7 DUP4 LT ISZERO PUSH3 0x64F JUMPI DUP5 DUP10 ADD MLOAD PUSH3 0x64B PUSH1 0x1F DUP10 AND DUP3 PUSH3 0x545 JUMP JUMPDEST DUP4 SSTORE POP JUMPDEST PUSH1 0x1 PUSH1 0x2 DUP9 MUL ADD DUP9 SSTORE POP POP POP JUMPDEST POP POP POP POP POP POP JUMP JUMPDEST PUSH0 DUP3 DUP3 MSTORE PUSH1 0x20 DUP3 ADD SWAP1 POP SWAP3 SWAP2 POP POP JUMP JUMPDEST PUSH32 0x45524332303A206D696E7420746F20746865207A65726F206164647265737300 PUSH0 DUP3 ADD MSTORE POP JUMP JUMPDEST PUSH0 PUSH3 0x6AA PUSH1 0x1F DUP4 PUSH3 0x664 JUMP JUMPDEST SWAP2 POP PUSH3 0x6B7 DUP3 PUSH3 0x674 JUMP JUMPDEST PUSH1 0x20 DUP3 ADD SWAP1 POP SWAP2 SWAP1 POP JUMP JUMPDEST PUSH0 PUSH1 0x20 DUP3 ADD SWAP1 POP DUP2 DUP2 SUB PUSH0 DUP4 ADD MSTORE PUSH3 0x6DB DUP2 PUSH3 0x69C JUMP JUMPDEST SWAP1 POP SWAP2 SWAP1 POP JUMP JUMPDEST PUSH32 0x4E487B7100000000000000000000000000000000000000000000000000000000 PUSH0 MSTORE PUSH1 0x11 PUSH1 0x4 MSTORE PUSH1 0x24 PUSH0 REVERT JUMPDEST PUSH0 PUSH3 0x71B DUP3 PUSH3 0x436 JUMP JUMPDEST SWAP2 POP PUSH3 0x728 DUP4 PUSH3 0x436 JUMP JUMPDEST SWAP3 POP DUP3 DUP3 ADD SWAP1 POP DUP1 DUP3 GT ISZERO PUSH3 0x743 JUMPI PUSH3 0x742 PUSH3 0x6E2 JUMP JUMPDEST JUMPDEST SWAP3 SWAP2 POP POP JUMP JUMPDEST PUSH3 0x754 DUP2 PUSH3 0x436 JUMP JUMPDEST DUP3 MSTORE POP POP JUMP JUMPDEST PUSH0 PUSH1 0x20 DUP3 ADD SWAP1 POP PUSH3 0x76F PUSH0 DUP4 ADD DUP5 PUSH3 0x749 JUMP JUMPDEST SWAP3 SWAP2 POP POP JUMP JUMPDEST PUSH2 0x1564 DUP1 PUSH3 0x783 PUSH0 CODECOPY PUSH0 RETURN INVALID PUSH1 0x80 PUSH1 0x40 MSTORE CALLVALUE DUP1 ISZERO PUSH2 0xF JUMPI PUSH0 DUP1 REVERT JUMPDEST POP PUSH1 0x4 CALLDATASIZE LT PUSH2 0xE8 JUMPI PUSH0 CALLDATALOAD PUSH1 0xE0 SHR DUP1 PUSH4 0x715018A6 GT PUSH2 0x8A JUMPI DUP1 PUSH4 0xA457C2D7 GT PUSH2 0x64 JUMPI DUP1 PUSH4 0xA457C2D7 EQ PUSH2 0x24C JUMPI DUP1 PUSH4 0xA9059CBB EQ PUSH2 0x27C JUMPI DUP1 PUSH4 0xDD62ED3E EQ PUSH2 0x2AC JUMPI DUP1 PUSH4 0xF2FDE38B EQ PUSH2 0x2DC JUMPI PUSH2 0xE8 JUMP JUMPDEST DUP1 PUSH4 0x715018A6 EQ PUSH2 0x206 JUMPI DUP1 PUSH4 0x8DA5CB5B EQ PUSH2 0x210 JUMPI DUP1 PUSH4 0x95D89B41 EQ PUSH2 0x22E JUMPI PUSH2 0xE8 JUMP JUMPDEST DUP1 PUSH4 0x23B872DD GT PUSH2 0xC6 JUMPI DUP1 PUSH4 0x23B872DD EQ PUSH2 0x158 JUMPI DUP1 PUSH4 0x313CE567 EQ PUSH2 0x188 JUMPI DUP1 PUSH4 0x39509351 EQ PUSH2 0x1A6 JUMPI DUP1 PUSH4 0x70A08231 EQ PUSH2 0x1D6 JUMPI PUSH2 0xE8 JUMP JUMPDEST DUP1 PUSH4 0x6FDDE03 EQ PUSH2 0xEC JUMPI DUP1 PUSH4 0x95EA7B3 EQ PUSH2 0x10A JUMPI DUP1 PUSH4 0x18160DDD EQ PUSH2 0x13A JUMPI JUMPDEST PUSH0 DUP1 REVERT JUMPDEST PUSH2 0xF4 PUSH2 0x2F8 JUMP JUMPDEST PUSH1 0x40 MLOAD PUSH2 0x101 SWAP2 SWAP1 PUSH2 0xD60 JUMP JUMPDEST PUSH1 0x40 MLOAD DUP1 SWAP2 SUB SWAP1 RETURN JUMPDEST PUSH2 0x124 PUSH1 0x4 DUP1 CALLDATASIZE SUB DUP2 ADD SWAP1 PUSH2 0x11F SWAP2 SWAP1 PUSH2 0xE11 JUMP JUMPDEST PUSH2 0x388 JUMP JUMPDEST PUSH1 0x40 MLOAD PUSH2 0x131 SWAP2 SWAP1 PUSH2 0xE69 JUMP JUMPDEST PUSH1 0x40 MLOAD DUP1 SWAP2 SUB SWAP1 RETURN JUMPDEST PUSH2 0x142 PUSH2 0x3AA JUMP JUMPDEST PUSH1 0x40 MLOAD PUSH2 0x14F SWAP2 SWAP1 PUSH2 0xE91 JUMP JUMPDEST PUSH1 0x40 MLOAD DUP1 SWAP2 SUB SWAP1 RETURN JUMPDEST PUSH2 0x172 PUSH1 0x4 DUP1 CALLDATASIZE SUB DUP2 ADD SWAP1 PUSH2 0x16D SWAP2 SWAP1 PUSH2 0xEAA JUMP JUMPDEST PUSH2 0x3B3 JUMP JUMPDEST PUSH1 0x40 MLOAD PUSH2 0x17F SWAP2 SWAP1 PUSH2 0xE69 JUMP JUMPDEST PUSH1 0x40 MLOAD DUP1 SWAP2 SUB SWAP1 RETURN JUMPDEST PUSH2 0x190 PUSH2 0x3E1 JUMP JUMPDEST PUSH1 0x40 MLOAD PUSH2 0x19D SWAP2 SWAP1 PUSH2 0xF15 JUMP JUMPDEST PUSH1 0x40 MLOAD DUP1 SWAP2 SUB SWAP1 RETURN JUMPDEST PUSH2 0x1C0 PUSH1 0x4 DUP1 CALLDATASIZE SUB DUP2 ADD SWAP1 PUSH2 0x1BB SWAP2 SWAP1 PUSH2 0xE11 JUMP JUMPDEST PUSH2 0x3E9 JUMP JUMPDEST PUSH1 0x40 MLOAD PUSH2 0x1CD SWAP2 SWAP1 PUSH2 0xE69 JUMP JUMPDEST PUSH1 0x40 MLOAD DUP1 SWAP2 SUB SWAP1 RETURN JUMPDEST PUSH2 0x1F0 PUSH1 0x4 DUP1 CALLDATASIZE SUB DUP2 ADD SWAP1 PUSH2 0x1EB SWAP2 SWAP1 PUSH2 0xF2E JUMP JUMPDEST PUSH2 0x41F JUMP JUMPDEST PUSH1 0x40 MLOAD PUSH2 0x1FD SWAP2 SWAP1 PUSH2 0xE91 JUMP JUMPDEST PUSH1 0x40 MLOAD DUP1 SWAP2 SUB SWAP1 RETURN JUMPDEST PUSH2 0x20E PUSH2 0x464 JUMP JUMPDEST STOP JUMPDEST PUSH2 0x218 PUSH2 0x477 JUMP JUMPDEST PUSH1 0x40 MLOAD PUSH2 0x225 SWAP2 SWAP1 PUSH2 0xF68 JUMP JUMPDEST PUSH1 0x40 MLOAD DUP1 SWAP2 SUB SWAP1 RETURN JUMPDEST PUSH2 0x236 PUSH2 0x49F JUMP JUMPDEST PUSH1 0x40 MLOAD PUSH2 0x243 SWAP2 SWAP1 PUSH2 0xD60 JUMP JUMPDEST PUSH1 0x40 MLOAD DUP1 SWAP2 SUB SWAP1 RETURN JUMPDEST PUSH2 0x266 PUSH1 0x4 DUP1 CALLDATASIZE SUB DUP2 ADD SWAP1 PUSH2 0x261 SWAP2 SWAP1 PUSH2 0xE11 JUMP JUMPDEST PUSH2 0x52F JUMP JUMPDEST PUSH1 0x40 MLOAD PUSH2 0x273 SWAP2 SWAP1 PUSH2 0xE69 JUMP JUMPDEST PUSH1 0x40 MLOAD DUP1 SWAP2 SUB SWAP1 RETURN JUMPDEST PUSH2 0x296 PUSH1 0x4 DUP1 CALLDATASIZE SUB DUP2 ADD SWAP1 PUSH2 0x291 SWAP2 SWAP1 PUSH2 0xE11 JUMP JUMPDEST PUSH2 0x5A4 JUMP JUMPDEST PUSH1 0x40 MLOAD PUSH2 0x2A3 SWAP2 SWAP1 PUSH2 0xE69 JUMP JUMPDEST PUSH1 0x40 MLOAD DUP1 SWAP2 SUB SWAP1 RETURN JUMPDEST PUSH2 0x2C6 PUSH1 0x4 DUP1 CALLDATASIZE SUB DUP2 ADD SWAP1 PUSH2 0x2C1 SWAP2 SWAP1 PUSH2 0xF81 JUMP JUMPDEST PUSH2 0x5C6 JUMP JUMPDEST PUSH1 0x40 MLOAD PUSH2 0x2D3 SWAP2 SWAP1 PUSH2 0xE91 JUMP JUMPDEST PUSH1 0x40 MLOAD DUP1 SWAP2 SUB SWAP1 RETURN JUMPDEST PUSH2 0x2F6 PUSH1 0x4 DUP1 CALLDATASIZE SUB DUP2 ADD SWAP1 PUSH2 0x2F1 SWAP2 SWAP1 PUSH2 0xF2E JUMP JUMPDEST PUSH2 0x648 JUMP JUMPDEST STOP JUMPDEST PUSH1 0x60 PUSH1 0x3 DUP1 SLOAD PUSH2 0x307 SWAP1 PUSH2 0xFEC JUMP JUMPDEST DUP1 PUSH1 0x1F ADD PUSH1 0x20 DUP1 SWAP2 DIV MUL PUSH1 0x20 ADD PUSH1 0x40 MLOAD SWAP1 DUP2 ADD PUSH1 0x40 MSTORE DUP1 SWAP3 SWAP2 SWAP1 DUP2 DUP2 MSTORE PUSH1 0x20 ADD DUP3 DUP1 SLOAD PUSH2 0x333 SWAP1 PUSH2 0xFEC JUMP JUMPDEST DUP1 ISZERO PUSH2 0x37E JUMPI DUP1 PUSH1 0x1F LT PUSH2 0x355 JUMPI PUSH2 0x100 DUP1 DUP4 SLOAD DIV MUL DUP4 MSTORE SWAP2 PUSH1 0x20 ADD SWAP2 PUSH2 0x37E JUMP JUMPDEST DUP3 ADD SWAP2 SWAP1 PUSH0 MSTORE PUSH1 0x20 PUSH0 KECCAK256 SWAP1 JUMPDEST DUP2 SLOAD DUP2 MSTORE SWAP1 PUSH1 0x1 ADD SWAP1 PUSH1 0x20 ADD DUP1 DUP4 GT PUSH2 0x361 JUMPI DUP3 SWAP1 SUB PUSH1 0x1F AND DUP3 ADD SWAP2 JUMPDEST POP POP POP POP POP SWAP1 POP SWAP1 JUMP JUMPDEST PUSH0 DUP1 PUSH2 0x392 PUSH2 0x6CA JUMP JUMPDEST SWAP1 POP PUSH2 0x39F DUP2 DUP6 DUP6 PUSH2 0x6D1 JUMP JUMPDEST PUSH1 0x1 SWAP2 POP POP SWAP3 SWAP2 POP POP JUMP JUMPDEST PUSH0 PUSH1 0x2 SLOAD SWAP1 POP SWAP1 JUMP JUMPDEST PUSH0 DUP1 PUSH2 0x3BD PUSH2 0x6CA JUMP JUMPDEST SWAP1 POP PUSH2 0x3CA DUP6 DUP3 DUP6 PUSH2 0x894 JUMP JUMPDEST PUSH2 0x3D5 DUP6 DUP6 DUP6 PUSH2 0x91F JUMP JUMPDEST PUSH1 0x1 SWAP2 POP POP SWAP4 SWAP3 POP POP POP JUMP JUMPDEST PUSH0 PUSH1 0x12 SWAP1 POP SWAP1 JUMP JUMPDEST PUSH0 DUP1 PUSH2 0x3F3 PUSH2 0x6CA JUMP JUMPDEST SWAP1 POP PUSH2 0x414 DUP2 DUP6 DUP6 PUSH2 0x405 DUP6 DUP10 PUSH2 0x5C6 JUMP JUMPDEST PUSH2 0x40F SWAP2 SWAP1 PUSH2 0x1049 JUMP JUMPDEST PUSH2 0x6D1 JUMP JUMPDEST PUSH1 0x1 SWAP2 POP POP SWAP3 SWAP2 POP POP JUMP JUMPDEST PUSH0 DUP1 PUSH0 DUP4 PUSH20 0xFFFFFFFFFFFFFFFFFFFFFFFFFFFFFFFFFFFFFFFF AND PUSH20 0xFFFFFFFFFFFFFFFFFFFFFFFFFFFFFFFFFFFFFFFF AND DUP2 MSTORE PUSH1 0x20 ADD SWAP1 DUP2 MSTORE PUSH1 0x20 ADD PUSH0 KECCAK256 SLOAD SWAP1 POP SWAP2 SWAP1 POP JUMP JUMPDEST PUSH2 0x46C PUSH2 0xB8B JUMP JUMPDEST PUSH2 0x475 PUSH0 PUSH2 0xC09 JUMP JUMPDEST JUMP JUMPDEST PUSH0 PUSH1 0x5 PUSH0 SWAP1 SLOAD SWAP1 PUSH2 0x100 EXP SWAP1 DIV PUSH20 0xFFFFFFFFFFFFFFFFFFFFFFFFFFFFFFFFFFFFFFFF AND SWAP1 POP SWAP1 JUMP JUMPDEST PUSH1 0x60 PUSH1 0x4 DUP1 SLOAD PUSH2 0x4AE SWAP1 PUSH2 0xFEC JUMP JUMPDEST DUP1 PUSH1 0x1F ADD PUSH1 0x20 DUP1 SWAP2 DIV MUL PUSH1 0x20 ADD PUSH1 0x40 MLOAD SWAP1 DUP2 ADD PUSH1 0x40 MSTORE DUP1 SWAP3 SWAP2 SWAP1 DUP2 DUP2 MSTORE PUSH1 0x20 ADD DUP3 DUP1 SLOAD PUSH2 0x4DA SWAP1 PUSH2 0xFEC JUMP JUMPDEST DUP1 ISZERO PUSH2 0x525 JUMPI DUP1 PUSH1 0x1F LT PUSH2 0x4FC JUMPI PUSH2 0x100 DUP1 DUP4 SLOAD DIV MUL DUP4 MSTORE SWAP2 PUSH1 0x20 ADD SWAP2 PUSH2 0x525 JUMP JUMPDEST DUP3 ADD SWAP2 SWAP1 PUSH0 MSTORE PUSH1 0x20 PUSH0 KECCAK256 SWAP1 JUMPDEST DUP2 SLOAD DUP2 MSTORE SWAP1 PUSH1 0x1 ADD SWAP1 PUSH1 0x20 ADD DUP1 DUP4 GT PUSH2 0x508 JUMPI DUP3 SWAP1 SUB PUSH1 0x1F AND DUP3 ADD SWAP2 JUMPDEST POP POP POP POP POP SWAP1 POP SWAP1 JUMP JUMPDEST PUSH0 DUP1 PUSH2 0x539 PUSH2 0x6CA JUMP JUMPDEST SWAP1 POP PUSH0 PUSH2 0x546 DUP3 DUP7 PUSH2 0x5C6 JUMP JUMPDEST SWAP1 POP DUP4 DUP2 LT ISZERO PUSH2 0x58B JUMPI PUSH1 0x40 MLOAD PUSH32 0x8C379A000000000000000000000000000000000000000000000000000000000 DUP2 MSTORE PUSH1 0x4 ADD PUSH2 0x582 SWAP1 PUSH2 0x10EC JUMP JUMPDEST PUSH1 0x40 MLOAD DUP1 SWAP2 SUB SWAP1 REVERT JUMPDEST PUSH2 0x598 DUP3 DUP7 DUP7 DUP5 SUB PUSH2 0x6D1 JUMP JUMPDEST PUSH1 0x1 SWAP3 POP POP POP SWAP3 SWAP2 POP POP JUMP JUMPDEST PUSH0 DUP1 PUSH2 0x5AE PUSH2 0x6CA JUMP JUMPDEST SWAP1 POP PUSH2 0x5BB DUP2 DUP6 DUP6 PUSH2 0x91F JUMP JUMPDEST PUSH1 0x1 SWAP2 POP POP SWAP3 SWAP2 POP POP JUMP JUMPDEST PUSH0 PUSH1 0x1 PUSH0 DUP5 PUSH20 0xFFFFFFFFFFFFFFFFFFFFFFFFFFFFFFFFFFFFFFFF AND PUSH20 0xFFFFFFFFFFFFFFFFFFFFFFFFFFFFFFFFFFFFFFFF AND DUP2 MSTORE PUSH1 0x20 ADD SWAP1 DUP2 MSTORE PUSH1 0x20 ADD PUSH0 KECCAK256 PUSH0 DUP4 PUSH20 0xFFFFFFFFFFFFFFFFFFFFFFFFFFFFFFFFFFFFFFFF AND PUSH20 0xFFFFFFFFFFFFFFFFFFFFFFFFFFFFFFFFFFFFFFFF AND DUP2 MSTORE PUSH1 0x20 ADD SWAP1 DUP2 MSTORE PUSH1 0x20 ADD PUSH0 KECCAK256 SLOAD SWAP1 POP SWAP3 SWAP2 POP POP JUMP JUMPDEST PUSH2 0x650 PUSH2 0xB8B JUMP JUMPDEST PUSH0 PUSH20 0xFFFFFFFFFFFFFFFFFFFFFFFFFFFFFFFFFFFFFFFF AND DUP2 PUSH20 0xFFFFFFFFFFFFFFFFFFFFFFFFFFFFFFFFFFFFFFFF AND SUB PUSH2 0x6BE JUMPI PUSH1 0x40 MLOAD PUSH32 0x8C379A000000000000000000000000000000000000000000000000000000000 DUP2 MSTORE PUSH1 0x4 ADD PUSH2 0x6B5 SWAP1 PUSH2 0x117A JUMP JUMPDEST PUSH1 0x40 MLOAD DUP1 SWAP2 SUB SWAP1 REVERT JUMPDEST PUSH2 0x6C7 DUP2 PUSH2 0xC09 JUMP JUMPDEST POP JUMP JUMPDEST PUSH0 CALLER SWAP1 POP SWAP1 JUMP JUMPDEST PUSH0 PUSH20 0xFFFFFFFFFFFFFFFFFFFFFFFFFFFFFFFFFFFFFFFF AND DUP4 PUSH20 0xFFFFFFFFFFFFFFFFFFFFFFFFFFFFFFFFFFFFFFFF AND SUB PUSH2 0x73F JUMPI PUSH1 0x40 MLOAD PUSH32 0x8C379A000000000000000000000000000000000000000000000000000000000 DUP2 MSTORE PUSH1 0x4 ADD PUSH2 0x736 SWAP1 PUSH2 0x1208 JUMP JUMPDEST PUSH1 0x40 MLOAD DUP1 SWAP2 SUB SWAP1 REVERT JUMPDEST PUSH0 PUSH20 0xFFFFFFFFFFFFFFFFFFFFFFFFFFFFFFFFFFFFFFFF AND DUP3 PUSH20 0xFFFFFFFFFFFFFFFFFFFFFFFFFFFFFFFFFFFFFFFF AND SUB PUSH2 0x7AD JUMPI PUSH1 0x40 MLOAD PUSH32 0x8C379A000000000000000000000000000000000000000000000000000000000 DUP2 MSTORE PUSH1 0x4 ADD PUSH2 0x7A4 SWAP1 PUSH2 0x1296 JUMP JUMPDEST PUSH1 0x40 MLOAD DUP1 SWAP2 SUB SWAP1 REVERT JUMPDEST DUP1 PUSH1 0x1 PUSH0 DUP6 PUSH20 0xFFFFFFFFFFFFFFFFFFFFFFFFFFFFFFFFFFFFFFFF AND PUSH20 0xFFFFFFFFFFFFFFFFFFFFFFFFFFFFFFFFFFFFFFFF AND DUP2 MSTORE PUSH1 0x20 ADD SWAP1 DUP2 MSTORE PUSH1 0x20 ADD PUSH0 KECCAK256 PUSH0 DUP5 PUSH20 0xFFFFFFFFFFFFFFFFFFFFFFFFFFFFFFFFFFFFFFFF AND PUSH20 0xFFFFFFFFFFFFFFFFFFFFFFFFFFFFFFFFFFFFFFFF AND DUP2 MSTORE PUSH1 0x20 ADD SWAP1 DUP2 MSTORE PUSH1 0x20 ADD PUSH0 KECCAK256 DUP2 SWAP1 SSTORE POP DUP2 PUSH20 0xFFFFFFFFFFFFFFFFFFFFFFFFFFFFFFFFFFFFFFFF AND DUP4 PUSH20 0xFFFFFFFFFFFFFFFFFFFFFFFFFFFFFFFFFFFFFFFF AND PUSH32 0x8C5BE1E5EBEC7D5BD14F71427D1E84F3DD0314C0F7B2291E5B200AC8C7C3B925 DUP4 PUSH1 0x40 MLOAD PUSH2 0x887 SWAP2 SWAP1 PUSH2 0xE91 JUMP JUMPDEST PUSH1 0x40 MLOAD DUP1 SWAP2 SUB SWAP1 LOG3 POP POP POP JUMP JUMPDEST PUSH0 PUSH2 0x89F DUP5 DUP5 PUSH2 0x5C6 JUMP JUMPDEST SWAP1 POP PUSH32 0xFFFFFFFFFFFFFFFFFFFFFFFFFFFFFFFFFFFFFFFFFFFFFFFFFFFFFFFFFFFFFFFF DUP2 EQ PUSH2 0x919 JUMPI DUP2 DUP2 LT ISZERO PUSH2 0x90B JUMPI PUSH1 0x40 MLOAD PUSH32 0x8C379A000000000000000000000000000000000000000000000000000000000 DUP2 MSTORE PUSH1 0x4 ADD PUSH2 0x902 SWAP1 PUSH2 0x12FE JUMP JUMPDEST PUSH1 0x40 MLOAD DUP1 SWAP2 SUB SWAP1 REVERT JUMPDEST PUSH2 0x918 DUP5 DUP5 DUP5 DUP5 SUB PUSH2 0x6D1 JUMP JUMPDEST JUMPDEST POP POP POP POP JUMP JUMPDEST PUSH0 PUSH20 0xFFFFFFFFFFFFFFFFFFFFFFFFFFFFFFFFFFFFFFFF AND DUP4 PUSH20 0xFFFFFFFFFFFFFFFFFFFFFFFFFFFFFFFFFFFFFFFF AND SUB PUSH2 0x98D JUMPI PUSH1 0x40 MLOAD PUSH32 0x8C379A000000000000000000000000000000000000000000000000000000000 DUP2 MSTORE PUSH1 0x4 ADD PUSH2 0x984 SWAP1 PUSH2 0x138C JUMP JUMPDEST PUSH1 0x40 MLOAD DUP1 SWAP2 SUB SWAP1 REVERT JUMPDEST PUSH0 PUSH20 0xFFFFFFFFFFFFFFFFFFFFFFFFFFFFFFFFFFFFFFFF AND DUP3 PUSH20 0xFFFFFFFFFFFFFFFFFFFFFFFFFFFFFFFFFFFFFFFF AND SUB PUSH2 0x9FB JUMPI PUSH1 0x40 MLOAD PUSH32 0x8C379A000000000000000000000000000000000000000000000000000000000 DUP2 MSTORE PUSH1 0x4 ADD PUSH2 0x9F2 SWAP1 PUSH2 0x141A JUMP JUMPDEST PUSH1 0x40 MLOAD DUP1 SWAP2 SUB SWAP1 REVERT JUMPDEST PUSH2 0xA06 DUP4 DUP4 DUP4 PUSH2 0xCCC JUMP JUMPDEST PUSH0 DUP1 PUSH0 DUP6 PUSH20 0xFFFFFFFFFFFFFFFFFFFFFFFFFFFFFFFFFFFFFFFF AND PUSH20 0xFFFFFFFFFFFFFFFFFFFFFFFFFFFFFFFFFFFFFFFF AND DUP2 MSTORE PUSH1 0x20 ADD SWAP1 DUP2 MSTORE PUSH1 0x20 ADD PUSH0 KECCAK256 SLOAD SWAP1 POP DUP2 DUP2 LT ISZERO PUSH2 0xA89 JUMPI PUSH1 0x40 MLOAD PUSH32 0x8C379A000000000000000000000000000000000000000000000000000000000 DUP2 MSTORE PUSH1 0x4 ADD PUSH2 0xA80 SWAP1 PUSH2 0x14A8 JUMP JUMPDEST PUSH1 0x40 MLOAD DUP1 SWAP2 SUB SWAP1 REVERT JUMPDEST DUP2 DUP2 SUB PUSH0 DUP1 DUP7 PUSH20 0xFFFFFFFFFFFFFFFFFFFFFFFFFFFFFFFFFFFFFFFF AND PUSH20 0xFFFFFFFFFFFFFFFFFFFFFFFFFFFFFFFFFFFFFFFF AND DUP2 MSTORE PUSH1 0x20 ADD SWAP1 DUP2 MSTORE PUSH1 0x20 ADD PUSH0 KECCAK256 DUP2 SWAP1 SSTORE POP DUP2 PUSH0 DUP1 DUP6 PUSH20 0xFFFFFFFFFFFFFFFFFFFFFFFFFFFFFFFFFFFFFFFF AND PUSH20 0xFFFFFFFFFFFFFFFFFFFFFFFFFFFFFFFFFFFFFFFF AND DUP2 MSTORE PUSH1 0x20 ADD SWAP1 DUP2 MSTORE PUSH1 0x20 ADD PUSH0 KECCAK256 PUSH0 DUP3 DUP3 SLOAD ADD SWAP3 POP POP DUP2 SWAP1 SSTORE POP DUP3 PUSH20 0xFFFFFFFFFFFFFFFFFFFFFFFFFFFFFFFFFFFFFFFF AND DUP5 PUSH20 0xFFFFFFFFFFFFFFFFFFFFFFFFFFFFFFFFFFFFFFFF AND PUSH32 0xDDF252AD1BE2C89B69C2B068FC378DAA952BA7F163C4A11628F55A4DF523B3EF DUP5 PUSH1 0x40 MLOAD PUSH2 0xB72 SWAP2 SWAP1 PUSH2 0xE91 JUMP JUMPDEST PUSH1 0x40 MLOAD DUP1 SWAP2 SUB SWAP1 LOG3 PUSH2 0xB85 DUP5 DUP5 DUP5 PUSH2 0xCD1 JUMP JUMPDEST POP POP POP POP JUMP JUMPDEST PUSH2 0xB93 PUSH2 0x6CA JUMP JUMPDEST PUSH20 0xFFFFFFFFFFFFFFFFFFFFFFFFFFFFFFFFFFFFFFFF AND PUSH2 0xBB1 PUSH2 0x477 JUMP JUMPDEST PUSH20 0xFFFFFFFFFFFFFFFFFFFFFFFFFFFFFFFFFFFFFFFF AND EQ PUSH2 0xC07 JUMPI PUSH1 0x40 MLOAD PUSH32 0x8C379A000000000000000000000000000000000000000000000000000000000 DUP2 MSTORE PUSH1 0x4 ADD PUSH2 0xBFE SWAP1 PUSH2 0x1510 JUMP JUMPDEST PUSH1 0x40 MLOAD DUP1 SWAP2 SUB SWAP1 REVERT JUMPDEST JUMP JUMPDEST PUSH0 PUSH1 0x5 PUSH0 SWAP1 SLOAD SWAP1 PUSH2 0x100 EXP SWAP1 DIV PUSH20 0xFFFFFFFFFFFFFFFFFFFFFFFFFFFFFFFFFFFFFFFF AND SWAP1 POP DUP2 PUSH1 0x5 PUSH0 PUSH2 0x100 EXP DUP2 SLOAD DUP2 PUSH20 0xFFFFFFFFFFFFFFFFFFFFFFFFFFFFFFFFFFFFFFFF MUL NOT AND SWAP1 DUP4 PUSH20 0xFFFFFFFFFFFFFFFFFFFFFFFFFFFFFFFFFFFFFFFF AND MUL OR SWAP1 SSTORE POP DUP2 PUSH20 0xFFFFFFFFFFFFFFFFFFFFFFFFFFFFFFFFFFFFFFFF AND DUP2 PUSH20 0xFFFFFFFFFFFFFFFFFFFFFFFFFFFFFFFFFFFFFFFF AND PUSH32 0x8BE0079C531659141344CD1FD0A4F28419497F9722A3DAAFE3B4186F6B6457E0 PUSH1 0x40 MLOAD PUSH1 0x40 MLOAD DUP1 SWAP2 SUB SWAP1 LOG3 POP POP JUMP JUMPDEST POP POP POP JUMP JUMPDEST POP POP POP JUMP JUMPDEST PUSH0 DUP2 MLOAD SWAP1 POP SWAP2 SWAP1 POP JUMP JUMPDEST PUSH0 DUP3 DUP3 MSTORE PUSH1 0x20 DUP3 ADD SWAP1 POP SWAP3 SWAP2 POP POP JUMP JUMPDEST PUSH0 JUMPDEST DUP4 DUP2 LT ISZERO PUSH2 0xD0D JUMPI DUP1 DUP3 ADD MLOAD DUP2 DUP5 ADD MSTORE PUSH1 0x20 DUP2 ADD SWAP1 POP PUSH2 0xCF2 JUMP JUMPDEST PUSH0 DUP5 DUP5 ADD MSTORE POP POP POP POP JUMP JUMPDEST PUSH0 PUSH1 0x1F NOT PUSH1 0x1F DUP4 ADD AND SWAP1 POP SWAP2 SWAP1 POP JUMP JUMPDEST PUSH0 PUSH2 0xD32 DUP3 PUSH2 0xCD6 JUMP JUMPDEST PUSH2 0xD3C DUP2 DUP6 PUSH2 0xCE0 JUMP JUMPDEST SWAP4 POP PUSH2 0xD4C DUP2 DUP6 PUSH1 0x20 DUP7 ADD PUSH2 0xCF0 JUMP JUMPDEST PUSH2 0xD55 DUP2 PUSH2 0xD18 JUMP JUMPDEST DUP5 ADD SWAP2 POP POP SWAP3 SWAP2 POP POP JUMP JUMPDEST PUSH0 PUSH1 0x20 DUP3 ADD SWAP1 POP DUP2 DUP2 SUB PUSH0 DUP4 ADD MSTORE PUSH2 0xD78 DUP2 DUP5 PUSH2 0xD28 JUMP JUMPDEST SWAP1 POP SWAP3 SWAP2 POP POP JUMP JUMPDEST PUSH0 DUP1 REVERT JUMPDEST PUSH0 PUSH20 0xFFFFFFFFFFFFFFFFFFFFFFFFFFFFFFFFFFFFFFFF DUP3 AND SWAP1 POP SWAP2 SWAP1 POP JUMP JUMPDEST PUSH0 PUSH2 0xDAD DUP3 PUSH2 0xD84 JUMP JUMPDEST SWAP1 POP SWAP2 SWAP1 POP JUMP JUMPDEST PUSH2 0xDBD DUP2 PUSH2 0xDA3 JUMP JUMPDEST DUP2 EQ PUSH2 0xDC7 JUMPI PUSH0 DUP1 REVERT JUMPDEST POP JUMP JUMPDEST PUSH0 DUP2 CALLDATALOAD SWAP1 POP PUSH2 0xDD8 DUP2 PUSH2 0xDB4 JUMP JUMPDEST SWAP3 SWAP2 POP POP JUMP JUMPDEST PUSH0 DUP2 SWAP1 POP SWAP2 SWAP1 POP JUMP JUMPDEST PUSH2 0xDF0 DUP2 PUSH2 0xDDE JUMP JUMPDEST DUP2 EQ PUSH2 0xDFA JUMPI PUSH0 DUP1 REVERT JUMPDEST POP JUMP JUMPDEST PUSH0 DUP2 CALLDATALOAD SWAP1 POP PUSH2 0xE0B DUP2 PUSH2 0xDE7 JUMP JUMPDEST SWAP3 SWAP2 POP POP JUMP JUMPDEST PUSH0 DUP1 PUSH1 0x40 DUP4 DUP6 SUB SLT ISZERO PUSH2 0xE27 JUMPI PUSH2 0xE26 PUSH2 0xD80 JUMP JUMPDEST JUMPDEST PUSH0 PUSH2 0xE34 DUP6 DUP3 DUP7 ADD PUSH2 0xDCA JUMP JUMPDEST SWAP3 POP POP PUSH1 0x20 PUSH2 0xE45 DUP6 DUP3 DUP7 ADD PUSH2 0xDFD JUMP JUMPDEST SWAP2 POP POP SWAP3 POP SWAP3 SWAP1 POP JUMP JUMPDEST PUSH0 DUP2 ISZERO ISZERO SWAP1 POP SWAP2 SWAP1 POP JUMP JUMPDEST PUSH2 0xE63 DUP2 PUSH2 0xE4F JUMP JUMPDEST DUP3 MSTORE POP POP JUMP JUMPDEST PUSH0 PUSH1 0x20 DUP3 ADD SWAP1 POP PUSH2 0xE7C PUSH0 DUP4 ADD DUP5 PUSH2 0xE5A JUMP JUMPDEST SWAP3 SWAP2 POP POP JUMP JUMPDEST PUSH2 0xE8B DUP2 PUSH2 0xDDE JUMP JUMPDEST DUP3 MSTORE POP POP JUMP JUMPDEST PUSH0 PUSH1 0x20 DUP3 ADD SWAP1 POP PUSH2 0xEA4 PUSH0 DUP4 ADD DUP5 PUSH2 0xE82 JUMP JUMPDEST SWAP3 SWAP2 POP POP JUMP JUMPDEST PUSH0 DUP1 PUSH0 PUSH1 0x60 DUP5 DUP7 SUB SLT ISZERO PUSH2 0xEC1 JUMPI PUSH2 0xEC0 PUSH2 0xD80 JUMP JUMPDEST JUMPDEST PUSH0 PUSH2 0xECE DUP7 DUP3 DUP8 ADD PUSH2 0xDCA JUMP JUMPDEST SWAP4 POP POP PUSH1 0x20 PUSH2 0xEDF DUP7 DUP3 DUP8 ADD PUSH2 0xDCA JUMP JUMPDEST SWAP3 POP POP PUSH1 0x40 PUSH2 0xEF0 DUP7 DUP3 DUP8 ADD PUSH2 0xDFD JUMP JUMPDEST SWAP2 POP POP SWAP3 POP SWAP3 POP SWAP3 JUMP JUMPDEST PUSH0 PUSH1 0xFF DUP3 AND SWAP1 POP SWAP2 SWAP1 POP JUMP JUMPDEST PUSH2 0xF0F DUP2 PUSH2 0xEFA JUMP JUMPDEST DUP3 MSTORE POP POP JUMP JUMPDEST PUSH0 PUSH1 0x20 DUP3 ADD SWAP1 POP PUSH2 0xF28 PUSH0 DUP4 ADD DUP5 PUSH2 0xF06 JUMP JUMPDEST SWAP3 SWAP2 POP POP JUMP JUMPDEST PUSH0 PUSH1 0x20 DUP3 DUP5 SUB SLT ISZERO PUSH2 0xF43 JUMPI PUSH2 0xF42 PUSH2 0xD80 JUMP JUMPDEST JUMPDEST PUSH0 PUSH2 0xF50 DUP5 DUP3 DUP6 ADD PUSH2 0xDCA JUMP JUMPDEST SWAP2 POP POP SWAP3 SWAP2 POP POP JUMP JUMPDEST PUSH2 0xF62 DUP2 PUSH2 0xDA3 JUMP JUMPDEST DUP3 MSTORE POP POP JUMP JUMPDEST PUSH0 PUSH1 0x20 DUP3 ADD SWAP1 POP PUSH2 0xF7B PUSH0 DUP4 ADD DUP5 PUSH2 0xF59 JUMP JUMPDEST SWAP3 SWAP2 POP POP JUMP JUMPDEST PUSH0 DUP1 PUSH1 0x40 DUP4 DUP6 SUB SLT ISZERO PUSH2 0xF97 JUMPI PUSH2 0xF96 PUSH2 0xD80 JUMP JUMPDEST JUMPDEST PUSH0 PUSH2 0xFA4 DUP6 DUP3 DUP7 ADD PUSH2 0xDCA JUMP JUMPDEST SWAP3 POP POP PUSH1 0x20 PUSH2 0xFB5 DUP6 DUP3 DUP7 ADD PUSH2 0xDCA JUMP JUMPDEST SWAP2 POP POP SWAP3 POP SWAP3 SWAP1 POP JUMP JUMPDEST PUSH32 0x4E487B7100000000000000000000000000000000000000000000000000000000 PUSH0 MSTORE PUSH1 0x22 PUSH1 0x4 MSTORE PUSH1 0x24 PUSH0 REVERT JUMPDEST PUSH0 PUSH1 0x2 DUP3 DIV SWAP1 POP PUSH1 0x1 DUP3 AND DUP1 PUSH2 0x1003 JUMPI PUSH1 0x7F DUP3 AND SWAP2 POP JUMPDEST PUSH1 0x20 DUP3 LT DUP2 SUB PUSH2 0x1016 JUMPI PUSH2 0x1015 PUSH2 0xFBF JUMP JUMPDEST JUMPDEST POP SWAP2 SWAP1 POP JUMP JUMPDEST PUSH32 0x4E487B7100000000000000000000000000000000000000000000000000000000 PUSH0 MSTORE PUSH1 0x11 PUSH1 0x4 MSTORE PUSH1 0x24 PUSH0 REVERT JUMPDEST PUSH0 PUSH2 0x1053 DUP3 PUSH2 0xDDE JUMP JUMPDEST SWAP2 POP PUSH2 0x105E DUP4 PUSH2 0xDDE JUMP JUMPDEST SWAP3 POP DUP3 DUP3 ADD SWAP1 POP DUP1 DUP3 GT ISZERO PUSH2 0x1076 JUMPI PUSH2 0x1075 PUSH2 0x101C JUMP JUMPDEST JUMPDEST SWAP3 SWAP2 POP POP JUMP JUMPDEST PUSH32 0x45524332303A2064656372656173656420616C6C6F77616E63652062656C6F77 PUSH0 DUP3 ADD MSTORE PUSH32 0x207A65726F000000000000000000000000000000000000000000000000000000 PUSH1 0x20 DUP3 ADD MSTORE POP JUMP JUMPDEST PUSH0 PUSH2 0x10D6 PUSH1 0x25 DUP4 PUSH2 0xCE0 JUMP JUMPDEST SWAP2 POP PUSH2 0x10E1 DUP3 PUSH2 0x107C JUMP JUMPDEST PUSH1 0x40 DUP3 ADD SWAP1 POP SWAP2 SWAP1 POP JUMP JUMPDEST PUSH0 PUSH1 0x20 DUP3 ADD SWAP1 POP DUP2 DUP2 SUB PUSH0 DUP4 ADD MSTORE PUSH2 0x1103 DUP2 PUSH2 0x10CA JUMP JUMPDEST SWAP1 POP SWAP2 SWAP1 POP JUMP JUMPDEST PUSH32 0x4F776E61626C653A206E6577206F776E657220697320746865207A65726F2061 PUSH0 DUP3 ADD MSTORE PUSH32 0x6464726573730000000000000000000000000000000000000000000000000000 PUSH1 0x20 DUP3 ADD MSTORE POP JUMP JUMPDEST PUSH0 PUSH2 0x1164 PUSH1 0x26 DUP4 PUSH2 0xCE0 JUMP JUMPDEST SWAP2 POP PUSH2 0x116F DUP3 PUSH2 0x110A JUMP JUMPDEST PUSH1 0x40 DUP3 ADD SWAP1 POP SWAP2 SWAP1 POP JUMP JUMPDEST PUSH0 PUSH1 0x20 DUP3 ADD SWAP1 POP DUP2 DUP2 SUB PUSH0 DUP4 ADD MSTORE PUSH2 0x1191 DUP2 PUSH2 0x1158 JUMP JUMPDEST SWAP1 POP SWAP2 SWAP1 POP JUMP JUMPDEST PUSH32 0x45524332303A20617070726F76652066726F6D20746865207A65726F20616464 PUSH0 DUP3 ADD MSTORE PUSH32 0x7265737300000000000000000000000000000000000000000000000000000000 PUSH1 0x20 DUP3 ADD MSTORE POP JUMP JUMPDEST PUSH0 PUSH2 0x11F2 PUSH1 0x24 DUP4 PUSH2 0xCE0 JUMP JUMPDEST SWAP2 POP PUSH2 0x11FD DUP3 PUSH2 0x1198 JUMP JUMPDEST PUSH1 0x40 DUP3 ADD SWAP1 POP SWAP2 SWAP1 POP JUMP JUMPDEST PUSH0 PUSH1 0x20 DUP3 ADD SWAP1 POP DUP2 DUP2 SUB PUSH0 DUP4 ADD MSTORE PUSH2 0x121F DUP2 PUSH2 0x11E6 JUMP JUMPDEST SWAP1 POP SWAP2 SWAP1 POP JUMP JUMPDEST PUSH32 0x45524332303A20617070726F766520746F20746865207A65726F206164647265 PUSH0 DUP3 ADD MSTORE PUSH32 0x7373000000000000000000000000000000000000000000000000000000000000 PUSH1 0x20 DUP3 ADD MSTORE POP JUMP JUMPDEST PUSH0 PUSH2 0x1280 PUSH1 0x22 DUP4 PUSH2 0xCE0 JUMP JUMPDEST SWAP2 POP PUSH2 0x128B DUP3 PUSH2 0x1226 JUMP JUMPDEST PUSH1 0x40 DUP3 ADD SWAP1 POP SWAP2 SWAP1 POP JUMP JUMPDEST PUSH0 PUSH1 0x20 DUP3 ADD SWAP1 POP DUP2 DUP2 SUB PUSH0 DUP4 ADD MSTORE PUSH2 0x12AD DUP2 PUSH2 0x1274 JUMP JUMPDEST SWAP1 POP SWAP2 SWAP1 POP JUMP JUMPDEST PUSH32 0x45524332303A20696E73756666696369656E7420616C6C6F77616E6365000000 PUSH0 DUP3 ADD MSTORE POP JUMP JUMPDEST PUSH0 PUSH2 0x12E8 PUSH1 0x1D DUP4 PUSH2 0xCE0 JUMP JUMPDEST SWAP2 POP PUSH2 0x12F3 DUP3 PUSH2 0x12B4 JUMP JUMPDEST PUSH1 0x20 DUP3 ADD SWAP1 POP SWAP2 SWAP1 POP JUMP JUMPDEST PUSH0 PUSH1 0x20 DUP3 ADD SWAP1 POP DUP2 DUP2 SUB PUSH0 DUP4 ADD MSTORE PUSH2 0x1315 DUP2 PUSH2 0x12DC JUMP JUMPDEST SWAP1 POP SWAP2 SWAP1 POP JUMP JUMPDEST PUSH32 0x45524332303A207472616E736665722066726F6D20746865207A65726F206164 PUSH0 DUP3 ADD MSTORE PUSH32 0x6472657373000000000000000000000000000000000000000000000000000000 PUSH1 0x20 DUP3 ADD MSTORE POP JUMP JUMPDEST PUSH0 PUSH2 0x1376 PUSH1 0x25 DUP4 PUSH2 0xCE0 JUMP JUMPDEST SWAP2 POP PUSH2 0x1381 DUP3 PUSH2 0x131C JUMP JUMPDEST PUSH1 0x40 DUP3 ADD SWAP1 POP SWAP2 SWAP1 POP JUMP JUMPDEST PUSH0 PUSH1 0x20 DUP3 ADD SWAP1 POP DUP2 DUP2 SUB PUSH0 DUP4 ADD MSTORE PUSH2 0x13A3 DUP2 PUSH2 0x136A JUMP JUMPDEST SWAP1 POP SWAP2 SWAP1 POP JUMP JUMPDEST PUSH32 0x45524332303A207472616E7366657220746F20746865207A65726F2061646472 PUSH0 DUP3 ADD MSTORE PUSH32 0x6573730000000000000000000000000000000000000000000000000000000000 PUSH1 0x20 DUP3 ADD MSTORE POP JUMP JUMPDEST PUSH0 PUSH2 0x1404 PUSH1 0x23 DUP4 PUSH2 0xCE0 JUMP JUMPDEST SWAP2 POP PUSH2 0x140F DUP3 PUSH2 0x13AA JUMP JUMPDEST PUSH1 0x40 DUP3 ADD SWAP1 POP SWAP2 SWAP1 POP JUMP JUMPDEST PUSH0 PUSH1 0x20 DUP3 ADD SWAP1 POP DUP2 DUP2 SUB PUSH0 DUP4 ADD MSTORE PUSH2 0x1431 DUP2 PUSH2 0x13F8 JUMP JUMPDEST SWAP1 POP SWAP2 SWAP1 POP JUMP JUMPDEST PUSH32 0x45524332303A207472616E7366657220616D6F756E7420657863656564732062 PUSH0 DUP3 ADD MSTORE PUSH32 0x616C616E63650000000000000000000000000000000000000000000000000000 PUSH1 0x20 DUP3 ADD MSTORE POP JUMP JUMPDEST PUSH0 PUSH2 0x1492 PUSH1 0x26 DUP4 PUSH2 0xCE0 JUMP JUMPDEST SWAP2 POP PUSH2 0x149D DUP3 PUSH2 0x1438 JUMP JUMPDEST PUSH1 0x40 DUP3 ADD SWAP1 POP SWAP2 SWAP1 POP JUMP JUMPDEST PUSH0 PUSH1 0x20 DUP3 ADD SWAP1 POP DUP2 DUP2 SUB PUSH0 DUP4 ADD MSTORE PUSH2 0x14BF DUP2 PUSH2 0x1486 JUMP JUMPDEST SWAP1 POP SWAP2 SWAP1 POP JUMP JUMPDEST PUSH32 0x4F776E61626C653A2063616C6C6572206973206E6F7420746865206F776E6572 PUSH0 DUP3 ADD MSTORE POP JUMP JUMPDEST PUSH0 PUSH2 0x14FA PUSH1 0x20 DUP4 PUSH2 0xCE0 JUMP JUMPDEST SWAP2 POP PUSH2 0x1505 DUP3 PUSH2 0x14C6 JUMP JUMPDEST PUSH1 0x20 DUP3 ADD SWAP1 POP SWAP2 SWAP1 POP JUMP JUMPDEST PUSH0 PUSH1 0x20 DUP3 ADD SWAP1 POP DUP2 DUP2 SUB PUSH0 DUP4 ADD MSTORE PUSH2 0x1527 DUP2 PUSH2 0x14EE JUMP JUMPDEST SWAP1 POP SWAP2 SWAP1 POP JUMP INVALID LOG2 PUSH5 0x6970667358 0x22 SLT KECCAK256 0x24 PUSH16 0x4DBAD35FFEB75E50079FF25D586191BF 0xAF LOG3 RETURN PUSH31 0x4B3BDF2725637EB5EF464736F6C6343000814003300000000000000000000 "
				},
				"gasEstimates": {
					"creation": {
						"codeDepositCost": "1095200",
						"executionCost": "infinite",
						"totalCost": "infinite"
					},
					"external": {
						"allowance(address,address)": "infinite",
						"approve(address,uint256)": "infinite",
						"balanceOf(address)": "2918",
						"decimals()": "383",
						"decreaseAllowance(address,uint256)": "infinite",
						"increaseAllowance(address,uint256)": "infinite",
						"name()": "infinite",
						"owner()": "2560",
						"renounceOwnership()": "30413",
						"symbol()": "infinite",
						"totalSupply()": "2500",
						"transfer(address,uint256)": "infinite",
						"transferFrom(address,address,uint256)": "infinite",
						"transferOwnership(address)": "30819"
					}
				},
				"methodIdentifiers": {
					"allowance(address,address)": "dd62ed3e",
					"approve(address,uint256)": "095ea7b3",
					"balanceOf(address)": "70a08231",
					"decimals()": "313ce567",
					"decreaseAllowance(address,uint256)": "a457c2d7",
					"increaseAllowance(address,uint256)": "39509351",
					"name()": "06fdde03",
					"owner()": "8da5cb5b",
					"renounceOwnership()": "715018a6",
					"symbol()": "95d89b41",
					"totalSupply()": "18160ddd",
					"transfer(address,uint256)": "a9059cbb",
					"transferFrom(address,address,uint256)": "23b872dd",
					"transferOwnership(address)": "f2fde38b"
				}
			},
			"storageLayout": {
				"storage": [
					{
						"astId": 244,
						"contract": "contracts/Staking/ERC20_flattened.sol:ERC20FT",
						"label": "_balances",
						"offset": 0,
						"slot": "0",
						"type": "t_mapping(t_address,t_uint256)"
					},
					{
						"astId": 250,
						"contract": "contracts/Staking/ERC20_flattened.sol:ERC20FT",
						"label": "_allowances",
						"offset": 0,
						"slot": "1",
						"type": "t_mapping(t_address,t_mapping(t_address,t_uint256))"
					},
					{
						"astId": 252,
						"contract": "contracts/Staking/ERC20_flattened.sol:ERC20FT",
						"label": "_totalSupply",
						"offset": 0,
						"slot": "2",
						"type": "t_uint256"
					},
					{
						"astId": 254,
						"contract": "contracts/Staking/ERC20_flattened.sol:ERC20FT",
						"label": "_name",
						"offset": 0,
						"slot": "3",
						"type": "t_string_storage"
					},
					{
						"astId": 256,
						"contract": "contracts/Staking/ERC20_flattened.sol:ERC20FT",
						"label": "_symbol",
						"offset": 0,
						"slot": "4",
						"type": "t_string_storage"
					},
					{
						"astId": 27,
						"contract": "contracts/Staking/ERC20_flattened.sol:ERC20FT",
						"label": "_owner",
						"offset": 0,
						"slot": "5",
						"type": "t_address"
					}
				],
				"types": {
					"t_address": {
						"encoding": "inplace",
						"label": "address",
						"numberOfBytes": "20"
					},
					"t_mapping(t_address,t_mapping(t_address,t_uint256))": {
						"encoding": "mapping",
						"key": "t_address",
						"label": "mapping(address => mapping(address => uint256))",
						"numberOfBytes": "32",
						"value": "t_mapping(t_address,t_uint256)"
					},
					"t_mapping(t_address,t_uint256)": {
						"encoding": "mapping",
						"key": "t_address",
						"label": "mapping(address => uint256)",
						"numberOfBytes": "32",
						"value": "t_uint256"
					},
					"t_string_storage": {
						"encoding": "bytes",
						"label": "string",
						"numberOfBytes": "32"
					},
					"t_uint256": {
						"encoding": "inplace",
						"label": "uint256",
						"numberOfBytes": "32"
					}
				}
			},
			"userdoc": {
				"kind": "user",
				"methods": {},
				"version": 1
			}
		}
	}
}