{
	"contracts/Staking/staking.sol": {
		"TokenStaking": {
			"abi": [
				{
					"inputs": [
						{
							"internalType": "address",
							"name": "_ERC20Address",
							"type": "address"
						}
					],
					"stateMutability": "nonpayable",
					"type": "constructor"
				},
				{
					"anonymous": false,
					"inputs": [
						{
							"indexed": true,
							"internalType": "address",
							"name": "previousOwner",
							"type": "address"
						},
						{
							"indexed": true,
							"internalType": "address",
							"name": "newOwner",
							"type": "address"
						}
					],
					"name": "OwnershipTransferred",
					"type": "event"
				},
				{
					"inputs": [
						{
							"internalType": "uint256",
							"name": "",
							"type": "uint256"
						}
					],
					"name": "APY",
					"outputs": [
						{
							"internalType": "uint256",
							"name": "",
							"type": "uint256"
						}
					],
					"stateMutability": "view",
					"type": "function"
				},
				{
					"inputs": [
						{
							"internalType": "uint256",
							"name": "",
							"type": "uint256"
						}
					],
					"name": "APYPer",
					"outputs": [
						{
							"internalType": "uint256",
							"name": "",
							"type": "uint256"
						}
					],
					"stateMutability": "view",
					"type": "function"
				},
				{
					"inputs": [
						{
							"internalType": "uint256",
							"name": "_amount",
							"type": "uint256"
						}
					],
					"name": "AdminAddToken",
					"outputs": [],
					"stateMutability": "nonpayable",
					"type": "function"
				},
				{
					"inputs": [
						{
							"internalType": "address",
							"name": "to",
							"type": "address"
						}
					],
					"name": "ClaimRewards",
					"outputs": [],
					"stateMutability": "nonpayable",
					"type": "function"
				},
				{
					"inputs": [
						{
							"internalType": "address",
							"name": "to",
							"type": "address"
						},
						{
							"internalType": "uint256",
							"name": "_payment",
							"type": "uint256"
						},
						{
							"internalType": "uint256",
							"name": "StakeMonth",
							"type": "uint256"
						},
						{
							"internalType": "uint256",
							"name": "EarnPersentage",
							"type": "uint256"
						}
					],
					"name": "DepositTokens",
					"outputs": [],
					"stateMutability": "nonpayable",
					"type": "function"
				},
				{
					"inputs": [
						{
							"internalType": "address",
							"name": "",
							"type": "address"
						}
					],
					"name": "Details",
					"outputs": [
						{
							"internalType": "uint256",
							"name": "depositTokens",
							"type": "uint256"
						},
						{
							"internalType": "uint256",
							"name": "stakeTime",
							"type": "uint256"
						},
						{
							"internalType": "uint256",
							"name": "StakeMonth",
							"type": "uint256"
						},
						{
							"internalType": "uint256",
							"name": "EarnPersentage",
							"type": "uint256"
						},
						{
							"internalType": "bool",
							"name": "check",
							"type": "bool"
						}
					],
					"stateMutability": "view",
					"type": "function"
				},
				{
					"inputs": [],
					"name": "ERC20Address",
					"outputs": [
						{
							"internalType": "address",
							"name": "",
							"type": "address"
						}
					],
					"stateMutability": "view",
					"type": "function"
				},
				{
					"inputs": [
						{
							"internalType": "address",
							"name": "",
							"type": "address"
						}
					],
					"name": "InterestAmount",
					"outputs": [
						{
							"internalType": "uint256",
							"name": "",
							"type": "uint256"
						}
					],
					"stateMutability": "view",
					"type": "function"
				},
				{
					"inputs": [
						{
							"internalType": "uint256",
							"name": "Month1",
							"type": "uint256"
						},
						{
							"internalType": "uint256",
							"name": "Month2",
							"type": "uint256"
						},
						{
							"internalType": "uint256",
							"name": "Month3",
							"type": "uint256"
						}
					],
					"name": "SetAPY",
					"outputs": [],
					"stateMutability": "nonpayable",
					"type": "function"
				},
				{
					"inputs": [
						{
							"internalType": "uint256",
							"name": "Month1Per",
							"type": "uint256"
						},
						{
							"internalType": "uint256",
							"name": "Month2Per",
							"type": "uint256"
						},
						{
							"internalType": "uint256",
							"name": "Month3Per",
							"type": "uint256"
						}
					],
					"name": "SetRewardPersentage",
					"outputs": [],
					"stateMutability": "nonpayable",
					"type": "function"
				},
				{
					"inputs": [
						{
							"internalType": "address",
							"name": "",
							"type": "address"
						}
					],
					"name": "Tokens",
					"outputs": [
						{
							"internalType": "uint256",
							"name": "",
							"type": "uint256"
						}
					],
					"stateMutability": "view",
					"type": "function"
				},
				{
					"inputs": [
						{
							"internalType": "address",
							"name": "to",
							"type": "address"
						}
					],
					"name": "WithdrawTokens",
					"outputs": [],
					"stateMutability": "nonpayable",
					"type": "function"
				},
				{
					"inputs": [],
					"name": "getTaxPenalty",
					"outputs": [
						{
							"internalType": "uint256",
							"name": "tax",
							"type": "uint256"
						},
						{
							"internalType": "uint256",
							"name": "pen",
							"type": "uint256"
						}
					],
					"stateMutability": "view",
					"type": "function"
				},
				{
					"inputs": [],
					"name": "owner",
					"outputs": [
						{
							"internalType": "address",
							"name": "",
							"type": "address"
						}
					],
					"stateMutability": "view",
					"type": "function"
				},
				{
					"inputs": [],
					"name": "renounceOwnership",
					"outputs": [],
					"stateMutability": "nonpayable",
					"type": "function"
				},
				{
					"inputs": [
						{
							"internalType": "uint256",
							"name": "taxFee",
							"type": "uint256"
						},
						{
							"internalType": "uint256",
							"name": "_penalty",
							"type": "uint256"
						}
					],
					"name": "setTexAndPenalty",
					"outputs": [],
					"stateMutability": "nonpayable",
					"type": "function"
				},
				{
					"inputs": [],
					"name": "totalStakedTokens",
					"outputs": [
						{
							"internalType": "uint256",
							"name": "",
							"type": "uint256"
						}
					],
					"stateMutability": "view",
					"type": "function"
				},
				{
					"inputs": [
						{
							"internalType": "address",
							"name": "newOwner",
							"type": "address"
						}
					],
					"name": "transferOwnership",
					"outputs": [],
					"stateMutability": "nonpayable",
					"type": "function"
				},
				{
					"inputs": [
						{
							"internalType": "address",
							"name": "to",
							"type": "address"
						}
					],
					"name": "viewRewards",
					"outputs": [
						{
							"internalType": "uint256",
							"name": "reward",
							"type": "uint256"
						}
					],
					"stateMutability": "view",
					"type": "function"
				}
			],
			"devdoc": {
				"kind": "dev",
				"methods": {
					"owner()": {
						"details": "Returns the address of the current owner."
					},
					"renounceOwnership()": {
						"details": "Leaves the contract without owner. It will not be possible to call `onlyOwner` functions anymore. Can only be called by the current owner. NOTE: Renouncing ownership will leave the contract without an owner, thereby removing any functionality that is only available to the owner."
					},
					"transferOwnership(address)": {
						"details": "Transfers ownership of the contract to a new account (`newOwner`). Can only be called by the current owner."
					}
				},
				"version": 1
			},
			"evm": {
				"assembly": "    /* \"contracts/Staking/staking.sol\":282:8719  contract TokenStaking is Ownable{... */\n  mstore(0x40, 0x80)\n    /* \"contracts/Staking/staking.sol\":1102:1217  constructor(address _ERC20Address) {... */\n  callvalue\n  dup1\n  iszero\n  tag_1\n  jumpi\n  0x00\n  dup1\n  revert\ntag_1:\n  pop\n  mload(0x40)\n  sub(codesize, bytecodeSize)\n  dup1\n  bytecodeSize\n  dup4\n  codecopy\n  dup2\n  dup2\n  add\n  0x40\n  mstore\n  dup2\n  add\n  swap1\n  tag_2\n  swap2\n  swap1\n  tag_3\n  jump\t// in\ntag_2:\n    /* \"@openzeppelin/contracts/access/Ownable.sol\":936:968  _transferOwnership(_msgSender()) */\n  tag_7\n    /* \"@openzeppelin/contracts/access/Ownable.sol\":955:967  _msgSender() */\n  tag_8\n    /* \"@openzeppelin/contracts/access/Ownable.sol\":955:965  _msgSender */\n  shl(0x20, tag_9)\n    /* \"@openzeppelin/contracts/access/Ownable.sol\":955:967  _msgSender() */\n  0x20\n  shr\n  jump\t// in\ntag_8:\n    /* \"@openzeppelin/contracts/access/Ownable.sol\":936:954  _transferOwnership */\n  shl(0x20, tag_10)\n    /* \"@openzeppelin/contracts/access/Ownable.sol\":936:968  _transferOwnership(_msgSender()) */\n  0x20\n  shr\n  jump\t// in\ntag_7:\n    /* \"contracts/Staking/staking.sol\":1162:1175  _ERC20Address */\n  dup1\n    /* \"contracts/Staking/staking.sol\":1147:1159  ERC20Address */\n  0x01\n  0x00\n    /* \"contracts/Staking/staking.sol\":1147:1175  ERC20Address = _ERC20Address */\n  0x0100\n  exp\n  dup2\n  sload\n  dup2\n  0xffffffffffffffffffffffffffffffffffffffff\n  mul\n  not\n  and\n  swap1\n  dup4\n  0xffffffffffffffffffffffffffffffffffffffff\n  and\n  mul\n  or\n  swap1\n  sstore\n  pop\n    /* \"contracts/Staking/staking.sol\":1200:1210  msg.sender */\n  caller\n    /* \"contracts/Staking/staking.sol\":1185:1197  ownerAddress */\n  0x02\n  0x00\n    /* \"contracts/Staking/staking.sol\":1185:1210  ownerAddress = msg.sender */\n  0x0100\n  exp\n  dup2\n  sload\n  dup2\n  0xffffffffffffffffffffffffffffffffffffffff\n  mul\n  not\n  and\n  swap1\n  dup4\n  0xffffffffffffffffffffffffffffffffffffffff\n  and\n  mul\n  or\n  swap1\n  sstore\n  pop\n    /* \"contracts/Staking/staking.sol\":1102:1217  constructor(address _ERC20Address) {... */\n  pop\n    /* \"contracts/Staking/staking.sol\":282:8719  contract TokenStaking is Ownable{... */\n  jump(tag_12)\n    /* \"@openzeppelin/contracts/utils/Context.sol\":640:736  function _msgSender() internal view virtual returns (address) {... */\ntag_9:\n    /* \"@openzeppelin/contracts/utils/Context.sol\":693:700  address */\n  0x00\n    /* \"@openzeppelin/contracts/utils/Context.sol\":719:729  msg.sender */\n  caller\n    /* \"@openzeppelin/contracts/utils/Context.sol\":712:729  return msg.sender */\n  swap1\n  pop\n    /* \"@openzeppelin/contracts/utils/Context.sol\":640:736  function _msgSender() internal view virtual returns (address) {... */\n  swap1\n  jump\t// out\n    /* \"@openzeppelin/contracts/access/Ownable.sol\":2433:2620  function _transferOwnership(address newOwner) internal virtual {... */\ntag_10:\n    /* \"@openzeppelin/contracts/access/Ownable.sol\":2506:2522  address oldOwner */\n  0x00\n    /* \"@openzeppelin/contracts/access/Ownable.sol\":2525:2531  _owner */\n  dup1\n  0x00\n  swap1\n  sload\n  swap1\n  0x0100\n  exp\n  swap1\n  div\n  0xffffffffffffffffffffffffffffffffffffffff\n  and\n    /* \"@openzeppelin/contracts/access/Ownable.sol\":2506:2531  address oldOwner = _owner */\n  swap1\n  pop\n    /* \"@openzeppelin/contracts/access/Ownable.sol\":2550:2558  newOwner */\n  dup2\n    /* \"@openzeppelin/contracts/access/Ownable.sol\":2541:2547  _owner */\n  0x00\n  dup1\n    /* \"@openzeppelin/contracts/access/Ownable.sol\":2541:2558  _owner = newOwner */\n  0x0100\n  exp\n  dup2\n  sload\n  dup2\n  0xffffffffffffffffffffffffffffffffffffffff\n  mul\n  not\n  and\n  swap1\n  dup4\n  0xffffffffffffffffffffffffffffffffffffffff\n  and\n  mul\n  or\n  swap1\n  sstore\n  pop\n    /* \"@openzeppelin/contracts/access/Ownable.sol\":2604:2612  newOwner */\n  dup2\n    /* \"@openzeppelin/contracts/access/Ownable.sol\":2573:2613  OwnershipTransferred(oldOwner, newOwner) */\n  0xffffffffffffffffffffffffffffffffffffffff\n  and\n    /* \"@openzeppelin/contracts/access/Ownable.sol\":2594:2602  oldOwner */\n  dup2\n    /* \"@openzeppelin/contracts/access/Ownable.sol\":2573:2613  OwnershipTransferred(oldOwner, newOwner) */\n  0xffffffffffffffffffffffffffffffffffffffff\n  and\n  0x8be0079c531659141344cd1fd0a4f28419497f9722a3daafe3b4186f6b6457e0\n  mload(0x40)\n  mload(0x40)\n  dup1\n  swap2\n  sub\n  swap1\n  log3\n    /* \"@openzeppelin/contracts/access/Ownable.sol\":2496:2620  {... */\n  pop\n    /* \"@openzeppelin/contracts/access/Ownable.sol\":2433:2620  function _transferOwnership(address newOwner) internal virtual {... */\n  pop\n  jump\t// out\n    /* \"#utility.yul\":88:205   */\ntag_16:\n    /* \"#utility.yul\":197:198   */\n  0x00\n    /* \"#utility.yul\":194:195   */\n  dup1\n    /* \"#utility.yul\":187:199   */\n  revert\n    /* \"#utility.yul\":334:460   */\ntag_18:\n    /* \"#utility.yul\":371:378   */\n  0x00\n    /* \"#utility.yul\":411:453   */\n  0xffffffffffffffffffffffffffffffffffffffff\n    /* \"#utility.yul\":404:409   */\n  dup3\n    /* \"#utility.yul\":400:454   */\n  and\n    /* \"#utility.yul\":389:454   */\n  swap1\n  pop\n    /* \"#utility.yul\":334:460   */\n  swap2\n  swap1\n  pop\n  jump\t// out\n    /* \"#utility.yul\":466:562   */\ntag_19:\n    /* \"#utility.yul\":503:510   */\n  0x00\n    /* \"#utility.yul\":532:556   */\n  tag_28\n    /* \"#utility.yul\":550:555   */\n  dup3\n    /* \"#utility.yul\":532:556   */\n  tag_18\n  jump\t// in\ntag_28:\n    /* \"#utility.yul\":521:556   */\n  swap1\n  pop\n    /* \"#utility.yul\":466:562   */\n  swap2\n  swap1\n  pop\n  jump\t// out\n    /* \"#utility.yul\":568:690   */\ntag_20:\n    /* \"#utility.yul\":641:665   */\n  tag_30\n    /* \"#utility.yul\":659:664   */\n  dup2\n    /* \"#utility.yul\":641:665   */\n  tag_19\n  jump\t// in\ntag_30:\n    /* \"#utility.yul\":634:639   */\n  dup2\n    /* \"#utility.yul\":631:666   */\n  eq\n    /* \"#utility.yul\":621:684   */\n  tag_31\n  jumpi\n    /* \"#utility.yul\":680:681   */\n  0x00\n    /* \"#utility.yul\":677:678   */\n  dup1\n    /* \"#utility.yul\":670:682   */\n  revert\n    /* \"#utility.yul\":621:684   */\ntag_31:\n    /* \"#utility.yul\":568:690   */\n  pop\n  jump\t// out\n    /* \"#utility.yul\":696:839   */\ntag_21:\n    /* \"#utility.yul\":753:758   */\n  0x00\n    /* \"#utility.yul\":784:790   */\n  dup2\n    /* \"#utility.yul\":778:791   */\n  mload\n    /* \"#utility.yul\":769:791   */\n  swap1\n  pop\n    /* \"#utility.yul\":800:833   */\n  tag_33\n    /* \"#utility.yul\":827:832   */\n  dup2\n    /* \"#utility.yul\":800:833   */\n  tag_20\n  jump\t// in\ntag_33:\n    /* \"#utility.yul\":696:839   */\n  swap3\n  swap2\n  pop\n  pop\n  jump\t// out\n    /* \"#utility.yul\":845:1196   */\ntag_3:\n    /* \"#utility.yul\":915:921   */\n  0x00\n    /* \"#utility.yul\":964:966   */\n  0x20\n    /* \"#utility.yul\":952:961   */\n  dup3\n    /* \"#utility.yul\":943:950   */\n  dup5\n    /* \"#utility.yul\":939:962   */\n  sub\n    /* \"#utility.yul\":935:967   */\n  slt\n    /* \"#utility.yul\":932:1051   */\n  iszero\n  tag_35\n  jumpi\n    /* \"#utility.yul\":970:1049   */\n  tag_36\n  tag_16\n  jump\t// in\ntag_36:\n    /* \"#utility.yul\":932:1051   */\ntag_35:\n    /* \"#utility.yul\":1090:1091   */\n  0x00\n    /* \"#utility.yul\":1115:1179   */\n  tag_37\n    /* \"#utility.yul\":1171:1178   */\n  dup5\n    /* \"#utility.yul\":1162:1168   */\n  dup3\n    /* \"#utility.yul\":1151:1160   */\n  dup6\n    /* \"#utility.yul\":1147:1169   */\n  add\n    /* \"#utility.yul\":1115:1179   */\n  tag_21\n  jump\t// in\ntag_37:\n    /* \"#utility.yul\":1105:1179   */\n  swap2\n  pop\n    /* \"#utility.yul\":1061:1189   */\n  pop\n    /* \"#utility.yul\":845:1196   */\n  swap3\n  swap2\n  pop\n  pop\n  jump\t// out\n    /* \"contracts/Staking/staking.sol\":282:8719  contract TokenStaking is Ownable{... */\ntag_12:\n  dataSize(sub_0)\n  dup1\n  dataOffset(sub_0)\n  0x00\n  codecopy\n  0x00\n  return\nstop\n\nsub_0: assembly {\n        /* \"contracts/Staking/staking.sol\":282:8719  contract TokenStaking is Ownable{... */\n      mstore(0x40, 0x80)\n      callvalue\n      dup1\n      iszero\n      tag_1\n      jumpi\n      0x00\n      dup1\n      revert\n    tag_1:\n      pop\n      jumpi(tag_2, lt(calldatasize, 0x04))\n      shr(0xe0, calldataload(0x00))\n      dup1\n      0x715018a6\n      gt\n      tag_22\n      jumpi\n      dup1\n      0xc0cd40ee\n      gt\n      tag_23\n      jumpi\n      dup1\n      0xc0cd40ee\n      eq\n      tag_17\n      jumpi\n      dup1\n      0xd6f80a25\n      eq\n      tag_18\n      jumpi\n      dup1\n      0xda40ef80\n      eq\n      tag_19\n      jumpi\n      dup1\n      0xe88cc2be\n      eq\n      tag_20\n      jumpi\n      dup1\n      0xf2fde38b\n      eq\n      tag_21\n      jumpi\n      jump(tag_2)\n    tag_23:\n      dup1\n      0x715018a6\n      eq\n      tag_12\n      jumpi\n      dup1\n      0x897b3a68\n      eq\n      tag_13\n      jumpi\n      dup1\n      0x8da5cb5b\n      eq\n      tag_14\n      jumpi\n      dup1\n      0x9131a05a\n      eq\n      tag_15\n      jumpi\n      dup1\n      0xa6021ace\n      eq\n      tag_16\n      jumpi\n      jump(tag_2)\n    tag_22:\n      dup1\n      0x21736665\n      gt\n      tag_24\n      jumpi\n      dup1\n      0x21736665\n      eq\n      tag_7\n      jumpi\n      dup1\n      0x264b4af6\n      eq\n      tag_8\n      jumpi\n      dup1\n      0x2e886f1f\n      eq\n      tag_9\n      jumpi\n      dup1\n      0x3ae73259\n      eq\n      tag_10\n      jumpi\n      dup1\n      0x662b12c9\n      eq\n      tag_11\n      jumpi\n      jump(tag_2)\n    tag_24:\n      dup1\n      0x0178be5f\n      eq\n      tag_3\n      jumpi\n      dup1\n      0x0deef63a\n      eq\n      tag_4\n      jumpi\n      dup1\n      0x10c404da\n      eq\n      tag_5\n      jumpi\n      dup1\n      0x186cb65b\n      eq\n      tag_6\n      jumpi\n    tag_2:\n      0x00\n      dup1\n      revert\n        /* \"contracts/Staking/staking.sol\":6789:7296  function ClaimRewards(address to) public {... */\n    tag_3:\n      tag_25\n      0x04\n      dup1\n      calldatasize\n      sub\n      dup2\n      add\n      swap1\n      tag_26\n      swap2\n      swap1\n      tag_27\n      jump\t// in\n    tag_26:\n      tag_28\n      jump\t// in\n    tag_25:\n      stop\n        /* \"contracts/Staking/staking.sol\":823:863  mapping (address => uint ) public Tokens */\n    tag_4:\n      tag_29\n      0x04\n      dup1\n      calldatasize\n      sub\n      dup2\n      add\n      swap1\n      tag_30\n      swap2\n      swap1\n      tag_27\n      jump\t// in\n    tag_30:\n      tag_31\n      jump\t// in\n    tag_29:\n      mload(0x40)\n      tag_32\n      swap2\n      swap1\n      tag_33\n      jump\t// in\n    tag_32:\n      mload(0x40)\n      dup1\n      swap2\n      sub\n      swap1\n      return\n        /* \"contracts/Staking/staking.sol\":1919:3728  function DepositTokens(address to,uint256 _payment,uint256 StakeMonth,uint256 EarnPersentage) public {... */\n    tag_5:\n      tag_34\n      0x04\n      dup1\n      calldatasize\n      sub\n      dup2\n      add\n      swap1\n      tag_35\n      swap2\n      swap1\n      tag_36\n      jump\t// in\n    tag_35:\n      tag_37\n      jump\t// in\n    tag_34:\n      stop\n        /* \"contracts/Staking/staking.sol\":744:776  mapping(uint => uint) public APY */\n    tag_6:\n      tag_38\n      0x04\n      dup1\n      calldatasize\n      sub\n      dup2\n      add\n      swap1\n      tag_39\n      swap2\n      swap1\n      tag_40\n      jump\t// in\n    tag_39:\n      tag_41\n      jump\t// in\n    tag_38:\n      mload(0x40)\n      tag_42\n      swap2\n      swap1\n      tag_33\n      jump\t// in\n    tag_42:\n      mload(0x40)\n      dup1\n      swap2\n      sub\n      swap1\n      return\n        /* \"contracts/Staking/staking.sol\":7899:8050  function SetAPY(uint Month1,uint Month2,uint Month3) public onlyOwner{... */\n    tag_7:\n      tag_43\n      0x04\n      dup1\n      calldatasize\n      sub\n      dup2\n      add\n      swap1\n      tag_44\n      swap2\n      swap1\n      tag_45\n      jump\t// in\n    tag_44:\n      tag_46\n      jump\t// in\n    tag_43:\n      stop\n        /* \"contracts/Staking/staking.sol\":8497:8613  function setTexAndPenalty(uint taxFee,uint _penalty) public{... */\n    tag_8:\n      tag_47\n      0x04\n      dup1\n      calldatasize\n      sub\n      dup2\n      add\n      swap1\n      tag_48\n      swap2\n      swap1\n      tag_49\n      jump\t// in\n    tag_48:\n      tag_50\n      jump\t// in\n    tag_47:\n      stop\n        /* \"contracts/Staking/staking.sol\":8618:8717  function getTaxPenalty() public view returns(uint tax,uint pen){... */\n    tag_9:\n      tag_51\n      tag_52\n      jump\t// in\n    tag_51:\n      mload(0x40)\n      tag_53\n      swap3\n      swap2\n      swap1\n      tag_54\n      jump\t// in\n    tag_53:\n      mload(0x40)\n      dup1\n      swap2\n      sub\n      swap1\n      return\n        /* \"contracts/Staking/staking.sol\":411:440  uint public totalStakedTokens */\n    tag_10:\n      tag_55\n      tag_56\n      jump\t// in\n    tag_55:\n      mload(0x40)\n      tag_57\n      swap2\n      swap1\n      tag_33\n      jump\t// in\n    tag_57:\n      mload(0x40)\n      dup1\n      swap2\n      sub\n      swap1\n      return\n        /* \"contracts/Staking/staking.sol\":691:738  mapping (address => uint) public InterestAmount */\n    tag_11:\n      tag_58\n      0x04\n      dup1\n      calldatasize\n      sub\n      dup2\n      add\n      swap1\n      tag_59\n      swap2\n      swap1\n      tag_27\n      jump\t// in\n    tag_59:\n      tag_60\n      jump\t// in\n    tag_58:\n      mload(0x40)\n      tag_61\n      swap2\n      swap1\n      tag_33\n      jump\t// in\n    tag_61:\n      mload(0x40)\n      dup1\n      swap2\n      sub\n      swap1\n      return\n        /* \"@openzeppelin/contracts/access/Ownable.sol\":1831:1932  function renounceOwnership() public virtual onlyOwner {... */\n    tag_12:\n      tag_62\n      tag_63\n      jump\t// in\n    tag_62:\n      stop\n        /* \"contracts/Staking/staking.sol\":782:817  mapping(uint => uint) public APYPer */\n    tag_13:\n      tag_64\n      0x04\n      dup1\n      calldatasize\n      sub\n      dup2\n      add\n      swap1\n      tag_65\n      swap2\n      swap1\n      tag_40\n      jump\t// in\n    tag_65:\n      tag_66\n      jump\t// in\n    tag_64:\n      mload(0x40)\n      tag_67\n      swap2\n      swap1\n      tag_33\n      jump\t// in\n    tag_67:\n      mload(0x40)\n      dup1\n      swap2\n      sub\n      swap1\n      return\n        /* \"@openzeppelin/contracts/access/Ownable.sol\":1201:1286  function owner() public view virtual returns (address) {... */\n    tag_14:\n      tag_68\n      tag_69\n      jump\t// in\n    tag_68:\n      mload(0x40)\n      tag_70\n      swap2\n      swap1\n      tag_71\n      jump\t// in\n    tag_70:\n      mload(0x40)\n      dup1\n      swap2\n      sub\n      swap1\n      return\n        /* \"contracts/Staking/staking.sol\":3923:6784  function WithdrawTokens(address to) public {... */\n    tag_15:\n      tag_72\n      0x04\n      dup1\n      calldatasize\n      sub\n      dup2\n      add\n      swap1\n      tag_73\n      swap2\n      swap1\n      tag_27\n      jump\t// in\n    tag_73:\n      tag_74\n      jump\t// in\n    tag_72:\n      stop\n        /* \"contracts/Staking/staking.sol\":352:379  address public ERC20Address */\n    tag_16:\n      tag_75\n      tag_76\n      jump\t// in\n    tag_75:\n      mload(0x40)\n      tag_77\n      swap2\n      swap1\n      tag_71\n      jump\t// in\n    tag_77:\n      mload(0x40)\n      dup1\n      swap2\n      sub\n      swap1\n      return\n        /* \"contracts/Staking/staking.sol\":1443:1624  function AdminAddToken(uint _amount) public onlyOwner{... */\n    tag_17:\n      tag_78\n      0x04\n      dup1\n      calldatasize\n      sub\n      dup2\n      add\n      swap1\n      tag_79\n      swap2\n      swap1\n      tag_40\n      jump\t// in\n    tag_79:\n      tag_80\n      jump\t// in\n    tag_78:\n      stop\n        /* \"contracts/Staking/staking.sol\":8160:8366  function SetRewardPersentage(uint Month1Per,uint Month2Per,uint Month3Per) public onlyOwner{... */\n    tag_18:\n      tag_81\n      0x04\n      dup1\n      calldatasize\n      sub\n      dup2\n      add\n      swap1\n      tag_82\n      swap2\n      swap1\n      tag_45\n      jump\t// in\n    tag_82:\n      tag_83\n      jump\t// in\n    tag_81:\n      stop\n        /* \"contracts/Staking/staking.sol\":7301:7789  function viewRewards(address to) public view returns(uint reward){... */\n    tag_19:\n      tag_84\n      0x04\n      dup1\n      calldatasize\n      sub\n      dup2\n      add\n      swap1\n      tag_85\n      swap2\n      swap1\n      tag_27\n      jump\t// in\n    tag_85:\n      tag_86\n      jump\t// in\n    tag_84:\n      mload(0x40)\n      tag_87\n      swap2\n      swap1\n      tag_33\n      jump\t// in\n    tag_87:\n      mload(0x40)\n      dup1\n      swap2\n      sub\n      swap1\n      return\n        /* \"contracts/Staking/staking.sol\":643:685  mapping (address => Staker) public Details */\n    tag_20:\n      tag_88\n      0x04\n      dup1\n      calldatasize\n      sub\n      dup2\n      add\n      swap1\n      tag_89\n      swap2\n      swap1\n      tag_27\n      jump\t// in\n    tag_89:\n      tag_90\n      jump\t// in\n    tag_88:\n      mload(0x40)\n      tag_91\n      swap6\n      swap5\n      swap4\n      swap3\n      swap2\n      swap1\n      tag_92\n      jump\t// in\n    tag_91:\n      mload(0x40)\n      dup1\n      swap2\n      sub\n      swap1\n      return\n        /* \"@openzeppelin/contracts/access/Ownable.sol\":2081:2279  function transferOwnership(address newOwner) public virtual onlyOwner {... */\n    tag_21:\n      tag_93\n      0x04\n      dup1\n      calldatasize\n      sub\n      dup2\n      add\n      swap1\n      tag_94\n      swap2\n      swap1\n      tag_27\n      jump\t// in\n    tag_94:\n      tag_95\n      jump\t// in\n    tag_93:\n      stop\n        /* \"contracts/Staking/staking.sol\":6789:7296  function ClaimRewards(address to) public {... */\n    tag_28:\n        /* \"contracts/Staking/staking.sol\":6907:6922  block.timestamp */\n      timestamp\n        /* \"contracts/Staking/staking.sol\":6882:6889  Details */\n      0x06\n        /* \"contracts/Staking/staking.sol\":6882:6893  Details[to] */\n      0x00\n        /* \"contracts/Staking/staking.sol\":6890:6892  to */\n      dup4\n        /* \"contracts/Staking/staking.sol\":6882:6893  Details[to] */\n      0xffffffffffffffffffffffffffffffffffffffff\n      and\n      0xffffffffffffffffffffffffffffffffffffffff\n      and\n      dup2\n      mstore\n      0x20\n      add\n      swap1\n      dup2\n      mstore\n      0x20\n      add\n      0x00\n      keccak256\n        /* \"contracts/Staking/staking.sol\":6882:6903  Details[to].stakeTime */\n      0x01\n      add\n      sload\n        /* \"contracts/Staking/staking.sol\":6876:6878  60 */\n      0x3c\n        /* \"contracts/Staking/staking.sol\":6873:6875  30 */\n      0x1e\n        /* \"contracts/Staking/staking.sol\":6850:6857  Details */\n      0x06\n        /* \"contracts/Staking/staking.sol\":6850:6861  Details[to] */\n      0x00\n        /* \"contracts/Staking/staking.sol\":6858:6860  to */\n      dup7\n        /* \"contracts/Staking/staking.sol\":6850:6861  Details[to] */\n      0xffffffffffffffffffffffffffffffffffffffff\n      and\n      0xffffffffffffffffffffffffffffffffffffffff\n      and\n      dup2\n      mstore\n      0x20\n      add\n      swap1\n      dup2\n      mstore\n      0x20\n      add\n      0x00\n      keccak256\n        /* \"contracts/Staking/staking.sol\":6850:6872  Details[to].StakeMonth */\n      0x02\n      add\n      sload\n        /* \"contracts/Staking/staking.sol\":6850:6875  Details[to].StakeMonth*30 */\n      tag_97\n      swap2\n      swap1\n      tag_98\n      jump\t// in\n    tag_97:\n        /* \"contracts/Staking/staking.sol\":6850:6878  Details[to].StakeMonth*30*60 */\n      tag_99\n      swap2\n      swap1\n      tag_98\n      jump\t// in\n    tag_99:\n        /* \"contracts/Staking/staking.sol\":6849:6903  (Details[to].StakeMonth*30*60) + Details[to].stakeTime */\n      tag_100\n      swap2\n      swap1\n      tag_101\n      jump\t// in\n    tag_100:\n        /* \"contracts/Staking/staking.sol\":6848:6922  ((Details[to].StakeMonth*30*60) + Details[to].stakeTime) < block.timestamp */\n      lt\n        /* \"contracts/Staking/staking.sol\":6840:6983  require(((Details[to].StakeMonth*30*60) + Details[to].stakeTime) < block.timestamp,\"Your Stake Time Complete, Please Call Withdraw Function !\") */\n      tag_102\n      jumpi\n      mload(0x40)\n      0x08c379a000000000000000000000000000000000000000000000000000000000\n      dup2\n      mstore\n      0x04\n      add\n      tag_103\n      swap1\n      tag_104\n      jump\t// in\n    tag_103:\n      mload(0x40)\n      dup1\n      swap2\n      sub\n      swap1\n      revert\n    tag_102:\n        /* \"contracts/Staking/staking.sol\":6993:7006  uint Stakdays */\n      0x00\n        /* \"contracts/Staking/staking.sol\":7051:7053  60 */\n      0x3c\n        /* \"contracts/Staking/staking.sol\":7028:7035  Details */\n      0x06\n        /* \"contracts/Staking/staking.sol\":7028:7039  Details[to] */\n      0x00\n        /* \"contracts/Staking/staking.sol\":7036:7038  to */\n      dup5\n        /* \"contracts/Staking/staking.sol\":7028:7039  Details[to] */\n      0xffffffffffffffffffffffffffffffffffffffff\n      and\n      0xffffffffffffffffffffffffffffffffffffffff\n      and\n      dup2\n      mstore\n      0x20\n      add\n      swap1\n      dup2\n      mstore\n      0x20\n      add\n      0x00\n      keccak256\n        /* \"contracts/Staking/staking.sol\":7028:7049  Details[to].stakeTime */\n      0x01\n      add\n      sload\n        /* \"contracts/Staking/staking.sol\":7010:7025  block.timestamp */\n      timestamp\n        /* \"contracts/Staking/staking.sol\":7010:7049  block.timestamp - Details[to].stakeTime */\n      tag_105\n      swap2\n      swap1\n      tag_106\n      jump\t// in\n    tag_105:\n        /* \"contracts/Staking/staking.sol\":7009:7053  (block.timestamp - Details[to].stakeTime)/60 */\n      tag_107\n      swap2\n      swap1\n      tag_108\n      jump\t// in\n    tag_107:\n        /* \"contracts/Staking/staking.sol\":6993:7053  uint Stakdays = (block.timestamp - Details[to].stakeTime)/60 */\n      swap1\n      pop\n        /* \"contracts/Staking/staking.sol\":7064:7089  uint InterestAmountperday */\n      0x00\n        /* \"contracts/Staking/staking.sol\":7135:7137  30 */\n      0x1e\n        /* \"contracts/Staking/staking.sol\":7112:7119  Details */\n      0x06\n        /* \"contracts/Staking/staking.sol\":7112:7123  Details[to] */\n      0x00\n        /* \"contracts/Staking/staking.sol\":7120:7122  to */\n      dup6\n        /* \"contracts/Staking/staking.sol\":7112:7123  Details[to] */\n      0xffffffffffffffffffffffffffffffffffffffff\n      and\n      0xffffffffffffffffffffffffffffffffffffffff\n      and\n      dup2\n      mstore\n      0x20\n      add\n      swap1\n      dup2\n      mstore\n      0x20\n      add\n      0x00\n      keccak256\n        /* \"contracts/Staking/staking.sol\":7112:7134  Details[to].StakeMonth */\n      0x02\n      add\n      sload\n        /* \"contracts/Staking/staking.sol\":7112:7137  Details[to].StakeMonth*30 */\n      tag_109\n      swap2\n      swap1\n      tag_98\n      jump\t// in\n    tag_109:\n        /* \"contracts/Staking/staking.sol\":7092:7106  InterestAmount */\n      0x07\n        /* \"contracts/Staking/staking.sol\":7092:7110  InterestAmount[to] */\n      0x00\n        /* \"contracts/Staking/staking.sol\":7107:7109  to */\n      dup6\n        /* \"contracts/Staking/staking.sol\":7092:7110  InterestAmount[to] */\n      0xffffffffffffffffffffffffffffffffffffffff\n      and\n      0xffffffffffffffffffffffffffffffffffffffff\n      and\n      dup2\n      mstore\n      0x20\n      add\n      swap1\n      dup2\n      mstore\n      0x20\n      add\n      0x00\n      keccak256\n      sload\n        /* \"contracts/Staking/staking.sol\":7092:7138  InterestAmount[to]/(Details[to].StakeMonth*30) */\n      tag_110\n      swap2\n      swap1\n      tag_108\n      jump\t// in\n    tag_110:\n        /* \"contracts/Staking/staking.sol\":7064:7138  uint InterestAmountperday = InterestAmount[to]/(Details[to].StakeMonth*30) */\n      swap1\n      pop\n        /* \"contracts/Staking/staking.sol\":7148:7162  uint EarnToken */\n      0x00\n        /* \"contracts/Staking/staking.sol\":7186:7194  Stakdays */\n      dup3\n        /* \"contracts/Staking/staking.sol\":7165:7185  InterestAmountperday */\n      dup3\n        /* \"contracts/Staking/staking.sol\":7165:7194  InterestAmountperday*Stakdays */\n      tag_111\n      swap2\n      swap1\n      tag_98\n      jump\t// in\n    tag_111:\n        /* \"contracts/Staking/staking.sol\":7148:7194  uint EarnToken = InterestAmountperday*Stakdays */\n      swap1\n      pop\n        /* \"contracts/Staking/staking.sol\":7227:7236  EarnToken */\n      dup1\n        /* \"contracts/Staking/staking.sol\":7204:7218  InterestAmount */\n      0x07\n        /* \"contracts/Staking/staking.sol\":7204:7222  InterestAmount[to] */\n      0x00\n        /* \"contracts/Staking/staking.sol\":7219:7221  to */\n      dup7\n        /* \"contracts/Staking/staking.sol\":7204:7222  InterestAmount[to] */\n      0xffffffffffffffffffffffffffffffffffffffff\n      and\n      0xffffffffffffffffffffffffffffffffffffffff\n      and\n      dup2\n      mstore\n      0x20\n      add\n      swap1\n      dup2\n      mstore\n      0x20\n      add\n      0x00\n      keccak256\n      0x00\n        /* \"contracts/Staking/staking.sol\":7204:7236  InterestAmount[to] -=  EarnToken */\n      dup3\n      dup3\n      sload\n      tag_112\n      swap2\n      swap1\n      tag_106\n      jump\t// in\n    tag_112:\n      swap3\n      pop\n      pop\n      dup2\n      swap1\n      sstore\n      pop\n        /* \"contracts/Staking/staking.sol\":7253:7265  ERC20Address */\n      0x01\n      0x00\n      swap1\n      sload\n      swap1\n      0x0100\n      exp\n      swap1\n      div\n      0xffffffffffffffffffffffffffffffffffffffff\n      and\n        /* \"contracts/Staking/staking.sol\":7246:7275  IERC20(ERC20Address).transfer */\n      0xffffffffffffffffffffffffffffffffffffffff\n      and\n      0xa9059cbb\n        /* \"contracts/Staking/staking.sol\":7276:7278  to */\n      dup6\n        /* \"contracts/Staking/staking.sol\":7279:7288  EarnToken */\n      dup4\n        /* \"contracts/Staking/staking.sol\":7246:7289  IERC20(ERC20Address).transfer(to,EarnToken) */\n      mload(0x40)\n      dup4\n      0xffffffff\n      and\n      0xe0\n      shl\n      dup2\n      mstore\n      0x04\n      add\n      tag_113\n      swap3\n      swap2\n      swap1\n      tag_114\n      jump\t// in\n    tag_113:\n      0x20\n      mload(0x40)\n      dup1\n      dup4\n      sub\n      dup2\n      0x00\n      dup8\n      gas\n      call\n      iszero\n      dup1\n      iszero\n      tag_116\n      jumpi\n      returndatasize\n      0x00\n      dup1\n      returndatacopy\n      revert(0x00, returndatasize)\n    tag_116:\n      pop\n      pop\n      pop\n      pop\n      mload(0x40)\n      returndatasize\n      not(0x1f)\n      0x1f\n      dup3\n      add\n      and\n      dup3\n      add\n      dup1\n      0x40\n      mstore\n      pop\n      dup2\n      add\n      swap1\n      tag_117\n      swap2\n      swap1\n      tag_118\n      jump\t// in\n    tag_117:\n      pop\n        /* \"contracts/Staking/staking.sol\":6830:7296  {... */\n      pop\n      pop\n      pop\n        /* \"contracts/Staking/staking.sol\":6789:7296  function ClaimRewards(address to) public {... */\n      pop\n      jump\t// out\n        /* \"contracts/Staking/staking.sol\":823:863  mapping (address => uint ) public Tokens */\n    tag_31:\n      mstore(0x20, 0x0a)\n      dup1\n      0x00\n      mstore\n      keccak256(0x00, 0x40)\n      0x00\n      swap2\n      pop\n      swap1\n      pop\n      sload\n      dup2\n      jump\t// out\n        /* \"contracts/Staking/staking.sol\":1919:3728  function DepositTokens(address to,uint256 _payment,uint256 StakeMonth,uint256 EarnPersentage) public {... */\n    tag_37:\n        /* \"contracts/Staking/staking.sol\":2061:2062  0 */\n      0x00\n        /* \"contracts/Staking/staking.sol\":2038:2044  Tokens */\n      0x0a\n        /* \"contracts/Staking/staking.sol\":2038:2058  Tokens[ownerAddress] */\n      0x00\n        /* \"contracts/Staking/staking.sol\":2045:2057  ownerAddress */\n      0x02\n      0x00\n      swap1\n      sload\n      swap1\n      0x0100\n      exp\n      swap1\n      div\n      0xffffffffffffffffffffffffffffffffffffffff\n      and\n        /* \"contracts/Staking/staking.sol\":2038:2058  Tokens[ownerAddress] */\n      0xffffffffffffffffffffffffffffffffffffffff\n      and\n      0xffffffffffffffffffffffffffffffffffffffff\n      and\n      dup2\n      mstore\n      0x20\n      add\n      swap1\n      dup2\n      mstore\n      0x20\n      add\n      0x00\n      keccak256\n      sload\n        /* \"contracts/Staking/staking.sol\":2038:2062  Tokens[ownerAddress] > 0 */\n      gt\n        /* \"contracts/Staking/staking.sol\":2030:2081  require(Tokens[ownerAddress] > 0,\"Please Wait !!!\") */\n      tag_120\n      jumpi\n      mload(0x40)\n      0x08c379a000000000000000000000000000000000000000000000000000000000\n      dup2\n      mstore\n      0x04\n      add\n      tag_121\n      swap1\n      tag_122\n      jump\t// in\n    tag_121:\n      mload(0x40)\n      dup1\n      swap2\n      sub\n      swap1\n      revert\n    tag_120:\n        /* \"contracts/Staking/staking.sol\":2091:2106  uint256 _amount */\n      0x00\n        /* \"contracts/Staking/staking.sol\":2117:2136  1000000000000000000 */\n      0x0de0b6b3a7640000\n        /* \"contracts/Staking/staking.sol\":2108:2116  _payment */\n      dup5\n        /* \"contracts/Staking/staking.sol\":2108:2136  _payment*1000000000000000000 */\n      tag_123\n      swap2\n      swap1\n      tag_98\n      jump\t// in\n    tag_123:\n        /* \"contracts/Staking/staking.sol\":2091:2136  uint256 _amount= _payment*1000000000000000000 */\n      swap1\n      pop\n        /* \"contracts/Staking/staking.sol\":2149:2156  Details */\n      0x06\n        /* \"contracts/Staking/staking.sol\":2149:2160  Details[to] */\n      0x00\n        /* \"contracts/Staking/staking.sol\":2157:2159  to */\n      dup7\n        /* \"contracts/Staking/staking.sol\":2149:2160  Details[to] */\n      0xffffffffffffffffffffffffffffffffffffffff\n      and\n      0xffffffffffffffffffffffffffffffffffffffff\n      and\n      dup2\n      mstore\n      0x20\n      add\n      swap1\n      dup2\n      mstore\n      0x20\n      add\n      0x00\n      keccak256\n        /* \"contracts/Staking/staking.sol\":2149:2166  Details[to].check */\n      0x04\n      add\n      0x00\n      swap1\n      sload\n      swap1\n      0x0100\n      exp\n      swap1\n      div\n      0xff\n      and\n        /* \"contracts/Staking/staking.sol\":2146:3653  if(Details[to].check){... */\n      iszero\n      tag_124\n      jumpi\n        /* \"contracts/Staking/staking.sol\":2254:2269  block.timestamp */\n      timestamp\n        /* \"contracts/Staking/staking.sol\":2229:2236  Details */\n      0x06\n        /* \"contracts/Staking/staking.sol\":2229:2240  Details[to] */\n      0x00\n        /* \"contracts/Staking/staking.sol\":2237:2239  to */\n      dup8\n        /* \"contracts/Staking/staking.sol\":2229:2240  Details[to] */\n      0xffffffffffffffffffffffffffffffffffffffff\n      and\n      0xffffffffffffffffffffffffffffffffffffffff\n      and\n      dup2\n      mstore\n      0x20\n      add\n      swap1\n      dup2\n      mstore\n      0x20\n      add\n      0x00\n      keccak256\n        /* \"contracts/Staking/staking.sol\":2229:2250  Details[to].stakeTime */\n      0x01\n      add\n      sload\n        /* \"contracts/Staking/staking.sol\":2223:2225  60 */\n      0x3c\n        /* \"contracts/Staking/staking.sol\":2220:2222  60 */\n      dup1\n        /* \"contracts/Staking/staking.sol\":2217:2219  24 */\n      0x18\n        /* \"contracts/Staking/staking.sol\":2214:2216  30 */\n      0x1e\n        /* \"contracts/Staking/staking.sol\":2191:2198  Details */\n      0x06\n        /* \"contracts/Staking/staking.sol\":2191:2202  Details[to] */\n      0x00\n        /* \"contracts/Staking/staking.sol\":2199:2201  to */\n      dup13\n        /* \"contracts/Staking/staking.sol\":2191:2202  Details[to] */\n      0xffffffffffffffffffffffffffffffffffffffff\n      and\n      0xffffffffffffffffffffffffffffffffffffffff\n      and\n      dup2\n      mstore\n      0x20\n      add\n      swap1\n      dup2\n      mstore\n      0x20\n      add\n      0x00\n      keccak256\n        /* \"contracts/Staking/staking.sol\":2191:2213  Details[to].StakeMonth */\n      0x02\n      add\n      sload\n        /* \"contracts/Staking/staking.sol\":2191:2216  Details[to].StakeMonth*30 */\n      tag_125\n      swap2\n      swap1\n      tag_98\n      jump\t// in\n    tag_125:\n        /* \"contracts/Staking/staking.sol\":2191:2219  Details[to].StakeMonth*30*24 */\n      tag_126\n      swap2\n      swap1\n      tag_98\n      jump\t// in\n    tag_126:\n        /* \"contracts/Staking/staking.sol\":2191:2222  Details[to].StakeMonth*30*24*60 */\n      tag_127\n      swap2\n      swap1\n      tag_98\n      jump\t// in\n    tag_127:\n        /* \"contracts/Staking/staking.sol\":2191:2225  Details[to].StakeMonth*30*24*60*60 */\n      tag_128\n      swap2\n      swap1\n      tag_98\n      jump\t// in\n    tag_128:\n        /* \"contracts/Staking/staking.sol\":2190:2250  (Details[to].StakeMonth*30*24*60*60) + Details[to].stakeTime */\n      tag_129\n      swap2\n      swap1\n      tag_101\n      jump\t// in\n    tag_129:\n        /* \"contracts/Staking/staking.sol\":2189:2269  ((Details[to].StakeMonth*30*24*60*60) + Details[to].stakeTime) > block.timestamp */\n      gt\n        /* \"contracts/Staking/staking.sol\":2181:2299  require(((Details[to].StakeMonth*30*24*60*60) + Details[to].stakeTime) > block.timestamp,\"Your Time Period Complete.\") */\n      tag_130\n      jumpi\n      mload(0x40)\n      0x08c379a000000000000000000000000000000000000000000000000000000000\n      dup2\n      mstore\n      0x04\n      add\n      tag_131\n      swap1\n      tag_132\n      jump\t// in\n    tag_131:\n      mload(0x40)\n      dup1\n      swap2\n      sub\n      swap1\n      revert\n    tag_130:\n        /* \"contracts/Staking/staking.sol\":2347:2357  StakeMonth */\n      dup3\n        /* \"contracts/Staking/staking.sol\":2321:2328  Details */\n      0x06\n        /* \"contracts/Staking/staking.sol\":2321:2332  Details[to] */\n      0x00\n        /* \"contracts/Staking/staking.sol\":2329:2331  to */\n      dup8\n        /* \"contracts/Staking/staking.sol\":2321:2332  Details[to] */\n      0xffffffffffffffffffffffffffffffffffffffff\n      and\n      0xffffffffffffffffffffffffffffffffffffffff\n      and\n      dup2\n      mstore\n      0x20\n      add\n      swap1\n      dup2\n      mstore\n      0x20\n      add\n      0x00\n      keccak256\n        /* \"contracts/Staking/staking.sol\":2321:2343  Details[to].StakeMonth */\n      0x02\n      add\n      sload\n        /* \"contracts/Staking/staking.sol\":2321:2357  Details[to].StakeMonth == StakeMonth */\n      eq\n        /* \"contracts/Staking/staking.sol\":2313:2383  require(Details[to].StakeMonth == StakeMonth,\"Enter Right StakeMonth\") */\n      tag_133\n      jumpi\n      mload(0x40)\n      0x08c379a000000000000000000000000000000000000000000000000000000000\n      dup2\n      mstore\n      0x04\n      add\n      tag_134\n      swap1\n      tag_135\n      jump\t// in\n    tag_134:\n      mload(0x40)\n      dup1\n      swap2\n      sub\n      swap1\n      revert\n    tag_133:\n        /* \"contracts/Staking/staking.sol\":2435:2449  EarnPersentage */\n      dup2\n        /* \"contracts/Staking/staking.sol\":2405:2412  Details */\n      0x06\n        /* \"contracts/Staking/staking.sol\":2405:2416  Details[to] */\n      0x00\n        /* \"contracts/Staking/staking.sol\":2413:2415  to */\n      dup8\n        /* \"contracts/Staking/staking.sol\":2405:2416  Details[to] */\n      0xffffffffffffffffffffffffffffffffffffffff\n      and\n      0xffffffffffffffffffffffffffffffffffffffff\n      and\n      dup2\n      mstore\n      0x20\n      add\n      swap1\n      dup2\n      mstore\n      0x20\n      add\n      0x00\n      keccak256\n        /* \"contracts/Staking/staking.sol\":2405:2431  Details[to].EarnPersentage */\n      0x03\n      add\n      sload\n        /* \"contracts/Staking/staking.sol\":2405:2449  Details[to].EarnPersentage == EarnPersentage */\n      eq\n        /* \"contracts/Staking/staking.sol\":2397:2479  require(Details[to].EarnPersentage == EarnPersentage,\"Enter Right EarnPersentage\") */\n      tag_136\n      jumpi\n      mload(0x40)\n      0x08c379a000000000000000000000000000000000000000000000000000000000\n      dup2\n      mstore\n      0x04\n      add\n      tag_137\n      swap1\n      tag_138\n      jump\t// in\n    tag_137:\n      mload(0x40)\n      dup1\n      swap2\n      sub\n      swap1\n      revert\n    tag_136:\n        /* \"contracts/Staking/staking.sol\":2549:2556  _amount */\n      dup1\n        /* \"contracts/Staking/staking.sol\":2521:2528  Details */\n      0x06\n        /* \"contracts/Staking/staking.sol\":2521:2532  Details[to] */\n      0x00\n        /* \"contracts/Staking/staking.sol\":2529:2531  to */\n      dup8\n        /* \"contracts/Staking/staking.sol\":2521:2532  Details[to] */\n      0xffffffffffffffffffffffffffffffffffffffff\n      and\n      0xffffffffffffffffffffffffffffffffffffffff\n      and\n      dup2\n      mstore\n      0x20\n      add\n      swap1\n      dup2\n      mstore\n      0x20\n      add\n      0x00\n      keccak256\n        /* \"contracts/Staking/staking.sol\":2521:2546  Details[to].depositTokens */\n      0x00\n      add\n      sload\n        /* \"contracts/Staking/staking.sol\":2521:2556  Details[to].depositTokens + _amount */\n      tag_139\n      swap2\n      swap1\n      tag_101\n      jump\t// in\n    tag_139:\n        /* \"contracts/Staking/staking.sol\":2493:2500  Details */\n      0x06\n        /* \"contracts/Staking/staking.sol\":2493:2504  Details[to] */\n      0x00\n        /* \"contracts/Staking/staking.sol\":2501:2503  to */\n      dup8\n        /* \"contracts/Staking/staking.sol\":2493:2504  Details[to] */\n      0xffffffffffffffffffffffffffffffffffffffff\n      and\n      0xffffffffffffffffffffffffffffffffffffffff\n      and\n      dup2\n      mstore\n      0x20\n      add\n      swap1\n      dup2\n      mstore\n      0x20\n      add\n      0x00\n      keccak256\n        /* \"contracts/Staking/staking.sol\":2493:2518  Details[to].depositTokens */\n      0x00\n      add\n        /* \"contracts/Staking/staking.sol\":2493:2556  Details[to].depositTokens = Details[to].depositTokens + _amount */\n      dup2\n      swap1\n      sstore\n      pop\n        /* \"contracts/Staking/staking.sol\":2633:2637  1000 */\n      0x03e8\n        /* \"contracts/Staking/staking.sol\":2601:2607  APYPer */\n      0x09\n        /* \"contracts/Staking/staking.sol\":2601:2631  APYPer[Details[to].StakeMonth] */\n      0x00\n        /* \"contracts/Staking/staking.sol\":2608:2615  Details */\n      0x06\n        /* \"contracts/Staking/staking.sol\":2608:2619  Details[to] */\n      0x00\n        /* \"contracts/Staking/staking.sol\":2616:2618  to */\n      dup10\n        /* \"contracts/Staking/staking.sol\":2608:2619  Details[to] */\n      0xffffffffffffffffffffffffffffffffffffffff\n      and\n      0xffffffffffffffffffffffffffffffffffffffff\n      and\n      dup2\n      mstore\n      0x20\n      add\n      swap1\n      dup2\n      mstore\n      0x20\n      add\n      0x00\n      keccak256\n        /* \"contracts/Staking/staking.sol\":2608:2630  Details[to].StakeMonth */\n      0x02\n      add\n      sload\n        /* \"contracts/Staking/staking.sol\":2601:2631  APYPer[Details[to].StakeMonth] */\n      dup2\n      mstore\n      0x20\n      add\n      swap1\n      dup2\n      mstore\n      0x20\n      add\n      0x00\n      keccak256\n      sload\n        /* \"contracts/Staking/staking.sol\":2593:2600  _amount */\n      dup3\n        /* \"contracts/Staking/staking.sol\":2593:2631  _amount*APYPer[Details[to].StakeMonth] */\n      tag_140\n      swap2\n      swap1\n      tag_98\n      jump\t// in\n    tag_140:\n        /* \"contracts/Staking/staking.sol\":2592:2637  (_amount*APYPer[Details[to].StakeMonth])/1000 */\n      tag_141\n      swap2\n      swap1\n      tag_108\n      jump\t// in\n    tag_141:\n        /* \"contracts/Staking/staking.sol\":2570:2584  InterestAmount */\n      0x07\n        /* \"contracts/Staking/staking.sol\":2570:2588  InterestAmount[to] */\n      0x00\n        /* \"contracts/Staking/staking.sol\":2585:2587  to */\n      dup8\n        /* \"contracts/Staking/staking.sol\":2570:2588  InterestAmount[to] */\n      0xffffffffffffffffffffffffffffffffffffffff\n      and\n      0xffffffffffffffffffffffffffffffffffffffff\n      and\n      dup2\n      mstore\n      0x20\n      add\n      swap1\n      dup2\n      mstore\n      0x20\n      add\n      0x00\n      keccak256\n      0x00\n        /* \"contracts/Staking/staking.sol\":2570:2637  InterestAmount[to] += (_amount*APYPer[Details[to].StakeMonth])/1000 */\n      dup3\n      dup3\n      sload\n      tag_142\n      swap2\n      swap1\n      tag_101\n      jump\t// in\n    tag_142:\n      swap3\n      pop\n      pop\n      dup2\n      swap1\n      sstore\n      pop\n        /* \"contracts/Staking/staking.sol\":2651:2717  IERC20(ERC20Address).safeTransferFrom(to, address(this) , _amount) */\n      tag_143\n        /* \"contracts/Staking/staking.sol\":2689:2691  to */\n      dup6\n        /* \"contracts/Staking/staking.sol\":2701:2705  this */\n      address\n        /* \"contracts/Staking/staking.sol\":2709:2716  _amount */\n      dup4\n        /* \"contracts/Staking/staking.sol\":2658:2670  ERC20Address */\n      0x01\n      0x00\n      swap1\n      sload\n      swap1\n      0x0100\n      exp\n      swap1\n      div\n      0xffffffffffffffffffffffffffffffffffffffff\n      and\n        /* \"contracts/Staking/staking.sol\":2651:2688  IERC20(ERC20Address).safeTransferFrom */\n      0xffffffffffffffffffffffffffffffffffffffff\n      and\n      tag_144\n      swap1\n        /* \"contracts/Staking/staking.sol\":2651:2717  IERC20(ERC20Address).safeTransferFrom(to, address(this) , _amount) */\n      swap4\n      swap3\n      swap2\n      swap1\n      0xffffffff\n      and\n      jump\t// in\n    tag_143:\n        /* \"contracts/Staking/staking.sol\":2146:3653  if(Details[to].check){... */\n      jump(tag_145)\n    tag_124:\n        /* \"contracts/Staking/staking.sol\":2778:2781  APY */\n      0x08\n        /* \"contracts/Staking/staking.sol\":2778:2784  APY[1] */\n      0x00\n        /* \"contracts/Staking/staking.sol\":2782:2783  1 */\n      0x01\n        /* \"contracts/Staking/staking.sol\":2778:2784  APY[1] */\n      dup2\n      mstore\n      0x20\n      add\n      swap1\n      dup2\n      mstore\n      0x20\n      add\n      0x00\n      keccak256\n      sload\n        /* \"contracts/Staking/staking.sol\":2764:2774  StakeMonth */\n      dup4\n        /* \"contracts/Staking/staking.sol\":2764:2784  StakeMonth == APY[1] */\n      eq\n        /* \"contracts/Staking/staking.sol\":2764:2808  StakeMonth == APY[1] || StakeMonth == APY[2] */\n      dup1\n      tag_146\n      jumpi\n      pop\n        /* \"contracts/Staking/staking.sol\":2802:2805  APY */\n      0x08\n        /* \"contracts/Staking/staking.sol\":2802:2808  APY[2] */\n      0x00\n        /* \"contracts/Staking/staking.sol\":2806:2807  2 */\n      0x02\n        /* \"contracts/Staking/staking.sol\":2802:2808  APY[2] */\n      dup2\n      mstore\n      0x20\n      add\n      swap1\n      dup2\n      mstore\n      0x20\n      add\n      0x00\n      keccak256\n      sload\n        /* \"contracts/Staking/staking.sol\":2788:2798  StakeMonth */\n      dup4\n        /* \"contracts/Staking/staking.sol\":2788:2808  StakeMonth == APY[2] */\n      eq\n        /* \"contracts/Staking/staking.sol\":2764:2808  StakeMonth == APY[1] || StakeMonth == APY[2] */\n    tag_146:\n        /* \"contracts/Staking/staking.sol\":2764:2832  StakeMonth == APY[1] || StakeMonth == APY[2] || StakeMonth == APY[3] */\n      dup1\n      tag_147\n      jumpi\n      pop\n        /* \"contracts/Staking/staking.sol\":2826:2829  APY */\n      0x08\n        /* \"contracts/Staking/staking.sol\":2826:2832  APY[3] */\n      0x00\n        /* \"contracts/Staking/staking.sol\":2830:2831  3 */\n      0x03\n        /* \"contracts/Staking/staking.sol\":2826:2832  APY[3] */\n      dup2\n      mstore\n      0x20\n      add\n      swap1\n      dup2\n      mstore\n      0x20\n      add\n      0x00\n      keccak256\n      sload\n        /* \"contracts/Staking/staking.sol\":2812:2822  StakeMonth */\n      dup4\n        /* \"contracts/Staking/staking.sol\":2812:2832  StakeMonth == APY[3] */\n      eq\n        /* \"contracts/Staking/staking.sol\":2764:2832  StakeMonth == APY[1] || StakeMonth == APY[2] || StakeMonth == APY[3] */\n    tag_147:\n        /* \"contracts/Staking/staking.sol\":2756:2858  require(StakeMonth == APY[1] || StakeMonth == APY[2] || StakeMonth == APY[3],\"Enter Right StakeMonth\") */\n      tag_148\n      jumpi\n      mload(0x40)\n      0x08c379a000000000000000000000000000000000000000000000000000000000\n      dup2\n      mstore\n      0x04\n      add\n      tag_149\n      swap1\n      tag_135\n      jump\t// in\n    tag_149:\n      mload(0x40)\n      dup1\n      swap2\n      sub\n      swap1\n      revert\n    tag_148:\n        /* \"contracts/Staking/staking.sol\":2898:2901  100 */\n      0x64\n        /* \"contracts/Staking/staking.sol\":2880:2894  EarnPersentage */\n      dup3\n        /* \"contracts/Staking/staking.sol\":2880:2901  EarnPersentage == 100 */\n      eq\n        /* \"contracts/Staking/staking.sol\":2880:2925  EarnPersentage == 100 || EarnPersentage == 75 */\n      dup1\n      tag_150\n      jumpi\n      pop\n        /* \"contracts/Staking/staking.sol\":2923:2925  75 */\n      0x4b\n        /* \"contracts/Staking/staking.sol\":2905:2919  EarnPersentage */\n      dup3\n        /* \"contracts/Staking/staking.sol\":2905:2925  EarnPersentage == 75 */\n      eq\n        /* \"contracts/Staking/staking.sol\":2880:2925  EarnPersentage == 100 || EarnPersentage == 75 */\n    tag_150:\n        /* \"contracts/Staking/staking.sol\":2880:2949  EarnPersentage == 100 || EarnPersentage == 75 || EarnPersentage == 50 */\n      dup1\n      tag_151\n      jumpi\n      pop\n        /* \"contracts/Staking/staking.sol\":2947:2949  50 */\n      0x32\n        /* \"contracts/Staking/staking.sol\":2929:2943  EarnPersentage */\n      dup3\n        /* \"contracts/Staking/staking.sol\":2929:2949  EarnPersentage == 50 */\n      eq\n        /* \"contracts/Staking/staking.sol\":2880:2949  EarnPersentage == 100 || EarnPersentage == 75 || EarnPersentage == 50 */\n    tag_151:\n        /* \"contracts/Staking/staking.sol\":2872:2979  require(EarnPersentage == 100 || EarnPersentage == 75 || EarnPersentage == 50,\"Enter Right EarnPersentage\") */\n      tag_152\n      jumpi\n      mload(0x40)\n      0x08c379a000000000000000000000000000000000000000000000000000000000\n      dup2\n      mstore\n      0x04\n      add\n      tag_153\n      swap1\n      tag_138\n      jump\t// in\n    tag_153:\n      mload(0x40)\n      dup1\n      swap2\n      sub\n      swap1\n      revert\n    tag_152:\n        /* \"contracts/Staking/staking.sol\":2993:3006  uint AdminFee */\n      0x00\n        /* \"contracts/Staking/staking.sol\":3023:3027  1000 */\n      0x03e8\n        /* \"contracts/Staking/staking.sol\":3018:3021  Tax */\n      sload(0x04)\n        /* \"contracts/Staking/staking.sol\":3010:3017  _amount */\n      dup4\n        /* \"contracts/Staking/staking.sol\":3010:3021  _amount*Tax */\n      tag_154\n      swap2\n      swap1\n      tag_98\n      jump\t// in\n    tag_154:\n        /* \"contracts/Staking/staking.sol\":3009:3027  (_amount*Tax)/1000 */\n      tag_155\n      swap2\n      swap1\n      tag_108\n      jump\t// in\n    tag_155:\n        /* \"contracts/Staking/staking.sol\":2993:3027  uint AdminFee = (_amount*Tax)/1000 */\n      swap1\n      pop\n        /* \"contracts/Staking/staking.sol\":3055:3126  Staker(_amount-AdminFee,block.timestamp,StakeMonth,EarnPersentage,true) */\n      mload(0x40)\n      dup1\n      0xa0\n      add\n      0x40\n      mstore\n      dup1\n        /* \"contracts/Staking/staking.sol\":3070:3078  AdminFee */\n      dup3\n        /* \"contracts/Staking/staking.sol\":3062:3069  _amount */\n      dup5\n        /* \"contracts/Staking/staking.sol\":3062:3078  _amount-AdminFee */\n      tag_156\n      swap2\n      swap1\n      tag_106\n      jump\t// in\n    tag_156:\n        /* \"contracts/Staking/staking.sol\":3055:3126  Staker(_amount-AdminFee,block.timestamp,StakeMonth,EarnPersentage,true) */\n      dup2\n      mstore\n      0x20\n      add\n        /* \"contracts/Staking/staking.sol\":3079:3094  block.timestamp */\n      timestamp\n        /* \"contracts/Staking/staking.sol\":3055:3126  Staker(_amount-AdminFee,block.timestamp,StakeMonth,EarnPersentage,true) */\n      dup2\n      mstore\n      0x20\n      add\n        /* \"contracts/Staking/staking.sol\":3095:3105  StakeMonth */\n      dup6\n        /* \"contracts/Staking/staking.sol\":3055:3126  Staker(_amount-AdminFee,block.timestamp,StakeMonth,EarnPersentage,true) */\n      dup2\n      mstore\n      0x20\n      add\n        /* \"contracts/Staking/staking.sol\":3106:3120  EarnPersentage */\n      dup5\n        /* \"contracts/Staking/staking.sol\":3055:3126  Staker(_amount-AdminFee,block.timestamp,StakeMonth,EarnPersentage,true) */\n      dup2\n      mstore\n      0x20\n      add\n        /* \"contracts/Staking/staking.sol\":3121:3125  true */\n      0x01\n        /* \"contracts/Staking/staking.sol\":3055:3126  Staker(_amount-AdminFee,block.timestamp,StakeMonth,EarnPersentage,true) */\n      iszero\n      iszero\n      dup2\n      mstore\n      pop\n        /* \"contracts/Staking/staking.sol\":3041:3048  Details */\n      0x06\n        /* \"contracts/Staking/staking.sol\":3041:3052  Details[to] */\n      0x00\n        /* \"contracts/Staking/staking.sol\":3049:3051  to */\n      dup9\n        /* \"contracts/Staking/staking.sol\":3041:3052  Details[to] */\n      0xffffffffffffffffffffffffffffffffffffffff\n      and\n      0xffffffffffffffffffffffffffffffffffffffff\n      and\n      dup2\n      mstore\n      0x20\n      add\n      swap1\n      dup2\n      mstore\n      0x20\n      add\n      0x00\n      keccak256\n        /* \"contracts/Staking/staking.sol\":3041:3126  Details[to] = Staker(_amount-AdminFee,block.timestamp,StakeMonth,EarnPersentage,true) */\n      0x00\n      dup3\n      add\n      mload\n      dup2\n      0x00\n      add\n      sstore\n      0x20\n      dup3\n      add\n      mload\n      dup2\n      0x01\n      add\n      sstore\n      0x40\n      dup3\n      add\n      mload\n      dup2\n      0x02\n      add\n      sstore\n      0x60\n      dup3\n      add\n      mload\n      dup2\n      0x03\n      add\n      sstore\n      0x80\n      dup3\n      add\n      mload\n      dup2\n      0x04\n      add\n      exp(0x0100, 0x00)\n      dup2\n      sload\n      dup2\n      0xff\n      mul\n      not\n      and\n      swap1\n      dup4\n      iszero\n      iszero\n      mul\n      or\n      swap1\n      sstore\n      pop\n      swap1\n      pop\n      pop\n        /* \"contracts/Staking/staking.sol\":3169:3172  APY */\n      0x08\n        /* \"contracts/Staking/staking.sol\":3169:3175  APY[1] */\n      0x00\n        /* \"contracts/Staking/staking.sol\":3173:3174  1 */\n      0x01\n        /* \"contracts/Staking/staking.sol\":3169:3175  APY[1] */\n      dup2\n      mstore\n      0x20\n      add\n      swap1\n      dup2\n      mstore\n      0x20\n      add\n      0x00\n      keccak256\n      sload\n        /* \"contracts/Staking/staking.sol\":3143:3150  Details */\n      0x06\n        /* \"contracts/Staking/staking.sol\":3143:3154  Details[to] */\n      0x00\n        /* \"contracts/Staking/staking.sol\":3151:3153  to */\n      dup9\n        /* \"contracts/Staking/staking.sol\":3143:3154  Details[to] */\n      0xffffffffffffffffffffffffffffffffffffffff\n      and\n      0xffffffffffffffffffffffffffffffffffffffff\n      and\n      dup2\n      mstore\n      0x20\n      add\n      swap1\n      dup2\n      mstore\n      0x20\n      add\n      0x00\n      keccak256\n        /* \"contracts/Staking/staking.sol\":3143:3165  Details[to].StakeMonth */\n      0x02\n      add\n      sload\n        /* \"contracts/Staking/staking.sol\":3143:3175  Details[to].StakeMonth == APY[1] */\n      sub\n        /* \"contracts/Staking/staking.sol\":3140:3555  if(Details[to].StakeMonth == APY[1]){... */\n      tag_157\n      jumpi\n        /* \"contracts/Staking/staking.sol\":3256:3260  1000 */\n      0x03e8\n        /* \"contracts/Staking/staking.sol\":3236:3242  APYPer */\n      0x09\n        /* \"contracts/Staking/staking.sol\":3236:3254  APYPer[StakeMonth] */\n      0x00\n        /* \"contracts/Staking/staking.sol\":3243:3253  StakeMonth */\n      dup7\n        /* \"contracts/Staking/staking.sol\":3236:3254  APYPer[StakeMonth] */\n      dup2\n      mstore\n      0x20\n      add\n      swap1\n      dup2\n      mstore\n      0x20\n      add\n      0x00\n      keccak256\n      sload\n        /* \"contracts/Staking/staking.sol\":3226:3234  AdminFee */\n      dup3\n        /* \"contracts/Staking/staking.sol\":3218:3225  _amount */\n      dup5\n        /* \"contracts/Staking/staking.sol\":3218:3234  _amount-AdminFee */\n      tag_158\n      swap2\n      swap1\n      tag_106\n      jump\t// in\n    tag_158:\n        /* \"contracts/Staking/staking.sol\":3217:3254  (_amount-AdminFee)*APYPer[StakeMonth] */\n      tag_159\n      swap2\n      swap1\n      tag_98\n      jump\t// in\n    tag_159:\n        /* \"contracts/Staking/staking.sol\":3216:3260  ((_amount-AdminFee)*APYPer[StakeMonth])/1000 */\n      tag_160\n      swap2\n      swap1\n      tag_108\n      jump\t// in\n    tag_160:\n        /* \"contracts/Staking/staking.sol\":3194:3208  InterestAmount */\n      0x07\n        /* \"contracts/Staking/staking.sol\":3194:3212  InterestAmount[to] */\n      0x00\n        /* \"contracts/Staking/staking.sol\":3209:3211  to */\n      dup9\n        /* \"contracts/Staking/staking.sol\":3194:3212  InterestAmount[to] */\n      0xffffffffffffffffffffffffffffffffffffffff\n      and\n      0xffffffffffffffffffffffffffffffffffffffff\n      and\n      dup2\n      mstore\n      0x20\n      add\n      swap1\n      dup2\n      mstore\n      0x20\n      add\n      0x00\n      keccak256\n        /* \"contracts/Staking/staking.sol\":3194:3260  InterestAmount[to] =  ((_amount-AdminFee)*APYPer[StakeMonth])/1000 */\n      dup2\n      swap1\n      sstore\n      pop\n        /* \"contracts/Staking/staking.sol\":3140:3555  if(Details[to].StakeMonth == APY[1]){... */\n      jump(tag_161)\n    tag_157:\n        /* \"contracts/Staking/staking.sol\":3309:3312  APY */\n      0x08\n        /* \"contracts/Staking/staking.sol\":3309:3315  APY[2] */\n      0x00\n        /* \"contracts/Staking/staking.sol\":3313:3314  2 */\n      0x02\n        /* \"contracts/Staking/staking.sol\":3309:3315  APY[2] */\n      dup2\n      mstore\n      0x20\n      add\n      swap1\n      dup2\n      mstore\n      0x20\n      add\n      0x00\n      keccak256\n      sload\n        /* \"contracts/Staking/staking.sol\":3283:3290  Details */\n      0x06\n        /* \"contracts/Staking/staking.sol\":3283:3294  Details[to] */\n      0x00\n        /* \"contracts/Staking/staking.sol\":3291:3293  to */\n      dup9\n        /* \"contracts/Staking/staking.sol\":3283:3294  Details[to] */\n      0xffffffffffffffffffffffffffffffffffffffff\n      and\n      0xffffffffffffffffffffffffffffffffffffffff\n      and\n      dup2\n      mstore\n      0x20\n      add\n      swap1\n      dup2\n      mstore\n      0x20\n      add\n      0x00\n      keccak256\n        /* \"contracts/Staking/staking.sol\":3283:3305  Details[to].StakeMonth */\n      0x02\n      add\n      sload\n        /* \"contracts/Staking/staking.sol\":3283:3315  Details[to].StakeMonth == APY[2] */\n      sub\n        /* \"contracts/Staking/staking.sol\":3280:3555  if(Details[to].StakeMonth == APY[2]){... */\n      tag_162\n      jumpi\n        /* \"contracts/Staking/staking.sol\":3396:3400  1000 */\n      0x03e8\n        /* \"contracts/Staking/staking.sol\":3376:3382  APYPer */\n      0x09\n        /* \"contracts/Staking/staking.sol\":3376:3394  APYPer[StakeMonth] */\n      0x00\n        /* \"contracts/Staking/staking.sol\":3383:3393  StakeMonth */\n      dup7\n        /* \"contracts/Staking/staking.sol\":3376:3394  APYPer[StakeMonth] */\n      dup2\n      mstore\n      0x20\n      add\n      swap1\n      dup2\n      mstore\n      0x20\n      add\n      0x00\n      keccak256\n      sload\n        /* \"contracts/Staking/staking.sol\":3366:3374  AdminFee */\n      dup3\n        /* \"contracts/Staking/staking.sol\":3358:3365  _amount */\n      dup5\n        /* \"contracts/Staking/staking.sol\":3358:3374  _amount-AdminFee */\n      tag_163\n      swap2\n      swap1\n      tag_106\n      jump\t// in\n    tag_163:\n        /* \"contracts/Staking/staking.sol\":3357:3394  (_amount-AdminFee)*APYPer[StakeMonth] */\n      tag_164\n      swap2\n      swap1\n      tag_98\n      jump\t// in\n    tag_164:\n        /* \"contracts/Staking/staking.sol\":3356:3400  ((_amount-AdminFee)*APYPer[StakeMonth])/1000 */\n      tag_165\n      swap2\n      swap1\n      tag_108\n      jump\t// in\n    tag_165:\n        /* \"contracts/Staking/staking.sol\":3334:3348  InterestAmount */\n      0x07\n        /* \"contracts/Staking/staking.sol\":3334:3352  InterestAmount[to] */\n      0x00\n        /* \"contracts/Staking/staking.sol\":3349:3351  to */\n      dup9\n        /* \"contracts/Staking/staking.sol\":3334:3352  InterestAmount[to] */\n      0xffffffffffffffffffffffffffffffffffffffff\n      and\n      0xffffffffffffffffffffffffffffffffffffffff\n      and\n      dup2\n      mstore\n      0x20\n      add\n      swap1\n      dup2\n      mstore\n      0x20\n      add\n      0x00\n      keccak256\n        /* \"contracts/Staking/staking.sol\":3334:3400  InterestAmount[to] =  ((_amount-AdminFee)*APYPer[StakeMonth])/1000 */\n      dup2\n      swap1\n      sstore\n      pop\n        /* \"contracts/Staking/staking.sol\":3280:3555  if(Details[to].StakeMonth == APY[2]){... */\n      jump(tag_166)\n    tag_162:\n        /* \"contracts/Staking/staking.sol\":3449:3452  APY */\n      0x08\n        /* \"contracts/Staking/staking.sol\":3449:3455  APY[3] */\n      0x00\n        /* \"contracts/Staking/staking.sol\":3453:3454  3 */\n      0x03\n        /* \"contracts/Staking/staking.sol\":3449:3455  APY[3] */\n      dup2\n      mstore\n      0x20\n      add\n      swap1\n      dup2\n      mstore\n      0x20\n      add\n      0x00\n      keccak256\n      sload\n        /* \"contracts/Staking/staking.sol\":3423:3430  Details */\n      0x06\n        /* \"contracts/Staking/staking.sol\":3423:3434  Details[to] */\n      0x00\n        /* \"contracts/Staking/staking.sol\":3431:3433  to */\n      dup9\n        /* \"contracts/Staking/staking.sol\":3423:3434  Details[to] */\n      0xffffffffffffffffffffffffffffffffffffffff\n      and\n      0xffffffffffffffffffffffffffffffffffffffff\n      and\n      dup2\n      mstore\n      0x20\n      add\n      swap1\n      dup2\n      mstore\n      0x20\n      add\n      0x00\n      keccak256\n        /* \"contracts/Staking/staking.sol\":3423:3445  Details[to].StakeMonth */\n      0x02\n      add\n      sload\n        /* \"contracts/Staking/staking.sol\":3423:3455  Details[to].StakeMonth == APY[3] */\n      sub\n        /* \"contracts/Staking/staking.sol\":3420:3555  if(Details[to].StakeMonth == APY[3]){... */\n      tag_167\n      jumpi\n        /* \"contracts/Staking/staking.sol\":3536:3540  1000 */\n      0x03e8\n        /* \"contracts/Staking/staking.sol\":3516:3522  APYPer */\n      0x09\n        /* \"contracts/Staking/staking.sol\":3516:3534  APYPer[StakeMonth] */\n      0x00\n        /* \"contracts/Staking/staking.sol\":3523:3533  StakeMonth */\n      dup7\n        /* \"contracts/Staking/staking.sol\":3516:3534  APYPer[StakeMonth] */\n      dup2\n      mstore\n      0x20\n      add\n      swap1\n      dup2\n      mstore\n      0x20\n      add\n      0x00\n      keccak256\n      sload\n        /* \"contracts/Staking/staking.sol\":3506:3514  AdminFee */\n      dup3\n        /* \"contracts/Staking/staking.sol\":3498:3505  _amount */\n      dup5\n        /* \"contracts/Staking/staking.sol\":3498:3514  _amount-AdminFee */\n      tag_168\n      swap2\n      swap1\n      tag_106\n      jump\t// in\n    tag_168:\n        /* \"contracts/Staking/staking.sol\":3497:3534  (_amount-AdminFee)*APYPer[StakeMonth] */\n      tag_169\n      swap2\n      swap1\n      tag_98\n      jump\t// in\n    tag_169:\n        /* \"contracts/Staking/staking.sol\":3496:3540  ((_amount-AdminFee)*APYPer[StakeMonth])/1000 */\n      tag_170\n      swap2\n      swap1\n      tag_108\n      jump\t// in\n    tag_170:\n        /* \"contracts/Staking/staking.sol\":3474:3488  InterestAmount */\n      0x07\n        /* \"contracts/Staking/staking.sol\":3474:3492  InterestAmount[to] */\n      0x00\n        /* \"contracts/Staking/staking.sol\":3489:3491  to */\n      dup9\n        /* \"contracts/Staking/staking.sol\":3474:3492  InterestAmount[to] */\n      0xffffffffffffffffffffffffffffffffffffffff\n      and\n      0xffffffffffffffffffffffffffffffffffffffff\n      and\n      dup2\n      mstore\n      0x20\n      add\n      swap1\n      dup2\n      mstore\n      0x20\n      add\n      0x00\n      keccak256\n        /* \"contracts/Staking/staking.sol\":3474:3540  InterestAmount[to] =  ((_amount-AdminFee)*APYPer[StakeMonth])/1000 */\n      dup2\n      swap1\n      sstore\n      pop\n        /* \"contracts/Staking/staking.sol\":3420:3555  if(Details[to].StakeMonth == APY[3]){... */\n    tag_167:\n        /* \"contracts/Staking/staking.sol\":3280:3555  if(Details[to].StakeMonth == APY[2]){... */\n    tag_166:\n        /* \"contracts/Staking/staking.sol\":3140:3555  if(Details[to].StakeMonth == APY[1]){... */\n    tag_161:\n        /* \"contracts/Staking/staking.sol\":3568:3634  IERC20(ERC20Address).safeTransferFrom(to, address(this) , _amount) */\n      tag_171\n        /* \"contracts/Staking/staking.sol\":3606:3608  to */\n      dup7\n        /* \"contracts/Staking/staking.sol\":3618:3622  this */\n      address\n        /* \"contracts/Staking/staking.sol\":3626:3633  _amount */\n      dup5\n        /* \"contracts/Staking/staking.sol\":3575:3587  ERC20Address */\n      0x01\n      0x00\n      swap1\n      sload\n      swap1\n      0x0100\n      exp\n      swap1\n      div\n      0xffffffffffffffffffffffffffffffffffffffff\n      and\n        /* \"contracts/Staking/staking.sol\":3568:3605  IERC20(ERC20Address).safeTransferFrom */\n      0xffffffffffffffffffffffffffffffffffffffff\n      and\n      tag_144\n      swap1\n        /* \"contracts/Staking/staking.sol\":3568:3634  IERC20(ERC20Address).safeTransferFrom(to, address(this) , _amount) */\n      swap4\n      swap3\n      swap2\n      swap1\n      0xffffffff\n      and\n      jump\t// in\n    tag_171:\n        /* \"contracts/Staking/staking.sol\":2742:3653  {... */\n      pop\n        /* \"contracts/Staking/staking.sol\":2146:3653  if(Details[to].check){... */\n    tag_145:\n        /* \"contracts/Staking/staking.sol\":3676:3683  _amount */\n      dup1\n        /* \"contracts/Staking/staking.sol\":3662:3668  Tokens */\n      0x0a\n        /* \"contracts/Staking/staking.sol\":3662:3672  Tokens[to] */\n      0x00\n        /* \"contracts/Staking/staking.sol\":3669:3671  to */\n      dup8\n        /* \"contracts/Staking/staking.sol\":3662:3672  Tokens[to] */\n      0xffffffffffffffffffffffffffffffffffffffff\n      and\n      0xffffffffffffffffffffffffffffffffffffffff\n      and\n      dup2\n      mstore\n      0x20\n      add\n      swap1\n      dup2\n      mstore\n      0x20\n      add\n      0x00\n      keccak256\n      0x00\n        /* \"contracts/Staking/staking.sol\":3662:3683  Tokens[to] += _amount */\n      dup3\n      dup3\n      sload\n      tag_172\n      swap2\n      swap1\n      tag_101\n      jump\t// in\n    tag_172:\n      swap3\n      pop\n      pop\n      dup2\n      swap1\n      sstore\n      pop\n        /* \"contracts/Staking/staking.sol\":3714:3721  _amount */\n      dup1\n        /* \"contracts/Staking/staking.sol\":3693:3710  totalStakedTokens */\n      0x03\n      0x00\n        /* \"contracts/Staking/staking.sol\":3693:3721  totalStakedTokens += _amount */\n      dup3\n      dup3\n      sload\n      tag_173\n      swap2\n      swap1\n      tag_101\n      jump\t// in\n    tag_173:\n      swap3\n      pop\n      pop\n      dup2\n      swap1\n      sstore\n      pop\n        /* \"contracts/Staking/staking.sol\":2020:3728  {... */\n      pop\n        /* \"contracts/Staking/staking.sol\":1919:3728  function DepositTokens(address to,uint256 _payment,uint256 StakeMonth,uint256 EarnPersentage) public {... */\n      pop\n      pop\n      pop\n      pop\n      jump\t// out\n        /* \"contracts/Staking/staking.sol\":744:776  mapping(uint => uint) public APY */\n    tag_41:\n      mstore(0x20, 0x08)\n      dup1\n      0x00\n      mstore\n      keccak256(0x00, 0x40)\n      0x00\n      swap2\n      pop\n      swap1\n      pop\n      sload\n      dup2\n      jump\t// out\n        /* \"contracts/Staking/staking.sol\":7899:8050  function SetAPY(uint Month1,uint Month2,uint Month3) public onlyOwner{... */\n    tag_46:\n        /* \"@openzeppelin/contracts/access/Ownable.sol\":1094:1107  _checkOwner() */\n      tag_175\n        /* \"@openzeppelin/contracts/access/Ownable.sol\":1094:1105  _checkOwner */\n      tag_176\n        /* \"@openzeppelin/contracts/access/Ownable.sol\":1094:1107  _checkOwner() */\n      jump\t// in\n    tag_175:\n        /* \"contracts/Staking/staking.sol\":7987:7993  Month1 */\n      dup3\n        /* \"contracts/Staking/staking.sol\":7978:7981  APY */\n      0x08\n        /* \"contracts/Staking/staking.sol\":7978:7984  APY[1] */\n      0x00\n        /* \"contracts/Staking/staking.sol\":7982:7983  1 */\n      0x01\n        /* \"contracts/Staking/staking.sol\":7978:7984  APY[1] */\n      dup2\n      mstore\n      0x20\n      add\n      swap1\n      dup2\n      mstore\n      0x20\n      add\n      0x00\n      keccak256\n        /* \"contracts/Staking/staking.sol\":7978:7993  APY[1] = Month1 */\n      dup2\n      swap1\n      sstore\n      pop\n        /* \"contracts/Staking/staking.sol\":8012:8018  Month2 */\n      dup2\n        /* \"contracts/Staking/staking.sol\":8003:8006  APY */\n      0x08\n        /* \"contracts/Staking/staking.sol\":8003:8009  APY[2] */\n      0x00\n        /* \"contracts/Staking/staking.sol\":8007:8008  2 */\n      0x02\n        /* \"contracts/Staking/staking.sol\":8003:8009  APY[2] */\n      dup2\n      mstore\n      0x20\n      add\n      swap1\n      dup2\n      mstore\n      0x20\n      add\n      0x00\n      keccak256\n        /* \"contracts/Staking/staking.sol\":8003:8018  APY[2] = Month2 */\n      dup2\n      swap1\n      sstore\n      pop\n        /* \"contracts/Staking/staking.sol\":8037:8043  Month3 */\n      dup1\n        /* \"contracts/Staking/staking.sol\":8028:8031  APY */\n      0x08\n        /* \"contracts/Staking/staking.sol\":8028:8034  APY[3] */\n      0x00\n        /* \"contracts/Staking/staking.sol\":8032:8033  3 */\n      0x03\n        /* \"contracts/Staking/staking.sol\":8028:8034  APY[3] */\n      dup2\n      mstore\n      0x20\n      add\n      swap1\n      dup2\n      mstore\n      0x20\n      add\n      0x00\n      keccak256\n        /* \"contracts/Staking/staking.sol\":8028:8043  APY[3] = Month3 */\n      dup2\n      swap1\n      sstore\n      pop\n        /* \"contracts/Staking/staking.sol\":7899:8050  function SetAPY(uint Month1,uint Month2,uint Month3) public onlyOwner{... */\n      pop\n      pop\n      pop\n      jump\t// out\n        /* \"contracts/Staking/staking.sol\":8497:8613  function setTexAndPenalty(uint taxFee,uint _penalty) public{... */\n    tag_50:\n        /* \"contracts/Staking/staking.sol\":8572:8578  taxFee */\n      dup2\n        /* \"contracts/Staking/staking.sol\":8566:8569  Tax */\n      0x04\n        /* \"contracts/Staking/staking.sol\":8566:8578  Tax = taxFee */\n      dup2\n      swap1\n      sstore\n      pop\n        /* \"contracts/Staking/staking.sol\":8598:8606  _penalty */\n      dup1\n        /* \"contracts/Staking/staking.sol\":8588:8595  penalty */\n      0x05\n        /* \"contracts/Staking/staking.sol\":8588:8606  penalty = _penalty */\n      dup2\n      swap1\n      sstore\n      pop\n        /* \"contracts/Staking/staking.sol\":8497:8613  function setTexAndPenalty(uint taxFee,uint _penalty) public{... */\n      pop\n      pop\n      jump\t// out\n        /* \"contracts/Staking/staking.sol\":8618:8717  function getTaxPenalty() public view returns(uint tax,uint pen){... */\n    tag_52:\n        /* \"contracts/Staking/staking.sol\":8663:8671  uint tax */\n      0x00\n        /* \"contracts/Staking/staking.sol\":8672:8680  uint pen */\n      dup1\n        /* \"contracts/Staking/staking.sol\":8698:8701  Tax */\n      sload(0x04)\n        /* \"contracts/Staking/staking.sol\":8702:8709  penalty */\n      sload(0x05)\n        /* \"contracts/Staking/staking.sol\":8691:8710  return(Tax,penalty) */\n      swap2\n      pop\n      swap2\n      pop\n        /* \"contracts/Staking/staking.sol\":8618:8717  function getTaxPenalty() public view returns(uint tax,uint pen){... */\n      swap1\n      swap2\n      jump\t// out\n        /* \"contracts/Staking/staking.sol\":411:440  uint public totalStakedTokens */\n    tag_56:\n      sload(0x03)\n      dup2\n      jump\t// out\n        /* \"contracts/Staking/staking.sol\":691:738  mapping (address => uint) public InterestAmount */\n    tag_60:\n      mstore(0x20, 0x07)\n      dup1\n      0x00\n      mstore\n      keccak256(0x00, 0x40)\n      0x00\n      swap2\n      pop\n      swap1\n      pop\n      sload\n      dup2\n      jump\t// out\n        /* \"@openzeppelin/contracts/access/Ownable.sol\":1831:1932  function renounceOwnership() public virtual onlyOwner {... */\n    tag_63:\n        /* \"@openzeppelin/contracts/access/Ownable.sol\":1094:1107  _checkOwner() */\n      tag_181\n        /* \"@openzeppelin/contracts/access/Ownable.sol\":1094:1105  _checkOwner */\n      tag_176\n        /* \"@openzeppelin/contracts/access/Ownable.sol\":1094:1107  _checkOwner() */\n      jump\t// in\n    tag_181:\n        /* \"@openzeppelin/contracts/access/Ownable.sol\":1895:1925  _transferOwnership(address(0)) */\n      tag_183\n        /* \"@openzeppelin/contracts/access/Ownable.sol\":1922:1923  0 */\n      0x00\n        /* \"@openzeppelin/contracts/access/Ownable.sol\":1895:1913  _transferOwnership */\n      tag_184\n        /* \"@openzeppelin/contracts/access/Ownable.sol\":1895:1925  _transferOwnership(address(0)) */\n      jump\t// in\n    tag_183:\n        /* \"@openzeppelin/contracts/access/Ownable.sol\":1831:1932  function renounceOwnership() public virtual onlyOwner {... */\n      jump\t// out\n        /* \"contracts/Staking/staking.sol\":782:817  mapping(uint => uint) public APYPer */\n    tag_66:\n      mstore(0x20, 0x09)\n      dup1\n      0x00\n      mstore\n      keccak256(0x00, 0x40)\n      0x00\n      swap2\n      pop\n      swap1\n      pop\n      sload\n      dup2\n      jump\t// out\n        /* \"@openzeppelin/contracts/access/Ownable.sol\":1201:1286  function owner() public view virtual returns (address) {... */\n    tag_69:\n        /* \"@openzeppelin/contracts/access/Ownable.sol\":1247:1254  address */\n      0x00\n        /* \"@openzeppelin/contracts/access/Ownable.sol\":1273:1279  _owner */\n      dup1\n      0x00\n      swap1\n      sload\n      swap1\n      0x0100\n      exp\n      swap1\n      div\n      0xffffffffffffffffffffffffffffffffffffffff\n      and\n        /* \"@openzeppelin/contracts/access/Ownable.sol\":1266:1279  return _owner */\n      swap1\n      pop\n        /* \"@openzeppelin/contracts/access/Ownable.sol\":1201:1286  function owner() public view virtual returns (address) {... */\n      swap1\n      jump\t// out\n        /* \"contracts/Staking/staking.sol\":3923:6784  function WithdrawTokens(address to) public {... */\n    tag_74:\n        /* \"contracts/Staking/staking.sol\":3984:3991  Details */\n      0x06\n        /* \"contracts/Staking/staking.sol\":3984:3995  Details[to] */\n      0x00\n        /* \"contracts/Staking/staking.sol\":3992:3994  to */\n      dup3\n        /* \"contracts/Staking/staking.sol\":3984:3995  Details[to] */\n      0xffffffffffffffffffffffffffffffffffffffff\n      and\n      0xffffffffffffffffffffffffffffffffffffffff\n      and\n      dup2\n      mstore\n      0x20\n      add\n      swap1\n      dup2\n      mstore\n      0x20\n      add\n      0x00\n      keccak256\n        /* \"contracts/Staking/staking.sol\":3984:4001  Details[to].check */\n      0x04\n      add\n      0x00\n      swap1\n      sload\n      swap1\n      0x0100\n      exp\n      swap1\n      div\n      0xff\n      and\n        /* \"contracts/Staking/staking.sol\":3976:4023  require(Details[to].check,\"First Stake Tokens\") */\n      tag_187\n      jumpi\n      mload(0x40)\n      0x08c379a000000000000000000000000000000000000000000000000000000000\n      dup2\n      mstore\n      0x04\n      add\n      tag_188\n      swap1\n      tag_189\n      jump\t// in\n    tag_188:\n      mload(0x40)\n      dup1\n      swap2\n      sub\n      swap1\n      revert\n    tag_187:\n        /* \"contracts/Staking/staking.sol\":4042:4056  uint EarnToken */\n      0x00\n        /* \"contracts/Staking/staking.sol\":4066:4080  uint BurnToken */\n      dup1\n        /* \"contracts/Staking/staking.sol\":4152:4167  block.timestamp */\n      timestamp\n        /* \"contracts/Staking/staking.sol\":4127:4134  Details */\n      0x06\n        /* \"contracts/Staking/staking.sol\":4127:4138  Details[to] */\n      0x00\n        /* \"contracts/Staking/staking.sol\":4135:4137  to */\n      dup6\n        /* \"contracts/Staking/staking.sol\":4127:4138  Details[to] */\n      0xffffffffffffffffffffffffffffffffffffffff\n      and\n      0xffffffffffffffffffffffffffffffffffffffff\n      and\n      dup2\n      mstore\n      0x20\n      add\n      swap1\n      dup2\n      mstore\n      0x20\n      add\n      0x00\n      keccak256\n        /* \"contracts/Staking/staking.sol\":4127:4148  Details[to].stakeTime */\n      0x01\n      add\n      sload\n        /* \"contracts/Staking/staking.sol\":4121:4123  60 */\n      0x3c\n        /* \"contracts/Staking/staking.sol\":4118:4120  30 */\n      0x1e\n        /* \"contracts/Staking/staking.sol\":4095:4102  Details */\n      0x06\n        /* \"contracts/Staking/staking.sol\":4095:4106  Details[to] */\n      0x00\n        /* \"contracts/Staking/staking.sol\":4103:4105  to */\n      dup9\n        /* \"contracts/Staking/staking.sol\":4095:4106  Details[to] */\n      0xffffffffffffffffffffffffffffffffffffffff\n      and\n      0xffffffffffffffffffffffffffffffffffffffff\n      and\n      dup2\n      mstore\n      0x20\n      add\n      swap1\n      dup2\n      mstore\n      0x20\n      add\n      0x00\n      keccak256\n        /* \"contracts/Staking/staking.sol\":4095:4117  Details[to].StakeMonth */\n      0x02\n      add\n      sload\n        /* \"contracts/Staking/staking.sol\":4095:4120  Details[to].StakeMonth*30 */\n      tag_190\n      swap2\n      swap1\n      tag_98\n      jump\t// in\n    tag_190:\n        /* \"contracts/Staking/staking.sol\":4095:4123  Details[to].StakeMonth*30*60 */\n      tag_191\n      swap2\n      swap1\n      tag_98\n      jump\t// in\n    tag_191:\n        /* \"contracts/Staking/staking.sol\":4094:4148  (Details[to].StakeMonth*30*60) + Details[to].stakeTime */\n      tag_192\n      swap2\n      swap1\n      tag_101\n      jump\t// in\n    tag_192:\n        /* \"contracts/Staking/staking.sol\":4093:4167  ((Details[to].StakeMonth*30*60) + Details[to].stakeTime) < block.timestamp */\n      lt\n        /* \"contracts/Staking/staking.sol\":4090:6633  if(((Details[to].StakeMonth*30*60) + Details[to].stakeTime) < block.timestamp){... */\n      iszero\n      tag_193\n      jumpi\n        /* \"contracts/Staking/staking.sol\":4215:4218  100 */\n      0x64\n        /* \"contracts/Staking/staking.sol\":4185:4192  Details */\n      0x06\n        /* \"contracts/Staking/staking.sol\":4185:4196  Details[to] */\n      0x00\n        /* \"contracts/Staking/staking.sol\":4193:4195  to */\n      dup6\n        /* \"contracts/Staking/staking.sol\":4185:4196  Details[to] */\n      0xffffffffffffffffffffffffffffffffffffffff\n      and\n      0xffffffffffffffffffffffffffffffffffffffff\n      and\n      dup2\n      mstore\n      0x20\n      add\n      swap1\n      dup2\n      mstore\n      0x20\n      add\n      0x00\n      keccak256\n        /* \"contracts/Staking/staking.sol\":4185:4211  Details[to].EarnPersentage */\n      0x03\n      add\n      sload\n        /* \"contracts/Staking/staking.sol\":4185:4218  Details[to].EarnPersentage == 100 */\n      sub\n        /* \"contracts/Staking/staking.sol\":4182:5057  if(Details[to].EarnPersentage == 100){... */\n      tag_194\n      jumpi\n        /* \"contracts/Staking/staking.sol\":4244:4256  ERC20Address */\n      0x01\n      0x00\n      swap1\n      sload\n      swap1\n      0x0100\n      exp\n      swap1\n      div\n      0xffffffffffffffffffffffffffffffffffffffff\n      and\n        /* \"contracts/Staking/staking.sol\":4237:4266  IERC20(ERC20Address).transfer */\n      0xffffffffffffffffffffffffffffffffffffffff\n      and\n      0xa9059cbb\n        /* \"contracts/Staking/staking.sol\":4267:4269  to */\n      dup5\n        /* \"contracts/Staking/staking.sol\":4299:4313  InterestAmount */\n      0x07\n        /* \"contracts/Staking/staking.sol\":4299:4317  InterestAmount[to] */\n      0x00\n        /* \"contracts/Staking/staking.sol\":4314:4316  to */\n      dup8\n        /* \"contracts/Staking/staking.sol\":4299:4317  InterestAmount[to] */\n      0xffffffffffffffffffffffffffffffffffffffff\n      and\n      0xffffffffffffffffffffffffffffffffffffffff\n      and\n      dup2\n      mstore\n      0x20\n      add\n      swap1\n      dup2\n      mstore\n      0x20\n      add\n      0x00\n      keccak256\n      sload\n        /* \"contracts/Staking/staking.sol\":4271:4278  Details */\n      0x06\n        /* \"contracts/Staking/staking.sol\":4271:4282  Details[to] */\n      0x00\n        /* \"contracts/Staking/staking.sol\":4279:4281  to */\n      dup9\n        /* \"contracts/Staking/staking.sol\":4271:4282  Details[to] */\n      0xffffffffffffffffffffffffffffffffffffffff\n      and\n      0xffffffffffffffffffffffffffffffffffffffff\n      and\n      dup2\n      mstore\n      0x20\n      add\n      swap1\n      dup2\n      mstore\n      0x20\n      add\n      0x00\n      keccak256\n        /* \"contracts/Staking/staking.sol\":4271:4296  Details[to].depositTokens */\n      0x00\n      add\n      sload\n        /* \"contracts/Staking/staking.sol\":4271:4317  Details[to].depositTokens + InterestAmount[to] */\n      tag_195\n      swap2\n      swap1\n      tag_101\n      jump\t// in\n    tag_195:\n        /* \"contracts/Staking/staking.sol\":4237:4318  IERC20(ERC20Address).transfer(to, Details[to].depositTokens + InterestAmount[to]) */\n      mload(0x40)\n      dup4\n      0xffffffff\n      and\n      0xe0\n      shl\n      dup2\n      mstore\n      0x04\n      add\n      tag_196\n      swap3\n      swap2\n      swap1\n      tag_114\n      jump\t// in\n    tag_196:\n      0x20\n      mload(0x40)\n      dup1\n      dup4\n      sub\n      dup2\n      0x00\n      dup8\n      gas\n      call\n      iszero\n      dup1\n      iszero\n      tag_198\n      jumpi\n      returndatasize\n      0x00\n      dup1\n      returndatacopy\n      revert(0x00, returndatasize)\n    tag_198:\n      pop\n      pop\n      pop\n      pop\n      mload(0x40)\n      returndatasize\n      not(0x1f)\n      0x1f\n      dup3\n      add\n      and\n      dup3\n      add\n      dup1\n      0x40\n      mstore\n      pop\n      dup2\n      add\n      swap1\n      tag_199\n      swap2\n      swap1\n      tag_118\n      jump\t// in\n    tag_199:\n      pop\n        /* \"contracts/Staking/staking.sol\":4182:5057  if(Details[to].EarnPersentage == 100){... */\n      jump(tag_200)\n    tag_194:\n        /* \"contracts/Staking/staking.sol\":4371:4373  75 */\n      0x4b\n        /* \"contracts/Staking/staking.sol\":4341:4348  Details */\n      0x06\n        /* \"contracts/Staking/staking.sol\":4341:4352  Details[to] */\n      0x00\n        /* \"contracts/Staking/staking.sol\":4349:4351  to */\n      dup6\n        /* \"contracts/Staking/staking.sol\":4341:4352  Details[to] */\n      0xffffffffffffffffffffffffffffffffffffffff\n      and\n      0xffffffffffffffffffffffffffffffffffffffff\n      and\n      dup2\n      mstore\n      0x20\n      add\n      swap1\n      dup2\n      mstore\n      0x20\n      add\n      0x00\n      keccak256\n        /* \"contracts/Staking/staking.sol\":4341:4367  Details[to].EarnPersentage */\n      0x03\n      add\n      sload\n        /* \"contracts/Staking/staking.sol\":4341:4373  Details[to].EarnPersentage == 75 */\n      sub\n        /* \"contracts/Staking/staking.sol\":4338:5057  if(Details[to].EarnPersentage == 75){... */\n      tag_201\n      jumpi\n        /* \"contracts/Staking/staking.sol\":4428:4431  100 */\n      0x64\n        /* \"contracts/Staking/staking.sol\":4424:4426  75 */\n      0x4b\n        /* \"contracts/Staking/staking.sol\":4405:4419  InterestAmount */\n      0x07\n        /* \"contracts/Staking/staking.sol\":4405:4423  InterestAmount[to] */\n      0x00\n        /* \"contracts/Staking/staking.sol\":4420:4422  to */\n      dup7\n        /* \"contracts/Staking/staking.sol\":4405:4423  InterestAmount[to] */\n      0xffffffffffffffffffffffffffffffffffffffff\n      and\n      0xffffffffffffffffffffffffffffffffffffffff\n      and\n      dup2\n      mstore\n      0x20\n      add\n      swap1\n      dup2\n      mstore\n      0x20\n      add\n      0x00\n      keccak256\n      sload\n        /* \"contracts/Staking/staking.sol\":4405:4426  InterestAmount[to]*75 */\n      tag_202\n      swap2\n      swap1\n      tag_98\n      jump\t// in\n    tag_202:\n        /* \"contracts/Staking/staking.sol\":4404:4431  (InterestAmount[to]*75)/100 */\n      tag_203\n      swap2\n      swap1\n      tag_108\n      jump\t// in\n    tag_203:\n        /* \"contracts/Staking/staking.sol\":4392:4431  EarnToken = (InterestAmount[to]*75)/100 */\n      swap2\n      pop\n        /* \"contracts/Staking/staking.sol\":4456:4468  ERC20Address */\n      0x01\n      0x00\n      swap1\n      sload\n      swap1\n      0x0100\n      exp\n      swap1\n      div\n      0xffffffffffffffffffffffffffffffffffffffff\n      and\n        /* \"contracts/Staking/staking.sol\":4449:4478  IERC20(ERC20Address).transfer */\n      0xffffffffffffffffffffffffffffffffffffffff\n      and\n      0xa9059cbb\n        /* \"contracts/Staking/staking.sol\":4479:4481  to */\n      dup5\n        /* \"contracts/Staking/staking.sol\":4511:4520  EarnToken */\n      dup5\n        /* \"contracts/Staking/staking.sol\":4483:4490  Details */\n      0x06\n        /* \"contracts/Staking/staking.sol\":4483:4494  Details[to] */\n      0x00\n        /* \"contracts/Staking/staking.sol\":4491:4493  to */\n      dup9\n        /* \"contracts/Staking/staking.sol\":4483:4494  Details[to] */\n      0xffffffffffffffffffffffffffffffffffffffff\n      and\n      0xffffffffffffffffffffffffffffffffffffffff\n      and\n      dup2\n      mstore\n      0x20\n      add\n      swap1\n      dup2\n      mstore\n      0x20\n      add\n      0x00\n      keccak256\n        /* \"contracts/Staking/staking.sol\":4483:4508  Details[to].depositTokens */\n      0x00\n      add\n      sload\n        /* \"contracts/Staking/staking.sol\":4483:4520  Details[to].depositTokens + EarnToken */\n      tag_204\n      swap2\n      swap1\n      tag_101\n      jump\t// in\n    tag_204:\n        /* \"contracts/Staking/staking.sol\":4449:4521  IERC20(ERC20Address).transfer(to, Details[to].depositTokens + EarnToken) */\n      mload(0x40)\n      dup4\n      0xffffffff\n      and\n      0xe0\n      shl\n      dup2\n      mstore\n      0x04\n      add\n      tag_205\n      swap3\n      swap2\n      swap1\n      tag_114\n      jump\t// in\n    tag_205:\n      0x20\n      mload(0x40)\n      dup1\n      dup4\n      sub\n      dup2\n      0x00\n      dup8\n      gas\n      call\n      iszero\n      dup1\n      iszero\n      tag_207\n      jumpi\n      returndatasize\n      0x00\n      dup1\n      returndatacopy\n      revert(0x00, returndatasize)\n    tag_207:\n      pop\n      pop\n      pop\n      pop\n      mload(0x40)\n      returndatasize\n      not(0x1f)\n      0x1f\n      dup3\n      add\n      and\n      dup3\n      add\n      dup1\n      0x40\n      mstore\n      pop\n      dup2\n      add\n      swap1\n      tag_208\n      swap2\n      swap1\n      tag_118\n      jump\t// in\n    tag_208:\n      pop\n        /* \"contracts/Staking/staking.sol\":4575:4578  100 */\n      0x64\n        /* \"contracts/Staking/staking.sol\":4571:4573  25 */\n      0x19\n        /* \"contracts/Staking/staking.sol\":4552:4566  InterestAmount */\n      0x07\n        /* \"contracts/Staking/staking.sol\":4552:4570  InterestAmount[to] */\n      0x00\n        /* \"contracts/Staking/staking.sol\":4567:4569  to */\n      dup7\n        /* \"contracts/Staking/staking.sol\":4552:4570  InterestAmount[to] */\n      0xffffffffffffffffffffffffffffffffffffffff\n      and\n      0xffffffffffffffffffffffffffffffffffffffff\n      and\n      dup2\n      mstore\n      0x20\n      add\n      swap1\n      dup2\n      mstore\n      0x20\n      add\n      0x00\n      keccak256\n      sload\n        /* \"contracts/Staking/staking.sol\":4552:4573  InterestAmount[to]*25 */\n      tag_209\n      swap2\n      swap1\n      tag_98\n      jump\t// in\n    tag_209:\n        /* \"contracts/Staking/staking.sol\":4551:4578  (InterestAmount[to]*25)/100 */\n      tag_210\n      swap2\n      swap1\n      tag_108\n      jump\t// in\n    tag_210:\n        /* \"contracts/Staking/staking.sol\":4539:4578  BurnToken = (InterestAmount[to]*25)/100 */\n      swap1\n      pop\n        /* \"contracts/Staking/staking.sol\":4603:4615  ERC20Address */\n      0x01\n      0x00\n      swap1\n      sload\n      swap1\n      0x0100\n      exp\n      swap1\n      div\n      0xffffffffffffffffffffffffffffffffffffffff\n      and\n        /* \"contracts/Staking/staking.sol\":4596:4625  IERC20(ERC20Address).transfer */\n      0xffffffffffffffffffffffffffffffffffffffff\n      and\n      0xa9059cbb\n        /* \"contracts/Staking/staking.sol\":4626:4668  0x000000000000000000000000000000000000dEaD */\n      0xdead\n        /* \"contracts/Staking/staking.sol\":4670:4679  BurnToken */\n      dup4\n        /* \"contracts/Staking/staking.sol\":4596:4680  IERC20(ERC20Address).transfer(0x000000000000000000000000000000000000dEaD, BurnToken) */\n      mload(0x40)\n      dup4\n      0xffffffff\n      and\n      0xe0\n      shl\n      dup2\n      mstore\n      0x04\n      add\n      tag_211\n      swap3\n      swap2\n      swap1\n      tag_114\n      jump\t// in\n    tag_211:\n      0x20\n      mload(0x40)\n      dup1\n      dup4\n      sub\n      dup2\n      0x00\n      dup8\n      gas\n      call\n      iszero\n      dup1\n      iszero\n      tag_213\n      jumpi\n      returndatasize\n      0x00\n      dup1\n      returndatacopy\n      revert(0x00, returndatasize)\n    tag_213:\n      pop\n      pop\n      pop\n      pop\n      mload(0x40)\n      returndatasize\n      not(0x1f)\n      0x1f\n      dup3\n      add\n      and\n      dup3\n      add\n      dup1\n      0x40\n      mstore\n      pop\n      dup2\n      add\n      swap1\n      tag_214\n      swap2\n      swap1\n      tag_118\n      jump\t// in\n    tag_214:\n      pop\n        /* \"contracts/Staking/staking.sol\":4338:5057  if(Details[to].EarnPersentage == 75){... */\n      jump(tag_215)\n    tag_201:\n        /* \"contracts/Staking/staking.sol\":4733:4735  50 */\n      0x32\n        /* \"contracts/Staking/staking.sol\":4703:4710  Details */\n      0x06\n        /* \"contracts/Staking/staking.sol\":4703:4714  Details[to] */\n      0x00\n        /* \"contracts/Staking/staking.sol\":4711:4713  to */\n      dup6\n        /* \"contracts/Staking/staking.sol\":4703:4714  Details[to] */\n      0xffffffffffffffffffffffffffffffffffffffff\n      and\n      0xffffffffffffffffffffffffffffffffffffffff\n      and\n      dup2\n      mstore\n      0x20\n      add\n      swap1\n      dup2\n      mstore\n      0x20\n      add\n      0x00\n      keccak256\n        /* \"contracts/Staking/staking.sol\":4703:4729  Details[to].EarnPersentage */\n      0x03\n      add\n      sload\n        /* \"contracts/Staking/staking.sol\":4703:4735  Details[to].EarnPersentage == 50 */\n      sub\n        /* \"contracts/Staking/staking.sol\":4700:5057  if(Details[to].EarnPersentage == 50){... */\n      tag_216\n      jumpi\n        /* \"contracts/Staking/staking.sol\":4790:4793  100 */\n      0x64\n        /* \"contracts/Staking/staking.sol\":4786:4788  50 */\n      0x32\n        /* \"contracts/Staking/staking.sol\":4767:4781  InterestAmount */\n      0x07\n        /* \"contracts/Staking/staking.sol\":4767:4785  InterestAmount[to] */\n      0x00\n        /* \"contracts/Staking/staking.sol\":4782:4784  to */\n      dup7\n        /* \"contracts/Staking/staking.sol\":4767:4785  InterestAmount[to] */\n      0xffffffffffffffffffffffffffffffffffffffff\n      and\n      0xffffffffffffffffffffffffffffffffffffffff\n      and\n      dup2\n      mstore\n      0x20\n      add\n      swap1\n      dup2\n      mstore\n      0x20\n      add\n      0x00\n      keccak256\n      sload\n        /* \"contracts/Staking/staking.sol\":4767:4788  InterestAmount[to]*50 */\n      tag_217\n      swap2\n      swap1\n      tag_98\n      jump\t// in\n    tag_217:\n        /* \"contracts/Staking/staking.sol\":4766:4793  (InterestAmount[to]*50)/100 */\n      tag_218\n      swap2\n      swap1\n      tag_108\n      jump\t// in\n    tag_218:\n        /* \"contracts/Staking/staking.sol\":4754:4793  EarnToken = (InterestAmount[to]*50)/100 */\n      swap2\n      pop\n        /* \"contracts/Staking/staking.sol\":4818:4830  ERC20Address */\n      0x01\n      0x00\n      swap1\n      sload\n      swap1\n      0x0100\n      exp\n      swap1\n      div\n      0xffffffffffffffffffffffffffffffffffffffff\n      and\n        /* \"contracts/Staking/staking.sol\":4811:4840  IERC20(ERC20Address).transfer */\n      0xffffffffffffffffffffffffffffffffffffffff\n      and\n      0xa9059cbb\n        /* \"contracts/Staking/staking.sol\":4841:4843  to */\n      dup5\n        /* \"contracts/Staking/staking.sol\":4873:4882  EarnToken */\n      dup5\n        /* \"contracts/Staking/staking.sol\":4845:4852  Details */\n      0x06\n        /* \"contracts/Staking/staking.sol\":4845:4856  Details[to] */\n      0x00\n        /* \"contracts/Staking/staking.sol\":4853:4855  to */\n      dup9\n        /* \"contracts/Staking/staking.sol\":4845:4856  Details[to] */\n      0xffffffffffffffffffffffffffffffffffffffff\n      and\n      0xffffffffffffffffffffffffffffffffffffffff\n      and\n      dup2\n      mstore\n      0x20\n      add\n      swap1\n      dup2\n      mstore\n      0x20\n      add\n      0x00\n      keccak256\n        /* \"contracts/Staking/staking.sol\":4845:4870  Details[to].depositTokens */\n      0x00\n      add\n      sload\n        /* \"contracts/Staking/staking.sol\":4845:4882  Details[to].depositTokens + EarnToken */\n      tag_219\n      swap2\n      swap1\n      tag_101\n      jump\t// in\n    tag_219:\n        /* \"contracts/Staking/staking.sol\":4811:4883  IERC20(ERC20Address).transfer(to, Details[to].depositTokens + EarnToken) */\n      mload(0x40)\n      dup4\n      0xffffffff\n      and\n      0xe0\n      shl\n      dup2\n      mstore\n      0x04\n      add\n      tag_220\n      swap3\n      swap2\n      swap1\n      tag_114\n      jump\t// in\n    tag_220:\n      0x20\n      mload(0x40)\n      dup1\n      dup4\n      sub\n      dup2\n      0x00\n      dup8\n      gas\n      call\n      iszero\n      dup1\n      iszero\n      tag_222\n      jumpi\n      returndatasize\n      0x00\n      dup1\n      returndatacopy\n      revert(0x00, returndatasize)\n    tag_222:\n      pop\n      pop\n      pop\n      pop\n      mload(0x40)\n      returndatasize\n      not(0x1f)\n      0x1f\n      dup3\n      add\n      and\n      dup3\n      add\n      dup1\n      0x40\n      mstore\n      pop\n      dup2\n      add\n      swap1\n      tag_223\n      swap2\n      swap1\n      tag_118\n      jump\t// in\n    tag_223:\n      pop\n        /* \"contracts/Staking/staking.sol\":4937:4940  100 */\n      0x64\n        /* \"contracts/Staking/staking.sol\":4933:4935  50 */\n      0x32\n        /* \"contracts/Staking/staking.sol\":4914:4928  InterestAmount */\n      0x07\n        /* \"contracts/Staking/staking.sol\":4914:4932  InterestAmount[to] */\n      0x00\n        /* \"contracts/Staking/staking.sol\":4929:4931  to */\n      dup7\n        /* \"contracts/Staking/staking.sol\":4914:4932  InterestAmount[to] */\n      0xffffffffffffffffffffffffffffffffffffffff\n      and\n      0xffffffffffffffffffffffffffffffffffffffff\n      and\n      dup2\n      mstore\n      0x20\n      add\n      swap1\n      dup2\n      mstore\n      0x20\n      add\n      0x00\n      keccak256\n      sload\n        /* \"contracts/Staking/staking.sol\":4914:4935  InterestAmount[to]*50 */\n      tag_224\n      swap2\n      swap1\n      tag_98\n      jump\t// in\n    tag_224:\n        /* \"contracts/Staking/staking.sol\":4913:4940  (InterestAmount[to]*50)/100 */\n      tag_225\n      swap2\n      swap1\n      tag_108\n      jump\t// in\n    tag_225:\n        /* \"contracts/Staking/staking.sol\":4901:4940  BurnToken = (InterestAmount[to]*50)/100 */\n      swap1\n      pop\n        /* \"contracts/Staking/staking.sol\":4965:4977  ERC20Address */\n      0x01\n      0x00\n      swap1\n      sload\n      swap1\n      0x0100\n      exp\n      swap1\n      div\n      0xffffffffffffffffffffffffffffffffffffffff\n      and\n        /* \"contracts/Staking/staking.sol\":4958:4987  IERC20(ERC20Address).transfer */\n      0xffffffffffffffffffffffffffffffffffffffff\n      and\n      0xa9059cbb\n        /* \"contracts/Staking/staking.sol\":4988:5030  0x000000000000000000000000000000000000dEaD */\n      0xdead\n        /* \"contracts/Staking/staking.sol\":5032:5041  BurnToken */\n      dup4\n        /* \"contracts/Staking/staking.sol\":4958:5042  IERC20(ERC20Address).transfer(0x000000000000000000000000000000000000dEaD, BurnToken) */\n      mload(0x40)\n      dup4\n      0xffffffff\n      and\n      0xe0\n      shl\n      dup2\n      mstore\n      0x04\n      add\n      tag_226\n      swap3\n      swap2\n      swap1\n      tag_114\n      jump\t// in\n    tag_226:\n      0x20\n      mload(0x40)\n      dup1\n      dup4\n      sub\n      dup2\n      0x00\n      dup8\n      gas\n      call\n      iszero\n      dup1\n      iszero\n      tag_228\n      jumpi\n      returndatasize\n      0x00\n      dup1\n      returndatacopy\n      revert(0x00, returndatasize)\n    tag_228:\n      pop\n      pop\n      pop\n      pop\n      mload(0x40)\n      returndatasize\n      not(0x1f)\n      0x1f\n      dup3\n      add\n      and\n      dup3\n      add\n      dup1\n      0x40\n      mstore\n      pop\n      dup2\n      add\n      swap1\n      tag_229\n      swap2\n      swap1\n      tag_118\n      jump\t// in\n    tag_229:\n      pop\n        /* \"contracts/Staking/staking.sol\":4700:5057  if(Details[to].EarnPersentage == 50){... */\n    tag_216:\n        /* \"contracts/Staking/staking.sol\":4338:5057  if(Details[to].EarnPersentage == 75){... */\n    tag_215:\n        /* \"contracts/Staking/staking.sol\":4182:5057  if(Details[to].EarnPersentage == 100){... */\n    tag_200:\n        /* \"contracts/Staking/staking.sol\":4090:6633  if(((Details[to].StakeMonth*30*60) + Details[to].stakeTime) < block.timestamp){... */\n      jump(tag_230)\n    tag_193:\n        /* \"contracts/Staking/staking.sol\":5085:5110  uint InterestAmountperday */\n      0x00\n        /* \"contracts/Staking/staking.sol\":5124:5134  uint Total */\n      dup1\n        /* \"contracts/Staking/staking.sol\":5148:5166  uint PenaltyResult */\n      0x00\n        /* \"contracts/Staking/staking.sol\":5180:5193  uint Stakdays */\n      dup1\n        /* \"contracts/Staking/staking.sol\":5238:5240  60 */\n      0x3c\n        /* \"contracts/Staking/staking.sol\":5215:5222  Details */\n      0x06\n        /* \"contracts/Staking/staking.sol\":5215:5226  Details[to] */\n      0x00\n        /* \"contracts/Staking/staking.sol\":5223:5225  to */\n      dup10\n        /* \"contracts/Staking/staking.sol\":5215:5226  Details[to] */\n      0xffffffffffffffffffffffffffffffffffffffff\n      and\n      0xffffffffffffffffffffffffffffffffffffffff\n      and\n      dup2\n      mstore\n      0x20\n      add\n      swap1\n      dup2\n      mstore\n      0x20\n      add\n      0x00\n      keccak256\n        /* \"contracts/Staking/staking.sol\":5215:5236  Details[to].stakeTime */\n      0x01\n      add\n      sload\n        /* \"contracts/Staking/staking.sol\":5197:5212  block.timestamp */\n      timestamp\n        /* \"contracts/Staking/staking.sol\":5197:5236  block.timestamp - Details[to].stakeTime */\n      tag_231\n      swap2\n      swap1\n      tag_106\n      jump\t// in\n    tag_231:\n        /* \"contracts/Staking/staking.sol\":5196:5240  (block.timestamp - Details[to].stakeTime)/60 */\n      tag_232\n      swap2\n      swap1\n      tag_108\n      jump\t// in\n    tag_232:\n        /* \"contracts/Staking/staking.sol\":5180:5240  uint Stakdays = (block.timestamp - Details[to].stakeTime)/60 */\n      swap1\n      pop\n        /* \"contracts/Staking/staking.sol\":5321:5323  30 */\n      0x1e\n        /* \"contracts/Staking/staking.sol\":5298:5305  Details */\n      0x06\n        /* \"contracts/Staking/staking.sol\":5298:5309  Details[to] */\n      0x00\n        /* \"contracts/Staking/staking.sol\":5306:5308  to */\n      dup10\n        /* \"contracts/Staking/staking.sol\":5298:5309  Details[to] */\n      0xffffffffffffffffffffffffffffffffffffffff\n      and\n      0xffffffffffffffffffffffffffffffffffffffff\n      and\n      dup2\n      mstore\n      0x20\n      add\n      swap1\n      dup2\n      mstore\n      0x20\n      add\n      0x00\n      keccak256\n        /* \"contracts/Staking/staking.sol\":5298:5320  Details[to].StakeMonth */\n      0x02\n      add\n      sload\n        /* \"contracts/Staking/staking.sol\":5298:5323  Details[to].StakeMonth*30 */\n      tag_233\n      swap2\n      swap1\n      tag_98\n      jump\t// in\n    tag_233:\n        /* \"contracts/Staking/staking.sol\":5278:5292  InterestAmount */\n      0x07\n        /* \"contracts/Staking/staking.sol\":5278:5296  InterestAmount[to] */\n      0x00\n        /* \"contracts/Staking/staking.sol\":5293:5295  to */\n      dup10\n        /* \"contracts/Staking/staking.sol\":5278:5296  InterestAmount[to] */\n      0xffffffffffffffffffffffffffffffffffffffff\n      and\n      0xffffffffffffffffffffffffffffffffffffffff\n      and\n      dup2\n      mstore\n      0x20\n      add\n      swap1\n      dup2\n      mstore\n      0x20\n      add\n      0x00\n      keccak256\n      sload\n        /* \"contracts/Staking/staking.sol\":5278:5324  InterestAmount[to]/(Details[to].StakeMonth*30) */\n      tag_234\n      swap2\n      swap1\n      tag_108\n      jump\t// in\n    tag_234:\n        /* \"contracts/Staking/staking.sol\":5255:5324  InterestAmountperday = InterestAmount[to]/(Details[to].StakeMonth*30) */\n      swap4\n      pop\n        /* \"contracts/Staking/staking.sol\":5371:5374  100 */\n      0x64\n        /* \"contracts/Staking/staking.sol\":5341:5348  Details */\n      0x06\n        /* \"contracts/Staking/staking.sol\":5341:5352  Details[to] */\n      0x00\n        /* \"contracts/Staking/staking.sol\":5349:5351  to */\n      dup10\n        /* \"contracts/Staking/staking.sol\":5341:5352  Details[to] */\n      0xffffffffffffffffffffffffffffffffffffffff\n      and\n      0xffffffffffffffffffffffffffffffffffffffff\n      and\n      dup2\n      mstore\n      0x20\n      add\n      swap1\n      dup2\n      mstore\n      0x20\n      add\n      0x00\n      keccak256\n        /* \"contracts/Staking/staking.sol\":5341:5367  Details[to].EarnPersentage */\n      0x03\n      add\n      sload\n        /* \"contracts/Staking/staking.sol\":5341:5374  Details[to].EarnPersentage == 100 */\n      sub\n        /* \"contracts/Staking/staking.sol\":5338:6623  if(Details[to].EarnPersentage == 100){... */\n      tag_235\n      jumpi\n        /* \"contracts/Staking/staking.sol\":5427:5435  Stakdays */\n      dup1\n        /* \"contracts/Staking/staking.sol\":5406:5426  InterestAmountperday */\n      dup5\n        /* \"contracts/Staking/staking.sol\":5406:5435  InterestAmountperday*Stakdays */\n      tag_236\n      swap2\n      swap1\n      tag_98\n      jump\t// in\n    tag_236:\n        /* \"contracts/Staking/staking.sol\":5393:5436  EarnToken = (InterestAmountperday*Stakdays) */\n      swap6\n      pop\n        /* \"contracts/Staking/staking.sol\":5490:5499  EarnToken */\n      dup6\n        /* \"contracts/Staking/staking.sol\":5462:5469  Details */\n      0x06\n        /* \"contracts/Staking/staking.sol\":5462:5473  Details[to] */\n      0x00\n        /* \"contracts/Staking/staking.sol\":5470:5472  to */\n      dup10\n        /* \"contracts/Staking/staking.sol\":5462:5473  Details[to] */\n      0xffffffffffffffffffffffffffffffffffffffff\n      and\n      0xffffffffffffffffffffffffffffffffffffffff\n      and\n      dup2\n      mstore\n      0x20\n      add\n      swap1\n      dup2\n      mstore\n      0x20\n      add\n      0x00\n      keccak256\n        /* \"contracts/Staking/staking.sol\":5462:5487  Details[to].depositTokens */\n      0x00\n      add\n      sload\n        /* \"contracts/Staking/staking.sol\":5462:5499  Details[to].depositTokens + EarnToken */\n      tag_237\n      swap2\n      swap1\n      tag_101\n      jump\t// in\n    tag_237:\n        /* \"contracts/Staking/staking.sol\":5454:5499  Total = Details[to].depositTokens + EarnToken */\n      swap3\n      pop\n        /* \"contracts/Staking/staking.sol\":5549:5553  1000 */\n      0x03e8\n        /* \"contracts/Staking/staking.sol\":5540:5547  penalty */\n      sload(0x05)\n        /* \"contracts/Staking/staking.sol\":5534:5539  Total */\n      dup5\n        /* \"contracts/Staking/staking.sol\":5534:5547  Total*penalty */\n      tag_238\n      swap2\n      swap1\n      tag_98\n      jump\t// in\n    tag_238:\n        /* \"contracts/Staking/staking.sol\":5533:5553  (Total*penalty)/1000 */\n      tag_239\n      swap2\n      swap1\n      tag_108\n      jump\t// in\n    tag_239:\n        /* \"contracts/Staking/staking.sol\":5517:5553  PenaltyResult = (Total*penalty)/1000 */\n      swap2\n      pop\n        /* \"contracts/Staking/staking.sol\":5578:5590  ERC20Address */\n      0x01\n      0x00\n      swap1\n      sload\n      swap1\n      0x0100\n      exp\n      swap1\n      div\n      0xffffffffffffffffffffffffffffffffffffffff\n      and\n        /* \"contracts/Staking/staking.sol\":5571:5600  IERC20(ERC20Address).transfer */\n      0xffffffffffffffffffffffffffffffffffffffff\n      and\n      0xa9059cbb\n        /* \"contracts/Staking/staking.sol\":5601:5603  to */\n      dup9\n        /* \"contracts/Staking/staking.sol\":5613:5626  PenaltyResult */\n      dup5\n        /* \"contracts/Staking/staking.sol\":5605:5610  Total */\n      dup7\n        /* \"contracts/Staking/staking.sol\":5605:5626  Total - PenaltyResult */\n      tag_240\n      swap2\n      swap1\n      tag_106\n      jump\t// in\n    tag_240:\n        /* \"contracts/Staking/staking.sol\":5571:5628  IERC20(ERC20Address).transfer(to,(Total - PenaltyResult)) */\n      mload(0x40)\n      dup4\n      0xffffffff\n      and\n      0xe0\n      shl\n      dup2\n      mstore\n      0x04\n      add\n      tag_241\n      swap3\n      swap2\n      swap1\n      tag_114\n      jump\t// in\n    tag_241:\n      0x20\n      mload(0x40)\n      dup1\n      dup4\n      sub\n      dup2\n      0x00\n      dup8\n      gas\n      call\n      iszero\n      dup1\n      iszero\n      tag_243\n      jumpi\n      returndatasize\n      0x00\n      dup1\n      returndatacopy\n      revert(0x00, returndatasize)\n    tag_243:\n      pop\n      pop\n      pop\n      pop\n      mload(0x40)\n      returndatasize\n      not(0x1f)\n      0x1f\n      dup3\n      add\n      and\n      dup3\n      add\n      dup1\n      0x40\n      mstore\n      pop\n      dup2\n      add\n      swap1\n      tag_244\n      swap2\n      swap1\n      tag_118\n      jump\t// in\n    tag_244:\n      pop\n        /* \"contracts/Staking/staking.sol\":5338:6623  if(Details[to].EarnPersentage == 100){... */\n      jump(tag_245)\n    tag_235:\n        /* \"contracts/Staking/staking.sol\":5681:5683  75 */\n      0x4b\n        /* \"contracts/Staking/staking.sol\":5651:5658  Details */\n      0x06\n        /* \"contracts/Staking/staking.sol\":5651:5662  Details[to] */\n      0x00\n        /* \"contracts/Staking/staking.sol\":5659:5661  to */\n      dup10\n        /* \"contracts/Staking/staking.sol\":5651:5662  Details[to] */\n      0xffffffffffffffffffffffffffffffffffffffff\n      and\n      0xffffffffffffffffffffffffffffffffffffffff\n      and\n      dup2\n      mstore\n      0x20\n      add\n      swap1\n      dup2\n      mstore\n      0x20\n      add\n      0x00\n      keccak256\n        /* \"contracts/Staking/staking.sol\":5651:5677  Details[to].EarnPersentage */\n      0x03\n      add\n      sload\n        /* \"contracts/Staking/staking.sol\":5651:5683  Details[to].EarnPersentage == 75 */\n      sub\n        /* \"contracts/Staking/staking.sol\":5648:6623  if(Details[to].EarnPersentage == 75){... */\n      tag_246\n      jumpi\n        /* \"contracts/Staking/staking.sol\":5751:5754  100 */\n      0x64\n        /* \"contracts/Staking/staking.sol\":5747:5749  75 */\n      0x4b\n        /* \"contracts/Staking/staking.sol\":5737:5745  Stakdays */\n      dup3\n        /* \"contracts/Staking/staking.sol\":5716:5736  InterestAmountperday */\n      dup7\n        /* \"contracts/Staking/staking.sol\":5716:5745  InterestAmountperday*Stakdays */\n      tag_247\n      swap2\n      swap1\n      tag_98\n      jump\t// in\n    tag_247:\n        /* \"contracts/Staking/staking.sol\":5715:5749  (InterestAmountperday*Stakdays)*75 */\n      tag_248\n      swap2\n      swap1\n      tag_98\n      jump\t// in\n    tag_248:\n        /* \"contracts/Staking/staking.sol\":5714:5754  ((InterestAmountperday*Stakdays)*75)/100 */\n      tag_249\n      swap2\n      swap1\n      tag_108\n      jump\t// in\n    tag_249:\n        /* \"contracts/Staking/staking.sol\":5702:5754  EarnToken = ((InterestAmountperday*Stakdays)*75)/100 */\n      swap6\n      pop\n        /* \"contracts/Staking/staking.sol\":5808:5817  EarnToken */\n      dup6\n        /* \"contracts/Staking/staking.sol\":5780:5787  Details */\n      0x06\n        /* \"contracts/Staking/staking.sol\":5780:5791  Details[to] */\n      0x00\n        /* \"contracts/Staking/staking.sol\":5788:5790  to */\n      dup10\n        /* \"contracts/Staking/staking.sol\":5780:5791  Details[to] */\n      0xffffffffffffffffffffffffffffffffffffffff\n      and\n      0xffffffffffffffffffffffffffffffffffffffff\n      and\n      dup2\n      mstore\n      0x20\n      add\n      swap1\n      dup2\n      mstore\n      0x20\n      add\n      0x00\n      keccak256\n        /* \"contracts/Staking/staking.sol\":5780:5805  Details[to].depositTokens */\n      0x00\n      add\n      sload\n        /* \"contracts/Staking/staking.sol\":5780:5817  Details[to].depositTokens + EarnToken */\n      tag_250\n      swap2\n      swap1\n      tag_101\n      jump\t// in\n    tag_250:\n        /* \"contracts/Staking/staking.sol\":5772:5817  Total = Details[to].depositTokens + EarnToken */\n      swap3\n      pop\n        /* \"contracts/Staking/staking.sol\":5867:5871  1000 */\n      0x03e8\n        /* \"contracts/Staking/staking.sol\":5858:5865  penalty */\n      sload(0x05)\n        /* \"contracts/Staking/staking.sol\":5852:5857  Total */\n      dup5\n        /* \"contracts/Staking/staking.sol\":5852:5865  Total*penalty */\n      tag_251\n      swap2\n      swap1\n      tag_98\n      jump\t// in\n    tag_251:\n        /* \"contracts/Staking/staking.sol\":5851:5871  (Total*penalty)/1000 */\n      tag_252\n      swap2\n      swap1\n      tag_108\n      jump\t// in\n    tag_252:\n        /* \"contracts/Staking/staking.sol\":5835:5871  PenaltyResult = (Total*penalty)/1000 */\n      swap2\n      pop\n        /* \"contracts/Staking/staking.sol\":5896:5908  ERC20Address */\n      0x01\n      0x00\n      swap1\n      sload\n      swap1\n      0x0100\n      exp\n      swap1\n      div\n      0xffffffffffffffffffffffffffffffffffffffff\n      and\n        /* \"contracts/Staking/staking.sol\":5889:5918  IERC20(ERC20Address).transfer */\n      0xffffffffffffffffffffffffffffffffffffffff\n      and\n      0xa9059cbb\n        /* \"contracts/Staking/staking.sol\":5919:5921  to */\n      dup9\n        /* \"contracts/Staking/staking.sol\":5931:5944  PenaltyResult */\n      dup5\n        /* \"contracts/Staking/staking.sol\":5923:5928  Total */\n      dup7\n        /* \"contracts/Staking/staking.sol\":5923:5944  Total - PenaltyResult */\n      tag_253\n      swap2\n      swap1\n      tag_106\n      jump\t// in\n    tag_253:\n        /* \"contracts/Staking/staking.sol\":5889:5946  IERC20(ERC20Address).transfer(to,(Total - PenaltyResult)) */\n      mload(0x40)\n      dup4\n      0xffffffff\n      and\n      0xe0\n      shl\n      dup2\n      mstore\n      0x04\n      add\n      tag_254\n      swap3\n      swap2\n      swap1\n      tag_114\n      jump\t// in\n    tag_254:\n      0x20\n      mload(0x40)\n      dup1\n      dup4\n      sub\n      dup2\n      0x00\n      dup8\n      gas\n      call\n      iszero\n      dup1\n      iszero\n      tag_256\n      jumpi\n      returndatasize\n      0x00\n      dup1\n      returndatacopy\n      revert(0x00, returndatasize)\n    tag_256:\n      pop\n      pop\n      pop\n      pop\n      mload(0x40)\n      returndatasize\n      not(0x1f)\n      0x1f\n      dup3\n      add\n      and\n      dup3\n      add\n      dup1\n      0x40\n      mstore\n      pop\n      dup2\n      add\n      swap1\n      tag_257\n      swap2\n      swap1\n      tag_118\n      jump\t// in\n    tag_257:\n      pop\n        /* \"contracts/Staking/staking.sol\":6013:6016  100 */\n      0x64\n        /* \"contracts/Staking/staking.sol\":6009:6011  25 */\n      0x19\n        /* \"contracts/Staking/staking.sol\":5999:6007  Stakdays */\n      dup3\n        /* \"contracts/Staking/staking.sol\":5978:5998  InterestAmountperday */\n      dup7\n        /* \"contracts/Staking/staking.sol\":5978:6007  InterestAmountperday*Stakdays */\n      tag_258\n      swap2\n      swap1\n      tag_98\n      jump\t// in\n    tag_258:\n        /* \"contracts/Staking/staking.sol\":5977:6011  (InterestAmountperday*Stakdays)*25 */\n      tag_259\n      swap2\n      swap1\n      tag_98\n      jump\t// in\n    tag_259:\n        /* \"contracts/Staking/staking.sol\":5976:6016  ((InterestAmountperday*Stakdays)*25)/100 */\n      tag_260\n      swap2\n      swap1\n      tag_108\n      jump\t// in\n    tag_260:\n        /* \"contracts/Staking/staking.sol\":5964:6016  BurnToken = ((InterestAmountperday*Stakdays)*25)/100 */\n      swap5\n      pop\n        /* \"contracts/Staking/staking.sol\":6041:6053  ERC20Address */\n      0x01\n      0x00\n      swap1\n      sload\n      swap1\n      0x0100\n      exp\n      swap1\n      div\n      0xffffffffffffffffffffffffffffffffffffffff\n      and\n        /* \"contracts/Staking/staking.sol\":6034:6063  IERC20(ERC20Address).transfer */\n      0xffffffffffffffffffffffffffffffffffffffff\n      and\n      0xa9059cbb\n        /* \"contracts/Staking/staking.sol\":6064:6106  0x000000000000000000000000000000000000dEaD */\n      0xdead\n        /* \"contracts/Staking/staking.sol\":6108:6117  BurnToken */\n      dup8\n        /* \"contracts/Staking/staking.sol\":6034:6118  IERC20(ERC20Address).transfer(0x000000000000000000000000000000000000dEaD, BurnToken) */\n      mload(0x40)\n      dup4\n      0xffffffff\n      and\n      0xe0\n      shl\n      dup2\n      mstore\n      0x04\n      add\n      tag_261\n      swap3\n      swap2\n      swap1\n      tag_114\n      jump\t// in\n    tag_261:\n      0x20\n      mload(0x40)\n      dup1\n      dup4\n      sub\n      dup2\n      0x00\n      dup8\n      gas\n      call\n      iszero\n      dup1\n      iszero\n      tag_263\n      jumpi\n      returndatasize\n      0x00\n      dup1\n      returndatacopy\n      revert(0x00, returndatasize)\n    tag_263:\n      pop\n      pop\n      pop\n      pop\n      mload(0x40)\n      returndatasize\n      not(0x1f)\n      0x1f\n      dup3\n      add\n      and\n      dup3\n      add\n      dup1\n      0x40\n      mstore\n      pop\n      dup2\n      add\n      swap1\n      tag_264\n      swap2\n      swap1\n      tag_118\n      jump\t// in\n    tag_264:\n      pop\n        /* \"contracts/Staking/staking.sol\":5648:6623  if(Details[to].EarnPersentage == 75){... */\n      jump(tag_265)\n    tag_246:\n        /* \"contracts/Staking/staking.sol\":6171:6173  50 */\n      0x32\n        /* \"contracts/Staking/staking.sol\":6141:6148  Details */\n      0x06\n        /* \"contracts/Staking/staking.sol\":6141:6152  Details[to] */\n      0x00\n        /* \"contracts/Staking/staking.sol\":6149:6151  to */\n      dup10\n        /* \"contracts/Staking/staking.sol\":6141:6152  Details[to] */\n      0xffffffffffffffffffffffffffffffffffffffff\n      and\n      0xffffffffffffffffffffffffffffffffffffffff\n      and\n      dup2\n      mstore\n      0x20\n      add\n      swap1\n      dup2\n      mstore\n      0x20\n      add\n      0x00\n      keccak256\n        /* \"contracts/Staking/staking.sol\":6141:6167  Details[to].EarnPersentage */\n      0x03\n      add\n      sload\n        /* \"contracts/Staking/staking.sol\":6141:6173  Details[to].EarnPersentage == 50 */\n      sub\n        /* \"contracts/Staking/staking.sol\":6138:6623  if(Details[to].EarnPersentage == 50){... */\n      tag_266\n      jumpi\n        /* \"contracts/Staking/staking.sol\":6241:6244  100 */\n      0x64\n        /* \"contracts/Staking/staking.sol\":6237:6239  50 */\n      0x32\n        /* \"contracts/Staking/staking.sol\":6227:6235  Stakdays */\n      dup3\n        /* \"contracts/Staking/staking.sol\":6206:6226  InterestAmountperday */\n      dup7\n        /* \"contracts/Staking/staking.sol\":6206:6235  InterestAmountperday*Stakdays */\n      tag_267\n      swap2\n      swap1\n      tag_98\n      jump\t// in\n    tag_267:\n        /* \"contracts/Staking/staking.sol\":6205:6239  (InterestAmountperday*Stakdays)*50 */\n      tag_268\n      swap2\n      swap1\n      tag_98\n      jump\t// in\n    tag_268:\n        /* \"contracts/Staking/staking.sol\":6204:6244  ((InterestAmountperday*Stakdays)*50)/100 */\n      tag_269\n      swap2\n      swap1\n      tag_108\n      jump\t// in\n    tag_269:\n        /* \"contracts/Staking/staking.sol\":6192:6244  EarnToken = ((InterestAmountperday*Stakdays)*50)/100 */\n      swap6\n      pop\n        /* \"contracts/Staking/staking.sol\":6298:6307  EarnToken */\n      dup6\n        /* \"contracts/Staking/staking.sol\":6270:6277  Details */\n      0x06\n        /* \"contracts/Staking/staking.sol\":6270:6281  Details[to] */\n      0x00\n        /* \"contracts/Staking/staking.sol\":6278:6280  to */\n      dup10\n        /* \"contracts/Staking/staking.sol\":6270:6281  Details[to] */\n      0xffffffffffffffffffffffffffffffffffffffff\n      and\n      0xffffffffffffffffffffffffffffffffffffffff\n      and\n      dup2\n      mstore\n      0x20\n      add\n      swap1\n      dup2\n      mstore\n      0x20\n      add\n      0x00\n      keccak256\n        /* \"contracts/Staking/staking.sol\":6270:6295  Details[to].depositTokens */\n      0x00\n      add\n      sload\n        /* \"contracts/Staking/staking.sol\":6270:6307  Details[to].depositTokens + EarnToken */\n      tag_270\n      swap2\n      swap1\n      tag_101\n      jump\t// in\n    tag_270:\n        /* \"contracts/Staking/staking.sol\":6262:6307  Total = Details[to].depositTokens + EarnToken */\n      swap3\n      pop\n        /* \"contracts/Staking/staking.sol\":6357:6361  1000 */\n      0x03e8\n        /* \"contracts/Staking/staking.sol\":6348:6355  penalty */\n      sload(0x05)\n        /* \"contracts/Staking/staking.sol\":6342:6347  Total */\n      dup5\n        /* \"contracts/Staking/staking.sol\":6342:6355  Total*penalty */\n      tag_271\n      swap2\n      swap1\n      tag_98\n      jump\t// in\n    tag_271:\n        /* \"contracts/Staking/staking.sol\":6341:6361  (Total*penalty)/1000 */\n      tag_272\n      swap2\n      swap1\n      tag_108\n      jump\t// in\n    tag_272:\n        /* \"contracts/Staking/staking.sol\":6325:6361  PenaltyResult = (Total*penalty)/1000 */\n      swap2\n      pop\n        /* \"contracts/Staking/staking.sol\":6386:6398  ERC20Address */\n      0x01\n      0x00\n      swap1\n      sload\n      swap1\n      0x0100\n      exp\n      swap1\n      div\n      0xffffffffffffffffffffffffffffffffffffffff\n      and\n        /* \"contracts/Staking/staking.sol\":6379:6408  IERC20(ERC20Address).transfer */\n      0xffffffffffffffffffffffffffffffffffffffff\n      and\n      0xa9059cbb\n        /* \"contracts/Staking/staking.sol\":6409:6411  to */\n      dup9\n        /* \"contracts/Staking/staking.sol\":6421:6434  PenaltyResult */\n      dup5\n        /* \"contracts/Staking/staking.sol\":6413:6418  Total */\n      dup7\n        /* \"contracts/Staking/staking.sol\":6413:6434  Total - PenaltyResult */\n      tag_273\n      swap2\n      swap1\n      tag_106\n      jump\t// in\n    tag_273:\n        /* \"contracts/Staking/staking.sol\":6379:6436  IERC20(ERC20Address).transfer(to,(Total - PenaltyResult)) */\n      mload(0x40)\n      dup4\n      0xffffffff\n      and\n      0xe0\n      shl\n      dup2\n      mstore\n      0x04\n      add\n      tag_274\n      swap3\n      swap2\n      swap1\n      tag_114\n      jump\t// in\n    tag_274:\n      0x20\n      mload(0x40)\n      dup1\n      dup4\n      sub\n      dup2\n      0x00\n      dup8\n      gas\n      call\n      iszero\n      dup1\n      iszero\n      tag_276\n      jumpi\n      returndatasize\n      0x00\n      dup1\n      returndatacopy\n      revert(0x00, returndatasize)\n    tag_276:\n      pop\n      pop\n      pop\n      pop\n      mload(0x40)\n      returndatasize\n      not(0x1f)\n      0x1f\n      dup3\n      add\n      and\n      dup3\n      add\n      dup1\n      0x40\n      mstore\n      pop\n      dup2\n      add\n      swap1\n      tag_277\n      swap2\n      swap1\n      tag_118\n      jump\t// in\n    tag_277:\n      pop\n        /* \"contracts/Staking/staking.sol\":6503:6506  100 */\n      0x64\n        /* \"contracts/Staking/staking.sol\":6499:6501  50 */\n      0x32\n        /* \"contracts/Staking/staking.sol\":6489:6497  Stakdays */\n      dup3\n        /* \"contracts/Staking/staking.sol\":6468:6488  InterestAmountperday */\n      dup7\n        /* \"contracts/Staking/staking.sol\":6468:6497  InterestAmountperday*Stakdays */\n      tag_278\n      swap2\n      swap1\n      tag_98\n      jump\t// in\n    tag_278:\n        /* \"contracts/Staking/staking.sol\":6467:6501  (InterestAmountperday*Stakdays)*50 */\n      tag_279\n      swap2\n      swap1\n      tag_98\n      jump\t// in\n    tag_279:\n        /* \"contracts/Staking/staking.sol\":6466:6506  ((InterestAmountperday*Stakdays)*50)/100 */\n      tag_280\n      swap2\n      swap1\n      tag_108\n      jump\t// in\n    tag_280:\n        /* \"contracts/Staking/staking.sol\":6454:6506  BurnToken = ((InterestAmountperday*Stakdays)*50)/100 */\n      swap5\n      pop\n        /* \"contracts/Staking/staking.sol\":6531:6543  ERC20Address */\n      0x01\n      0x00\n      swap1\n      sload\n      swap1\n      0x0100\n      exp\n      swap1\n      div\n      0xffffffffffffffffffffffffffffffffffffffff\n      and\n        /* \"contracts/Staking/staking.sol\":6524:6553  IERC20(ERC20Address).transfer */\n      0xffffffffffffffffffffffffffffffffffffffff\n      and\n      0xa9059cbb\n        /* \"contracts/Staking/staking.sol\":6554:6596  0x000000000000000000000000000000000000dEaD */\n      0xdead\n        /* \"contracts/Staking/staking.sol\":6598:6607  BurnToken */\n      dup8\n        /* \"contracts/Staking/staking.sol\":6524:6608  IERC20(ERC20Address).transfer(0x000000000000000000000000000000000000dEaD, BurnToken) */\n      mload(0x40)\n      dup4\n      0xffffffff\n      and\n      0xe0\n      shl\n      dup2\n      mstore\n      0x04\n      add\n      tag_281\n      swap3\n      swap2\n      swap1\n      tag_114\n      jump\t// in\n    tag_281:\n      0x20\n      mload(0x40)\n      dup1\n      dup4\n      sub\n      dup2\n      0x00\n      dup8\n      gas\n      call\n      iszero\n      dup1\n      iszero\n      tag_283\n      jumpi\n      returndatasize\n      0x00\n      dup1\n      returndatacopy\n      revert(0x00, returndatasize)\n    tag_283:\n      pop\n      pop\n      pop\n      pop\n      mload(0x40)\n      returndatasize\n      not(0x1f)\n      0x1f\n      dup3\n      add\n      and\n      dup3\n      add\n      dup1\n      0x40\n      mstore\n      pop\n      dup2\n      add\n      swap1\n      tag_284\n      swap2\n      swap1\n      tag_118\n      jump\t// in\n    tag_284:\n      pop\n        /* \"contracts/Staking/staking.sol\":6138:6623  if(Details[to].EarnPersentage == 50){... */\n    tag_266:\n        /* \"contracts/Staking/staking.sol\":5648:6623  if(Details[to].EarnPersentage == 75){... */\n    tag_265:\n        /* \"contracts/Staking/staking.sol\":5338:6623  if(Details[to].EarnPersentage == 100){... */\n    tag_245:\n        /* \"contracts/Staking/staking.sol\":5071:6633  {... */\n      pop\n      pop\n      pop\n      pop\n        /* \"contracts/Staking/staking.sol\":4090:6633  if(((Details[to].StakeMonth*30*60) + Details[to].stakeTime) < block.timestamp){... */\n    tag_230:\n        /* \"contracts/Staking/staking.sol\":6663:6668  false */\n      0x00\n        /* \"contracts/Staking/staking.sol\":6643:6650  Details */\n      0x06\n        /* \"contracts/Staking/staking.sol\":6643:6654  Details[to] */\n      0x00\n        /* \"contracts/Staking/staking.sol\":6651:6653  to */\n      dup6\n        /* \"contracts/Staking/staking.sol\":6643:6654  Details[to] */\n      0xffffffffffffffffffffffffffffffffffffffff\n      and\n      0xffffffffffffffffffffffffffffffffffffffff\n      and\n      dup2\n      mstore\n      0x20\n      add\n      swap1\n      dup2\n      mstore\n      0x20\n      add\n      0x00\n      keccak256\n        /* \"contracts/Staking/staking.sol\":6643:6660  Details[to].check */\n      0x04\n      add\n      0x00\n        /* \"contracts/Staking/staking.sol\":6643:6668  Details[to].check = false */\n      0x0100\n      exp\n      dup2\n      sload\n      dup2\n      0xff\n      mul\n      not\n      and\n      swap1\n      dup4\n      iszero\n      iszero\n      mul\n      or\n      swap1\n      sstore\n      pop\n        /* \"contracts/Staking/staking.sol\":6692:6699  Details */\n      0x06\n        /* \"contracts/Staking/staking.sol\":6692:6703  Details[to] */\n      0x00\n        /* \"contracts/Staking/staking.sol\":6700:6702  to */\n      dup5\n        /* \"contracts/Staking/staking.sol\":6692:6703  Details[to] */\n      0xffffffffffffffffffffffffffffffffffffffff\n      and\n      0xffffffffffffffffffffffffffffffffffffffff\n      and\n      dup2\n      mstore\n      0x20\n      add\n      swap1\n      dup2\n      mstore\n      0x20\n      add\n      0x00\n      keccak256\n        /* \"contracts/Staking/staking.sol\":6692:6717  Details[to].depositTokens */\n      0x00\n      add\n      sload\n        /* \"contracts/Staking/staking.sol\":6678:6684  Tokens */\n      0x0a\n        /* \"contracts/Staking/staking.sol\":6678:6688  Tokens[to] */\n      0x00\n        /* \"contracts/Staking/staking.sol\":6685:6687  to */\n      dup6\n        /* \"contracts/Staking/staking.sol\":6678:6688  Tokens[to] */\n      0xffffffffffffffffffffffffffffffffffffffff\n      and\n      0xffffffffffffffffffffffffffffffffffffffff\n      and\n      dup2\n      mstore\n      0x20\n      add\n      swap1\n      dup2\n      mstore\n      0x20\n      add\n      0x00\n      keccak256\n      0x00\n        /* \"contracts/Staking/staking.sol\":6678:6717  Tokens[to] -= Details[to].depositTokens */\n      dup3\n      dup3\n      sload\n      tag_285\n      swap2\n      swap1\n      tag_106\n      jump\t// in\n    tag_285:\n      swap3\n      pop\n      pop\n      dup2\n      swap1\n      sstore\n      pop\n        /* \"contracts/Staking/staking.sol\":6748:6755  Details */\n      0x06\n        /* \"contracts/Staking/staking.sol\":6748:6759  Details[to] */\n      0x00\n        /* \"contracts/Staking/staking.sol\":6756:6758  to */\n      dup5\n        /* \"contracts/Staking/staking.sol\":6748:6759  Details[to] */\n      0xffffffffffffffffffffffffffffffffffffffff\n      and\n      0xffffffffffffffffffffffffffffffffffffffff\n      and\n      dup2\n      mstore\n      0x20\n      add\n      swap1\n      dup2\n      mstore\n      0x20\n      add\n      0x00\n      keccak256\n        /* \"contracts/Staking/staking.sol\":6748:6773  Details[to].depositTokens */\n      0x00\n      add\n      sload\n        /* \"contracts/Staking/staking.sol\":6727:6744  totalStakedTokens */\n      0x03\n      0x00\n        /* \"contracts/Staking/staking.sol\":6727:6773  totalStakedTokens -= Details[to].depositTokens */\n      dup3\n      dup3\n      sload\n      tag_286\n      swap2\n      swap1\n      tag_106\n      jump\t// in\n    tag_286:\n      swap3\n      pop\n      pop\n      dup2\n      swap1\n      sstore\n      pop\n        /* \"contracts/Staking/staking.sol\":3966:6784  {... */\n      pop\n      pop\n        /* \"contracts/Staking/staking.sol\":3923:6784  function WithdrawTokens(address to) public {... */\n      pop\n      jump\t// out\n        /* \"contracts/Staking/staking.sol\":352:379  address public ERC20Address */\n    tag_76:\n      0x01\n      0x00\n      swap1\n      sload\n      swap1\n      0x0100\n      exp\n      swap1\n      div\n      0xffffffffffffffffffffffffffffffffffffffff\n      and\n      dup2\n      jump\t// out\n        /* \"contracts/Staking/staking.sol\":1443:1624  function AdminAddToken(uint _amount) public onlyOwner{... */\n    tag_80:\n        /* \"@openzeppelin/contracts/access/Ownable.sol\":1094:1107  _checkOwner() */\n      tag_288\n        /* \"@openzeppelin/contracts/access/Ownable.sol\":1094:1105  _checkOwner */\n      tag_176\n        /* \"@openzeppelin/contracts/access/Ownable.sol\":1094:1107  _checkOwner() */\n      jump\t// in\n    tag_288:\n        /* \"contracts/Staking/staking.sol\":1527:1534  _amount */\n      dup1\n        /* \"contracts/Staking/staking.sol\":1506:1512  Tokens */\n      0x0a\n        /* \"contracts/Staking/staking.sol\":1506:1524  Tokens[msg.sender] */\n      0x00\n        /* \"contracts/Staking/staking.sol\":1513:1523  msg.sender */\n      caller\n        /* \"contracts/Staking/staking.sol\":1506:1524  Tokens[msg.sender] */\n      0xffffffffffffffffffffffffffffffffffffffff\n      and\n      0xffffffffffffffffffffffffffffffffffffffff\n      and\n      dup2\n      mstore\n      0x20\n      add\n      swap1\n      dup2\n      mstore\n      0x20\n      add\n      0x00\n      keccak256\n      0x00\n        /* \"contracts/Staking/staking.sol\":1506:1534  Tokens[msg.sender] +=_amount */\n      dup3\n      dup3\n      sload\n      tag_290\n      swap2\n      swap1\n      tag_101\n      jump\t// in\n    tag_290:\n      swap3\n      pop\n      pop\n      dup2\n      swap1\n      sstore\n      pop\n        /* \"contracts/Staking/staking.sol\":1544:1617  IERC20(ERC20Address).safeTransferFrom(msg.sender, address(this) ,_amount) */\n      tag_291\n        /* \"contracts/Staking/staking.sol\":1582:1592  msg.sender */\n      caller\n        /* \"contracts/Staking/staking.sol\":1602:1606  this */\n      address\n        /* \"contracts/Staking/staking.sol\":1609:1616  _amount */\n      dup4\n        /* \"contracts/Staking/staking.sol\":1551:1563  ERC20Address */\n      0x01\n      0x00\n      swap1\n      sload\n      swap1\n      0x0100\n      exp\n      swap1\n      div\n      0xffffffffffffffffffffffffffffffffffffffff\n      and\n        /* \"contracts/Staking/staking.sol\":1544:1581  IERC20(ERC20Address).safeTransferFrom */\n      0xffffffffffffffffffffffffffffffffffffffff\n      and\n      tag_144\n      swap1\n        /* \"contracts/Staking/staking.sol\":1544:1617  IERC20(ERC20Address).safeTransferFrom(msg.sender, address(this) ,_amount) */\n      swap4\n      swap3\n      swap2\n      swap1\n      0xffffffff\n      and\n      jump\t// in\n    tag_291:\n        /* \"contracts/Staking/staking.sol\":1443:1624  function AdminAddToken(uint _amount) public onlyOwner{... */\n      pop\n      jump\t// out\n        /* \"contracts/Staking/staking.sol\":8160:8366  function SetRewardPersentage(uint Month1Per,uint Month2Per,uint Month3Per) public onlyOwner{... */\n    tag_83:\n        /* \"@openzeppelin/contracts/access/Ownable.sol\":1094:1107  _checkOwner() */\n      tag_293\n        /* \"@openzeppelin/contracts/access/Ownable.sol\":1094:1105  _checkOwner */\n      tag_176\n        /* \"@openzeppelin/contracts/access/Ownable.sol\":1094:1107  _checkOwner() */\n      jump\t// in\n    tag_293:\n        /* \"contracts/Staking/staking.sol\":8278:8287  Month1Per */\n      dup3\n        /* \"contracts/Staking/staking.sol\":8261:8267  APYPer */\n      0x09\n        /* \"contracts/Staking/staking.sol\":8261:8275  APYPer[APY[1]] */\n      0x00\n        /* \"contracts/Staking/staking.sol\":8268:8271  APY */\n      0x08\n        /* \"contracts/Staking/staking.sol\":8268:8274  APY[1] */\n      0x00\n        /* \"contracts/Staking/staking.sol\":8272:8273  1 */\n      0x01\n        /* \"contracts/Staking/staking.sol\":8268:8274  APY[1] */\n      dup2\n      mstore\n      0x20\n      add\n      swap1\n      dup2\n      mstore\n      0x20\n      add\n      0x00\n      keccak256\n      sload\n        /* \"contracts/Staking/staking.sol\":8261:8275  APYPer[APY[1]] */\n      dup2\n      mstore\n      0x20\n      add\n      swap1\n      dup2\n      mstore\n      0x20\n      add\n      0x00\n      keccak256\n        /* \"contracts/Staking/staking.sol\":8261:8287  APYPer[APY[1]] = Month1Per */\n      dup2\n      swap1\n      sstore\n      pop\n        /* \"contracts/Staking/staking.sol\":8314:8323  Month2Per */\n      dup2\n        /* \"contracts/Staking/staking.sol\":8297:8303  APYPer */\n      0x09\n        /* \"contracts/Staking/staking.sol\":8297:8311  APYPer[APY[1]] */\n      0x00\n        /* \"contracts/Staking/staking.sol\":8304:8307  APY */\n      0x08\n        /* \"contracts/Staking/staking.sol\":8304:8310  APY[1] */\n      0x00\n        /* \"contracts/Staking/staking.sol\":8308:8309  1 */\n      0x01\n        /* \"contracts/Staking/staking.sol\":8304:8310  APY[1] */\n      dup2\n      mstore\n      0x20\n      add\n      swap1\n      dup2\n      mstore\n      0x20\n      add\n      0x00\n      keccak256\n      sload\n        /* \"contracts/Staking/staking.sol\":8297:8311  APYPer[APY[1]] */\n      dup2\n      mstore\n      0x20\n      add\n      swap1\n      dup2\n      mstore\n      0x20\n      add\n      0x00\n      keccak256\n        /* \"contracts/Staking/staking.sol\":8297:8323  APYPer[APY[1]] = Month2Per */\n      dup2\n      swap1\n      sstore\n      pop\n        /* \"contracts/Staking/staking.sol\":8350:8359  Month3Per */\n      dup1\n        /* \"contracts/Staking/staking.sol\":8333:8339  APYPer */\n      0x09\n        /* \"contracts/Staking/staking.sol\":8333:8347  APYPer[APY[1]] */\n      0x00\n        /* \"contracts/Staking/staking.sol\":8340:8343  APY */\n      0x08\n        /* \"contracts/Staking/staking.sol\":8340:8346  APY[1] */\n      0x00\n        /* \"contracts/Staking/staking.sol\":8344:8345  1 */\n      0x01\n        /* \"contracts/Staking/staking.sol\":8340:8346  APY[1] */\n      dup2\n      mstore\n      0x20\n      add\n      swap1\n      dup2\n      mstore\n      0x20\n      add\n      0x00\n      keccak256\n      sload\n        /* \"contracts/Staking/staking.sol\":8333:8347  APYPer[APY[1]] */\n      dup2\n      mstore\n      0x20\n      add\n      swap1\n      dup2\n      mstore\n      0x20\n      add\n      0x00\n      keccak256\n        /* \"contracts/Staking/staking.sol\":8333:8359  APYPer[APY[1]] = Month3Per */\n      dup2\n      swap1\n      sstore\n      pop\n        /* \"contracts/Staking/staking.sol\":8160:8366  function SetRewardPersentage(uint Month1Per,uint Month2Per,uint Month3Per) public onlyOwner{... */\n      pop\n      pop\n      pop\n      jump\t// out\n        /* \"contracts/Staking/staking.sol\":7301:7789  function viewRewards(address to) public view returns(uint reward){... */\n    tag_86:\n        /* \"contracts/Staking/staking.sol\":7354:7365  uint reward */\n      0x00\n        /* \"contracts/Staking/staking.sol\":7438:7453  block.timestamp */\n      timestamp\n        /* \"contracts/Staking/staking.sol\":7413:7420  Details */\n      0x06\n        /* \"contracts/Staking/staking.sol\":7413:7424  Details[to] */\n      0x00\n        /* \"contracts/Staking/staking.sol\":7421:7423  to */\n      dup5\n        /* \"contracts/Staking/staking.sol\":7413:7424  Details[to] */\n      0xffffffffffffffffffffffffffffffffffffffff\n      and\n      0xffffffffffffffffffffffffffffffffffffffff\n      and\n      dup2\n      mstore\n      0x20\n      add\n      swap1\n      dup2\n      mstore\n      0x20\n      add\n      0x00\n      keccak256\n        /* \"contracts/Staking/staking.sol\":7413:7434  Details[to].stakeTime */\n      0x01\n      add\n      sload\n        /* \"contracts/Staking/staking.sol\":7407:7409  60 */\n      0x3c\n        /* \"contracts/Staking/staking.sol\":7404:7406  30 */\n      0x1e\n        /* \"contracts/Staking/staking.sol\":7381:7388  Details */\n      0x06\n        /* \"contracts/Staking/staking.sol\":7381:7392  Details[to] */\n      0x00\n        /* \"contracts/Staking/staking.sol\":7389:7391  to */\n      dup8\n        /* \"contracts/Staking/staking.sol\":7381:7392  Details[to] */\n      0xffffffffffffffffffffffffffffffffffffffff\n      and\n      0xffffffffffffffffffffffffffffffffffffffff\n      and\n      dup2\n      mstore\n      0x20\n      add\n      swap1\n      dup2\n      mstore\n      0x20\n      add\n      0x00\n      keccak256\n        /* \"contracts/Staking/staking.sol\":7381:7403  Details[to].StakeMonth */\n      0x02\n      add\n      sload\n        /* \"contracts/Staking/staking.sol\":7381:7406  Details[to].StakeMonth*30 */\n      tag_296\n      swap2\n      swap1\n      tag_98\n      jump\t// in\n    tag_296:\n        /* \"contracts/Staking/staking.sol\":7381:7409  Details[to].StakeMonth*30*60 */\n      tag_297\n      swap2\n      swap1\n      tag_98\n      jump\t// in\n    tag_297:\n        /* \"contracts/Staking/staking.sol\":7380:7434  (Details[to].StakeMonth*30*60) + Details[to].stakeTime */\n      tag_298\n      swap2\n      swap1\n      tag_101\n      jump\t// in\n    tag_298:\n        /* \"contracts/Staking/staking.sol\":7379:7453  ((Details[to].StakeMonth*30*60) + Details[to].stakeTime) < block.timestamp */\n      lt\n        /* \"contracts/Staking/staking.sol\":7376:7783  if(((Details[to].StakeMonth*30*60) + Details[to].stakeTime) < block.timestamp){... */\n      iszero\n      tag_299\n      jumpi\n        /* \"contracts/Staking/staking.sol\":7475:7489  InterestAmount */\n      0x07\n        /* \"contracts/Staking/staking.sol\":7475:7493  InterestAmount[to] */\n      0x00\n        /* \"contracts/Staking/staking.sol\":7490:7492  to */\n      dup4\n        /* \"contracts/Staking/staking.sol\":7475:7493  InterestAmount[to] */\n      0xffffffffffffffffffffffffffffffffffffffff\n      and\n      0xffffffffffffffffffffffffffffffffffffffff\n      and\n      dup2\n      mstore\n      0x20\n      add\n      swap1\n      dup2\n      mstore\n      0x20\n      add\n      0x00\n      keccak256\n      sload\n        /* \"contracts/Staking/staking.sol\":7468:7494  return(InterestAmount[to]) */\n      swap1\n      pop\n      jump(tag_295)\n        /* \"contracts/Staking/staking.sol\":7376:7783  if(((Details[to].StakeMonth*30*60) + Details[to].stakeTime) < block.timestamp){... */\n    tag_299:\n        /* \"contracts/Staking/staking.sol\":7532:7545  uint Stakdays */\n      0x00\n        /* \"contracts/Staking/staking.sol\":7590:7592  60 */\n      0x3c\n        /* \"contracts/Staking/staking.sol\":7567:7574  Details */\n      0x06\n        /* \"contracts/Staking/staking.sol\":7567:7578  Details[to] */\n      0x00\n        /* \"contracts/Staking/staking.sol\":7575:7577  to */\n      dup6\n        /* \"contracts/Staking/staking.sol\":7567:7578  Details[to] */\n      0xffffffffffffffffffffffffffffffffffffffff\n      and\n      0xffffffffffffffffffffffffffffffffffffffff\n      and\n      dup2\n      mstore\n      0x20\n      add\n      swap1\n      dup2\n      mstore\n      0x20\n      add\n      0x00\n      keccak256\n        /* \"contracts/Staking/staking.sol\":7567:7588  Details[to].stakeTime */\n      0x01\n      add\n      sload\n        /* \"contracts/Staking/staking.sol\":7549:7564  block.timestamp */\n      timestamp\n        /* \"contracts/Staking/staking.sol\":7549:7588  block.timestamp - Details[to].stakeTime */\n      tag_301\n      swap2\n      swap1\n      tag_106\n      jump\t// in\n    tag_301:\n        /* \"contracts/Staking/staking.sol\":7548:7592  (block.timestamp - Details[to].stakeTime)/60 */\n      tag_302\n      swap2\n      swap1\n      tag_108\n      jump\t// in\n    tag_302:\n        /* \"contracts/Staking/staking.sol\":7532:7592  uint Stakdays = (block.timestamp - Details[to].stakeTime)/60 */\n      swap1\n      pop\n        /* \"contracts/Staking/staking.sol\":7607:7632  uint InterestAmountperday */\n      0x00\n        /* \"contracts/Staking/staking.sol\":7678:7680  30 */\n      0x1e\n        /* \"contracts/Staking/staking.sol\":7655:7662  Details */\n      0x06\n        /* \"contracts/Staking/staking.sol\":7655:7666  Details[to] */\n      0x00\n        /* \"contracts/Staking/staking.sol\":7663:7665  to */\n      dup7\n        /* \"contracts/Staking/staking.sol\":7655:7666  Details[to] */\n      0xffffffffffffffffffffffffffffffffffffffff\n      and\n      0xffffffffffffffffffffffffffffffffffffffff\n      and\n      dup2\n      mstore\n      0x20\n      add\n      swap1\n      dup2\n      mstore\n      0x20\n      add\n      0x00\n      keccak256\n        /* \"contracts/Staking/staking.sol\":7655:7677  Details[to].StakeMonth */\n      0x02\n      add\n      sload\n        /* \"contracts/Staking/staking.sol\":7655:7680  Details[to].StakeMonth*30 */\n      tag_303\n      swap2\n      swap1\n      tag_98\n      jump\t// in\n    tag_303:\n        /* \"contracts/Staking/staking.sol\":7635:7649  InterestAmount */\n      0x07\n        /* \"contracts/Staking/staking.sol\":7635:7653  InterestAmount[to] */\n      0x00\n        /* \"contracts/Staking/staking.sol\":7650:7652  to */\n      dup7\n        /* \"contracts/Staking/staking.sol\":7635:7653  InterestAmount[to] */\n      0xffffffffffffffffffffffffffffffffffffffff\n      and\n      0xffffffffffffffffffffffffffffffffffffffff\n      and\n      dup2\n      mstore\n      0x20\n      add\n      swap1\n      dup2\n      mstore\n      0x20\n      add\n      0x00\n      keccak256\n      sload\n        /* \"contracts/Staking/staking.sol\":7635:7681  InterestAmount[to]/(Details[to].StakeMonth*30) */\n      tag_304\n      swap2\n      swap1\n      tag_108\n      jump\t// in\n    tag_304:\n        /* \"contracts/Staking/staking.sol\":7607:7681  uint InterestAmountperday = InterestAmount[to]/(Details[to].StakeMonth*30) */\n      swap1\n      pop\n        /* \"contracts/Staking/staking.sol\":7695:7709  uint EarnToken */\n      0x00\n        /* \"contracts/Staking/staking.sol\":7733:7741  Stakdays */\n      dup3\n        /* \"contracts/Staking/staking.sol\":7712:7732  InterestAmountperday */\n      dup3\n        /* \"contracts/Staking/staking.sol\":7712:7741  InterestAmountperday*Stakdays */\n      tag_305\n      swap2\n      swap1\n      tag_98\n      jump\t// in\n    tag_305:\n        /* \"contracts/Staking/staking.sol\":7695:7741  uint EarnToken = InterestAmountperday*Stakdays */\n      swap1\n      pop\n        /* \"contracts/Staking/staking.sol\":7762:7771  EarnToken */\n      dup1\n        /* \"contracts/Staking/staking.sol\":7755:7772  return(EarnToken) */\n      swap4\n      pop\n      pop\n      pop\n      pop\n        /* \"contracts/Staking/staking.sol\":7301:7789  function viewRewards(address to) public view returns(uint reward){... */\n    tag_295:\n      swap2\n      swap1\n      pop\n      jump\t// out\n        /* \"contracts/Staking/staking.sol\":643:685  mapping (address => Staker) public Details */\n    tag_90:\n      mstore(0x20, 0x06)\n      dup1\n      0x00\n      mstore\n      keccak256(0x00, 0x40)\n      0x00\n      swap2\n      pop\n      swap1\n      pop\n      dup1\n      0x00\n      add\n      sload\n      swap1\n      dup1\n      0x01\n      add\n      sload\n      swap1\n      dup1\n      0x02\n      add\n      sload\n      swap1\n      dup1\n      0x03\n      add\n      sload\n      swap1\n      dup1\n      0x04\n      add\n      0x00\n      swap1\n      sload\n      swap1\n      0x0100\n      exp\n      swap1\n      div\n      0xff\n      and\n      swap1\n      pop\n      dup6\n      jump\t// out\n        /* \"@openzeppelin/contracts/access/Ownable.sol\":2081:2279  function transferOwnership(address newOwner) public virtual onlyOwner {... */\n    tag_95:\n        /* \"@openzeppelin/contracts/access/Ownable.sol\":1094:1107  _checkOwner() */\n      tag_307\n        /* \"@openzeppelin/contracts/access/Ownable.sol\":1094:1105  _checkOwner */\n      tag_176\n        /* \"@openzeppelin/contracts/access/Ownable.sol\":1094:1107  _checkOwner() */\n      jump\t// in\n    tag_307:\n        /* \"@openzeppelin/contracts/access/Ownable.sol\":2189:2190  0 */\n      0x00\n        /* \"@openzeppelin/contracts/access/Ownable.sol\":2169:2191  newOwner != address(0) */\n      0xffffffffffffffffffffffffffffffffffffffff\n      and\n        /* \"@openzeppelin/contracts/access/Ownable.sol\":2169:2177  newOwner */\n      dup2\n        /* \"@openzeppelin/contracts/access/Ownable.sol\":2169:2191  newOwner != address(0) */\n      0xffffffffffffffffffffffffffffffffffffffff\n      and\n      sub\n        /* \"@openzeppelin/contracts/access/Ownable.sol\":2161:2234  require(newOwner != address(0), \"Ownable: new owner is the zero address\") */\n      tag_309\n      jumpi\n      mload(0x40)\n      0x08c379a000000000000000000000000000000000000000000000000000000000\n      dup2\n      mstore\n      0x04\n      add\n      tag_310\n      swap1\n      tag_311\n      jump\t// in\n    tag_310:\n      mload(0x40)\n      dup1\n      swap2\n      sub\n      swap1\n      revert\n    tag_309:\n        /* \"@openzeppelin/contracts/access/Ownable.sol\":2244:2272  _transferOwnership(newOwner) */\n      tag_312\n        /* \"@openzeppelin/contracts/access/Ownable.sol\":2263:2271  newOwner */\n      dup2\n        /* \"@openzeppelin/contracts/access/Ownable.sol\":2244:2262  _transferOwnership */\n      tag_184\n        /* \"@openzeppelin/contracts/access/Ownable.sol\":2244:2272  _transferOwnership(newOwner) */\n      jump\t// in\n    tag_312:\n        /* \"@openzeppelin/contracts/access/Ownable.sol\":2081:2279  function transferOwnership(address newOwner) public virtual onlyOwner {... */\n      pop\n      jump\t// out\n        /* \"@openzeppelin/contracts/token/ERC20/utils/SafeERC20.sol\":974:1215  function safeTransferFrom(... */\n    tag_144:\n        /* \"@openzeppelin/contracts/token/ERC20/utils/SafeERC20.sol\":1112:1208  _callOptionalReturn(token, abi.encodeWithSelector(token.transferFrom.selector, from, to, value)) */\n      tag_314\n        /* \"@openzeppelin/contracts/token/ERC20/utils/SafeERC20.sol\":1132:1137  token */\n      dup5\n        /* \"@openzeppelin/contracts/token/ERC20/utils/SafeERC20.sol\":1162:1189  token.transferFrom.selector */\n      shl(0xe0, 0x23b872dd)\n        /* \"@openzeppelin/contracts/token/ERC20/utils/SafeERC20.sol\":1191:1195  from */\n      dup6\n        /* \"@openzeppelin/contracts/token/ERC20/utils/SafeERC20.sol\":1197:1199  to */\n      dup6\n        /* \"@openzeppelin/contracts/token/ERC20/utils/SafeERC20.sol\":1201:1206  value */\n      dup6\n        /* \"@openzeppelin/contracts/token/ERC20/utils/SafeERC20.sol\":1139:1207  abi.encodeWithSelector(token.transferFrom.selector, from, to, value) */\n      add(0x24, mload(0x40))\n      tag_315\n      swap4\n      swap3\n      swap2\n      swap1\n      tag_316\n      jump\t// in\n    tag_315:\n      mload(0x40)\n      0x20\n      dup2\n      dup4\n      sub\n      sub\n      dup2\n      mstore\n      swap1\n      0x40\n      mstore\n      swap1\n      not(0xffffffffffffffffffffffffffffffffffffffffffffffffffffffff)\n      and\n      0x20\n      dup3\n      add\n      dup1\n      mload\n      0xffffffffffffffffffffffffffffffffffffffffffffffffffffffff\n      dup4\n      dup2\n      dup4\n      and\n      or\n      dup4\n      mstore\n      pop\n      pop\n      pop\n      pop\n        /* \"@openzeppelin/contracts/token/ERC20/utils/SafeERC20.sol\":1112:1131  _callOptionalReturn */\n      tag_317\n        /* \"@openzeppelin/contracts/token/ERC20/utils/SafeERC20.sol\":1112:1208  _callOptionalReturn(token, abi.encodeWithSelector(token.transferFrom.selector, from, to, value)) */\n      jump\t// in\n    tag_314:\n        /* \"@openzeppelin/contracts/token/ERC20/utils/SafeERC20.sol\":974:1215  function safeTransferFrom(... */\n      pop\n      pop\n      pop\n      pop\n      jump\t// out\n        /* \"@openzeppelin/contracts/access/Ownable.sol\":1359:1489  function _checkOwner() internal view virtual {... */\n    tag_176:\n        /* \"@openzeppelin/contracts/access/Ownable.sol\":1433:1445  _msgSender() */\n      tag_319\n        /* \"@openzeppelin/contracts/access/Ownable.sol\":1433:1443  _msgSender */\n      tag_320\n        /* \"@openzeppelin/contracts/access/Ownable.sol\":1433:1445  _msgSender() */\n      jump\t// in\n    tag_319:\n        /* \"@openzeppelin/contracts/access/Ownable.sol\":1422:1445  owner() == _msgSender() */\n      0xffffffffffffffffffffffffffffffffffffffff\n      and\n        /* \"@openzeppelin/contracts/access/Ownable.sol\":1422:1429  owner() */\n      tag_321\n        /* \"@openzeppelin/contracts/access/Ownable.sol\":1422:1427  owner */\n      tag_69\n        /* \"@openzeppelin/contracts/access/Ownable.sol\":1422:1429  owner() */\n      jump\t// in\n    tag_321:\n        /* \"@openzeppelin/contracts/access/Ownable.sol\":1422:1445  owner() == _msgSender() */\n      0xffffffffffffffffffffffffffffffffffffffff\n      and\n      eq\n        /* \"@openzeppelin/contracts/access/Ownable.sol\":1414:1482  require(owner() == _msgSender(), \"Ownable: caller is not the owner\") */\n      tag_322\n      jumpi\n      mload(0x40)\n      0x08c379a000000000000000000000000000000000000000000000000000000000\n      dup2\n      mstore\n      0x04\n      add\n      tag_323\n      swap1\n      tag_324\n      jump\t// in\n    tag_323:\n      mload(0x40)\n      dup1\n      swap2\n      sub\n      swap1\n      revert\n    tag_322:\n        /* \"@openzeppelin/contracts/access/Ownable.sol\":1359:1489  function _checkOwner() internal view virtual {... */\n      jump\t// out\n        /* \"@openzeppelin/contracts/access/Ownable.sol\":2433:2620  function _transferOwnership(address newOwner) internal virtual {... */\n    tag_184:\n        /* \"@openzeppelin/contracts/access/Ownable.sol\":2506:2522  address oldOwner */\n      0x00\n        /* \"@openzeppelin/contracts/access/Ownable.sol\":2525:2531  _owner */\n      dup1\n      0x00\n      swap1\n      sload\n      swap1\n      0x0100\n      exp\n      swap1\n      div\n      0xffffffffffffffffffffffffffffffffffffffff\n      and\n        /* \"@openzeppelin/contracts/access/Ownable.sol\":2506:2531  address oldOwner = _owner */\n      swap1\n      pop\n        /* \"@openzeppelin/contracts/access/Ownable.sol\":2550:2558  newOwner */\n      dup2\n        /* \"@openzeppelin/contracts/access/Ownable.sol\":2541:2547  _owner */\n      0x00\n      dup1\n        /* \"@openzeppelin/contracts/access/Ownable.sol\":2541:2558  _owner = newOwner */\n      0x0100\n      exp\n      dup2\n      sload\n      dup2\n      0xffffffffffffffffffffffffffffffffffffffff\n      mul\n      not\n      and\n      swap1\n      dup4\n      0xffffffffffffffffffffffffffffffffffffffff\n      and\n      mul\n      or\n      swap1\n      sstore\n      pop\n        /* \"@openzeppelin/contracts/access/Ownable.sol\":2604:2612  newOwner */\n      dup2\n        /* \"@openzeppelin/contracts/access/Ownable.sol\":2573:2613  OwnershipTransferred(oldOwner, newOwner) */\n      0xffffffffffffffffffffffffffffffffffffffff\n      and\n        /* \"@openzeppelin/contracts/access/Ownable.sol\":2594:2602  oldOwner */\n      dup2\n        /* \"@openzeppelin/contracts/access/Ownable.sol\":2573:2613  OwnershipTransferred(oldOwner, newOwner) */\n      0xffffffffffffffffffffffffffffffffffffffff\n      and\n      0x8be0079c531659141344cd1fd0a4f28419497f9722a3daafe3b4186f6b6457e0\n      mload(0x40)\n      mload(0x40)\n      dup1\n      swap2\n      sub\n      swap1\n      log3\n        /* \"@openzeppelin/contracts/access/Ownable.sol\":2496:2620  {... */\n      pop\n        /* \"@openzeppelin/contracts/access/Ownable.sol\":2433:2620  function _transferOwnership(address newOwner) internal virtual {... */\n      pop\n      jump\t// out\n        /* \"@openzeppelin/contracts/token/ERC20/utils/SafeERC20.sol\":3747:4453  function _callOptionalReturn(IERC20 token, bytes memory data) private {... */\n    tag_317:\n        /* \"@openzeppelin/contracts/token/ERC20/utils/SafeERC20.sol\":4166:4189  bytes memory returndata */\n      0x00\n        /* \"@openzeppelin/contracts/token/ERC20/utils/SafeERC20.sol\":4192:4261  address(token).functionCall(data, \"SafeERC20: low-level call failed\") */\n      tag_327\n        /* \"@openzeppelin/contracts/token/ERC20/utils/SafeERC20.sol\":4220:4224  data */\n      dup3\n        /* \"@openzeppelin/contracts/token/ERC20/utils/SafeERC20.sol\":4192:4261  address(token).functionCall(data, \"SafeERC20: low-level call failed\") */\n      mload(0x40)\n      dup1\n      0x40\n      add\n      0x40\n      mstore\n      dup1\n      0x20\n      dup2\n      mstore\n      0x20\n      add\n      0x5361666545524332303a206c6f772d6c6576656c2063616c6c206661696c6564\n      dup2\n      mstore\n      pop\n        /* \"@openzeppelin/contracts/token/ERC20/utils/SafeERC20.sol\":4200:4205  token */\n      dup6\n        /* \"@openzeppelin/contracts/token/ERC20/utils/SafeERC20.sol\":4192:4219  address(token).functionCall */\n      0xffffffffffffffffffffffffffffffffffffffff\n      and\n      tag_328\n      swap1\n        /* \"@openzeppelin/contracts/token/ERC20/utils/SafeERC20.sol\":4192:4261  address(token).functionCall(data, \"SafeERC20: low-level call failed\") */\n      swap3\n      swap2\n      swap1\n      0xffffffff\n      and\n      jump\t// in\n    tag_327:\n        /* \"@openzeppelin/contracts/token/ERC20/utils/SafeERC20.sol\":4166:4261  bytes memory returndata = address(token).functionCall(data, \"SafeERC20: low-level call failed\") */\n      swap1\n      pop\n        /* \"@openzeppelin/contracts/token/ERC20/utils/SafeERC20.sol\":4295:4296  0 */\n      0x00\n        /* \"@openzeppelin/contracts/token/ERC20/utils/SafeERC20.sol\":4275:4285  returndata */\n      dup2\n        /* \"@openzeppelin/contracts/token/ERC20/utils/SafeERC20.sol\":4275:4292  returndata.length */\n      mload\n        /* \"@openzeppelin/contracts/token/ERC20/utils/SafeERC20.sol\":4275:4296  returndata.length > 0 */\n      gt\n        /* \"@openzeppelin/contracts/token/ERC20/utils/SafeERC20.sol\":4271:4447  if (returndata.length > 0) {... */\n      iszero\n      tag_329\n      jumpi\n        /* \"@openzeppelin/contracts/token/ERC20/utils/SafeERC20.sol\":4370:4380  returndata */\n      dup1\n        /* \"@openzeppelin/contracts/token/ERC20/utils/SafeERC20.sol\":4359:4389  abi.decode(returndata, (bool)) */\n      dup1\n      0x20\n      add\n      swap1\n      mload\n      dup2\n      add\n      swap1\n      tag_330\n      swap2\n      swap1\n      tag_118\n      jump\t// in\n    tag_330:\n        /* \"@openzeppelin/contracts/token/ERC20/utils/SafeERC20.sol\":4351:4436  require(abi.decode(returndata, (bool)), \"SafeERC20: ERC20 operation did not succeed\") */\n      tag_331\n      jumpi\n      mload(0x40)\n      0x08c379a000000000000000000000000000000000000000000000000000000000\n      dup2\n      mstore\n      0x04\n      add\n      tag_332\n      swap1\n      tag_333\n      jump\t// in\n    tag_332:\n      mload(0x40)\n      dup1\n      swap2\n      sub\n      swap1\n      revert\n    tag_331:\n        /* \"@openzeppelin/contracts/token/ERC20/utils/SafeERC20.sol\":4271:4447  if (returndata.length > 0) {... */\n    tag_329:\n        /* \"@openzeppelin/contracts/token/ERC20/utils/SafeERC20.sol\":3817:4453  {... */\n      pop\n        /* \"@openzeppelin/contracts/token/ERC20/utils/SafeERC20.sol\":3747:4453  function _callOptionalReturn(IERC20 token, bytes memory data) private {... */\n      pop\n      pop\n      jump\t// out\n        /* \"@openzeppelin/contracts/utils/Context.sol\":640:736  function _msgSender() internal view virtual returns (address) {... */\n    tag_320:\n        /* \"@openzeppelin/contracts/utils/Context.sol\":693:700  address */\n      0x00\n        /* \"@openzeppelin/contracts/utils/Context.sol\":719:729  msg.sender */\n      caller\n        /* \"@openzeppelin/contracts/utils/Context.sol\":712:729  return msg.sender */\n      swap1\n      pop\n        /* \"@openzeppelin/contracts/utils/Context.sol\":640:736  function _msgSender() internal view virtual returns (address) {... */\n      swap1\n      jump\t// out\n        /* \"@openzeppelin/contracts/utils/Address.sol\":3873:4096  function functionCall(... */\n    tag_328:\n        /* \"@openzeppelin/contracts/utils/Address.sol\":4006:4018  bytes memory */\n      0x60\n        /* \"@openzeppelin/contracts/utils/Address.sol\":4037:4089  functionCallWithValue(target, data, 0, errorMessage) */\n      tag_336\n        /* \"@openzeppelin/contracts/utils/Address.sol\":4059:4065  target */\n      dup5\n        /* \"@openzeppelin/contracts/utils/Address.sol\":4067:4071  data */\n      dup5\n        /* \"@openzeppelin/contracts/utils/Address.sol\":4073:4074  0 */\n      0x00\n        /* \"@openzeppelin/contracts/utils/Address.sol\":4076:4088  errorMessage */\n      dup6\n        /* \"@openzeppelin/contracts/utils/Address.sol\":4037:4058  functionCallWithValue */\n      tag_337\n        /* \"@openzeppelin/contracts/utils/Address.sol\":4037:4089  functionCallWithValue(target, data, 0, errorMessage) */\n      jump\t// in\n    tag_336:\n        /* \"@openzeppelin/contracts/utils/Address.sol\":4030:4089  return functionCallWithValue(target, data, 0, errorMessage) */\n      swap1\n      pop\n        /* \"@openzeppelin/contracts/utils/Address.sol\":3873:4096  function functionCall(... */\n      swap4\n      swap3\n      pop\n      pop\n      pop\n      jump\t// out\n        /* \"@openzeppelin/contracts/utils/Address.sol\":4960:5406  function functionCallWithValue(... */\n    tag_337:\n        /* \"@openzeppelin/contracts/utils/Address.sol\":5125:5137  bytes memory */\n      0x60\n        /* \"@openzeppelin/contracts/utils/Address.sol\":5182:5187  value */\n      dup3\n        /* \"@openzeppelin/contracts/utils/Address.sol\":5157:5178  address(this).balance */\n      selfbalance\n        /* \"@openzeppelin/contracts/utils/Address.sol\":5157:5187  address(this).balance >= value */\n      lt\n      iszero\n        /* \"@openzeppelin/contracts/utils/Address.sol\":5149:5230  require(address(this).balance >= value, \"Address: insufficient balance for call\") */\n      tag_339\n      jumpi\n      mload(0x40)\n      0x08c379a000000000000000000000000000000000000000000000000000000000\n      dup2\n      mstore\n      0x04\n      add\n      tag_340\n      swap1\n      tag_341\n      jump\t// in\n    tag_340:\n      mload(0x40)\n      dup1\n      swap2\n      sub\n      swap1\n      revert\n    tag_339:\n        /* \"@openzeppelin/contracts/utils/Address.sol\":5241:5253  bool success */\n      0x00\n        /* \"@openzeppelin/contracts/utils/Address.sol\":5255:5278  bytes memory returndata */\n      dup1\n        /* \"@openzeppelin/contracts/utils/Address.sol\":5282:5288  target */\n      dup7\n        /* \"@openzeppelin/contracts/utils/Address.sol\":5282:5293  target.call */\n      0xffffffffffffffffffffffffffffffffffffffff\n      and\n        /* \"@openzeppelin/contracts/utils/Address.sol\":5301:5306  value */\n      dup6\n        /* \"@openzeppelin/contracts/utils/Address.sol\":5308:5312  data */\n      dup8\n        /* \"@openzeppelin/contracts/utils/Address.sol\":5282:5313  target.call{value: value}(data) */\n      mload(0x40)\n      tag_342\n      swap2\n      swap1\n      tag_343\n      jump\t// in\n    tag_342:\n      0x00\n      mload(0x40)\n      dup1\n      dup4\n      sub\n      dup2\n      dup6\n      dup8\n      gas\n      call\n      swap3\n      pop\n      pop\n      pop\n      returndatasize\n      dup1\n      0x00\n      dup2\n      eq\n      tag_346\n      jumpi\n      mload(0x40)\n      swap2\n      pop\n      and(add(returndatasize, 0x3f), not(0x1f))\n      dup3\n      add\n      0x40\n      mstore\n      returndatasize\n      dup3\n      mstore\n      returndatasize\n      0x00\n      0x20\n      dup5\n      add\n      returndatacopy\n      jump(tag_345)\n    tag_346:\n      0x60\n      swap2\n      pop\n    tag_345:\n      pop\n        /* \"@openzeppelin/contracts/utils/Address.sol\":5240:5313  (bool success, bytes memory returndata) = target.call{value: value}(data) */\n      swap2\n      pop\n      swap2\n      pop\n        /* \"@openzeppelin/contracts/utils/Address.sol\":5330:5399  verifyCallResultFromTarget(target, success, returndata, errorMessage) */\n      tag_347\n        /* \"@openzeppelin/contracts/utils/Address.sol\":5357:5363  target */\n      dup8\n        /* \"@openzeppelin/contracts/utils/Address.sol\":5365:5372  success */\n      dup4\n        /* \"@openzeppelin/contracts/utils/Address.sol\":5374:5384  returndata */\n      dup4\n        /* \"@openzeppelin/contracts/utils/Address.sol\":5386:5398  errorMessage */\n      dup8\n        /* \"@openzeppelin/contracts/utils/Address.sol\":5330:5356  verifyCallResultFromTarget */\n      tag_348\n        /* \"@openzeppelin/contracts/utils/Address.sol\":5330:5399  verifyCallResultFromTarget(target, success, returndata, errorMessage) */\n      jump\t// in\n    tag_347:\n        /* \"@openzeppelin/contracts/utils/Address.sol\":5323:5399  return verifyCallResultFromTarget(target, success, returndata, errorMessage) */\n      swap3\n      pop\n      pop\n      pop\n        /* \"@openzeppelin/contracts/utils/Address.sol\":4960:5406  function functionCallWithValue(... */\n      swap5\n      swap4\n      pop\n      pop\n      pop\n      pop\n      jump\t// out\n        /* \"@openzeppelin/contracts/utils/Address.sol\":7466:8094  function verifyCallResultFromTarget(... */\n    tag_348:\n        /* \"@openzeppelin/contracts/utils/Address.sol\":7646:7658  bytes memory */\n      0x60\n        /* \"@openzeppelin/contracts/utils/Address.sol\":7674:7681  success */\n      dup4\n        /* \"@openzeppelin/contracts/utils/Address.sol\":7670:8088  if (success) {... */\n      iszero\n      tag_350\n      jumpi\n        /* \"@openzeppelin/contracts/utils/Address.sol\":7722:7723  0 */\n      0x00\n        /* \"@openzeppelin/contracts/utils/Address.sol\":7701:7711  returndata */\n      dup4\n        /* \"@openzeppelin/contracts/utils/Address.sol\":7701:7718  returndata.length */\n      mload\n        /* \"@openzeppelin/contracts/utils/Address.sol\":7701:7723  returndata.length == 0 */\n      sub\n        /* \"@openzeppelin/contracts/utils/Address.sol\":7697:7983  if (returndata.length == 0) {... */\n      tag_351\n      jumpi\n        /* \"@openzeppelin/contracts/utils/Address.sol\":7916:7934  isContract(target) */\n      tag_352\n        /* \"@openzeppelin/contracts/utils/Address.sol\":7927:7933  target */\n      dup6\n        /* \"@openzeppelin/contracts/utils/Address.sol\":7916:7926  isContract */\n      tag_353\n        /* \"@openzeppelin/contracts/utils/Address.sol\":7916:7934  isContract(target) */\n      jump\t// in\n    tag_352:\n        /* \"@openzeppelin/contracts/utils/Address.sol\":7908:7968  require(isContract(target), \"Address: call to non-contract\") */\n      tag_354\n      jumpi\n      mload(0x40)\n      0x08c379a000000000000000000000000000000000000000000000000000000000\n      dup2\n      mstore\n      0x04\n      add\n      tag_355\n      swap1\n      tag_356\n      jump\t// in\n    tag_355:\n      mload(0x40)\n      dup1\n      swap2\n      sub\n      swap1\n      revert\n    tag_354:\n        /* \"@openzeppelin/contracts/utils/Address.sol\":7697:7983  if (returndata.length == 0) {... */\n    tag_351:\n        /* \"@openzeppelin/contracts/utils/Address.sol\":8003:8013  returndata */\n      dup3\n        /* \"@openzeppelin/contracts/utils/Address.sol\":7996:8013  return returndata */\n      swap1\n      pop\n      jump(tag_349)\n        /* \"@openzeppelin/contracts/utils/Address.sol\":7670:8088  if (success) {... */\n    tag_350:\n        /* \"@openzeppelin/contracts/utils/Address.sol\":8044:8077  _revert(returndata, errorMessage) */\n      tag_358\n        /* \"@openzeppelin/contracts/utils/Address.sol\":8052:8062  returndata */\n      dup4\n        /* \"@openzeppelin/contracts/utils/Address.sol\":8064:8076  errorMessage */\n      dup4\n        /* \"@openzeppelin/contracts/utils/Address.sol\":8044:8051  _revert */\n      tag_359\n        /* \"@openzeppelin/contracts/utils/Address.sol\":8044:8077  _revert(returndata, errorMessage) */\n      jump\t// in\n    tag_358:\n        /* \"@openzeppelin/contracts/utils/Address.sol\":7466:8094  function verifyCallResultFromTarget(... */\n    tag_349:\n      swap5\n      swap4\n      pop\n      pop\n      pop\n      pop\n      jump\t// out\n        /* \"@openzeppelin/contracts/utils/Address.sol\":1175:1495  function isContract(address account) internal view returns (bool) {... */\n    tag_353:\n        /* \"@openzeppelin/contracts/utils/Address.sol\":1235:1239  bool */\n      0x00\n        /* \"@openzeppelin/contracts/utils/Address.sol\":1487:1488  0 */\n      dup1\n        /* \"@openzeppelin/contracts/utils/Address.sol\":1465:1472  account */\n      dup3\n        /* \"@openzeppelin/contracts/utils/Address.sol\":1465:1484  account.code.length */\n      0xffffffffffffffffffffffffffffffffffffffff\n      and\n      extcodesize\n        /* \"@openzeppelin/contracts/utils/Address.sol\":1465:1488  account.code.length > 0 */\n      gt\n        /* \"@openzeppelin/contracts/utils/Address.sol\":1458:1488  return account.code.length > 0 */\n      swap1\n      pop\n        /* \"@openzeppelin/contracts/utils/Address.sol\":1175:1495  function isContract(address account) internal view returns (bool) {... */\n      swap2\n      swap1\n      pop\n      jump\t// out\n        /* \"@openzeppelin/contracts/utils/Address.sol\":8616:9156  function _revert(bytes memory returndata, string memory errorMessage) private pure {... */\n    tag_359:\n        /* \"@openzeppelin/contracts/utils/Address.sol\":8795:8796  0 */\n      0x00\n        /* \"@openzeppelin/contracts/utils/Address.sol\":8775:8785  returndata */\n      dup3\n        /* \"@openzeppelin/contracts/utils/Address.sol\":8775:8792  returndata.length */\n      mload\n        /* \"@openzeppelin/contracts/utils/Address.sol\":8775:8796  returndata.length > 0 */\n      gt\n        /* \"@openzeppelin/contracts/utils/Address.sol\":8771:9150  if (returndata.length > 0) {... */\n      iszero\n      tag_362\n      jumpi\n        /* \"@openzeppelin/contracts/utils/Address.sol\":9003:9013  returndata */\n      dup2\n        /* \"@openzeppelin/contracts/utils/Address.sol\":8997:9014  mload(returndata) */\n      mload\n        /* \"@openzeppelin/contracts/utils/Address.sol\":9059:9074  returndata_size */\n      dup1\n        /* \"@openzeppelin/contracts/utils/Address.sol\":9046:9056  returndata */\n      dup4\n        /* \"@openzeppelin/contracts/utils/Address.sol\":9042:9044  32 */\n      0x20\n        /* \"@openzeppelin/contracts/utils/Address.sol\":9038:9057  add(32, returndata) */\n      add\n        /* \"@openzeppelin/contracts/utils/Address.sol\":9031:9075  revert(add(32, returndata), returndata_size) */\n      revert\n        /* \"@openzeppelin/contracts/utils/Address.sol\":8771:9150  if (returndata.length > 0) {... */\n    tag_362:\n        /* \"@openzeppelin/contracts/utils/Address.sol\":9126:9138  errorMessage */\n      dup1\n        /* \"@openzeppelin/contracts/utils/Address.sol\":9119:9139  revert(errorMessage) */\n      mload(0x40)\n      0x08c379a000000000000000000000000000000000000000000000000000000000\n      dup2\n      mstore\n      0x04\n      add\n      tag_364\n      swap2\n      swap1\n      tag_365\n      jump\t// in\n    tag_364:\n      mload(0x40)\n      dup1\n      swap2\n      sub\n      swap1\n      revert\n        /* \"#utility.yul\":88:205   */\n    tag_367:\n        /* \"#utility.yul\":197:198   */\n      0x00\n        /* \"#utility.yul\":194:195   */\n      dup1\n        /* \"#utility.yul\":187:199   */\n      revert\n        /* \"#utility.yul\":334:460   */\n    tag_369:\n        /* \"#utility.yul\":371:378   */\n      0x00\n        /* \"#utility.yul\":411:453   */\n      0xffffffffffffffffffffffffffffffffffffffff\n        /* \"#utility.yul\":404:409   */\n      dup3\n        /* \"#utility.yul\":400:454   */\n      and\n        /* \"#utility.yul\":389:454   */\n      swap1\n      pop\n        /* \"#utility.yul\":334:460   */\n      swap2\n      swap1\n      pop\n      jump\t// out\n        /* \"#utility.yul\":466:562   */\n    tag_370:\n        /* \"#utility.yul\":503:510   */\n      0x00\n        /* \"#utility.yul\":532:556   */\n      tag_420\n        /* \"#utility.yul\":550:555   */\n      dup3\n        /* \"#utility.yul\":532:556   */\n      tag_369\n      jump\t// in\n    tag_420:\n        /* \"#utility.yul\":521:556   */\n      swap1\n      pop\n        /* \"#utility.yul\":466:562   */\n      swap2\n      swap1\n      pop\n      jump\t// out\n        /* \"#utility.yul\":568:690   */\n    tag_371:\n        /* \"#utility.yul\":641:665   */\n      tag_422\n        /* \"#utility.yul\":659:664   */\n      dup2\n        /* \"#utility.yul\":641:665   */\n      tag_370\n      jump\t// in\n    tag_422:\n        /* \"#utility.yul\":634:639   */\n      dup2\n        /* \"#utility.yul\":631:666   */\n      eq\n        /* \"#utility.yul\":621:684   */\n      tag_423\n      jumpi\n        /* \"#utility.yul\":680:681   */\n      0x00\n        /* \"#utility.yul\":677:678   */\n      dup1\n        /* \"#utility.yul\":670:682   */\n      revert\n        /* \"#utility.yul\":621:684   */\n    tag_423:\n        /* \"#utility.yul\":568:690   */\n      pop\n      jump\t// out\n        /* \"#utility.yul\":696:835   */\n    tag_372:\n        /* \"#utility.yul\":742:747   */\n      0x00\n        /* \"#utility.yul\":780:786   */\n      dup2\n        /* \"#utility.yul\":767:787   */\n      calldataload\n        /* \"#utility.yul\":758:787   */\n      swap1\n      pop\n        /* \"#utility.yul\":796:829   */\n      tag_425\n        /* \"#utility.yul\":823:828   */\n      dup2\n        /* \"#utility.yul\":796:829   */\n      tag_371\n      jump\t// in\n    tag_425:\n        /* \"#utility.yul\":696:835   */\n      swap3\n      swap2\n      pop\n      pop\n      jump\t// out\n        /* \"#utility.yul\":841:1170   */\n    tag_27:\n        /* \"#utility.yul\":900:906   */\n      0x00\n        /* \"#utility.yul\":949:951   */\n      0x20\n        /* \"#utility.yul\":937:946   */\n      dup3\n        /* \"#utility.yul\":928:935   */\n      dup5\n        /* \"#utility.yul\":924:947   */\n      sub\n        /* \"#utility.yul\":920:952   */\n      slt\n        /* \"#utility.yul\":917:1036   */\n      iszero\n      tag_427\n      jumpi\n        /* \"#utility.yul\":955:1034   */\n      tag_428\n      tag_367\n      jump\t// in\n    tag_428:\n        /* \"#utility.yul\":917:1036   */\n    tag_427:\n        /* \"#utility.yul\":1075:1076   */\n      0x00\n        /* \"#utility.yul\":1100:1153   */\n      tag_429\n        /* \"#utility.yul\":1145:1152   */\n      dup5\n        /* \"#utility.yul\":1136:1142   */\n      dup3\n        /* \"#utility.yul\":1125:1134   */\n      dup6\n        /* \"#utility.yul\":1121:1143   */\n      add\n        /* \"#utility.yul\":1100:1153   */\n      tag_372\n      jump\t// in\n    tag_429:\n        /* \"#utility.yul\":1090:1153   */\n      swap2\n      pop\n        /* \"#utility.yul\":1046:1163   */\n      pop\n        /* \"#utility.yul\":841:1170   */\n      swap3\n      swap2\n      pop\n      pop\n      jump\t// out\n        /* \"#utility.yul\":1176:1253   */\n    tag_373:\n        /* \"#utility.yul\":1213:1220   */\n      0x00\n        /* \"#utility.yul\":1242:1247   */\n      dup2\n        /* \"#utility.yul\":1231:1247   */\n      swap1\n      pop\n        /* \"#utility.yul\":1176:1253   */\n      swap2\n      swap1\n      pop\n      jump\t// out\n        /* \"#utility.yul\":1259:1377   */\n    tag_374:\n        /* \"#utility.yul\":1346:1370   */\n      tag_432\n        /* \"#utility.yul\":1364:1369   */\n      dup2\n        /* \"#utility.yul\":1346:1370   */\n      tag_373\n      jump\t// in\n    tag_432:\n        /* \"#utility.yul\":1341:1344   */\n      dup3\n        /* \"#utility.yul\":1334:1371   */\n      mstore\n        /* \"#utility.yul\":1259:1377   */\n      pop\n      pop\n      jump\t// out\n        /* \"#utility.yul\":1383:1605   */\n    tag_33:\n        /* \"#utility.yul\":1476:1480   */\n      0x00\n        /* \"#utility.yul\":1514:1516   */\n      0x20\n        /* \"#utility.yul\":1503:1512   */\n      dup3\n        /* \"#utility.yul\":1499:1517   */\n      add\n        /* \"#utility.yul\":1491:1517   */\n      swap1\n      pop\n        /* \"#utility.yul\":1527:1598   */\n      tag_434\n        /* \"#utility.yul\":1595:1596   */\n      0x00\n        /* \"#utility.yul\":1584:1593   */\n      dup4\n        /* \"#utility.yul\":1580:1597   */\n      add\n        /* \"#utility.yul\":1571:1577   */\n      dup5\n        /* \"#utility.yul\":1527:1598   */\n      tag_374\n      jump\t// in\n    tag_434:\n        /* \"#utility.yul\":1383:1605   */\n      swap3\n      swap2\n      pop\n      pop\n      jump\t// out\n        /* \"#utility.yul\":1611:1733   */\n    tag_375:\n        /* \"#utility.yul\":1684:1708   */\n      tag_436\n        /* \"#utility.yul\":1702:1707   */\n      dup2\n        /* \"#utility.yul\":1684:1708   */\n      tag_373\n      jump\t// in\n    tag_436:\n        /* \"#utility.yul\":1677:1682   */\n      dup2\n        /* \"#utility.yul\":1674:1709   */\n      eq\n        /* \"#utility.yul\":1664:1727   */\n      tag_437\n      jumpi\n        /* \"#utility.yul\":1723:1724   */\n      0x00\n        /* \"#utility.yul\":1720:1721   */\n      dup1\n        /* \"#utility.yul\":1713:1725   */\n      revert\n        /* \"#utility.yul\":1664:1727   */\n    tag_437:\n        /* \"#utility.yul\":1611:1733   */\n      pop\n      jump\t// out\n        /* \"#utility.yul\":1739:1878   */\n    tag_376:\n        /* \"#utility.yul\":1785:1790   */\n      0x00\n        /* \"#utility.yul\":1823:1829   */\n      dup2\n        /* \"#utility.yul\":1810:1830   */\n      calldataload\n        /* \"#utility.yul\":1801:1830   */\n      swap1\n      pop\n        /* \"#utility.yul\":1839:1872   */\n      tag_439\n        /* \"#utility.yul\":1866:1871   */\n      dup2\n        /* \"#utility.yul\":1839:1872   */\n      tag_375\n      jump\t// in\n    tag_439:\n        /* \"#utility.yul\":1739:1878   */\n      swap3\n      swap2\n      pop\n      pop\n      jump\t// out\n        /* \"#utility.yul\":1884:2649   */\n    tag_36:\n        /* \"#utility.yul\":1970:1976   */\n      0x00\n        /* \"#utility.yul\":1978:1984   */\n      dup1\n        /* \"#utility.yul\":1986:1992   */\n      0x00\n        /* \"#utility.yul\":1994:2000   */\n      dup1\n        /* \"#utility.yul\":2043:2046   */\n      0x80\n        /* \"#utility.yul\":2031:2040   */\n      dup6\n        /* \"#utility.yul\":2022:2029   */\n      dup8\n        /* \"#utility.yul\":2018:2041   */\n      sub\n        /* \"#utility.yul\":2014:2047   */\n      slt\n        /* \"#utility.yul\":2011:2131   */\n      iszero\n      tag_441\n      jumpi\n        /* \"#utility.yul\":2050:2129   */\n      tag_442\n      tag_367\n      jump\t// in\n    tag_442:\n        /* \"#utility.yul\":2011:2131   */\n    tag_441:\n        /* \"#utility.yul\":2170:2171   */\n      0x00\n        /* \"#utility.yul\":2195:2248   */\n      tag_443\n        /* \"#utility.yul\":2240:2247   */\n      dup8\n        /* \"#utility.yul\":2231:2237   */\n      dup3\n        /* \"#utility.yul\":2220:2229   */\n      dup9\n        /* \"#utility.yul\":2216:2238   */\n      add\n        /* \"#utility.yul\":2195:2248   */\n      tag_372\n      jump\t// in\n    tag_443:\n        /* \"#utility.yul\":2185:2248   */\n      swap5\n      pop\n        /* \"#utility.yul\":2141:2258   */\n      pop\n        /* \"#utility.yul\":2297:2299   */\n      0x20\n        /* \"#utility.yul\":2323:2376   */\n      tag_444\n        /* \"#utility.yul\":2368:2375   */\n      dup8\n        /* \"#utility.yul\":2359:2365   */\n      dup3\n        /* \"#utility.yul\":2348:2357   */\n      dup9\n        /* \"#utility.yul\":2344:2366   */\n      add\n        /* \"#utility.yul\":2323:2376   */\n      tag_376\n      jump\t// in\n    tag_444:\n        /* \"#utility.yul\":2313:2376   */\n      swap4\n      pop\n        /* \"#utility.yul\":2268:2386   */\n      pop\n        /* \"#utility.yul\":2425:2427   */\n      0x40\n        /* \"#utility.yul\":2451:2504   */\n      tag_445\n        /* \"#utility.yul\":2496:2503   */\n      dup8\n        /* \"#utility.yul\":2487:2493   */\n      dup3\n        /* \"#utility.yul\":2476:2485   */\n      dup9\n        /* \"#utility.yul\":2472:2494   */\n      add\n        /* \"#utility.yul\":2451:2504   */\n      tag_376\n      jump\t// in\n    tag_445:\n        /* \"#utility.yul\":2441:2504   */\n      swap3\n      pop\n        /* \"#utility.yul\":2396:2514   */\n      pop\n        /* \"#utility.yul\":2553:2555   */\n      0x60\n        /* \"#utility.yul\":2579:2632   */\n      tag_446\n        /* \"#utility.yul\":2624:2631   */\n      dup8\n        /* \"#utility.yul\":2615:2621   */\n      dup3\n        /* \"#utility.yul\":2604:2613   */\n      dup9\n        /* \"#utility.yul\":2600:2622   */\n      add\n        /* \"#utility.yul\":2579:2632   */\n      tag_376\n      jump\t// in\n    tag_446:\n        /* \"#utility.yul\":2569:2632   */\n      swap2\n      pop\n        /* \"#utility.yul\":2524:2642   */\n      pop\n        /* \"#utility.yul\":1884:2649   */\n      swap3\n      swap6\n      swap2\n      swap5\n      pop\n      swap3\n      pop\n      jump\t// out\n        /* \"#utility.yul\":2655:2984   */\n    tag_40:\n        /* \"#utility.yul\":2714:2720   */\n      0x00\n        /* \"#utility.yul\":2763:2765   */\n      0x20\n        /* \"#utility.yul\":2751:2760   */\n      dup3\n        /* \"#utility.yul\":2742:2749   */\n      dup5\n        /* \"#utility.yul\":2738:2761   */\n      sub\n        /* \"#utility.yul\":2734:2766   */\n      slt\n        /* \"#utility.yul\":2731:2850   */\n      iszero\n      tag_448\n      jumpi\n        /* \"#utility.yul\":2769:2848   */\n      tag_449\n      tag_367\n      jump\t// in\n    tag_449:\n        /* \"#utility.yul\":2731:2850   */\n    tag_448:\n        /* \"#utility.yul\":2889:2890   */\n      0x00\n        /* \"#utility.yul\":2914:2967   */\n      tag_450\n        /* \"#utility.yul\":2959:2966   */\n      dup5\n        /* \"#utility.yul\":2950:2956   */\n      dup3\n        /* \"#utility.yul\":2939:2948   */\n      dup6\n        /* \"#utility.yul\":2935:2957   */\n      add\n        /* \"#utility.yul\":2914:2967   */\n      tag_376\n      jump\t// in\n    tag_450:\n        /* \"#utility.yul\":2904:2967   */\n      swap2\n      pop\n        /* \"#utility.yul\":2860:2977   */\n      pop\n        /* \"#utility.yul\":2655:2984   */\n      swap3\n      swap2\n      pop\n      pop\n      jump\t// out\n        /* \"#utility.yul\":2990:3609   */\n    tag_45:\n        /* \"#utility.yul\":3067:3073   */\n      0x00\n        /* \"#utility.yul\":3075:3081   */\n      dup1\n        /* \"#utility.yul\":3083:3089   */\n      0x00\n        /* \"#utility.yul\":3132:3134   */\n      0x60\n        /* \"#utility.yul\":3120:3129   */\n      dup5\n        /* \"#utility.yul\":3111:3118   */\n      dup7\n        /* \"#utility.yul\":3107:3130   */\n      sub\n        /* \"#utility.yul\":3103:3135   */\n      slt\n        /* \"#utility.yul\":3100:3219   */\n      iszero\n      tag_452\n      jumpi\n        /* \"#utility.yul\":3138:3217   */\n      tag_453\n      tag_367\n      jump\t// in\n    tag_453:\n        /* \"#utility.yul\":3100:3219   */\n    tag_452:\n        /* \"#utility.yul\":3258:3259   */\n      0x00\n        /* \"#utility.yul\":3283:3336   */\n      tag_454\n        /* \"#utility.yul\":3328:3335   */\n      dup7\n        /* \"#utility.yul\":3319:3325   */\n      dup3\n        /* \"#utility.yul\":3308:3317   */\n      dup8\n        /* \"#utility.yul\":3304:3326   */\n      add\n        /* \"#utility.yul\":3283:3336   */\n      tag_376\n      jump\t// in\n    tag_454:\n        /* \"#utility.yul\":3273:3336   */\n      swap4\n      pop\n        /* \"#utility.yul\":3229:3346   */\n      pop\n        /* \"#utility.yul\":3385:3387   */\n      0x20\n        /* \"#utility.yul\":3411:3464   */\n      tag_455\n        /* \"#utility.yul\":3456:3463   */\n      dup7\n        /* \"#utility.yul\":3447:3453   */\n      dup3\n        /* \"#utility.yul\":3436:3445   */\n      dup8\n        /* \"#utility.yul\":3432:3454   */\n      add\n        /* \"#utility.yul\":3411:3464   */\n      tag_376\n      jump\t// in\n    tag_455:\n        /* \"#utility.yul\":3401:3464   */\n      swap3\n      pop\n        /* \"#utility.yul\":3356:3474   */\n      pop\n        /* \"#utility.yul\":3513:3515   */\n      0x40\n        /* \"#utility.yul\":3539:3592   */\n      tag_456\n        /* \"#utility.yul\":3584:3591   */\n      dup7\n        /* \"#utility.yul\":3575:3581   */\n      dup3\n        /* \"#utility.yul\":3564:3573   */\n      dup8\n        /* \"#utility.yul\":3560:3582   */\n      add\n        /* \"#utility.yul\":3539:3592   */\n      tag_376\n      jump\t// in\n    tag_456:\n        /* \"#utility.yul\":3529:3592   */\n      swap2\n      pop\n        /* \"#utility.yul\":3484:3602   */\n      pop\n        /* \"#utility.yul\":2990:3609   */\n      swap3\n      pop\n      swap3\n      pop\n      swap3\n      jump\t// out\n        /* \"#utility.yul\":3615:4089   */\n    tag_49:\n        /* \"#utility.yul\":3683:3689   */\n      0x00\n        /* \"#utility.yul\":3691:3697   */\n      dup1\n        /* \"#utility.yul\":3740:3742   */\n      0x40\n        /* \"#utility.yul\":3728:3737   */\n      dup4\n        /* \"#utility.yul\":3719:3726   */\n      dup6\n        /* \"#utility.yul\":3715:3738   */\n      sub\n        /* \"#utility.yul\":3711:3743   */\n      slt\n        /* \"#utility.yul\":3708:3827   */\n      iszero\n      tag_458\n      jumpi\n        /* \"#utility.yul\":3746:3825   */\n      tag_459\n      tag_367\n      jump\t// in\n    tag_459:\n        /* \"#utility.yul\":3708:3827   */\n    tag_458:\n        /* \"#utility.yul\":3866:3867   */\n      0x00\n        /* \"#utility.yul\":3891:3944   */\n      tag_460\n        /* \"#utility.yul\":3936:3943   */\n      dup6\n        /* \"#utility.yul\":3927:3933   */\n      dup3\n        /* \"#utility.yul\":3916:3925   */\n      dup7\n        /* \"#utility.yul\":3912:3934   */\n      add\n        /* \"#utility.yul\":3891:3944   */\n      tag_376\n      jump\t// in\n    tag_460:\n        /* \"#utility.yul\":3881:3944   */\n      swap3\n      pop\n        /* \"#utility.yul\":3837:3954   */\n      pop\n        /* \"#utility.yul\":3993:3995   */\n      0x20\n        /* \"#utility.yul\":4019:4072   */\n      tag_461\n        /* \"#utility.yul\":4064:4071   */\n      dup6\n        /* \"#utility.yul\":4055:4061   */\n      dup3\n        /* \"#utility.yul\":4044:4053   */\n      dup7\n        /* \"#utility.yul\":4040:4062   */\n      add\n        /* \"#utility.yul\":4019:4072   */\n      tag_376\n      jump\t// in\n    tag_461:\n        /* \"#utility.yul\":4009:4072   */\n      swap2\n      pop\n        /* \"#utility.yul\":3964:4082   */\n      pop\n        /* \"#utility.yul\":3615:4089   */\n      swap3\n      pop\n      swap3\n      swap1\n      pop\n      jump\t// out\n        /* \"#utility.yul\":4095:4427   */\n    tag_54:\n        /* \"#utility.yul\":4216:4220   */\n      0x00\n        /* \"#utility.yul\":4254:4256   */\n      0x40\n        /* \"#utility.yul\":4243:4252   */\n      dup3\n        /* \"#utility.yul\":4239:4257   */\n      add\n        /* \"#utility.yul\":4231:4257   */\n      swap1\n      pop\n        /* \"#utility.yul\":4267:4338   */\n      tag_463\n        /* \"#utility.yul\":4335:4336   */\n      0x00\n        /* \"#utility.yul\":4324:4333   */\n      dup4\n        /* \"#utility.yul\":4320:4337   */\n      add\n        /* \"#utility.yul\":4311:4317   */\n      dup6\n        /* \"#utility.yul\":4267:4338   */\n      tag_374\n      jump\t// in\n    tag_463:\n        /* \"#utility.yul\":4348:4420   */\n      tag_464\n        /* \"#utility.yul\":4416:4418   */\n      0x20\n        /* \"#utility.yul\":4405:4414   */\n      dup4\n        /* \"#utility.yul\":4401:4419   */\n      add\n        /* \"#utility.yul\":4392:4398   */\n      dup5\n        /* \"#utility.yul\":4348:4420   */\n      tag_374\n      jump\t// in\n    tag_464:\n        /* \"#utility.yul\":4095:4427   */\n      swap4\n      swap3\n      pop\n      pop\n      pop\n      jump\t// out\n        /* \"#utility.yul\":4433:4551   */\n    tag_377:\n        /* \"#utility.yul\":4520:4544   */\n      tag_466\n        /* \"#utility.yul\":4538:4543   */\n      dup2\n        /* \"#utility.yul\":4520:4544   */\n      tag_370\n      jump\t// in\n    tag_466:\n        /* \"#utility.yul\":4515:4518   */\n      dup3\n        /* \"#utility.yul\":4508:4545   */\n      mstore\n        /* \"#utility.yul\":4433:4551   */\n      pop\n      pop\n      jump\t// out\n        /* \"#utility.yul\":4557:4779   */\n    tag_71:\n        /* \"#utility.yul\":4650:4654   */\n      0x00\n        /* \"#utility.yul\":4688:4690   */\n      0x20\n        /* \"#utility.yul\":4677:4686   */\n      dup3\n        /* \"#utility.yul\":4673:4691   */\n      add\n        /* \"#utility.yul\":4665:4691   */\n      swap1\n      pop\n        /* \"#utility.yul\":4701:4772   */\n      tag_468\n        /* \"#utility.yul\":4769:4770   */\n      0x00\n        /* \"#utility.yul\":4758:4767   */\n      dup4\n        /* \"#utility.yul\":4754:4771   */\n      add\n        /* \"#utility.yul\":4745:4751   */\n      dup5\n        /* \"#utility.yul\":4701:4772   */\n      tag_377\n      jump\t// in\n    tag_468:\n        /* \"#utility.yul\":4557:4779   */\n      swap3\n      swap2\n      pop\n      pop\n      jump\t// out\n        /* \"#utility.yul\":4785:4875   */\n    tag_378:\n        /* \"#utility.yul\":4819:4826   */\n      0x00\n        /* \"#utility.yul\":4862:4867   */\n      dup2\n        /* \"#utility.yul\":4855:4868   */\n      iszero\n        /* \"#utility.yul\":4848:4869   */\n      iszero\n        /* \"#utility.yul\":4837:4869   */\n      swap1\n      pop\n        /* \"#utility.yul\":4785:4875   */\n      swap2\n      swap1\n      pop\n      jump\t// out\n        /* \"#utility.yul\":4881:4990   */\n    tag_379:\n        /* \"#utility.yul\":4962:4983   */\n      tag_471\n        /* \"#utility.yul\":4977:4982   */\n      dup2\n        /* \"#utility.yul\":4962:4983   */\n      tag_378\n      jump\t// in\n    tag_471:\n        /* \"#utility.yul\":4957:4960   */\n      dup3\n        /* \"#utility.yul\":4950:4984   */\n      mstore\n        /* \"#utility.yul\":4881:4990   */\n      pop\n      pop\n      jump\t// out\n        /* \"#utility.yul\":4996:5648   */\n    tag_92:\n        /* \"#utility.yul\":5195:5199   */\n      0x00\n        /* \"#utility.yul\":5233:5236   */\n      0xa0\n        /* \"#utility.yul\":5222:5231   */\n      dup3\n        /* \"#utility.yul\":5218:5237   */\n      add\n        /* \"#utility.yul\":5210:5237   */\n      swap1\n      pop\n        /* \"#utility.yul\":5247:5318   */\n      tag_473\n        /* \"#utility.yul\":5315:5316   */\n      0x00\n        /* \"#utility.yul\":5304:5313   */\n      dup4\n        /* \"#utility.yul\":5300:5317   */\n      add\n        /* \"#utility.yul\":5291:5297   */\n      dup9\n        /* \"#utility.yul\":5247:5318   */\n      tag_374\n      jump\t// in\n    tag_473:\n        /* \"#utility.yul\":5328:5400   */\n      tag_474\n        /* \"#utility.yul\":5396:5398   */\n      0x20\n        /* \"#utility.yul\":5385:5394   */\n      dup4\n        /* \"#utility.yul\":5381:5399   */\n      add\n        /* \"#utility.yul\":5372:5378   */\n      dup8\n        /* \"#utility.yul\":5328:5400   */\n      tag_374\n      jump\t// in\n    tag_474:\n        /* \"#utility.yul\":5410:5482   */\n      tag_475\n        /* \"#utility.yul\":5478:5480   */\n      0x40\n        /* \"#utility.yul\":5467:5476   */\n      dup4\n        /* \"#utility.yul\":5463:5481   */\n      add\n        /* \"#utility.yul\":5454:5460   */\n      dup7\n        /* \"#utility.yul\":5410:5482   */\n      tag_374\n      jump\t// in\n    tag_475:\n        /* \"#utility.yul\":5492:5564   */\n      tag_476\n        /* \"#utility.yul\":5560:5562   */\n      0x60\n        /* \"#utility.yul\":5549:5558   */\n      dup4\n        /* \"#utility.yul\":5545:5563   */\n      add\n        /* \"#utility.yul\":5536:5542   */\n      dup6\n        /* \"#utility.yul\":5492:5564   */\n      tag_374\n      jump\t// in\n    tag_476:\n        /* \"#utility.yul\":5574:5641   */\n      tag_477\n        /* \"#utility.yul\":5636:5639   */\n      0x80\n        /* \"#utility.yul\":5625:5634   */\n      dup4\n        /* \"#utility.yul\":5621:5640   */\n      add\n        /* \"#utility.yul\":5612:5618   */\n      dup5\n        /* \"#utility.yul\":5574:5641   */\n      tag_379\n      jump\t// in\n    tag_477:\n        /* \"#utility.yul\":4996:5648   */\n      swap7\n      swap6\n      pop\n      pop\n      pop\n      pop\n      pop\n      pop\n      jump\t// out\n        /* \"#utility.yul\":5654:5834   */\n    tag_380:\n        /* \"#utility.yul\":5702:5779   */\n      0x4e487b7100000000000000000000000000000000000000000000000000000000\n        /* \"#utility.yul\":5699:5700   */\n      0x00\n        /* \"#utility.yul\":5692:5780   */\n      mstore\n        /* \"#utility.yul\":5799:5803   */\n      0x11\n        /* \"#utility.yul\":5796:5797   */\n      0x04\n        /* \"#utility.yul\":5789:5804   */\n      mstore\n        /* \"#utility.yul\":5823:5827   */\n      0x24\n        /* \"#utility.yul\":5820:5821   */\n      0x00\n        /* \"#utility.yul\":5813:5828   */\n      revert\n        /* \"#utility.yul\":5840:6250   */\n    tag_98:\n        /* \"#utility.yul\":5880:5887   */\n      0x00\n        /* \"#utility.yul\":5903:5923   */\n      tag_480\n        /* \"#utility.yul\":5921:5922   */\n      dup3\n        /* \"#utility.yul\":5903:5923   */\n      tag_373\n      jump\t// in\n    tag_480:\n        /* \"#utility.yul\":5898:5923   */\n      swap2\n      pop\n        /* \"#utility.yul\":5937:5957   */\n      tag_481\n        /* \"#utility.yul\":5955:5956   */\n      dup4\n        /* \"#utility.yul\":5937:5957   */\n      tag_373\n      jump\t// in\n    tag_481:\n        /* \"#utility.yul\":5932:5957   */\n      swap3\n      pop\n        /* \"#utility.yul\":5992:5993   */\n      dup3\n        /* \"#utility.yul\":5989:5990   */\n      dup3\n        /* \"#utility.yul\":5985:5994   */\n      mul\n        /* \"#utility.yul\":6014:6044   */\n      tag_482\n        /* \"#utility.yul\":6032:6043   */\n      dup2\n        /* \"#utility.yul\":6014:6044   */\n      tag_373\n      jump\t// in\n    tag_482:\n        /* \"#utility.yul\":6003:6044   */\n      swap2\n      pop\n        /* \"#utility.yul\":6193:6194   */\n      dup3\n        /* \"#utility.yul\":6184:6191   */\n      dup3\n        /* \"#utility.yul\":6180:6195   */\n      div\n        /* \"#utility.yul\":6177:6178   */\n      dup5\n        /* \"#utility.yul\":6174:6196   */\n      eq\n        /* \"#utility.yul\":6154:6155   */\n      dup4\n        /* \"#utility.yul\":6147:6156   */\n      iszero\n        /* \"#utility.yul\":6127:6210   */\n      or\n        /* \"#utility.yul\":6104:6243   */\n      tag_483\n      jumpi\n        /* \"#utility.yul\":6223:6241   */\n      tag_484\n      tag_380\n      jump\t// in\n    tag_484:\n        /* \"#utility.yul\":6104:6243   */\n    tag_483:\n        /* \"#utility.yul\":5888:6250   */\n      pop\n        /* \"#utility.yul\":5840:6250   */\n      swap3\n      swap2\n      pop\n      pop\n      jump\t// out\n        /* \"#utility.yul\":6256:6447   */\n    tag_101:\n        /* \"#utility.yul\":6296:6299   */\n      0x00\n        /* \"#utility.yul\":6315:6335   */\n      tag_486\n        /* \"#utility.yul\":6333:6334   */\n      dup3\n        /* \"#utility.yul\":6315:6335   */\n      tag_373\n      jump\t// in\n    tag_486:\n        /* \"#utility.yul\":6310:6335   */\n      swap2\n      pop\n        /* \"#utility.yul\":6349:6369   */\n      tag_487\n        /* \"#utility.yul\":6367:6368   */\n      dup4\n        /* \"#utility.yul\":6349:6369   */\n      tag_373\n      jump\t// in\n    tag_487:\n        /* \"#utility.yul\":6344:6369   */\n      swap3\n      pop\n        /* \"#utility.yul\":6392:6393   */\n      dup3\n        /* \"#utility.yul\":6389:6390   */\n      dup3\n        /* \"#utility.yul\":6385:6394   */\n      add\n        /* \"#utility.yul\":6378:6394   */\n      swap1\n      pop\n        /* \"#utility.yul\":6413:6416   */\n      dup1\n        /* \"#utility.yul\":6410:6411   */\n      dup3\n        /* \"#utility.yul\":6407:6417   */\n      gt\n        /* \"#utility.yul\":6404:6440   */\n      iszero\n      tag_488\n      jumpi\n        /* \"#utility.yul\":6420:6438   */\n      tag_489\n      tag_380\n      jump\t// in\n    tag_489:\n        /* \"#utility.yul\":6404:6440   */\n    tag_488:\n        /* \"#utility.yul\":6256:6447   */\n      swap3\n      swap2\n      pop\n      pop\n      jump\t// out\n        /* \"#utility.yul\":6453:6622   */\n    tag_381:\n        /* \"#utility.yul\":6537:6548   */\n      0x00\n        /* \"#utility.yul\":6571:6577   */\n      dup3\n        /* \"#utility.yul\":6566:6569   */\n      dup3\n        /* \"#utility.yul\":6559:6578   */\n      mstore\n        /* \"#utility.yul\":6611:6615   */\n      0x20\n        /* \"#utility.yul\":6606:6609   */\n      dup3\n        /* \"#utility.yul\":6602:6616   */\n      add\n        /* \"#utility.yul\":6587:6616   */\n      swap1\n      pop\n        /* \"#utility.yul\":6453:6622   */\n      swap3\n      swap2\n      pop\n      pop\n      jump\t// out\n        /* \"#utility.yul\":6628:6872   */\n    tag_382:\n        /* \"#utility.yul\":6768:6802   */\n      0x596f7572205374616b652054696d6520436f6d706c6574652c20506c65617365\n        /* \"#utility.yul\":6764:6765   */\n      0x00\n        /* \"#utility.yul\":6756:6762   */\n      dup3\n        /* \"#utility.yul\":6752:6766   */\n      add\n        /* \"#utility.yul\":6745:6803   */\n      mstore\n        /* \"#utility.yul\":6837:6864   */\n      0x2043616c6c2057697468647261772046756e6374696f6e202100000000000000\n        /* \"#utility.yul\":6832:6834   */\n      0x20\n        /* \"#utility.yul\":6824:6830   */\n      dup3\n        /* \"#utility.yul\":6820:6835   */\n      add\n        /* \"#utility.yul\":6813:6865   */\n      mstore\n        /* \"#utility.yul\":6628:6872   */\n      pop\n      jump\t// out\n        /* \"#utility.yul\":6878:7244   */\n    tag_383:\n        /* \"#utility.yul\":7020:7023   */\n      0x00\n        /* \"#utility.yul\":7041:7108   */\n      tag_493\n        /* \"#utility.yul\":7105:7107   */\n      0x39\n        /* \"#utility.yul\":7100:7103   */\n      dup4\n        /* \"#utility.yul\":7041:7108   */\n      tag_381\n      jump\t// in\n    tag_493:\n        /* \"#utility.yul\":7034:7108   */\n      swap2\n      pop\n        /* \"#utility.yul\":7117:7210   */\n      tag_494\n        /* \"#utility.yul\":7206:7209   */\n      dup3\n        /* \"#utility.yul\":7117:7210   */\n      tag_382\n      jump\t// in\n    tag_494:\n        /* \"#utility.yul\":7235:7237   */\n      0x40\n        /* \"#utility.yul\":7230:7233   */\n      dup3\n        /* \"#utility.yul\":7226:7238   */\n      add\n        /* \"#utility.yul\":7219:7238   */\n      swap1\n      pop\n        /* \"#utility.yul\":6878:7244   */\n      swap2\n      swap1\n      pop\n      jump\t// out\n        /* \"#utility.yul\":7250:7669   */\n    tag_104:\n        /* \"#utility.yul\":7416:7420   */\n      0x00\n        /* \"#utility.yul\":7454:7456   */\n      0x20\n        /* \"#utility.yul\":7443:7452   */\n      dup3\n        /* \"#utility.yul\":7439:7457   */\n      add\n        /* \"#utility.yul\":7431:7457   */\n      swap1\n      pop\n        /* \"#utility.yul\":7503:7512   */\n      dup2\n        /* \"#utility.yul\":7497:7501   */\n      dup2\n        /* \"#utility.yul\":7493:7513   */\n      sub\n        /* \"#utility.yul\":7489:7490   */\n      0x00\n        /* \"#utility.yul\":7478:7487   */\n      dup4\n        /* \"#utility.yul\":7474:7491   */\n      add\n        /* \"#utility.yul\":7467:7514   */\n      mstore\n        /* \"#utility.yul\":7531:7662   */\n      tag_496\n        /* \"#utility.yul\":7657:7661   */\n      dup2\n        /* \"#utility.yul\":7531:7662   */\n      tag_383\n      jump\t// in\n    tag_496:\n        /* \"#utility.yul\":7523:7662   */\n      swap1\n      pop\n        /* \"#utility.yul\":7250:7669   */\n      swap2\n      swap1\n      pop\n      jump\t// out\n        /* \"#utility.yul\":7675:7869   */\n    tag_106:\n        /* \"#utility.yul\":7715:7719   */\n      0x00\n        /* \"#utility.yul\":7735:7755   */\n      tag_498\n        /* \"#utility.yul\":7753:7754   */\n      dup3\n        /* \"#utility.yul\":7735:7755   */\n      tag_373\n      jump\t// in\n    tag_498:\n        /* \"#utility.yul\":7730:7755   */\n      swap2\n      pop\n        /* \"#utility.yul\":7769:7789   */\n      tag_499\n        /* \"#utility.yul\":7787:7788   */\n      dup4\n        /* \"#utility.yul\":7769:7789   */\n      tag_373\n      jump\t// in\n    tag_499:\n        /* \"#utility.yul\":7764:7789   */\n      swap3\n      pop\n        /* \"#utility.yul\":7813:7814   */\n      dup3\n        /* \"#utility.yul\":7810:7811   */\n      dup3\n        /* \"#utility.yul\":7806:7815   */\n      sub\n        /* \"#utility.yul\":7798:7815   */\n      swap1\n      pop\n        /* \"#utility.yul\":7837:7838   */\n      dup2\n        /* \"#utility.yul\":7831:7835   */\n      dup2\n        /* \"#utility.yul\":7828:7839   */\n      gt\n        /* \"#utility.yul\":7825:7862   */\n      iszero\n      tag_500\n      jumpi\n        /* \"#utility.yul\":7842:7860   */\n      tag_501\n      tag_380\n      jump\t// in\n    tag_501:\n        /* \"#utility.yul\":7825:7862   */\n    tag_500:\n        /* \"#utility.yul\":7675:7869   */\n      swap3\n      swap2\n      pop\n      pop\n      jump\t// out\n        /* \"#utility.yul\":7875:8055   */\n    tag_384:\n        /* \"#utility.yul\":7923:8000   */\n      0x4e487b7100000000000000000000000000000000000000000000000000000000\n        /* \"#utility.yul\":7920:7921   */\n      0x00\n        /* \"#utility.yul\":7913:8001   */\n      mstore\n        /* \"#utility.yul\":8020:8024   */\n      0x12\n        /* \"#utility.yul\":8017:8018   */\n      0x04\n        /* \"#utility.yul\":8010:8025   */\n      mstore\n        /* \"#utility.yul\":8044:8048   */\n      0x24\n        /* \"#utility.yul\":8041:8042   */\n      0x00\n        /* \"#utility.yul\":8034:8049   */\n      revert\n        /* \"#utility.yul\":8061:8246   */\n    tag_108:\n        /* \"#utility.yul\":8101:8102   */\n      0x00\n        /* \"#utility.yul\":8118:8138   */\n      tag_504\n        /* \"#utility.yul\":8136:8137   */\n      dup3\n        /* \"#utility.yul\":8118:8138   */\n      tag_373\n      jump\t// in\n    tag_504:\n        /* \"#utility.yul\":8113:8138   */\n      swap2\n      pop\n        /* \"#utility.yul\":8152:8172   */\n      tag_505\n        /* \"#utility.yul\":8170:8171   */\n      dup4\n        /* \"#utility.yul\":8152:8172   */\n      tag_373\n      jump\t// in\n    tag_505:\n        /* \"#utility.yul\":8147:8172   */\n      swap3\n      pop\n        /* \"#utility.yul\":8191:8192   */\n      dup3\n        /* \"#utility.yul\":8181:8216   */\n      tag_506\n      jumpi\n        /* \"#utility.yul\":8196:8214   */\n      tag_507\n      tag_384\n      jump\t// in\n    tag_507:\n        /* \"#utility.yul\":8181:8216   */\n    tag_506:\n        /* \"#utility.yul\":8238:8239   */\n      dup3\n        /* \"#utility.yul\":8235:8236   */\n      dup3\n        /* \"#utility.yul\":8231:8240   */\n      div\n        /* \"#utility.yul\":8226:8240   */\n      swap1\n      pop\n        /* \"#utility.yul\":8061:8246   */\n      swap3\n      swap2\n      pop\n      pop\n      jump\t// out\n        /* \"#utility.yul\":8252:8584   */\n    tag_114:\n        /* \"#utility.yul\":8373:8377   */\n      0x00\n        /* \"#utility.yul\":8411:8413   */\n      0x40\n        /* \"#utility.yul\":8400:8409   */\n      dup3\n        /* \"#utility.yul\":8396:8414   */\n      add\n        /* \"#utility.yul\":8388:8414   */\n      swap1\n      pop\n        /* \"#utility.yul\":8424:8495   */\n      tag_509\n        /* \"#utility.yul\":8492:8493   */\n      0x00\n        /* \"#utility.yul\":8481:8490   */\n      dup4\n        /* \"#utility.yul\":8477:8494   */\n      add\n        /* \"#utility.yul\":8468:8474   */\n      dup6\n        /* \"#utility.yul\":8424:8495   */\n      tag_377\n      jump\t// in\n    tag_509:\n        /* \"#utility.yul\":8505:8577   */\n      tag_510\n        /* \"#utility.yul\":8573:8575   */\n      0x20\n        /* \"#utility.yul\":8562:8571   */\n      dup4\n        /* \"#utility.yul\":8558:8576   */\n      add\n        /* \"#utility.yul\":8549:8555   */\n      dup5\n        /* \"#utility.yul\":8505:8577   */\n      tag_374\n      jump\t// in\n    tag_510:\n        /* \"#utility.yul\":8252:8584   */\n      swap4\n      swap3\n      pop\n      pop\n      pop\n      jump\t// out\n        /* \"#utility.yul\":8590:8706   */\n    tag_385:\n        /* \"#utility.yul\":8660:8681   */\n      tag_512\n        /* \"#utility.yul\":8675:8680   */\n      dup2\n        /* \"#utility.yul\":8660:8681   */\n      tag_378\n      jump\t// in\n    tag_512:\n        /* \"#utility.yul\":8653:8658   */\n      dup2\n        /* \"#utility.yul\":8650:8682   */\n      eq\n        /* \"#utility.yul\":8640:8700   */\n      tag_513\n      jumpi\n        /* \"#utility.yul\":8696:8697   */\n      0x00\n        /* \"#utility.yul\":8693:8694   */\n      dup1\n        /* \"#utility.yul\":8686:8698   */\n      revert\n        /* \"#utility.yul\":8640:8700   */\n    tag_513:\n        /* \"#utility.yul\":8590:8706   */\n      pop\n      jump\t// out\n        /* \"#utility.yul\":8712:8849   */\n    tag_386:\n        /* \"#utility.yul\":8766:8771   */\n      0x00\n        /* \"#utility.yul\":8797:8803   */\n      dup2\n        /* \"#utility.yul\":8791:8804   */\n      mload\n        /* \"#utility.yul\":8782:8804   */\n      swap1\n      pop\n        /* \"#utility.yul\":8813:8843   */\n      tag_515\n        /* \"#utility.yul\":8837:8842   */\n      dup2\n        /* \"#utility.yul\":8813:8843   */\n      tag_385\n      jump\t// in\n    tag_515:\n        /* \"#utility.yul\":8712:8849   */\n      swap3\n      swap2\n      pop\n      pop\n      jump\t// out\n        /* \"#utility.yul\":8855:9200   */\n    tag_118:\n        /* \"#utility.yul\":8922:8928   */\n      0x00\n        /* \"#utility.yul\":8971:8973   */\n      0x20\n        /* \"#utility.yul\":8959:8968   */\n      dup3\n        /* \"#utility.yul\":8950:8957   */\n      dup5\n        /* \"#utility.yul\":8946:8969   */\n      sub\n        /* \"#utility.yul\":8942:8974   */\n      slt\n        /* \"#utility.yul\":8939:9058   */\n      iszero\n      tag_517\n      jumpi\n        /* \"#utility.yul\":8977:9056   */\n      tag_518\n      tag_367\n      jump\t// in\n    tag_518:\n        /* \"#utility.yul\":8939:9058   */\n    tag_517:\n        /* \"#utility.yul\":9097:9098   */\n      0x00\n        /* \"#utility.yul\":9122:9183   */\n      tag_519\n        /* \"#utility.yul\":9175:9182   */\n      dup5\n        /* \"#utility.yul\":9166:9172   */\n      dup3\n        /* \"#utility.yul\":9155:9164   */\n      dup6\n        /* \"#utility.yul\":9151:9173   */\n      add\n        /* \"#utility.yul\":9122:9183   */\n      tag_386\n      jump\t// in\n    tag_519:\n        /* \"#utility.yul\":9112:9183   */\n      swap2\n      pop\n        /* \"#utility.yul\":9068:9193   */\n      pop\n        /* \"#utility.yul\":8855:9200   */\n      swap3\n      swap2\n      pop\n      pop\n      jump\t// out\n        /* \"#utility.yul\":9206:9371   */\n    tag_387:\n        /* \"#utility.yul\":9346:9363   */\n      0x506c656173652057616974202121210000000000000000000000000000000000\n        /* \"#utility.yul\":9342:9343   */\n      0x00\n        /* \"#utility.yul\":9334:9340   */\n      dup3\n        /* \"#utility.yul\":9330:9344   */\n      add\n        /* \"#utility.yul\":9323:9364   */\n      mstore\n        /* \"#utility.yul\":9206:9371   */\n      pop\n      jump\t// out\n        /* \"#utility.yul\":9377:9743   */\n    tag_388:\n        /* \"#utility.yul\":9519:9522   */\n      0x00\n        /* \"#utility.yul\":9540:9607   */\n      tag_522\n        /* \"#utility.yul\":9604:9606   */\n      0x0f\n        /* \"#utility.yul\":9599:9602   */\n      dup4\n        /* \"#utility.yul\":9540:9607   */\n      tag_381\n      jump\t// in\n    tag_522:\n        /* \"#utility.yul\":9533:9607   */\n      swap2\n      pop\n        /* \"#utility.yul\":9616:9709   */\n      tag_523\n        /* \"#utility.yul\":9705:9708   */\n      dup3\n        /* \"#utility.yul\":9616:9709   */\n      tag_387\n      jump\t// in\n    tag_523:\n        /* \"#utility.yul\":9734:9736   */\n      0x20\n        /* \"#utility.yul\":9729:9732   */\n      dup3\n        /* \"#utility.yul\":9725:9737   */\n      add\n        /* \"#utility.yul\":9718:9737   */\n      swap1\n      pop\n        /* \"#utility.yul\":9377:9743   */\n      swap2\n      swap1\n      pop\n      jump\t// out\n        /* \"#utility.yul\":9749:10168   */\n    tag_122:\n        /* \"#utility.yul\":9915:9919   */\n      0x00\n        /* \"#utility.yul\":9953:9955   */\n      0x20\n        /* \"#utility.yul\":9942:9951   */\n      dup3\n        /* \"#utility.yul\":9938:9956   */\n      add\n        /* \"#utility.yul\":9930:9956   */\n      swap1\n      pop\n        /* \"#utility.yul\":10002:10011   */\n      dup2\n        /* \"#utility.yul\":9996:10000   */\n      dup2\n        /* \"#utility.yul\":9992:10012   */\n      sub\n        /* \"#utility.yul\":9988:9989   */\n      0x00\n        /* \"#utility.yul\":9977:9986   */\n      dup4\n        /* \"#utility.yul\":9973:9990   */\n      add\n        /* \"#utility.yul\":9966:10013   */\n      mstore\n        /* \"#utility.yul\":10030:10161   */\n      tag_525\n        /* \"#utility.yul\":10156:10160   */\n      dup2\n        /* \"#utility.yul\":10030:10161   */\n      tag_388\n      jump\t// in\n    tag_525:\n        /* \"#utility.yul\":10022:10161   */\n      swap1\n      pop\n        /* \"#utility.yul\":9749:10168   */\n      swap2\n      swap1\n      pop\n      jump\t// out\n        /* \"#utility.yul\":10174:10350   */\n    tag_389:\n        /* \"#utility.yul\":10314:10342   */\n      0x596f75722054696d6520506572696f6420436f6d706c6574652e000000000000\n        /* \"#utility.yul\":10310:10311   */\n      0x00\n        /* \"#utility.yul\":10302:10308   */\n      dup3\n        /* \"#utility.yul\":10298:10312   */\n      add\n        /* \"#utility.yul\":10291:10343   */\n      mstore\n        /* \"#utility.yul\":10174:10350   */\n      pop\n      jump\t// out\n        /* \"#utility.yul\":10356:10722   */\n    tag_390:\n        /* \"#utility.yul\":10498:10501   */\n      0x00\n        /* \"#utility.yul\":10519:10586   */\n      tag_528\n        /* \"#utility.yul\":10583:10585   */\n      0x1a\n        /* \"#utility.yul\":10578:10581   */\n      dup4\n        /* \"#utility.yul\":10519:10586   */\n      tag_381\n      jump\t// in\n    tag_528:\n        /* \"#utility.yul\":10512:10586   */\n      swap2\n      pop\n        /* \"#utility.yul\":10595:10688   */\n      tag_529\n        /* \"#utility.yul\":10684:10687   */\n      dup3\n        /* \"#utility.yul\":10595:10688   */\n      tag_389\n      jump\t// in\n    tag_529:\n        /* \"#utility.yul\":10713:10715   */\n      0x20\n        /* \"#utility.yul\":10708:10711   */\n      dup3\n        /* \"#utility.yul\":10704:10716   */\n      add\n        /* \"#utility.yul\":10697:10716   */\n      swap1\n      pop\n        /* \"#utility.yul\":10356:10722   */\n      swap2\n      swap1\n      pop\n      jump\t// out\n        /* \"#utility.yul\":10728:11147   */\n    tag_132:\n        /* \"#utility.yul\":10894:10898   */\n      0x00\n        /* \"#utility.yul\":10932:10934   */\n      0x20\n        /* \"#utility.yul\":10921:10930   */\n      dup3\n        /* \"#utility.yul\":10917:10935   */\n      add\n        /* \"#utility.yul\":10909:10935   */\n      swap1\n      pop\n        /* \"#utility.yul\":10981:10990   */\n      dup2\n        /* \"#utility.yul\":10975:10979   */\n      dup2\n        /* \"#utility.yul\":10971:10991   */\n      sub\n        /* \"#utility.yul\":10967:10968   */\n      0x00\n        /* \"#utility.yul\":10956:10965   */\n      dup4\n        /* \"#utility.yul\":10952:10969   */\n      add\n        /* \"#utility.yul\":10945:10992   */\n      mstore\n        /* \"#utility.yul\":11009:11140   */\n      tag_531\n        /* \"#utility.yul\":11135:11139   */\n      dup2\n        /* \"#utility.yul\":11009:11140   */\n      tag_390\n      jump\t// in\n    tag_531:\n        /* \"#utility.yul\":11001:11140   */\n      swap1\n      pop\n        /* \"#utility.yul\":10728:11147   */\n      swap2\n      swap1\n      pop\n      jump\t// out\n        /* \"#utility.yul\":11153:11325   */\n    tag_391:\n        /* \"#utility.yul\":11293:11317   */\n      0x456e746572205269676874205374616b654d6f6e746800000000000000000000\n        /* \"#utility.yul\":11289:11290   */\n      0x00\n        /* \"#utility.yul\":11281:11287   */\n      dup3\n        /* \"#utility.yul\":11277:11291   */\n      add\n        /* \"#utility.yul\":11270:11318   */\n      mstore\n        /* \"#utility.yul\":11153:11325   */\n      pop\n      jump\t// out\n        /* \"#utility.yul\":11331:11697   */\n    tag_392:\n        /* \"#utility.yul\":11473:11476   */\n      0x00\n        /* \"#utility.yul\":11494:11561   */\n      tag_534\n        /* \"#utility.yul\":11558:11560   */\n      0x16\n        /* \"#utility.yul\":11553:11556   */\n      dup4\n        /* \"#utility.yul\":11494:11561   */\n      tag_381\n      jump\t// in\n    tag_534:\n        /* \"#utility.yul\":11487:11561   */\n      swap2\n      pop\n        /* \"#utility.yul\":11570:11663   */\n      tag_535\n        /* \"#utility.yul\":11659:11662   */\n      dup3\n        /* \"#utility.yul\":11570:11663   */\n      tag_391\n      jump\t// in\n    tag_535:\n        /* \"#utility.yul\":11688:11690   */\n      0x20\n        /* \"#utility.yul\":11683:11686   */\n      dup3\n        /* \"#utility.yul\":11679:11691   */\n      add\n        /* \"#utility.yul\":11672:11691   */\n      swap1\n      pop\n        /* \"#utility.yul\":11331:11697   */\n      swap2\n      swap1\n      pop\n      jump\t// out\n        /* \"#utility.yul\":11703:12122   */\n    tag_135:\n        /* \"#utility.yul\":11869:11873   */\n      0x00\n        /* \"#utility.yul\":11907:11909   */\n      0x20\n        /* \"#utility.yul\":11896:11905   */\n      dup3\n        /* \"#utility.yul\":11892:11910   */\n      add\n        /* \"#utility.yul\":11884:11910   */\n      swap1\n      pop\n        /* \"#utility.yul\":11956:11965   */\n      dup2\n        /* \"#utility.yul\":11950:11954   */\n      dup2\n        /* \"#utility.yul\":11946:11966   */\n      sub\n        /* \"#utility.yul\":11942:11943   */\n      0x00\n        /* \"#utility.yul\":11931:11940   */\n      dup4\n        /* \"#utility.yul\":11927:11944   */\n      add\n        /* \"#utility.yul\":11920:11967   */\n      mstore\n        /* \"#utility.yul\":11984:12115   */\n      tag_537\n        /* \"#utility.yul\":12110:12114   */\n      dup2\n        /* \"#utility.yul\":11984:12115   */\n      tag_392\n      jump\t// in\n    tag_537:\n        /* \"#utility.yul\":11976:12115   */\n      swap1\n      pop\n        /* \"#utility.yul\":11703:12122   */\n      swap2\n      swap1\n      pop\n      jump\t// out\n        /* \"#utility.yul\":12128:12304   */\n    tag_393:\n        /* \"#utility.yul\":12268:12296   */\n      0x456e746572205269676874204561726e50657273656e74616765000000000000\n        /* \"#utility.yul\":12264:12265   */\n      0x00\n        /* \"#utility.yul\":12256:12262   */\n      dup3\n        /* \"#utility.yul\":12252:12266   */\n      add\n        /* \"#utility.yul\":12245:12297   */\n      mstore\n        /* \"#utility.yul\":12128:12304   */\n      pop\n      jump\t// out\n        /* \"#utility.yul\":12310:12676   */\n    tag_394:\n        /* \"#utility.yul\":12452:12455   */\n      0x00\n        /* \"#utility.yul\":12473:12540   */\n      tag_540\n        /* \"#utility.yul\":12537:12539   */\n      0x1a\n        /* \"#utility.yul\":12532:12535   */\n      dup4\n        /* \"#utility.yul\":12473:12540   */\n      tag_381\n      jump\t// in\n    tag_540:\n        /* \"#utility.yul\":12466:12540   */\n      swap2\n      pop\n        /* \"#utility.yul\":12549:12642   */\n      tag_541\n        /* \"#utility.yul\":12638:12641   */\n      dup3\n        /* \"#utility.yul\":12549:12642   */\n      tag_393\n      jump\t// in\n    tag_541:\n        /* \"#utility.yul\":12667:12669   */\n      0x20\n        /* \"#utility.yul\":12662:12665   */\n      dup3\n        /* \"#utility.yul\":12658:12670   */\n      add\n        /* \"#utility.yul\":12651:12670   */\n      swap1\n      pop\n        /* \"#utility.yul\":12310:12676   */\n      swap2\n      swap1\n      pop\n      jump\t// out\n        /* \"#utility.yul\":12682:13101   */\n    tag_138:\n        /* \"#utility.yul\":12848:12852   */\n      0x00\n        /* \"#utility.yul\":12886:12888   */\n      0x20\n        /* \"#utility.yul\":12875:12884   */\n      dup3\n        /* \"#utility.yul\":12871:12889   */\n      add\n        /* \"#utility.yul\":12863:12889   */\n      swap1\n      pop\n        /* \"#utility.yul\":12935:12944   */\n      dup2\n        /* \"#utility.yul\":12929:12933   */\n      dup2\n        /* \"#utility.yul\":12925:12945   */\n      sub\n        /* \"#utility.yul\":12921:12922   */\n      0x00\n        /* \"#utility.yul\":12910:12919   */\n      dup4\n        /* \"#utility.yul\":12906:12923   */\n      add\n        /* \"#utility.yul\":12899:12946   */\n      mstore\n        /* \"#utility.yul\":12963:13094   */\n      tag_543\n        /* \"#utility.yul\":13089:13093   */\n      dup2\n        /* \"#utility.yul\":12963:13094   */\n      tag_394\n      jump\t// in\n    tag_543:\n        /* \"#utility.yul\":12955:13094   */\n      swap1\n      pop\n        /* \"#utility.yul\":12682:13101   */\n      swap2\n      swap1\n      pop\n      jump\t// out\n        /* \"#utility.yul\":13107:13275   */\n    tag_395:\n        /* \"#utility.yul\":13247:13267   */\n      0x4669727374205374616b6520546f6b656e730000000000000000000000000000\n        /* \"#utility.yul\":13243:13244   */\n      0x00\n        /* \"#utility.yul\":13235:13241   */\n      dup3\n        /* \"#utility.yul\":13231:13245   */\n      add\n        /* \"#utility.yul\":13224:13268   */\n      mstore\n        /* \"#utility.yul\":13107:13275   */\n      pop\n      jump\t// out\n        /* \"#utility.yul\":13281:13647   */\n    tag_396:\n        /* \"#utility.yul\":13423:13426   */\n      0x00\n        /* \"#utility.yul\":13444:13511   */\n      tag_546\n        /* \"#utility.yul\":13508:13510   */\n      0x12\n        /* \"#utility.yul\":13503:13506   */\n      dup4\n        /* \"#utility.yul\":13444:13511   */\n      tag_381\n      jump\t// in\n    tag_546:\n        /* \"#utility.yul\":13437:13511   */\n      swap2\n      pop\n        /* \"#utility.yul\":13520:13613   */\n      tag_547\n        /* \"#utility.yul\":13609:13612   */\n      dup3\n        /* \"#utility.yul\":13520:13613   */\n      tag_395\n      jump\t// in\n    tag_547:\n        /* \"#utility.yul\":13638:13640   */\n      0x20\n        /* \"#utility.yul\":13633:13636   */\n      dup3\n        /* \"#utility.yul\":13629:13641   */\n      add\n        /* \"#utility.yul\":13622:13641   */\n      swap1\n      pop\n        /* \"#utility.yul\":13281:13647   */\n      swap2\n      swap1\n      pop\n      jump\t// out\n        /* \"#utility.yul\":13653:14072   */\n    tag_189:\n        /* \"#utility.yul\":13819:13823   */\n      0x00\n        /* \"#utility.yul\":13857:13859   */\n      0x20\n        /* \"#utility.yul\":13846:13855   */\n      dup3\n        /* \"#utility.yul\":13842:13860   */\n      add\n        /* \"#utility.yul\":13834:13860   */\n      swap1\n      pop\n        /* \"#utility.yul\":13906:13915   */\n      dup2\n        /* \"#utility.yul\":13900:13904   */\n      dup2\n        /* \"#utility.yul\":13896:13916   */\n      sub\n        /* \"#utility.yul\":13892:13893   */\n      0x00\n        /* \"#utility.yul\":13881:13890   */\n      dup4\n        /* \"#utility.yul\":13877:13894   */\n      add\n        /* \"#utility.yul\":13870:13917   */\n      mstore\n        /* \"#utility.yul\":13934:14065   */\n      tag_549\n        /* \"#utility.yul\":14060:14064   */\n      dup2\n        /* \"#utility.yul\":13934:14065   */\n      tag_396\n      jump\t// in\n    tag_549:\n        /* \"#utility.yul\":13926:14065   */\n      swap1\n      pop\n        /* \"#utility.yul\":13653:14072   */\n      swap2\n      swap1\n      pop\n      jump\t// out\n        /* \"#utility.yul\":14078:14303   */\n    tag_397:\n        /* \"#utility.yul\":14218:14252   */\n      0x4f776e61626c653a206e6577206f776e657220697320746865207a65726f2061\n        /* \"#utility.yul\":14214:14215   */\n      0x00\n        /* \"#utility.yul\":14206:14212   */\n      dup3\n        /* \"#utility.yul\":14202:14216   */\n      add\n        /* \"#utility.yul\":14195:14253   */\n      mstore\n        /* \"#utility.yul\":14287:14295   */\n      0x6464726573730000000000000000000000000000000000000000000000000000\n        /* \"#utility.yul\":14282:14284   */\n      0x20\n        /* \"#utility.yul\":14274:14280   */\n      dup3\n        /* \"#utility.yul\":14270:14285   */\n      add\n        /* \"#utility.yul\":14263:14296   */\n      mstore\n        /* \"#utility.yul\":14078:14303   */\n      pop\n      jump\t// out\n        /* \"#utility.yul\":14309:14675   */\n    tag_398:\n        /* \"#utility.yul\":14451:14454   */\n      0x00\n        /* \"#utility.yul\":14472:14539   */\n      tag_552\n        /* \"#utility.yul\":14536:14538   */\n      0x26\n        /* \"#utility.yul\":14531:14534   */\n      dup4\n        /* \"#utility.yul\":14472:14539   */\n      tag_381\n      jump\t// in\n    tag_552:\n        /* \"#utility.yul\":14465:14539   */\n      swap2\n      pop\n        /* \"#utility.yul\":14548:14641   */\n      tag_553\n        /* \"#utility.yul\":14637:14640   */\n      dup3\n        /* \"#utility.yul\":14548:14641   */\n      tag_397\n      jump\t// in\n    tag_553:\n        /* \"#utility.yul\":14666:14668   */\n      0x40\n        /* \"#utility.yul\":14661:14664   */\n      dup3\n        /* \"#utility.yul\":14657:14669   */\n      add\n        /* \"#utility.yul\":14650:14669   */\n      swap1\n      pop\n        /* \"#utility.yul\":14309:14675   */\n      swap2\n      swap1\n      pop\n      jump\t// out\n        /* \"#utility.yul\":14681:15100   */\n    tag_311:\n        /* \"#utility.yul\":14847:14851   */\n      0x00\n        /* \"#utility.yul\":14885:14887   */\n      0x20\n        /* \"#utility.yul\":14874:14883   */\n      dup3\n        /* \"#utility.yul\":14870:14888   */\n      add\n        /* \"#utility.yul\":14862:14888   */\n      swap1\n      pop\n        /* \"#utility.yul\":14934:14943   */\n      dup2\n        /* \"#utility.yul\":14928:14932   */\n      dup2\n        /* \"#utility.yul\":14924:14944   */\n      sub\n        /* \"#utility.yul\":14920:14921   */\n      0x00\n        /* \"#utility.yul\":14909:14918   */\n      dup4\n        /* \"#utility.yul\":14905:14922   */\n      add\n        /* \"#utility.yul\":14898:14945   */\n      mstore\n        /* \"#utility.yul\":14962:15093   */\n      tag_555\n        /* \"#utility.yul\":15088:15092   */\n      dup2\n        /* \"#utility.yul\":14962:15093   */\n      tag_398\n      jump\t// in\n    tag_555:\n        /* \"#utility.yul\":14954:15093   */\n      swap1\n      pop\n        /* \"#utility.yul\":14681:15100   */\n      swap2\n      swap1\n      pop\n      jump\t// out\n        /* \"#utility.yul\":15106:15548   */\n    tag_316:\n        /* \"#utility.yul\":15255:15259   */\n      0x00\n        /* \"#utility.yul\":15293:15295   */\n      0x60\n        /* \"#utility.yul\":15282:15291   */\n      dup3\n        /* \"#utility.yul\":15278:15296   */\n      add\n        /* \"#utility.yul\":15270:15296   */\n      swap1\n      pop\n        /* \"#utility.yul\":15306:15377   */\n      tag_557\n        /* \"#utility.yul\":15374:15375   */\n      0x00\n        /* \"#utility.yul\":15363:15372   */\n      dup4\n        /* \"#utility.yul\":15359:15376   */\n      add\n        /* \"#utility.yul\":15350:15356   */\n      dup7\n        /* \"#utility.yul\":15306:15377   */\n      tag_377\n      jump\t// in\n    tag_557:\n        /* \"#utility.yul\":15387:15459   */\n      tag_558\n        /* \"#utility.yul\":15455:15457   */\n      0x20\n        /* \"#utility.yul\":15444:15453   */\n      dup4\n        /* \"#utility.yul\":15440:15458   */\n      add\n        /* \"#utility.yul\":15431:15437   */\n      dup6\n        /* \"#utility.yul\":15387:15459   */\n      tag_377\n      jump\t// in\n    tag_558:\n        /* \"#utility.yul\":15469:15541   */\n      tag_559\n        /* \"#utility.yul\":15537:15539   */\n      0x40\n        /* \"#utility.yul\":15526:15535   */\n      dup4\n        /* \"#utility.yul\":15522:15540   */\n      add\n        /* \"#utility.yul\":15513:15519   */\n      dup5\n        /* \"#utility.yul\":15469:15541   */\n      tag_374\n      jump\t// in\n    tag_559:\n        /* \"#utility.yul\":15106:15548   */\n      swap5\n      swap4\n      pop\n      pop\n      pop\n      pop\n      jump\t// out\n        /* \"#utility.yul\":15554:15736   */\n    tag_399:\n        /* \"#utility.yul\":15694:15728   */\n      0x4f776e61626c653a2063616c6c6572206973206e6f7420746865206f776e6572\n        /* \"#utility.yul\":15690:15691   */\n      0x00\n        /* \"#utility.yul\":15682:15688   */\n      dup3\n        /* \"#utility.yul\":15678:15692   */\n      add\n        /* \"#utility.yul\":15671:15729   */\n      mstore\n        /* \"#utility.yul\":15554:15736   */\n      pop\n      jump\t// out\n        /* \"#utility.yul\":15742:16108   */\n    tag_400:\n        /* \"#utility.yul\":15884:15887   */\n      0x00\n        /* \"#utility.yul\":15905:15972   */\n      tag_562\n        /* \"#utility.yul\":15969:15971   */\n      0x20\n        /* \"#utility.yul\":15964:15967   */\n      dup4\n        /* \"#utility.yul\":15905:15972   */\n      tag_381\n      jump\t// in\n    tag_562:\n        /* \"#utility.yul\":15898:15972   */\n      swap2\n      pop\n        /* \"#utility.yul\":15981:16074   */\n      tag_563\n        /* \"#utility.yul\":16070:16073   */\n      dup3\n        /* \"#utility.yul\":15981:16074   */\n      tag_399\n      jump\t// in\n    tag_563:\n        /* \"#utility.yul\":16099:16101   */\n      0x20\n        /* \"#utility.yul\":16094:16097   */\n      dup3\n        /* \"#utility.yul\":16090:16102   */\n      add\n        /* \"#utility.yul\":16083:16102   */\n      swap1\n      pop\n        /* \"#utility.yul\":15742:16108   */\n      swap2\n      swap1\n      pop\n      jump\t// out\n        /* \"#utility.yul\":16114:16533   */\n    tag_324:\n        /* \"#utility.yul\":16280:16284   */\n      0x00\n        /* \"#utility.yul\":16318:16320   */\n      0x20\n        /* \"#utility.yul\":16307:16316   */\n      dup3\n        /* \"#utility.yul\":16303:16321   */\n      add\n        /* \"#utility.yul\":16295:16321   */\n      swap1\n      pop\n        /* \"#utility.yul\":16367:16376   */\n      dup2\n        /* \"#utility.yul\":16361:16365   */\n      dup2\n        /* \"#utility.yul\":16357:16377   */\n      sub\n        /* \"#utility.yul\":16353:16354   */\n      0x00\n        /* \"#utility.yul\":16342:16351   */\n      dup4\n        /* \"#utility.yul\":16338:16355   */\n      add\n        /* \"#utility.yul\":16331:16378   */\n      mstore\n        /* \"#utility.yul\":16395:16526   */\n      tag_565\n        /* \"#utility.yul\":16521:16525   */\n      dup2\n        /* \"#utility.yul\":16395:16526   */\n      tag_400\n      jump\t// in\n    tag_565:\n        /* \"#utility.yul\":16387:16526   */\n      swap1\n      pop\n        /* \"#utility.yul\":16114:16533   */\n      swap2\n      swap1\n      pop\n      jump\t// out\n        /* \"#utility.yul\":16539:16768   */\n    tag_401:\n        /* \"#utility.yul\":16679:16713   */\n      0x5361666545524332303a204552433230206f7065726174696f6e20646964206e\n        /* \"#utility.yul\":16675:16676   */\n      0x00\n        /* \"#utility.yul\":16667:16673   */\n      dup3\n        /* \"#utility.yul\":16663:16677   */\n      add\n        /* \"#utility.yul\":16656:16714   */\n      mstore\n        /* \"#utility.yul\":16748:16760   */\n      0x6f74207375636365656400000000000000000000000000000000000000000000\n        /* \"#utility.yul\":16743:16745   */\n      0x20\n        /* \"#utility.yul\":16735:16741   */\n      dup3\n        /* \"#utility.yul\":16731:16746   */\n      add\n        /* \"#utility.yul\":16724:16761   */\n      mstore\n        /* \"#utility.yul\":16539:16768   */\n      pop\n      jump\t// out\n        /* \"#utility.yul\":16774:17140   */\n    tag_402:\n        /* \"#utility.yul\":16916:16919   */\n      0x00\n        /* \"#utility.yul\":16937:17004   */\n      tag_568\n        /* \"#utility.yul\":17001:17003   */\n      0x2a\n        /* \"#utility.yul\":16996:16999   */\n      dup4\n        /* \"#utility.yul\":16937:17004   */\n      tag_381\n      jump\t// in\n    tag_568:\n        /* \"#utility.yul\":16930:17004   */\n      swap2\n      pop\n        /* \"#utility.yul\":17013:17106   */\n      tag_569\n        /* \"#utility.yul\":17102:17105   */\n      dup3\n        /* \"#utility.yul\":17013:17106   */\n      tag_401\n      jump\t// in\n    tag_569:\n        /* \"#utility.yul\":17131:17133   */\n      0x40\n        /* \"#utility.yul\":17126:17129   */\n      dup3\n        /* \"#utility.yul\":17122:17134   */\n      add\n        /* \"#utility.yul\":17115:17134   */\n      swap1\n      pop\n        /* \"#utility.yul\":16774:17140   */\n      swap2\n      swap1\n      pop\n      jump\t// out\n        /* \"#utility.yul\":17146:17565   */\n    tag_333:\n        /* \"#utility.yul\":17312:17316   */\n      0x00\n        /* \"#utility.yul\":17350:17352   */\n      0x20\n        /* \"#utility.yul\":17339:17348   */\n      dup3\n        /* \"#utility.yul\":17335:17353   */\n      add\n        /* \"#utility.yul\":17327:17353   */\n      swap1\n      pop\n        /* \"#utility.yul\":17399:17408   */\n      dup2\n        /* \"#utility.yul\":17393:17397   */\n      dup2\n        /* \"#utility.yul\":17389:17409   */\n      sub\n        /* \"#utility.yul\":17385:17386   */\n      0x00\n        /* \"#utility.yul\":17374:17383   */\n      dup4\n        /* \"#utility.yul\":17370:17387   */\n      add\n        /* \"#utility.yul\":17363:17410   */\n      mstore\n        /* \"#utility.yul\":17427:17558   */\n      tag_571\n        /* \"#utility.yul\":17553:17557   */\n      dup2\n        /* \"#utility.yul\":17427:17558   */\n      tag_402\n      jump\t// in\n    tag_571:\n        /* \"#utility.yul\":17419:17558   */\n      swap1\n      pop\n        /* \"#utility.yul\":17146:17565   */\n      swap2\n      swap1\n      pop\n      jump\t// out\n        /* \"#utility.yul\":17571:17796   */\n    tag_403:\n        /* \"#utility.yul\":17711:17745   */\n      0x416464726573733a20696e73756666696369656e742062616c616e636520666f\n        /* \"#utility.yul\":17707:17708   */\n      0x00\n        /* \"#utility.yul\":17699:17705   */\n      dup3\n        /* \"#utility.yul\":17695:17709   */\n      add\n        /* \"#utility.yul\":17688:17746   */\n      mstore\n        /* \"#utility.yul\":17780:17788   */\n      0x722063616c6c0000000000000000000000000000000000000000000000000000\n        /* \"#utility.yul\":17775:17777   */\n      0x20\n        /* \"#utility.yul\":17767:17773   */\n      dup3\n        /* \"#utility.yul\":17763:17778   */\n      add\n        /* \"#utility.yul\":17756:17789   */\n      mstore\n        /* \"#utility.yul\":17571:17796   */\n      pop\n      jump\t// out\n        /* \"#utility.yul\":17802:18168   */\n    tag_404:\n        /* \"#utility.yul\":17944:17947   */\n      0x00\n        /* \"#utility.yul\":17965:18032   */\n      tag_574\n        /* \"#utility.yul\":18029:18031   */\n      0x26\n        /* \"#utility.yul\":18024:18027   */\n      dup4\n        /* \"#utility.yul\":17965:18032   */\n      tag_381\n      jump\t// in\n    tag_574:\n        /* \"#utility.yul\":17958:18032   */\n      swap2\n      pop\n        /* \"#utility.yul\":18041:18134   */\n      tag_575\n        /* \"#utility.yul\":18130:18133   */\n      dup3\n        /* \"#utility.yul\":18041:18134   */\n      tag_403\n      jump\t// in\n    tag_575:\n        /* \"#utility.yul\":18159:18161   */\n      0x40\n        /* \"#utility.yul\":18154:18157   */\n      dup3\n        /* \"#utility.yul\":18150:18162   */\n      add\n        /* \"#utility.yul\":18143:18162   */\n      swap1\n      pop\n        /* \"#utility.yul\":17802:18168   */\n      swap2\n      swap1\n      pop\n      jump\t// out\n        /* \"#utility.yul\":18174:18593   */\n    tag_341:\n        /* \"#utility.yul\":18340:18344   */\n      0x00\n        /* \"#utility.yul\":18378:18380   */\n      0x20\n        /* \"#utility.yul\":18367:18376   */\n      dup3\n        /* \"#utility.yul\":18363:18381   */\n      add\n        /* \"#utility.yul\":18355:18381   */\n      swap1\n      pop\n        /* \"#utility.yul\":18427:18436   */\n      dup2\n        /* \"#utility.yul\":18421:18425   */\n      dup2\n        /* \"#utility.yul\":18417:18437   */\n      sub\n        /* \"#utility.yul\":18413:18414   */\n      0x00\n        /* \"#utility.yul\":18402:18411   */\n      dup4\n        /* \"#utility.yul\":18398:18415   */\n      add\n        /* \"#utility.yul\":18391:18438   */\n      mstore\n        /* \"#utility.yul\":18455:18586   */\n      tag_577\n        /* \"#utility.yul\":18581:18585   */\n      dup2\n        /* \"#utility.yul\":18455:18586   */\n      tag_404\n      jump\t// in\n    tag_577:\n        /* \"#utility.yul\":18447:18586   */\n      swap1\n      pop\n        /* \"#utility.yul\":18174:18593   */\n      swap2\n      swap1\n      pop\n      jump\t// out\n        /* \"#utility.yul\":18599:18697   */\n    tag_405:\n        /* \"#utility.yul\":18650:18656   */\n      0x00\n        /* \"#utility.yul\":18684:18689   */\n      dup2\n        /* \"#utility.yul\":18678:18690   */\n      mload\n        /* \"#utility.yul\":18668:18690   */\n      swap1\n      pop\n        /* \"#utility.yul\":18599:18697   */\n      swap2\n      swap1\n      pop\n      jump\t// out\n        /* \"#utility.yul\":18703:18850   */\n    tag_406:\n        /* \"#utility.yul\":18804:18815   */\n      0x00\n        /* \"#utility.yul\":18841:18844   */\n      dup2\n        /* \"#utility.yul\":18826:18844   */\n      swap1\n      pop\n        /* \"#utility.yul\":18703:18850   */\n      swap3\n      swap2\n      pop\n      pop\n      jump\t// out\n        /* \"#utility.yul\":18856:19102   */\n    tag_407:\n        /* \"#utility.yul\":18937:18938   */\n      0x00\n        /* \"#utility.yul\":18947:19060   */\n    tag_581:\n        /* \"#utility.yul\":18961:18967   */\n      dup4\n        /* \"#utility.yul\":18958:18959   */\n      dup2\n        /* \"#utility.yul\":18955:18968   */\n      lt\n        /* \"#utility.yul\":18947:19060   */\n      iszero\n      tag_583\n      jumpi\n        /* \"#utility.yul\":19046:19047   */\n      dup1\n        /* \"#utility.yul\":19041:19044   */\n      dup3\n        /* \"#utility.yul\":19037:19048   */\n      add\n        /* \"#utility.yul\":19031:19049   */\n      mload\n        /* \"#utility.yul\":19027:19028   */\n      dup2\n        /* \"#utility.yul\":19022:19025   */\n      dup5\n        /* \"#utility.yul\":19018:19029   */\n      add\n        /* \"#utility.yul\":19011:19050   */\n      mstore\n        /* \"#utility.yul\":18983:18985   */\n      0x20\n        /* \"#utility.yul\":18980:18981   */\n      dup2\n        /* \"#utility.yul\":18976:18986   */\n      add\n        /* \"#utility.yul\":18971:18986   */\n      swap1\n      pop\n        /* \"#utility.yul\":18947:19060   */\n      jump(tag_581)\n    tag_583:\n        /* \"#utility.yul\":19094:19095   */\n      0x00\n        /* \"#utility.yul\":19085:19091   */\n      dup5\n        /* \"#utility.yul\":19080:19083   */\n      dup5\n        /* \"#utility.yul\":19076:19092   */\n      add\n        /* \"#utility.yul\":19069:19096   */\n      mstore\n        /* \"#utility.yul\":18918:19102   */\n      pop\n        /* \"#utility.yul\":18856:19102   */\n      pop\n      pop\n      pop\n      jump\t// out\n        /* \"#utility.yul\":19108:19494   */\n    tag_408:\n        /* \"#utility.yul\":19212:19215   */\n      0x00\n        /* \"#utility.yul\":19240:19278   */\n      tag_585\n        /* \"#utility.yul\":19272:19277   */\n      dup3\n        /* \"#utility.yul\":19240:19278   */\n      tag_405\n      jump\t// in\n    tag_585:\n        /* \"#utility.yul\":19294:19382   */\n      tag_586\n        /* \"#utility.yul\":19375:19381   */\n      dup2\n        /* \"#utility.yul\":19370:19373   */\n      dup6\n        /* \"#utility.yul\":19294:19382   */\n      tag_406\n      jump\t// in\n    tag_586:\n        /* \"#utility.yul\":19287:19382   */\n      swap4\n      pop\n        /* \"#utility.yul\":19391:19456   */\n      tag_587\n        /* \"#utility.yul\":19449:19455   */\n      dup2\n        /* \"#utility.yul\":19444:19447   */\n      dup6\n        /* \"#utility.yul\":19437:19441   */\n      0x20\n        /* \"#utility.yul\":19430:19435   */\n      dup7\n        /* \"#utility.yul\":19426:19442   */\n      add\n        /* \"#utility.yul\":19391:19456   */\n      tag_407\n      jump\t// in\n    tag_587:\n        /* \"#utility.yul\":19481:19487   */\n      dup1\n        /* \"#utility.yul\":19476:19479   */\n      dup5\n        /* \"#utility.yul\":19472:19488   */\n      add\n        /* \"#utility.yul\":19465:19488   */\n      swap2\n      pop\n        /* \"#utility.yul\":19216:19494   */\n      pop\n        /* \"#utility.yul\":19108:19494   */\n      swap3\n      swap2\n      pop\n      pop\n      jump\t// out\n        /* \"#utility.yul\":19500:19771   */\n    tag_343:\n        /* \"#utility.yul\":19630:19633   */\n      0x00\n        /* \"#utility.yul\":19652:19745   */\n      tag_589\n        /* \"#utility.yul\":19741:19744   */\n      dup3\n        /* \"#utility.yul\":19732:19738   */\n      dup5\n        /* \"#utility.yul\":19652:19745   */\n      tag_408\n      jump\t// in\n    tag_589:\n        /* \"#utility.yul\":19645:19745   */\n      swap2\n      pop\n        /* \"#utility.yul\":19762:19765   */\n      dup2\n        /* \"#utility.yul\":19755:19765   */\n      swap1\n      pop\n        /* \"#utility.yul\":19500:19771   */\n      swap3\n      swap2\n      pop\n      pop\n      jump\t// out\n        /* \"#utility.yul\":19777:19956   */\n    tag_409:\n        /* \"#utility.yul\":19917:19948   */\n      0x416464726573733a2063616c6c20746f206e6f6e2d636f6e7472616374000000\n        /* \"#utility.yul\":19913:19914   */\n      0x00\n        /* \"#utility.yul\":19905:19911   */\n      dup3\n        /* \"#utility.yul\":19901:19915   */\n      add\n        /* \"#utility.yul\":19894:19949   */\n      mstore\n        /* \"#utility.yul\":19777:19956   */\n      pop\n      jump\t// out\n        /* \"#utility.yul\":19962:20328   */\n    tag_410:\n        /* \"#utility.yul\":20104:20107   */\n      0x00\n        /* \"#utility.yul\":20125:20192   */\n      tag_592\n        /* \"#utility.yul\":20189:20191   */\n      0x1d\n        /* \"#utility.yul\":20184:20187   */\n      dup4\n        /* \"#utility.yul\":20125:20192   */\n      tag_381\n      jump\t// in\n    tag_592:\n        /* \"#utility.yul\":20118:20192   */\n      swap2\n      pop\n        /* \"#utility.yul\":20201:20294   */\n      tag_593\n        /* \"#utility.yul\":20290:20293   */\n      dup3\n        /* \"#utility.yul\":20201:20294   */\n      tag_409\n      jump\t// in\n    tag_593:\n        /* \"#utility.yul\":20319:20321   */\n      0x20\n        /* \"#utility.yul\":20314:20317   */\n      dup3\n        /* \"#utility.yul\":20310:20322   */\n      add\n        /* \"#utility.yul\":20303:20322   */\n      swap1\n      pop\n        /* \"#utility.yul\":19962:20328   */\n      swap2\n      swap1\n      pop\n      jump\t// out\n        /* \"#utility.yul\":20334:20753   */\n    tag_356:\n        /* \"#utility.yul\":20500:20504   */\n      0x00\n        /* \"#utility.yul\":20538:20540   */\n      0x20\n        /* \"#utility.yul\":20527:20536   */\n      dup3\n        /* \"#utility.yul\":20523:20541   */\n      add\n        /* \"#utility.yul\":20515:20541   */\n      swap1\n      pop\n        /* \"#utility.yul\":20587:20596   */\n      dup2\n        /* \"#utility.yul\":20581:20585   */\n      dup2\n        /* \"#utility.yul\":20577:20597   */\n      sub\n        /* \"#utility.yul\":20573:20574   */\n      0x00\n        /* \"#utility.yul\":20562:20571   */\n      dup4\n        /* \"#utility.yul\":20558:20575   */\n      add\n        /* \"#utility.yul\":20551:20598   */\n      mstore\n        /* \"#utility.yul\":20615:20746   */\n      tag_595\n        /* \"#utility.yul\":20741:20745   */\n      dup2\n        /* \"#utility.yul\":20615:20746   */\n      tag_410\n      jump\t// in\n    tag_595:\n        /* \"#utility.yul\":20607:20746   */\n      swap1\n      pop\n        /* \"#utility.yul\":20334:20753   */\n      swap2\n      swap1\n      pop\n      jump\t// out\n        /* \"#utility.yul\":20759:20858   */\n    tag_411:\n        /* \"#utility.yul\":20811:20817   */\n      0x00\n        /* \"#utility.yul\":20845:20850   */\n      dup2\n        /* \"#utility.yul\":20839:20851   */\n      mload\n        /* \"#utility.yul\":20829:20851   */\n      swap1\n      pop\n        /* \"#utility.yul\":20759:20858   */\n      swap2\n      swap1\n      pop\n      jump\t// out\n        /* \"#utility.yul\":20864:20966   */\n    tag_412:\n        /* \"#utility.yul\":20905:20911   */\n      0x00\n        /* \"#utility.yul\":20956:20958   */\n      0x1f\n        /* \"#utility.yul\":20952:20959   */\n      not\n        /* \"#utility.yul\":20947:20949   */\n      0x1f\n        /* \"#utility.yul\":20940:20945   */\n      dup4\n        /* \"#utility.yul\":20936:20950   */\n      add\n        /* \"#utility.yul\":20932:20960   */\n      and\n        /* \"#utility.yul\":20922:20960   */\n      swap1\n      pop\n        /* \"#utility.yul\":20864:20966   */\n      swap2\n      swap1\n      pop\n      jump\t// out\n        /* \"#utility.yul\":20972:21349   */\n    tag_413:\n        /* \"#utility.yul\":21060:21063   */\n      0x00\n        /* \"#utility.yul\":21088:21127   */\n      tag_599\n        /* \"#utility.yul\":21121:21126   */\n      dup3\n        /* \"#utility.yul\":21088:21127   */\n      tag_411\n      jump\t// in\n    tag_599:\n        /* \"#utility.yul\":21143:21214   */\n      tag_600\n        /* \"#utility.yul\":21207:21213   */\n      dup2\n        /* \"#utility.yul\":21202:21205   */\n      dup6\n        /* \"#utility.yul\":21143:21214   */\n      tag_381\n      jump\t// in\n    tag_600:\n        /* \"#utility.yul\":21136:21214   */\n      swap4\n      pop\n        /* \"#utility.yul\":21223:21288   */\n      tag_601\n        /* \"#utility.yul\":21281:21287   */\n      dup2\n        /* \"#utility.yul\":21276:21279   */\n      dup6\n        /* \"#utility.yul\":21269:21273   */\n      0x20\n        /* \"#utility.yul\":21262:21267   */\n      dup7\n        /* \"#utility.yul\":21258:21274   */\n      add\n        /* \"#utility.yul\":21223:21288   */\n      tag_407\n      jump\t// in\n    tag_601:\n        /* \"#utility.yul\":21313:21342   */\n      tag_602\n        /* \"#utility.yul\":21335:21341   */\n      dup2\n        /* \"#utility.yul\":21313:21342   */\n      tag_412\n      jump\t// in\n    tag_602:\n        /* \"#utility.yul\":21308:21311   */\n      dup5\n        /* \"#utility.yul\":21304:21343   */\n      add\n        /* \"#utility.yul\":21297:21343   */\n      swap2\n      pop\n        /* \"#utility.yul\":21064:21349   */\n      pop\n        /* \"#utility.yul\":20972:21349   */\n      swap3\n      swap2\n      pop\n      pop\n      jump\t// out\n        /* \"#utility.yul\":21355:21668   */\n    tag_365:\n        /* \"#utility.yul\":21468:21472   */\n      0x00\n        /* \"#utility.yul\":21506:21508   */\n      0x20\n        /* \"#utility.yul\":21495:21504   */\n      dup3\n        /* \"#utility.yul\":21491:21509   */\n      add\n        /* \"#utility.yul\":21483:21509   */\n      swap1\n      pop\n        /* \"#utility.yul\":21555:21564   */\n      dup2\n        /* \"#utility.yul\":21549:21553   */\n      dup2\n        /* \"#utility.yul\":21545:21565   */\n      sub\n        /* \"#utility.yul\":21541:21542   */\n      0x00\n        /* \"#utility.yul\":21530:21539   */\n      dup4\n        /* \"#utility.yul\":21526:21543   */\n      add\n        /* \"#utility.yul\":21519:21566   */\n      mstore\n        /* \"#utility.yul\":21583:21661   */\n      tag_604\n        /* \"#utility.yul\":21656:21660   */\n      dup2\n        /* \"#utility.yul\":21647:21653   */\n      dup5\n        /* \"#utility.yul\":21583:21661   */\n      tag_413\n      jump\t// in\n    tag_604:\n        /* \"#utility.yul\":21575:21661   */\n      swap1\n      pop\n        /* \"#utility.yul\":21355:21668   */\n      swap3\n      swap2\n      pop\n      pop\n      jump\t// out\n\n    auxdata: 0xa2646970667358221220f6bd4a34271c8d1e9631cecc20bacdd7e3880b6d66722414b622fdabc105b1cc64736f6c63430008120033\n}\n",
				"bytecode": {
					"linkReferences": {},
					"object": "60806040523480156200001157600080fd5b506040516200384838038062003848833981810160405281019062000037919062000216565b620000576200004b620000e060201b60201c565b620000e860201b60201c565b80600160006101000a81548173ffffffffffffffffffffffffffffffffffffffff021916908373ffffffffffffffffffffffffffffffffffffffff16021790555033600260006101000a81548173ffffffffffffffffffffffffffffffffffffffff021916908373ffffffffffffffffffffffffffffffffffffffff1602179055505062000248565b600033905090565b60008060009054906101000a900473ffffffffffffffffffffffffffffffffffffffff169050816000806101000a81548173ffffffffffffffffffffffffffffffffffffffff021916908373ffffffffffffffffffffffffffffffffffffffff1602179055508173ffffffffffffffffffffffffffffffffffffffff168173ffffffffffffffffffffffffffffffffffffffff167f8be0079c531659141344cd1fd0a4f28419497f9722a3daafe3b4186f6b6457e060405160405180910390a35050565b600080fd5b600073ffffffffffffffffffffffffffffffffffffffff82169050919050565b6000620001de82620001b1565b9050919050565b620001f081620001d1565b8114620001fc57600080fd5b50565b6000815190506200021081620001e5565b92915050565b6000602082840312156200022f576200022e620001ac565b5b60006200023f84828501620001ff565b91505092915050565b6135f080620002586000396000f3fe608060405234801561001057600080fd5b50600436106101215760003560e01c8063715018a6116100ad578063c0cd40ee11610071578063c0cd40ee146102f5578063d6f80a2514610311578063da40ef801461032d578063e88cc2be1461035d578063f2fde38b1461039157610121565b8063715018a614610263578063897b3a681461026d5780638da5cb5b1461029d5780639131a05a146102bb578063a6021ace146102d757610121565b806321736665116100f457806321736665146101be578063264b4af6146101da5780632e886f1f146101f65780633ae7325914610215578063662b12c91461023357610121565b80630178be5f146101265780630deef63a1461014257806310c404da14610172578063186cb65b1461018e575b600080fd5b610140600480360381019061013b9190612b07565b6103ad565b005b61015c60048036038101906101579190612b07565b61069e565b6040516101699190612b4d565b60405180910390f35b61018c60048036038101906101879190612b94565b6106b6565b005b6101a860048036038101906101a39190612bfb565b61109c565b6040516101b59190612b4d565b60405180910390f35b6101d860048036038101906101d39190612c28565b6110b4565b005b6101f460048036038101906101ef9190612c7b565b61110c565b005b6101fe61111e565b60405161020c929190612cbb565b60405180910390f35b61021d61112f565b60405161022a9190612b4d565b60405180910390f35b61024d60048036038101906102489190612b07565b611135565b60405161025a9190612b4d565b60405180910390f35b61026b61114d565b005b61028760048036038101906102829190612bfb565b611161565b6040516102949190612b4d565b60405180910390f35b6102a5611179565b6040516102b29190612cf3565b60405180910390f35b6102d560048036038101906102d09190612b07565b6111a2565b005b6102df612201565b6040516102ec9190612cf3565b60405180910390f35b61030f600480360381019061030a9190612bfb565b612227565b005b61032b60048036038101906103269190612c28565b6122d7565b005b61034760048036038101906103429190612b07565b612368565b6040516103549190612b4d565b60405180910390f35b61037760048036038101906103729190612b07565b612577565b604051610388959493929190612d29565b60405180910390f35b6103ab60048036038101906103a69190612b07565b6125ba565b005b42600660008373ffffffffffffffffffffffffffffffffffffffff1673ffffffffffffffffffffffffffffffffffffffff16815260200190815260200160002060010154603c601e600660008673ffffffffffffffffffffffffffffffffffffffff1673ffffffffffffffffffffffffffffffffffffffff168152602001908152602001600020600201546104429190612dab565b61044c9190612dab565b6104569190612ded565b10610496576040517f08c379a000000000000000000000000000000000000000000000000000000000815260040161048d90612ea4565b60405180910390fd5b6000603c600660008473ffffffffffffffffffffffffffffffffffffffff1673ffffffffffffffffffffffffffffffffffffffff16815260200190815260200160002060010154426104e89190612ec4565b6104f29190612f27565b90506000601e600660008573ffffffffffffffffffffffffffffffffffffffff1673ffffffffffffffffffffffffffffffffffffffff168152602001908152602001600020600201546105459190612dab565b600760008573ffffffffffffffffffffffffffffffffffffffff1673ffffffffffffffffffffffffffffffffffffffff1681526020019081526020016000205461058f9190612f27565b90506000828261059f9190612dab565b905080600760008673ffffffffffffffffffffffffffffffffffffffff1673ffffffffffffffffffffffffffffffffffffffff16815260200190815260200160002060008282546105f09190612ec4565b92505081905550600160009054906101000a900473ffffffffffffffffffffffffffffffffffffffff1673ffffffffffffffffffffffffffffffffffffffff1663a9059cbb85836040518363ffffffff1660e01b8152600401610654929190612f58565b6020604051808303816000875af1158015610673573d6000803e3d6000fd5b505050506040513d601f19601f820116820180604052508101906106979190612fad565b5050505050565b600a6020528060005260406000206000915090505481565b6000600a6000600260009054906101000a900473ffffffffffffffffffffffffffffffffffffffff1673ffffffffffffffffffffffffffffffffffffffff1673ffffffffffffffffffffffffffffffffffffffff168152602001908152602001600020541161075a576040517f08c379a000000000000000000000000000000000000000000000000000000000815260040161075190613026565b60405180910390fd5b6000670de0b6b3a7640000846107709190612dab565b9050600660008673ffffffffffffffffffffffffffffffffffffffff1673ffffffffffffffffffffffffffffffffffffffff16815260200190815260200160002060040160009054906101000a900460ff1615610b7a5742600660008773ffffffffffffffffffffffffffffffffffffffff1673ffffffffffffffffffffffffffffffffffffffff16815260200190815260200160002060010154603c806018601e600660008c73ffffffffffffffffffffffffffffffffffffffff1673ffffffffffffffffffffffffffffffffffffffff1681526020019081526020016000206002015461085f9190612dab565b6108699190612dab565b6108739190612dab565b61087d9190612dab565b6108879190612ded565b116108c7576040517f08c379a00000000000000000000000000000000000000000000000000000000081526004016108be90613092565b60405180910390fd5b82600660008773ffffffffffffffffffffffffffffffffffffffff1673ffffffffffffffffffffffffffffffffffffffff168152602001908152602001600020600201541461094b576040517f08c379a0000000000000000000000000000000000000000000000000000000008152600401610942906130fe565b60405180910390fd5b81600660008773ffffffffffffffffffffffffffffffffffffffff1673ffffffffffffffffffffffffffffffffffffffff16815260200190815260200160002060030154146109cf576040517f08c379a00000000000000000000000000000000000000000000000000000000081526004016109c69061316a565b60405180910390fd5b80600660008773ffffffffffffffffffffffffffffffffffffffff1673ffffffffffffffffffffffffffffffffffffffff16815260200190815260200160002060000154610a1d9190612ded565b600660008773ffffffffffffffffffffffffffffffffffffffff1673ffffffffffffffffffffffffffffffffffffffff168152602001908152602001600020600001819055506103e860096000600660008973ffffffffffffffffffffffffffffffffffffffff1673ffffffffffffffffffffffffffffffffffffffff1681526020019081526020016000206002015481526020019081526020016000205482610ac79190612dab565b610ad19190612f27565b600760008773ffffffffffffffffffffffffffffffffffffffff1673ffffffffffffffffffffffffffffffffffffffff1681526020019081526020016000206000828254610b1f9190612ded565b92505081905550610b75853083600160009054906101000a900473ffffffffffffffffffffffffffffffffffffffff1673ffffffffffffffffffffffffffffffffffffffff1661263d909392919063ffffffff16565b611026565b600860006001815260200190815260200160002054831480610baf575060086000600281526020019081526020016000205483145b80610bcd575060086000600381526020019081526020016000205483145b610c0c576040517f08c379a0000000000000000000000000000000000000000000000000000000008152600401610c03906130fe565b60405180910390fd5b6064821480610c1b5750604b82145b80610c265750603282145b610c65576040517f08c379a0000000000000000000000000000000000000000000000000000000008152600401610c5c9061316a565b60405180910390fd5b60006103e860045483610c789190612dab565b610c829190612f27565b90506040518060a001604052808284610c9b9190612ec4565b815260200142815260200185815260200184815260200160011515815250600660008873ffffffffffffffffffffffffffffffffffffffff1673ffffffffffffffffffffffffffffffffffffffff1681526020019081526020016000206000820151816000015560208201518160010155604082015181600201556060820151816003015560808201518160040160006101000a81548160ff021916908315150217905550905050600860006001815260200190815260200160002054600660008873ffffffffffffffffffffffffffffffffffffffff1673ffffffffffffffffffffffffffffffffffffffff1681526020019081526020016000206002015403610e1f576103e860096000868152602001908152602001600020548284610dc39190612ec4565b610dcd9190612dab565b610dd79190612f27565b600760008873ffffffffffffffffffffffffffffffffffffffff1673ffffffffffffffffffffffffffffffffffffffff16815260200190815260200160002081905550610fd5565b600860006002815260200190815260200160002054600660008873ffffffffffffffffffffffffffffffffffffffff1673ffffffffffffffffffffffffffffffffffffffff1681526020019081526020016000206002015403610efb576103e860096000868152602001908152602001600020548284610e9f9190612ec4565b610ea99190612dab565b610eb39190612f27565b600760008873ffffffffffffffffffffffffffffffffffffffff1673ffffffffffffffffffffffffffffffffffffffff16815260200190815260200160002081905550610fd4565b600860006003815260200190815260200160002054600660008873ffffffffffffffffffffffffffffffffffffffff1673ffffffffffffffffffffffffffffffffffffffff1681526020019081526020016000206002015403610fd3576103e860096000868152602001908152602001600020548284610f7b9190612ec4565b610f859190612dab565b610f8f9190612f27565b600760008873ffffffffffffffffffffffffffffffffffffffff1673ffffffffffffffffffffffffffffffffffffffff168152602001908152602001600020819055505b5b5b611024863084600160009054906101000a900473ffffffffffffffffffffffffffffffffffffffff1673ffffffffffffffffffffffffffffffffffffffff1661263d909392919063ffffffff16565b505b80600a60008773ffffffffffffffffffffffffffffffffffffffff1673ffffffffffffffffffffffffffffffffffffffff16815260200190815260200160002060008282546110759190612ded565b92505081905550806003600082825461108e9190612ded565b925050819055505050505050565b60086020528060005260406000206000915090505481565b6110bc6126c6565b826008600060018152602001908152602001600020819055508160086000600281526020019081526020016000208190555080600860006003815260200190815260200160002081905550505050565b81600481905550806005819055505050565b600080600454600554915091509091565b60035481565b60076020528060005260406000206000915090505481565b6111556126c6565b61115f6000612744565b565b60096020528060005260406000206000915090505481565b60008060009054906101000a900473ffffffffffffffffffffffffffffffffffffffff16905090565b600660008273ffffffffffffffffffffffffffffffffffffffff1673ffffffffffffffffffffffffffffffffffffffff16815260200190815260200160002060040160009054906101000a900460ff16611231576040517f08c379a0000000000000000000000000000000000000000000000000000000008152600401611228906131d6565b60405180910390fd5b60008042600660008573ffffffffffffffffffffffffffffffffffffffff1673ffffffffffffffffffffffffffffffffffffffff16815260200190815260200160002060010154603c601e600660008873ffffffffffffffffffffffffffffffffffffffff1673ffffffffffffffffffffffffffffffffffffffff168152602001908152602001600020600201546112c99190612dab565b6112d39190612dab565b6112dd9190612ded565b101561198a576064600660008573ffffffffffffffffffffffffffffffffffffffff1673ffffffffffffffffffffffffffffffffffffffff168152602001908152602001600020600301540361145f57600160009054906101000a900473ffffffffffffffffffffffffffffffffffffffff1673ffffffffffffffffffffffffffffffffffffffff1663a9059cbb84600760008773ffffffffffffffffffffffffffffffffffffffff1673ffffffffffffffffffffffffffffffffffffffff16815260200190815260200160002054600660008873ffffffffffffffffffffffffffffffffffffffff1673ffffffffffffffffffffffffffffffffffffffff168152602001908152602001600020600001546113f99190612ded565b6040518363ffffffff1660e01b8152600401611416929190612f58565b6020604051808303816000875af1158015611435573d6000803e3d6000fd5b505050506040513d601f19601f820116820180604052508101906114599190612fad565b50611985565b604b600660008573ffffffffffffffffffffffffffffffffffffffff1673ffffffffffffffffffffffffffffffffffffffff16815260200190815260200160002060030154036116f3576064604b600760008673ffffffffffffffffffffffffffffffffffffffff1673ffffffffffffffffffffffffffffffffffffffff168152602001908152602001600020546114f79190612dab565b6115019190612f27565b9150600160009054906101000a900473ffffffffffffffffffffffffffffffffffffffff1673ffffffffffffffffffffffffffffffffffffffff1663a9059cbb8484600660008873ffffffffffffffffffffffffffffffffffffffff1673ffffffffffffffffffffffffffffffffffffffff168152602001908152602001600020600001546115909190612ded565b6040518363ffffffff1660e01b81526004016115ad929190612f58565b6020604051808303816000875af11580156115cc573d6000803e3d6000fd5b505050506040513d601f19601f820116820180604052508101906115f09190612fad565b5060646019600760008673ffffffffffffffffffffffffffffffffffffffff1673ffffffffffffffffffffffffffffffffffffffff1681526020019081526020016000205461163f9190612dab565b6116499190612f27565b9050600160009054906101000a900473ffffffffffffffffffffffffffffffffffffffff1673ffffffffffffffffffffffffffffffffffffffff1663a9059cbb61dead836040518363ffffffff1660e01b81526004016116aa929190612f58565b6020604051808303816000875af11580156116c9573d6000803e3d6000fd5b505050506040513d601f19601f820116820180604052508101906116ed9190612fad565b50611984565b6032600660008573ffffffffffffffffffffffffffffffffffffffff1673ffffffffffffffffffffffffffffffffffffffff16815260200190815260200160002060030154036119835760646032600760008673ffffffffffffffffffffffffffffffffffffffff1673ffffffffffffffffffffffffffffffffffffffff1681526020019081526020016000205461178b9190612dab565b6117959190612f27565b9150600160009054906101000a900473ffffffffffffffffffffffffffffffffffffffff1673ffffffffffffffffffffffffffffffffffffffff1663a9059cbb8484600660008873ffffffffffffffffffffffffffffffffffffffff1673ffffffffffffffffffffffffffffffffffffffff168152602001908152602001600020600001546118249190612ded565b6040518363ffffffff1660e01b8152600401611841929190612f58565b6020604051808303816000875af1158015611860573d6000803e3d6000fd5b505050506040513d601f19601f820116820180604052508101906118849190612fad565b5060646032600760008673ffffffffffffffffffffffffffffffffffffffff1673ffffffffffffffffffffffffffffffffffffffff168152602001908152602001600020546118d39190612dab565b6118dd9190612f27565b9050600160009054906101000a900473ffffffffffffffffffffffffffffffffffffffff1673ffffffffffffffffffffffffffffffffffffffff1663a9059cbb61dead836040518363ffffffff1660e01b815260040161193e929190612f58565b6020604051808303816000875af115801561195d573d6000803e3d6000fd5b505050506040513d601f19601f820116820180604052508101906119819190612fad565b505b5b5b6120ae565b600080600080603c600660008973ffffffffffffffffffffffffffffffffffffffff1673ffffffffffffffffffffffffffffffffffffffff16815260200190815260200160002060010154426119e09190612ec4565b6119ea9190612f27565b9050601e600660008973ffffffffffffffffffffffffffffffffffffffff1673ffffffffffffffffffffffffffffffffffffffff16815260200190815260200160002060020154611a3b9190612dab565b600760008973ffffffffffffffffffffffffffffffffffffffff1673ffffffffffffffffffffffffffffffffffffffff16815260200190815260200160002054611a859190612f27565b93506064600660008973ffffffffffffffffffffffffffffffffffffffff1673ffffffffffffffffffffffffffffffffffffffff1681526020019081526020016000206003015403611bfd578084611add9190612dab565b955085600660008973ffffffffffffffffffffffffffffffffffffffff1673ffffffffffffffffffffffffffffffffffffffff16815260200190815260200160002060000154611b2d9190612ded565b92506103e860055484611b409190612dab565b611b4a9190612f27565b9150600160009054906101000a900473ffffffffffffffffffffffffffffffffffffffff1673ffffffffffffffffffffffffffffffffffffffff1663a9059cbb888486611b979190612ec4565b6040518363ffffffff1660e01b8152600401611bb4929190612f58565b6020604051808303816000875af1158015611bd3573d6000803e3d6000fd5b505050506040513d601f19601f82011682018060405250810190611bf79190612fad565b506120a9565b604b600660008973ffffffffffffffffffffffffffffffffffffffff1673ffffffffffffffffffffffffffffffffffffffff1681526020019081526020016000206003015403611e54576064604b8286611c579190612dab565b611c619190612dab565b611c6b9190612f27565b955085600660008973ffffffffffffffffffffffffffffffffffffffff1673ffffffffffffffffffffffffffffffffffffffff16815260200190815260200160002060000154611cbb9190612ded565b92506103e860055484611cce9190612dab565b611cd89190612f27565b9150600160009054906101000a900473ffffffffffffffffffffffffffffffffffffffff1673ffffffffffffffffffffffffffffffffffffffff1663a9059cbb888486611d259190612ec4565b6040518363ffffffff1660e01b8152600401611d42929190612f58565b6020604051808303816000875af1158015611d61573d6000803e3d6000fd5b505050506040513d601f19601f82011682018060405250810190611d859190612fad565b50606460198286611d969190612dab565b611da09190612dab565b611daa9190612f27565b9450600160009054906101000a900473ffffffffffffffffffffffffffffffffffffffff1673ffffffffffffffffffffffffffffffffffffffff1663a9059cbb61dead876040518363ffffffff1660e01b8152600401611e0b929190612f58565b6020604051808303816000875af1158015611e2a573d6000803e3d6000fd5b505050506040513d601f19601f82011682018060405250810190611e4e9190612fad565b506120a8565b6032600660008973ffffffffffffffffffffffffffffffffffffffff1673ffffffffffffffffffffffffffffffffffffffff16815260200190815260200160002060030154036120a757606460328286611eae9190612dab565b611eb89190612dab565b611ec29190612f27565b955085600660008973ffffffffffffffffffffffffffffffffffffffff1673ffffffffffffffffffffffffffffffffffffffff16815260200190815260200160002060000154611f129190612ded565b92506103e860055484611f259190612dab565b611f2f9190612f27565b9150600160009054906101000a900473ffffffffffffffffffffffffffffffffffffffff1673ffffffffffffffffffffffffffffffffffffffff1663a9059cbb888486611f7c9190612ec4565b6040518363ffffffff1660e01b8152600401611f99929190612f58565b6020604051808303816000875af1158015611fb8573d6000803e3d6000fd5b505050506040513d601f19601f82011682018060405250810190611fdc9190612fad565b50606460328286611fed9190612dab565b611ff79190612dab565b6120019190612f27565b9450600160009054906101000a900473ffffffffffffffffffffffffffffffffffffffff1673ffffffffffffffffffffffffffffffffffffffff1663a9059cbb61dead876040518363ffffffff1660e01b8152600401612062929190612f58565b6020604051808303816000875af1158015612081573d6000803e3d6000fd5b505050506040513d601f19601f820116820180604052508101906120a59190612fad565b505b5b5b505050505b6000600660008573ffffffffffffffffffffffffffffffffffffffff1673ffffffffffffffffffffffffffffffffffffffff16815260200190815260200160002060040160006101000a81548160ff021916908315150217905550600660008473ffffffffffffffffffffffffffffffffffffffff1673ffffffffffffffffffffffffffffffffffffffff16815260200190815260200160002060000154600a60008573ffffffffffffffffffffffffffffffffffffffff1673ffffffffffffffffffffffffffffffffffffffff168152602001908152602001600020600082825461219a9190612ec4565b92505081905550600660008473ffffffffffffffffffffffffffffffffffffffff1673ffffffffffffffffffffffffffffffffffffffff16815260200190815260200160002060000154600360008282546121f59190612ec4565b92505081905550505050565b600160009054906101000a900473ffffffffffffffffffffffffffffffffffffffff1681565b61222f6126c6565b80600a60003373ffffffffffffffffffffffffffffffffffffffff1673ffffffffffffffffffffffffffffffffffffffff168152602001908152602001600020600082825461227e9190612ded565b925050819055506122d4333083600160009054906101000a900473ffffffffffffffffffffffffffffffffffffffff1673ffffffffffffffffffffffffffffffffffffffff1661263d909392919063ffffffff16565b50565b6122df6126c6565b826009600060086000600181526020019081526020016000205481526020019081526020016000208190555081600960006008600060018152602001908152602001600020548152602001908152602001600020819055508060096000600860006001815260200190815260200160002054815260200190815260200160002081905550505050565b600042600660008473ffffffffffffffffffffffffffffffffffffffff1673ffffffffffffffffffffffffffffffffffffffff16815260200190815260200160002060010154603c601e600660008773ffffffffffffffffffffffffffffffffffffffff1673ffffffffffffffffffffffffffffffffffffffff168152602001908152602001600020600201546123ff9190612dab565b6124099190612dab565b6124139190612ded565b101561246057600760008373ffffffffffffffffffffffffffffffffffffffff1673ffffffffffffffffffffffffffffffffffffffff168152602001908152602001600020549050612572565b6000603c600660008573ffffffffffffffffffffffffffffffffffffffff1673ffffffffffffffffffffffffffffffffffffffff16815260200190815260200160002060010154426124b29190612ec4565b6124bc9190612f27565b90506000601e600660008673ffffffffffffffffffffffffffffffffffffffff1673ffffffffffffffffffffffffffffffffffffffff1681526020019081526020016000206002015461250f9190612dab565b600760008673ffffffffffffffffffffffffffffffffffffffff1673ffffffffffffffffffffffffffffffffffffffff168152602001908152602001600020546125599190612f27565b9050600082826125699190612dab565b90508093505050505b919050565b60066020528060005260406000206000915090508060000154908060010154908060020154908060030154908060040160009054906101000a900460ff16905085565b6125c26126c6565b600073ffffffffffffffffffffffffffffffffffffffff168173ffffffffffffffffffffffffffffffffffffffff1603612631576040517f08c379a000000000000000000000000000000000000000000000000000000000815260040161262890613268565b60405180910390fd5b61263a81612744565b50565b6126c0846323b872dd60e01b85858560405160240161265e93929190613288565b604051602081830303815290604052907bffffffffffffffffffffffffffffffffffffffffffffffffffffffff19166020820180517bffffffffffffffffffffffffffffffffffffffffffffffffffffffff8381831617835250505050612808565b50505050565b6126ce6128cf565b73ffffffffffffffffffffffffffffffffffffffff166126ec611179565b73ffffffffffffffffffffffffffffffffffffffff1614612742576040517f08c379a00000000000000000000000000000000000000000000000000000000081526004016127399061330b565b60405180910390fd5b565b60008060009054906101000a900473ffffffffffffffffffffffffffffffffffffffff169050816000806101000a81548173ffffffffffffffffffffffffffffffffffffffff021916908373ffffffffffffffffffffffffffffffffffffffff1602179055508173ffffffffffffffffffffffffffffffffffffffff168173ffffffffffffffffffffffffffffffffffffffff167f8be0079c531659141344cd1fd0a4f28419497f9722a3daafe3b4186f6b6457e060405160405180910390a35050565b600061286a826040518060400160405280602081526020017f5361666545524332303a206c6f772d6c6576656c2063616c6c206661696c65648152508573ffffffffffffffffffffffffffffffffffffffff166128d79092919063ffffffff16565b90506000815111156128ca578080602001905181019061288a9190612fad565b6128c9576040517f08c379a00000000000000000000000000000000000000000000000000000000081526004016128c09061339d565b60405180910390fd5b5b505050565b600033905090565b60606128e684846000856128ef565b90509392505050565b606082471015612934576040517f08c379a000000000000000000000000000000000000000000000000000000000815260040161292b9061342f565b60405180910390fd5b6000808673ffffffffffffffffffffffffffffffffffffffff16858760405161295d91906134c0565b60006040518083038185875af1925050503d806000811461299a576040519150601f19603f3d011682016040523d82523d6000602084013e61299f565b606091505b50915091506129b0878383876129bc565b92505050949350505050565b60608315612a1e576000835103612a16576129d685612a31565b612a15576040517f08c379a0000000000000000000000000000000000000000000000000000000008152600401612a0c90613523565b60405180910390fd5b5b829050612a29565b612a288383612a54565b5b949350505050565b6000808273ffffffffffffffffffffffffffffffffffffffff163b119050919050565b600082511115612a675781518083602001fd5b806040517f08c379a0000000000000000000000000000000000000000000000000000000008152600401612a9b9190613598565b60405180910390fd5b600080fd5b600073ffffffffffffffffffffffffffffffffffffffff82169050919050565b6000612ad482612aa9565b9050919050565b612ae481612ac9565b8114612aef57600080fd5b50565b600081359050612b0181612adb565b92915050565b600060208284031215612b1d57612b1c612aa4565b5b6000612b2b84828501612af2565b91505092915050565b6000819050919050565b612b4781612b34565b82525050565b6000602082019050612b626000830184612b3e565b92915050565b612b7181612b34565b8114612b7c57600080fd5b50565b600081359050612b8e81612b68565b92915050565b60008060008060808587031215612bae57612bad612aa4565b5b6000612bbc87828801612af2565b9450506020612bcd87828801612b7f565b9350506040612bde87828801612b7f565b9250506060612bef87828801612b7f565b91505092959194509250565b600060208284031215612c1157612c10612aa4565b5b6000612c1f84828501612b7f565b91505092915050565b600080600060608486031215612c4157612c40612aa4565b5b6000612c4f86828701612b7f565b9350506020612c6086828701612b7f565b9250506040612c7186828701612b7f565b9150509250925092565b60008060408385031215612c9257612c91612aa4565b5b6000612ca085828601612b7f565b9250506020612cb185828601612b7f565b9150509250929050565b6000604082019050612cd06000830185612b3e565b612cdd6020830184612b3e565b9392505050565b612ced81612ac9565b82525050565b6000602082019050612d086000830184612ce4565b92915050565b60008115159050919050565b612d2381612d0e565b82525050565b600060a082019050612d3e6000830188612b3e565b612d4b6020830187612b3e565b612d586040830186612b3e565b612d656060830185612b3e565b612d726080830184612d1a565b9695505050505050565b7f4e487b7100000000000000000000000000000000000000000000000000000000600052601160045260246000fd5b6000612db682612b34565b9150612dc183612b34565b9250828202612dcf81612b34565b91508282048414831517612de657612de5612d7c565b5b5092915050565b6000612df882612b34565b9150612e0383612b34565b9250828201905080821115612e1b57612e1a612d7c565b5b92915050565b600082825260208201905092915050565b7f596f7572205374616b652054696d6520436f6d706c6574652c20506c6561736560008201527f2043616c6c2057697468647261772046756e6374696f6e202100000000000000602082015250565b6000612e8e603983612e21565b9150612e9982612e32565b604082019050919050565b60006020820190508181036000830152612ebd81612e81565b9050919050565b6000612ecf82612b34565b9150612eda83612b34565b9250828203905081811115612ef257612ef1612d7c565b5b92915050565b7f4e487b7100000000000000000000000000000000000000000000000000000000600052601260045260246000fd5b6000612f3282612b34565b9150612f3d83612b34565b925082612f4d57612f4c612ef8565b5b828204905092915050565b6000604082019050612f6d6000830185612ce4565b612f7a6020830184612b3e565b9392505050565b612f8a81612d0e565b8114612f9557600080fd5b50565b600081519050612fa781612f81565b92915050565b600060208284031215612fc357612fc2612aa4565b5b6000612fd184828501612f98565b91505092915050565b7f506c656173652057616974202121210000000000000000000000000000000000600082015250565b6000613010600f83612e21565b915061301b82612fda565b602082019050919050565b6000602082019050818103600083015261303f81613003565b9050919050565b7f596f75722054696d6520506572696f6420436f6d706c6574652e000000000000600082015250565b600061307c601a83612e21565b915061308782613046565b602082019050919050565b600060208201905081810360008301526130ab8161306f565b9050919050565b7f456e746572205269676874205374616b654d6f6e746800000000000000000000600082015250565b60006130e8601683612e21565b91506130f3826130b2565b602082019050919050565b60006020820190508181036000830152613117816130db565b9050919050565b7f456e746572205269676874204561726e50657273656e74616765000000000000600082015250565b6000613154601a83612e21565b915061315f8261311e565b602082019050919050565b6000602082019050818103600083015261318381613147565b9050919050565b7f4669727374205374616b6520546f6b656e730000000000000000000000000000600082015250565b60006131c0601283612e21565b91506131cb8261318a565b602082019050919050565b600060208201905081810360008301526131ef816131b3565b9050919050565b7f4f776e61626c653a206e6577206f776e657220697320746865207a65726f206160008201527f6464726573730000000000000000000000000000000000000000000000000000602082015250565b6000613252602683612e21565b915061325d826131f6565b604082019050919050565b6000602082019050818103600083015261328181613245565b9050919050565b600060608201905061329d6000830186612ce4565b6132aa6020830185612ce4565b6132b76040830184612b3e565b949350505050565b7f4f776e61626c653a2063616c6c6572206973206e6f7420746865206f776e6572600082015250565b60006132f5602083612e21565b9150613300826132bf565b602082019050919050565b60006020820190508181036000830152613324816132e8565b9050919050565b7f5361666545524332303a204552433230206f7065726174696f6e20646964206e60008201527f6f74207375636365656400000000000000000000000000000000000000000000602082015250565b6000613387602a83612e21565b91506133928261332b565b604082019050919050565b600060208201905081810360008301526133b68161337a565b9050919050565b7f416464726573733a20696e73756666696369656e742062616c616e636520666f60008201527f722063616c6c0000000000000000000000000000000000000000000000000000602082015250565b6000613419602683612e21565b9150613424826133bd565b604082019050919050565b600060208201905081810360008301526134488161340c565b9050919050565b600081519050919050565b600081905092915050565b60005b83811015613483578082015181840152602081019050613468565b60008484015250505050565b600061349a8261344f565b6134a4818561345a565b93506134b4818560208601613465565b80840191505092915050565b60006134cc828461348f565b915081905092915050565b7f416464726573733a2063616c6c20746f206e6f6e2d636f6e7472616374000000600082015250565b600061350d601d83612e21565b9150613518826134d7565b602082019050919050565b6000602082019050818103600083015261353c81613500565b9050919050565b600081519050919050565b6000601f19601f8301169050919050565b600061356a82613543565b6135748185612e21565b9350613584818560208601613465565b61358d8161354e565b840191505092915050565b600060208201905081810360008301526135b2818461355f565b90509291505056fea2646970667358221220f6bd4a34271c8d1e9631cecc20bacdd7e3880b6d66722414b622fdabc105b1cc64736f6c63430008120033",
					"opcodes": "PUSH1 0x80 PUSH1 0x40 MSTORE CALLVALUE DUP1 ISZERO PUSH3 0x11 JUMPI PUSH1 0x0 DUP1 REVERT JUMPDEST POP PUSH1 0x40 MLOAD PUSH3 0x3848 CODESIZE SUB DUP1 PUSH3 0x3848 DUP4 CODECOPY DUP2 DUP2 ADD PUSH1 0x40 MSTORE DUP2 ADD SWAP1 PUSH3 0x37 SWAP2 SWAP1 PUSH3 0x216 JUMP JUMPDEST PUSH3 0x57 PUSH3 0x4B PUSH3 0xE0 PUSH1 0x20 SHL PUSH1 0x20 SHR JUMP JUMPDEST PUSH3 0xE8 PUSH1 0x20 SHL PUSH1 0x20 SHR JUMP JUMPDEST DUP1 PUSH1 0x1 PUSH1 0x0 PUSH2 0x100 EXP DUP2 SLOAD DUP2 PUSH20 0xFFFFFFFFFFFFFFFFFFFFFFFFFFFFFFFFFFFFFFFF MUL NOT AND SWAP1 DUP4 PUSH20 0xFFFFFFFFFFFFFFFFFFFFFFFFFFFFFFFFFFFFFFFF AND MUL OR SWAP1 SSTORE POP CALLER PUSH1 0x2 PUSH1 0x0 PUSH2 0x100 EXP DUP2 SLOAD DUP2 PUSH20 0xFFFFFFFFFFFFFFFFFFFFFFFFFFFFFFFFFFFFFFFF MUL NOT AND SWAP1 DUP4 PUSH20 0xFFFFFFFFFFFFFFFFFFFFFFFFFFFFFFFFFFFFFFFF AND MUL OR SWAP1 SSTORE POP POP PUSH3 0x248 JUMP JUMPDEST PUSH1 0x0 CALLER SWAP1 POP SWAP1 JUMP JUMPDEST PUSH1 0x0 DUP1 PUSH1 0x0 SWAP1 SLOAD SWAP1 PUSH2 0x100 EXP SWAP1 DIV PUSH20 0xFFFFFFFFFFFFFFFFFFFFFFFFFFFFFFFFFFFFFFFF AND SWAP1 POP DUP2 PUSH1 0x0 DUP1 PUSH2 0x100 EXP DUP2 SLOAD DUP2 PUSH20 0xFFFFFFFFFFFFFFFFFFFFFFFFFFFFFFFFFFFFFFFF MUL NOT AND SWAP1 DUP4 PUSH20 0xFFFFFFFFFFFFFFFFFFFFFFFFFFFFFFFFFFFFFFFF AND MUL OR SWAP1 SSTORE POP DUP2 PUSH20 0xFFFFFFFFFFFFFFFFFFFFFFFFFFFFFFFFFFFFFFFF AND DUP2 PUSH20 0xFFFFFFFFFFFFFFFFFFFFFFFFFFFFFFFFFFFFFFFF AND PUSH32 0x8BE0079C531659141344CD1FD0A4F28419497F9722A3DAAFE3B4186F6B6457E0 PUSH1 0x40 MLOAD PUSH1 0x40 MLOAD DUP1 SWAP2 SUB SWAP1 LOG3 POP POP JUMP JUMPDEST PUSH1 0x0 DUP1 REVERT JUMPDEST PUSH1 0x0 PUSH20 0xFFFFFFFFFFFFFFFFFFFFFFFFFFFFFFFFFFFFFFFF DUP3 AND SWAP1 POP SWAP2 SWAP1 POP JUMP JUMPDEST PUSH1 0x0 PUSH3 0x1DE DUP3 PUSH3 0x1B1 JUMP JUMPDEST SWAP1 POP SWAP2 SWAP1 POP JUMP JUMPDEST PUSH3 0x1F0 DUP2 PUSH3 0x1D1 JUMP JUMPDEST DUP2 EQ PUSH3 0x1FC JUMPI PUSH1 0x0 DUP1 REVERT JUMPDEST POP JUMP JUMPDEST PUSH1 0x0 DUP2 MLOAD SWAP1 POP PUSH3 0x210 DUP2 PUSH3 0x1E5 JUMP JUMPDEST SWAP3 SWAP2 POP POP JUMP JUMPDEST PUSH1 0x0 PUSH1 0x20 DUP3 DUP5 SUB SLT ISZERO PUSH3 0x22F JUMPI PUSH3 0x22E PUSH3 0x1AC JUMP JUMPDEST JUMPDEST PUSH1 0x0 PUSH3 0x23F DUP5 DUP3 DUP6 ADD PUSH3 0x1FF JUMP JUMPDEST SWAP2 POP POP SWAP3 SWAP2 POP POP JUMP JUMPDEST PUSH2 0x35F0 DUP1 PUSH3 0x258 PUSH1 0x0 CODECOPY PUSH1 0x0 RETURN INVALID PUSH1 0x80 PUSH1 0x40 MSTORE CALLVALUE DUP1 ISZERO PUSH2 0x10 JUMPI PUSH1 0x0 DUP1 REVERT JUMPDEST POP PUSH1 0x4 CALLDATASIZE LT PUSH2 0x121 JUMPI PUSH1 0x0 CALLDATALOAD PUSH1 0xE0 SHR DUP1 PUSH4 0x715018A6 GT PUSH2 0xAD JUMPI DUP1 PUSH4 0xC0CD40EE GT PUSH2 0x71 JUMPI DUP1 PUSH4 0xC0CD40EE EQ PUSH2 0x2F5 JUMPI DUP1 PUSH4 0xD6F80A25 EQ PUSH2 0x311 JUMPI DUP1 PUSH4 0xDA40EF80 EQ PUSH2 0x32D JUMPI DUP1 PUSH4 0xE88CC2BE EQ PUSH2 0x35D JUMPI DUP1 PUSH4 0xF2FDE38B EQ PUSH2 0x391 JUMPI PUSH2 0x121 JUMP JUMPDEST DUP1 PUSH4 0x715018A6 EQ PUSH2 0x263 JUMPI DUP1 PUSH4 0x897B3A68 EQ PUSH2 0x26D JUMPI DUP1 PUSH4 0x8DA5CB5B EQ PUSH2 0x29D JUMPI DUP1 PUSH4 0x9131A05A EQ PUSH2 0x2BB JUMPI DUP1 PUSH4 0xA6021ACE EQ PUSH2 0x2D7 JUMPI PUSH2 0x121 JUMP JUMPDEST DUP1 PUSH4 0x21736665 GT PUSH2 0xF4 JUMPI DUP1 PUSH4 0x21736665 EQ PUSH2 0x1BE JUMPI DUP1 PUSH4 0x264B4AF6 EQ PUSH2 0x1DA JUMPI DUP1 PUSH4 0x2E886F1F EQ PUSH2 0x1F6 JUMPI DUP1 PUSH4 0x3AE73259 EQ PUSH2 0x215 JUMPI DUP1 PUSH4 0x662B12C9 EQ PUSH2 0x233 JUMPI PUSH2 0x121 JUMP JUMPDEST DUP1 PUSH4 0x178BE5F EQ PUSH2 0x126 JUMPI DUP1 PUSH4 0xDEEF63A EQ PUSH2 0x142 JUMPI DUP1 PUSH4 0x10C404DA EQ PUSH2 0x172 JUMPI DUP1 PUSH4 0x186CB65B EQ PUSH2 0x18E JUMPI JUMPDEST PUSH1 0x0 DUP1 REVERT JUMPDEST PUSH2 0x140 PUSH1 0x4 DUP1 CALLDATASIZE SUB DUP2 ADD SWAP1 PUSH2 0x13B SWAP2 SWAP1 PUSH2 0x2B07 JUMP JUMPDEST PUSH2 0x3AD JUMP JUMPDEST STOP JUMPDEST PUSH2 0x15C PUSH1 0x4 DUP1 CALLDATASIZE SUB DUP2 ADD SWAP1 PUSH2 0x157 SWAP2 SWAP1 PUSH2 0x2B07 JUMP JUMPDEST PUSH2 0x69E JUMP JUMPDEST PUSH1 0x40 MLOAD PUSH2 0x169 SWAP2 SWAP1 PUSH2 0x2B4D JUMP JUMPDEST PUSH1 0x40 MLOAD DUP1 SWAP2 SUB SWAP1 RETURN JUMPDEST PUSH2 0x18C PUSH1 0x4 DUP1 CALLDATASIZE SUB DUP2 ADD SWAP1 PUSH2 0x187 SWAP2 SWAP1 PUSH2 0x2B94 JUMP JUMPDEST PUSH2 0x6B6 JUMP JUMPDEST STOP JUMPDEST PUSH2 0x1A8 PUSH1 0x4 DUP1 CALLDATASIZE SUB DUP2 ADD SWAP1 PUSH2 0x1A3 SWAP2 SWAP1 PUSH2 0x2BFB JUMP JUMPDEST PUSH2 0x109C JUMP JUMPDEST PUSH1 0x40 MLOAD PUSH2 0x1B5 SWAP2 SWAP1 PUSH2 0x2B4D JUMP JUMPDEST PUSH1 0x40 MLOAD DUP1 SWAP2 SUB SWAP1 RETURN JUMPDEST PUSH2 0x1D8 PUSH1 0x4 DUP1 CALLDATASIZE SUB DUP2 ADD SWAP1 PUSH2 0x1D3 SWAP2 SWAP1 PUSH2 0x2C28 JUMP JUMPDEST PUSH2 0x10B4 JUMP JUMPDEST STOP JUMPDEST PUSH2 0x1F4 PUSH1 0x4 DUP1 CALLDATASIZE SUB DUP2 ADD SWAP1 PUSH2 0x1EF SWAP2 SWAP1 PUSH2 0x2C7B JUMP JUMPDEST PUSH2 0x110C JUMP JUMPDEST STOP JUMPDEST PUSH2 0x1FE PUSH2 0x111E JUMP JUMPDEST PUSH1 0x40 MLOAD PUSH2 0x20C SWAP3 SWAP2 SWAP1 PUSH2 0x2CBB JUMP JUMPDEST PUSH1 0x40 MLOAD DUP1 SWAP2 SUB SWAP1 RETURN JUMPDEST PUSH2 0x21D PUSH2 0x112F JUMP JUMPDEST PUSH1 0x40 MLOAD PUSH2 0x22A SWAP2 SWAP1 PUSH2 0x2B4D JUMP JUMPDEST PUSH1 0x40 MLOAD DUP1 SWAP2 SUB SWAP1 RETURN JUMPDEST PUSH2 0x24D PUSH1 0x4 DUP1 CALLDATASIZE SUB DUP2 ADD SWAP1 PUSH2 0x248 SWAP2 SWAP1 PUSH2 0x2B07 JUMP JUMPDEST PUSH2 0x1135 JUMP JUMPDEST PUSH1 0x40 MLOAD PUSH2 0x25A SWAP2 SWAP1 PUSH2 0x2B4D JUMP JUMPDEST PUSH1 0x40 MLOAD DUP1 SWAP2 SUB SWAP1 RETURN JUMPDEST PUSH2 0x26B PUSH2 0x114D JUMP JUMPDEST STOP JUMPDEST PUSH2 0x287 PUSH1 0x4 DUP1 CALLDATASIZE SUB DUP2 ADD SWAP1 PUSH2 0x282 SWAP2 SWAP1 PUSH2 0x2BFB JUMP JUMPDEST PUSH2 0x1161 JUMP JUMPDEST PUSH1 0x40 MLOAD PUSH2 0x294 SWAP2 SWAP1 PUSH2 0x2B4D JUMP JUMPDEST PUSH1 0x40 MLOAD DUP1 SWAP2 SUB SWAP1 RETURN JUMPDEST PUSH2 0x2A5 PUSH2 0x1179 JUMP JUMPDEST PUSH1 0x40 MLOAD PUSH2 0x2B2 SWAP2 SWAP1 PUSH2 0x2CF3 JUMP JUMPDEST PUSH1 0x40 MLOAD DUP1 SWAP2 SUB SWAP1 RETURN JUMPDEST PUSH2 0x2D5 PUSH1 0x4 DUP1 CALLDATASIZE SUB DUP2 ADD SWAP1 PUSH2 0x2D0 SWAP2 SWAP1 PUSH2 0x2B07 JUMP JUMPDEST PUSH2 0x11A2 JUMP JUMPDEST STOP JUMPDEST PUSH2 0x2DF PUSH2 0x2201 JUMP JUMPDEST PUSH1 0x40 MLOAD PUSH2 0x2EC SWAP2 SWAP1 PUSH2 0x2CF3 JUMP JUMPDEST PUSH1 0x40 MLOAD DUP1 SWAP2 SUB SWAP1 RETURN JUMPDEST PUSH2 0x30F PUSH1 0x4 DUP1 CALLDATASIZE SUB DUP2 ADD SWAP1 PUSH2 0x30A SWAP2 SWAP1 PUSH2 0x2BFB JUMP JUMPDEST PUSH2 0x2227 JUMP JUMPDEST STOP JUMPDEST PUSH2 0x32B PUSH1 0x4 DUP1 CALLDATASIZE SUB DUP2 ADD SWAP1 PUSH2 0x326 SWAP2 SWAP1 PUSH2 0x2C28 JUMP JUMPDEST PUSH2 0x22D7 JUMP JUMPDEST STOP JUMPDEST PUSH2 0x347 PUSH1 0x4 DUP1 CALLDATASIZE SUB DUP2 ADD SWAP1 PUSH2 0x342 SWAP2 SWAP1 PUSH2 0x2B07 JUMP JUMPDEST PUSH2 0x2368 JUMP JUMPDEST PUSH1 0x40 MLOAD PUSH2 0x354 SWAP2 SWAP1 PUSH2 0x2B4D JUMP JUMPDEST PUSH1 0x40 MLOAD DUP1 SWAP2 SUB SWAP1 RETURN JUMPDEST PUSH2 0x377 PUSH1 0x4 DUP1 CALLDATASIZE SUB DUP2 ADD SWAP1 PUSH2 0x372 SWAP2 SWAP1 PUSH2 0x2B07 JUMP JUMPDEST PUSH2 0x2577 JUMP JUMPDEST PUSH1 0x40 MLOAD PUSH2 0x388 SWAP6 SWAP5 SWAP4 SWAP3 SWAP2 SWAP1 PUSH2 0x2D29 JUMP JUMPDEST PUSH1 0x40 MLOAD DUP1 SWAP2 SUB SWAP1 RETURN JUMPDEST PUSH2 0x3AB PUSH1 0x4 DUP1 CALLDATASIZE SUB DUP2 ADD SWAP1 PUSH2 0x3A6 SWAP2 SWAP1 PUSH2 0x2B07 JUMP JUMPDEST PUSH2 0x25BA JUMP JUMPDEST STOP JUMPDEST TIMESTAMP PUSH1 0x6 PUSH1 0x0 DUP4 PUSH20 0xFFFFFFFFFFFFFFFFFFFFFFFFFFFFFFFFFFFFFFFF AND PUSH20 0xFFFFFFFFFFFFFFFFFFFFFFFFFFFFFFFFFFFFFFFF AND DUP2 MSTORE PUSH1 0x20 ADD SWAP1 DUP2 MSTORE PUSH1 0x20 ADD PUSH1 0x0 KECCAK256 PUSH1 0x1 ADD SLOAD PUSH1 0x3C PUSH1 0x1E PUSH1 0x6 PUSH1 0x0 DUP7 PUSH20 0xFFFFFFFFFFFFFFFFFFFFFFFFFFFFFFFFFFFFFFFF AND PUSH20 0xFFFFFFFFFFFFFFFFFFFFFFFFFFFFFFFFFFFFFFFF AND DUP2 MSTORE PUSH1 0x20 ADD SWAP1 DUP2 MSTORE PUSH1 0x20 ADD PUSH1 0x0 KECCAK256 PUSH1 0x2 ADD SLOAD PUSH2 0x442 SWAP2 SWAP1 PUSH2 0x2DAB JUMP JUMPDEST PUSH2 0x44C SWAP2 SWAP1 PUSH2 0x2DAB JUMP JUMPDEST PUSH2 0x456 SWAP2 SWAP1 PUSH2 0x2DED JUMP JUMPDEST LT PUSH2 0x496 JUMPI PUSH1 0x40 MLOAD PUSH32 0x8C379A000000000000000000000000000000000000000000000000000000000 DUP2 MSTORE PUSH1 0x4 ADD PUSH2 0x48D SWAP1 PUSH2 0x2EA4 JUMP JUMPDEST PUSH1 0x40 MLOAD DUP1 SWAP2 SUB SWAP1 REVERT JUMPDEST PUSH1 0x0 PUSH1 0x3C PUSH1 0x6 PUSH1 0x0 DUP5 PUSH20 0xFFFFFFFFFFFFFFFFFFFFFFFFFFFFFFFFFFFFFFFF AND PUSH20 0xFFFFFFFFFFFFFFFFFFFFFFFFFFFFFFFFFFFFFFFF AND DUP2 MSTORE PUSH1 0x20 ADD SWAP1 DUP2 MSTORE PUSH1 0x20 ADD PUSH1 0x0 KECCAK256 PUSH1 0x1 ADD SLOAD TIMESTAMP PUSH2 0x4E8 SWAP2 SWAP1 PUSH2 0x2EC4 JUMP JUMPDEST PUSH2 0x4F2 SWAP2 SWAP1 PUSH2 0x2F27 JUMP JUMPDEST SWAP1 POP PUSH1 0x0 PUSH1 0x1E PUSH1 0x6 PUSH1 0x0 DUP6 PUSH20 0xFFFFFFFFFFFFFFFFFFFFFFFFFFFFFFFFFFFFFFFF AND PUSH20 0xFFFFFFFFFFFFFFFFFFFFFFFFFFFFFFFFFFFFFFFF AND DUP2 MSTORE PUSH1 0x20 ADD SWAP1 DUP2 MSTORE PUSH1 0x20 ADD PUSH1 0x0 KECCAK256 PUSH1 0x2 ADD SLOAD PUSH2 0x545 SWAP2 SWAP1 PUSH2 0x2DAB JUMP JUMPDEST PUSH1 0x7 PUSH1 0x0 DUP6 PUSH20 0xFFFFFFFFFFFFFFFFFFFFFFFFFFFFFFFFFFFFFFFF AND PUSH20 0xFFFFFFFFFFFFFFFFFFFFFFFFFFFFFFFFFFFFFFFF AND DUP2 MSTORE PUSH1 0x20 ADD SWAP1 DUP2 MSTORE PUSH1 0x20 ADD PUSH1 0x0 KECCAK256 SLOAD PUSH2 0x58F SWAP2 SWAP1 PUSH2 0x2F27 JUMP JUMPDEST SWAP1 POP PUSH1 0x0 DUP3 DUP3 PUSH2 0x59F SWAP2 SWAP1 PUSH2 0x2DAB JUMP JUMPDEST SWAP1 POP DUP1 PUSH1 0x7 PUSH1 0x0 DUP7 PUSH20 0xFFFFFFFFFFFFFFFFFFFFFFFFFFFFFFFFFFFFFFFF AND PUSH20 0xFFFFFFFFFFFFFFFFFFFFFFFFFFFFFFFFFFFFFFFF AND DUP2 MSTORE PUSH1 0x20 ADD SWAP1 DUP2 MSTORE PUSH1 0x20 ADD PUSH1 0x0 KECCAK256 PUSH1 0x0 DUP3 DUP3 SLOAD PUSH2 0x5F0 SWAP2 SWAP1 PUSH2 0x2EC4 JUMP JUMPDEST SWAP3 POP POP DUP2 SWAP1 SSTORE POP PUSH1 0x1 PUSH1 0x0 SWAP1 SLOAD SWAP1 PUSH2 0x100 EXP SWAP1 DIV PUSH20 0xFFFFFFFFFFFFFFFFFFFFFFFFFFFFFFFFFFFFFFFF AND PUSH20 0xFFFFFFFFFFFFFFFFFFFFFFFFFFFFFFFFFFFFFFFF AND PUSH4 0xA9059CBB DUP6 DUP4 PUSH1 0x40 MLOAD DUP4 PUSH4 0xFFFFFFFF AND PUSH1 0xE0 SHL DUP2 MSTORE PUSH1 0x4 ADD PUSH2 0x654 SWAP3 SWAP2 SWAP1 PUSH2 0x2F58 JUMP JUMPDEST PUSH1 0x20 PUSH1 0x40 MLOAD DUP1 DUP4 SUB DUP2 PUSH1 0x0 DUP8 GAS CALL ISZERO DUP1 ISZERO PUSH2 0x673 JUMPI RETURNDATASIZE PUSH1 0x0 DUP1 RETURNDATACOPY RETURNDATASIZE PUSH1 0x0 REVERT JUMPDEST POP POP POP POP PUSH1 0x40 MLOAD RETURNDATASIZE PUSH1 0x1F NOT PUSH1 0x1F DUP3 ADD AND DUP3 ADD DUP1 PUSH1 0x40 MSTORE POP DUP2 ADD SWAP1 PUSH2 0x697 SWAP2 SWAP1 PUSH2 0x2FAD JUMP JUMPDEST POP POP POP POP POP JUMP JUMPDEST PUSH1 0xA PUSH1 0x20 MSTORE DUP1 PUSH1 0x0 MSTORE PUSH1 0x40 PUSH1 0x0 KECCAK256 PUSH1 0x0 SWAP2 POP SWAP1 POP SLOAD DUP2 JUMP JUMPDEST PUSH1 0x0 PUSH1 0xA PUSH1 0x0 PUSH1 0x2 PUSH1 0x0 SWAP1 SLOAD SWAP1 PUSH2 0x100 EXP SWAP1 DIV PUSH20 0xFFFFFFFFFFFFFFFFFFFFFFFFFFFFFFFFFFFFFFFF AND PUSH20 0xFFFFFFFFFFFFFFFFFFFFFFFFFFFFFFFFFFFFFFFF AND PUSH20 0xFFFFFFFFFFFFFFFFFFFFFFFFFFFFFFFFFFFFFFFF AND DUP2 MSTORE PUSH1 0x20 ADD SWAP1 DUP2 MSTORE PUSH1 0x20 ADD PUSH1 0x0 KECCAK256 SLOAD GT PUSH2 0x75A JUMPI PUSH1 0x40 MLOAD PUSH32 0x8C379A000000000000000000000000000000000000000000000000000000000 DUP2 MSTORE PUSH1 0x4 ADD PUSH2 0x751 SWAP1 PUSH2 0x3026 JUMP JUMPDEST PUSH1 0x40 MLOAD DUP1 SWAP2 SUB SWAP1 REVERT JUMPDEST PUSH1 0x0 PUSH8 0xDE0B6B3A7640000 DUP5 PUSH2 0x770 SWAP2 SWAP1 PUSH2 0x2DAB JUMP JUMPDEST SWAP1 POP PUSH1 0x6 PUSH1 0x0 DUP7 PUSH20 0xFFFFFFFFFFFFFFFFFFFFFFFFFFFFFFFFFFFFFFFF AND PUSH20 0xFFFFFFFFFFFFFFFFFFFFFFFFFFFFFFFFFFFFFFFF AND DUP2 MSTORE PUSH1 0x20 ADD SWAP1 DUP2 MSTORE PUSH1 0x20 ADD PUSH1 0x0 KECCAK256 PUSH1 0x4 ADD PUSH1 0x0 SWAP1 SLOAD SWAP1 PUSH2 0x100 EXP SWAP1 DIV PUSH1 0xFF AND ISZERO PUSH2 0xB7A JUMPI TIMESTAMP PUSH1 0x6 PUSH1 0x0 DUP8 PUSH20 0xFFFFFFFFFFFFFFFFFFFFFFFFFFFFFFFFFFFFFFFF AND PUSH20 0xFFFFFFFFFFFFFFFFFFFFFFFFFFFFFFFFFFFFFFFF AND DUP2 MSTORE PUSH1 0x20 ADD SWAP1 DUP2 MSTORE PUSH1 0x20 ADD PUSH1 0x0 KECCAK256 PUSH1 0x1 ADD SLOAD PUSH1 0x3C DUP1 PUSH1 0x18 PUSH1 0x1E PUSH1 0x6 PUSH1 0x0 DUP13 PUSH20 0xFFFFFFFFFFFFFFFFFFFFFFFFFFFFFFFFFFFFFFFF AND PUSH20 0xFFFFFFFFFFFFFFFFFFFFFFFFFFFFFFFFFFFFFFFF AND DUP2 MSTORE PUSH1 0x20 ADD SWAP1 DUP2 MSTORE PUSH1 0x20 ADD PUSH1 0x0 KECCAK256 PUSH1 0x2 ADD SLOAD PUSH2 0x85F SWAP2 SWAP1 PUSH2 0x2DAB JUMP JUMPDEST PUSH2 0x869 SWAP2 SWAP1 PUSH2 0x2DAB JUMP JUMPDEST PUSH2 0x873 SWAP2 SWAP1 PUSH2 0x2DAB JUMP JUMPDEST PUSH2 0x87D SWAP2 SWAP1 PUSH2 0x2DAB JUMP JUMPDEST PUSH2 0x887 SWAP2 SWAP1 PUSH2 0x2DED JUMP JUMPDEST GT PUSH2 0x8C7 JUMPI PUSH1 0x40 MLOAD PUSH32 0x8C379A000000000000000000000000000000000000000000000000000000000 DUP2 MSTORE PUSH1 0x4 ADD PUSH2 0x8BE SWAP1 PUSH2 0x3092 JUMP JUMPDEST PUSH1 0x40 MLOAD DUP1 SWAP2 SUB SWAP1 REVERT JUMPDEST DUP3 PUSH1 0x6 PUSH1 0x0 DUP8 PUSH20 0xFFFFFFFFFFFFFFFFFFFFFFFFFFFFFFFFFFFFFFFF AND PUSH20 0xFFFFFFFFFFFFFFFFFFFFFFFFFFFFFFFFFFFFFFFF AND DUP2 MSTORE PUSH1 0x20 ADD SWAP1 DUP2 MSTORE PUSH1 0x20 ADD PUSH1 0x0 KECCAK256 PUSH1 0x2 ADD SLOAD EQ PUSH2 0x94B JUMPI PUSH1 0x40 MLOAD PUSH32 0x8C379A000000000000000000000000000000000000000000000000000000000 DUP2 MSTORE PUSH1 0x4 ADD PUSH2 0x942 SWAP1 PUSH2 0x30FE JUMP JUMPDEST PUSH1 0x40 MLOAD DUP1 SWAP2 SUB SWAP1 REVERT JUMPDEST DUP2 PUSH1 0x6 PUSH1 0x0 DUP8 PUSH20 0xFFFFFFFFFFFFFFFFFFFFFFFFFFFFFFFFFFFFFFFF AND PUSH20 0xFFFFFFFFFFFFFFFFFFFFFFFFFFFFFFFFFFFFFFFF AND DUP2 MSTORE PUSH1 0x20 ADD SWAP1 DUP2 MSTORE PUSH1 0x20 ADD PUSH1 0x0 KECCAK256 PUSH1 0x3 ADD SLOAD EQ PUSH2 0x9CF JUMPI PUSH1 0x40 MLOAD PUSH32 0x8C379A000000000000000000000000000000000000000000000000000000000 DUP2 MSTORE PUSH1 0x4 ADD PUSH2 0x9C6 SWAP1 PUSH2 0x316A JUMP JUMPDEST PUSH1 0x40 MLOAD DUP1 SWAP2 SUB SWAP1 REVERT JUMPDEST DUP1 PUSH1 0x6 PUSH1 0x0 DUP8 PUSH20 0xFFFFFFFFFFFFFFFFFFFFFFFFFFFFFFFFFFFFFFFF AND PUSH20 0xFFFFFFFFFFFFFFFFFFFFFFFFFFFFFFFFFFFFFFFF AND DUP2 MSTORE PUSH1 0x20 ADD SWAP1 DUP2 MSTORE PUSH1 0x20 ADD PUSH1 0x0 KECCAK256 PUSH1 0x0 ADD SLOAD PUSH2 0xA1D SWAP2 SWAP1 PUSH2 0x2DED JUMP JUMPDEST PUSH1 0x6 PUSH1 0x0 DUP8 PUSH20 0xFFFFFFFFFFFFFFFFFFFFFFFFFFFFFFFFFFFFFFFF AND PUSH20 0xFFFFFFFFFFFFFFFFFFFFFFFFFFFFFFFFFFFFFFFF AND DUP2 MSTORE PUSH1 0x20 ADD SWAP1 DUP2 MSTORE PUSH1 0x20 ADD PUSH1 0x0 KECCAK256 PUSH1 0x0 ADD DUP2 SWAP1 SSTORE POP PUSH2 0x3E8 PUSH1 0x9 PUSH1 0x0 PUSH1 0x6 PUSH1 0x0 DUP10 PUSH20 0xFFFFFFFFFFFFFFFFFFFFFFFFFFFFFFFFFFFFFFFF AND PUSH20 0xFFFFFFFFFFFFFFFFFFFFFFFFFFFFFFFFFFFFFFFF AND DUP2 MSTORE PUSH1 0x20 ADD SWAP1 DUP2 MSTORE PUSH1 0x20 ADD PUSH1 0x0 KECCAK256 PUSH1 0x2 ADD SLOAD DUP2 MSTORE PUSH1 0x20 ADD SWAP1 DUP2 MSTORE PUSH1 0x20 ADD PUSH1 0x0 KECCAK256 SLOAD DUP3 PUSH2 0xAC7 SWAP2 SWAP1 PUSH2 0x2DAB JUMP JUMPDEST PUSH2 0xAD1 SWAP2 SWAP1 PUSH2 0x2F27 JUMP JUMPDEST PUSH1 0x7 PUSH1 0x0 DUP8 PUSH20 0xFFFFFFFFFFFFFFFFFFFFFFFFFFFFFFFFFFFFFFFF AND PUSH20 0xFFFFFFFFFFFFFFFFFFFFFFFFFFFFFFFFFFFFFFFF AND DUP2 MSTORE PUSH1 0x20 ADD SWAP1 DUP2 MSTORE PUSH1 0x20 ADD PUSH1 0x0 KECCAK256 PUSH1 0x0 DUP3 DUP3 SLOAD PUSH2 0xB1F SWAP2 SWAP1 PUSH2 0x2DED JUMP JUMPDEST SWAP3 POP POP DUP2 SWAP1 SSTORE POP PUSH2 0xB75 DUP6 ADDRESS DUP4 PUSH1 0x1 PUSH1 0x0 SWAP1 SLOAD SWAP1 PUSH2 0x100 EXP SWAP1 DIV PUSH20 0xFFFFFFFFFFFFFFFFFFFFFFFFFFFFFFFFFFFFFFFF AND PUSH20 0xFFFFFFFFFFFFFFFFFFFFFFFFFFFFFFFFFFFFFFFF AND PUSH2 0x263D SWAP1 SWAP4 SWAP3 SWAP2 SWAP1 PUSH4 0xFFFFFFFF AND JUMP JUMPDEST PUSH2 0x1026 JUMP JUMPDEST PUSH1 0x8 PUSH1 0x0 PUSH1 0x1 DUP2 MSTORE PUSH1 0x20 ADD SWAP1 DUP2 MSTORE PUSH1 0x20 ADD PUSH1 0x0 KECCAK256 SLOAD DUP4 EQ DUP1 PUSH2 0xBAF JUMPI POP PUSH1 0x8 PUSH1 0x0 PUSH1 0x2 DUP2 MSTORE PUSH1 0x20 ADD SWAP1 DUP2 MSTORE PUSH1 0x20 ADD PUSH1 0x0 KECCAK256 SLOAD DUP4 EQ JUMPDEST DUP1 PUSH2 0xBCD JUMPI POP PUSH1 0x8 PUSH1 0x0 PUSH1 0x3 DUP2 MSTORE PUSH1 0x20 ADD SWAP1 DUP2 MSTORE PUSH1 0x20 ADD PUSH1 0x0 KECCAK256 SLOAD DUP4 EQ JUMPDEST PUSH2 0xC0C JUMPI PUSH1 0x40 MLOAD PUSH32 0x8C379A000000000000000000000000000000000000000000000000000000000 DUP2 MSTORE PUSH1 0x4 ADD PUSH2 0xC03 SWAP1 PUSH2 0x30FE JUMP JUMPDEST PUSH1 0x40 MLOAD DUP1 SWAP2 SUB SWAP1 REVERT JUMPDEST PUSH1 0x64 DUP3 EQ DUP1 PUSH2 0xC1B JUMPI POP PUSH1 0x4B DUP3 EQ JUMPDEST DUP1 PUSH2 0xC26 JUMPI POP PUSH1 0x32 DUP3 EQ JUMPDEST PUSH2 0xC65 JUMPI PUSH1 0x40 MLOAD PUSH32 0x8C379A000000000000000000000000000000000000000000000000000000000 DUP2 MSTORE PUSH1 0x4 ADD PUSH2 0xC5C SWAP1 PUSH2 0x316A JUMP JUMPDEST PUSH1 0x40 MLOAD DUP1 SWAP2 SUB SWAP1 REVERT JUMPDEST PUSH1 0x0 PUSH2 0x3E8 PUSH1 0x4 SLOAD DUP4 PUSH2 0xC78 SWAP2 SWAP1 PUSH2 0x2DAB JUMP JUMPDEST PUSH2 0xC82 SWAP2 SWAP1 PUSH2 0x2F27 JUMP JUMPDEST SWAP1 POP PUSH1 0x40 MLOAD DUP1 PUSH1 0xA0 ADD PUSH1 0x40 MSTORE DUP1 DUP3 DUP5 PUSH2 0xC9B SWAP2 SWAP1 PUSH2 0x2EC4 JUMP JUMPDEST DUP2 MSTORE PUSH1 0x20 ADD TIMESTAMP DUP2 MSTORE PUSH1 0x20 ADD DUP6 DUP2 MSTORE PUSH1 0x20 ADD DUP5 DUP2 MSTORE PUSH1 0x20 ADD PUSH1 0x1 ISZERO ISZERO DUP2 MSTORE POP PUSH1 0x6 PUSH1 0x0 DUP9 PUSH20 0xFFFFFFFFFFFFFFFFFFFFFFFFFFFFFFFFFFFFFFFF AND PUSH20 0xFFFFFFFFFFFFFFFFFFFFFFFFFFFFFFFFFFFFFFFF AND DUP2 MSTORE PUSH1 0x20 ADD SWAP1 DUP2 MSTORE PUSH1 0x20 ADD PUSH1 0x0 KECCAK256 PUSH1 0x0 DUP3 ADD MLOAD DUP2 PUSH1 0x0 ADD SSTORE PUSH1 0x20 DUP3 ADD MLOAD DUP2 PUSH1 0x1 ADD SSTORE PUSH1 0x40 DUP3 ADD MLOAD DUP2 PUSH1 0x2 ADD SSTORE PUSH1 0x60 DUP3 ADD MLOAD DUP2 PUSH1 0x3 ADD SSTORE PUSH1 0x80 DUP3 ADD MLOAD DUP2 PUSH1 0x4 ADD PUSH1 0x0 PUSH2 0x100 EXP DUP2 SLOAD DUP2 PUSH1 0xFF MUL NOT AND SWAP1 DUP4 ISZERO ISZERO MUL OR SWAP1 SSTORE POP SWAP1 POP POP PUSH1 0x8 PUSH1 0x0 PUSH1 0x1 DUP2 MSTORE PUSH1 0x20 ADD SWAP1 DUP2 MSTORE PUSH1 0x20 ADD PUSH1 0x0 KECCAK256 SLOAD PUSH1 0x6 PUSH1 0x0 DUP9 PUSH20 0xFFFFFFFFFFFFFFFFFFFFFFFFFFFFFFFFFFFFFFFF AND PUSH20 0xFFFFFFFFFFFFFFFFFFFFFFFFFFFFFFFFFFFFFFFF AND DUP2 MSTORE PUSH1 0x20 ADD SWAP1 DUP2 MSTORE PUSH1 0x20 ADD PUSH1 0x0 KECCAK256 PUSH1 0x2 ADD SLOAD SUB PUSH2 0xE1F JUMPI PUSH2 0x3E8 PUSH1 0x9 PUSH1 0x0 DUP7 DUP2 MSTORE PUSH1 0x20 ADD SWAP1 DUP2 MSTORE PUSH1 0x20 ADD PUSH1 0x0 KECCAK256 SLOAD DUP3 DUP5 PUSH2 0xDC3 SWAP2 SWAP1 PUSH2 0x2EC4 JUMP JUMPDEST PUSH2 0xDCD SWAP2 SWAP1 PUSH2 0x2DAB JUMP JUMPDEST PUSH2 0xDD7 SWAP2 SWAP1 PUSH2 0x2F27 JUMP JUMPDEST PUSH1 0x7 PUSH1 0x0 DUP9 PUSH20 0xFFFFFFFFFFFFFFFFFFFFFFFFFFFFFFFFFFFFFFFF AND PUSH20 0xFFFFFFFFFFFFFFFFFFFFFFFFFFFFFFFFFFFFFFFF AND DUP2 MSTORE PUSH1 0x20 ADD SWAP1 DUP2 MSTORE PUSH1 0x20 ADD PUSH1 0x0 KECCAK256 DUP2 SWAP1 SSTORE POP PUSH2 0xFD5 JUMP JUMPDEST PUSH1 0x8 PUSH1 0x0 PUSH1 0x2 DUP2 MSTORE PUSH1 0x20 ADD SWAP1 DUP2 MSTORE PUSH1 0x20 ADD PUSH1 0x0 KECCAK256 SLOAD PUSH1 0x6 PUSH1 0x0 DUP9 PUSH20 0xFFFFFFFFFFFFFFFFFFFFFFFFFFFFFFFFFFFFFFFF AND PUSH20 0xFFFFFFFFFFFFFFFFFFFFFFFFFFFFFFFFFFFFFFFF AND DUP2 MSTORE PUSH1 0x20 ADD SWAP1 DUP2 MSTORE PUSH1 0x20 ADD PUSH1 0x0 KECCAK256 PUSH1 0x2 ADD SLOAD SUB PUSH2 0xEFB JUMPI PUSH2 0x3E8 PUSH1 0x9 PUSH1 0x0 DUP7 DUP2 MSTORE PUSH1 0x20 ADD SWAP1 DUP2 MSTORE PUSH1 0x20 ADD PUSH1 0x0 KECCAK256 SLOAD DUP3 DUP5 PUSH2 0xE9F SWAP2 SWAP1 PUSH2 0x2EC4 JUMP JUMPDEST PUSH2 0xEA9 SWAP2 SWAP1 PUSH2 0x2DAB JUMP JUMPDEST PUSH2 0xEB3 SWAP2 SWAP1 PUSH2 0x2F27 JUMP JUMPDEST PUSH1 0x7 PUSH1 0x0 DUP9 PUSH20 0xFFFFFFFFFFFFFFFFFFFFFFFFFFFFFFFFFFFFFFFF AND PUSH20 0xFFFFFFFFFFFFFFFFFFFFFFFFFFFFFFFFFFFFFFFF AND DUP2 MSTORE PUSH1 0x20 ADD SWAP1 DUP2 MSTORE PUSH1 0x20 ADD PUSH1 0x0 KECCAK256 DUP2 SWAP1 SSTORE POP PUSH2 0xFD4 JUMP JUMPDEST PUSH1 0x8 PUSH1 0x0 PUSH1 0x3 DUP2 MSTORE PUSH1 0x20 ADD SWAP1 DUP2 MSTORE PUSH1 0x20 ADD PUSH1 0x0 KECCAK256 SLOAD PUSH1 0x6 PUSH1 0x0 DUP9 PUSH20 0xFFFFFFFFFFFFFFFFFFFFFFFFFFFFFFFFFFFFFFFF AND PUSH20 0xFFFFFFFFFFFFFFFFFFFFFFFFFFFFFFFFFFFFFFFF AND DUP2 MSTORE PUSH1 0x20 ADD SWAP1 DUP2 MSTORE PUSH1 0x20 ADD PUSH1 0x0 KECCAK256 PUSH1 0x2 ADD SLOAD SUB PUSH2 0xFD3 JUMPI PUSH2 0x3E8 PUSH1 0x9 PUSH1 0x0 DUP7 DUP2 MSTORE PUSH1 0x20 ADD SWAP1 DUP2 MSTORE PUSH1 0x20 ADD PUSH1 0x0 KECCAK256 SLOAD DUP3 DUP5 PUSH2 0xF7B SWAP2 SWAP1 PUSH2 0x2EC4 JUMP JUMPDEST PUSH2 0xF85 SWAP2 SWAP1 PUSH2 0x2DAB JUMP JUMPDEST PUSH2 0xF8F SWAP2 SWAP1 PUSH2 0x2F27 JUMP JUMPDEST PUSH1 0x7 PUSH1 0x0 DUP9 PUSH20 0xFFFFFFFFFFFFFFFFFFFFFFFFFFFFFFFFFFFFFFFF AND PUSH20 0xFFFFFFFFFFFFFFFFFFFFFFFFFFFFFFFFFFFFFFFF AND DUP2 MSTORE PUSH1 0x20 ADD SWAP1 DUP2 MSTORE PUSH1 0x20 ADD PUSH1 0x0 KECCAK256 DUP2 SWAP1 SSTORE POP JUMPDEST JUMPDEST JUMPDEST PUSH2 0x1024 DUP7 ADDRESS DUP5 PUSH1 0x1 PUSH1 0x0 SWAP1 SLOAD SWAP1 PUSH2 0x100 EXP SWAP1 DIV PUSH20 0xFFFFFFFFFFFFFFFFFFFFFFFFFFFFFFFFFFFFFFFF AND PUSH20 0xFFFFFFFFFFFFFFFFFFFFFFFFFFFFFFFFFFFFFFFF AND PUSH2 0x263D SWAP1 SWAP4 SWAP3 SWAP2 SWAP1 PUSH4 0xFFFFFFFF AND JUMP JUMPDEST POP JUMPDEST DUP1 PUSH1 0xA PUSH1 0x0 DUP8 PUSH20 0xFFFFFFFFFFFFFFFFFFFFFFFFFFFFFFFFFFFFFFFF AND PUSH20 0xFFFFFFFFFFFFFFFFFFFFFFFFFFFFFFFFFFFFFFFF AND DUP2 MSTORE PUSH1 0x20 ADD SWAP1 DUP2 MSTORE PUSH1 0x20 ADD PUSH1 0x0 KECCAK256 PUSH1 0x0 DUP3 DUP3 SLOAD PUSH2 0x1075 SWAP2 SWAP1 PUSH2 0x2DED JUMP JUMPDEST SWAP3 POP POP DUP2 SWAP1 SSTORE POP DUP1 PUSH1 0x3 PUSH1 0x0 DUP3 DUP3 SLOAD PUSH2 0x108E SWAP2 SWAP1 PUSH2 0x2DED JUMP JUMPDEST SWAP3 POP POP DUP2 SWAP1 SSTORE POP POP POP POP POP POP JUMP JUMPDEST PUSH1 0x8 PUSH1 0x20 MSTORE DUP1 PUSH1 0x0 MSTORE PUSH1 0x40 PUSH1 0x0 KECCAK256 PUSH1 0x0 SWAP2 POP SWAP1 POP SLOAD DUP2 JUMP JUMPDEST PUSH2 0x10BC PUSH2 0x26C6 JUMP JUMPDEST DUP3 PUSH1 0x8 PUSH1 0x0 PUSH1 0x1 DUP2 MSTORE PUSH1 0x20 ADD SWAP1 DUP2 MSTORE PUSH1 0x20 ADD PUSH1 0x0 KECCAK256 DUP2 SWAP1 SSTORE POP DUP2 PUSH1 0x8 PUSH1 0x0 PUSH1 0x2 DUP2 MSTORE PUSH1 0x20 ADD SWAP1 DUP2 MSTORE PUSH1 0x20 ADD PUSH1 0x0 KECCAK256 DUP2 SWAP1 SSTORE POP DUP1 PUSH1 0x8 PUSH1 0x0 PUSH1 0x3 DUP2 MSTORE PUSH1 0x20 ADD SWAP1 DUP2 MSTORE PUSH1 0x20 ADD PUSH1 0x0 KECCAK256 DUP2 SWAP1 SSTORE POP POP POP POP JUMP JUMPDEST DUP2 PUSH1 0x4 DUP2 SWAP1 SSTORE POP DUP1 PUSH1 0x5 DUP2 SWAP1 SSTORE POP POP POP JUMP JUMPDEST PUSH1 0x0 DUP1 PUSH1 0x4 SLOAD PUSH1 0x5 SLOAD SWAP2 POP SWAP2 POP SWAP1 SWAP2 JUMP JUMPDEST PUSH1 0x3 SLOAD DUP2 JUMP JUMPDEST PUSH1 0x7 PUSH1 0x20 MSTORE DUP1 PUSH1 0x0 MSTORE PUSH1 0x40 PUSH1 0x0 KECCAK256 PUSH1 0x0 SWAP2 POP SWAP1 POP SLOAD DUP2 JUMP JUMPDEST PUSH2 0x1155 PUSH2 0x26C6 JUMP JUMPDEST PUSH2 0x115F PUSH1 0x0 PUSH2 0x2744 JUMP JUMPDEST JUMP JUMPDEST PUSH1 0x9 PUSH1 0x20 MSTORE DUP1 PUSH1 0x0 MSTORE PUSH1 0x40 PUSH1 0x0 KECCAK256 PUSH1 0x0 SWAP2 POP SWAP1 POP SLOAD DUP2 JUMP JUMPDEST PUSH1 0x0 DUP1 PUSH1 0x0 SWAP1 SLOAD SWAP1 PUSH2 0x100 EXP SWAP1 DIV PUSH20 0xFFFFFFFFFFFFFFFFFFFFFFFFFFFFFFFFFFFFFFFF AND SWAP1 POP SWAP1 JUMP JUMPDEST PUSH1 0x6 PUSH1 0x0 DUP3 PUSH20 0xFFFFFFFFFFFFFFFFFFFFFFFFFFFFFFFFFFFFFFFF AND PUSH20 0xFFFFFFFFFFFFFFFFFFFFFFFFFFFFFFFFFFFFFFFF AND DUP2 MSTORE PUSH1 0x20 ADD SWAP1 DUP2 MSTORE PUSH1 0x20 ADD PUSH1 0x0 KECCAK256 PUSH1 0x4 ADD PUSH1 0x0 SWAP1 SLOAD SWAP1 PUSH2 0x100 EXP SWAP1 DIV PUSH1 0xFF AND PUSH2 0x1231 JUMPI PUSH1 0x40 MLOAD PUSH32 0x8C379A000000000000000000000000000000000000000000000000000000000 DUP2 MSTORE PUSH1 0x4 ADD PUSH2 0x1228 SWAP1 PUSH2 0x31D6 JUMP JUMPDEST PUSH1 0x40 MLOAD DUP1 SWAP2 SUB SWAP1 REVERT JUMPDEST PUSH1 0x0 DUP1 TIMESTAMP PUSH1 0x6 PUSH1 0x0 DUP6 PUSH20 0xFFFFFFFFFFFFFFFFFFFFFFFFFFFFFFFFFFFFFFFF AND PUSH20 0xFFFFFFFFFFFFFFFFFFFFFFFFFFFFFFFFFFFFFFFF AND DUP2 MSTORE PUSH1 0x20 ADD SWAP1 DUP2 MSTORE PUSH1 0x20 ADD PUSH1 0x0 KECCAK256 PUSH1 0x1 ADD SLOAD PUSH1 0x3C PUSH1 0x1E PUSH1 0x6 PUSH1 0x0 DUP9 PUSH20 0xFFFFFFFFFFFFFFFFFFFFFFFFFFFFFFFFFFFFFFFF AND PUSH20 0xFFFFFFFFFFFFFFFFFFFFFFFFFFFFFFFFFFFFFFFF AND DUP2 MSTORE PUSH1 0x20 ADD SWAP1 DUP2 MSTORE PUSH1 0x20 ADD PUSH1 0x0 KECCAK256 PUSH1 0x2 ADD SLOAD PUSH2 0x12C9 SWAP2 SWAP1 PUSH2 0x2DAB JUMP JUMPDEST PUSH2 0x12D3 SWAP2 SWAP1 PUSH2 0x2DAB JUMP JUMPDEST PUSH2 0x12DD SWAP2 SWAP1 PUSH2 0x2DED JUMP JUMPDEST LT ISZERO PUSH2 0x198A JUMPI PUSH1 0x64 PUSH1 0x6 PUSH1 0x0 DUP6 PUSH20 0xFFFFFFFFFFFFFFFFFFFFFFFFFFFFFFFFFFFFFFFF AND PUSH20 0xFFFFFFFFFFFFFFFFFFFFFFFFFFFFFFFFFFFFFFFF AND DUP2 MSTORE PUSH1 0x20 ADD SWAP1 DUP2 MSTORE PUSH1 0x20 ADD PUSH1 0x0 KECCAK256 PUSH1 0x3 ADD SLOAD SUB PUSH2 0x145F JUMPI PUSH1 0x1 PUSH1 0x0 SWAP1 SLOAD SWAP1 PUSH2 0x100 EXP SWAP1 DIV PUSH20 0xFFFFFFFFFFFFFFFFFFFFFFFFFFFFFFFFFFFFFFFF AND PUSH20 0xFFFFFFFFFFFFFFFFFFFFFFFFFFFFFFFFFFFFFFFF AND PUSH4 0xA9059CBB DUP5 PUSH1 0x7 PUSH1 0x0 DUP8 PUSH20 0xFFFFFFFFFFFFFFFFFFFFFFFFFFFFFFFFFFFFFFFF AND PUSH20 0xFFFFFFFFFFFFFFFFFFFFFFFFFFFFFFFFFFFFFFFF AND DUP2 MSTORE PUSH1 0x20 ADD SWAP1 DUP2 MSTORE PUSH1 0x20 ADD PUSH1 0x0 KECCAK256 SLOAD PUSH1 0x6 PUSH1 0x0 DUP9 PUSH20 0xFFFFFFFFFFFFFFFFFFFFFFFFFFFFFFFFFFFFFFFF AND PUSH20 0xFFFFFFFFFFFFFFFFFFFFFFFFFFFFFFFFFFFFFFFF AND DUP2 MSTORE PUSH1 0x20 ADD SWAP1 DUP2 MSTORE PUSH1 0x20 ADD PUSH1 0x0 KECCAK256 PUSH1 0x0 ADD SLOAD PUSH2 0x13F9 SWAP2 SWAP1 PUSH2 0x2DED JUMP JUMPDEST PUSH1 0x40 MLOAD DUP4 PUSH4 0xFFFFFFFF AND PUSH1 0xE0 SHL DUP2 MSTORE PUSH1 0x4 ADD PUSH2 0x1416 SWAP3 SWAP2 SWAP1 PUSH2 0x2F58 JUMP JUMPDEST PUSH1 0x20 PUSH1 0x40 MLOAD DUP1 DUP4 SUB DUP2 PUSH1 0x0 DUP8 GAS CALL ISZERO DUP1 ISZERO PUSH2 0x1435 JUMPI RETURNDATASIZE PUSH1 0x0 DUP1 RETURNDATACOPY RETURNDATASIZE PUSH1 0x0 REVERT JUMPDEST POP POP POP POP PUSH1 0x40 MLOAD RETURNDATASIZE PUSH1 0x1F NOT PUSH1 0x1F DUP3 ADD AND DUP3 ADD DUP1 PUSH1 0x40 MSTORE POP DUP2 ADD SWAP1 PUSH2 0x1459 SWAP2 SWAP1 PUSH2 0x2FAD JUMP JUMPDEST POP PUSH2 0x1985 JUMP JUMPDEST PUSH1 0x4B PUSH1 0x6 PUSH1 0x0 DUP6 PUSH20 0xFFFFFFFFFFFFFFFFFFFFFFFFFFFFFFFFFFFFFFFF AND PUSH20 0xFFFFFFFFFFFFFFFFFFFFFFFFFFFFFFFFFFFFFFFF AND DUP2 MSTORE PUSH1 0x20 ADD SWAP1 DUP2 MSTORE PUSH1 0x20 ADD PUSH1 0x0 KECCAK256 PUSH1 0x3 ADD SLOAD SUB PUSH2 0x16F3 JUMPI PUSH1 0x64 PUSH1 0x4B PUSH1 0x7 PUSH1 0x0 DUP7 PUSH20 0xFFFFFFFFFFFFFFFFFFFFFFFFFFFFFFFFFFFFFFFF AND PUSH20 0xFFFFFFFFFFFFFFFFFFFFFFFFFFFFFFFFFFFFFFFF AND DUP2 MSTORE PUSH1 0x20 ADD SWAP1 DUP2 MSTORE PUSH1 0x20 ADD PUSH1 0x0 KECCAK256 SLOAD PUSH2 0x14F7 SWAP2 SWAP1 PUSH2 0x2DAB JUMP JUMPDEST PUSH2 0x1501 SWAP2 SWAP1 PUSH2 0x2F27 JUMP JUMPDEST SWAP2 POP PUSH1 0x1 PUSH1 0x0 SWAP1 SLOAD SWAP1 PUSH2 0x100 EXP SWAP1 DIV PUSH20 0xFFFFFFFFFFFFFFFFFFFFFFFFFFFFFFFFFFFFFFFF AND PUSH20 0xFFFFFFFFFFFFFFFFFFFFFFFFFFFFFFFFFFFFFFFF AND PUSH4 0xA9059CBB DUP5 DUP5 PUSH1 0x6 PUSH1 0x0 DUP9 PUSH20 0xFFFFFFFFFFFFFFFFFFFFFFFFFFFFFFFFFFFFFFFF AND PUSH20 0xFFFFFFFFFFFFFFFFFFFFFFFFFFFFFFFFFFFFFFFF AND DUP2 MSTORE PUSH1 0x20 ADD SWAP1 DUP2 MSTORE PUSH1 0x20 ADD PUSH1 0x0 KECCAK256 PUSH1 0x0 ADD SLOAD PUSH2 0x1590 SWAP2 SWAP1 PUSH2 0x2DED JUMP JUMPDEST PUSH1 0x40 MLOAD DUP4 PUSH4 0xFFFFFFFF AND PUSH1 0xE0 SHL DUP2 MSTORE PUSH1 0x4 ADD PUSH2 0x15AD SWAP3 SWAP2 SWAP1 PUSH2 0x2F58 JUMP JUMPDEST PUSH1 0x20 PUSH1 0x40 MLOAD DUP1 DUP4 SUB DUP2 PUSH1 0x0 DUP8 GAS CALL ISZERO DUP1 ISZERO PUSH2 0x15CC JUMPI RETURNDATASIZE PUSH1 0x0 DUP1 RETURNDATACOPY RETURNDATASIZE PUSH1 0x0 REVERT JUMPDEST POP POP POP POP PUSH1 0x40 MLOAD RETURNDATASIZE PUSH1 0x1F NOT PUSH1 0x1F DUP3 ADD AND DUP3 ADD DUP1 PUSH1 0x40 MSTORE POP DUP2 ADD SWAP1 PUSH2 0x15F0 SWAP2 SWAP1 PUSH2 0x2FAD JUMP JUMPDEST POP PUSH1 0x64 PUSH1 0x19 PUSH1 0x7 PUSH1 0x0 DUP7 PUSH20 0xFFFFFFFFFFFFFFFFFFFFFFFFFFFFFFFFFFFFFFFF AND PUSH20 0xFFFFFFFFFFFFFFFFFFFFFFFFFFFFFFFFFFFFFFFF AND DUP2 MSTORE PUSH1 0x20 ADD SWAP1 DUP2 MSTORE PUSH1 0x20 ADD PUSH1 0x0 KECCAK256 SLOAD PUSH2 0x163F SWAP2 SWAP1 PUSH2 0x2DAB JUMP JUMPDEST PUSH2 0x1649 SWAP2 SWAP1 PUSH2 0x2F27 JUMP JUMPDEST SWAP1 POP PUSH1 0x1 PUSH1 0x0 SWAP1 SLOAD SWAP1 PUSH2 0x100 EXP SWAP1 DIV PUSH20 0xFFFFFFFFFFFFFFFFFFFFFFFFFFFFFFFFFFFFFFFF AND PUSH20 0xFFFFFFFFFFFFFFFFFFFFFFFFFFFFFFFFFFFFFFFF AND PUSH4 0xA9059CBB PUSH2 0xDEAD DUP4 PUSH1 0x40 MLOAD DUP4 PUSH4 0xFFFFFFFF AND PUSH1 0xE0 SHL DUP2 MSTORE PUSH1 0x4 ADD PUSH2 0x16AA SWAP3 SWAP2 SWAP1 PUSH2 0x2F58 JUMP JUMPDEST PUSH1 0x20 PUSH1 0x40 MLOAD DUP1 DUP4 SUB DUP2 PUSH1 0x0 DUP8 GAS CALL ISZERO DUP1 ISZERO PUSH2 0x16C9 JUMPI RETURNDATASIZE PUSH1 0x0 DUP1 RETURNDATACOPY RETURNDATASIZE PUSH1 0x0 REVERT JUMPDEST POP POP POP POP PUSH1 0x40 MLOAD RETURNDATASIZE PUSH1 0x1F NOT PUSH1 0x1F DUP3 ADD AND DUP3 ADD DUP1 PUSH1 0x40 MSTORE POP DUP2 ADD SWAP1 PUSH2 0x16ED SWAP2 SWAP1 PUSH2 0x2FAD JUMP JUMPDEST POP PUSH2 0x1984 JUMP JUMPDEST PUSH1 0x32 PUSH1 0x6 PUSH1 0x0 DUP6 PUSH20 0xFFFFFFFFFFFFFFFFFFFFFFFFFFFFFFFFFFFFFFFF AND PUSH20 0xFFFFFFFFFFFFFFFFFFFFFFFFFFFFFFFFFFFFFFFF AND DUP2 MSTORE PUSH1 0x20 ADD SWAP1 DUP2 MSTORE PUSH1 0x20 ADD PUSH1 0x0 KECCAK256 PUSH1 0x3 ADD SLOAD SUB PUSH2 0x1983 JUMPI PUSH1 0x64 PUSH1 0x32 PUSH1 0x7 PUSH1 0x0 DUP7 PUSH20 0xFFFFFFFFFFFFFFFFFFFFFFFFFFFFFFFFFFFFFFFF AND PUSH20 0xFFFFFFFFFFFFFFFFFFFFFFFFFFFFFFFFFFFFFFFF AND DUP2 MSTORE PUSH1 0x20 ADD SWAP1 DUP2 MSTORE PUSH1 0x20 ADD PUSH1 0x0 KECCAK256 SLOAD PUSH2 0x178B SWAP2 SWAP1 PUSH2 0x2DAB JUMP JUMPDEST PUSH2 0x1795 SWAP2 SWAP1 PUSH2 0x2F27 JUMP JUMPDEST SWAP2 POP PUSH1 0x1 PUSH1 0x0 SWAP1 SLOAD SWAP1 PUSH2 0x100 EXP SWAP1 DIV PUSH20 0xFFFFFFFFFFFFFFFFFFFFFFFFFFFFFFFFFFFFFFFF AND PUSH20 0xFFFFFFFFFFFFFFFFFFFFFFFFFFFFFFFFFFFFFFFF AND PUSH4 0xA9059CBB DUP5 DUP5 PUSH1 0x6 PUSH1 0x0 DUP9 PUSH20 0xFFFFFFFFFFFFFFFFFFFFFFFFFFFFFFFFFFFFFFFF AND PUSH20 0xFFFFFFFFFFFFFFFFFFFFFFFFFFFFFFFFFFFFFFFF AND DUP2 MSTORE PUSH1 0x20 ADD SWAP1 DUP2 MSTORE PUSH1 0x20 ADD PUSH1 0x0 KECCAK256 PUSH1 0x0 ADD SLOAD PUSH2 0x1824 SWAP2 SWAP1 PUSH2 0x2DED JUMP JUMPDEST PUSH1 0x40 MLOAD DUP4 PUSH4 0xFFFFFFFF AND PUSH1 0xE0 SHL DUP2 MSTORE PUSH1 0x4 ADD PUSH2 0x1841 SWAP3 SWAP2 SWAP1 PUSH2 0x2F58 JUMP JUMPDEST PUSH1 0x20 PUSH1 0x40 MLOAD DUP1 DUP4 SUB DUP2 PUSH1 0x0 DUP8 GAS CALL ISZERO DUP1 ISZERO PUSH2 0x1860 JUMPI RETURNDATASIZE PUSH1 0x0 DUP1 RETURNDATACOPY RETURNDATASIZE PUSH1 0x0 REVERT JUMPDEST POP POP POP POP PUSH1 0x40 MLOAD RETURNDATASIZE PUSH1 0x1F NOT PUSH1 0x1F DUP3 ADD AND DUP3 ADD DUP1 PUSH1 0x40 MSTORE POP DUP2 ADD SWAP1 PUSH2 0x1884 SWAP2 SWAP1 PUSH2 0x2FAD JUMP JUMPDEST POP PUSH1 0x64 PUSH1 0x32 PUSH1 0x7 PUSH1 0x0 DUP7 PUSH20 0xFFFFFFFFFFFFFFFFFFFFFFFFFFFFFFFFFFFFFFFF AND PUSH20 0xFFFFFFFFFFFFFFFFFFFFFFFFFFFFFFFFFFFFFFFF AND DUP2 MSTORE PUSH1 0x20 ADD SWAP1 DUP2 MSTORE PUSH1 0x20 ADD PUSH1 0x0 KECCAK256 SLOAD PUSH2 0x18D3 SWAP2 SWAP1 PUSH2 0x2DAB JUMP JUMPDEST PUSH2 0x18DD SWAP2 SWAP1 PUSH2 0x2F27 JUMP JUMPDEST SWAP1 POP PUSH1 0x1 PUSH1 0x0 SWAP1 SLOAD SWAP1 PUSH2 0x100 EXP SWAP1 DIV PUSH20 0xFFFFFFFFFFFFFFFFFFFFFFFFFFFFFFFFFFFFFFFF AND PUSH20 0xFFFFFFFFFFFFFFFFFFFFFFFFFFFFFFFFFFFFFFFF AND PUSH4 0xA9059CBB PUSH2 0xDEAD DUP4 PUSH1 0x40 MLOAD DUP4 PUSH4 0xFFFFFFFF AND PUSH1 0xE0 SHL DUP2 MSTORE PUSH1 0x4 ADD PUSH2 0x193E SWAP3 SWAP2 SWAP1 PUSH2 0x2F58 JUMP JUMPDEST PUSH1 0x20 PUSH1 0x40 MLOAD DUP1 DUP4 SUB DUP2 PUSH1 0x0 DUP8 GAS CALL ISZERO DUP1 ISZERO PUSH2 0x195D JUMPI RETURNDATASIZE PUSH1 0x0 DUP1 RETURNDATACOPY RETURNDATASIZE PUSH1 0x0 REVERT JUMPDEST POP POP POP POP PUSH1 0x40 MLOAD RETURNDATASIZE PUSH1 0x1F NOT PUSH1 0x1F DUP3 ADD AND DUP3 ADD DUP1 PUSH1 0x40 MSTORE POP DUP2 ADD SWAP1 PUSH2 0x1981 SWAP2 SWAP1 PUSH2 0x2FAD JUMP JUMPDEST POP JUMPDEST JUMPDEST JUMPDEST PUSH2 0x20AE JUMP JUMPDEST PUSH1 0x0 DUP1 PUSH1 0x0 DUP1 PUSH1 0x3C PUSH1 0x6 PUSH1 0x0 DUP10 PUSH20 0xFFFFFFFFFFFFFFFFFFFFFFFFFFFFFFFFFFFFFFFF AND PUSH20 0xFFFFFFFFFFFFFFFFFFFFFFFFFFFFFFFFFFFFFFFF AND DUP2 MSTORE PUSH1 0x20 ADD SWAP1 DUP2 MSTORE PUSH1 0x20 ADD PUSH1 0x0 KECCAK256 PUSH1 0x1 ADD SLOAD TIMESTAMP PUSH2 0x19E0 SWAP2 SWAP1 PUSH2 0x2EC4 JUMP JUMPDEST PUSH2 0x19EA SWAP2 SWAP1 PUSH2 0x2F27 JUMP JUMPDEST SWAP1 POP PUSH1 0x1E PUSH1 0x6 PUSH1 0x0 DUP10 PUSH20 0xFFFFFFFFFFFFFFFFFFFFFFFFFFFFFFFFFFFFFFFF AND PUSH20 0xFFFFFFFFFFFFFFFFFFFFFFFFFFFFFFFFFFFFFFFF AND DUP2 MSTORE PUSH1 0x20 ADD SWAP1 DUP2 MSTORE PUSH1 0x20 ADD PUSH1 0x0 KECCAK256 PUSH1 0x2 ADD SLOAD PUSH2 0x1A3B SWAP2 SWAP1 PUSH2 0x2DAB JUMP JUMPDEST PUSH1 0x7 PUSH1 0x0 DUP10 PUSH20 0xFFFFFFFFFFFFFFFFFFFFFFFFFFFFFFFFFFFFFFFF AND PUSH20 0xFFFFFFFFFFFFFFFFFFFFFFFFFFFFFFFFFFFFFFFF AND DUP2 MSTORE PUSH1 0x20 ADD SWAP1 DUP2 MSTORE PUSH1 0x20 ADD PUSH1 0x0 KECCAK256 SLOAD PUSH2 0x1A85 SWAP2 SWAP1 PUSH2 0x2F27 JUMP JUMPDEST SWAP4 POP PUSH1 0x64 PUSH1 0x6 PUSH1 0x0 DUP10 PUSH20 0xFFFFFFFFFFFFFFFFFFFFFFFFFFFFFFFFFFFFFFFF AND PUSH20 0xFFFFFFFFFFFFFFFFFFFFFFFFFFFFFFFFFFFFFFFF AND DUP2 MSTORE PUSH1 0x20 ADD SWAP1 DUP2 MSTORE PUSH1 0x20 ADD PUSH1 0x0 KECCAK256 PUSH1 0x3 ADD SLOAD SUB PUSH2 0x1BFD JUMPI DUP1 DUP5 PUSH2 0x1ADD SWAP2 SWAP1 PUSH2 0x2DAB JUMP JUMPDEST SWAP6 POP DUP6 PUSH1 0x6 PUSH1 0x0 DUP10 PUSH20 0xFFFFFFFFFFFFFFFFFFFFFFFFFFFFFFFFFFFFFFFF AND PUSH20 0xFFFFFFFFFFFFFFFFFFFFFFFFFFFFFFFFFFFFFFFF AND DUP2 MSTORE PUSH1 0x20 ADD SWAP1 DUP2 MSTORE PUSH1 0x20 ADD PUSH1 0x0 KECCAK256 PUSH1 0x0 ADD SLOAD PUSH2 0x1B2D SWAP2 SWAP1 PUSH2 0x2DED JUMP JUMPDEST SWAP3 POP PUSH2 0x3E8 PUSH1 0x5 SLOAD DUP5 PUSH2 0x1B40 SWAP2 SWAP1 PUSH2 0x2DAB JUMP JUMPDEST PUSH2 0x1B4A SWAP2 SWAP1 PUSH2 0x2F27 JUMP JUMPDEST SWAP2 POP PUSH1 0x1 PUSH1 0x0 SWAP1 SLOAD SWAP1 PUSH2 0x100 EXP SWAP1 DIV PUSH20 0xFFFFFFFFFFFFFFFFFFFFFFFFFFFFFFFFFFFFFFFF AND PUSH20 0xFFFFFFFFFFFFFFFFFFFFFFFFFFFFFFFFFFFFFFFF AND PUSH4 0xA9059CBB DUP9 DUP5 DUP7 PUSH2 0x1B97 SWAP2 SWAP1 PUSH2 0x2EC4 JUMP JUMPDEST PUSH1 0x40 MLOAD DUP4 PUSH4 0xFFFFFFFF AND PUSH1 0xE0 SHL DUP2 MSTORE PUSH1 0x4 ADD PUSH2 0x1BB4 SWAP3 SWAP2 SWAP1 PUSH2 0x2F58 JUMP JUMPDEST PUSH1 0x20 PUSH1 0x40 MLOAD DUP1 DUP4 SUB DUP2 PUSH1 0x0 DUP8 GAS CALL ISZERO DUP1 ISZERO PUSH2 0x1BD3 JUMPI RETURNDATASIZE PUSH1 0x0 DUP1 RETURNDATACOPY RETURNDATASIZE PUSH1 0x0 REVERT JUMPDEST POP POP POP POP PUSH1 0x40 MLOAD RETURNDATASIZE PUSH1 0x1F NOT PUSH1 0x1F DUP3 ADD AND DUP3 ADD DUP1 PUSH1 0x40 MSTORE POP DUP2 ADD SWAP1 PUSH2 0x1BF7 SWAP2 SWAP1 PUSH2 0x2FAD JUMP JUMPDEST POP PUSH2 0x20A9 JUMP JUMPDEST PUSH1 0x4B PUSH1 0x6 PUSH1 0x0 DUP10 PUSH20 0xFFFFFFFFFFFFFFFFFFFFFFFFFFFFFFFFFFFFFFFF AND PUSH20 0xFFFFFFFFFFFFFFFFFFFFFFFFFFFFFFFFFFFFFFFF AND DUP2 MSTORE PUSH1 0x20 ADD SWAP1 DUP2 MSTORE PUSH1 0x20 ADD PUSH1 0x0 KECCAK256 PUSH1 0x3 ADD SLOAD SUB PUSH2 0x1E54 JUMPI PUSH1 0x64 PUSH1 0x4B DUP3 DUP7 PUSH2 0x1C57 SWAP2 SWAP1 PUSH2 0x2DAB JUMP JUMPDEST PUSH2 0x1C61 SWAP2 SWAP1 PUSH2 0x2DAB JUMP JUMPDEST PUSH2 0x1C6B SWAP2 SWAP1 PUSH2 0x2F27 JUMP JUMPDEST SWAP6 POP DUP6 PUSH1 0x6 PUSH1 0x0 DUP10 PUSH20 0xFFFFFFFFFFFFFFFFFFFFFFFFFFFFFFFFFFFFFFFF AND PUSH20 0xFFFFFFFFFFFFFFFFFFFFFFFFFFFFFFFFFFFFFFFF AND DUP2 MSTORE PUSH1 0x20 ADD SWAP1 DUP2 MSTORE PUSH1 0x20 ADD PUSH1 0x0 KECCAK256 PUSH1 0x0 ADD SLOAD PUSH2 0x1CBB SWAP2 SWAP1 PUSH2 0x2DED JUMP JUMPDEST SWAP3 POP PUSH2 0x3E8 PUSH1 0x5 SLOAD DUP5 PUSH2 0x1CCE SWAP2 SWAP1 PUSH2 0x2DAB JUMP JUMPDEST PUSH2 0x1CD8 SWAP2 SWAP1 PUSH2 0x2F27 JUMP JUMPDEST SWAP2 POP PUSH1 0x1 PUSH1 0x0 SWAP1 SLOAD SWAP1 PUSH2 0x100 EXP SWAP1 DIV PUSH20 0xFFFFFFFFFFFFFFFFFFFFFFFFFFFFFFFFFFFFFFFF AND PUSH20 0xFFFFFFFFFFFFFFFFFFFFFFFFFFFFFFFFFFFFFFFF AND PUSH4 0xA9059CBB DUP9 DUP5 DUP7 PUSH2 0x1D25 SWAP2 SWAP1 PUSH2 0x2EC4 JUMP JUMPDEST PUSH1 0x40 MLOAD DUP4 PUSH4 0xFFFFFFFF AND PUSH1 0xE0 SHL DUP2 MSTORE PUSH1 0x4 ADD PUSH2 0x1D42 SWAP3 SWAP2 SWAP1 PUSH2 0x2F58 JUMP JUMPDEST PUSH1 0x20 PUSH1 0x40 MLOAD DUP1 DUP4 SUB DUP2 PUSH1 0x0 DUP8 GAS CALL ISZERO DUP1 ISZERO PUSH2 0x1D61 JUMPI RETURNDATASIZE PUSH1 0x0 DUP1 RETURNDATACOPY RETURNDATASIZE PUSH1 0x0 REVERT JUMPDEST POP POP POP POP PUSH1 0x40 MLOAD RETURNDATASIZE PUSH1 0x1F NOT PUSH1 0x1F DUP3 ADD AND DUP3 ADD DUP1 PUSH1 0x40 MSTORE POP DUP2 ADD SWAP1 PUSH2 0x1D85 SWAP2 SWAP1 PUSH2 0x2FAD JUMP JUMPDEST POP PUSH1 0x64 PUSH1 0x19 DUP3 DUP7 PUSH2 0x1D96 SWAP2 SWAP1 PUSH2 0x2DAB JUMP JUMPDEST PUSH2 0x1DA0 SWAP2 SWAP1 PUSH2 0x2DAB JUMP JUMPDEST PUSH2 0x1DAA SWAP2 SWAP1 PUSH2 0x2F27 JUMP JUMPDEST SWAP5 POP PUSH1 0x1 PUSH1 0x0 SWAP1 SLOAD SWAP1 PUSH2 0x100 EXP SWAP1 DIV PUSH20 0xFFFFFFFFFFFFFFFFFFFFFFFFFFFFFFFFFFFFFFFF AND PUSH20 0xFFFFFFFFFFFFFFFFFFFFFFFFFFFFFFFFFFFFFFFF AND PUSH4 0xA9059CBB PUSH2 0xDEAD DUP8 PUSH1 0x40 MLOAD DUP4 PUSH4 0xFFFFFFFF AND PUSH1 0xE0 SHL DUP2 MSTORE PUSH1 0x4 ADD PUSH2 0x1E0B SWAP3 SWAP2 SWAP1 PUSH2 0x2F58 JUMP JUMPDEST PUSH1 0x20 PUSH1 0x40 MLOAD DUP1 DUP4 SUB DUP2 PUSH1 0x0 DUP8 GAS CALL ISZERO DUP1 ISZERO PUSH2 0x1E2A JUMPI RETURNDATASIZE PUSH1 0x0 DUP1 RETURNDATACOPY RETURNDATASIZE PUSH1 0x0 REVERT JUMPDEST POP POP POP POP PUSH1 0x40 MLOAD RETURNDATASIZE PUSH1 0x1F NOT PUSH1 0x1F DUP3 ADD AND DUP3 ADD DUP1 PUSH1 0x40 MSTORE POP DUP2 ADD SWAP1 PUSH2 0x1E4E SWAP2 SWAP1 PUSH2 0x2FAD JUMP JUMPDEST POP PUSH2 0x20A8 JUMP JUMPDEST PUSH1 0x32 PUSH1 0x6 PUSH1 0x0 DUP10 PUSH20 0xFFFFFFFFFFFFFFFFFFFFFFFFFFFFFFFFFFFFFFFF AND PUSH20 0xFFFFFFFFFFFFFFFFFFFFFFFFFFFFFFFFFFFFFFFF AND DUP2 MSTORE PUSH1 0x20 ADD SWAP1 DUP2 MSTORE PUSH1 0x20 ADD PUSH1 0x0 KECCAK256 PUSH1 0x3 ADD SLOAD SUB PUSH2 0x20A7 JUMPI PUSH1 0x64 PUSH1 0x32 DUP3 DUP7 PUSH2 0x1EAE SWAP2 SWAP1 PUSH2 0x2DAB JUMP JUMPDEST PUSH2 0x1EB8 SWAP2 SWAP1 PUSH2 0x2DAB JUMP JUMPDEST PUSH2 0x1EC2 SWAP2 SWAP1 PUSH2 0x2F27 JUMP JUMPDEST SWAP6 POP DUP6 PUSH1 0x6 PUSH1 0x0 DUP10 PUSH20 0xFFFFFFFFFFFFFFFFFFFFFFFFFFFFFFFFFFFFFFFF AND PUSH20 0xFFFFFFFFFFFFFFFFFFFFFFFFFFFFFFFFFFFFFFFF AND DUP2 MSTORE PUSH1 0x20 ADD SWAP1 DUP2 MSTORE PUSH1 0x20 ADD PUSH1 0x0 KECCAK256 PUSH1 0x0 ADD SLOAD PUSH2 0x1F12 SWAP2 SWAP1 PUSH2 0x2DED JUMP JUMPDEST SWAP3 POP PUSH2 0x3E8 PUSH1 0x5 SLOAD DUP5 PUSH2 0x1F25 SWAP2 SWAP1 PUSH2 0x2DAB JUMP JUMPDEST PUSH2 0x1F2F SWAP2 SWAP1 PUSH2 0x2F27 JUMP JUMPDEST SWAP2 POP PUSH1 0x1 PUSH1 0x0 SWAP1 SLOAD SWAP1 PUSH2 0x100 EXP SWAP1 DIV PUSH20 0xFFFFFFFFFFFFFFFFFFFFFFFFFFFFFFFFFFFFFFFF AND PUSH20 0xFFFFFFFFFFFFFFFFFFFFFFFFFFFFFFFFFFFFFFFF AND PUSH4 0xA9059CBB DUP9 DUP5 DUP7 PUSH2 0x1F7C SWAP2 SWAP1 PUSH2 0x2EC4 JUMP JUMPDEST PUSH1 0x40 MLOAD DUP4 PUSH4 0xFFFFFFFF AND PUSH1 0xE0 SHL DUP2 MSTORE PUSH1 0x4 ADD PUSH2 0x1F99 SWAP3 SWAP2 SWAP1 PUSH2 0x2F58 JUMP JUMPDEST PUSH1 0x20 PUSH1 0x40 MLOAD DUP1 DUP4 SUB DUP2 PUSH1 0x0 DUP8 GAS CALL ISZERO DUP1 ISZERO PUSH2 0x1FB8 JUMPI RETURNDATASIZE PUSH1 0x0 DUP1 RETURNDATACOPY RETURNDATASIZE PUSH1 0x0 REVERT JUMPDEST POP POP POP POP PUSH1 0x40 MLOAD RETURNDATASIZE PUSH1 0x1F NOT PUSH1 0x1F DUP3 ADD AND DUP3 ADD DUP1 PUSH1 0x40 MSTORE POP DUP2 ADD SWAP1 PUSH2 0x1FDC SWAP2 SWAP1 PUSH2 0x2FAD JUMP JUMPDEST POP PUSH1 0x64 PUSH1 0x32 DUP3 DUP7 PUSH2 0x1FED SWAP2 SWAP1 PUSH2 0x2DAB JUMP JUMPDEST PUSH2 0x1FF7 SWAP2 SWAP1 PUSH2 0x2DAB JUMP JUMPDEST PUSH2 0x2001 SWAP2 SWAP1 PUSH2 0x2F27 JUMP JUMPDEST SWAP5 POP PUSH1 0x1 PUSH1 0x0 SWAP1 SLOAD SWAP1 PUSH2 0x100 EXP SWAP1 DIV PUSH20 0xFFFFFFFFFFFFFFFFFFFFFFFFFFFFFFFFFFFFFFFF AND PUSH20 0xFFFFFFFFFFFFFFFFFFFFFFFFFFFFFFFFFFFFFFFF AND PUSH4 0xA9059CBB PUSH2 0xDEAD DUP8 PUSH1 0x40 MLOAD DUP4 PUSH4 0xFFFFFFFF AND PUSH1 0xE0 SHL DUP2 MSTORE PUSH1 0x4 ADD PUSH2 0x2062 SWAP3 SWAP2 SWAP1 PUSH2 0x2F58 JUMP JUMPDEST PUSH1 0x20 PUSH1 0x40 MLOAD DUP1 DUP4 SUB DUP2 PUSH1 0x0 DUP8 GAS CALL ISZERO DUP1 ISZERO PUSH2 0x2081 JUMPI RETURNDATASIZE PUSH1 0x0 DUP1 RETURNDATACOPY RETURNDATASIZE PUSH1 0x0 REVERT JUMPDEST POP POP POP POP PUSH1 0x40 MLOAD RETURNDATASIZE PUSH1 0x1F NOT PUSH1 0x1F DUP3 ADD AND DUP3 ADD DUP1 PUSH1 0x40 MSTORE POP DUP2 ADD SWAP1 PUSH2 0x20A5 SWAP2 SWAP1 PUSH2 0x2FAD JUMP JUMPDEST POP JUMPDEST JUMPDEST JUMPDEST POP POP POP POP JUMPDEST PUSH1 0x0 PUSH1 0x6 PUSH1 0x0 DUP6 PUSH20 0xFFFFFFFFFFFFFFFFFFFFFFFFFFFFFFFFFFFFFFFF AND PUSH20 0xFFFFFFFFFFFFFFFFFFFFFFFFFFFFFFFFFFFFFFFF AND DUP2 MSTORE PUSH1 0x20 ADD SWAP1 DUP2 MSTORE PUSH1 0x20 ADD PUSH1 0x0 KECCAK256 PUSH1 0x4 ADD PUSH1 0x0 PUSH2 0x100 EXP DUP2 SLOAD DUP2 PUSH1 0xFF MUL NOT AND SWAP1 DUP4 ISZERO ISZERO MUL OR SWAP1 SSTORE POP PUSH1 0x6 PUSH1 0x0 DUP5 PUSH20 0xFFFFFFFFFFFFFFFFFFFFFFFFFFFFFFFFFFFFFFFF AND PUSH20 0xFFFFFFFFFFFFFFFFFFFFFFFFFFFFFFFFFFFFFFFF AND DUP2 MSTORE PUSH1 0x20 ADD SWAP1 DUP2 MSTORE PUSH1 0x20 ADD PUSH1 0x0 KECCAK256 PUSH1 0x0 ADD SLOAD PUSH1 0xA PUSH1 0x0 DUP6 PUSH20 0xFFFFFFFFFFFFFFFFFFFFFFFFFFFFFFFFFFFFFFFF AND PUSH20 0xFFFFFFFFFFFFFFFFFFFFFFFFFFFFFFFFFFFFFFFF AND DUP2 MSTORE PUSH1 0x20 ADD SWAP1 DUP2 MSTORE PUSH1 0x20 ADD PUSH1 0x0 KECCAK256 PUSH1 0x0 DUP3 DUP3 SLOAD PUSH2 0x219A SWAP2 SWAP1 PUSH2 0x2EC4 JUMP JUMPDEST SWAP3 POP POP DUP2 SWAP1 SSTORE POP PUSH1 0x6 PUSH1 0x0 DUP5 PUSH20 0xFFFFFFFFFFFFFFFFFFFFFFFFFFFFFFFFFFFFFFFF AND PUSH20 0xFFFFFFFFFFFFFFFFFFFFFFFFFFFFFFFFFFFFFFFF AND DUP2 MSTORE PUSH1 0x20 ADD SWAP1 DUP2 MSTORE PUSH1 0x20 ADD PUSH1 0x0 KECCAK256 PUSH1 0x0 ADD SLOAD PUSH1 0x3 PUSH1 0x0 DUP3 DUP3 SLOAD PUSH2 0x21F5 SWAP2 SWAP1 PUSH2 0x2EC4 JUMP JUMPDEST SWAP3 POP POP DUP2 SWAP1 SSTORE POP POP POP POP JUMP JUMPDEST PUSH1 0x1 PUSH1 0x0 SWAP1 SLOAD SWAP1 PUSH2 0x100 EXP SWAP1 DIV PUSH20 0xFFFFFFFFFFFFFFFFFFFFFFFFFFFFFFFFFFFFFFFF AND DUP2 JUMP JUMPDEST PUSH2 0x222F PUSH2 0x26C6 JUMP JUMPDEST DUP1 PUSH1 0xA PUSH1 0x0 CALLER PUSH20 0xFFFFFFFFFFFFFFFFFFFFFFFFFFFFFFFFFFFFFFFF AND PUSH20 0xFFFFFFFFFFFFFFFFFFFFFFFFFFFFFFFFFFFFFFFF AND DUP2 MSTORE PUSH1 0x20 ADD SWAP1 DUP2 MSTORE PUSH1 0x20 ADD PUSH1 0x0 KECCAK256 PUSH1 0x0 DUP3 DUP3 SLOAD PUSH2 0x227E SWAP2 SWAP1 PUSH2 0x2DED JUMP JUMPDEST SWAP3 POP POP DUP2 SWAP1 SSTORE POP PUSH2 0x22D4 CALLER ADDRESS DUP4 PUSH1 0x1 PUSH1 0x0 SWAP1 SLOAD SWAP1 PUSH2 0x100 EXP SWAP1 DIV PUSH20 0xFFFFFFFFFFFFFFFFFFFFFFFFFFFFFFFFFFFFFFFF AND PUSH20 0xFFFFFFFFFFFFFFFFFFFFFFFFFFFFFFFFFFFFFFFF AND PUSH2 0x263D SWAP1 SWAP4 SWAP3 SWAP2 SWAP1 PUSH4 0xFFFFFFFF AND JUMP JUMPDEST POP JUMP JUMPDEST PUSH2 0x22DF PUSH2 0x26C6 JUMP JUMPDEST DUP3 PUSH1 0x9 PUSH1 0x0 PUSH1 0x8 PUSH1 0x0 PUSH1 0x1 DUP2 MSTORE PUSH1 0x20 ADD SWAP1 DUP2 MSTORE PUSH1 0x20 ADD PUSH1 0x0 KECCAK256 SLOAD DUP2 MSTORE PUSH1 0x20 ADD SWAP1 DUP2 MSTORE PUSH1 0x20 ADD PUSH1 0x0 KECCAK256 DUP2 SWAP1 SSTORE POP DUP2 PUSH1 0x9 PUSH1 0x0 PUSH1 0x8 PUSH1 0x0 PUSH1 0x1 DUP2 MSTORE PUSH1 0x20 ADD SWAP1 DUP2 MSTORE PUSH1 0x20 ADD PUSH1 0x0 KECCAK256 SLOAD DUP2 MSTORE PUSH1 0x20 ADD SWAP1 DUP2 MSTORE PUSH1 0x20 ADD PUSH1 0x0 KECCAK256 DUP2 SWAP1 SSTORE POP DUP1 PUSH1 0x9 PUSH1 0x0 PUSH1 0x8 PUSH1 0x0 PUSH1 0x1 DUP2 MSTORE PUSH1 0x20 ADD SWAP1 DUP2 MSTORE PUSH1 0x20 ADD PUSH1 0x0 KECCAK256 SLOAD DUP2 MSTORE PUSH1 0x20 ADD SWAP1 DUP2 MSTORE PUSH1 0x20 ADD PUSH1 0x0 KECCAK256 DUP2 SWAP1 SSTORE POP POP POP POP JUMP JUMPDEST PUSH1 0x0 TIMESTAMP PUSH1 0x6 PUSH1 0x0 DUP5 PUSH20 0xFFFFFFFFFFFFFFFFFFFFFFFFFFFFFFFFFFFFFFFF AND PUSH20 0xFFFFFFFFFFFFFFFFFFFFFFFFFFFFFFFFFFFFFFFF AND DUP2 MSTORE PUSH1 0x20 ADD SWAP1 DUP2 MSTORE PUSH1 0x20 ADD PUSH1 0x0 KECCAK256 PUSH1 0x1 ADD SLOAD PUSH1 0x3C PUSH1 0x1E PUSH1 0x6 PUSH1 0x0 DUP8 PUSH20 0xFFFFFFFFFFFFFFFFFFFFFFFFFFFFFFFFFFFFFFFF AND PUSH20 0xFFFFFFFFFFFFFFFFFFFFFFFFFFFFFFFFFFFFFFFF AND DUP2 MSTORE PUSH1 0x20 ADD SWAP1 DUP2 MSTORE PUSH1 0x20 ADD PUSH1 0x0 KECCAK256 PUSH1 0x2 ADD SLOAD PUSH2 0x23FF SWAP2 SWAP1 PUSH2 0x2DAB JUMP JUMPDEST PUSH2 0x2409 SWAP2 SWAP1 PUSH2 0x2DAB JUMP JUMPDEST PUSH2 0x2413 SWAP2 SWAP1 PUSH2 0x2DED JUMP JUMPDEST LT ISZERO PUSH2 0x2460 JUMPI PUSH1 0x7 PUSH1 0x0 DUP4 PUSH20 0xFFFFFFFFFFFFFFFFFFFFFFFFFFFFFFFFFFFFFFFF AND PUSH20 0xFFFFFFFFFFFFFFFFFFFFFFFFFFFFFFFFFFFFFFFF AND DUP2 MSTORE PUSH1 0x20 ADD SWAP1 DUP2 MSTORE PUSH1 0x20 ADD PUSH1 0x0 KECCAK256 SLOAD SWAP1 POP PUSH2 0x2572 JUMP JUMPDEST PUSH1 0x0 PUSH1 0x3C PUSH1 0x6 PUSH1 0x0 DUP6 PUSH20 0xFFFFFFFFFFFFFFFFFFFFFFFFFFFFFFFFFFFFFFFF AND PUSH20 0xFFFFFFFFFFFFFFFFFFFFFFFFFFFFFFFFFFFFFFFF AND DUP2 MSTORE PUSH1 0x20 ADD SWAP1 DUP2 MSTORE PUSH1 0x20 ADD PUSH1 0x0 KECCAK256 PUSH1 0x1 ADD SLOAD TIMESTAMP PUSH2 0x24B2 SWAP2 SWAP1 PUSH2 0x2EC4 JUMP JUMPDEST PUSH2 0x24BC SWAP2 SWAP1 PUSH2 0x2F27 JUMP JUMPDEST SWAP1 POP PUSH1 0x0 PUSH1 0x1E PUSH1 0x6 PUSH1 0x0 DUP7 PUSH20 0xFFFFFFFFFFFFFFFFFFFFFFFFFFFFFFFFFFFFFFFF AND PUSH20 0xFFFFFFFFFFFFFFFFFFFFFFFFFFFFFFFFFFFFFFFF AND DUP2 MSTORE PUSH1 0x20 ADD SWAP1 DUP2 MSTORE PUSH1 0x20 ADD PUSH1 0x0 KECCAK256 PUSH1 0x2 ADD SLOAD PUSH2 0x250F SWAP2 SWAP1 PUSH2 0x2DAB JUMP JUMPDEST PUSH1 0x7 PUSH1 0x0 DUP7 PUSH20 0xFFFFFFFFFFFFFFFFFFFFFFFFFFFFFFFFFFFFFFFF AND PUSH20 0xFFFFFFFFFFFFFFFFFFFFFFFFFFFFFFFFFFFFFFFF AND DUP2 MSTORE PUSH1 0x20 ADD SWAP1 DUP2 MSTORE PUSH1 0x20 ADD PUSH1 0x0 KECCAK256 SLOAD PUSH2 0x2559 SWAP2 SWAP1 PUSH2 0x2F27 JUMP JUMPDEST SWAP1 POP PUSH1 0x0 DUP3 DUP3 PUSH2 0x2569 SWAP2 SWAP1 PUSH2 0x2DAB JUMP JUMPDEST SWAP1 POP DUP1 SWAP4 POP POP POP POP JUMPDEST SWAP2 SWAP1 POP JUMP JUMPDEST PUSH1 0x6 PUSH1 0x20 MSTORE DUP1 PUSH1 0x0 MSTORE PUSH1 0x40 PUSH1 0x0 KECCAK256 PUSH1 0x0 SWAP2 POP SWAP1 POP DUP1 PUSH1 0x0 ADD SLOAD SWAP1 DUP1 PUSH1 0x1 ADD SLOAD SWAP1 DUP1 PUSH1 0x2 ADD SLOAD SWAP1 DUP1 PUSH1 0x3 ADD SLOAD SWAP1 DUP1 PUSH1 0x4 ADD PUSH1 0x0 SWAP1 SLOAD SWAP1 PUSH2 0x100 EXP SWAP1 DIV PUSH1 0xFF AND SWAP1 POP DUP6 JUMP JUMPDEST PUSH2 0x25C2 PUSH2 0x26C6 JUMP JUMPDEST PUSH1 0x0 PUSH20 0xFFFFFFFFFFFFFFFFFFFFFFFFFFFFFFFFFFFFFFFF AND DUP2 PUSH20 0xFFFFFFFFFFFFFFFFFFFFFFFFFFFFFFFFFFFFFFFF AND SUB PUSH2 0x2631 JUMPI PUSH1 0x40 MLOAD PUSH32 0x8C379A000000000000000000000000000000000000000000000000000000000 DUP2 MSTORE PUSH1 0x4 ADD PUSH2 0x2628 SWAP1 PUSH2 0x3268 JUMP JUMPDEST PUSH1 0x40 MLOAD DUP1 SWAP2 SUB SWAP1 REVERT JUMPDEST PUSH2 0x263A DUP2 PUSH2 0x2744 JUMP JUMPDEST POP JUMP JUMPDEST PUSH2 0x26C0 DUP5 PUSH4 0x23B872DD PUSH1 0xE0 SHL DUP6 DUP6 DUP6 PUSH1 0x40 MLOAD PUSH1 0x24 ADD PUSH2 0x265E SWAP4 SWAP3 SWAP2 SWAP1 PUSH2 0x3288 JUMP JUMPDEST PUSH1 0x40 MLOAD PUSH1 0x20 DUP2 DUP4 SUB SUB DUP2 MSTORE SWAP1 PUSH1 0x40 MSTORE SWAP1 PUSH28 0xFFFFFFFFFFFFFFFFFFFFFFFFFFFFFFFFFFFFFFFFFFFFFFFFFFFFFFFF NOT AND PUSH1 0x20 DUP3 ADD DUP1 MLOAD PUSH28 0xFFFFFFFFFFFFFFFFFFFFFFFFFFFFFFFFFFFFFFFFFFFFFFFFFFFFFFFF DUP4 DUP2 DUP4 AND OR DUP4 MSTORE POP POP POP POP PUSH2 0x2808 JUMP JUMPDEST POP POP POP POP JUMP JUMPDEST PUSH2 0x26CE PUSH2 0x28CF JUMP JUMPDEST PUSH20 0xFFFFFFFFFFFFFFFFFFFFFFFFFFFFFFFFFFFFFFFF AND PUSH2 0x26EC PUSH2 0x1179 JUMP JUMPDEST PUSH20 0xFFFFFFFFFFFFFFFFFFFFFFFFFFFFFFFFFFFFFFFF AND EQ PUSH2 0x2742 JUMPI PUSH1 0x40 MLOAD PUSH32 0x8C379A000000000000000000000000000000000000000000000000000000000 DUP2 MSTORE PUSH1 0x4 ADD PUSH2 0x2739 SWAP1 PUSH2 0x330B JUMP JUMPDEST PUSH1 0x40 MLOAD DUP1 SWAP2 SUB SWAP1 REVERT JUMPDEST JUMP JUMPDEST PUSH1 0x0 DUP1 PUSH1 0x0 SWAP1 SLOAD SWAP1 PUSH2 0x100 EXP SWAP1 DIV PUSH20 0xFFFFFFFFFFFFFFFFFFFFFFFFFFFFFFFFFFFFFFFF AND SWAP1 POP DUP2 PUSH1 0x0 DUP1 PUSH2 0x100 EXP DUP2 SLOAD DUP2 PUSH20 0xFFFFFFFFFFFFFFFFFFFFFFFFFFFFFFFFFFFFFFFF MUL NOT AND SWAP1 DUP4 PUSH20 0xFFFFFFFFFFFFFFFFFFFFFFFFFFFFFFFFFFFFFFFF AND MUL OR SWAP1 SSTORE POP DUP2 PUSH20 0xFFFFFFFFFFFFFFFFFFFFFFFFFFFFFFFFFFFFFFFF AND DUP2 PUSH20 0xFFFFFFFFFFFFFFFFFFFFFFFFFFFFFFFFFFFFFFFF AND PUSH32 0x8BE0079C531659141344CD1FD0A4F28419497F9722A3DAAFE3B4186F6B6457E0 PUSH1 0x40 MLOAD PUSH1 0x40 MLOAD DUP1 SWAP2 SUB SWAP1 LOG3 POP POP JUMP JUMPDEST PUSH1 0x0 PUSH2 0x286A DUP3 PUSH1 0x40 MLOAD DUP1 PUSH1 0x40 ADD PUSH1 0x40 MSTORE DUP1 PUSH1 0x20 DUP2 MSTORE PUSH1 0x20 ADD PUSH32 0x5361666545524332303A206C6F772D6C6576656C2063616C6C206661696C6564 DUP2 MSTORE POP DUP6 PUSH20 0xFFFFFFFFFFFFFFFFFFFFFFFFFFFFFFFFFFFFFFFF AND PUSH2 0x28D7 SWAP1 SWAP3 SWAP2 SWAP1 PUSH4 0xFFFFFFFF AND JUMP JUMPDEST SWAP1 POP PUSH1 0x0 DUP2 MLOAD GT ISZERO PUSH2 0x28CA JUMPI DUP1 DUP1 PUSH1 0x20 ADD SWAP1 MLOAD DUP2 ADD SWAP1 PUSH2 0x288A SWAP2 SWAP1 PUSH2 0x2FAD JUMP JUMPDEST PUSH2 0x28C9 JUMPI PUSH1 0x40 MLOAD PUSH32 0x8C379A000000000000000000000000000000000000000000000000000000000 DUP2 MSTORE PUSH1 0x4 ADD PUSH2 0x28C0 SWAP1 PUSH2 0x339D JUMP JUMPDEST PUSH1 0x40 MLOAD DUP1 SWAP2 SUB SWAP1 REVERT JUMPDEST JUMPDEST POP POP POP JUMP JUMPDEST PUSH1 0x0 CALLER SWAP1 POP SWAP1 JUMP JUMPDEST PUSH1 0x60 PUSH2 0x28E6 DUP5 DUP5 PUSH1 0x0 DUP6 PUSH2 0x28EF JUMP JUMPDEST SWAP1 POP SWAP4 SWAP3 POP POP POP JUMP JUMPDEST PUSH1 0x60 DUP3 SELFBALANCE LT ISZERO PUSH2 0x2934 JUMPI PUSH1 0x40 MLOAD PUSH32 0x8C379A000000000000000000000000000000000000000000000000000000000 DUP2 MSTORE PUSH1 0x4 ADD PUSH2 0x292B SWAP1 PUSH2 0x342F JUMP JUMPDEST PUSH1 0x40 MLOAD DUP1 SWAP2 SUB SWAP1 REVERT JUMPDEST PUSH1 0x0 DUP1 DUP7 PUSH20 0xFFFFFFFFFFFFFFFFFFFFFFFFFFFFFFFFFFFFFFFF AND DUP6 DUP8 PUSH1 0x40 MLOAD PUSH2 0x295D SWAP2 SWAP1 PUSH2 0x34C0 JUMP JUMPDEST PUSH1 0x0 PUSH1 0x40 MLOAD DUP1 DUP4 SUB DUP2 DUP6 DUP8 GAS CALL SWAP3 POP POP POP RETURNDATASIZE DUP1 PUSH1 0x0 DUP2 EQ PUSH2 0x299A JUMPI PUSH1 0x40 MLOAD SWAP2 POP PUSH1 0x1F NOT PUSH1 0x3F RETURNDATASIZE ADD AND DUP3 ADD PUSH1 0x40 MSTORE RETURNDATASIZE DUP3 MSTORE RETURNDATASIZE PUSH1 0x0 PUSH1 0x20 DUP5 ADD RETURNDATACOPY PUSH2 0x299F JUMP JUMPDEST PUSH1 0x60 SWAP2 POP JUMPDEST POP SWAP2 POP SWAP2 POP PUSH2 0x29B0 DUP8 DUP4 DUP4 DUP8 PUSH2 0x29BC JUMP JUMPDEST SWAP3 POP POP POP SWAP5 SWAP4 POP POP POP POP JUMP JUMPDEST PUSH1 0x60 DUP4 ISZERO PUSH2 0x2A1E JUMPI PUSH1 0x0 DUP4 MLOAD SUB PUSH2 0x2A16 JUMPI PUSH2 0x29D6 DUP6 PUSH2 0x2A31 JUMP JUMPDEST PUSH2 0x2A15 JUMPI PUSH1 0x40 MLOAD PUSH32 0x8C379A000000000000000000000000000000000000000000000000000000000 DUP2 MSTORE PUSH1 0x4 ADD PUSH2 0x2A0C SWAP1 PUSH2 0x3523 JUMP JUMPDEST PUSH1 0x40 MLOAD DUP1 SWAP2 SUB SWAP1 REVERT JUMPDEST JUMPDEST DUP3 SWAP1 POP PUSH2 0x2A29 JUMP JUMPDEST PUSH2 0x2A28 DUP4 DUP4 PUSH2 0x2A54 JUMP JUMPDEST JUMPDEST SWAP5 SWAP4 POP POP POP POP JUMP JUMPDEST PUSH1 0x0 DUP1 DUP3 PUSH20 0xFFFFFFFFFFFFFFFFFFFFFFFFFFFFFFFFFFFFFFFF AND EXTCODESIZE GT SWAP1 POP SWAP2 SWAP1 POP JUMP JUMPDEST PUSH1 0x0 DUP3 MLOAD GT ISZERO PUSH2 0x2A67 JUMPI DUP2 MLOAD DUP1 DUP4 PUSH1 0x20 ADD REVERT JUMPDEST DUP1 PUSH1 0x40 MLOAD PUSH32 0x8C379A000000000000000000000000000000000000000000000000000000000 DUP2 MSTORE PUSH1 0x4 ADD PUSH2 0x2A9B SWAP2 SWAP1 PUSH2 0x3598 JUMP JUMPDEST PUSH1 0x40 MLOAD DUP1 SWAP2 SUB SWAP1 REVERT JUMPDEST PUSH1 0x0 DUP1 REVERT JUMPDEST PUSH1 0x0 PUSH20 0xFFFFFFFFFFFFFFFFFFFFFFFFFFFFFFFFFFFFFFFF DUP3 AND SWAP1 POP SWAP2 SWAP1 POP JUMP JUMPDEST PUSH1 0x0 PUSH2 0x2AD4 DUP3 PUSH2 0x2AA9 JUMP JUMPDEST SWAP1 POP SWAP2 SWAP1 POP JUMP JUMPDEST PUSH2 0x2AE4 DUP2 PUSH2 0x2AC9 JUMP JUMPDEST DUP2 EQ PUSH2 0x2AEF JUMPI PUSH1 0x0 DUP1 REVERT JUMPDEST POP JUMP JUMPDEST PUSH1 0x0 DUP2 CALLDATALOAD SWAP1 POP PUSH2 0x2B01 DUP2 PUSH2 0x2ADB JUMP JUMPDEST SWAP3 SWAP2 POP POP JUMP JUMPDEST PUSH1 0x0 PUSH1 0x20 DUP3 DUP5 SUB SLT ISZERO PUSH2 0x2B1D JUMPI PUSH2 0x2B1C PUSH2 0x2AA4 JUMP JUMPDEST JUMPDEST PUSH1 0x0 PUSH2 0x2B2B DUP5 DUP3 DUP6 ADD PUSH2 0x2AF2 JUMP JUMPDEST SWAP2 POP POP SWAP3 SWAP2 POP POP JUMP JUMPDEST PUSH1 0x0 DUP2 SWAP1 POP SWAP2 SWAP1 POP JUMP JUMPDEST PUSH2 0x2B47 DUP2 PUSH2 0x2B34 JUMP JUMPDEST DUP3 MSTORE POP POP JUMP JUMPDEST PUSH1 0x0 PUSH1 0x20 DUP3 ADD SWAP1 POP PUSH2 0x2B62 PUSH1 0x0 DUP4 ADD DUP5 PUSH2 0x2B3E JUMP JUMPDEST SWAP3 SWAP2 POP POP JUMP JUMPDEST PUSH2 0x2B71 DUP2 PUSH2 0x2B34 JUMP JUMPDEST DUP2 EQ PUSH2 0x2B7C JUMPI PUSH1 0x0 DUP1 REVERT JUMPDEST POP JUMP JUMPDEST PUSH1 0x0 DUP2 CALLDATALOAD SWAP1 POP PUSH2 0x2B8E DUP2 PUSH2 0x2B68 JUMP JUMPDEST SWAP3 SWAP2 POP POP JUMP JUMPDEST PUSH1 0x0 DUP1 PUSH1 0x0 DUP1 PUSH1 0x80 DUP6 DUP8 SUB SLT ISZERO PUSH2 0x2BAE JUMPI PUSH2 0x2BAD PUSH2 0x2AA4 JUMP JUMPDEST JUMPDEST PUSH1 0x0 PUSH2 0x2BBC DUP8 DUP3 DUP9 ADD PUSH2 0x2AF2 JUMP JUMPDEST SWAP5 POP POP PUSH1 0x20 PUSH2 0x2BCD DUP8 DUP3 DUP9 ADD PUSH2 0x2B7F JUMP JUMPDEST SWAP4 POP POP PUSH1 0x40 PUSH2 0x2BDE DUP8 DUP3 DUP9 ADD PUSH2 0x2B7F JUMP JUMPDEST SWAP3 POP POP PUSH1 0x60 PUSH2 0x2BEF DUP8 DUP3 DUP9 ADD PUSH2 0x2B7F JUMP JUMPDEST SWAP2 POP POP SWAP3 SWAP6 SWAP2 SWAP5 POP SWAP3 POP JUMP JUMPDEST PUSH1 0x0 PUSH1 0x20 DUP3 DUP5 SUB SLT ISZERO PUSH2 0x2C11 JUMPI PUSH2 0x2C10 PUSH2 0x2AA4 JUMP JUMPDEST JUMPDEST PUSH1 0x0 PUSH2 0x2C1F DUP5 DUP3 DUP6 ADD PUSH2 0x2B7F JUMP JUMPDEST SWAP2 POP POP SWAP3 SWAP2 POP POP JUMP JUMPDEST PUSH1 0x0 DUP1 PUSH1 0x0 PUSH1 0x60 DUP5 DUP7 SUB SLT ISZERO PUSH2 0x2C41 JUMPI PUSH2 0x2C40 PUSH2 0x2AA4 JUMP JUMPDEST JUMPDEST PUSH1 0x0 PUSH2 0x2C4F DUP7 DUP3 DUP8 ADD PUSH2 0x2B7F JUMP JUMPDEST SWAP4 POP POP PUSH1 0x20 PUSH2 0x2C60 DUP7 DUP3 DUP8 ADD PUSH2 0x2B7F JUMP JUMPDEST SWAP3 POP POP PUSH1 0x40 PUSH2 0x2C71 DUP7 DUP3 DUP8 ADD PUSH2 0x2B7F JUMP JUMPDEST SWAP2 POP POP SWAP3 POP SWAP3 POP SWAP3 JUMP JUMPDEST PUSH1 0x0 DUP1 PUSH1 0x40 DUP4 DUP6 SUB SLT ISZERO PUSH2 0x2C92 JUMPI PUSH2 0x2C91 PUSH2 0x2AA4 JUMP JUMPDEST JUMPDEST PUSH1 0x0 PUSH2 0x2CA0 DUP6 DUP3 DUP7 ADD PUSH2 0x2B7F JUMP JUMPDEST SWAP3 POP POP PUSH1 0x20 PUSH2 0x2CB1 DUP6 DUP3 DUP7 ADD PUSH2 0x2B7F JUMP JUMPDEST SWAP2 POP POP SWAP3 POP SWAP3 SWAP1 POP JUMP JUMPDEST PUSH1 0x0 PUSH1 0x40 DUP3 ADD SWAP1 POP PUSH2 0x2CD0 PUSH1 0x0 DUP4 ADD DUP6 PUSH2 0x2B3E JUMP JUMPDEST PUSH2 0x2CDD PUSH1 0x20 DUP4 ADD DUP5 PUSH2 0x2B3E JUMP JUMPDEST SWAP4 SWAP3 POP POP POP JUMP JUMPDEST PUSH2 0x2CED DUP2 PUSH2 0x2AC9 JUMP JUMPDEST DUP3 MSTORE POP POP JUMP JUMPDEST PUSH1 0x0 PUSH1 0x20 DUP3 ADD SWAP1 POP PUSH2 0x2D08 PUSH1 0x0 DUP4 ADD DUP5 PUSH2 0x2CE4 JUMP JUMPDEST SWAP3 SWAP2 POP POP JUMP JUMPDEST PUSH1 0x0 DUP2 ISZERO ISZERO SWAP1 POP SWAP2 SWAP1 POP JUMP JUMPDEST PUSH2 0x2D23 DUP2 PUSH2 0x2D0E JUMP JUMPDEST DUP3 MSTORE POP POP JUMP JUMPDEST PUSH1 0x0 PUSH1 0xA0 DUP3 ADD SWAP1 POP PUSH2 0x2D3E PUSH1 0x0 DUP4 ADD DUP9 PUSH2 0x2B3E JUMP JUMPDEST PUSH2 0x2D4B PUSH1 0x20 DUP4 ADD DUP8 PUSH2 0x2B3E JUMP JUMPDEST PUSH2 0x2D58 PUSH1 0x40 DUP4 ADD DUP7 PUSH2 0x2B3E JUMP JUMPDEST PUSH2 0x2D65 PUSH1 0x60 DUP4 ADD DUP6 PUSH2 0x2B3E JUMP JUMPDEST PUSH2 0x2D72 PUSH1 0x80 DUP4 ADD DUP5 PUSH2 0x2D1A JUMP JUMPDEST SWAP7 SWAP6 POP POP POP POP POP POP JUMP JUMPDEST PUSH32 0x4E487B7100000000000000000000000000000000000000000000000000000000 PUSH1 0x0 MSTORE PUSH1 0x11 PUSH1 0x4 MSTORE PUSH1 0x24 PUSH1 0x0 REVERT JUMPDEST PUSH1 0x0 PUSH2 0x2DB6 DUP3 PUSH2 0x2B34 JUMP JUMPDEST SWAP2 POP PUSH2 0x2DC1 DUP4 PUSH2 0x2B34 JUMP JUMPDEST SWAP3 POP DUP3 DUP3 MUL PUSH2 0x2DCF DUP2 PUSH2 0x2B34 JUMP JUMPDEST SWAP2 POP DUP3 DUP3 DIV DUP5 EQ DUP4 ISZERO OR PUSH2 0x2DE6 JUMPI PUSH2 0x2DE5 PUSH2 0x2D7C JUMP JUMPDEST JUMPDEST POP SWAP3 SWAP2 POP POP JUMP JUMPDEST PUSH1 0x0 PUSH2 0x2DF8 DUP3 PUSH2 0x2B34 JUMP JUMPDEST SWAP2 POP PUSH2 0x2E03 DUP4 PUSH2 0x2B34 JUMP JUMPDEST SWAP3 POP DUP3 DUP3 ADD SWAP1 POP DUP1 DUP3 GT ISZERO PUSH2 0x2E1B JUMPI PUSH2 0x2E1A PUSH2 0x2D7C JUMP JUMPDEST JUMPDEST SWAP3 SWAP2 POP POP JUMP JUMPDEST PUSH1 0x0 DUP3 DUP3 MSTORE PUSH1 0x20 DUP3 ADD SWAP1 POP SWAP3 SWAP2 POP POP JUMP JUMPDEST PUSH32 0x596F7572205374616B652054696D6520436F6D706C6574652C20506C65617365 PUSH1 0x0 DUP3 ADD MSTORE PUSH32 0x2043616C6C2057697468647261772046756E6374696F6E202100000000000000 PUSH1 0x20 DUP3 ADD MSTORE POP JUMP JUMPDEST PUSH1 0x0 PUSH2 0x2E8E PUSH1 0x39 DUP4 PUSH2 0x2E21 JUMP JUMPDEST SWAP2 POP PUSH2 0x2E99 DUP3 PUSH2 0x2E32 JUMP JUMPDEST PUSH1 0x40 DUP3 ADD SWAP1 POP SWAP2 SWAP1 POP JUMP JUMPDEST PUSH1 0x0 PUSH1 0x20 DUP3 ADD SWAP1 POP DUP2 DUP2 SUB PUSH1 0x0 DUP4 ADD MSTORE PUSH2 0x2EBD DUP2 PUSH2 0x2E81 JUMP JUMPDEST SWAP1 POP SWAP2 SWAP1 POP JUMP JUMPDEST PUSH1 0x0 PUSH2 0x2ECF DUP3 PUSH2 0x2B34 JUMP JUMPDEST SWAP2 POP PUSH2 0x2EDA DUP4 PUSH2 0x2B34 JUMP JUMPDEST SWAP3 POP DUP3 DUP3 SUB SWAP1 POP DUP2 DUP2 GT ISZERO PUSH2 0x2EF2 JUMPI PUSH2 0x2EF1 PUSH2 0x2D7C JUMP JUMPDEST JUMPDEST SWAP3 SWAP2 POP POP JUMP JUMPDEST PUSH32 0x4E487B7100000000000000000000000000000000000000000000000000000000 PUSH1 0x0 MSTORE PUSH1 0x12 PUSH1 0x4 MSTORE PUSH1 0x24 PUSH1 0x0 REVERT JUMPDEST PUSH1 0x0 PUSH2 0x2F32 DUP3 PUSH2 0x2B34 JUMP JUMPDEST SWAP2 POP PUSH2 0x2F3D DUP4 PUSH2 0x2B34 JUMP JUMPDEST SWAP3 POP DUP3 PUSH2 0x2F4D JUMPI PUSH2 0x2F4C PUSH2 0x2EF8 JUMP JUMPDEST JUMPDEST DUP3 DUP3 DIV SWAP1 POP SWAP3 SWAP2 POP POP JUMP JUMPDEST PUSH1 0x0 PUSH1 0x40 DUP3 ADD SWAP1 POP PUSH2 0x2F6D PUSH1 0x0 DUP4 ADD DUP6 PUSH2 0x2CE4 JUMP JUMPDEST PUSH2 0x2F7A PUSH1 0x20 DUP4 ADD DUP5 PUSH2 0x2B3E JUMP JUMPDEST SWAP4 SWAP3 POP POP POP JUMP JUMPDEST PUSH2 0x2F8A DUP2 PUSH2 0x2D0E JUMP JUMPDEST DUP2 EQ PUSH2 0x2F95 JUMPI PUSH1 0x0 DUP1 REVERT JUMPDEST POP JUMP JUMPDEST PUSH1 0x0 DUP2 MLOAD SWAP1 POP PUSH2 0x2FA7 DUP2 PUSH2 0x2F81 JUMP JUMPDEST SWAP3 SWAP2 POP POP JUMP JUMPDEST PUSH1 0x0 PUSH1 0x20 DUP3 DUP5 SUB SLT ISZERO PUSH2 0x2FC3 JUMPI PUSH2 0x2FC2 PUSH2 0x2AA4 JUMP JUMPDEST JUMPDEST PUSH1 0x0 PUSH2 0x2FD1 DUP5 DUP3 DUP6 ADD PUSH2 0x2F98 JUMP JUMPDEST SWAP2 POP POP SWAP3 SWAP2 POP POP JUMP JUMPDEST PUSH32 0x506C656173652057616974202121210000000000000000000000000000000000 PUSH1 0x0 DUP3 ADD MSTORE POP JUMP JUMPDEST PUSH1 0x0 PUSH2 0x3010 PUSH1 0xF DUP4 PUSH2 0x2E21 JUMP JUMPDEST SWAP2 POP PUSH2 0x301B DUP3 PUSH2 0x2FDA JUMP JUMPDEST PUSH1 0x20 DUP3 ADD SWAP1 POP SWAP2 SWAP1 POP JUMP JUMPDEST PUSH1 0x0 PUSH1 0x20 DUP3 ADD SWAP1 POP DUP2 DUP2 SUB PUSH1 0x0 DUP4 ADD MSTORE PUSH2 0x303F DUP2 PUSH2 0x3003 JUMP JUMPDEST SWAP1 POP SWAP2 SWAP1 POP JUMP JUMPDEST PUSH32 0x596F75722054696D6520506572696F6420436F6D706C6574652E000000000000 PUSH1 0x0 DUP3 ADD MSTORE POP JUMP JUMPDEST PUSH1 0x0 PUSH2 0x307C PUSH1 0x1A DUP4 PUSH2 0x2E21 JUMP JUMPDEST SWAP2 POP PUSH2 0x3087 DUP3 PUSH2 0x3046 JUMP JUMPDEST PUSH1 0x20 DUP3 ADD SWAP1 POP SWAP2 SWAP1 POP JUMP JUMPDEST PUSH1 0x0 PUSH1 0x20 DUP3 ADD SWAP1 POP DUP2 DUP2 SUB PUSH1 0x0 DUP4 ADD MSTORE PUSH2 0x30AB DUP2 PUSH2 0x306F JUMP JUMPDEST SWAP1 POP SWAP2 SWAP1 POP JUMP JUMPDEST PUSH32 0x456E746572205269676874205374616B654D6F6E746800000000000000000000 PUSH1 0x0 DUP3 ADD MSTORE POP JUMP JUMPDEST PUSH1 0x0 PUSH2 0x30E8 PUSH1 0x16 DUP4 PUSH2 0x2E21 JUMP JUMPDEST SWAP2 POP PUSH2 0x30F3 DUP3 PUSH2 0x30B2 JUMP JUMPDEST PUSH1 0x20 DUP3 ADD SWAP1 POP SWAP2 SWAP1 POP JUMP JUMPDEST PUSH1 0x0 PUSH1 0x20 DUP3 ADD SWAP1 POP DUP2 DUP2 SUB PUSH1 0x0 DUP4 ADD MSTORE PUSH2 0x3117 DUP2 PUSH2 0x30DB JUMP JUMPDEST SWAP1 POP SWAP2 SWAP1 POP JUMP JUMPDEST PUSH32 0x456E746572205269676874204561726E50657273656E74616765000000000000 PUSH1 0x0 DUP3 ADD MSTORE POP JUMP JUMPDEST PUSH1 0x0 PUSH2 0x3154 PUSH1 0x1A DUP4 PUSH2 0x2E21 JUMP JUMPDEST SWAP2 POP PUSH2 0x315F DUP3 PUSH2 0x311E JUMP JUMPDEST PUSH1 0x20 DUP3 ADD SWAP1 POP SWAP2 SWAP1 POP JUMP JUMPDEST PUSH1 0x0 PUSH1 0x20 DUP3 ADD SWAP1 POP DUP2 DUP2 SUB PUSH1 0x0 DUP4 ADD MSTORE PUSH2 0x3183 DUP2 PUSH2 0x3147 JUMP JUMPDEST SWAP1 POP SWAP2 SWAP1 POP JUMP JUMPDEST PUSH32 0x4669727374205374616B6520546F6B656E730000000000000000000000000000 PUSH1 0x0 DUP3 ADD MSTORE POP JUMP JUMPDEST PUSH1 0x0 PUSH2 0x31C0 PUSH1 0x12 DUP4 PUSH2 0x2E21 JUMP JUMPDEST SWAP2 POP PUSH2 0x31CB DUP3 PUSH2 0x318A JUMP JUMPDEST PUSH1 0x20 DUP3 ADD SWAP1 POP SWAP2 SWAP1 POP JUMP JUMPDEST PUSH1 0x0 PUSH1 0x20 DUP3 ADD SWAP1 POP DUP2 DUP2 SUB PUSH1 0x0 DUP4 ADD MSTORE PUSH2 0x31EF DUP2 PUSH2 0x31B3 JUMP JUMPDEST SWAP1 POP SWAP2 SWAP1 POP JUMP JUMPDEST PUSH32 0x4F776E61626C653A206E6577206F776E657220697320746865207A65726F2061 PUSH1 0x0 DUP3 ADD MSTORE PUSH32 0x6464726573730000000000000000000000000000000000000000000000000000 PUSH1 0x20 DUP3 ADD MSTORE POP JUMP JUMPDEST PUSH1 0x0 PUSH2 0x3252 PUSH1 0x26 DUP4 PUSH2 0x2E21 JUMP JUMPDEST SWAP2 POP PUSH2 0x325D DUP3 PUSH2 0x31F6 JUMP JUMPDEST PUSH1 0x40 DUP3 ADD SWAP1 POP SWAP2 SWAP1 POP JUMP JUMPDEST PUSH1 0x0 PUSH1 0x20 DUP3 ADD SWAP1 POP DUP2 DUP2 SUB PUSH1 0x0 DUP4 ADD MSTORE PUSH2 0x3281 DUP2 PUSH2 0x3245 JUMP JUMPDEST SWAP1 POP SWAP2 SWAP1 POP JUMP JUMPDEST PUSH1 0x0 PUSH1 0x60 DUP3 ADD SWAP1 POP PUSH2 0x329D PUSH1 0x0 DUP4 ADD DUP7 PUSH2 0x2CE4 JUMP JUMPDEST PUSH2 0x32AA PUSH1 0x20 DUP4 ADD DUP6 PUSH2 0x2CE4 JUMP JUMPDEST PUSH2 0x32B7 PUSH1 0x40 DUP4 ADD DUP5 PUSH2 0x2B3E JUMP JUMPDEST SWAP5 SWAP4 POP POP POP POP JUMP JUMPDEST PUSH32 0x4F776E61626C653A2063616C6C6572206973206E6F7420746865206F776E6572 PUSH1 0x0 DUP3 ADD MSTORE POP JUMP JUMPDEST PUSH1 0x0 PUSH2 0x32F5 PUSH1 0x20 DUP4 PUSH2 0x2E21 JUMP JUMPDEST SWAP2 POP PUSH2 0x3300 DUP3 PUSH2 0x32BF JUMP JUMPDEST PUSH1 0x20 DUP3 ADD SWAP1 POP SWAP2 SWAP1 POP JUMP JUMPDEST PUSH1 0x0 PUSH1 0x20 DUP3 ADD SWAP1 POP DUP2 DUP2 SUB PUSH1 0x0 DUP4 ADD MSTORE PUSH2 0x3324 DUP2 PUSH2 0x32E8 JUMP JUMPDEST SWAP1 POP SWAP2 SWAP1 POP JUMP JUMPDEST PUSH32 0x5361666545524332303A204552433230206F7065726174696F6E20646964206E PUSH1 0x0 DUP3 ADD MSTORE PUSH32 0x6F74207375636365656400000000000000000000000000000000000000000000 PUSH1 0x20 DUP3 ADD MSTORE POP JUMP JUMPDEST PUSH1 0x0 PUSH2 0x3387 PUSH1 0x2A DUP4 PUSH2 0x2E21 JUMP JUMPDEST SWAP2 POP PUSH2 0x3392 DUP3 PUSH2 0x332B JUMP JUMPDEST PUSH1 0x40 DUP3 ADD SWAP1 POP SWAP2 SWAP1 POP JUMP JUMPDEST PUSH1 0x0 PUSH1 0x20 DUP3 ADD SWAP1 POP DUP2 DUP2 SUB PUSH1 0x0 DUP4 ADD MSTORE PUSH2 0x33B6 DUP2 PUSH2 0x337A JUMP JUMPDEST SWAP1 POP SWAP2 SWAP1 POP JUMP JUMPDEST PUSH32 0x416464726573733A20696E73756666696369656E742062616C616E636520666F PUSH1 0x0 DUP3 ADD MSTORE PUSH32 0x722063616C6C0000000000000000000000000000000000000000000000000000 PUSH1 0x20 DUP3 ADD MSTORE POP JUMP JUMPDEST PUSH1 0x0 PUSH2 0x3419 PUSH1 0x26 DUP4 PUSH2 0x2E21 JUMP JUMPDEST SWAP2 POP PUSH2 0x3424 DUP3 PUSH2 0x33BD JUMP JUMPDEST PUSH1 0x40 DUP3 ADD SWAP1 POP SWAP2 SWAP1 POP JUMP JUMPDEST PUSH1 0x0 PUSH1 0x20 DUP3 ADD SWAP1 POP DUP2 DUP2 SUB PUSH1 0x0 DUP4 ADD MSTORE PUSH2 0x3448 DUP2 PUSH2 0x340C JUMP JUMPDEST SWAP1 POP SWAP2 SWAP1 POP JUMP JUMPDEST PUSH1 0x0 DUP2 MLOAD SWAP1 POP SWAP2 SWAP1 POP JUMP JUMPDEST PUSH1 0x0 DUP2 SWAP1 POP SWAP3 SWAP2 POP POP JUMP JUMPDEST PUSH1 0x0 JUMPDEST DUP4 DUP2 LT ISZERO PUSH2 0x3483 JUMPI DUP1 DUP3 ADD MLOAD DUP2 DUP5 ADD MSTORE PUSH1 0x20 DUP2 ADD SWAP1 POP PUSH2 0x3468 JUMP JUMPDEST PUSH1 0x0 DUP5 DUP5 ADD MSTORE POP POP POP POP JUMP JUMPDEST PUSH1 0x0 PUSH2 0x349A DUP3 PUSH2 0x344F JUMP JUMPDEST PUSH2 0x34A4 DUP2 DUP6 PUSH2 0x345A JUMP JUMPDEST SWAP4 POP PUSH2 0x34B4 DUP2 DUP6 PUSH1 0x20 DUP7 ADD PUSH2 0x3465 JUMP JUMPDEST DUP1 DUP5 ADD SWAP2 POP POP SWAP3 SWAP2 POP POP JUMP JUMPDEST PUSH1 0x0 PUSH2 0x34CC DUP3 DUP5 PUSH2 0x348F JUMP JUMPDEST SWAP2 POP DUP2 SWAP1 POP SWAP3 SWAP2 POP POP JUMP JUMPDEST PUSH32 0x416464726573733A2063616C6C20746F206E6F6E2D636F6E7472616374000000 PUSH1 0x0 DUP3 ADD MSTORE POP JUMP JUMPDEST PUSH1 0x0 PUSH2 0x350D PUSH1 0x1D DUP4 PUSH2 0x2E21 JUMP JUMPDEST SWAP2 POP PUSH2 0x3518 DUP3 PUSH2 0x34D7 JUMP JUMPDEST PUSH1 0x20 DUP3 ADD SWAP1 POP SWAP2 SWAP1 POP JUMP JUMPDEST PUSH1 0x0 PUSH1 0x20 DUP3 ADD SWAP1 POP DUP2 DUP2 SUB PUSH1 0x0 DUP4 ADD MSTORE PUSH2 0x353C DUP2 PUSH2 0x3500 JUMP JUMPDEST SWAP1 POP SWAP2 SWAP1 POP JUMP JUMPDEST PUSH1 0x0 DUP2 MLOAD SWAP1 POP SWAP2 SWAP1 POP JUMP JUMPDEST PUSH1 0x0 PUSH1 0x1F NOT PUSH1 0x1F DUP4 ADD AND SWAP1 POP SWAP2 SWAP1 POP JUMP JUMPDEST PUSH1 0x0 PUSH2 0x356A DUP3 PUSH2 0x3543 JUMP JUMPDEST PUSH2 0x3574 DUP2 DUP6 PUSH2 0x2E21 JUMP JUMPDEST SWAP4 POP PUSH2 0x3584 DUP2 DUP6 PUSH1 0x20 DUP7 ADD PUSH2 0x3465 JUMP JUMPDEST PUSH2 0x358D DUP2 PUSH2 0x354E JUMP JUMPDEST DUP5 ADD SWAP2 POP POP SWAP3 SWAP2 POP POP JUMP JUMPDEST PUSH1 0x0 PUSH1 0x20 DUP3 ADD SWAP1 POP DUP2 DUP2 SUB PUSH1 0x0 DUP4 ADD MSTORE PUSH2 0x35B2 DUP2 DUP5 PUSH2 0x355F JUMP JUMPDEST SWAP1 POP SWAP3 SWAP2 POP POP JUMP INVALID LOG2 PUSH5 0x6970667358 0x22 SLT KECCAK256 0xF6 0xBD 0x4A CALLVALUE 0x27 SHR DUP14 0x1E SWAP7 BALANCE 0xCE 0xCC KECCAK256 0xBA 0xCD 0xD7 0xE3 DUP9 SIGNEXTEND PUSH14 0x66722414B622FDABC105B1CC6473 PUSH16 0x6C634300081200330000000000000000 "
				},
				"gasEstimates": {
					"creation": {
						"codeDepositCost": "2761600",
						"executionCost": "infinite",
						"totalCost": "infinite"
					},
					"external": {
						"APY(uint256)": "infinite",
						"APYPer(uint256)": "infinite",
						"AdminAddToken(uint256)": "infinite",
						"ClaimRewards(address)": "infinite",
						"DepositTokens(address,uint256,uint256,uint256)": "infinite",
						"Details(address)": "infinite",
						"ERC20Address()": "2625",
						"InterestAmount(address)": "2925",
						"SetAPY(uint256,uint256,uint256)": "infinite",
						"SetRewardPersentage(uint256,uint256,uint256)": "infinite",
						"Tokens(address)": "2860",
						"WithdrawTokens(address)": "infinite",
						"getTaxPenalty()": "infinite",
						"owner()": "2589",
						"renounceOwnership()": "30421",
						"setTexAndPenalty(uint256,uint256)": "infinite",
						"totalStakedTokens()": "2518",
						"transferOwnership(address)": "30854",
						"viewRewards(address)": "infinite"
					}
				},
				"methodIdentifiers": {
					"APY(uint256)": "186cb65b",
					"APYPer(uint256)": "897b3a68",
					"AdminAddToken(uint256)": "c0cd40ee",
					"ClaimRewards(address)": "0178be5f",
					"DepositTokens(address,uint256,uint256,uint256)": "10c404da",
					"Details(address)": "e88cc2be",
					"ERC20Address()": "a6021ace",
					"InterestAmount(address)": "662b12c9",
					"SetAPY(uint256,uint256,uint256)": "21736665",
					"SetRewardPersentage(uint256,uint256,uint256)": "d6f80a25",
					"Tokens(address)": "0deef63a",
					"WithdrawTokens(address)": "9131a05a",
					"getTaxPenalty()": "2e886f1f",
					"owner()": "8da5cb5b",
					"renounceOwnership()": "715018a6",
					"setTexAndPenalty(uint256,uint256)": "264b4af6",
					"totalStakedTokens()": "3ae73259",
					"transferOwnership(address)": "f2fde38b",
					"viewRewards(address)": "da40ef80"
				}
			},
			"storageLayout": {
				"storage": [
					{
						"astId": 7,
						"contract": "contracts/Staking/staking.sol:TokenStaking",
						"label": "_owner",
						"offset": 0,
						"slot": "0",
						"type": "t_address"
					},
					{
						"astId": 1031,
						"contract": "contracts/Staking/staking.sol:TokenStaking",
						"label": "ERC20Address",
						"offset": 0,
						"slot": "1",
						"type": "t_address"
					},
					{
						"astId": 1033,
						"contract": "contracts/Staking/staking.sol:TokenStaking",
						"label": "ownerAddress",
						"offset": 0,
						"slot": "2",
						"type": "t_address"
					},
					{
						"astId": 1035,
						"contract": "contracts/Staking/staking.sol:TokenStaking",
						"label": "totalStakedTokens",
						"offset": 0,
						"slot": "3",
						"type": "t_uint256"
					},
					{
						"astId": 1037,
						"contract": "contracts/Staking/staking.sol:TokenStaking",
						"label": "Tax",
						"offset": 0,
						"slot": "4",
						"type": "t_uint256"
					},
					{
						"astId": 1039,
						"contract": "contracts/Staking/staking.sol:TokenStaking",
						"label": "penalty",
						"offset": 0,
						"slot": "5",
						"type": "t_uint256"
					},
					{
						"astId": 1055,
						"contract": "contracts/Staking/staking.sol:TokenStaking",
						"label": "Details",
						"offset": 0,
						"slot": "6",
						"type": "t_mapping(t_address,t_struct(Staker)1050_storage)"
					},
					{
						"astId": 1059,
						"contract": "contracts/Staking/staking.sol:TokenStaking",
						"label": "InterestAmount",
						"offset": 0,
						"slot": "7",
						"type": "t_mapping(t_address,t_uint256)"
					},
					{
						"astId": 1063,
						"contract": "contracts/Staking/staking.sol:TokenStaking",
						"label": "APY",
						"offset": 0,
						"slot": "8",
						"type": "t_mapping(t_uint256,t_uint256)"
					},
					{
						"astId": 1067,
						"contract": "contracts/Staking/staking.sol:TokenStaking",
						"label": "APYPer",
						"offset": 0,
						"slot": "9",
						"type": "t_mapping(t_uint256,t_uint256)"
					},
					{
						"astId": 1071,
						"contract": "contracts/Staking/staking.sol:TokenStaking",
						"label": "Tokens",
						"offset": 0,
						"slot": "10",
						"type": "t_mapping(t_address,t_uint256)"
					}
				],
				"types": {
					"t_address": {
						"encoding": "inplace",
						"label": "address",
						"numberOfBytes": "20"
					},
					"t_bool": {
						"encoding": "inplace",
						"label": "bool",
						"numberOfBytes": "1"
					},
					"t_mapping(t_address,t_struct(Staker)1050_storage)": {
						"encoding": "mapping",
						"key": "t_address",
						"label": "mapping(address => struct TokenStaking.Staker)",
						"numberOfBytes": "32",
						"value": "t_struct(Staker)1050_storage"
					},
					"t_mapping(t_address,t_uint256)": {
						"encoding": "mapping",
						"key": "t_address",
						"label": "mapping(address => uint256)",
						"numberOfBytes": "32",
						"value": "t_uint256"
					},
					"t_mapping(t_uint256,t_uint256)": {
						"encoding": "mapping",
						"key": "t_uint256",
						"label": "mapping(uint256 => uint256)",
						"numberOfBytes": "32",
						"value": "t_uint256"
					},
					"t_struct(Staker)1050_storage": {
						"encoding": "inplace",
						"label": "struct TokenStaking.Staker",
						"members": [
							{
								"astId": 1041,
								"contract": "contracts/Staking/staking.sol:TokenStaking",
								"label": "depositTokens",
								"offset": 0,
								"slot": "0",
								"type": "t_uint256"
							},
							{
								"astId": 1043,
								"contract": "contracts/Staking/staking.sol:TokenStaking",
								"label": "stakeTime",
								"offset": 0,
								"slot": "1",
								"type": "t_uint256"
							},
							{
								"astId": 1045,
								"contract": "contracts/Staking/staking.sol:TokenStaking",
								"label": "StakeMonth",
								"offset": 0,
								"slot": "2",
								"type": "t_uint256"
							},
							{
								"astId": 1047,
								"contract": "contracts/Staking/staking.sol:TokenStaking",
								"label": "EarnPersentage",
								"offset": 0,
								"slot": "3",
								"type": "t_uint256"
							},
							{
								"astId": 1049,
								"contract": "contracts/Staking/staking.sol:TokenStaking",
								"label": "check",
								"offset": 0,
								"slot": "4",
								"type": "t_bool"
							}
						],
						"numberOfBytes": "160"
					},
					"t_uint256": {
						"encoding": "inplace",
						"label": "uint256",
						"numberOfBytes": "32"
					}
				}
			},
			"userdoc": {
				"kind": "user",
				"methods": {},
				"version": 1
			}
		}
	}
}